{
	"contracts/ERC721TokenContractName.sol": {
		"ERC721TokenContractName": {
			"abi": [
				{
					"inputs": [
						{
							"internalType": "bytes20",
							"name": "name_",
							"type": "bytes20"
						},
						{
							"internalType": "bytes10",
							"name": "symbol_",
							"type": "bytes10"
						}
					],
					"stateMutability": "nonpayable",
					"type": "constructor"
				},
				{
					"inputs": [
						{
							"internalType": "address",
							"name": "sender",
							"type": "address"
						},
						{
							"internalType": "uint256",
							"name": "tokenId",
							"type": "uint256"
						},
						{
							"internalType": "address",
							"name": "owner",
							"type": "address"
						}
					],
					"name": "ERC721IncorrectOwner",
					"type": "error"
				},
				{
					"inputs": [
						{
							"internalType": "address",
							"name": "operator",
							"type": "address"
						},
						{
							"internalType": "uint256",
							"name": "tokenId",
							"type": "uint256"
						}
					],
					"name": "ERC721InsufficientApproval",
					"type": "error"
				},
				{
					"inputs": [
						{
							"internalType": "address",
							"name": "approver",
							"type": "address"
						}
					],
					"name": "ERC721InvalidApprover",
					"type": "error"
				},
				{
					"inputs": [
						{
							"internalType": "address",
							"name": "operator",
							"type": "address"
						}
					],
					"name": "ERC721InvalidOperator",
					"type": "error"
				},
				{
					"inputs": [
						{
							"internalType": "address",
							"name": "owner",
							"type": "address"
						}
					],
					"name": "ERC721InvalidOwner",
					"type": "error"
				},
				{
					"inputs": [
						{
							"internalType": "address",
							"name": "receiver",
							"type": "address"
						}
					],
					"name": "ERC721InvalidReceiver",
					"type": "error"
				},
				{
					"inputs": [
						{
							"internalType": "address",
							"name": "sender",
							"type": "address"
						}
					],
					"name": "ERC721InvalidSender",
					"type": "error"
				},
				{
					"inputs": [
						{
							"internalType": "uint256",
							"name": "tokenId",
							"type": "uint256"
						}
					],
					"name": "ERC721NonexistentToken",
					"type": "error"
				},
				{
					"anonymous": false,
					"inputs": [
						{
							"indexed": true,
							"internalType": "address",
							"name": "owner",
							"type": "address"
						},
						{
							"indexed": true,
							"internalType": "address",
							"name": "approved",
							"type": "address"
						},
						{
							"indexed": true,
							"internalType": "uint16",
							"name": "tokenId",
							"type": "uint16"
						}
					],
					"name": "Approval",
					"type": "event"
				},
				{
					"anonymous": false,
					"inputs": [
						{
							"indexed": true,
							"internalType": "address",
							"name": "owner",
							"type": "address"
						},
						{
							"indexed": true,
							"internalType": "address",
							"name": "operator",
							"type": "address"
						},
						{
							"indexed": false,
							"internalType": "bool",
							"name": "approved",
							"type": "bool"
						}
					],
					"name": "ApprovalForAll",
					"type": "event"
				},
				{
					"anonymous": false,
					"inputs": [
						{
							"indexed": true,
							"internalType": "address",
							"name": "from",
							"type": "address"
						},
						{
							"indexed": true,
							"internalType": "address",
							"name": "to",
							"type": "address"
						},
						{
							"indexed": true,
							"internalType": "uint16",
							"name": "tokenId",
							"type": "uint16"
						}
					],
					"name": "Transfer",
					"type": "event"
				},
				{
					"inputs": [
						{
							"internalType": "address",
							"name": "to",
							"type": "address"
						},
						{
							"internalType": "uint16",
							"name": "tokenId",
							"type": "uint16"
						}
					],
					"name": "approve",
					"outputs": [],
					"stateMutability": "nonpayable",
					"type": "function"
				},
				{
					"inputs": [
						{
							"internalType": "address",
							"name": "owner",
							"type": "address"
						}
					],
					"name": "balanceOf",
					"outputs": [
						{
							"internalType": "uint16",
							"name": "",
							"type": "uint16"
						}
					],
					"stateMutability": "view",
					"type": "function"
				},
				{
					"inputs": [
						{
							"internalType": "uint16",
							"name": "tokenId",
							"type": "uint16"
						}
					],
					"name": "getApproved",
					"outputs": [
						{
							"internalType": "address",
							"name": "",
							"type": "address"
						}
					],
					"stateMutability": "view",
					"type": "function"
				},
				{
					"inputs": [
						{
							"internalType": "address",
							"name": "owner",
							"type": "address"
						},
						{
							"internalType": "address",
							"name": "operator",
							"type": "address"
						}
					],
					"name": "isApprovedForAll",
					"outputs": [
						{
							"internalType": "bool",
							"name": "",
							"type": "bool"
						}
					],
					"stateMutability": "view",
					"type": "function"
				},
				{
					"inputs": [],
					"name": "name",
					"outputs": [
						{
							"internalType": "bytes20",
							"name": "",
							"type": "bytes20"
						}
					],
					"stateMutability": "view",
					"type": "function"
				},
				{
					"inputs": [
						{
							"internalType": "address",
							"name": "operator",
							"type": "address"
						},
						{
							"internalType": "address",
							"name": "from",
							"type": "address"
						},
						{
							"internalType": "uint16",
							"name": "tokenId",
							"type": "uint16"
						},
						{
							"internalType": "bytes",
							"name": "data",
							"type": "bytes"
						}
					],
					"name": "onERC721Received",
					"outputs": [
						{
							"internalType": "bytes4",
							"name": "",
							"type": "bytes4"
						}
					],
					"stateMutability": "nonpayable",
					"type": "function"
				},
				{
					"inputs": [
						{
							"internalType": "uint16",
							"name": "tokenId",
							"type": "uint16"
						}
					],
					"name": "ownerOf",
					"outputs": [
						{
							"internalType": "address",
							"name": "",
							"type": "address"
						}
					],
					"stateMutability": "view",
					"type": "function"
				},
				{
					"inputs": [
						{
							"internalType": "address",
							"name": "from",
							"type": "address"
						},
						{
							"internalType": "address",
							"name": "to",
							"type": "address"
						},
						{
							"internalType": "uint16",
							"name": "tokenId",
							"type": "uint16"
						}
					],
					"name": "safeTransferFrom",
					"outputs": [],
					"stateMutability": "nonpayable",
					"type": "function"
				},
				{
					"inputs": [
						{
							"internalType": "address",
							"name": "from",
							"type": "address"
						},
						{
							"internalType": "address",
							"name": "to",
							"type": "address"
						},
						{
							"internalType": "uint16",
							"name": "tokenId",
							"type": "uint16"
						},
						{
							"internalType": "bytes",
							"name": "data",
							"type": "bytes"
						}
					],
					"name": "safeTransferFrom",
					"outputs": [],
					"stateMutability": "nonpayable",
					"type": "function"
				},
				{
					"inputs": [
						{
							"internalType": "address",
							"name": "operator",
							"type": "address"
						},
						{
							"internalType": "bool",
							"name": "approved",
							"type": "bool"
						}
					],
					"name": "setApprovalForAll",
					"outputs": [],
					"stateMutability": "nonpayable",
					"type": "function"
				},
				{
					"inputs": [],
					"name": "symbol",
					"outputs": [
						{
							"internalType": "bytes10",
							"name": "",
							"type": "bytes10"
						}
					],
					"stateMutability": "view",
					"type": "function"
				},
				{
					"inputs": [
						{
							"internalType": "uint16",
							"name": "tokenId",
							"type": "uint16"
						}
					],
					"name": "tokenURI",
					"outputs": [
						{
							"internalType": "string",
							"name": "",
							"type": "string"
						}
					],
					"stateMutability": "view",
					"type": "function"
				},
				{
					"inputs": [
						{
							"internalType": "address",
							"name": "from",
							"type": "address"
						},
						{
							"internalType": "address",
							"name": "to",
							"type": "address"
						},
						{
							"internalType": "uint16",
							"name": "tokenId",
							"type": "uint16"
						}
					],
					"name": "transferFrom",
					"outputs": [],
					"stateMutability": "nonpayable",
					"type": "function"
				}
			],
			"devdoc": {
				"errors": {
					"ERC721IncorrectOwner(address,uint256,address)": [
						{
							"details": "Indicates an error related to the ownership over a particular token. Used in transfers.",
							"params": {
								"owner": "Address of the current owner of a token.",
								"sender": "Address whose tokens are being transferred.",
								"tokenId": "Identifier number of a token."
							}
						}
					],
					"ERC721InsufficientApproval(address,uint256)": [
						{
							"details": "Indicates a failure with the `operator`’s approval. Used in transfers.",
							"params": {
								"operator": "Address that may be allowed to operate on tokens without being their owner.",
								"tokenId": "Identifier number of a token."
							}
						}
					],
					"ERC721InvalidApprover(address)": [
						{
							"details": "Indicates a failure with the `approver` of a token to be approved. Used in approvals.",
							"params": {
								"approver": "Address initiating an approval operation."
							}
						}
					],
					"ERC721InvalidOperator(address)": [
						{
							"details": "Indicates a failure with the `operator` to be approved. Used in approvals.",
							"params": {
								"operator": "Address that may be allowed to operate on tokens without being their owner."
							}
						}
					],
					"ERC721InvalidOwner(address)": [
						{
							"details": "Indicates that an address can't be an owner. For example, `address(0)` is a forbidden owner in EIP-20. Used in balance queries.",
							"params": {
								"owner": "Address of the current owner of a token."
							}
						}
					],
					"ERC721InvalidReceiver(address)": [
						{
							"details": "Indicates a failure with the token `receiver`. Used in transfers.",
							"params": {
								"receiver": "Address to which tokens are being transferred."
							}
						}
					],
					"ERC721InvalidSender(address)": [
						{
							"details": "Indicates a failure with the token `sender`. Used in transfers.",
							"params": {
								"sender": "Address whose tokens are being transferred."
							}
						}
					],
					"ERC721NonexistentToken(uint256)": [
						{
							"details": "Indicates a `tokenId` whose `owner` is the zero address.",
							"params": {
								"tokenId": "Identifier number of a token."
							}
						}
					]
				},
				"kind": "dev",
				"methods": {
					"onERC721Received(address,address,uint16,bytes)": {
						"details": "Whenever an {IERC721} `tokenId` token is transferred to this contract via {IERC721-safeTransferFrom} by `operator` from `from`, this function is called. It must return its Solidity selector to confirm the token transfer. If any other value is returned or the interface is not implemented by the recipient, the transfer will be reverted. The selector can be obtained in Solidity with `IERC721Receiver.onERC721Received.selector`."
					}
				},
				"version": 1
			},
			"evm": {
				"assembly": "    /* \"contracts/ERC721TokenContractName.sol\":400:5931  contract ERC721TokenContractName is Context, IERC721Errors, IERC721TCNReceiver {... */\n  mstore(0x40, 0x80)\n    /* \"contracts/ERC721TokenContractName.sol\":1340:1444  constructor(bytes20 name_, bytes10 symbol_) {... */\n  callvalue\n  dup1\n  iszero\n  tag_1\n  jumpi\n  0x00\n  dup1\n  revert\ntag_1:\n  pop\n  mload(0x40)\n  sub(codesize, bytecodeSize)\n  dup1\n  bytecodeSize\n  dup4\n  codecopy\n  dup2\n  dup2\n  add\n  0x40\n  mstore\n  dup2\n  add\n  swap1\n  tag_2\n  swap2\n  swap1\n  tag_3\n  jump\t// in\ntag_2:\n    /* \"contracts/ERC721TokenContractName.sol\":1403:1408  name_ */\n  dup2\n    /* \"contracts/ERC721TokenContractName.sol\":1395:1400  _name */\n  0x00\n  dup1\n    /* \"contracts/ERC721TokenContractName.sol\":1395:1408  _name = name_ */\n  0x0100\n  exp\n  dup2\n  sload\n  dup2\n  0xffffffffffffffffffffffffffffffffffffffff\n  mul\n  not\n  and\n  swap1\n  dup4\n  0x60\n  shr\n  mul\n  or\n  swap1\n  sstore\n  pop\n    /* \"contracts/ERC721TokenContractName.sol\":1429:1436  symbol_ */\n  dup1\n    /* \"contracts/ERC721TokenContractName.sol\":1419:1426  _symbol */\n  0x00\n  0x14\n    /* \"contracts/ERC721TokenContractName.sol\":1419:1436  _symbol = symbol_ */\n  0x0100\n  exp\n  dup2\n  sload\n  dup2\n  0xffffffffffffffffffff\n  mul\n  not\n  and\n  swap1\n  dup4\n  0xb0\n  shr\n  mul\n  or\n  swap1\n  sstore\n  pop\n    /* \"contracts/ERC721TokenContractName.sol\":1340:1444  constructor(bytes20 name_, bytes10 symbol_) {... */\n  pop\n  pop\n    /* \"contracts/ERC721TokenContractName.sol\":400:5931  contract ERC721TokenContractName is Context, IERC721Errors, IERC721TCNReceiver {... */\n  jump(tag_6)\n    /* \"#utility.yul\":88:205   */\ntag_8:\n    /* \"#utility.yul\":197:198   */\n  0x00\n    /* \"#utility.yul\":194:195   */\n  dup1\n    /* \"#utility.yul\":187:199   */\n  revert\n    /* \"#utility.yul\":334:484   */\ntag_10:\n    /* \"#utility.yul\":371:378   */\n  0x00\n    /* \"#utility.yul\":411:477   */\n  0xffffffffffffffffffffffffffffffffffffffff000000000000000000000000\n    /* \"#utility.yul\":404:409   */\n  dup3\n    /* \"#utility.yul\":400:478   */\n  and\n    /* \"#utility.yul\":389:478   */\n  swap1\n  pop\n    /* \"#utility.yul\":334:484   */\n  swap2\n  swap1\n  pop\n  jump\t// out\n    /* \"#utility.yul\":490:612   */\ntag_11:\n    /* \"#utility.yul\":563:587   */\n  tag_22\n    /* \"#utility.yul\":581:586   */\n  dup2\n    /* \"#utility.yul\":563:587   */\n  tag_10\n  jump\t// in\ntag_22:\n    /* \"#utility.yul\":556:561   */\n  dup2\n    /* \"#utility.yul\":553:588   */\n  eq\n    /* \"#utility.yul\":543:606   */\n  tag_23\n  jumpi\n    /* \"#utility.yul\":602:603   */\n  0x00\n    /* \"#utility.yul\":599:600   */\n  dup1\n    /* \"#utility.yul\":592:604   */\n  revert\n    /* \"#utility.yul\":543:606   */\ntag_23:\n    /* \"#utility.yul\":490:612   */\n  pop\n  jump\t// out\n    /* \"#utility.yul\":618:761   */\ntag_12:\n    /* \"#utility.yul\":675:680   */\n  0x00\n    /* \"#utility.yul\":706:712   */\n  dup2\n    /* \"#utility.yul\":700:713   */\n  mload\n    /* \"#utility.yul\":691:713   */\n  swap1\n  pop\n    /* \"#utility.yul\":722:755   */\n  tag_25\n    /* \"#utility.yul\":749:754   */\n  dup2\n    /* \"#utility.yul\":722:755   */\n  tag_11\n  jump\t// in\ntag_25:\n    /* \"#utility.yul\":618:761   */\n  swap3\n  swap2\n  pop\n  pop\n  jump\t// out\n    /* \"#utility.yul\":767:917   */\ntag_13:\n    /* \"#utility.yul\":804:811   */\n  0x00\n    /* \"#utility.yul\":844:910   */\n  0xffffffffffffffffffff00000000000000000000000000000000000000000000\n    /* \"#utility.yul\":837:842   */\n  dup3\n    /* \"#utility.yul\":833:911   */\n  and\n    /* \"#utility.yul\":822:911   */\n  swap1\n  pop\n    /* \"#utility.yul\":767:917   */\n  swap2\n  swap1\n  pop\n  jump\t// out\n    /* \"#utility.yul\":923:1045   */\ntag_14:\n    /* \"#utility.yul\":996:1020   */\n  tag_28\n    /* \"#utility.yul\":1014:1019   */\n  dup2\n    /* \"#utility.yul\":996:1020   */\n  tag_13\n  jump\t// in\ntag_28:\n    /* \"#utility.yul\":989:994   */\n  dup2\n    /* \"#utility.yul\":986:1021   */\n  eq\n    /* \"#utility.yul\":976:1039   */\n  tag_29\n  jumpi\n    /* \"#utility.yul\":1035:1036   */\n  0x00\n    /* \"#utility.yul\":1032:1033   */\n  dup1\n    /* \"#utility.yul\":1025:1037   */\n  revert\n    /* \"#utility.yul\":976:1039   */\ntag_29:\n    /* \"#utility.yul\":923:1045   */\n  pop\n  jump\t// out\n    /* \"#utility.yul\":1051:1194   */\ntag_15:\n    /* \"#utility.yul\":1108:1113   */\n  0x00\n    /* \"#utility.yul\":1139:1145   */\n  dup2\n    /* \"#utility.yul\":1133:1146   */\n  mload\n    /* \"#utility.yul\":1124:1146   */\n  swap1\n  pop\n    /* \"#utility.yul\":1155:1188   */\n  tag_31\n    /* \"#utility.yul\":1182:1187   */\n  dup2\n    /* \"#utility.yul\":1155:1188   */\n  tag_14\n  jump\t// in\ntag_31:\n    /* \"#utility.yul\":1051:1194   */\n  swap3\n  swap2\n  pop\n  pop\n  jump\t// out\n    /* \"#utility.yul\":1200:1707   */\ntag_3:\n    /* \"#utility.yul\":1279:1285   */\n  0x00\n    /* \"#utility.yul\":1287:1293   */\n  dup1\n    /* \"#utility.yul\":1336:1338   */\n  0x40\n    /* \"#utility.yul\":1324:1333   */\n  dup4\n    /* \"#utility.yul\":1315:1322   */\n  dup6\n    /* \"#utility.yul\":1311:1334   */\n  sub\n    /* \"#utility.yul\":1307:1339   */\n  slt\n    /* \"#utility.yul\":1304:1423   */\n  iszero\n  tag_33\n  jumpi\n    /* \"#utility.yul\":1342:1421   */\n  tag_34\n  tag_8\n  jump\t// in\ntag_34:\n    /* \"#utility.yul\":1304:1423   */\ntag_33:\n    /* \"#utility.yul\":1462:1463   */\n  0x00\n    /* \"#utility.yul\":1487:1551   */\n  tag_35\n    /* \"#utility.yul\":1543:1550   */\n  dup6\n    /* \"#utility.yul\":1534:1540   */\n  dup3\n    /* \"#utility.yul\":1523:1532   */\n  dup7\n    /* \"#utility.yul\":1519:1541   */\n  add\n    /* \"#utility.yul\":1487:1551   */\n  tag_12\n  jump\t// in\ntag_35:\n    /* \"#utility.yul\":1477:1551   */\n  swap3\n  pop\n    /* \"#utility.yul\":1433:1561   */\n  pop\n    /* \"#utility.yul\":1600:1602   */\n  0x20\n    /* \"#utility.yul\":1626:1690   */\n  tag_36\n    /* \"#utility.yul\":1682:1689   */\n  dup6\n    /* \"#utility.yul\":1673:1679   */\n  dup3\n    /* \"#utility.yul\":1662:1671   */\n  dup7\n    /* \"#utility.yul\":1658:1680   */\n  add\n    /* \"#utility.yul\":1626:1690   */\n  tag_15\n  jump\t// in\ntag_36:\n    /* \"#utility.yul\":1616:1690   */\n  swap2\n  pop\n    /* \"#utility.yul\":1571:1700   */\n  pop\n    /* \"#utility.yul\":1200:1707   */\n  swap3\n  pop\n  swap3\n  swap1\n  pop\n  jump\t// out\n    /* \"contracts/ERC721TokenContractName.sol\":400:5931  contract ERC721TokenContractName is Context, IERC721Errors, IERC721TCNReceiver {... */\ntag_6:\n  dataSize(sub_0)\n  dup1\n  dataOffset(sub_0)\n  0x00\n  codecopy\n  0x00\n  return\nstop\n\nsub_0: assembly {\n        /* \"contracts/ERC721TokenContractName.sol\":400:5931  contract ERC721TokenContractName is Context, IERC721Errors, IERC721TCNReceiver {... */\n      mstore(0x40, 0x80)\n      callvalue\n      dup1\n      iszero\n      tag_1\n      jumpi\n      0x00\n      dup1\n      revert\n    tag_1:\n      pop\n      jumpi(tag_2, lt(calldatasize, 0x04))\n      shr(0xe0, calldataload(0x00))\n      dup1\n      0x95d89b41\n      gt\n      tag_16\n      jumpi\n      dup1\n      0xb1cff380\n      gt\n      tag_17\n      jumpi\n      dup1\n      0xb1cff380\n      eq\n      tag_12\n      jumpi\n      dup1\n      0xdd7d8440\n      eq\n      tag_13\n      jumpi\n      dup1\n      0xe560ca43\n      eq\n      tag_14\n      jumpi\n      dup1\n      0xe985e9c5\n      eq\n      tag_15\n      jumpi\n      jump(tag_2)\n    tag_17:\n      dup1\n      0x95d89b41\n      eq\n      tag_9\n      jumpi\n      dup1\n      0xa22cb465\n      eq\n      tag_10\n      jumpi\n      dup1\n      0xb145ae31\n      eq\n      tag_11\n      jumpi\n      jump(tag_2)\n    tag_16:\n      dup1\n      0x06fdde03\n      eq\n      tag_3\n      jumpi\n      dup1\n      0x07394401\n      eq\n      tag_4\n      jumpi\n      dup1\n      0x4ec3dcfe\n      eq\n      tag_5\n      jumpi\n      dup1\n      0x70a08231\n      eq\n      tag_6\n      jumpi\n      dup1\n      0x82a7cf1e\n      eq\n      tag_7\n      jumpi\n      dup1\n      0x93b871f2\n      eq\n      tag_8\n      jumpi\n    tag_2:\n      0x00\n      dup1\n      revert\n        /* \"contracts/ERC721TokenContractName.sol\":1454:1531  function name() public view returns (bytes20) {... */\n    tag_3:\n      tag_18\n      tag_19\n      jump\t// in\n    tag_18:\n      mload(0x40)\n      tag_20\n      swap2\n      swap1\n      tag_21\n      jump\t// in\n    tag_20:\n      mload(0x40)\n      dup1\n      swap2\n      sub\n      swap1\n      return\n        /* \"contracts/ERC721TokenContractName.sol\":3669:3802  function safeTransferFrom(address from, address to, uint16 tokenId) public {... */\n    tag_4:\n      tag_22\n      0x04\n      dup1\n      calldatasize\n      sub\n      dup2\n      add\n      swap1\n      tag_23\n      swap2\n      swap1\n      tag_24\n      jump\t// in\n    tag_23:\n      tag_25\n      jump\t// in\n    tag_22:\n      stop\n        /* \"contracts/ERC721TokenContractName.sol\":3072:3661  function transferFrom(address from, address to, uint16 tokenId) public virtual {... */\n    tag_5:\n      tag_26\n      0x04\n      dup1\n      calldatasize\n      sub\n      dup2\n      add\n      swap1\n      tag_27\n      swap2\n      swap1\n      tag_24\n      jump\t// in\n    tag_27:\n      tag_28\n      jump\t// in\n    tag_26:\n      stop\n        /* \"contracts/ERC721TokenContractName.sol\":1632:1821  function balanceOf(address owner) public view returns (uint16) {... */\n    tag_6:\n      tag_29\n      0x04\n      dup1\n      calldatasize\n      sub\n      dup2\n      add\n      swap1\n      tag_30\n      swap2\n      swap1\n      tag_31\n      jump\t// in\n    tag_30:\n      tag_32\n      jump\t// in\n    tag_29:\n      mload(0x40)\n      tag_33\n      swap2\n      swap1\n      tag_34\n      jump\t// in\n    tag_33:\n      mload(0x40)\n      dup1\n      swap2\n      sub\n      swap1\n      return\n        /* \"contracts/ERC721TokenContractName.sol\":1831:1942  function ownerOf(uint16 tokenId) public view returns (address) {... */\n    tag_7:\n      tag_35\n      0x04\n      dup1\n      calldatasize\n      sub\n      dup2\n      add\n      swap1\n      tag_36\n      swap2\n      swap1\n      tag_37\n      jump\t// in\n    tag_36:\n      tag_38\n      jump\t// in\n    tag_35:\n      mload(0x40)\n      tag_39\n      swap2\n      swap1\n      tag_40\n      jump\t// in\n    tag_39:\n      mload(0x40)\n      dup1\n      swap2\n      sub\n      swap1\n      return\n        /* \"contracts/ERC721TokenContractName.sol\":2315:2475  function getApproved(uint16 tokenId) public view virtual returns (address) {... */\n    tag_8:\n      tag_41\n      0x04\n      dup1\n      calldatasize\n      sub\n      dup2\n      add\n      swap1\n      tag_42\n      swap2\n      swap1\n      tag_37\n      jump\t// in\n    tag_42:\n      tag_43\n      jump\t// in\n    tag_41:\n      mload(0x40)\n      tag_44\n      swap2\n      swap1\n      tag_40\n      jump\t// in\n    tag_44:\n      mload(0x40)\n      dup1\n      swap2\n      sub\n      swap1\n      return\n        /* \"contracts/ERC721TokenContractName.sol\":1541:1622  function symbol() public view returns (bytes10) {... */\n    tag_9:\n      tag_45\n      tag_46\n      jump\t// in\n    tag_45:\n      mload(0x40)\n      tag_47\n      swap2\n      swap1\n      tag_48\n      jump\t// in\n    tag_47:\n      mload(0x40)\n      dup1\n      swap2\n      sub\n      swap1\n      return\n        /* \"contracts/ERC721TokenContractName.sol\":2483:2907  function setApprovalForAll(address operator, bool approved) public {... */\n    tag_10:\n      tag_49\n      0x04\n      dup1\n      calldatasize\n      sub\n      dup2\n      add\n      swap1\n      tag_50\n      swap2\n      swap1\n      tag_51\n      jump\t// in\n    tag_50:\n      tag_52\n      jump\t// in\n    tag_49:\n      stop\n        /* \"contracts/ERC721TokenContractName.sol\":3810:4020  function safeTransferFrom(address from, address to, uint16 tokenId, bytes memory data) public virtual {... */\n    tag_11:\n      tag_53\n      0x04\n      dup1\n      calldatasize\n      sub\n      dup2\n      add\n      swap1\n      tag_54\n      swap2\n      swap1\n      tag_55\n      jump\t// in\n    tag_54:\n      tag_56\n      jump\t// in\n    tag_53:\n      stop\n        /* \"contracts/ERC721TokenContractName.sol\":5753:5918  function onERC721Received(... */\n    tag_12:\n      tag_57\n      0x04\n      dup1\n      calldatasize\n      sub\n      dup2\n      add\n      swap1\n      tag_58\n      swap2\n      swap1\n      tag_59\n      jump\t// in\n    tag_58:\n      tag_60\n      jump\t// in\n    tag_57:\n      mload(0x40)\n      tag_61\n      swap2\n      swap1\n      tag_62\n      jump\t// in\n    tag_61:\n      mload(0x40)\n      dup1\n      swap2\n      sub\n      swap1\n      return\n        /* \"contracts/ERC721TokenContractName.sol\":1952:2192  function tokenURI(uint16 tokenId) public view returns (string memory) {... */\n    tag_13:\n      tag_63\n      0x04\n      dup1\n      calldatasize\n      sub\n      dup2\n      add\n      swap1\n      tag_64\n      swap2\n      swap1\n      tag_37\n      jump\t// in\n    tag_64:\n      tag_65\n      jump\t// in\n    tag_63:\n      mload(0x40)\n      tag_66\n      swap2\n      swap1\n      tag_67\n      jump\t// in\n    tag_66:\n      mload(0x40)\n      dup1\n      swap2\n      sub\n      swap1\n      return\n        /* \"contracts/ERC721TokenContractName.sol\":2202:2307  function approve(address to, uint16 tokenId) public {... */\n    tag_14:\n      tag_68\n      0x04\n      dup1\n      calldatasize\n      sub\n      dup2\n      add\n      swap1\n      tag_69\n      swap2\n      swap1\n      tag_70\n      jump\t// in\n    tag_69:\n      tag_71\n      jump\t// in\n    tag_68:\n      stop\n        /* \"contracts/ERC721TokenContractName.sol\":2917:3064  function isApprovedForAll(address owner, address operator) public view returns (bool) {... */\n    tag_15:\n      tag_72\n      0x04\n      dup1\n      calldatasize\n      sub\n      dup2\n      add\n      swap1\n      tag_73\n      swap2\n      swap1\n      tag_74\n      jump\t// in\n    tag_73:\n      tag_75\n      jump\t// in\n    tag_72:\n      mload(0x40)\n      tag_76\n      swap2\n      swap1\n      tag_77\n      jump\t// in\n    tag_76:\n      mload(0x40)\n      dup1\n      swap2\n      sub\n      swap1\n      return\n        /* \"contracts/ERC721TokenContractName.sol\":1454:1531  function name() public view returns (bytes20) {... */\n    tag_19:\n        /* \"contracts/ERC721TokenContractName.sol\":1491:1498  bytes20 */\n      0x00\n        /* \"contracts/ERC721TokenContractName.sol\":1518:1523  _name */\n      dup1\n      0x00\n      swap1\n      sload\n      swap1\n      0x0100\n      exp\n      swap1\n      div\n      0x60\n      shl\n        /* \"contracts/ERC721TokenContractName.sol\":1511:1523  return _name */\n      swap1\n      pop\n        /* \"contracts/ERC721TokenContractName.sol\":1454:1531  function name() public view returns (bytes20) {... */\n      swap1\n      jump\t// out\n        /* \"contracts/ERC721TokenContractName.sol\":3669:3802  function safeTransferFrom(address from, address to, uint16 tokenId) public {... */\n    tag_25:\n        /* \"contracts/ERC721TokenContractName.sol\":3755:3794  safeTransferFrom(from, to, tokenId, \"\") */\n      tag_80\n        /* \"contracts/ERC721TokenContractName.sol\":3772:3776  from */\n      dup4\n        /* \"contracts/ERC721TokenContractName.sol\":3778:3780  to */\n      dup4\n        /* \"contracts/ERC721TokenContractName.sol\":3782:3789  tokenId */\n      dup4\n        /* \"contracts/ERC721TokenContractName.sol\":3755:3794  safeTransferFrom(from, to, tokenId, \"\") */\n      mload(0x40)\n      dup1\n      0x20\n      add\n      0x40\n      mstore\n      dup1\n      0x00\n      dup2\n      mstore\n      pop\n        /* \"contracts/ERC721TokenContractName.sol\":3755:3771  safeTransferFrom */\n      tag_56\n        /* \"contracts/ERC721TokenContractName.sol\":3755:3794  safeTransferFrom(from, to, tokenId, \"\") */\n      jump\t// in\n    tag_80:\n        /* \"contracts/ERC721TokenContractName.sol\":3669:3802  function safeTransferFrom(address from, address to, uint16 tokenId) public {... */\n      pop\n      pop\n      pop\n      jump\t// out\n        /* \"contracts/ERC721TokenContractName.sol\":3072:3661  function transferFrom(address from, address to, uint16 tokenId) public virtual {... */\n    tag_28:\n        /* \"contracts/ERC721TokenContractName.sol\":3180:3181  0 */\n      0x00\n        /* \"contracts/ERC721TokenContractName.sol\":3166:3182  to == address(0) */\n      0xffffffffffffffffffffffffffffffffffffffff\n      and\n        /* \"contracts/ERC721TokenContractName.sol\":3166:3168  to */\n      dup3\n        /* \"contracts/ERC721TokenContractName.sol\":3166:3182  to == address(0) */\n      0xffffffffffffffffffffffffffffffffffffffff\n      and\n      sub\n        /* \"contracts/ERC721TokenContractName.sol\":3162:3251  if (to == address(0)) {... */\n      tag_82\n      jumpi\n        /* \"contracts/ERC721TokenContractName.sol\":3236:3237  0 */\n      0x00\n        /* \"contracts/ERC721TokenContractName.sol\":3206:3239  ERC721InvalidReceiver(address(0)) */\n      mload(0x40)\n      0x64a0ae9200000000000000000000000000000000000000000000000000000000\n      dup2\n      mstore\n      0x04\n      add\n      tag_83\n      swap2\n      swap1\n      tag_40\n      jump\t// in\n    tag_83:\n      mload(0x40)\n      dup1\n      swap2\n      sub\n      swap1\n      revert\n        /* \"contracts/ERC721TokenContractName.sol\":3162:3251  if (to == address(0)) {... */\n    tag_82:\n        /* \"contracts/ERC721TokenContractName.sol\":3474:3495  address previousOwner */\n      0x00\n        /* \"contracts/ERC721TokenContractName.sol\":3498:3532  _update(to, tokenId, _msgSender()) */\n      tag_84\n        /* \"contracts/ERC721TokenContractName.sol\":3506:3508  to */\n      dup4\n        /* \"contracts/ERC721TokenContractName.sol\":3510:3517  tokenId */\n      dup4\n        /* \"contracts/ERC721TokenContractName.sol\":3519:3531  _msgSender() */\n      tag_85\n        /* \"contracts/ERC721TokenContractName.sol\":3519:3529  _msgSender */\n      tag_86\n        /* \"contracts/ERC721TokenContractName.sol\":3519:3531  _msgSender() */\n      jump\t// in\n    tag_85:\n        /* \"contracts/ERC721TokenContractName.sol\":3498:3505  _update */\n      tag_87\n        /* \"contracts/ERC721TokenContractName.sol\":3498:3532  _update(to, tokenId, _msgSender()) */\n      jump\t// in\n    tag_84:\n        /* \"contracts/ERC721TokenContractName.sol\":3474:3532  address previousOwner = _update(to, tokenId, _msgSender()) */\n      swap1\n      pop\n        /* \"contracts/ERC721TokenContractName.sol\":3564:3568  from */\n      dup4\n        /* \"contracts/ERC721TokenContractName.sol\":3547:3568  previousOwner != from */\n      0xffffffffffffffffffffffffffffffffffffffff\n      and\n        /* \"contracts/ERC721TokenContractName.sol\":3547:3560  previousOwner */\n      dup2\n        /* \"contracts/ERC721TokenContractName.sol\":3547:3568  previousOwner != from */\n      0xffffffffffffffffffffffffffffffffffffffff\n      and\n      eq\n        /* \"contracts/ERC721TokenContractName.sol\":3543:3654  if (previousOwner != from) {... */\n      tag_88\n      jumpi\n        /* \"contracts/ERC721TokenContractName.sol\":3613:3617  from */\n      dup4\n        /* \"contracts/ERC721TokenContractName.sol\":3619:3626  tokenId */\n      dup3\n        /* \"contracts/ERC721TokenContractName.sol\":3628:3641  previousOwner */\n      dup3\n        /* \"contracts/ERC721TokenContractName.sol\":3592:3642  ERC721IncorrectOwner(from, tokenId, previousOwner) */\n      mload(0x40)\n      0x64283d7b00000000000000000000000000000000000000000000000000000000\n      dup2\n      mstore\n      0x04\n      add\n      tag_89\n      swap4\n      swap3\n      swap2\n      swap1\n      tag_90\n      jump\t// in\n    tag_89:\n      mload(0x40)\n      dup1\n      swap2\n      sub\n      swap1\n      revert\n        /* \"contracts/ERC721TokenContractName.sol\":3543:3654  if (previousOwner != from) {... */\n    tag_88:\n        /* \"contracts/ERC721TokenContractName.sol\":3151:3661  {... */\n      pop\n        /* \"contracts/ERC721TokenContractName.sol\":3072:3661  function transferFrom(address from, address to, uint16 tokenId) public virtual {... */\n      pop\n      pop\n      pop\n      jump\t// out\n        /* \"contracts/ERC721TokenContractName.sol\":1632:1821  function balanceOf(address owner) public view returns (uint16) {... */\n    tag_32:\n        /* \"contracts/ERC721TokenContractName.sol\":1687:1693  uint16 */\n      0x00\n        /* \"contracts/ERC721TokenContractName.sol\":1731:1732  0 */\n      dup1\n        /* \"contracts/ERC721TokenContractName.sol\":1714:1733  owner != address(0) */\n      0xffffffffffffffffffffffffffffffffffffffff\n      and\n        /* \"contracts/ERC721TokenContractName.sol\":1714:1719  owner */\n      dup3\n        /* \"contracts/ERC721TokenContractName.sol\":1714:1733  owner != address(0) */\n      0xffffffffffffffffffffffffffffffffffffffff\n      and\n      sub\n        /* \"contracts/ERC721TokenContractName.sol\":1706:1769  require(owner != address(0),\"The input address cannot be zero\") */\n      tag_92\n      jumpi\n      mload(0x40)\n      0x08c379a000000000000000000000000000000000000000000000000000000000\n      dup2\n      mstore\n      0x04\n      add\n      tag_93\n      swap1\n      tag_94\n      jump\t// in\n    tag_93:\n      mload(0x40)\n      dup1\n      swap2\n      sub\n      swap1\n      revert\n    tag_92:\n        /* \"contracts/ERC721TokenContractName.sol\":1787:1803  _balanceAndTokId */\n      0x04d9\n        /* \"contracts/ERC721TokenContractName.sol\":1787:1810  _balanceAndTokId[owner] */\n      0x00\n        /* \"contracts/ERC721TokenContractName.sol\":1804:1809  owner */\n      dup4\n        /* \"contracts/ERC721TokenContractName.sol\":1787:1810  _balanceAndTokId[owner] */\n      0xffffffffffffffffffffffffffffffffffffffff\n      and\n      0xffffffffffffffffffffffffffffffffffffffff\n      and\n      dup2\n      mstore\n      0x20\n      add\n      swap1\n      dup2\n      mstore\n      0x20\n      add\n      0x00\n      keccak256\n        /* \"contracts/ERC721TokenContractName.sol\":1811:1812  0 */\n      0x00\n        /* \"contracts/ERC721TokenContractName.sol\":1787:1813  _balanceAndTokId[owner][0] */\n      0x04b1\n      dup2\n      lt\n      tag_95\n      jumpi\n      tag_96\n      tag_97\n      jump\t// in\n    tag_96:\n    tag_95:\n      0x10\n      swap2\n      dup3\n      dup3\n      div\n      add\n      swap2\n      swap1\n      mod\n      0x02\n      mul\n      swap1\n      sload\n      swap1\n      0x0100\n      exp\n      swap1\n      div\n      0xffff\n      and\n        /* \"contracts/ERC721TokenContractName.sol\":1780:1813  return _balanceAndTokId[owner][0] */\n      swap1\n      pop\n        /* \"contracts/ERC721TokenContractName.sol\":1632:1821  function balanceOf(address owner) public view returns (uint16) {... */\n      swap2\n      swap1\n      pop\n      jump\t// out\n        /* \"contracts/ERC721TokenContractName.sol\":1831:1942  function ownerOf(uint16 tokenId) public view returns (address) {... */\n    tag_38:\n        /* \"contracts/ERC721TokenContractName.sol\":1885:1892  address */\n      0x00\n        /* \"contracts/ERC721TokenContractName.sol\":1912:1934  _requireOwned(tokenId) */\n      tag_100\n        /* \"contracts/ERC721TokenContractName.sol\":1926:1933  tokenId */\n      dup3\n        /* \"contracts/ERC721TokenContractName.sol\":1912:1925  _requireOwned */\n      tag_101\n        /* \"contracts/ERC721TokenContractName.sol\":1912:1934  _requireOwned(tokenId) */\n      jump\t// in\n    tag_100:\n        /* \"contracts/ERC721TokenContractName.sol\":1905:1934  return _requireOwned(tokenId) */\n      swap1\n      pop\n        /* \"contracts/ERC721TokenContractName.sol\":1831:1942  function ownerOf(uint16 tokenId) public view returns (address) {... */\n      swap2\n      swap1\n      pop\n      jump\t// out\n        /* \"contracts/ERC721TokenContractName.sol\":2315:2475  function getApproved(uint16 tokenId) public view virtual returns (address) {... */\n    tag_43:\n        /* \"contracts/ERC721TokenContractName.sol\":2381:2388  address */\n      0x00\n        /* \"contracts/ERC721TokenContractName.sol\":2401:2423  _requireOwned(tokenId) */\n      tag_103\n        /* \"contracts/ERC721TokenContractName.sol\":2415:2422  tokenId */\n      dup3\n        /* \"contracts/ERC721TokenContractName.sol\":2401:2414  _requireOwned */\n      tag_101\n        /* \"contracts/ERC721TokenContractName.sol\":2401:2423  _requireOwned(tokenId) */\n      jump\t// in\n    tag_103:\n      pop\n        /* \"contracts/ERC721TokenContractName.sol\":2443:2458  _tokenApprovals */\n      0x04da\n        /* \"contracts/ERC721TokenContractName.sol\":2443:2467  _tokenApprovals[tokenId] */\n      0x00\n        /* \"contracts/ERC721TokenContractName.sol\":2459:2466  tokenId */\n      dup4\n        /* \"contracts/ERC721TokenContractName.sol\":2443:2467  _tokenApprovals[tokenId] */\n      0xffff\n      and\n      0xffff\n      and\n      dup2\n      mstore\n      0x20\n      add\n      swap1\n      dup2\n      mstore\n      0x20\n      add\n      0x00\n      keccak256\n      0x00\n      swap1\n      sload\n      swap1\n      0x0100\n      exp\n      swap1\n      div\n      0xffffffffffffffffffffffffffffffffffffffff\n      and\n        /* \"contracts/ERC721TokenContractName.sol\":2436:2467  return _tokenApprovals[tokenId] */\n      swap1\n      pop\n        /* \"contracts/ERC721TokenContractName.sol\":2315:2475  function getApproved(uint16 tokenId) public view virtual returns (address) {... */\n      swap2\n      swap1\n      pop\n      jump\t// out\n        /* \"contracts/ERC721TokenContractName.sol\":1541:1622  function symbol() public view returns (bytes10) {... */\n    tag_46:\n        /* \"contracts/ERC721TokenContractName.sol\":1580:1587  bytes10 */\n      0x00\n        /* \"contracts/ERC721TokenContractName.sol\":1607:1614  _symbol */\n      dup1\n      0x14\n      swap1\n      sload\n      swap1\n      0x0100\n      exp\n      swap1\n      div\n      0xb0\n      shl\n        /* \"contracts/ERC721TokenContractName.sol\":1600:1614  return _symbol */\n      swap1\n      pop\n        /* \"contracts/ERC721TokenContractName.sol\":1541:1622  function symbol() public view returns (bytes10) {... */\n      swap1\n      jump\t// out\n        /* \"contracts/ERC721TokenContractName.sol\":2483:2907  function setApprovalForAll(address operator, bool approved) public {... */\n    tag_52:\n        /* \"contracts/ERC721TokenContractName.sol\":2585:2593  operator */\n      dup2\n        /* \"contracts/ERC721TokenContractName.sol\":2569:2593  _msgSender() != operator */\n      0xffffffffffffffffffffffffffffffffffffffff\n      and\n        /* \"contracts/ERC721TokenContractName.sol\":2569:2581  _msgSender() */\n      tag_106\n        /* \"contracts/ERC721TokenContractName.sol\":2569:2579  _msgSender */\n      tag_86\n        /* \"contracts/ERC721TokenContractName.sol\":2569:2581  _msgSender() */\n      jump\t// in\n    tag_106:\n        /* \"contracts/ERC721TokenContractName.sol\":2569:2593  _msgSender() != operator */\n      0xffffffffffffffffffffffffffffffffffffffff\n      and\n      sub\n        /* \"contracts/ERC721TokenContractName.sol\":2561:2657  require(_msgSender() != operator, \"The address of the owner and the operator must be different\") */\n      tag_107\n      jumpi\n      mload(0x40)\n      0x08c379a000000000000000000000000000000000000000000000000000000000\n      dup2\n      mstore\n      0x04\n      add\n      tag_108\n      swap1\n      tag_109\n      jump\t// in\n    tag_108:\n      mload(0x40)\n      dup1\n      swap2\n      sub\n      swap1\n      revert\n    tag_107:\n        /* \"contracts/ERC721TokenContractName.sol\":2692:2693  0 */\n      0x00\n        /* \"contracts/ERC721TokenContractName.sol\":2672:2694  operator == address(0) */\n      0xffffffffffffffffffffffffffffffffffffffff\n      and\n        /* \"contracts/ERC721TokenContractName.sol\":2672:2680  operator */\n      dup3\n        /* \"contracts/ERC721TokenContractName.sol\":2672:2694  operator == address(0) */\n      0xffffffffffffffffffffffffffffffffffffffff\n      and\n      sub\n        /* \"contracts/ERC721TokenContractName.sol\":2668:2761  if (operator == address(0)) {... */\n      tag_110\n      jumpi\n        /* \"contracts/ERC721TokenContractName.sol\":2740:2748  operator */\n      dup2\n        /* \"contracts/ERC721TokenContractName.sol\":2718:2749  ERC721InvalidOperator(operator) */\n      mload(0x40)\n      0x5b08ba1800000000000000000000000000000000000000000000000000000000\n      dup2\n      mstore\n      0x04\n      add\n      tag_111\n      swap2\n      swap1\n      tag_40\n      jump\t// in\n    tag_111:\n      mload(0x40)\n      dup1\n      swap2\n      sub\n      swap1\n      revert\n        /* \"contracts/ERC721TokenContractName.sol\":2668:2761  if (operator == address(0)) {... */\n    tag_110:\n        /* \"contracts/ERC721TokenContractName.sol\":2826:2834  approved */\n      dup1\n        /* \"contracts/ERC721TokenContractName.sol\":2781:2799  _operatorApprovals */\n      0x04db\n        /* \"contracts/ERC721TokenContractName.sol\":2781:2813  _operatorApprovals[_msgSender()] */\n      0x00\n        /* \"contracts/ERC721TokenContractName.sol\":2800:2812  _msgSender() */\n      tag_112\n        /* \"contracts/ERC721TokenContractName.sol\":2800:2810  _msgSender */\n      tag_86\n        /* \"contracts/ERC721TokenContractName.sol\":2800:2812  _msgSender() */\n      jump\t// in\n    tag_112:\n        /* \"contracts/ERC721TokenContractName.sol\":2781:2813  _operatorApprovals[_msgSender()] */\n      0xffffffffffffffffffffffffffffffffffffffff\n      and\n      0xffffffffffffffffffffffffffffffffffffffff\n      and\n      dup2\n      mstore\n      0x20\n      add\n      swap1\n      dup2\n      mstore\n      0x20\n      add\n      0x00\n      keccak256\n        /* \"contracts/ERC721TokenContractName.sol\":2781:2823  _operatorApprovals[_msgSender()][operator] */\n      0x00\n        /* \"contracts/ERC721TokenContractName.sol\":2814:2822  operator */\n      dup5\n        /* \"contracts/ERC721TokenContractName.sol\":2781:2823  _operatorApprovals[_msgSender()][operator] */\n      0xffffffffffffffffffffffffffffffffffffffff\n      and\n      0xffffffffffffffffffffffffffffffffffffffff\n      and\n      dup2\n      mstore\n      0x20\n      add\n      swap1\n      dup2\n      mstore\n      0x20\n      add\n      0x00\n      keccak256\n      0x00\n        /* \"contracts/ERC721TokenContractName.sol\":2781:2834  _operatorApprovals[_msgSender()][operator] = approved */\n      0x0100\n      exp\n      dup2\n      sload\n      dup2\n      0xff\n      mul\n      not\n      and\n      swap1\n      dup4\n      iszero\n      iszero\n      mul\n      or\n      swap1\n      sstore\n      pop\n        /* \"contracts/ERC721TokenContractName.sol\":2880:2888  operator */\n      dup2\n        /* \"contracts/ERC721TokenContractName.sol\":2851:2899  ApprovalForAll(_msgSender(), operator, approved) */\n      0xffffffffffffffffffffffffffffffffffffffff\n      and\n        /* \"contracts/ERC721TokenContractName.sol\":2866:2878  _msgSender() */\n      tag_113\n        /* \"contracts/ERC721TokenContractName.sol\":2866:2876  _msgSender */\n      tag_86\n        /* \"contracts/ERC721TokenContractName.sol\":2866:2878  _msgSender() */\n      jump\t// in\n    tag_113:\n        /* \"contracts/ERC721TokenContractName.sol\":2851:2899  ApprovalForAll(_msgSender(), operator, approved) */\n      0xffffffffffffffffffffffffffffffffffffffff\n      and\n      0x17307eab39ab6107e8899845ad3d59bd9653f200f220920489ca2b5937696c31\n        /* \"contracts/ERC721TokenContractName.sol\":2890:2898  approved */\n      dup4\n        /* \"contracts/ERC721TokenContractName.sol\":2851:2899  ApprovalForAll(_msgSender(), operator, approved) */\n      mload(0x40)\n      tag_114\n      swap2\n      swap1\n      tag_77\n      jump\t// in\n    tag_114:\n      mload(0x40)\n      dup1\n      swap2\n      sub\n      swap1\n      log3\n        /* \"contracts/ERC721TokenContractName.sol\":2483:2907  function setApprovalForAll(address operator, bool approved) public {... */\n      pop\n      pop\n      jump\t// out\n        /* \"contracts/ERC721TokenContractName.sol\":3810:4020  function safeTransferFrom(address from, address to, uint16 tokenId, bytes memory data) public virtual {... */\n    tag_56:\n        /* \"contracts/ERC721TokenContractName.sol\":3923:3954  transferFrom(from, to, tokenId) */\n      tag_116\n        /* \"contracts/ERC721TokenContractName.sol\":3936:3940  from */\n      dup5\n        /* \"contracts/ERC721TokenContractName.sol\":3942:3944  to */\n      dup5\n        /* \"contracts/ERC721TokenContractName.sol\":3946:3953  tokenId */\n      dup5\n        /* \"contracts/ERC721TokenContractName.sol\":3923:3935  transferFrom */\n      tag_28\n        /* \"contracts/ERC721TokenContractName.sol\":3923:3954  transferFrom(from, to, tokenId) */\n      jump\t// in\n    tag_116:\n        /* \"contracts/ERC721TokenContractName.sol\":3965:4012  _checkOnERC721Received(from, to, tokenId, data) */\n      tag_117\n        /* \"contracts/ERC721TokenContractName.sol\":3988:3992  from */\n      dup5\n        /* \"contracts/ERC721TokenContractName.sol\":3994:3996  to */\n      dup5\n        /* \"contracts/ERC721TokenContractName.sol\":3998:4005  tokenId */\n      dup5\n        /* \"contracts/ERC721TokenContractName.sol\":4007:4011  data */\n      dup5\n        /* \"contracts/ERC721TokenContractName.sol\":3965:3987  _checkOnERC721Received */\n      tag_118\n        /* \"contracts/ERC721TokenContractName.sol\":3965:4012  _checkOnERC721Received(from, to, tokenId, data) */\n      jump\t// in\n    tag_117:\n        /* \"contracts/ERC721TokenContractName.sol\":3810:4020  function safeTransferFrom(address from, address to, uint16 tokenId, bytes memory data) public virtual {... */\n      pop\n      pop\n      pop\n      pop\n      jump\t// out\n        /* \"contracts/ERC721TokenContractName.sol\":5753:5918  function onERC721Received(... */\n    tag_60:\n        /* \"contracts/ERC721TokenContractName.sol\":5909:5915  bytes4 */\n      0x00\n        /* \"contracts/ERC721TokenContractName.sol\":5753:5918  function onERC721Received(... */\n      swap6\n      swap5\n      pop\n      pop\n      pop\n      pop\n      pop\n      jump\t// out\n        /* \"contracts/ERC721TokenContractName.sol\":1952:2192  function tokenURI(uint16 tokenId) public view returns (string memory) {... */\n    tag_65:\n        /* \"contracts/ERC721TokenContractName.sol\":2007:2020  string memory */\n      0x60\n        /* \"contracts/ERC721TokenContractName.sol\":2033:2055  _requireOwned(tokenId) */\n      tag_121\n        /* \"contracts/ERC721TokenContractName.sol\":2047:2054  tokenId */\n      dup3\n        /* \"contracts/ERC721TokenContractName.sol\":2033:2046  _requireOwned */\n      tag_101\n        /* \"contracts/ERC721TokenContractName.sol\":2033:2055  _requireOwned(tokenId) */\n      jump\t// in\n    tag_121:\n      pop\n        /* \"contracts/ERC721TokenContractName.sol\":2066:2084  string memory base */\n      0x00\n        /* \"contracts/ERC721TokenContractName.sol\":2087:2097  _baseURI() */\n      tag_122\n        /* \"contracts/ERC721TokenContractName.sol\":2087:2095  _baseURI */\n      tag_123\n        /* \"contracts/ERC721TokenContractName.sol\":2087:2097  _baseURI() */\n      jump\t// in\n    tag_122:\n        /* \"contracts/ERC721TokenContractName.sol\":2066:2097  string memory base = _baseURI() */\n      swap1\n      pop\n        /* \"contracts/ERC721TokenContractName.sol\":2136:2137  0 */\n      0x00\n        /* \"contracts/ERC721TokenContractName.sol\":2121:2125  base */\n      dup2\n        /* \"contracts/ERC721TokenContractName.sol\":2115:2133  bytes(base).length */\n      mload\n        /* \"contracts/ERC721TokenContractName.sol\":2115:2137  bytes(base).length > 0 */\n      gt\n        /* \"contracts/ERC721TokenContractName.sol\":2115:2184  bytes(base).length > 0 ? string.concat(base, tokenId.toString()) : \"\" */\n      tag_124\n      jumpi\n      mload(0x40)\n      dup1\n      0x20\n      add\n      0x40\n      mstore\n      dup1\n      0x00\n      dup2\n      mstore\n      pop\n      jump(tag_125)\n    tag_124:\n        /* \"contracts/ERC721TokenContractName.sol\":2154:2158  base */\n      dup1\n        /* \"contracts/ERC721TokenContractName.sol\":2160:2178  tokenId.toString() */\n      tag_126\n        /* \"contracts/ERC721TokenContractName.sol\":2160:2167  tokenId */\n      dup5\n        /* \"contracts/ERC721TokenContractName.sol\":2160:2176  tokenId.toString */\n      0xffff\n      and\n      tag_127\n        /* \"contracts/ERC721TokenContractName.sol\":2160:2178  tokenId.toString() */\n      jump\t// in\n    tag_126:\n        /* \"contracts/ERC721TokenContractName.sol\":2140:2179  string.concat(base, tokenId.toString()) */\n      add(0x20, mload(0x40))\n      tag_128\n      swap3\n      swap2\n      swap1\n      tag_129\n      jump\t// in\n    tag_128:\n      mload(0x40)\n      0x20\n      dup2\n      dup4\n      sub\n      sub\n      dup2\n      mstore\n      swap1\n      0x40\n      mstore\n        /* \"contracts/ERC721TokenContractName.sol\":2115:2184  bytes(base).length > 0 ? string.concat(base, tokenId.toString()) : \"\" */\n    tag_125:\n        /* \"contracts/ERC721TokenContractName.sol\":2108:2184  return bytes(base).length > 0 ? string.concat(base, tokenId.toString()) : \"\" */\n      swap2\n      pop\n      pop\n        /* \"contracts/ERC721TokenContractName.sol\":1952:2192  function tokenURI(uint16 tokenId) public view returns (string memory) {... */\n      swap2\n      swap1\n      pop\n      jump\t// out\n        /* \"contracts/ERC721TokenContractName.sol\":2202:2307  function approve(address to, uint16 tokenId) public {... */\n    tag_71:\n        /* \"contracts/ERC721TokenContractName.sol\":2265:2299  _aprove(to, tokenId, _msgSender()) */\n      tag_131\n        /* \"contracts/ERC721TokenContractName.sol\":2273:2275  to */\n      dup3\n        /* \"contracts/ERC721TokenContractName.sol\":2277:2284  tokenId */\n      dup3\n        /* \"contracts/ERC721TokenContractName.sol\":2286:2298  _msgSender() */\n      tag_132\n        /* \"contracts/ERC721TokenContractName.sol\":2286:2296  _msgSender */\n      tag_86\n        /* \"contracts/ERC721TokenContractName.sol\":2286:2298  _msgSender() */\n      jump\t// in\n    tag_132:\n        /* \"contracts/ERC721TokenContractName.sol\":2265:2272  _aprove */\n      tag_133\n        /* \"contracts/ERC721TokenContractName.sol\":2265:2299  _aprove(to, tokenId, _msgSender()) */\n      jump\t// in\n    tag_131:\n        /* \"contracts/ERC721TokenContractName.sol\":2202:2307  function approve(address to, uint16 tokenId) public {... */\n      pop\n      pop\n      jump\t// out\n        /* \"contracts/ERC721TokenContractName.sol\":2917:3064  function isApprovedForAll(address owner, address operator) public view returns (bool) {... */\n    tag_75:\n        /* \"contracts/ERC721TokenContractName.sol\":2997:3001  bool */\n      0x00\n        /* \"contracts/ERC721TokenContractName.sol\":3021:3039  _operatorApprovals */\n      0x04db\n        /* \"contracts/ERC721TokenContractName.sol\":3021:3046  _operatorApprovals[owner] */\n      0x00\n        /* \"contracts/ERC721TokenContractName.sol\":3040:3045  owner */\n      dup5\n        /* \"contracts/ERC721TokenContractName.sol\":3021:3046  _operatorApprovals[owner] */\n      0xffffffffffffffffffffffffffffffffffffffff\n      and\n      0xffffffffffffffffffffffffffffffffffffffff\n      and\n      dup2\n      mstore\n      0x20\n      add\n      swap1\n      dup2\n      mstore\n      0x20\n      add\n      0x00\n      keccak256\n        /* \"contracts/ERC721TokenContractName.sol\":3021:3056  _operatorApprovals[owner][operator] */\n      0x00\n        /* \"contracts/ERC721TokenContractName.sol\":3047:3055  operator */\n      dup4\n        /* \"contracts/ERC721TokenContractName.sol\":3021:3056  _operatorApprovals[owner][operator] */\n      0xffffffffffffffffffffffffffffffffffffffff\n      and\n      0xffffffffffffffffffffffffffffffffffffffff\n      and\n      dup2\n      mstore\n      0x20\n      add\n      swap1\n      dup2\n      mstore\n      0x20\n      add\n      0x00\n      keccak256\n      0x00\n      swap1\n      sload\n      swap1\n      0x0100\n      exp\n      swap1\n      div\n      0xff\n      and\n        /* \"contracts/ERC721TokenContractName.sol\":3014:3056  return _operatorApprovals[owner][operator] */\n      swap1\n      pop\n        /* \"contracts/ERC721TokenContractName.sol\":2917:3064  function isApprovedForAll(address owner, address operator) public view returns (bool) {... */\n      swap3\n      swap2\n      pop\n      pop\n      jump\t// out\n        /* \"@openzeppelin/contracts/utils/Context.sol\":656:752  function _msgSender() internal view virtual returns (address) {... */\n    tag_86:\n        /* \"@openzeppelin/contracts/utils/Context.sol\":709:716  address */\n      0x00\n        /* \"@openzeppelin/contracts/utils/Context.sol\":735:745  msg.sender */\n      caller\n        /* \"@openzeppelin/contracts/utils/Context.sol\":728:745  return msg.sender */\n      swap1\n      pop\n        /* \"@openzeppelin/contracts/utils/Context.sol\":656:752  function _msgSender() internal view virtual returns (address) {... */\n      swap1\n      jump\t// out\n        /* \"contracts/ERC721TokenContractName.sol\":4030:4125  function _update(address to, uint16 tokenId, address auth) private returns (address) {... */\n    tag_87:\n        /* \"contracts/ERC721TokenContractName.sol\":4106:4113  address */\n      0x00\n        /* \"contracts/ERC721TokenContractName.sol\":4030:4125  function _update(address to, uint16 tokenId, address auth) private returns (address) {... */\n      swap4\n      swap3\n      pop\n      pop\n      pop\n      jump\t// out\n        /* \"contracts/ERC721TokenContractName.sol\":4574:4838  function _requireOwned(uint16 tokenId) private view returns (address) {... */\n    tag_101:\n        /* \"contracts/ERC721TokenContractName.sol\":4635:4642  address */\n      0x00\n        /* \"contracts/ERC721TokenContractName.sol\":4667:4674  tokenId */\n      dup2\n        /* \"contracts/ERC721TokenContractName.sol\":4663:4674  0 < tokenId */\n      0xffff\n      and\n        /* \"contracts/ERC721TokenContractName.sol\":4663:4664  0 */\n      0x00\n        /* \"contracts/ERC721TokenContractName.sol\":4663:4674  0 < tokenId */\n      lt\n        /* \"contracts/ERC721TokenContractName.sol\":4663:4711  0 < tokenId && tokenId <= mintInfo.currentTokens */\n      dup1\n      iszero\n      tag_138\n      jumpi\n      pop\n        /* \"contracts/ERC721TokenContractName.sol\":4689:4697  mintInfo */\n      0x01\n        /* \"contracts/ERC721TokenContractName.sol\":4689:4711  mintInfo.currentTokens */\n      0x00\n      add\n      0x02\n      swap1\n      sload\n      swap1\n      0x0100\n      exp\n      swap1\n      div\n      0xffff\n      and\n        /* \"contracts/ERC721TokenContractName.sol\":4678:4711  tokenId <= mintInfo.currentTokens */\n      0xffff\n      and\n        /* \"contracts/ERC721TokenContractName.sol\":4678:4685  tokenId */\n      dup3\n        /* \"contracts/ERC721TokenContractName.sol\":4678:4711  tokenId <= mintInfo.currentTokens */\n      0xffff\n      and\n      gt\n      iszero\n        /* \"contracts/ERC721TokenContractName.sol\":4663:4711  0 < tokenId && tokenId <= mintInfo.currentTokens */\n    tag_138:\n        /* \"contracts/ERC721TokenContractName.sol\":4655:4795  require(0 < tokenId && tokenId <= mintInfo.currentTokens, \"The ID entered is invalid. It must be in this interval 0 < id <= current tokens\") */\n      tag_139\n      jumpi\n      mload(0x40)\n      0x08c379a000000000000000000000000000000000000000000000000000000000\n      dup2\n      mstore\n      0x04\n      add\n      tag_140\n      swap1\n      tag_141\n      jump\t// in\n    tag_140:\n      mload(0x40)\n      dup1\n      swap2\n      sub\n      swap1\n      revert\n    tag_139:\n        /* \"contracts/ERC721TokenContractName.sol\":4814:4821  _owners */\n      0x02\n        /* \"contracts/ERC721TokenContractName.sol\":4822:4829  tokenId */\n      dup3\n        /* \"contracts/ERC721TokenContractName.sol\":4814:4830  _owners[tokenId] */\n      0xffff\n      and\n      0x04b1\n      dup2\n      lt\n      tag_142\n      jumpi\n      tag_143\n      tag_97\n      jump\t// in\n    tag_143:\n    tag_142:\n      add\n      0x00\n      swap1\n      sload\n      swap1\n      0x0100\n      exp\n      swap1\n      div\n      0xffffffffffffffffffffffffffffffffffffffff\n      and\n        /* \"contracts/ERC721TokenContractName.sol\":4807:4830  return _owners[tokenId] */\n      swap1\n      pop\n        /* \"contracts/ERC721TokenContractName.sol\":4574:4838  function _requireOwned(uint16 tokenId) private view returns (address) {... */\n      swap2\n      swap1\n      pop\n      jump\t// out\n        /* \"contracts/ERC721TokenContractName.sol\":4941:5745  function _checkOnERC721Received(address from, address to, uint16 tokenId, bytes memory data) private {... */\n    tag_118:\n        /* \"contracts/ERC721TokenContractName.sol\":5074:5075  0 */\n      0x00\n        /* \"contracts/ERC721TokenContractName.sol\":5057:5059  to */\n      dup4\n        /* \"contracts/ERC721TokenContractName.sol\":5057:5071  to.code.length */\n      0xffffffffffffffffffffffffffffffffffffffff\n      and\n      extcodesize\n        /* \"contracts/ERC721TokenContractName.sol\":5057:5075  to.code.length > 0 */\n      gt\n        /* \"contracts/ERC721TokenContractName.sol\":5053:5738  if (to.code.length > 0) {... */\n      iszero\n      tag_146\n      jumpi\n        /* \"contracts/ERC721TokenContractName.sol\":5115:5117  to */\n      dup3\n        /* \"contracts/ERC721TokenContractName.sol\":5096:5135  IERC721TCNReceiver(to).onERC721Received */\n      0xffffffffffffffffffffffffffffffffffffffff\n      and\n      0xb1cff380\n        /* \"contracts/ERC721TokenContractName.sol\":5136:5148  _msgSender() */\n      tag_147\n        /* \"contracts/ERC721TokenContractName.sol\":5136:5146  _msgSender */\n      tag_86\n        /* \"contracts/ERC721TokenContractName.sol\":5136:5148  _msgSender() */\n      jump\t// in\n    tag_147:\n        /* \"contracts/ERC721TokenContractName.sol\":5150:5154  from */\n      dup7\n        /* \"contracts/ERC721TokenContractName.sol\":5156:5163  tokenId */\n      dup6\n        /* \"contracts/ERC721TokenContractName.sol\":5165:5169  data */\n      dup6\n        /* \"contracts/ERC721TokenContractName.sol\":5096:5170  IERC721TCNReceiver(to).onERC721Received(_msgSender(), from, tokenId, data) */\n      mload(0x40)\n      dup6\n      0xffffffff\n      and\n      0xe0\n      shl\n      dup2\n      mstore\n      0x04\n      add\n      tag_148\n      swap5\n      swap4\n      swap3\n      swap2\n      swap1\n      tag_149\n      jump\t// in\n    tag_148:\n      0x20\n      mload(0x40)\n      dup1\n      dup4\n      sub\n      dup2\n      0x00\n      dup8\n      gas\n      call\n      swap3\n      pop\n      pop\n      pop\n      dup1\n      iszero\n      tag_150\n      jumpi\n      pop\n      mload(0x40)\n      returndatasize\n      not(0x1f)\n      0x1f\n      dup3\n      add\n      and\n      dup3\n      add\n      dup1\n      0x40\n      mstore\n      pop\n      dup2\n      add\n      swap1\n      tag_151\n      swap2\n      swap1\n      tag_152\n      jump\t// in\n    tag_151:\n      0x01\n    tag_150:\n        /* \"contracts/ERC721TokenContractName.sol\":5092:5727  try IERC721TCNReceiver(to).onERC721Received(_msgSender(), from, tokenId, data) returns (bytes4 retval) {... */\n      tag_153\n      jumpi\n      returndatasize\n      dup1\n      0x00\n      dup2\n      eq\n      tag_158\n      jumpi\n      mload(0x40)\n      swap2\n      pop\n      and(add(returndatasize, 0x3f), not(0x1f))\n      dup3\n      add\n      0x40\n      mstore\n      returndatasize\n      dup3\n      mstore\n      returndatasize\n      0x00\n      0x20\n      dup5\n      add\n      returndatacopy\n      jump(tag_157)\n    tag_158:\n      0x60\n      swap2\n      pop\n    tag_157:\n      pop\n        /* \"contracts/ERC721TokenContractName.sol\":5433:5434  0 */\n      0x00\n        /* \"contracts/ERC721TokenContractName.sol\":5416:5422  reason */\n      dup2\n        /* \"contracts/ERC721TokenContractName.sol\":5416:5429  reason.length */\n      mload\n        /* \"contracts/ERC721TokenContractName.sol\":5416:5434  reason.length == 0 */\n      sub\n        /* \"contracts/ERC721TokenContractName.sol\":5412:5712  if (reason.length == 0) {... */\n      tag_159\n      jumpi\n        /* \"contracts/ERC721TokenContractName.sol\":5488:5490  to */\n      dup4\n        /* \"contracts/ERC721TokenContractName.sol\":5466:5491  ERC721InvalidReceiver(to) */\n      mload(0x40)\n      0x64a0ae9200000000000000000000000000000000000000000000000000000000\n      dup2\n      mstore\n      0x04\n      add\n      tag_160\n      swap2\n      swap1\n      tag_40\n      jump\t// in\n    tag_160:\n      mload(0x40)\n      dup1\n      swap2\n      sub\n      swap1\n      revert\n        /* \"contracts/ERC721TokenContractName.sol\":5412:5712  if (reason.length == 0) {... */\n    tag_159:\n        /* \"contracts/ERC721TokenContractName.sol\":5662:5668  reason */\n      dup1\n        /* \"contracts/ERC721TokenContractName.sol\":5656:5669  mload(reason) */\n      mload\n        /* \"contracts/ERC721TokenContractName.sol\":5647:5653  reason */\n      dup2\n        /* \"contracts/ERC721TokenContractName.sol\":5643:5645  32 */\n      0x20\n        /* \"contracts/ERC721TokenContractName.sol\":5639:5654  add(32, reason) */\n      add\n        /* \"contracts/ERC721TokenContractName.sol\":5632:5670  revert(add(32, reason), mload(reason)) */\n      revert\n        /* \"contracts/ERC721TokenContractName.sol\":5092:5727  try IERC721TCNReceiver(to).onERC721Received(_msgSender(), from, tokenId, data) returns (bytes4 retval) {... */\n    tag_153:\n        /* \"contracts/ERC721TokenContractName.sol\":5228:5272  IERC721TCNReceiver.onERC721Received.selector */\n      shl(0xe0, 0xb1cff380)\n        /* \"contracts/ERC721TokenContractName.sol\":5218:5272  retval != IERC721TCNReceiver.onERC721Received.selector */\n      not(0xffffffffffffffffffffffffffffffffffffffffffffffffffffffff)\n      and\n        /* \"contracts/ERC721TokenContractName.sol\":5218:5224  retval */\n      dup2\n        /* \"contracts/ERC721TokenContractName.sol\":5218:5272  retval != IERC721TCNReceiver.onERC721Received.selector */\n      not(0xffffffffffffffffffffffffffffffffffffffffffffffffffffffff)\n      and\n      eq\n        /* \"contracts/ERC721TokenContractName.sol\":5214:5349  if (retval != IERC721TCNReceiver.onERC721Received.selector) {... */\n      tag_163\n      jumpi\n        /* \"contracts/ERC721TokenContractName.sol\":5326:5328  to */\n      dup4\n        /* \"contracts/ERC721TokenContractName.sol\":5304:5329  ERC721InvalidReceiver(to) */\n      mload(0x40)\n      0x64a0ae9200000000000000000000000000000000000000000000000000000000\n      dup2\n      mstore\n      0x04\n      add\n      tag_164\n      swap2\n      swap1\n      tag_40\n      jump\t// in\n    tag_164:\n      mload(0x40)\n      dup1\n      swap2\n      sub\n      swap1\n      revert\n        /* \"contracts/ERC721TokenContractName.sol\":5214:5349  if (retval != IERC721TCNReceiver.onERC721Received.selector) {... */\n    tag_163:\n        /* \"contracts/ERC721TokenContractName.sol\":5171:5364  returns (bytes4 retval) {... */\n      pop\n        /* \"contracts/ERC721TokenContractName.sol\":5053:5738  if (to.code.length > 0) {... */\n    tag_146:\n        /* \"contracts/ERC721TokenContractName.sol\":4941:5745  function _checkOnERC721Received(address from, address to, uint16 tokenId, bytes memory data) private {... */\n      pop\n      pop\n      pop\n      pop\n      jump\t// out\n        /* \"contracts/ERC721TokenContractName.sol\":4848:4933  function _baseURI() private pure returns (string memory) {... */\n    tag_123:\n        /* \"contracts/ERC721TokenContractName.sol\":4890:4903  string memory */\n      0x60\n        /* \"contracts/ERC721TokenContractName.sol\":4916:4925  return \"\" */\n      mload(0x40)\n      dup1\n      0x20\n      add\n      0x40\n      mstore\n      dup1\n      0x00\n      dup2\n      mstore\n      pop\n      swap1\n      pop\n        /* \"contracts/ERC721TokenContractName.sol\":4848:4933  function _baseURI() private pure returns (string memory) {... */\n      swap1\n      jump\t// out\n        /* \"@openzeppelin/contracts/utils/Strings.sol\":637:1335  function toString(uint256 value) internal pure returns (string memory) {... */\n    tag_127:\n        /* \"@openzeppelin/contracts/utils/Strings.sol\":693:706  string memory */\n      0x60\n        /* \"@openzeppelin/contracts/utils/Strings.sol\":742:756  uint256 length */\n      0x00\n        /* \"@openzeppelin/contracts/utils/Strings.sol\":779:780  1 */\n      0x01\n        /* \"@openzeppelin/contracts/utils/Strings.sol\":759:776  Math.log10(value) */\n      tag_167\n        /* \"@openzeppelin/contracts/utils/Strings.sol\":770:775  value */\n      dup5\n        /* \"@openzeppelin/contracts/utils/Strings.sol\":759:769  Math.log10 */\n      tag_168\n        /* \"@openzeppelin/contracts/utils/Strings.sol\":759:776  Math.log10(value) */\n      jump\t// in\n    tag_167:\n        /* \"@openzeppelin/contracts/utils/Strings.sol\":759:780  Math.log10(value) + 1 */\n      add\n        /* \"@openzeppelin/contracts/utils/Strings.sol\":742:780  uint256 length = Math.log10(value) + 1 */\n      swap1\n      pop\n        /* \"@openzeppelin/contracts/utils/Strings.sol\":794:814  string memory buffer */\n      0x00\n        /* \"@openzeppelin/contracts/utils/Strings.sol\":828:834  length */\n      dup2\n        /* \"@openzeppelin/contracts/utils/Strings.sol\":817:835  new string(length) */\n      0xffffffffffffffff\n      dup2\n      gt\n      iszero\n      tag_169\n      jumpi\n      tag_170\n      tag_171\n      jump\t// in\n    tag_170:\n    tag_169:\n      mload(0x40)\n      swap1\n      dup1\n      dup3\n      mstore\n      dup1\n      0x1f\n      add\n      not(0x1f)\n      and\n      0x20\n      add\n      dup3\n      add\n      0x40\n      mstore\n      dup1\n      iszero\n      tag_172\n      jumpi\n      dup2\n      0x20\n      add\n      0x01\n      dup3\n      mul\n      dup1\n      calldatasize\n      dup4\n      calldatacopy\n      dup1\n      dup3\n      add\n      swap2\n      pop\n      pop\n      swap1\n      pop\n    tag_172:\n      pop\n        /* \"@openzeppelin/contracts/utils/Strings.sol\":794:835  string memory buffer = new string(length) */\n      swap1\n      pop\n        /* \"@openzeppelin/contracts/utils/Strings.sol\":849:860  uint256 ptr */\n      0x00\n        /* \"@openzeppelin/contracts/utils/Strings.sol\":975:981  length */\n      dup3\n        /* \"@openzeppelin/contracts/utils/Strings.sol\":971:973  32 */\n      0x20\n        /* \"@openzeppelin/contracts/utils/Strings.sol\":967:982  add(32, length) */\n      add\n        /* \"@openzeppelin/contracts/utils/Strings.sol\":959:965  buffer */\n      dup3\n        /* \"@openzeppelin/contracts/utils/Strings.sol\":955:983  add(buffer, add(32, length)) */\n      add\n        /* \"@openzeppelin/contracts/utils/Strings.sol\":948:983  ptr := add(buffer, add(32, length)) */\n      swap1\n      pop\n        /* \"@openzeppelin/contracts/utils/Strings.sol\":1010:1292  while (true) {... */\n    tag_173:\n        /* \"@openzeppelin/contracts/utils/Strings.sol\":1017:1021  true */\n      0x01\n        /* \"@openzeppelin/contracts/utils/Strings.sol\":1010:1292  while (true) {... */\n      iszero\n      tag_174\n      jumpi\n        /* \"@openzeppelin/contracts/utils/Strings.sol\":1041:1046  ptr-- */\n      dup1\n      dup1\n      0x01\n      swap1\n      sub\n      swap2\n      pop\n      pop\n        /* \"@openzeppelin/contracts/utils/Strings.sol\":1180:1190  HEX_DIGITS */\n      0x3031323334353637383961626364656600000000000000000000000000000000\n        /* \"@openzeppelin/contracts/utils/Strings.sol\":1175:1177  10 */\n      0x0a\n        /* \"@openzeppelin/contracts/utils/Strings.sol\":1168:1173  value */\n      dup7\n        /* \"@openzeppelin/contracts/utils/Strings.sol\":1164:1178  mod(value, 10) */\n      mod\n        /* \"@openzeppelin/contracts/utils/Strings.sol\":1159:1191  byte(mod(value, 10), HEX_DIGITS) */\n      byte\n        /* \"@openzeppelin/contracts/utils/Strings.sol\":1154:1157  ptr */\n      dup2\n        /* \"@openzeppelin/contracts/utils/Strings.sol\":1146:1192  mstore8(ptr, byte(mod(value, 10), HEX_DIGITS)) */\n      mstore8\n        /* \"@openzeppelin/contracts/utils/Strings.sol\":1236:1238  10 */\n      0x0a\n        /* \"@openzeppelin/contracts/utils/Strings.sol\":1227:1238  value /= 10 */\n      dup6\n      dup2\n      tag_175\n      jumpi\n      tag_176\n      tag_177\n      jump\t// in\n    tag_176:\n    tag_175:\n      div\n      swap5\n      pop\n        /* \"@openzeppelin/contracts/utils/Strings.sol\":1269:1270  0 */\n      0x00\n        /* \"@openzeppelin/contracts/utils/Strings.sol\":1260:1265  value */\n      dup6\n        /* \"@openzeppelin/contracts/utils/Strings.sol\":1260:1270  value == 0 */\n      sub\n        /* \"@openzeppelin/contracts/utils/Strings.sol\":1010:1292  while (true) {... */\n      tag_173\n        /* \"@openzeppelin/contracts/utils/Strings.sol\":1256:1277  if (value == 0) break */\n      jumpi\n        /* \"@openzeppelin/contracts/utils/Strings.sol\":1010:1292  while (true) {... */\n    tag_174:\n        /* \"@openzeppelin/contracts/utils/Strings.sol\":1312:1318  buffer */\n      dup2\n        /* \"@openzeppelin/contracts/utils/Strings.sol\":1305:1318  return buffer */\n      swap4\n      pop\n      pop\n      pop\n      pop\n        /* \"@openzeppelin/contracts/utils/Strings.sol\":637:1335  function toString(uint256 value) internal pure returns (string memory) {... */\n      swap2\n      swap1\n      pop\n      jump\t// out\n        /* \"contracts/ERC721TokenContractName.sol\":4135:4556  function _aprove(address to, uint16 tokenId, address auth) private {... */\n    tag_133:\n        /* \"contracts/ERC721TokenContractName.sol\":4213:4226  address owner */\n      0x00\n        /* \"contracts/ERC721TokenContractName.sol\":4229:4251  _requireOwned(tokenId) */\n      tag_180\n        /* \"contracts/ERC721TokenContractName.sol\":4243:4250  tokenId */\n      dup4\n        /* \"contracts/ERC721TokenContractName.sol\":4229:4242  _requireOwned */\n      tag_101\n        /* \"contracts/ERC721TokenContractName.sol\":4229:4251  _requireOwned(tokenId) */\n      jump\t// in\n    tag_180:\n        /* \"contracts/ERC721TokenContractName.sol\":4213:4251  address owner = _requireOwned(tokenId) */\n      swap1\n      pop\n        /* \"contracts/ERC721TokenContractName.sol\":4279:4281  to */\n      dup4\n        /* \"contracts/ERC721TokenContractName.sol\":4270:4281  owner != to */\n      0xffffffffffffffffffffffffffffffffffffffff\n      and\n        /* \"contracts/ERC721TokenContractName.sol\":4270:4275  owner */\n      dup2\n        /* \"contracts/ERC721TokenContractName.sol\":4270:4281  owner != to */\n      0xffffffffffffffffffffffffffffffffffffffff\n      and\n      sub\n        /* \"contracts/ERC721TokenContractName.sol\":4262:4345  require(owner != to, \"The address of the owner and the operator must be different\") */\n      tag_181\n      jumpi\n      mload(0x40)\n      0x08c379a000000000000000000000000000000000000000000000000000000000\n      dup2\n      mstore\n      0x04\n      add\n      tag_182\n      swap1\n      tag_109\n      jump\t// in\n    tag_182:\n      mload(0x40)\n      dup1\n      swap2\n      sub\n      swap1\n      revert\n    tag_181:\n        /* \"contracts/ERC721TokenContractName.sol\":4368:4372  auth */\n      dup2\n        /* \"contracts/ERC721TokenContractName.sol\":4359:4372  owner != auth */\n      0xffffffffffffffffffffffffffffffffffffffff\n      and\n        /* \"contracts/ERC721TokenContractName.sol\":4359:4364  owner */\n      dup2\n        /* \"contracts/ERC721TokenContractName.sol\":4359:4372  owner != auth */\n      0xffffffffffffffffffffffffffffffffffffffff\n      and\n      eq\n      iszero\n        /* \"contracts/ERC721TokenContractName.sol\":4359:4406  owner != auth && !isApprovedForAll(owner, auth) */\n      dup1\n      iszero\n      tag_183\n      jumpi\n      pop\n        /* \"contracts/ERC721TokenContractName.sol\":4377:4406  isApprovedForAll(owner, auth) */\n      tag_184\n        /* \"contracts/ERC721TokenContractName.sol\":4394:4399  owner */\n      dup2\n        /* \"contracts/ERC721TokenContractName.sol\":4401:4405  auth */\n      dup4\n        /* \"contracts/ERC721TokenContractName.sol\":4377:4393  isApprovedForAll */\n      tag_75\n        /* \"contracts/ERC721TokenContractName.sol\":4377:4406  isApprovedForAll(owner, auth) */\n      jump\t// in\n    tag_184:\n        /* \"contracts/ERC721TokenContractName.sol\":4376:4406  !isApprovedForAll(owner, auth) */\n      iszero\n        /* \"contracts/ERC721TokenContractName.sol\":4359:4406  owner != auth && !isApprovedForAll(owner, auth) */\n    tag_183:\n        /* \"contracts/ERC721TokenContractName.sol\":4355:4463  if (owner != auth && !isApprovedForAll(owner, auth)){... */\n      iszero\n      tag_185\n      jumpi\n        /* \"contracts/ERC721TokenContractName.sol\":4447:4451  auth */\n      dup2\n        /* \"contracts/ERC721TokenContractName.sol\":4425:4452  ERC721InvalidApprover(auth) */\n      mload(0x40)\n      0xa9fbf51f00000000000000000000000000000000000000000000000000000000\n      dup2\n      mstore\n      0x04\n      add\n      tag_186\n      swap2\n      swap1\n      tag_40\n      jump\t// in\n    tag_186:\n      mload(0x40)\n      dup1\n      swap2\n      sub\n      swap1\n      revert\n        /* \"contracts/ERC721TokenContractName.sol\":4355:4463  if (owner != auth && !isApprovedForAll(owner, auth)){... */\n    tag_185:\n        /* \"contracts/ERC721TokenContractName.sol\":4502:4504  to */\n      dup4\n        /* \"contracts/ERC721TokenContractName.sol\":4475:4490  _tokenApprovals */\n      0x04da\n        /* \"contracts/ERC721TokenContractName.sol\":4475:4499  _tokenApprovals[tokenId] */\n      0x00\n        /* \"contracts/ERC721TokenContractName.sol\":4491:4498  tokenId */\n      dup6\n        /* \"contracts/ERC721TokenContractName.sol\":4475:4499  _tokenApprovals[tokenId] */\n      0xffff\n      and\n      0xffff\n      and\n      dup2\n      mstore\n      0x20\n      add\n      swap1\n      dup2\n      mstore\n      0x20\n      add\n      0x00\n      keccak256\n      0x00\n        /* \"contracts/ERC721TokenContractName.sol\":4475:4504  _tokenApprovals[tokenId] = to */\n      0x0100\n      exp\n      dup2\n      sload\n      dup2\n      0xffffffffffffffffffffffffffffffffffffffff\n      mul\n      not\n      and\n      swap1\n      dup4\n      0xffffffffffffffffffffffffffffffffffffffff\n      and\n      mul\n      or\n      swap1\n      sstore\n      pop\n        /* \"contracts/ERC721TokenContractName.sol\":4540:4547  tokenId */\n      dup3\n        /* \"contracts/ERC721TokenContractName.sol\":4520:4548  Approval(owner, to, tokenId) */\n      0xffff\n      and\n        /* \"contracts/ERC721TokenContractName.sol\":4536:4538  to */\n      dup5\n        /* \"contracts/ERC721TokenContractName.sol\":4520:4548  Approval(owner, to, tokenId) */\n      0xffffffffffffffffffffffffffffffffffffffff\n      and\n        /* \"contracts/ERC721TokenContractName.sol\":4529:4534  owner */\n      dup3\n        /* \"contracts/ERC721TokenContractName.sol\":4520:4548  Approval(owner, to, tokenId) */\n      0xffffffffffffffffffffffffffffffffffffffff\n      and\n      0x0a9d294fd4bd42bb30e96cba2b478d149a783fba3c729b1e5c42bec89d95b85a\n      mload(0x40)\n      mload(0x40)\n      dup1\n      swap2\n      sub\n      swap1\n      log4\n        /* \"contracts/ERC721TokenContractName.sol\":4202:4556  {... */\n      pop\n        /* \"contracts/ERC721TokenContractName.sol\":4135:4556  function _aprove(address to, uint16 tokenId, address auth) private {... */\n      pop\n      pop\n      pop\n      jump\t// out\n        /* \"@openzeppelin/contracts/utils/math/Math.sol\":12214:13130  function log10(uint256 value) internal pure returns (uint256) {... */\n    tag_168:\n        /* \"@openzeppelin/contracts/utils/math/Math.sol\":12267:12274  uint256 */\n      0x00\n        /* \"@openzeppelin/contracts/utils/math/Math.sol\":12286:12300  uint256 result */\n      dup1\n        /* \"@openzeppelin/contracts/utils/math/Math.sol\":12303:12304  0 */\n      0x00\n        /* \"@openzeppelin/contracts/utils/math/Math.sol\":12286:12304  uint256 result = 0 */\n      swap1\n      pop\n        /* \"@openzeppelin/contracts/utils/math/Math.sol\":12351:12359  10 ** 64 */\n      0x184f03e93ff9f4daa797ed6e38ed64bf6a1f010000000000000000\n        /* \"@openzeppelin/contracts/utils/math/Math.sol\":12342:12347  value */\n      dup4\n        /* \"@openzeppelin/contracts/utils/math/Math.sol\":12342:12359  value >= 10 ** 64 */\n      lt\n        /* \"@openzeppelin/contracts/utils/math/Math.sol\":12338:12441  if (value >= 10 ** 64) {... */\n      tag_188\n      jumpi\n        /* \"@openzeppelin/contracts/utils/math/Math.sol\":12388:12396  10 ** 64 */\n      0x184f03e93ff9f4daa797ed6e38ed64bf6a1f010000000000000000\n        /* \"@openzeppelin/contracts/utils/math/Math.sol\":12379:12396  value /= 10 ** 64 */\n      dup4\n      dup2\n      tag_189\n      jumpi\n      tag_190\n      tag_177\n      jump\t// in\n    tag_190:\n    tag_189:\n      div\n      swap3\n      pop\n        /* \"@openzeppelin/contracts/utils/math/Math.sol\":12424:12426  64 */\n      0x40\n        /* \"@openzeppelin/contracts/utils/math/Math.sol\":12414:12426  result += 64 */\n      dup2\n      add\n      swap1\n      pop\n        /* \"@openzeppelin/contracts/utils/math/Math.sol\":12338:12441  if (value >= 10 ** 64) {... */\n    tag_188:\n        /* \"@openzeppelin/contracts/utils/math/Math.sol\":12467:12475  10 ** 32 */\n      0x04ee2d6d415b85acef8100000000\n        /* \"@openzeppelin/contracts/utils/math/Math.sol\":12458:12463  value */\n      dup4\n        /* \"@openzeppelin/contracts/utils/math/Math.sol\":12458:12475  value >= 10 ** 32 */\n      lt\n        /* \"@openzeppelin/contracts/utils/math/Math.sol\":12454:12557  if (value >= 10 ** 32) {... */\n      tag_191\n      jumpi\n        /* \"@openzeppelin/contracts/utils/math/Math.sol\":12504:12512  10 ** 32 */\n      0x04ee2d6d415b85acef8100000000\n        /* \"@openzeppelin/contracts/utils/math/Math.sol\":12495:12512  value /= 10 ** 32 */\n      dup4\n      dup2\n      tag_192\n      jumpi\n      tag_193\n      tag_177\n      jump\t// in\n    tag_193:\n    tag_192:\n      div\n      swap3\n      pop\n        /* \"@openzeppelin/contracts/utils/math/Math.sol\":12540:12542  32 */\n      0x20\n        /* \"@openzeppelin/contracts/utils/math/Math.sol\":12530:12542  result += 32 */\n      dup2\n      add\n      swap1\n      pop\n        /* \"@openzeppelin/contracts/utils/math/Math.sol\":12454:12557  if (value >= 10 ** 32) {... */\n    tag_191:\n        /* \"@openzeppelin/contracts/utils/math/Math.sol\":12583:12591  10 ** 16 */\n      0x2386f26fc10000\n        /* \"@openzeppelin/contracts/utils/math/Math.sol\":12574:12579  value */\n      dup4\n        /* \"@openzeppelin/contracts/utils/math/Math.sol\":12574:12591  value >= 10 ** 16 */\n      lt\n        /* \"@openzeppelin/contracts/utils/math/Math.sol\":12570:12673  if (value >= 10 ** 16) {... */\n      tag_194\n      jumpi\n        /* \"@openzeppelin/contracts/utils/math/Math.sol\":12620:12628  10 ** 16 */\n      0x2386f26fc10000\n        /* \"@openzeppelin/contracts/utils/math/Math.sol\":12611:12628  value /= 10 ** 16 */\n      dup4\n      dup2\n      tag_195\n      jumpi\n      tag_196\n      tag_177\n      jump\t// in\n    tag_196:\n    tag_195:\n      div\n      swap3\n      pop\n        /* \"@openzeppelin/contracts/utils/math/Math.sol\":12656:12658  16 */\n      0x10\n        /* \"@openzeppelin/contracts/utils/math/Math.sol\":12646:12658  result += 16 */\n      dup2\n      add\n      swap1\n      pop\n        /* \"@openzeppelin/contracts/utils/math/Math.sol\":12570:12673  if (value >= 10 ** 16) {... */\n    tag_194:\n        /* \"@openzeppelin/contracts/utils/math/Math.sol\":12699:12706  10 ** 8 */\n      0x05f5e100\n        /* \"@openzeppelin/contracts/utils/math/Math.sol\":12690:12695  value */\n      dup4\n        /* \"@openzeppelin/contracts/utils/math/Math.sol\":12690:12706  value >= 10 ** 8 */\n      lt\n        /* \"@openzeppelin/contracts/utils/math/Math.sol\":12686:12786  if (value >= 10 ** 8) {... */\n      tag_197\n      jumpi\n        /* \"@openzeppelin/contracts/utils/math/Math.sol\":12735:12742  10 ** 8 */\n      0x05f5e100\n        /* \"@openzeppelin/contracts/utils/math/Math.sol\":12726:12742  value /= 10 ** 8 */\n      dup4\n      dup2\n      tag_198\n      jumpi\n      tag_199\n      tag_177\n      jump\t// in\n    tag_199:\n    tag_198:\n      div\n      swap3\n      pop\n        /* \"@openzeppelin/contracts/utils/math/Math.sol\":12770:12771  8 */\n      0x08\n        /* \"@openzeppelin/contracts/utils/math/Math.sol\":12760:12771  result += 8 */\n      dup2\n      add\n      swap1\n      pop\n        /* \"@openzeppelin/contracts/utils/math/Math.sol\":12686:12786  if (value >= 10 ** 8) {... */\n    tag_197:\n        /* \"@openzeppelin/contracts/utils/math/Math.sol\":12812:12819  10 ** 4 */\n      0x2710\n        /* \"@openzeppelin/contracts/utils/math/Math.sol\":12803:12808  value */\n      dup4\n        /* \"@openzeppelin/contracts/utils/math/Math.sol\":12803:12819  value >= 10 ** 4 */\n      lt\n        /* \"@openzeppelin/contracts/utils/math/Math.sol\":12799:12899  if (value >= 10 ** 4) {... */\n      tag_200\n      jumpi\n        /* \"@openzeppelin/contracts/utils/math/Math.sol\":12848:12855  10 ** 4 */\n      0x2710\n        /* \"@openzeppelin/contracts/utils/math/Math.sol\":12839:12855  value /= 10 ** 4 */\n      dup4\n      dup2\n      tag_201\n      jumpi\n      tag_202\n      tag_177\n      jump\t// in\n    tag_202:\n    tag_201:\n      div\n      swap3\n      pop\n        /* \"@openzeppelin/contracts/utils/math/Math.sol\":12883:12884  4 */\n      0x04\n        /* \"@openzeppelin/contracts/utils/math/Math.sol\":12873:12884  result += 4 */\n      dup2\n      add\n      swap1\n      pop\n        /* \"@openzeppelin/contracts/utils/math/Math.sol\":12799:12899  if (value >= 10 ** 4) {... */\n    tag_200:\n        /* \"@openzeppelin/contracts/utils/math/Math.sol\":12925:12932  10 ** 2 */\n      0x64\n        /* \"@openzeppelin/contracts/utils/math/Math.sol\":12916:12921  value */\n      dup4\n        /* \"@openzeppelin/contracts/utils/math/Math.sol\":12916:12932  value >= 10 ** 2 */\n      lt\n        /* \"@openzeppelin/contracts/utils/math/Math.sol\":12912:13012  if (value >= 10 ** 2) {... */\n      tag_203\n      jumpi\n        /* \"@openzeppelin/contracts/utils/math/Math.sol\":12961:12968  10 ** 2 */\n      0x64\n        /* \"@openzeppelin/contracts/utils/math/Math.sol\":12952:12968  value /= 10 ** 2 */\n      dup4\n      dup2\n      tag_204\n      jumpi\n      tag_205\n      tag_177\n      jump\t// in\n    tag_205:\n    tag_204:\n      div\n      swap3\n      pop\n        /* \"@openzeppelin/contracts/utils/math/Math.sol\":12996:12997  2 */\n      0x02\n        /* \"@openzeppelin/contracts/utils/math/Math.sol\":12986:12997  result += 2 */\n      dup2\n      add\n      swap1\n      pop\n        /* \"@openzeppelin/contracts/utils/math/Math.sol\":12912:13012  if (value >= 10 ** 2) {... */\n    tag_203:\n        /* \"@openzeppelin/contracts/utils/math/Math.sol\":13038:13045  10 ** 1 */\n      0x0a\n        /* \"@openzeppelin/contracts/utils/math/Math.sol\":13029:13034  value */\n      dup4\n        /* \"@openzeppelin/contracts/utils/math/Math.sol\":13029:13045  value >= 10 ** 1 */\n      lt\n        /* \"@openzeppelin/contracts/utils/math/Math.sol\":13025:13091  if (value >= 10 ** 1) {... */\n      tag_206\n      jumpi\n        /* \"@openzeppelin/contracts/utils/math/Math.sol\":13075:13076  1 */\n      0x01\n        /* \"@openzeppelin/contracts/utils/math/Math.sol\":13065:13076  result += 1 */\n      dup2\n      add\n      swap1\n      pop\n        /* \"@openzeppelin/contracts/utils/math/Math.sol\":13025:13091  if (value >= 10 ** 1) {... */\n    tag_206:\n        /* \"@openzeppelin/contracts/utils/math/Math.sol\":13117:13123  result */\n      dup1\n        /* \"@openzeppelin/contracts/utils/math/Math.sol\":13110:13123  return result */\n      swap2\n      pop\n      pop\n        /* \"@openzeppelin/contracts/utils/math/Math.sol\":12214:13130  function log10(uint256 value) internal pure returns (uint256) {... */\n      swap2\n      swap1\n      pop\n      jump\t// out\n        /* \"#utility.yul\":7:157   */\n    tag_207:\n        /* \"#utility.yul\":44:51   */\n      0x00\n        /* \"#utility.yul\":84:150   */\n      0xffffffffffffffffffffffffffffffffffffffff000000000000000000000000\n        /* \"#utility.yul\":77:82   */\n      dup3\n        /* \"#utility.yul\":73:151   */\n      and\n        /* \"#utility.yul\":62:151   */\n      swap1\n      pop\n        /* \"#utility.yul\":7:157   */\n      swap2\n      swap1\n      pop\n      jump\t// out\n        /* \"#utility.yul\":163:281   */\n    tag_208:\n        /* \"#utility.yul\":250:274   */\n      tag_265\n        /* \"#utility.yul\":268:273   */\n      dup2\n        /* \"#utility.yul\":250:274   */\n      tag_207\n      jump\t// in\n    tag_265:\n        /* \"#utility.yul\":245:248   */\n      dup3\n        /* \"#utility.yul\":238:275   */\n      mstore\n        /* \"#utility.yul\":163:281   */\n      pop\n      pop\n      jump\t// out\n        /* \"#utility.yul\":287:509   */\n    tag_21:\n        /* \"#utility.yul\":380:384   */\n      0x00\n        /* \"#utility.yul\":418:420   */\n      0x20\n        /* \"#utility.yul\":407:416   */\n      dup3\n        /* \"#utility.yul\":403:421   */\n      add\n        /* \"#utility.yul\":395:421   */\n      swap1\n      pop\n        /* \"#utility.yul\":431:502   */\n      tag_267\n        /* \"#utility.yul\":499:500   */\n      0x00\n        /* \"#utility.yul\":488:497   */\n      dup4\n        /* \"#utility.yul\":484:501   */\n      add\n        /* \"#utility.yul\":475:481   */\n      dup5\n        /* \"#utility.yul\":431:502   */\n      tag_208\n      jump\t// in\n    tag_267:\n        /* \"#utility.yul\":287:509   */\n      swap3\n      swap2\n      pop\n      pop\n      jump\t// out\n        /* \"#utility.yul\":515:590   */\n    tag_209:\n        /* \"#utility.yul\":548:554   */\n      0x00\n        /* \"#utility.yul\":581:583   */\n      0x40\n        /* \"#utility.yul\":575:584   */\n      mload\n        /* \"#utility.yul\":565:584   */\n      swap1\n      pop\n        /* \"#utility.yul\":515:590   */\n      swap1\n      jump\t// out\n        /* \"#utility.yul\":596:713   */\n    tag_210:\n        /* \"#utility.yul\":705:706   */\n      0x00\n        /* \"#utility.yul\":702:703   */\n      dup1\n        /* \"#utility.yul\":695:707   */\n      revert\n        /* \"#utility.yul\":719:836   */\n    tag_211:\n        /* \"#utility.yul\":828:829   */\n      0x00\n        /* \"#utility.yul\":825:826   */\n      dup1\n        /* \"#utility.yul\":818:830   */\n      revert\n        /* \"#utility.yul\":842:968   */\n    tag_212:\n        /* \"#utility.yul\":879:886   */\n      0x00\n        /* \"#utility.yul\":919:961   */\n      0xffffffffffffffffffffffffffffffffffffffff\n        /* \"#utility.yul\":912:917   */\n      dup3\n        /* \"#utility.yul\":908:962   */\n      and\n        /* \"#utility.yul\":897:962   */\n      swap1\n      pop\n        /* \"#utility.yul\":842:968   */\n      swap2\n      swap1\n      pop\n      jump\t// out\n        /* \"#utility.yul\":974:1070   */\n    tag_213:\n        /* \"#utility.yul\":1011:1018   */\n      0x00\n        /* \"#utility.yul\":1040:1064   */\n      tag_273\n        /* \"#utility.yul\":1058:1063   */\n      dup3\n        /* \"#utility.yul\":1040:1064   */\n      tag_212\n      jump\t// in\n    tag_273:\n        /* \"#utility.yul\":1029:1064   */\n      swap1\n      pop\n        /* \"#utility.yul\":974:1070   */\n      swap2\n      swap1\n      pop\n      jump\t// out\n        /* \"#utility.yul\":1076:1198   */\n    tag_214:\n        /* \"#utility.yul\":1149:1173   */\n      tag_275\n        /* \"#utility.yul\":1167:1172   */\n      dup2\n        /* \"#utility.yul\":1149:1173   */\n      tag_213\n      jump\t// in\n    tag_275:\n        /* \"#utility.yul\":1142:1147   */\n      dup2\n        /* \"#utility.yul\":1139:1174   */\n      eq\n        /* \"#utility.yul\":1129:1192   */\n      tag_276\n      jumpi\n        /* \"#utility.yul\":1188:1189   */\n      0x00\n        /* \"#utility.yul\":1185:1186   */\n      dup1\n        /* \"#utility.yul\":1178:1190   */\n      revert\n        /* \"#utility.yul\":1129:1192   */\n    tag_276:\n        /* \"#utility.yul\":1076:1198   */\n      pop\n      jump\t// out\n        /* \"#utility.yul\":1204:1343   */\n    tag_215:\n        /* \"#utility.yul\":1250:1255   */\n      0x00\n        /* \"#utility.yul\":1288:1294   */\n      dup2\n        /* \"#utility.yul\":1275:1295   */\n      calldataload\n        /* \"#utility.yul\":1266:1295   */\n      swap1\n      pop\n        /* \"#utility.yul\":1304:1337   */\n      tag_278\n        /* \"#utility.yul\":1331:1336   */\n      dup2\n        /* \"#utility.yul\":1304:1337   */\n      tag_214\n      jump\t// in\n    tag_278:\n        /* \"#utility.yul\":1204:1343   */\n      swap3\n      swap2\n      pop\n      pop\n      jump\t// out\n        /* \"#utility.yul\":1349:1438   */\n    tag_216:\n        /* \"#utility.yul\":1385:1392   */\n      0x00\n        /* \"#utility.yul\":1425:1431   */\n      0xffff\n        /* \"#utility.yul\":1418:1423   */\n      dup3\n        /* \"#utility.yul\":1414:1432   */\n      and\n        /* \"#utility.yul\":1403:1432   */\n      swap1\n      pop\n        /* \"#utility.yul\":1349:1438   */\n      swap2\n      swap1\n      pop\n      jump\t// out\n        /* \"#utility.yul\":1444:1564   */\n    tag_217:\n        /* \"#utility.yul\":1516:1539   */\n      tag_281\n        /* \"#utility.yul\":1533:1538   */\n      dup2\n        /* \"#utility.yul\":1516:1539   */\n      tag_216\n      jump\t// in\n    tag_281:\n        /* \"#utility.yul\":1509:1514   */\n      dup2\n        /* \"#utility.yul\":1506:1540   */\n      eq\n        /* \"#utility.yul\":1496:1558   */\n      tag_282\n      jumpi\n        /* \"#utility.yul\":1554:1555   */\n      0x00\n        /* \"#utility.yul\":1551:1552   */\n      dup1\n        /* \"#utility.yul\":1544:1556   */\n      revert\n        /* \"#utility.yul\":1496:1558   */\n    tag_282:\n        /* \"#utility.yul\":1444:1564   */\n      pop\n      jump\t// out\n        /* \"#utility.yul\":1570:1707   */\n    tag_218:\n        /* \"#utility.yul\":1615:1620   */\n      0x00\n        /* \"#utility.yul\":1653:1659   */\n      dup2\n        /* \"#utility.yul\":1640:1660   */\n      calldataload\n        /* \"#utility.yul\":1631:1660   */\n      swap1\n      pop\n        /* \"#utility.yul\":1669:1701   */\n      tag_284\n        /* \"#utility.yul\":1695:1700   */\n      dup2\n        /* \"#utility.yul\":1669:1701   */\n      tag_217\n      jump\t// in\n    tag_284:\n        /* \"#utility.yul\":1570:1707   */\n      swap3\n      swap2\n      pop\n      pop\n      jump\t// out\n        /* \"#utility.yul\":1713:2330   */\n    tag_24:\n        /* \"#utility.yul\":1789:1795   */\n      0x00\n        /* \"#utility.yul\":1797:1803   */\n      dup1\n        /* \"#utility.yul\":1805:1811   */\n      0x00\n        /* \"#utility.yul\":1854:1856   */\n      0x60\n        /* \"#utility.yul\":1842:1851   */\n      dup5\n        /* \"#utility.yul\":1833:1840   */\n      dup7\n        /* \"#utility.yul\":1829:1852   */\n      sub\n        /* \"#utility.yul\":1825:1857   */\n      slt\n        /* \"#utility.yul\":1822:1941   */\n      iszero\n      tag_286\n      jumpi\n        /* \"#utility.yul\":1860:1939   */\n      tag_287\n      tag_210\n      jump\t// in\n    tag_287:\n        /* \"#utility.yul\":1822:1941   */\n    tag_286:\n        /* \"#utility.yul\":1980:1981   */\n      0x00\n        /* \"#utility.yul\":2005:2058   */\n      tag_288\n        /* \"#utility.yul\":2050:2057   */\n      dup7\n        /* \"#utility.yul\":2041:2047   */\n      dup3\n        /* \"#utility.yul\":2030:2039   */\n      dup8\n        /* \"#utility.yul\":2026:2048   */\n      add\n        /* \"#utility.yul\":2005:2058   */\n      tag_215\n      jump\t// in\n    tag_288:\n        /* \"#utility.yul\":1995:2058   */\n      swap4\n      pop\n        /* \"#utility.yul\":1951:2068   */\n      pop\n        /* \"#utility.yul\":2107:2109   */\n      0x20\n        /* \"#utility.yul\":2133:2186   */\n      tag_289\n        /* \"#utility.yul\":2178:2185   */\n      dup7\n        /* \"#utility.yul\":2169:2175   */\n      dup3\n        /* \"#utility.yul\":2158:2167   */\n      dup8\n        /* \"#utility.yul\":2154:2176   */\n      add\n        /* \"#utility.yul\":2133:2186   */\n      tag_215\n      jump\t// in\n    tag_289:\n        /* \"#utility.yul\":2123:2186   */\n      swap3\n      pop\n        /* \"#utility.yul\":2078:2196   */\n      pop\n        /* \"#utility.yul\":2235:2237   */\n      0x40\n        /* \"#utility.yul\":2261:2313   */\n      tag_290\n        /* \"#utility.yul\":2305:2312   */\n      dup7\n        /* \"#utility.yul\":2296:2302   */\n      dup3\n        /* \"#utility.yul\":2285:2294   */\n      dup8\n        /* \"#utility.yul\":2281:2303   */\n      add\n        /* \"#utility.yul\":2261:2313   */\n      tag_218\n      jump\t// in\n    tag_290:\n        /* \"#utility.yul\":2251:2313   */\n      swap2\n      pop\n        /* \"#utility.yul\":2206:2323   */\n      pop\n        /* \"#utility.yul\":1713:2330   */\n      swap3\n      pop\n      swap3\n      pop\n      swap3\n      jump\t// out\n        /* \"#utility.yul\":2336:2665   */\n    tag_31:\n        /* \"#utility.yul\":2395:2401   */\n      0x00\n        /* \"#utility.yul\":2444:2446   */\n      0x20\n        /* \"#utility.yul\":2432:2441   */\n      dup3\n        /* \"#utility.yul\":2423:2430   */\n      dup5\n        /* \"#utility.yul\":2419:2442   */\n      sub\n        /* \"#utility.yul\":2415:2447   */\n      slt\n        /* \"#utility.yul\":2412:2531   */\n      iszero\n      tag_292\n      jumpi\n        /* \"#utility.yul\":2450:2529   */\n      tag_293\n      tag_210\n      jump\t// in\n    tag_293:\n        /* \"#utility.yul\":2412:2531   */\n    tag_292:\n        /* \"#utility.yul\":2570:2571   */\n      0x00\n        /* \"#utility.yul\":2595:2648   */\n      tag_294\n        /* \"#utility.yul\":2640:2647   */\n      dup5\n        /* \"#utility.yul\":2631:2637   */\n      dup3\n        /* \"#utility.yul\":2620:2629   */\n      dup6\n        /* \"#utility.yul\":2616:2638   */\n      add\n        /* \"#utility.yul\":2595:2648   */\n      tag_215\n      jump\t// in\n    tag_294:\n        /* \"#utility.yul\":2585:2648   */\n      swap2\n      pop\n        /* \"#utility.yul\":2541:2658   */\n      pop\n        /* \"#utility.yul\":2336:2665   */\n      swap3\n      swap2\n      pop\n      pop\n      jump\t// out\n        /* \"#utility.yul\":2671:2786   */\n    tag_219:\n        /* \"#utility.yul\":2756:2779   */\n      tag_296\n        /* \"#utility.yul\":2773:2778   */\n      dup2\n        /* \"#utility.yul\":2756:2779   */\n      tag_216\n      jump\t// in\n    tag_296:\n        /* \"#utility.yul\":2751:2754   */\n      dup3\n        /* \"#utility.yul\":2744:2780   */\n      mstore\n        /* \"#utility.yul\":2671:2786   */\n      pop\n      pop\n      jump\t// out\n        /* \"#utility.yul\":2792:3010   */\n    tag_34:\n        /* \"#utility.yul\":2883:2887   */\n      0x00\n        /* \"#utility.yul\":2921:2923   */\n      0x20\n        /* \"#utility.yul\":2910:2919   */\n      dup3\n        /* \"#utility.yul\":2906:2924   */\n      add\n        /* \"#utility.yul\":2898:2924   */\n      swap1\n      pop\n        /* \"#utility.yul\":2934:3003   */\n      tag_298\n        /* \"#utility.yul\":3000:3001   */\n      0x00\n        /* \"#utility.yul\":2989:2998   */\n      dup4\n        /* \"#utility.yul\":2985:3002   */\n      add\n        /* \"#utility.yul\":2976:2982   */\n      dup5\n        /* \"#utility.yul\":2934:3003   */\n      tag_219\n      jump\t// in\n    tag_298:\n        /* \"#utility.yul\":2792:3010   */\n      swap3\n      swap2\n      pop\n      pop\n      jump\t// out\n        /* \"#utility.yul\":3016:3343   */\n    tag_37:\n        /* \"#utility.yul\":3074:3080   */\n      0x00\n        /* \"#utility.yul\":3123:3125   */\n      0x20\n        /* \"#utility.yul\":3111:3120   */\n      dup3\n        /* \"#utility.yul\":3102:3109   */\n      dup5\n        /* \"#utility.yul\":3098:3121   */\n      sub\n        /* \"#utility.yul\":3094:3126   */\n      slt\n        /* \"#utility.yul\":3091:3210   */\n      iszero\n      tag_300\n      jumpi\n        /* \"#utility.yul\":3129:3208   */\n      tag_301\n      tag_210\n      jump\t// in\n    tag_301:\n        /* \"#utility.yul\":3091:3210   */\n    tag_300:\n        /* \"#utility.yul\":3249:3250   */\n      0x00\n        /* \"#utility.yul\":3274:3326   */\n      tag_302\n        /* \"#utility.yul\":3318:3325   */\n      dup5\n        /* \"#utility.yul\":3309:3315   */\n      dup3\n        /* \"#utility.yul\":3298:3307   */\n      dup6\n        /* \"#utility.yul\":3294:3316   */\n      add\n        /* \"#utility.yul\":3274:3326   */\n      tag_218\n      jump\t// in\n    tag_302:\n        /* \"#utility.yul\":3264:3326   */\n      swap2\n      pop\n        /* \"#utility.yul\":3220:3336   */\n      pop\n        /* \"#utility.yul\":3016:3343   */\n      swap3\n      swap2\n      pop\n      pop\n      jump\t// out\n        /* \"#utility.yul\":3349:3467   */\n    tag_220:\n        /* \"#utility.yul\":3436:3460   */\n      tag_304\n        /* \"#utility.yul\":3454:3459   */\n      dup2\n        /* \"#utility.yul\":3436:3460   */\n      tag_213\n      jump\t// in\n    tag_304:\n        /* \"#utility.yul\":3431:3434   */\n      dup3\n        /* \"#utility.yul\":3424:3461   */\n      mstore\n        /* \"#utility.yul\":3349:3467   */\n      pop\n      pop\n      jump\t// out\n        /* \"#utility.yul\":3473:3695   */\n    tag_40:\n        /* \"#utility.yul\":3566:3570   */\n      0x00\n        /* \"#utility.yul\":3604:3606   */\n      0x20\n        /* \"#utility.yul\":3593:3602   */\n      dup3\n        /* \"#utility.yul\":3589:3607   */\n      add\n        /* \"#utility.yul\":3581:3607   */\n      swap1\n      pop\n        /* \"#utility.yul\":3617:3688   */\n      tag_306\n        /* \"#utility.yul\":3685:3686   */\n      0x00\n        /* \"#utility.yul\":3674:3683   */\n      dup4\n        /* \"#utility.yul\":3670:3687   */\n      add\n        /* \"#utility.yul\":3661:3667   */\n      dup5\n        /* \"#utility.yul\":3617:3688   */\n      tag_220\n      jump\t// in\n    tag_306:\n        /* \"#utility.yul\":3473:3695   */\n      swap3\n      swap2\n      pop\n      pop\n      jump\t// out\n        /* \"#utility.yul\":3701:3851   */\n    tag_221:\n        /* \"#utility.yul\":3738:3745   */\n      0x00\n        /* \"#utility.yul\":3778:3844   */\n      0xffffffffffffffffffff00000000000000000000000000000000000000000000\n        /* \"#utility.yul\":3771:3776   */\n      dup3\n        /* \"#utility.yul\":3767:3845   */\n      and\n        /* \"#utility.yul\":3756:3845   */\n      swap1\n      pop\n        /* \"#utility.yul\":3701:3851   */\n      swap2\n      swap1\n      pop\n      jump\t// out\n        /* \"#utility.yul\":3857:3975   */\n    tag_222:\n        /* \"#utility.yul\":3944:3968   */\n      tag_309\n        /* \"#utility.yul\":3962:3967   */\n      dup2\n        /* \"#utility.yul\":3944:3968   */\n      tag_221\n      jump\t// in\n    tag_309:\n        /* \"#utility.yul\":3939:3942   */\n      dup3\n        /* \"#utility.yul\":3932:3969   */\n      mstore\n        /* \"#utility.yul\":3857:3975   */\n      pop\n      pop\n      jump\t// out\n        /* \"#utility.yul\":3981:4203   */\n    tag_48:\n        /* \"#utility.yul\":4074:4078   */\n      0x00\n        /* \"#utility.yul\":4112:4114   */\n      0x20\n        /* \"#utility.yul\":4101:4110   */\n      dup3\n        /* \"#utility.yul\":4097:4115   */\n      add\n        /* \"#utility.yul\":4089:4115   */\n      swap1\n      pop\n        /* \"#utility.yul\":4125:4196   */\n      tag_311\n        /* \"#utility.yul\":4193:4194   */\n      0x00\n        /* \"#utility.yul\":4182:4191   */\n      dup4\n        /* \"#utility.yul\":4178:4195   */\n      add\n        /* \"#utility.yul\":4169:4175   */\n      dup5\n        /* \"#utility.yul\":4125:4196   */\n      tag_222\n      jump\t// in\n    tag_311:\n        /* \"#utility.yul\":3981:4203   */\n      swap3\n      swap2\n      pop\n      pop\n      jump\t// out\n        /* \"#utility.yul\":4209:4299   */\n    tag_223:\n        /* \"#utility.yul\":4243:4250   */\n      0x00\n        /* \"#utility.yul\":4286:4291   */\n      dup2\n        /* \"#utility.yul\":4279:4292   */\n      iszero\n        /* \"#utility.yul\":4272:4293   */\n      iszero\n        /* \"#utility.yul\":4261:4293   */\n      swap1\n      pop\n        /* \"#utility.yul\":4209:4299   */\n      swap2\n      swap1\n      pop\n      jump\t// out\n        /* \"#utility.yul\":4305:4421   */\n    tag_224:\n        /* \"#utility.yul\":4375:4396   */\n      tag_314\n        /* \"#utility.yul\":4390:4395   */\n      dup2\n        /* \"#utility.yul\":4375:4396   */\n      tag_223\n      jump\t// in\n    tag_314:\n        /* \"#utility.yul\":4368:4373   */\n      dup2\n        /* \"#utility.yul\":4365:4397   */\n      eq\n        /* \"#utility.yul\":4355:4415   */\n      tag_315\n      jumpi\n        /* \"#utility.yul\":4411:4412   */\n      0x00\n        /* \"#utility.yul\":4408:4409   */\n      dup1\n        /* \"#utility.yul\":4401:4413   */\n      revert\n        /* \"#utility.yul\":4355:4415   */\n    tag_315:\n        /* \"#utility.yul\":4305:4421   */\n      pop\n      jump\t// out\n        /* \"#utility.yul\":4427:4560   */\n    tag_225:\n        /* \"#utility.yul\":4470:4475   */\n      0x00\n        /* \"#utility.yul\":4508:4514   */\n      dup2\n        /* \"#utility.yul\":4495:4515   */\n      calldataload\n        /* \"#utility.yul\":4486:4515   */\n      swap1\n      pop\n        /* \"#utility.yul\":4524:4554   */\n      tag_317\n        /* \"#utility.yul\":4548:4553   */\n      dup2\n        /* \"#utility.yul\":4524:4554   */\n      tag_224\n      jump\t// in\n    tag_317:\n        /* \"#utility.yul\":4427:4560   */\n      swap3\n      swap2\n      pop\n      pop\n      jump\t// out\n        /* \"#utility.yul\":4566:5034   */\n    tag_51:\n        /* \"#utility.yul\":4631:4637   */\n      0x00\n        /* \"#utility.yul\":4639:4645   */\n      dup1\n        /* \"#utility.yul\":4688:4690   */\n      0x40\n        /* \"#utility.yul\":4676:4685   */\n      dup4\n        /* \"#utility.yul\":4667:4674   */\n      dup6\n        /* \"#utility.yul\":4663:4686   */\n      sub\n        /* \"#utility.yul\":4659:4691   */\n      slt\n        /* \"#utility.yul\":4656:4775   */\n      iszero\n      tag_319\n      jumpi\n        /* \"#utility.yul\":4694:4773   */\n      tag_320\n      tag_210\n      jump\t// in\n    tag_320:\n        /* \"#utility.yul\":4656:4775   */\n    tag_319:\n        /* \"#utility.yul\":4814:4815   */\n      0x00\n        /* \"#utility.yul\":4839:4892   */\n      tag_321\n        /* \"#utility.yul\":4884:4891   */\n      dup6\n        /* \"#utility.yul\":4875:4881   */\n      dup3\n        /* \"#utility.yul\":4864:4873   */\n      dup7\n        /* \"#utility.yul\":4860:4882   */\n      add\n        /* \"#utility.yul\":4839:4892   */\n      tag_215\n      jump\t// in\n    tag_321:\n        /* \"#utility.yul\":4829:4892   */\n      swap3\n      pop\n        /* \"#utility.yul\":4785:4902   */\n      pop\n        /* \"#utility.yul\":4941:4943   */\n      0x20\n        /* \"#utility.yul\":4967:5017   */\n      tag_322\n        /* \"#utility.yul\":5009:5016   */\n      dup6\n        /* \"#utility.yul\":5000:5006   */\n      dup3\n        /* \"#utility.yul\":4989:4998   */\n      dup7\n        /* \"#utility.yul\":4985:5007   */\n      add\n        /* \"#utility.yul\":4967:5017   */\n      tag_225\n      jump\t// in\n    tag_322:\n        /* \"#utility.yul\":4957:5017   */\n      swap2\n      pop\n        /* \"#utility.yul\":4912:5027   */\n      pop\n        /* \"#utility.yul\":4566:5034   */\n      swap3\n      pop\n      swap3\n      swap1\n      pop\n      jump\t// out\n        /* \"#utility.yul\":5040:5157   */\n    tag_226:\n        /* \"#utility.yul\":5149:5150   */\n      0x00\n        /* \"#utility.yul\":5146:5147   */\n      dup1\n        /* \"#utility.yul\":5139:5151   */\n      revert\n        /* \"#utility.yul\":5163:5280   */\n    tag_227:\n        /* \"#utility.yul\":5272:5273   */\n      0x00\n        /* \"#utility.yul\":5269:5270   */\n      dup1\n        /* \"#utility.yul\":5262:5274   */\n      revert\n        /* \"#utility.yul\":5286:5388   */\n    tag_228:\n        /* \"#utility.yul\":5327:5333   */\n      0x00\n        /* \"#utility.yul\":5378:5380   */\n      0x1f\n        /* \"#utility.yul\":5374:5381   */\n      not\n        /* \"#utility.yul\":5369:5371   */\n      0x1f\n        /* \"#utility.yul\":5362:5367   */\n      dup4\n        /* \"#utility.yul\":5358:5372   */\n      add\n        /* \"#utility.yul\":5354:5382   */\n      and\n        /* \"#utility.yul\":5344:5382   */\n      swap1\n      pop\n        /* \"#utility.yul\":5286:5388   */\n      swap2\n      swap1\n      pop\n      jump\t// out\n        /* \"#utility.yul\":5394:5574   */\n    tag_171:\n        /* \"#utility.yul\":5442:5519   */\n      0x4e487b7100000000000000000000000000000000000000000000000000000000\n        /* \"#utility.yul\":5439:5440   */\n      0x00\n        /* \"#utility.yul\":5432:5520   */\n      mstore\n        /* \"#utility.yul\":5539:5543   */\n      0x41\n        /* \"#utility.yul\":5536:5537   */\n      0x04\n        /* \"#utility.yul\":5529:5544   */\n      mstore\n        /* \"#utility.yul\":5563:5567   */\n      0x24\n        /* \"#utility.yul\":5560:5561   */\n      0x00\n        /* \"#utility.yul\":5553:5568   */\n      revert\n        /* \"#utility.yul\":5580:5861   */\n    tag_229:\n        /* \"#utility.yul\":5663:5690   */\n      tag_328\n        /* \"#utility.yul\":5685:5689   */\n      dup3\n        /* \"#utility.yul\":5663:5690   */\n      tag_228\n      jump\t// in\n    tag_328:\n        /* \"#utility.yul\":5655:5661   */\n      dup2\n        /* \"#utility.yul\":5651:5691   */\n      add\n        /* \"#utility.yul\":5793:5799   */\n      dup2\n        /* \"#utility.yul\":5781:5791   */\n      dup2\n        /* \"#utility.yul\":5778:5800   */\n      lt\n        /* \"#utility.yul\":5757:5775   */\n      0xffffffffffffffff\n        /* \"#utility.yul\":5745:5755   */\n      dup3\n        /* \"#utility.yul\":5742:5776   */\n      gt\n        /* \"#utility.yul\":5739:5801   */\n      or\n        /* \"#utility.yul\":5736:5824   */\n      iszero\n      tag_329\n      jumpi\n        /* \"#utility.yul\":5804:5822   */\n      tag_330\n      tag_171\n      jump\t// in\n    tag_330:\n        /* \"#utility.yul\":5736:5824   */\n    tag_329:\n        /* \"#utility.yul\":5844:5854   */\n      dup1\n        /* \"#utility.yul\":5840:5842   */\n      0x40\n        /* \"#utility.yul\":5833:5855   */\n      mstore\n        /* \"#utility.yul\":5623:5861   */\n      pop\n        /* \"#utility.yul\":5580:5861   */\n      pop\n      pop\n      jump\t// out\n        /* \"#utility.yul\":5867:5996   */\n    tag_230:\n        /* \"#utility.yul\":5901:5907   */\n      0x00\n        /* \"#utility.yul\":5928:5948   */\n      tag_332\n      tag_209\n      jump\t// in\n    tag_332:\n        /* \"#utility.yul\":5918:5948   */\n      swap1\n      pop\n        /* \"#utility.yul\":5957:5990   */\n      tag_333\n        /* \"#utility.yul\":5985:5989   */\n      dup3\n        /* \"#utility.yul\":5977:5983   */\n      dup3\n        /* \"#utility.yul\":5957:5990   */\n      tag_229\n      jump\t// in\n    tag_333:\n        /* \"#utility.yul\":5867:5996   */\n      swap2\n      swap1\n      pop\n      jump\t// out\n        /* \"#utility.yul\":6002:6309   */\n    tag_231:\n        /* \"#utility.yul\":6063:6067   */\n      0x00\n        /* \"#utility.yul\":6153:6171   */\n      0xffffffffffffffff\n        /* \"#utility.yul\":6145:6151   */\n      dup3\n        /* \"#utility.yul\":6142:6172   */\n      gt\n        /* \"#utility.yul\":6139:6195   */\n      iszero\n      tag_335\n      jumpi\n        /* \"#utility.yul\":6175:6193   */\n      tag_336\n      tag_171\n      jump\t// in\n    tag_336:\n        /* \"#utility.yul\":6139:6195   */\n    tag_335:\n        /* \"#utility.yul\":6213:6242   */\n      tag_337\n        /* \"#utility.yul\":6235:6241   */\n      dup3\n        /* \"#utility.yul\":6213:6242   */\n      tag_228\n      jump\t// in\n    tag_337:\n        /* \"#utility.yul\":6205:6242   */\n      swap1\n      pop\n        /* \"#utility.yul\":6297:6301   */\n      0x20\n        /* \"#utility.yul\":6291:6295   */\n      dup2\n        /* \"#utility.yul\":6287:6302   */\n      add\n        /* \"#utility.yul\":6279:6302   */\n      swap1\n      pop\n        /* \"#utility.yul\":6002:6309   */\n      swap2\n      swap1\n      pop\n      jump\t// out\n        /* \"#utility.yul\":6315:6461   */\n    tag_232:\n        /* \"#utility.yul\":6412:6418   */\n      dup3\n        /* \"#utility.yul\":6407:6410   */\n      dup2\n        /* \"#utility.yul\":6402:6405   */\n      dup4\n        /* \"#utility.yul\":6389:6419   */\n      calldatacopy\n        /* \"#utility.yul\":6453:6454   */\n      0x00\n        /* \"#utility.yul\":6444:6450   */\n      dup4\n        /* \"#utility.yul\":6439:6442   */\n      dup4\n        /* \"#utility.yul\":6435:6451   */\n      add\n        /* \"#utility.yul\":6428:6455   */\n      mstore\n        /* \"#utility.yul\":6315:6461   */\n      pop\n      pop\n      pop\n      jump\t// out\n        /* \"#utility.yul\":6467:6890   */\n    tag_233:\n        /* \"#utility.yul\":6544:6549   */\n      0x00\n        /* \"#utility.yul\":6569:6634   */\n      tag_340\n        /* \"#utility.yul\":6585:6633   */\n      tag_341\n        /* \"#utility.yul\":6626:6632   */\n      dup5\n        /* \"#utility.yul\":6585:6633   */\n      tag_231\n      jump\t// in\n    tag_341:\n        /* \"#utility.yul\":6569:6634   */\n      tag_230\n      jump\t// in\n    tag_340:\n        /* \"#utility.yul\":6560:6634   */\n      swap1\n      pop\n        /* \"#utility.yul\":6657:6663   */\n      dup3\n        /* \"#utility.yul\":6650:6655   */\n      dup2\n        /* \"#utility.yul\":6643:6664   */\n      mstore\n        /* \"#utility.yul\":6695:6699   */\n      0x20\n        /* \"#utility.yul\":6688:6693   */\n      dup2\n        /* \"#utility.yul\":6684:6700   */\n      add\n        /* \"#utility.yul\":6733:6736   */\n      dup5\n        /* \"#utility.yul\":6724:6730   */\n      dup5\n        /* \"#utility.yul\":6719:6722   */\n      dup5\n        /* \"#utility.yul\":6715:6731   */\n      add\n        /* \"#utility.yul\":6712:6737   */\n      gt\n        /* \"#utility.yul\":6709:6821   */\n      iszero\n      tag_342\n      jumpi\n        /* \"#utility.yul\":6740:6819   */\n      tag_343\n      tag_227\n      jump\t// in\n    tag_343:\n        /* \"#utility.yul\":6709:6821   */\n    tag_342:\n        /* \"#utility.yul\":6830:6884   */\n      tag_344\n        /* \"#utility.yul\":6877:6883   */\n      dup5\n        /* \"#utility.yul\":6872:6875   */\n      dup3\n        /* \"#utility.yul\":6867:6870   */\n      dup6\n        /* \"#utility.yul\":6830:6884   */\n      tag_232\n      jump\t// in\n    tag_344:\n        /* \"#utility.yul\":6550:6890   */\n      pop\n        /* \"#utility.yul\":6467:6890   */\n      swap4\n      swap3\n      pop\n      pop\n      pop\n      jump\t// out\n        /* \"#utility.yul\":6909:7247   */\n    tag_234:\n        /* \"#utility.yul\":6964:6969   */\n      0x00\n        /* \"#utility.yul\":7013:7016   */\n      dup3\n        /* \"#utility.yul\":7006:7010   */\n      0x1f\n        /* \"#utility.yul\":6998:7004   */\n      dup4\n        /* \"#utility.yul\":6994:7011   */\n      add\n        /* \"#utility.yul\":6990:7017   */\n      slt\n        /* \"#utility.yul\":6980:7102   */\n      tag_346\n      jumpi\n        /* \"#utility.yul\":7021:7100   */\n      tag_347\n      tag_226\n      jump\t// in\n    tag_347:\n        /* \"#utility.yul\":6980:7102   */\n    tag_346:\n        /* \"#utility.yul\":7138:7144   */\n      dup2\n        /* \"#utility.yul\":7125:7145   */\n      calldataload\n        /* \"#utility.yul\":7163:7241   */\n      tag_348\n        /* \"#utility.yul\":7237:7240   */\n      dup5\n        /* \"#utility.yul\":7229:7235   */\n      dup3\n        /* \"#utility.yul\":7222:7226   */\n      0x20\n        /* \"#utility.yul\":7214:7220   */\n      dup7\n        /* \"#utility.yul\":7210:7227   */\n      add\n        /* \"#utility.yul\":7163:7241   */\n      tag_233\n      jump\t// in\n    tag_348:\n        /* \"#utility.yul\":7154:7241   */\n      swap2\n      pop\n        /* \"#utility.yul\":6970:7247   */\n      pop\n        /* \"#utility.yul\":6909:7247   */\n      swap3\n      swap2\n      pop\n      pop\n      jump\t// out\n        /* \"#utility.yul\":7253:8194   */\n    tag_55:\n        /* \"#utility.yul\":7347:7353   */\n      0x00\n        /* \"#utility.yul\":7355:7361   */\n      dup1\n        /* \"#utility.yul\":7363:7369   */\n      0x00\n        /* \"#utility.yul\":7371:7377   */\n      dup1\n        /* \"#utility.yul\":7420:7423   */\n      0x80\n        /* \"#utility.yul\":7408:7417   */\n      dup6\n        /* \"#utility.yul\":7399:7406   */\n      dup8\n        /* \"#utility.yul\":7395:7418   */\n      sub\n        /* \"#utility.yul\":7391:7424   */\n      slt\n        /* \"#utility.yul\":7388:7508   */\n      iszero\n      tag_350\n      jumpi\n        /* \"#utility.yul\":7427:7506   */\n      tag_351\n      tag_210\n      jump\t// in\n    tag_351:\n        /* \"#utility.yul\":7388:7508   */\n    tag_350:\n        /* \"#utility.yul\":7547:7548   */\n      0x00\n        /* \"#utility.yul\":7572:7625   */\n      tag_352\n        /* \"#utility.yul\":7617:7624   */\n      dup8\n        /* \"#utility.yul\":7608:7614   */\n      dup3\n        /* \"#utility.yul\":7597:7606   */\n      dup9\n        /* \"#utility.yul\":7593:7615   */\n      add\n        /* \"#utility.yul\":7572:7625   */\n      tag_215\n      jump\t// in\n    tag_352:\n        /* \"#utility.yul\":7562:7625   */\n      swap5\n      pop\n        /* \"#utility.yul\":7518:7635   */\n      pop\n        /* \"#utility.yul\":7674:7676   */\n      0x20\n        /* \"#utility.yul\":7700:7753   */\n      tag_353\n        /* \"#utility.yul\":7745:7752   */\n      dup8\n        /* \"#utility.yul\":7736:7742   */\n      dup3\n        /* \"#utility.yul\":7725:7734   */\n      dup9\n        /* \"#utility.yul\":7721:7743   */\n      add\n        /* \"#utility.yul\":7700:7753   */\n      tag_215\n      jump\t// in\n    tag_353:\n        /* \"#utility.yul\":7690:7753   */\n      swap4\n      pop\n        /* \"#utility.yul\":7645:7763   */\n      pop\n        /* \"#utility.yul\":7802:7804   */\n      0x40\n        /* \"#utility.yul\":7828:7880   */\n      tag_354\n        /* \"#utility.yul\":7872:7879   */\n      dup8\n        /* \"#utility.yul\":7863:7869   */\n      dup3\n        /* \"#utility.yul\":7852:7861   */\n      dup9\n        /* \"#utility.yul\":7848:7870   */\n      add\n        /* \"#utility.yul\":7828:7880   */\n      tag_218\n      jump\t// in\n    tag_354:\n        /* \"#utility.yul\":7818:7880   */\n      swap3\n      pop\n        /* \"#utility.yul\":7773:7890   */\n      pop\n        /* \"#utility.yul\":7957:7959   */\n      0x60\n        /* \"#utility.yul\":7946:7955   */\n      dup6\n        /* \"#utility.yul\":7942:7960   */\n      add\n        /* \"#utility.yul\":7929:7961   */\n      calldataload\n        /* \"#utility.yul\":7988:8006   */\n      0xffffffffffffffff\n        /* \"#utility.yul\":7980:7986   */\n      dup2\n        /* \"#utility.yul\":7977:8007   */\n      gt\n        /* \"#utility.yul\":7974:8091   */\n      iszero\n      tag_355\n      jumpi\n        /* \"#utility.yul\":8010:8089   */\n      tag_356\n      tag_211\n      jump\t// in\n    tag_356:\n        /* \"#utility.yul\":7974:8091   */\n    tag_355:\n        /* \"#utility.yul\":8115:8177   */\n      tag_357\n        /* \"#utility.yul\":8169:8176   */\n      dup8\n        /* \"#utility.yul\":8160:8166   */\n      dup3\n        /* \"#utility.yul\":8149:8158   */\n      dup9\n        /* \"#utility.yul\":8145:8167   */\n      add\n        /* \"#utility.yul\":8115:8177   */\n      tag_234\n      jump\t// in\n    tag_357:\n        /* \"#utility.yul\":8105:8177   */\n      swap2\n      pop\n        /* \"#utility.yul\":7900:8187   */\n      pop\n        /* \"#utility.yul\":7253:8194   */\n      swap3\n      swap6\n      swap2\n      swap5\n      pop\n      swap3\n      pop\n      jump\t// out\n        /* \"#utility.yul\":8200:8317   */\n    tag_235:\n        /* \"#utility.yul\":8309:8310   */\n      0x00\n        /* \"#utility.yul\":8306:8307   */\n      dup1\n        /* \"#utility.yul\":8299:8311   */\n      revert\n        /* \"#utility.yul\":8323:8440   */\n    tag_236:\n        /* \"#utility.yul\":8432:8433   */\n      0x00\n        /* \"#utility.yul\":8429:8430   */\n      dup1\n        /* \"#utility.yul\":8422:8434   */\n      revert\n        /* \"#utility.yul\":8459:9011   */\n    tag_237:\n        /* \"#utility.yul\":8516:8524   */\n      0x00\n        /* \"#utility.yul\":8526:8532   */\n      dup1\n        /* \"#utility.yul\":8576:8579   */\n      dup4\n        /* \"#utility.yul\":8569:8573   */\n      0x1f\n        /* \"#utility.yul\":8561:8567   */\n      dup5\n        /* \"#utility.yul\":8557:8574   */\n      add\n        /* \"#utility.yul\":8553:8580   */\n      slt\n        /* \"#utility.yul\":8543:8665   */\n      tag_361\n      jumpi\n        /* \"#utility.yul\":8584:8663   */\n      tag_362\n      tag_226\n      jump\t// in\n    tag_362:\n        /* \"#utility.yul\":8543:8665   */\n    tag_361:\n        /* \"#utility.yul\":8697:8703   */\n      dup3\n        /* \"#utility.yul\":8684:8704   */\n      calldataload\n        /* \"#utility.yul\":8674:8704   */\n      swap1\n      pop\n        /* \"#utility.yul\":8727:8745   */\n      0xffffffffffffffff\n        /* \"#utility.yul\":8719:8725   */\n      dup2\n        /* \"#utility.yul\":8716:8746   */\n      gt\n        /* \"#utility.yul\":8713:8830   */\n      iszero\n      tag_363\n      jumpi\n        /* \"#utility.yul\":8749:8828   */\n      tag_364\n      tag_235\n      jump\t// in\n    tag_364:\n        /* \"#utility.yul\":8713:8830   */\n    tag_363:\n        /* \"#utility.yul\":8863:8867   */\n      0x20\n        /* \"#utility.yul\":8855:8861   */\n      dup4\n        /* \"#utility.yul\":8851:8868   */\n      add\n        /* \"#utility.yul\":8839:8868   */\n      swap2\n      pop\n        /* \"#utility.yul\":8917:8920   */\n      dup4\n        /* \"#utility.yul\":8909:8913   */\n      0x01\n        /* \"#utility.yul\":8901:8907   */\n      dup3\n        /* \"#utility.yul\":8897:8914   */\n      mul\n        /* \"#utility.yul\":8887:8895   */\n      dup4\n        /* \"#utility.yul\":8883:8915   */\n      add\n        /* \"#utility.yul\":8880:8921   */\n      gt\n        /* \"#utility.yul\":8877:9005   */\n      iszero\n      tag_365\n      jumpi\n        /* \"#utility.yul\":8924:9003   */\n      tag_366\n      tag_236\n      jump\t// in\n    tag_366:\n        /* \"#utility.yul\":8877:9005   */\n    tag_365:\n        /* \"#utility.yul\":8459:9011   */\n      swap3\n      pop\n      swap3\n      swap1\n      pop\n      jump\t// out\n        /* \"#utility.yul\":9017:9978   */\n    tag_59:\n        /* \"#utility.yul\":9113:9119   */\n      0x00\n        /* \"#utility.yul\":9121:9127   */\n      dup1\n        /* \"#utility.yul\":9129:9135   */\n      0x00\n        /* \"#utility.yul\":9137:9143   */\n      dup1\n        /* \"#utility.yul\":9145:9151   */\n      0x00\n        /* \"#utility.yul\":9194:9197   */\n      0x80\n        /* \"#utility.yul\":9182:9191   */\n      dup7\n        /* \"#utility.yul\":9173:9180   */\n      dup9\n        /* \"#utility.yul\":9169:9192   */\n      sub\n        /* \"#utility.yul\":9165:9198   */\n      slt\n        /* \"#utility.yul\":9162:9282   */\n      iszero\n      tag_368\n      jumpi\n        /* \"#utility.yul\":9201:9280   */\n      tag_369\n      tag_210\n      jump\t// in\n    tag_369:\n        /* \"#utility.yul\":9162:9282   */\n    tag_368:\n        /* \"#utility.yul\":9321:9322   */\n      0x00\n        /* \"#utility.yul\":9346:9399   */\n      tag_370\n        /* \"#utility.yul\":9391:9398   */\n      dup9\n        /* \"#utility.yul\":9382:9388   */\n      dup3\n        /* \"#utility.yul\":9371:9380   */\n      dup10\n        /* \"#utility.yul\":9367:9389   */\n      add\n        /* \"#utility.yul\":9346:9399   */\n      tag_215\n      jump\t// in\n    tag_370:\n        /* \"#utility.yul\":9336:9399   */\n      swap6\n      pop\n        /* \"#utility.yul\":9292:9409   */\n      pop\n        /* \"#utility.yul\":9448:9450   */\n      0x20\n        /* \"#utility.yul\":9474:9527   */\n      tag_371\n        /* \"#utility.yul\":9519:9526   */\n      dup9\n        /* \"#utility.yul\":9510:9516   */\n      dup3\n        /* \"#utility.yul\":9499:9508   */\n      dup10\n        /* \"#utility.yul\":9495:9517   */\n      add\n        /* \"#utility.yul\":9474:9527   */\n      tag_215\n      jump\t// in\n    tag_371:\n        /* \"#utility.yul\":9464:9527   */\n      swap5\n      pop\n        /* \"#utility.yul\":9419:9537   */\n      pop\n        /* \"#utility.yul\":9576:9578   */\n      0x40\n        /* \"#utility.yul\":9602:9654   */\n      tag_372\n        /* \"#utility.yul\":9646:9653   */\n      dup9\n        /* \"#utility.yul\":9637:9643   */\n      dup3\n        /* \"#utility.yul\":9626:9635   */\n      dup10\n        /* \"#utility.yul\":9622:9644   */\n      add\n        /* \"#utility.yul\":9602:9654   */\n      tag_218\n      jump\t// in\n    tag_372:\n        /* \"#utility.yul\":9592:9654   */\n      swap4\n      pop\n        /* \"#utility.yul\":9547:9664   */\n      pop\n        /* \"#utility.yul\":9731:9733   */\n      0x60\n        /* \"#utility.yul\":9720:9729   */\n      dup7\n        /* \"#utility.yul\":9716:9734   */\n      add\n        /* \"#utility.yul\":9703:9735   */\n      calldataload\n        /* \"#utility.yul\":9762:9780   */\n      0xffffffffffffffff\n        /* \"#utility.yul\":9754:9760   */\n      dup2\n        /* \"#utility.yul\":9751:9781   */\n      gt\n        /* \"#utility.yul\":9748:9865   */\n      iszero\n      tag_373\n      jumpi\n        /* \"#utility.yul\":9784:9863   */\n      tag_374\n      tag_211\n      jump\t// in\n    tag_374:\n        /* \"#utility.yul\":9748:9865   */\n    tag_373:\n        /* \"#utility.yul\":9897:9961   */\n      tag_375\n        /* \"#utility.yul\":9953:9960   */\n      dup9\n        /* \"#utility.yul\":9944:9950   */\n      dup3\n        /* \"#utility.yul\":9933:9942   */\n      dup10\n        /* \"#utility.yul\":9929:9951   */\n      add\n        /* \"#utility.yul\":9897:9961   */\n      tag_237\n      jump\t// in\n    tag_375:\n        /* \"#utility.yul\":9879:9961   */\n      swap3\n      pop\n      swap3\n      pop\n        /* \"#utility.yul\":9674:9971   */\n      pop\n        /* \"#utility.yul\":9017:9978   */\n      swap3\n      swap6\n      pop\n      swap3\n      swap6\n      swap1\n      swap4\n      pop\n      jump\t// out\n        /* \"#utility.yul\":9984:10133   */\n    tag_238:\n        /* \"#utility.yul\":10020:10027   */\n      0x00\n        /* \"#utility.yul\":10060:10126   */\n      0xffffffff00000000000000000000000000000000000000000000000000000000\n        /* \"#utility.yul\":10053:10058   */\n      dup3\n        /* \"#utility.yul\":10049:10127   */\n      and\n        /* \"#utility.yul\":10038:10127   */\n      swap1\n      pop\n        /* \"#utility.yul\":9984:10133   */\n      swap2\n      swap1\n      pop\n      jump\t// out\n        /* \"#utility.yul\":10139:10254   */\n    tag_239:\n        /* \"#utility.yul\":10224:10247   */\n      tag_378\n        /* \"#utility.yul\":10241:10246   */\n      dup2\n        /* \"#utility.yul\":10224:10247   */\n      tag_238\n      jump\t// in\n    tag_378:\n        /* \"#utility.yul\":10219:10222   */\n      dup3\n        /* \"#utility.yul\":10212:10248   */\n      mstore\n        /* \"#utility.yul\":10139:10254   */\n      pop\n      pop\n      jump\t// out\n        /* \"#utility.yul\":10260:10478   */\n    tag_62:\n        /* \"#utility.yul\":10351:10355   */\n      0x00\n        /* \"#utility.yul\":10389:10391   */\n      0x20\n        /* \"#utility.yul\":10378:10387   */\n      dup3\n        /* \"#utility.yul\":10374:10392   */\n      add\n        /* \"#utility.yul\":10366:10392   */\n      swap1\n      pop\n        /* \"#utility.yul\":10402:10471   */\n      tag_380\n        /* \"#utility.yul\":10468:10469   */\n      0x00\n        /* \"#utility.yul\":10457:10466   */\n      dup4\n        /* \"#utility.yul\":10453:10470   */\n      add\n        /* \"#utility.yul\":10444:10450   */\n      dup5\n        /* \"#utility.yul\":10402:10471   */\n      tag_239\n      jump\t// in\n    tag_380:\n        /* \"#utility.yul\":10260:10478   */\n      swap3\n      swap2\n      pop\n      pop\n      jump\t// out\n        /* \"#utility.yul\":10484:10583   */\n    tag_240:\n        /* \"#utility.yul\":10536:10542   */\n      0x00\n        /* \"#utility.yul\":10570:10575   */\n      dup2\n        /* \"#utility.yul\":10564:10576   */\n      mload\n        /* \"#utility.yul\":10554:10576   */\n      swap1\n      pop\n        /* \"#utility.yul\":10484:10583   */\n      swap2\n      swap1\n      pop\n      jump\t// out\n        /* \"#utility.yul\":10589:10758   */\n    tag_241:\n        /* \"#utility.yul\":10673:10684   */\n      0x00\n        /* \"#utility.yul\":10707:10713   */\n      dup3\n        /* \"#utility.yul\":10702:10705   */\n      dup3\n        /* \"#utility.yul\":10695:10714   */\n      mstore\n        /* \"#utility.yul\":10747:10751   */\n      0x20\n        /* \"#utility.yul\":10742:10745   */\n      dup3\n        /* \"#utility.yul\":10738:10752   */\n      add\n        /* \"#utility.yul\":10723:10752   */\n      swap1\n      pop\n        /* \"#utility.yul\":10589:10758   */\n      swap3\n      swap2\n      pop\n      pop\n      jump\t// out\n        /* \"#utility.yul\":10764:11010   */\n    tag_242:\n        /* \"#utility.yul\":10845:10846   */\n      0x00\n        /* \"#utility.yul\":10855:10968   */\n    tag_384:\n        /* \"#utility.yul\":10869:10875   */\n      dup4\n        /* \"#utility.yul\":10866:10867   */\n      dup2\n        /* \"#utility.yul\":10863:10876   */\n      lt\n        /* \"#utility.yul\":10855:10968   */\n      iszero\n      tag_386\n      jumpi\n        /* \"#utility.yul\":10954:10955   */\n      dup1\n        /* \"#utility.yul\":10949:10952   */\n      dup3\n        /* \"#utility.yul\":10945:10956   */\n      add\n        /* \"#utility.yul\":10939:10957   */\n      mload\n        /* \"#utility.yul\":10935:10936   */\n      dup2\n        /* \"#utility.yul\":10930:10933   */\n      dup5\n        /* \"#utility.yul\":10926:10937   */\n      add\n        /* \"#utility.yul\":10919:10958   */\n      mstore\n        /* \"#utility.yul\":10891:10893   */\n      0x20\n        /* \"#utility.yul\":10888:10889   */\n      dup2\n        /* \"#utility.yul\":10884:10894   */\n      add\n        /* \"#utility.yul\":10879:10894   */\n      swap1\n      pop\n        /* \"#utility.yul\":10855:10968   */\n      jump(tag_384)\n    tag_386:\n        /* \"#utility.yul\":11002:11003   */\n      0x00\n        /* \"#utility.yul\":10993:10999   */\n      dup5\n        /* \"#utility.yul\":10988:10991   */\n      dup5\n        /* \"#utility.yul\":10984:11000   */\n      add\n        /* \"#utility.yul\":10977:11004   */\n      mstore\n        /* \"#utility.yul\":10826:11010   */\n      pop\n        /* \"#utility.yul\":10764:11010   */\n      pop\n      pop\n      pop\n      jump\t// out\n        /* \"#utility.yul\":11016:11393   */\n    tag_243:\n        /* \"#utility.yul\":11104:11107   */\n      0x00\n        /* \"#utility.yul\":11132:11171   */\n      tag_388\n        /* \"#utility.yul\":11165:11170   */\n      dup3\n        /* \"#utility.yul\":11132:11171   */\n      tag_240\n      jump\t// in\n    tag_388:\n        /* \"#utility.yul\":11187:11258   */\n      tag_389\n        /* \"#utility.yul\":11251:11257   */\n      dup2\n        /* \"#utility.yul\":11246:11249   */\n      dup6\n        /* \"#utility.yul\":11187:11258   */\n      tag_241\n      jump\t// in\n    tag_389:\n        /* \"#utility.yul\":11180:11258   */\n      swap4\n      pop\n        /* \"#utility.yul\":11267:11332   */\n      tag_390\n        /* \"#utility.yul\":11325:11331   */\n      dup2\n        /* \"#utility.yul\":11320:11323   */\n      dup6\n        /* \"#utility.yul\":11313:11317   */\n      0x20\n        /* \"#utility.yul\":11306:11311   */\n      dup7\n        /* \"#utility.yul\":11302:11318   */\n      add\n        /* \"#utility.yul\":11267:11332   */\n      tag_242\n      jump\t// in\n    tag_390:\n        /* \"#utility.yul\":11357:11386   */\n      tag_391\n        /* \"#utility.yul\":11379:11385   */\n      dup2\n        /* \"#utility.yul\":11357:11386   */\n      tag_228\n      jump\t// in\n    tag_391:\n        /* \"#utility.yul\":11352:11355   */\n      dup5\n        /* \"#utility.yul\":11348:11387   */\n      add\n        /* \"#utility.yul\":11341:11387   */\n      swap2\n      pop\n        /* \"#utility.yul\":11108:11393   */\n      pop\n        /* \"#utility.yul\":11016:11393   */\n      swap3\n      swap2\n      pop\n      pop\n      jump\t// out\n        /* \"#utility.yul\":11399:11712   */\n    tag_67:\n        /* \"#utility.yul\":11512:11516   */\n      0x00\n        /* \"#utility.yul\":11550:11552   */\n      0x20\n        /* \"#utility.yul\":11539:11548   */\n      dup3\n        /* \"#utility.yul\":11535:11553   */\n      add\n        /* \"#utility.yul\":11527:11553   */\n      swap1\n      pop\n        /* \"#utility.yul\":11599:11608   */\n      dup2\n        /* \"#utility.yul\":11593:11597   */\n      dup2\n        /* \"#utility.yul\":11589:11609   */\n      sub\n        /* \"#utility.yul\":11585:11586   */\n      0x00\n        /* \"#utility.yul\":11574:11583   */\n      dup4\n        /* \"#utility.yul\":11570:11587   */\n      add\n        /* \"#utility.yul\":11563:11610   */\n      mstore\n        /* \"#utility.yul\":11627:11705   */\n      tag_393\n        /* \"#utility.yul\":11700:11704   */\n      dup2\n        /* \"#utility.yul\":11691:11697   */\n      dup5\n        /* \"#utility.yul\":11627:11705   */\n      tag_243\n      jump\t// in\n    tag_393:\n        /* \"#utility.yul\":11619:11705   */\n      swap1\n      pop\n        /* \"#utility.yul\":11399:11712   */\n      swap3\n      swap2\n      pop\n      pop\n      jump\t// out\n        /* \"#utility.yul\":11718:12190   */\n    tag_70:\n        /* \"#utility.yul\":11785:11791   */\n      0x00\n        /* \"#utility.yul\":11793:11799   */\n      dup1\n        /* \"#utility.yul\":11842:11844   */\n      0x40\n        /* \"#utility.yul\":11830:11839   */\n      dup4\n        /* \"#utility.yul\":11821:11828   */\n      dup6\n        /* \"#utility.yul\":11817:11840   */\n      sub\n        /* \"#utility.yul\":11813:11845   */\n      slt\n        /* \"#utility.yul\":11810:11929   */\n      iszero\n      tag_395\n      jumpi\n        /* \"#utility.yul\":11848:11927   */\n      tag_396\n      tag_210\n      jump\t// in\n    tag_396:\n        /* \"#utility.yul\":11810:11929   */\n    tag_395:\n        /* \"#utility.yul\":11968:11969   */\n      0x00\n        /* \"#utility.yul\":11993:12046   */\n      tag_397\n        /* \"#utility.yul\":12038:12045   */\n      dup6\n        /* \"#utility.yul\":12029:12035   */\n      dup3\n        /* \"#utility.yul\":12018:12027   */\n      dup7\n        /* \"#utility.yul\":12014:12036   */\n      add\n        /* \"#utility.yul\":11993:12046   */\n      tag_215\n      jump\t// in\n    tag_397:\n        /* \"#utility.yul\":11983:12046   */\n      swap3\n      pop\n        /* \"#utility.yul\":11939:12056   */\n      pop\n        /* \"#utility.yul\":12095:12097   */\n      0x20\n        /* \"#utility.yul\":12121:12173   */\n      tag_398\n        /* \"#utility.yul\":12165:12172   */\n      dup6\n        /* \"#utility.yul\":12156:12162   */\n      dup3\n        /* \"#utility.yul\":12145:12154   */\n      dup7\n        /* \"#utility.yul\":12141:12163   */\n      add\n        /* \"#utility.yul\":12121:12173   */\n      tag_218\n      jump\t// in\n    tag_398:\n        /* \"#utility.yul\":12111:12173   */\n      swap2\n      pop\n        /* \"#utility.yul\":12066:12183   */\n      pop\n        /* \"#utility.yul\":11718:12190   */\n      swap3\n      pop\n      swap3\n      swap1\n      pop\n      jump\t// out\n        /* \"#utility.yul\":12196:12670   */\n    tag_74:\n        /* \"#utility.yul\":12264:12270   */\n      0x00\n        /* \"#utility.yul\":12272:12278   */\n      dup1\n        /* \"#utility.yul\":12321:12323   */\n      0x40\n        /* \"#utility.yul\":12309:12318   */\n      dup4\n        /* \"#utility.yul\":12300:12307   */\n      dup6\n        /* \"#utility.yul\":12296:12319   */\n      sub\n        /* \"#utility.yul\":12292:12324   */\n      slt\n        /* \"#utility.yul\":12289:12408   */\n      iszero\n      tag_400\n      jumpi\n        /* \"#utility.yul\":12327:12406   */\n      tag_401\n      tag_210\n      jump\t// in\n    tag_401:\n        /* \"#utility.yul\":12289:12408   */\n    tag_400:\n        /* \"#utility.yul\":12447:12448   */\n      0x00\n        /* \"#utility.yul\":12472:12525   */\n      tag_402\n        /* \"#utility.yul\":12517:12524   */\n      dup6\n        /* \"#utility.yul\":12508:12514   */\n      dup3\n        /* \"#utility.yul\":12497:12506   */\n      dup7\n        /* \"#utility.yul\":12493:12515   */\n      add\n        /* \"#utility.yul\":12472:12525   */\n      tag_215\n      jump\t// in\n    tag_402:\n        /* \"#utility.yul\":12462:12525   */\n      swap3\n      pop\n        /* \"#utility.yul\":12418:12535   */\n      pop\n        /* \"#utility.yul\":12574:12576   */\n      0x20\n        /* \"#utility.yul\":12600:12653   */\n      tag_403\n        /* \"#utility.yul\":12645:12652   */\n      dup6\n        /* \"#utility.yul\":12636:12642   */\n      dup3\n        /* \"#utility.yul\":12625:12634   */\n      dup7\n        /* \"#utility.yul\":12621:12643   */\n      add\n        /* \"#utility.yul\":12600:12653   */\n      tag_215\n      jump\t// in\n    tag_403:\n        /* \"#utility.yul\":12590:12653   */\n      swap2\n      pop\n        /* \"#utility.yul\":12545:12663   */\n      pop\n        /* \"#utility.yul\":12196:12670   */\n      swap3\n      pop\n      swap3\n      swap1\n      pop\n      jump\t// out\n        /* \"#utility.yul\":12676:12785   */\n    tag_244:\n        /* \"#utility.yul\":12757:12778   */\n      tag_405\n        /* \"#utility.yul\":12772:12777   */\n      dup2\n        /* \"#utility.yul\":12757:12778   */\n      tag_223\n      jump\t// in\n    tag_405:\n        /* \"#utility.yul\":12752:12755   */\n      dup3\n        /* \"#utility.yul\":12745:12779   */\n      mstore\n        /* \"#utility.yul\":12676:12785   */\n      pop\n      pop\n      jump\t// out\n        /* \"#utility.yul\":12791:13001   */\n    tag_77:\n        /* \"#utility.yul\":12878:12882   */\n      0x00\n        /* \"#utility.yul\":12916:12918   */\n      0x20\n        /* \"#utility.yul\":12905:12914   */\n      dup3\n        /* \"#utility.yul\":12901:12919   */\n      add\n        /* \"#utility.yul\":12893:12919   */\n      swap1\n      pop\n        /* \"#utility.yul\":12929:12994   */\n      tag_407\n        /* \"#utility.yul\":12991:12992   */\n      0x00\n        /* \"#utility.yul\":12980:12989   */\n      dup4\n        /* \"#utility.yul\":12976:12993   */\n      add\n        /* \"#utility.yul\":12967:12973   */\n      dup5\n        /* \"#utility.yul\":12929:12994   */\n      tag_244\n      jump\t// in\n    tag_407:\n        /* \"#utility.yul\":12791:13001   */\n      swap3\n      swap2\n      pop\n      pop\n      jump\t// out\n        /* \"#utility.yul\":13007:13084   */\n    tag_245:\n        /* \"#utility.yul\":13044:13051   */\n      0x00\n        /* \"#utility.yul\":13073:13078   */\n      dup2\n        /* \"#utility.yul\":13062:13078   */\n      swap1\n      pop\n        /* \"#utility.yul\":13007:13084   */\n      swap2\n      swap1\n      pop\n      jump\t// out\n        /* \"#utility.yul\":13090:13150   */\n    tag_246:\n        /* \"#utility.yul\":13118:13121   */\n      0x00\n        /* \"#utility.yul\":13139:13144   */\n      dup2\n        /* \"#utility.yul\":13132:13144   */\n      swap1\n      pop\n        /* \"#utility.yul\":13090:13150   */\n      swap2\n      swap1\n      pop\n      jump\t// out\n        /* \"#utility.yul\":13156:13296   */\n    tag_247:\n        /* \"#utility.yul\":13205:13214   */\n      0x00\n        /* \"#utility.yul\":13238:13290   */\n      tag_411\n        /* \"#utility.yul\":13256:13289   */\n      tag_412\n        /* \"#utility.yul\":13265:13288   */\n      tag_413\n        /* \"#utility.yul\":13282:13287   */\n      dup5\n        /* \"#utility.yul\":13265:13288   */\n      tag_216\n      jump\t// in\n    tag_413:\n        /* \"#utility.yul\":13256:13289   */\n      tag_246\n      jump\t// in\n    tag_412:\n        /* \"#utility.yul\":13238:13290   */\n      tag_245\n      jump\t// in\n    tag_411:\n        /* \"#utility.yul\":13225:13290   */\n      swap1\n      pop\n        /* \"#utility.yul\":13156:13296   */\n      swap2\n      swap1\n      pop\n      jump\t// out\n        /* \"#utility.yul\":13302:13431   */\n    tag_248:\n        /* \"#utility.yul\":13388:13424   */\n      tag_415\n        /* \"#utility.yul\":13418:13423   */\n      dup2\n        /* \"#utility.yul\":13388:13424   */\n      tag_247\n      jump\t// in\n    tag_415:\n        /* \"#utility.yul\":13383:13386   */\n      dup3\n        /* \"#utility.yul\":13376:13425   */\n      mstore\n        /* \"#utility.yul\":13302:13431   */\n      pop\n      pop\n      jump\t// out\n        /* \"#utility.yul\":13437:13877   */\n    tag_90:\n        /* \"#utility.yul\":13585:13589   */\n      0x00\n        /* \"#utility.yul\":13623:13625   */\n      0x60\n        /* \"#utility.yul\":13612:13621   */\n      dup3\n        /* \"#utility.yul\":13608:13626   */\n      add\n        /* \"#utility.yul\":13600:13626   */\n      swap1\n      pop\n        /* \"#utility.yul\":13636:13707   */\n      tag_417\n        /* \"#utility.yul\":13704:13705   */\n      0x00\n        /* \"#utility.yul\":13693:13702   */\n      dup4\n        /* \"#utility.yul\":13689:13706   */\n      add\n        /* \"#utility.yul\":13680:13686   */\n      dup7\n        /* \"#utility.yul\":13636:13707   */\n      tag_220\n      jump\t// in\n    tag_417:\n        /* \"#utility.yul\":13717:13788   */\n      tag_418\n        /* \"#utility.yul\":13784:13786   */\n      0x20\n        /* \"#utility.yul\":13773:13782   */\n      dup4\n        /* \"#utility.yul\":13769:13787   */\n      add\n        /* \"#utility.yul\":13760:13766   */\n      dup6\n        /* \"#utility.yul\":13717:13788   */\n      tag_248\n      jump\t// in\n    tag_418:\n        /* \"#utility.yul\":13798:13870   */\n      tag_419\n        /* \"#utility.yul\":13866:13868   */\n      0x40\n        /* \"#utility.yul\":13855:13864   */\n      dup4\n        /* \"#utility.yul\":13851:13869   */\n      add\n        /* \"#utility.yul\":13842:13848   */\n      dup5\n        /* \"#utility.yul\":13798:13870   */\n      tag_220\n      jump\t// in\n    tag_419:\n        /* \"#utility.yul\":13437:13877   */\n      swap5\n      swap4\n      pop\n      pop\n      pop\n      pop\n      jump\t// out\n        /* \"#utility.yul\":13883:14065   */\n    tag_249:\n        /* \"#utility.yul\":14023:14057   */\n      0x54686520696e70757420616464726573732063616e6e6f74206265207a65726f\n        /* \"#utility.yul\":14019:14020   */\n      0x00\n        /* \"#utility.yul\":14011:14017   */\n      dup3\n        /* \"#utility.yul\":14007:14021   */\n      add\n        /* \"#utility.yul\":14000:14058   */\n      mstore\n        /* \"#utility.yul\":13883:14065   */\n      pop\n      jump\t// out\n        /* \"#utility.yul\":14071:14437   */\n    tag_250:\n        /* \"#utility.yul\":14213:14216   */\n      0x00\n        /* \"#utility.yul\":14234:14301   */\n      tag_422\n        /* \"#utility.yul\":14298:14300   */\n      0x20\n        /* \"#utility.yul\":14293:14296   */\n      dup4\n        /* \"#utility.yul\":14234:14301   */\n      tag_241\n      jump\t// in\n    tag_422:\n        /* \"#utility.yul\":14227:14301   */\n      swap2\n      pop\n        /* \"#utility.yul\":14310:14403   */\n      tag_423\n        /* \"#utility.yul\":14399:14402   */\n      dup3\n        /* \"#utility.yul\":14310:14403   */\n      tag_249\n      jump\t// in\n    tag_423:\n        /* \"#utility.yul\":14428:14430   */\n      0x20\n        /* \"#utility.yul\":14423:14426   */\n      dup3\n        /* \"#utility.yul\":14419:14431   */\n      add\n        /* \"#utility.yul\":14412:14431   */\n      swap1\n      pop\n        /* \"#utility.yul\":14071:14437   */\n      swap2\n      swap1\n      pop\n      jump\t// out\n        /* \"#utility.yul\":14443:14862   */\n    tag_94:\n        /* \"#utility.yul\":14609:14613   */\n      0x00\n        /* \"#utility.yul\":14647:14649   */\n      0x20\n        /* \"#utility.yul\":14636:14645   */\n      dup3\n        /* \"#utility.yul\":14632:14650   */\n      add\n        /* \"#utility.yul\":14624:14650   */\n      swap1\n      pop\n        /* \"#utility.yul\":14696:14705   */\n      dup2\n        /* \"#utility.yul\":14690:14694   */\n      dup2\n        /* \"#utility.yul\":14686:14706   */\n      sub\n        /* \"#utility.yul\":14682:14683   */\n      0x00\n        /* \"#utility.yul\":14671:14680   */\n      dup4\n        /* \"#utility.yul\":14667:14684   */\n      add\n        /* \"#utility.yul\":14660:14707   */\n      mstore\n        /* \"#utility.yul\":14724:14855   */\n      tag_425\n        /* \"#utility.yul\":14850:14854   */\n      dup2\n        /* \"#utility.yul\":14724:14855   */\n      tag_250\n      jump\t// in\n    tag_425:\n        /* \"#utility.yul\":14716:14855   */\n      swap1\n      pop\n        /* \"#utility.yul\":14443:14862   */\n      swap2\n      swap1\n      pop\n      jump\t// out\n        /* \"#utility.yul\":14868:15048   */\n    tag_97:\n        /* \"#utility.yul\":14916:14993   */\n      0x4e487b7100000000000000000000000000000000000000000000000000000000\n        /* \"#utility.yul\":14913:14914   */\n      0x00\n        /* \"#utility.yul\":14906:14994   */\n      mstore\n        /* \"#utility.yul\":15013:15017   */\n      0x32\n        /* \"#utility.yul\":15010:15011   */\n      0x04\n        /* \"#utility.yul\":15003:15018   */\n      mstore\n        /* \"#utility.yul\":15037:15041   */\n      0x24\n        /* \"#utility.yul\":15034:15035   */\n      0x00\n        /* \"#utility.yul\":15027:15042   */\n      revert\n        /* \"#utility.yul\":15054:15300   */\n    tag_251:\n        /* \"#utility.yul\":15194:15228   */\n      0x5468652061646472657373206f6620746865206f776e657220616e6420746865\n        /* \"#utility.yul\":15190:15191   */\n      0x00\n        /* \"#utility.yul\":15182:15188   */\n      dup3\n        /* \"#utility.yul\":15178:15192   */\n      add\n        /* \"#utility.yul\":15171:15229   */\n      mstore\n        /* \"#utility.yul\":15263:15292   */\n      0x206f70657261746f72206d75737420626520646966666572656e740000000000\n        /* \"#utility.yul\":15258:15260   */\n      0x20\n        /* \"#utility.yul\":15250:15256   */\n      dup3\n        /* \"#utility.yul\":15246:15261   */\n      add\n        /* \"#utility.yul\":15239:15293   */\n      mstore\n        /* \"#utility.yul\":15054:15300   */\n      pop\n      jump\t// out\n        /* \"#utility.yul\":15306:15672   */\n    tag_252:\n        /* \"#utility.yul\":15448:15451   */\n      0x00\n        /* \"#utility.yul\":15469:15536   */\n      tag_429\n        /* \"#utility.yul\":15533:15535   */\n      0x3b\n        /* \"#utility.yul\":15528:15531   */\n      dup4\n        /* \"#utility.yul\":15469:15536   */\n      tag_241\n      jump\t// in\n    tag_429:\n        /* \"#utility.yul\":15462:15536   */\n      swap2\n      pop\n        /* \"#utility.yul\":15545:15638   */\n      tag_430\n        /* \"#utility.yul\":15634:15637   */\n      dup3\n        /* \"#utility.yul\":15545:15638   */\n      tag_251\n      jump\t// in\n    tag_430:\n        /* \"#utility.yul\":15663:15665   */\n      0x40\n        /* \"#utility.yul\":15658:15661   */\n      dup3\n        /* \"#utility.yul\":15654:15666   */\n      add\n        /* \"#utility.yul\":15647:15666   */\n      swap1\n      pop\n        /* \"#utility.yul\":15306:15672   */\n      swap2\n      swap1\n      pop\n      jump\t// out\n        /* \"#utility.yul\":15678:16097   */\n    tag_109:\n        /* \"#utility.yul\":15844:15848   */\n      0x00\n        /* \"#utility.yul\":15882:15884   */\n      0x20\n        /* \"#utility.yul\":15871:15880   */\n      dup3\n        /* \"#utility.yul\":15867:15885   */\n      add\n        /* \"#utility.yul\":15859:15885   */\n      swap1\n      pop\n        /* \"#utility.yul\":15931:15940   */\n      dup2\n        /* \"#utility.yul\":15925:15929   */\n      dup2\n        /* \"#utility.yul\":15921:15941   */\n      sub\n        /* \"#utility.yul\":15917:15918   */\n      0x00\n        /* \"#utility.yul\":15906:15915   */\n      dup4\n        /* \"#utility.yul\":15902:15919   */\n      add\n        /* \"#utility.yul\":15895:15942   */\n      mstore\n        /* \"#utility.yul\":15959:16090   */\n      tag_432\n        /* \"#utility.yul\":16085:16089   */\n      dup2\n        /* \"#utility.yul\":15959:16090   */\n      tag_252\n      jump\t// in\n    tag_432:\n        /* \"#utility.yul\":15951:16090   */\n      swap1\n      pop\n        /* \"#utility.yul\":15678:16097   */\n      swap2\n      swap1\n      pop\n      jump\t// out\n        /* \"#utility.yul\":16103:16251   */\n    tag_253:\n        /* \"#utility.yul\":16205:16216   */\n      0x00\n        /* \"#utility.yul\":16242:16245   */\n      dup2\n        /* \"#utility.yul\":16227:16245   */\n      swap1\n      pop\n        /* \"#utility.yul\":16103:16251   */\n      swap3\n      swap2\n      pop\n      pop\n      jump\t// out\n        /* \"#utility.yul\":16257:16647   */\n    tag_254:\n        /* \"#utility.yul\":16363:16366   */\n      0x00\n        /* \"#utility.yul\":16391:16430   */\n      tag_435\n        /* \"#utility.yul\":16424:16429   */\n      dup3\n        /* \"#utility.yul\":16391:16430   */\n      tag_240\n      jump\t// in\n    tag_435:\n        /* \"#utility.yul\":16446:16535   */\n      tag_436\n        /* \"#utility.yul\":16528:16534   */\n      dup2\n        /* \"#utility.yul\":16523:16526   */\n      dup6\n        /* \"#utility.yul\":16446:16535   */\n      tag_253\n      jump\t// in\n    tag_436:\n        /* \"#utility.yul\":16439:16535   */\n      swap4\n      pop\n        /* \"#utility.yul\":16544:16609   */\n      tag_437\n        /* \"#utility.yul\":16602:16608   */\n      dup2\n        /* \"#utility.yul\":16597:16600   */\n      dup6\n        /* \"#utility.yul\":16590:16594   */\n      0x20\n        /* \"#utility.yul\":16583:16588   */\n      dup7\n        /* \"#utility.yul\":16579:16595   */\n      add\n        /* \"#utility.yul\":16544:16609   */\n      tag_242\n      jump\t// in\n    tag_437:\n        /* \"#utility.yul\":16634:16640   */\n      dup1\n        /* \"#utility.yul\":16629:16632   */\n      dup5\n        /* \"#utility.yul\":16625:16641   */\n      add\n        /* \"#utility.yul\":16618:16641   */\n      swap2\n      pop\n        /* \"#utility.yul\":16367:16647   */\n      pop\n        /* \"#utility.yul\":16257:16647   */\n      swap3\n      swap2\n      pop\n      pop\n      jump\t// out\n        /* \"#utility.yul\":16653:17088   */\n    tag_129:\n        /* \"#utility.yul\":16833:16836   */\n      0x00\n        /* \"#utility.yul\":16855:16950   */\n      tag_439\n        /* \"#utility.yul\":16946:16949   */\n      dup3\n        /* \"#utility.yul\":16937:16943   */\n      dup6\n        /* \"#utility.yul\":16855:16950   */\n      tag_254\n      jump\t// in\n    tag_439:\n        /* \"#utility.yul\":16848:16950   */\n      swap2\n      pop\n        /* \"#utility.yul\":16967:17062   */\n      tag_440\n        /* \"#utility.yul\":17058:17061   */\n      dup3\n        /* \"#utility.yul\":17049:17055   */\n      dup5\n        /* \"#utility.yul\":16967:17062   */\n      tag_254\n      jump\t// in\n    tag_440:\n        /* \"#utility.yul\":16960:17062   */\n      swap2\n      pop\n        /* \"#utility.yul\":17079:17082   */\n      dup2\n        /* \"#utility.yul\":17072:17082   */\n      swap1\n      pop\n        /* \"#utility.yul\":16653:17088   */\n      swap4\n      swap3\n      pop\n      pop\n      pop\n      jump\t// out\n        /* \"#utility.yul\":17094:17397   */\n    tag_255:\n        /* \"#utility.yul\":17234:17268   */\n      0x54686520494420656e746572656420697320696e76616c69642e204974206d75\n        /* \"#utility.yul\":17230:17231   */\n      0x00\n        /* \"#utility.yul\":17222:17228   */\n      dup3\n        /* \"#utility.yul\":17218:17232   */\n      add\n        /* \"#utility.yul\":17211:17269   */\n      mstore\n        /* \"#utility.yul\":17303:17337   */\n      0x737420626520696e207468697320696e74657276616c2030203c206964203c3d\n        /* \"#utility.yul\":17298:17300   */\n      0x20\n        /* \"#utility.yul\":17290:17296   */\n      dup3\n        /* \"#utility.yul\":17286:17301   */\n      add\n        /* \"#utility.yul\":17279:17338   */\n      mstore\n        /* \"#utility.yul\":17372:17389   */\n      0x2063757272656e7420746f6b656e730000000000000000000000000000000000\n        /* \"#utility.yul\":17367:17369   */\n      0x40\n        /* \"#utility.yul\":17359:17365   */\n      dup3\n        /* \"#utility.yul\":17355:17370   */\n      add\n        /* \"#utility.yul\":17348:17390   */\n      mstore\n        /* \"#utility.yul\":17094:17397   */\n      pop\n      jump\t// out\n        /* \"#utility.yul\":17403:17769   */\n    tag_256:\n        /* \"#utility.yul\":17545:17548   */\n      0x00\n        /* \"#utility.yul\":17566:17633   */\n      tag_443\n        /* \"#utility.yul\":17630:17632   */\n      0x4f\n        /* \"#utility.yul\":17625:17628   */\n      dup4\n        /* \"#utility.yul\":17566:17633   */\n      tag_241\n      jump\t// in\n    tag_443:\n        /* \"#utility.yul\":17559:17633   */\n      swap2\n      pop\n        /* \"#utility.yul\":17642:17735   */\n      tag_444\n        /* \"#utility.yul\":17731:17734   */\n      dup3\n        /* \"#utility.yul\":17642:17735   */\n      tag_255\n      jump\t// in\n    tag_444:\n        /* \"#utility.yul\":17760:17762   */\n      0x60\n        /* \"#utility.yul\":17755:17758   */\n      dup3\n        /* \"#utility.yul\":17751:17763   */\n      add\n        /* \"#utility.yul\":17744:17763   */\n      swap1\n      pop\n        /* \"#utility.yul\":17403:17769   */\n      swap2\n      swap1\n      pop\n      jump\t// out\n        /* \"#utility.yul\":17775:18194   */\n    tag_141:\n        /* \"#utility.yul\":17941:17945   */\n      0x00\n        /* \"#utility.yul\":17979:17981   */\n      0x20\n        /* \"#utility.yul\":17968:17977   */\n      dup3\n        /* \"#utility.yul\":17964:17982   */\n      add\n        /* \"#utility.yul\":17956:17982   */\n      swap1\n      pop\n        /* \"#utility.yul\":18028:18037   */\n      dup2\n        /* \"#utility.yul\":18022:18026   */\n      dup2\n        /* \"#utility.yul\":18018:18038   */\n      sub\n        /* \"#utility.yul\":18014:18015   */\n      0x00\n        /* \"#utility.yul\":18003:18012   */\n      dup4\n        /* \"#utility.yul\":17999:18016   */\n      add\n        /* \"#utility.yul\":17992:18039   */\n      mstore\n        /* \"#utility.yul\":18056:18187   */\n      tag_446\n        /* \"#utility.yul\":18182:18186   */\n      dup2\n        /* \"#utility.yul\":18056:18187   */\n      tag_256\n      jump\t// in\n    tag_446:\n        /* \"#utility.yul\":18048:18187   */\n      swap1\n      pop\n        /* \"#utility.yul\":17775:18194   */\n      swap2\n      swap1\n      pop\n      jump\t// out\n        /* \"#utility.yul\":18200:18298   */\n    tag_257:\n        /* \"#utility.yul\":18251:18257   */\n      0x00\n        /* \"#utility.yul\":18285:18290   */\n      dup2\n        /* \"#utility.yul\":18279:18291   */\n      mload\n        /* \"#utility.yul\":18269:18291   */\n      swap1\n      pop\n        /* \"#utility.yul\":18200:18298   */\n      swap2\n      swap1\n      pop\n      jump\t// out\n        /* \"#utility.yul\":18304:18472   */\n    tag_258:\n        /* \"#utility.yul\":18387:18398   */\n      0x00\n        /* \"#utility.yul\":18421:18427   */\n      dup3\n        /* \"#utility.yul\":18416:18419   */\n      dup3\n        /* \"#utility.yul\":18409:18428   */\n      mstore\n        /* \"#utility.yul\":18461:18465   */\n      0x20\n        /* \"#utility.yul\":18456:18459   */\n      dup3\n        /* \"#utility.yul\":18452:18466   */\n      add\n        /* \"#utility.yul\":18437:18466   */\n      swap1\n      pop\n        /* \"#utility.yul\":18304:18472   */\n      swap3\n      swap2\n      pop\n      pop\n      jump\t// out\n        /* \"#utility.yul\":18478:18851   */\n    tag_259:\n        /* \"#utility.yul\":18564:18567   */\n      0x00\n        /* \"#utility.yul\":18592:18630   */\n      tag_450\n        /* \"#utility.yul\":18624:18629   */\n      dup3\n        /* \"#utility.yul\":18592:18630   */\n      tag_257\n      jump\t// in\n    tag_450:\n        /* \"#utility.yul\":18646:18716   */\n      tag_451\n        /* \"#utility.yul\":18709:18715   */\n      dup2\n        /* \"#utility.yul\":18704:18707   */\n      dup6\n        /* \"#utility.yul\":18646:18716   */\n      tag_258\n      jump\t// in\n    tag_451:\n        /* \"#utility.yul\":18639:18716   */\n      swap4\n      pop\n        /* \"#utility.yul\":18725:18790   */\n      tag_452\n        /* \"#utility.yul\":18783:18789   */\n      dup2\n        /* \"#utility.yul\":18778:18781   */\n      dup6\n        /* \"#utility.yul\":18771:18775   */\n      0x20\n        /* \"#utility.yul\":18764:18769   */\n      dup7\n        /* \"#utility.yul\":18760:18776   */\n      add\n        /* \"#utility.yul\":18725:18790   */\n      tag_242\n      jump\t// in\n    tag_452:\n        /* \"#utility.yul\":18815:18844   */\n      tag_453\n        /* \"#utility.yul\":18837:18843   */\n      dup2\n        /* \"#utility.yul\":18815:18844   */\n      tag_228\n      jump\t// in\n    tag_453:\n        /* \"#utility.yul\":18810:18813   */\n      dup5\n        /* \"#utility.yul\":18806:18845   */\n      add\n        /* \"#utility.yul\":18799:18845   */\n      swap2\n      pop\n        /* \"#utility.yul\":18568:18851   */\n      pop\n        /* \"#utility.yul\":18478:18851   */\n      swap3\n      swap2\n      pop\n      pop\n      jump\t// out\n        /* \"#utility.yul\":18857:19493   */\n    tag_149:\n        /* \"#utility.yul\":19050:19054   */\n      0x00\n        /* \"#utility.yul\":19088:19091   */\n      0x80\n        /* \"#utility.yul\":19077:19086   */\n      dup3\n        /* \"#utility.yul\":19073:19092   */\n      add\n        /* \"#utility.yul\":19065:19092   */\n      swap1\n      pop\n        /* \"#utility.yul\":19102:19173   */\n      tag_455\n        /* \"#utility.yul\":19170:19171   */\n      0x00\n        /* \"#utility.yul\":19159:19168   */\n      dup4\n        /* \"#utility.yul\":19155:19172   */\n      add\n        /* \"#utility.yul\":19146:19152   */\n      dup8\n        /* \"#utility.yul\":19102:19173   */\n      tag_220\n      jump\t// in\n    tag_455:\n        /* \"#utility.yul\":19183:19255   */\n      tag_456\n        /* \"#utility.yul\":19251:19253   */\n      0x20\n        /* \"#utility.yul\":19240:19249   */\n      dup4\n        /* \"#utility.yul\":19236:19254   */\n      add\n        /* \"#utility.yul\":19227:19233   */\n      dup7\n        /* \"#utility.yul\":19183:19255   */\n      tag_220\n      jump\t// in\n    tag_456:\n        /* \"#utility.yul\":19265:19335   */\n      tag_457\n        /* \"#utility.yul\":19331:19333   */\n      0x40\n        /* \"#utility.yul\":19320:19329   */\n      dup4\n        /* \"#utility.yul\":19316:19334   */\n      add\n        /* \"#utility.yul\":19307:19313   */\n      dup6\n        /* \"#utility.yul\":19265:19335   */\n      tag_219\n      jump\t// in\n    tag_457:\n        /* \"#utility.yul\":19382:19391   */\n      dup2\n        /* \"#utility.yul\":19376:19380   */\n      dup2\n        /* \"#utility.yul\":19372:19392   */\n      sub\n        /* \"#utility.yul\":19367:19369   */\n      0x60\n        /* \"#utility.yul\":19356:19365   */\n      dup4\n        /* \"#utility.yul\":19352:19370   */\n      add\n        /* \"#utility.yul\":19345:19393   */\n      mstore\n        /* \"#utility.yul\":19410:19486   */\n      tag_458\n        /* \"#utility.yul\":19481:19485   */\n      dup2\n        /* \"#utility.yul\":19472:19478   */\n      dup5\n        /* \"#utility.yul\":19410:19486   */\n      tag_259\n      jump\t// in\n    tag_458:\n        /* \"#utility.yul\":19402:19486   */\n      swap1\n      pop\n        /* \"#utility.yul\":18857:19493   */\n      swap6\n      swap5\n      pop\n      pop\n      pop\n      pop\n      pop\n      jump\t// out\n        /* \"#utility.yul\":19499:19619   */\n    tag_260:\n        /* \"#utility.yul\":19571:19594   */\n      tag_460\n        /* \"#utility.yul\":19588:19593   */\n      dup2\n        /* \"#utility.yul\":19571:19594   */\n      tag_238\n      jump\t// in\n    tag_460:\n        /* \"#utility.yul\":19564:19569   */\n      dup2\n        /* \"#utility.yul\":19561:19595   */\n      eq\n        /* \"#utility.yul\":19551:19613   */\n      tag_461\n      jumpi\n        /* \"#utility.yul\":19609:19610   */\n      0x00\n        /* \"#utility.yul\":19606:19607   */\n      dup1\n        /* \"#utility.yul\":19599:19611   */\n      revert\n        /* \"#utility.yul\":19551:19613   */\n    tag_461:\n        /* \"#utility.yul\":19499:19619   */\n      pop\n      jump\t// out\n        /* \"#utility.yul\":19625:19766   */\n    tag_261:\n        /* \"#utility.yul\":19681:19686   */\n      0x00\n        /* \"#utility.yul\":19712:19718   */\n      dup2\n        /* \"#utility.yul\":19706:19719   */\n      mload\n        /* \"#utility.yul\":19697:19719   */\n      swap1\n      pop\n        /* \"#utility.yul\":19728:19760   */\n      tag_463\n        /* \"#utility.yul\":19754:19759   */\n      dup2\n        /* \"#utility.yul\":19728:19760   */\n      tag_260\n      jump\t// in\n    tag_463:\n        /* \"#utility.yul\":19625:19766   */\n      swap3\n      swap2\n      pop\n      pop\n      jump\t// out\n        /* \"#utility.yul\":19772:20121   */\n    tag_152:\n        /* \"#utility.yul\":19841:19847   */\n      0x00\n        /* \"#utility.yul\":19890:19892   */\n      0x20\n        /* \"#utility.yul\":19878:19887   */\n      dup3\n        /* \"#utility.yul\":19869:19876   */\n      dup5\n        /* \"#utility.yul\":19865:19888   */\n      sub\n        /* \"#utility.yul\":19861:19893   */\n      slt\n        /* \"#utility.yul\":19858:19977   */\n      iszero\n      tag_465\n      jumpi\n        /* \"#utility.yul\":19896:19975   */\n      tag_466\n      tag_210\n      jump\t// in\n    tag_466:\n        /* \"#utility.yul\":19858:19977   */\n    tag_465:\n        /* \"#utility.yul\":20016:20017   */\n      0x00\n        /* \"#utility.yul\":20041:20104   */\n      tag_467\n        /* \"#utility.yul\":20096:20103   */\n      dup5\n        /* \"#utility.yul\":20087:20093   */\n      dup3\n        /* \"#utility.yul\":20076:20085   */\n      dup6\n        /* \"#utility.yul\":20072:20094   */\n      add\n        /* \"#utility.yul\":20041:20104   */\n      tag_261\n      jump\t// in\n    tag_467:\n        /* \"#utility.yul\":20031:20104   */\n      swap2\n      pop\n        /* \"#utility.yul\":19987:20114   */\n      pop\n        /* \"#utility.yul\":19772:20121   */\n      swap3\n      swap2\n      pop\n      pop\n      jump\t// out\n        /* \"#utility.yul\":20127:20307   */\n    tag_177:\n        /* \"#utility.yul\":20175:20252   */\n      0x4e487b7100000000000000000000000000000000000000000000000000000000\n        /* \"#utility.yul\":20172:20173   */\n      0x00\n        /* \"#utility.yul\":20165:20253   */\n      mstore\n        /* \"#utility.yul\":20272:20276   */\n      0x12\n        /* \"#utility.yul\":20269:20270   */\n      0x04\n        /* \"#utility.yul\":20262:20277   */\n      mstore\n        /* \"#utility.yul\":20296:20300   */\n      0x24\n        /* \"#utility.yul\":20293:20294   */\n      0x00\n        /* \"#utility.yul\":20286:20301   */\n      revert\n\n    auxdata: 0xa26469706673582212204fa5920854627380dd1ba995d41bcfa20d16680a2fbd3ade2db9287825664e1d64736f6c63430008140033\n}\n",
				"bytecode": {
					"linkReferences": {},
					"object": "608060405234801562000010575f80fd5b5060405162001b3238038062001b32833981810160405281019062000036919062000145565b815f806101000a81548173ffffffffffffffffffffffffffffffffffffffff021916908360601c0217905550805f60146101000a81548169ffffffffffffffffffff021916908360b01c021790555050506200018a565b5f80fd5b5f7fffffffffffffffffffffffffffffffffffffffff00000000000000000000000082169050919050565b620000c78162000091565b8114620000d2575f80fd5b50565b5f81519050620000e581620000bc565b92915050565b5f7fffffffffffffffffffff0000000000000000000000000000000000000000000082169050919050565b6200012181620000eb565b81146200012c575f80fd5b50565b5f815190506200013f8162000116565b92915050565b5f80604083850312156200015e576200015d6200008d565b5b5f6200016d85828601620000d5565b925050602062000180858286016200012f565b9150509250929050565b61199a80620001985f395ff3fe608060405234801561000f575f80fd5b50600436106100cd575f3560e01c806395d89b411161008a578063b1cff38011610064578063b1cff3801461020d578063dd7d84401461023d578063e560ca431461026d578063e985e9c514610289576100cd565b806395d89b41146101b7578063a22cb465146101d5578063b145ae31146101f1576100cd565b806306fdde03146100d157806307394401146100ef5780634ec3dcfe1461010b57806370a082311461012757806382a7cf1e1461015757806393b871f214610187575b5f80fd5b6100d96102b9565b6040516100e69190610ef6565b60405180910390f35b61010960048036038101906101049190610fb1565b6102cd565b005b61012560048036038101906101209190610fb1565b6102ec565b005b610141600480360381019061013c9190611001565b6103eb565b60405161014e919061103b565b60405180910390f35b610171600480360381019061016c9190611054565b6104cc565b60405161017e919061108e565b60405180910390f35b6101a1600480360381019061019c9190611054565b6104dd565b6040516101ae919061108e565b60405180910390f35b6101bf610529565b6040516101cc91906110e1565b60405180910390f35b6101ef60048036038101906101ea919061112f565b61053e565b005b61020b600480360381019061020691906112a9565b61072a565b005b61022760048036038101906102229190611386565b610747565b6040516102349190611444565b60405180910390f35b61025760048036038101906102529190611054565b610751565b60405161026491906114d7565b60405180910390f35b610287600480360381019061028291906114f7565b6107bb565b005b6102a3600480360381019061029e9190611535565b6107d1565b6040516102b09190611582565b60405180910390f35b5f805f9054906101000a900460601b905090565b6102e783838360405180602001604052805f81525061072a565b505050565b5f73ffffffffffffffffffffffffffffffffffffffff168273ffffffffffffffffffffffffffffffffffffffff160361035c575f6040517f64a0ae92000000000000000000000000000000000000000000000000000000008152600401610353919061108e565b60405180910390fd5b5f61036f838361036a610860565b610867565b90508373ffffffffffffffffffffffffffffffffffffffff168173ffffffffffffffffffffffffffffffffffffffff16146103e5578382826040517f64283d7b0000000000000000000000000000000000000000000000000000000081526004016103dc939291906115dd565b60405180910390fd5b50505050565b5f8073ffffffffffffffffffffffffffffffffffffffff168273ffffffffffffffffffffffffffffffffffffffff160361045a576040517f08c379a00000000000000000000000000000000000000000000000000000000081526004016104519061165c565b60405180910390fd5b6104d95f8373ffffffffffffffffffffffffffffffffffffffff1673ffffffffffffffffffffffffffffffffffffffff1681526020019081526020015f205f6104b181106104ab576104aa61167a565b5b601091828204019190066002029054906101000a900461ffff169050919050565b5f6104d68261086f565b9050919050565b5f6104e78261086f565b506104da5f8361ffff1661ffff1681526020019081526020015f205f9054906101000a900473ffffffffffffffffffffffffffffffffffffffff169050919050565b5f8060149054906101000a900460b01b905090565b8173ffffffffffffffffffffffffffffffffffffffff1661055d610860565b73ffffffffffffffffffffffffffffffffffffffff16036105b3576040517f08c379a00000000000000000000000000000000000000000000000000000000081526004016105aa90611717565b60405180910390fd5b5f73ffffffffffffffffffffffffffffffffffffffff168273ffffffffffffffffffffffffffffffffffffffff160361062357816040517f5b08ba1800000000000000000000000000000000000000000000000000000000815260040161061a919061108e565b60405180910390fd5b806104db5f610630610860565b73ffffffffffffffffffffffffffffffffffffffff1673ffffffffffffffffffffffffffffffffffffffff1681526020019081526020015f205f8473ffffffffffffffffffffffffffffffffffffffff1673ffffffffffffffffffffffffffffffffffffffff1681526020019081526020015f205f6101000a81548160ff0219169083151502179055508173ffffffffffffffffffffffffffffffffffffffff166106d9610860565b73ffffffffffffffffffffffffffffffffffffffff167f17307eab39ab6107e8899845ad3d59bd9653f200f220920489ca2b5937696c318360405161071e9190611582565b60405180910390a35050565b6107358484846102ec565b6107418484848461091d565b50505050565b5f95945050505050565b606061075c8261086f565b505f610766610acf565b90505f8151116107845760405180602001604052805f8152506107b3565b806107928461ffff16610ae5565b6040516020016107a392919061176f565b6040516020818303038152906040525b915050919050565b6107cd82826107c8610860565b610baf565b5050565b5f6104db5f8473ffffffffffffffffffffffffffffffffffffffff1673ffffffffffffffffffffffffffffffffffffffff1681526020019081526020015f205f8373ffffffffffffffffffffffffffffffffffffffff1673ffffffffffffffffffffffffffffffffffffffff1681526020019081526020015f205f9054906101000a900460ff16905092915050565b5f33905090565b5f9392505050565b5f8161ffff165f10801561089d575060015f0160029054906101000a900461ffff1661ffff168261ffff1611155b6108dc576040517f08c379a00000000000000000000000000000000000000000000000000000000081526004016108d390611828565b60405180910390fd5b60028261ffff166104b181106108f5576108f461167a565b5b015f9054906101000a900473ffffffffffffffffffffffffffffffffffffffff169050919050565b5f8373ffffffffffffffffffffffffffffffffffffffff163b1115610ac9578273ffffffffffffffffffffffffffffffffffffffff1663b1cff380610960610860565b8685856040518563ffffffff1660e01b81526004016109829493929190611898565b6020604051808303815f875af19250505080156109bd57506040513d601f19601f820116820180604052508101906109ba919061190c565b60015b610a3e573d805f81146109eb576040519150601f19603f3d011682016040523d82523d5f602084013e6109f0565b606091505b505f815103610a3657836040517f64a0ae92000000000000000000000000000000000000000000000000000000008152600401610a2d919061108e565b60405180910390fd5b805181602001fd5b63b1cff38060e01b7bffffffffffffffffffffffffffffffffffffffffffffffffffffffff1916817bffffffffffffffffffffffffffffffffffffffffffffffffffffffff191614610ac757836040517f64a0ae92000000000000000000000000000000000000000000000000000000008152600401610abe919061108e565b60405180910390fd5b505b50505050565b606060405180602001604052805f815250905090565b60605f6001610af384610d6b565b0190505f8167ffffffffffffffff811115610b1157610b10611185565b5b6040519080825280601f01601f191660200182016040528015610b435781602001600182028036833780820191505090505b5090505f82602001820190505b600115610ba4578080600190039150507f3031323334353637383961626364656600000000000000000000000000000000600a86061a8153600a8581610b9957610b98611937565b5b0494505f8503610b50575b819350505050919050565b5f610bb98361086f565b90508373ffffffffffffffffffffffffffffffffffffffff168173ffffffffffffffffffffffffffffffffffffffff1603610c29576040517f08c379a0000000000000000000000000000000000000000000000000000000008152600401610c2090611717565b60405180910390fd5b8173ffffffffffffffffffffffffffffffffffffffff168173ffffffffffffffffffffffffffffffffffffffff1614158015610c6c5750610c6a81836107d1565b155b15610cae57816040517fa9fbf51f000000000000000000000000000000000000000000000000000000008152600401610ca5919061108e565b60405180910390fd5b836104da5f8561ffff1661ffff1681526020019081526020015f205f6101000a81548173ffffffffffffffffffffffffffffffffffffffff021916908373ffffffffffffffffffffffffffffffffffffffff1602179055508261ffff168473ffffffffffffffffffffffffffffffffffffffff168273ffffffffffffffffffffffffffffffffffffffff167f0a9d294fd4bd42bb30e96cba2b478d149a783fba3c729b1e5c42bec89d95b85a60405160405180910390a450505050565b5f805f90507a184f03e93ff9f4daa797ed6e38ed64bf6a1f0100000000000000008310610dc7577a184f03e93ff9f4daa797ed6e38ed64bf6a1f0100000000000000008381610dbd57610dbc611937565b5b0492506040810190505b6d04ee2d6d415b85acef81000000008310610e04576d04ee2d6d415b85acef81000000008381610dfa57610df9611937565b5b0492506020810190505b662386f26fc100008310610e3357662386f26fc100008381610e2957610e28611937565b5b0492506010810190505b6305f5e1008310610e5c576305f5e1008381610e5257610e51611937565b5b0492506008810190505b6127108310610e81576127108381610e7757610e76611937565b5b0492506004810190505b60648310610ea45760648381610e9a57610e99611937565b5b0492506002810190505b600a8310610eb3576001810190505b80915050919050565b5f7fffffffffffffffffffffffffffffffffffffffff00000000000000000000000082169050919050565b610ef081610ebc565b82525050565b5f602082019050610f095f830184610ee7565b92915050565b5f604051905090565b5f80fd5b5f80fd5b5f73ffffffffffffffffffffffffffffffffffffffff82169050919050565b5f610f4982610f20565b9050919050565b610f5981610f3f565b8114610f63575f80fd5b50565b5f81359050610f7481610f50565b92915050565b5f61ffff82169050919050565b610f9081610f7a565b8114610f9a575f80fd5b50565b5f81359050610fab81610f87565b92915050565b5f805f60608486031215610fc857610fc7610f18565b5b5f610fd586828701610f66565b9350506020610fe686828701610f66565b9250506040610ff786828701610f9d565b9150509250925092565b5f6020828403121561101657611015610f18565b5b5f61102384828501610f66565b91505092915050565b61103581610f7a565b82525050565b5f60208201905061104e5f83018461102c565b92915050565b5f6020828403121561106957611068610f18565b5b5f61107684828501610f9d565b91505092915050565b61108881610f3f565b82525050565b5f6020820190506110a15f83018461107f565b92915050565b5f7fffffffffffffffffffff0000000000000000000000000000000000000000000082169050919050565b6110db816110a7565b82525050565b5f6020820190506110f45f8301846110d2565b92915050565b5f8115159050919050565b61110e816110fa565b8114611118575f80fd5b50565b5f8135905061112981611105565b92915050565b5f806040838503121561114557611144610f18565b5b5f61115285828601610f66565b92505060206111638582860161111b565b9150509250929050565b5f80fd5b5f80fd5b5f601f19601f8301169050919050565b7f4e487b71000000000000000000000000000000000000000000000000000000005f52604160045260245ffd5b6111bb82611175565b810181811067ffffffffffffffff821117156111da576111d9611185565b5b80604052505050565b5f6111ec610f0f565b90506111f882826111b2565b919050565b5f67ffffffffffffffff82111561121757611216611185565b5b61122082611175565b9050602081019050919050565b828183375f83830152505050565b5f61124d611248846111fd565b6111e3565b90508281526020810184848401111561126957611268611171565b5b61127484828561122d565b509392505050565b5f82601f8301126112905761128f61116d565b5b81356112a084826020860161123b565b91505092915050565b5f805f80608085870312156112c1576112c0610f18565b5b5f6112ce87828801610f66565b94505060206112df87828801610f66565b93505060406112f087828801610f9d565b925050606085013567ffffffffffffffff81111561131157611310610f1c565b5b61131d8782880161127c565b91505092959194509250565b5f80fd5b5f80fd5b5f8083601f8401126113465761134561116d565b5b8235905067ffffffffffffffff81111561136357611362611329565b5b60208301915083600182028301111561137f5761137e61132d565b5b9250929050565b5f805f805f6080868803121561139f5761139e610f18565b5b5f6113ac88828901610f66565b95505060206113bd88828901610f66565b94505060406113ce88828901610f9d565b935050606086013567ffffffffffffffff8111156113ef576113ee610f1c565b5b6113fb88828901611331565b92509250509295509295909350565b5f7fffffffff0000000000000000000000000000000000000000000000000000000082169050919050565b61143e8161140a565b82525050565b5f6020820190506114575f830184611435565b92915050565b5f81519050919050565b5f82825260208201905092915050565b5f5b83811015611494578082015181840152602081019050611479565b5f8484015250505050565b5f6114a98261145d565b6114b38185611467565b93506114c3818560208601611477565b6114cc81611175565b840191505092915050565b5f6020820190508181035f8301526114ef818461149f565b905092915050565b5f806040838503121561150d5761150c610f18565b5b5f61151a85828601610f66565b925050602061152b85828601610f9d565b9150509250929050565b5f806040838503121561154b5761154a610f18565b5b5f61155885828601610f66565b925050602061156985828601610f66565b9150509250929050565b61157c816110fa565b82525050565b5f6020820190506115955f830184611573565b92915050565b5f819050919050565b5f819050919050565b5f6115c76115c26115bd84610f7a565b6115a4565b61159b565b9050919050565b6115d7816115ad565b82525050565b5f6060820190506115f05f83018661107f565b6115fd60208301856115ce565b61160a604083018461107f565b949350505050565b7f54686520696e70757420616464726573732063616e6e6f74206265207a65726f5f82015250565b5f611646602083611467565b915061165182611612565b602082019050919050565b5f6020820190508181035f8301526116738161163a565b9050919050565b7f4e487b71000000000000000000000000000000000000000000000000000000005f52603260045260245ffd5b7f5468652061646472657373206f6620746865206f776e657220616e64207468655f8201527f206f70657261746f72206d75737420626520646966666572656e740000000000602082015250565b5f611701603b83611467565b915061170c826116a7565b604082019050919050565b5f6020820190508181035f83015261172e816116f5565b9050919050565b5f81905092915050565b5f6117498261145d565b6117538185611735565b9350611763818560208601611477565b80840191505092915050565b5f61177a828561173f565b9150611786828461173f565b91508190509392505050565b7f54686520494420656e746572656420697320696e76616c69642e204974206d755f8201527f737420626520696e207468697320696e74657276616c2030203c206964203c3d60208201527f2063757272656e7420746f6b656e730000000000000000000000000000000000604082015250565b5f611812604f83611467565b915061181d82611792565b606082019050919050565b5f6020820190508181035f83015261183f81611806565b9050919050565b5f81519050919050565b5f82825260208201905092915050565b5f61186a82611846565b6118748185611850565b9350611884818560208601611477565b61188d81611175565b840191505092915050565b5f6080820190506118ab5f83018761107f565b6118b8602083018661107f565b6118c5604083018561102c565b81810360608301526118d78184611860565b905095945050505050565b6118eb8161140a565b81146118f5575f80fd5b50565b5f81519050611906816118e2565b92915050565b5f6020828403121561192157611920610f18565b5b5f61192e848285016118f8565b91505092915050565b7f4e487b71000000000000000000000000000000000000000000000000000000005f52601260045260245ffdfea26469706673582212204fa5920854627380dd1ba995d41bcfa20d16680a2fbd3ade2db9287825664e1d64736f6c63430008140033",
					"opcodes": "PUSH1 0x80 PUSH1 0x40 MSTORE CALLVALUE DUP1 ISZERO PUSH3 0x10 JUMPI PUSH0 DUP1 REVERT JUMPDEST POP PUSH1 0x40 MLOAD PUSH3 0x1B32 CODESIZE SUB DUP1 PUSH3 0x1B32 DUP4 CODECOPY DUP2 DUP2 ADD PUSH1 0x40 MSTORE DUP2 ADD SWAP1 PUSH3 0x36 SWAP2 SWAP1 PUSH3 0x145 JUMP JUMPDEST DUP2 PUSH0 DUP1 PUSH2 0x100 EXP DUP2 SLOAD DUP2 PUSH20 0xFFFFFFFFFFFFFFFFFFFFFFFFFFFFFFFFFFFFFFFF MUL NOT AND SWAP1 DUP4 PUSH1 0x60 SHR MUL OR SWAP1 SSTORE POP DUP1 PUSH0 PUSH1 0x14 PUSH2 0x100 EXP DUP2 SLOAD DUP2 PUSH10 0xFFFFFFFFFFFFFFFFFFFF MUL NOT AND SWAP1 DUP4 PUSH1 0xB0 SHR MUL OR SWAP1 SSTORE POP POP POP PUSH3 0x18A JUMP JUMPDEST PUSH0 DUP1 REVERT JUMPDEST PUSH0 PUSH32 0xFFFFFFFFFFFFFFFFFFFFFFFFFFFFFFFFFFFFFFFF000000000000000000000000 DUP3 AND SWAP1 POP SWAP2 SWAP1 POP JUMP JUMPDEST PUSH3 0xC7 DUP2 PUSH3 0x91 JUMP JUMPDEST DUP2 EQ PUSH3 0xD2 JUMPI PUSH0 DUP1 REVERT JUMPDEST POP JUMP JUMPDEST PUSH0 DUP2 MLOAD SWAP1 POP PUSH3 0xE5 DUP2 PUSH3 0xBC JUMP JUMPDEST SWAP3 SWAP2 POP POP JUMP JUMPDEST PUSH0 PUSH32 0xFFFFFFFFFFFFFFFFFFFF00000000000000000000000000000000000000000000 DUP3 AND SWAP1 POP SWAP2 SWAP1 POP JUMP JUMPDEST PUSH3 0x121 DUP2 PUSH3 0xEB JUMP JUMPDEST DUP2 EQ PUSH3 0x12C JUMPI PUSH0 DUP1 REVERT JUMPDEST POP JUMP JUMPDEST PUSH0 DUP2 MLOAD SWAP1 POP PUSH3 0x13F DUP2 PUSH3 0x116 JUMP JUMPDEST SWAP3 SWAP2 POP POP JUMP JUMPDEST PUSH0 DUP1 PUSH1 0x40 DUP4 DUP6 SUB SLT ISZERO PUSH3 0x15E JUMPI PUSH3 0x15D PUSH3 0x8D JUMP JUMPDEST JUMPDEST PUSH0 PUSH3 0x16D DUP6 DUP3 DUP7 ADD PUSH3 0xD5 JUMP JUMPDEST SWAP3 POP POP PUSH1 0x20 PUSH3 0x180 DUP6 DUP3 DUP7 ADD PUSH3 0x12F JUMP JUMPDEST SWAP2 POP POP SWAP3 POP SWAP3 SWAP1 POP JUMP JUMPDEST PUSH2 0x199A DUP1 PUSH3 0x198 PUSH0 CODECOPY PUSH0 RETURN INVALID PUSH1 0x80 PUSH1 0x40 MSTORE CALLVALUE DUP1 ISZERO PUSH2 0xF JUMPI PUSH0 DUP1 REVERT JUMPDEST POP PUSH1 0x4 CALLDATASIZE LT PUSH2 0xCD JUMPI PUSH0 CALLDATALOAD PUSH1 0xE0 SHR DUP1 PUSH4 0x95D89B41 GT PUSH2 0x8A JUMPI DUP1 PUSH4 0xB1CFF380 GT PUSH2 0x64 JUMPI DUP1 PUSH4 0xB1CFF380 EQ PUSH2 0x20D JUMPI DUP1 PUSH4 0xDD7D8440 EQ PUSH2 0x23D JUMPI DUP1 PUSH4 0xE560CA43 EQ PUSH2 0x26D JUMPI DUP1 PUSH4 0xE985E9C5 EQ PUSH2 0x289 JUMPI PUSH2 0xCD JUMP JUMPDEST DUP1 PUSH4 0x95D89B41 EQ PUSH2 0x1B7 JUMPI DUP1 PUSH4 0xA22CB465 EQ PUSH2 0x1D5 JUMPI DUP1 PUSH4 0xB145AE31 EQ PUSH2 0x1F1 JUMPI PUSH2 0xCD JUMP JUMPDEST DUP1 PUSH4 0x6FDDE03 EQ PUSH2 0xD1 JUMPI DUP1 PUSH4 0x7394401 EQ PUSH2 0xEF JUMPI DUP1 PUSH4 0x4EC3DCFE EQ PUSH2 0x10B JUMPI DUP1 PUSH4 0x70A08231 EQ PUSH2 0x127 JUMPI DUP1 PUSH4 0x82A7CF1E EQ PUSH2 0x157 JUMPI DUP1 PUSH4 0x93B871F2 EQ PUSH2 0x187 JUMPI JUMPDEST PUSH0 DUP1 REVERT JUMPDEST PUSH2 0xD9 PUSH2 0x2B9 JUMP JUMPDEST PUSH1 0x40 MLOAD PUSH2 0xE6 SWAP2 SWAP1 PUSH2 0xEF6 JUMP JUMPDEST PUSH1 0x40 MLOAD DUP1 SWAP2 SUB SWAP1 RETURN JUMPDEST PUSH2 0x109 PUSH1 0x4 DUP1 CALLDATASIZE SUB DUP2 ADD SWAP1 PUSH2 0x104 SWAP2 SWAP1 PUSH2 0xFB1 JUMP JUMPDEST PUSH2 0x2CD JUMP JUMPDEST STOP JUMPDEST PUSH2 0x125 PUSH1 0x4 DUP1 CALLDATASIZE SUB DUP2 ADD SWAP1 PUSH2 0x120 SWAP2 SWAP1 PUSH2 0xFB1 JUMP JUMPDEST PUSH2 0x2EC JUMP JUMPDEST STOP JUMPDEST PUSH2 0x141 PUSH1 0x4 DUP1 CALLDATASIZE SUB DUP2 ADD SWAP1 PUSH2 0x13C SWAP2 SWAP1 PUSH2 0x1001 JUMP JUMPDEST PUSH2 0x3EB JUMP JUMPDEST PUSH1 0x40 MLOAD PUSH2 0x14E SWAP2 SWAP1 PUSH2 0x103B JUMP JUMPDEST PUSH1 0x40 MLOAD DUP1 SWAP2 SUB SWAP1 RETURN JUMPDEST PUSH2 0x171 PUSH1 0x4 DUP1 CALLDATASIZE SUB DUP2 ADD SWAP1 PUSH2 0x16C SWAP2 SWAP1 PUSH2 0x1054 JUMP JUMPDEST PUSH2 0x4CC JUMP JUMPDEST PUSH1 0x40 MLOAD PUSH2 0x17E SWAP2 SWAP1 PUSH2 0x108E JUMP JUMPDEST PUSH1 0x40 MLOAD DUP1 SWAP2 SUB SWAP1 RETURN JUMPDEST PUSH2 0x1A1 PUSH1 0x4 DUP1 CALLDATASIZE SUB DUP2 ADD SWAP1 PUSH2 0x19C SWAP2 SWAP1 PUSH2 0x1054 JUMP JUMPDEST PUSH2 0x4DD JUMP JUMPDEST PUSH1 0x40 MLOAD PUSH2 0x1AE SWAP2 SWAP1 PUSH2 0x108E JUMP JUMPDEST PUSH1 0x40 MLOAD DUP1 SWAP2 SUB SWAP1 RETURN JUMPDEST PUSH2 0x1BF PUSH2 0x529 JUMP JUMPDEST PUSH1 0x40 MLOAD PUSH2 0x1CC SWAP2 SWAP1 PUSH2 0x10E1 JUMP JUMPDEST PUSH1 0x40 MLOAD DUP1 SWAP2 SUB SWAP1 RETURN JUMPDEST PUSH2 0x1EF PUSH1 0x4 DUP1 CALLDATASIZE SUB DUP2 ADD SWAP1 PUSH2 0x1EA SWAP2 SWAP1 PUSH2 0x112F JUMP JUMPDEST PUSH2 0x53E JUMP JUMPDEST STOP JUMPDEST PUSH2 0x20B PUSH1 0x4 DUP1 CALLDATASIZE SUB DUP2 ADD SWAP1 PUSH2 0x206 SWAP2 SWAP1 PUSH2 0x12A9 JUMP JUMPDEST PUSH2 0x72A JUMP JUMPDEST STOP JUMPDEST PUSH2 0x227 PUSH1 0x4 DUP1 CALLDATASIZE SUB DUP2 ADD SWAP1 PUSH2 0x222 SWAP2 SWAP1 PUSH2 0x1386 JUMP JUMPDEST PUSH2 0x747 JUMP JUMPDEST PUSH1 0x40 MLOAD PUSH2 0x234 SWAP2 SWAP1 PUSH2 0x1444 JUMP JUMPDEST PUSH1 0x40 MLOAD DUP1 SWAP2 SUB SWAP1 RETURN JUMPDEST PUSH2 0x257 PUSH1 0x4 DUP1 CALLDATASIZE SUB DUP2 ADD SWAP1 PUSH2 0x252 SWAP2 SWAP1 PUSH2 0x1054 JUMP JUMPDEST PUSH2 0x751 JUMP JUMPDEST PUSH1 0x40 MLOAD PUSH2 0x264 SWAP2 SWAP1 PUSH2 0x14D7 JUMP JUMPDEST PUSH1 0x40 MLOAD DUP1 SWAP2 SUB SWAP1 RETURN JUMPDEST PUSH2 0x287 PUSH1 0x4 DUP1 CALLDATASIZE SUB DUP2 ADD SWAP1 PUSH2 0x282 SWAP2 SWAP1 PUSH2 0x14F7 JUMP JUMPDEST PUSH2 0x7BB JUMP JUMPDEST STOP JUMPDEST PUSH2 0x2A3 PUSH1 0x4 DUP1 CALLDATASIZE SUB DUP2 ADD SWAP1 PUSH2 0x29E SWAP2 SWAP1 PUSH2 0x1535 JUMP JUMPDEST PUSH2 0x7D1 JUMP JUMPDEST PUSH1 0x40 MLOAD PUSH2 0x2B0 SWAP2 SWAP1 PUSH2 0x1582 JUMP JUMPDEST PUSH1 0x40 MLOAD DUP1 SWAP2 SUB SWAP1 RETURN JUMPDEST PUSH0 DUP1 PUSH0 SWAP1 SLOAD SWAP1 PUSH2 0x100 EXP SWAP1 DIV PUSH1 0x60 SHL SWAP1 POP SWAP1 JUMP JUMPDEST PUSH2 0x2E7 DUP4 DUP4 DUP4 PUSH1 0x40 MLOAD DUP1 PUSH1 0x20 ADD PUSH1 0x40 MSTORE DUP1 PUSH0 DUP2 MSTORE POP PUSH2 0x72A JUMP JUMPDEST POP POP POP JUMP JUMPDEST PUSH0 PUSH20 0xFFFFFFFFFFFFFFFFFFFFFFFFFFFFFFFFFFFFFFFF AND DUP3 PUSH20 0xFFFFFFFFFFFFFFFFFFFFFFFFFFFFFFFFFFFFFFFF AND SUB PUSH2 0x35C JUMPI PUSH0 PUSH1 0x40 MLOAD PUSH32 0x64A0AE9200000000000000000000000000000000000000000000000000000000 DUP2 MSTORE PUSH1 0x4 ADD PUSH2 0x353 SWAP2 SWAP1 PUSH2 0x108E JUMP JUMPDEST PUSH1 0x40 MLOAD DUP1 SWAP2 SUB SWAP1 REVERT JUMPDEST PUSH0 PUSH2 0x36F DUP4 DUP4 PUSH2 0x36A PUSH2 0x860 JUMP JUMPDEST PUSH2 0x867 JUMP JUMPDEST SWAP1 POP DUP4 PUSH20 0xFFFFFFFFFFFFFFFFFFFFFFFFFFFFFFFFFFFFFFFF AND DUP2 PUSH20 0xFFFFFFFFFFFFFFFFFFFFFFFFFFFFFFFFFFFFFFFF AND EQ PUSH2 0x3E5 JUMPI DUP4 DUP3 DUP3 PUSH1 0x40 MLOAD PUSH32 0x64283D7B00000000000000000000000000000000000000000000000000000000 DUP2 MSTORE PUSH1 0x4 ADD PUSH2 0x3DC SWAP4 SWAP3 SWAP2 SWAP1 PUSH2 0x15DD JUMP JUMPDEST PUSH1 0x40 MLOAD DUP1 SWAP2 SUB SWAP1 REVERT JUMPDEST POP POP POP POP JUMP JUMPDEST PUSH0 DUP1 PUSH20 0xFFFFFFFFFFFFFFFFFFFFFFFFFFFFFFFFFFFFFFFF AND DUP3 PUSH20 0xFFFFFFFFFFFFFFFFFFFFFFFFFFFFFFFFFFFFFFFF AND SUB PUSH2 0x45A JUMPI PUSH1 0x40 MLOAD PUSH32 0x8C379A000000000000000000000000000000000000000000000000000000000 DUP2 MSTORE PUSH1 0x4 ADD PUSH2 0x451 SWAP1 PUSH2 0x165C JUMP JUMPDEST PUSH1 0x40 MLOAD DUP1 SWAP2 SUB SWAP1 REVERT JUMPDEST PUSH2 0x4D9 PUSH0 DUP4 PUSH20 0xFFFFFFFFFFFFFFFFFFFFFFFFFFFFFFFFFFFFFFFF AND PUSH20 0xFFFFFFFFFFFFFFFFFFFFFFFFFFFFFFFFFFFFFFFF AND DUP2 MSTORE PUSH1 0x20 ADD SWAP1 DUP2 MSTORE PUSH1 0x20 ADD PUSH0 KECCAK256 PUSH0 PUSH2 0x4B1 DUP2 LT PUSH2 0x4AB JUMPI PUSH2 0x4AA PUSH2 0x167A JUMP JUMPDEST JUMPDEST PUSH1 0x10 SWAP2 DUP3 DUP3 DIV ADD SWAP2 SWAP1 MOD PUSH1 0x2 MUL SWAP1 SLOAD SWAP1 PUSH2 0x100 EXP SWAP1 DIV PUSH2 0xFFFF AND SWAP1 POP SWAP2 SWAP1 POP JUMP JUMPDEST PUSH0 PUSH2 0x4D6 DUP3 PUSH2 0x86F JUMP JUMPDEST SWAP1 POP SWAP2 SWAP1 POP JUMP JUMPDEST PUSH0 PUSH2 0x4E7 DUP3 PUSH2 0x86F JUMP JUMPDEST POP PUSH2 0x4DA PUSH0 DUP4 PUSH2 0xFFFF AND PUSH2 0xFFFF AND DUP2 MSTORE PUSH1 0x20 ADD SWAP1 DUP2 MSTORE PUSH1 0x20 ADD PUSH0 KECCAK256 PUSH0 SWAP1 SLOAD SWAP1 PUSH2 0x100 EXP SWAP1 DIV PUSH20 0xFFFFFFFFFFFFFFFFFFFFFFFFFFFFFFFFFFFFFFFF AND SWAP1 POP SWAP2 SWAP1 POP JUMP JUMPDEST PUSH0 DUP1 PUSH1 0x14 SWAP1 SLOAD SWAP1 PUSH2 0x100 EXP SWAP1 DIV PUSH1 0xB0 SHL SWAP1 POP SWAP1 JUMP JUMPDEST DUP2 PUSH20 0xFFFFFFFFFFFFFFFFFFFFFFFFFFFFFFFFFFFFFFFF AND PUSH2 0x55D PUSH2 0x860 JUMP JUMPDEST PUSH20 0xFFFFFFFFFFFFFFFFFFFFFFFFFFFFFFFFFFFFFFFF AND SUB PUSH2 0x5B3 JUMPI PUSH1 0x40 MLOAD PUSH32 0x8C379A000000000000000000000000000000000000000000000000000000000 DUP2 MSTORE PUSH1 0x4 ADD PUSH2 0x5AA SWAP1 PUSH2 0x1717 JUMP JUMPDEST PUSH1 0x40 MLOAD DUP1 SWAP2 SUB SWAP1 REVERT JUMPDEST PUSH0 PUSH20 0xFFFFFFFFFFFFFFFFFFFFFFFFFFFFFFFFFFFFFFFF AND DUP3 PUSH20 0xFFFFFFFFFFFFFFFFFFFFFFFFFFFFFFFFFFFFFFFF AND SUB PUSH2 0x623 JUMPI DUP2 PUSH1 0x40 MLOAD PUSH32 0x5B08BA1800000000000000000000000000000000000000000000000000000000 DUP2 MSTORE PUSH1 0x4 ADD PUSH2 0x61A SWAP2 SWAP1 PUSH2 0x108E JUMP JUMPDEST PUSH1 0x40 MLOAD DUP1 SWAP2 SUB SWAP1 REVERT JUMPDEST DUP1 PUSH2 0x4DB PUSH0 PUSH2 0x630 PUSH2 0x860 JUMP JUMPDEST PUSH20 0xFFFFFFFFFFFFFFFFFFFFFFFFFFFFFFFFFFFFFFFF AND PUSH20 0xFFFFFFFFFFFFFFFFFFFFFFFFFFFFFFFFFFFFFFFF AND DUP2 MSTORE PUSH1 0x20 ADD SWAP1 DUP2 MSTORE PUSH1 0x20 ADD PUSH0 KECCAK256 PUSH0 DUP5 PUSH20 0xFFFFFFFFFFFFFFFFFFFFFFFFFFFFFFFFFFFFFFFF AND PUSH20 0xFFFFFFFFFFFFFFFFFFFFFFFFFFFFFFFFFFFFFFFF AND DUP2 MSTORE PUSH1 0x20 ADD SWAP1 DUP2 MSTORE PUSH1 0x20 ADD PUSH0 KECCAK256 PUSH0 PUSH2 0x100 EXP DUP2 SLOAD DUP2 PUSH1 0xFF MUL NOT AND SWAP1 DUP4 ISZERO ISZERO MUL OR SWAP1 SSTORE POP DUP2 PUSH20 0xFFFFFFFFFFFFFFFFFFFFFFFFFFFFFFFFFFFFFFFF AND PUSH2 0x6D9 PUSH2 0x860 JUMP JUMPDEST PUSH20 0xFFFFFFFFFFFFFFFFFFFFFFFFFFFFFFFFFFFFFFFF AND PUSH32 0x17307EAB39AB6107E8899845AD3D59BD9653F200F220920489CA2B5937696C31 DUP4 PUSH1 0x40 MLOAD PUSH2 0x71E SWAP2 SWAP1 PUSH2 0x1582 JUMP JUMPDEST PUSH1 0x40 MLOAD DUP1 SWAP2 SUB SWAP1 LOG3 POP POP JUMP JUMPDEST PUSH2 0x735 DUP5 DUP5 DUP5 PUSH2 0x2EC JUMP JUMPDEST PUSH2 0x741 DUP5 DUP5 DUP5 DUP5 PUSH2 0x91D JUMP JUMPDEST POP POP POP POP JUMP JUMPDEST PUSH0 SWAP6 SWAP5 POP POP POP POP POP JUMP JUMPDEST PUSH1 0x60 PUSH2 0x75C DUP3 PUSH2 0x86F JUMP JUMPDEST POP PUSH0 PUSH2 0x766 PUSH2 0xACF JUMP JUMPDEST SWAP1 POP PUSH0 DUP2 MLOAD GT PUSH2 0x784 JUMPI PUSH1 0x40 MLOAD DUP1 PUSH1 0x20 ADD PUSH1 0x40 MSTORE DUP1 PUSH0 DUP2 MSTORE POP PUSH2 0x7B3 JUMP JUMPDEST DUP1 PUSH2 0x792 DUP5 PUSH2 0xFFFF AND PUSH2 0xAE5 JUMP JUMPDEST PUSH1 0x40 MLOAD PUSH1 0x20 ADD PUSH2 0x7A3 SWAP3 SWAP2 SWAP1 PUSH2 0x176F JUMP JUMPDEST PUSH1 0x40 MLOAD PUSH1 0x20 DUP2 DUP4 SUB SUB DUP2 MSTORE SWAP1 PUSH1 0x40 MSTORE JUMPDEST SWAP2 POP POP SWAP2 SWAP1 POP JUMP JUMPDEST PUSH2 0x7CD DUP3 DUP3 PUSH2 0x7C8 PUSH2 0x860 JUMP JUMPDEST PUSH2 0xBAF JUMP JUMPDEST POP POP JUMP JUMPDEST PUSH0 PUSH2 0x4DB PUSH0 DUP5 PUSH20 0xFFFFFFFFFFFFFFFFFFFFFFFFFFFFFFFFFFFFFFFF AND PUSH20 0xFFFFFFFFFFFFFFFFFFFFFFFFFFFFFFFFFFFFFFFF AND DUP2 MSTORE PUSH1 0x20 ADD SWAP1 DUP2 MSTORE PUSH1 0x20 ADD PUSH0 KECCAK256 PUSH0 DUP4 PUSH20 0xFFFFFFFFFFFFFFFFFFFFFFFFFFFFFFFFFFFFFFFF AND PUSH20 0xFFFFFFFFFFFFFFFFFFFFFFFFFFFFFFFFFFFFFFFF AND DUP2 MSTORE PUSH1 0x20 ADD SWAP1 DUP2 MSTORE PUSH1 0x20 ADD PUSH0 KECCAK256 PUSH0 SWAP1 SLOAD SWAP1 PUSH2 0x100 EXP SWAP1 DIV PUSH1 0xFF AND SWAP1 POP SWAP3 SWAP2 POP POP JUMP JUMPDEST PUSH0 CALLER SWAP1 POP SWAP1 JUMP JUMPDEST PUSH0 SWAP4 SWAP3 POP POP POP JUMP JUMPDEST PUSH0 DUP2 PUSH2 0xFFFF AND PUSH0 LT DUP1 ISZERO PUSH2 0x89D JUMPI POP PUSH1 0x1 PUSH0 ADD PUSH1 0x2 SWAP1 SLOAD SWAP1 PUSH2 0x100 EXP SWAP1 DIV PUSH2 0xFFFF AND PUSH2 0xFFFF AND DUP3 PUSH2 0xFFFF AND GT ISZERO JUMPDEST PUSH2 0x8DC JUMPI PUSH1 0x40 MLOAD PUSH32 0x8C379A000000000000000000000000000000000000000000000000000000000 DUP2 MSTORE PUSH1 0x4 ADD PUSH2 0x8D3 SWAP1 PUSH2 0x1828 JUMP JUMPDEST PUSH1 0x40 MLOAD DUP1 SWAP2 SUB SWAP1 REVERT JUMPDEST PUSH1 0x2 DUP3 PUSH2 0xFFFF AND PUSH2 0x4B1 DUP2 LT PUSH2 0x8F5 JUMPI PUSH2 0x8F4 PUSH2 0x167A JUMP JUMPDEST JUMPDEST ADD PUSH0 SWAP1 SLOAD SWAP1 PUSH2 0x100 EXP SWAP1 DIV PUSH20 0xFFFFFFFFFFFFFFFFFFFFFFFFFFFFFFFFFFFFFFFF AND SWAP1 POP SWAP2 SWAP1 POP JUMP JUMPDEST PUSH0 DUP4 PUSH20 0xFFFFFFFFFFFFFFFFFFFFFFFFFFFFFFFFFFFFFFFF AND EXTCODESIZE GT ISZERO PUSH2 0xAC9 JUMPI DUP3 PUSH20 0xFFFFFFFFFFFFFFFFFFFFFFFFFFFFFFFFFFFFFFFF AND PUSH4 0xB1CFF380 PUSH2 0x960 PUSH2 0x860 JUMP JUMPDEST DUP7 DUP6 DUP6 PUSH1 0x40 MLOAD DUP6 PUSH4 0xFFFFFFFF AND PUSH1 0xE0 SHL DUP2 MSTORE PUSH1 0x4 ADD PUSH2 0x982 SWAP5 SWAP4 SWAP3 SWAP2 SWAP1 PUSH2 0x1898 JUMP JUMPDEST PUSH1 0x20 PUSH1 0x40 MLOAD DUP1 DUP4 SUB DUP2 PUSH0 DUP8 GAS CALL SWAP3 POP POP POP DUP1 ISZERO PUSH2 0x9BD JUMPI POP PUSH1 0x40 MLOAD RETURNDATASIZE PUSH1 0x1F NOT PUSH1 0x1F DUP3 ADD AND DUP3 ADD DUP1 PUSH1 0x40 MSTORE POP DUP2 ADD SWAP1 PUSH2 0x9BA SWAP2 SWAP1 PUSH2 0x190C JUMP JUMPDEST PUSH1 0x1 JUMPDEST PUSH2 0xA3E JUMPI RETURNDATASIZE DUP1 PUSH0 DUP2 EQ PUSH2 0x9EB JUMPI PUSH1 0x40 MLOAD SWAP2 POP PUSH1 0x1F NOT PUSH1 0x3F RETURNDATASIZE ADD AND DUP3 ADD PUSH1 0x40 MSTORE RETURNDATASIZE DUP3 MSTORE RETURNDATASIZE PUSH0 PUSH1 0x20 DUP5 ADD RETURNDATACOPY PUSH2 0x9F0 JUMP JUMPDEST PUSH1 0x60 SWAP2 POP JUMPDEST POP PUSH0 DUP2 MLOAD SUB PUSH2 0xA36 JUMPI DUP4 PUSH1 0x40 MLOAD PUSH32 0x64A0AE9200000000000000000000000000000000000000000000000000000000 DUP2 MSTORE PUSH1 0x4 ADD PUSH2 0xA2D SWAP2 SWAP1 PUSH2 0x108E JUMP JUMPDEST PUSH1 0x40 MLOAD DUP1 SWAP2 SUB SWAP1 REVERT JUMPDEST DUP1 MLOAD DUP2 PUSH1 0x20 ADD REVERT JUMPDEST PUSH4 0xB1CFF380 PUSH1 0xE0 SHL PUSH28 0xFFFFFFFFFFFFFFFFFFFFFFFFFFFFFFFFFFFFFFFFFFFFFFFFFFFFFFFF NOT AND DUP2 PUSH28 0xFFFFFFFFFFFFFFFFFFFFFFFFFFFFFFFFFFFFFFFFFFFFFFFFFFFFFFFF NOT AND EQ PUSH2 0xAC7 JUMPI DUP4 PUSH1 0x40 MLOAD PUSH32 0x64A0AE9200000000000000000000000000000000000000000000000000000000 DUP2 MSTORE PUSH1 0x4 ADD PUSH2 0xABE SWAP2 SWAP1 PUSH2 0x108E JUMP JUMPDEST PUSH1 0x40 MLOAD DUP1 SWAP2 SUB SWAP1 REVERT JUMPDEST POP JUMPDEST POP POP POP POP JUMP JUMPDEST PUSH1 0x60 PUSH1 0x40 MLOAD DUP1 PUSH1 0x20 ADD PUSH1 0x40 MSTORE DUP1 PUSH0 DUP2 MSTORE POP SWAP1 POP SWAP1 JUMP JUMPDEST PUSH1 0x60 PUSH0 PUSH1 0x1 PUSH2 0xAF3 DUP5 PUSH2 0xD6B JUMP JUMPDEST ADD SWAP1 POP PUSH0 DUP2 PUSH8 0xFFFFFFFFFFFFFFFF DUP2 GT ISZERO PUSH2 0xB11 JUMPI PUSH2 0xB10 PUSH2 0x1185 JUMP JUMPDEST JUMPDEST PUSH1 0x40 MLOAD SWAP1 DUP1 DUP3 MSTORE DUP1 PUSH1 0x1F ADD PUSH1 0x1F NOT AND PUSH1 0x20 ADD DUP3 ADD PUSH1 0x40 MSTORE DUP1 ISZERO PUSH2 0xB43 JUMPI DUP2 PUSH1 0x20 ADD PUSH1 0x1 DUP3 MUL DUP1 CALLDATASIZE DUP4 CALLDATACOPY DUP1 DUP3 ADD SWAP2 POP POP SWAP1 POP JUMPDEST POP SWAP1 POP PUSH0 DUP3 PUSH1 0x20 ADD DUP3 ADD SWAP1 POP JUMPDEST PUSH1 0x1 ISZERO PUSH2 0xBA4 JUMPI DUP1 DUP1 PUSH1 0x1 SWAP1 SUB SWAP2 POP POP PUSH32 0x3031323334353637383961626364656600000000000000000000000000000000 PUSH1 0xA DUP7 MOD BYTE DUP2 MSTORE8 PUSH1 0xA DUP6 DUP2 PUSH2 0xB99 JUMPI PUSH2 0xB98 PUSH2 0x1937 JUMP JUMPDEST JUMPDEST DIV SWAP5 POP PUSH0 DUP6 SUB PUSH2 0xB50 JUMPI JUMPDEST DUP2 SWAP4 POP POP POP POP SWAP2 SWAP1 POP JUMP JUMPDEST PUSH0 PUSH2 0xBB9 DUP4 PUSH2 0x86F JUMP JUMPDEST SWAP1 POP DUP4 PUSH20 0xFFFFFFFFFFFFFFFFFFFFFFFFFFFFFFFFFFFFFFFF AND DUP2 PUSH20 0xFFFFFFFFFFFFFFFFFFFFFFFFFFFFFFFFFFFFFFFF AND SUB PUSH2 0xC29 JUMPI PUSH1 0x40 MLOAD PUSH32 0x8C379A000000000000000000000000000000000000000000000000000000000 DUP2 MSTORE PUSH1 0x4 ADD PUSH2 0xC20 SWAP1 PUSH2 0x1717 JUMP JUMPDEST PUSH1 0x40 MLOAD DUP1 SWAP2 SUB SWAP1 REVERT JUMPDEST DUP2 PUSH20 0xFFFFFFFFFFFFFFFFFFFFFFFFFFFFFFFFFFFFFFFF AND DUP2 PUSH20 0xFFFFFFFFFFFFFFFFFFFFFFFFFFFFFFFFFFFFFFFF AND EQ ISZERO DUP1 ISZERO PUSH2 0xC6C JUMPI POP PUSH2 0xC6A DUP2 DUP4 PUSH2 0x7D1 JUMP JUMPDEST ISZERO JUMPDEST ISZERO PUSH2 0xCAE JUMPI DUP2 PUSH1 0x40 MLOAD PUSH32 0xA9FBF51F00000000000000000000000000000000000000000000000000000000 DUP2 MSTORE PUSH1 0x4 ADD PUSH2 0xCA5 SWAP2 SWAP1 PUSH2 0x108E JUMP JUMPDEST PUSH1 0x40 MLOAD DUP1 SWAP2 SUB SWAP1 REVERT JUMPDEST DUP4 PUSH2 0x4DA PUSH0 DUP6 PUSH2 0xFFFF AND PUSH2 0xFFFF AND DUP2 MSTORE PUSH1 0x20 ADD SWAP1 DUP2 MSTORE PUSH1 0x20 ADD PUSH0 KECCAK256 PUSH0 PUSH2 0x100 EXP DUP2 SLOAD DUP2 PUSH20 0xFFFFFFFFFFFFFFFFFFFFFFFFFFFFFFFFFFFFFFFF MUL NOT AND SWAP1 DUP4 PUSH20 0xFFFFFFFFFFFFFFFFFFFFFFFFFFFFFFFFFFFFFFFF AND MUL OR SWAP1 SSTORE POP DUP3 PUSH2 0xFFFF AND DUP5 PUSH20 0xFFFFFFFFFFFFFFFFFFFFFFFFFFFFFFFFFFFFFFFF AND DUP3 PUSH20 0xFFFFFFFFFFFFFFFFFFFFFFFFFFFFFFFFFFFFFFFF AND PUSH32 0xA9D294FD4BD42BB30E96CBA2B478D149A783FBA3C729B1E5C42BEC89D95B85A PUSH1 0x40 MLOAD PUSH1 0x40 MLOAD DUP1 SWAP2 SUB SWAP1 LOG4 POP POP POP POP JUMP JUMPDEST PUSH0 DUP1 PUSH0 SWAP1 POP PUSH27 0x184F03E93FF9F4DAA797ED6E38ED64BF6A1F010000000000000000 DUP4 LT PUSH2 0xDC7 JUMPI PUSH27 0x184F03E93FF9F4DAA797ED6E38ED64BF6A1F010000000000000000 DUP4 DUP2 PUSH2 0xDBD JUMPI PUSH2 0xDBC PUSH2 0x1937 JUMP JUMPDEST JUMPDEST DIV SWAP3 POP PUSH1 0x40 DUP2 ADD SWAP1 POP JUMPDEST PUSH14 0x4EE2D6D415B85ACEF8100000000 DUP4 LT PUSH2 0xE04 JUMPI PUSH14 0x4EE2D6D415B85ACEF8100000000 DUP4 DUP2 PUSH2 0xDFA JUMPI PUSH2 0xDF9 PUSH2 0x1937 JUMP JUMPDEST JUMPDEST DIV SWAP3 POP PUSH1 0x20 DUP2 ADD SWAP1 POP JUMPDEST PUSH7 0x2386F26FC10000 DUP4 LT PUSH2 0xE33 JUMPI PUSH7 0x2386F26FC10000 DUP4 DUP2 PUSH2 0xE29 JUMPI PUSH2 0xE28 PUSH2 0x1937 JUMP JUMPDEST JUMPDEST DIV SWAP3 POP PUSH1 0x10 DUP2 ADD SWAP1 POP JUMPDEST PUSH4 0x5F5E100 DUP4 LT PUSH2 0xE5C JUMPI PUSH4 0x5F5E100 DUP4 DUP2 PUSH2 0xE52 JUMPI PUSH2 0xE51 PUSH2 0x1937 JUMP JUMPDEST JUMPDEST DIV SWAP3 POP PUSH1 0x8 DUP2 ADD SWAP1 POP JUMPDEST PUSH2 0x2710 DUP4 LT PUSH2 0xE81 JUMPI PUSH2 0x2710 DUP4 DUP2 PUSH2 0xE77 JUMPI PUSH2 0xE76 PUSH2 0x1937 JUMP JUMPDEST JUMPDEST DIV SWAP3 POP PUSH1 0x4 DUP2 ADD SWAP1 POP JUMPDEST PUSH1 0x64 DUP4 LT PUSH2 0xEA4 JUMPI PUSH1 0x64 DUP4 DUP2 PUSH2 0xE9A JUMPI PUSH2 0xE99 PUSH2 0x1937 JUMP JUMPDEST JUMPDEST DIV SWAP3 POP PUSH1 0x2 DUP2 ADD SWAP1 POP JUMPDEST PUSH1 0xA DUP4 LT PUSH2 0xEB3 JUMPI PUSH1 0x1 DUP2 ADD SWAP1 POP JUMPDEST DUP1 SWAP2 POP POP SWAP2 SWAP1 POP JUMP JUMPDEST PUSH0 PUSH32 0xFFFFFFFFFFFFFFFFFFFFFFFFFFFFFFFFFFFFFFFF000000000000000000000000 DUP3 AND SWAP1 POP SWAP2 SWAP1 POP JUMP JUMPDEST PUSH2 0xEF0 DUP2 PUSH2 0xEBC JUMP JUMPDEST DUP3 MSTORE POP POP JUMP JUMPDEST PUSH0 PUSH1 0x20 DUP3 ADD SWAP1 POP PUSH2 0xF09 PUSH0 DUP4 ADD DUP5 PUSH2 0xEE7 JUMP JUMPDEST SWAP3 SWAP2 POP POP JUMP JUMPDEST PUSH0 PUSH1 0x40 MLOAD SWAP1 POP SWAP1 JUMP JUMPDEST PUSH0 DUP1 REVERT JUMPDEST PUSH0 DUP1 REVERT JUMPDEST PUSH0 PUSH20 0xFFFFFFFFFFFFFFFFFFFFFFFFFFFFFFFFFFFFFFFF DUP3 AND SWAP1 POP SWAP2 SWAP1 POP JUMP JUMPDEST PUSH0 PUSH2 0xF49 DUP3 PUSH2 0xF20 JUMP JUMPDEST SWAP1 POP SWAP2 SWAP1 POP JUMP JUMPDEST PUSH2 0xF59 DUP2 PUSH2 0xF3F JUMP JUMPDEST DUP2 EQ PUSH2 0xF63 JUMPI PUSH0 DUP1 REVERT JUMPDEST POP JUMP JUMPDEST PUSH0 DUP2 CALLDATALOAD SWAP1 POP PUSH2 0xF74 DUP2 PUSH2 0xF50 JUMP JUMPDEST SWAP3 SWAP2 POP POP JUMP JUMPDEST PUSH0 PUSH2 0xFFFF DUP3 AND SWAP1 POP SWAP2 SWAP1 POP JUMP JUMPDEST PUSH2 0xF90 DUP2 PUSH2 0xF7A JUMP JUMPDEST DUP2 EQ PUSH2 0xF9A JUMPI PUSH0 DUP1 REVERT JUMPDEST POP JUMP JUMPDEST PUSH0 DUP2 CALLDATALOAD SWAP1 POP PUSH2 0xFAB DUP2 PUSH2 0xF87 JUMP JUMPDEST SWAP3 SWAP2 POP POP JUMP JUMPDEST PUSH0 DUP1 PUSH0 PUSH1 0x60 DUP5 DUP7 SUB SLT ISZERO PUSH2 0xFC8 JUMPI PUSH2 0xFC7 PUSH2 0xF18 JUMP JUMPDEST JUMPDEST PUSH0 PUSH2 0xFD5 DUP7 DUP3 DUP8 ADD PUSH2 0xF66 JUMP JUMPDEST SWAP4 POP POP PUSH1 0x20 PUSH2 0xFE6 DUP7 DUP3 DUP8 ADD PUSH2 0xF66 JUMP JUMPDEST SWAP3 POP POP PUSH1 0x40 PUSH2 0xFF7 DUP7 DUP3 DUP8 ADD PUSH2 0xF9D JUMP JUMPDEST SWAP2 POP POP SWAP3 POP SWAP3 POP SWAP3 JUMP JUMPDEST PUSH0 PUSH1 0x20 DUP3 DUP5 SUB SLT ISZERO PUSH2 0x1016 JUMPI PUSH2 0x1015 PUSH2 0xF18 JUMP JUMPDEST JUMPDEST PUSH0 PUSH2 0x1023 DUP5 DUP3 DUP6 ADD PUSH2 0xF66 JUMP JUMPDEST SWAP2 POP POP SWAP3 SWAP2 POP POP JUMP JUMPDEST PUSH2 0x1035 DUP2 PUSH2 0xF7A JUMP JUMPDEST DUP3 MSTORE POP POP JUMP JUMPDEST PUSH0 PUSH1 0x20 DUP3 ADD SWAP1 POP PUSH2 0x104E PUSH0 DUP4 ADD DUP5 PUSH2 0x102C JUMP JUMPDEST SWAP3 SWAP2 POP POP JUMP JUMPDEST PUSH0 PUSH1 0x20 DUP3 DUP5 SUB SLT ISZERO PUSH2 0x1069 JUMPI PUSH2 0x1068 PUSH2 0xF18 JUMP JUMPDEST JUMPDEST PUSH0 PUSH2 0x1076 DUP5 DUP3 DUP6 ADD PUSH2 0xF9D JUMP JUMPDEST SWAP2 POP POP SWAP3 SWAP2 POP POP JUMP JUMPDEST PUSH2 0x1088 DUP2 PUSH2 0xF3F JUMP JUMPDEST DUP3 MSTORE POP POP JUMP JUMPDEST PUSH0 PUSH1 0x20 DUP3 ADD SWAP1 POP PUSH2 0x10A1 PUSH0 DUP4 ADD DUP5 PUSH2 0x107F JUMP JUMPDEST SWAP3 SWAP2 POP POP JUMP JUMPDEST PUSH0 PUSH32 0xFFFFFFFFFFFFFFFFFFFF00000000000000000000000000000000000000000000 DUP3 AND SWAP1 POP SWAP2 SWAP1 POP JUMP JUMPDEST PUSH2 0x10DB DUP2 PUSH2 0x10A7 JUMP JUMPDEST DUP3 MSTORE POP POP JUMP JUMPDEST PUSH0 PUSH1 0x20 DUP3 ADD SWAP1 POP PUSH2 0x10F4 PUSH0 DUP4 ADD DUP5 PUSH2 0x10D2 JUMP JUMPDEST SWAP3 SWAP2 POP POP JUMP JUMPDEST PUSH0 DUP2 ISZERO ISZERO SWAP1 POP SWAP2 SWAP1 POP JUMP JUMPDEST PUSH2 0x110E DUP2 PUSH2 0x10FA JUMP JUMPDEST DUP2 EQ PUSH2 0x1118 JUMPI PUSH0 DUP1 REVERT JUMPDEST POP JUMP JUMPDEST PUSH0 DUP2 CALLDATALOAD SWAP1 POP PUSH2 0x1129 DUP2 PUSH2 0x1105 JUMP JUMPDEST SWAP3 SWAP2 POP POP JUMP JUMPDEST PUSH0 DUP1 PUSH1 0x40 DUP4 DUP6 SUB SLT ISZERO PUSH2 0x1145 JUMPI PUSH2 0x1144 PUSH2 0xF18 JUMP JUMPDEST JUMPDEST PUSH0 PUSH2 0x1152 DUP6 DUP3 DUP7 ADD PUSH2 0xF66 JUMP JUMPDEST SWAP3 POP POP PUSH1 0x20 PUSH2 0x1163 DUP6 DUP3 DUP7 ADD PUSH2 0x111B JUMP JUMPDEST SWAP2 POP POP SWAP3 POP SWAP3 SWAP1 POP JUMP JUMPDEST PUSH0 DUP1 REVERT JUMPDEST PUSH0 DUP1 REVERT JUMPDEST PUSH0 PUSH1 0x1F NOT PUSH1 0x1F DUP4 ADD AND SWAP1 POP SWAP2 SWAP1 POP JUMP JUMPDEST PUSH32 0x4E487B7100000000000000000000000000000000000000000000000000000000 PUSH0 MSTORE PUSH1 0x41 PUSH1 0x4 MSTORE PUSH1 0x24 PUSH0 REVERT JUMPDEST PUSH2 0x11BB DUP3 PUSH2 0x1175 JUMP JUMPDEST DUP2 ADD DUP2 DUP2 LT PUSH8 0xFFFFFFFFFFFFFFFF DUP3 GT OR ISZERO PUSH2 0x11DA JUMPI PUSH2 0x11D9 PUSH2 0x1185 JUMP JUMPDEST JUMPDEST DUP1 PUSH1 0x40 MSTORE POP POP POP JUMP JUMPDEST PUSH0 PUSH2 0x11EC PUSH2 0xF0F JUMP JUMPDEST SWAP1 POP PUSH2 0x11F8 DUP3 DUP3 PUSH2 0x11B2 JUMP JUMPDEST SWAP2 SWAP1 POP JUMP JUMPDEST PUSH0 PUSH8 0xFFFFFFFFFFFFFFFF DUP3 GT ISZERO PUSH2 0x1217 JUMPI PUSH2 0x1216 PUSH2 0x1185 JUMP JUMPDEST JUMPDEST PUSH2 0x1220 DUP3 PUSH2 0x1175 JUMP JUMPDEST SWAP1 POP PUSH1 0x20 DUP2 ADD SWAP1 POP SWAP2 SWAP1 POP JUMP JUMPDEST DUP3 DUP2 DUP4 CALLDATACOPY PUSH0 DUP4 DUP4 ADD MSTORE POP POP POP JUMP JUMPDEST PUSH0 PUSH2 0x124D PUSH2 0x1248 DUP5 PUSH2 0x11FD JUMP JUMPDEST PUSH2 0x11E3 JUMP JUMPDEST SWAP1 POP DUP3 DUP2 MSTORE PUSH1 0x20 DUP2 ADD DUP5 DUP5 DUP5 ADD GT ISZERO PUSH2 0x1269 JUMPI PUSH2 0x1268 PUSH2 0x1171 JUMP JUMPDEST JUMPDEST PUSH2 0x1274 DUP5 DUP3 DUP6 PUSH2 0x122D JUMP JUMPDEST POP SWAP4 SWAP3 POP POP POP JUMP JUMPDEST PUSH0 DUP3 PUSH1 0x1F DUP4 ADD SLT PUSH2 0x1290 JUMPI PUSH2 0x128F PUSH2 0x116D JUMP JUMPDEST JUMPDEST DUP2 CALLDATALOAD PUSH2 0x12A0 DUP5 DUP3 PUSH1 0x20 DUP7 ADD PUSH2 0x123B JUMP JUMPDEST SWAP2 POP POP SWAP3 SWAP2 POP POP JUMP JUMPDEST PUSH0 DUP1 PUSH0 DUP1 PUSH1 0x80 DUP6 DUP8 SUB SLT ISZERO PUSH2 0x12C1 JUMPI PUSH2 0x12C0 PUSH2 0xF18 JUMP JUMPDEST JUMPDEST PUSH0 PUSH2 0x12CE DUP8 DUP3 DUP9 ADD PUSH2 0xF66 JUMP JUMPDEST SWAP5 POP POP PUSH1 0x20 PUSH2 0x12DF DUP8 DUP3 DUP9 ADD PUSH2 0xF66 JUMP JUMPDEST SWAP4 POP POP PUSH1 0x40 PUSH2 0x12F0 DUP8 DUP3 DUP9 ADD PUSH2 0xF9D JUMP JUMPDEST SWAP3 POP POP PUSH1 0x60 DUP6 ADD CALLDATALOAD PUSH8 0xFFFFFFFFFFFFFFFF DUP2 GT ISZERO PUSH2 0x1311 JUMPI PUSH2 0x1310 PUSH2 0xF1C JUMP JUMPDEST JUMPDEST PUSH2 0x131D DUP8 DUP3 DUP9 ADD PUSH2 0x127C JUMP JUMPDEST SWAP2 POP POP SWAP3 SWAP6 SWAP2 SWAP5 POP SWAP3 POP JUMP JUMPDEST PUSH0 DUP1 REVERT JUMPDEST PUSH0 DUP1 REVERT JUMPDEST PUSH0 DUP1 DUP4 PUSH1 0x1F DUP5 ADD SLT PUSH2 0x1346 JUMPI PUSH2 0x1345 PUSH2 0x116D JUMP JUMPDEST JUMPDEST DUP3 CALLDATALOAD SWAP1 POP PUSH8 0xFFFFFFFFFFFFFFFF DUP2 GT ISZERO PUSH2 0x1363 JUMPI PUSH2 0x1362 PUSH2 0x1329 JUMP JUMPDEST JUMPDEST PUSH1 0x20 DUP4 ADD SWAP2 POP DUP4 PUSH1 0x1 DUP3 MUL DUP4 ADD GT ISZERO PUSH2 0x137F JUMPI PUSH2 0x137E PUSH2 0x132D JUMP JUMPDEST JUMPDEST SWAP3 POP SWAP3 SWAP1 POP JUMP JUMPDEST PUSH0 DUP1 PUSH0 DUP1 PUSH0 PUSH1 0x80 DUP7 DUP9 SUB SLT ISZERO PUSH2 0x139F JUMPI PUSH2 0x139E PUSH2 0xF18 JUMP JUMPDEST JUMPDEST PUSH0 PUSH2 0x13AC DUP9 DUP3 DUP10 ADD PUSH2 0xF66 JUMP JUMPDEST SWAP6 POP POP PUSH1 0x20 PUSH2 0x13BD DUP9 DUP3 DUP10 ADD PUSH2 0xF66 JUMP JUMPDEST SWAP5 POP POP PUSH1 0x40 PUSH2 0x13CE DUP9 DUP3 DUP10 ADD PUSH2 0xF9D JUMP JUMPDEST SWAP4 POP POP PUSH1 0x60 DUP7 ADD CALLDATALOAD PUSH8 0xFFFFFFFFFFFFFFFF DUP2 GT ISZERO PUSH2 0x13EF JUMPI PUSH2 0x13EE PUSH2 0xF1C JUMP JUMPDEST JUMPDEST PUSH2 0x13FB DUP9 DUP3 DUP10 ADD PUSH2 0x1331 JUMP JUMPDEST SWAP3 POP SWAP3 POP POP SWAP3 SWAP6 POP SWAP3 SWAP6 SWAP1 SWAP4 POP JUMP JUMPDEST PUSH0 PUSH32 0xFFFFFFFF00000000000000000000000000000000000000000000000000000000 DUP3 AND SWAP1 POP SWAP2 SWAP1 POP JUMP JUMPDEST PUSH2 0x143E DUP2 PUSH2 0x140A JUMP JUMPDEST DUP3 MSTORE POP POP JUMP JUMPDEST PUSH0 PUSH1 0x20 DUP3 ADD SWAP1 POP PUSH2 0x1457 PUSH0 DUP4 ADD DUP5 PUSH2 0x1435 JUMP JUMPDEST SWAP3 SWAP2 POP POP JUMP JUMPDEST PUSH0 DUP2 MLOAD SWAP1 POP SWAP2 SWAP1 POP JUMP JUMPDEST PUSH0 DUP3 DUP3 MSTORE PUSH1 0x20 DUP3 ADD SWAP1 POP SWAP3 SWAP2 POP POP JUMP JUMPDEST PUSH0 JUMPDEST DUP4 DUP2 LT ISZERO PUSH2 0x1494 JUMPI DUP1 DUP3 ADD MLOAD DUP2 DUP5 ADD MSTORE PUSH1 0x20 DUP2 ADD SWAP1 POP PUSH2 0x1479 JUMP JUMPDEST PUSH0 DUP5 DUP5 ADD MSTORE POP POP POP POP JUMP JUMPDEST PUSH0 PUSH2 0x14A9 DUP3 PUSH2 0x145D JUMP JUMPDEST PUSH2 0x14B3 DUP2 DUP6 PUSH2 0x1467 JUMP JUMPDEST SWAP4 POP PUSH2 0x14C3 DUP2 DUP6 PUSH1 0x20 DUP7 ADD PUSH2 0x1477 JUMP JUMPDEST PUSH2 0x14CC DUP2 PUSH2 0x1175 JUMP JUMPDEST DUP5 ADD SWAP2 POP POP SWAP3 SWAP2 POP POP JUMP JUMPDEST PUSH0 PUSH1 0x20 DUP3 ADD SWAP1 POP DUP2 DUP2 SUB PUSH0 DUP4 ADD MSTORE PUSH2 0x14EF DUP2 DUP5 PUSH2 0x149F JUMP JUMPDEST SWAP1 POP SWAP3 SWAP2 POP POP JUMP JUMPDEST PUSH0 DUP1 PUSH1 0x40 DUP4 DUP6 SUB SLT ISZERO PUSH2 0x150D JUMPI PUSH2 0x150C PUSH2 0xF18 JUMP JUMPDEST JUMPDEST PUSH0 PUSH2 0x151A DUP6 DUP3 DUP7 ADD PUSH2 0xF66 JUMP JUMPDEST SWAP3 POP POP PUSH1 0x20 PUSH2 0x152B DUP6 DUP3 DUP7 ADD PUSH2 0xF9D JUMP JUMPDEST SWAP2 POP POP SWAP3 POP SWAP3 SWAP1 POP JUMP JUMPDEST PUSH0 DUP1 PUSH1 0x40 DUP4 DUP6 SUB SLT ISZERO PUSH2 0x154B JUMPI PUSH2 0x154A PUSH2 0xF18 JUMP JUMPDEST JUMPDEST PUSH0 PUSH2 0x1558 DUP6 DUP3 DUP7 ADD PUSH2 0xF66 JUMP JUMPDEST SWAP3 POP POP PUSH1 0x20 PUSH2 0x1569 DUP6 DUP3 DUP7 ADD PUSH2 0xF66 JUMP JUMPDEST SWAP2 POP POP SWAP3 POP SWAP3 SWAP1 POP JUMP JUMPDEST PUSH2 0x157C DUP2 PUSH2 0x10FA JUMP JUMPDEST DUP3 MSTORE POP POP JUMP JUMPDEST PUSH0 PUSH1 0x20 DUP3 ADD SWAP1 POP PUSH2 0x1595 PUSH0 DUP4 ADD DUP5 PUSH2 0x1573 JUMP JUMPDEST SWAP3 SWAP2 POP POP JUMP JUMPDEST PUSH0 DUP2 SWAP1 POP SWAP2 SWAP1 POP JUMP JUMPDEST PUSH0 DUP2 SWAP1 POP SWAP2 SWAP1 POP JUMP JUMPDEST PUSH0 PUSH2 0x15C7 PUSH2 0x15C2 PUSH2 0x15BD DUP5 PUSH2 0xF7A JUMP JUMPDEST PUSH2 0x15A4 JUMP JUMPDEST PUSH2 0x159B JUMP JUMPDEST SWAP1 POP SWAP2 SWAP1 POP JUMP JUMPDEST PUSH2 0x15D7 DUP2 PUSH2 0x15AD JUMP JUMPDEST DUP3 MSTORE POP POP JUMP JUMPDEST PUSH0 PUSH1 0x60 DUP3 ADD SWAP1 POP PUSH2 0x15F0 PUSH0 DUP4 ADD DUP7 PUSH2 0x107F JUMP JUMPDEST PUSH2 0x15FD PUSH1 0x20 DUP4 ADD DUP6 PUSH2 0x15CE JUMP JUMPDEST PUSH2 0x160A PUSH1 0x40 DUP4 ADD DUP5 PUSH2 0x107F JUMP JUMPDEST SWAP5 SWAP4 POP POP POP POP JUMP JUMPDEST PUSH32 0x54686520696E70757420616464726573732063616E6E6F74206265207A65726F PUSH0 DUP3 ADD MSTORE POP JUMP JUMPDEST PUSH0 PUSH2 0x1646 PUSH1 0x20 DUP4 PUSH2 0x1467 JUMP JUMPDEST SWAP2 POP PUSH2 0x1651 DUP3 PUSH2 0x1612 JUMP JUMPDEST PUSH1 0x20 DUP3 ADD SWAP1 POP SWAP2 SWAP1 POP JUMP JUMPDEST PUSH0 PUSH1 0x20 DUP3 ADD SWAP1 POP DUP2 DUP2 SUB PUSH0 DUP4 ADD MSTORE PUSH2 0x1673 DUP2 PUSH2 0x163A JUMP JUMPDEST SWAP1 POP SWAP2 SWAP1 POP JUMP JUMPDEST PUSH32 0x4E487B7100000000000000000000000000000000000000000000000000000000 PUSH0 MSTORE PUSH1 0x32 PUSH1 0x4 MSTORE PUSH1 0x24 PUSH0 REVERT JUMPDEST PUSH32 0x5468652061646472657373206F6620746865206F776E657220616E6420746865 PUSH0 DUP3 ADD MSTORE PUSH32 0x206F70657261746F72206D75737420626520646966666572656E740000000000 PUSH1 0x20 DUP3 ADD MSTORE POP JUMP JUMPDEST PUSH0 PUSH2 0x1701 PUSH1 0x3B DUP4 PUSH2 0x1467 JUMP JUMPDEST SWAP2 POP PUSH2 0x170C DUP3 PUSH2 0x16A7 JUMP JUMPDEST PUSH1 0x40 DUP3 ADD SWAP1 POP SWAP2 SWAP1 POP JUMP JUMPDEST PUSH0 PUSH1 0x20 DUP3 ADD SWAP1 POP DUP2 DUP2 SUB PUSH0 DUP4 ADD MSTORE PUSH2 0x172E DUP2 PUSH2 0x16F5 JUMP JUMPDEST SWAP1 POP SWAP2 SWAP1 POP JUMP JUMPDEST PUSH0 DUP2 SWAP1 POP SWAP3 SWAP2 POP POP JUMP JUMPDEST PUSH0 PUSH2 0x1749 DUP3 PUSH2 0x145D JUMP JUMPDEST PUSH2 0x1753 DUP2 DUP6 PUSH2 0x1735 JUMP JUMPDEST SWAP4 POP PUSH2 0x1763 DUP2 DUP6 PUSH1 0x20 DUP7 ADD PUSH2 0x1477 JUMP JUMPDEST DUP1 DUP5 ADD SWAP2 POP POP SWAP3 SWAP2 POP POP JUMP JUMPDEST PUSH0 PUSH2 0x177A DUP3 DUP6 PUSH2 0x173F JUMP JUMPDEST SWAP2 POP PUSH2 0x1786 DUP3 DUP5 PUSH2 0x173F JUMP JUMPDEST SWAP2 POP DUP2 SWAP1 POP SWAP4 SWAP3 POP POP POP JUMP JUMPDEST PUSH32 0x54686520494420656E746572656420697320696E76616C69642E204974206D75 PUSH0 DUP3 ADD MSTORE PUSH32 0x737420626520696E207468697320696E74657276616C2030203C206964203C3D PUSH1 0x20 DUP3 ADD MSTORE PUSH32 0x2063757272656E7420746F6B656E730000000000000000000000000000000000 PUSH1 0x40 DUP3 ADD MSTORE POP JUMP JUMPDEST PUSH0 PUSH2 0x1812 PUSH1 0x4F DUP4 PUSH2 0x1467 JUMP JUMPDEST SWAP2 POP PUSH2 0x181D DUP3 PUSH2 0x1792 JUMP JUMPDEST PUSH1 0x60 DUP3 ADD SWAP1 POP SWAP2 SWAP1 POP JUMP JUMPDEST PUSH0 PUSH1 0x20 DUP3 ADD SWAP1 POP DUP2 DUP2 SUB PUSH0 DUP4 ADD MSTORE PUSH2 0x183F DUP2 PUSH2 0x1806 JUMP JUMPDEST SWAP1 POP SWAP2 SWAP1 POP JUMP JUMPDEST PUSH0 DUP2 MLOAD SWAP1 POP SWAP2 SWAP1 POP JUMP JUMPDEST PUSH0 DUP3 DUP3 MSTORE PUSH1 0x20 DUP3 ADD SWAP1 POP SWAP3 SWAP2 POP POP JUMP JUMPDEST PUSH0 PUSH2 0x186A DUP3 PUSH2 0x1846 JUMP JUMPDEST PUSH2 0x1874 DUP2 DUP6 PUSH2 0x1850 JUMP JUMPDEST SWAP4 POP PUSH2 0x1884 DUP2 DUP6 PUSH1 0x20 DUP7 ADD PUSH2 0x1477 JUMP JUMPDEST PUSH2 0x188D DUP2 PUSH2 0x1175 JUMP JUMPDEST DUP5 ADD SWAP2 POP POP SWAP3 SWAP2 POP POP JUMP JUMPDEST PUSH0 PUSH1 0x80 DUP3 ADD SWAP1 POP PUSH2 0x18AB PUSH0 DUP4 ADD DUP8 PUSH2 0x107F JUMP JUMPDEST PUSH2 0x18B8 PUSH1 0x20 DUP4 ADD DUP7 PUSH2 0x107F JUMP JUMPDEST PUSH2 0x18C5 PUSH1 0x40 DUP4 ADD DUP6 PUSH2 0x102C JUMP JUMPDEST DUP2 DUP2 SUB PUSH1 0x60 DUP4 ADD MSTORE PUSH2 0x18D7 DUP2 DUP5 PUSH2 0x1860 JUMP JUMPDEST SWAP1 POP SWAP6 SWAP5 POP POP POP POP POP JUMP JUMPDEST PUSH2 0x18EB DUP2 PUSH2 0x140A JUMP JUMPDEST DUP2 EQ PUSH2 0x18F5 JUMPI PUSH0 DUP1 REVERT JUMPDEST POP JUMP JUMPDEST PUSH0 DUP2 MLOAD SWAP1 POP PUSH2 0x1906 DUP2 PUSH2 0x18E2 JUMP JUMPDEST SWAP3 SWAP2 POP POP JUMP JUMPDEST PUSH0 PUSH1 0x20 DUP3 DUP5 SUB SLT ISZERO PUSH2 0x1921 JUMPI PUSH2 0x1920 PUSH2 0xF18 JUMP JUMPDEST JUMPDEST PUSH0 PUSH2 0x192E DUP5 DUP3 DUP6 ADD PUSH2 0x18F8 JUMP JUMPDEST SWAP2 POP POP SWAP3 SWAP2 POP POP JUMP JUMPDEST PUSH32 0x4E487B7100000000000000000000000000000000000000000000000000000000 PUSH0 MSTORE PUSH1 0x12 PUSH1 0x4 MSTORE PUSH1 0x24 PUSH0 REVERT INVALID LOG2 PUSH5 0x6970667358 0x22 SLT KECCAK256 0x4F 0xA5 SWAP3 ADDMOD SLOAD PUSH3 0x7380DD SHL 0xA9 SWAP6 0xD4 SHL 0xCF LOG2 0xD AND PUSH9 0xA2FBD3ADE2DB92878 0x25 PUSH7 0x4E1D64736F6C63 NUMBER STOP ADDMOD EQ STOP CALLER "
				},
				"gasEstimates": {
					"creation": {
						"codeDepositCost": "1310800",
						"executionCost": "infinite",
						"totalCost": "infinite"
					},
					"external": {
						"approve(address,uint16)": "infinite",
						"balanceOf(address)": "3034",
						"getApproved(uint16)": "7463",
						"isApprovedForAll(address,address)": "infinite",
						"name()": "2474",
						"onERC721Received(address,address,uint16,bytes)": "infinite",
						"ownerOf(uint16)": "5213",
						"safeTransferFrom(address,address,uint16)": "infinite",
						"safeTransferFrom(address,address,uint16,bytes)": "infinite",
						"setApprovalForAll(address,bool)": "infinite",
						"symbol()": "2547",
						"tokenURI(uint16)": "5541",
						"transferFrom(address,address,uint16)": "infinite"
					},
					"internal": {
						"_aprove(address,uint16,address)": "infinite",
						"_baseURI()": "infinite",
						"_checkOnERC721Received(address,address,uint16,bytes memory)": "infinite",
						"_requireOwned(uint16)": "infinite",
						"_update(address,uint16,address)": "23"
					}
				},
				"methodIdentifiers": {
					"approve(address,uint16)": "e560ca43",
					"balanceOf(address)": "70a08231",
					"getApproved(uint16)": "93b871f2",
					"isApprovedForAll(address,address)": "e985e9c5",
					"name()": "06fdde03",
					"onERC721Received(address,address,uint16,bytes)": "b1cff380",
					"ownerOf(uint16)": "82a7cf1e",
					"safeTransferFrom(address,address,uint16)": "07394401",
					"safeTransferFrom(address,address,uint16,bytes)": "b145ae31",
					"setApprovalForAll(address,bool)": "a22cb465",
					"symbol()": "95d89b41",
					"tokenURI(uint16)": "dd7d8440",
					"transferFrom(address,address,uint16)": "4ec3dcfe"
				}
			},
			"storageLayout": {
				"storage": [
					{
						"astId": 1880,
						"contract": "contracts/ERC721TokenContractName.sol:ERC721TokenContractName",
						"label": "_name",
						"offset": 0,
						"slot": "0",
						"type": "t_bytes20"
					},
					{
						"astId": 1882,
						"contract": "contracts/ERC721TokenContractName.sol:ERC721TokenContractName",
						"label": "_symbol",
						"offset": 20,
						"slot": "0",
						"type": "t_bytes10"
					},
					{
						"astId": 1890,
						"contract": "contracts/ERC721TokenContractName.sol:ERC721TokenContractName",
						"label": "mintInfo",
						"offset": 0,
						"slot": "1",
						"type": "t_struct(MintInfo)1887_storage"
					},
					{
						"astId": 1894,
						"contract": "contracts/ERC721TokenContractName.sol:ERC721TokenContractName",
						"label": "_owners",
						"offset": 0,
						"slot": "2",
						"type": "t_array(t_address)1201_storage"
					},
					{
						"astId": 1898,
						"contract": "contracts/ERC721TokenContractName.sol:ERC721TokenContractName",
						"label": "ban",
						"offset": 0,
						"slot": "1203",
						"type": "t_array(t_bool)1201_storage"
					},
					{
						"astId": 1904,
						"contract": "contracts/ERC721TokenContractName.sol:ERC721TokenContractName",
						"label": "_balanceAndTokId",
						"offset": 0,
						"slot": "1241",
						"type": "t_mapping(t_address,t_array(t_uint16)1201_storage)"
					},
					{
						"astId": 1908,
						"contract": "contracts/ERC721TokenContractName.sol:ERC721TokenContractName",
						"label": "_tokenApprovals",
						"offset": 0,
						"slot": "1242",
						"type": "t_mapping(t_uint16,t_address)"
					},
					{
						"astId": 1914,
						"contract": "contracts/ERC721TokenContractName.sol:ERC721TokenContractName",
						"label": "_operatorApprovals",
						"offset": 0,
						"slot": "1243",
						"type": "t_mapping(t_address,t_mapping(t_address,t_bool))"
					}
				],
				"types": {
					"t_address": {
						"encoding": "inplace",
						"label": "address",
						"numberOfBytes": "20"
					},
					"t_array(t_address)1201_storage": {
						"base": "t_address",
						"encoding": "inplace",
						"label": "address[1201]",
						"numberOfBytes": "38432"
					},
					"t_array(t_bool)1201_storage": {
						"base": "t_bool",
						"encoding": "inplace",
						"label": "bool[1201]",
						"numberOfBytes": "1216"
					},
					"t_array(t_uint16)1201_storage": {
						"base": "t_uint16",
						"encoding": "inplace",
						"label": "uint16[1201]",
						"numberOfBytes": "2432"
					},
					"t_bool": {
						"encoding": "inplace",
						"label": "bool",
						"numberOfBytes": "1"
					},
					"t_bytes10": {
						"encoding": "inplace",
						"label": "bytes10",
						"numberOfBytes": "10"
					},
					"t_bytes20": {
						"encoding": "inplace",
						"label": "bytes20",
						"numberOfBytes": "20"
					},
					"t_mapping(t_address,t_array(t_uint16)1201_storage)": {
						"encoding": "mapping",
						"key": "t_address",
						"label": "mapping(address => uint16[1201])",
						"numberOfBytes": "32",
						"value": "t_array(t_uint16)1201_storage"
					},
					"t_mapping(t_address,t_bool)": {
						"encoding": "mapping",
						"key": "t_address",
						"label": "mapping(address => bool)",
						"numberOfBytes": "32",
						"value": "t_bool"
					},
					"t_mapping(t_address,t_mapping(t_address,t_bool))": {
						"encoding": "mapping",
						"key": "t_address",
						"label": "mapping(address => mapping(address => bool))",
						"numberOfBytes": "32",
						"value": "t_mapping(t_address,t_bool)"
					},
					"t_mapping(t_uint16,t_address)": {
						"encoding": "mapping",
						"key": "t_uint16",
						"label": "mapping(uint16 => address)",
						"numberOfBytes": "32",
						"value": "t_address"
					},
					"t_struct(MintInfo)1887_storage": {
						"encoding": "inplace",
						"label": "struct ERC721TokenContractName.MintInfo",
						"members": [
							{
								"astId": 1884,
								"contract": "contracts/ERC721TokenContractName.sol:ERC721TokenContractName",
								"label": "maxMinted",
								"offset": 0,
								"slot": "0",
								"type": "t_uint16"
							},
							{
								"astId": 1886,
								"contract": "contracts/ERC721TokenContractName.sol:ERC721TokenContractName",
								"label": "currentTokens",
								"offset": 2,
								"slot": "0",
								"type": "t_uint16"
							}
						],
						"numberOfBytes": "32"
					},
					"t_uint16": {
						"encoding": "inplace",
						"label": "uint16",
						"numberOfBytes": "2"
					}
				}
			},
			"userdoc": {
				"kind": "user",
				"methods": {},
				"version": 1
			}
		}
	}
}