{
	"contracts/faykGovernance.sol": {
		"faykGovernance": {
			"abi": [
				{
					"inputs": [],
					"name": "AccessOnlyForThePendigPresident",
					"type": "error"
				},
				{
					"inputs": [
						{
							"internalType": "uint48",
							"name": "reminingTime",
							"type": "uint48"
						}
					],
					"name": "RemainingTimeUntilTheConfirmationDeadline",
					"type": "error"
				},
				{
					"inputs": [
						{
							"internalType": "address",
							"name": "NewGCAddress",
							"type": "address"
						}
					],
					"name": "TheAddressIsNotValidForGC",
					"type": "error"
				},
				{
					"inputs": [
						{
							"internalType": "address",
							"name": "newRAddress",
							"type": "address"
						}
					],
					"name": "TheAddressIsNotValidForRAddress",
					"type": "error"
				},
				{
					"anonymous": false,
					"inputs": [
						{
							"indexed": true,
							"internalType": "address",
							"name": "GCAddress",
							"type": "address"
						},
						{
							"indexed": true,
							"internalType": "uint32",
							"name": "version",
							"type": "uint32"
						}
					],
					"name": "TheNewGCAddressWasConfirmed",
					"type": "event"
				},
				{
					"anonymous": false,
					"inputs": [
						{
							"indexed": true,
							"internalType": "address",
							"name": "presidentAdd",
							"type": "address"
						},
						{
							"indexed": true,
							"internalType": "uint32",
							"name": "nonce",
							"type": "uint32"
						}
					],
					"name": "TheNewPresidentWasConfirmed",
					"type": "event"
				},
				{
					"anonymous": false,
					"inputs": [
						{
							"indexed": true,
							"internalType": "address",
							"name": "primeMinisterAdd",
							"type": "address"
						},
						{
							"indexed": true,
							"internalType": "uint32",
							"name": "nonce",
							"type": "uint32"
						}
					],
					"name": "TheNewPrimeMinisterWasConfirmed",
					"type": "event"
				},
				{
					"anonymous": false,
					"inputs": [
						{
							"indexed": true,
							"internalType": "address",
							"name": "RepublicAddress",
							"type": "address"
						},
						{
							"indexed": true,
							"internalType": "uint32",
							"name": "version",
							"type": "uint32"
						}
					],
					"name": "TheNewRepublicAddressWasConfirmed",
					"type": "event"
				},
				{
					"anonymous": false,
					"inputs": [
						{
							"indexed": true,
							"internalType": "address",
							"name": "newGCAddress",
							"type": "address"
						}
					],
					"name": "TheNextGCAddressWasElected",
					"type": "event"
				},
				{
					"anonymous": false,
					"inputs": [
						{
							"indexed": true,
							"internalType": "address",
							"name": "newPresidentAdd",
							"type": "address"
						}
					],
					"name": "TheNextPresidentWasElected",
					"type": "event"
				},
				{
					"anonymous": false,
					"inputs": [
						{
							"indexed": true,
							"internalType": "address",
							"name": "newPrimeMinister",
							"type": "address"
						}
					],
					"name": "TheNextPrimeMinisterWasElected",
					"type": "event"
				},
				{
					"anonymous": false,
					"inputs": [
						{
							"indexed": true,
							"internalType": "address",
							"name": "PRAddress",
							"type": "address"
						}
					],
					"name": "TheNextRepublicAddressWasCancelled",
					"type": "event"
				},
				{
					"anonymous": false,
					"inputs": [
						{
							"indexed": true,
							"internalType": "address",
							"name": "newRepublicAddress",
							"type": "address"
						}
					],
					"name": "TheNextRepublicAddressWasElected",
					"type": "event"
				},
				{
					"anonymous": false,
					"inputs": [
						{
							"indexed": true,
							"internalType": "bool",
							"name": "baned",
							"type": "bool"
						},
						{
							"indexed": true,
							"internalType": "bool",
							"name": "done",
							"type": "bool"
						}
					],
					"name": "TheStatusOfBanningAllActivitiesAndDone",
					"type": "event"
				},
				{
					"inputs": [
						{
							"internalType": "address",
							"name": "PRAdress",
							"type": "address"
						}
					],
					"name": "cancelPendingRepublicAddress",
					"outputs": [],
					"stateMutability": "nonpayable",
					"type": "function"
				},
				{
					"inputs": [],
					"name": "getAuthorityAddress",
					"outputs": [
						{
							"internalType": "address",
							"name": "",
							"type": "address"
						}
					],
					"stateMutability": "view",
					"type": "function"
				},
				{
					"inputs": [],
					"name": "getGovernance",
					"outputs": [
						{
							"internalType": "address",
							"name": "",
							"type": "address"
						}
					],
					"stateMutability": "view",
					"type": "function"
				},
				{
					"inputs": [],
					"name": "getPresidentAdd",
					"outputs": [
						{
							"internalType": "address",
							"name": "",
							"type": "address"
						}
					],
					"stateMutability": "view",
					"type": "function"
				},
				{
					"inputs": [],
					"name": "getPresidentBan",
					"outputs": [
						{
							"internalType": "bool",
							"name": "",
							"type": "bool"
						}
					],
					"stateMutability": "view",
					"type": "function"
				},
				{
					"inputs": [],
					"name": "getPrimeMinisterAdd",
					"outputs": [
						{
							"internalType": "address",
							"name": "",
							"type": "address"
						}
					],
					"stateMutability": "view",
					"type": "function"
				},
				{
					"inputs": [],
					"name": "getPrimeMinisterBan",
					"outputs": [
						{
							"internalType": "bool",
							"name": "",
							"type": "bool"
						}
					],
					"stateMutability": "view",
					"type": "function"
				},
				{
					"inputs": [],
					"name": "getRepublicAddress",
					"outputs": [
						{
							"internalType": "address",
							"name": "RG",
							"type": "address"
						}
					],
					"stateMutability": "view",
					"type": "function"
				},
				{
					"inputs": [],
					"name": "getgovernanceVersion",
					"outputs": [
						{
							"internalType": "uint32",
							"name": "",
							"type": "uint32"
						}
					],
					"stateMutability": "view",
					"type": "function"
				},
				{
					"inputs": [
						{
							"internalType": "address",
							"name": "newPresident",
							"type": "address"
						}
					],
					"name": "setPendigPresident",
					"outputs": [],
					"stateMutability": "nonpayable",
					"type": "function"
				},
				{
					"inputs": [
						{
							"internalType": "address",
							"name": "newGCAddress",
							"type": "address"
						}
					],
					"name": "setPendingGovernanceContractAddress",
					"outputs": [],
					"stateMutability": "nonpayable",
					"type": "function"
				},
				{
					"inputs": [
						{
							"internalType": "address",
							"name": "newPM",
							"type": "address"
						}
					],
					"name": "setPendingPrimeMinister",
					"outputs": [],
					"stateMutability": "nonpayable",
					"type": "function"
				},
				{
					"inputs": [
						{
							"internalType": "address",
							"name": "newRAddress",
							"type": "address"
						}
					],
					"name": "setPendingRepublicAddress",
					"outputs": [],
					"stateMutability": "nonpayable",
					"type": "function"
				},
				{
					"inputs": [
						{
							"internalType": "bool",
							"name": "baned",
							"type": "bool"
						}
					],
					"name": "setPresidentBaned",
					"outputs": [],
					"stateMutability": "nonpayable",
					"type": "function"
				},
				{
					"inputs": [
						{
							"internalType": "bool",
							"name": "baned",
							"type": "bool"
						}
					],
					"name": "setPrimeMinister",
					"outputs": [],
					"stateMutability": "nonpayable",
					"type": "function"
				},
				{
					"inputs": [
						{
							"internalType": "address",
							"name": "pendingGCAdd",
							"type": "address"
						}
					],
					"name": "transferGovernanceContractAddress",
					"outputs": [],
					"stateMutability": "nonpayable",
					"type": "function"
				},
				{
					"inputs": [],
					"name": "transferPresident",
					"outputs": [],
					"stateMutability": "nonpayable",
					"type": "function"
				},
				{
					"inputs": [],
					"name": "transferPrimeMinister",
					"outputs": [],
					"stateMutability": "nonpayable",
					"type": "function"
				},
				{
					"inputs": [
						{
							"internalType": "address",
							"name": "RAddress",
							"type": "address"
						}
					],
					"name": "transferRepublicAddress",
					"outputs": [],
					"stateMutability": "nonpayable",
					"type": "function"
				}
			],
			"devdoc": {
				"kind": "dev",
				"methods": {},
				"version": 1
			},
			"evm": {
				"assembly": "    /* \"contracts/faykGovernance.sol\":181:1237  contract faykGovernance is Authority {... */\n  mstore(0x40, 0xa0)\n  callvalue\n  dup1\n  iszero\n  tag_1\n  jumpi\n  0x00\n  dup1\n  revert\ntag_1:\n  pop\n    /* \"contracts/authority.sol\":2638:2647  4400 days */\n  0x16a8c800\n    /* \"contracts/authority.sol\":2620:2635  block.timestamp */\n  timestamp\n    /* \"contracts/authority.sol\":2620:2647  block.timestamp + 4400 days */\n  tag_4\n  swap2\n  swap1\n  tag_5\n  jump\t// in\ntag_4:\n    /* \"contracts/authority.sol\":2593:2648  TimeFirstElection = uint48(block.timestamp + 4400 days) */\n  0xffffffffffff\n  and\n  0x80\n  dup2\n  0xffffffffffff\n  and\n  dup2\n  mstore\n  pop\n  pop\n    /* \"contracts/authority.sol\":2680:2690  msg.sender */\n  caller\n    /* \"contracts/authority.sol\":2659:2669  _president */\n  0x04\n    /* \"contracts/authority.sol\":2659:2677  _president.roleAdd */\n  0x00\n  add\n  0x00\n    /* \"contracts/authority.sol\":2659:2690  _president.roleAdd = msg.sender */\n  0x0100\n  exp\n  dup2\n  sload\n  dup2\n  0xffffffffffffffffffffffffffffffffffffffff\n  mul\n  not\n  and\n  swap1\n  dup4\n  0xffffffffffffffffffffffffffffffffffffffff\n  and\n  mul\n  or\n  swap1\n  sstore\n  pop\n    /* \"contracts/authority.sol\":2701:2711  _president */\n  0x04\n    /* \"contracts/authority.sol\":2701:2717  _president.nonce */\n  0x00\n  add\n  0x15\n    /* \"contracts/authority.sol\":2701:2719  _president.nonce++ */\n  dup2\n  dup2\n  swap1\n  sload\n  swap1\n  0x0100\n  exp\n  swap1\n  div\n  0xffffffff\n  and\n  dup1\n  swap3\n  swap2\n  swap1\n  tag_6\n  swap1\n  tag_7\n  jump\t// in\ntag_6:\n  swap2\n  swap1\n  0x0100\n  exp\n  dup2\n  sload\n  dup2\n  0xffffffff\n  mul\n  not\n  and\n  swap1\n  dup4\n  0xffffffff\n  and\n  mul\n  or\n  swap1\n  sstore\n  pop\n  pop\n    /* \"contracts/faykGovernance.sol\":181:1237  contract faykGovernance is Authority {... */\n  jump(tag_8)\n    /* \"#utility.yul\":7:84   */\ntag_9:\n    /* \"#utility.yul\":44:51   */\n  0x00\n    /* \"#utility.yul\":73:78   */\n  dup2\n    /* \"#utility.yul\":62:78   */\n  swap1\n  pop\n    /* \"#utility.yul\":7:84   */\n  swap2\n  swap1\n  pop\n  jump\t// out\n    /* \"#utility.yul\":90:270   */\ntag_10:\n    /* \"#utility.yul\":138:215   */\n  0x4e487b7100000000000000000000000000000000000000000000000000000000\n    /* \"#utility.yul\":135:136   */\n  0x00\n    /* \"#utility.yul\":128:216   */\n  mstore\n    /* \"#utility.yul\":235:239   */\n  0x11\n    /* \"#utility.yul\":232:233   */\n  0x04\n    /* \"#utility.yul\":225:240   */\n  mstore\n    /* \"#utility.yul\":259:263   */\n  0x24\n    /* \"#utility.yul\":256:257   */\n  0x00\n    /* \"#utility.yul\":249:264   */\n  revert\n    /* \"#utility.yul\":276:467   */\ntag_5:\n    /* \"#utility.yul\":316:319   */\n  0x00\n    /* \"#utility.yul\":335:355   */\n  tag_16\n    /* \"#utility.yul\":353:354   */\n  dup3\n    /* \"#utility.yul\":335:355   */\n  tag_9\n  jump\t// in\ntag_16:\n    /* \"#utility.yul\":330:355   */\n  swap2\n  pop\n    /* \"#utility.yul\":369:389   */\n  tag_17\n    /* \"#utility.yul\":387:388   */\n  dup4\n    /* \"#utility.yul\":369:389   */\n  tag_9\n  jump\t// in\ntag_17:\n    /* \"#utility.yul\":364:389   */\n  swap3\n  pop\n    /* \"#utility.yul\":412:413   */\n  dup3\n    /* \"#utility.yul\":409:410   */\n  dup3\n    /* \"#utility.yul\":405:414   */\n  add\n    /* \"#utility.yul\":398:414   */\n  swap1\n  pop\n    /* \"#utility.yul\":433:436   */\n  dup1\n    /* \"#utility.yul\":430:431   */\n  dup3\n    /* \"#utility.yul\":427:437   */\n  gt\n    /* \"#utility.yul\":424:460   */\n  iszero\n  tag_18\n  jumpi\n    /* \"#utility.yul\":440:458   */\n  tag_19\n  tag_10\n  jump\t// in\ntag_19:\n    /* \"#utility.yul\":424:460   */\ntag_18:\n    /* \"#utility.yul\":276:467   */\n  swap3\n  swap2\n  pop\n  pop\n  jump\t// out\n    /* \"#utility.yul\":473:566   */\ntag_11:\n    /* \"#utility.yul\":509:516   */\n  0x00\n    /* \"#utility.yul\":549:559   */\n  0xffffffff\n    /* \"#utility.yul\":542:547   */\n  dup3\n    /* \"#utility.yul\":538:560   */\n  and\n    /* \"#utility.yul\":527:560   */\n  swap1\n  pop\n    /* \"#utility.yul\":473:566   */\n  swap2\n  swap1\n  pop\n  jump\t// out\n    /* \"#utility.yul\":572:747   */\ntag_7:\n    /* \"#utility.yul\":610:613   */\n  0x00\n    /* \"#utility.yul\":633:656   */\n  tag_22\n    /* \"#utility.yul\":650:655   */\n  dup3\n    /* \"#utility.yul\":633:656   */\n  tag_11\n  jump\t// in\ntag_22:\n    /* \"#utility.yul\":624:656   */\n  swap2\n  pop\n    /* \"#utility.yul\":678:688   */\n  0xffffffff\n    /* \"#utility.yul\":671:676   */\n  dup3\n    /* \"#utility.yul\":668:689   */\n  sub\n    /* \"#utility.yul\":665:712   */\n  tag_23\n  jumpi\n    /* \"#utility.yul\":692:710   */\n  tag_24\n  tag_10\n  jump\t// in\ntag_24:\n    /* \"#utility.yul\":665:712   */\ntag_23:\n    /* \"#utility.yul\":739:740   */\n  0x01\n    /* \"#utility.yul\":732:737   */\n  dup3\n    /* \"#utility.yul\":728:741   */\n  add\n    /* \"#utility.yul\":721:741   */\n  swap1\n  pop\n    /* \"#utility.yul\":572:747   */\n  swap2\n  swap1\n  pop\n  jump\t// out\n    /* \"contracts/faykGovernance.sol\":181:1237  contract faykGovernance is Authority {... */\ntag_8:\n  mload(0x80)\n  codecopy(0x00, dataOffset(sub_0), dataSize(sub_0))\n  0x00\n  assignImmutable(\"0x243d3ba375e91e040b8b9e2bbbb1688b2b311eacea842eebda952071560e7854\")\n  return(0x00, dataSize(sub_0))\nstop\n\nsub_0: assembly {\n        /* \"contracts/faykGovernance.sol\":181:1237  contract faykGovernance is Authority {... */\n      mstore(0x40, 0x80)\n      callvalue\n      dup1\n      iszero\n      tag_1\n      jumpi\n      0x00\n      dup1\n      revert\n    tag_1:\n      pop\n      jumpi(tag_2, lt(calldatasize, 0x04))\n      shr(0xe0, calldataload(0x00))\n      dup1\n      0x6cf106d7\n      gt\n      tag_22\n      jumpi\n      dup1\n      0xc5a1c5c1\n      gt\n      tag_23\n      jumpi\n      dup1\n      0xc5a1c5c1\n      eq\n      tag_17\n      jumpi\n      dup1\n      0xca4cce68\n      eq\n      tag_18\n      jumpi\n      dup1\n      0xe47a9d46\n      eq\n      tag_19\n      jumpi\n      dup1\n      0xe4f3e947\n      eq\n      tag_20\n      jumpi\n      dup1\n      0xee7126c3\n      eq\n      tag_21\n      jumpi\n      jump(tag_2)\n    tag_23:\n      dup1\n      0x6cf106d7\n      eq\n      tag_12\n      jumpi\n      dup1\n      0x9c20fe71\n      eq\n      tag_13\n      jumpi\n      dup1\n      0xa53da00b\n      eq\n      tag_14\n      jumpi\n      dup1\n      0xb5c09c68\n      eq\n      tag_15\n      jumpi\n      dup1\n      0xc387b49c\n      eq\n      tag_16\n      jumpi\n      jump(tag_2)\n    tag_22:\n      dup1\n      0x1f72783a\n      gt\n      tag_24\n      jumpi\n      dup1\n      0x1f72783a\n      eq\n      tag_7\n      jumpi\n      dup1\n      0x289b3c0d\n      eq\n      tag_8\n      jumpi\n      dup1\n      0x52e305de\n      eq\n      tag_9\n      jumpi\n      dup1\n      0x544fa93e\n      eq\n      tag_10\n      jumpi\n      dup1\n      0x66410997\n      eq\n      tag_11\n      jumpi\n      jump(tag_2)\n    tag_24:\n      dup1\n      0x054203bd\n      eq\n      tag_3\n      jumpi\n      dup1\n      0x06e99d93\n      eq\n      tag_4\n      jumpi\n      dup1\n      0x0df4c390\n      eq\n      tag_5\n      jumpi\n      dup1\n      0x18074eee\n      eq\n      tag_6\n      jumpi\n    tag_2:\n      0x00\n      dup1\n      revert\n        /* \"contracts/authority.sol\":4562:4814  function setPendigPresident(address newPresident) public onlyRepublic {... */\n    tag_3:\n      tag_25\n      0x04\n      dup1\n      calldatasize\n      sub\n      dup2\n      add\n      swap1\n      tag_26\n      swap2\n      swap1\n      tag_27\n      jump\t// in\n    tag_26:\n      tag_28\n      jump\t// in\n    tag_25:\n      stop\n        /* \"contracts/authority.sol\":7468:7575  function setPrimeMinister(bool baned) public onlyPresident {... */\n    tag_4:\n      tag_29\n      0x04\n      dup1\n      calldatasize\n      sub\n      dup2\n      add\n      swap1\n      tag_30\n      swap2\n      swap1\n      tag_31\n      jump\t// in\n    tag_30:\n      tag_32\n      jump\t// in\n    tag_29:\n      stop\n        /* \"contracts/authority.sol\":4822:5217  function transferPresident() public {... */\n    tag_5:\n      tag_33\n      tag_34\n      jump\t// in\n    tag_33:\n      stop\n        /* \"contracts/authority.sol\":5618:6108  function transferPrimeMinister() public {... */\n    tag_6:\n      tag_35\n      tag_36\n      jump\t// in\n    tag_35:\n      stop\n        /* \"contracts/authority.sol\":2735:3291  function setPendingRepublicAddress(address newRAddress) public onlyRepublic {... */\n    tag_7:\n      tag_37\n      0x04\n      dup1\n      calldatasize\n      sub\n      dup2\n      add\n      swap1\n      tag_38\n      swap2\n      swap1\n      tag_27\n      jump\t// in\n    tag_38:\n      tag_39\n      jump\t// in\n    tag_37:\n      stop\n        /* \"contracts/authority.sol\":7097:7197  function getGovernance() public view returns (address) {... */\n    tag_8:\n      tag_40\n      tag_41\n      jump\t// in\n    tag_40:\n      mload(0x40)\n      tag_42\n      swap2\n      swap1\n      tag_43\n      jump\t// in\n    tag_42:\n      mload(0x40)\n      dup1\n      swap2\n      sub\n      swap1\n      return\n        /* \"contracts/authority.sol\":3937:4311  function cancelPendingRepublicAddress(address PRAdress) public onlyRepublic {... */\n    tag_9:\n      tag_44\n      0x04\n      dup1\n      calldatasize\n      sub\n      dup2\n      add\n      swap1\n      tag_45\n      swap2\n      swap1\n      tag_27\n      jump\t// in\n    tag_45:\n      tag_46\n      jump\t// in\n    tag_44:\n      stop\n        /* \"contracts/authority.sol\":5438:5610  function setPendingPrimeMinister(address newPM) public onlyPresident {... */\n    tag_10:\n      tag_47\n      0x04\n      dup1\n      calldatasize\n      sub\n      dup2\n      add\n      swap1\n      tag_48\n      swap2\n      swap1\n      tag_27\n      jump\t// in\n    tag_48:\n      tag_49\n      jump\t// in\n    tag_47:\n      stop\n        /* \"contracts/authority.sol\":5225:5326  function getPresidentAdd() public view returns (address) {... */\n    tag_11:\n      tag_50\n      tag_51\n      jump\t// in\n    tag_50:\n      mload(0x40)\n      tag_52\n      swap2\n      swap1\n      tag_43\n      jump\t// in\n    tag_52:\n      mload(0x40)\n      dup1\n      swap2\n      sub\n      swap1\n      return\n        /* \"contracts/authority.sol\":5334:5430  function getPresidentBan() public view returns (bool) {... */\n    tag_12:\n      tag_53\n      tag_54\n      jump\t// in\n    tag_53:\n      mload(0x40)\n      tag_55\n      swap2\n      swap1\n      tag_56\n      jump\t// in\n    tag_55:\n      mload(0x40)\n      dup1\n      swap2\n      sub\n      swap1\n      return\n        /* \"contracts/authority.sol\":3299:3929  function transferRepublicAddress(address RAddress) public onlyRepublic {... */\n    tag_13:\n      tag_57\n      0x04\n      dup1\n      calldatasize\n      sub\n      dup2\n      add\n      swap1\n      tag_58\n      swap2\n      swap1\n      tag_27\n      jump\t// in\n    tag_58:\n      tag_59\n      jump\t// in\n    tag_57:\n      stop\n        /* \"contracts/authority.sol\":6116:6225  function getPrimeMinisterAdd() public view returns (address) {... */\n    tag_14:\n      tag_60\n      tag_61\n      jump\t// in\n    tag_60:\n      mload(0x40)\n      tag_62\n      swap2\n      swap1\n      tag_43\n      jump\t// in\n    tag_62:\n      mload(0x40)\n      dup1\n      swap2\n      sub\n      swap1\n      return\n        /* \"contracts/authority.sol\":7317:7460  function setPresidentBaned(bool baned) public onlyRepublic {... */\n    tag_15:\n      tag_63\n      0x04\n      dup1\n      calldatasize\n      sub\n      dup2\n      add\n      swap1\n      tag_64\n      swap2\n      swap1\n      tag_31\n      jump\t// in\n    tag_64:\n      tag_65\n      jump\t// in\n    tag_63:\n      stop\n        /* \"contracts/authority.sol\":7205:7309  function getgovernanceVersion() public view returns (uint32) {... */\n    tag_16:\n      tag_66\n      tag_67\n      jump\t// in\n    tag_66:\n      mload(0x40)\n      tag_68\n      swap2\n      swap1\n      tag_69\n      jump\t// in\n    tag_68:\n      mload(0x40)\n      dup1\n      swap2\n      sub\n      swap1\n      return\n        /* \"contracts/authority.sol\":4319:4433  function getRepublicAddress() public view returns (address RG) {... */\n    tag_17:\n      tag_70\n      tag_71\n      jump\t// in\n    tag_70:\n      mload(0x40)\n      tag_72\n      swap2\n      swap1\n      tag_43\n      jump\t// in\n    tag_72:\n      mload(0x40)\n      dup1\n      swap2\n      sub\n      swap1\n      return\n        /* \"contracts/authority.sol\":6347:6662  function setPendingGovernanceContractAddress(address newGCAddress) public onlyRepublic {... */\n    tag_18:\n      tag_73\n      0x04\n      dup1\n      calldatasize\n      sub\n      dup2\n      add\n      swap1\n      tag_74\n      swap2\n      swap1\n      tag_27\n      jump\t// in\n    tag_74:\n      tag_75\n      jump\t// in\n    tag_73:\n      stop\n        /* \"contracts/authority.sol\":4445:4554  function getAuthorityAddress() public view returns (address) {... */\n    tag_19:\n      tag_76\n      tag_77\n      jump\t// in\n    tag_76:\n      mload(0x40)\n      tag_78\n      swap2\n      swap1\n      tag_43\n      jump\t// in\n    tag_78:\n      mload(0x40)\n      dup1\n      swap2\n      sub\n      swap1\n      return\n        /* \"contracts/authority.sol\":6233:6337  function getPrimeMinisterBan() public view returns (bool) {... */\n    tag_20:\n      tag_79\n      tag_80\n      jump\t// in\n    tag_79:\n      mload(0x40)\n      tag_81\n      swap2\n      swap1\n      tag_56\n      jump\t// in\n    tag_81:\n      mload(0x40)\n      dup1\n      swap2\n      sub\n      swap1\n      return\n        /* \"contracts/authority.sol\":6670:7089  function transferGovernanceContractAddress(address pendingGCAdd) public onlyPresident {... */\n    tag_21:\n      tag_82\n      0x04\n      dup1\n      calldatasize\n      sub\n      dup2\n      add\n      swap1\n      tag_83\n      swap2\n      swap1\n      tag_27\n      jump\t// in\n    tag_83:\n      tag_84\n      jump\t// in\n    tag_82:\n      stop\n        /* \"contracts/authority.sol\":4562:4814  function setPendigPresident(address newPresident) public onlyRepublic {... */\n    tag_28:\n        /* \"contracts/authority.sol\":1965:1980  block.timestamp */\n      timestamp\n        /* \"contracts/authority.sol\":1945:1962  TimeFirstElection */\n      immutable(\"0x243d3ba375e91e040b8b9e2bbbb1688b2b311eacea842eebda952071560e7854\")\n        /* \"contracts/authority.sol\":1945:1980  TimeFirstElection < block.timestamp */\n      0xffffffffffff\n      and\n      lt\n        /* \"contracts/authority.sol\":1941:2168  if (TimeFirstElection < block.timestamp) {... */\n      iszero\n      tag_86\n      jumpi\n        /* \"contracts/authority.sol\":2019:2039  getRepublicAddress() */\n      tag_87\n        /* \"contracts/authority.sol\":2019:2037  getRepublicAddress */\n      tag_71\n        /* \"contracts/authority.sol\":2019:2039  getRepublicAddress() */\n      jump\t// in\n    tag_87:\n        /* \"contracts/authority.sol\":2005:2039  msg.sender == getRepublicAddress() */\n      0xffffffffffffffffffffffffffffffffffffffff\n      and\n        /* \"contracts/authority.sol\":2005:2015  msg.sender */\n      caller\n        /* \"contracts/authority.sol\":2005:2039  msg.sender == getRepublicAddress() */\n      0xffffffffffffffffffffffffffffffffffffffff\n      and\n      eq\n        /* \"contracts/authority.sol\":1997:2063  require(msg.sender == getRepublicAddress(), \"Access is not valid\") */\n      tag_88\n      jumpi\n      mload(0x40)\n      0x08c379a000000000000000000000000000000000000000000000000000000000\n      dup2\n      mstore\n      0x04\n      add\n      tag_89\n      swap1\n      tag_90\n      jump\t// in\n    tag_89:\n      mload(0x40)\n      dup1\n      swap2\n      sub\n      swap1\n      revert\n    tag_88:\n        /* \"contracts/authority.sol\":1941:2168  if (TimeFirstElection < block.timestamp) {... */\n      jump(tag_91)\n    tag_86:\n        /* \"contracts/authority.sol\":2105:2122  getPresidentAdd() */\n      tag_92\n        /* \"contracts/authority.sol\":2105:2120  getPresidentAdd */\n      tag_51\n        /* \"contracts/authority.sol\":2105:2122  getPresidentAdd() */\n      jump\t// in\n    tag_92:\n        /* \"contracts/authority.sol\":2091:2122  msg.sender == getPresidentAdd() */\n      0xffffffffffffffffffffffffffffffffffffffff\n      and\n        /* \"contracts/authority.sol\":2091:2101  msg.sender */\n      caller\n        /* \"contracts/authority.sol\":2091:2122  msg.sender == getPresidentAdd() */\n      0xffffffffffffffffffffffffffffffffffffffff\n      and\n      eq\n        /* \"contracts/authority.sol\":2091:2144  msg.sender == getPresidentAdd() && !getPresidentBan() */\n      dup1\n      iszero\n      tag_93\n      jumpi\n      pop\n        /* \"contracts/authority.sol\":2127:2144  getPresidentBan() */\n      tag_94\n        /* \"contracts/authority.sol\":2127:2142  getPresidentBan */\n      tag_54\n        /* \"contracts/authority.sol\":2127:2144  getPresidentBan() */\n      jump\t// in\n    tag_94:\n        /* \"contracts/authority.sol\":2126:2144  !getPresidentBan() */\n      iszero\n        /* \"contracts/authority.sol\":2091:2144  msg.sender == getPresidentAdd() && !getPresidentBan() */\n    tag_93:\n        /* \"contracts/authority.sol\":2083:2168  require(msg.sender == getPresidentAdd() && !getPresidentBan(), \"Access is not valid\") */\n      tag_95\n      jumpi\n      mload(0x40)\n      0x08c379a000000000000000000000000000000000000000000000000000000000\n      dup2\n      mstore\n      0x04\n      add\n      tag_96\n      swap1\n      tag_90\n      jump\t// in\n    tag_96:\n      mload(0x40)\n      dup1\n      swap2\n      sub\n      swap1\n      revert\n    tag_95:\n        /* \"contracts/authority.sol\":1941:2168  if (TimeFirstElection < block.timestamp) {... */\n    tag_91:\n        /* \"contracts/authority.sol\":4662:4674  newPresident */\n      dup1\n        /* \"contracts/authority.sol\":4643:4659  _pendigPresident */\n      0x02\n      0x00\n        /* \"contracts/authority.sol\":4643:4674  _pendigPresident = newPresident */\n      0x0100\n      exp\n      dup2\n      sload\n      dup2\n      0xffffffffffffffffffffffffffffffffffffffff\n      mul\n      not\n      and\n      swap1\n      dup4\n      0xffffffffffffffffffffffffffffffffffffffff\n      and\n      mul\n      or\n      swap1\n      sstore\n      pop\n        /* \"contracts/authority.sol\":4685:4709  _setPresidentBaned(true) */\n      tag_98\n        /* \"contracts/authority.sol\":4704:4708  true */\n      0x01\n        /* \"contracts/authority.sol\":4685:4703  _setPresidentBaned */\n      tag_99\n        /* \"contracts/authority.sol\":4685:4709  _setPresidentBaned(true) */\n      jump\t// in\n    tag_98:\n        /* \"contracts/authority.sol\":4720:4748  _setPrimeMinisterBaned(true) */\n      tag_100\n        /* \"contracts/authority.sol\":4743:4747  true */\n      0x01\n        /* \"contracts/authority.sol\":4720:4742  _setPrimeMinisterBaned */\n      tag_101\n        /* \"contracts/authority.sol\":4720:4748  _setPrimeMinisterBaned(true) */\n      jump\t// in\n    tag_100:\n        /* \"contracts/authority.sol\":4793:4805  newPresident */\n      dup1\n        /* \"contracts/authority.sol\":4766:4806  TheNextPresidentWasElected(newPresident) */\n      0xffffffffffffffffffffffffffffffffffffffff\n      and\n      0x3553f1f7ef0242113266a8d183b621bb87468c99237f36b1150b6ab3d688b686\n      mload(0x40)\n      mload(0x40)\n      dup1\n      swap2\n      sub\n      swap1\n      log2\n        /* \"contracts/authority.sol\":4562:4814  function setPendigPresident(address newPresident) public onlyRepublic {... */\n      pop\n      jump\t// out\n        /* \"contracts/authority.sol\":7468:7575  function setPrimeMinister(bool baned) public onlyPresident {... */\n    tag_32:\n        /* \"contracts/authority.sol\":2256:2273  getPresidentAdd() */\n      tag_103\n        /* \"contracts/authority.sol\":2256:2271  getPresidentAdd */\n      tag_51\n        /* \"contracts/authority.sol\":2256:2273  getPresidentAdd() */\n      jump\t// in\n    tag_103:\n        /* \"contracts/authority.sol\":2242:2273  msg.sender == getPresidentAdd() */\n      0xffffffffffffffffffffffffffffffffffffffff\n      and\n        /* \"contracts/authority.sol\":2242:2252  msg.sender */\n      caller\n        /* \"contracts/authority.sol\":2242:2273  msg.sender == getPresidentAdd() */\n      0xffffffffffffffffffffffffffffffffffffffff\n      and\n      eq\n        /* \"contracts/authority.sol\":2242:2295  msg.sender == getPresidentAdd() && !getPresidentBan() */\n      dup1\n      iszero\n      tag_104\n      jumpi\n      pop\n        /* \"contracts/authority.sol\":2278:2295  getPresidentBan() */\n      tag_105\n        /* \"contracts/authority.sol\":2278:2293  getPresidentBan */\n      tag_54\n        /* \"contracts/authority.sol\":2278:2295  getPresidentBan() */\n      jump\t// in\n    tag_105:\n        /* \"contracts/authority.sol\":2277:2295  !getPresidentBan() */\n      iszero\n        /* \"contracts/authority.sol\":2242:2295  msg.sender == getPresidentAdd() && !getPresidentBan() */\n    tag_104:\n        /* \"contracts/authority.sol\":2234:2319  require(msg.sender == getPresidentAdd() && !getPresidentBan(), \"Access is not valid\") */\n      tag_106\n      jumpi\n      mload(0x40)\n      0x08c379a000000000000000000000000000000000000000000000000000000000\n      dup2\n      mstore\n      0x04\n      add\n      tag_107\n      swap1\n      tag_90\n      jump\t// in\n    tag_107:\n      mload(0x40)\n      dup1\n      swap2\n      sub\n      swap1\n      revert\n    tag_106:\n        /* \"contracts/authority.sol\":7538:7567  _setPrimeMinisterBaned(baned) */\n      tag_109\n        /* \"contracts/authority.sol\":7561:7566  baned */\n      dup2\n        /* \"contracts/authority.sol\":7538:7560  _setPrimeMinisterBaned */\n      tag_101\n        /* \"contracts/authority.sol\":7538:7567  _setPrimeMinisterBaned(baned) */\n      jump\t// in\n    tag_109:\n        /* \"contracts/authority.sol\":7468:7575  function setPrimeMinister(bool baned) public onlyPresident {... */\n      pop\n      jump\t// out\n        /* \"contracts/authority.sol\":4822:5217  function transferPresident() public {... */\n    tag_34:\n        /* \"contracts/authority.sol\":4893:4903  msg.sender */\n      caller\n        /* \"contracts/authority.sol\":4873:4903  _pendigPresident == msg.sender */\n      0xffffffffffffffffffffffffffffffffffffffff\n      and\n        /* \"contracts/authority.sol\":4873:4889  _pendigPresident */\n      0x02\n      0x00\n      swap1\n      sload\n      swap1\n      0x0100\n      exp\n      swap1\n      div\n      0xffffffffffffffffffffffffffffffffffffffff\n      and\n        /* \"contracts/authority.sol\":4873:4903  _pendigPresident == msg.sender */\n      0xffffffffffffffffffffffffffffffffffffffff\n      and\n      sub\n        /* \"contracts/authority.sol\":4869:5209  if (_pendigPresident == msg.sender) {... */\n      tag_111\n      jumpi\n        /* \"contracts/authority.sol\":4927:4943  _pendigPresident */\n      0x02\n      0x00\n        /* \"contracts/authority.sol\":4920:4943  delete _pendigPresident */\n      0x0100\n      exp\n      dup2\n      sload\n      swap1\n      0xffffffffffffffffffffffffffffffffffffffff\n      mul\n      not\n      and\n      swap1\n      sstore\n        /* \"contracts/authority.sol\":4979:4989  msg.sender */\n      caller\n        /* \"contracts/authority.sol\":4958:4968  _president */\n      0x04\n        /* \"contracts/authority.sol\":4958:4976  _president.roleAdd */\n      0x00\n      add\n      0x00\n        /* \"contracts/authority.sol\":4958:4989  _president.roleAdd = msg.sender */\n      0x0100\n      exp\n      dup2\n      sload\n      dup2\n      0xffffffffffffffffffffffffffffffffffffffff\n      mul\n      not\n      and\n      swap1\n      dup4\n      0xffffffffffffffffffffffffffffffffffffffff\n      and\n      mul\n      or\n      swap1\n      sstore\n      pop\n        /* \"contracts/authority.sol\":5004:5014  _president */\n      0x04\n        /* \"contracts/authority.sol\":5004:5020  _president.nonce */\n      0x00\n      add\n      0x15\n        /* \"contracts/authority.sol\":5004:5022  _president.nonce++ */\n      dup2\n      dup2\n      swap1\n      sload\n      swap1\n      0x0100\n      exp\n      swap1\n      div\n      0xffffffff\n      and\n      dup1\n      swap3\n      swap2\n      swap1\n      tag_112\n      swap1\n      tag_113\n      jump\t// in\n    tag_112:\n      swap2\n      swap1\n      0x0100\n      exp\n      dup2\n      sload\n      dup2\n      0xffffffff\n      mul\n      not\n      and\n      swap1\n      dup4\n      0xffffffff\n      and\n      mul\n      or\n      swap1\n      sstore\n      pop\n      pop\n        /* \"contracts/authority.sol\":5037:5062  _setPresidentBaned(false) */\n      tag_114\n        /* \"contracts/authority.sol\":5056:5061  false */\n      0x00\n        /* \"contracts/authority.sol\":5037:5055  _setPresidentBaned */\n      tag_99\n        /* \"contracts/authority.sol\":5037:5062  _setPresidentBaned(false) */\n      jump\t// in\n    tag_114:\n        /* \"contracts/authority.sol\":5132:5142  _president */\n      0x04\n        /* \"contracts/authority.sol\":5132:5148  _president.nonce */\n      0x00\n      add\n      0x15\n      swap1\n      sload\n      swap1\n      0x0100\n      exp\n      swap1\n      div\n      0xffffffff\n      and\n        /* \"contracts/authority.sol\":5084:5149  TheNewPresidentWasConfirmed(_president.roleAdd, _president.nonce) */\n      0xffffffff\n      and\n        /* \"contracts/authority.sol\":5112:5122  _president */\n      0x04\n        /* \"contracts/authority.sol\":5112:5130  _president.roleAdd */\n      0x00\n      add\n      0x00\n      swap1\n      sload\n      swap1\n      0x0100\n      exp\n      swap1\n      div\n      0xffffffffffffffffffffffffffffffffffffffff\n      and\n        /* \"contracts/authority.sol\":5084:5149  TheNewPresidentWasConfirmed(_president.roleAdd, _president.nonce) */\n      0xffffffffffffffffffffffffffffffffffffffff\n      and\n      0x05ad9b3688012cd825c1bfb941e4f5afb2558af6af3deaddf01dbb5e85abdaf9\n      mload(0x40)\n      mload(0x40)\n      dup1\n      swap2\n      sub\n      swap1\n      log3\n        /* \"contracts/authority.sol\":4869:5209  if (_pendigPresident == msg.sender) {... */\n      jump(tag_115)\n    tag_111:\n        /* \"contracts/authority.sol\":5176:5209  AccessOnlyForThePendigPresident() */\n      mload(0x40)\n      0xb513955100000000000000000000000000000000000000000000000000000000\n      dup2\n      mstore\n      0x04\n      add\n      mload(0x40)\n      dup1\n      swap2\n      sub\n      swap1\n      revert\n        /* \"contracts/authority.sol\":4869:5209  if (_pendigPresident == msg.sender) {... */\n    tag_115:\n        /* \"contracts/authority.sol\":4822:5217  function transferPresident() public {... */\n      jump\t// out\n        /* \"contracts/authority.sol\":5618:6108  function transferPrimeMinister() public {... */\n    tag_36:\n        /* \"contracts/authority.sol\":5698:5708  msg.sender */\n      caller\n        /* \"contracts/authority.sol\":5673:5708  _pendingPrimeMinister == msg.sender */\n      0xffffffffffffffffffffffffffffffffffffffff\n      and\n        /* \"contracts/authority.sol\":5673:5694  _pendingPrimeMinister */\n      0x03\n      0x00\n      swap1\n      sload\n      swap1\n      0x0100\n      exp\n      swap1\n      div\n      0xffffffffffffffffffffffffffffffffffffffff\n      and\n        /* \"contracts/authority.sol\":5673:5708  _pendingPrimeMinister == msg.sender */\n      0xffffffffffffffffffffffffffffffffffffffff\n      and\n      sub\n        /* \"contracts/authority.sol\":5669:6100  if (_pendingPrimeMinister == msg.sender) {... */\n      tag_117\n      jumpi\n        /* \"contracts/authority.sol\":5732:5753  _pendingPrimeMinister */\n      0x03\n      0x00\n        /* \"contracts/authority.sol\":5725:5753  delete _pendingPrimeMinister */\n      0x0100\n      exp\n      dup2\n      sload\n      swap1\n      0xffffffffffffffffffffffffffffffffffffffff\n      mul\n      not\n      and\n      swap1\n      sstore\n        /* \"contracts/authority.sol\":5793:5803  msg.sender */\n      caller\n        /* \"contracts/authority.sol\":5768:5782  _primeMinister */\n      0x05\n        /* \"contracts/authority.sol\":5768:5790  _primeMinister.roleAdd */\n      0x00\n      add\n      0x00\n        /* \"contracts/authority.sol\":5768:5803  _primeMinister.roleAdd = msg.sender */\n      0x0100\n      exp\n      dup2\n      sload\n      dup2\n      0xffffffffffffffffffffffffffffffffffffffff\n      mul\n      not\n      and\n      swap1\n      dup4\n      0xffffffffffffffffffffffffffffffffffffffff\n      and\n      mul\n      or\n      swap1\n      sstore\n      pop\n        /* \"contracts/authority.sol\":5818:5832  _primeMinister */\n      0x05\n        /* \"contracts/authority.sol\":5818:5838  _primeMinister.nonce */\n      0x00\n      add\n      0x15\n        /* \"contracts/authority.sol\":5818:5840  _primeMinister.nonce++ */\n      dup2\n      dup2\n      swap1\n      sload\n      swap1\n      0x0100\n      exp\n      swap1\n      div\n      0xffffffff\n      and\n      dup1\n      swap3\n      swap2\n      swap1\n      tag_118\n      swap1\n      tag_113\n      jump\t// in\n    tag_118:\n      swap2\n      swap1\n      0x0100\n      exp\n      dup2\n      sload\n      dup2\n      0xffffffff\n      mul\n      not\n      and\n      swap1\n      dup4\n      0xffffffff\n      and\n      mul\n      or\n      swap1\n      sstore\n      pop\n      pop\n        /* \"contracts/authority.sol\":5859:5873  _primeMinister */\n      0x05\n        /* \"contracts/authority.sol\":5859:5879  _primeMinister.baned */\n      0x00\n      add\n      0x14\n      swap1\n      sload\n      swap1\n      0x0100\n      exp\n      swap1\n      div\n      0xff\n      and\n        /* \"contracts/authority.sol\":5855:5944  if (_primeMinister.baned){... */\n      iszero\n      tag_119\n      jumpi\n        /* \"contracts/authority.sol\":5899:5928  _setPrimeMinisterBaned(false) */\n      tag_120\n        /* \"contracts/authority.sol\":5922:5927  false */\n      0x00\n        /* \"contracts/authority.sol\":5899:5921  _setPrimeMinisterBaned */\n      tag_101\n        /* \"contracts/authority.sol\":5899:5928  _setPrimeMinisterBaned(false) */\n      jump\t// in\n    tag_120:\n        /* \"contracts/authority.sol\":5855:5944  if (_primeMinister.baned){... */\n    tag_119:\n        /* \"contracts/authority.sol\":6019:6033  _primeMinister */\n      0x05\n        /* \"contracts/authority.sol\":6019:6039  _primeMinister.nonce */\n      0x00\n      add\n      0x15\n      swap1\n      sload\n      swap1\n      0x0100\n      exp\n      swap1\n      div\n      0xffffffff\n      and\n        /* \"contracts/authority.sol\":5963:6040  TheNewPrimeMinisterWasConfirmed(_primeMinister.roleAdd, _primeMinister.nonce) */\n      0xffffffff\n      and\n        /* \"contracts/authority.sol\":5995:6009  _primeMinister */\n      0x05\n        /* \"contracts/authority.sol\":5995:6017  _primeMinister.roleAdd */\n      0x00\n      add\n      0x00\n      swap1\n      sload\n      swap1\n      0x0100\n      exp\n      swap1\n      div\n      0xffffffffffffffffffffffffffffffffffffffff\n      and\n        /* \"contracts/authority.sol\":5963:6040  TheNewPrimeMinisterWasConfirmed(_primeMinister.roleAdd, _primeMinister.nonce) */\n      0xffffffffffffffffffffffffffffffffffffffff\n      and\n      0x11e1b985c07e1bf3fec9bfd0bdb8c4a8e870ba2b26aa89fe50a6a19132ca10fd\n      mload(0x40)\n      mload(0x40)\n      dup1\n      swap2\n      sub\n      swap1\n      log3\n        /* \"contracts/authority.sol\":5669:6100  if (_pendingPrimeMinister == msg.sender) {... */\n      jump(tag_121)\n    tag_117:\n        /* \"contracts/authority.sol\":6067:6100  AccessOnlyForThePendigPresident() */\n      mload(0x40)\n      0xb513955100000000000000000000000000000000000000000000000000000000\n      dup2\n      mstore\n      0x04\n      add\n      mload(0x40)\n      dup1\n      swap2\n      sub\n      swap1\n      revert\n        /* \"contracts/authority.sol\":5669:6100  if (_pendingPrimeMinister == msg.sender) {... */\n    tag_121:\n        /* \"contracts/authority.sol\":5618:6108  function transferPrimeMinister() public {... */\n      jump\t// out\n        /* \"contracts/authority.sol\":2735:3291  function setPendingRepublicAddress(address newRAddress) public onlyRepublic {... */\n    tag_39:\n        /* \"contracts/authority.sol\":1965:1980  block.timestamp */\n      timestamp\n        /* \"contracts/authority.sol\":1945:1962  TimeFirstElection */\n      immutable(\"0x243d3ba375e91e040b8b9e2bbbb1688b2b311eacea842eebda952071560e7854\")\n        /* \"contracts/authority.sol\":1945:1980  TimeFirstElection < block.timestamp */\n      0xffffffffffff\n      and\n      lt\n        /* \"contracts/authority.sol\":1941:2168  if (TimeFirstElection < block.timestamp) {... */\n      iszero\n      tag_123\n      jumpi\n        /* \"contracts/authority.sol\":2019:2039  getRepublicAddress() */\n      tag_124\n        /* \"contracts/authority.sol\":2019:2037  getRepublicAddress */\n      tag_71\n        /* \"contracts/authority.sol\":2019:2039  getRepublicAddress() */\n      jump\t// in\n    tag_124:\n        /* \"contracts/authority.sol\":2005:2039  msg.sender == getRepublicAddress() */\n      0xffffffffffffffffffffffffffffffffffffffff\n      and\n        /* \"contracts/authority.sol\":2005:2015  msg.sender */\n      caller\n        /* \"contracts/authority.sol\":2005:2039  msg.sender == getRepublicAddress() */\n      0xffffffffffffffffffffffffffffffffffffffff\n      and\n      eq\n        /* \"contracts/authority.sol\":1997:2063  require(msg.sender == getRepublicAddress(), \"Access is not valid\") */\n      tag_125\n      jumpi\n      mload(0x40)\n      0x08c379a000000000000000000000000000000000000000000000000000000000\n      dup2\n      mstore\n      0x04\n      add\n      tag_126\n      swap1\n      tag_90\n      jump\t// in\n    tag_126:\n      mload(0x40)\n      dup1\n      swap2\n      sub\n      swap1\n      revert\n    tag_125:\n        /* \"contracts/authority.sol\":1941:2168  if (TimeFirstElection < block.timestamp) {... */\n      jump(tag_127)\n    tag_123:\n        /* \"contracts/authority.sol\":2105:2122  getPresidentAdd() */\n      tag_128\n        /* \"contracts/authority.sol\":2105:2120  getPresidentAdd */\n      tag_51\n        /* \"contracts/authority.sol\":2105:2122  getPresidentAdd() */\n      jump\t// in\n    tag_128:\n        /* \"contracts/authority.sol\":2091:2122  msg.sender == getPresidentAdd() */\n      0xffffffffffffffffffffffffffffffffffffffff\n      and\n        /* \"contracts/authority.sol\":2091:2101  msg.sender */\n      caller\n        /* \"contracts/authority.sol\":2091:2122  msg.sender == getPresidentAdd() */\n      0xffffffffffffffffffffffffffffffffffffffff\n      and\n      eq\n        /* \"contracts/authority.sol\":2091:2144  msg.sender == getPresidentAdd() && !getPresidentBan() */\n      dup1\n      iszero\n      tag_129\n      jumpi\n      pop\n        /* \"contracts/authority.sol\":2127:2144  getPresidentBan() */\n      tag_130\n        /* \"contracts/authority.sol\":2127:2142  getPresidentBan */\n      tag_54\n        /* \"contracts/authority.sol\":2127:2144  getPresidentBan() */\n      jump\t// in\n    tag_130:\n        /* \"contracts/authority.sol\":2126:2144  !getPresidentBan() */\n      iszero\n        /* \"contracts/authority.sol\":2091:2144  msg.sender == getPresidentAdd() && !getPresidentBan() */\n    tag_129:\n        /* \"contracts/authority.sol\":2083:2168  require(msg.sender == getPresidentAdd() && !getPresidentBan(), \"Access is not valid\") */\n      tag_131\n      jumpi\n      mload(0x40)\n      0x08c379a000000000000000000000000000000000000000000000000000000000\n      dup2\n      mstore\n      0x04\n      add\n      tag_132\n      swap1\n      tag_90\n      jump\t// in\n    tag_132:\n      mload(0x40)\n      dup1\n      swap2\n      sub\n      swap1\n      revert\n    tag_131:\n        /* \"contracts/authority.sol\":1941:2168  if (TimeFirstElection < block.timestamp) {... */\n    tag_127:\n        /* \"contracts/authority.sol\":2852:2853  0 */\n      0x00\n        /* \"contracts/authority.sol\":2826:2837  newRAddress */\n      dup2\n        /* \"contracts/authority.sol\":2826:2849  newRAddress.code.length */\n      0xffffffffffffffffffffffffffffffffffffffff\n      and\n      extcodesize\n        /* \"contracts/authority.sol\":2826:2853  newRAddress.code.length > 0 */\n      gt\n        /* \"contracts/authority.sol\":2822:3281  if (newRAddress.code.length > 0) {... */\n      iszero\n      tag_134\n      jumpi\n        /* \"contracts/authority.sol\":2896:2906  msg.sender */\n      caller\n        /* \"contracts/authority.sol\":2874:2906  _president.roleAdd == msg.sender */\n      0xffffffffffffffffffffffffffffffffffffffff\n      and\n        /* \"contracts/authority.sol\":2874:2884  _president */\n      0x04\n        /* \"contracts/authority.sol\":2874:2892  _president.roleAdd */\n      0x00\n      add\n      0x00\n      swap1\n      sload\n      swap1\n      0x0100\n      exp\n      swap1\n      div\n      0xffffffffffffffffffffffffffffffffffffffff\n      and\n        /* \"contracts/authority.sol\":2874:2906  _president.roleAdd == msg.sender */\n      0xffffffffffffffffffffffffffffffffffffffff\n      and\n      sub\n        /* \"contracts/authority.sol\":2870:3211  if (_president.roleAdd == msg.sender) {... */\n      tag_135\n      jumpi\n        /* \"contracts/authority.sol\":2927:2964  _transferRepublicAddress(newRAddress) */\n      tag_136\n        /* \"contracts/authority.sol\":2952:2963  newRAddress */\n      dup2\n        /* \"contracts/authority.sol\":2927:2951  _transferRepublicAddress */\n      tag_137\n        /* \"contracts/authority.sol\":2927:2964  _transferRepublicAddress(newRAddress) */\n      jump\t// in\n    tag_136:\n        /* \"contracts/authority.sol\":2870:3211  if (_president.roleAdd == msg.sender) {... */\n      jump(tag_138)\n    tag_135:\n        /* \"contracts/authority.sol\":3063:3070  15 days */\n      0x13c680\n        /* \"contracts/authority.sol\":3045:3060  block.timestamp */\n      timestamp\n        /* \"contracts/authority.sol\":3045:3070  block.timestamp + 15 days */\n      tag_139\n      swap2\n      swap1\n      tag_140\n      jump\t// in\n    tag_139:\n        /* \"contracts/authority.sol\":3007:3035  _delayConfirmRepublicAddress */\n      0x03\n      0x14\n        /* \"contracts/authority.sol\":3007:3071  _delayConfirmRepublicAddress = uint48(block.timestamp + 15 days) */\n      0x0100\n      exp\n      dup2\n      sload\n      dup2\n      0xffffffffffff\n      mul\n      not\n      and\n      swap1\n      dup4\n      0xffffffffffff\n      and\n      mul\n      or\n      swap1\n      sstore\n      pop\n        /* \"contracts/authority.sol\":3115:3126  newRAddress */\n      dup1\n        /* \"contracts/authority.sol\":3090:3112  _pendigRepublicAddress */\n      0x00\n      dup1\n        /* \"contracts/authority.sol\":3090:3126  _pendigRepublicAddress = newRAddress */\n      0x0100\n      exp\n      dup2\n      sload\n      dup2\n      0xffffffffffffffffffffffffffffffffffffffff\n      mul\n      not\n      and\n      swap1\n      dup4\n      0xffffffffffffffffffffffffffffffffffffffff\n      and\n      mul\n      or\n      swap1\n      sstore\n      pop\n        /* \"contracts/authority.sol\":3183:3194  newRAddress */\n      dup1\n        /* \"contracts/authority.sol\":3150:3195  TheNextRepublicAddressWasElected(newRAddress) */\n      0xffffffffffffffffffffffffffffffffffffffff\n      and\n      0x675b770e821ba4aad20be77c58f912d689226272e805637f42f838a6035eed86\n      mload(0x40)\n      mload(0x40)\n      dup1\n      swap2\n      sub\n      swap1\n      log2\n        /* \"contracts/authority.sol\":2870:3211  if (_president.roleAdd == msg.sender) {... */\n    tag_138:\n        /* \"contracts/authority.sol\":2822:3281  if (newRAddress.code.length > 0) {... */\n      jump(tag_141)\n    tag_134:\n        /* \"contracts/authority.sol\":3269:3280  newRAddress */\n      dup1\n        /* \"contracts/authority.sol\":3237:3281  TheAddressIsNotValidForRAddress(newRAddress) */\n      mload(0x40)\n      0xc632231500000000000000000000000000000000000000000000000000000000\n      dup2\n      mstore\n      0x04\n      add\n      tag_142\n      swap2\n      swap1\n      tag_43\n      jump\t// in\n    tag_142:\n      mload(0x40)\n      dup1\n      swap2\n      sub\n      swap1\n      revert\n        /* \"contracts/authority.sol\":2822:3281  if (newRAddress.code.length > 0) {... */\n    tag_141:\n        /* \"contracts/authority.sol\":2735:3291  function setPendingRepublicAddress(address newRAddress) public onlyRepublic {... */\n      pop\n      jump\t// out\n        /* \"contracts/authority.sol\":7097:7197  function getGovernance() public view returns (address) {... */\n    tag_41:\n        /* \"contracts/authority.sol\":7143:7150  address */\n      0x00\n        /* \"contracts/authority.sol\":7170:7181  _governance */\n      0x06\n        /* \"contracts/authority.sol\":7170:7189  _governance.roleAdd */\n      0x00\n      add\n      0x00\n      swap1\n      sload\n      swap1\n      0x0100\n      exp\n      swap1\n      div\n      0xffffffffffffffffffffffffffffffffffffffff\n      and\n        /* \"contracts/authority.sol\":7163:7189  return _governance.roleAdd */\n      swap1\n      pop\n        /* \"contracts/authority.sol\":7097:7197  function getGovernance() public view returns (address) {... */\n      swap1\n      jump\t// out\n        /* \"contracts/authority.sol\":3937:4311  function cancelPendingRepublicAddress(address PRAdress) public onlyRepublic {... */\n    tag_46:\n        /* \"contracts/authority.sol\":1965:1980  block.timestamp */\n      timestamp\n        /* \"contracts/authority.sol\":1945:1962  TimeFirstElection */\n      immutable(\"0x243d3ba375e91e040b8b9e2bbbb1688b2b311eacea842eebda952071560e7854\")\n        /* \"contracts/authority.sol\":1945:1980  TimeFirstElection < block.timestamp */\n      0xffffffffffff\n      and\n      lt\n        /* \"contracts/authority.sol\":1941:2168  if (TimeFirstElection < block.timestamp) {... */\n      iszero\n      tag_145\n      jumpi\n        /* \"contracts/authority.sol\":2019:2039  getRepublicAddress() */\n      tag_146\n        /* \"contracts/authority.sol\":2019:2037  getRepublicAddress */\n      tag_71\n        /* \"contracts/authority.sol\":2019:2039  getRepublicAddress() */\n      jump\t// in\n    tag_146:\n        /* \"contracts/authority.sol\":2005:2039  msg.sender == getRepublicAddress() */\n      0xffffffffffffffffffffffffffffffffffffffff\n      and\n        /* \"contracts/authority.sol\":2005:2015  msg.sender */\n      caller\n        /* \"contracts/authority.sol\":2005:2039  msg.sender == getRepublicAddress() */\n      0xffffffffffffffffffffffffffffffffffffffff\n      and\n      eq\n        /* \"contracts/authority.sol\":1997:2063  require(msg.sender == getRepublicAddress(), \"Access is not valid\") */\n      tag_147\n      jumpi\n      mload(0x40)\n      0x08c379a000000000000000000000000000000000000000000000000000000000\n      dup2\n      mstore\n      0x04\n      add\n      tag_148\n      swap1\n      tag_90\n      jump\t// in\n    tag_148:\n      mload(0x40)\n      dup1\n      swap2\n      sub\n      swap1\n      revert\n    tag_147:\n        /* \"contracts/authority.sol\":1941:2168  if (TimeFirstElection < block.timestamp) {... */\n      jump(tag_149)\n    tag_145:\n        /* \"contracts/authority.sol\":2105:2122  getPresidentAdd() */\n      tag_150\n        /* \"contracts/authority.sol\":2105:2120  getPresidentAdd */\n      tag_51\n        /* \"contracts/authority.sol\":2105:2122  getPresidentAdd() */\n      jump\t// in\n    tag_150:\n        /* \"contracts/authority.sol\":2091:2122  msg.sender == getPresidentAdd() */\n      0xffffffffffffffffffffffffffffffffffffffff\n      and\n        /* \"contracts/authority.sol\":2091:2101  msg.sender */\n      caller\n        /* \"contracts/authority.sol\":2091:2122  msg.sender == getPresidentAdd() */\n      0xffffffffffffffffffffffffffffffffffffffff\n      and\n      eq\n        /* \"contracts/authority.sol\":2091:2144  msg.sender == getPresidentAdd() && !getPresidentBan() */\n      dup1\n      iszero\n      tag_151\n      jumpi\n      pop\n        /* \"contracts/authority.sol\":2127:2144  getPresidentBan() */\n      tag_152\n        /* \"contracts/authority.sol\":2127:2142  getPresidentBan */\n      tag_54\n        /* \"contracts/authority.sol\":2127:2144  getPresidentBan() */\n      jump\t// in\n    tag_152:\n        /* \"contracts/authority.sol\":2126:2144  !getPresidentBan() */\n      iszero\n        /* \"contracts/authority.sol\":2091:2144  msg.sender == getPresidentAdd() && !getPresidentBan() */\n    tag_151:\n        /* \"contracts/authority.sol\":2083:2168  require(msg.sender == getPresidentAdd() && !getPresidentBan(), \"Access is not valid\") */\n      tag_153\n      jumpi\n      mload(0x40)\n      0x08c379a000000000000000000000000000000000000000000000000000000000\n      dup2\n      mstore\n      0x04\n      add\n      tag_154\n      swap1\n      tag_90\n      jump\t// in\n    tag_154:\n      mload(0x40)\n      dup1\n      swap2\n      sub\n      swap1\n      revert\n    tag_153:\n        /* \"contracts/authority.sol\":1941:2168  if (TimeFirstElection < block.timestamp) {... */\n    tag_149:\n        /* \"contracts/authority.sol\":4054:4062  PRAdress */\n      dup1\n        /* \"contracts/authority.sol\":4028:4062  _pendigRepublicAddress == PRAdress */\n      0xffffffffffffffffffffffffffffffffffffffff\n      and\n        /* \"contracts/authority.sol\":4028:4050  _pendigRepublicAddress */\n      0x00\n      dup1\n      sload\n      swap1\n      0x0100\n      exp\n      swap1\n      div\n      0xffffffffffffffffffffffffffffffffffffffff\n      and\n        /* \"contracts/authority.sol\":4028:4062  _pendigRepublicAddress == PRAdress */\n      0xffffffffffffffffffffffffffffffffffffffff\n      and\n      sub\n        /* \"contracts/authority.sol\":4024:4303  if (_pendigRepublicAddress == PRAdress) {... */\n      tag_156\n      jumpi\n        /* \"contracts/authority.sol\":4090:4118  _delayConfirmRepublicAddress */\n      0x03\n      0x14\n        /* \"contracts/authority.sol\":4083:4118  delete _delayConfirmRepublicAddress */\n      0x0100\n      exp\n      dup2\n      sload\n      swap1\n      0xffffffffffff\n      mul\n      not\n      and\n      swap1\n      sstore\n        /* \"contracts/authority.sol\":4144:4166  _pendigRepublicAddress */\n      0x00\n      dup1\n        /* \"contracts/authority.sol\":4137:4166  delete _pendigRepublicAddress */\n      0x0100\n      exp\n      dup2\n      sload\n      swap1\n      0xffffffffffffffffffffffffffffffffffffffff\n      mul\n      not\n      and\n      swap1\n      sstore\n        /* \"contracts/authority.sol\":4226:4234  PRAdress */\n      dup1\n        /* \"contracts/authority.sol\":4191:4235  TheNextRepublicAddressWasCancelled(PRAdress) */\n      0xffffffffffffffffffffffffffffffffffffffff\n      and\n      0xf299f61c7e493f99b20cb36c587ca903d085d5206bfe4452d295711e372da029\n      mload(0x40)\n      mload(0x40)\n      dup1\n      swap2\n      sub\n      swap1\n      log2\n        /* \"contracts/authority.sol\":4024:4303  if (_pendigRepublicAddress == PRAdress) {... */\n      jump(tag_157)\n    tag_156:\n        /* \"contracts/authority.sol\":4294:4302  PRAdress */\n      dup1\n        /* \"contracts/authority.sol\":4262:4303  TheAddressIsNotValidForRAddress(PRAdress) */\n      mload(0x40)\n      0xc632231500000000000000000000000000000000000000000000000000000000\n      dup2\n      mstore\n      0x04\n      add\n      tag_158\n      swap2\n      swap1\n      tag_43\n      jump\t// in\n    tag_158:\n      mload(0x40)\n      dup1\n      swap2\n      sub\n      swap1\n      revert\n        /* \"contracts/authority.sol\":4024:4303  if (_pendigRepublicAddress == PRAdress) {... */\n    tag_157:\n        /* \"contracts/authority.sol\":3937:4311  function cancelPendingRepublicAddress(address PRAdress) public onlyRepublic {... */\n      pop\n      jump\t// out\n        /* \"contracts/authority.sol\":5438:5610  function setPendingPrimeMinister(address newPM) public onlyPresident {... */\n    tag_49:\n        /* \"contracts/authority.sol\":2256:2273  getPresidentAdd() */\n      tag_160\n        /* \"contracts/authority.sol\":2256:2271  getPresidentAdd */\n      tag_51\n        /* \"contracts/authority.sol\":2256:2273  getPresidentAdd() */\n      jump\t// in\n    tag_160:\n        /* \"contracts/authority.sol\":2242:2273  msg.sender == getPresidentAdd() */\n      0xffffffffffffffffffffffffffffffffffffffff\n      and\n        /* \"contracts/authority.sol\":2242:2252  msg.sender */\n      caller\n        /* \"contracts/authority.sol\":2242:2273  msg.sender == getPresidentAdd() */\n      0xffffffffffffffffffffffffffffffffffffffff\n      and\n      eq\n        /* \"contracts/authority.sol\":2242:2295  msg.sender == getPresidentAdd() && !getPresidentBan() */\n      dup1\n      iszero\n      tag_161\n      jumpi\n      pop\n        /* \"contracts/authority.sol\":2278:2295  getPresidentBan() */\n      tag_162\n        /* \"contracts/authority.sol\":2278:2293  getPresidentBan */\n      tag_54\n        /* \"contracts/authority.sol\":2278:2295  getPresidentBan() */\n      jump\t// in\n    tag_162:\n        /* \"contracts/authority.sol\":2277:2295  !getPresidentBan() */\n      iszero\n        /* \"contracts/authority.sol\":2242:2295  msg.sender == getPresidentAdd() && !getPresidentBan() */\n    tag_161:\n        /* \"contracts/authority.sol\":2234:2319  require(msg.sender == getPresidentAdd() && !getPresidentBan(), \"Access is not valid\") */\n      tag_163\n      jumpi\n      mload(0x40)\n      0x08c379a000000000000000000000000000000000000000000000000000000000\n      dup2\n      mstore\n      0x04\n      add\n      tag_164\n      swap1\n      tag_90\n      jump\t// in\n    tag_164:\n      mload(0x40)\n      dup1\n      swap2\n      sub\n      swap1\n      revert\n    tag_163:\n        /* \"contracts/authority.sol\":5542:5547  newPM */\n      dup1\n        /* \"contracts/authority.sol\":5518:5539  _pendingPrimeMinister */\n      0x03\n      0x00\n        /* \"contracts/authority.sol\":5518:5547  _pendingPrimeMinister = newPM */\n      0x0100\n      exp\n      dup2\n      sload\n      dup2\n      0xffffffffffffffffffffffffffffffffffffffff\n      mul\n      not\n      and\n      swap1\n      dup4\n      0xffffffffffffffffffffffffffffffffffffffff\n      and\n      mul\n      or\n      swap1\n      sstore\n      pop\n        /* \"contracts/authority.sol\":5596:5601  newPM */\n      dup1\n        /* \"contracts/authority.sol\":5565:5602  TheNextPrimeMinisterWasElected(newPM) */\n      0xffffffffffffffffffffffffffffffffffffffff\n      and\n      0xff3cad3ee28c342ad5f3d7c8ff8559ee4d21eb48494092b82a1652e443b3420b\n      mload(0x40)\n      mload(0x40)\n      dup1\n      swap2\n      sub\n      swap1\n      log2\n        /* \"contracts/authority.sol\":5438:5610  function setPendingPrimeMinister(address newPM) public onlyPresident {... */\n      pop\n      jump\t// out\n        /* \"contracts/authority.sol\":5225:5326  function getPresidentAdd() public view returns (address) {... */\n    tag_51:\n        /* \"contracts/authority.sol\":5273:5280  address */\n      0x00\n        /* \"contracts/authority.sol\":5300:5310  _president */\n      0x04\n        /* \"contracts/authority.sol\":5300:5318  _president.roleAdd */\n      0x00\n      add\n      0x00\n      swap1\n      sload\n      swap1\n      0x0100\n      exp\n      swap1\n      div\n      0xffffffffffffffffffffffffffffffffffffffff\n      and\n        /* \"contracts/authority.sol\":5293:5318  return _president.roleAdd */\n      swap1\n      pop\n        /* \"contracts/authority.sol\":5225:5326  function getPresidentAdd() public view returns (address) {... */\n      swap1\n      jump\t// out\n        /* \"contracts/authority.sol\":5334:5430  function getPresidentBan() public view returns (bool) {... */\n    tag_54:\n        /* \"contracts/authority.sol\":5382:5386  bool */\n      0x00\n        /* \"contracts/authority.sol\":5406:5416  _president */\n      0x04\n        /* \"contracts/authority.sol\":5406:5422  _president.baned */\n      0x00\n      add\n      0x14\n      swap1\n      sload\n      swap1\n      0x0100\n      exp\n      swap1\n      div\n      0xff\n      and\n        /* \"contracts/authority.sol\":5399:5422  return _president.baned */\n      swap1\n      pop\n        /* \"contracts/authority.sol\":5334:5430  function getPresidentBan() public view returns (bool) {... */\n      swap1\n      jump\t// out\n        /* \"contracts/authority.sol\":3299:3929  function transferRepublicAddress(address RAddress) public onlyRepublic {... */\n    tag_59:\n        /* \"contracts/authority.sol\":1965:1980  block.timestamp */\n      timestamp\n        /* \"contracts/authority.sol\":1945:1962  TimeFirstElection */\n      immutable(\"0x243d3ba375e91e040b8b9e2bbbb1688b2b311eacea842eebda952071560e7854\")\n        /* \"contracts/authority.sol\":1945:1980  TimeFirstElection < block.timestamp */\n      0xffffffffffff\n      and\n      lt\n        /* \"contracts/authority.sol\":1941:2168  if (TimeFirstElection < block.timestamp) {... */\n      iszero\n      tag_169\n      jumpi\n        /* \"contracts/authority.sol\":2019:2039  getRepublicAddress() */\n      tag_170\n        /* \"contracts/authority.sol\":2019:2037  getRepublicAddress */\n      tag_71\n        /* \"contracts/authority.sol\":2019:2039  getRepublicAddress() */\n      jump\t// in\n    tag_170:\n        /* \"contracts/authority.sol\":2005:2039  msg.sender == getRepublicAddress() */\n      0xffffffffffffffffffffffffffffffffffffffff\n      and\n        /* \"contracts/authority.sol\":2005:2015  msg.sender */\n      caller\n        /* \"contracts/authority.sol\":2005:2039  msg.sender == getRepublicAddress() */\n      0xffffffffffffffffffffffffffffffffffffffff\n      and\n      eq\n        /* \"contracts/authority.sol\":1997:2063  require(msg.sender == getRepublicAddress(), \"Access is not valid\") */\n      tag_171\n      jumpi\n      mload(0x40)\n      0x08c379a000000000000000000000000000000000000000000000000000000000\n      dup2\n      mstore\n      0x04\n      add\n      tag_172\n      swap1\n      tag_90\n      jump\t// in\n    tag_172:\n      mload(0x40)\n      dup1\n      swap2\n      sub\n      swap1\n      revert\n    tag_171:\n        /* \"contracts/authority.sol\":1941:2168  if (TimeFirstElection < block.timestamp) {... */\n      jump(tag_173)\n    tag_169:\n        /* \"contracts/authority.sol\":2105:2122  getPresidentAdd() */\n      tag_174\n        /* \"contracts/authority.sol\":2105:2120  getPresidentAdd */\n      tag_51\n        /* \"contracts/authority.sol\":2105:2122  getPresidentAdd() */\n      jump\t// in\n    tag_174:\n        /* \"contracts/authority.sol\":2091:2122  msg.sender == getPresidentAdd() */\n      0xffffffffffffffffffffffffffffffffffffffff\n      and\n        /* \"contracts/authority.sol\":2091:2101  msg.sender */\n      caller\n        /* \"contracts/authority.sol\":2091:2122  msg.sender == getPresidentAdd() */\n      0xffffffffffffffffffffffffffffffffffffffff\n      and\n      eq\n        /* \"contracts/authority.sol\":2091:2144  msg.sender == getPresidentAdd() && !getPresidentBan() */\n      dup1\n      iszero\n      tag_175\n      jumpi\n      pop\n        /* \"contracts/authority.sol\":2127:2144  getPresidentBan() */\n      tag_176\n        /* \"contracts/authority.sol\":2127:2142  getPresidentBan */\n      tag_54\n        /* \"contracts/authority.sol\":2127:2144  getPresidentBan() */\n      jump\t// in\n    tag_176:\n        /* \"contracts/authority.sol\":2126:2144  !getPresidentBan() */\n      iszero\n        /* \"contracts/authority.sol\":2091:2144  msg.sender == getPresidentAdd() && !getPresidentBan() */\n    tag_175:\n        /* \"contracts/authority.sol\":2083:2168  require(msg.sender == getPresidentAdd() && !getPresidentBan(), \"Access is not valid\") */\n      tag_177\n      jumpi\n      mload(0x40)\n      0x08c379a000000000000000000000000000000000000000000000000000000000\n      dup2\n      mstore\n      0x04\n      add\n      tag_178\n      swap1\n      tag_90\n      jump\t// in\n    tag_178:\n      mload(0x40)\n      dup1\n      swap2\n      sub\n      swap1\n      revert\n    tag_177:\n        /* \"contracts/authority.sol\":1941:2168  if (TimeFirstElection < block.timestamp) {... */\n    tag_173:\n        /* \"contracts/authority.sol\":3416:3431  block.timestamp */\n      timestamp\n        /* \"contracts/authority.sol\":3385:3413  _delayConfirmRepublicAddress */\n      0x03\n      0x14\n      swap1\n      sload\n      swap1\n      0x0100\n      exp\n      swap1\n      div\n      0xffffffffffff\n      and\n        /* \"contracts/authority.sol\":3385:3431  _delayConfirmRepublicAddress < block.timestamp */\n      0xffffffffffff\n      and\n      lt\n        /* \"contracts/authority.sol\":3381:3921  if (_delayConfirmRepublicAddress < block.timestamp) {... */\n      iszero\n      tag_180\n      jumpi\n        /* \"contracts/authority.sol\":3488:3489  0 */\n      0x00\n        /* \"contracts/authority.sol\":3456:3484  _delayConfirmRepublicAddress */\n      0x03\n      0x14\n      swap1\n      sload\n      swap1\n      0x0100\n      exp\n      swap1\n      div\n      0xffffffffffff\n      and\n        /* \"contracts/authority.sol\":3456:3489  _delayConfirmRepublicAddress != 0 */\n      0xffffffffffff\n      and\n      sub\n        /* \"contracts/authority.sol\":3448:3515  require(_delayConfirmRepublicAddress != 0,\"The request is invalid\") */\n      tag_181\n      jumpi\n      mload(0x40)\n      0x08c379a000000000000000000000000000000000000000000000000000000000\n      dup2\n      mstore\n      0x04\n      add\n      tag_182\n      swap1\n      tag_183\n      jump\t// in\n    tag_182:\n      mload(0x40)\n      dup1\n      swap2\n      sub\n      swap1\n      revert\n    tag_181:\n        /* \"contracts/authority.sol\":3560:3568  RAddress */\n      dup1\n        /* \"contracts/authority.sol\":3534:3568  _pendigRepublicAddress == RAddress */\n      0xffffffffffffffffffffffffffffffffffffffff\n      and\n        /* \"contracts/authority.sol\":3534:3556  _pendigRepublicAddress */\n      0x00\n      dup1\n      sload\n      swap1\n      0x0100\n      exp\n      swap1\n      div\n      0xffffffffffffffffffffffffffffffffffffffff\n      and\n        /* \"contracts/authority.sol\":3534:3568  _pendigRepublicAddress == RAddress */\n      0xffffffffffffffffffffffffffffffffffffffff\n      and\n      sub\n        /* \"contracts/authority.sol\":3530:3797  if (_pendigRepublicAddress == RAddress) {... */\n      tag_184\n      jumpi\n        /* \"contracts/authority.sol\":3596:3624  _delayConfirmRepublicAddress */\n      0x03\n      0x14\n        /* \"contracts/authority.sol\":3589:3624  delete _delayConfirmRepublicAddress */\n      0x0100\n      exp\n      dup2\n      sload\n      swap1\n      0xffffffffffff\n      mul\n      not\n      and\n      swap1\n      sstore\n        /* \"contracts/authority.sol\":3650:3672  _pendigRepublicAddress */\n      0x00\n      dup1\n        /* \"contracts/authority.sol\":3643:3672  delete _pendigRepublicAddress */\n      0x0100\n      exp\n      dup2\n      sload\n      swap1\n      0xffffffffffffffffffffffffffffffffffffffff\n      mul\n      not\n      and\n      swap1\n      sstore\n        /* \"contracts/authority.sol\":3691:3725  _transferRepublicAddress(RAddress) */\n      tag_185\n        /* \"contracts/authority.sol\":3716:3724  RAddress */\n      dup2\n        /* \"contracts/authority.sol\":3691:3715  _transferRepublicAddress */\n      tag_137\n        /* \"contracts/authority.sol\":3691:3725  _transferRepublicAddress(RAddress) */\n      jump\t// in\n    tag_185:\n        /* \"contracts/authority.sol\":3530:3797  if (_pendigRepublicAddress == RAddress) {... */\n      jump(tag_186)\n    tag_184:\n        /* \"contracts/authority.sol\":3788:3796  RAddress */\n      dup1\n        /* \"contracts/authority.sol\":3756:3797  TheAddressIsNotValidForRAddress(RAddress) */\n      mload(0x40)\n      0xc632231500000000000000000000000000000000000000000000000000000000\n      dup2\n      mstore\n      0x04\n      add\n      tag_187\n      swap2\n      swap1\n      tag_43\n      jump\t// in\n    tag_187:\n      mload(0x40)\n      dup1\n      swap2\n      sub\n      swap1\n      revert\n        /* \"contracts/authority.sol\":3530:3797  if (_pendigRepublicAddress == RAddress) {... */\n    tag_186:\n        /* \"contracts/authority.sol\":3381:3921  if (_delayConfirmRepublicAddress < block.timestamp) {... */\n      jump(tag_188)\n    tag_180:\n        /* \"contracts/authority.sol\":3904:3919  block.timestamp */\n      timestamp\n        /* \"contracts/authority.sol\":3866:3894  _delayConfirmRepublicAddress */\n      0x03\n      0x14\n      swap1\n      sload\n      swap1\n      0x0100\n      exp\n      swap1\n      div\n      0xffffffffffff\n      and\n        /* \"contracts/authority.sol\":3866:3920  _delayConfirmRepublicAddress - uint48(block.timestamp) */\n      tag_189\n      swap2\n      swap1\n      tag_190\n      jump\t// in\n    tag_189:\n        /* \"contracts/authority.sol\":3824:3921  RemainingTimeUntilTheConfirmationDeadline(_delayConfirmRepublicAddress - uint48(block.timestamp)) */\n      mload(0x40)\n      0x223a6cbb00000000000000000000000000000000000000000000000000000000\n      dup2\n      mstore\n      0x04\n      add\n      tag_191\n      swap2\n      swap1\n      tag_192\n      jump\t// in\n    tag_191:\n      mload(0x40)\n      dup1\n      swap2\n      sub\n      swap1\n      revert\n        /* \"contracts/authority.sol\":3381:3921  if (_delayConfirmRepublicAddress < block.timestamp) {... */\n    tag_188:\n        /* \"contracts/authority.sol\":3299:3929  function transferRepublicAddress(address RAddress) public onlyRepublic {... */\n      pop\n      jump\t// out\n        /* \"contracts/authority.sol\":6116:6225  function getPrimeMinisterAdd() public view returns (address) {... */\n    tag_61:\n        /* \"contracts/authority.sol\":6168:6175  address */\n      0x00\n        /* \"contracts/authority.sol\":6195:6209  _primeMinister */\n      0x05\n        /* \"contracts/authority.sol\":6195:6217  _primeMinister.roleAdd */\n      0x00\n      add\n      0x00\n      swap1\n      sload\n      swap1\n      0x0100\n      exp\n      swap1\n      div\n      0xffffffffffffffffffffffffffffffffffffffff\n      and\n        /* \"contracts/authority.sol\":6188:6217  return _primeMinister.roleAdd */\n      swap1\n      pop\n        /* \"contracts/authority.sol\":6116:6225  function getPrimeMinisterAdd() public view returns (address) {... */\n      swap1\n      jump\t// out\n        /* \"contracts/authority.sol\":7317:7460  function setPresidentBaned(bool baned) public onlyRepublic {... */\n    tag_65:\n        /* \"contracts/authority.sol\":1965:1980  block.timestamp */\n      timestamp\n        /* \"contracts/authority.sol\":1945:1962  TimeFirstElection */\n      immutable(\"0x243d3ba375e91e040b8b9e2bbbb1688b2b311eacea842eebda952071560e7854\")\n        /* \"contracts/authority.sol\":1945:1980  TimeFirstElection < block.timestamp */\n      0xffffffffffff\n      and\n      lt\n        /* \"contracts/authority.sol\":1941:2168  if (TimeFirstElection < block.timestamp) {... */\n      iszero\n      tag_195\n      jumpi\n        /* \"contracts/authority.sol\":2019:2039  getRepublicAddress() */\n      tag_196\n        /* \"contracts/authority.sol\":2019:2037  getRepublicAddress */\n      tag_71\n        /* \"contracts/authority.sol\":2019:2039  getRepublicAddress() */\n      jump\t// in\n    tag_196:\n        /* \"contracts/authority.sol\":2005:2039  msg.sender == getRepublicAddress() */\n      0xffffffffffffffffffffffffffffffffffffffff\n      and\n        /* \"contracts/authority.sol\":2005:2015  msg.sender */\n      caller\n        /* \"contracts/authority.sol\":2005:2039  msg.sender == getRepublicAddress() */\n      0xffffffffffffffffffffffffffffffffffffffff\n      and\n      eq\n        /* \"contracts/authority.sol\":1997:2063  require(msg.sender == getRepublicAddress(), \"Access is not valid\") */\n      tag_197\n      jumpi\n      mload(0x40)\n      0x08c379a000000000000000000000000000000000000000000000000000000000\n      dup2\n      mstore\n      0x04\n      add\n      tag_198\n      swap1\n      tag_90\n      jump\t// in\n    tag_198:\n      mload(0x40)\n      dup1\n      swap2\n      sub\n      swap1\n      revert\n    tag_197:\n        /* \"contracts/authority.sol\":1941:2168  if (TimeFirstElection < block.timestamp) {... */\n      jump(tag_199)\n    tag_195:\n        /* \"contracts/authority.sol\":2105:2122  getPresidentAdd() */\n      tag_200\n        /* \"contracts/authority.sol\":2105:2120  getPresidentAdd */\n      tag_51\n        /* \"contracts/authority.sol\":2105:2122  getPresidentAdd() */\n      jump\t// in\n    tag_200:\n        /* \"contracts/authority.sol\":2091:2122  msg.sender == getPresidentAdd() */\n      0xffffffffffffffffffffffffffffffffffffffff\n      and\n        /* \"contracts/authority.sol\":2091:2101  msg.sender */\n      caller\n        /* \"contracts/authority.sol\":2091:2122  msg.sender == getPresidentAdd() */\n      0xffffffffffffffffffffffffffffffffffffffff\n      and\n      eq\n        /* \"contracts/authority.sol\":2091:2144  msg.sender == getPresidentAdd() && !getPresidentBan() */\n      dup1\n      iszero\n      tag_201\n      jumpi\n      pop\n        /* \"contracts/authority.sol\":2127:2144  getPresidentBan() */\n      tag_202\n        /* \"contracts/authority.sol\":2127:2142  getPresidentBan */\n      tag_54\n        /* \"contracts/authority.sol\":2127:2144  getPresidentBan() */\n      jump\t// in\n    tag_202:\n        /* \"contracts/authority.sol\":2126:2144  !getPresidentBan() */\n      iszero\n        /* \"contracts/authority.sol\":2091:2144  msg.sender == getPresidentAdd() && !getPresidentBan() */\n    tag_201:\n        /* \"contracts/authority.sol\":2083:2168  require(msg.sender == getPresidentAdd() && !getPresidentBan(), \"Access is not valid\") */\n      tag_203\n      jumpi\n      mload(0x40)\n      0x08c379a000000000000000000000000000000000000000000000000000000000\n      dup2\n      mstore\n      0x04\n      add\n      tag_204\n      swap1\n      tag_90\n      jump\t// in\n    tag_204:\n      mload(0x40)\n      dup1\n      swap2\n      sub\n      swap1\n      revert\n    tag_203:\n        /* \"contracts/authority.sol\":1941:2168  if (TimeFirstElection < block.timestamp) {... */\n    tag_199:\n        /* \"contracts/authority.sol\":7387:7412  _setPresidentBaned(baned) */\n      tag_206\n        /* \"contracts/authority.sol\":7406:7411  baned */\n      dup2\n        /* \"contracts/authority.sol\":7387:7405  _setPresidentBaned */\n      tag_99\n        /* \"contracts/authority.sol\":7387:7412  _setPresidentBaned(baned) */\n      jump\t// in\n    tag_206:\n        /* \"contracts/authority.sol\":7423:7452  _setPrimeMinisterBaned(baned) */\n      tag_207\n        /* \"contracts/authority.sol\":7446:7451  baned */\n      dup2\n        /* \"contracts/authority.sol\":7423:7445  _setPrimeMinisterBaned */\n      tag_101\n        /* \"contracts/authority.sol\":7423:7452  _setPrimeMinisterBaned(baned) */\n      jump\t// in\n    tag_207:\n        /* \"contracts/authority.sol\":7317:7460  function setPresidentBaned(bool baned) public onlyRepublic {... */\n      pop\n      jump\t// out\n        /* \"contracts/authority.sol\":7205:7309  function getgovernanceVersion() public view returns (uint32) {... */\n    tag_67:\n        /* \"contracts/authority.sol\":7258:7264  uint32 */\n      0x00\n        /* \"contracts/authority.sol\":7284:7295  _governance */\n      0x06\n        /* \"contracts/authority.sol\":7284:7301  _governance.nonce */\n      0x00\n      add\n      0x15\n      swap1\n      sload\n      swap1\n      0x0100\n      exp\n      swap1\n      div\n      0xffffffff\n      and\n        /* \"contracts/authority.sol\":7277:7301  return _governance.nonce */\n      swap1\n      pop\n        /* \"contracts/authority.sol\":7205:7309  function getgovernanceVersion() public view returns (uint32) {... */\n      swap1\n      jump\t// out\n        /* \"contracts/authority.sol\":4319:4433  function getRepublicAddress() public view returns (address RG) {... */\n    tag_71:\n        /* \"contracts/authority.sol\":4370:4380  address RG */\n      0x00\n        /* \"contracts/authority.sol\":4404:4413  _Republic */\n      0x07\n        /* \"contracts/authority.sol\":4404:4421  _Republic.roleAdd */\n      0x00\n      add\n      0x00\n      swap1\n      sload\n      swap1\n      0x0100\n      exp\n      swap1\n      div\n      0xffffffffffffffffffffffffffffffffffffffff\n      and\n        /* \"contracts/authority.sol\":4397:4421  return _Republic.roleAdd */\n      swap1\n      pop\n        /* \"contracts/authority.sol\":4319:4433  function getRepublicAddress() public view returns (address RG) {... */\n      swap1\n      jump\t// out\n        /* \"contracts/authority.sol\":6347:6662  function setPendingGovernanceContractAddress(address newGCAddress) public onlyRepublic {... */\n    tag_75:\n        /* \"contracts/authority.sol\":1965:1980  block.timestamp */\n      timestamp\n        /* \"contracts/authority.sol\":1945:1962  TimeFirstElection */\n      immutable(\"0x243d3ba375e91e040b8b9e2bbbb1688b2b311eacea842eebda952071560e7854\")\n        /* \"contracts/authority.sol\":1945:1980  TimeFirstElection < block.timestamp */\n      0xffffffffffff\n      and\n      lt\n        /* \"contracts/authority.sol\":1941:2168  if (TimeFirstElection < block.timestamp) {... */\n      iszero\n      tag_211\n      jumpi\n        /* \"contracts/authority.sol\":2019:2039  getRepublicAddress() */\n      tag_212\n        /* \"contracts/authority.sol\":2019:2037  getRepublicAddress */\n      tag_71\n        /* \"contracts/authority.sol\":2019:2039  getRepublicAddress() */\n      jump\t// in\n    tag_212:\n        /* \"contracts/authority.sol\":2005:2039  msg.sender == getRepublicAddress() */\n      0xffffffffffffffffffffffffffffffffffffffff\n      and\n        /* \"contracts/authority.sol\":2005:2015  msg.sender */\n      caller\n        /* \"contracts/authority.sol\":2005:2039  msg.sender == getRepublicAddress() */\n      0xffffffffffffffffffffffffffffffffffffffff\n      and\n      eq\n        /* \"contracts/authority.sol\":1997:2063  require(msg.sender == getRepublicAddress(), \"Access is not valid\") */\n      tag_213\n      jumpi\n      mload(0x40)\n      0x08c379a000000000000000000000000000000000000000000000000000000000\n      dup2\n      mstore\n      0x04\n      add\n      tag_214\n      swap1\n      tag_90\n      jump\t// in\n    tag_214:\n      mload(0x40)\n      dup1\n      swap2\n      sub\n      swap1\n      revert\n    tag_213:\n        /* \"contracts/authority.sol\":1941:2168  if (TimeFirstElection < block.timestamp) {... */\n      jump(tag_215)\n    tag_211:\n        /* \"contracts/authority.sol\":2105:2122  getPresidentAdd() */\n      tag_216\n        /* \"contracts/authority.sol\":2105:2120  getPresidentAdd */\n      tag_51\n        /* \"contracts/authority.sol\":2105:2122  getPresidentAdd() */\n      jump\t// in\n    tag_216:\n        /* \"contracts/authority.sol\":2091:2122  msg.sender == getPresidentAdd() */\n      0xffffffffffffffffffffffffffffffffffffffff\n      and\n        /* \"contracts/authority.sol\":2091:2101  msg.sender */\n      caller\n        /* \"contracts/authority.sol\":2091:2122  msg.sender == getPresidentAdd() */\n      0xffffffffffffffffffffffffffffffffffffffff\n      and\n      eq\n        /* \"contracts/authority.sol\":2091:2144  msg.sender == getPresidentAdd() && !getPresidentBan() */\n      dup1\n      iszero\n      tag_217\n      jumpi\n      pop\n        /* \"contracts/authority.sol\":2127:2144  getPresidentBan() */\n      tag_218\n        /* \"contracts/authority.sol\":2127:2142  getPresidentBan */\n      tag_54\n        /* \"contracts/authority.sol\":2127:2144  getPresidentBan() */\n      jump\t// in\n    tag_218:\n        /* \"contracts/authority.sol\":2126:2144  !getPresidentBan() */\n      iszero\n        /* \"contracts/authority.sol\":2091:2144  msg.sender == getPresidentAdd() && !getPresidentBan() */\n    tag_217:\n        /* \"contracts/authority.sol\":2083:2168  require(msg.sender == getPresidentAdd() && !getPresidentBan(), \"Access is not valid\") */\n      tag_219\n      jumpi\n      mload(0x40)\n      0x08c379a000000000000000000000000000000000000000000000000000000000\n      dup2\n      mstore\n      0x04\n      add\n      tag_220\n      swap1\n      tag_90\n      jump\t// in\n    tag_220:\n      mload(0x40)\n      dup1\n      swap2\n      sub\n      swap1\n      revert\n    tag_219:\n        /* \"contracts/authority.sol\":1941:2168  if (TimeFirstElection < block.timestamp) {... */\n    tag_215:\n        /* \"contracts/authority.sol\":6476:6477  0 */\n      0x00\n        /* \"contracts/authority.sol\":6449:6461  newGCAddress */\n      dup2\n        /* \"contracts/authority.sol\":6449:6473  newGCAddress.code.length */\n      0xffffffffffffffffffffffffffffffffffffffff\n      and\n      extcodesize\n        /* \"contracts/authority.sol\":6449:6477  newGCAddress.code.length > 0 */\n      gt\n        /* \"contracts/authority.sol\":6445:6652  if (newGCAddress.code.length > 0) {... */\n      iszero\n      tag_222\n      jumpi\n        /* \"contracts/authority.sol\":6514:6526  newGCAddress */\n      dup1\n        /* \"contracts/authority.sol\":6494:6511  _pendingGCAddress */\n      0x01\n      0x00\n        /* \"contracts/authority.sol\":6494:6526  _pendingGCAddress = newGCAddress */\n      0x0100\n      exp\n      dup2\n      sload\n      dup2\n      0xffffffffffffffffffffffffffffffffffffffff\n      mul\n      not\n      and\n      swap1\n      dup4\n      0xffffffffffffffffffffffffffffffffffffffff\n      and\n      mul\n      or\n      swap1\n      sstore\n      pop\n        /* \"contracts/authority.sol\":6573:6585  newGCAddress */\n      dup1\n        /* \"contracts/authority.sol\":6546:6586  TheNextGCAddressWasElected(newGCAddress) */\n      0xffffffffffffffffffffffffffffffffffffffff\n      and\n      0xe8d8e3c7c3ebec0c177d0fe22d223f8b5071db39155104808d45027e368ba77a\n      mload(0x40)\n      mload(0x40)\n      dup1\n      swap2\n      sub\n      swap1\n      log2\n        /* \"contracts/authority.sol\":6445:6652  if (newGCAddress.code.length > 0) {... */\n      jump(tag_223)\n    tag_222:\n        /* \"contracts/authority.sol\":6639:6651  newGCAddress */\n      dup1\n        /* \"contracts/authority.sol\":6613:6652  TheAddressIsNotValidForGC(newGCAddress) */\n      mload(0x40)\n      0x84dbc6cb00000000000000000000000000000000000000000000000000000000\n      dup2\n      mstore\n      0x04\n      add\n      tag_224\n      swap2\n      swap1\n      tag_43\n      jump\t// in\n    tag_224:\n      mload(0x40)\n      dup1\n      swap2\n      sub\n      swap1\n      revert\n        /* \"contracts/authority.sol\":6445:6652  if (newGCAddress.code.length > 0) {... */\n    tag_223:\n        /* \"contracts/authority.sol\":6347:6662  function setPendingGovernanceContractAddress(address newGCAddress) public onlyRepublic {... */\n      pop\n      jump\t// out\n        /* \"contracts/authority.sol\":4445:4554  function getAuthorityAddress() public view returns (address) {... */\n    tag_77:\n        /* \"contracts/authority.sol\":4497:4504  address */\n      0x00\n        /* \"contracts/authority.sol\":4537:4541  this */\n      address\n        /* \"contracts/authority.sol\":4521:4542  return  address(this) */\n      swap1\n      pop\n        /* \"contracts/authority.sol\":4445:4554  function getAuthorityAddress() public view returns (address) {... */\n      swap1\n      jump\t// out\n        /* \"contracts/authority.sol\":6233:6337  function getPrimeMinisterBan() public view returns (bool) {... */\n    tag_80:\n        /* \"contracts/authority.sol\":6285:6289  bool */\n      0x00\n        /* \"contracts/authority.sol\":6309:6323  _primeMinister */\n      0x05\n        /* \"contracts/authority.sol\":6309:6329  _primeMinister.baned */\n      0x00\n      add\n      0x14\n      swap1\n      sload\n      swap1\n      0x0100\n      exp\n      swap1\n      div\n      0xff\n      and\n        /* \"contracts/authority.sol\":6302:6329  return _primeMinister.baned */\n      swap1\n      pop\n        /* \"contracts/authority.sol\":6233:6337  function getPrimeMinisterBan() public view returns (bool) {... */\n      swap1\n      jump\t// out\n        /* \"contracts/authority.sol\":6670:7089  function transferGovernanceContractAddress(address pendingGCAdd) public onlyPresident {... */\n    tag_84:\n        /* \"contracts/authority.sol\":2256:2273  getPresidentAdd() */\n      tag_228\n        /* \"contracts/authority.sol\":2256:2271  getPresidentAdd */\n      tag_51\n        /* \"contracts/authority.sol\":2256:2273  getPresidentAdd() */\n      jump\t// in\n    tag_228:\n        /* \"contracts/authority.sol\":2242:2273  msg.sender == getPresidentAdd() */\n      0xffffffffffffffffffffffffffffffffffffffff\n      and\n        /* \"contracts/authority.sol\":2242:2252  msg.sender */\n      caller\n        /* \"contracts/authority.sol\":2242:2273  msg.sender == getPresidentAdd() */\n      0xffffffffffffffffffffffffffffffffffffffff\n      and\n      eq\n        /* \"contracts/authority.sol\":2242:2295  msg.sender == getPresidentAdd() && !getPresidentBan() */\n      dup1\n      iszero\n      tag_229\n      jumpi\n      pop\n        /* \"contracts/authority.sol\":2278:2295  getPresidentBan() */\n      tag_230\n        /* \"contracts/authority.sol\":2278:2293  getPresidentBan */\n      tag_54\n        /* \"contracts/authority.sol\":2278:2295  getPresidentBan() */\n      jump\t// in\n    tag_230:\n        /* \"contracts/authority.sol\":2277:2295  !getPresidentBan() */\n      iszero\n        /* \"contracts/authority.sol\":2242:2295  msg.sender == getPresidentAdd() && !getPresidentBan() */\n    tag_229:\n        /* \"contracts/authority.sol\":2234:2319  require(msg.sender == getPresidentAdd() && !getPresidentBan(), \"Access is not valid\") */\n      tag_231\n      jumpi\n      mload(0x40)\n      0x08c379a000000000000000000000000000000000000000000000000000000000\n      dup2\n      mstore\n      0x04\n      add\n      tag_232\n      swap1\n      tag_90\n      jump\t// in\n    tag_232:\n      mload(0x40)\n      dup1\n      swap2\n      sub\n      swap1\n      revert\n    tag_231:\n        /* \"contracts/authority.sol\":6792:6804  pendingGCAdd */\n      dup1\n        /* \"contracts/authority.sol\":6771:6804  _pendingGCAddress == pendingGCAdd */\n      0xffffffffffffffffffffffffffffffffffffffff\n      and\n        /* \"contracts/authority.sol\":6771:6788  _pendingGCAddress */\n      0x01\n      0x00\n      swap1\n      sload\n      swap1\n      0x0100\n      exp\n      swap1\n      div\n      0xffffffffffffffffffffffffffffffffffffffff\n      and\n        /* \"contracts/authority.sol\":6771:6804  _pendingGCAddress == pendingGCAdd */\n      0xffffffffffffffffffffffffffffffffffffffff\n      and\n      sub\n        /* \"contracts/authority.sol\":6767:7081  if (_pendingGCAddress == pendingGCAdd) {... */\n      tag_234\n      jumpi\n        /* \"contracts/authority.sol\":6828:6845  _pendingGCAddress */\n      0x01\n      0x00\n        /* \"contracts/authority.sol\":6821:6845  delete _pendingGCAddress */\n      0x0100\n      exp\n      dup2\n      sload\n      swap1\n      0xffffffffffffffffffffffffffffffffffffffff\n      mul\n      not\n      and\n      swap1\n      sstore\n        /* \"contracts/authority.sol\":6882:6894  pendingGCAdd */\n      dup1\n        /* \"contracts/authority.sol\":6860:6871  _governance */\n      0x06\n        /* \"contracts/authority.sol\":6860:6879  _governance.roleAdd */\n      0x00\n      add\n      0x00\n        /* \"contracts/authority.sol\":6860:6894  _governance.roleAdd = pendingGCAdd */\n      0x0100\n      exp\n      dup2\n      sload\n      dup2\n      0xffffffffffffffffffffffffffffffffffffffff\n      mul\n      not\n      and\n      swap1\n      dup4\n      0xffffffffffffffffffffffffffffffffffffffff\n      and\n      mul\n      or\n      swap1\n      sstore\n      pop\n        /* \"contracts/authority.sol\":6909:6920  _governance */\n      0x06\n        /* \"contracts/authority.sol\":6909:6926  _governance.nonce */\n      0x00\n      add\n      0x15\n        /* \"contracts/authority.sol\":6909:6928  _governance.nonce++ */\n      dup2\n      dup2\n      swap1\n      sload\n      swap1\n      0x0100\n      exp\n      swap1\n      div\n      0xffffffff\n      and\n      dup1\n      swap3\n      swap2\n      swap1\n      tag_235\n      swap1\n      tag_113\n      jump\t// in\n    tag_235:\n      swap2\n      swap1\n      0x0100\n      exp\n      dup2\n      sload\n      dup2\n      0xffffffff\n      mul\n      not\n      and\n      swap1\n      dup4\n      0xffffffff\n      and\n      mul\n      or\n      swap1\n      sstore\n      pop\n      pop\n        /* \"contracts/authority.sol\":6997:7008  _governance */\n      0x06\n        /* \"contracts/authority.sol\":6997:7014  _governance.nonce */\n      0x00\n      add\n      0x15\n      swap1\n      sload\n      swap1\n      0x0100\n      exp\n      swap1\n      div\n      0xffffffff\n      and\n        /* \"contracts/authority.sol\":6948:7015  TheNewGCAddressWasConfirmed(_governance.roleAdd, _governance.nonce) */\n      0xffffffff\n      and\n        /* \"contracts/authority.sol\":6976:6987  _governance */\n      0x06\n        /* \"contracts/authority.sol\":6976:6995  _governance.roleAdd */\n      0x00\n      add\n      0x00\n      swap1\n      sload\n      swap1\n      0x0100\n      exp\n      swap1\n      div\n      0xffffffffffffffffffffffffffffffffffffffff\n      and\n        /* \"contracts/authority.sol\":6948:7015  TheNewGCAddressWasConfirmed(_governance.roleAdd, _governance.nonce) */\n      0xffffffffffffffffffffffffffffffffffffffff\n      and\n      0x5e86008a8467d1efccfe6cb6bd49ba7278d6af2745a1e6994e443322a4237093\n      mload(0x40)\n      mload(0x40)\n      dup1\n      swap2\n      sub\n      swap1\n      log3\n        /* \"contracts/authority.sol\":6767:7081  if (_pendingGCAddress == pendingGCAdd) {... */\n      jump(tag_236)\n    tag_234:\n        /* \"contracts/authority.sol\":7068:7080  pendingGCAdd */\n      dup1\n        /* \"contracts/authority.sol\":7042:7081  TheAddressIsNotValidForGC(pendingGCAdd) */\n      mload(0x40)\n      0x84dbc6cb00000000000000000000000000000000000000000000000000000000\n      dup2\n      mstore\n      0x04\n      add\n      tag_237\n      swap2\n      swap1\n      tag_43\n      jump\t// in\n    tag_237:\n      mload(0x40)\n      dup1\n      swap2\n      sub\n      swap1\n      revert\n        /* \"contracts/authority.sol\":6767:7081  if (_pendingGCAddress == pendingGCAdd) {... */\n    tag_236:\n        /* \"contracts/authority.sol\":6670:7089  function transferGovernanceContractAddress(address pendingGCAdd) public onlyPresident {... */\n      pop\n      jump\t// out\n        /* \"contracts/authority.sol\":7815:7906  function _setPresidentBaned(bool baned) private {... */\n    tag_99:\n        /* \"contracts/authority.sol\":7893:7898  baned */\n      dup1\n        /* \"contracts/authority.sol\":7874:7884  _president */\n      0x04\n        /* \"contracts/authority.sol\":7874:7890  _president.baned */\n      0x00\n      add\n      0x14\n        /* \"contracts/authority.sol\":7874:7898  _president.baned = baned */\n      0x0100\n      exp\n      dup2\n      sload\n      dup2\n      0xff\n      mul\n      not\n      and\n      swap1\n      dup4\n      iszero\n      iszero\n      mul\n      or\n      swap1\n      sstore\n      pop\n        /* \"contracts/authority.sol\":7815:7906  function _setPresidentBaned(bool baned) private {... */\n      pop\n      jump\t// out\n        /* \"contracts/authority.sol\":7914:8013  function _setPrimeMinisterBaned(bool baned) private {... */\n    tag_101:\n        /* \"contracts/authority.sol\":8000:8005  baned */\n      dup1\n        /* \"contracts/authority.sol\":7977:7991  _primeMinister */\n      0x05\n        /* \"contracts/authority.sol\":7977:7997  _primeMinister.baned */\n      0x00\n      add\n      0x14\n        /* \"contracts/authority.sol\":7977:8005  _primeMinister.baned = baned */\n      0x0100\n      exp\n      dup2\n      sload\n      dup2\n      0xff\n      mul\n      not\n      and\n      swap1\n      dup4\n      iszero\n      iszero\n      mul\n      or\n      swap1\n      sstore\n      pop\n        /* \"contracts/authority.sol\":7914:8013  function _setPrimeMinisterBaned(bool baned) private {... */\n      pop\n      jump\t// out\n        /* \"contracts/authority.sol\":7587:7807  function _transferRepublicAddress(address RAddress) private {... */\n    tag_137:\n        /* \"contracts/authority.sol\":7678:7686  RAddress */\n      dup1\n        /* \"contracts/authority.sol\":7658:7667  _Republic */\n      0x07\n        /* \"contracts/authority.sol\":7658:7675  _Republic.roleAdd */\n      0x00\n      add\n      0x00\n        /* \"contracts/authority.sol\":7658:7686  _Republic.roleAdd = RAddress */\n      0x0100\n      exp\n      dup2\n      sload\n      dup2\n      0xffffffffffffffffffffffffffffffffffffffff\n      mul\n      not\n      and\n      swap1\n      dup4\n      0xffffffffffffffffffffffffffffffffffffffff\n      and\n      mul\n      or\n      swap1\n      sstore\n      pop\n        /* \"contracts/authority.sol\":7697:7706  _Republic */\n      0x07\n        /* \"contracts/authority.sol\":7697:7712  _Republic.nonce */\n      0x00\n      add\n      0x15\n        /* \"contracts/authority.sol\":7697:7714  _Republic.nonce++ */\n      dup2\n      dup2\n      swap1\n      sload\n      swap1\n      0x0100\n      exp\n      swap1\n      div\n      0xffffffff\n      and\n      dup1\n      swap3\n      swap2\n      swap1\n      tag_241\n      swap1\n      tag_113\n      jump\t// in\n    tag_241:\n      swap2\n      swap1\n      0x0100\n      exp\n      dup2\n      sload\n      dup2\n      0xffffffff\n      mul\n      not\n      and\n      swap1\n      dup4\n      0xffffffff\n      and\n      mul\n      or\n      swap1\n      sstore\n      pop\n      pop\n        /* \"contracts/authority.sol\":7783:7792  _Republic */\n      0x07\n        /* \"contracts/authority.sol\":7783:7798  _Republic.nonce */\n      0x00\n      add\n      0x15\n      swap1\n      sload\n      swap1\n      0x0100\n      exp\n      swap1\n      div\n      0xffffffff\n      and\n        /* \"contracts/authority.sol\":7730:7799  TheNewRepublicAddressWasConfirmed(_Republic.roleAdd, _Republic.nonce) */\n      0xffffffff\n      and\n        /* \"contracts/authority.sol\":7764:7773  _Republic */\n      0x07\n        /* \"contracts/authority.sol\":7764:7781  _Republic.roleAdd */\n      0x00\n      add\n      0x00\n      swap1\n      sload\n      swap1\n      0x0100\n      exp\n      swap1\n      div\n      0xffffffffffffffffffffffffffffffffffffffff\n      and\n        /* \"contracts/authority.sol\":7730:7799  TheNewRepublicAddressWasConfirmed(_Republic.roleAdd, _Republic.nonce) */\n      0xffffffffffffffffffffffffffffffffffffffff\n      and\n      0xf7f7c26682668c39fd8c6dbca125bd9466e743b9e38acc3240867c139cd93c30\n      mload(0x40)\n      mload(0x40)\n      dup1\n      swap2\n      sub\n      swap1\n      log3\n        /* \"contracts/authority.sol\":7587:7807  function _transferRepublicAddress(address RAddress) private {... */\n      pop\n      jump\t// out\n        /* \"#utility.yul\":88:205   */\n    tag_243:\n        /* \"#utility.yul\":197:198   */\n      0x00\n        /* \"#utility.yul\":194:195   */\n      dup1\n        /* \"#utility.yul\":187:199   */\n      revert\n        /* \"#utility.yul\":334:460   */\n    tag_245:\n        /* \"#utility.yul\":371:378   */\n      0x00\n        /* \"#utility.yul\":411:453   */\n      0xffffffffffffffffffffffffffffffffffffffff\n        /* \"#utility.yul\":404:409   */\n      dup3\n        /* \"#utility.yul\":400:454   */\n      and\n        /* \"#utility.yul\":389:454   */\n      swap1\n      pop\n        /* \"#utility.yul\":334:460   */\n      swap2\n      swap1\n      pop\n      jump\t// out\n        /* \"#utility.yul\":466:562   */\n    tag_246:\n        /* \"#utility.yul\":503:510   */\n      0x00\n        /* \"#utility.yul\":532:556   */\n      tag_271\n        /* \"#utility.yul\":550:555   */\n      dup3\n        /* \"#utility.yul\":532:556   */\n      tag_245\n      jump\t// in\n    tag_271:\n        /* \"#utility.yul\":521:556   */\n      swap1\n      pop\n        /* \"#utility.yul\":466:562   */\n      swap2\n      swap1\n      pop\n      jump\t// out\n        /* \"#utility.yul\":568:690   */\n    tag_247:\n        /* \"#utility.yul\":641:665   */\n      tag_273\n        /* \"#utility.yul\":659:664   */\n      dup2\n        /* \"#utility.yul\":641:665   */\n      tag_246\n      jump\t// in\n    tag_273:\n        /* \"#utility.yul\":634:639   */\n      dup2\n        /* \"#utility.yul\":631:666   */\n      eq\n        /* \"#utility.yul\":621:684   */\n      tag_274\n      jumpi\n        /* \"#utility.yul\":680:681   */\n      0x00\n        /* \"#utility.yul\":677:678   */\n      dup1\n        /* \"#utility.yul\":670:682   */\n      revert\n        /* \"#utility.yul\":621:684   */\n    tag_274:\n        /* \"#utility.yul\":568:690   */\n      pop\n      jump\t// out\n        /* \"#utility.yul\":696:835   */\n    tag_248:\n        /* \"#utility.yul\":742:747   */\n      0x00\n        /* \"#utility.yul\":780:786   */\n      dup2\n        /* \"#utility.yul\":767:787   */\n      calldataload\n        /* \"#utility.yul\":758:787   */\n      swap1\n      pop\n        /* \"#utility.yul\":796:829   */\n      tag_276\n        /* \"#utility.yul\":823:828   */\n      dup2\n        /* \"#utility.yul\":796:829   */\n      tag_247\n      jump\t// in\n    tag_276:\n        /* \"#utility.yul\":696:835   */\n      swap3\n      swap2\n      pop\n      pop\n      jump\t// out\n        /* \"#utility.yul\":841:1170   */\n    tag_27:\n        /* \"#utility.yul\":900:906   */\n      0x00\n        /* \"#utility.yul\":949:951   */\n      0x20\n        /* \"#utility.yul\":937:946   */\n      dup3\n        /* \"#utility.yul\":928:935   */\n      dup5\n        /* \"#utility.yul\":924:947   */\n      sub\n        /* \"#utility.yul\":920:952   */\n      slt\n        /* \"#utility.yul\":917:1036   */\n      iszero\n      tag_278\n      jumpi\n        /* \"#utility.yul\":955:1034   */\n      tag_279\n      tag_243\n      jump\t// in\n    tag_279:\n        /* \"#utility.yul\":917:1036   */\n    tag_278:\n        /* \"#utility.yul\":1075:1076   */\n      0x00\n        /* \"#utility.yul\":1100:1153   */\n      tag_280\n        /* \"#utility.yul\":1145:1152   */\n      dup5\n        /* \"#utility.yul\":1136:1142   */\n      dup3\n        /* \"#utility.yul\":1125:1134   */\n      dup6\n        /* \"#utility.yul\":1121:1143   */\n      add\n        /* \"#utility.yul\":1100:1153   */\n      tag_248\n      jump\t// in\n    tag_280:\n        /* \"#utility.yul\":1090:1153   */\n      swap2\n      pop\n        /* \"#utility.yul\":1046:1163   */\n      pop\n        /* \"#utility.yul\":841:1170   */\n      swap3\n      swap2\n      pop\n      pop\n      jump\t// out\n        /* \"#utility.yul\":1176:1266   */\n    tag_249:\n        /* \"#utility.yul\":1210:1217   */\n      0x00\n        /* \"#utility.yul\":1253:1258   */\n      dup2\n        /* \"#utility.yul\":1246:1259   */\n      iszero\n        /* \"#utility.yul\":1239:1260   */\n      iszero\n        /* \"#utility.yul\":1228:1260   */\n      swap1\n      pop\n        /* \"#utility.yul\":1176:1266   */\n      swap2\n      swap1\n      pop\n      jump\t// out\n        /* \"#utility.yul\":1272:1388   */\n    tag_250:\n        /* \"#utility.yul\":1342:1363   */\n      tag_283\n        /* \"#utility.yul\":1357:1362   */\n      dup2\n        /* \"#utility.yul\":1342:1363   */\n      tag_249\n      jump\t// in\n    tag_283:\n        /* \"#utility.yul\":1335:1340   */\n      dup2\n        /* \"#utility.yul\":1332:1364   */\n      eq\n        /* \"#utility.yul\":1322:1382   */\n      tag_284\n      jumpi\n        /* \"#utility.yul\":1378:1379   */\n      0x00\n        /* \"#utility.yul\":1375:1376   */\n      dup1\n        /* \"#utility.yul\":1368:1380   */\n      revert\n        /* \"#utility.yul\":1322:1382   */\n    tag_284:\n        /* \"#utility.yul\":1272:1388   */\n      pop\n      jump\t// out\n        /* \"#utility.yul\":1394:1527   */\n    tag_251:\n        /* \"#utility.yul\":1437:1442   */\n      0x00\n        /* \"#utility.yul\":1475:1481   */\n      dup2\n        /* \"#utility.yul\":1462:1482   */\n      calldataload\n        /* \"#utility.yul\":1453:1482   */\n      swap1\n      pop\n        /* \"#utility.yul\":1491:1521   */\n      tag_286\n        /* \"#utility.yul\":1515:1520   */\n      dup2\n        /* \"#utility.yul\":1491:1521   */\n      tag_250\n      jump\t// in\n    tag_286:\n        /* \"#utility.yul\":1394:1527   */\n      swap3\n      swap2\n      pop\n      pop\n      jump\t// out\n        /* \"#utility.yul\":1533:1856   */\n    tag_31:\n        /* \"#utility.yul\":1589:1595   */\n      0x00\n        /* \"#utility.yul\":1638:1640   */\n      0x20\n        /* \"#utility.yul\":1626:1635   */\n      dup3\n        /* \"#utility.yul\":1617:1624   */\n      dup5\n        /* \"#utility.yul\":1613:1636   */\n      sub\n        /* \"#utility.yul\":1609:1641   */\n      slt\n        /* \"#utility.yul\":1606:1725   */\n      iszero\n      tag_288\n      jumpi\n        /* \"#utility.yul\":1644:1723   */\n      tag_289\n      tag_243\n      jump\t// in\n    tag_289:\n        /* \"#utility.yul\":1606:1725   */\n    tag_288:\n        /* \"#utility.yul\":1764:1765   */\n      0x00\n        /* \"#utility.yul\":1789:1839   */\n      tag_290\n        /* \"#utility.yul\":1831:1838   */\n      dup5\n        /* \"#utility.yul\":1822:1828   */\n      dup3\n        /* \"#utility.yul\":1811:1820   */\n      dup6\n        /* \"#utility.yul\":1807:1829   */\n      add\n        /* \"#utility.yul\":1789:1839   */\n      tag_251\n      jump\t// in\n    tag_290:\n        /* \"#utility.yul\":1779:1839   */\n      swap2\n      pop\n        /* \"#utility.yul\":1735:1849   */\n      pop\n        /* \"#utility.yul\":1533:1856   */\n      swap3\n      swap2\n      pop\n      pop\n      jump\t// out\n        /* \"#utility.yul\":1862:1980   */\n    tag_252:\n        /* \"#utility.yul\":1949:1973   */\n      tag_292\n        /* \"#utility.yul\":1967:1972   */\n      dup2\n        /* \"#utility.yul\":1949:1973   */\n      tag_246\n      jump\t// in\n    tag_292:\n        /* \"#utility.yul\":1944:1947   */\n      dup3\n        /* \"#utility.yul\":1937:1974   */\n      mstore\n        /* \"#utility.yul\":1862:1980   */\n      pop\n      pop\n      jump\t// out\n        /* \"#utility.yul\":1986:2208   */\n    tag_43:\n        /* \"#utility.yul\":2079:2083   */\n      0x00\n        /* \"#utility.yul\":2117:2119   */\n      0x20\n        /* \"#utility.yul\":2106:2115   */\n      dup3\n        /* \"#utility.yul\":2102:2120   */\n      add\n        /* \"#utility.yul\":2094:2120   */\n      swap1\n      pop\n        /* \"#utility.yul\":2130:2201   */\n      tag_294\n        /* \"#utility.yul\":2198:2199   */\n      0x00\n        /* \"#utility.yul\":2187:2196   */\n      dup4\n        /* \"#utility.yul\":2183:2200   */\n      add\n        /* \"#utility.yul\":2174:2180   */\n      dup5\n        /* \"#utility.yul\":2130:2201   */\n      tag_252\n      jump\t// in\n    tag_294:\n        /* \"#utility.yul\":1986:2208   */\n      swap3\n      swap2\n      pop\n      pop\n      jump\t// out\n        /* \"#utility.yul\":2214:2323   */\n    tag_253:\n        /* \"#utility.yul\":2295:2316   */\n      tag_296\n        /* \"#utility.yul\":2310:2315   */\n      dup2\n        /* \"#utility.yul\":2295:2316   */\n      tag_249\n      jump\t// in\n    tag_296:\n        /* \"#utility.yul\":2290:2293   */\n      dup3\n        /* \"#utility.yul\":2283:2317   */\n      mstore\n        /* \"#utility.yul\":2214:2323   */\n      pop\n      pop\n      jump\t// out\n        /* \"#utility.yul\":2329:2539   */\n    tag_56:\n        /* \"#utility.yul\":2416:2420   */\n      0x00\n        /* \"#utility.yul\":2454:2456   */\n      0x20\n        /* \"#utility.yul\":2443:2452   */\n      dup3\n        /* \"#utility.yul\":2439:2457   */\n      add\n        /* \"#utility.yul\":2431:2457   */\n      swap1\n      pop\n        /* \"#utility.yul\":2467:2532   */\n      tag_298\n        /* \"#utility.yul\":2529:2530   */\n      0x00\n        /* \"#utility.yul\":2518:2527   */\n      dup4\n        /* \"#utility.yul\":2514:2531   */\n      add\n        /* \"#utility.yul\":2505:2511   */\n      dup5\n        /* \"#utility.yul\":2467:2532   */\n      tag_253\n      jump\t// in\n    tag_298:\n        /* \"#utility.yul\":2329:2539   */\n      swap3\n      swap2\n      pop\n      pop\n      jump\t// out\n        /* \"#utility.yul\":2545:2638   */\n    tag_254:\n        /* \"#utility.yul\":2581:2588   */\n      0x00\n        /* \"#utility.yul\":2621:2631   */\n      0xffffffff\n        /* \"#utility.yul\":2614:2619   */\n      dup3\n        /* \"#utility.yul\":2610:2632   */\n      and\n        /* \"#utility.yul\":2599:2632   */\n      swap1\n      pop\n        /* \"#utility.yul\":2545:2638   */\n      swap2\n      swap1\n      pop\n      jump\t// out\n        /* \"#utility.yul\":2644:2759   */\n    tag_255:\n        /* \"#utility.yul\":2729:2752   */\n      tag_301\n        /* \"#utility.yul\":2746:2751   */\n      dup2\n        /* \"#utility.yul\":2729:2752   */\n      tag_254\n      jump\t// in\n    tag_301:\n        /* \"#utility.yul\":2724:2727   */\n      dup3\n        /* \"#utility.yul\":2717:2753   */\n      mstore\n        /* \"#utility.yul\":2644:2759   */\n      pop\n      pop\n      jump\t// out\n        /* \"#utility.yul\":2765:2983   */\n    tag_69:\n        /* \"#utility.yul\":2856:2860   */\n      0x00\n        /* \"#utility.yul\":2894:2896   */\n      0x20\n        /* \"#utility.yul\":2883:2892   */\n      dup3\n        /* \"#utility.yul\":2879:2897   */\n      add\n        /* \"#utility.yul\":2871:2897   */\n      swap1\n      pop\n        /* \"#utility.yul\":2907:2976   */\n      tag_303\n        /* \"#utility.yul\":2973:2974   */\n      0x00\n        /* \"#utility.yul\":2962:2971   */\n      dup4\n        /* \"#utility.yul\":2958:2975   */\n      add\n        /* \"#utility.yul\":2949:2955   */\n      dup5\n        /* \"#utility.yul\":2907:2976   */\n      tag_255\n      jump\t// in\n    tag_303:\n        /* \"#utility.yul\":2765:2983   */\n      swap3\n      swap2\n      pop\n      pop\n      jump\t// out\n        /* \"#utility.yul\":2989:3158   */\n    tag_256:\n        /* \"#utility.yul\":3073:3084   */\n      0x00\n        /* \"#utility.yul\":3107:3113   */\n      dup3\n        /* \"#utility.yul\":3102:3105   */\n      dup3\n        /* \"#utility.yul\":3095:3114   */\n      mstore\n        /* \"#utility.yul\":3147:3151   */\n      0x20\n        /* \"#utility.yul\":3142:3145   */\n      dup3\n        /* \"#utility.yul\":3138:3152   */\n      add\n        /* \"#utility.yul\":3123:3152   */\n      swap1\n      pop\n        /* \"#utility.yul\":2989:3158   */\n      swap3\n      swap2\n      pop\n      pop\n      jump\t// out\n        /* \"#utility.yul\":3164:3333   */\n    tag_257:\n        /* \"#utility.yul\":3304:3325   */\n      0x416363657373206973206e6f742076616c696400000000000000000000000000\n        /* \"#utility.yul\":3300:3301   */\n      0x00\n        /* \"#utility.yul\":3292:3298   */\n      dup3\n        /* \"#utility.yul\":3288:3302   */\n      add\n        /* \"#utility.yul\":3281:3326   */\n      mstore\n        /* \"#utility.yul\":3164:3333   */\n      pop\n      jump\t// out\n        /* \"#utility.yul\":3339:3705   */\n    tag_258:\n        /* \"#utility.yul\":3481:3484   */\n      0x00\n        /* \"#utility.yul\":3502:3569   */\n      tag_307\n        /* \"#utility.yul\":3566:3568   */\n      0x13\n        /* \"#utility.yul\":3561:3564   */\n      dup4\n        /* \"#utility.yul\":3502:3569   */\n      tag_256\n      jump\t// in\n    tag_307:\n        /* \"#utility.yul\":3495:3569   */\n      swap2\n      pop\n        /* \"#utility.yul\":3578:3671   */\n      tag_308\n        /* \"#utility.yul\":3667:3670   */\n      dup3\n        /* \"#utility.yul\":3578:3671   */\n      tag_257\n      jump\t// in\n    tag_308:\n        /* \"#utility.yul\":3696:3698   */\n      0x20\n        /* \"#utility.yul\":3691:3694   */\n      dup3\n        /* \"#utility.yul\":3687:3699   */\n      add\n        /* \"#utility.yul\":3680:3699   */\n      swap1\n      pop\n        /* \"#utility.yul\":3339:3705   */\n      swap2\n      swap1\n      pop\n      jump\t// out\n        /* \"#utility.yul\":3711:4130   */\n    tag_90:\n        /* \"#utility.yul\":3877:3881   */\n      0x00\n        /* \"#utility.yul\":3915:3917   */\n      0x20\n        /* \"#utility.yul\":3904:3913   */\n      dup3\n        /* \"#utility.yul\":3900:3918   */\n      add\n        /* \"#utility.yul\":3892:3918   */\n      swap1\n      pop\n        /* \"#utility.yul\":3964:3973   */\n      dup2\n        /* \"#utility.yul\":3958:3962   */\n      dup2\n        /* \"#utility.yul\":3954:3974   */\n      sub\n        /* \"#utility.yul\":3950:3951   */\n      0x00\n        /* \"#utility.yul\":3939:3948   */\n      dup4\n        /* \"#utility.yul\":3935:3952   */\n      add\n        /* \"#utility.yul\":3928:3975   */\n      mstore\n        /* \"#utility.yul\":3992:4123   */\n      tag_310\n        /* \"#utility.yul\":4118:4122   */\n      dup2\n        /* \"#utility.yul\":3992:4123   */\n      tag_258\n      jump\t// in\n    tag_310:\n        /* \"#utility.yul\":3984:4123   */\n      swap1\n      pop\n        /* \"#utility.yul\":3711:4130   */\n      swap2\n      swap1\n      pop\n      jump\t// out\n        /* \"#utility.yul\":4136:4316   */\n    tag_259:\n        /* \"#utility.yul\":4184:4261   */\n      0x4e487b7100000000000000000000000000000000000000000000000000000000\n        /* \"#utility.yul\":4181:4182   */\n      0x00\n        /* \"#utility.yul\":4174:4262   */\n      mstore\n        /* \"#utility.yul\":4281:4285   */\n      0x11\n        /* \"#utility.yul\":4278:4279   */\n      0x04\n        /* \"#utility.yul\":4271:4286   */\n      mstore\n        /* \"#utility.yul\":4305:4309   */\n      0x24\n        /* \"#utility.yul\":4302:4303   */\n      0x00\n        /* \"#utility.yul\":4295:4310   */\n      revert\n        /* \"#utility.yul\":4322:4497   */\n    tag_113:\n        /* \"#utility.yul\":4360:4363   */\n      0x00\n        /* \"#utility.yul\":4383:4406   */\n      tag_313\n        /* \"#utility.yul\":4400:4405   */\n      dup3\n        /* \"#utility.yul\":4383:4406   */\n      tag_254\n      jump\t// in\n    tag_313:\n        /* \"#utility.yul\":4374:4406   */\n      swap2\n      pop\n        /* \"#utility.yul\":4428:4438   */\n      0xffffffff\n        /* \"#utility.yul\":4421:4426   */\n      dup3\n        /* \"#utility.yul\":4418:4439   */\n      sub\n        /* \"#utility.yul\":4415:4462   */\n      tag_314\n      jumpi\n        /* \"#utility.yul\":4442:4460   */\n      tag_315\n      tag_259\n      jump\t// in\n    tag_315:\n        /* \"#utility.yul\":4415:4462   */\n    tag_314:\n        /* \"#utility.yul\":4489:4490   */\n      0x01\n        /* \"#utility.yul\":4482:4487   */\n      dup3\n        /* \"#utility.yul\":4478:4491   */\n      add\n        /* \"#utility.yul\":4471:4491   */\n      swap1\n      pop\n        /* \"#utility.yul\":4322:4497   */\n      swap2\n      swap1\n      pop\n      jump\t// out\n        /* \"#utility.yul\":4503:4580   */\n    tag_260:\n        /* \"#utility.yul\":4540:4547   */\n      0x00\n        /* \"#utility.yul\":4569:4574   */\n      dup2\n        /* \"#utility.yul\":4558:4574   */\n      swap1\n      pop\n        /* \"#utility.yul\":4503:4580   */\n      swap2\n      swap1\n      pop\n      jump\t// out\n        /* \"#utility.yul\":4586:4777   */\n    tag_140:\n        /* \"#utility.yul\":4626:4629   */\n      0x00\n        /* \"#utility.yul\":4645:4665   */\n      tag_318\n        /* \"#utility.yul\":4663:4664   */\n      dup3\n        /* \"#utility.yul\":4645:4665   */\n      tag_260\n      jump\t// in\n    tag_318:\n        /* \"#utility.yul\":4640:4665   */\n      swap2\n      pop\n        /* \"#utility.yul\":4679:4699   */\n      tag_319\n        /* \"#utility.yul\":4697:4698   */\n      dup4\n        /* \"#utility.yul\":4679:4699   */\n      tag_260\n      jump\t// in\n    tag_319:\n        /* \"#utility.yul\":4674:4699   */\n      swap3\n      pop\n        /* \"#utility.yul\":4722:4723   */\n      dup3\n        /* \"#utility.yul\":4719:4720   */\n      dup3\n        /* \"#utility.yul\":4715:4724   */\n      add\n        /* \"#utility.yul\":4708:4724   */\n      swap1\n      pop\n        /* \"#utility.yul\":4743:4746   */\n      dup1\n        /* \"#utility.yul\":4740:4741   */\n      dup3\n        /* \"#utility.yul\":4737:4747   */\n      gt\n        /* \"#utility.yul\":4734:4770   */\n      iszero\n      tag_320\n      jumpi\n        /* \"#utility.yul\":4750:4768   */\n      tag_321\n      tag_259\n      jump\t// in\n    tag_321:\n        /* \"#utility.yul\":4734:4770   */\n    tag_320:\n        /* \"#utility.yul\":4586:4777   */\n      swap3\n      swap2\n      pop\n      pop\n      jump\t// out\n        /* \"#utility.yul\":4783:4955   */\n    tag_261:\n        /* \"#utility.yul\":4923:4947   */\n      0x546865207265717565737420697320696e76616c696400000000000000000000\n        /* \"#utility.yul\":4919:4920   */\n      0x00\n        /* \"#utility.yul\":4911:4917   */\n      dup3\n        /* \"#utility.yul\":4907:4921   */\n      add\n        /* \"#utility.yul\":4900:4948   */\n      mstore\n        /* \"#utility.yul\":4783:4955   */\n      pop\n      jump\t// out\n        /* \"#utility.yul\":4961:5327   */\n    tag_262:\n        /* \"#utility.yul\":5103:5106   */\n      0x00\n        /* \"#utility.yul\":5124:5191   */\n      tag_324\n        /* \"#utility.yul\":5188:5190   */\n      0x16\n        /* \"#utility.yul\":5183:5186   */\n      dup4\n        /* \"#utility.yul\":5124:5191   */\n      tag_256\n      jump\t// in\n    tag_324:\n        /* \"#utility.yul\":5117:5191   */\n      swap2\n      pop\n        /* \"#utility.yul\":5200:5293   */\n      tag_325\n        /* \"#utility.yul\":5289:5292   */\n      dup3\n        /* \"#utility.yul\":5200:5293   */\n      tag_261\n      jump\t// in\n    tag_325:\n        /* \"#utility.yul\":5318:5320   */\n      0x20\n        /* \"#utility.yul\":5313:5316   */\n      dup3\n        /* \"#utility.yul\":5309:5321   */\n      add\n        /* \"#utility.yul\":5302:5321   */\n      swap1\n      pop\n        /* \"#utility.yul\":4961:5327   */\n      swap2\n      swap1\n      pop\n      jump\t// out\n        /* \"#utility.yul\":5333:5752   */\n    tag_183:\n        /* \"#utility.yul\":5499:5503   */\n      0x00\n        /* \"#utility.yul\":5537:5539   */\n      0x20\n        /* \"#utility.yul\":5526:5535   */\n      dup3\n        /* \"#utility.yul\":5522:5540   */\n      add\n        /* \"#utility.yul\":5514:5540   */\n      swap1\n      pop\n        /* \"#utility.yul\":5586:5595   */\n      dup2\n        /* \"#utility.yul\":5580:5584   */\n      dup2\n        /* \"#utility.yul\":5576:5596   */\n      sub\n        /* \"#utility.yul\":5572:5573   */\n      0x00\n        /* \"#utility.yul\":5561:5570   */\n      dup4\n        /* \"#utility.yul\":5557:5574   */\n      add\n        /* \"#utility.yul\":5550:5597   */\n      mstore\n        /* \"#utility.yul\":5614:5745   */\n      tag_327\n        /* \"#utility.yul\":5740:5744   */\n      dup2\n        /* \"#utility.yul\":5614:5745   */\n      tag_262\n      jump\t// in\n    tag_327:\n        /* \"#utility.yul\":5606:5745   */\n      swap1\n      pop\n        /* \"#utility.yul\":5333:5752   */\n      swap2\n      swap1\n      pop\n      jump\t// out\n        /* \"#utility.yul\":5758:5855   */\n    tag_263:\n        /* \"#utility.yul\":5794:5801   */\n      0x00\n        /* \"#utility.yul\":5834:5848   */\n      0xffffffffffff\n        /* \"#utility.yul\":5827:5832   */\n      dup3\n        /* \"#utility.yul\":5823:5849   */\n      and\n        /* \"#utility.yul\":5812:5849   */\n      swap1\n      pop\n        /* \"#utility.yul\":5758:5855   */\n      swap2\n      swap1\n      pop\n      jump\t// out\n        /* \"#utility.yul\":5861:6065   */\n    tag_190:\n        /* \"#utility.yul\":5900:5904   */\n      0x00\n        /* \"#utility.yul\":5920:5939   */\n      tag_330\n        /* \"#utility.yul\":5937:5938   */\n      dup3\n        /* \"#utility.yul\":5920:5939   */\n      tag_263\n      jump\t// in\n    tag_330:\n        /* \"#utility.yul\":5915:5939   */\n      swap2\n      pop\n        /* \"#utility.yul\":5953:5972   */\n      tag_331\n        /* \"#utility.yul\":5970:5971   */\n      dup4\n        /* \"#utility.yul\":5953:5972   */\n      tag_263\n      jump\t// in\n    tag_331:\n        /* \"#utility.yul\":5948:5972   */\n      swap3\n      pop\n        /* \"#utility.yul\":5996:5997   */\n      dup3\n        /* \"#utility.yul\":5993:5994   */\n      dup3\n        /* \"#utility.yul\":5989:5998   */\n      sub\n        /* \"#utility.yul\":5981:5998   */\n      swap1\n      pop\n        /* \"#utility.yul\":6020:6034   */\n      0xffffffffffff\n        /* \"#utility.yul\":6014:6018   */\n      dup2\n        /* \"#utility.yul\":6011:6035   */\n      gt\n        /* \"#utility.yul\":6008:6058   */\n      iszero\n      tag_332\n      jumpi\n        /* \"#utility.yul\":6038:6056   */\n      tag_333\n      tag_259\n      jump\t// in\n    tag_333:\n        /* \"#utility.yul\":6008:6058   */\n    tag_332:\n        /* \"#utility.yul\":5861:6065   */\n      swap3\n      swap2\n      pop\n      pop\n      jump\t// out\n        /* \"#utility.yul\":6071:6186   */\n    tag_264:\n        /* \"#utility.yul\":6156:6179   */\n      tag_335\n        /* \"#utility.yul\":6173:6178   */\n      dup2\n        /* \"#utility.yul\":6156:6179   */\n      tag_263\n      jump\t// in\n    tag_335:\n        /* \"#utility.yul\":6151:6154   */\n      dup3\n        /* \"#utility.yul\":6144:6180   */\n      mstore\n        /* \"#utility.yul\":6071:6186   */\n      pop\n      pop\n      jump\t// out\n        /* \"#utility.yul\":6192:6410   */\n    tag_192:\n        /* \"#utility.yul\":6283:6287   */\n      0x00\n        /* \"#utility.yul\":6321:6323   */\n      0x20\n        /* \"#utility.yul\":6310:6319   */\n      dup3\n        /* \"#utility.yul\":6306:6324   */\n      add\n        /* \"#utility.yul\":6298:6324   */\n      swap1\n      pop\n        /* \"#utility.yul\":6334:6403   */\n      tag_337\n        /* \"#utility.yul\":6400:6401   */\n      0x00\n        /* \"#utility.yul\":6389:6398   */\n      dup4\n        /* \"#utility.yul\":6385:6402   */\n      add\n        /* \"#utility.yul\":6376:6382   */\n      dup5\n        /* \"#utility.yul\":6334:6403   */\n      tag_264\n      jump\t// in\n    tag_337:\n        /* \"#utility.yul\":6192:6410   */\n      swap3\n      swap2\n      pop\n      pop\n      jump\t// out\n\n    auxdata: 0xa2646970667358221220f6b2fcd07098300987413f29015c0080f5ac4b50a875983d11c7b3f6602cc53264736f6c63430008140033\n}\n",
				"bytecode": {
					"linkReferences": {},
					"object": "60a060405234801562000010575f80fd5b506316a8c80042620000239190620000fd565b65ffffffffffff1660808165ffffffffffff16815250503360045f015f6101000a81548173ffffffffffffffffffffffffffffffffffffffff021916908373ffffffffffffffffffffffffffffffffffffffff16021790555060045f01601581819054906101000a900463ffffffff1680929190620000a29062000146565b91906101000a81548163ffffffff021916908363ffffffff1602179055505062000176565b5f819050919050565b7f4e487b71000000000000000000000000000000000000000000000000000000005f52601160045260245ffd5b5f6200010982620000c7565b91506200011683620000c7565b9250828201905080821115620001315762000130620000d0565b5b92915050565b5f63ffffffff82169050919050565b5f620001528262000137565b915063ffffffff82036200016b576200016a620000d0565b5b600182019050919050565b608051611d7a620001b25f395f81816103260152818161091b01528181610bf401528181610f870152818161129f015261142a0152611d7a5ff3fe608060405234801561000f575f80fd5b506004361061011f575f3560e01c80636cf106d7116100ab578063c5a1c5c11161006f578063c5a1c5c114610291578063ca4cce68146102af578063e47a9d46146102cb578063e4f3e947146102e9578063ee7126c3146103075761011f565b80636cf106d7146101ff5780639c20fe711461021d578063a53da00b14610239578063b5c09c6814610257578063c387b49c146102735761011f565b80631f72783a116100f25780631f72783a1461016f578063289b3c0d1461018b57806352e305de146101a9578063544fa93e146101c557806366410997146101e15761011f565b8063054203bd1461012357806306e99d931461013f5780630df4c3901461015b57806318074eee14610165575b5f80fd5b61013d60048036038101906101389190611a4c565b610323565b005b61015960048036038101906101549190611aac565b6104ee565b005b610163610580565b005b61016d610740565b005b61018960048036038101906101849190611a4c565b610918565b005b610193610bc7565b6040516101a09190611ae6565b60405180910390f35b6101c360048036038101906101be9190611a4c565b610bf1565b005b6101df60048036038101906101da9190611a4c565b610e36565b005b6101e9610f42565b6040516101f69190611ae6565b60405180910390f35b610207610f6c565b6040516102149190611b0e565b60405180910390f35b61023760048036038101906102329190611a4c565b610f84565b005b610241611272565b60405161024e9190611ae6565b60405180910390f35b610271600480360381019061026c9190611aac565b61129c565b005b61027b6113e2565b6040516102889190611b45565b60405180910390f35b6102996113fd565b6040516102a69190611ae6565b60405180910390f35b6102c960048036038101906102c49190611a4c565b611427565b005b6102d361163f565b6040516102e09190611ae6565b60405180910390f35b6102f1611646565b6040516102fe9190611b0e565b60405180910390f35b610321600480360381019061031c9190611a4c565b61165e565b005b427f000000000000000000000000000000000000000000000000000000000000000065ffffffffffff1610156103cd5761035b6113fd565b73ffffffffffffffffffffffffffffffffffffffff163373ffffffffffffffffffffffffffffffffffffffff16146103c8576040517f08c379a00000000000000000000000000000000000000000000000000000000081526004016103bf90611bb8565b60405180910390fd5b610454565b6103d5610f42565b73ffffffffffffffffffffffffffffffffffffffff163373ffffffffffffffffffffffffffffffffffffffff161480156104145750610412610f6c565b155b610453576040517f08c379a000000000000000000000000000000000000000000000000000000000815260040161044a90611bb8565b60405180910390fd5b5b8060025f6101000a81548173ffffffffffffffffffffffffffffffffffffffff021916908373ffffffffffffffffffffffffffffffffffffffff16021790555061049e60016118a7565b6104a860016118c6565b8073ffffffffffffffffffffffffffffffffffffffff167f3553f1f7ef0242113266a8d183b621bb87468c99237f36b1150b6ab3d688b68660405160405180910390a250565b6104f6610f42565b73ffffffffffffffffffffffffffffffffffffffff163373ffffffffffffffffffffffffffffffffffffffff161480156105355750610533610f6c565b155b610574576040517f08c379a000000000000000000000000000000000000000000000000000000000815260040161056b90611bb8565b60405180910390fd5b61057d816118c6565b50565b3373ffffffffffffffffffffffffffffffffffffffff1660025f9054906101000a900473ffffffffffffffffffffffffffffffffffffffff1673ffffffffffffffffffffffffffffffffffffffff160361070c5760025f6101000a81549073ffffffffffffffffffffffffffffffffffffffff02191690553360045f015f6101000a81548173ffffffffffffffffffffffffffffffffffffffff021916908373ffffffffffffffffffffffffffffffffffffffff16021790555060045f01601581819054906101000a900463ffffffff168092919061065e90611c03565b91906101000a81548163ffffffff021916908363ffffffff160217905550506106865f6118a7565b60045f0160159054906101000a900463ffffffff1663ffffffff1660045f015f9054906101000a900473ffffffffffffffffffffffffffffffffffffffff1673ffffffffffffffffffffffffffffffffffffffff167f05ad9b3688012cd825c1bfb941e4f5afb2558af6af3deaddf01dbb5e85abdaf960405160405180910390a361073e565b6040517fb513955100000000000000000000000000000000000000000000000000000000815260040160405180910390fd5b565b3373ffffffffffffffffffffffffffffffffffffffff1660035f9054906101000a900473ffffffffffffffffffffffffffffffffffffffff1673ffffffffffffffffffffffffffffffffffffffff16036108e45760035f6101000a81549073ffffffffffffffffffffffffffffffffffffffff02191690553360055f015f6101000a81548173ffffffffffffffffffffffffffffffffffffffff021916908373ffffffffffffffffffffffffffffffffffffffff16021790555060055f01601581819054906101000a900463ffffffff168092919061081e90611c03565b91906101000a81548163ffffffff021916908363ffffffff1602179055505060055f0160149054906101000a900460ff161561085e5761085d5f6118c6565b5b60055f0160159054906101000a900463ffffffff1663ffffffff1660055f015f9054906101000a900473ffffffffffffffffffffffffffffffffffffffff1673ffffffffffffffffffffffffffffffffffffffff167f11e1b985c07e1bf3fec9bfd0bdb8c4a8e870ba2b26aa89fe50a6a19132ca10fd60405160405180910390a3610916565b6040517fb513955100000000000000000000000000000000000000000000000000000000815260040160405180910390fd5b565b427f000000000000000000000000000000000000000000000000000000000000000065ffffffffffff1610156109c2576109506113fd565b73ffffffffffffffffffffffffffffffffffffffff163373ffffffffffffffffffffffffffffffffffffffff16146109bd576040517f08c379a00000000000000000000000000000000000000000000000000000000081526004016109b490611bb8565b60405180910390fd5b610a49565b6109ca610f42565b73ffffffffffffffffffffffffffffffffffffffff163373ffffffffffffffffffffffffffffffffffffffff16148015610a095750610a07610f6c565b155b610a48576040517f08c379a0000000000000000000000000000000000000000000000000000000008152600401610a3f90611bb8565b60405180910390fd5b5b5f8173ffffffffffffffffffffffffffffffffffffffff163b1115610b87573373ffffffffffffffffffffffffffffffffffffffff1660045f015f9054906101000a900473ffffffffffffffffffffffffffffffffffffffff1673ffffffffffffffffffffffffffffffffffffffff1603610acc57610ac7816118e5565b610b82565b6213c68042610adb9190611c37565b600360146101000a81548165ffffffffffff021916908365ffffffffffff160217905550805f806101000a81548173ffffffffffffffffffffffffffffffffffffffff021916908373ffffffffffffffffffffffffffffffffffffffff1602179055508073ffffffffffffffffffffffffffffffffffffffff167f675b770e821ba4aad20be77c58f912d689226272e805637f42f838a6035eed8660405160405180910390a25b610bc4565b806040517fc6322315000000000000000000000000000000000000000000000000000000008152600401610bbb9190611ae6565b60405180910390fd5b50565b5f60065f015f9054906101000a900473ffffffffffffffffffffffffffffffffffffffff16905090565b427f000000000000000000000000000000000000000000000000000000000000000065ffffffffffff161015610c9b57610c296113fd565b73ffffffffffffffffffffffffffffffffffffffff163373ffffffffffffffffffffffffffffffffffffffff1614610c96576040517f08c379a0000000000000000000000000000000000000000000000000000000008152600401610c8d90611bb8565b60405180910390fd5b610d22565b610ca3610f42565b73ffffffffffffffffffffffffffffffffffffffff163373ffffffffffffffffffffffffffffffffffffffff16148015610ce25750610ce0610f6c565b155b610d21576040517f08c379a0000000000000000000000000000000000000000000000000000000008152600401610d1890611bb8565b60405180910390fd5b5b8073ffffffffffffffffffffffffffffffffffffffff165f8054906101000a900473ffffffffffffffffffffffffffffffffffffffff1673ffffffffffffffffffffffffffffffffffffffff1603610df657600360146101000a81549065ffffffffffff02191690555f806101000a81549073ffffffffffffffffffffffffffffffffffffffff02191690558073ffffffffffffffffffffffffffffffffffffffff167ff299f61c7e493f99b20cb36c587ca903d085d5206bfe4452d295711e372da02960405160405180910390a2610e33565b806040517fc6322315000000000000000000000000000000000000000000000000000000008152600401610e2a9190611ae6565b60405180910390fd5b50565b610e3e610f42565b73ffffffffffffffffffffffffffffffffffffffff163373ffffffffffffffffffffffffffffffffffffffff16148015610e7d5750610e7b610f6c565b155b610ebc576040517f08c379a0000000000000000000000000000000000000000000000000000000008152600401610eb390611bb8565b60405180910390fd5b8060035f6101000a81548173ffffffffffffffffffffffffffffffffffffffff021916908373ffffffffffffffffffffffffffffffffffffffff1602179055508073ffffffffffffffffffffffffffffffffffffffff167fff3cad3ee28c342ad5f3d7c8ff8559ee4d21eb48494092b82a1652e443b3420b60405160405180910390a250565b5f60045f015f9054906101000a900473ffffffffffffffffffffffffffffffffffffffff16905090565b5f60045f0160149054906101000a900460ff16905090565b427f000000000000000000000000000000000000000000000000000000000000000065ffffffffffff16101561102e57610fbc6113fd565b73ffffffffffffffffffffffffffffffffffffffff163373ffffffffffffffffffffffffffffffffffffffff1614611029576040517f08c379a000000000000000000000000000000000000000000000000000000000815260040161102090611bb8565b60405180910390fd5b6110b5565b611036610f42565b73ffffffffffffffffffffffffffffffffffffffff163373ffffffffffffffffffffffffffffffffffffffff161480156110755750611073610f6c565b155b6110b4576040517f08c379a00000000000000000000000000000000000000000000000000000000081526004016110ab90611bb8565b60405180910390fd5b5b42600360149054906101000a900465ffffffffffff1665ffffffffffff161015611213575f600360149054906101000a900465ffffffffffff1665ffffffffffff1603611137576040517f08c379a000000000000000000000000000000000000000000000000000000000815260040161112e90611cb4565b60405180910390fd5b8073ffffffffffffffffffffffffffffffffffffffff165f8054906101000a900473ffffffffffffffffffffffffffffffffffffffff1673ffffffffffffffffffffffffffffffffffffffff16036111d157600360146101000a81549065ffffffffffff02191690555f806101000a81549073ffffffffffffffffffffffffffffffffffffffff02191690556111cc816118e5565b61120e565b806040517fc63223150000000000000000000000000000000000000000000000000000000081526004016112059190611ae6565b60405180910390fd5b61126f565b42600360149054906101000a900465ffffffffffff166112339190611ce3565b6040517f223a6cbb0000000000000000000000000000000000000000000000000000000081526004016112669190611d2b565b60405180910390fd5b50565b5f60055f015f9054906101000a900473ffffffffffffffffffffffffffffffffffffffff16905090565b427f000000000000000000000000000000000000000000000000000000000000000065ffffffffffff161015611346576112d46113fd565b73ffffffffffffffffffffffffffffffffffffffff163373ffffffffffffffffffffffffffffffffffffffff1614611341576040517f08c379a000000000000000000000000000000000000000000000000000000000815260040161133890611bb8565b60405180910390fd5b6113cd565b61134e610f42565b73ffffffffffffffffffffffffffffffffffffffff163373ffffffffffffffffffffffffffffffffffffffff1614801561138d575061138b610f6c565b155b6113cc576040517f08c379a00000000000000000000000000000000000000000000000000000000081526004016113c390611bb8565b60405180910390fd5b5b6113d6816118a7565b6113df816118c6565b50565b5f60065f0160159054906101000a900463ffffffff16905090565b5f60075f015f9054906101000a900473ffffffffffffffffffffffffffffffffffffffff16905090565b427f000000000000000000000000000000000000000000000000000000000000000065ffffffffffff1610156114d15761145f6113fd565b73ffffffffffffffffffffffffffffffffffffffff163373ffffffffffffffffffffffffffffffffffffffff16146114cc576040517f08c379a00000000000000000000000000000000000000000000000000000000081526004016114c390611bb8565b60405180910390fd5b611558565b6114d9610f42565b73ffffffffffffffffffffffffffffffffffffffff163373ffffffffffffffffffffffffffffffffffffffff161480156115185750611516610f6c565b155b611557576040517f08c379a000000000000000000000000000000000000000000000000000000000815260040161154e90611bb8565b60405180910390fd5b5b5f8173ffffffffffffffffffffffffffffffffffffffff163b11156115ff578060015f6101000a81548173ffffffffffffffffffffffffffffffffffffffff021916908373ffffffffffffffffffffffffffffffffffffffff1602179055508073ffffffffffffffffffffffffffffffffffffffff167fe8d8e3c7c3ebec0c177d0fe22d223f8b5071db39155104808d45027e368ba77a60405160405180910390a261163c565b806040517f84dbc6cb0000000000000000000000000000000000000000000000000000000081526004016116339190611ae6565b60405180910390fd5b50565b5f30905090565b5f60055f0160149054906101000a900460ff16905090565b611666610f42565b73ffffffffffffffffffffffffffffffffffffffff163373ffffffffffffffffffffffffffffffffffffffff161480156116a557506116a3610f6c565b155b6116e4576040517f08c379a00000000000000000000000000000000000000000000000000000000081526004016116db90611bb8565b60405180910390fd5b8073ffffffffffffffffffffffffffffffffffffffff1660015f9054906101000a900473ffffffffffffffffffffffffffffffffffffffff1673ffffffffffffffffffffffffffffffffffffffff16036118675760015f6101000a81549073ffffffffffffffffffffffffffffffffffffffff02191690558060065f015f6101000a81548173ffffffffffffffffffffffffffffffffffffffff021916908373ffffffffffffffffffffffffffffffffffffffff16021790555060065f01601581819054906101000a900463ffffffff16809291906117c290611c03565b91906101000a81548163ffffffff021916908363ffffffff1602179055505060065f0160159054906101000a900463ffffffff1663ffffffff1660065f015f9054906101000a900473ffffffffffffffffffffffffffffffffffffffff1673ffffffffffffffffffffffffffffffffffffffff167f5e86008a8467d1efccfe6cb6bd49ba7278d6af2745a1e6994e443322a423709360405160405180910390a36118a4565b806040517f84dbc6cb00000000000000000000000000000000000000000000000000000000815260040161189b9190611ae6565b60405180910390fd5b50565b8060045f0160146101000a81548160ff02191690831515021790555050565b8060055f0160146101000a81548160ff02191690831515021790555050565b8060075f015f6101000a81548173ffffffffffffffffffffffffffffffffffffffff021916908373ffffffffffffffffffffffffffffffffffffffff16021790555060075f01601581819054906101000a900463ffffffff168092919061194b90611c03565b91906101000a81548163ffffffff021916908363ffffffff1602179055505060075f0160159054906101000a900463ffffffff1663ffffffff1660075f015f9054906101000a900473ffffffffffffffffffffffffffffffffffffffff1673ffffffffffffffffffffffffffffffffffffffff167ff7f7c26682668c39fd8c6dbca125bd9466e743b9e38acc3240867c139cd93c3060405160405180910390a350565b5f80fd5b5f73ffffffffffffffffffffffffffffffffffffffff82169050919050565b5f611a1b826119f2565b9050919050565b611a2b81611a11565b8114611a35575f80fd5b50565b5f81359050611a4681611a22565b92915050565b5f60208284031215611a6157611a606119ee565b5b5f611a6e84828501611a38565b91505092915050565b5f8115159050919050565b611a8b81611a77565b8114611a95575f80fd5b50565b5f81359050611aa681611a82565b92915050565b5f60208284031215611ac157611ac06119ee565b5b5f611ace84828501611a98565b91505092915050565b611ae081611a11565b82525050565b5f602082019050611af95f830184611ad7565b92915050565b611b0881611a77565b82525050565b5f602082019050611b215f830184611aff565b92915050565b5f63ffffffff82169050919050565b611b3f81611b27565b82525050565b5f602082019050611b585f830184611b36565b92915050565b5f82825260208201905092915050565b7f416363657373206973206e6f742076616c6964000000000000000000000000005f82015250565b5f611ba2601383611b5e565b9150611bad82611b6e565b602082019050919050565b5f6020820190508181035f830152611bcf81611b96565b9050919050565b7f4e487b71000000000000000000000000000000000000000000000000000000005f52601160045260245ffd5b5f611c0d82611b27565b915063ffffffff8203611c2357611c22611bd6565b5b600182019050919050565b5f819050919050565b5f611c4182611c2e565b9150611c4c83611c2e565b9250828201905080821115611c6457611c63611bd6565b5b92915050565b7f546865207265717565737420697320696e76616c6964000000000000000000005f82015250565b5f611c9e601683611b5e565b9150611ca982611c6a565b602082019050919050565b5f6020820190508181035f830152611ccb81611c92565b9050919050565b5f65ffffffffffff82169050919050565b5f611ced82611cd2565b9150611cf883611cd2565b9250828203905065ffffffffffff811115611d1657611d15611bd6565b5b92915050565b611d2581611cd2565b82525050565b5f602082019050611d3e5f830184611d1c565b9291505056fea2646970667358221220f6b2fcd07098300987413f29015c0080f5ac4b50a875983d11c7b3f6602cc53264736f6c63430008140033",
					"opcodes": "PUSH1 0xA0 PUSH1 0x40 MSTORE CALLVALUE DUP1 ISZERO PUSH3 0x10 JUMPI PUSH0 DUP1 REVERT JUMPDEST POP PUSH4 0x16A8C800 TIMESTAMP PUSH3 0x23 SWAP2 SWAP1 PUSH3 0xFD JUMP JUMPDEST PUSH6 0xFFFFFFFFFFFF AND PUSH1 0x80 DUP2 PUSH6 0xFFFFFFFFFFFF AND DUP2 MSTORE POP POP CALLER PUSH1 0x4 PUSH0 ADD PUSH0 PUSH2 0x100 EXP DUP2 SLOAD DUP2 PUSH20 0xFFFFFFFFFFFFFFFFFFFFFFFFFFFFFFFFFFFFFFFF MUL NOT AND SWAP1 DUP4 PUSH20 0xFFFFFFFFFFFFFFFFFFFFFFFFFFFFFFFFFFFFFFFF AND MUL OR SWAP1 SSTORE POP PUSH1 0x4 PUSH0 ADD PUSH1 0x15 DUP2 DUP2 SWAP1 SLOAD SWAP1 PUSH2 0x100 EXP SWAP1 DIV PUSH4 0xFFFFFFFF AND DUP1 SWAP3 SWAP2 SWAP1 PUSH3 0xA2 SWAP1 PUSH3 0x146 JUMP JUMPDEST SWAP2 SWAP1 PUSH2 0x100 EXP DUP2 SLOAD DUP2 PUSH4 0xFFFFFFFF MUL NOT AND SWAP1 DUP4 PUSH4 0xFFFFFFFF AND MUL OR SWAP1 SSTORE POP POP PUSH3 0x176 JUMP JUMPDEST PUSH0 DUP2 SWAP1 POP SWAP2 SWAP1 POP JUMP JUMPDEST PUSH32 0x4E487B7100000000000000000000000000000000000000000000000000000000 PUSH0 MSTORE PUSH1 0x11 PUSH1 0x4 MSTORE PUSH1 0x24 PUSH0 REVERT JUMPDEST PUSH0 PUSH3 0x109 DUP3 PUSH3 0xC7 JUMP JUMPDEST SWAP2 POP PUSH3 0x116 DUP4 PUSH3 0xC7 JUMP JUMPDEST SWAP3 POP DUP3 DUP3 ADD SWAP1 POP DUP1 DUP3 GT ISZERO PUSH3 0x131 JUMPI PUSH3 0x130 PUSH3 0xD0 JUMP JUMPDEST JUMPDEST SWAP3 SWAP2 POP POP JUMP JUMPDEST PUSH0 PUSH4 0xFFFFFFFF DUP3 AND SWAP1 POP SWAP2 SWAP1 POP JUMP JUMPDEST PUSH0 PUSH3 0x152 DUP3 PUSH3 0x137 JUMP JUMPDEST SWAP2 POP PUSH4 0xFFFFFFFF DUP3 SUB PUSH3 0x16B JUMPI PUSH3 0x16A PUSH3 0xD0 JUMP JUMPDEST JUMPDEST PUSH1 0x1 DUP3 ADD SWAP1 POP SWAP2 SWAP1 POP JUMP JUMPDEST PUSH1 0x80 MLOAD PUSH2 0x1D7A PUSH3 0x1B2 PUSH0 CODECOPY PUSH0 DUP2 DUP2 PUSH2 0x326 ADD MSTORE DUP2 DUP2 PUSH2 0x91B ADD MSTORE DUP2 DUP2 PUSH2 0xBF4 ADD MSTORE DUP2 DUP2 PUSH2 0xF87 ADD MSTORE DUP2 DUP2 PUSH2 0x129F ADD MSTORE PUSH2 0x142A ADD MSTORE PUSH2 0x1D7A PUSH0 RETURN INVALID PUSH1 0x80 PUSH1 0x40 MSTORE CALLVALUE DUP1 ISZERO PUSH2 0xF JUMPI PUSH0 DUP1 REVERT JUMPDEST POP PUSH1 0x4 CALLDATASIZE LT PUSH2 0x11F JUMPI PUSH0 CALLDATALOAD PUSH1 0xE0 SHR DUP1 PUSH4 0x6CF106D7 GT PUSH2 0xAB JUMPI DUP1 PUSH4 0xC5A1C5C1 GT PUSH2 0x6F JUMPI DUP1 PUSH4 0xC5A1C5C1 EQ PUSH2 0x291 JUMPI DUP1 PUSH4 0xCA4CCE68 EQ PUSH2 0x2AF JUMPI DUP1 PUSH4 0xE47A9D46 EQ PUSH2 0x2CB JUMPI DUP1 PUSH4 0xE4F3E947 EQ PUSH2 0x2E9 JUMPI DUP1 PUSH4 0xEE7126C3 EQ PUSH2 0x307 JUMPI PUSH2 0x11F JUMP JUMPDEST DUP1 PUSH4 0x6CF106D7 EQ PUSH2 0x1FF JUMPI DUP1 PUSH4 0x9C20FE71 EQ PUSH2 0x21D JUMPI DUP1 PUSH4 0xA53DA00B EQ PUSH2 0x239 JUMPI DUP1 PUSH4 0xB5C09C68 EQ PUSH2 0x257 JUMPI DUP1 PUSH4 0xC387B49C EQ PUSH2 0x273 JUMPI PUSH2 0x11F JUMP JUMPDEST DUP1 PUSH4 0x1F72783A GT PUSH2 0xF2 JUMPI DUP1 PUSH4 0x1F72783A EQ PUSH2 0x16F JUMPI DUP1 PUSH4 0x289B3C0D EQ PUSH2 0x18B JUMPI DUP1 PUSH4 0x52E305DE EQ PUSH2 0x1A9 JUMPI DUP1 PUSH4 0x544FA93E EQ PUSH2 0x1C5 JUMPI DUP1 PUSH4 0x66410997 EQ PUSH2 0x1E1 JUMPI PUSH2 0x11F JUMP JUMPDEST DUP1 PUSH4 0x54203BD EQ PUSH2 0x123 JUMPI DUP1 PUSH4 0x6E99D93 EQ PUSH2 0x13F JUMPI DUP1 PUSH4 0xDF4C390 EQ PUSH2 0x15B JUMPI DUP1 PUSH4 0x18074EEE EQ PUSH2 0x165 JUMPI JUMPDEST PUSH0 DUP1 REVERT JUMPDEST PUSH2 0x13D PUSH1 0x4 DUP1 CALLDATASIZE SUB DUP2 ADD SWAP1 PUSH2 0x138 SWAP2 SWAP1 PUSH2 0x1A4C JUMP JUMPDEST PUSH2 0x323 JUMP JUMPDEST STOP JUMPDEST PUSH2 0x159 PUSH1 0x4 DUP1 CALLDATASIZE SUB DUP2 ADD SWAP1 PUSH2 0x154 SWAP2 SWAP1 PUSH2 0x1AAC JUMP JUMPDEST PUSH2 0x4EE JUMP JUMPDEST STOP JUMPDEST PUSH2 0x163 PUSH2 0x580 JUMP JUMPDEST STOP JUMPDEST PUSH2 0x16D PUSH2 0x740 JUMP JUMPDEST STOP JUMPDEST PUSH2 0x189 PUSH1 0x4 DUP1 CALLDATASIZE SUB DUP2 ADD SWAP1 PUSH2 0x184 SWAP2 SWAP1 PUSH2 0x1A4C JUMP JUMPDEST PUSH2 0x918 JUMP JUMPDEST STOP JUMPDEST PUSH2 0x193 PUSH2 0xBC7 JUMP JUMPDEST PUSH1 0x40 MLOAD PUSH2 0x1A0 SWAP2 SWAP1 PUSH2 0x1AE6 JUMP JUMPDEST PUSH1 0x40 MLOAD DUP1 SWAP2 SUB SWAP1 RETURN JUMPDEST PUSH2 0x1C3 PUSH1 0x4 DUP1 CALLDATASIZE SUB DUP2 ADD SWAP1 PUSH2 0x1BE SWAP2 SWAP1 PUSH2 0x1A4C JUMP JUMPDEST PUSH2 0xBF1 JUMP JUMPDEST STOP JUMPDEST PUSH2 0x1DF PUSH1 0x4 DUP1 CALLDATASIZE SUB DUP2 ADD SWAP1 PUSH2 0x1DA SWAP2 SWAP1 PUSH2 0x1A4C JUMP JUMPDEST PUSH2 0xE36 JUMP JUMPDEST STOP JUMPDEST PUSH2 0x1E9 PUSH2 0xF42 JUMP JUMPDEST PUSH1 0x40 MLOAD PUSH2 0x1F6 SWAP2 SWAP1 PUSH2 0x1AE6 JUMP JUMPDEST PUSH1 0x40 MLOAD DUP1 SWAP2 SUB SWAP1 RETURN JUMPDEST PUSH2 0x207 PUSH2 0xF6C JUMP JUMPDEST PUSH1 0x40 MLOAD PUSH2 0x214 SWAP2 SWAP1 PUSH2 0x1B0E JUMP JUMPDEST PUSH1 0x40 MLOAD DUP1 SWAP2 SUB SWAP1 RETURN JUMPDEST PUSH2 0x237 PUSH1 0x4 DUP1 CALLDATASIZE SUB DUP2 ADD SWAP1 PUSH2 0x232 SWAP2 SWAP1 PUSH2 0x1A4C JUMP JUMPDEST PUSH2 0xF84 JUMP JUMPDEST STOP JUMPDEST PUSH2 0x241 PUSH2 0x1272 JUMP JUMPDEST PUSH1 0x40 MLOAD PUSH2 0x24E SWAP2 SWAP1 PUSH2 0x1AE6 JUMP JUMPDEST PUSH1 0x40 MLOAD DUP1 SWAP2 SUB SWAP1 RETURN JUMPDEST PUSH2 0x271 PUSH1 0x4 DUP1 CALLDATASIZE SUB DUP2 ADD SWAP1 PUSH2 0x26C SWAP2 SWAP1 PUSH2 0x1AAC JUMP JUMPDEST PUSH2 0x129C JUMP JUMPDEST STOP JUMPDEST PUSH2 0x27B PUSH2 0x13E2 JUMP JUMPDEST PUSH1 0x40 MLOAD PUSH2 0x288 SWAP2 SWAP1 PUSH2 0x1B45 JUMP JUMPDEST PUSH1 0x40 MLOAD DUP1 SWAP2 SUB SWAP1 RETURN JUMPDEST PUSH2 0x299 PUSH2 0x13FD JUMP JUMPDEST PUSH1 0x40 MLOAD PUSH2 0x2A6 SWAP2 SWAP1 PUSH2 0x1AE6 JUMP JUMPDEST PUSH1 0x40 MLOAD DUP1 SWAP2 SUB SWAP1 RETURN JUMPDEST PUSH2 0x2C9 PUSH1 0x4 DUP1 CALLDATASIZE SUB DUP2 ADD SWAP1 PUSH2 0x2C4 SWAP2 SWAP1 PUSH2 0x1A4C JUMP JUMPDEST PUSH2 0x1427 JUMP JUMPDEST STOP JUMPDEST PUSH2 0x2D3 PUSH2 0x163F JUMP JUMPDEST PUSH1 0x40 MLOAD PUSH2 0x2E0 SWAP2 SWAP1 PUSH2 0x1AE6 JUMP JUMPDEST PUSH1 0x40 MLOAD DUP1 SWAP2 SUB SWAP1 RETURN JUMPDEST PUSH2 0x2F1 PUSH2 0x1646 JUMP JUMPDEST PUSH1 0x40 MLOAD PUSH2 0x2FE SWAP2 SWAP1 PUSH2 0x1B0E JUMP JUMPDEST PUSH1 0x40 MLOAD DUP1 SWAP2 SUB SWAP1 RETURN JUMPDEST PUSH2 0x321 PUSH1 0x4 DUP1 CALLDATASIZE SUB DUP2 ADD SWAP1 PUSH2 0x31C SWAP2 SWAP1 PUSH2 0x1A4C JUMP JUMPDEST PUSH2 0x165E JUMP JUMPDEST STOP JUMPDEST TIMESTAMP PUSH32 0x0 PUSH6 0xFFFFFFFFFFFF AND LT ISZERO PUSH2 0x3CD JUMPI PUSH2 0x35B PUSH2 0x13FD JUMP JUMPDEST PUSH20 0xFFFFFFFFFFFFFFFFFFFFFFFFFFFFFFFFFFFFFFFF AND CALLER PUSH20 0xFFFFFFFFFFFFFFFFFFFFFFFFFFFFFFFFFFFFFFFF AND EQ PUSH2 0x3C8 JUMPI PUSH1 0x40 MLOAD PUSH32 0x8C379A000000000000000000000000000000000000000000000000000000000 DUP2 MSTORE PUSH1 0x4 ADD PUSH2 0x3BF SWAP1 PUSH2 0x1BB8 JUMP JUMPDEST PUSH1 0x40 MLOAD DUP1 SWAP2 SUB SWAP1 REVERT JUMPDEST PUSH2 0x454 JUMP JUMPDEST PUSH2 0x3D5 PUSH2 0xF42 JUMP JUMPDEST PUSH20 0xFFFFFFFFFFFFFFFFFFFFFFFFFFFFFFFFFFFFFFFF AND CALLER PUSH20 0xFFFFFFFFFFFFFFFFFFFFFFFFFFFFFFFFFFFFFFFF AND EQ DUP1 ISZERO PUSH2 0x414 JUMPI POP PUSH2 0x412 PUSH2 0xF6C JUMP JUMPDEST ISZERO JUMPDEST PUSH2 0x453 JUMPI PUSH1 0x40 MLOAD PUSH32 0x8C379A000000000000000000000000000000000000000000000000000000000 DUP2 MSTORE PUSH1 0x4 ADD PUSH2 0x44A SWAP1 PUSH2 0x1BB8 JUMP JUMPDEST PUSH1 0x40 MLOAD DUP1 SWAP2 SUB SWAP1 REVERT JUMPDEST JUMPDEST DUP1 PUSH1 0x2 PUSH0 PUSH2 0x100 EXP DUP2 SLOAD DUP2 PUSH20 0xFFFFFFFFFFFFFFFFFFFFFFFFFFFFFFFFFFFFFFFF MUL NOT AND SWAP1 DUP4 PUSH20 0xFFFFFFFFFFFFFFFFFFFFFFFFFFFFFFFFFFFFFFFF AND MUL OR SWAP1 SSTORE POP PUSH2 0x49E PUSH1 0x1 PUSH2 0x18A7 JUMP JUMPDEST PUSH2 0x4A8 PUSH1 0x1 PUSH2 0x18C6 JUMP JUMPDEST DUP1 PUSH20 0xFFFFFFFFFFFFFFFFFFFFFFFFFFFFFFFFFFFFFFFF AND PUSH32 0x3553F1F7EF0242113266A8D183B621BB87468C99237F36B1150B6AB3D688B686 PUSH1 0x40 MLOAD PUSH1 0x40 MLOAD DUP1 SWAP2 SUB SWAP1 LOG2 POP JUMP JUMPDEST PUSH2 0x4F6 PUSH2 0xF42 JUMP JUMPDEST PUSH20 0xFFFFFFFFFFFFFFFFFFFFFFFFFFFFFFFFFFFFFFFF AND CALLER PUSH20 0xFFFFFFFFFFFFFFFFFFFFFFFFFFFFFFFFFFFFFFFF AND EQ DUP1 ISZERO PUSH2 0x535 JUMPI POP PUSH2 0x533 PUSH2 0xF6C JUMP JUMPDEST ISZERO JUMPDEST PUSH2 0x574 JUMPI PUSH1 0x40 MLOAD PUSH32 0x8C379A000000000000000000000000000000000000000000000000000000000 DUP2 MSTORE PUSH1 0x4 ADD PUSH2 0x56B SWAP1 PUSH2 0x1BB8 JUMP JUMPDEST PUSH1 0x40 MLOAD DUP1 SWAP2 SUB SWAP1 REVERT JUMPDEST PUSH2 0x57D DUP2 PUSH2 0x18C6 JUMP JUMPDEST POP JUMP JUMPDEST CALLER PUSH20 0xFFFFFFFFFFFFFFFFFFFFFFFFFFFFFFFFFFFFFFFF AND PUSH1 0x2 PUSH0 SWAP1 SLOAD SWAP1 PUSH2 0x100 EXP SWAP1 DIV PUSH20 0xFFFFFFFFFFFFFFFFFFFFFFFFFFFFFFFFFFFFFFFF AND PUSH20 0xFFFFFFFFFFFFFFFFFFFFFFFFFFFFFFFFFFFFFFFF AND SUB PUSH2 0x70C JUMPI PUSH1 0x2 PUSH0 PUSH2 0x100 EXP DUP2 SLOAD SWAP1 PUSH20 0xFFFFFFFFFFFFFFFFFFFFFFFFFFFFFFFFFFFFFFFF MUL NOT AND SWAP1 SSTORE CALLER PUSH1 0x4 PUSH0 ADD PUSH0 PUSH2 0x100 EXP DUP2 SLOAD DUP2 PUSH20 0xFFFFFFFFFFFFFFFFFFFFFFFFFFFFFFFFFFFFFFFF MUL NOT AND SWAP1 DUP4 PUSH20 0xFFFFFFFFFFFFFFFFFFFFFFFFFFFFFFFFFFFFFFFF AND MUL OR SWAP1 SSTORE POP PUSH1 0x4 PUSH0 ADD PUSH1 0x15 DUP2 DUP2 SWAP1 SLOAD SWAP1 PUSH2 0x100 EXP SWAP1 DIV PUSH4 0xFFFFFFFF AND DUP1 SWAP3 SWAP2 SWAP1 PUSH2 0x65E SWAP1 PUSH2 0x1C03 JUMP JUMPDEST SWAP2 SWAP1 PUSH2 0x100 EXP DUP2 SLOAD DUP2 PUSH4 0xFFFFFFFF MUL NOT AND SWAP1 DUP4 PUSH4 0xFFFFFFFF AND MUL OR SWAP1 SSTORE POP POP PUSH2 0x686 PUSH0 PUSH2 0x18A7 JUMP JUMPDEST PUSH1 0x4 PUSH0 ADD PUSH1 0x15 SWAP1 SLOAD SWAP1 PUSH2 0x100 EXP SWAP1 DIV PUSH4 0xFFFFFFFF AND PUSH4 0xFFFFFFFF AND PUSH1 0x4 PUSH0 ADD PUSH0 SWAP1 SLOAD SWAP1 PUSH2 0x100 EXP SWAP1 DIV PUSH20 0xFFFFFFFFFFFFFFFFFFFFFFFFFFFFFFFFFFFFFFFF AND PUSH20 0xFFFFFFFFFFFFFFFFFFFFFFFFFFFFFFFFFFFFFFFF AND PUSH32 0x5AD9B3688012CD825C1BFB941E4F5AFB2558AF6AF3DEADDF01DBB5E85ABDAF9 PUSH1 0x40 MLOAD PUSH1 0x40 MLOAD DUP1 SWAP2 SUB SWAP1 LOG3 PUSH2 0x73E JUMP JUMPDEST PUSH1 0x40 MLOAD PUSH32 0xB513955100000000000000000000000000000000000000000000000000000000 DUP2 MSTORE PUSH1 0x4 ADD PUSH1 0x40 MLOAD DUP1 SWAP2 SUB SWAP1 REVERT JUMPDEST JUMP JUMPDEST CALLER PUSH20 0xFFFFFFFFFFFFFFFFFFFFFFFFFFFFFFFFFFFFFFFF AND PUSH1 0x3 PUSH0 SWAP1 SLOAD SWAP1 PUSH2 0x100 EXP SWAP1 DIV PUSH20 0xFFFFFFFFFFFFFFFFFFFFFFFFFFFFFFFFFFFFFFFF AND PUSH20 0xFFFFFFFFFFFFFFFFFFFFFFFFFFFFFFFFFFFFFFFF AND SUB PUSH2 0x8E4 JUMPI PUSH1 0x3 PUSH0 PUSH2 0x100 EXP DUP2 SLOAD SWAP1 PUSH20 0xFFFFFFFFFFFFFFFFFFFFFFFFFFFFFFFFFFFFFFFF MUL NOT AND SWAP1 SSTORE CALLER PUSH1 0x5 PUSH0 ADD PUSH0 PUSH2 0x100 EXP DUP2 SLOAD DUP2 PUSH20 0xFFFFFFFFFFFFFFFFFFFFFFFFFFFFFFFFFFFFFFFF MUL NOT AND SWAP1 DUP4 PUSH20 0xFFFFFFFFFFFFFFFFFFFFFFFFFFFFFFFFFFFFFFFF AND MUL OR SWAP1 SSTORE POP PUSH1 0x5 PUSH0 ADD PUSH1 0x15 DUP2 DUP2 SWAP1 SLOAD SWAP1 PUSH2 0x100 EXP SWAP1 DIV PUSH4 0xFFFFFFFF AND DUP1 SWAP3 SWAP2 SWAP1 PUSH2 0x81E SWAP1 PUSH2 0x1C03 JUMP JUMPDEST SWAP2 SWAP1 PUSH2 0x100 EXP DUP2 SLOAD DUP2 PUSH4 0xFFFFFFFF MUL NOT AND SWAP1 DUP4 PUSH4 0xFFFFFFFF AND MUL OR SWAP1 SSTORE POP POP PUSH1 0x5 PUSH0 ADD PUSH1 0x14 SWAP1 SLOAD SWAP1 PUSH2 0x100 EXP SWAP1 DIV PUSH1 0xFF AND ISZERO PUSH2 0x85E JUMPI PUSH2 0x85D PUSH0 PUSH2 0x18C6 JUMP JUMPDEST JUMPDEST PUSH1 0x5 PUSH0 ADD PUSH1 0x15 SWAP1 SLOAD SWAP1 PUSH2 0x100 EXP SWAP1 DIV PUSH4 0xFFFFFFFF AND PUSH4 0xFFFFFFFF AND PUSH1 0x5 PUSH0 ADD PUSH0 SWAP1 SLOAD SWAP1 PUSH2 0x100 EXP SWAP1 DIV PUSH20 0xFFFFFFFFFFFFFFFFFFFFFFFFFFFFFFFFFFFFFFFF AND PUSH20 0xFFFFFFFFFFFFFFFFFFFFFFFFFFFFFFFFFFFFFFFF AND PUSH32 0x11E1B985C07E1BF3FEC9BFD0BDB8C4A8E870BA2B26AA89FE50A6A19132CA10FD PUSH1 0x40 MLOAD PUSH1 0x40 MLOAD DUP1 SWAP2 SUB SWAP1 LOG3 PUSH2 0x916 JUMP JUMPDEST PUSH1 0x40 MLOAD PUSH32 0xB513955100000000000000000000000000000000000000000000000000000000 DUP2 MSTORE PUSH1 0x4 ADD PUSH1 0x40 MLOAD DUP1 SWAP2 SUB SWAP1 REVERT JUMPDEST JUMP JUMPDEST TIMESTAMP PUSH32 0x0 PUSH6 0xFFFFFFFFFFFF AND LT ISZERO PUSH2 0x9C2 JUMPI PUSH2 0x950 PUSH2 0x13FD JUMP JUMPDEST PUSH20 0xFFFFFFFFFFFFFFFFFFFFFFFFFFFFFFFFFFFFFFFF AND CALLER PUSH20 0xFFFFFFFFFFFFFFFFFFFFFFFFFFFFFFFFFFFFFFFF AND EQ PUSH2 0x9BD JUMPI PUSH1 0x40 MLOAD PUSH32 0x8C379A000000000000000000000000000000000000000000000000000000000 DUP2 MSTORE PUSH1 0x4 ADD PUSH2 0x9B4 SWAP1 PUSH2 0x1BB8 JUMP JUMPDEST PUSH1 0x40 MLOAD DUP1 SWAP2 SUB SWAP1 REVERT JUMPDEST PUSH2 0xA49 JUMP JUMPDEST PUSH2 0x9CA PUSH2 0xF42 JUMP JUMPDEST PUSH20 0xFFFFFFFFFFFFFFFFFFFFFFFFFFFFFFFFFFFFFFFF AND CALLER PUSH20 0xFFFFFFFFFFFFFFFFFFFFFFFFFFFFFFFFFFFFFFFF AND EQ DUP1 ISZERO PUSH2 0xA09 JUMPI POP PUSH2 0xA07 PUSH2 0xF6C JUMP JUMPDEST ISZERO JUMPDEST PUSH2 0xA48 JUMPI PUSH1 0x40 MLOAD PUSH32 0x8C379A000000000000000000000000000000000000000000000000000000000 DUP2 MSTORE PUSH1 0x4 ADD PUSH2 0xA3F SWAP1 PUSH2 0x1BB8 JUMP JUMPDEST PUSH1 0x40 MLOAD DUP1 SWAP2 SUB SWAP1 REVERT JUMPDEST JUMPDEST PUSH0 DUP2 PUSH20 0xFFFFFFFFFFFFFFFFFFFFFFFFFFFFFFFFFFFFFFFF AND EXTCODESIZE GT ISZERO PUSH2 0xB87 JUMPI CALLER PUSH20 0xFFFFFFFFFFFFFFFFFFFFFFFFFFFFFFFFFFFFFFFF AND PUSH1 0x4 PUSH0 ADD PUSH0 SWAP1 SLOAD SWAP1 PUSH2 0x100 EXP SWAP1 DIV PUSH20 0xFFFFFFFFFFFFFFFFFFFFFFFFFFFFFFFFFFFFFFFF AND PUSH20 0xFFFFFFFFFFFFFFFFFFFFFFFFFFFFFFFFFFFFFFFF AND SUB PUSH2 0xACC JUMPI PUSH2 0xAC7 DUP2 PUSH2 0x18E5 JUMP JUMPDEST PUSH2 0xB82 JUMP JUMPDEST PUSH3 0x13C680 TIMESTAMP PUSH2 0xADB SWAP2 SWAP1 PUSH2 0x1C37 JUMP JUMPDEST PUSH1 0x3 PUSH1 0x14 PUSH2 0x100 EXP DUP2 SLOAD DUP2 PUSH6 0xFFFFFFFFFFFF MUL NOT AND SWAP1 DUP4 PUSH6 0xFFFFFFFFFFFF AND MUL OR SWAP1 SSTORE POP DUP1 PUSH0 DUP1 PUSH2 0x100 EXP DUP2 SLOAD DUP2 PUSH20 0xFFFFFFFFFFFFFFFFFFFFFFFFFFFFFFFFFFFFFFFF MUL NOT AND SWAP1 DUP4 PUSH20 0xFFFFFFFFFFFFFFFFFFFFFFFFFFFFFFFFFFFFFFFF AND MUL OR SWAP1 SSTORE POP DUP1 PUSH20 0xFFFFFFFFFFFFFFFFFFFFFFFFFFFFFFFFFFFFFFFF AND PUSH32 0x675B770E821BA4AAD20BE77C58F912D689226272E805637F42F838A6035EED86 PUSH1 0x40 MLOAD PUSH1 0x40 MLOAD DUP1 SWAP2 SUB SWAP1 LOG2 JUMPDEST PUSH2 0xBC4 JUMP JUMPDEST DUP1 PUSH1 0x40 MLOAD PUSH32 0xC632231500000000000000000000000000000000000000000000000000000000 DUP2 MSTORE PUSH1 0x4 ADD PUSH2 0xBBB SWAP2 SWAP1 PUSH2 0x1AE6 JUMP JUMPDEST PUSH1 0x40 MLOAD DUP1 SWAP2 SUB SWAP1 REVERT JUMPDEST POP JUMP JUMPDEST PUSH0 PUSH1 0x6 PUSH0 ADD PUSH0 SWAP1 SLOAD SWAP1 PUSH2 0x100 EXP SWAP1 DIV PUSH20 0xFFFFFFFFFFFFFFFFFFFFFFFFFFFFFFFFFFFFFFFF AND SWAP1 POP SWAP1 JUMP JUMPDEST TIMESTAMP PUSH32 0x0 PUSH6 0xFFFFFFFFFFFF AND LT ISZERO PUSH2 0xC9B JUMPI PUSH2 0xC29 PUSH2 0x13FD JUMP JUMPDEST PUSH20 0xFFFFFFFFFFFFFFFFFFFFFFFFFFFFFFFFFFFFFFFF AND CALLER PUSH20 0xFFFFFFFFFFFFFFFFFFFFFFFFFFFFFFFFFFFFFFFF AND EQ PUSH2 0xC96 JUMPI PUSH1 0x40 MLOAD PUSH32 0x8C379A000000000000000000000000000000000000000000000000000000000 DUP2 MSTORE PUSH1 0x4 ADD PUSH2 0xC8D SWAP1 PUSH2 0x1BB8 JUMP JUMPDEST PUSH1 0x40 MLOAD DUP1 SWAP2 SUB SWAP1 REVERT JUMPDEST PUSH2 0xD22 JUMP JUMPDEST PUSH2 0xCA3 PUSH2 0xF42 JUMP JUMPDEST PUSH20 0xFFFFFFFFFFFFFFFFFFFFFFFFFFFFFFFFFFFFFFFF AND CALLER PUSH20 0xFFFFFFFFFFFFFFFFFFFFFFFFFFFFFFFFFFFFFFFF AND EQ DUP1 ISZERO PUSH2 0xCE2 JUMPI POP PUSH2 0xCE0 PUSH2 0xF6C JUMP JUMPDEST ISZERO JUMPDEST PUSH2 0xD21 JUMPI PUSH1 0x40 MLOAD PUSH32 0x8C379A000000000000000000000000000000000000000000000000000000000 DUP2 MSTORE PUSH1 0x4 ADD PUSH2 0xD18 SWAP1 PUSH2 0x1BB8 JUMP JUMPDEST PUSH1 0x40 MLOAD DUP1 SWAP2 SUB SWAP1 REVERT JUMPDEST JUMPDEST DUP1 PUSH20 0xFFFFFFFFFFFFFFFFFFFFFFFFFFFFFFFFFFFFFFFF AND PUSH0 DUP1 SLOAD SWAP1 PUSH2 0x100 EXP SWAP1 DIV PUSH20 0xFFFFFFFFFFFFFFFFFFFFFFFFFFFFFFFFFFFFFFFF AND PUSH20 0xFFFFFFFFFFFFFFFFFFFFFFFFFFFFFFFFFFFFFFFF AND SUB PUSH2 0xDF6 JUMPI PUSH1 0x3 PUSH1 0x14 PUSH2 0x100 EXP DUP2 SLOAD SWAP1 PUSH6 0xFFFFFFFFFFFF MUL NOT AND SWAP1 SSTORE PUSH0 DUP1 PUSH2 0x100 EXP DUP2 SLOAD SWAP1 PUSH20 0xFFFFFFFFFFFFFFFFFFFFFFFFFFFFFFFFFFFFFFFF MUL NOT AND SWAP1 SSTORE DUP1 PUSH20 0xFFFFFFFFFFFFFFFFFFFFFFFFFFFFFFFFFFFFFFFF AND PUSH32 0xF299F61C7E493F99B20CB36C587CA903D085D5206BFE4452D295711E372DA029 PUSH1 0x40 MLOAD PUSH1 0x40 MLOAD DUP1 SWAP2 SUB SWAP1 LOG2 PUSH2 0xE33 JUMP JUMPDEST DUP1 PUSH1 0x40 MLOAD PUSH32 0xC632231500000000000000000000000000000000000000000000000000000000 DUP2 MSTORE PUSH1 0x4 ADD PUSH2 0xE2A SWAP2 SWAP1 PUSH2 0x1AE6 JUMP JUMPDEST PUSH1 0x40 MLOAD DUP1 SWAP2 SUB SWAP1 REVERT JUMPDEST POP JUMP JUMPDEST PUSH2 0xE3E PUSH2 0xF42 JUMP JUMPDEST PUSH20 0xFFFFFFFFFFFFFFFFFFFFFFFFFFFFFFFFFFFFFFFF AND CALLER PUSH20 0xFFFFFFFFFFFFFFFFFFFFFFFFFFFFFFFFFFFFFFFF AND EQ DUP1 ISZERO PUSH2 0xE7D JUMPI POP PUSH2 0xE7B PUSH2 0xF6C JUMP JUMPDEST ISZERO JUMPDEST PUSH2 0xEBC JUMPI PUSH1 0x40 MLOAD PUSH32 0x8C379A000000000000000000000000000000000000000000000000000000000 DUP2 MSTORE PUSH1 0x4 ADD PUSH2 0xEB3 SWAP1 PUSH2 0x1BB8 JUMP JUMPDEST PUSH1 0x40 MLOAD DUP1 SWAP2 SUB SWAP1 REVERT JUMPDEST DUP1 PUSH1 0x3 PUSH0 PUSH2 0x100 EXP DUP2 SLOAD DUP2 PUSH20 0xFFFFFFFFFFFFFFFFFFFFFFFFFFFFFFFFFFFFFFFF MUL NOT AND SWAP1 DUP4 PUSH20 0xFFFFFFFFFFFFFFFFFFFFFFFFFFFFFFFFFFFFFFFF AND MUL OR SWAP1 SSTORE POP DUP1 PUSH20 0xFFFFFFFFFFFFFFFFFFFFFFFFFFFFFFFFFFFFFFFF AND PUSH32 0xFF3CAD3EE28C342AD5F3D7C8FF8559EE4D21EB48494092B82A1652E443B3420B PUSH1 0x40 MLOAD PUSH1 0x40 MLOAD DUP1 SWAP2 SUB SWAP1 LOG2 POP JUMP JUMPDEST PUSH0 PUSH1 0x4 PUSH0 ADD PUSH0 SWAP1 SLOAD SWAP1 PUSH2 0x100 EXP SWAP1 DIV PUSH20 0xFFFFFFFFFFFFFFFFFFFFFFFFFFFFFFFFFFFFFFFF AND SWAP1 POP SWAP1 JUMP JUMPDEST PUSH0 PUSH1 0x4 PUSH0 ADD PUSH1 0x14 SWAP1 SLOAD SWAP1 PUSH2 0x100 EXP SWAP1 DIV PUSH1 0xFF AND SWAP1 POP SWAP1 JUMP JUMPDEST TIMESTAMP PUSH32 0x0 PUSH6 0xFFFFFFFFFFFF AND LT ISZERO PUSH2 0x102E JUMPI PUSH2 0xFBC PUSH2 0x13FD JUMP JUMPDEST PUSH20 0xFFFFFFFFFFFFFFFFFFFFFFFFFFFFFFFFFFFFFFFF AND CALLER PUSH20 0xFFFFFFFFFFFFFFFFFFFFFFFFFFFFFFFFFFFFFFFF AND EQ PUSH2 0x1029 JUMPI PUSH1 0x40 MLOAD PUSH32 0x8C379A000000000000000000000000000000000000000000000000000000000 DUP2 MSTORE PUSH1 0x4 ADD PUSH2 0x1020 SWAP1 PUSH2 0x1BB8 JUMP JUMPDEST PUSH1 0x40 MLOAD DUP1 SWAP2 SUB SWAP1 REVERT JUMPDEST PUSH2 0x10B5 JUMP JUMPDEST PUSH2 0x1036 PUSH2 0xF42 JUMP JUMPDEST PUSH20 0xFFFFFFFFFFFFFFFFFFFFFFFFFFFFFFFFFFFFFFFF AND CALLER PUSH20 0xFFFFFFFFFFFFFFFFFFFFFFFFFFFFFFFFFFFFFFFF AND EQ DUP1 ISZERO PUSH2 0x1075 JUMPI POP PUSH2 0x1073 PUSH2 0xF6C JUMP JUMPDEST ISZERO JUMPDEST PUSH2 0x10B4 JUMPI PUSH1 0x40 MLOAD PUSH32 0x8C379A000000000000000000000000000000000000000000000000000000000 DUP2 MSTORE PUSH1 0x4 ADD PUSH2 0x10AB SWAP1 PUSH2 0x1BB8 JUMP JUMPDEST PUSH1 0x40 MLOAD DUP1 SWAP2 SUB SWAP1 REVERT JUMPDEST JUMPDEST TIMESTAMP PUSH1 0x3 PUSH1 0x14 SWAP1 SLOAD SWAP1 PUSH2 0x100 EXP SWAP1 DIV PUSH6 0xFFFFFFFFFFFF AND PUSH6 0xFFFFFFFFFFFF AND LT ISZERO PUSH2 0x1213 JUMPI PUSH0 PUSH1 0x3 PUSH1 0x14 SWAP1 SLOAD SWAP1 PUSH2 0x100 EXP SWAP1 DIV PUSH6 0xFFFFFFFFFFFF AND PUSH6 0xFFFFFFFFFFFF AND SUB PUSH2 0x1137 JUMPI PUSH1 0x40 MLOAD PUSH32 0x8C379A000000000000000000000000000000000000000000000000000000000 DUP2 MSTORE PUSH1 0x4 ADD PUSH2 0x112E SWAP1 PUSH2 0x1CB4 JUMP JUMPDEST PUSH1 0x40 MLOAD DUP1 SWAP2 SUB SWAP1 REVERT JUMPDEST DUP1 PUSH20 0xFFFFFFFFFFFFFFFFFFFFFFFFFFFFFFFFFFFFFFFF AND PUSH0 DUP1 SLOAD SWAP1 PUSH2 0x100 EXP SWAP1 DIV PUSH20 0xFFFFFFFFFFFFFFFFFFFFFFFFFFFFFFFFFFFFFFFF AND PUSH20 0xFFFFFFFFFFFFFFFFFFFFFFFFFFFFFFFFFFFFFFFF AND SUB PUSH2 0x11D1 JUMPI PUSH1 0x3 PUSH1 0x14 PUSH2 0x100 EXP DUP2 SLOAD SWAP1 PUSH6 0xFFFFFFFFFFFF MUL NOT AND SWAP1 SSTORE PUSH0 DUP1 PUSH2 0x100 EXP DUP2 SLOAD SWAP1 PUSH20 0xFFFFFFFFFFFFFFFFFFFFFFFFFFFFFFFFFFFFFFFF MUL NOT AND SWAP1 SSTORE PUSH2 0x11CC DUP2 PUSH2 0x18E5 JUMP JUMPDEST PUSH2 0x120E JUMP JUMPDEST DUP1 PUSH1 0x40 MLOAD PUSH32 0xC632231500000000000000000000000000000000000000000000000000000000 DUP2 MSTORE PUSH1 0x4 ADD PUSH2 0x1205 SWAP2 SWAP1 PUSH2 0x1AE6 JUMP JUMPDEST PUSH1 0x40 MLOAD DUP1 SWAP2 SUB SWAP1 REVERT JUMPDEST PUSH2 0x126F JUMP JUMPDEST TIMESTAMP PUSH1 0x3 PUSH1 0x14 SWAP1 SLOAD SWAP1 PUSH2 0x100 EXP SWAP1 DIV PUSH6 0xFFFFFFFFFFFF AND PUSH2 0x1233 SWAP2 SWAP1 PUSH2 0x1CE3 JUMP JUMPDEST PUSH1 0x40 MLOAD PUSH32 0x223A6CBB00000000000000000000000000000000000000000000000000000000 DUP2 MSTORE PUSH1 0x4 ADD PUSH2 0x1266 SWAP2 SWAP1 PUSH2 0x1D2B JUMP JUMPDEST PUSH1 0x40 MLOAD DUP1 SWAP2 SUB SWAP1 REVERT JUMPDEST POP JUMP JUMPDEST PUSH0 PUSH1 0x5 PUSH0 ADD PUSH0 SWAP1 SLOAD SWAP1 PUSH2 0x100 EXP SWAP1 DIV PUSH20 0xFFFFFFFFFFFFFFFFFFFFFFFFFFFFFFFFFFFFFFFF AND SWAP1 POP SWAP1 JUMP JUMPDEST TIMESTAMP PUSH32 0x0 PUSH6 0xFFFFFFFFFFFF AND LT ISZERO PUSH2 0x1346 JUMPI PUSH2 0x12D4 PUSH2 0x13FD JUMP JUMPDEST PUSH20 0xFFFFFFFFFFFFFFFFFFFFFFFFFFFFFFFFFFFFFFFF AND CALLER PUSH20 0xFFFFFFFFFFFFFFFFFFFFFFFFFFFFFFFFFFFFFFFF AND EQ PUSH2 0x1341 JUMPI PUSH1 0x40 MLOAD PUSH32 0x8C379A000000000000000000000000000000000000000000000000000000000 DUP2 MSTORE PUSH1 0x4 ADD PUSH2 0x1338 SWAP1 PUSH2 0x1BB8 JUMP JUMPDEST PUSH1 0x40 MLOAD DUP1 SWAP2 SUB SWAP1 REVERT JUMPDEST PUSH2 0x13CD JUMP JUMPDEST PUSH2 0x134E PUSH2 0xF42 JUMP JUMPDEST PUSH20 0xFFFFFFFFFFFFFFFFFFFFFFFFFFFFFFFFFFFFFFFF AND CALLER PUSH20 0xFFFFFFFFFFFFFFFFFFFFFFFFFFFFFFFFFFFFFFFF AND EQ DUP1 ISZERO PUSH2 0x138D JUMPI POP PUSH2 0x138B PUSH2 0xF6C JUMP JUMPDEST ISZERO JUMPDEST PUSH2 0x13CC JUMPI PUSH1 0x40 MLOAD PUSH32 0x8C379A000000000000000000000000000000000000000000000000000000000 DUP2 MSTORE PUSH1 0x4 ADD PUSH2 0x13C3 SWAP1 PUSH2 0x1BB8 JUMP JUMPDEST PUSH1 0x40 MLOAD DUP1 SWAP2 SUB SWAP1 REVERT JUMPDEST JUMPDEST PUSH2 0x13D6 DUP2 PUSH2 0x18A7 JUMP JUMPDEST PUSH2 0x13DF DUP2 PUSH2 0x18C6 JUMP JUMPDEST POP JUMP JUMPDEST PUSH0 PUSH1 0x6 PUSH0 ADD PUSH1 0x15 SWAP1 SLOAD SWAP1 PUSH2 0x100 EXP SWAP1 DIV PUSH4 0xFFFFFFFF AND SWAP1 POP SWAP1 JUMP JUMPDEST PUSH0 PUSH1 0x7 PUSH0 ADD PUSH0 SWAP1 SLOAD SWAP1 PUSH2 0x100 EXP SWAP1 DIV PUSH20 0xFFFFFFFFFFFFFFFFFFFFFFFFFFFFFFFFFFFFFFFF AND SWAP1 POP SWAP1 JUMP JUMPDEST TIMESTAMP PUSH32 0x0 PUSH6 0xFFFFFFFFFFFF AND LT ISZERO PUSH2 0x14D1 JUMPI PUSH2 0x145F PUSH2 0x13FD JUMP JUMPDEST PUSH20 0xFFFFFFFFFFFFFFFFFFFFFFFFFFFFFFFFFFFFFFFF AND CALLER PUSH20 0xFFFFFFFFFFFFFFFFFFFFFFFFFFFFFFFFFFFFFFFF AND EQ PUSH2 0x14CC JUMPI PUSH1 0x40 MLOAD PUSH32 0x8C379A000000000000000000000000000000000000000000000000000000000 DUP2 MSTORE PUSH1 0x4 ADD PUSH2 0x14C3 SWAP1 PUSH2 0x1BB8 JUMP JUMPDEST PUSH1 0x40 MLOAD DUP1 SWAP2 SUB SWAP1 REVERT JUMPDEST PUSH2 0x1558 JUMP JUMPDEST PUSH2 0x14D9 PUSH2 0xF42 JUMP JUMPDEST PUSH20 0xFFFFFFFFFFFFFFFFFFFFFFFFFFFFFFFFFFFFFFFF AND CALLER PUSH20 0xFFFFFFFFFFFFFFFFFFFFFFFFFFFFFFFFFFFFFFFF AND EQ DUP1 ISZERO PUSH2 0x1518 JUMPI POP PUSH2 0x1516 PUSH2 0xF6C JUMP JUMPDEST ISZERO JUMPDEST PUSH2 0x1557 JUMPI PUSH1 0x40 MLOAD PUSH32 0x8C379A000000000000000000000000000000000000000000000000000000000 DUP2 MSTORE PUSH1 0x4 ADD PUSH2 0x154E SWAP1 PUSH2 0x1BB8 JUMP JUMPDEST PUSH1 0x40 MLOAD DUP1 SWAP2 SUB SWAP1 REVERT JUMPDEST JUMPDEST PUSH0 DUP2 PUSH20 0xFFFFFFFFFFFFFFFFFFFFFFFFFFFFFFFFFFFFFFFF AND EXTCODESIZE GT ISZERO PUSH2 0x15FF JUMPI DUP1 PUSH1 0x1 PUSH0 PUSH2 0x100 EXP DUP2 SLOAD DUP2 PUSH20 0xFFFFFFFFFFFFFFFFFFFFFFFFFFFFFFFFFFFFFFFF MUL NOT AND SWAP1 DUP4 PUSH20 0xFFFFFFFFFFFFFFFFFFFFFFFFFFFFFFFFFFFFFFFF AND MUL OR SWAP1 SSTORE POP DUP1 PUSH20 0xFFFFFFFFFFFFFFFFFFFFFFFFFFFFFFFFFFFFFFFF AND PUSH32 0xE8D8E3C7C3EBEC0C177D0FE22D223F8B5071DB39155104808D45027E368BA77A PUSH1 0x40 MLOAD PUSH1 0x40 MLOAD DUP1 SWAP2 SUB SWAP1 LOG2 PUSH2 0x163C JUMP JUMPDEST DUP1 PUSH1 0x40 MLOAD PUSH32 0x84DBC6CB00000000000000000000000000000000000000000000000000000000 DUP2 MSTORE PUSH1 0x4 ADD PUSH2 0x1633 SWAP2 SWAP1 PUSH2 0x1AE6 JUMP JUMPDEST PUSH1 0x40 MLOAD DUP1 SWAP2 SUB SWAP1 REVERT JUMPDEST POP JUMP JUMPDEST PUSH0 ADDRESS SWAP1 POP SWAP1 JUMP JUMPDEST PUSH0 PUSH1 0x5 PUSH0 ADD PUSH1 0x14 SWAP1 SLOAD SWAP1 PUSH2 0x100 EXP SWAP1 DIV PUSH1 0xFF AND SWAP1 POP SWAP1 JUMP JUMPDEST PUSH2 0x1666 PUSH2 0xF42 JUMP JUMPDEST PUSH20 0xFFFFFFFFFFFFFFFFFFFFFFFFFFFFFFFFFFFFFFFF AND CALLER PUSH20 0xFFFFFFFFFFFFFFFFFFFFFFFFFFFFFFFFFFFFFFFF AND EQ DUP1 ISZERO PUSH2 0x16A5 JUMPI POP PUSH2 0x16A3 PUSH2 0xF6C JUMP JUMPDEST ISZERO JUMPDEST PUSH2 0x16E4 JUMPI PUSH1 0x40 MLOAD PUSH32 0x8C379A000000000000000000000000000000000000000000000000000000000 DUP2 MSTORE PUSH1 0x4 ADD PUSH2 0x16DB SWAP1 PUSH2 0x1BB8 JUMP JUMPDEST PUSH1 0x40 MLOAD DUP1 SWAP2 SUB SWAP1 REVERT JUMPDEST DUP1 PUSH20 0xFFFFFFFFFFFFFFFFFFFFFFFFFFFFFFFFFFFFFFFF AND PUSH1 0x1 PUSH0 SWAP1 SLOAD SWAP1 PUSH2 0x100 EXP SWAP1 DIV PUSH20 0xFFFFFFFFFFFFFFFFFFFFFFFFFFFFFFFFFFFFFFFF AND PUSH20 0xFFFFFFFFFFFFFFFFFFFFFFFFFFFFFFFFFFFFFFFF AND SUB PUSH2 0x1867 JUMPI PUSH1 0x1 PUSH0 PUSH2 0x100 EXP DUP2 SLOAD SWAP1 PUSH20 0xFFFFFFFFFFFFFFFFFFFFFFFFFFFFFFFFFFFFFFFF MUL NOT AND SWAP1 SSTORE DUP1 PUSH1 0x6 PUSH0 ADD PUSH0 PUSH2 0x100 EXP DUP2 SLOAD DUP2 PUSH20 0xFFFFFFFFFFFFFFFFFFFFFFFFFFFFFFFFFFFFFFFF MUL NOT AND SWAP1 DUP4 PUSH20 0xFFFFFFFFFFFFFFFFFFFFFFFFFFFFFFFFFFFFFFFF AND MUL OR SWAP1 SSTORE POP PUSH1 0x6 PUSH0 ADD PUSH1 0x15 DUP2 DUP2 SWAP1 SLOAD SWAP1 PUSH2 0x100 EXP SWAP1 DIV PUSH4 0xFFFFFFFF AND DUP1 SWAP3 SWAP2 SWAP1 PUSH2 0x17C2 SWAP1 PUSH2 0x1C03 JUMP JUMPDEST SWAP2 SWAP1 PUSH2 0x100 EXP DUP2 SLOAD DUP2 PUSH4 0xFFFFFFFF MUL NOT AND SWAP1 DUP4 PUSH4 0xFFFFFFFF AND MUL OR SWAP1 SSTORE POP POP PUSH1 0x6 PUSH0 ADD PUSH1 0x15 SWAP1 SLOAD SWAP1 PUSH2 0x100 EXP SWAP1 DIV PUSH4 0xFFFFFFFF AND PUSH4 0xFFFFFFFF AND PUSH1 0x6 PUSH0 ADD PUSH0 SWAP1 SLOAD SWAP1 PUSH2 0x100 EXP SWAP1 DIV PUSH20 0xFFFFFFFFFFFFFFFFFFFFFFFFFFFFFFFFFFFFFFFF AND PUSH20 0xFFFFFFFFFFFFFFFFFFFFFFFFFFFFFFFFFFFFFFFF AND PUSH32 0x5E86008A8467D1EFCCFE6CB6BD49BA7278D6AF2745A1E6994E443322A4237093 PUSH1 0x40 MLOAD PUSH1 0x40 MLOAD DUP1 SWAP2 SUB SWAP1 LOG3 PUSH2 0x18A4 JUMP JUMPDEST DUP1 PUSH1 0x40 MLOAD PUSH32 0x84DBC6CB00000000000000000000000000000000000000000000000000000000 DUP2 MSTORE PUSH1 0x4 ADD PUSH2 0x189B SWAP2 SWAP1 PUSH2 0x1AE6 JUMP JUMPDEST PUSH1 0x40 MLOAD DUP1 SWAP2 SUB SWAP1 REVERT JUMPDEST POP JUMP JUMPDEST DUP1 PUSH1 0x4 PUSH0 ADD PUSH1 0x14 PUSH2 0x100 EXP DUP2 SLOAD DUP2 PUSH1 0xFF MUL NOT AND SWAP1 DUP4 ISZERO ISZERO MUL OR SWAP1 SSTORE POP POP JUMP JUMPDEST DUP1 PUSH1 0x5 PUSH0 ADD PUSH1 0x14 PUSH2 0x100 EXP DUP2 SLOAD DUP2 PUSH1 0xFF MUL NOT AND SWAP1 DUP4 ISZERO ISZERO MUL OR SWAP1 SSTORE POP POP JUMP JUMPDEST DUP1 PUSH1 0x7 PUSH0 ADD PUSH0 PUSH2 0x100 EXP DUP2 SLOAD DUP2 PUSH20 0xFFFFFFFFFFFFFFFFFFFFFFFFFFFFFFFFFFFFFFFF MUL NOT AND SWAP1 DUP4 PUSH20 0xFFFFFFFFFFFFFFFFFFFFFFFFFFFFFFFFFFFFFFFF AND MUL OR SWAP1 SSTORE POP PUSH1 0x7 PUSH0 ADD PUSH1 0x15 DUP2 DUP2 SWAP1 SLOAD SWAP1 PUSH2 0x100 EXP SWAP1 DIV PUSH4 0xFFFFFFFF AND DUP1 SWAP3 SWAP2 SWAP1 PUSH2 0x194B SWAP1 PUSH2 0x1C03 JUMP JUMPDEST SWAP2 SWAP1 PUSH2 0x100 EXP DUP2 SLOAD DUP2 PUSH4 0xFFFFFFFF MUL NOT AND SWAP1 DUP4 PUSH4 0xFFFFFFFF AND MUL OR SWAP1 SSTORE POP POP PUSH1 0x7 PUSH0 ADD PUSH1 0x15 SWAP1 SLOAD SWAP1 PUSH2 0x100 EXP SWAP1 DIV PUSH4 0xFFFFFFFF AND PUSH4 0xFFFFFFFF AND PUSH1 0x7 PUSH0 ADD PUSH0 SWAP1 SLOAD SWAP1 PUSH2 0x100 EXP SWAP1 DIV PUSH20 0xFFFFFFFFFFFFFFFFFFFFFFFFFFFFFFFFFFFFFFFF AND PUSH20 0xFFFFFFFFFFFFFFFFFFFFFFFFFFFFFFFFFFFFFFFF AND PUSH32 0xF7F7C26682668C39FD8C6DBCA125BD9466E743B9E38ACC3240867C139CD93C30 PUSH1 0x40 MLOAD PUSH1 0x40 MLOAD DUP1 SWAP2 SUB SWAP1 LOG3 POP JUMP JUMPDEST PUSH0 DUP1 REVERT JUMPDEST PUSH0 PUSH20 0xFFFFFFFFFFFFFFFFFFFFFFFFFFFFFFFFFFFFFFFF DUP3 AND SWAP1 POP SWAP2 SWAP1 POP JUMP JUMPDEST PUSH0 PUSH2 0x1A1B DUP3 PUSH2 0x19F2 JUMP JUMPDEST SWAP1 POP SWAP2 SWAP1 POP JUMP JUMPDEST PUSH2 0x1A2B DUP2 PUSH2 0x1A11 JUMP JUMPDEST DUP2 EQ PUSH2 0x1A35 JUMPI PUSH0 DUP1 REVERT JUMPDEST POP JUMP JUMPDEST PUSH0 DUP2 CALLDATALOAD SWAP1 POP PUSH2 0x1A46 DUP2 PUSH2 0x1A22 JUMP JUMPDEST SWAP3 SWAP2 POP POP JUMP JUMPDEST PUSH0 PUSH1 0x20 DUP3 DUP5 SUB SLT ISZERO PUSH2 0x1A61 JUMPI PUSH2 0x1A60 PUSH2 0x19EE JUMP JUMPDEST JUMPDEST PUSH0 PUSH2 0x1A6E DUP5 DUP3 DUP6 ADD PUSH2 0x1A38 JUMP JUMPDEST SWAP2 POP POP SWAP3 SWAP2 POP POP JUMP JUMPDEST PUSH0 DUP2 ISZERO ISZERO SWAP1 POP SWAP2 SWAP1 POP JUMP JUMPDEST PUSH2 0x1A8B DUP2 PUSH2 0x1A77 JUMP JUMPDEST DUP2 EQ PUSH2 0x1A95 JUMPI PUSH0 DUP1 REVERT JUMPDEST POP JUMP JUMPDEST PUSH0 DUP2 CALLDATALOAD SWAP1 POP PUSH2 0x1AA6 DUP2 PUSH2 0x1A82 JUMP JUMPDEST SWAP3 SWAP2 POP POP JUMP JUMPDEST PUSH0 PUSH1 0x20 DUP3 DUP5 SUB SLT ISZERO PUSH2 0x1AC1 JUMPI PUSH2 0x1AC0 PUSH2 0x19EE JUMP JUMPDEST JUMPDEST PUSH0 PUSH2 0x1ACE DUP5 DUP3 DUP6 ADD PUSH2 0x1A98 JUMP JUMPDEST SWAP2 POP POP SWAP3 SWAP2 POP POP JUMP JUMPDEST PUSH2 0x1AE0 DUP2 PUSH2 0x1A11 JUMP JUMPDEST DUP3 MSTORE POP POP JUMP JUMPDEST PUSH0 PUSH1 0x20 DUP3 ADD SWAP1 POP PUSH2 0x1AF9 PUSH0 DUP4 ADD DUP5 PUSH2 0x1AD7 JUMP JUMPDEST SWAP3 SWAP2 POP POP JUMP JUMPDEST PUSH2 0x1B08 DUP2 PUSH2 0x1A77 JUMP JUMPDEST DUP3 MSTORE POP POP JUMP JUMPDEST PUSH0 PUSH1 0x20 DUP3 ADD SWAP1 POP PUSH2 0x1B21 PUSH0 DUP4 ADD DUP5 PUSH2 0x1AFF JUMP JUMPDEST SWAP3 SWAP2 POP POP JUMP JUMPDEST PUSH0 PUSH4 0xFFFFFFFF DUP3 AND SWAP1 POP SWAP2 SWAP1 POP JUMP JUMPDEST PUSH2 0x1B3F DUP2 PUSH2 0x1B27 JUMP JUMPDEST DUP3 MSTORE POP POP JUMP JUMPDEST PUSH0 PUSH1 0x20 DUP3 ADD SWAP1 POP PUSH2 0x1B58 PUSH0 DUP4 ADD DUP5 PUSH2 0x1B36 JUMP JUMPDEST SWAP3 SWAP2 POP POP JUMP JUMPDEST PUSH0 DUP3 DUP3 MSTORE PUSH1 0x20 DUP3 ADD SWAP1 POP SWAP3 SWAP2 POP POP JUMP JUMPDEST PUSH32 0x416363657373206973206E6F742076616C696400000000000000000000000000 PUSH0 DUP3 ADD MSTORE POP JUMP JUMPDEST PUSH0 PUSH2 0x1BA2 PUSH1 0x13 DUP4 PUSH2 0x1B5E JUMP JUMPDEST SWAP2 POP PUSH2 0x1BAD DUP3 PUSH2 0x1B6E JUMP JUMPDEST PUSH1 0x20 DUP3 ADD SWAP1 POP SWAP2 SWAP1 POP JUMP JUMPDEST PUSH0 PUSH1 0x20 DUP3 ADD SWAP1 POP DUP2 DUP2 SUB PUSH0 DUP4 ADD MSTORE PUSH2 0x1BCF DUP2 PUSH2 0x1B96 JUMP JUMPDEST SWAP1 POP SWAP2 SWAP1 POP JUMP JUMPDEST PUSH32 0x4E487B7100000000000000000000000000000000000000000000000000000000 PUSH0 MSTORE PUSH1 0x11 PUSH1 0x4 MSTORE PUSH1 0x24 PUSH0 REVERT JUMPDEST PUSH0 PUSH2 0x1C0D DUP3 PUSH2 0x1B27 JUMP JUMPDEST SWAP2 POP PUSH4 0xFFFFFFFF DUP3 SUB PUSH2 0x1C23 JUMPI PUSH2 0x1C22 PUSH2 0x1BD6 JUMP JUMPDEST JUMPDEST PUSH1 0x1 DUP3 ADD SWAP1 POP SWAP2 SWAP1 POP JUMP JUMPDEST PUSH0 DUP2 SWAP1 POP SWAP2 SWAP1 POP JUMP JUMPDEST PUSH0 PUSH2 0x1C41 DUP3 PUSH2 0x1C2E JUMP JUMPDEST SWAP2 POP PUSH2 0x1C4C DUP4 PUSH2 0x1C2E JUMP JUMPDEST SWAP3 POP DUP3 DUP3 ADD SWAP1 POP DUP1 DUP3 GT ISZERO PUSH2 0x1C64 JUMPI PUSH2 0x1C63 PUSH2 0x1BD6 JUMP JUMPDEST JUMPDEST SWAP3 SWAP2 POP POP JUMP JUMPDEST PUSH32 0x546865207265717565737420697320696E76616C696400000000000000000000 PUSH0 DUP3 ADD MSTORE POP JUMP JUMPDEST PUSH0 PUSH2 0x1C9E PUSH1 0x16 DUP4 PUSH2 0x1B5E JUMP JUMPDEST SWAP2 POP PUSH2 0x1CA9 DUP3 PUSH2 0x1C6A JUMP JUMPDEST PUSH1 0x20 DUP3 ADD SWAP1 POP SWAP2 SWAP1 POP JUMP JUMPDEST PUSH0 PUSH1 0x20 DUP3 ADD SWAP1 POP DUP2 DUP2 SUB PUSH0 DUP4 ADD MSTORE PUSH2 0x1CCB DUP2 PUSH2 0x1C92 JUMP JUMPDEST SWAP1 POP SWAP2 SWAP1 POP JUMP JUMPDEST PUSH0 PUSH6 0xFFFFFFFFFFFF DUP3 AND SWAP1 POP SWAP2 SWAP1 POP JUMP JUMPDEST PUSH0 PUSH2 0x1CED DUP3 PUSH2 0x1CD2 JUMP JUMPDEST SWAP2 POP PUSH2 0x1CF8 DUP4 PUSH2 0x1CD2 JUMP JUMPDEST SWAP3 POP DUP3 DUP3 SUB SWAP1 POP PUSH6 0xFFFFFFFFFFFF DUP2 GT ISZERO PUSH2 0x1D16 JUMPI PUSH2 0x1D15 PUSH2 0x1BD6 JUMP JUMPDEST JUMPDEST SWAP3 SWAP2 POP POP JUMP JUMPDEST PUSH2 0x1D25 DUP2 PUSH2 0x1CD2 JUMP JUMPDEST DUP3 MSTORE POP POP JUMP JUMPDEST PUSH0 PUSH1 0x20 DUP3 ADD SWAP1 POP PUSH2 0x1D3E PUSH0 DUP4 ADD DUP5 PUSH2 0x1D1C JUMP JUMPDEST SWAP3 SWAP2 POP POP JUMP INVALID LOG2 PUSH5 0x6970667358 0x22 SLT KECCAK256 0xF6 0xB2 0xFC 0xD0 PUSH17 0x98300987413F29015C0080F5AC4B50A875 SWAP9 RETURNDATASIZE GT 0xC7 0xB3 0xF6 PUSH1 0x2C 0xC5 ORIGIN PUSH5 0x736F6C6343 STOP ADDMOD EQ STOP CALLER "
				},
				"gasEstimates": {
					"creation": {
						"codeDepositCost": "1509200",
						"executionCost": "infinite",
						"totalCost": "infinite"
					},
					"external": {
						"cancelPendingRepublicAddress(address)": "infinite",
						"getAuthorityAddress()": "445",
						"getGovernance()": "2565",
						"getPresidentAdd()": "2631",
						"getPresidentBan()": "2552",
						"getPrimeMinisterAdd()": "2587",
						"getPrimeMinisterBan()": "2617",
						"getRepublicAddress()": "2542",
						"getgovernanceVersion()": "2640",
						"setPendigPresident(address)": "infinite",
						"setPendingGovernanceContractAddress(address)": "infinite",
						"setPendingPrimeMinister(address)": "30426",
						"setPendingRepublicAddress(address)": "infinite",
						"setPresidentBaned(bool)": "infinite",
						"setPrimeMinister(bool)": "29265",
						"transferGovernanceContractAddress(address)": "infinite",
						"transferPresident()": "107786",
						"transferPrimeMinister()": "110019",
						"transferRepublicAddress(address)": "infinite"
					}
				},
				"methodIdentifiers": {
					"cancelPendingRepublicAddress(address)": "52e305de",
					"getAuthorityAddress()": "e47a9d46",
					"getGovernance()": "289b3c0d",
					"getPresidentAdd()": "66410997",
					"getPresidentBan()": "6cf106d7",
					"getPrimeMinisterAdd()": "a53da00b",
					"getPrimeMinisterBan()": "e4f3e947",
					"getRepublicAddress()": "c5a1c5c1",
					"getgovernanceVersion()": "c387b49c",
					"setPendigPresident(address)": "054203bd",
					"setPendingGovernanceContractAddress(address)": "ca4cce68",
					"setPendingPrimeMinister(address)": "544fa93e",
					"setPendingRepublicAddress(address)": "1f72783a",
					"setPresidentBaned(bool)": "b5c09c68",
					"setPrimeMinister(bool)": "06e99d93",
					"transferGovernanceContractAddress(address)": "ee7126c3",
					"transferPresident()": "0df4c390",
					"transferPrimeMinister()": "18074eee",
					"transferRepublicAddress(address)": "9c20fe71"
				}
			},
			"storageLayout": {
				"storage": [
					{
						"astId": 3163,
						"contract": "contracts/faykGovernance.sol:faykGovernance",
						"label": "_pendigRepublicAddress",
						"offset": 0,
						"slot": "0",
						"type": "t_address"
					},
					{
						"astId": 3165,
						"contract": "contracts/faykGovernance.sol:faykGovernance",
						"label": "_pendingGCAddress",
						"offset": 0,
						"slot": "1",
						"type": "t_address"
					},
					{
						"astId": 3167,
						"contract": "contracts/faykGovernance.sol:faykGovernance",
						"label": "_pendigPresident",
						"offset": 0,
						"slot": "2",
						"type": "t_address"
					},
					{
						"astId": 3169,
						"contract": "contracts/faykGovernance.sol:faykGovernance",
						"label": "_pendingPrimeMinister",
						"offset": 0,
						"slot": "3",
						"type": "t_address"
					},
					{
						"astId": 3173,
						"contract": "contracts/faykGovernance.sol:faykGovernance",
						"label": "_delayConfirmRepublicAddress",
						"offset": 20,
						"slot": "3",
						"type": "t_uint48"
					},
					{
						"astId": 3183,
						"contract": "contracts/faykGovernance.sol:faykGovernance",
						"label": "_president",
						"offset": 0,
						"slot": "4",
						"type": "t_struct(access)3180_storage"
					},
					{
						"astId": 3186,
						"contract": "contracts/faykGovernance.sol:faykGovernance",
						"label": "_primeMinister",
						"offset": 0,
						"slot": "5",
						"type": "t_struct(access)3180_storage"
					},
					{
						"astId": 3189,
						"contract": "contracts/faykGovernance.sol:faykGovernance",
						"label": "_governance",
						"offset": 0,
						"slot": "6",
						"type": "t_struct(access)3180_storage"
					},
					{
						"astId": 3192,
						"contract": "contracts/faykGovernance.sol:faykGovernance",
						"label": "_Republic",
						"offset": 0,
						"slot": "7",
						"type": "t_struct(access)3180_storage"
					},
					{
						"astId": 3798,
						"contract": "contracts/faykGovernance.sol:faykGovernance",
						"label": "_callerInfo",
						"offset": 0,
						"slot": "8",
						"type": "t_mapping(t_address,t_struct(CallerInfo)3773_storage)"
					},
					{
						"astId": 3804,
						"contract": "contracts/faykGovernance.sol:faykGovernance",
						"label": "_connectorMapping",
						"offset": 0,
						"slot": "9",
						"type": "t_mapping(t_bytes32,t_mapping(t_bytes32,t_address))"
					},
					{
						"astId": 3811,
						"contract": "contracts/faykGovernance.sol:faykGovernance",
						"label": "_roleinfo",
						"offset": 0,
						"slot": "10",
						"type": "t_mapping(t_uint32,t_mapping(t_bytes32,t_struct(Role)3793_storage))"
					},
					{
						"astId": 3818,
						"contract": "contracts/faykGovernance.sol:faykGovernance",
						"label": "_targets",
						"offset": 0,
						"slot": "11",
						"type": "t_mapping(t_address,t_mapping(t_bytes4,t_struct(TargetConfig)3783_storage))"
					}
				],
				"types": {
					"t_address": {
						"encoding": "inplace",
						"label": "address",
						"numberOfBytes": "20"
					},
					"t_bool": {
						"encoding": "inplace",
						"label": "bool",
						"numberOfBytes": "1"
					},
					"t_bytes32": {
						"encoding": "inplace",
						"label": "bytes32",
						"numberOfBytes": "32"
					},
					"t_bytes4": {
						"encoding": "inplace",
						"label": "bytes4",
						"numberOfBytes": "4"
					},
					"t_mapping(t_address,t_mapping(t_bytes4,t_struct(TargetConfig)3783_storage))": {
						"encoding": "mapping",
						"key": "t_address",
						"label": "mapping(address => mapping(bytes4 => struct faykGovernance.TargetConfig))",
						"numberOfBytes": "32",
						"value": "t_mapping(t_bytes4,t_struct(TargetConfig)3783_storage)"
					},
					"t_mapping(t_address,t_struct(CallerInfo)3773_storage)": {
						"encoding": "mapping",
						"key": "t_address",
						"label": "mapping(address => struct faykGovernance.CallerInfo)",
						"numberOfBytes": "32",
						"value": "t_struct(CallerInfo)3773_storage"
					},
					"t_mapping(t_bytes32,t_address)": {
						"encoding": "mapping",
						"key": "t_bytes32",
						"label": "mapping(bytes32 => address)",
						"numberOfBytes": "32",
						"value": "t_address"
					},
					"t_mapping(t_bytes32,t_mapping(t_bytes32,t_address))": {
						"encoding": "mapping",
						"key": "t_bytes32",
						"label": "mapping(bytes32 => mapping(bytes32 => address))",
						"numberOfBytes": "32",
						"value": "t_mapping(t_bytes32,t_address)"
					},
					"t_mapping(t_bytes32,t_struct(Role)3793_storage)": {
						"encoding": "mapping",
						"key": "t_bytes32",
						"label": "mapping(bytes32 => struct faykGovernance.Role)",
						"numberOfBytes": "32",
						"value": "t_struct(Role)3793_storage"
					},
					"t_mapping(t_bytes4,t_struct(TargetConfig)3783_storage)": {
						"encoding": "mapping",
						"key": "t_bytes4",
						"label": "mapping(bytes4 => struct faykGovernance.TargetConfig)",
						"numberOfBytes": "32",
						"value": "t_struct(TargetConfig)3783_storage"
					},
					"t_mapping(t_uint32,t_mapping(t_bytes32,t_struct(Role)3793_storage))": {
						"encoding": "mapping",
						"key": "t_uint32",
						"label": "mapping(uint32 => mapping(bytes32 => struct faykGovernance.Role))",
						"numberOfBytes": "32",
						"value": "t_mapping(t_bytes32,t_struct(Role)3793_storage)"
					},
					"t_struct(CallerInfo)3773_storage": {
						"encoding": "inplace",
						"label": "struct faykGovernance.CallerInfo",
						"members": [
							{
								"astId": 3765,
								"contract": "contracts/faykGovernance.sol:faykGovernance",
								"label": "peopleName_satrap",
								"offset": 0,
								"slot": "0",
								"type": "t_bytes32"
							},
							{
								"astId": 3767,
								"contract": "contracts/faykGovernance.sol:faykGovernance",
								"label": "roleId",
								"offset": 0,
								"slot": "1",
								"type": "t_uint32"
							},
							{
								"astId": 3769,
								"contract": "contracts/faykGovernance.sol:faykGovernance",
								"label": "since",
								"offset": 4,
								"slot": "1",
								"type": "t_uint48"
							},
							{
								"astId": 3772,
								"contract": "contracts/faykGovernance.sol:faykGovernance",
								"label": "delay",
								"offset": 10,
								"slot": "1",
								"type": "t_userDefinedValueType(Delay)2845"
							}
						],
						"numberOfBytes": "64"
					},
					"t_struct(Role)3793_storage": {
						"encoding": "inplace",
						"label": "struct faykGovernance.Role",
						"members": [
							{
								"astId": 3785,
								"contract": "contracts/faykGovernance.sol:faykGovernance",
								"label": "roleLabel",
								"offset": 0,
								"slot": "0",
								"type": "t_bytes32"
							},
							{
								"astId": 3787,
								"contract": "contracts/faykGovernance.sol:faykGovernance",
								"label": "admin",
								"offset": 0,
								"slot": "1",
								"type": "t_uint32"
							},
							{
								"astId": 3789,
								"contract": "contracts/faykGovernance.sol:faykGovernance",
								"label": "guardian",
								"offset": 4,
								"slot": "1",
								"type": "t_uint32"
							},
							{
								"astId": 3792,
								"contract": "contracts/faykGovernance.sol:faykGovernance",
								"label": "grantDelay",
								"offset": 8,
								"slot": "1",
								"type": "t_userDefinedValueType(Delay)2845"
							}
						],
						"numberOfBytes": "64"
					},
					"t_struct(TargetConfig)3783_storage": {
						"encoding": "inplace",
						"label": "struct faykGovernance.TargetConfig",
						"members": [
							{
								"astId": 3775,
								"contract": "contracts/faykGovernance.sol:faykGovernance",
								"label": "roleId",
								"offset": 0,
								"slot": "0",
								"type": "t_uint32"
							},
							{
								"astId": 3777,
								"contract": "contracts/faykGovernance.sol:faykGovernance",
								"label": "peopleName_satrap",
								"offset": 0,
								"slot": "1",
								"type": "t_bytes32"
							},
							{
								"astId": 3780,
								"contract": "contracts/faykGovernance.sol:faykGovernance",
								"label": "adminDelay",
								"offset": 0,
								"slot": "2",
								"type": "t_userDefinedValueType(Delay)2845"
							},
							{
								"astId": 3782,
								"contract": "contracts/faykGovernance.sol:faykGovernance",
								"label": "closed",
								"offset": 14,
								"slot": "2",
								"type": "t_bool"
							}
						],
						"numberOfBytes": "96"
					},
					"t_struct(access)3180_storage": {
						"encoding": "inplace",
						"label": "struct Authority.access",
						"members": [
							{
								"astId": 3175,
								"contract": "contracts/faykGovernance.sol:faykGovernance",
								"label": "roleAdd",
								"offset": 0,
								"slot": "0",
								"type": "t_address"
							},
							{
								"astId": 3177,
								"contract": "contracts/faykGovernance.sol:faykGovernance",
								"label": "baned",
								"offset": 20,
								"slot": "0",
								"type": "t_bool"
							},
							{
								"astId": 3179,
								"contract": "contracts/faykGovernance.sol:faykGovernance",
								"label": "nonce",
								"offset": 21,
								"slot": "0",
								"type": "t_uint32"
							}
						],
						"numberOfBytes": "32"
					},
					"t_uint32": {
						"encoding": "inplace",
						"label": "uint32",
						"numberOfBytes": "4"
					},
					"t_uint48": {
						"encoding": "inplace",
						"label": "uint48",
						"numberOfBytes": "6"
					},
					"t_userDefinedValueType(Delay)2845": {
						"encoding": "inplace",
						"label": "Time.Delay",
						"numberOfBytes": "14"
					}
				}
			},
			"userdoc": {
				"kind": "user",
				"methods": {},
				"version": 1
			}
		}
	}
}