{
	"contracts/ERC721TokenContractName.sol": {
		"ERC721TokenContractName": {
			"abi": [
				{
					"inputs": [
						{
							"internalType": "bytes20",
							"name": "name_",
							"type": "bytes20"
						},
						{
							"internalType": "bytes10",
							"name": "symbol_",
							"type": "bytes10"
						}
					],
					"stateMutability": "nonpayable",
					"type": "constructor"
				},
				{
					"inputs": [
						{
							"internalType": "address",
							"name": "sender",
							"type": "address"
						},
						{
							"internalType": "uint256",
							"name": "tokenId",
							"type": "uint256"
						},
						{
							"internalType": "address",
							"name": "owner",
							"type": "address"
						}
					],
					"name": "ERC721IncorrectOwner",
					"type": "error"
				},
				{
					"inputs": [
						{
							"internalType": "address",
							"name": "operator",
							"type": "address"
						},
						{
							"internalType": "uint256",
							"name": "tokenId",
							"type": "uint256"
						}
					],
					"name": "ERC721InsufficientApproval",
					"type": "error"
				},
				{
					"inputs": [
						{
							"internalType": "address",
							"name": "approver",
							"type": "address"
						}
					],
					"name": "ERC721InvalidApprover",
					"type": "error"
				},
				{
					"inputs": [
						{
							"internalType": "address",
							"name": "operator",
							"type": "address"
						}
					],
					"name": "ERC721InvalidOperator",
					"type": "error"
				},
				{
					"inputs": [
						{
							"internalType": "address",
							"name": "owner",
							"type": "address"
						}
					],
					"name": "ERC721InvalidOwner",
					"type": "error"
				},
				{
					"inputs": [
						{
							"internalType": "address",
							"name": "receiver",
							"type": "address"
						}
					],
					"name": "ERC721InvalidReceiver",
					"type": "error"
				},
				{
					"inputs": [
						{
							"internalType": "address",
							"name": "sender",
							"type": "address"
						}
					],
					"name": "ERC721InvalidSender",
					"type": "error"
				},
				{
					"inputs": [
						{
							"internalType": "uint256",
							"name": "tokenId",
							"type": "uint256"
						}
					],
					"name": "ERC721NonexistentToken",
					"type": "error"
				},
				{
					"anonymous": false,
					"inputs": [
						{
							"indexed": true,
							"internalType": "address",
							"name": "owner",
							"type": "address"
						},
						{
							"indexed": true,
							"internalType": "address",
							"name": "approved",
							"type": "address"
						},
						{
							"indexed": true,
							"internalType": "uint16",
							"name": "tokenId",
							"type": "uint16"
						}
					],
					"name": "Approval",
					"type": "event"
				},
				{
					"anonymous": false,
					"inputs": [
						{
							"indexed": true,
							"internalType": "address",
							"name": "owner",
							"type": "address"
						},
						{
							"indexed": true,
							"internalType": "address",
							"name": "operator",
							"type": "address"
						},
						{
							"indexed": false,
							"internalType": "bool",
							"name": "approved",
							"type": "bool"
						}
					],
					"name": "ApprovalForAll",
					"type": "event"
				},
				{
					"anonymous": false,
					"inputs": [
						{
							"indexed": true,
							"internalType": "address",
							"name": "from",
							"type": "address"
						},
						{
							"indexed": true,
							"internalType": "address",
							"name": "to",
							"type": "address"
						},
						{
							"indexed": true,
							"internalType": "uint16",
							"name": "tokenId",
							"type": "uint16"
						}
					],
					"name": "Transfer",
					"type": "event"
				},
				{
					"inputs": [
						{
							"internalType": "address",
							"name": "to",
							"type": "address"
						},
						{
							"internalType": "uint16",
							"name": "tokenId",
							"type": "uint16"
						}
					],
					"name": "approve",
					"outputs": [],
					"stateMutability": "nonpayable",
					"type": "function"
				},
				{
					"inputs": [
						{
							"internalType": "address",
							"name": "owner",
							"type": "address"
						}
					],
					"name": "balanceOf",
					"outputs": [
						{
							"internalType": "uint16",
							"name": "",
							"type": "uint16"
						}
					],
					"stateMutability": "view",
					"type": "function"
				},
				{
					"inputs": [
						{
							"internalType": "uint16",
							"name": "tokenId",
							"type": "uint16"
						}
					],
					"name": "getApproved",
					"outputs": [
						{
							"internalType": "address",
							"name": "",
							"type": "address"
						}
					],
					"stateMutability": "view",
					"type": "function"
				},
				{
					"inputs": [
						{
							"internalType": "address",
							"name": "owner",
							"type": "address"
						},
						{
							"internalType": "address",
							"name": "operator",
							"type": "address"
						}
					],
					"name": "isApprovedForAll",
					"outputs": [
						{
							"internalType": "bool",
							"name": "",
							"type": "bool"
						}
					],
					"stateMutability": "view",
					"type": "function"
				},
				{
					"inputs": [],
					"name": "name",
					"outputs": [
						{
							"internalType": "bytes20",
							"name": "",
							"type": "bytes20"
						}
					],
					"stateMutability": "view",
					"type": "function"
				},
				{
					"inputs": [
						{
							"internalType": "address",
							"name": "operator",
							"type": "address"
						},
						{
							"internalType": "address",
							"name": "from",
							"type": "address"
						},
						{
							"internalType": "uint16",
							"name": "tokenId",
							"type": "uint16"
						},
						{
							"internalType": "bytes",
							"name": "data",
							"type": "bytes"
						}
					],
					"name": "onERC721Received",
					"outputs": [
						{
							"internalType": "bytes4",
							"name": "",
							"type": "bytes4"
						}
					],
					"stateMutability": "nonpayable",
					"type": "function"
				},
				{
					"inputs": [
						{
							"internalType": "uint16",
							"name": "tokenId",
							"type": "uint16"
						}
					],
					"name": "ownerOf",
					"outputs": [
						{
							"internalType": "address",
							"name": "",
							"type": "address"
						}
					],
					"stateMutability": "view",
					"type": "function"
				},
				{
					"inputs": [
						{
							"internalType": "address",
							"name": "from",
							"type": "address"
						},
						{
							"internalType": "address",
							"name": "to",
							"type": "address"
						},
						{
							"internalType": "uint16",
							"name": "tokenId",
							"type": "uint16"
						}
					],
					"name": "safeTransferFrom",
					"outputs": [],
					"stateMutability": "nonpayable",
					"type": "function"
				},
				{
					"inputs": [
						{
							"internalType": "address",
							"name": "from",
							"type": "address"
						},
						{
							"internalType": "address",
							"name": "to",
							"type": "address"
						},
						{
							"internalType": "uint16",
							"name": "tokenId",
							"type": "uint16"
						},
						{
							"internalType": "bytes",
							"name": "data",
							"type": "bytes"
						}
					],
					"name": "safeTransferFrom",
					"outputs": [],
					"stateMutability": "nonpayable",
					"type": "function"
				},
				{
					"inputs": [
						{
							"internalType": "address",
							"name": "operator",
							"type": "address"
						},
						{
							"internalType": "bool",
							"name": "approved",
							"type": "bool"
						}
					],
					"name": "setApprovalForAll",
					"outputs": [],
					"stateMutability": "nonpayable",
					"type": "function"
				},
				{
					"inputs": [],
					"name": "symbol",
					"outputs": [
						{
							"internalType": "bytes10",
							"name": "",
							"type": "bytes10"
						}
					],
					"stateMutability": "view",
					"type": "function"
				},
				{
					"inputs": [
						{
							"internalType": "uint16",
							"name": "tokenId",
							"type": "uint16"
						}
					],
					"name": "tokenURI",
					"outputs": [
						{
							"internalType": "string",
							"name": "",
							"type": "string"
						}
					],
					"stateMutability": "view",
					"type": "function"
				},
				{
					"inputs": [
						{
							"internalType": "address",
							"name": "from",
							"type": "address"
						},
						{
							"internalType": "address",
							"name": "to",
							"type": "address"
						},
						{
							"internalType": "uint16",
							"name": "tokenId",
							"type": "uint16"
						}
					],
					"name": "transferFrom",
					"outputs": [],
					"stateMutability": "nonpayable",
					"type": "function"
				}
			],
			"devdoc": {
				"errors": {
					"ERC721IncorrectOwner(address,uint256,address)": [
						{
							"details": "Indicates an error related to the ownership over a particular token. Used in transfers.",
							"params": {
								"owner": "Address of the current owner of a token.",
								"sender": "Address whose tokens are being transferred.",
								"tokenId": "Identifier number of a token."
							}
						}
					],
					"ERC721InsufficientApproval(address,uint256)": [
						{
							"details": "Indicates a failure with the `operator`’s approval. Used in transfers.",
							"params": {
								"operator": "Address that may be allowed to operate on tokens without being their owner.",
								"tokenId": "Identifier number of a token."
							}
						}
					],
					"ERC721InvalidApprover(address)": [
						{
							"details": "Indicates a failure with the `approver` of a token to be approved. Used in approvals.",
							"params": {
								"approver": "Address initiating an approval operation."
							}
						}
					],
					"ERC721InvalidOperator(address)": [
						{
							"details": "Indicates a failure with the `operator` to be approved. Used in approvals.",
							"params": {
								"operator": "Address that may be allowed to operate on tokens without being their owner."
							}
						}
					],
					"ERC721InvalidOwner(address)": [
						{
							"details": "Indicates that an address can't be an owner. For example, `address(0)` is a forbidden owner in EIP-20. Used in balance queries.",
							"params": {
								"owner": "Address of the current owner of a token."
							}
						}
					],
					"ERC721InvalidReceiver(address)": [
						{
							"details": "Indicates a failure with the token `receiver`. Used in transfers.",
							"params": {
								"receiver": "Address to which tokens are being transferred."
							}
						}
					],
					"ERC721InvalidSender(address)": [
						{
							"details": "Indicates a failure with the token `sender`. Used in transfers.",
							"params": {
								"sender": "Address whose tokens are being transferred."
							}
						}
					],
					"ERC721NonexistentToken(uint256)": [
						{
							"details": "Indicates a `tokenId` whose `owner` is the zero address.",
							"params": {
								"tokenId": "Identifier number of a token."
							}
						}
					]
				},
				"kind": "dev",
				"methods": {
					"onERC721Received(address,address,uint16,bytes)": {
						"details": "Whenever an {IERC721} `tokenId` token is transferred to this contract via {IERC721-safeTransferFrom} by `operator` from `from`, this function is called. It must return its Solidity selector to confirm the token transfer. If any other value is returned or the interface is not implemented by the recipient, the transfer will be reverted. The selector can be obtained in Solidity with `IERC721Receiver.onERC721Received.selector`."
					}
				},
				"version": 1
			},
			"evm": {
				"assembly": "    /* \"contracts/ERC721TokenContractName.sol\":400:6775  contract ERC721TokenContractName is Context, IERC721Errors, IERC721TCNReceiver {... */\n  mstore(0x40, 0x80)\n    /* \"contracts/ERC721TokenContractName.sol\":1340:1444  constructor(bytes20 name_, bytes10 symbol_) {... */\n  callvalue\n  dup1\n  iszero\n  tag_1\n  jumpi\n  0x00\n  dup1\n  revert\ntag_1:\n  pop\n  mload(0x40)\n  sub(codesize, bytecodeSize)\n  dup1\n  bytecodeSize\n  dup4\n  codecopy\n  dup2\n  dup2\n  add\n  0x40\n  mstore\n  dup2\n  add\n  swap1\n  tag_2\n  swap2\n  swap1\n  tag_3\n  jump\t// in\ntag_2:\n    /* \"contracts/ERC721TokenContractName.sol\":1403:1408  name_ */\n  dup2\n    /* \"contracts/ERC721TokenContractName.sol\":1395:1400  _name */\n  0x00\n  dup1\n    /* \"contracts/ERC721TokenContractName.sol\":1395:1408  _name = name_ */\n  0x0100\n  exp\n  dup2\n  sload\n  dup2\n  0xffffffffffffffffffffffffffffffffffffffff\n  mul\n  not\n  and\n  swap1\n  dup4\n  0x60\n  shr\n  mul\n  or\n  swap1\n  sstore\n  pop\n    /* \"contracts/ERC721TokenContractName.sol\":1429:1436  symbol_ */\n  dup1\n    /* \"contracts/ERC721TokenContractName.sol\":1419:1426  _symbol */\n  0x00\n  0x14\n    /* \"contracts/ERC721TokenContractName.sol\":1419:1436  _symbol = symbol_ */\n  0x0100\n  exp\n  dup2\n  sload\n  dup2\n  0xffffffffffffffffffff\n  mul\n  not\n  and\n  swap1\n  dup4\n  0xb0\n  shr\n  mul\n  or\n  swap1\n  sstore\n  pop\n    /* \"contracts/ERC721TokenContractName.sol\":1340:1444  constructor(bytes20 name_, bytes10 symbol_) {... */\n  pop\n  pop\n    /* \"contracts/ERC721TokenContractName.sol\":400:6775  contract ERC721TokenContractName is Context, IERC721Errors, IERC721TCNReceiver {... */\n  jump(tag_6)\n    /* \"#utility.yul\":88:205   */\ntag_8:\n    /* \"#utility.yul\":197:198   */\n  0x00\n    /* \"#utility.yul\":194:195   */\n  dup1\n    /* \"#utility.yul\":187:199   */\n  revert\n    /* \"#utility.yul\":334:484   */\ntag_10:\n    /* \"#utility.yul\":371:378   */\n  0x00\n    /* \"#utility.yul\":411:477   */\n  0xffffffffffffffffffffffffffffffffffffffff000000000000000000000000\n    /* \"#utility.yul\":404:409   */\n  dup3\n    /* \"#utility.yul\":400:478   */\n  and\n    /* \"#utility.yul\":389:478   */\n  swap1\n  pop\n    /* \"#utility.yul\":334:484   */\n  swap2\n  swap1\n  pop\n  jump\t// out\n    /* \"#utility.yul\":490:612   */\ntag_11:\n    /* \"#utility.yul\":563:587   */\n  tag_22\n    /* \"#utility.yul\":581:586   */\n  dup2\n    /* \"#utility.yul\":563:587   */\n  tag_10\n  jump\t// in\ntag_22:\n    /* \"#utility.yul\":556:561   */\n  dup2\n    /* \"#utility.yul\":553:588   */\n  eq\n    /* \"#utility.yul\":543:606   */\n  tag_23\n  jumpi\n    /* \"#utility.yul\":602:603   */\n  0x00\n    /* \"#utility.yul\":599:600   */\n  dup1\n    /* \"#utility.yul\":592:604   */\n  revert\n    /* \"#utility.yul\":543:606   */\ntag_23:\n    /* \"#utility.yul\":490:612   */\n  pop\n  jump\t// out\n    /* \"#utility.yul\":618:761   */\ntag_12:\n    /* \"#utility.yul\":675:680   */\n  0x00\n    /* \"#utility.yul\":706:712   */\n  dup2\n    /* \"#utility.yul\":700:713   */\n  mload\n    /* \"#utility.yul\":691:713   */\n  swap1\n  pop\n    /* \"#utility.yul\":722:755   */\n  tag_25\n    /* \"#utility.yul\":749:754   */\n  dup2\n    /* \"#utility.yul\":722:755   */\n  tag_11\n  jump\t// in\ntag_25:\n    /* \"#utility.yul\":618:761   */\n  swap3\n  swap2\n  pop\n  pop\n  jump\t// out\n    /* \"#utility.yul\":767:917   */\ntag_13:\n    /* \"#utility.yul\":804:811   */\n  0x00\n    /* \"#utility.yul\":844:910   */\n  0xffffffffffffffffffff00000000000000000000000000000000000000000000\n    /* \"#utility.yul\":837:842   */\n  dup3\n    /* \"#utility.yul\":833:911   */\n  and\n    /* \"#utility.yul\":822:911   */\n  swap1\n  pop\n    /* \"#utility.yul\":767:917   */\n  swap2\n  swap1\n  pop\n  jump\t// out\n    /* \"#utility.yul\":923:1045   */\ntag_14:\n    /* \"#utility.yul\":996:1020   */\n  tag_28\n    /* \"#utility.yul\":1014:1019   */\n  dup2\n    /* \"#utility.yul\":996:1020   */\n  tag_13\n  jump\t// in\ntag_28:\n    /* \"#utility.yul\":989:994   */\n  dup2\n    /* \"#utility.yul\":986:1021   */\n  eq\n    /* \"#utility.yul\":976:1039   */\n  tag_29\n  jumpi\n    /* \"#utility.yul\":1035:1036   */\n  0x00\n    /* \"#utility.yul\":1032:1033   */\n  dup1\n    /* \"#utility.yul\":1025:1037   */\n  revert\n    /* \"#utility.yul\":976:1039   */\ntag_29:\n    /* \"#utility.yul\":923:1045   */\n  pop\n  jump\t// out\n    /* \"#utility.yul\":1051:1194   */\ntag_15:\n    /* \"#utility.yul\":1108:1113   */\n  0x00\n    /* \"#utility.yul\":1139:1145   */\n  dup2\n    /* \"#utility.yul\":1133:1146   */\n  mload\n    /* \"#utility.yul\":1124:1146   */\n  swap1\n  pop\n    /* \"#utility.yul\":1155:1188   */\n  tag_31\n    /* \"#utility.yul\":1182:1187   */\n  dup2\n    /* \"#utility.yul\":1155:1188   */\n  tag_14\n  jump\t// in\ntag_31:\n    /* \"#utility.yul\":1051:1194   */\n  swap3\n  swap2\n  pop\n  pop\n  jump\t// out\n    /* \"#utility.yul\":1200:1707   */\ntag_3:\n    /* \"#utility.yul\":1279:1285   */\n  0x00\n    /* \"#utility.yul\":1287:1293   */\n  dup1\n    /* \"#utility.yul\":1336:1338   */\n  0x40\n    /* \"#utility.yul\":1324:1333   */\n  dup4\n    /* \"#utility.yul\":1315:1322   */\n  dup6\n    /* \"#utility.yul\":1311:1334   */\n  sub\n    /* \"#utility.yul\":1307:1339   */\n  slt\n    /* \"#utility.yul\":1304:1423   */\n  iszero\n  tag_33\n  jumpi\n    /* \"#utility.yul\":1342:1421   */\n  tag_34\n  tag_8\n  jump\t// in\ntag_34:\n    /* \"#utility.yul\":1304:1423   */\ntag_33:\n    /* \"#utility.yul\":1462:1463   */\n  0x00\n    /* \"#utility.yul\":1487:1551   */\n  tag_35\n    /* \"#utility.yul\":1543:1550   */\n  dup6\n    /* \"#utility.yul\":1534:1540   */\n  dup3\n    /* \"#utility.yul\":1523:1532   */\n  dup7\n    /* \"#utility.yul\":1519:1541   */\n  add\n    /* \"#utility.yul\":1487:1551   */\n  tag_12\n  jump\t// in\ntag_35:\n    /* \"#utility.yul\":1477:1551   */\n  swap3\n  pop\n    /* \"#utility.yul\":1433:1561   */\n  pop\n    /* \"#utility.yul\":1600:1602   */\n  0x20\n    /* \"#utility.yul\":1626:1690   */\n  tag_36\n    /* \"#utility.yul\":1682:1689   */\n  dup6\n    /* \"#utility.yul\":1673:1679   */\n  dup3\n    /* \"#utility.yul\":1662:1671   */\n  dup7\n    /* \"#utility.yul\":1658:1680   */\n  add\n    /* \"#utility.yul\":1626:1690   */\n  tag_15\n  jump\t// in\ntag_36:\n    /* \"#utility.yul\":1616:1690   */\n  swap2\n  pop\n    /* \"#utility.yul\":1571:1700   */\n  pop\n    /* \"#utility.yul\":1200:1707   */\n  swap3\n  pop\n  swap3\n  swap1\n  pop\n  jump\t// out\n    /* \"contracts/ERC721TokenContractName.sol\":400:6775  contract ERC721TokenContractName is Context, IERC721Errors, IERC721TCNReceiver {... */\ntag_6:\n  dataSize(sub_0)\n  dup1\n  dataOffset(sub_0)\n  0x00\n  codecopy\n  0x00\n  return\nstop\n\nsub_0: assembly {\n        /* \"contracts/ERC721TokenContractName.sol\":400:6775  contract ERC721TokenContractName is Context, IERC721Errors, IERC721TCNReceiver {... */\n      mstore(0x40, 0x80)\n      callvalue\n      dup1\n      iszero\n      tag_1\n      jumpi\n      0x00\n      dup1\n      revert\n    tag_1:\n      pop\n      jumpi(tag_2, lt(calldatasize, 0x04))\n      shr(0xe0, calldataload(0x00))\n      dup1\n      0x95d89b41\n      gt\n      tag_16\n      jumpi\n      dup1\n      0xb1cff380\n      gt\n      tag_17\n      jumpi\n      dup1\n      0xb1cff380\n      eq\n      tag_12\n      jumpi\n      dup1\n      0xdd7d8440\n      eq\n      tag_13\n      jumpi\n      dup1\n      0xe560ca43\n      eq\n      tag_14\n      jumpi\n      dup1\n      0xe985e9c5\n      eq\n      tag_15\n      jumpi\n      jump(tag_2)\n    tag_17:\n      dup1\n      0x95d89b41\n      eq\n      tag_9\n      jumpi\n      dup1\n      0xa22cb465\n      eq\n      tag_10\n      jumpi\n      dup1\n      0xb145ae31\n      eq\n      tag_11\n      jumpi\n      jump(tag_2)\n    tag_16:\n      dup1\n      0x06fdde03\n      eq\n      tag_3\n      jumpi\n      dup1\n      0x07394401\n      eq\n      tag_4\n      jumpi\n      dup1\n      0x4ec3dcfe\n      eq\n      tag_5\n      jumpi\n      dup1\n      0x70a08231\n      eq\n      tag_6\n      jumpi\n      dup1\n      0x82a7cf1e\n      eq\n      tag_7\n      jumpi\n      dup1\n      0x93b871f2\n      eq\n      tag_8\n      jumpi\n    tag_2:\n      0x00\n      dup1\n      revert\n        /* \"contracts/ERC721TokenContractName.sol\":1454:1531  function name() public view returns (bytes20) {... */\n    tag_3:\n      tag_18\n      tag_19\n      jump\t// in\n    tag_18:\n      mload(0x40)\n      tag_20\n      swap2\n      swap1\n      tag_21\n      jump\t// in\n    tag_20:\n      mload(0x40)\n      dup1\n      swap2\n      sub\n      swap1\n      return\n        /* \"contracts/ERC721TokenContractName.sol\":4362:4495  function safeTransferFrom(address from, address to, uint16 tokenId) public {... */\n    tag_4:\n      tag_22\n      0x04\n      dup1\n      calldatasize\n      sub\n      dup2\n      add\n      swap1\n      tag_23\n      swap2\n      swap1\n      tag_24\n      jump\t// in\n    tag_23:\n      tag_25\n      jump\t// in\n    tag_22:\n      stop\n        /* \"contracts/ERC721TokenContractName.sol\":3357:4354  function transferFrom(address from, address to, uint16 tokenId) public virtual {... */\n    tag_5:\n      tag_26\n      0x04\n      dup1\n      calldatasize\n      sub\n      dup2\n      add\n      swap1\n      tag_27\n      swap2\n      swap1\n      tag_24\n      jump\t// in\n    tag_27:\n      tag_28\n      jump\t// in\n    tag_26:\n      stop\n        /* \"contracts/ERC721TokenContractName.sol\":1632:1821  function balanceOf(address owner) public view returns (uint16) {... */\n    tag_6:\n      tag_29\n      0x04\n      dup1\n      calldatasize\n      sub\n      dup2\n      add\n      swap1\n      tag_30\n      swap2\n      swap1\n      tag_31\n      jump\t// in\n    tag_30:\n      tag_32\n      jump\t// in\n    tag_29:\n      mload(0x40)\n      tag_33\n      swap2\n      swap1\n      tag_34\n      jump\t// in\n    tag_33:\n      mload(0x40)\n      dup1\n      swap2\n      sub\n      swap1\n      return\n        /* \"contracts/ERC721TokenContractName.sol\":1831:1942  function ownerOf(uint16 tokenId) public view returns (address) {... */\n    tag_7:\n      tag_35\n      0x04\n      dup1\n      calldatasize\n      sub\n      dup2\n      add\n      swap1\n      tag_36\n      swap2\n      swap1\n      tag_37\n      jump\t// in\n    tag_36:\n      tag_38\n      jump\t// in\n    tag_35:\n      mload(0x40)\n      tag_39\n      swap2\n      swap1\n      tag_40\n      jump\t// in\n    tag_39:\n      mload(0x40)\n      dup1\n      swap2\n      sub\n      swap1\n      return\n        /* \"contracts/ERC721TokenContractName.sol\":2598:2758  function getApproved(uint16 tokenId) public view virtual returns (address) {... */\n    tag_8:\n      tag_41\n      0x04\n      dup1\n      calldatasize\n      sub\n      dup2\n      add\n      swap1\n      tag_42\n      swap2\n      swap1\n      tag_37\n      jump\t// in\n    tag_42:\n      tag_43\n      jump\t// in\n    tag_41:\n      mload(0x40)\n      tag_44\n      swap2\n      swap1\n      tag_40\n      jump\t// in\n    tag_44:\n      mload(0x40)\n      dup1\n      swap2\n      sub\n      swap1\n      return\n        /* \"contracts/ERC721TokenContractName.sol\":1541:1622  function symbol() public view returns (bytes10) {... */\n    tag_9:\n      tag_45\n      tag_46\n      jump\t// in\n    tag_45:\n      mload(0x40)\n      tag_47\n      swap2\n      swap1\n      tag_48\n      jump\t// in\n    tag_47:\n      mload(0x40)\n      dup1\n      swap2\n      sub\n      swap1\n      return\n        /* \"contracts/ERC721TokenContractName.sol\":2766:3192  function setApprovalForAll(address operator, bool approved) public {... */\n    tag_10:\n      tag_49\n      0x04\n      dup1\n      calldatasize\n      sub\n      dup2\n      add\n      swap1\n      tag_50\n      swap2\n      swap1\n      tag_51\n      jump\t// in\n    tag_50:\n      tag_52\n      jump\t// in\n    tag_49:\n      stop\n        /* \"contracts/ERC721TokenContractName.sol\":4503:4713  function safeTransferFrom(address from, address to, uint16 tokenId, bytes memory data) public virtual {... */\n    tag_11:\n      tag_53\n      0x04\n      dup1\n      calldatasize\n      sub\n      dup2\n      add\n      swap1\n      tag_54\n      swap2\n      swap1\n      tag_55\n      jump\t// in\n    tag_54:\n      tag_56\n      jump\t// in\n    tag_53:\n      stop\n        /* \"contracts/ERC721TokenContractName.sol\":6597:6762  function onERC721Received(... */\n    tag_12:\n      tag_57\n      0x04\n      dup1\n      calldatasize\n      sub\n      dup2\n      add\n      swap1\n      tag_58\n      swap2\n      swap1\n      tag_59\n      jump\t// in\n    tag_58:\n      tag_60\n      jump\t// in\n    tag_57:\n      mload(0x40)\n      tag_61\n      swap2\n      swap1\n      tag_62\n      jump\t// in\n    tag_61:\n      mload(0x40)\n      dup1\n      swap2\n      sub\n      swap1\n      return\n        /* \"contracts/ERC721TokenContractName.sol\":1952:2192  function tokenURI(uint16 tokenId) public view returns (string memory) {... */\n    tag_13:\n      tag_63\n      0x04\n      dup1\n      calldatasize\n      sub\n      dup2\n      add\n      swap1\n      tag_64\n      swap2\n      swap1\n      tag_37\n      jump\t// in\n    tag_64:\n      tag_65\n      jump\t// in\n    tag_63:\n      mload(0x40)\n      tag_66\n      swap2\n      swap1\n      tag_67\n      jump\t// in\n    tag_66:\n      mload(0x40)\n      dup1\n      swap2\n      sub\n      swap1\n      return\n        /* \"contracts/ERC721TokenContractName.sol\":2202:2590  function approve(address to, uint16 tokenId) public {... */\n    tag_14:\n      tag_68\n      0x04\n      dup1\n      calldatasize\n      sub\n      dup2\n      add\n      swap1\n      tag_69\n      swap2\n      swap1\n      tag_70\n      jump\t// in\n    tag_69:\n      tag_71\n      jump\t// in\n    tag_68:\n      stop\n        /* \"contracts/ERC721TokenContractName.sol\":3202:3349  function isApprovedForAll(address owner, address operator) public view returns (bool) {... */\n    tag_15:\n      tag_72\n      0x04\n      dup1\n      calldatasize\n      sub\n      dup2\n      add\n      swap1\n      tag_73\n      swap2\n      swap1\n      tag_74\n      jump\t// in\n    tag_73:\n      tag_75\n      jump\t// in\n    tag_72:\n      mload(0x40)\n      tag_76\n      swap2\n      swap1\n      tag_77\n      jump\t// in\n    tag_76:\n      mload(0x40)\n      dup1\n      swap2\n      sub\n      swap1\n      return\n        /* \"contracts/ERC721TokenContractName.sol\":1454:1531  function name() public view returns (bytes20) {... */\n    tag_19:\n        /* \"contracts/ERC721TokenContractName.sol\":1491:1498  bytes20 */\n      0x00\n        /* \"contracts/ERC721TokenContractName.sol\":1518:1523  _name */\n      dup1\n      0x00\n      swap1\n      sload\n      swap1\n      0x0100\n      exp\n      swap1\n      div\n      0x60\n      shl\n        /* \"contracts/ERC721TokenContractName.sol\":1511:1523  return _name */\n      swap1\n      pop\n        /* \"contracts/ERC721TokenContractName.sol\":1454:1531  function name() public view returns (bytes20) {... */\n      swap1\n      jump\t// out\n        /* \"contracts/ERC721TokenContractName.sol\":4362:4495  function safeTransferFrom(address from, address to, uint16 tokenId) public {... */\n    tag_25:\n        /* \"contracts/ERC721TokenContractName.sol\":4448:4487  safeTransferFrom(from, to, tokenId, \"\") */\n      tag_80\n        /* \"contracts/ERC721TokenContractName.sol\":4465:4469  from */\n      dup4\n        /* \"contracts/ERC721TokenContractName.sol\":4471:4473  to */\n      dup4\n        /* \"contracts/ERC721TokenContractName.sol\":4475:4482  tokenId */\n      dup4\n        /* \"contracts/ERC721TokenContractName.sol\":4448:4487  safeTransferFrom(from, to, tokenId, \"\") */\n      mload(0x40)\n      dup1\n      0x20\n      add\n      0x40\n      mstore\n      dup1\n      0x00\n      dup2\n      mstore\n      pop\n        /* \"contracts/ERC721TokenContractName.sol\":4448:4464  safeTransferFrom */\n      tag_56\n        /* \"contracts/ERC721TokenContractName.sol\":4448:4487  safeTransferFrom(from, to, tokenId, \"\") */\n      jump\t// in\n    tag_80:\n        /* \"contracts/ERC721TokenContractName.sol\":4362:4495  function safeTransferFrom(address from, address to, uint16 tokenId) public {... */\n      pop\n      pop\n      pop\n      jump\t// out\n        /* \"contracts/ERC721TokenContractName.sol\":3357:4354  function transferFrom(address from, address to, uint16 tokenId) public virtual {... */\n    tag_28:\n        /* \"contracts/ERC721TokenContractName.sol\":3466:3467  0 */\n      0x00\n        /* \"contracts/ERC721TokenContractName.sol\":3452:3468  to == address(0) */\n      0xffffffffffffffffffffffffffffffffffffffff\n      and\n        /* \"contracts/ERC721TokenContractName.sol\":3452:3454  to */\n      dup3\n        /* \"contracts/ERC721TokenContractName.sol\":3452:3468  to == address(0) */\n      0xffffffffffffffffffffffffffffffffffffffff\n      and\n      sub\n        /* \"contracts/ERC721TokenContractName.sol\":3448:3537  if (to == address(0)) {... */\n      tag_82\n      jumpi\n        /* \"contracts/ERC721TokenContractName.sol\":3522:3523  0 */\n      0x00\n        /* \"contracts/ERC721TokenContractName.sol\":3492:3525  ERC721InvalidReceiver(address(0)) */\n      mload(0x40)\n      0x64a0ae9200000000000000000000000000000000000000000000000000000000\n      dup2\n      mstore\n      0x04\n      add\n      tag_83\n      swap2\n      swap1\n      tag_40\n      jump\t// in\n    tag_83:\n      mload(0x40)\n      dup1\n      swap2\n      sub\n      swap1\n      revert\n        /* \"contracts/ERC721TokenContractName.sol\":3448:3537  if (to == address(0)) {... */\n    tag_82:\n        /* \"contracts/ERC721TokenContractName.sol\":3549:3570  address previousOwner */\n      0x00\n        /* \"contracts/ERC721TokenContractName.sol\":3573:3595  _requireOwned(tokenId) */\n      tag_84\n        /* \"contracts/ERC721TokenContractName.sol\":3587:3594  tokenId */\n      dup3\n        /* \"contracts/ERC721TokenContractName.sol\":3573:3586  _requireOwned */\n      tag_85\n        /* \"contracts/ERC721TokenContractName.sol\":3573:3595  _requireOwned(tokenId) */\n      jump\t// in\n    tag_84:\n        /* \"contracts/ERC721TokenContractName.sol\":3549:3595  address previousOwner = _requireOwned(tokenId) */\n      swap1\n      pop\n        /* \"contracts/ERC721TokenContractName.sol\":3617:3620  ban */\n      0x04b3\n        /* \"contracts/ERC721TokenContractName.sol\":3621:3628  tokenId */\n      dup3\n        /* \"contracts/ERC721TokenContractName.sol\":3617:3629  ban[tokenId] */\n      0xffff\n      and\n      0x04b1\n      dup2\n      lt\n      tag_86\n      jumpi\n      tag_87\n      tag_88\n      jump\t// in\n    tag_87:\n    tag_86:\n      0x20\n      swap2\n      dup3\n      dup3\n      div\n      add\n      swap2\n      swap1\n      mod\n      swap1\n      sload\n      swap1\n      0x0100\n      exp\n      swap1\n      div\n      0xff\n      and\n        /* \"contracts/ERC721TokenContractName.sol\":3616:3629  !ban[tokenId] */\n      iszero\n        /* \"contracts/ERC721TokenContractName.sol\":3608:3680  require(!ban[tokenId], \"The transfer of this token is currently banned\") */\n      tag_90\n      jumpi\n      mload(0x40)\n      0x08c379a000000000000000000000000000000000000000000000000000000000\n      dup2\n      mstore\n      0x04\n      add\n      tag_91\n      swap1\n      tag_92\n      jump\t// in\n    tag_91:\n      mload(0x40)\n      dup1\n      swap2\n      sub\n      swap1\n      revert\n    tag_90:\n        /* \"contracts/ERC721TokenContractName.sol\":3715:3728  previousOwner */\n      dup1\n        /* \"contracts/ERC721TokenContractName.sol\":3699:3728  _msgSender() == previousOwner */\n      0xffffffffffffffffffffffffffffffffffffffff\n      and\n        /* \"contracts/ERC721TokenContractName.sol\":3699:3711  _msgSender() */\n      tag_93\n        /* \"contracts/ERC721TokenContractName.sol\":3699:3709  _msgSender */\n      tag_94\n        /* \"contracts/ERC721TokenContractName.sol\":3699:3711  _msgSender() */\n      jump\t// in\n    tag_93:\n        /* \"contracts/ERC721TokenContractName.sol\":3699:3728  _msgSender() == previousOwner */\n      0xffffffffffffffffffffffffffffffffffffffff\n      and\n      eq\n        /* \"contracts/ERC721TokenContractName.sol\":3699:3777  _msgSender() == previousOwner || isApprovedForAll(previousOwner, _msgSender()) */\n      dup1\n      tag_95\n      jumpi\n      pop\n        /* \"contracts/ERC721TokenContractName.sol\":3732:3777  isApprovedForAll(previousOwner, _msgSender()) */\n      tag_96\n        /* \"contracts/ERC721TokenContractName.sol\":3749:3762  previousOwner */\n      dup2\n        /* \"contracts/ERC721TokenContractName.sol\":3764:3776  _msgSender() */\n      tag_97\n        /* \"contracts/ERC721TokenContractName.sol\":3764:3774  _msgSender */\n      tag_94\n        /* \"contracts/ERC721TokenContractName.sol\":3764:3776  _msgSender() */\n      jump\t// in\n    tag_97:\n        /* \"contracts/ERC721TokenContractName.sol\":3732:3748  isApprovedForAll */\n      tag_75\n        /* \"contracts/ERC721TokenContractName.sol\":3732:3777  isApprovedForAll(previousOwner, _msgSender()) */\n      jump\t// in\n    tag_96:\n        /* \"contracts/ERC721TokenContractName.sol\":3699:3777  _msgSender() == previousOwner || isApprovedForAll(previousOwner, _msgSender()) */\n    tag_95:\n        /* \"contracts/ERC721TokenContractName.sol\":3699:3817  _msgSender() == previousOwner || isApprovedForAll(previousOwner, _msgSender()) || getApproved(tokenId) == _msgSender() */\n      dup1\n      tag_98\n      jumpi\n      pop\n        /* \"contracts/ERC721TokenContractName.sol\":3805:3817  _msgSender() */\n      tag_99\n        /* \"contracts/ERC721TokenContractName.sol\":3805:3815  _msgSender */\n      tag_94\n        /* \"contracts/ERC721TokenContractName.sol\":3805:3817  _msgSender() */\n      jump\t// in\n    tag_99:\n        /* \"contracts/ERC721TokenContractName.sol\":3781:3817  getApproved(tokenId) == _msgSender() */\n      0xffffffffffffffffffffffffffffffffffffffff\n      and\n        /* \"contracts/ERC721TokenContractName.sol\":3781:3801  getApproved(tokenId) */\n      tag_100\n        /* \"contracts/ERC721TokenContractName.sol\":3793:3800  tokenId */\n      dup4\n        /* \"contracts/ERC721TokenContractName.sol\":3781:3792  getApproved */\n      tag_43\n        /* \"contracts/ERC721TokenContractName.sol\":3781:3801  getApproved(tokenId) */\n      jump\t// in\n    tag_100:\n        /* \"contracts/ERC721TokenContractName.sol\":3781:3817  getApproved(tokenId) == _msgSender() */\n      0xffffffffffffffffffffffffffffffffffffffff\n      and\n      eq\n        /* \"contracts/ERC721TokenContractName.sol\":3699:3817  _msgSender() == previousOwner || isApprovedForAll(previousOwner, _msgSender()) || getApproved(tokenId) == _msgSender() */\n    tag_98:\n        /* \"contracts/ERC721TokenContractName.sol\":3693:3903  if (!(_msgSender() == previousOwner || isApprovedForAll(previousOwner, _msgSender()) || getApproved(tokenId) == _msgSender())) {... */\n      tag_101\n      jumpi\n        /* \"contracts/ERC721TokenContractName.sol\":3869:3881  _msgSender() */\n      tag_102\n        /* \"contracts/ERC721TokenContractName.sol\":3869:3879  _msgSender */\n      tag_94\n        /* \"contracts/ERC721TokenContractName.sol\":3869:3881  _msgSender() */\n      jump\t// in\n    tag_102:\n        /* \"contracts/ERC721TokenContractName.sol\":3883:3890  tokenId */\n      dup3\n        /* \"contracts/ERC721TokenContractName.sol\":3842:3891  ERC721InsufficientApproval(_msgSender(), tokenId) */\n      mload(0x40)\n      0x177e802f00000000000000000000000000000000000000000000000000000000\n      dup2\n      mstore\n      0x04\n      add\n      tag_103\n      swap3\n      swap2\n      swap1\n      tag_104\n      jump\t// in\n    tag_103:\n      mload(0x40)\n      dup1\n      swap2\n      sub\n      swap1\n      revert\n        /* \"contracts/ERC721TokenContractName.sol\":3693:3903  if (!(_msgSender() == previousOwner || isApprovedForAll(previousOwner, _msgSender()) || getApproved(tokenId) == _msgSender())) {... */\n    tag_101:\n        /* \"contracts/ERC721TokenContractName.sol\":3944:3948  from */\n      dup4\n        /* \"contracts/ERC721TokenContractName.sol\":3927:3948  previousOwner != from */\n      0xffffffffffffffffffffffffffffffffffffffff\n      and\n        /* \"contracts/ERC721TokenContractName.sol\":3927:3940  previousOwner */\n      dup2\n        /* \"contracts/ERC721TokenContractName.sol\":3927:3948  previousOwner != from */\n      0xffffffffffffffffffffffffffffffffffffffff\n      and\n      eq\n        /* \"contracts/ERC721TokenContractName.sol\":3923:4034  if (previousOwner != from) {... */\n      tag_105\n      jumpi\n        /* \"contracts/ERC721TokenContractName.sol\":3993:3997  from */\n      dup4\n        /* \"contracts/ERC721TokenContractName.sol\":3999:4006  tokenId */\n      dup3\n        /* \"contracts/ERC721TokenContractName.sol\":4008:4021  previousOwner */\n      dup3\n        /* \"contracts/ERC721TokenContractName.sol\":3972:4022  ERC721IncorrectOwner(from, tokenId, previousOwner) */\n      mload(0x40)\n      0x64283d7b00000000000000000000000000000000000000000000000000000000\n      dup2\n      mstore\n      0x04\n      add\n      tag_106\n      swap4\n      swap3\n      swap2\n      swap1\n      tag_107\n      jump\t// in\n    tag_106:\n      mload(0x40)\n      dup1\n      swap2\n      sub\n      swap1\n      revert\n        /* \"contracts/ERC721TokenContractName.sol\":3923:4034  if (previousOwner != from) {... */\n    tag_105:\n        /* \"contracts/ERC721TokenContractName.sol\":4046:4089  _aprove(address(0), tokenId, previousOwner) */\n      tag_108\n        /* \"contracts/ERC721TokenContractName.sol\":4062:4063  0 */\n      0x00\n        /* \"contracts/ERC721TokenContractName.sol\":4066:4073  tokenId */\n      dup4\n        /* \"contracts/ERC721TokenContractName.sol\":4075:4088  previousOwner */\n      dup4\n        /* \"contracts/ERC721TokenContractName.sol\":4046:4053  _aprove */\n      tag_109\n        /* \"contracts/ERC721TokenContractName.sol\":4046:4089  _aprove(address(0), tokenId, previousOwner) */\n      jump\t// in\n    tag_108:\n        /* \"contracts/ERC721TokenContractName.sol\":4311:4346  _update(to, tokenId, previousOwner) */\n      tag_110\n        /* \"contracts/ERC721TokenContractName.sol\":4319:4321  to */\n      dup4\n        /* \"contracts/ERC721TokenContractName.sol\":4323:4330  tokenId */\n      dup4\n        /* \"contracts/ERC721TokenContractName.sol\":4332:4345  previousOwner */\n      dup4\n        /* \"contracts/ERC721TokenContractName.sol\":4311:4318  _update */\n      tag_111\n        /* \"contracts/ERC721TokenContractName.sol\":4311:4346  _update(to, tokenId, previousOwner) */\n      jump\t// in\n    tag_110:\n      pop\n        /* \"contracts/ERC721TokenContractName.sol\":3436:4354  {... */\n      pop\n        /* \"contracts/ERC721TokenContractName.sol\":3357:4354  function transferFrom(address from, address to, uint16 tokenId) public virtual {... */\n      pop\n      pop\n      pop\n      jump\t// out\n        /* \"contracts/ERC721TokenContractName.sol\":1632:1821  function balanceOf(address owner) public view returns (uint16) {... */\n    tag_32:\n        /* \"contracts/ERC721TokenContractName.sol\":1687:1693  uint16 */\n      0x00\n        /* \"contracts/ERC721TokenContractName.sol\":1731:1732  0 */\n      dup1\n        /* \"contracts/ERC721TokenContractName.sol\":1714:1733  owner != address(0) */\n      0xffffffffffffffffffffffffffffffffffffffff\n      and\n        /* \"contracts/ERC721TokenContractName.sol\":1714:1719  owner */\n      dup3\n        /* \"contracts/ERC721TokenContractName.sol\":1714:1733  owner != address(0) */\n      0xffffffffffffffffffffffffffffffffffffffff\n      and\n      sub\n        /* \"contracts/ERC721TokenContractName.sol\":1706:1769  require(owner != address(0),\"The input address cannot be zero\") */\n      tag_113\n      jumpi\n      mload(0x40)\n      0x08c379a000000000000000000000000000000000000000000000000000000000\n      dup2\n      mstore\n      0x04\n      add\n      tag_114\n      swap1\n      tag_115\n      jump\t// in\n    tag_114:\n      mload(0x40)\n      dup1\n      swap2\n      sub\n      swap1\n      revert\n    tag_113:\n        /* \"contracts/ERC721TokenContractName.sol\":1787:1803  _balanceAndTokId */\n      0x04d9\n        /* \"contracts/ERC721TokenContractName.sol\":1787:1810  _balanceAndTokId[owner] */\n      0x00\n        /* \"contracts/ERC721TokenContractName.sol\":1804:1809  owner */\n      dup4\n        /* \"contracts/ERC721TokenContractName.sol\":1787:1810  _balanceAndTokId[owner] */\n      0xffffffffffffffffffffffffffffffffffffffff\n      and\n      0xffffffffffffffffffffffffffffffffffffffff\n      and\n      dup2\n      mstore\n      0x20\n      add\n      swap1\n      dup2\n      mstore\n      0x20\n      add\n      0x00\n      keccak256\n        /* \"contracts/ERC721TokenContractName.sol\":1811:1812  0 */\n      0x00\n        /* \"contracts/ERC721TokenContractName.sol\":1787:1813  _balanceAndTokId[owner][0] */\n      0x04b1\n      dup2\n      lt\n      tag_116\n      jumpi\n      tag_117\n      tag_88\n      jump\t// in\n    tag_117:\n    tag_116:\n      0x10\n      swap2\n      dup3\n      dup3\n      div\n      add\n      swap2\n      swap1\n      mod\n      0x02\n      mul\n      swap1\n      sload\n      swap1\n      0x0100\n      exp\n      swap1\n      div\n      0xffff\n      and\n        /* \"contracts/ERC721TokenContractName.sol\":1780:1813  return _balanceAndTokId[owner][0] */\n      swap1\n      pop\n        /* \"contracts/ERC721TokenContractName.sol\":1632:1821  function balanceOf(address owner) public view returns (uint16) {... */\n      swap2\n      swap1\n      pop\n      jump\t// out\n        /* \"contracts/ERC721TokenContractName.sol\":1831:1942  function ownerOf(uint16 tokenId) public view returns (address) {... */\n    tag_38:\n        /* \"contracts/ERC721TokenContractName.sol\":1885:1892  address */\n      0x00\n        /* \"contracts/ERC721TokenContractName.sol\":1912:1934  _requireOwned(tokenId) */\n      tag_120\n        /* \"contracts/ERC721TokenContractName.sol\":1926:1933  tokenId */\n      dup3\n        /* \"contracts/ERC721TokenContractName.sol\":1912:1925  _requireOwned */\n      tag_85\n        /* \"contracts/ERC721TokenContractName.sol\":1912:1934  _requireOwned(tokenId) */\n      jump\t// in\n    tag_120:\n        /* \"contracts/ERC721TokenContractName.sol\":1905:1934  return _requireOwned(tokenId) */\n      swap1\n      pop\n        /* \"contracts/ERC721TokenContractName.sol\":1831:1942  function ownerOf(uint16 tokenId) public view returns (address) {... */\n      swap2\n      swap1\n      pop\n      jump\t// out\n        /* \"contracts/ERC721TokenContractName.sol\":2598:2758  function getApproved(uint16 tokenId) public view virtual returns (address) {... */\n    tag_43:\n        /* \"contracts/ERC721TokenContractName.sol\":2664:2671  address */\n      0x00\n        /* \"contracts/ERC721TokenContractName.sol\":2684:2706  _requireOwned(tokenId) */\n      tag_122\n        /* \"contracts/ERC721TokenContractName.sol\":2698:2705  tokenId */\n      dup3\n        /* \"contracts/ERC721TokenContractName.sol\":2684:2697  _requireOwned */\n      tag_85\n        /* \"contracts/ERC721TokenContractName.sol\":2684:2706  _requireOwned(tokenId) */\n      jump\t// in\n    tag_122:\n      pop\n        /* \"contracts/ERC721TokenContractName.sol\":2726:2741  _tokenApprovals */\n      0x04da\n        /* \"contracts/ERC721TokenContractName.sol\":2726:2750  _tokenApprovals[tokenId] */\n      0x00\n        /* \"contracts/ERC721TokenContractName.sol\":2742:2749  tokenId */\n      dup4\n        /* \"contracts/ERC721TokenContractName.sol\":2726:2750  _tokenApprovals[tokenId] */\n      0xffff\n      and\n      0xffff\n      and\n      dup2\n      mstore\n      0x20\n      add\n      swap1\n      dup2\n      mstore\n      0x20\n      add\n      0x00\n      keccak256\n      0x00\n      swap1\n      sload\n      swap1\n      0x0100\n      exp\n      swap1\n      div\n      0xffffffffffffffffffffffffffffffffffffffff\n      and\n        /* \"contracts/ERC721TokenContractName.sol\":2719:2750  return _tokenApprovals[tokenId] */\n      swap1\n      pop\n        /* \"contracts/ERC721TokenContractName.sol\":2598:2758  function getApproved(uint16 tokenId) public view virtual returns (address) {... */\n      swap2\n      swap1\n      pop\n      jump\t// out\n        /* \"contracts/ERC721TokenContractName.sol\":1541:1622  function symbol() public view returns (bytes10) {... */\n    tag_46:\n        /* \"contracts/ERC721TokenContractName.sol\":1580:1587  bytes10 */\n      0x00\n        /* \"contracts/ERC721TokenContractName.sol\":1607:1614  _symbol */\n      dup1\n      0x14\n      swap1\n      sload\n      swap1\n      0x0100\n      exp\n      swap1\n      div\n      0xb0\n      shl\n        /* \"contracts/ERC721TokenContractName.sol\":1600:1614  return _symbol */\n      swap1\n      pop\n        /* \"contracts/ERC721TokenContractName.sol\":1541:1622  function symbol() public view returns (bytes10) {... */\n      swap1\n      jump\t// out\n        /* \"contracts/ERC721TokenContractName.sol\":2766:3192  function setApprovalForAll(address operator, bool approved) public {... */\n    tag_52:\n        /* \"contracts/ERC721TokenContractName.sol\":2868:2876  operator */\n      dup2\n        /* \"contracts/ERC721TokenContractName.sol\":2852:2876  _msgSender() != operator */\n      0xffffffffffffffffffffffffffffffffffffffff\n      and\n        /* \"contracts/ERC721TokenContractName.sol\":2852:2864  _msgSender() */\n      tag_125\n        /* \"contracts/ERC721TokenContractName.sol\":2852:2862  _msgSender */\n      tag_94\n        /* \"contracts/ERC721TokenContractName.sol\":2852:2864  _msgSender() */\n      jump\t// in\n    tag_125:\n        /* \"contracts/ERC721TokenContractName.sol\":2852:2876  _msgSender() != operator */\n      0xffffffffffffffffffffffffffffffffffffffff\n      and\n      sub\n        /* \"contracts/ERC721TokenContractName.sol\":2844:2940  require(_msgSender() != operator, \"The address of the owner and the operator must be different\") */\n      tag_126\n      jumpi\n      mload(0x40)\n      0x08c379a000000000000000000000000000000000000000000000000000000000\n      dup2\n      mstore\n      0x04\n      add\n      tag_127\n      swap1\n      tag_128\n      jump\t// in\n    tag_127:\n      mload(0x40)\n      dup1\n      swap2\n      sub\n      swap1\n      revert\n    tag_126:\n        /* \"contracts/ERC721TokenContractName.sol\":2977:2978  0 */\n      0x00\n        /* \"contracts/ERC721TokenContractName.sol\":2957:2979  operator == address(0) */\n      0xffffffffffffffffffffffffffffffffffffffff\n      and\n        /* \"contracts/ERC721TokenContractName.sol\":2957:2965  operator */\n      dup3\n        /* \"contracts/ERC721TokenContractName.sol\":2957:2979  operator == address(0) */\n      0xffffffffffffffffffffffffffffffffffffffff\n      and\n      sub\n        /* \"contracts/ERC721TokenContractName.sol\":2953:3046  if (operator == address(0)) {... */\n      tag_129\n      jumpi\n        /* \"contracts/ERC721TokenContractName.sol\":3025:3033  operator */\n      dup2\n        /* \"contracts/ERC721TokenContractName.sol\":3003:3034  ERC721InvalidOperator(operator) */\n      mload(0x40)\n      0x5b08ba1800000000000000000000000000000000000000000000000000000000\n      dup2\n      mstore\n      0x04\n      add\n      tag_130\n      swap2\n      swap1\n      tag_40\n      jump\t// in\n    tag_130:\n      mload(0x40)\n      dup1\n      swap2\n      sub\n      swap1\n      revert\n        /* \"contracts/ERC721TokenContractName.sol\":2953:3046  if (operator == address(0)) {... */\n    tag_129:\n        /* \"contracts/ERC721TokenContractName.sol\":3111:3119  approved */\n      dup1\n        /* \"contracts/ERC721TokenContractName.sol\":3066:3084  _operatorApprovals */\n      0x04db\n        /* \"contracts/ERC721TokenContractName.sol\":3066:3098  _operatorApprovals[_msgSender()] */\n      0x00\n        /* \"contracts/ERC721TokenContractName.sol\":3085:3097  _msgSender() */\n      tag_131\n        /* \"contracts/ERC721TokenContractName.sol\":3085:3095  _msgSender */\n      tag_94\n        /* \"contracts/ERC721TokenContractName.sol\":3085:3097  _msgSender() */\n      jump\t// in\n    tag_131:\n        /* \"contracts/ERC721TokenContractName.sol\":3066:3098  _operatorApprovals[_msgSender()] */\n      0xffffffffffffffffffffffffffffffffffffffff\n      and\n      0xffffffffffffffffffffffffffffffffffffffff\n      and\n      dup2\n      mstore\n      0x20\n      add\n      swap1\n      dup2\n      mstore\n      0x20\n      add\n      0x00\n      keccak256\n        /* \"contracts/ERC721TokenContractName.sol\":3066:3108  _operatorApprovals[_msgSender()][operator] */\n      0x00\n        /* \"contracts/ERC721TokenContractName.sol\":3099:3107  operator */\n      dup5\n        /* \"contracts/ERC721TokenContractName.sol\":3066:3108  _operatorApprovals[_msgSender()][operator] */\n      0xffffffffffffffffffffffffffffffffffffffff\n      and\n      0xffffffffffffffffffffffffffffffffffffffff\n      and\n      dup2\n      mstore\n      0x20\n      add\n      swap1\n      dup2\n      mstore\n      0x20\n      add\n      0x00\n      keccak256\n      0x00\n        /* \"contracts/ERC721TokenContractName.sol\":3066:3119  _operatorApprovals[_msgSender()][operator] = approved */\n      0x0100\n      exp\n      dup2\n      sload\n      dup2\n      0xff\n      mul\n      not\n      and\n      swap1\n      dup4\n      iszero\n      iszero\n      mul\n      or\n      swap1\n      sstore\n      pop\n        /* \"contracts/ERC721TokenContractName.sol\":3165:3173  operator */\n      dup2\n        /* \"contracts/ERC721TokenContractName.sol\":3136:3184  ApprovalForAll(_msgSender(), operator, approved) */\n      0xffffffffffffffffffffffffffffffffffffffff\n      and\n        /* \"contracts/ERC721TokenContractName.sol\":3151:3163  _msgSender() */\n      tag_132\n        /* \"contracts/ERC721TokenContractName.sol\":3151:3161  _msgSender */\n      tag_94\n        /* \"contracts/ERC721TokenContractName.sol\":3151:3163  _msgSender() */\n      jump\t// in\n    tag_132:\n        /* \"contracts/ERC721TokenContractName.sol\":3136:3184  ApprovalForAll(_msgSender(), operator, approved) */\n      0xffffffffffffffffffffffffffffffffffffffff\n      and\n      0x17307eab39ab6107e8899845ad3d59bd9653f200f220920489ca2b5937696c31\n        /* \"contracts/ERC721TokenContractName.sol\":3175:3183  approved */\n      dup4\n        /* \"contracts/ERC721TokenContractName.sol\":3136:3184  ApprovalForAll(_msgSender(), operator, approved) */\n      mload(0x40)\n      tag_133\n      swap2\n      swap1\n      tag_77\n      jump\t// in\n    tag_133:\n      mload(0x40)\n      dup1\n      swap2\n      sub\n      swap1\n      log3\n        /* \"contracts/ERC721TokenContractName.sol\":2766:3192  function setApprovalForAll(address operator, bool approved) public {... */\n      pop\n      pop\n      jump\t// out\n        /* \"contracts/ERC721TokenContractName.sol\":4503:4713  function safeTransferFrom(address from, address to, uint16 tokenId, bytes memory data) public virtual {... */\n    tag_56:\n        /* \"contracts/ERC721TokenContractName.sol\":4616:4647  transferFrom(from, to, tokenId) */\n      tag_135\n        /* \"contracts/ERC721TokenContractName.sol\":4629:4633  from */\n      dup5\n        /* \"contracts/ERC721TokenContractName.sol\":4635:4637  to */\n      dup5\n        /* \"contracts/ERC721TokenContractName.sol\":4639:4646  tokenId */\n      dup5\n        /* \"contracts/ERC721TokenContractName.sol\":4616:4628  transferFrom */\n      tag_28\n        /* \"contracts/ERC721TokenContractName.sol\":4616:4647  transferFrom(from, to, tokenId) */\n      jump\t// in\n    tag_135:\n        /* \"contracts/ERC721TokenContractName.sol\":4658:4705  _checkOnERC721Received(from, to, tokenId, data) */\n      tag_136\n        /* \"contracts/ERC721TokenContractName.sol\":4681:4685  from */\n      dup5\n        /* \"contracts/ERC721TokenContractName.sol\":4687:4689  to */\n      dup5\n        /* \"contracts/ERC721TokenContractName.sol\":4691:4698  tokenId */\n      dup5\n        /* \"contracts/ERC721TokenContractName.sol\":4700:4704  data */\n      dup5\n        /* \"contracts/ERC721TokenContractName.sol\":4658:4680  _checkOnERC721Received */\n      tag_137\n        /* \"contracts/ERC721TokenContractName.sol\":4658:4705  _checkOnERC721Received(from, to, tokenId, data) */\n      jump\t// in\n    tag_136:\n        /* \"contracts/ERC721TokenContractName.sol\":4503:4713  function safeTransferFrom(address from, address to, uint16 tokenId, bytes memory data) public virtual {... */\n      pop\n      pop\n      pop\n      pop\n      jump\t// out\n        /* \"contracts/ERC721TokenContractName.sol\":6597:6762  function onERC721Received(... */\n    tag_60:\n        /* \"contracts/ERC721TokenContractName.sol\":6753:6759  bytes4 */\n      0x00\n        /* \"contracts/ERC721TokenContractName.sol\":6597:6762  function onERC721Received(... */\n      swap6\n      swap5\n      pop\n      pop\n      pop\n      pop\n      pop\n      jump\t// out\n        /* \"contracts/ERC721TokenContractName.sol\":1952:2192  function tokenURI(uint16 tokenId) public view returns (string memory) {... */\n    tag_65:\n        /* \"contracts/ERC721TokenContractName.sol\":2007:2020  string memory */\n      0x60\n        /* \"contracts/ERC721TokenContractName.sol\":2033:2055  _requireOwned(tokenId) */\n      tag_140\n        /* \"contracts/ERC721TokenContractName.sol\":2047:2054  tokenId */\n      dup3\n        /* \"contracts/ERC721TokenContractName.sol\":2033:2046  _requireOwned */\n      tag_85\n        /* \"contracts/ERC721TokenContractName.sol\":2033:2055  _requireOwned(tokenId) */\n      jump\t// in\n    tag_140:\n      pop\n        /* \"contracts/ERC721TokenContractName.sol\":2066:2084  string memory base */\n      0x00\n        /* \"contracts/ERC721TokenContractName.sol\":2087:2097  _baseURI() */\n      tag_141\n        /* \"contracts/ERC721TokenContractName.sol\":2087:2095  _baseURI */\n      tag_142\n        /* \"contracts/ERC721TokenContractName.sol\":2087:2097  _baseURI() */\n      jump\t// in\n    tag_141:\n        /* \"contracts/ERC721TokenContractName.sol\":2066:2097  string memory base = _baseURI() */\n      swap1\n      pop\n        /* \"contracts/ERC721TokenContractName.sol\":2136:2137  0 */\n      0x00\n        /* \"contracts/ERC721TokenContractName.sol\":2121:2125  base */\n      dup2\n        /* \"contracts/ERC721TokenContractName.sol\":2115:2133  bytes(base).length */\n      mload\n        /* \"contracts/ERC721TokenContractName.sol\":2115:2137  bytes(base).length > 0 */\n      gt\n        /* \"contracts/ERC721TokenContractName.sol\":2115:2184  bytes(base).length > 0 ? string.concat(base, tokenId.toString()) : \"\" */\n      tag_143\n      jumpi\n      mload(0x40)\n      dup1\n      0x20\n      add\n      0x40\n      mstore\n      dup1\n      0x00\n      dup2\n      mstore\n      pop\n      jump(tag_144)\n    tag_143:\n        /* \"contracts/ERC721TokenContractName.sol\":2154:2158  base */\n      dup1\n        /* \"contracts/ERC721TokenContractName.sol\":2160:2178  tokenId.toString() */\n      tag_145\n        /* \"contracts/ERC721TokenContractName.sol\":2160:2167  tokenId */\n      dup5\n        /* \"contracts/ERC721TokenContractName.sol\":2160:2176  tokenId.toString */\n      0xffff\n      and\n      tag_146\n        /* \"contracts/ERC721TokenContractName.sol\":2160:2178  tokenId.toString() */\n      jump\t// in\n    tag_145:\n        /* \"contracts/ERC721TokenContractName.sol\":2140:2179  string.concat(base, tokenId.toString()) */\n      add(0x20, mload(0x40))\n      tag_147\n      swap3\n      swap2\n      swap1\n      tag_148\n      jump\t// in\n    tag_147:\n      mload(0x40)\n      0x20\n      dup2\n      dup4\n      sub\n      sub\n      dup2\n      mstore\n      swap1\n      0x40\n      mstore\n        /* \"contracts/ERC721TokenContractName.sol\":2115:2184  bytes(base).length > 0 ? string.concat(base, tokenId.toString()) : \"\" */\n    tag_144:\n        /* \"contracts/ERC721TokenContractName.sol\":2108:2184  return bytes(base).length > 0 ? string.concat(base, tokenId.toString()) : \"\" */\n      swap2\n      pop\n      pop\n        /* \"contracts/ERC721TokenContractName.sol\":1952:2192  function tokenURI(uint16 tokenId) public view returns (string memory) {... */\n      swap2\n      swap1\n      pop\n      jump\t// out\n        /* \"contracts/ERC721TokenContractName.sol\":2202:2590  function approve(address to, uint16 tokenId) public {... */\n    tag_71:\n        /* \"contracts/ERC721TokenContractName.sol\":2265:2278  address owner */\n      0x00\n        /* \"contracts/ERC721TokenContractName.sol\":2281:2303  _requireOwned(tokenId) */\n      tag_150\n        /* \"contracts/ERC721TokenContractName.sol\":2295:2302  tokenId */\n      dup3\n        /* \"contracts/ERC721TokenContractName.sol\":2281:2294  _requireOwned */\n      tag_85\n        /* \"contracts/ERC721TokenContractName.sol\":2281:2303  _requireOwned(tokenId) */\n      jump\t// in\n    tag_150:\n        /* \"contracts/ERC721TokenContractName.sol\":2265:2303  address owner = _requireOwned(tokenId) */\n      swap1\n      pop\n        /* \"contracts/ERC721TokenContractName.sol\":2333:2335  to */\n      dup3\n        /* \"contracts/ERC721TokenContractName.sol\":2324:2335  owner != to */\n      0xffffffffffffffffffffffffffffffffffffffff\n      and\n        /* \"contracts/ERC721TokenContractName.sol\":2324:2329  owner */\n      dup2\n        /* \"contracts/ERC721TokenContractName.sol\":2324:2335  owner != to */\n      0xffffffffffffffffffffffffffffffffffffffff\n      and\n      sub\n        /* \"contracts/ERC721TokenContractName.sol\":2316:2399  require(owner != to, \"The address of the owner and the operator must be different\") */\n      tag_151\n      jumpi\n      mload(0x40)\n      0x08c379a000000000000000000000000000000000000000000000000000000000\n      dup2\n      mstore\n      0x04\n      add\n      tag_152\n      swap1\n      tag_128\n      jump\t// in\n    tag_152:\n      mload(0x40)\n      dup1\n      swap2\n      sub\n      swap1\n      revert\n    tag_151:\n        /* \"contracts/ERC721TokenContractName.sol\":2424:2436  _msgSender() */\n      tag_153\n        /* \"contracts/ERC721TokenContractName.sol\":2424:2434  _msgSender */\n      tag_94\n        /* \"contracts/ERC721TokenContractName.sol\":2424:2436  _msgSender() */\n      jump\t// in\n    tag_153:\n        /* \"contracts/ERC721TokenContractName.sol\":2415:2436  owner != _msgSender() */\n      0xffffffffffffffffffffffffffffffffffffffff\n      and\n        /* \"contracts/ERC721TokenContractName.sol\":2415:2420  owner */\n      dup2\n        /* \"contracts/ERC721TokenContractName.sol\":2415:2436  owner != _msgSender() */\n      0xffffffffffffffffffffffffffffffffffffffff\n      and\n      eq\n      iszero\n        /* \"contracts/ERC721TokenContractName.sol\":2415:2478  owner != _msgSender() && !isApprovedForAll(owner, _msgSender()) */\n      dup1\n      iszero\n      tag_154\n      jumpi\n      pop\n        /* \"contracts/ERC721TokenContractName.sol\":2441:2478  isApprovedForAll(owner, _msgSender()) */\n      tag_155\n        /* \"contracts/ERC721TokenContractName.sol\":2458:2463  owner */\n      dup2\n        /* \"contracts/ERC721TokenContractName.sol\":2465:2477  _msgSender() */\n      tag_156\n        /* \"contracts/ERC721TokenContractName.sol\":2465:2475  _msgSender */\n      tag_94\n        /* \"contracts/ERC721TokenContractName.sol\":2465:2477  _msgSender() */\n      jump\t// in\n    tag_156:\n        /* \"contracts/ERC721TokenContractName.sol\":2441:2457  isApprovedForAll */\n      tag_75\n        /* \"contracts/ERC721TokenContractName.sol\":2441:2478  isApprovedForAll(owner, _msgSender()) */\n      jump\t// in\n    tag_155:\n        /* \"contracts/ERC721TokenContractName.sol\":2440:2478  !isApprovedForAll(owner, _msgSender()) */\n      iszero\n        /* \"contracts/ERC721TokenContractName.sol\":2415:2478  owner != _msgSender() && !isApprovedForAll(owner, _msgSender()) */\n    tag_154:\n        /* \"contracts/ERC721TokenContractName.sol\":2411:2543  if (owner != _msgSender() && !isApprovedForAll(owner, _msgSender())){... */\n      iszero\n      tag_157\n      jumpi\n        /* \"contracts/ERC721TokenContractName.sol\":2519:2531  _msgSender() */\n      tag_158\n        /* \"contracts/ERC721TokenContractName.sol\":2519:2529  _msgSender */\n      tag_94\n        /* \"contracts/ERC721TokenContractName.sol\":2519:2531  _msgSender() */\n      jump\t// in\n    tag_158:\n        /* \"contracts/ERC721TokenContractName.sol\":2497:2532  ERC721InvalidApprover(_msgSender()) */\n      mload(0x40)\n      0xa9fbf51f00000000000000000000000000000000000000000000000000000000\n      dup2\n      mstore\n      0x04\n      add\n      tag_159\n      swap2\n      swap1\n      tag_40\n      jump\t// in\n    tag_159:\n      mload(0x40)\n      dup1\n      swap2\n      sub\n      swap1\n      revert\n        /* \"contracts/ERC721TokenContractName.sol\":2411:2543  if (owner != _msgSender() && !isApprovedForAll(owner, _msgSender())){... */\n    tag_157:\n        /* \"contracts/ERC721TokenContractName.sol\":2555:2582  _aprove(to, tokenId, owner) */\n      tag_160\n        /* \"contracts/ERC721TokenContractName.sol\":2563:2565  to */\n      dup4\n        /* \"contracts/ERC721TokenContractName.sol\":2567:2574  tokenId */\n      dup4\n        /* \"contracts/ERC721TokenContractName.sol\":2576:2581  owner */\n      dup4\n        /* \"contracts/ERC721TokenContractName.sol\":2555:2562  _aprove */\n      tag_109\n        /* \"contracts/ERC721TokenContractName.sol\":2555:2582  _aprove(to, tokenId, owner) */\n      jump\t// in\n    tag_160:\n        /* \"contracts/ERC721TokenContractName.sol\":2254:2590  {... */\n      pop\n        /* \"contracts/ERC721TokenContractName.sol\":2202:2590  function approve(address to, uint16 tokenId) public {... */\n      pop\n      pop\n      jump\t// out\n        /* \"contracts/ERC721TokenContractName.sol\":3202:3349  function isApprovedForAll(address owner, address operator) public view returns (bool) {... */\n    tag_75:\n        /* \"contracts/ERC721TokenContractName.sol\":3282:3286  bool */\n      0x00\n        /* \"contracts/ERC721TokenContractName.sol\":3306:3324  _operatorApprovals */\n      0x04db\n        /* \"contracts/ERC721TokenContractName.sol\":3306:3331  _operatorApprovals[owner] */\n      0x00\n        /* \"contracts/ERC721TokenContractName.sol\":3325:3330  owner */\n      dup5\n        /* \"contracts/ERC721TokenContractName.sol\":3306:3331  _operatorApprovals[owner] */\n      0xffffffffffffffffffffffffffffffffffffffff\n      and\n      0xffffffffffffffffffffffffffffffffffffffff\n      and\n      dup2\n      mstore\n      0x20\n      add\n      swap1\n      dup2\n      mstore\n      0x20\n      add\n      0x00\n      keccak256\n        /* \"contracts/ERC721TokenContractName.sol\":3306:3341  _operatorApprovals[owner][operator] */\n      0x00\n        /* \"contracts/ERC721TokenContractName.sol\":3332:3340  operator */\n      dup4\n        /* \"contracts/ERC721TokenContractName.sol\":3306:3341  _operatorApprovals[owner][operator] */\n      0xffffffffffffffffffffffffffffffffffffffff\n      and\n      0xffffffffffffffffffffffffffffffffffffffff\n      and\n      dup2\n      mstore\n      0x20\n      add\n      swap1\n      dup2\n      mstore\n      0x20\n      add\n      0x00\n      keccak256\n      0x00\n      swap1\n      sload\n      swap1\n      0x0100\n      exp\n      swap1\n      div\n      0xff\n      and\n        /* \"contracts/ERC721TokenContractName.sol\":3299:3341  return _operatorApprovals[owner][operator] */\n      swap1\n      pop\n        /* \"contracts/ERC721TokenContractName.sol\":3202:3349  function isApprovedForAll(address owner, address operator) public view returns (bool) {... */\n      swap3\n      swap2\n      pop\n      pop\n      jump\t// out\n        /* \"contracts/ERC721TokenContractName.sol\":5418:5682  function _requireOwned(uint16 tokenId) private view returns (address) {... */\n    tag_85:\n        /* \"contracts/ERC721TokenContractName.sol\":5479:5486  address */\n      0x00\n        /* \"contracts/ERC721TokenContractName.sol\":5511:5518  tokenId */\n      dup2\n        /* \"contracts/ERC721TokenContractName.sol\":5507:5518  0 < tokenId */\n      0xffff\n      and\n        /* \"contracts/ERC721TokenContractName.sol\":5507:5508  0 */\n      0x00\n        /* \"contracts/ERC721TokenContractName.sol\":5507:5518  0 < tokenId */\n      lt\n        /* \"contracts/ERC721TokenContractName.sol\":5507:5555  0 < tokenId && tokenId <= mintInfo.currentTokens */\n      dup1\n      iszero\n      tag_163\n      jumpi\n      pop\n        /* \"contracts/ERC721TokenContractName.sol\":5533:5541  mintInfo */\n      0x01\n        /* \"contracts/ERC721TokenContractName.sol\":5533:5555  mintInfo.currentTokens */\n      0x00\n      add\n      0x02\n      swap1\n      sload\n      swap1\n      0x0100\n      exp\n      swap1\n      div\n      0xffff\n      and\n        /* \"contracts/ERC721TokenContractName.sol\":5522:5555  tokenId <= mintInfo.currentTokens */\n      0xffff\n      and\n        /* \"contracts/ERC721TokenContractName.sol\":5522:5529  tokenId */\n      dup3\n        /* \"contracts/ERC721TokenContractName.sol\":5522:5555  tokenId <= mintInfo.currentTokens */\n      0xffff\n      and\n      gt\n      iszero\n        /* \"contracts/ERC721TokenContractName.sol\":5507:5555  0 < tokenId && tokenId <= mintInfo.currentTokens */\n    tag_163:\n        /* \"contracts/ERC721TokenContractName.sol\":5499:5639  require(0 < tokenId && tokenId <= mintInfo.currentTokens, \"The ID entered is invalid. It must be in this interval 0 < id <= current tokens\") */\n      tag_164\n      jumpi\n      mload(0x40)\n      0x08c379a000000000000000000000000000000000000000000000000000000000\n      dup2\n      mstore\n      0x04\n      add\n      tag_165\n      swap1\n      tag_166\n      jump\t// in\n    tag_165:\n      mload(0x40)\n      dup1\n      swap2\n      sub\n      swap1\n      revert\n    tag_164:\n        /* \"contracts/ERC721TokenContractName.sol\":5658:5665  _owners */\n      0x02\n        /* \"contracts/ERC721TokenContractName.sol\":5666:5673  tokenId */\n      dup3\n        /* \"contracts/ERC721TokenContractName.sol\":5658:5674  _owners[tokenId] */\n      0xffff\n      and\n      0x04b1\n      dup2\n      lt\n      tag_167\n      jumpi\n      tag_168\n      tag_88\n      jump\t// in\n    tag_168:\n    tag_167:\n      add\n      0x00\n      swap1\n      sload\n      swap1\n      0x0100\n      exp\n      swap1\n      div\n      0xffffffffffffffffffffffffffffffffffffffff\n      and\n        /* \"contracts/ERC721TokenContractName.sol\":5651:5674  return _owners[tokenId] */\n      swap1\n      pop\n        /* \"contracts/ERC721TokenContractName.sol\":5418:5682  function _requireOwned(uint16 tokenId) private view returns (address) {... */\n      swap2\n      swap1\n      pop\n      jump\t// out\n        /* \"@openzeppelin/contracts/utils/Context.sol\":656:752  function _msgSender() internal view virtual returns (address) {... */\n    tag_94:\n        /* \"@openzeppelin/contracts/utils/Context.sol\":709:716  address */\n      0x00\n        /* \"@openzeppelin/contracts/utils/Context.sol\":735:745  msg.sender */\n      caller\n        /* \"@openzeppelin/contracts/utils/Context.sol\":728:745  return msg.sender */\n      swap1\n      pop\n        /* \"@openzeppelin/contracts/utils/Context.sol\":656:752  function _msgSender() internal view virtual returns (address) {... */\n      swap1\n      jump\t// out\n        /* \"contracts/ERC721TokenContractName.sol\":5240:5400  function _aprove(address to, uint16 tokenId, address owner) private {... */\n    tag_109:\n        /* \"contracts/ERC721TokenContractName.sol\":5346:5348  to */\n      dup3\n        /* \"contracts/ERC721TokenContractName.sol\":5319:5334  _tokenApprovals */\n      0x04da\n        /* \"contracts/ERC721TokenContractName.sol\":5319:5343  _tokenApprovals[tokenId] */\n      0x00\n        /* \"contracts/ERC721TokenContractName.sol\":5335:5342  tokenId */\n      dup5\n        /* \"contracts/ERC721TokenContractName.sol\":5319:5343  _tokenApprovals[tokenId] */\n      0xffff\n      and\n      0xffff\n      and\n      dup2\n      mstore\n      0x20\n      add\n      swap1\n      dup2\n      mstore\n      0x20\n      add\n      0x00\n      keccak256\n      0x00\n        /* \"contracts/ERC721TokenContractName.sol\":5319:5348  _tokenApprovals[tokenId] = to */\n      0x0100\n      exp\n      dup2\n      sload\n      dup2\n      0xffffffffffffffffffffffffffffffffffffffff\n      mul\n      not\n      and\n      swap1\n      dup4\n      0xffffffffffffffffffffffffffffffffffffffff\n      and\n      mul\n      or\n      swap1\n      sstore\n      pop\n        /* \"contracts/ERC721TokenContractName.sol\":5384:5391  tokenId */\n      dup2\n        /* \"contracts/ERC721TokenContractName.sol\":5364:5392  Approval(owner, to, tokenId) */\n      0xffff\n      and\n        /* \"contracts/ERC721TokenContractName.sol\":5380:5382  to */\n      dup4\n        /* \"contracts/ERC721TokenContractName.sol\":5364:5392  Approval(owner, to, tokenId) */\n      0xffffffffffffffffffffffffffffffffffffffff\n      and\n        /* \"contracts/ERC721TokenContractName.sol\":5373:5378  owner */\n      dup3\n        /* \"contracts/ERC721TokenContractName.sol\":5364:5392  Approval(owner, to, tokenId) */\n      0xffffffffffffffffffffffffffffffffffffffff\n      and\n      0x0a9d294fd4bd42bb30e96cba2b478d149a783fba3c729b1e5c42bec89d95b85a\n      mload(0x40)\n      mload(0x40)\n      dup1\n      swap2\n      sub\n      swap1\n      log4\n        /* \"contracts/ERC721TokenContractName.sol\":5240:5400  function _aprove(address to, uint16 tokenId, address owner) private {... */\n      pop\n      pop\n      pop\n      jump\t// out\n        /* \"contracts/ERC721TokenContractName.sol\":4723:5230  function _update(address to, uint16 tokenId, address from) private returns (address) {... */\n    tag_111:\n        /* \"contracts/ERC721TokenContractName.sol\":4799:4806  address */\n      0x00\n        /* \"contracts/ERC721TokenContractName.sol\":4838:4839  0 */\n      dup1\n        /* \"contracts/ERC721TokenContractName.sol\":4822:4840  from != address(0) */\n      0xffffffffffffffffffffffffffffffffffffffff\n      and\n        /* \"contracts/ERC721TokenContractName.sol\":4822:4826  from */\n      dup3\n        /* \"contracts/ERC721TokenContractName.sol\":4822:4840  from != address(0) */\n      0xffffffffffffffffffffffffffffffffffffffff\n      and\n      eq\n        /* \"contracts/ERC721TokenContractName.sol\":4818:5221  if (from != address(0)) {... */\n      tag_173\n      jumpi\n        /* \"contracts/ERC721TokenContractName.sol\":4853:4874  uint16 preBalanceFrom */\n      0x00\n        /* \"contracts/ERC721TokenContractName.sol\":4877:4893  _balanceAndTokId */\n      0x04d9\n        /* \"contracts/ERC721TokenContractName.sol\":4877:4899  _balanceAndTokId[from] */\n      0x00\n        /* \"contracts/ERC721TokenContractName.sol\":4894:4898  from */\n      dup5\n        /* \"contracts/ERC721TokenContractName.sol\":4877:4899  _balanceAndTokId[from] */\n      0xffffffffffffffffffffffffffffffffffffffff\n      and\n      0xffffffffffffffffffffffffffffffffffffffff\n      and\n      dup2\n      mstore\n      0x20\n      add\n      swap1\n      dup2\n      mstore\n      0x20\n      add\n      0x00\n      keccak256\n        /* \"contracts/ERC721TokenContractName.sol\":4900:4901  0 */\n      0x00\n        /* \"contracts/ERC721TokenContractName.sol\":4877:4902  _balanceAndTokId[from][0] */\n      0x04b1\n      dup2\n      lt\n      tag_174\n      jumpi\n      tag_175\n      tag_88\n      jump\t// in\n    tag_175:\n    tag_174:\n      0x10\n      swap2\n      dup3\n      dup3\n      div\n      add\n      swap2\n      swap1\n      mod\n      0x02\n      mul\n      swap1\n      sload\n      swap1\n      0x0100\n      exp\n      swap1\n      div\n      0xffff\n      and\n        /* \"contracts/ERC721TokenContractName.sol\":4853:4902  uint16 preBalanceFrom = _balanceAndTokId[from][0] */\n      swap1\n      pop\n        /* \"contracts/ERC721TokenContractName.sol\":4918:4926  uint16 i */\n      0x00\n        /* \"contracts/ERC721TokenContractName.sol\":4913:5211  for (uint16 i = 0; i <= preBalanceFrom; ++i) {... */\n    tag_177:\n        /* \"contracts/ERC721TokenContractName.sol\":4937:4951  preBalanceFrom */\n      dup2\n        /* \"contracts/ERC721TokenContractName.sol\":4932:4951  i <= preBalanceFrom */\n      0xffff\n      and\n        /* \"contracts/ERC721TokenContractName.sol\":4932:4933  i */\n      dup2\n        /* \"contracts/ERC721TokenContractName.sol\":4932:4951  i <= preBalanceFrom */\n      0xffff\n      and\n      gt\n        /* \"contracts/ERC721TokenContractName.sol\":4913:5211  for (uint16 i = 0; i <= preBalanceFrom; ++i) {... */\n      tag_178\n      jumpi\n        /* \"contracts/ERC721TokenContractName.sol\":5006:5013  tokenId */\n      dup5\n        /* \"contracts/ERC721TokenContractName.sol\":4977:5013  _balanceAndTokId[from][i] == tokenId */\n      0xffff\n      and\n        /* \"contracts/ERC721TokenContractName.sol\":4977:4993  _balanceAndTokId */\n      0x04d9\n        /* \"contracts/ERC721TokenContractName.sol\":4977:4999  _balanceAndTokId[from] */\n      0x00\n        /* \"contracts/ERC721TokenContractName.sol\":4994:4998  from */\n      dup7\n        /* \"contracts/ERC721TokenContractName.sol\":4977:4999  _balanceAndTokId[from] */\n      0xffffffffffffffffffffffffffffffffffffffff\n      and\n      0xffffffffffffffffffffffffffffffffffffffff\n      and\n      dup2\n      mstore\n      0x20\n      add\n      swap1\n      dup2\n      mstore\n      0x20\n      add\n      0x00\n      keccak256\n        /* \"contracts/ERC721TokenContractName.sol\":5000:5001  i */\n      dup3\n        /* \"contracts/ERC721TokenContractName.sol\":4977:5002  _balanceAndTokId[from][i] */\n      0xffff\n      and\n      0x04b1\n      dup2\n      lt\n      tag_180\n      jumpi\n      tag_181\n      tag_88\n      jump\t// in\n    tag_181:\n    tag_180:\n      0x10\n      swap2\n      dup3\n      dup3\n      div\n      add\n      swap2\n      swap1\n      mod\n      0x02\n      mul\n      swap1\n      sload\n      swap1\n      0x0100\n      exp\n      swap1\n      div\n      0xffff\n      and\n        /* \"contracts/ERC721TokenContractName.sol\":4977:5013  _balanceAndTokId[from][i] == tokenId */\n      0xffff\n      and\n      sub\n        /* \"contracts/ERC721TokenContractName.sol\":4973:5200  if (_balanceAndTokId[from][i] == tokenId) {... */\n      tag_183\n      jumpi\n        /* \"contracts/ERC721TokenContractName.sol\":5062:5078  _balanceAndTokId */\n      0x04d9\n        /* \"contracts/ERC721TokenContractName.sol\":5062:5084  _balanceAndTokId[from] */\n      0x00\n        /* \"contracts/ERC721TokenContractName.sol\":5079:5083  from */\n      dup6\n        /* \"contracts/ERC721TokenContractName.sol\":5062:5084  _balanceAndTokId[from] */\n      0xffffffffffffffffffffffffffffffffffffffff\n      and\n      0xffffffffffffffffffffffffffffffffffffffff\n      and\n      dup2\n      mstore\n      0x20\n      add\n      swap1\n      dup2\n      mstore\n      0x20\n      add\n      0x00\n      keccak256\n        /* \"contracts/ERC721TokenContractName.sol\":5085:5099  preBalanceFrom */\n      dup3\n        /* \"contracts/ERC721TokenContractName.sol\":5062:5100  _balanceAndTokId[from][preBalanceFrom] */\n      0xffff\n      and\n      0x04b1\n      dup2\n      lt\n      tag_184\n      jumpi\n      tag_185\n      tag_88\n      jump\t// in\n    tag_185:\n    tag_184:\n      0x10\n      swap2\n      dup3\n      dup3\n      div\n      add\n      swap2\n      swap1\n      mod\n      0x02\n      mul\n      swap1\n      sload\n      swap1\n      0x0100\n      exp\n      swap1\n      div\n      0xffff\n      and\n        /* \"contracts/ERC721TokenContractName.sol\":5034:5050  _balanceAndTokId */\n      0x04d9\n        /* \"contracts/ERC721TokenContractName.sol\":5034:5056  _balanceAndTokId[from] */\n      0x00\n        /* \"contracts/ERC721TokenContractName.sol\":5051:5055  from */\n      dup7\n        /* \"contracts/ERC721TokenContractName.sol\":5034:5056  _balanceAndTokId[from] */\n      0xffffffffffffffffffffffffffffffffffffffff\n      and\n      0xffffffffffffffffffffffffffffffffffffffff\n      and\n      dup2\n      mstore\n      0x20\n      add\n      swap1\n      dup2\n      mstore\n      0x20\n      add\n      0x00\n      keccak256\n        /* \"contracts/ERC721TokenContractName.sol\":5057:5058  i */\n      dup3\n        /* \"contracts/ERC721TokenContractName.sol\":5034:5059  _balanceAndTokId[from][i] */\n      0xffff\n      and\n      0x04b1\n      dup2\n      lt\n      tag_187\n      jumpi\n      tag_188\n      tag_88\n      jump\t// in\n    tag_188:\n    tag_187:\n      0x10\n      swap2\n      dup3\n      dup3\n      div\n      add\n      swap2\n      swap1\n      mod\n      0x02\n      mul\n        /* \"contracts/ERC721TokenContractName.sol\":5034:5100  _balanceAndTokId[from][i] = _balanceAndTokId[from][preBalanceFrom] */\n      0x0100\n      exp\n      dup2\n      sload\n      dup2\n      0xffff\n      mul\n      not\n      and\n      swap1\n      dup4\n      0xffff\n      and\n      mul\n      or\n      swap1\n      sstore\n      pop\n        /* \"contracts/ERC721TokenContractName.sol\":5160:5161  0 */\n      0x00\n        /* \"contracts/ERC721TokenContractName.sol\":5119:5135  _balanceAndTokId */\n      0x04d9\n        /* \"contracts/ERC721TokenContractName.sol\":5119:5141  _balanceAndTokId[from] */\n      0x00\n        /* \"contracts/ERC721TokenContractName.sol\":5136:5140  from */\n      dup7\n        /* \"contracts/ERC721TokenContractName.sol\":5119:5141  _balanceAndTokId[from] */\n      0xffffffffffffffffffffffffffffffffffffffff\n      and\n      0xffffffffffffffffffffffffffffffffffffffff\n      and\n      dup2\n      mstore\n      0x20\n      add\n      swap1\n      dup2\n      mstore\n      0x20\n      add\n      0x00\n      keccak256\n        /* \"contracts/ERC721TokenContractName.sol\":5142:5156  preBalanceFrom */\n      dup4\n        /* \"contracts/ERC721TokenContractName.sol\":5119:5157  _balanceAndTokId[from][preBalanceFrom] */\n      0xffff\n      and\n      0x04b1\n      dup2\n      lt\n      tag_190\n      jumpi\n      tag_191\n      tag_88\n      jump\t// in\n    tag_191:\n    tag_190:\n      0x10\n      swap2\n      dup3\n      dup3\n      div\n      add\n      swap2\n      swap1\n      mod\n      0x02\n      mul\n        /* \"contracts/ERC721TokenContractName.sol\":5119:5161  _balanceAndTokId[from][preBalanceFrom] = 0 */\n      0x0100\n      exp\n      dup2\n      sload\n      dup2\n      0xffff\n      mul\n      not\n      and\n      swap1\n      dup4\n      0xffff\n      and\n      mul\n      or\n      swap1\n      sstore\n      pop\n        /* \"contracts/ERC721TokenContractName.sol\":5180:5185  break */\n      jump(tag_178)\n        /* \"contracts/ERC721TokenContractName.sol\":4973:5200  if (_balanceAndTokId[from][i] == tokenId) {... */\n    tag_183:\n        /* \"contracts/ERC721TokenContractName.sol\":4953:4956  ++i */\n      dup1\n      tag_193\n      swap1\n      tag_194\n      jump\t// in\n    tag_193:\n      swap1\n      pop\n        /* \"contracts/ERC721TokenContractName.sol\":4913:5211  for (uint16 i = 0; i <= preBalanceFrom; ++i) {... */\n      jump(tag_177)\n    tag_178:\n      pop\n        /* \"contracts/ERC721TokenContractName.sol\":4842:5221  {... */\n      pop\n        /* \"contracts/ERC721TokenContractName.sol\":4818:5221  if (from != address(0)) {... */\n    tag_173:\n        /* \"contracts/ERC721TokenContractName.sol\":4723:5230  function _update(address to, uint16 tokenId, address from) private returns (address) {... */\n      swap4\n      swap3\n      pop\n      pop\n      pop\n      jump\t// out\n        /* \"contracts/ERC721TokenContractName.sol\":5785:6589  function _checkOnERC721Received(address from, address to, uint16 tokenId, bytes memory data) private {... */\n    tag_137:\n        /* \"contracts/ERC721TokenContractName.sol\":5918:5919  0 */\n      0x00\n        /* \"contracts/ERC721TokenContractName.sol\":5901:5903  to */\n      dup4\n        /* \"contracts/ERC721TokenContractName.sol\":5901:5915  to.code.length */\n      0xffffffffffffffffffffffffffffffffffffffff\n      and\n      extcodesize\n        /* \"contracts/ERC721TokenContractName.sol\":5901:5919  to.code.length > 0 */\n      gt\n        /* \"contracts/ERC721TokenContractName.sol\":5897:6582  if (to.code.length > 0) {... */\n      iszero\n      tag_196\n      jumpi\n        /* \"contracts/ERC721TokenContractName.sol\":5959:5961  to */\n      dup3\n        /* \"contracts/ERC721TokenContractName.sol\":5940:5979  IERC721TCNReceiver(to).onERC721Received */\n      0xffffffffffffffffffffffffffffffffffffffff\n      and\n      0xb1cff380\n        /* \"contracts/ERC721TokenContractName.sol\":5980:5992  _msgSender() */\n      tag_197\n        /* \"contracts/ERC721TokenContractName.sol\":5980:5990  _msgSender */\n      tag_94\n        /* \"contracts/ERC721TokenContractName.sol\":5980:5992  _msgSender() */\n      jump\t// in\n    tag_197:\n        /* \"contracts/ERC721TokenContractName.sol\":5994:5998  from */\n      dup7\n        /* \"contracts/ERC721TokenContractName.sol\":6000:6007  tokenId */\n      dup6\n        /* \"contracts/ERC721TokenContractName.sol\":6009:6013  data */\n      dup6\n        /* \"contracts/ERC721TokenContractName.sol\":5940:6014  IERC721TCNReceiver(to).onERC721Received(_msgSender(), from, tokenId, data) */\n      mload(0x40)\n      dup6\n      0xffffffff\n      and\n      0xe0\n      shl\n      dup2\n      mstore\n      0x04\n      add\n      tag_198\n      swap5\n      swap4\n      swap3\n      swap2\n      swap1\n      tag_199\n      jump\t// in\n    tag_198:\n      0x20\n      mload(0x40)\n      dup1\n      dup4\n      sub\n      dup2\n      0x00\n      dup8\n      gas\n      call\n      swap3\n      pop\n      pop\n      pop\n      dup1\n      iszero\n      tag_200\n      jumpi\n      pop\n      mload(0x40)\n      returndatasize\n      not(0x1f)\n      0x1f\n      dup3\n      add\n      and\n      dup3\n      add\n      dup1\n      0x40\n      mstore\n      pop\n      dup2\n      add\n      swap1\n      tag_201\n      swap2\n      swap1\n      tag_202\n      jump\t// in\n    tag_201:\n      0x01\n    tag_200:\n        /* \"contracts/ERC721TokenContractName.sol\":5936:6571  try IERC721TCNReceiver(to).onERC721Received(_msgSender(), from, tokenId, data) returns (bytes4 retval) {... */\n      tag_203\n      jumpi\n      returndatasize\n      dup1\n      0x00\n      dup2\n      eq\n      tag_208\n      jumpi\n      mload(0x40)\n      swap2\n      pop\n      and(add(returndatasize, 0x3f), not(0x1f))\n      dup3\n      add\n      0x40\n      mstore\n      returndatasize\n      dup3\n      mstore\n      returndatasize\n      0x00\n      0x20\n      dup5\n      add\n      returndatacopy\n      jump(tag_207)\n    tag_208:\n      0x60\n      swap2\n      pop\n    tag_207:\n      pop\n        /* \"contracts/ERC721TokenContractName.sol\":6277:6278  0 */\n      0x00\n        /* \"contracts/ERC721TokenContractName.sol\":6260:6266  reason */\n      dup2\n        /* \"contracts/ERC721TokenContractName.sol\":6260:6273  reason.length */\n      mload\n        /* \"contracts/ERC721TokenContractName.sol\":6260:6278  reason.length == 0 */\n      sub\n        /* \"contracts/ERC721TokenContractName.sol\":6256:6556  if (reason.length == 0) {... */\n      tag_209\n      jumpi\n        /* \"contracts/ERC721TokenContractName.sol\":6332:6334  to */\n      dup4\n        /* \"contracts/ERC721TokenContractName.sol\":6310:6335  ERC721InvalidReceiver(to) */\n      mload(0x40)\n      0x64a0ae9200000000000000000000000000000000000000000000000000000000\n      dup2\n      mstore\n      0x04\n      add\n      tag_210\n      swap2\n      swap1\n      tag_40\n      jump\t// in\n    tag_210:\n      mload(0x40)\n      dup1\n      swap2\n      sub\n      swap1\n      revert\n        /* \"contracts/ERC721TokenContractName.sol\":6256:6556  if (reason.length == 0) {... */\n    tag_209:\n        /* \"contracts/ERC721TokenContractName.sol\":6506:6512  reason */\n      dup1\n        /* \"contracts/ERC721TokenContractName.sol\":6500:6513  mload(reason) */\n      mload\n        /* \"contracts/ERC721TokenContractName.sol\":6491:6497  reason */\n      dup2\n        /* \"contracts/ERC721TokenContractName.sol\":6487:6489  32 */\n      0x20\n        /* \"contracts/ERC721TokenContractName.sol\":6483:6498  add(32, reason) */\n      add\n        /* \"contracts/ERC721TokenContractName.sol\":6476:6514  revert(add(32, reason), mload(reason)) */\n      revert\n        /* \"contracts/ERC721TokenContractName.sol\":5936:6571  try IERC721TCNReceiver(to).onERC721Received(_msgSender(), from, tokenId, data) returns (bytes4 retval) {... */\n    tag_203:\n        /* \"contracts/ERC721TokenContractName.sol\":6072:6116  IERC721TCNReceiver.onERC721Received.selector */\n      shl(0xe0, 0xb1cff380)\n        /* \"contracts/ERC721TokenContractName.sol\":6062:6116  retval != IERC721TCNReceiver.onERC721Received.selector */\n      not(0xffffffffffffffffffffffffffffffffffffffffffffffffffffffff)\n      and\n        /* \"contracts/ERC721TokenContractName.sol\":6062:6068  retval */\n      dup2\n        /* \"contracts/ERC721TokenContractName.sol\":6062:6116  retval != IERC721TCNReceiver.onERC721Received.selector */\n      not(0xffffffffffffffffffffffffffffffffffffffffffffffffffffffff)\n      and\n      eq\n        /* \"contracts/ERC721TokenContractName.sol\":6058:6193  if (retval != IERC721TCNReceiver.onERC721Received.selector) {... */\n      tag_213\n      jumpi\n        /* \"contracts/ERC721TokenContractName.sol\":6170:6172  to */\n      dup4\n        /* \"contracts/ERC721TokenContractName.sol\":6148:6173  ERC721InvalidReceiver(to) */\n      mload(0x40)\n      0x64a0ae9200000000000000000000000000000000000000000000000000000000\n      dup2\n      mstore\n      0x04\n      add\n      tag_214\n      swap2\n      swap1\n      tag_40\n      jump\t// in\n    tag_214:\n      mload(0x40)\n      dup1\n      swap2\n      sub\n      swap1\n      revert\n        /* \"contracts/ERC721TokenContractName.sol\":6058:6193  if (retval != IERC721TCNReceiver.onERC721Received.selector) {... */\n    tag_213:\n        /* \"contracts/ERC721TokenContractName.sol\":6015:6208  returns (bytes4 retval) {... */\n      pop\n        /* \"contracts/ERC721TokenContractName.sol\":5897:6582  if (to.code.length > 0) {... */\n    tag_196:\n        /* \"contracts/ERC721TokenContractName.sol\":5785:6589  function _checkOnERC721Received(address from, address to, uint16 tokenId, bytes memory data) private {... */\n      pop\n      pop\n      pop\n      pop\n      jump\t// out\n        /* \"contracts/ERC721TokenContractName.sol\":5692:5777  function _baseURI() private pure returns (string memory) {... */\n    tag_142:\n        /* \"contracts/ERC721TokenContractName.sol\":5734:5747  string memory */\n      0x60\n        /* \"contracts/ERC721TokenContractName.sol\":5760:5769  return \"\" */\n      mload(0x40)\n      dup1\n      0x20\n      add\n      0x40\n      mstore\n      dup1\n      0x00\n      dup2\n      mstore\n      pop\n      swap1\n      pop\n        /* \"contracts/ERC721TokenContractName.sol\":5692:5777  function _baseURI() private pure returns (string memory) {... */\n      swap1\n      jump\t// out\n        /* \"@openzeppelin/contracts/utils/Strings.sol\":637:1335  function toString(uint256 value) internal pure returns (string memory) {... */\n    tag_146:\n        /* \"@openzeppelin/contracts/utils/Strings.sol\":693:706  string memory */\n      0x60\n        /* \"@openzeppelin/contracts/utils/Strings.sol\":742:756  uint256 length */\n      0x00\n        /* \"@openzeppelin/contracts/utils/Strings.sol\":779:780  1 */\n      0x01\n        /* \"@openzeppelin/contracts/utils/Strings.sol\":759:776  Math.log10(value) */\n      tag_217\n        /* \"@openzeppelin/contracts/utils/Strings.sol\":770:775  value */\n      dup5\n        /* \"@openzeppelin/contracts/utils/Strings.sol\":759:769  Math.log10 */\n      tag_218\n        /* \"@openzeppelin/contracts/utils/Strings.sol\":759:776  Math.log10(value) */\n      jump\t// in\n    tag_217:\n        /* \"@openzeppelin/contracts/utils/Strings.sol\":759:780  Math.log10(value) + 1 */\n      add\n        /* \"@openzeppelin/contracts/utils/Strings.sol\":742:780  uint256 length = Math.log10(value) + 1 */\n      swap1\n      pop\n        /* \"@openzeppelin/contracts/utils/Strings.sol\":794:814  string memory buffer */\n      0x00\n        /* \"@openzeppelin/contracts/utils/Strings.sol\":828:834  length */\n      dup2\n        /* \"@openzeppelin/contracts/utils/Strings.sol\":817:835  new string(length) */\n      0xffffffffffffffff\n      dup2\n      gt\n      iszero\n      tag_219\n      jumpi\n      tag_220\n      tag_221\n      jump\t// in\n    tag_220:\n    tag_219:\n      mload(0x40)\n      swap1\n      dup1\n      dup3\n      mstore\n      dup1\n      0x1f\n      add\n      not(0x1f)\n      and\n      0x20\n      add\n      dup3\n      add\n      0x40\n      mstore\n      dup1\n      iszero\n      tag_222\n      jumpi\n      dup2\n      0x20\n      add\n      0x01\n      dup3\n      mul\n      dup1\n      calldatasize\n      dup4\n      calldatacopy\n      dup1\n      dup3\n      add\n      swap2\n      pop\n      pop\n      swap1\n      pop\n    tag_222:\n      pop\n        /* \"@openzeppelin/contracts/utils/Strings.sol\":794:835  string memory buffer = new string(length) */\n      swap1\n      pop\n        /* \"@openzeppelin/contracts/utils/Strings.sol\":849:860  uint256 ptr */\n      0x00\n        /* \"@openzeppelin/contracts/utils/Strings.sol\":975:981  length */\n      dup3\n        /* \"@openzeppelin/contracts/utils/Strings.sol\":971:973  32 */\n      0x20\n        /* \"@openzeppelin/contracts/utils/Strings.sol\":967:982  add(32, length) */\n      add\n        /* \"@openzeppelin/contracts/utils/Strings.sol\":959:965  buffer */\n      dup3\n        /* \"@openzeppelin/contracts/utils/Strings.sol\":955:983  add(buffer, add(32, length)) */\n      add\n        /* \"@openzeppelin/contracts/utils/Strings.sol\":948:983  ptr := add(buffer, add(32, length)) */\n      swap1\n      pop\n        /* \"@openzeppelin/contracts/utils/Strings.sol\":1010:1292  while (true) {... */\n    tag_223:\n        /* \"@openzeppelin/contracts/utils/Strings.sol\":1017:1021  true */\n      0x01\n        /* \"@openzeppelin/contracts/utils/Strings.sol\":1010:1292  while (true) {... */\n      iszero\n      tag_224\n      jumpi\n        /* \"@openzeppelin/contracts/utils/Strings.sol\":1041:1046  ptr-- */\n      dup1\n      dup1\n      0x01\n      swap1\n      sub\n      swap2\n      pop\n      pop\n        /* \"@openzeppelin/contracts/utils/Strings.sol\":1180:1190  HEX_DIGITS */\n      0x3031323334353637383961626364656600000000000000000000000000000000\n        /* \"@openzeppelin/contracts/utils/Strings.sol\":1175:1177  10 */\n      0x0a\n        /* \"@openzeppelin/contracts/utils/Strings.sol\":1168:1173  value */\n      dup7\n        /* \"@openzeppelin/contracts/utils/Strings.sol\":1164:1178  mod(value, 10) */\n      mod\n        /* \"@openzeppelin/contracts/utils/Strings.sol\":1159:1191  byte(mod(value, 10), HEX_DIGITS) */\n      byte\n        /* \"@openzeppelin/contracts/utils/Strings.sol\":1154:1157  ptr */\n      dup2\n        /* \"@openzeppelin/contracts/utils/Strings.sol\":1146:1192  mstore8(ptr, byte(mod(value, 10), HEX_DIGITS)) */\n      mstore8\n        /* \"@openzeppelin/contracts/utils/Strings.sol\":1236:1238  10 */\n      0x0a\n        /* \"@openzeppelin/contracts/utils/Strings.sol\":1227:1238  value /= 10 */\n      dup6\n      dup2\n      tag_225\n      jumpi\n      tag_226\n      tag_227\n      jump\t// in\n    tag_226:\n    tag_225:\n      div\n      swap5\n      pop\n        /* \"@openzeppelin/contracts/utils/Strings.sol\":1269:1270  0 */\n      0x00\n        /* \"@openzeppelin/contracts/utils/Strings.sol\":1260:1265  value */\n      dup6\n        /* \"@openzeppelin/contracts/utils/Strings.sol\":1260:1270  value == 0 */\n      sub\n        /* \"@openzeppelin/contracts/utils/Strings.sol\":1010:1292  while (true) {... */\n      tag_223\n        /* \"@openzeppelin/contracts/utils/Strings.sol\":1256:1277  if (value == 0) break */\n      jumpi\n        /* \"@openzeppelin/contracts/utils/Strings.sol\":1010:1292  while (true) {... */\n    tag_224:\n        /* \"@openzeppelin/contracts/utils/Strings.sol\":1312:1318  buffer */\n      dup2\n        /* \"@openzeppelin/contracts/utils/Strings.sol\":1305:1318  return buffer */\n      swap4\n      pop\n      pop\n      pop\n      pop\n        /* \"@openzeppelin/contracts/utils/Strings.sol\":637:1335  function toString(uint256 value) internal pure returns (string memory) {... */\n      swap2\n      swap1\n      pop\n      jump\t// out\n        /* \"@openzeppelin/contracts/utils/math/Math.sol\":12214:13130  function log10(uint256 value) internal pure returns (uint256) {... */\n    tag_218:\n        /* \"@openzeppelin/contracts/utils/math/Math.sol\":12267:12274  uint256 */\n      0x00\n        /* \"@openzeppelin/contracts/utils/math/Math.sol\":12286:12300  uint256 result */\n      dup1\n        /* \"@openzeppelin/contracts/utils/math/Math.sol\":12303:12304  0 */\n      0x00\n        /* \"@openzeppelin/contracts/utils/math/Math.sol\":12286:12304  uint256 result = 0 */\n      swap1\n      pop\n        /* \"@openzeppelin/contracts/utils/math/Math.sol\":12351:12359  10 ** 64 */\n      0x184f03e93ff9f4daa797ed6e38ed64bf6a1f010000000000000000\n        /* \"@openzeppelin/contracts/utils/math/Math.sol\":12342:12347  value */\n      dup4\n        /* \"@openzeppelin/contracts/utils/math/Math.sol\":12342:12359  value >= 10 ** 64 */\n      lt\n        /* \"@openzeppelin/contracts/utils/math/Math.sol\":12338:12441  if (value >= 10 ** 64) {... */\n      tag_230\n      jumpi\n        /* \"@openzeppelin/contracts/utils/math/Math.sol\":12388:12396  10 ** 64 */\n      0x184f03e93ff9f4daa797ed6e38ed64bf6a1f010000000000000000\n        /* \"@openzeppelin/contracts/utils/math/Math.sol\":12379:12396  value /= 10 ** 64 */\n      dup4\n      dup2\n      tag_231\n      jumpi\n      tag_232\n      tag_227\n      jump\t// in\n    tag_232:\n    tag_231:\n      div\n      swap3\n      pop\n        /* \"@openzeppelin/contracts/utils/math/Math.sol\":12424:12426  64 */\n      0x40\n        /* \"@openzeppelin/contracts/utils/math/Math.sol\":12414:12426  result += 64 */\n      dup2\n      add\n      swap1\n      pop\n        /* \"@openzeppelin/contracts/utils/math/Math.sol\":12338:12441  if (value >= 10 ** 64) {... */\n    tag_230:\n        /* \"@openzeppelin/contracts/utils/math/Math.sol\":12467:12475  10 ** 32 */\n      0x04ee2d6d415b85acef8100000000\n        /* \"@openzeppelin/contracts/utils/math/Math.sol\":12458:12463  value */\n      dup4\n        /* \"@openzeppelin/contracts/utils/math/Math.sol\":12458:12475  value >= 10 ** 32 */\n      lt\n        /* \"@openzeppelin/contracts/utils/math/Math.sol\":12454:12557  if (value >= 10 ** 32) {... */\n      tag_233\n      jumpi\n        /* \"@openzeppelin/contracts/utils/math/Math.sol\":12504:12512  10 ** 32 */\n      0x04ee2d6d415b85acef8100000000\n        /* \"@openzeppelin/contracts/utils/math/Math.sol\":12495:12512  value /= 10 ** 32 */\n      dup4\n      dup2\n      tag_234\n      jumpi\n      tag_235\n      tag_227\n      jump\t// in\n    tag_235:\n    tag_234:\n      div\n      swap3\n      pop\n        /* \"@openzeppelin/contracts/utils/math/Math.sol\":12540:12542  32 */\n      0x20\n        /* \"@openzeppelin/contracts/utils/math/Math.sol\":12530:12542  result += 32 */\n      dup2\n      add\n      swap1\n      pop\n        /* \"@openzeppelin/contracts/utils/math/Math.sol\":12454:12557  if (value >= 10 ** 32) {... */\n    tag_233:\n        /* \"@openzeppelin/contracts/utils/math/Math.sol\":12583:12591  10 ** 16 */\n      0x2386f26fc10000\n        /* \"@openzeppelin/contracts/utils/math/Math.sol\":12574:12579  value */\n      dup4\n        /* \"@openzeppelin/contracts/utils/math/Math.sol\":12574:12591  value >= 10 ** 16 */\n      lt\n        /* \"@openzeppelin/contracts/utils/math/Math.sol\":12570:12673  if (value >= 10 ** 16) {... */\n      tag_236\n      jumpi\n        /* \"@openzeppelin/contracts/utils/math/Math.sol\":12620:12628  10 ** 16 */\n      0x2386f26fc10000\n        /* \"@openzeppelin/contracts/utils/math/Math.sol\":12611:12628  value /= 10 ** 16 */\n      dup4\n      dup2\n      tag_237\n      jumpi\n      tag_238\n      tag_227\n      jump\t// in\n    tag_238:\n    tag_237:\n      div\n      swap3\n      pop\n        /* \"@openzeppelin/contracts/utils/math/Math.sol\":12656:12658  16 */\n      0x10\n        /* \"@openzeppelin/contracts/utils/math/Math.sol\":12646:12658  result += 16 */\n      dup2\n      add\n      swap1\n      pop\n        /* \"@openzeppelin/contracts/utils/math/Math.sol\":12570:12673  if (value >= 10 ** 16) {... */\n    tag_236:\n        /* \"@openzeppelin/contracts/utils/math/Math.sol\":12699:12706  10 ** 8 */\n      0x05f5e100\n        /* \"@openzeppelin/contracts/utils/math/Math.sol\":12690:12695  value */\n      dup4\n        /* \"@openzeppelin/contracts/utils/math/Math.sol\":12690:12706  value >= 10 ** 8 */\n      lt\n        /* \"@openzeppelin/contracts/utils/math/Math.sol\":12686:12786  if (value >= 10 ** 8) {... */\n      tag_239\n      jumpi\n        /* \"@openzeppelin/contracts/utils/math/Math.sol\":12735:12742  10 ** 8 */\n      0x05f5e100\n        /* \"@openzeppelin/contracts/utils/math/Math.sol\":12726:12742  value /= 10 ** 8 */\n      dup4\n      dup2\n      tag_240\n      jumpi\n      tag_241\n      tag_227\n      jump\t// in\n    tag_241:\n    tag_240:\n      div\n      swap3\n      pop\n        /* \"@openzeppelin/contracts/utils/math/Math.sol\":12770:12771  8 */\n      0x08\n        /* \"@openzeppelin/contracts/utils/math/Math.sol\":12760:12771  result += 8 */\n      dup2\n      add\n      swap1\n      pop\n        /* \"@openzeppelin/contracts/utils/math/Math.sol\":12686:12786  if (value >= 10 ** 8) {... */\n    tag_239:\n        /* \"@openzeppelin/contracts/utils/math/Math.sol\":12812:12819  10 ** 4 */\n      0x2710\n        /* \"@openzeppelin/contracts/utils/math/Math.sol\":12803:12808  value */\n      dup4\n        /* \"@openzeppelin/contracts/utils/math/Math.sol\":12803:12819  value >= 10 ** 4 */\n      lt\n        /* \"@openzeppelin/contracts/utils/math/Math.sol\":12799:12899  if (value >= 10 ** 4) {... */\n      tag_242\n      jumpi\n        /* \"@openzeppelin/contracts/utils/math/Math.sol\":12848:12855  10 ** 4 */\n      0x2710\n        /* \"@openzeppelin/contracts/utils/math/Math.sol\":12839:12855  value /= 10 ** 4 */\n      dup4\n      dup2\n      tag_243\n      jumpi\n      tag_244\n      tag_227\n      jump\t// in\n    tag_244:\n    tag_243:\n      div\n      swap3\n      pop\n        /* \"@openzeppelin/contracts/utils/math/Math.sol\":12883:12884  4 */\n      0x04\n        /* \"@openzeppelin/contracts/utils/math/Math.sol\":12873:12884  result += 4 */\n      dup2\n      add\n      swap1\n      pop\n        /* \"@openzeppelin/contracts/utils/math/Math.sol\":12799:12899  if (value >= 10 ** 4) {... */\n    tag_242:\n        /* \"@openzeppelin/contracts/utils/math/Math.sol\":12925:12932  10 ** 2 */\n      0x64\n        /* \"@openzeppelin/contracts/utils/math/Math.sol\":12916:12921  value */\n      dup4\n        /* \"@openzeppelin/contracts/utils/math/Math.sol\":12916:12932  value >= 10 ** 2 */\n      lt\n        /* \"@openzeppelin/contracts/utils/math/Math.sol\":12912:13012  if (value >= 10 ** 2) {... */\n      tag_245\n      jumpi\n        /* \"@openzeppelin/contracts/utils/math/Math.sol\":12961:12968  10 ** 2 */\n      0x64\n        /* \"@openzeppelin/contracts/utils/math/Math.sol\":12952:12968  value /= 10 ** 2 */\n      dup4\n      dup2\n      tag_246\n      jumpi\n      tag_247\n      tag_227\n      jump\t// in\n    tag_247:\n    tag_246:\n      div\n      swap3\n      pop\n        /* \"@openzeppelin/contracts/utils/math/Math.sol\":12996:12997  2 */\n      0x02\n        /* \"@openzeppelin/contracts/utils/math/Math.sol\":12986:12997  result += 2 */\n      dup2\n      add\n      swap1\n      pop\n        /* \"@openzeppelin/contracts/utils/math/Math.sol\":12912:13012  if (value >= 10 ** 2) {... */\n    tag_245:\n        /* \"@openzeppelin/contracts/utils/math/Math.sol\":13038:13045  10 ** 1 */\n      0x0a\n        /* \"@openzeppelin/contracts/utils/math/Math.sol\":13029:13034  value */\n      dup4\n        /* \"@openzeppelin/contracts/utils/math/Math.sol\":13029:13045  value >= 10 ** 1 */\n      lt\n        /* \"@openzeppelin/contracts/utils/math/Math.sol\":13025:13091  if (value >= 10 ** 1) {... */\n      tag_248\n      jumpi\n        /* \"@openzeppelin/contracts/utils/math/Math.sol\":13075:13076  1 */\n      0x01\n        /* \"@openzeppelin/contracts/utils/math/Math.sol\":13065:13076  result += 1 */\n      dup2\n      add\n      swap1\n      pop\n        /* \"@openzeppelin/contracts/utils/math/Math.sol\":13025:13091  if (value >= 10 ** 1) {... */\n    tag_248:\n        /* \"@openzeppelin/contracts/utils/math/Math.sol\":13117:13123  result */\n      dup1\n        /* \"@openzeppelin/contracts/utils/math/Math.sol\":13110:13123  return result */\n      swap2\n      pop\n      pop\n        /* \"@openzeppelin/contracts/utils/math/Math.sol\":12214:13130  function log10(uint256 value) internal pure returns (uint256) {... */\n      swap2\n      swap1\n      pop\n      jump\t// out\n        /* \"#utility.yul\":7:157   */\n    tag_249:\n        /* \"#utility.yul\":44:51   */\n      0x00\n        /* \"#utility.yul\":84:150   */\n      0xffffffffffffffffffffffffffffffffffffffff000000000000000000000000\n        /* \"#utility.yul\":77:82   */\n      dup3\n        /* \"#utility.yul\":73:151   */\n      and\n        /* \"#utility.yul\":62:151   */\n      swap1\n      pop\n        /* \"#utility.yul\":7:157   */\n      swap2\n      swap1\n      pop\n      jump\t// out\n        /* \"#utility.yul\":163:281   */\n    tag_250:\n        /* \"#utility.yul\":250:274   */\n      tag_310\n        /* \"#utility.yul\":268:273   */\n      dup2\n        /* \"#utility.yul\":250:274   */\n      tag_249\n      jump\t// in\n    tag_310:\n        /* \"#utility.yul\":245:248   */\n      dup3\n        /* \"#utility.yul\":238:275   */\n      mstore\n        /* \"#utility.yul\":163:281   */\n      pop\n      pop\n      jump\t// out\n        /* \"#utility.yul\":287:509   */\n    tag_21:\n        /* \"#utility.yul\":380:384   */\n      0x00\n        /* \"#utility.yul\":418:420   */\n      0x20\n        /* \"#utility.yul\":407:416   */\n      dup3\n        /* \"#utility.yul\":403:421   */\n      add\n        /* \"#utility.yul\":395:421   */\n      swap1\n      pop\n        /* \"#utility.yul\":431:502   */\n      tag_312\n        /* \"#utility.yul\":499:500   */\n      0x00\n        /* \"#utility.yul\":488:497   */\n      dup4\n        /* \"#utility.yul\":484:501   */\n      add\n        /* \"#utility.yul\":475:481   */\n      dup5\n        /* \"#utility.yul\":431:502   */\n      tag_250\n      jump\t// in\n    tag_312:\n        /* \"#utility.yul\":287:509   */\n      swap3\n      swap2\n      pop\n      pop\n      jump\t// out\n        /* \"#utility.yul\":515:590   */\n    tag_251:\n        /* \"#utility.yul\":548:554   */\n      0x00\n        /* \"#utility.yul\":581:583   */\n      0x40\n        /* \"#utility.yul\":575:584   */\n      mload\n        /* \"#utility.yul\":565:584   */\n      swap1\n      pop\n        /* \"#utility.yul\":515:590   */\n      swap1\n      jump\t// out\n        /* \"#utility.yul\":596:713   */\n    tag_252:\n        /* \"#utility.yul\":705:706   */\n      0x00\n        /* \"#utility.yul\":702:703   */\n      dup1\n        /* \"#utility.yul\":695:707   */\n      revert\n        /* \"#utility.yul\":719:836   */\n    tag_253:\n        /* \"#utility.yul\":828:829   */\n      0x00\n        /* \"#utility.yul\":825:826   */\n      dup1\n        /* \"#utility.yul\":818:830   */\n      revert\n        /* \"#utility.yul\":842:968   */\n    tag_254:\n        /* \"#utility.yul\":879:886   */\n      0x00\n        /* \"#utility.yul\":919:961   */\n      0xffffffffffffffffffffffffffffffffffffffff\n        /* \"#utility.yul\":912:917   */\n      dup3\n        /* \"#utility.yul\":908:962   */\n      and\n        /* \"#utility.yul\":897:962   */\n      swap1\n      pop\n        /* \"#utility.yul\":842:968   */\n      swap2\n      swap1\n      pop\n      jump\t// out\n        /* \"#utility.yul\":974:1070   */\n    tag_255:\n        /* \"#utility.yul\":1011:1018   */\n      0x00\n        /* \"#utility.yul\":1040:1064   */\n      tag_318\n        /* \"#utility.yul\":1058:1063   */\n      dup3\n        /* \"#utility.yul\":1040:1064   */\n      tag_254\n      jump\t// in\n    tag_318:\n        /* \"#utility.yul\":1029:1064   */\n      swap1\n      pop\n        /* \"#utility.yul\":974:1070   */\n      swap2\n      swap1\n      pop\n      jump\t// out\n        /* \"#utility.yul\":1076:1198   */\n    tag_256:\n        /* \"#utility.yul\":1149:1173   */\n      tag_320\n        /* \"#utility.yul\":1167:1172   */\n      dup2\n        /* \"#utility.yul\":1149:1173   */\n      tag_255\n      jump\t// in\n    tag_320:\n        /* \"#utility.yul\":1142:1147   */\n      dup2\n        /* \"#utility.yul\":1139:1174   */\n      eq\n        /* \"#utility.yul\":1129:1192   */\n      tag_321\n      jumpi\n        /* \"#utility.yul\":1188:1189   */\n      0x00\n        /* \"#utility.yul\":1185:1186   */\n      dup1\n        /* \"#utility.yul\":1178:1190   */\n      revert\n        /* \"#utility.yul\":1129:1192   */\n    tag_321:\n        /* \"#utility.yul\":1076:1198   */\n      pop\n      jump\t// out\n        /* \"#utility.yul\":1204:1343   */\n    tag_257:\n        /* \"#utility.yul\":1250:1255   */\n      0x00\n        /* \"#utility.yul\":1288:1294   */\n      dup2\n        /* \"#utility.yul\":1275:1295   */\n      calldataload\n        /* \"#utility.yul\":1266:1295   */\n      swap1\n      pop\n        /* \"#utility.yul\":1304:1337   */\n      tag_323\n        /* \"#utility.yul\":1331:1336   */\n      dup2\n        /* \"#utility.yul\":1304:1337   */\n      tag_256\n      jump\t// in\n    tag_323:\n        /* \"#utility.yul\":1204:1343   */\n      swap3\n      swap2\n      pop\n      pop\n      jump\t// out\n        /* \"#utility.yul\":1349:1438   */\n    tag_258:\n        /* \"#utility.yul\":1385:1392   */\n      0x00\n        /* \"#utility.yul\":1425:1431   */\n      0xffff\n        /* \"#utility.yul\":1418:1423   */\n      dup3\n        /* \"#utility.yul\":1414:1432   */\n      and\n        /* \"#utility.yul\":1403:1432   */\n      swap1\n      pop\n        /* \"#utility.yul\":1349:1438   */\n      swap2\n      swap1\n      pop\n      jump\t// out\n        /* \"#utility.yul\":1444:1564   */\n    tag_259:\n        /* \"#utility.yul\":1516:1539   */\n      tag_326\n        /* \"#utility.yul\":1533:1538   */\n      dup2\n        /* \"#utility.yul\":1516:1539   */\n      tag_258\n      jump\t// in\n    tag_326:\n        /* \"#utility.yul\":1509:1514   */\n      dup2\n        /* \"#utility.yul\":1506:1540   */\n      eq\n        /* \"#utility.yul\":1496:1558   */\n      tag_327\n      jumpi\n        /* \"#utility.yul\":1554:1555   */\n      0x00\n        /* \"#utility.yul\":1551:1552   */\n      dup1\n        /* \"#utility.yul\":1544:1556   */\n      revert\n        /* \"#utility.yul\":1496:1558   */\n    tag_327:\n        /* \"#utility.yul\":1444:1564   */\n      pop\n      jump\t// out\n        /* \"#utility.yul\":1570:1707   */\n    tag_260:\n        /* \"#utility.yul\":1615:1620   */\n      0x00\n        /* \"#utility.yul\":1653:1659   */\n      dup2\n        /* \"#utility.yul\":1640:1660   */\n      calldataload\n        /* \"#utility.yul\":1631:1660   */\n      swap1\n      pop\n        /* \"#utility.yul\":1669:1701   */\n      tag_329\n        /* \"#utility.yul\":1695:1700   */\n      dup2\n        /* \"#utility.yul\":1669:1701   */\n      tag_259\n      jump\t// in\n    tag_329:\n        /* \"#utility.yul\":1570:1707   */\n      swap3\n      swap2\n      pop\n      pop\n      jump\t// out\n        /* \"#utility.yul\":1713:2330   */\n    tag_24:\n        /* \"#utility.yul\":1789:1795   */\n      0x00\n        /* \"#utility.yul\":1797:1803   */\n      dup1\n        /* \"#utility.yul\":1805:1811   */\n      0x00\n        /* \"#utility.yul\":1854:1856   */\n      0x60\n        /* \"#utility.yul\":1842:1851   */\n      dup5\n        /* \"#utility.yul\":1833:1840   */\n      dup7\n        /* \"#utility.yul\":1829:1852   */\n      sub\n        /* \"#utility.yul\":1825:1857   */\n      slt\n        /* \"#utility.yul\":1822:1941   */\n      iszero\n      tag_331\n      jumpi\n        /* \"#utility.yul\":1860:1939   */\n      tag_332\n      tag_252\n      jump\t// in\n    tag_332:\n        /* \"#utility.yul\":1822:1941   */\n    tag_331:\n        /* \"#utility.yul\":1980:1981   */\n      0x00\n        /* \"#utility.yul\":2005:2058   */\n      tag_333\n        /* \"#utility.yul\":2050:2057   */\n      dup7\n        /* \"#utility.yul\":2041:2047   */\n      dup3\n        /* \"#utility.yul\":2030:2039   */\n      dup8\n        /* \"#utility.yul\":2026:2048   */\n      add\n        /* \"#utility.yul\":2005:2058   */\n      tag_257\n      jump\t// in\n    tag_333:\n        /* \"#utility.yul\":1995:2058   */\n      swap4\n      pop\n        /* \"#utility.yul\":1951:2068   */\n      pop\n        /* \"#utility.yul\":2107:2109   */\n      0x20\n        /* \"#utility.yul\":2133:2186   */\n      tag_334\n        /* \"#utility.yul\":2178:2185   */\n      dup7\n        /* \"#utility.yul\":2169:2175   */\n      dup3\n        /* \"#utility.yul\":2158:2167   */\n      dup8\n        /* \"#utility.yul\":2154:2176   */\n      add\n        /* \"#utility.yul\":2133:2186   */\n      tag_257\n      jump\t// in\n    tag_334:\n        /* \"#utility.yul\":2123:2186   */\n      swap3\n      pop\n        /* \"#utility.yul\":2078:2196   */\n      pop\n        /* \"#utility.yul\":2235:2237   */\n      0x40\n        /* \"#utility.yul\":2261:2313   */\n      tag_335\n        /* \"#utility.yul\":2305:2312   */\n      dup7\n        /* \"#utility.yul\":2296:2302   */\n      dup3\n        /* \"#utility.yul\":2285:2294   */\n      dup8\n        /* \"#utility.yul\":2281:2303   */\n      add\n        /* \"#utility.yul\":2261:2313   */\n      tag_260\n      jump\t// in\n    tag_335:\n        /* \"#utility.yul\":2251:2313   */\n      swap2\n      pop\n        /* \"#utility.yul\":2206:2323   */\n      pop\n        /* \"#utility.yul\":1713:2330   */\n      swap3\n      pop\n      swap3\n      pop\n      swap3\n      jump\t// out\n        /* \"#utility.yul\":2336:2665   */\n    tag_31:\n        /* \"#utility.yul\":2395:2401   */\n      0x00\n        /* \"#utility.yul\":2444:2446   */\n      0x20\n        /* \"#utility.yul\":2432:2441   */\n      dup3\n        /* \"#utility.yul\":2423:2430   */\n      dup5\n        /* \"#utility.yul\":2419:2442   */\n      sub\n        /* \"#utility.yul\":2415:2447   */\n      slt\n        /* \"#utility.yul\":2412:2531   */\n      iszero\n      tag_337\n      jumpi\n        /* \"#utility.yul\":2450:2529   */\n      tag_338\n      tag_252\n      jump\t// in\n    tag_338:\n        /* \"#utility.yul\":2412:2531   */\n    tag_337:\n        /* \"#utility.yul\":2570:2571   */\n      0x00\n        /* \"#utility.yul\":2595:2648   */\n      tag_339\n        /* \"#utility.yul\":2640:2647   */\n      dup5\n        /* \"#utility.yul\":2631:2637   */\n      dup3\n        /* \"#utility.yul\":2620:2629   */\n      dup6\n        /* \"#utility.yul\":2616:2638   */\n      add\n        /* \"#utility.yul\":2595:2648   */\n      tag_257\n      jump\t// in\n    tag_339:\n        /* \"#utility.yul\":2585:2648   */\n      swap2\n      pop\n        /* \"#utility.yul\":2541:2658   */\n      pop\n        /* \"#utility.yul\":2336:2665   */\n      swap3\n      swap2\n      pop\n      pop\n      jump\t// out\n        /* \"#utility.yul\":2671:2786   */\n    tag_261:\n        /* \"#utility.yul\":2756:2779   */\n      tag_341\n        /* \"#utility.yul\":2773:2778   */\n      dup2\n        /* \"#utility.yul\":2756:2779   */\n      tag_258\n      jump\t// in\n    tag_341:\n        /* \"#utility.yul\":2751:2754   */\n      dup3\n        /* \"#utility.yul\":2744:2780   */\n      mstore\n        /* \"#utility.yul\":2671:2786   */\n      pop\n      pop\n      jump\t// out\n        /* \"#utility.yul\":2792:3010   */\n    tag_34:\n        /* \"#utility.yul\":2883:2887   */\n      0x00\n        /* \"#utility.yul\":2921:2923   */\n      0x20\n        /* \"#utility.yul\":2910:2919   */\n      dup3\n        /* \"#utility.yul\":2906:2924   */\n      add\n        /* \"#utility.yul\":2898:2924   */\n      swap1\n      pop\n        /* \"#utility.yul\":2934:3003   */\n      tag_343\n        /* \"#utility.yul\":3000:3001   */\n      0x00\n        /* \"#utility.yul\":2989:2998   */\n      dup4\n        /* \"#utility.yul\":2985:3002   */\n      add\n        /* \"#utility.yul\":2976:2982   */\n      dup5\n        /* \"#utility.yul\":2934:3003   */\n      tag_261\n      jump\t// in\n    tag_343:\n        /* \"#utility.yul\":2792:3010   */\n      swap3\n      swap2\n      pop\n      pop\n      jump\t// out\n        /* \"#utility.yul\":3016:3343   */\n    tag_37:\n        /* \"#utility.yul\":3074:3080   */\n      0x00\n        /* \"#utility.yul\":3123:3125   */\n      0x20\n        /* \"#utility.yul\":3111:3120   */\n      dup3\n        /* \"#utility.yul\":3102:3109   */\n      dup5\n        /* \"#utility.yul\":3098:3121   */\n      sub\n        /* \"#utility.yul\":3094:3126   */\n      slt\n        /* \"#utility.yul\":3091:3210   */\n      iszero\n      tag_345\n      jumpi\n        /* \"#utility.yul\":3129:3208   */\n      tag_346\n      tag_252\n      jump\t// in\n    tag_346:\n        /* \"#utility.yul\":3091:3210   */\n    tag_345:\n        /* \"#utility.yul\":3249:3250   */\n      0x00\n        /* \"#utility.yul\":3274:3326   */\n      tag_347\n        /* \"#utility.yul\":3318:3325   */\n      dup5\n        /* \"#utility.yul\":3309:3315   */\n      dup3\n        /* \"#utility.yul\":3298:3307   */\n      dup6\n        /* \"#utility.yul\":3294:3316   */\n      add\n        /* \"#utility.yul\":3274:3326   */\n      tag_260\n      jump\t// in\n    tag_347:\n        /* \"#utility.yul\":3264:3326   */\n      swap2\n      pop\n        /* \"#utility.yul\":3220:3336   */\n      pop\n        /* \"#utility.yul\":3016:3343   */\n      swap3\n      swap2\n      pop\n      pop\n      jump\t// out\n        /* \"#utility.yul\":3349:3467   */\n    tag_262:\n        /* \"#utility.yul\":3436:3460   */\n      tag_349\n        /* \"#utility.yul\":3454:3459   */\n      dup2\n        /* \"#utility.yul\":3436:3460   */\n      tag_255\n      jump\t// in\n    tag_349:\n        /* \"#utility.yul\":3431:3434   */\n      dup3\n        /* \"#utility.yul\":3424:3461   */\n      mstore\n        /* \"#utility.yul\":3349:3467   */\n      pop\n      pop\n      jump\t// out\n        /* \"#utility.yul\":3473:3695   */\n    tag_40:\n        /* \"#utility.yul\":3566:3570   */\n      0x00\n        /* \"#utility.yul\":3604:3606   */\n      0x20\n        /* \"#utility.yul\":3593:3602   */\n      dup3\n        /* \"#utility.yul\":3589:3607   */\n      add\n        /* \"#utility.yul\":3581:3607   */\n      swap1\n      pop\n        /* \"#utility.yul\":3617:3688   */\n      tag_351\n        /* \"#utility.yul\":3685:3686   */\n      0x00\n        /* \"#utility.yul\":3674:3683   */\n      dup4\n        /* \"#utility.yul\":3670:3687   */\n      add\n        /* \"#utility.yul\":3661:3667   */\n      dup5\n        /* \"#utility.yul\":3617:3688   */\n      tag_262\n      jump\t// in\n    tag_351:\n        /* \"#utility.yul\":3473:3695   */\n      swap3\n      swap2\n      pop\n      pop\n      jump\t// out\n        /* \"#utility.yul\":3701:3851   */\n    tag_263:\n        /* \"#utility.yul\":3738:3745   */\n      0x00\n        /* \"#utility.yul\":3778:3844   */\n      0xffffffffffffffffffff00000000000000000000000000000000000000000000\n        /* \"#utility.yul\":3771:3776   */\n      dup3\n        /* \"#utility.yul\":3767:3845   */\n      and\n        /* \"#utility.yul\":3756:3845   */\n      swap1\n      pop\n        /* \"#utility.yul\":3701:3851   */\n      swap2\n      swap1\n      pop\n      jump\t// out\n        /* \"#utility.yul\":3857:3975   */\n    tag_264:\n        /* \"#utility.yul\":3944:3968   */\n      tag_354\n        /* \"#utility.yul\":3962:3967   */\n      dup2\n        /* \"#utility.yul\":3944:3968   */\n      tag_263\n      jump\t// in\n    tag_354:\n        /* \"#utility.yul\":3939:3942   */\n      dup3\n        /* \"#utility.yul\":3932:3969   */\n      mstore\n        /* \"#utility.yul\":3857:3975   */\n      pop\n      pop\n      jump\t// out\n        /* \"#utility.yul\":3981:4203   */\n    tag_48:\n        /* \"#utility.yul\":4074:4078   */\n      0x00\n        /* \"#utility.yul\":4112:4114   */\n      0x20\n        /* \"#utility.yul\":4101:4110   */\n      dup3\n        /* \"#utility.yul\":4097:4115   */\n      add\n        /* \"#utility.yul\":4089:4115   */\n      swap1\n      pop\n        /* \"#utility.yul\":4125:4196   */\n      tag_356\n        /* \"#utility.yul\":4193:4194   */\n      0x00\n        /* \"#utility.yul\":4182:4191   */\n      dup4\n        /* \"#utility.yul\":4178:4195   */\n      add\n        /* \"#utility.yul\":4169:4175   */\n      dup5\n        /* \"#utility.yul\":4125:4196   */\n      tag_264\n      jump\t// in\n    tag_356:\n        /* \"#utility.yul\":3981:4203   */\n      swap3\n      swap2\n      pop\n      pop\n      jump\t// out\n        /* \"#utility.yul\":4209:4299   */\n    tag_265:\n        /* \"#utility.yul\":4243:4250   */\n      0x00\n        /* \"#utility.yul\":4286:4291   */\n      dup2\n        /* \"#utility.yul\":4279:4292   */\n      iszero\n        /* \"#utility.yul\":4272:4293   */\n      iszero\n        /* \"#utility.yul\":4261:4293   */\n      swap1\n      pop\n        /* \"#utility.yul\":4209:4299   */\n      swap2\n      swap1\n      pop\n      jump\t// out\n        /* \"#utility.yul\":4305:4421   */\n    tag_266:\n        /* \"#utility.yul\":4375:4396   */\n      tag_359\n        /* \"#utility.yul\":4390:4395   */\n      dup2\n        /* \"#utility.yul\":4375:4396   */\n      tag_265\n      jump\t// in\n    tag_359:\n        /* \"#utility.yul\":4368:4373   */\n      dup2\n        /* \"#utility.yul\":4365:4397   */\n      eq\n        /* \"#utility.yul\":4355:4415   */\n      tag_360\n      jumpi\n        /* \"#utility.yul\":4411:4412   */\n      0x00\n        /* \"#utility.yul\":4408:4409   */\n      dup1\n        /* \"#utility.yul\":4401:4413   */\n      revert\n        /* \"#utility.yul\":4355:4415   */\n    tag_360:\n        /* \"#utility.yul\":4305:4421   */\n      pop\n      jump\t// out\n        /* \"#utility.yul\":4427:4560   */\n    tag_267:\n        /* \"#utility.yul\":4470:4475   */\n      0x00\n        /* \"#utility.yul\":4508:4514   */\n      dup2\n        /* \"#utility.yul\":4495:4515   */\n      calldataload\n        /* \"#utility.yul\":4486:4515   */\n      swap1\n      pop\n        /* \"#utility.yul\":4524:4554   */\n      tag_362\n        /* \"#utility.yul\":4548:4553   */\n      dup2\n        /* \"#utility.yul\":4524:4554   */\n      tag_266\n      jump\t// in\n    tag_362:\n        /* \"#utility.yul\":4427:4560   */\n      swap3\n      swap2\n      pop\n      pop\n      jump\t// out\n        /* \"#utility.yul\":4566:5034   */\n    tag_51:\n        /* \"#utility.yul\":4631:4637   */\n      0x00\n        /* \"#utility.yul\":4639:4645   */\n      dup1\n        /* \"#utility.yul\":4688:4690   */\n      0x40\n        /* \"#utility.yul\":4676:4685   */\n      dup4\n        /* \"#utility.yul\":4667:4674   */\n      dup6\n        /* \"#utility.yul\":4663:4686   */\n      sub\n        /* \"#utility.yul\":4659:4691   */\n      slt\n        /* \"#utility.yul\":4656:4775   */\n      iszero\n      tag_364\n      jumpi\n        /* \"#utility.yul\":4694:4773   */\n      tag_365\n      tag_252\n      jump\t// in\n    tag_365:\n        /* \"#utility.yul\":4656:4775   */\n    tag_364:\n        /* \"#utility.yul\":4814:4815   */\n      0x00\n        /* \"#utility.yul\":4839:4892   */\n      tag_366\n        /* \"#utility.yul\":4884:4891   */\n      dup6\n        /* \"#utility.yul\":4875:4881   */\n      dup3\n        /* \"#utility.yul\":4864:4873   */\n      dup7\n        /* \"#utility.yul\":4860:4882   */\n      add\n        /* \"#utility.yul\":4839:4892   */\n      tag_257\n      jump\t// in\n    tag_366:\n        /* \"#utility.yul\":4829:4892   */\n      swap3\n      pop\n        /* \"#utility.yul\":4785:4902   */\n      pop\n        /* \"#utility.yul\":4941:4943   */\n      0x20\n        /* \"#utility.yul\":4967:5017   */\n      tag_367\n        /* \"#utility.yul\":5009:5016   */\n      dup6\n        /* \"#utility.yul\":5000:5006   */\n      dup3\n        /* \"#utility.yul\":4989:4998   */\n      dup7\n        /* \"#utility.yul\":4985:5007   */\n      add\n        /* \"#utility.yul\":4967:5017   */\n      tag_267\n      jump\t// in\n    tag_367:\n        /* \"#utility.yul\":4957:5017   */\n      swap2\n      pop\n        /* \"#utility.yul\":4912:5027   */\n      pop\n        /* \"#utility.yul\":4566:5034   */\n      swap3\n      pop\n      swap3\n      swap1\n      pop\n      jump\t// out\n        /* \"#utility.yul\":5040:5157   */\n    tag_268:\n        /* \"#utility.yul\":5149:5150   */\n      0x00\n        /* \"#utility.yul\":5146:5147   */\n      dup1\n        /* \"#utility.yul\":5139:5151   */\n      revert\n        /* \"#utility.yul\":5163:5280   */\n    tag_269:\n        /* \"#utility.yul\":5272:5273   */\n      0x00\n        /* \"#utility.yul\":5269:5270   */\n      dup1\n        /* \"#utility.yul\":5262:5274   */\n      revert\n        /* \"#utility.yul\":5286:5388   */\n    tag_270:\n        /* \"#utility.yul\":5327:5333   */\n      0x00\n        /* \"#utility.yul\":5378:5380   */\n      0x1f\n        /* \"#utility.yul\":5374:5381   */\n      not\n        /* \"#utility.yul\":5369:5371   */\n      0x1f\n        /* \"#utility.yul\":5362:5367   */\n      dup4\n        /* \"#utility.yul\":5358:5372   */\n      add\n        /* \"#utility.yul\":5354:5382   */\n      and\n        /* \"#utility.yul\":5344:5382   */\n      swap1\n      pop\n        /* \"#utility.yul\":5286:5388   */\n      swap2\n      swap1\n      pop\n      jump\t// out\n        /* \"#utility.yul\":5394:5574   */\n    tag_221:\n        /* \"#utility.yul\":5442:5519   */\n      0x4e487b7100000000000000000000000000000000000000000000000000000000\n        /* \"#utility.yul\":5439:5440   */\n      0x00\n        /* \"#utility.yul\":5432:5520   */\n      mstore\n        /* \"#utility.yul\":5539:5543   */\n      0x41\n        /* \"#utility.yul\":5536:5537   */\n      0x04\n        /* \"#utility.yul\":5529:5544   */\n      mstore\n        /* \"#utility.yul\":5563:5567   */\n      0x24\n        /* \"#utility.yul\":5560:5561   */\n      0x00\n        /* \"#utility.yul\":5553:5568   */\n      revert\n        /* \"#utility.yul\":5580:5861   */\n    tag_271:\n        /* \"#utility.yul\":5663:5690   */\n      tag_373\n        /* \"#utility.yul\":5685:5689   */\n      dup3\n        /* \"#utility.yul\":5663:5690   */\n      tag_270\n      jump\t// in\n    tag_373:\n        /* \"#utility.yul\":5655:5661   */\n      dup2\n        /* \"#utility.yul\":5651:5691   */\n      add\n        /* \"#utility.yul\":5793:5799   */\n      dup2\n        /* \"#utility.yul\":5781:5791   */\n      dup2\n        /* \"#utility.yul\":5778:5800   */\n      lt\n        /* \"#utility.yul\":5757:5775   */\n      0xffffffffffffffff\n        /* \"#utility.yul\":5745:5755   */\n      dup3\n        /* \"#utility.yul\":5742:5776   */\n      gt\n        /* \"#utility.yul\":5739:5801   */\n      or\n        /* \"#utility.yul\":5736:5824   */\n      iszero\n      tag_374\n      jumpi\n        /* \"#utility.yul\":5804:5822   */\n      tag_375\n      tag_221\n      jump\t// in\n    tag_375:\n        /* \"#utility.yul\":5736:5824   */\n    tag_374:\n        /* \"#utility.yul\":5844:5854   */\n      dup1\n        /* \"#utility.yul\":5840:5842   */\n      0x40\n        /* \"#utility.yul\":5833:5855   */\n      mstore\n        /* \"#utility.yul\":5623:5861   */\n      pop\n        /* \"#utility.yul\":5580:5861   */\n      pop\n      pop\n      jump\t// out\n        /* \"#utility.yul\":5867:5996   */\n    tag_272:\n        /* \"#utility.yul\":5901:5907   */\n      0x00\n        /* \"#utility.yul\":5928:5948   */\n      tag_377\n      tag_251\n      jump\t// in\n    tag_377:\n        /* \"#utility.yul\":5918:5948   */\n      swap1\n      pop\n        /* \"#utility.yul\":5957:5990   */\n      tag_378\n        /* \"#utility.yul\":5985:5989   */\n      dup3\n        /* \"#utility.yul\":5977:5983   */\n      dup3\n        /* \"#utility.yul\":5957:5990   */\n      tag_271\n      jump\t// in\n    tag_378:\n        /* \"#utility.yul\":5867:5996   */\n      swap2\n      swap1\n      pop\n      jump\t// out\n        /* \"#utility.yul\":6002:6309   */\n    tag_273:\n        /* \"#utility.yul\":6063:6067   */\n      0x00\n        /* \"#utility.yul\":6153:6171   */\n      0xffffffffffffffff\n        /* \"#utility.yul\":6145:6151   */\n      dup3\n        /* \"#utility.yul\":6142:6172   */\n      gt\n        /* \"#utility.yul\":6139:6195   */\n      iszero\n      tag_380\n      jumpi\n        /* \"#utility.yul\":6175:6193   */\n      tag_381\n      tag_221\n      jump\t// in\n    tag_381:\n        /* \"#utility.yul\":6139:6195   */\n    tag_380:\n        /* \"#utility.yul\":6213:6242   */\n      tag_382\n        /* \"#utility.yul\":6235:6241   */\n      dup3\n        /* \"#utility.yul\":6213:6242   */\n      tag_270\n      jump\t// in\n    tag_382:\n        /* \"#utility.yul\":6205:6242   */\n      swap1\n      pop\n        /* \"#utility.yul\":6297:6301   */\n      0x20\n        /* \"#utility.yul\":6291:6295   */\n      dup2\n        /* \"#utility.yul\":6287:6302   */\n      add\n        /* \"#utility.yul\":6279:6302   */\n      swap1\n      pop\n        /* \"#utility.yul\":6002:6309   */\n      swap2\n      swap1\n      pop\n      jump\t// out\n        /* \"#utility.yul\":6315:6461   */\n    tag_274:\n        /* \"#utility.yul\":6412:6418   */\n      dup3\n        /* \"#utility.yul\":6407:6410   */\n      dup2\n        /* \"#utility.yul\":6402:6405   */\n      dup4\n        /* \"#utility.yul\":6389:6419   */\n      calldatacopy\n        /* \"#utility.yul\":6453:6454   */\n      0x00\n        /* \"#utility.yul\":6444:6450   */\n      dup4\n        /* \"#utility.yul\":6439:6442   */\n      dup4\n        /* \"#utility.yul\":6435:6451   */\n      add\n        /* \"#utility.yul\":6428:6455   */\n      mstore\n        /* \"#utility.yul\":6315:6461   */\n      pop\n      pop\n      pop\n      jump\t// out\n        /* \"#utility.yul\":6467:6890   */\n    tag_275:\n        /* \"#utility.yul\":6544:6549   */\n      0x00\n        /* \"#utility.yul\":6569:6634   */\n      tag_385\n        /* \"#utility.yul\":6585:6633   */\n      tag_386\n        /* \"#utility.yul\":6626:6632   */\n      dup5\n        /* \"#utility.yul\":6585:6633   */\n      tag_273\n      jump\t// in\n    tag_386:\n        /* \"#utility.yul\":6569:6634   */\n      tag_272\n      jump\t// in\n    tag_385:\n        /* \"#utility.yul\":6560:6634   */\n      swap1\n      pop\n        /* \"#utility.yul\":6657:6663   */\n      dup3\n        /* \"#utility.yul\":6650:6655   */\n      dup2\n        /* \"#utility.yul\":6643:6664   */\n      mstore\n        /* \"#utility.yul\":6695:6699   */\n      0x20\n        /* \"#utility.yul\":6688:6693   */\n      dup2\n        /* \"#utility.yul\":6684:6700   */\n      add\n        /* \"#utility.yul\":6733:6736   */\n      dup5\n        /* \"#utility.yul\":6724:6730   */\n      dup5\n        /* \"#utility.yul\":6719:6722   */\n      dup5\n        /* \"#utility.yul\":6715:6731   */\n      add\n        /* \"#utility.yul\":6712:6737   */\n      gt\n        /* \"#utility.yul\":6709:6821   */\n      iszero\n      tag_387\n      jumpi\n        /* \"#utility.yul\":6740:6819   */\n      tag_388\n      tag_269\n      jump\t// in\n    tag_388:\n        /* \"#utility.yul\":6709:6821   */\n    tag_387:\n        /* \"#utility.yul\":6830:6884   */\n      tag_389\n        /* \"#utility.yul\":6877:6883   */\n      dup5\n        /* \"#utility.yul\":6872:6875   */\n      dup3\n        /* \"#utility.yul\":6867:6870   */\n      dup6\n        /* \"#utility.yul\":6830:6884   */\n      tag_274\n      jump\t// in\n    tag_389:\n        /* \"#utility.yul\":6550:6890   */\n      pop\n        /* \"#utility.yul\":6467:6890   */\n      swap4\n      swap3\n      pop\n      pop\n      pop\n      jump\t// out\n        /* \"#utility.yul\":6909:7247   */\n    tag_276:\n        /* \"#utility.yul\":6964:6969   */\n      0x00\n        /* \"#utility.yul\":7013:7016   */\n      dup3\n        /* \"#utility.yul\":7006:7010   */\n      0x1f\n        /* \"#utility.yul\":6998:7004   */\n      dup4\n        /* \"#utility.yul\":6994:7011   */\n      add\n        /* \"#utility.yul\":6990:7017   */\n      slt\n        /* \"#utility.yul\":6980:7102   */\n      tag_391\n      jumpi\n        /* \"#utility.yul\":7021:7100   */\n      tag_392\n      tag_268\n      jump\t// in\n    tag_392:\n        /* \"#utility.yul\":6980:7102   */\n    tag_391:\n        /* \"#utility.yul\":7138:7144   */\n      dup2\n        /* \"#utility.yul\":7125:7145   */\n      calldataload\n        /* \"#utility.yul\":7163:7241   */\n      tag_393\n        /* \"#utility.yul\":7237:7240   */\n      dup5\n        /* \"#utility.yul\":7229:7235   */\n      dup3\n        /* \"#utility.yul\":7222:7226   */\n      0x20\n        /* \"#utility.yul\":7214:7220   */\n      dup7\n        /* \"#utility.yul\":7210:7227   */\n      add\n        /* \"#utility.yul\":7163:7241   */\n      tag_275\n      jump\t// in\n    tag_393:\n        /* \"#utility.yul\":7154:7241   */\n      swap2\n      pop\n        /* \"#utility.yul\":6970:7247   */\n      pop\n        /* \"#utility.yul\":6909:7247   */\n      swap3\n      swap2\n      pop\n      pop\n      jump\t// out\n        /* \"#utility.yul\":7253:8194   */\n    tag_55:\n        /* \"#utility.yul\":7347:7353   */\n      0x00\n        /* \"#utility.yul\":7355:7361   */\n      dup1\n        /* \"#utility.yul\":7363:7369   */\n      0x00\n        /* \"#utility.yul\":7371:7377   */\n      dup1\n        /* \"#utility.yul\":7420:7423   */\n      0x80\n        /* \"#utility.yul\":7408:7417   */\n      dup6\n        /* \"#utility.yul\":7399:7406   */\n      dup8\n        /* \"#utility.yul\":7395:7418   */\n      sub\n        /* \"#utility.yul\":7391:7424   */\n      slt\n        /* \"#utility.yul\":7388:7508   */\n      iszero\n      tag_395\n      jumpi\n        /* \"#utility.yul\":7427:7506   */\n      tag_396\n      tag_252\n      jump\t// in\n    tag_396:\n        /* \"#utility.yul\":7388:7508   */\n    tag_395:\n        /* \"#utility.yul\":7547:7548   */\n      0x00\n        /* \"#utility.yul\":7572:7625   */\n      tag_397\n        /* \"#utility.yul\":7617:7624   */\n      dup8\n        /* \"#utility.yul\":7608:7614   */\n      dup3\n        /* \"#utility.yul\":7597:7606   */\n      dup9\n        /* \"#utility.yul\":7593:7615   */\n      add\n        /* \"#utility.yul\":7572:7625   */\n      tag_257\n      jump\t// in\n    tag_397:\n        /* \"#utility.yul\":7562:7625   */\n      swap5\n      pop\n        /* \"#utility.yul\":7518:7635   */\n      pop\n        /* \"#utility.yul\":7674:7676   */\n      0x20\n        /* \"#utility.yul\":7700:7753   */\n      tag_398\n        /* \"#utility.yul\":7745:7752   */\n      dup8\n        /* \"#utility.yul\":7736:7742   */\n      dup3\n        /* \"#utility.yul\":7725:7734   */\n      dup9\n        /* \"#utility.yul\":7721:7743   */\n      add\n        /* \"#utility.yul\":7700:7753   */\n      tag_257\n      jump\t// in\n    tag_398:\n        /* \"#utility.yul\":7690:7753   */\n      swap4\n      pop\n        /* \"#utility.yul\":7645:7763   */\n      pop\n        /* \"#utility.yul\":7802:7804   */\n      0x40\n        /* \"#utility.yul\":7828:7880   */\n      tag_399\n        /* \"#utility.yul\":7872:7879   */\n      dup8\n        /* \"#utility.yul\":7863:7869   */\n      dup3\n        /* \"#utility.yul\":7852:7861   */\n      dup9\n        /* \"#utility.yul\":7848:7870   */\n      add\n        /* \"#utility.yul\":7828:7880   */\n      tag_260\n      jump\t// in\n    tag_399:\n        /* \"#utility.yul\":7818:7880   */\n      swap3\n      pop\n        /* \"#utility.yul\":7773:7890   */\n      pop\n        /* \"#utility.yul\":7957:7959   */\n      0x60\n        /* \"#utility.yul\":7946:7955   */\n      dup6\n        /* \"#utility.yul\":7942:7960   */\n      add\n        /* \"#utility.yul\":7929:7961   */\n      calldataload\n        /* \"#utility.yul\":7988:8006   */\n      0xffffffffffffffff\n        /* \"#utility.yul\":7980:7986   */\n      dup2\n        /* \"#utility.yul\":7977:8007   */\n      gt\n        /* \"#utility.yul\":7974:8091   */\n      iszero\n      tag_400\n      jumpi\n        /* \"#utility.yul\":8010:8089   */\n      tag_401\n      tag_253\n      jump\t// in\n    tag_401:\n        /* \"#utility.yul\":7974:8091   */\n    tag_400:\n        /* \"#utility.yul\":8115:8177   */\n      tag_402\n        /* \"#utility.yul\":8169:8176   */\n      dup8\n        /* \"#utility.yul\":8160:8166   */\n      dup3\n        /* \"#utility.yul\":8149:8158   */\n      dup9\n        /* \"#utility.yul\":8145:8167   */\n      add\n        /* \"#utility.yul\":8115:8177   */\n      tag_276\n      jump\t// in\n    tag_402:\n        /* \"#utility.yul\":8105:8177   */\n      swap2\n      pop\n        /* \"#utility.yul\":7900:8187   */\n      pop\n        /* \"#utility.yul\":7253:8194   */\n      swap3\n      swap6\n      swap2\n      swap5\n      pop\n      swap3\n      pop\n      jump\t// out\n        /* \"#utility.yul\":8200:8317   */\n    tag_277:\n        /* \"#utility.yul\":8309:8310   */\n      0x00\n        /* \"#utility.yul\":8306:8307   */\n      dup1\n        /* \"#utility.yul\":8299:8311   */\n      revert\n        /* \"#utility.yul\":8323:8440   */\n    tag_278:\n        /* \"#utility.yul\":8432:8433   */\n      0x00\n        /* \"#utility.yul\":8429:8430   */\n      dup1\n        /* \"#utility.yul\":8422:8434   */\n      revert\n        /* \"#utility.yul\":8459:9011   */\n    tag_279:\n        /* \"#utility.yul\":8516:8524   */\n      0x00\n        /* \"#utility.yul\":8526:8532   */\n      dup1\n        /* \"#utility.yul\":8576:8579   */\n      dup4\n        /* \"#utility.yul\":8569:8573   */\n      0x1f\n        /* \"#utility.yul\":8561:8567   */\n      dup5\n        /* \"#utility.yul\":8557:8574   */\n      add\n        /* \"#utility.yul\":8553:8580   */\n      slt\n        /* \"#utility.yul\":8543:8665   */\n      tag_406\n      jumpi\n        /* \"#utility.yul\":8584:8663   */\n      tag_407\n      tag_268\n      jump\t// in\n    tag_407:\n        /* \"#utility.yul\":8543:8665   */\n    tag_406:\n        /* \"#utility.yul\":8697:8703   */\n      dup3\n        /* \"#utility.yul\":8684:8704   */\n      calldataload\n        /* \"#utility.yul\":8674:8704   */\n      swap1\n      pop\n        /* \"#utility.yul\":8727:8745   */\n      0xffffffffffffffff\n        /* \"#utility.yul\":8719:8725   */\n      dup2\n        /* \"#utility.yul\":8716:8746   */\n      gt\n        /* \"#utility.yul\":8713:8830   */\n      iszero\n      tag_408\n      jumpi\n        /* \"#utility.yul\":8749:8828   */\n      tag_409\n      tag_277\n      jump\t// in\n    tag_409:\n        /* \"#utility.yul\":8713:8830   */\n    tag_408:\n        /* \"#utility.yul\":8863:8867   */\n      0x20\n        /* \"#utility.yul\":8855:8861   */\n      dup4\n        /* \"#utility.yul\":8851:8868   */\n      add\n        /* \"#utility.yul\":8839:8868   */\n      swap2\n      pop\n        /* \"#utility.yul\":8917:8920   */\n      dup4\n        /* \"#utility.yul\":8909:8913   */\n      0x01\n        /* \"#utility.yul\":8901:8907   */\n      dup3\n        /* \"#utility.yul\":8897:8914   */\n      mul\n        /* \"#utility.yul\":8887:8895   */\n      dup4\n        /* \"#utility.yul\":8883:8915   */\n      add\n        /* \"#utility.yul\":8880:8921   */\n      gt\n        /* \"#utility.yul\":8877:9005   */\n      iszero\n      tag_410\n      jumpi\n        /* \"#utility.yul\":8924:9003   */\n      tag_411\n      tag_278\n      jump\t// in\n    tag_411:\n        /* \"#utility.yul\":8877:9005   */\n    tag_410:\n        /* \"#utility.yul\":8459:9011   */\n      swap3\n      pop\n      swap3\n      swap1\n      pop\n      jump\t// out\n        /* \"#utility.yul\":9017:9978   */\n    tag_59:\n        /* \"#utility.yul\":9113:9119   */\n      0x00\n        /* \"#utility.yul\":9121:9127   */\n      dup1\n        /* \"#utility.yul\":9129:9135   */\n      0x00\n        /* \"#utility.yul\":9137:9143   */\n      dup1\n        /* \"#utility.yul\":9145:9151   */\n      0x00\n        /* \"#utility.yul\":9194:9197   */\n      0x80\n        /* \"#utility.yul\":9182:9191   */\n      dup7\n        /* \"#utility.yul\":9173:9180   */\n      dup9\n        /* \"#utility.yul\":9169:9192   */\n      sub\n        /* \"#utility.yul\":9165:9198   */\n      slt\n        /* \"#utility.yul\":9162:9282   */\n      iszero\n      tag_413\n      jumpi\n        /* \"#utility.yul\":9201:9280   */\n      tag_414\n      tag_252\n      jump\t// in\n    tag_414:\n        /* \"#utility.yul\":9162:9282   */\n    tag_413:\n        /* \"#utility.yul\":9321:9322   */\n      0x00\n        /* \"#utility.yul\":9346:9399   */\n      tag_415\n        /* \"#utility.yul\":9391:9398   */\n      dup9\n        /* \"#utility.yul\":9382:9388   */\n      dup3\n        /* \"#utility.yul\":9371:9380   */\n      dup10\n        /* \"#utility.yul\":9367:9389   */\n      add\n        /* \"#utility.yul\":9346:9399   */\n      tag_257\n      jump\t// in\n    tag_415:\n        /* \"#utility.yul\":9336:9399   */\n      swap6\n      pop\n        /* \"#utility.yul\":9292:9409   */\n      pop\n        /* \"#utility.yul\":9448:9450   */\n      0x20\n        /* \"#utility.yul\":9474:9527   */\n      tag_416\n        /* \"#utility.yul\":9519:9526   */\n      dup9\n        /* \"#utility.yul\":9510:9516   */\n      dup3\n        /* \"#utility.yul\":9499:9508   */\n      dup10\n        /* \"#utility.yul\":9495:9517   */\n      add\n        /* \"#utility.yul\":9474:9527   */\n      tag_257\n      jump\t// in\n    tag_416:\n        /* \"#utility.yul\":9464:9527   */\n      swap5\n      pop\n        /* \"#utility.yul\":9419:9537   */\n      pop\n        /* \"#utility.yul\":9576:9578   */\n      0x40\n        /* \"#utility.yul\":9602:9654   */\n      tag_417\n        /* \"#utility.yul\":9646:9653   */\n      dup9\n        /* \"#utility.yul\":9637:9643   */\n      dup3\n        /* \"#utility.yul\":9626:9635   */\n      dup10\n        /* \"#utility.yul\":9622:9644   */\n      add\n        /* \"#utility.yul\":9602:9654   */\n      tag_260\n      jump\t// in\n    tag_417:\n        /* \"#utility.yul\":9592:9654   */\n      swap4\n      pop\n        /* \"#utility.yul\":9547:9664   */\n      pop\n        /* \"#utility.yul\":9731:9733   */\n      0x60\n        /* \"#utility.yul\":9720:9729   */\n      dup7\n        /* \"#utility.yul\":9716:9734   */\n      add\n        /* \"#utility.yul\":9703:9735   */\n      calldataload\n        /* \"#utility.yul\":9762:9780   */\n      0xffffffffffffffff\n        /* \"#utility.yul\":9754:9760   */\n      dup2\n        /* \"#utility.yul\":9751:9781   */\n      gt\n        /* \"#utility.yul\":9748:9865   */\n      iszero\n      tag_418\n      jumpi\n        /* \"#utility.yul\":9784:9863   */\n      tag_419\n      tag_253\n      jump\t// in\n    tag_419:\n        /* \"#utility.yul\":9748:9865   */\n    tag_418:\n        /* \"#utility.yul\":9897:9961   */\n      tag_420\n        /* \"#utility.yul\":9953:9960   */\n      dup9\n        /* \"#utility.yul\":9944:9950   */\n      dup3\n        /* \"#utility.yul\":9933:9942   */\n      dup10\n        /* \"#utility.yul\":9929:9951   */\n      add\n        /* \"#utility.yul\":9897:9961   */\n      tag_279\n      jump\t// in\n    tag_420:\n        /* \"#utility.yul\":9879:9961   */\n      swap3\n      pop\n      swap3\n      pop\n        /* \"#utility.yul\":9674:9971   */\n      pop\n        /* \"#utility.yul\":9017:9978   */\n      swap3\n      swap6\n      pop\n      swap3\n      swap6\n      swap1\n      swap4\n      pop\n      jump\t// out\n        /* \"#utility.yul\":9984:10133   */\n    tag_280:\n        /* \"#utility.yul\":10020:10027   */\n      0x00\n        /* \"#utility.yul\":10060:10126   */\n      0xffffffff00000000000000000000000000000000000000000000000000000000\n        /* \"#utility.yul\":10053:10058   */\n      dup3\n        /* \"#utility.yul\":10049:10127   */\n      and\n        /* \"#utility.yul\":10038:10127   */\n      swap1\n      pop\n        /* \"#utility.yul\":9984:10133   */\n      swap2\n      swap1\n      pop\n      jump\t// out\n        /* \"#utility.yul\":10139:10254   */\n    tag_281:\n        /* \"#utility.yul\":10224:10247   */\n      tag_423\n        /* \"#utility.yul\":10241:10246   */\n      dup2\n        /* \"#utility.yul\":10224:10247   */\n      tag_280\n      jump\t// in\n    tag_423:\n        /* \"#utility.yul\":10219:10222   */\n      dup3\n        /* \"#utility.yul\":10212:10248   */\n      mstore\n        /* \"#utility.yul\":10139:10254   */\n      pop\n      pop\n      jump\t// out\n        /* \"#utility.yul\":10260:10478   */\n    tag_62:\n        /* \"#utility.yul\":10351:10355   */\n      0x00\n        /* \"#utility.yul\":10389:10391   */\n      0x20\n        /* \"#utility.yul\":10378:10387   */\n      dup3\n        /* \"#utility.yul\":10374:10392   */\n      add\n        /* \"#utility.yul\":10366:10392   */\n      swap1\n      pop\n        /* \"#utility.yul\":10402:10471   */\n      tag_425\n        /* \"#utility.yul\":10468:10469   */\n      0x00\n        /* \"#utility.yul\":10457:10466   */\n      dup4\n        /* \"#utility.yul\":10453:10470   */\n      add\n        /* \"#utility.yul\":10444:10450   */\n      dup5\n        /* \"#utility.yul\":10402:10471   */\n      tag_281\n      jump\t// in\n    tag_425:\n        /* \"#utility.yul\":10260:10478   */\n      swap3\n      swap2\n      pop\n      pop\n      jump\t// out\n        /* \"#utility.yul\":10484:10583   */\n    tag_282:\n        /* \"#utility.yul\":10536:10542   */\n      0x00\n        /* \"#utility.yul\":10570:10575   */\n      dup2\n        /* \"#utility.yul\":10564:10576   */\n      mload\n        /* \"#utility.yul\":10554:10576   */\n      swap1\n      pop\n        /* \"#utility.yul\":10484:10583   */\n      swap2\n      swap1\n      pop\n      jump\t// out\n        /* \"#utility.yul\":10589:10758   */\n    tag_283:\n        /* \"#utility.yul\":10673:10684   */\n      0x00\n        /* \"#utility.yul\":10707:10713   */\n      dup3\n        /* \"#utility.yul\":10702:10705   */\n      dup3\n        /* \"#utility.yul\":10695:10714   */\n      mstore\n        /* \"#utility.yul\":10747:10751   */\n      0x20\n        /* \"#utility.yul\":10742:10745   */\n      dup3\n        /* \"#utility.yul\":10738:10752   */\n      add\n        /* \"#utility.yul\":10723:10752   */\n      swap1\n      pop\n        /* \"#utility.yul\":10589:10758   */\n      swap3\n      swap2\n      pop\n      pop\n      jump\t// out\n        /* \"#utility.yul\":10764:11010   */\n    tag_284:\n        /* \"#utility.yul\":10845:10846   */\n      0x00\n        /* \"#utility.yul\":10855:10968   */\n    tag_429:\n        /* \"#utility.yul\":10869:10875   */\n      dup4\n        /* \"#utility.yul\":10866:10867   */\n      dup2\n        /* \"#utility.yul\":10863:10876   */\n      lt\n        /* \"#utility.yul\":10855:10968   */\n      iszero\n      tag_431\n      jumpi\n        /* \"#utility.yul\":10954:10955   */\n      dup1\n        /* \"#utility.yul\":10949:10952   */\n      dup3\n        /* \"#utility.yul\":10945:10956   */\n      add\n        /* \"#utility.yul\":10939:10957   */\n      mload\n        /* \"#utility.yul\":10935:10936   */\n      dup2\n        /* \"#utility.yul\":10930:10933   */\n      dup5\n        /* \"#utility.yul\":10926:10937   */\n      add\n        /* \"#utility.yul\":10919:10958   */\n      mstore\n        /* \"#utility.yul\":10891:10893   */\n      0x20\n        /* \"#utility.yul\":10888:10889   */\n      dup2\n        /* \"#utility.yul\":10884:10894   */\n      add\n        /* \"#utility.yul\":10879:10894   */\n      swap1\n      pop\n        /* \"#utility.yul\":10855:10968   */\n      jump(tag_429)\n    tag_431:\n        /* \"#utility.yul\":11002:11003   */\n      0x00\n        /* \"#utility.yul\":10993:10999   */\n      dup5\n        /* \"#utility.yul\":10988:10991   */\n      dup5\n        /* \"#utility.yul\":10984:11000   */\n      add\n        /* \"#utility.yul\":10977:11004   */\n      mstore\n        /* \"#utility.yul\":10826:11010   */\n      pop\n        /* \"#utility.yul\":10764:11010   */\n      pop\n      pop\n      pop\n      jump\t// out\n        /* \"#utility.yul\":11016:11393   */\n    tag_285:\n        /* \"#utility.yul\":11104:11107   */\n      0x00\n        /* \"#utility.yul\":11132:11171   */\n      tag_433\n        /* \"#utility.yul\":11165:11170   */\n      dup3\n        /* \"#utility.yul\":11132:11171   */\n      tag_282\n      jump\t// in\n    tag_433:\n        /* \"#utility.yul\":11187:11258   */\n      tag_434\n        /* \"#utility.yul\":11251:11257   */\n      dup2\n        /* \"#utility.yul\":11246:11249   */\n      dup6\n        /* \"#utility.yul\":11187:11258   */\n      tag_283\n      jump\t// in\n    tag_434:\n        /* \"#utility.yul\":11180:11258   */\n      swap4\n      pop\n        /* \"#utility.yul\":11267:11332   */\n      tag_435\n        /* \"#utility.yul\":11325:11331   */\n      dup2\n        /* \"#utility.yul\":11320:11323   */\n      dup6\n        /* \"#utility.yul\":11313:11317   */\n      0x20\n        /* \"#utility.yul\":11306:11311   */\n      dup7\n        /* \"#utility.yul\":11302:11318   */\n      add\n        /* \"#utility.yul\":11267:11332   */\n      tag_284\n      jump\t// in\n    tag_435:\n        /* \"#utility.yul\":11357:11386   */\n      tag_436\n        /* \"#utility.yul\":11379:11385   */\n      dup2\n        /* \"#utility.yul\":11357:11386   */\n      tag_270\n      jump\t// in\n    tag_436:\n        /* \"#utility.yul\":11352:11355   */\n      dup5\n        /* \"#utility.yul\":11348:11387   */\n      add\n        /* \"#utility.yul\":11341:11387   */\n      swap2\n      pop\n        /* \"#utility.yul\":11108:11393   */\n      pop\n        /* \"#utility.yul\":11016:11393   */\n      swap3\n      swap2\n      pop\n      pop\n      jump\t// out\n        /* \"#utility.yul\":11399:11712   */\n    tag_67:\n        /* \"#utility.yul\":11512:11516   */\n      0x00\n        /* \"#utility.yul\":11550:11552   */\n      0x20\n        /* \"#utility.yul\":11539:11548   */\n      dup3\n        /* \"#utility.yul\":11535:11553   */\n      add\n        /* \"#utility.yul\":11527:11553   */\n      swap1\n      pop\n        /* \"#utility.yul\":11599:11608   */\n      dup2\n        /* \"#utility.yul\":11593:11597   */\n      dup2\n        /* \"#utility.yul\":11589:11609   */\n      sub\n        /* \"#utility.yul\":11585:11586   */\n      0x00\n        /* \"#utility.yul\":11574:11583   */\n      dup4\n        /* \"#utility.yul\":11570:11587   */\n      add\n        /* \"#utility.yul\":11563:11610   */\n      mstore\n        /* \"#utility.yul\":11627:11705   */\n      tag_438\n        /* \"#utility.yul\":11700:11704   */\n      dup2\n        /* \"#utility.yul\":11691:11697   */\n      dup5\n        /* \"#utility.yul\":11627:11705   */\n      tag_285\n      jump\t// in\n    tag_438:\n        /* \"#utility.yul\":11619:11705   */\n      swap1\n      pop\n        /* \"#utility.yul\":11399:11712   */\n      swap3\n      swap2\n      pop\n      pop\n      jump\t// out\n        /* \"#utility.yul\":11718:12190   */\n    tag_70:\n        /* \"#utility.yul\":11785:11791   */\n      0x00\n        /* \"#utility.yul\":11793:11799   */\n      dup1\n        /* \"#utility.yul\":11842:11844   */\n      0x40\n        /* \"#utility.yul\":11830:11839   */\n      dup4\n        /* \"#utility.yul\":11821:11828   */\n      dup6\n        /* \"#utility.yul\":11817:11840   */\n      sub\n        /* \"#utility.yul\":11813:11845   */\n      slt\n        /* \"#utility.yul\":11810:11929   */\n      iszero\n      tag_440\n      jumpi\n        /* \"#utility.yul\":11848:11927   */\n      tag_441\n      tag_252\n      jump\t// in\n    tag_441:\n        /* \"#utility.yul\":11810:11929   */\n    tag_440:\n        /* \"#utility.yul\":11968:11969   */\n      0x00\n        /* \"#utility.yul\":11993:12046   */\n      tag_442\n        /* \"#utility.yul\":12038:12045   */\n      dup6\n        /* \"#utility.yul\":12029:12035   */\n      dup3\n        /* \"#utility.yul\":12018:12027   */\n      dup7\n        /* \"#utility.yul\":12014:12036   */\n      add\n        /* \"#utility.yul\":11993:12046   */\n      tag_257\n      jump\t// in\n    tag_442:\n        /* \"#utility.yul\":11983:12046   */\n      swap3\n      pop\n        /* \"#utility.yul\":11939:12056   */\n      pop\n        /* \"#utility.yul\":12095:12097   */\n      0x20\n        /* \"#utility.yul\":12121:12173   */\n      tag_443\n        /* \"#utility.yul\":12165:12172   */\n      dup6\n        /* \"#utility.yul\":12156:12162   */\n      dup3\n        /* \"#utility.yul\":12145:12154   */\n      dup7\n        /* \"#utility.yul\":12141:12163   */\n      add\n        /* \"#utility.yul\":12121:12173   */\n      tag_260\n      jump\t// in\n    tag_443:\n        /* \"#utility.yul\":12111:12173   */\n      swap2\n      pop\n        /* \"#utility.yul\":12066:12183   */\n      pop\n        /* \"#utility.yul\":11718:12190   */\n      swap3\n      pop\n      swap3\n      swap1\n      pop\n      jump\t// out\n        /* \"#utility.yul\":12196:12670   */\n    tag_74:\n        /* \"#utility.yul\":12264:12270   */\n      0x00\n        /* \"#utility.yul\":12272:12278   */\n      dup1\n        /* \"#utility.yul\":12321:12323   */\n      0x40\n        /* \"#utility.yul\":12309:12318   */\n      dup4\n        /* \"#utility.yul\":12300:12307   */\n      dup6\n        /* \"#utility.yul\":12296:12319   */\n      sub\n        /* \"#utility.yul\":12292:12324   */\n      slt\n        /* \"#utility.yul\":12289:12408   */\n      iszero\n      tag_445\n      jumpi\n        /* \"#utility.yul\":12327:12406   */\n      tag_446\n      tag_252\n      jump\t// in\n    tag_446:\n        /* \"#utility.yul\":12289:12408   */\n    tag_445:\n        /* \"#utility.yul\":12447:12448   */\n      0x00\n        /* \"#utility.yul\":12472:12525   */\n      tag_447\n        /* \"#utility.yul\":12517:12524   */\n      dup6\n        /* \"#utility.yul\":12508:12514   */\n      dup3\n        /* \"#utility.yul\":12497:12506   */\n      dup7\n        /* \"#utility.yul\":12493:12515   */\n      add\n        /* \"#utility.yul\":12472:12525   */\n      tag_257\n      jump\t// in\n    tag_447:\n        /* \"#utility.yul\":12462:12525   */\n      swap3\n      pop\n        /* \"#utility.yul\":12418:12535   */\n      pop\n        /* \"#utility.yul\":12574:12576   */\n      0x20\n        /* \"#utility.yul\":12600:12653   */\n      tag_448\n        /* \"#utility.yul\":12645:12652   */\n      dup6\n        /* \"#utility.yul\":12636:12642   */\n      dup3\n        /* \"#utility.yul\":12625:12634   */\n      dup7\n        /* \"#utility.yul\":12621:12643   */\n      add\n        /* \"#utility.yul\":12600:12653   */\n      tag_257\n      jump\t// in\n    tag_448:\n        /* \"#utility.yul\":12590:12653   */\n      swap2\n      pop\n        /* \"#utility.yul\":12545:12663   */\n      pop\n        /* \"#utility.yul\":12196:12670   */\n      swap3\n      pop\n      swap3\n      swap1\n      pop\n      jump\t// out\n        /* \"#utility.yul\":12676:12785   */\n    tag_286:\n        /* \"#utility.yul\":12757:12778   */\n      tag_450\n        /* \"#utility.yul\":12772:12777   */\n      dup2\n        /* \"#utility.yul\":12757:12778   */\n      tag_265\n      jump\t// in\n    tag_450:\n        /* \"#utility.yul\":12752:12755   */\n      dup3\n        /* \"#utility.yul\":12745:12779   */\n      mstore\n        /* \"#utility.yul\":12676:12785   */\n      pop\n      pop\n      jump\t// out\n        /* \"#utility.yul\":12791:13001   */\n    tag_77:\n        /* \"#utility.yul\":12878:12882   */\n      0x00\n        /* \"#utility.yul\":12916:12918   */\n      0x20\n        /* \"#utility.yul\":12905:12914   */\n      dup3\n        /* \"#utility.yul\":12901:12919   */\n      add\n        /* \"#utility.yul\":12893:12919   */\n      swap1\n      pop\n        /* \"#utility.yul\":12929:12994   */\n      tag_452\n        /* \"#utility.yul\":12991:12992   */\n      0x00\n        /* \"#utility.yul\":12980:12989   */\n      dup4\n        /* \"#utility.yul\":12976:12993   */\n      add\n        /* \"#utility.yul\":12967:12973   */\n      dup5\n        /* \"#utility.yul\":12929:12994   */\n      tag_286\n      jump\t// in\n    tag_452:\n        /* \"#utility.yul\":12791:13001   */\n      swap3\n      swap2\n      pop\n      pop\n      jump\t// out\n        /* \"#utility.yul\":13007:13187   */\n    tag_88:\n        /* \"#utility.yul\":13055:13132   */\n      0x4e487b7100000000000000000000000000000000000000000000000000000000\n        /* \"#utility.yul\":13052:13053   */\n      0x00\n        /* \"#utility.yul\":13045:13133   */\n      mstore\n        /* \"#utility.yul\":13152:13156   */\n      0x32\n        /* \"#utility.yul\":13149:13150   */\n      0x04\n        /* \"#utility.yul\":13142:13157   */\n      mstore\n        /* \"#utility.yul\":13176:13180   */\n      0x24\n        /* \"#utility.yul\":13173:13174   */\n      0x00\n        /* \"#utility.yul\":13166:13181   */\n      revert\n        /* \"#utility.yul\":13193:13426   */\n    tag_287:\n        /* \"#utility.yul\":13333:13367   */\n      0x546865207472616e73666572206f66207468697320746f6b656e206973206375\n        /* \"#utility.yul\":13329:13330   */\n      0x00\n        /* \"#utility.yul\":13321:13327   */\n      dup3\n        /* \"#utility.yul\":13317:13331   */\n      add\n        /* \"#utility.yul\":13310:13368   */\n      mstore\n        /* \"#utility.yul\":13402:13418   */\n      0x7272656e746c792062616e6e6564000000000000000000000000000000000000\n        /* \"#utility.yul\":13397:13399   */\n      0x20\n        /* \"#utility.yul\":13389:13395   */\n      dup3\n        /* \"#utility.yul\":13385:13400   */\n      add\n        /* \"#utility.yul\":13378:13419   */\n      mstore\n        /* \"#utility.yul\":13193:13426   */\n      pop\n      jump\t// out\n        /* \"#utility.yul\":13432:13798   */\n    tag_288:\n        /* \"#utility.yul\":13574:13577   */\n      0x00\n        /* \"#utility.yul\":13595:13662   */\n      tag_456\n        /* \"#utility.yul\":13659:13661   */\n      0x2e\n        /* \"#utility.yul\":13654:13657   */\n      dup4\n        /* \"#utility.yul\":13595:13662   */\n      tag_283\n      jump\t// in\n    tag_456:\n        /* \"#utility.yul\":13588:13662   */\n      swap2\n      pop\n        /* \"#utility.yul\":13671:13764   */\n      tag_457\n        /* \"#utility.yul\":13760:13763   */\n      dup3\n        /* \"#utility.yul\":13671:13764   */\n      tag_287\n      jump\t// in\n    tag_457:\n        /* \"#utility.yul\":13789:13791   */\n      0x40\n        /* \"#utility.yul\":13784:13787   */\n      dup3\n        /* \"#utility.yul\":13780:13792   */\n      add\n        /* \"#utility.yul\":13773:13792   */\n      swap1\n      pop\n        /* \"#utility.yul\":13432:13798   */\n      swap2\n      swap1\n      pop\n      jump\t// out\n        /* \"#utility.yul\":13804:14223   */\n    tag_92:\n        /* \"#utility.yul\":13970:13974   */\n      0x00\n        /* \"#utility.yul\":14008:14010   */\n      0x20\n        /* \"#utility.yul\":13997:14006   */\n      dup3\n        /* \"#utility.yul\":13993:14011   */\n      add\n        /* \"#utility.yul\":13985:14011   */\n      swap1\n      pop\n        /* \"#utility.yul\":14057:14066   */\n      dup2\n        /* \"#utility.yul\":14051:14055   */\n      dup2\n        /* \"#utility.yul\":14047:14067   */\n      sub\n        /* \"#utility.yul\":14043:14044   */\n      0x00\n        /* \"#utility.yul\":14032:14041   */\n      dup4\n        /* \"#utility.yul\":14028:14045   */\n      add\n        /* \"#utility.yul\":14021:14068   */\n      mstore\n        /* \"#utility.yul\":14085:14216   */\n      tag_459\n        /* \"#utility.yul\":14211:14215   */\n      dup2\n        /* \"#utility.yul\":14085:14216   */\n      tag_288\n      jump\t// in\n    tag_459:\n        /* \"#utility.yul\":14077:14216   */\n      swap1\n      pop\n        /* \"#utility.yul\":13804:14223   */\n      swap2\n      swap1\n      pop\n      jump\t// out\n        /* \"#utility.yul\":14229:14306   */\n    tag_289:\n        /* \"#utility.yul\":14266:14273   */\n      0x00\n        /* \"#utility.yul\":14295:14300   */\n      dup2\n        /* \"#utility.yul\":14284:14300   */\n      swap1\n      pop\n        /* \"#utility.yul\":14229:14306   */\n      swap2\n      swap1\n      pop\n      jump\t// out\n        /* \"#utility.yul\":14312:14372   */\n    tag_290:\n        /* \"#utility.yul\":14340:14343   */\n      0x00\n        /* \"#utility.yul\":14361:14366   */\n      dup2\n        /* \"#utility.yul\":14354:14366   */\n      swap1\n      pop\n        /* \"#utility.yul\":14312:14372   */\n      swap2\n      swap1\n      pop\n      jump\t// out\n        /* \"#utility.yul\":14378:14518   */\n    tag_291:\n        /* \"#utility.yul\":14427:14436   */\n      0x00\n        /* \"#utility.yul\":14460:14512   */\n      tag_463\n        /* \"#utility.yul\":14478:14511   */\n      tag_464\n        /* \"#utility.yul\":14487:14510   */\n      tag_465\n        /* \"#utility.yul\":14504:14509   */\n      dup5\n        /* \"#utility.yul\":14487:14510   */\n      tag_258\n      jump\t// in\n    tag_465:\n        /* \"#utility.yul\":14478:14511   */\n      tag_290\n      jump\t// in\n    tag_464:\n        /* \"#utility.yul\":14460:14512   */\n      tag_289\n      jump\t// in\n    tag_463:\n        /* \"#utility.yul\":14447:14512   */\n      swap1\n      pop\n        /* \"#utility.yul\":14378:14518   */\n      swap2\n      swap1\n      pop\n      jump\t// out\n        /* \"#utility.yul\":14524:14653   */\n    tag_292:\n        /* \"#utility.yul\":14610:14646   */\n      tag_467\n        /* \"#utility.yul\":14640:14645   */\n      dup2\n        /* \"#utility.yul\":14610:14646   */\n      tag_291\n      jump\t// in\n    tag_467:\n        /* \"#utility.yul\":14605:14608   */\n      dup3\n        /* \"#utility.yul\":14598:14647   */\n      mstore\n        /* \"#utility.yul\":14524:14653   */\n      pop\n      pop\n      jump\t// out\n        /* \"#utility.yul\":14659:14989   */\n    tag_104:\n        /* \"#utility.yul\":14779:14783   */\n      0x00\n        /* \"#utility.yul\":14817:14819   */\n      0x40\n        /* \"#utility.yul\":14806:14815   */\n      dup3\n        /* \"#utility.yul\":14802:14820   */\n      add\n        /* \"#utility.yul\":14794:14820   */\n      swap1\n      pop\n        /* \"#utility.yul\":14830:14901   */\n      tag_469\n        /* \"#utility.yul\":14898:14899   */\n      0x00\n        /* \"#utility.yul\":14887:14896   */\n      dup4\n        /* \"#utility.yul\":14883:14900   */\n      add\n        /* \"#utility.yul\":14874:14880   */\n      dup6\n        /* \"#utility.yul\":14830:14901   */\n      tag_262\n      jump\t// in\n    tag_469:\n        /* \"#utility.yul\":14911:14982   */\n      tag_470\n        /* \"#utility.yul\":14978:14980   */\n      0x20\n        /* \"#utility.yul\":14967:14976   */\n      dup4\n        /* \"#utility.yul\":14963:14981   */\n      add\n        /* \"#utility.yul\":14954:14960   */\n      dup5\n        /* \"#utility.yul\":14911:14982   */\n      tag_292\n      jump\t// in\n    tag_470:\n        /* \"#utility.yul\":14659:14989   */\n      swap4\n      swap3\n      pop\n      pop\n      pop\n      jump\t// out\n        /* \"#utility.yul\":14995:15435   */\n    tag_107:\n        /* \"#utility.yul\":15143:15147   */\n      0x00\n        /* \"#utility.yul\":15181:15183   */\n      0x60\n        /* \"#utility.yul\":15170:15179   */\n      dup3\n        /* \"#utility.yul\":15166:15184   */\n      add\n        /* \"#utility.yul\":15158:15184   */\n      swap1\n      pop\n        /* \"#utility.yul\":15194:15265   */\n      tag_472\n        /* \"#utility.yul\":15262:15263   */\n      0x00\n        /* \"#utility.yul\":15251:15260   */\n      dup4\n        /* \"#utility.yul\":15247:15264   */\n      add\n        /* \"#utility.yul\":15238:15244   */\n      dup7\n        /* \"#utility.yul\":15194:15265   */\n      tag_262\n      jump\t// in\n    tag_472:\n        /* \"#utility.yul\":15275:15346   */\n      tag_473\n        /* \"#utility.yul\":15342:15344   */\n      0x20\n        /* \"#utility.yul\":15331:15340   */\n      dup4\n        /* \"#utility.yul\":15327:15345   */\n      add\n        /* \"#utility.yul\":15318:15324   */\n      dup6\n        /* \"#utility.yul\":15275:15346   */\n      tag_292\n      jump\t// in\n    tag_473:\n        /* \"#utility.yul\":15356:15428   */\n      tag_474\n        /* \"#utility.yul\":15424:15426   */\n      0x40\n        /* \"#utility.yul\":15413:15422   */\n      dup4\n        /* \"#utility.yul\":15409:15427   */\n      add\n        /* \"#utility.yul\":15400:15406   */\n      dup5\n        /* \"#utility.yul\":15356:15428   */\n      tag_262\n      jump\t// in\n    tag_474:\n        /* \"#utility.yul\":14995:15435   */\n      swap5\n      swap4\n      pop\n      pop\n      pop\n      pop\n      jump\t// out\n        /* \"#utility.yul\":15441:15623   */\n    tag_293:\n        /* \"#utility.yul\":15581:15615   */\n      0x54686520696e70757420616464726573732063616e6e6f74206265207a65726f\n        /* \"#utility.yul\":15577:15578   */\n      0x00\n        /* \"#utility.yul\":15569:15575   */\n      dup3\n        /* \"#utility.yul\":15565:15579   */\n      add\n        /* \"#utility.yul\":15558:15616   */\n      mstore\n        /* \"#utility.yul\":15441:15623   */\n      pop\n      jump\t// out\n        /* \"#utility.yul\":15629:15995   */\n    tag_294:\n        /* \"#utility.yul\":15771:15774   */\n      0x00\n        /* \"#utility.yul\":15792:15859   */\n      tag_477\n        /* \"#utility.yul\":15856:15858   */\n      0x20\n        /* \"#utility.yul\":15851:15854   */\n      dup4\n        /* \"#utility.yul\":15792:15859   */\n      tag_283\n      jump\t// in\n    tag_477:\n        /* \"#utility.yul\":15785:15859   */\n      swap2\n      pop\n        /* \"#utility.yul\":15868:15961   */\n      tag_478\n        /* \"#utility.yul\":15957:15960   */\n      dup3\n        /* \"#utility.yul\":15868:15961   */\n      tag_293\n      jump\t// in\n    tag_478:\n        /* \"#utility.yul\":15986:15988   */\n      0x20\n        /* \"#utility.yul\":15981:15984   */\n      dup3\n        /* \"#utility.yul\":15977:15989   */\n      add\n        /* \"#utility.yul\":15970:15989   */\n      swap1\n      pop\n        /* \"#utility.yul\":15629:15995   */\n      swap2\n      swap1\n      pop\n      jump\t// out\n        /* \"#utility.yul\":16001:16420   */\n    tag_115:\n        /* \"#utility.yul\":16167:16171   */\n      0x00\n        /* \"#utility.yul\":16205:16207   */\n      0x20\n        /* \"#utility.yul\":16194:16203   */\n      dup3\n        /* \"#utility.yul\":16190:16208   */\n      add\n        /* \"#utility.yul\":16182:16208   */\n      swap1\n      pop\n        /* \"#utility.yul\":16254:16263   */\n      dup2\n        /* \"#utility.yul\":16248:16252   */\n      dup2\n        /* \"#utility.yul\":16244:16264   */\n      sub\n        /* \"#utility.yul\":16240:16241   */\n      0x00\n        /* \"#utility.yul\":16229:16238   */\n      dup4\n        /* \"#utility.yul\":16225:16242   */\n      add\n        /* \"#utility.yul\":16218:16265   */\n      mstore\n        /* \"#utility.yul\":16282:16413   */\n      tag_480\n        /* \"#utility.yul\":16408:16412   */\n      dup2\n        /* \"#utility.yul\":16282:16413   */\n      tag_294\n      jump\t// in\n    tag_480:\n        /* \"#utility.yul\":16274:16413   */\n      swap1\n      pop\n        /* \"#utility.yul\":16001:16420   */\n      swap2\n      swap1\n      pop\n      jump\t// out\n        /* \"#utility.yul\":16426:16672   */\n    tag_295:\n        /* \"#utility.yul\":16566:16600   */\n      0x5468652061646472657373206f6620746865206f776e657220616e6420746865\n        /* \"#utility.yul\":16562:16563   */\n      0x00\n        /* \"#utility.yul\":16554:16560   */\n      dup3\n        /* \"#utility.yul\":16550:16564   */\n      add\n        /* \"#utility.yul\":16543:16601   */\n      mstore\n        /* \"#utility.yul\":16635:16664   */\n      0x206f70657261746f72206d75737420626520646966666572656e740000000000\n        /* \"#utility.yul\":16630:16632   */\n      0x20\n        /* \"#utility.yul\":16622:16628   */\n      dup3\n        /* \"#utility.yul\":16618:16633   */\n      add\n        /* \"#utility.yul\":16611:16665   */\n      mstore\n        /* \"#utility.yul\":16426:16672   */\n      pop\n      jump\t// out\n        /* \"#utility.yul\":16678:17044   */\n    tag_296:\n        /* \"#utility.yul\":16820:16823   */\n      0x00\n        /* \"#utility.yul\":16841:16908   */\n      tag_483\n        /* \"#utility.yul\":16905:16907   */\n      0x3b\n        /* \"#utility.yul\":16900:16903   */\n      dup4\n        /* \"#utility.yul\":16841:16908   */\n      tag_283\n      jump\t// in\n    tag_483:\n        /* \"#utility.yul\":16834:16908   */\n      swap2\n      pop\n        /* \"#utility.yul\":16917:17010   */\n      tag_484\n        /* \"#utility.yul\":17006:17009   */\n      dup3\n        /* \"#utility.yul\":16917:17010   */\n      tag_295\n      jump\t// in\n    tag_484:\n        /* \"#utility.yul\":17035:17037   */\n      0x40\n        /* \"#utility.yul\":17030:17033   */\n      dup3\n        /* \"#utility.yul\":17026:17038   */\n      add\n        /* \"#utility.yul\":17019:17038   */\n      swap1\n      pop\n        /* \"#utility.yul\":16678:17044   */\n      swap2\n      swap1\n      pop\n      jump\t// out\n        /* \"#utility.yul\":17050:17469   */\n    tag_128:\n        /* \"#utility.yul\":17216:17220   */\n      0x00\n        /* \"#utility.yul\":17254:17256   */\n      0x20\n        /* \"#utility.yul\":17243:17252   */\n      dup3\n        /* \"#utility.yul\":17239:17257   */\n      add\n        /* \"#utility.yul\":17231:17257   */\n      swap1\n      pop\n        /* \"#utility.yul\":17303:17312   */\n      dup2\n        /* \"#utility.yul\":17297:17301   */\n      dup2\n        /* \"#utility.yul\":17293:17313   */\n      sub\n        /* \"#utility.yul\":17289:17290   */\n      0x00\n        /* \"#utility.yul\":17278:17287   */\n      dup4\n        /* \"#utility.yul\":17274:17291   */\n      add\n        /* \"#utility.yul\":17267:17314   */\n      mstore\n        /* \"#utility.yul\":17331:17462   */\n      tag_486\n        /* \"#utility.yul\":17457:17461   */\n      dup2\n        /* \"#utility.yul\":17331:17462   */\n      tag_296\n      jump\t// in\n    tag_486:\n        /* \"#utility.yul\":17323:17462   */\n      swap1\n      pop\n        /* \"#utility.yul\":17050:17469   */\n      swap2\n      swap1\n      pop\n      jump\t// out\n        /* \"#utility.yul\":17475:17623   */\n    tag_297:\n        /* \"#utility.yul\":17577:17588   */\n      0x00\n        /* \"#utility.yul\":17614:17617   */\n      dup2\n        /* \"#utility.yul\":17599:17617   */\n      swap1\n      pop\n        /* \"#utility.yul\":17475:17623   */\n      swap3\n      swap2\n      pop\n      pop\n      jump\t// out\n        /* \"#utility.yul\":17629:18019   */\n    tag_298:\n        /* \"#utility.yul\":17735:17738   */\n      0x00\n        /* \"#utility.yul\":17763:17802   */\n      tag_489\n        /* \"#utility.yul\":17796:17801   */\n      dup3\n        /* \"#utility.yul\":17763:17802   */\n      tag_282\n      jump\t// in\n    tag_489:\n        /* \"#utility.yul\":17818:17907   */\n      tag_490\n        /* \"#utility.yul\":17900:17906   */\n      dup2\n        /* \"#utility.yul\":17895:17898   */\n      dup6\n        /* \"#utility.yul\":17818:17907   */\n      tag_297\n      jump\t// in\n    tag_490:\n        /* \"#utility.yul\":17811:17907   */\n      swap4\n      pop\n        /* \"#utility.yul\":17916:17981   */\n      tag_491\n        /* \"#utility.yul\":17974:17980   */\n      dup2\n        /* \"#utility.yul\":17969:17972   */\n      dup6\n        /* \"#utility.yul\":17962:17966   */\n      0x20\n        /* \"#utility.yul\":17955:17960   */\n      dup7\n        /* \"#utility.yul\":17951:17967   */\n      add\n        /* \"#utility.yul\":17916:17981   */\n      tag_284\n      jump\t// in\n    tag_491:\n        /* \"#utility.yul\":18006:18012   */\n      dup1\n        /* \"#utility.yul\":18001:18004   */\n      dup5\n        /* \"#utility.yul\":17997:18013   */\n      add\n        /* \"#utility.yul\":17990:18013   */\n      swap2\n      pop\n        /* \"#utility.yul\":17739:18019   */\n      pop\n        /* \"#utility.yul\":17629:18019   */\n      swap3\n      swap2\n      pop\n      pop\n      jump\t// out\n        /* \"#utility.yul\":18025:18460   */\n    tag_148:\n        /* \"#utility.yul\":18205:18208   */\n      0x00\n        /* \"#utility.yul\":18227:18322   */\n      tag_493\n        /* \"#utility.yul\":18318:18321   */\n      dup3\n        /* \"#utility.yul\":18309:18315   */\n      dup6\n        /* \"#utility.yul\":18227:18322   */\n      tag_298\n      jump\t// in\n    tag_493:\n        /* \"#utility.yul\":18220:18322   */\n      swap2\n      pop\n        /* \"#utility.yul\":18339:18434   */\n      tag_494\n        /* \"#utility.yul\":18430:18433   */\n      dup3\n        /* \"#utility.yul\":18421:18427   */\n      dup5\n        /* \"#utility.yul\":18339:18434   */\n      tag_298\n      jump\t// in\n    tag_494:\n        /* \"#utility.yul\":18332:18434   */\n      swap2\n      pop\n        /* \"#utility.yul\":18451:18454   */\n      dup2\n        /* \"#utility.yul\":18444:18454   */\n      swap1\n      pop\n        /* \"#utility.yul\":18025:18460   */\n      swap4\n      swap3\n      pop\n      pop\n      pop\n      jump\t// out\n        /* \"#utility.yul\":18466:18769   */\n    tag_299:\n        /* \"#utility.yul\":18606:18640   */\n      0x54686520494420656e746572656420697320696e76616c69642e204974206d75\n        /* \"#utility.yul\":18602:18603   */\n      0x00\n        /* \"#utility.yul\":18594:18600   */\n      dup3\n        /* \"#utility.yul\":18590:18604   */\n      add\n        /* \"#utility.yul\":18583:18641   */\n      mstore\n        /* \"#utility.yul\":18675:18709   */\n      0x737420626520696e207468697320696e74657276616c2030203c206964203c3d\n        /* \"#utility.yul\":18670:18672   */\n      0x20\n        /* \"#utility.yul\":18662:18668   */\n      dup3\n        /* \"#utility.yul\":18658:18673   */\n      add\n        /* \"#utility.yul\":18651:18710   */\n      mstore\n        /* \"#utility.yul\":18744:18761   */\n      0x2063757272656e7420746f6b656e730000000000000000000000000000000000\n        /* \"#utility.yul\":18739:18741   */\n      0x40\n        /* \"#utility.yul\":18731:18737   */\n      dup3\n        /* \"#utility.yul\":18727:18742   */\n      add\n        /* \"#utility.yul\":18720:18762   */\n      mstore\n        /* \"#utility.yul\":18466:18769   */\n      pop\n      jump\t// out\n        /* \"#utility.yul\":18775:19141   */\n    tag_300:\n        /* \"#utility.yul\":18917:18920   */\n      0x00\n        /* \"#utility.yul\":18938:19005   */\n      tag_497\n        /* \"#utility.yul\":19002:19004   */\n      0x4f\n        /* \"#utility.yul\":18997:19000   */\n      dup4\n        /* \"#utility.yul\":18938:19005   */\n      tag_283\n      jump\t// in\n    tag_497:\n        /* \"#utility.yul\":18931:19005   */\n      swap2\n      pop\n        /* \"#utility.yul\":19014:19107   */\n      tag_498\n        /* \"#utility.yul\":19103:19106   */\n      dup3\n        /* \"#utility.yul\":19014:19107   */\n      tag_299\n      jump\t// in\n    tag_498:\n        /* \"#utility.yul\":19132:19134   */\n      0x60\n        /* \"#utility.yul\":19127:19130   */\n      dup3\n        /* \"#utility.yul\":19123:19135   */\n      add\n        /* \"#utility.yul\":19116:19135   */\n      swap1\n      pop\n        /* \"#utility.yul\":18775:19141   */\n      swap2\n      swap1\n      pop\n      jump\t// out\n        /* \"#utility.yul\":19147:19566   */\n    tag_166:\n        /* \"#utility.yul\":19313:19317   */\n      0x00\n        /* \"#utility.yul\":19351:19353   */\n      0x20\n        /* \"#utility.yul\":19340:19349   */\n      dup3\n        /* \"#utility.yul\":19336:19354   */\n      add\n        /* \"#utility.yul\":19328:19354   */\n      swap1\n      pop\n        /* \"#utility.yul\":19400:19409   */\n      dup2\n        /* \"#utility.yul\":19394:19398   */\n      dup2\n        /* \"#utility.yul\":19390:19410   */\n      sub\n        /* \"#utility.yul\":19386:19387   */\n      0x00\n        /* \"#utility.yul\":19375:19384   */\n      dup4\n        /* \"#utility.yul\":19371:19388   */\n      add\n        /* \"#utility.yul\":19364:19411   */\n      mstore\n        /* \"#utility.yul\":19428:19559   */\n      tag_500\n        /* \"#utility.yul\":19554:19558   */\n      dup2\n        /* \"#utility.yul\":19428:19559   */\n      tag_300\n      jump\t// in\n    tag_500:\n        /* \"#utility.yul\":19420:19559   */\n      swap1\n      pop\n        /* \"#utility.yul\":19147:19566   */\n      swap2\n      swap1\n      pop\n      jump\t// out\n        /* \"#utility.yul\":19572:19752   */\n    tag_301:\n        /* \"#utility.yul\":19620:19697   */\n      0x4e487b7100000000000000000000000000000000000000000000000000000000\n        /* \"#utility.yul\":19617:19618   */\n      0x00\n        /* \"#utility.yul\":19610:19698   */\n      mstore\n        /* \"#utility.yul\":19717:19721   */\n      0x11\n        /* \"#utility.yul\":19714:19715   */\n      0x04\n        /* \"#utility.yul\":19707:19722   */\n      mstore\n        /* \"#utility.yul\":19741:19745   */\n      0x24\n        /* \"#utility.yul\":19738:19739   */\n      0x00\n        /* \"#utility.yul\":19731:19746   */\n      revert\n        /* \"#utility.yul\":19758:19929   */\n    tag_194:\n        /* \"#utility.yul\":19796:19799   */\n      0x00\n        /* \"#utility.yul\":19819:19842   */\n      tag_503\n        /* \"#utility.yul\":19836:19841   */\n      dup3\n        /* \"#utility.yul\":19819:19842   */\n      tag_258\n      jump\t// in\n    tag_503:\n        /* \"#utility.yul\":19810:19842   */\n      swap2\n      pop\n        /* \"#utility.yul\":19864:19870   */\n      0xffff\n        /* \"#utility.yul\":19857:19862   */\n      dup3\n        /* \"#utility.yul\":19854:19871   */\n      sub\n        /* \"#utility.yul\":19851:19894   */\n      tag_504\n      jumpi\n        /* \"#utility.yul\":19874:19892   */\n      tag_505\n      tag_301\n      jump\t// in\n    tag_505:\n        /* \"#utility.yul\":19851:19894   */\n    tag_504:\n        /* \"#utility.yul\":19921:19922   */\n      0x01\n        /* \"#utility.yul\":19914:19919   */\n      dup3\n        /* \"#utility.yul\":19910:19923   */\n      add\n        /* \"#utility.yul\":19903:19923   */\n      swap1\n      pop\n        /* \"#utility.yul\":19758:19929   */\n      swap2\n      swap1\n      pop\n      jump\t// out\n        /* \"#utility.yul\":19935:20033   */\n    tag_302:\n        /* \"#utility.yul\":19986:19992   */\n      0x00\n        /* \"#utility.yul\":20020:20025   */\n      dup2\n        /* \"#utility.yul\":20014:20026   */\n      mload\n        /* \"#utility.yul\":20004:20026   */\n      swap1\n      pop\n        /* \"#utility.yul\":19935:20033   */\n      swap2\n      swap1\n      pop\n      jump\t// out\n        /* \"#utility.yul\":20039:20207   */\n    tag_303:\n        /* \"#utility.yul\":20122:20133   */\n      0x00\n        /* \"#utility.yul\":20156:20162   */\n      dup3\n        /* \"#utility.yul\":20151:20154   */\n      dup3\n        /* \"#utility.yul\":20144:20163   */\n      mstore\n        /* \"#utility.yul\":20196:20200   */\n      0x20\n        /* \"#utility.yul\":20191:20194   */\n      dup3\n        /* \"#utility.yul\":20187:20201   */\n      add\n        /* \"#utility.yul\":20172:20201   */\n      swap1\n      pop\n        /* \"#utility.yul\":20039:20207   */\n      swap3\n      swap2\n      pop\n      pop\n      jump\t// out\n        /* \"#utility.yul\":20213:20586   */\n    tag_304:\n        /* \"#utility.yul\":20299:20302   */\n      0x00\n        /* \"#utility.yul\":20327:20365   */\n      tag_509\n        /* \"#utility.yul\":20359:20364   */\n      dup3\n        /* \"#utility.yul\":20327:20365   */\n      tag_302\n      jump\t// in\n    tag_509:\n        /* \"#utility.yul\":20381:20451   */\n      tag_510\n        /* \"#utility.yul\":20444:20450   */\n      dup2\n        /* \"#utility.yul\":20439:20442   */\n      dup6\n        /* \"#utility.yul\":20381:20451   */\n      tag_303\n      jump\t// in\n    tag_510:\n        /* \"#utility.yul\":20374:20451   */\n      swap4\n      pop\n        /* \"#utility.yul\":20460:20525   */\n      tag_511\n        /* \"#utility.yul\":20518:20524   */\n      dup2\n        /* \"#utility.yul\":20513:20516   */\n      dup6\n        /* \"#utility.yul\":20506:20510   */\n      0x20\n        /* \"#utility.yul\":20499:20504   */\n      dup7\n        /* \"#utility.yul\":20495:20511   */\n      add\n        /* \"#utility.yul\":20460:20525   */\n      tag_284\n      jump\t// in\n    tag_511:\n        /* \"#utility.yul\":20550:20579   */\n      tag_512\n        /* \"#utility.yul\":20572:20578   */\n      dup2\n        /* \"#utility.yul\":20550:20579   */\n      tag_270\n      jump\t// in\n    tag_512:\n        /* \"#utility.yul\":20545:20548   */\n      dup5\n        /* \"#utility.yul\":20541:20580   */\n      add\n        /* \"#utility.yul\":20534:20580   */\n      swap2\n      pop\n        /* \"#utility.yul\":20303:20586   */\n      pop\n        /* \"#utility.yul\":20213:20586   */\n      swap3\n      swap2\n      pop\n      pop\n      jump\t// out\n        /* \"#utility.yul\":20592:21228   */\n    tag_199:\n        /* \"#utility.yul\":20785:20789   */\n      0x00\n        /* \"#utility.yul\":20823:20826   */\n      0x80\n        /* \"#utility.yul\":20812:20821   */\n      dup3\n        /* \"#utility.yul\":20808:20827   */\n      add\n        /* \"#utility.yul\":20800:20827   */\n      swap1\n      pop\n        /* \"#utility.yul\":20837:20908   */\n      tag_514\n        /* \"#utility.yul\":20905:20906   */\n      0x00\n        /* \"#utility.yul\":20894:20903   */\n      dup4\n        /* \"#utility.yul\":20890:20907   */\n      add\n        /* \"#utility.yul\":20881:20887   */\n      dup8\n        /* \"#utility.yul\":20837:20908   */\n      tag_262\n      jump\t// in\n    tag_514:\n        /* \"#utility.yul\":20918:20990   */\n      tag_515\n        /* \"#utility.yul\":20986:20988   */\n      0x20\n        /* \"#utility.yul\":20975:20984   */\n      dup4\n        /* \"#utility.yul\":20971:20989   */\n      add\n        /* \"#utility.yul\":20962:20968   */\n      dup7\n        /* \"#utility.yul\":20918:20990   */\n      tag_262\n      jump\t// in\n    tag_515:\n        /* \"#utility.yul\":21000:21070   */\n      tag_516\n        /* \"#utility.yul\":21066:21068   */\n      0x40\n        /* \"#utility.yul\":21055:21064   */\n      dup4\n        /* \"#utility.yul\":21051:21069   */\n      add\n        /* \"#utility.yul\":21042:21048   */\n      dup6\n        /* \"#utility.yul\":21000:21070   */\n      tag_261\n      jump\t// in\n    tag_516:\n        /* \"#utility.yul\":21117:21126   */\n      dup2\n        /* \"#utility.yul\":21111:21115   */\n      dup2\n        /* \"#utility.yul\":21107:21127   */\n      sub\n        /* \"#utility.yul\":21102:21104   */\n      0x60\n        /* \"#utility.yul\":21091:21100   */\n      dup4\n        /* \"#utility.yul\":21087:21105   */\n      add\n        /* \"#utility.yul\":21080:21128   */\n      mstore\n        /* \"#utility.yul\":21145:21221   */\n      tag_517\n        /* \"#utility.yul\":21216:21220   */\n      dup2\n        /* \"#utility.yul\":21207:21213   */\n      dup5\n        /* \"#utility.yul\":21145:21221   */\n      tag_304\n      jump\t// in\n    tag_517:\n        /* \"#utility.yul\":21137:21221   */\n      swap1\n      pop\n        /* \"#utility.yul\":20592:21228   */\n      swap6\n      swap5\n      pop\n      pop\n      pop\n      pop\n      pop\n      jump\t// out\n        /* \"#utility.yul\":21234:21354   */\n    tag_305:\n        /* \"#utility.yul\":21306:21329   */\n      tag_519\n        /* \"#utility.yul\":21323:21328   */\n      dup2\n        /* \"#utility.yul\":21306:21329   */\n      tag_280\n      jump\t// in\n    tag_519:\n        /* \"#utility.yul\":21299:21304   */\n      dup2\n        /* \"#utility.yul\":21296:21330   */\n      eq\n        /* \"#utility.yul\":21286:21348   */\n      tag_520\n      jumpi\n        /* \"#utility.yul\":21344:21345   */\n      0x00\n        /* \"#utility.yul\":21341:21342   */\n      dup1\n        /* \"#utility.yul\":21334:21346   */\n      revert\n        /* \"#utility.yul\":21286:21348   */\n    tag_520:\n        /* \"#utility.yul\":21234:21354   */\n      pop\n      jump\t// out\n        /* \"#utility.yul\":21360:21501   */\n    tag_306:\n        /* \"#utility.yul\":21416:21421   */\n      0x00\n        /* \"#utility.yul\":21447:21453   */\n      dup2\n        /* \"#utility.yul\":21441:21454   */\n      mload\n        /* \"#utility.yul\":21432:21454   */\n      swap1\n      pop\n        /* \"#utility.yul\":21463:21495   */\n      tag_522\n        /* \"#utility.yul\":21489:21494   */\n      dup2\n        /* \"#utility.yul\":21463:21495   */\n      tag_305\n      jump\t// in\n    tag_522:\n        /* \"#utility.yul\":21360:21501   */\n      swap3\n      swap2\n      pop\n      pop\n      jump\t// out\n        /* \"#utility.yul\":21507:21856   */\n    tag_202:\n        /* \"#utility.yul\":21576:21582   */\n      0x00\n        /* \"#utility.yul\":21625:21627   */\n      0x20\n        /* \"#utility.yul\":21613:21622   */\n      dup3\n        /* \"#utility.yul\":21604:21611   */\n      dup5\n        /* \"#utility.yul\":21600:21623   */\n      sub\n        /* \"#utility.yul\":21596:21628   */\n      slt\n        /* \"#utility.yul\":21593:21712   */\n      iszero\n      tag_524\n      jumpi\n        /* \"#utility.yul\":21631:21710   */\n      tag_525\n      tag_252\n      jump\t// in\n    tag_525:\n        /* \"#utility.yul\":21593:21712   */\n    tag_524:\n        /* \"#utility.yul\":21751:21752   */\n      0x00\n        /* \"#utility.yul\":21776:21839   */\n      tag_526\n        /* \"#utility.yul\":21831:21838   */\n      dup5\n        /* \"#utility.yul\":21822:21828   */\n      dup3\n        /* \"#utility.yul\":21811:21820   */\n      dup6\n        /* \"#utility.yul\":21807:21829   */\n      add\n        /* \"#utility.yul\":21776:21839   */\n      tag_306\n      jump\t// in\n    tag_526:\n        /* \"#utility.yul\":21766:21839   */\n      swap2\n      pop\n        /* \"#utility.yul\":21722:21849   */\n      pop\n        /* \"#utility.yul\":21507:21856   */\n      swap3\n      swap2\n      pop\n      pop\n      jump\t// out\n        /* \"#utility.yul\":21862:22042   */\n    tag_227:\n        /* \"#utility.yul\":21910:21987   */\n      0x4e487b7100000000000000000000000000000000000000000000000000000000\n        /* \"#utility.yul\":21907:21908   */\n      0x00\n        /* \"#utility.yul\":21900:21988   */\n      mstore\n        /* \"#utility.yul\":22007:22011   */\n      0x12\n        /* \"#utility.yul\":22004:22005   */\n      0x04\n        /* \"#utility.yul\":21997:22012   */\n      mstore\n        /* \"#utility.yul\":22031:22035   */\n      0x24\n        /* \"#utility.yul\":22028:22029   */\n      0x00\n        /* \"#utility.yul\":22021:22036   */\n      revert\n\n    auxdata: 0xa2646970667358221220fe64ada3e496a09c08715ebce06e9a2c9a7720dee2dd729cdb6fc08dde5d165664736f6c63430008140033\n}\n",
				"bytecode": {
					"linkReferences": {},
					"object": "608060405234801562000010575f80fd5b506040516200205238038062002052833981810160405281019062000036919062000145565b815f806101000a81548173ffffffffffffffffffffffffffffffffffffffff021916908360601c0217905550805f60146101000a81548169ffffffffffffffffffff021916908360b01c021790555050506200018a565b5f80fd5b5f7fffffffffffffffffffffffffffffffffffffffff00000000000000000000000082169050919050565b620000c78162000091565b8114620000d2575f80fd5b50565b5f81519050620000e581620000bc565b92915050565b5f7fffffffffffffffffffff0000000000000000000000000000000000000000000082169050919050565b6200012181620000eb565b81146200012c575f80fd5b50565b5f815190506200013f8162000116565b92915050565b5f80604083850312156200015e576200015d6200008d565b5b5f6200016d85828601620000d5565b925050602062000180858286016200012f565b9150509250929050565b611eba80620001985f395ff3fe608060405234801561000f575f80fd5b50600436106100cd575f3560e01c806395d89b411161008a578063b1cff38011610064578063b1cff3801461020d578063dd7d84401461023d578063e560ca431461026d578063e985e9c514610289576100cd565b806395d89b41146101b7578063a22cb465146101d5578063b145ae31146101f1576100cd565b806306fdde03146100d157806307394401146100ef5780634ec3dcfe1461010b57806370a082311461012757806382a7cf1e1461015757806393b871f214610187575b5f80fd5b6100d96102b9565b6040516100e6919061130b565b60405180910390f35b610109600480360381019061010491906113c6565b6102cd565b005b610125600480360381019061012091906113c6565b6102ec565b005b610141600480360381019061013c9190611416565b610546565b60405161014e9190611450565b60405180910390f35b610171600480360381019061016c9190611469565b610627565b60405161017e91906114a3565b60405180910390f35b6101a1600480360381019061019c9190611469565b610638565b6040516101ae91906114a3565b60405180910390f35b6101bf610684565b6040516101cc91906114f6565b60405180910390f35b6101ef60048036038101906101ea9190611544565b610699565b005b61020b600480360381019061020691906116be565b610885565b005b6102276004803603810190610222919061179b565b6108a2565b6040516102349190611859565b60405180910390f35b61025760048036038101906102529190611469565b6108ac565b60405161026491906118ec565b60405180910390f35b6102876004803603810190610282919061190c565b610916565b005b6102a3600480360381019061029e919061194a565b610a3a565b6040516102b09190611997565b60405180910390f35b5f805f9054906101000a900460601b905090565b6102e783838360405180602001604052805f815250610885565b505050565b5f73ffffffffffffffffffffffffffffffffffffffff168273ffffffffffffffffffffffffffffffffffffffff160361035c575f6040517f64a0ae9200000000000000000000000000000000000000000000000000000000815260040161035391906114a3565b60405180910390fd5b5f61036682610ac9565b90506104b38261ffff166104b18110610382576103816119b0565b5b602091828204019190069054906101000a900460ff16156103d8576040517f08c379a00000000000000000000000000000000000000000000000000000000081526004016103cf90611a4d565b60405180910390fd5b8073ffffffffffffffffffffffffffffffffffffffff166103f7610b77565b73ffffffffffffffffffffffffffffffffffffffff161480610426575061042581610420610b77565b610a3a565b5b8061046b5750610434610b77565b73ffffffffffffffffffffffffffffffffffffffff1661045383610638565b73ffffffffffffffffffffffffffffffffffffffff16145b6104b557610477610b77565b826040517f177e802f0000000000000000000000000000000000000000000000000000000081526004016104ac929190611aad565b60405180910390fd5b8373ffffffffffffffffffffffffffffffffffffffff168173ffffffffffffffffffffffffffffffffffffffff1614610529578382826040517f64283d7b00000000000000000000000000000000000000000000000000000000815260040161052093929190611ad4565b60405180910390fd5b6105345f8383610b7e565b61053f838383610c3a565b5050505050565b5f8073ffffffffffffffffffffffffffffffffffffffff168273ffffffffffffffffffffffffffffffffffffffff16036105b5576040517f08c379a00000000000000000000000000000000000000000000000000000000081526004016105ac90611b53565b60405180910390fd5b6104d95f8373ffffffffffffffffffffffffffffffffffffffff1673ffffffffffffffffffffffffffffffffffffffff1681526020019081526020015f205f6104b18110610606576106056119b0565b5b601091828204019190066002029054906101000a900461ffff169050919050565b5f61063182610ac9565b9050919050565b5f61064282610ac9565b506104da5f8361ffff1661ffff1681526020019081526020015f205f9054906101000a900473ffffffffffffffffffffffffffffffffffffffff169050919050565b5f8060149054906101000a900460b01b905090565b8173ffffffffffffffffffffffffffffffffffffffff166106b8610b77565b73ffffffffffffffffffffffffffffffffffffffff160361070e576040517f08c379a000000000000000000000000000000000000000000000000000000000815260040161070590611be1565b60405180910390fd5b5f73ffffffffffffffffffffffffffffffffffffffff168273ffffffffffffffffffffffffffffffffffffffff160361077e57816040517f5b08ba1800000000000000000000000000000000000000000000000000000000815260040161077591906114a3565b60405180910390fd5b806104db5f61078b610b77565b73ffffffffffffffffffffffffffffffffffffffff1673ffffffffffffffffffffffffffffffffffffffff1681526020019081526020015f205f8473ffffffffffffffffffffffffffffffffffffffff1673ffffffffffffffffffffffffffffffffffffffff1681526020019081526020015f205f6101000a81548160ff0219169083151502179055508173ffffffffffffffffffffffffffffffffffffffff16610834610b77565b73ffffffffffffffffffffffffffffffffffffffff167f17307eab39ab6107e8899845ad3d59bd9653f200f220920489ca2b5937696c31836040516108799190611997565b60405180910390a35050565b6108908484846102ec565b61089c84848484610eee565b50505050565b5f95945050505050565b60606108b782610ac9565b505f6108c16110a0565b90505f8151116108df5760405180602001604052805f81525061090e565b806108ed8461ffff166110b6565b6040516020016108fe929190611c39565b6040516020818303038152906040525b915050919050565b5f61092082610ac9565b90508273ffffffffffffffffffffffffffffffffffffffff168173ffffffffffffffffffffffffffffffffffffffff1603610990576040517f08c379a000000000000000000000000000000000000000000000000000000000815260040161098790611be1565b60405180910390fd5b610998610b77565b73ffffffffffffffffffffffffffffffffffffffff168173ffffffffffffffffffffffffffffffffffffffff16141580156109e157506109df816109da610b77565b610a3a565b155b15610a2a576109ee610b77565b6040517fa9fbf51f000000000000000000000000000000000000000000000000000000008152600401610a2191906114a3565b60405180910390fd5b610a35838383610b7e565b505050565b5f6104db5f8473ffffffffffffffffffffffffffffffffffffffff1673ffffffffffffffffffffffffffffffffffffffff1681526020019081526020015f205f8373ffffffffffffffffffffffffffffffffffffffff1673ffffffffffffffffffffffffffffffffffffffff1681526020019081526020015f205f9054906101000a900460ff16905092915050565b5f8161ffff165f108015610af7575060015f0160029054906101000a900461ffff1661ffff168261ffff1611155b610b36576040517f08c379a0000000000000000000000000000000000000000000000000000000008152600401610b2d90611cf2565b60405180910390fd5b60028261ffff166104b18110610b4f57610b4e6119b0565b5b015f9054906101000a900473ffffffffffffffffffffffffffffffffffffffff169050919050565b5f33905090565b826104da5f8461ffff1661ffff1681526020019081526020015f205f6101000a81548173ffffffffffffffffffffffffffffffffffffffff021916908373ffffffffffffffffffffffffffffffffffffffff1602179055508161ffff168373ffffffffffffffffffffffffffffffffffffffff168273ffffffffffffffffffffffffffffffffffffffff167f0a9d294fd4bd42bb30e96cba2b478d149a783fba3c729b1e5c42bec89d95b85a60405160405180910390a4505050565b5f8073ffffffffffffffffffffffffffffffffffffffff168273ffffffffffffffffffffffffffffffffffffffff1614610ee7575f6104d95f8473ffffffffffffffffffffffffffffffffffffffff1673ffffffffffffffffffffffffffffffffffffffff1681526020019081526020015f205f6104b18110610cc057610cbf6119b0565b5b601091828204019190066002029054906101000a900461ffff1690505f5b8161ffff168161ffff1611610ee4578461ffff166104d95f8673ffffffffffffffffffffffffffffffffffffffff1673ffffffffffffffffffffffffffffffffffffffff1681526020019081526020015f208261ffff166104b18110610d4757610d466119b0565b5b601091828204019190066002029054906101000a900461ffff1661ffff1603610ed3576104d95f8573ffffffffffffffffffffffffffffffffffffffff1673ffffffffffffffffffffffffffffffffffffffff1681526020019081526020015f208261ffff166104b18110610dbf57610dbe6119b0565b5b601091828204019190066002029054906101000a900461ffff166104d95f8673ffffffffffffffffffffffffffffffffffffffff1673ffffffffffffffffffffffffffffffffffffffff1681526020019081526020015f208261ffff166104b18110610e2e57610e2d6119b0565b5b601091828204019190066002026101000a81548161ffff021916908361ffff1602179055505f6104d95f8673ffffffffffffffffffffffffffffffffffffffff1673ffffffffffffffffffffffffffffffffffffffff1681526020019081526020015f208361ffff166104b18110610ea957610ea86119b0565b5b601091828204019190066002026101000a81548161ffff021916908361ffff160217905550610ee4565b80610edd90611d3d565b9050610cde565b50505b9392505050565b5f8373ffffffffffffffffffffffffffffffffffffffff163b111561109a578273ffffffffffffffffffffffffffffffffffffffff1663b1cff380610f31610b77565b8685856040518563ffffffff1660e01b8152600401610f539493929190611db8565b6020604051808303815f875af1925050508015610f8e57506040513d601f19601f82011682018060405250810190610f8b9190611e2c565b60015b61100f573d805f8114610fbc576040519150601f19603f3d011682016040523d82523d5f602084013e610fc1565b606091505b505f81510361100757836040517f64a0ae92000000000000000000000000000000000000000000000000000000008152600401610ffe91906114a3565b60405180910390fd5b805181602001fd5b63b1cff38060e01b7bffffffffffffffffffffffffffffffffffffffffffffffffffffffff1916817bffffffffffffffffffffffffffffffffffffffffffffffffffffffff19161461109857836040517f64a0ae9200000000000000000000000000000000000000000000000000000000815260040161108f91906114a3565b60405180910390fd5b505b50505050565b606060405180602001604052805f815250905090565b60605f60016110c484611180565b0190505f8167ffffffffffffffff8111156110e2576110e161159a565b5b6040519080825280601f01601f1916602001820160405280156111145781602001600182028036833780820191505090505b5090505f82602001820190505b600115611175578080600190039150507f3031323334353637383961626364656600000000000000000000000000000000600a86061a8153600a858161116a57611169611e57565b5b0494505f8503611121575b819350505050919050565b5f805f90507a184f03e93ff9f4daa797ed6e38ed64bf6a1f01000000000000000083106111dc577a184f03e93ff9f4daa797ed6e38ed64bf6a1f01000000000000000083816111d2576111d1611e57565b5b0492506040810190505b6d04ee2d6d415b85acef81000000008310611219576d04ee2d6d415b85acef8100000000838161120f5761120e611e57565b5b0492506020810190505b662386f26fc10000831061124857662386f26fc10000838161123e5761123d611e57565b5b0492506010810190505b6305f5e1008310611271576305f5e100838161126757611266611e57565b5b0492506008810190505b612710831061129657612710838161128c5761128b611e57565b5b0492506004810190505b606483106112b957606483816112af576112ae611e57565b5b0492506002810190505b600a83106112c8576001810190505b80915050919050565b5f7fffffffffffffffffffffffffffffffffffffffff00000000000000000000000082169050919050565b611305816112d1565b82525050565b5f60208201905061131e5f8301846112fc565b92915050565b5f604051905090565b5f80fd5b5f80fd5b5f73ffffffffffffffffffffffffffffffffffffffff82169050919050565b5f61135e82611335565b9050919050565b61136e81611354565b8114611378575f80fd5b50565b5f8135905061138981611365565b92915050565b5f61ffff82169050919050565b6113a58161138f565b81146113af575f80fd5b50565b5f813590506113c08161139c565b92915050565b5f805f606084860312156113dd576113dc61132d565b5b5f6113ea8682870161137b565b93505060206113fb8682870161137b565b925050604061140c868287016113b2565b9150509250925092565b5f6020828403121561142b5761142a61132d565b5b5f6114388482850161137b565b91505092915050565b61144a8161138f565b82525050565b5f6020820190506114635f830184611441565b92915050565b5f6020828403121561147e5761147d61132d565b5b5f61148b848285016113b2565b91505092915050565b61149d81611354565b82525050565b5f6020820190506114b65f830184611494565b92915050565b5f7fffffffffffffffffffff0000000000000000000000000000000000000000000082169050919050565b6114f0816114bc565b82525050565b5f6020820190506115095f8301846114e7565b92915050565b5f8115159050919050565b6115238161150f565b811461152d575f80fd5b50565b5f8135905061153e8161151a565b92915050565b5f806040838503121561155a5761155961132d565b5b5f6115678582860161137b565b925050602061157885828601611530565b9150509250929050565b5f80fd5b5f80fd5b5f601f19601f8301169050919050565b7f4e487b71000000000000000000000000000000000000000000000000000000005f52604160045260245ffd5b6115d08261158a565b810181811067ffffffffffffffff821117156115ef576115ee61159a565b5b80604052505050565b5f611601611324565b905061160d82826115c7565b919050565b5f67ffffffffffffffff82111561162c5761162b61159a565b5b6116358261158a565b9050602081019050919050565b828183375f83830152505050565b5f61166261165d84611612565b6115f8565b90508281526020810184848401111561167e5761167d611586565b5b611689848285611642565b509392505050565b5f82601f8301126116a5576116a4611582565b5b81356116b5848260208601611650565b91505092915050565b5f805f80608085870312156116d6576116d561132d565b5b5f6116e38782880161137b565b94505060206116f48782880161137b565b9350506040611705878288016113b2565b925050606085013567ffffffffffffffff81111561172657611725611331565b5b61173287828801611691565b91505092959194509250565b5f80fd5b5f80fd5b5f8083601f84011261175b5761175a611582565b5b8235905067ffffffffffffffff8111156117785761177761173e565b5b60208301915083600182028301111561179457611793611742565b5b9250929050565b5f805f805f608086880312156117b4576117b361132d565b5b5f6117c18882890161137b565b95505060206117d28882890161137b565b94505060406117e3888289016113b2565b935050606086013567ffffffffffffffff81111561180457611803611331565b5b61181088828901611746565b92509250509295509295909350565b5f7fffffffff0000000000000000000000000000000000000000000000000000000082169050919050565b6118538161181f565b82525050565b5f60208201905061186c5f83018461184a565b92915050565b5f81519050919050565b5f82825260208201905092915050565b5f5b838110156118a957808201518184015260208101905061188e565b5f8484015250505050565b5f6118be82611872565b6118c8818561187c565b93506118d881856020860161188c565b6118e18161158a565b840191505092915050565b5f6020820190508181035f83015261190481846118b4565b905092915050565b5f80604083850312156119225761192161132d565b5b5f61192f8582860161137b565b9250506020611940858286016113b2565b9150509250929050565b5f80604083850312156119605761195f61132d565b5b5f61196d8582860161137b565b925050602061197e8582860161137b565b9150509250929050565b6119918161150f565b82525050565b5f6020820190506119aa5f830184611988565b92915050565b7f4e487b71000000000000000000000000000000000000000000000000000000005f52603260045260245ffd5b7f546865207472616e73666572206f66207468697320746f6b656e2069732063755f8201527f7272656e746c792062616e6e6564000000000000000000000000000000000000602082015250565b5f611a37602e8361187c565b9150611a42826119dd565b604082019050919050565b5f6020820190508181035f830152611a6481611a2b565b9050919050565b5f819050919050565b5f819050919050565b5f611a97611a92611a8d8461138f565b611a74565b611a6b565b9050919050565b611aa781611a7d565b82525050565b5f604082019050611ac05f830185611494565b611acd6020830184611a9e565b9392505050565b5f606082019050611ae75f830186611494565b611af46020830185611a9e565b611b016040830184611494565b949350505050565b7f54686520696e70757420616464726573732063616e6e6f74206265207a65726f5f82015250565b5f611b3d60208361187c565b9150611b4882611b09565b602082019050919050565b5f6020820190508181035f830152611b6a81611b31565b9050919050565b7f5468652061646472657373206f6620746865206f776e657220616e64207468655f8201527f206f70657261746f72206d75737420626520646966666572656e740000000000602082015250565b5f611bcb603b8361187c565b9150611bd682611b71565b604082019050919050565b5f6020820190508181035f830152611bf881611bbf565b9050919050565b5f81905092915050565b5f611c1382611872565b611c1d8185611bff565b9350611c2d81856020860161188c565b80840191505092915050565b5f611c448285611c09565b9150611c508284611c09565b91508190509392505050565b7f54686520494420656e746572656420697320696e76616c69642e204974206d755f8201527f737420626520696e207468697320696e74657276616c2030203c206964203c3d60208201527f2063757272656e7420746f6b656e730000000000000000000000000000000000604082015250565b5f611cdc604f8361187c565b9150611ce782611c5c565b606082019050919050565b5f6020820190508181035f830152611d0981611cd0565b9050919050565b7f4e487b71000000000000000000000000000000000000000000000000000000005f52601160045260245ffd5b5f611d478261138f565b915061ffff8203611d5b57611d5a611d10565b5b600182019050919050565b5f81519050919050565b5f82825260208201905092915050565b5f611d8a82611d66565b611d948185611d70565b9350611da481856020860161188c565b611dad8161158a565b840191505092915050565b5f608082019050611dcb5f830187611494565b611dd86020830186611494565b611de56040830185611441565b8181036060830152611df78184611d80565b905095945050505050565b611e0b8161181f565b8114611e15575f80fd5b50565b5f81519050611e2681611e02565b92915050565b5f60208284031215611e4157611e4061132d565b5b5f611e4e84828501611e18565b91505092915050565b7f4e487b71000000000000000000000000000000000000000000000000000000005f52601260045260245ffdfea2646970667358221220fe64ada3e496a09c08715ebce06e9a2c9a7720dee2dd729cdb6fc08dde5d165664736f6c63430008140033",
					"opcodes": "PUSH1 0x80 PUSH1 0x40 MSTORE CALLVALUE DUP1 ISZERO PUSH3 0x10 JUMPI PUSH0 DUP1 REVERT JUMPDEST POP PUSH1 0x40 MLOAD PUSH3 0x2052 CODESIZE SUB DUP1 PUSH3 0x2052 DUP4 CODECOPY DUP2 DUP2 ADD PUSH1 0x40 MSTORE DUP2 ADD SWAP1 PUSH3 0x36 SWAP2 SWAP1 PUSH3 0x145 JUMP JUMPDEST DUP2 PUSH0 DUP1 PUSH2 0x100 EXP DUP2 SLOAD DUP2 PUSH20 0xFFFFFFFFFFFFFFFFFFFFFFFFFFFFFFFFFFFFFFFF MUL NOT AND SWAP1 DUP4 PUSH1 0x60 SHR MUL OR SWAP1 SSTORE POP DUP1 PUSH0 PUSH1 0x14 PUSH2 0x100 EXP DUP2 SLOAD DUP2 PUSH10 0xFFFFFFFFFFFFFFFFFFFF MUL NOT AND SWAP1 DUP4 PUSH1 0xB0 SHR MUL OR SWAP1 SSTORE POP POP POP PUSH3 0x18A JUMP JUMPDEST PUSH0 DUP1 REVERT JUMPDEST PUSH0 PUSH32 0xFFFFFFFFFFFFFFFFFFFFFFFFFFFFFFFFFFFFFFFF000000000000000000000000 DUP3 AND SWAP1 POP SWAP2 SWAP1 POP JUMP JUMPDEST PUSH3 0xC7 DUP2 PUSH3 0x91 JUMP JUMPDEST DUP2 EQ PUSH3 0xD2 JUMPI PUSH0 DUP1 REVERT JUMPDEST POP JUMP JUMPDEST PUSH0 DUP2 MLOAD SWAP1 POP PUSH3 0xE5 DUP2 PUSH3 0xBC JUMP JUMPDEST SWAP3 SWAP2 POP POP JUMP JUMPDEST PUSH0 PUSH32 0xFFFFFFFFFFFFFFFFFFFF00000000000000000000000000000000000000000000 DUP3 AND SWAP1 POP SWAP2 SWAP1 POP JUMP JUMPDEST PUSH3 0x121 DUP2 PUSH3 0xEB JUMP JUMPDEST DUP2 EQ PUSH3 0x12C JUMPI PUSH0 DUP1 REVERT JUMPDEST POP JUMP JUMPDEST PUSH0 DUP2 MLOAD SWAP1 POP PUSH3 0x13F DUP2 PUSH3 0x116 JUMP JUMPDEST SWAP3 SWAP2 POP POP JUMP JUMPDEST PUSH0 DUP1 PUSH1 0x40 DUP4 DUP6 SUB SLT ISZERO PUSH3 0x15E JUMPI PUSH3 0x15D PUSH3 0x8D JUMP JUMPDEST JUMPDEST PUSH0 PUSH3 0x16D DUP6 DUP3 DUP7 ADD PUSH3 0xD5 JUMP JUMPDEST SWAP3 POP POP PUSH1 0x20 PUSH3 0x180 DUP6 DUP3 DUP7 ADD PUSH3 0x12F JUMP JUMPDEST SWAP2 POP POP SWAP3 POP SWAP3 SWAP1 POP JUMP JUMPDEST PUSH2 0x1EBA DUP1 PUSH3 0x198 PUSH0 CODECOPY PUSH0 RETURN INVALID PUSH1 0x80 PUSH1 0x40 MSTORE CALLVALUE DUP1 ISZERO PUSH2 0xF JUMPI PUSH0 DUP1 REVERT JUMPDEST POP PUSH1 0x4 CALLDATASIZE LT PUSH2 0xCD JUMPI PUSH0 CALLDATALOAD PUSH1 0xE0 SHR DUP1 PUSH4 0x95D89B41 GT PUSH2 0x8A JUMPI DUP1 PUSH4 0xB1CFF380 GT PUSH2 0x64 JUMPI DUP1 PUSH4 0xB1CFF380 EQ PUSH2 0x20D JUMPI DUP1 PUSH4 0xDD7D8440 EQ PUSH2 0x23D JUMPI DUP1 PUSH4 0xE560CA43 EQ PUSH2 0x26D JUMPI DUP1 PUSH4 0xE985E9C5 EQ PUSH2 0x289 JUMPI PUSH2 0xCD JUMP JUMPDEST DUP1 PUSH4 0x95D89B41 EQ PUSH2 0x1B7 JUMPI DUP1 PUSH4 0xA22CB465 EQ PUSH2 0x1D5 JUMPI DUP1 PUSH4 0xB145AE31 EQ PUSH2 0x1F1 JUMPI PUSH2 0xCD JUMP JUMPDEST DUP1 PUSH4 0x6FDDE03 EQ PUSH2 0xD1 JUMPI DUP1 PUSH4 0x7394401 EQ PUSH2 0xEF JUMPI DUP1 PUSH4 0x4EC3DCFE EQ PUSH2 0x10B JUMPI DUP1 PUSH4 0x70A08231 EQ PUSH2 0x127 JUMPI DUP1 PUSH4 0x82A7CF1E EQ PUSH2 0x157 JUMPI DUP1 PUSH4 0x93B871F2 EQ PUSH2 0x187 JUMPI JUMPDEST PUSH0 DUP1 REVERT JUMPDEST PUSH2 0xD9 PUSH2 0x2B9 JUMP JUMPDEST PUSH1 0x40 MLOAD PUSH2 0xE6 SWAP2 SWAP1 PUSH2 0x130B JUMP JUMPDEST PUSH1 0x40 MLOAD DUP1 SWAP2 SUB SWAP1 RETURN JUMPDEST PUSH2 0x109 PUSH1 0x4 DUP1 CALLDATASIZE SUB DUP2 ADD SWAP1 PUSH2 0x104 SWAP2 SWAP1 PUSH2 0x13C6 JUMP JUMPDEST PUSH2 0x2CD JUMP JUMPDEST STOP JUMPDEST PUSH2 0x125 PUSH1 0x4 DUP1 CALLDATASIZE SUB DUP2 ADD SWAP1 PUSH2 0x120 SWAP2 SWAP1 PUSH2 0x13C6 JUMP JUMPDEST PUSH2 0x2EC JUMP JUMPDEST STOP JUMPDEST PUSH2 0x141 PUSH1 0x4 DUP1 CALLDATASIZE SUB DUP2 ADD SWAP1 PUSH2 0x13C SWAP2 SWAP1 PUSH2 0x1416 JUMP JUMPDEST PUSH2 0x546 JUMP JUMPDEST PUSH1 0x40 MLOAD PUSH2 0x14E SWAP2 SWAP1 PUSH2 0x1450 JUMP JUMPDEST PUSH1 0x40 MLOAD DUP1 SWAP2 SUB SWAP1 RETURN JUMPDEST PUSH2 0x171 PUSH1 0x4 DUP1 CALLDATASIZE SUB DUP2 ADD SWAP1 PUSH2 0x16C SWAP2 SWAP1 PUSH2 0x1469 JUMP JUMPDEST PUSH2 0x627 JUMP JUMPDEST PUSH1 0x40 MLOAD PUSH2 0x17E SWAP2 SWAP1 PUSH2 0x14A3 JUMP JUMPDEST PUSH1 0x40 MLOAD DUP1 SWAP2 SUB SWAP1 RETURN JUMPDEST PUSH2 0x1A1 PUSH1 0x4 DUP1 CALLDATASIZE SUB DUP2 ADD SWAP1 PUSH2 0x19C SWAP2 SWAP1 PUSH2 0x1469 JUMP JUMPDEST PUSH2 0x638 JUMP JUMPDEST PUSH1 0x40 MLOAD PUSH2 0x1AE SWAP2 SWAP1 PUSH2 0x14A3 JUMP JUMPDEST PUSH1 0x40 MLOAD DUP1 SWAP2 SUB SWAP1 RETURN JUMPDEST PUSH2 0x1BF PUSH2 0x684 JUMP JUMPDEST PUSH1 0x40 MLOAD PUSH2 0x1CC SWAP2 SWAP1 PUSH2 0x14F6 JUMP JUMPDEST PUSH1 0x40 MLOAD DUP1 SWAP2 SUB SWAP1 RETURN JUMPDEST PUSH2 0x1EF PUSH1 0x4 DUP1 CALLDATASIZE SUB DUP2 ADD SWAP1 PUSH2 0x1EA SWAP2 SWAP1 PUSH2 0x1544 JUMP JUMPDEST PUSH2 0x699 JUMP JUMPDEST STOP JUMPDEST PUSH2 0x20B PUSH1 0x4 DUP1 CALLDATASIZE SUB DUP2 ADD SWAP1 PUSH2 0x206 SWAP2 SWAP1 PUSH2 0x16BE JUMP JUMPDEST PUSH2 0x885 JUMP JUMPDEST STOP JUMPDEST PUSH2 0x227 PUSH1 0x4 DUP1 CALLDATASIZE SUB DUP2 ADD SWAP1 PUSH2 0x222 SWAP2 SWAP1 PUSH2 0x179B JUMP JUMPDEST PUSH2 0x8A2 JUMP JUMPDEST PUSH1 0x40 MLOAD PUSH2 0x234 SWAP2 SWAP1 PUSH2 0x1859 JUMP JUMPDEST PUSH1 0x40 MLOAD DUP1 SWAP2 SUB SWAP1 RETURN JUMPDEST PUSH2 0x257 PUSH1 0x4 DUP1 CALLDATASIZE SUB DUP2 ADD SWAP1 PUSH2 0x252 SWAP2 SWAP1 PUSH2 0x1469 JUMP JUMPDEST PUSH2 0x8AC JUMP JUMPDEST PUSH1 0x40 MLOAD PUSH2 0x264 SWAP2 SWAP1 PUSH2 0x18EC JUMP JUMPDEST PUSH1 0x40 MLOAD DUP1 SWAP2 SUB SWAP1 RETURN JUMPDEST PUSH2 0x287 PUSH1 0x4 DUP1 CALLDATASIZE SUB DUP2 ADD SWAP1 PUSH2 0x282 SWAP2 SWAP1 PUSH2 0x190C JUMP JUMPDEST PUSH2 0x916 JUMP JUMPDEST STOP JUMPDEST PUSH2 0x2A3 PUSH1 0x4 DUP1 CALLDATASIZE SUB DUP2 ADD SWAP1 PUSH2 0x29E SWAP2 SWAP1 PUSH2 0x194A JUMP JUMPDEST PUSH2 0xA3A JUMP JUMPDEST PUSH1 0x40 MLOAD PUSH2 0x2B0 SWAP2 SWAP1 PUSH2 0x1997 JUMP JUMPDEST PUSH1 0x40 MLOAD DUP1 SWAP2 SUB SWAP1 RETURN JUMPDEST PUSH0 DUP1 PUSH0 SWAP1 SLOAD SWAP1 PUSH2 0x100 EXP SWAP1 DIV PUSH1 0x60 SHL SWAP1 POP SWAP1 JUMP JUMPDEST PUSH2 0x2E7 DUP4 DUP4 DUP4 PUSH1 0x40 MLOAD DUP1 PUSH1 0x20 ADD PUSH1 0x40 MSTORE DUP1 PUSH0 DUP2 MSTORE POP PUSH2 0x885 JUMP JUMPDEST POP POP POP JUMP JUMPDEST PUSH0 PUSH20 0xFFFFFFFFFFFFFFFFFFFFFFFFFFFFFFFFFFFFFFFF AND DUP3 PUSH20 0xFFFFFFFFFFFFFFFFFFFFFFFFFFFFFFFFFFFFFFFF AND SUB PUSH2 0x35C JUMPI PUSH0 PUSH1 0x40 MLOAD PUSH32 0x64A0AE9200000000000000000000000000000000000000000000000000000000 DUP2 MSTORE PUSH1 0x4 ADD PUSH2 0x353 SWAP2 SWAP1 PUSH2 0x14A3 JUMP JUMPDEST PUSH1 0x40 MLOAD DUP1 SWAP2 SUB SWAP1 REVERT JUMPDEST PUSH0 PUSH2 0x366 DUP3 PUSH2 0xAC9 JUMP JUMPDEST SWAP1 POP PUSH2 0x4B3 DUP3 PUSH2 0xFFFF AND PUSH2 0x4B1 DUP2 LT PUSH2 0x382 JUMPI PUSH2 0x381 PUSH2 0x19B0 JUMP JUMPDEST JUMPDEST PUSH1 0x20 SWAP2 DUP3 DUP3 DIV ADD SWAP2 SWAP1 MOD SWAP1 SLOAD SWAP1 PUSH2 0x100 EXP SWAP1 DIV PUSH1 0xFF AND ISZERO PUSH2 0x3D8 JUMPI PUSH1 0x40 MLOAD PUSH32 0x8C379A000000000000000000000000000000000000000000000000000000000 DUP2 MSTORE PUSH1 0x4 ADD PUSH2 0x3CF SWAP1 PUSH2 0x1A4D JUMP JUMPDEST PUSH1 0x40 MLOAD DUP1 SWAP2 SUB SWAP1 REVERT JUMPDEST DUP1 PUSH20 0xFFFFFFFFFFFFFFFFFFFFFFFFFFFFFFFFFFFFFFFF AND PUSH2 0x3F7 PUSH2 0xB77 JUMP JUMPDEST PUSH20 0xFFFFFFFFFFFFFFFFFFFFFFFFFFFFFFFFFFFFFFFF AND EQ DUP1 PUSH2 0x426 JUMPI POP PUSH2 0x425 DUP2 PUSH2 0x420 PUSH2 0xB77 JUMP JUMPDEST PUSH2 0xA3A JUMP JUMPDEST JUMPDEST DUP1 PUSH2 0x46B JUMPI POP PUSH2 0x434 PUSH2 0xB77 JUMP JUMPDEST PUSH20 0xFFFFFFFFFFFFFFFFFFFFFFFFFFFFFFFFFFFFFFFF AND PUSH2 0x453 DUP4 PUSH2 0x638 JUMP JUMPDEST PUSH20 0xFFFFFFFFFFFFFFFFFFFFFFFFFFFFFFFFFFFFFFFF AND EQ JUMPDEST PUSH2 0x4B5 JUMPI PUSH2 0x477 PUSH2 0xB77 JUMP JUMPDEST DUP3 PUSH1 0x40 MLOAD PUSH32 0x177E802F00000000000000000000000000000000000000000000000000000000 DUP2 MSTORE PUSH1 0x4 ADD PUSH2 0x4AC SWAP3 SWAP2 SWAP1 PUSH2 0x1AAD JUMP JUMPDEST PUSH1 0x40 MLOAD DUP1 SWAP2 SUB SWAP1 REVERT JUMPDEST DUP4 PUSH20 0xFFFFFFFFFFFFFFFFFFFFFFFFFFFFFFFFFFFFFFFF AND DUP2 PUSH20 0xFFFFFFFFFFFFFFFFFFFFFFFFFFFFFFFFFFFFFFFF AND EQ PUSH2 0x529 JUMPI DUP4 DUP3 DUP3 PUSH1 0x40 MLOAD PUSH32 0x64283D7B00000000000000000000000000000000000000000000000000000000 DUP2 MSTORE PUSH1 0x4 ADD PUSH2 0x520 SWAP4 SWAP3 SWAP2 SWAP1 PUSH2 0x1AD4 JUMP JUMPDEST PUSH1 0x40 MLOAD DUP1 SWAP2 SUB SWAP1 REVERT JUMPDEST PUSH2 0x534 PUSH0 DUP4 DUP4 PUSH2 0xB7E JUMP JUMPDEST PUSH2 0x53F DUP4 DUP4 DUP4 PUSH2 0xC3A JUMP JUMPDEST POP POP POP POP POP JUMP JUMPDEST PUSH0 DUP1 PUSH20 0xFFFFFFFFFFFFFFFFFFFFFFFFFFFFFFFFFFFFFFFF AND DUP3 PUSH20 0xFFFFFFFFFFFFFFFFFFFFFFFFFFFFFFFFFFFFFFFF AND SUB PUSH2 0x5B5 JUMPI PUSH1 0x40 MLOAD PUSH32 0x8C379A000000000000000000000000000000000000000000000000000000000 DUP2 MSTORE PUSH1 0x4 ADD PUSH2 0x5AC SWAP1 PUSH2 0x1B53 JUMP JUMPDEST PUSH1 0x40 MLOAD DUP1 SWAP2 SUB SWAP1 REVERT JUMPDEST PUSH2 0x4D9 PUSH0 DUP4 PUSH20 0xFFFFFFFFFFFFFFFFFFFFFFFFFFFFFFFFFFFFFFFF AND PUSH20 0xFFFFFFFFFFFFFFFFFFFFFFFFFFFFFFFFFFFFFFFF AND DUP2 MSTORE PUSH1 0x20 ADD SWAP1 DUP2 MSTORE PUSH1 0x20 ADD PUSH0 KECCAK256 PUSH0 PUSH2 0x4B1 DUP2 LT PUSH2 0x606 JUMPI PUSH2 0x605 PUSH2 0x19B0 JUMP JUMPDEST JUMPDEST PUSH1 0x10 SWAP2 DUP3 DUP3 DIV ADD SWAP2 SWAP1 MOD PUSH1 0x2 MUL SWAP1 SLOAD SWAP1 PUSH2 0x100 EXP SWAP1 DIV PUSH2 0xFFFF AND SWAP1 POP SWAP2 SWAP1 POP JUMP JUMPDEST PUSH0 PUSH2 0x631 DUP3 PUSH2 0xAC9 JUMP JUMPDEST SWAP1 POP SWAP2 SWAP1 POP JUMP JUMPDEST PUSH0 PUSH2 0x642 DUP3 PUSH2 0xAC9 JUMP JUMPDEST POP PUSH2 0x4DA PUSH0 DUP4 PUSH2 0xFFFF AND PUSH2 0xFFFF AND DUP2 MSTORE PUSH1 0x20 ADD SWAP1 DUP2 MSTORE PUSH1 0x20 ADD PUSH0 KECCAK256 PUSH0 SWAP1 SLOAD SWAP1 PUSH2 0x100 EXP SWAP1 DIV PUSH20 0xFFFFFFFFFFFFFFFFFFFFFFFFFFFFFFFFFFFFFFFF AND SWAP1 POP SWAP2 SWAP1 POP JUMP JUMPDEST PUSH0 DUP1 PUSH1 0x14 SWAP1 SLOAD SWAP1 PUSH2 0x100 EXP SWAP1 DIV PUSH1 0xB0 SHL SWAP1 POP SWAP1 JUMP JUMPDEST DUP2 PUSH20 0xFFFFFFFFFFFFFFFFFFFFFFFFFFFFFFFFFFFFFFFF AND PUSH2 0x6B8 PUSH2 0xB77 JUMP JUMPDEST PUSH20 0xFFFFFFFFFFFFFFFFFFFFFFFFFFFFFFFFFFFFFFFF AND SUB PUSH2 0x70E JUMPI PUSH1 0x40 MLOAD PUSH32 0x8C379A000000000000000000000000000000000000000000000000000000000 DUP2 MSTORE PUSH1 0x4 ADD PUSH2 0x705 SWAP1 PUSH2 0x1BE1 JUMP JUMPDEST PUSH1 0x40 MLOAD DUP1 SWAP2 SUB SWAP1 REVERT JUMPDEST PUSH0 PUSH20 0xFFFFFFFFFFFFFFFFFFFFFFFFFFFFFFFFFFFFFFFF AND DUP3 PUSH20 0xFFFFFFFFFFFFFFFFFFFFFFFFFFFFFFFFFFFFFFFF AND SUB PUSH2 0x77E JUMPI DUP2 PUSH1 0x40 MLOAD PUSH32 0x5B08BA1800000000000000000000000000000000000000000000000000000000 DUP2 MSTORE PUSH1 0x4 ADD PUSH2 0x775 SWAP2 SWAP1 PUSH2 0x14A3 JUMP JUMPDEST PUSH1 0x40 MLOAD DUP1 SWAP2 SUB SWAP1 REVERT JUMPDEST DUP1 PUSH2 0x4DB PUSH0 PUSH2 0x78B PUSH2 0xB77 JUMP JUMPDEST PUSH20 0xFFFFFFFFFFFFFFFFFFFFFFFFFFFFFFFFFFFFFFFF AND PUSH20 0xFFFFFFFFFFFFFFFFFFFFFFFFFFFFFFFFFFFFFFFF AND DUP2 MSTORE PUSH1 0x20 ADD SWAP1 DUP2 MSTORE PUSH1 0x20 ADD PUSH0 KECCAK256 PUSH0 DUP5 PUSH20 0xFFFFFFFFFFFFFFFFFFFFFFFFFFFFFFFFFFFFFFFF AND PUSH20 0xFFFFFFFFFFFFFFFFFFFFFFFFFFFFFFFFFFFFFFFF AND DUP2 MSTORE PUSH1 0x20 ADD SWAP1 DUP2 MSTORE PUSH1 0x20 ADD PUSH0 KECCAK256 PUSH0 PUSH2 0x100 EXP DUP2 SLOAD DUP2 PUSH1 0xFF MUL NOT AND SWAP1 DUP4 ISZERO ISZERO MUL OR SWAP1 SSTORE POP DUP2 PUSH20 0xFFFFFFFFFFFFFFFFFFFFFFFFFFFFFFFFFFFFFFFF AND PUSH2 0x834 PUSH2 0xB77 JUMP JUMPDEST PUSH20 0xFFFFFFFFFFFFFFFFFFFFFFFFFFFFFFFFFFFFFFFF AND PUSH32 0x17307EAB39AB6107E8899845AD3D59BD9653F200F220920489CA2B5937696C31 DUP4 PUSH1 0x40 MLOAD PUSH2 0x879 SWAP2 SWAP1 PUSH2 0x1997 JUMP JUMPDEST PUSH1 0x40 MLOAD DUP1 SWAP2 SUB SWAP1 LOG3 POP POP JUMP JUMPDEST PUSH2 0x890 DUP5 DUP5 DUP5 PUSH2 0x2EC JUMP JUMPDEST PUSH2 0x89C DUP5 DUP5 DUP5 DUP5 PUSH2 0xEEE JUMP JUMPDEST POP POP POP POP JUMP JUMPDEST PUSH0 SWAP6 SWAP5 POP POP POP POP POP JUMP JUMPDEST PUSH1 0x60 PUSH2 0x8B7 DUP3 PUSH2 0xAC9 JUMP JUMPDEST POP PUSH0 PUSH2 0x8C1 PUSH2 0x10A0 JUMP JUMPDEST SWAP1 POP PUSH0 DUP2 MLOAD GT PUSH2 0x8DF JUMPI PUSH1 0x40 MLOAD DUP1 PUSH1 0x20 ADD PUSH1 0x40 MSTORE DUP1 PUSH0 DUP2 MSTORE POP PUSH2 0x90E JUMP JUMPDEST DUP1 PUSH2 0x8ED DUP5 PUSH2 0xFFFF AND PUSH2 0x10B6 JUMP JUMPDEST PUSH1 0x40 MLOAD PUSH1 0x20 ADD PUSH2 0x8FE SWAP3 SWAP2 SWAP1 PUSH2 0x1C39 JUMP JUMPDEST PUSH1 0x40 MLOAD PUSH1 0x20 DUP2 DUP4 SUB SUB DUP2 MSTORE SWAP1 PUSH1 0x40 MSTORE JUMPDEST SWAP2 POP POP SWAP2 SWAP1 POP JUMP JUMPDEST PUSH0 PUSH2 0x920 DUP3 PUSH2 0xAC9 JUMP JUMPDEST SWAP1 POP DUP3 PUSH20 0xFFFFFFFFFFFFFFFFFFFFFFFFFFFFFFFFFFFFFFFF AND DUP2 PUSH20 0xFFFFFFFFFFFFFFFFFFFFFFFFFFFFFFFFFFFFFFFF AND SUB PUSH2 0x990 JUMPI PUSH1 0x40 MLOAD PUSH32 0x8C379A000000000000000000000000000000000000000000000000000000000 DUP2 MSTORE PUSH1 0x4 ADD PUSH2 0x987 SWAP1 PUSH2 0x1BE1 JUMP JUMPDEST PUSH1 0x40 MLOAD DUP1 SWAP2 SUB SWAP1 REVERT JUMPDEST PUSH2 0x998 PUSH2 0xB77 JUMP JUMPDEST PUSH20 0xFFFFFFFFFFFFFFFFFFFFFFFFFFFFFFFFFFFFFFFF AND DUP2 PUSH20 0xFFFFFFFFFFFFFFFFFFFFFFFFFFFFFFFFFFFFFFFF AND EQ ISZERO DUP1 ISZERO PUSH2 0x9E1 JUMPI POP PUSH2 0x9DF DUP2 PUSH2 0x9DA PUSH2 0xB77 JUMP JUMPDEST PUSH2 0xA3A JUMP JUMPDEST ISZERO JUMPDEST ISZERO PUSH2 0xA2A JUMPI PUSH2 0x9EE PUSH2 0xB77 JUMP JUMPDEST PUSH1 0x40 MLOAD PUSH32 0xA9FBF51F00000000000000000000000000000000000000000000000000000000 DUP2 MSTORE PUSH1 0x4 ADD PUSH2 0xA21 SWAP2 SWAP1 PUSH2 0x14A3 JUMP JUMPDEST PUSH1 0x40 MLOAD DUP1 SWAP2 SUB SWAP1 REVERT JUMPDEST PUSH2 0xA35 DUP4 DUP4 DUP4 PUSH2 0xB7E JUMP JUMPDEST POP POP POP JUMP JUMPDEST PUSH0 PUSH2 0x4DB PUSH0 DUP5 PUSH20 0xFFFFFFFFFFFFFFFFFFFFFFFFFFFFFFFFFFFFFFFF AND PUSH20 0xFFFFFFFFFFFFFFFFFFFFFFFFFFFFFFFFFFFFFFFF AND DUP2 MSTORE PUSH1 0x20 ADD SWAP1 DUP2 MSTORE PUSH1 0x20 ADD PUSH0 KECCAK256 PUSH0 DUP4 PUSH20 0xFFFFFFFFFFFFFFFFFFFFFFFFFFFFFFFFFFFFFFFF AND PUSH20 0xFFFFFFFFFFFFFFFFFFFFFFFFFFFFFFFFFFFFFFFF AND DUP2 MSTORE PUSH1 0x20 ADD SWAP1 DUP2 MSTORE PUSH1 0x20 ADD PUSH0 KECCAK256 PUSH0 SWAP1 SLOAD SWAP1 PUSH2 0x100 EXP SWAP1 DIV PUSH1 0xFF AND SWAP1 POP SWAP3 SWAP2 POP POP JUMP JUMPDEST PUSH0 DUP2 PUSH2 0xFFFF AND PUSH0 LT DUP1 ISZERO PUSH2 0xAF7 JUMPI POP PUSH1 0x1 PUSH0 ADD PUSH1 0x2 SWAP1 SLOAD SWAP1 PUSH2 0x100 EXP SWAP1 DIV PUSH2 0xFFFF AND PUSH2 0xFFFF AND DUP3 PUSH2 0xFFFF AND GT ISZERO JUMPDEST PUSH2 0xB36 JUMPI PUSH1 0x40 MLOAD PUSH32 0x8C379A000000000000000000000000000000000000000000000000000000000 DUP2 MSTORE PUSH1 0x4 ADD PUSH2 0xB2D SWAP1 PUSH2 0x1CF2 JUMP JUMPDEST PUSH1 0x40 MLOAD DUP1 SWAP2 SUB SWAP1 REVERT JUMPDEST PUSH1 0x2 DUP3 PUSH2 0xFFFF AND PUSH2 0x4B1 DUP2 LT PUSH2 0xB4F JUMPI PUSH2 0xB4E PUSH2 0x19B0 JUMP JUMPDEST JUMPDEST ADD PUSH0 SWAP1 SLOAD SWAP1 PUSH2 0x100 EXP SWAP1 DIV PUSH20 0xFFFFFFFFFFFFFFFFFFFFFFFFFFFFFFFFFFFFFFFF AND SWAP1 POP SWAP2 SWAP1 POP JUMP JUMPDEST PUSH0 CALLER SWAP1 POP SWAP1 JUMP JUMPDEST DUP3 PUSH2 0x4DA PUSH0 DUP5 PUSH2 0xFFFF AND PUSH2 0xFFFF AND DUP2 MSTORE PUSH1 0x20 ADD SWAP1 DUP2 MSTORE PUSH1 0x20 ADD PUSH0 KECCAK256 PUSH0 PUSH2 0x100 EXP DUP2 SLOAD DUP2 PUSH20 0xFFFFFFFFFFFFFFFFFFFFFFFFFFFFFFFFFFFFFFFF MUL NOT AND SWAP1 DUP4 PUSH20 0xFFFFFFFFFFFFFFFFFFFFFFFFFFFFFFFFFFFFFFFF AND MUL OR SWAP1 SSTORE POP DUP2 PUSH2 0xFFFF AND DUP4 PUSH20 0xFFFFFFFFFFFFFFFFFFFFFFFFFFFFFFFFFFFFFFFF AND DUP3 PUSH20 0xFFFFFFFFFFFFFFFFFFFFFFFFFFFFFFFFFFFFFFFF AND PUSH32 0xA9D294FD4BD42BB30E96CBA2B478D149A783FBA3C729B1E5C42BEC89D95B85A PUSH1 0x40 MLOAD PUSH1 0x40 MLOAD DUP1 SWAP2 SUB SWAP1 LOG4 POP POP POP JUMP JUMPDEST PUSH0 DUP1 PUSH20 0xFFFFFFFFFFFFFFFFFFFFFFFFFFFFFFFFFFFFFFFF AND DUP3 PUSH20 0xFFFFFFFFFFFFFFFFFFFFFFFFFFFFFFFFFFFFFFFF AND EQ PUSH2 0xEE7 JUMPI PUSH0 PUSH2 0x4D9 PUSH0 DUP5 PUSH20 0xFFFFFFFFFFFFFFFFFFFFFFFFFFFFFFFFFFFFFFFF AND PUSH20 0xFFFFFFFFFFFFFFFFFFFFFFFFFFFFFFFFFFFFFFFF AND DUP2 MSTORE PUSH1 0x20 ADD SWAP1 DUP2 MSTORE PUSH1 0x20 ADD PUSH0 KECCAK256 PUSH0 PUSH2 0x4B1 DUP2 LT PUSH2 0xCC0 JUMPI PUSH2 0xCBF PUSH2 0x19B0 JUMP JUMPDEST JUMPDEST PUSH1 0x10 SWAP2 DUP3 DUP3 DIV ADD SWAP2 SWAP1 MOD PUSH1 0x2 MUL SWAP1 SLOAD SWAP1 PUSH2 0x100 EXP SWAP1 DIV PUSH2 0xFFFF AND SWAP1 POP PUSH0 JUMPDEST DUP2 PUSH2 0xFFFF AND DUP2 PUSH2 0xFFFF AND GT PUSH2 0xEE4 JUMPI DUP5 PUSH2 0xFFFF AND PUSH2 0x4D9 PUSH0 DUP7 PUSH20 0xFFFFFFFFFFFFFFFFFFFFFFFFFFFFFFFFFFFFFFFF AND PUSH20 0xFFFFFFFFFFFFFFFFFFFFFFFFFFFFFFFFFFFFFFFF AND DUP2 MSTORE PUSH1 0x20 ADD SWAP1 DUP2 MSTORE PUSH1 0x20 ADD PUSH0 KECCAK256 DUP3 PUSH2 0xFFFF AND PUSH2 0x4B1 DUP2 LT PUSH2 0xD47 JUMPI PUSH2 0xD46 PUSH2 0x19B0 JUMP JUMPDEST JUMPDEST PUSH1 0x10 SWAP2 DUP3 DUP3 DIV ADD SWAP2 SWAP1 MOD PUSH1 0x2 MUL SWAP1 SLOAD SWAP1 PUSH2 0x100 EXP SWAP1 DIV PUSH2 0xFFFF AND PUSH2 0xFFFF AND SUB PUSH2 0xED3 JUMPI PUSH2 0x4D9 PUSH0 DUP6 PUSH20 0xFFFFFFFFFFFFFFFFFFFFFFFFFFFFFFFFFFFFFFFF AND PUSH20 0xFFFFFFFFFFFFFFFFFFFFFFFFFFFFFFFFFFFFFFFF AND DUP2 MSTORE PUSH1 0x20 ADD SWAP1 DUP2 MSTORE PUSH1 0x20 ADD PUSH0 KECCAK256 DUP3 PUSH2 0xFFFF AND PUSH2 0x4B1 DUP2 LT PUSH2 0xDBF JUMPI PUSH2 0xDBE PUSH2 0x19B0 JUMP JUMPDEST JUMPDEST PUSH1 0x10 SWAP2 DUP3 DUP3 DIV ADD SWAP2 SWAP1 MOD PUSH1 0x2 MUL SWAP1 SLOAD SWAP1 PUSH2 0x100 EXP SWAP1 DIV PUSH2 0xFFFF AND PUSH2 0x4D9 PUSH0 DUP7 PUSH20 0xFFFFFFFFFFFFFFFFFFFFFFFFFFFFFFFFFFFFFFFF AND PUSH20 0xFFFFFFFFFFFFFFFFFFFFFFFFFFFFFFFFFFFFFFFF AND DUP2 MSTORE PUSH1 0x20 ADD SWAP1 DUP2 MSTORE PUSH1 0x20 ADD PUSH0 KECCAK256 DUP3 PUSH2 0xFFFF AND PUSH2 0x4B1 DUP2 LT PUSH2 0xE2E JUMPI PUSH2 0xE2D PUSH2 0x19B0 JUMP JUMPDEST JUMPDEST PUSH1 0x10 SWAP2 DUP3 DUP3 DIV ADD SWAP2 SWAP1 MOD PUSH1 0x2 MUL PUSH2 0x100 EXP DUP2 SLOAD DUP2 PUSH2 0xFFFF MUL NOT AND SWAP1 DUP4 PUSH2 0xFFFF AND MUL OR SWAP1 SSTORE POP PUSH0 PUSH2 0x4D9 PUSH0 DUP7 PUSH20 0xFFFFFFFFFFFFFFFFFFFFFFFFFFFFFFFFFFFFFFFF AND PUSH20 0xFFFFFFFFFFFFFFFFFFFFFFFFFFFFFFFFFFFFFFFF AND DUP2 MSTORE PUSH1 0x20 ADD SWAP1 DUP2 MSTORE PUSH1 0x20 ADD PUSH0 KECCAK256 DUP4 PUSH2 0xFFFF AND PUSH2 0x4B1 DUP2 LT PUSH2 0xEA9 JUMPI PUSH2 0xEA8 PUSH2 0x19B0 JUMP JUMPDEST JUMPDEST PUSH1 0x10 SWAP2 DUP3 DUP3 DIV ADD SWAP2 SWAP1 MOD PUSH1 0x2 MUL PUSH2 0x100 EXP DUP2 SLOAD DUP2 PUSH2 0xFFFF MUL NOT AND SWAP1 DUP4 PUSH2 0xFFFF AND MUL OR SWAP1 SSTORE POP PUSH2 0xEE4 JUMP JUMPDEST DUP1 PUSH2 0xEDD SWAP1 PUSH2 0x1D3D JUMP JUMPDEST SWAP1 POP PUSH2 0xCDE JUMP JUMPDEST POP POP JUMPDEST SWAP4 SWAP3 POP POP POP JUMP JUMPDEST PUSH0 DUP4 PUSH20 0xFFFFFFFFFFFFFFFFFFFFFFFFFFFFFFFFFFFFFFFF AND EXTCODESIZE GT ISZERO PUSH2 0x109A JUMPI DUP3 PUSH20 0xFFFFFFFFFFFFFFFFFFFFFFFFFFFFFFFFFFFFFFFF AND PUSH4 0xB1CFF380 PUSH2 0xF31 PUSH2 0xB77 JUMP JUMPDEST DUP7 DUP6 DUP6 PUSH1 0x40 MLOAD DUP6 PUSH4 0xFFFFFFFF AND PUSH1 0xE0 SHL DUP2 MSTORE PUSH1 0x4 ADD PUSH2 0xF53 SWAP5 SWAP4 SWAP3 SWAP2 SWAP1 PUSH2 0x1DB8 JUMP JUMPDEST PUSH1 0x20 PUSH1 0x40 MLOAD DUP1 DUP4 SUB DUP2 PUSH0 DUP8 GAS CALL SWAP3 POP POP POP DUP1 ISZERO PUSH2 0xF8E JUMPI POP PUSH1 0x40 MLOAD RETURNDATASIZE PUSH1 0x1F NOT PUSH1 0x1F DUP3 ADD AND DUP3 ADD DUP1 PUSH1 0x40 MSTORE POP DUP2 ADD SWAP1 PUSH2 0xF8B SWAP2 SWAP1 PUSH2 0x1E2C JUMP JUMPDEST PUSH1 0x1 JUMPDEST PUSH2 0x100F JUMPI RETURNDATASIZE DUP1 PUSH0 DUP2 EQ PUSH2 0xFBC JUMPI PUSH1 0x40 MLOAD SWAP2 POP PUSH1 0x1F NOT PUSH1 0x3F RETURNDATASIZE ADD AND DUP3 ADD PUSH1 0x40 MSTORE RETURNDATASIZE DUP3 MSTORE RETURNDATASIZE PUSH0 PUSH1 0x20 DUP5 ADD RETURNDATACOPY PUSH2 0xFC1 JUMP JUMPDEST PUSH1 0x60 SWAP2 POP JUMPDEST POP PUSH0 DUP2 MLOAD SUB PUSH2 0x1007 JUMPI DUP4 PUSH1 0x40 MLOAD PUSH32 0x64A0AE9200000000000000000000000000000000000000000000000000000000 DUP2 MSTORE PUSH1 0x4 ADD PUSH2 0xFFE SWAP2 SWAP1 PUSH2 0x14A3 JUMP JUMPDEST PUSH1 0x40 MLOAD DUP1 SWAP2 SUB SWAP1 REVERT JUMPDEST DUP1 MLOAD DUP2 PUSH1 0x20 ADD REVERT JUMPDEST PUSH4 0xB1CFF380 PUSH1 0xE0 SHL PUSH28 0xFFFFFFFFFFFFFFFFFFFFFFFFFFFFFFFFFFFFFFFFFFFFFFFFFFFFFFFF NOT AND DUP2 PUSH28 0xFFFFFFFFFFFFFFFFFFFFFFFFFFFFFFFFFFFFFFFFFFFFFFFFFFFFFFFF NOT AND EQ PUSH2 0x1098 JUMPI DUP4 PUSH1 0x40 MLOAD PUSH32 0x64A0AE9200000000000000000000000000000000000000000000000000000000 DUP2 MSTORE PUSH1 0x4 ADD PUSH2 0x108F SWAP2 SWAP1 PUSH2 0x14A3 JUMP JUMPDEST PUSH1 0x40 MLOAD DUP1 SWAP2 SUB SWAP1 REVERT JUMPDEST POP JUMPDEST POP POP POP POP JUMP JUMPDEST PUSH1 0x60 PUSH1 0x40 MLOAD DUP1 PUSH1 0x20 ADD PUSH1 0x40 MSTORE DUP1 PUSH0 DUP2 MSTORE POP SWAP1 POP SWAP1 JUMP JUMPDEST PUSH1 0x60 PUSH0 PUSH1 0x1 PUSH2 0x10C4 DUP5 PUSH2 0x1180 JUMP JUMPDEST ADD SWAP1 POP PUSH0 DUP2 PUSH8 0xFFFFFFFFFFFFFFFF DUP2 GT ISZERO PUSH2 0x10E2 JUMPI PUSH2 0x10E1 PUSH2 0x159A JUMP JUMPDEST JUMPDEST PUSH1 0x40 MLOAD SWAP1 DUP1 DUP3 MSTORE DUP1 PUSH1 0x1F ADD PUSH1 0x1F NOT AND PUSH1 0x20 ADD DUP3 ADD PUSH1 0x40 MSTORE DUP1 ISZERO PUSH2 0x1114 JUMPI DUP2 PUSH1 0x20 ADD PUSH1 0x1 DUP3 MUL DUP1 CALLDATASIZE DUP4 CALLDATACOPY DUP1 DUP3 ADD SWAP2 POP POP SWAP1 POP JUMPDEST POP SWAP1 POP PUSH0 DUP3 PUSH1 0x20 ADD DUP3 ADD SWAP1 POP JUMPDEST PUSH1 0x1 ISZERO PUSH2 0x1175 JUMPI DUP1 DUP1 PUSH1 0x1 SWAP1 SUB SWAP2 POP POP PUSH32 0x3031323334353637383961626364656600000000000000000000000000000000 PUSH1 0xA DUP7 MOD BYTE DUP2 MSTORE8 PUSH1 0xA DUP6 DUP2 PUSH2 0x116A JUMPI PUSH2 0x1169 PUSH2 0x1E57 JUMP JUMPDEST JUMPDEST DIV SWAP5 POP PUSH0 DUP6 SUB PUSH2 0x1121 JUMPI JUMPDEST DUP2 SWAP4 POP POP POP POP SWAP2 SWAP1 POP JUMP JUMPDEST PUSH0 DUP1 PUSH0 SWAP1 POP PUSH27 0x184F03E93FF9F4DAA797ED6E38ED64BF6A1F010000000000000000 DUP4 LT PUSH2 0x11DC JUMPI PUSH27 0x184F03E93FF9F4DAA797ED6E38ED64BF6A1F010000000000000000 DUP4 DUP2 PUSH2 0x11D2 JUMPI PUSH2 0x11D1 PUSH2 0x1E57 JUMP JUMPDEST JUMPDEST DIV SWAP3 POP PUSH1 0x40 DUP2 ADD SWAP1 POP JUMPDEST PUSH14 0x4EE2D6D415B85ACEF8100000000 DUP4 LT PUSH2 0x1219 JUMPI PUSH14 0x4EE2D6D415B85ACEF8100000000 DUP4 DUP2 PUSH2 0x120F JUMPI PUSH2 0x120E PUSH2 0x1E57 JUMP JUMPDEST JUMPDEST DIV SWAP3 POP PUSH1 0x20 DUP2 ADD SWAP1 POP JUMPDEST PUSH7 0x2386F26FC10000 DUP4 LT PUSH2 0x1248 JUMPI PUSH7 0x2386F26FC10000 DUP4 DUP2 PUSH2 0x123E JUMPI PUSH2 0x123D PUSH2 0x1E57 JUMP JUMPDEST JUMPDEST DIV SWAP3 POP PUSH1 0x10 DUP2 ADD SWAP1 POP JUMPDEST PUSH4 0x5F5E100 DUP4 LT PUSH2 0x1271 JUMPI PUSH4 0x5F5E100 DUP4 DUP2 PUSH2 0x1267 JUMPI PUSH2 0x1266 PUSH2 0x1E57 JUMP JUMPDEST JUMPDEST DIV SWAP3 POP PUSH1 0x8 DUP2 ADD SWAP1 POP JUMPDEST PUSH2 0x2710 DUP4 LT PUSH2 0x1296 JUMPI PUSH2 0x2710 DUP4 DUP2 PUSH2 0x128C JUMPI PUSH2 0x128B PUSH2 0x1E57 JUMP JUMPDEST JUMPDEST DIV SWAP3 POP PUSH1 0x4 DUP2 ADD SWAP1 POP JUMPDEST PUSH1 0x64 DUP4 LT PUSH2 0x12B9 JUMPI PUSH1 0x64 DUP4 DUP2 PUSH2 0x12AF JUMPI PUSH2 0x12AE PUSH2 0x1E57 JUMP JUMPDEST JUMPDEST DIV SWAP3 POP PUSH1 0x2 DUP2 ADD SWAP1 POP JUMPDEST PUSH1 0xA DUP4 LT PUSH2 0x12C8 JUMPI PUSH1 0x1 DUP2 ADD SWAP1 POP JUMPDEST DUP1 SWAP2 POP POP SWAP2 SWAP1 POP JUMP JUMPDEST PUSH0 PUSH32 0xFFFFFFFFFFFFFFFFFFFFFFFFFFFFFFFFFFFFFFFF000000000000000000000000 DUP3 AND SWAP1 POP SWAP2 SWAP1 POP JUMP JUMPDEST PUSH2 0x1305 DUP2 PUSH2 0x12D1 JUMP JUMPDEST DUP3 MSTORE POP POP JUMP JUMPDEST PUSH0 PUSH1 0x20 DUP3 ADD SWAP1 POP PUSH2 0x131E PUSH0 DUP4 ADD DUP5 PUSH2 0x12FC JUMP JUMPDEST SWAP3 SWAP2 POP POP JUMP JUMPDEST PUSH0 PUSH1 0x40 MLOAD SWAP1 POP SWAP1 JUMP JUMPDEST PUSH0 DUP1 REVERT JUMPDEST PUSH0 DUP1 REVERT JUMPDEST PUSH0 PUSH20 0xFFFFFFFFFFFFFFFFFFFFFFFFFFFFFFFFFFFFFFFF DUP3 AND SWAP1 POP SWAP2 SWAP1 POP JUMP JUMPDEST PUSH0 PUSH2 0x135E DUP3 PUSH2 0x1335 JUMP JUMPDEST SWAP1 POP SWAP2 SWAP1 POP JUMP JUMPDEST PUSH2 0x136E DUP2 PUSH2 0x1354 JUMP JUMPDEST DUP2 EQ PUSH2 0x1378 JUMPI PUSH0 DUP1 REVERT JUMPDEST POP JUMP JUMPDEST PUSH0 DUP2 CALLDATALOAD SWAP1 POP PUSH2 0x1389 DUP2 PUSH2 0x1365 JUMP JUMPDEST SWAP3 SWAP2 POP POP JUMP JUMPDEST PUSH0 PUSH2 0xFFFF DUP3 AND SWAP1 POP SWAP2 SWAP1 POP JUMP JUMPDEST PUSH2 0x13A5 DUP2 PUSH2 0x138F JUMP JUMPDEST DUP2 EQ PUSH2 0x13AF JUMPI PUSH0 DUP1 REVERT JUMPDEST POP JUMP JUMPDEST PUSH0 DUP2 CALLDATALOAD SWAP1 POP PUSH2 0x13C0 DUP2 PUSH2 0x139C JUMP JUMPDEST SWAP3 SWAP2 POP POP JUMP JUMPDEST PUSH0 DUP1 PUSH0 PUSH1 0x60 DUP5 DUP7 SUB SLT ISZERO PUSH2 0x13DD JUMPI PUSH2 0x13DC PUSH2 0x132D JUMP JUMPDEST JUMPDEST PUSH0 PUSH2 0x13EA DUP7 DUP3 DUP8 ADD PUSH2 0x137B JUMP JUMPDEST SWAP4 POP POP PUSH1 0x20 PUSH2 0x13FB DUP7 DUP3 DUP8 ADD PUSH2 0x137B JUMP JUMPDEST SWAP3 POP POP PUSH1 0x40 PUSH2 0x140C DUP7 DUP3 DUP8 ADD PUSH2 0x13B2 JUMP JUMPDEST SWAP2 POP POP SWAP3 POP SWAP3 POP SWAP3 JUMP JUMPDEST PUSH0 PUSH1 0x20 DUP3 DUP5 SUB SLT ISZERO PUSH2 0x142B JUMPI PUSH2 0x142A PUSH2 0x132D JUMP JUMPDEST JUMPDEST PUSH0 PUSH2 0x1438 DUP5 DUP3 DUP6 ADD PUSH2 0x137B JUMP JUMPDEST SWAP2 POP POP SWAP3 SWAP2 POP POP JUMP JUMPDEST PUSH2 0x144A DUP2 PUSH2 0x138F JUMP JUMPDEST DUP3 MSTORE POP POP JUMP JUMPDEST PUSH0 PUSH1 0x20 DUP3 ADD SWAP1 POP PUSH2 0x1463 PUSH0 DUP4 ADD DUP5 PUSH2 0x1441 JUMP JUMPDEST SWAP3 SWAP2 POP POP JUMP JUMPDEST PUSH0 PUSH1 0x20 DUP3 DUP5 SUB SLT ISZERO PUSH2 0x147E JUMPI PUSH2 0x147D PUSH2 0x132D JUMP JUMPDEST JUMPDEST PUSH0 PUSH2 0x148B DUP5 DUP3 DUP6 ADD PUSH2 0x13B2 JUMP JUMPDEST SWAP2 POP POP SWAP3 SWAP2 POP POP JUMP JUMPDEST PUSH2 0x149D DUP2 PUSH2 0x1354 JUMP JUMPDEST DUP3 MSTORE POP POP JUMP JUMPDEST PUSH0 PUSH1 0x20 DUP3 ADD SWAP1 POP PUSH2 0x14B6 PUSH0 DUP4 ADD DUP5 PUSH2 0x1494 JUMP JUMPDEST SWAP3 SWAP2 POP POP JUMP JUMPDEST PUSH0 PUSH32 0xFFFFFFFFFFFFFFFFFFFF00000000000000000000000000000000000000000000 DUP3 AND SWAP1 POP SWAP2 SWAP1 POP JUMP JUMPDEST PUSH2 0x14F0 DUP2 PUSH2 0x14BC JUMP JUMPDEST DUP3 MSTORE POP POP JUMP JUMPDEST PUSH0 PUSH1 0x20 DUP3 ADD SWAP1 POP PUSH2 0x1509 PUSH0 DUP4 ADD DUP5 PUSH2 0x14E7 JUMP JUMPDEST SWAP3 SWAP2 POP POP JUMP JUMPDEST PUSH0 DUP2 ISZERO ISZERO SWAP1 POP SWAP2 SWAP1 POP JUMP JUMPDEST PUSH2 0x1523 DUP2 PUSH2 0x150F JUMP JUMPDEST DUP2 EQ PUSH2 0x152D JUMPI PUSH0 DUP1 REVERT JUMPDEST POP JUMP JUMPDEST PUSH0 DUP2 CALLDATALOAD SWAP1 POP PUSH2 0x153E DUP2 PUSH2 0x151A JUMP JUMPDEST SWAP3 SWAP2 POP POP JUMP JUMPDEST PUSH0 DUP1 PUSH1 0x40 DUP4 DUP6 SUB SLT ISZERO PUSH2 0x155A JUMPI PUSH2 0x1559 PUSH2 0x132D JUMP JUMPDEST JUMPDEST PUSH0 PUSH2 0x1567 DUP6 DUP3 DUP7 ADD PUSH2 0x137B JUMP JUMPDEST SWAP3 POP POP PUSH1 0x20 PUSH2 0x1578 DUP6 DUP3 DUP7 ADD PUSH2 0x1530 JUMP JUMPDEST SWAP2 POP POP SWAP3 POP SWAP3 SWAP1 POP JUMP JUMPDEST PUSH0 DUP1 REVERT JUMPDEST PUSH0 DUP1 REVERT JUMPDEST PUSH0 PUSH1 0x1F NOT PUSH1 0x1F DUP4 ADD AND SWAP1 POP SWAP2 SWAP1 POP JUMP JUMPDEST PUSH32 0x4E487B7100000000000000000000000000000000000000000000000000000000 PUSH0 MSTORE PUSH1 0x41 PUSH1 0x4 MSTORE PUSH1 0x24 PUSH0 REVERT JUMPDEST PUSH2 0x15D0 DUP3 PUSH2 0x158A JUMP JUMPDEST DUP2 ADD DUP2 DUP2 LT PUSH8 0xFFFFFFFFFFFFFFFF DUP3 GT OR ISZERO PUSH2 0x15EF JUMPI PUSH2 0x15EE PUSH2 0x159A JUMP JUMPDEST JUMPDEST DUP1 PUSH1 0x40 MSTORE POP POP POP JUMP JUMPDEST PUSH0 PUSH2 0x1601 PUSH2 0x1324 JUMP JUMPDEST SWAP1 POP PUSH2 0x160D DUP3 DUP3 PUSH2 0x15C7 JUMP JUMPDEST SWAP2 SWAP1 POP JUMP JUMPDEST PUSH0 PUSH8 0xFFFFFFFFFFFFFFFF DUP3 GT ISZERO PUSH2 0x162C JUMPI PUSH2 0x162B PUSH2 0x159A JUMP JUMPDEST JUMPDEST PUSH2 0x1635 DUP3 PUSH2 0x158A JUMP JUMPDEST SWAP1 POP PUSH1 0x20 DUP2 ADD SWAP1 POP SWAP2 SWAP1 POP JUMP JUMPDEST DUP3 DUP2 DUP4 CALLDATACOPY PUSH0 DUP4 DUP4 ADD MSTORE POP POP POP JUMP JUMPDEST PUSH0 PUSH2 0x1662 PUSH2 0x165D DUP5 PUSH2 0x1612 JUMP JUMPDEST PUSH2 0x15F8 JUMP JUMPDEST SWAP1 POP DUP3 DUP2 MSTORE PUSH1 0x20 DUP2 ADD DUP5 DUP5 DUP5 ADD GT ISZERO PUSH2 0x167E JUMPI PUSH2 0x167D PUSH2 0x1586 JUMP JUMPDEST JUMPDEST PUSH2 0x1689 DUP5 DUP3 DUP6 PUSH2 0x1642 JUMP JUMPDEST POP SWAP4 SWAP3 POP POP POP JUMP JUMPDEST PUSH0 DUP3 PUSH1 0x1F DUP4 ADD SLT PUSH2 0x16A5 JUMPI PUSH2 0x16A4 PUSH2 0x1582 JUMP JUMPDEST JUMPDEST DUP2 CALLDATALOAD PUSH2 0x16B5 DUP5 DUP3 PUSH1 0x20 DUP7 ADD PUSH2 0x1650 JUMP JUMPDEST SWAP2 POP POP SWAP3 SWAP2 POP POP JUMP JUMPDEST PUSH0 DUP1 PUSH0 DUP1 PUSH1 0x80 DUP6 DUP8 SUB SLT ISZERO PUSH2 0x16D6 JUMPI PUSH2 0x16D5 PUSH2 0x132D JUMP JUMPDEST JUMPDEST PUSH0 PUSH2 0x16E3 DUP8 DUP3 DUP9 ADD PUSH2 0x137B JUMP JUMPDEST SWAP5 POP POP PUSH1 0x20 PUSH2 0x16F4 DUP8 DUP3 DUP9 ADD PUSH2 0x137B JUMP JUMPDEST SWAP4 POP POP PUSH1 0x40 PUSH2 0x1705 DUP8 DUP3 DUP9 ADD PUSH2 0x13B2 JUMP JUMPDEST SWAP3 POP POP PUSH1 0x60 DUP6 ADD CALLDATALOAD PUSH8 0xFFFFFFFFFFFFFFFF DUP2 GT ISZERO PUSH2 0x1726 JUMPI PUSH2 0x1725 PUSH2 0x1331 JUMP JUMPDEST JUMPDEST PUSH2 0x1732 DUP8 DUP3 DUP9 ADD PUSH2 0x1691 JUMP JUMPDEST SWAP2 POP POP SWAP3 SWAP6 SWAP2 SWAP5 POP SWAP3 POP JUMP JUMPDEST PUSH0 DUP1 REVERT JUMPDEST PUSH0 DUP1 REVERT JUMPDEST PUSH0 DUP1 DUP4 PUSH1 0x1F DUP5 ADD SLT PUSH2 0x175B JUMPI PUSH2 0x175A PUSH2 0x1582 JUMP JUMPDEST JUMPDEST DUP3 CALLDATALOAD SWAP1 POP PUSH8 0xFFFFFFFFFFFFFFFF DUP2 GT ISZERO PUSH2 0x1778 JUMPI PUSH2 0x1777 PUSH2 0x173E JUMP JUMPDEST JUMPDEST PUSH1 0x20 DUP4 ADD SWAP2 POP DUP4 PUSH1 0x1 DUP3 MUL DUP4 ADD GT ISZERO PUSH2 0x1794 JUMPI PUSH2 0x1793 PUSH2 0x1742 JUMP JUMPDEST JUMPDEST SWAP3 POP SWAP3 SWAP1 POP JUMP JUMPDEST PUSH0 DUP1 PUSH0 DUP1 PUSH0 PUSH1 0x80 DUP7 DUP9 SUB SLT ISZERO PUSH2 0x17B4 JUMPI PUSH2 0x17B3 PUSH2 0x132D JUMP JUMPDEST JUMPDEST PUSH0 PUSH2 0x17C1 DUP9 DUP3 DUP10 ADD PUSH2 0x137B JUMP JUMPDEST SWAP6 POP POP PUSH1 0x20 PUSH2 0x17D2 DUP9 DUP3 DUP10 ADD PUSH2 0x137B JUMP JUMPDEST SWAP5 POP POP PUSH1 0x40 PUSH2 0x17E3 DUP9 DUP3 DUP10 ADD PUSH2 0x13B2 JUMP JUMPDEST SWAP4 POP POP PUSH1 0x60 DUP7 ADD CALLDATALOAD PUSH8 0xFFFFFFFFFFFFFFFF DUP2 GT ISZERO PUSH2 0x1804 JUMPI PUSH2 0x1803 PUSH2 0x1331 JUMP JUMPDEST JUMPDEST PUSH2 0x1810 DUP9 DUP3 DUP10 ADD PUSH2 0x1746 JUMP JUMPDEST SWAP3 POP SWAP3 POP POP SWAP3 SWAP6 POP SWAP3 SWAP6 SWAP1 SWAP4 POP JUMP JUMPDEST PUSH0 PUSH32 0xFFFFFFFF00000000000000000000000000000000000000000000000000000000 DUP3 AND SWAP1 POP SWAP2 SWAP1 POP JUMP JUMPDEST PUSH2 0x1853 DUP2 PUSH2 0x181F JUMP JUMPDEST DUP3 MSTORE POP POP JUMP JUMPDEST PUSH0 PUSH1 0x20 DUP3 ADD SWAP1 POP PUSH2 0x186C PUSH0 DUP4 ADD DUP5 PUSH2 0x184A JUMP JUMPDEST SWAP3 SWAP2 POP POP JUMP JUMPDEST PUSH0 DUP2 MLOAD SWAP1 POP SWAP2 SWAP1 POP JUMP JUMPDEST PUSH0 DUP3 DUP3 MSTORE PUSH1 0x20 DUP3 ADD SWAP1 POP SWAP3 SWAP2 POP POP JUMP JUMPDEST PUSH0 JUMPDEST DUP4 DUP2 LT ISZERO PUSH2 0x18A9 JUMPI DUP1 DUP3 ADD MLOAD DUP2 DUP5 ADD MSTORE PUSH1 0x20 DUP2 ADD SWAP1 POP PUSH2 0x188E JUMP JUMPDEST PUSH0 DUP5 DUP5 ADD MSTORE POP POP POP POP JUMP JUMPDEST PUSH0 PUSH2 0x18BE DUP3 PUSH2 0x1872 JUMP JUMPDEST PUSH2 0x18C8 DUP2 DUP6 PUSH2 0x187C JUMP JUMPDEST SWAP4 POP PUSH2 0x18D8 DUP2 DUP6 PUSH1 0x20 DUP7 ADD PUSH2 0x188C JUMP JUMPDEST PUSH2 0x18E1 DUP2 PUSH2 0x158A JUMP JUMPDEST DUP5 ADD SWAP2 POP POP SWAP3 SWAP2 POP POP JUMP JUMPDEST PUSH0 PUSH1 0x20 DUP3 ADD SWAP1 POP DUP2 DUP2 SUB PUSH0 DUP4 ADD MSTORE PUSH2 0x1904 DUP2 DUP5 PUSH2 0x18B4 JUMP JUMPDEST SWAP1 POP SWAP3 SWAP2 POP POP JUMP JUMPDEST PUSH0 DUP1 PUSH1 0x40 DUP4 DUP6 SUB SLT ISZERO PUSH2 0x1922 JUMPI PUSH2 0x1921 PUSH2 0x132D JUMP JUMPDEST JUMPDEST PUSH0 PUSH2 0x192F DUP6 DUP3 DUP7 ADD PUSH2 0x137B JUMP JUMPDEST SWAP3 POP POP PUSH1 0x20 PUSH2 0x1940 DUP6 DUP3 DUP7 ADD PUSH2 0x13B2 JUMP JUMPDEST SWAP2 POP POP SWAP3 POP SWAP3 SWAP1 POP JUMP JUMPDEST PUSH0 DUP1 PUSH1 0x40 DUP4 DUP6 SUB SLT ISZERO PUSH2 0x1960 JUMPI PUSH2 0x195F PUSH2 0x132D JUMP JUMPDEST JUMPDEST PUSH0 PUSH2 0x196D DUP6 DUP3 DUP7 ADD PUSH2 0x137B JUMP JUMPDEST SWAP3 POP POP PUSH1 0x20 PUSH2 0x197E DUP6 DUP3 DUP7 ADD PUSH2 0x137B JUMP JUMPDEST SWAP2 POP POP SWAP3 POP SWAP3 SWAP1 POP JUMP JUMPDEST PUSH2 0x1991 DUP2 PUSH2 0x150F JUMP JUMPDEST DUP3 MSTORE POP POP JUMP JUMPDEST PUSH0 PUSH1 0x20 DUP3 ADD SWAP1 POP PUSH2 0x19AA PUSH0 DUP4 ADD DUP5 PUSH2 0x1988 JUMP JUMPDEST SWAP3 SWAP2 POP POP JUMP JUMPDEST PUSH32 0x4E487B7100000000000000000000000000000000000000000000000000000000 PUSH0 MSTORE PUSH1 0x32 PUSH1 0x4 MSTORE PUSH1 0x24 PUSH0 REVERT JUMPDEST PUSH32 0x546865207472616E73666572206F66207468697320746F6B656E206973206375 PUSH0 DUP3 ADD MSTORE PUSH32 0x7272656E746C792062616E6E6564000000000000000000000000000000000000 PUSH1 0x20 DUP3 ADD MSTORE POP JUMP JUMPDEST PUSH0 PUSH2 0x1A37 PUSH1 0x2E DUP4 PUSH2 0x187C JUMP JUMPDEST SWAP2 POP PUSH2 0x1A42 DUP3 PUSH2 0x19DD JUMP JUMPDEST PUSH1 0x40 DUP3 ADD SWAP1 POP SWAP2 SWAP1 POP JUMP JUMPDEST PUSH0 PUSH1 0x20 DUP3 ADD SWAP1 POP DUP2 DUP2 SUB PUSH0 DUP4 ADD MSTORE PUSH2 0x1A64 DUP2 PUSH2 0x1A2B JUMP JUMPDEST SWAP1 POP SWAP2 SWAP1 POP JUMP JUMPDEST PUSH0 DUP2 SWAP1 POP SWAP2 SWAP1 POP JUMP JUMPDEST PUSH0 DUP2 SWAP1 POP SWAP2 SWAP1 POP JUMP JUMPDEST PUSH0 PUSH2 0x1A97 PUSH2 0x1A92 PUSH2 0x1A8D DUP5 PUSH2 0x138F JUMP JUMPDEST PUSH2 0x1A74 JUMP JUMPDEST PUSH2 0x1A6B JUMP JUMPDEST SWAP1 POP SWAP2 SWAP1 POP JUMP JUMPDEST PUSH2 0x1AA7 DUP2 PUSH2 0x1A7D JUMP JUMPDEST DUP3 MSTORE POP POP JUMP JUMPDEST PUSH0 PUSH1 0x40 DUP3 ADD SWAP1 POP PUSH2 0x1AC0 PUSH0 DUP4 ADD DUP6 PUSH2 0x1494 JUMP JUMPDEST PUSH2 0x1ACD PUSH1 0x20 DUP4 ADD DUP5 PUSH2 0x1A9E JUMP JUMPDEST SWAP4 SWAP3 POP POP POP JUMP JUMPDEST PUSH0 PUSH1 0x60 DUP3 ADD SWAP1 POP PUSH2 0x1AE7 PUSH0 DUP4 ADD DUP7 PUSH2 0x1494 JUMP JUMPDEST PUSH2 0x1AF4 PUSH1 0x20 DUP4 ADD DUP6 PUSH2 0x1A9E JUMP JUMPDEST PUSH2 0x1B01 PUSH1 0x40 DUP4 ADD DUP5 PUSH2 0x1494 JUMP JUMPDEST SWAP5 SWAP4 POP POP POP POP JUMP JUMPDEST PUSH32 0x54686520696E70757420616464726573732063616E6E6F74206265207A65726F PUSH0 DUP3 ADD MSTORE POP JUMP JUMPDEST PUSH0 PUSH2 0x1B3D PUSH1 0x20 DUP4 PUSH2 0x187C JUMP JUMPDEST SWAP2 POP PUSH2 0x1B48 DUP3 PUSH2 0x1B09 JUMP JUMPDEST PUSH1 0x20 DUP3 ADD SWAP1 POP SWAP2 SWAP1 POP JUMP JUMPDEST PUSH0 PUSH1 0x20 DUP3 ADD SWAP1 POP DUP2 DUP2 SUB PUSH0 DUP4 ADD MSTORE PUSH2 0x1B6A DUP2 PUSH2 0x1B31 JUMP JUMPDEST SWAP1 POP SWAP2 SWAP1 POP JUMP JUMPDEST PUSH32 0x5468652061646472657373206F6620746865206F776E657220616E6420746865 PUSH0 DUP3 ADD MSTORE PUSH32 0x206F70657261746F72206D75737420626520646966666572656E740000000000 PUSH1 0x20 DUP3 ADD MSTORE POP JUMP JUMPDEST PUSH0 PUSH2 0x1BCB PUSH1 0x3B DUP4 PUSH2 0x187C JUMP JUMPDEST SWAP2 POP PUSH2 0x1BD6 DUP3 PUSH2 0x1B71 JUMP JUMPDEST PUSH1 0x40 DUP3 ADD SWAP1 POP SWAP2 SWAP1 POP JUMP JUMPDEST PUSH0 PUSH1 0x20 DUP3 ADD SWAP1 POP DUP2 DUP2 SUB PUSH0 DUP4 ADD MSTORE PUSH2 0x1BF8 DUP2 PUSH2 0x1BBF JUMP JUMPDEST SWAP1 POP SWAP2 SWAP1 POP JUMP JUMPDEST PUSH0 DUP2 SWAP1 POP SWAP3 SWAP2 POP POP JUMP JUMPDEST PUSH0 PUSH2 0x1C13 DUP3 PUSH2 0x1872 JUMP JUMPDEST PUSH2 0x1C1D DUP2 DUP6 PUSH2 0x1BFF JUMP JUMPDEST SWAP4 POP PUSH2 0x1C2D DUP2 DUP6 PUSH1 0x20 DUP7 ADD PUSH2 0x188C JUMP JUMPDEST DUP1 DUP5 ADD SWAP2 POP POP SWAP3 SWAP2 POP POP JUMP JUMPDEST PUSH0 PUSH2 0x1C44 DUP3 DUP6 PUSH2 0x1C09 JUMP JUMPDEST SWAP2 POP PUSH2 0x1C50 DUP3 DUP5 PUSH2 0x1C09 JUMP JUMPDEST SWAP2 POP DUP2 SWAP1 POP SWAP4 SWAP3 POP POP POP JUMP JUMPDEST PUSH32 0x54686520494420656E746572656420697320696E76616C69642E204974206D75 PUSH0 DUP3 ADD MSTORE PUSH32 0x737420626520696E207468697320696E74657276616C2030203C206964203C3D PUSH1 0x20 DUP3 ADD MSTORE PUSH32 0x2063757272656E7420746F6B656E730000000000000000000000000000000000 PUSH1 0x40 DUP3 ADD MSTORE POP JUMP JUMPDEST PUSH0 PUSH2 0x1CDC PUSH1 0x4F DUP4 PUSH2 0x187C JUMP JUMPDEST SWAP2 POP PUSH2 0x1CE7 DUP3 PUSH2 0x1C5C JUMP JUMPDEST PUSH1 0x60 DUP3 ADD SWAP1 POP SWAP2 SWAP1 POP JUMP JUMPDEST PUSH0 PUSH1 0x20 DUP3 ADD SWAP1 POP DUP2 DUP2 SUB PUSH0 DUP4 ADD MSTORE PUSH2 0x1D09 DUP2 PUSH2 0x1CD0 JUMP JUMPDEST SWAP1 POP SWAP2 SWAP1 POP JUMP JUMPDEST PUSH32 0x4E487B7100000000000000000000000000000000000000000000000000000000 PUSH0 MSTORE PUSH1 0x11 PUSH1 0x4 MSTORE PUSH1 0x24 PUSH0 REVERT JUMPDEST PUSH0 PUSH2 0x1D47 DUP3 PUSH2 0x138F JUMP JUMPDEST SWAP2 POP PUSH2 0xFFFF DUP3 SUB PUSH2 0x1D5B JUMPI PUSH2 0x1D5A PUSH2 0x1D10 JUMP JUMPDEST JUMPDEST PUSH1 0x1 DUP3 ADD SWAP1 POP SWAP2 SWAP1 POP JUMP JUMPDEST PUSH0 DUP2 MLOAD SWAP1 POP SWAP2 SWAP1 POP JUMP JUMPDEST PUSH0 DUP3 DUP3 MSTORE PUSH1 0x20 DUP3 ADD SWAP1 POP SWAP3 SWAP2 POP POP JUMP JUMPDEST PUSH0 PUSH2 0x1D8A DUP3 PUSH2 0x1D66 JUMP JUMPDEST PUSH2 0x1D94 DUP2 DUP6 PUSH2 0x1D70 JUMP JUMPDEST SWAP4 POP PUSH2 0x1DA4 DUP2 DUP6 PUSH1 0x20 DUP7 ADD PUSH2 0x188C JUMP JUMPDEST PUSH2 0x1DAD DUP2 PUSH2 0x158A JUMP JUMPDEST DUP5 ADD SWAP2 POP POP SWAP3 SWAP2 POP POP JUMP JUMPDEST PUSH0 PUSH1 0x80 DUP3 ADD SWAP1 POP PUSH2 0x1DCB PUSH0 DUP4 ADD DUP8 PUSH2 0x1494 JUMP JUMPDEST PUSH2 0x1DD8 PUSH1 0x20 DUP4 ADD DUP7 PUSH2 0x1494 JUMP JUMPDEST PUSH2 0x1DE5 PUSH1 0x40 DUP4 ADD DUP6 PUSH2 0x1441 JUMP JUMPDEST DUP2 DUP2 SUB PUSH1 0x60 DUP4 ADD MSTORE PUSH2 0x1DF7 DUP2 DUP5 PUSH2 0x1D80 JUMP JUMPDEST SWAP1 POP SWAP6 SWAP5 POP POP POP POP POP JUMP JUMPDEST PUSH2 0x1E0B DUP2 PUSH2 0x181F JUMP JUMPDEST DUP2 EQ PUSH2 0x1E15 JUMPI PUSH0 DUP1 REVERT JUMPDEST POP JUMP JUMPDEST PUSH0 DUP2 MLOAD SWAP1 POP PUSH2 0x1E26 DUP2 PUSH2 0x1E02 JUMP JUMPDEST SWAP3 SWAP2 POP POP JUMP JUMPDEST PUSH0 PUSH1 0x20 DUP3 DUP5 SUB SLT ISZERO PUSH2 0x1E41 JUMPI PUSH2 0x1E40 PUSH2 0x132D JUMP JUMPDEST JUMPDEST PUSH0 PUSH2 0x1E4E DUP5 DUP3 DUP6 ADD PUSH2 0x1E18 JUMP JUMPDEST SWAP2 POP POP SWAP3 SWAP2 POP POP JUMP JUMPDEST PUSH32 0x4E487B7100000000000000000000000000000000000000000000000000000000 PUSH0 MSTORE PUSH1 0x12 PUSH1 0x4 MSTORE PUSH1 0x24 PUSH0 REVERT INVALID LOG2 PUSH5 0x6970667358 0x22 SLT KECCAK256 INVALID PUSH5 0xADA3E496A0 SWAP13 ADDMOD PUSH18 0x5EBCE06E9A2C9A7720DEE2DD729CDB6FC08D 0xDE 0x5D AND JUMP PUSH5 0x736F6C6343 STOP ADDMOD EQ STOP CALLER "
				},
				"gasEstimates": {
					"creation": {
						"codeDepositCost": "1573200",
						"executionCost": "infinite",
						"totalCost": "infinite"
					},
					"external": {
						"approve(address,uint16)": "infinite",
						"balanceOf(address)": "3034",
						"getApproved(uint16)": "7463",
						"isApprovedForAll(address,address)": "infinite",
						"name()": "2474",
						"onERC721Received(address,address,uint16,bytes)": "infinite",
						"ownerOf(uint16)": "5213",
						"safeTransferFrom(address,address,uint16)": "infinite",
						"safeTransferFrom(address,address,uint16,bytes)": "infinite",
						"setApprovalForAll(address,bool)": "infinite",
						"symbol()": "2547",
						"tokenURI(uint16)": "5541",
						"transferFrom(address,address,uint16)": "infinite"
					},
					"internal": {
						"_aprove(address,uint16,address)": "26307",
						"_baseURI()": "infinite",
						"_checkOnERC721Received(address,address,uint16,bytes memory)": "infinite",
						"_requireOwned(uint16)": "infinite",
						"_update(address,uint16,address)": "infinite"
					}
				},
				"methodIdentifiers": {
					"approve(address,uint16)": "e560ca43",
					"balanceOf(address)": "70a08231",
					"getApproved(uint16)": "93b871f2",
					"isApprovedForAll(address,address)": "e985e9c5",
					"name()": "06fdde03",
					"onERC721Received(address,address,uint16,bytes)": "b1cff380",
					"ownerOf(uint16)": "82a7cf1e",
					"safeTransferFrom(address,address,uint16)": "07394401",
					"safeTransferFrom(address,address,uint16,bytes)": "b145ae31",
					"setApprovalForAll(address,bool)": "a22cb465",
					"symbol()": "95d89b41",
					"tokenURI(uint16)": "dd7d8440",
					"transferFrom(address,address,uint16)": "4ec3dcfe"
				}
			},
			"storageLayout": {
				"storage": [
					{
						"astId": 1880,
						"contract": "contracts/ERC721TokenContractName.sol:ERC721TokenContractName",
						"label": "_name",
						"offset": 0,
						"slot": "0",
						"type": "t_bytes20"
					},
					{
						"astId": 1882,
						"contract": "contracts/ERC721TokenContractName.sol:ERC721TokenContractName",
						"label": "_symbol",
						"offset": 20,
						"slot": "0",
						"type": "t_bytes10"
					},
					{
						"astId": 1890,
						"contract": "contracts/ERC721TokenContractName.sol:ERC721TokenContractName",
						"label": "mintInfo",
						"offset": 0,
						"slot": "1",
						"type": "t_struct(MintInfo)1887_storage"
					},
					{
						"astId": 1894,
						"contract": "contracts/ERC721TokenContractName.sol:ERC721TokenContractName",
						"label": "_owners",
						"offset": 0,
						"slot": "2",
						"type": "t_array(t_address)1201_storage"
					},
					{
						"astId": 1898,
						"contract": "contracts/ERC721TokenContractName.sol:ERC721TokenContractName",
						"label": "ban",
						"offset": 0,
						"slot": "1203",
						"type": "t_array(t_bool)1201_storage"
					},
					{
						"astId": 1904,
						"contract": "contracts/ERC721TokenContractName.sol:ERC721TokenContractName",
						"label": "_balanceAndTokId",
						"offset": 0,
						"slot": "1241",
						"type": "t_mapping(t_address,t_array(t_uint16)1201_storage)"
					},
					{
						"astId": 1908,
						"contract": "contracts/ERC721TokenContractName.sol:ERC721TokenContractName",
						"label": "_tokenApprovals",
						"offset": 0,
						"slot": "1242",
						"type": "t_mapping(t_uint16,t_address)"
					},
					{
						"astId": 1914,
						"contract": "contracts/ERC721TokenContractName.sol:ERC721TokenContractName",
						"label": "_operatorApprovals",
						"offset": 0,
						"slot": "1243",
						"type": "t_mapping(t_address,t_mapping(t_address,t_bool))"
					}
				],
				"types": {
					"t_address": {
						"encoding": "inplace",
						"label": "address",
						"numberOfBytes": "20"
					},
					"t_array(t_address)1201_storage": {
						"base": "t_address",
						"encoding": "inplace",
						"label": "address[1201]",
						"numberOfBytes": "38432"
					},
					"t_array(t_bool)1201_storage": {
						"base": "t_bool",
						"encoding": "inplace",
						"label": "bool[1201]",
						"numberOfBytes": "1216"
					},
					"t_array(t_uint16)1201_storage": {
						"base": "t_uint16",
						"encoding": "inplace",
						"label": "uint16[1201]",
						"numberOfBytes": "2432"
					},
					"t_bool": {
						"encoding": "inplace",
						"label": "bool",
						"numberOfBytes": "1"
					},
					"t_bytes10": {
						"encoding": "inplace",
						"label": "bytes10",
						"numberOfBytes": "10"
					},
					"t_bytes20": {
						"encoding": "inplace",
						"label": "bytes20",
						"numberOfBytes": "20"
					},
					"t_mapping(t_address,t_array(t_uint16)1201_storage)": {
						"encoding": "mapping",
						"key": "t_address",
						"label": "mapping(address => uint16[1201])",
						"numberOfBytes": "32",
						"value": "t_array(t_uint16)1201_storage"
					},
					"t_mapping(t_address,t_bool)": {
						"encoding": "mapping",
						"key": "t_address",
						"label": "mapping(address => bool)",
						"numberOfBytes": "32",
						"value": "t_bool"
					},
					"t_mapping(t_address,t_mapping(t_address,t_bool))": {
						"encoding": "mapping",
						"key": "t_address",
						"label": "mapping(address => mapping(address => bool))",
						"numberOfBytes": "32",
						"value": "t_mapping(t_address,t_bool)"
					},
					"t_mapping(t_uint16,t_address)": {
						"encoding": "mapping",
						"key": "t_uint16",
						"label": "mapping(uint16 => address)",
						"numberOfBytes": "32",
						"value": "t_address"
					},
					"t_struct(MintInfo)1887_storage": {
						"encoding": "inplace",
						"label": "struct ERC721TokenContractName.MintInfo",
						"members": [
							{
								"astId": 1884,
								"contract": "contracts/ERC721TokenContractName.sol:ERC721TokenContractName",
								"label": "maxMinted",
								"offset": 0,
								"slot": "0",
								"type": "t_uint16"
							},
							{
								"astId": 1886,
								"contract": "contracts/ERC721TokenContractName.sol:ERC721TokenContractName",
								"label": "currentTokens",
								"offset": 2,
								"slot": "0",
								"type": "t_uint16"
							}
						],
						"numberOfBytes": "32"
					},
					"t_uint16": {
						"encoding": "inplace",
						"label": "uint16",
						"numberOfBytes": "2"
					}
				}
			},
			"userdoc": {
				"kind": "user",
				"methods": {},
				"version": 1
			}
		}
	}
}