{
	"contracts/Governance.sol": {
		"TokenNamGovernor": {
			"abi": [
				{
					"inputs": [
						{
							"internalType": "string",
							"name": "name_",
							"type": "string"
						}
					],
					"stateMutability": "nonpayable",
					"type": "constructor"
				},
				{
					"inputs": [
						{
							"internalType": "address",
							"name": "ballot",
							"type": "address"
						}
					],
					"name": "AddressNotReturnVoteCount",
					"type": "error"
				},
				{
					"inputs": [
						{
							"internalType": "uint256",
							"name": "proposalId",
							"type": "uint256"
						}
					],
					"name": "GovernorNonexistentProposal",
					"type": "error"
				},
				{
					"inputs": [],
					"name": "InvalidShortString",
					"type": "error"
				},
				{
					"inputs": [
						{
							"internalType": "string",
							"name": "str",
							"type": "string"
						}
					],
					"name": "StringTooLong",
					"type": "error"
				},
				{
					"anonymous": false,
					"inputs": [],
					"name": "EIP712DomainChanged",
					"type": "event"
				},
				{
					"inputs": [],
					"name": "CLOCK_MODE",
					"outputs": [
						{
							"internalType": "string",
							"name": "",
							"type": "string"
						}
					],
					"stateMutability": "view",
					"type": "function"
				},
				{
					"inputs": [],
					"name": "Clock",
					"outputs": [
						{
							"internalType": "uint256",
							"name": "",
							"type": "uint256"
						}
					],
					"stateMutability": "view",
					"type": "function"
				},
				{
					"inputs": [],
					"name": "eip712Domain",
					"outputs": [
						{
							"internalType": "bytes1",
							"name": "fields",
							"type": "bytes1"
						},
						{
							"internalType": "string",
							"name": "name",
							"type": "string"
						},
						{
							"internalType": "string",
							"name": "version",
							"type": "string"
						},
						{
							"internalType": "uint256",
							"name": "chainId",
							"type": "uint256"
						},
						{
							"internalType": "address",
							"name": "verifyingContract",
							"type": "address"
						},
						{
							"internalType": "bytes32",
							"name": "salt",
							"type": "bytes32"
						},
						{
							"internalType": "uint256[]",
							"name": "extensions",
							"type": "uint256[]"
						}
					],
					"stateMutability": "view",
					"type": "function"
				},
				{
					"inputs": [
						{
							"internalType": "address",
							"name": "target",
							"type": "address"
						},
						{
							"internalType": "uint256",
							"name": "value",
							"type": "uint256"
						},
						{
							"internalType": "bytes",
							"name": "callData",
							"type": "bytes"
						},
						{
							"internalType": "bytes32",
							"name": "descriptionHash",
							"type": "bytes32"
						}
					],
					"name": "hashProposal",
					"outputs": [
						{
							"internalType": "uint256",
							"name": "",
							"type": "uint256"
						}
					],
					"stateMutability": "pure",
					"type": "function"
				},
				{
					"inputs": [],
					"name": "name",
					"outputs": [
						{
							"internalType": "string",
							"name": "",
							"type": "string"
						}
					],
					"stateMutability": "view",
					"type": "function"
				},
				{
					"inputs": [
						{
							"internalType": "address",
							"name": "applicantAdd_",
							"type": "address"
						},
						{
							"internalType": "address",
							"name": "storageAdd_",
							"type": "address"
						}
					],
					"name": "setConnectors",
					"outputs": [],
					"stateMutability": "nonpayable",
					"type": "function"
				},
				{
					"inputs": [
						{
							"internalType": "uint256",
							"name": "proposalId",
							"type": "uint256"
						}
					],
					"name": "state",
					"outputs": [
						{
							"internalType": "enum TokenNamGovernor.ProposalState",
							"name": "",
							"type": "uint8"
						}
					],
					"stateMutability": "nonpayable",
					"type": "function"
				},
				{
					"inputs": [],
					"name": "version",
					"outputs": [
						{
							"internalType": "string",
							"name": "",
							"type": "string"
						}
					],
					"stateMutability": "pure",
					"type": "function"
				}
			],
			"devdoc": {
				"events": {
					"EIP712DomainChanged()": {
						"details": "MAY be emitted to signal that the domain could have changed."
					}
				},
				"kind": "dev",
				"methods": {
					"eip712Domain()": {
						"details": "See {IERC-5267}."
					}
				},
				"version": 1
			},
			"evm": {
				"assembly": "    /* \"contracts/Governance.sol\":206:3582  contract TokenNamGovernor is EIP712 {... */\n  mstore(0x40, 0x0160)\n    /* \"contracts/Governance.sol\":856:948  constructor (string memory name_) EIP712 (name_, version()) {... */\n  callvalue\n  dup1\n  iszero\n  tag_1\n  jumpi\n  0x00\n  dup1\n  revert\ntag_1:\n  pop\n  mload(0x40)\n  sub(codesize, bytecodeSize)\n  dup1\n  bytecodeSize\n  dup4\n  codecopy\n  dup2\n  dup2\n  add\n  0x40\n  mstore\n  dup2\n  add\n  swap1\n  tag_2\n  swap2\n  swap1\n  tag_3\n  jump\t// in\ntag_2:\n    /* \"contracts/Governance.sol\":898:903  name_ */\n  dup1\n    /* \"contracts/Governance.sol\":905:914  version() */\n  tag_5\n    /* \"contracts/Governance.sol\":905:912  version */\n  shl(0x20, tag_6)\n    /* \"contracts/Governance.sol\":905:914  version() */\n  0x20\n  shr\n  jump\t// in\ntag_5:\n    /* \"@openzeppelin/contracts/utils/cryptography/EIP712.sol\":3401:3446  name.toShortStringWithFallback(_nameFallback) */\n  tag_9\n    /* \"@openzeppelin/contracts/utils/cryptography/EIP712.sol\":3432:3445  _nameFallback */\n  0x00\n    /* \"@openzeppelin/contracts/utils/cryptography/EIP712.sol\":3401:3405  name */\n  dup4\n    /* \"@openzeppelin/contracts/utils/cryptography/EIP712.sol\":3401:3431  name.toShortStringWithFallback */\n  shl(0x20, tag_10)\n  swap1\n    /* \"@openzeppelin/contracts/utils/cryptography/EIP712.sol\":3401:3446  name.toShortStringWithFallback(_nameFallback) */\n  swap2\n  swap1\n  0x20\n  shr\n  jump\t// in\ntag_9:\n    /* \"@openzeppelin/contracts/utils/cryptography/EIP712.sol\":3393:3446  _name = name.toShortStringWithFallback(_nameFallback) */\n  0x0120\n  dup2\n  dup2\n  mstore\n  pop\n  pop\n    /* \"@openzeppelin/contracts/utils/cryptography/EIP712.sol\":3467:3518  version.toShortStringWithFallback(_versionFallback) */\n  tag_11\n    /* \"@openzeppelin/contracts/utils/cryptography/EIP712.sol\":3501:3517  _versionFallback */\n  0x01\n    /* \"@openzeppelin/contracts/utils/cryptography/EIP712.sol\":3467:3474  version */\n  dup3\n    /* \"@openzeppelin/contracts/utils/cryptography/EIP712.sol\":3467:3500  version.toShortStringWithFallback */\n  shl(0x20, tag_10)\n  swap1\n    /* \"@openzeppelin/contracts/utils/cryptography/EIP712.sol\":3467:3518  version.toShortStringWithFallback(_versionFallback) */\n  swap2\n  swap1\n  0x20\n  shr\n  jump\t// in\ntag_11:\n    /* \"@openzeppelin/contracts/utils/cryptography/EIP712.sol\":3456:3518  _version = version.toShortStringWithFallback(_versionFallback) */\n  0x0140\n  dup2\n  dup2\n  mstore\n  pop\n  pop\n    /* \"@openzeppelin/contracts/utils/cryptography/EIP712.sol\":3558:3562  name */\n  dup2\n    /* \"@openzeppelin/contracts/utils/cryptography/EIP712.sol\":3542:3564  keccak256(bytes(name)) */\n  dup1\n  mload\n  swap1\n  0x20\n  add\n  keccak256\n    /* \"@openzeppelin/contracts/utils/cryptography/EIP712.sol\":3528:3564  _hashedName = keccak256(bytes(name)) */\n  0xe0\n  dup2\n  dup2\n  mstore\n  pop\n  pop\n    /* \"@openzeppelin/contracts/utils/cryptography/EIP712.sol\":3607:3614  version */\n  dup1\n    /* \"@openzeppelin/contracts/utils/cryptography/EIP712.sol\":3591:3616  keccak256(bytes(version)) */\n  dup1\n  mload\n  swap1\n  0x20\n  add\n  keccak256\n    /* \"@openzeppelin/contracts/utils/cryptography/EIP712.sol\":3574:3616  _hashedVersion = keccak256(bytes(version)) */\n  0x0100\n  dup2\n  dup2\n  mstore\n  pop\n  pop\n    /* \"@openzeppelin/contracts/utils/cryptography/EIP712.sol\":3644:3657  block.chainid */\n  chainid\n    /* \"@openzeppelin/contracts/utils/cryptography/EIP712.sol\":3627:3657  _cachedChainId = block.chainid */\n  0xa0\n  dup2\n  dup2\n  mstore\n  pop\n  pop\n    /* \"@openzeppelin/contracts/utils/cryptography/EIP712.sol\":3692:3715  _buildDomainSeparator() */\n  tag_12\n    /* \"@openzeppelin/contracts/utils/cryptography/EIP712.sol\":3692:3713  _buildDomainSeparator */\n  shl(0x20, tag_13)\n    /* \"@openzeppelin/contracts/utils/cryptography/EIP712.sol\":3692:3715  _buildDomainSeparator() */\n  0x20\n  shr\n  jump\t// in\ntag_12:\n    /* \"@openzeppelin/contracts/utils/cryptography/EIP712.sol\":3667:3715  _cachedDomainSeparator = _buildDomainSeparator() */\n  0x80\n  dup2\n  dup2\n  mstore\n  pop\n  pop\n    /* \"@openzeppelin/contracts/utils/cryptography/EIP712.sol\":3747:3751  this */\n  address\n    /* \"@openzeppelin/contracts/utils/cryptography/EIP712.sol\":3725:3752  _cachedThis = address(this) */\n  0xffffffffffffffffffffffffffffffffffffffff\n  and\n  0xc0\n  dup2\n  0xffffffffffffffffffffffffffffffffffffffff\n  and\n  dup2\n  mstore\n  pop\n  pop\n    /* \"@openzeppelin/contracts/utils/cryptography/EIP712.sol\":3328:3759  constructor(string memory name, string memory version) {... */\n  pop\n  pop\n    /* \"contracts/Governance.sol\":935:940  name_ */\n  dup1\n    /* \"contracts/Governance.sol\":927:932  _name */\n  0x03\n    /* \"contracts/Governance.sol\":927:940  _name = name_ */\n  swap1\n  dup2\n  tag_15\n  swap2\n  swap1\n  tag_16\n  jump\t// in\ntag_15:\n  pop\n    /* \"contracts/Governance.sol\":856:948  constructor (string memory name_) EIP712 (name_, version()) {... */\n  pop\n    /* \"contracts/Governance.sol\":206:3582  contract TokenNamGovernor is EIP712 {... */\n  jump(tag_17)\n    /* \"contracts/Governance.sol\":1047:1131  function version() public pure returns (string memory) {... */\ntag_6:\n    /* \"contracts/Governance.sol\":1087:1100  string memory */\n  0x60\n    /* \"contracts/Governance.sol\":1113:1123  return \"1\" */\n  mload(0x40)\n  dup1\n  0x40\n  add\n  0x40\n  mstore\n  dup1\n  0x01\n  dup2\n  mstore\n  0x20\n  add\n  0x3100000000000000000000000000000000000000000000000000000000000000\n  dup2\n  mstore\n  pop\n  swap1\n  pop\n    /* \"contracts/Governance.sol\":1047:1131  function version() public pure returns (string memory) {... */\n  swap1\n  jump\t// out\n    /* \"@openzeppelin/contracts/utils/ShortStrings.sol\":2914:3254  function toShortStringWithFallback(string memory value, string storage store) internal returns (ShortString) {... */\ntag_10:\n    /* \"@openzeppelin/contracts/utils/ShortStrings.sol\":3010:3021  ShortString */\n  0x00\n    /* \"@openzeppelin/contracts/utils/ShortStrings.sol\":3059:3061  32 */\n  0x20\n    /* \"@openzeppelin/contracts/utils/ShortStrings.sol\":3043:3048  value */\n  dup4\n    /* \"@openzeppelin/contracts/utils/ShortStrings.sol\":3037:3056  bytes(value).length */\n  mload\n    /* \"@openzeppelin/contracts/utils/ShortStrings.sol\":3037:3061  bytes(value).length < 32 */\n  lt\n    /* \"@openzeppelin/contracts/utils/ShortStrings.sol\":3033:3248  if (bytes(value).length < 32) {... */\n  iszero\n  tag_20\n  jumpi\n    /* \"@openzeppelin/contracts/utils/ShortStrings.sol\":3084:3104  toShortString(value) */\n  tag_21\n    /* \"@openzeppelin/contracts/utils/ShortStrings.sol\":3098:3103  value */\n  dup4\n    /* \"@openzeppelin/contracts/utils/ShortStrings.sol\":3084:3097  toShortString */\n  shl(0x20, tag_22)\n    /* \"@openzeppelin/contracts/utils/ShortStrings.sol\":3084:3104  toShortString(value) */\n  0x20\n  shr\n  jump\t// in\ntag_21:\n    /* \"@openzeppelin/contracts/utils/ShortStrings.sol\":3077:3104  return toShortString(value) */\n  swap1\n  pop\n  jump(tag_19)\n    /* \"@openzeppelin/contracts/utils/ShortStrings.sol\":3033:3248  if (bytes(value).length < 32) {... */\ntag_20:\n    /* \"@openzeppelin/contracts/utils/ShortStrings.sol\":3176:3181  value */\n  dup3\n    /* \"@openzeppelin/contracts/utils/ShortStrings.sol\":3135:3167  StorageSlot.getStringSlot(store) */\n  tag_24\n    /* \"@openzeppelin/contracts/utils/ShortStrings.sol\":3161:3166  store */\n  dup4\n    /* \"@openzeppelin/contracts/utils/ShortStrings.sol\":3135:3160  StorageSlot.getStringSlot */\n  shl(0x20, tag_25)\n    /* \"@openzeppelin/contracts/utils/ShortStrings.sol\":3135:3167  StorageSlot.getStringSlot(store) */\n  0x20\n  shr\n  jump\t// in\ntag_24:\n    /* \"@openzeppelin/contracts/utils/ShortStrings.sol\":3135:3173  StorageSlot.getStringSlot(store).value */\n  0x00\n  add\n    /* \"@openzeppelin/contracts/utils/ShortStrings.sol\":3135:3181  StorageSlot.getStringSlot(store).value = value */\n  swap1\n  dup2\n  tag_26\n  swap2\n  swap1\n  tag_16\n  jump\t// in\ntag_26:\n  pop\n    /* \"@openzeppelin/contracts/utils/ShortStrings.sol\":1390:1456  0x00000000000000000000000000000000000000000000000000000000000000FF */\n  0xff\n    /* \"@openzeppelin/contracts/utils/ShortStrings.sol\":3219:3236  FALLBACK_SENTINEL */\n  0x00\n  shl\n    /* \"@openzeppelin/contracts/utils/ShortStrings.sol\":3195:3237  return ShortString.wrap(FALLBACK_SENTINEL) */\n  swap1\n  pop\n    /* \"@openzeppelin/contracts/utils/ShortStrings.sol\":2914:3254  function toShortStringWithFallback(string memory value, string storage store) internal returns (ShortString) {... */\ntag_19:\n  swap3\n  swap2\n  pop\n  pop\n  jump\t// out\n    /* \"@openzeppelin/contracts/utils/cryptography/EIP712.sol\":4113:4292  function _buildDomainSeparator() private view returns (bytes32) {... */\ntag_13:\n    /* \"@openzeppelin/contracts/utils/cryptography/EIP712.sol\":4168:4175  bytes32 */\n  0x00\n    /* \"@openzeppelin/contracts/utils/cryptography/EIP712.sol\":2079:2174  keccak256(\"EIP712Domain(string name,string version,uint256 chainId,address verifyingContract)\") */\n  0x8b73c3c69bb8fe3d512ecc4cf759cc79239f7b179b0ffacaa9a75d522b39400f\n    /* \"@openzeppelin/contracts/utils/cryptography/EIP712.sol\":4226:4237  _hashedName */\n  mload(0xe0)\n    /* \"@openzeppelin/contracts/utils/cryptography/EIP712.sol\":4239:4253  _hashedVersion */\n  mload(0x0100)\n    /* \"@openzeppelin/contracts/utils/cryptography/EIP712.sol\":4255:4268  block.chainid */\n  chainid\n    /* \"@openzeppelin/contracts/utils/cryptography/EIP712.sol\":4278:4282  this */\n  address\n    /* \"@openzeppelin/contracts/utils/cryptography/EIP712.sol\":4204:4284  abi.encode(TYPE_HASH, _hashedName, _hashedVersion, block.chainid, address(this)) */\n  add(0x20, mload(0x40))\n  tag_28\n  swap6\n  swap5\n  swap4\n  swap3\n  swap2\n  swap1\n  tag_29\n  jump\t// in\ntag_28:\n  mload(0x40)\n  0x20\n  dup2\n  dup4\n  sub\n  sub\n  dup2\n  mstore\n  swap1\n  0x40\n  mstore\n    /* \"@openzeppelin/contracts/utils/cryptography/EIP712.sol\":4194:4285  keccak256(abi.encode(TYPE_HASH, _hashedName, _hashedVersion, block.chainid, address(this))) */\n  dup1\n  mload\n  swap1\n  0x20\n  add\n  keccak256\n    /* \"@openzeppelin/contracts/utils/cryptography/EIP712.sol\":4187:4285  return keccak256(abi.encode(TYPE_HASH, _hashedName, _hashedVersion, block.chainid, address(this))) */\n  swap1\n  pop\n    /* \"@openzeppelin/contracts/utils/cryptography/EIP712.sol\":4113:4292  function _buildDomainSeparator() private view returns (bytes32) {... */\n  swap1\n  jump\t// out\n    /* \"@openzeppelin/contracts/utils/ShortStrings.sol\":1708:1994  function toShortString(string memory str) internal pure returns (ShortString) {... */\ntag_22:\n    /* \"@openzeppelin/contracts/utils/ShortStrings.sol\":1773:1784  ShortString */\n  0x00\n    /* \"@openzeppelin/contracts/utils/ShortStrings.sol\":1796:1813  bytes memory bstr */\n  dup1\n    /* \"@openzeppelin/contracts/utils/ShortStrings.sol\":1822:1825  str */\n  dup3\n    /* \"@openzeppelin/contracts/utils/ShortStrings.sol\":1796:1826  bytes memory bstr = bytes(str) */\n  swap1\n  pop\n    /* \"@openzeppelin/contracts/utils/ShortStrings.sol\":1854:1856  31 */\n  0x1f\n    /* \"@openzeppelin/contracts/utils/ShortStrings.sol\":1840:1844  bstr */\n  dup2\n    /* \"@openzeppelin/contracts/utils/ShortStrings.sol\":1840:1851  bstr.length */\n  mload\n    /* \"@openzeppelin/contracts/utils/ShortStrings.sol\":1840:1856  bstr.length > 31 */\n  gt\n    /* \"@openzeppelin/contracts/utils/ShortStrings.sol\":1836:1908  if (bstr.length > 31) {... */\n  iszero\n  tag_31\n  jumpi\n    /* \"@openzeppelin/contracts/utils/ShortStrings.sol\":1893:1896  str */\n  dup3\n    /* \"@openzeppelin/contracts/utils/ShortStrings.sol\":1879:1897  StringTooLong(str) */\n  mload(0x40)\n  0x305a27a900000000000000000000000000000000000000000000000000000000\n  dup2\n  mstore\n  0x04\n  add\n  tag_32\n  swap2\n  swap1\n  tag_33\n  jump\t// in\ntag_32:\n  mload(0x40)\n  dup1\n  swap2\n  sub\n  swap1\n  revert\n    /* \"@openzeppelin/contracts/utils/ShortStrings.sol\":1836:1908  if (bstr.length > 31) {... */\ntag_31:\n    /* \"@openzeppelin/contracts/utils/ShortStrings.sol\":1974:1978  bstr */\n  dup1\n    /* \"@openzeppelin/contracts/utils/ShortStrings.sol\":1974:1985  bstr.length */\n  mload\n    /* \"@openzeppelin/contracts/utils/ShortStrings.sol\":1965:1969  bstr */\n  dup2\n    /* \"@openzeppelin/contracts/utils/ShortStrings.sol\":1957:1970  bytes32(bstr) */\n  tag_34\n  swap1\n  tag_35\n  jump\t// in\ntag_34:\n    /* \"@openzeppelin/contracts/utils/ShortStrings.sol\":1949:1971  uint256(bytes32(bstr)) */\n  0x00\n  shr\n    /* \"@openzeppelin/contracts/utils/ShortStrings.sol\":1949:1985  uint256(bytes32(bstr)) | bstr.length */\n  or\n    /* \"@openzeppelin/contracts/utils/ShortStrings.sol\":1941:1986  bytes32(uint256(bytes32(bstr)) | bstr.length) */\n  0x00\n  shl\n    /* \"@openzeppelin/contracts/utils/ShortStrings.sol\":1917:1987  return ShortString.wrap(bytes32(uint256(bytes32(bstr)) | bstr.length)) */\n  swap2\n  pop\n  pop\n    /* \"@openzeppelin/contracts/utils/ShortStrings.sol\":1708:1994  function toShortString(string memory str) internal pure returns (ShortString) {... */\n  swap2\n  swap1\n  pop\n  jump\t// out\n    /* \"@openzeppelin/contracts/utils/StorageSlot.sol\":3135:3337  function getStringSlot(string storage store) internal pure returns (StringSlot storage r) {... */\ntag_25:\n    /* \"@openzeppelin/contracts/utils/StorageSlot.sol\":3203:3223  StringSlot storage r */\n  0x00\n    /* \"@openzeppelin/contracts/utils/StorageSlot.sol\":3311:3321  store.slot */\n  dup2\n    /* \"@openzeppelin/contracts/utils/StorageSlot.sol\":3301:3321  r.slot := store.slot */\n  swap1\n  pop\n    /* \"@openzeppelin/contracts/utils/StorageSlot.sol\":3135:3337  function getStringSlot(string storage store) internal pure returns (StringSlot storage r) {... */\n  swap2\n  swap1\n  pop\n  jump\t// out\n    /* \"#utility.yul\":7:82   */\ntag_37:\n    /* \"#utility.yul\":40:46   */\n  0x00\n    /* \"#utility.yul\":73:75   */\n  0x40\n    /* \"#utility.yul\":67:76   */\n  mload\n    /* \"#utility.yul\":57:76   */\n  swap1\n  pop\n    /* \"#utility.yul\":7:82   */\n  swap1\n  jump\t// out\n    /* \"#utility.yul\":88:205   */\ntag_38:\n    /* \"#utility.yul\":197:198   */\n  0x00\n    /* \"#utility.yul\":194:195   */\n  dup1\n    /* \"#utility.yul\":187:199   */\n  revert\n    /* \"#utility.yul\":211:328   */\ntag_39:\n    /* \"#utility.yul\":320:321   */\n  0x00\n    /* \"#utility.yul\":317:318   */\n  dup1\n    /* \"#utility.yul\":310:322   */\n  revert\n    /* \"#utility.yul\":334:451   */\ntag_40:\n    /* \"#utility.yul\":443:444   */\n  0x00\n    /* \"#utility.yul\":440:441   */\n  dup1\n    /* \"#utility.yul\":433:445   */\n  revert\n    /* \"#utility.yul\":457:574   */\ntag_41:\n    /* \"#utility.yul\":566:567   */\n  0x00\n    /* \"#utility.yul\":563:564   */\n  dup1\n    /* \"#utility.yul\":556:568   */\n  revert\n    /* \"#utility.yul\":580:682   */\ntag_42:\n    /* \"#utility.yul\":621:627   */\n  0x00\n    /* \"#utility.yul\":672:674   */\n  0x1f\n    /* \"#utility.yul\":668:675   */\n  not\n    /* \"#utility.yul\":663:665   */\n  0x1f\n    /* \"#utility.yul\":656:661   */\n  dup4\n    /* \"#utility.yul\":652:666   */\n  add\n    /* \"#utility.yul\":648:676   */\n  and\n    /* \"#utility.yul\":638:676   */\n  swap1\n  pop\n    /* \"#utility.yul\":580:682   */\n  swap2\n  swap1\n  pop\n  jump\t// out\n    /* \"#utility.yul\":688:868   */\ntag_43:\n    /* \"#utility.yul\":736:813   */\n  0x4e487b7100000000000000000000000000000000000000000000000000000000\n    /* \"#utility.yul\":733:734   */\n  0x00\n    /* \"#utility.yul\":726:814   */\n  mstore\n    /* \"#utility.yul\":833:837   */\n  0x41\n    /* \"#utility.yul\":830:831   */\n  0x04\n    /* \"#utility.yul\":823:838   */\n  mstore\n    /* \"#utility.yul\":857:861   */\n  0x24\n    /* \"#utility.yul\":854:855   */\n  0x00\n    /* \"#utility.yul\":847:862   */\n  revert\n    /* \"#utility.yul\":874:1155   */\ntag_44:\n    /* \"#utility.yul\":957:984   */\n  tag_89\n    /* \"#utility.yul\":979:983   */\n  dup3\n    /* \"#utility.yul\":957:984   */\n  tag_42\n  jump\t// in\ntag_89:\n    /* \"#utility.yul\":949:955   */\n  dup2\n    /* \"#utility.yul\":945:985   */\n  add\n    /* \"#utility.yul\":1087:1093   */\n  dup2\n    /* \"#utility.yul\":1075:1085   */\n  dup2\n    /* \"#utility.yul\":1072:1094   */\n  lt\n    /* \"#utility.yul\":1051:1069   */\n  0xffffffffffffffff\n    /* \"#utility.yul\":1039:1049   */\n  dup3\n    /* \"#utility.yul\":1036:1070   */\n  gt\n    /* \"#utility.yul\":1033:1095   */\n  or\n    /* \"#utility.yul\":1030:1118   */\n  iszero\n  tag_90\n  jumpi\n    /* \"#utility.yul\":1098:1116   */\n  tag_91\n  tag_43\n  jump\t// in\ntag_91:\n    /* \"#utility.yul\":1030:1118   */\ntag_90:\n    /* \"#utility.yul\":1138:1148   */\n  dup1\n    /* \"#utility.yul\":1134:1136   */\n  0x40\n    /* \"#utility.yul\":1127:1149   */\n  mstore\n    /* \"#utility.yul\":917:1155   */\n  pop\n    /* \"#utility.yul\":874:1155   */\n  pop\n  pop\n  jump\t// out\n    /* \"#utility.yul\":1161:1290   */\ntag_45:\n    /* \"#utility.yul\":1195:1201   */\n  0x00\n    /* \"#utility.yul\":1222:1242   */\n  tag_93\n  tag_37\n  jump\t// in\ntag_93:\n    /* \"#utility.yul\":1212:1242   */\n  swap1\n  pop\n    /* \"#utility.yul\":1251:1284   */\n  tag_94\n    /* \"#utility.yul\":1279:1283   */\n  dup3\n    /* \"#utility.yul\":1271:1277   */\n  dup3\n    /* \"#utility.yul\":1251:1284   */\n  tag_44\n  jump\t// in\ntag_94:\n    /* \"#utility.yul\":1161:1290   */\n  swap2\n  swap1\n  pop\n  jump\t// out\n    /* \"#utility.yul\":1296:1604   */\ntag_46:\n    /* \"#utility.yul\":1358:1362   */\n  0x00\n    /* \"#utility.yul\":1448:1466   */\n  0xffffffffffffffff\n    /* \"#utility.yul\":1440:1446   */\n  dup3\n    /* \"#utility.yul\":1437:1467   */\n  gt\n    /* \"#utility.yul\":1434:1490   */\n  iszero\n  tag_96\n  jumpi\n    /* \"#utility.yul\":1470:1488   */\n  tag_97\n  tag_43\n  jump\t// in\ntag_97:\n    /* \"#utility.yul\":1434:1490   */\ntag_96:\n    /* \"#utility.yul\":1508:1537   */\n  tag_98\n    /* \"#utility.yul\":1530:1536   */\n  dup3\n    /* \"#utility.yul\":1508:1537   */\n  tag_42\n  jump\t// in\ntag_98:\n    /* \"#utility.yul\":1500:1537   */\n  swap1\n  pop\n    /* \"#utility.yul\":1592:1596   */\n  0x20\n    /* \"#utility.yul\":1586:1590   */\n  dup2\n    /* \"#utility.yul\":1582:1597   */\n  add\n    /* \"#utility.yul\":1574:1597   */\n  swap1\n  pop\n    /* \"#utility.yul\":1296:1604   */\n  swap2\n  swap1\n  pop\n  jump\t// out\n    /* \"#utility.yul\":1610:1856   */\ntag_47:\n    /* \"#utility.yul\":1691:1692   */\n  0x00\n    /* \"#utility.yul\":1701:1814   */\ntag_100:\n    /* \"#utility.yul\":1715:1721   */\n  dup4\n    /* \"#utility.yul\":1712:1713   */\n  dup2\n    /* \"#utility.yul\":1709:1722   */\n  lt\n    /* \"#utility.yul\":1701:1814   */\n  iszero\n  tag_102\n  jumpi\n    /* \"#utility.yul\":1800:1801   */\n  dup1\n    /* \"#utility.yul\":1795:1798   */\n  dup3\n    /* \"#utility.yul\":1791:1802   */\n  add\n    /* \"#utility.yul\":1785:1803   */\n  mload\n    /* \"#utility.yul\":1781:1782   */\n  dup2\n    /* \"#utility.yul\":1776:1779   */\n  dup5\n    /* \"#utility.yul\":1772:1783   */\n  add\n    /* \"#utility.yul\":1765:1804   */\n  mstore\n    /* \"#utility.yul\":1737:1739   */\n  0x20\n    /* \"#utility.yul\":1734:1735   */\n  dup2\n    /* \"#utility.yul\":1730:1740   */\n  add\n    /* \"#utility.yul\":1725:1740   */\n  swap1\n  pop\n    /* \"#utility.yul\":1701:1814   */\n  jump(tag_100)\ntag_102:\n    /* \"#utility.yul\":1848:1849   */\n  0x00\n    /* \"#utility.yul\":1839:1845   */\n  dup5\n    /* \"#utility.yul\":1834:1837   */\n  dup5\n    /* \"#utility.yul\":1830:1846   */\n  add\n    /* \"#utility.yul\":1823:1850   */\n  mstore\n    /* \"#utility.yul\":1672:1856   */\n  pop\n    /* \"#utility.yul\":1610:1856   */\n  pop\n  pop\n  pop\n  jump\t// out\n    /* \"#utility.yul\":1862:2296   */\ntag_48:\n    /* \"#utility.yul\":1951:1956   */\n  0x00\n    /* \"#utility.yul\":1976:2042   */\n  tag_104\n    /* \"#utility.yul\":1992:2041   */\n  tag_105\n    /* \"#utility.yul\":2034:2040   */\n  dup5\n    /* \"#utility.yul\":1992:2041   */\n  tag_46\n  jump\t// in\ntag_105:\n    /* \"#utility.yul\":1976:2042   */\n  tag_45\n  jump\t// in\ntag_104:\n    /* \"#utility.yul\":1967:2042   */\n  swap1\n  pop\n    /* \"#utility.yul\":2065:2071   */\n  dup3\n    /* \"#utility.yul\":2058:2063   */\n  dup2\n    /* \"#utility.yul\":2051:2072   */\n  mstore\n    /* \"#utility.yul\":2103:2107   */\n  0x20\n    /* \"#utility.yul\":2096:2101   */\n  dup2\n    /* \"#utility.yul\":2092:2108   */\n  add\n    /* \"#utility.yul\":2141:2144   */\n  dup5\n    /* \"#utility.yul\":2132:2138   */\n  dup5\n    /* \"#utility.yul\":2127:2130   */\n  dup5\n    /* \"#utility.yul\":2123:2139   */\n  add\n    /* \"#utility.yul\":2120:2145   */\n  gt\n    /* \"#utility.yul\":2117:2229   */\n  iszero\n  tag_106\n  jumpi\n    /* \"#utility.yul\":2148:2227   */\n  tag_107\n  tag_41\n  jump\t// in\ntag_107:\n    /* \"#utility.yul\":2117:2229   */\ntag_106:\n    /* \"#utility.yul\":2238:2290   */\n  tag_108\n    /* \"#utility.yul\":2283:2289   */\n  dup5\n    /* \"#utility.yul\":2278:2281   */\n  dup3\n    /* \"#utility.yul\":2273:2276   */\n  dup6\n    /* \"#utility.yul\":2238:2290   */\n  tag_47\n  jump\t// in\ntag_108:\n    /* \"#utility.yul\":1957:2296   */\n  pop\n    /* \"#utility.yul\":1862:2296   */\n  swap4\n  swap3\n  pop\n  pop\n  pop\n  jump\t// out\n    /* \"#utility.yul\":2316:2671   */\ntag_49:\n    /* \"#utility.yul\":2383:2388   */\n  0x00\n    /* \"#utility.yul\":2432:2435   */\n  dup3\n    /* \"#utility.yul\":2425:2429   */\n  0x1f\n    /* \"#utility.yul\":2417:2423   */\n  dup4\n    /* \"#utility.yul\":2413:2430   */\n  add\n    /* \"#utility.yul\":2409:2436   */\n  slt\n    /* \"#utility.yul\":2399:2521   */\n  tag_110\n  jumpi\n    /* \"#utility.yul\":2440:2519   */\n  tag_111\n  tag_40\n  jump\t// in\ntag_111:\n    /* \"#utility.yul\":2399:2521   */\ntag_110:\n    /* \"#utility.yul\":2550:2556   */\n  dup2\n    /* \"#utility.yul\":2544:2557   */\n  mload\n    /* \"#utility.yul\":2575:2665   */\n  tag_112\n    /* \"#utility.yul\":2661:2664   */\n  dup5\n    /* \"#utility.yul\":2653:2659   */\n  dup3\n    /* \"#utility.yul\":2646:2650   */\n  0x20\n    /* \"#utility.yul\":2638:2644   */\n  dup7\n    /* \"#utility.yul\":2634:2651   */\n  add\n    /* \"#utility.yul\":2575:2665   */\n  tag_48\n  jump\t// in\ntag_112:\n    /* \"#utility.yul\":2566:2665   */\n  swap2\n  pop\n    /* \"#utility.yul\":2389:2671   */\n  pop\n    /* \"#utility.yul\":2316:2671   */\n  swap3\n  swap2\n  pop\n  pop\n  jump\t// out\n    /* \"#utility.yul\":2677:3201   */\ntag_3:\n    /* \"#utility.yul\":2757:2763   */\n  0x00\n    /* \"#utility.yul\":2806:2808   */\n  0x20\n    /* \"#utility.yul\":2794:2803   */\n  dup3\n    /* \"#utility.yul\":2785:2792   */\n  dup5\n    /* \"#utility.yul\":2781:2804   */\n  sub\n    /* \"#utility.yul\":2777:2809   */\n  slt\n    /* \"#utility.yul\":2774:2893   */\n  iszero\n  tag_114\n  jumpi\n    /* \"#utility.yul\":2812:2891   */\n  tag_115\n  tag_38\n  jump\t// in\ntag_115:\n    /* \"#utility.yul\":2774:2893   */\ntag_114:\n    /* \"#utility.yul\":2953:2954   */\n  0x00\n    /* \"#utility.yul\":2942:2951   */\n  dup3\n    /* \"#utility.yul\":2938:2955   */\n  add\n    /* \"#utility.yul\":2932:2956   */\n  mload\n    /* \"#utility.yul\":2983:3001   */\n  0xffffffffffffffff\n    /* \"#utility.yul\":2975:2981   */\n  dup2\n    /* \"#utility.yul\":2972:3002   */\n  gt\n    /* \"#utility.yul\":2969:3086   */\n  iszero\n  tag_116\n  jumpi\n    /* \"#utility.yul\":3005:3084   */\n  tag_117\n  tag_39\n  jump\t// in\ntag_117:\n    /* \"#utility.yul\":2969:3086   */\ntag_116:\n    /* \"#utility.yul\":3110:3184   */\n  tag_118\n    /* \"#utility.yul\":3176:3183   */\n  dup5\n    /* \"#utility.yul\":3167:3173   */\n  dup3\n    /* \"#utility.yul\":3156:3165   */\n  dup6\n    /* \"#utility.yul\":3152:3174   */\n  add\n    /* \"#utility.yul\":3110:3184   */\n  tag_49\n  jump\t// in\ntag_118:\n    /* \"#utility.yul\":3100:3184   */\n  swap2\n  pop\n    /* \"#utility.yul\":2903:3194   */\n  pop\n    /* \"#utility.yul\":2677:3201   */\n  swap3\n  swap2\n  pop\n  pop\n  jump\t// out\n    /* \"#utility.yul\":3207:3306   */\ntag_50:\n    /* \"#utility.yul\":3259:3265   */\n  0x00\n    /* \"#utility.yul\":3293:3298   */\n  dup2\n    /* \"#utility.yul\":3287:3299   */\n  mload\n    /* \"#utility.yul\":3277:3299   */\n  swap1\n  pop\n    /* \"#utility.yul\":3207:3306   */\n  swap2\n  swap1\n  pop\n  jump\t// out\n    /* \"#utility.yul\":3312:3492   */\ntag_51:\n    /* \"#utility.yul\":3360:3437   */\n  0x4e487b7100000000000000000000000000000000000000000000000000000000\n    /* \"#utility.yul\":3357:3358   */\n  0x00\n    /* \"#utility.yul\":3350:3438   */\n  mstore\n    /* \"#utility.yul\":3457:3461   */\n  0x22\n    /* \"#utility.yul\":3454:3455   */\n  0x04\n    /* \"#utility.yul\":3447:3462   */\n  mstore\n    /* \"#utility.yul\":3481:3485   */\n  0x24\n    /* \"#utility.yul\":3478:3479   */\n  0x00\n    /* \"#utility.yul\":3471:3486   */\n  revert\n    /* \"#utility.yul\":3498:3818   */\ntag_52:\n    /* \"#utility.yul\":3542:3548   */\n  0x00\n    /* \"#utility.yul\":3579:3580   */\n  0x02\n    /* \"#utility.yul\":3573:3577   */\n  dup3\n    /* \"#utility.yul\":3569:3581   */\n  div\n    /* \"#utility.yul\":3559:3581   */\n  swap1\n  pop\n    /* \"#utility.yul\":3626:3627   */\n  0x01\n    /* \"#utility.yul\":3620:3624   */\n  dup3\n    /* \"#utility.yul\":3616:3628   */\n  and\n    /* \"#utility.yul\":3647:3665   */\n  dup1\n    /* \"#utility.yul\":3637:3718   */\n  tag_122\n  jumpi\n    /* \"#utility.yul\":3703:3707   */\n  0x7f\n    /* \"#utility.yul\":3695:3701   */\n  dup3\n    /* \"#utility.yul\":3691:3708   */\n  and\n    /* \"#utility.yul\":3681:3708   */\n  swap2\n  pop\n    /* \"#utility.yul\":3637:3718   */\ntag_122:\n    /* \"#utility.yul\":3765:3767   */\n  0x20\n    /* \"#utility.yul\":3757:3763   */\n  dup3\n    /* \"#utility.yul\":3754:3768   */\n  lt\n    /* \"#utility.yul\":3734:3752   */\n  dup2\n    /* \"#utility.yul\":3731:3769   */\n  sub\n    /* \"#utility.yul\":3728:3812   */\n  tag_123\n  jumpi\n    /* \"#utility.yul\":3784:3802   */\n  tag_124\n  tag_51\n  jump\t// in\ntag_124:\n    /* \"#utility.yul\":3728:3812   */\ntag_123:\n    /* \"#utility.yul\":3549:3818   */\n  pop\n    /* \"#utility.yul\":3498:3818   */\n  swap2\n  swap1\n  pop\n  jump\t// out\n    /* \"#utility.yul\":3824:3965   */\ntag_53:\n    /* \"#utility.yul\":3873:3877   */\n  0x00\n    /* \"#utility.yul\":3896:3899   */\n  dup2\n    /* \"#utility.yul\":3888:3899   */\n  swap1\n  pop\n    /* \"#utility.yul\":3919:3922   */\n  dup2\n    /* \"#utility.yul\":3916:3917   */\n  0x00\n    /* \"#utility.yul\":3909:3923   */\n  mstore\n    /* \"#utility.yul\":3953:3957   */\n  0x20\n    /* \"#utility.yul\":3950:3951   */\n  0x00\n    /* \"#utility.yul\":3940:3958   */\n  keccak256\n    /* \"#utility.yul\":3932:3958   */\n  swap1\n  pop\n    /* \"#utility.yul\":3824:3965   */\n  swap2\n  swap1\n  pop\n  jump\t// out\n    /* \"#utility.yul\":3971:4064   */\ntag_54:\n    /* \"#utility.yul\":4008:4014   */\n  0x00\n    /* \"#utility.yul\":4055:4057   */\n  0x20\n    /* \"#utility.yul\":4050:4052   */\n  0x1f\n    /* \"#utility.yul\":4043:4048   */\n  dup4\n    /* \"#utility.yul\":4039:4053   */\n  add\n    /* \"#utility.yul\":4035:4058   */\n  div\n    /* \"#utility.yul\":4025:4058   */\n  swap1\n  pop\n    /* \"#utility.yul\":3971:4064   */\n  swap2\n  swap1\n  pop\n  jump\t// out\n    /* \"#utility.yul\":4070:4177   */\ntag_55:\n    /* \"#utility.yul\":4114:4122   */\n  0x00\n    /* \"#utility.yul\":4164:4169   */\n  dup3\n    /* \"#utility.yul\":4158:4162   */\n  dup3\n    /* \"#utility.yul\":4154:4170   */\n  shl\n    /* \"#utility.yul\":4133:4170   */\n  swap1\n  pop\n    /* \"#utility.yul\":4070:4177   */\n  swap3\n  swap2\n  pop\n  pop\n  jump\t// out\n    /* \"#utility.yul\":4183:4576   */\ntag_56:\n    /* \"#utility.yul\":4252:4258   */\n  0x00\n    /* \"#utility.yul\":4302:4303   */\n  0x08\n    /* \"#utility.yul\":4290:4300   */\n  dup4\n    /* \"#utility.yul\":4286:4304   */\n  mul\n    /* \"#utility.yul\":4325:4422   */\n  tag_129\n    /* \"#utility.yul\":4355:4421   */\n  0xffffffffffffffffffffffffffffffffffffffffffffffffffffffffffffffff\n    /* \"#utility.yul\":4344:4353   */\n  dup3\n    /* \"#utility.yul\":4325:4422   */\n  tag_55\n  jump\t// in\ntag_129:\n    /* \"#utility.yul\":4443:4482   */\n  tag_130\n    /* \"#utility.yul\":4473:4481   */\n  dup7\n    /* \"#utility.yul\":4462:4471   */\n  dup4\n    /* \"#utility.yul\":4443:4482   */\n  tag_55\n  jump\t// in\ntag_130:\n    /* \"#utility.yul\":4431:4482   */\n  swap6\n  pop\n    /* \"#utility.yul\":4515:4519   */\n  dup1\n    /* \"#utility.yul\":4511:4520   */\n  not\n    /* \"#utility.yul\":4504:4509   */\n  dup5\n    /* \"#utility.yul\":4500:4521   */\n  and\n    /* \"#utility.yul\":4491:4521   */\n  swap4\n  pop\n    /* \"#utility.yul\":4564:4568   */\n  dup1\n    /* \"#utility.yul\":4554:4562   */\n  dup7\n    /* \"#utility.yul\":4550:4569   */\n  and\n    /* \"#utility.yul\":4543:4548   */\n  dup5\n    /* \"#utility.yul\":4540:4570   */\n  or\n    /* \"#utility.yul\":4530:4570   */\n  swap3\n  pop\n    /* \"#utility.yul\":4259:4576   */\n  pop\n  pop\n    /* \"#utility.yul\":4183:4576   */\n  swap4\n  swap3\n  pop\n  pop\n  pop\n  jump\t// out\n    /* \"#utility.yul\":4582:4659   */\ntag_57:\n    /* \"#utility.yul\":4619:4626   */\n  0x00\n    /* \"#utility.yul\":4648:4653   */\n  dup2\n    /* \"#utility.yul\":4637:4653   */\n  swap1\n  pop\n    /* \"#utility.yul\":4582:4659   */\n  swap2\n  swap1\n  pop\n  jump\t// out\n    /* \"#utility.yul\":4665:4725   */\ntag_58:\n    /* \"#utility.yul\":4693:4696   */\n  0x00\n    /* \"#utility.yul\":4714:4719   */\n  dup2\n    /* \"#utility.yul\":4707:4719   */\n  swap1\n  pop\n    /* \"#utility.yul\":4665:4725   */\n  swap2\n  swap1\n  pop\n  jump\t// out\n    /* \"#utility.yul\":4731:4873   */\ntag_59:\n    /* \"#utility.yul\":4781:4790   */\n  0x00\n    /* \"#utility.yul\":4814:4867   */\n  tag_134\n    /* \"#utility.yul\":4832:4866   */\n  tag_135\n    /* \"#utility.yul\":4841:4865   */\n  tag_136\n    /* \"#utility.yul\":4859:4864   */\n  dup5\n    /* \"#utility.yul\":4841:4865   */\n  tag_57\n  jump\t// in\ntag_136:\n    /* \"#utility.yul\":4832:4866   */\n  tag_58\n  jump\t// in\ntag_135:\n    /* \"#utility.yul\":4814:4867   */\n  tag_57\n  jump\t// in\ntag_134:\n    /* \"#utility.yul\":4801:4867   */\n  swap1\n  pop\n    /* \"#utility.yul\":4731:4873   */\n  swap2\n  swap1\n  pop\n  jump\t// out\n    /* \"#utility.yul\":4879:4954   */\ntag_60:\n    /* \"#utility.yul\":4922:4925   */\n  0x00\n    /* \"#utility.yul\":4943:4948   */\n  dup2\n    /* \"#utility.yul\":4936:4948   */\n  swap1\n  pop\n    /* \"#utility.yul\":4879:4954   */\n  swap2\n  swap1\n  pop\n  jump\t// out\n    /* \"#utility.yul\":4960:5229   */\ntag_61:\n    /* \"#utility.yul\":5070:5109   */\n  tag_139\n    /* \"#utility.yul\":5101:5108   */\n  dup4\n    /* \"#utility.yul\":5070:5109   */\n  tag_59\n  jump\t// in\ntag_139:\n    /* \"#utility.yul\":5131:5222   */\n  tag_140\n    /* \"#utility.yul\":5180:5221   */\n  tag_141\n    /* \"#utility.yul\":5204:5220   */\n  dup3\n    /* \"#utility.yul\":5180:5221   */\n  tag_60\n  jump\t// in\ntag_141:\n    /* \"#utility.yul\":5172:5178   */\n  dup5\n    /* \"#utility.yul\":5165:5169   */\n  dup5\n    /* \"#utility.yul\":5159:5170   */\n  sload\n    /* \"#utility.yul\":5131:5222   */\n  tag_56\n  jump\t// in\ntag_140:\n    /* \"#utility.yul\":5125:5129   */\n  dup3\n    /* \"#utility.yul\":5118:5223   */\n  sstore\n    /* \"#utility.yul\":5036:5229   */\n  pop\n    /* \"#utility.yul\":4960:5229   */\n  pop\n  pop\n  pop\n  jump\t// out\n    /* \"#utility.yul\":5235:5308   */\ntag_62:\n    /* \"#utility.yul\":5280:5283   */\n  0x00\n    /* \"#utility.yul\":5235:5308   */\n  swap1\n  jump\t// out\n    /* \"#utility.yul\":5314:5503   */\ntag_63:\n    /* \"#utility.yul\":5391:5423   */\n  tag_144\n  tag_62\n  jump\t// in\ntag_144:\n    /* \"#utility.yul\":5432:5497   */\n  tag_145\n    /* \"#utility.yul\":5490:5496   */\n  dup2\n    /* \"#utility.yul\":5482:5488   */\n  dup5\n    /* \"#utility.yul\":5476:5480   */\n  dup5\n    /* \"#utility.yul\":5432:5497   */\n  tag_61\n  jump\t// in\ntag_145:\n    /* \"#utility.yul\":5367:5503   */\n  pop\n    /* \"#utility.yul\":5314:5503   */\n  pop\n  pop\n  jump\t// out\n    /* \"#utility.yul\":5509:5695   */\ntag_64:\n    /* \"#utility.yul\":5569:5689   */\ntag_147:\n    /* \"#utility.yul\":5586:5589   */\n  dup2\n    /* \"#utility.yul\":5579:5584   */\n  dup2\n    /* \"#utility.yul\":5576:5590   */\n  lt\n    /* \"#utility.yul\":5569:5689   */\n  iszero\n  tag_149\n  jumpi\n    /* \"#utility.yul\":5640:5679   */\n  tag_150\n    /* \"#utility.yul\":5677:5678   */\n  0x00\n    /* \"#utility.yul\":5670:5675   */\n  dup3\n    /* \"#utility.yul\":5640:5679   */\n  tag_63\n  jump\t// in\ntag_150:\n    /* \"#utility.yul\":5613:5614   */\n  0x01\n    /* \"#utility.yul\":5606:5611   */\n  dup2\n    /* \"#utility.yul\":5602:5615   */\n  add\n    /* \"#utility.yul\":5593:5615   */\n  swap1\n  pop\n    /* \"#utility.yul\":5569:5689   */\n  jump(tag_147)\ntag_149:\n    /* \"#utility.yul\":5509:5695   */\n  pop\n  pop\n  jump\t// out\n    /* \"#utility.yul\":5701:6244   */\ntag_65:\n    /* \"#utility.yul\":5802:5804   */\n  0x1f\n    /* \"#utility.yul\":5797:5800   */\n  dup3\n    /* \"#utility.yul\":5794:5805   */\n  gt\n    /* \"#utility.yul\":5791:6237   */\n  iszero\n  tag_152\n  jumpi\n    /* \"#utility.yul\":5836:5874   */\n  tag_153\n    /* \"#utility.yul\":5868:5873   */\n  dup2\n    /* \"#utility.yul\":5836:5874   */\n  tag_53\n  jump\t// in\ntag_153:\n    /* \"#utility.yul\":5920:5949   */\n  tag_154\n    /* \"#utility.yul\":5938:5948   */\n  dup5\n    /* \"#utility.yul\":5920:5949   */\n  tag_54\n  jump\t// in\ntag_154:\n    /* \"#utility.yul\":5910:5918   */\n  dup2\n    /* \"#utility.yul\":5906:5950   */\n  add\n    /* \"#utility.yul\":6103:6105   */\n  0x20\n    /* \"#utility.yul\":6091:6101   */\n  dup6\n    /* \"#utility.yul\":6088:6106   */\n  lt\n    /* \"#utility.yul\":6085:6134   */\n  iszero\n  tag_155\n  jumpi\n    /* \"#utility.yul\":6124:6132   */\n  dup2\n    /* \"#utility.yul\":6109:6132   */\n  swap1\n  pop\n    /* \"#utility.yul\":6085:6134   */\ntag_155:\n    /* \"#utility.yul\":6147:6227   */\n  tag_156\n    /* \"#utility.yul\":6203:6225   */\n  tag_157\n    /* \"#utility.yul\":6221:6224   */\n  dup6\n    /* \"#utility.yul\":6203:6225   */\n  tag_54\n  jump\t// in\ntag_157:\n    /* \"#utility.yul\":6193:6201   */\n  dup4\n    /* \"#utility.yul\":6189:6226   */\n  add\n    /* \"#utility.yul\":6176:6187   */\n  dup3\n    /* \"#utility.yul\":6147:6227   */\n  tag_64\n  jump\t// in\ntag_156:\n    /* \"#utility.yul\":5806:6237   */\n  pop\n  pop\n    /* \"#utility.yul\":5791:6237   */\ntag_152:\n    /* \"#utility.yul\":5701:6244   */\n  pop\n  pop\n  pop\n  jump\t// out\n    /* \"#utility.yul\":6250:6367   */\ntag_66:\n    /* \"#utility.yul\":6304:6312   */\n  0x00\n    /* \"#utility.yul\":6354:6359   */\n  dup3\n    /* \"#utility.yul\":6348:6352   */\n  dup3\n    /* \"#utility.yul\":6344:6360   */\n  shr\n    /* \"#utility.yul\":6323:6360   */\n  swap1\n  pop\n    /* \"#utility.yul\":6250:6367   */\n  swap3\n  swap2\n  pop\n  pop\n  jump\t// out\n    /* \"#utility.yul\":6373:6542   */\ntag_67:\n    /* \"#utility.yul\":6417:6423   */\n  0x00\n    /* \"#utility.yul\":6450:6501   */\n  tag_160\n    /* \"#utility.yul\":6498:6499   */\n  0x00\n    /* \"#utility.yul\":6494:6500   */\n  not\n    /* \"#utility.yul\":6486:6491   */\n  dup5\n    /* \"#utility.yul\":6483:6484   */\n  0x08\n    /* \"#utility.yul\":6479:6492   */\n  mul\n    /* \"#utility.yul\":6450:6501   */\n  tag_66\n  jump\t// in\ntag_160:\n    /* \"#utility.yul\":6446:6502   */\n  not\n    /* \"#utility.yul\":6531:6535   */\n  dup1\n    /* \"#utility.yul\":6525:6529   */\n  dup4\n    /* \"#utility.yul\":6521:6536   */\n  and\n    /* \"#utility.yul\":6511:6536   */\n  swap2\n  pop\n    /* \"#utility.yul\":6424:6542   */\n  pop\n    /* \"#utility.yul\":6373:6542   */\n  swap3\n  swap2\n  pop\n  pop\n  jump\t// out\n    /* \"#utility.yul\":6547:6842   */\ntag_68:\n    /* \"#utility.yul\":6623:6627   */\n  0x00\n    /* \"#utility.yul\":6769:6798   */\n  tag_162\n    /* \"#utility.yul\":6794:6797   */\n  dup4\n    /* \"#utility.yul\":6788:6792   */\n  dup4\n    /* \"#utility.yul\":6769:6798   */\n  tag_67\n  jump\t// in\ntag_162:\n    /* \"#utility.yul\":6761:6798   */\n  swap2\n  pop\n    /* \"#utility.yul\":6831:6834   */\n  dup3\n    /* \"#utility.yul\":6828:6829   */\n  0x02\n    /* \"#utility.yul\":6824:6835   */\n  mul\n    /* \"#utility.yul\":6818:6822   */\n  dup3\n    /* \"#utility.yul\":6815:6836   */\n  or\n    /* \"#utility.yul\":6807:6836   */\n  swap1\n  pop\n    /* \"#utility.yul\":6547:6842   */\n  swap3\n  swap2\n  pop\n  pop\n  jump\t// out\n    /* \"#utility.yul\":6847:8242   */\ntag_16:\n    /* \"#utility.yul\":6964:7001   */\n  tag_164\n    /* \"#utility.yul\":6997:7000   */\n  dup3\n    /* \"#utility.yul\":6964:7001   */\n  tag_50\n  jump\t// in\ntag_164:\n    /* \"#utility.yul\":7066:7084   */\n  0xffffffffffffffff\n    /* \"#utility.yul\":7058:7064   */\n  dup2\n    /* \"#utility.yul\":7055:7085   */\n  gt\n    /* \"#utility.yul\":7052:7108   */\n  iszero\n  tag_165\n  jumpi\n    /* \"#utility.yul\":7088:7106   */\n  tag_166\n  tag_43\n  jump\t// in\ntag_166:\n    /* \"#utility.yul\":7052:7108   */\ntag_165:\n    /* \"#utility.yul\":7132:7170   */\n  tag_167\n    /* \"#utility.yul\":7164:7168   */\n  dup3\n    /* \"#utility.yul\":7158:7169   */\n  sload\n    /* \"#utility.yul\":7132:7170   */\n  tag_52\n  jump\t// in\ntag_167:\n    /* \"#utility.yul\":7217:7284   */\n  tag_168\n    /* \"#utility.yul\":7277:7283   */\n  dup3\n    /* \"#utility.yul\":7269:7275   */\n  dup3\n    /* \"#utility.yul\":7263:7267   */\n  dup6\n    /* \"#utility.yul\":7217:7284   */\n  tag_65\n  jump\t// in\ntag_168:\n    /* \"#utility.yul\":7311:7312   */\n  0x00\n    /* \"#utility.yul\":7335:7339   */\n  0x20\n    /* \"#utility.yul\":7322:7339   */\n  swap1\n  pop\n    /* \"#utility.yul\":7367:7369   */\n  0x1f\n    /* \"#utility.yul\":7359:7365   */\n  dup4\n    /* \"#utility.yul\":7356:7370   */\n  gt\n    /* \"#utility.yul\":7384:7385   */\n  0x01\n    /* \"#utility.yul\":7379:7997   */\n  dup2\n  eq\n  tag_170\n  jumpi\n    /* \"#utility.yul\":8041:8042   */\n  0x00\n    /* \"#utility.yul\":8058:8064   */\n  dup5\n    /* \"#utility.yul\":8055:8132   */\n  iszero\n  tag_171\n  jumpi\n    /* \"#utility.yul\":8107:8116   */\n  dup3\n    /* \"#utility.yul\":8102:8105   */\n  dup8\n    /* \"#utility.yul\":8098:8117   */\n  add\n    /* \"#utility.yul\":8092:8118   */\n  mload\n    /* \"#utility.yul\":8083:8118   */\n  swap1\n  pop\n    /* \"#utility.yul\":8055:8132   */\ntag_171:\n    /* \"#utility.yul\":8158:8225   */\n  tag_172\n    /* \"#utility.yul\":8218:8224   */\n  dup6\n    /* \"#utility.yul\":8211:8216   */\n  dup3\n    /* \"#utility.yul\":8158:8225   */\n  tag_68\n  jump\t// in\ntag_172:\n    /* \"#utility.yul\":8152:8156   */\n  dup7\n    /* \"#utility.yul\":8145:8226   */\n  sstore\n    /* \"#utility.yul\":8014:8236   */\n  pop\n    /* \"#utility.yul\":7349:8236   */\n  jump(tag_169)\n    /* \"#utility.yul\":7379:7997   */\ntag_170:\n    /* \"#utility.yul\":7431:7435   */\n  0x1f\n    /* \"#utility.yul\":7427:7436   */\n  not\n    /* \"#utility.yul\":7419:7425   */\n  dup5\n    /* \"#utility.yul\":7415:7437   */\n  and\n    /* \"#utility.yul\":7465:7502   */\n  tag_173\n    /* \"#utility.yul\":7497:7501   */\n  dup7\n    /* \"#utility.yul\":7465:7502   */\n  tag_53\n  jump\t// in\ntag_173:\n    /* \"#utility.yul\":7524:7525   */\n  0x00\n    /* \"#utility.yul\":7538:7746   */\ntag_174:\n    /* \"#utility.yul\":7552:7559   */\n  dup3\n    /* \"#utility.yul\":7549:7550   */\n  dup2\n    /* \"#utility.yul\":7546:7560   */\n  lt\n    /* \"#utility.yul\":7538:7746   */\n  iszero\n  tag_176\n  jumpi\n    /* \"#utility.yul\":7631:7640   */\n  dup5\n    /* \"#utility.yul\":7626:7629   */\n  dup10\n    /* \"#utility.yul\":7622:7641   */\n  add\n    /* \"#utility.yul\":7616:7642   */\n  mload\n    /* \"#utility.yul\":7608:7614   */\n  dup3\n    /* \"#utility.yul\":7601:7643   */\n  sstore\n    /* \"#utility.yul\":7682:7683   */\n  0x01\n    /* \"#utility.yul\":7674:7680   */\n  dup3\n    /* \"#utility.yul\":7670:7684   */\n  add\n    /* \"#utility.yul\":7660:7684   */\n  swap2\n  pop\n    /* \"#utility.yul\":7729:7731   */\n  0x20\n    /* \"#utility.yul\":7718:7727   */\n  dup6\n    /* \"#utility.yul\":7714:7732   */\n  add\n    /* \"#utility.yul\":7701:7732   */\n  swap5\n  pop\n    /* \"#utility.yul\":7575:7579   */\n  0x20\n    /* \"#utility.yul\":7572:7573   */\n  dup2\n    /* \"#utility.yul\":7568:7580   */\n  add\n    /* \"#utility.yul\":7563:7580   */\n  swap1\n  pop\n    /* \"#utility.yul\":7538:7746   */\n  jump(tag_174)\ntag_176:\n    /* \"#utility.yul\":7774:7780   */\n  dup7\n    /* \"#utility.yul\":7765:7772   */\n  dup4\n    /* \"#utility.yul\":7762:7781   */\n  lt\n    /* \"#utility.yul\":7759:7938   */\n  iszero\n  tag_177\n  jumpi\n    /* \"#utility.yul\":7832:7841   */\n  dup5\n    /* \"#utility.yul\":7827:7830   */\n  dup10\n    /* \"#utility.yul\":7823:7842   */\n  add\n    /* \"#utility.yul\":7817:7843   */\n  mload\n    /* \"#utility.yul\":7875:7923   */\n  tag_178\n    /* \"#utility.yul\":7917:7921   */\n  0x1f\n    /* \"#utility.yul\":7909:7915   */\n  dup10\n    /* \"#utility.yul\":7905:7922   */\n  and\n    /* \"#utility.yul\":7894:7903   */\n  dup3\n    /* \"#utility.yul\":7875:7923   */\n  tag_67\n  jump\t// in\ntag_178:\n    /* \"#utility.yul\":7867:7873   */\n  dup4\n    /* \"#utility.yul\":7860:7924   */\n  sstore\n    /* \"#utility.yul\":7782:7938   */\n  pop\n    /* \"#utility.yul\":7759:7938   */\ntag_177:\n    /* \"#utility.yul\":7984:7985   */\n  0x01\n    /* \"#utility.yul\":7980:7981   */\n  0x02\n    /* \"#utility.yul\":7972:7978   */\n  dup9\n    /* \"#utility.yul\":7968:7982   */\n  mul\n    /* \"#utility.yul\":7964:7986   */\n  add\n    /* \"#utility.yul\":7958:7962   */\n  dup9\n    /* \"#utility.yul\":7951:7987   */\n  sstore\n    /* \"#utility.yul\":7386:7997   */\n  pop\n  pop\n  pop\n    /* \"#utility.yul\":7349:8236   */\ntag_169:\n  pop\n    /* \"#utility.yul\":6939:8242   */\n  pop\n  pop\n  pop\n    /* \"#utility.yul\":6847:8242   */\n  pop\n  pop\n  jump\t// out\n    /* \"#utility.yul\":8248:8325   */\ntag_69:\n    /* \"#utility.yul\":8285:8292   */\n  0x00\n    /* \"#utility.yul\":8314:8319   */\n  dup2\n    /* \"#utility.yul\":8303:8319   */\n  swap1\n  pop\n    /* \"#utility.yul\":8248:8325   */\n  swap2\n  swap1\n  pop\n  jump\t// out\n    /* \"#utility.yul\":8331:8449   */\ntag_70:\n    /* \"#utility.yul\":8418:8442   */\n  tag_181\n    /* \"#utility.yul\":8436:8441   */\n  dup2\n    /* \"#utility.yul\":8418:8442   */\n  tag_69\n  jump\t// in\ntag_181:\n    /* \"#utility.yul\":8413:8416   */\n  dup3\n    /* \"#utility.yul\":8406:8443   */\n  mstore\n    /* \"#utility.yul\":8331:8449   */\n  pop\n  pop\n  jump\t// out\n    /* \"#utility.yul\":8455:8573   */\ntag_71:\n    /* \"#utility.yul\":8542:8566   */\n  tag_183\n    /* \"#utility.yul\":8560:8565   */\n  dup2\n    /* \"#utility.yul\":8542:8566   */\n  tag_57\n  jump\t// in\ntag_183:\n    /* \"#utility.yul\":8537:8540   */\n  dup3\n    /* \"#utility.yul\":8530:8567   */\n  mstore\n    /* \"#utility.yul\":8455:8573   */\n  pop\n  pop\n  jump\t// out\n    /* \"#utility.yul\":8579:8705   */\ntag_72:\n    /* \"#utility.yul\":8616:8623   */\n  0x00\n    /* \"#utility.yul\":8656:8698   */\n  0xffffffffffffffffffffffffffffffffffffffff\n    /* \"#utility.yul\":8649:8654   */\n  dup3\n    /* \"#utility.yul\":8645:8699   */\n  and\n    /* \"#utility.yul\":8634:8699   */\n  swap1\n  pop\n    /* \"#utility.yul\":8579:8705   */\n  swap2\n  swap1\n  pop\n  jump\t// out\n    /* \"#utility.yul\":8711:8807   */\ntag_73:\n    /* \"#utility.yul\":8748:8755   */\n  0x00\n    /* \"#utility.yul\":8777:8801   */\n  tag_186\n    /* \"#utility.yul\":8795:8800   */\n  dup3\n    /* \"#utility.yul\":8777:8801   */\n  tag_72\n  jump\t// in\ntag_186:\n    /* \"#utility.yul\":8766:8801   */\n  swap1\n  pop\n    /* \"#utility.yul\":8711:8807   */\n  swap2\n  swap1\n  pop\n  jump\t// out\n    /* \"#utility.yul\":8813:8931   */\ntag_74:\n    /* \"#utility.yul\":8900:8924   */\n  tag_188\n    /* \"#utility.yul\":8918:8923   */\n  dup2\n    /* \"#utility.yul\":8900:8924   */\n  tag_73\n  jump\t// in\ntag_188:\n    /* \"#utility.yul\":8895:8898   */\n  dup3\n    /* \"#utility.yul\":8888:8925   */\n  mstore\n    /* \"#utility.yul\":8813:8931   */\n  pop\n  pop\n  jump\t// out\n    /* \"#utility.yul\":8937:9601   */\ntag_29:\n    /* \"#utility.yul\":9142:9146   */\n  0x00\n    /* \"#utility.yul\":9180:9183   */\n  0xa0\n    /* \"#utility.yul\":9169:9178   */\n  dup3\n    /* \"#utility.yul\":9165:9184   */\n  add\n    /* \"#utility.yul\":9157:9184   */\n  swap1\n  pop\n    /* \"#utility.yul\":9194:9265   */\n  tag_190\n    /* \"#utility.yul\":9262:9263   */\n  0x00\n    /* \"#utility.yul\":9251:9260   */\n  dup4\n    /* \"#utility.yul\":9247:9264   */\n  add\n    /* \"#utility.yul\":9238:9244   */\n  dup9\n    /* \"#utility.yul\":9194:9265   */\n  tag_70\n  jump\t// in\ntag_190:\n    /* \"#utility.yul\":9275:9347   */\n  tag_191\n    /* \"#utility.yul\":9343:9345   */\n  0x20\n    /* \"#utility.yul\":9332:9341   */\n  dup4\n    /* \"#utility.yul\":9328:9346   */\n  add\n    /* \"#utility.yul\":9319:9325   */\n  dup8\n    /* \"#utility.yul\":9275:9347   */\n  tag_70\n  jump\t// in\ntag_191:\n    /* \"#utility.yul\":9357:9429   */\n  tag_192\n    /* \"#utility.yul\":9425:9427   */\n  0x40\n    /* \"#utility.yul\":9414:9423   */\n  dup4\n    /* \"#utility.yul\":9410:9428   */\n  add\n    /* \"#utility.yul\":9401:9407   */\n  dup7\n    /* \"#utility.yul\":9357:9429   */\n  tag_70\n  jump\t// in\ntag_192:\n    /* \"#utility.yul\":9439:9511   */\n  tag_193\n    /* \"#utility.yul\":9507:9509   */\n  0x60\n    /* \"#utility.yul\":9496:9505   */\n  dup4\n    /* \"#utility.yul\":9492:9510   */\n  add\n    /* \"#utility.yul\":9483:9489   */\n  dup6\n    /* \"#utility.yul\":9439:9511   */\n  tag_71\n  jump\t// in\ntag_193:\n    /* \"#utility.yul\":9521:9594   */\n  tag_194\n    /* \"#utility.yul\":9589:9592   */\n  0x80\n    /* \"#utility.yul\":9578:9587   */\n  dup4\n    /* \"#utility.yul\":9574:9593   */\n  add\n    /* \"#utility.yul\":9565:9571   */\n  dup5\n    /* \"#utility.yul\":9521:9594   */\n  tag_74\n  jump\t// in\ntag_194:\n    /* \"#utility.yul\":8937:9601   */\n  swap7\n  swap6\n  pop\n  pop\n  pop\n  pop\n  pop\n  pop\n  jump\t// out\n    /* \"#utility.yul\":9607:9776   */\ntag_75:\n    /* \"#utility.yul\":9691:9702   */\n  0x00\n    /* \"#utility.yul\":9725:9731   */\n  dup3\n    /* \"#utility.yul\":9720:9723   */\n  dup3\n    /* \"#utility.yul\":9713:9732   */\n  mstore\n    /* \"#utility.yul\":9765:9769   */\n  0x20\n    /* \"#utility.yul\":9760:9763   */\n  dup3\n    /* \"#utility.yul\":9756:9770   */\n  add\n    /* \"#utility.yul\":9741:9770   */\n  swap1\n  pop\n    /* \"#utility.yul\":9607:9776   */\n  swap3\n  swap2\n  pop\n  pop\n  jump\t// out\n    /* \"#utility.yul\":9782:10159   */\ntag_76:\n    /* \"#utility.yul\":9870:9873   */\n  0x00\n    /* \"#utility.yul\":9898:9937   */\n  tag_197\n    /* \"#utility.yul\":9931:9936   */\n  dup3\n    /* \"#utility.yul\":9898:9937   */\n  tag_50\n  jump\t// in\ntag_197:\n    /* \"#utility.yul\":9953:10024   */\n  tag_198\n    /* \"#utility.yul\":10017:10023   */\n  dup2\n    /* \"#utility.yul\":10012:10015   */\n  dup6\n    /* \"#utility.yul\":9953:10024   */\n  tag_75\n  jump\t// in\ntag_198:\n    /* \"#utility.yul\":9946:10024   */\n  swap4\n  pop\n    /* \"#utility.yul\":10033:10098   */\n  tag_199\n    /* \"#utility.yul\":10091:10097   */\n  dup2\n    /* \"#utility.yul\":10086:10089   */\n  dup6\n    /* \"#utility.yul\":10079:10083   */\n  0x20\n    /* \"#utility.yul\":10072:10077   */\n  dup7\n    /* \"#utility.yul\":10068:10084   */\n  add\n    /* \"#utility.yul\":10033:10098   */\n  tag_47\n  jump\t// in\ntag_199:\n    /* \"#utility.yul\":10123:10152   */\n  tag_200\n    /* \"#utility.yul\":10145:10151   */\n  dup2\n    /* \"#utility.yul\":10123:10152   */\n  tag_42\n  jump\t// in\ntag_200:\n    /* \"#utility.yul\":10118:10121   */\n  dup5\n    /* \"#utility.yul\":10114:10153   */\n  add\n    /* \"#utility.yul\":10107:10153   */\n  swap2\n  pop\n    /* \"#utility.yul\":9874:10159   */\n  pop\n    /* \"#utility.yul\":9782:10159   */\n  swap3\n  swap2\n  pop\n  pop\n  jump\t// out\n    /* \"#utility.yul\":10165:10478   */\ntag_33:\n    /* \"#utility.yul\":10278:10282   */\n  0x00\n    /* \"#utility.yul\":10316:10318   */\n  0x20\n    /* \"#utility.yul\":10305:10314   */\n  dup3\n    /* \"#utility.yul\":10301:10319   */\n  add\n    /* \"#utility.yul\":10293:10319   */\n  swap1\n  pop\n    /* \"#utility.yul\":10365:10374   */\n  dup2\n    /* \"#utility.yul\":10359:10363   */\n  dup2\n    /* \"#utility.yul\":10355:10375   */\n  sub\n    /* \"#utility.yul\":10351:10352   */\n  0x00\n    /* \"#utility.yul\":10340:10349   */\n  dup4\n    /* \"#utility.yul\":10336:10353   */\n  add\n    /* \"#utility.yul\":10329:10376   */\n  mstore\n    /* \"#utility.yul\":10393:10471   */\n  tag_202\n    /* \"#utility.yul\":10466:10470   */\n  dup2\n    /* \"#utility.yul\":10457:10463   */\n  dup5\n    /* \"#utility.yul\":10393:10471   */\n  tag_76\n  jump\t// in\ntag_202:\n    /* \"#utility.yul\":10385:10471   */\n  swap1\n  pop\n    /* \"#utility.yul\":10165:10478   */\n  swap3\n  swap2\n  pop\n  pop\n  jump\t// out\n    /* \"#utility.yul\":10484:10582   */\ntag_77:\n    /* \"#utility.yul\":10535:10541   */\n  0x00\n    /* \"#utility.yul\":10569:10574   */\n  dup2\n    /* \"#utility.yul\":10563:10575   */\n  mload\n    /* \"#utility.yul\":10553:10575   */\n  swap1\n  pop\n    /* \"#utility.yul\":10484:10582   */\n  swap2\n  swap1\n  pop\n  jump\t// out\n    /* \"#utility.yul\":10588:10704   */\ntag_78:\n    /* \"#utility.yul\":10639:10643   */\n  0x00\n    /* \"#utility.yul\":10662:10665   */\n  dup2\n    /* \"#utility.yul\":10654:10665   */\n  swap1\n  pop\n    /* \"#utility.yul\":10692:10696   */\n  0x20\n    /* \"#utility.yul\":10687:10690   */\n  dup3\n    /* \"#utility.yul\":10683:10697   */\n  add\n    /* \"#utility.yul\":10675:10697   */\n  swap1\n  pop\n    /* \"#utility.yul\":10588:10704   */\n  swap2\n  swap1\n  pop\n  jump\t// out\n    /* \"#utility.yul\":10710:10864   */\ntag_79:\n    /* \"#utility.yul\":10753:10764   */\n  0x00\n    /* \"#utility.yul\":10789:10818   */\n  tag_206\n    /* \"#utility.yul\":10813:10816   */\n  dup3\n    /* \"#utility.yul\":10807:10817   */\n  mload\n    /* \"#utility.yul\":10789:10818   */\n  tag_69\n  jump\t// in\ntag_206:\n    /* \"#utility.yul\":10852:10857   */\n  dup1\n    /* \"#utility.yul\":10828:10857   */\n  swap2\n  pop\n    /* \"#utility.yul\":10765:10864   */\n  pop\n    /* \"#utility.yul\":10710:10864   */\n  swap2\n  swap1\n  pop\n  jump\t// out\n    /* \"#utility.yul\":10870:11464   */\ntag_35:\n    /* \"#utility.yul\":10954:10959   */\n  0x00\n    /* \"#utility.yul\":10985:11023   */\n  tag_208\n    /* \"#utility.yul\":11017:11022   */\n  dup3\n    /* \"#utility.yul\":10985:11023   */\n  tag_77\n  jump\t// in\ntag_208:\n    /* \"#utility.yul\":11048:11053   */\n  dup3\n    /* \"#utility.yul\":11075:11115   */\n  tag_209\n    /* \"#utility.yul\":11109:11114   */\n  dup5\n    /* \"#utility.yul\":11075:11115   */\n  tag_78\n  jump\t// in\ntag_209:\n    /* \"#utility.yul\":11063:11115   */\n  swap1\n  pop\n    /* \"#utility.yul\":11134:11169   */\n  tag_210\n    /* \"#utility.yul\":11160:11168   */\n  dup2\n    /* \"#utility.yul\":11134:11169   */\n  tag_79\n  jump\t// in\ntag_210:\n    /* \"#utility.yul\":11125:11169   */\n  swap3\n  pop\n    /* \"#utility.yul\":11193:11195   */\n  0x20\n    /* \"#utility.yul\":11185:11191   */\n  dup3\n    /* \"#utility.yul\":11182:11196   */\n  lt\n    /* \"#utility.yul\":11179:11457   */\n  iszero\n  tag_211\n  jumpi\n    /* \"#utility.yul\":11264:11433   */\n  tag_212\n    /* \"#utility.yul\":11349:11415   */\n  0xffffffffffffffffffffffffffffffffffffffffffffffffffffffffffffffff\n    /* \"#utility.yul\":11319:11325   */\n  dup4\n    /* \"#utility.yul\":11315:11317   */\n  0x20\n    /* \"#utility.yul\":11311:11326   */\n  sub\n    /* \"#utility.yul\":11308:11309   */\n  0x08\n    /* \"#utility.yul\":11304:11327   */\n  mul\n    /* \"#utility.yul\":11264:11433   */\n  tag_55\n  jump\t// in\ntag_212:\n    /* \"#utility.yul\":11241:11246   */\n  dup4\n    /* \"#utility.yul\":11220:11447   */\n  and\n    /* \"#utility.yul\":11211:11447   */\n  swap3\n  pop\n    /* \"#utility.yul\":11179:11457   */\ntag_211:\n    /* \"#utility.yul\":10960:11464   */\n  pop\n  pop\n    /* \"#utility.yul\":10870:11464   */\n  swap2\n  swap1\n  pop\n  jump\t// out\n    /* \"contracts/Governance.sol\":206:3582  contract TokenNamGovernor is EIP712 {... */\ntag_17:\n  mload(0x80)\n  mload(0xa0)\n  mload(0xc0)\n  mload(0xe0)\n  mload(0x0100)\n  mload(0x0120)\n  mload(0x0140)\n  codecopy(0x00, dataOffset(sub_0), dataSize(sub_0))\n  0x00\n  assignImmutable(\"0xca1f2d7171847e2e5d1de5841a455311272f45cfc003af7e3d95ffd05386bcb9\")\n  0x00\n  assignImmutable(\"0xb99c19d4021fac24e854eea5c0097053c3355da2563f02b178b5f367acedeb99\")\n  0x00\n  assignImmutable(\"0x9b8e850146befbec9333a5272104b387542ba02d03e749cf19c27f74eb74694b\")\n  0x00\n  assignImmutable(\"0xbf0409d7cc8d5d07aa9706bccbfcd92e6ca37bb703dd0e3f644b5a66462d8c00\")\n  0x00\n  assignImmutable(\"0x7e11962f85eb7ceb5b38e296d507e5039b360e5ad6815220a68768366dc10fdd\")\n  0x00\n  assignImmutable(\"0x7e732ae4670e5050f1d0176dd0b2f251709b9783b190355dd5c4b4d37f4fe131\")\n  0x00\n  assignImmutable(\"0xcf76dc23bc28b14248c7bf70129e2d789e31b579a5e046c3ee206516d4582d46\")\n  return(0x00, dataSize(sub_0))\nstop\n\nsub_0: assembly {\n        /* \"contracts/Governance.sol\":206:3582  contract TokenNamGovernor is EIP712 {... */\n      mstore(0x40, 0x80)\n      callvalue\n      dup1\n      iszero\n      tag_1\n      jumpi\n      0x00\n      dup1\n      revert\n    tag_1:\n      pop\n      jumpi(tag_2, lt(calldatasize, 0x04))\n      shr(0xe0, calldataload(0x00))\n      dup1\n      0x4bf5d7e9\n      gt\n      tag_11\n      jumpi\n      dup1\n      0x4bf5d7e9\n      eq\n      tag_7\n      jumpi\n      dup1\n      0x54fd4d50\n      eq\n      tag_8\n      jumpi\n      dup1\n      0x5dad85c2\n      eq\n      tag_9\n      jumpi\n      dup1\n      0x84b0196e\n      eq\n      tag_10\n      jumpi\n      jump(tag_2)\n    tag_11:\n      dup1\n      0x06fdde03\n      eq\n      tag_3\n      jumpi\n      dup1\n      0x31d133c2\n      eq\n      tag_4\n      jumpi\n      dup1\n      0x3a8512b4\n      eq\n      tag_5\n      jumpi\n      dup1\n      0x3e4f49e6\n      eq\n      tag_6\n      jumpi\n    tag_2:\n      0x00\n      dup1\n      revert\n        /* \"contracts/Governance.sol\":956:1039  function name() public view returns (string memory) {... */\n    tag_3:\n      tag_12\n      tag_13\n      jump\t// in\n    tag_12:\n      mload(0x40)\n      tag_14\n      swap2\n      swap1\n      tag_15\n      jump\t// in\n    tag_14:\n      mload(0x40)\n      dup1\n      swap2\n      sub\n      swap1\n      return\n        /* \"contracts/Governance.sol\":1526:1755  function hashProposal(address target, uint256 value, bytes memory callData, bytes32 descriptionHash) public pure returns (uint256) {... */\n    tag_4:\n      tag_16\n      0x04\n      dup1\n      calldatasize\n      sub\n      dup2\n      add\n      swap1\n      tag_17\n      swap2\n      swap1\n      tag_18\n      jump\t// in\n    tag_17:\n      tag_19\n      jump\t// in\n    tag_16:\n      mload(0x40)\n      tag_20\n      swap2\n      swap1\n      tag_21\n      jump\t// in\n    tag_20:\n      mload(0x40)\n      dup1\n      swap2\n      sub\n      swap1\n      return\n        /* \"contracts/Governance.sol\":1339:1518  function setConnectors(address applicantAdd_, address storageAdd_) public { // modifier lazeme ba contract access control... */\n    tag_5:\n      tag_22\n      0x04\n      dup1\n      calldatasize\n      sub\n      dup2\n      add\n      swap1\n      tag_23\n      swap2\n      swap1\n      tag_24\n      jump\t// in\n    tag_23:\n      tag_25\n      jump\t// in\n    tag_22:\n      stop\n        /* \"contracts/Governance.sol\":1763:3016  function state(uint256 proposalId) public returns (ProposalState) {... */\n    tag_6:\n      tag_26\n      0x04\n      dup1\n      calldatasize\n      sub\n      dup2\n      add\n      swap1\n      tag_27\n      swap2\n      swap1\n      tag_28\n      jump\t// in\n    tag_27:\n      tag_29\n      jump\t// in\n    tag_26:\n      mload(0x40)\n      tag_30\n      swap2\n      swap1\n      tag_31\n      jump\t// in\n    tag_30:\n      mload(0x40)\n      dup1\n      swap2\n      sub\n      swap1\n      return\n        /* \"contracts/Governance.sol\":1235:1331  function CLOCK_MODE() public view returns (string memory) {... */\n    tag_7:\n      tag_32\n      tag_33\n      jump\t// in\n    tag_32:\n      mload(0x40)\n      tag_34\n      swap2\n      swap1\n      tag_15\n      jump\t// in\n    tag_34:\n      mload(0x40)\n      dup1\n      swap2\n      sub\n      swap1\n      return\n        /* \"contracts/Governance.sol\":1047:1131  function version() public pure returns (string memory) {... */\n    tag_8:\n      tag_35\n      tag_36\n      jump\t// in\n    tag_35:\n      mload(0x40)\n      tag_37\n      swap2\n      swap1\n      tag_15\n      jump\t// in\n    tag_37:\n      mload(0x40)\n      dup1\n      swap2\n      sub\n      swap1\n      return\n        /* \"contracts/Governance.sol\":1139:1227  function Clock() public view returns (uint256) {... */\n    tag_9:\n      tag_38\n      tag_39\n      jump\t// in\n    tag_38:\n      mload(0x40)\n      tag_40\n      swap2\n      swap1\n      tag_21\n      jump\t// in\n    tag_40:\n      mload(0x40)\n      dup1\n      swap2\n      sub\n      swap1\n      return\n        /* \"@openzeppelin/contracts/utils/cryptography/EIP712.sol\":5144:5701  function eip712Domain()... */\n    tag_10:\n      tag_41\n      tag_42\n      jump\t// in\n    tag_41:\n      mload(0x40)\n      tag_43\n      swap8\n      swap7\n      swap6\n      swap5\n      swap4\n      swap3\n      swap2\n      swap1\n      tag_44\n      jump\t// in\n    tag_43:\n      mload(0x40)\n      dup1\n      swap2\n      sub\n      swap1\n      return\n        /* \"contracts/Governance.sol\":956:1039  function name() public view returns (string memory) {... */\n    tag_13:\n        /* \"contracts/Governance.sol\":993:1006  string memory */\n      0x60\n        /* \"contracts/Governance.sol\":1026:1031  _name */\n      0x03\n        /* \"contracts/Governance.sol\":1019:1031  return _name */\n      dup1\n      sload\n      tag_46\n      swap1\n      tag_47\n      jump\t// in\n    tag_46:\n      dup1\n      0x1f\n      add\n      0x20\n      dup1\n      swap2\n      div\n      mul\n      0x20\n      add\n      mload(0x40)\n      swap1\n      dup2\n      add\n      0x40\n      mstore\n      dup1\n      swap3\n      swap2\n      swap1\n      dup2\n      dup2\n      mstore\n      0x20\n      add\n      dup3\n      dup1\n      sload\n      tag_48\n      swap1\n      tag_47\n      jump\t// in\n    tag_48:\n      dup1\n      iszero\n      tag_49\n      jumpi\n      dup1\n      0x1f\n      lt\n      tag_50\n      jumpi\n      0x0100\n      dup1\n      dup4\n      sload\n      div\n      mul\n      dup4\n      mstore\n      swap2\n      0x20\n      add\n      swap2\n      jump(tag_49)\n    tag_50:\n      dup3\n      add\n      swap2\n      swap1\n      0x00\n      mstore\n      keccak256(0x00, 0x20)\n      swap1\n    tag_51:\n      dup2\n      sload\n      dup2\n      mstore\n      swap1\n      0x01\n      add\n      swap1\n      0x20\n      add\n      dup1\n      dup4\n      gt\n      tag_51\n      jumpi\n      dup3\n      swap1\n      sub\n      0x1f\n      and\n      dup3\n      add\n      swap2\n    tag_49:\n      pop\n      pop\n      pop\n      pop\n      pop\n      swap1\n      pop\n        /* \"contracts/Governance.sol\":956:1039  function name() public view returns (string memory) {... */\n      swap1\n      jump\t// out\n        /* \"contracts/Governance.sol\":1526:1755  function hashProposal(address target, uint256 value, bytes memory callData, bytes32 descriptionHash) public pure returns (uint256) {... */\n    tag_19:\n        /* \"contracts/Governance.sol\":1648:1655  uint256 */\n      0x00\n        /* \"contracts/Governance.sol\":1704:1710  target */\n      dup5\n        /* \"contracts/Governance.sol\":1712:1717  value */\n      dup5\n        /* \"contracts/Governance.sol\":1719:1727  callData */\n      dup5\n        /* \"contracts/Governance.sol\":1729:1744  descriptionHash */\n      dup5\n        /* \"contracts/Governance.sol\":1693:1745  abi.encode(target, value, callData, descriptionHash) */\n      add(0x20, mload(0x40))\n      tag_53\n      swap5\n      swap4\n      swap3\n      swap2\n      swap1\n      tag_54\n      jump\t// in\n    tag_53:\n      mload(0x40)\n      0x20\n      dup2\n      dup4\n      sub\n      sub\n      dup2\n      mstore\n      swap1\n      0x40\n      mstore\n        /* \"contracts/Governance.sol\":1683:1746  keccak256(abi.encode(target, value, callData, descriptionHash)) */\n      dup1\n      mload\n      swap1\n      0x20\n      add\n      keccak256\n        /* \"contracts/Governance.sol\":1675:1747  uint256(keccak256(abi.encode(target, value, callData, descriptionHash))) */\n      0x00\n      shr\n        /* \"contracts/Governance.sol\":1668:1747  return uint256(keccak256(abi.encode(target, value, callData, descriptionHash))) */\n      swap1\n      pop\n        /* \"contracts/Governance.sol\":1526:1755  function hashProposal(address target, uint256 value, bytes memory callData, bytes32 descriptionHash) public pure returns (uint256) {... */\n      swap5\n      swap4\n      pop\n      pop\n      pop\n      pop\n      jump\t// out\n        /* \"contracts/Governance.sol\":1339:1518  function setConnectors(address applicantAdd_, address storageAdd_) public { // modifier lazeme ba contract access control... */\n    tag_25:\n        /* \"contracts/Governance.sol\":1499:1510  storageAdd_ */\n      dup1\n        /* \"contracts/Governance.sol\":1470:1481  _connectors */\n      0x02\n        /* \"contracts/Governance.sol\":1470:1496  _connectors[applicantAdd_] */\n      0x00\n        /* \"contracts/Governance.sol\":1482:1495  applicantAdd_ */\n      dup5\n        /* \"contracts/Governance.sol\":1470:1496  _connectors[applicantAdd_] */\n      0xffffffffffffffffffffffffffffffffffffffff\n      and\n      0xffffffffffffffffffffffffffffffffffffffff\n      and\n      dup2\n      mstore\n      0x20\n      add\n      swap1\n      dup2\n      mstore\n      0x20\n      add\n      0x00\n      keccak256\n      0x00\n        /* \"contracts/Governance.sol\":1470:1510  _connectors[applicantAdd_] = storageAdd_ */\n      0x0100\n      exp\n      dup2\n      sload\n      dup2\n      0xffffffffffffffffffffffffffffffffffffffff\n      mul\n      not\n      and\n      swap1\n      dup4\n      0xffffffffffffffffffffffffffffffffffffffff\n      and\n      mul\n      or\n      swap1\n      sstore\n      pop\n        /* \"contracts/Governance.sol\":1339:1518  function setConnectors(address applicantAdd_, address storageAdd_) public { // modifier lazeme ba contract access control... */\n      pop\n      pop\n      jump\t// out\n        /* \"contracts/Governance.sol\":1763:3016  function state(uint256 proposalId) public returns (ProposalState) {... */\n    tag_29:\n        /* \"contracts/Governance.sol\":1814:1827  ProposalState */\n      0x00\n        /* \"contracts/Governance.sol\":1839:1865  storageTCN contractStorage */\n      dup1\n        /* \"contracts/Governance.sol\":1879:1890  _connectors */\n      0x02\n        /* \"contracts/Governance.sol\":1879:1902  _connectors[msg.sender] */\n      0x00\n        /* \"contracts/Governance.sol\":1891:1901  msg.sender */\n      caller\n        /* \"contracts/Governance.sol\":1879:1902  _connectors[msg.sender] */\n      0xffffffffffffffffffffffffffffffffffffffff\n      and\n      0xffffffffffffffffffffffffffffffffffffffff\n      and\n      dup2\n      mstore\n      0x20\n      add\n      swap1\n      dup2\n      mstore\n      0x20\n      add\n      0x00\n      keccak256\n      0x00\n      swap1\n      sload\n      swap1\n      0x0100\n      exp\n      swap1\n      div\n      0xffffffffffffffffffffffffffffffffffffffff\n      and\n        /* \"contracts/Governance.sol\":1839:1903  storageTCN contractStorage = storageTCN(_connectors[msg.sender]) */\n      swap1\n      pop\n        /* \"contracts/Governance.sol\":1913:1952  storageTCN.ProposalCore memory proposal */\n      0x00\n        /* \"contracts/Governance.sol\":1955:1970  contractStorage */\n      dup2\n        /* \"contracts/Governance.sol\":1955:1980  contractStorage.proposals */\n      0xffffffffffffffffffffffffffffffffffffffff\n      and\n      0x013cf08b\n        /* \"contracts/Governance.sol\":1981:1991  proposalId */\n      dup6\n        /* \"contracts/Governance.sol\":1955:1992  contractStorage.proposals(proposalId) */\n      mload(0x40)\n      dup3\n      0xffffffff\n      and\n      0xe0\n      shl\n      dup2\n      mstore\n      0x04\n      add\n      tag_57\n      swap2\n      swap1\n      tag_21\n      jump\t// in\n    tag_57:\n      0x0140\n      mload(0x40)\n      dup1\n      dup4\n      sub\n      dup2\n      dup7\n      gas\n      staticcall\n      iszero\n      dup1\n      iszero\n      tag_59\n      jumpi\n      returndatasize\n      0x00\n      dup1\n      returndatacopy\n      revert(0x00, returndatasize)\n    tag_59:\n      pop\n      pop\n      pop\n      pop\n      mload(0x40)\n      returndatasize\n      not(0x1f)\n      0x1f\n      dup3\n      add\n      and\n      dup3\n      add\n      dup1\n      0x40\n      mstore\n      pop\n      dup2\n      add\n      swap1\n      tag_60\n      swap2\n      swap1\n      tag_61\n      jump\t// in\n    tag_60:\n        /* \"contracts/Governance.sol\":1913:1992  storageTCN.ProposalCore memory proposal = contractStorage.proposals(proposalId) */\n      swap1\n      pop\n        /* \"contracts/Governance.sol\":2008:2016  proposal */\n      dup1\n        /* \"contracts/Governance.sol\":2008:2025  proposal.executed */\n      0xc0\n      add\n      mload\n        /* \"contracts/Governance.sol\":2004:2078  if (proposal.executed) {... */\n      iszero\n      tag_62\n      jumpi\n        /* \"contracts/Governance.sol\":2045:2067  ProposalState.Executed */\n      0x05\n        /* \"contracts/Governance.sol\":2038:2067  return ProposalState.Executed */\n      swap3\n      pop\n      pop\n      pop\n      jump(tag_56)\n        /* \"contracts/Governance.sol\":2004:2078  if (proposal.executed) {... */\n    tag_62:\n        /* \"contracts/Governance.sol\":2093:2101  proposal */\n      dup1\n        /* \"contracts/Governance.sol\":2093:2110  proposal.canceled */\n      0xe0\n      add\n      mload\n        /* \"contracts/Governance.sol\":2089:2163  if (proposal.canceled) {... */\n      iszero\n      tag_63\n      jumpi\n        /* \"contracts/Governance.sol\":2130:2152  ProposalState.Canceled */\n      0x02\n        /* \"contracts/Governance.sol\":2123:2152  return ProposalState.Canceled */\n      swap3\n      pop\n      pop\n      pop\n      jump(tag_56)\n        /* \"contracts/Governance.sol\":2089:2163  if (proposal.canceled) {... */\n    tag_63:\n        /* \"contracts/Governance.sol\":2174:2190  uint256 snapshot */\n      0x00\n        /* \"contracts/Governance.sol\":2193:2201  proposal */\n      dup2\n        /* \"contracts/Governance.sol\":2193:2211  proposal.voteStart */\n      0x80\n      add\n      mload\n        /* \"contracts/Governance.sol\":2174:2211  uint256 snapshot = proposal.voteStart */\n      0xffffffffffff\n      and\n      swap1\n      pop\n        /* \"contracts/Governance.sol\":2239:2240  0 */\n      0x00\n        /* \"contracts/Governance.sol\":2227:2235  snapshot */\n      dup2\n        /* \"contracts/Governance.sol\":2227:2240  snapshot == 0 */\n      sub\n        /* \"contracts/Governance.sol\":2223:2310  if (snapshot == 0) {... */\n      tag_64\n      jumpi\n        /* \"contracts/Governance.sol\":2288:2298  proposalId */\n      dup5\n        /* \"contracts/Governance.sol\":2260:2299  GovernorNonexistentProposal(proposalId) */\n      mload(0x40)\n      0x6ad0607500000000000000000000000000000000000000000000000000000000\n      dup2\n      mstore\n      0x04\n      add\n      tag_65\n      swap2\n      swap1\n      tag_21\n      jump\t// in\n    tag_65:\n      mload(0x40)\n      dup1\n      swap2\n      sub\n      swap1\n      revert\n        /* \"contracts/Governance.sol\":2223:2310  if (snapshot == 0) {... */\n    tag_64:\n        /* \"contracts/Governance.sol\":2321:2345  uint256 currentTimePoint */\n      0x00\n        /* \"contracts/Governance.sol\":2348:2363  block.timestamp */\n      timestamp\n        /* \"contracts/Governance.sol\":2321:2363  uint256 currentTimePoint = block.timestamp */\n      swap1\n      pop\n        /* \"contracts/Governance.sol\":2399:2407  snapshot */\n      dup2\n        /* \"contracts/Governance.sol\":2379:2395  currentTimePoint */\n      dup2\n        /* \"contracts/Governance.sol\":2379:2407  currentTimePoint <= snapshot */\n      gt\n        /* \"contracts/Governance.sol\":2375:2459  if (currentTimePoint <= snapshot) {... */\n      tag_66\n      jumpi\n        /* \"contracts/Governance.sol\":2427:2448  ProposalState.Pending */\n      0x00\n        /* \"contracts/Governance.sol\":2420:2448  return ProposalState.Pending */\n      swap5\n      pop\n      pop\n      pop\n      pop\n      pop\n      jump(tag_56)\n        /* \"contracts/Governance.sol\":2375:2459  if (currentTimePoint <= snapshot) {... */\n    tag_66:\n        /* \"contracts/Governance.sol\":2470:2486  uint256 deadline */\n      0x00\n        /* \"contracts/Governance.sol\":2500:2508  proposal */\n      dup4\n        /* \"contracts/Governance.sol\":2500:2521  proposal.voteDuration */\n      0x60\n      add\n      mload\n        /* \"contracts/Governance.sol\":2489:2521  snapshot + proposal.voteDuration */\n      0xffffffff\n      and\n        /* \"contracts/Governance.sol\":2489:2497  snapshot */\n      dup4\n        /* \"contracts/Governance.sol\":2489:2521  snapshot + proposal.voteDuration */\n      tag_67\n      swap2\n      swap1\n      tag_68\n      jump\t// in\n    tag_67:\n        /* \"contracts/Governance.sol\":2470:2521  uint256 deadline = snapshot + proposal.voteDuration */\n      swap1\n      pop\n        /* \"contracts/Governance.sol\":2557:2565  deadline */\n      dup1\n        /* \"contracts/Governance.sol\":2537:2553  currentTimePoint */\n      dup3\n        /* \"contracts/Governance.sol\":2537:2565  currentTimePoint <= deadline */\n      gt\n        /* \"contracts/Governance.sol\":2533:3007  if (currentTimePoint <= deadline) {... */\n      tag_69\n      jumpi\n        /* \"contracts/Governance.sol\":2585:2605  ProposalState.Active */\n      0x01\n        /* \"contracts/Governance.sol\":2578:2605  return ProposalState.Active */\n      swap6\n      pop\n      pop\n      pop\n      pop\n      pop\n      pop\n      jump(tag_56)\n        /* \"contracts/Governance.sol\":2533:3007  if (currentTimePoint <= deadline) {... */\n    tag_69:\n        /* \"contracts/Governance.sol\":2626:2634  proposal */\n      dup4\n        /* \"contracts/Governance.sol\":2626:2644  proposal.Succeeded */\n      0x0100\n      add\n      mload\n        /* \"contracts/Governance.sol\":2622:3007  if (proposal.Succeeded) {... */\n      iszero\n      tag_71\n      jumpi\n        /* \"contracts/Governance.sol\":2668:2691  ProposalState.Succeeded */\n      0x04\n        /* \"contracts/Governance.sol\":2661:2691  return ProposalState.Succeeded */\n      swap6\n      pop\n      pop\n      pop\n      pop\n      pop\n      pop\n      jump(tag_56)\n        /* \"contracts/Governance.sol\":2622:3007  if (proposal.Succeeded) {... */\n    tag_71:\n        /* \"contracts/Governance.sol\":2713:2721  proposal */\n      dup4\n        /* \"contracts/Governance.sol\":2713:2730  proposal.Defeated */\n      0x0120\n      add\n      mload\n        /* \"contracts/Governance.sol\":2709:3007  if (proposal.Defeated) {... */\n      iszero\n      tag_73\n      jumpi\n        /* \"contracts/Governance.sol\":2754:2776  ProposalState.Defeated */\n      0x03\n        /* \"contracts/Governance.sol\":2747:2776  return ProposalState.Defeated */\n      swap6\n      pop\n      pop\n      pop\n      pop\n      pop\n      pop\n      jump(tag_56)\n        /* \"contracts/Governance.sol\":2709:3007  if (proposal.Defeated) {... */\n    tag_73:\n        /* \"contracts/Governance.sol\":2809:2829  ProposalState result */\n      0x00\n        /* \"contracts/Governance.sol\":2832:2853  _voteResult(proposal) */\n      tag_75\n        /* \"contracts/Governance.sol\":2844:2852  proposal */\n      dup6\n        /* \"contracts/Governance.sol\":2832:2843  _voteResult */\n      tag_76\n        /* \"contracts/Governance.sol\":2832:2853  _voteResult(proposal) */\n      jump\t// in\n    tag_75:\n        /* \"contracts/Governance.sol\":2809:2853  ProposalState result = _voteResult(proposal) */\n      swap1\n      pop\n        /* \"contracts/Governance.sol\":2868:2882  uint256 state_ */\n      0x00\n        /* \"contracts/Governance.sol\":2893:2899  result */\n      dup2\n        /* \"contracts/Governance.sol\":2885:2900  uint256(result) */\n      0x05\n      dup2\n      gt\n      iszero\n      tag_77\n      jumpi\n      tag_78\n      tag_79\n      jump\t// in\n    tag_78:\n    tag_77:\n        /* \"contracts/Governance.sol\":2868:2900  uint256 state_ = uint256(result) */\n      swap1\n      pop\n        /* \"contracts/Governance.sol\":2915:2930  contractStorage */\n      dup7\n        /* \"contracts/Governance.sol\":2915:2947  contractStorage.setProposalState */\n      0xffffffffffffffffffffffffffffffffffffffff\n      and\n      0x1e9608a8\n        /* \"contracts/Governance.sol\":2948:2954  state_ */\n      dup3\n        /* \"contracts/Governance.sol\":2956:2966  proposalId */\n      dup12\n        /* \"contracts/Governance.sol\":2915:2967  contractStorage.setProposalState(state_, proposalId) */\n      mload(0x40)\n      dup4\n      0xffffffff\n      and\n      0xe0\n      shl\n      dup2\n      mstore\n      0x04\n      add\n      tag_80\n      swap3\n      swap2\n      swap1\n      tag_81\n      jump\t// in\n    tag_80:\n      0x00\n      mload(0x40)\n      dup1\n      dup4\n      sub\n      dup2\n      0x00\n      dup8\n      dup1\n      extcodesize\n      iszero\n      dup1\n      iszero\n      tag_82\n      jumpi\n      0x00\n      dup1\n      revert\n    tag_82:\n      pop\n      gas\n      call\n      iszero\n      dup1\n      iszero\n      tag_84\n      jumpi\n      returndatasize\n      0x00\n      dup1\n      returndatacopy\n      revert(0x00, returndatasize)\n    tag_84:\n      pop\n      pop\n      pop\n      pop\n        /* \"contracts/Governance.sol\":2989:2995  result */\n      dup2\n        /* \"contracts/Governance.sol\":2982:2995  return result */\n      swap8\n      pop\n      pop\n      pop\n      pop\n      pop\n      pop\n      pop\n      pop\n        /* \"contracts/Governance.sol\":1763:3016  function state(uint256 proposalId) public returns (ProposalState) {... */\n    tag_56:\n      swap2\n      swap1\n      pop\n      jump\t// out\n        /* \"contracts/Governance.sol\":1235:1331  function CLOCK_MODE() public view returns (string memory) {... */\n    tag_33:\n        /* \"contracts/Governance.sol\":1278:1291  string memory */\n      0x60\n        /* \"contracts/Governance.sol\":1304:1323  return \"Time stamp\" */\n      mload(0x40)\n      dup1\n      0x40\n      add\n      0x40\n      mstore\n      dup1\n      0x0a\n      dup2\n      mstore\n      0x20\n      add\n      0x54696d65207374616d7000000000000000000000000000000000000000000000\n      dup2\n      mstore\n      pop\n      swap1\n      pop\n        /* \"contracts/Governance.sol\":1235:1331  function CLOCK_MODE() public view returns (string memory) {... */\n      swap1\n      jump\t// out\n        /* \"contracts/Governance.sol\":1047:1131  function version() public pure returns (string memory) {... */\n    tag_36:\n        /* \"contracts/Governance.sol\":1087:1100  string memory */\n      0x60\n        /* \"contracts/Governance.sol\":1113:1123  return \"1\" */\n      mload(0x40)\n      dup1\n      0x40\n      add\n      0x40\n      mstore\n      dup1\n      0x01\n      dup2\n      mstore\n      0x20\n      add\n      0x3100000000000000000000000000000000000000000000000000000000000000\n      dup2\n      mstore\n      pop\n      swap1\n      pop\n        /* \"contracts/Governance.sol\":1047:1131  function version() public pure returns (string memory) {... */\n      swap1\n      jump\t// out\n        /* \"contracts/Governance.sol\":1139:1227  function Clock() public view returns (uint256) {... */\n    tag_39:\n        /* \"contracts/Governance.sol\":1177:1184  uint256 */\n      0x00\n        /* \"contracts/Governance.sol\":1204:1219  block.timestamp */\n      timestamp\n        /* \"contracts/Governance.sol\":1197:1219  return block.timestamp */\n      swap1\n      pop\n        /* \"contracts/Governance.sol\":1139:1227  function Clock() public view returns (uint256) {... */\n      swap1\n      jump\t// out\n        /* \"@openzeppelin/contracts/utils/cryptography/EIP712.sol\":5144:5701  function eip712Domain()... */\n    tag_42:\n        /* \"@openzeppelin/contracts/utils/cryptography/EIP712.sol\":5242:5255  bytes1 fields */\n      0x00\n        /* \"@openzeppelin/contracts/utils/cryptography/EIP712.sol\":5269:5287  string memory name */\n      0x60\n        /* \"@openzeppelin/contracts/utils/cryptography/EIP712.sol\":5301:5322  string memory version */\n      dup1\n        /* \"@openzeppelin/contracts/utils/cryptography/EIP712.sol\":5336:5351  uint256 chainId */\n      0x00\n        /* \"@openzeppelin/contracts/utils/cryptography/EIP712.sol\":5365:5390  address verifyingContract */\n      dup1\n        /* \"@openzeppelin/contracts/utils/cryptography/EIP712.sol\":5404:5416  bytes32 salt */\n      0x00\n        /* \"@openzeppelin/contracts/utils/cryptography/EIP712.sol\":5430:5457  uint256[] memory extensions */\n      0x60\n        /* \"@openzeppelin/contracts/utils/cryptography/EIP712.sol\":5533:5546  _EIP712Name() */\n      tag_89\n        /* \"@openzeppelin/contracts/utils/cryptography/EIP712.sol\":5533:5544  _EIP712Name */\n      tag_90\n        /* \"@openzeppelin/contracts/utils/cryptography/EIP712.sol\":5533:5546  _EIP712Name() */\n      jump\t// in\n    tag_89:\n        /* \"@openzeppelin/contracts/utils/cryptography/EIP712.sol\":5560:5576  _EIP712Version() */\n      tag_91\n        /* \"@openzeppelin/contracts/utils/cryptography/EIP712.sol\":5560:5574  _EIP712Version */\n      tag_92\n        /* \"@openzeppelin/contracts/utils/cryptography/EIP712.sol\":5560:5576  _EIP712Version() */\n      jump\t// in\n    tag_91:\n        /* \"@openzeppelin/contracts/utils/cryptography/EIP712.sol\":5590:5603  block.chainid */\n      chainid\n        /* \"@openzeppelin/contracts/utils/cryptography/EIP712.sol\":5625:5629  this */\n      address\n        /* \"@openzeppelin/contracts/utils/cryptography/EIP712.sol\":5652:5653  0 */\n      0x00\n        /* \"@openzeppelin/contracts/utils/cryptography/EIP712.sol\":5644:5654  bytes32(0) */\n      dup1\n      shl\n        /* \"@openzeppelin/contracts/utils/cryptography/EIP712.sol\":5682:5683  0 */\n      0x00\n        /* \"@openzeppelin/contracts/utils/cryptography/EIP712.sol\":5668:5684  new uint256[](0) */\n      0xffffffffffffffff\n      dup2\n      gt\n      iszero\n      tag_93\n      jumpi\n      tag_94\n      tag_95\n      jump\t// in\n    tag_94:\n    tag_93:\n      mload(0x40)\n      swap1\n      dup1\n      dup3\n      mstore\n      dup1\n      0x20\n      mul\n      0x20\n      add\n      dup3\n      add\n      0x40\n      mstore\n      dup1\n      iszero\n      tag_96\n      jumpi\n      dup2\n      0x20\n      add\n      0x20\n      dup3\n      mul\n      dup1\n      calldatasize\n      dup4\n      calldatacopy\n      dup1\n      dup3\n      add\n      swap2\n      pop\n      pop\n      swap1\n      pop\n    tag_96:\n      pop\n        /* \"@openzeppelin/contracts/utils/cryptography/EIP712.sol\":5482:5694  return (... */\n      0x0f00000000000000000000000000000000000000000000000000000000000000\n      swap6\n      swap5\n      swap4\n      swap3\n      swap2\n      swap1\n      swap7\n      pop\n      swap7\n      pop\n      swap7\n      pop\n      swap7\n      pop\n      swap7\n      pop\n      swap7\n      pop\n      swap7\n      pop\n        /* \"@openzeppelin/contracts/utils/cryptography/EIP712.sol\":5144:5701  function eip712Domain()... */\n      swap1\n      swap2\n      swap3\n      swap4\n      swap5\n      swap6\n      swap7\n      jump\t// out\n        /* \"contracts/Governance.sol\":3024:3575  function _voteResult(storageTCN.ProposalCore memory proposal) private returns (ProposalState) {... */\n    tag_76:\n        /* \"contracts/Governance.sol\":3103:3116  ProposalState */\n      0x00\n        /* \"contracts/Governance.sol\":3129:3143  address ballot */\n      dup1\n        /* \"contracts/Governance.sol\":3146:3154  proposal */\n      dup3\n        /* \"contracts/Governance.sol\":3146:3169  proposal.ballotContract */\n      0x20\n      add\n      mload\n        /* \"contracts/Governance.sol\":3129:3169  address ballot = proposal.ballotContract */\n      swap1\n      pop\n        /* \"contracts/Governance.sol\":3181:3192  bool result */\n      0x00\n        /* \"contracts/Governance.sol\":3194:3211  bytes memory data */\n      dup1\n        /* \"contracts/Governance.sol\":3215:3221  ballot */\n      dup3\n        /* \"contracts/Governance.sol\":3215:3226  ballot.call */\n      0xffffffffffffffffffffffffffffffffffffffff\n      and\n        /* \"contracts/Governance.sol\":3227:3273  abi.encodeWithSignature(\"voteCountProposal()\") */\n      add(0x24, mload(0x40))\n      mload(0x40)\n      0x20\n      dup2\n      dup4\n      sub\n      sub\n      dup2\n      mstore\n      swap1\n      0x40\n      mstore\n      and(not(0xffffffffffffffffffffffffffffffffffffffffffffffffffffffff), 0xd4564d1600000000000000000000000000000000000000000000000000000000)\n      0x20\n      dup3\n      add\n      dup1\n      mload\n      0xffffffffffffffffffffffffffffffffffffffffffffffffffffffff\n      dup4\n      dup2\n      dup4\n      and\n      or\n      dup4\n      mstore\n      pop\n      pop\n      pop\n      pop\n        /* \"contracts/Governance.sol\":3215:3274  ballot.call(abi.encodeWithSignature(\"voteCountProposal()\")) */\n      mload(0x40)\n      tag_98\n      swap2\n      swap1\n      tag_99\n      jump\t// in\n    tag_98:\n      0x00\n      mload(0x40)\n      dup1\n      dup4\n      sub\n      dup2\n      0x00\n      dup7\n      gas\n      call\n      swap2\n      pop\n      pop\n      returndatasize\n      dup1\n      0x00\n      dup2\n      eq\n      tag_102\n      jumpi\n      mload(0x40)\n      swap2\n      pop\n      and(add(returndatasize, 0x3f), not(0x1f))\n      dup3\n      add\n      0x40\n      mstore\n      returndatasize\n      dup3\n      mstore\n      returndatasize\n      0x00\n      0x20\n      dup5\n      add\n      returndatacopy\n      jump(tag_101)\n    tag_102:\n      0x60\n      swap2\n      pop\n    tag_101:\n      pop\n        /* \"contracts/Governance.sol\":3180:3274  (bool result, bytes memory data) = ballot.call(abi.encodeWithSignature(\"voteCountProposal()\")) */\n      swap2\n      pop\n      swap2\n      pop\n        /* \"contracts/Governance.sol\":3289:3295  result */\n      dup2\n        /* \"contracts/Governance.sol\":3285:3565  if (result) {... */\n      iszero\n      tag_103\n      jumpi\n        /* \"contracts/Governance.sol\":3312:3329  uint256 voteCount */\n      0x00\n        /* \"contracts/Governance.sol\":3343:3347  data */\n      dup2\n        /* \"contracts/Governance.sol\":3332:3359  abi.decode(data, (uint256)) */\n      dup1\n      0x20\n      add\n      swap1\n      mload\n      dup2\n      add\n      swap1\n      tag_104\n      swap2\n      swap1\n      tag_105\n      jump\t// in\n    tag_104:\n        /* \"contracts/Governance.sol\":3312:3359  uint256 voteCount = abi.decode(data, (uint256)) */\n      swap1\n      pop\n        /* \"contracts/Governance.sol\":3390:3398  proposal */\n      dup6\n        /* \"contracts/Governance.sol\":3390:3405  proposal.quorum */\n      0x40\n      add\n      mload\n        /* \"contracts/Governance.sol\":3378:3405  voteCount > proposal.quorum */\n      0xffff\n      and\n        /* \"contracts/Governance.sol\":3378:3387  voteCount */\n      dup2\n        /* \"contracts/Governance.sol\":3378:3405  voteCount > proposal.quorum */\n      gt\n        /* \"contracts/Governance.sol\":3374:3507  if (voteCount > proposal.quorum) {... */\n      iszero\n      tag_106\n      jumpi\n        /* \"contracts/Governance.sol\":3433:3456  ProposalState.Succeeded */\n      0x04\n        /* \"contracts/Governance.sol\":3426:3456  return ProposalState.Succeeded */\n      swap5\n      pop\n      pop\n      pop\n      pop\n      pop\n      jump(tag_97)\n        /* \"contracts/Governance.sol\":3374:3507  if (voteCount > proposal.quorum) {... */\n    tag_106:\n        /* \"contracts/Governance.sol\":3485:3507  ProposalState.Defeated */\n      0x03\n        /* \"contracts/Governance.sol\":3478:3507  return ProposalState.Defeated */\n      swap5\n      pop\n      pop\n      pop\n      pop\n      pop\n      jump(tag_97)\n        /* \"contracts/Governance.sol\":3285:3565  if (result) {... */\n    tag_103:\n        /* \"contracts/Governance.sol\":3558:3564  ballot */\n      dup3\n        /* \"contracts/Governance.sol\":3532:3565  AddressNotReturnVoteCount(ballot) */\n      mload(0x40)\n      0x2e2f840900000000000000000000000000000000000000000000000000000000\n      dup2\n      mstore\n      0x04\n      add\n      tag_109\n      swap2\n      swap1\n      tag_110\n      jump\t// in\n    tag_109:\n      mload(0x40)\n      dup1\n      swap2\n      sub\n      swap1\n      revert\n        /* \"contracts/Governance.sol\":3024:3575  function _voteResult(storageTCN.ProposalCore memory proposal) private returns (ProposalState) {... */\n    tag_97:\n      swap2\n      swap1\n      pop\n      jump\t// out\n        /* \"@openzeppelin/contracts/utils/cryptography/EIP712.sol\":6021:6147  function _EIP712Name() internal view returns (string memory) {... */\n    tag_90:\n        /* \"@openzeppelin/contracts/utils/cryptography/EIP712.sol\":6067:6080  string memory */\n      0x60\n        /* \"@openzeppelin/contracts/utils/cryptography/EIP712.sol\":6099:6140  _name.toStringWithFallback(_nameFallback) */\n      tag_112\n        /* \"@openzeppelin/contracts/utils/cryptography/EIP712.sol\":6126:6139  _nameFallback */\n      0x00\n        /* \"@openzeppelin/contracts/utils/cryptography/EIP712.sol\":6099:6104  _name */\n      immutable(\"0xb99c19d4021fac24e854eea5c0097053c3355da2563f02b178b5f367acedeb99\")\n        /* \"@openzeppelin/contracts/utils/cryptography/EIP712.sol\":6099:6125  _name.toStringWithFallback */\n      tag_113\n      swap1\n        /* \"@openzeppelin/contracts/utils/cryptography/EIP712.sol\":6099:6140  _name.toStringWithFallback(_nameFallback) */\n      swap2\n      swap1\n      0xffffffff\n      and\n      jump\t// in\n    tag_112:\n        /* \"@openzeppelin/contracts/utils/cryptography/EIP712.sol\":6092:6140  return _name.toStringWithFallback(_nameFallback) */\n      swap1\n      pop\n        /* \"@openzeppelin/contracts/utils/cryptography/EIP712.sol\":6021:6147  function _EIP712Name() internal view returns (string memory) {... */\n      swap1\n      jump\t// out\n        /* \"@openzeppelin/contracts/utils/cryptography/EIP712.sol\":6473:6608  function _EIP712Version() internal view returns (string memory) {... */\n    tag_92:\n        /* \"@openzeppelin/contracts/utils/cryptography/EIP712.sol\":6522:6535  string memory */\n      0x60\n        /* \"@openzeppelin/contracts/utils/cryptography/EIP712.sol\":6554:6601  _version.toStringWithFallback(_versionFallback) */\n      tag_115\n        /* \"@openzeppelin/contracts/utils/cryptography/EIP712.sol\":6584:6600  _versionFallback */\n      0x01\n        /* \"@openzeppelin/contracts/utils/cryptography/EIP712.sol\":6554:6562  _version */\n      immutable(\"0xca1f2d7171847e2e5d1de5841a455311272f45cfc003af7e3d95ffd05386bcb9\")\n        /* \"@openzeppelin/contracts/utils/cryptography/EIP712.sol\":6554:6583  _version.toStringWithFallback */\n      tag_113\n      swap1\n        /* \"@openzeppelin/contracts/utils/cryptography/EIP712.sol\":6554:6601  _version.toStringWithFallback(_versionFallback) */\n      swap2\n      swap1\n      0xffffffff\n      and\n      jump\t// in\n    tag_115:\n        /* \"@openzeppelin/contracts/utils/cryptography/EIP712.sol\":6547:6601  return _version.toStringWithFallback(_versionFallback) */\n      swap1\n      pop\n        /* \"@openzeppelin/contracts/utils/cryptography/EIP712.sol\":6473:6608  function _EIP712Version() internal view returns (string memory) {... */\n      swap1\n      jump\t// out\n        /* \"@openzeppelin/contracts/utils/ShortStrings.sol\":3385:3652  function toStringWithFallback(ShortString value, string storage store) internal pure returns (string memory) {... */\n    tag_113:\n        /* \"@openzeppelin/contracts/utils/ShortStrings.sol\":3479:3492  string memory */\n      0x60\n        /* \"@openzeppelin/contracts/utils/ShortStrings.sol\":1390:1456  0x00000000000000000000000000000000000000000000000000000000000000FF */\n      0xff\n        /* \"@openzeppelin/contracts/utils/ShortStrings.sol\":3537:3554  FALLBACK_SENTINEL */\n      0x00\n      shl\n        /* \"@openzeppelin/contracts/utils/ShortStrings.sol\":3527:3532  value */\n      dup4\n        /* \"@openzeppelin/contracts/utils/ShortStrings.sol\":3508:3554  ShortString.unwrap(value) != FALLBACK_SENTINEL */\n      eq\n        /* \"@openzeppelin/contracts/utils/ShortStrings.sol\":3504:3646  if (ShortString.unwrap(value) != FALLBACK_SENTINEL) {... */\n      tag_117\n      jumpi\n        /* \"@openzeppelin/contracts/utils/ShortStrings.sol\":3577:3592  toString(value) */\n      tag_118\n        /* \"@openzeppelin/contracts/utils/ShortStrings.sol\":3586:3591  value */\n      dup4\n        /* \"@openzeppelin/contracts/utils/ShortStrings.sol\":3577:3585  toString */\n      tag_119\n        /* \"@openzeppelin/contracts/utils/ShortStrings.sol\":3577:3592  toString(value) */\n      jump\t// in\n    tag_118:\n        /* \"@openzeppelin/contracts/utils/ShortStrings.sol\":3570:3592  return toString(value) */\n      swap1\n      pop\n      jump(tag_116)\n        /* \"@openzeppelin/contracts/utils/ShortStrings.sol\":3504:3646  if (ShortString.unwrap(value) != FALLBACK_SENTINEL) {... */\n    tag_117:\n        /* \"@openzeppelin/contracts/utils/ShortStrings.sol\":3630:3635  store */\n      dup2\n        /* \"@openzeppelin/contracts/utils/ShortStrings.sol\":3623:3635  return store */\n      dup1\n      sload\n      tag_121\n      swap1\n      tag_47\n      jump\t// in\n    tag_121:\n      dup1\n      0x1f\n      add\n      0x20\n      dup1\n      swap2\n      div\n      mul\n      0x20\n      add\n      mload(0x40)\n      swap1\n      dup2\n      add\n      0x40\n      mstore\n      dup1\n      swap3\n      swap2\n      swap1\n      dup2\n      dup2\n      mstore\n      0x20\n      add\n      dup3\n      dup1\n      sload\n      tag_122\n      swap1\n      tag_47\n      jump\t// in\n    tag_122:\n      dup1\n      iszero\n      tag_123\n      jumpi\n      dup1\n      0x1f\n      lt\n      tag_124\n      jumpi\n      0x0100\n      dup1\n      dup4\n      sload\n      div\n      mul\n      dup4\n      mstore\n      swap2\n      0x20\n      add\n      swap2\n      jump(tag_123)\n    tag_124:\n      dup3\n      add\n      swap2\n      swap1\n      0x00\n      mstore\n      keccak256(0x00, 0x20)\n      swap1\n    tag_125:\n      dup2\n      sload\n      dup2\n      mstore\n      swap1\n      0x01\n      add\n      swap1\n      0x20\n      add\n      dup1\n      dup4\n      gt\n      tag_125\n      jumpi\n      dup3\n      swap1\n      sub\n      0x1f\n      and\n      dup3\n      add\n      swap2\n    tag_123:\n      pop\n      pop\n      pop\n      pop\n      pop\n      swap1\n      pop\n        /* \"@openzeppelin/contracts/utils/ShortStrings.sol\":3385:3652  function toStringWithFallback(ShortString value, string storage store) internal pure returns (string memory) {... */\n    tag_116:\n      swap3\n      swap2\n      pop\n      pop\n      jump\t// out\n        /* \"@openzeppelin/contracts/utils/ShortStrings.sol\":2078:2483  function toString(ShortString sstr) internal pure returns (string memory) {... */\n    tag_119:\n        /* \"@openzeppelin/contracts/utils/ShortStrings.sol\":2137:2150  string memory */\n      0x60\n        /* \"@openzeppelin/contracts/utils/ShortStrings.sol\":2162:2173  uint256 len */\n      0x00\n        /* \"@openzeppelin/contracts/utils/ShortStrings.sol\":2176:2192  byteLength(sstr) */\n      tag_127\n        /* \"@openzeppelin/contracts/utils/ShortStrings.sol\":2187:2191  sstr */\n      dup4\n        /* \"@openzeppelin/contracts/utils/ShortStrings.sol\":2176:2186  byteLength */\n      tag_128\n        /* \"@openzeppelin/contracts/utils/ShortStrings.sol\":2176:2192  byteLength(sstr) */\n      jump\t// in\n    tag_127:\n        /* \"@openzeppelin/contracts/utils/ShortStrings.sol\":2162:2192  uint256 len = byteLength(sstr) */\n      swap1\n      pop\n        /* \"@openzeppelin/contracts/utils/ShortStrings.sol\":2280:2297  string memory str */\n      0x00\n        /* \"@openzeppelin/contracts/utils/ShortStrings.sol\":2311:2313  32 */\n      0x20\n        /* \"@openzeppelin/contracts/utils/ShortStrings.sol\":2300:2314  new string(32) */\n      0xffffffffffffffff\n      dup2\n      gt\n      iszero\n      tag_129\n      jumpi\n      tag_130\n      tag_95\n      jump\t// in\n    tag_130:\n    tag_129:\n      mload(0x40)\n      swap1\n      dup1\n      dup3\n      mstore\n      dup1\n      0x1f\n      add\n      not(0x1f)\n      and\n      0x20\n      add\n      dup3\n      add\n      0x40\n      mstore\n      dup1\n      iszero\n      tag_131\n      jumpi\n      dup2\n      0x20\n      add\n      0x01\n      dup3\n      mul\n      dup1\n      calldatasize\n      dup4\n      calldatacopy\n      dup1\n      dup3\n      add\n      swap2\n      pop\n      pop\n      swap1\n      pop\n    tag_131:\n      pop\n        /* \"@openzeppelin/contracts/utils/ShortStrings.sol\":2280:2314  string memory str = new string(32) */\n      swap1\n      pop\n        /* \"@openzeppelin/contracts/utils/ShortStrings.sol\":2402:2405  len */\n      dup2\n        /* \"@openzeppelin/contracts/utils/ShortStrings.sol\":2397:2400  str */\n      dup2\n        /* \"@openzeppelin/contracts/utils/ShortStrings.sol\":2390:2406  mstore(str, len) */\n      mstore\n        /* \"@openzeppelin/contracts/utils/ShortStrings.sol\":2442:2446  sstr */\n      dup4\n        /* \"@openzeppelin/contracts/utils/ShortStrings.sol\":2435:2439  0x20 */\n      0x20\n        /* \"@openzeppelin/contracts/utils/ShortStrings.sol\":2430:2433  str */\n      dup3\n        /* \"@openzeppelin/contracts/utils/ShortStrings.sol\":2426:2440  add(str, 0x20) */\n      add\n        /* \"@openzeppelin/contracts/utils/ShortStrings.sol\":2419:2447  mstore(add(str, 0x20), sstr) */\n      mstore\n        /* \"@openzeppelin/contracts/utils/ShortStrings.sol\":2473:2476  str */\n      dup1\n        /* \"@openzeppelin/contracts/utils/ShortStrings.sol\":2466:2476  return str */\n      swap3\n      pop\n      pop\n      pop\n        /* \"@openzeppelin/contracts/utils/ShortStrings.sol\":2078:2483  function toString(ShortString sstr) internal pure returns (string memory) {... */\n      swap2\n      swap1\n      pop\n      jump\t// out\n        /* \"@openzeppelin/contracts/utils/ShortStrings.sol\":2555:2800  function byteLength(ShortString sstr) internal pure returns (uint256) {... */\n    tag_128:\n        /* \"@openzeppelin/contracts/utils/ShortStrings.sol\":2616:2623  uint256 */\n      0x00\n        /* \"@openzeppelin/contracts/utils/ShortStrings.sol\":2635:2649  uint256 result */\n      dup1\n        /* \"@openzeppelin/contracts/utils/ShortStrings.sol\":2688:2692  0xFF */\n      0xff\n        /* \"@openzeppelin/contracts/utils/ShortStrings.sol\":2679:2683  sstr */\n      dup4\n        /* \"@openzeppelin/contracts/utils/ShortStrings.sol\":2652:2685  uint256(ShortString.unwrap(sstr)) */\n      0x00\n      shr\n        /* \"@openzeppelin/contracts/utils/ShortStrings.sol\":2652:2692  uint256(ShortString.unwrap(sstr)) & 0xFF */\n      and\n        /* \"@openzeppelin/contracts/utils/ShortStrings.sol\":2635:2692  uint256 result = uint256(ShortString.unwrap(sstr)) & 0xFF */\n      swap1\n      pop\n        /* \"@openzeppelin/contracts/utils/ShortStrings.sol\":2715:2717  31 */\n      0x1f\n        /* \"@openzeppelin/contracts/utils/ShortStrings.sol\":2706:2712  result */\n      dup2\n        /* \"@openzeppelin/contracts/utils/ShortStrings.sol\":2706:2717  result > 31 */\n      gt\n        /* \"@openzeppelin/contracts/utils/ShortStrings.sol\":2702:2771  if (result > 31) {... */\n      iszero\n      tag_133\n      jumpi\n        /* \"@openzeppelin/contracts/utils/ShortStrings.sol\":2740:2760  InvalidShortString() */\n      mload(0x40)\n      0xb3512b0c00000000000000000000000000000000000000000000000000000000\n      dup2\n      mstore\n      0x04\n      add\n      mload(0x40)\n      dup1\n      swap2\n      sub\n      swap1\n      revert\n        /* \"@openzeppelin/contracts/utils/ShortStrings.sol\":2702:2771  if (result > 31) {... */\n    tag_133:\n        /* \"@openzeppelin/contracts/utils/ShortStrings.sol\":2787:2793  result */\n      dup1\n        /* \"@openzeppelin/contracts/utils/ShortStrings.sol\":2780:2793  return result */\n      swap2\n      pop\n      pop\n        /* \"@openzeppelin/contracts/utils/ShortStrings.sol\":2555:2800  function byteLength(ShortString sstr) internal pure returns (uint256) {... */\n      swap2\n      swap1\n      pop\n      jump\t// out\n        /* \"#utility.yul\":7:106   */\n    tag_134:\n        /* \"#utility.yul\":59:65   */\n      0x00\n        /* \"#utility.yul\":93:98   */\n      dup2\n        /* \"#utility.yul\":87:99   */\n      mload\n        /* \"#utility.yul\":77:99   */\n      swap1\n      pop\n        /* \"#utility.yul\":7:106   */\n      swap2\n      swap1\n      pop\n      jump\t// out\n        /* \"#utility.yul\":112:281   */\n    tag_135:\n        /* \"#utility.yul\":196:207   */\n      0x00\n        /* \"#utility.yul\":230:236   */\n      dup3\n        /* \"#utility.yul\":225:228   */\n      dup3\n        /* \"#utility.yul\":218:237   */\n      mstore\n        /* \"#utility.yul\":270:274   */\n      0x20\n        /* \"#utility.yul\":265:268   */\n      dup3\n        /* \"#utility.yul\":261:275   */\n      add\n        /* \"#utility.yul\":246:275   */\n      swap1\n      pop\n        /* \"#utility.yul\":112:281   */\n      swap3\n      swap2\n      pop\n      pop\n      jump\t// out\n        /* \"#utility.yul\":287:533   */\n    tag_136:\n        /* \"#utility.yul\":368:369   */\n      0x00\n        /* \"#utility.yul\":378:491   */\n    tag_204:\n        /* \"#utility.yul\":392:398   */\n      dup4\n        /* \"#utility.yul\":389:390   */\n      dup2\n        /* \"#utility.yul\":386:399   */\n      lt\n        /* \"#utility.yul\":378:491   */\n      iszero\n      tag_206\n      jumpi\n        /* \"#utility.yul\":477:478   */\n      dup1\n        /* \"#utility.yul\":472:475   */\n      dup3\n        /* \"#utility.yul\":468:479   */\n      add\n        /* \"#utility.yul\":462:480   */\n      mload\n        /* \"#utility.yul\":458:459   */\n      dup2\n        /* \"#utility.yul\":453:456   */\n      dup5\n        /* \"#utility.yul\":449:460   */\n      add\n        /* \"#utility.yul\":442:481   */\n      mstore\n        /* \"#utility.yul\":414:416   */\n      0x20\n        /* \"#utility.yul\":411:412   */\n      dup2\n        /* \"#utility.yul\":407:417   */\n      add\n        /* \"#utility.yul\":402:417   */\n      swap1\n      pop\n        /* \"#utility.yul\":378:491   */\n      jump(tag_204)\n    tag_206:\n        /* \"#utility.yul\":525:526   */\n      0x00\n        /* \"#utility.yul\":516:522   */\n      dup5\n        /* \"#utility.yul\":511:514   */\n      dup5\n        /* \"#utility.yul\":507:523   */\n      add\n        /* \"#utility.yul\":500:527   */\n      mstore\n        /* \"#utility.yul\":349:533   */\n      pop\n        /* \"#utility.yul\":287:533   */\n      pop\n      pop\n      pop\n      jump\t// out\n        /* \"#utility.yul\":539:641   */\n    tag_137:\n        /* \"#utility.yul\":580:586   */\n      0x00\n        /* \"#utility.yul\":631:633   */\n      0x1f\n        /* \"#utility.yul\":627:634   */\n      not\n        /* \"#utility.yul\":622:624   */\n      0x1f\n        /* \"#utility.yul\":615:620   */\n      dup4\n        /* \"#utility.yul\":611:625   */\n      add\n        /* \"#utility.yul\":607:635   */\n      and\n        /* \"#utility.yul\":597:635   */\n      swap1\n      pop\n        /* \"#utility.yul\":539:641   */\n      swap2\n      swap1\n      pop\n      jump\t// out\n        /* \"#utility.yul\":647:1024   */\n    tag_138:\n        /* \"#utility.yul\":735:738   */\n      0x00\n        /* \"#utility.yul\":763:802   */\n      tag_209\n        /* \"#utility.yul\":796:801   */\n      dup3\n        /* \"#utility.yul\":763:802   */\n      tag_134\n      jump\t// in\n    tag_209:\n        /* \"#utility.yul\":818:889   */\n      tag_210\n        /* \"#utility.yul\":882:888   */\n      dup2\n        /* \"#utility.yul\":877:880   */\n      dup6\n        /* \"#utility.yul\":818:889   */\n      tag_135\n      jump\t// in\n    tag_210:\n        /* \"#utility.yul\":811:889   */\n      swap4\n      pop\n        /* \"#utility.yul\":898:963   */\n      tag_211\n        /* \"#utility.yul\":956:962   */\n      dup2\n        /* \"#utility.yul\":951:954   */\n      dup6\n        /* \"#utility.yul\":944:948   */\n      0x20\n        /* \"#utility.yul\":937:942   */\n      dup7\n        /* \"#utility.yul\":933:949   */\n      add\n        /* \"#utility.yul\":898:963   */\n      tag_136\n      jump\t// in\n    tag_211:\n        /* \"#utility.yul\":988:1017   */\n      tag_212\n        /* \"#utility.yul\":1010:1016   */\n      dup2\n        /* \"#utility.yul\":988:1017   */\n      tag_137\n      jump\t// in\n    tag_212:\n        /* \"#utility.yul\":983:986   */\n      dup5\n        /* \"#utility.yul\":979:1018   */\n      add\n        /* \"#utility.yul\":972:1018   */\n      swap2\n      pop\n        /* \"#utility.yul\":739:1024   */\n      pop\n        /* \"#utility.yul\":647:1024   */\n      swap3\n      swap2\n      pop\n      pop\n      jump\t// out\n        /* \"#utility.yul\":1030:1343   */\n    tag_15:\n        /* \"#utility.yul\":1143:1147   */\n      0x00\n        /* \"#utility.yul\":1181:1183   */\n      0x20\n        /* \"#utility.yul\":1170:1179   */\n      dup3\n        /* \"#utility.yul\":1166:1184   */\n      add\n        /* \"#utility.yul\":1158:1184   */\n      swap1\n      pop\n        /* \"#utility.yul\":1230:1239   */\n      dup2\n        /* \"#utility.yul\":1224:1228   */\n      dup2\n        /* \"#utility.yul\":1220:1240   */\n      sub\n        /* \"#utility.yul\":1216:1217   */\n      0x00\n        /* \"#utility.yul\":1205:1214   */\n      dup4\n        /* \"#utility.yul\":1201:1218   */\n      add\n        /* \"#utility.yul\":1194:1241   */\n      mstore\n        /* \"#utility.yul\":1258:1336   */\n      tag_214\n        /* \"#utility.yul\":1331:1335   */\n      dup2\n        /* \"#utility.yul\":1322:1328   */\n      dup5\n        /* \"#utility.yul\":1258:1336   */\n      tag_138\n      jump\t// in\n    tag_214:\n        /* \"#utility.yul\":1250:1336   */\n      swap1\n      pop\n        /* \"#utility.yul\":1030:1343   */\n      swap3\n      swap2\n      pop\n      pop\n      jump\t// out\n        /* \"#utility.yul\":1349:1424   */\n    tag_139:\n        /* \"#utility.yul\":1382:1388   */\n      0x00\n        /* \"#utility.yul\":1415:1417   */\n      0x40\n        /* \"#utility.yul\":1409:1418   */\n      mload\n        /* \"#utility.yul\":1399:1418   */\n      swap1\n      pop\n        /* \"#utility.yul\":1349:1424   */\n      swap1\n      jump\t// out\n        /* \"#utility.yul\":1430:1547   */\n    tag_140:\n        /* \"#utility.yul\":1539:1540   */\n      0x00\n        /* \"#utility.yul\":1536:1537   */\n      dup1\n        /* \"#utility.yul\":1529:1541   */\n      revert\n        /* \"#utility.yul\":1553:1670   */\n    tag_141:\n        /* \"#utility.yul\":1662:1663   */\n      0x00\n        /* \"#utility.yul\":1659:1660   */\n      dup1\n        /* \"#utility.yul\":1652:1664   */\n      revert\n        /* \"#utility.yul\":1676:1802   */\n    tag_142:\n        /* \"#utility.yul\":1713:1720   */\n      0x00\n        /* \"#utility.yul\":1753:1795   */\n      0xffffffffffffffffffffffffffffffffffffffff\n        /* \"#utility.yul\":1746:1751   */\n      dup3\n        /* \"#utility.yul\":1742:1796   */\n      and\n        /* \"#utility.yul\":1731:1796   */\n      swap1\n      pop\n        /* \"#utility.yul\":1676:1802   */\n      swap2\n      swap1\n      pop\n      jump\t// out\n        /* \"#utility.yul\":1808:1904   */\n    tag_143:\n        /* \"#utility.yul\":1845:1852   */\n      0x00\n        /* \"#utility.yul\":1874:1898   */\n      tag_220\n        /* \"#utility.yul\":1892:1897   */\n      dup3\n        /* \"#utility.yul\":1874:1898   */\n      tag_142\n      jump\t// in\n    tag_220:\n        /* \"#utility.yul\":1863:1898   */\n      swap1\n      pop\n        /* \"#utility.yul\":1808:1904   */\n      swap2\n      swap1\n      pop\n      jump\t// out\n        /* \"#utility.yul\":1910:2032   */\n    tag_144:\n        /* \"#utility.yul\":1983:2007   */\n      tag_222\n        /* \"#utility.yul\":2001:2006   */\n      dup2\n        /* \"#utility.yul\":1983:2007   */\n      tag_143\n      jump\t// in\n    tag_222:\n        /* \"#utility.yul\":1976:1981   */\n      dup2\n        /* \"#utility.yul\":1973:2008   */\n      eq\n        /* \"#utility.yul\":1963:2026   */\n      tag_223\n      jumpi\n        /* \"#utility.yul\":2022:2023   */\n      0x00\n        /* \"#utility.yul\":2019:2020   */\n      dup1\n        /* \"#utility.yul\":2012:2024   */\n      revert\n        /* \"#utility.yul\":1963:2026   */\n    tag_223:\n        /* \"#utility.yul\":1910:2032   */\n      pop\n      jump\t// out\n        /* \"#utility.yul\":2038:2177   */\n    tag_145:\n        /* \"#utility.yul\":2084:2089   */\n      0x00\n        /* \"#utility.yul\":2122:2128   */\n      dup2\n        /* \"#utility.yul\":2109:2129   */\n      calldataload\n        /* \"#utility.yul\":2100:2129   */\n      swap1\n      pop\n        /* \"#utility.yul\":2138:2171   */\n      tag_225\n        /* \"#utility.yul\":2165:2170   */\n      dup2\n        /* \"#utility.yul\":2138:2171   */\n      tag_144\n      jump\t// in\n    tag_225:\n        /* \"#utility.yul\":2038:2177   */\n      swap3\n      swap2\n      pop\n      pop\n      jump\t// out\n        /* \"#utility.yul\":2183:2260   */\n    tag_146:\n        /* \"#utility.yul\":2220:2227   */\n      0x00\n        /* \"#utility.yul\":2249:2254   */\n      dup2\n        /* \"#utility.yul\":2238:2254   */\n      swap1\n      pop\n        /* \"#utility.yul\":2183:2260   */\n      swap2\n      swap1\n      pop\n      jump\t// out\n        /* \"#utility.yul\":2266:2388   */\n    tag_147:\n        /* \"#utility.yul\":2339:2363   */\n      tag_228\n        /* \"#utility.yul\":2357:2362   */\n      dup2\n        /* \"#utility.yul\":2339:2363   */\n      tag_146\n      jump\t// in\n    tag_228:\n        /* \"#utility.yul\":2332:2337   */\n      dup2\n        /* \"#utility.yul\":2329:2364   */\n      eq\n        /* \"#utility.yul\":2319:2382   */\n      tag_229\n      jumpi\n        /* \"#utility.yul\":2378:2379   */\n      0x00\n        /* \"#utility.yul\":2375:2376   */\n      dup1\n        /* \"#utility.yul\":2368:2380   */\n      revert\n        /* \"#utility.yul\":2319:2382   */\n    tag_229:\n        /* \"#utility.yul\":2266:2388   */\n      pop\n      jump\t// out\n        /* \"#utility.yul\":2394:2533   */\n    tag_148:\n        /* \"#utility.yul\":2440:2445   */\n      0x00\n        /* \"#utility.yul\":2478:2484   */\n      dup2\n        /* \"#utility.yul\":2465:2485   */\n      calldataload\n        /* \"#utility.yul\":2456:2485   */\n      swap1\n      pop\n        /* \"#utility.yul\":2494:2527   */\n      tag_231\n        /* \"#utility.yul\":2521:2526   */\n      dup2\n        /* \"#utility.yul\":2494:2527   */\n      tag_147\n      jump\t// in\n    tag_231:\n        /* \"#utility.yul\":2394:2533   */\n      swap3\n      swap2\n      pop\n      pop\n      jump\t// out\n        /* \"#utility.yul\":2539:2656   */\n    tag_149:\n        /* \"#utility.yul\":2648:2649   */\n      0x00\n        /* \"#utility.yul\":2645:2646   */\n      dup1\n        /* \"#utility.yul\":2638:2650   */\n      revert\n        /* \"#utility.yul\":2662:2779   */\n    tag_150:\n        /* \"#utility.yul\":2771:2772   */\n      0x00\n        /* \"#utility.yul\":2768:2769   */\n      dup1\n        /* \"#utility.yul\":2761:2773   */\n      revert\n        /* \"#utility.yul\":2785:2965   */\n    tag_95:\n        /* \"#utility.yul\":2833:2910   */\n      0x4e487b7100000000000000000000000000000000000000000000000000000000\n        /* \"#utility.yul\":2830:2831   */\n      0x00\n        /* \"#utility.yul\":2823:2911   */\n      mstore\n        /* \"#utility.yul\":2930:2934   */\n      0x41\n        /* \"#utility.yul\":2927:2928   */\n      0x04\n        /* \"#utility.yul\":2920:2935   */\n      mstore\n        /* \"#utility.yul\":2954:2958   */\n      0x24\n        /* \"#utility.yul\":2951:2952   */\n      0x00\n        /* \"#utility.yul\":2944:2959   */\n      revert\n        /* \"#utility.yul\":2971:3252   */\n    tag_151:\n        /* \"#utility.yul\":3054:3081   */\n      tag_236\n        /* \"#utility.yul\":3076:3080   */\n      dup3\n        /* \"#utility.yul\":3054:3081   */\n      tag_137\n      jump\t// in\n    tag_236:\n        /* \"#utility.yul\":3046:3052   */\n      dup2\n        /* \"#utility.yul\":3042:3082   */\n      add\n        /* \"#utility.yul\":3184:3190   */\n      dup2\n        /* \"#utility.yul\":3172:3182   */\n      dup2\n        /* \"#utility.yul\":3169:3191   */\n      lt\n        /* \"#utility.yul\":3148:3166   */\n      0xffffffffffffffff\n        /* \"#utility.yul\":3136:3146   */\n      dup3\n        /* \"#utility.yul\":3133:3167   */\n      gt\n        /* \"#utility.yul\":3130:3192   */\n      or\n        /* \"#utility.yul\":3127:3215   */\n      iszero\n      tag_237\n      jumpi\n        /* \"#utility.yul\":3195:3213   */\n      tag_238\n      tag_95\n      jump\t// in\n    tag_238:\n        /* \"#utility.yul\":3127:3215   */\n    tag_237:\n        /* \"#utility.yul\":3235:3245   */\n      dup1\n        /* \"#utility.yul\":3231:3233   */\n      0x40\n        /* \"#utility.yul\":3224:3246   */\n      mstore\n        /* \"#utility.yul\":3014:3252   */\n      pop\n        /* \"#utility.yul\":2971:3252   */\n      pop\n      pop\n      jump\t// out\n        /* \"#utility.yul\":3258:3387   */\n    tag_152:\n        /* \"#utility.yul\":3292:3298   */\n      0x00\n        /* \"#utility.yul\":3319:3339   */\n      tag_240\n      tag_139\n      jump\t// in\n    tag_240:\n        /* \"#utility.yul\":3309:3339   */\n      swap1\n      pop\n        /* \"#utility.yul\":3348:3381   */\n      tag_241\n        /* \"#utility.yul\":3376:3380   */\n      dup3\n        /* \"#utility.yul\":3368:3374   */\n      dup3\n        /* \"#utility.yul\":3348:3381   */\n      tag_151\n      jump\t// in\n    tag_241:\n        /* \"#utility.yul\":3258:3387   */\n      swap2\n      swap1\n      pop\n      jump\t// out\n        /* \"#utility.yul\":3393:3700   */\n    tag_153:\n        /* \"#utility.yul\":3454:3458   */\n      0x00\n        /* \"#utility.yul\":3544:3562   */\n      0xffffffffffffffff\n        /* \"#utility.yul\":3536:3542   */\n      dup3\n        /* \"#utility.yul\":3533:3563   */\n      gt\n        /* \"#utility.yul\":3530:3586   */\n      iszero\n      tag_243\n      jumpi\n        /* \"#utility.yul\":3566:3584   */\n      tag_244\n      tag_95\n      jump\t// in\n    tag_244:\n        /* \"#utility.yul\":3530:3586   */\n    tag_243:\n        /* \"#utility.yul\":3604:3633   */\n      tag_245\n        /* \"#utility.yul\":3626:3632   */\n      dup3\n        /* \"#utility.yul\":3604:3633   */\n      tag_137\n      jump\t// in\n    tag_245:\n        /* \"#utility.yul\":3596:3633   */\n      swap1\n      pop\n        /* \"#utility.yul\":3688:3692   */\n      0x20\n        /* \"#utility.yul\":3682:3686   */\n      dup2\n        /* \"#utility.yul\":3678:3693   */\n      add\n        /* \"#utility.yul\":3670:3693   */\n      swap1\n      pop\n        /* \"#utility.yul\":3393:3700   */\n      swap2\n      swap1\n      pop\n      jump\t// out\n        /* \"#utility.yul\":3706:3852   */\n    tag_154:\n        /* \"#utility.yul\":3803:3809   */\n      dup3\n        /* \"#utility.yul\":3798:3801   */\n      dup2\n        /* \"#utility.yul\":3793:3796   */\n      dup4\n        /* \"#utility.yul\":3780:3810   */\n      calldatacopy\n        /* \"#utility.yul\":3844:3845   */\n      0x00\n        /* \"#utility.yul\":3835:3841   */\n      dup4\n        /* \"#utility.yul\":3830:3833   */\n      dup4\n        /* \"#utility.yul\":3826:3842   */\n      add\n        /* \"#utility.yul\":3819:3846   */\n      mstore\n        /* \"#utility.yul\":3706:3852   */\n      pop\n      pop\n      pop\n      jump\t// out\n        /* \"#utility.yul\":3858:4281   */\n    tag_155:\n        /* \"#utility.yul\":3935:3940   */\n      0x00\n        /* \"#utility.yul\":3960:4025   */\n      tag_248\n        /* \"#utility.yul\":3976:4024   */\n      tag_249\n        /* \"#utility.yul\":4017:4023   */\n      dup5\n        /* \"#utility.yul\":3976:4024   */\n      tag_153\n      jump\t// in\n    tag_249:\n        /* \"#utility.yul\":3960:4025   */\n      tag_152\n      jump\t// in\n    tag_248:\n        /* \"#utility.yul\":3951:4025   */\n      swap1\n      pop\n        /* \"#utility.yul\":4048:4054   */\n      dup3\n        /* \"#utility.yul\":4041:4046   */\n      dup2\n        /* \"#utility.yul\":4034:4055   */\n      mstore\n        /* \"#utility.yul\":4086:4090   */\n      0x20\n        /* \"#utility.yul\":4079:4084   */\n      dup2\n        /* \"#utility.yul\":4075:4091   */\n      add\n        /* \"#utility.yul\":4124:4127   */\n      dup5\n        /* \"#utility.yul\":4115:4121   */\n      dup5\n        /* \"#utility.yul\":4110:4113   */\n      dup5\n        /* \"#utility.yul\":4106:4122   */\n      add\n        /* \"#utility.yul\":4103:4128   */\n      gt\n        /* \"#utility.yul\":4100:4212   */\n      iszero\n      tag_250\n      jumpi\n        /* \"#utility.yul\":4131:4210   */\n      tag_251\n      tag_150\n      jump\t// in\n    tag_251:\n        /* \"#utility.yul\":4100:4212   */\n    tag_250:\n        /* \"#utility.yul\":4221:4275   */\n      tag_252\n        /* \"#utility.yul\":4268:4274   */\n      dup5\n        /* \"#utility.yul\":4263:4266   */\n      dup3\n        /* \"#utility.yul\":4258:4261   */\n      dup6\n        /* \"#utility.yul\":4221:4275   */\n      tag_154\n      jump\t// in\n    tag_252:\n        /* \"#utility.yul\":3941:4281   */\n      pop\n        /* \"#utility.yul\":3858:4281   */\n      swap4\n      swap3\n      pop\n      pop\n      pop\n      jump\t// out\n        /* \"#utility.yul\":4300:4638   */\n    tag_156:\n        /* \"#utility.yul\":4355:4360   */\n      0x00\n        /* \"#utility.yul\":4404:4407   */\n      dup3\n        /* \"#utility.yul\":4397:4401   */\n      0x1f\n        /* \"#utility.yul\":4389:4395   */\n      dup4\n        /* \"#utility.yul\":4385:4402   */\n      add\n        /* \"#utility.yul\":4381:4408   */\n      slt\n        /* \"#utility.yul\":4371:4493   */\n      tag_254\n      jumpi\n        /* \"#utility.yul\":4412:4491   */\n      tag_255\n      tag_149\n      jump\t// in\n    tag_255:\n        /* \"#utility.yul\":4371:4493   */\n    tag_254:\n        /* \"#utility.yul\":4529:4535   */\n      dup2\n        /* \"#utility.yul\":4516:4536   */\n      calldataload\n        /* \"#utility.yul\":4554:4632   */\n      tag_256\n        /* \"#utility.yul\":4628:4631   */\n      dup5\n        /* \"#utility.yul\":4620:4626   */\n      dup3\n        /* \"#utility.yul\":4613:4617   */\n      0x20\n        /* \"#utility.yul\":4605:4611   */\n      dup7\n        /* \"#utility.yul\":4601:4618   */\n      add\n        /* \"#utility.yul\":4554:4632   */\n      tag_155\n      jump\t// in\n    tag_256:\n        /* \"#utility.yul\":4545:4632   */\n      swap2\n      pop\n        /* \"#utility.yul\":4361:4638   */\n      pop\n        /* \"#utility.yul\":4300:4638   */\n      swap3\n      swap2\n      pop\n      pop\n      jump\t// out\n        /* \"#utility.yul\":4644:4721   */\n    tag_157:\n        /* \"#utility.yul\":4681:4688   */\n      0x00\n        /* \"#utility.yul\":4710:4715   */\n      dup2\n        /* \"#utility.yul\":4699:4715   */\n      swap1\n      pop\n        /* \"#utility.yul\":4644:4721   */\n      swap2\n      swap1\n      pop\n      jump\t// out\n        /* \"#utility.yul\":4727:4849   */\n    tag_158:\n        /* \"#utility.yul\":4800:4824   */\n      tag_259\n        /* \"#utility.yul\":4818:4823   */\n      dup2\n        /* \"#utility.yul\":4800:4824   */\n      tag_157\n      jump\t// in\n    tag_259:\n        /* \"#utility.yul\":4793:4798   */\n      dup2\n        /* \"#utility.yul\":4790:4825   */\n      eq\n        /* \"#utility.yul\":4780:4843   */\n      tag_260\n      jumpi\n        /* \"#utility.yul\":4839:4840   */\n      0x00\n        /* \"#utility.yul\":4836:4837   */\n      dup1\n        /* \"#utility.yul\":4829:4841   */\n      revert\n        /* \"#utility.yul\":4780:4843   */\n    tag_260:\n        /* \"#utility.yul\":4727:4849   */\n      pop\n      jump\t// out\n        /* \"#utility.yul\":4855:4994   */\n    tag_159:\n        /* \"#utility.yul\":4901:4906   */\n      0x00\n        /* \"#utility.yul\":4939:4945   */\n      dup2\n        /* \"#utility.yul\":4926:4946   */\n      calldataload\n        /* \"#utility.yul\":4917:4946   */\n      swap1\n      pop\n        /* \"#utility.yul\":4955:4988   */\n      tag_262\n        /* \"#utility.yul\":4982:4987   */\n      dup2\n        /* \"#utility.yul\":4955:4988   */\n      tag_158\n      jump\t// in\n    tag_262:\n        /* \"#utility.yul\":4855:4994   */\n      swap3\n      swap2\n      pop\n      pop\n      jump\t// out\n        /* \"#utility.yul\":5000:5943   */\n    tag_18:\n        /* \"#utility.yul\":5095:5101   */\n      0x00\n        /* \"#utility.yul\":5103:5109   */\n      dup1\n        /* \"#utility.yul\":5111:5117   */\n      0x00\n        /* \"#utility.yul\":5119:5125   */\n      dup1\n        /* \"#utility.yul\":5168:5171   */\n      0x80\n        /* \"#utility.yul\":5156:5165   */\n      dup6\n        /* \"#utility.yul\":5147:5154   */\n      dup8\n        /* \"#utility.yul\":5143:5166   */\n      sub\n        /* \"#utility.yul\":5139:5172   */\n      slt\n        /* \"#utility.yul\":5136:5256   */\n      iszero\n      tag_264\n      jumpi\n        /* \"#utility.yul\":5175:5254   */\n      tag_265\n      tag_140\n      jump\t// in\n    tag_265:\n        /* \"#utility.yul\":5136:5256   */\n    tag_264:\n        /* \"#utility.yul\":5295:5296   */\n      0x00\n        /* \"#utility.yul\":5320:5373   */\n      tag_266\n        /* \"#utility.yul\":5365:5372   */\n      dup8\n        /* \"#utility.yul\":5356:5362   */\n      dup3\n        /* \"#utility.yul\":5345:5354   */\n      dup9\n        /* \"#utility.yul\":5341:5363   */\n      add\n        /* \"#utility.yul\":5320:5373   */\n      tag_145\n      jump\t// in\n    tag_266:\n        /* \"#utility.yul\":5310:5373   */\n      swap5\n      pop\n        /* \"#utility.yul\":5266:5383   */\n      pop\n        /* \"#utility.yul\":5422:5424   */\n      0x20\n        /* \"#utility.yul\":5448:5501   */\n      tag_267\n        /* \"#utility.yul\":5493:5500   */\n      dup8\n        /* \"#utility.yul\":5484:5490   */\n      dup3\n        /* \"#utility.yul\":5473:5482   */\n      dup9\n        /* \"#utility.yul\":5469:5491   */\n      add\n        /* \"#utility.yul\":5448:5501   */\n      tag_148\n      jump\t// in\n    tag_267:\n        /* \"#utility.yul\":5438:5501   */\n      swap4\n      pop\n        /* \"#utility.yul\":5393:5511   */\n      pop\n        /* \"#utility.yul\":5578:5580   */\n      0x40\n        /* \"#utility.yul\":5567:5576   */\n      dup6\n        /* \"#utility.yul\":5563:5581   */\n      add\n        /* \"#utility.yul\":5550:5582   */\n      calldataload\n        /* \"#utility.yul\":5609:5627   */\n      0xffffffffffffffff\n        /* \"#utility.yul\":5601:5607   */\n      dup2\n        /* \"#utility.yul\":5598:5628   */\n      gt\n        /* \"#utility.yul\":5595:5712   */\n      iszero\n      tag_268\n      jumpi\n        /* \"#utility.yul\":5631:5710   */\n      tag_269\n      tag_141\n      jump\t// in\n    tag_269:\n        /* \"#utility.yul\":5595:5712   */\n    tag_268:\n        /* \"#utility.yul\":5736:5798   */\n      tag_270\n        /* \"#utility.yul\":5790:5797   */\n      dup8\n        /* \"#utility.yul\":5781:5787   */\n      dup3\n        /* \"#utility.yul\":5770:5779   */\n      dup9\n        /* \"#utility.yul\":5766:5788   */\n      add\n        /* \"#utility.yul\":5736:5798   */\n      tag_156\n      jump\t// in\n    tag_270:\n        /* \"#utility.yul\":5726:5798   */\n      swap3\n      pop\n        /* \"#utility.yul\":5521:5808   */\n      pop\n        /* \"#utility.yul\":5847:5849   */\n      0x60\n        /* \"#utility.yul\":5873:5926   */\n      tag_271\n        /* \"#utility.yul\":5918:5925   */\n      dup8\n        /* \"#utility.yul\":5909:5915   */\n      dup3\n        /* \"#utility.yul\":5898:5907   */\n      dup9\n        /* \"#utility.yul\":5894:5916   */\n      add\n        /* \"#utility.yul\":5873:5926   */\n      tag_159\n      jump\t// in\n    tag_271:\n        /* \"#utility.yul\":5863:5926   */\n      swap2\n      pop\n        /* \"#utility.yul\":5818:5936   */\n      pop\n        /* \"#utility.yul\":5000:5943   */\n      swap3\n      swap6\n      swap2\n      swap5\n      pop\n      swap3\n      pop\n      jump\t// out\n        /* \"#utility.yul\":5949:6067   */\n    tag_160:\n        /* \"#utility.yul\":6036:6060   */\n      tag_273\n        /* \"#utility.yul\":6054:6059   */\n      dup2\n        /* \"#utility.yul\":6036:6060   */\n      tag_146\n      jump\t// in\n    tag_273:\n        /* \"#utility.yul\":6031:6034   */\n      dup3\n        /* \"#utility.yul\":6024:6061   */\n      mstore\n        /* \"#utility.yul\":5949:6067   */\n      pop\n      pop\n      jump\t// out\n        /* \"#utility.yul\":6073:6295   */\n    tag_21:\n        /* \"#utility.yul\":6166:6170   */\n      0x00\n        /* \"#utility.yul\":6204:6206   */\n      0x20\n        /* \"#utility.yul\":6193:6202   */\n      dup3\n        /* \"#utility.yul\":6189:6207   */\n      add\n        /* \"#utility.yul\":6181:6207   */\n      swap1\n      pop\n        /* \"#utility.yul\":6217:6288   */\n      tag_275\n        /* \"#utility.yul\":6285:6286   */\n      0x00\n        /* \"#utility.yul\":6274:6283   */\n      dup4\n        /* \"#utility.yul\":6270:6287   */\n      add\n        /* \"#utility.yul\":6261:6267   */\n      dup5\n        /* \"#utility.yul\":6217:6288   */\n      tag_160\n      jump\t// in\n    tag_275:\n        /* \"#utility.yul\":6073:6295   */\n      swap3\n      swap2\n      pop\n      pop\n      jump\t// out\n        /* \"#utility.yul\":6301:6775   */\n    tag_24:\n        /* \"#utility.yul\":6369:6375   */\n      0x00\n        /* \"#utility.yul\":6377:6383   */\n      dup1\n        /* \"#utility.yul\":6426:6428   */\n      0x40\n        /* \"#utility.yul\":6414:6423   */\n      dup4\n        /* \"#utility.yul\":6405:6412   */\n      dup6\n        /* \"#utility.yul\":6401:6424   */\n      sub\n        /* \"#utility.yul\":6397:6429   */\n      slt\n        /* \"#utility.yul\":6394:6513   */\n      iszero\n      tag_277\n      jumpi\n        /* \"#utility.yul\":6432:6511   */\n      tag_278\n      tag_140\n      jump\t// in\n    tag_278:\n        /* \"#utility.yul\":6394:6513   */\n    tag_277:\n        /* \"#utility.yul\":6552:6553   */\n      0x00\n        /* \"#utility.yul\":6577:6630   */\n      tag_279\n        /* \"#utility.yul\":6622:6629   */\n      dup6\n        /* \"#utility.yul\":6613:6619   */\n      dup3\n        /* \"#utility.yul\":6602:6611   */\n      dup7\n        /* \"#utility.yul\":6598:6620   */\n      add\n        /* \"#utility.yul\":6577:6630   */\n      tag_145\n      jump\t// in\n    tag_279:\n        /* \"#utility.yul\":6567:6630   */\n      swap3\n      pop\n        /* \"#utility.yul\":6523:6640   */\n      pop\n        /* \"#utility.yul\":6679:6681   */\n      0x20\n        /* \"#utility.yul\":6705:6758   */\n      tag_280\n        /* \"#utility.yul\":6750:6757   */\n      dup6\n        /* \"#utility.yul\":6741:6747   */\n      dup3\n        /* \"#utility.yul\":6730:6739   */\n      dup7\n        /* \"#utility.yul\":6726:6748   */\n      add\n        /* \"#utility.yul\":6705:6758   */\n      tag_145\n      jump\t// in\n    tag_280:\n        /* \"#utility.yul\":6695:6758   */\n      swap2\n      pop\n        /* \"#utility.yul\":6650:6768   */\n      pop\n        /* \"#utility.yul\":6301:6775   */\n      swap3\n      pop\n      swap3\n      swap1\n      pop\n      jump\t// out\n        /* \"#utility.yul\":6781:7110   */\n    tag_28:\n        /* \"#utility.yul\":6840:6846   */\n      0x00\n        /* \"#utility.yul\":6889:6891   */\n      0x20\n        /* \"#utility.yul\":6877:6886   */\n      dup3\n        /* \"#utility.yul\":6868:6875   */\n      dup5\n        /* \"#utility.yul\":6864:6887   */\n      sub\n        /* \"#utility.yul\":6860:6892   */\n      slt\n        /* \"#utility.yul\":6857:6976   */\n      iszero\n      tag_282\n      jumpi\n        /* \"#utility.yul\":6895:6974   */\n      tag_283\n      tag_140\n      jump\t// in\n    tag_283:\n        /* \"#utility.yul\":6857:6976   */\n    tag_282:\n        /* \"#utility.yul\":7015:7016   */\n      0x00\n        /* \"#utility.yul\":7040:7093   */\n      tag_284\n        /* \"#utility.yul\":7085:7092   */\n      dup5\n        /* \"#utility.yul\":7076:7082   */\n      dup3\n        /* \"#utility.yul\":7065:7074   */\n      dup6\n        /* \"#utility.yul\":7061:7083   */\n      add\n        /* \"#utility.yul\":7040:7093   */\n      tag_148\n      jump\t// in\n    tag_284:\n        /* \"#utility.yul\":7030:7093   */\n      swap2\n      pop\n        /* \"#utility.yul\":6986:7103   */\n      pop\n        /* \"#utility.yul\":6781:7110   */\n      swap3\n      swap2\n      pop\n      pop\n      jump\t// out\n        /* \"#utility.yul\":7116:7296   */\n    tag_79:\n        /* \"#utility.yul\":7164:7241   */\n      0x4e487b7100000000000000000000000000000000000000000000000000000000\n        /* \"#utility.yul\":7161:7162   */\n      0x00\n        /* \"#utility.yul\":7154:7242   */\n      mstore\n        /* \"#utility.yul\":7261:7265   */\n      0x21\n        /* \"#utility.yul\":7258:7259   */\n      0x04\n        /* \"#utility.yul\":7251:7266   */\n      mstore\n        /* \"#utility.yul\":7285:7289   */\n      0x24\n        /* \"#utility.yul\":7282:7283   */\n      0x00\n        /* \"#utility.yul\":7275:7290   */\n      revert\n        /* \"#utility.yul\":7302:7425   */\n    tag_161:\n        /* \"#utility.yul\":7393:7394   */\n      0x06\n        /* \"#utility.yul\":7386:7391   */\n      dup2\n        /* \"#utility.yul\":7383:7395   */\n      lt\n        /* \"#utility.yul\":7373:7419   */\n      tag_287\n      jumpi\n        /* \"#utility.yul\":7399:7417   */\n      tag_288\n      tag_79\n      jump\t// in\n    tag_288:\n        /* \"#utility.yul\":7373:7419   */\n    tag_287:\n        /* \"#utility.yul\":7302:7425   */\n      pop\n      jump\t// out\n        /* \"#utility.yul\":7431:7578   */\n    tag_162:\n        /* \"#utility.yul\":7486:7493   */\n      0x00\n        /* \"#utility.yul\":7515:7520   */\n      dup2\n        /* \"#utility.yul\":7504:7520   */\n      swap1\n      pop\n        /* \"#utility.yul\":7521:7572   */\n      tag_290\n        /* \"#utility.yul\":7566:7571   */\n      dup3\n        /* \"#utility.yul\":7521:7572   */\n      tag_161\n      jump\t// in\n    tag_290:\n        /* \"#utility.yul\":7431:7578   */\n      swap2\n      swap1\n      pop\n      jump\t// out\n        /* \"#utility.yul\":7584:7731   */\n    tag_163:\n        /* \"#utility.yul\":7650:7659   */\n      0x00\n        /* \"#utility.yul\":7683:7725   */\n      tag_292\n        /* \"#utility.yul\":7719:7724   */\n      dup3\n        /* \"#utility.yul\":7683:7725   */\n      tag_162\n      jump\t// in\n    tag_292:\n        /* \"#utility.yul\":7670:7725   */\n      swap1\n      pop\n        /* \"#utility.yul\":7584:7731   */\n      swap2\n      swap1\n      pop\n      jump\t// out\n        /* \"#utility.yul\":7737:7900   */\n    tag_164:\n        /* \"#utility.yul\":7840:7893   */\n      tag_294\n        /* \"#utility.yul\":7887:7892   */\n      dup2\n        /* \"#utility.yul\":7840:7893   */\n      tag_163\n      jump\t// in\n    tag_294:\n        /* \"#utility.yul\":7835:7838   */\n      dup3\n        /* \"#utility.yul\":7828:7894   */\n      mstore\n        /* \"#utility.yul\":7737:7900   */\n      pop\n      pop\n      jump\t// out\n        /* \"#utility.yul\":7906:8160   */\n    tag_31:\n        /* \"#utility.yul\":8015:8019   */\n      0x00\n        /* \"#utility.yul\":8053:8055   */\n      0x20\n        /* \"#utility.yul\":8042:8051   */\n      dup3\n        /* \"#utility.yul\":8038:8056   */\n      add\n        /* \"#utility.yul\":8030:8056   */\n      swap1\n      pop\n        /* \"#utility.yul\":8066:8153   */\n      tag_296\n        /* \"#utility.yul\":8150:8151   */\n      0x00\n        /* \"#utility.yul\":8139:8148   */\n      dup4\n        /* \"#utility.yul\":8135:8152   */\n      add\n        /* \"#utility.yul\":8126:8132   */\n      dup5\n        /* \"#utility.yul\":8066:8153   */\n      tag_164\n      jump\t// in\n    tag_296:\n        /* \"#utility.yul\":7906:8160   */\n      swap3\n      swap2\n      pop\n      pop\n      jump\t// out\n        /* \"#utility.yul\":8166:8315   */\n    tag_165:\n        /* \"#utility.yul\":8202:8209   */\n      0x00\n        /* \"#utility.yul\":8242:8308   */\n      0xff00000000000000000000000000000000000000000000000000000000000000\n        /* \"#utility.yul\":8235:8240   */\n      dup3\n        /* \"#utility.yul\":8231:8309   */\n      and\n        /* \"#utility.yul\":8220:8309   */\n      swap1\n      pop\n        /* \"#utility.yul\":8166:8315   */\n      swap2\n      swap1\n      pop\n      jump\t// out\n        /* \"#utility.yul\":8321:8436   */\n    tag_166:\n        /* \"#utility.yul\":8406:8429   */\n      tag_299\n        /* \"#utility.yul\":8423:8428   */\n      dup2\n        /* \"#utility.yul\":8406:8429   */\n      tag_165\n      jump\t// in\n    tag_299:\n        /* \"#utility.yul\":8401:8404   */\n      dup3\n        /* \"#utility.yul\":8394:8430   */\n      mstore\n        /* \"#utility.yul\":8321:8436   */\n      pop\n      pop\n      jump\t// out\n        /* \"#utility.yul\":8442:8560   */\n    tag_167:\n        /* \"#utility.yul\":8529:8553   */\n      tag_301\n        /* \"#utility.yul\":8547:8552   */\n      dup2\n        /* \"#utility.yul\":8529:8553   */\n      tag_143\n      jump\t// in\n    tag_301:\n        /* \"#utility.yul\":8524:8527   */\n      dup3\n        /* \"#utility.yul\":8517:8554   */\n      mstore\n        /* \"#utility.yul\":8442:8560   */\n      pop\n      pop\n      jump\t// out\n        /* \"#utility.yul\":8566:8684   */\n    tag_168:\n        /* \"#utility.yul\":8653:8677   */\n      tag_303\n        /* \"#utility.yul\":8671:8676   */\n      dup2\n        /* \"#utility.yul\":8653:8677   */\n      tag_157\n      jump\t// in\n    tag_303:\n        /* \"#utility.yul\":8648:8651   */\n      dup3\n        /* \"#utility.yul\":8641:8678   */\n      mstore\n        /* \"#utility.yul\":8566:8684   */\n      pop\n      pop\n      jump\t// out\n        /* \"#utility.yul\":8690:8804   */\n    tag_169:\n        /* \"#utility.yul\":8757:8763   */\n      0x00\n        /* \"#utility.yul\":8791:8796   */\n      dup2\n        /* \"#utility.yul\":8785:8797   */\n      mload\n        /* \"#utility.yul\":8775:8797   */\n      swap1\n      pop\n        /* \"#utility.yul\":8690:8804   */\n      swap2\n      swap1\n      pop\n      jump\t// out\n        /* \"#utility.yul\":8810:8994   */\n    tag_170:\n        /* \"#utility.yul\":8909:8920   */\n      0x00\n        /* \"#utility.yul\":8943:8949   */\n      dup3\n        /* \"#utility.yul\":8938:8941   */\n      dup3\n        /* \"#utility.yul\":8931:8950   */\n      mstore\n        /* \"#utility.yul\":8983:8987   */\n      0x20\n        /* \"#utility.yul\":8978:8981   */\n      dup3\n        /* \"#utility.yul\":8974:8988   */\n      add\n        /* \"#utility.yul\":8959:8988   */\n      swap1\n      pop\n        /* \"#utility.yul\":8810:8994   */\n      swap3\n      swap2\n      pop\n      pop\n      jump\t// out\n        /* \"#utility.yul\":9000:9132   */\n    tag_171:\n        /* \"#utility.yul\":9067:9071   */\n      0x00\n        /* \"#utility.yul\":9090:9093   */\n      dup2\n        /* \"#utility.yul\":9082:9093   */\n      swap1\n      pop\n        /* \"#utility.yul\":9120:9124   */\n      0x20\n        /* \"#utility.yul\":9115:9118   */\n      dup3\n        /* \"#utility.yul\":9111:9125   */\n      add\n        /* \"#utility.yul\":9103:9125   */\n      swap1\n      pop\n        /* \"#utility.yul\":9000:9132   */\n      swap2\n      swap1\n      pop\n      jump\t// out\n        /* \"#utility.yul\":9138:9246   */\n    tag_172:\n        /* \"#utility.yul\":9215:9239   */\n      tag_308\n        /* \"#utility.yul\":9233:9238   */\n      dup2\n        /* \"#utility.yul\":9215:9239   */\n      tag_146\n      jump\t// in\n    tag_308:\n        /* \"#utility.yul\":9210:9213   */\n      dup3\n        /* \"#utility.yul\":9203:9240   */\n      mstore\n        /* \"#utility.yul\":9138:9246   */\n      pop\n      pop\n      jump\t// out\n        /* \"#utility.yul\":9252:9431   */\n    tag_173:\n        /* \"#utility.yul\":9321:9331   */\n      0x00\n        /* \"#utility.yul\":9342:9388   */\n      tag_310\n        /* \"#utility.yul\":9384:9387   */\n      dup4\n        /* \"#utility.yul\":9376:9382   */\n      dup4\n        /* \"#utility.yul\":9342:9388   */\n      tag_172\n      jump\t// in\n    tag_310:\n        /* \"#utility.yul\":9420:9424   */\n      0x20\n        /* \"#utility.yul\":9415:9418   */\n      dup4\n        /* \"#utility.yul\":9411:9425   */\n      add\n        /* \"#utility.yul\":9397:9425   */\n      swap1\n      pop\n        /* \"#utility.yul\":9252:9431   */\n      swap3\n      swap2\n      pop\n      pop\n      jump\t// out\n        /* \"#utility.yul\":9437:9550   */\n    tag_174:\n        /* \"#utility.yul\":9507:9511   */\n      0x00\n        /* \"#utility.yul\":9539:9543   */\n      0x20\n        /* \"#utility.yul\":9534:9537   */\n      dup3\n        /* \"#utility.yul\":9530:9544   */\n      add\n        /* \"#utility.yul\":9522:9544   */\n      swap1\n      pop\n        /* \"#utility.yul\":9437:9550   */\n      swap2\n      swap1\n      pop\n      jump\t// out\n        /* \"#utility.yul\":9586:10318   */\n    tag_175:\n        /* \"#utility.yul\":9705:9708   */\n      0x00\n        /* \"#utility.yul\":9734:9788   */\n      tag_313\n        /* \"#utility.yul\":9782:9787   */\n      dup3\n        /* \"#utility.yul\":9734:9788   */\n      tag_169\n      jump\t// in\n    tag_313:\n        /* \"#utility.yul\":9804:9890   */\n      tag_314\n        /* \"#utility.yul\":9883:9889   */\n      dup2\n        /* \"#utility.yul\":9878:9881   */\n      dup6\n        /* \"#utility.yul\":9804:9890   */\n      tag_170\n      jump\t// in\n    tag_314:\n        /* \"#utility.yul\":9797:9890   */\n      swap4\n      pop\n        /* \"#utility.yul\":9914:9970   */\n      tag_315\n        /* \"#utility.yul\":9964:9969   */\n      dup4\n        /* \"#utility.yul\":9914:9970   */\n      tag_171\n      jump\t// in\n    tag_315:\n        /* \"#utility.yul\":9993:10000   */\n      dup1\n        /* \"#utility.yul\":10024:10025   */\n      0x00\n        /* \"#utility.yul\":10009:10293   */\n    tag_316:\n        /* \"#utility.yul\":10034:10040   */\n      dup4\n        /* \"#utility.yul\":10031:10032   */\n      dup2\n        /* \"#utility.yul\":10028:10041   */\n      lt\n        /* \"#utility.yul\":10009:10293   */\n      iszero\n      tag_318\n      jumpi\n        /* \"#utility.yul\":10110:10116   */\n      dup2\n        /* \"#utility.yul\":10104:10117   */\n      mload\n        /* \"#utility.yul\":10137:10200   */\n      tag_319\n        /* \"#utility.yul\":10196:10199   */\n      dup9\n        /* \"#utility.yul\":10181:10194   */\n      dup3\n        /* \"#utility.yul\":10137:10200   */\n      tag_173\n      jump\t// in\n    tag_319:\n        /* \"#utility.yul\":10130:10200   */\n      swap8\n      pop\n        /* \"#utility.yul\":10223:10283   */\n      tag_320\n        /* \"#utility.yul\":10276:10282   */\n      dup4\n        /* \"#utility.yul\":10223:10283   */\n      tag_174\n      jump\t// in\n    tag_320:\n        /* \"#utility.yul\":10213:10283   */\n      swap3\n      pop\n        /* \"#utility.yul\":10069:10293   */\n      pop\n        /* \"#utility.yul\":10056:10057   */\n      0x01\n        /* \"#utility.yul\":10053:10054   */\n      dup2\n        /* \"#utility.yul\":10049:10058   */\n      add\n        /* \"#utility.yul\":10044:10058   */\n      swap1\n      pop\n        /* \"#utility.yul\":10009:10293   */\n      jump(tag_316)\n    tag_318:\n        /* \"#utility.yul\":10013:10027   */\n      pop\n        /* \"#utility.yul\":10309:10312   */\n      dup6\n        /* \"#utility.yul\":10302:10312   */\n      swap4\n      pop\n        /* \"#utility.yul\":9710:10318   */\n      pop\n      pop\n      pop\n        /* \"#utility.yul\":9586:10318   */\n      swap3\n      swap2\n      pop\n      pop\n      jump\t// out\n        /* \"#utility.yul\":10324:11539   */\n    tag_44:\n        /* \"#utility.yul\":10673:10677   */\n      0x00\n        /* \"#utility.yul\":10711:10714   */\n      0xe0\n        /* \"#utility.yul\":10700:10709   */\n      dup3\n        /* \"#utility.yul\":10696:10715   */\n      add\n        /* \"#utility.yul\":10688:10715   */\n      swap1\n      pop\n        /* \"#utility.yul\":10725:10794   */\n      tag_322\n        /* \"#utility.yul\":10791:10792   */\n      0x00\n        /* \"#utility.yul\":10780:10789   */\n      dup4\n        /* \"#utility.yul\":10776:10793   */\n      add\n        /* \"#utility.yul\":10767:10773   */\n      dup11\n        /* \"#utility.yul\":10725:10794   */\n      tag_166\n      jump\t// in\n    tag_322:\n        /* \"#utility.yul\":10841:10850   */\n      dup2\n        /* \"#utility.yul\":10835:10839   */\n      dup2\n        /* \"#utility.yul\":10831:10851   */\n      sub\n        /* \"#utility.yul\":10826:10828   */\n      0x20\n        /* \"#utility.yul\":10815:10824   */\n      dup4\n        /* \"#utility.yul\":10811:10829   */\n      add\n        /* \"#utility.yul\":10804:10852   */\n      mstore\n        /* \"#utility.yul\":10869:10947   */\n      tag_323\n        /* \"#utility.yul\":10942:10946   */\n      dup2\n        /* \"#utility.yul\":10933:10939   */\n      dup10\n        /* \"#utility.yul\":10869:10947   */\n      tag_138\n      jump\t// in\n    tag_323:\n        /* \"#utility.yul\":10861:10947   */\n      swap1\n      pop\n        /* \"#utility.yul\":10994:11003   */\n      dup2\n        /* \"#utility.yul\":10988:10992   */\n      dup2\n        /* \"#utility.yul\":10984:11004   */\n      sub\n        /* \"#utility.yul\":10979:10981   */\n      0x40\n        /* \"#utility.yul\":10968:10977   */\n      dup4\n        /* \"#utility.yul\":10964:10982   */\n      add\n        /* \"#utility.yul\":10957:11005   */\n      mstore\n        /* \"#utility.yul\":11022:11100   */\n      tag_324\n        /* \"#utility.yul\":11095:11099   */\n      dup2\n        /* \"#utility.yul\":11086:11092   */\n      dup9\n        /* \"#utility.yul\":11022:11100   */\n      tag_138\n      jump\t// in\n    tag_324:\n        /* \"#utility.yul\":11014:11100   */\n      swap1\n      pop\n        /* \"#utility.yul\":11110:11182   */\n      tag_325\n        /* \"#utility.yul\":11178:11180   */\n      0x60\n        /* \"#utility.yul\":11167:11176   */\n      dup4\n        /* \"#utility.yul\":11163:11181   */\n      add\n        /* \"#utility.yul\":11154:11160   */\n      dup8\n        /* \"#utility.yul\":11110:11182   */\n      tag_160\n      jump\t// in\n    tag_325:\n        /* \"#utility.yul\":11192:11265   */\n      tag_326\n        /* \"#utility.yul\":11260:11263   */\n      0x80\n        /* \"#utility.yul\":11249:11258   */\n      dup4\n        /* \"#utility.yul\":11245:11264   */\n      add\n        /* \"#utility.yul\":11236:11242   */\n      dup7\n        /* \"#utility.yul\":11192:11265   */\n      tag_167\n      jump\t// in\n    tag_326:\n        /* \"#utility.yul\":11275:11348   */\n      tag_327\n        /* \"#utility.yul\":11343:11346   */\n      0xa0\n        /* \"#utility.yul\":11332:11341   */\n      dup4\n        /* \"#utility.yul\":11328:11347   */\n      add\n        /* \"#utility.yul\":11319:11325   */\n      dup6\n        /* \"#utility.yul\":11275:11348   */\n      tag_168\n      jump\t// in\n    tag_327:\n        /* \"#utility.yul\":11396:11405   */\n      dup2\n        /* \"#utility.yul\":11390:11394   */\n      dup2\n        /* \"#utility.yul\":11386:11406   */\n      sub\n        /* \"#utility.yul\":11380:11383   */\n      0xc0\n        /* \"#utility.yul\":11369:11378   */\n      dup4\n        /* \"#utility.yul\":11365:11384   */\n      add\n        /* \"#utility.yul\":11358:11407   */\n      mstore\n        /* \"#utility.yul\":11424:11532   */\n      tag_328\n        /* \"#utility.yul\":11527:11531   */\n      dup2\n        /* \"#utility.yul\":11518:11524   */\n      dup5\n        /* \"#utility.yul\":11424:11532   */\n      tag_175\n      jump\t// in\n    tag_328:\n        /* \"#utility.yul\":11416:11532   */\n      swap1\n      pop\n        /* \"#utility.yul\":10324:11539   */\n      swap9\n      swap8\n      pop\n      pop\n      pop\n      pop\n      pop\n      pop\n      pop\n      pop\n      jump\t// out\n        /* \"#utility.yul\":11545:11725   */\n    tag_176:\n        /* \"#utility.yul\":11593:11670   */\n      0x4e487b7100000000000000000000000000000000000000000000000000000000\n        /* \"#utility.yul\":11590:11591   */\n      0x00\n        /* \"#utility.yul\":11583:11671   */\n      mstore\n        /* \"#utility.yul\":11690:11694   */\n      0x22\n        /* \"#utility.yul\":11687:11688   */\n      0x04\n        /* \"#utility.yul\":11680:11695   */\n      mstore\n        /* \"#utility.yul\":11714:11718   */\n      0x24\n        /* \"#utility.yul\":11711:11712   */\n      0x00\n        /* \"#utility.yul\":11704:11719   */\n      revert\n        /* \"#utility.yul\":11731:12051   */\n    tag_47:\n        /* \"#utility.yul\":11775:11781   */\n      0x00\n        /* \"#utility.yul\":11812:11813   */\n      0x02\n        /* \"#utility.yul\":11806:11810   */\n      dup3\n        /* \"#utility.yul\":11802:11814   */\n      div\n        /* \"#utility.yul\":11792:11814   */\n      swap1\n      pop\n        /* \"#utility.yul\":11859:11860   */\n      0x01\n        /* \"#utility.yul\":11853:11857   */\n      dup3\n        /* \"#utility.yul\":11849:11861   */\n      and\n        /* \"#utility.yul\":11880:11898   */\n      dup1\n        /* \"#utility.yul\":11870:11951   */\n      tag_331\n      jumpi\n        /* \"#utility.yul\":11936:11940   */\n      0x7f\n        /* \"#utility.yul\":11928:11934   */\n      dup3\n        /* \"#utility.yul\":11924:11941   */\n      and\n        /* \"#utility.yul\":11914:11941   */\n      swap2\n      pop\n        /* \"#utility.yul\":11870:11951   */\n    tag_331:\n        /* \"#utility.yul\":11998:12000   */\n      0x20\n        /* \"#utility.yul\":11990:11996   */\n      dup3\n        /* \"#utility.yul\":11987:12001   */\n      lt\n        /* \"#utility.yul\":11967:11985   */\n      dup2\n        /* \"#utility.yul\":11964:12002   */\n      sub\n        /* \"#utility.yul\":11961:12045   */\n      tag_332\n      jumpi\n        /* \"#utility.yul\":12017:12035   */\n      tag_333\n      tag_176\n      jump\t// in\n    tag_333:\n        /* \"#utility.yul\":11961:12045   */\n    tag_332:\n        /* \"#utility.yul\":11782:12051   */\n      pop\n        /* \"#utility.yul\":11731:12051   */\n      swap2\n      swap1\n      pop\n      jump\t// out\n        /* \"#utility.yul\":12057:12155   */\n    tag_177:\n        /* \"#utility.yul\":12108:12114   */\n      0x00\n        /* \"#utility.yul\":12142:12147   */\n      dup2\n        /* \"#utility.yul\":12136:12148   */\n      mload\n        /* \"#utility.yul\":12126:12148   */\n      swap1\n      pop\n        /* \"#utility.yul\":12057:12155   */\n      swap2\n      swap1\n      pop\n      jump\t// out\n        /* \"#utility.yul\":12161:12329   */\n    tag_178:\n        /* \"#utility.yul\":12244:12255   */\n      0x00\n        /* \"#utility.yul\":12278:12284   */\n      dup3\n        /* \"#utility.yul\":12273:12276   */\n      dup3\n        /* \"#utility.yul\":12266:12285   */\n      mstore\n        /* \"#utility.yul\":12318:12322   */\n      0x20\n        /* \"#utility.yul\":12313:12316   */\n      dup3\n        /* \"#utility.yul\":12309:12323   */\n      add\n        /* \"#utility.yul\":12294:12323   */\n      swap1\n      pop\n        /* \"#utility.yul\":12161:12329   */\n      swap3\n      swap2\n      pop\n      pop\n      jump\t// out\n        /* \"#utility.yul\":12335:12708   */\n    tag_179:\n        /* \"#utility.yul\":12421:12424   */\n      0x00\n        /* \"#utility.yul\":12449:12487   */\n      tag_337\n        /* \"#utility.yul\":12481:12486   */\n      dup3\n        /* \"#utility.yul\":12449:12487   */\n      tag_177\n      jump\t// in\n    tag_337:\n        /* \"#utility.yul\":12503:12573   */\n      tag_338\n        /* \"#utility.yul\":12566:12572   */\n      dup2\n        /* \"#utility.yul\":12561:12564   */\n      dup6\n        /* \"#utility.yul\":12503:12573   */\n      tag_178\n      jump\t// in\n    tag_338:\n        /* \"#utility.yul\":12496:12573   */\n      swap4\n      pop\n        /* \"#utility.yul\":12582:12647   */\n      tag_339\n        /* \"#utility.yul\":12640:12646   */\n      dup2\n        /* \"#utility.yul\":12635:12638   */\n      dup6\n        /* \"#utility.yul\":12628:12632   */\n      0x20\n        /* \"#utility.yul\":12621:12626   */\n      dup7\n        /* \"#utility.yul\":12617:12633   */\n      add\n        /* \"#utility.yul\":12582:12647   */\n      tag_136\n      jump\t// in\n    tag_339:\n        /* \"#utility.yul\":12672:12701   */\n      tag_340\n        /* \"#utility.yul\":12694:12700   */\n      dup2\n        /* \"#utility.yul\":12672:12701   */\n      tag_137\n      jump\t// in\n    tag_340:\n        /* \"#utility.yul\":12667:12670   */\n      dup5\n        /* \"#utility.yul\":12663:12702   */\n      add\n        /* \"#utility.yul\":12656:12702   */\n      swap2\n      pop\n        /* \"#utility.yul\":12425:12708   */\n      pop\n        /* \"#utility.yul\":12335:12708   */\n      swap3\n      swap2\n      pop\n      pop\n      jump\t// out\n        /* \"#utility.yul\":12714:13354   */\n    tag_54:\n        /* \"#utility.yul\":12909:12913   */\n      0x00\n        /* \"#utility.yul\":12947:12950   */\n      0x80\n        /* \"#utility.yul\":12936:12945   */\n      dup3\n        /* \"#utility.yul\":12932:12951   */\n      add\n        /* \"#utility.yul\":12924:12951   */\n      swap1\n      pop\n        /* \"#utility.yul\":12961:13032   */\n      tag_342\n        /* \"#utility.yul\":13029:13030   */\n      0x00\n        /* \"#utility.yul\":13018:13027   */\n      dup4\n        /* \"#utility.yul\":13014:13031   */\n      add\n        /* \"#utility.yul\":13005:13011   */\n      dup8\n        /* \"#utility.yul\":12961:13032   */\n      tag_167\n      jump\t// in\n    tag_342:\n        /* \"#utility.yul\":13042:13114   */\n      tag_343\n        /* \"#utility.yul\":13110:13112   */\n      0x20\n        /* \"#utility.yul\":13099:13108   */\n      dup4\n        /* \"#utility.yul\":13095:13113   */\n      add\n        /* \"#utility.yul\":13086:13092   */\n      dup7\n        /* \"#utility.yul\":13042:13114   */\n      tag_160\n      jump\t// in\n    tag_343:\n        /* \"#utility.yul\":13161:13170   */\n      dup2\n        /* \"#utility.yul\":13155:13159   */\n      dup2\n        /* \"#utility.yul\":13151:13171   */\n      sub\n        /* \"#utility.yul\":13146:13148   */\n      0x40\n        /* \"#utility.yul\":13135:13144   */\n      dup4\n        /* \"#utility.yul\":13131:13149   */\n      add\n        /* \"#utility.yul\":13124:13172   */\n      mstore\n        /* \"#utility.yul\":13189:13265   */\n      tag_344\n        /* \"#utility.yul\":13260:13264   */\n      dup2\n        /* \"#utility.yul\":13251:13257   */\n      dup6\n        /* \"#utility.yul\":13189:13265   */\n      tag_179\n      jump\t// in\n    tag_344:\n        /* \"#utility.yul\":13181:13265   */\n      swap1\n      pop\n        /* \"#utility.yul\":13275:13347   */\n      tag_345\n        /* \"#utility.yul\":13343:13345   */\n      0x60\n        /* \"#utility.yul\":13332:13341   */\n      dup4\n        /* \"#utility.yul\":13328:13346   */\n      add\n        /* \"#utility.yul\":13319:13325   */\n      dup5\n        /* \"#utility.yul\":13275:13347   */\n      tag_168\n      jump\t// in\n    tag_345:\n        /* \"#utility.yul\":12714:13354   */\n      swap6\n      swap5\n      pop\n      pop\n      pop\n      pop\n      pop\n      jump\t// out\n        /* \"#utility.yul\":13360:13477   */\n    tag_180:\n        /* \"#utility.yul\":13469:13470   */\n      0x00\n        /* \"#utility.yul\":13466:13467   */\n      dup1\n        /* \"#utility.yul\":13459:13471   */\n      revert\n        /* \"#utility.yul\":13606:13749   */\n    tag_182:\n        /* \"#utility.yul\":13663:13668   */\n      0x00\n        /* \"#utility.yul\":13694:13700   */\n      dup2\n        /* \"#utility.yul\":13688:13701   */\n      mload\n        /* \"#utility.yul\":13679:13701   */\n      swap1\n      pop\n        /* \"#utility.yul\":13710:13743   */\n      tag_349\n        /* \"#utility.yul\":13737:13742   */\n      dup2\n        /* \"#utility.yul\":13710:13743   */\n      tag_144\n      jump\t// in\n    tag_349:\n        /* \"#utility.yul\":13606:13749   */\n      swap3\n      swap2\n      pop\n      pop\n      jump\t// out\n        /* \"#utility.yul\":13755:13844   */\n    tag_183:\n        /* \"#utility.yul\":13791:13798   */\n      0x00\n        /* \"#utility.yul\":13831:13837   */\n      0xffff\n        /* \"#utility.yul\":13824:13829   */\n      dup3\n        /* \"#utility.yul\":13820:13838   */\n      and\n        /* \"#utility.yul\":13809:13838   */\n      swap1\n      pop\n        /* \"#utility.yul\":13755:13844   */\n      swap2\n      swap1\n      pop\n      jump\t// out\n        /* \"#utility.yul\":13850:13970   */\n    tag_184:\n        /* \"#utility.yul\":13922:13945   */\n      tag_352\n        /* \"#utility.yul\":13939:13944   */\n      dup2\n        /* \"#utility.yul\":13922:13945   */\n      tag_183\n      jump\t// in\n    tag_352:\n        /* \"#utility.yul\":13915:13920   */\n      dup2\n        /* \"#utility.yul\":13912:13946   */\n      eq\n        /* \"#utility.yul\":13902:13964   */\n      tag_353\n      jumpi\n        /* \"#utility.yul\":13960:13961   */\n      0x00\n        /* \"#utility.yul\":13957:13958   */\n      dup1\n        /* \"#utility.yul\":13950:13962   */\n      revert\n        /* \"#utility.yul\":13902:13964   */\n    tag_353:\n        /* \"#utility.yul\":13850:13970   */\n      pop\n      jump\t// out\n        /* \"#utility.yul\":13976:14117   */\n    tag_185:\n        /* \"#utility.yul\":14032:14037   */\n      0x00\n        /* \"#utility.yul\":14063:14069   */\n      dup2\n        /* \"#utility.yul\":14057:14070   */\n      mload\n        /* \"#utility.yul\":14048:14070   */\n      swap1\n      pop\n        /* \"#utility.yul\":14079:14111   */\n      tag_355\n        /* \"#utility.yul\":14105:14110   */\n      dup2\n        /* \"#utility.yul\":14079:14111   */\n      tag_184\n      jump\t// in\n    tag_355:\n        /* \"#utility.yul\":13976:14117   */\n      swap3\n      swap2\n      pop\n      pop\n      jump\t// out\n        /* \"#utility.yul\":14123:14216   */\n    tag_186:\n        /* \"#utility.yul\":14159:14166   */\n      0x00\n        /* \"#utility.yul\":14199:14209   */\n      0xffffffff\n        /* \"#utility.yul\":14192:14197   */\n      dup3\n        /* \"#utility.yul\":14188:14210   */\n      and\n        /* \"#utility.yul\":14177:14210   */\n      swap1\n      pop\n        /* \"#utility.yul\":14123:14216   */\n      swap2\n      swap1\n      pop\n      jump\t// out\n        /* \"#utility.yul\":14222:14342   */\n    tag_187:\n        /* \"#utility.yul\":14294:14317   */\n      tag_358\n        /* \"#utility.yul\":14311:14316   */\n      dup2\n        /* \"#utility.yul\":14294:14317   */\n      tag_186\n      jump\t// in\n    tag_358:\n        /* \"#utility.yul\":14287:14292   */\n      dup2\n        /* \"#utility.yul\":14284:14318   */\n      eq\n        /* \"#utility.yul\":14274:14336   */\n      tag_359\n      jumpi\n        /* \"#utility.yul\":14332:14333   */\n      0x00\n        /* \"#utility.yul\":14329:14330   */\n      dup1\n        /* \"#utility.yul\":14322:14334   */\n      revert\n        /* \"#utility.yul\":14274:14336   */\n    tag_359:\n        /* \"#utility.yul\":14222:14342   */\n      pop\n      jump\t// out\n        /* \"#utility.yul\":14348:14489   */\n    tag_188:\n        /* \"#utility.yul\":14404:14409   */\n      0x00\n        /* \"#utility.yul\":14435:14441   */\n      dup2\n        /* \"#utility.yul\":14429:14442   */\n      mload\n        /* \"#utility.yul\":14420:14442   */\n      swap1\n      pop\n        /* \"#utility.yul\":14451:14483   */\n      tag_361\n        /* \"#utility.yul\":14477:14482   */\n      dup2\n        /* \"#utility.yul\":14451:14483   */\n      tag_187\n      jump\t// in\n    tag_361:\n        /* \"#utility.yul\":14348:14489   */\n      swap3\n      swap2\n      pop\n      pop\n      jump\t// out\n        /* \"#utility.yul\":14495:14592   */\n    tag_189:\n        /* \"#utility.yul\":14531:14538   */\n      0x00\n        /* \"#utility.yul\":14571:14585   */\n      0xffffffffffff\n        /* \"#utility.yul\":14564:14569   */\n      dup3\n        /* \"#utility.yul\":14560:14586   */\n      and\n        /* \"#utility.yul\":14549:14586   */\n      swap1\n      pop\n        /* \"#utility.yul\":14495:14592   */\n      swap2\n      swap1\n      pop\n      jump\t// out\n        /* \"#utility.yul\":14598:14718   */\n    tag_190:\n        /* \"#utility.yul\":14670:14693   */\n      tag_364\n        /* \"#utility.yul\":14687:14692   */\n      dup2\n        /* \"#utility.yul\":14670:14693   */\n      tag_189\n      jump\t// in\n    tag_364:\n        /* \"#utility.yul\":14663:14668   */\n      dup2\n        /* \"#utility.yul\":14660:14694   */\n      eq\n        /* \"#utility.yul\":14650:14712   */\n      tag_365\n      jumpi\n        /* \"#utility.yul\":14708:14709   */\n      0x00\n        /* \"#utility.yul\":14705:14706   */\n      dup1\n        /* \"#utility.yul\":14698:14710   */\n      revert\n        /* \"#utility.yul\":14650:14712   */\n    tag_365:\n        /* \"#utility.yul\":14598:14718   */\n      pop\n      jump\t// out\n        /* \"#utility.yul\":14724:14865   */\n    tag_191:\n        /* \"#utility.yul\":14780:14785   */\n      0x00\n        /* \"#utility.yul\":14811:14817   */\n      dup2\n        /* \"#utility.yul\":14805:14818   */\n      mload\n        /* \"#utility.yul\":14796:14818   */\n      swap1\n      pop\n        /* \"#utility.yul\":14827:14859   */\n      tag_367\n        /* \"#utility.yul\":14853:14858   */\n      dup2\n        /* \"#utility.yul\":14827:14859   */\n      tag_190\n      jump\t// in\n    tag_367:\n        /* \"#utility.yul\":14724:14865   */\n      swap3\n      swap2\n      pop\n      pop\n      jump\t// out\n        /* \"#utility.yul\":14871:14961   */\n    tag_192:\n        /* \"#utility.yul\":14905:14912   */\n      0x00\n        /* \"#utility.yul\":14948:14953   */\n      dup2\n        /* \"#utility.yul\":14941:14954   */\n      iszero\n        /* \"#utility.yul\":14934:14955   */\n      iszero\n        /* \"#utility.yul\":14923:14955   */\n      swap1\n      pop\n        /* \"#utility.yul\":14871:14961   */\n      swap2\n      swap1\n      pop\n      jump\t// out\n        /* \"#utility.yul\":14967:15083   */\n    tag_193:\n        /* \"#utility.yul\":15037:15058   */\n      tag_370\n        /* \"#utility.yul\":15052:15057   */\n      dup2\n        /* \"#utility.yul\":15037:15058   */\n      tag_192\n      jump\t// in\n    tag_370:\n        /* \"#utility.yul\":15030:15035   */\n      dup2\n        /* \"#utility.yul\":15027:15059   */\n      eq\n        /* \"#utility.yul\":15017:15077   */\n      tag_371\n      jumpi\n        /* \"#utility.yul\":15073:15074   */\n      0x00\n        /* \"#utility.yul\":15070:15071   */\n      dup1\n        /* \"#utility.yul\":15063:15075   */\n      revert\n        /* \"#utility.yul\":15017:15077   */\n    tag_371:\n        /* \"#utility.yul\":14967:15083   */\n      pop\n      jump\t// out\n        /* \"#utility.yul\":15089:15226   */\n    tag_194:\n        /* \"#utility.yul\":15143:15148   */\n      0x00\n        /* \"#utility.yul\":15174:15180   */\n      dup2\n        /* \"#utility.yul\":15168:15181   */\n      mload\n        /* \"#utility.yul\":15159:15181   */\n      swap1\n      pop\n        /* \"#utility.yul\":15190:15220   */\n      tag_373\n        /* \"#utility.yul\":15214:15219   */\n      dup2\n        /* \"#utility.yul\":15190:15220   */\n      tag_193\n      jump\t// in\n    tag_373:\n        /* \"#utility.yul\":15089:15226   */\n      swap3\n      swap2\n      pop\n      pop\n      jump\t// out\n        /* \"#utility.yul\":15270:17308   */\n    tag_195:\n        /* \"#utility.yul\":15360:15365   */\n      0x00\n        /* \"#utility.yul\":15404:15410   */\n      0x0140\n        /* \"#utility.yul\":15392:15401   */\n      dup3\n        /* \"#utility.yul\":15387:15390   */\n      dup5\n        /* \"#utility.yul\":15383:15402   */\n      sub\n        /* \"#utility.yul\":15379:15411   */\n      slt\n        /* \"#utility.yul\":15376:15495   */\n      iszero\n      tag_375\n      jumpi\n        /* \"#utility.yul\":15414:15493   */\n      tag_376\n      tag_180\n      jump\t// in\n    tag_376:\n        /* \"#utility.yul\":15376:15495   */\n    tag_375:\n        /* \"#utility.yul\":15513:15536   */\n      tag_377\n        /* \"#utility.yul\":15529:15535   */\n      0x0140\n        /* \"#utility.yul\":15513:15536   */\n      tag_152\n      jump\t// in\n    tag_377:\n        /* \"#utility.yul\":15504:15536   */\n      swap1\n      pop\n        /* \"#utility.yul\":15599:15600   */\n      0x00\n        /* \"#utility.yul\":15639:15699   */\n      tag_378\n        /* \"#utility.yul\":15695:15698   */\n      dup5\n        /* \"#utility.yul\":15686:15692   */\n      dup3\n        /* \"#utility.yul\":15675:15684   */\n      dup6\n        /* \"#utility.yul\":15671:15693   */\n      add\n        /* \"#utility.yul\":15639:15699   */\n      tag_182\n      jump\t// in\n    tag_378:\n        /* \"#utility.yul\":15632:15636   */\n      0x00\n        /* \"#utility.yul\":15625:15630   */\n      dup4\n        /* \"#utility.yul\":15621:15637   */\n      add\n        /* \"#utility.yul\":15614:15700   */\n      mstore\n        /* \"#utility.yul\":15546:15711   */\n      pop\n        /* \"#utility.yul\":15780:15782   */\n      0x20\n        /* \"#utility.yul\":15821:15881   */\n      tag_379\n        /* \"#utility.yul\":15877:15880   */\n      dup5\n        /* \"#utility.yul\":15868:15874   */\n      dup3\n        /* \"#utility.yul\":15857:15866   */\n      dup6\n        /* \"#utility.yul\":15853:15875   */\n      add\n        /* \"#utility.yul\":15821:15881   */\n      tag_182\n      jump\t// in\n    tag_379:\n        /* \"#utility.yul\":15814:15818   */\n      0x20\n        /* \"#utility.yul\":15807:15812   */\n      dup4\n        /* \"#utility.yul\":15803:15819   */\n      add\n        /* \"#utility.yul\":15796:15882   */\n      mstore\n        /* \"#utility.yul\":15721:15893   */\n      pop\n        /* \"#utility.yul\":15954:15956   */\n      0x40\n        /* \"#utility.yul\":15995:16054   */\n      tag_380\n        /* \"#utility.yul\":16050:16053   */\n      dup5\n        /* \"#utility.yul\":16041:16047   */\n      dup3\n        /* \"#utility.yul\":16030:16039   */\n      dup6\n        /* \"#utility.yul\":16026:16048   */\n      add\n        /* \"#utility.yul\":15995:16054   */\n      tag_185\n      jump\t// in\n    tag_380:\n        /* \"#utility.yul\":15988:15992   */\n      0x40\n        /* \"#utility.yul\":15981:15986   */\n      dup4\n        /* \"#utility.yul\":15977:15993   */\n      add\n        /* \"#utility.yul\":15970:16055   */\n      mstore\n        /* \"#utility.yul\":15903:16066   */\n      pop\n        /* \"#utility.yul\":16133:16135   */\n      0x60\n        /* \"#utility.yul\":16174:16233   */\n      tag_381\n        /* \"#utility.yul\":16229:16232   */\n      dup5\n        /* \"#utility.yul\":16220:16226   */\n      dup3\n        /* \"#utility.yul\":16209:16218   */\n      dup6\n        /* \"#utility.yul\":16205:16227   */\n      add\n        /* \"#utility.yul\":16174:16233   */\n      tag_188\n      jump\t// in\n    tag_381:\n        /* \"#utility.yul\":16167:16171   */\n      0x60\n        /* \"#utility.yul\":16160:16165   */\n      dup4\n        /* \"#utility.yul\":16156:16172   */\n      add\n        /* \"#utility.yul\":16149:16234   */\n      mstore\n        /* \"#utility.yul\":16076:16245   */\n      pop\n        /* \"#utility.yul\":16309:16312   */\n      0x80\n        /* \"#utility.yul\":16351:16410   */\n      tag_382\n        /* \"#utility.yul\":16406:16409   */\n      dup5\n        /* \"#utility.yul\":16397:16403   */\n      dup3\n        /* \"#utility.yul\":16386:16395   */\n      dup6\n        /* \"#utility.yul\":16382:16404   */\n      add\n        /* \"#utility.yul\":16351:16410   */\n      tag_191\n      jump\t// in\n    tag_382:\n        /* \"#utility.yul\":16344:16348   */\n      0x80\n        /* \"#utility.yul\":16337:16342   */\n      dup4\n        /* \"#utility.yul\":16333:16349   */\n      add\n        /* \"#utility.yul\":16326:16411   */\n      mstore\n        /* \"#utility.yul\":16255:16422   */\n      pop\n        /* \"#utility.yul\":16487:16490   */\n      0xa0\n        /* \"#utility.yul\":16529:16588   */\n      tag_383\n        /* \"#utility.yul\":16584:16587   */\n      dup5\n        /* \"#utility.yul\":16575:16581   */\n      dup3\n        /* \"#utility.yul\":16564:16573   */\n      dup6\n        /* \"#utility.yul\":16560:16582   */\n      add\n        /* \"#utility.yul\":16529:16588   */\n      tag_191\n      jump\t// in\n    tag_383:\n        /* \"#utility.yul\":16522:16526   */\n      0xa0\n        /* \"#utility.yul\":16515:16520   */\n      dup4\n        /* \"#utility.yul\":16511:16527   */\n      add\n        /* \"#utility.yul\":16504:16589   */\n      mstore\n        /* \"#utility.yul\":16432:16600   */\n      pop\n        /* \"#utility.yul\":16663:16666   */\n      0xc0\n        /* \"#utility.yul\":16705:16762   */\n      tag_384\n        /* \"#utility.yul\":16758:16761   */\n      dup5\n        /* \"#utility.yul\":16749:16755   */\n      dup3\n        /* \"#utility.yul\":16738:16747   */\n      dup6\n        /* \"#utility.yul\":16734:16756   */\n      add\n        /* \"#utility.yul\":16705:16762   */\n      tag_194\n      jump\t// in\n    tag_384:\n        /* \"#utility.yul\":16698:16702   */\n      0xc0\n        /* \"#utility.yul\":16691:16696   */\n      dup4\n        /* \"#utility.yul\":16687:16703   */\n      add\n        /* \"#utility.yul\":16680:16763   */\n      mstore\n        /* \"#utility.yul\":16610:16774   */\n      pop\n        /* \"#utility.yul\":16837:16840   */\n      0xe0\n        /* \"#utility.yul\":16879:16936   */\n      tag_385\n        /* \"#utility.yul\":16932:16935   */\n      dup5\n        /* \"#utility.yul\":16923:16929   */\n      dup3\n        /* \"#utility.yul\":16912:16921   */\n      dup6\n        /* \"#utility.yul\":16908:16930   */\n      add\n        /* \"#utility.yul\":16879:16936   */\n      tag_194\n      jump\t// in\n    tag_385:\n        /* \"#utility.yul\":16872:16876   */\n      0xe0\n        /* \"#utility.yul\":16865:16870   */\n      dup4\n        /* \"#utility.yul\":16861:16877   */\n      add\n        /* \"#utility.yul\":16854:16937   */\n      mstore\n        /* \"#utility.yul\":16784:16948   */\n      pop\n        /* \"#utility.yul\":17012:17015   */\n      0x0100\n        /* \"#utility.yul\":17056:17113   */\n      tag_386\n        /* \"#utility.yul\":17109:17112   */\n      dup5\n        /* \"#utility.yul\":17100:17106   */\n      dup3\n        /* \"#utility.yul\":17089:17098   */\n      dup6\n        /* \"#utility.yul\":17085:17107   */\n      add\n        /* \"#utility.yul\":17056:17113   */\n      tag_194\n      jump\t// in\n    tag_386:\n        /* \"#utility.yul\":17047:17053   */\n      0x0100\n        /* \"#utility.yul\":17040:17045   */\n      dup4\n        /* \"#utility.yul\":17036:17054   */\n      add\n        /* \"#utility.yul\":17029:17114   */\n      mstore\n        /* \"#utility.yul\":16958:17125   */\n      pop\n        /* \"#utility.yul\":17188:17191   */\n      0x0120\n        /* \"#utility.yul\":17232:17289   */\n      tag_387\n        /* \"#utility.yul\":17285:17288   */\n      dup5\n        /* \"#utility.yul\":17276:17282   */\n      dup3\n        /* \"#utility.yul\":17265:17274   */\n      dup6\n        /* \"#utility.yul\":17261:17283   */\n      add\n        /* \"#utility.yul\":17232:17289   */\n      tag_194\n      jump\t// in\n    tag_387:\n        /* \"#utility.yul\":17223:17229   */\n      0x0120\n        /* \"#utility.yul\":17216:17221   */\n      dup4\n        /* \"#utility.yul\":17212:17230   */\n      add\n        /* \"#utility.yul\":17205:17290   */\n      mstore\n        /* \"#utility.yul\":17135:17301   */\n      pop\n        /* \"#utility.yul\":15270:17308   */\n      swap3\n      swap2\n      pop\n      pop\n      jump\t// out\n        /* \"#utility.yul\":17314:17726   */\n    tag_61:\n        /* \"#utility.yul\":17414:17420   */\n      0x00\n        /* \"#utility.yul\":17463:17466   */\n      0x0140\n        /* \"#utility.yul\":17451:17460   */\n      dup3\n        /* \"#utility.yul\":17442:17449   */\n      dup5\n        /* \"#utility.yul\":17438:17461   */\n      sub\n        /* \"#utility.yul\":17434:17467   */\n      slt\n        /* \"#utility.yul\":17431:17551   */\n      iszero\n      tag_389\n      jumpi\n        /* \"#utility.yul\":17470:17549   */\n      tag_390\n      tag_140\n      jump\t// in\n    tag_390:\n        /* \"#utility.yul\":17431:17551   */\n    tag_389:\n        /* \"#utility.yul\":17590:17591   */\n      0x00\n        /* \"#utility.yul\":17615:17709   */\n      tag_391\n        /* \"#utility.yul\":17701:17708   */\n      dup5\n        /* \"#utility.yul\":17692:17698   */\n      dup3\n        /* \"#utility.yul\":17681:17690   */\n      dup6\n        /* \"#utility.yul\":17677:17699   */\n      add\n        /* \"#utility.yul\":17615:17709   */\n      tag_195\n      jump\t// in\n    tag_391:\n        /* \"#utility.yul\":17605:17709   */\n      swap2\n      pop\n        /* \"#utility.yul\":17561:17719   */\n      pop\n        /* \"#utility.yul\":17314:17726   */\n      swap3\n      swap2\n      pop\n      pop\n      jump\t// out\n        /* \"#utility.yul\":17732:17912   */\n    tag_196:\n        /* \"#utility.yul\":17780:17857   */\n      0x4e487b7100000000000000000000000000000000000000000000000000000000\n        /* \"#utility.yul\":17777:17778   */\n      0x00\n        /* \"#utility.yul\":17770:17858   */\n      mstore\n        /* \"#utility.yul\":17877:17881   */\n      0x11\n        /* \"#utility.yul\":17874:17875   */\n      0x04\n        /* \"#utility.yul\":17867:17882   */\n      mstore\n        /* \"#utility.yul\":17901:17905   */\n      0x24\n        /* \"#utility.yul\":17898:17899   */\n      0x00\n        /* \"#utility.yul\":17891:17906   */\n      revert\n        /* \"#utility.yul\":17918:18109   */\n    tag_68:\n        /* \"#utility.yul\":17958:17961   */\n      0x00\n        /* \"#utility.yul\":17977:17997   */\n      tag_394\n        /* \"#utility.yul\":17995:17996   */\n      dup3\n        /* \"#utility.yul\":17977:17997   */\n      tag_146\n      jump\t// in\n    tag_394:\n        /* \"#utility.yul\":17972:17997   */\n      swap2\n      pop\n        /* \"#utility.yul\":18011:18031   */\n      tag_395\n        /* \"#utility.yul\":18029:18030   */\n      dup4\n        /* \"#utility.yul\":18011:18031   */\n      tag_146\n      jump\t// in\n    tag_395:\n        /* \"#utility.yul\":18006:18031   */\n      swap3\n      pop\n        /* \"#utility.yul\":18054:18055   */\n      dup3\n        /* \"#utility.yul\":18051:18052   */\n      dup3\n        /* \"#utility.yul\":18047:18056   */\n      add\n        /* \"#utility.yul\":18040:18056   */\n      swap1\n      pop\n        /* \"#utility.yul\":18075:18078   */\n      dup1\n        /* \"#utility.yul\":18072:18073   */\n      dup3\n        /* \"#utility.yul\":18069:18079   */\n      gt\n        /* \"#utility.yul\":18066:18102   */\n      iszero\n      tag_396\n      jumpi\n        /* \"#utility.yul\":18082:18100   */\n      tag_397\n      tag_196\n      jump\t// in\n    tag_397:\n        /* \"#utility.yul\":18066:18102   */\n    tag_396:\n        /* \"#utility.yul\":17918:18109   */\n      swap3\n      swap2\n      pop\n      pop\n      jump\t// out\n        /* \"#utility.yul\":18115:18447   */\n    tag_81:\n        /* \"#utility.yul\":18236:18240   */\n      0x00\n        /* \"#utility.yul\":18274:18276   */\n      0x40\n        /* \"#utility.yul\":18263:18272   */\n      dup3\n        /* \"#utility.yul\":18259:18277   */\n      add\n        /* \"#utility.yul\":18251:18277   */\n      swap1\n      pop\n        /* \"#utility.yul\":18287:18358   */\n      tag_399\n        /* \"#utility.yul\":18355:18356   */\n      0x00\n        /* \"#utility.yul\":18344:18353   */\n      dup4\n        /* \"#utility.yul\":18340:18357   */\n      add\n        /* \"#utility.yul\":18331:18337   */\n      dup6\n        /* \"#utility.yul\":18287:18358   */\n      tag_160\n      jump\t// in\n    tag_399:\n        /* \"#utility.yul\":18368:18440   */\n      tag_400\n        /* \"#utility.yul\":18436:18438   */\n      0x20\n        /* \"#utility.yul\":18425:18434   */\n      dup4\n        /* \"#utility.yul\":18421:18439   */\n      add\n        /* \"#utility.yul\":18412:18418   */\n      dup5\n        /* \"#utility.yul\":18368:18440   */\n      tag_160\n      jump\t// in\n    tag_400:\n        /* \"#utility.yul\":18115:18447   */\n      swap4\n      swap3\n      pop\n      pop\n      pop\n      jump\t// out\n        /* \"#utility.yul\":18453:18600   */\n    tag_197:\n        /* \"#utility.yul\":18554:18565   */\n      0x00\n        /* \"#utility.yul\":18591:18594   */\n      dup2\n        /* \"#utility.yul\":18576:18594   */\n      swap1\n      pop\n        /* \"#utility.yul\":18453:18600   */\n      swap3\n      swap2\n      pop\n      pop\n      jump\t// out\n        /* \"#utility.yul\":18606:18992   */\n    tag_198:\n        /* \"#utility.yul\":18710:18713   */\n      0x00\n        /* \"#utility.yul\":18738:18776   */\n      tag_403\n        /* \"#utility.yul\":18770:18775   */\n      dup3\n        /* \"#utility.yul\":18738:18776   */\n      tag_177\n      jump\t// in\n    tag_403:\n        /* \"#utility.yul\":18792:18880   */\n      tag_404\n        /* \"#utility.yul\":18873:18879   */\n      dup2\n        /* \"#utility.yul\":18868:18871   */\n      dup6\n        /* \"#utility.yul\":18792:18880   */\n      tag_197\n      jump\t// in\n    tag_404:\n        /* \"#utility.yul\":18785:18880   */\n      swap4\n      pop\n        /* \"#utility.yul\":18889:18954   */\n      tag_405\n        /* \"#utility.yul\":18947:18953   */\n      dup2\n        /* \"#utility.yul\":18942:18945   */\n      dup6\n        /* \"#utility.yul\":18935:18939   */\n      0x20\n        /* \"#utility.yul\":18928:18933   */\n      dup7\n        /* \"#utility.yul\":18924:18940   */\n      add\n        /* \"#utility.yul\":18889:18954   */\n      tag_136\n      jump\t// in\n    tag_405:\n        /* \"#utility.yul\":18979:18985   */\n      dup1\n        /* \"#utility.yul\":18974:18977   */\n      dup5\n        /* \"#utility.yul\":18970:18986   */\n      add\n        /* \"#utility.yul\":18963:18986   */\n      swap2\n      pop\n        /* \"#utility.yul\":18714:18992   */\n      pop\n        /* \"#utility.yul\":18606:18992   */\n      swap3\n      swap2\n      pop\n      pop\n      jump\t// out\n        /* \"#utility.yul\":18998:19269   */\n    tag_99:\n        /* \"#utility.yul\":19128:19131   */\n      0x00\n        /* \"#utility.yul\":19150:19243   */\n      tag_407\n        /* \"#utility.yul\":19239:19242   */\n      dup3\n        /* \"#utility.yul\":19230:19236   */\n      dup5\n        /* \"#utility.yul\":19150:19243   */\n      tag_198\n      jump\t// in\n    tag_407:\n        /* \"#utility.yul\":19143:19243   */\n      swap2\n      pop\n        /* \"#utility.yul\":19260:19263   */\n      dup2\n        /* \"#utility.yul\":19253:19263   */\n      swap1\n      pop\n        /* \"#utility.yul\":18998:19269   */\n      swap3\n      swap2\n      pop\n      pop\n      jump\t// out\n        /* \"#utility.yul\":19275:19418   */\n    tag_199:\n        /* \"#utility.yul\":19332:19337   */\n      0x00\n        /* \"#utility.yul\":19363:19369   */\n      dup2\n        /* \"#utility.yul\":19357:19370   */\n      mload\n        /* \"#utility.yul\":19348:19370   */\n      swap1\n      pop\n        /* \"#utility.yul\":19379:19412   */\n      tag_409\n        /* \"#utility.yul\":19406:19411   */\n      dup2\n        /* \"#utility.yul\":19379:19412   */\n      tag_147\n      jump\t// in\n    tag_409:\n        /* \"#utility.yul\":19275:19418   */\n      swap3\n      swap2\n      pop\n      pop\n      jump\t// out\n        /* \"#utility.yul\":19424:19775   */\n    tag_105:\n        /* \"#utility.yul\":19494:19500   */\n      0x00\n        /* \"#utility.yul\":19543:19545   */\n      0x20\n        /* \"#utility.yul\":19531:19540   */\n      dup3\n        /* \"#utility.yul\":19522:19529   */\n      dup5\n        /* \"#utility.yul\":19518:19541   */\n      sub\n        /* \"#utility.yul\":19514:19546   */\n      slt\n        /* \"#utility.yul\":19511:19630   */\n      iszero\n      tag_411\n      jumpi\n        /* \"#utility.yul\":19549:19628   */\n      tag_412\n      tag_140\n      jump\t// in\n    tag_412:\n        /* \"#utility.yul\":19511:19630   */\n    tag_411:\n        /* \"#utility.yul\":19669:19670   */\n      0x00\n        /* \"#utility.yul\":19694:19758   */\n      tag_413\n        /* \"#utility.yul\":19750:19757   */\n      dup5\n        /* \"#utility.yul\":19741:19747   */\n      dup3\n        /* \"#utility.yul\":19730:19739   */\n      dup6\n        /* \"#utility.yul\":19726:19748   */\n      add\n        /* \"#utility.yul\":19694:19758   */\n      tag_199\n      jump\t// in\n    tag_413:\n        /* \"#utility.yul\":19684:19758   */\n      swap2\n      pop\n        /* \"#utility.yul\":19640:19768   */\n      pop\n        /* \"#utility.yul\":19424:19775   */\n      swap3\n      swap2\n      pop\n      pop\n      jump\t// out\n        /* \"#utility.yul\":19781:20003   */\n    tag_110:\n        /* \"#utility.yul\":19874:19878   */\n      0x00\n        /* \"#utility.yul\":19912:19914   */\n      0x20\n        /* \"#utility.yul\":19901:19910   */\n      dup3\n        /* \"#utility.yul\":19897:19915   */\n      add\n        /* \"#utility.yul\":19889:19915   */\n      swap1\n      pop\n        /* \"#utility.yul\":19925:19996   */\n      tag_415\n        /* \"#utility.yul\":19993:19994   */\n      0x00\n        /* \"#utility.yul\":19982:19991   */\n      dup4\n        /* \"#utility.yul\":19978:19995   */\n      add\n        /* \"#utility.yul\":19969:19975   */\n      dup5\n        /* \"#utility.yul\":19925:19996   */\n      tag_167\n      jump\t// in\n    tag_415:\n        /* \"#utility.yul\":19781:20003   */\n      swap3\n      swap2\n      pop\n      pop\n      jump\t// out\n\n    auxdata: 0xa2646970667358221220d32d539255390f02be5d4d37c8bf598eef9354bf4ffac7f598494548c1fa92ac64736f6c63430008140033\n}\n",
				"bytecode": {
					"linkReferences": {},
					"object": "61016060405234801562000011575f80fd5b5060405162001da338038062001da38339818101604052810190620000379190620003f6565b80620000486200011060201b60201c565b6200005d5f836200014d60201b90919060201c565b61012081815250506200007b6001826200014d60201b90919060201c565b6101408181525050818051906020012060e08181525050808051906020012061010081815250504660a08181525050620000ba620001a260201b60201c565b608081815250503073ffffffffffffffffffffffffffffffffffffffff1660c08173ffffffffffffffffffffffffffffffffffffffff1681525050505080600390816200010891906200067c565b505062000939565b60606040518060400160405280600181526020017f3100000000000000000000000000000000000000000000000000000000000000815250905090565b5f60208351101562000172576200016a83620001fe60201b60201c565b90506200019c565b8262000184836200026860201b60201c565b5f0190816200019491906200067c565b5060ff5f1b90505b92915050565b5f7f8b73c3c69bb8fe3d512ecc4cf759cc79239f7b179b0ffacaa9a75d522b39400f60e051610100514630604051602001620001e3959493929190620007ce565b60405160208183030381529060405280519060200120905090565b5f80829050601f815111156200024d57826040517f305a27a900000000000000000000000000000000000000000000000000000000815260040162000244919062000879565b60405180910390fd5b8051816200025b90620008ca565b5f1c175f1b915050919050565b5f819050919050565b5f604051905090565b5f80fd5b5f80fd5b5f80fd5b5f80fd5b5f601f19601f8301169050919050565b7f4e487b71000000000000000000000000000000000000000000000000000000005f52604160045260245ffd5b620002d2826200028a565b810181811067ffffffffffffffff82111715620002f457620002f36200029a565b5b80604052505050565b5f6200030862000271565b9050620003168282620002c7565b919050565b5f67ffffffffffffffff8211156200033857620003376200029a565b5b62000343826200028a565b9050602081019050919050565b5f5b838110156200036f57808201518184015260208101905062000352565b5f8484015250505050565b5f620003906200038a846200031b565b620002fd565b905082815260208101848484011115620003af57620003ae62000286565b5b620003bc84828562000350565b509392505050565b5f82601f830112620003db57620003da62000282565b5b8151620003ed8482602086016200037a565b91505092915050565b5f602082840312156200040e576200040d6200027a565b5b5f82015167ffffffffffffffff8111156200042e576200042d6200027e565b5b6200043c84828501620003c4565b91505092915050565b5f81519050919050565b7f4e487b71000000000000000000000000000000000000000000000000000000005f52602260045260245ffd5b5f60028204905060018216806200049457607f821691505b602082108103620004aa57620004a96200044f565b5b50919050565b5f819050815f5260205f209050919050565b5f6020601f8301049050919050565b5f82821b905092915050565b5f600883026200050e7fffffffffffffffffffffffffffffffffffffffffffffffffffffffffffffffff82620004d1565b6200051a8683620004d1565b95508019841693508086168417925050509392505050565b5f819050919050565b5f819050919050565b5f620005646200055e620005588462000532565b6200053b565b62000532565b9050919050565b5f819050919050565b6200057f8362000544565b620005976200058e826200056b565b848454620004dd565b825550505050565b5f90565b620005ad6200059f565b620005ba81848462000574565b505050565b5b81811015620005e157620005d55f82620005a3565b600181019050620005c0565b5050565b601f8211156200063057620005fa81620004b0565b6200060584620004c2565b8101602085101562000615578190505b6200062d6200062485620004c2565b830182620005bf565b50505b505050565b5f82821c905092915050565b5f620006525f198460080262000635565b1980831691505092915050565b5f6200066c838362000641565b9150826002028217905092915050565b620006878262000445565b67ffffffffffffffff811115620006a357620006a26200029a565b5b620006af82546200047c565b620006bc828285620005e5565b5f60209050601f831160018114620006f2575f8415620006dd578287015190505b620006e985826200065f565b86555062000758565b601f1984166200070286620004b0565b5f5b828110156200072b5784890151825560018201915060208501945060208101905062000704565b868310156200074b578489015162000747601f89168262000641565b8355505b6001600288020188555050505b505050505050565b5f819050919050565b620007748162000760565b82525050565b620007858162000532565b82525050565b5f73ffffffffffffffffffffffffffffffffffffffff82169050919050565b5f620007b6826200078b565b9050919050565b620007c881620007aa565b82525050565b5f60a082019050620007e35f83018862000769565b620007f2602083018762000769565b62000801604083018662000769565b6200081060608301856200077a565b6200081f6080830184620007bd565b9695505050505050565b5f82825260208201905092915050565b5f620008458262000445565b62000851818562000829565b93506200086381856020860162000350565b6200086e816200028a565b840191505092915050565b5f6020820190508181035f83015262000893818462000839565b905092915050565b5f81519050919050565b5f819050602082019050919050565b5f620008c1825162000760565b80915050919050565b5f620008d6826200089b565b82620008e284620008a5565b9050620008ef81620008b4565b9250602082101562000932576200092d7fffffffffffffffffffffffffffffffffffffffffffffffffffffffffffffffff83602003600802620004d1565b831692505b5050919050565b60805160a05160c05160e0516101005161012051610140516114276200097c5f395f61083e01525f61080301525f50505f50505f50505f50505f50506114275ff3fe608060405234801561000f575f80fd5b5060043610610086575f3560e01c80634bf5d7e9116100595780634bf5d7e91461012457806354fd4d50146101425780635dad85c21461016057806384b0196e1461017e57610086565b806306fdde031461008a57806331d133c2146100a85780633a8512b4146100d85780633e4f49e6146100f4575b5f80fd5b6100926101a2565b60405161009f9190610a67565b60405180910390f35b6100c260048036038101906100bd9190610c84565b610232565b6040516100cf9190610d13565b60405180910390f35b6100f260048036038101906100ed9190610d2c565b61026c565b005b61010e60048036038101906101099190610d6a565b6102eb565b60405161011b9190610e08565b60405180910390f35b61012c610557565b6040516101399190610a67565b60405180910390f35b61014a610594565b6040516101579190610a67565b60405180910390f35b6101686105d1565b6040516101759190610d13565b60405180910390f35b6101866105d8565b6040516101999796959493929190610f30565b60405180910390f35b6060600380546101b190610fdf565b80601f01602080910402602001604051908101604052809291908181526020018280546101dd90610fdf565b80156102285780601f106101ff57610100808354040283529160200191610228565b820191905f5260205f20905b81548152906001019060200180831161020b57829003601f168201915b5050505050905090565b5f8484848460405160200161024a9493929190611061565b604051602081830303815290604052805190602001205f1c9050949350505050565b8060025f8473ffffffffffffffffffffffffffffffffffffffff1673ffffffffffffffffffffffffffffffffffffffff1681526020019081526020015f205f6101000a81548173ffffffffffffffffffffffffffffffffffffffff021916908373ffffffffffffffffffffffffffffffffffffffff1602179055505050565b5f8060025f3373ffffffffffffffffffffffffffffffffffffffff1673ffffffffffffffffffffffffffffffffffffffff1681526020019081526020015f205f9054906101000a900473ffffffffffffffffffffffffffffffffffffffff1690505f8173ffffffffffffffffffffffffffffffffffffffff1663013cf08b856040518263ffffffff1660e01b81526004016103869190610d13565b61014060405180830381865afa1580156103a2573d5f803e3d5ffd5b505050506040513d601f19601f820116820180604052508101906103c69190611296565b90508060c00151156103dd57600592505050610552565b8060e00151156103f257600292505050610552565b5f816080015165ffffffffffff1690505f810361044657846040517f6ad0607500000000000000000000000000000000000000000000000000000000815260040161043d9190610d13565b60405180910390fd5b5f42905081811161045d575f945050505050610552565b5f836060015163ffffffff168361047491906112ef565b905080821161048b57600195505050505050610552565b836101000151156104a457600495505050505050610552565b836101200151156104bd57600395505050505050610552565b5f6104c78561067d565b90505f8160058111156104dd576104dc610d95565b5b90508673ffffffffffffffffffffffffffffffffffffffff16631e9608a8828b6040518363ffffffff1660e01b815260040161051a929190611322565b5f604051808303815f87803b158015610531575f80fd5b505af1158015610543573d5f803e3d5ffd5b50505050819750505050505050505b919050565b60606040518060400160405280600a81526020017f54696d65207374616d7000000000000000000000000000000000000000000000815250905090565b60606040518060400160405280600181526020017f3100000000000000000000000000000000000000000000000000000000000000815250905090565b5f42905090565b5f6060805f805f60606105e96107fb565b6105f1610835565b46305f801b5f67ffffffffffffffff8111156106105761060f610b2d565b5b60405190808252806020026020018201604052801561063e5781602001602082028036833780820191505090505b507f0f00000000000000000000000000000000000000000000000000000000000000959493929190965096509650965096509650965090919293949596565b5f80826020015190505f808273ffffffffffffffffffffffffffffffffffffffff166040516024016040516020818303038152906040527fd4564d16000000000000000000000000000000000000000000000000000000007bffffffffffffffffffffffffffffffffffffffffffffffffffffffff19166020820180517bffffffffffffffffffffffffffffffffffffffffffffffffffffffff838183161783525050505060405161072f9190611383565b5f604051808303815f865af19150503d805f8114610768576040519150601f19603f3d011682016040523d82523d5f602084013e61076d565b606091505b509150915081156107b9575f8180602001905181019061078d91906113ad565b9050856040015161ffff168111156107ac5760049450505050506107f6565b60039450505050506107f6565b826040517f2e2f84090000000000000000000000000000000000000000000000000000000081526004016107ed91906113d8565b60405180910390fd5b919050565b60606108305f7f000000000000000000000000000000000000000000000000000000000000000061087090919063ffffffff16565b905090565b606061086b60017f000000000000000000000000000000000000000000000000000000000000000061087090919063ffffffff16565b905090565b606060ff5f1b831461088c576108858361091d565b9050610917565b81805461089890610fdf565b80601f01602080910402602001604051908101604052809291908181526020018280546108c490610fdf565b801561090f5780601f106108e65761010080835404028352916020019161090f565b820191905f5260205f20905b8154815290600101906020018083116108f257829003601f168201915b505050505090505b92915050565b60605f6109298361098f565b90505f602067ffffffffffffffff81111561094757610946610b2d565b5b6040519080825280601f01601f1916602001820160405280156109795781602001600182028036833780820191505090505b5090508181528360208201528092505050919050565b5f8060ff835f1c169050601f8111156109d4576040517fb3512b0c00000000000000000000000000000000000000000000000000000000815260040160405180910390fd5b80915050919050565b5f81519050919050565b5f82825260208201905092915050565b5f5b83811015610a145780820151818401526020810190506109f9565b5f8484015250505050565b5f601f19601f8301169050919050565b5f610a39826109dd565b610a4381856109e7565b9350610a538185602086016109f7565b610a5c81610a1f565b840191505092915050565b5f6020820190508181035f830152610a7f8184610a2f565b905092915050565b5f604051905090565b5f80fd5b5f80fd5b5f73ffffffffffffffffffffffffffffffffffffffff82169050919050565b5f610ac182610a98565b9050919050565b610ad181610ab7565b8114610adb575f80fd5b50565b5f81359050610aec81610ac8565b92915050565b5f819050919050565b610b0481610af2565b8114610b0e575f80fd5b50565b5f81359050610b1f81610afb565b92915050565b5f80fd5b5f80fd5b7f4e487b71000000000000000000000000000000000000000000000000000000005f52604160045260245ffd5b610b6382610a1f565b810181811067ffffffffffffffff82111715610b8257610b81610b2d565b5b80604052505050565b5f610b94610a87565b9050610ba08282610b5a565b919050565b5f67ffffffffffffffff821115610bbf57610bbe610b2d565b5b610bc882610a1f565b9050602081019050919050565b828183375f83830152505050565b5f610bf5610bf084610ba5565b610b8b565b905082815260208101848484011115610c1157610c10610b29565b5b610c1c848285610bd5565b509392505050565b5f82601f830112610c3857610c37610b25565b5b8135610c48848260208601610be3565b91505092915050565b5f819050919050565b610c6381610c51565b8114610c6d575f80fd5b50565b5f81359050610c7e81610c5a565b92915050565b5f805f8060808587031215610c9c57610c9b610a90565b5b5f610ca987828801610ade565b9450506020610cba87828801610b11565b935050604085013567ffffffffffffffff811115610cdb57610cda610a94565b5b610ce787828801610c24565b9250506060610cf887828801610c70565b91505092959194509250565b610d0d81610af2565b82525050565b5f602082019050610d265f830184610d04565b92915050565b5f8060408385031215610d4257610d41610a90565b5b5f610d4f85828601610ade565b9250506020610d6085828601610ade565b9150509250929050565b5f60208284031215610d7f57610d7e610a90565b5b5f610d8c84828501610b11565b91505092915050565b7f4e487b71000000000000000000000000000000000000000000000000000000005f52602160045260245ffd5b60068110610dd357610dd2610d95565b5b50565b5f819050610de382610dc2565b919050565b5f610df282610dd6565b9050919050565b610e0281610de8565b82525050565b5f602082019050610e1b5f830184610df9565b92915050565b5f7fff0000000000000000000000000000000000000000000000000000000000000082169050919050565b610e5581610e21565b82525050565b610e6481610ab7565b82525050565b610e7381610c51565b82525050565b5f81519050919050565b5f82825260208201905092915050565b5f819050602082019050919050565b610eab81610af2565b82525050565b5f610ebc8383610ea2565b60208301905092915050565b5f602082019050919050565b5f610ede82610e79565b610ee88185610e83565b9350610ef383610e93565b805f5b83811015610f23578151610f0a8882610eb1565b9750610f1583610ec8565b925050600181019050610ef6565b5085935050505092915050565b5f60e082019050610f435f83018a610e4c565b8181036020830152610f558189610a2f565b90508181036040830152610f698188610a2f565b9050610f786060830187610d04565b610f856080830186610e5b565b610f9260a0830185610e6a565b81810360c0830152610fa48184610ed4565b905098975050505050505050565b7f4e487b71000000000000000000000000000000000000000000000000000000005f52602260045260245ffd5b5f6002820490506001821680610ff657607f821691505b60208210810361100957611008610fb2565b5b50919050565b5f81519050919050565b5f82825260208201905092915050565b5f6110338261100f565b61103d8185611019565b935061104d8185602086016109f7565b61105681610a1f565b840191505092915050565b5f6080820190506110745f830187610e5b565b6110816020830186610d04565b81810360408301526110938185611029565b90506110a26060830184610e6a565b95945050505050565b5f80fd5b5f815190506110bd81610ac8565b92915050565b5f61ffff82169050919050565b6110d9816110c3565b81146110e3575f80fd5b50565b5f815190506110f4816110d0565b92915050565b5f63ffffffff82169050919050565b611112816110fa565b811461111c575f80fd5b50565b5f8151905061112d81611109565b92915050565b5f65ffffffffffff82169050919050565b61114d81611133565b8114611157575f80fd5b50565b5f8151905061116881611144565b92915050565b5f8115159050919050565b6111828161116e565b811461118c575f80fd5b50565b5f8151905061119d81611179565b92915050565b5f61014082840312156111b9576111b86110ab565b5b6111c4610140610b8b565b90505f6111d3848285016110af565b5f8301525060206111e6848285016110af565b60208301525060406111fa848285016110e6565b604083015250606061120e8482850161111f565b60608301525060806112228482850161115a565b60808301525060a06112368482850161115a565b60a08301525060c061124a8482850161118f565b60c08301525060e061125e8482850161118f565b60e0830152506101006112738482850161118f565b610100830152506101206112898482850161118f565b6101208301525092915050565b5f61014082840312156112ac576112ab610a90565b5b5f6112b9848285016111a3565b91505092915050565b7f4e487b71000000000000000000000000000000000000000000000000000000005f52601160045260245ffd5b5f6112f982610af2565b915061130483610af2565b925082820190508082111561131c5761131b6112c2565b5b92915050565b5f6040820190506113355f830185610d04565b6113426020830184610d04565b9392505050565b5f81905092915050565b5f61135d8261100f565b6113678185611349565b93506113778185602086016109f7565b80840191505092915050565b5f61138e8284611353565b915081905092915050565b5f815190506113a781610afb565b92915050565b5f602082840312156113c2576113c1610a90565b5b5f6113cf84828501611399565b91505092915050565b5f6020820190506113eb5f830184610e5b565b9291505056fea2646970667358221220d32d539255390f02be5d4d37c8bf598eef9354bf4ffac7f598494548c1fa92ac64736f6c63430008140033",
					"opcodes": "PUSH2 0x160 PUSH1 0x40 MSTORE CALLVALUE DUP1 ISZERO PUSH3 0x11 JUMPI PUSH0 DUP1 REVERT JUMPDEST POP PUSH1 0x40 MLOAD PUSH3 0x1DA3 CODESIZE SUB DUP1 PUSH3 0x1DA3 DUP4 CODECOPY DUP2 DUP2 ADD PUSH1 0x40 MSTORE DUP2 ADD SWAP1 PUSH3 0x37 SWAP2 SWAP1 PUSH3 0x3F6 JUMP JUMPDEST DUP1 PUSH3 0x48 PUSH3 0x110 PUSH1 0x20 SHL PUSH1 0x20 SHR JUMP JUMPDEST PUSH3 0x5D PUSH0 DUP4 PUSH3 0x14D PUSH1 0x20 SHL SWAP1 SWAP2 SWAP1 PUSH1 0x20 SHR JUMP JUMPDEST PUSH2 0x120 DUP2 DUP2 MSTORE POP POP PUSH3 0x7B PUSH1 0x1 DUP3 PUSH3 0x14D PUSH1 0x20 SHL SWAP1 SWAP2 SWAP1 PUSH1 0x20 SHR JUMP JUMPDEST PUSH2 0x140 DUP2 DUP2 MSTORE POP POP DUP2 DUP1 MLOAD SWAP1 PUSH1 0x20 ADD KECCAK256 PUSH1 0xE0 DUP2 DUP2 MSTORE POP POP DUP1 DUP1 MLOAD SWAP1 PUSH1 0x20 ADD KECCAK256 PUSH2 0x100 DUP2 DUP2 MSTORE POP POP CHAINID PUSH1 0xA0 DUP2 DUP2 MSTORE POP POP PUSH3 0xBA PUSH3 0x1A2 PUSH1 0x20 SHL PUSH1 0x20 SHR JUMP JUMPDEST PUSH1 0x80 DUP2 DUP2 MSTORE POP POP ADDRESS PUSH20 0xFFFFFFFFFFFFFFFFFFFFFFFFFFFFFFFFFFFFFFFF AND PUSH1 0xC0 DUP2 PUSH20 0xFFFFFFFFFFFFFFFFFFFFFFFFFFFFFFFFFFFFFFFF AND DUP2 MSTORE POP POP POP POP DUP1 PUSH1 0x3 SWAP1 DUP2 PUSH3 0x108 SWAP2 SWAP1 PUSH3 0x67C JUMP JUMPDEST POP POP PUSH3 0x939 JUMP JUMPDEST PUSH1 0x60 PUSH1 0x40 MLOAD DUP1 PUSH1 0x40 ADD PUSH1 0x40 MSTORE DUP1 PUSH1 0x1 DUP2 MSTORE PUSH1 0x20 ADD PUSH32 0x3100000000000000000000000000000000000000000000000000000000000000 DUP2 MSTORE POP SWAP1 POP SWAP1 JUMP JUMPDEST PUSH0 PUSH1 0x20 DUP4 MLOAD LT ISZERO PUSH3 0x172 JUMPI PUSH3 0x16A DUP4 PUSH3 0x1FE PUSH1 0x20 SHL PUSH1 0x20 SHR JUMP JUMPDEST SWAP1 POP PUSH3 0x19C JUMP JUMPDEST DUP3 PUSH3 0x184 DUP4 PUSH3 0x268 PUSH1 0x20 SHL PUSH1 0x20 SHR JUMP JUMPDEST PUSH0 ADD SWAP1 DUP2 PUSH3 0x194 SWAP2 SWAP1 PUSH3 0x67C JUMP JUMPDEST POP PUSH1 0xFF PUSH0 SHL SWAP1 POP JUMPDEST SWAP3 SWAP2 POP POP JUMP JUMPDEST PUSH0 PUSH32 0x8B73C3C69BB8FE3D512ECC4CF759CC79239F7B179B0FFACAA9A75D522B39400F PUSH1 0xE0 MLOAD PUSH2 0x100 MLOAD CHAINID ADDRESS PUSH1 0x40 MLOAD PUSH1 0x20 ADD PUSH3 0x1E3 SWAP6 SWAP5 SWAP4 SWAP3 SWAP2 SWAP1 PUSH3 0x7CE JUMP JUMPDEST PUSH1 0x40 MLOAD PUSH1 0x20 DUP2 DUP4 SUB SUB DUP2 MSTORE SWAP1 PUSH1 0x40 MSTORE DUP1 MLOAD SWAP1 PUSH1 0x20 ADD KECCAK256 SWAP1 POP SWAP1 JUMP JUMPDEST PUSH0 DUP1 DUP3 SWAP1 POP PUSH1 0x1F DUP2 MLOAD GT ISZERO PUSH3 0x24D JUMPI DUP3 PUSH1 0x40 MLOAD PUSH32 0x305A27A900000000000000000000000000000000000000000000000000000000 DUP2 MSTORE PUSH1 0x4 ADD PUSH3 0x244 SWAP2 SWAP1 PUSH3 0x879 JUMP JUMPDEST PUSH1 0x40 MLOAD DUP1 SWAP2 SUB SWAP1 REVERT JUMPDEST DUP1 MLOAD DUP2 PUSH3 0x25B SWAP1 PUSH3 0x8CA JUMP JUMPDEST PUSH0 SHR OR PUSH0 SHL SWAP2 POP POP SWAP2 SWAP1 POP JUMP JUMPDEST PUSH0 DUP2 SWAP1 POP SWAP2 SWAP1 POP JUMP JUMPDEST PUSH0 PUSH1 0x40 MLOAD SWAP1 POP SWAP1 JUMP JUMPDEST PUSH0 DUP1 REVERT JUMPDEST PUSH0 DUP1 REVERT JUMPDEST PUSH0 DUP1 REVERT JUMPDEST PUSH0 DUP1 REVERT JUMPDEST PUSH0 PUSH1 0x1F NOT PUSH1 0x1F DUP4 ADD AND SWAP1 POP SWAP2 SWAP1 POP JUMP JUMPDEST PUSH32 0x4E487B7100000000000000000000000000000000000000000000000000000000 PUSH0 MSTORE PUSH1 0x41 PUSH1 0x4 MSTORE PUSH1 0x24 PUSH0 REVERT JUMPDEST PUSH3 0x2D2 DUP3 PUSH3 0x28A JUMP JUMPDEST DUP2 ADD DUP2 DUP2 LT PUSH8 0xFFFFFFFFFFFFFFFF DUP3 GT OR ISZERO PUSH3 0x2F4 JUMPI PUSH3 0x2F3 PUSH3 0x29A JUMP JUMPDEST JUMPDEST DUP1 PUSH1 0x40 MSTORE POP POP POP JUMP JUMPDEST PUSH0 PUSH3 0x308 PUSH3 0x271 JUMP JUMPDEST SWAP1 POP PUSH3 0x316 DUP3 DUP3 PUSH3 0x2C7 JUMP JUMPDEST SWAP2 SWAP1 POP JUMP JUMPDEST PUSH0 PUSH8 0xFFFFFFFFFFFFFFFF DUP3 GT ISZERO PUSH3 0x338 JUMPI PUSH3 0x337 PUSH3 0x29A JUMP JUMPDEST JUMPDEST PUSH3 0x343 DUP3 PUSH3 0x28A JUMP JUMPDEST SWAP1 POP PUSH1 0x20 DUP2 ADD SWAP1 POP SWAP2 SWAP1 POP JUMP JUMPDEST PUSH0 JUMPDEST DUP4 DUP2 LT ISZERO PUSH3 0x36F JUMPI DUP1 DUP3 ADD MLOAD DUP2 DUP5 ADD MSTORE PUSH1 0x20 DUP2 ADD SWAP1 POP PUSH3 0x352 JUMP JUMPDEST PUSH0 DUP5 DUP5 ADD MSTORE POP POP POP POP JUMP JUMPDEST PUSH0 PUSH3 0x390 PUSH3 0x38A DUP5 PUSH3 0x31B JUMP JUMPDEST PUSH3 0x2FD JUMP JUMPDEST SWAP1 POP DUP3 DUP2 MSTORE PUSH1 0x20 DUP2 ADD DUP5 DUP5 DUP5 ADD GT ISZERO PUSH3 0x3AF JUMPI PUSH3 0x3AE PUSH3 0x286 JUMP JUMPDEST JUMPDEST PUSH3 0x3BC DUP5 DUP3 DUP6 PUSH3 0x350 JUMP JUMPDEST POP SWAP4 SWAP3 POP POP POP JUMP JUMPDEST PUSH0 DUP3 PUSH1 0x1F DUP4 ADD SLT PUSH3 0x3DB JUMPI PUSH3 0x3DA PUSH3 0x282 JUMP JUMPDEST JUMPDEST DUP2 MLOAD PUSH3 0x3ED DUP5 DUP3 PUSH1 0x20 DUP7 ADD PUSH3 0x37A JUMP JUMPDEST SWAP2 POP POP SWAP3 SWAP2 POP POP JUMP JUMPDEST PUSH0 PUSH1 0x20 DUP3 DUP5 SUB SLT ISZERO PUSH3 0x40E JUMPI PUSH3 0x40D PUSH3 0x27A JUMP JUMPDEST JUMPDEST PUSH0 DUP3 ADD MLOAD PUSH8 0xFFFFFFFFFFFFFFFF DUP2 GT ISZERO PUSH3 0x42E JUMPI PUSH3 0x42D PUSH3 0x27E JUMP JUMPDEST JUMPDEST PUSH3 0x43C DUP5 DUP3 DUP6 ADD PUSH3 0x3C4 JUMP JUMPDEST SWAP2 POP POP SWAP3 SWAP2 POP POP JUMP JUMPDEST PUSH0 DUP2 MLOAD SWAP1 POP SWAP2 SWAP1 POP JUMP JUMPDEST PUSH32 0x4E487B7100000000000000000000000000000000000000000000000000000000 PUSH0 MSTORE PUSH1 0x22 PUSH1 0x4 MSTORE PUSH1 0x24 PUSH0 REVERT JUMPDEST PUSH0 PUSH1 0x2 DUP3 DIV SWAP1 POP PUSH1 0x1 DUP3 AND DUP1 PUSH3 0x494 JUMPI PUSH1 0x7F DUP3 AND SWAP2 POP JUMPDEST PUSH1 0x20 DUP3 LT DUP2 SUB PUSH3 0x4AA JUMPI PUSH3 0x4A9 PUSH3 0x44F JUMP JUMPDEST JUMPDEST POP SWAP2 SWAP1 POP JUMP JUMPDEST PUSH0 DUP2 SWAP1 POP DUP2 PUSH0 MSTORE PUSH1 0x20 PUSH0 KECCAK256 SWAP1 POP SWAP2 SWAP1 POP JUMP JUMPDEST PUSH0 PUSH1 0x20 PUSH1 0x1F DUP4 ADD DIV SWAP1 POP SWAP2 SWAP1 POP JUMP JUMPDEST PUSH0 DUP3 DUP3 SHL SWAP1 POP SWAP3 SWAP2 POP POP JUMP JUMPDEST PUSH0 PUSH1 0x8 DUP4 MUL PUSH3 0x50E PUSH32 0xFFFFFFFFFFFFFFFFFFFFFFFFFFFFFFFFFFFFFFFFFFFFFFFFFFFFFFFFFFFFFFFF DUP3 PUSH3 0x4D1 JUMP JUMPDEST PUSH3 0x51A DUP7 DUP4 PUSH3 0x4D1 JUMP JUMPDEST SWAP6 POP DUP1 NOT DUP5 AND SWAP4 POP DUP1 DUP7 AND DUP5 OR SWAP3 POP POP POP SWAP4 SWAP3 POP POP POP JUMP JUMPDEST PUSH0 DUP2 SWAP1 POP SWAP2 SWAP1 POP JUMP JUMPDEST PUSH0 DUP2 SWAP1 POP SWAP2 SWAP1 POP JUMP JUMPDEST PUSH0 PUSH3 0x564 PUSH3 0x55E PUSH3 0x558 DUP5 PUSH3 0x532 JUMP JUMPDEST PUSH3 0x53B JUMP JUMPDEST PUSH3 0x532 JUMP JUMPDEST SWAP1 POP SWAP2 SWAP1 POP JUMP JUMPDEST PUSH0 DUP2 SWAP1 POP SWAP2 SWAP1 POP JUMP JUMPDEST PUSH3 0x57F DUP4 PUSH3 0x544 JUMP JUMPDEST PUSH3 0x597 PUSH3 0x58E DUP3 PUSH3 0x56B JUMP JUMPDEST DUP5 DUP5 SLOAD PUSH3 0x4DD JUMP JUMPDEST DUP3 SSTORE POP POP POP POP JUMP JUMPDEST PUSH0 SWAP1 JUMP JUMPDEST PUSH3 0x5AD PUSH3 0x59F JUMP JUMPDEST PUSH3 0x5BA DUP2 DUP5 DUP5 PUSH3 0x574 JUMP JUMPDEST POP POP POP JUMP JUMPDEST JUMPDEST DUP2 DUP2 LT ISZERO PUSH3 0x5E1 JUMPI PUSH3 0x5D5 PUSH0 DUP3 PUSH3 0x5A3 JUMP JUMPDEST PUSH1 0x1 DUP2 ADD SWAP1 POP PUSH3 0x5C0 JUMP JUMPDEST POP POP JUMP JUMPDEST PUSH1 0x1F DUP3 GT ISZERO PUSH3 0x630 JUMPI PUSH3 0x5FA DUP2 PUSH3 0x4B0 JUMP JUMPDEST PUSH3 0x605 DUP5 PUSH3 0x4C2 JUMP JUMPDEST DUP2 ADD PUSH1 0x20 DUP6 LT ISZERO PUSH3 0x615 JUMPI DUP2 SWAP1 POP JUMPDEST PUSH3 0x62D PUSH3 0x624 DUP6 PUSH3 0x4C2 JUMP JUMPDEST DUP4 ADD DUP3 PUSH3 0x5BF JUMP JUMPDEST POP POP JUMPDEST POP POP POP JUMP JUMPDEST PUSH0 DUP3 DUP3 SHR SWAP1 POP SWAP3 SWAP2 POP POP JUMP JUMPDEST PUSH0 PUSH3 0x652 PUSH0 NOT DUP5 PUSH1 0x8 MUL PUSH3 0x635 JUMP JUMPDEST NOT DUP1 DUP4 AND SWAP2 POP POP SWAP3 SWAP2 POP POP JUMP JUMPDEST PUSH0 PUSH3 0x66C DUP4 DUP4 PUSH3 0x641 JUMP JUMPDEST SWAP2 POP DUP3 PUSH1 0x2 MUL DUP3 OR SWAP1 POP SWAP3 SWAP2 POP POP JUMP JUMPDEST PUSH3 0x687 DUP3 PUSH3 0x445 JUMP JUMPDEST PUSH8 0xFFFFFFFFFFFFFFFF DUP2 GT ISZERO PUSH3 0x6A3 JUMPI PUSH3 0x6A2 PUSH3 0x29A JUMP JUMPDEST JUMPDEST PUSH3 0x6AF DUP3 SLOAD PUSH3 0x47C JUMP JUMPDEST PUSH3 0x6BC DUP3 DUP3 DUP6 PUSH3 0x5E5 JUMP JUMPDEST PUSH0 PUSH1 0x20 SWAP1 POP PUSH1 0x1F DUP4 GT PUSH1 0x1 DUP2 EQ PUSH3 0x6F2 JUMPI PUSH0 DUP5 ISZERO PUSH3 0x6DD JUMPI DUP3 DUP8 ADD MLOAD SWAP1 POP JUMPDEST PUSH3 0x6E9 DUP6 DUP3 PUSH3 0x65F JUMP JUMPDEST DUP7 SSTORE POP PUSH3 0x758 JUMP JUMPDEST PUSH1 0x1F NOT DUP5 AND PUSH3 0x702 DUP7 PUSH3 0x4B0 JUMP JUMPDEST PUSH0 JUMPDEST DUP3 DUP2 LT ISZERO PUSH3 0x72B JUMPI DUP5 DUP10 ADD MLOAD DUP3 SSTORE PUSH1 0x1 DUP3 ADD SWAP2 POP PUSH1 0x20 DUP6 ADD SWAP5 POP PUSH1 0x20 DUP2 ADD SWAP1 POP PUSH3 0x704 JUMP JUMPDEST DUP7 DUP4 LT ISZERO PUSH3 0x74B JUMPI DUP5 DUP10 ADD MLOAD PUSH3 0x747 PUSH1 0x1F DUP10 AND DUP3 PUSH3 0x641 JUMP JUMPDEST DUP4 SSTORE POP JUMPDEST PUSH1 0x1 PUSH1 0x2 DUP9 MUL ADD DUP9 SSTORE POP POP POP JUMPDEST POP POP POP POP POP POP JUMP JUMPDEST PUSH0 DUP2 SWAP1 POP SWAP2 SWAP1 POP JUMP JUMPDEST PUSH3 0x774 DUP2 PUSH3 0x760 JUMP JUMPDEST DUP3 MSTORE POP POP JUMP JUMPDEST PUSH3 0x785 DUP2 PUSH3 0x532 JUMP JUMPDEST DUP3 MSTORE POP POP JUMP JUMPDEST PUSH0 PUSH20 0xFFFFFFFFFFFFFFFFFFFFFFFFFFFFFFFFFFFFFFFF DUP3 AND SWAP1 POP SWAP2 SWAP1 POP JUMP JUMPDEST PUSH0 PUSH3 0x7B6 DUP3 PUSH3 0x78B JUMP JUMPDEST SWAP1 POP SWAP2 SWAP1 POP JUMP JUMPDEST PUSH3 0x7C8 DUP2 PUSH3 0x7AA JUMP JUMPDEST DUP3 MSTORE POP POP JUMP JUMPDEST PUSH0 PUSH1 0xA0 DUP3 ADD SWAP1 POP PUSH3 0x7E3 PUSH0 DUP4 ADD DUP9 PUSH3 0x769 JUMP JUMPDEST PUSH3 0x7F2 PUSH1 0x20 DUP4 ADD DUP8 PUSH3 0x769 JUMP JUMPDEST PUSH3 0x801 PUSH1 0x40 DUP4 ADD DUP7 PUSH3 0x769 JUMP JUMPDEST PUSH3 0x810 PUSH1 0x60 DUP4 ADD DUP6 PUSH3 0x77A JUMP JUMPDEST PUSH3 0x81F PUSH1 0x80 DUP4 ADD DUP5 PUSH3 0x7BD JUMP JUMPDEST SWAP7 SWAP6 POP POP POP POP POP POP JUMP JUMPDEST PUSH0 DUP3 DUP3 MSTORE PUSH1 0x20 DUP3 ADD SWAP1 POP SWAP3 SWAP2 POP POP JUMP JUMPDEST PUSH0 PUSH3 0x845 DUP3 PUSH3 0x445 JUMP JUMPDEST PUSH3 0x851 DUP2 DUP6 PUSH3 0x829 JUMP JUMPDEST SWAP4 POP PUSH3 0x863 DUP2 DUP6 PUSH1 0x20 DUP7 ADD PUSH3 0x350 JUMP JUMPDEST PUSH3 0x86E DUP2 PUSH3 0x28A JUMP JUMPDEST DUP5 ADD SWAP2 POP POP SWAP3 SWAP2 POP POP JUMP JUMPDEST PUSH0 PUSH1 0x20 DUP3 ADD SWAP1 POP DUP2 DUP2 SUB PUSH0 DUP4 ADD MSTORE PUSH3 0x893 DUP2 DUP5 PUSH3 0x839 JUMP JUMPDEST SWAP1 POP SWAP3 SWAP2 POP POP JUMP JUMPDEST PUSH0 DUP2 MLOAD SWAP1 POP SWAP2 SWAP1 POP JUMP JUMPDEST PUSH0 DUP2 SWAP1 POP PUSH1 0x20 DUP3 ADD SWAP1 POP SWAP2 SWAP1 POP JUMP JUMPDEST PUSH0 PUSH3 0x8C1 DUP3 MLOAD PUSH3 0x760 JUMP JUMPDEST DUP1 SWAP2 POP POP SWAP2 SWAP1 POP JUMP JUMPDEST PUSH0 PUSH3 0x8D6 DUP3 PUSH3 0x89B JUMP JUMPDEST DUP3 PUSH3 0x8E2 DUP5 PUSH3 0x8A5 JUMP JUMPDEST SWAP1 POP PUSH3 0x8EF DUP2 PUSH3 0x8B4 JUMP JUMPDEST SWAP3 POP PUSH1 0x20 DUP3 LT ISZERO PUSH3 0x932 JUMPI PUSH3 0x92D PUSH32 0xFFFFFFFFFFFFFFFFFFFFFFFFFFFFFFFFFFFFFFFFFFFFFFFFFFFFFFFFFFFFFFFF DUP4 PUSH1 0x20 SUB PUSH1 0x8 MUL PUSH3 0x4D1 JUMP JUMPDEST DUP4 AND SWAP3 POP JUMPDEST POP POP SWAP2 SWAP1 POP JUMP JUMPDEST PUSH1 0x80 MLOAD PUSH1 0xA0 MLOAD PUSH1 0xC0 MLOAD PUSH1 0xE0 MLOAD PUSH2 0x100 MLOAD PUSH2 0x120 MLOAD PUSH2 0x140 MLOAD PUSH2 0x1427 PUSH3 0x97C PUSH0 CODECOPY PUSH0 PUSH2 0x83E ADD MSTORE PUSH0 PUSH2 0x803 ADD MSTORE PUSH0 POP POP PUSH0 POP POP PUSH0 POP POP PUSH0 POP POP PUSH0 POP POP PUSH2 0x1427 PUSH0 RETURN INVALID PUSH1 0x80 PUSH1 0x40 MSTORE CALLVALUE DUP1 ISZERO PUSH2 0xF JUMPI PUSH0 DUP1 REVERT JUMPDEST POP PUSH1 0x4 CALLDATASIZE LT PUSH2 0x86 JUMPI PUSH0 CALLDATALOAD PUSH1 0xE0 SHR DUP1 PUSH4 0x4BF5D7E9 GT PUSH2 0x59 JUMPI DUP1 PUSH4 0x4BF5D7E9 EQ PUSH2 0x124 JUMPI DUP1 PUSH4 0x54FD4D50 EQ PUSH2 0x142 JUMPI DUP1 PUSH4 0x5DAD85C2 EQ PUSH2 0x160 JUMPI DUP1 PUSH4 0x84B0196E EQ PUSH2 0x17E JUMPI PUSH2 0x86 JUMP JUMPDEST DUP1 PUSH4 0x6FDDE03 EQ PUSH2 0x8A JUMPI DUP1 PUSH4 0x31D133C2 EQ PUSH2 0xA8 JUMPI DUP1 PUSH4 0x3A8512B4 EQ PUSH2 0xD8 JUMPI DUP1 PUSH4 0x3E4F49E6 EQ PUSH2 0xF4 JUMPI JUMPDEST PUSH0 DUP1 REVERT JUMPDEST PUSH2 0x92 PUSH2 0x1A2 JUMP JUMPDEST PUSH1 0x40 MLOAD PUSH2 0x9F SWAP2 SWAP1 PUSH2 0xA67 JUMP JUMPDEST PUSH1 0x40 MLOAD DUP1 SWAP2 SUB SWAP1 RETURN JUMPDEST PUSH2 0xC2 PUSH1 0x4 DUP1 CALLDATASIZE SUB DUP2 ADD SWAP1 PUSH2 0xBD SWAP2 SWAP1 PUSH2 0xC84 JUMP JUMPDEST PUSH2 0x232 JUMP JUMPDEST PUSH1 0x40 MLOAD PUSH2 0xCF SWAP2 SWAP1 PUSH2 0xD13 JUMP JUMPDEST PUSH1 0x40 MLOAD DUP1 SWAP2 SUB SWAP1 RETURN JUMPDEST PUSH2 0xF2 PUSH1 0x4 DUP1 CALLDATASIZE SUB DUP2 ADD SWAP1 PUSH2 0xED SWAP2 SWAP1 PUSH2 0xD2C JUMP JUMPDEST PUSH2 0x26C JUMP JUMPDEST STOP JUMPDEST PUSH2 0x10E PUSH1 0x4 DUP1 CALLDATASIZE SUB DUP2 ADD SWAP1 PUSH2 0x109 SWAP2 SWAP1 PUSH2 0xD6A JUMP JUMPDEST PUSH2 0x2EB JUMP JUMPDEST PUSH1 0x40 MLOAD PUSH2 0x11B SWAP2 SWAP1 PUSH2 0xE08 JUMP JUMPDEST PUSH1 0x40 MLOAD DUP1 SWAP2 SUB SWAP1 RETURN JUMPDEST PUSH2 0x12C PUSH2 0x557 JUMP JUMPDEST PUSH1 0x40 MLOAD PUSH2 0x139 SWAP2 SWAP1 PUSH2 0xA67 JUMP JUMPDEST PUSH1 0x40 MLOAD DUP1 SWAP2 SUB SWAP1 RETURN JUMPDEST PUSH2 0x14A PUSH2 0x594 JUMP JUMPDEST PUSH1 0x40 MLOAD PUSH2 0x157 SWAP2 SWAP1 PUSH2 0xA67 JUMP JUMPDEST PUSH1 0x40 MLOAD DUP1 SWAP2 SUB SWAP1 RETURN JUMPDEST PUSH2 0x168 PUSH2 0x5D1 JUMP JUMPDEST PUSH1 0x40 MLOAD PUSH2 0x175 SWAP2 SWAP1 PUSH2 0xD13 JUMP JUMPDEST PUSH1 0x40 MLOAD DUP1 SWAP2 SUB SWAP1 RETURN JUMPDEST PUSH2 0x186 PUSH2 0x5D8 JUMP JUMPDEST PUSH1 0x40 MLOAD PUSH2 0x199 SWAP8 SWAP7 SWAP6 SWAP5 SWAP4 SWAP3 SWAP2 SWAP1 PUSH2 0xF30 JUMP JUMPDEST PUSH1 0x40 MLOAD DUP1 SWAP2 SUB SWAP1 RETURN JUMPDEST PUSH1 0x60 PUSH1 0x3 DUP1 SLOAD PUSH2 0x1B1 SWAP1 PUSH2 0xFDF JUMP JUMPDEST DUP1 PUSH1 0x1F ADD PUSH1 0x20 DUP1 SWAP2 DIV MUL PUSH1 0x20 ADD PUSH1 0x40 MLOAD SWAP1 DUP2 ADD PUSH1 0x40 MSTORE DUP1 SWAP3 SWAP2 SWAP1 DUP2 DUP2 MSTORE PUSH1 0x20 ADD DUP3 DUP1 SLOAD PUSH2 0x1DD SWAP1 PUSH2 0xFDF JUMP JUMPDEST DUP1 ISZERO PUSH2 0x228 JUMPI DUP1 PUSH1 0x1F LT PUSH2 0x1FF JUMPI PUSH2 0x100 DUP1 DUP4 SLOAD DIV MUL DUP4 MSTORE SWAP2 PUSH1 0x20 ADD SWAP2 PUSH2 0x228 JUMP JUMPDEST DUP3 ADD SWAP2 SWAP1 PUSH0 MSTORE PUSH1 0x20 PUSH0 KECCAK256 SWAP1 JUMPDEST DUP2 SLOAD DUP2 MSTORE SWAP1 PUSH1 0x1 ADD SWAP1 PUSH1 0x20 ADD DUP1 DUP4 GT PUSH2 0x20B JUMPI DUP3 SWAP1 SUB PUSH1 0x1F AND DUP3 ADD SWAP2 JUMPDEST POP POP POP POP POP SWAP1 POP SWAP1 JUMP JUMPDEST PUSH0 DUP5 DUP5 DUP5 DUP5 PUSH1 0x40 MLOAD PUSH1 0x20 ADD PUSH2 0x24A SWAP5 SWAP4 SWAP3 SWAP2 SWAP1 PUSH2 0x1061 JUMP JUMPDEST PUSH1 0x40 MLOAD PUSH1 0x20 DUP2 DUP4 SUB SUB DUP2 MSTORE SWAP1 PUSH1 0x40 MSTORE DUP1 MLOAD SWAP1 PUSH1 0x20 ADD KECCAK256 PUSH0 SHR SWAP1 POP SWAP5 SWAP4 POP POP POP POP JUMP JUMPDEST DUP1 PUSH1 0x2 PUSH0 DUP5 PUSH20 0xFFFFFFFFFFFFFFFFFFFFFFFFFFFFFFFFFFFFFFFF AND PUSH20 0xFFFFFFFFFFFFFFFFFFFFFFFFFFFFFFFFFFFFFFFF AND DUP2 MSTORE PUSH1 0x20 ADD SWAP1 DUP2 MSTORE PUSH1 0x20 ADD PUSH0 KECCAK256 PUSH0 PUSH2 0x100 EXP DUP2 SLOAD DUP2 PUSH20 0xFFFFFFFFFFFFFFFFFFFFFFFFFFFFFFFFFFFFFFFF MUL NOT AND SWAP1 DUP4 PUSH20 0xFFFFFFFFFFFFFFFFFFFFFFFFFFFFFFFFFFFFFFFF AND MUL OR SWAP1 SSTORE POP POP POP JUMP JUMPDEST PUSH0 DUP1 PUSH1 0x2 PUSH0 CALLER PUSH20 0xFFFFFFFFFFFFFFFFFFFFFFFFFFFFFFFFFFFFFFFF AND PUSH20 0xFFFFFFFFFFFFFFFFFFFFFFFFFFFFFFFFFFFFFFFF AND DUP2 MSTORE PUSH1 0x20 ADD SWAP1 DUP2 MSTORE PUSH1 0x20 ADD PUSH0 KECCAK256 PUSH0 SWAP1 SLOAD SWAP1 PUSH2 0x100 EXP SWAP1 DIV PUSH20 0xFFFFFFFFFFFFFFFFFFFFFFFFFFFFFFFFFFFFFFFF AND SWAP1 POP PUSH0 DUP2 PUSH20 0xFFFFFFFFFFFFFFFFFFFFFFFFFFFFFFFFFFFFFFFF AND PUSH4 0x13CF08B DUP6 PUSH1 0x40 MLOAD DUP3 PUSH4 0xFFFFFFFF AND PUSH1 0xE0 SHL DUP2 MSTORE PUSH1 0x4 ADD PUSH2 0x386 SWAP2 SWAP1 PUSH2 0xD13 JUMP JUMPDEST PUSH2 0x140 PUSH1 0x40 MLOAD DUP1 DUP4 SUB DUP2 DUP7 GAS STATICCALL ISZERO DUP1 ISZERO PUSH2 0x3A2 JUMPI RETURNDATASIZE PUSH0 DUP1 RETURNDATACOPY RETURNDATASIZE PUSH0 REVERT JUMPDEST POP POP POP POP PUSH1 0x40 MLOAD RETURNDATASIZE PUSH1 0x1F NOT PUSH1 0x1F DUP3 ADD AND DUP3 ADD DUP1 PUSH1 0x40 MSTORE POP DUP2 ADD SWAP1 PUSH2 0x3C6 SWAP2 SWAP1 PUSH2 0x1296 JUMP JUMPDEST SWAP1 POP DUP1 PUSH1 0xC0 ADD MLOAD ISZERO PUSH2 0x3DD JUMPI PUSH1 0x5 SWAP3 POP POP POP PUSH2 0x552 JUMP JUMPDEST DUP1 PUSH1 0xE0 ADD MLOAD ISZERO PUSH2 0x3F2 JUMPI PUSH1 0x2 SWAP3 POP POP POP PUSH2 0x552 JUMP JUMPDEST PUSH0 DUP2 PUSH1 0x80 ADD MLOAD PUSH6 0xFFFFFFFFFFFF AND SWAP1 POP PUSH0 DUP2 SUB PUSH2 0x446 JUMPI DUP5 PUSH1 0x40 MLOAD PUSH32 0x6AD0607500000000000000000000000000000000000000000000000000000000 DUP2 MSTORE PUSH1 0x4 ADD PUSH2 0x43D SWAP2 SWAP1 PUSH2 0xD13 JUMP JUMPDEST PUSH1 0x40 MLOAD DUP1 SWAP2 SUB SWAP1 REVERT JUMPDEST PUSH0 TIMESTAMP SWAP1 POP DUP2 DUP2 GT PUSH2 0x45D JUMPI PUSH0 SWAP5 POP POP POP POP POP PUSH2 0x552 JUMP JUMPDEST PUSH0 DUP4 PUSH1 0x60 ADD MLOAD PUSH4 0xFFFFFFFF AND DUP4 PUSH2 0x474 SWAP2 SWAP1 PUSH2 0x12EF JUMP JUMPDEST SWAP1 POP DUP1 DUP3 GT PUSH2 0x48B JUMPI PUSH1 0x1 SWAP6 POP POP POP POP POP POP PUSH2 0x552 JUMP JUMPDEST DUP4 PUSH2 0x100 ADD MLOAD ISZERO PUSH2 0x4A4 JUMPI PUSH1 0x4 SWAP6 POP POP POP POP POP POP PUSH2 0x552 JUMP JUMPDEST DUP4 PUSH2 0x120 ADD MLOAD ISZERO PUSH2 0x4BD JUMPI PUSH1 0x3 SWAP6 POP POP POP POP POP POP PUSH2 0x552 JUMP JUMPDEST PUSH0 PUSH2 0x4C7 DUP6 PUSH2 0x67D JUMP JUMPDEST SWAP1 POP PUSH0 DUP2 PUSH1 0x5 DUP2 GT ISZERO PUSH2 0x4DD JUMPI PUSH2 0x4DC PUSH2 0xD95 JUMP JUMPDEST JUMPDEST SWAP1 POP DUP7 PUSH20 0xFFFFFFFFFFFFFFFFFFFFFFFFFFFFFFFFFFFFFFFF AND PUSH4 0x1E9608A8 DUP3 DUP12 PUSH1 0x40 MLOAD DUP4 PUSH4 0xFFFFFFFF AND PUSH1 0xE0 SHL DUP2 MSTORE PUSH1 0x4 ADD PUSH2 0x51A SWAP3 SWAP2 SWAP1 PUSH2 0x1322 JUMP JUMPDEST PUSH0 PUSH1 0x40 MLOAD DUP1 DUP4 SUB DUP2 PUSH0 DUP8 DUP1 EXTCODESIZE ISZERO DUP1 ISZERO PUSH2 0x531 JUMPI PUSH0 DUP1 REVERT JUMPDEST POP GAS CALL ISZERO DUP1 ISZERO PUSH2 0x543 JUMPI RETURNDATASIZE PUSH0 DUP1 RETURNDATACOPY RETURNDATASIZE PUSH0 REVERT JUMPDEST POP POP POP POP DUP2 SWAP8 POP POP POP POP POP POP POP POP JUMPDEST SWAP2 SWAP1 POP JUMP JUMPDEST PUSH1 0x60 PUSH1 0x40 MLOAD DUP1 PUSH1 0x40 ADD PUSH1 0x40 MSTORE DUP1 PUSH1 0xA DUP2 MSTORE PUSH1 0x20 ADD PUSH32 0x54696D65207374616D7000000000000000000000000000000000000000000000 DUP2 MSTORE POP SWAP1 POP SWAP1 JUMP JUMPDEST PUSH1 0x60 PUSH1 0x40 MLOAD DUP1 PUSH1 0x40 ADD PUSH1 0x40 MSTORE DUP1 PUSH1 0x1 DUP2 MSTORE PUSH1 0x20 ADD PUSH32 0x3100000000000000000000000000000000000000000000000000000000000000 DUP2 MSTORE POP SWAP1 POP SWAP1 JUMP JUMPDEST PUSH0 TIMESTAMP SWAP1 POP SWAP1 JUMP JUMPDEST PUSH0 PUSH1 0x60 DUP1 PUSH0 DUP1 PUSH0 PUSH1 0x60 PUSH2 0x5E9 PUSH2 0x7FB JUMP JUMPDEST PUSH2 0x5F1 PUSH2 0x835 JUMP JUMPDEST CHAINID ADDRESS PUSH0 DUP1 SHL PUSH0 PUSH8 0xFFFFFFFFFFFFFFFF DUP2 GT ISZERO PUSH2 0x610 JUMPI PUSH2 0x60F PUSH2 0xB2D JUMP JUMPDEST JUMPDEST PUSH1 0x40 MLOAD SWAP1 DUP1 DUP3 MSTORE DUP1 PUSH1 0x20 MUL PUSH1 0x20 ADD DUP3 ADD PUSH1 0x40 MSTORE DUP1 ISZERO PUSH2 0x63E JUMPI DUP2 PUSH1 0x20 ADD PUSH1 0x20 DUP3 MUL DUP1 CALLDATASIZE DUP4 CALLDATACOPY DUP1 DUP3 ADD SWAP2 POP POP SWAP1 POP JUMPDEST POP PUSH32 0xF00000000000000000000000000000000000000000000000000000000000000 SWAP6 SWAP5 SWAP4 SWAP3 SWAP2 SWAP1 SWAP7 POP SWAP7 POP SWAP7 POP SWAP7 POP SWAP7 POP SWAP7 POP SWAP7 POP SWAP1 SWAP2 SWAP3 SWAP4 SWAP5 SWAP6 SWAP7 JUMP JUMPDEST PUSH0 DUP1 DUP3 PUSH1 0x20 ADD MLOAD SWAP1 POP PUSH0 DUP1 DUP3 PUSH20 0xFFFFFFFFFFFFFFFFFFFFFFFFFFFFFFFFFFFFFFFF AND PUSH1 0x40 MLOAD PUSH1 0x24 ADD PUSH1 0x40 MLOAD PUSH1 0x20 DUP2 DUP4 SUB SUB DUP2 MSTORE SWAP1 PUSH1 0x40 MSTORE PUSH32 0xD4564D1600000000000000000000000000000000000000000000000000000000 PUSH28 0xFFFFFFFFFFFFFFFFFFFFFFFFFFFFFFFFFFFFFFFFFFFFFFFFFFFFFFFF NOT AND PUSH1 0x20 DUP3 ADD DUP1 MLOAD PUSH28 0xFFFFFFFFFFFFFFFFFFFFFFFFFFFFFFFFFFFFFFFFFFFFFFFFFFFFFFFF DUP4 DUP2 DUP4 AND OR DUP4 MSTORE POP POP POP POP PUSH1 0x40 MLOAD PUSH2 0x72F SWAP2 SWAP1 PUSH2 0x1383 JUMP JUMPDEST PUSH0 PUSH1 0x40 MLOAD DUP1 DUP4 SUB DUP2 PUSH0 DUP7 GAS CALL SWAP2 POP POP RETURNDATASIZE DUP1 PUSH0 DUP2 EQ PUSH2 0x768 JUMPI PUSH1 0x40 MLOAD SWAP2 POP PUSH1 0x1F NOT PUSH1 0x3F RETURNDATASIZE ADD AND DUP3 ADD PUSH1 0x40 MSTORE RETURNDATASIZE DUP3 MSTORE RETURNDATASIZE PUSH0 PUSH1 0x20 DUP5 ADD RETURNDATACOPY PUSH2 0x76D JUMP JUMPDEST PUSH1 0x60 SWAP2 POP JUMPDEST POP SWAP2 POP SWAP2 POP DUP2 ISZERO PUSH2 0x7B9 JUMPI PUSH0 DUP2 DUP1 PUSH1 0x20 ADD SWAP1 MLOAD DUP2 ADD SWAP1 PUSH2 0x78D SWAP2 SWAP1 PUSH2 0x13AD JUMP JUMPDEST SWAP1 POP DUP6 PUSH1 0x40 ADD MLOAD PUSH2 0xFFFF AND DUP2 GT ISZERO PUSH2 0x7AC JUMPI PUSH1 0x4 SWAP5 POP POP POP POP POP PUSH2 0x7F6 JUMP JUMPDEST PUSH1 0x3 SWAP5 POP POP POP POP POP PUSH2 0x7F6 JUMP JUMPDEST DUP3 PUSH1 0x40 MLOAD PUSH32 0x2E2F840900000000000000000000000000000000000000000000000000000000 DUP2 MSTORE PUSH1 0x4 ADD PUSH2 0x7ED SWAP2 SWAP1 PUSH2 0x13D8 JUMP JUMPDEST PUSH1 0x40 MLOAD DUP1 SWAP2 SUB SWAP1 REVERT JUMPDEST SWAP2 SWAP1 POP JUMP JUMPDEST PUSH1 0x60 PUSH2 0x830 PUSH0 PUSH32 0x0 PUSH2 0x870 SWAP1 SWAP2 SWAP1 PUSH4 0xFFFFFFFF AND JUMP JUMPDEST SWAP1 POP SWAP1 JUMP JUMPDEST PUSH1 0x60 PUSH2 0x86B PUSH1 0x1 PUSH32 0x0 PUSH2 0x870 SWAP1 SWAP2 SWAP1 PUSH4 0xFFFFFFFF AND JUMP JUMPDEST SWAP1 POP SWAP1 JUMP JUMPDEST PUSH1 0x60 PUSH1 0xFF PUSH0 SHL DUP4 EQ PUSH2 0x88C JUMPI PUSH2 0x885 DUP4 PUSH2 0x91D JUMP JUMPDEST SWAP1 POP PUSH2 0x917 JUMP JUMPDEST DUP2 DUP1 SLOAD PUSH2 0x898 SWAP1 PUSH2 0xFDF JUMP JUMPDEST DUP1 PUSH1 0x1F ADD PUSH1 0x20 DUP1 SWAP2 DIV MUL PUSH1 0x20 ADD PUSH1 0x40 MLOAD SWAP1 DUP2 ADD PUSH1 0x40 MSTORE DUP1 SWAP3 SWAP2 SWAP1 DUP2 DUP2 MSTORE PUSH1 0x20 ADD DUP3 DUP1 SLOAD PUSH2 0x8C4 SWAP1 PUSH2 0xFDF JUMP JUMPDEST DUP1 ISZERO PUSH2 0x90F JUMPI DUP1 PUSH1 0x1F LT PUSH2 0x8E6 JUMPI PUSH2 0x100 DUP1 DUP4 SLOAD DIV MUL DUP4 MSTORE SWAP2 PUSH1 0x20 ADD SWAP2 PUSH2 0x90F JUMP JUMPDEST DUP3 ADD SWAP2 SWAP1 PUSH0 MSTORE PUSH1 0x20 PUSH0 KECCAK256 SWAP1 JUMPDEST DUP2 SLOAD DUP2 MSTORE SWAP1 PUSH1 0x1 ADD SWAP1 PUSH1 0x20 ADD DUP1 DUP4 GT PUSH2 0x8F2 JUMPI DUP3 SWAP1 SUB PUSH1 0x1F AND DUP3 ADD SWAP2 JUMPDEST POP POP POP POP POP SWAP1 POP JUMPDEST SWAP3 SWAP2 POP POP JUMP JUMPDEST PUSH1 0x60 PUSH0 PUSH2 0x929 DUP4 PUSH2 0x98F JUMP JUMPDEST SWAP1 POP PUSH0 PUSH1 0x20 PUSH8 0xFFFFFFFFFFFFFFFF DUP2 GT ISZERO PUSH2 0x947 JUMPI PUSH2 0x946 PUSH2 0xB2D JUMP JUMPDEST JUMPDEST PUSH1 0x40 MLOAD SWAP1 DUP1 DUP3 MSTORE DUP1 PUSH1 0x1F ADD PUSH1 0x1F NOT AND PUSH1 0x20 ADD DUP3 ADD PUSH1 0x40 MSTORE DUP1 ISZERO PUSH2 0x979 JUMPI DUP2 PUSH1 0x20 ADD PUSH1 0x1 DUP3 MUL DUP1 CALLDATASIZE DUP4 CALLDATACOPY DUP1 DUP3 ADD SWAP2 POP POP SWAP1 POP JUMPDEST POP SWAP1 POP DUP2 DUP2 MSTORE DUP4 PUSH1 0x20 DUP3 ADD MSTORE DUP1 SWAP3 POP POP POP SWAP2 SWAP1 POP JUMP JUMPDEST PUSH0 DUP1 PUSH1 0xFF DUP4 PUSH0 SHR AND SWAP1 POP PUSH1 0x1F DUP2 GT ISZERO PUSH2 0x9D4 JUMPI PUSH1 0x40 MLOAD PUSH32 0xB3512B0C00000000000000000000000000000000000000000000000000000000 DUP2 MSTORE PUSH1 0x4 ADD PUSH1 0x40 MLOAD DUP1 SWAP2 SUB SWAP1 REVERT JUMPDEST DUP1 SWAP2 POP POP SWAP2 SWAP1 POP JUMP JUMPDEST PUSH0 DUP2 MLOAD SWAP1 POP SWAP2 SWAP1 POP JUMP JUMPDEST PUSH0 DUP3 DUP3 MSTORE PUSH1 0x20 DUP3 ADD SWAP1 POP SWAP3 SWAP2 POP POP JUMP JUMPDEST PUSH0 JUMPDEST DUP4 DUP2 LT ISZERO PUSH2 0xA14 JUMPI DUP1 DUP3 ADD MLOAD DUP2 DUP5 ADD MSTORE PUSH1 0x20 DUP2 ADD SWAP1 POP PUSH2 0x9F9 JUMP JUMPDEST PUSH0 DUP5 DUP5 ADD MSTORE POP POP POP POP JUMP JUMPDEST PUSH0 PUSH1 0x1F NOT PUSH1 0x1F DUP4 ADD AND SWAP1 POP SWAP2 SWAP1 POP JUMP JUMPDEST PUSH0 PUSH2 0xA39 DUP3 PUSH2 0x9DD JUMP JUMPDEST PUSH2 0xA43 DUP2 DUP6 PUSH2 0x9E7 JUMP JUMPDEST SWAP4 POP PUSH2 0xA53 DUP2 DUP6 PUSH1 0x20 DUP7 ADD PUSH2 0x9F7 JUMP JUMPDEST PUSH2 0xA5C DUP2 PUSH2 0xA1F JUMP JUMPDEST DUP5 ADD SWAP2 POP POP SWAP3 SWAP2 POP POP JUMP JUMPDEST PUSH0 PUSH1 0x20 DUP3 ADD SWAP1 POP DUP2 DUP2 SUB PUSH0 DUP4 ADD MSTORE PUSH2 0xA7F DUP2 DUP5 PUSH2 0xA2F JUMP JUMPDEST SWAP1 POP SWAP3 SWAP2 POP POP JUMP JUMPDEST PUSH0 PUSH1 0x40 MLOAD SWAP1 POP SWAP1 JUMP JUMPDEST PUSH0 DUP1 REVERT JUMPDEST PUSH0 DUP1 REVERT JUMPDEST PUSH0 PUSH20 0xFFFFFFFFFFFFFFFFFFFFFFFFFFFFFFFFFFFFFFFF DUP3 AND SWAP1 POP SWAP2 SWAP1 POP JUMP JUMPDEST PUSH0 PUSH2 0xAC1 DUP3 PUSH2 0xA98 JUMP JUMPDEST SWAP1 POP SWAP2 SWAP1 POP JUMP JUMPDEST PUSH2 0xAD1 DUP2 PUSH2 0xAB7 JUMP JUMPDEST DUP2 EQ PUSH2 0xADB JUMPI PUSH0 DUP1 REVERT JUMPDEST POP JUMP JUMPDEST PUSH0 DUP2 CALLDATALOAD SWAP1 POP PUSH2 0xAEC DUP2 PUSH2 0xAC8 JUMP JUMPDEST SWAP3 SWAP2 POP POP JUMP JUMPDEST PUSH0 DUP2 SWAP1 POP SWAP2 SWAP1 POP JUMP JUMPDEST PUSH2 0xB04 DUP2 PUSH2 0xAF2 JUMP JUMPDEST DUP2 EQ PUSH2 0xB0E JUMPI PUSH0 DUP1 REVERT JUMPDEST POP JUMP JUMPDEST PUSH0 DUP2 CALLDATALOAD SWAP1 POP PUSH2 0xB1F DUP2 PUSH2 0xAFB JUMP JUMPDEST SWAP3 SWAP2 POP POP JUMP JUMPDEST PUSH0 DUP1 REVERT JUMPDEST PUSH0 DUP1 REVERT JUMPDEST PUSH32 0x4E487B7100000000000000000000000000000000000000000000000000000000 PUSH0 MSTORE PUSH1 0x41 PUSH1 0x4 MSTORE PUSH1 0x24 PUSH0 REVERT JUMPDEST PUSH2 0xB63 DUP3 PUSH2 0xA1F JUMP JUMPDEST DUP2 ADD DUP2 DUP2 LT PUSH8 0xFFFFFFFFFFFFFFFF DUP3 GT OR ISZERO PUSH2 0xB82 JUMPI PUSH2 0xB81 PUSH2 0xB2D JUMP JUMPDEST JUMPDEST DUP1 PUSH1 0x40 MSTORE POP POP POP JUMP JUMPDEST PUSH0 PUSH2 0xB94 PUSH2 0xA87 JUMP JUMPDEST SWAP1 POP PUSH2 0xBA0 DUP3 DUP3 PUSH2 0xB5A JUMP JUMPDEST SWAP2 SWAP1 POP JUMP JUMPDEST PUSH0 PUSH8 0xFFFFFFFFFFFFFFFF DUP3 GT ISZERO PUSH2 0xBBF JUMPI PUSH2 0xBBE PUSH2 0xB2D JUMP JUMPDEST JUMPDEST PUSH2 0xBC8 DUP3 PUSH2 0xA1F JUMP JUMPDEST SWAP1 POP PUSH1 0x20 DUP2 ADD SWAP1 POP SWAP2 SWAP1 POP JUMP JUMPDEST DUP3 DUP2 DUP4 CALLDATACOPY PUSH0 DUP4 DUP4 ADD MSTORE POP POP POP JUMP JUMPDEST PUSH0 PUSH2 0xBF5 PUSH2 0xBF0 DUP5 PUSH2 0xBA5 JUMP JUMPDEST PUSH2 0xB8B JUMP JUMPDEST SWAP1 POP DUP3 DUP2 MSTORE PUSH1 0x20 DUP2 ADD DUP5 DUP5 DUP5 ADD GT ISZERO PUSH2 0xC11 JUMPI PUSH2 0xC10 PUSH2 0xB29 JUMP JUMPDEST JUMPDEST PUSH2 0xC1C DUP5 DUP3 DUP6 PUSH2 0xBD5 JUMP JUMPDEST POP SWAP4 SWAP3 POP POP POP JUMP JUMPDEST PUSH0 DUP3 PUSH1 0x1F DUP4 ADD SLT PUSH2 0xC38 JUMPI PUSH2 0xC37 PUSH2 0xB25 JUMP JUMPDEST JUMPDEST DUP2 CALLDATALOAD PUSH2 0xC48 DUP5 DUP3 PUSH1 0x20 DUP7 ADD PUSH2 0xBE3 JUMP JUMPDEST SWAP2 POP POP SWAP3 SWAP2 POP POP JUMP JUMPDEST PUSH0 DUP2 SWAP1 POP SWAP2 SWAP1 POP JUMP JUMPDEST PUSH2 0xC63 DUP2 PUSH2 0xC51 JUMP JUMPDEST DUP2 EQ PUSH2 0xC6D JUMPI PUSH0 DUP1 REVERT JUMPDEST POP JUMP JUMPDEST PUSH0 DUP2 CALLDATALOAD SWAP1 POP PUSH2 0xC7E DUP2 PUSH2 0xC5A JUMP JUMPDEST SWAP3 SWAP2 POP POP JUMP JUMPDEST PUSH0 DUP1 PUSH0 DUP1 PUSH1 0x80 DUP6 DUP8 SUB SLT ISZERO PUSH2 0xC9C JUMPI PUSH2 0xC9B PUSH2 0xA90 JUMP JUMPDEST JUMPDEST PUSH0 PUSH2 0xCA9 DUP8 DUP3 DUP9 ADD PUSH2 0xADE JUMP JUMPDEST SWAP5 POP POP PUSH1 0x20 PUSH2 0xCBA DUP8 DUP3 DUP9 ADD PUSH2 0xB11 JUMP JUMPDEST SWAP4 POP POP PUSH1 0x40 DUP6 ADD CALLDATALOAD PUSH8 0xFFFFFFFFFFFFFFFF DUP2 GT ISZERO PUSH2 0xCDB JUMPI PUSH2 0xCDA PUSH2 0xA94 JUMP JUMPDEST JUMPDEST PUSH2 0xCE7 DUP8 DUP3 DUP9 ADD PUSH2 0xC24 JUMP JUMPDEST SWAP3 POP POP PUSH1 0x60 PUSH2 0xCF8 DUP8 DUP3 DUP9 ADD PUSH2 0xC70 JUMP JUMPDEST SWAP2 POP POP SWAP3 SWAP6 SWAP2 SWAP5 POP SWAP3 POP JUMP JUMPDEST PUSH2 0xD0D DUP2 PUSH2 0xAF2 JUMP JUMPDEST DUP3 MSTORE POP POP JUMP JUMPDEST PUSH0 PUSH1 0x20 DUP3 ADD SWAP1 POP PUSH2 0xD26 PUSH0 DUP4 ADD DUP5 PUSH2 0xD04 JUMP JUMPDEST SWAP3 SWAP2 POP POP JUMP JUMPDEST PUSH0 DUP1 PUSH1 0x40 DUP4 DUP6 SUB SLT ISZERO PUSH2 0xD42 JUMPI PUSH2 0xD41 PUSH2 0xA90 JUMP JUMPDEST JUMPDEST PUSH0 PUSH2 0xD4F DUP6 DUP3 DUP7 ADD PUSH2 0xADE JUMP JUMPDEST SWAP3 POP POP PUSH1 0x20 PUSH2 0xD60 DUP6 DUP3 DUP7 ADD PUSH2 0xADE JUMP JUMPDEST SWAP2 POP POP SWAP3 POP SWAP3 SWAP1 POP JUMP JUMPDEST PUSH0 PUSH1 0x20 DUP3 DUP5 SUB SLT ISZERO PUSH2 0xD7F JUMPI PUSH2 0xD7E PUSH2 0xA90 JUMP JUMPDEST JUMPDEST PUSH0 PUSH2 0xD8C DUP5 DUP3 DUP6 ADD PUSH2 0xB11 JUMP JUMPDEST SWAP2 POP POP SWAP3 SWAP2 POP POP JUMP JUMPDEST PUSH32 0x4E487B7100000000000000000000000000000000000000000000000000000000 PUSH0 MSTORE PUSH1 0x21 PUSH1 0x4 MSTORE PUSH1 0x24 PUSH0 REVERT JUMPDEST PUSH1 0x6 DUP2 LT PUSH2 0xDD3 JUMPI PUSH2 0xDD2 PUSH2 0xD95 JUMP JUMPDEST JUMPDEST POP JUMP JUMPDEST PUSH0 DUP2 SWAP1 POP PUSH2 0xDE3 DUP3 PUSH2 0xDC2 JUMP JUMPDEST SWAP2 SWAP1 POP JUMP JUMPDEST PUSH0 PUSH2 0xDF2 DUP3 PUSH2 0xDD6 JUMP JUMPDEST SWAP1 POP SWAP2 SWAP1 POP JUMP JUMPDEST PUSH2 0xE02 DUP2 PUSH2 0xDE8 JUMP JUMPDEST DUP3 MSTORE POP POP JUMP JUMPDEST PUSH0 PUSH1 0x20 DUP3 ADD SWAP1 POP PUSH2 0xE1B PUSH0 DUP4 ADD DUP5 PUSH2 0xDF9 JUMP JUMPDEST SWAP3 SWAP2 POP POP JUMP JUMPDEST PUSH0 PUSH32 0xFF00000000000000000000000000000000000000000000000000000000000000 DUP3 AND SWAP1 POP SWAP2 SWAP1 POP JUMP JUMPDEST PUSH2 0xE55 DUP2 PUSH2 0xE21 JUMP JUMPDEST DUP3 MSTORE POP POP JUMP JUMPDEST PUSH2 0xE64 DUP2 PUSH2 0xAB7 JUMP JUMPDEST DUP3 MSTORE POP POP JUMP JUMPDEST PUSH2 0xE73 DUP2 PUSH2 0xC51 JUMP JUMPDEST DUP3 MSTORE POP POP JUMP JUMPDEST PUSH0 DUP2 MLOAD SWAP1 POP SWAP2 SWAP1 POP JUMP JUMPDEST PUSH0 DUP3 DUP3 MSTORE PUSH1 0x20 DUP3 ADD SWAP1 POP SWAP3 SWAP2 POP POP JUMP JUMPDEST PUSH0 DUP2 SWAP1 POP PUSH1 0x20 DUP3 ADD SWAP1 POP SWAP2 SWAP1 POP JUMP JUMPDEST PUSH2 0xEAB DUP2 PUSH2 0xAF2 JUMP JUMPDEST DUP3 MSTORE POP POP JUMP JUMPDEST PUSH0 PUSH2 0xEBC DUP4 DUP4 PUSH2 0xEA2 JUMP JUMPDEST PUSH1 0x20 DUP4 ADD SWAP1 POP SWAP3 SWAP2 POP POP JUMP JUMPDEST PUSH0 PUSH1 0x20 DUP3 ADD SWAP1 POP SWAP2 SWAP1 POP JUMP JUMPDEST PUSH0 PUSH2 0xEDE DUP3 PUSH2 0xE79 JUMP JUMPDEST PUSH2 0xEE8 DUP2 DUP6 PUSH2 0xE83 JUMP JUMPDEST SWAP4 POP PUSH2 0xEF3 DUP4 PUSH2 0xE93 JUMP JUMPDEST DUP1 PUSH0 JUMPDEST DUP4 DUP2 LT ISZERO PUSH2 0xF23 JUMPI DUP2 MLOAD PUSH2 0xF0A DUP9 DUP3 PUSH2 0xEB1 JUMP JUMPDEST SWAP8 POP PUSH2 0xF15 DUP4 PUSH2 0xEC8 JUMP JUMPDEST SWAP3 POP POP PUSH1 0x1 DUP2 ADD SWAP1 POP PUSH2 0xEF6 JUMP JUMPDEST POP DUP6 SWAP4 POP POP POP POP SWAP3 SWAP2 POP POP JUMP JUMPDEST PUSH0 PUSH1 0xE0 DUP3 ADD SWAP1 POP PUSH2 0xF43 PUSH0 DUP4 ADD DUP11 PUSH2 0xE4C JUMP JUMPDEST DUP2 DUP2 SUB PUSH1 0x20 DUP4 ADD MSTORE PUSH2 0xF55 DUP2 DUP10 PUSH2 0xA2F JUMP JUMPDEST SWAP1 POP DUP2 DUP2 SUB PUSH1 0x40 DUP4 ADD MSTORE PUSH2 0xF69 DUP2 DUP9 PUSH2 0xA2F JUMP JUMPDEST SWAP1 POP PUSH2 0xF78 PUSH1 0x60 DUP4 ADD DUP8 PUSH2 0xD04 JUMP JUMPDEST PUSH2 0xF85 PUSH1 0x80 DUP4 ADD DUP7 PUSH2 0xE5B JUMP JUMPDEST PUSH2 0xF92 PUSH1 0xA0 DUP4 ADD DUP6 PUSH2 0xE6A JUMP JUMPDEST DUP2 DUP2 SUB PUSH1 0xC0 DUP4 ADD MSTORE PUSH2 0xFA4 DUP2 DUP5 PUSH2 0xED4 JUMP JUMPDEST SWAP1 POP SWAP9 SWAP8 POP POP POP POP POP POP POP POP JUMP JUMPDEST PUSH32 0x4E487B7100000000000000000000000000000000000000000000000000000000 PUSH0 MSTORE PUSH1 0x22 PUSH1 0x4 MSTORE PUSH1 0x24 PUSH0 REVERT JUMPDEST PUSH0 PUSH1 0x2 DUP3 DIV SWAP1 POP PUSH1 0x1 DUP3 AND DUP1 PUSH2 0xFF6 JUMPI PUSH1 0x7F DUP3 AND SWAP2 POP JUMPDEST PUSH1 0x20 DUP3 LT DUP2 SUB PUSH2 0x1009 JUMPI PUSH2 0x1008 PUSH2 0xFB2 JUMP JUMPDEST JUMPDEST POP SWAP2 SWAP1 POP JUMP JUMPDEST PUSH0 DUP2 MLOAD SWAP1 POP SWAP2 SWAP1 POP JUMP JUMPDEST PUSH0 DUP3 DUP3 MSTORE PUSH1 0x20 DUP3 ADD SWAP1 POP SWAP3 SWAP2 POP POP JUMP JUMPDEST PUSH0 PUSH2 0x1033 DUP3 PUSH2 0x100F JUMP JUMPDEST PUSH2 0x103D DUP2 DUP6 PUSH2 0x1019 JUMP JUMPDEST SWAP4 POP PUSH2 0x104D DUP2 DUP6 PUSH1 0x20 DUP7 ADD PUSH2 0x9F7 JUMP JUMPDEST PUSH2 0x1056 DUP2 PUSH2 0xA1F JUMP JUMPDEST DUP5 ADD SWAP2 POP POP SWAP3 SWAP2 POP POP JUMP JUMPDEST PUSH0 PUSH1 0x80 DUP3 ADD SWAP1 POP PUSH2 0x1074 PUSH0 DUP4 ADD DUP8 PUSH2 0xE5B JUMP JUMPDEST PUSH2 0x1081 PUSH1 0x20 DUP4 ADD DUP7 PUSH2 0xD04 JUMP JUMPDEST DUP2 DUP2 SUB PUSH1 0x40 DUP4 ADD MSTORE PUSH2 0x1093 DUP2 DUP6 PUSH2 0x1029 JUMP JUMPDEST SWAP1 POP PUSH2 0x10A2 PUSH1 0x60 DUP4 ADD DUP5 PUSH2 0xE6A JUMP JUMPDEST SWAP6 SWAP5 POP POP POP POP POP JUMP JUMPDEST PUSH0 DUP1 REVERT JUMPDEST PUSH0 DUP2 MLOAD SWAP1 POP PUSH2 0x10BD DUP2 PUSH2 0xAC8 JUMP JUMPDEST SWAP3 SWAP2 POP POP JUMP JUMPDEST PUSH0 PUSH2 0xFFFF DUP3 AND SWAP1 POP SWAP2 SWAP1 POP JUMP JUMPDEST PUSH2 0x10D9 DUP2 PUSH2 0x10C3 JUMP JUMPDEST DUP2 EQ PUSH2 0x10E3 JUMPI PUSH0 DUP1 REVERT JUMPDEST POP JUMP JUMPDEST PUSH0 DUP2 MLOAD SWAP1 POP PUSH2 0x10F4 DUP2 PUSH2 0x10D0 JUMP JUMPDEST SWAP3 SWAP2 POP POP JUMP JUMPDEST PUSH0 PUSH4 0xFFFFFFFF DUP3 AND SWAP1 POP SWAP2 SWAP1 POP JUMP JUMPDEST PUSH2 0x1112 DUP2 PUSH2 0x10FA JUMP JUMPDEST DUP2 EQ PUSH2 0x111C JUMPI PUSH0 DUP1 REVERT JUMPDEST POP JUMP JUMPDEST PUSH0 DUP2 MLOAD SWAP1 POP PUSH2 0x112D DUP2 PUSH2 0x1109 JUMP JUMPDEST SWAP3 SWAP2 POP POP JUMP JUMPDEST PUSH0 PUSH6 0xFFFFFFFFFFFF DUP3 AND SWAP1 POP SWAP2 SWAP1 POP JUMP JUMPDEST PUSH2 0x114D DUP2 PUSH2 0x1133 JUMP JUMPDEST DUP2 EQ PUSH2 0x1157 JUMPI PUSH0 DUP1 REVERT JUMPDEST POP JUMP JUMPDEST PUSH0 DUP2 MLOAD SWAP1 POP PUSH2 0x1168 DUP2 PUSH2 0x1144 JUMP JUMPDEST SWAP3 SWAP2 POP POP JUMP JUMPDEST PUSH0 DUP2 ISZERO ISZERO SWAP1 POP SWAP2 SWAP1 POP JUMP JUMPDEST PUSH2 0x1182 DUP2 PUSH2 0x116E JUMP JUMPDEST DUP2 EQ PUSH2 0x118C JUMPI PUSH0 DUP1 REVERT JUMPDEST POP JUMP JUMPDEST PUSH0 DUP2 MLOAD SWAP1 POP PUSH2 0x119D DUP2 PUSH2 0x1179 JUMP JUMPDEST SWAP3 SWAP2 POP POP JUMP JUMPDEST PUSH0 PUSH2 0x140 DUP3 DUP5 SUB SLT ISZERO PUSH2 0x11B9 JUMPI PUSH2 0x11B8 PUSH2 0x10AB JUMP JUMPDEST JUMPDEST PUSH2 0x11C4 PUSH2 0x140 PUSH2 0xB8B JUMP JUMPDEST SWAP1 POP PUSH0 PUSH2 0x11D3 DUP5 DUP3 DUP6 ADD PUSH2 0x10AF JUMP JUMPDEST PUSH0 DUP4 ADD MSTORE POP PUSH1 0x20 PUSH2 0x11E6 DUP5 DUP3 DUP6 ADD PUSH2 0x10AF JUMP JUMPDEST PUSH1 0x20 DUP4 ADD MSTORE POP PUSH1 0x40 PUSH2 0x11FA DUP5 DUP3 DUP6 ADD PUSH2 0x10E6 JUMP JUMPDEST PUSH1 0x40 DUP4 ADD MSTORE POP PUSH1 0x60 PUSH2 0x120E DUP5 DUP3 DUP6 ADD PUSH2 0x111F JUMP JUMPDEST PUSH1 0x60 DUP4 ADD MSTORE POP PUSH1 0x80 PUSH2 0x1222 DUP5 DUP3 DUP6 ADD PUSH2 0x115A JUMP JUMPDEST PUSH1 0x80 DUP4 ADD MSTORE POP PUSH1 0xA0 PUSH2 0x1236 DUP5 DUP3 DUP6 ADD PUSH2 0x115A JUMP JUMPDEST PUSH1 0xA0 DUP4 ADD MSTORE POP PUSH1 0xC0 PUSH2 0x124A DUP5 DUP3 DUP6 ADD PUSH2 0x118F JUMP JUMPDEST PUSH1 0xC0 DUP4 ADD MSTORE POP PUSH1 0xE0 PUSH2 0x125E DUP5 DUP3 DUP6 ADD PUSH2 0x118F JUMP JUMPDEST PUSH1 0xE0 DUP4 ADD MSTORE POP PUSH2 0x100 PUSH2 0x1273 DUP5 DUP3 DUP6 ADD PUSH2 0x118F JUMP JUMPDEST PUSH2 0x100 DUP4 ADD MSTORE POP PUSH2 0x120 PUSH2 0x1289 DUP5 DUP3 DUP6 ADD PUSH2 0x118F JUMP JUMPDEST PUSH2 0x120 DUP4 ADD MSTORE POP SWAP3 SWAP2 POP POP JUMP JUMPDEST PUSH0 PUSH2 0x140 DUP3 DUP5 SUB SLT ISZERO PUSH2 0x12AC JUMPI PUSH2 0x12AB PUSH2 0xA90 JUMP JUMPDEST JUMPDEST PUSH0 PUSH2 0x12B9 DUP5 DUP3 DUP6 ADD PUSH2 0x11A3 JUMP JUMPDEST SWAP2 POP POP SWAP3 SWAP2 POP POP JUMP JUMPDEST PUSH32 0x4E487B7100000000000000000000000000000000000000000000000000000000 PUSH0 MSTORE PUSH1 0x11 PUSH1 0x4 MSTORE PUSH1 0x24 PUSH0 REVERT JUMPDEST PUSH0 PUSH2 0x12F9 DUP3 PUSH2 0xAF2 JUMP JUMPDEST SWAP2 POP PUSH2 0x1304 DUP4 PUSH2 0xAF2 JUMP JUMPDEST SWAP3 POP DUP3 DUP3 ADD SWAP1 POP DUP1 DUP3 GT ISZERO PUSH2 0x131C JUMPI PUSH2 0x131B PUSH2 0x12C2 JUMP JUMPDEST JUMPDEST SWAP3 SWAP2 POP POP JUMP JUMPDEST PUSH0 PUSH1 0x40 DUP3 ADD SWAP1 POP PUSH2 0x1335 PUSH0 DUP4 ADD DUP6 PUSH2 0xD04 JUMP JUMPDEST PUSH2 0x1342 PUSH1 0x20 DUP4 ADD DUP5 PUSH2 0xD04 JUMP JUMPDEST SWAP4 SWAP3 POP POP POP JUMP JUMPDEST PUSH0 DUP2 SWAP1 POP SWAP3 SWAP2 POP POP JUMP JUMPDEST PUSH0 PUSH2 0x135D DUP3 PUSH2 0x100F JUMP JUMPDEST PUSH2 0x1367 DUP2 DUP6 PUSH2 0x1349 JUMP JUMPDEST SWAP4 POP PUSH2 0x1377 DUP2 DUP6 PUSH1 0x20 DUP7 ADD PUSH2 0x9F7 JUMP JUMPDEST DUP1 DUP5 ADD SWAP2 POP POP SWAP3 SWAP2 POP POP JUMP JUMPDEST PUSH0 PUSH2 0x138E DUP3 DUP5 PUSH2 0x1353 JUMP JUMPDEST SWAP2 POP DUP2 SWAP1 POP SWAP3 SWAP2 POP POP JUMP JUMPDEST PUSH0 DUP2 MLOAD SWAP1 POP PUSH2 0x13A7 DUP2 PUSH2 0xAFB JUMP JUMPDEST SWAP3 SWAP2 POP POP JUMP JUMPDEST PUSH0 PUSH1 0x20 DUP3 DUP5 SUB SLT ISZERO PUSH2 0x13C2 JUMPI PUSH2 0x13C1 PUSH2 0xA90 JUMP JUMPDEST JUMPDEST PUSH0 PUSH2 0x13CF DUP5 DUP3 DUP6 ADD PUSH2 0x1399 JUMP JUMPDEST SWAP2 POP POP SWAP3 SWAP2 POP POP JUMP JUMPDEST PUSH0 PUSH1 0x20 DUP3 ADD SWAP1 POP PUSH2 0x13EB PUSH0 DUP4 ADD DUP5 PUSH2 0xE5B JUMP JUMPDEST SWAP3 SWAP2 POP POP JUMP INVALID LOG2 PUSH5 0x6970667358 0x22 SLT KECCAK256 0xD3 0x2D MSTORE8 SWAP3 SSTORE CODECOPY 0xF MUL 0xBE 0x5D 0x4D CALLDATACOPY 0xC8 0xBF MSIZE DUP15 0xEF SWAP4 SLOAD 0xBF 0x4F STATICCALL 0xC7 CREATE2 SWAP9 0x49 GASLIMIT BASEFEE 0xC1 STATICCALL SWAP3 0xAC PUSH5 0x736F6C6343 STOP ADDMOD EQ STOP CALLER "
				},
				"gasEstimates": {
					"creation": {
						"codeDepositCost": "1031800",
						"executionCost": "infinite",
						"totalCost": "infinite"
					},
					"external": {
						"CLOCK_MODE()": "infinite",
						"Clock()": "375",
						"eip712Domain()": "infinite",
						"hashProposal(address,uint256,bytes,bytes32)": "infinite",
						"name()": "infinite",
						"setConnectors(address,address)": "infinite",
						"state(uint256)": "infinite",
						"version()": "infinite"
					},
					"internal": {
						"_voteResult(struct storageTCN.ProposalCore memory)": "infinite"
					}
				},
				"methodIdentifiers": {
					"CLOCK_MODE()": "4bf5d7e9",
					"Clock()": "5dad85c2",
					"eip712Domain()": "84b0196e",
					"hashProposal(address,uint256,bytes,bytes32)": "31d133c2",
					"name()": "06fdde03",
					"setConnectors(address,address)": "3a8512b4",
					"state(uint256)": "3e4f49e6",
					"version()": "54fd4d50"
				}
			},
			"storageLayout": {
				"storage": [
					{
						"astId": 643,
						"contract": "contracts/Governance.sol:TokenNamGovernor",
						"label": "_nameFallback",
						"offset": 0,
						"slot": "0",
						"type": "t_string_storage"
					},
					{
						"astId": 645,
						"contract": "contracts/Governance.sol:TokenNamGovernor",
						"label": "_versionFallback",
						"offset": 0,
						"slot": "1",
						"type": "t_string_storage"
					},
					{
						"astId": 2105,
						"contract": "contracts/Governance.sol:TokenNamGovernor",
						"label": "_connectors",
						"offset": 0,
						"slot": "2",
						"type": "t_mapping(t_address,t_address)"
					},
					{
						"astId": 2107,
						"contract": "contracts/Governance.sol:TokenNamGovernor",
						"label": "_name",
						"offset": 0,
						"slot": "3",
						"type": "t_string_storage"
					}
				],
				"types": {
					"t_address": {
						"encoding": "inplace",
						"label": "address",
						"numberOfBytes": "20"
					},
					"t_mapping(t_address,t_address)": {
						"encoding": "mapping",
						"key": "t_address",
						"label": "mapping(address => address)",
						"numberOfBytes": "32",
						"value": "t_address"
					},
					"t_string_storage": {
						"encoding": "bytes",
						"label": "string",
						"numberOfBytes": "32"
					}
				}
			},
			"userdoc": {
				"kind": "user",
				"methods": {},
				"version": 1
			}
		}
	}
}