{
	"contracts/authority.sol": {
		"Authority": {
			"abi": [
				{
					"inputs": [],
					"stateMutability": "nonpayable",
					"type": "constructor"
				},
				{
					"inputs": [],
					"name": "AccessOnlyForThePendigPresident",
					"type": "error"
				},
				{
					"inputs": [
						{
							"internalType": "address",
							"name": "NewGCAddress",
							"type": "address"
						}
					],
					"name": "TheAddressIsNotValidForGC",
					"type": "error"
				},
				{
					"anonymous": false,
					"inputs": [
						{
							"indexed": true,
							"internalType": "address",
							"name": "GCAddress",
							"type": "address"
						},
						{
							"indexed": true,
							"internalType": "uint32",
							"name": "version",
							"type": "uint32"
						}
					],
					"name": "TheNewGCAddressWasConfirmed",
					"type": "event"
				},
				{
					"anonymous": false,
					"inputs": [
						{
							"indexed": true,
							"internalType": "address",
							"name": "presidentAdd",
							"type": "address"
						},
						{
							"indexed": true,
							"internalType": "uint32",
							"name": "nonce",
							"type": "uint32"
						}
					],
					"name": "TheNewPresidentWasConfirmed",
					"type": "event"
				},
				{
					"anonymous": false,
					"inputs": [
						{
							"indexed": true,
							"internalType": "address",
							"name": "newGCAddress",
							"type": "address"
						}
					],
					"name": "TheNextGCAddressWasElected",
					"type": "event"
				},
				{
					"anonymous": false,
					"inputs": [
						{
							"indexed": true,
							"internalType": "address",
							"name": "newPresidentAdd",
							"type": "address"
						}
					],
					"name": "TheNextPresidentWasElected",
					"type": "event"
				},
				{
					"anonymous": false,
					"inputs": [
						{
							"indexed": true,
							"internalType": "bool",
							"name": "baned",
							"type": "bool"
						},
						{
							"indexed": true,
							"internalType": "bool",
							"name": "done",
							"type": "bool"
						}
					],
					"name": "TheStatusOfBanningAllActivitiesAndDone",
					"type": "event"
				},
				{
					"inputs": [],
					"name": "getAuthorityAddress",
					"outputs": [
						{
							"internalType": "address",
							"name": "",
							"type": "address"
						}
					],
					"stateMutability": "view",
					"type": "function"
				},
				{
					"inputs": [],
					"name": "getGovernance",
					"outputs": [
						{
							"internalType": "address",
							"name": "",
							"type": "address"
						}
					],
					"stateMutability": "view",
					"type": "function"
				},
				{
					"inputs": [],
					"name": "getPresidentAdd",
					"outputs": [
						{
							"internalType": "address",
							"name": "",
							"type": "address"
						}
					],
					"stateMutability": "view",
					"type": "function"
				},
				{
					"inputs": [],
					"name": "getPresidentBan",
					"outputs": [
						{
							"internalType": "bool",
							"name": "",
							"type": "bool"
						}
					],
					"stateMutability": "view",
					"type": "function"
				},
				{
					"inputs": [],
					"name": "getRepublic_GAddress",
					"outputs": [
						{
							"internalType": "address",
							"name": "RG",
							"type": "address"
						}
					],
					"stateMutability": "view",
					"type": "function"
				},
				{
					"inputs": [],
					"name": "getgovernanceVersion",
					"outputs": [
						{
							"internalType": "uint32",
							"name": "",
							"type": "uint32"
						}
					],
					"stateMutability": "view",
					"type": "function"
				},
				{
					"inputs": [
						{
							"internalType": "address",
							"name": "newPresident",
							"type": "address"
						}
					],
					"name": "setPendigPresident",
					"outputs": [],
					"stateMutability": "nonpayable",
					"type": "function"
				},
				{
					"inputs": [
						{
							"internalType": "address",
							"name": "newGCAddress",
							"type": "address"
						}
					],
					"name": "setPendingGovernanceContractAddress",
					"outputs": [],
					"stateMutability": "nonpayable",
					"type": "function"
				},
				{
					"inputs": [
						{
							"internalType": "bool",
							"name": "baned",
							"type": "bool"
						}
					],
					"name": "setPresidentBaned",
					"outputs": [],
					"stateMutability": "nonpayable",
					"type": "function"
				},
				{
					"inputs": [
						{
							"internalType": "address",
							"name": "pendingGCAdd",
							"type": "address"
						}
					],
					"name": "transferGovernanceContractAddress",
					"outputs": [],
					"stateMutability": "nonpayable",
					"type": "function"
				},
				{
					"inputs": [],
					"name": "transferPresident",
					"outputs": [],
					"stateMutability": "nonpayable",
					"type": "function"
				}
			],
			"devdoc": {
				"kind": "dev",
				"methods": {},
				"version": 1
			},
			"evm": {
				"assembly": "    /* \"contracts/authority.sol\":242:3933  contract Authority is Republic_S {... */\n  mstore(0x40, 0xa0)\n    /* \"contracts/authority.sol\":1536:1681  constructor() {... */\n  callvalue\n  dup1\n  iszero\n  tag_1\n  jumpi\n  0x00\n  dup1\n  revert\ntag_1:\n  pop\n    /* \"contracts/authority.sol\":1602:1611  4400 days */\n  0x16a8c800\n    /* \"contracts/authority.sol\":1584:1599  block.timestamp */\n  timestamp\n    /* \"contracts/authority.sol\":1584:1611  block.timestamp + 4400 days */\n  tag_4\n  swap2\n  swap1\n  tag_5\n  jump\t// in\ntag_4:\n    /* \"contracts/authority.sol\":1557:1612  TimeFirstElection = uint48(block.timestamp + 4400 days) */\n  0xffffffffffff\n  and\n  0x80\n  dup2\n  0xffffffffffff\n  and\n  dup2\n  mstore\n  pop\n  pop\n    /* \"contracts/authority.sol\":1639:1649  msg.sender */\n  caller\n    /* \"contracts/authority.sol\":1619:1629  _president */\n  0x03\n    /* \"contracts/authority.sol\":1619:1636  _president.rolAdd */\n  0x00\n  add\n  0x00\n    /* \"contracts/authority.sol\":1619:1649  _president.rolAdd = msg.sender */\n  0x0100\n  exp\n  dup2\n  sload\n  dup2\n  0xffffffffffffffffffffffffffffffffffffffff\n  mul\n  not\n  and\n  swap1\n  dup4\n  0xffffffffffffffffffffffffffffffffffffffff\n  and\n  mul\n  or\n  swap1\n  sstore\n  pop\n    /* \"contracts/authority.sol\":1656:1666  _president */\n  0x03\n    /* \"contracts/authority.sol\":1656:1672  _president.nonce */\n  0x00\n  add\n  0x15\n    /* \"contracts/authority.sol\":1656:1674  _president.nonce++ */\n  dup2\n  dup2\n  swap1\n  sload\n  swap1\n  0x0100\n  exp\n  swap1\n  div\n  0xffffffff\n  and\n  dup1\n  swap3\n  swap2\n  swap1\n  tag_6\n  swap1\n  tag_7\n  jump\t// in\ntag_6:\n  swap2\n  swap1\n  0x0100\n  exp\n  dup2\n  sload\n  dup2\n  0xffffffff\n  mul\n  not\n  and\n  swap1\n  dup4\n  0xffffffff\n  and\n  mul\n  or\n  swap1\n  sstore\n  pop\n  pop\n    /* \"contracts/authority.sol\":242:3933  contract Authority is Republic_S {... */\n  jump(tag_8)\n    /* \"#utility.yul\":7:84   */\ntag_9:\n    /* \"#utility.yul\":44:51   */\n  0x00\n    /* \"#utility.yul\":73:78   */\n  dup2\n    /* \"#utility.yul\":62:78   */\n  swap1\n  pop\n    /* \"#utility.yul\":7:84   */\n  swap2\n  swap1\n  pop\n  jump\t// out\n    /* \"#utility.yul\":90:270   */\ntag_10:\n    /* \"#utility.yul\":138:215   */\n  0x4e487b7100000000000000000000000000000000000000000000000000000000\n    /* \"#utility.yul\":135:136   */\n  0x00\n    /* \"#utility.yul\":128:216   */\n  mstore\n    /* \"#utility.yul\":235:239   */\n  0x11\n    /* \"#utility.yul\":232:233   */\n  0x04\n    /* \"#utility.yul\":225:240   */\n  mstore\n    /* \"#utility.yul\":259:263   */\n  0x24\n    /* \"#utility.yul\":256:257   */\n  0x00\n    /* \"#utility.yul\":249:264   */\n  revert\n    /* \"#utility.yul\":276:467   */\ntag_5:\n    /* \"#utility.yul\":316:319   */\n  0x00\n    /* \"#utility.yul\":335:355   */\n  tag_16\n    /* \"#utility.yul\":353:354   */\n  dup3\n    /* \"#utility.yul\":335:355   */\n  tag_9\n  jump\t// in\ntag_16:\n    /* \"#utility.yul\":330:355   */\n  swap2\n  pop\n    /* \"#utility.yul\":369:389   */\n  tag_17\n    /* \"#utility.yul\":387:388   */\n  dup4\n    /* \"#utility.yul\":369:389   */\n  tag_9\n  jump\t// in\ntag_17:\n    /* \"#utility.yul\":364:389   */\n  swap3\n  pop\n    /* \"#utility.yul\":412:413   */\n  dup3\n    /* \"#utility.yul\":409:410   */\n  dup3\n    /* \"#utility.yul\":405:414   */\n  add\n    /* \"#utility.yul\":398:414   */\n  swap1\n  pop\n    /* \"#utility.yul\":433:436   */\n  dup1\n    /* \"#utility.yul\":430:431   */\n  dup3\n    /* \"#utility.yul\":427:437   */\n  gt\n    /* \"#utility.yul\":424:460   */\n  iszero\n  tag_18\n  jumpi\n    /* \"#utility.yul\":440:458   */\n  tag_19\n  tag_10\n  jump\t// in\ntag_19:\n    /* \"#utility.yul\":424:460   */\ntag_18:\n    /* \"#utility.yul\":276:467   */\n  swap3\n  swap2\n  pop\n  pop\n  jump\t// out\n    /* \"#utility.yul\":473:566   */\ntag_11:\n    /* \"#utility.yul\":509:516   */\n  0x00\n    /* \"#utility.yul\":549:559   */\n  0xffffffff\n    /* \"#utility.yul\":542:547   */\n  dup3\n    /* \"#utility.yul\":538:560   */\n  and\n    /* \"#utility.yul\":527:560   */\n  swap1\n  pop\n    /* \"#utility.yul\":473:566   */\n  swap2\n  swap1\n  pop\n  jump\t// out\n    /* \"#utility.yul\":572:747   */\ntag_7:\n    /* \"#utility.yul\":610:613   */\n  0x00\n    /* \"#utility.yul\":633:656   */\n  tag_22\n    /* \"#utility.yul\":650:655   */\n  dup3\n    /* \"#utility.yul\":633:656   */\n  tag_11\n  jump\t// in\ntag_22:\n    /* \"#utility.yul\":624:656   */\n  swap2\n  pop\n    /* \"#utility.yul\":678:688   */\n  0xffffffff\n    /* \"#utility.yul\":671:676   */\n  dup3\n    /* \"#utility.yul\":668:689   */\n  sub\n    /* \"#utility.yul\":665:712   */\n  tag_23\n  jumpi\n    /* \"#utility.yul\":692:710   */\n  tag_24\n  tag_10\n  jump\t// in\ntag_24:\n    /* \"#utility.yul\":665:712   */\ntag_23:\n    /* \"#utility.yul\":739:740   */\n  0x01\n    /* \"#utility.yul\":732:737   */\n  dup3\n    /* \"#utility.yul\":728:741   */\n  add\n    /* \"#utility.yul\":721:741   */\n  swap1\n  pop\n    /* \"#utility.yul\":572:747   */\n  swap2\n  swap1\n  pop\n  jump\t// out\n    /* \"contracts/authority.sol\":242:3933  contract Authority is Republic_S {... */\ntag_8:\n  mload(0x80)\n  codecopy(0x00, dataOffset(sub_0), dataSize(sub_0))\n  0x00\n  assignImmutable(\"0x646d998f946f968f0675fd4e3cb527e1222094ea0d9cc1fd615146a8fe29802e\")\n  return(0x00, dataSize(sub_0))\nstop\n\nsub_0: assembly {\n        /* \"contracts/authority.sol\":242:3933  contract Authority is Republic_S {... */\n      mstore(0x40, 0x80)\n      callvalue\n      dup1\n      iszero\n      tag_1\n      jumpi\n      0x00\n      dup1\n      revert\n    tag_1:\n      pop\n      jumpi(tag_2, lt(calldatasize, 0x04))\n      shr(0xe0, calldataload(0x00))\n      dup1\n      0x6cf106d7\n      gt\n      tag_14\n      jumpi\n      dup1\n      0x6cf106d7\n      eq\n      tag_8\n      jumpi\n      dup1\n      0xb5c09c68\n      eq\n      tag_9\n      jumpi\n      dup1\n      0xc387b49c\n      eq\n      tag_10\n      jumpi\n      dup1\n      0xca4cce68\n      eq\n      tag_11\n      jumpi\n      dup1\n      0xe47a9d46\n      eq\n      tag_12\n      jumpi\n      dup1\n      0xee7126c3\n      eq\n      tag_13\n      jumpi\n      jump(tag_2)\n    tag_14:\n      dup1\n      0x054203bd\n      eq\n      tag_3\n      jumpi\n      dup1\n      0x0df4c390\n      eq\n      tag_4\n      jumpi\n      dup1\n      0x289b3c0d\n      eq\n      tag_5\n      jumpi\n      dup1\n      0x4c7ac835\n      eq\n      tag_6\n      jumpi\n      dup1\n      0x66410997\n      eq\n      tag_7\n      jumpi\n    tag_2:\n      0x00\n      dup1\n      revert\n        /* \"contracts/authority.sol\":1797:1966  function setPendigPresident(address newPresident) public onlyRepublic {... */\n    tag_3:\n      tag_15\n      0x04\n      dup1\n      calldatasize\n      sub\n      dup2\n      add\n      swap1\n      tag_16\n      swap2\n      swap1\n      tag_17\n      jump\t// in\n    tag_16:\n      tag_18\n      jump\t// in\n    tag_15:\n      stop\n        /* \"contracts/authority.sol\":1973:2383  function transferPresident() public {... */\n    tag_4:\n      tag_19\n      tag_20\n      jump\t// in\n    tag_19:\n      stop\n        /* \"contracts/authority.sol\":3294:3388  function getGovernance() public view returns (address) {... */\n    tag_5:\n      tag_21\n      tag_22\n      jump\t// in\n    tag_21:\n      mload(0x40)\n      tag_23\n      swap2\n      swap1\n      tag_24\n      jump\t// in\n    tag_23:\n      mload(0x40)\n      dup1\n      swap2\n      sub\n      swap1\n      return\n        /* \"contracts/Republic_S.sol\":142:250  function getRepublic_GAddress() public view returns (address RG) {... */\n    tag_6:\n      tag_25\n      tag_26\n      jump\t// in\n    tag_25:\n      mload(0x40)\n      tag_27\n      swap2\n      swap1\n      tag_24\n      jump\t// in\n    tag_27:\n      mload(0x40)\n      dup1\n      swap2\n      sub\n      swap1\n      return\n        /* \"contracts/authority.sol\":2390:2485  function getPresidentAdd() public view returns (address) {... */\n    tag_7:\n      tag_28\n      tag_29\n      jump\t// in\n    tag_28:\n      mload(0x40)\n      tag_30\n      swap2\n      swap1\n      tag_24\n      jump\t// in\n    tag_30:\n      mload(0x40)\n      dup1\n      swap2\n      sub\n      swap1\n      return\n        /* \"contracts/authority.sol\":2492:2583  function getPresidentBan() public view returns (bool) {... */\n    tag_8:\n      tag_31\n      tag_32\n      jump\t// in\n    tag_31:\n      mload(0x40)\n      tag_33\n      swap2\n      swap1\n      tag_34\n      jump\t// in\n    tag_33:\n      mload(0x40)\n      dup1\n      swap2\n      sub\n      swap1\n      return\n        /* \"contracts/authority.sol\":3501:3599  function setPresidentBaned(bool baned) public onlyRepublic {... */\n    tag_9:\n      tag_35\n      0x04\n      dup1\n      calldatasize\n      sub\n      dup2\n      add\n      swap1\n      tag_36\n      swap2\n      swap1\n      tag_37\n      jump\t// in\n    tag_36:\n      tag_38\n      jump\t// in\n    tag_35:\n      stop\n        /* \"contracts/authority.sol\":3395:3494  function getgovernanceVersion() public view returns (uint32) {... */\n    tag_10:\n      tag_39\n      tag_40\n      jump\t// in\n    tag_39:\n      mload(0x40)\n      tag_41\n      swap2\n      swap1\n      tag_42\n      jump\t// in\n    tag_41:\n      mload(0x40)\n      dup1\n      swap2\n      sub\n      swap1\n      return\n        /* \"contracts/authority.sol\":2590:2888  function setPendingGovernanceContractAddress(address newGCAddress) public onlyRepublic {... */\n    tag_11:\n      tag_43\n      0x04\n      dup1\n      calldatasize\n      sub\n      dup2\n      add\n      swap1\n      tag_44\n      swap2\n      swap1\n      tag_17\n      jump\t// in\n    tag_44:\n      tag_45\n      jump\t// in\n    tag_43:\n      stop\n        /* \"contracts/authority.sol\":1689:1790  function getAuthorityAddress() public view returns (address) {... */\n    tag_12:\n      tag_46\n      tag_47\n      jump\t// in\n    tag_46:\n      mload(0x40)\n      tag_48\n      swap2\n      swap1\n      tag_24\n      jump\t// in\n    tag_48:\n      mload(0x40)\n      dup1\n      swap2\n      sub\n      swap1\n      return\n        /* \"contracts/authority.sol\":2895:3287  function transferGovernanceContractAddress(address pendingGCAdd) public onlyPresident {... */\n    tag_13:\n      tag_49\n      0x04\n      dup1\n      calldatasize\n      sub\n      dup2\n      add\n      swap1\n      tag_50\n      swap2\n      swap1\n      tag_17\n      jump\t// in\n    tag_50:\n      tag_51\n      jump\t// in\n    tag_49:\n      stop\n        /* \"contracts/authority.sol\":1797:1966  function setPendigPresident(address newPresident) public onlyRepublic {... */\n    tag_18:\n        /* \"contracts/authority.sol\":1176:1191  block.timestamp */\n      timestamp\n        /* \"contracts/authority.sol\":1156:1173  TimeFirstElection */\n      immutable(\"0x646d998f946f968f0675fd4e3cb527e1222094ea0d9cc1fd615146a8fe29802e\")\n        /* \"contracts/authority.sol\":1156:1191  TimeFirstElection < block.timestamp */\n      0xffffffffffff\n      and\n      lt\n        /* \"contracts/authority.sol\":1152:1372  if (TimeFirstElection < block.timestamp) {... */\n      iszero\n      tag_53\n      jumpi\n        /* \"contracts/authority.sol\":1226:1248  getRepublic_GAddress() */\n      tag_54\n        /* \"contracts/authority.sol\":1226:1246  getRepublic_GAddress */\n      tag_26\n        /* \"contracts/authority.sol\":1226:1248  getRepublic_GAddress() */\n      jump\t// in\n    tag_54:\n        /* \"contracts/authority.sol\":1212:1248  msg.sender == getRepublic_GAddress() */\n      0xffffffffffffffffffffffffffffffffffffffff\n      and\n        /* \"contracts/authority.sol\":1212:1222  msg.sender */\n      caller\n        /* \"contracts/authority.sol\":1212:1248  msg.sender == getRepublic_GAddress() */\n      0xffffffffffffffffffffffffffffffffffffffff\n      and\n      eq\n        /* \"contracts/authority.sol\":1204:1272  require(msg.sender == getRepublic_GAddress(), \"Access is not valid\") */\n      tag_55\n      jumpi\n      mload(0x40)\n      0x08c379a000000000000000000000000000000000000000000000000000000000\n      dup2\n      mstore\n      0x04\n      add\n      tag_56\n      swap1\n      tag_57\n      jump\t// in\n    tag_56:\n      mload(0x40)\n      dup1\n      swap2\n      sub\n      swap1\n      revert\n    tag_55:\n        /* \"contracts/authority.sol\":1152:1372  if (TimeFirstElection < block.timestamp) {... */\n      jump(tag_58)\n    tag_53:\n        /* \"contracts/authority.sol\":1310:1327  getPresidentAdd() */\n      tag_59\n        /* \"contracts/authority.sol\":1310:1325  getPresidentAdd */\n      tag_29\n        /* \"contracts/authority.sol\":1310:1327  getPresidentAdd() */\n      jump\t// in\n    tag_59:\n        /* \"contracts/authority.sol\":1296:1327  msg.sender == getPresidentAdd() */\n      0xffffffffffffffffffffffffffffffffffffffff\n      and\n        /* \"contracts/authority.sol\":1296:1306  msg.sender */\n      caller\n        /* \"contracts/authority.sol\":1296:1327  msg.sender == getPresidentAdd() */\n      0xffffffffffffffffffffffffffffffffffffffff\n      and\n      eq\n        /* \"contracts/authority.sol\":1296:1348  msg.sender == getPresidentAdd() && getPresidentBan() */\n      dup1\n      iszero\n      tag_60\n      jumpi\n      pop\n        /* \"contracts/authority.sol\":1331:1348  getPresidentBan() */\n      tag_61\n        /* \"contracts/authority.sol\":1331:1346  getPresidentBan */\n      tag_32\n        /* \"contracts/authority.sol\":1331:1348  getPresidentBan() */\n      jump\t// in\n    tag_61:\n        /* \"contracts/authority.sol\":1296:1348  msg.sender == getPresidentAdd() && getPresidentBan() */\n    tag_60:\n        /* \"contracts/authority.sol\":1288:1372  require(msg.sender == getPresidentAdd() && getPresidentBan(), \"Access is not valid\") */\n      tag_62\n      jumpi\n      mload(0x40)\n      0x08c379a000000000000000000000000000000000000000000000000000000000\n      dup2\n      mstore\n      0x04\n      add\n      tag_63\n      swap1\n      tag_57\n      jump\t// in\n    tag_63:\n      mload(0x40)\n      dup1\n      swap2\n      sub\n      swap1\n      revert\n    tag_62:\n        /* \"contracts/authority.sol\":1152:1372  if (TimeFirstElection < block.timestamp) {... */\n    tag_58:\n        /* \"contracts/authority.sol\":1893:1905  newPresident */\n      dup1\n        /* \"contracts/authority.sol\":1874:1890  _pendigPresident */\n      0x02\n      0x00\n        /* \"contracts/authority.sol\":1874:1905  _pendigPresident = newPresident */\n      0x0100\n      exp\n      dup2\n      sload\n      dup2\n      0xffffffffffffffffffffffffffffffffffffffff\n      mul\n      not\n      and\n      swap1\n      dup4\n      0xffffffffffffffffffffffffffffffffffffffff\n      and\n      mul\n      or\n      swap1\n      sstore\n      pop\n        /* \"contracts/authority.sol\":1946:1958  newPresident */\n      dup1\n        /* \"contracts/authority.sol\":1919:1959  TheNextPresidentWasElected(newPresident) */\n      0xffffffffffffffffffffffffffffffffffffffff\n      and\n      0x3553f1f7ef0242113266a8d183b621bb87468c99237f36b1150b6ab3d688b686\n      mload(0x40)\n      mload(0x40)\n      dup1\n      swap2\n      sub\n      swap1\n      log2\n        /* \"contracts/authority.sol\":1797:1966  function setPendigPresident(address newPresident) public onlyRepublic {... */\n      pop\n      jump\t// out\n        /* \"contracts/authority.sol\":1973:2383  function transferPresident() public {... */\n    tag_20:\n        /* \"contracts/authority.sol\":2040:2050  msg.sender */\n      caller\n        /* \"contracts/authority.sol\":2020:2050  _pendigPresident == msg.sender */\n      0xffffffffffffffffffffffffffffffffffffffff\n      and\n        /* \"contracts/authority.sol\":2020:2036  _pendigPresident */\n      0x02\n      0x00\n      swap1\n      sload\n      swap1\n      0x0100\n      exp\n      swap1\n      div\n      0xffffffffffffffffffffffffffffffffffffffff\n      and\n        /* \"contracts/authority.sol\":2020:2050  _pendigPresident == msg.sender */\n      0xffffffffffffffffffffffffffffffffffffffff\n      and\n      sub\n        /* \"contracts/authority.sol\":2016:2376  if (_pendigPresident == msg.sender) {... */\n      tag_66\n      jumpi\n        /* \"contracts/authority.sol\":2070:2086  _pendigPresident */\n      0x02\n      0x00\n        /* \"contracts/authority.sol\":2063:2086  delete _pendigPresident */\n      0x0100\n      exp\n      dup2\n      sload\n      swap1\n      0xffffffffffffffffffffffffffffffffffffffff\n      mul\n      not\n      and\n      swap1\n      sstore\n        /* \"contracts/authority.sol\":2117:2127  msg.sender */\n      caller\n        /* \"contracts/authority.sol\":2097:2107  _president */\n      0x03\n        /* \"contracts/authority.sol\":2097:2114  _president.rolAdd */\n      0x00\n      add\n      0x00\n        /* \"contracts/authority.sol\":2097:2127  _president.rolAdd = msg.sender */\n      0x0100\n      exp\n      dup2\n      sload\n      dup2\n      0xffffffffffffffffffffffffffffffffffffffff\n      mul\n      not\n      and\n      swap1\n      dup4\n      0xffffffffffffffffffffffffffffffffffffffff\n      and\n      mul\n      or\n      swap1\n      sstore\n      pop\n        /* \"contracts/authority.sol\":2138:2148  _president */\n      0x03\n        /* \"contracts/authority.sol\":2138:2154  _president.nonce */\n      0x00\n      add\n      0x15\n        /* \"contracts/authority.sol\":2138:2156  _president.nonce++ */\n      dup2\n      dup2\n      swap1\n      sload\n      swap1\n      0x0100\n      exp\n      swap1\n      div\n      0xffffffff\n      and\n      dup1\n      swap3\n      swap2\n      swap1\n      tag_67\n      swap1\n      tag_68\n      jump\t// in\n    tag_67:\n      swap2\n      swap1\n      0x0100\n      exp\n      dup2\n      sload\n      dup2\n      0xffffffff\n      mul\n      not\n      and\n      swap1\n      dup4\n      0xffffffff\n      and\n      mul\n      or\n      swap1\n      sstore\n      pop\n      pop\n        /* \"contracts/authority.sol\":2171:2181  _president */\n      0x03\n        /* \"contracts/authority.sol\":2171:2187  _president.baned */\n      0x00\n      add\n      0x14\n      swap1\n      sload\n      swap1\n      0x0100\n      exp\n      swap1\n      div\n      0xff\n      and\n        /* \"contracts/authority.sol\":2167:2241  if (_president.baned){... */\n      iszero\n      tag_69\n      jumpi\n        /* \"contracts/authority.sol\":2204:2229  _setPresidentBaned(false) */\n      tag_70\n        /* \"contracts/authority.sol\":2223:2228  false */\n      0x00\n        /* \"contracts/authority.sol\":2204:2222  _setPresidentBaned */\n      tag_71\n        /* \"contracts/authority.sol\":2204:2229  _setPresidentBaned(false) */\n      jump\t// in\n    tag_70:\n        /* \"contracts/authority.sol\":2167:2241  if (_president.baned){... */\n    tag_69:\n        /* \"contracts/authority.sol\":2303:2313  _president */\n      0x03\n        /* \"contracts/authority.sol\":2303:2319  _president.nonce */\n      0x00\n      add\n      0x15\n      swap1\n      sload\n      swap1\n      0x0100\n      exp\n      swap1\n      div\n      0xffffffff\n      and\n        /* \"contracts/authority.sol\":2256:2320  TheNewPresidentWasConfirmed(_president.rolAdd, _president.nonce) */\n      0xffffffff\n      and\n        /* \"contracts/authority.sol\":2284:2294  _president */\n      0x03\n        /* \"contracts/authority.sol\":2284:2301  _president.rolAdd */\n      0x00\n      add\n      0x00\n      swap1\n      sload\n      swap1\n      0x0100\n      exp\n      swap1\n      div\n      0xffffffffffffffffffffffffffffffffffffffff\n      and\n        /* \"contracts/authority.sol\":2256:2320  TheNewPresidentWasConfirmed(_president.rolAdd, _president.nonce) */\n      0xffffffffffffffffffffffffffffffffffffffff\n      and\n      0x05ad9b3688012cd825c1bfb941e4f5afb2558af6af3deaddf01dbb5e85abdaf9\n      mload(0x40)\n      mload(0x40)\n      dup1\n      swap2\n      sub\n      swap1\n      log3\n        /* \"contracts/authority.sol\":2016:2376  if (_pendigPresident == msg.sender) {... */\n      jump(tag_72)\n    tag_66:\n        /* \"contracts/authority.sol\":2343:2376  AccessOnlyForThePendigPresident() */\n      mload(0x40)\n      0xb513955100000000000000000000000000000000000000000000000000000000\n      dup2\n      mstore\n      0x04\n      add\n      mload(0x40)\n      dup1\n      swap2\n      sub\n      swap1\n      revert\n        /* \"contracts/authority.sol\":2016:2376  if (_pendigPresident == msg.sender) {... */\n    tag_72:\n        /* \"contracts/authority.sol\":1973:2383  function transferPresident() public {... */\n      jump\t// out\n        /* \"contracts/authority.sol\":3294:3388  function getGovernance() public view returns (address) {... */\n    tag_22:\n        /* \"contracts/authority.sol\":3340:3347  address */\n      0x00\n        /* \"contracts/authority.sol\":3363:3374  _governance */\n      0x04\n        /* \"contracts/authority.sol\":3363:3381  _governance.rolAdd */\n      0x00\n      add\n      0x00\n      swap1\n      sload\n      swap1\n      0x0100\n      exp\n      swap1\n      div\n      0xffffffffffffffffffffffffffffffffffffffff\n      and\n        /* \"contracts/authority.sol\":3356:3381  return _governance.rolAdd */\n      swap1\n      pop\n        /* \"contracts/authority.sol\":3294:3388  function getGovernance() public view returns (address) {... */\n      swap1\n      jump\t// out\n        /* \"contracts/Republic_S.sol\":142:250  function getRepublic_GAddress() public view returns (address RG) {... */\n    tag_26:\n        /* \"contracts/Republic_S.sol\":195:205  address RG */\n      0x00\n        /* \"contracts/Republic_S.sol\":225:242  _RepublicGAddress */\n      dup1\n      0x00\n      swap1\n      sload\n      swap1\n      0x0100\n      exp\n      swap1\n      div\n      0xffffffffffffffffffffffffffffffffffffffff\n      and\n        /* \"contracts/Republic_S.sol\":218:242  return _RepublicGAddress */\n      swap1\n      pop\n        /* \"contracts/Republic_S.sol\":142:250  function getRepublic_GAddress() public view returns (address RG) {... */\n      swap1\n      jump\t// out\n        /* \"contracts/authority.sol\":2390:2485  function getPresidentAdd() public view returns (address) {... */\n    tag_29:\n        /* \"contracts/authority.sol\":2438:2445  address */\n      0x00\n        /* \"contracts/authority.sol\":2461:2471  _president */\n      0x03\n        /* \"contracts/authority.sol\":2461:2478  _president.rolAdd */\n      0x00\n      add\n      0x00\n      swap1\n      sload\n      swap1\n      0x0100\n      exp\n      swap1\n      div\n      0xffffffffffffffffffffffffffffffffffffffff\n      and\n        /* \"contracts/authority.sol\":2454:2478  return _president.rolAdd */\n      swap1\n      pop\n        /* \"contracts/authority.sol\":2390:2485  function getPresidentAdd() public view returns (address) {... */\n      swap1\n      jump\t// out\n        /* \"contracts/authority.sol\":2492:2583  function getPresidentBan() public view returns (bool) {... */\n    tag_32:\n        /* \"contracts/authority.sol\":2540:2544  bool */\n      0x00\n        /* \"contracts/authority.sol\":2560:2570  _president */\n      0x03\n        /* \"contracts/authority.sol\":2560:2576  _president.baned */\n      0x00\n      add\n      0x14\n      swap1\n      sload\n      swap1\n      0x0100\n      exp\n      swap1\n      div\n      0xff\n      and\n        /* \"contracts/authority.sol\":2553:2576  return _president.baned */\n      swap1\n      pop\n        /* \"contracts/authority.sol\":2492:2583  function getPresidentBan() public view returns (bool) {... */\n      swap1\n      jump\t// out\n        /* \"contracts/authority.sol\":3501:3599  function setPresidentBaned(bool baned) public onlyRepublic {... */\n    tag_38:\n        /* \"contracts/authority.sol\":1176:1191  block.timestamp */\n      timestamp\n        /* \"contracts/authority.sol\":1156:1173  TimeFirstElection */\n      immutable(\"0x646d998f946f968f0675fd4e3cb527e1222094ea0d9cc1fd615146a8fe29802e\")\n        /* \"contracts/authority.sol\":1156:1191  TimeFirstElection < block.timestamp */\n      0xffffffffffff\n      and\n      lt\n        /* \"contracts/authority.sol\":1152:1372  if (TimeFirstElection < block.timestamp) {... */\n      iszero\n      tag_78\n      jumpi\n        /* \"contracts/authority.sol\":1226:1248  getRepublic_GAddress() */\n      tag_79\n        /* \"contracts/authority.sol\":1226:1246  getRepublic_GAddress */\n      tag_26\n        /* \"contracts/authority.sol\":1226:1248  getRepublic_GAddress() */\n      jump\t// in\n    tag_79:\n        /* \"contracts/authority.sol\":1212:1248  msg.sender == getRepublic_GAddress() */\n      0xffffffffffffffffffffffffffffffffffffffff\n      and\n        /* \"contracts/authority.sol\":1212:1222  msg.sender */\n      caller\n        /* \"contracts/authority.sol\":1212:1248  msg.sender == getRepublic_GAddress() */\n      0xffffffffffffffffffffffffffffffffffffffff\n      and\n      eq\n        /* \"contracts/authority.sol\":1204:1272  require(msg.sender == getRepublic_GAddress(), \"Access is not valid\") */\n      tag_80\n      jumpi\n      mload(0x40)\n      0x08c379a000000000000000000000000000000000000000000000000000000000\n      dup2\n      mstore\n      0x04\n      add\n      tag_81\n      swap1\n      tag_57\n      jump\t// in\n    tag_81:\n      mload(0x40)\n      dup1\n      swap2\n      sub\n      swap1\n      revert\n    tag_80:\n        /* \"contracts/authority.sol\":1152:1372  if (TimeFirstElection < block.timestamp) {... */\n      jump(tag_82)\n    tag_78:\n        /* \"contracts/authority.sol\":1310:1327  getPresidentAdd() */\n      tag_83\n        /* \"contracts/authority.sol\":1310:1325  getPresidentAdd */\n      tag_29\n        /* \"contracts/authority.sol\":1310:1327  getPresidentAdd() */\n      jump\t// in\n    tag_83:\n        /* \"contracts/authority.sol\":1296:1327  msg.sender == getPresidentAdd() */\n      0xffffffffffffffffffffffffffffffffffffffff\n      and\n        /* \"contracts/authority.sol\":1296:1306  msg.sender */\n      caller\n        /* \"contracts/authority.sol\":1296:1327  msg.sender == getPresidentAdd() */\n      0xffffffffffffffffffffffffffffffffffffffff\n      and\n      eq\n        /* \"contracts/authority.sol\":1296:1348  msg.sender == getPresidentAdd() && getPresidentBan() */\n      dup1\n      iszero\n      tag_84\n      jumpi\n      pop\n        /* \"contracts/authority.sol\":1331:1348  getPresidentBan() */\n      tag_85\n        /* \"contracts/authority.sol\":1331:1346  getPresidentBan */\n      tag_32\n        /* \"contracts/authority.sol\":1331:1348  getPresidentBan() */\n      jump\t// in\n    tag_85:\n        /* \"contracts/authority.sol\":1296:1348  msg.sender == getPresidentAdd() && getPresidentBan() */\n    tag_84:\n        /* \"contracts/authority.sol\":1288:1372  require(msg.sender == getPresidentAdd() && getPresidentBan(), \"Access is not valid\") */\n      tag_86\n      jumpi\n      mload(0x40)\n      0x08c379a000000000000000000000000000000000000000000000000000000000\n      dup2\n      mstore\n      0x04\n      add\n      tag_87\n      swap1\n      tag_57\n      jump\t// in\n    tag_87:\n      mload(0x40)\n      dup1\n      swap2\n      sub\n      swap1\n      revert\n    tag_86:\n        /* \"contracts/authority.sol\":1152:1372  if (TimeFirstElection < block.timestamp) {... */\n    tag_82:\n        /* \"contracts/authority.sol\":3567:3592  _setPresidentBaned(baned) */\n      tag_89\n        /* \"contracts/authority.sol\":3586:3591  baned */\n      dup2\n        /* \"contracts/authority.sol\":3567:3585  _setPresidentBaned */\n      tag_71\n        /* \"contracts/authority.sol\":3567:3592  _setPresidentBaned(baned) */\n      jump\t// in\n    tag_89:\n        /* \"contracts/authority.sol\":3501:3599  function setPresidentBaned(bool baned) public onlyRepublic {... */\n      pop\n      jump\t// out\n        /* \"contracts/authority.sol\":3395:3494  function getgovernanceVersion() public view returns (uint32) {... */\n    tag_40:\n        /* \"contracts/authority.sol\":3448:3454  uint32 */\n      0x00\n        /* \"contracts/authority.sol\":3470:3481  _governance */\n      0x04\n        /* \"contracts/authority.sol\":3470:3487  _governance.nonce */\n      0x00\n      add\n      0x15\n      swap1\n      sload\n      swap1\n      0x0100\n      exp\n      swap1\n      div\n      0xffffffff\n      and\n        /* \"contracts/authority.sol\":3463:3487  return _governance.nonce */\n      swap1\n      pop\n        /* \"contracts/authority.sol\":3395:3494  function getgovernanceVersion() public view returns (uint32) {... */\n      swap1\n      jump\t// out\n        /* \"contracts/authority.sol\":2590:2888  function setPendingGovernanceContractAddress(address newGCAddress) public onlyRepublic {... */\n    tag_45:\n        /* \"contracts/authority.sol\":1176:1191  block.timestamp */\n      timestamp\n        /* \"contracts/authority.sol\":1156:1173  TimeFirstElection */\n      immutable(\"0x646d998f946f968f0675fd4e3cb527e1222094ea0d9cc1fd615146a8fe29802e\")\n        /* \"contracts/authority.sol\":1156:1191  TimeFirstElection < block.timestamp */\n      0xffffffffffff\n      and\n      lt\n        /* \"contracts/authority.sol\":1152:1372  if (TimeFirstElection < block.timestamp) {... */\n      iszero\n      tag_92\n      jumpi\n        /* \"contracts/authority.sol\":1226:1248  getRepublic_GAddress() */\n      tag_93\n        /* \"contracts/authority.sol\":1226:1246  getRepublic_GAddress */\n      tag_26\n        /* \"contracts/authority.sol\":1226:1248  getRepublic_GAddress() */\n      jump\t// in\n    tag_93:\n        /* \"contracts/authority.sol\":1212:1248  msg.sender == getRepublic_GAddress() */\n      0xffffffffffffffffffffffffffffffffffffffff\n      and\n        /* \"contracts/authority.sol\":1212:1222  msg.sender */\n      caller\n        /* \"contracts/authority.sol\":1212:1248  msg.sender == getRepublic_GAddress() */\n      0xffffffffffffffffffffffffffffffffffffffff\n      and\n      eq\n        /* \"contracts/authority.sol\":1204:1272  require(msg.sender == getRepublic_GAddress(), \"Access is not valid\") */\n      tag_94\n      jumpi\n      mload(0x40)\n      0x08c379a000000000000000000000000000000000000000000000000000000000\n      dup2\n      mstore\n      0x04\n      add\n      tag_95\n      swap1\n      tag_57\n      jump\t// in\n    tag_95:\n      mload(0x40)\n      dup1\n      swap2\n      sub\n      swap1\n      revert\n    tag_94:\n        /* \"contracts/authority.sol\":1152:1372  if (TimeFirstElection < block.timestamp) {... */\n      jump(tag_96)\n    tag_92:\n        /* \"contracts/authority.sol\":1310:1327  getPresidentAdd() */\n      tag_97\n        /* \"contracts/authority.sol\":1310:1325  getPresidentAdd */\n      tag_29\n        /* \"contracts/authority.sol\":1310:1327  getPresidentAdd() */\n      jump\t// in\n    tag_97:\n        /* \"contracts/authority.sol\":1296:1327  msg.sender == getPresidentAdd() */\n      0xffffffffffffffffffffffffffffffffffffffff\n      and\n        /* \"contracts/authority.sol\":1296:1306  msg.sender */\n      caller\n        /* \"contracts/authority.sol\":1296:1327  msg.sender == getPresidentAdd() */\n      0xffffffffffffffffffffffffffffffffffffffff\n      and\n      eq\n        /* \"contracts/authority.sol\":1296:1348  msg.sender == getPresidentAdd() && getPresidentBan() */\n      dup1\n      iszero\n      tag_98\n      jumpi\n      pop\n        /* \"contracts/authority.sol\":1331:1348  getPresidentBan() */\n      tag_99\n        /* \"contracts/authority.sol\":1331:1346  getPresidentBan */\n      tag_32\n        /* \"contracts/authority.sol\":1331:1348  getPresidentBan() */\n      jump\t// in\n    tag_99:\n        /* \"contracts/authority.sol\":1296:1348  msg.sender == getPresidentAdd() && getPresidentBan() */\n    tag_98:\n        /* \"contracts/authority.sol\":1288:1372  require(msg.sender == getPresidentAdd() && getPresidentBan(), \"Access is not valid\") */\n      tag_100\n      jumpi\n      mload(0x40)\n      0x08c379a000000000000000000000000000000000000000000000000000000000\n      dup2\n      mstore\n      0x04\n      add\n      tag_101\n      swap1\n      tag_57\n      jump\t// in\n    tag_101:\n      mload(0x40)\n      dup1\n      swap2\n      sub\n      swap1\n      revert\n    tag_100:\n        /* \"contracts/authority.sol\":1152:1372  if (TimeFirstElection < block.timestamp) {... */\n    tag_96:\n        /* \"contracts/authority.sol\":2715:2716  0 */\n      0x00\n        /* \"contracts/authority.sol\":2688:2700  newGCAddress */\n      dup2\n        /* \"contracts/authority.sol\":2688:2712  newGCAddress.code.length */\n      0xffffffffffffffffffffffffffffffffffffffff\n      and\n      extcodesize\n        /* \"contracts/authority.sol\":2688:2716  newGCAddress.code.length > 0 */\n      gt\n        /* \"contracts/authority.sol\":2684:2879  if (newGCAddress.code.length > 0) {... */\n      iszero\n      tag_103\n      jumpi\n        /* \"contracts/authority.sol\":2749:2761  newGCAddress */\n      dup1\n        /* \"contracts/authority.sol\":2729:2746  _pendingGCAddress */\n      0x01\n      0x00\n        /* \"contracts/authority.sol\":2729:2761  _pendingGCAddress = newGCAddress */\n      0x0100\n      exp\n      dup2\n      sload\n      dup2\n      0xffffffffffffffffffffffffffffffffffffffff\n      mul\n      not\n      and\n      swap1\n      dup4\n      0xffffffffffffffffffffffffffffffffffffffff\n      and\n      mul\n      or\n      swap1\n      sstore\n      pop\n        /* \"contracts/authority.sol\":2804:2816  newGCAddress */\n      dup1\n        /* \"contracts/authority.sol\":2777:2817  TheNextGCAddressWasElected(newGCAddress) */\n      0xffffffffffffffffffffffffffffffffffffffff\n      and\n      0xe8d8e3c7c3ebec0c177d0fe22d223f8b5071db39155104808d45027e368ba77a\n      mload(0x40)\n      mload(0x40)\n      dup1\n      swap2\n      sub\n      swap1\n      log2\n        /* \"contracts/authority.sol\":2684:2879  if (newGCAddress.code.length > 0) {... */\n      jump(tag_104)\n    tag_103:\n        /* \"contracts/authority.sol\":2866:2878  newGCAddress */\n      dup1\n        /* \"contracts/authority.sol\":2840:2879  TheAddressIsNotValidForGC(newGCAddress) */\n      mload(0x40)\n      0x84dbc6cb00000000000000000000000000000000000000000000000000000000\n      dup2\n      mstore\n      0x04\n      add\n      tag_105\n      swap2\n      swap1\n      tag_24\n      jump\t// in\n    tag_105:\n      mload(0x40)\n      dup1\n      swap2\n      sub\n      swap1\n      revert\n        /* \"contracts/authority.sol\":2684:2879  if (newGCAddress.code.length > 0) {... */\n    tag_104:\n        /* \"contracts/authority.sol\":2590:2888  function setPendingGovernanceContractAddress(address newGCAddress) public onlyRepublic {... */\n      pop\n      jump\t// out\n        /* \"contracts/authority.sol\":1689:1790  function getAuthorityAddress() public view returns (address) {... */\n    tag_47:\n        /* \"contracts/authority.sol\":1741:1748  address */\n      0x00\n        /* \"contracts/authority.sol\":1777:1781  this */\n      address\n        /* \"contracts/authority.sol\":1761:1782  return  address(this) */\n      swap1\n      pop\n        /* \"contracts/authority.sol\":1689:1790  function getAuthorityAddress() public view returns (address) {... */\n      swap1\n      jump\t// out\n        /* \"contracts/authority.sol\":2895:3287  function transferGovernanceContractAddress(address pendingGCAdd) public onlyPresident {... */\n    tag_51:\n        /* \"contracts/authority.sol\":1450:1467  getPresidentAdd() */\n      tag_108\n        /* \"contracts/authority.sol\":1450:1465  getPresidentAdd */\n      tag_29\n        /* \"contracts/authority.sol\":1450:1467  getPresidentAdd() */\n      jump\t// in\n    tag_108:\n        /* \"contracts/authority.sol\":1436:1467  msg.sender == getPresidentAdd() */\n      0xffffffffffffffffffffffffffffffffffffffff\n      and\n        /* \"contracts/authority.sol\":1436:1446  msg.sender */\n      caller\n        /* \"contracts/authority.sol\":1436:1467  msg.sender == getPresidentAdd() */\n      0xffffffffffffffffffffffffffffffffffffffff\n      and\n      eq\n        /* \"contracts/authority.sol\":1436:1488  msg.sender == getPresidentAdd() && getPresidentBan() */\n      dup1\n      iszero\n      tag_109\n      jumpi\n      pop\n        /* \"contracts/authority.sol\":1471:1488  getPresidentBan() */\n      tag_110\n        /* \"contracts/authority.sol\":1471:1486  getPresidentBan */\n      tag_32\n        /* \"contracts/authority.sol\":1471:1488  getPresidentBan() */\n      jump\t// in\n    tag_110:\n        /* \"contracts/authority.sol\":1436:1488  msg.sender == getPresidentAdd() && getPresidentBan() */\n    tag_109:\n        /* \"contracts/authority.sol\":1428:1512  require(msg.sender == getPresidentAdd() && getPresidentBan(), \"Access is not valid\") */\n      tag_111\n      jumpi\n      mload(0x40)\n      0x08c379a000000000000000000000000000000000000000000000000000000000\n      dup2\n      mstore\n      0x04\n      add\n      tag_112\n      swap1\n      tag_57\n      jump\t// in\n    tag_112:\n      mload(0x40)\n      dup1\n      swap2\n      sub\n      swap1\n      revert\n    tag_111:\n        /* \"contracts/authority.sol\":3013:3025  pendingGCAdd */\n      dup1\n        /* \"contracts/authority.sol\":2992:3025  _pendingGCAddress == pendingGCAdd */\n      0xffffffffffffffffffffffffffffffffffffffff\n      and\n        /* \"contracts/authority.sol\":2992:3009  _pendingGCAddress */\n      0x01\n      0x00\n      swap1\n      sload\n      swap1\n      0x0100\n      exp\n      swap1\n      div\n      0xffffffffffffffffffffffffffffffffffffffff\n      and\n        /* \"contracts/authority.sol\":2992:3025  _pendingGCAddress == pendingGCAdd */\n      0xffffffffffffffffffffffffffffffffffffffff\n      and\n      sub\n        /* \"contracts/authority.sol\":2988:3280  if (_pendingGCAddress == pendingGCAdd) {... */\n      tag_114\n      jumpi\n        /* \"contracts/authority.sol\":3045:3062  _pendingGCAddress */\n      0x01\n      0x00\n        /* \"contracts/authority.sol\":3038:3062  delete _pendingGCAddress */\n      0x0100\n      exp\n      dup2\n      sload\n      swap1\n      0xffffffffffffffffffffffffffffffffffffffff\n      mul\n      not\n      and\n      swap1\n      sstore\n        /* \"contracts/authority.sol\":3094:3106  pendingGCAdd */\n      dup1\n        /* \"contracts/authority.sol\":3073:3084  _governance */\n      0x04\n        /* \"contracts/authority.sol\":3073:3091  _governance.rolAdd */\n      0x00\n      add\n      0x00\n        /* \"contracts/authority.sol\":3073:3106  _governance.rolAdd = pendingGCAdd */\n      0x0100\n      exp\n      dup2\n      sload\n      dup2\n      0xffffffffffffffffffffffffffffffffffffffff\n      mul\n      not\n      and\n      swap1\n      dup4\n      0xffffffffffffffffffffffffffffffffffffffff\n      and\n      mul\n      or\n      swap1\n      sstore\n      pop\n        /* \"contracts/authority.sol\":3117:3128  _governance */\n      0x04\n        /* \"contracts/authority.sol\":3117:3134  _governance.nonce */\n      0x00\n      add\n      0x15\n        /* \"contracts/authority.sol\":3117:3136  _governance.nonce++ */\n      dup2\n      dup2\n      swap1\n      sload\n      swap1\n      0x0100\n      exp\n      swap1\n      div\n      0xffffffff\n      and\n      dup1\n      swap3\n      swap2\n      swap1\n      tag_115\n      swap1\n      tag_68\n      jump\t// in\n    tag_115:\n      swap2\n      swap1\n      0x0100\n      exp\n      dup2\n      sload\n      dup2\n      0xffffffff\n      mul\n      not\n      and\n      swap1\n      dup4\n      0xffffffff\n      and\n      mul\n      or\n      swap1\n      sstore\n      pop\n      pop\n        /* \"contracts/authority.sol\":3200:3211  _governance */\n      0x04\n        /* \"contracts/authority.sol\":3200:3217  _governance.nonce */\n      0x00\n      add\n      0x15\n      swap1\n      sload\n      swap1\n      0x0100\n      exp\n      swap1\n      div\n      0xffffffff\n      and\n        /* \"contracts/authority.sol\":3152:3218  TheNewGCAddressWasConfirmed(_governance.rolAdd, _governance.nonce) */\n      0xffffffff\n      and\n        /* \"contracts/authority.sol\":3180:3191  _governance */\n      0x04\n        /* \"contracts/authority.sol\":3180:3198  _governance.rolAdd */\n      0x00\n      add\n      0x00\n      swap1\n      sload\n      swap1\n      0x0100\n      exp\n      swap1\n      div\n      0xffffffffffffffffffffffffffffffffffffffff\n      and\n        /* \"contracts/authority.sol\":3152:3218  TheNewGCAddressWasConfirmed(_governance.rolAdd, _governance.nonce) */\n      0xffffffffffffffffffffffffffffffffffffffff\n      and\n      0x5e86008a8467d1efccfe6cb6bd49ba7278d6af2745a1e6994e443322a4237093\n      mload(0x40)\n      mload(0x40)\n      dup1\n      swap2\n      sub\n      swap1\n      log3\n        /* \"contracts/authority.sol\":2988:3280  if (_pendingGCAddress == pendingGCAdd) {... */\n      jump(tag_116)\n    tag_114:\n        /* \"contracts/authority.sol\":3267:3279  pendingGCAdd */\n      dup1\n        /* \"contracts/authority.sol\":3241:3280  TheAddressIsNotValidForGC(pendingGCAdd) */\n      mload(0x40)\n      0x84dbc6cb00000000000000000000000000000000000000000000000000000000\n      dup2\n      mstore\n      0x04\n      add\n      tag_117\n      swap2\n      swap1\n      tag_24\n      jump\t// in\n    tag_117:\n      mload(0x40)\n      dup1\n      swap2\n      sub\n      swap1\n      revert\n        /* \"contracts/authority.sol\":2988:3280  if (_pendingGCAddress == pendingGCAdd) {... */\n    tag_116:\n        /* \"contracts/authority.sol\":2895:3287  function transferGovernanceContractAddress(address pendingGCAdd) public onlyPresident {... */\n      pop\n      jump\t// out\n        /* \"contracts/authority.sol\":3606:3908  function _setPresidentBaned(bool baned) private {... */\n    tag_71:\n        /* \"contracts/authority.sol\":3680:3685  baned */\n      dup1\n        /* \"contracts/authority.sol\":3661:3671  _president */\n      0x03\n        /* \"contracts/authority.sol\":3661:3677  _president.baned */\n      0x00\n      add\n      0x14\n        /* \"contracts/authority.sol\":3661:3685  _president.baned = baned */\n      0x0100\n      exp\n      dup2\n      sload\n      dup2\n      0xff\n      mul\n      not\n      and\n      swap1\n      dup4\n      iszero\n      iszero\n      mul\n      or\n      swap1\n      sstore\n      pop\n        /* \"contracts/authority.sol\":3712:3723  _governance */\n      0x04\n        /* \"contracts/authority.sol\":3712:3730  _governance.rolAdd */\n      0x00\n      add\n      0x00\n      swap1\n      sload\n      swap1\n      0x0100\n      exp\n      swap1\n      div\n      0xffffffffffffffffffffffffffffffffffffffff\n      and\n        /* \"contracts/authority.sol\":3696:3753  Igovernance_set(_governance.rolAdd).setBanedAllActivities */\n      0xffffffffffffffffffffffffffffffffffffffff\n      and\n      0xf4e25380\n        /* \"contracts/authority.sol\":3754:3759  baned */\n      dup3\n        /* \"contracts/authority.sol\":3696:3760  Igovernance_set(_governance.rolAdd).setBanedAllActivities(baned) */\n      mload(0x40)\n      dup3\n      0xffffffff\n      and\n      0xe0\n      shl\n      dup2\n      mstore\n      0x04\n      add\n      tag_119\n      swap2\n      swap1\n      tag_34\n      jump\t// in\n    tag_119:\n      0x20\n      mload(0x40)\n      dup1\n      dup4\n      sub\n      dup2\n      0x00\n      dup8\n      gas\n      call\n      iszero\n      dup1\n      iszero\n      tag_121\n      jumpi\n      returndatasize\n      0x00\n      dup1\n      returndatacopy\n      revert(0x00, returndatasize)\n    tag_121:\n      pop\n      pop\n      pop\n      pop\n      mload(0x40)\n      returndatasize\n      not(0x1f)\n      0x1f\n      dup3\n      add\n      and\n      dup3\n      add\n      dup1\n      0x40\n      mstore\n      pop\n      dup2\n      add\n      swap1\n      tag_122\n      swap2\n      swap1\n      tag_123\n      jump\t// in\n    tag_122:\n        /* \"contracts/authority.sol\":3692:3901  if (Igovernance_set(_governance.rolAdd).setBanedAllActivities(baned)){... */\n      iszero\n      tag_124\n      jumpi\n        /* \"contracts/authority.sol\":3823:3827  true */\n      0x01\n        /* \"contracts/authority.sol\":3777:3828  TheStatusOfBanningAllActivitiesAndDone(baned, true) */\n      iszero\n      iszero\n        /* \"contracts/authority.sol\":3816:3821  baned */\n      dup2\n        /* \"contracts/authority.sol\":3777:3828  TheStatusOfBanningAllActivitiesAndDone(baned, true) */\n      iszero\n      iszero\n      0x067d0bd9a6167d98b43392618557d3cba4aa9b3c54791c0b96f1a20a05eb8b84\n      mload(0x40)\n      mload(0x40)\n      dup1\n      swap2\n      sub\n      swap1\n      log3\n        /* \"contracts/authority.sol\":3692:3901  if (Igovernance_set(_governance.rolAdd).setBanedAllActivities(baned)){... */\n      jump(tag_125)\n    tag_124:\n        /* \"contracts/authority.sol\":3895:3900  false */\n      0x00\n        /* \"contracts/authority.sol\":3849:3901  TheStatusOfBanningAllActivitiesAndDone(baned, false) */\n      iszero\n      iszero\n        /* \"contracts/authority.sol\":3888:3893  baned */\n      dup2\n        /* \"contracts/authority.sol\":3849:3901  TheStatusOfBanningAllActivitiesAndDone(baned, false) */\n      iszero\n      iszero\n      0x067d0bd9a6167d98b43392618557d3cba4aa9b3c54791c0b96f1a20a05eb8b84\n      mload(0x40)\n      mload(0x40)\n      dup1\n      swap2\n      sub\n      swap1\n      log3\n        /* \"contracts/authority.sol\":3692:3901  if (Igovernance_set(_governance.rolAdd).setBanedAllActivities(baned)){... */\n    tag_125:\n        /* \"contracts/authority.sol\":3606:3908  function _setPresidentBaned(bool baned) private {... */\n      pop\n      jump\t// out\n        /* \"#utility.yul\":88:205   */\n    tag_127:\n        /* \"#utility.yul\":197:198   */\n      0x00\n        /* \"#utility.yul\":194:195   */\n      dup1\n        /* \"#utility.yul\":187:199   */\n      revert\n        /* \"#utility.yul\":334:460   */\n    tag_129:\n        /* \"#utility.yul\":371:378   */\n      0x00\n        /* \"#utility.yul\":411:453   */\n      0xffffffffffffffffffffffffffffffffffffffff\n        /* \"#utility.yul\":404:409   */\n      dup3\n        /* \"#utility.yul\":400:454   */\n      and\n        /* \"#utility.yul\":389:454   */\n      swap1\n      pop\n        /* \"#utility.yul\":334:460   */\n      swap2\n      swap1\n      pop\n      jump\t// out\n        /* \"#utility.yul\":466:562   */\n    tag_130:\n        /* \"#utility.yul\":503:510   */\n      0x00\n        /* \"#utility.yul\":532:556   */\n      tag_151\n        /* \"#utility.yul\":550:555   */\n      dup3\n        /* \"#utility.yul\":532:556   */\n      tag_129\n      jump\t// in\n    tag_151:\n        /* \"#utility.yul\":521:556   */\n      swap1\n      pop\n        /* \"#utility.yul\":466:562   */\n      swap2\n      swap1\n      pop\n      jump\t// out\n        /* \"#utility.yul\":568:690   */\n    tag_131:\n        /* \"#utility.yul\":641:665   */\n      tag_153\n        /* \"#utility.yul\":659:664   */\n      dup2\n        /* \"#utility.yul\":641:665   */\n      tag_130\n      jump\t// in\n    tag_153:\n        /* \"#utility.yul\":634:639   */\n      dup2\n        /* \"#utility.yul\":631:666   */\n      eq\n        /* \"#utility.yul\":621:684   */\n      tag_154\n      jumpi\n        /* \"#utility.yul\":680:681   */\n      0x00\n        /* \"#utility.yul\":677:678   */\n      dup1\n        /* \"#utility.yul\":670:682   */\n      revert\n        /* \"#utility.yul\":621:684   */\n    tag_154:\n        /* \"#utility.yul\":568:690   */\n      pop\n      jump\t// out\n        /* \"#utility.yul\":696:835   */\n    tag_132:\n        /* \"#utility.yul\":742:747   */\n      0x00\n        /* \"#utility.yul\":780:786   */\n      dup2\n        /* \"#utility.yul\":767:787   */\n      calldataload\n        /* \"#utility.yul\":758:787   */\n      swap1\n      pop\n        /* \"#utility.yul\":796:829   */\n      tag_156\n        /* \"#utility.yul\":823:828   */\n      dup2\n        /* \"#utility.yul\":796:829   */\n      tag_131\n      jump\t// in\n    tag_156:\n        /* \"#utility.yul\":696:835   */\n      swap3\n      swap2\n      pop\n      pop\n      jump\t// out\n        /* \"#utility.yul\":841:1170   */\n    tag_17:\n        /* \"#utility.yul\":900:906   */\n      0x00\n        /* \"#utility.yul\":949:951   */\n      0x20\n        /* \"#utility.yul\":937:946   */\n      dup3\n        /* \"#utility.yul\":928:935   */\n      dup5\n        /* \"#utility.yul\":924:947   */\n      sub\n        /* \"#utility.yul\":920:952   */\n      slt\n        /* \"#utility.yul\":917:1036   */\n      iszero\n      tag_158\n      jumpi\n        /* \"#utility.yul\":955:1034   */\n      tag_159\n      tag_127\n      jump\t// in\n    tag_159:\n        /* \"#utility.yul\":917:1036   */\n    tag_158:\n        /* \"#utility.yul\":1075:1076   */\n      0x00\n        /* \"#utility.yul\":1100:1153   */\n      tag_160\n        /* \"#utility.yul\":1145:1152   */\n      dup5\n        /* \"#utility.yul\":1136:1142   */\n      dup3\n        /* \"#utility.yul\":1125:1134   */\n      dup6\n        /* \"#utility.yul\":1121:1143   */\n      add\n        /* \"#utility.yul\":1100:1153   */\n      tag_132\n      jump\t// in\n    tag_160:\n        /* \"#utility.yul\":1090:1153   */\n      swap2\n      pop\n        /* \"#utility.yul\":1046:1163   */\n      pop\n        /* \"#utility.yul\":841:1170   */\n      swap3\n      swap2\n      pop\n      pop\n      jump\t// out\n        /* \"#utility.yul\":1176:1294   */\n    tag_133:\n        /* \"#utility.yul\":1263:1287   */\n      tag_162\n        /* \"#utility.yul\":1281:1286   */\n      dup2\n        /* \"#utility.yul\":1263:1287   */\n      tag_130\n      jump\t// in\n    tag_162:\n        /* \"#utility.yul\":1258:1261   */\n      dup3\n        /* \"#utility.yul\":1251:1288   */\n      mstore\n        /* \"#utility.yul\":1176:1294   */\n      pop\n      pop\n      jump\t// out\n        /* \"#utility.yul\":1300:1522   */\n    tag_24:\n        /* \"#utility.yul\":1393:1397   */\n      0x00\n        /* \"#utility.yul\":1431:1433   */\n      0x20\n        /* \"#utility.yul\":1420:1429   */\n      dup3\n        /* \"#utility.yul\":1416:1434   */\n      add\n        /* \"#utility.yul\":1408:1434   */\n      swap1\n      pop\n        /* \"#utility.yul\":1444:1515   */\n      tag_164\n        /* \"#utility.yul\":1512:1513   */\n      0x00\n        /* \"#utility.yul\":1501:1510   */\n      dup4\n        /* \"#utility.yul\":1497:1514   */\n      add\n        /* \"#utility.yul\":1488:1494   */\n      dup5\n        /* \"#utility.yul\":1444:1515   */\n      tag_133\n      jump\t// in\n    tag_164:\n        /* \"#utility.yul\":1300:1522   */\n      swap3\n      swap2\n      pop\n      pop\n      jump\t// out\n        /* \"#utility.yul\":1528:1618   */\n    tag_134:\n        /* \"#utility.yul\":1562:1569   */\n      0x00\n        /* \"#utility.yul\":1605:1610   */\n      dup2\n        /* \"#utility.yul\":1598:1611   */\n      iszero\n        /* \"#utility.yul\":1591:1612   */\n      iszero\n        /* \"#utility.yul\":1580:1612   */\n      swap1\n      pop\n        /* \"#utility.yul\":1528:1618   */\n      swap2\n      swap1\n      pop\n      jump\t// out\n        /* \"#utility.yul\":1624:1733   */\n    tag_135:\n        /* \"#utility.yul\":1705:1726   */\n      tag_167\n        /* \"#utility.yul\":1720:1725   */\n      dup2\n        /* \"#utility.yul\":1705:1726   */\n      tag_134\n      jump\t// in\n    tag_167:\n        /* \"#utility.yul\":1700:1703   */\n      dup3\n        /* \"#utility.yul\":1693:1727   */\n      mstore\n        /* \"#utility.yul\":1624:1733   */\n      pop\n      pop\n      jump\t// out\n        /* \"#utility.yul\":1739:1949   */\n    tag_34:\n        /* \"#utility.yul\":1826:1830   */\n      0x00\n        /* \"#utility.yul\":1864:1866   */\n      0x20\n        /* \"#utility.yul\":1853:1862   */\n      dup3\n        /* \"#utility.yul\":1849:1867   */\n      add\n        /* \"#utility.yul\":1841:1867   */\n      swap1\n      pop\n        /* \"#utility.yul\":1877:1942   */\n      tag_169\n        /* \"#utility.yul\":1939:1940   */\n      0x00\n        /* \"#utility.yul\":1928:1937   */\n      dup4\n        /* \"#utility.yul\":1924:1941   */\n      add\n        /* \"#utility.yul\":1915:1921   */\n      dup5\n        /* \"#utility.yul\":1877:1942   */\n      tag_135\n      jump\t// in\n    tag_169:\n        /* \"#utility.yul\":1739:1949   */\n      swap3\n      swap2\n      pop\n      pop\n      jump\t// out\n        /* \"#utility.yul\":1955:2071   */\n    tag_136:\n        /* \"#utility.yul\":2025:2046   */\n      tag_171\n        /* \"#utility.yul\":2040:2045   */\n      dup2\n        /* \"#utility.yul\":2025:2046   */\n      tag_134\n      jump\t// in\n    tag_171:\n        /* \"#utility.yul\":2018:2023   */\n      dup2\n        /* \"#utility.yul\":2015:2047   */\n      eq\n        /* \"#utility.yul\":2005:2065   */\n      tag_172\n      jumpi\n        /* \"#utility.yul\":2061:2062   */\n      0x00\n        /* \"#utility.yul\":2058:2059   */\n      dup1\n        /* \"#utility.yul\":2051:2063   */\n      revert\n        /* \"#utility.yul\":2005:2065   */\n    tag_172:\n        /* \"#utility.yul\":1955:2071   */\n      pop\n      jump\t// out\n        /* \"#utility.yul\":2077:2210   */\n    tag_137:\n        /* \"#utility.yul\":2120:2125   */\n      0x00\n        /* \"#utility.yul\":2158:2164   */\n      dup2\n        /* \"#utility.yul\":2145:2165   */\n      calldataload\n        /* \"#utility.yul\":2136:2165   */\n      swap1\n      pop\n        /* \"#utility.yul\":2174:2204   */\n      tag_174\n        /* \"#utility.yul\":2198:2203   */\n      dup2\n        /* \"#utility.yul\":2174:2204   */\n      tag_136\n      jump\t// in\n    tag_174:\n        /* \"#utility.yul\":2077:2210   */\n      swap3\n      swap2\n      pop\n      pop\n      jump\t// out\n        /* \"#utility.yul\":2216:2539   */\n    tag_37:\n        /* \"#utility.yul\":2272:2278   */\n      0x00\n        /* \"#utility.yul\":2321:2323   */\n      0x20\n        /* \"#utility.yul\":2309:2318   */\n      dup3\n        /* \"#utility.yul\":2300:2307   */\n      dup5\n        /* \"#utility.yul\":2296:2319   */\n      sub\n        /* \"#utility.yul\":2292:2324   */\n      slt\n        /* \"#utility.yul\":2289:2408   */\n      iszero\n      tag_176\n      jumpi\n        /* \"#utility.yul\":2327:2406   */\n      tag_177\n      tag_127\n      jump\t// in\n    tag_177:\n        /* \"#utility.yul\":2289:2408   */\n    tag_176:\n        /* \"#utility.yul\":2447:2448   */\n      0x00\n        /* \"#utility.yul\":2472:2522   */\n      tag_178\n        /* \"#utility.yul\":2514:2521   */\n      dup5\n        /* \"#utility.yul\":2505:2511   */\n      dup3\n        /* \"#utility.yul\":2494:2503   */\n      dup6\n        /* \"#utility.yul\":2490:2512   */\n      add\n        /* \"#utility.yul\":2472:2522   */\n      tag_137\n      jump\t// in\n    tag_178:\n        /* \"#utility.yul\":2462:2522   */\n      swap2\n      pop\n        /* \"#utility.yul\":2418:2532   */\n      pop\n        /* \"#utility.yul\":2216:2539   */\n      swap3\n      swap2\n      pop\n      pop\n      jump\t// out\n        /* \"#utility.yul\":2545:2638   */\n    tag_138:\n        /* \"#utility.yul\":2581:2588   */\n      0x00\n        /* \"#utility.yul\":2621:2631   */\n      0xffffffff\n        /* \"#utility.yul\":2614:2619   */\n      dup3\n        /* \"#utility.yul\":2610:2632   */\n      and\n        /* \"#utility.yul\":2599:2632   */\n      swap1\n      pop\n        /* \"#utility.yul\":2545:2638   */\n      swap2\n      swap1\n      pop\n      jump\t// out\n        /* \"#utility.yul\":2644:2759   */\n    tag_139:\n        /* \"#utility.yul\":2729:2752   */\n      tag_181\n        /* \"#utility.yul\":2746:2751   */\n      dup2\n        /* \"#utility.yul\":2729:2752   */\n      tag_138\n      jump\t// in\n    tag_181:\n        /* \"#utility.yul\":2724:2727   */\n      dup3\n        /* \"#utility.yul\":2717:2753   */\n      mstore\n        /* \"#utility.yul\":2644:2759   */\n      pop\n      pop\n      jump\t// out\n        /* \"#utility.yul\":2765:2983   */\n    tag_42:\n        /* \"#utility.yul\":2856:2860   */\n      0x00\n        /* \"#utility.yul\":2894:2896   */\n      0x20\n        /* \"#utility.yul\":2883:2892   */\n      dup3\n        /* \"#utility.yul\":2879:2897   */\n      add\n        /* \"#utility.yul\":2871:2897   */\n      swap1\n      pop\n        /* \"#utility.yul\":2907:2976   */\n      tag_183\n        /* \"#utility.yul\":2973:2974   */\n      0x00\n        /* \"#utility.yul\":2962:2971   */\n      dup4\n        /* \"#utility.yul\":2958:2975   */\n      add\n        /* \"#utility.yul\":2949:2955   */\n      dup5\n        /* \"#utility.yul\":2907:2976   */\n      tag_139\n      jump\t// in\n    tag_183:\n        /* \"#utility.yul\":2765:2983   */\n      swap3\n      swap2\n      pop\n      pop\n      jump\t// out\n        /* \"#utility.yul\":2989:3158   */\n    tag_140:\n        /* \"#utility.yul\":3073:3084   */\n      0x00\n        /* \"#utility.yul\":3107:3113   */\n      dup3\n        /* \"#utility.yul\":3102:3105   */\n      dup3\n        /* \"#utility.yul\":3095:3114   */\n      mstore\n        /* \"#utility.yul\":3147:3151   */\n      0x20\n        /* \"#utility.yul\":3142:3145   */\n      dup3\n        /* \"#utility.yul\":3138:3152   */\n      add\n        /* \"#utility.yul\":3123:3152   */\n      swap1\n      pop\n        /* \"#utility.yul\":2989:3158   */\n      swap3\n      swap2\n      pop\n      pop\n      jump\t// out\n        /* \"#utility.yul\":3164:3333   */\n    tag_141:\n        /* \"#utility.yul\":3304:3325   */\n      0x416363657373206973206e6f742076616c696400000000000000000000000000\n        /* \"#utility.yul\":3300:3301   */\n      0x00\n        /* \"#utility.yul\":3292:3298   */\n      dup3\n        /* \"#utility.yul\":3288:3302   */\n      add\n        /* \"#utility.yul\":3281:3326   */\n      mstore\n        /* \"#utility.yul\":3164:3333   */\n      pop\n      jump\t// out\n        /* \"#utility.yul\":3339:3705   */\n    tag_142:\n        /* \"#utility.yul\":3481:3484   */\n      0x00\n        /* \"#utility.yul\":3502:3569   */\n      tag_187\n        /* \"#utility.yul\":3566:3568   */\n      0x13\n        /* \"#utility.yul\":3561:3564   */\n      dup4\n        /* \"#utility.yul\":3502:3569   */\n      tag_140\n      jump\t// in\n    tag_187:\n        /* \"#utility.yul\":3495:3569   */\n      swap2\n      pop\n        /* \"#utility.yul\":3578:3671   */\n      tag_188\n        /* \"#utility.yul\":3667:3670   */\n      dup3\n        /* \"#utility.yul\":3578:3671   */\n      tag_141\n      jump\t// in\n    tag_188:\n        /* \"#utility.yul\":3696:3698   */\n      0x20\n        /* \"#utility.yul\":3691:3694   */\n      dup3\n        /* \"#utility.yul\":3687:3699   */\n      add\n        /* \"#utility.yul\":3680:3699   */\n      swap1\n      pop\n        /* \"#utility.yul\":3339:3705   */\n      swap2\n      swap1\n      pop\n      jump\t// out\n        /* \"#utility.yul\":3711:4130   */\n    tag_57:\n        /* \"#utility.yul\":3877:3881   */\n      0x00\n        /* \"#utility.yul\":3915:3917   */\n      0x20\n        /* \"#utility.yul\":3904:3913   */\n      dup3\n        /* \"#utility.yul\":3900:3918   */\n      add\n        /* \"#utility.yul\":3892:3918   */\n      swap1\n      pop\n        /* \"#utility.yul\":3964:3973   */\n      dup2\n        /* \"#utility.yul\":3958:3962   */\n      dup2\n        /* \"#utility.yul\":3954:3974   */\n      sub\n        /* \"#utility.yul\":3950:3951   */\n      0x00\n        /* \"#utility.yul\":3939:3948   */\n      dup4\n        /* \"#utility.yul\":3935:3952   */\n      add\n        /* \"#utility.yul\":3928:3975   */\n      mstore\n        /* \"#utility.yul\":3992:4123   */\n      tag_190\n        /* \"#utility.yul\":4118:4122   */\n      dup2\n        /* \"#utility.yul\":3992:4123   */\n      tag_142\n      jump\t// in\n    tag_190:\n        /* \"#utility.yul\":3984:4123   */\n      swap1\n      pop\n        /* \"#utility.yul\":3711:4130   */\n      swap2\n      swap1\n      pop\n      jump\t// out\n        /* \"#utility.yul\":4136:4316   */\n    tag_143:\n        /* \"#utility.yul\":4184:4261   */\n      0x4e487b7100000000000000000000000000000000000000000000000000000000\n        /* \"#utility.yul\":4181:4182   */\n      0x00\n        /* \"#utility.yul\":4174:4262   */\n      mstore\n        /* \"#utility.yul\":4281:4285   */\n      0x11\n        /* \"#utility.yul\":4278:4279   */\n      0x04\n        /* \"#utility.yul\":4271:4286   */\n      mstore\n        /* \"#utility.yul\":4305:4309   */\n      0x24\n        /* \"#utility.yul\":4302:4303   */\n      0x00\n        /* \"#utility.yul\":4295:4310   */\n      revert\n        /* \"#utility.yul\":4322:4497   */\n    tag_68:\n        /* \"#utility.yul\":4360:4363   */\n      0x00\n        /* \"#utility.yul\":4383:4406   */\n      tag_193\n        /* \"#utility.yul\":4400:4405   */\n      dup3\n        /* \"#utility.yul\":4383:4406   */\n      tag_138\n      jump\t// in\n    tag_193:\n        /* \"#utility.yul\":4374:4406   */\n      swap2\n      pop\n        /* \"#utility.yul\":4428:4438   */\n      0xffffffff\n        /* \"#utility.yul\":4421:4426   */\n      dup3\n        /* \"#utility.yul\":4418:4439   */\n      sub\n        /* \"#utility.yul\":4415:4462   */\n      tag_194\n      jumpi\n        /* \"#utility.yul\":4442:4460   */\n      tag_195\n      tag_143\n      jump\t// in\n    tag_195:\n        /* \"#utility.yul\":4415:4462   */\n    tag_194:\n        /* \"#utility.yul\":4489:4490   */\n      0x01\n        /* \"#utility.yul\":4482:4487   */\n      dup3\n        /* \"#utility.yul\":4478:4491   */\n      add\n        /* \"#utility.yul\":4471:4491   */\n      swap1\n      pop\n        /* \"#utility.yul\":4322:4497   */\n      swap2\n      swap1\n      pop\n      jump\t// out\n        /* \"#utility.yul\":4503:4640   */\n    tag_144:\n        /* \"#utility.yul\":4557:4562   */\n      0x00\n        /* \"#utility.yul\":4588:4594   */\n      dup2\n        /* \"#utility.yul\":4582:4595   */\n      mload\n        /* \"#utility.yul\":4573:4595   */\n      swap1\n      pop\n        /* \"#utility.yul\":4604:4634   */\n      tag_197\n        /* \"#utility.yul\":4628:4633   */\n      dup2\n        /* \"#utility.yul\":4604:4634   */\n      tag_136\n      jump\t// in\n    tag_197:\n        /* \"#utility.yul\":4503:4640   */\n      swap3\n      swap2\n      pop\n      pop\n      jump\t// out\n        /* \"#utility.yul\":4646:4991   */\n    tag_123:\n        /* \"#utility.yul\":4713:4719   */\n      0x00\n        /* \"#utility.yul\":4762:4764   */\n      0x20\n        /* \"#utility.yul\":4750:4759   */\n      dup3\n        /* \"#utility.yul\":4741:4748   */\n      dup5\n        /* \"#utility.yul\":4737:4760   */\n      sub\n        /* \"#utility.yul\":4733:4765   */\n      slt\n        /* \"#utility.yul\":4730:4849   */\n      iszero\n      tag_199\n      jumpi\n        /* \"#utility.yul\":4768:4847   */\n      tag_200\n      tag_127\n      jump\t// in\n    tag_200:\n        /* \"#utility.yul\":4730:4849   */\n    tag_199:\n        /* \"#utility.yul\":4888:4889   */\n      0x00\n        /* \"#utility.yul\":4913:4974   */\n      tag_201\n        /* \"#utility.yul\":4966:4973   */\n      dup5\n        /* \"#utility.yul\":4957:4963   */\n      dup3\n        /* \"#utility.yul\":4946:4955   */\n      dup6\n        /* \"#utility.yul\":4942:4964   */\n      add\n        /* \"#utility.yul\":4913:4974   */\n      tag_144\n      jump\t// in\n    tag_201:\n        /* \"#utility.yul\":4903:4974   */\n      swap2\n      pop\n        /* \"#utility.yul\":4859:4984   */\n      pop\n        /* \"#utility.yul\":4646:4991   */\n      swap3\n      swap2\n      pop\n      pop\n      jump\t// out\n\n    auxdata: 0xa2646970667358221220804e3baa0975b15b39e2b326f6668556875535ced9ea341dd34b890ddf1fcb8964736f6c63430008140033\n}\n",
				"bytecode": {
					"linkReferences": {},
					"object": "60a060405234801562000010575f80fd5b506316a8c80042620000239190620000fd565b65ffffffffffff1660808165ffffffffffff16815250503360035f015f6101000a81548173ffffffffffffffffffffffffffffffffffffffff021916908373ffffffffffffffffffffffffffffffffffffffff16021790555060035f01601581819054906101000a900463ffffffff1680929190620000a29062000146565b91906101000a81548163ffffffff021916908363ffffffff1602179055505062000176565b5f819050919050565b7f4e487b71000000000000000000000000000000000000000000000000000000005f52601160045260245ffd5b5f6200010982620000c7565b91506200011683620000c7565b9250828201905080821115620001315762000130620000d0565b5b92915050565b5f63ffffffff82169050919050565b5f620001528262000137565b915063ffffffff82036200016b576200016a620000d0565b5b600182019050919050565b608051610f976200019d5f395f81816101dc015281816105fd01526107540152610f975ff3fe608060405234801561000f575f80fd5b50600436106100a7575f3560e01c80636cf106d71161006f5780636cf106d71461012b578063b5c09c6814610149578063c387b49c14610165578063ca4cce6814610183578063e47a9d461461019f578063ee7126c3146101bd576100a7565b8063054203bd146100ab5780630df4c390146100c7578063289b3c0d146100d15780634c7ac835146100ef578063664109971461010d575b5f80fd5b6100c560048036038101906100c09190610d40565b6101d9565b005b6100cf61038f565b005b6100d9610567565b6040516100e69190610d7a565b60405180910390f35b6100f7610591565b6040516101049190610d7a565b60405180910390f35b6101156105b8565b6040516101229190610d7a565b60405180910390f35b6101336105e2565b6040516101409190610dad565b60405180910390f35b610163600480360381019061015e9190610df0565b6105fa565b005b61016d610736565b60405161017a9190610e39565b60405180910390f35b61019d60048036038101906101989190610d40565b610751565b005b6101a7610968565b6040516101b49190610d7a565b60405180910390f35b6101d760048036038101906101d29190610d40565b61096f565b005b427f000000000000000000000000000000000000000000000000000000000000000065ffffffffffff16101561028357610211610591565b73ffffffffffffffffffffffffffffffffffffffff163373ffffffffffffffffffffffffffffffffffffffff161461027e576040517f08c379a000000000000000000000000000000000000000000000000000000000815260040161027590610eac565b60405180910390fd5b610309565b61028b6105b8565b73ffffffffffffffffffffffffffffffffffffffff163373ffffffffffffffffffffffffffffffffffffffff161480156102c957506102c86105e2565b5b610308576040517f08c379a00000000000000000000000000000000000000000000000000000000081526004016102ff90610eac565b60405180910390fd5b5b8060025f6101000a81548173ffffffffffffffffffffffffffffffffffffffff021916908373ffffffffffffffffffffffffffffffffffffffff1602179055508073ffffffffffffffffffffffffffffffffffffffff167f3553f1f7ef0242113266a8d183b621bb87468c99237f36b1150b6ab3d688b68660405160405180910390a250565b3373ffffffffffffffffffffffffffffffffffffffff1660025f9054906101000a900473ffffffffffffffffffffffffffffffffffffffff1673ffffffffffffffffffffffffffffffffffffffff16036105335760025f6101000a81549073ffffffffffffffffffffffffffffffffffffffff02191690553360035f015f6101000a81548173ffffffffffffffffffffffffffffffffffffffff021916908373ffffffffffffffffffffffffffffffffffffffff16021790555060035f01601581819054906101000a900463ffffffff168092919061046d90610ef7565b91906101000a81548163ffffffff021916908363ffffffff1602179055505060035f0160149054906101000a900460ff16156104ad576104ac5f610bb7565b5b60035f0160159054906101000a900463ffffffff1663ffffffff1660035f015f9054906101000a900473ffffffffffffffffffffffffffffffffffffffff1673ffffffffffffffffffffffffffffffffffffffff167f05ad9b3688012cd825c1bfb941e4f5afb2558af6af3deaddf01dbb5e85abdaf960405160405180910390a3610565565b6040517fb513955100000000000000000000000000000000000000000000000000000000815260040160405180910390fd5b565b5f60045f015f9054906101000a900473ffffffffffffffffffffffffffffffffffffffff16905090565b5f805f9054906101000a900473ffffffffffffffffffffffffffffffffffffffff16905090565b5f60035f015f9054906101000a900473ffffffffffffffffffffffffffffffffffffffff16905090565b5f60035f0160149054906101000a900460ff16905090565b427f000000000000000000000000000000000000000000000000000000000000000065ffffffffffff1610156106a457610632610591565b73ffffffffffffffffffffffffffffffffffffffff163373ffffffffffffffffffffffffffffffffffffffff161461069f576040517f08c379a000000000000000000000000000000000000000000000000000000000815260040161069690610eac565b60405180910390fd5b61072a565b6106ac6105b8565b73ffffffffffffffffffffffffffffffffffffffff163373ffffffffffffffffffffffffffffffffffffffff161480156106ea57506106e96105e2565b5b610729576040517f08c379a000000000000000000000000000000000000000000000000000000000815260040161072090610eac565b60405180910390fd5b5b61073381610bb7565b50565b5f60045f0160159054906101000a900463ffffffff16905090565b427f000000000000000000000000000000000000000000000000000000000000000065ffffffffffff1610156107fb57610789610591565b73ffffffffffffffffffffffffffffffffffffffff163373ffffffffffffffffffffffffffffffffffffffff16146107f6576040517f08c379a00000000000000000000000000000000000000000000000000000000081526004016107ed90610eac565b60405180910390fd5b610881565b6108036105b8565b73ffffffffffffffffffffffffffffffffffffffff163373ffffffffffffffffffffffffffffffffffffffff1614801561084157506108406105e2565b5b610880576040517f08c379a000000000000000000000000000000000000000000000000000000000815260040161087790610eac565b60405180910390fd5b5b5f8173ffffffffffffffffffffffffffffffffffffffff163b1115610928578060015f6101000a81548173ffffffffffffffffffffffffffffffffffffffff021916908373ffffffffffffffffffffffffffffffffffffffff1602179055508073ffffffffffffffffffffffffffffffffffffffff167fe8d8e3c7c3ebec0c177d0fe22d223f8b5071db39155104808d45027e368ba77a60405160405180910390a2610965565b806040517f84dbc6cb00000000000000000000000000000000000000000000000000000000815260040161095c9190610d7a565b60405180910390fd5b50565b5f30905090565b6109776105b8565b73ffffffffffffffffffffffffffffffffffffffff163373ffffffffffffffffffffffffffffffffffffffff161480156109b557506109b46105e2565b5b6109f4576040517f08c379a00000000000000000000000000000000000000000000000000000000081526004016109eb90610eac565b60405180910390fd5b8073ffffffffffffffffffffffffffffffffffffffff1660015f9054906101000a900473ffffffffffffffffffffffffffffffffffffffff1673ffffffffffffffffffffffffffffffffffffffff1603610b775760015f6101000a81549073ffffffffffffffffffffffffffffffffffffffff02191690558060045f015f6101000a81548173ffffffffffffffffffffffffffffffffffffffff021916908373ffffffffffffffffffffffffffffffffffffffff16021790555060045f01601581819054906101000a900463ffffffff1680929190610ad290610ef7565b91906101000a81548163ffffffff021916908363ffffffff1602179055505060045f0160159054906101000a900463ffffffff1663ffffffff1660045f015f9054906101000a900473ffffffffffffffffffffffffffffffffffffffff1673ffffffffffffffffffffffffffffffffffffffff167f5e86008a8467d1efccfe6cb6bd49ba7278d6af2745a1e6994e443322a423709360405160405180910390a3610bb4565b806040517f84dbc6cb000000000000000000000000000000000000000000000000000000008152600401610bab9190610d7a565b60405180910390fd5b50565b8060035f0160146101000a81548160ff02191690831515021790555060045f015f9054906101000a900473ffffffffffffffffffffffffffffffffffffffff1673ffffffffffffffffffffffffffffffffffffffff1663f4e25380826040518263ffffffff1660e01b8152600401610c2f9190610dad565b6020604051808303815f875af1158015610c4b573d5f803e3d5ffd5b505050506040513d601f19601f82011682018060405250810190610c6f9190610f36565b15610cac57600115158115157f067d0bd9a6167d98b43392618557d3cba4aa9b3c54791c0b96f1a20a05eb8b8460405160405180910390a3610cdf565b5f15158115157f067d0bd9a6167d98b43392618557d3cba4aa9b3c54791c0b96f1a20a05eb8b8460405160405180910390a35b50565b5f80fd5b5f73ffffffffffffffffffffffffffffffffffffffff82169050919050565b5f610d0f82610ce6565b9050919050565b610d1f81610d05565b8114610d29575f80fd5b50565b5f81359050610d3a81610d16565b92915050565b5f60208284031215610d5557610d54610ce2565b5b5f610d6284828501610d2c565b91505092915050565b610d7481610d05565b82525050565b5f602082019050610d8d5f830184610d6b565b92915050565b5f8115159050919050565b610da781610d93565b82525050565b5f602082019050610dc05f830184610d9e565b92915050565b610dcf81610d93565b8114610dd9575f80fd5b50565b5f81359050610dea81610dc6565b92915050565b5f60208284031215610e0557610e04610ce2565b5b5f610e1284828501610ddc565b91505092915050565b5f63ffffffff82169050919050565b610e3381610e1b565b82525050565b5f602082019050610e4c5f830184610e2a565b92915050565b5f82825260208201905092915050565b7f416363657373206973206e6f742076616c6964000000000000000000000000005f82015250565b5f610e96601383610e52565b9150610ea182610e62565b602082019050919050565b5f6020820190508181035f830152610ec381610e8a565b9050919050565b7f4e487b71000000000000000000000000000000000000000000000000000000005f52601160045260245ffd5b5f610f0182610e1b565b915063ffffffff8203610f1757610f16610eca565b5b600182019050919050565b5f81519050610f3081610dc6565b92915050565b5f60208284031215610f4b57610f4a610ce2565b5b5f610f5884828501610f22565b9150509291505056fea2646970667358221220804e3baa0975b15b39e2b326f6668556875535ced9ea341dd34b890ddf1fcb8964736f6c63430008140033",
					"opcodes": "PUSH1 0xA0 PUSH1 0x40 MSTORE CALLVALUE DUP1 ISZERO PUSH3 0x10 JUMPI PUSH0 DUP1 REVERT JUMPDEST POP PUSH4 0x16A8C800 TIMESTAMP PUSH3 0x23 SWAP2 SWAP1 PUSH3 0xFD JUMP JUMPDEST PUSH6 0xFFFFFFFFFFFF AND PUSH1 0x80 DUP2 PUSH6 0xFFFFFFFFFFFF AND DUP2 MSTORE POP POP CALLER PUSH1 0x3 PUSH0 ADD PUSH0 PUSH2 0x100 EXP DUP2 SLOAD DUP2 PUSH20 0xFFFFFFFFFFFFFFFFFFFFFFFFFFFFFFFFFFFFFFFF MUL NOT AND SWAP1 DUP4 PUSH20 0xFFFFFFFFFFFFFFFFFFFFFFFFFFFFFFFFFFFFFFFF AND MUL OR SWAP1 SSTORE POP PUSH1 0x3 PUSH0 ADD PUSH1 0x15 DUP2 DUP2 SWAP1 SLOAD SWAP1 PUSH2 0x100 EXP SWAP1 DIV PUSH4 0xFFFFFFFF AND DUP1 SWAP3 SWAP2 SWAP1 PUSH3 0xA2 SWAP1 PUSH3 0x146 JUMP JUMPDEST SWAP2 SWAP1 PUSH2 0x100 EXP DUP2 SLOAD DUP2 PUSH4 0xFFFFFFFF MUL NOT AND SWAP1 DUP4 PUSH4 0xFFFFFFFF AND MUL OR SWAP1 SSTORE POP POP PUSH3 0x176 JUMP JUMPDEST PUSH0 DUP2 SWAP1 POP SWAP2 SWAP1 POP JUMP JUMPDEST PUSH32 0x4E487B7100000000000000000000000000000000000000000000000000000000 PUSH0 MSTORE PUSH1 0x11 PUSH1 0x4 MSTORE PUSH1 0x24 PUSH0 REVERT JUMPDEST PUSH0 PUSH3 0x109 DUP3 PUSH3 0xC7 JUMP JUMPDEST SWAP2 POP PUSH3 0x116 DUP4 PUSH3 0xC7 JUMP JUMPDEST SWAP3 POP DUP3 DUP3 ADD SWAP1 POP DUP1 DUP3 GT ISZERO PUSH3 0x131 JUMPI PUSH3 0x130 PUSH3 0xD0 JUMP JUMPDEST JUMPDEST SWAP3 SWAP2 POP POP JUMP JUMPDEST PUSH0 PUSH4 0xFFFFFFFF DUP3 AND SWAP1 POP SWAP2 SWAP1 POP JUMP JUMPDEST PUSH0 PUSH3 0x152 DUP3 PUSH3 0x137 JUMP JUMPDEST SWAP2 POP PUSH4 0xFFFFFFFF DUP3 SUB PUSH3 0x16B JUMPI PUSH3 0x16A PUSH3 0xD0 JUMP JUMPDEST JUMPDEST PUSH1 0x1 DUP3 ADD SWAP1 POP SWAP2 SWAP1 POP JUMP JUMPDEST PUSH1 0x80 MLOAD PUSH2 0xF97 PUSH3 0x19D PUSH0 CODECOPY PUSH0 DUP2 DUP2 PUSH2 0x1DC ADD MSTORE DUP2 DUP2 PUSH2 0x5FD ADD MSTORE PUSH2 0x754 ADD MSTORE PUSH2 0xF97 PUSH0 RETURN INVALID PUSH1 0x80 PUSH1 0x40 MSTORE CALLVALUE DUP1 ISZERO PUSH2 0xF JUMPI PUSH0 DUP1 REVERT JUMPDEST POP PUSH1 0x4 CALLDATASIZE LT PUSH2 0xA7 JUMPI PUSH0 CALLDATALOAD PUSH1 0xE0 SHR DUP1 PUSH4 0x6CF106D7 GT PUSH2 0x6F JUMPI DUP1 PUSH4 0x6CF106D7 EQ PUSH2 0x12B JUMPI DUP1 PUSH4 0xB5C09C68 EQ PUSH2 0x149 JUMPI DUP1 PUSH4 0xC387B49C EQ PUSH2 0x165 JUMPI DUP1 PUSH4 0xCA4CCE68 EQ PUSH2 0x183 JUMPI DUP1 PUSH4 0xE47A9D46 EQ PUSH2 0x19F JUMPI DUP1 PUSH4 0xEE7126C3 EQ PUSH2 0x1BD JUMPI PUSH2 0xA7 JUMP JUMPDEST DUP1 PUSH4 0x54203BD EQ PUSH2 0xAB JUMPI DUP1 PUSH4 0xDF4C390 EQ PUSH2 0xC7 JUMPI DUP1 PUSH4 0x289B3C0D EQ PUSH2 0xD1 JUMPI DUP1 PUSH4 0x4C7AC835 EQ PUSH2 0xEF JUMPI DUP1 PUSH4 0x66410997 EQ PUSH2 0x10D JUMPI JUMPDEST PUSH0 DUP1 REVERT JUMPDEST PUSH2 0xC5 PUSH1 0x4 DUP1 CALLDATASIZE SUB DUP2 ADD SWAP1 PUSH2 0xC0 SWAP2 SWAP1 PUSH2 0xD40 JUMP JUMPDEST PUSH2 0x1D9 JUMP JUMPDEST STOP JUMPDEST PUSH2 0xCF PUSH2 0x38F JUMP JUMPDEST STOP JUMPDEST PUSH2 0xD9 PUSH2 0x567 JUMP JUMPDEST PUSH1 0x40 MLOAD PUSH2 0xE6 SWAP2 SWAP1 PUSH2 0xD7A JUMP JUMPDEST PUSH1 0x40 MLOAD DUP1 SWAP2 SUB SWAP1 RETURN JUMPDEST PUSH2 0xF7 PUSH2 0x591 JUMP JUMPDEST PUSH1 0x40 MLOAD PUSH2 0x104 SWAP2 SWAP1 PUSH2 0xD7A JUMP JUMPDEST PUSH1 0x40 MLOAD DUP1 SWAP2 SUB SWAP1 RETURN JUMPDEST PUSH2 0x115 PUSH2 0x5B8 JUMP JUMPDEST PUSH1 0x40 MLOAD PUSH2 0x122 SWAP2 SWAP1 PUSH2 0xD7A JUMP JUMPDEST PUSH1 0x40 MLOAD DUP1 SWAP2 SUB SWAP1 RETURN JUMPDEST PUSH2 0x133 PUSH2 0x5E2 JUMP JUMPDEST PUSH1 0x40 MLOAD PUSH2 0x140 SWAP2 SWAP1 PUSH2 0xDAD JUMP JUMPDEST PUSH1 0x40 MLOAD DUP1 SWAP2 SUB SWAP1 RETURN JUMPDEST PUSH2 0x163 PUSH1 0x4 DUP1 CALLDATASIZE SUB DUP2 ADD SWAP1 PUSH2 0x15E SWAP2 SWAP1 PUSH2 0xDF0 JUMP JUMPDEST PUSH2 0x5FA JUMP JUMPDEST STOP JUMPDEST PUSH2 0x16D PUSH2 0x736 JUMP JUMPDEST PUSH1 0x40 MLOAD PUSH2 0x17A SWAP2 SWAP1 PUSH2 0xE39 JUMP JUMPDEST PUSH1 0x40 MLOAD DUP1 SWAP2 SUB SWAP1 RETURN JUMPDEST PUSH2 0x19D PUSH1 0x4 DUP1 CALLDATASIZE SUB DUP2 ADD SWAP1 PUSH2 0x198 SWAP2 SWAP1 PUSH2 0xD40 JUMP JUMPDEST PUSH2 0x751 JUMP JUMPDEST STOP JUMPDEST PUSH2 0x1A7 PUSH2 0x968 JUMP JUMPDEST PUSH1 0x40 MLOAD PUSH2 0x1B4 SWAP2 SWAP1 PUSH2 0xD7A JUMP JUMPDEST PUSH1 0x40 MLOAD DUP1 SWAP2 SUB SWAP1 RETURN JUMPDEST PUSH2 0x1D7 PUSH1 0x4 DUP1 CALLDATASIZE SUB DUP2 ADD SWAP1 PUSH2 0x1D2 SWAP2 SWAP1 PUSH2 0xD40 JUMP JUMPDEST PUSH2 0x96F JUMP JUMPDEST STOP JUMPDEST TIMESTAMP PUSH32 0x0 PUSH6 0xFFFFFFFFFFFF AND LT ISZERO PUSH2 0x283 JUMPI PUSH2 0x211 PUSH2 0x591 JUMP JUMPDEST PUSH20 0xFFFFFFFFFFFFFFFFFFFFFFFFFFFFFFFFFFFFFFFF AND CALLER PUSH20 0xFFFFFFFFFFFFFFFFFFFFFFFFFFFFFFFFFFFFFFFF AND EQ PUSH2 0x27E JUMPI PUSH1 0x40 MLOAD PUSH32 0x8C379A000000000000000000000000000000000000000000000000000000000 DUP2 MSTORE PUSH1 0x4 ADD PUSH2 0x275 SWAP1 PUSH2 0xEAC JUMP JUMPDEST PUSH1 0x40 MLOAD DUP1 SWAP2 SUB SWAP1 REVERT JUMPDEST PUSH2 0x309 JUMP JUMPDEST PUSH2 0x28B PUSH2 0x5B8 JUMP JUMPDEST PUSH20 0xFFFFFFFFFFFFFFFFFFFFFFFFFFFFFFFFFFFFFFFF AND CALLER PUSH20 0xFFFFFFFFFFFFFFFFFFFFFFFFFFFFFFFFFFFFFFFF AND EQ DUP1 ISZERO PUSH2 0x2C9 JUMPI POP PUSH2 0x2C8 PUSH2 0x5E2 JUMP JUMPDEST JUMPDEST PUSH2 0x308 JUMPI PUSH1 0x40 MLOAD PUSH32 0x8C379A000000000000000000000000000000000000000000000000000000000 DUP2 MSTORE PUSH1 0x4 ADD PUSH2 0x2FF SWAP1 PUSH2 0xEAC JUMP JUMPDEST PUSH1 0x40 MLOAD DUP1 SWAP2 SUB SWAP1 REVERT JUMPDEST JUMPDEST DUP1 PUSH1 0x2 PUSH0 PUSH2 0x100 EXP DUP2 SLOAD DUP2 PUSH20 0xFFFFFFFFFFFFFFFFFFFFFFFFFFFFFFFFFFFFFFFF MUL NOT AND SWAP1 DUP4 PUSH20 0xFFFFFFFFFFFFFFFFFFFFFFFFFFFFFFFFFFFFFFFF AND MUL OR SWAP1 SSTORE POP DUP1 PUSH20 0xFFFFFFFFFFFFFFFFFFFFFFFFFFFFFFFFFFFFFFFF AND PUSH32 0x3553F1F7EF0242113266A8D183B621BB87468C99237F36B1150B6AB3D688B686 PUSH1 0x40 MLOAD PUSH1 0x40 MLOAD DUP1 SWAP2 SUB SWAP1 LOG2 POP JUMP JUMPDEST CALLER PUSH20 0xFFFFFFFFFFFFFFFFFFFFFFFFFFFFFFFFFFFFFFFF AND PUSH1 0x2 PUSH0 SWAP1 SLOAD SWAP1 PUSH2 0x100 EXP SWAP1 DIV PUSH20 0xFFFFFFFFFFFFFFFFFFFFFFFFFFFFFFFFFFFFFFFF AND PUSH20 0xFFFFFFFFFFFFFFFFFFFFFFFFFFFFFFFFFFFFFFFF AND SUB PUSH2 0x533 JUMPI PUSH1 0x2 PUSH0 PUSH2 0x100 EXP DUP2 SLOAD SWAP1 PUSH20 0xFFFFFFFFFFFFFFFFFFFFFFFFFFFFFFFFFFFFFFFF MUL NOT AND SWAP1 SSTORE CALLER PUSH1 0x3 PUSH0 ADD PUSH0 PUSH2 0x100 EXP DUP2 SLOAD DUP2 PUSH20 0xFFFFFFFFFFFFFFFFFFFFFFFFFFFFFFFFFFFFFFFF MUL NOT AND SWAP1 DUP4 PUSH20 0xFFFFFFFFFFFFFFFFFFFFFFFFFFFFFFFFFFFFFFFF AND MUL OR SWAP1 SSTORE POP PUSH1 0x3 PUSH0 ADD PUSH1 0x15 DUP2 DUP2 SWAP1 SLOAD SWAP1 PUSH2 0x100 EXP SWAP1 DIV PUSH4 0xFFFFFFFF AND DUP1 SWAP3 SWAP2 SWAP1 PUSH2 0x46D SWAP1 PUSH2 0xEF7 JUMP JUMPDEST SWAP2 SWAP1 PUSH2 0x100 EXP DUP2 SLOAD DUP2 PUSH4 0xFFFFFFFF MUL NOT AND SWAP1 DUP4 PUSH4 0xFFFFFFFF AND MUL OR SWAP1 SSTORE POP POP PUSH1 0x3 PUSH0 ADD PUSH1 0x14 SWAP1 SLOAD SWAP1 PUSH2 0x100 EXP SWAP1 DIV PUSH1 0xFF AND ISZERO PUSH2 0x4AD JUMPI PUSH2 0x4AC PUSH0 PUSH2 0xBB7 JUMP JUMPDEST JUMPDEST PUSH1 0x3 PUSH0 ADD PUSH1 0x15 SWAP1 SLOAD SWAP1 PUSH2 0x100 EXP SWAP1 DIV PUSH4 0xFFFFFFFF AND PUSH4 0xFFFFFFFF AND PUSH1 0x3 PUSH0 ADD PUSH0 SWAP1 SLOAD SWAP1 PUSH2 0x100 EXP SWAP1 DIV PUSH20 0xFFFFFFFFFFFFFFFFFFFFFFFFFFFFFFFFFFFFFFFF AND PUSH20 0xFFFFFFFFFFFFFFFFFFFFFFFFFFFFFFFFFFFFFFFF AND PUSH32 0x5AD9B3688012CD825C1BFB941E4F5AFB2558AF6AF3DEADDF01DBB5E85ABDAF9 PUSH1 0x40 MLOAD PUSH1 0x40 MLOAD DUP1 SWAP2 SUB SWAP1 LOG3 PUSH2 0x565 JUMP JUMPDEST PUSH1 0x40 MLOAD PUSH32 0xB513955100000000000000000000000000000000000000000000000000000000 DUP2 MSTORE PUSH1 0x4 ADD PUSH1 0x40 MLOAD DUP1 SWAP2 SUB SWAP1 REVERT JUMPDEST JUMP JUMPDEST PUSH0 PUSH1 0x4 PUSH0 ADD PUSH0 SWAP1 SLOAD SWAP1 PUSH2 0x100 EXP SWAP1 DIV PUSH20 0xFFFFFFFFFFFFFFFFFFFFFFFFFFFFFFFFFFFFFFFF AND SWAP1 POP SWAP1 JUMP JUMPDEST PUSH0 DUP1 PUSH0 SWAP1 SLOAD SWAP1 PUSH2 0x100 EXP SWAP1 DIV PUSH20 0xFFFFFFFFFFFFFFFFFFFFFFFFFFFFFFFFFFFFFFFF AND SWAP1 POP SWAP1 JUMP JUMPDEST PUSH0 PUSH1 0x3 PUSH0 ADD PUSH0 SWAP1 SLOAD SWAP1 PUSH2 0x100 EXP SWAP1 DIV PUSH20 0xFFFFFFFFFFFFFFFFFFFFFFFFFFFFFFFFFFFFFFFF AND SWAP1 POP SWAP1 JUMP JUMPDEST PUSH0 PUSH1 0x3 PUSH0 ADD PUSH1 0x14 SWAP1 SLOAD SWAP1 PUSH2 0x100 EXP SWAP1 DIV PUSH1 0xFF AND SWAP1 POP SWAP1 JUMP JUMPDEST TIMESTAMP PUSH32 0x0 PUSH6 0xFFFFFFFFFFFF AND LT ISZERO PUSH2 0x6A4 JUMPI PUSH2 0x632 PUSH2 0x591 JUMP JUMPDEST PUSH20 0xFFFFFFFFFFFFFFFFFFFFFFFFFFFFFFFFFFFFFFFF AND CALLER PUSH20 0xFFFFFFFFFFFFFFFFFFFFFFFFFFFFFFFFFFFFFFFF AND EQ PUSH2 0x69F JUMPI PUSH1 0x40 MLOAD PUSH32 0x8C379A000000000000000000000000000000000000000000000000000000000 DUP2 MSTORE PUSH1 0x4 ADD PUSH2 0x696 SWAP1 PUSH2 0xEAC JUMP JUMPDEST PUSH1 0x40 MLOAD DUP1 SWAP2 SUB SWAP1 REVERT JUMPDEST PUSH2 0x72A JUMP JUMPDEST PUSH2 0x6AC PUSH2 0x5B8 JUMP JUMPDEST PUSH20 0xFFFFFFFFFFFFFFFFFFFFFFFFFFFFFFFFFFFFFFFF AND CALLER PUSH20 0xFFFFFFFFFFFFFFFFFFFFFFFFFFFFFFFFFFFFFFFF AND EQ DUP1 ISZERO PUSH2 0x6EA JUMPI POP PUSH2 0x6E9 PUSH2 0x5E2 JUMP JUMPDEST JUMPDEST PUSH2 0x729 JUMPI PUSH1 0x40 MLOAD PUSH32 0x8C379A000000000000000000000000000000000000000000000000000000000 DUP2 MSTORE PUSH1 0x4 ADD PUSH2 0x720 SWAP1 PUSH2 0xEAC JUMP JUMPDEST PUSH1 0x40 MLOAD DUP1 SWAP2 SUB SWAP1 REVERT JUMPDEST JUMPDEST PUSH2 0x733 DUP2 PUSH2 0xBB7 JUMP JUMPDEST POP JUMP JUMPDEST PUSH0 PUSH1 0x4 PUSH0 ADD PUSH1 0x15 SWAP1 SLOAD SWAP1 PUSH2 0x100 EXP SWAP1 DIV PUSH4 0xFFFFFFFF AND SWAP1 POP SWAP1 JUMP JUMPDEST TIMESTAMP PUSH32 0x0 PUSH6 0xFFFFFFFFFFFF AND LT ISZERO PUSH2 0x7FB JUMPI PUSH2 0x789 PUSH2 0x591 JUMP JUMPDEST PUSH20 0xFFFFFFFFFFFFFFFFFFFFFFFFFFFFFFFFFFFFFFFF AND CALLER PUSH20 0xFFFFFFFFFFFFFFFFFFFFFFFFFFFFFFFFFFFFFFFF AND EQ PUSH2 0x7F6 JUMPI PUSH1 0x40 MLOAD PUSH32 0x8C379A000000000000000000000000000000000000000000000000000000000 DUP2 MSTORE PUSH1 0x4 ADD PUSH2 0x7ED SWAP1 PUSH2 0xEAC JUMP JUMPDEST PUSH1 0x40 MLOAD DUP1 SWAP2 SUB SWAP1 REVERT JUMPDEST PUSH2 0x881 JUMP JUMPDEST PUSH2 0x803 PUSH2 0x5B8 JUMP JUMPDEST PUSH20 0xFFFFFFFFFFFFFFFFFFFFFFFFFFFFFFFFFFFFFFFF AND CALLER PUSH20 0xFFFFFFFFFFFFFFFFFFFFFFFFFFFFFFFFFFFFFFFF AND EQ DUP1 ISZERO PUSH2 0x841 JUMPI POP PUSH2 0x840 PUSH2 0x5E2 JUMP JUMPDEST JUMPDEST PUSH2 0x880 JUMPI PUSH1 0x40 MLOAD PUSH32 0x8C379A000000000000000000000000000000000000000000000000000000000 DUP2 MSTORE PUSH1 0x4 ADD PUSH2 0x877 SWAP1 PUSH2 0xEAC JUMP JUMPDEST PUSH1 0x40 MLOAD DUP1 SWAP2 SUB SWAP1 REVERT JUMPDEST JUMPDEST PUSH0 DUP2 PUSH20 0xFFFFFFFFFFFFFFFFFFFFFFFFFFFFFFFFFFFFFFFF AND EXTCODESIZE GT ISZERO PUSH2 0x928 JUMPI DUP1 PUSH1 0x1 PUSH0 PUSH2 0x100 EXP DUP2 SLOAD DUP2 PUSH20 0xFFFFFFFFFFFFFFFFFFFFFFFFFFFFFFFFFFFFFFFF MUL NOT AND SWAP1 DUP4 PUSH20 0xFFFFFFFFFFFFFFFFFFFFFFFFFFFFFFFFFFFFFFFF AND MUL OR SWAP1 SSTORE POP DUP1 PUSH20 0xFFFFFFFFFFFFFFFFFFFFFFFFFFFFFFFFFFFFFFFF AND PUSH32 0xE8D8E3C7C3EBEC0C177D0FE22D223F8B5071DB39155104808D45027E368BA77A PUSH1 0x40 MLOAD PUSH1 0x40 MLOAD DUP1 SWAP2 SUB SWAP1 LOG2 PUSH2 0x965 JUMP JUMPDEST DUP1 PUSH1 0x40 MLOAD PUSH32 0x84DBC6CB00000000000000000000000000000000000000000000000000000000 DUP2 MSTORE PUSH1 0x4 ADD PUSH2 0x95C SWAP2 SWAP1 PUSH2 0xD7A JUMP JUMPDEST PUSH1 0x40 MLOAD DUP1 SWAP2 SUB SWAP1 REVERT JUMPDEST POP JUMP JUMPDEST PUSH0 ADDRESS SWAP1 POP SWAP1 JUMP JUMPDEST PUSH2 0x977 PUSH2 0x5B8 JUMP JUMPDEST PUSH20 0xFFFFFFFFFFFFFFFFFFFFFFFFFFFFFFFFFFFFFFFF AND CALLER PUSH20 0xFFFFFFFFFFFFFFFFFFFFFFFFFFFFFFFFFFFFFFFF AND EQ DUP1 ISZERO PUSH2 0x9B5 JUMPI POP PUSH2 0x9B4 PUSH2 0x5E2 JUMP JUMPDEST JUMPDEST PUSH2 0x9F4 JUMPI PUSH1 0x40 MLOAD PUSH32 0x8C379A000000000000000000000000000000000000000000000000000000000 DUP2 MSTORE PUSH1 0x4 ADD PUSH2 0x9EB SWAP1 PUSH2 0xEAC JUMP JUMPDEST PUSH1 0x40 MLOAD DUP1 SWAP2 SUB SWAP1 REVERT JUMPDEST DUP1 PUSH20 0xFFFFFFFFFFFFFFFFFFFFFFFFFFFFFFFFFFFFFFFF AND PUSH1 0x1 PUSH0 SWAP1 SLOAD SWAP1 PUSH2 0x100 EXP SWAP1 DIV PUSH20 0xFFFFFFFFFFFFFFFFFFFFFFFFFFFFFFFFFFFFFFFF AND PUSH20 0xFFFFFFFFFFFFFFFFFFFFFFFFFFFFFFFFFFFFFFFF AND SUB PUSH2 0xB77 JUMPI PUSH1 0x1 PUSH0 PUSH2 0x100 EXP DUP2 SLOAD SWAP1 PUSH20 0xFFFFFFFFFFFFFFFFFFFFFFFFFFFFFFFFFFFFFFFF MUL NOT AND SWAP1 SSTORE DUP1 PUSH1 0x4 PUSH0 ADD PUSH0 PUSH2 0x100 EXP DUP2 SLOAD DUP2 PUSH20 0xFFFFFFFFFFFFFFFFFFFFFFFFFFFFFFFFFFFFFFFF MUL NOT AND SWAP1 DUP4 PUSH20 0xFFFFFFFFFFFFFFFFFFFFFFFFFFFFFFFFFFFFFFFF AND MUL OR SWAP1 SSTORE POP PUSH1 0x4 PUSH0 ADD PUSH1 0x15 DUP2 DUP2 SWAP1 SLOAD SWAP1 PUSH2 0x100 EXP SWAP1 DIV PUSH4 0xFFFFFFFF AND DUP1 SWAP3 SWAP2 SWAP1 PUSH2 0xAD2 SWAP1 PUSH2 0xEF7 JUMP JUMPDEST SWAP2 SWAP1 PUSH2 0x100 EXP DUP2 SLOAD DUP2 PUSH4 0xFFFFFFFF MUL NOT AND SWAP1 DUP4 PUSH4 0xFFFFFFFF AND MUL OR SWAP1 SSTORE POP POP PUSH1 0x4 PUSH0 ADD PUSH1 0x15 SWAP1 SLOAD SWAP1 PUSH2 0x100 EXP SWAP1 DIV PUSH4 0xFFFFFFFF AND PUSH4 0xFFFFFFFF AND PUSH1 0x4 PUSH0 ADD PUSH0 SWAP1 SLOAD SWAP1 PUSH2 0x100 EXP SWAP1 DIV PUSH20 0xFFFFFFFFFFFFFFFFFFFFFFFFFFFFFFFFFFFFFFFF AND PUSH20 0xFFFFFFFFFFFFFFFFFFFFFFFFFFFFFFFFFFFFFFFF AND PUSH32 0x5E86008A8467D1EFCCFE6CB6BD49BA7278D6AF2745A1E6994E443322A4237093 PUSH1 0x40 MLOAD PUSH1 0x40 MLOAD DUP1 SWAP2 SUB SWAP1 LOG3 PUSH2 0xBB4 JUMP JUMPDEST DUP1 PUSH1 0x40 MLOAD PUSH32 0x84DBC6CB00000000000000000000000000000000000000000000000000000000 DUP2 MSTORE PUSH1 0x4 ADD PUSH2 0xBAB SWAP2 SWAP1 PUSH2 0xD7A JUMP JUMPDEST PUSH1 0x40 MLOAD DUP1 SWAP2 SUB SWAP1 REVERT JUMPDEST POP JUMP JUMPDEST DUP1 PUSH1 0x3 PUSH0 ADD PUSH1 0x14 PUSH2 0x100 EXP DUP2 SLOAD DUP2 PUSH1 0xFF MUL NOT AND SWAP1 DUP4 ISZERO ISZERO MUL OR SWAP1 SSTORE POP PUSH1 0x4 PUSH0 ADD PUSH0 SWAP1 SLOAD SWAP1 PUSH2 0x100 EXP SWAP1 DIV PUSH20 0xFFFFFFFFFFFFFFFFFFFFFFFFFFFFFFFFFFFFFFFF AND PUSH20 0xFFFFFFFFFFFFFFFFFFFFFFFFFFFFFFFFFFFFFFFF AND PUSH4 0xF4E25380 DUP3 PUSH1 0x40 MLOAD DUP3 PUSH4 0xFFFFFFFF AND PUSH1 0xE0 SHL DUP2 MSTORE PUSH1 0x4 ADD PUSH2 0xC2F SWAP2 SWAP1 PUSH2 0xDAD JUMP JUMPDEST PUSH1 0x20 PUSH1 0x40 MLOAD DUP1 DUP4 SUB DUP2 PUSH0 DUP8 GAS CALL ISZERO DUP1 ISZERO PUSH2 0xC4B JUMPI RETURNDATASIZE PUSH0 DUP1 RETURNDATACOPY RETURNDATASIZE PUSH0 REVERT JUMPDEST POP POP POP POP PUSH1 0x40 MLOAD RETURNDATASIZE PUSH1 0x1F NOT PUSH1 0x1F DUP3 ADD AND DUP3 ADD DUP1 PUSH1 0x40 MSTORE POP DUP2 ADD SWAP1 PUSH2 0xC6F SWAP2 SWAP1 PUSH2 0xF36 JUMP JUMPDEST ISZERO PUSH2 0xCAC JUMPI PUSH1 0x1 ISZERO ISZERO DUP2 ISZERO ISZERO PUSH32 0x67D0BD9A6167D98B43392618557D3CBA4AA9B3C54791C0B96F1A20A05EB8B84 PUSH1 0x40 MLOAD PUSH1 0x40 MLOAD DUP1 SWAP2 SUB SWAP1 LOG3 PUSH2 0xCDF JUMP JUMPDEST PUSH0 ISZERO ISZERO DUP2 ISZERO ISZERO PUSH32 0x67D0BD9A6167D98B43392618557D3CBA4AA9B3C54791C0B96F1A20A05EB8B84 PUSH1 0x40 MLOAD PUSH1 0x40 MLOAD DUP1 SWAP2 SUB SWAP1 LOG3 JUMPDEST POP JUMP JUMPDEST PUSH0 DUP1 REVERT JUMPDEST PUSH0 PUSH20 0xFFFFFFFFFFFFFFFFFFFFFFFFFFFFFFFFFFFFFFFF DUP3 AND SWAP1 POP SWAP2 SWAP1 POP JUMP JUMPDEST PUSH0 PUSH2 0xD0F DUP3 PUSH2 0xCE6 JUMP JUMPDEST SWAP1 POP SWAP2 SWAP1 POP JUMP JUMPDEST PUSH2 0xD1F DUP2 PUSH2 0xD05 JUMP JUMPDEST DUP2 EQ PUSH2 0xD29 JUMPI PUSH0 DUP1 REVERT JUMPDEST POP JUMP JUMPDEST PUSH0 DUP2 CALLDATALOAD SWAP1 POP PUSH2 0xD3A DUP2 PUSH2 0xD16 JUMP JUMPDEST SWAP3 SWAP2 POP POP JUMP JUMPDEST PUSH0 PUSH1 0x20 DUP3 DUP5 SUB SLT ISZERO PUSH2 0xD55 JUMPI PUSH2 0xD54 PUSH2 0xCE2 JUMP JUMPDEST JUMPDEST PUSH0 PUSH2 0xD62 DUP5 DUP3 DUP6 ADD PUSH2 0xD2C JUMP JUMPDEST SWAP2 POP POP SWAP3 SWAP2 POP POP JUMP JUMPDEST PUSH2 0xD74 DUP2 PUSH2 0xD05 JUMP JUMPDEST DUP3 MSTORE POP POP JUMP JUMPDEST PUSH0 PUSH1 0x20 DUP3 ADD SWAP1 POP PUSH2 0xD8D PUSH0 DUP4 ADD DUP5 PUSH2 0xD6B JUMP JUMPDEST SWAP3 SWAP2 POP POP JUMP JUMPDEST PUSH0 DUP2 ISZERO ISZERO SWAP1 POP SWAP2 SWAP1 POP JUMP JUMPDEST PUSH2 0xDA7 DUP2 PUSH2 0xD93 JUMP JUMPDEST DUP3 MSTORE POP POP JUMP JUMPDEST PUSH0 PUSH1 0x20 DUP3 ADD SWAP1 POP PUSH2 0xDC0 PUSH0 DUP4 ADD DUP5 PUSH2 0xD9E JUMP JUMPDEST SWAP3 SWAP2 POP POP JUMP JUMPDEST PUSH2 0xDCF DUP2 PUSH2 0xD93 JUMP JUMPDEST DUP2 EQ PUSH2 0xDD9 JUMPI PUSH0 DUP1 REVERT JUMPDEST POP JUMP JUMPDEST PUSH0 DUP2 CALLDATALOAD SWAP1 POP PUSH2 0xDEA DUP2 PUSH2 0xDC6 JUMP JUMPDEST SWAP3 SWAP2 POP POP JUMP JUMPDEST PUSH0 PUSH1 0x20 DUP3 DUP5 SUB SLT ISZERO PUSH2 0xE05 JUMPI PUSH2 0xE04 PUSH2 0xCE2 JUMP JUMPDEST JUMPDEST PUSH0 PUSH2 0xE12 DUP5 DUP3 DUP6 ADD PUSH2 0xDDC JUMP JUMPDEST SWAP2 POP POP SWAP3 SWAP2 POP POP JUMP JUMPDEST PUSH0 PUSH4 0xFFFFFFFF DUP3 AND SWAP1 POP SWAP2 SWAP1 POP JUMP JUMPDEST PUSH2 0xE33 DUP2 PUSH2 0xE1B JUMP JUMPDEST DUP3 MSTORE POP POP JUMP JUMPDEST PUSH0 PUSH1 0x20 DUP3 ADD SWAP1 POP PUSH2 0xE4C PUSH0 DUP4 ADD DUP5 PUSH2 0xE2A JUMP JUMPDEST SWAP3 SWAP2 POP POP JUMP JUMPDEST PUSH0 DUP3 DUP3 MSTORE PUSH1 0x20 DUP3 ADD SWAP1 POP SWAP3 SWAP2 POP POP JUMP JUMPDEST PUSH32 0x416363657373206973206E6F742076616C696400000000000000000000000000 PUSH0 DUP3 ADD MSTORE POP JUMP JUMPDEST PUSH0 PUSH2 0xE96 PUSH1 0x13 DUP4 PUSH2 0xE52 JUMP JUMPDEST SWAP2 POP PUSH2 0xEA1 DUP3 PUSH2 0xE62 JUMP JUMPDEST PUSH1 0x20 DUP3 ADD SWAP1 POP SWAP2 SWAP1 POP JUMP JUMPDEST PUSH0 PUSH1 0x20 DUP3 ADD SWAP1 POP DUP2 DUP2 SUB PUSH0 DUP4 ADD MSTORE PUSH2 0xEC3 DUP2 PUSH2 0xE8A JUMP JUMPDEST SWAP1 POP SWAP2 SWAP1 POP JUMP JUMPDEST PUSH32 0x4E487B7100000000000000000000000000000000000000000000000000000000 PUSH0 MSTORE PUSH1 0x11 PUSH1 0x4 MSTORE PUSH1 0x24 PUSH0 REVERT JUMPDEST PUSH0 PUSH2 0xF01 DUP3 PUSH2 0xE1B JUMP JUMPDEST SWAP2 POP PUSH4 0xFFFFFFFF DUP3 SUB PUSH2 0xF17 JUMPI PUSH2 0xF16 PUSH2 0xECA JUMP JUMPDEST JUMPDEST PUSH1 0x1 DUP3 ADD SWAP1 POP SWAP2 SWAP1 POP JUMP JUMPDEST PUSH0 DUP2 MLOAD SWAP1 POP PUSH2 0xF30 DUP2 PUSH2 0xDC6 JUMP JUMPDEST SWAP3 SWAP2 POP POP JUMP JUMPDEST PUSH0 PUSH1 0x20 DUP3 DUP5 SUB SLT ISZERO PUSH2 0xF4B JUMPI PUSH2 0xF4A PUSH2 0xCE2 JUMP JUMPDEST JUMPDEST PUSH0 PUSH2 0xF58 DUP5 DUP3 DUP6 ADD PUSH2 0xF22 JUMP JUMPDEST SWAP2 POP POP SWAP3 SWAP2 POP POP JUMP INVALID LOG2 PUSH5 0x6970667358 0x22 SLT KECCAK256 DUP1 0x4E EXTCODESIZE 0xAA MULMOD PUSH22 0xB15B39E2B326F6668556875535CED9EA341DD34B890D 0xDF 0x1F 0xCB DUP10 PUSH5 0x736F6C6343 STOP ADDMOD EQ STOP CALLER "
				},
				"gasEstimates": {
					"creation": {
						"codeDepositCost": "798200",
						"executionCost": "infinite",
						"totalCost": "infinite"
					},
					"external": {
						"getAuthorityAddress()": "467",
						"getGovernance()": "2565",
						"getPresidentAdd()": "2609",
						"getPresidentBan()": "2529",
						"getRepublic_GAddress()": "2582",
						"getgovernanceVersion()": "2573",
						"setPendigPresident(address)": "infinite",
						"setPendingGovernanceContractAddress(address)": "infinite",
						"setPresidentBaned(bool)": "infinite",
						"transferGovernanceContractAddress(address)": "infinite",
						"transferPresident()": "infinite"
					},
					"internal": {
						"_setPresidentBaned(bool)": "infinite"
					}
				},
				"methodIdentifiers": {
					"getAuthorityAddress()": "e47a9d46",
					"getGovernance()": "289b3c0d",
					"getPresidentAdd()": "66410997",
					"getPresidentBan()": "6cf106d7",
					"getRepublic_GAddress()": "4c7ac835",
					"getgovernanceVersion()": "c387b49c",
					"setPendigPresident(address)": "054203bd",
					"setPendingGovernanceContractAddress(address)": "ca4cce68",
					"setPresidentBaned(bool)": "b5c09c68",
					"transferGovernanceContractAddress(address)": "ee7126c3",
					"transferPresident()": "0df4c390"
				}
			},
			"storageLayout": {
				"storage": [
					{
						"astId": 3,
						"contract": "contracts/authority.sol:Authority",
						"label": "_RepublicGAddress",
						"offset": 0,
						"slot": "0",
						"type": "t_address"
					},
					{
						"astId": 60,
						"contract": "contracts/authority.sol:Authority",
						"label": "_pendingGCAddress",
						"offset": 0,
						"slot": "1",
						"type": "t_address"
					},
					{
						"astId": 62,
						"contract": "contracts/authority.sol:Authority",
						"label": "_pendigPresident",
						"offset": 0,
						"slot": "2",
						"type": "t_address"
					},
					{
						"astId": 74,
						"contract": "contracts/authority.sol:Authority",
						"label": "_president",
						"offset": 0,
						"slot": "3",
						"type": "t_struct(access)71_storage"
					},
					{
						"astId": 77,
						"contract": "contracts/authority.sol:Authority",
						"label": "_governance",
						"offset": 0,
						"slot": "4",
						"type": "t_struct(access)71_storage"
					}
				],
				"types": {
					"t_address": {
						"encoding": "inplace",
						"label": "address",
						"numberOfBytes": "20"
					},
					"t_bool": {
						"encoding": "inplace",
						"label": "bool",
						"numberOfBytes": "1"
					},
					"t_struct(access)71_storage": {
						"encoding": "inplace",
						"label": "struct Authority.access",
						"members": [
							{
								"astId": 66,
								"contract": "contracts/authority.sol:Authority",
								"label": "rolAdd",
								"offset": 0,
								"slot": "0",
								"type": "t_address"
							},
							{
								"astId": 68,
								"contract": "contracts/authority.sol:Authority",
								"label": "baned",
								"offset": 20,
								"slot": "0",
								"type": "t_bool"
							},
							{
								"astId": 70,
								"contract": "contracts/authority.sol:Authority",
								"label": "nonce",
								"offset": 21,
								"slot": "0",
								"type": "t_uint32"
							}
						],
						"numberOfBytes": "32"
					},
					"t_uint32": {
						"encoding": "inplace",
						"label": "uint32",
						"numberOfBytes": "4"
					}
				}
			},
			"userdoc": {
				"kind": "user",
				"methods": {},
				"version": 1
			}
		}
	}
}