{
	"contracts/authority.sol": {
		"Authorrity": {
			"abi": [
				{
					"inputs": [],
					"stateMutability": "nonpayable",
					"type": "constructor"
				},
				{
					"inputs": [],
					"name": "AccessOnlyForThePendigPresident",
					"type": "error"
				},
				{
					"inputs": [
						{
							"internalType": "address",
							"name": "NewGCAddress",
							"type": "address"
						}
					],
					"name": "TheAddressIsNotValidForGC",
					"type": "error"
				},
				{
					"anonymous": false,
					"inputs": [
						{
							"indexed": true,
							"internalType": "address",
							"name": "GCAddress",
							"type": "address"
						},
						{
							"indexed": true,
							"internalType": "uint32",
							"name": "version",
							"type": "uint32"
						}
					],
					"name": "TheNewGCAddressWasConfirmed",
					"type": "event"
				},
				{
					"anonymous": false,
					"inputs": [
						{
							"indexed": true,
							"internalType": "address",
							"name": "presidentAdd",
							"type": "address"
						},
						{
							"indexed": true,
							"internalType": "uint32",
							"name": "nonce",
							"type": "uint32"
						}
					],
					"name": "TheNewPresidentWasConfirmed",
					"type": "event"
				},
				{
					"anonymous": false,
					"inputs": [
						{
							"indexed": true,
							"internalType": "address",
							"name": "newGCAddress",
							"type": "address"
						}
					],
					"name": "TheNextGCAddressWasElected",
					"type": "event"
				},
				{
					"anonymous": false,
					"inputs": [
						{
							"indexed": true,
							"internalType": "address",
							"name": "newPresidentAdd",
							"type": "address"
						}
					],
					"name": "TheNextPresidentWasElected",
					"type": "event"
				},
				{
					"inputs": [],
					"name": "getGovernance",
					"outputs": [
						{
							"internalType": "address",
							"name": "",
							"type": "address"
						}
					],
					"stateMutability": "view",
					"type": "function"
				},
				{
					"inputs": [],
					"name": "getPresidentAdd",
					"outputs": [
						{
							"internalType": "address",
							"name": "",
							"type": "address"
						}
					],
					"stateMutability": "view",
					"type": "function"
				},
				{
					"inputs": [],
					"name": "getPresidentBan",
					"outputs": [
						{
							"internalType": "bool",
							"name": "",
							"type": "bool"
						}
					],
					"stateMutability": "view",
					"type": "function"
				},
				{
					"inputs": [],
					"name": "getRepublic_GAddress",
					"outputs": [
						{
							"internalType": "address",
							"name": "RG",
							"type": "address"
						}
					],
					"stateMutability": "view",
					"type": "function"
				},
				{
					"inputs": [],
					"name": "getgovernanceVersion",
					"outputs": [
						{
							"internalType": "uint32",
							"name": "",
							"type": "uint32"
						}
					],
					"stateMutability": "view",
					"type": "function"
				},
				{
					"inputs": [
						{
							"internalType": "address",
							"name": "newPresident",
							"type": "address"
						}
					],
					"name": "setPendigPresident",
					"outputs": [],
					"stateMutability": "nonpayable",
					"type": "function"
				},
				{
					"inputs": [
						{
							"internalType": "address",
							"name": "newGCAddress",
							"type": "address"
						}
					],
					"name": "setPendingGovernanceContractAddress",
					"outputs": [],
					"stateMutability": "nonpayable",
					"type": "function"
				},
				{
					"inputs": [
						{
							"internalType": "address",
							"name": "pendingGCAdd",
							"type": "address"
						}
					],
					"name": "transferGovernanceContractAddress",
					"outputs": [],
					"stateMutability": "nonpayable",
					"type": "function"
				},
				{
					"inputs": [],
					"name": "transferPresident",
					"outputs": [],
					"stateMutability": "nonpayable",
					"type": "function"
				}
			],
			"devdoc": {
				"kind": "dev",
				"methods": {},
				"version": 1
			},
			"evm": {
				"assembly": "    /* \"contracts/authority.sol\":127:3064  contract Authorrity is Republic_S {... */\n  mstore(0x40, 0xa0)\n    /* \"contracts/authority.sol\":1332:1477  constructor() {... */\n  callvalue\n  dup1\n  iszero\n  tag_1\n  jumpi\n  0x00\n  dup1\n  revert\ntag_1:\n  pop\n    /* \"contracts/authority.sol\":1398:1407  4400 days */\n  0x16a8c800\n    /* \"contracts/authority.sol\":1380:1395  block.timestamp */\n  timestamp\n    /* \"contracts/authority.sol\":1380:1407  block.timestamp + 4400 days */\n  tag_4\n  swap2\n  swap1\n  tag_5\n  jump\t// in\ntag_4:\n    /* \"contracts/authority.sol\":1353:1408  TimeFirstElection = uint48(block.timestamp + 4400 days) */\n  0xffffffffffff\n  and\n  0x80\n  dup2\n  0xffffffffffff\n  and\n  dup2\n  mstore\n  pop\n  pop\n    /* \"contracts/authority.sol\":1435:1445  msg.sender */\n  caller\n    /* \"contracts/authority.sol\":1415:1425  _president */\n  0x03\n    /* \"contracts/authority.sol\":1415:1432  _president.rolAdd */\n  0x00\n  add\n  0x00\n    /* \"contracts/authority.sol\":1415:1445  _president.rolAdd = msg.sender */\n  0x0100\n  exp\n  dup2\n  sload\n  dup2\n  0xffffffffffffffffffffffffffffffffffffffff\n  mul\n  not\n  and\n  swap1\n  dup4\n  0xffffffffffffffffffffffffffffffffffffffff\n  and\n  mul\n  or\n  swap1\n  sstore\n  pop\n    /* \"contracts/authority.sol\":1452:1462  _president */\n  0x03\n    /* \"contracts/authority.sol\":1452:1468  _president.nonce */\n  0x00\n  add\n  0x15\n    /* \"contracts/authority.sol\":1452:1470  _president.nonce++ */\n  dup2\n  dup2\n  swap1\n  sload\n  swap1\n  0x0100\n  exp\n  swap1\n  div\n  0xffffffff\n  and\n  dup1\n  swap3\n  swap2\n  swap1\n  tag_6\n  swap1\n  tag_7\n  jump\t// in\ntag_6:\n  swap2\n  swap1\n  0x0100\n  exp\n  dup2\n  sload\n  dup2\n  0xffffffff\n  mul\n  not\n  and\n  swap1\n  dup4\n  0xffffffff\n  and\n  mul\n  or\n  swap1\n  sstore\n  pop\n  pop\n    /* \"contracts/authority.sol\":127:3064  contract Authorrity is Republic_S {... */\n  jump(tag_8)\n    /* \"#utility.yul\":7:84   */\ntag_9:\n    /* \"#utility.yul\":44:51   */\n  0x00\n    /* \"#utility.yul\":73:78   */\n  dup2\n    /* \"#utility.yul\":62:78   */\n  swap1\n  pop\n    /* \"#utility.yul\":7:84   */\n  swap2\n  swap1\n  pop\n  jump\t// out\n    /* \"#utility.yul\":90:270   */\ntag_10:\n    /* \"#utility.yul\":138:215   */\n  0x4e487b7100000000000000000000000000000000000000000000000000000000\n    /* \"#utility.yul\":135:136   */\n  0x00\n    /* \"#utility.yul\":128:216   */\n  mstore\n    /* \"#utility.yul\":235:239   */\n  0x11\n    /* \"#utility.yul\":232:233   */\n  0x04\n    /* \"#utility.yul\":225:240   */\n  mstore\n    /* \"#utility.yul\":259:263   */\n  0x24\n    /* \"#utility.yul\":256:257   */\n  0x00\n    /* \"#utility.yul\":249:264   */\n  revert\n    /* \"#utility.yul\":276:467   */\ntag_5:\n    /* \"#utility.yul\":316:319   */\n  0x00\n    /* \"#utility.yul\":335:355   */\n  tag_16\n    /* \"#utility.yul\":353:354   */\n  dup3\n    /* \"#utility.yul\":335:355   */\n  tag_9\n  jump\t// in\ntag_16:\n    /* \"#utility.yul\":330:355   */\n  swap2\n  pop\n    /* \"#utility.yul\":369:389   */\n  tag_17\n    /* \"#utility.yul\":387:388   */\n  dup4\n    /* \"#utility.yul\":369:389   */\n  tag_9\n  jump\t// in\ntag_17:\n    /* \"#utility.yul\":364:389   */\n  swap3\n  pop\n    /* \"#utility.yul\":412:413   */\n  dup3\n    /* \"#utility.yul\":409:410   */\n  dup3\n    /* \"#utility.yul\":405:414   */\n  add\n    /* \"#utility.yul\":398:414   */\n  swap1\n  pop\n    /* \"#utility.yul\":433:436   */\n  dup1\n    /* \"#utility.yul\":430:431   */\n  dup3\n    /* \"#utility.yul\":427:437   */\n  gt\n    /* \"#utility.yul\":424:460   */\n  iszero\n  tag_18\n  jumpi\n    /* \"#utility.yul\":440:458   */\n  tag_19\n  tag_10\n  jump\t// in\ntag_19:\n    /* \"#utility.yul\":424:460   */\ntag_18:\n    /* \"#utility.yul\":276:467   */\n  swap3\n  swap2\n  pop\n  pop\n  jump\t// out\n    /* \"#utility.yul\":473:566   */\ntag_11:\n    /* \"#utility.yul\":509:516   */\n  0x00\n    /* \"#utility.yul\":549:559   */\n  0xffffffff\n    /* \"#utility.yul\":542:547   */\n  dup3\n    /* \"#utility.yul\":538:560   */\n  and\n    /* \"#utility.yul\":527:560   */\n  swap1\n  pop\n    /* \"#utility.yul\":473:566   */\n  swap2\n  swap1\n  pop\n  jump\t// out\n    /* \"#utility.yul\":572:747   */\ntag_7:\n    /* \"#utility.yul\":610:613   */\n  0x00\n    /* \"#utility.yul\":633:656   */\n  tag_22\n    /* \"#utility.yul\":650:655   */\n  dup3\n    /* \"#utility.yul\":633:656   */\n  tag_11\n  jump\t// in\ntag_22:\n    /* \"#utility.yul\":624:656   */\n  swap2\n  pop\n    /* \"#utility.yul\":678:688   */\n  0xffffffff\n    /* \"#utility.yul\":671:676   */\n  dup3\n    /* \"#utility.yul\":668:689   */\n  sub\n    /* \"#utility.yul\":665:712   */\n  tag_23\n  jumpi\n    /* \"#utility.yul\":692:710   */\n  tag_24\n  tag_10\n  jump\t// in\ntag_24:\n    /* \"#utility.yul\":665:712   */\ntag_23:\n    /* \"#utility.yul\":739:740   */\n  0x01\n    /* \"#utility.yul\":732:737   */\n  dup3\n    /* \"#utility.yul\":728:741   */\n  add\n    /* \"#utility.yul\":721:741   */\n  swap1\n  pop\n    /* \"#utility.yul\":572:747   */\n  swap2\n  swap1\n  pop\n  jump\t// out\n    /* \"contracts/authority.sol\":127:3064  contract Authorrity is Republic_S {... */\ntag_8:\n  mload(0x80)\n  codecopy(0x00, dataOffset(sub_0), dataSize(sub_0))\n  0x00\n  assignImmutable(\"0x215d56ac8bbcf4ec574772ebea743ba30ac9d1c5e1b1ff899e5de1045f5df803\")\n  return(0x00, dataSize(sub_0))\nstop\n\nsub_0: assembly {\n        /* \"contracts/authority.sol\":127:3064  contract Authorrity is Republic_S {... */\n      mstore(0x40, 0x80)\n      callvalue\n      dup1\n      iszero\n      tag_1\n      jumpi\n      0x00\n      dup1\n      revert\n    tag_1:\n      pop\n      jumpi(tag_2, lt(calldatasize, 0x04))\n      shr(0xe0, calldataload(0x00))\n      dup1\n      0x66410997\n      gt\n      tag_12\n      jumpi\n      dup1\n      0x66410997\n      eq\n      tag_7\n      jumpi\n      dup1\n      0x6cf106d7\n      eq\n      tag_8\n      jumpi\n      dup1\n      0xc387b49c\n      eq\n      tag_9\n      jumpi\n      dup1\n      0xca4cce68\n      eq\n      tag_10\n      jumpi\n      dup1\n      0xee7126c3\n      eq\n      tag_11\n      jumpi\n      jump(tag_2)\n    tag_12:\n      dup1\n      0x054203bd\n      eq\n      tag_3\n      jumpi\n      dup1\n      0x0df4c390\n      eq\n      tag_4\n      jumpi\n      dup1\n      0x289b3c0d\n      eq\n      tag_5\n      jumpi\n      dup1\n      0x4c7ac835\n      eq\n      tag_6\n      jumpi\n    tag_2:\n      0x00\n      dup1\n      revert\n        /* \"contracts/authority.sol\":1488:1657  function setPendigPresident(address newPresident) public onlyRepublic {... */\n    tag_3:\n      tag_13\n      0x04\n      dup1\n      calldatasize\n      sub\n      dup2\n      add\n      swap1\n      tag_14\n      swap2\n      swap1\n      tag_15\n      jump\t// in\n    tag_14:\n      tag_16\n      jump\t// in\n    tag_13:\n      stop\n        /* \"contracts/authority.sol\":1664:1990  function transferPresident() public {... */\n    tag_4:\n      tag_17\n      tag_18\n      jump\t// in\n    tag_17:\n      stop\n        /* \"contracts/authority.sol\":2866:2960  function getGovernance() public view returns (address) {... */\n    tag_5:\n      tag_19\n      tag_20\n      jump\t// in\n    tag_19:\n      mload(0x40)\n      tag_21\n      swap2\n      swap1\n      tag_22\n      jump\t// in\n    tag_21:\n      mload(0x40)\n      dup1\n      swap2\n      sub\n      swap1\n      return\n        /* \"contracts/Republic_S.sol\":142:250  function getRepublic_GAddress() public view returns (address RG) {... */\n    tag_6:\n      tag_23\n      tag_24\n      jump\t// in\n    tag_23:\n      mload(0x40)\n      tag_25\n      swap2\n      swap1\n      tag_22\n      jump\t// in\n    tag_25:\n      mload(0x40)\n      dup1\n      swap2\n      sub\n      swap1\n      return\n        /* \"contracts/authority.sol\":1997:2092  function getPresidentAdd() public view returns (address) {... */\n    tag_7:\n      tag_26\n      tag_27\n      jump\t// in\n    tag_26:\n      mload(0x40)\n      tag_28\n      swap2\n      swap1\n      tag_22\n      jump\t// in\n    tag_28:\n      mload(0x40)\n      dup1\n      swap2\n      sub\n      swap1\n      return\n        /* \"contracts/authority.sol\":2099:2190  function getPresidentBan() public view returns (bool) {... */\n    tag_8:\n      tag_29\n      tag_30\n      jump\t// in\n    tag_29:\n      mload(0x40)\n      tag_31\n      swap2\n      swap1\n      tag_32\n      jump\t// in\n    tag_31:\n      mload(0x40)\n      dup1\n      swap2\n      sub\n      swap1\n      return\n        /* \"contracts/authority.sol\":2967:3041  function getgovernanceVersion() public view returns (uint32) {... */\n    tag_9:\n      tag_33\n      tag_34\n      jump\t// in\n    tag_33:\n      mload(0x40)\n      tag_35\n      swap2\n      swap1\n      tag_36\n      jump\t// in\n    tag_35:\n      mload(0x40)\n      dup1\n      swap2\n      sub\n      swap1\n      return\n        /* \"contracts/authority.sol\":2197:2495  function setPendingGovernanceContractAddress(address newGCAddress) public onlyRepublic {... */\n    tag_10:\n      tag_37\n      0x04\n      dup1\n      calldatasize\n      sub\n      dup2\n      add\n      swap1\n      tag_38\n      swap2\n      swap1\n      tag_15\n      jump\t// in\n    tag_38:\n      tag_39\n      jump\t// in\n    tag_37:\n      stop\n        /* \"contracts/authority.sol\":2502:2859  function transferGovernanceContractAddress(address pendingGCAdd) public onlyPresident {... */\n    tag_11:\n      tag_40\n      0x04\n      dup1\n      calldatasize\n      sub\n      dup2\n      add\n      swap1\n      tag_41\n      swap2\n      swap1\n      tag_15\n      jump\t// in\n    tag_41:\n      tag_42\n      jump\t// in\n    tag_40:\n      stop\n        /* \"contracts/authority.sol\":1488:1657  function setPendigPresident(address newPresident) public onlyRepublic {... */\n    tag_16:\n        /* \"contracts/authority.sol\":972:987  block.timestamp */\n      timestamp\n        /* \"contracts/authority.sol\":952:969  TimeFirstElection */\n      immutable(\"0x215d56ac8bbcf4ec574772ebea743ba30ac9d1c5e1b1ff899e5de1045f5df803\")\n        /* \"contracts/authority.sol\":952:987  TimeFirstElection < block.timestamp */\n      0xffffffffffff\n      and\n      lt\n        /* \"contracts/authority.sol\":948:1168  if (TimeFirstElection < block.timestamp) {... */\n      iszero\n      tag_44\n      jumpi\n        /* \"contracts/authority.sol\":1022:1044  getRepublic_GAddress() */\n      tag_45\n        /* \"contracts/authority.sol\":1022:1042  getRepublic_GAddress */\n      tag_24\n        /* \"contracts/authority.sol\":1022:1044  getRepublic_GAddress() */\n      jump\t// in\n    tag_45:\n        /* \"contracts/authority.sol\":1008:1044  msg.sender == getRepublic_GAddress() */\n      0xffffffffffffffffffffffffffffffffffffffff\n      and\n        /* \"contracts/authority.sol\":1008:1018  msg.sender */\n      caller\n        /* \"contracts/authority.sol\":1008:1044  msg.sender == getRepublic_GAddress() */\n      0xffffffffffffffffffffffffffffffffffffffff\n      and\n      eq\n        /* \"contracts/authority.sol\":1000:1068  require(msg.sender == getRepublic_GAddress(), \"Access is not valid\") */\n      tag_46\n      jumpi\n      mload(0x40)\n      0x08c379a000000000000000000000000000000000000000000000000000000000\n      dup2\n      mstore\n      0x04\n      add\n      tag_47\n      swap1\n      tag_48\n      jump\t// in\n    tag_47:\n      mload(0x40)\n      dup1\n      swap2\n      sub\n      swap1\n      revert\n    tag_46:\n        /* \"contracts/authority.sol\":948:1168  if (TimeFirstElection < block.timestamp) {... */\n      jump(tag_49)\n    tag_44:\n        /* \"contracts/authority.sol\":1106:1123  getPresidentAdd() */\n      tag_50\n        /* \"contracts/authority.sol\":1106:1121  getPresidentAdd */\n      tag_27\n        /* \"contracts/authority.sol\":1106:1123  getPresidentAdd() */\n      jump\t// in\n    tag_50:\n        /* \"contracts/authority.sol\":1092:1123  msg.sender == getPresidentAdd() */\n      0xffffffffffffffffffffffffffffffffffffffff\n      and\n        /* \"contracts/authority.sol\":1092:1102  msg.sender */\n      caller\n        /* \"contracts/authority.sol\":1092:1123  msg.sender == getPresidentAdd() */\n      0xffffffffffffffffffffffffffffffffffffffff\n      and\n      eq\n        /* \"contracts/authority.sol\":1092:1144  msg.sender == getPresidentAdd() && getPresidentBan() */\n      dup1\n      iszero\n      tag_51\n      jumpi\n      pop\n        /* \"contracts/authority.sol\":1127:1144  getPresidentBan() */\n      tag_52\n        /* \"contracts/authority.sol\":1127:1142  getPresidentBan */\n      tag_30\n        /* \"contracts/authority.sol\":1127:1144  getPresidentBan() */\n      jump\t// in\n    tag_52:\n        /* \"contracts/authority.sol\":1092:1144  msg.sender == getPresidentAdd() && getPresidentBan() */\n    tag_51:\n        /* \"contracts/authority.sol\":1084:1168  require(msg.sender == getPresidentAdd() && getPresidentBan(), \"Access is not valid\") */\n      tag_53\n      jumpi\n      mload(0x40)\n      0x08c379a000000000000000000000000000000000000000000000000000000000\n      dup2\n      mstore\n      0x04\n      add\n      tag_54\n      swap1\n      tag_48\n      jump\t// in\n    tag_54:\n      mload(0x40)\n      dup1\n      swap2\n      sub\n      swap1\n      revert\n    tag_53:\n        /* \"contracts/authority.sol\":948:1168  if (TimeFirstElection < block.timestamp) {... */\n    tag_49:\n        /* \"contracts/authority.sol\":1584:1596  newPresident */\n      dup1\n        /* \"contracts/authority.sol\":1565:1581  _pendigPresident */\n      0x02\n      0x00\n        /* \"contracts/authority.sol\":1565:1596  _pendigPresident = newPresident */\n      0x0100\n      exp\n      dup2\n      sload\n      dup2\n      0xffffffffffffffffffffffffffffffffffffffff\n      mul\n      not\n      and\n      swap1\n      dup4\n      0xffffffffffffffffffffffffffffffffffffffff\n      and\n      mul\n      or\n      swap1\n      sstore\n      pop\n        /* \"contracts/authority.sol\":1637:1649  newPresident */\n      dup1\n        /* \"contracts/authority.sol\":1610:1650  TheNextPresidentWasElected(newPresident) */\n      0xffffffffffffffffffffffffffffffffffffffff\n      and\n      0x3553f1f7ef0242113266a8d183b621bb87468c99237f36b1150b6ab3d688b686\n      mload(0x40)\n      mload(0x40)\n      dup1\n      swap2\n      sub\n      swap1\n      log2\n        /* \"contracts/authority.sol\":1488:1657  function setPendigPresident(address newPresident) public onlyRepublic {... */\n      pop\n      jump\t// out\n        /* \"contracts/authority.sol\":1664:1990  function transferPresident() public {... */\n    tag_18:\n        /* \"contracts/authority.sol\":1731:1741  msg.sender */\n      caller\n        /* \"contracts/authority.sol\":1711:1741  _pendigPresident == msg.sender */\n      0xffffffffffffffffffffffffffffffffffffffff\n      and\n        /* \"contracts/authority.sol\":1711:1727  _pendigPresident */\n      0x02\n      0x00\n      swap1\n      sload\n      swap1\n      0x0100\n      exp\n      swap1\n      div\n      0xffffffffffffffffffffffffffffffffffffffff\n      and\n        /* \"contracts/authority.sol\":1711:1741  _pendigPresident == msg.sender */\n      0xffffffffffffffffffffffffffffffffffffffff\n      and\n      sub\n        /* \"contracts/authority.sol\":1707:1983  if (_pendigPresident == msg.sender) {... */\n      tag_57\n      jumpi\n        /* \"contracts/authority.sol\":1761:1777  _pendigPresident */\n      0x02\n      0x00\n        /* \"contracts/authority.sol\":1754:1777  delete _pendigPresident */\n      0x0100\n      exp\n      dup2\n      sload\n      swap1\n      0xffffffffffffffffffffffffffffffffffffffff\n      mul\n      not\n      and\n      swap1\n      sstore\n        /* \"contracts/authority.sol\":1808:1818  msg.sender */\n      caller\n        /* \"contracts/authority.sol\":1788:1798  _president */\n      0x03\n        /* \"contracts/authority.sol\":1788:1805  _president.rolAdd */\n      0x00\n      add\n      0x00\n        /* \"contracts/authority.sol\":1788:1818  _president.rolAdd = msg.sender */\n      0x0100\n      exp\n      dup2\n      sload\n      dup2\n      0xffffffffffffffffffffffffffffffffffffffff\n      mul\n      not\n      and\n      swap1\n      dup4\n      0xffffffffffffffffffffffffffffffffffffffff\n      and\n      mul\n      or\n      swap1\n      sstore\n      pop\n        /* \"contracts/authority.sol\":1829:1839  _president */\n      0x03\n        /* \"contracts/authority.sol\":1829:1845  _president.nonce */\n      0x00\n      add\n      0x15\n        /* \"contracts/authority.sol\":1829:1847  _president.nonce++ */\n      dup2\n      dup2\n      swap1\n      sload\n      swap1\n      0x0100\n      exp\n      swap1\n      div\n      0xffffffff\n      and\n      dup1\n      swap3\n      swap2\n      swap1\n      tag_58\n      swap1\n      tag_59\n      jump\t// in\n    tag_58:\n      swap2\n      swap1\n      0x0100\n      exp\n      dup2\n      sload\n      dup2\n      0xffffffff\n      mul\n      not\n      and\n      swap1\n      dup4\n      0xffffffff\n      and\n      mul\n      or\n      swap1\n      sstore\n      pop\n      pop\n        /* \"contracts/authority.sol\":1910:1920  _president */\n      0x03\n        /* \"contracts/authority.sol\":1910:1926  _president.nonce */\n      0x00\n      add\n      0x15\n      swap1\n      sload\n      swap1\n      0x0100\n      exp\n      swap1\n      div\n      0xffffffff\n      and\n        /* \"contracts/authority.sol\":1863:1927  TheNewPresidentWasConfirmed(_president.rolAdd, _president.nonce) */\n      0xffffffff\n      and\n        /* \"contracts/authority.sol\":1891:1901  _president */\n      0x03\n        /* \"contracts/authority.sol\":1891:1908  _president.rolAdd */\n      0x00\n      add\n      0x00\n      swap1\n      sload\n      swap1\n      0x0100\n      exp\n      swap1\n      div\n      0xffffffffffffffffffffffffffffffffffffffff\n      and\n        /* \"contracts/authority.sol\":1863:1927  TheNewPresidentWasConfirmed(_president.rolAdd, _president.nonce) */\n      0xffffffffffffffffffffffffffffffffffffffff\n      and\n      0x05ad9b3688012cd825c1bfb941e4f5afb2558af6af3deaddf01dbb5e85abdaf9\n      mload(0x40)\n      mload(0x40)\n      dup1\n      swap2\n      sub\n      swap1\n      log3\n        /* \"contracts/authority.sol\":1707:1983  if (_pendigPresident == msg.sender) {... */\n      jump(tag_60)\n    tag_57:\n        /* \"contracts/authority.sol\":1950:1983  AccessOnlyForThePendigPresident() */\n      mload(0x40)\n      0xb513955100000000000000000000000000000000000000000000000000000000\n      dup2\n      mstore\n      0x04\n      add\n      mload(0x40)\n      dup1\n      swap2\n      sub\n      swap1\n      revert\n        /* \"contracts/authority.sol\":1707:1983  if (_pendigPresident == msg.sender) {... */\n    tag_60:\n        /* \"contracts/authority.sol\":1664:1990  function transferPresident() public {... */\n      jump\t// out\n        /* \"contracts/authority.sol\":2866:2960  function getGovernance() public view returns (address) {... */\n    tag_20:\n        /* \"contracts/authority.sol\":2912:2919  address */\n      0x00\n        /* \"contracts/authority.sol\":2935:2946  _governance */\n      0x04\n        /* \"contracts/authority.sol\":2935:2953  _governance.rolAdd */\n      0x00\n      add\n      0x00\n      swap1\n      sload\n      swap1\n      0x0100\n      exp\n      swap1\n      div\n      0xffffffffffffffffffffffffffffffffffffffff\n      and\n        /* \"contracts/authority.sol\":2928:2953  return _governance.rolAdd */\n      swap1\n      pop\n        /* \"contracts/authority.sol\":2866:2960  function getGovernance() public view returns (address) {... */\n      swap1\n      jump\t// out\n        /* \"contracts/Republic_S.sol\":142:250  function getRepublic_GAddress() public view returns (address RG) {... */\n    tag_24:\n        /* \"contracts/Republic_S.sol\":195:205  address RG */\n      0x00\n        /* \"contracts/Republic_S.sol\":225:242  _RepublicGAddress */\n      dup1\n      0x00\n      swap1\n      sload\n      swap1\n      0x0100\n      exp\n      swap1\n      div\n      0xffffffffffffffffffffffffffffffffffffffff\n      and\n        /* \"contracts/Republic_S.sol\":218:242  return _RepublicGAddress */\n      swap1\n      pop\n        /* \"contracts/Republic_S.sol\":142:250  function getRepublic_GAddress() public view returns (address RG) {... */\n      swap1\n      jump\t// out\n        /* \"contracts/authority.sol\":1997:2092  function getPresidentAdd() public view returns (address) {... */\n    tag_27:\n        /* \"contracts/authority.sol\":2045:2052  address */\n      0x00\n        /* \"contracts/authority.sol\":2068:2078  _president */\n      0x03\n        /* \"contracts/authority.sol\":2068:2085  _president.rolAdd */\n      0x00\n      add\n      0x00\n      swap1\n      sload\n      swap1\n      0x0100\n      exp\n      swap1\n      div\n      0xffffffffffffffffffffffffffffffffffffffff\n      and\n        /* \"contracts/authority.sol\":2061:2085  return _president.rolAdd */\n      swap1\n      pop\n        /* \"contracts/authority.sol\":1997:2092  function getPresidentAdd() public view returns (address) {... */\n      swap1\n      jump\t// out\n        /* \"contracts/authority.sol\":2099:2190  function getPresidentBan() public view returns (bool) {... */\n    tag_30:\n        /* \"contracts/authority.sol\":2147:2151  bool */\n      0x00\n        /* \"contracts/authority.sol\":2167:2177  _president */\n      0x03\n        /* \"contracts/authority.sol\":2167:2183  _president.baned */\n      0x00\n      add\n      0x14\n      swap1\n      sload\n      swap1\n      0x0100\n      exp\n      swap1\n      div\n      0xff\n      and\n        /* \"contracts/authority.sol\":2160:2183  return _president.baned */\n      swap1\n      pop\n        /* \"contracts/authority.sol\":2099:2190  function getPresidentBan() public view returns (bool) {... */\n      swap1\n      jump\t// out\n        /* \"contracts/authority.sol\":2967:3041  function getgovernanceVersion() public view returns (uint32) {... */\n    tag_34:\n        /* \"contracts/authority.sol\":3020:3026  uint32 */\n      0x00\n        /* \"contracts/authority.sol\":2967:3041  function getgovernanceVersion() public view returns (uint32) {... */\n      swap1\n      jump\t// out\n        /* \"contracts/authority.sol\":2197:2495  function setPendingGovernanceContractAddress(address newGCAddress) public onlyRepublic {... */\n    tag_39:\n        /* \"contracts/authority.sol\":972:987  block.timestamp */\n      timestamp\n        /* \"contracts/authority.sol\":952:969  TimeFirstElection */\n      immutable(\"0x215d56ac8bbcf4ec574772ebea743ba30ac9d1c5e1b1ff899e5de1045f5df803\")\n        /* \"contracts/authority.sol\":952:987  TimeFirstElection < block.timestamp */\n      0xffffffffffff\n      and\n      lt\n        /* \"contracts/authority.sol\":948:1168  if (TimeFirstElection < block.timestamp) {... */\n      iszero\n      tag_67\n      jumpi\n        /* \"contracts/authority.sol\":1022:1044  getRepublic_GAddress() */\n      tag_68\n        /* \"contracts/authority.sol\":1022:1042  getRepublic_GAddress */\n      tag_24\n        /* \"contracts/authority.sol\":1022:1044  getRepublic_GAddress() */\n      jump\t// in\n    tag_68:\n        /* \"contracts/authority.sol\":1008:1044  msg.sender == getRepublic_GAddress() */\n      0xffffffffffffffffffffffffffffffffffffffff\n      and\n        /* \"contracts/authority.sol\":1008:1018  msg.sender */\n      caller\n        /* \"contracts/authority.sol\":1008:1044  msg.sender == getRepublic_GAddress() */\n      0xffffffffffffffffffffffffffffffffffffffff\n      and\n      eq\n        /* \"contracts/authority.sol\":1000:1068  require(msg.sender == getRepublic_GAddress(), \"Access is not valid\") */\n      tag_69\n      jumpi\n      mload(0x40)\n      0x08c379a000000000000000000000000000000000000000000000000000000000\n      dup2\n      mstore\n      0x04\n      add\n      tag_70\n      swap1\n      tag_48\n      jump\t// in\n    tag_70:\n      mload(0x40)\n      dup1\n      swap2\n      sub\n      swap1\n      revert\n    tag_69:\n        /* \"contracts/authority.sol\":948:1168  if (TimeFirstElection < block.timestamp) {... */\n      jump(tag_71)\n    tag_67:\n        /* \"contracts/authority.sol\":1106:1123  getPresidentAdd() */\n      tag_72\n        /* \"contracts/authority.sol\":1106:1121  getPresidentAdd */\n      tag_27\n        /* \"contracts/authority.sol\":1106:1123  getPresidentAdd() */\n      jump\t// in\n    tag_72:\n        /* \"contracts/authority.sol\":1092:1123  msg.sender == getPresidentAdd() */\n      0xffffffffffffffffffffffffffffffffffffffff\n      and\n        /* \"contracts/authority.sol\":1092:1102  msg.sender */\n      caller\n        /* \"contracts/authority.sol\":1092:1123  msg.sender == getPresidentAdd() */\n      0xffffffffffffffffffffffffffffffffffffffff\n      and\n      eq\n        /* \"contracts/authority.sol\":1092:1144  msg.sender == getPresidentAdd() && getPresidentBan() */\n      dup1\n      iszero\n      tag_73\n      jumpi\n      pop\n        /* \"contracts/authority.sol\":1127:1144  getPresidentBan() */\n      tag_74\n        /* \"contracts/authority.sol\":1127:1142  getPresidentBan */\n      tag_30\n        /* \"contracts/authority.sol\":1127:1144  getPresidentBan() */\n      jump\t// in\n    tag_74:\n        /* \"contracts/authority.sol\":1092:1144  msg.sender == getPresidentAdd() && getPresidentBan() */\n    tag_73:\n        /* \"contracts/authority.sol\":1084:1168  require(msg.sender == getPresidentAdd() && getPresidentBan(), \"Access is not valid\") */\n      tag_75\n      jumpi\n      mload(0x40)\n      0x08c379a000000000000000000000000000000000000000000000000000000000\n      dup2\n      mstore\n      0x04\n      add\n      tag_76\n      swap1\n      tag_48\n      jump\t// in\n    tag_76:\n      mload(0x40)\n      dup1\n      swap2\n      sub\n      swap1\n      revert\n    tag_75:\n        /* \"contracts/authority.sol\":948:1168  if (TimeFirstElection < block.timestamp) {... */\n    tag_71:\n        /* \"contracts/authority.sol\":2322:2323  0 */\n      0x00\n        /* \"contracts/authority.sol\":2295:2307  newGCAddress */\n      dup2\n        /* \"contracts/authority.sol\":2295:2319  newGCAddress.code.length */\n      0xffffffffffffffffffffffffffffffffffffffff\n      and\n      extcodesize\n        /* \"contracts/authority.sol\":2295:2323  newGCAddress.code.length > 0 */\n      gt\n        /* \"contracts/authority.sol\":2291:2486  if (newGCAddress.code.length > 0) {... */\n      iszero\n      tag_78\n      jumpi\n        /* \"contracts/authority.sol\":2356:2368  newGCAddress */\n      dup1\n        /* \"contracts/authority.sol\":2336:2353  _pendingGCAddress */\n      0x01\n      0x00\n        /* \"contracts/authority.sol\":2336:2368  _pendingGCAddress = newGCAddress */\n      0x0100\n      exp\n      dup2\n      sload\n      dup2\n      0xffffffffffffffffffffffffffffffffffffffff\n      mul\n      not\n      and\n      swap1\n      dup4\n      0xffffffffffffffffffffffffffffffffffffffff\n      and\n      mul\n      or\n      swap1\n      sstore\n      pop\n        /* \"contracts/authority.sol\":2411:2423  newGCAddress */\n      dup1\n        /* \"contracts/authority.sol\":2384:2424  TheNextGCAddressWasElected(newGCAddress) */\n      0xffffffffffffffffffffffffffffffffffffffff\n      and\n      0xe8d8e3c7c3ebec0c177d0fe22d223f8b5071db39155104808d45027e368ba77a\n      mload(0x40)\n      mload(0x40)\n      dup1\n      swap2\n      sub\n      swap1\n      log2\n        /* \"contracts/authority.sol\":2291:2486  if (newGCAddress.code.length > 0) {... */\n      jump(tag_79)\n    tag_78:\n        /* \"contracts/authority.sol\":2473:2485  newGCAddress */\n      dup1\n        /* \"contracts/authority.sol\":2447:2486  TheAddressIsNotValidForGC(newGCAddress) */\n      mload(0x40)\n      0x84dbc6cb00000000000000000000000000000000000000000000000000000000\n      dup2\n      mstore\n      0x04\n      add\n      tag_80\n      swap2\n      swap1\n      tag_22\n      jump\t// in\n    tag_80:\n      mload(0x40)\n      dup1\n      swap2\n      sub\n      swap1\n      revert\n        /* \"contracts/authority.sol\":2291:2486  if (newGCAddress.code.length > 0) {... */\n    tag_79:\n        /* \"contracts/authority.sol\":2197:2495  function setPendingGovernanceContractAddress(address newGCAddress) public onlyRepublic {... */\n      pop\n      jump\t// out\n        /* \"contracts/authority.sol\":2502:2859  function transferGovernanceContractAddress(address pendingGCAdd) public onlyPresident {... */\n    tag_42:\n        /* \"contracts/authority.sol\":1246:1263  getPresidentAdd() */\n      tag_82\n        /* \"contracts/authority.sol\":1246:1261  getPresidentAdd */\n      tag_27\n        /* \"contracts/authority.sol\":1246:1263  getPresidentAdd() */\n      jump\t// in\n    tag_82:\n        /* \"contracts/authority.sol\":1232:1263  msg.sender == getPresidentAdd() */\n      0xffffffffffffffffffffffffffffffffffffffff\n      and\n        /* \"contracts/authority.sol\":1232:1242  msg.sender */\n      caller\n        /* \"contracts/authority.sol\":1232:1263  msg.sender == getPresidentAdd() */\n      0xffffffffffffffffffffffffffffffffffffffff\n      and\n      eq\n        /* \"contracts/authority.sol\":1232:1284  msg.sender == getPresidentAdd() && getPresidentBan() */\n      dup1\n      iszero\n      tag_83\n      jumpi\n      pop\n        /* \"contracts/authority.sol\":1267:1284  getPresidentBan() */\n      tag_84\n        /* \"contracts/authority.sol\":1267:1282  getPresidentBan */\n      tag_30\n        /* \"contracts/authority.sol\":1267:1284  getPresidentBan() */\n      jump\t// in\n    tag_84:\n        /* \"contracts/authority.sol\":1232:1284  msg.sender == getPresidentAdd() && getPresidentBan() */\n    tag_83:\n        /* \"contracts/authority.sol\":1224:1308  require(msg.sender == getPresidentAdd() && getPresidentBan(), \"Access is not valid\") */\n      tag_85\n      jumpi\n      mload(0x40)\n      0x08c379a000000000000000000000000000000000000000000000000000000000\n      dup2\n      mstore\n      0x04\n      add\n      tag_86\n      swap1\n      tag_48\n      jump\t// in\n    tag_86:\n      mload(0x40)\n      dup1\n      swap2\n      sub\n      swap1\n      revert\n    tag_85:\n        /* \"contracts/authority.sol\":2620:2632  pendingGCAdd */\n      dup1\n        /* \"contracts/authority.sol\":2599:2632  _pendingGCAddress == pendingGCAdd */\n      0xffffffffffffffffffffffffffffffffffffffff\n      and\n        /* \"contracts/authority.sol\":2599:2616  _pendingGCAddress */\n      0x01\n      0x00\n      swap1\n      sload\n      swap1\n      0x0100\n      exp\n      swap1\n      div\n      0xffffffffffffffffffffffffffffffffffffffff\n      and\n        /* \"contracts/authority.sol\":2599:2632  _pendingGCAddress == pendingGCAdd */\n      0xffffffffffffffffffffffffffffffffffffffff\n      and\n      sub\n        /* \"contracts/authority.sol\":2595:2852  if (_pendingGCAddress == pendingGCAdd) {... */\n      tag_88\n      jumpi\n        /* \"contracts/authority.sol\":2666:2678  pendingGCAdd */\n      dup1\n        /* \"contracts/authority.sol\":2645:2656  _governance */\n      0x04\n        /* \"contracts/authority.sol\":2645:2663  _governance.rolAdd */\n      0x00\n      add\n      0x00\n        /* \"contracts/authority.sol\":2645:2678  _governance.rolAdd = pendingGCAdd */\n      0x0100\n      exp\n      dup2\n      sload\n      dup2\n      0xffffffffffffffffffffffffffffffffffffffff\n      mul\n      not\n      and\n      swap1\n      dup4\n      0xffffffffffffffffffffffffffffffffffffffff\n      and\n      mul\n      or\n      swap1\n      sstore\n      pop\n        /* \"contracts/authority.sol\":2689:2700  _governance */\n      0x04\n        /* \"contracts/authority.sol\":2689:2706  _governance.nonce */\n      0x00\n      add\n      0x15\n        /* \"contracts/authority.sol\":2689:2708  _governance.nonce++ */\n      dup2\n      dup2\n      swap1\n      sload\n      swap1\n      0x0100\n      exp\n      swap1\n      div\n      0xffffffff\n      and\n      dup1\n      swap3\n      swap2\n      swap1\n      tag_89\n      swap1\n      tag_59\n      jump\t// in\n    tag_89:\n      swap2\n      swap1\n      0x0100\n      exp\n      dup2\n      sload\n      dup2\n      0xffffffff\n      mul\n      not\n      and\n      swap1\n      dup4\n      0xffffffff\n      and\n      mul\n      or\n      swap1\n      sstore\n      pop\n      pop\n        /* \"contracts/authority.sol\":2772:2783  _governance */\n      0x04\n        /* \"contracts/authority.sol\":2772:2789  _governance.nonce */\n      0x00\n      add\n      0x15\n      swap1\n      sload\n      swap1\n      0x0100\n      exp\n      swap1\n      div\n      0xffffffff\n      and\n        /* \"contracts/authority.sol\":2724:2790  TheNewGCAddressWasConfirmed(_governance.rolAdd, _governance.nonce) */\n      0xffffffff\n      and\n        /* \"contracts/authority.sol\":2752:2763  _governance */\n      0x04\n        /* \"contracts/authority.sol\":2752:2770  _governance.rolAdd */\n      0x00\n      add\n      0x00\n      swap1\n      sload\n      swap1\n      0x0100\n      exp\n      swap1\n      div\n      0xffffffffffffffffffffffffffffffffffffffff\n      and\n        /* \"contracts/authority.sol\":2724:2790  TheNewGCAddressWasConfirmed(_governance.rolAdd, _governance.nonce) */\n      0xffffffffffffffffffffffffffffffffffffffff\n      and\n      0x5e86008a8467d1efccfe6cb6bd49ba7278d6af2745a1e6994e443322a4237093\n      mload(0x40)\n      mload(0x40)\n      dup1\n      swap2\n      sub\n      swap1\n      log3\n        /* \"contracts/authority.sol\":2595:2852  if (_pendingGCAddress == pendingGCAdd) {... */\n      jump(tag_90)\n    tag_88:\n        /* \"contracts/authority.sol\":2839:2851  pendingGCAdd */\n      dup1\n        /* \"contracts/authority.sol\":2813:2852  TheAddressIsNotValidForGC(pendingGCAdd) */\n      mload(0x40)\n      0x84dbc6cb00000000000000000000000000000000000000000000000000000000\n      dup2\n      mstore\n      0x04\n      add\n      tag_91\n      swap2\n      swap1\n      tag_22\n      jump\t// in\n    tag_91:\n      mload(0x40)\n      dup1\n      swap2\n      sub\n      swap1\n      revert\n        /* \"contracts/authority.sol\":2595:2852  if (_pendingGCAddress == pendingGCAdd) {... */\n    tag_90:\n        /* \"contracts/authority.sol\":2502:2859  function transferGovernanceContractAddress(address pendingGCAdd) public onlyPresident {... */\n      pop\n      jump\t// out\n        /* \"#utility.yul\":88:205   */\n    tag_93:\n        /* \"#utility.yul\":197:198   */\n      0x00\n        /* \"#utility.yul\":194:195   */\n      dup1\n        /* \"#utility.yul\":187:199   */\n      revert\n        /* \"#utility.yul\":334:460   */\n    tag_95:\n        /* \"#utility.yul\":371:378   */\n      0x00\n        /* \"#utility.yul\":411:453   */\n      0xffffffffffffffffffffffffffffffffffffffff\n        /* \"#utility.yul\":404:409   */\n      dup3\n        /* \"#utility.yul\":400:454   */\n      and\n        /* \"#utility.yul\":389:454   */\n      swap1\n      pop\n        /* \"#utility.yul\":334:460   */\n      swap2\n      swap1\n      pop\n      jump\t// out\n        /* \"#utility.yul\":466:562   */\n    tag_96:\n        /* \"#utility.yul\":503:510   */\n      0x00\n        /* \"#utility.yul\":532:556   */\n      tag_114\n        /* \"#utility.yul\":550:555   */\n      dup3\n        /* \"#utility.yul\":532:556   */\n      tag_95\n      jump\t// in\n    tag_114:\n        /* \"#utility.yul\":521:556   */\n      swap1\n      pop\n        /* \"#utility.yul\":466:562   */\n      swap2\n      swap1\n      pop\n      jump\t// out\n        /* \"#utility.yul\":568:690   */\n    tag_97:\n        /* \"#utility.yul\":641:665   */\n      tag_116\n        /* \"#utility.yul\":659:664   */\n      dup2\n        /* \"#utility.yul\":641:665   */\n      tag_96\n      jump\t// in\n    tag_116:\n        /* \"#utility.yul\":634:639   */\n      dup2\n        /* \"#utility.yul\":631:666   */\n      eq\n        /* \"#utility.yul\":621:684   */\n      tag_117\n      jumpi\n        /* \"#utility.yul\":680:681   */\n      0x00\n        /* \"#utility.yul\":677:678   */\n      dup1\n        /* \"#utility.yul\":670:682   */\n      revert\n        /* \"#utility.yul\":621:684   */\n    tag_117:\n        /* \"#utility.yul\":568:690   */\n      pop\n      jump\t// out\n        /* \"#utility.yul\":696:835   */\n    tag_98:\n        /* \"#utility.yul\":742:747   */\n      0x00\n        /* \"#utility.yul\":780:786   */\n      dup2\n        /* \"#utility.yul\":767:787   */\n      calldataload\n        /* \"#utility.yul\":758:787   */\n      swap1\n      pop\n        /* \"#utility.yul\":796:829   */\n      tag_119\n        /* \"#utility.yul\":823:828   */\n      dup2\n        /* \"#utility.yul\":796:829   */\n      tag_97\n      jump\t// in\n    tag_119:\n        /* \"#utility.yul\":696:835   */\n      swap3\n      swap2\n      pop\n      pop\n      jump\t// out\n        /* \"#utility.yul\":841:1170   */\n    tag_15:\n        /* \"#utility.yul\":900:906   */\n      0x00\n        /* \"#utility.yul\":949:951   */\n      0x20\n        /* \"#utility.yul\":937:946   */\n      dup3\n        /* \"#utility.yul\":928:935   */\n      dup5\n        /* \"#utility.yul\":924:947   */\n      sub\n        /* \"#utility.yul\":920:952   */\n      slt\n        /* \"#utility.yul\":917:1036   */\n      iszero\n      tag_121\n      jumpi\n        /* \"#utility.yul\":955:1034   */\n      tag_122\n      tag_93\n      jump\t// in\n    tag_122:\n        /* \"#utility.yul\":917:1036   */\n    tag_121:\n        /* \"#utility.yul\":1075:1076   */\n      0x00\n        /* \"#utility.yul\":1100:1153   */\n      tag_123\n        /* \"#utility.yul\":1145:1152   */\n      dup5\n        /* \"#utility.yul\":1136:1142   */\n      dup3\n        /* \"#utility.yul\":1125:1134   */\n      dup6\n        /* \"#utility.yul\":1121:1143   */\n      add\n        /* \"#utility.yul\":1100:1153   */\n      tag_98\n      jump\t// in\n    tag_123:\n        /* \"#utility.yul\":1090:1153   */\n      swap2\n      pop\n        /* \"#utility.yul\":1046:1163   */\n      pop\n        /* \"#utility.yul\":841:1170   */\n      swap3\n      swap2\n      pop\n      pop\n      jump\t// out\n        /* \"#utility.yul\":1176:1294   */\n    tag_99:\n        /* \"#utility.yul\":1263:1287   */\n      tag_125\n        /* \"#utility.yul\":1281:1286   */\n      dup2\n        /* \"#utility.yul\":1263:1287   */\n      tag_96\n      jump\t// in\n    tag_125:\n        /* \"#utility.yul\":1258:1261   */\n      dup3\n        /* \"#utility.yul\":1251:1288   */\n      mstore\n        /* \"#utility.yul\":1176:1294   */\n      pop\n      pop\n      jump\t// out\n        /* \"#utility.yul\":1300:1522   */\n    tag_22:\n        /* \"#utility.yul\":1393:1397   */\n      0x00\n        /* \"#utility.yul\":1431:1433   */\n      0x20\n        /* \"#utility.yul\":1420:1429   */\n      dup3\n        /* \"#utility.yul\":1416:1434   */\n      add\n        /* \"#utility.yul\":1408:1434   */\n      swap1\n      pop\n        /* \"#utility.yul\":1444:1515   */\n      tag_127\n        /* \"#utility.yul\":1512:1513   */\n      0x00\n        /* \"#utility.yul\":1501:1510   */\n      dup4\n        /* \"#utility.yul\":1497:1514   */\n      add\n        /* \"#utility.yul\":1488:1494   */\n      dup5\n        /* \"#utility.yul\":1444:1515   */\n      tag_99\n      jump\t// in\n    tag_127:\n        /* \"#utility.yul\":1300:1522   */\n      swap3\n      swap2\n      pop\n      pop\n      jump\t// out\n        /* \"#utility.yul\":1528:1618   */\n    tag_100:\n        /* \"#utility.yul\":1562:1569   */\n      0x00\n        /* \"#utility.yul\":1605:1610   */\n      dup2\n        /* \"#utility.yul\":1598:1611   */\n      iszero\n        /* \"#utility.yul\":1591:1612   */\n      iszero\n        /* \"#utility.yul\":1580:1612   */\n      swap1\n      pop\n        /* \"#utility.yul\":1528:1618   */\n      swap2\n      swap1\n      pop\n      jump\t// out\n        /* \"#utility.yul\":1624:1733   */\n    tag_101:\n        /* \"#utility.yul\":1705:1726   */\n      tag_130\n        /* \"#utility.yul\":1720:1725   */\n      dup2\n        /* \"#utility.yul\":1705:1726   */\n      tag_100\n      jump\t// in\n    tag_130:\n        /* \"#utility.yul\":1700:1703   */\n      dup3\n        /* \"#utility.yul\":1693:1727   */\n      mstore\n        /* \"#utility.yul\":1624:1733   */\n      pop\n      pop\n      jump\t// out\n        /* \"#utility.yul\":1739:1949   */\n    tag_32:\n        /* \"#utility.yul\":1826:1830   */\n      0x00\n        /* \"#utility.yul\":1864:1866   */\n      0x20\n        /* \"#utility.yul\":1853:1862   */\n      dup3\n        /* \"#utility.yul\":1849:1867   */\n      add\n        /* \"#utility.yul\":1841:1867   */\n      swap1\n      pop\n        /* \"#utility.yul\":1877:1942   */\n      tag_132\n        /* \"#utility.yul\":1939:1940   */\n      0x00\n        /* \"#utility.yul\":1928:1937   */\n      dup4\n        /* \"#utility.yul\":1924:1941   */\n      add\n        /* \"#utility.yul\":1915:1921   */\n      dup5\n        /* \"#utility.yul\":1877:1942   */\n      tag_101\n      jump\t// in\n    tag_132:\n        /* \"#utility.yul\":1739:1949   */\n      swap3\n      swap2\n      pop\n      pop\n      jump\t// out\n        /* \"#utility.yul\":1955:2048   */\n    tag_102:\n        /* \"#utility.yul\":1991:1998   */\n      0x00\n        /* \"#utility.yul\":2031:2041   */\n      0xffffffff\n        /* \"#utility.yul\":2024:2029   */\n      dup3\n        /* \"#utility.yul\":2020:2042   */\n      and\n        /* \"#utility.yul\":2009:2042   */\n      swap1\n      pop\n        /* \"#utility.yul\":1955:2048   */\n      swap2\n      swap1\n      pop\n      jump\t// out\n        /* \"#utility.yul\":2054:2169   */\n    tag_103:\n        /* \"#utility.yul\":2139:2162   */\n      tag_135\n        /* \"#utility.yul\":2156:2161   */\n      dup2\n        /* \"#utility.yul\":2139:2162   */\n      tag_102\n      jump\t// in\n    tag_135:\n        /* \"#utility.yul\":2134:2137   */\n      dup3\n        /* \"#utility.yul\":2127:2163   */\n      mstore\n        /* \"#utility.yul\":2054:2169   */\n      pop\n      pop\n      jump\t// out\n        /* \"#utility.yul\":2175:2393   */\n    tag_36:\n        /* \"#utility.yul\":2266:2270   */\n      0x00\n        /* \"#utility.yul\":2304:2306   */\n      0x20\n        /* \"#utility.yul\":2293:2302   */\n      dup3\n        /* \"#utility.yul\":2289:2307   */\n      add\n        /* \"#utility.yul\":2281:2307   */\n      swap1\n      pop\n        /* \"#utility.yul\":2317:2386   */\n      tag_137\n        /* \"#utility.yul\":2383:2384   */\n      0x00\n        /* \"#utility.yul\":2372:2381   */\n      dup4\n        /* \"#utility.yul\":2368:2385   */\n      add\n        /* \"#utility.yul\":2359:2365   */\n      dup5\n        /* \"#utility.yul\":2317:2386   */\n      tag_103\n      jump\t// in\n    tag_137:\n        /* \"#utility.yul\":2175:2393   */\n      swap3\n      swap2\n      pop\n      pop\n      jump\t// out\n        /* \"#utility.yul\":2399:2568   */\n    tag_104:\n        /* \"#utility.yul\":2483:2494   */\n      0x00\n        /* \"#utility.yul\":2517:2523   */\n      dup3\n        /* \"#utility.yul\":2512:2515   */\n      dup3\n        /* \"#utility.yul\":2505:2524   */\n      mstore\n        /* \"#utility.yul\":2557:2561   */\n      0x20\n        /* \"#utility.yul\":2552:2555   */\n      dup3\n        /* \"#utility.yul\":2548:2562   */\n      add\n        /* \"#utility.yul\":2533:2562   */\n      swap1\n      pop\n        /* \"#utility.yul\":2399:2568   */\n      swap3\n      swap2\n      pop\n      pop\n      jump\t// out\n        /* \"#utility.yul\":2574:2743   */\n    tag_105:\n        /* \"#utility.yul\":2714:2735   */\n      0x416363657373206973206e6f742076616c696400000000000000000000000000\n        /* \"#utility.yul\":2710:2711   */\n      0x00\n        /* \"#utility.yul\":2702:2708   */\n      dup3\n        /* \"#utility.yul\":2698:2712   */\n      add\n        /* \"#utility.yul\":2691:2736   */\n      mstore\n        /* \"#utility.yul\":2574:2743   */\n      pop\n      jump\t// out\n        /* \"#utility.yul\":2749:3115   */\n    tag_106:\n        /* \"#utility.yul\":2891:2894   */\n      0x00\n        /* \"#utility.yul\":2912:2979   */\n      tag_141\n        /* \"#utility.yul\":2976:2978   */\n      0x13\n        /* \"#utility.yul\":2971:2974   */\n      dup4\n        /* \"#utility.yul\":2912:2979   */\n      tag_104\n      jump\t// in\n    tag_141:\n        /* \"#utility.yul\":2905:2979   */\n      swap2\n      pop\n        /* \"#utility.yul\":2988:3081   */\n      tag_142\n        /* \"#utility.yul\":3077:3080   */\n      dup3\n        /* \"#utility.yul\":2988:3081   */\n      tag_105\n      jump\t// in\n    tag_142:\n        /* \"#utility.yul\":3106:3108   */\n      0x20\n        /* \"#utility.yul\":3101:3104   */\n      dup3\n        /* \"#utility.yul\":3097:3109   */\n      add\n        /* \"#utility.yul\":3090:3109   */\n      swap1\n      pop\n        /* \"#utility.yul\":2749:3115   */\n      swap2\n      swap1\n      pop\n      jump\t// out\n        /* \"#utility.yul\":3121:3540   */\n    tag_48:\n        /* \"#utility.yul\":3287:3291   */\n      0x00\n        /* \"#utility.yul\":3325:3327   */\n      0x20\n        /* \"#utility.yul\":3314:3323   */\n      dup3\n        /* \"#utility.yul\":3310:3328   */\n      add\n        /* \"#utility.yul\":3302:3328   */\n      swap1\n      pop\n        /* \"#utility.yul\":3374:3383   */\n      dup2\n        /* \"#utility.yul\":3368:3372   */\n      dup2\n        /* \"#utility.yul\":3364:3384   */\n      sub\n        /* \"#utility.yul\":3360:3361   */\n      0x00\n        /* \"#utility.yul\":3349:3358   */\n      dup4\n        /* \"#utility.yul\":3345:3362   */\n      add\n        /* \"#utility.yul\":3338:3385   */\n      mstore\n        /* \"#utility.yul\":3402:3533   */\n      tag_144\n        /* \"#utility.yul\":3528:3532   */\n      dup2\n        /* \"#utility.yul\":3402:3533   */\n      tag_106\n      jump\t// in\n    tag_144:\n        /* \"#utility.yul\":3394:3533   */\n      swap1\n      pop\n        /* \"#utility.yul\":3121:3540   */\n      swap2\n      swap1\n      pop\n      jump\t// out\n        /* \"#utility.yul\":3546:3726   */\n    tag_107:\n        /* \"#utility.yul\":3594:3671   */\n      0x4e487b7100000000000000000000000000000000000000000000000000000000\n        /* \"#utility.yul\":3591:3592   */\n      0x00\n        /* \"#utility.yul\":3584:3672   */\n      mstore\n        /* \"#utility.yul\":3691:3695   */\n      0x11\n        /* \"#utility.yul\":3688:3689   */\n      0x04\n        /* \"#utility.yul\":3681:3696   */\n      mstore\n        /* \"#utility.yul\":3715:3719   */\n      0x24\n        /* \"#utility.yul\":3712:3713   */\n      0x00\n        /* \"#utility.yul\":3705:3720   */\n      revert\n        /* \"#utility.yul\":3732:3907   */\n    tag_59:\n        /* \"#utility.yul\":3770:3773   */\n      0x00\n        /* \"#utility.yul\":3793:3816   */\n      tag_147\n        /* \"#utility.yul\":3810:3815   */\n      dup3\n        /* \"#utility.yul\":3793:3816   */\n      tag_102\n      jump\t// in\n    tag_147:\n        /* \"#utility.yul\":3784:3816   */\n      swap2\n      pop\n        /* \"#utility.yul\":3838:3848   */\n      0xffffffff\n        /* \"#utility.yul\":3831:3836   */\n      dup3\n        /* \"#utility.yul\":3828:3849   */\n      sub\n        /* \"#utility.yul\":3825:3872   */\n      tag_148\n      jumpi\n        /* \"#utility.yul\":3852:3870   */\n      tag_149\n      tag_107\n      jump\t// in\n    tag_149:\n        /* \"#utility.yul\":3825:3872   */\n    tag_148:\n        /* \"#utility.yul\":3899:3900   */\n      0x01\n        /* \"#utility.yul\":3892:3897   */\n      dup3\n        /* \"#utility.yul\":3888:3901   */\n      add\n        /* \"#utility.yul\":3881:3901   */\n      swap1\n      pop\n        /* \"#utility.yul\":3732:3907   */\n      swap2\n      swap1\n      pop\n      jump\t// out\n\n    auxdata: 0xa2646970667358221220bb84f8b2cfab7d2fdfffec51f0c6329091085b25067888e9712a1823432aed8564736f6c63430008140033\n}\n",
				"bytecode": {
					"linkReferences": {},
					"object": "60a060405234801561000f575f80fd5b506316a8c8004261002091906100f7565b65ffffffffffff1660808165ffffffffffff16815250503360035f015f6101000a81548173ffffffffffffffffffffffffffffffffffffffff021916908373ffffffffffffffffffffffffffffffffffffffff16021790555060035f01601581819054906101000a900463ffffffff168092919061009d90610139565b91906101000a81548163ffffffff021916908363ffffffff16021790555050610164565b5f819050919050565b7f4e487b71000000000000000000000000000000000000000000000000000000005f52601160045260245ffd5b5f610101826100c1565b915061010c836100c1565b9250828201905080821115610124576101236100ca565b5b92915050565b5f63ffffffff82169050919050565b5f6101438261012a565b915063ffffffff8203610159576101586100ca565b5b600182019050919050565b608051610be96101835f395f818161018c01526105900152610be95ff3fe608060405234801561000f575f80fd5b5060043610610091575f3560e01c8063664109971161006457806366410997146100f75780636cf106d714610115578063c387b49c14610133578063ca4cce6814610151578063ee7126c31461016d57610091565b8063054203bd146100955780630df4c390146100b1578063289b3c0d146100bb5780634c7ac835146100d9575b5f80fd5b6100af60048036038101906100aa9190610a26565b610189565b005b6100b961033f565b005b6100c36104f6565b6040516100d09190610a60565b60405180910390f35b6100e1610520565b6040516100ee9190610a60565b60405180910390f35b6100ff610547565b60405161010c9190610a60565b60405180910390f35b61011d610571565b60405161012a9190610a93565b60405180910390f35b61013b610589565b6040516101489190610aca565b60405180910390f35b61016b60048036038101906101669190610a26565b61058d565b005b61018760048036038101906101829190610a26565b6107a4565b005b427f000000000000000000000000000000000000000000000000000000000000000065ffffffffffff161015610233576101c1610520565b73ffffffffffffffffffffffffffffffffffffffff163373ffffffffffffffffffffffffffffffffffffffff161461022e576040517f08c379a000000000000000000000000000000000000000000000000000000000815260040161022590610b3d565b60405180910390fd5b6102b9565b61023b610547565b73ffffffffffffffffffffffffffffffffffffffff163373ffffffffffffffffffffffffffffffffffffffff161480156102795750610278610571565b5b6102b8576040517f08c379a00000000000000000000000000000000000000000000000000000000081526004016102af90610b3d565b60405180910390fd5b5b8060025f6101000a81548173ffffffffffffffffffffffffffffffffffffffff021916908373ffffffffffffffffffffffffffffffffffffffff1602179055508073ffffffffffffffffffffffffffffffffffffffff167f3553f1f7ef0242113266a8d183b621bb87468c99237f36b1150b6ab3d688b68660405160405180910390a250565b3373ffffffffffffffffffffffffffffffffffffffff1660025f9054906101000a900473ffffffffffffffffffffffffffffffffffffffff1673ffffffffffffffffffffffffffffffffffffffff16036104c25760025f6101000a81549073ffffffffffffffffffffffffffffffffffffffff02191690553360035f015f6101000a81548173ffffffffffffffffffffffffffffffffffffffff021916908373ffffffffffffffffffffffffffffffffffffffff16021790555060035f01601581819054906101000a900463ffffffff168092919061041d90610b88565b91906101000a81548163ffffffff021916908363ffffffff1602179055505060035f0160159054906101000a900463ffffffff1663ffffffff1660035f015f9054906101000a900473ffffffffffffffffffffffffffffffffffffffff1673ffffffffffffffffffffffffffffffffffffffff167f05ad9b3688012cd825c1bfb941e4f5afb2558af6af3deaddf01dbb5e85abdaf960405160405180910390a36104f4565b6040517fb513955100000000000000000000000000000000000000000000000000000000815260040160405180910390fd5b565b5f60045f015f9054906101000a900473ffffffffffffffffffffffffffffffffffffffff16905090565b5f805f9054906101000a900473ffffffffffffffffffffffffffffffffffffffff16905090565b5f60035f015f9054906101000a900473ffffffffffffffffffffffffffffffffffffffff16905090565b5f60035f0160149054906101000a900460ff16905090565b5f90565b427f000000000000000000000000000000000000000000000000000000000000000065ffffffffffff161015610637576105c5610520565b73ffffffffffffffffffffffffffffffffffffffff163373ffffffffffffffffffffffffffffffffffffffff1614610632576040517f08c379a000000000000000000000000000000000000000000000000000000000815260040161062990610b3d565b60405180910390fd5b6106bd565b61063f610547565b73ffffffffffffffffffffffffffffffffffffffff163373ffffffffffffffffffffffffffffffffffffffff1614801561067d575061067c610571565b5b6106bc576040517f08c379a00000000000000000000000000000000000000000000000000000000081526004016106b390610b3d565b60405180910390fd5b5b5f8173ffffffffffffffffffffffffffffffffffffffff163b1115610764578060015f6101000a81548173ffffffffffffffffffffffffffffffffffffffff021916908373ffffffffffffffffffffffffffffffffffffffff1602179055508073ffffffffffffffffffffffffffffffffffffffff167fe8d8e3c7c3ebec0c177d0fe22d223f8b5071db39155104808d45027e368ba77a60405160405180910390a26107a1565b806040517f84dbc6cb0000000000000000000000000000000000000000000000000000000081526004016107989190610a60565b60405180910390fd5b50565b6107ac610547565b73ffffffffffffffffffffffffffffffffffffffff163373ffffffffffffffffffffffffffffffffffffffff161480156107ea57506107e9610571565b5b610829576040517f08c379a000000000000000000000000000000000000000000000000000000000815260040161082090610b3d565b60405180910390fd5b8073ffffffffffffffffffffffffffffffffffffffff1660015f9054906101000a900473ffffffffffffffffffffffffffffffffffffffff1673ffffffffffffffffffffffffffffffffffffffff1603610988578060045f015f6101000a81548173ffffffffffffffffffffffffffffffffffffffff021916908373ffffffffffffffffffffffffffffffffffffffff16021790555060045f01601581819054906101000a900463ffffffff16809291906108e390610b88565b91906101000a81548163ffffffff021916908363ffffffff1602179055505060045f0160159054906101000a900463ffffffff1663ffffffff1660045f015f9054906101000a900473ffffffffffffffffffffffffffffffffffffffff1673ffffffffffffffffffffffffffffffffffffffff167f5e86008a8467d1efccfe6cb6bd49ba7278d6af2745a1e6994e443322a423709360405160405180910390a36109c5565b806040517f84dbc6cb0000000000000000000000000000000000000000000000000000000081526004016109bc9190610a60565b60405180910390fd5b50565b5f80fd5b5f73ffffffffffffffffffffffffffffffffffffffff82169050919050565b5f6109f5826109cc565b9050919050565b610a05816109eb565b8114610a0f575f80fd5b50565b5f81359050610a20816109fc565b92915050565b5f60208284031215610a3b57610a3a6109c8565b5b5f610a4884828501610a12565b91505092915050565b610a5a816109eb565b82525050565b5f602082019050610a735f830184610a51565b92915050565b5f8115159050919050565b610a8d81610a79565b82525050565b5f602082019050610aa65f830184610a84565b92915050565b5f63ffffffff82169050919050565b610ac481610aac565b82525050565b5f602082019050610add5f830184610abb565b92915050565b5f82825260208201905092915050565b7f416363657373206973206e6f742076616c6964000000000000000000000000005f82015250565b5f610b27601383610ae3565b9150610b3282610af3565b602082019050919050565b5f6020820190508181035f830152610b5481610b1b565b9050919050565b7f4e487b71000000000000000000000000000000000000000000000000000000005f52601160045260245ffd5b5f610b9282610aac565b915063ffffffff8203610ba857610ba7610b5b565b5b60018201905091905056fea2646970667358221220bb84f8b2cfab7d2fdfffec51f0c6329091085b25067888e9712a1823432aed8564736f6c63430008140033",
					"opcodes": "PUSH1 0xA0 PUSH1 0x40 MSTORE CALLVALUE DUP1 ISZERO PUSH2 0xF JUMPI PUSH0 DUP1 REVERT JUMPDEST POP PUSH4 0x16A8C800 TIMESTAMP PUSH2 0x20 SWAP2 SWAP1 PUSH2 0xF7 JUMP JUMPDEST PUSH6 0xFFFFFFFFFFFF AND PUSH1 0x80 DUP2 PUSH6 0xFFFFFFFFFFFF AND DUP2 MSTORE POP POP CALLER PUSH1 0x3 PUSH0 ADD PUSH0 PUSH2 0x100 EXP DUP2 SLOAD DUP2 PUSH20 0xFFFFFFFFFFFFFFFFFFFFFFFFFFFFFFFFFFFFFFFF MUL NOT AND SWAP1 DUP4 PUSH20 0xFFFFFFFFFFFFFFFFFFFFFFFFFFFFFFFFFFFFFFFF AND MUL OR SWAP1 SSTORE POP PUSH1 0x3 PUSH0 ADD PUSH1 0x15 DUP2 DUP2 SWAP1 SLOAD SWAP1 PUSH2 0x100 EXP SWAP1 DIV PUSH4 0xFFFFFFFF AND DUP1 SWAP3 SWAP2 SWAP1 PUSH2 0x9D SWAP1 PUSH2 0x139 JUMP JUMPDEST SWAP2 SWAP1 PUSH2 0x100 EXP DUP2 SLOAD DUP2 PUSH4 0xFFFFFFFF MUL NOT AND SWAP1 DUP4 PUSH4 0xFFFFFFFF AND MUL OR SWAP1 SSTORE POP POP PUSH2 0x164 JUMP JUMPDEST PUSH0 DUP2 SWAP1 POP SWAP2 SWAP1 POP JUMP JUMPDEST PUSH32 0x4E487B7100000000000000000000000000000000000000000000000000000000 PUSH0 MSTORE PUSH1 0x11 PUSH1 0x4 MSTORE PUSH1 0x24 PUSH0 REVERT JUMPDEST PUSH0 PUSH2 0x101 DUP3 PUSH2 0xC1 JUMP JUMPDEST SWAP2 POP PUSH2 0x10C DUP4 PUSH2 0xC1 JUMP JUMPDEST SWAP3 POP DUP3 DUP3 ADD SWAP1 POP DUP1 DUP3 GT ISZERO PUSH2 0x124 JUMPI PUSH2 0x123 PUSH2 0xCA JUMP JUMPDEST JUMPDEST SWAP3 SWAP2 POP POP JUMP JUMPDEST PUSH0 PUSH4 0xFFFFFFFF DUP3 AND SWAP1 POP SWAP2 SWAP1 POP JUMP JUMPDEST PUSH0 PUSH2 0x143 DUP3 PUSH2 0x12A JUMP JUMPDEST SWAP2 POP PUSH4 0xFFFFFFFF DUP3 SUB PUSH2 0x159 JUMPI PUSH2 0x158 PUSH2 0xCA JUMP JUMPDEST JUMPDEST PUSH1 0x1 DUP3 ADD SWAP1 POP SWAP2 SWAP1 POP JUMP JUMPDEST PUSH1 0x80 MLOAD PUSH2 0xBE9 PUSH2 0x183 PUSH0 CODECOPY PUSH0 DUP2 DUP2 PUSH2 0x18C ADD MSTORE PUSH2 0x590 ADD MSTORE PUSH2 0xBE9 PUSH0 RETURN INVALID PUSH1 0x80 PUSH1 0x40 MSTORE CALLVALUE DUP1 ISZERO PUSH2 0xF JUMPI PUSH0 DUP1 REVERT JUMPDEST POP PUSH1 0x4 CALLDATASIZE LT PUSH2 0x91 JUMPI PUSH0 CALLDATALOAD PUSH1 0xE0 SHR DUP1 PUSH4 0x66410997 GT PUSH2 0x64 JUMPI DUP1 PUSH4 0x66410997 EQ PUSH2 0xF7 JUMPI DUP1 PUSH4 0x6CF106D7 EQ PUSH2 0x115 JUMPI DUP1 PUSH4 0xC387B49C EQ PUSH2 0x133 JUMPI DUP1 PUSH4 0xCA4CCE68 EQ PUSH2 0x151 JUMPI DUP1 PUSH4 0xEE7126C3 EQ PUSH2 0x16D JUMPI PUSH2 0x91 JUMP JUMPDEST DUP1 PUSH4 0x54203BD EQ PUSH2 0x95 JUMPI DUP1 PUSH4 0xDF4C390 EQ PUSH2 0xB1 JUMPI DUP1 PUSH4 0x289B3C0D EQ PUSH2 0xBB JUMPI DUP1 PUSH4 0x4C7AC835 EQ PUSH2 0xD9 JUMPI JUMPDEST PUSH0 DUP1 REVERT JUMPDEST PUSH2 0xAF PUSH1 0x4 DUP1 CALLDATASIZE SUB DUP2 ADD SWAP1 PUSH2 0xAA SWAP2 SWAP1 PUSH2 0xA26 JUMP JUMPDEST PUSH2 0x189 JUMP JUMPDEST STOP JUMPDEST PUSH2 0xB9 PUSH2 0x33F JUMP JUMPDEST STOP JUMPDEST PUSH2 0xC3 PUSH2 0x4F6 JUMP JUMPDEST PUSH1 0x40 MLOAD PUSH2 0xD0 SWAP2 SWAP1 PUSH2 0xA60 JUMP JUMPDEST PUSH1 0x40 MLOAD DUP1 SWAP2 SUB SWAP1 RETURN JUMPDEST PUSH2 0xE1 PUSH2 0x520 JUMP JUMPDEST PUSH1 0x40 MLOAD PUSH2 0xEE SWAP2 SWAP1 PUSH2 0xA60 JUMP JUMPDEST PUSH1 0x40 MLOAD DUP1 SWAP2 SUB SWAP1 RETURN JUMPDEST PUSH2 0xFF PUSH2 0x547 JUMP JUMPDEST PUSH1 0x40 MLOAD PUSH2 0x10C SWAP2 SWAP1 PUSH2 0xA60 JUMP JUMPDEST PUSH1 0x40 MLOAD DUP1 SWAP2 SUB SWAP1 RETURN JUMPDEST PUSH2 0x11D PUSH2 0x571 JUMP JUMPDEST PUSH1 0x40 MLOAD PUSH2 0x12A SWAP2 SWAP1 PUSH2 0xA93 JUMP JUMPDEST PUSH1 0x40 MLOAD DUP1 SWAP2 SUB SWAP1 RETURN JUMPDEST PUSH2 0x13B PUSH2 0x589 JUMP JUMPDEST PUSH1 0x40 MLOAD PUSH2 0x148 SWAP2 SWAP1 PUSH2 0xACA JUMP JUMPDEST PUSH1 0x40 MLOAD DUP1 SWAP2 SUB SWAP1 RETURN JUMPDEST PUSH2 0x16B PUSH1 0x4 DUP1 CALLDATASIZE SUB DUP2 ADD SWAP1 PUSH2 0x166 SWAP2 SWAP1 PUSH2 0xA26 JUMP JUMPDEST PUSH2 0x58D JUMP JUMPDEST STOP JUMPDEST PUSH2 0x187 PUSH1 0x4 DUP1 CALLDATASIZE SUB DUP2 ADD SWAP1 PUSH2 0x182 SWAP2 SWAP1 PUSH2 0xA26 JUMP JUMPDEST PUSH2 0x7A4 JUMP JUMPDEST STOP JUMPDEST TIMESTAMP PUSH32 0x0 PUSH6 0xFFFFFFFFFFFF AND LT ISZERO PUSH2 0x233 JUMPI PUSH2 0x1C1 PUSH2 0x520 JUMP JUMPDEST PUSH20 0xFFFFFFFFFFFFFFFFFFFFFFFFFFFFFFFFFFFFFFFF AND CALLER PUSH20 0xFFFFFFFFFFFFFFFFFFFFFFFFFFFFFFFFFFFFFFFF AND EQ PUSH2 0x22E JUMPI PUSH1 0x40 MLOAD PUSH32 0x8C379A000000000000000000000000000000000000000000000000000000000 DUP2 MSTORE PUSH1 0x4 ADD PUSH2 0x225 SWAP1 PUSH2 0xB3D JUMP JUMPDEST PUSH1 0x40 MLOAD DUP1 SWAP2 SUB SWAP1 REVERT JUMPDEST PUSH2 0x2B9 JUMP JUMPDEST PUSH2 0x23B PUSH2 0x547 JUMP JUMPDEST PUSH20 0xFFFFFFFFFFFFFFFFFFFFFFFFFFFFFFFFFFFFFFFF AND CALLER PUSH20 0xFFFFFFFFFFFFFFFFFFFFFFFFFFFFFFFFFFFFFFFF AND EQ DUP1 ISZERO PUSH2 0x279 JUMPI POP PUSH2 0x278 PUSH2 0x571 JUMP JUMPDEST JUMPDEST PUSH2 0x2B8 JUMPI PUSH1 0x40 MLOAD PUSH32 0x8C379A000000000000000000000000000000000000000000000000000000000 DUP2 MSTORE PUSH1 0x4 ADD PUSH2 0x2AF SWAP1 PUSH2 0xB3D JUMP JUMPDEST PUSH1 0x40 MLOAD DUP1 SWAP2 SUB SWAP1 REVERT JUMPDEST JUMPDEST DUP1 PUSH1 0x2 PUSH0 PUSH2 0x100 EXP DUP2 SLOAD DUP2 PUSH20 0xFFFFFFFFFFFFFFFFFFFFFFFFFFFFFFFFFFFFFFFF MUL NOT AND SWAP1 DUP4 PUSH20 0xFFFFFFFFFFFFFFFFFFFFFFFFFFFFFFFFFFFFFFFF AND MUL OR SWAP1 SSTORE POP DUP1 PUSH20 0xFFFFFFFFFFFFFFFFFFFFFFFFFFFFFFFFFFFFFFFF AND PUSH32 0x3553F1F7EF0242113266A8D183B621BB87468C99237F36B1150B6AB3D688B686 PUSH1 0x40 MLOAD PUSH1 0x40 MLOAD DUP1 SWAP2 SUB SWAP1 LOG2 POP JUMP JUMPDEST CALLER PUSH20 0xFFFFFFFFFFFFFFFFFFFFFFFFFFFFFFFFFFFFFFFF AND PUSH1 0x2 PUSH0 SWAP1 SLOAD SWAP1 PUSH2 0x100 EXP SWAP1 DIV PUSH20 0xFFFFFFFFFFFFFFFFFFFFFFFFFFFFFFFFFFFFFFFF AND PUSH20 0xFFFFFFFFFFFFFFFFFFFFFFFFFFFFFFFFFFFFFFFF AND SUB PUSH2 0x4C2 JUMPI PUSH1 0x2 PUSH0 PUSH2 0x100 EXP DUP2 SLOAD SWAP1 PUSH20 0xFFFFFFFFFFFFFFFFFFFFFFFFFFFFFFFFFFFFFFFF MUL NOT AND SWAP1 SSTORE CALLER PUSH1 0x3 PUSH0 ADD PUSH0 PUSH2 0x100 EXP DUP2 SLOAD DUP2 PUSH20 0xFFFFFFFFFFFFFFFFFFFFFFFFFFFFFFFFFFFFFFFF MUL NOT AND SWAP1 DUP4 PUSH20 0xFFFFFFFFFFFFFFFFFFFFFFFFFFFFFFFFFFFFFFFF AND MUL OR SWAP1 SSTORE POP PUSH1 0x3 PUSH0 ADD PUSH1 0x15 DUP2 DUP2 SWAP1 SLOAD SWAP1 PUSH2 0x100 EXP SWAP1 DIV PUSH4 0xFFFFFFFF AND DUP1 SWAP3 SWAP2 SWAP1 PUSH2 0x41D SWAP1 PUSH2 0xB88 JUMP JUMPDEST SWAP2 SWAP1 PUSH2 0x100 EXP DUP2 SLOAD DUP2 PUSH4 0xFFFFFFFF MUL NOT AND SWAP1 DUP4 PUSH4 0xFFFFFFFF AND MUL OR SWAP1 SSTORE POP POP PUSH1 0x3 PUSH0 ADD PUSH1 0x15 SWAP1 SLOAD SWAP1 PUSH2 0x100 EXP SWAP1 DIV PUSH4 0xFFFFFFFF AND PUSH4 0xFFFFFFFF AND PUSH1 0x3 PUSH0 ADD PUSH0 SWAP1 SLOAD SWAP1 PUSH2 0x100 EXP SWAP1 DIV PUSH20 0xFFFFFFFFFFFFFFFFFFFFFFFFFFFFFFFFFFFFFFFF AND PUSH20 0xFFFFFFFFFFFFFFFFFFFFFFFFFFFFFFFFFFFFFFFF AND PUSH32 0x5AD9B3688012CD825C1BFB941E4F5AFB2558AF6AF3DEADDF01DBB5E85ABDAF9 PUSH1 0x40 MLOAD PUSH1 0x40 MLOAD DUP1 SWAP2 SUB SWAP1 LOG3 PUSH2 0x4F4 JUMP JUMPDEST PUSH1 0x40 MLOAD PUSH32 0xB513955100000000000000000000000000000000000000000000000000000000 DUP2 MSTORE PUSH1 0x4 ADD PUSH1 0x40 MLOAD DUP1 SWAP2 SUB SWAP1 REVERT JUMPDEST JUMP JUMPDEST PUSH0 PUSH1 0x4 PUSH0 ADD PUSH0 SWAP1 SLOAD SWAP1 PUSH2 0x100 EXP SWAP1 DIV PUSH20 0xFFFFFFFFFFFFFFFFFFFFFFFFFFFFFFFFFFFFFFFF AND SWAP1 POP SWAP1 JUMP JUMPDEST PUSH0 DUP1 PUSH0 SWAP1 SLOAD SWAP1 PUSH2 0x100 EXP SWAP1 DIV PUSH20 0xFFFFFFFFFFFFFFFFFFFFFFFFFFFFFFFFFFFFFFFF AND SWAP1 POP SWAP1 JUMP JUMPDEST PUSH0 PUSH1 0x3 PUSH0 ADD PUSH0 SWAP1 SLOAD SWAP1 PUSH2 0x100 EXP SWAP1 DIV PUSH20 0xFFFFFFFFFFFFFFFFFFFFFFFFFFFFFFFFFFFFFFFF AND SWAP1 POP SWAP1 JUMP JUMPDEST PUSH0 PUSH1 0x3 PUSH0 ADD PUSH1 0x14 SWAP1 SLOAD SWAP1 PUSH2 0x100 EXP SWAP1 DIV PUSH1 0xFF AND SWAP1 POP SWAP1 JUMP JUMPDEST PUSH0 SWAP1 JUMP JUMPDEST TIMESTAMP PUSH32 0x0 PUSH6 0xFFFFFFFFFFFF AND LT ISZERO PUSH2 0x637 JUMPI PUSH2 0x5C5 PUSH2 0x520 JUMP JUMPDEST PUSH20 0xFFFFFFFFFFFFFFFFFFFFFFFFFFFFFFFFFFFFFFFF AND CALLER PUSH20 0xFFFFFFFFFFFFFFFFFFFFFFFFFFFFFFFFFFFFFFFF AND EQ PUSH2 0x632 JUMPI PUSH1 0x40 MLOAD PUSH32 0x8C379A000000000000000000000000000000000000000000000000000000000 DUP2 MSTORE PUSH1 0x4 ADD PUSH2 0x629 SWAP1 PUSH2 0xB3D JUMP JUMPDEST PUSH1 0x40 MLOAD DUP1 SWAP2 SUB SWAP1 REVERT JUMPDEST PUSH2 0x6BD JUMP JUMPDEST PUSH2 0x63F PUSH2 0x547 JUMP JUMPDEST PUSH20 0xFFFFFFFFFFFFFFFFFFFFFFFFFFFFFFFFFFFFFFFF AND CALLER PUSH20 0xFFFFFFFFFFFFFFFFFFFFFFFFFFFFFFFFFFFFFFFF AND EQ DUP1 ISZERO PUSH2 0x67D JUMPI POP PUSH2 0x67C PUSH2 0x571 JUMP JUMPDEST JUMPDEST PUSH2 0x6BC JUMPI PUSH1 0x40 MLOAD PUSH32 0x8C379A000000000000000000000000000000000000000000000000000000000 DUP2 MSTORE PUSH1 0x4 ADD PUSH2 0x6B3 SWAP1 PUSH2 0xB3D JUMP JUMPDEST PUSH1 0x40 MLOAD DUP1 SWAP2 SUB SWAP1 REVERT JUMPDEST JUMPDEST PUSH0 DUP2 PUSH20 0xFFFFFFFFFFFFFFFFFFFFFFFFFFFFFFFFFFFFFFFF AND EXTCODESIZE GT ISZERO PUSH2 0x764 JUMPI DUP1 PUSH1 0x1 PUSH0 PUSH2 0x100 EXP DUP2 SLOAD DUP2 PUSH20 0xFFFFFFFFFFFFFFFFFFFFFFFFFFFFFFFFFFFFFFFF MUL NOT AND SWAP1 DUP4 PUSH20 0xFFFFFFFFFFFFFFFFFFFFFFFFFFFFFFFFFFFFFFFF AND MUL OR SWAP1 SSTORE POP DUP1 PUSH20 0xFFFFFFFFFFFFFFFFFFFFFFFFFFFFFFFFFFFFFFFF AND PUSH32 0xE8D8E3C7C3EBEC0C177D0FE22D223F8B5071DB39155104808D45027E368BA77A PUSH1 0x40 MLOAD PUSH1 0x40 MLOAD DUP1 SWAP2 SUB SWAP1 LOG2 PUSH2 0x7A1 JUMP JUMPDEST DUP1 PUSH1 0x40 MLOAD PUSH32 0x84DBC6CB00000000000000000000000000000000000000000000000000000000 DUP2 MSTORE PUSH1 0x4 ADD PUSH2 0x798 SWAP2 SWAP1 PUSH2 0xA60 JUMP JUMPDEST PUSH1 0x40 MLOAD DUP1 SWAP2 SUB SWAP1 REVERT JUMPDEST POP JUMP JUMPDEST PUSH2 0x7AC PUSH2 0x547 JUMP JUMPDEST PUSH20 0xFFFFFFFFFFFFFFFFFFFFFFFFFFFFFFFFFFFFFFFF AND CALLER PUSH20 0xFFFFFFFFFFFFFFFFFFFFFFFFFFFFFFFFFFFFFFFF AND EQ DUP1 ISZERO PUSH2 0x7EA JUMPI POP PUSH2 0x7E9 PUSH2 0x571 JUMP JUMPDEST JUMPDEST PUSH2 0x829 JUMPI PUSH1 0x40 MLOAD PUSH32 0x8C379A000000000000000000000000000000000000000000000000000000000 DUP2 MSTORE PUSH1 0x4 ADD PUSH2 0x820 SWAP1 PUSH2 0xB3D JUMP JUMPDEST PUSH1 0x40 MLOAD DUP1 SWAP2 SUB SWAP1 REVERT JUMPDEST DUP1 PUSH20 0xFFFFFFFFFFFFFFFFFFFFFFFFFFFFFFFFFFFFFFFF AND PUSH1 0x1 PUSH0 SWAP1 SLOAD SWAP1 PUSH2 0x100 EXP SWAP1 DIV PUSH20 0xFFFFFFFFFFFFFFFFFFFFFFFFFFFFFFFFFFFFFFFF AND PUSH20 0xFFFFFFFFFFFFFFFFFFFFFFFFFFFFFFFFFFFFFFFF AND SUB PUSH2 0x988 JUMPI DUP1 PUSH1 0x4 PUSH0 ADD PUSH0 PUSH2 0x100 EXP DUP2 SLOAD DUP2 PUSH20 0xFFFFFFFFFFFFFFFFFFFFFFFFFFFFFFFFFFFFFFFF MUL NOT AND SWAP1 DUP4 PUSH20 0xFFFFFFFFFFFFFFFFFFFFFFFFFFFFFFFFFFFFFFFF AND MUL OR SWAP1 SSTORE POP PUSH1 0x4 PUSH0 ADD PUSH1 0x15 DUP2 DUP2 SWAP1 SLOAD SWAP1 PUSH2 0x100 EXP SWAP1 DIV PUSH4 0xFFFFFFFF AND DUP1 SWAP3 SWAP2 SWAP1 PUSH2 0x8E3 SWAP1 PUSH2 0xB88 JUMP JUMPDEST SWAP2 SWAP1 PUSH2 0x100 EXP DUP2 SLOAD DUP2 PUSH4 0xFFFFFFFF MUL NOT AND SWAP1 DUP4 PUSH4 0xFFFFFFFF AND MUL OR SWAP1 SSTORE POP POP PUSH1 0x4 PUSH0 ADD PUSH1 0x15 SWAP1 SLOAD SWAP1 PUSH2 0x100 EXP SWAP1 DIV PUSH4 0xFFFFFFFF AND PUSH4 0xFFFFFFFF AND PUSH1 0x4 PUSH0 ADD PUSH0 SWAP1 SLOAD SWAP1 PUSH2 0x100 EXP SWAP1 DIV PUSH20 0xFFFFFFFFFFFFFFFFFFFFFFFFFFFFFFFFFFFFFFFF AND PUSH20 0xFFFFFFFFFFFFFFFFFFFFFFFFFFFFFFFFFFFFFFFF AND PUSH32 0x5E86008A8467D1EFCCFE6CB6BD49BA7278D6AF2745A1E6994E443322A4237093 PUSH1 0x40 MLOAD PUSH1 0x40 MLOAD DUP1 SWAP2 SUB SWAP1 LOG3 PUSH2 0x9C5 JUMP JUMPDEST DUP1 PUSH1 0x40 MLOAD PUSH32 0x84DBC6CB00000000000000000000000000000000000000000000000000000000 DUP2 MSTORE PUSH1 0x4 ADD PUSH2 0x9BC SWAP2 SWAP1 PUSH2 0xA60 JUMP JUMPDEST PUSH1 0x40 MLOAD DUP1 SWAP2 SUB SWAP1 REVERT JUMPDEST POP JUMP JUMPDEST PUSH0 DUP1 REVERT JUMPDEST PUSH0 PUSH20 0xFFFFFFFFFFFFFFFFFFFFFFFFFFFFFFFFFFFFFFFF DUP3 AND SWAP1 POP SWAP2 SWAP1 POP JUMP JUMPDEST PUSH0 PUSH2 0x9F5 DUP3 PUSH2 0x9CC JUMP JUMPDEST SWAP1 POP SWAP2 SWAP1 POP JUMP JUMPDEST PUSH2 0xA05 DUP2 PUSH2 0x9EB JUMP JUMPDEST DUP2 EQ PUSH2 0xA0F JUMPI PUSH0 DUP1 REVERT JUMPDEST POP JUMP JUMPDEST PUSH0 DUP2 CALLDATALOAD SWAP1 POP PUSH2 0xA20 DUP2 PUSH2 0x9FC JUMP JUMPDEST SWAP3 SWAP2 POP POP JUMP JUMPDEST PUSH0 PUSH1 0x20 DUP3 DUP5 SUB SLT ISZERO PUSH2 0xA3B JUMPI PUSH2 0xA3A PUSH2 0x9C8 JUMP JUMPDEST JUMPDEST PUSH0 PUSH2 0xA48 DUP5 DUP3 DUP6 ADD PUSH2 0xA12 JUMP JUMPDEST SWAP2 POP POP SWAP3 SWAP2 POP POP JUMP JUMPDEST PUSH2 0xA5A DUP2 PUSH2 0x9EB JUMP JUMPDEST DUP3 MSTORE POP POP JUMP JUMPDEST PUSH0 PUSH1 0x20 DUP3 ADD SWAP1 POP PUSH2 0xA73 PUSH0 DUP4 ADD DUP5 PUSH2 0xA51 JUMP JUMPDEST SWAP3 SWAP2 POP POP JUMP JUMPDEST PUSH0 DUP2 ISZERO ISZERO SWAP1 POP SWAP2 SWAP1 POP JUMP JUMPDEST PUSH2 0xA8D DUP2 PUSH2 0xA79 JUMP JUMPDEST DUP3 MSTORE POP POP JUMP JUMPDEST PUSH0 PUSH1 0x20 DUP3 ADD SWAP1 POP PUSH2 0xAA6 PUSH0 DUP4 ADD DUP5 PUSH2 0xA84 JUMP JUMPDEST SWAP3 SWAP2 POP POP JUMP JUMPDEST PUSH0 PUSH4 0xFFFFFFFF DUP3 AND SWAP1 POP SWAP2 SWAP1 POP JUMP JUMPDEST PUSH2 0xAC4 DUP2 PUSH2 0xAAC JUMP JUMPDEST DUP3 MSTORE POP POP JUMP JUMPDEST PUSH0 PUSH1 0x20 DUP3 ADD SWAP1 POP PUSH2 0xADD PUSH0 DUP4 ADD DUP5 PUSH2 0xABB JUMP JUMPDEST SWAP3 SWAP2 POP POP JUMP JUMPDEST PUSH0 DUP3 DUP3 MSTORE PUSH1 0x20 DUP3 ADD SWAP1 POP SWAP3 SWAP2 POP POP JUMP JUMPDEST PUSH32 0x416363657373206973206E6F742076616C696400000000000000000000000000 PUSH0 DUP3 ADD MSTORE POP JUMP JUMPDEST PUSH0 PUSH2 0xB27 PUSH1 0x13 DUP4 PUSH2 0xAE3 JUMP JUMPDEST SWAP2 POP PUSH2 0xB32 DUP3 PUSH2 0xAF3 JUMP JUMPDEST PUSH1 0x20 DUP3 ADD SWAP1 POP SWAP2 SWAP1 POP JUMP JUMPDEST PUSH0 PUSH1 0x20 DUP3 ADD SWAP1 POP DUP2 DUP2 SUB PUSH0 DUP4 ADD MSTORE PUSH2 0xB54 DUP2 PUSH2 0xB1B JUMP JUMPDEST SWAP1 POP SWAP2 SWAP1 POP JUMP JUMPDEST PUSH32 0x4E487B7100000000000000000000000000000000000000000000000000000000 PUSH0 MSTORE PUSH1 0x11 PUSH1 0x4 MSTORE PUSH1 0x24 PUSH0 REVERT JUMPDEST PUSH0 PUSH2 0xB92 DUP3 PUSH2 0xAAC JUMP JUMPDEST SWAP2 POP PUSH4 0xFFFFFFFF DUP3 SUB PUSH2 0xBA8 JUMPI PUSH2 0xBA7 PUSH2 0xB5B JUMP JUMPDEST JUMPDEST PUSH1 0x1 DUP3 ADD SWAP1 POP SWAP2 SWAP1 POP JUMP INVALID LOG2 PUSH5 0x6970667358 0x22 SLT KECCAK256 0xBB DUP5 0xF8 0xB2 0xCF 0xAB PUSH30 0x2FDFFFEC51F0C6329091085B25067888E9712A1823432AED8564736F6C63 NUMBER STOP ADDMOD EQ STOP CALLER "
				},
				"gasEstimates": {
					"creation": {
						"codeDepositCost": "609800",
						"executionCost": "infinite",
						"totalCost": "infinite"
					},
					"external": {
						"getGovernance()": "2565",
						"getPresidentAdd()": "2520",
						"getPresidentBan()": "2551",
						"getRepublic_GAddress()": "2582",
						"getgovernanceVersion()": "374",
						"setPendigPresident(address)": "infinite",
						"setPendingGovernanceContractAddress(address)": "infinite",
						"transferGovernanceContractAddress(address)": "infinite",
						"transferPresident()": "83391"
					}
				},
				"methodIdentifiers": {
					"getGovernance()": "289b3c0d",
					"getPresidentAdd()": "66410997",
					"getPresidentBan()": "6cf106d7",
					"getRepublic_GAddress()": "4c7ac835",
					"getgovernanceVersion()": "c387b49c",
					"setPendigPresident(address)": "054203bd",
					"setPendingGovernanceContractAddress(address)": "ca4cce68",
					"transferGovernanceContractAddress(address)": "ee7126c3",
					"transferPresident()": "0df4c390"
				}
			},
			"storageLayout": {
				"storage": [
					{
						"astId": 3,
						"contract": "contracts/authority.sol:Authorrity",
						"label": "_RepublicGAddress",
						"offset": 0,
						"slot": "0",
						"type": "t_address"
					},
					{
						"astId": 46,
						"contract": "contracts/authority.sol:Authorrity",
						"label": "_pendingGCAddress",
						"offset": 0,
						"slot": "1",
						"type": "t_address"
					},
					{
						"astId": 48,
						"contract": "contracts/authority.sol:Authorrity",
						"label": "_pendigPresident",
						"offset": 0,
						"slot": "2",
						"type": "t_address"
					},
					{
						"astId": 60,
						"contract": "contracts/authority.sol:Authorrity",
						"label": "_president",
						"offset": 0,
						"slot": "3",
						"type": "t_struct(access)57_storage"
					},
					{
						"astId": 63,
						"contract": "contracts/authority.sol:Authorrity",
						"label": "_governance",
						"offset": 0,
						"slot": "4",
						"type": "t_struct(access)57_storage"
					}
				],
				"types": {
					"t_address": {
						"encoding": "inplace",
						"label": "address",
						"numberOfBytes": "20"
					},
					"t_bool": {
						"encoding": "inplace",
						"label": "bool",
						"numberOfBytes": "1"
					},
					"t_struct(access)57_storage": {
						"encoding": "inplace",
						"label": "struct Authorrity.access",
						"members": [
							{
								"astId": 52,
								"contract": "contracts/authority.sol:Authorrity",
								"label": "rolAdd",
								"offset": 0,
								"slot": "0",
								"type": "t_address"
							},
							{
								"astId": 54,
								"contract": "contracts/authority.sol:Authorrity",
								"label": "baned",
								"offset": 20,
								"slot": "0",
								"type": "t_bool"
							},
							{
								"astId": 56,
								"contract": "contracts/authority.sol:Authorrity",
								"label": "nonce",
								"offset": 21,
								"slot": "0",
								"type": "t_uint32"
							}
						],
						"numberOfBytes": "32"
					},
					"t_uint32": {
						"encoding": "inplace",
						"label": "uint32",
						"numberOfBytes": "4"
					}
				}
			},
			"userdoc": {
				"kind": "user",
				"methods": {},
				"version": 1
			}
		}
	}
}