{
	"contracts/ERC721TokenContractName.sol": {
		"ERC721TokenContractName": {
			"abi": [
				{
					"inputs": [
						{
							"internalType": "bytes20",
							"name": "name_",
							"type": "bytes20"
						},
						{
							"internalType": "bytes10",
							"name": "symbol_",
							"type": "bytes10"
						}
					],
					"stateMutability": "nonpayable",
					"type": "constructor"
				},
				{
					"inputs": [
						{
							"internalType": "address",
							"name": "sender",
							"type": "address"
						},
						{
							"internalType": "uint256",
							"name": "tokenId",
							"type": "uint256"
						},
						{
							"internalType": "address",
							"name": "owner",
							"type": "address"
						}
					],
					"name": "ERC721IncorrectOwner",
					"type": "error"
				},
				{
					"inputs": [
						{
							"internalType": "address",
							"name": "operator",
							"type": "address"
						},
						{
							"internalType": "uint256",
							"name": "tokenId",
							"type": "uint256"
						}
					],
					"name": "ERC721InsufficientApproval",
					"type": "error"
				},
				{
					"inputs": [
						{
							"internalType": "address",
							"name": "approver",
							"type": "address"
						}
					],
					"name": "ERC721InvalidApprover",
					"type": "error"
				},
				{
					"inputs": [
						{
							"internalType": "address",
							"name": "operator",
							"type": "address"
						}
					],
					"name": "ERC721InvalidOperator",
					"type": "error"
				},
				{
					"inputs": [
						{
							"internalType": "address",
							"name": "owner",
							"type": "address"
						}
					],
					"name": "ERC721InvalidOwner",
					"type": "error"
				},
				{
					"inputs": [
						{
							"internalType": "address",
							"name": "receiver",
							"type": "address"
						}
					],
					"name": "ERC721InvalidReceiver",
					"type": "error"
				},
				{
					"inputs": [
						{
							"internalType": "address",
							"name": "sender",
							"type": "address"
						}
					],
					"name": "ERC721InvalidSender",
					"type": "error"
				},
				{
					"inputs": [
						{
							"internalType": "uint256",
							"name": "tokenId",
							"type": "uint256"
						}
					],
					"name": "ERC721NonexistentToken",
					"type": "error"
				},
				{
					"anonymous": false,
					"inputs": [
						{
							"indexed": true,
							"internalType": "address",
							"name": "owner",
							"type": "address"
						},
						{
							"indexed": true,
							"internalType": "address",
							"name": "approved",
							"type": "address"
						},
						{
							"indexed": true,
							"internalType": "uint16",
							"name": "tokenId",
							"type": "uint16"
						}
					],
					"name": "Approval",
					"type": "event"
				},
				{
					"anonymous": false,
					"inputs": [
						{
							"indexed": true,
							"internalType": "address",
							"name": "owner",
							"type": "address"
						},
						{
							"indexed": true,
							"internalType": "address",
							"name": "operator",
							"type": "address"
						},
						{
							"indexed": false,
							"internalType": "bool",
							"name": "approved",
							"type": "bool"
						}
					],
					"name": "ApprovalForAll",
					"type": "event"
				},
				{
					"anonymous": false,
					"inputs": [
						{
							"indexed": true,
							"internalType": "address",
							"name": "from",
							"type": "address"
						},
						{
							"indexed": true,
							"internalType": "address",
							"name": "to",
							"type": "address"
						},
						{
							"indexed": true,
							"internalType": "uint16",
							"name": "tokenId",
							"type": "uint16"
						}
					],
					"name": "Transfer",
					"type": "event"
				},
				{
					"anonymous": false,
					"inputs": [
						{
							"indexed": true,
							"internalType": "uint16",
							"name": "newmaxMint",
							"type": "uint16"
						},
						{
							"indexed": true,
							"internalType": "uint48",
							"name": "newregistrationStartTime",
							"type": "uint48"
						},
						{
							"indexed": false,
							"internalType": "address",
							"name": "newexecutor",
							"type": "address"
						},
						{
							"indexed": false,
							"internalType": "address",
							"name": "newbankAddress",
							"type": "address"
						},
						{
							"indexed": false,
							"internalType": "uint256",
							"name": "newmintPrice",
							"type": "uint256"
						}
					],
					"name": "updatemintInfo",
					"type": "event"
				},
				{
					"inputs": [
						{
							"internalType": "address",
							"name": "to",
							"type": "address"
						},
						{
							"internalType": "uint16",
							"name": "tokenId",
							"type": "uint16"
						}
					],
					"name": "approve",
					"outputs": [],
					"stateMutability": "nonpayable",
					"type": "function"
				},
				{
					"inputs": [
						{
							"internalType": "address",
							"name": "owner",
							"type": "address"
						}
					],
					"name": "balanceOf",
					"outputs": [
						{
							"internalType": "uint16",
							"name": "",
							"type": "uint16"
						}
					],
					"stateMutability": "view",
					"type": "function"
				},
				{
					"inputs": [
						{
							"internalType": "uint16",
							"name": "tokenId",
							"type": "uint16"
						}
					],
					"name": "getApproved",
					"outputs": [
						{
							"internalType": "address",
							"name": "",
							"type": "address"
						}
					],
					"stateMutability": "view",
					"type": "function"
				},
				{
					"inputs": [
						{
							"internalType": "address",
							"name": "owner",
							"type": "address"
						},
						{
							"internalType": "address",
							"name": "operator",
							"type": "address"
						}
					],
					"name": "isApprovedForAll",
					"outputs": [
						{
							"internalType": "bool",
							"name": "",
							"type": "bool"
						}
					],
					"stateMutability": "view",
					"type": "function"
				},
				{
					"inputs": [],
					"name": "mint",
					"outputs": [],
					"stateMutability": "nonpayable",
					"type": "function"
				},
				{
					"inputs": [],
					"name": "name",
					"outputs": [
						{
							"internalType": "bytes20",
							"name": "",
							"type": "bytes20"
						}
					],
					"stateMutability": "view",
					"type": "function"
				},
				{
					"inputs": [
						{
							"internalType": "address",
							"name": "operator",
							"type": "address"
						},
						{
							"internalType": "address",
							"name": "from",
							"type": "address"
						},
						{
							"internalType": "uint16",
							"name": "tokenId",
							"type": "uint16"
						},
						{
							"internalType": "bytes",
							"name": "data",
							"type": "bytes"
						}
					],
					"name": "onERC721Received",
					"outputs": [
						{
							"internalType": "bytes4",
							"name": "",
							"type": "bytes4"
						}
					],
					"stateMutability": "nonpayable",
					"type": "function"
				},
				{
					"inputs": [
						{
							"internalType": "uint16",
							"name": "tokenId",
							"type": "uint16"
						}
					],
					"name": "ownerOf",
					"outputs": [
						{
							"internalType": "address",
							"name": "",
							"type": "address"
						}
					],
					"stateMutability": "view",
					"type": "function"
				},
				{
					"inputs": [
						{
							"internalType": "address",
							"name": "from",
							"type": "address"
						},
						{
							"internalType": "address",
							"name": "to",
							"type": "address"
						},
						{
							"internalType": "uint16",
							"name": "tokenId",
							"type": "uint16"
						}
					],
					"name": "safeTransferFrom",
					"outputs": [],
					"stateMutability": "nonpayable",
					"type": "function"
				},
				{
					"inputs": [
						{
							"internalType": "address",
							"name": "from",
							"type": "address"
						},
						{
							"internalType": "address",
							"name": "to",
							"type": "address"
						},
						{
							"internalType": "uint16",
							"name": "tokenId",
							"type": "uint16"
						},
						{
							"internalType": "bytes",
							"name": "data",
							"type": "bytes"
						}
					],
					"name": "safeTransferFrom",
					"outputs": [],
					"stateMutability": "nonpayable",
					"type": "function"
				},
				{
					"inputs": [
						{
							"internalType": "address",
							"name": "operator",
							"type": "address"
						},
						{
							"internalType": "bool",
							"name": "approved",
							"type": "bool"
						}
					],
					"name": "setApprovalForAll",
					"outputs": [],
					"stateMutability": "nonpayable",
					"type": "function"
				},
				{
					"inputs": [],
					"name": "setRegister",
					"outputs": [
						{
							"internalType": "bytes",
							"name": "",
							"type": "bytes"
						}
					],
					"stateMutability": "payable",
					"type": "function"
				},
				{
					"inputs": [],
					"name": "stateVoting",
					"outputs": [
						{
							"internalType": "bytes32",
							"name": "",
							"type": "bytes32"
						}
					],
					"stateMutability": "nonpayable",
					"type": "function"
				},
				{
					"inputs": [],
					"name": "symbol",
					"outputs": [
						{
							"internalType": "bytes10",
							"name": "",
							"type": "bytes10"
						}
					],
					"stateMutability": "view",
					"type": "function"
				},
				{
					"inputs": [
						{
							"internalType": "uint16",
							"name": "tokenId",
							"type": "uint16"
						}
					],
					"name": "tokenURI",
					"outputs": [
						{
							"internalType": "string",
							"name": "",
							"type": "string"
						}
					],
					"stateMutability": "view",
					"type": "function"
				},
				{
					"inputs": [
						{
							"internalType": "address",
							"name": "from",
							"type": "address"
						},
						{
							"internalType": "address",
							"name": "to",
							"type": "address"
						},
						{
							"internalType": "uint16",
							"name": "tokenId",
							"type": "uint16"
						}
					],
					"name": "transferFrom",
					"outputs": [],
					"stateMutability": "nonpayable",
					"type": "function"
				},
				{
					"inputs": [
						{
							"internalType": "uint16",
							"name": "newmaxMint",
							"type": "uint16"
						},
						{
							"internalType": "uint48",
							"name": "newregistrationStartTime",
							"type": "uint48"
						},
						{
							"internalType": "address",
							"name": "newexecutor",
							"type": "address"
						},
						{
							"internalType": "address",
							"name": "newbankAddress",
							"type": "address"
						},
						{
							"internalType": "uint256",
							"name": "newmintPrice",
							"type": "uint256"
						}
					],
					"name": "updateMintInfo",
					"outputs": [],
					"stateMutability": "nonpayable",
					"type": "function"
				}
			],
			"devdoc": {
				"errors": {
					"ERC721IncorrectOwner(address,uint256,address)": [
						{
							"details": "Indicates an error related to the ownership over a particular token. Used in transfers.",
							"params": {
								"owner": "Address of the current owner of a token.",
								"sender": "Address whose tokens are being transferred.",
								"tokenId": "Identifier number of a token."
							}
						}
					],
					"ERC721InsufficientApproval(address,uint256)": [
						{
							"details": "Indicates a failure with the `operator`’s approval. Used in transfers.",
							"params": {
								"operator": "Address that may be allowed to operate on tokens without being their owner.",
								"tokenId": "Identifier number of a token."
							}
						}
					],
					"ERC721InvalidApprover(address)": [
						{
							"details": "Indicates a failure with the `approver` of a token to be approved. Used in approvals.",
							"params": {
								"approver": "Address initiating an approval operation."
							}
						}
					],
					"ERC721InvalidOperator(address)": [
						{
							"details": "Indicates a failure with the `operator` to be approved. Used in approvals.",
							"params": {
								"operator": "Address that may be allowed to operate on tokens without being their owner."
							}
						}
					],
					"ERC721InvalidOwner(address)": [
						{
							"details": "Indicates that an address can't be an owner. For example, `address(0)` is a forbidden owner in EIP-20. Used in balance queries.",
							"params": {
								"owner": "Address of the current owner of a token."
							}
						}
					],
					"ERC721InvalidReceiver(address)": [
						{
							"details": "Indicates a failure with the token `receiver`. Used in transfers.",
							"params": {
								"receiver": "Address to which tokens are being transferred."
							}
						}
					],
					"ERC721InvalidSender(address)": [
						{
							"details": "Indicates a failure with the token `sender`. Used in transfers.",
							"params": {
								"sender": "Address whose tokens are being transferred."
							}
						}
					],
					"ERC721NonexistentToken(uint256)": [
						{
							"details": "Indicates a `tokenId` whose `owner` is the zero address.",
							"params": {
								"tokenId": "Identifier number of a token."
							}
						}
					]
				},
				"kind": "dev",
				"methods": {
					"onERC721Received(address,address,uint16,bytes)": {
						"details": "Whenever an {IERC721} `tokenId` token is transferred to this contract via {IERC721-safeTransferFrom} by `operator` from `from`, this function is called. It must return its Solidity selector to confirm the token transfer. If any other value is returned or the interface is not implemented by the recipient, the transfer will be reverted. The selector can be obtained in Solidity with `IERC721Receiver.onERC721Received.selector`."
					}
				},
				"version": 1
			},
			"evm": {
				"assembly": "    /* \"contracts/ERC721TokenContractName.sol\":400:9788  contract ERC721TokenContractName is Context, IERC721Errors, IERC721TCNReceiver {... */\n  mstore(0x40, 0x80)\n    /* \"contracts/ERC721TokenContractName.sol\":1690:1873  constructor(bytes20 name_, bytes10 symbol_) {... */\n  callvalue\n  dup1\n  iszero\n  tag_1\n  jumpi\n  0x00\n  dup1\n  revert\ntag_1:\n  pop\n  mload(0x40)\n  sub(codesize, bytecodeSize)\n  dup1\n  bytecodeSize\n  dup4\n  codecopy\n  dup2\n  dup2\n  add\n  0x40\n  mstore\n  dup2\n  add\n  swap1\n  tag_2\n  swap2\n  swap1\n  tag_3\n  jump\t// in\ntag_2:\n    /* \"contracts/ERC721TokenContractName.sol\":1753:1758  name_ */\n  dup2\n    /* \"contracts/ERC721TokenContractName.sol\":1745:1750  _name */\n  0x00\n  dup1\n    /* \"contracts/ERC721TokenContractName.sol\":1745:1758  _name = name_ */\n  0x0100\n  exp\n  dup2\n  sload\n  dup2\n  0xffffffffffffffffffffffffffffffffffffffff\n  mul\n  not\n  and\n  swap1\n  dup4\n  0x60\n  shr\n  mul\n  or\n  swap1\n  sstore\n  pop\n    /* \"contracts/ERC721TokenContractName.sol\":1779:1786  symbol_ */\n  dup1\n    /* \"contracts/ERC721TokenContractName.sol\":1769:1776  _symbol */\n  0x00\n  0x14\n    /* \"contracts/ERC721TokenContractName.sol\":1769:1786  _symbol = symbol_ */\n  0x0100\n  exp\n  dup2\n  sload\n  dup2\n  0xffffffffffffffffffff\n  mul\n  not\n  and\n  swap1\n  dup4\n  0xb0\n  shr\n  mul\n  or\n  swap1\n  sstore\n  pop\n    /* \"contracts/ERC721TokenContractName.sol\":1817:1829  _msgSender() */\n  tag_6\n    /* \"contracts/ERC721TokenContractName.sol\":1817:1827  _msgSender */\n  shl(0x20, tag_7)\n    /* \"contracts/ERC721TokenContractName.sol\":1817:1829  _msgSender() */\n  0x20\n  shr\n  jump\t// in\ntag_6:\n    /* \"contracts/ERC721TokenContractName.sol\":1797:1805  mintInfo */\n  0x01\n    /* \"contracts/ERC721TokenContractName.sol\":1797:1814  mintInfo.executor */\n  0x00\n  add\n  0x0c\n    /* \"contracts/ERC721TokenContractName.sol\":1797:1829  mintInfo.executor = _msgSender() */\n  0x0100\n  exp\n  dup2\n  sload\n  dup2\n  0xffffffffffffffffffffffffffffffffffffffff\n  mul\n  not\n  and\n  swap1\n  dup4\n  0xffffffffffffffffffffffffffffffffffffffff\n  and\n  mul\n  or\n  swap1\n  sstore\n  pop\n    /* \"contracts/ERC721TokenContractName.sol\":1864:1865  1 */\n  0x01\n    /* \"contracts/ERC721TokenContractName.sol\":1840:1848  mintInfo */\n  dup1\n    /* \"contracts/ERC721TokenContractName.sol\":1840:1861  mintInfo.nRegistrants */\n  0x00\n  add\n  0x04\n    /* \"contracts/ERC721TokenContractName.sol\":1840:1865  mintInfo.nRegistrants = 1 */\n  0x0100\n  exp\n  dup2\n  sload\n  dup2\n  0xffff\n  mul\n  not\n  and\n  swap1\n  dup4\n  0xffff\n  and\n  mul\n  or\n  swap1\n  sstore\n  pop\n    /* \"contracts/ERC721TokenContractName.sol\":1690:1873  constructor(bytes20 name_, bytes10 symbol_) {... */\n  pop\n  pop\n    /* \"contracts/ERC721TokenContractName.sol\":400:9788  contract ERC721TokenContractName is Context, IERC721Errors, IERC721TCNReceiver {... */\n  jump(tag_8)\n    /* \"@openzeppelin/contracts/utils/Context.sol\":656:752  function _msgSender() internal view virtual returns (address) {... */\ntag_7:\n    /* \"@openzeppelin/contracts/utils/Context.sol\":709:716  address */\n  0x00\n    /* \"@openzeppelin/contracts/utils/Context.sol\":735:745  msg.sender */\n  caller\n    /* \"@openzeppelin/contracts/utils/Context.sol\":728:745  return msg.sender */\n  swap1\n  pop\n    /* \"@openzeppelin/contracts/utils/Context.sol\":656:752  function _msgSender() internal view virtual returns (address) {... */\n  swap1\n  jump\t// out\n    /* \"#utility.yul\":88:205   */\ntag_11:\n    /* \"#utility.yul\":197:198   */\n  0x00\n    /* \"#utility.yul\":194:195   */\n  dup1\n    /* \"#utility.yul\":187:199   */\n  revert\n    /* \"#utility.yul\":334:484   */\ntag_13:\n    /* \"#utility.yul\":371:378   */\n  0x00\n    /* \"#utility.yul\":411:477   */\n  0xffffffffffffffffffffffffffffffffffffffff000000000000000000000000\n    /* \"#utility.yul\":404:409   */\n  dup3\n    /* \"#utility.yul\":400:478   */\n  and\n    /* \"#utility.yul\":389:478   */\n  swap1\n  pop\n    /* \"#utility.yul\":334:484   */\n  swap2\n  swap1\n  pop\n  jump\t// out\n    /* \"#utility.yul\":490:612   */\ntag_14:\n    /* \"#utility.yul\":563:587   */\n  tag_25\n    /* \"#utility.yul\":581:586   */\n  dup2\n    /* \"#utility.yul\":563:587   */\n  tag_13\n  jump\t// in\ntag_25:\n    /* \"#utility.yul\":556:561   */\n  dup2\n    /* \"#utility.yul\":553:588   */\n  eq\n    /* \"#utility.yul\":543:606   */\n  tag_26\n  jumpi\n    /* \"#utility.yul\":602:603   */\n  0x00\n    /* \"#utility.yul\":599:600   */\n  dup1\n    /* \"#utility.yul\":592:604   */\n  revert\n    /* \"#utility.yul\":543:606   */\ntag_26:\n    /* \"#utility.yul\":490:612   */\n  pop\n  jump\t// out\n    /* \"#utility.yul\":618:761   */\ntag_15:\n    /* \"#utility.yul\":675:680   */\n  0x00\n    /* \"#utility.yul\":706:712   */\n  dup2\n    /* \"#utility.yul\":700:713   */\n  mload\n    /* \"#utility.yul\":691:713   */\n  swap1\n  pop\n    /* \"#utility.yul\":722:755   */\n  tag_28\n    /* \"#utility.yul\":749:754   */\n  dup2\n    /* \"#utility.yul\":722:755   */\n  tag_14\n  jump\t// in\ntag_28:\n    /* \"#utility.yul\":618:761   */\n  swap3\n  swap2\n  pop\n  pop\n  jump\t// out\n    /* \"#utility.yul\":767:917   */\ntag_16:\n    /* \"#utility.yul\":804:811   */\n  0x00\n    /* \"#utility.yul\":844:910   */\n  0xffffffffffffffffffff00000000000000000000000000000000000000000000\n    /* \"#utility.yul\":837:842   */\n  dup3\n    /* \"#utility.yul\":833:911   */\n  and\n    /* \"#utility.yul\":822:911   */\n  swap1\n  pop\n    /* \"#utility.yul\":767:917   */\n  swap2\n  swap1\n  pop\n  jump\t// out\n    /* \"#utility.yul\":923:1045   */\ntag_17:\n    /* \"#utility.yul\":996:1020   */\n  tag_31\n    /* \"#utility.yul\":1014:1019   */\n  dup2\n    /* \"#utility.yul\":996:1020   */\n  tag_16\n  jump\t// in\ntag_31:\n    /* \"#utility.yul\":989:994   */\n  dup2\n    /* \"#utility.yul\":986:1021   */\n  eq\n    /* \"#utility.yul\":976:1039   */\n  tag_32\n  jumpi\n    /* \"#utility.yul\":1035:1036   */\n  0x00\n    /* \"#utility.yul\":1032:1033   */\n  dup1\n    /* \"#utility.yul\":1025:1037   */\n  revert\n    /* \"#utility.yul\":976:1039   */\ntag_32:\n    /* \"#utility.yul\":923:1045   */\n  pop\n  jump\t// out\n    /* \"#utility.yul\":1051:1194   */\ntag_18:\n    /* \"#utility.yul\":1108:1113   */\n  0x00\n    /* \"#utility.yul\":1139:1145   */\n  dup2\n    /* \"#utility.yul\":1133:1146   */\n  mload\n    /* \"#utility.yul\":1124:1146   */\n  swap1\n  pop\n    /* \"#utility.yul\":1155:1188   */\n  tag_34\n    /* \"#utility.yul\":1182:1187   */\n  dup2\n    /* \"#utility.yul\":1155:1188   */\n  tag_17\n  jump\t// in\ntag_34:\n    /* \"#utility.yul\":1051:1194   */\n  swap3\n  swap2\n  pop\n  pop\n  jump\t// out\n    /* \"#utility.yul\":1200:1707   */\ntag_3:\n    /* \"#utility.yul\":1279:1285   */\n  0x00\n    /* \"#utility.yul\":1287:1293   */\n  dup1\n    /* \"#utility.yul\":1336:1338   */\n  0x40\n    /* \"#utility.yul\":1324:1333   */\n  dup4\n    /* \"#utility.yul\":1315:1322   */\n  dup6\n    /* \"#utility.yul\":1311:1334   */\n  sub\n    /* \"#utility.yul\":1307:1339   */\n  slt\n    /* \"#utility.yul\":1304:1423   */\n  iszero\n  tag_36\n  jumpi\n    /* \"#utility.yul\":1342:1421   */\n  tag_37\n  tag_11\n  jump\t// in\ntag_37:\n    /* \"#utility.yul\":1304:1423   */\ntag_36:\n    /* \"#utility.yul\":1462:1463   */\n  0x00\n    /* \"#utility.yul\":1487:1551   */\n  tag_38\n    /* \"#utility.yul\":1543:1550   */\n  dup6\n    /* \"#utility.yul\":1534:1540   */\n  dup3\n    /* \"#utility.yul\":1523:1532   */\n  dup7\n    /* \"#utility.yul\":1519:1541   */\n  add\n    /* \"#utility.yul\":1487:1551   */\n  tag_15\n  jump\t// in\ntag_38:\n    /* \"#utility.yul\":1477:1551   */\n  swap3\n  pop\n    /* \"#utility.yul\":1433:1561   */\n  pop\n    /* \"#utility.yul\":1600:1602   */\n  0x20\n    /* \"#utility.yul\":1626:1690   */\n  tag_39\n    /* \"#utility.yul\":1682:1689   */\n  dup6\n    /* \"#utility.yul\":1673:1679   */\n  dup3\n    /* \"#utility.yul\":1662:1671   */\n  dup7\n    /* \"#utility.yul\":1658:1680   */\n  add\n    /* \"#utility.yul\":1626:1690   */\n  tag_18\n  jump\t// in\ntag_39:\n    /* \"#utility.yul\":1616:1690   */\n  swap2\n  pop\n    /* \"#utility.yul\":1571:1700   */\n  pop\n    /* \"#utility.yul\":1200:1707   */\n  swap3\n  pop\n  swap3\n  swap1\n  pop\n  jump\t// out\n    /* \"contracts/ERC721TokenContractName.sol\":400:9788  contract ERC721TokenContractName is Context, IERC721Errors, IERC721TCNReceiver {... */\ntag_8:\n  dataSize(sub_0)\n  dup1\n  dataOffset(sub_0)\n  0x00\n  codecopy\n  0x00\n  return\nstop\n\nsub_0: assembly {\n        /* \"contracts/ERC721TokenContractName.sol\":400:9788  contract ERC721TokenContractName is Context, IERC721Errors, IERC721TCNReceiver {... */\n      mstore(0x40, 0x80)\n      jumpi(tag_1, lt(calldatasize, 0x04))\n      shr(0xe0, calldataload(0x00))\n      dup1\n      0x93b871f2\n      gt\n      tag_19\n      jumpi\n      dup1\n      0xb1cff380\n      gt\n      tag_20\n      jumpi\n      dup1\n      0xb1cff380\n      eq\n      tag_14\n      jumpi\n      dup1\n      0xdd7d8440\n      eq\n      tag_15\n      jumpi\n      dup1\n      0xe560ca43\n      eq\n      tag_16\n      jumpi\n      dup1\n      0xe985e9c5\n      eq\n      tag_17\n      jumpi\n      dup1\n      0xecadbc04\n      eq\n      tag_18\n      jumpi\n      jump(tag_1)\n    tag_20:\n      dup1\n      0x93b871f2\n      eq\n      tag_10\n      jumpi\n      dup1\n      0x95d89b41\n      eq\n      tag_11\n      jumpi\n      dup1\n      0xa22cb465\n      eq\n      tag_12\n      jumpi\n      dup1\n      0xb145ae31\n      eq\n      tag_13\n      jumpi\n      jump(tag_1)\n    tag_19:\n      dup1\n      0x6e1514f1\n      gt\n      tag_21\n      jumpi\n      dup1\n      0x6e1514f1\n      eq\n      tag_6\n      jumpi\n      dup1\n      0x70a08231\n      eq\n      tag_7\n      jumpi\n      dup1\n      0x770fce53\n      eq\n      tag_8\n      jumpi\n      dup1\n      0x82a7cf1e\n      eq\n      tag_9\n      jumpi\n      jump(tag_1)\n    tag_21:\n      dup1\n      0x06fdde03\n      eq\n      tag_2\n      jumpi\n      dup1\n      0x07394401\n      eq\n      tag_3\n      jumpi\n      dup1\n      0x1249c58b\n      eq\n      tag_4\n      jumpi\n      dup1\n      0x4ec3dcfe\n      eq\n      tag_5\n      jumpi\n    tag_1:\n      0x00\n      dup1\n      revert\n        /* \"contracts/ERC721TokenContractName.sol\":1883:1960  function name() public view returns (bytes20) {... */\n    tag_2:\n      callvalue\n      dup1\n      iszero\n      tag_22\n      jumpi\n      0x00\n      dup1\n      revert\n    tag_22:\n      pop\n      tag_23\n      tag_24\n      jump\t// in\n    tag_23:\n      mload(0x40)\n      tag_25\n      swap2\n      swap1\n      tag_26\n      jump\t// in\n    tag_25:\n      mload(0x40)\n      dup1\n      swap2\n      sub\n      swap1\n      return\n        /* \"contracts/ERC721TokenContractName.sol\":4791:4924  function safeTransferFrom(address from, address to, uint16 tokenId) public {... */\n    tag_3:\n      callvalue\n      dup1\n      iszero\n      tag_27\n      jumpi\n      0x00\n      dup1\n      revert\n    tag_27:\n      pop\n      tag_28\n      0x04\n      dup1\n      calldatasize\n      sub\n      dup2\n      add\n      swap1\n      tag_29\n      swap2\n      swap1\n      tag_30\n      jump\t// in\n    tag_29:\n      tag_31\n      jump\t// in\n    tag_28:\n      stop\n        /* \"contracts/ERC721TokenContractName.sol\":7063:7096  function mint() public {... */\n    tag_4:\n      callvalue\n      dup1\n      iszero\n      tag_32\n      jumpi\n      0x00\n      dup1\n      revert\n    tag_32:\n      pop\n      tag_33\n      tag_34\n      jump\t// in\n    tag_33:\n      stop\n        /* \"contracts/ERC721TokenContractName.sol\":3786:4783  function transferFrom(address from, address to, uint16 tokenId) public virtual {... */\n    tag_5:\n      callvalue\n      dup1\n      iszero\n      tag_35\n      jumpi\n      0x00\n      dup1\n      revert\n    tag_35:\n      pop\n      tag_36\n      0x04\n      dup1\n      calldatasize\n      sub\n      dup2\n      add\n      swap1\n      tag_37\n      swap2\n      swap1\n      tag_30\n      jump\t// in\n    tag_37:\n      tag_38\n      jump\t// in\n    tag_36:\n      stop\n        /* \"contracts/ERC721TokenContractName.sol\":9694:9751  function stateVoting() public returns(bytes32) {... */\n    tag_6:\n      callvalue\n      dup1\n      iszero\n      tag_39\n      jumpi\n      0x00\n      dup1\n      revert\n    tag_39:\n      pop\n      tag_40\n      tag_41\n      jump\t// in\n    tag_40:\n      mload(0x40)\n      tag_42\n      swap2\n      swap1\n      tag_43\n      jump\t// in\n    tag_42:\n      mload(0x40)\n      dup1\n      swap2\n      sub\n      swap1\n      return\n        /* \"contracts/ERC721TokenContractName.sol\":2061:2250  function balanceOf(address owner) public view returns (uint16) {... */\n    tag_7:\n      callvalue\n      dup1\n      iszero\n      tag_44\n      jumpi\n      0x00\n      dup1\n      revert\n    tag_44:\n      pop\n      tag_45\n      0x04\n      dup1\n      calldatasize\n      sub\n      dup2\n      add\n      swap1\n      tag_46\n      swap2\n      swap1\n      tag_47\n      jump\t// in\n    tag_46:\n      tag_48\n      jump\t// in\n    tag_45:\n      mload(0x40)\n      tag_49\n      swap2\n      swap1\n      tag_50\n      jump\t// in\n    tag_49:\n      mload(0x40)\n      dup1\n      swap2\n      sub\n      swap1\n      return\n        /* \"contracts/ERC721TokenContractName.sol\":5152:6227  function updateMintInfo(uint16 newmaxMint, uint48 newregistrationStartTime, address newexecutor, address newbankAddress, uint256 newmintPrice) public {... */\n    tag_8:\n      callvalue\n      dup1\n      iszero\n      tag_51\n      jumpi\n      0x00\n      dup1\n      revert\n    tag_51:\n      pop\n      tag_52\n      0x04\n      dup1\n      calldatasize\n      sub\n      dup2\n      add\n      swap1\n      tag_53\n      swap2\n      swap1\n      tag_54\n      jump\t// in\n    tag_53:\n      tag_55\n      jump\t// in\n    tag_52:\n      stop\n        /* \"contracts/ERC721TokenContractName.sol\":2260:2371  function ownerOf(uint16 tokenId) public view returns (address) {... */\n    tag_9:\n      callvalue\n      dup1\n      iszero\n      tag_56\n      jumpi\n      0x00\n      dup1\n      revert\n    tag_56:\n      pop\n      tag_57\n      0x04\n      dup1\n      calldatasize\n      sub\n      dup2\n      add\n      swap1\n      tag_58\n      swap2\n      swap1\n      tag_59\n      jump\t// in\n    tag_58:\n      tag_60\n      jump\t// in\n    tag_57:\n      mload(0x40)\n      tag_61\n      swap2\n      swap1\n      tag_62\n      jump\t// in\n    tag_61:\n      mload(0x40)\n      dup1\n      swap2\n      sub\n      swap1\n      return\n        /* \"contracts/ERC721TokenContractName.sol\":3027:3187  function getApproved(uint16 tokenId) public view virtual returns (address) {... */\n    tag_10:\n      callvalue\n      dup1\n      iszero\n      tag_63\n      jumpi\n      0x00\n      dup1\n      revert\n    tag_63:\n      pop\n      tag_64\n      0x04\n      dup1\n      calldatasize\n      sub\n      dup2\n      add\n      swap1\n      tag_65\n      swap2\n      swap1\n      tag_59\n      jump\t// in\n    tag_65:\n      tag_66\n      jump\t// in\n    tag_64:\n      mload(0x40)\n      tag_67\n      swap2\n      swap1\n      tag_62\n      jump\t// in\n    tag_67:\n      mload(0x40)\n      dup1\n      swap2\n      sub\n      swap1\n      return\n        /* \"contracts/ERC721TokenContractName.sol\":1970:2051  function symbol() public view returns (bytes10) {... */\n    tag_11:\n      callvalue\n      dup1\n      iszero\n      tag_68\n      jumpi\n      0x00\n      dup1\n      revert\n    tag_68:\n      pop\n      tag_69\n      tag_70\n      jump\t// in\n    tag_69:\n      mload(0x40)\n      tag_71\n      swap2\n      swap1\n      tag_72\n      jump\t// in\n    tag_71:\n      mload(0x40)\n      dup1\n      swap2\n      sub\n      swap1\n      return\n        /* \"contracts/ERC721TokenContractName.sol\":3195:3621  function setApprovalForAll(address operator, bool approved) public {... */\n    tag_12:\n      callvalue\n      dup1\n      iszero\n      tag_73\n      jumpi\n      0x00\n      dup1\n      revert\n    tag_73:\n      pop\n      tag_74\n      0x04\n      dup1\n      calldatasize\n      sub\n      dup2\n      add\n      swap1\n      tag_75\n      swap2\n      swap1\n      tag_76\n      jump\t// in\n    tag_75:\n      tag_77\n      jump\t// in\n    tag_74:\n      stop\n        /* \"contracts/ERC721TokenContractName.sol\":4932:5142  function safeTransferFrom(address from, address to, uint16 tokenId, bytes memory data) public virtual {... */\n    tag_13:\n      callvalue\n      dup1\n      iszero\n      tag_78\n      jumpi\n      0x00\n      dup1\n      revert\n    tag_78:\n      pop\n      tag_79\n      0x04\n      dup1\n      calldatasize\n      sub\n      dup2\n      add\n      swap1\n      tag_80\n      swap2\n      swap1\n      tag_81\n      jump\t// in\n    tag_80:\n      tag_82\n      jump\t// in\n    tag_79:\n      stop\n        /* \"contracts/ERC721TokenContractName.sol\":9423:9588  function onERC721Received(... */\n    tag_14:\n      callvalue\n      dup1\n      iszero\n      tag_83\n      jumpi\n      0x00\n      dup1\n      revert\n    tag_83:\n      pop\n      tag_84\n      0x04\n      dup1\n      calldatasize\n      sub\n      dup2\n      add\n      swap1\n      tag_85\n      swap2\n      swap1\n      tag_86\n      jump\t// in\n    tag_85:\n      tag_87\n      jump\t// in\n    tag_84:\n      mload(0x40)\n      tag_88\n      swap2\n      swap1\n      tag_89\n      jump\t// in\n    tag_88:\n      mload(0x40)\n      dup1\n      swap2\n      sub\n      swap1\n      return\n        /* \"contracts/ERC721TokenContractName.sol\":2381:2621  function tokenURI(uint16 tokenId) public view returns (string memory) {... */\n    tag_15:\n      callvalue\n      dup1\n      iszero\n      tag_90\n      jumpi\n      0x00\n      dup1\n      revert\n    tag_90:\n      pop\n      tag_91\n      0x04\n      dup1\n      calldatasize\n      sub\n      dup2\n      add\n      swap1\n      tag_92\n      swap2\n      swap1\n      tag_59\n      jump\t// in\n    tag_92:\n      tag_93\n      jump\t// in\n    tag_91:\n      mload(0x40)\n      tag_94\n      swap2\n      swap1\n      tag_95\n      jump\t// in\n    tag_94:\n      mload(0x40)\n      dup1\n      swap2\n      sub\n      swap1\n      return\n        /* \"contracts/ERC721TokenContractName.sol\":2631:3019  function approve(address to, uint16 tokenId) public {... */\n    tag_16:\n      callvalue\n      dup1\n      iszero\n      tag_96\n      jumpi\n      0x00\n      dup1\n      revert\n    tag_96:\n      pop\n      tag_97\n      0x04\n      dup1\n      calldatasize\n      sub\n      dup2\n      add\n      swap1\n      tag_98\n      swap2\n      swap1\n      tag_99\n      jump\t// in\n    tag_98:\n      tag_100\n      jump\t// in\n    tag_97:\n      stop\n        /* \"contracts/ERC721TokenContractName.sol\":3631:3778  function isApprovedForAll(address owner, address operator) public view returns (bool) {... */\n    tag_17:\n      callvalue\n      dup1\n      iszero\n      tag_101\n      jumpi\n      0x00\n      dup1\n      revert\n    tag_101:\n      pop\n      tag_102\n      0x04\n      dup1\n      calldatasize\n      sub\n      dup2\n      add\n      swap1\n      tag_103\n      swap2\n      swap1\n      tag_104\n      jump\t// in\n    tag_103:\n      tag_105\n      jump\t// in\n    tag_102:\n      mload(0x40)\n      tag_106\n      swap2\n      swap1\n      tag_107\n      jump\t// in\n    tag_106:\n      mload(0x40)\n      dup1\n      swap2\n      sub\n      swap1\n      return\n        /* \"contracts/ERC721TokenContractName.sol\":6235:7055  function setRegister() public payable returns (bytes memory) { // accsesemit barash benevis baraye tasir gozari dar dastresi... */\n    tag_18:\n      tag_108\n      tag_109\n      jump\t// in\n    tag_108:\n      mload(0x40)\n      tag_110\n      swap2\n      swap1\n      tag_111\n      jump\t// in\n    tag_110:\n      mload(0x40)\n      dup1\n      swap2\n      sub\n      swap1\n      return\n        /* \"contracts/ERC721TokenContractName.sol\":1883:1960  function name() public view returns (bytes20) {... */\n    tag_24:\n        /* \"contracts/ERC721TokenContractName.sol\":1920:1927  bytes20 */\n      0x00\n        /* \"contracts/ERC721TokenContractName.sol\":1947:1952  _name */\n      dup1\n      0x00\n      swap1\n      sload\n      swap1\n      0x0100\n      exp\n      swap1\n      div\n      0x60\n      shl\n        /* \"contracts/ERC721TokenContractName.sol\":1940:1952  return _name */\n      swap1\n      pop\n        /* \"contracts/ERC721TokenContractName.sol\":1883:1960  function name() public view returns (bytes20) {... */\n      swap1\n      jump\t// out\n        /* \"contracts/ERC721TokenContractName.sol\":4791:4924  function safeTransferFrom(address from, address to, uint16 tokenId) public {... */\n    tag_31:\n        /* \"contracts/ERC721TokenContractName.sol\":4877:4916  safeTransferFrom(from, to, tokenId, \"\") */\n      tag_114\n        /* \"contracts/ERC721TokenContractName.sol\":4894:4898  from */\n      dup4\n        /* \"contracts/ERC721TokenContractName.sol\":4900:4902  to */\n      dup4\n        /* \"contracts/ERC721TokenContractName.sol\":4904:4911  tokenId */\n      dup4\n        /* \"contracts/ERC721TokenContractName.sol\":4877:4916  safeTransferFrom(from, to, tokenId, \"\") */\n      mload(0x40)\n      dup1\n      0x20\n      add\n      0x40\n      mstore\n      dup1\n      0x00\n      dup2\n      mstore\n      pop\n        /* \"contracts/ERC721TokenContractName.sol\":4877:4893  safeTransferFrom */\n      tag_82\n        /* \"contracts/ERC721TokenContractName.sol\":4877:4916  safeTransferFrom(from, to, tokenId, \"\") */\n      jump\t// in\n    tag_114:\n        /* \"contracts/ERC721TokenContractName.sol\":4791:4924  function safeTransferFrom(address from, address to, uint16 tokenId) public {... */\n      pop\n      pop\n      pop\n      jump\t// out\n        /* \"contracts/ERC721TokenContractName.sol\":7063:7096  function mint() public {... */\n    tag_34:\n      jump\t// out\n        /* \"contracts/ERC721TokenContractName.sol\":3786:4783  function transferFrom(address from, address to, uint16 tokenId) public virtual {... */\n    tag_38:\n        /* \"contracts/ERC721TokenContractName.sol\":3895:3896  0 */\n      0x00\n        /* \"contracts/ERC721TokenContractName.sol\":3881:3897  to == address(0) */\n      0xffffffffffffffffffffffffffffffffffffffff\n      and\n        /* \"contracts/ERC721TokenContractName.sol\":3881:3883  to */\n      dup3\n        /* \"contracts/ERC721TokenContractName.sol\":3881:3897  to == address(0) */\n      0xffffffffffffffffffffffffffffffffffffffff\n      and\n      sub\n        /* \"contracts/ERC721TokenContractName.sol\":3877:3966  if (to == address(0)) {... */\n      tag_117\n      jumpi\n        /* \"contracts/ERC721TokenContractName.sol\":3951:3952  0 */\n      0x00\n        /* \"contracts/ERC721TokenContractName.sol\":3921:3954  ERC721InvalidReceiver(address(0)) */\n      mload(0x40)\n      0x64a0ae9200000000000000000000000000000000000000000000000000000000\n      dup2\n      mstore\n      0x04\n      add\n      tag_118\n      swap2\n      swap1\n      tag_62\n      jump\t// in\n    tag_118:\n      mload(0x40)\n      dup1\n      swap2\n      sub\n      swap1\n      revert\n        /* \"contracts/ERC721TokenContractName.sol\":3877:3966  if (to == address(0)) {... */\n    tag_117:\n        /* \"contracts/ERC721TokenContractName.sol\":3978:3999  address previousOwner */\n      0x00\n        /* \"contracts/ERC721TokenContractName.sol\":4002:4024  _requireOwned(tokenId) */\n      tag_119\n        /* \"contracts/ERC721TokenContractName.sol\":4016:4023  tokenId */\n      dup3\n        /* \"contracts/ERC721TokenContractName.sol\":4002:4015  _requireOwned */\n      tag_120\n        /* \"contracts/ERC721TokenContractName.sol\":4002:4024  _requireOwned(tokenId) */\n      jump\t// in\n    tag_119:\n        /* \"contracts/ERC721TokenContractName.sol\":3978:4024  address previousOwner = _requireOwned(tokenId) */\n      swap1\n      pop\n        /* \"contracts/ERC721TokenContractName.sol\":4046:4049  ban */\n      0x0966\n        /* \"contracts/ERC721TokenContractName.sol\":4050:4057  tokenId */\n      dup3\n        /* \"contracts/ERC721TokenContractName.sol\":4046:4058  ban[tokenId] */\n      0xffff\n      and\n      0x04b1\n      dup2\n      lt\n      tag_121\n      jumpi\n      tag_122\n      tag_123\n      jump\t// in\n    tag_122:\n    tag_121:\n      0x20\n      swap2\n      dup3\n      dup3\n      div\n      add\n      swap2\n      swap1\n      mod\n      swap1\n      sload\n      swap1\n      0x0100\n      exp\n      swap1\n      div\n      0xff\n      and\n        /* \"contracts/ERC721TokenContractName.sol\":4045:4058  !ban[tokenId] */\n      iszero\n        /* \"contracts/ERC721TokenContractName.sol\":4037:4109  require(!ban[tokenId], \"The transfer of this token is currently banned\") */\n      tag_125\n      jumpi\n      mload(0x40)\n      0x08c379a000000000000000000000000000000000000000000000000000000000\n      dup2\n      mstore\n      0x04\n      add\n      tag_126\n      swap1\n      tag_127\n      jump\t// in\n    tag_126:\n      mload(0x40)\n      dup1\n      swap2\n      sub\n      swap1\n      revert\n    tag_125:\n        /* \"contracts/ERC721TokenContractName.sol\":4144:4157  previousOwner */\n      dup1\n        /* \"contracts/ERC721TokenContractName.sol\":4128:4157  _msgSender() == previousOwner */\n      0xffffffffffffffffffffffffffffffffffffffff\n      and\n        /* \"contracts/ERC721TokenContractName.sol\":4128:4140  _msgSender() */\n      tag_128\n        /* \"contracts/ERC721TokenContractName.sol\":4128:4138  _msgSender */\n      tag_129\n        /* \"contracts/ERC721TokenContractName.sol\":4128:4140  _msgSender() */\n      jump\t// in\n    tag_128:\n        /* \"contracts/ERC721TokenContractName.sol\":4128:4157  _msgSender() == previousOwner */\n      0xffffffffffffffffffffffffffffffffffffffff\n      and\n      eq\n        /* \"contracts/ERC721TokenContractName.sol\":4128:4206  _msgSender() == previousOwner || isApprovedForAll(previousOwner, _msgSender()) */\n      dup1\n      tag_130\n      jumpi\n      pop\n        /* \"contracts/ERC721TokenContractName.sol\":4161:4206  isApprovedForAll(previousOwner, _msgSender()) */\n      tag_131\n        /* \"contracts/ERC721TokenContractName.sol\":4178:4191  previousOwner */\n      dup2\n        /* \"contracts/ERC721TokenContractName.sol\":4193:4205  _msgSender() */\n      tag_132\n        /* \"contracts/ERC721TokenContractName.sol\":4193:4203  _msgSender */\n      tag_129\n        /* \"contracts/ERC721TokenContractName.sol\":4193:4205  _msgSender() */\n      jump\t// in\n    tag_132:\n        /* \"contracts/ERC721TokenContractName.sol\":4161:4177  isApprovedForAll */\n      tag_105\n        /* \"contracts/ERC721TokenContractName.sol\":4161:4206  isApprovedForAll(previousOwner, _msgSender()) */\n      jump\t// in\n    tag_131:\n        /* \"contracts/ERC721TokenContractName.sol\":4128:4206  _msgSender() == previousOwner || isApprovedForAll(previousOwner, _msgSender()) */\n    tag_130:\n        /* \"contracts/ERC721TokenContractName.sol\":4128:4246  _msgSender() == previousOwner || isApprovedForAll(previousOwner, _msgSender()) || getApproved(tokenId) == _msgSender() */\n      dup1\n      tag_133\n      jumpi\n      pop\n        /* \"contracts/ERC721TokenContractName.sol\":4234:4246  _msgSender() */\n      tag_134\n        /* \"contracts/ERC721TokenContractName.sol\":4234:4244  _msgSender */\n      tag_129\n        /* \"contracts/ERC721TokenContractName.sol\":4234:4246  _msgSender() */\n      jump\t// in\n    tag_134:\n        /* \"contracts/ERC721TokenContractName.sol\":4210:4246  getApproved(tokenId) == _msgSender() */\n      0xffffffffffffffffffffffffffffffffffffffff\n      and\n        /* \"contracts/ERC721TokenContractName.sol\":4210:4230  getApproved(tokenId) */\n      tag_135\n        /* \"contracts/ERC721TokenContractName.sol\":4222:4229  tokenId */\n      dup4\n        /* \"contracts/ERC721TokenContractName.sol\":4210:4221  getApproved */\n      tag_66\n        /* \"contracts/ERC721TokenContractName.sol\":4210:4230  getApproved(tokenId) */\n      jump\t// in\n    tag_135:\n        /* \"contracts/ERC721TokenContractName.sol\":4210:4246  getApproved(tokenId) == _msgSender() */\n      0xffffffffffffffffffffffffffffffffffffffff\n      and\n      eq\n        /* \"contracts/ERC721TokenContractName.sol\":4128:4246  _msgSender() == previousOwner || isApprovedForAll(previousOwner, _msgSender()) || getApproved(tokenId) == _msgSender() */\n    tag_133:\n        /* \"contracts/ERC721TokenContractName.sol\":4122:4332  if (!(_msgSender() == previousOwner || isApprovedForAll(previousOwner, _msgSender()) || getApproved(tokenId) == _msgSender())) {... */\n      tag_136\n      jumpi\n        /* \"contracts/ERC721TokenContractName.sol\":4298:4310  _msgSender() */\n      tag_137\n        /* \"contracts/ERC721TokenContractName.sol\":4298:4308  _msgSender */\n      tag_129\n        /* \"contracts/ERC721TokenContractName.sol\":4298:4310  _msgSender() */\n      jump\t// in\n    tag_137:\n        /* \"contracts/ERC721TokenContractName.sol\":4312:4319  tokenId */\n      dup3\n        /* \"contracts/ERC721TokenContractName.sol\":4271:4320  ERC721InsufficientApproval(_msgSender(), tokenId) */\n      mload(0x40)\n      0x177e802f00000000000000000000000000000000000000000000000000000000\n      dup2\n      mstore\n      0x04\n      add\n      tag_138\n      swap3\n      swap2\n      swap1\n      tag_139\n      jump\t// in\n    tag_138:\n      mload(0x40)\n      dup1\n      swap2\n      sub\n      swap1\n      revert\n        /* \"contracts/ERC721TokenContractName.sol\":4122:4332  if (!(_msgSender() == previousOwner || isApprovedForAll(previousOwner, _msgSender()) || getApproved(tokenId) == _msgSender())) {... */\n    tag_136:\n        /* \"contracts/ERC721TokenContractName.sol\":4373:4377  from */\n      dup4\n        /* \"contracts/ERC721TokenContractName.sol\":4356:4377  previousOwner != from */\n      0xffffffffffffffffffffffffffffffffffffffff\n      and\n        /* \"contracts/ERC721TokenContractName.sol\":4356:4369  previousOwner */\n      dup2\n        /* \"contracts/ERC721TokenContractName.sol\":4356:4377  previousOwner != from */\n      0xffffffffffffffffffffffffffffffffffffffff\n      and\n      eq\n        /* \"contracts/ERC721TokenContractName.sol\":4352:4463  if (previousOwner != from) {... */\n      tag_140\n      jumpi\n        /* \"contracts/ERC721TokenContractName.sol\":4422:4426  from */\n      dup4\n        /* \"contracts/ERC721TokenContractName.sol\":4428:4435  tokenId */\n      dup3\n        /* \"contracts/ERC721TokenContractName.sol\":4437:4450  previousOwner */\n      dup3\n        /* \"contracts/ERC721TokenContractName.sol\":4401:4451  ERC721IncorrectOwner(from, tokenId, previousOwner) */\n      mload(0x40)\n      0x64283d7b00000000000000000000000000000000000000000000000000000000\n      dup2\n      mstore\n      0x04\n      add\n      tag_141\n      swap4\n      swap3\n      swap2\n      swap1\n      tag_142\n      jump\t// in\n    tag_141:\n      mload(0x40)\n      dup1\n      swap2\n      sub\n      swap1\n      revert\n        /* \"contracts/ERC721TokenContractName.sol\":4352:4463  if (previousOwner != from) {... */\n    tag_140:\n        /* \"contracts/ERC721TokenContractName.sol\":4475:4518  _aprove(address(0), tokenId, previousOwner) */\n      tag_143\n        /* \"contracts/ERC721TokenContractName.sol\":4491:4492  0 */\n      0x00\n        /* \"contracts/ERC721TokenContractName.sol\":4495:4502  tokenId */\n      dup4\n        /* \"contracts/ERC721TokenContractName.sol\":4504:4517  previousOwner */\n      dup4\n        /* \"contracts/ERC721TokenContractName.sol\":4475:4482  _aprove */\n      tag_144\n        /* \"contracts/ERC721TokenContractName.sol\":4475:4518  _aprove(address(0), tokenId, previousOwner) */\n      jump\t// in\n    tag_143:\n        /* \"contracts/ERC721TokenContractName.sol\":4740:4775  _update(to, tokenId, previousOwner) */\n      tag_145\n        /* \"contracts/ERC721TokenContractName.sol\":4748:4750  to */\n      dup4\n        /* \"contracts/ERC721TokenContractName.sol\":4752:4759  tokenId */\n      dup4\n        /* \"contracts/ERC721TokenContractName.sol\":4761:4774  previousOwner */\n      dup4\n        /* \"contracts/ERC721TokenContractName.sol\":4740:4747  _update */\n      tag_146\n        /* \"contracts/ERC721TokenContractName.sol\":4740:4775  _update(to, tokenId, previousOwner) */\n      jump\t// in\n    tag_145:\n        /* \"contracts/ERC721TokenContractName.sol\":3865:4783  {... */\n      pop\n        /* \"contracts/ERC721TokenContractName.sol\":3786:4783  function transferFrom(address from, address to, uint16 tokenId) public virtual {... */\n      pop\n      pop\n      pop\n      jump\t// out\n        /* \"contracts/ERC721TokenContractName.sol\":9694:9751  function stateVoting() public returns(bytes32) {... */\n    tag_41:\n        /* \"contracts/ERC721TokenContractName.sol\":9732:9739  bytes32 */\n      0x00\n        /* \"contracts/ERC721TokenContractName.sol\":9694:9751  function stateVoting() public returns(bytes32) {... */\n      swap1\n      jump\t// out\n        /* \"contracts/ERC721TokenContractName.sol\":2061:2250  function balanceOf(address owner) public view returns (uint16) {... */\n    tag_48:\n        /* \"contracts/ERC721TokenContractName.sol\":2116:2122  uint16 */\n      0x00\n        /* \"contracts/ERC721TokenContractName.sol\":2160:2161  0 */\n      dup1\n        /* \"contracts/ERC721TokenContractName.sol\":2143:2162  owner != address(0) */\n      0xffffffffffffffffffffffffffffffffffffffff\n      and\n        /* \"contracts/ERC721TokenContractName.sol\":2143:2148  owner */\n      dup3\n        /* \"contracts/ERC721TokenContractName.sol\":2143:2162  owner != address(0) */\n      0xffffffffffffffffffffffffffffffffffffffff\n      and\n      sub\n        /* \"contracts/ERC721TokenContractName.sol\":2135:2198  require(owner != address(0),\"The input address cannot be zero\") */\n      tag_149\n      jumpi\n      mload(0x40)\n      0x08c379a000000000000000000000000000000000000000000000000000000000\n      dup2\n      mstore\n      0x04\n      add\n      tag_150\n      swap1\n      tag_151\n      jump\t// in\n    tag_150:\n      mload(0x40)\n      dup1\n      swap2\n      sub\n      swap1\n      revert\n    tag_149:\n        /* \"contracts/ERC721TokenContractName.sol\":2216:2232  _balanceAndTokId */\n      0x098c\n        /* \"contracts/ERC721TokenContractName.sol\":2216:2239  _balanceAndTokId[owner] */\n      0x00\n        /* \"contracts/ERC721TokenContractName.sol\":2233:2238  owner */\n      dup4\n        /* \"contracts/ERC721TokenContractName.sol\":2216:2239  _balanceAndTokId[owner] */\n      0xffffffffffffffffffffffffffffffffffffffff\n      and\n      0xffffffffffffffffffffffffffffffffffffffff\n      and\n      dup2\n      mstore\n      0x20\n      add\n      swap1\n      dup2\n      mstore\n      0x20\n      add\n      0x00\n      keccak256\n        /* \"contracts/ERC721TokenContractName.sol\":2240:2241  0 */\n      0x00\n        /* \"contracts/ERC721TokenContractName.sol\":2216:2242  _balanceAndTokId[owner][0] */\n      0x04b1\n      dup2\n      lt\n      tag_152\n      jumpi\n      tag_153\n      tag_123\n      jump\t// in\n    tag_153:\n    tag_152:\n      0x10\n      swap2\n      dup3\n      dup3\n      div\n      add\n      swap2\n      swap1\n      mod\n      0x02\n      mul\n      swap1\n      sload\n      swap1\n      0x0100\n      exp\n      swap1\n      div\n      0xffff\n      and\n        /* \"contracts/ERC721TokenContractName.sol\":2209:2242  return _balanceAndTokId[owner][0] */\n      swap1\n      pop\n        /* \"contracts/ERC721TokenContractName.sol\":2061:2250  function balanceOf(address owner) public view returns (uint16) {... */\n      swap2\n      swap1\n      pop\n      jump\t// out\n        /* \"contracts/ERC721TokenContractName.sol\":5152:6227  function updateMintInfo(uint16 newmaxMint, uint48 newregistrationStartTime, address newexecutor, address newbankAddress, uint256 newmintPrice) public {... */\n    tag_55:\n        /* \"contracts/ERC721TokenContractName.sol\":5337:5345  mintInfo */\n      0x01\n        /* \"contracts/ERC721TokenContractName.sol\":5337:5354  mintInfo.executor */\n      0x00\n      add\n      0x0c\n      swap1\n      sload\n      swap1\n      0x0100\n      exp\n      swap1\n      div\n      0xffffffffffffffffffffffffffffffffffffffff\n      and\n        /* \"contracts/ERC721TokenContractName.sol\":5321:5354  _msgSender() == mintInfo.executor */\n      0xffffffffffffffffffffffffffffffffffffffff\n      and\n        /* \"contracts/ERC721TokenContractName.sol\":5321:5333  _msgSender() */\n      tag_156\n        /* \"contracts/ERC721TokenContractName.sol\":5321:5331  _msgSender */\n      tag_129\n        /* \"contracts/ERC721TokenContractName.sol\":5321:5333  _msgSender() */\n      jump\t// in\n    tag_156:\n        /* \"contracts/ERC721TokenContractName.sol\":5321:5354  _msgSender() == mintInfo.executor */\n      0xffffffffffffffffffffffffffffffffffffffff\n      and\n      eq\n        /* \"contracts/ERC721TokenContractName.sol\":5313:5398  require(_msgSender() == mintInfo.executor, \"You do not have access to this function\") */\n      tag_157\n      jumpi\n      mload(0x40)\n      0x08c379a000000000000000000000000000000000000000000000000000000000\n      dup2\n      mstore\n      0x04\n      add\n      tag_158\n      swap1\n      tag_159\n      jump\t// in\n    tag_158:\n      mload(0x40)\n      dup1\n      swap2\n      sub\n      swap1\n      revert\n    tag_157:\n        /* \"contracts/ERC721TokenContractName.sol\":5430:5438  mintInfo */\n      0x01\n        /* \"contracts/ERC721TokenContractName.sol\":5430:5451  mintInfo.nRegistrants */\n      0x00\n      add\n      0x04\n      swap1\n      sload\n      swap1\n      0x0100\n      exp\n      swap1\n      div\n      0xffff\n      and\n        /* \"contracts/ERC721TokenContractName.sol\":5417:5451  newmaxMint > mintInfo.nRegistrants */\n      0xffff\n      and\n        /* \"contracts/ERC721TokenContractName.sol\":5417:5427  newmaxMint */\n      dup6\n        /* \"contracts/ERC721TokenContractName.sol\":5417:5451  newmaxMint > mintInfo.nRegistrants */\n      0xffff\n      and\n      gt\n        /* \"contracts/ERC721TokenContractName.sol\":5417:5498  newmaxMint > mintInfo.nRegistrants && newregistrationStartTime >= block.timestamp */\n      dup1\n      iszero\n      tag_160\n      jumpi\n      pop\n        /* \"contracts/ERC721TokenContractName.sol\":5483:5498  block.timestamp */\n      timestamp\n        /* \"contracts/ERC721TokenContractName.sol\":5455:5479  newregistrationStartTime */\n      dup5\n        /* \"contracts/ERC721TokenContractName.sol\":5455:5498  newregistrationStartTime >= block.timestamp */\n      0xffffffffffff\n      and\n      lt\n      iszero\n        /* \"contracts/ERC721TokenContractName.sol\":5417:5498  newmaxMint > mintInfo.nRegistrants && newregistrationStartTime >= block.timestamp */\n    tag_160:\n        /* \"contracts/ERC721TokenContractName.sol\":5409:5544  require(newmaxMint > mintInfo.nRegistrants && newregistrationStartTime >= block.timestamp, \"The entered parameters are not acceptable\") */\n      tag_161\n      jumpi\n      mload(0x40)\n      0x08c379a000000000000000000000000000000000000000000000000000000000\n      dup2\n      mstore\n      0x04\n      add\n      tag_162\n      swap1\n      tag_163\n      jump\t// in\n    tag_162:\n      mload(0x40)\n      dup1\n      swap2\n      sub\n      swap1\n      revert\n    tag_161:\n        /* \"contracts/ERC721TokenContractName.sol\":5572:5576  1000 */\n      0x03e8\n        /* \"contracts/ERC721TokenContractName.sol\":5559:5569  newmaxMint */\n      dup6\n        /* \"contracts/ERC721TokenContractName.sol\":5559:5576  newmaxMint > 1000 */\n      0xffff\n      and\n      gt\n        /* \"contracts/ERC721TokenContractName.sol\":5555:5855  if (newmaxMint > 1000) {... */\n      iszero\n      tag_164\n      jumpi\n        /* \"contracts/ERC721TokenContractName.sol\":5593:5610  bytes32 sucessded */\n      0x00\n        /* \"contracts/ERC721TokenContractName.sol\":5670:5674  1200 */\n      0x04b0\n        /* \"contracts/ERC721TokenContractName.sol\":5657:5667  newmaxMint */\n      dup7\n        /* \"contracts/ERC721TokenContractName.sol\":5657:5674  newmaxMint < 1200 */\n      0xffff\n      and\n      lt\n        /* \"contracts/ERC721TokenContractName.sol\":5657:5706  newmaxMint < 1200 && (sucessded == stateVoting()) */\n      dup1\n      iszero\n      tag_165\n      jumpi\n      pop\n        /* \"contracts/ERC721TokenContractName.sol\":5692:5705  stateVoting() */\n      tag_166\n        /* \"contracts/ERC721TokenContractName.sol\":5692:5703  stateVoting */\n      tag_41\n        /* \"contracts/ERC721TokenContractName.sol\":5692:5705  stateVoting() */\n      jump\t// in\n    tag_166:\n        /* \"contracts/ERC721TokenContractName.sol\":5679:5688  sucessded */\n      dup2\n        /* \"contracts/ERC721TokenContractName.sol\":5679:5705  sucessded == stateVoting() */\n      eq\n        /* \"contracts/ERC721TokenContractName.sol\":5657:5706  newmaxMint < 1200 && (sucessded == stateVoting()) */\n    tag_165:\n        /* \"contracts/ERC721TokenContractName.sol\":5649:5748  require(newmaxMint < 1200 && (sucessded == stateVoting()), \"You do not have permission to upgrade\") */\n      tag_167\n      jumpi\n      mload(0x40)\n      0x08c379a000000000000000000000000000000000000000000000000000000000\n      dup2\n      mstore\n      0x04\n      add\n      tag_168\n      swap1\n      tag_169\n      jump\t// in\n    tag_168:\n      mload(0x40)\n      dup1\n      swap2\n      sub\n      swap1\n      revert\n    tag_167:\n        /* \"contracts/ERC721TokenContractName.sol\":5763:5779  bytes32 executed */\n      0x00\n        /* \"contracts/ERC721TokenContractName.sol\":5819:5843  setStateVoting(executed) */\n      tag_170\n        /* \"contracts/ERC721TokenContractName.sol\":5834:5842  executed */\n      dup2\n        /* \"contracts/ERC721TokenContractName.sol\":5819:5833  setStateVoting */\n      tag_171\n        /* \"contracts/ERC721TokenContractName.sol\":5819:5843  setStateVoting(executed) */\n      jump\t// in\n    tag_170:\n        /* \"contracts/ERC721TokenContractName.sol\":5578:5855  {... */\n      pop\n      pop\n        /* \"contracts/ERC721TokenContractName.sol\":5555:5855  if (newmaxMint > 1000) {... */\n    tag_164:\n        /* \"contracts/ERC721TokenContractName.sol\":5886:5896  newmaxMint */\n      dup5\n        /* \"contracts/ERC721TokenContractName.sol\":5867:5875  mintInfo */\n      0x01\n        /* \"contracts/ERC721TokenContractName.sol\":5867:5883  mintInfo.maxMint */\n      0x00\n      add\n      0x00\n        /* \"contracts/ERC721TokenContractName.sol\":5867:5896  mintInfo.maxMint = newmaxMint */\n      0x0100\n      exp\n      dup2\n      sload\n      dup2\n      0xffff\n      mul\n      not\n      and\n      swap1\n      dup4\n      0xffff\n      and\n      mul\n      or\n      swap1\n      sstore\n      pop\n        /* \"contracts/ERC721TokenContractName.sol\":5940:5964  newregistrationStartTime */\n      dup4\n        /* \"contracts/ERC721TokenContractName.sol\":5907:5915  mintInfo */\n      0x01\n        /* \"contracts/ERC721TokenContractName.sol\":5907:5937  mintInfo.registrationStartTime */\n      0x00\n      add\n      0x06\n        /* \"contracts/ERC721TokenContractName.sol\":5907:5964  mintInfo.registrationStartTime = newregistrationStartTime */\n      0x0100\n      exp\n      dup2\n      sload\n      dup2\n      0xffffffffffff\n      mul\n      not\n      and\n      swap1\n      dup4\n      0xffffffffffff\n      and\n      mul\n      or\n      swap1\n      sstore\n      pop\n        /* \"contracts/ERC721TokenContractName.sol\":5995:6006  newexecutor */\n      dup3\n        /* \"contracts/ERC721TokenContractName.sol\":5975:5983  mintInfo */\n      0x01\n        /* \"contracts/ERC721TokenContractName.sol\":5975:5992  mintInfo.executor */\n      0x00\n      add\n      0x0c\n        /* \"contracts/ERC721TokenContractName.sol\":5975:6006  mintInfo.executor = newexecutor */\n      0x0100\n      exp\n      dup2\n      sload\n      dup2\n      0xffffffffffffffffffffffffffffffffffffffff\n      mul\n      not\n      and\n      swap1\n      dup4\n      0xffffffffffffffffffffffffffffffffffffffff\n      and\n      mul\n      or\n      swap1\n      sstore\n      pop\n        /* \"contracts/ERC721TokenContractName.sol\":6040:6054  newbankAddress */\n      dup2\n        /* \"contracts/ERC721TokenContractName.sol\":6017:6025  mintInfo */\n      0x01\n        /* \"contracts/ERC721TokenContractName.sol\":6017:6037  mintInfo.bankAddress */\n      dup1\n      add\n      0x00\n        /* \"contracts/ERC721TokenContractName.sol\":6017:6054  mintInfo.bankAddress = newbankAddress */\n      0x0100\n      exp\n      dup2\n      sload\n      dup2\n      0xffffffffffffffffffffffffffffffffffffffff\n      mul\n      not\n      and\n      swap1\n      dup4\n      0xffffffffffffffffffffffffffffffffffffffff\n      and\n      mul\n      or\n      swap1\n      sstore\n      pop\n        /* \"contracts/ERC721TokenContractName.sol\":6086:6098  newmintPrice */\n      dup1\n        /* \"contracts/ERC721TokenContractName.sol\":6065:6073  mintInfo */\n      0x01\n        /* \"contracts/ERC721TokenContractName.sol\":6065:6083  mintInfo.mintPrice */\n      0x02\n      add\n        /* \"contracts/ERC721TokenContractName.sol\":6065:6098  mintInfo.mintPrice = newmintPrice */\n      dup2\n      swap1\n      sstore\n      pop\n        /* \"contracts/ERC721TokenContractName.sol\":6141:6165  newregistrationStartTime */\n      dup4\n        /* \"contracts/ERC721TokenContractName.sol\":6114:6209  updatemintInfo(newmaxMint, newregistrationStartTime, newexecutor, newbankAddress, newmintPrice) */\n      0xffffffffffff\n      and\n        /* \"contracts/ERC721TokenContractName.sol\":6129:6139  newmaxMint */\n      dup6\n        /* \"contracts/ERC721TokenContractName.sol\":6114:6209  updatemintInfo(newmaxMint, newregistrationStartTime, newexecutor, newbankAddress, newmintPrice) */\n      0xffff\n      and\n      0x1c8a976c18e0a217a266cdd36a59140d8212f937433190cc4faecdd8329f8e1f\n        /* \"contracts/ERC721TokenContractName.sol\":6167:6178  newexecutor */\n      dup6\n        /* \"contracts/ERC721TokenContractName.sol\":6180:6194  newbankAddress */\n      dup6\n        /* \"contracts/ERC721TokenContractName.sol\":6196:6208  newmintPrice */\n      dup6\n        /* \"contracts/ERC721TokenContractName.sol\":6114:6209  updatemintInfo(newmaxMint, newregistrationStartTime, newexecutor, newbankAddress, newmintPrice) */\n      mload(0x40)\n      tag_172\n      swap4\n      swap3\n      swap2\n      swap1\n      tag_173\n      jump\t// in\n    tag_172:\n      mload(0x40)\n      dup1\n      swap2\n      sub\n      swap1\n      log3\n        /* \"contracts/ERC721TokenContractName.sol\":5152:6227  function updateMintInfo(uint16 newmaxMint, uint48 newregistrationStartTime, address newexecutor, address newbankAddress, uint256 newmintPrice) public {... */\n      pop\n      pop\n      pop\n      pop\n      pop\n      jump\t// out\n        /* \"contracts/ERC721TokenContractName.sol\":2260:2371  function ownerOf(uint16 tokenId) public view returns (address) {... */\n    tag_60:\n        /* \"contracts/ERC721TokenContractName.sol\":2314:2321  address */\n      0x00\n        /* \"contracts/ERC721TokenContractName.sol\":2341:2363  _requireOwned(tokenId) */\n      tag_175\n        /* \"contracts/ERC721TokenContractName.sol\":2355:2362  tokenId */\n      dup3\n        /* \"contracts/ERC721TokenContractName.sol\":2341:2354  _requireOwned */\n      tag_120\n        /* \"contracts/ERC721TokenContractName.sol\":2341:2363  _requireOwned(tokenId) */\n      jump\t// in\n    tag_175:\n        /* \"contracts/ERC721TokenContractName.sol\":2334:2363  return _requireOwned(tokenId) */\n      swap1\n      pop\n        /* \"contracts/ERC721TokenContractName.sol\":2260:2371  function ownerOf(uint16 tokenId) public view returns (address) {... */\n      swap2\n      swap1\n      pop\n      jump\t// out\n        /* \"contracts/ERC721TokenContractName.sol\":3027:3187  function getApproved(uint16 tokenId) public view virtual returns (address) {... */\n    tag_66:\n        /* \"contracts/ERC721TokenContractName.sol\":3093:3100  address */\n      0x00\n        /* \"contracts/ERC721TokenContractName.sol\":3113:3135  _requireOwned(tokenId) */\n      tag_177\n        /* \"contracts/ERC721TokenContractName.sol\":3127:3134  tokenId */\n      dup3\n        /* \"contracts/ERC721TokenContractName.sol\":3113:3126  _requireOwned */\n      tag_120\n        /* \"contracts/ERC721TokenContractName.sol\":3113:3135  _requireOwned(tokenId) */\n      jump\t// in\n    tag_177:\n      pop\n        /* \"contracts/ERC721TokenContractName.sol\":3155:3170  _tokenApprovals */\n      0x098d\n        /* \"contracts/ERC721TokenContractName.sol\":3155:3179  _tokenApprovals[tokenId] */\n      0x00\n        /* \"contracts/ERC721TokenContractName.sol\":3171:3178  tokenId */\n      dup4\n        /* \"contracts/ERC721TokenContractName.sol\":3155:3179  _tokenApprovals[tokenId] */\n      0xffff\n      and\n      0xffff\n      and\n      dup2\n      mstore\n      0x20\n      add\n      swap1\n      dup2\n      mstore\n      0x20\n      add\n      0x00\n      keccak256\n      0x00\n      swap1\n      sload\n      swap1\n      0x0100\n      exp\n      swap1\n      div\n      0xffffffffffffffffffffffffffffffffffffffff\n      and\n        /* \"contracts/ERC721TokenContractName.sol\":3148:3179  return _tokenApprovals[tokenId] */\n      swap1\n      pop\n        /* \"contracts/ERC721TokenContractName.sol\":3027:3187  function getApproved(uint16 tokenId) public view virtual returns (address) {... */\n      swap2\n      swap1\n      pop\n      jump\t// out\n        /* \"contracts/ERC721TokenContractName.sol\":1970:2051  function symbol() public view returns (bytes10) {... */\n    tag_70:\n        /* \"contracts/ERC721TokenContractName.sol\":2009:2016  bytes10 */\n      0x00\n        /* \"contracts/ERC721TokenContractName.sol\":2036:2043  _symbol */\n      dup1\n      0x14\n      swap1\n      sload\n      swap1\n      0x0100\n      exp\n      swap1\n      div\n      0xb0\n      shl\n        /* \"contracts/ERC721TokenContractName.sol\":2029:2043  return _symbol */\n      swap1\n      pop\n        /* \"contracts/ERC721TokenContractName.sol\":1970:2051  function symbol() public view returns (bytes10) {... */\n      swap1\n      jump\t// out\n        /* \"contracts/ERC721TokenContractName.sol\":3195:3621  function setApprovalForAll(address operator, bool approved) public {... */\n    tag_77:\n        /* \"contracts/ERC721TokenContractName.sol\":3297:3305  operator */\n      dup2\n        /* \"contracts/ERC721TokenContractName.sol\":3281:3305  _msgSender() != operator */\n      0xffffffffffffffffffffffffffffffffffffffff\n      and\n        /* \"contracts/ERC721TokenContractName.sol\":3281:3293  _msgSender() */\n      tag_180\n        /* \"contracts/ERC721TokenContractName.sol\":3281:3291  _msgSender */\n      tag_129\n        /* \"contracts/ERC721TokenContractName.sol\":3281:3293  _msgSender() */\n      jump\t// in\n    tag_180:\n        /* \"contracts/ERC721TokenContractName.sol\":3281:3305  _msgSender() != operator */\n      0xffffffffffffffffffffffffffffffffffffffff\n      and\n      sub\n        /* \"contracts/ERC721TokenContractName.sol\":3273:3369  require(_msgSender() != operator, \"The address of the owner and the operator must be different\") */\n      tag_181\n      jumpi\n      mload(0x40)\n      0x08c379a000000000000000000000000000000000000000000000000000000000\n      dup2\n      mstore\n      0x04\n      add\n      tag_182\n      swap1\n      tag_183\n      jump\t// in\n    tag_182:\n      mload(0x40)\n      dup1\n      swap2\n      sub\n      swap1\n      revert\n    tag_181:\n        /* \"contracts/ERC721TokenContractName.sol\":3406:3407  0 */\n      0x00\n        /* \"contracts/ERC721TokenContractName.sol\":3386:3408  operator == address(0) */\n      0xffffffffffffffffffffffffffffffffffffffff\n      and\n        /* \"contracts/ERC721TokenContractName.sol\":3386:3394  operator */\n      dup3\n        /* \"contracts/ERC721TokenContractName.sol\":3386:3408  operator == address(0) */\n      0xffffffffffffffffffffffffffffffffffffffff\n      and\n      sub\n        /* \"contracts/ERC721TokenContractName.sol\":3382:3475  if (operator == address(0)) {... */\n      tag_184\n      jumpi\n        /* \"contracts/ERC721TokenContractName.sol\":3454:3462  operator */\n      dup2\n        /* \"contracts/ERC721TokenContractName.sol\":3432:3463  ERC721InvalidOperator(operator) */\n      mload(0x40)\n      0x5b08ba1800000000000000000000000000000000000000000000000000000000\n      dup2\n      mstore\n      0x04\n      add\n      tag_185\n      swap2\n      swap1\n      tag_62\n      jump\t// in\n    tag_185:\n      mload(0x40)\n      dup1\n      swap2\n      sub\n      swap1\n      revert\n        /* \"contracts/ERC721TokenContractName.sol\":3382:3475  if (operator == address(0)) {... */\n    tag_184:\n        /* \"contracts/ERC721TokenContractName.sol\":3540:3548  approved */\n      dup1\n        /* \"contracts/ERC721TokenContractName.sol\":3495:3513  _operatorApprovals */\n      0x098e\n        /* \"contracts/ERC721TokenContractName.sol\":3495:3527  _operatorApprovals[_msgSender()] */\n      0x00\n        /* \"contracts/ERC721TokenContractName.sol\":3514:3526  _msgSender() */\n      tag_186\n        /* \"contracts/ERC721TokenContractName.sol\":3514:3524  _msgSender */\n      tag_129\n        /* \"contracts/ERC721TokenContractName.sol\":3514:3526  _msgSender() */\n      jump\t// in\n    tag_186:\n        /* \"contracts/ERC721TokenContractName.sol\":3495:3527  _operatorApprovals[_msgSender()] */\n      0xffffffffffffffffffffffffffffffffffffffff\n      and\n      0xffffffffffffffffffffffffffffffffffffffff\n      and\n      dup2\n      mstore\n      0x20\n      add\n      swap1\n      dup2\n      mstore\n      0x20\n      add\n      0x00\n      keccak256\n        /* \"contracts/ERC721TokenContractName.sol\":3495:3537  _operatorApprovals[_msgSender()][operator] */\n      0x00\n        /* \"contracts/ERC721TokenContractName.sol\":3528:3536  operator */\n      dup5\n        /* \"contracts/ERC721TokenContractName.sol\":3495:3537  _operatorApprovals[_msgSender()][operator] */\n      0xffffffffffffffffffffffffffffffffffffffff\n      and\n      0xffffffffffffffffffffffffffffffffffffffff\n      and\n      dup2\n      mstore\n      0x20\n      add\n      swap1\n      dup2\n      mstore\n      0x20\n      add\n      0x00\n      keccak256\n      0x00\n        /* \"contracts/ERC721TokenContractName.sol\":3495:3548  _operatorApprovals[_msgSender()][operator] = approved */\n      0x0100\n      exp\n      dup2\n      sload\n      dup2\n      0xff\n      mul\n      not\n      and\n      swap1\n      dup4\n      iszero\n      iszero\n      mul\n      or\n      swap1\n      sstore\n      pop\n        /* \"contracts/ERC721TokenContractName.sol\":3594:3602  operator */\n      dup2\n        /* \"contracts/ERC721TokenContractName.sol\":3565:3613  ApprovalForAll(_msgSender(), operator, approved) */\n      0xffffffffffffffffffffffffffffffffffffffff\n      and\n        /* \"contracts/ERC721TokenContractName.sol\":3580:3592  _msgSender() */\n      tag_187\n        /* \"contracts/ERC721TokenContractName.sol\":3580:3590  _msgSender */\n      tag_129\n        /* \"contracts/ERC721TokenContractName.sol\":3580:3592  _msgSender() */\n      jump\t// in\n    tag_187:\n        /* \"contracts/ERC721TokenContractName.sol\":3565:3613  ApprovalForAll(_msgSender(), operator, approved) */\n      0xffffffffffffffffffffffffffffffffffffffff\n      and\n      0x17307eab39ab6107e8899845ad3d59bd9653f200f220920489ca2b5937696c31\n        /* \"contracts/ERC721TokenContractName.sol\":3604:3612  approved */\n      dup4\n        /* \"contracts/ERC721TokenContractName.sol\":3565:3613  ApprovalForAll(_msgSender(), operator, approved) */\n      mload(0x40)\n      tag_188\n      swap2\n      swap1\n      tag_107\n      jump\t// in\n    tag_188:\n      mload(0x40)\n      dup1\n      swap2\n      sub\n      swap1\n      log3\n        /* \"contracts/ERC721TokenContractName.sol\":3195:3621  function setApprovalForAll(address operator, bool approved) public {... */\n      pop\n      pop\n      jump\t// out\n        /* \"contracts/ERC721TokenContractName.sol\":4932:5142  function safeTransferFrom(address from, address to, uint16 tokenId, bytes memory data) public virtual {... */\n    tag_82:\n        /* \"contracts/ERC721TokenContractName.sol\":5045:5076  transferFrom(from, to, tokenId) */\n      tag_190\n        /* \"contracts/ERC721TokenContractName.sol\":5058:5062  from */\n      dup5\n        /* \"contracts/ERC721TokenContractName.sol\":5064:5066  to */\n      dup5\n        /* \"contracts/ERC721TokenContractName.sol\":5068:5075  tokenId */\n      dup5\n        /* \"contracts/ERC721TokenContractName.sol\":5045:5057  transferFrom */\n      tag_38\n        /* \"contracts/ERC721TokenContractName.sol\":5045:5076  transferFrom(from, to, tokenId) */\n      jump\t// in\n    tag_190:\n        /* \"contracts/ERC721TokenContractName.sol\":5087:5134  _checkOnERC721Received(from, to, tokenId, data) */\n      tag_191\n        /* \"contracts/ERC721TokenContractName.sol\":5110:5114  from */\n      dup5\n        /* \"contracts/ERC721TokenContractName.sol\":5116:5118  to */\n      dup5\n        /* \"contracts/ERC721TokenContractName.sol\":5120:5127  tokenId */\n      dup5\n        /* \"contracts/ERC721TokenContractName.sol\":5129:5133  data */\n      dup5\n        /* \"contracts/ERC721TokenContractName.sol\":5087:5109  _checkOnERC721Received */\n      tag_192\n        /* \"contracts/ERC721TokenContractName.sol\":5087:5134  _checkOnERC721Received(from, to, tokenId, data) */\n      jump\t// in\n    tag_191:\n        /* \"contracts/ERC721TokenContractName.sol\":4932:5142  function safeTransferFrom(address from, address to, uint16 tokenId, bytes memory data) public virtual {... */\n      pop\n      pop\n      pop\n      pop\n      jump\t// out\n        /* \"contracts/ERC721TokenContractName.sol\":9423:9588  function onERC721Received(... */\n    tag_87:\n        /* \"contracts/ERC721TokenContractName.sol\":9579:9585  bytes4 */\n      0x00\n        /* \"contracts/ERC721TokenContractName.sol\":9423:9588  function onERC721Received(... */\n      swap6\n      swap5\n      pop\n      pop\n      pop\n      pop\n      pop\n      jump\t// out\n        /* \"contracts/ERC721TokenContractName.sol\":2381:2621  function tokenURI(uint16 tokenId) public view returns (string memory) {... */\n    tag_93:\n        /* \"contracts/ERC721TokenContractName.sol\":2436:2449  string memory */\n      0x60\n        /* \"contracts/ERC721TokenContractName.sol\":2462:2484  _requireOwned(tokenId) */\n      tag_195\n        /* \"contracts/ERC721TokenContractName.sol\":2476:2483  tokenId */\n      dup3\n        /* \"contracts/ERC721TokenContractName.sol\":2462:2475  _requireOwned */\n      tag_120\n        /* \"contracts/ERC721TokenContractName.sol\":2462:2484  _requireOwned(tokenId) */\n      jump\t// in\n    tag_195:\n      pop\n        /* \"contracts/ERC721TokenContractName.sol\":2495:2513  string memory base */\n      0x00\n        /* \"contracts/ERC721TokenContractName.sol\":2516:2526  _baseURI() */\n      tag_196\n        /* \"contracts/ERC721TokenContractName.sol\":2516:2524  _baseURI */\n      tag_197\n        /* \"contracts/ERC721TokenContractName.sol\":2516:2526  _baseURI() */\n      jump\t// in\n    tag_196:\n        /* \"contracts/ERC721TokenContractName.sol\":2495:2526  string memory base = _baseURI() */\n      swap1\n      pop\n        /* \"contracts/ERC721TokenContractName.sol\":2565:2566  0 */\n      0x00\n        /* \"contracts/ERC721TokenContractName.sol\":2550:2554  base */\n      dup2\n        /* \"contracts/ERC721TokenContractName.sol\":2544:2562  bytes(base).length */\n      mload\n        /* \"contracts/ERC721TokenContractName.sol\":2544:2566  bytes(base).length > 0 */\n      gt\n        /* \"contracts/ERC721TokenContractName.sol\":2544:2613  bytes(base).length > 0 ? string.concat(base, tokenId.toString()) : \"\" */\n      tag_198\n      jumpi\n      mload(0x40)\n      dup1\n      0x20\n      add\n      0x40\n      mstore\n      dup1\n      0x00\n      dup2\n      mstore\n      pop\n      jump(tag_199)\n    tag_198:\n        /* \"contracts/ERC721TokenContractName.sol\":2583:2587  base */\n      dup1\n        /* \"contracts/ERC721TokenContractName.sol\":2589:2607  tokenId.toString() */\n      tag_200\n        /* \"contracts/ERC721TokenContractName.sol\":2589:2596  tokenId */\n      dup5\n        /* \"contracts/ERC721TokenContractName.sol\":2589:2605  tokenId.toString */\n      0xffff\n      and\n      tag_201\n        /* \"contracts/ERC721TokenContractName.sol\":2589:2607  tokenId.toString() */\n      jump\t// in\n    tag_200:\n        /* \"contracts/ERC721TokenContractName.sol\":2569:2608  string.concat(base, tokenId.toString()) */\n      add(0x20, mload(0x40))\n      tag_202\n      swap3\n      swap2\n      swap1\n      tag_203\n      jump\t// in\n    tag_202:\n      mload(0x40)\n      0x20\n      dup2\n      dup4\n      sub\n      sub\n      dup2\n      mstore\n      swap1\n      0x40\n      mstore\n        /* \"contracts/ERC721TokenContractName.sol\":2544:2613  bytes(base).length > 0 ? string.concat(base, tokenId.toString()) : \"\" */\n    tag_199:\n        /* \"contracts/ERC721TokenContractName.sol\":2537:2613  return bytes(base).length > 0 ? string.concat(base, tokenId.toString()) : \"\" */\n      swap2\n      pop\n      pop\n        /* \"contracts/ERC721TokenContractName.sol\":2381:2621  function tokenURI(uint16 tokenId) public view returns (string memory) {... */\n      swap2\n      swap1\n      pop\n      jump\t// out\n        /* \"contracts/ERC721TokenContractName.sol\":2631:3019  function approve(address to, uint16 tokenId) public {... */\n    tag_100:\n        /* \"contracts/ERC721TokenContractName.sol\":2694:2707  address owner */\n      0x00\n        /* \"contracts/ERC721TokenContractName.sol\":2710:2732  _requireOwned(tokenId) */\n      tag_205\n        /* \"contracts/ERC721TokenContractName.sol\":2724:2731  tokenId */\n      dup3\n        /* \"contracts/ERC721TokenContractName.sol\":2710:2723  _requireOwned */\n      tag_120\n        /* \"contracts/ERC721TokenContractName.sol\":2710:2732  _requireOwned(tokenId) */\n      jump\t// in\n    tag_205:\n        /* \"contracts/ERC721TokenContractName.sol\":2694:2732  address owner = _requireOwned(tokenId) */\n      swap1\n      pop\n        /* \"contracts/ERC721TokenContractName.sol\":2762:2764  to */\n      dup3\n        /* \"contracts/ERC721TokenContractName.sol\":2753:2764  owner != to */\n      0xffffffffffffffffffffffffffffffffffffffff\n      and\n        /* \"contracts/ERC721TokenContractName.sol\":2753:2758  owner */\n      dup2\n        /* \"contracts/ERC721TokenContractName.sol\":2753:2764  owner != to */\n      0xffffffffffffffffffffffffffffffffffffffff\n      and\n      sub\n        /* \"contracts/ERC721TokenContractName.sol\":2745:2828  require(owner != to, \"The address of the owner and the operator must be different\") */\n      tag_206\n      jumpi\n      mload(0x40)\n      0x08c379a000000000000000000000000000000000000000000000000000000000\n      dup2\n      mstore\n      0x04\n      add\n      tag_207\n      swap1\n      tag_183\n      jump\t// in\n    tag_207:\n      mload(0x40)\n      dup1\n      swap2\n      sub\n      swap1\n      revert\n    tag_206:\n        /* \"contracts/ERC721TokenContractName.sol\":2853:2865  _msgSender() */\n      tag_208\n        /* \"contracts/ERC721TokenContractName.sol\":2853:2863  _msgSender */\n      tag_129\n        /* \"contracts/ERC721TokenContractName.sol\":2853:2865  _msgSender() */\n      jump\t// in\n    tag_208:\n        /* \"contracts/ERC721TokenContractName.sol\":2844:2865  owner != _msgSender() */\n      0xffffffffffffffffffffffffffffffffffffffff\n      and\n        /* \"contracts/ERC721TokenContractName.sol\":2844:2849  owner */\n      dup2\n        /* \"contracts/ERC721TokenContractName.sol\":2844:2865  owner != _msgSender() */\n      0xffffffffffffffffffffffffffffffffffffffff\n      and\n      eq\n      iszero\n        /* \"contracts/ERC721TokenContractName.sol\":2844:2907  owner != _msgSender() && !isApprovedForAll(owner, _msgSender()) */\n      dup1\n      iszero\n      tag_209\n      jumpi\n      pop\n        /* \"contracts/ERC721TokenContractName.sol\":2870:2907  isApprovedForAll(owner, _msgSender()) */\n      tag_210\n        /* \"contracts/ERC721TokenContractName.sol\":2887:2892  owner */\n      dup2\n        /* \"contracts/ERC721TokenContractName.sol\":2894:2906  _msgSender() */\n      tag_211\n        /* \"contracts/ERC721TokenContractName.sol\":2894:2904  _msgSender */\n      tag_129\n        /* \"contracts/ERC721TokenContractName.sol\":2894:2906  _msgSender() */\n      jump\t// in\n    tag_211:\n        /* \"contracts/ERC721TokenContractName.sol\":2870:2886  isApprovedForAll */\n      tag_105\n        /* \"contracts/ERC721TokenContractName.sol\":2870:2907  isApprovedForAll(owner, _msgSender()) */\n      jump\t// in\n    tag_210:\n        /* \"contracts/ERC721TokenContractName.sol\":2869:2907  !isApprovedForAll(owner, _msgSender()) */\n      iszero\n        /* \"contracts/ERC721TokenContractName.sol\":2844:2907  owner != _msgSender() && !isApprovedForAll(owner, _msgSender()) */\n    tag_209:\n        /* \"contracts/ERC721TokenContractName.sol\":2840:2972  if (owner != _msgSender() && !isApprovedForAll(owner, _msgSender())){... */\n      iszero\n      tag_212\n      jumpi\n        /* \"contracts/ERC721TokenContractName.sol\":2948:2960  _msgSender() */\n      tag_213\n        /* \"contracts/ERC721TokenContractName.sol\":2948:2958  _msgSender */\n      tag_129\n        /* \"contracts/ERC721TokenContractName.sol\":2948:2960  _msgSender() */\n      jump\t// in\n    tag_213:\n        /* \"contracts/ERC721TokenContractName.sol\":2926:2961  ERC721InvalidApprover(_msgSender()) */\n      mload(0x40)\n      0xa9fbf51f00000000000000000000000000000000000000000000000000000000\n      dup2\n      mstore\n      0x04\n      add\n      tag_214\n      swap2\n      swap1\n      tag_62\n      jump\t// in\n    tag_214:\n      mload(0x40)\n      dup1\n      swap2\n      sub\n      swap1\n      revert\n        /* \"contracts/ERC721TokenContractName.sol\":2840:2972  if (owner != _msgSender() && !isApprovedForAll(owner, _msgSender())){... */\n    tag_212:\n        /* \"contracts/ERC721TokenContractName.sol\":2984:3011  _aprove(to, tokenId, owner) */\n      tag_215\n        /* \"contracts/ERC721TokenContractName.sol\":2992:2994  to */\n      dup4\n        /* \"contracts/ERC721TokenContractName.sol\":2996:3003  tokenId */\n      dup4\n        /* \"contracts/ERC721TokenContractName.sol\":3005:3010  owner */\n      dup4\n        /* \"contracts/ERC721TokenContractName.sol\":2984:2991  _aprove */\n      tag_144\n        /* \"contracts/ERC721TokenContractName.sol\":2984:3011  _aprove(to, tokenId, owner) */\n      jump\t// in\n    tag_215:\n        /* \"contracts/ERC721TokenContractName.sol\":2683:3019  {... */\n      pop\n        /* \"contracts/ERC721TokenContractName.sol\":2631:3019  function approve(address to, uint16 tokenId) public {... */\n      pop\n      pop\n      jump\t// out\n        /* \"contracts/ERC721TokenContractName.sol\":3631:3778  function isApprovedForAll(address owner, address operator) public view returns (bool) {... */\n    tag_105:\n        /* \"contracts/ERC721TokenContractName.sol\":3711:3715  bool */\n      0x00\n        /* \"contracts/ERC721TokenContractName.sol\":3735:3753  _operatorApprovals */\n      0x098e\n        /* \"contracts/ERC721TokenContractName.sol\":3735:3760  _operatorApprovals[owner] */\n      0x00\n        /* \"contracts/ERC721TokenContractName.sol\":3754:3759  owner */\n      dup5\n        /* \"contracts/ERC721TokenContractName.sol\":3735:3760  _operatorApprovals[owner] */\n      0xffffffffffffffffffffffffffffffffffffffff\n      and\n      0xffffffffffffffffffffffffffffffffffffffff\n      and\n      dup2\n      mstore\n      0x20\n      add\n      swap1\n      dup2\n      mstore\n      0x20\n      add\n      0x00\n      keccak256\n        /* \"contracts/ERC721TokenContractName.sol\":3735:3770  _operatorApprovals[owner][operator] */\n      0x00\n        /* \"contracts/ERC721TokenContractName.sol\":3761:3769  operator */\n      dup4\n        /* \"contracts/ERC721TokenContractName.sol\":3735:3770  _operatorApprovals[owner][operator] */\n      0xffffffffffffffffffffffffffffffffffffffff\n      and\n      0xffffffffffffffffffffffffffffffffffffffff\n      and\n      dup2\n      mstore\n      0x20\n      add\n      swap1\n      dup2\n      mstore\n      0x20\n      add\n      0x00\n      keccak256\n      0x00\n      swap1\n      sload\n      swap1\n      0x0100\n      exp\n      swap1\n      div\n      0xff\n      and\n        /* \"contracts/ERC721TokenContractName.sol\":3728:3770  return _operatorApprovals[owner][operator] */\n      swap1\n      pop\n        /* \"contracts/ERC721TokenContractName.sol\":3631:3778  function isApprovedForAll(address owner, address operator) public view returns (bool) {... */\n      swap3\n      swap2\n      pop\n      pop\n      jump\t// out\n        /* \"contracts/ERC721TokenContractName.sol\":6235:7055  function setRegister() public payable returns (bytes memory) { // accsesemit barash benevis baraye tasir gozari dar dastresi... */\n    tag_109:\n        /* \"contracts/ERC721TokenContractName.sol\":6282:6294  bytes memory */\n      0x60\n        /* \"contracts/ERC721TokenContractName.sol\":6402:6410  mintInfo */\n      0x01\n        /* \"contracts/ERC721TokenContractName.sol\":6402:6418  mintInfo.maxMint */\n      0x00\n      add\n      0x00\n      swap1\n      sload\n      swap1\n      0x0100\n      exp\n      swap1\n      div\n      0xffff\n      and\n        /* \"contracts/ERC721TokenContractName.sol\":6377:6418  mintInfo.nRegistrants <= mintInfo.maxMint */\n      0xffff\n      and\n        /* \"contracts/ERC721TokenContractName.sol\":6377:6385  mintInfo */\n      0x01\n        /* \"contracts/ERC721TokenContractName.sol\":6377:6398  mintInfo.nRegistrants */\n      0x00\n      add\n      0x04\n      swap1\n      sload\n      swap1\n      0x0100\n      exp\n      swap1\n      div\n      0xffff\n      and\n        /* \"contracts/ERC721TokenContractName.sol\":6377:6418  mintInfo.nRegistrants <= mintInfo.maxMint */\n      0xffff\n      and\n      gt\n      iszero\n        /* \"contracts/ERC721TokenContractName.sol\":6377:6471  mintInfo.nRegistrants <= mintInfo.maxMint && mintInfo.registrationStartTime >= block.timestamp */\n      dup1\n      iszero\n      tag_218\n      jumpi\n      pop\n        /* \"contracts/ERC721TokenContractName.sol\":6456:6471  block.timestamp */\n      timestamp\n        /* \"contracts/ERC721TokenContractName.sol\":6422:6430  mintInfo */\n      0x01\n        /* \"contracts/ERC721TokenContractName.sol\":6422:6452  mintInfo.registrationStartTime */\n      0x00\n      add\n      0x06\n      swap1\n      sload\n      swap1\n      0x0100\n      exp\n      swap1\n      div\n      0xffffffffffff\n      and\n        /* \"contracts/ERC721TokenContractName.sol\":6422:6471  mintInfo.registrationStartTime >= block.timestamp */\n      0xffffffffffff\n      and\n      lt\n      iszero\n        /* \"contracts/ERC721TokenContractName.sol\":6377:6471  mintInfo.nRegistrants <= mintInfo.maxMint && mintInfo.registrationStartTime >= block.timestamp */\n    tag_218:\n        /* \"contracts/ERC721TokenContractName.sol\":6369:6510  require(mintInfo.nRegistrants <= mintInfo.maxMint && mintInfo.registrationStartTime >= block.timestamp, \"It is not possible to register now\") */\n      tag_219\n      jumpi\n      mload(0x40)\n      0x08c379a000000000000000000000000000000000000000000000000000000000\n      dup2\n      mstore\n      0x04\n      add\n      tag_220\n      swap1\n      tag_221\n      jump\t// in\n    tag_220:\n      mload(0x40)\n      dup1\n      swap2\n      sub\n      swap1\n      revert\n    tag_219:\n        /* \"contracts/ERC721TokenContractName.sol\":6553:6554  0 */\n      0x00\n        /* \"contracts/ERC721TokenContractName.sol\":6529:6555  _msgSender() != address(0) */\n      0xffffffffffffffffffffffffffffffffffffffff\n      and\n        /* \"contracts/ERC721TokenContractName.sol\":6529:6541  _msgSender() */\n      tag_222\n        /* \"contracts/ERC721TokenContractName.sol\":6529:6539  _msgSender */\n      tag_129\n        /* \"contracts/ERC721TokenContractName.sol\":6529:6541  _msgSender() */\n      jump\t// in\n    tag_222:\n        /* \"contracts/ERC721TokenContractName.sol\":6529:6555  _msgSender() != address(0) */\n      0xffffffffffffffffffffffffffffffffffffffff\n      and\n      eq\n      iszero\n        /* \"contracts/ERC721TokenContractName.sol\":6529:6588  _msgSender() != address(0) && _msgSender().code.length == 0 */\n      dup1\n      iszero\n      tag_223\n      jumpi\n      pop\n        /* \"contracts/ERC721TokenContractName.sol\":6587:6588  0 */\n      0x00\n        /* \"contracts/ERC721TokenContractName.sol\":6559:6571  _msgSender() */\n      tag_224\n        /* \"contracts/ERC721TokenContractName.sol\":6559:6569  _msgSender */\n      tag_129\n        /* \"contracts/ERC721TokenContractName.sol\":6559:6571  _msgSender() */\n      jump\t// in\n    tag_224:\n        /* \"contracts/ERC721TokenContractName.sol\":6559:6583  _msgSender().code.length */\n      0xffffffffffffffffffffffffffffffffffffffff\n      and\n      extcodesize\n        /* \"contracts/ERC721TokenContractName.sol\":6559:6588  _msgSender().code.length == 0 */\n      eq\n        /* \"contracts/ERC721TokenContractName.sol\":6529:6588  _msgSender() != address(0) && _msgSender().code.length == 0 */\n    tag_223:\n        /* \"contracts/ERC721TokenContractName.sol\":6521:6664  require(_msgSender() != address(0) && _msgSender().code.length == 0,\"The address of the registrant must not be 0 or the address of a contract\") */\n      tag_225\n      jumpi\n      mload(0x40)\n      0x08c379a000000000000000000000000000000000000000000000000000000000\n      dup2\n      mstore\n      0x04\n      add\n      tag_226\n      swap1\n      tag_227\n      jump\t// in\n    tag_226:\n      mload(0x40)\n      dup1\n      swap2\n      sub\n      swap1\n      revert\n    tag_225:\n        /* \"contracts/ERC721TokenContractName.sol\":6696:6704  mintInfo */\n      0x01\n        /* \"contracts/ERC721TokenContractName.sol\":6696:6714  mintInfo.mintPrice */\n      0x02\n      add\n      sload\n        /* \"contracts/ERC721TokenContractName.sol\":6683:6692  msg.value */\n      callvalue\n        /* \"contracts/ERC721TokenContractName.sol\":6683:6714  msg.value >= mintInfo.mintPrice */\n      lt\n      iszero\n        /* \"contracts/ERC721TokenContractName.sol\":6675:6768  require(msg.value >= mintInfo.mintPrice, \"The amount should not be less than the mint price\") */\n      tag_228\n      jumpi\n      mload(0x40)\n      0x08c379a000000000000000000000000000000000000000000000000000000000\n      dup2\n      mstore\n      0x04\n      add\n      tag_229\n      swap1\n      tag_230\n      jump\t// in\n    tag_229:\n      mload(0x40)\n      dup1\n      swap2\n      sub\n      swap1\n      revert\n    tag_228:\n        /* \"contracts/ERC721TokenContractName.sol\":6782:6791  bool paid */\n      0x00\n        /* \"contracts/ERC721TokenContractName.sol\":6793:6810  bytes memory data */\n      dup1\n        /* \"contracts/ERC721TokenContractName.sol\":6814:6822  mintInfo */\n      0x01\n        /* \"contracts/ERC721TokenContractName.sol\":6814:6834  mintInfo.bankAddress */\n      dup1\n      add\n      0x00\n      swap1\n      sload\n      swap1\n      0x0100\n      exp\n      swap1\n      div\n      0xffffffffffffffffffffffffffffffffffffffff\n      and\n        /* \"contracts/ERC721TokenContractName.sol\":6814:6839  mintInfo.bankAddress.call */\n      0xffffffffffffffffffffffffffffffffffffffff\n      and\n        /* \"contracts/ERC721TokenContractName.sol\":6848:6857  msg.value */\n      callvalue\n        /* \"contracts/ERC721TokenContractName.sol\":6814:6862  mintInfo.bankAddress.call{value : msg.value}(\"\") */\n      mload(0x40)\n      tag_231\n      swap1\n      tag_232\n      jump\t// in\n    tag_231:\n      0x00\n      mload(0x40)\n      dup1\n      dup4\n      sub\n      dup2\n      dup6\n      dup8\n      gas\n      call\n      swap3\n      pop\n      pop\n      pop\n      returndatasize\n      dup1\n      0x00\n      dup2\n      eq\n      tag_235\n      jumpi\n      mload(0x40)\n      swap2\n      pop\n      and(add(returndatasize, 0x3f), not(0x1f))\n      dup3\n      add\n      0x40\n      mstore\n      returndatasize\n      dup3\n      mstore\n      returndatasize\n      0x00\n      0x20\n      dup5\n      add\n      returndatacopy\n      jump(tag_234)\n    tag_235:\n      0x60\n      swap2\n      pop\n    tag_234:\n      pop\n        /* \"contracts/ERC721TokenContractName.sol\":6781:6862  (bool paid, bytes memory data) = mintInfo.bankAddress.call{value : msg.value}(\"\") */\n      swap2\n      pop\n      swap2\n      pop\n        /* \"contracts/ERC721TokenContractName.sol\":6881:6885  paid */\n      dup2\n        /* \"contracts/ERC721TokenContractName.sol\":6873:6913  require(paid, \"The amount was not sent\") */\n      tag_236\n      jumpi\n      mload(0x40)\n      0x08c379a000000000000000000000000000000000000000000000000000000000\n      dup2\n      mstore\n      0x04\n      add\n      tag_237\n      swap1\n      tag_238\n      jump\t// in\n    tag_237:\n      mload(0x40)\n      dup1\n      swap2\n      sub\n      swap1\n      revert\n    tag_236:\n        /* \"contracts/ERC721TokenContractName.sol\":6926:6934  mintInfo */\n      0x01\n        /* \"contracts/ERC721TokenContractName.sol\":6926:6947  mintInfo.nRegistrants */\n      0x00\n      add\n      0x04\n        /* \"contracts/ERC721TokenContractName.sol\":6924:6947  ++mintInfo.nRegistrants */\n      dup2\n      dup2\n      swap1\n      sload\n      swap1\n      0x0100\n      exp\n      swap1\n      div\n      0xffff\n      and\n      tag_239\n      swap1\n      tag_240\n      jump\t// in\n    tag_239:\n      swap2\n      swap1\n      0x0100\n      exp\n      dup2\n      sload\n      dup2\n      0xffff\n      mul\n      not\n      and\n      swap1\n      dup4\n      0xffff\n      and\n      mul\n      or\n      swap1\n      sstore\n      pop\n        /* \"contracts/ERC721TokenContractName.sol\":7003:7015  _msgSender() */\n      tag_241\n        /* \"contracts/ERC721TokenContractName.sol\":7003:7013  _msgSender */\n      tag_129\n        /* \"contracts/ERC721TokenContractName.sol\":7003:7015  _msgSender() */\n      jump\t// in\n    tag_241:\n        /* \"contracts/ERC721TokenContractName.sol\":6958:6966  mintInfo */\n      0x01\n        /* \"contracts/ERC721TokenContractName.sol\":6958:6978  mintInfo.registrants */\n      0x03\n      add\n        /* \"contracts/ERC721TokenContractName.sol\":6979:6987  mintInfo */\n      0x01\n        /* \"contracts/ERC721TokenContractName.sol\":6979:7000  mintInfo.nRegistrants */\n      0x00\n      add\n      0x04\n      swap1\n      sload\n      swap1\n      0x0100\n      exp\n      swap1\n      div\n      0xffff\n      and\n        /* \"contracts/ERC721TokenContractName.sol\":6958:7001  mintInfo.registrants[mintInfo.nRegistrants] */\n      0xffff\n      and\n      0x04b1\n      dup2\n      lt\n      tag_242\n      jumpi\n      tag_243\n      tag_123\n      jump\t// in\n    tag_243:\n    tag_242:\n      add\n      0x00\n        /* \"contracts/ERC721TokenContractName.sol\":6958:7015  mintInfo.registrants[mintInfo.nRegistrants] =_msgSender() */\n      0x0100\n      exp\n      dup2\n      sload\n      dup2\n      0xffffffffffffffffffffffffffffffffffffffff\n      mul\n      not\n      and\n      swap1\n      dup4\n      0xffffffffffffffffffffffffffffffffffffffff\n      and\n      mul\n      or\n      swap1\n      sstore\n      pop\n        /* \"contracts/ERC721TokenContractName.sol\":7043:7047  data */\n      dup1\n        /* \"contracts/ERC721TokenContractName.sol\":7036:7047  return data */\n      swap3\n      pop\n      pop\n      pop\n        /* \"contracts/ERC721TokenContractName.sol\":6235:7055  function setRegister() public payable returns (bytes memory) { // accsesemit barash benevis baraye tasir gozari dar dastresi... */\n      swap1\n      jump\t// out\n        /* \"contracts/ERC721TokenContractName.sol\":8244:8508  function _requireOwned(uint16 tokenId) private view returns (address) {... */\n    tag_120:\n        /* \"contracts/ERC721TokenContractName.sol\":8305:8312  address */\n      0x00\n        /* \"contracts/ERC721TokenContractName.sol\":8337:8344  tokenId */\n      dup2\n        /* \"contracts/ERC721TokenContractName.sol\":8333:8344  0 < tokenId */\n      0xffff\n      and\n        /* \"contracts/ERC721TokenContractName.sol\":8333:8334  0 */\n      0x00\n        /* \"contracts/ERC721TokenContractName.sol\":8333:8344  0 < tokenId */\n      lt\n        /* \"contracts/ERC721TokenContractName.sol\":8333:8381  0 < tokenId && tokenId <= mintInfo.currentTokens */\n      dup1\n      iszero\n      tag_246\n      jumpi\n      pop\n        /* \"contracts/ERC721TokenContractName.sol\":8359:8367  mintInfo */\n      0x01\n        /* \"contracts/ERC721TokenContractName.sol\":8359:8381  mintInfo.currentTokens */\n      0x00\n      add\n      0x02\n      swap1\n      sload\n      swap1\n      0x0100\n      exp\n      swap1\n      div\n      0xffff\n      and\n        /* \"contracts/ERC721TokenContractName.sol\":8348:8381  tokenId <= mintInfo.currentTokens */\n      0xffff\n      and\n        /* \"contracts/ERC721TokenContractName.sol\":8348:8355  tokenId */\n      dup3\n        /* \"contracts/ERC721TokenContractName.sol\":8348:8381  tokenId <= mintInfo.currentTokens */\n      0xffff\n      and\n      gt\n      iszero\n        /* \"contracts/ERC721TokenContractName.sol\":8333:8381  0 < tokenId && tokenId <= mintInfo.currentTokens */\n    tag_246:\n        /* \"contracts/ERC721TokenContractName.sol\":8325:8465  require(0 < tokenId && tokenId <= mintInfo.currentTokens, \"The ID entered is invalid. It must be in this interval 0 < id <= current tokens\") */\n      tag_247\n      jumpi\n      mload(0x40)\n      0x08c379a000000000000000000000000000000000000000000000000000000000\n      dup2\n      mstore\n      0x04\n      add\n      tag_248\n      swap1\n      tag_249\n      jump\t// in\n    tag_248:\n      mload(0x40)\n      dup1\n      swap2\n      sub\n      swap1\n      revert\n    tag_247:\n        /* \"contracts/ERC721TokenContractName.sol\":8484:8491  _owners */\n      0x04b5\n        /* \"contracts/ERC721TokenContractName.sol\":8492:8499  tokenId */\n      dup3\n        /* \"contracts/ERC721TokenContractName.sol\":8484:8500  _owners[tokenId] */\n      0xffff\n      and\n      0x04b1\n      dup2\n      lt\n      tag_250\n      jumpi\n      tag_251\n      tag_123\n      jump\t// in\n    tag_251:\n    tag_250:\n      add\n      0x00\n      swap1\n      sload\n      swap1\n      0x0100\n      exp\n      swap1\n      div\n      0xffffffffffffffffffffffffffffffffffffffff\n      and\n        /* \"contracts/ERC721TokenContractName.sol\":8477:8500  return _owners[tokenId] */\n      swap1\n      pop\n        /* \"contracts/ERC721TokenContractName.sol\":8244:8508  function _requireOwned(uint16 tokenId) private view returns (address) {... */\n      swap2\n      swap1\n      pop\n      jump\t// out\n        /* \"@openzeppelin/contracts/utils/Context.sol\":656:752  function _msgSender() internal view virtual returns (address) {... */\n    tag_129:\n        /* \"@openzeppelin/contracts/utils/Context.sol\":709:716  address */\n      0x00\n        /* \"@openzeppelin/contracts/utils/Context.sol\":735:745  msg.sender */\n      caller\n        /* \"@openzeppelin/contracts/utils/Context.sol\":728:745  return msg.sender */\n      swap1\n      pop\n        /* \"@openzeppelin/contracts/utils/Context.sol\":656:752  function _msgSender() internal view virtual returns (address) {... */\n      swap1\n      jump\t// out\n        /* \"contracts/ERC721TokenContractName.sol\":8066:8226  function _aprove(address to, uint16 tokenId, address owner) private {... */\n    tag_144:\n        /* \"contracts/ERC721TokenContractName.sol\":8172:8174  to */\n      dup3\n        /* \"contracts/ERC721TokenContractName.sol\":8145:8160  _tokenApprovals */\n      0x098d\n        /* \"contracts/ERC721TokenContractName.sol\":8145:8169  _tokenApprovals[tokenId] */\n      0x00\n        /* \"contracts/ERC721TokenContractName.sol\":8161:8168  tokenId */\n      dup5\n        /* \"contracts/ERC721TokenContractName.sol\":8145:8169  _tokenApprovals[tokenId] */\n      0xffff\n      and\n      0xffff\n      and\n      dup2\n      mstore\n      0x20\n      add\n      swap1\n      dup2\n      mstore\n      0x20\n      add\n      0x00\n      keccak256\n      0x00\n        /* \"contracts/ERC721TokenContractName.sol\":8145:8174  _tokenApprovals[tokenId] = to */\n      0x0100\n      exp\n      dup2\n      sload\n      dup2\n      0xffffffffffffffffffffffffffffffffffffffff\n      mul\n      not\n      and\n      swap1\n      dup4\n      0xffffffffffffffffffffffffffffffffffffffff\n      and\n      mul\n      or\n      swap1\n      sstore\n      pop\n        /* \"contracts/ERC721TokenContractName.sol\":8210:8217  tokenId */\n      dup2\n        /* \"contracts/ERC721TokenContractName.sol\":8190:8218  Approval(owner, to, tokenId) */\n      0xffff\n      and\n        /* \"contracts/ERC721TokenContractName.sol\":8206:8208  to */\n      dup4\n        /* \"contracts/ERC721TokenContractName.sol\":8190:8218  Approval(owner, to, tokenId) */\n      0xffffffffffffffffffffffffffffffffffffffff\n      and\n        /* \"contracts/ERC721TokenContractName.sol\":8199:8204  owner */\n      dup3\n        /* \"contracts/ERC721TokenContractName.sol\":8190:8218  Approval(owner, to, tokenId) */\n      0xffffffffffffffffffffffffffffffffffffffff\n      and\n      0x0a9d294fd4bd42bb30e96cba2b478d149a783fba3c729b1e5c42bec89d95b85a\n      mload(0x40)\n      mload(0x40)\n      dup1\n      swap2\n      sub\n      swap1\n      log4\n        /* \"contracts/ERC721TokenContractName.sol\":8066:8226  function _aprove(address to, uint16 tokenId, address owner) private {... */\n      pop\n      pop\n      pop\n      jump\t// out\n        /* \"contracts/ERC721TokenContractName.sol\":7106:8056  function _update(address to, uint16 tokenId, address from) private {... */\n    tag_146:\n        /* \"contracts/ERC721TokenContractName.sol\":7184:7205  uint16 preBalanceFrom */\n      0x00\n        /* \"contracts/ERC721TokenContractName.sol\":7208:7224  _balanceAndTokId */\n      0x098c\n        /* \"contracts/ERC721TokenContractName.sol\":7208:7230  _balanceAndTokId[from] */\n      0x00\n        /* \"contracts/ERC721TokenContractName.sol\":7225:7229  from */\n      dup4\n        /* \"contracts/ERC721TokenContractName.sol\":7208:7230  _balanceAndTokId[from] */\n      0xffffffffffffffffffffffffffffffffffffffff\n      and\n      0xffffffffffffffffffffffffffffffffffffffff\n      and\n      dup2\n      mstore\n      0x20\n      add\n      swap1\n      dup2\n      mstore\n      0x20\n      add\n      0x00\n      keccak256\n        /* \"contracts/ERC721TokenContractName.sol\":7231:7232  0 */\n      0x00\n        /* \"contracts/ERC721TokenContractName.sol\":7208:7233  _balanceAndTokId[from][0] */\n      0x04b1\n      dup2\n      lt\n      tag_256\n      jumpi\n      tag_257\n      tag_123\n      jump\t// in\n    tag_257:\n    tag_256:\n      0x10\n      swap2\n      dup3\n      dup3\n      div\n      add\n      swap2\n      swap1\n      mod\n      0x02\n      mul\n      swap1\n      sload\n      swap1\n      0x0100\n      exp\n      swap1\n      div\n      0xffff\n      and\n        /* \"contracts/ERC721TokenContractName.sol\":7184:7233  uint16 preBalanceFrom = _balanceAndTokId[from][0] */\n      swap1\n      pop\n        /* \"contracts/ERC721TokenContractName.sol\":7263:7264  0 */\n      0x00\n        /* \"contracts/ERC721TokenContractName.sol\":7247:7265  from != address(0) */\n      0xffffffffffffffffffffffffffffffffffffffff\n      and\n        /* \"contracts/ERC721TokenContractName.sol\":7247:7251  from */\n      dup3\n        /* \"contracts/ERC721TokenContractName.sol\":7247:7265  from != address(0) */\n      0xffffffffffffffffffffffffffffffffffffffff\n      and\n      eq\n        /* \"contracts/ERC721TokenContractName.sol\":7243:7708  if (from != address(0)) {... */\n      tag_259\n      jumpi\n        /* \"contracts/ERC721TokenContractName.sol\":7283:7291  uint16 i */\n      0x00\n        /* \"contracts/ERC721TokenContractName.sol\":7294:7295  1 */\n      0x01\n        /* \"contracts/ERC721TokenContractName.sol\":7283:7295  uint16 i = 1 */\n      swap1\n      pop\n        /* \"contracts/ERC721TokenContractName.sol\":7278:7515  for (uint16 i = 1; i <= preBalanceFrom; i++) {... */\n    tag_260:\n        /* \"contracts/ERC721TokenContractName.sol\":7302:7316  preBalanceFrom */\n      dup2\n        /* \"contracts/ERC721TokenContractName.sol\":7297:7316  i <= preBalanceFrom */\n      0xffff\n      and\n        /* \"contracts/ERC721TokenContractName.sol\":7297:7298  i */\n      dup2\n        /* \"contracts/ERC721TokenContractName.sol\":7297:7316  i <= preBalanceFrom */\n      0xffff\n      and\n      gt\n        /* \"contracts/ERC721TokenContractName.sol\":7278:7515  for (uint16 i = 1; i <= preBalanceFrom; i++) {... */\n      tag_261\n      jumpi\n        /* \"contracts/ERC721TokenContractName.sol\":7371:7378  tokenId */\n      dup4\n        /* \"contracts/ERC721TokenContractName.sol\":7342:7378  _balanceAndTokId[from][i] == tokenId */\n      0xffff\n      and\n        /* \"contracts/ERC721TokenContractName.sol\":7342:7358  _balanceAndTokId */\n      0x098c\n        /* \"contracts/ERC721TokenContractName.sol\":7342:7364  _balanceAndTokId[from] */\n      0x00\n        /* \"contracts/ERC721TokenContractName.sol\":7359:7363  from */\n      dup6\n        /* \"contracts/ERC721TokenContractName.sol\":7342:7364  _balanceAndTokId[from] */\n      0xffffffffffffffffffffffffffffffffffffffff\n      and\n      0xffffffffffffffffffffffffffffffffffffffff\n      and\n      dup2\n      mstore\n      0x20\n      add\n      swap1\n      dup2\n      mstore\n      0x20\n      add\n      0x00\n      keccak256\n        /* \"contracts/ERC721TokenContractName.sol\":7365:7366  i */\n      dup3\n        /* \"contracts/ERC721TokenContractName.sol\":7342:7367  _balanceAndTokId[from][i] */\n      0xffff\n      and\n      0x04b1\n      dup2\n      lt\n      tag_263\n      jumpi\n      tag_264\n      tag_123\n      jump\t// in\n    tag_264:\n    tag_263:\n      0x10\n      swap2\n      dup3\n      dup3\n      div\n      add\n      swap2\n      swap1\n      mod\n      0x02\n      mul\n      swap1\n      sload\n      swap1\n      0x0100\n      exp\n      swap1\n      div\n      0xffff\n      and\n        /* \"contracts/ERC721TokenContractName.sol\":7342:7378  _balanceAndTokId[from][i] == tokenId */\n      0xffff\n      and\n      sub\n        /* \"contracts/ERC721TokenContractName.sol\":7338:7504  if (_balanceAndTokId[from][i] == tokenId) {... */\n      tag_266\n      jumpi\n        /* \"contracts/ERC721TokenContractName.sol\":7427:7443  _balanceAndTokId */\n      0x098c\n        /* \"contracts/ERC721TokenContractName.sol\":7427:7449  _balanceAndTokId[from] */\n      0x00\n        /* \"contracts/ERC721TokenContractName.sol\":7444:7448  from */\n      dup5\n        /* \"contracts/ERC721TokenContractName.sol\":7427:7449  _balanceAndTokId[from] */\n      0xffffffffffffffffffffffffffffffffffffffff\n      and\n      0xffffffffffffffffffffffffffffffffffffffff\n      and\n      dup2\n      mstore\n      0x20\n      add\n      swap1\n      dup2\n      mstore\n      0x20\n      add\n      0x00\n      keccak256\n        /* \"contracts/ERC721TokenContractName.sol\":7450:7464  preBalanceFrom */\n      dup3\n        /* \"contracts/ERC721TokenContractName.sol\":7427:7465  _balanceAndTokId[from][preBalanceFrom] */\n      0xffff\n      and\n      0x04b1\n      dup2\n      lt\n      tag_267\n      jumpi\n      tag_268\n      tag_123\n      jump\t// in\n    tag_268:\n    tag_267:\n      0x10\n      swap2\n      dup3\n      dup3\n      div\n      add\n      swap2\n      swap1\n      mod\n      0x02\n      mul\n      swap1\n      sload\n      swap1\n      0x0100\n      exp\n      swap1\n      div\n      0xffff\n      and\n        /* \"contracts/ERC721TokenContractName.sol\":7399:7415  _balanceAndTokId */\n      0x098c\n        /* \"contracts/ERC721TokenContractName.sol\":7399:7421  _balanceAndTokId[from] */\n      0x00\n        /* \"contracts/ERC721TokenContractName.sol\":7416:7420  from */\n      dup6\n        /* \"contracts/ERC721TokenContractName.sol\":7399:7421  _balanceAndTokId[from] */\n      0xffffffffffffffffffffffffffffffffffffffff\n      and\n      0xffffffffffffffffffffffffffffffffffffffff\n      and\n      dup2\n      mstore\n      0x20\n      add\n      swap1\n      dup2\n      mstore\n      0x20\n      add\n      0x00\n      keccak256\n        /* \"contracts/ERC721TokenContractName.sol\":7422:7423  i */\n      dup3\n        /* \"contracts/ERC721TokenContractName.sol\":7399:7424  _balanceAndTokId[from][i] */\n      0xffff\n      and\n      0x04b1\n      dup2\n      lt\n      tag_270\n      jumpi\n      tag_271\n      tag_123\n      jump\t// in\n    tag_271:\n    tag_270:\n      0x10\n      swap2\n      dup3\n      dup3\n      div\n      add\n      swap2\n      swap1\n      mod\n      0x02\n      mul\n        /* \"contracts/ERC721TokenContractName.sol\":7399:7465  _balanceAndTokId[from][i] = _balanceAndTokId[from][preBalanceFrom] */\n      0x0100\n      exp\n      dup2\n      sload\n      dup2\n      0xffff\n      mul\n      not\n      and\n      swap1\n      dup4\n      0xffff\n      and\n      mul\n      or\n      swap1\n      sstore\n      pop\n        /* \"contracts/ERC721TokenContractName.sol\":7484:7489  break */\n      jump(tag_261)\n        /* \"contracts/ERC721TokenContractName.sol\":7338:7504  if (_balanceAndTokId[from][i] == tokenId) {... */\n    tag_266:\n        /* \"contracts/ERC721TokenContractName.sol\":7318:7321  i++ */\n      dup1\n      dup1\n      tag_273\n      swap1\n      tag_240\n      jump\t// in\n    tag_273:\n      swap2\n      pop\n      pop\n        /* \"contracts/ERC721TokenContractName.sol\":7278:7515  for (uint16 i = 1; i <= preBalanceFrom; i++) {... */\n      jump(tag_260)\n    tag_261:\n      pop\n        /* \"contracts/ERC721TokenContractName.sol\":7243:7708  if (from != address(0)) {... */\n      jump(tag_274)\n    tag_259:\n        /* \"contracts/ERC721TokenContractName.sol\":7544:7556  uint16 index */\n      0x00\n        /* \"contracts/ERC721TokenContractName.sol\":7559:7566  tokenId */\n      dup4\n        /* \"contracts/ERC721TokenContractName.sol\":7544:7566  uint16 index = tokenId */\n      swap1\n      pop\n        /* \"contracts/ERC721TokenContractName.sol\":7587:7603  _balanceAndTokId */\n      0x098c\n        /* \"contracts/ERC721TokenContractName.sol\":7587:7609  _balanceAndTokId[from] */\n      0x00\n        /* \"contracts/ERC721TokenContractName.sol\":7604:7608  from */\n      dup5\n        /* \"contracts/ERC721TokenContractName.sol\":7587:7609  _balanceAndTokId[from] */\n      0xffffffffffffffffffffffffffffffffffffffff\n      and\n      0xffffffffffffffffffffffffffffffffffffffff\n      and\n      dup2\n      mstore\n      0x20\n      add\n      swap1\n      dup2\n      mstore\n      0x20\n      add\n      0x00\n      keccak256\n        /* \"contracts/ERC721TokenContractName.sol\":7610:7615  index */\n      dup2\n        /* \"contracts/ERC721TokenContractName.sol\":7587:7616  _balanceAndTokId[from][index] */\n      0xffff\n      and\n      0x04b1\n      dup2\n      lt\n      tag_275\n      jumpi\n      tag_276\n      tag_123\n      jump\t// in\n    tag_276:\n    tag_275:\n      0x10\n      swap2\n      dup3\n      dup3\n      div\n      add\n      swap2\n      swap1\n      mod\n      0x02\n      mul\n      swap1\n      sload\n      swap1\n      0x0100\n      exp\n      swap1\n      div\n      0xffff\n      and\n        /* \"contracts/ERC721TokenContractName.sol\":7577:7616  tokenId = _balanceAndTokId[from][index] */\n      swap4\n      pop\n        /* \"contracts/ERC721TokenContractName.sol\":7659:7675  _balanceAndTokId */\n      0x098c\n        /* \"contracts/ERC721TokenContractName.sol\":7659:7681  _balanceAndTokId[from] */\n      0x00\n        /* \"contracts/ERC721TokenContractName.sol\":7676:7680  from */\n      dup5\n        /* \"contracts/ERC721TokenContractName.sol\":7659:7681  _balanceAndTokId[from] */\n      0xffffffffffffffffffffffffffffffffffffffff\n      and\n      0xffffffffffffffffffffffffffffffffffffffff\n      and\n      dup2\n      mstore\n      0x20\n      add\n      swap1\n      dup2\n      mstore\n      0x20\n      add\n      0x00\n      keccak256\n        /* \"contracts/ERC721TokenContractName.sol\":7682:7696  preBalanceFrom */\n      dup3\n        /* \"contracts/ERC721TokenContractName.sol\":7659:7697  _balanceAndTokId[from][preBalanceFrom] */\n      0xffff\n      and\n      0x04b1\n      dup2\n      lt\n      tag_278\n      jumpi\n      tag_279\n      tag_123\n      jump\t// in\n    tag_279:\n    tag_278:\n      0x10\n      swap2\n      dup3\n      dup3\n      div\n      add\n      swap2\n      swap1\n      mod\n      0x02\n      mul\n      swap1\n      sload\n      swap1\n      0x0100\n      exp\n      swap1\n      div\n      0xffff\n      and\n        /* \"contracts/ERC721TokenContractName.sol\":7627:7643  _balanceAndTokId */\n      0x098c\n        /* \"contracts/ERC721TokenContractName.sol\":7627:7649  _balanceAndTokId[from] */\n      0x00\n        /* \"contracts/ERC721TokenContractName.sol\":7644:7648  from */\n      dup6\n        /* \"contracts/ERC721TokenContractName.sol\":7627:7649  _balanceAndTokId[from] */\n      0xffffffffffffffffffffffffffffffffffffffff\n      and\n      0xffffffffffffffffffffffffffffffffffffffff\n      and\n      dup2\n      mstore\n      0x20\n      add\n      swap1\n      dup2\n      mstore\n      0x20\n      add\n      0x00\n      keccak256\n        /* \"contracts/ERC721TokenContractName.sol\":7650:7655  index */\n      dup3\n        /* \"contracts/ERC721TokenContractName.sol\":7627:7656  _balanceAndTokId[from][index] */\n      0xffff\n      and\n      0x04b1\n      dup2\n      lt\n      tag_281\n      jumpi\n      tag_282\n      tag_123\n      jump\t// in\n    tag_282:\n    tag_281:\n      0x10\n      swap2\n      dup3\n      dup3\n      div\n      add\n      swap2\n      swap1\n      mod\n      0x02\n      mul\n        /* \"contracts/ERC721TokenContractName.sol\":7627:7697  _balanceAndTokId[from][index] = _balanceAndTokId[from][preBalanceFrom] */\n      0x0100\n      exp\n      dup2\n      sload\n      dup2\n      0xffff\n      mul\n      not\n      and\n      swap1\n      dup4\n      0xffff\n      and\n      mul\n      or\n      swap1\n      sstore\n      pop\n        /* \"contracts/ERC721TokenContractName.sol\":7533:7708  {... */\n      pop\n        /* \"contracts/ERC721TokenContractName.sol\":7243:7708  if (from != address(0)) {... */\n    tag_274:\n        /* \"contracts/ERC721TokenContractName.sol\":7761:7762  0 */\n      0x00\n        /* \"contracts/ERC721TokenContractName.sol\":7720:7736  _balanceAndTokId */\n      0x098c\n        /* \"contracts/ERC721TokenContractName.sol\":7720:7742  _balanceAndTokId[from] */\n      0x00\n        /* \"contracts/ERC721TokenContractName.sol\":7737:7741  from */\n      dup5\n        /* \"contracts/ERC721TokenContractName.sol\":7720:7742  _balanceAndTokId[from] */\n      0xffffffffffffffffffffffffffffffffffffffff\n      and\n      0xffffffffffffffffffffffffffffffffffffffff\n      and\n      dup2\n      mstore\n      0x20\n      add\n      swap1\n      dup2\n      mstore\n      0x20\n      add\n      0x00\n      keccak256\n        /* \"contracts/ERC721TokenContractName.sol\":7743:7757  preBalanceFrom */\n      dup3\n        /* \"contracts/ERC721TokenContractName.sol\":7720:7758  _balanceAndTokId[from][preBalanceFrom] */\n      0xffff\n      and\n      0x04b1\n      dup2\n      lt\n      tag_284\n      jumpi\n      tag_285\n      tag_123\n      jump\t// in\n    tag_285:\n    tag_284:\n      0x10\n      swap2\n      dup3\n      dup3\n      div\n      add\n      swap2\n      swap1\n      mod\n      0x02\n      mul\n        /* \"contracts/ERC721TokenContractName.sol\":7720:7762  _balanceAndTokId[from][preBalanceFrom] = 0 */\n      0x0100\n      exp\n      dup2\n      sload\n      dup2\n      0xffff\n      mul\n      not\n      and\n      swap1\n      dup4\n      0xffff\n      and\n      mul\n      or\n      swap1\n      sstore\n      pop\n        /* \"contracts/ERC721TokenContractName.sol\":7802:7803  1 */\n      0x01\n        /* \"contracts/ERC721TokenContractName.sol\":7773:7789  _balanceAndTokId */\n      0x098c\n        /* \"contracts/ERC721TokenContractName.sol\":7773:7795  _balanceAndTokId[from] */\n      0x00\n        /* \"contracts/ERC721TokenContractName.sol\":7790:7794  from */\n      dup5\n        /* \"contracts/ERC721TokenContractName.sol\":7773:7795  _balanceAndTokId[from] */\n      0xffffffffffffffffffffffffffffffffffffffff\n      and\n      0xffffffffffffffffffffffffffffffffffffffff\n      and\n      dup2\n      mstore\n      0x20\n      add\n      swap1\n      dup2\n      mstore\n      0x20\n      add\n      0x00\n      keccak256\n        /* \"contracts/ERC721TokenContractName.sol\":7796:7797  0 */\n      0x00\n        /* \"contracts/ERC721TokenContractName.sol\":7773:7798  _balanceAndTokId[from][0] */\n      0x04b1\n      dup2\n      lt\n      tag_287\n      jumpi\n      tag_288\n      tag_123\n      jump\t// in\n    tag_288:\n    tag_287:\n      0x10\n      swap2\n      dup3\n      dup3\n      div\n      add\n      swap2\n      swap1\n      mod\n      0x02\n      mul\n        /* \"contracts/ERC721TokenContractName.sol\":7773:7803  _balanceAndTokId[from][0] -= 1 */\n      dup3\n      dup3\n      dup3\n      swap1\n      sload\n      swap1\n      0x0100\n      exp\n      swap1\n      div\n      0xffff\n      and\n      tag_290\n      swap2\n      swap1\n      tag_291\n      jump\t// in\n    tag_290:\n      swap3\n      pop\n      0x0100\n      exp\n      dup2\n      sload\n      dup2\n      0xffff\n      mul\n      not\n      and\n      swap1\n      dup4\n      0xffff\n      and\n      mul\n      or\n      swap1\n      sstore\n      pop\n        /* \"contracts/ERC721TokenContractName.sol\":7816:7835  uint16 newBalanceTo */\n      0x00\n        /* \"contracts/ERC721TokenContractName.sol\":7865:7866  1 */\n      0x01\n        /* \"contracts/ERC721TokenContractName.sol\":7839:7855  _balanceAndTokId */\n      0x098c\n        /* \"contracts/ERC721TokenContractName.sol\":7839:7859  _balanceAndTokId[to] */\n      0x00\n        /* \"contracts/ERC721TokenContractName.sol\":7856:7858  to */\n      dup8\n        /* \"contracts/ERC721TokenContractName.sol\":7839:7859  _balanceAndTokId[to] */\n      0xffffffffffffffffffffffffffffffffffffffff\n      and\n      0xffffffffffffffffffffffffffffffffffffffff\n      and\n      dup2\n      mstore\n      0x20\n      add\n      swap1\n      dup2\n      mstore\n      0x20\n      add\n      0x00\n      keccak256\n        /* \"contracts/ERC721TokenContractName.sol\":7860:7861  0 */\n      0x00\n        /* \"contracts/ERC721TokenContractName.sol\":7839:7862  _balanceAndTokId[to][0] */\n      0x04b1\n      dup2\n      lt\n      tag_292\n      jumpi\n      tag_293\n      tag_123\n      jump\t// in\n    tag_293:\n    tag_292:\n      0x10\n      swap2\n      dup3\n      dup3\n      div\n      add\n      swap2\n      swap1\n      mod\n      0x02\n      mul\n      swap1\n      sload\n      swap1\n      0x0100\n      exp\n      swap1\n      div\n      0xffff\n      and\n        /* \"contracts/ERC721TokenContractName.sol\":7839:7866  _balanceAndTokId[to][0] + 1 */\n      tag_295\n      swap2\n      swap1\n      tag_296\n      jump\t// in\n    tag_295:\n        /* \"contracts/ERC721TokenContractName.sol\":7816:7867  uint16 newBalanceTo = (_balanceAndTokId[to][0] + 1) */\n      swap1\n      pop\n        /* \"contracts/ERC721TokenContractName.sol\":7915:7922  tokenId */\n      dup4\n        /* \"contracts/ERC721TokenContractName.sol\":7878:7894  _balanceAndTokId */\n      0x098c\n        /* \"contracts/ERC721TokenContractName.sol\":7878:7898  _balanceAndTokId[to] */\n      0x00\n        /* \"contracts/ERC721TokenContractName.sol\":7895:7897  to */\n      dup8\n        /* \"contracts/ERC721TokenContractName.sol\":7878:7898  _balanceAndTokId[to] */\n      0xffffffffffffffffffffffffffffffffffffffff\n      and\n      0xffffffffffffffffffffffffffffffffffffffff\n      and\n      dup2\n      mstore\n      0x20\n      add\n      swap1\n      dup2\n      mstore\n      0x20\n      add\n      0x00\n      keccak256\n        /* \"contracts/ERC721TokenContractName.sol\":7899:7911  newBalanceTo */\n      dup3\n        /* \"contracts/ERC721TokenContractName.sol\":7878:7912  _balanceAndTokId[to][newBalanceTo] */\n      0xffff\n      and\n      0x04b1\n      dup2\n      lt\n      tag_297\n      jumpi\n      tag_298\n      tag_123\n      jump\t// in\n    tag_298:\n    tag_297:\n      0x10\n      swap2\n      dup3\n      dup3\n      div\n      add\n      swap2\n      swap1\n      mod\n      0x02\n      mul\n        /* \"contracts/ERC721TokenContractName.sol\":7878:7922  _balanceAndTokId[to][newBalanceTo] = tokenId */\n      0x0100\n      exp\n      dup2\n      sload\n      dup2\n      0xffff\n      mul\n      not\n      and\n      swap1\n      dup4\n      0xffff\n      and\n      mul\n      or\n      swap1\n      sstore\n      pop\n        /* \"contracts/ERC721TokenContractName.sol\":7959:7971  newBalanceTo */\n      dup1\n        /* \"contracts/ERC721TokenContractName.sol\":7933:7949  _balanceAndTokId */\n      0x098c\n        /* \"contracts/ERC721TokenContractName.sol\":7933:7953  _balanceAndTokId[to] */\n      0x00\n        /* \"contracts/ERC721TokenContractName.sol\":7950:7952  to */\n      dup8\n        /* \"contracts/ERC721TokenContractName.sol\":7933:7953  _balanceAndTokId[to] */\n      0xffffffffffffffffffffffffffffffffffffffff\n      and\n      0xffffffffffffffffffffffffffffffffffffffff\n      and\n      dup2\n      mstore\n      0x20\n      add\n      swap1\n      dup2\n      mstore\n      0x20\n      add\n      0x00\n      keccak256\n        /* \"contracts/ERC721TokenContractName.sol\":7954:7955  0 */\n      0x00\n        /* \"contracts/ERC721TokenContractName.sol\":7933:7956  _balanceAndTokId[to][0] */\n      0x04b1\n      dup2\n      lt\n      tag_300\n      jumpi\n      tag_301\n      tag_123\n      jump\t// in\n    tag_301:\n    tag_300:\n      0x10\n      swap2\n      dup3\n      dup3\n      div\n      add\n      swap2\n      swap1\n      mod\n      0x02\n      mul\n        /* \"contracts/ERC721TokenContractName.sol\":7933:7971  _balanceAndTokId[to][0] = newBalanceTo */\n      0x0100\n      exp\n      dup2\n      sload\n      dup2\n      0xffff\n      mul\n      not\n      and\n      swap1\n      dup4\n      0xffff\n      and\n      mul\n      or\n      swap1\n      sstore\n      pop\n        /* \"contracts/ERC721TokenContractName.sol\":8003:8005  to */\n      dup5\n        /* \"contracts/ERC721TokenContractName.sol\":7984:7991  _owners */\n      0x04b5\n        /* \"contracts/ERC721TokenContractName.sol\":7992:7999  tokenId */\n      dup6\n        /* \"contracts/ERC721TokenContractName.sol\":7984:8000  _owners[tokenId] */\n      0xffff\n      and\n      0x04b1\n      dup2\n      lt\n      tag_303\n      jumpi\n      tag_304\n      tag_123\n      jump\t// in\n    tag_304:\n    tag_303:\n      add\n      0x00\n        /* \"contracts/ERC721TokenContractName.sol\":7984:8005  _owners[tokenId] = to */\n      0x0100\n      exp\n      dup2\n      sload\n      dup2\n      0xffffffffffffffffffffffffffffffffffffffff\n      mul\n      not\n      and\n      swap1\n      dup4\n      0xffffffffffffffffffffffffffffffffffffffff\n      and\n      mul\n      or\n      swap1\n      sstore\n      pop\n        /* \"contracts/ERC721TokenContractName.sol\":8040:8047  tokenId */\n      dup4\n        /* \"contracts/ERC721TokenContractName.sol\":8021:8048  Transfer(from, to, tokenId) */\n      0xffff\n      and\n        /* \"contracts/ERC721TokenContractName.sol\":8036:8038  to */\n      dup6\n        /* \"contracts/ERC721TokenContractName.sol\":8021:8048  Transfer(from, to, tokenId) */\n      0xffffffffffffffffffffffffffffffffffffffff\n      and\n        /* \"contracts/ERC721TokenContractName.sol\":8030:8034  from */\n      dup5\n        /* \"contracts/ERC721TokenContractName.sol\":8021:8048  Transfer(from, to, tokenId) */\n      0xffffffffffffffffffffffffffffffffffffffff\n      and\n      0x89896edbd223c9360ce42ddfed7522a2bffb20c056e4c42d42370cb493b65676\n      mload(0x40)\n      mload(0x40)\n      dup1\n      swap2\n      sub\n      swap1\n      log4\n        /* \"contracts/ERC721TokenContractName.sol\":7173:8056  {... */\n      pop\n      pop\n        /* \"contracts/ERC721TokenContractName.sol\":7106:8056  function _update(address to, uint16 tokenId, address from) private {... */\n      pop\n      pop\n      pop\n      jump\t// out\n        /* \"contracts/ERC721TokenContractName.sol\":9604:9662  function setStateVoting(bytes32 state) internal {... */\n    tag_171:\n      pop\n      jump\t// out\n        /* \"contracts/ERC721TokenContractName.sol\":8611:9415  function _checkOnERC721Received(address from, address to, uint16 tokenId, bytes memory data) private {... */\n    tag_192:\n        /* \"contracts/ERC721TokenContractName.sol\":8744:8745  0 */\n      0x00\n        /* \"contracts/ERC721TokenContractName.sol\":8727:8729  to */\n      dup4\n        /* \"contracts/ERC721TokenContractName.sol\":8727:8741  to.code.length */\n      0xffffffffffffffffffffffffffffffffffffffff\n      and\n      extcodesize\n        /* \"contracts/ERC721TokenContractName.sol\":8727:8745  to.code.length > 0 */\n      gt\n        /* \"contracts/ERC721TokenContractName.sol\":8723:9408  if (to.code.length > 0) {... */\n      iszero\n      tag_308\n      jumpi\n        /* \"contracts/ERC721TokenContractName.sol\":8785:8787  to */\n      dup3\n        /* \"contracts/ERC721TokenContractName.sol\":8766:8805  IERC721TCNReceiver(to).onERC721Received */\n      0xffffffffffffffffffffffffffffffffffffffff\n      and\n      0xb1cff380\n        /* \"contracts/ERC721TokenContractName.sol\":8806:8818  _msgSender() */\n      tag_309\n        /* \"contracts/ERC721TokenContractName.sol\":8806:8816  _msgSender */\n      tag_129\n        /* \"contracts/ERC721TokenContractName.sol\":8806:8818  _msgSender() */\n      jump\t// in\n    tag_309:\n        /* \"contracts/ERC721TokenContractName.sol\":8820:8824  from */\n      dup7\n        /* \"contracts/ERC721TokenContractName.sol\":8826:8833  tokenId */\n      dup6\n        /* \"contracts/ERC721TokenContractName.sol\":8835:8839  data */\n      dup6\n        /* \"contracts/ERC721TokenContractName.sol\":8766:8840  IERC721TCNReceiver(to).onERC721Received(_msgSender(), from, tokenId, data) */\n      mload(0x40)\n      dup6\n      0xffffffff\n      and\n      0xe0\n      shl\n      dup2\n      mstore\n      0x04\n      add\n      tag_310\n      swap5\n      swap4\n      swap3\n      swap2\n      swap1\n      tag_311\n      jump\t// in\n    tag_310:\n      0x20\n      mload(0x40)\n      dup1\n      dup4\n      sub\n      dup2\n      0x00\n      dup8\n      gas\n      call\n      swap3\n      pop\n      pop\n      pop\n      dup1\n      iszero\n      tag_312\n      jumpi\n      pop\n      mload(0x40)\n      returndatasize\n      not(0x1f)\n      0x1f\n      dup3\n      add\n      and\n      dup3\n      add\n      dup1\n      0x40\n      mstore\n      pop\n      dup2\n      add\n      swap1\n      tag_313\n      swap2\n      swap1\n      tag_314\n      jump\t// in\n    tag_313:\n      0x01\n    tag_312:\n        /* \"contracts/ERC721TokenContractName.sol\":8762:9397  try IERC721TCNReceiver(to).onERC721Received(_msgSender(), from, tokenId, data) returns (bytes4 retval) {... */\n      tag_315\n      jumpi\n      returndatasize\n      dup1\n      0x00\n      dup2\n      eq\n      tag_320\n      jumpi\n      mload(0x40)\n      swap2\n      pop\n      and(add(returndatasize, 0x3f), not(0x1f))\n      dup3\n      add\n      0x40\n      mstore\n      returndatasize\n      dup3\n      mstore\n      returndatasize\n      0x00\n      0x20\n      dup5\n      add\n      returndatacopy\n      jump(tag_319)\n    tag_320:\n      0x60\n      swap2\n      pop\n    tag_319:\n      pop\n        /* \"contracts/ERC721TokenContractName.sol\":9103:9104  0 */\n      0x00\n        /* \"contracts/ERC721TokenContractName.sol\":9086:9092  reason */\n      dup2\n        /* \"contracts/ERC721TokenContractName.sol\":9086:9099  reason.length */\n      mload\n        /* \"contracts/ERC721TokenContractName.sol\":9086:9104  reason.length == 0 */\n      sub\n        /* \"contracts/ERC721TokenContractName.sol\":9082:9382  if (reason.length == 0) {... */\n      tag_321\n      jumpi\n        /* \"contracts/ERC721TokenContractName.sol\":9158:9160  to */\n      dup4\n        /* \"contracts/ERC721TokenContractName.sol\":9136:9161  ERC721InvalidReceiver(to) */\n      mload(0x40)\n      0x64a0ae9200000000000000000000000000000000000000000000000000000000\n      dup2\n      mstore\n      0x04\n      add\n      tag_322\n      swap2\n      swap1\n      tag_62\n      jump\t// in\n    tag_322:\n      mload(0x40)\n      dup1\n      swap2\n      sub\n      swap1\n      revert\n        /* \"contracts/ERC721TokenContractName.sol\":9082:9382  if (reason.length == 0) {... */\n    tag_321:\n        /* \"contracts/ERC721TokenContractName.sol\":9332:9338  reason */\n      dup1\n        /* \"contracts/ERC721TokenContractName.sol\":9326:9339  mload(reason) */\n      mload\n        /* \"contracts/ERC721TokenContractName.sol\":9317:9323  reason */\n      dup2\n        /* \"contracts/ERC721TokenContractName.sol\":9313:9315  32 */\n      0x20\n        /* \"contracts/ERC721TokenContractName.sol\":9309:9324  add(32, reason) */\n      add\n        /* \"contracts/ERC721TokenContractName.sol\":9302:9340  revert(add(32, reason), mload(reason)) */\n      revert\n        /* \"contracts/ERC721TokenContractName.sol\":8762:9397  try IERC721TCNReceiver(to).onERC721Received(_msgSender(), from, tokenId, data) returns (bytes4 retval) {... */\n    tag_315:\n        /* \"contracts/ERC721TokenContractName.sol\":8898:8942  IERC721TCNReceiver.onERC721Received.selector */\n      shl(0xe0, 0xb1cff380)\n        /* \"contracts/ERC721TokenContractName.sol\":8888:8942  retval != IERC721TCNReceiver.onERC721Received.selector */\n      not(0xffffffffffffffffffffffffffffffffffffffffffffffffffffffff)\n      and\n        /* \"contracts/ERC721TokenContractName.sol\":8888:8894  retval */\n      dup2\n        /* \"contracts/ERC721TokenContractName.sol\":8888:8942  retval != IERC721TCNReceiver.onERC721Received.selector */\n      not(0xffffffffffffffffffffffffffffffffffffffffffffffffffffffff)\n      and\n      eq\n        /* \"contracts/ERC721TokenContractName.sol\":8884:9019  if (retval != IERC721TCNReceiver.onERC721Received.selector) {... */\n      tag_325\n      jumpi\n        /* \"contracts/ERC721TokenContractName.sol\":8996:8998  to */\n      dup4\n        /* \"contracts/ERC721TokenContractName.sol\":8974:8999  ERC721InvalidReceiver(to) */\n      mload(0x40)\n      0x64a0ae9200000000000000000000000000000000000000000000000000000000\n      dup2\n      mstore\n      0x04\n      add\n      tag_326\n      swap2\n      swap1\n      tag_62\n      jump\t// in\n    tag_326:\n      mload(0x40)\n      dup1\n      swap2\n      sub\n      swap1\n      revert\n        /* \"contracts/ERC721TokenContractName.sol\":8884:9019  if (retval != IERC721TCNReceiver.onERC721Received.selector) {... */\n    tag_325:\n        /* \"contracts/ERC721TokenContractName.sol\":8841:9034  returns (bytes4 retval) {... */\n      pop\n        /* \"contracts/ERC721TokenContractName.sol\":8723:9408  if (to.code.length > 0) {... */\n    tag_308:\n        /* \"contracts/ERC721TokenContractName.sol\":8611:9415  function _checkOnERC721Received(address from, address to, uint16 tokenId, bytes memory data) private {... */\n      pop\n      pop\n      pop\n      pop\n      jump\t// out\n        /* \"contracts/ERC721TokenContractName.sol\":8518:8603  function _baseURI() private pure returns (string memory) {... */\n    tag_197:\n        /* \"contracts/ERC721TokenContractName.sol\":8560:8573  string memory */\n      0x60\n        /* \"contracts/ERC721TokenContractName.sol\":8586:8595  return \"\" */\n      mload(0x40)\n      dup1\n      0x20\n      add\n      0x40\n      mstore\n      dup1\n      0x00\n      dup2\n      mstore\n      pop\n      swap1\n      pop\n        /* \"contracts/ERC721TokenContractName.sol\":8518:8603  function _baseURI() private pure returns (string memory) {... */\n      swap1\n      jump\t// out\n        /* \"@openzeppelin/contracts/utils/Strings.sol\":637:1335  function toString(uint256 value) internal pure returns (string memory) {... */\n    tag_201:\n        /* \"@openzeppelin/contracts/utils/Strings.sol\":693:706  string memory */\n      0x60\n        /* \"@openzeppelin/contracts/utils/Strings.sol\":742:756  uint256 length */\n      0x00\n        /* \"@openzeppelin/contracts/utils/Strings.sol\":779:780  1 */\n      0x01\n        /* \"@openzeppelin/contracts/utils/Strings.sol\":759:776  Math.log10(value) */\n      tag_329\n        /* \"@openzeppelin/contracts/utils/Strings.sol\":770:775  value */\n      dup5\n        /* \"@openzeppelin/contracts/utils/Strings.sol\":759:769  Math.log10 */\n      tag_330\n        /* \"@openzeppelin/contracts/utils/Strings.sol\":759:776  Math.log10(value) */\n      jump\t// in\n    tag_329:\n        /* \"@openzeppelin/contracts/utils/Strings.sol\":759:780  Math.log10(value) + 1 */\n      add\n        /* \"@openzeppelin/contracts/utils/Strings.sol\":742:780  uint256 length = Math.log10(value) + 1 */\n      swap1\n      pop\n        /* \"@openzeppelin/contracts/utils/Strings.sol\":794:814  string memory buffer */\n      0x00\n        /* \"@openzeppelin/contracts/utils/Strings.sol\":828:834  length */\n      dup2\n        /* \"@openzeppelin/contracts/utils/Strings.sol\":817:835  new string(length) */\n      0xffffffffffffffff\n      dup2\n      gt\n      iszero\n      tag_331\n      jumpi\n      tag_332\n      tag_333\n      jump\t// in\n    tag_332:\n    tag_331:\n      mload(0x40)\n      swap1\n      dup1\n      dup3\n      mstore\n      dup1\n      0x1f\n      add\n      not(0x1f)\n      and\n      0x20\n      add\n      dup3\n      add\n      0x40\n      mstore\n      dup1\n      iszero\n      tag_334\n      jumpi\n      dup2\n      0x20\n      add\n      0x01\n      dup3\n      mul\n      dup1\n      calldatasize\n      dup4\n      calldatacopy\n      dup1\n      dup3\n      add\n      swap2\n      pop\n      pop\n      swap1\n      pop\n    tag_334:\n      pop\n        /* \"@openzeppelin/contracts/utils/Strings.sol\":794:835  string memory buffer = new string(length) */\n      swap1\n      pop\n        /* \"@openzeppelin/contracts/utils/Strings.sol\":849:860  uint256 ptr */\n      0x00\n        /* \"@openzeppelin/contracts/utils/Strings.sol\":975:981  length */\n      dup3\n        /* \"@openzeppelin/contracts/utils/Strings.sol\":971:973  32 */\n      0x20\n        /* \"@openzeppelin/contracts/utils/Strings.sol\":967:982  add(32, length) */\n      add\n        /* \"@openzeppelin/contracts/utils/Strings.sol\":959:965  buffer */\n      dup3\n        /* \"@openzeppelin/contracts/utils/Strings.sol\":955:983  add(buffer, add(32, length)) */\n      add\n        /* \"@openzeppelin/contracts/utils/Strings.sol\":948:983  ptr := add(buffer, add(32, length)) */\n      swap1\n      pop\n        /* \"@openzeppelin/contracts/utils/Strings.sol\":1010:1292  while (true) {... */\n    tag_335:\n        /* \"@openzeppelin/contracts/utils/Strings.sol\":1017:1021  true */\n      0x01\n        /* \"@openzeppelin/contracts/utils/Strings.sol\":1010:1292  while (true) {... */\n      iszero\n      tag_336\n      jumpi\n        /* \"@openzeppelin/contracts/utils/Strings.sol\":1041:1046  ptr-- */\n      dup1\n      dup1\n      0x01\n      swap1\n      sub\n      swap2\n      pop\n      pop\n        /* \"@openzeppelin/contracts/utils/Strings.sol\":1180:1190  HEX_DIGITS */\n      0x3031323334353637383961626364656600000000000000000000000000000000\n        /* \"@openzeppelin/contracts/utils/Strings.sol\":1175:1177  10 */\n      0x0a\n        /* \"@openzeppelin/contracts/utils/Strings.sol\":1168:1173  value */\n      dup7\n        /* \"@openzeppelin/contracts/utils/Strings.sol\":1164:1178  mod(value, 10) */\n      mod\n        /* \"@openzeppelin/contracts/utils/Strings.sol\":1159:1191  byte(mod(value, 10), HEX_DIGITS) */\n      byte\n        /* \"@openzeppelin/contracts/utils/Strings.sol\":1154:1157  ptr */\n      dup2\n        /* \"@openzeppelin/contracts/utils/Strings.sol\":1146:1192  mstore8(ptr, byte(mod(value, 10), HEX_DIGITS)) */\n      mstore8\n        /* \"@openzeppelin/contracts/utils/Strings.sol\":1236:1238  10 */\n      0x0a\n        /* \"@openzeppelin/contracts/utils/Strings.sol\":1227:1238  value /= 10 */\n      dup6\n      dup2\n      tag_337\n      jumpi\n      tag_338\n      tag_339\n      jump\t// in\n    tag_338:\n    tag_337:\n      div\n      swap5\n      pop\n        /* \"@openzeppelin/contracts/utils/Strings.sol\":1269:1270  0 */\n      0x00\n        /* \"@openzeppelin/contracts/utils/Strings.sol\":1260:1265  value */\n      dup6\n        /* \"@openzeppelin/contracts/utils/Strings.sol\":1260:1270  value == 0 */\n      sub\n        /* \"@openzeppelin/contracts/utils/Strings.sol\":1010:1292  while (true) {... */\n      tag_335\n        /* \"@openzeppelin/contracts/utils/Strings.sol\":1256:1277  if (value == 0) break */\n      jumpi\n        /* \"@openzeppelin/contracts/utils/Strings.sol\":1010:1292  while (true) {... */\n    tag_336:\n        /* \"@openzeppelin/contracts/utils/Strings.sol\":1312:1318  buffer */\n      dup2\n        /* \"@openzeppelin/contracts/utils/Strings.sol\":1305:1318  return buffer */\n      swap4\n      pop\n      pop\n      pop\n      pop\n        /* \"@openzeppelin/contracts/utils/Strings.sol\":637:1335  function toString(uint256 value) internal pure returns (string memory) {... */\n      swap2\n      swap1\n      pop\n      jump\t// out\n        /* \"@openzeppelin/contracts/utils/math/Math.sol\":12214:13130  function log10(uint256 value) internal pure returns (uint256) {... */\n    tag_330:\n        /* \"@openzeppelin/contracts/utils/math/Math.sol\":12267:12274  uint256 */\n      0x00\n        /* \"@openzeppelin/contracts/utils/math/Math.sol\":12286:12300  uint256 result */\n      dup1\n        /* \"@openzeppelin/contracts/utils/math/Math.sol\":12303:12304  0 */\n      0x00\n        /* \"@openzeppelin/contracts/utils/math/Math.sol\":12286:12304  uint256 result = 0 */\n      swap1\n      pop\n        /* \"@openzeppelin/contracts/utils/math/Math.sol\":12351:12359  10 ** 64 */\n      0x184f03e93ff9f4daa797ed6e38ed64bf6a1f010000000000000000\n        /* \"@openzeppelin/contracts/utils/math/Math.sol\":12342:12347  value */\n      dup4\n        /* \"@openzeppelin/contracts/utils/math/Math.sol\":12342:12359  value >= 10 ** 64 */\n      lt\n        /* \"@openzeppelin/contracts/utils/math/Math.sol\":12338:12441  if (value >= 10 ** 64) {... */\n      tag_342\n      jumpi\n        /* \"@openzeppelin/contracts/utils/math/Math.sol\":12388:12396  10 ** 64 */\n      0x184f03e93ff9f4daa797ed6e38ed64bf6a1f010000000000000000\n        /* \"@openzeppelin/contracts/utils/math/Math.sol\":12379:12396  value /= 10 ** 64 */\n      dup4\n      dup2\n      tag_343\n      jumpi\n      tag_344\n      tag_339\n      jump\t// in\n    tag_344:\n    tag_343:\n      div\n      swap3\n      pop\n        /* \"@openzeppelin/contracts/utils/math/Math.sol\":12424:12426  64 */\n      0x40\n        /* \"@openzeppelin/contracts/utils/math/Math.sol\":12414:12426  result += 64 */\n      dup2\n      add\n      swap1\n      pop\n        /* \"@openzeppelin/contracts/utils/math/Math.sol\":12338:12441  if (value >= 10 ** 64) {... */\n    tag_342:\n        /* \"@openzeppelin/contracts/utils/math/Math.sol\":12467:12475  10 ** 32 */\n      0x04ee2d6d415b85acef8100000000\n        /* \"@openzeppelin/contracts/utils/math/Math.sol\":12458:12463  value */\n      dup4\n        /* \"@openzeppelin/contracts/utils/math/Math.sol\":12458:12475  value >= 10 ** 32 */\n      lt\n        /* \"@openzeppelin/contracts/utils/math/Math.sol\":12454:12557  if (value >= 10 ** 32) {... */\n      tag_345\n      jumpi\n        /* \"@openzeppelin/contracts/utils/math/Math.sol\":12504:12512  10 ** 32 */\n      0x04ee2d6d415b85acef8100000000\n        /* \"@openzeppelin/contracts/utils/math/Math.sol\":12495:12512  value /= 10 ** 32 */\n      dup4\n      dup2\n      tag_346\n      jumpi\n      tag_347\n      tag_339\n      jump\t// in\n    tag_347:\n    tag_346:\n      div\n      swap3\n      pop\n        /* \"@openzeppelin/contracts/utils/math/Math.sol\":12540:12542  32 */\n      0x20\n        /* \"@openzeppelin/contracts/utils/math/Math.sol\":12530:12542  result += 32 */\n      dup2\n      add\n      swap1\n      pop\n        /* \"@openzeppelin/contracts/utils/math/Math.sol\":12454:12557  if (value >= 10 ** 32) {... */\n    tag_345:\n        /* \"@openzeppelin/contracts/utils/math/Math.sol\":12583:12591  10 ** 16 */\n      0x2386f26fc10000\n        /* \"@openzeppelin/contracts/utils/math/Math.sol\":12574:12579  value */\n      dup4\n        /* \"@openzeppelin/contracts/utils/math/Math.sol\":12574:12591  value >= 10 ** 16 */\n      lt\n        /* \"@openzeppelin/contracts/utils/math/Math.sol\":12570:12673  if (value >= 10 ** 16) {... */\n      tag_348\n      jumpi\n        /* \"@openzeppelin/contracts/utils/math/Math.sol\":12620:12628  10 ** 16 */\n      0x2386f26fc10000\n        /* \"@openzeppelin/contracts/utils/math/Math.sol\":12611:12628  value /= 10 ** 16 */\n      dup4\n      dup2\n      tag_349\n      jumpi\n      tag_350\n      tag_339\n      jump\t// in\n    tag_350:\n    tag_349:\n      div\n      swap3\n      pop\n        /* \"@openzeppelin/contracts/utils/math/Math.sol\":12656:12658  16 */\n      0x10\n        /* \"@openzeppelin/contracts/utils/math/Math.sol\":12646:12658  result += 16 */\n      dup2\n      add\n      swap1\n      pop\n        /* \"@openzeppelin/contracts/utils/math/Math.sol\":12570:12673  if (value >= 10 ** 16) {... */\n    tag_348:\n        /* \"@openzeppelin/contracts/utils/math/Math.sol\":12699:12706  10 ** 8 */\n      0x05f5e100\n        /* \"@openzeppelin/contracts/utils/math/Math.sol\":12690:12695  value */\n      dup4\n        /* \"@openzeppelin/contracts/utils/math/Math.sol\":12690:12706  value >= 10 ** 8 */\n      lt\n        /* \"@openzeppelin/contracts/utils/math/Math.sol\":12686:12786  if (value >= 10 ** 8) {... */\n      tag_351\n      jumpi\n        /* \"@openzeppelin/contracts/utils/math/Math.sol\":12735:12742  10 ** 8 */\n      0x05f5e100\n        /* \"@openzeppelin/contracts/utils/math/Math.sol\":12726:12742  value /= 10 ** 8 */\n      dup4\n      dup2\n      tag_352\n      jumpi\n      tag_353\n      tag_339\n      jump\t// in\n    tag_353:\n    tag_352:\n      div\n      swap3\n      pop\n        /* \"@openzeppelin/contracts/utils/math/Math.sol\":12770:12771  8 */\n      0x08\n        /* \"@openzeppelin/contracts/utils/math/Math.sol\":12760:12771  result += 8 */\n      dup2\n      add\n      swap1\n      pop\n        /* \"@openzeppelin/contracts/utils/math/Math.sol\":12686:12786  if (value >= 10 ** 8) {... */\n    tag_351:\n        /* \"@openzeppelin/contracts/utils/math/Math.sol\":12812:12819  10 ** 4 */\n      0x2710\n        /* \"@openzeppelin/contracts/utils/math/Math.sol\":12803:12808  value */\n      dup4\n        /* \"@openzeppelin/contracts/utils/math/Math.sol\":12803:12819  value >= 10 ** 4 */\n      lt\n        /* \"@openzeppelin/contracts/utils/math/Math.sol\":12799:12899  if (value >= 10 ** 4) {... */\n      tag_354\n      jumpi\n        /* \"@openzeppelin/contracts/utils/math/Math.sol\":12848:12855  10 ** 4 */\n      0x2710\n        /* \"@openzeppelin/contracts/utils/math/Math.sol\":12839:12855  value /= 10 ** 4 */\n      dup4\n      dup2\n      tag_355\n      jumpi\n      tag_356\n      tag_339\n      jump\t// in\n    tag_356:\n    tag_355:\n      div\n      swap3\n      pop\n        /* \"@openzeppelin/contracts/utils/math/Math.sol\":12883:12884  4 */\n      0x04\n        /* \"@openzeppelin/contracts/utils/math/Math.sol\":12873:12884  result += 4 */\n      dup2\n      add\n      swap1\n      pop\n        /* \"@openzeppelin/contracts/utils/math/Math.sol\":12799:12899  if (value >= 10 ** 4) {... */\n    tag_354:\n        /* \"@openzeppelin/contracts/utils/math/Math.sol\":12925:12932  10 ** 2 */\n      0x64\n        /* \"@openzeppelin/contracts/utils/math/Math.sol\":12916:12921  value */\n      dup4\n        /* \"@openzeppelin/contracts/utils/math/Math.sol\":12916:12932  value >= 10 ** 2 */\n      lt\n        /* \"@openzeppelin/contracts/utils/math/Math.sol\":12912:13012  if (value >= 10 ** 2) {... */\n      tag_357\n      jumpi\n        /* \"@openzeppelin/contracts/utils/math/Math.sol\":12961:12968  10 ** 2 */\n      0x64\n        /* \"@openzeppelin/contracts/utils/math/Math.sol\":12952:12968  value /= 10 ** 2 */\n      dup4\n      dup2\n      tag_358\n      jumpi\n      tag_359\n      tag_339\n      jump\t// in\n    tag_359:\n    tag_358:\n      div\n      swap3\n      pop\n        /* \"@openzeppelin/contracts/utils/math/Math.sol\":12996:12997  2 */\n      0x02\n        /* \"@openzeppelin/contracts/utils/math/Math.sol\":12986:12997  result += 2 */\n      dup2\n      add\n      swap1\n      pop\n        /* \"@openzeppelin/contracts/utils/math/Math.sol\":12912:13012  if (value >= 10 ** 2) {... */\n    tag_357:\n        /* \"@openzeppelin/contracts/utils/math/Math.sol\":13038:13045  10 ** 1 */\n      0x0a\n        /* \"@openzeppelin/contracts/utils/math/Math.sol\":13029:13034  value */\n      dup4\n        /* \"@openzeppelin/contracts/utils/math/Math.sol\":13029:13045  value >= 10 ** 1 */\n      lt\n        /* \"@openzeppelin/contracts/utils/math/Math.sol\":13025:13091  if (value >= 10 ** 1) {... */\n      tag_360\n      jumpi\n        /* \"@openzeppelin/contracts/utils/math/Math.sol\":13075:13076  1 */\n      0x01\n        /* \"@openzeppelin/contracts/utils/math/Math.sol\":13065:13076  result += 1 */\n      dup2\n      add\n      swap1\n      pop\n        /* \"@openzeppelin/contracts/utils/math/Math.sol\":13025:13091  if (value >= 10 ** 1) {... */\n    tag_360:\n        /* \"@openzeppelin/contracts/utils/math/Math.sol\":13117:13123  result */\n      dup1\n        /* \"@openzeppelin/contracts/utils/math/Math.sol\":13110:13123  return result */\n      swap2\n      pop\n      pop\n        /* \"@openzeppelin/contracts/utils/math/Math.sol\":12214:13130  function log10(uint256 value) internal pure returns (uint256) {... */\n      swap2\n      swap1\n      pop\n      jump\t// out\n        /* \"#utility.yul\":7:157   */\n    tag_361:\n        /* \"#utility.yul\":44:51   */\n      0x00\n        /* \"#utility.yul\":84:150   */\n      0xffffffffffffffffffffffffffffffffffffffff000000000000000000000000\n        /* \"#utility.yul\":77:82   */\n      dup3\n        /* \"#utility.yul\":73:151   */\n      and\n        /* \"#utility.yul\":62:151   */\n      swap1\n      pop\n        /* \"#utility.yul\":7:157   */\n      swap2\n      swap1\n      pop\n      jump\t// out\n        /* \"#utility.yul\":163:281   */\n    tag_362:\n        /* \"#utility.yul\":250:274   */\n      tag_447\n        /* \"#utility.yul\":268:273   */\n      dup2\n        /* \"#utility.yul\":250:274   */\n      tag_361\n      jump\t// in\n    tag_447:\n        /* \"#utility.yul\":245:248   */\n      dup3\n        /* \"#utility.yul\":238:275   */\n      mstore\n        /* \"#utility.yul\":163:281   */\n      pop\n      pop\n      jump\t// out\n        /* \"#utility.yul\":287:509   */\n    tag_26:\n        /* \"#utility.yul\":380:384   */\n      0x00\n        /* \"#utility.yul\":418:420   */\n      0x20\n        /* \"#utility.yul\":407:416   */\n      dup3\n        /* \"#utility.yul\":403:421   */\n      add\n        /* \"#utility.yul\":395:421   */\n      swap1\n      pop\n        /* \"#utility.yul\":431:502   */\n      tag_449\n        /* \"#utility.yul\":499:500   */\n      0x00\n        /* \"#utility.yul\":488:497   */\n      dup4\n        /* \"#utility.yul\":484:501   */\n      add\n        /* \"#utility.yul\":475:481   */\n      dup5\n        /* \"#utility.yul\":431:502   */\n      tag_362\n      jump\t// in\n    tag_449:\n        /* \"#utility.yul\":287:509   */\n      swap3\n      swap2\n      pop\n      pop\n      jump\t// out\n        /* \"#utility.yul\":515:590   */\n    tag_363:\n        /* \"#utility.yul\":548:554   */\n      0x00\n        /* \"#utility.yul\":581:583   */\n      0x40\n        /* \"#utility.yul\":575:584   */\n      mload\n        /* \"#utility.yul\":565:584   */\n      swap1\n      pop\n        /* \"#utility.yul\":515:590   */\n      swap1\n      jump\t// out\n        /* \"#utility.yul\":596:713   */\n    tag_364:\n        /* \"#utility.yul\":705:706   */\n      0x00\n        /* \"#utility.yul\":702:703   */\n      dup1\n        /* \"#utility.yul\":695:707   */\n      revert\n        /* \"#utility.yul\":719:836   */\n    tag_365:\n        /* \"#utility.yul\":828:829   */\n      0x00\n        /* \"#utility.yul\":825:826   */\n      dup1\n        /* \"#utility.yul\":818:830   */\n      revert\n        /* \"#utility.yul\":842:968   */\n    tag_366:\n        /* \"#utility.yul\":879:886   */\n      0x00\n        /* \"#utility.yul\":919:961   */\n      0xffffffffffffffffffffffffffffffffffffffff\n        /* \"#utility.yul\":912:917   */\n      dup3\n        /* \"#utility.yul\":908:962   */\n      and\n        /* \"#utility.yul\":897:962   */\n      swap1\n      pop\n        /* \"#utility.yul\":842:968   */\n      swap2\n      swap1\n      pop\n      jump\t// out\n        /* \"#utility.yul\":974:1070   */\n    tag_367:\n        /* \"#utility.yul\":1011:1018   */\n      0x00\n        /* \"#utility.yul\":1040:1064   */\n      tag_455\n        /* \"#utility.yul\":1058:1063   */\n      dup3\n        /* \"#utility.yul\":1040:1064   */\n      tag_366\n      jump\t// in\n    tag_455:\n        /* \"#utility.yul\":1029:1064   */\n      swap1\n      pop\n        /* \"#utility.yul\":974:1070   */\n      swap2\n      swap1\n      pop\n      jump\t// out\n        /* \"#utility.yul\":1076:1198   */\n    tag_368:\n        /* \"#utility.yul\":1149:1173   */\n      tag_457\n        /* \"#utility.yul\":1167:1172   */\n      dup2\n        /* \"#utility.yul\":1149:1173   */\n      tag_367\n      jump\t// in\n    tag_457:\n        /* \"#utility.yul\":1142:1147   */\n      dup2\n        /* \"#utility.yul\":1139:1174   */\n      eq\n        /* \"#utility.yul\":1129:1192   */\n      tag_458\n      jumpi\n        /* \"#utility.yul\":1188:1189   */\n      0x00\n        /* \"#utility.yul\":1185:1186   */\n      dup1\n        /* \"#utility.yul\":1178:1190   */\n      revert\n        /* \"#utility.yul\":1129:1192   */\n    tag_458:\n        /* \"#utility.yul\":1076:1198   */\n      pop\n      jump\t// out\n        /* \"#utility.yul\":1204:1343   */\n    tag_369:\n        /* \"#utility.yul\":1250:1255   */\n      0x00\n        /* \"#utility.yul\":1288:1294   */\n      dup2\n        /* \"#utility.yul\":1275:1295   */\n      calldataload\n        /* \"#utility.yul\":1266:1295   */\n      swap1\n      pop\n        /* \"#utility.yul\":1304:1337   */\n      tag_460\n        /* \"#utility.yul\":1331:1336   */\n      dup2\n        /* \"#utility.yul\":1304:1337   */\n      tag_368\n      jump\t// in\n    tag_460:\n        /* \"#utility.yul\":1204:1343   */\n      swap3\n      swap2\n      pop\n      pop\n      jump\t// out\n        /* \"#utility.yul\":1349:1438   */\n    tag_370:\n        /* \"#utility.yul\":1385:1392   */\n      0x00\n        /* \"#utility.yul\":1425:1431   */\n      0xffff\n        /* \"#utility.yul\":1418:1423   */\n      dup3\n        /* \"#utility.yul\":1414:1432   */\n      and\n        /* \"#utility.yul\":1403:1432   */\n      swap1\n      pop\n        /* \"#utility.yul\":1349:1438   */\n      swap2\n      swap1\n      pop\n      jump\t// out\n        /* \"#utility.yul\":1444:1564   */\n    tag_371:\n        /* \"#utility.yul\":1516:1539   */\n      tag_463\n        /* \"#utility.yul\":1533:1538   */\n      dup2\n        /* \"#utility.yul\":1516:1539   */\n      tag_370\n      jump\t// in\n    tag_463:\n        /* \"#utility.yul\":1509:1514   */\n      dup2\n        /* \"#utility.yul\":1506:1540   */\n      eq\n        /* \"#utility.yul\":1496:1558   */\n      tag_464\n      jumpi\n        /* \"#utility.yul\":1554:1555   */\n      0x00\n        /* \"#utility.yul\":1551:1552   */\n      dup1\n        /* \"#utility.yul\":1544:1556   */\n      revert\n        /* \"#utility.yul\":1496:1558   */\n    tag_464:\n        /* \"#utility.yul\":1444:1564   */\n      pop\n      jump\t// out\n        /* \"#utility.yul\":1570:1707   */\n    tag_372:\n        /* \"#utility.yul\":1615:1620   */\n      0x00\n        /* \"#utility.yul\":1653:1659   */\n      dup2\n        /* \"#utility.yul\":1640:1660   */\n      calldataload\n        /* \"#utility.yul\":1631:1660   */\n      swap1\n      pop\n        /* \"#utility.yul\":1669:1701   */\n      tag_466\n        /* \"#utility.yul\":1695:1700   */\n      dup2\n        /* \"#utility.yul\":1669:1701   */\n      tag_371\n      jump\t// in\n    tag_466:\n        /* \"#utility.yul\":1570:1707   */\n      swap3\n      swap2\n      pop\n      pop\n      jump\t// out\n        /* \"#utility.yul\":1713:2330   */\n    tag_30:\n        /* \"#utility.yul\":1789:1795   */\n      0x00\n        /* \"#utility.yul\":1797:1803   */\n      dup1\n        /* \"#utility.yul\":1805:1811   */\n      0x00\n        /* \"#utility.yul\":1854:1856   */\n      0x60\n        /* \"#utility.yul\":1842:1851   */\n      dup5\n        /* \"#utility.yul\":1833:1840   */\n      dup7\n        /* \"#utility.yul\":1829:1852   */\n      sub\n        /* \"#utility.yul\":1825:1857   */\n      slt\n        /* \"#utility.yul\":1822:1941   */\n      iszero\n      tag_468\n      jumpi\n        /* \"#utility.yul\":1860:1939   */\n      tag_469\n      tag_364\n      jump\t// in\n    tag_469:\n        /* \"#utility.yul\":1822:1941   */\n    tag_468:\n        /* \"#utility.yul\":1980:1981   */\n      0x00\n        /* \"#utility.yul\":2005:2058   */\n      tag_470\n        /* \"#utility.yul\":2050:2057   */\n      dup7\n        /* \"#utility.yul\":2041:2047   */\n      dup3\n        /* \"#utility.yul\":2030:2039   */\n      dup8\n        /* \"#utility.yul\":2026:2048   */\n      add\n        /* \"#utility.yul\":2005:2058   */\n      tag_369\n      jump\t// in\n    tag_470:\n        /* \"#utility.yul\":1995:2058   */\n      swap4\n      pop\n        /* \"#utility.yul\":1951:2068   */\n      pop\n        /* \"#utility.yul\":2107:2109   */\n      0x20\n        /* \"#utility.yul\":2133:2186   */\n      tag_471\n        /* \"#utility.yul\":2178:2185   */\n      dup7\n        /* \"#utility.yul\":2169:2175   */\n      dup3\n        /* \"#utility.yul\":2158:2167   */\n      dup8\n        /* \"#utility.yul\":2154:2176   */\n      add\n        /* \"#utility.yul\":2133:2186   */\n      tag_369\n      jump\t// in\n    tag_471:\n        /* \"#utility.yul\":2123:2186   */\n      swap3\n      pop\n        /* \"#utility.yul\":2078:2196   */\n      pop\n        /* \"#utility.yul\":2235:2237   */\n      0x40\n        /* \"#utility.yul\":2261:2313   */\n      tag_472\n        /* \"#utility.yul\":2305:2312   */\n      dup7\n        /* \"#utility.yul\":2296:2302   */\n      dup3\n        /* \"#utility.yul\":2285:2294   */\n      dup8\n        /* \"#utility.yul\":2281:2303   */\n      add\n        /* \"#utility.yul\":2261:2313   */\n      tag_372\n      jump\t// in\n    tag_472:\n        /* \"#utility.yul\":2251:2313   */\n      swap2\n      pop\n        /* \"#utility.yul\":2206:2323   */\n      pop\n        /* \"#utility.yul\":1713:2330   */\n      swap3\n      pop\n      swap3\n      pop\n      swap3\n      jump\t// out\n        /* \"#utility.yul\":2336:2413   */\n    tag_373:\n        /* \"#utility.yul\":2373:2380   */\n      0x00\n        /* \"#utility.yul\":2402:2407   */\n      dup2\n        /* \"#utility.yul\":2391:2407   */\n      swap1\n      pop\n        /* \"#utility.yul\":2336:2413   */\n      swap2\n      swap1\n      pop\n      jump\t// out\n        /* \"#utility.yul\":2419:2537   */\n    tag_374:\n        /* \"#utility.yul\":2506:2530   */\n      tag_475\n        /* \"#utility.yul\":2524:2529   */\n      dup2\n        /* \"#utility.yul\":2506:2530   */\n      tag_373\n      jump\t// in\n    tag_475:\n        /* \"#utility.yul\":2501:2504   */\n      dup3\n        /* \"#utility.yul\":2494:2531   */\n      mstore\n        /* \"#utility.yul\":2419:2537   */\n      pop\n      pop\n      jump\t// out\n        /* \"#utility.yul\":2543:2765   */\n    tag_43:\n        /* \"#utility.yul\":2636:2640   */\n      0x00\n        /* \"#utility.yul\":2674:2676   */\n      0x20\n        /* \"#utility.yul\":2663:2672   */\n      dup3\n        /* \"#utility.yul\":2659:2677   */\n      add\n        /* \"#utility.yul\":2651:2677   */\n      swap1\n      pop\n        /* \"#utility.yul\":2687:2758   */\n      tag_477\n        /* \"#utility.yul\":2755:2756   */\n      0x00\n        /* \"#utility.yul\":2744:2753   */\n      dup4\n        /* \"#utility.yul\":2740:2757   */\n      add\n        /* \"#utility.yul\":2731:2737   */\n      dup5\n        /* \"#utility.yul\":2687:2758   */\n      tag_374\n      jump\t// in\n    tag_477:\n        /* \"#utility.yul\":2543:2765   */\n      swap3\n      swap2\n      pop\n      pop\n      jump\t// out\n        /* \"#utility.yul\":2771:3100   */\n    tag_47:\n        /* \"#utility.yul\":2830:2836   */\n      0x00\n        /* \"#utility.yul\":2879:2881   */\n      0x20\n        /* \"#utility.yul\":2867:2876   */\n      dup3\n        /* \"#utility.yul\":2858:2865   */\n      dup5\n        /* \"#utility.yul\":2854:2877   */\n      sub\n        /* \"#utility.yul\":2850:2882   */\n      slt\n        /* \"#utility.yul\":2847:2966   */\n      iszero\n      tag_479\n      jumpi\n        /* \"#utility.yul\":2885:2964   */\n      tag_480\n      tag_364\n      jump\t// in\n    tag_480:\n        /* \"#utility.yul\":2847:2966   */\n    tag_479:\n        /* \"#utility.yul\":3005:3006   */\n      0x00\n        /* \"#utility.yul\":3030:3083   */\n      tag_481\n        /* \"#utility.yul\":3075:3082   */\n      dup5\n        /* \"#utility.yul\":3066:3072   */\n      dup3\n        /* \"#utility.yul\":3055:3064   */\n      dup6\n        /* \"#utility.yul\":3051:3073   */\n      add\n        /* \"#utility.yul\":3030:3083   */\n      tag_369\n      jump\t// in\n    tag_481:\n        /* \"#utility.yul\":3020:3083   */\n      swap2\n      pop\n        /* \"#utility.yul\":2976:3093   */\n      pop\n        /* \"#utility.yul\":2771:3100   */\n      swap3\n      swap2\n      pop\n      pop\n      jump\t// out\n        /* \"#utility.yul\":3106:3221   */\n    tag_375:\n        /* \"#utility.yul\":3191:3214   */\n      tag_483\n        /* \"#utility.yul\":3208:3213   */\n      dup2\n        /* \"#utility.yul\":3191:3214   */\n      tag_370\n      jump\t// in\n    tag_483:\n        /* \"#utility.yul\":3186:3189   */\n      dup3\n        /* \"#utility.yul\":3179:3215   */\n      mstore\n        /* \"#utility.yul\":3106:3221   */\n      pop\n      pop\n      jump\t// out\n        /* \"#utility.yul\":3227:3445   */\n    tag_50:\n        /* \"#utility.yul\":3318:3322   */\n      0x00\n        /* \"#utility.yul\":3356:3358   */\n      0x20\n        /* \"#utility.yul\":3345:3354   */\n      dup3\n        /* \"#utility.yul\":3341:3359   */\n      add\n        /* \"#utility.yul\":3333:3359   */\n      swap1\n      pop\n        /* \"#utility.yul\":3369:3438   */\n      tag_485\n        /* \"#utility.yul\":3435:3436   */\n      0x00\n        /* \"#utility.yul\":3424:3433   */\n      dup4\n        /* \"#utility.yul\":3420:3437   */\n      add\n        /* \"#utility.yul\":3411:3417   */\n      dup5\n        /* \"#utility.yul\":3369:3438   */\n      tag_375\n      jump\t// in\n    tag_485:\n        /* \"#utility.yul\":3227:3445   */\n      swap3\n      swap2\n      pop\n      pop\n      jump\t// out\n        /* \"#utility.yul\":3451:3548   */\n    tag_376:\n        /* \"#utility.yul\":3487:3494   */\n      0x00\n        /* \"#utility.yul\":3527:3541   */\n      0xffffffffffff\n        /* \"#utility.yul\":3520:3525   */\n      dup3\n        /* \"#utility.yul\":3516:3542   */\n      and\n        /* \"#utility.yul\":3505:3542   */\n      swap1\n      pop\n        /* \"#utility.yul\":3451:3548   */\n      swap2\n      swap1\n      pop\n      jump\t// out\n        /* \"#utility.yul\":3554:3674   */\n    tag_377:\n        /* \"#utility.yul\":3626:3649   */\n      tag_488\n        /* \"#utility.yul\":3643:3648   */\n      dup2\n        /* \"#utility.yul\":3626:3649   */\n      tag_376\n      jump\t// in\n    tag_488:\n        /* \"#utility.yul\":3619:3624   */\n      dup2\n        /* \"#utility.yul\":3616:3650   */\n      eq\n        /* \"#utility.yul\":3606:3668   */\n      tag_489\n      jumpi\n        /* \"#utility.yul\":3664:3665   */\n      0x00\n        /* \"#utility.yul\":3661:3662   */\n      dup1\n        /* \"#utility.yul\":3654:3666   */\n      revert\n        /* \"#utility.yul\":3606:3668   */\n    tag_489:\n        /* \"#utility.yul\":3554:3674   */\n      pop\n      jump\t// out\n        /* \"#utility.yul\":3680:3817   */\n    tag_378:\n        /* \"#utility.yul\":3725:3730   */\n      0x00\n        /* \"#utility.yul\":3763:3769   */\n      dup2\n        /* \"#utility.yul\":3750:3770   */\n      calldataload\n        /* \"#utility.yul\":3741:3770   */\n      swap1\n      pop\n        /* \"#utility.yul\":3779:3811   */\n      tag_491\n        /* \"#utility.yul\":3805:3810   */\n      dup2\n        /* \"#utility.yul\":3779:3811   */\n      tag_377\n      jump\t// in\n    tag_491:\n        /* \"#utility.yul\":3680:3817   */\n      swap3\n      swap2\n      pop\n      pop\n      jump\t// out\n        /* \"#utility.yul\":3823:3900   */\n    tag_379:\n        /* \"#utility.yul\":3860:3867   */\n      0x00\n        /* \"#utility.yul\":3889:3894   */\n      dup2\n        /* \"#utility.yul\":3878:3894   */\n      swap1\n      pop\n        /* \"#utility.yul\":3823:3900   */\n      swap2\n      swap1\n      pop\n      jump\t// out\n        /* \"#utility.yul\":3906:4028   */\n    tag_380:\n        /* \"#utility.yul\":3979:4003   */\n      tag_494\n        /* \"#utility.yul\":3997:4002   */\n      dup2\n        /* \"#utility.yul\":3979:4003   */\n      tag_379\n      jump\t// in\n    tag_494:\n        /* \"#utility.yul\":3972:3977   */\n      dup2\n        /* \"#utility.yul\":3969:4004   */\n      eq\n        /* \"#utility.yul\":3959:4022   */\n      tag_495\n      jumpi\n        /* \"#utility.yul\":4018:4019   */\n      0x00\n        /* \"#utility.yul\":4015:4016   */\n      dup1\n        /* \"#utility.yul\":4008:4020   */\n      revert\n        /* \"#utility.yul\":3959:4022   */\n    tag_495:\n        /* \"#utility.yul\":3906:4028   */\n      pop\n      jump\t// out\n        /* \"#utility.yul\":4034:4173   */\n    tag_381:\n        /* \"#utility.yul\":4080:4085   */\n      0x00\n        /* \"#utility.yul\":4118:4124   */\n      dup2\n        /* \"#utility.yul\":4105:4125   */\n      calldataload\n        /* \"#utility.yul\":4096:4125   */\n      swap1\n      pop\n        /* \"#utility.yul\":4134:4167   */\n      tag_497\n        /* \"#utility.yul\":4161:4166   */\n      dup2\n        /* \"#utility.yul\":4134:4167   */\n      tag_380\n      jump\t// in\n    tag_497:\n        /* \"#utility.yul\":4034:4173   */\n      swap3\n      swap2\n      pop\n      pop\n      jump\t// out\n        /* \"#utility.yul\":4179:5086   */\n    tag_54:\n        /* \"#utility.yul\":4272:4278   */\n      0x00\n        /* \"#utility.yul\":4280:4286   */\n      dup1\n        /* \"#utility.yul\":4288:4294   */\n      0x00\n        /* \"#utility.yul\":4296:4302   */\n      dup1\n        /* \"#utility.yul\":4304:4310   */\n      0x00\n        /* \"#utility.yul\":4353:4356   */\n      0xa0\n        /* \"#utility.yul\":4341:4350   */\n      dup7\n        /* \"#utility.yul\":4332:4339   */\n      dup9\n        /* \"#utility.yul\":4328:4351   */\n      sub\n        /* \"#utility.yul\":4324:4357   */\n      slt\n        /* \"#utility.yul\":4321:4441   */\n      iszero\n      tag_499\n      jumpi\n        /* \"#utility.yul\":4360:4439   */\n      tag_500\n      tag_364\n      jump\t// in\n    tag_500:\n        /* \"#utility.yul\":4321:4441   */\n    tag_499:\n        /* \"#utility.yul\":4480:4481   */\n      0x00\n        /* \"#utility.yul\":4505:4557   */\n      tag_501\n        /* \"#utility.yul\":4549:4556   */\n      dup9\n        /* \"#utility.yul\":4540:4546   */\n      dup3\n        /* \"#utility.yul\":4529:4538   */\n      dup10\n        /* \"#utility.yul\":4525:4547   */\n      add\n        /* \"#utility.yul\":4505:4557   */\n      tag_372\n      jump\t// in\n    tag_501:\n        /* \"#utility.yul\":4495:4557   */\n      swap6\n      pop\n        /* \"#utility.yul\":4451:4567   */\n      pop\n        /* \"#utility.yul\":4606:4608   */\n      0x20\n        /* \"#utility.yul\":4632:4684   */\n      tag_502\n        /* \"#utility.yul\":4676:4683   */\n      dup9\n        /* \"#utility.yul\":4667:4673   */\n      dup3\n        /* \"#utility.yul\":4656:4665   */\n      dup10\n        /* \"#utility.yul\":4652:4674   */\n      add\n        /* \"#utility.yul\":4632:4684   */\n      tag_378\n      jump\t// in\n    tag_502:\n        /* \"#utility.yul\":4622:4684   */\n      swap5\n      pop\n        /* \"#utility.yul\":4577:4694   */\n      pop\n        /* \"#utility.yul\":4733:4735   */\n      0x40\n        /* \"#utility.yul\":4759:4812   */\n      tag_503\n        /* \"#utility.yul\":4804:4811   */\n      dup9\n        /* \"#utility.yul\":4795:4801   */\n      dup3\n        /* \"#utility.yul\":4784:4793   */\n      dup10\n        /* \"#utility.yul\":4780:4802   */\n      add\n        /* \"#utility.yul\":4759:4812   */\n      tag_369\n      jump\t// in\n    tag_503:\n        /* \"#utility.yul\":4749:4812   */\n      swap4\n      pop\n        /* \"#utility.yul\":4704:4822   */\n      pop\n        /* \"#utility.yul\":4861:4863   */\n      0x60\n        /* \"#utility.yul\":4887:4940   */\n      tag_504\n        /* \"#utility.yul\":4932:4939   */\n      dup9\n        /* \"#utility.yul\":4923:4929   */\n      dup3\n        /* \"#utility.yul\":4912:4921   */\n      dup10\n        /* \"#utility.yul\":4908:4930   */\n      add\n        /* \"#utility.yul\":4887:4940   */\n      tag_369\n      jump\t// in\n    tag_504:\n        /* \"#utility.yul\":4877:4940   */\n      swap3\n      pop\n        /* \"#utility.yul\":4832:4950   */\n      pop\n        /* \"#utility.yul\":4989:4992   */\n      0x80\n        /* \"#utility.yul\":5016:5069   */\n      tag_505\n        /* \"#utility.yul\":5061:5068   */\n      dup9\n        /* \"#utility.yul\":5052:5058   */\n      dup3\n        /* \"#utility.yul\":5041:5050   */\n      dup10\n        /* \"#utility.yul\":5037:5059   */\n      add\n        /* \"#utility.yul\":5016:5069   */\n      tag_381\n      jump\t// in\n    tag_505:\n        /* \"#utility.yul\":5006:5069   */\n      swap2\n      pop\n        /* \"#utility.yul\":4960:5079   */\n      pop\n        /* \"#utility.yul\":4179:5086   */\n      swap3\n      swap6\n      pop\n      swap3\n      swap6\n      swap1\n      swap4\n      pop\n      jump\t// out\n        /* \"#utility.yul\":5092:5419   */\n    tag_59:\n        /* \"#utility.yul\":5150:5156   */\n      0x00\n        /* \"#utility.yul\":5199:5201   */\n      0x20\n        /* \"#utility.yul\":5187:5196   */\n      dup3\n        /* \"#utility.yul\":5178:5185   */\n      dup5\n        /* \"#utility.yul\":5174:5197   */\n      sub\n        /* \"#utility.yul\":5170:5202   */\n      slt\n        /* \"#utility.yul\":5167:5286   */\n      iszero\n      tag_507\n      jumpi\n        /* \"#utility.yul\":5205:5284   */\n      tag_508\n      tag_364\n      jump\t// in\n    tag_508:\n        /* \"#utility.yul\":5167:5286   */\n    tag_507:\n        /* \"#utility.yul\":5325:5326   */\n      0x00\n        /* \"#utility.yul\":5350:5402   */\n      tag_509\n        /* \"#utility.yul\":5394:5401   */\n      dup5\n        /* \"#utility.yul\":5385:5391   */\n      dup3\n        /* \"#utility.yul\":5374:5383   */\n      dup6\n        /* \"#utility.yul\":5370:5392   */\n      add\n        /* \"#utility.yul\":5350:5402   */\n      tag_372\n      jump\t// in\n    tag_509:\n        /* \"#utility.yul\":5340:5402   */\n      swap2\n      pop\n        /* \"#utility.yul\":5296:5412   */\n      pop\n        /* \"#utility.yul\":5092:5419   */\n      swap3\n      swap2\n      pop\n      pop\n      jump\t// out\n        /* \"#utility.yul\":5425:5543   */\n    tag_382:\n        /* \"#utility.yul\":5512:5536   */\n      tag_511\n        /* \"#utility.yul\":5530:5535   */\n      dup2\n        /* \"#utility.yul\":5512:5536   */\n      tag_367\n      jump\t// in\n    tag_511:\n        /* \"#utility.yul\":5507:5510   */\n      dup3\n        /* \"#utility.yul\":5500:5537   */\n      mstore\n        /* \"#utility.yul\":5425:5543   */\n      pop\n      pop\n      jump\t// out\n        /* \"#utility.yul\":5549:5771   */\n    tag_62:\n        /* \"#utility.yul\":5642:5646   */\n      0x00\n        /* \"#utility.yul\":5680:5682   */\n      0x20\n        /* \"#utility.yul\":5669:5678   */\n      dup3\n        /* \"#utility.yul\":5665:5683   */\n      add\n        /* \"#utility.yul\":5657:5683   */\n      swap1\n      pop\n        /* \"#utility.yul\":5693:5764   */\n      tag_513\n        /* \"#utility.yul\":5761:5762   */\n      0x00\n        /* \"#utility.yul\":5750:5759   */\n      dup4\n        /* \"#utility.yul\":5746:5763   */\n      add\n        /* \"#utility.yul\":5737:5743   */\n      dup5\n        /* \"#utility.yul\":5693:5764   */\n      tag_382\n      jump\t// in\n    tag_513:\n        /* \"#utility.yul\":5549:5771   */\n      swap3\n      swap2\n      pop\n      pop\n      jump\t// out\n        /* \"#utility.yul\":5777:5927   */\n    tag_383:\n        /* \"#utility.yul\":5814:5821   */\n      0x00\n        /* \"#utility.yul\":5854:5920   */\n      0xffffffffffffffffffff00000000000000000000000000000000000000000000\n        /* \"#utility.yul\":5847:5852   */\n      dup3\n        /* \"#utility.yul\":5843:5921   */\n      and\n        /* \"#utility.yul\":5832:5921   */\n      swap1\n      pop\n        /* \"#utility.yul\":5777:5927   */\n      swap2\n      swap1\n      pop\n      jump\t// out\n        /* \"#utility.yul\":5933:6051   */\n    tag_384:\n        /* \"#utility.yul\":6020:6044   */\n      tag_516\n        /* \"#utility.yul\":6038:6043   */\n      dup2\n        /* \"#utility.yul\":6020:6044   */\n      tag_383\n      jump\t// in\n    tag_516:\n        /* \"#utility.yul\":6015:6018   */\n      dup3\n        /* \"#utility.yul\":6008:6045   */\n      mstore\n        /* \"#utility.yul\":5933:6051   */\n      pop\n      pop\n      jump\t// out\n        /* \"#utility.yul\":6057:6279   */\n    tag_72:\n        /* \"#utility.yul\":6150:6154   */\n      0x00\n        /* \"#utility.yul\":6188:6190   */\n      0x20\n        /* \"#utility.yul\":6177:6186   */\n      dup3\n        /* \"#utility.yul\":6173:6191   */\n      add\n        /* \"#utility.yul\":6165:6191   */\n      swap1\n      pop\n        /* \"#utility.yul\":6201:6272   */\n      tag_518\n        /* \"#utility.yul\":6269:6270   */\n      0x00\n        /* \"#utility.yul\":6258:6267   */\n      dup4\n        /* \"#utility.yul\":6254:6271   */\n      add\n        /* \"#utility.yul\":6245:6251   */\n      dup5\n        /* \"#utility.yul\":6201:6272   */\n      tag_384\n      jump\t// in\n    tag_518:\n        /* \"#utility.yul\":6057:6279   */\n      swap3\n      swap2\n      pop\n      pop\n      jump\t// out\n        /* \"#utility.yul\":6285:6375   */\n    tag_385:\n        /* \"#utility.yul\":6319:6326   */\n      0x00\n        /* \"#utility.yul\":6362:6367   */\n      dup2\n        /* \"#utility.yul\":6355:6368   */\n      iszero\n        /* \"#utility.yul\":6348:6369   */\n      iszero\n        /* \"#utility.yul\":6337:6369   */\n      swap1\n      pop\n        /* \"#utility.yul\":6285:6375   */\n      swap2\n      swap1\n      pop\n      jump\t// out\n        /* \"#utility.yul\":6381:6497   */\n    tag_386:\n        /* \"#utility.yul\":6451:6472   */\n      tag_521\n        /* \"#utility.yul\":6466:6471   */\n      dup2\n        /* \"#utility.yul\":6451:6472   */\n      tag_385\n      jump\t// in\n    tag_521:\n        /* \"#utility.yul\":6444:6449   */\n      dup2\n        /* \"#utility.yul\":6441:6473   */\n      eq\n        /* \"#utility.yul\":6431:6491   */\n      tag_522\n      jumpi\n        /* \"#utility.yul\":6487:6488   */\n      0x00\n        /* \"#utility.yul\":6484:6485   */\n      dup1\n        /* \"#utility.yul\":6477:6489   */\n      revert\n        /* \"#utility.yul\":6431:6491   */\n    tag_522:\n        /* \"#utility.yul\":6381:6497   */\n      pop\n      jump\t// out\n        /* \"#utility.yul\":6503:6636   */\n    tag_387:\n        /* \"#utility.yul\":6546:6551   */\n      0x00\n        /* \"#utility.yul\":6584:6590   */\n      dup2\n        /* \"#utility.yul\":6571:6591   */\n      calldataload\n        /* \"#utility.yul\":6562:6591   */\n      swap1\n      pop\n        /* \"#utility.yul\":6600:6630   */\n      tag_524\n        /* \"#utility.yul\":6624:6629   */\n      dup2\n        /* \"#utility.yul\":6600:6630   */\n      tag_386\n      jump\t// in\n    tag_524:\n        /* \"#utility.yul\":6503:6636   */\n      swap3\n      swap2\n      pop\n      pop\n      jump\t// out\n        /* \"#utility.yul\":6642:7110   */\n    tag_76:\n        /* \"#utility.yul\":6707:6713   */\n      0x00\n        /* \"#utility.yul\":6715:6721   */\n      dup1\n        /* \"#utility.yul\":6764:6766   */\n      0x40\n        /* \"#utility.yul\":6752:6761   */\n      dup4\n        /* \"#utility.yul\":6743:6750   */\n      dup6\n        /* \"#utility.yul\":6739:6762   */\n      sub\n        /* \"#utility.yul\":6735:6767   */\n      slt\n        /* \"#utility.yul\":6732:6851   */\n      iszero\n      tag_526\n      jumpi\n        /* \"#utility.yul\":6770:6849   */\n      tag_527\n      tag_364\n      jump\t// in\n    tag_527:\n        /* \"#utility.yul\":6732:6851   */\n    tag_526:\n        /* \"#utility.yul\":6890:6891   */\n      0x00\n        /* \"#utility.yul\":6915:6968   */\n      tag_528\n        /* \"#utility.yul\":6960:6967   */\n      dup6\n        /* \"#utility.yul\":6951:6957   */\n      dup3\n        /* \"#utility.yul\":6940:6949   */\n      dup7\n        /* \"#utility.yul\":6936:6958   */\n      add\n        /* \"#utility.yul\":6915:6968   */\n      tag_369\n      jump\t// in\n    tag_528:\n        /* \"#utility.yul\":6905:6968   */\n      swap3\n      pop\n        /* \"#utility.yul\":6861:6978   */\n      pop\n        /* \"#utility.yul\":7017:7019   */\n      0x20\n        /* \"#utility.yul\":7043:7093   */\n      tag_529\n        /* \"#utility.yul\":7085:7092   */\n      dup6\n        /* \"#utility.yul\":7076:7082   */\n      dup3\n        /* \"#utility.yul\":7065:7074   */\n      dup7\n        /* \"#utility.yul\":7061:7083   */\n      add\n        /* \"#utility.yul\":7043:7093   */\n      tag_387\n      jump\t// in\n    tag_529:\n        /* \"#utility.yul\":7033:7093   */\n      swap2\n      pop\n        /* \"#utility.yul\":6988:7103   */\n      pop\n        /* \"#utility.yul\":6642:7110   */\n      swap3\n      pop\n      swap3\n      swap1\n      pop\n      jump\t// out\n        /* \"#utility.yul\":7116:7233   */\n    tag_388:\n        /* \"#utility.yul\":7225:7226   */\n      0x00\n        /* \"#utility.yul\":7222:7223   */\n      dup1\n        /* \"#utility.yul\":7215:7227   */\n      revert\n        /* \"#utility.yul\":7239:7356   */\n    tag_389:\n        /* \"#utility.yul\":7348:7349   */\n      0x00\n        /* \"#utility.yul\":7345:7346   */\n      dup1\n        /* \"#utility.yul\":7338:7350   */\n      revert\n        /* \"#utility.yul\":7362:7464   */\n    tag_390:\n        /* \"#utility.yul\":7403:7409   */\n      0x00\n        /* \"#utility.yul\":7454:7456   */\n      0x1f\n        /* \"#utility.yul\":7450:7457   */\n      not\n        /* \"#utility.yul\":7445:7447   */\n      0x1f\n        /* \"#utility.yul\":7438:7443   */\n      dup4\n        /* \"#utility.yul\":7434:7448   */\n      add\n        /* \"#utility.yul\":7430:7458   */\n      and\n        /* \"#utility.yul\":7420:7458   */\n      swap1\n      pop\n        /* \"#utility.yul\":7362:7464   */\n      swap2\n      swap1\n      pop\n      jump\t// out\n        /* \"#utility.yul\":7470:7650   */\n    tag_333:\n        /* \"#utility.yul\":7518:7595   */\n      0x4e487b7100000000000000000000000000000000000000000000000000000000\n        /* \"#utility.yul\":7515:7516   */\n      0x00\n        /* \"#utility.yul\":7508:7596   */\n      mstore\n        /* \"#utility.yul\":7615:7619   */\n      0x41\n        /* \"#utility.yul\":7612:7613   */\n      0x04\n        /* \"#utility.yul\":7605:7620   */\n      mstore\n        /* \"#utility.yul\":7639:7643   */\n      0x24\n        /* \"#utility.yul\":7636:7637   */\n      0x00\n        /* \"#utility.yul\":7629:7644   */\n      revert\n        /* \"#utility.yul\":7656:7937   */\n    tag_391:\n        /* \"#utility.yul\":7739:7766   */\n      tag_535\n        /* \"#utility.yul\":7761:7765   */\n      dup3\n        /* \"#utility.yul\":7739:7766   */\n      tag_390\n      jump\t// in\n    tag_535:\n        /* \"#utility.yul\":7731:7737   */\n      dup2\n        /* \"#utility.yul\":7727:7767   */\n      add\n        /* \"#utility.yul\":7869:7875   */\n      dup2\n        /* \"#utility.yul\":7857:7867   */\n      dup2\n        /* \"#utility.yul\":7854:7876   */\n      lt\n        /* \"#utility.yul\":7833:7851   */\n      0xffffffffffffffff\n        /* \"#utility.yul\":7821:7831   */\n      dup3\n        /* \"#utility.yul\":7818:7852   */\n      gt\n        /* \"#utility.yul\":7815:7877   */\n      or\n        /* \"#utility.yul\":7812:7900   */\n      iszero\n      tag_536\n      jumpi\n        /* \"#utility.yul\":7880:7898   */\n      tag_537\n      tag_333\n      jump\t// in\n    tag_537:\n        /* \"#utility.yul\":7812:7900   */\n    tag_536:\n        /* \"#utility.yul\":7920:7930   */\n      dup1\n        /* \"#utility.yul\":7916:7918   */\n      0x40\n        /* \"#utility.yul\":7909:7931   */\n      mstore\n        /* \"#utility.yul\":7699:7937   */\n      pop\n        /* \"#utility.yul\":7656:7937   */\n      pop\n      pop\n      jump\t// out\n        /* \"#utility.yul\":7943:8072   */\n    tag_392:\n        /* \"#utility.yul\":7977:7983   */\n      0x00\n        /* \"#utility.yul\":8004:8024   */\n      tag_539\n      tag_363\n      jump\t// in\n    tag_539:\n        /* \"#utility.yul\":7994:8024   */\n      swap1\n      pop\n        /* \"#utility.yul\":8033:8066   */\n      tag_540\n        /* \"#utility.yul\":8061:8065   */\n      dup3\n        /* \"#utility.yul\":8053:8059   */\n      dup3\n        /* \"#utility.yul\":8033:8066   */\n      tag_391\n      jump\t// in\n    tag_540:\n        /* \"#utility.yul\":7943:8072   */\n      swap2\n      swap1\n      pop\n      jump\t// out\n        /* \"#utility.yul\":8078:8385   */\n    tag_393:\n        /* \"#utility.yul\":8139:8143   */\n      0x00\n        /* \"#utility.yul\":8229:8247   */\n      0xffffffffffffffff\n        /* \"#utility.yul\":8221:8227   */\n      dup3\n        /* \"#utility.yul\":8218:8248   */\n      gt\n        /* \"#utility.yul\":8215:8271   */\n      iszero\n      tag_542\n      jumpi\n        /* \"#utility.yul\":8251:8269   */\n      tag_543\n      tag_333\n      jump\t// in\n    tag_543:\n        /* \"#utility.yul\":8215:8271   */\n    tag_542:\n        /* \"#utility.yul\":8289:8318   */\n      tag_544\n        /* \"#utility.yul\":8311:8317   */\n      dup3\n        /* \"#utility.yul\":8289:8318   */\n      tag_390\n      jump\t// in\n    tag_544:\n        /* \"#utility.yul\":8281:8318   */\n      swap1\n      pop\n        /* \"#utility.yul\":8373:8377   */\n      0x20\n        /* \"#utility.yul\":8367:8371   */\n      dup2\n        /* \"#utility.yul\":8363:8378   */\n      add\n        /* \"#utility.yul\":8355:8378   */\n      swap1\n      pop\n        /* \"#utility.yul\":8078:8385   */\n      swap2\n      swap1\n      pop\n      jump\t// out\n        /* \"#utility.yul\":8391:8537   */\n    tag_394:\n        /* \"#utility.yul\":8488:8494   */\n      dup3\n        /* \"#utility.yul\":8483:8486   */\n      dup2\n        /* \"#utility.yul\":8478:8481   */\n      dup4\n        /* \"#utility.yul\":8465:8495   */\n      calldatacopy\n        /* \"#utility.yul\":8529:8530   */\n      0x00\n        /* \"#utility.yul\":8520:8526   */\n      dup4\n        /* \"#utility.yul\":8515:8518   */\n      dup4\n        /* \"#utility.yul\":8511:8527   */\n      add\n        /* \"#utility.yul\":8504:8531   */\n      mstore\n        /* \"#utility.yul\":8391:8537   */\n      pop\n      pop\n      pop\n      jump\t// out\n        /* \"#utility.yul\":8543:8966   */\n    tag_395:\n        /* \"#utility.yul\":8620:8625   */\n      0x00\n        /* \"#utility.yul\":8645:8710   */\n      tag_547\n        /* \"#utility.yul\":8661:8709   */\n      tag_548\n        /* \"#utility.yul\":8702:8708   */\n      dup5\n        /* \"#utility.yul\":8661:8709   */\n      tag_393\n      jump\t// in\n    tag_548:\n        /* \"#utility.yul\":8645:8710   */\n      tag_392\n      jump\t// in\n    tag_547:\n        /* \"#utility.yul\":8636:8710   */\n      swap1\n      pop\n        /* \"#utility.yul\":8733:8739   */\n      dup3\n        /* \"#utility.yul\":8726:8731   */\n      dup2\n        /* \"#utility.yul\":8719:8740   */\n      mstore\n        /* \"#utility.yul\":8771:8775   */\n      0x20\n        /* \"#utility.yul\":8764:8769   */\n      dup2\n        /* \"#utility.yul\":8760:8776   */\n      add\n        /* \"#utility.yul\":8809:8812   */\n      dup5\n        /* \"#utility.yul\":8800:8806   */\n      dup5\n        /* \"#utility.yul\":8795:8798   */\n      dup5\n        /* \"#utility.yul\":8791:8807   */\n      add\n        /* \"#utility.yul\":8788:8813   */\n      gt\n        /* \"#utility.yul\":8785:8897   */\n      iszero\n      tag_549\n      jumpi\n        /* \"#utility.yul\":8816:8895   */\n      tag_550\n      tag_389\n      jump\t// in\n    tag_550:\n        /* \"#utility.yul\":8785:8897   */\n    tag_549:\n        /* \"#utility.yul\":8906:8960   */\n      tag_551\n        /* \"#utility.yul\":8953:8959   */\n      dup5\n        /* \"#utility.yul\":8948:8951   */\n      dup3\n        /* \"#utility.yul\":8943:8946   */\n      dup6\n        /* \"#utility.yul\":8906:8960   */\n      tag_394\n      jump\t// in\n    tag_551:\n        /* \"#utility.yul\":8626:8966   */\n      pop\n        /* \"#utility.yul\":8543:8966   */\n      swap4\n      swap3\n      pop\n      pop\n      pop\n      jump\t// out\n        /* \"#utility.yul\":8985:9323   */\n    tag_396:\n        /* \"#utility.yul\":9040:9045   */\n      0x00\n        /* \"#utility.yul\":9089:9092   */\n      dup3\n        /* \"#utility.yul\":9082:9086   */\n      0x1f\n        /* \"#utility.yul\":9074:9080   */\n      dup4\n        /* \"#utility.yul\":9070:9087   */\n      add\n        /* \"#utility.yul\":9066:9093   */\n      slt\n        /* \"#utility.yul\":9056:9178   */\n      tag_553\n      jumpi\n        /* \"#utility.yul\":9097:9176   */\n      tag_554\n      tag_388\n      jump\t// in\n    tag_554:\n        /* \"#utility.yul\":9056:9178   */\n    tag_553:\n        /* \"#utility.yul\":9214:9220   */\n      dup2\n        /* \"#utility.yul\":9201:9221   */\n      calldataload\n        /* \"#utility.yul\":9239:9317   */\n      tag_555\n        /* \"#utility.yul\":9313:9316   */\n      dup5\n        /* \"#utility.yul\":9305:9311   */\n      dup3\n        /* \"#utility.yul\":9298:9302   */\n      0x20\n        /* \"#utility.yul\":9290:9296   */\n      dup7\n        /* \"#utility.yul\":9286:9303   */\n      add\n        /* \"#utility.yul\":9239:9317   */\n      tag_395\n      jump\t// in\n    tag_555:\n        /* \"#utility.yul\":9230:9317   */\n      swap2\n      pop\n        /* \"#utility.yul\":9046:9323   */\n      pop\n        /* \"#utility.yul\":8985:9323   */\n      swap3\n      swap2\n      pop\n      pop\n      jump\t// out\n        /* \"#utility.yul\":9329:10270   */\n    tag_81:\n        /* \"#utility.yul\":9423:9429   */\n      0x00\n        /* \"#utility.yul\":9431:9437   */\n      dup1\n        /* \"#utility.yul\":9439:9445   */\n      0x00\n        /* \"#utility.yul\":9447:9453   */\n      dup1\n        /* \"#utility.yul\":9496:9499   */\n      0x80\n        /* \"#utility.yul\":9484:9493   */\n      dup6\n        /* \"#utility.yul\":9475:9482   */\n      dup8\n        /* \"#utility.yul\":9471:9494   */\n      sub\n        /* \"#utility.yul\":9467:9500   */\n      slt\n        /* \"#utility.yul\":9464:9584   */\n      iszero\n      tag_557\n      jumpi\n        /* \"#utility.yul\":9503:9582   */\n      tag_558\n      tag_364\n      jump\t// in\n    tag_558:\n        /* \"#utility.yul\":9464:9584   */\n    tag_557:\n        /* \"#utility.yul\":9623:9624   */\n      0x00\n        /* \"#utility.yul\":9648:9701   */\n      tag_559\n        /* \"#utility.yul\":9693:9700   */\n      dup8\n        /* \"#utility.yul\":9684:9690   */\n      dup3\n        /* \"#utility.yul\":9673:9682   */\n      dup9\n        /* \"#utility.yul\":9669:9691   */\n      add\n        /* \"#utility.yul\":9648:9701   */\n      tag_369\n      jump\t// in\n    tag_559:\n        /* \"#utility.yul\":9638:9701   */\n      swap5\n      pop\n        /* \"#utility.yul\":9594:9711   */\n      pop\n        /* \"#utility.yul\":9750:9752   */\n      0x20\n        /* \"#utility.yul\":9776:9829   */\n      tag_560\n        /* \"#utility.yul\":9821:9828   */\n      dup8\n        /* \"#utility.yul\":9812:9818   */\n      dup3\n        /* \"#utility.yul\":9801:9810   */\n      dup9\n        /* \"#utility.yul\":9797:9819   */\n      add\n        /* \"#utility.yul\":9776:9829   */\n      tag_369\n      jump\t// in\n    tag_560:\n        /* \"#utility.yul\":9766:9829   */\n      swap4\n      pop\n        /* \"#utility.yul\":9721:9839   */\n      pop\n        /* \"#utility.yul\":9878:9880   */\n      0x40\n        /* \"#utility.yul\":9904:9956   */\n      tag_561\n        /* \"#utility.yul\":9948:9955   */\n      dup8\n        /* \"#utility.yul\":9939:9945   */\n      dup3\n        /* \"#utility.yul\":9928:9937   */\n      dup9\n        /* \"#utility.yul\":9924:9946   */\n      add\n        /* \"#utility.yul\":9904:9956   */\n      tag_372\n      jump\t// in\n    tag_561:\n        /* \"#utility.yul\":9894:9956   */\n      swap3\n      pop\n        /* \"#utility.yul\":9849:9966   */\n      pop\n        /* \"#utility.yul\":10033:10035   */\n      0x60\n        /* \"#utility.yul\":10022:10031   */\n      dup6\n        /* \"#utility.yul\":10018:10036   */\n      add\n        /* \"#utility.yul\":10005:10037   */\n      calldataload\n        /* \"#utility.yul\":10064:10082   */\n      0xffffffffffffffff\n        /* \"#utility.yul\":10056:10062   */\n      dup2\n        /* \"#utility.yul\":10053:10083   */\n      gt\n        /* \"#utility.yul\":10050:10167   */\n      iszero\n      tag_562\n      jumpi\n        /* \"#utility.yul\":10086:10165   */\n      tag_563\n      tag_365\n      jump\t// in\n    tag_563:\n        /* \"#utility.yul\":10050:10167   */\n    tag_562:\n        /* \"#utility.yul\":10191:10253   */\n      tag_564\n        /* \"#utility.yul\":10245:10252   */\n      dup8\n        /* \"#utility.yul\":10236:10242   */\n      dup3\n        /* \"#utility.yul\":10225:10234   */\n      dup9\n        /* \"#utility.yul\":10221:10243   */\n      add\n        /* \"#utility.yul\":10191:10253   */\n      tag_396\n      jump\t// in\n    tag_564:\n        /* \"#utility.yul\":10181:10253   */\n      swap2\n      pop\n        /* \"#utility.yul\":9976:10263   */\n      pop\n        /* \"#utility.yul\":9329:10270   */\n      swap3\n      swap6\n      swap2\n      swap5\n      pop\n      swap3\n      pop\n      jump\t// out\n        /* \"#utility.yul\":10276:10393   */\n    tag_397:\n        /* \"#utility.yul\":10385:10386   */\n      0x00\n        /* \"#utility.yul\":10382:10383   */\n      dup1\n        /* \"#utility.yul\":10375:10387   */\n      revert\n        /* \"#utility.yul\":10399:10516   */\n    tag_398:\n        /* \"#utility.yul\":10508:10509   */\n      0x00\n        /* \"#utility.yul\":10505:10506   */\n      dup1\n        /* \"#utility.yul\":10498:10510   */\n      revert\n        /* \"#utility.yul\":10535:11087   */\n    tag_399:\n        /* \"#utility.yul\":10592:10600   */\n      0x00\n        /* \"#utility.yul\":10602:10608   */\n      dup1\n        /* \"#utility.yul\":10652:10655   */\n      dup4\n        /* \"#utility.yul\":10645:10649   */\n      0x1f\n        /* \"#utility.yul\":10637:10643   */\n      dup5\n        /* \"#utility.yul\":10633:10650   */\n      add\n        /* \"#utility.yul\":10629:10656   */\n      slt\n        /* \"#utility.yul\":10619:10741   */\n      tag_568\n      jumpi\n        /* \"#utility.yul\":10660:10739   */\n      tag_569\n      tag_388\n      jump\t// in\n    tag_569:\n        /* \"#utility.yul\":10619:10741   */\n    tag_568:\n        /* \"#utility.yul\":10773:10779   */\n      dup3\n        /* \"#utility.yul\":10760:10780   */\n      calldataload\n        /* \"#utility.yul\":10750:10780   */\n      swap1\n      pop\n        /* \"#utility.yul\":10803:10821   */\n      0xffffffffffffffff\n        /* \"#utility.yul\":10795:10801   */\n      dup2\n        /* \"#utility.yul\":10792:10822   */\n      gt\n        /* \"#utility.yul\":10789:10906   */\n      iszero\n      tag_570\n      jumpi\n        /* \"#utility.yul\":10825:10904   */\n      tag_571\n      tag_397\n      jump\t// in\n    tag_571:\n        /* \"#utility.yul\":10789:10906   */\n    tag_570:\n        /* \"#utility.yul\":10939:10943   */\n      0x20\n        /* \"#utility.yul\":10931:10937   */\n      dup4\n        /* \"#utility.yul\":10927:10944   */\n      add\n        /* \"#utility.yul\":10915:10944   */\n      swap2\n      pop\n        /* \"#utility.yul\":10993:10996   */\n      dup4\n        /* \"#utility.yul\":10985:10989   */\n      0x01\n        /* \"#utility.yul\":10977:10983   */\n      dup3\n        /* \"#utility.yul\":10973:10990   */\n      mul\n        /* \"#utility.yul\":10963:10971   */\n      dup4\n        /* \"#utility.yul\":10959:10991   */\n      add\n        /* \"#utility.yul\":10956:10997   */\n      gt\n        /* \"#utility.yul\":10953:11081   */\n      iszero\n      tag_572\n      jumpi\n        /* \"#utility.yul\":11000:11079   */\n      tag_573\n      tag_398\n      jump\t// in\n    tag_573:\n        /* \"#utility.yul\":10953:11081   */\n    tag_572:\n        /* \"#utility.yul\":10535:11087   */\n      swap3\n      pop\n      swap3\n      swap1\n      pop\n      jump\t// out\n        /* \"#utility.yul\":11093:12054   */\n    tag_86:\n        /* \"#utility.yul\":11189:11195   */\n      0x00\n        /* \"#utility.yul\":11197:11203   */\n      dup1\n        /* \"#utility.yul\":11205:11211   */\n      0x00\n        /* \"#utility.yul\":11213:11219   */\n      dup1\n        /* \"#utility.yul\":11221:11227   */\n      0x00\n        /* \"#utility.yul\":11270:11273   */\n      0x80\n        /* \"#utility.yul\":11258:11267   */\n      dup7\n        /* \"#utility.yul\":11249:11256   */\n      dup9\n        /* \"#utility.yul\":11245:11268   */\n      sub\n        /* \"#utility.yul\":11241:11274   */\n      slt\n        /* \"#utility.yul\":11238:11358   */\n      iszero\n      tag_575\n      jumpi\n        /* \"#utility.yul\":11277:11356   */\n      tag_576\n      tag_364\n      jump\t// in\n    tag_576:\n        /* \"#utility.yul\":11238:11358   */\n    tag_575:\n        /* \"#utility.yul\":11397:11398   */\n      0x00\n        /* \"#utility.yul\":11422:11475   */\n      tag_577\n        /* \"#utility.yul\":11467:11474   */\n      dup9\n        /* \"#utility.yul\":11458:11464   */\n      dup3\n        /* \"#utility.yul\":11447:11456   */\n      dup10\n        /* \"#utility.yul\":11443:11465   */\n      add\n        /* \"#utility.yul\":11422:11475   */\n      tag_369\n      jump\t// in\n    tag_577:\n        /* \"#utility.yul\":11412:11475   */\n      swap6\n      pop\n        /* \"#utility.yul\":11368:11485   */\n      pop\n        /* \"#utility.yul\":11524:11526   */\n      0x20\n        /* \"#utility.yul\":11550:11603   */\n      tag_578\n        /* \"#utility.yul\":11595:11602   */\n      dup9\n        /* \"#utility.yul\":11586:11592   */\n      dup3\n        /* \"#utility.yul\":11575:11584   */\n      dup10\n        /* \"#utility.yul\":11571:11593   */\n      add\n        /* \"#utility.yul\":11550:11603   */\n      tag_369\n      jump\t// in\n    tag_578:\n        /* \"#utility.yul\":11540:11603   */\n      swap5\n      pop\n        /* \"#utility.yul\":11495:11613   */\n      pop\n        /* \"#utility.yul\":11652:11654   */\n      0x40\n        /* \"#utility.yul\":11678:11730   */\n      tag_579\n        /* \"#utility.yul\":11722:11729   */\n      dup9\n        /* \"#utility.yul\":11713:11719   */\n      dup3\n        /* \"#utility.yul\":11702:11711   */\n      dup10\n        /* \"#utility.yul\":11698:11720   */\n      add\n        /* \"#utility.yul\":11678:11730   */\n      tag_372\n      jump\t// in\n    tag_579:\n        /* \"#utility.yul\":11668:11730   */\n      swap4\n      pop\n        /* \"#utility.yul\":11623:11740   */\n      pop\n        /* \"#utility.yul\":11807:11809   */\n      0x60\n        /* \"#utility.yul\":11796:11805   */\n      dup7\n        /* \"#utility.yul\":11792:11810   */\n      add\n        /* \"#utility.yul\":11779:11811   */\n      calldataload\n        /* \"#utility.yul\":11838:11856   */\n      0xffffffffffffffff\n        /* \"#utility.yul\":11830:11836   */\n      dup2\n        /* \"#utility.yul\":11827:11857   */\n      gt\n        /* \"#utility.yul\":11824:11941   */\n      iszero\n      tag_580\n      jumpi\n        /* \"#utility.yul\":11860:11939   */\n      tag_581\n      tag_365\n      jump\t// in\n    tag_581:\n        /* \"#utility.yul\":11824:11941   */\n    tag_580:\n        /* \"#utility.yul\":11973:12037   */\n      tag_582\n        /* \"#utility.yul\":12029:12036   */\n      dup9\n        /* \"#utility.yul\":12020:12026   */\n      dup3\n        /* \"#utility.yul\":12009:12018   */\n      dup10\n        /* \"#utility.yul\":12005:12027   */\n      add\n        /* \"#utility.yul\":11973:12037   */\n      tag_399\n      jump\t// in\n    tag_582:\n        /* \"#utility.yul\":11955:12037   */\n      swap3\n      pop\n      swap3\n      pop\n        /* \"#utility.yul\":11750:12047   */\n      pop\n        /* \"#utility.yul\":11093:12054   */\n      swap3\n      swap6\n      pop\n      swap3\n      swap6\n      swap1\n      swap4\n      pop\n      jump\t// out\n        /* \"#utility.yul\":12060:12209   */\n    tag_400:\n        /* \"#utility.yul\":12096:12103   */\n      0x00\n        /* \"#utility.yul\":12136:12202   */\n      0xffffffff00000000000000000000000000000000000000000000000000000000\n        /* \"#utility.yul\":12129:12134   */\n      dup3\n        /* \"#utility.yul\":12125:12203   */\n      and\n        /* \"#utility.yul\":12114:12203   */\n      swap1\n      pop\n        /* \"#utility.yul\":12060:12209   */\n      swap2\n      swap1\n      pop\n      jump\t// out\n        /* \"#utility.yul\":12215:12330   */\n    tag_401:\n        /* \"#utility.yul\":12300:12323   */\n      tag_585\n        /* \"#utility.yul\":12317:12322   */\n      dup2\n        /* \"#utility.yul\":12300:12323   */\n      tag_400\n      jump\t// in\n    tag_585:\n        /* \"#utility.yul\":12295:12298   */\n      dup3\n        /* \"#utility.yul\":12288:12324   */\n      mstore\n        /* \"#utility.yul\":12215:12330   */\n      pop\n      pop\n      jump\t// out\n        /* \"#utility.yul\":12336:12554   */\n    tag_89:\n        /* \"#utility.yul\":12427:12431   */\n      0x00\n        /* \"#utility.yul\":12465:12467   */\n      0x20\n        /* \"#utility.yul\":12454:12463   */\n      dup3\n        /* \"#utility.yul\":12450:12468   */\n      add\n        /* \"#utility.yul\":12442:12468   */\n      swap1\n      pop\n        /* \"#utility.yul\":12478:12547   */\n      tag_587\n        /* \"#utility.yul\":12544:12545   */\n      0x00\n        /* \"#utility.yul\":12533:12542   */\n      dup4\n        /* \"#utility.yul\":12529:12546   */\n      add\n        /* \"#utility.yul\":12520:12526   */\n      dup5\n        /* \"#utility.yul\":12478:12547   */\n      tag_401\n      jump\t// in\n    tag_587:\n        /* \"#utility.yul\":12336:12554   */\n      swap3\n      swap2\n      pop\n      pop\n      jump\t// out\n        /* \"#utility.yul\":12560:12659   */\n    tag_402:\n        /* \"#utility.yul\":12612:12618   */\n      0x00\n        /* \"#utility.yul\":12646:12651   */\n      dup2\n        /* \"#utility.yul\":12640:12652   */\n      mload\n        /* \"#utility.yul\":12630:12652   */\n      swap1\n      pop\n        /* \"#utility.yul\":12560:12659   */\n      swap2\n      swap1\n      pop\n      jump\t// out\n        /* \"#utility.yul\":12665:12834   */\n    tag_403:\n        /* \"#utility.yul\":12749:12760   */\n      0x00\n        /* \"#utility.yul\":12783:12789   */\n      dup3\n        /* \"#utility.yul\":12778:12781   */\n      dup3\n        /* \"#utility.yul\":12771:12790   */\n      mstore\n        /* \"#utility.yul\":12823:12827   */\n      0x20\n        /* \"#utility.yul\":12818:12821   */\n      dup3\n        /* \"#utility.yul\":12814:12828   */\n      add\n        /* \"#utility.yul\":12799:12828   */\n      swap1\n      pop\n        /* \"#utility.yul\":12665:12834   */\n      swap3\n      swap2\n      pop\n      pop\n      jump\t// out\n        /* \"#utility.yul\":12840:13086   */\n    tag_404:\n        /* \"#utility.yul\":12921:12922   */\n      0x00\n        /* \"#utility.yul\":12931:13044   */\n    tag_591:\n        /* \"#utility.yul\":12945:12951   */\n      dup4\n        /* \"#utility.yul\":12942:12943   */\n      dup2\n        /* \"#utility.yul\":12939:12952   */\n      lt\n        /* \"#utility.yul\":12931:13044   */\n      iszero\n      tag_593\n      jumpi\n        /* \"#utility.yul\":13030:13031   */\n      dup1\n        /* \"#utility.yul\":13025:13028   */\n      dup3\n        /* \"#utility.yul\":13021:13032   */\n      add\n        /* \"#utility.yul\":13015:13033   */\n      mload\n        /* \"#utility.yul\":13011:13012   */\n      dup2\n        /* \"#utility.yul\":13006:13009   */\n      dup5\n        /* \"#utility.yul\":13002:13013   */\n      add\n        /* \"#utility.yul\":12995:13034   */\n      mstore\n        /* \"#utility.yul\":12967:12969   */\n      0x20\n        /* \"#utility.yul\":12964:12965   */\n      dup2\n        /* \"#utility.yul\":12960:12970   */\n      add\n        /* \"#utility.yul\":12955:12970   */\n      swap1\n      pop\n        /* \"#utility.yul\":12931:13044   */\n      jump(tag_591)\n    tag_593:\n        /* \"#utility.yul\":13078:13079   */\n      0x00\n        /* \"#utility.yul\":13069:13075   */\n      dup5\n        /* \"#utility.yul\":13064:13067   */\n      dup5\n        /* \"#utility.yul\":13060:13076   */\n      add\n        /* \"#utility.yul\":13053:13080   */\n      mstore\n        /* \"#utility.yul\":12902:13086   */\n      pop\n        /* \"#utility.yul\":12840:13086   */\n      pop\n      pop\n      pop\n      jump\t// out\n        /* \"#utility.yul\":13092:13469   */\n    tag_405:\n        /* \"#utility.yul\":13180:13183   */\n      0x00\n        /* \"#utility.yul\":13208:13247   */\n      tag_595\n        /* \"#utility.yul\":13241:13246   */\n      dup3\n        /* \"#utility.yul\":13208:13247   */\n      tag_402\n      jump\t// in\n    tag_595:\n        /* \"#utility.yul\":13263:13334   */\n      tag_596\n        /* \"#utility.yul\":13327:13333   */\n      dup2\n        /* \"#utility.yul\":13322:13325   */\n      dup6\n        /* \"#utility.yul\":13263:13334   */\n      tag_403\n      jump\t// in\n    tag_596:\n        /* \"#utility.yul\":13256:13334   */\n      swap4\n      pop\n        /* \"#utility.yul\":13343:13408   */\n      tag_597\n        /* \"#utility.yul\":13401:13407   */\n      dup2\n        /* \"#utility.yul\":13396:13399   */\n      dup6\n        /* \"#utility.yul\":13389:13393   */\n      0x20\n        /* \"#utility.yul\":13382:13387   */\n      dup7\n        /* \"#utility.yul\":13378:13394   */\n      add\n        /* \"#utility.yul\":13343:13408   */\n      tag_404\n      jump\t// in\n    tag_597:\n        /* \"#utility.yul\":13433:13462   */\n      tag_598\n        /* \"#utility.yul\":13455:13461   */\n      dup2\n        /* \"#utility.yul\":13433:13462   */\n      tag_390\n      jump\t// in\n    tag_598:\n        /* \"#utility.yul\":13428:13431   */\n      dup5\n        /* \"#utility.yul\":13424:13463   */\n      add\n        /* \"#utility.yul\":13417:13463   */\n      swap2\n      pop\n        /* \"#utility.yul\":13184:13469   */\n      pop\n        /* \"#utility.yul\":13092:13469   */\n      swap3\n      swap2\n      pop\n      pop\n      jump\t// out\n        /* \"#utility.yul\":13475:13788   */\n    tag_95:\n        /* \"#utility.yul\":13588:13592   */\n      0x00\n        /* \"#utility.yul\":13626:13628   */\n      0x20\n        /* \"#utility.yul\":13615:13624   */\n      dup3\n        /* \"#utility.yul\":13611:13629   */\n      add\n        /* \"#utility.yul\":13603:13629   */\n      swap1\n      pop\n        /* \"#utility.yul\":13675:13684   */\n      dup2\n        /* \"#utility.yul\":13669:13673   */\n      dup2\n        /* \"#utility.yul\":13665:13685   */\n      sub\n        /* \"#utility.yul\":13661:13662   */\n      0x00\n        /* \"#utility.yul\":13650:13659   */\n      dup4\n        /* \"#utility.yul\":13646:13663   */\n      add\n        /* \"#utility.yul\":13639:13686   */\n      mstore\n        /* \"#utility.yul\":13703:13781   */\n      tag_600\n        /* \"#utility.yul\":13776:13780   */\n      dup2\n        /* \"#utility.yul\":13767:13773   */\n      dup5\n        /* \"#utility.yul\":13703:13781   */\n      tag_405\n      jump\t// in\n    tag_600:\n        /* \"#utility.yul\":13695:13781   */\n      swap1\n      pop\n        /* \"#utility.yul\":13475:13788   */\n      swap3\n      swap2\n      pop\n      pop\n      jump\t// out\n        /* \"#utility.yul\":13794:14266   */\n    tag_99:\n        /* \"#utility.yul\":13861:13867   */\n      0x00\n        /* \"#utility.yul\":13869:13875   */\n      dup1\n        /* \"#utility.yul\":13918:13920   */\n      0x40\n        /* \"#utility.yul\":13906:13915   */\n      dup4\n        /* \"#utility.yul\":13897:13904   */\n      dup6\n        /* \"#utility.yul\":13893:13916   */\n      sub\n        /* \"#utility.yul\":13889:13921   */\n      slt\n        /* \"#utility.yul\":13886:14005   */\n      iszero\n      tag_602\n      jumpi\n        /* \"#utility.yul\":13924:14003   */\n      tag_603\n      tag_364\n      jump\t// in\n    tag_603:\n        /* \"#utility.yul\":13886:14005   */\n    tag_602:\n        /* \"#utility.yul\":14044:14045   */\n      0x00\n        /* \"#utility.yul\":14069:14122   */\n      tag_604\n        /* \"#utility.yul\":14114:14121   */\n      dup6\n        /* \"#utility.yul\":14105:14111   */\n      dup3\n        /* \"#utility.yul\":14094:14103   */\n      dup7\n        /* \"#utility.yul\":14090:14112   */\n      add\n        /* \"#utility.yul\":14069:14122   */\n      tag_369\n      jump\t// in\n    tag_604:\n        /* \"#utility.yul\":14059:14122   */\n      swap3\n      pop\n        /* \"#utility.yul\":14015:14132   */\n      pop\n        /* \"#utility.yul\":14171:14173   */\n      0x20\n        /* \"#utility.yul\":14197:14249   */\n      tag_605\n        /* \"#utility.yul\":14241:14248   */\n      dup6\n        /* \"#utility.yul\":14232:14238   */\n      dup3\n        /* \"#utility.yul\":14221:14230   */\n      dup7\n        /* \"#utility.yul\":14217:14239   */\n      add\n        /* \"#utility.yul\":14197:14249   */\n      tag_372\n      jump\t// in\n    tag_605:\n        /* \"#utility.yul\":14187:14249   */\n      swap2\n      pop\n        /* \"#utility.yul\":14142:14259   */\n      pop\n        /* \"#utility.yul\":13794:14266   */\n      swap3\n      pop\n      swap3\n      swap1\n      pop\n      jump\t// out\n        /* \"#utility.yul\":14272:14746   */\n    tag_104:\n        /* \"#utility.yul\":14340:14346   */\n      0x00\n        /* \"#utility.yul\":14348:14354   */\n      dup1\n        /* \"#utility.yul\":14397:14399   */\n      0x40\n        /* \"#utility.yul\":14385:14394   */\n      dup4\n        /* \"#utility.yul\":14376:14383   */\n      dup6\n        /* \"#utility.yul\":14372:14395   */\n      sub\n        /* \"#utility.yul\":14368:14400   */\n      slt\n        /* \"#utility.yul\":14365:14484   */\n      iszero\n      tag_607\n      jumpi\n        /* \"#utility.yul\":14403:14482   */\n      tag_608\n      tag_364\n      jump\t// in\n    tag_608:\n        /* \"#utility.yul\":14365:14484   */\n    tag_607:\n        /* \"#utility.yul\":14523:14524   */\n      0x00\n        /* \"#utility.yul\":14548:14601   */\n      tag_609\n        /* \"#utility.yul\":14593:14600   */\n      dup6\n        /* \"#utility.yul\":14584:14590   */\n      dup3\n        /* \"#utility.yul\":14573:14582   */\n      dup7\n        /* \"#utility.yul\":14569:14591   */\n      add\n        /* \"#utility.yul\":14548:14601   */\n      tag_369\n      jump\t// in\n    tag_609:\n        /* \"#utility.yul\":14538:14601   */\n      swap3\n      pop\n        /* \"#utility.yul\":14494:14611   */\n      pop\n        /* \"#utility.yul\":14650:14652   */\n      0x20\n        /* \"#utility.yul\":14676:14729   */\n      tag_610\n        /* \"#utility.yul\":14721:14728   */\n      dup6\n        /* \"#utility.yul\":14712:14718   */\n      dup3\n        /* \"#utility.yul\":14701:14710   */\n      dup7\n        /* \"#utility.yul\":14697:14719   */\n      add\n        /* \"#utility.yul\":14676:14729   */\n      tag_369\n      jump\t// in\n    tag_610:\n        /* \"#utility.yul\":14666:14729   */\n      swap2\n      pop\n        /* \"#utility.yul\":14621:14739   */\n      pop\n        /* \"#utility.yul\":14272:14746   */\n      swap3\n      pop\n      swap3\n      swap1\n      pop\n      jump\t// out\n        /* \"#utility.yul\":14752:14861   */\n    tag_406:\n        /* \"#utility.yul\":14833:14854   */\n      tag_612\n        /* \"#utility.yul\":14848:14853   */\n      dup2\n        /* \"#utility.yul\":14833:14854   */\n      tag_385\n      jump\t// in\n    tag_612:\n        /* \"#utility.yul\":14828:14831   */\n      dup3\n        /* \"#utility.yul\":14821:14855   */\n      mstore\n        /* \"#utility.yul\":14752:14861   */\n      pop\n      pop\n      jump\t// out\n        /* \"#utility.yul\":14867:15077   */\n    tag_107:\n        /* \"#utility.yul\":14954:14958   */\n      0x00\n        /* \"#utility.yul\":14992:14994   */\n      0x20\n        /* \"#utility.yul\":14981:14990   */\n      dup3\n        /* \"#utility.yul\":14977:14995   */\n      add\n        /* \"#utility.yul\":14969:14995   */\n      swap1\n      pop\n        /* \"#utility.yul\":15005:15070   */\n      tag_614\n        /* \"#utility.yul\":15067:15068   */\n      0x00\n        /* \"#utility.yul\":15056:15065   */\n      dup4\n        /* \"#utility.yul\":15052:15069   */\n      add\n        /* \"#utility.yul\":15043:15049   */\n      dup5\n        /* \"#utility.yul\":15005:15070   */\n      tag_406\n      jump\t// in\n    tag_614:\n        /* \"#utility.yul\":14867:15077   */\n      swap3\n      swap2\n      pop\n      pop\n      jump\t// out\n        /* \"#utility.yul\":15083:15181   */\n    tag_407:\n        /* \"#utility.yul\":15134:15140   */\n      0x00\n        /* \"#utility.yul\":15168:15173   */\n      dup2\n        /* \"#utility.yul\":15162:15174   */\n      mload\n        /* \"#utility.yul\":15152:15174   */\n      swap1\n      pop\n        /* \"#utility.yul\":15083:15181   */\n      swap2\n      swap1\n      pop\n      jump\t// out\n        /* \"#utility.yul\":15187:15355   */\n    tag_408:\n        /* \"#utility.yul\":15270:15281   */\n      0x00\n        /* \"#utility.yul\":15304:15310   */\n      dup3\n        /* \"#utility.yul\":15299:15302   */\n      dup3\n        /* \"#utility.yul\":15292:15311   */\n      mstore\n        /* \"#utility.yul\":15344:15348   */\n      0x20\n        /* \"#utility.yul\":15339:15342   */\n      dup3\n        /* \"#utility.yul\":15335:15349   */\n      add\n        /* \"#utility.yul\":15320:15349   */\n      swap1\n      pop\n        /* \"#utility.yul\":15187:15355   */\n      swap3\n      swap2\n      pop\n      pop\n      jump\t// out\n        /* \"#utility.yul\":15361:15734   */\n    tag_409:\n        /* \"#utility.yul\":15447:15450   */\n      0x00\n        /* \"#utility.yul\":15475:15513   */\n      tag_618\n        /* \"#utility.yul\":15507:15512   */\n      dup3\n        /* \"#utility.yul\":15475:15513   */\n      tag_407\n      jump\t// in\n    tag_618:\n        /* \"#utility.yul\":15529:15599   */\n      tag_619\n        /* \"#utility.yul\":15592:15598   */\n      dup2\n        /* \"#utility.yul\":15587:15590   */\n      dup6\n        /* \"#utility.yul\":15529:15599   */\n      tag_408\n      jump\t// in\n    tag_619:\n        /* \"#utility.yul\":15522:15599   */\n      swap4\n      pop\n        /* \"#utility.yul\":15608:15673   */\n      tag_620\n        /* \"#utility.yul\":15666:15672   */\n      dup2\n        /* \"#utility.yul\":15661:15664   */\n      dup6\n        /* \"#utility.yul\":15654:15658   */\n      0x20\n        /* \"#utility.yul\":15647:15652   */\n      dup7\n        /* \"#utility.yul\":15643:15659   */\n      add\n        /* \"#utility.yul\":15608:15673   */\n      tag_404\n      jump\t// in\n    tag_620:\n        /* \"#utility.yul\":15698:15727   */\n      tag_621\n        /* \"#utility.yul\":15720:15726   */\n      dup2\n        /* \"#utility.yul\":15698:15727   */\n      tag_390\n      jump\t// in\n    tag_621:\n        /* \"#utility.yul\":15693:15696   */\n      dup5\n        /* \"#utility.yul\":15689:15728   */\n      add\n        /* \"#utility.yul\":15682:15728   */\n      swap2\n      pop\n        /* \"#utility.yul\":15451:15734   */\n      pop\n        /* \"#utility.yul\":15361:15734   */\n      swap3\n      swap2\n      pop\n      pop\n      jump\t// out\n        /* \"#utility.yul\":15740:16049   */\n    tag_111:\n        /* \"#utility.yul\":15851:15855   */\n      0x00\n        /* \"#utility.yul\":15889:15891   */\n      0x20\n        /* \"#utility.yul\":15878:15887   */\n      dup3\n        /* \"#utility.yul\":15874:15892   */\n      add\n        /* \"#utility.yul\":15866:15892   */\n      swap1\n      pop\n        /* \"#utility.yul\":15938:15947   */\n      dup2\n        /* \"#utility.yul\":15932:15936   */\n      dup2\n        /* \"#utility.yul\":15928:15948   */\n      sub\n        /* \"#utility.yul\":15924:15925   */\n      0x00\n        /* \"#utility.yul\":15913:15922   */\n      dup4\n        /* \"#utility.yul\":15909:15926   */\n      add\n        /* \"#utility.yul\":15902:15949   */\n      mstore\n        /* \"#utility.yul\":15966:16042   */\n      tag_623\n        /* \"#utility.yul\":16037:16041   */\n      dup2\n        /* \"#utility.yul\":16028:16034   */\n      dup5\n        /* \"#utility.yul\":15966:16042   */\n      tag_409\n      jump\t// in\n    tag_623:\n        /* \"#utility.yul\":15958:16042   */\n      swap1\n      pop\n        /* \"#utility.yul\":15740:16049   */\n      swap3\n      swap2\n      pop\n      pop\n      jump\t// out\n        /* \"#utility.yul\":16055:16235   */\n    tag_123:\n        /* \"#utility.yul\":16103:16180   */\n      0x4e487b7100000000000000000000000000000000000000000000000000000000\n        /* \"#utility.yul\":16100:16101   */\n      0x00\n        /* \"#utility.yul\":16093:16181   */\n      mstore\n        /* \"#utility.yul\":16200:16204   */\n      0x32\n        /* \"#utility.yul\":16197:16198   */\n      0x04\n        /* \"#utility.yul\":16190:16205   */\n      mstore\n        /* \"#utility.yul\":16224:16228   */\n      0x24\n        /* \"#utility.yul\":16221:16222   */\n      0x00\n        /* \"#utility.yul\":16214:16229   */\n      revert\n        /* \"#utility.yul\":16241:16474   */\n    tag_410:\n        /* \"#utility.yul\":16381:16415   */\n      0x546865207472616e73666572206f66207468697320746f6b656e206973206375\n        /* \"#utility.yul\":16377:16378   */\n      0x00\n        /* \"#utility.yul\":16369:16375   */\n      dup3\n        /* \"#utility.yul\":16365:16379   */\n      add\n        /* \"#utility.yul\":16358:16416   */\n      mstore\n        /* \"#utility.yul\":16450:16466   */\n      0x7272656e746c792062616e6e6564000000000000000000000000000000000000\n        /* \"#utility.yul\":16445:16447   */\n      0x20\n        /* \"#utility.yul\":16437:16443   */\n      dup3\n        /* \"#utility.yul\":16433:16448   */\n      add\n        /* \"#utility.yul\":16426:16467   */\n      mstore\n        /* \"#utility.yul\":16241:16474   */\n      pop\n      jump\t// out\n        /* \"#utility.yul\":16480:16846   */\n    tag_411:\n        /* \"#utility.yul\":16622:16625   */\n      0x00\n        /* \"#utility.yul\":16643:16710   */\n      tag_627\n        /* \"#utility.yul\":16707:16709   */\n      0x2e\n        /* \"#utility.yul\":16702:16705   */\n      dup4\n        /* \"#utility.yul\":16643:16710   */\n      tag_403\n      jump\t// in\n    tag_627:\n        /* \"#utility.yul\":16636:16710   */\n      swap2\n      pop\n        /* \"#utility.yul\":16719:16812   */\n      tag_628\n        /* \"#utility.yul\":16808:16811   */\n      dup3\n        /* \"#utility.yul\":16719:16812   */\n      tag_410\n      jump\t// in\n    tag_628:\n        /* \"#utility.yul\":16837:16839   */\n      0x40\n        /* \"#utility.yul\":16832:16835   */\n      dup3\n        /* \"#utility.yul\":16828:16840   */\n      add\n        /* \"#utility.yul\":16821:16840   */\n      swap1\n      pop\n        /* \"#utility.yul\":16480:16846   */\n      swap2\n      swap1\n      pop\n      jump\t// out\n        /* \"#utility.yul\":16852:17271   */\n    tag_127:\n        /* \"#utility.yul\":17018:17022   */\n      0x00\n        /* \"#utility.yul\":17056:17058   */\n      0x20\n        /* \"#utility.yul\":17045:17054   */\n      dup3\n        /* \"#utility.yul\":17041:17059   */\n      add\n        /* \"#utility.yul\":17033:17059   */\n      swap1\n      pop\n        /* \"#utility.yul\":17105:17114   */\n      dup2\n        /* \"#utility.yul\":17099:17103   */\n      dup2\n        /* \"#utility.yul\":17095:17115   */\n      sub\n        /* \"#utility.yul\":17091:17092   */\n      0x00\n        /* \"#utility.yul\":17080:17089   */\n      dup4\n        /* \"#utility.yul\":17076:17093   */\n      add\n        /* \"#utility.yul\":17069:17116   */\n      mstore\n        /* \"#utility.yul\":17133:17264   */\n      tag_630\n        /* \"#utility.yul\":17259:17263   */\n      dup2\n        /* \"#utility.yul\":17133:17264   */\n      tag_411\n      jump\t// in\n    tag_630:\n        /* \"#utility.yul\":17125:17264   */\n      swap1\n      pop\n        /* \"#utility.yul\":16852:17271   */\n      swap2\n      swap1\n      pop\n      jump\t// out\n        /* \"#utility.yul\":17277:17337   */\n    tag_412:\n        /* \"#utility.yul\":17305:17308   */\n      0x00\n        /* \"#utility.yul\":17326:17331   */\n      dup2\n        /* \"#utility.yul\":17319:17331   */\n      swap1\n      pop\n        /* \"#utility.yul\":17277:17337   */\n      swap2\n      swap1\n      pop\n      jump\t// out\n        /* \"#utility.yul\":17343:17483   */\n    tag_413:\n        /* \"#utility.yul\":17392:17401   */\n      0x00\n        /* \"#utility.yul\":17425:17477   */\n      tag_633\n        /* \"#utility.yul\":17443:17476   */\n      tag_634\n        /* \"#utility.yul\":17452:17475   */\n      tag_635\n        /* \"#utility.yul\":17469:17474   */\n      dup5\n        /* \"#utility.yul\":17452:17475   */\n      tag_370\n      jump\t// in\n    tag_635:\n        /* \"#utility.yul\":17443:17476   */\n      tag_412\n      jump\t// in\n    tag_634:\n        /* \"#utility.yul\":17425:17477   */\n      tag_379\n      jump\t// in\n    tag_633:\n        /* \"#utility.yul\":17412:17477   */\n      swap1\n      pop\n        /* \"#utility.yul\":17343:17483   */\n      swap2\n      swap1\n      pop\n      jump\t// out\n        /* \"#utility.yul\":17489:17618   */\n    tag_414:\n        /* \"#utility.yul\":17575:17611   */\n      tag_637\n        /* \"#utility.yul\":17605:17610   */\n      dup2\n        /* \"#utility.yul\":17575:17611   */\n      tag_413\n      jump\t// in\n    tag_637:\n        /* \"#utility.yul\":17570:17573   */\n      dup3\n        /* \"#utility.yul\":17563:17612   */\n      mstore\n        /* \"#utility.yul\":17489:17618   */\n      pop\n      pop\n      jump\t// out\n        /* \"#utility.yul\":17624:17954   */\n    tag_139:\n        /* \"#utility.yul\":17744:17748   */\n      0x00\n        /* \"#utility.yul\":17782:17784   */\n      0x40\n        /* \"#utility.yul\":17771:17780   */\n      dup3\n        /* \"#utility.yul\":17767:17785   */\n      add\n        /* \"#utility.yul\":17759:17785   */\n      swap1\n      pop\n        /* \"#utility.yul\":17795:17866   */\n      tag_639\n        /* \"#utility.yul\":17863:17864   */\n      0x00\n        /* \"#utility.yul\":17852:17861   */\n      dup4\n        /* \"#utility.yul\":17848:17865   */\n      add\n        /* \"#utility.yul\":17839:17845   */\n      dup6\n        /* \"#utility.yul\":17795:17866   */\n      tag_382\n      jump\t// in\n    tag_639:\n        /* \"#utility.yul\":17876:17947   */\n      tag_640\n        /* \"#utility.yul\":17943:17945   */\n      0x20\n        /* \"#utility.yul\":17932:17941   */\n      dup4\n        /* \"#utility.yul\":17928:17946   */\n      add\n        /* \"#utility.yul\":17919:17925   */\n      dup5\n        /* \"#utility.yul\":17876:17947   */\n      tag_414\n      jump\t// in\n    tag_640:\n        /* \"#utility.yul\":17624:17954   */\n      swap4\n      swap3\n      pop\n      pop\n      pop\n      jump\t// out\n        /* \"#utility.yul\":17960:18400   */\n    tag_142:\n        /* \"#utility.yul\":18108:18112   */\n      0x00\n        /* \"#utility.yul\":18146:18148   */\n      0x60\n        /* \"#utility.yul\":18135:18144   */\n      dup3\n        /* \"#utility.yul\":18131:18149   */\n      add\n        /* \"#utility.yul\":18123:18149   */\n      swap1\n      pop\n        /* \"#utility.yul\":18159:18230   */\n      tag_642\n        /* \"#utility.yul\":18227:18228   */\n      0x00\n        /* \"#utility.yul\":18216:18225   */\n      dup4\n        /* \"#utility.yul\":18212:18229   */\n      add\n        /* \"#utility.yul\":18203:18209   */\n      dup7\n        /* \"#utility.yul\":18159:18230   */\n      tag_382\n      jump\t// in\n    tag_642:\n        /* \"#utility.yul\":18240:18311   */\n      tag_643\n        /* \"#utility.yul\":18307:18309   */\n      0x20\n        /* \"#utility.yul\":18296:18305   */\n      dup4\n        /* \"#utility.yul\":18292:18310   */\n      add\n        /* \"#utility.yul\":18283:18289   */\n      dup6\n        /* \"#utility.yul\":18240:18311   */\n      tag_414\n      jump\t// in\n    tag_643:\n        /* \"#utility.yul\":18321:18393   */\n      tag_644\n        /* \"#utility.yul\":18389:18391   */\n      0x40\n        /* \"#utility.yul\":18378:18387   */\n      dup4\n        /* \"#utility.yul\":18374:18392   */\n      add\n        /* \"#utility.yul\":18365:18371   */\n      dup5\n        /* \"#utility.yul\":18321:18393   */\n      tag_382\n      jump\t// in\n    tag_644:\n        /* \"#utility.yul\":17960:18400   */\n      swap5\n      swap4\n      pop\n      pop\n      pop\n      pop\n      jump\t// out\n        /* \"#utility.yul\":18406:18588   */\n    tag_415:\n        /* \"#utility.yul\":18546:18580   */\n      0x54686520696e70757420616464726573732063616e6e6f74206265207a65726f\n        /* \"#utility.yul\":18542:18543   */\n      0x00\n        /* \"#utility.yul\":18534:18540   */\n      dup3\n        /* \"#utility.yul\":18530:18544   */\n      add\n        /* \"#utility.yul\":18523:18581   */\n      mstore\n        /* \"#utility.yul\":18406:18588   */\n      pop\n      jump\t// out\n        /* \"#utility.yul\":18594:18960   */\n    tag_416:\n        /* \"#utility.yul\":18736:18739   */\n      0x00\n        /* \"#utility.yul\":18757:18824   */\n      tag_647\n        /* \"#utility.yul\":18821:18823   */\n      0x20\n        /* \"#utility.yul\":18816:18819   */\n      dup4\n        /* \"#utility.yul\":18757:18824   */\n      tag_403\n      jump\t// in\n    tag_647:\n        /* \"#utility.yul\":18750:18824   */\n      swap2\n      pop\n        /* \"#utility.yul\":18833:18926   */\n      tag_648\n        /* \"#utility.yul\":18922:18925   */\n      dup3\n        /* \"#utility.yul\":18833:18926   */\n      tag_415\n      jump\t// in\n    tag_648:\n        /* \"#utility.yul\":18951:18953   */\n      0x20\n        /* \"#utility.yul\":18946:18949   */\n      dup3\n        /* \"#utility.yul\":18942:18954   */\n      add\n        /* \"#utility.yul\":18935:18954   */\n      swap1\n      pop\n        /* \"#utility.yul\":18594:18960   */\n      swap2\n      swap1\n      pop\n      jump\t// out\n        /* \"#utility.yul\":18966:19385   */\n    tag_151:\n        /* \"#utility.yul\":19132:19136   */\n      0x00\n        /* \"#utility.yul\":19170:19172   */\n      0x20\n        /* \"#utility.yul\":19159:19168   */\n      dup3\n        /* \"#utility.yul\":19155:19173   */\n      add\n        /* \"#utility.yul\":19147:19173   */\n      swap1\n      pop\n        /* \"#utility.yul\":19219:19228   */\n      dup2\n        /* \"#utility.yul\":19213:19217   */\n      dup2\n        /* \"#utility.yul\":19209:19229   */\n      sub\n        /* \"#utility.yul\":19205:19206   */\n      0x00\n        /* \"#utility.yul\":19194:19203   */\n      dup4\n        /* \"#utility.yul\":19190:19207   */\n      add\n        /* \"#utility.yul\":19183:19230   */\n      mstore\n        /* \"#utility.yul\":19247:19378   */\n      tag_650\n        /* \"#utility.yul\":19373:19377   */\n      dup2\n        /* \"#utility.yul\":19247:19378   */\n      tag_416\n      jump\t// in\n    tag_650:\n        /* \"#utility.yul\":19239:19378   */\n      swap1\n      pop\n        /* \"#utility.yul\":18966:19385   */\n      swap2\n      swap1\n      pop\n      jump\t// out\n        /* \"#utility.yul\":19391:19617   */\n    tag_417:\n        /* \"#utility.yul\":19531:19565   */\n      0x596f7520646f206e6f7420686176652061636365737320746f20746869732066\n        /* \"#utility.yul\":19527:19528   */\n      0x00\n        /* \"#utility.yul\":19519:19525   */\n      dup3\n        /* \"#utility.yul\":19515:19529   */\n      add\n        /* \"#utility.yul\":19508:19566   */\n      mstore\n        /* \"#utility.yul\":19600:19609   */\n      0x756e6374696f6e00000000000000000000000000000000000000000000000000\n        /* \"#utility.yul\":19595:19597   */\n      0x20\n        /* \"#utility.yul\":19587:19593   */\n      dup3\n        /* \"#utility.yul\":19583:19598   */\n      add\n        /* \"#utility.yul\":19576:19610   */\n      mstore\n        /* \"#utility.yul\":19391:19617   */\n      pop\n      jump\t// out\n        /* \"#utility.yul\":19623:19989   */\n    tag_418:\n        /* \"#utility.yul\":19765:19768   */\n      0x00\n        /* \"#utility.yul\":19786:19853   */\n      tag_653\n        /* \"#utility.yul\":19850:19852   */\n      0x27\n        /* \"#utility.yul\":19845:19848   */\n      dup4\n        /* \"#utility.yul\":19786:19853   */\n      tag_403\n      jump\t// in\n    tag_653:\n        /* \"#utility.yul\":19779:19853   */\n      swap2\n      pop\n        /* \"#utility.yul\":19862:19955   */\n      tag_654\n        /* \"#utility.yul\":19951:19954   */\n      dup3\n        /* \"#utility.yul\":19862:19955   */\n      tag_417\n      jump\t// in\n    tag_654:\n        /* \"#utility.yul\":19980:19982   */\n      0x40\n        /* \"#utility.yul\":19975:19978   */\n      dup3\n        /* \"#utility.yul\":19971:19983   */\n      add\n        /* \"#utility.yul\":19964:19983   */\n      swap1\n      pop\n        /* \"#utility.yul\":19623:19989   */\n      swap2\n      swap1\n      pop\n      jump\t// out\n        /* \"#utility.yul\":19995:20414   */\n    tag_159:\n        /* \"#utility.yul\":20161:20165   */\n      0x00\n        /* \"#utility.yul\":20199:20201   */\n      0x20\n        /* \"#utility.yul\":20188:20197   */\n      dup3\n        /* \"#utility.yul\":20184:20202   */\n      add\n        /* \"#utility.yul\":20176:20202   */\n      swap1\n      pop\n        /* \"#utility.yul\":20248:20257   */\n      dup2\n        /* \"#utility.yul\":20242:20246   */\n      dup2\n        /* \"#utility.yul\":20238:20258   */\n      sub\n        /* \"#utility.yul\":20234:20235   */\n      0x00\n        /* \"#utility.yul\":20223:20232   */\n      dup4\n        /* \"#utility.yul\":20219:20236   */\n      add\n        /* \"#utility.yul\":20212:20259   */\n      mstore\n        /* \"#utility.yul\":20276:20407   */\n      tag_656\n        /* \"#utility.yul\":20402:20406   */\n      dup2\n        /* \"#utility.yul\":20276:20407   */\n      tag_418\n      jump\t// in\n    tag_656:\n        /* \"#utility.yul\":20268:20407   */\n      swap1\n      pop\n        /* \"#utility.yul\":19995:20414   */\n      swap2\n      swap1\n      pop\n      jump\t// out\n        /* \"#utility.yul\":20420:20648   */\n    tag_419:\n        /* \"#utility.yul\":20560:20594   */\n      0x54686520656e746572656420706172616d657465727320617265206e6f742061\n        /* \"#utility.yul\":20556:20557   */\n      0x00\n        /* \"#utility.yul\":20548:20554   */\n      dup3\n        /* \"#utility.yul\":20544:20558   */\n      add\n        /* \"#utility.yul\":20537:20595   */\n      mstore\n        /* \"#utility.yul\":20629:20640   */\n      0x636365707461626c650000000000000000000000000000000000000000000000\n        /* \"#utility.yul\":20624:20626   */\n      0x20\n        /* \"#utility.yul\":20616:20622   */\n      dup3\n        /* \"#utility.yul\":20612:20627   */\n      add\n        /* \"#utility.yul\":20605:20641   */\n      mstore\n        /* \"#utility.yul\":20420:20648   */\n      pop\n      jump\t// out\n        /* \"#utility.yul\":20654:21020   */\n    tag_420:\n        /* \"#utility.yul\":20796:20799   */\n      0x00\n        /* \"#utility.yul\":20817:20884   */\n      tag_659\n        /* \"#utility.yul\":20881:20883   */\n      0x29\n        /* \"#utility.yul\":20876:20879   */\n      dup4\n        /* \"#utility.yul\":20817:20884   */\n      tag_403\n      jump\t// in\n    tag_659:\n        /* \"#utility.yul\":20810:20884   */\n      swap2\n      pop\n        /* \"#utility.yul\":20893:20986   */\n      tag_660\n        /* \"#utility.yul\":20982:20985   */\n      dup3\n        /* \"#utility.yul\":20893:20986   */\n      tag_419\n      jump\t// in\n    tag_660:\n        /* \"#utility.yul\":21011:21013   */\n      0x40\n        /* \"#utility.yul\":21006:21009   */\n      dup3\n        /* \"#utility.yul\":21002:21014   */\n      add\n        /* \"#utility.yul\":20995:21014   */\n      swap1\n      pop\n        /* \"#utility.yul\":20654:21020   */\n      swap2\n      swap1\n      pop\n      jump\t// out\n        /* \"#utility.yul\":21026:21445   */\n    tag_163:\n        /* \"#utility.yul\":21192:21196   */\n      0x00\n        /* \"#utility.yul\":21230:21232   */\n      0x20\n        /* \"#utility.yul\":21219:21228   */\n      dup3\n        /* \"#utility.yul\":21215:21233   */\n      add\n        /* \"#utility.yul\":21207:21233   */\n      swap1\n      pop\n        /* \"#utility.yul\":21279:21288   */\n      dup2\n        /* \"#utility.yul\":21273:21277   */\n      dup2\n        /* \"#utility.yul\":21269:21289   */\n      sub\n        /* \"#utility.yul\":21265:21266   */\n      0x00\n        /* \"#utility.yul\":21254:21263   */\n      dup4\n        /* \"#utility.yul\":21250:21267   */\n      add\n        /* \"#utility.yul\":21243:21290   */\n      mstore\n        /* \"#utility.yul\":21307:21438   */\n      tag_662\n        /* \"#utility.yul\":21433:21437   */\n      dup2\n        /* \"#utility.yul\":21307:21438   */\n      tag_420\n      jump\t// in\n    tag_662:\n        /* \"#utility.yul\":21299:21438   */\n      swap1\n      pop\n        /* \"#utility.yul\":21026:21445   */\n      swap2\n      swap1\n      pop\n      jump\t// out\n        /* \"#utility.yul\":21451:21675   */\n    tag_421:\n        /* \"#utility.yul\":21591:21625   */\n      0x596f7520646f206e6f742068617665207065726d697373696f6e20746f207570\n        /* \"#utility.yul\":21587:21588   */\n      0x00\n        /* \"#utility.yul\":21579:21585   */\n      dup3\n        /* \"#utility.yul\":21575:21589   */\n      add\n        /* \"#utility.yul\":21568:21626   */\n      mstore\n        /* \"#utility.yul\":21660:21667   */\n      0x6772616465000000000000000000000000000000000000000000000000000000\n        /* \"#utility.yul\":21655:21657   */\n      0x20\n        /* \"#utility.yul\":21647:21653   */\n      dup3\n        /* \"#utility.yul\":21643:21658   */\n      add\n        /* \"#utility.yul\":21636:21668   */\n      mstore\n        /* \"#utility.yul\":21451:21675   */\n      pop\n      jump\t// out\n        /* \"#utility.yul\":21681:22047   */\n    tag_422:\n        /* \"#utility.yul\":21823:21826   */\n      0x00\n        /* \"#utility.yul\":21844:21911   */\n      tag_665\n        /* \"#utility.yul\":21908:21910   */\n      0x25\n        /* \"#utility.yul\":21903:21906   */\n      dup4\n        /* \"#utility.yul\":21844:21911   */\n      tag_403\n      jump\t// in\n    tag_665:\n        /* \"#utility.yul\":21837:21911   */\n      swap2\n      pop\n        /* \"#utility.yul\":21920:22013   */\n      tag_666\n        /* \"#utility.yul\":22009:22012   */\n      dup3\n        /* \"#utility.yul\":21920:22013   */\n      tag_421\n      jump\t// in\n    tag_666:\n        /* \"#utility.yul\":22038:22040   */\n      0x40\n        /* \"#utility.yul\":22033:22036   */\n      dup3\n        /* \"#utility.yul\":22029:22041   */\n      add\n        /* \"#utility.yul\":22022:22041   */\n      swap1\n      pop\n        /* \"#utility.yul\":21681:22047   */\n      swap2\n      swap1\n      pop\n      jump\t// out\n        /* \"#utility.yul\":22053:22472   */\n    tag_169:\n        /* \"#utility.yul\":22219:22223   */\n      0x00\n        /* \"#utility.yul\":22257:22259   */\n      0x20\n        /* \"#utility.yul\":22246:22255   */\n      dup3\n        /* \"#utility.yul\":22242:22260   */\n      add\n        /* \"#utility.yul\":22234:22260   */\n      swap1\n      pop\n        /* \"#utility.yul\":22306:22315   */\n      dup2\n        /* \"#utility.yul\":22300:22304   */\n      dup2\n        /* \"#utility.yul\":22296:22316   */\n      sub\n        /* \"#utility.yul\":22292:22293   */\n      0x00\n        /* \"#utility.yul\":22281:22290   */\n      dup4\n        /* \"#utility.yul\":22277:22294   */\n      add\n        /* \"#utility.yul\":22270:22317   */\n      mstore\n        /* \"#utility.yul\":22334:22465   */\n      tag_668\n        /* \"#utility.yul\":22460:22464   */\n      dup2\n        /* \"#utility.yul\":22334:22465   */\n      tag_422\n      jump\t// in\n    tag_668:\n        /* \"#utility.yul\":22326:22465   */\n      swap1\n      pop\n        /* \"#utility.yul\":22053:22472   */\n      swap2\n      swap1\n      pop\n      jump\t// out\n        /* \"#utility.yul\":22478:22596   */\n    tag_423:\n        /* \"#utility.yul\":22565:22589   */\n      tag_670\n        /* \"#utility.yul\":22583:22588   */\n      dup2\n        /* \"#utility.yul\":22565:22589   */\n      tag_379\n      jump\t// in\n    tag_670:\n        /* \"#utility.yul\":22560:22563   */\n      dup3\n        /* \"#utility.yul\":22553:22590   */\n      mstore\n        /* \"#utility.yul\":22478:22596   */\n      pop\n      pop\n      jump\t// out\n        /* \"#utility.yul\":22602:23044   */\n    tag_173:\n        /* \"#utility.yul\":22751:22755   */\n      0x00\n        /* \"#utility.yul\":22789:22791   */\n      0x60\n        /* \"#utility.yul\":22778:22787   */\n      dup3\n        /* \"#utility.yul\":22774:22792   */\n      add\n        /* \"#utility.yul\":22766:22792   */\n      swap1\n      pop\n        /* \"#utility.yul\":22802:22873   */\n      tag_672\n        /* \"#utility.yul\":22870:22871   */\n      0x00\n        /* \"#utility.yul\":22859:22868   */\n      dup4\n        /* \"#utility.yul\":22855:22872   */\n      add\n        /* \"#utility.yul\":22846:22852   */\n      dup7\n        /* \"#utility.yul\":22802:22873   */\n      tag_382\n      jump\t// in\n    tag_672:\n        /* \"#utility.yul\":22883:22955   */\n      tag_673\n        /* \"#utility.yul\":22951:22953   */\n      0x20\n        /* \"#utility.yul\":22940:22949   */\n      dup4\n        /* \"#utility.yul\":22936:22954   */\n      add\n        /* \"#utility.yul\":22927:22933   */\n      dup6\n        /* \"#utility.yul\":22883:22955   */\n      tag_382\n      jump\t// in\n    tag_673:\n        /* \"#utility.yul\":22965:23037   */\n      tag_674\n        /* \"#utility.yul\":23033:23035   */\n      0x40\n        /* \"#utility.yul\":23022:23031   */\n      dup4\n        /* \"#utility.yul\":23018:23036   */\n      add\n        /* \"#utility.yul\":23009:23015   */\n      dup5\n        /* \"#utility.yul\":22965:23037   */\n      tag_423\n      jump\t// in\n    tag_674:\n        /* \"#utility.yul\":22602:23044   */\n      swap5\n      swap4\n      pop\n      pop\n      pop\n      pop\n      jump\t// out\n        /* \"#utility.yul\":23050:23296   */\n    tag_424:\n        /* \"#utility.yul\":23190:23224   */\n      0x5468652061646472657373206f6620746865206f776e657220616e6420746865\n        /* \"#utility.yul\":23186:23187   */\n      0x00\n        /* \"#utility.yul\":23178:23184   */\n      dup3\n        /* \"#utility.yul\":23174:23188   */\n      add\n        /* \"#utility.yul\":23167:23225   */\n      mstore\n        /* \"#utility.yul\":23259:23288   */\n      0x206f70657261746f72206d75737420626520646966666572656e740000000000\n        /* \"#utility.yul\":23254:23256   */\n      0x20\n        /* \"#utility.yul\":23246:23252   */\n      dup3\n        /* \"#utility.yul\":23242:23257   */\n      add\n        /* \"#utility.yul\":23235:23289   */\n      mstore\n        /* \"#utility.yul\":23050:23296   */\n      pop\n      jump\t// out\n        /* \"#utility.yul\":23302:23668   */\n    tag_425:\n        /* \"#utility.yul\":23444:23447   */\n      0x00\n        /* \"#utility.yul\":23465:23532   */\n      tag_677\n        /* \"#utility.yul\":23529:23531   */\n      0x3b\n        /* \"#utility.yul\":23524:23527   */\n      dup4\n        /* \"#utility.yul\":23465:23532   */\n      tag_403\n      jump\t// in\n    tag_677:\n        /* \"#utility.yul\":23458:23532   */\n      swap2\n      pop\n        /* \"#utility.yul\":23541:23634   */\n      tag_678\n        /* \"#utility.yul\":23630:23633   */\n      dup3\n        /* \"#utility.yul\":23541:23634   */\n      tag_424\n      jump\t// in\n    tag_678:\n        /* \"#utility.yul\":23659:23661   */\n      0x40\n        /* \"#utility.yul\":23654:23657   */\n      dup3\n        /* \"#utility.yul\":23650:23662   */\n      add\n        /* \"#utility.yul\":23643:23662   */\n      swap1\n      pop\n        /* \"#utility.yul\":23302:23668   */\n      swap2\n      swap1\n      pop\n      jump\t// out\n        /* \"#utility.yul\":23674:24093   */\n    tag_183:\n        /* \"#utility.yul\":23840:23844   */\n      0x00\n        /* \"#utility.yul\":23878:23880   */\n      0x20\n        /* \"#utility.yul\":23867:23876   */\n      dup3\n        /* \"#utility.yul\":23863:23881   */\n      add\n        /* \"#utility.yul\":23855:23881   */\n      swap1\n      pop\n        /* \"#utility.yul\":23927:23936   */\n      dup2\n        /* \"#utility.yul\":23921:23925   */\n      dup2\n        /* \"#utility.yul\":23917:23937   */\n      sub\n        /* \"#utility.yul\":23913:23914   */\n      0x00\n        /* \"#utility.yul\":23902:23911   */\n      dup4\n        /* \"#utility.yul\":23898:23915   */\n      add\n        /* \"#utility.yul\":23891:23938   */\n      mstore\n        /* \"#utility.yul\":23955:24086   */\n      tag_680\n        /* \"#utility.yul\":24081:24085   */\n      dup2\n        /* \"#utility.yul\":23955:24086   */\n      tag_425\n      jump\t// in\n    tag_680:\n        /* \"#utility.yul\":23947:24086   */\n      swap1\n      pop\n        /* \"#utility.yul\":23674:24093   */\n      swap2\n      swap1\n      pop\n      jump\t// out\n        /* \"#utility.yul\":24099:24247   */\n    tag_426:\n        /* \"#utility.yul\":24201:24212   */\n      0x00\n        /* \"#utility.yul\":24238:24241   */\n      dup2\n        /* \"#utility.yul\":24223:24241   */\n      swap1\n      pop\n        /* \"#utility.yul\":24099:24247   */\n      swap3\n      swap2\n      pop\n      pop\n      jump\t// out\n        /* \"#utility.yul\":24253:24643   */\n    tag_427:\n        /* \"#utility.yul\":24359:24362   */\n      0x00\n        /* \"#utility.yul\":24387:24426   */\n      tag_683\n        /* \"#utility.yul\":24420:24425   */\n      dup3\n        /* \"#utility.yul\":24387:24426   */\n      tag_402\n      jump\t// in\n    tag_683:\n        /* \"#utility.yul\":24442:24531   */\n      tag_684\n        /* \"#utility.yul\":24524:24530   */\n      dup2\n        /* \"#utility.yul\":24519:24522   */\n      dup6\n        /* \"#utility.yul\":24442:24531   */\n      tag_426\n      jump\t// in\n    tag_684:\n        /* \"#utility.yul\":24435:24531   */\n      swap4\n      pop\n        /* \"#utility.yul\":24540:24605   */\n      tag_685\n        /* \"#utility.yul\":24598:24604   */\n      dup2\n        /* \"#utility.yul\":24593:24596   */\n      dup6\n        /* \"#utility.yul\":24586:24590   */\n      0x20\n        /* \"#utility.yul\":24579:24584   */\n      dup7\n        /* \"#utility.yul\":24575:24591   */\n      add\n        /* \"#utility.yul\":24540:24605   */\n      tag_404\n      jump\t// in\n    tag_685:\n        /* \"#utility.yul\":24630:24636   */\n      dup1\n        /* \"#utility.yul\":24625:24628   */\n      dup5\n        /* \"#utility.yul\":24621:24637   */\n      add\n        /* \"#utility.yul\":24614:24637   */\n      swap2\n      pop\n        /* \"#utility.yul\":24363:24643   */\n      pop\n        /* \"#utility.yul\":24253:24643   */\n      swap3\n      swap2\n      pop\n      pop\n      jump\t// out\n        /* \"#utility.yul\":24649:25084   */\n    tag_203:\n        /* \"#utility.yul\":24829:24832   */\n      0x00\n        /* \"#utility.yul\":24851:24946   */\n      tag_687\n        /* \"#utility.yul\":24942:24945   */\n      dup3\n        /* \"#utility.yul\":24933:24939   */\n      dup6\n        /* \"#utility.yul\":24851:24946   */\n      tag_427\n      jump\t// in\n    tag_687:\n        /* \"#utility.yul\":24844:24946   */\n      swap2\n      pop\n        /* \"#utility.yul\":24963:25058   */\n      tag_688\n        /* \"#utility.yul\":25054:25057   */\n      dup3\n        /* \"#utility.yul\":25045:25051   */\n      dup5\n        /* \"#utility.yul\":24963:25058   */\n      tag_427\n      jump\t// in\n    tag_688:\n        /* \"#utility.yul\":24956:25058   */\n      swap2\n      pop\n        /* \"#utility.yul\":25075:25078   */\n      dup2\n        /* \"#utility.yul\":25068:25078   */\n      swap1\n      pop\n        /* \"#utility.yul\":24649:25084   */\n      swap4\n      swap3\n      pop\n      pop\n      pop\n      jump\t// out\n        /* \"#utility.yul\":25090:25311   */\n    tag_428:\n        /* \"#utility.yul\":25230:25264   */\n      0x4974206973206e6f7420706f737369626c6520746f207265676973746572206e\n        /* \"#utility.yul\":25226:25227   */\n      0x00\n        /* \"#utility.yul\":25218:25224   */\n      dup3\n        /* \"#utility.yul\":25214:25228   */\n      add\n        /* \"#utility.yul\":25207:25265   */\n      mstore\n        /* \"#utility.yul\":25299:25303   */\n      0x6f77000000000000000000000000000000000000000000000000000000000000\n        /* \"#utility.yul\":25294:25296   */\n      0x20\n        /* \"#utility.yul\":25286:25292   */\n      dup3\n        /* \"#utility.yul\":25282:25297   */\n      add\n        /* \"#utility.yul\":25275:25304   */\n      mstore\n        /* \"#utility.yul\":25090:25311   */\n      pop\n      jump\t// out\n        /* \"#utility.yul\":25317:25683   */\n    tag_429:\n        /* \"#utility.yul\":25459:25462   */\n      0x00\n        /* \"#utility.yul\":25480:25547   */\n      tag_691\n        /* \"#utility.yul\":25544:25546   */\n      0x22\n        /* \"#utility.yul\":25539:25542   */\n      dup4\n        /* \"#utility.yul\":25480:25547   */\n      tag_403\n      jump\t// in\n    tag_691:\n        /* \"#utility.yul\":25473:25547   */\n      swap2\n      pop\n        /* \"#utility.yul\":25556:25649   */\n      tag_692\n        /* \"#utility.yul\":25645:25648   */\n      dup3\n        /* \"#utility.yul\":25556:25649   */\n      tag_428\n      jump\t// in\n    tag_692:\n        /* \"#utility.yul\":25674:25676   */\n      0x40\n        /* \"#utility.yul\":25669:25672   */\n      dup3\n        /* \"#utility.yul\":25665:25677   */\n      add\n        /* \"#utility.yul\":25658:25677   */\n      swap1\n      pop\n        /* \"#utility.yul\":25317:25683   */\n      swap2\n      swap1\n      pop\n      jump\t// out\n        /* \"#utility.yul\":25689:26108   */\n    tag_221:\n        /* \"#utility.yul\":25855:25859   */\n      0x00\n        /* \"#utility.yul\":25893:25895   */\n      0x20\n        /* \"#utility.yul\":25882:25891   */\n      dup3\n        /* \"#utility.yul\":25878:25896   */\n      add\n        /* \"#utility.yul\":25870:25896   */\n      swap1\n      pop\n        /* \"#utility.yul\":25942:25951   */\n      dup2\n        /* \"#utility.yul\":25936:25940   */\n      dup2\n        /* \"#utility.yul\":25932:25952   */\n      sub\n        /* \"#utility.yul\":25928:25929   */\n      0x00\n        /* \"#utility.yul\":25917:25926   */\n      dup4\n        /* \"#utility.yul\":25913:25930   */\n      add\n        /* \"#utility.yul\":25906:25953   */\n      mstore\n        /* \"#utility.yul\":25970:26101   */\n      tag_694\n        /* \"#utility.yul\":26096:26100   */\n      dup2\n        /* \"#utility.yul\":25970:26101   */\n      tag_429\n      jump\t// in\n    tag_694:\n        /* \"#utility.yul\":25962:26101   */\n      swap1\n      pop\n        /* \"#utility.yul\":25689:26108   */\n      swap2\n      swap1\n      pop\n      jump\t// out\n        /* \"#utility.yul\":26114:26410   */\n    tag_430:\n        /* \"#utility.yul\":26254:26288   */\n      0x5468652061646472657373206f66207468652072656769737472616e74206d75\n        /* \"#utility.yul\":26250:26251   */\n      0x00\n        /* \"#utility.yul\":26242:26248   */\n      dup3\n        /* \"#utility.yul\":26238:26252   */\n      add\n        /* \"#utility.yul\":26231:26289   */\n      mstore\n        /* \"#utility.yul\":26323:26357   */\n      0x7374206e6f742062652030206f72207468652061646472657373206f66206120\n        /* \"#utility.yul\":26318:26320   */\n      0x20\n        /* \"#utility.yul\":26310:26316   */\n      dup3\n        /* \"#utility.yul\":26306:26321   */\n      add\n        /* \"#utility.yul\":26299:26358   */\n      mstore\n        /* \"#utility.yul\":26392:26402   */\n      0x636f6e7472616374000000000000000000000000000000000000000000000000\n        /* \"#utility.yul\":26387:26389   */\n      0x40\n        /* \"#utility.yul\":26379:26385   */\n      dup3\n        /* \"#utility.yul\":26375:26390   */\n      add\n        /* \"#utility.yul\":26368:26403   */\n      mstore\n        /* \"#utility.yul\":26114:26410   */\n      pop\n      jump\t// out\n        /* \"#utility.yul\":26416:26782   */\n    tag_431:\n        /* \"#utility.yul\":26558:26561   */\n      0x00\n        /* \"#utility.yul\":26579:26646   */\n      tag_697\n        /* \"#utility.yul\":26643:26645   */\n      0x48\n        /* \"#utility.yul\":26638:26641   */\n      dup4\n        /* \"#utility.yul\":26579:26646   */\n      tag_403\n      jump\t// in\n    tag_697:\n        /* \"#utility.yul\":26572:26646   */\n      swap2\n      pop\n        /* \"#utility.yul\":26655:26748   */\n      tag_698\n        /* \"#utility.yul\":26744:26747   */\n      dup3\n        /* \"#utility.yul\":26655:26748   */\n      tag_430\n      jump\t// in\n    tag_698:\n        /* \"#utility.yul\":26773:26775   */\n      0x60\n        /* \"#utility.yul\":26768:26771   */\n      dup3\n        /* \"#utility.yul\":26764:26776   */\n      add\n        /* \"#utility.yul\":26757:26776   */\n      swap1\n      pop\n        /* \"#utility.yul\":26416:26782   */\n      swap2\n      swap1\n      pop\n      jump\t// out\n        /* \"#utility.yul\":26788:27207   */\n    tag_227:\n        /* \"#utility.yul\":26954:26958   */\n      0x00\n        /* \"#utility.yul\":26992:26994   */\n      0x20\n        /* \"#utility.yul\":26981:26990   */\n      dup3\n        /* \"#utility.yul\":26977:26995   */\n      add\n        /* \"#utility.yul\":26969:26995   */\n      swap1\n      pop\n        /* \"#utility.yul\":27041:27050   */\n      dup2\n        /* \"#utility.yul\":27035:27039   */\n      dup2\n        /* \"#utility.yul\":27031:27051   */\n      sub\n        /* \"#utility.yul\":27027:27028   */\n      0x00\n        /* \"#utility.yul\":27016:27025   */\n      dup4\n        /* \"#utility.yul\":27012:27029   */\n      add\n        /* \"#utility.yul\":27005:27052   */\n      mstore\n        /* \"#utility.yul\":27069:27200   */\n      tag_700\n        /* \"#utility.yul\":27195:27199   */\n      dup2\n        /* \"#utility.yul\":27069:27200   */\n      tag_431\n      jump\t// in\n    tag_700:\n        /* \"#utility.yul\":27061:27200   */\n      swap1\n      pop\n        /* \"#utility.yul\":26788:27207   */\n      swap2\n      swap1\n      pop\n      jump\t// out\n        /* \"#utility.yul\":27213:27449   */\n    tag_432:\n        /* \"#utility.yul\":27353:27387   */\n      0x54686520616d6f756e742073686f756c64206e6f74206265206c657373207468\n        /* \"#utility.yul\":27349:27350   */\n      0x00\n        /* \"#utility.yul\":27341:27347   */\n      dup3\n        /* \"#utility.yul\":27337:27351   */\n      add\n        /* \"#utility.yul\":27330:27388   */\n      mstore\n        /* \"#utility.yul\":27422:27441   */\n      0x616e20746865206d696e74207072696365000000000000000000000000000000\n        /* \"#utility.yul\":27417:27419   */\n      0x20\n        /* \"#utility.yul\":27409:27415   */\n      dup3\n        /* \"#utility.yul\":27405:27420   */\n      add\n        /* \"#utility.yul\":27398:27442   */\n      mstore\n        /* \"#utility.yul\":27213:27449   */\n      pop\n      jump\t// out\n        /* \"#utility.yul\":27455:27821   */\n    tag_433:\n        /* \"#utility.yul\":27597:27600   */\n      0x00\n        /* \"#utility.yul\":27618:27685   */\n      tag_703\n        /* \"#utility.yul\":27682:27684   */\n      0x31\n        /* \"#utility.yul\":27677:27680   */\n      dup4\n        /* \"#utility.yul\":27618:27685   */\n      tag_403\n      jump\t// in\n    tag_703:\n        /* \"#utility.yul\":27611:27685   */\n      swap2\n      pop\n        /* \"#utility.yul\":27694:27787   */\n      tag_704\n        /* \"#utility.yul\":27783:27786   */\n      dup3\n        /* \"#utility.yul\":27694:27787   */\n      tag_432\n      jump\t// in\n    tag_704:\n        /* \"#utility.yul\":27812:27814   */\n      0x40\n        /* \"#utility.yul\":27807:27810   */\n      dup3\n        /* \"#utility.yul\":27803:27815   */\n      add\n        /* \"#utility.yul\":27796:27815   */\n      swap1\n      pop\n        /* \"#utility.yul\":27455:27821   */\n      swap2\n      swap1\n      pop\n      jump\t// out\n        /* \"#utility.yul\":27827:28246   */\n    tag_230:\n        /* \"#utility.yul\":27993:27997   */\n      0x00\n        /* \"#utility.yul\":28031:28033   */\n      0x20\n        /* \"#utility.yul\":28020:28029   */\n      dup3\n        /* \"#utility.yul\":28016:28034   */\n      add\n        /* \"#utility.yul\":28008:28034   */\n      swap1\n      pop\n        /* \"#utility.yul\":28080:28089   */\n      dup2\n        /* \"#utility.yul\":28074:28078   */\n      dup2\n        /* \"#utility.yul\":28070:28090   */\n      sub\n        /* \"#utility.yul\":28066:28067   */\n      0x00\n        /* \"#utility.yul\":28055:28064   */\n      dup4\n        /* \"#utility.yul\":28051:28068   */\n      add\n        /* \"#utility.yul\":28044:28091   */\n      mstore\n        /* \"#utility.yul\":28108:28239   */\n      tag_706\n        /* \"#utility.yul\":28234:28238   */\n      dup2\n        /* \"#utility.yul\":28108:28239   */\n      tag_433\n      jump\t// in\n    tag_706:\n        /* \"#utility.yul\":28100:28239   */\n      swap1\n      pop\n        /* \"#utility.yul\":27827:28246   */\n      swap2\n      swap1\n      pop\n      jump\t// out\n        /* \"#utility.yul\":28252:28399   */\n    tag_434:\n        /* \"#utility.yul\":28353:28364   */\n      0x00\n        /* \"#utility.yul\":28390:28393   */\n      dup2\n        /* \"#utility.yul\":28375:28393   */\n      swap1\n      pop\n        /* \"#utility.yul\":28252:28399   */\n      swap3\n      swap2\n      pop\n      pop\n      jump\t// out\n        /* \"#utility.yul\":28405:28519   */\n    tag_435:\n      pop\n      jump\t// out\n        /* \"#utility.yul\":28525:28923   */\n    tag_436:\n        /* \"#utility.yul\":28684:28687   */\n      0x00\n        /* \"#utility.yul\":28705:28788   */\n      tag_710\n        /* \"#utility.yul\":28786:28787   */\n      0x00\n        /* \"#utility.yul\":28781:28784   */\n      dup4\n        /* \"#utility.yul\":28705:28788   */\n      tag_434\n      jump\t// in\n    tag_710:\n        /* \"#utility.yul\":28698:28788   */\n      swap2\n      pop\n        /* \"#utility.yul\":28797:28890   */\n      tag_711\n        /* \"#utility.yul\":28886:28889   */\n      dup3\n        /* \"#utility.yul\":28797:28890   */\n      tag_435\n      jump\t// in\n    tag_711:\n        /* \"#utility.yul\":28915:28916   */\n      0x00\n        /* \"#utility.yul\":28910:28913   */\n      dup3\n        /* \"#utility.yul\":28906:28917   */\n      add\n        /* \"#utility.yul\":28899:28917   */\n      swap1\n      pop\n        /* \"#utility.yul\":28525:28923   */\n      swap2\n      swap1\n      pop\n      jump\t// out\n        /* \"#utility.yul\":28929:29308   */\n    tag_232:\n        /* \"#utility.yul\":29113:29116   */\n      0x00\n        /* \"#utility.yul\":29135:29282   */\n      tag_713\n        /* \"#utility.yul\":29278:29281   */\n      dup3\n        /* \"#utility.yul\":29135:29282   */\n      tag_436\n      jump\t// in\n    tag_713:\n        /* \"#utility.yul\":29128:29282   */\n      swap2\n      pop\n        /* \"#utility.yul\":29299:29302   */\n      dup2\n        /* \"#utility.yul\":29292:29302   */\n      swap1\n      pop\n        /* \"#utility.yul\":28929:29308   */\n      swap2\n      swap1\n      pop\n      jump\t// out\n        /* \"#utility.yul\":29314:29487   */\n    tag_437:\n        /* \"#utility.yul\":29454:29479   */\n      0x54686520616d6f756e7420776173206e6f742073656e74000000000000000000\n        /* \"#utility.yul\":29450:29451   */\n      0x00\n        /* \"#utility.yul\":29442:29448   */\n      dup3\n        /* \"#utility.yul\":29438:29452   */\n      add\n        /* \"#utility.yul\":29431:29480   */\n      mstore\n        /* \"#utility.yul\":29314:29487   */\n      pop\n      jump\t// out\n        /* \"#utility.yul\":29493:29859   */\n    tag_438:\n        /* \"#utility.yul\":29635:29638   */\n      0x00\n        /* \"#utility.yul\":29656:29723   */\n      tag_716\n        /* \"#utility.yul\":29720:29722   */\n      0x17\n        /* \"#utility.yul\":29715:29718   */\n      dup4\n        /* \"#utility.yul\":29656:29723   */\n      tag_403\n      jump\t// in\n    tag_716:\n        /* \"#utility.yul\":29649:29723   */\n      swap2\n      pop\n        /* \"#utility.yul\":29732:29825   */\n      tag_717\n        /* \"#utility.yul\":29821:29824   */\n      dup3\n        /* \"#utility.yul\":29732:29825   */\n      tag_437\n      jump\t// in\n    tag_717:\n        /* \"#utility.yul\":29850:29852   */\n      0x20\n        /* \"#utility.yul\":29845:29848   */\n      dup3\n        /* \"#utility.yul\":29841:29853   */\n      add\n        /* \"#utility.yul\":29834:29853   */\n      swap1\n      pop\n        /* \"#utility.yul\":29493:29859   */\n      swap2\n      swap1\n      pop\n      jump\t// out\n        /* \"#utility.yul\":29865:30284   */\n    tag_238:\n        /* \"#utility.yul\":30031:30035   */\n      0x00\n        /* \"#utility.yul\":30069:30071   */\n      0x20\n        /* \"#utility.yul\":30058:30067   */\n      dup3\n        /* \"#utility.yul\":30054:30072   */\n      add\n        /* \"#utility.yul\":30046:30072   */\n      swap1\n      pop\n        /* \"#utility.yul\":30118:30127   */\n      dup2\n        /* \"#utility.yul\":30112:30116   */\n      dup2\n        /* \"#utility.yul\":30108:30128   */\n      sub\n        /* \"#utility.yul\":30104:30105   */\n      0x00\n        /* \"#utility.yul\":30093:30102   */\n      dup4\n        /* \"#utility.yul\":30089:30106   */\n      add\n        /* \"#utility.yul\":30082:30129   */\n      mstore\n        /* \"#utility.yul\":30146:30277   */\n      tag_719\n        /* \"#utility.yul\":30272:30276   */\n      dup2\n        /* \"#utility.yul\":30146:30277   */\n      tag_438\n      jump\t// in\n    tag_719:\n        /* \"#utility.yul\":30138:30277   */\n      swap1\n      pop\n        /* \"#utility.yul\":29865:30284   */\n      swap2\n      swap1\n      pop\n      jump\t// out\n        /* \"#utility.yul\":30290:30470   */\n    tag_439:\n        /* \"#utility.yul\":30338:30415   */\n      0x4e487b7100000000000000000000000000000000000000000000000000000000\n        /* \"#utility.yul\":30335:30336   */\n      0x00\n        /* \"#utility.yul\":30328:30416   */\n      mstore\n        /* \"#utility.yul\":30435:30439   */\n      0x11\n        /* \"#utility.yul\":30432:30433   */\n      0x04\n        /* \"#utility.yul\":30425:30440   */\n      mstore\n        /* \"#utility.yul\":30459:30463   */\n      0x24\n        /* \"#utility.yul\":30456:30457   */\n      0x00\n        /* \"#utility.yul\":30449:30464   */\n      revert\n        /* \"#utility.yul\":30476:30647   */\n    tag_240:\n        /* \"#utility.yul\":30514:30517   */\n      0x00\n        /* \"#utility.yul\":30537:30560   */\n      tag_722\n        /* \"#utility.yul\":30554:30559   */\n      dup3\n        /* \"#utility.yul\":30537:30560   */\n      tag_370\n      jump\t// in\n    tag_722:\n        /* \"#utility.yul\":30528:30560   */\n      swap2\n      pop\n        /* \"#utility.yul\":30582:30588   */\n      0xffff\n        /* \"#utility.yul\":30575:30580   */\n      dup3\n        /* \"#utility.yul\":30572:30589   */\n      sub\n        /* \"#utility.yul\":30569:30612   */\n      tag_723\n      jumpi\n        /* \"#utility.yul\":30592:30610   */\n      tag_724\n      tag_439\n      jump\t// in\n    tag_724:\n        /* \"#utility.yul\":30569:30612   */\n    tag_723:\n        /* \"#utility.yul\":30639:30640   */\n      0x01\n        /* \"#utility.yul\":30632:30637   */\n      dup3\n        /* \"#utility.yul\":30628:30641   */\n      add\n        /* \"#utility.yul\":30621:30641   */\n      swap1\n      pop\n        /* \"#utility.yul\":30476:30647   */\n      swap2\n      swap1\n      pop\n      jump\t// out\n        /* \"#utility.yul\":30653:30956   */\n    tag_440:\n        /* \"#utility.yul\":30793:30827   */\n      0x54686520494420656e746572656420697320696e76616c69642e204974206d75\n        /* \"#utility.yul\":30789:30790   */\n      0x00\n        /* \"#utility.yul\":30781:30787   */\n      dup3\n        /* \"#utility.yul\":30777:30791   */\n      add\n        /* \"#utility.yul\":30770:30828   */\n      mstore\n        /* \"#utility.yul\":30862:30896   */\n      0x737420626520696e207468697320696e74657276616c2030203c206964203c3d\n        /* \"#utility.yul\":30857:30859   */\n      0x20\n        /* \"#utility.yul\":30849:30855   */\n      dup3\n        /* \"#utility.yul\":30845:30860   */\n      add\n        /* \"#utility.yul\":30838:30897   */\n      mstore\n        /* \"#utility.yul\":30931:30948   */\n      0x2063757272656e7420746f6b656e730000000000000000000000000000000000\n        /* \"#utility.yul\":30926:30928   */\n      0x40\n        /* \"#utility.yul\":30918:30924   */\n      dup3\n        /* \"#utility.yul\":30914:30929   */\n      add\n        /* \"#utility.yul\":30907:30949   */\n      mstore\n        /* \"#utility.yul\":30653:30956   */\n      pop\n      jump\t// out\n        /* \"#utility.yul\":30962:31328   */\n    tag_441:\n        /* \"#utility.yul\":31104:31107   */\n      0x00\n        /* \"#utility.yul\":31125:31192   */\n      tag_727\n        /* \"#utility.yul\":31189:31191   */\n      0x4f\n        /* \"#utility.yul\":31184:31187   */\n      dup4\n        /* \"#utility.yul\":31125:31192   */\n      tag_403\n      jump\t// in\n    tag_727:\n        /* \"#utility.yul\":31118:31192   */\n      swap2\n      pop\n        /* \"#utility.yul\":31201:31294   */\n      tag_728\n        /* \"#utility.yul\":31290:31293   */\n      dup3\n        /* \"#utility.yul\":31201:31294   */\n      tag_440\n      jump\t// in\n    tag_728:\n        /* \"#utility.yul\":31319:31321   */\n      0x60\n        /* \"#utility.yul\":31314:31317   */\n      dup3\n        /* \"#utility.yul\":31310:31322   */\n      add\n        /* \"#utility.yul\":31303:31322   */\n      swap1\n      pop\n        /* \"#utility.yul\":30962:31328   */\n      swap2\n      swap1\n      pop\n      jump\t// out\n        /* \"#utility.yul\":31334:31753   */\n    tag_249:\n        /* \"#utility.yul\":31500:31504   */\n      0x00\n        /* \"#utility.yul\":31538:31540   */\n      0x20\n        /* \"#utility.yul\":31527:31536   */\n      dup3\n        /* \"#utility.yul\":31523:31541   */\n      add\n        /* \"#utility.yul\":31515:31541   */\n      swap1\n      pop\n        /* \"#utility.yul\":31587:31596   */\n      dup2\n        /* \"#utility.yul\":31581:31585   */\n      dup2\n        /* \"#utility.yul\":31577:31597   */\n      sub\n        /* \"#utility.yul\":31573:31574   */\n      0x00\n        /* \"#utility.yul\":31562:31571   */\n      dup4\n        /* \"#utility.yul\":31558:31575   */\n      add\n        /* \"#utility.yul\":31551:31598   */\n      mstore\n        /* \"#utility.yul\":31615:31746   */\n      tag_730\n        /* \"#utility.yul\":31741:31745   */\n      dup2\n        /* \"#utility.yul\":31615:31746   */\n      tag_441\n      jump\t// in\n    tag_730:\n        /* \"#utility.yul\":31607:31746   */\n      swap1\n      pop\n        /* \"#utility.yul\":31334:31753   */\n      swap2\n      swap1\n      pop\n      jump\t// out\n        /* \"#utility.yul\":31759:31955   */\n    tag_291:\n        /* \"#utility.yul\":31798:31802   */\n      0x00\n        /* \"#utility.yul\":31818:31837   */\n      tag_732\n        /* \"#utility.yul\":31835:31836   */\n      dup3\n        /* \"#utility.yul\":31818:31837   */\n      tag_370\n      jump\t// in\n    tag_732:\n        /* \"#utility.yul\":31813:31837   */\n      swap2\n      pop\n        /* \"#utility.yul\":31851:31870   */\n      tag_733\n        /* \"#utility.yul\":31868:31869   */\n      dup4\n        /* \"#utility.yul\":31851:31870   */\n      tag_370\n      jump\t// in\n    tag_733:\n        /* \"#utility.yul\":31846:31870   */\n      swap3\n      pop\n        /* \"#utility.yul\":31894:31895   */\n      dup3\n        /* \"#utility.yul\":31891:31892   */\n      dup3\n        /* \"#utility.yul\":31887:31896   */\n      sub\n        /* \"#utility.yul\":31879:31896   */\n      swap1\n      pop\n        /* \"#utility.yul\":31918:31924   */\n      0xffff\n        /* \"#utility.yul\":31912:31916   */\n      dup2\n        /* \"#utility.yul\":31909:31925   */\n      gt\n        /* \"#utility.yul\":31906:31948   */\n      iszero\n      tag_734\n      jumpi\n        /* \"#utility.yul\":31928:31946   */\n      tag_735\n      tag_439\n      jump\t// in\n    tag_735:\n        /* \"#utility.yul\":31906:31948   */\n    tag_734:\n        /* \"#utility.yul\":31759:31955   */\n      swap3\n      swap2\n      pop\n      pop\n      jump\t// out\n        /* \"#utility.yul\":31961:32154   */\n    tag_296:\n        /* \"#utility.yul\":32000:32003   */\n      0x00\n        /* \"#utility.yul\":32019:32038   */\n      tag_737\n        /* \"#utility.yul\":32036:32037   */\n      dup3\n        /* \"#utility.yul\":32019:32038   */\n      tag_370\n      jump\t// in\n    tag_737:\n        /* \"#utility.yul\":32014:32038   */\n      swap2\n      pop\n        /* \"#utility.yul\":32052:32071   */\n      tag_738\n        /* \"#utility.yul\":32069:32070   */\n      dup4\n        /* \"#utility.yul\":32052:32071   */\n      tag_370\n      jump\t// in\n    tag_738:\n        /* \"#utility.yul\":32047:32071   */\n      swap3\n      pop\n        /* \"#utility.yul\":32094:32095   */\n      dup3\n        /* \"#utility.yul\":32091:32092   */\n      dup3\n        /* \"#utility.yul\":32087:32096   */\n      add\n        /* \"#utility.yul\":32080:32096   */\n      swap1\n      pop\n        /* \"#utility.yul\":32117:32123   */\n      0xffff\n        /* \"#utility.yul\":32112:32115   */\n      dup2\n        /* \"#utility.yul\":32109:32124   */\n      gt\n        /* \"#utility.yul\":32106:32147   */\n      iszero\n      tag_739\n      jumpi\n        /* \"#utility.yul\":32127:32145   */\n      tag_740\n      tag_439\n      jump\t// in\n    tag_740:\n        /* \"#utility.yul\":32106:32147   */\n    tag_739:\n        /* \"#utility.yul\":31961:32154   */\n      swap3\n      swap2\n      pop\n      pop\n      jump\t// out\n        /* \"#utility.yul\":32160:32796   */\n    tag_311:\n        /* \"#utility.yul\":32353:32357   */\n      0x00\n        /* \"#utility.yul\":32391:32394   */\n      0x80\n        /* \"#utility.yul\":32380:32389   */\n      dup3\n        /* \"#utility.yul\":32376:32395   */\n      add\n        /* \"#utility.yul\":32368:32395   */\n      swap1\n      pop\n        /* \"#utility.yul\":32405:32476   */\n      tag_742\n        /* \"#utility.yul\":32473:32474   */\n      0x00\n        /* \"#utility.yul\":32462:32471   */\n      dup4\n        /* \"#utility.yul\":32458:32475   */\n      add\n        /* \"#utility.yul\":32449:32455   */\n      dup8\n        /* \"#utility.yul\":32405:32476   */\n      tag_382\n      jump\t// in\n    tag_742:\n        /* \"#utility.yul\":32486:32558   */\n      tag_743\n        /* \"#utility.yul\":32554:32556   */\n      0x20\n        /* \"#utility.yul\":32543:32552   */\n      dup4\n        /* \"#utility.yul\":32539:32557   */\n      add\n        /* \"#utility.yul\":32530:32536   */\n      dup7\n        /* \"#utility.yul\":32486:32558   */\n      tag_382\n      jump\t// in\n    tag_743:\n        /* \"#utility.yul\":32568:32638   */\n      tag_744\n        /* \"#utility.yul\":32634:32636   */\n      0x40\n        /* \"#utility.yul\":32623:32632   */\n      dup4\n        /* \"#utility.yul\":32619:32637   */\n      add\n        /* \"#utility.yul\":32610:32616   */\n      dup6\n        /* \"#utility.yul\":32568:32638   */\n      tag_375\n      jump\t// in\n    tag_744:\n        /* \"#utility.yul\":32685:32694   */\n      dup2\n        /* \"#utility.yul\":32679:32683   */\n      dup2\n        /* \"#utility.yul\":32675:32695   */\n      sub\n        /* \"#utility.yul\":32670:32672   */\n      0x60\n        /* \"#utility.yul\":32659:32668   */\n      dup4\n        /* \"#utility.yul\":32655:32673   */\n      add\n        /* \"#utility.yul\":32648:32696   */\n      mstore\n        /* \"#utility.yul\":32713:32789   */\n      tag_745\n        /* \"#utility.yul\":32784:32788   */\n      dup2\n        /* \"#utility.yul\":32775:32781   */\n      dup5\n        /* \"#utility.yul\":32713:32789   */\n      tag_409\n      jump\t// in\n    tag_745:\n        /* \"#utility.yul\":32705:32789   */\n      swap1\n      pop\n        /* \"#utility.yul\":32160:32796   */\n      swap6\n      swap5\n      pop\n      pop\n      pop\n      pop\n      pop\n      jump\t// out\n        /* \"#utility.yul\":32802:32922   */\n    tag_442:\n        /* \"#utility.yul\":32874:32897   */\n      tag_747\n        /* \"#utility.yul\":32891:32896   */\n      dup2\n        /* \"#utility.yul\":32874:32897   */\n      tag_400\n      jump\t// in\n    tag_747:\n        /* \"#utility.yul\":32867:32872   */\n      dup2\n        /* \"#utility.yul\":32864:32898   */\n      eq\n        /* \"#utility.yul\":32854:32916   */\n      tag_748\n      jumpi\n        /* \"#utility.yul\":32912:32913   */\n      0x00\n        /* \"#utility.yul\":32909:32910   */\n      dup1\n        /* \"#utility.yul\":32902:32914   */\n      revert\n        /* \"#utility.yul\":32854:32916   */\n    tag_748:\n        /* \"#utility.yul\":32802:32922   */\n      pop\n      jump\t// out\n        /* \"#utility.yul\":32928:33069   */\n    tag_443:\n        /* \"#utility.yul\":32984:32989   */\n      0x00\n        /* \"#utility.yul\":33015:33021   */\n      dup2\n        /* \"#utility.yul\":33009:33022   */\n      mload\n        /* \"#utility.yul\":33000:33022   */\n      swap1\n      pop\n        /* \"#utility.yul\":33031:33063   */\n      tag_750\n        /* \"#utility.yul\":33057:33062   */\n      dup2\n        /* \"#utility.yul\":33031:33063   */\n      tag_442\n      jump\t// in\n    tag_750:\n        /* \"#utility.yul\":32928:33069   */\n      swap3\n      swap2\n      pop\n      pop\n      jump\t// out\n        /* \"#utility.yul\":33075:33424   */\n    tag_314:\n        /* \"#utility.yul\":33144:33150   */\n      0x00\n        /* \"#utility.yul\":33193:33195   */\n      0x20\n        /* \"#utility.yul\":33181:33190   */\n      dup3\n        /* \"#utility.yul\":33172:33179   */\n      dup5\n        /* \"#utility.yul\":33168:33191   */\n      sub\n        /* \"#utility.yul\":33164:33196   */\n      slt\n        /* \"#utility.yul\":33161:33280   */\n      iszero\n      tag_752\n      jumpi\n        /* \"#utility.yul\":33199:33278   */\n      tag_753\n      tag_364\n      jump\t// in\n    tag_753:\n        /* \"#utility.yul\":33161:33280   */\n    tag_752:\n        /* \"#utility.yul\":33319:33320   */\n      0x00\n        /* \"#utility.yul\":33344:33407   */\n      tag_754\n        /* \"#utility.yul\":33399:33406   */\n      dup5\n        /* \"#utility.yul\":33390:33396   */\n      dup3\n        /* \"#utility.yul\":33379:33388   */\n      dup6\n        /* \"#utility.yul\":33375:33397   */\n      add\n        /* \"#utility.yul\":33344:33407   */\n      tag_443\n      jump\t// in\n    tag_754:\n        /* \"#utility.yul\":33334:33407   */\n      swap2\n      pop\n        /* \"#utility.yul\":33290:33417   */\n      pop\n        /* \"#utility.yul\":33075:33424   */\n      swap3\n      swap2\n      pop\n      pop\n      jump\t// out\n        /* \"#utility.yul\":33430:33610   */\n    tag_339:\n        /* \"#utility.yul\":33478:33555   */\n      0x4e487b7100000000000000000000000000000000000000000000000000000000\n        /* \"#utility.yul\":33475:33476   */\n      0x00\n        /* \"#utility.yul\":33468:33556   */\n      mstore\n        /* \"#utility.yul\":33575:33579   */\n      0x12\n        /* \"#utility.yul\":33572:33573   */\n      0x04\n        /* \"#utility.yul\":33565:33580   */\n      mstore\n        /* \"#utility.yul\":33599:33603   */\n      0x24\n        /* \"#utility.yul\":33596:33597   */\n      0x00\n        /* \"#utility.yul\":33589:33604   */\n      revert\n\n    auxdata: 0xa2646970667358221220f1224790907f2f60a32106f0917e5eb09c30722908869ef7750597da41e7920d64736f6c63430008140033\n}\n",
				"bytecode": {
					"linkReferences": {},
					"object": "608060405234801562000010575f80fd5b50604051620031e8380380620031e88339818101604052810190620000369190620001bd565b815f806101000a81548173ffffffffffffffffffffffffffffffffffffffff021916908360601c0217905550805f60146101000a81548169ffffffffffffffffffff021916908360b01c021790555062000095620000fe60201b60201c565b60015f01600c6101000a81548173ffffffffffffffffffffffffffffffffffffffff021916908373ffffffffffffffffffffffffffffffffffffffff1602179055506001805f0160046101000a81548161ffff021916908361ffff160217905550505062000202565b5f33905090565b5f80fd5b5f7fffffffffffffffffffffffffffffffffffffffff00000000000000000000000082169050919050565b6200013f8162000109565b81146200014a575f80fd5b50565b5f815190506200015d8162000134565b92915050565b5f7fffffffffffffffffffff0000000000000000000000000000000000000000000082169050919050565b620001998162000163565b8114620001a4575f80fd5b50565b5f81519050620001b7816200018e565b92915050565b5f8060408385031215620001d657620001d562000105565b5b5f620001e5858286016200014d565b9250506020620001f885828601620001a7565b9150509250929050565b612fd880620002105f395ff3fe6080604052600436106100fd575f3560e01c806393b871f211610094578063b1cff38011610063578063b1cff38014610311578063dd7d84401461034d578063e560ca4314610389578063e985e9c5146103b1578063ecadbc04146103ed576100fd565b806393b871f21461025b57806395d89b4114610297578063a22cb465146102c1578063b145ae31146102e9576100fd565b80636e1514f1116100d05780636e1514f11461019157806370a08231146101bb578063770fce53146101f757806382a7cf1e1461021f576100fd565b806306fdde0314610101578063073944011461012b5780631249c58b146101535780634ec3dcfe14610169575b5f80fd5b34801561010c575f80fd5b5061011561040b565b6040516101229190611e2b565b60405180910390f35b348015610136575f80fd5b50610151600480360381019061014c9190611ee6565b61041f565b005b34801561015e575f80fd5b5061016761043e565b005b348015610174575f80fd5b5061018f600480360381019061018a9190611ee6565b610440565b005b34801561019c575f80fd5b506101a5610699565b6040516101b29190611f4e565b60405180910390f35b3480156101c6575f80fd5b506101e160048036038101906101dc9190611f67565b61069d565b6040516101ee9190611fa1565b60405180910390f35b348015610202575f80fd5b5061021d60048036038101906102189190612028565b61077e565b005b34801561022a575f80fd5b506102456004803603810190610240919061209f565b610a21565b60405161025291906120d9565b60405180910390f35b348015610266575f80fd5b50610281600480360381019061027c919061209f565b610a32565b60405161028e91906120d9565b60405180910390f35b3480156102a2575f80fd5b506102ab610a7e565b6040516102b8919061212c565b60405180910390f35b3480156102cc575f80fd5b506102e760048036038101906102e2919061217a565b610a93565b005b3480156102f4575f80fd5b5061030f600480360381019061030a91906122f4565b610c7f565b005b34801561031c575f80fd5b50610337600480360381019061033291906123d1565b610c9c565b604051610344919061248f565b60405180910390f35b348015610358575f80fd5b50610373600480360381019061036e919061209f565b610ca6565b6040516103809190612522565b60405180910390f35b348015610394575f80fd5b506103af60048036038101906103aa9190612542565b610d10565b005b3480156103bc575f80fd5b506103d760048036038101906103d29190612580565b610e34565b6040516103e491906125cd565b60405180910390f35b6103f5610ec3565b6040516104029190612638565b60405180910390f35b5f805f9054906101000a900460601b905090565b61043983838360405180602001604052805f815250610c7f565b505050565b565b5f73ffffffffffffffffffffffffffffffffffffffff168273ffffffffffffffffffffffffffffffffffffffff16036104b0575f6040517f64a0ae920000000000000000000000000000000000000000000000000000000081526004016104a791906120d9565b60405180910390fd5b5f6104ba826111c5565b90506109668261ffff166104b181106104d6576104d5612658565b5b602091828204019190069054906101000a900460ff161561052c576040517f08c379a0000000000000000000000000000000000000000000000000000000008152600401610523906126f5565b60405180910390fd5b8073ffffffffffffffffffffffffffffffffffffffff1661054b611274565b73ffffffffffffffffffffffffffffffffffffffff16148061057a575061057981610574611274565b610e34565b5b806105bf5750610588611274565b73ffffffffffffffffffffffffffffffffffffffff166105a783610a32565b73ffffffffffffffffffffffffffffffffffffffff16145b610609576105cb611274565b826040517f177e802f00000000000000000000000000000000000000000000000000000000815260040161060092919061274c565b60405180910390fd5b8373ffffffffffffffffffffffffffffffffffffffff168173ffffffffffffffffffffffffffffffffffffffff161461067d578382826040517f64283d7b00000000000000000000000000000000000000000000000000000000815260040161067493929190612773565b60405180910390fd5b6106885f838361127b565b610693838383611337565b50505050565b5f90565b5f8073ffffffffffffffffffffffffffffffffffffffff168273ffffffffffffffffffffffffffffffffffffffff160361070c576040517f08c379a0000000000000000000000000000000000000000000000000000000008152600401610703906127f2565b60405180910390fd5b61098c5f8373ffffffffffffffffffffffffffffffffffffffff1673ffffffffffffffffffffffffffffffffffffffff1681526020019081526020015f205f6104b1811061075d5761075c612658565b5b601091828204019190066002029054906101000a900461ffff169050919050565b60015f01600c9054906101000a900473ffffffffffffffffffffffffffffffffffffffff1673ffffffffffffffffffffffffffffffffffffffff166107c1611274565b73ffffffffffffffffffffffffffffffffffffffff1614610817576040517f08c379a000000000000000000000000000000000000000000000000000000000815260040161080e90612880565b60405180910390fd5b60015f0160049054906101000a900461ffff1661ffff168561ffff161180156108485750428465ffffffffffff1610155b610887576040517f08c379a000000000000000000000000000000000000000000000000000000000815260040161087e9061290e565b60405180910390fd5b6103e88561ffff1611156108fd575f6104b08661ffff161080156108b157506108ae610699565b81145b6108f0576040517f08c379a00000000000000000000000000000000000000000000000000000000081526004016108e79061299c565b60405180910390fd5b5f6108fa81611a0b565b50505b8460015f015f6101000a81548161ffff021916908361ffff1602179055508360015f0160066101000a81548165ffffffffffff021916908365ffffffffffff1602179055508260015f01600c6101000a81548173ffffffffffffffffffffffffffffffffffffffff021916908373ffffffffffffffffffffffffffffffffffffffff16021790555081600180015f6101000a81548173ffffffffffffffffffffffffffffffffffffffff021916908373ffffffffffffffffffffffffffffffffffffffff160217905550806001600201819055508365ffffffffffff168561ffff167f1c8a976c18e0a217a266cdd36a59140d8212f937433190cc4faecdd8329f8e1f858585604051610a12939291906129c9565b60405180910390a35050505050565b5f610a2b826111c5565b9050919050565b5f610a3c826111c5565b5061098d5f8361ffff1661ffff1681526020019081526020015f205f9054906101000a900473ffffffffffffffffffffffffffffffffffffffff169050919050565b5f8060149054906101000a900460b01b905090565b8173ffffffffffffffffffffffffffffffffffffffff16610ab2611274565b73ffffffffffffffffffffffffffffffffffffffff1603610b08576040517f08c379a0000000000000000000000000000000000000000000000000000000008152600401610aff90612a6e565b60405180910390fd5b5f73ffffffffffffffffffffffffffffffffffffffff168273ffffffffffffffffffffffffffffffffffffffff1603610b7857816040517f5b08ba18000000000000000000000000000000000000000000000000000000008152600401610b6f91906120d9565b60405180910390fd5b8061098e5f610b85611274565b73ffffffffffffffffffffffffffffffffffffffff1673ffffffffffffffffffffffffffffffffffffffff1681526020019081526020015f205f8473ffffffffffffffffffffffffffffffffffffffff1673ffffffffffffffffffffffffffffffffffffffff1681526020019081526020015f205f6101000a81548160ff0219169083151502179055508173ffffffffffffffffffffffffffffffffffffffff16610c2e611274565b73ffffffffffffffffffffffffffffffffffffffff167f17307eab39ab6107e8899845ad3d59bd9653f200f220920489ca2b5937696c3183604051610c7391906125cd565b60405180910390a35050565b610c8a848484610440565b610c9684848484611a0e565b50505050565b5f95945050505050565b6060610cb1826111c5565b505f610cbb611bc0565b90505f815111610cd95760405180602001604052805f815250610d08565b80610ce78461ffff16611bd6565b604051602001610cf8929190612ac6565b6040516020818303038152906040525b915050919050565b5f610d1a826111c5565b90508273ffffffffffffffffffffffffffffffffffffffff168173ffffffffffffffffffffffffffffffffffffffff1603610d8a576040517f08c379a0000000000000000000000000000000000000000000000000000000008152600401610d8190612a6e565b60405180910390fd5b610d92611274565b73ffffffffffffffffffffffffffffffffffffffff168173ffffffffffffffffffffffffffffffffffffffff1614158015610ddb5750610dd981610dd4611274565b610e34565b155b15610e2457610de8611274565b6040517fa9fbf51f000000000000000000000000000000000000000000000000000000008152600401610e1b91906120d9565b60405180910390fd5b610e2f83838361127b565b505050565b5f61098e5f8473ffffffffffffffffffffffffffffffffffffffff1673ffffffffffffffffffffffffffffffffffffffff1681526020019081526020015f205f8373ffffffffffffffffffffffffffffffffffffffff1673ffffffffffffffffffffffffffffffffffffffff1681526020019081526020015f205f9054906101000a900460ff16905092915050565b606060015f015f9054906101000a900461ffff1661ffff1660015f0160049054906101000a900461ffff1661ffff1611158015610f1e57504260015f0160069054906101000a900465ffffffffffff1665ffffffffffff1610155b610f5d576040517f08c379a0000000000000000000000000000000000000000000000000000000008152600401610f5490612b59565b60405180910390fd5b5f73ffffffffffffffffffffffffffffffffffffffff16610f7c611274565b73ffffffffffffffffffffffffffffffffffffffff1614158015610fbd57505f610fa4611274565b73ffffffffffffffffffffffffffffffffffffffff163b145b610ffc576040517f08c379a0000000000000000000000000000000000000000000000000000000008152600401610ff390612c0d565b60405180910390fd5b600160020154341015611044576040517f08c379a000000000000000000000000000000000000000000000000000000000815260040161103b90612c9b565b60405180910390fd5b5f80600180015f9054906101000a900473ffffffffffffffffffffffffffffffffffffffff1673ffffffffffffffffffffffffffffffffffffffff163460405161108d90612ce6565b5f6040518083038185875af1925050503d805f81146110c7576040519150601f19603f3d011682016040523d82523d5f602084013e6110cc565b606091505b509150915081611111576040517f08c379a000000000000000000000000000000000000000000000000000000000815260040161110890612d44565b60405180910390fd5b60015f01600481819054906101000a900461ffff1661112f90612d8f565b91906101000a81548161ffff021916908361ffff160217905550611151611274565b600160030160015f0160049054906101000a900461ffff1661ffff166104b1811061117f5761117e612658565b5b015f6101000a81548173ffffffffffffffffffffffffffffffffffffffff021916908373ffffffffffffffffffffffffffffffffffffffff160217905550809250505090565b5f8161ffff165f1080156111f3575060015f0160029054906101000a900461ffff1661ffff168261ffff1611155b611232576040517f08c379a000000000000000000000000000000000000000000000000000000000815260040161122990612e4e565b60405180910390fd5b6104b58261ffff166104b1811061124c5761124b612658565b5b015f9054906101000a900473ffffffffffffffffffffffffffffffffffffffff169050919050565b5f33905090565b8261098d5f8461ffff1661ffff1681526020019081526020015f205f6101000a81548173ffffffffffffffffffffffffffffffffffffffff021916908373ffffffffffffffffffffffffffffffffffffffff1602179055508161ffff168373ffffffffffffffffffffffffffffffffffffffff168273ffffffffffffffffffffffffffffffffffffffff167f0a9d294fd4bd42bb30e96cba2b478d149a783fba3c729b1e5c42bec89d95b85a60405160405180910390a4505050565b5f61098c5f8373ffffffffffffffffffffffffffffffffffffffff1673ffffffffffffffffffffffffffffffffffffffff1681526020019081526020015f205f6104b1811061138957611388612658565b5b601091828204019190066002029054906101000a900461ffff1690505f73ffffffffffffffffffffffffffffffffffffffff168273ffffffffffffffffffffffffffffffffffffffff1614611571575f600190505b8161ffff168161ffff161161156b578361ffff1661098c5f8573ffffffffffffffffffffffffffffffffffffffff1673ffffffffffffffffffffffffffffffffffffffff1681526020019081526020015f208261ffff166104b1811061144757611446612658565b5b601091828204019190066002029054906101000a900461ffff1661ffff16036115585761098c5f8473ffffffffffffffffffffffffffffffffffffffff1673ffffffffffffffffffffffffffffffffffffffff1681526020019081526020015f208261ffff166104b181106114bf576114be612658565b5b601091828204019190066002029054906101000a900461ffff1661098c5f8573ffffffffffffffffffffffffffffffffffffffff1673ffffffffffffffffffffffffffffffffffffffff1681526020019081526020015f208261ffff166104b1811061152e5761152d612658565b5b601091828204019190066002026101000a81548161ffff021916908361ffff16021790555061156b565b808061156390612d8f565b9150506113de565b506116d1565b5f83905061098c5f8473ffffffffffffffffffffffffffffffffffffffff1673ffffffffffffffffffffffffffffffffffffffff1681526020019081526020015f208161ffff166104b181106115ca576115c9612658565b5b601091828204019190066002029054906101000a900461ffff16935061098c5f8473ffffffffffffffffffffffffffffffffffffffff1673ffffffffffffffffffffffffffffffffffffffff1681526020019081526020015f208261ffff166104b1811061163b5761163a612658565b5b601091828204019190066002029054906101000a900461ffff1661098c5f8573ffffffffffffffffffffffffffffffffffffffff1673ffffffffffffffffffffffffffffffffffffffff1681526020019081526020015f208261ffff166104b181106116aa576116a9612658565b5b601091828204019190066002026101000a81548161ffff021916908361ffff160217905550505b5f61098c5f8473ffffffffffffffffffffffffffffffffffffffff1673ffffffffffffffffffffffffffffffffffffffff1681526020019081526020015f208261ffff166104b1811061172757611726612658565b5b601091828204019190066002026101000a81548161ffff021916908361ffff160217905550600161098c5f8473ffffffffffffffffffffffffffffffffffffffff1673ffffffffffffffffffffffffffffffffffffffff1681526020019081526020015f205f6104b1811061179f5761179e612658565b5b601091828204019190066002028282829054906101000a900461ffff166117c69190612e6c565b92506101000a81548161ffff021916908361ffff1602179055505f600161098c5f8773ffffffffffffffffffffffffffffffffffffffff1673ffffffffffffffffffffffffffffffffffffffff1681526020019081526020015f205f6104b1811061183457611833612658565b5b601091828204019190066002029054906101000a900461ffff166118589190612ea1565b90508361098c5f8773ffffffffffffffffffffffffffffffffffffffff1673ffffffffffffffffffffffffffffffffffffffff1681526020019081526020015f208261ffff166104b181106118b0576118af612658565b5b601091828204019190066002026101000a81548161ffff021916908361ffff1602179055508061098c5f8773ffffffffffffffffffffffffffffffffffffffff1673ffffffffffffffffffffffffffffffffffffffff1681526020019081526020015f205f6104b1811061192757611926612658565b5b601091828204019190066002026101000a81548161ffff021916908361ffff160217905550846104b58561ffff166104b1811061196757611966612658565b5b015f6101000a81548173ffffffffffffffffffffffffffffffffffffffff021916908373ffffffffffffffffffffffffffffffffffffffff1602179055508361ffff168573ffffffffffffffffffffffffffffffffffffffff168473ffffffffffffffffffffffffffffffffffffffff167f89896edbd223c9360ce42ddfed7522a2bffb20c056e4c42d42370cb493b6567660405160405180910390a45050505050565b50565b5f8373ffffffffffffffffffffffffffffffffffffffff163b1115611bba578273ffffffffffffffffffffffffffffffffffffffff1663b1cff380611a51611274565b8685856040518563ffffffff1660e01b8152600401611a739493929190612ed6565b6020604051808303815f875af1925050508015611aae57506040513d601f19601f82011682018060405250810190611aab9190612f4a565b60015b611b2f573d805f8114611adc576040519150601f19603f3d011682016040523d82523d5f602084013e611ae1565b606091505b505f815103611b2757836040517f64a0ae92000000000000000000000000000000000000000000000000000000008152600401611b1e91906120d9565b60405180910390fd5b805181602001fd5b63b1cff38060e01b7bffffffffffffffffffffffffffffffffffffffffffffffffffffffff1916817bffffffffffffffffffffffffffffffffffffffffffffffffffffffff191614611bb857836040517f64a0ae92000000000000000000000000000000000000000000000000000000008152600401611baf91906120d9565b60405180910390fd5b505b50505050565b606060405180602001604052805f815250905090565b60605f6001611be484611ca0565b0190505f8167ffffffffffffffff811115611c0257611c016121d0565b5b6040519080825280601f01601f191660200182016040528015611c345781602001600182028036833780820191505090505b5090505f82602001820190505b600115611c95578080600190039150507f3031323334353637383961626364656600000000000000000000000000000000600a86061a8153600a8581611c8a57611c89612f75565b5b0494505f8503611c41575b819350505050919050565b5f805f90507a184f03e93ff9f4daa797ed6e38ed64bf6a1f0100000000000000008310611cfc577a184f03e93ff9f4daa797ed6e38ed64bf6a1f0100000000000000008381611cf257611cf1612f75565b5b0492506040810190505b6d04ee2d6d415b85acef81000000008310611d39576d04ee2d6d415b85acef81000000008381611d2f57611d2e612f75565b5b0492506020810190505b662386f26fc100008310611d6857662386f26fc100008381611d5e57611d5d612f75565b5b0492506010810190505b6305f5e1008310611d91576305f5e1008381611d8757611d86612f75565b5b0492506008810190505b6127108310611db6576127108381611dac57611dab612f75565b5b0492506004810190505b60648310611dd95760648381611dcf57611dce612f75565b5b0492506002810190505b600a8310611de8576001810190505b80915050919050565b5f7fffffffffffffffffffffffffffffffffffffffff00000000000000000000000082169050919050565b611e2581611df1565b82525050565b5f602082019050611e3e5f830184611e1c565b92915050565b5f604051905090565b5f80fd5b5f80fd5b5f73ffffffffffffffffffffffffffffffffffffffff82169050919050565b5f611e7e82611e55565b9050919050565b611e8e81611e74565b8114611e98575f80fd5b50565b5f81359050611ea981611e85565b92915050565b5f61ffff82169050919050565b611ec581611eaf565b8114611ecf575f80fd5b50565b5f81359050611ee081611ebc565b92915050565b5f805f60608486031215611efd57611efc611e4d565b5b5f611f0a86828701611e9b565b9350506020611f1b86828701611e9b565b9250506040611f2c86828701611ed2565b9150509250925092565b5f819050919050565b611f4881611f36565b82525050565b5f602082019050611f615f830184611f3f565b92915050565b5f60208284031215611f7c57611f7b611e4d565b5b5f611f8984828501611e9b565b91505092915050565b611f9b81611eaf565b82525050565b5f602082019050611fb45f830184611f92565b92915050565b5f65ffffffffffff82169050919050565b611fd481611fba565b8114611fde575f80fd5b50565b5f81359050611fef81611fcb565b92915050565b5f819050919050565b61200781611ff5565b8114612011575f80fd5b50565b5f8135905061202281611ffe565b92915050565b5f805f805f60a0868803121561204157612040611e4d565b5b5f61204e88828901611ed2565b955050602061205f88828901611fe1565b945050604061207088828901611e9b565b935050606061208188828901611e9b565b925050608061209288828901612014565b9150509295509295909350565b5f602082840312156120b4576120b3611e4d565b5b5f6120c184828501611ed2565b91505092915050565b6120d381611e74565b82525050565b5f6020820190506120ec5f8301846120ca565b92915050565b5f7fffffffffffffffffffff0000000000000000000000000000000000000000000082169050919050565b612126816120f2565b82525050565b5f60208201905061213f5f83018461211d565b92915050565b5f8115159050919050565b61215981612145565b8114612163575f80fd5b50565b5f8135905061217481612150565b92915050565b5f80604083850312156121905761218f611e4d565b5b5f61219d85828601611e9b565b92505060206121ae85828601612166565b9150509250929050565b5f80fd5b5f80fd5b5f601f19601f8301169050919050565b7f4e487b71000000000000000000000000000000000000000000000000000000005f52604160045260245ffd5b612206826121c0565b810181811067ffffffffffffffff82111715612225576122246121d0565b5b80604052505050565b5f612237611e44565b905061224382826121fd565b919050565b5f67ffffffffffffffff821115612262576122616121d0565b5b61226b826121c0565b9050602081019050919050565b828183375f83830152505050565b5f61229861229384612248565b61222e565b9050828152602081018484840111156122b4576122b36121bc565b5b6122bf848285612278565b509392505050565b5f82601f8301126122db576122da6121b8565b5b81356122eb848260208601612286565b91505092915050565b5f805f806080858703121561230c5761230b611e4d565b5b5f61231987828801611e9b565b945050602061232a87828801611e9b565b935050604061233b87828801611ed2565b925050606085013567ffffffffffffffff81111561235c5761235b611e51565b5b612368878288016122c7565b91505092959194509250565b5f80fd5b5f80fd5b5f8083601f840112612391576123906121b8565b5b8235905067ffffffffffffffff8111156123ae576123ad612374565b5b6020830191508360018202830111156123ca576123c9612378565b5b9250929050565b5f805f805f608086880312156123ea576123e9611e4d565b5b5f6123f788828901611e9b565b955050602061240888828901611e9b565b945050604061241988828901611ed2565b935050606086013567ffffffffffffffff81111561243a57612439611e51565b5b6124468882890161237c565b92509250509295509295909350565b5f7fffffffff0000000000000000000000000000000000000000000000000000000082169050919050565b61248981612455565b82525050565b5f6020820190506124a25f830184612480565b92915050565b5f81519050919050565b5f82825260208201905092915050565b5f5b838110156124df5780820151818401526020810190506124c4565b5f8484015250505050565b5f6124f4826124a8565b6124fe81856124b2565b935061250e8185602086016124c2565b612517816121c0565b840191505092915050565b5f6020820190508181035f83015261253a81846124ea565b905092915050565b5f806040838503121561255857612557611e4d565b5b5f61256585828601611e9b565b925050602061257685828601611ed2565b9150509250929050565b5f806040838503121561259657612595611e4d565b5b5f6125a385828601611e9b565b92505060206125b485828601611e9b565b9150509250929050565b6125c781612145565b82525050565b5f6020820190506125e05f8301846125be565b92915050565b5f81519050919050565b5f82825260208201905092915050565b5f61260a826125e6565b61261481856125f0565b93506126248185602086016124c2565b61262d816121c0565b840191505092915050565b5f6020820190508181035f8301526126508184612600565b905092915050565b7f4e487b71000000000000000000000000000000000000000000000000000000005f52603260045260245ffd5b7f546865207472616e73666572206f66207468697320746f6b656e2069732063755f8201527f7272656e746c792062616e6e6564000000000000000000000000000000000000602082015250565b5f6126df602e836124b2565b91506126ea82612685565b604082019050919050565b5f6020820190508181035f83015261270c816126d3565b9050919050565b5f819050919050565b5f61273661273161272c84611eaf565b612713565b611ff5565b9050919050565b6127468161271c565b82525050565b5f60408201905061275f5f8301856120ca565b61276c602083018461273d565b9392505050565b5f6060820190506127865f8301866120ca565b612793602083018561273d565b6127a060408301846120ca565b949350505050565b7f54686520696e70757420616464726573732063616e6e6f74206265207a65726f5f82015250565b5f6127dc6020836124b2565b91506127e7826127a8565b602082019050919050565b5f6020820190508181035f830152612809816127d0565b9050919050565b7f596f7520646f206e6f7420686176652061636365737320746f207468697320665f8201527f756e6374696f6e00000000000000000000000000000000000000000000000000602082015250565b5f61286a6027836124b2565b915061287582612810565b604082019050919050565b5f6020820190508181035f8301526128978161285e565b9050919050565b7f54686520656e746572656420706172616d657465727320617265206e6f7420615f8201527f636365707461626c650000000000000000000000000000000000000000000000602082015250565b5f6128f86029836124b2565b91506129038261289e565b604082019050919050565b5f6020820190508181035f830152612925816128ec565b9050919050565b7f596f7520646f206e6f742068617665207065726d697373696f6e20746f2075705f8201527f6772616465000000000000000000000000000000000000000000000000000000602082015250565b5f6129866025836124b2565b91506129918261292c565b604082019050919050565b5f6020820190508181035f8301526129b38161297a565b9050919050565b6129c381611ff5565b82525050565b5f6060820190506129dc5f8301866120ca565b6129e960208301856120ca565b6129f660408301846129ba565b949350505050565b7f5468652061646472657373206f6620746865206f776e657220616e64207468655f8201527f206f70657261746f72206d75737420626520646966666572656e740000000000602082015250565b5f612a58603b836124b2565b9150612a63826129fe565b604082019050919050565b5f6020820190508181035f830152612a8581612a4c565b9050919050565b5f81905092915050565b5f612aa0826124a8565b612aaa8185612a8c565b9350612aba8185602086016124c2565b80840191505092915050565b5f612ad18285612a96565b9150612add8284612a96565b91508190509392505050565b7f4974206973206e6f7420706f737369626c6520746f207265676973746572206e5f8201527f6f77000000000000000000000000000000000000000000000000000000000000602082015250565b5f612b436022836124b2565b9150612b4e82612ae9565b604082019050919050565b5f6020820190508181035f830152612b7081612b37565b9050919050565b7f5468652061646472657373206f66207468652072656769737472616e74206d755f8201527f7374206e6f742062652030206f72207468652061646472657373206f6620612060208201527f636f6e7472616374000000000000000000000000000000000000000000000000604082015250565b5f612bf76048836124b2565b9150612c0282612b77565b606082019050919050565b5f6020820190508181035f830152612c2481612beb565b9050919050565b7f54686520616d6f756e742073686f756c64206e6f74206265206c6573732074685f8201527f616e20746865206d696e74207072696365000000000000000000000000000000602082015250565b5f612c856031836124b2565b9150612c9082612c2b565b604082019050919050565b5f6020820190508181035f830152612cb281612c79565b9050919050565b5f81905092915050565b50565b5f612cd15f83612cb9565b9150612cdc82612cc3565b5f82019050919050565b5f612cf082612cc6565b9150819050919050565b7f54686520616d6f756e7420776173206e6f742073656e740000000000000000005f82015250565b5f612d2e6017836124b2565b9150612d3982612cfa565b602082019050919050565b5f6020820190508181035f830152612d5b81612d22565b9050919050565b7f4e487b71000000000000000000000000000000000000000000000000000000005f52601160045260245ffd5b5f612d9982611eaf565b915061ffff8203612dad57612dac612d62565b5b600182019050919050565b7f54686520494420656e746572656420697320696e76616c69642e204974206d755f8201527f737420626520696e207468697320696e74657276616c2030203c206964203c3d60208201527f2063757272656e7420746f6b656e730000000000000000000000000000000000604082015250565b5f612e38604f836124b2565b9150612e4382612db8565b606082019050919050565b5f6020820190508181035f830152612e6581612e2c565b9050919050565b5f612e7682611eaf565b9150612e8183611eaf565b9250828203905061ffff811115612e9b57612e9a612d62565b5b92915050565b5f612eab82611eaf565b9150612eb683611eaf565b9250828201905061ffff811115612ed057612ecf612d62565b5b92915050565b5f608082019050612ee95f8301876120ca565b612ef660208301866120ca565b612f036040830185611f92565b8181036060830152612f158184612600565b905095945050505050565b612f2981612455565b8114612f33575f80fd5b50565b5f81519050612f4481612f20565b92915050565b5f60208284031215612f5f57612f5e611e4d565b5b5f612f6c84828501612f36565b91505092915050565b7f4e487b71000000000000000000000000000000000000000000000000000000005f52601260045260245ffdfea2646970667358221220f1224790907f2f60a32106f0917e5eb09c30722908869ef7750597da41e7920d64736f6c63430008140033",
					"opcodes": "PUSH1 0x80 PUSH1 0x40 MSTORE CALLVALUE DUP1 ISZERO PUSH3 0x10 JUMPI PUSH0 DUP1 REVERT JUMPDEST POP PUSH1 0x40 MLOAD PUSH3 0x31E8 CODESIZE SUB DUP1 PUSH3 0x31E8 DUP4 CODECOPY DUP2 DUP2 ADD PUSH1 0x40 MSTORE DUP2 ADD SWAP1 PUSH3 0x36 SWAP2 SWAP1 PUSH3 0x1BD JUMP JUMPDEST DUP2 PUSH0 DUP1 PUSH2 0x100 EXP DUP2 SLOAD DUP2 PUSH20 0xFFFFFFFFFFFFFFFFFFFFFFFFFFFFFFFFFFFFFFFF MUL NOT AND SWAP1 DUP4 PUSH1 0x60 SHR MUL OR SWAP1 SSTORE POP DUP1 PUSH0 PUSH1 0x14 PUSH2 0x100 EXP DUP2 SLOAD DUP2 PUSH10 0xFFFFFFFFFFFFFFFFFFFF MUL NOT AND SWAP1 DUP4 PUSH1 0xB0 SHR MUL OR SWAP1 SSTORE POP PUSH3 0x95 PUSH3 0xFE PUSH1 0x20 SHL PUSH1 0x20 SHR JUMP JUMPDEST PUSH1 0x1 PUSH0 ADD PUSH1 0xC PUSH2 0x100 EXP DUP2 SLOAD DUP2 PUSH20 0xFFFFFFFFFFFFFFFFFFFFFFFFFFFFFFFFFFFFFFFF MUL NOT AND SWAP1 DUP4 PUSH20 0xFFFFFFFFFFFFFFFFFFFFFFFFFFFFFFFFFFFFFFFF AND MUL OR SWAP1 SSTORE POP PUSH1 0x1 DUP1 PUSH0 ADD PUSH1 0x4 PUSH2 0x100 EXP DUP2 SLOAD DUP2 PUSH2 0xFFFF MUL NOT AND SWAP1 DUP4 PUSH2 0xFFFF AND MUL OR SWAP1 SSTORE POP POP POP PUSH3 0x202 JUMP JUMPDEST PUSH0 CALLER SWAP1 POP SWAP1 JUMP JUMPDEST PUSH0 DUP1 REVERT JUMPDEST PUSH0 PUSH32 0xFFFFFFFFFFFFFFFFFFFFFFFFFFFFFFFFFFFFFFFF000000000000000000000000 DUP3 AND SWAP1 POP SWAP2 SWAP1 POP JUMP JUMPDEST PUSH3 0x13F DUP2 PUSH3 0x109 JUMP JUMPDEST DUP2 EQ PUSH3 0x14A JUMPI PUSH0 DUP1 REVERT JUMPDEST POP JUMP JUMPDEST PUSH0 DUP2 MLOAD SWAP1 POP PUSH3 0x15D DUP2 PUSH3 0x134 JUMP JUMPDEST SWAP3 SWAP2 POP POP JUMP JUMPDEST PUSH0 PUSH32 0xFFFFFFFFFFFFFFFFFFFF00000000000000000000000000000000000000000000 DUP3 AND SWAP1 POP SWAP2 SWAP1 POP JUMP JUMPDEST PUSH3 0x199 DUP2 PUSH3 0x163 JUMP JUMPDEST DUP2 EQ PUSH3 0x1A4 JUMPI PUSH0 DUP1 REVERT JUMPDEST POP JUMP JUMPDEST PUSH0 DUP2 MLOAD SWAP1 POP PUSH3 0x1B7 DUP2 PUSH3 0x18E JUMP JUMPDEST SWAP3 SWAP2 POP POP JUMP JUMPDEST PUSH0 DUP1 PUSH1 0x40 DUP4 DUP6 SUB SLT ISZERO PUSH3 0x1D6 JUMPI PUSH3 0x1D5 PUSH3 0x105 JUMP JUMPDEST JUMPDEST PUSH0 PUSH3 0x1E5 DUP6 DUP3 DUP7 ADD PUSH3 0x14D JUMP JUMPDEST SWAP3 POP POP PUSH1 0x20 PUSH3 0x1F8 DUP6 DUP3 DUP7 ADD PUSH3 0x1A7 JUMP JUMPDEST SWAP2 POP POP SWAP3 POP SWAP3 SWAP1 POP JUMP JUMPDEST PUSH2 0x2FD8 DUP1 PUSH3 0x210 PUSH0 CODECOPY PUSH0 RETURN INVALID PUSH1 0x80 PUSH1 0x40 MSTORE PUSH1 0x4 CALLDATASIZE LT PUSH2 0xFD JUMPI PUSH0 CALLDATALOAD PUSH1 0xE0 SHR DUP1 PUSH4 0x93B871F2 GT PUSH2 0x94 JUMPI DUP1 PUSH4 0xB1CFF380 GT PUSH2 0x63 JUMPI DUP1 PUSH4 0xB1CFF380 EQ PUSH2 0x311 JUMPI DUP1 PUSH4 0xDD7D8440 EQ PUSH2 0x34D JUMPI DUP1 PUSH4 0xE560CA43 EQ PUSH2 0x389 JUMPI DUP1 PUSH4 0xE985E9C5 EQ PUSH2 0x3B1 JUMPI DUP1 PUSH4 0xECADBC04 EQ PUSH2 0x3ED JUMPI PUSH2 0xFD JUMP JUMPDEST DUP1 PUSH4 0x93B871F2 EQ PUSH2 0x25B JUMPI DUP1 PUSH4 0x95D89B41 EQ PUSH2 0x297 JUMPI DUP1 PUSH4 0xA22CB465 EQ PUSH2 0x2C1 JUMPI DUP1 PUSH4 0xB145AE31 EQ PUSH2 0x2E9 JUMPI PUSH2 0xFD JUMP JUMPDEST DUP1 PUSH4 0x6E1514F1 GT PUSH2 0xD0 JUMPI DUP1 PUSH4 0x6E1514F1 EQ PUSH2 0x191 JUMPI DUP1 PUSH4 0x70A08231 EQ PUSH2 0x1BB JUMPI DUP1 PUSH4 0x770FCE53 EQ PUSH2 0x1F7 JUMPI DUP1 PUSH4 0x82A7CF1E EQ PUSH2 0x21F JUMPI PUSH2 0xFD JUMP JUMPDEST DUP1 PUSH4 0x6FDDE03 EQ PUSH2 0x101 JUMPI DUP1 PUSH4 0x7394401 EQ PUSH2 0x12B JUMPI DUP1 PUSH4 0x1249C58B EQ PUSH2 0x153 JUMPI DUP1 PUSH4 0x4EC3DCFE EQ PUSH2 0x169 JUMPI JUMPDEST PUSH0 DUP1 REVERT JUMPDEST CALLVALUE DUP1 ISZERO PUSH2 0x10C JUMPI PUSH0 DUP1 REVERT JUMPDEST POP PUSH2 0x115 PUSH2 0x40B JUMP JUMPDEST PUSH1 0x40 MLOAD PUSH2 0x122 SWAP2 SWAP1 PUSH2 0x1E2B JUMP JUMPDEST PUSH1 0x40 MLOAD DUP1 SWAP2 SUB SWAP1 RETURN JUMPDEST CALLVALUE DUP1 ISZERO PUSH2 0x136 JUMPI PUSH0 DUP1 REVERT JUMPDEST POP PUSH2 0x151 PUSH1 0x4 DUP1 CALLDATASIZE SUB DUP2 ADD SWAP1 PUSH2 0x14C SWAP2 SWAP1 PUSH2 0x1EE6 JUMP JUMPDEST PUSH2 0x41F JUMP JUMPDEST STOP JUMPDEST CALLVALUE DUP1 ISZERO PUSH2 0x15E JUMPI PUSH0 DUP1 REVERT JUMPDEST POP PUSH2 0x167 PUSH2 0x43E JUMP JUMPDEST STOP JUMPDEST CALLVALUE DUP1 ISZERO PUSH2 0x174 JUMPI PUSH0 DUP1 REVERT JUMPDEST POP PUSH2 0x18F PUSH1 0x4 DUP1 CALLDATASIZE SUB DUP2 ADD SWAP1 PUSH2 0x18A SWAP2 SWAP1 PUSH2 0x1EE6 JUMP JUMPDEST PUSH2 0x440 JUMP JUMPDEST STOP JUMPDEST CALLVALUE DUP1 ISZERO PUSH2 0x19C JUMPI PUSH0 DUP1 REVERT JUMPDEST POP PUSH2 0x1A5 PUSH2 0x699 JUMP JUMPDEST PUSH1 0x40 MLOAD PUSH2 0x1B2 SWAP2 SWAP1 PUSH2 0x1F4E JUMP JUMPDEST PUSH1 0x40 MLOAD DUP1 SWAP2 SUB SWAP1 RETURN JUMPDEST CALLVALUE DUP1 ISZERO PUSH2 0x1C6 JUMPI PUSH0 DUP1 REVERT JUMPDEST POP PUSH2 0x1E1 PUSH1 0x4 DUP1 CALLDATASIZE SUB DUP2 ADD SWAP1 PUSH2 0x1DC SWAP2 SWAP1 PUSH2 0x1F67 JUMP JUMPDEST PUSH2 0x69D JUMP JUMPDEST PUSH1 0x40 MLOAD PUSH2 0x1EE SWAP2 SWAP1 PUSH2 0x1FA1 JUMP JUMPDEST PUSH1 0x40 MLOAD DUP1 SWAP2 SUB SWAP1 RETURN JUMPDEST CALLVALUE DUP1 ISZERO PUSH2 0x202 JUMPI PUSH0 DUP1 REVERT JUMPDEST POP PUSH2 0x21D PUSH1 0x4 DUP1 CALLDATASIZE SUB DUP2 ADD SWAP1 PUSH2 0x218 SWAP2 SWAP1 PUSH2 0x2028 JUMP JUMPDEST PUSH2 0x77E JUMP JUMPDEST STOP JUMPDEST CALLVALUE DUP1 ISZERO PUSH2 0x22A JUMPI PUSH0 DUP1 REVERT JUMPDEST POP PUSH2 0x245 PUSH1 0x4 DUP1 CALLDATASIZE SUB DUP2 ADD SWAP1 PUSH2 0x240 SWAP2 SWAP1 PUSH2 0x209F JUMP JUMPDEST PUSH2 0xA21 JUMP JUMPDEST PUSH1 0x40 MLOAD PUSH2 0x252 SWAP2 SWAP1 PUSH2 0x20D9 JUMP JUMPDEST PUSH1 0x40 MLOAD DUP1 SWAP2 SUB SWAP1 RETURN JUMPDEST CALLVALUE DUP1 ISZERO PUSH2 0x266 JUMPI PUSH0 DUP1 REVERT JUMPDEST POP PUSH2 0x281 PUSH1 0x4 DUP1 CALLDATASIZE SUB DUP2 ADD SWAP1 PUSH2 0x27C SWAP2 SWAP1 PUSH2 0x209F JUMP JUMPDEST PUSH2 0xA32 JUMP JUMPDEST PUSH1 0x40 MLOAD PUSH2 0x28E SWAP2 SWAP1 PUSH2 0x20D9 JUMP JUMPDEST PUSH1 0x40 MLOAD DUP1 SWAP2 SUB SWAP1 RETURN JUMPDEST CALLVALUE DUP1 ISZERO PUSH2 0x2A2 JUMPI PUSH0 DUP1 REVERT JUMPDEST POP PUSH2 0x2AB PUSH2 0xA7E JUMP JUMPDEST PUSH1 0x40 MLOAD PUSH2 0x2B8 SWAP2 SWAP1 PUSH2 0x212C JUMP JUMPDEST PUSH1 0x40 MLOAD DUP1 SWAP2 SUB SWAP1 RETURN JUMPDEST CALLVALUE DUP1 ISZERO PUSH2 0x2CC JUMPI PUSH0 DUP1 REVERT JUMPDEST POP PUSH2 0x2E7 PUSH1 0x4 DUP1 CALLDATASIZE SUB DUP2 ADD SWAP1 PUSH2 0x2E2 SWAP2 SWAP1 PUSH2 0x217A JUMP JUMPDEST PUSH2 0xA93 JUMP JUMPDEST STOP JUMPDEST CALLVALUE DUP1 ISZERO PUSH2 0x2F4 JUMPI PUSH0 DUP1 REVERT JUMPDEST POP PUSH2 0x30F PUSH1 0x4 DUP1 CALLDATASIZE SUB DUP2 ADD SWAP1 PUSH2 0x30A SWAP2 SWAP1 PUSH2 0x22F4 JUMP JUMPDEST PUSH2 0xC7F JUMP JUMPDEST STOP JUMPDEST CALLVALUE DUP1 ISZERO PUSH2 0x31C JUMPI PUSH0 DUP1 REVERT JUMPDEST POP PUSH2 0x337 PUSH1 0x4 DUP1 CALLDATASIZE SUB DUP2 ADD SWAP1 PUSH2 0x332 SWAP2 SWAP1 PUSH2 0x23D1 JUMP JUMPDEST PUSH2 0xC9C JUMP JUMPDEST PUSH1 0x40 MLOAD PUSH2 0x344 SWAP2 SWAP1 PUSH2 0x248F JUMP JUMPDEST PUSH1 0x40 MLOAD DUP1 SWAP2 SUB SWAP1 RETURN JUMPDEST CALLVALUE DUP1 ISZERO PUSH2 0x358 JUMPI PUSH0 DUP1 REVERT JUMPDEST POP PUSH2 0x373 PUSH1 0x4 DUP1 CALLDATASIZE SUB DUP2 ADD SWAP1 PUSH2 0x36E SWAP2 SWAP1 PUSH2 0x209F JUMP JUMPDEST PUSH2 0xCA6 JUMP JUMPDEST PUSH1 0x40 MLOAD PUSH2 0x380 SWAP2 SWAP1 PUSH2 0x2522 JUMP JUMPDEST PUSH1 0x40 MLOAD DUP1 SWAP2 SUB SWAP1 RETURN JUMPDEST CALLVALUE DUP1 ISZERO PUSH2 0x394 JUMPI PUSH0 DUP1 REVERT JUMPDEST POP PUSH2 0x3AF PUSH1 0x4 DUP1 CALLDATASIZE SUB DUP2 ADD SWAP1 PUSH2 0x3AA SWAP2 SWAP1 PUSH2 0x2542 JUMP JUMPDEST PUSH2 0xD10 JUMP JUMPDEST STOP JUMPDEST CALLVALUE DUP1 ISZERO PUSH2 0x3BC JUMPI PUSH0 DUP1 REVERT JUMPDEST POP PUSH2 0x3D7 PUSH1 0x4 DUP1 CALLDATASIZE SUB DUP2 ADD SWAP1 PUSH2 0x3D2 SWAP2 SWAP1 PUSH2 0x2580 JUMP JUMPDEST PUSH2 0xE34 JUMP JUMPDEST PUSH1 0x40 MLOAD PUSH2 0x3E4 SWAP2 SWAP1 PUSH2 0x25CD JUMP JUMPDEST PUSH1 0x40 MLOAD DUP1 SWAP2 SUB SWAP1 RETURN JUMPDEST PUSH2 0x3F5 PUSH2 0xEC3 JUMP JUMPDEST PUSH1 0x40 MLOAD PUSH2 0x402 SWAP2 SWAP1 PUSH2 0x2638 JUMP JUMPDEST PUSH1 0x40 MLOAD DUP1 SWAP2 SUB SWAP1 RETURN JUMPDEST PUSH0 DUP1 PUSH0 SWAP1 SLOAD SWAP1 PUSH2 0x100 EXP SWAP1 DIV PUSH1 0x60 SHL SWAP1 POP SWAP1 JUMP JUMPDEST PUSH2 0x439 DUP4 DUP4 DUP4 PUSH1 0x40 MLOAD DUP1 PUSH1 0x20 ADD PUSH1 0x40 MSTORE DUP1 PUSH0 DUP2 MSTORE POP PUSH2 0xC7F JUMP JUMPDEST POP POP POP JUMP JUMPDEST JUMP JUMPDEST PUSH0 PUSH20 0xFFFFFFFFFFFFFFFFFFFFFFFFFFFFFFFFFFFFFFFF AND DUP3 PUSH20 0xFFFFFFFFFFFFFFFFFFFFFFFFFFFFFFFFFFFFFFFF AND SUB PUSH2 0x4B0 JUMPI PUSH0 PUSH1 0x40 MLOAD PUSH32 0x64A0AE9200000000000000000000000000000000000000000000000000000000 DUP2 MSTORE PUSH1 0x4 ADD PUSH2 0x4A7 SWAP2 SWAP1 PUSH2 0x20D9 JUMP JUMPDEST PUSH1 0x40 MLOAD DUP1 SWAP2 SUB SWAP1 REVERT JUMPDEST PUSH0 PUSH2 0x4BA DUP3 PUSH2 0x11C5 JUMP JUMPDEST SWAP1 POP PUSH2 0x966 DUP3 PUSH2 0xFFFF AND PUSH2 0x4B1 DUP2 LT PUSH2 0x4D6 JUMPI PUSH2 0x4D5 PUSH2 0x2658 JUMP JUMPDEST JUMPDEST PUSH1 0x20 SWAP2 DUP3 DUP3 DIV ADD SWAP2 SWAP1 MOD SWAP1 SLOAD SWAP1 PUSH2 0x100 EXP SWAP1 DIV PUSH1 0xFF AND ISZERO PUSH2 0x52C JUMPI PUSH1 0x40 MLOAD PUSH32 0x8C379A000000000000000000000000000000000000000000000000000000000 DUP2 MSTORE PUSH1 0x4 ADD PUSH2 0x523 SWAP1 PUSH2 0x26F5 JUMP JUMPDEST PUSH1 0x40 MLOAD DUP1 SWAP2 SUB SWAP1 REVERT JUMPDEST DUP1 PUSH20 0xFFFFFFFFFFFFFFFFFFFFFFFFFFFFFFFFFFFFFFFF AND PUSH2 0x54B PUSH2 0x1274 JUMP JUMPDEST PUSH20 0xFFFFFFFFFFFFFFFFFFFFFFFFFFFFFFFFFFFFFFFF AND EQ DUP1 PUSH2 0x57A JUMPI POP PUSH2 0x579 DUP2 PUSH2 0x574 PUSH2 0x1274 JUMP JUMPDEST PUSH2 0xE34 JUMP JUMPDEST JUMPDEST DUP1 PUSH2 0x5BF JUMPI POP PUSH2 0x588 PUSH2 0x1274 JUMP JUMPDEST PUSH20 0xFFFFFFFFFFFFFFFFFFFFFFFFFFFFFFFFFFFFFFFF AND PUSH2 0x5A7 DUP4 PUSH2 0xA32 JUMP JUMPDEST PUSH20 0xFFFFFFFFFFFFFFFFFFFFFFFFFFFFFFFFFFFFFFFF AND EQ JUMPDEST PUSH2 0x609 JUMPI PUSH2 0x5CB PUSH2 0x1274 JUMP JUMPDEST DUP3 PUSH1 0x40 MLOAD PUSH32 0x177E802F00000000000000000000000000000000000000000000000000000000 DUP2 MSTORE PUSH1 0x4 ADD PUSH2 0x600 SWAP3 SWAP2 SWAP1 PUSH2 0x274C JUMP JUMPDEST PUSH1 0x40 MLOAD DUP1 SWAP2 SUB SWAP1 REVERT JUMPDEST DUP4 PUSH20 0xFFFFFFFFFFFFFFFFFFFFFFFFFFFFFFFFFFFFFFFF AND DUP2 PUSH20 0xFFFFFFFFFFFFFFFFFFFFFFFFFFFFFFFFFFFFFFFF AND EQ PUSH2 0x67D JUMPI DUP4 DUP3 DUP3 PUSH1 0x40 MLOAD PUSH32 0x64283D7B00000000000000000000000000000000000000000000000000000000 DUP2 MSTORE PUSH1 0x4 ADD PUSH2 0x674 SWAP4 SWAP3 SWAP2 SWAP1 PUSH2 0x2773 JUMP JUMPDEST PUSH1 0x40 MLOAD DUP1 SWAP2 SUB SWAP1 REVERT JUMPDEST PUSH2 0x688 PUSH0 DUP4 DUP4 PUSH2 0x127B JUMP JUMPDEST PUSH2 0x693 DUP4 DUP4 DUP4 PUSH2 0x1337 JUMP JUMPDEST POP POP POP POP JUMP JUMPDEST PUSH0 SWAP1 JUMP JUMPDEST PUSH0 DUP1 PUSH20 0xFFFFFFFFFFFFFFFFFFFFFFFFFFFFFFFFFFFFFFFF AND DUP3 PUSH20 0xFFFFFFFFFFFFFFFFFFFFFFFFFFFFFFFFFFFFFFFF AND SUB PUSH2 0x70C JUMPI PUSH1 0x40 MLOAD PUSH32 0x8C379A000000000000000000000000000000000000000000000000000000000 DUP2 MSTORE PUSH1 0x4 ADD PUSH2 0x703 SWAP1 PUSH2 0x27F2 JUMP JUMPDEST PUSH1 0x40 MLOAD DUP1 SWAP2 SUB SWAP1 REVERT JUMPDEST PUSH2 0x98C PUSH0 DUP4 PUSH20 0xFFFFFFFFFFFFFFFFFFFFFFFFFFFFFFFFFFFFFFFF AND PUSH20 0xFFFFFFFFFFFFFFFFFFFFFFFFFFFFFFFFFFFFFFFF AND DUP2 MSTORE PUSH1 0x20 ADD SWAP1 DUP2 MSTORE PUSH1 0x20 ADD PUSH0 KECCAK256 PUSH0 PUSH2 0x4B1 DUP2 LT PUSH2 0x75D JUMPI PUSH2 0x75C PUSH2 0x2658 JUMP JUMPDEST JUMPDEST PUSH1 0x10 SWAP2 DUP3 DUP3 DIV ADD SWAP2 SWAP1 MOD PUSH1 0x2 MUL SWAP1 SLOAD SWAP1 PUSH2 0x100 EXP SWAP1 DIV PUSH2 0xFFFF AND SWAP1 POP SWAP2 SWAP1 POP JUMP JUMPDEST PUSH1 0x1 PUSH0 ADD PUSH1 0xC SWAP1 SLOAD SWAP1 PUSH2 0x100 EXP SWAP1 DIV PUSH20 0xFFFFFFFFFFFFFFFFFFFFFFFFFFFFFFFFFFFFFFFF AND PUSH20 0xFFFFFFFFFFFFFFFFFFFFFFFFFFFFFFFFFFFFFFFF AND PUSH2 0x7C1 PUSH2 0x1274 JUMP JUMPDEST PUSH20 0xFFFFFFFFFFFFFFFFFFFFFFFFFFFFFFFFFFFFFFFF AND EQ PUSH2 0x817 JUMPI PUSH1 0x40 MLOAD PUSH32 0x8C379A000000000000000000000000000000000000000000000000000000000 DUP2 MSTORE PUSH1 0x4 ADD PUSH2 0x80E SWAP1 PUSH2 0x2880 JUMP JUMPDEST PUSH1 0x40 MLOAD DUP1 SWAP2 SUB SWAP1 REVERT JUMPDEST PUSH1 0x1 PUSH0 ADD PUSH1 0x4 SWAP1 SLOAD SWAP1 PUSH2 0x100 EXP SWAP1 DIV PUSH2 0xFFFF AND PUSH2 0xFFFF AND DUP6 PUSH2 0xFFFF AND GT DUP1 ISZERO PUSH2 0x848 JUMPI POP TIMESTAMP DUP5 PUSH6 0xFFFFFFFFFFFF AND LT ISZERO JUMPDEST PUSH2 0x887 JUMPI PUSH1 0x40 MLOAD PUSH32 0x8C379A000000000000000000000000000000000000000000000000000000000 DUP2 MSTORE PUSH1 0x4 ADD PUSH2 0x87E SWAP1 PUSH2 0x290E JUMP JUMPDEST PUSH1 0x40 MLOAD DUP1 SWAP2 SUB SWAP1 REVERT JUMPDEST PUSH2 0x3E8 DUP6 PUSH2 0xFFFF AND GT ISZERO PUSH2 0x8FD JUMPI PUSH0 PUSH2 0x4B0 DUP7 PUSH2 0xFFFF AND LT DUP1 ISZERO PUSH2 0x8B1 JUMPI POP PUSH2 0x8AE PUSH2 0x699 JUMP JUMPDEST DUP2 EQ JUMPDEST PUSH2 0x8F0 JUMPI PUSH1 0x40 MLOAD PUSH32 0x8C379A000000000000000000000000000000000000000000000000000000000 DUP2 MSTORE PUSH1 0x4 ADD PUSH2 0x8E7 SWAP1 PUSH2 0x299C JUMP JUMPDEST PUSH1 0x40 MLOAD DUP1 SWAP2 SUB SWAP1 REVERT JUMPDEST PUSH0 PUSH2 0x8FA DUP2 PUSH2 0x1A0B JUMP JUMPDEST POP POP JUMPDEST DUP5 PUSH1 0x1 PUSH0 ADD PUSH0 PUSH2 0x100 EXP DUP2 SLOAD DUP2 PUSH2 0xFFFF MUL NOT AND SWAP1 DUP4 PUSH2 0xFFFF AND MUL OR SWAP1 SSTORE POP DUP4 PUSH1 0x1 PUSH0 ADD PUSH1 0x6 PUSH2 0x100 EXP DUP2 SLOAD DUP2 PUSH6 0xFFFFFFFFFFFF MUL NOT AND SWAP1 DUP4 PUSH6 0xFFFFFFFFFFFF AND MUL OR SWAP1 SSTORE POP DUP3 PUSH1 0x1 PUSH0 ADD PUSH1 0xC PUSH2 0x100 EXP DUP2 SLOAD DUP2 PUSH20 0xFFFFFFFFFFFFFFFFFFFFFFFFFFFFFFFFFFFFFFFF MUL NOT AND SWAP1 DUP4 PUSH20 0xFFFFFFFFFFFFFFFFFFFFFFFFFFFFFFFFFFFFFFFF AND MUL OR SWAP1 SSTORE POP DUP2 PUSH1 0x1 DUP1 ADD PUSH0 PUSH2 0x100 EXP DUP2 SLOAD DUP2 PUSH20 0xFFFFFFFFFFFFFFFFFFFFFFFFFFFFFFFFFFFFFFFF MUL NOT AND SWAP1 DUP4 PUSH20 0xFFFFFFFFFFFFFFFFFFFFFFFFFFFFFFFFFFFFFFFF AND MUL OR SWAP1 SSTORE POP DUP1 PUSH1 0x1 PUSH1 0x2 ADD DUP2 SWAP1 SSTORE POP DUP4 PUSH6 0xFFFFFFFFFFFF AND DUP6 PUSH2 0xFFFF AND PUSH32 0x1C8A976C18E0A217A266CDD36A59140D8212F937433190CC4FAECDD8329F8E1F DUP6 DUP6 DUP6 PUSH1 0x40 MLOAD PUSH2 0xA12 SWAP4 SWAP3 SWAP2 SWAP1 PUSH2 0x29C9 JUMP JUMPDEST PUSH1 0x40 MLOAD DUP1 SWAP2 SUB SWAP1 LOG3 POP POP POP POP POP JUMP JUMPDEST PUSH0 PUSH2 0xA2B DUP3 PUSH2 0x11C5 JUMP JUMPDEST SWAP1 POP SWAP2 SWAP1 POP JUMP JUMPDEST PUSH0 PUSH2 0xA3C DUP3 PUSH2 0x11C5 JUMP JUMPDEST POP PUSH2 0x98D PUSH0 DUP4 PUSH2 0xFFFF AND PUSH2 0xFFFF AND DUP2 MSTORE PUSH1 0x20 ADD SWAP1 DUP2 MSTORE PUSH1 0x20 ADD PUSH0 KECCAK256 PUSH0 SWAP1 SLOAD SWAP1 PUSH2 0x100 EXP SWAP1 DIV PUSH20 0xFFFFFFFFFFFFFFFFFFFFFFFFFFFFFFFFFFFFFFFF AND SWAP1 POP SWAP2 SWAP1 POP JUMP JUMPDEST PUSH0 DUP1 PUSH1 0x14 SWAP1 SLOAD SWAP1 PUSH2 0x100 EXP SWAP1 DIV PUSH1 0xB0 SHL SWAP1 POP SWAP1 JUMP JUMPDEST DUP2 PUSH20 0xFFFFFFFFFFFFFFFFFFFFFFFFFFFFFFFFFFFFFFFF AND PUSH2 0xAB2 PUSH2 0x1274 JUMP JUMPDEST PUSH20 0xFFFFFFFFFFFFFFFFFFFFFFFFFFFFFFFFFFFFFFFF AND SUB PUSH2 0xB08 JUMPI PUSH1 0x40 MLOAD PUSH32 0x8C379A000000000000000000000000000000000000000000000000000000000 DUP2 MSTORE PUSH1 0x4 ADD PUSH2 0xAFF SWAP1 PUSH2 0x2A6E JUMP JUMPDEST PUSH1 0x40 MLOAD DUP1 SWAP2 SUB SWAP1 REVERT JUMPDEST PUSH0 PUSH20 0xFFFFFFFFFFFFFFFFFFFFFFFFFFFFFFFFFFFFFFFF AND DUP3 PUSH20 0xFFFFFFFFFFFFFFFFFFFFFFFFFFFFFFFFFFFFFFFF AND SUB PUSH2 0xB78 JUMPI DUP2 PUSH1 0x40 MLOAD PUSH32 0x5B08BA1800000000000000000000000000000000000000000000000000000000 DUP2 MSTORE PUSH1 0x4 ADD PUSH2 0xB6F SWAP2 SWAP1 PUSH2 0x20D9 JUMP JUMPDEST PUSH1 0x40 MLOAD DUP1 SWAP2 SUB SWAP1 REVERT JUMPDEST DUP1 PUSH2 0x98E PUSH0 PUSH2 0xB85 PUSH2 0x1274 JUMP JUMPDEST PUSH20 0xFFFFFFFFFFFFFFFFFFFFFFFFFFFFFFFFFFFFFFFF AND PUSH20 0xFFFFFFFFFFFFFFFFFFFFFFFFFFFFFFFFFFFFFFFF AND DUP2 MSTORE PUSH1 0x20 ADD SWAP1 DUP2 MSTORE PUSH1 0x20 ADD PUSH0 KECCAK256 PUSH0 DUP5 PUSH20 0xFFFFFFFFFFFFFFFFFFFFFFFFFFFFFFFFFFFFFFFF AND PUSH20 0xFFFFFFFFFFFFFFFFFFFFFFFFFFFFFFFFFFFFFFFF AND DUP2 MSTORE PUSH1 0x20 ADD SWAP1 DUP2 MSTORE PUSH1 0x20 ADD PUSH0 KECCAK256 PUSH0 PUSH2 0x100 EXP DUP2 SLOAD DUP2 PUSH1 0xFF MUL NOT AND SWAP1 DUP4 ISZERO ISZERO MUL OR SWAP1 SSTORE POP DUP2 PUSH20 0xFFFFFFFFFFFFFFFFFFFFFFFFFFFFFFFFFFFFFFFF AND PUSH2 0xC2E PUSH2 0x1274 JUMP JUMPDEST PUSH20 0xFFFFFFFFFFFFFFFFFFFFFFFFFFFFFFFFFFFFFFFF AND PUSH32 0x17307EAB39AB6107E8899845AD3D59BD9653F200F220920489CA2B5937696C31 DUP4 PUSH1 0x40 MLOAD PUSH2 0xC73 SWAP2 SWAP1 PUSH2 0x25CD JUMP JUMPDEST PUSH1 0x40 MLOAD DUP1 SWAP2 SUB SWAP1 LOG3 POP POP JUMP JUMPDEST PUSH2 0xC8A DUP5 DUP5 DUP5 PUSH2 0x440 JUMP JUMPDEST PUSH2 0xC96 DUP5 DUP5 DUP5 DUP5 PUSH2 0x1A0E JUMP JUMPDEST POP POP POP POP JUMP JUMPDEST PUSH0 SWAP6 SWAP5 POP POP POP POP POP JUMP JUMPDEST PUSH1 0x60 PUSH2 0xCB1 DUP3 PUSH2 0x11C5 JUMP JUMPDEST POP PUSH0 PUSH2 0xCBB PUSH2 0x1BC0 JUMP JUMPDEST SWAP1 POP PUSH0 DUP2 MLOAD GT PUSH2 0xCD9 JUMPI PUSH1 0x40 MLOAD DUP1 PUSH1 0x20 ADD PUSH1 0x40 MSTORE DUP1 PUSH0 DUP2 MSTORE POP PUSH2 0xD08 JUMP JUMPDEST DUP1 PUSH2 0xCE7 DUP5 PUSH2 0xFFFF AND PUSH2 0x1BD6 JUMP JUMPDEST PUSH1 0x40 MLOAD PUSH1 0x20 ADD PUSH2 0xCF8 SWAP3 SWAP2 SWAP1 PUSH2 0x2AC6 JUMP JUMPDEST PUSH1 0x40 MLOAD PUSH1 0x20 DUP2 DUP4 SUB SUB DUP2 MSTORE SWAP1 PUSH1 0x40 MSTORE JUMPDEST SWAP2 POP POP SWAP2 SWAP1 POP JUMP JUMPDEST PUSH0 PUSH2 0xD1A DUP3 PUSH2 0x11C5 JUMP JUMPDEST SWAP1 POP DUP3 PUSH20 0xFFFFFFFFFFFFFFFFFFFFFFFFFFFFFFFFFFFFFFFF AND DUP2 PUSH20 0xFFFFFFFFFFFFFFFFFFFFFFFFFFFFFFFFFFFFFFFF AND SUB PUSH2 0xD8A JUMPI PUSH1 0x40 MLOAD PUSH32 0x8C379A000000000000000000000000000000000000000000000000000000000 DUP2 MSTORE PUSH1 0x4 ADD PUSH2 0xD81 SWAP1 PUSH2 0x2A6E JUMP JUMPDEST PUSH1 0x40 MLOAD DUP1 SWAP2 SUB SWAP1 REVERT JUMPDEST PUSH2 0xD92 PUSH2 0x1274 JUMP JUMPDEST PUSH20 0xFFFFFFFFFFFFFFFFFFFFFFFFFFFFFFFFFFFFFFFF AND DUP2 PUSH20 0xFFFFFFFFFFFFFFFFFFFFFFFFFFFFFFFFFFFFFFFF AND EQ ISZERO DUP1 ISZERO PUSH2 0xDDB JUMPI POP PUSH2 0xDD9 DUP2 PUSH2 0xDD4 PUSH2 0x1274 JUMP JUMPDEST PUSH2 0xE34 JUMP JUMPDEST ISZERO JUMPDEST ISZERO PUSH2 0xE24 JUMPI PUSH2 0xDE8 PUSH2 0x1274 JUMP JUMPDEST PUSH1 0x40 MLOAD PUSH32 0xA9FBF51F00000000000000000000000000000000000000000000000000000000 DUP2 MSTORE PUSH1 0x4 ADD PUSH2 0xE1B SWAP2 SWAP1 PUSH2 0x20D9 JUMP JUMPDEST PUSH1 0x40 MLOAD DUP1 SWAP2 SUB SWAP1 REVERT JUMPDEST PUSH2 0xE2F DUP4 DUP4 DUP4 PUSH2 0x127B JUMP JUMPDEST POP POP POP JUMP JUMPDEST PUSH0 PUSH2 0x98E PUSH0 DUP5 PUSH20 0xFFFFFFFFFFFFFFFFFFFFFFFFFFFFFFFFFFFFFFFF AND PUSH20 0xFFFFFFFFFFFFFFFFFFFFFFFFFFFFFFFFFFFFFFFF AND DUP2 MSTORE PUSH1 0x20 ADD SWAP1 DUP2 MSTORE PUSH1 0x20 ADD PUSH0 KECCAK256 PUSH0 DUP4 PUSH20 0xFFFFFFFFFFFFFFFFFFFFFFFFFFFFFFFFFFFFFFFF AND PUSH20 0xFFFFFFFFFFFFFFFFFFFFFFFFFFFFFFFFFFFFFFFF AND DUP2 MSTORE PUSH1 0x20 ADD SWAP1 DUP2 MSTORE PUSH1 0x20 ADD PUSH0 KECCAK256 PUSH0 SWAP1 SLOAD SWAP1 PUSH2 0x100 EXP SWAP1 DIV PUSH1 0xFF AND SWAP1 POP SWAP3 SWAP2 POP POP JUMP JUMPDEST PUSH1 0x60 PUSH1 0x1 PUSH0 ADD PUSH0 SWAP1 SLOAD SWAP1 PUSH2 0x100 EXP SWAP1 DIV PUSH2 0xFFFF AND PUSH2 0xFFFF AND PUSH1 0x1 PUSH0 ADD PUSH1 0x4 SWAP1 SLOAD SWAP1 PUSH2 0x100 EXP SWAP1 DIV PUSH2 0xFFFF AND PUSH2 0xFFFF AND GT ISZERO DUP1 ISZERO PUSH2 0xF1E JUMPI POP TIMESTAMP PUSH1 0x1 PUSH0 ADD PUSH1 0x6 SWAP1 SLOAD SWAP1 PUSH2 0x100 EXP SWAP1 DIV PUSH6 0xFFFFFFFFFFFF AND PUSH6 0xFFFFFFFFFFFF AND LT ISZERO JUMPDEST PUSH2 0xF5D JUMPI PUSH1 0x40 MLOAD PUSH32 0x8C379A000000000000000000000000000000000000000000000000000000000 DUP2 MSTORE PUSH1 0x4 ADD PUSH2 0xF54 SWAP1 PUSH2 0x2B59 JUMP JUMPDEST PUSH1 0x40 MLOAD DUP1 SWAP2 SUB SWAP1 REVERT JUMPDEST PUSH0 PUSH20 0xFFFFFFFFFFFFFFFFFFFFFFFFFFFFFFFFFFFFFFFF AND PUSH2 0xF7C PUSH2 0x1274 JUMP JUMPDEST PUSH20 0xFFFFFFFFFFFFFFFFFFFFFFFFFFFFFFFFFFFFFFFF AND EQ ISZERO DUP1 ISZERO PUSH2 0xFBD JUMPI POP PUSH0 PUSH2 0xFA4 PUSH2 0x1274 JUMP JUMPDEST PUSH20 0xFFFFFFFFFFFFFFFFFFFFFFFFFFFFFFFFFFFFFFFF AND EXTCODESIZE EQ JUMPDEST PUSH2 0xFFC JUMPI PUSH1 0x40 MLOAD PUSH32 0x8C379A000000000000000000000000000000000000000000000000000000000 DUP2 MSTORE PUSH1 0x4 ADD PUSH2 0xFF3 SWAP1 PUSH2 0x2C0D JUMP JUMPDEST PUSH1 0x40 MLOAD DUP1 SWAP2 SUB SWAP1 REVERT JUMPDEST PUSH1 0x1 PUSH1 0x2 ADD SLOAD CALLVALUE LT ISZERO PUSH2 0x1044 JUMPI PUSH1 0x40 MLOAD PUSH32 0x8C379A000000000000000000000000000000000000000000000000000000000 DUP2 MSTORE PUSH1 0x4 ADD PUSH2 0x103B SWAP1 PUSH2 0x2C9B JUMP JUMPDEST PUSH1 0x40 MLOAD DUP1 SWAP2 SUB SWAP1 REVERT JUMPDEST PUSH0 DUP1 PUSH1 0x1 DUP1 ADD PUSH0 SWAP1 SLOAD SWAP1 PUSH2 0x100 EXP SWAP1 DIV PUSH20 0xFFFFFFFFFFFFFFFFFFFFFFFFFFFFFFFFFFFFFFFF AND PUSH20 0xFFFFFFFFFFFFFFFFFFFFFFFFFFFFFFFFFFFFFFFF AND CALLVALUE PUSH1 0x40 MLOAD PUSH2 0x108D SWAP1 PUSH2 0x2CE6 JUMP JUMPDEST PUSH0 PUSH1 0x40 MLOAD DUP1 DUP4 SUB DUP2 DUP6 DUP8 GAS CALL SWAP3 POP POP POP RETURNDATASIZE DUP1 PUSH0 DUP2 EQ PUSH2 0x10C7 JUMPI PUSH1 0x40 MLOAD SWAP2 POP PUSH1 0x1F NOT PUSH1 0x3F RETURNDATASIZE ADD AND DUP3 ADD PUSH1 0x40 MSTORE RETURNDATASIZE DUP3 MSTORE RETURNDATASIZE PUSH0 PUSH1 0x20 DUP5 ADD RETURNDATACOPY PUSH2 0x10CC JUMP JUMPDEST PUSH1 0x60 SWAP2 POP JUMPDEST POP SWAP2 POP SWAP2 POP DUP2 PUSH2 0x1111 JUMPI PUSH1 0x40 MLOAD PUSH32 0x8C379A000000000000000000000000000000000000000000000000000000000 DUP2 MSTORE PUSH1 0x4 ADD PUSH2 0x1108 SWAP1 PUSH2 0x2D44 JUMP JUMPDEST PUSH1 0x40 MLOAD DUP1 SWAP2 SUB SWAP1 REVERT JUMPDEST PUSH1 0x1 PUSH0 ADD PUSH1 0x4 DUP2 DUP2 SWAP1 SLOAD SWAP1 PUSH2 0x100 EXP SWAP1 DIV PUSH2 0xFFFF AND PUSH2 0x112F SWAP1 PUSH2 0x2D8F JUMP JUMPDEST SWAP2 SWAP1 PUSH2 0x100 EXP DUP2 SLOAD DUP2 PUSH2 0xFFFF MUL NOT AND SWAP1 DUP4 PUSH2 0xFFFF AND MUL OR SWAP1 SSTORE POP PUSH2 0x1151 PUSH2 0x1274 JUMP JUMPDEST PUSH1 0x1 PUSH1 0x3 ADD PUSH1 0x1 PUSH0 ADD PUSH1 0x4 SWAP1 SLOAD SWAP1 PUSH2 0x100 EXP SWAP1 DIV PUSH2 0xFFFF AND PUSH2 0xFFFF AND PUSH2 0x4B1 DUP2 LT PUSH2 0x117F JUMPI PUSH2 0x117E PUSH2 0x2658 JUMP JUMPDEST JUMPDEST ADD PUSH0 PUSH2 0x100 EXP DUP2 SLOAD DUP2 PUSH20 0xFFFFFFFFFFFFFFFFFFFFFFFFFFFFFFFFFFFFFFFF MUL NOT AND SWAP1 DUP4 PUSH20 0xFFFFFFFFFFFFFFFFFFFFFFFFFFFFFFFFFFFFFFFF AND MUL OR SWAP1 SSTORE POP DUP1 SWAP3 POP POP POP SWAP1 JUMP JUMPDEST PUSH0 DUP2 PUSH2 0xFFFF AND PUSH0 LT DUP1 ISZERO PUSH2 0x11F3 JUMPI POP PUSH1 0x1 PUSH0 ADD PUSH1 0x2 SWAP1 SLOAD SWAP1 PUSH2 0x100 EXP SWAP1 DIV PUSH2 0xFFFF AND PUSH2 0xFFFF AND DUP3 PUSH2 0xFFFF AND GT ISZERO JUMPDEST PUSH2 0x1232 JUMPI PUSH1 0x40 MLOAD PUSH32 0x8C379A000000000000000000000000000000000000000000000000000000000 DUP2 MSTORE PUSH1 0x4 ADD PUSH2 0x1229 SWAP1 PUSH2 0x2E4E JUMP JUMPDEST PUSH1 0x40 MLOAD DUP1 SWAP2 SUB SWAP1 REVERT JUMPDEST PUSH2 0x4B5 DUP3 PUSH2 0xFFFF AND PUSH2 0x4B1 DUP2 LT PUSH2 0x124C JUMPI PUSH2 0x124B PUSH2 0x2658 JUMP JUMPDEST JUMPDEST ADD PUSH0 SWAP1 SLOAD SWAP1 PUSH2 0x100 EXP SWAP1 DIV PUSH20 0xFFFFFFFFFFFFFFFFFFFFFFFFFFFFFFFFFFFFFFFF AND SWAP1 POP SWAP2 SWAP1 POP JUMP JUMPDEST PUSH0 CALLER SWAP1 POP SWAP1 JUMP JUMPDEST DUP3 PUSH2 0x98D PUSH0 DUP5 PUSH2 0xFFFF AND PUSH2 0xFFFF AND DUP2 MSTORE PUSH1 0x20 ADD SWAP1 DUP2 MSTORE PUSH1 0x20 ADD PUSH0 KECCAK256 PUSH0 PUSH2 0x100 EXP DUP2 SLOAD DUP2 PUSH20 0xFFFFFFFFFFFFFFFFFFFFFFFFFFFFFFFFFFFFFFFF MUL NOT AND SWAP1 DUP4 PUSH20 0xFFFFFFFFFFFFFFFFFFFFFFFFFFFFFFFFFFFFFFFF AND MUL OR SWAP1 SSTORE POP DUP2 PUSH2 0xFFFF AND DUP4 PUSH20 0xFFFFFFFFFFFFFFFFFFFFFFFFFFFFFFFFFFFFFFFF AND DUP3 PUSH20 0xFFFFFFFFFFFFFFFFFFFFFFFFFFFFFFFFFFFFFFFF AND PUSH32 0xA9D294FD4BD42BB30E96CBA2B478D149A783FBA3C729B1E5C42BEC89D95B85A PUSH1 0x40 MLOAD PUSH1 0x40 MLOAD DUP1 SWAP2 SUB SWAP1 LOG4 POP POP POP JUMP JUMPDEST PUSH0 PUSH2 0x98C PUSH0 DUP4 PUSH20 0xFFFFFFFFFFFFFFFFFFFFFFFFFFFFFFFFFFFFFFFF AND PUSH20 0xFFFFFFFFFFFFFFFFFFFFFFFFFFFFFFFFFFFFFFFF AND DUP2 MSTORE PUSH1 0x20 ADD SWAP1 DUP2 MSTORE PUSH1 0x20 ADD PUSH0 KECCAK256 PUSH0 PUSH2 0x4B1 DUP2 LT PUSH2 0x1389 JUMPI PUSH2 0x1388 PUSH2 0x2658 JUMP JUMPDEST JUMPDEST PUSH1 0x10 SWAP2 DUP3 DUP3 DIV ADD SWAP2 SWAP1 MOD PUSH1 0x2 MUL SWAP1 SLOAD SWAP1 PUSH2 0x100 EXP SWAP1 DIV PUSH2 0xFFFF AND SWAP1 POP PUSH0 PUSH20 0xFFFFFFFFFFFFFFFFFFFFFFFFFFFFFFFFFFFFFFFF AND DUP3 PUSH20 0xFFFFFFFFFFFFFFFFFFFFFFFFFFFFFFFFFFFFFFFF AND EQ PUSH2 0x1571 JUMPI PUSH0 PUSH1 0x1 SWAP1 POP JUMPDEST DUP2 PUSH2 0xFFFF AND DUP2 PUSH2 0xFFFF AND GT PUSH2 0x156B JUMPI DUP4 PUSH2 0xFFFF AND PUSH2 0x98C PUSH0 DUP6 PUSH20 0xFFFFFFFFFFFFFFFFFFFFFFFFFFFFFFFFFFFFFFFF AND PUSH20 0xFFFFFFFFFFFFFFFFFFFFFFFFFFFFFFFFFFFFFFFF AND DUP2 MSTORE PUSH1 0x20 ADD SWAP1 DUP2 MSTORE PUSH1 0x20 ADD PUSH0 KECCAK256 DUP3 PUSH2 0xFFFF AND PUSH2 0x4B1 DUP2 LT PUSH2 0x1447 JUMPI PUSH2 0x1446 PUSH2 0x2658 JUMP JUMPDEST JUMPDEST PUSH1 0x10 SWAP2 DUP3 DUP3 DIV ADD SWAP2 SWAP1 MOD PUSH1 0x2 MUL SWAP1 SLOAD SWAP1 PUSH2 0x100 EXP SWAP1 DIV PUSH2 0xFFFF AND PUSH2 0xFFFF AND SUB PUSH2 0x1558 JUMPI PUSH2 0x98C PUSH0 DUP5 PUSH20 0xFFFFFFFFFFFFFFFFFFFFFFFFFFFFFFFFFFFFFFFF AND PUSH20 0xFFFFFFFFFFFFFFFFFFFFFFFFFFFFFFFFFFFFFFFF AND DUP2 MSTORE PUSH1 0x20 ADD SWAP1 DUP2 MSTORE PUSH1 0x20 ADD PUSH0 KECCAK256 DUP3 PUSH2 0xFFFF AND PUSH2 0x4B1 DUP2 LT PUSH2 0x14BF JUMPI PUSH2 0x14BE PUSH2 0x2658 JUMP JUMPDEST JUMPDEST PUSH1 0x10 SWAP2 DUP3 DUP3 DIV ADD SWAP2 SWAP1 MOD PUSH1 0x2 MUL SWAP1 SLOAD SWAP1 PUSH2 0x100 EXP SWAP1 DIV PUSH2 0xFFFF AND PUSH2 0x98C PUSH0 DUP6 PUSH20 0xFFFFFFFFFFFFFFFFFFFFFFFFFFFFFFFFFFFFFFFF AND PUSH20 0xFFFFFFFFFFFFFFFFFFFFFFFFFFFFFFFFFFFFFFFF AND DUP2 MSTORE PUSH1 0x20 ADD SWAP1 DUP2 MSTORE PUSH1 0x20 ADD PUSH0 KECCAK256 DUP3 PUSH2 0xFFFF AND PUSH2 0x4B1 DUP2 LT PUSH2 0x152E JUMPI PUSH2 0x152D PUSH2 0x2658 JUMP JUMPDEST JUMPDEST PUSH1 0x10 SWAP2 DUP3 DUP3 DIV ADD SWAP2 SWAP1 MOD PUSH1 0x2 MUL PUSH2 0x100 EXP DUP2 SLOAD DUP2 PUSH2 0xFFFF MUL NOT AND SWAP1 DUP4 PUSH2 0xFFFF AND MUL OR SWAP1 SSTORE POP PUSH2 0x156B JUMP JUMPDEST DUP1 DUP1 PUSH2 0x1563 SWAP1 PUSH2 0x2D8F JUMP JUMPDEST SWAP2 POP POP PUSH2 0x13DE JUMP JUMPDEST POP PUSH2 0x16D1 JUMP JUMPDEST PUSH0 DUP4 SWAP1 POP PUSH2 0x98C PUSH0 DUP5 PUSH20 0xFFFFFFFFFFFFFFFFFFFFFFFFFFFFFFFFFFFFFFFF AND PUSH20 0xFFFFFFFFFFFFFFFFFFFFFFFFFFFFFFFFFFFFFFFF AND DUP2 MSTORE PUSH1 0x20 ADD SWAP1 DUP2 MSTORE PUSH1 0x20 ADD PUSH0 KECCAK256 DUP2 PUSH2 0xFFFF AND PUSH2 0x4B1 DUP2 LT PUSH2 0x15CA JUMPI PUSH2 0x15C9 PUSH2 0x2658 JUMP JUMPDEST JUMPDEST PUSH1 0x10 SWAP2 DUP3 DUP3 DIV ADD SWAP2 SWAP1 MOD PUSH1 0x2 MUL SWAP1 SLOAD SWAP1 PUSH2 0x100 EXP SWAP1 DIV PUSH2 0xFFFF AND SWAP4 POP PUSH2 0x98C PUSH0 DUP5 PUSH20 0xFFFFFFFFFFFFFFFFFFFFFFFFFFFFFFFFFFFFFFFF AND PUSH20 0xFFFFFFFFFFFFFFFFFFFFFFFFFFFFFFFFFFFFFFFF AND DUP2 MSTORE PUSH1 0x20 ADD SWAP1 DUP2 MSTORE PUSH1 0x20 ADD PUSH0 KECCAK256 DUP3 PUSH2 0xFFFF AND PUSH2 0x4B1 DUP2 LT PUSH2 0x163B JUMPI PUSH2 0x163A PUSH2 0x2658 JUMP JUMPDEST JUMPDEST PUSH1 0x10 SWAP2 DUP3 DUP3 DIV ADD SWAP2 SWAP1 MOD PUSH1 0x2 MUL SWAP1 SLOAD SWAP1 PUSH2 0x100 EXP SWAP1 DIV PUSH2 0xFFFF AND PUSH2 0x98C PUSH0 DUP6 PUSH20 0xFFFFFFFFFFFFFFFFFFFFFFFFFFFFFFFFFFFFFFFF AND PUSH20 0xFFFFFFFFFFFFFFFFFFFFFFFFFFFFFFFFFFFFFFFF AND DUP2 MSTORE PUSH1 0x20 ADD SWAP1 DUP2 MSTORE PUSH1 0x20 ADD PUSH0 KECCAK256 DUP3 PUSH2 0xFFFF AND PUSH2 0x4B1 DUP2 LT PUSH2 0x16AA JUMPI PUSH2 0x16A9 PUSH2 0x2658 JUMP JUMPDEST JUMPDEST PUSH1 0x10 SWAP2 DUP3 DUP3 DIV ADD SWAP2 SWAP1 MOD PUSH1 0x2 MUL PUSH2 0x100 EXP DUP2 SLOAD DUP2 PUSH2 0xFFFF MUL NOT AND SWAP1 DUP4 PUSH2 0xFFFF AND MUL OR SWAP1 SSTORE POP POP JUMPDEST PUSH0 PUSH2 0x98C PUSH0 DUP5 PUSH20 0xFFFFFFFFFFFFFFFFFFFFFFFFFFFFFFFFFFFFFFFF AND PUSH20 0xFFFFFFFFFFFFFFFFFFFFFFFFFFFFFFFFFFFFFFFF AND DUP2 MSTORE PUSH1 0x20 ADD SWAP1 DUP2 MSTORE PUSH1 0x20 ADD PUSH0 KECCAK256 DUP3 PUSH2 0xFFFF AND PUSH2 0x4B1 DUP2 LT PUSH2 0x1727 JUMPI PUSH2 0x1726 PUSH2 0x2658 JUMP JUMPDEST JUMPDEST PUSH1 0x10 SWAP2 DUP3 DUP3 DIV ADD SWAP2 SWAP1 MOD PUSH1 0x2 MUL PUSH2 0x100 EXP DUP2 SLOAD DUP2 PUSH2 0xFFFF MUL NOT AND SWAP1 DUP4 PUSH2 0xFFFF AND MUL OR SWAP1 SSTORE POP PUSH1 0x1 PUSH2 0x98C PUSH0 DUP5 PUSH20 0xFFFFFFFFFFFFFFFFFFFFFFFFFFFFFFFFFFFFFFFF AND PUSH20 0xFFFFFFFFFFFFFFFFFFFFFFFFFFFFFFFFFFFFFFFF AND DUP2 MSTORE PUSH1 0x20 ADD SWAP1 DUP2 MSTORE PUSH1 0x20 ADD PUSH0 KECCAK256 PUSH0 PUSH2 0x4B1 DUP2 LT PUSH2 0x179F JUMPI PUSH2 0x179E PUSH2 0x2658 JUMP JUMPDEST JUMPDEST PUSH1 0x10 SWAP2 DUP3 DUP3 DIV ADD SWAP2 SWAP1 MOD PUSH1 0x2 MUL DUP3 DUP3 DUP3 SWAP1 SLOAD SWAP1 PUSH2 0x100 EXP SWAP1 DIV PUSH2 0xFFFF AND PUSH2 0x17C6 SWAP2 SWAP1 PUSH2 0x2E6C JUMP JUMPDEST SWAP3 POP PUSH2 0x100 EXP DUP2 SLOAD DUP2 PUSH2 0xFFFF MUL NOT AND SWAP1 DUP4 PUSH2 0xFFFF AND MUL OR SWAP1 SSTORE POP PUSH0 PUSH1 0x1 PUSH2 0x98C PUSH0 DUP8 PUSH20 0xFFFFFFFFFFFFFFFFFFFFFFFFFFFFFFFFFFFFFFFF AND PUSH20 0xFFFFFFFFFFFFFFFFFFFFFFFFFFFFFFFFFFFFFFFF AND DUP2 MSTORE PUSH1 0x20 ADD SWAP1 DUP2 MSTORE PUSH1 0x20 ADD PUSH0 KECCAK256 PUSH0 PUSH2 0x4B1 DUP2 LT PUSH2 0x1834 JUMPI PUSH2 0x1833 PUSH2 0x2658 JUMP JUMPDEST JUMPDEST PUSH1 0x10 SWAP2 DUP3 DUP3 DIV ADD SWAP2 SWAP1 MOD PUSH1 0x2 MUL SWAP1 SLOAD SWAP1 PUSH2 0x100 EXP SWAP1 DIV PUSH2 0xFFFF AND PUSH2 0x1858 SWAP2 SWAP1 PUSH2 0x2EA1 JUMP JUMPDEST SWAP1 POP DUP4 PUSH2 0x98C PUSH0 DUP8 PUSH20 0xFFFFFFFFFFFFFFFFFFFFFFFFFFFFFFFFFFFFFFFF AND PUSH20 0xFFFFFFFFFFFFFFFFFFFFFFFFFFFFFFFFFFFFFFFF AND DUP2 MSTORE PUSH1 0x20 ADD SWAP1 DUP2 MSTORE PUSH1 0x20 ADD PUSH0 KECCAK256 DUP3 PUSH2 0xFFFF AND PUSH2 0x4B1 DUP2 LT PUSH2 0x18B0 JUMPI PUSH2 0x18AF PUSH2 0x2658 JUMP JUMPDEST JUMPDEST PUSH1 0x10 SWAP2 DUP3 DUP3 DIV ADD SWAP2 SWAP1 MOD PUSH1 0x2 MUL PUSH2 0x100 EXP DUP2 SLOAD DUP2 PUSH2 0xFFFF MUL NOT AND SWAP1 DUP4 PUSH2 0xFFFF AND MUL OR SWAP1 SSTORE POP DUP1 PUSH2 0x98C PUSH0 DUP8 PUSH20 0xFFFFFFFFFFFFFFFFFFFFFFFFFFFFFFFFFFFFFFFF AND PUSH20 0xFFFFFFFFFFFFFFFFFFFFFFFFFFFFFFFFFFFFFFFF AND DUP2 MSTORE PUSH1 0x20 ADD SWAP1 DUP2 MSTORE PUSH1 0x20 ADD PUSH0 KECCAK256 PUSH0 PUSH2 0x4B1 DUP2 LT PUSH2 0x1927 JUMPI PUSH2 0x1926 PUSH2 0x2658 JUMP JUMPDEST JUMPDEST PUSH1 0x10 SWAP2 DUP3 DUP3 DIV ADD SWAP2 SWAP1 MOD PUSH1 0x2 MUL PUSH2 0x100 EXP DUP2 SLOAD DUP2 PUSH2 0xFFFF MUL NOT AND SWAP1 DUP4 PUSH2 0xFFFF AND MUL OR SWAP1 SSTORE POP DUP5 PUSH2 0x4B5 DUP6 PUSH2 0xFFFF AND PUSH2 0x4B1 DUP2 LT PUSH2 0x1967 JUMPI PUSH2 0x1966 PUSH2 0x2658 JUMP JUMPDEST JUMPDEST ADD PUSH0 PUSH2 0x100 EXP DUP2 SLOAD DUP2 PUSH20 0xFFFFFFFFFFFFFFFFFFFFFFFFFFFFFFFFFFFFFFFF MUL NOT AND SWAP1 DUP4 PUSH20 0xFFFFFFFFFFFFFFFFFFFFFFFFFFFFFFFFFFFFFFFF AND MUL OR SWAP1 SSTORE POP DUP4 PUSH2 0xFFFF AND DUP6 PUSH20 0xFFFFFFFFFFFFFFFFFFFFFFFFFFFFFFFFFFFFFFFF AND DUP5 PUSH20 0xFFFFFFFFFFFFFFFFFFFFFFFFFFFFFFFFFFFFFFFF AND PUSH32 0x89896EDBD223C9360CE42DDFED7522A2BFFB20C056E4C42D42370CB493B65676 PUSH1 0x40 MLOAD PUSH1 0x40 MLOAD DUP1 SWAP2 SUB SWAP1 LOG4 POP POP POP POP POP JUMP JUMPDEST POP JUMP JUMPDEST PUSH0 DUP4 PUSH20 0xFFFFFFFFFFFFFFFFFFFFFFFFFFFFFFFFFFFFFFFF AND EXTCODESIZE GT ISZERO PUSH2 0x1BBA JUMPI DUP3 PUSH20 0xFFFFFFFFFFFFFFFFFFFFFFFFFFFFFFFFFFFFFFFF AND PUSH4 0xB1CFF380 PUSH2 0x1A51 PUSH2 0x1274 JUMP JUMPDEST DUP7 DUP6 DUP6 PUSH1 0x40 MLOAD DUP6 PUSH4 0xFFFFFFFF AND PUSH1 0xE0 SHL DUP2 MSTORE PUSH1 0x4 ADD PUSH2 0x1A73 SWAP5 SWAP4 SWAP3 SWAP2 SWAP1 PUSH2 0x2ED6 JUMP JUMPDEST PUSH1 0x20 PUSH1 0x40 MLOAD DUP1 DUP4 SUB DUP2 PUSH0 DUP8 GAS CALL SWAP3 POP POP POP DUP1 ISZERO PUSH2 0x1AAE JUMPI POP PUSH1 0x40 MLOAD RETURNDATASIZE PUSH1 0x1F NOT PUSH1 0x1F DUP3 ADD AND DUP3 ADD DUP1 PUSH1 0x40 MSTORE POP DUP2 ADD SWAP1 PUSH2 0x1AAB SWAP2 SWAP1 PUSH2 0x2F4A JUMP JUMPDEST PUSH1 0x1 JUMPDEST PUSH2 0x1B2F JUMPI RETURNDATASIZE DUP1 PUSH0 DUP2 EQ PUSH2 0x1ADC JUMPI PUSH1 0x40 MLOAD SWAP2 POP PUSH1 0x1F NOT PUSH1 0x3F RETURNDATASIZE ADD AND DUP3 ADD PUSH1 0x40 MSTORE RETURNDATASIZE DUP3 MSTORE RETURNDATASIZE PUSH0 PUSH1 0x20 DUP5 ADD RETURNDATACOPY PUSH2 0x1AE1 JUMP JUMPDEST PUSH1 0x60 SWAP2 POP JUMPDEST POP PUSH0 DUP2 MLOAD SUB PUSH2 0x1B27 JUMPI DUP4 PUSH1 0x40 MLOAD PUSH32 0x64A0AE9200000000000000000000000000000000000000000000000000000000 DUP2 MSTORE PUSH1 0x4 ADD PUSH2 0x1B1E SWAP2 SWAP1 PUSH2 0x20D9 JUMP JUMPDEST PUSH1 0x40 MLOAD DUP1 SWAP2 SUB SWAP1 REVERT JUMPDEST DUP1 MLOAD DUP2 PUSH1 0x20 ADD REVERT JUMPDEST PUSH4 0xB1CFF380 PUSH1 0xE0 SHL PUSH28 0xFFFFFFFFFFFFFFFFFFFFFFFFFFFFFFFFFFFFFFFFFFFFFFFFFFFFFFFF NOT AND DUP2 PUSH28 0xFFFFFFFFFFFFFFFFFFFFFFFFFFFFFFFFFFFFFFFFFFFFFFFFFFFFFFFF NOT AND EQ PUSH2 0x1BB8 JUMPI DUP4 PUSH1 0x40 MLOAD PUSH32 0x64A0AE9200000000000000000000000000000000000000000000000000000000 DUP2 MSTORE PUSH1 0x4 ADD PUSH2 0x1BAF SWAP2 SWAP1 PUSH2 0x20D9 JUMP JUMPDEST PUSH1 0x40 MLOAD DUP1 SWAP2 SUB SWAP1 REVERT JUMPDEST POP JUMPDEST POP POP POP POP JUMP JUMPDEST PUSH1 0x60 PUSH1 0x40 MLOAD DUP1 PUSH1 0x20 ADD PUSH1 0x40 MSTORE DUP1 PUSH0 DUP2 MSTORE POP SWAP1 POP SWAP1 JUMP JUMPDEST PUSH1 0x60 PUSH0 PUSH1 0x1 PUSH2 0x1BE4 DUP5 PUSH2 0x1CA0 JUMP JUMPDEST ADD SWAP1 POP PUSH0 DUP2 PUSH8 0xFFFFFFFFFFFFFFFF DUP2 GT ISZERO PUSH2 0x1C02 JUMPI PUSH2 0x1C01 PUSH2 0x21D0 JUMP JUMPDEST JUMPDEST PUSH1 0x40 MLOAD SWAP1 DUP1 DUP3 MSTORE DUP1 PUSH1 0x1F ADD PUSH1 0x1F NOT AND PUSH1 0x20 ADD DUP3 ADD PUSH1 0x40 MSTORE DUP1 ISZERO PUSH2 0x1C34 JUMPI DUP2 PUSH1 0x20 ADD PUSH1 0x1 DUP3 MUL DUP1 CALLDATASIZE DUP4 CALLDATACOPY DUP1 DUP3 ADD SWAP2 POP POP SWAP1 POP JUMPDEST POP SWAP1 POP PUSH0 DUP3 PUSH1 0x20 ADD DUP3 ADD SWAP1 POP JUMPDEST PUSH1 0x1 ISZERO PUSH2 0x1C95 JUMPI DUP1 DUP1 PUSH1 0x1 SWAP1 SUB SWAP2 POP POP PUSH32 0x3031323334353637383961626364656600000000000000000000000000000000 PUSH1 0xA DUP7 MOD BYTE DUP2 MSTORE8 PUSH1 0xA DUP6 DUP2 PUSH2 0x1C8A JUMPI PUSH2 0x1C89 PUSH2 0x2F75 JUMP JUMPDEST JUMPDEST DIV SWAP5 POP PUSH0 DUP6 SUB PUSH2 0x1C41 JUMPI JUMPDEST DUP2 SWAP4 POP POP POP POP SWAP2 SWAP1 POP JUMP JUMPDEST PUSH0 DUP1 PUSH0 SWAP1 POP PUSH27 0x184F03E93FF9F4DAA797ED6E38ED64BF6A1F010000000000000000 DUP4 LT PUSH2 0x1CFC JUMPI PUSH27 0x184F03E93FF9F4DAA797ED6E38ED64BF6A1F010000000000000000 DUP4 DUP2 PUSH2 0x1CF2 JUMPI PUSH2 0x1CF1 PUSH2 0x2F75 JUMP JUMPDEST JUMPDEST DIV SWAP3 POP PUSH1 0x40 DUP2 ADD SWAP1 POP JUMPDEST PUSH14 0x4EE2D6D415B85ACEF8100000000 DUP4 LT PUSH2 0x1D39 JUMPI PUSH14 0x4EE2D6D415B85ACEF8100000000 DUP4 DUP2 PUSH2 0x1D2F JUMPI PUSH2 0x1D2E PUSH2 0x2F75 JUMP JUMPDEST JUMPDEST DIV SWAP3 POP PUSH1 0x20 DUP2 ADD SWAP1 POP JUMPDEST PUSH7 0x2386F26FC10000 DUP4 LT PUSH2 0x1D68 JUMPI PUSH7 0x2386F26FC10000 DUP4 DUP2 PUSH2 0x1D5E JUMPI PUSH2 0x1D5D PUSH2 0x2F75 JUMP JUMPDEST JUMPDEST DIV SWAP3 POP PUSH1 0x10 DUP2 ADD SWAP1 POP JUMPDEST PUSH4 0x5F5E100 DUP4 LT PUSH2 0x1D91 JUMPI PUSH4 0x5F5E100 DUP4 DUP2 PUSH2 0x1D87 JUMPI PUSH2 0x1D86 PUSH2 0x2F75 JUMP JUMPDEST JUMPDEST DIV SWAP3 POP PUSH1 0x8 DUP2 ADD SWAP1 POP JUMPDEST PUSH2 0x2710 DUP4 LT PUSH2 0x1DB6 JUMPI PUSH2 0x2710 DUP4 DUP2 PUSH2 0x1DAC JUMPI PUSH2 0x1DAB PUSH2 0x2F75 JUMP JUMPDEST JUMPDEST DIV SWAP3 POP PUSH1 0x4 DUP2 ADD SWAP1 POP JUMPDEST PUSH1 0x64 DUP4 LT PUSH2 0x1DD9 JUMPI PUSH1 0x64 DUP4 DUP2 PUSH2 0x1DCF JUMPI PUSH2 0x1DCE PUSH2 0x2F75 JUMP JUMPDEST JUMPDEST DIV SWAP3 POP PUSH1 0x2 DUP2 ADD SWAP1 POP JUMPDEST PUSH1 0xA DUP4 LT PUSH2 0x1DE8 JUMPI PUSH1 0x1 DUP2 ADD SWAP1 POP JUMPDEST DUP1 SWAP2 POP POP SWAP2 SWAP1 POP JUMP JUMPDEST PUSH0 PUSH32 0xFFFFFFFFFFFFFFFFFFFFFFFFFFFFFFFFFFFFFFFF000000000000000000000000 DUP3 AND SWAP1 POP SWAP2 SWAP1 POP JUMP JUMPDEST PUSH2 0x1E25 DUP2 PUSH2 0x1DF1 JUMP JUMPDEST DUP3 MSTORE POP POP JUMP JUMPDEST PUSH0 PUSH1 0x20 DUP3 ADD SWAP1 POP PUSH2 0x1E3E PUSH0 DUP4 ADD DUP5 PUSH2 0x1E1C JUMP JUMPDEST SWAP3 SWAP2 POP POP JUMP JUMPDEST PUSH0 PUSH1 0x40 MLOAD SWAP1 POP SWAP1 JUMP JUMPDEST PUSH0 DUP1 REVERT JUMPDEST PUSH0 DUP1 REVERT JUMPDEST PUSH0 PUSH20 0xFFFFFFFFFFFFFFFFFFFFFFFFFFFFFFFFFFFFFFFF DUP3 AND SWAP1 POP SWAP2 SWAP1 POP JUMP JUMPDEST PUSH0 PUSH2 0x1E7E DUP3 PUSH2 0x1E55 JUMP JUMPDEST SWAP1 POP SWAP2 SWAP1 POP JUMP JUMPDEST PUSH2 0x1E8E DUP2 PUSH2 0x1E74 JUMP JUMPDEST DUP2 EQ PUSH2 0x1E98 JUMPI PUSH0 DUP1 REVERT JUMPDEST POP JUMP JUMPDEST PUSH0 DUP2 CALLDATALOAD SWAP1 POP PUSH2 0x1EA9 DUP2 PUSH2 0x1E85 JUMP JUMPDEST SWAP3 SWAP2 POP POP JUMP JUMPDEST PUSH0 PUSH2 0xFFFF DUP3 AND SWAP1 POP SWAP2 SWAP1 POP JUMP JUMPDEST PUSH2 0x1EC5 DUP2 PUSH2 0x1EAF JUMP JUMPDEST DUP2 EQ PUSH2 0x1ECF JUMPI PUSH0 DUP1 REVERT JUMPDEST POP JUMP JUMPDEST PUSH0 DUP2 CALLDATALOAD SWAP1 POP PUSH2 0x1EE0 DUP2 PUSH2 0x1EBC JUMP JUMPDEST SWAP3 SWAP2 POP POP JUMP JUMPDEST PUSH0 DUP1 PUSH0 PUSH1 0x60 DUP5 DUP7 SUB SLT ISZERO PUSH2 0x1EFD JUMPI PUSH2 0x1EFC PUSH2 0x1E4D JUMP JUMPDEST JUMPDEST PUSH0 PUSH2 0x1F0A DUP7 DUP3 DUP8 ADD PUSH2 0x1E9B JUMP JUMPDEST SWAP4 POP POP PUSH1 0x20 PUSH2 0x1F1B DUP7 DUP3 DUP8 ADD PUSH2 0x1E9B JUMP JUMPDEST SWAP3 POP POP PUSH1 0x40 PUSH2 0x1F2C DUP7 DUP3 DUP8 ADD PUSH2 0x1ED2 JUMP JUMPDEST SWAP2 POP POP SWAP3 POP SWAP3 POP SWAP3 JUMP JUMPDEST PUSH0 DUP2 SWAP1 POP SWAP2 SWAP1 POP JUMP JUMPDEST PUSH2 0x1F48 DUP2 PUSH2 0x1F36 JUMP JUMPDEST DUP3 MSTORE POP POP JUMP JUMPDEST PUSH0 PUSH1 0x20 DUP3 ADD SWAP1 POP PUSH2 0x1F61 PUSH0 DUP4 ADD DUP5 PUSH2 0x1F3F JUMP JUMPDEST SWAP3 SWAP2 POP POP JUMP JUMPDEST PUSH0 PUSH1 0x20 DUP3 DUP5 SUB SLT ISZERO PUSH2 0x1F7C JUMPI PUSH2 0x1F7B PUSH2 0x1E4D JUMP JUMPDEST JUMPDEST PUSH0 PUSH2 0x1F89 DUP5 DUP3 DUP6 ADD PUSH2 0x1E9B JUMP JUMPDEST SWAP2 POP POP SWAP3 SWAP2 POP POP JUMP JUMPDEST PUSH2 0x1F9B DUP2 PUSH2 0x1EAF JUMP JUMPDEST DUP3 MSTORE POP POP JUMP JUMPDEST PUSH0 PUSH1 0x20 DUP3 ADD SWAP1 POP PUSH2 0x1FB4 PUSH0 DUP4 ADD DUP5 PUSH2 0x1F92 JUMP JUMPDEST SWAP3 SWAP2 POP POP JUMP JUMPDEST PUSH0 PUSH6 0xFFFFFFFFFFFF DUP3 AND SWAP1 POP SWAP2 SWAP1 POP JUMP JUMPDEST PUSH2 0x1FD4 DUP2 PUSH2 0x1FBA JUMP JUMPDEST DUP2 EQ PUSH2 0x1FDE JUMPI PUSH0 DUP1 REVERT JUMPDEST POP JUMP JUMPDEST PUSH0 DUP2 CALLDATALOAD SWAP1 POP PUSH2 0x1FEF DUP2 PUSH2 0x1FCB JUMP JUMPDEST SWAP3 SWAP2 POP POP JUMP JUMPDEST PUSH0 DUP2 SWAP1 POP SWAP2 SWAP1 POP JUMP JUMPDEST PUSH2 0x2007 DUP2 PUSH2 0x1FF5 JUMP JUMPDEST DUP2 EQ PUSH2 0x2011 JUMPI PUSH0 DUP1 REVERT JUMPDEST POP JUMP JUMPDEST PUSH0 DUP2 CALLDATALOAD SWAP1 POP PUSH2 0x2022 DUP2 PUSH2 0x1FFE JUMP JUMPDEST SWAP3 SWAP2 POP POP JUMP JUMPDEST PUSH0 DUP1 PUSH0 DUP1 PUSH0 PUSH1 0xA0 DUP7 DUP9 SUB SLT ISZERO PUSH2 0x2041 JUMPI PUSH2 0x2040 PUSH2 0x1E4D JUMP JUMPDEST JUMPDEST PUSH0 PUSH2 0x204E DUP9 DUP3 DUP10 ADD PUSH2 0x1ED2 JUMP JUMPDEST SWAP6 POP POP PUSH1 0x20 PUSH2 0x205F DUP9 DUP3 DUP10 ADD PUSH2 0x1FE1 JUMP JUMPDEST SWAP5 POP POP PUSH1 0x40 PUSH2 0x2070 DUP9 DUP3 DUP10 ADD PUSH2 0x1E9B JUMP JUMPDEST SWAP4 POP POP PUSH1 0x60 PUSH2 0x2081 DUP9 DUP3 DUP10 ADD PUSH2 0x1E9B JUMP JUMPDEST SWAP3 POP POP PUSH1 0x80 PUSH2 0x2092 DUP9 DUP3 DUP10 ADD PUSH2 0x2014 JUMP JUMPDEST SWAP2 POP POP SWAP3 SWAP6 POP SWAP3 SWAP6 SWAP1 SWAP4 POP JUMP JUMPDEST PUSH0 PUSH1 0x20 DUP3 DUP5 SUB SLT ISZERO PUSH2 0x20B4 JUMPI PUSH2 0x20B3 PUSH2 0x1E4D JUMP JUMPDEST JUMPDEST PUSH0 PUSH2 0x20C1 DUP5 DUP3 DUP6 ADD PUSH2 0x1ED2 JUMP JUMPDEST SWAP2 POP POP SWAP3 SWAP2 POP POP JUMP JUMPDEST PUSH2 0x20D3 DUP2 PUSH2 0x1E74 JUMP JUMPDEST DUP3 MSTORE POP POP JUMP JUMPDEST PUSH0 PUSH1 0x20 DUP3 ADD SWAP1 POP PUSH2 0x20EC PUSH0 DUP4 ADD DUP5 PUSH2 0x20CA JUMP JUMPDEST SWAP3 SWAP2 POP POP JUMP JUMPDEST PUSH0 PUSH32 0xFFFFFFFFFFFFFFFFFFFF00000000000000000000000000000000000000000000 DUP3 AND SWAP1 POP SWAP2 SWAP1 POP JUMP JUMPDEST PUSH2 0x2126 DUP2 PUSH2 0x20F2 JUMP JUMPDEST DUP3 MSTORE POP POP JUMP JUMPDEST PUSH0 PUSH1 0x20 DUP3 ADD SWAP1 POP PUSH2 0x213F PUSH0 DUP4 ADD DUP5 PUSH2 0x211D JUMP JUMPDEST SWAP3 SWAP2 POP POP JUMP JUMPDEST PUSH0 DUP2 ISZERO ISZERO SWAP1 POP SWAP2 SWAP1 POP JUMP JUMPDEST PUSH2 0x2159 DUP2 PUSH2 0x2145 JUMP JUMPDEST DUP2 EQ PUSH2 0x2163 JUMPI PUSH0 DUP1 REVERT JUMPDEST POP JUMP JUMPDEST PUSH0 DUP2 CALLDATALOAD SWAP1 POP PUSH2 0x2174 DUP2 PUSH2 0x2150 JUMP JUMPDEST SWAP3 SWAP2 POP POP JUMP JUMPDEST PUSH0 DUP1 PUSH1 0x40 DUP4 DUP6 SUB SLT ISZERO PUSH2 0x2190 JUMPI PUSH2 0x218F PUSH2 0x1E4D JUMP JUMPDEST JUMPDEST PUSH0 PUSH2 0x219D DUP6 DUP3 DUP7 ADD PUSH2 0x1E9B JUMP JUMPDEST SWAP3 POP POP PUSH1 0x20 PUSH2 0x21AE DUP6 DUP3 DUP7 ADD PUSH2 0x2166 JUMP JUMPDEST SWAP2 POP POP SWAP3 POP SWAP3 SWAP1 POP JUMP JUMPDEST PUSH0 DUP1 REVERT JUMPDEST PUSH0 DUP1 REVERT JUMPDEST PUSH0 PUSH1 0x1F NOT PUSH1 0x1F DUP4 ADD AND SWAP1 POP SWAP2 SWAP1 POP JUMP JUMPDEST PUSH32 0x4E487B7100000000000000000000000000000000000000000000000000000000 PUSH0 MSTORE PUSH1 0x41 PUSH1 0x4 MSTORE PUSH1 0x24 PUSH0 REVERT JUMPDEST PUSH2 0x2206 DUP3 PUSH2 0x21C0 JUMP JUMPDEST DUP2 ADD DUP2 DUP2 LT PUSH8 0xFFFFFFFFFFFFFFFF DUP3 GT OR ISZERO PUSH2 0x2225 JUMPI PUSH2 0x2224 PUSH2 0x21D0 JUMP JUMPDEST JUMPDEST DUP1 PUSH1 0x40 MSTORE POP POP POP JUMP JUMPDEST PUSH0 PUSH2 0x2237 PUSH2 0x1E44 JUMP JUMPDEST SWAP1 POP PUSH2 0x2243 DUP3 DUP3 PUSH2 0x21FD JUMP JUMPDEST SWAP2 SWAP1 POP JUMP JUMPDEST PUSH0 PUSH8 0xFFFFFFFFFFFFFFFF DUP3 GT ISZERO PUSH2 0x2262 JUMPI PUSH2 0x2261 PUSH2 0x21D0 JUMP JUMPDEST JUMPDEST PUSH2 0x226B DUP3 PUSH2 0x21C0 JUMP JUMPDEST SWAP1 POP PUSH1 0x20 DUP2 ADD SWAP1 POP SWAP2 SWAP1 POP JUMP JUMPDEST DUP3 DUP2 DUP4 CALLDATACOPY PUSH0 DUP4 DUP4 ADD MSTORE POP POP POP JUMP JUMPDEST PUSH0 PUSH2 0x2298 PUSH2 0x2293 DUP5 PUSH2 0x2248 JUMP JUMPDEST PUSH2 0x222E JUMP JUMPDEST SWAP1 POP DUP3 DUP2 MSTORE PUSH1 0x20 DUP2 ADD DUP5 DUP5 DUP5 ADD GT ISZERO PUSH2 0x22B4 JUMPI PUSH2 0x22B3 PUSH2 0x21BC JUMP JUMPDEST JUMPDEST PUSH2 0x22BF DUP5 DUP3 DUP6 PUSH2 0x2278 JUMP JUMPDEST POP SWAP4 SWAP3 POP POP POP JUMP JUMPDEST PUSH0 DUP3 PUSH1 0x1F DUP4 ADD SLT PUSH2 0x22DB JUMPI PUSH2 0x22DA PUSH2 0x21B8 JUMP JUMPDEST JUMPDEST DUP2 CALLDATALOAD PUSH2 0x22EB DUP5 DUP3 PUSH1 0x20 DUP7 ADD PUSH2 0x2286 JUMP JUMPDEST SWAP2 POP POP SWAP3 SWAP2 POP POP JUMP JUMPDEST PUSH0 DUP1 PUSH0 DUP1 PUSH1 0x80 DUP6 DUP8 SUB SLT ISZERO PUSH2 0x230C JUMPI PUSH2 0x230B PUSH2 0x1E4D JUMP JUMPDEST JUMPDEST PUSH0 PUSH2 0x2319 DUP8 DUP3 DUP9 ADD PUSH2 0x1E9B JUMP JUMPDEST SWAP5 POP POP PUSH1 0x20 PUSH2 0x232A DUP8 DUP3 DUP9 ADD PUSH2 0x1E9B JUMP JUMPDEST SWAP4 POP POP PUSH1 0x40 PUSH2 0x233B DUP8 DUP3 DUP9 ADD PUSH2 0x1ED2 JUMP JUMPDEST SWAP3 POP POP PUSH1 0x60 DUP6 ADD CALLDATALOAD PUSH8 0xFFFFFFFFFFFFFFFF DUP2 GT ISZERO PUSH2 0x235C JUMPI PUSH2 0x235B PUSH2 0x1E51 JUMP JUMPDEST JUMPDEST PUSH2 0x2368 DUP8 DUP3 DUP9 ADD PUSH2 0x22C7 JUMP JUMPDEST SWAP2 POP POP SWAP3 SWAP6 SWAP2 SWAP5 POP SWAP3 POP JUMP JUMPDEST PUSH0 DUP1 REVERT JUMPDEST PUSH0 DUP1 REVERT JUMPDEST PUSH0 DUP1 DUP4 PUSH1 0x1F DUP5 ADD SLT PUSH2 0x2391 JUMPI PUSH2 0x2390 PUSH2 0x21B8 JUMP JUMPDEST JUMPDEST DUP3 CALLDATALOAD SWAP1 POP PUSH8 0xFFFFFFFFFFFFFFFF DUP2 GT ISZERO PUSH2 0x23AE JUMPI PUSH2 0x23AD PUSH2 0x2374 JUMP JUMPDEST JUMPDEST PUSH1 0x20 DUP4 ADD SWAP2 POP DUP4 PUSH1 0x1 DUP3 MUL DUP4 ADD GT ISZERO PUSH2 0x23CA JUMPI PUSH2 0x23C9 PUSH2 0x2378 JUMP JUMPDEST JUMPDEST SWAP3 POP SWAP3 SWAP1 POP JUMP JUMPDEST PUSH0 DUP1 PUSH0 DUP1 PUSH0 PUSH1 0x80 DUP7 DUP9 SUB SLT ISZERO PUSH2 0x23EA JUMPI PUSH2 0x23E9 PUSH2 0x1E4D JUMP JUMPDEST JUMPDEST PUSH0 PUSH2 0x23F7 DUP9 DUP3 DUP10 ADD PUSH2 0x1E9B JUMP JUMPDEST SWAP6 POP POP PUSH1 0x20 PUSH2 0x2408 DUP9 DUP3 DUP10 ADD PUSH2 0x1E9B JUMP JUMPDEST SWAP5 POP POP PUSH1 0x40 PUSH2 0x2419 DUP9 DUP3 DUP10 ADD PUSH2 0x1ED2 JUMP JUMPDEST SWAP4 POP POP PUSH1 0x60 DUP7 ADD CALLDATALOAD PUSH8 0xFFFFFFFFFFFFFFFF DUP2 GT ISZERO PUSH2 0x243A JUMPI PUSH2 0x2439 PUSH2 0x1E51 JUMP JUMPDEST JUMPDEST PUSH2 0x2446 DUP9 DUP3 DUP10 ADD PUSH2 0x237C JUMP JUMPDEST SWAP3 POP SWAP3 POP POP SWAP3 SWAP6 POP SWAP3 SWAP6 SWAP1 SWAP4 POP JUMP JUMPDEST PUSH0 PUSH32 0xFFFFFFFF00000000000000000000000000000000000000000000000000000000 DUP3 AND SWAP1 POP SWAP2 SWAP1 POP JUMP JUMPDEST PUSH2 0x2489 DUP2 PUSH2 0x2455 JUMP JUMPDEST DUP3 MSTORE POP POP JUMP JUMPDEST PUSH0 PUSH1 0x20 DUP3 ADD SWAP1 POP PUSH2 0x24A2 PUSH0 DUP4 ADD DUP5 PUSH2 0x2480 JUMP JUMPDEST SWAP3 SWAP2 POP POP JUMP JUMPDEST PUSH0 DUP2 MLOAD SWAP1 POP SWAP2 SWAP1 POP JUMP JUMPDEST PUSH0 DUP3 DUP3 MSTORE PUSH1 0x20 DUP3 ADD SWAP1 POP SWAP3 SWAP2 POP POP JUMP JUMPDEST PUSH0 JUMPDEST DUP4 DUP2 LT ISZERO PUSH2 0x24DF JUMPI DUP1 DUP3 ADD MLOAD DUP2 DUP5 ADD MSTORE PUSH1 0x20 DUP2 ADD SWAP1 POP PUSH2 0x24C4 JUMP JUMPDEST PUSH0 DUP5 DUP5 ADD MSTORE POP POP POP POP JUMP JUMPDEST PUSH0 PUSH2 0x24F4 DUP3 PUSH2 0x24A8 JUMP JUMPDEST PUSH2 0x24FE DUP2 DUP6 PUSH2 0x24B2 JUMP JUMPDEST SWAP4 POP PUSH2 0x250E DUP2 DUP6 PUSH1 0x20 DUP7 ADD PUSH2 0x24C2 JUMP JUMPDEST PUSH2 0x2517 DUP2 PUSH2 0x21C0 JUMP JUMPDEST DUP5 ADD SWAP2 POP POP SWAP3 SWAP2 POP POP JUMP JUMPDEST PUSH0 PUSH1 0x20 DUP3 ADD SWAP1 POP DUP2 DUP2 SUB PUSH0 DUP4 ADD MSTORE PUSH2 0x253A DUP2 DUP5 PUSH2 0x24EA JUMP JUMPDEST SWAP1 POP SWAP3 SWAP2 POP POP JUMP JUMPDEST PUSH0 DUP1 PUSH1 0x40 DUP4 DUP6 SUB SLT ISZERO PUSH2 0x2558 JUMPI PUSH2 0x2557 PUSH2 0x1E4D JUMP JUMPDEST JUMPDEST PUSH0 PUSH2 0x2565 DUP6 DUP3 DUP7 ADD PUSH2 0x1E9B JUMP JUMPDEST SWAP3 POP POP PUSH1 0x20 PUSH2 0x2576 DUP6 DUP3 DUP7 ADD PUSH2 0x1ED2 JUMP JUMPDEST SWAP2 POP POP SWAP3 POP SWAP3 SWAP1 POP JUMP JUMPDEST PUSH0 DUP1 PUSH1 0x40 DUP4 DUP6 SUB SLT ISZERO PUSH2 0x2596 JUMPI PUSH2 0x2595 PUSH2 0x1E4D JUMP JUMPDEST JUMPDEST PUSH0 PUSH2 0x25A3 DUP6 DUP3 DUP7 ADD PUSH2 0x1E9B JUMP JUMPDEST SWAP3 POP POP PUSH1 0x20 PUSH2 0x25B4 DUP6 DUP3 DUP7 ADD PUSH2 0x1E9B JUMP JUMPDEST SWAP2 POP POP SWAP3 POP SWAP3 SWAP1 POP JUMP JUMPDEST PUSH2 0x25C7 DUP2 PUSH2 0x2145 JUMP JUMPDEST DUP3 MSTORE POP POP JUMP JUMPDEST PUSH0 PUSH1 0x20 DUP3 ADD SWAP1 POP PUSH2 0x25E0 PUSH0 DUP4 ADD DUP5 PUSH2 0x25BE JUMP JUMPDEST SWAP3 SWAP2 POP POP JUMP JUMPDEST PUSH0 DUP2 MLOAD SWAP1 POP SWAP2 SWAP1 POP JUMP JUMPDEST PUSH0 DUP3 DUP3 MSTORE PUSH1 0x20 DUP3 ADD SWAP1 POP SWAP3 SWAP2 POP POP JUMP JUMPDEST PUSH0 PUSH2 0x260A DUP3 PUSH2 0x25E6 JUMP JUMPDEST PUSH2 0x2614 DUP2 DUP6 PUSH2 0x25F0 JUMP JUMPDEST SWAP4 POP PUSH2 0x2624 DUP2 DUP6 PUSH1 0x20 DUP7 ADD PUSH2 0x24C2 JUMP JUMPDEST PUSH2 0x262D DUP2 PUSH2 0x21C0 JUMP JUMPDEST DUP5 ADD SWAP2 POP POP SWAP3 SWAP2 POP POP JUMP JUMPDEST PUSH0 PUSH1 0x20 DUP3 ADD SWAP1 POP DUP2 DUP2 SUB PUSH0 DUP4 ADD MSTORE PUSH2 0x2650 DUP2 DUP5 PUSH2 0x2600 JUMP JUMPDEST SWAP1 POP SWAP3 SWAP2 POP POP JUMP JUMPDEST PUSH32 0x4E487B7100000000000000000000000000000000000000000000000000000000 PUSH0 MSTORE PUSH1 0x32 PUSH1 0x4 MSTORE PUSH1 0x24 PUSH0 REVERT JUMPDEST PUSH32 0x546865207472616E73666572206F66207468697320746F6B656E206973206375 PUSH0 DUP3 ADD MSTORE PUSH32 0x7272656E746C792062616E6E6564000000000000000000000000000000000000 PUSH1 0x20 DUP3 ADD MSTORE POP JUMP JUMPDEST PUSH0 PUSH2 0x26DF PUSH1 0x2E DUP4 PUSH2 0x24B2 JUMP JUMPDEST SWAP2 POP PUSH2 0x26EA DUP3 PUSH2 0x2685 JUMP JUMPDEST PUSH1 0x40 DUP3 ADD SWAP1 POP SWAP2 SWAP1 POP JUMP JUMPDEST PUSH0 PUSH1 0x20 DUP3 ADD SWAP1 POP DUP2 DUP2 SUB PUSH0 DUP4 ADD MSTORE PUSH2 0x270C DUP2 PUSH2 0x26D3 JUMP JUMPDEST SWAP1 POP SWAP2 SWAP1 POP JUMP JUMPDEST PUSH0 DUP2 SWAP1 POP SWAP2 SWAP1 POP JUMP JUMPDEST PUSH0 PUSH2 0x2736 PUSH2 0x2731 PUSH2 0x272C DUP5 PUSH2 0x1EAF JUMP JUMPDEST PUSH2 0x2713 JUMP JUMPDEST PUSH2 0x1FF5 JUMP JUMPDEST SWAP1 POP SWAP2 SWAP1 POP JUMP JUMPDEST PUSH2 0x2746 DUP2 PUSH2 0x271C JUMP JUMPDEST DUP3 MSTORE POP POP JUMP JUMPDEST PUSH0 PUSH1 0x40 DUP3 ADD SWAP1 POP PUSH2 0x275F PUSH0 DUP4 ADD DUP6 PUSH2 0x20CA JUMP JUMPDEST PUSH2 0x276C PUSH1 0x20 DUP4 ADD DUP5 PUSH2 0x273D JUMP JUMPDEST SWAP4 SWAP3 POP POP POP JUMP JUMPDEST PUSH0 PUSH1 0x60 DUP3 ADD SWAP1 POP PUSH2 0x2786 PUSH0 DUP4 ADD DUP7 PUSH2 0x20CA JUMP JUMPDEST PUSH2 0x2793 PUSH1 0x20 DUP4 ADD DUP6 PUSH2 0x273D JUMP JUMPDEST PUSH2 0x27A0 PUSH1 0x40 DUP4 ADD DUP5 PUSH2 0x20CA JUMP JUMPDEST SWAP5 SWAP4 POP POP POP POP JUMP JUMPDEST PUSH32 0x54686520696E70757420616464726573732063616E6E6F74206265207A65726F PUSH0 DUP3 ADD MSTORE POP JUMP JUMPDEST PUSH0 PUSH2 0x27DC PUSH1 0x20 DUP4 PUSH2 0x24B2 JUMP JUMPDEST SWAP2 POP PUSH2 0x27E7 DUP3 PUSH2 0x27A8 JUMP JUMPDEST PUSH1 0x20 DUP3 ADD SWAP1 POP SWAP2 SWAP1 POP JUMP JUMPDEST PUSH0 PUSH1 0x20 DUP3 ADD SWAP1 POP DUP2 DUP2 SUB PUSH0 DUP4 ADD MSTORE PUSH2 0x2809 DUP2 PUSH2 0x27D0 JUMP JUMPDEST SWAP1 POP SWAP2 SWAP1 POP JUMP JUMPDEST PUSH32 0x596F7520646F206E6F7420686176652061636365737320746F20746869732066 PUSH0 DUP3 ADD MSTORE PUSH32 0x756E6374696F6E00000000000000000000000000000000000000000000000000 PUSH1 0x20 DUP3 ADD MSTORE POP JUMP JUMPDEST PUSH0 PUSH2 0x286A PUSH1 0x27 DUP4 PUSH2 0x24B2 JUMP JUMPDEST SWAP2 POP PUSH2 0x2875 DUP3 PUSH2 0x2810 JUMP JUMPDEST PUSH1 0x40 DUP3 ADD SWAP1 POP SWAP2 SWAP1 POP JUMP JUMPDEST PUSH0 PUSH1 0x20 DUP3 ADD SWAP1 POP DUP2 DUP2 SUB PUSH0 DUP4 ADD MSTORE PUSH2 0x2897 DUP2 PUSH2 0x285E JUMP JUMPDEST SWAP1 POP SWAP2 SWAP1 POP JUMP JUMPDEST PUSH32 0x54686520656E746572656420706172616D657465727320617265206E6F742061 PUSH0 DUP3 ADD MSTORE PUSH32 0x636365707461626C650000000000000000000000000000000000000000000000 PUSH1 0x20 DUP3 ADD MSTORE POP JUMP JUMPDEST PUSH0 PUSH2 0x28F8 PUSH1 0x29 DUP4 PUSH2 0x24B2 JUMP JUMPDEST SWAP2 POP PUSH2 0x2903 DUP3 PUSH2 0x289E JUMP JUMPDEST PUSH1 0x40 DUP3 ADD SWAP1 POP SWAP2 SWAP1 POP JUMP JUMPDEST PUSH0 PUSH1 0x20 DUP3 ADD SWAP1 POP DUP2 DUP2 SUB PUSH0 DUP4 ADD MSTORE PUSH2 0x2925 DUP2 PUSH2 0x28EC JUMP JUMPDEST SWAP1 POP SWAP2 SWAP1 POP JUMP JUMPDEST PUSH32 0x596F7520646F206E6F742068617665207065726D697373696F6E20746F207570 PUSH0 DUP3 ADD MSTORE PUSH32 0x6772616465000000000000000000000000000000000000000000000000000000 PUSH1 0x20 DUP3 ADD MSTORE POP JUMP JUMPDEST PUSH0 PUSH2 0x2986 PUSH1 0x25 DUP4 PUSH2 0x24B2 JUMP JUMPDEST SWAP2 POP PUSH2 0x2991 DUP3 PUSH2 0x292C JUMP JUMPDEST PUSH1 0x40 DUP3 ADD SWAP1 POP SWAP2 SWAP1 POP JUMP JUMPDEST PUSH0 PUSH1 0x20 DUP3 ADD SWAP1 POP DUP2 DUP2 SUB PUSH0 DUP4 ADD MSTORE PUSH2 0x29B3 DUP2 PUSH2 0x297A JUMP JUMPDEST SWAP1 POP SWAP2 SWAP1 POP JUMP JUMPDEST PUSH2 0x29C3 DUP2 PUSH2 0x1FF5 JUMP JUMPDEST DUP3 MSTORE POP POP JUMP JUMPDEST PUSH0 PUSH1 0x60 DUP3 ADD SWAP1 POP PUSH2 0x29DC PUSH0 DUP4 ADD DUP7 PUSH2 0x20CA JUMP JUMPDEST PUSH2 0x29E9 PUSH1 0x20 DUP4 ADD DUP6 PUSH2 0x20CA JUMP JUMPDEST PUSH2 0x29F6 PUSH1 0x40 DUP4 ADD DUP5 PUSH2 0x29BA JUMP JUMPDEST SWAP5 SWAP4 POP POP POP POP JUMP JUMPDEST PUSH32 0x5468652061646472657373206F6620746865206F776E657220616E6420746865 PUSH0 DUP3 ADD MSTORE PUSH32 0x206F70657261746F72206D75737420626520646966666572656E740000000000 PUSH1 0x20 DUP3 ADD MSTORE POP JUMP JUMPDEST PUSH0 PUSH2 0x2A58 PUSH1 0x3B DUP4 PUSH2 0x24B2 JUMP JUMPDEST SWAP2 POP PUSH2 0x2A63 DUP3 PUSH2 0x29FE JUMP JUMPDEST PUSH1 0x40 DUP3 ADD SWAP1 POP SWAP2 SWAP1 POP JUMP JUMPDEST PUSH0 PUSH1 0x20 DUP3 ADD SWAP1 POP DUP2 DUP2 SUB PUSH0 DUP4 ADD MSTORE PUSH2 0x2A85 DUP2 PUSH2 0x2A4C JUMP JUMPDEST SWAP1 POP SWAP2 SWAP1 POP JUMP JUMPDEST PUSH0 DUP2 SWAP1 POP SWAP3 SWAP2 POP POP JUMP JUMPDEST PUSH0 PUSH2 0x2AA0 DUP3 PUSH2 0x24A8 JUMP JUMPDEST PUSH2 0x2AAA DUP2 DUP6 PUSH2 0x2A8C JUMP JUMPDEST SWAP4 POP PUSH2 0x2ABA DUP2 DUP6 PUSH1 0x20 DUP7 ADD PUSH2 0x24C2 JUMP JUMPDEST DUP1 DUP5 ADD SWAP2 POP POP SWAP3 SWAP2 POP POP JUMP JUMPDEST PUSH0 PUSH2 0x2AD1 DUP3 DUP6 PUSH2 0x2A96 JUMP JUMPDEST SWAP2 POP PUSH2 0x2ADD DUP3 DUP5 PUSH2 0x2A96 JUMP JUMPDEST SWAP2 POP DUP2 SWAP1 POP SWAP4 SWAP3 POP POP POP JUMP JUMPDEST PUSH32 0x4974206973206E6F7420706F737369626C6520746F207265676973746572206E PUSH0 DUP3 ADD MSTORE PUSH32 0x6F77000000000000000000000000000000000000000000000000000000000000 PUSH1 0x20 DUP3 ADD MSTORE POP JUMP JUMPDEST PUSH0 PUSH2 0x2B43 PUSH1 0x22 DUP4 PUSH2 0x24B2 JUMP JUMPDEST SWAP2 POP PUSH2 0x2B4E DUP3 PUSH2 0x2AE9 JUMP JUMPDEST PUSH1 0x40 DUP3 ADD SWAP1 POP SWAP2 SWAP1 POP JUMP JUMPDEST PUSH0 PUSH1 0x20 DUP3 ADD SWAP1 POP DUP2 DUP2 SUB PUSH0 DUP4 ADD MSTORE PUSH2 0x2B70 DUP2 PUSH2 0x2B37 JUMP JUMPDEST SWAP1 POP SWAP2 SWAP1 POP JUMP JUMPDEST PUSH32 0x5468652061646472657373206F66207468652072656769737472616E74206D75 PUSH0 DUP3 ADD MSTORE PUSH32 0x7374206E6F742062652030206F72207468652061646472657373206F66206120 PUSH1 0x20 DUP3 ADD MSTORE PUSH32 0x636F6E7472616374000000000000000000000000000000000000000000000000 PUSH1 0x40 DUP3 ADD MSTORE POP JUMP JUMPDEST PUSH0 PUSH2 0x2BF7 PUSH1 0x48 DUP4 PUSH2 0x24B2 JUMP JUMPDEST SWAP2 POP PUSH2 0x2C02 DUP3 PUSH2 0x2B77 JUMP JUMPDEST PUSH1 0x60 DUP3 ADD SWAP1 POP SWAP2 SWAP1 POP JUMP JUMPDEST PUSH0 PUSH1 0x20 DUP3 ADD SWAP1 POP DUP2 DUP2 SUB PUSH0 DUP4 ADD MSTORE PUSH2 0x2C24 DUP2 PUSH2 0x2BEB JUMP JUMPDEST SWAP1 POP SWAP2 SWAP1 POP JUMP JUMPDEST PUSH32 0x54686520616D6F756E742073686F756C64206E6F74206265206C657373207468 PUSH0 DUP3 ADD MSTORE PUSH32 0x616E20746865206D696E74207072696365000000000000000000000000000000 PUSH1 0x20 DUP3 ADD MSTORE POP JUMP JUMPDEST PUSH0 PUSH2 0x2C85 PUSH1 0x31 DUP4 PUSH2 0x24B2 JUMP JUMPDEST SWAP2 POP PUSH2 0x2C90 DUP3 PUSH2 0x2C2B JUMP JUMPDEST PUSH1 0x40 DUP3 ADD SWAP1 POP SWAP2 SWAP1 POP JUMP JUMPDEST PUSH0 PUSH1 0x20 DUP3 ADD SWAP1 POP DUP2 DUP2 SUB PUSH0 DUP4 ADD MSTORE PUSH2 0x2CB2 DUP2 PUSH2 0x2C79 JUMP JUMPDEST SWAP1 POP SWAP2 SWAP1 POP JUMP JUMPDEST PUSH0 DUP2 SWAP1 POP SWAP3 SWAP2 POP POP JUMP JUMPDEST POP JUMP JUMPDEST PUSH0 PUSH2 0x2CD1 PUSH0 DUP4 PUSH2 0x2CB9 JUMP JUMPDEST SWAP2 POP PUSH2 0x2CDC DUP3 PUSH2 0x2CC3 JUMP JUMPDEST PUSH0 DUP3 ADD SWAP1 POP SWAP2 SWAP1 POP JUMP JUMPDEST PUSH0 PUSH2 0x2CF0 DUP3 PUSH2 0x2CC6 JUMP JUMPDEST SWAP2 POP DUP2 SWAP1 POP SWAP2 SWAP1 POP JUMP JUMPDEST PUSH32 0x54686520616D6F756E7420776173206E6F742073656E74000000000000000000 PUSH0 DUP3 ADD MSTORE POP JUMP JUMPDEST PUSH0 PUSH2 0x2D2E PUSH1 0x17 DUP4 PUSH2 0x24B2 JUMP JUMPDEST SWAP2 POP PUSH2 0x2D39 DUP3 PUSH2 0x2CFA JUMP JUMPDEST PUSH1 0x20 DUP3 ADD SWAP1 POP SWAP2 SWAP1 POP JUMP JUMPDEST PUSH0 PUSH1 0x20 DUP3 ADD SWAP1 POP DUP2 DUP2 SUB PUSH0 DUP4 ADD MSTORE PUSH2 0x2D5B DUP2 PUSH2 0x2D22 JUMP JUMPDEST SWAP1 POP SWAP2 SWAP1 POP JUMP JUMPDEST PUSH32 0x4E487B7100000000000000000000000000000000000000000000000000000000 PUSH0 MSTORE PUSH1 0x11 PUSH1 0x4 MSTORE PUSH1 0x24 PUSH0 REVERT JUMPDEST PUSH0 PUSH2 0x2D99 DUP3 PUSH2 0x1EAF JUMP JUMPDEST SWAP2 POP PUSH2 0xFFFF DUP3 SUB PUSH2 0x2DAD JUMPI PUSH2 0x2DAC PUSH2 0x2D62 JUMP JUMPDEST JUMPDEST PUSH1 0x1 DUP3 ADD SWAP1 POP SWAP2 SWAP1 POP JUMP JUMPDEST PUSH32 0x54686520494420656E746572656420697320696E76616C69642E204974206D75 PUSH0 DUP3 ADD MSTORE PUSH32 0x737420626520696E207468697320696E74657276616C2030203C206964203C3D PUSH1 0x20 DUP3 ADD MSTORE PUSH32 0x2063757272656E7420746F6B656E730000000000000000000000000000000000 PUSH1 0x40 DUP3 ADD MSTORE POP JUMP JUMPDEST PUSH0 PUSH2 0x2E38 PUSH1 0x4F DUP4 PUSH2 0x24B2 JUMP JUMPDEST SWAP2 POP PUSH2 0x2E43 DUP3 PUSH2 0x2DB8 JUMP JUMPDEST PUSH1 0x60 DUP3 ADD SWAP1 POP SWAP2 SWAP1 POP JUMP JUMPDEST PUSH0 PUSH1 0x20 DUP3 ADD SWAP1 POP DUP2 DUP2 SUB PUSH0 DUP4 ADD MSTORE PUSH2 0x2E65 DUP2 PUSH2 0x2E2C JUMP JUMPDEST SWAP1 POP SWAP2 SWAP1 POP JUMP JUMPDEST PUSH0 PUSH2 0x2E76 DUP3 PUSH2 0x1EAF JUMP JUMPDEST SWAP2 POP PUSH2 0x2E81 DUP4 PUSH2 0x1EAF JUMP JUMPDEST SWAP3 POP DUP3 DUP3 SUB SWAP1 POP PUSH2 0xFFFF DUP2 GT ISZERO PUSH2 0x2E9B JUMPI PUSH2 0x2E9A PUSH2 0x2D62 JUMP JUMPDEST JUMPDEST SWAP3 SWAP2 POP POP JUMP JUMPDEST PUSH0 PUSH2 0x2EAB DUP3 PUSH2 0x1EAF JUMP JUMPDEST SWAP2 POP PUSH2 0x2EB6 DUP4 PUSH2 0x1EAF JUMP JUMPDEST SWAP3 POP DUP3 DUP3 ADD SWAP1 POP PUSH2 0xFFFF DUP2 GT ISZERO PUSH2 0x2ED0 JUMPI PUSH2 0x2ECF PUSH2 0x2D62 JUMP JUMPDEST JUMPDEST SWAP3 SWAP2 POP POP JUMP JUMPDEST PUSH0 PUSH1 0x80 DUP3 ADD SWAP1 POP PUSH2 0x2EE9 PUSH0 DUP4 ADD DUP8 PUSH2 0x20CA JUMP JUMPDEST PUSH2 0x2EF6 PUSH1 0x20 DUP4 ADD DUP7 PUSH2 0x20CA JUMP JUMPDEST PUSH2 0x2F03 PUSH1 0x40 DUP4 ADD DUP6 PUSH2 0x1F92 JUMP JUMPDEST DUP2 DUP2 SUB PUSH1 0x60 DUP4 ADD MSTORE PUSH2 0x2F15 DUP2 DUP5 PUSH2 0x2600 JUMP JUMPDEST SWAP1 POP SWAP6 SWAP5 POP POP POP POP POP JUMP JUMPDEST PUSH2 0x2F29 DUP2 PUSH2 0x2455 JUMP JUMPDEST DUP2 EQ PUSH2 0x2F33 JUMPI PUSH0 DUP1 REVERT JUMPDEST POP JUMP JUMPDEST PUSH0 DUP2 MLOAD SWAP1 POP PUSH2 0x2F44 DUP2 PUSH2 0x2F20 JUMP JUMPDEST SWAP3 SWAP2 POP POP JUMP JUMPDEST PUSH0 PUSH1 0x20 DUP3 DUP5 SUB SLT ISZERO PUSH2 0x2F5F JUMPI PUSH2 0x2F5E PUSH2 0x1E4D JUMP JUMPDEST JUMPDEST PUSH0 PUSH2 0x2F6C DUP5 DUP3 DUP6 ADD PUSH2 0x2F36 JUMP JUMPDEST SWAP2 POP POP SWAP3 SWAP2 POP POP JUMP JUMPDEST PUSH32 0x4E487B7100000000000000000000000000000000000000000000000000000000 PUSH0 MSTORE PUSH1 0x12 PUSH1 0x4 MSTORE PUSH1 0x24 PUSH0 REVERT INVALID LOG2 PUSH5 0x6970667358 0x22 SLT KECCAK256 CALL 0x22 SELFBALANCE SWAP1 SWAP1 PUSH32 0x2F60A32106F0917E5EB09C30722908869EF7750597DA41E7920D64736F6C6343 STOP ADDMOD EQ STOP CALLER "
				},
				"gasEstimates": {
					"creation": {
						"codeDepositCost": "2449600",
						"executionCost": "infinite",
						"totalCost": "infinite"
					},
					"external": {
						"approve(address,uint16)": "infinite",
						"balanceOf(address)": "3012",
						"getApproved(uint16)": "7375",
						"isApprovedForAll(address,address)": "infinite",
						"mint()": "211",
						"name()": "2497",
						"onERC721Received(address,address,uint16,bytes)": "infinite",
						"ownerOf(uint16)": "5213",
						"safeTransferFrom(address,address,uint16)": "infinite",
						"safeTransferFrom(address,address,uint16,bytes)": "infinite",
						"setApprovalForAll(address,bool)": "infinite",
						"setRegister()": "infinite",
						"stateVoting()": "347",
						"symbol()": "2569",
						"tokenURI(uint16)": "5541",
						"transferFrom(address,address,uint16)": "infinite",
						"updateMintInfo(uint16,uint48,address,address,uint256)": "infinite"
					},
					"internal": {
						"_aprove(address,uint16,address)": "26307",
						"_baseURI()": "infinite",
						"_checkOnERC721Received(address,address,uint16,bytes memory)": "infinite",
						"_requireOwned(uint16)": "infinite",
						"_update(address,uint16,address)": "infinite",
						"setStateVoting(bytes32)": "11"
					}
				},
				"methodIdentifiers": {
					"approve(address,uint16)": "e560ca43",
					"balanceOf(address)": "70a08231",
					"getApproved(uint16)": "93b871f2",
					"isApprovedForAll(address,address)": "e985e9c5",
					"mint()": "1249c58b",
					"name()": "06fdde03",
					"onERC721Received(address,address,uint16,bytes)": "b1cff380",
					"ownerOf(uint16)": "82a7cf1e",
					"safeTransferFrom(address,address,uint16)": "07394401",
					"safeTransferFrom(address,address,uint16,bytes)": "b145ae31",
					"setApprovalForAll(address,bool)": "a22cb465",
					"setRegister()": "ecadbc04",
					"stateVoting()": "6e1514f1",
					"symbol()": "95d89b41",
					"tokenURI(uint16)": "dd7d8440",
					"transferFrom(address,address,uint16)": "4ec3dcfe",
					"updateMintInfo(uint16,uint48,address,address,uint256)": "770fce53"
				}
			},
			"storageLayout": {
				"storage": [
					{
						"astId": 1892,
						"contract": "contracts/ERC721TokenContractName.sol:ERC721TokenContractName",
						"label": "_name",
						"offset": 0,
						"slot": "0",
						"type": "t_bytes20"
					},
					{
						"astId": 1894,
						"contract": "contracts/ERC721TokenContractName.sol:ERC721TokenContractName",
						"label": "_symbol",
						"offset": 20,
						"slot": "0",
						"type": "t_bytes10"
					},
					{
						"astId": 1916,
						"contract": "contracts/ERC721TokenContractName.sol:ERC721TokenContractName",
						"label": "mintInfo",
						"offset": 0,
						"slot": "1",
						"type": "t_struct(MintInfo)1913_storage"
					},
					{
						"astId": 1920,
						"contract": "contracts/ERC721TokenContractName.sol:ERC721TokenContractName",
						"label": "_owners",
						"offset": 0,
						"slot": "1205",
						"type": "t_array(t_address)1201_storage"
					},
					{
						"astId": 1924,
						"contract": "contracts/ERC721TokenContractName.sol:ERC721TokenContractName",
						"label": "ban",
						"offset": 0,
						"slot": "2406",
						"type": "t_array(t_bool)1201_storage"
					},
					{
						"astId": 1930,
						"contract": "contracts/ERC721TokenContractName.sol:ERC721TokenContractName",
						"label": "_balanceAndTokId",
						"offset": 0,
						"slot": "2444",
						"type": "t_mapping(t_address,t_array(t_uint16)1201_storage)"
					},
					{
						"astId": 1934,
						"contract": "contracts/ERC721TokenContractName.sol:ERC721TokenContractName",
						"label": "_tokenApprovals",
						"offset": 0,
						"slot": "2445",
						"type": "t_mapping(t_uint16,t_address)"
					},
					{
						"astId": 1940,
						"contract": "contracts/ERC721TokenContractName.sol:ERC721TokenContractName",
						"label": "_operatorApprovals",
						"offset": 0,
						"slot": "2446",
						"type": "t_mapping(t_address,t_mapping(t_address,t_bool))"
					}
				],
				"types": {
					"t_address": {
						"encoding": "inplace",
						"label": "address",
						"numberOfBytes": "20"
					},
					"t_array(t_address)1201_storage": {
						"base": "t_address",
						"encoding": "inplace",
						"label": "address[1201]",
						"numberOfBytes": "38432"
					},
					"t_array(t_bool)1201_storage": {
						"base": "t_bool",
						"encoding": "inplace",
						"label": "bool[1201]",
						"numberOfBytes": "1216"
					},
					"t_array(t_uint16)1201_storage": {
						"base": "t_uint16",
						"encoding": "inplace",
						"label": "uint16[1201]",
						"numberOfBytes": "2432"
					},
					"t_bool": {
						"encoding": "inplace",
						"label": "bool",
						"numberOfBytes": "1"
					},
					"t_bytes10": {
						"encoding": "inplace",
						"label": "bytes10",
						"numberOfBytes": "10"
					},
					"t_bytes20": {
						"encoding": "inplace",
						"label": "bytes20",
						"numberOfBytes": "20"
					},
					"t_mapping(t_address,t_array(t_uint16)1201_storage)": {
						"encoding": "mapping",
						"key": "t_address",
						"label": "mapping(address => uint16[1201])",
						"numberOfBytes": "32",
						"value": "t_array(t_uint16)1201_storage"
					},
					"t_mapping(t_address,t_bool)": {
						"encoding": "mapping",
						"key": "t_address",
						"label": "mapping(address => bool)",
						"numberOfBytes": "32",
						"value": "t_bool"
					},
					"t_mapping(t_address,t_mapping(t_address,t_bool))": {
						"encoding": "mapping",
						"key": "t_address",
						"label": "mapping(address => mapping(address => bool))",
						"numberOfBytes": "32",
						"value": "t_mapping(t_address,t_bool)"
					},
					"t_mapping(t_uint16,t_address)": {
						"encoding": "mapping",
						"key": "t_uint16",
						"label": "mapping(uint16 => address)",
						"numberOfBytes": "32",
						"value": "t_address"
					},
					"t_struct(MintInfo)1913_storage": {
						"encoding": "inplace",
						"label": "struct ERC721TokenContractName.MintInfo",
						"members": [
							{
								"astId": 1896,
								"contract": "contracts/ERC721TokenContractName.sol:ERC721TokenContractName",
								"label": "maxMint",
								"offset": 0,
								"slot": "0",
								"type": "t_uint16"
							},
							{
								"astId": 1898,
								"contract": "contracts/ERC721TokenContractName.sol:ERC721TokenContractName",
								"label": "currentTokens",
								"offset": 2,
								"slot": "0",
								"type": "t_uint16"
							},
							{
								"astId": 1900,
								"contract": "contracts/ERC721TokenContractName.sol:ERC721TokenContractName",
								"label": "nRegistrants",
								"offset": 4,
								"slot": "0",
								"type": "t_uint16"
							},
							{
								"astId": 1902,
								"contract": "contracts/ERC721TokenContractName.sol:ERC721TokenContractName",
								"label": "registrationStartTime",
								"offset": 6,
								"slot": "0",
								"type": "t_uint48"
							},
							{
								"astId": 1904,
								"contract": "contracts/ERC721TokenContractName.sol:ERC721TokenContractName",
								"label": "executor",
								"offset": 12,
								"slot": "0",
								"type": "t_address"
							},
							{
								"astId": 1906,
								"contract": "contracts/ERC721TokenContractName.sol:ERC721TokenContractName",
								"label": "bankAddress",
								"offset": 0,
								"slot": "1",
								"type": "t_address"
							},
							{
								"astId": 1908,
								"contract": "contracts/ERC721TokenContractName.sol:ERC721TokenContractName",
								"label": "mintPrice",
								"offset": 0,
								"slot": "2",
								"type": "t_uint256"
							},
							{
								"astId": 1912,
								"contract": "contracts/ERC721TokenContractName.sol:ERC721TokenContractName",
								"label": "registrants",
								"offset": 0,
								"slot": "3",
								"type": "t_array(t_address)1201_storage"
							}
						],
						"numberOfBytes": "38528"
					},
					"t_uint16": {
						"encoding": "inplace",
						"label": "uint16",
						"numberOfBytes": "2"
					},
					"t_uint256": {
						"encoding": "inplace",
						"label": "uint256",
						"numberOfBytes": "32"
					},
					"t_uint48": {
						"encoding": "inplace",
						"label": "uint48",
						"numberOfBytes": "6"
					}
				}
			},
			"userdoc": {
				"kind": "user",
				"methods": {},
				"version": 1
			}
		}
	}
}