{
	"contracts/3_Ballot.sol": {
		"BallotTCN": {
			"abi": [
				{
					"inputs": [
						{
							"components": [
								{
									"internalType": "string",
									"name": "signature",
									"type": "string"
								},
								{
									"internalType": "string",
									"name": "description",
									"type": "string"
								},
								{
									"internalType": "bytes32",
									"name": "descriptionHash",
									"type": "bytes32"
								},
								{
									"internalType": "address",
									"name": "governance",
									"type": "address"
								}
							],
							"internalType": "struct BallotTCN.CALLDATAPARAM",
							"name": "callDataParam_",
							"type": "tuple"
						},
						{
							"internalType": "uint256",
							"name": "value_",
							"type": "uint256"
						},
						{
							"components": [
								{
									"internalType": "uint16",
									"name": "quorum",
									"type": "uint16"
								},
								{
									"internalType": "uint32",
									"name": "voteDuration",
									"type": "uint32"
								},
								{
									"internalType": "uint48",
									"name": "voteStart",
									"type": "uint48"
								},
								{
									"internalType": "uint48",
									"name": "etaSeconds",
									"type": "uint48"
								}
							],
							"internalType": "struct BallotTCN.VOTINGPARAM",
							"name": "votingParams_",
							"type": "tuple"
						},
						{
							"internalType": "bytes32",
							"name": "name_",
							"type": "bytes32"
						}
					],
					"stateMutability": "nonpayable",
					"type": "constructor"
				},
				{
					"inputs": [
						{
							"internalType": "uint48",
							"name": "_voteStart",
							"type": "uint48"
						}
					],
					"name": "VotingHasNotStarted",
					"type": "error"
				},
				{
					"inputs": [
						{
							"internalType": "uint256",
							"name": "_deadLine",
							"type": "uint256"
						}
					],
					"name": "VotingIsOver",
					"type": "error"
				},
				{
					"inputs": [
						{
							"internalType": "address",
							"name": "proposer",
							"type": "address"
						}
					],
					"name": "invalidProposer",
					"type": "error"
				},
				{
					"anonymous": false,
					"inputs": [
						{
							"indexed": true,
							"internalType": "address",
							"name": "sender",
							"type": "address"
						},
						{
							"indexed": true,
							"internalType": "address",
							"name": "_this",
							"type": "address"
						}
					],
					"name": "TheVoteWasRegistered",
					"type": "event"
				},
				{
					"anonymous": false,
					"inputs": [
						{
							"indexed": true,
							"internalType": "address",
							"name": "_this",
							"type": "address"
						},
						{
							"indexed": false,
							"internalType": "uint48",
							"name": "_etaSeconds",
							"type": "uint48"
						}
					],
					"name": "etaSecondsIsActivated",
					"type": "event"
				},
				{
					"inputs": [],
					"name": "_ballotParam",
					"outputs": [
						{
							"internalType": "bytes32",
							"name": "name",
							"type": "bytes32"
						},
						{
							"internalType": "uint16",
							"name": "voteCount",
							"type": "uint16"
						},
						{
							"internalType": "uint16",
							"name": "observed",
							"type": "uint16"
						}
					],
					"stateMutability": "view",
					"type": "function"
				},
				{
					"inputs": [
						{
							"internalType": "address",
							"name": "to",
							"type": "address"
						}
					],
					"name": "delegate",
					"outputs": [],
					"stateMutability": "nonpayable",
					"type": "function"
				},
				{
					"inputs": [],
					"name": "getBallotCallData",
					"outputs": [
						{
							"internalType": "bytes",
							"name": "callData",
							"type": "bytes"
						}
					],
					"stateMutability": "view",
					"type": "function"
				},
				{
					"inputs": [],
					"name": "getBallotCallDataParams",
					"outputs": [
						{
							"internalType": "string",
							"name": "",
							"type": "string"
						},
						{
							"internalType": "string",
							"name": "",
							"type": "string"
						},
						{
							"internalType": "bytes32",
							"name": "",
							"type": "bytes32"
						},
						{
							"internalType": "address",
							"name": "",
							"type": "address"
						}
					],
					"stateMutability": "view",
					"type": "function"
				},
				{
					"inputs": [],
					"name": "getBallotParam",
					"outputs": [
						{
							"internalType": "bytes32",
							"name": "name",
							"type": "bytes32"
						},
						{
							"internalType": "uint16",
							"name": "voteCount",
							"type": "uint16"
						},
						{
							"internalType": "uint16",
							"name": "observed",
							"type": "uint16"
						}
					],
					"stateMutability": "view",
					"type": "function"
				},
				{
					"inputs": [],
					"name": "getBallotProposalId",
					"outputs": [
						{
							"internalType": "uint256",
							"name": "proposalId",
							"type": "uint256"
						}
					],
					"stateMutability": "view",
					"type": "function"
				},
				{
					"inputs": [],
					"name": "getBallotProposalParams",
					"outputs": [
						{
							"internalType": "address",
							"name": "",
							"type": "address"
						},
						{
							"internalType": "address",
							"name": "",
							"type": "address"
						},
						{
							"internalType": "uint256",
							"name": "",
							"type": "uint256"
						}
					],
					"stateMutability": "view",
					"type": "function"
				},
				{
					"inputs": [],
					"name": "getBalootVotingParams",
					"outputs": [
						{
							"internalType": "uint16",
							"name": "",
							"type": "uint16"
						},
						{
							"internalType": "uint32",
							"name": "",
							"type": "uint32"
						},
						{
							"internalType": "uint48",
							"name": "",
							"type": "uint48"
						},
						{
							"internalType": "uint48",
							"name": "",
							"type": "uint48"
						}
					],
					"stateMutability": "view",
					"type": "function"
				},
				{
					"inputs": [
						{
							"internalType": "bool",
							"name": "opinion",
							"type": "bool"
						}
					],
					"name": "vote",
					"outputs": [],
					"stateMutability": "nonpayable",
					"type": "function"
				},
				{
					"inputs": [],
					"name": "voteCountProposal",
					"outputs": [
						{
							"internalType": "uint256",
							"name": "winningProposal_",
							"type": "uint256"
						}
					],
					"stateMutability": "view",
					"type": "function"
				}
			],
			"devdoc": {
				"details": "Implements voting process along with vote delegation",
				"kind": "dev",
				"methods": {
					"delegate(address)": {
						"details": "Delegate your vote to the voter 'to'.",
						"params": {
							"to": "address to which vote is delegated"
						}
					},
					"vote(bool)": {
						"details": "Give your vote (including votes delegated to you).",
						"params": {
							"opinion": "index of opinion in the vote function"
						}
					},
					"voteCountProposal()": {
						"details": "Computes the winning proposal taking all previous votes into account.",
						"returns": {
							"winningProposal_": "index of winning proposal in the proposals array"
						}
					}
				},
				"title": "Ballot",
				"version": 1
			},
			"evm": {
				"assembly": "    /* \"contracts/3_Ballot.sol\":327:8915  contract BallotTCN {... */\n  mstore(0x40, 0x80)\n    /* \"contracts/3_Ballot.sol\":2389:3314  constructor(... */\n  callvalue\n  dup1\n  iszero\n  tag_1\n  jumpi\n  0x00\n  dup1\n  revert\ntag_1:\n  pop\n  mload(0x40)\n  sub(codesize, bytecodeSize)\n  dup1\n  bytecodeSize\n  dup4\n  codecopy\n  dup2\n  dup2\n  add\n  0x40\n  mstore\n  dup2\n  add\n  swap1\n  tag_2\n  swap2\n  swap1\n  tag_3\n  jump\t// in\ntag_2:\n    /* \"contracts/3_Ballot.sol\":2590:2604  callDataParam_ */\n  dup4\n    /* \"contracts/3_Ballot.sol\":2573:2587  _callDataParam */\n  0x04\n    /* \"contracts/3_Ballot.sol\":2573:2604  _callDataParam = callDataParam_ */\n  0x00\n  dup3\n  add\n  mload\n  dup2\n  0x00\n  add\n  swap1\n  dup2\n  tag_6\n  swap2\n  swap1\n  tag_7\n  jump\t// in\ntag_6:\n  pop\n  0x20\n  dup3\n  add\n  mload\n  dup2\n  0x01\n  add\n  swap1\n  dup2\n  tag_8\n  swap2\n  swap1\n  tag_7\n  jump\t// in\ntag_8:\n  pop\n  0x40\n  dup3\n  add\n  mload\n  dup2\n  0x02\n  add\n  sstore\n  0x60\n  dup3\n  add\n  mload\n  dup2\n  0x03\n  add\n  exp(0x0100, 0x00)\n  dup2\n  sload\n  dup2\n  0xffffffffffffffffffffffffffffffffffffffff\n  mul\n  not\n  and\n  swap1\n  dup4\n  0xffffffffffffffffffffffffffffffffffffffff\n  and\n  mul\n  or\n  swap1\n  sstore\n  pop\n  swap1\n  pop\n  pop\n    /* \"contracts/3_Ballot.sol\":2668:2682  _callDataParam */\n  0x04\n    /* \"contracts/3_Ballot.sol\":2668:2694  _callDataParam.description */\n  0x01\n  add\n    /* \"contracts/3_Ballot.sol\":2657:2695  abi.encode(_callDataParam.description) */\n  add(0x20, mload(0x40))\n  tag_9\n  swap2\n  swap1\n  tag_10\n  jump\t// in\ntag_9:\n  mload(0x40)\n  0x20\n  dup2\n  dup4\n  sub\n  sub\n  dup2\n  mstore\n  swap1\n  0x40\n  mstore\n    /* \"contracts/3_Ballot.sol\":2647:2696  keccak256(abi.encode(_callDataParam.description)) */\n  dup1\n  mload\n  swap1\n  0x20\n  add\n  keccak256\n    /* \"contracts/3_Ballot.sol\":2614:2628  _callDataParam */\n  0x04\n    /* \"contracts/3_Ballot.sol\":2614:2644  _callDataParam.descriptionHash */\n  0x02\n  add\n    /* \"contracts/3_Ballot.sol\":2614:2696  _callDataParam.descriptionHash = keccak256(abi.encode(_callDataParam.description)) */\n  dup2\n  swap1\n  sstore\n  pop\n    /* \"contracts/3_Ballot.sol\":2760:2770  msg.sender */\n  caller\n    /* \"contracts/3_Ballot.sol\":2733:2748  _proposalParams */\n  0x08\n    /* \"contracts/3_Ballot.sol\":2733:2757  _proposalParams.proposer */\n  0x01\n  add\n  0x00\n    /* \"contracts/3_Ballot.sol\":2733:2770  _proposalParams.proposer = msg.sender */\n  0x0100\n  exp\n  dup2\n  sload\n  dup2\n  0xffffffffffffffffffffffffffffffffffffffff\n  mul\n  not\n  and\n  swap1\n  dup4\n  0xffffffffffffffffffffffffffffffffffffffff\n  and\n  mul\n  or\n  swap1\n  sstore\n  pop\n    /* \"contracts/3_Ballot.sol\":2805:2822  _targetConnectors */\n  0x0b\n    /* \"contracts/3_Ballot.sol\":2805:2848  _targetConnectors[_proposalParams.proposer] */\n  0x00\n    /* \"contracts/3_Ballot.sol\":2823:2838  _proposalParams */\n  0x08\n    /* \"contracts/3_Ballot.sol\":2823:2847  _proposalParams.proposer */\n  0x01\n  add\n  0x00\n  swap1\n  sload\n  swap1\n  0x0100\n  exp\n  swap1\n  div\n  0xffffffffffffffffffffffffffffffffffffffff\n  and\n    /* \"contracts/3_Ballot.sol\":2805:2848  _targetConnectors[_proposalParams.proposer] */\n  0xffffffffffffffffffffffffffffffffffffffff\n  and\n  0xffffffffffffffffffffffffffffffffffffffff\n  and\n  dup2\n  mstore\n  0x20\n  add\n  swap1\n  dup2\n  mstore\n  0x20\n  add\n  0x00\n  keccak256\n  0x00\n  swap1\n  sload\n  swap1\n  0x0100\n  exp\n  swap1\n  div\n  0xffffffffffffffffffffffffffffffffffffffff\n  and\n    /* \"contracts/3_Ballot.sol\":2780:2795  _proposalParams */\n  0x08\n    /* \"contracts/3_Ballot.sol\":2780:2802  _proposalParams.target */\n  0x00\n  add\n  0x00\n    /* \"contracts/3_Ballot.sol\":2780:2848  _proposalParams.target = _targetConnectors[_proposalParams.proposer] */\n  0x0100\n  exp\n  dup2\n  sload\n  dup2\n  0xffffffffffffffffffffffffffffffffffffffff\n  mul\n  not\n  and\n  swap1\n  dup4\n  0xffffffffffffffffffffffffffffffffffffffff\n  and\n  mul\n  or\n  swap1\n  sstore\n  pop\n    /* \"contracts/3_Ballot.sol\":2896:2897  0 */\n  0x00\n    /* \"contracts/3_Ballot.sol\":2862:2898  _proposalParams.target == address(0) */\n  0xffffffffffffffffffffffffffffffffffffffff\n  and\n    /* \"contracts/3_Ballot.sol\":2862:2877  _proposalParams */\n  0x08\n    /* \"contracts/3_Ballot.sol\":2862:2884  _proposalParams.target */\n  0x00\n  add\n  0x00\n  swap1\n  sload\n  swap1\n  0x0100\n  exp\n  swap1\n  div\n  0xffffffffffffffffffffffffffffffffffffffff\n  and\n    /* \"contracts/3_Ballot.sol\":2862:2898  _proposalParams.target == address(0) */\n  0xffffffffffffffffffffffffffffffffffffffff\n  and\n  sub\n    /* \"contracts/3_Ballot.sol\":2858:2973  if (_proposalParams.target == address(0)) {... */\n  tag_11\n  jumpi\n    /* \"contracts/3_Ballot.sol\":2937:2952  _proposalParams */\n  0x08\n    /* \"contracts/3_Ballot.sol\":2937:2961  _proposalParams.proposer */\n  0x01\n  add\n  0x00\n  swap1\n  sload\n  swap1\n  0x0100\n  exp\n  swap1\n  div\n  0xffffffffffffffffffffffffffffffffffffffff\n  and\n    /* \"contracts/3_Ballot.sol\":2921:2962  invalidProposer(_proposalParams.proposer) */\n  mload(0x40)\n  0xdefe7bd300000000000000000000000000000000000000000000000000000000\n  dup2\n  mstore\n  0x04\n  add\n  tag_12\n  swap2\n  swap1\n  tag_13\n  jump\t// in\ntag_12:\n  mload(0x40)\n  dup1\n  swap2\n  sub\n  swap1\n  revert\n    /* \"contracts/3_Ballot.sol\":2858:2973  if (_proposalParams.target == address(0)) {... */\ntag_11:\n    /* \"contracts/3_Ballot.sol\":3006:3012  value_ */\n  dup3\n    /* \"contracts/3_Ballot.sol\":2982:2997  _proposalParams */\n  0x08\n    /* \"contracts/3_Ballot.sol\":2982:3003  _proposalParams.value */\n  0x02\n  add\n    /* \"contracts/3_Ballot.sol\":2982:3012  _proposalParams.value = value_ */\n  dup2\n  swap1\n  sstore\n  pop\n    /* \"contracts/3_Ballot.sol\":3063:3076  votingParams_ */\n  dup2\n    /* \"contracts/3_Ballot.sol\":3047:3060  _votingParams */\n  0x02\n    /* \"contracts/3_Ballot.sol\":3047:3076  _votingParams = votingParams_ */\n  0x00\n  dup3\n  add\n  mload\n  dup2\n  0x00\n  add\n  exp(0x0100, 0x00)\n  dup2\n  sload\n  dup2\n  0xffff\n  mul\n  not\n  and\n  swap1\n  dup4\n  0xffff\n  and\n  mul\n  or\n  swap1\n  sstore\n  pop\n  0x20\n  dup3\n  add\n  mload\n  dup2\n  0x00\n  add\n  exp(0x0100, 0x02)\n  dup2\n  sload\n  dup2\n  0xffffffff\n  mul\n  not\n  and\n  swap1\n  dup4\n  0xffffffff\n  and\n  mul\n  or\n  swap1\n  sstore\n  pop\n  0x40\n  dup3\n  add\n  mload\n  dup2\n  0x00\n  add\n  exp(0x0100, 0x06)\n  dup2\n  sload\n  dup2\n  0xffffffffffff\n  mul\n  not\n  and\n  swap1\n  dup4\n  0xffffffffffff\n  and\n  mul\n  or\n  swap1\n  sstore\n  pop\n  0x60\n  dup3\n  add\n  mload\n  dup2\n  0x00\n  add\n  exp(0x0100, 0x0c)\n  dup2\n  sload\n  dup2\n  0xffffffffffff\n  mul\n  not\n  and\n  swap1\n  dup4\n  0xffffffffffff\n  and\n  mul\n  or\n  swap1\n  sstore\n  pop\n  swap1\n  pop\n  pop\n    /* \"contracts/3_Ballot.sol\":3124:3137  _votingParams */\n  0x02\n    /* \"contracts/3_Ballot.sol\":3124:3150  _votingParams.voteDuration */\n  0x00\n  add\n  0x02\n  swap1\n  sload\n  swap1\n  0x0100\n  exp\n  swap1\n  div\n  0xffffffff\n  and\n    /* \"contracts/3_Ballot.sol\":3098:3150  _votingParams.voteStart + _votingParams.voteDuration */\n  0xffffffff\n  and\n    /* \"contracts/3_Ballot.sol\":3098:3111  _votingParams */\n  0x02\n    /* \"contracts/3_Ballot.sol\":3098:3121  _votingParams.voteStart */\n  0x00\n  add\n  0x06\n  swap1\n  sload\n  swap1\n  0x0100\n  exp\n  swap1\n  div\n  0xffffffffffff\n  and\n    /* \"contracts/3_Ballot.sol\":3098:3150  _votingParams.voteStart + _votingParams.voteDuration */\n  tag_14\n  swap2\n  swap1\n  tag_15\n  jump\t// in\ntag_14:\n    /* \"contracts/3_Ballot.sol\":3086:3150  _deadLine = _votingParams.voteStart + _votingParams.voteDuration */\n  0xffffffffffff\n  and\n    /* \"contracts/3_Ballot.sol\":3086:3095  _deadLine */\n  0x03\n    /* \"contracts/3_Ballot.sol\":3086:3150  _deadLine = _votingParams.voteStart + _votingParams.voteDuration */\n  dup2\n  swap1\n  sstore\n  pop\n    /* \"contracts/3_Ballot.sol\":3205:3210  name_ */\n  dup1\n    /* \"contracts/3_Ballot.sol\":3185:3197  _ballotParam */\n  0x00\n    /* \"contracts/3_Ballot.sol\":3185:3202  _ballotParam.name */\n  dup1\n  add\n    /* \"contracts/3_Ballot.sol\":3185:3210  _ballotParam.name = name_ */\n  dup2\n  swap1\n  sstore\n  pop\n    /* \"contracts/3_Ballot.sol\":3245:3246  0 */\n  0x00\n    /* \"contracts/3_Ballot.sol\":3220:3232  _ballotParam */\n  dup1\n    /* \"contracts/3_Ballot.sol\":3220:3242  _ballotParam.voteCount */\n  0x01\n  add\n  0x00\n    /* \"contracts/3_Ballot.sol\":3220:3246  _ballotParam.voteCount = 0 */\n  0x0100\n  exp\n  dup2\n  sload\n  dup2\n  0xffff\n  mul\n  not\n  and\n  swap1\n  dup4\n  0xffff\n  and\n  mul\n  or\n  swap1\n  sstore\n  pop\n    /* \"contracts/3_Ballot.sol\":3280:3281  0 */\n  0x00\n    /* \"contracts/3_Ballot.sol\":3256:3268  _ballotParam */\n  dup1\n    /* \"contracts/3_Ballot.sol\":3256:3277  _ballotParam.observed */\n  0x01\n  add\n  0x02\n    /* \"contracts/3_Ballot.sol\":3256:3281  _ballotParam.observed = 0 */\n  0x0100\n  exp\n  dup2\n  sload\n  dup2\n  0xffff\n  mul\n  not\n  and\n  swap1\n  dup4\n  0xffff\n  and\n  mul\n  or\n  swap1\n  sstore\n  pop\n    /* \"contracts/3_Ballot.sol\":2389:3314  constructor(... */\n  pop\n  pop\n  pop\n  pop\n    /* \"contracts/3_Ballot.sol\":327:8915  contract BallotTCN {... */\n  jump(tag_16)\n    /* \"#utility.yul\":7:82   */\ntag_17:\n    /* \"#utility.yul\":40:46   */\n  0x00\n    /* \"#utility.yul\":73:75   */\n  0x40\n    /* \"#utility.yul\":67:76   */\n  mload\n    /* \"#utility.yul\":57:76   */\n  swap1\n  pop\n    /* \"#utility.yul\":7:82   */\n  swap1\n  jump\t// out\n    /* \"#utility.yul\":88:205   */\ntag_18:\n    /* \"#utility.yul\":197:198   */\n  0x00\n    /* \"#utility.yul\":194:195   */\n  dup1\n    /* \"#utility.yul\":187:199   */\n  revert\n    /* \"#utility.yul\":211:328   */\ntag_19:\n    /* \"#utility.yul\":320:321   */\n  0x00\n    /* \"#utility.yul\":317:318   */\n  dup1\n    /* \"#utility.yul\":310:322   */\n  revert\n    /* \"#utility.yul\":334:451   */\ntag_20:\n    /* \"#utility.yul\":443:444   */\n  0x00\n    /* \"#utility.yul\":440:441   */\n  dup1\n    /* \"#utility.yul\":433:445   */\n  revert\n    /* \"#utility.yul\":457:559   */\ntag_21:\n    /* \"#utility.yul\":498:504   */\n  0x00\n    /* \"#utility.yul\":549:551   */\n  0x1f\n    /* \"#utility.yul\":545:552   */\n  not\n    /* \"#utility.yul\":540:542   */\n  0x1f\n    /* \"#utility.yul\":533:538   */\n  dup4\n    /* \"#utility.yul\":529:543   */\n  add\n    /* \"#utility.yul\":525:553   */\n  and\n    /* \"#utility.yul\":515:553   */\n  swap1\n  pop\n    /* \"#utility.yul\":457:559   */\n  swap2\n  swap1\n  pop\n  jump\t// out\n    /* \"#utility.yul\":565:745   */\ntag_22:\n    /* \"#utility.yul\":613:690   */\n  0x4e487b7100000000000000000000000000000000000000000000000000000000\n    /* \"#utility.yul\":610:611   */\n  0x00\n    /* \"#utility.yul\":603:691   */\n  mstore\n    /* \"#utility.yul\":710:714   */\n  0x41\n    /* \"#utility.yul\":707:708   */\n  0x04\n    /* \"#utility.yul\":700:715   */\n  mstore\n    /* \"#utility.yul\":734:738   */\n  0x24\n    /* \"#utility.yul\":731:732   */\n  0x00\n    /* \"#utility.yul\":724:739   */\n  revert\n    /* \"#utility.yul\":751:1032   */\ntag_23:\n    /* \"#utility.yul\":834:861   */\n  tag_83\n    /* \"#utility.yul\":856:860   */\n  dup3\n    /* \"#utility.yul\":834:861   */\n  tag_21\n  jump\t// in\ntag_83:\n    /* \"#utility.yul\":826:832   */\n  dup2\n    /* \"#utility.yul\":822:862   */\n  add\n    /* \"#utility.yul\":964:970   */\n  dup2\n    /* \"#utility.yul\":952:962   */\n  dup2\n    /* \"#utility.yul\":949:971   */\n  lt\n    /* \"#utility.yul\":928:946   */\n  0xffffffffffffffff\n    /* \"#utility.yul\":916:926   */\n  dup3\n    /* \"#utility.yul\":913:947   */\n  gt\n    /* \"#utility.yul\":910:972   */\n  or\n    /* \"#utility.yul\":907:995   */\n  iszero\n  tag_84\n  jumpi\n    /* \"#utility.yul\":975:993   */\n  tag_85\n  tag_22\n  jump\t// in\ntag_85:\n    /* \"#utility.yul\":907:995   */\ntag_84:\n    /* \"#utility.yul\":1015:1025   */\n  dup1\n    /* \"#utility.yul\":1011:1013   */\n  0x40\n    /* \"#utility.yul\":1004:1026   */\n  mstore\n    /* \"#utility.yul\":794:1032   */\n  pop\n    /* \"#utility.yul\":751:1032   */\n  pop\n  pop\n  jump\t// out\n    /* \"#utility.yul\":1038:1167   */\ntag_24:\n    /* \"#utility.yul\":1072:1078   */\n  0x00\n    /* \"#utility.yul\":1099:1119   */\n  tag_87\n  tag_17\n  jump\t// in\ntag_87:\n    /* \"#utility.yul\":1089:1119   */\n  swap1\n  pop\n    /* \"#utility.yul\":1128:1161   */\n  tag_88\n    /* \"#utility.yul\":1156:1160   */\n  dup3\n    /* \"#utility.yul\":1148:1154   */\n  dup3\n    /* \"#utility.yul\":1128:1161   */\n  tag_23\n  jump\t// in\ntag_88:\n    /* \"#utility.yul\":1038:1167   */\n  swap2\n  swap1\n  pop\n  jump\t// out\n    /* \"#utility.yul\":1173:1290   */\ntag_25:\n    /* \"#utility.yul\":1282:1283   */\n  0x00\n    /* \"#utility.yul\":1279:1280   */\n  dup1\n    /* \"#utility.yul\":1272:1284   */\n  revert\n    /* \"#utility.yul\":1296:1413   */\ntag_26:\n    /* \"#utility.yul\":1405:1406   */\n  0x00\n    /* \"#utility.yul\":1402:1403   */\n  dup1\n    /* \"#utility.yul\":1395:1407   */\n  revert\n    /* \"#utility.yul\":1419:1536   */\ntag_27:\n    /* \"#utility.yul\":1528:1529   */\n  0x00\n    /* \"#utility.yul\":1525:1526   */\n  dup1\n    /* \"#utility.yul\":1518:1530   */\n  revert\n    /* \"#utility.yul\":1542:1850   */\ntag_28:\n    /* \"#utility.yul\":1604:1608   */\n  0x00\n    /* \"#utility.yul\":1694:1712   */\n  0xffffffffffffffff\n    /* \"#utility.yul\":1686:1692   */\n  dup3\n    /* \"#utility.yul\":1683:1713   */\n  gt\n    /* \"#utility.yul\":1680:1736   */\n  iszero\n  tag_93\n  jumpi\n    /* \"#utility.yul\":1716:1734   */\n  tag_94\n  tag_22\n  jump\t// in\ntag_94:\n    /* \"#utility.yul\":1680:1736   */\ntag_93:\n    /* \"#utility.yul\":1754:1783   */\n  tag_95\n    /* \"#utility.yul\":1776:1782   */\n  dup3\n    /* \"#utility.yul\":1754:1783   */\n  tag_21\n  jump\t// in\ntag_95:\n    /* \"#utility.yul\":1746:1783   */\n  swap1\n  pop\n    /* \"#utility.yul\":1838:1842   */\n  0x20\n    /* \"#utility.yul\":1832:1836   */\n  dup2\n    /* \"#utility.yul\":1828:1843   */\n  add\n    /* \"#utility.yul\":1820:1843   */\n  swap1\n  pop\n    /* \"#utility.yul\":1542:1850   */\n  swap2\n  swap1\n  pop\n  jump\t// out\n    /* \"#utility.yul\":1856:2102   */\ntag_29:\n    /* \"#utility.yul\":1937:1938   */\n  0x00\n    /* \"#utility.yul\":1947:2060   */\ntag_97:\n    /* \"#utility.yul\":1961:1967   */\n  dup4\n    /* \"#utility.yul\":1958:1959   */\n  dup2\n    /* \"#utility.yul\":1955:1968   */\n  lt\n    /* \"#utility.yul\":1947:2060   */\n  iszero\n  tag_99\n  jumpi\n    /* \"#utility.yul\":2046:2047   */\n  dup1\n    /* \"#utility.yul\":2041:2044   */\n  dup3\n    /* \"#utility.yul\":2037:2048   */\n  add\n    /* \"#utility.yul\":2031:2049   */\n  mload\n    /* \"#utility.yul\":2027:2028   */\n  dup2\n    /* \"#utility.yul\":2022:2025   */\n  dup5\n    /* \"#utility.yul\":2018:2029   */\n  add\n    /* \"#utility.yul\":2011:2050   */\n  mstore\n    /* \"#utility.yul\":1983:1985   */\n  0x20\n    /* \"#utility.yul\":1980:1981   */\n  dup2\n    /* \"#utility.yul\":1976:1986   */\n  add\n    /* \"#utility.yul\":1971:1986   */\n  swap1\n  pop\n    /* \"#utility.yul\":1947:2060   */\n  jump(tag_97)\ntag_99:\n    /* \"#utility.yul\":2094:2095   */\n  0x00\n    /* \"#utility.yul\":2085:2091   */\n  dup5\n    /* \"#utility.yul\":2080:2083   */\n  dup5\n    /* \"#utility.yul\":2076:2092   */\n  add\n    /* \"#utility.yul\":2069:2096   */\n  mstore\n    /* \"#utility.yul\":1918:2102   */\n  pop\n    /* \"#utility.yul\":1856:2102   */\n  pop\n  pop\n  pop\n  jump\t// out\n    /* \"#utility.yul\":2108:2542   */\ntag_30:\n    /* \"#utility.yul\":2197:2202   */\n  0x00\n    /* \"#utility.yul\":2222:2288   */\n  tag_101\n    /* \"#utility.yul\":2238:2287   */\n  tag_102\n    /* \"#utility.yul\":2280:2286   */\n  dup5\n    /* \"#utility.yul\":2238:2287   */\n  tag_28\n  jump\t// in\ntag_102:\n    /* \"#utility.yul\":2222:2288   */\n  tag_24\n  jump\t// in\ntag_101:\n    /* \"#utility.yul\":2213:2288   */\n  swap1\n  pop\n    /* \"#utility.yul\":2311:2317   */\n  dup3\n    /* \"#utility.yul\":2304:2309   */\n  dup2\n    /* \"#utility.yul\":2297:2318   */\n  mstore\n    /* \"#utility.yul\":2349:2353   */\n  0x20\n    /* \"#utility.yul\":2342:2347   */\n  dup2\n    /* \"#utility.yul\":2338:2354   */\n  add\n    /* \"#utility.yul\":2387:2390   */\n  dup5\n    /* \"#utility.yul\":2378:2384   */\n  dup5\n    /* \"#utility.yul\":2373:2376   */\n  dup5\n    /* \"#utility.yul\":2369:2385   */\n  add\n    /* \"#utility.yul\":2366:2391   */\n  gt\n    /* \"#utility.yul\":2363:2475   */\n  iszero\n  tag_103\n  jumpi\n    /* \"#utility.yul\":2394:2473   */\n  tag_104\n  tag_27\n  jump\t// in\ntag_104:\n    /* \"#utility.yul\":2363:2475   */\ntag_103:\n    /* \"#utility.yul\":2484:2536   */\n  tag_105\n    /* \"#utility.yul\":2529:2535   */\n  dup5\n    /* \"#utility.yul\":2524:2527   */\n  dup3\n    /* \"#utility.yul\":2519:2522   */\n  dup6\n    /* \"#utility.yul\":2484:2536   */\n  tag_29\n  jump\t// in\ntag_105:\n    /* \"#utility.yul\":2203:2542   */\n  pop\n    /* \"#utility.yul\":2108:2542   */\n  swap4\n  swap3\n  pop\n  pop\n  pop\n  jump\t// out\n    /* \"#utility.yul\":2562:2917   */\ntag_31:\n    /* \"#utility.yul\":2629:2634   */\n  0x00\n    /* \"#utility.yul\":2678:2681   */\n  dup3\n    /* \"#utility.yul\":2671:2675   */\n  0x1f\n    /* \"#utility.yul\":2663:2669   */\n  dup4\n    /* \"#utility.yul\":2659:2676   */\n  add\n    /* \"#utility.yul\":2655:2682   */\n  slt\n    /* \"#utility.yul\":2645:2767   */\n  tag_107\n  jumpi\n    /* \"#utility.yul\":2686:2765   */\n  tag_108\n  tag_26\n  jump\t// in\ntag_108:\n    /* \"#utility.yul\":2645:2767   */\ntag_107:\n    /* \"#utility.yul\":2796:2802   */\n  dup2\n    /* \"#utility.yul\":2790:2803   */\n  mload\n    /* \"#utility.yul\":2821:2911   */\n  tag_109\n    /* \"#utility.yul\":2907:2910   */\n  dup5\n    /* \"#utility.yul\":2899:2905   */\n  dup3\n    /* \"#utility.yul\":2892:2896   */\n  0x20\n    /* \"#utility.yul\":2884:2890   */\n  dup7\n    /* \"#utility.yul\":2880:2897   */\n  add\n    /* \"#utility.yul\":2821:2911   */\n  tag_30\n  jump\t// in\ntag_109:\n    /* \"#utility.yul\":2812:2911   */\n  swap2\n  pop\n    /* \"#utility.yul\":2635:2917   */\n  pop\n    /* \"#utility.yul\":2562:2917   */\n  swap3\n  swap2\n  pop\n  pop\n  jump\t// out\n    /* \"#utility.yul\":2923:3000   */\ntag_32:\n    /* \"#utility.yul\":2960:2967   */\n  0x00\n    /* \"#utility.yul\":2989:2994   */\n  dup2\n    /* \"#utility.yul\":2978:2994   */\n  swap1\n  pop\n    /* \"#utility.yul\":2923:3000   */\n  swap2\n  swap1\n  pop\n  jump\t// out\n    /* \"#utility.yul\":3006:3128   */\ntag_33:\n    /* \"#utility.yul\":3079:3103   */\n  tag_112\n    /* \"#utility.yul\":3097:3102   */\n  dup2\n    /* \"#utility.yul\":3079:3103   */\n  tag_32\n  jump\t// in\ntag_112:\n    /* \"#utility.yul\":3072:3077   */\n  dup2\n    /* \"#utility.yul\":3069:3104   */\n  eq\n    /* \"#utility.yul\":3059:3122   */\n  tag_113\n  jumpi\n    /* \"#utility.yul\":3118:3119   */\n  0x00\n    /* \"#utility.yul\":3115:3116   */\n  dup1\n    /* \"#utility.yul\":3108:3120   */\n  revert\n    /* \"#utility.yul\":3059:3122   */\ntag_113:\n    /* \"#utility.yul\":3006:3128   */\n  pop\n  jump\t// out\n    /* \"#utility.yul\":3134:3277   */\ntag_34:\n    /* \"#utility.yul\":3191:3196   */\n  0x00\n    /* \"#utility.yul\":3222:3228   */\n  dup2\n    /* \"#utility.yul\":3216:3229   */\n  mload\n    /* \"#utility.yul\":3207:3229   */\n  swap1\n  pop\n    /* \"#utility.yul\":3238:3271   */\n  tag_115\n    /* \"#utility.yul\":3265:3270   */\n  dup2\n    /* \"#utility.yul\":3238:3271   */\n  tag_33\n  jump\t// in\ntag_115:\n    /* \"#utility.yul\":3134:3277   */\n  swap3\n  swap2\n  pop\n  pop\n  jump\t// out\n    /* \"#utility.yul\":3283:3409   */\ntag_35:\n    /* \"#utility.yul\":3320:3327   */\n  0x00\n    /* \"#utility.yul\":3360:3402   */\n  0xffffffffffffffffffffffffffffffffffffffff\n    /* \"#utility.yul\":3353:3358   */\n  dup3\n    /* \"#utility.yul\":3349:3403   */\n  and\n    /* \"#utility.yul\":3338:3403   */\n  swap1\n  pop\n    /* \"#utility.yul\":3283:3409   */\n  swap2\n  swap1\n  pop\n  jump\t// out\n    /* \"#utility.yul\":3415:3511   */\ntag_36:\n    /* \"#utility.yul\":3452:3459   */\n  0x00\n    /* \"#utility.yul\":3481:3505   */\n  tag_118\n    /* \"#utility.yul\":3499:3504   */\n  dup3\n    /* \"#utility.yul\":3481:3505   */\n  tag_35\n  jump\t// in\ntag_118:\n    /* \"#utility.yul\":3470:3505   */\n  swap1\n  pop\n    /* \"#utility.yul\":3415:3511   */\n  swap2\n  swap1\n  pop\n  jump\t// out\n    /* \"#utility.yul\":3517:3639   */\ntag_37:\n    /* \"#utility.yul\":3590:3614   */\n  tag_120\n    /* \"#utility.yul\":3608:3613   */\n  dup2\n    /* \"#utility.yul\":3590:3614   */\n  tag_36\n  jump\t// in\ntag_120:\n    /* \"#utility.yul\":3583:3588   */\n  dup2\n    /* \"#utility.yul\":3580:3615   */\n  eq\n    /* \"#utility.yul\":3570:3633   */\n  tag_121\n  jumpi\n    /* \"#utility.yul\":3629:3630   */\n  0x00\n    /* \"#utility.yul\":3626:3627   */\n  dup1\n    /* \"#utility.yul\":3619:3631   */\n  revert\n    /* \"#utility.yul\":3570:3633   */\ntag_121:\n    /* \"#utility.yul\":3517:3639   */\n  pop\n  jump\t// out\n    /* \"#utility.yul\":3645:3788   */\ntag_38:\n    /* \"#utility.yul\":3702:3707   */\n  0x00\n    /* \"#utility.yul\":3733:3739   */\n  dup2\n    /* \"#utility.yul\":3727:3740   */\n  mload\n    /* \"#utility.yul\":3718:3740   */\n  swap1\n  pop\n    /* \"#utility.yul\":3749:3782   */\n  tag_123\n    /* \"#utility.yul\":3776:3781   */\n  dup2\n    /* \"#utility.yul\":3749:3782   */\n  tag_37\n  jump\t// in\ntag_123:\n    /* \"#utility.yul\":3645:3788   */\n  swap3\n  swap2\n  pop\n  pop\n  jump\t// out\n    /* \"#utility.yul\":3832:5142   */\ntag_39:\n    /* \"#utility.yul\":3921:3926   */\n  0x00\n    /* \"#utility.yul\":3965:3969   */\n  0x80\n    /* \"#utility.yul\":3953:3962   */\n  dup3\n    /* \"#utility.yul\":3948:3951   */\n  dup5\n    /* \"#utility.yul\":3944:3963   */\n  sub\n    /* \"#utility.yul\":3940:3970   */\n  slt\n    /* \"#utility.yul\":3937:4054   */\n  iszero\n  tag_125\n  jumpi\n    /* \"#utility.yul\":3973:4052   */\n  tag_126\n  tag_20\n  jump\t// in\ntag_126:\n    /* \"#utility.yul\":3937:4054   */\ntag_125:\n    /* \"#utility.yul\":4072:4093   */\n  tag_127\n    /* \"#utility.yul\":4088:4092   */\n  0x80\n    /* \"#utility.yul\":4072:4093   */\n  tag_24\n  jump\t// in\ntag_127:\n    /* \"#utility.yul\":4063:4093   */\n  swap1\n  pop\n    /* \"#utility.yul\":4178:4179   */\n  0x00\n    /* \"#utility.yul\":4167:4176   */\n  dup3\n    /* \"#utility.yul\":4163:4180   */\n  add\n    /* \"#utility.yul\":4157:4181   */\n  mload\n    /* \"#utility.yul\":4208:4226   */\n  0xffffffffffffffff\n    /* \"#utility.yul\":4200:4206   */\n  dup2\n    /* \"#utility.yul\":4197:4227   */\n  gt\n    /* \"#utility.yul\":4194:4311   */\n  iszero\n  tag_128\n  jumpi\n    /* \"#utility.yul\":4230:4309   */\n  tag_129\n  tag_25\n  jump\t// in\ntag_129:\n    /* \"#utility.yul\":4194:4311   */\ntag_128:\n    /* \"#utility.yul\":4350:4420   */\n  tag_130\n    /* \"#utility.yul\":4416:4419   */\n  dup5\n    /* \"#utility.yul\":4407:4413   */\n  dup3\n    /* \"#utility.yul\":4396:4405   */\n  dup6\n    /* \"#utility.yul\":4392:4414   */\n  add\n    /* \"#utility.yul\":4350:4420   */\n  tag_31\n  jump\t// in\ntag_130:\n    /* \"#utility.yul\":4343:4347   */\n  0x00\n    /* \"#utility.yul\":4336:4341   */\n  dup4\n    /* \"#utility.yul\":4332:4348   */\n  add\n    /* \"#utility.yul\":4325:4421   */\n  mstore\n    /* \"#utility.yul\":4103:4432   */\n  pop\n    /* \"#utility.yul\":4519:4521   */\n  0x20\n    /* \"#utility.yul\":4508:4517   */\n  dup3\n    /* \"#utility.yul\":4504:4522   */\n  add\n    /* \"#utility.yul\":4498:4523   */\n  mload\n    /* \"#utility.yul\":4550:4568   */\n  0xffffffffffffffff\n    /* \"#utility.yul\":4542:4548   */\n  dup2\n    /* \"#utility.yul\":4539:4569   */\n  gt\n    /* \"#utility.yul\":4536:4653   */\n  iszero\n  tag_131\n  jumpi\n    /* \"#utility.yul\":4572:4651   */\n  tag_132\n  tag_25\n  jump\t// in\ntag_132:\n    /* \"#utility.yul\":4536:4653   */\ntag_131:\n    /* \"#utility.yul\":4692:4762   */\n  tag_133\n    /* \"#utility.yul\":4758:4761   */\n  dup5\n    /* \"#utility.yul\":4749:4755   */\n  dup3\n    /* \"#utility.yul\":4738:4747   */\n  dup6\n    /* \"#utility.yul\":4734:4756   */\n  add\n    /* \"#utility.yul\":4692:4762   */\n  tag_31\n  jump\t// in\ntag_133:\n    /* \"#utility.yul\":4685:4689   */\n  0x20\n    /* \"#utility.yul\":4678:4683   */\n  dup4\n    /* \"#utility.yul\":4674:4690   */\n  add\n    /* \"#utility.yul\":4667:4763   */\n  mstore\n    /* \"#utility.yul\":4442:4774   */\n  pop\n    /* \"#utility.yul\":4844:4846   */\n  0x40\n    /* \"#utility.yul\":4885:4945   */\n  tag_134\n    /* \"#utility.yul\":4941:4944   */\n  dup5\n    /* \"#utility.yul\":4932:4938   */\n  dup3\n    /* \"#utility.yul\":4921:4930   */\n  dup6\n    /* \"#utility.yul\":4917:4939   */\n  add\n    /* \"#utility.yul\":4885:4945   */\n  tag_34\n  jump\t// in\ntag_134:\n    /* \"#utility.yul\":4878:4882   */\n  0x40\n    /* \"#utility.yul\":4871:4876   */\n  dup4\n    /* \"#utility.yul\":4867:4883   */\n  add\n    /* \"#utility.yul\":4860:4946   */\n  mstore\n    /* \"#utility.yul\":4784:4957   */\n  pop\n    /* \"#utility.yul\":5022:5024   */\n  0x60\n    /* \"#utility.yul\":5063:5123   */\n  tag_135\n    /* \"#utility.yul\":5119:5122   */\n  dup5\n    /* \"#utility.yul\":5110:5116   */\n  dup3\n    /* \"#utility.yul\":5099:5108   */\n  dup6\n    /* \"#utility.yul\":5095:5117   */\n  add\n    /* \"#utility.yul\":5063:5123   */\n  tag_38\n  jump\t// in\ntag_135:\n    /* \"#utility.yul\":5056:5060   */\n  0x60\n    /* \"#utility.yul\":5049:5054   */\n  dup4\n    /* \"#utility.yul\":5045:5061   */\n  add\n    /* \"#utility.yul\":5038:5124   */\n  mstore\n    /* \"#utility.yul\":4967:5135   */\n  pop\n    /* \"#utility.yul\":3832:5142   */\n  swap3\n  swap2\n  pop\n  pop\n  jump\t// out\n    /* \"#utility.yul\":5148:5225   */\ntag_40:\n    /* \"#utility.yul\":5185:5192   */\n  0x00\n    /* \"#utility.yul\":5214:5219   */\n  dup2\n    /* \"#utility.yul\":5203:5219   */\n  swap1\n  pop\n    /* \"#utility.yul\":5148:5225   */\n  swap2\n  swap1\n  pop\n  jump\t// out\n    /* \"#utility.yul\":5231:5353   */\ntag_41:\n    /* \"#utility.yul\":5304:5328   */\n  tag_138\n    /* \"#utility.yul\":5322:5327   */\n  dup2\n    /* \"#utility.yul\":5304:5328   */\n  tag_40\n  jump\t// in\ntag_138:\n    /* \"#utility.yul\":5297:5302   */\n  dup2\n    /* \"#utility.yul\":5294:5329   */\n  eq\n    /* \"#utility.yul\":5284:5347   */\n  tag_139\n  jumpi\n    /* \"#utility.yul\":5343:5344   */\n  0x00\n    /* \"#utility.yul\":5340:5341   */\n  dup1\n    /* \"#utility.yul\":5333:5345   */\n  revert\n    /* \"#utility.yul\":5284:5347   */\ntag_139:\n    /* \"#utility.yul\":5231:5353   */\n  pop\n  jump\t// out\n    /* \"#utility.yul\":5359:5502   */\ntag_42:\n    /* \"#utility.yul\":5416:5421   */\n  0x00\n    /* \"#utility.yul\":5447:5453   */\n  dup2\n    /* \"#utility.yul\":5441:5454   */\n  mload\n    /* \"#utility.yul\":5432:5454   */\n  swap1\n  pop\n    /* \"#utility.yul\":5463:5496   */\n  tag_141\n    /* \"#utility.yul\":5490:5495   */\n  dup2\n    /* \"#utility.yul\":5463:5496   */\n  tag_41\n  jump\t// in\ntag_141:\n    /* \"#utility.yul\":5359:5502   */\n  swap3\n  swap2\n  pop\n  pop\n  jump\t// out\n    /* \"#utility.yul\":5508:5597   */\ntag_43:\n    /* \"#utility.yul\":5544:5551   */\n  0x00\n    /* \"#utility.yul\":5584:5590   */\n  0xffff\n    /* \"#utility.yul\":5577:5582   */\n  dup3\n    /* \"#utility.yul\":5573:5591   */\n  and\n    /* \"#utility.yul\":5562:5591   */\n  swap1\n  pop\n    /* \"#utility.yul\":5508:5597   */\n  swap2\n  swap1\n  pop\n  jump\t// out\n    /* \"#utility.yul\":5603:5723   */\ntag_44:\n    /* \"#utility.yul\":5675:5698   */\n  tag_144\n    /* \"#utility.yul\":5692:5697   */\n  dup2\n    /* \"#utility.yul\":5675:5698   */\n  tag_43\n  jump\t// in\ntag_144:\n    /* \"#utility.yul\":5668:5673   */\n  dup2\n    /* \"#utility.yul\":5665:5699   */\n  eq\n    /* \"#utility.yul\":5655:5717   */\n  tag_145\n  jumpi\n    /* \"#utility.yul\":5713:5714   */\n  0x00\n    /* \"#utility.yul\":5710:5711   */\n  dup1\n    /* \"#utility.yul\":5703:5715   */\n  revert\n    /* \"#utility.yul\":5655:5717   */\ntag_145:\n    /* \"#utility.yul\":5603:5723   */\n  pop\n  jump\t// out\n    /* \"#utility.yul\":5729:5870   */\ntag_45:\n    /* \"#utility.yul\":5785:5790   */\n  0x00\n    /* \"#utility.yul\":5816:5822   */\n  dup2\n    /* \"#utility.yul\":5810:5823   */\n  mload\n    /* \"#utility.yul\":5801:5823   */\n  swap1\n  pop\n    /* \"#utility.yul\":5832:5864   */\n  tag_147\n    /* \"#utility.yul\":5858:5863   */\n  dup2\n    /* \"#utility.yul\":5832:5864   */\n  tag_44\n  jump\t// in\ntag_147:\n    /* \"#utility.yul\":5729:5870   */\n  swap3\n  swap2\n  pop\n  pop\n  jump\t// out\n    /* \"#utility.yul\":5876:5969   */\ntag_46:\n    /* \"#utility.yul\":5912:5919   */\n  0x00\n    /* \"#utility.yul\":5952:5962   */\n  0xffffffff\n    /* \"#utility.yul\":5945:5950   */\n  dup3\n    /* \"#utility.yul\":5941:5963   */\n  and\n    /* \"#utility.yul\":5930:5963   */\n  swap1\n  pop\n    /* \"#utility.yul\":5876:5969   */\n  swap2\n  swap1\n  pop\n  jump\t// out\n    /* \"#utility.yul\":5975:6095   */\ntag_47:\n    /* \"#utility.yul\":6047:6070   */\n  tag_150\n    /* \"#utility.yul\":6064:6069   */\n  dup2\n    /* \"#utility.yul\":6047:6070   */\n  tag_46\n  jump\t// in\ntag_150:\n    /* \"#utility.yul\":6040:6045   */\n  dup2\n    /* \"#utility.yul\":6037:6071   */\n  eq\n    /* \"#utility.yul\":6027:6089   */\n  tag_151\n  jumpi\n    /* \"#utility.yul\":6085:6086   */\n  0x00\n    /* \"#utility.yul\":6082:6083   */\n  dup1\n    /* \"#utility.yul\":6075:6087   */\n  revert\n    /* \"#utility.yul\":6027:6089   */\ntag_151:\n    /* \"#utility.yul\":5975:6095   */\n  pop\n  jump\t// out\n    /* \"#utility.yul\":6101:6242   */\ntag_48:\n    /* \"#utility.yul\":6157:6162   */\n  0x00\n    /* \"#utility.yul\":6188:6194   */\n  dup2\n    /* \"#utility.yul\":6182:6195   */\n  mload\n    /* \"#utility.yul\":6173:6195   */\n  swap1\n  pop\n    /* \"#utility.yul\":6204:6236   */\n  tag_153\n    /* \"#utility.yul\":6230:6235   */\n  dup2\n    /* \"#utility.yul\":6204:6236   */\n  tag_47\n  jump\t// in\ntag_153:\n    /* \"#utility.yul\":6101:6242   */\n  swap3\n  swap2\n  pop\n  pop\n  jump\t// out\n    /* \"#utility.yul\":6248:6345   */\ntag_49:\n    /* \"#utility.yul\":6284:6291   */\n  0x00\n    /* \"#utility.yul\":6324:6338   */\n  0xffffffffffff\n    /* \"#utility.yul\":6317:6322   */\n  dup3\n    /* \"#utility.yul\":6313:6339   */\n  and\n    /* \"#utility.yul\":6302:6339   */\n  swap1\n  pop\n    /* \"#utility.yul\":6248:6345   */\n  swap2\n  swap1\n  pop\n  jump\t// out\n    /* \"#utility.yul\":6351:6471   */\ntag_50:\n    /* \"#utility.yul\":6423:6446   */\n  tag_156\n    /* \"#utility.yul\":6440:6445   */\n  dup2\n    /* \"#utility.yul\":6423:6446   */\n  tag_49\n  jump\t// in\ntag_156:\n    /* \"#utility.yul\":6416:6421   */\n  dup2\n    /* \"#utility.yul\":6413:6447   */\n  eq\n    /* \"#utility.yul\":6403:6465   */\n  tag_157\n  jumpi\n    /* \"#utility.yul\":6461:6462   */\n  0x00\n    /* \"#utility.yul\":6458:6459   */\n  dup1\n    /* \"#utility.yul\":6451:6463   */\n  revert\n    /* \"#utility.yul\":6403:6465   */\ntag_157:\n    /* \"#utility.yul\":6351:6471   */\n  pop\n  jump\t// out\n    /* \"#utility.yul\":6477:6618   */\ntag_51:\n    /* \"#utility.yul\":6533:6538   */\n  0x00\n    /* \"#utility.yul\":6564:6570   */\n  dup2\n    /* \"#utility.yul\":6558:6571   */\n  mload\n    /* \"#utility.yul\":6549:6571   */\n  swap1\n  pop\n    /* \"#utility.yul\":6580:6612   */\n  tag_159\n    /* \"#utility.yul\":6606:6611   */\n  dup2\n    /* \"#utility.yul\":6580:6612   */\n  tag_50\n  jump\t// in\ntag_159:\n    /* \"#utility.yul\":6477:6618   */\n  swap3\n  swap2\n  pop\n  pop\n  jump\t// out\n    /* \"#utility.yul\":6660:7630   */\ntag_52:\n    /* \"#utility.yul\":6747:6752   */\n  0x00\n    /* \"#utility.yul\":6791:6795   */\n  0x80\n    /* \"#utility.yul\":6779:6788   */\n  dup3\n    /* \"#utility.yul\":6774:6777   */\n  dup5\n    /* \"#utility.yul\":6770:6789   */\n  sub\n    /* \"#utility.yul\":6766:6796   */\n  slt\n    /* \"#utility.yul\":6763:6880   */\n  iszero\n  tag_161\n  jumpi\n    /* \"#utility.yul\":6799:6878   */\n  tag_162\n  tag_20\n  jump\t// in\ntag_162:\n    /* \"#utility.yul\":6763:6880   */\ntag_161:\n    /* \"#utility.yul\":6898:6919   */\n  tag_163\n    /* \"#utility.yul\":6914:6918   */\n  0x80\n    /* \"#utility.yul\":6898:6919   */\n  tag_24\n  jump\t// in\ntag_163:\n    /* \"#utility.yul\":6889:6919   */\n  swap1\n  pop\n    /* \"#utility.yul\":6980:6981   */\n  0x00\n    /* \"#utility.yul\":7020:7079   */\n  tag_164\n    /* \"#utility.yul\":7075:7078   */\n  dup5\n    /* \"#utility.yul\":7066:7072   */\n  dup3\n    /* \"#utility.yul\":7055:7064   */\n  dup6\n    /* \"#utility.yul\":7051:7073   */\n  add\n    /* \"#utility.yul\":7020:7079   */\n  tag_45\n  jump\t// in\ntag_164:\n    /* \"#utility.yul\":7013:7017   */\n  0x00\n    /* \"#utility.yul\":7006:7011   */\n  dup4\n    /* \"#utility.yul\":7002:7018   */\n  add\n    /* \"#utility.yul\":6995:7080   */\n  mstore\n    /* \"#utility.yul\":6929:7091   */\n  pop\n    /* \"#utility.yul\":7158:7160   */\n  0x20\n    /* \"#utility.yul\":7199:7258   */\n  tag_165\n    /* \"#utility.yul\":7254:7257   */\n  dup5\n    /* \"#utility.yul\":7245:7251   */\n  dup3\n    /* \"#utility.yul\":7234:7243   */\n  dup6\n    /* \"#utility.yul\":7230:7252   */\n  add\n    /* \"#utility.yul\":7199:7258   */\n  tag_48\n  jump\t// in\ntag_165:\n    /* \"#utility.yul\":7192:7196   */\n  0x20\n    /* \"#utility.yul\":7185:7190   */\n  dup4\n    /* \"#utility.yul\":7181:7197   */\n  add\n    /* \"#utility.yul\":7174:7259   */\n  mstore\n    /* \"#utility.yul\":7101:7270   */\n  pop\n    /* \"#utility.yul\":7334:7336   */\n  0x40\n    /* \"#utility.yul\":7375:7434   */\n  tag_166\n    /* \"#utility.yul\":7430:7433   */\n  dup5\n    /* \"#utility.yul\":7421:7427   */\n  dup3\n    /* \"#utility.yul\":7410:7419   */\n  dup6\n    /* \"#utility.yul\":7406:7428   */\n  add\n    /* \"#utility.yul\":7375:7434   */\n  tag_51\n  jump\t// in\ntag_166:\n    /* \"#utility.yul\":7368:7372   */\n  0x40\n    /* \"#utility.yul\":7361:7366   */\n  dup4\n    /* \"#utility.yul\":7357:7373   */\n  add\n    /* \"#utility.yul\":7350:7435   */\n  mstore\n    /* \"#utility.yul\":7280:7446   */\n  pop\n    /* \"#utility.yul\":7511:7513   */\n  0x60\n    /* \"#utility.yul\":7552:7611   */\n  tag_167\n    /* \"#utility.yul\":7607:7610   */\n  dup5\n    /* \"#utility.yul\":7598:7604   */\n  dup3\n    /* \"#utility.yul\":7587:7596   */\n  dup6\n    /* \"#utility.yul\":7583:7605   */\n  add\n    /* \"#utility.yul\":7552:7611   */\n  tag_51\n  jump\t// in\ntag_167:\n    /* \"#utility.yul\":7545:7549   */\n  0x60\n    /* \"#utility.yul\":7538:7543   */\n  dup4\n    /* \"#utility.yul\":7534:7550   */\n  add\n    /* \"#utility.yul\":7527:7612   */\n  mstore\n    /* \"#utility.yul\":7456:7623   */\n  pop\n    /* \"#utility.yul\":6660:7630   */\n  swap3\n  swap2\n  pop\n  pop\n  jump\t// out\n    /* \"#utility.yul\":7636:8722   */\ntag_3:\n    /* \"#utility.yul\":7789:7795   */\n  0x00\n    /* \"#utility.yul\":7797:7803   */\n  dup1\n    /* \"#utility.yul\":7805:7811   */\n  0x00\n    /* \"#utility.yul\":7813:7819   */\n  dup1\n    /* \"#utility.yul\":7862:7865   */\n  0xe0\n    /* \"#utility.yul\":7850:7859   */\n  dup6\n    /* \"#utility.yul\":7841:7848   */\n  dup8\n    /* \"#utility.yul\":7837:7860   */\n  sub\n    /* \"#utility.yul\":7833:7866   */\n  slt\n    /* \"#utility.yul\":7830:7950   */\n  iszero\n  tag_169\n  jumpi\n    /* \"#utility.yul\":7869:7948   */\n  tag_170\n  tag_18\n  jump\t// in\ntag_170:\n    /* \"#utility.yul\":7830:7950   */\ntag_169:\n    /* \"#utility.yul\":8010:8011   */\n  0x00\n    /* \"#utility.yul\":7999:8008   */\n  dup6\n    /* \"#utility.yul\":7995:8012   */\n  add\n    /* \"#utility.yul\":7989:8013   */\n  mload\n    /* \"#utility.yul\":8040:8058   */\n  0xffffffffffffffff\n    /* \"#utility.yul\":8032:8038   */\n  dup2\n    /* \"#utility.yul\":8029:8059   */\n  gt\n    /* \"#utility.yul\":8026:8143   */\n  iszero\n  tag_171\n  jumpi\n    /* \"#utility.yul\":8062:8141   */\n  tag_172\n  tag_19\n  jump\t// in\ntag_172:\n    /* \"#utility.yul\":8026:8143   */\ntag_171:\n    /* \"#utility.yul\":8167:8260   */\n  tag_173\n    /* \"#utility.yul\":8252:8259   */\n  dup8\n    /* \"#utility.yul\":8243:8249   */\n  dup3\n    /* \"#utility.yul\":8232:8241   */\n  dup9\n    /* \"#utility.yul\":8228:8250   */\n  add\n    /* \"#utility.yul\":8167:8260   */\n  tag_39\n  jump\t// in\ntag_173:\n    /* \"#utility.yul\":8157:8260   */\n  swap5\n  pop\n    /* \"#utility.yul\":7960:8270   */\n  pop\n    /* \"#utility.yul\":8309:8311   */\n  0x20\n    /* \"#utility.yul\":8335:8399   */\n  tag_174\n    /* \"#utility.yul\":8391:8398   */\n  dup8\n    /* \"#utility.yul\":8382:8388   */\n  dup3\n    /* \"#utility.yul\":8371:8380   */\n  dup9\n    /* \"#utility.yul\":8367:8389   */\n  add\n    /* \"#utility.yul\":8335:8399   */\n  tag_42\n  jump\t// in\ntag_174:\n    /* \"#utility.yul\":8325:8399   */\n  swap4\n  pop\n    /* \"#utility.yul\":8280:8409   */\n  pop\n    /* \"#utility.yul\":8448:8450   */\n  0x40\n    /* \"#utility.yul\":8474:8565   */\n  tag_175\n    /* \"#utility.yul\":8557:8564   */\n  dup8\n    /* \"#utility.yul\":8548:8554   */\n  dup3\n    /* \"#utility.yul\":8537:8546   */\n  dup9\n    /* \"#utility.yul\":8533:8555   */\n  add\n    /* \"#utility.yul\":8474:8565   */\n  tag_52\n  jump\t// in\ntag_175:\n    /* \"#utility.yul\":8464:8565   */\n  swap3\n  pop\n    /* \"#utility.yul\":8419:8575   */\n  pop\n    /* \"#utility.yul\":8614:8617   */\n  0xc0\n    /* \"#utility.yul\":8641:8705   */\n  tag_176\n    /* \"#utility.yul\":8697:8704   */\n  dup8\n    /* \"#utility.yul\":8688:8694   */\n  dup3\n    /* \"#utility.yul\":8677:8686   */\n  dup9\n    /* \"#utility.yul\":8673:8695   */\n  add\n    /* \"#utility.yul\":8641:8705   */\n  tag_34\n  jump\t// in\ntag_176:\n    /* \"#utility.yul\":8631:8705   */\n  swap2\n  pop\n    /* \"#utility.yul\":8585:8715   */\n  pop\n    /* \"#utility.yul\":7636:8722   */\n  swap3\n  swap6\n  swap2\n  swap5\n  pop\n  swap3\n  pop\n  jump\t// out\n    /* \"#utility.yul\":8728:8827   */\ntag_53:\n    /* \"#utility.yul\":8780:8786   */\n  0x00\n    /* \"#utility.yul\":8814:8819   */\n  dup2\n    /* \"#utility.yul\":8808:8820   */\n  mload\n    /* \"#utility.yul\":8798:8820   */\n  swap1\n  pop\n    /* \"#utility.yul\":8728:8827   */\n  swap2\n  swap1\n  pop\n  jump\t// out\n    /* \"#utility.yul\":8833:9013   */\ntag_54:\n    /* \"#utility.yul\":8881:8958   */\n  0x4e487b7100000000000000000000000000000000000000000000000000000000\n    /* \"#utility.yul\":8878:8879   */\n  0x00\n    /* \"#utility.yul\":8871:8959   */\n  mstore\n    /* \"#utility.yul\":8978:8982   */\n  0x22\n    /* \"#utility.yul\":8975:8976   */\n  0x04\n    /* \"#utility.yul\":8968:8983   */\n  mstore\n    /* \"#utility.yul\":9002:9006   */\n  0x24\n    /* \"#utility.yul\":8999:9000   */\n  0x00\n    /* \"#utility.yul\":8992:9007   */\n  revert\n    /* \"#utility.yul\":9019:9339   */\ntag_55:\n    /* \"#utility.yul\":9063:9069   */\n  0x00\n    /* \"#utility.yul\":9100:9101   */\n  0x02\n    /* \"#utility.yul\":9094:9098   */\n  dup3\n    /* \"#utility.yul\":9090:9102   */\n  div\n    /* \"#utility.yul\":9080:9102   */\n  swap1\n  pop\n    /* \"#utility.yul\":9147:9148   */\n  0x01\n    /* \"#utility.yul\":9141:9145   */\n  dup3\n    /* \"#utility.yul\":9137:9149   */\n  and\n    /* \"#utility.yul\":9168:9186   */\n  dup1\n    /* \"#utility.yul\":9158:9239   */\n  tag_180\n  jumpi\n    /* \"#utility.yul\":9224:9228   */\n  0x7f\n    /* \"#utility.yul\":9216:9222   */\n  dup3\n    /* \"#utility.yul\":9212:9229   */\n  and\n    /* \"#utility.yul\":9202:9229   */\n  swap2\n  pop\n    /* \"#utility.yul\":9158:9239   */\ntag_180:\n    /* \"#utility.yul\":9286:9288   */\n  0x20\n    /* \"#utility.yul\":9278:9284   */\n  dup3\n    /* \"#utility.yul\":9275:9289   */\n  lt\n    /* \"#utility.yul\":9255:9273   */\n  dup2\n    /* \"#utility.yul\":9252:9290   */\n  sub\n    /* \"#utility.yul\":9249:9333   */\n  tag_181\n  jumpi\n    /* \"#utility.yul\":9305:9323   */\n  tag_182\n  tag_54\n  jump\t// in\ntag_182:\n    /* \"#utility.yul\":9249:9333   */\ntag_181:\n    /* \"#utility.yul\":9070:9339   */\n  pop\n    /* \"#utility.yul\":9019:9339   */\n  swap2\n  swap1\n  pop\n  jump\t// out\n    /* \"#utility.yul\":9345:9486   */\ntag_56:\n    /* \"#utility.yul\":9394:9398   */\n  0x00\n    /* \"#utility.yul\":9417:9420   */\n  dup2\n    /* \"#utility.yul\":9409:9420   */\n  swap1\n  pop\n    /* \"#utility.yul\":9440:9443   */\n  dup2\n    /* \"#utility.yul\":9437:9438   */\n  0x00\n    /* \"#utility.yul\":9430:9444   */\n  mstore\n    /* \"#utility.yul\":9474:9478   */\n  0x20\n    /* \"#utility.yul\":9471:9472   */\n  0x00\n    /* \"#utility.yul\":9461:9479   */\n  keccak256\n    /* \"#utility.yul\":9453:9479   */\n  swap1\n  pop\n    /* \"#utility.yul\":9345:9486   */\n  swap2\n  swap1\n  pop\n  jump\t// out\n    /* \"#utility.yul\":9492:9585   */\ntag_57:\n    /* \"#utility.yul\":9529:9535   */\n  0x00\n    /* \"#utility.yul\":9576:9578   */\n  0x20\n    /* \"#utility.yul\":9571:9573   */\n  0x1f\n    /* \"#utility.yul\":9564:9569   */\n  dup4\n    /* \"#utility.yul\":9560:9574   */\n  add\n    /* \"#utility.yul\":9556:9579   */\n  div\n    /* \"#utility.yul\":9546:9579   */\n  swap1\n  pop\n    /* \"#utility.yul\":9492:9585   */\n  swap2\n  swap1\n  pop\n  jump\t// out\n    /* \"#utility.yul\":9591:9698   */\ntag_58:\n    /* \"#utility.yul\":9635:9643   */\n  0x00\n    /* \"#utility.yul\":9685:9690   */\n  dup3\n    /* \"#utility.yul\":9679:9683   */\n  dup3\n    /* \"#utility.yul\":9675:9691   */\n  shl\n    /* \"#utility.yul\":9654:9691   */\n  swap1\n  pop\n    /* \"#utility.yul\":9591:9698   */\n  swap3\n  swap2\n  pop\n  pop\n  jump\t// out\n    /* \"#utility.yul\":9704:10097   */\ntag_59:\n    /* \"#utility.yul\":9773:9779   */\n  0x00\n    /* \"#utility.yul\":9823:9824   */\n  0x08\n    /* \"#utility.yul\":9811:9821   */\n  dup4\n    /* \"#utility.yul\":9807:9825   */\n  mul\n    /* \"#utility.yul\":9846:9943   */\n  tag_187\n    /* \"#utility.yul\":9876:9942   */\n  0xffffffffffffffffffffffffffffffffffffffffffffffffffffffffffffffff\n    /* \"#utility.yul\":9865:9874   */\n  dup3\n    /* \"#utility.yul\":9846:9943   */\n  tag_58\n  jump\t// in\ntag_187:\n    /* \"#utility.yul\":9964:10003   */\n  tag_188\n    /* \"#utility.yul\":9994:10002   */\n  dup7\n    /* \"#utility.yul\":9983:9992   */\n  dup4\n    /* \"#utility.yul\":9964:10003   */\n  tag_58\n  jump\t// in\ntag_188:\n    /* \"#utility.yul\":9952:10003   */\n  swap6\n  pop\n    /* \"#utility.yul\":10036:10040   */\n  dup1\n    /* \"#utility.yul\":10032:10041   */\n  not\n    /* \"#utility.yul\":10025:10030   */\n  dup5\n    /* \"#utility.yul\":10021:10042   */\n  and\n    /* \"#utility.yul\":10012:10042   */\n  swap4\n  pop\n    /* \"#utility.yul\":10085:10089   */\n  dup1\n    /* \"#utility.yul\":10075:10083   */\n  dup7\n    /* \"#utility.yul\":10071:10090   */\n  and\n    /* \"#utility.yul\":10064:10069   */\n  dup5\n    /* \"#utility.yul\":10061:10091   */\n  or\n    /* \"#utility.yul\":10051:10091   */\n  swap3\n  pop\n    /* \"#utility.yul\":9780:10097   */\n  pop\n  pop\n    /* \"#utility.yul\":9704:10097   */\n  swap4\n  swap3\n  pop\n  pop\n  pop\n  jump\t// out\n    /* \"#utility.yul\":10103:10163   */\ntag_60:\n    /* \"#utility.yul\":10131:10134   */\n  0x00\n    /* \"#utility.yul\":10152:10157   */\n  dup2\n    /* \"#utility.yul\":10145:10157   */\n  swap1\n  pop\n    /* \"#utility.yul\":10103:10163   */\n  swap2\n  swap1\n  pop\n  jump\t// out\n    /* \"#utility.yul\":10169:10311   */\ntag_61:\n    /* \"#utility.yul\":10219:10228   */\n  0x00\n    /* \"#utility.yul\":10252:10305   */\n  tag_191\n    /* \"#utility.yul\":10270:10304   */\n  tag_192\n    /* \"#utility.yul\":10279:10303   */\n  tag_193\n    /* \"#utility.yul\":10297:10302   */\n  dup5\n    /* \"#utility.yul\":10279:10303   */\n  tag_40\n  jump\t// in\ntag_193:\n    /* \"#utility.yul\":10270:10304   */\n  tag_60\n  jump\t// in\ntag_192:\n    /* \"#utility.yul\":10252:10305   */\n  tag_40\n  jump\t// in\ntag_191:\n    /* \"#utility.yul\":10239:10305   */\n  swap1\n  pop\n    /* \"#utility.yul\":10169:10311   */\n  swap2\n  swap1\n  pop\n  jump\t// out\n    /* \"#utility.yul\":10317:10392   */\ntag_62:\n    /* \"#utility.yul\":10360:10363   */\n  0x00\n    /* \"#utility.yul\":10381:10386   */\n  dup2\n    /* \"#utility.yul\":10374:10386   */\n  swap1\n  pop\n    /* \"#utility.yul\":10317:10392   */\n  swap2\n  swap1\n  pop\n  jump\t// out\n    /* \"#utility.yul\":10398:10667   */\ntag_63:\n    /* \"#utility.yul\":10508:10547   */\n  tag_196\n    /* \"#utility.yul\":10539:10546   */\n  dup4\n    /* \"#utility.yul\":10508:10547   */\n  tag_61\n  jump\t// in\ntag_196:\n    /* \"#utility.yul\":10569:10660   */\n  tag_197\n    /* \"#utility.yul\":10618:10659   */\n  tag_198\n    /* \"#utility.yul\":10642:10658   */\n  dup3\n    /* \"#utility.yul\":10618:10659   */\n  tag_62\n  jump\t// in\ntag_198:\n    /* \"#utility.yul\":10610:10616   */\n  dup5\n    /* \"#utility.yul\":10603:10607   */\n  dup5\n    /* \"#utility.yul\":10597:10608   */\n  sload\n    /* \"#utility.yul\":10569:10660   */\n  tag_59\n  jump\t// in\ntag_197:\n    /* \"#utility.yul\":10563:10567   */\n  dup3\n    /* \"#utility.yul\":10556:10661   */\n  sstore\n    /* \"#utility.yul\":10474:10667   */\n  pop\n    /* \"#utility.yul\":10398:10667   */\n  pop\n  pop\n  pop\n  jump\t// out\n    /* \"#utility.yul\":10673:10746   */\ntag_64:\n    /* \"#utility.yul\":10718:10721   */\n  0x00\n    /* \"#utility.yul\":10673:10746   */\n  swap1\n  jump\t// out\n    /* \"#utility.yul\":10752:10941   */\ntag_65:\n    /* \"#utility.yul\":10829:10861   */\n  tag_201\n  tag_64\n  jump\t// in\ntag_201:\n    /* \"#utility.yul\":10870:10935   */\n  tag_202\n    /* \"#utility.yul\":10928:10934   */\n  dup2\n    /* \"#utility.yul\":10920:10926   */\n  dup5\n    /* \"#utility.yul\":10914:10918   */\n  dup5\n    /* \"#utility.yul\":10870:10935   */\n  tag_63\n  jump\t// in\ntag_202:\n    /* \"#utility.yul\":10805:10941   */\n  pop\n    /* \"#utility.yul\":10752:10941   */\n  pop\n  pop\n  jump\t// out\n    /* \"#utility.yul\":10947:11133   */\ntag_66:\n    /* \"#utility.yul\":11007:11127   */\ntag_204:\n    /* \"#utility.yul\":11024:11027   */\n  dup2\n    /* \"#utility.yul\":11017:11022   */\n  dup2\n    /* \"#utility.yul\":11014:11028   */\n  lt\n    /* \"#utility.yul\":11007:11127   */\n  iszero\n  tag_206\n  jumpi\n    /* \"#utility.yul\":11078:11117   */\n  tag_207\n    /* \"#utility.yul\":11115:11116   */\n  0x00\n    /* \"#utility.yul\":11108:11113   */\n  dup3\n    /* \"#utility.yul\":11078:11117   */\n  tag_65\n  jump\t// in\ntag_207:\n    /* \"#utility.yul\":11051:11052   */\n  0x01\n    /* \"#utility.yul\":11044:11049   */\n  dup2\n    /* \"#utility.yul\":11040:11053   */\n  add\n    /* \"#utility.yul\":11031:11053   */\n  swap1\n  pop\n    /* \"#utility.yul\":11007:11127   */\n  jump(tag_204)\ntag_206:\n    /* \"#utility.yul\":10947:11133   */\n  pop\n  pop\n  jump\t// out\n    /* \"#utility.yul\":11139:11682   */\ntag_67:\n    /* \"#utility.yul\":11240:11242   */\n  0x1f\n    /* \"#utility.yul\":11235:11238   */\n  dup3\n    /* \"#utility.yul\":11232:11243   */\n  gt\n    /* \"#utility.yul\":11229:11675   */\n  iszero\n  tag_209\n  jumpi\n    /* \"#utility.yul\":11274:11312   */\n  tag_210\n    /* \"#utility.yul\":11306:11311   */\n  dup2\n    /* \"#utility.yul\":11274:11312   */\n  tag_56\n  jump\t// in\ntag_210:\n    /* \"#utility.yul\":11358:11387   */\n  tag_211\n    /* \"#utility.yul\":11376:11386   */\n  dup5\n    /* \"#utility.yul\":11358:11387   */\n  tag_57\n  jump\t// in\ntag_211:\n    /* \"#utility.yul\":11348:11356   */\n  dup2\n    /* \"#utility.yul\":11344:11388   */\n  add\n    /* \"#utility.yul\":11541:11543   */\n  0x20\n    /* \"#utility.yul\":11529:11539   */\n  dup6\n    /* \"#utility.yul\":11526:11544   */\n  lt\n    /* \"#utility.yul\":11523:11572   */\n  iszero\n  tag_212\n  jumpi\n    /* \"#utility.yul\":11562:11570   */\n  dup2\n    /* \"#utility.yul\":11547:11570   */\n  swap1\n  pop\n    /* \"#utility.yul\":11523:11572   */\ntag_212:\n    /* \"#utility.yul\":11585:11665   */\n  tag_213\n    /* \"#utility.yul\":11641:11663   */\n  tag_214\n    /* \"#utility.yul\":11659:11662   */\n  dup6\n    /* \"#utility.yul\":11641:11663   */\n  tag_57\n  jump\t// in\ntag_214:\n    /* \"#utility.yul\":11631:11639   */\n  dup4\n    /* \"#utility.yul\":11627:11664   */\n  add\n    /* \"#utility.yul\":11614:11625   */\n  dup3\n    /* \"#utility.yul\":11585:11665   */\n  tag_66\n  jump\t// in\ntag_213:\n    /* \"#utility.yul\":11244:11675   */\n  pop\n  pop\n    /* \"#utility.yul\":11229:11675   */\ntag_209:\n    /* \"#utility.yul\":11139:11682   */\n  pop\n  pop\n  pop\n  jump\t// out\n    /* \"#utility.yul\":11688:11805   */\ntag_68:\n    /* \"#utility.yul\":11742:11750   */\n  0x00\n    /* \"#utility.yul\":11792:11797   */\n  dup3\n    /* \"#utility.yul\":11786:11790   */\n  dup3\n    /* \"#utility.yul\":11782:11798   */\n  shr\n    /* \"#utility.yul\":11761:11798   */\n  swap1\n  pop\n    /* \"#utility.yul\":11688:11805   */\n  swap3\n  swap2\n  pop\n  pop\n  jump\t// out\n    /* \"#utility.yul\":11811:11980   */\ntag_69:\n    /* \"#utility.yul\":11855:11861   */\n  0x00\n    /* \"#utility.yul\":11888:11939   */\n  tag_217\n    /* \"#utility.yul\":11936:11937   */\n  0x00\n    /* \"#utility.yul\":11932:11938   */\n  not\n    /* \"#utility.yul\":11924:11929   */\n  dup5\n    /* \"#utility.yul\":11921:11922   */\n  0x08\n    /* \"#utility.yul\":11917:11930   */\n  mul\n    /* \"#utility.yul\":11888:11939   */\n  tag_68\n  jump\t// in\ntag_217:\n    /* \"#utility.yul\":11884:11940   */\n  not\n    /* \"#utility.yul\":11969:11973   */\n  dup1\n    /* \"#utility.yul\":11963:11967   */\n  dup4\n    /* \"#utility.yul\":11959:11974   */\n  and\n    /* \"#utility.yul\":11949:11974   */\n  swap2\n  pop\n    /* \"#utility.yul\":11862:11980   */\n  pop\n    /* \"#utility.yul\":11811:11980   */\n  swap3\n  swap2\n  pop\n  pop\n  jump\t// out\n    /* \"#utility.yul\":11985:12280   */\ntag_70:\n    /* \"#utility.yul\":12061:12065   */\n  0x00\n    /* \"#utility.yul\":12207:12236   */\n  tag_219\n    /* \"#utility.yul\":12232:12235   */\n  dup4\n    /* \"#utility.yul\":12226:12230   */\n  dup4\n    /* \"#utility.yul\":12207:12236   */\n  tag_69\n  jump\t// in\ntag_219:\n    /* \"#utility.yul\":12199:12236   */\n  swap2\n  pop\n    /* \"#utility.yul\":12269:12272   */\n  dup3\n    /* \"#utility.yul\":12266:12267   */\n  0x02\n    /* \"#utility.yul\":12262:12273   */\n  mul\n    /* \"#utility.yul\":12256:12260   */\n  dup3\n    /* \"#utility.yul\":12253:12274   */\n  or\n    /* \"#utility.yul\":12245:12274   */\n  swap1\n  pop\n    /* \"#utility.yul\":11985:12280   */\n  swap3\n  swap2\n  pop\n  pop\n  jump\t// out\n    /* \"#utility.yul\":12285:13680   */\ntag_7:\n    /* \"#utility.yul\":12402:12439   */\n  tag_221\n    /* \"#utility.yul\":12435:12438   */\n  dup3\n    /* \"#utility.yul\":12402:12439   */\n  tag_53\n  jump\t// in\ntag_221:\n    /* \"#utility.yul\":12504:12522   */\n  0xffffffffffffffff\n    /* \"#utility.yul\":12496:12502   */\n  dup2\n    /* \"#utility.yul\":12493:12523   */\n  gt\n    /* \"#utility.yul\":12490:12546   */\n  iszero\n  tag_222\n  jumpi\n    /* \"#utility.yul\":12526:12544   */\n  tag_223\n  tag_22\n  jump\t// in\ntag_223:\n    /* \"#utility.yul\":12490:12546   */\ntag_222:\n    /* \"#utility.yul\":12570:12608   */\n  tag_224\n    /* \"#utility.yul\":12602:12606   */\n  dup3\n    /* \"#utility.yul\":12596:12607   */\n  sload\n    /* \"#utility.yul\":12570:12608   */\n  tag_55\n  jump\t// in\ntag_224:\n    /* \"#utility.yul\":12655:12722   */\n  tag_225\n    /* \"#utility.yul\":12715:12721   */\n  dup3\n    /* \"#utility.yul\":12707:12713   */\n  dup3\n    /* \"#utility.yul\":12701:12705   */\n  dup6\n    /* \"#utility.yul\":12655:12722   */\n  tag_67\n  jump\t// in\ntag_225:\n    /* \"#utility.yul\":12749:12750   */\n  0x00\n    /* \"#utility.yul\":12773:12777   */\n  0x20\n    /* \"#utility.yul\":12760:12777   */\n  swap1\n  pop\n    /* \"#utility.yul\":12805:12807   */\n  0x1f\n    /* \"#utility.yul\":12797:12803   */\n  dup4\n    /* \"#utility.yul\":12794:12808   */\n  gt\n    /* \"#utility.yul\":12822:12823   */\n  0x01\n    /* \"#utility.yul\":12817:13435   */\n  dup2\n  eq\n  tag_227\n  jumpi\n    /* \"#utility.yul\":13479:13480   */\n  0x00\n    /* \"#utility.yul\":13496:13502   */\n  dup5\n    /* \"#utility.yul\":13493:13570   */\n  iszero\n  tag_228\n  jumpi\n    /* \"#utility.yul\":13545:13554   */\n  dup3\n    /* \"#utility.yul\":13540:13543   */\n  dup8\n    /* \"#utility.yul\":13536:13555   */\n  add\n    /* \"#utility.yul\":13530:13556   */\n  mload\n    /* \"#utility.yul\":13521:13556   */\n  swap1\n  pop\n    /* \"#utility.yul\":13493:13570   */\ntag_228:\n    /* \"#utility.yul\":13596:13663   */\n  tag_229\n    /* \"#utility.yul\":13656:13662   */\n  dup6\n    /* \"#utility.yul\":13649:13654   */\n  dup3\n    /* \"#utility.yul\":13596:13663   */\n  tag_70\n  jump\t// in\ntag_229:\n    /* \"#utility.yul\":13590:13594   */\n  dup7\n    /* \"#utility.yul\":13583:13664   */\n  sstore\n    /* \"#utility.yul\":13452:13674   */\n  pop\n    /* \"#utility.yul\":12787:13674   */\n  jump(tag_226)\n    /* \"#utility.yul\":12817:13435   */\ntag_227:\n    /* \"#utility.yul\":12869:12873   */\n  0x1f\n    /* \"#utility.yul\":12865:12874   */\n  not\n    /* \"#utility.yul\":12857:12863   */\n  dup5\n    /* \"#utility.yul\":12853:12875   */\n  and\n    /* \"#utility.yul\":12903:12940   */\n  tag_230\n    /* \"#utility.yul\":12935:12939   */\n  dup7\n    /* \"#utility.yul\":12903:12940   */\n  tag_56\n  jump\t// in\ntag_230:\n    /* \"#utility.yul\":12962:12963   */\n  0x00\n    /* \"#utility.yul\":12976:13184   */\ntag_231:\n    /* \"#utility.yul\":12990:12997   */\n  dup3\n    /* \"#utility.yul\":12987:12988   */\n  dup2\n    /* \"#utility.yul\":12984:12998   */\n  lt\n    /* \"#utility.yul\":12976:13184   */\n  iszero\n  tag_233\n  jumpi\n    /* \"#utility.yul\":13069:13078   */\n  dup5\n    /* \"#utility.yul\":13064:13067   */\n  dup10\n    /* \"#utility.yul\":13060:13079   */\n  add\n    /* \"#utility.yul\":13054:13080   */\n  mload\n    /* \"#utility.yul\":13046:13052   */\n  dup3\n    /* \"#utility.yul\":13039:13081   */\n  sstore\n    /* \"#utility.yul\":13120:13121   */\n  0x01\n    /* \"#utility.yul\":13112:13118   */\n  dup3\n    /* \"#utility.yul\":13108:13122   */\n  add\n    /* \"#utility.yul\":13098:13122   */\n  swap2\n  pop\n    /* \"#utility.yul\":13167:13169   */\n  0x20\n    /* \"#utility.yul\":13156:13165   */\n  dup6\n    /* \"#utility.yul\":13152:13170   */\n  add\n    /* \"#utility.yul\":13139:13170   */\n  swap5\n  pop\n    /* \"#utility.yul\":13013:13017   */\n  0x20\n    /* \"#utility.yul\":13010:13011   */\n  dup2\n    /* \"#utility.yul\":13006:13018   */\n  add\n    /* \"#utility.yul\":13001:13018   */\n  swap1\n  pop\n    /* \"#utility.yul\":12976:13184   */\n  jump(tag_231)\ntag_233:\n    /* \"#utility.yul\":13212:13218   */\n  dup7\n    /* \"#utility.yul\":13203:13210   */\n  dup4\n    /* \"#utility.yul\":13200:13219   */\n  lt\n    /* \"#utility.yul\":13197:13376   */\n  iszero\n  tag_234\n  jumpi\n    /* \"#utility.yul\":13270:13279   */\n  dup5\n    /* \"#utility.yul\":13265:13268   */\n  dup10\n    /* \"#utility.yul\":13261:13280   */\n  add\n    /* \"#utility.yul\":13255:13281   */\n  mload\n    /* \"#utility.yul\":13313:13361   */\n  tag_235\n    /* \"#utility.yul\":13355:13359   */\n  0x1f\n    /* \"#utility.yul\":13347:13353   */\n  dup10\n    /* \"#utility.yul\":13343:13360   */\n  and\n    /* \"#utility.yul\":13332:13341   */\n  dup3\n    /* \"#utility.yul\":13313:13361   */\n  tag_69\n  jump\t// in\ntag_235:\n    /* \"#utility.yul\":13305:13311   */\n  dup4\n    /* \"#utility.yul\":13298:13362   */\n  sstore\n    /* \"#utility.yul\":13220:13376   */\n  pop\n    /* \"#utility.yul\":13197:13376   */\ntag_234:\n    /* \"#utility.yul\":13422:13423   */\n  0x01\n    /* \"#utility.yul\":13418:13419   */\n  0x02\n    /* \"#utility.yul\":13410:13416   */\n  dup9\n    /* \"#utility.yul\":13406:13420   */\n  mul\n    /* \"#utility.yul\":13402:13424   */\n  add\n    /* \"#utility.yul\":13396:13400   */\n  dup9\n    /* \"#utility.yul\":13389:13425   */\n  sstore\n    /* \"#utility.yul\":12824:13435   */\n  pop\n  pop\n  pop\n    /* \"#utility.yul\":12787:13674   */\ntag_226:\n  pop\n    /* \"#utility.yul\":12377:13680   */\n  pop\n  pop\n  pop\n    /* \"#utility.yul\":12285:13680   */\n  pop\n  pop\n  jump\t// out\n    /* \"#utility.yul\":13686:13855   */\ntag_71:\n    /* \"#utility.yul\":13770:13781   */\n  0x00\n    /* \"#utility.yul\":13804:13810   */\n  dup3\n    /* \"#utility.yul\":13799:13802   */\n  dup3\n    /* \"#utility.yul\":13792:13811   */\n  mstore\n    /* \"#utility.yul\":13844:13848   */\n  0x20\n    /* \"#utility.yul\":13839:13842   */\n  dup3\n    /* \"#utility.yul\":13835:13849   */\n  add\n    /* \"#utility.yul\":13820:13849   */\n  swap1\n  pop\n    /* \"#utility.yul\":13686:13855   */\n  swap3\n  swap2\n  pop\n  pop\n  jump\t// out\n    /* \"#utility.yul\":13885:14716   */\ntag_72:\n    /* \"#utility.yul\":13970:13973   */\n  0x00\n    /* \"#utility.yul\":14007:14012   */\n  dup2\n    /* \"#utility.yul\":14001:14013   */\n  sload\n    /* \"#utility.yul\":14036:14072   */\n  tag_238\n    /* \"#utility.yul\":14062:14071   */\n  dup2\n    /* \"#utility.yul\":14036:14072   */\n  tag_55\n  jump\t// in\ntag_238:\n    /* \"#utility.yul\":14088:14159   */\n  tag_239\n    /* \"#utility.yul\":14152:14158   */\n  dup2\n    /* \"#utility.yul\":14147:14150   */\n  dup7\n    /* \"#utility.yul\":14088:14159   */\n  tag_71\n  jump\t// in\ntag_239:\n    /* \"#utility.yul\":14081:14159   */\n  swap5\n  pop\n    /* \"#utility.yul\":14190:14191   */\n  0x01\n    /* \"#utility.yul\":14179:14188   */\n  dup3\n    /* \"#utility.yul\":14175:14192   */\n  and\n    /* \"#utility.yul\":14206:14207   */\n  0x00\n    /* \"#utility.yul\":14201:14365   */\n  dup2\n  eq\n  tag_241\n  jumpi\n    /* \"#utility.yul\":14379:14380   */\n  0x01\n    /* \"#utility.yul\":14374:14710   */\n  dup2\n  eq\n  tag_242\n  jumpi\n    /* \"#utility.yul\":14168:14710   */\n  jump(tag_240)\n    /* \"#utility.yul\":14201:14365   */\ntag_241:\n    /* \"#utility.yul\":14285:14289   */\n  0xff\n    /* \"#utility.yul\":14281:14290   */\n  not\n    /* \"#utility.yul\":14270:14279   */\n  dup4\n    /* \"#utility.yul\":14266:14291   */\n  and\n    /* \"#utility.yul\":14261:14264   */\n  dup7\n    /* \"#utility.yul\":14254:14292   */\n  mstore\n    /* \"#utility.yul\":14345:14351   */\n  dup2\n    /* \"#utility.yul\":14338:14352   */\n  iszero\n    /* \"#utility.yul\":14331:14353   */\n  iszero\n    /* \"#utility.yul\":14325:14329   */\n  0x20\n    /* \"#utility.yul\":14321:14354   */\n  mul\n    /* \"#utility.yul\":14316:14319   */\n  dup7\n    /* \"#utility.yul\":14312:14355   */\n  add\n    /* \"#utility.yul\":14305:14355   */\n  swap4\n  pop\n    /* \"#utility.yul\":14201:14365   */\n  jump(tag_240)\n    /* \"#utility.yul\":14374:14710   */\ntag_242:\n    /* \"#utility.yul\":14441:14479   */\n  tag_243\n    /* \"#utility.yul\":14473:14478   */\n  dup6\n    /* \"#utility.yul\":14441:14479   */\n  tag_56\n  jump\t// in\ntag_243:\n    /* \"#utility.yul\":14501:14502   */\n  0x00\n    /* \"#utility.yul\":14515:14669   */\ntag_244:\n    /* \"#utility.yul\":14529:14535   */\n  dup4\n    /* \"#utility.yul\":14526:14527   */\n  dup2\n    /* \"#utility.yul\":14523:14536   */\n  lt\n    /* \"#utility.yul\":14515:14669   */\n  iszero\n  tag_246\n  jumpi\n    /* \"#utility.yul\":14603:14610   */\n  dup2\n    /* \"#utility.yul\":14597:14611   */\n  sload\n    /* \"#utility.yul\":14593:14594   */\n  dup2\n    /* \"#utility.yul\":14588:14591   */\n  dup10\n    /* \"#utility.yul\":14584:14595   */\n  add\n    /* \"#utility.yul\":14577:14612   */\n  mstore\n    /* \"#utility.yul\":14653:14654   */\n  0x01\n    /* \"#utility.yul\":14644:14651   */\n  dup3\n    /* \"#utility.yul\":14640:14655   */\n  add\n    /* \"#utility.yul\":14629:14655   */\n  swap2\n  pop\n    /* \"#utility.yul\":14551:14555   */\n  0x20\n    /* \"#utility.yul\":14548:14549   */\n  dup2\n    /* \"#utility.yul\":14544:14556   */\n  add\n    /* \"#utility.yul\":14539:14556   */\n  swap1\n  pop\n    /* \"#utility.yul\":14515:14669   */\n  jump(tag_244)\ntag_246:\n    /* \"#utility.yul\":14698:14699   */\n  dup1\n    /* \"#utility.yul\":14693:14696   */\n  dup9\n    /* \"#utility.yul\":14689:14700   */\n  add\n    /* \"#utility.yul\":14682:14700   */\n  swap6\n  pop\n    /* \"#utility.yul\":14381:14710   */\n  pop\n  pop\n    /* \"#utility.yul\":14168:14710   */\ntag_240:\n  pop\n    /* \"#utility.yul\":13974:14716   */\n  pop\n  pop\n    /* \"#utility.yul\":13885:14716   */\n  swap3\n  swap2\n  pop\n  pop\n  jump\t// out\n    /* \"#utility.yul\":14722:15029   */\ntag_10:\n    /* \"#utility.yul\":14832:14836   */\n  0x00\n    /* \"#utility.yul\":14870:14872   */\n  0x20\n    /* \"#utility.yul\":14859:14868   */\n  dup3\n    /* \"#utility.yul\":14855:14873   */\n  add\n    /* \"#utility.yul\":14847:14873   */\n  swap1\n  pop\n    /* \"#utility.yul\":14919:14928   */\n  dup2\n    /* \"#utility.yul\":14913:14917   */\n  dup2\n    /* \"#utility.yul\":14909:14929   */\n  sub\n    /* \"#utility.yul\":14905:14906   */\n  0x00\n    /* \"#utility.yul\":14894:14903   */\n  dup4\n    /* \"#utility.yul\":14890:14907   */\n  add\n    /* \"#utility.yul\":14883:14930   */\n  mstore\n    /* \"#utility.yul\":14947:15022   */\n  tag_248\n    /* \"#utility.yul\":15017:15021   */\n  dup2\n    /* \"#utility.yul\":15008:15014   */\n  dup5\n    /* \"#utility.yul\":14947:15022   */\n  tag_72\n  jump\t// in\ntag_248:\n    /* \"#utility.yul\":14939:15022   */\n  swap1\n  pop\n    /* \"#utility.yul\":14722:15029   */\n  swap3\n  swap2\n  pop\n  pop\n  jump\t// out\n    /* \"#utility.yul\":15035:15153   */\ntag_73:\n    /* \"#utility.yul\":15122:15146   */\n  tag_250\n    /* \"#utility.yul\":15140:15145   */\n  dup2\n    /* \"#utility.yul\":15122:15146   */\n  tag_36\n  jump\t// in\ntag_250:\n    /* \"#utility.yul\":15117:15120   */\n  dup3\n    /* \"#utility.yul\":15110:15147   */\n  mstore\n    /* \"#utility.yul\":15035:15153   */\n  pop\n  pop\n  jump\t// out\n    /* \"#utility.yul\":15159:15381   */\ntag_13:\n    /* \"#utility.yul\":15252:15256   */\n  0x00\n    /* \"#utility.yul\":15290:15292   */\n  0x20\n    /* \"#utility.yul\":15279:15288   */\n  dup3\n    /* \"#utility.yul\":15275:15293   */\n  add\n    /* \"#utility.yul\":15267:15293   */\n  swap1\n  pop\n    /* \"#utility.yul\":15303:15374   */\n  tag_252\n    /* \"#utility.yul\":15371:15372   */\n  0x00\n    /* \"#utility.yul\":15360:15369   */\n  dup4\n    /* \"#utility.yul\":15356:15373   */\n  add\n    /* \"#utility.yul\":15347:15353   */\n  dup5\n    /* \"#utility.yul\":15303:15374   */\n  tag_73\n  jump\t// in\ntag_252:\n    /* \"#utility.yul\":15159:15381   */\n  swap3\n  swap2\n  pop\n  pop\n  jump\t// out\n    /* \"#utility.yul\":15387:15567   */\ntag_74:\n    /* \"#utility.yul\":15435:15512   */\n  0x4e487b7100000000000000000000000000000000000000000000000000000000\n    /* \"#utility.yul\":15432:15433   */\n  0x00\n    /* \"#utility.yul\":15425:15513   */\n  mstore\n    /* \"#utility.yul\":15532:15536   */\n  0x11\n    /* \"#utility.yul\":15529:15530   */\n  0x04\n    /* \"#utility.yul\":15522:15537   */\n  mstore\n    /* \"#utility.yul\":15556:15560   */\n  0x24\n    /* \"#utility.yul\":15553:15554   */\n  0x00\n    /* \"#utility.yul\":15546:15561   */\n  revert\n    /* \"#utility.yul\":15573:15774   */\ntag_15:\n    /* \"#utility.yul\":15612:15615   */\n  0x00\n    /* \"#utility.yul\":15631:15650   */\n  tag_255\n    /* \"#utility.yul\":15648:15649   */\n  dup3\n    /* \"#utility.yul\":15631:15650   */\n  tag_49\n  jump\t// in\ntag_255:\n    /* \"#utility.yul\":15626:15650   */\n  swap2\n  pop\n    /* \"#utility.yul\":15664:15683   */\n  tag_256\n    /* \"#utility.yul\":15681:15682   */\n  dup4\n    /* \"#utility.yul\":15664:15683   */\n  tag_49\n  jump\t// in\ntag_256:\n    /* \"#utility.yul\":15659:15683   */\n  swap3\n  pop\n    /* \"#utility.yul\":15706:15707   */\n  dup3\n    /* \"#utility.yul\":15703:15704   */\n  dup3\n    /* \"#utility.yul\":15699:15708   */\n  add\n    /* \"#utility.yul\":15692:15708   */\n  swap1\n  pop\n    /* \"#utility.yul\":15729:15743   */\n  0xffffffffffff\n    /* \"#utility.yul\":15724:15727   */\n  dup2\n    /* \"#utility.yul\":15721:15744   */\n  gt\n    /* \"#utility.yul\":15718:15767   */\n  iszero\n  tag_257\n  jumpi\n    /* \"#utility.yul\":15747:15765   */\n  tag_258\n  tag_74\n  jump\t// in\ntag_258:\n    /* \"#utility.yul\":15718:15767   */\ntag_257:\n    /* \"#utility.yul\":15573:15774   */\n  swap3\n  swap2\n  pop\n  pop\n  jump\t// out\n    /* \"contracts/3_Ballot.sol\":327:8915  contract BallotTCN {... */\ntag_16:\n  dataSize(sub_0)\n  dup1\n  dataOffset(sub_0)\n  0x00\n  codecopy\n  0x00\n  return\nstop\n\nsub_0: assembly {\n        /* \"contracts/3_Ballot.sol\":327:8915  contract BallotTCN {... */\n      mstore(0x40, 0x80)\n      callvalue\n      dup1\n      iszero\n      tag_1\n      jumpi\n      0x00\n      dup1\n      revert\n    tag_1:\n      pop\n      jumpi(tag_2, lt(calldatasize, 0x04))\n      shr(0xe0, calldataload(0x00))\n      dup1\n      0xbc33c7d7\n      gt\n      tag_13\n      jumpi\n      dup1\n      0xbc33c7d7\n      eq\n      tag_8\n      jumpi\n      dup1\n      0xd4564d16\n      eq\n      tag_9\n      jumpi\n      dup1\n      0xec5bf07b\n      eq\n      tag_10\n      jumpi\n      dup1\n      0xee26a38a\n      eq\n      tag_11\n      jumpi\n      dup1\n      0xf8b1b08a\n      eq\n      tag_12\n      jumpi\n      jump(tag_2)\n    tag_13:\n      dup1\n      0x4731ca2b\n      eq\n      tag_3\n      jumpi\n      dup1\n      0x4b9f5c98\n      eq\n      tag_4\n      jumpi\n      dup1\n      0x5c19a95c\n      eq\n      tag_5\n      jumpi\n      dup1\n      0x81c4787b\n      eq\n      tag_6\n      jumpi\n      dup1\n      0xb3a05246\n      eq\n      tag_7\n      jumpi\n    tag_2:\n      0x00\n      dup1\n      revert\n        /* \"contracts/3_Ballot.sol\":3569:3749  function getBallotProposalParams() public view returns (address, address, uint256) {... */\n    tag_3:\n      tag_14\n      tag_15\n      jump\t// in\n    tag_14:\n      mload(0x40)\n      tag_16\n      swap4\n      swap3\n      swap2\n      swap1\n      tag_17\n      jump\t// in\n    tag_16:\n      mload(0x40)\n      dup1\n      swap2\n      sub\n      swap1\n      return\n        /* \"contracts/3_Ballot.sol\":6668:7416  function vote(bool opinion) public {... */\n    tag_4:\n      tag_18\n      0x04\n      dup1\n      calldatasize\n      sub\n      dup2\n      add\n      swap1\n      tag_19\n      swap2\n      swap1\n      tag_20\n      jump\t// in\n    tag_19:\n      tag_21\n      jump\t// in\n    tag_18:\n      stop\n        /* \"contracts/3_Ballot.sol\":5389:6523  function delegate(address to) public {... */\n    tag_5:\n      tag_22\n      0x04\n      dup1\n      calldatasize\n      sub\n      dup2\n      add\n      swap1\n      tag_23\n      swap2\n      swap1\n      tag_24\n      jump\t// in\n    tag_23:\n      tag_25\n      jump\t// in\n    tag_22:\n      stop\n        /* \"contracts/3_Ballot.sol\":1251:1282  BALLOtPARAM public _ballotParam */\n    tag_6:\n      tag_26\n      tag_27\n      jump\t// in\n    tag_26:\n      mload(0x40)\n      tag_28\n      swap4\n      swap3\n      swap2\n      swap1\n      tag_29\n      jump\t// in\n    tag_28:\n      mload(0x40)\n      dup1\n      swap2\n      sub\n      swap1\n      return\n        /* \"contracts/3_Ballot.sol\":3755:3966  function getBalootVotingParams() public view returns (uint16, uint32, uint48, uint48) {... */\n    tag_7:\n      tag_30\n      tag_31\n      jump\t// in\n    tag_30:\n      mload(0x40)\n      tag_32\n      swap5\n      swap4\n      swap3\n      swap2\n      swap1\n      tag_33\n      jump\t// in\n    tag_32:\n      mload(0x40)\n      dup1\n      swap2\n      sub\n      swap1\n      return\n        /* \"contracts/3_Ballot.sol\":3321:3563  function getBallotCallDataParams() public view returns (string memory, string memory, bytes32, address) {... */\n    tag_8:\n      tag_34\n      tag_35\n      jump\t// in\n    tag_34:\n      mload(0x40)\n      tag_36\n      swap5\n      swap4\n      swap3\n      swap2\n      swap1\n      tag_37\n      jump\t// in\n    tag_36:\n      mload(0x40)\n      dup1\n      swap2\n      sub\n      swap1\n      return\n        /* \"contracts/3_Ballot.sol\":7602:7993  function voteCountProposal() public view... */\n    tag_9:\n      tag_38\n      tag_39\n      jump\t// in\n    tag_38:\n      mload(0x40)\n      tag_40\n      swap2\n      swap1\n      tag_41\n      jump\t// in\n    tag_40:\n      mload(0x40)\n      dup1\n      swap2\n      sub\n      swap1\n      return\n        /* \"contracts/3_Ballot.sol\":4182:4414  function getBallotProposalId() public view returns (uint256 proposalId) {... */\n    tag_10:\n      tag_42\n      tag_43\n      jump\t// in\n    tag_42:\n      mload(0x40)\n      tag_44\n      swap2\n      swap1\n      tag_41\n      jump\t// in\n    tag_44:\n      mload(0x40)\n      dup1\n      swap2\n      sub\n      swap1\n      return\n        /* \"contracts/3_Ballot.sol\":4420:4606  function getBallotParam() public view returns (bytes32 name, uint16 voteCount, uint16 observed) {... */\n    tag_11:\n      tag_45\n      tag_46\n      jump\t// in\n    tag_45:\n      mload(0x40)\n      tag_47\n      swap4\n      swap3\n      swap2\n      swap1\n      tag_29\n      jump\t// in\n    tag_47:\n      mload(0x40)\n      dup1\n      swap2\n      sub\n      swap1\n      return\n        /* \"contracts/3_Ballot.sol\":3972:4176  function getBallotCallData() public view virtual  returns (bytes memory callData) {... */\n    tag_12:\n      tag_48\n      tag_49\n      jump\t// in\n    tag_48:\n      mload(0x40)\n      tag_50\n      swap2\n      swap1\n      tag_51\n      jump\t// in\n    tag_50:\n      mload(0x40)\n      dup1\n      swap2\n      sub\n      swap1\n      return\n        /* \"contracts/3_Ballot.sol\":3569:3749  function getBallotProposalParams() public view returns (address, address, uint256) {... */\n    tag_15:\n        /* \"contracts/3_Ballot.sol\":3625:3632  address */\n      0x00\n        /* \"contracts/3_Ballot.sol\":3634:3641  address */\n      dup1\n        /* \"contracts/3_Ballot.sol\":3643:3650  uint256 */\n      0x00\n        /* \"contracts/3_Ballot.sol\":3670:3685  _proposalParams */\n      0x08\n        /* \"contracts/3_Ballot.sol\":3670:3692  _proposalParams.target */\n      0x00\n      add\n      0x00\n      swap1\n      sload\n      swap1\n      0x0100\n      exp\n      swap1\n      div\n      0xffffffffffffffffffffffffffffffffffffffff\n      and\n        /* \"contracts/3_Ballot.sol\":3694:3709  _proposalParams */\n      0x08\n        /* \"contracts/3_Ballot.sol\":3694:3718  _proposalParams.proposer */\n      0x01\n      add\n      0x00\n      swap1\n      sload\n      swap1\n      0x0100\n      exp\n      swap1\n      div\n      0xffffffffffffffffffffffffffffffffffffffff\n      and\n        /* \"contracts/3_Ballot.sol\":3720:3735  _proposalParams */\n      0x08\n        /* \"contracts/3_Ballot.sol\":3720:3741  _proposalParams.value */\n      0x02\n      add\n      sload\n        /* \"contracts/3_Ballot.sol\":3662:3742  return (_proposalParams.target, _proposalParams.proposer, _proposalParams.value) */\n      swap3\n      pop\n      swap3\n      pop\n      swap3\n      pop\n        /* \"contracts/3_Ballot.sol\":3569:3749  function getBallotProposalParams() public view returns (address, address, uint256) {... */\n      swap1\n      swap2\n      swap3\n      jump\t// out\n        /* \"contracts/3_Ballot.sol\":6668:7416  function vote(bool opinion) public {... */\n    tag_21:\n        /* \"contracts/3_Ballot.sol\":6735:6748  _votingParams */\n      0x02\n        /* \"contracts/3_Ballot.sol\":6735:6758  _votingParams.voteStart */\n      0x00\n      add\n      0x06\n      swap1\n      sload\n      swap1\n      0x0100\n      exp\n      swap1\n      div\n      0xffffffffffff\n      and\n        /* \"contracts/3_Ballot.sol\":6717:6758  block.timestamp < _votingParams.voteStart */\n      0xffffffffffff\n      and\n        /* \"contracts/3_Ballot.sol\":6717:6732  block.timestamp */\n      timestamp\n        /* \"contracts/3_Ballot.sol\":6717:6758  block.timestamp < _votingParams.voteStart */\n      lt\n        /* \"contracts/3_Ballot.sol\":6713:6923  if (block.timestamp < _votingParams.voteStart) { ... */\n      iszero\n      tag_54\n      jumpi\n        /* \"contracts/3_Ballot.sol\":6802:6815  _votingParams */\n      0x02\n        /* \"contracts/3_Ballot.sol\":6802:6825  _votingParams.voteStart */\n      0x00\n      add\n      0x06\n      swap1\n      sload\n      swap1\n      0x0100\n      exp\n      swap1\n      div\n      0xffffffffffff\n      and\n        /* \"contracts/3_Ballot.sol\":6782:6826  VotingHasNotStarted(_votingParams.voteStart) */\n      mload(0x40)\n      0x55d0b3cf00000000000000000000000000000000000000000000000000000000\n      dup2\n      mstore\n      0x04\n      add\n      tag_55\n      swap2\n      swap1\n      tag_56\n      jump\t// in\n    tag_55:\n      mload(0x40)\n      dup1\n      swap2\n      sub\n      swap1\n      revert\n        /* \"contracts/3_Ballot.sol\":6713:6923  if (block.timestamp < _votingParams.voteStart) { ... */\n    tag_54:\n        /* \"contracts/3_Ballot.sol\":6848:6866  isVotingDeadLine() */\n      tag_58\n        /* \"contracts/3_Ballot.sol\":6848:6864  isVotingDeadLine */\n      tag_59\n        /* \"contracts/3_Ballot.sol\":6848:6866  isVotingDeadLine() */\n      jump\t// in\n    tag_58:\n        /* \"contracts/3_Ballot.sol\":6843:6923  if (!isVotingDeadLine()) {... */\n      tag_60\n      jumpi\n        /* \"contracts/3_Ballot.sol\":6902:6911  _deadLine */\n      sload(0x03)\n        /* \"contracts/3_Ballot.sol\":6889:6912  VotingIsOver(_deadLine) */\n      mload(0x40)\n      0x8b00b71700000000000000000000000000000000000000000000000000000000\n      dup2\n      mstore\n      0x04\n      add\n      tag_61\n      swap2\n      swap1\n      tag_41\n      jump\t// in\n    tag_61:\n      mload(0x40)\n      dup1\n      swap2\n      sub\n      swap1\n      revert\n        /* \"contracts/3_Ballot.sol\":6843:6923  if (!isVotingDeadLine()) {... */\n    tag_60:\n        /* \"contracts/3_Ballot.sol\":6941:6948  _voters */\n      0x0c\n        /* \"contracts/3_Ballot.sol\":6941:6960  _voters[msg.sender] */\n      0x00\n        /* \"contracts/3_Ballot.sol\":6949:6959  msg.sender */\n      caller\n        /* \"contracts/3_Ballot.sol\":6941:6960  _voters[msg.sender] */\n      0xffffffffffffffffffffffffffffffffffffffff\n      and\n      0xffffffffffffffffffffffffffffffffffffffff\n      and\n      dup2\n      mstore\n      0x20\n      add\n      swap1\n      dup2\n      mstore\n      0x20\n      add\n      0x00\n      keccak256\n        /* \"contracts/3_Ballot.sol\":6941:6966  _voters[msg.sender].voted */\n      0x00\n      add\n      0x04\n      swap1\n      sload\n      swap1\n      0x0100\n      exp\n      swap1\n      div\n      0xff\n      and\n        /* \"contracts/3_Ballot.sol\":6940:6966  !_voters[msg.sender].voted */\n      iszero\n        /* \"contracts/3_Ballot.sol\":6932:6985  require(!_voters[msg.sender].voted, \"Already voted.\") */\n      tag_62\n      jumpi\n      mload(0x40)\n      0x08c379a000000000000000000000000000000000000000000000000000000000\n      dup2\n      mstore\n      0x04\n      add\n      tag_63\n      swap1\n      tag_64\n      jump\t// in\n    tag_63:\n      mload(0x40)\n      dup1\n      swap2\n      sub\n      swap1\n      revert\n    tag_62:\n        /* \"contracts/3_Ballot.sol\":6995:7014  _votersPermission() */\n      tag_65\n        /* \"contracts/3_Ballot.sol\":6995:7012  _votersPermission */\n      tag_66\n        /* \"contracts/3_Ballot.sol\":6995:7014  _votersPermission() */\n      jump\t// in\n    tag_65:\n        /* \"contracts/3_Ballot.sol\":7024:7044  Voter storage sender */\n      0x00\n        /* \"contracts/3_Ballot.sol\":7047:7054  _voters */\n      0x0c\n        /* \"contracts/3_Ballot.sol\":7047:7066  _voters[msg.sender] */\n      0x00\n        /* \"contracts/3_Ballot.sol\":7055:7065  msg.sender */\n      caller\n        /* \"contracts/3_Ballot.sol\":7047:7066  _voters[msg.sender] */\n      0xffffffffffffffffffffffffffffffffffffffff\n      and\n      0xffffffffffffffffffffffffffffffffffffffff\n      and\n      dup2\n      mstore\n      0x20\n      add\n      swap1\n      dup2\n      mstore\n      0x20\n      add\n      0x00\n      keccak256\n        /* \"contracts/3_Ballot.sol\":7024:7066  Voter storage sender = _voters[msg.sender] */\n      swap1\n      pop\n        /* \"contracts/3_Ballot.sol\":7091:7095  true */\n      0x01\n        /* \"contracts/3_Ballot.sol\":7076:7082  sender */\n      dup2\n        /* \"contracts/3_Ballot.sol\":7076:7088  sender.voted */\n      0x00\n      add\n      0x04\n        /* \"contracts/3_Ballot.sol\":7076:7095  sender.voted = true */\n      0x0100\n      exp\n      dup2\n      sload\n      dup2\n      0xff\n      mul\n      not\n      and\n      swap1\n      dup4\n      iszero\n      iszero\n      mul\n      or\n      swap1\n      sstore\n      pop\n        /* \"contracts/3_Ballot.sol\":7124:7139  block.timestamp */\n      timestamp\n        /* \"contracts/3_Ballot.sol\":7105:7111  sender */\n      dup2\n        /* \"contracts/3_Ballot.sol\":7105:7121  sender.votedTime */\n      0x01\n      add\n        /* \"contracts/3_Ballot.sol\":7105:7139  sender.votedTime = block.timestamp */\n      dup2\n      swap1\n      sstore\n      pop\n        /* \"contracts/3_Ballot.sol\":7153:7160  opinion */\n      dup2\n        /* \"contracts/3_Ballot.sol\":7149:7348  if (opinion) {... */\n      iszero\n      tag_67\n      jumpi\n        /* \"contracts/3_Ballot.sol\":7201:7207  sender */\n      dup1\n        /* \"contracts/3_Ballot.sol\":7201:7214  sender.weight */\n      0x00\n      add\n      0x00\n      swap1\n      sload\n      swap1\n      0x0100\n      exp\n      swap1\n      div\n      0xffff\n      and\n        /* \"contracts/3_Ballot.sol\":7176:7188  _ballotParam */\n      0x00\n        /* \"contracts/3_Ballot.sol\":7176:7197  _ballotParam.observed */\n      0x01\n      add\n      0x02\n        /* \"contracts/3_Ballot.sol\":7176:7214  _ballotParam.observed += sender.weight */\n      dup3\n      dup3\n      dup3\n      swap1\n      sload\n      swap1\n      0x0100\n      exp\n      swap1\n      div\n      0xffff\n      and\n      tag_68\n      swap2\n      swap1\n      tag_69\n      jump\t// in\n    tag_68:\n      swap3\n      pop\n      0x0100\n      exp\n      dup2\n      sload\n      dup2\n      0xffff\n      mul\n      not\n      and\n      swap1\n      dup4\n      0xffff\n      and\n      mul\n      or\n      swap1\n      sstore\n      pop\n        /* \"contracts/3_Ballot.sol\":7271:7277  sender */\n      dup1\n        /* \"contracts/3_Ballot.sol\":7271:7292  sender.delegateWeight */\n      0x00\n      add\n      0x02\n      swap1\n      sload\n      swap1\n      0x0100\n      exp\n      swap1\n      div\n      0xffff\n      and\n        /* \"contracts/3_Ballot.sol\":7255:7261  sender */\n      dup2\n        /* \"contracts/3_Ballot.sol\":7255:7268  sender.weight */\n      0x00\n      add\n      0x00\n      swap1\n      sload\n      swap1\n      0x0100\n      exp\n      swap1\n      div\n      0xffff\n      and\n        /* \"contracts/3_Ballot.sol\":7255:7292  sender.weight + sender.delegateWeight */\n      tag_70\n      swap2\n      swap1\n      tag_69\n      jump\t// in\n    tag_70:\n        /* \"contracts/3_Ballot.sol\":7228:7240  _ballotParam */\n      0x00\n        /* \"contracts/3_Ballot.sol\":7228:7250  _ballotParam.voteCount */\n      0x01\n      add\n      0x00\n        /* \"contracts/3_Ballot.sol\":7228:7293  _ballotParam.voteCount += (sender.weight + sender.delegateWeight) */\n      dup3\n      dup3\n      dup3\n      swap1\n      sload\n      swap1\n      0x0100\n      exp\n      swap1\n      div\n      0xffff\n      and\n      tag_71\n      swap2\n      swap1\n      tag_69\n      jump\t// in\n    tag_71:\n      swap3\n      pop\n      0x0100\n      exp\n      dup2\n      sload\n      dup2\n      0xffff\n      mul\n      not\n      and\n      swap1\n      dup4\n      0xffff\n      and\n      mul\n      or\n      swap1\n      sstore\n      pop\n        /* \"contracts/3_Ballot.sol\":7149:7348  if (opinion) {... */\n      jump(tag_72)\n    tag_67:\n        /* \"contracts/3_Ballot.sol\":7335:7341  sender */\n      dup1\n        /* \"contracts/3_Ballot.sol\":7335:7348  sender.weight */\n      0x00\n      add\n      0x00\n      swap1\n      sload\n      swap1\n      0x0100\n      exp\n      swap1\n      div\n      0xffff\n      and\n        /* \"contracts/3_Ballot.sol\":7310:7322  _ballotParam */\n      0x00\n        /* \"contracts/3_Ballot.sol\":7310:7331  _ballotParam.observed */\n      0x01\n      add\n      0x02\n        /* \"contracts/3_Ballot.sol\":7310:7348  _ballotParam.observed += sender.weight */\n      dup3\n      dup3\n      dup3\n      swap1\n      sload\n      swap1\n      0x0100\n      exp\n      swap1\n      div\n      0xffff\n      and\n      tag_73\n      swap2\n      swap1\n      tag_69\n      jump\t// in\n    tag_73:\n      swap3\n      pop\n      0x0100\n      exp\n      dup2\n      sload\n      dup2\n      0xffff\n      mul\n      not\n      and\n      swap1\n      dup4\n      0xffff\n      and\n      mul\n      or\n      swap1\n      sstore\n      pop\n        /* \"contracts/3_Ballot.sol\":7149:7348  if (opinion) {... */\n    tag_72:\n        /* \"contracts/3_Ballot.sol\":7403:7407  this */\n      address\n        /* \"contracts/3_Ballot.sol\":7363:7409  TheVoteWasRegistered(msg.sender,address(this)) */\n      0xffffffffffffffffffffffffffffffffffffffff\n      and\n        /* \"contracts/3_Ballot.sol\":7384:7394  msg.sender */\n      caller\n        /* \"contracts/3_Ballot.sol\":7363:7409  TheVoteWasRegistered(msg.sender,address(this)) */\n      0xffffffffffffffffffffffffffffffffffffffff\n      and\n      0xf0c90984366c9ecce045b67da09271f6d22bd9ad1aed6562de5bcf1def4c7399\n      mload(0x40)\n      mload(0x40)\n      dup1\n      swap2\n      sub\n      swap1\n      log3\n        /* \"contracts/3_Ballot.sol\":6703:7416  {... */\n      pop\n        /* \"contracts/3_Ballot.sol\":6668:7416  function vote(bool opinion) public {... */\n      pop\n      jump\t// out\n        /* \"contracts/3_Ballot.sol\":5389:6523  function delegate(address to) public {... */\n    tag_25:\n        /* \"contracts/3_Ballot.sol\":5441:5459  isVotingDeadLine() */\n      tag_75\n        /* \"contracts/3_Ballot.sol\":5441:5457  isVotingDeadLine */\n      tag_59\n        /* \"contracts/3_Ballot.sol\":5441:5459  isVotingDeadLine() */\n      jump\t// in\n    tag_75:\n        /* \"contracts/3_Ballot.sol\":5436:5516  if (!isVotingDeadLine()) {... */\n      tag_76\n      jumpi\n        /* \"contracts/3_Ballot.sol\":5495:5504  _deadLine */\n      sload(0x03)\n        /* \"contracts/3_Ballot.sol\":5482:5505  VotingIsOver(_deadLine) */\n      mload(0x40)\n      0x8b00b71700000000000000000000000000000000000000000000000000000000\n      dup2\n      mstore\n      0x04\n      add\n      tag_77\n      swap2\n      swap1\n      tag_41\n      jump\t// in\n    tag_77:\n      mload(0x40)\n      dup1\n      swap2\n      sub\n      swap1\n      revert\n        /* \"contracts/3_Ballot.sol\":5436:5516  if (!isVotingDeadLine()) {... */\n    tag_76:\n        /* \"contracts/3_Ballot.sol\":5534:5541  _voters */\n      0x0c\n        /* \"contracts/3_Ballot.sol\":5534:5553  _voters[msg.sender] */\n      0x00\n        /* \"contracts/3_Ballot.sol\":5542:5552  msg.sender */\n      caller\n        /* \"contracts/3_Ballot.sol\":5534:5553  _voters[msg.sender] */\n      0xffffffffffffffffffffffffffffffffffffffff\n      and\n      0xffffffffffffffffffffffffffffffffffffffff\n      and\n      dup2\n      mstore\n      0x20\n      add\n      swap1\n      dup2\n      mstore\n      0x20\n      add\n      0x00\n      keccak256\n        /* \"contracts/3_Ballot.sol\":5534:5559  _voters[msg.sender].voted */\n      0x00\n      add\n      0x04\n      swap1\n      sload\n      swap1\n      0x0100\n      exp\n      swap1\n      div\n      0xff\n      and\n        /* \"contracts/3_Ballot.sol\":5533:5559  !_voters[msg.sender].voted */\n      iszero\n        /* \"contracts/3_Ballot.sol\":5525:5578  require(!_voters[msg.sender].voted, \"Already voted.\") */\n      tag_78\n      jumpi\n      mload(0x40)\n      0x08c379a000000000000000000000000000000000000000000000000000000000\n      dup2\n      mstore\n      0x04\n      add\n      tag_79\n      swap1\n      tag_64\n      jump\t// in\n    tag_79:\n      mload(0x40)\n      dup1\n      swap2\n      sub\n      swap1\n      revert\n    tag_78:\n        /* \"contracts/3_Ballot.sol\":5588:5607  _votersPermission() */\n      tag_80\n        /* \"contracts/3_Ballot.sol\":5588:5605  _votersPermission */\n      tag_66\n        /* \"contracts/3_Ballot.sol\":5588:5607  _votersPermission() */\n      jump\t// in\n    tag_80:\n        /* \"contracts/3_Ballot.sol\":5617:5637  Voter storage sender */\n      0x00\n        /* \"contracts/3_Ballot.sol\":5640:5647  _voters */\n      0x0c\n        /* \"contracts/3_Ballot.sol\":5640:5659  _voters[msg.sender] */\n      0x00\n        /* \"contracts/3_Ballot.sol\":5648:5658  msg.sender */\n      caller\n        /* \"contracts/3_Ballot.sol\":5640:5659  _voters[msg.sender] */\n      0xffffffffffffffffffffffffffffffffffffffff\n      and\n      0xffffffffffffffffffffffffffffffffffffffff\n      and\n      dup2\n      mstore\n      0x20\n      add\n      swap1\n      dup2\n      mstore\n      0x20\n      add\n      0x00\n      keccak256\n        /* \"contracts/3_Ballot.sol\":5617:5659  Voter storage sender = _voters[msg.sender] */\n      swap1\n      pop\n        /* \"contracts/3_Ballot.sol\":5683:5693  msg.sender */\n      caller\n        /* \"contracts/3_Ballot.sol\":5677:5693  to != msg.sender */\n      0xffffffffffffffffffffffffffffffffffffffff\n      and\n        /* \"contracts/3_Ballot.sol\":5677:5679  to */\n      dup3\n        /* \"contracts/3_Ballot.sol\":5677:5693  to != msg.sender */\n      0xffffffffffffffffffffffffffffffffffffffff\n      and\n      sub\n        /* \"contracts/3_Ballot.sol\":5669:5728  require(to != msg.sender, \"Self-delegation is disallowed.\") */\n      tag_81\n      jumpi\n      mload(0x40)\n      0x08c379a000000000000000000000000000000000000000000000000000000000\n      dup2\n      mstore\n      0x04\n      add\n      tag_82\n      swap1\n      tag_83\n      jump\t// in\n    tag_82:\n      mload(0x40)\n      dup1\n      swap2\n      sub\n      swap1\n      revert\n    tag_81:\n        /* \"contracts/3_Ballot.sol\":5739:5964  while (_voters[to].delegate != address(0)) {... */\n    tag_84:\n        /* \"contracts/3_Ballot.sol\":5778:5779  0 */\n      0x00\n        /* \"contracts/3_Ballot.sol\":5746:5780  _voters[to].delegate != address(0) */\n      0xffffffffffffffffffffffffffffffffffffffff\n      and\n        /* \"contracts/3_Ballot.sol\":5746:5753  _voters */\n      0x0c\n        /* \"contracts/3_Ballot.sol\":5746:5757  _voters[to] */\n      0x00\n        /* \"contracts/3_Ballot.sol\":5754:5756  to */\n      dup5\n        /* \"contracts/3_Ballot.sol\":5746:5757  _voters[to] */\n      0xffffffffffffffffffffffffffffffffffffffff\n      and\n      0xffffffffffffffffffffffffffffffffffffffff\n      and\n      dup2\n      mstore\n      0x20\n      add\n      swap1\n      dup2\n      mstore\n      0x20\n      add\n      0x00\n      keccak256\n        /* \"contracts/3_Ballot.sol\":5746:5766  _voters[to].delegate */\n      0x00\n      add\n      0x05\n      swap1\n      sload\n      swap1\n      0x0100\n      exp\n      swap1\n      div\n      0xffffffffffffffffffffffffffffffffffffffff\n      and\n        /* \"contracts/3_Ballot.sol\":5746:5780  _voters[to].delegate != address(0) */\n      0xffffffffffffffffffffffffffffffffffffffff\n      and\n      eq\n        /* \"contracts/3_Ballot.sol\":5739:5964  while (_voters[to].delegate != address(0)) {... */\n      tag_85\n      jumpi\n        /* \"contracts/3_Ballot.sol\":5801:5808  _voters */\n      0x0c\n        /* \"contracts/3_Ballot.sol\":5801:5812  _voters[to] */\n      0x00\n        /* \"contracts/3_Ballot.sol\":5809:5811  to */\n      dup4\n        /* \"contracts/3_Ballot.sol\":5801:5812  _voters[to] */\n      0xffffffffffffffffffffffffffffffffffffffff\n      and\n      0xffffffffffffffffffffffffffffffffffffffff\n      and\n      dup2\n      mstore\n      0x20\n      add\n      swap1\n      dup2\n      mstore\n      0x20\n      add\n      0x00\n      keccak256\n        /* \"contracts/3_Ballot.sol\":5801:5821  _voters[to].delegate */\n      0x00\n      add\n      0x05\n      swap1\n      sload\n      swap1\n      0x0100\n      exp\n      swap1\n      div\n      0xffffffffffffffffffffffffffffffffffffffff\n      and\n        /* \"contracts/3_Ballot.sol\":5796:5821  to = _voters[to].delegate */\n      swap2\n      pop\n        /* \"contracts/3_Ballot.sol\":5913:5923  msg.sender */\n      caller\n        /* \"contracts/3_Ballot.sol\":5907:5923  to != msg.sender */\n      0xffffffffffffffffffffffffffffffffffffffff\n      and\n        /* \"contracts/3_Ballot.sol\":5907:5909  to */\n      dup3\n        /* \"contracts/3_Ballot.sol\":5907:5923  to != msg.sender */\n      0xffffffffffffffffffffffffffffffffffffffff\n      and\n      sub\n        /* \"contracts/3_Ballot.sol\":5899:5953  require(to != msg.sender, \"Found loop in delegation.\") */\n      tag_86\n      jumpi\n      mload(0x40)\n      0x08c379a000000000000000000000000000000000000000000000000000000000\n      dup2\n      mstore\n      0x04\n      add\n      tag_87\n      swap1\n      tag_88\n      jump\t// in\n    tag_87:\n      mload(0x40)\n      dup1\n      swap2\n      sub\n      swap1\n      revert\n    tag_86:\n        /* \"contracts/3_Ballot.sol\":5739:5964  while (_voters[to].delegate != address(0)) {... */\n      jump(tag_84)\n    tag_85:\n        /* \"contracts/3_Ballot.sol\":5988:5992  true */\n      0x01\n        /* \"contracts/3_Ballot.sol\":5973:5979  sender */\n      dup2\n        /* \"contracts/3_Ballot.sol\":5973:5985  sender.voted */\n      0x00\n      add\n      0x04\n        /* \"contracts/3_Ballot.sol\":5973:5992  sender.voted = true */\n      0x0100\n      exp\n      dup2\n      sload\n      dup2\n      0xff\n      mul\n      not\n      and\n      swap1\n      dup4\n      iszero\n      iszero\n      mul\n      or\n      swap1\n      sstore\n      pop\n        /* \"contracts/3_Ballot.sol\":6027:6033  sender */\n      dup1\n        /* \"contracts/3_Ballot.sol\":6027:6040  sender.weight */\n      0x00\n      add\n      0x00\n      swap1\n      sload\n      swap1\n      0x0100\n      exp\n      swap1\n      div\n      0xffff\n      and\n        /* \"contracts/3_Ballot.sol\":6002:6014  _ballotParam */\n      0x00\n        /* \"contracts/3_Ballot.sol\":6002:6023  _ballotParam.observed */\n      0x01\n      add\n      0x02\n        /* \"contracts/3_Ballot.sol\":6002:6040  _ballotParam.observed += sender.weight */\n      dup3\n      dup3\n      dup3\n      swap1\n      sload\n      swap1\n      0x0100\n      exp\n      swap1\n      div\n      0xffff\n      and\n      tag_89\n      swap2\n      swap1\n      tag_69\n      jump\t// in\n    tag_89:\n      swap3\n      pop\n      0x0100\n      exp\n      dup2\n      sload\n      dup2\n      0xffff\n      mul\n      not\n      and\n      swap1\n      dup4\n      0xffff\n      and\n      mul\n      or\n      swap1\n      sstore\n      pop\n        /* \"contracts/3_Ballot.sol\":6068:6070  to */\n      dup2\n        /* \"contracts/3_Ballot.sol\":6050:6056  sender */\n      dup2\n        /* \"contracts/3_Ballot.sol\":6050:6065  sender.delegate */\n      0x00\n      add\n      0x05\n        /* \"contracts/3_Ballot.sol\":6050:6070  sender.delegate = to */\n      0x0100\n      exp\n      dup2\n      sload\n      dup2\n      0xffffffffffffffffffffffffffffffffffffffff\n      mul\n      not\n      and\n      swap1\n      dup4\n      0xffffffffffffffffffffffffffffffffffffffff\n      and\n      mul\n      or\n      swap1\n      sstore\n      pop\n        /* \"contracts/3_Ballot.sol\":6080:6103  Voter storage delegate_ */\n      0x00\n        /* \"contracts/3_Ballot.sol\":6106:6113  _voters */\n      0x0c\n        /* \"contracts/3_Ballot.sol\":6106:6117  _voters[to] */\n      0x00\n        /* \"contracts/3_Ballot.sol\":6114:6116  to */\n      dup5\n        /* \"contracts/3_Ballot.sol\":6106:6117  _voters[to] */\n      0xffffffffffffffffffffffffffffffffffffffff\n      and\n      0xffffffffffffffffffffffffffffffffffffffff\n      and\n      dup2\n      mstore\n      0x20\n      add\n      swap1\n      dup2\n      mstore\n      0x20\n      add\n      0x00\n      keccak256\n        /* \"contracts/3_Ballot.sol\":6080:6117  Voter storage delegate_ = _voters[to] */\n      swap1\n      pop\n        /* \"contracts/3_Ballot.sol\":6131:6140  delegate_ */\n      dup1\n        /* \"contracts/3_Ballot.sol\":6131:6146  delegate_.voted */\n      0x00\n      add\n      0x04\n      swap1\n      sload\n      swap1\n      0x0100\n      exp\n      swap1\n      div\n      0xff\n      and\n        /* \"contracts/3_Ballot.sol\":6127:6516  if (delegate_.voted) {... */\n      iszero\n      tag_90\n      jumpi\n        /* \"contracts/3_Ballot.sol\":6302:6308  sender */\n      dup2\n        /* \"contracts/3_Ballot.sol\":6302:6323  sender.delegateWeight */\n      0x00\n      add\n      0x02\n      swap1\n      sload\n      swap1\n      0x0100\n      exp\n      swap1\n      div\n      0xffff\n      and\n        /* \"contracts/3_Ballot.sol\":6286:6292  sender */\n      dup3\n        /* \"contracts/3_Ballot.sol\":6286:6299  sender.weight */\n      0x00\n      add\n      0x00\n      swap1\n      sload\n      swap1\n      0x0100\n      exp\n      swap1\n      div\n      0xffff\n      and\n        /* \"contracts/3_Ballot.sol\":6286:6323  sender.weight + sender.delegateWeight */\n      tag_91\n      swap2\n      swap1\n      tag_69\n      jump\t// in\n    tag_91:\n        /* \"contracts/3_Ballot.sol\":6259:6271  _ballotParam */\n      0x00\n        /* \"contracts/3_Ballot.sol\":6259:6281  _ballotParam.voteCount */\n      0x01\n      add\n      0x00\n        /* \"contracts/3_Ballot.sol\":6259:6324  _ballotParam.voteCount += (sender.weight + sender.delegateWeight) */\n      dup3\n      dup3\n      dup3\n      swap1\n      sload\n      swap1\n      0x0100\n      exp\n      swap1\n      div\n      0xffff\n      and\n      tag_92\n      swap2\n      swap1\n      tag_69\n      jump\t// in\n    tag_92:\n      swap3\n      pop\n      0x0100\n      exp\n      dup2\n      sload\n      dup2\n      0xffff\n      mul\n      not\n      and\n      swap1\n      dup4\n      0xffff\n      and\n      mul\n      or\n      swap1\n      sstore\n      pop\n        /* \"contracts/3_Ballot.sol\":6127:6516  if (delegate_.voted) {... */\n      jump(tag_93)\n    tag_90:\n        /* \"contracts/3_Ballot.sol\":6483:6489  sender */\n      dup2\n        /* \"contracts/3_Ballot.sol\":6483:6504  sender.delegateWeight */\n      0x00\n      add\n      0x02\n      swap1\n      sload\n      swap1\n      0x0100\n      exp\n      swap1\n      div\n      0xffff\n      and\n        /* \"contracts/3_Ballot.sol\":6467:6473  sender */\n      dup3\n        /* \"contracts/3_Ballot.sol\":6467:6480  sender.weight */\n      0x00\n      add\n      0x00\n      swap1\n      sload\n      swap1\n      0x0100\n      exp\n      swap1\n      div\n      0xffff\n      and\n        /* \"contracts/3_Ballot.sol\":6467:6504  sender.weight + sender.delegateWeight */\n      tag_94\n      swap2\n      swap1\n      tag_69\n      jump\t// in\n    tag_94:\n        /* \"contracts/3_Ballot.sol\":6438:6447  delegate_ */\n      dup2\n        /* \"contracts/3_Ballot.sol\":6438:6462  delegate_.delegateWeight */\n      0x00\n      add\n      0x02\n        /* \"contracts/3_Ballot.sol\":6438:6505  delegate_.delegateWeight += (sender.weight + sender.delegateWeight) */\n      dup3\n      dup3\n      dup3\n      swap1\n      sload\n      swap1\n      0x0100\n      exp\n      swap1\n      div\n      0xffff\n      and\n      tag_95\n      swap2\n      swap1\n      tag_69\n      jump\t// in\n    tag_95:\n      swap3\n      pop\n      0x0100\n      exp\n      dup2\n      sload\n      dup2\n      0xffff\n      mul\n      not\n      and\n      swap1\n      dup4\n      0xffff\n      and\n      mul\n      or\n      swap1\n      sstore\n      pop\n        /* \"contracts/3_Ballot.sol\":6127:6516  if (delegate_.voted) {... */\n    tag_93:\n        /* \"contracts/3_Ballot.sol\":5426:6523  {... */\n      pop\n      pop\n        /* \"contracts/3_Ballot.sol\":5389:6523  function delegate(address to) public {... */\n      pop\n      jump\t// out\n        /* \"contracts/3_Ballot.sol\":1251:1282  BALLOtPARAM public _ballotParam */\n    tag_27:\n      0x00\n      dup1\n      0x00\n      add\n      sload\n      swap1\n      dup1\n      0x01\n      add\n      0x00\n      swap1\n      sload\n      swap1\n      0x0100\n      exp\n      swap1\n      div\n      0xffff\n      and\n      swap1\n      dup1\n      0x01\n      add\n      0x02\n      swap1\n      sload\n      swap1\n      0x0100\n      exp\n      swap1\n      div\n      0xffff\n      and\n      swap1\n      pop\n      dup4\n      jump\t// out\n        /* \"contracts/3_Ballot.sol\":3755:3966  function getBalootVotingParams() public view returns (uint16, uint32, uint48, uint48) {... */\n    tag_31:\n        /* \"contracts/3_Ballot.sol\":3809:3815  uint16 */\n      0x00\n        /* \"contracts/3_Ballot.sol\":3817:3823  uint32 */\n      dup1\n        /* \"contracts/3_Ballot.sol\":3825:3831  uint48 */\n      0x00\n        /* \"contracts/3_Ballot.sol\":3833:3839  uint48 */\n      dup1\n        /* \"contracts/3_Ballot.sol\":3859:3872  _votingParams */\n      0x02\n        /* \"contracts/3_Ballot.sol\":3859:3879  _votingParams.quorum */\n      0x00\n      add\n      0x00\n      swap1\n      sload\n      swap1\n      0x0100\n      exp\n      swap1\n      div\n      0xffff\n      and\n        /* \"contracts/3_Ballot.sol\":3881:3894  _votingParams */\n      0x02\n        /* \"contracts/3_Ballot.sol\":3881:3907  _votingParams.voteDuration */\n      0x00\n      add\n      0x02\n      swap1\n      sload\n      swap1\n      0x0100\n      exp\n      swap1\n      div\n      0xffffffff\n      and\n        /* \"contracts/3_Ballot.sol\":3909:3922  _votingParams */\n      0x02\n        /* \"contracts/3_Ballot.sol\":3909:3932  _votingParams.voteStart */\n      0x00\n      add\n      0x06\n      swap1\n      sload\n      swap1\n      0x0100\n      exp\n      swap1\n      div\n      0xffffffffffff\n      and\n        /* \"contracts/3_Ballot.sol\":3934:3947  _votingParams */\n      0x02\n        /* \"contracts/3_Ballot.sol\":3934:3958  _votingParams.etaSeconds */\n      0x00\n      add\n      0x0c\n      swap1\n      sload\n      swap1\n      0x0100\n      exp\n      swap1\n      div\n      0xffffffffffff\n      and\n        /* \"contracts/3_Ballot.sol\":3851:3959  return (_votingParams.quorum, _votingParams.voteDuration, _votingParams.voteStart, _votingParams.etaSeconds) */\n      swap4\n      pop\n      swap4\n      pop\n      swap4\n      pop\n      swap4\n      pop\n        /* \"contracts/3_Ballot.sol\":3755:3966  function getBalootVotingParams() public view returns (uint16, uint32, uint48, uint48) {... */\n      swap1\n      swap2\n      swap3\n      swap4\n      jump\t// out\n        /* \"contracts/3_Ballot.sol\":3321:3563  function getBallotCallDataParams() public view returns (string memory, string memory, bytes32, address) {... */\n    tag_35:\n        /* \"contracts/3_Ballot.sol\":3377:3390  string memory */\n      0x60\n        /* \"contracts/3_Ballot.sol\":3392:3405  string memory */\n      dup1\n        /* \"contracts/3_Ballot.sol\":3407:3414  bytes32 */\n      0x00\n        /* \"contracts/3_Ballot.sol\":3416:3423  address */\n      dup1\n        /* \"contracts/3_Ballot.sol\":3443:3457  _callDataParam */\n      0x04\n        /* \"contracts/3_Ballot.sol\":3443:3467  _callDataParam.signature */\n      0x00\n      add\n        /* \"contracts/3_Ballot.sol\":3469:3483  _callDataParam */\n      0x04\n        /* \"contracts/3_Ballot.sol\":3469:3495  _callDataParam.description */\n      0x01\n      add\n        /* \"contracts/3_Ballot.sol\":3498:3512  _callDataParam */\n      0x04\n        /* \"contracts/3_Ballot.sol\":3498:3528  _callDataParam.descriptionHash */\n      0x02\n      add\n      sload\n        /* \"contracts/3_Ballot.sol\":3530:3544  _callDataParam */\n      0x04\n        /* \"contracts/3_Ballot.sol\":3530:3555  _callDataParam.governance */\n      0x03\n      add\n      0x00\n      swap1\n      sload\n      swap1\n      0x0100\n      exp\n      swap1\n      div\n      0xffffffffffffffffffffffffffffffffffffffff\n      and\n        /* \"contracts/3_Ballot.sol\":3435:3556  return (_callDataParam.signature, _callDataParam.description,  _callDataParam.descriptionHash, _callDataParam.governance) */\n      dup4\n      dup1\n      sload\n      tag_98\n      swap1\n      tag_99\n      jump\t// in\n    tag_98:\n      dup1\n      0x1f\n      add\n      0x20\n      dup1\n      swap2\n      div\n      mul\n      0x20\n      add\n      mload(0x40)\n      swap1\n      dup2\n      add\n      0x40\n      mstore\n      dup1\n      swap3\n      swap2\n      swap1\n      dup2\n      dup2\n      mstore\n      0x20\n      add\n      dup3\n      dup1\n      sload\n      tag_100\n      swap1\n      tag_99\n      jump\t// in\n    tag_100:\n      dup1\n      iszero\n      tag_101\n      jumpi\n      dup1\n      0x1f\n      lt\n      tag_102\n      jumpi\n      0x0100\n      dup1\n      dup4\n      sload\n      div\n      mul\n      dup4\n      mstore\n      swap2\n      0x20\n      add\n      swap2\n      jump(tag_101)\n    tag_102:\n      dup3\n      add\n      swap2\n      swap1\n      0x00\n      mstore\n      keccak256(0x00, 0x20)\n      swap1\n    tag_103:\n      dup2\n      sload\n      dup2\n      mstore\n      swap1\n      0x01\n      add\n      swap1\n      0x20\n      add\n      dup1\n      dup4\n      gt\n      tag_103\n      jumpi\n      dup3\n      swap1\n      sub\n      0x1f\n      and\n      dup3\n      add\n      swap2\n    tag_101:\n      pop\n      pop\n      pop\n      pop\n      pop\n      swap4\n      pop\n      dup3\n      dup1\n      sload\n      tag_104\n      swap1\n      tag_99\n      jump\t// in\n    tag_104:\n      dup1\n      0x1f\n      add\n      0x20\n      dup1\n      swap2\n      div\n      mul\n      0x20\n      add\n      mload(0x40)\n      swap1\n      dup2\n      add\n      0x40\n      mstore\n      dup1\n      swap3\n      swap2\n      swap1\n      dup2\n      dup2\n      mstore\n      0x20\n      add\n      dup3\n      dup1\n      sload\n      tag_105\n      swap1\n      tag_99\n      jump\t// in\n    tag_105:\n      dup1\n      iszero\n      tag_106\n      jumpi\n      dup1\n      0x1f\n      lt\n      tag_107\n      jumpi\n      0x0100\n      dup1\n      dup4\n      sload\n      div\n      mul\n      dup4\n      mstore\n      swap2\n      0x20\n      add\n      swap2\n      jump(tag_106)\n    tag_107:\n      dup3\n      add\n      swap2\n      swap1\n      0x00\n      mstore\n      keccak256(0x00, 0x20)\n      swap1\n    tag_108:\n      dup2\n      sload\n      dup2\n      mstore\n      swap1\n      0x01\n      add\n      swap1\n      0x20\n      add\n      dup1\n      dup4\n      gt\n      tag_108\n      jumpi\n      dup3\n      swap1\n      sub\n      0x1f\n      and\n      dup3\n      add\n      swap2\n    tag_106:\n      pop\n      pop\n      pop\n      pop\n      pop\n      swap3\n      pop\n      swap4\n      pop\n      swap4\n      pop\n      swap4\n      pop\n      swap4\n      pop\n        /* \"contracts/3_Ballot.sol\":3321:3563  function getBallotCallDataParams() public view returns (string memory, string memory, bytes32, address) {... */\n      swap1\n      swap2\n      swap3\n      swap4\n      jump\t// out\n        /* \"contracts/3_Ballot.sol\":7602:7993  function voteCountProposal() public view... */\n    tag_39:\n        /* \"contracts/3_Ballot.sol\":7664:7688  uint256 winningProposal_ */\n      0x00\n        /* \"contracts/3_Ballot.sol\":7602:7993  function voteCountProposal() public view... */\n      swap1\n      jump\t// out\n        /* \"contracts/3_Ballot.sol\":4182:4414  function getBallotProposalId() public view returns (uint256 proposalId) {... */\n    tag_43:\n        /* \"contracts/3_Ballot.sol\":4234:4252  uint256 proposalId */\n      0x00\n        /* \"contracts/3_Ballot.sol\":4306:4321  _proposalParams */\n      0x08\n        /* \"contracts/3_Ballot.sol\":4306:4328  _proposalParams.target */\n      0x00\n      add\n      0x00\n      swap1\n      sload\n      swap1\n      0x0100\n      exp\n      swap1\n      div\n      0xffffffffffffffffffffffffffffffffffffffff\n      and\n        /* \"contracts/3_Ballot.sol\":4330:4345  _proposalParams */\n      0x08\n        /* \"contracts/3_Ballot.sol\":4330:4351  _proposalParams.value */\n      0x02\n      add\n      sload\n        /* \"contracts/3_Ballot.sol\":4353:4372  getBallotCallData() */\n      tag_111\n        /* \"contracts/3_Ballot.sol\":4353:4370  getBallotCallData */\n      tag_49\n        /* \"contracts/3_Ballot.sol\":4353:4372  getBallotCallData() */\n      jump\t// in\n    tag_111:\n        /* \"contracts/3_Ballot.sol\":4374:4388  _callDataParam */\n      0x04\n        /* \"contracts/3_Ballot.sol\":4374:4404  _callDataParam.descriptionHash */\n      0x02\n      add\n      sload\n        /* \"contracts/3_Ballot.sol\":4295:4405  abi.encode(_proposalParams.target, _proposalParams.value, getBallotCallData(), _callDataParam.descriptionHash) */\n      add(0x20, mload(0x40))\n      tag_112\n      swap5\n      swap4\n      swap3\n      swap2\n      swap1\n      tag_113\n      jump\t// in\n    tag_112:\n      mload(0x40)\n      0x20\n      dup2\n      dup4\n      sub\n      sub\n      dup2\n      mstore\n      swap1\n      0x40\n      mstore\n        /* \"contracts/3_Ballot.sol\":4285:4406  keccak256(abi.encode(_proposalParams.target, _proposalParams.value, getBallotCallData(), _callDataParam.descriptionHash)) */\n      dup1\n      mload\n      swap1\n      0x20\n      add\n      keccak256\n        /* \"contracts/3_Ballot.sol\":4277:4407  uint256(keccak256(abi.encode(_proposalParams.target, _proposalParams.value, getBallotCallData(), _callDataParam.descriptionHash))) */\n      0x00\n      shr\n        /* \"contracts/3_Ballot.sol\":4264:4407  proposalId = uint256(keccak256(abi.encode(_proposalParams.target, _proposalParams.value, getBallotCallData(), _callDataParam.descriptionHash))) */\n      swap1\n      pop\n        /* \"contracts/3_Ballot.sol\":4182:4414  function getBallotProposalId() public view returns (uint256 proposalId) {... */\n      swap1\n      jump\t// out\n        /* \"contracts/3_Ballot.sol\":4420:4606  function getBallotParam() public view returns (bytes32 name, uint16 voteCount, uint16 observed) {... */\n    tag_46:\n        /* \"contracts/3_Ballot.sol\":4467:4479  bytes32 name */\n      0x00\n        /* \"contracts/3_Ballot.sol\":4481:4497  uint16 voteCount */\n      dup1\n        /* \"contracts/3_Ballot.sol\":4499:4514  uint16 observed */\n      0x00\n        /* \"contracts/3_Ballot.sol\":4534:4546  _ballotParam */\n      dup1\n        /* \"contracts/3_Ballot.sol\":4534:4551  _ballotParam.name */\n      0x00\n      add\n      sload\n        /* \"contracts/3_Ballot.sol\":4553:4565  _ballotParam */\n      0x00\n        /* \"contracts/3_Ballot.sol\":4553:4575  _ballotParam.voteCount */\n      0x01\n      add\n      0x00\n      swap1\n      sload\n      swap1\n      0x0100\n      exp\n      swap1\n      div\n      0xffff\n      and\n        /* \"contracts/3_Ballot.sol\":4577:4589  _ballotParam */\n      0x00\n        /* \"contracts/3_Ballot.sol\":4577:4598  _ballotParam.observed */\n      0x01\n      add\n      0x02\n      swap1\n      sload\n      swap1\n      0x0100\n      exp\n      swap1\n      div\n      0xffff\n      and\n        /* \"contracts/3_Ballot.sol\":4526:4599  return (_ballotParam.name, _ballotParam.voteCount, _ballotParam.observed) */\n      swap3\n      pop\n      swap3\n      pop\n      swap3\n      pop\n        /* \"contracts/3_Ballot.sol\":4420:4606  function getBallotParam() public view returns (bytes32 name, uint16 voteCount, uint16 observed) {... */\n      swap1\n      swap2\n      swap3\n      jump\t// out\n        /* \"contracts/3_Ballot.sol\":3972:4176  function getBallotCallData() public view virtual  returns (bytes memory callData) {... */\n    tag_49:\n        /* \"contracts/3_Ballot.sol\":4031:4052  bytes memory callData */\n      0x60\n        /* \"contracts/3_Ballot.sol\":4099:4113  _callDataParam */\n      0x04\n        /* \"contracts/3_Ballot.sol\":4099:4123  _callDataParam.signature */\n      0x00\n      add\n        /* \"contracts/3_Ballot.sol\":4075:4124  abi.encodeWithSignature(_callDataParam.signature) */\n      add(0x24, mload(0x40))\n      mload(0x40)\n      0x20\n      dup2\n      dup4\n      sub\n      sub\n      dup2\n      mstore\n      swap1\n      0x40\n      mstore\n      swap1\n      mload(0x40)\n      tag_116\n      swap2\n      swap1\n      tag_117\n      jump\t// in\n    tag_116:\n      mload(0x40)\n      dup1\n      swap2\n      sub\n      swap1\n      keccak256\n      not(0xffffffffffffffffffffffffffffffffffffffffffffffffffffffff)\n      and\n      0x20\n      dup3\n      add\n      dup1\n      mload\n      0xffffffffffffffffffffffffffffffffffffffffffffffffffffffff\n      dup4\n      dup2\n      dup4\n      and\n      or\n      dup4\n      mstore\n      pop\n      pop\n      pop\n      pop\n        /* \"contracts/3_Ballot.sol\":4064:4124  callData = abi.encodeWithSignature(_callDataParam.signature) */\n      swap1\n      pop\n        /* \"contracts/3_Ballot.sol\":3972:4176  function getBallotCallData() public view virtual  returns (bytes memory callData) {... */\n      swap1\n      jump\t// out\n        /* \"contracts/3_Ballot.sol\":8337:8913  function isVotingDeadLine() private returns (bool) {... */\n    tag_59:\n        /* \"contracts/3_Ballot.sol\":8382:8386  bool */\n      0x00\n        /* \"contracts/3_Ballot.sol\":8398:8416  uint48 currentTime */\n      dup1\n        /* \"contracts/3_Ballot.sol\":8426:8441  block.timestamp */\n      timestamp\n        /* \"contracts/3_Ballot.sol\":8398:8442  uint48 currentTime = uint48(block.timestamp) */\n      swap1\n      pop\n        /* \"contracts/3_Ballot.sol\":8471:8480  _deadLine */\n      sload(0x03)\n        /* \"contracts/3_Ballot.sol\":8456:8467  currentTime */\n      dup2\n        /* \"contracts/3_Ballot.sol\":8456:8480  currentTime <= _deadLine */\n      0xffffffffffff\n      and\n      gt\n        /* \"contracts/3_Ballot.sol\":8452:8885  if (currentTime <= _deadLine) {... */\n      tag_119\n      jumpi\n        /* \"contracts/3_Ballot.sol\":8503:8507  true */\n      0x01\n        /* \"contracts/3_Ballot.sol\":8496:8507  return true */\n      swap2\n      pop\n      pop\n      jump(tag_118)\n        /* \"contracts/3_Ballot.sol\":8452:8885  if (currentTime <= _deadLine) {... */\n    tag_119:\n        /* \"contracts/3_Ballot.sol\":8552:8565  _votingParams */\n      0x02\n        /* \"contracts/3_Ballot.sol\":8552:8572  _votingParams.quorum */\n      0x00\n      add\n      0x00\n      swap1\n      sload\n      swap1\n      0x0100\n      exp\n      swap1\n      div\n      0xffff\n      and\n        /* \"contracts/3_Ballot.sol\":8528:8572  _ballotParam.observed < _votingParams.quorum */\n      0xffff\n      and\n        /* \"contracts/3_Ballot.sol\":8528:8540  _ballotParam */\n      0x00\n        /* \"contracts/3_Ballot.sol\":8528:8549  _ballotParam.observed */\n      0x01\n      add\n      0x02\n      swap1\n      sload\n      swap1\n      0x0100\n      exp\n      swap1\n      div\n      0xffff\n      and\n        /* \"contracts/3_Ballot.sol\":8528:8572  _ballotParam.observed < _votingParams.quorum */\n      0xffff\n      and\n      lt\n        /* \"contracts/3_Ballot.sol\":8524:8885  if (_ballotParam.observed < _votingParams.quorum) {... */\n      iszero\n      tag_121\n      jumpi\n        /* \"contracts/3_Ballot.sol\":8663:8676  _votingParams */\n      0x02\n        /* \"contracts/3_Ballot.sol\":8663:8687  _votingParams.etaSeconds */\n      0x00\n      add\n      0x0c\n      swap1\n      sload\n      swap1\n      0x0100\n      exp\n      swap1\n      div\n      0xffffffffffff\n      and\n        /* \"contracts/3_Ballot.sol\":8634:8647  _votingParams */\n      0x02\n        /* \"contracts/3_Ballot.sol\":8634:8660  _votingParams.voteDuration */\n      0x00\n      add\n      0x02\n      swap1\n      sload\n      swap1\n      0x0100\n      exp\n      swap1\n      div\n      0xffffffff\n      and\n        /* \"contracts/3_Ballot.sol\":8608:8660  _votingParams.voteStart + _votingParams.voteDuration */\n      0xffffffff\n      and\n        /* \"contracts/3_Ballot.sol\":8608:8621  _votingParams */\n      0x02\n        /* \"contracts/3_Ballot.sol\":8608:8631  _votingParams.voteStart */\n      0x00\n      add\n      0x06\n      swap1\n      sload\n      swap1\n      0x0100\n      exp\n      swap1\n      div\n      0xffffffffffff\n      and\n        /* \"contracts/3_Ballot.sol\":8608:8660  _votingParams.voteStart + _votingParams.voteDuration */\n      tag_122\n      swap2\n      swap1\n      tag_123\n      jump\t// in\n    tag_122:\n        /* \"contracts/3_Ballot.sol\":8608:8687  _votingParams.voteStart + _votingParams.voteDuration + _votingParams.etaSeconds */\n      tag_124\n      swap2\n      swap1\n      tag_123\n      jump\t// in\n    tag_124:\n        /* \"contracts/3_Ballot.sol\":8592:8688  currentTime <= (_votingParams.voteStart + _votingParams.voteDuration + _votingParams.etaSeconds) */\n      0xffffffffffff\n      and\n        /* \"contracts/3_Ballot.sol\":8592:8603  currentTime */\n      dup2\n        /* \"contracts/3_Ballot.sol\":8592:8688  currentTime <= (_votingParams.voteStart + _votingParams.voteDuration + _votingParams.etaSeconds) */\n      0xffffffffffff\n      and\n      gt\n        /* \"contracts/3_Ballot.sol\":8588:8874  if (currentTime <= (_votingParams.voteStart + _votingParams.voteDuration + _votingParams.etaSeconds)) {... */\n      tag_125\n      jumpi\n        /* \"contracts/3_Ballot.sol\":8721:8734  _votingParams */\n      0x02\n        /* \"contracts/3_Ballot.sol\":8721:8745  _votingParams.etaSeconds */\n      0x00\n      add\n      0x0c\n      swap1\n      sload\n      swap1\n      0x0100\n      exp\n      swap1\n      div\n      0xffffffffffff\n      and\n        /* \"contracts/3_Ballot.sol\":8708:8745  _deadLine += _votingParams.etaSeconds */\n      0xffffffffffff\n      and\n        /* \"contracts/3_Ballot.sol\":8708:8717  _deadLine */\n      0x03\n      0x00\n        /* \"contracts/3_Ballot.sol\":8708:8745  _deadLine += _votingParams.etaSeconds */\n      dup3\n      dup3\n      sload\n      tag_126\n      swap2\n      swap1\n      tag_127\n      jump\t// in\n    tag_126:\n      swap3\n      pop\n      pop\n      dup2\n      swap1\n      sstore\n      pop\n        /* \"contracts/3_Ballot.sol\":8798:8802  this */\n      address\n        /* \"contracts/3_Ballot.sol\":8768:8830  etaSecondsIsActivated(address(this), _votingParams.etaSeconds) */\n      0xffffffffffffffffffffffffffffffffffffffff\n      and\n      0x500de3b55e9f23c65d27e8e2eb29867b6b250c4219cec100f4b441983c5d7d78\n        /* \"contracts/3_Ballot.sol\":8805:8818  _votingParams */\n      0x02\n        /* \"contracts/3_Ballot.sol\":8805:8829  _votingParams.etaSeconds */\n      0x00\n      add\n      0x0c\n      swap1\n      sload\n      swap1\n      0x0100\n      exp\n      swap1\n      div\n      0xffffffffffff\n      and\n        /* \"contracts/3_Ballot.sol\":8768:8830  etaSecondsIsActivated(address(this), _votingParams.etaSeconds) */\n      mload(0x40)\n      tag_128\n      swap2\n      swap1\n      tag_56\n      jump\t// in\n    tag_128:\n      mload(0x40)\n      dup1\n      swap2\n      sub\n      swap1\n      log2\n        /* \"contracts/3_Ballot.sol\":8855:8859  true */\n      0x01\n        /* \"contracts/3_Ballot.sol\":8848:8859  return true */\n      swap2\n      pop\n      pop\n      jump(tag_118)\n        /* \"contracts/3_Ballot.sol\":8588:8874  if (currentTime <= (_votingParams.voteStart + _votingParams.voteDuration + _votingParams.etaSeconds)) {... */\n    tag_125:\n        /* \"contracts/3_Ballot.sol\":8524:8885  if (_ballotParam.observed < _votingParams.quorum) {... */\n    tag_121:\n        /* \"contracts/3_Ballot.sol\":8901:8906  false */\n      0x00\n        /* \"contracts/3_Ballot.sol\":8894:8906  return false */\n      swap2\n      pop\n      pop\n        /* \"contracts/3_Ballot.sol\":8337:8913  function isVotingDeadLine() private returns (bool) {... */\n    tag_118:\n      swap1\n      jump\t// out\n        /* \"contracts/3_Ballot.sol\":7999:8331  function _votersPermission() private {... */\n    tag_66:\n        /* \"contracts/3_Ballot.sol\":8046:8060  uint16 weight_ */\n      0x00\n        /* \"contracts/3_Ballot.sol\":8075:8090  _proposalParams */\n      0x08\n        /* \"contracts/3_Ballot.sol\":8075:8097  _proposalParams.target */\n      0x00\n      add\n      0x00\n      swap1\n      sload\n      swap1\n      0x0100\n      exp\n      swap1\n      div\n      0xffffffffffffffffffffffffffffffffffffffff\n      and\n        /* \"contracts/3_Ballot.sol\":8063:8108  IgetBalance(_proposalParams.target).balanceOf */\n      0xffffffffffffffffffffffffffffffffffffffff\n      and\n      0x70a08231\n        /* \"contracts/3_Ballot.sol\":8109:8119  msg.sender */\n      caller\n        /* \"contracts/3_Ballot.sol\":8063:8120  IgetBalance(_proposalParams.target).balanceOf(msg.sender) */\n      mload(0x40)\n      dup3\n      0xffffffff\n      and\n      0xe0\n      shl\n      dup2\n      mstore\n      0x04\n      add\n      tag_130\n      swap2\n      swap1\n      tag_131\n      jump\t// in\n    tag_130:\n      0x20\n      mload(0x40)\n      dup1\n      dup4\n      sub\n      dup2\n      dup7\n      gas\n      staticcall\n      iszero\n      dup1\n      iszero\n      tag_133\n      jumpi\n      returndatasize\n      0x00\n      dup1\n      returndatacopy\n      revert(0x00, returndatasize)\n    tag_133:\n      pop\n      pop\n      pop\n      pop\n      mload(0x40)\n      returndatasize\n      not(0x1f)\n      0x1f\n      dup3\n      add\n      and\n      dup3\n      add\n      dup1\n      0x40\n      mstore\n      pop\n      dup2\n      add\n      swap1\n      tag_134\n      swap2\n      swap1\n      tag_135\n      jump\t// in\n    tag_134:\n        /* \"contracts/3_Ballot.sol\":8046:8120  uint16 weight_ = IgetBalance(_proposalParams.target).balanceOf(msg.sender) */\n      swap1\n      pop\n        /* \"contracts/3_Ballot.sol\":8144:8145  0 */\n      0x00\n        /* \"contracts/3_Ballot.sol\":8134:8141  weight_ */\n      dup2\n        /* \"contracts/3_Ballot.sol\":8134:8145  weight_ > 0 */\n      0xffff\n      and\n      gt\n        /* \"contracts/3_Ballot.sol\":8130:8208  if (weight_ > 0) {... */\n      iszero\n      tag_136\n      jumpi\n        /* \"contracts/3_Ballot.sol\":8190:8197  weight_ */\n      dup1\n        /* \"contracts/3_Ballot.sol\":8161:8168  _voters */\n      0x0c\n        /* \"contracts/3_Ballot.sol\":8161:8180  _voters[msg.sender] */\n      0x00\n        /* \"contracts/3_Ballot.sol\":8169:8179  msg.sender */\n      caller\n        /* \"contracts/3_Ballot.sol\":8161:8180  _voters[msg.sender] */\n      0xffffffffffffffffffffffffffffffffffffffff\n      and\n      0xffffffffffffffffffffffffffffffffffffffff\n      and\n      dup2\n      mstore\n      0x20\n      add\n      swap1\n      dup2\n      mstore\n      0x20\n      add\n      0x00\n      keccak256\n        /* \"contracts/3_Ballot.sol\":8161:8187  _voters[msg.sender].weight */\n      0x00\n      add\n      0x00\n        /* \"contracts/3_Ballot.sol\":8161:8197  _voters[msg.sender].weight = weight_ */\n      0x0100\n      exp\n      dup2\n      sload\n      dup2\n      0xffff\n      mul\n      not\n      and\n      swap1\n      dup4\n      0xffff\n      and\n      mul\n      or\n      swap1\n      sstore\n      pop\n        /* \"contracts/3_Ballot.sol\":8130:8208  if (weight_ > 0) {... */\n    tag_136:\n        /* \"contracts/3_Ballot.sol\":8255:8256  0 */\n      0x00\n        /* \"contracts/3_Ballot.sol\":8225:8232  _voters */\n      0x0c\n        /* \"contracts/3_Ballot.sol\":8225:8244  _voters[msg.sender] */\n      0x00\n        /* \"contracts/3_Ballot.sol\":8233:8243  msg.sender */\n      caller\n        /* \"contracts/3_Ballot.sol\":8225:8244  _voters[msg.sender] */\n      0xffffffffffffffffffffffffffffffffffffffff\n      and\n      0xffffffffffffffffffffffffffffffffffffffff\n      and\n      dup2\n      mstore\n      0x20\n      add\n      swap1\n      dup2\n      mstore\n      0x20\n      add\n      0x00\n      keccak256\n        /* \"contracts/3_Ballot.sol\":8225:8251  _voters[msg.sender].weight */\n      0x00\n      add\n      0x00\n      swap1\n      sload\n      swap1\n      0x0100\n      exp\n      swap1\n      div\n      0xffff\n      and\n        /* \"contracts/3_Ballot.sol\":8225:8256  _voters[msg.sender].weight != 0 */\n      0xffff\n      and\n      eq\n      iszero\n        /* \"contracts/3_Ballot.sol\":8225:8299  _voters[msg.sender].weight != 0 || _voters[msg.sender].delegateWeight != 0 */\n      dup1\n      tag_137\n      jumpi\n      pop\n        /* \"contracts/3_Ballot.sol\":8298:8299  0 */\n      0x00\n        /* \"contracts/3_Ballot.sol\":8260:8267  _voters */\n      0x0c\n        /* \"contracts/3_Ballot.sol\":8260:8279  _voters[msg.sender] */\n      0x00\n        /* \"contracts/3_Ballot.sol\":8268:8278  msg.sender */\n      caller\n        /* \"contracts/3_Ballot.sol\":8260:8279  _voters[msg.sender] */\n      0xffffffffffffffffffffffffffffffffffffffff\n      and\n      0xffffffffffffffffffffffffffffffffffffffff\n      and\n      dup2\n      mstore\n      0x20\n      add\n      swap1\n      dup2\n      mstore\n      0x20\n      add\n      0x00\n      keccak256\n        /* \"contracts/3_Ballot.sol\":8260:8294  _voters[msg.sender].delegateWeight */\n      0x00\n      add\n      0x02\n      swap1\n      sload\n      swap1\n      0x0100\n      exp\n      swap1\n      div\n      0xffff\n      and\n        /* \"contracts/3_Ballot.sol\":8260:8299  _voters[msg.sender].delegateWeight != 0 */\n      0xffff\n      and\n      eq\n      iszero\n        /* \"contracts/3_Ballot.sol\":8225:8299  _voters[msg.sender].weight != 0 || _voters[msg.sender].delegateWeight != 0 */\n    tag_137:\n        /* \"contracts/3_Ballot.sol\":8217:8324  require(_voters[msg.sender].weight != 0 || _voters[msg.sender].delegateWeight != 0, \"Has no right to vote\") */\n      tag_138\n      jumpi\n      mload(0x40)\n      0x08c379a000000000000000000000000000000000000000000000000000000000\n      dup2\n      mstore\n      0x04\n      add\n      tag_139\n      swap1\n      tag_140\n      jump\t// in\n    tag_139:\n      mload(0x40)\n      dup1\n      swap2\n      sub\n      swap1\n      revert\n    tag_138:\n        /* \"contracts/3_Ballot.sol\":8036:8331  {... */\n      pop\n        /* \"contracts/3_Ballot.sol\":7999:8331  function _votersPermission() private {... */\n      jump\t// out\n        /* \"#utility.yul\":7:133   */\n    tag_141:\n        /* \"#utility.yul\":44:51   */\n      0x00\n        /* \"#utility.yul\":84:126   */\n      0xffffffffffffffffffffffffffffffffffffffff\n        /* \"#utility.yul\":77:82   */\n      dup3\n        /* \"#utility.yul\":73:127   */\n      and\n        /* \"#utility.yul\":62:127   */\n      swap1\n      pop\n        /* \"#utility.yul\":7:133   */\n      swap2\n      swap1\n      pop\n      jump\t// out\n        /* \"#utility.yul\":139:235   */\n    tag_142:\n        /* \"#utility.yul\":176:183   */\n      0x00\n        /* \"#utility.yul\":205:229   */\n      tag_188\n        /* \"#utility.yul\":223:228   */\n      dup3\n        /* \"#utility.yul\":205:229   */\n      tag_141\n      jump\t// in\n    tag_188:\n        /* \"#utility.yul\":194:229   */\n      swap1\n      pop\n        /* \"#utility.yul\":139:235   */\n      swap2\n      swap1\n      pop\n      jump\t// out\n        /* \"#utility.yul\":241:359   */\n    tag_143:\n        /* \"#utility.yul\":328:352   */\n      tag_190\n        /* \"#utility.yul\":346:351   */\n      dup2\n        /* \"#utility.yul\":328:352   */\n      tag_142\n      jump\t// in\n    tag_190:\n        /* \"#utility.yul\":323:326   */\n      dup3\n        /* \"#utility.yul\":316:353   */\n      mstore\n        /* \"#utility.yul\":241:359   */\n      pop\n      pop\n      jump\t// out\n        /* \"#utility.yul\":365:442   */\n    tag_144:\n        /* \"#utility.yul\":402:409   */\n      0x00\n        /* \"#utility.yul\":431:436   */\n      dup2\n        /* \"#utility.yul\":420:436   */\n      swap1\n      pop\n        /* \"#utility.yul\":365:442   */\n      swap2\n      swap1\n      pop\n      jump\t// out\n        /* \"#utility.yul\":448:566   */\n    tag_145:\n        /* \"#utility.yul\":535:559   */\n      tag_193\n        /* \"#utility.yul\":553:558   */\n      dup2\n        /* \"#utility.yul\":535:559   */\n      tag_144\n      jump\t// in\n    tag_193:\n        /* \"#utility.yul\":530:533   */\n      dup3\n        /* \"#utility.yul\":523:560   */\n      mstore\n        /* \"#utility.yul\":448:566   */\n      pop\n      pop\n      jump\t// out\n        /* \"#utility.yul\":572:1014   */\n    tag_17:\n        /* \"#utility.yul\":721:725   */\n      0x00\n        /* \"#utility.yul\":759:761   */\n      0x60\n        /* \"#utility.yul\":748:757   */\n      dup3\n        /* \"#utility.yul\":744:762   */\n      add\n        /* \"#utility.yul\":736:762   */\n      swap1\n      pop\n        /* \"#utility.yul\":772:843   */\n      tag_195\n        /* \"#utility.yul\":840:841   */\n      0x00\n        /* \"#utility.yul\":829:838   */\n      dup4\n        /* \"#utility.yul\":825:842   */\n      add\n        /* \"#utility.yul\":816:822   */\n      dup7\n        /* \"#utility.yul\":772:843   */\n      tag_143\n      jump\t// in\n    tag_195:\n        /* \"#utility.yul\":853:925   */\n      tag_196\n        /* \"#utility.yul\":921:923   */\n      0x20\n        /* \"#utility.yul\":910:919   */\n      dup4\n        /* \"#utility.yul\":906:924   */\n      add\n        /* \"#utility.yul\":897:903   */\n      dup6\n        /* \"#utility.yul\":853:925   */\n      tag_143\n      jump\t// in\n    tag_196:\n        /* \"#utility.yul\":935:1007   */\n      tag_197\n        /* \"#utility.yul\":1003:1005   */\n      0x40\n        /* \"#utility.yul\":992:1001   */\n      dup4\n        /* \"#utility.yul\":988:1006   */\n      add\n        /* \"#utility.yul\":979:985   */\n      dup5\n        /* \"#utility.yul\":935:1007   */\n      tag_145\n      jump\t// in\n    tag_197:\n        /* \"#utility.yul\":572:1014   */\n      swap5\n      swap4\n      pop\n      pop\n      pop\n      pop\n      jump\t// out\n        /* \"#utility.yul\":1101:1218   */\n    tag_147:\n        /* \"#utility.yul\":1210:1211   */\n      0x00\n        /* \"#utility.yul\":1207:1208   */\n      dup1\n        /* \"#utility.yul\":1200:1212   */\n      revert\n        /* \"#utility.yul\":1347:1437   */\n    tag_149:\n        /* \"#utility.yul\":1381:1388   */\n      0x00\n        /* \"#utility.yul\":1424:1429   */\n      dup2\n        /* \"#utility.yul\":1417:1430   */\n      iszero\n        /* \"#utility.yul\":1410:1431   */\n      iszero\n        /* \"#utility.yul\":1399:1431   */\n      swap1\n      pop\n        /* \"#utility.yul\":1347:1437   */\n      swap2\n      swap1\n      pop\n      jump\t// out\n        /* \"#utility.yul\":1443:1559   */\n    tag_150:\n        /* \"#utility.yul\":1513:1534   */\n      tag_203\n        /* \"#utility.yul\":1528:1533   */\n      dup2\n        /* \"#utility.yul\":1513:1534   */\n      tag_149\n      jump\t// in\n    tag_203:\n        /* \"#utility.yul\":1506:1511   */\n      dup2\n        /* \"#utility.yul\":1503:1535   */\n      eq\n        /* \"#utility.yul\":1493:1553   */\n      tag_204\n      jumpi\n        /* \"#utility.yul\":1549:1550   */\n      0x00\n        /* \"#utility.yul\":1546:1547   */\n      dup1\n        /* \"#utility.yul\":1539:1551   */\n      revert\n        /* \"#utility.yul\":1493:1553   */\n    tag_204:\n        /* \"#utility.yul\":1443:1559   */\n      pop\n      jump\t// out\n        /* \"#utility.yul\":1565:1698   */\n    tag_151:\n        /* \"#utility.yul\":1608:1613   */\n      0x00\n        /* \"#utility.yul\":1646:1652   */\n      dup2\n        /* \"#utility.yul\":1633:1653   */\n      calldataload\n        /* \"#utility.yul\":1624:1653   */\n      swap1\n      pop\n        /* \"#utility.yul\":1662:1692   */\n      tag_206\n        /* \"#utility.yul\":1686:1691   */\n      dup2\n        /* \"#utility.yul\":1662:1692   */\n      tag_150\n      jump\t// in\n    tag_206:\n        /* \"#utility.yul\":1565:1698   */\n      swap3\n      swap2\n      pop\n      pop\n      jump\t// out\n        /* \"#utility.yul\":1704:2027   */\n    tag_20:\n        /* \"#utility.yul\":1760:1766   */\n      0x00\n        /* \"#utility.yul\":1809:1811   */\n      0x20\n        /* \"#utility.yul\":1797:1806   */\n      dup3\n        /* \"#utility.yul\":1788:1795   */\n      dup5\n        /* \"#utility.yul\":1784:1807   */\n      sub\n        /* \"#utility.yul\":1780:1812   */\n      slt\n        /* \"#utility.yul\":1777:1896   */\n      iszero\n      tag_208\n      jumpi\n        /* \"#utility.yul\":1815:1894   */\n      tag_209\n      tag_147\n      jump\t// in\n    tag_209:\n        /* \"#utility.yul\":1777:1896   */\n    tag_208:\n        /* \"#utility.yul\":1935:1936   */\n      0x00\n        /* \"#utility.yul\":1960:2010   */\n      tag_210\n        /* \"#utility.yul\":2002:2009   */\n      dup5\n        /* \"#utility.yul\":1993:1999   */\n      dup3\n        /* \"#utility.yul\":1982:1991   */\n      dup6\n        /* \"#utility.yul\":1978:2000   */\n      add\n        /* \"#utility.yul\":1960:2010   */\n      tag_151\n      jump\t// in\n    tag_210:\n        /* \"#utility.yul\":1950:2010   */\n      swap2\n      pop\n        /* \"#utility.yul\":1906:2020   */\n      pop\n        /* \"#utility.yul\":1704:2027   */\n      swap3\n      swap2\n      pop\n      pop\n      jump\t// out\n        /* \"#utility.yul\":2033:2155   */\n    tag_152:\n        /* \"#utility.yul\":2106:2130   */\n      tag_212\n        /* \"#utility.yul\":2124:2129   */\n      dup2\n        /* \"#utility.yul\":2106:2130   */\n      tag_142\n      jump\t// in\n    tag_212:\n        /* \"#utility.yul\":2099:2104   */\n      dup2\n        /* \"#utility.yul\":2096:2131   */\n      eq\n        /* \"#utility.yul\":2086:2149   */\n      tag_213\n      jumpi\n        /* \"#utility.yul\":2145:2146   */\n      0x00\n        /* \"#utility.yul\":2142:2143   */\n      dup1\n        /* \"#utility.yul\":2135:2147   */\n      revert\n        /* \"#utility.yul\":2086:2149   */\n    tag_213:\n        /* \"#utility.yul\":2033:2155   */\n      pop\n      jump\t// out\n        /* \"#utility.yul\":2161:2300   */\n    tag_153:\n        /* \"#utility.yul\":2207:2212   */\n      0x00\n        /* \"#utility.yul\":2245:2251   */\n      dup2\n        /* \"#utility.yul\":2232:2252   */\n      calldataload\n        /* \"#utility.yul\":2223:2252   */\n      swap1\n      pop\n        /* \"#utility.yul\":2261:2294   */\n      tag_215\n        /* \"#utility.yul\":2288:2293   */\n      dup2\n        /* \"#utility.yul\":2261:2294   */\n      tag_152\n      jump\t// in\n    tag_215:\n        /* \"#utility.yul\":2161:2300   */\n      swap3\n      swap2\n      pop\n      pop\n      jump\t// out\n        /* \"#utility.yul\":2306:2635   */\n    tag_24:\n        /* \"#utility.yul\":2365:2371   */\n      0x00\n        /* \"#utility.yul\":2414:2416   */\n      0x20\n        /* \"#utility.yul\":2402:2411   */\n      dup3\n        /* \"#utility.yul\":2393:2400   */\n      dup5\n        /* \"#utility.yul\":2389:2412   */\n      sub\n        /* \"#utility.yul\":2385:2417   */\n      slt\n        /* \"#utility.yul\":2382:2501   */\n      iszero\n      tag_217\n      jumpi\n        /* \"#utility.yul\":2420:2499   */\n      tag_218\n      tag_147\n      jump\t// in\n    tag_218:\n        /* \"#utility.yul\":2382:2501   */\n    tag_217:\n        /* \"#utility.yul\":2540:2541   */\n      0x00\n        /* \"#utility.yul\":2565:2618   */\n      tag_219\n        /* \"#utility.yul\":2610:2617   */\n      dup5\n        /* \"#utility.yul\":2601:2607   */\n      dup3\n        /* \"#utility.yul\":2590:2599   */\n      dup6\n        /* \"#utility.yul\":2586:2608   */\n      add\n        /* \"#utility.yul\":2565:2618   */\n      tag_153\n      jump\t// in\n    tag_219:\n        /* \"#utility.yul\":2555:2618   */\n      swap2\n      pop\n        /* \"#utility.yul\":2511:2628   */\n      pop\n        /* \"#utility.yul\":2306:2635   */\n      swap3\n      swap2\n      pop\n      pop\n      jump\t// out\n        /* \"#utility.yul\":2641:2718   */\n    tag_154:\n        /* \"#utility.yul\":2678:2685   */\n      0x00\n        /* \"#utility.yul\":2707:2712   */\n      dup2\n        /* \"#utility.yul\":2696:2712   */\n      swap1\n      pop\n        /* \"#utility.yul\":2641:2718   */\n      swap2\n      swap1\n      pop\n      jump\t// out\n        /* \"#utility.yul\":2724:2842   */\n    tag_155:\n        /* \"#utility.yul\":2811:2835   */\n      tag_222\n        /* \"#utility.yul\":2829:2834   */\n      dup2\n        /* \"#utility.yul\":2811:2835   */\n      tag_154\n      jump\t// in\n    tag_222:\n        /* \"#utility.yul\":2806:2809   */\n      dup3\n        /* \"#utility.yul\":2799:2836   */\n      mstore\n        /* \"#utility.yul\":2724:2842   */\n      pop\n      pop\n      jump\t// out\n        /* \"#utility.yul\":2848:2937   */\n    tag_156:\n        /* \"#utility.yul\":2884:2891   */\n      0x00\n        /* \"#utility.yul\":2924:2930   */\n      0xffff\n        /* \"#utility.yul\":2917:2922   */\n      dup3\n        /* \"#utility.yul\":2913:2931   */\n      and\n        /* \"#utility.yul\":2902:2931   */\n      swap1\n      pop\n        /* \"#utility.yul\":2848:2937   */\n      swap2\n      swap1\n      pop\n      jump\t// out\n        /* \"#utility.yul\":2943:3058   */\n    tag_157:\n        /* \"#utility.yul\":3028:3051   */\n      tag_225\n        /* \"#utility.yul\":3045:3050   */\n      dup2\n        /* \"#utility.yul\":3028:3051   */\n      tag_156\n      jump\t// in\n    tag_225:\n        /* \"#utility.yul\":3023:3026   */\n      dup3\n        /* \"#utility.yul\":3016:3052   */\n      mstore\n        /* \"#utility.yul\":2943:3058   */\n      pop\n      pop\n      jump\t// out\n        /* \"#utility.yul\":3064:3498   */\n    tag_29:\n        /* \"#utility.yul\":3209:3213   */\n      0x00\n        /* \"#utility.yul\":3247:3249   */\n      0x60\n        /* \"#utility.yul\":3236:3245   */\n      dup3\n        /* \"#utility.yul\":3232:3250   */\n      add\n        /* \"#utility.yul\":3224:3250   */\n      swap1\n      pop\n        /* \"#utility.yul\":3260:3331   */\n      tag_227\n        /* \"#utility.yul\":3328:3329   */\n      0x00\n        /* \"#utility.yul\":3317:3326   */\n      dup4\n        /* \"#utility.yul\":3313:3330   */\n      add\n        /* \"#utility.yul\":3304:3310   */\n      dup7\n        /* \"#utility.yul\":3260:3331   */\n      tag_155\n      jump\t// in\n    tag_227:\n        /* \"#utility.yul\":3341:3411   */\n      tag_228\n        /* \"#utility.yul\":3407:3409   */\n      0x20\n        /* \"#utility.yul\":3396:3405   */\n      dup4\n        /* \"#utility.yul\":3392:3410   */\n      add\n        /* \"#utility.yul\":3383:3389   */\n      dup6\n        /* \"#utility.yul\":3341:3411   */\n      tag_157\n      jump\t// in\n    tag_228:\n        /* \"#utility.yul\":3421:3491   */\n      tag_229\n        /* \"#utility.yul\":3487:3489   */\n      0x40\n        /* \"#utility.yul\":3476:3485   */\n      dup4\n        /* \"#utility.yul\":3472:3490   */\n      add\n        /* \"#utility.yul\":3463:3469   */\n      dup5\n        /* \"#utility.yul\":3421:3491   */\n      tag_157\n      jump\t// in\n    tag_229:\n        /* \"#utility.yul\":3064:3498   */\n      swap5\n      swap4\n      pop\n      pop\n      pop\n      pop\n      jump\t// out\n        /* \"#utility.yul\":3504:3597   */\n    tag_158:\n        /* \"#utility.yul\":3540:3547   */\n      0x00\n        /* \"#utility.yul\":3580:3590   */\n      0xffffffff\n        /* \"#utility.yul\":3573:3578   */\n      dup3\n        /* \"#utility.yul\":3569:3591   */\n      and\n        /* \"#utility.yul\":3558:3591   */\n      swap1\n      pop\n        /* \"#utility.yul\":3504:3597   */\n      swap2\n      swap1\n      pop\n      jump\t// out\n        /* \"#utility.yul\":3603:3718   */\n    tag_159:\n        /* \"#utility.yul\":3688:3711   */\n      tag_232\n        /* \"#utility.yul\":3705:3710   */\n      dup2\n        /* \"#utility.yul\":3688:3711   */\n      tag_158\n      jump\t// in\n    tag_232:\n        /* \"#utility.yul\":3683:3686   */\n      dup3\n        /* \"#utility.yul\":3676:3712   */\n      mstore\n        /* \"#utility.yul\":3603:3718   */\n      pop\n      pop\n      jump\t// out\n        /* \"#utility.yul\":3724:3821   */\n    tag_160:\n        /* \"#utility.yul\":3760:3767   */\n      0x00\n        /* \"#utility.yul\":3800:3814   */\n      0xffffffffffff\n        /* \"#utility.yul\":3793:3798   */\n      dup3\n        /* \"#utility.yul\":3789:3815   */\n      and\n        /* \"#utility.yul\":3778:3815   */\n      swap1\n      pop\n        /* \"#utility.yul\":3724:3821   */\n      swap2\n      swap1\n      pop\n      jump\t// out\n        /* \"#utility.yul\":3827:3942   */\n    tag_161:\n        /* \"#utility.yul\":3912:3935   */\n      tag_235\n        /* \"#utility.yul\":3929:3934   */\n      dup2\n        /* \"#utility.yul\":3912:3935   */\n      tag_160\n      jump\t// in\n    tag_235:\n        /* \"#utility.yul\":3907:3910   */\n      dup3\n        /* \"#utility.yul\":3900:3936   */\n      mstore\n        /* \"#utility.yul\":3827:3942   */\n      pop\n      pop\n      jump\t// out\n        /* \"#utility.yul\":3948:4485   */\n    tag_33:\n        /* \"#utility.yul\":4117:4121   */\n      0x00\n        /* \"#utility.yul\":4155:4158   */\n      0x80\n        /* \"#utility.yul\":4144:4153   */\n      dup3\n        /* \"#utility.yul\":4140:4159   */\n      add\n        /* \"#utility.yul\":4132:4159   */\n      swap1\n      pop\n        /* \"#utility.yul\":4169:4238   */\n      tag_237\n        /* \"#utility.yul\":4235:4236   */\n      0x00\n        /* \"#utility.yul\":4224:4233   */\n      dup4\n        /* \"#utility.yul\":4220:4237   */\n      add\n        /* \"#utility.yul\":4211:4217   */\n      dup8\n        /* \"#utility.yul\":4169:4238   */\n      tag_157\n      jump\t// in\n    tag_237:\n        /* \"#utility.yul\":4248:4318   */\n      tag_238\n        /* \"#utility.yul\":4314:4316   */\n      0x20\n        /* \"#utility.yul\":4303:4312   */\n      dup4\n        /* \"#utility.yul\":4299:4317   */\n      add\n        /* \"#utility.yul\":4290:4296   */\n      dup7\n        /* \"#utility.yul\":4248:4318   */\n      tag_159\n      jump\t// in\n    tag_238:\n        /* \"#utility.yul\":4328:4398   */\n      tag_239\n        /* \"#utility.yul\":4394:4396   */\n      0x40\n        /* \"#utility.yul\":4383:4392   */\n      dup4\n        /* \"#utility.yul\":4379:4397   */\n      add\n        /* \"#utility.yul\":4370:4376   */\n      dup6\n        /* \"#utility.yul\":4328:4398   */\n      tag_161\n      jump\t// in\n    tag_239:\n        /* \"#utility.yul\":4408:4478   */\n      tag_240\n        /* \"#utility.yul\":4474:4476   */\n      0x60\n        /* \"#utility.yul\":4463:4472   */\n      dup4\n        /* \"#utility.yul\":4459:4477   */\n      add\n        /* \"#utility.yul\":4450:4456   */\n      dup5\n        /* \"#utility.yul\":4408:4478   */\n      tag_161\n      jump\t// in\n    tag_240:\n        /* \"#utility.yul\":3948:4485   */\n      swap6\n      swap5\n      pop\n      pop\n      pop\n      pop\n      pop\n      jump\t// out\n        /* \"#utility.yul\":4491:4590   */\n    tag_162:\n        /* \"#utility.yul\":4543:4549   */\n      0x00\n        /* \"#utility.yul\":4577:4582   */\n      dup2\n        /* \"#utility.yul\":4571:4583   */\n      mload\n        /* \"#utility.yul\":4561:4583   */\n      swap1\n      pop\n        /* \"#utility.yul\":4491:4590   */\n      swap2\n      swap1\n      pop\n      jump\t// out\n        /* \"#utility.yul\":4596:4765   */\n    tag_163:\n        /* \"#utility.yul\":4680:4691   */\n      0x00\n        /* \"#utility.yul\":4714:4720   */\n      dup3\n        /* \"#utility.yul\":4709:4712   */\n      dup3\n        /* \"#utility.yul\":4702:4721   */\n      mstore\n        /* \"#utility.yul\":4754:4758   */\n      0x20\n        /* \"#utility.yul\":4749:4752   */\n      dup3\n        /* \"#utility.yul\":4745:4759   */\n      add\n        /* \"#utility.yul\":4730:4759   */\n      swap1\n      pop\n        /* \"#utility.yul\":4596:4765   */\n      swap3\n      swap2\n      pop\n      pop\n      jump\t// out\n        /* \"#utility.yul\":4771:5017   */\n    tag_164:\n        /* \"#utility.yul\":4852:4853   */\n      0x00\n        /* \"#utility.yul\":4862:4975   */\n    tag_244:\n        /* \"#utility.yul\":4876:4882   */\n      dup4\n        /* \"#utility.yul\":4873:4874   */\n      dup2\n        /* \"#utility.yul\":4870:4883   */\n      lt\n        /* \"#utility.yul\":4862:4975   */\n      iszero\n      tag_246\n      jumpi\n        /* \"#utility.yul\":4961:4962   */\n      dup1\n        /* \"#utility.yul\":4956:4959   */\n      dup3\n        /* \"#utility.yul\":4952:4963   */\n      add\n        /* \"#utility.yul\":4946:4964   */\n      mload\n        /* \"#utility.yul\":4942:4943   */\n      dup2\n        /* \"#utility.yul\":4937:4940   */\n      dup5\n        /* \"#utility.yul\":4933:4944   */\n      add\n        /* \"#utility.yul\":4926:4965   */\n      mstore\n        /* \"#utility.yul\":4898:4900   */\n      0x20\n        /* \"#utility.yul\":4895:4896   */\n      dup2\n        /* \"#utility.yul\":4891:4901   */\n      add\n        /* \"#utility.yul\":4886:4901   */\n      swap1\n      pop\n        /* \"#utility.yul\":4862:4975   */\n      jump(tag_244)\n    tag_246:\n        /* \"#utility.yul\":5009:5010   */\n      0x00\n        /* \"#utility.yul\":5000:5006   */\n      dup5\n        /* \"#utility.yul\":4995:4998   */\n      dup5\n        /* \"#utility.yul\":4991:5007   */\n      add\n        /* \"#utility.yul\":4984:5011   */\n      mstore\n        /* \"#utility.yul\":4833:5017   */\n      pop\n        /* \"#utility.yul\":4771:5017   */\n      pop\n      pop\n      pop\n      jump\t// out\n        /* \"#utility.yul\":5023:5125   */\n    tag_165:\n        /* \"#utility.yul\":5064:5070   */\n      0x00\n        /* \"#utility.yul\":5115:5117   */\n      0x1f\n        /* \"#utility.yul\":5111:5118   */\n      not\n        /* \"#utility.yul\":5106:5108   */\n      0x1f\n        /* \"#utility.yul\":5099:5104   */\n      dup4\n        /* \"#utility.yul\":5095:5109   */\n      add\n        /* \"#utility.yul\":5091:5119   */\n      and\n        /* \"#utility.yul\":5081:5119   */\n      swap1\n      pop\n        /* \"#utility.yul\":5023:5125   */\n      swap2\n      swap1\n      pop\n      jump\t// out\n        /* \"#utility.yul\":5131:5508   */\n    tag_166:\n        /* \"#utility.yul\":5219:5222   */\n      0x00\n        /* \"#utility.yul\":5247:5286   */\n      tag_249\n        /* \"#utility.yul\":5280:5285   */\n      dup3\n        /* \"#utility.yul\":5247:5286   */\n      tag_162\n      jump\t// in\n    tag_249:\n        /* \"#utility.yul\":5302:5373   */\n      tag_250\n        /* \"#utility.yul\":5366:5372   */\n      dup2\n        /* \"#utility.yul\":5361:5364   */\n      dup6\n        /* \"#utility.yul\":5302:5373   */\n      tag_163\n      jump\t// in\n    tag_250:\n        /* \"#utility.yul\":5295:5373   */\n      swap4\n      pop\n        /* \"#utility.yul\":5382:5447   */\n      tag_251\n        /* \"#utility.yul\":5440:5446   */\n      dup2\n        /* \"#utility.yul\":5435:5438   */\n      dup6\n        /* \"#utility.yul\":5428:5432   */\n      0x20\n        /* \"#utility.yul\":5421:5426   */\n      dup7\n        /* \"#utility.yul\":5417:5433   */\n      add\n        /* \"#utility.yul\":5382:5447   */\n      tag_164\n      jump\t// in\n    tag_251:\n        /* \"#utility.yul\":5472:5501   */\n      tag_252\n        /* \"#utility.yul\":5494:5500   */\n      dup2\n        /* \"#utility.yul\":5472:5501   */\n      tag_165\n      jump\t// in\n    tag_252:\n        /* \"#utility.yul\":5467:5470   */\n      dup5\n        /* \"#utility.yul\":5463:5502   */\n      add\n        /* \"#utility.yul\":5456:5502   */\n      swap2\n      pop\n        /* \"#utility.yul\":5223:5508   */\n      pop\n        /* \"#utility.yul\":5131:5508   */\n      swap3\n      swap2\n      pop\n      pop\n      jump\t// out\n        /* \"#utility.yul\":5514:6249   */\n    tag_37:\n        /* \"#utility.yul\":5731:5735   */\n      0x00\n        /* \"#utility.yul\":5769:5772   */\n      0x80\n        /* \"#utility.yul\":5758:5767   */\n      dup3\n        /* \"#utility.yul\":5754:5773   */\n      add\n        /* \"#utility.yul\":5746:5773   */\n      swap1\n      pop\n        /* \"#utility.yul\":5819:5828   */\n      dup2\n        /* \"#utility.yul\":5813:5817   */\n      dup2\n        /* \"#utility.yul\":5809:5829   */\n      sub\n        /* \"#utility.yul\":5805:5806   */\n      0x00\n        /* \"#utility.yul\":5794:5803   */\n      dup4\n        /* \"#utility.yul\":5790:5807   */\n      add\n        /* \"#utility.yul\":5783:5830   */\n      mstore\n        /* \"#utility.yul\":5847:5925   */\n      tag_254\n        /* \"#utility.yul\":5920:5924   */\n      dup2\n        /* \"#utility.yul\":5911:5917   */\n      dup8\n        /* \"#utility.yul\":5847:5925   */\n      tag_166\n      jump\t// in\n    tag_254:\n        /* \"#utility.yul\":5839:5925   */\n      swap1\n      pop\n        /* \"#utility.yul\":5972:5981   */\n      dup2\n        /* \"#utility.yul\":5966:5970   */\n      dup2\n        /* \"#utility.yul\":5962:5982   */\n      sub\n        /* \"#utility.yul\":5957:5959   */\n      0x20\n        /* \"#utility.yul\":5946:5955   */\n      dup4\n        /* \"#utility.yul\":5942:5960   */\n      add\n        /* \"#utility.yul\":5935:5983   */\n      mstore\n        /* \"#utility.yul\":6000:6078   */\n      tag_255\n        /* \"#utility.yul\":6073:6077   */\n      dup2\n        /* \"#utility.yul\":6064:6070   */\n      dup7\n        /* \"#utility.yul\":6000:6078   */\n      tag_166\n      jump\t// in\n    tag_255:\n        /* \"#utility.yul\":5992:6078   */\n      swap1\n      pop\n        /* \"#utility.yul\":6088:6160   */\n      tag_256\n        /* \"#utility.yul\":6156:6158   */\n      0x40\n        /* \"#utility.yul\":6145:6154   */\n      dup4\n        /* \"#utility.yul\":6141:6159   */\n      add\n        /* \"#utility.yul\":6132:6138   */\n      dup6\n        /* \"#utility.yul\":6088:6160   */\n      tag_155\n      jump\t// in\n    tag_256:\n        /* \"#utility.yul\":6170:6242   */\n      tag_257\n        /* \"#utility.yul\":6238:6240   */\n      0x60\n        /* \"#utility.yul\":6227:6236   */\n      dup4\n        /* \"#utility.yul\":6223:6241   */\n      add\n        /* \"#utility.yul\":6214:6220   */\n      dup5\n        /* \"#utility.yul\":6170:6242   */\n      tag_143\n      jump\t// in\n    tag_257:\n        /* \"#utility.yul\":5514:6249   */\n      swap6\n      swap5\n      pop\n      pop\n      pop\n      pop\n      pop\n      jump\t// out\n        /* \"#utility.yul\":6255:6477   */\n    tag_41:\n        /* \"#utility.yul\":6348:6352   */\n      0x00\n        /* \"#utility.yul\":6386:6388   */\n      0x20\n        /* \"#utility.yul\":6375:6384   */\n      dup3\n        /* \"#utility.yul\":6371:6389   */\n      add\n        /* \"#utility.yul\":6363:6389   */\n      swap1\n      pop\n        /* \"#utility.yul\":6399:6470   */\n      tag_259\n        /* \"#utility.yul\":6467:6468   */\n      0x00\n        /* \"#utility.yul\":6456:6465   */\n      dup4\n        /* \"#utility.yul\":6452:6469   */\n      add\n        /* \"#utility.yul\":6443:6449   */\n      dup5\n        /* \"#utility.yul\":6399:6470   */\n      tag_145\n      jump\t// in\n    tag_259:\n        /* \"#utility.yul\":6255:6477   */\n      swap3\n      swap2\n      pop\n      pop\n      jump\t// out\n        /* \"#utility.yul\":6483:6581   */\n    tag_167:\n        /* \"#utility.yul\":6534:6540   */\n      0x00\n        /* \"#utility.yul\":6568:6573   */\n      dup2\n        /* \"#utility.yul\":6562:6574   */\n      mload\n        /* \"#utility.yul\":6552:6574   */\n      swap1\n      pop\n        /* \"#utility.yul\":6483:6581   */\n      swap2\n      swap1\n      pop\n      jump\t// out\n        /* \"#utility.yul\":6587:6755   */\n    tag_168:\n        /* \"#utility.yul\":6670:6681   */\n      0x00\n        /* \"#utility.yul\":6704:6710   */\n      dup3\n        /* \"#utility.yul\":6699:6702   */\n      dup3\n        /* \"#utility.yul\":6692:6711   */\n      mstore\n        /* \"#utility.yul\":6744:6748   */\n      0x20\n        /* \"#utility.yul\":6739:6742   */\n      dup3\n        /* \"#utility.yul\":6735:6749   */\n      add\n        /* \"#utility.yul\":6720:6749   */\n      swap1\n      pop\n        /* \"#utility.yul\":6587:6755   */\n      swap3\n      swap2\n      pop\n      pop\n      jump\t// out\n        /* \"#utility.yul\":6761:7134   */\n    tag_169:\n        /* \"#utility.yul\":6847:6850   */\n      0x00\n        /* \"#utility.yul\":6875:6913   */\n      tag_263\n        /* \"#utility.yul\":6907:6912   */\n      dup3\n        /* \"#utility.yul\":6875:6913   */\n      tag_167\n      jump\t// in\n    tag_263:\n        /* \"#utility.yul\":6929:6999   */\n      tag_264\n        /* \"#utility.yul\":6992:6998   */\n      dup2\n        /* \"#utility.yul\":6987:6990   */\n      dup6\n        /* \"#utility.yul\":6929:6999   */\n      tag_168\n      jump\t// in\n    tag_264:\n        /* \"#utility.yul\":6922:6999   */\n      swap4\n      pop\n        /* \"#utility.yul\":7008:7073   */\n      tag_265\n        /* \"#utility.yul\":7066:7072   */\n      dup2\n        /* \"#utility.yul\":7061:7064   */\n      dup6\n        /* \"#utility.yul\":7054:7058   */\n      0x20\n        /* \"#utility.yul\":7047:7052   */\n      dup7\n        /* \"#utility.yul\":7043:7059   */\n      add\n        /* \"#utility.yul\":7008:7073   */\n      tag_164\n      jump\t// in\n    tag_265:\n        /* \"#utility.yul\":7098:7127   */\n      tag_266\n        /* \"#utility.yul\":7120:7126   */\n      dup2\n        /* \"#utility.yul\":7098:7127   */\n      tag_165\n      jump\t// in\n    tag_266:\n        /* \"#utility.yul\":7093:7096   */\n      dup5\n        /* \"#utility.yul\":7089:7128   */\n      add\n        /* \"#utility.yul\":7082:7128   */\n      swap2\n      pop\n        /* \"#utility.yul\":6851:7134   */\n      pop\n        /* \"#utility.yul\":6761:7134   */\n      swap3\n      swap2\n      pop\n      pop\n      jump\t// out\n        /* \"#utility.yul\":7140:7449   */\n    tag_51:\n        /* \"#utility.yul\":7251:7255   */\n      0x00\n        /* \"#utility.yul\":7289:7291   */\n      0x20\n        /* \"#utility.yul\":7278:7287   */\n      dup3\n        /* \"#utility.yul\":7274:7292   */\n      add\n        /* \"#utility.yul\":7266:7292   */\n      swap1\n      pop\n        /* \"#utility.yul\":7338:7347   */\n      dup2\n        /* \"#utility.yul\":7332:7336   */\n      dup2\n        /* \"#utility.yul\":7328:7348   */\n      sub\n        /* \"#utility.yul\":7324:7325   */\n      0x00\n        /* \"#utility.yul\":7313:7322   */\n      dup4\n        /* \"#utility.yul\":7309:7326   */\n      add\n        /* \"#utility.yul\":7302:7349   */\n      mstore\n        /* \"#utility.yul\":7366:7442   */\n      tag_268\n        /* \"#utility.yul\":7437:7441   */\n      dup2\n        /* \"#utility.yul\":7428:7434   */\n      dup5\n        /* \"#utility.yul\":7366:7442   */\n      tag_169\n      jump\t// in\n    tag_268:\n        /* \"#utility.yul\":7358:7442   */\n      swap1\n      pop\n        /* \"#utility.yul\":7140:7449   */\n      swap3\n      swap2\n      pop\n      pop\n      jump\t// out\n        /* \"#utility.yul\":7455:7673   */\n    tag_56:\n        /* \"#utility.yul\":7546:7550   */\n      0x00\n        /* \"#utility.yul\":7584:7586   */\n      0x20\n        /* \"#utility.yul\":7573:7582   */\n      dup3\n        /* \"#utility.yul\":7569:7587   */\n      add\n        /* \"#utility.yul\":7561:7587   */\n      swap1\n      pop\n        /* \"#utility.yul\":7597:7666   */\n      tag_270\n        /* \"#utility.yul\":7663:7664   */\n      0x00\n        /* \"#utility.yul\":7652:7661   */\n      dup4\n        /* \"#utility.yul\":7648:7665   */\n      add\n        /* \"#utility.yul\":7639:7645   */\n      dup5\n        /* \"#utility.yul\":7597:7666   */\n      tag_161\n      jump\t// in\n    tag_270:\n        /* \"#utility.yul\":7455:7673   */\n      swap3\n      swap2\n      pop\n      pop\n      jump\t// out\n        /* \"#utility.yul\":7679:7843   */\n    tag_170:\n        /* \"#utility.yul\":7819:7835   */\n      0x416c726561647920766f7465642e000000000000000000000000000000000000\n        /* \"#utility.yul\":7815:7816   */\n      0x00\n        /* \"#utility.yul\":7807:7813   */\n      dup3\n        /* \"#utility.yul\":7803:7817   */\n      add\n        /* \"#utility.yul\":7796:7836   */\n      mstore\n        /* \"#utility.yul\":7679:7843   */\n      pop\n      jump\t// out\n        /* \"#utility.yul\":7849:8215   */\n    tag_171:\n        /* \"#utility.yul\":7991:7994   */\n      0x00\n        /* \"#utility.yul\":8012:8079   */\n      tag_273\n        /* \"#utility.yul\":8076:8078   */\n      0x0e\n        /* \"#utility.yul\":8071:8074   */\n      dup4\n        /* \"#utility.yul\":8012:8079   */\n      tag_163\n      jump\t// in\n    tag_273:\n        /* \"#utility.yul\":8005:8079   */\n      swap2\n      pop\n        /* \"#utility.yul\":8088:8181   */\n      tag_274\n        /* \"#utility.yul\":8177:8180   */\n      dup3\n        /* \"#utility.yul\":8088:8181   */\n      tag_170\n      jump\t// in\n    tag_274:\n        /* \"#utility.yul\":8206:8208   */\n      0x20\n        /* \"#utility.yul\":8201:8204   */\n      dup3\n        /* \"#utility.yul\":8197:8209   */\n      add\n        /* \"#utility.yul\":8190:8209   */\n      swap1\n      pop\n        /* \"#utility.yul\":7849:8215   */\n      swap2\n      swap1\n      pop\n      jump\t// out\n        /* \"#utility.yul\":8221:8640   */\n    tag_64:\n        /* \"#utility.yul\":8387:8391   */\n      0x00\n        /* \"#utility.yul\":8425:8427   */\n      0x20\n        /* \"#utility.yul\":8414:8423   */\n      dup3\n        /* \"#utility.yul\":8410:8428   */\n      add\n        /* \"#utility.yul\":8402:8428   */\n      swap1\n      pop\n        /* \"#utility.yul\":8474:8483   */\n      dup2\n        /* \"#utility.yul\":8468:8472   */\n      dup2\n        /* \"#utility.yul\":8464:8484   */\n      sub\n        /* \"#utility.yul\":8460:8461   */\n      0x00\n        /* \"#utility.yul\":8449:8458   */\n      dup4\n        /* \"#utility.yul\":8445:8462   */\n      add\n        /* \"#utility.yul\":8438:8485   */\n      mstore\n        /* \"#utility.yul\":8502:8633   */\n      tag_276\n        /* \"#utility.yul\":8628:8632   */\n      dup2\n        /* \"#utility.yul\":8502:8633   */\n      tag_171\n      jump\t// in\n    tag_276:\n        /* \"#utility.yul\":8494:8633   */\n      swap1\n      pop\n        /* \"#utility.yul\":8221:8640   */\n      swap2\n      swap1\n      pop\n      jump\t// out\n        /* \"#utility.yul\":8646:8826   */\n    tag_172:\n        /* \"#utility.yul\":8694:8771   */\n      0x4e487b7100000000000000000000000000000000000000000000000000000000\n        /* \"#utility.yul\":8691:8692   */\n      0x00\n        /* \"#utility.yul\":8684:8772   */\n      mstore\n        /* \"#utility.yul\":8791:8795   */\n      0x11\n        /* \"#utility.yul\":8788:8789   */\n      0x04\n        /* \"#utility.yul\":8781:8796   */\n      mstore\n        /* \"#utility.yul\":8815:8819   */\n      0x24\n        /* \"#utility.yul\":8812:8813   */\n      0x00\n        /* \"#utility.yul\":8805:8820   */\n      revert\n        /* \"#utility.yul\":8832:9025   */\n    tag_69:\n        /* \"#utility.yul\":8871:8874   */\n      0x00\n        /* \"#utility.yul\":8890:8909   */\n      tag_279\n        /* \"#utility.yul\":8907:8908   */\n      dup3\n        /* \"#utility.yul\":8890:8909   */\n      tag_156\n      jump\t// in\n    tag_279:\n        /* \"#utility.yul\":8885:8909   */\n      swap2\n      pop\n        /* \"#utility.yul\":8923:8942   */\n      tag_280\n        /* \"#utility.yul\":8940:8941   */\n      dup4\n        /* \"#utility.yul\":8923:8942   */\n      tag_156\n      jump\t// in\n    tag_280:\n        /* \"#utility.yul\":8918:8942   */\n      swap3\n      pop\n        /* \"#utility.yul\":8965:8966   */\n      dup3\n        /* \"#utility.yul\":8962:8963   */\n      dup3\n        /* \"#utility.yul\":8958:8967   */\n      add\n        /* \"#utility.yul\":8951:8967   */\n      swap1\n      pop\n        /* \"#utility.yul\":8988:8994   */\n      0xffff\n        /* \"#utility.yul\":8983:8986   */\n      dup2\n        /* \"#utility.yul\":8980:8995   */\n      gt\n        /* \"#utility.yul\":8977:9018   */\n      iszero\n      tag_281\n      jumpi\n        /* \"#utility.yul\":8998:9016   */\n      tag_282\n      tag_172\n      jump\t// in\n    tag_282:\n        /* \"#utility.yul\":8977:9018   */\n    tag_281:\n        /* \"#utility.yul\":8832:9025   */\n      swap3\n      swap2\n      pop\n      pop\n      jump\t// out\n        /* \"#utility.yul\":9031:9211   */\n    tag_173:\n        /* \"#utility.yul\":9171:9203   */\n      0x53656c662d64656c65676174696f6e20697320646973616c6c6f7765642e0000\n        /* \"#utility.yul\":9167:9168   */\n      0x00\n        /* \"#utility.yul\":9159:9165   */\n      dup3\n        /* \"#utility.yul\":9155:9169   */\n      add\n        /* \"#utility.yul\":9148:9204   */\n      mstore\n        /* \"#utility.yul\":9031:9211   */\n      pop\n      jump\t// out\n        /* \"#utility.yul\":9217:9583   */\n    tag_174:\n        /* \"#utility.yul\":9359:9362   */\n      0x00\n        /* \"#utility.yul\":9380:9447   */\n      tag_285\n        /* \"#utility.yul\":9444:9446   */\n      0x1e\n        /* \"#utility.yul\":9439:9442   */\n      dup4\n        /* \"#utility.yul\":9380:9447   */\n      tag_163\n      jump\t// in\n    tag_285:\n        /* \"#utility.yul\":9373:9447   */\n      swap2\n      pop\n        /* \"#utility.yul\":9456:9549   */\n      tag_286\n        /* \"#utility.yul\":9545:9548   */\n      dup3\n        /* \"#utility.yul\":9456:9549   */\n      tag_173\n      jump\t// in\n    tag_286:\n        /* \"#utility.yul\":9574:9576   */\n      0x20\n        /* \"#utility.yul\":9569:9572   */\n      dup3\n        /* \"#utility.yul\":9565:9577   */\n      add\n        /* \"#utility.yul\":9558:9577   */\n      swap1\n      pop\n        /* \"#utility.yul\":9217:9583   */\n      swap2\n      swap1\n      pop\n      jump\t// out\n        /* \"#utility.yul\":9589:10008   */\n    tag_83:\n        /* \"#utility.yul\":9755:9759   */\n      0x00\n        /* \"#utility.yul\":9793:9795   */\n      0x20\n        /* \"#utility.yul\":9782:9791   */\n      dup3\n        /* \"#utility.yul\":9778:9796   */\n      add\n        /* \"#utility.yul\":9770:9796   */\n      swap1\n      pop\n        /* \"#utility.yul\":9842:9851   */\n      dup2\n        /* \"#utility.yul\":9836:9840   */\n      dup2\n        /* \"#utility.yul\":9832:9852   */\n      sub\n        /* \"#utility.yul\":9828:9829   */\n      0x00\n        /* \"#utility.yul\":9817:9826   */\n      dup4\n        /* \"#utility.yul\":9813:9830   */\n      add\n        /* \"#utility.yul\":9806:9853   */\n      mstore\n        /* \"#utility.yul\":9870:10001   */\n      tag_288\n        /* \"#utility.yul\":9996:10000   */\n      dup2\n        /* \"#utility.yul\":9870:10001   */\n      tag_174\n      jump\t// in\n    tag_288:\n        /* \"#utility.yul\":9862:10001   */\n      swap1\n      pop\n        /* \"#utility.yul\":9589:10008   */\n      swap2\n      swap1\n      pop\n      jump\t// out\n        /* \"#utility.yul\":10014:10189   */\n    tag_175:\n        /* \"#utility.yul\":10154:10181   */\n      0x466f756e64206c6f6f7020696e2064656c65676174696f6e2e00000000000000\n        /* \"#utility.yul\":10150:10151   */\n      0x00\n        /* \"#utility.yul\":10142:10148   */\n      dup3\n        /* \"#utility.yul\":10138:10152   */\n      add\n        /* \"#utility.yul\":10131:10182   */\n      mstore\n        /* \"#utility.yul\":10014:10189   */\n      pop\n      jump\t// out\n        /* \"#utility.yul\":10195:10561   */\n    tag_176:\n        /* \"#utility.yul\":10337:10340   */\n      0x00\n        /* \"#utility.yul\":10358:10425   */\n      tag_291\n        /* \"#utility.yul\":10422:10424   */\n      0x19\n        /* \"#utility.yul\":10417:10420   */\n      dup4\n        /* \"#utility.yul\":10358:10425   */\n      tag_163\n      jump\t// in\n    tag_291:\n        /* \"#utility.yul\":10351:10425   */\n      swap2\n      pop\n        /* \"#utility.yul\":10434:10527   */\n      tag_292\n        /* \"#utility.yul\":10523:10526   */\n      dup3\n        /* \"#utility.yul\":10434:10527   */\n      tag_175\n      jump\t// in\n    tag_292:\n        /* \"#utility.yul\":10552:10554   */\n      0x20\n        /* \"#utility.yul\":10547:10550   */\n      dup3\n        /* \"#utility.yul\":10543:10555   */\n      add\n        /* \"#utility.yul\":10536:10555   */\n      swap1\n      pop\n        /* \"#utility.yul\":10195:10561   */\n      swap2\n      swap1\n      pop\n      jump\t// out\n        /* \"#utility.yul\":10567:10986   */\n    tag_88:\n        /* \"#utility.yul\":10733:10737   */\n      0x00\n        /* \"#utility.yul\":10771:10773   */\n      0x20\n        /* \"#utility.yul\":10760:10769   */\n      dup3\n        /* \"#utility.yul\":10756:10774   */\n      add\n        /* \"#utility.yul\":10748:10774   */\n      swap1\n      pop\n        /* \"#utility.yul\":10820:10829   */\n      dup2\n        /* \"#utility.yul\":10814:10818   */\n      dup2\n        /* \"#utility.yul\":10810:10830   */\n      sub\n        /* \"#utility.yul\":10806:10807   */\n      0x00\n        /* \"#utility.yul\":10795:10804   */\n      dup4\n        /* \"#utility.yul\":10791:10808   */\n      add\n        /* \"#utility.yul\":10784:10831   */\n      mstore\n        /* \"#utility.yul\":10848:10979   */\n      tag_294\n        /* \"#utility.yul\":10974:10978   */\n      dup2\n        /* \"#utility.yul\":10848:10979   */\n      tag_176\n      jump\t// in\n    tag_294:\n        /* \"#utility.yul\":10840:10979   */\n      swap1\n      pop\n        /* \"#utility.yul\":10567:10986   */\n      swap2\n      swap1\n      pop\n      jump\t// out\n        /* \"#utility.yul\":10992:11172   */\n    tag_177:\n        /* \"#utility.yul\":11040:11117   */\n      0x4e487b7100000000000000000000000000000000000000000000000000000000\n        /* \"#utility.yul\":11037:11038   */\n      0x00\n        /* \"#utility.yul\":11030:11118   */\n      mstore\n        /* \"#utility.yul\":11137:11141   */\n      0x22\n        /* \"#utility.yul\":11134:11135   */\n      0x04\n        /* \"#utility.yul\":11127:11142   */\n      mstore\n        /* \"#utility.yul\":11161:11165   */\n      0x24\n        /* \"#utility.yul\":11158:11159   */\n      0x00\n        /* \"#utility.yul\":11151:11166   */\n      revert\n        /* \"#utility.yul\":11178:11498   */\n    tag_99:\n        /* \"#utility.yul\":11222:11228   */\n      0x00\n        /* \"#utility.yul\":11259:11260   */\n      0x02\n        /* \"#utility.yul\":11253:11257   */\n      dup3\n        /* \"#utility.yul\":11249:11261   */\n      div\n        /* \"#utility.yul\":11239:11261   */\n      swap1\n      pop\n        /* \"#utility.yul\":11306:11307   */\n      0x01\n        /* \"#utility.yul\":11300:11304   */\n      dup3\n        /* \"#utility.yul\":11296:11308   */\n      and\n        /* \"#utility.yul\":11327:11345   */\n      dup1\n        /* \"#utility.yul\":11317:11398   */\n      tag_297\n      jumpi\n        /* \"#utility.yul\":11383:11387   */\n      0x7f\n        /* \"#utility.yul\":11375:11381   */\n      dup3\n        /* \"#utility.yul\":11371:11388   */\n      and\n        /* \"#utility.yul\":11361:11388   */\n      swap2\n      pop\n        /* \"#utility.yul\":11317:11398   */\n    tag_297:\n        /* \"#utility.yul\":11445:11447   */\n      0x20\n        /* \"#utility.yul\":11437:11443   */\n      dup3\n        /* \"#utility.yul\":11434:11448   */\n      lt\n        /* \"#utility.yul\":11414:11432   */\n      dup2\n        /* \"#utility.yul\":11411:11449   */\n      sub\n        /* \"#utility.yul\":11408:11492   */\n      tag_298\n      jumpi\n        /* \"#utility.yul\":11464:11482   */\n      tag_299\n      tag_177\n      jump\t// in\n    tag_299:\n        /* \"#utility.yul\":11408:11492   */\n    tag_298:\n        /* \"#utility.yul\":11229:11498   */\n      pop\n        /* \"#utility.yul\":11178:11498   */\n      swap2\n      swap1\n      pop\n      jump\t// out\n        /* \"#utility.yul\":11504:12144   */\n    tag_113:\n        /* \"#utility.yul\":11699:11703   */\n      0x00\n        /* \"#utility.yul\":11737:11740   */\n      0x80\n        /* \"#utility.yul\":11726:11735   */\n      dup3\n        /* \"#utility.yul\":11722:11741   */\n      add\n        /* \"#utility.yul\":11714:11741   */\n      swap1\n      pop\n        /* \"#utility.yul\":11751:11822   */\n      tag_301\n        /* \"#utility.yul\":11819:11820   */\n      0x00\n        /* \"#utility.yul\":11808:11817   */\n      dup4\n        /* \"#utility.yul\":11804:11821   */\n      add\n        /* \"#utility.yul\":11795:11801   */\n      dup8\n        /* \"#utility.yul\":11751:11822   */\n      tag_143\n      jump\t// in\n    tag_301:\n        /* \"#utility.yul\":11832:11904   */\n      tag_302\n        /* \"#utility.yul\":11900:11902   */\n      0x20\n        /* \"#utility.yul\":11889:11898   */\n      dup4\n        /* \"#utility.yul\":11885:11903   */\n      add\n        /* \"#utility.yul\":11876:11882   */\n      dup7\n        /* \"#utility.yul\":11832:11904   */\n      tag_145\n      jump\t// in\n    tag_302:\n        /* \"#utility.yul\":11951:11960   */\n      dup2\n        /* \"#utility.yul\":11945:11949   */\n      dup2\n        /* \"#utility.yul\":11941:11961   */\n      sub\n        /* \"#utility.yul\":11936:11938   */\n      0x40\n        /* \"#utility.yul\":11925:11934   */\n      dup4\n        /* \"#utility.yul\":11921:11939   */\n      add\n        /* \"#utility.yul\":11914:11962   */\n      mstore\n        /* \"#utility.yul\":11979:12055   */\n      tag_303\n        /* \"#utility.yul\":12050:12054   */\n      dup2\n        /* \"#utility.yul\":12041:12047   */\n      dup6\n        /* \"#utility.yul\":11979:12055   */\n      tag_169\n      jump\t// in\n    tag_303:\n        /* \"#utility.yul\":11971:12055   */\n      swap1\n      pop\n        /* \"#utility.yul\":12065:12137   */\n      tag_304\n        /* \"#utility.yul\":12133:12135   */\n      0x60\n        /* \"#utility.yul\":12122:12131   */\n      dup4\n        /* \"#utility.yul\":12118:12136   */\n      add\n        /* \"#utility.yul\":12109:12115   */\n      dup5\n        /* \"#utility.yul\":12065:12137   */\n      tag_155\n      jump\t// in\n    tag_304:\n        /* \"#utility.yul\":11504:12144   */\n      swap6\n      swap5\n      pop\n      pop\n      pop\n      pop\n      pop\n      jump\t// out\n        /* \"#utility.yul\":12150:12298   */\n    tag_178:\n        /* \"#utility.yul\":12252:12263   */\n      0x00\n        /* \"#utility.yul\":12289:12292   */\n      dup2\n        /* \"#utility.yul\":12274:12292   */\n      swap1\n      pop\n        /* \"#utility.yul\":12150:12298   */\n      swap3\n      swap2\n      pop\n      pop\n      jump\t// out\n        /* \"#utility.yul\":12304:12445   */\n    tag_179:\n        /* \"#utility.yul\":12353:12357   */\n      0x00\n        /* \"#utility.yul\":12376:12379   */\n      dup2\n        /* \"#utility.yul\":12368:12379   */\n      swap1\n      pop\n        /* \"#utility.yul\":12399:12402   */\n      dup2\n        /* \"#utility.yul\":12396:12397   */\n      0x00\n        /* \"#utility.yul\":12389:12403   */\n      mstore\n        /* \"#utility.yul\":12433:12437   */\n      0x20\n        /* \"#utility.yul\":12430:12431   */\n      0x00\n        /* \"#utility.yul\":12420:12438   */\n      keccak256\n        /* \"#utility.yul\":12412:12438   */\n      swap1\n      pop\n        /* \"#utility.yul\":12304:12445   */\n      swap2\n      swap1\n      pop\n      jump\t// out\n        /* \"#utility.yul\":12475:13349   */\n    tag_180:\n        /* \"#utility.yul\":12578:12581   */\n      0x00\n        /* \"#utility.yul\":12615:12620   */\n      dup2\n        /* \"#utility.yul\":12609:12621   */\n      sload\n        /* \"#utility.yul\":12644:12680   */\n      tag_308\n        /* \"#utility.yul\":12670:12679   */\n      dup2\n        /* \"#utility.yul\":12644:12680   */\n      tag_99\n      jump\t// in\n    tag_308:\n        /* \"#utility.yul\":12696:12785   */\n      tag_309\n        /* \"#utility.yul\":12778:12784   */\n      dup2\n        /* \"#utility.yul\":12773:12776   */\n      dup7\n        /* \"#utility.yul\":12696:12785   */\n      tag_178\n      jump\t// in\n    tag_309:\n        /* \"#utility.yul\":12689:12785   */\n      swap5\n      pop\n        /* \"#utility.yul\":12816:12817   */\n      0x01\n        /* \"#utility.yul\":12805:12814   */\n      dup3\n        /* \"#utility.yul\":12801:12818   */\n      and\n        /* \"#utility.yul\":12832:12833   */\n      0x00\n        /* \"#utility.yul\":12827:12993   */\n      dup2\n      eq\n      tag_311\n      jumpi\n        /* \"#utility.yul\":13007:13008   */\n      0x01\n        /* \"#utility.yul\":13002:13343   */\n      dup2\n      eq\n      tag_312\n      jumpi\n        /* \"#utility.yul\":12794:13343   */\n      jump(tag_310)\n        /* \"#utility.yul\":12827:12993   */\n    tag_311:\n        /* \"#utility.yul\":12911:12915   */\n      0xff\n        /* \"#utility.yul\":12907:12916   */\n      not\n        /* \"#utility.yul\":12896:12905   */\n      dup4\n        /* \"#utility.yul\":12892:12917   */\n      and\n        /* \"#utility.yul\":12887:12890   */\n      dup7\n        /* \"#utility.yul\":12880:12918   */\n      mstore\n        /* \"#utility.yul\":12973:12979   */\n      dup2\n        /* \"#utility.yul\":12966:12980   */\n      iszero\n        /* \"#utility.yul\":12959:12981   */\n      iszero\n        /* \"#utility.yul\":12951:12957   */\n      dup3\n        /* \"#utility.yul\":12947:12982   */\n      mul\n        /* \"#utility.yul\":12942:12945   */\n      dup7\n        /* \"#utility.yul\":12938:12983   */\n      add\n        /* \"#utility.yul\":12931:12983   */\n      swap4\n      pop\n        /* \"#utility.yul\":12827:12993   */\n      jump(tag_310)\n        /* \"#utility.yul\":13002:13343   */\n    tag_312:\n        /* \"#utility.yul\":13069:13107   */\n      tag_313\n        /* \"#utility.yul\":13101:13106   */\n      dup6\n        /* \"#utility.yul\":13069:13107   */\n      tag_179\n      jump\t// in\n    tag_313:\n        /* \"#utility.yul\":13129:13130   */\n      0x00\n        /* \"#utility.yul\":13143:13297   */\n    tag_314:\n        /* \"#utility.yul\":13157:13163   */\n      dup4\n        /* \"#utility.yul\":13154:13155   */\n      dup2\n        /* \"#utility.yul\":13151:13164   */\n      lt\n        /* \"#utility.yul\":13143:13297   */\n      iszero\n      tag_316\n      jumpi\n        /* \"#utility.yul\":13231:13238   */\n      dup2\n        /* \"#utility.yul\":13225:13239   */\n      sload\n        /* \"#utility.yul\":13221:13222   */\n      dup2\n        /* \"#utility.yul\":13216:13219   */\n      dup10\n        /* \"#utility.yul\":13212:13223   */\n      add\n        /* \"#utility.yul\":13205:13240   */\n      mstore\n        /* \"#utility.yul\":13281:13282   */\n      0x01\n        /* \"#utility.yul\":13272:13279   */\n      dup3\n        /* \"#utility.yul\":13268:13283   */\n      add\n        /* \"#utility.yul\":13257:13283   */\n      swap2\n      pop\n        /* \"#utility.yul\":13179:13183   */\n      0x20\n        /* \"#utility.yul\":13176:13177   */\n      dup2\n        /* \"#utility.yul\":13172:13184   */\n      add\n        /* \"#utility.yul\":13167:13184   */\n      swap1\n      pop\n        /* \"#utility.yul\":13143:13297   */\n      jump(tag_314)\n    tag_316:\n        /* \"#utility.yul\":13326:13332   */\n      dup4\n        /* \"#utility.yul\":13321:13324   */\n      dup9\n        /* \"#utility.yul\":13317:13333   */\n      add\n        /* \"#utility.yul\":13310:13333   */\n      swap6\n      pop\n        /* \"#utility.yul\":13009:13343   */\n      pop\n      pop\n        /* \"#utility.yul\":12794:13343   */\n    tag_310:\n      pop\n        /* \"#utility.yul\":12582:13349   */\n      pop\n      pop\n        /* \"#utility.yul\":12475:13349   */\n      swap3\n      swap2\n      pop\n      pop\n      jump\t// out\n        /* \"#utility.yul\":13355:13624   */\n    tag_117:\n        /* \"#utility.yul\":13484:13487   */\n      0x00\n        /* \"#utility.yul\":13506:13598   */\n      tag_318\n        /* \"#utility.yul\":13594:13597   */\n      dup3\n        /* \"#utility.yul\":13585:13591   */\n      dup5\n        /* \"#utility.yul\":13506:13598   */\n      tag_180\n      jump\t// in\n    tag_318:\n        /* \"#utility.yul\":13499:13598   */\n      swap2\n      pop\n        /* \"#utility.yul\":13615:13618   */\n      dup2\n        /* \"#utility.yul\":13608:13618   */\n      swap1\n      pop\n        /* \"#utility.yul\":13355:13624   */\n      swap3\n      swap2\n      pop\n      pop\n      jump\t// out\n        /* \"#utility.yul\":13630:13831   */\n    tag_123:\n        /* \"#utility.yul\":13669:13672   */\n      0x00\n        /* \"#utility.yul\":13688:13707   */\n      tag_320\n        /* \"#utility.yul\":13705:13706   */\n      dup3\n        /* \"#utility.yul\":13688:13707   */\n      tag_160\n      jump\t// in\n    tag_320:\n        /* \"#utility.yul\":13683:13707   */\n      swap2\n      pop\n        /* \"#utility.yul\":13721:13740   */\n      tag_321\n        /* \"#utility.yul\":13738:13739   */\n      dup4\n        /* \"#utility.yul\":13721:13740   */\n      tag_160\n      jump\t// in\n    tag_321:\n        /* \"#utility.yul\":13716:13740   */\n      swap3\n      pop\n        /* \"#utility.yul\":13763:13764   */\n      dup3\n        /* \"#utility.yul\":13760:13761   */\n      dup3\n        /* \"#utility.yul\":13756:13765   */\n      add\n        /* \"#utility.yul\":13749:13765   */\n      swap1\n      pop\n        /* \"#utility.yul\":13786:13800   */\n      0xffffffffffff\n        /* \"#utility.yul\":13781:13784   */\n      dup2\n        /* \"#utility.yul\":13778:13801   */\n      gt\n        /* \"#utility.yul\":13775:13824   */\n      iszero\n      tag_322\n      jumpi\n        /* \"#utility.yul\":13804:13822   */\n      tag_323\n      tag_172\n      jump\t// in\n    tag_323:\n        /* \"#utility.yul\":13775:13824   */\n    tag_322:\n        /* \"#utility.yul\":13630:13831   */\n      swap3\n      swap2\n      pop\n      pop\n      jump\t// out\n        /* \"#utility.yul\":13837:14028   */\n    tag_127:\n        /* \"#utility.yul\":13877:13880   */\n      0x00\n        /* \"#utility.yul\":13896:13916   */\n      tag_325\n        /* \"#utility.yul\":13914:13915   */\n      dup3\n        /* \"#utility.yul\":13896:13916   */\n      tag_144\n      jump\t// in\n    tag_325:\n        /* \"#utility.yul\":13891:13916   */\n      swap2\n      pop\n        /* \"#utility.yul\":13930:13950   */\n      tag_326\n        /* \"#utility.yul\":13948:13949   */\n      dup4\n        /* \"#utility.yul\":13930:13950   */\n      tag_144\n      jump\t// in\n    tag_326:\n        /* \"#utility.yul\":13925:13950   */\n      swap3\n      pop\n        /* \"#utility.yul\":13973:13974   */\n      dup3\n        /* \"#utility.yul\":13970:13971   */\n      dup3\n        /* \"#utility.yul\":13966:13975   */\n      add\n        /* \"#utility.yul\":13959:13975   */\n      swap1\n      pop\n        /* \"#utility.yul\":13994:13997   */\n      dup1\n        /* \"#utility.yul\":13991:13992   */\n      dup3\n        /* \"#utility.yul\":13988:13998   */\n      gt\n        /* \"#utility.yul\":13985:14021   */\n      iszero\n      tag_327\n      jumpi\n        /* \"#utility.yul\":14001:14019   */\n      tag_328\n      tag_172\n      jump\t// in\n    tag_328:\n        /* \"#utility.yul\":13985:14021   */\n    tag_327:\n        /* \"#utility.yul\":13837:14028   */\n      swap3\n      swap2\n      pop\n      pop\n      jump\t// out\n        /* \"#utility.yul\":14034:14256   */\n    tag_131:\n        /* \"#utility.yul\":14127:14131   */\n      0x00\n        /* \"#utility.yul\":14165:14167   */\n      0x20\n        /* \"#utility.yul\":14154:14163   */\n      dup3\n        /* \"#utility.yul\":14150:14168   */\n      add\n        /* \"#utility.yul\":14142:14168   */\n      swap1\n      pop\n        /* \"#utility.yul\":14178:14249   */\n      tag_330\n        /* \"#utility.yul\":14246:14247   */\n      0x00\n        /* \"#utility.yul\":14235:14244   */\n      dup4\n        /* \"#utility.yul\":14231:14248   */\n      add\n        /* \"#utility.yul\":14222:14228   */\n      dup5\n        /* \"#utility.yul\":14178:14249   */\n      tag_143\n      jump\t// in\n    tag_330:\n        /* \"#utility.yul\":14034:14256   */\n      swap3\n      swap2\n      pop\n      pop\n      jump\t// out\n        /* \"#utility.yul\":14262:14382   */\n    tag_181:\n        /* \"#utility.yul\":14334:14357   */\n      tag_332\n        /* \"#utility.yul\":14351:14356   */\n      dup2\n        /* \"#utility.yul\":14334:14357   */\n      tag_156\n      jump\t// in\n    tag_332:\n        /* \"#utility.yul\":14327:14332   */\n      dup2\n        /* \"#utility.yul\":14324:14358   */\n      eq\n        /* \"#utility.yul\":14314:14376   */\n      tag_333\n      jumpi\n        /* \"#utility.yul\":14372:14373   */\n      0x00\n        /* \"#utility.yul\":14369:14370   */\n      dup1\n        /* \"#utility.yul\":14362:14374   */\n      revert\n        /* \"#utility.yul\":14314:14376   */\n    tag_333:\n        /* \"#utility.yul\":14262:14382   */\n      pop\n      jump\t// out\n        /* \"#utility.yul\":14388:14529   */\n    tag_182:\n        /* \"#utility.yul\":14444:14449   */\n      0x00\n        /* \"#utility.yul\":14475:14481   */\n      dup2\n        /* \"#utility.yul\":14469:14482   */\n      mload\n        /* \"#utility.yul\":14460:14482   */\n      swap1\n      pop\n        /* \"#utility.yul\":14491:14523   */\n      tag_335\n        /* \"#utility.yul\":14517:14522   */\n      dup2\n        /* \"#utility.yul\":14491:14523   */\n      tag_181\n      jump\t// in\n    tag_335:\n        /* \"#utility.yul\":14388:14529   */\n      swap3\n      swap2\n      pop\n      pop\n      jump\t// out\n        /* \"#utility.yul\":14535:14884   */\n    tag_135:\n        /* \"#utility.yul\":14604:14610   */\n      0x00\n        /* \"#utility.yul\":14653:14655   */\n      0x20\n        /* \"#utility.yul\":14641:14650   */\n      dup3\n        /* \"#utility.yul\":14632:14639   */\n      dup5\n        /* \"#utility.yul\":14628:14651   */\n      sub\n        /* \"#utility.yul\":14624:14656   */\n      slt\n        /* \"#utility.yul\":14621:14740   */\n      iszero\n      tag_337\n      jumpi\n        /* \"#utility.yul\":14659:14738   */\n      tag_338\n      tag_147\n      jump\t// in\n    tag_338:\n        /* \"#utility.yul\":14621:14740   */\n    tag_337:\n        /* \"#utility.yul\":14779:14780   */\n      0x00\n        /* \"#utility.yul\":14804:14867   */\n      tag_339\n        /* \"#utility.yul\":14859:14866   */\n      dup5\n        /* \"#utility.yul\":14850:14856   */\n      dup3\n        /* \"#utility.yul\":14839:14848   */\n      dup6\n        /* \"#utility.yul\":14835:14857   */\n      add\n        /* \"#utility.yul\":14804:14867   */\n      tag_182\n      jump\t// in\n    tag_339:\n        /* \"#utility.yul\":14794:14867   */\n      swap2\n      pop\n        /* \"#utility.yul\":14750:14877   */\n      pop\n        /* \"#utility.yul\":14535:14884   */\n      swap3\n      swap2\n      pop\n      pop\n      jump\t// out\n        /* \"#utility.yul\":14890:15060   */\n    tag_183:\n        /* \"#utility.yul\":15030:15052   */\n      0x486173206e6f20726967687420746f20766f7465000000000000000000000000\n        /* \"#utility.yul\":15026:15027   */\n      0x00\n        /* \"#utility.yul\":15018:15024   */\n      dup3\n        /* \"#utility.yul\":15014:15028   */\n      add\n        /* \"#utility.yul\":15007:15053   */\n      mstore\n        /* \"#utility.yul\":14890:15060   */\n      pop\n      jump\t// out\n        /* \"#utility.yul\":15066:15432   */\n    tag_184:\n        /* \"#utility.yul\":15208:15211   */\n      0x00\n        /* \"#utility.yul\":15229:15296   */\n      tag_342\n        /* \"#utility.yul\":15293:15295   */\n      0x14\n        /* \"#utility.yul\":15288:15291   */\n      dup4\n        /* \"#utility.yul\":15229:15296   */\n      tag_163\n      jump\t// in\n    tag_342:\n        /* \"#utility.yul\":15222:15296   */\n      swap2\n      pop\n        /* \"#utility.yul\":15305:15398   */\n      tag_343\n        /* \"#utility.yul\":15394:15397   */\n      dup3\n        /* \"#utility.yul\":15305:15398   */\n      tag_183\n      jump\t// in\n    tag_343:\n        /* \"#utility.yul\":15423:15425   */\n      0x20\n        /* \"#utility.yul\":15418:15421   */\n      dup3\n        /* \"#utility.yul\":15414:15426   */\n      add\n        /* \"#utility.yul\":15407:15426   */\n      swap1\n      pop\n        /* \"#utility.yul\":15066:15432   */\n      swap2\n      swap1\n      pop\n      jump\t// out\n        /* \"#utility.yul\":15438:15857   */\n    tag_140:\n        /* \"#utility.yul\":15604:15608   */\n      0x00\n        /* \"#utility.yul\":15642:15644   */\n      0x20\n        /* \"#utility.yul\":15631:15640   */\n      dup3\n        /* \"#utility.yul\":15627:15645   */\n      add\n        /* \"#utility.yul\":15619:15645   */\n      swap1\n      pop\n        /* \"#utility.yul\":15691:15700   */\n      dup2\n        /* \"#utility.yul\":15685:15689   */\n      dup2\n        /* \"#utility.yul\":15681:15701   */\n      sub\n        /* \"#utility.yul\":15677:15678   */\n      0x00\n        /* \"#utility.yul\":15666:15675   */\n      dup4\n        /* \"#utility.yul\":15662:15679   */\n      add\n        /* \"#utility.yul\":15655:15702   */\n      mstore\n        /* \"#utility.yul\":15719:15850   */\n      tag_345\n        /* \"#utility.yul\":15845:15849   */\n      dup2\n        /* \"#utility.yul\":15719:15850   */\n      tag_184\n      jump\t// in\n    tag_345:\n        /* \"#utility.yul\":15711:15850   */\n      swap1\n      pop\n        /* \"#utility.yul\":15438:15857   */\n      swap2\n      swap1\n      pop\n      jump\t// out\n\n    auxdata: 0xa2646970667358221220caf07c2f3e369ce1807d593defa371ed4f640c2d1a2a5de34f3b03d10bb5a6f364736f6c63430008140033\n}\n",
				"bytecode": {
					"linkReferences": {},
					"object": "608060405234801562000010575f80fd5b50604051620026113803806200261183398181016040528101906200003691906200084e565b8360045f820151815f0190816200004e919062000b0a565b50602082015181600101908162000066919062000b0a565b50604082015181600201556060820151816003015f6101000a81548173ffffffffffffffffffffffffffffffffffffffff021916908373ffffffffffffffffffffffffffffffffffffffff1602179055509050506004600101604051602001620000d1919062000c8b565b604051602081830303815290604052805190602001206004600201819055503360086001015f6101000a81548173ffffffffffffffffffffffffffffffffffffffff021916908373ffffffffffffffffffffffffffffffffffffffff160217905550600b5f60086001015f9054906101000a900473ffffffffffffffffffffffffffffffffffffffff1673ffffffffffffffffffffffffffffffffffffffff1673ffffffffffffffffffffffffffffffffffffffff1681526020019081526020015f205f9054906101000a900473ffffffffffffffffffffffffffffffffffffffff1660085f015f6101000a81548173ffffffffffffffffffffffffffffffffffffffff021916908373ffffffffffffffffffffffffffffffffffffffff1602179055505f73ffffffffffffffffffffffffffffffffffffffff1660085f015f9054906101000a900473ffffffffffffffffffffffffffffffffffffffff1673ffffffffffffffffffffffffffffffffffffffff1603620002af5760086001015f9054906101000a900473ffffffffffffffffffffffffffffffffffffffff166040517fdefe7bd3000000000000000000000000000000000000000000000000000000008152600401620002a6919062000cbe565b60405180910390fd5b826008600201819055508160025f820151815f015f6101000a81548161ffff021916908361ffff1602179055506020820151815f0160026101000a81548163ffffffff021916908363ffffffff1602179055506040820151815f0160066101000a81548165ffffffffffff021916908365ffffffffffff1602179055506060820151815f01600c6101000a81548165ffffffffffff021916908365ffffffffffff16021790555090505060025f0160029054906101000a900463ffffffff1663ffffffff1660025f0160069054906101000a900465ffffffffffff1662000397919062000d06565b65ffffffffffff16600381905550805f8001819055505f806001015f6101000a81548161ffff021916908361ffff1602179055505f8060010160026101000a81548161ffff021916908361ffff1602179055505050505062000d46565b5f604051905090565b5f80fd5b5f80fd5b5f80fd5b5f601f19601f8301169050919050565b7f4e487b71000000000000000000000000000000000000000000000000000000005f52604160045260245ffd5b620004518262000409565b810181811067ffffffffffffffff8211171562000473576200047262000419565b5b80604052505050565b5f62000487620003f4565b905062000495828262000446565b919050565b5f80fd5b5f80fd5b5f80fd5b5f67ffffffffffffffff821115620004c357620004c262000419565b5b620004ce8262000409565b9050602081019050919050565b5f5b83811015620004fa578082015181840152602081019050620004dd565b5f8484015250505050565b5f6200051b6200051584620004a6565b6200047c565b9050828152602081018484840111156200053a5762000539620004a2565b5b62000547848285620004db565b509392505050565b5f82601f8301126200056657620005656200049e565b5b81516200057884826020860162000505565b91505092915050565b5f819050919050565b620005958162000581565b8114620005a0575f80fd5b50565b5f81519050620005b3816200058a565b92915050565b5f73ffffffffffffffffffffffffffffffffffffffff82169050919050565b5f620005e482620005b9565b9050919050565b620005f681620005d8565b811462000601575f80fd5b50565b5f815190506200061481620005eb565b92915050565b5f6080828403121562000632576200063162000405565b5b6200063e60806200047c565b90505f82015167ffffffffffffffff81111562000660576200065f6200049a565b5b6200066e848285016200054f565b5f83015250602082015167ffffffffffffffff8111156200069457620006936200049a565b5b620006a2848285016200054f565b6020830152506040620006b884828501620005a3565b6040830152506060620006ce8482850162000604565b60608301525092915050565b5f819050919050565b620006ee81620006da565b8114620006f9575f80fd5b50565b5f815190506200070c81620006e3565b92915050565b5f61ffff82169050919050565b6200072a8162000712565b811462000735575f80fd5b50565b5f8151905062000748816200071f565b92915050565b5f63ffffffff82169050919050565b62000768816200074e565b811462000773575f80fd5b50565b5f8151905062000786816200075d565b92915050565b5f65ffffffffffff82169050919050565b620007a8816200078c565b8114620007b3575f80fd5b50565b5f81519050620007c6816200079d565b92915050565b5f60808284031215620007e457620007e362000405565b5b620007f060806200047c565b90505f620008018482850162000738565b5f830152506020620008168482850162000776565b60208301525060406200082c84828501620007b6565b60408301525060606200084284828501620007b6565b60608301525092915050565b5f805f8060e08587031215620008695762000868620003fd565b5b5f85015167ffffffffffffffff81111562000889576200088862000401565b5b62000897878288016200061a565b9450506020620008aa87828801620006fc565b9350506040620008bd87828801620007cc565b92505060c0620008d087828801620005a3565b91505092959194509250565b5f81519050919050565b7f4e487b71000000000000000000000000000000000000000000000000000000005f52602260045260245ffd5b5f60028204905060018216806200092b57607f821691505b602082108103620009415762000940620008e6565b5b50919050565b5f819050815f5260205f209050919050565b5f6020601f8301049050919050565b5f82821b905092915050565b5f60088302620009a57fffffffffffffffffffffffffffffffffffffffffffffffffffffffffffffffff8262000968565b620009b1868362000968565b95508019841693508086168417925050509392505050565b5f819050919050565b5f620009f2620009ec620009e684620006da565b620009c9565b620006da565b9050919050565b5f819050919050565b62000a0d83620009d2565b62000a2562000a1c82620009f9565b84845462000974565b825550505050565b5f90565b62000a3b62000a2d565b62000a4881848462000a02565b505050565b5b8181101562000a6f5762000a635f8262000a31565b60018101905062000a4e565b5050565b601f82111562000abe5762000a888162000947565b62000a938462000959565b8101602085101562000aa3578190505b62000abb62000ab28562000959565b83018262000a4d565b50505b505050565b5f82821c905092915050565b5f62000ae05f198460080262000ac3565b1980831691505092915050565b5f62000afa838362000acf565b9150826002028217905092915050565b62000b1582620008dc565b67ffffffffffffffff81111562000b315762000b3062000419565b5b62000b3d825462000913565b62000b4a82828562000a73565b5f60209050601f83116001811462000b80575f841562000b6b578287015190505b62000b77858262000aed565b86555062000be6565b601f19841662000b908662000947565b5f5b8281101562000bb95784890151825560018201915060208501945060208101905062000b92565b8683101562000bd9578489015162000bd5601f89168262000acf565b8355505b6001600288020188555050505b505050505050565b5f82825260208201905092915050565b5f815462000c0c8162000913565b62000c18818662000bee565b9450600182165f811462000c35576001811462000c4c5762000c82565b60ff19831686528115156020028601935062000c82565b62000c578562000947565b5f5b8381101562000c7a5781548189015260018201915060208101905062000c59565b808801955050505b50505092915050565b5f6020820190508181035f83015262000ca5818462000bfe565b905092915050565b62000cb881620005d8565b82525050565b5f60208201905062000cd35f83018462000cad565b92915050565b7f4e487b71000000000000000000000000000000000000000000000000000000005f52601160045260245ffd5b5f62000d12826200078c565b915062000d1f836200078c565b9250828201905065ffffffffffff81111562000d405762000d3f62000cd9565b5b92915050565b6118bd8062000d545f395ff3fe608060405234801561000f575f80fd5b506004361061009c575f3560e01c8063bc33c7d711610064578063bc33c7d714610139578063d4564d161461015a578063ec5bf07b14610178578063ee26a38a14610196578063f8b1b08a146101b65761009c565b80634731ca2b146100a05780634b9f5c98146100c05780635c19a95c146100dc57806381c4787b146100f8578063b3a0524614610118575b5f80fd5b6100a86101d4565b6040516100b7939291906110fb565b60405180910390f35b6100da60048036038101906100d59190611169565b610231565b005b6100f660048036038101906100f191906111be565b610555565b005b610100610a21565b60405161010f9392919061121d565b60405180910390f35b610120610a52565b6040516101309493929190611290565b60405180910390f35b610141610ab9565b604051610151949392919061135d565b60405180910390f35b610162610c14565b60405161016f91906113ae565b60405180910390f35b610180610c18565b60405161018d91906113ae565b60405180910390f35b61019e610c81565b6040516101ad9392919061121d565b60405180910390f35b6101be610cb8565b6040516101cb9190611419565b60405180910390f35b5f805f60085f015f9054906101000a900473ffffffffffffffffffffffffffffffffffffffff1660086001015f9054906101000a900473ffffffffffffffffffffffffffffffffffffffff16600860020154925092509250909192565b60025f0160069054906101000a900465ffffffffffff1665ffffffffffff164210156102aa5760025f0160069054906101000a900465ffffffffffff166040517f55d0b3cf0000000000000000000000000000000000000000000000000000000081526004016102a19190611439565b60405180910390fd5b6102b2610d3b565b6102f5576003546040517f8b00b7170000000000000000000000000000000000000000000000000000000081526004016102ec91906113ae565b60405180910390fd5b600c5f3373ffffffffffffffffffffffffffffffffffffffff1673ffffffffffffffffffffffffffffffffffffffff1681526020019081526020015f205f0160049054906101000a900460ff1615610382576040517f08c379a00000000000000000000000000000000000000000000000000000000081526004016103799061149c565b60405180910390fd5b61038a610eae565b5f600c5f3373ffffffffffffffffffffffffffffffffffffffff1673ffffffffffffffffffffffffffffffffffffffff1681526020019081526020015f2090506001815f0160046101000a81548160ff02191690831515021790555042816001018190555081156104ab57805f015f9054906101000a900461ffff165f60010160028282829054906101000a900461ffff1661042691906114e7565b92506101000a81548161ffff021916908361ffff160217905550805f0160029054906101000a900461ffff16815f015f9054906101000a900461ffff1661046d91906114e7565b5f6001015f8282829054906101000a900461ffff1661048c91906114e7565b92506101000a81548161ffff021916908361ffff1602179055506104f7565b805f015f9054906101000a900461ffff165f60010160028282829054906101000a900461ffff166104dc91906114e7565b92506101000a81548161ffff021916908361ffff1602179055505b3073ffffffffffffffffffffffffffffffffffffffff163373ffffffffffffffffffffffffffffffffffffffff167ff0c90984366c9ecce045b67da09271f6d22bd9ad1aed6562de5bcf1def4c739960405160405180910390a35050565b61055d610d3b565b6105a0576003546040517f8b00b71700000000000000000000000000000000000000000000000000000000815260040161059791906113ae565b60405180910390fd5b600c5f3373ffffffffffffffffffffffffffffffffffffffff1673ffffffffffffffffffffffffffffffffffffffff1681526020019081526020015f205f0160049054906101000a900460ff161561062d576040517f08c379a00000000000000000000000000000000000000000000000000000000081526004016106249061149c565b60405180910390fd5b610635610eae565b5f600c5f3373ffffffffffffffffffffffffffffffffffffffff1673ffffffffffffffffffffffffffffffffffffffff1681526020019081526020015f2090503373ffffffffffffffffffffffffffffffffffffffff168273ffffffffffffffffffffffffffffffffffffffff16036106e3576040517f08c379a00000000000000000000000000000000000000000000000000000000081526004016106da90611566565b60405180910390fd5b5b5f73ffffffffffffffffffffffffffffffffffffffff16600c5f8473ffffffffffffffffffffffffffffffffffffffff1673ffffffffffffffffffffffffffffffffffffffff1681526020019081526020015f205f0160059054906101000a900473ffffffffffffffffffffffffffffffffffffffff1673ffffffffffffffffffffffffffffffffffffffff161461084b57600c5f8373ffffffffffffffffffffffffffffffffffffffff1673ffffffffffffffffffffffffffffffffffffffff1681526020019081526020015f205f0160059054906101000a900473ffffffffffffffffffffffffffffffffffffffff1691503373ffffffffffffffffffffffffffffffffffffffff168273ffffffffffffffffffffffffffffffffffffffff1603610846576040517f08c379a000000000000000000000000000000000000000000000000000000000815260040161083d906115ce565b60405180910390fd5b6106e4565b6001815f0160046101000a81548160ff021916908315150217905550805f015f9054906101000a900461ffff165f60010160028282829054906101000a900461ffff1661089891906114e7565b92506101000a81548161ffff021916908361ffff16021790555081815f0160056101000a81548173ffffffffffffffffffffffffffffffffffffffff021916908373ffffffffffffffffffffffffffffffffffffffff1602179055505f600c5f8473ffffffffffffffffffffffffffffffffffffffff1673ffffffffffffffffffffffffffffffffffffffff1681526020019081526020015f209050805f0160049054906101000a900460ff16156109b557815f0160029054906101000a900461ffff16825f015f9054906101000a900461ffff1661097791906114e7565b5f6001015f8282829054906101000a900461ffff1661099691906114e7565b92506101000a81548161ffff021916908361ffff160217905550610a1c565b815f0160029054906101000a900461ffff16825f015f9054906101000a900461ffff166109e291906114e7565b815f0160028282829054906101000a900461ffff16610a0191906114e7565b92506101000a81548161ffff021916908361ffff1602179055505b505050565b5f805f015490806001015f9054906101000a900461ffff16908060010160029054906101000a900461ffff16905083565b5f805f8060025f015f9054906101000a900461ffff1660025f0160029054906101000a900463ffffffff1660025f0160069054906101000a900465ffffffffffff1660025f01600c9054906101000a900465ffffffffffff16935093509350935090919293565b6060805f8060045f01600460010160046002015460046003015f9054906101000a900473ffffffffffffffffffffffffffffffffffffffff16838054610afe90611619565b80601f0160208091040260200160405190810160405280929190818152602001828054610b2a90611619565b8015610b755780601f10610b4c57610100808354040283529160200191610b75565b820191905f5260205f20905b815481529060010190602001808311610b5857829003601f168201915b50505050509350828054610b8890611619565b80601f0160208091040260200160405190810160405280929190818152602001828054610bb490611619565b8015610bff5780601f10610bd657610100808354040283529160200191610bff565b820191905f5260205f20905b815481529060010190602001808311610be257829003601f168201915b50505050509250935093509350935090919293565b5f90565b5f60085f015f9054906101000a900473ffffffffffffffffffffffffffffffffffffffff16600860020154610c4b610cb8565b600460020154604051602001610c649493929190611649565b604051602081830303815290604052805190602001205f1c905090565b5f805f805f01545f6001015f9054906101000a900461ffff165f60010160029054906101000a900461ffff16925092509250909192565b606060045f0160405160240160405160208183030381529060405290604051610ce1919061172f565b60405180910390207bffffffffffffffffffffffffffffffffffffffffffffffffffffffff19166020820180517bffffffffffffffffffffffffffffffffffffffffffffffffffffffff8381831617835250505050905090565b5f804290506003548165ffffffffffff1611610d5b576001915050610eab565b60025f015f9054906101000a900461ffff1661ffff165f60010160029054906101000a900461ffff1661ffff161015610ea65760025f01600c9054906101000a900465ffffffffffff1660025f0160029054906101000a900463ffffffff1663ffffffff1660025f0160069054906101000a900465ffffffffffff16610de19190611745565b610deb9190611745565b65ffffffffffff168165ffffffffffff1611610ea55760025f01600c9054906101000a900465ffffffffffff1665ffffffffffff1660035f828254610e30919061177e565b925050819055503073ffffffffffffffffffffffffffffffffffffffff167f500de3b55e9f23c65d27e8e2eb29867b6b250c4219cec100f4b441983c5d7d7860025f01600c9054906101000a900465ffffffffffff16604051610e939190611439565b60405180910390a26001915050610eab565b5b5f9150505b90565b5f60085f015f9054906101000a900473ffffffffffffffffffffffffffffffffffffffff1673ffffffffffffffffffffffffffffffffffffffff166370a08231336040518263ffffffff1660e01b8152600401610f0b91906117b1565b602060405180830381865afa158015610f26573d5f803e3d5ffd5b505050506040513d601f19601f82011682018060405250810190610f4a91906117f4565b90505f8161ffff161115610fb25780600c5f3373ffffffffffffffffffffffffffffffffffffffff1673ffffffffffffffffffffffffffffffffffffffff1681526020019081526020015f205f015f6101000a81548161ffff021916908361ffff1602179055505b5f600c5f3373ffffffffffffffffffffffffffffffffffffffff1673ffffffffffffffffffffffffffffffffffffffff1681526020019081526020015f205f015f9054906101000a900461ffff1661ffff1614158061106257505f600c5f3373ffffffffffffffffffffffffffffffffffffffff1673ffffffffffffffffffffffffffffffffffffffff1681526020019081526020015f205f0160029054906101000a900461ffff1661ffff1614155b6110a1576040517f08c379a000000000000000000000000000000000000000000000000000000000815260040161109890611869565b60405180910390fd5b50565b5f73ffffffffffffffffffffffffffffffffffffffff82169050919050565b5f6110cd826110a4565b9050919050565b6110dd816110c3565b82525050565b5f819050919050565b6110f5816110e3565b82525050565b5f60608201905061110e5f8301866110d4565b61111b60208301856110d4565b61112860408301846110ec565b949350505050565b5f80fd5b5f8115159050919050565b61114881611134565b8114611152575f80fd5b50565b5f813590506111638161113f565b92915050565b5f6020828403121561117e5761117d611130565b5b5f61118b84828501611155565b91505092915050565b61119d816110c3565b81146111a7575f80fd5b50565b5f813590506111b881611194565b92915050565b5f602082840312156111d3576111d2611130565b5b5f6111e0848285016111aa565b91505092915050565b5f819050919050565b6111fb816111e9565b82525050565b5f61ffff82169050919050565b61121781611201565b82525050565b5f6060820190506112305f8301866111f2565b61123d602083018561120e565b61124a604083018461120e565b949350505050565b5f63ffffffff82169050919050565b61126a81611252565b82525050565b5f65ffffffffffff82169050919050565b61128a81611270565b82525050565b5f6080820190506112a35f83018761120e565b6112b06020830186611261565b6112bd6040830185611281565b6112ca6060830184611281565b95945050505050565b5f81519050919050565b5f82825260208201905092915050565b5f5b8381101561130a5780820151818401526020810190506112ef565b5f8484015250505050565b5f601f19601f8301169050919050565b5f61132f826112d3565b61133981856112dd565b93506113498185602086016112ed565b61135281611315565b840191505092915050565b5f6080820190508181035f8301526113758187611325565b905081810360208301526113898186611325565b905061139860408301856111f2565b6113a560608301846110d4565b95945050505050565b5f6020820190506113c15f8301846110ec565b92915050565b5f81519050919050565b5f82825260208201905092915050565b5f6113eb826113c7565b6113f581856113d1565b93506114058185602086016112ed565b61140e81611315565b840191505092915050565b5f6020820190508181035f83015261143181846113e1565b905092915050565b5f60208201905061144c5f830184611281565b92915050565b7f416c726561647920766f7465642e0000000000000000000000000000000000005f82015250565b5f611486600e836112dd565b915061149182611452565b602082019050919050565b5f6020820190508181035f8301526114b38161147a565b9050919050565b7f4e487b71000000000000000000000000000000000000000000000000000000005f52601160045260245ffd5b5f6114f182611201565b91506114fc83611201565b9250828201905061ffff811115611516576115156114ba565b5b92915050565b7f53656c662d64656c65676174696f6e20697320646973616c6c6f7765642e00005f82015250565b5f611550601e836112dd565b915061155b8261151c565b602082019050919050565b5f6020820190508181035f83015261157d81611544565b9050919050565b7f466f756e64206c6f6f7020696e2064656c65676174696f6e2e000000000000005f82015250565b5f6115b86019836112dd565b91506115c382611584565b602082019050919050565b5f6020820190508181035f8301526115e5816115ac565b9050919050565b7f4e487b71000000000000000000000000000000000000000000000000000000005f52602260045260245ffd5b5f600282049050600182168061163057607f821691505b602082108103611643576116426115ec565b5b50919050565b5f60808201905061165c5f8301876110d4565b61166960208301866110ec565b818103604083015261167b81856113e1565b905061168a60608301846111f2565b95945050505050565b5f81905092915050565b5f819050815f5260205f209050919050565b5f81546116bb81611619565b6116c58186611693565b9450600182165f81146116df57600181146116f457611726565b60ff1983168652811515820286019350611726565b6116fd8561169d565b5f5b8381101561171e578154818901526001820191506020810190506116ff565b838801955050505b50505092915050565b5f61173a82846116af565b915081905092915050565b5f61174f82611270565b915061175a83611270565b9250828201905065ffffffffffff811115611778576117776114ba565b5b92915050565b5f611788826110e3565b9150611793836110e3565b92508282019050808211156117ab576117aa6114ba565b5b92915050565b5f6020820190506117c45f8301846110d4565b92915050565b6117d381611201565b81146117dd575f80fd5b50565b5f815190506117ee816117ca565b92915050565b5f6020828403121561180957611808611130565b5b5f611816848285016117e0565b91505092915050565b7f486173206e6f20726967687420746f20766f74650000000000000000000000005f82015250565b5f6118536014836112dd565b915061185e8261181f565b602082019050919050565b5f6020820190508181035f83015261188081611847565b905091905056fea2646970667358221220caf07c2f3e369ce1807d593defa371ed4f640c2d1a2a5de34f3b03d10bb5a6f364736f6c63430008140033",
					"opcodes": "PUSH1 0x80 PUSH1 0x40 MSTORE CALLVALUE DUP1 ISZERO PUSH3 0x10 JUMPI PUSH0 DUP1 REVERT JUMPDEST POP PUSH1 0x40 MLOAD PUSH3 0x2611 CODESIZE SUB DUP1 PUSH3 0x2611 DUP4 CODECOPY DUP2 DUP2 ADD PUSH1 0x40 MSTORE DUP2 ADD SWAP1 PUSH3 0x36 SWAP2 SWAP1 PUSH3 0x84E JUMP JUMPDEST DUP4 PUSH1 0x4 PUSH0 DUP3 ADD MLOAD DUP2 PUSH0 ADD SWAP1 DUP2 PUSH3 0x4E SWAP2 SWAP1 PUSH3 0xB0A JUMP JUMPDEST POP PUSH1 0x20 DUP3 ADD MLOAD DUP2 PUSH1 0x1 ADD SWAP1 DUP2 PUSH3 0x66 SWAP2 SWAP1 PUSH3 0xB0A JUMP JUMPDEST POP PUSH1 0x40 DUP3 ADD MLOAD DUP2 PUSH1 0x2 ADD SSTORE PUSH1 0x60 DUP3 ADD MLOAD DUP2 PUSH1 0x3 ADD PUSH0 PUSH2 0x100 EXP DUP2 SLOAD DUP2 PUSH20 0xFFFFFFFFFFFFFFFFFFFFFFFFFFFFFFFFFFFFFFFF MUL NOT AND SWAP1 DUP4 PUSH20 0xFFFFFFFFFFFFFFFFFFFFFFFFFFFFFFFFFFFFFFFF AND MUL OR SWAP1 SSTORE POP SWAP1 POP POP PUSH1 0x4 PUSH1 0x1 ADD PUSH1 0x40 MLOAD PUSH1 0x20 ADD PUSH3 0xD1 SWAP2 SWAP1 PUSH3 0xC8B JUMP JUMPDEST PUSH1 0x40 MLOAD PUSH1 0x20 DUP2 DUP4 SUB SUB DUP2 MSTORE SWAP1 PUSH1 0x40 MSTORE DUP1 MLOAD SWAP1 PUSH1 0x20 ADD KECCAK256 PUSH1 0x4 PUSH1 0x2 ADD DUP2 SWAP1 SSTORE POP CALLER PUSH1 0x8 PUSH1 0x1 ADD PUSH0 PUSH2 0x100 EXP DUP2 SLOAD DUP2 PUSH20 0xFFFFFFFFFFFFFFFFFFFFFFFFFFFFFFFFFFFFFFFF MUL NOT AND SWAP1 DUP4 PUSH20 0xFFFFFFFFFFFFFFFFFFFFFFFFFFFFFFFFFFFFFFFF AND MUL OR SWAP1 SSTORE POP PUSH1 0xB PUSH0 PUSH1 0x8 PUSH1 0x1 ADD PUSH0 SWAP1 SLOAD SWAP1 PUSH2 0x100 EXP SWAP1 DIV PUSH20 0xFFFFFFFFFFFFFFFFFFFFFFFFFFFFFFFFFFFFFFFF AND PUSH20 0xFFFFFFFFFFFFFFFFFFFFFFFFFFFFFFFFFFFFFFFF AND PUSH20 0xFFFFFFFFFFFFFFFFFFFFFFFFFFFFFFFFFFFFFFFF AND DUP2 MSTORE PUSH1 0x20 ADD SWAP1 DUP2 MSTORE PUSH1 0x20 ADD PUSH0 KECCAK256 PUSH0 SWAP1 SLOAD SWAP1 PUSH2 0x100 EXP SWAP1 DIV PUSH20 0xFFFFFFFFFFFFFFFFFFFFFFFFFFFFFFFFFFFFFFFF AND PUSH1 0x8 PUSH0 ADD PUSH0 PUSH2 0x100 EXP DUP2 SLOAD DUP2 PUSH20 0xFFFFFFFFFFFFFFFFFFFFFFFFFFFFFFFFFFFFFFFF MUL NOT AND SWAP1 DUP4 PUSH20 0xFFFFFFFFFFFFFFFFFFFFFFFFFFFFFFFFFFFFFFFF AND MUL OR SWAP1 SSTORE POP PUSH0 PUSH20 0xFFFFFFFFFFFFFFFFFFFFFFFFFFFFFFFFFFFFFFFF AND PUSH1 0x8 PUSH0 ADD PUSH0 SWAP1 SLOAD SWAP1 PUSH2 0x100 EXP SWAP1 DIV PUSH20 0xFFFFFFFFFFFFFFFFFFFFFFFFFFFFFFFFFFFFFFFF AND PUSH20 0xFFFFFFFFFFFFFFFFFFFFFFFFFFFFFFFFFFFFFFFF AND SUB PUSH3 0x2AF JUMPI PUSH1 0x8 PUSH1 0x1 ADD PUSH0 SWAP1 SLOAD SWAP1 PUSH2 0x100 EXP SWAP1 DIV PUSH20 0xFFFFFFFFFFFFFFFFFFFFFFFFFFFFFFFFFFFFFFFF AND PUSH1 0x40 MLOAD PUSH32 0xDEFE7BD300000000000000000000000000000000000000000000000000000000 DUP2 MSTORE PUSH1 0x4 ADD PUSH3 0x2A6 SWAP2 SWAP1 PUSH3 0xCBE JUMP JUMPDEST PUSH1 0x40 MLOAD DUP1 SWAP2 SUB SWAP1 REVERT JUMPDEST DUP3 PUSH1 0x8 PUSH1 0x2 ADD DUP2 SWAP1 SSTORE POP DUP2 PUSH1 0x2 PUSH0 DUP3 ADD MLOAD DUP2 PUSH0 ADD PUSH0 PUSH2 0x100 EXP DUP2 SLOAD DUP2 PUSH2 0xFFFF MUL NOT AND SWAP1 DUP4 PUSH2 0xFFFF AND MUL OR SWAP1 SSTORE POP PUSH1 0x20 DUP3 ADD MLOAD DUP2 PUSH0 ADD PUSH1 0x2 PUSH2 0x100 EXP DUP2 SLOAD DUP2 PUSH4 0xFFFFFFFF MUL NOT AND SWAP1 DUP4 PUSH4 0xFFFFFFFF AND MUL OR SWAP1 SSTORE POP PUSH1 0x40 DUP3 ADD MLOAD DUP2 PUSH0 ADD PUSH1 0x6 PUSH2 0x100 EXP DUP2 SLOAD DUP2 PUSH6 0xFFFFFFFFFFFF MUL NOT AND SWAP1 DUP4 PUSH6 0xFFFFFFFFFFFF AND MUL OR SWAP1 SSTORE POP PUSH1 0x60 DUP3 ADD MLOAD DUP2 PUSH0 ADD PUSH1 0xC PUSH2 0x100 EXP DUP2 SLOAD DUP2 PUSH6 0xFFFFFFFFFFFF MUL NOT AND SWAP1 DUP4 PUSH6 0xFFFFFFFFFFFF AND MUL OR SWAP1 SSTORE POP SWAP1 POP POP PUSH1 0x2 PUSH0 ADD PUSH1 0x2 SWAP1 SLOAD SWAP1 PUSH2 0x100 EXP SWAP1 DIV PUSH4 0xFFFFFFFF AND PUSH4 0xFFFFFFFF AND PUSH1 0x2 PUSH0 ADD PUSH1 0x6 SWAP1 SLOAD SWAP1 PUSH2 0x100 EXP SWAP1 DIV PUSH6 0xFFFFFFFFFFFF AND PUSH3 0x397 SWAP2 SWAP1 PUSH3 0xD06 JUMP JUMPDEST PUSH6 0xFFFFFFFFFFFF AND PUSH1 0x3 DUP2 SWAP1 SSTORE POP DUP1 PUSH0 DUP1 ADD DUP2 SWAP1 SSTORE POP PUSH0 DUP1 PUSH1 0x1 ADD PUSH0 PUSH2 0x100 EXP DUP2 SLOAD DUP2 PUSH2 0xFFFF MUL NOT AND SWAP1 DUP4 PUSH2 0xFFFF AND MUL OR SWAP1 SSTORE POP PUSH0 DUP1 PUSH1 0x1 ADD PUSH1 0x2 PUSH2 0x100 EXP DUP2 SLOAD DUP2 PUSH2 0xFFFF MUL NOT AND SWAP1 DUP4 PUSH2 0xFFFF AND MUL OR SWAP1 SSTORE POP POP POP POP POP PUSH3 0xD46 JUMP JUMPDEST PUSH0 PUSH1 0x40 MLOAD SWAP1 POP SWAP1 JUMP JUMPDEST PUSH0 DUP1 REVERT JUMPDEST PUSH0 DUP1 REVERT JUMPDEST PUSH0 DUP1 REVERT JUMPDEST PUSH0 PUSH1 0x1F NOT PUSH1 0x1F DUP4 ADD AND SWAP1 POP SWAP2 SWAP1 POP JUMP JUMPDEST PUSH32 0x4E487B7100000000000000000000000000000000000000000000000000000000 PUSH0 MSTORE PUSH1 0x41 PUSH1 0x4 MSTORE PUSH1 0x24 PUSH0 REVERT JUMPDEST PUSH3 0x451 DUP3 PUSH3 0x409 JUMP JUMPDEST DUP2 ADD DUP2 DUP2 LT PUSH8 0xFFFFFFFFFFFFFFFF DUP3 GT OR ISZERO PUSH3 0x473 JUMPI PUSH3 0x472 PUSH3 0x419 JUMP JUMPDEST JUMPDEST DUP1 PUSH1 0x40 MSTORE POP POP POP JUMP JUMPDEST PUSH0 PUSH3 0x487 PUSH3 0x3F4 JUMP JUMPDEST SWAP1 POP PUSH3 0x495 DUP3 DUP3 PUSH3 0x446 JUMP JUMPDEST SWAP2 SWAP1 POP JUMP JUMPDEST PUSH0 DUP1 REVERT JUMPDEST PUSH0 DUP1 REVERT JUMPDEST PUSH0 DUP1 REVERT JUMPDEST PUSH0 PUSH8 0xFFFFFFFFFFFFFFFF DUP3 GT ISZERO PUSH3 0x4C3 JUMPI PUSH3 0x4C2 PUSH3 0x419 JUMP JUMPDEST JUMPDEST PUSH3 0x4CE DUP3 PUSH3 0x409 JUMP JUMPDEST SWAP1 POP PUSH1 0x20 DUP2 ADD SWAP1 POP SWAP2 SWAP1 POP JUMP JUMPDEST PUSH0 JUMPDEST DUP4 DUP2 LT ISZERO PUSH3 0x4FA JUMPI DUP1 DUP3 ADD MLOAD DUP2 DUP5 ADD MSTORE PUSH1 0x20 DUP2 ADD SWAP1 POP PUSH3 0x4DD JUMP JUMPDEST PUSH0 DUP5 DUP5 ADD MSTORE POP POP POP POP JUMP JUMPDEST PUSH0 PUSH3 0x51B PUSH3 0x515 DUP5 PUSH3 0x4A6 JUMP JUMPDEST PUSH3 0x47C JUMP JUMPDEST SWAP1 POP DUP3 DUP2 MSTORE PUSH1 0x20 DUP2 ADD DUP5 DUP5 DUP5 ADD GT ISZERO PUSH3 0x53A JUMPI PUSH3 0x539 PUSH3 0x4A2 JUMP JUMPDEST JUMPDEST PUSH3 0x547 DUP5 DUP3 DUP6 PUSH3 0x4DB JUMP JUMPDEST POP SWAP4 SWAP3 POP POP POP JUMP JUMPDEST PUSH0 DUP3 PUSH1 0x1F DUP4 ADD SLT PUSH3 0x566 JUMPI PUSH3 0x565 PUSH3 0x49E JUMP JUMPDEST JUMPDEST DUP2 MLOAD PUSH3 0x578 DUP5 DUP3 PUSH1 0x20 DUP7 ADD PUSH3 0x505 JUMP JUMPDEST SWAP2 POP POP SWAP3 SWAP2 POP POP JUMP JUMPDEST PUSH0 DUP2 SWAP1 POP SWAP2 SWAP1 POP JUMP JUMPDEST PUSH3 0x595 DUP2 PUSH3 0x581 JUMP JUMPDEST DUP2 EQ PUSH3 0x5A0 JUMPI PUSH0 DUP1 REVERT JUMPDEST POP JUMP JUMPDEST PUSH0 DUP2 MLOAD SWAP1 POP PUSH3 0x5B3 DUP2 PUSH3 0x58A JUMP JUMPDEST SWAP3 SWAP2 POP POP JUMP JUMPDEST PUSH0 PUSH20 0xFFFFFFFFFFFFFFFFFFFFFFFFFFFFFFFFFFFFFFFF DUP3 AND SWAP1 POP SWAP2 SWAP1 POP JUMP JUMPDEST PUSH0 PUSH3 0x5E4 DUP3 PUSH3 0x5B9 JUMP JUMPDEST SWAP1 POP SWAP2 SWAP1 POP JUMP JUMPDEST PUSH3 0x5F6 DUP2 PUSH3 0x5D8 JUMP JUMPDEST DUP2 EQ PUSH3 0x601 JUMPI PUSH0 DUP1 REVERT JUMPDEST POP JUMP JUMPDEST PUSH0 DUP2 MLOAD SWAP1 POP PUSH3 0x614 DUP2 PUSH3 0x5EB JUMP JUMPDEST SWAP3 SWAP2 POP POP JUMP JUMPDEST PUSH0 PUSH1 0x80 DUP3 DUP5 SUB SLT ISZERO PUSH3 0x632 JUMPI PUSH3 0x631 PUSH3 0x405 JUMP JUMPDEST JUMPDEST PUSH3 0x63E PUSH1 0x80 PUSH3 0x47C JUMP JUMPDEST SWAP1 POP PUSH0 DUP3 ADD MLOAD PUSH8 0xFFFFFFFFFFFFFFFF DUP2 GT ISZERO PUSH3 0x660 JUMPI PUSH3 0x65F PUSH3 0x49A JUMP JUMPDEST JUMPDEST PUSH3 0x66E DUP5 DUP3 DUP6 ADD PUSH3 0x54F JUMP JUMPDEST PUSH0 DUP4 ADD MSTORE POP PUSH1 0x20 DUP3 ADD MLOAD PUSH8 0xFFFFFFFFFFFFFFFF DUP2 GT ISZERO PUSH3 0x694 JUMPI PUSH3 0x693 PUSH3 0x49A JUMP JUMPDEST JUMPDEST PUSH3 0x6A2 DUP5 DUP3 DUP6 ADD PUSH3 0x54F JUMP JUMPDEST PUSH1 0x20 DUP4 ADD MSTORE POP PUSH1 0x40 PUSH3 0x6B8 DUP5 DUP3 DUP6 ADD PUSH3 0x5A3 JUMP JUMPDEST PUSH1 0x40 DUP4 ADD MSTORE POP PUSH1 0x60 PUSH3 0x6CE DUP5 DUP3 DUP6 ADD PUSH3 0x604 JUMP JUMPDEST PUSH1 0x60 DUP4 ADD MSTORE POP SWAP3 SWAP2 POP POP JUMP JUMPDEST PUSH0 DUP2 SWAP1 POP SWAP2 SWAP1 POP JUMP JUMPDEST PUSH3 0x6EE DUP2 PUSH3 0x6DA JUMP JUMPDEST DUP2 EQ PUSH3 0x6F9 JUMPI PUSH0 DUP1 REVERT JUMPDEST POP JUMP JUMPDEST PUSH0 DUP2 MLOAD SWAP1 POP PUSH3 0x70C DUP2 PUSH3 0x6E3 JUMP JUMPDEST SWAP3 SWAP2 POP POP JUMP JUMPDEST PUSH0 PUSH2 0xFFFF DUP3 AND SWAP1 POP SWAP2 SWAP1 POP JUMP JUMPDEST PUSH3 0x72A DUP2 PUSH3 0x712 JUMP JUMPDEST DUP2 EQ PUSH3 0x735 JUMPI PUSH0 DUP1 REVERT JUMPDEST POP JUMP JUMPDEST PUSH0 DUP2 MLOAD SWAP1 POP PUSH3 0x748 DUP2 PUSH3 0x71F JUMP JUMPDEST SWAP3 SWAP2 POP POP JUMP JUMPDEST PUSH0 PUSH4 0xFFFFFFFF DUP3 AND SWAP1 POP SWAP2 SWAP1 POP JUMP JUMPDEST PUSH3 0x768 DUP2 PUSH3 0x74E JUMP JUMPDEST DUP2 EQ PUSH3 0x773 JUMPI PUSH0 DUP1 REVERT JUMPDEST POP JUMP JUMPDEST PUSH0 DUP2 MLOAD SWAP1 POP PUSH3 0x786 DUP2 PUSH3 0x75D JUMP JUMPDEST SWAP3 SWAP2 POP POP JUMP JUMPDEST PUSH0 PUSH6 0xFFFFFFFFFFFF DUP3 AND SWAP1 POP SWAP2 SWAP1 POP JUMP JUMPDEST PUSH3 0x7A8 DUP2 PUSH3 0x78C JUMP JUMPDEST DUP2 EQ PUSH3 0x7B3 JUMPI PUSH0 DUP1 REVERT JUMPDEST POP JUMP JUMPDEST PUSH0 DUP2 MLOAD SWAP1 POP PUSH3 0x7C6 DUP2 PUSH3 0x79D JUMP JUMPDEST SWAP3 SWAP2 POP POP JUMP JUMPDEST PUSH0 PUSH1 0x80 DUP3 DUP5 SUB SLT ISZERO PUSH3 0x7E4 JUMPI PUSH3 0x7E3 PUSH3 0x405 JUMP JUMPDEST JUMPDEST PUSH3 0x7F0 PUSH1 0x80 PUSH3 0x47C JUMP JUMPDEST SWAP1 POP PUSH0 PUSH3 0x801 DUP5 DUP3 DUP6 ADD PUSH3 0x738 JUMP JUMPDEST PUSH0 DUP4 ADD MSTORE POP PUSH1 0x20 PUSH3 0x816 DUP5 DUP3 DUP6 ADD PUSH3 0x776 JUMP JUMPDEST PUSH1 0x20 DUP4 ADD MSTORE POP PUSH1 0x40 PUSH3 0x82C DUP5 DUP3 DUP6 ADD PUSH3 0x7B6 JUMP JUMPDEST PUSH1 0x40 DUP4 ADD MSTORE POP PUSH1 0x60 PUSH3 0x842 DUP5 DUP3 DUP6 ADD PUSH3 0x7B6 JUMP JUMPDEST PUSH1 0x60 DUP4 ADD MSTORE POP SWAP3 SWAP2 POP POP JUMP JUMPDEST PUSH0 DUP1 PUSH0 DUP1 PUSH1 0xE0 DUP6 DUP8 SUB SLT ISZERO PUSH3 0x869 JUMPI PUSH3 0x868 PUSH3 0x3FD JUMP JUMPDEST JUMPDEST PUSH0 DUP6 ADD MLOAD PUSH8 0xFFFFFFFFFFFFFFFF DUP2 GT ISZERO PUSH3 0x889 JUMPI PUSH3 0x888 PUSH3 0x401 JUMP JUMPDEST JUMPDEST PUSH3 0x897 DUP8 DUP3 DUP9 ADD PUSH3 0x61A JUMP JUMPDEST SWAP5 POP POP PUSH1 0x20 PUSH3 0x8AA DUP8 DUP3 DUP9 ADD PUSH3 0x6FC JUMP JUMPDEST SWAP4 POP POP PUSH1 0x40 PUSH3 0x8BD DUP8 DUP3 DUP9 ADD PUSH3 0x7CC JUMP JUMPDEST SWAP3 POP POP PUSH1 0xC0 PUSH3 0x8D0 DUP8 DUP3 DUP9 ADD PUSH3 0x5A3 JUMP JUMPDEST SWAP2 POP POP SWAP3 SWAP6 SWAP2 SWAP5 POP SWAP3 POP JUMP JUMPDEST PUSH0 DUP2 MLOAD SWAP1 POP SWAP2 SWAP1 POP JUMP JUMPDEST PUSH32 0x4E487B7100000000000000000000000000000000000000000000000000000000 PUSH0 MSTORE PUSH1 0x22 PUSH1 0x4 MSTORE PUSH1 0x24 PUSH0 REVERT JUMPDEST PUSH0 PUSH1 0x2 DUP3 DIV SWAP1 POP PUSH1 0x1 DUP3 AND DUP1 PUSH3 0x92B JUMPI PUSH1 0x7F DUP3 AND SWAP2 POP JUMPDEST PUSH1 0x20 DUP3 LT DUP2 SUB PUSH3 0x941 JUMPI PUSH3 0x940 PUSH3 0x8E6 JUMP JUMPDEST JUMPDEST POP SWAP2 SWAP1 POP JUMP JUMPDEST PUSH0 DUP2 SWAP1 POP DUP2 PUSH0 MSTORE PUSH1 0x20 PUSH0 KECCAK256 SWAP1 POP SWAP2 SWAP1 POP JUMP JUMPDEST PUSH0 PUSH1 0x20 PUSH1 0x1F DUP4 ADD DIV SWAP1 POP SWAP2 SWAP1 POP JUMP JUMPDEST PUSH0 DUP3 DUP3 SHL SWAP1 POP SWAP3 SWAP2 POP POP JUMP JUMPDEST PUSH0 PUSH1 0x8 DUP4 MUL PUSH3 0x9A5 PUSH32 0xFFFFFFFFFFFFFFFFFFFFFFFFFFFFFFFFFFFFFFFFFFFFFFFFFFFFFFFFFFFFFFFF DUP3 PUSH3 0x968 JUMP JUMPDEST PUSH3 0x9B1 DUP7 DUP4 PUSH3 0x968 JUMP JUMPDEST SWAP6 POP DUP1 NOT DUP5 AND SWAP4 POP DUP1 DUP7 AND DUP5 OR SWAP3 POP POP POP SWAP4 SWAP3 POP POP POP JUMP JUMPDEST PUSH0 DUP2 SWAP1 POP SWAP2 SWAP1 POP JUMP JUMPDEST PUSH0 PUSH3 0x9F2 PUSH3 0x9EC PUSH3 0x9E6 DUP5 PUSH3 0x6DA JUMP JUMPDEST PUSH3 0x9C9 JUMP JUMPDEST PUSH3 0x6DA JUMP JUMPDEST SWAP1 POP SWAP2 SWAP1 POP JUMP JUMPDEST PUSH0 DUP2 SWAP1 POP SWAP2 SWAP1 POP JUMP JUMPDEST PUSH3 0xA0D DUP4 PUSH3 0x9D2 JUMP JUMPDEST PUSH3 0xA25 PUSH3 0xA1C DUP3 PUSH3 0x9F9 JUMP JUMPDEST DUP5 DUP5 SLOAD PUSH3 0x974 JUMP JUMPDEST DUP3 SSTORE POP POP POP POP JUMP JUMPDEST PUSH0 SWAP1 JUMP JUMPDEST PUSH3 0xA3B PUSH3 0xA2D JUMP JUMPDEST PUSH3 0xA48 DUP2 DUP5 DUP5 PUSH3 0xA02 JUMP JUMPDEST POP POP POP JUMP JUMPDEST JUMPDEST DUP2 DUP2 LT ISZERO PUSH3 0xA6F JUMPI PUSH3 0xA63 PUSH0 DUP3 PUSH3 0xA31 JUMP JUMPDEST PUSH1 0x1 DUP2 ADD SWAP1 POP PUSH3 0xA4E JUMP JUMPDEST POP POP JUMP JUMPDEST PUSH1 0x1F DUP3 GT ISZERO PUSH3 0xABE JUMPI PUSH3 0xA88 DUP2 PUSH3 0x947 JUMP JUMPDEST PUSH3 0xA93 DUP5 PUSH3 0x959 JUMP JUMPDEST DUP2 ADD PUSH1 0x20 DUP6 LT ISZERO PUSH3 0xAA3 JUMPI DUP2 SWAP1 POP JUMPDEST PUSH3 0xABB PUSH3 0xAB2 DUP6 PUSH3 0x959 JUMP JUMPDEST DUP4 ADD DUP3 PUSH3 0xA4D JUMP JUMPDEST POP POP JUMPDEST POP POP POP JUMP JUMPDEST PUSH0 DUP3 DUP3 SHR SWAP1 POP SWAP3 SWAP2 POP POP JUMP JUMPDEST PUSH0 PUSH3 0xAE0 PUSH0 NOT DUP5 PUSH1 0x8 MUL PUSH3 0xAC3 JUMP JUMPDEST NOT DUP1 DUP4 AND SWAP2 POP POP SWAP3 SWAP2 POP POP JUMP JUMPDEST PUSH0 PUSH3 0xAFA DUP4 DUP4 PUSH3 0xACF JUMP JUMPDEST SWAP2 POP DUP3 PUSH1 0x2 MUL DUP3 OR SWAP1 POP SWAP3 SWAP2 POP POP JUMP JUMPDEST PUSH3 0xB15 DUP3 PUSH3 0x8DC JUMP JUMPDEST PUSH8 0xFFFFFFFFFFFFFFFF DUP2 GT ISZERO PUSH3 0xB31 JUMPI PUSH3 0xB30 PUSH3 0x419 JUMP JUMPDEST JUMPDEST PUSH3 0xB3D DUP3 SLOAD PUSH3 0x913 JUMP JUMPDEST PUSH3 0xB4A DUP3 DUP3 DUP6 PUSH3 0xA73 JUMP JUMPDEST PUSH0 PUSH1 0x20 SWAP1 POP PUSH1 0x1F DUP4 GT PUSH1 0x1 DUP2 EQ PUSH3 0xB80 JUMPI PUSH0 DUP5 ISZERO PUSH3 0xB6B JUMPI DUP3 DUP8 ADD MLOAD SWAP1 POP JUMPDEST PUSH3 0xB77 DUP6 DUP3 PUSH3 0xAED JUMP JUMPDEST DUP7 SSTORE POP PUSH3 0xBE6 JUMP JUMPDEST PUSH1 0x1F NOT DUP5 AND PUSH3 0xB90 DUP7 PUSH3 0x947 JUMP JUMPDEST PUSH0 JUMPDEST DUP3 DUP2 LT ISZERO PUSH3 0xBB9 JUMPI DUP5 DUP10 ADD MLOAD DUP3 SSTORE PUSH1 0x1 DUP3 ADD SWAP2 POP PUSH1 0x20 DUP6 ADD SWAP5 POP PUSH1 0x20 DUP2 ADD SWAP1 POP PUSH3 0xB92 JUMP JUMPDEST DUP7 DUP4 LT ISZERO PUSH3 0xBD9 JUMPI DUP5 DUP10 ADD MLOAD PUSH3 0xBD5 PUSH1 0x1F DUP10 AND DUP3 PUSH3 0xACF JUMP JUMPDEST DUP4 SSTORE POP JUMPDEST PUSH1 0x1 PUSH1 0x2 DUP9 MUL ADD DUP9 SSTORE POP POP POP JUMPDEST POP POP POP POP POP POP JUMP JUMPDEST PUSH0 DUP3 DUP3 MSTORE PUSH1 0x20 DUP3 ADD SWAP1 POP SWAP3 SWAP2 POP POP JUMP JUMPDEST PUSH0 DUP2 SLOAD PUSH3 0xC0C DUP2 PUSH3 0x913 JUMP JUMPDEST PUSH3 0xC18 DUP2 DUP7 PUSH3 0xBEE JUMP JUMPDEST SWAP5 POP PUSH1 0x1 DUP3 AND PUSH0 DUP2 EQ PUSH3 0xC35 JUMPI PUSH1 0x1 DUP2 EQ PUSH3 0xC4C JUMPI PUSH3 0xC82 JUMP JUMPDEST PUSH1 0xFF NOT DUP4 AND DUP7 MSTORE DUP2 ISZERO ISZERO PUSH1 0x20 MUL DUP7 ADD SWAP4 POP PUSH3 0xC82 JUMP JUMPDEST PUSH3 0xC57 DUP6 PUSH3 0x947 JUMP JUMPDEST PUSH0 JUMPDEST DUP4 DUP2 LT ISZERO PUSH3 0xC7A JUMPI DUP2 SLOAD DUP2 DUP10 ADD MSTORE PUSH1 0x1 DUP3 ADD SWAP2 POP PUSH1 0x20 DUP2 ADD SWAP1 POP PUSH3 0xC59 JUMP JUMPDEST DUP1 DUP9 ADD SWAP6 POP POP POP JUMPDEST POP POP POP SWAP3 SWAP2 POP POP JUMP JUMPDEST PUSH0 PUSH1 0x20 DUP3 ADD SWAP1 POP DUP2 DUP2 SUB PUSH0 DUP4 ADD MSTORE PUSH3 0xCA5 DUP2 DUP5 PUSH3 0xBFE JUMP JUMPDEST SWAP1 POP SWAP3 SWAP2 POP POP JUMP JUMPDEST PUSH3 0xCB8 DUP2 PUSH3 0x5D8 JUMP JUMPDEST DUP3 MSTORE POP POP JUMP JUMPDEST PUSH0 PUSH1 0x20 DUP3 ADD SWAP1 POP PUSH3 0xCD3 PUSH0 DUP4 ADD DUP5 PUSH3 0xCAD JUMP JUMPDEST SWAP3 SWAP2 POP POP JUMP JUMPDEST PUSH32 0x4E487B7100000000000000000000000000000000000000000000000000000000 PUSH0 MSTORE PUSH1 0x11 PUSH1 0x4 MSTORE PUSH1 0x24 PUSH0 REVERT JUMPDEST PUSH0 PUSH3 0xD12 DUP3 PUSH3 0x78C JUMP JUMPDEST SWAP2 POP PUSH3 0xD1F DUP4 PUSH3 0x78C JUMP JUMPDEST SWAP3 POP DUP3 DUP3 ADD SWAP1 POP PUSH6 0xFFFFFFFFFFFF DUP2 GT ISZERO PUSH3 0xD40 JUMPI PUSH3 0xD3F PUSH3 0xCD9 JUMP JUMPDEST JUMPDEST SWAP3 SWAP2 POP POP JUMP JUMPDEST PUSH2 0x18BD DUP1 PUSH3 0xD54 PUSH0 CODECOPY PUSH0 RETURN INVALID PUSH1 0x80 PUSH1 0x40 MSTORE CALLVALUE DUP1 ISZERO PUSH2 0xF JUMPI PUSH0 DUP1 REVERT JUMPDEST POP PUSH1 0x4 CALLDATASIZE LT PUSH2 0x9C JUMPI PUSH0 CALLDATALOAD PUSH1 0xE0 SHR DUP1 PUSH4 0xBC33C7D7 GT PUSH2 0x64 JUMPI DUP1 PUSH4 0xBC33C7D7 EQ PUSH2 0x139 JUMPI DUP1 PUSH4 0xD4564D16 EQ PUSH2 0x15A JUMPI DUP1 PUSH4 0xEC5BF07B EQ PUSH2 0x178 JUMPI DUP1 PUSH4 0xEE26A38A EQ PUSH2 0x196 JUMPI DUP1 PUSH4 0xF8B1B08A EQ PUSH2 0x1B6 JUMPI PUSH2 0x9C JUMP JUMPDEST DUP1 PUSH4 0x4731CA2B EQ PUSH2 0xA0 JUMPI DUP1 PUSH4 0x4B9F5C98 EQ PUSH2 0xC0 JUMPI DUP1 PUSH4 0x5C19A95C EQ PUSH2 0xDC JUMPI DUP1 PUSH4 0x81C4787B EQ PUSH2 0xF8 JUMPI DUP1 PUSH4 0xB3A05246 EQ PUSH2 0x118 JUMPI JUMPDEST PUSH0 DUP1 REVERT JUMPDEST PUSH2 0xA8 PUSH2 0x1D4 JUMP JUMPDEST PUSH1 0x40 MLOAD PUSH2 0xB7 SWAP4 SWAP3 SWAP2 SWAP1 PUSH2 0x10FB JUMP JUMPDEST PUSH1 0x40 MLOAD DUP1 SWAP2 SUB SWAP1 RETURN JUMPDEST PUSH2 0xDA PUSH1 0x4 DUP1 CALLDATASIZE SUB DUP2 ADD SWAP1 PUSH2 0xD5 SWAP2 SWAP1 PUSH2 0x1169 JUMP JUMPDEST PUSH2 0x231 JUMP JUMPDEST STOP JUMPDEST PUSH2 0xF6 PUSH1 0x4 DUP1 CALLDATASIZE SUB DUP2 ADD SWAP1 PUSH2 0xF1 SWAP2 SWAP1 PUSH2 0x11BE JUMP JUMPDEST PUSH2 0x555 JUMP JUMPDEST STOP JUMPDEST PUSH2 0x100 PUSH2 0xA21 JUMP JUMPDEST PUSH1 0x40 MLOAD PUSH2 0x10F SWAP4 SWAP3 SWAP2 SWAP1 PUSH2 0x121D JUMP JUMPDEST PUSH1 0x40 MLOAD DUP1 SWAP2 SUB SWAP1 RETURN JUMPDEST PUSH2 0x120 PUSH2 0xA52 JUMP JUMPDEST PUSH1 0x40 MLOAD PUSH2 0x130 SWAP5 SWAP4 SWAP3 SWAP2 SWAP1 PUSH2 0x1290 JUMP JUMPDEST PUSH1 0x40 MLOAD DUP1 SWAP2 SUB SWAP1 RETURN JUMPDEST PUSH2 0x141 PUSH2 0xAB9 JUMP JUMPDEST PUSH1 0x40 MLOAD PUSH2 0x151 SWAP5 SWAP4 SWAP3 SWAP2 SWAP1 PUSH2 0x135D JUMP JUMPDEST PUSH1 0x40 MLOAD DUP1 SWAP2 SUB SWAP1 RETURN JUMPDEST PUSH2 0x162 PUSH2 0xC14 JUMP JUMPDEST PUSH1 0x40 MLOAD PUSH2 0x16F SWAP2 SWAP1 PUSH2 0x13AE JUMP JUMPDEST PUSH1 0x40 MLOAD DUP1 SWAP2 SUB SWAP1 RETURN JUMPDEST PUSH2 0x180 PUSH2 0xC18 JUMP JUMPDEST PUSH1 0x40 MLOAD PUSH2 0x18D SWAP2 SWAP1 PUSH2 0x13AE JUMP JUMPDEST PUSH1 0x40 MLOAD DUP1 SWAP2 SUB SWAP1 RETURN JUMPDEST PUSH2 0x19E PUSH2 0xC81 JUMP JUMPDEST PUSH1 0x40 MLOAD PUSH2 0x1AD SWAP4 SWAP3 SWAP2 SWAP1 PUSH2 0x121D JUMP JUMPDEST PUSH1 0x40 MLOAD DUP1 SWAP2 SUB SWAP1 RETURN JUMPDEST PUSH2 0x1BE PUSH2 0xCB8 JUMP JUMPDEST PUSH1 0x40 MLOAD PUSH2 0x1CB SWAP2 SWAP1 PUSH2 0x1419 JUMP JUMPDEST PUSH1 0x40 MLOAD DUP1 SWAP2 SUB SWAP1 RETURN JUMPDEST PUSH0 DUP1 PUSH0 PUSH1 0x8 PUSH0 ADD PUSH0 SWAP1 SLOAD SWAP1 PUSH2 0x100 EXP SWAP1 DIV PUSH20 0xFFFFFFFFFFFFFFFFFFFFFFFFFFFFFFFFFFFFFFFF AND PUSH1 0x8 PUSH1 0x1 ADD PUSH0 SWAP1 SLOAD SWAP1 PUSH2 0x100 EXP SWAP1 DIV PUSH20 0xFFFFFFFFFFFFFFFFFFFFFFFFFFFFFFFFFFFFFFFF AND PUSH1 0x8 PUSH1 0x2 ADD SLOAD SWAP3 POP SWAP3 POP SWAP3 POP SWAP1 SWAP2 SWAP3 JUMP JUMPDEST PUSH1 0x2 PUSH0 ADD PUSH1 0x6 SWAP1 SLOAD SWAP1 PUSH2 0x100 EXP SWAP1 DIV PUSH6 0xFFFFFFFFFFFF AND PUSH6 0xFFFFFFFFFFFF AND TIMESTAMP LT ISZERO PUSH2 0x2AA JUMPI PUSH1 0x2 PUSH0 ADD PUSH1 0x6 SWAP1 SLOAD SWAP1 PUSH2 0x100 EXP SWAP1 DIV PUSH6 0xFFFFFFFFFFFF AND PUSH1 0x40 MLOAD PUSH32 0x55D0B3CF00000000000000000000000000000000000000000000000000000000 DUP2 MSTORE PUSH1 0x4 ADD PUSH2 0x2A1 SWAP2 SWAP1 PUSH2 0x1439 JUMP JUMPDEST PUSH1 0x40 MLOAD DUP1 SWAP2 SUB SWAP1 REVERT JUMPDEST PUSH2 0x2B2 PUSH2 0xD3B JUMP JUMPDEST PUSH2 0x2F5 JUMPI PUSH1 0x3 SLOAD PUSH1 0x40 MLOAD PUSH32 0x8B00B71700000000000000000000000000000000000000000000000000000000 DUP2 MSTORE PUSH1 0x4 ADD PUSH2 0x2EC SWAP2 SWAP1 PUSH2 0x13AE JUMP JUMPDEST PUSH1 0x40 MLOAD DUP1 SWAP2 SUB SWAP1 REVERT JUMPDEST PUSH1 0xC PUSH0 CALLER PUSH20 0xFFFFFFFFFFFFFFFFFFFFFFFFFFFFFFFFFFFFFFFF AND PUSH20 0xFFFFFFFFFFFFFFFFFFFFFFFFFFFFFFFFFFFFFFFF AND DUP2 MSTORE PUSH1 0x20 ADD SWAP1 DUP2 MSTORE PUSH1 0x20 ADD PUSH0 KECCAK256 PUSH0 ADD PUSH1 0x4 SWAP1 SLOAD SWAP1 PUSH2 0x100 EXP SWAP1 DIV PUSH1 0xFF AND ISZERO PUSH2 0x382 JUMPI PUSH1 0x40 MLOAD PUSH32 0x8C379A000000000000000000000000000000000000000000000000000000000 DUP2 MSTORE PUSH1 0x4 ADD PUSH2 0x379 SWAP1 PUSH2 0x149C JUMP JUMPDEST PUSH1 0x40 MLOAD DUP1 SWAP2 SUB SWAP1 REVERT JUMPDEST PUSH2 0x38A PUSH2 0xEAE JUMP JUMPDEST PUSH0 PUSH1 0xC PUSH0 CALLER PUSH20 0xFFFFFFFFFFFFFFFFFFFFFFFFFFFFFFFFFFFFFFFF AND PUSH20 0xFFFFFFFFFFFFFFFFFFFFFFFFFFFFFFFFFFFFFFFF AND DUP2 MSTORE PUSH1 0x20 ADD SWAP1 DUP2 MSTORE PUSH1 0x20 ADD PUSH0 KECCAK256 SWAP1 POP PUSH1 0x1 DUP2 PUSH0 ADD PUSH1 0x4 PUSH2 0x100 EXP DUP2 SLOAD DUP2 PUSH1 0xFF MUL NOT AND SWAP1 DUP4 ISZERO ISZERO MUL OR SWAP1 SSTORE POP TIMESTAMP DUP2 PUSH1 0x1 ADD DUP2 SWAP1 SSTORE POP DUP2 ISZERO PUSH2 0x4AB JUMPI DUP1 PUSH0 ADD PUSH0 SWAP1 SLOAD SWAP1 PUSH2 0x100 EXP SWAP1 DIV PUSH2 0xFFFF AND PUSH0 PUSH1 0x1 ADD PUSH1 0x2 DUP3 DUP3 DUP3 SWAP1 SLOAD SWAP1 PUSH2 0x100 EXP SWAP1 DIV PUSH2 0xFFFF AND PUSH2 0x426 SWAP2 SWAP1 PUSH2 0x14E7 JUMP JUMPDEST SWAP3 POP PUSH2 0x100 EXP DUP2 SLOAD DUP2 PUSH2 0xFFFF MUL NOT AND SWAP1 DUP4 PUSH2 0xFFFF AND MUL OR SWAP1 SSTORE POP DUP1 PUSH0 ADD PUSH1 0x2 SWAP1 SLOAD SWAP1 PUSH2 0x100 EXP SWAP1 DIV PUSH2 0xFFFF AND DUP2 PUSH0 ADD PUSH0 SWAP1 SLOAD SWAP1 PUSH2 0x100 EXP SWAP1 DIV PUSH2 0xFFFF AND PUSH2 0x46D SWAP2 SWAP1 PUSH2 0x14E7 JUMP JUMPDEST PUSH0 PUSH1 0x1 ADD PUSH0 DUP3 DUP3 DUP3 SWAP1 SLOAD SWAP1 PUSH2 0x100 EXP SWAP1 DIV PUSH2 0xFFFF AND PUSH2 0x48C SWAP2 SWAP1 PUSH2 0x14E7 JUMP JUMPDEST SWAP3 POP PUSH2 0x100 EXP DUP2 SLOAD DUP2 PUSH2 0xFFFF MUL NOT AND SWAP1 DUP4 PUSH2 0xFFFF AND MUL OR SWAP1 SSTORE POP PUSH2 0x4F7 JUMP JUMPDEST DUP1 PUSH0 ADD PUSH0 SWAP1 SLOAD SWAP1 PUSH2 0x100 EXP SWAP1 DIV PUSH2 0xFFFF AND PUSH0 PUSH1 0x1 ADD PUSH1 0x2 DUP3 DUP3 DUP3 SWAP1 SLOAD SWAP1 PUSH2 0x100 EXP SWAP1 DIV PUSH2 0xFFFF AND PUSH2 0x4DC SWAP2 SWAP1 PUSH2 0x14E7 JUMP JUMPDEST SWAP3 POP PUSH2 0x100 EXP DUP2 SLOAD DUP2 PUSH2 0xFFFF MUL NOT AND SWAP1 DUP4 PUSH2 0xFFFF AND MUL OR SWAP1 SSTORE POP JUMPDEST ADDRESS PUSH20 0xFFFFFFFFFFFFFFFFFFFFFFFFFFFFFFFFFFFFFFFF AND CALLER PUSH20 0xFFFFFFFFFFFFFFFFFFFFFFFFFFFFFFFFFFFFFFFF AND PUSH32 0xF0C90984366C9ECCE045B67DA09271F6D22BD9AD1AED6562DE5BCF1DEF4C7399 PUSH1 0x40 MLOAD PUSH1 0x40 MLOAD DUP1 SWAP2 SUB SWAP1 LOG3 POP POP JUMP JUMPDEST PUSH2 0x55D PUSH2 0xD3B JUMP JUMPDEST PUSH2 0x5A0 JUMPI PUSH1 0x3 SLOAD PUSH1 0x40 MLOAD PUSH32 0x8B00B71700000000000000000000000000000000000000000000000000000000 DUP2 MSTORE PUSH1 0x4 ADD PUSH2 0x597 SWAP2 SWAP1 PUSH2 0x13AE JUMP JUMPDEST PUSH1 0x40 MLOAD DUP1 SWAP2 SUB SWAP1 REVERT JUMPDEST PUSH1 0xC PUSH0 CALLER PUSH20 0xFFFFFFFFFFFFFFFFFFFFFFFFFFFFFFFFFFFFFFFF AND PUSH20 0xFFFFFFFFFFFFFFFFFFFFFFFFFFFFFFFFFFFFFFFF AND DUP2 MSTORE PUSH1 0x20 ADD SWAP1 DUP2 MSTORE PUSH1 0x20 ADD PUSH0 KECCAK256 PUSH0 ADD PUSH1 0x4 SWAP1 SLOAD SWAP1 PUSH2 0x100 EXP SWAP1 DIV PUSH1 0xFF AND ISZERO PUSH2 0x62D JUMPI PUSH1 0x40 MLOAD PUSH32 0x8C379A000000000000000000000000000000000000000000000000000000000 DUP2 MSTORE PUSH1 0x4 ADD PUSH2 0x624 SWAP1 PUSH2 0x149C JUMP JUMPDEST PUSH1 0x40 MLOAD DUP1 SWAP2 SUB SWAP1 REVERT JUMPDEST PUSH2 0x635 PUSH2 0xEAE JUMP JUMPDEST PUSH0 PUSH1 0xC PUSH0 CALLER PUSH20 0xFFFFFFFFFFFFFFFFFFFFFFFFFFFFFFFFFFFFFFFF AND PUSH20 0xFFFFFFFFFFFFFFFFFFFFFFFFFFFFFFFFFFFFFFFF AND DUP2 MSTORE PUSH1 0x20 ADD SWAP1 DUP2 MSTORE PUSH1 0x20 ADD PUSH0 KECCAK256 SWAP1 POP CALLER PUSH20 0xFFFFFFFFFFFFFFFFFFFFFFFFFFFFFFFFFFFFFFFF AND DUP3 PUSH20 0xFFFFFFFFFFFFFFFFFFFFFFFFFFFFFFFFFFFFFFFF AND SUB PUSH2 0x6E3 JUMPI PUSH1 0x40 MLOAD PUSH32 0x8C379A000000000000000000000000000000000000000000000000000000000 DUP2 MSTORE PUSH1 0x4 ADD PUSH2 0x6DA SWAP1 PUSH2 0x1566 JUMP JUMPDEST PUSH1 0x40 MLOAD DUP1 SWAP2 SUB SWAP1 REVERT JUMPDEST JUMPDEST PUSH0 PUSH20 0xFFFFFFFFFFFFFFFFFFFFFFFFFFFFFFFFFFFFFFFF AND PUSH1 0xC PUSH0 DUP5 PUSH20 0xFFFFFFFFFFFFFFFFFFFFFFFFFFFFFFFFFFFFFFFF AND PUSH20 0xFFFFFFFFFFFFFFFFFFFFFFFFFFFFFFFFFFFFFFFF AND DUP2 MSTORE PUSH1 0x20 ADD SWAP1 DUP2 MSTORE PUSH1 0x20 ADD PUSH0 KECCAK256 PUSH0 ADD PUSH1 0x5 SWAP1 SLOAD SWAP1 PUSH2 0x100 EXP SWAP1 DIV PUSH20 0xFFFFFFFFFFFFFFFFFFFFFFFFFFFFFFFFFFFFFFFF AND PUSH20 0xFFFFFFFFFFFFFFFFFFFFFFFFFFFFFFFFFFFFFFFF AND EQ PUSH2 0x84B JUMPI PUSH1 0xC PUSH0 DUP4 PUSH20 0xFFFFFFFFFFFFFFFFFFFFFFFFFFFFFFFFFFFFFFFF AND PUSH20 0xFFFFFFFFFFFFFFFFFFFFFFFFFFFFFFFFFFFFFFFF AND DUP2 MSTORE PUSH1 0x20 ADD SWAP1 DUP2 MSTORE PUSH1 0x20 ADD PUSH0 KECCAK256 PUSH0 ADD PUSH1 0x5 SWAP1 SLOAD SWAP1 PUSH2 0x100 EXP SWAP1 DIV PUSH20 0xFFFFFFFFFFFFFFFFFFFFFFFFFFFFFFFFFFFFFFFF AND SWAP2 POP CALLER PUSH20 0xFFFFFFFFFFFFFFFFFFFFFFFFFFFFFFFFFFFFFFFF AND DUP3 PUSH20 0xFFFFFFFFFFFFFFFFFFFFFFFFFFFFFFFFFFFFFFFF AND SUB PUSH2 0x846 JUMPI PUSH1 0x40 MLOAD PUSH32 0x8C379A000000000000000000000000000000000000000000000000000000000 DUP2 MSTORE PUSH1 0x4 ADD PUSH2 0x83D SWAP1 PUSH2 0x15CE JUMP JUMPDEST PUSH1 0x40 MLOAD DUP1 SWAP2 SUB SWAP1 REVERT JUMPDEST PUSH2 0x6E4 JUMP JUMPDEST PUSH1 0x1 DUP2 PUSH0 ADD PUSH1 0x4 PUSH2 0x100 EXP DUP2 SLOAD DUP2 PUSH1 0xFF MUL NOT AND SWAP1 DUP4 ISZERO ISZERO MUL OR SWAP1 SSTORE POP DUP1 PUSH0 ADD PUSH0 SWAP1 SLOAD SWAP1 PUSH2 0x100 EXP SWAP1 DIV PUSH2 0xFFFF AND PUSH0 PUSH1 0x1 ADD PUSH1 0x2 DUP3 DUP3 DUP3 SWAP1 SLOAD SWAP1 PUSH2 0x100 EXP SWAP1 DIV PUSH2 0xFFFF AND PUSH2 0x898 SWAP2 SWAP1 PUSH2 0x14E7 JUMP JUMPDEST SWAP3 POP PUSH2 0x100 EXP DUP2 SLOAD DUP2 PUSH2 0xFFFF MUL NOT AND SWAP1 DUP4 PUSH2 0xFFFF AND MUL OR SWAP1 SSTORE POP DUP2 DUP2 PUSH0 ADD PUSH1 0x5 PUSH2 0x100 EXP DUP2 SLOAD DUP2 PUSH20 0xFFFFFFFFFFFFFFFFFFFFFFFFFFFFFFFFFFFFFFFF MUL NOT AND SWAP1 DUP4 PUSH20 0xFFFFFFFFFFFFFFFFFFFFFFFFFFFFFFFFFFFFFFFF AND MUL OR SWAP1 SSTORE POP PUSH0 PUSH1 0xC PUSH0 DUP5 PUSH20 0xFFFFFFFFFFFFFFFFFFFFFFFFFFFFFFFFFFFFFFFF AND PUSH20 0xFFFFFFFFFFFFFFFFFFFFFFFFFFFFFFFFFFFFFFFF AND DUP2 MSTORE PUSH1 0x20 ADD SWAP1 DUP2 MSTORE PUSH1 0x20 ADD PUSH0 KECCAK256 SWAP1 POP DUP1 PUSH0 ADD PUSH1 0x4 SWAP1 SLOAD SWAP1 PUSH2 0x100 EXP SWAP1 DIV PUSH1 0xFF AND ISZERO PUSH2 0x9B5 JUMPI DUP2 PUSH0 ADD PUSH1 0x2 SWAP1 SLOAD SWAP1 PUSH2 0x100 EXP SWAP1 DIV PUSH2 0xFFFF AND DUP3 PUSH0 ADD PUSH0 SWAP1 SLOAD SWAP1 PUSH2 0x100 EXP SWAP1 DIV PUSH2 0xFFFF AND PUSH2 0x977 SWAP2 SWAP1 PUSH2 0x14E7 JUMP JUMPDEST PUSH0 PUSH1 0x1 ADD PUSH0 DUP3 DUP3 DUP3 SWAP1 SLOAD SWAP1 PUSH2 0x100 EXP SWAP1 DIV PUSH2 0xFFFF AND PUSH2 0x996 SWAP2 SWAP1 PUSH2 0x14E7 JUMP JUMPDEST SWAP3 POP PUSH2 0x100 EXP DUP2 SLOAD DUP2 PUSH2 0xFFFF MUL NOT AND SWAP1 DUP4 PUSH2 0xFFFF AND MUL OR SWAP1 SSTORE POP PUSH2 0xA1C JUMP JUMPDEST DUP2 PUSH0 ADD PUSH1 0x2 SWAP1 SLOAD SWAP1 PUSH2 0x100 EXP SWAP1 DIV PUSH2 0xFFFF AND DUP3 PUSH0 ADD PUSH0 SWAP1 SLOAD SWAP1 PUSH2 0x100 EXP SWAP1 DIV PUSH2 0xFFFF AND PUSH2 0x9E2 SWAP2 SWAP1 PUSH2 0x14E7 JUMP JUMPDEST DUP2 PUSH0 ADD PUSH1 0x2 DUP3 DUP3 DUP3 SWAP1 SLOAD SWAP1 PUSH2 0x100 EXP SWAP1 DIV PUSH2 0xFFFF AND PUSH2 0xA01 SWAP2 SWAP1 PUSH2 0x14E7 JUMP JUMPDEST SWAP3 POP PUSH2 0x100 EXP DUP2 SLOAD DUP2 PUSH2 0xFFFF MUL NOT AND SWAP1 DUP4 PUSH2 0xFFFF AND MUL OR SWAP1 SSTORE POP JUMPDEST POP POP POP JUMP JUMPDEST PUSH0 DUP1 PUSH0 ADD SLOAD SWAP1 DUP1 PUSH1 0x1 ADD PUSH0 SWAP1 SLOAD SWAP1 PUSH2 0x100 EXP SWAP1 DIV PUSH2 0xFFFF AND SWAP1 DUP1 PUSH1 0x1 ADD PUSH1 0x2 SWAP1 SLOAD SWAP1 PUSH2 0x100 EXP SWAP1 DIV PUSH2 0xFFFF AND SWAP1 POP DUP4 JUMP JUMPDEST PUSH0 DUP1 PUSH0 DUP1 PUSH1 0x2 PUSH0 ADD PUSH0 SWAP1 SLOAD SWAP1 PUSH2 0x100 EXP SWAP1 DIV PUSH2 0xFFFF AND PUSH1 0x2 PUSH0 ADD PUSH1 0x2 SWAP1 SLOAD SWAP1 PUSH2 0x100 EXP SWAP1 DIV PUSH4 0xFFFFFFFF AND PUSH1 0x2 PUSH0 ADD PUSH1 0x6 SWAP1 SLOAD SWAP1 PUSH2 0x100 EXP SWAP1 DIV PUSH6 0xFFFFFFFFFFFF AND PUSH1 0x2 PUSH0 ADD PUSH1 0xC SWAP1 SLOAD SWAP1 PUSH2 0x100 EXP SWAP1 DIV PUSH6 0xFFFFFFFFFFFF AND SWAP4 POP SWAP4 POP SWAP4 POP SWAP4 POP SWAP1 SWAP2 SWAP3 SWAP4 JUMP JUMPDEST PUSH1 0x60 DUP1 PUSH0 DUP1 PUSH1 0x4 PUSH0 ADD PUSH1 0x4 PUSH1 0x1 ADD PUSH1 0x4 PUSH1 0x2 ADD SLOAD PUSH1 0x4 PUSH1 0x3 ADD PUSH0 SWAP1 SLOAD SWAP1 PUSH2 0x100 EXP SWAP1 DIV PUSH20 0xFFFFFFFFFFFFFFFFFFFFFFFFFFFFFFFFFFFFFFFF AND DUP4 DUP1 SLOAD PUSH2 0xAFE SWAP1 PUSH2 0x1619 JUMP JUMPDEST DUP1 PUSH1 0x1F ADD PUSH1 0x20 DUP1 SWAP2 DIV MUL PUSH1 0x20 ADD PUSH1 0x40 MLOAD SWAP1 DUP2 ADD PUSH1 0x40 MSTORE DUP1 SWAP3 SWAP2 SWAP1 DUP2 DUP2 MSTORE PUSH1 0x20 ADD DUP3 DUP1 SLOAD PUSH2 0xB2A SWAP1 PUSH2 0x1619 JUMP JUMPDEST DUP1 ISZERO PUSH2 0xB75 JUMPI DUP1 PUSH1 0x1F LT PUSH2 0xB4C JUMPI PUSH2 0x100 DUP1 DUP4 SLOAD DIV MUL DUP4 MSTORE SWAP2 PUSH1 0x20 ADD SWAP2 PUSH2 0xB75 JUMP JUMPDEST DUP3 ADD SWAP2 SWAP1 PUSH0 MSTORE PUSH1 0x20 PUSH0 KECCAK256 SWAP1 JUMPDEST DUP2 SLOAD DUP2 MSTORE SWAP1 PUSH1 0x1 ADD SWAP1 PUSH1 0x20 ADD DUP1 DUP4 GT PUSH2 0xB58 JUMPI DUP3 SWAP1 SUB PUSH1 0x1F AND DUP3 ADD SWAP2 JUMPDEST POP POP POP POP POP SWAP4 POP DUP3 DUP1 SLOAD PUSH2 0xB88 SWAP1 PUSH2 0x1619 JUMP JUMPDEST DUP1 PUSH1 0x1F ADD PUSH1 0x20 DUP1 SWAP2 DIV MUL PUSH1 0x20 ADD PUSH1 0x40 MLOAD SWAP1 DUP2 ADD PUSH1 0x40 MSTORE DUP1 SWAP3 SWAP2 SWAP1 DUP2 DUP2 MSTORE PUSH1 0x20 ADD DUP3 DUP1 SLOAD PUSH2 0xBB4 SWAP1 PUSH2 0x1619 JUMP JUMPDEST DUP1 ISZERO PUSH2 0xBFF JUMPI DUP1 PUSH1 0x1F LT PUSH2 0xBD6 JUMPI PUSH2 0x100 DUP1 DUP4 SLOAD DIV MUL DUP4 MSTORE SWAP2 PUSH1 0x20 ADD SWAP2 PUSH2 0xBFF JUMP JUMPDEST DUP3 ADD SWAP2 SWAP1 PUSH0 MSTORE PUSH1 0x20 PUSH0 KECCAK256 SWAP1 JUMPDEST DUP2 SLOAD DUP2 MSTORE SWAP1 PUSH1 0x1 ADD SWAP1 PUSH1 0x20 ADD DUP1 DUP4 GT PUSH2 0xBE2 JUMPI DUP3 SWAP1 SUB PUSH1 0x1F AND DUP3 ADD SWAP2 JUMPDEST POP POP POP POP POP SWAP3 POP SWAP4 POP SWAP4 POP SWAP4 POP SWAP4 POP SWAP1 SWAP2 SWAP3 SWAP4 JUMP JUMPDEST PUSH0 SWAP1 JUMP JUMPDEST PUSH0 PUSH1 0x8 PUSH0 ADD PUSH0 SWAP1 SLOAD SWAP1 PUSH2 0x100 EXP SWAP1 DIV PUSH20 0xFFFFFFFFFFFFFFFFFFFFFFFFFFFFFFFFFFFFFFFF AND PUSH1 0x8 PUSH1 0x2 ADD SLOAD PUSH2 0xC4B PUSH2 0xCB8 JUMP JUMPDEST PUSH1 0x4 PUSH1 0x2 ADD SLOAD PUSH1 0x40 MLOAD PUSH1 0x20 ADD PUSH2 0xC64 SWAP5 SWAP4 SWAP3 SWAP2 SWAP1 PUSH2 0x1649 JUMP JUMPDEST PUSH1 0x40 MLOAD PUSH1 0x20 DUP2 DUP4 SUB SUB DUP2 MSTORE SWAP1 PUSH1 0x40 MSTORE DUP1 MLOAD SWAP1 PUSH1 0x20 ADD KECCAK256 PUSH0 SHR SWAP1 POP SWAP1 JUMP JUMPDEST PUSH0 DUP1 PUSH0 DUP1 PUSH0 ADD SLOAD PUSH0 PUSH1 0x1 ADD PUSH0 SWAP1 SLOAD SWAP1 PUSH2 0x100 EXP SWAP1 DIV PUSH2 0xFFFF AND PUSH0 PUSH1 0x1 ADD PUSH1 0x2 SWAP1 SLOAD SWAP1 PUSH2 0x100 EXP SWAP1 DIV PUSH2 0xFFFF AND SWAP3 POP SWAP3 POP SWAP3 POP SWAP1 SWAP2 SWAP3 JUMP JUMPDEST PUSH1 0x60 PUSH1 0x4 PUSH0 ADD PUSH1 0x40 MLOAD PUSH1 0x24 ADD PUSH1 0x40 MLOAD PUSH1 0x20 DUP2 DUP4 SUB SUB DUP2 MSTORE SWAP1 PUSH1 0x40 MSTORE SWAP1 PUSH1 0x40 MLOAD PUSH2 0xCE1 SWAP2 SWAP1 PUSH2 0x172F JUMP JUMPDEST PUSH1 0x40 MLOAD DUP1 SWAP2 SUB SWAP1 KECCAK256 PUSH28 0xFFFFFFFFFFFFFFFFFFFFFFFFFFFFFFFFFFFFFFFFFFFFFFFFFFFFFFFF NOT AND PUSH1 0x20 DUP3 ADD DUP1 MLOAD PUSH28 0xFFFFFFFFFFFFFFFFFFFFFFFFFFFFFFFFFFFFFFFFFFFFFFFFFFFFFFFF DUP4 DUP2 DUP4 AND OR DUP4 MSTORE POP POP POP POP SWAP1 POP SWAP1 JUMP JUMPDEST PUSH0 DUP1 TIMESTAMP SWAP1 POP PUSH1 0x3 SLOAD DUP2 PUSH6 0xFFFFFFFFFFFF AND GT PUSH2 0xD5B JUMPI PUSH1 0x1 SWAP2 POP POP PUSH2 0xEAB JUMP JUMPDEST PUSH1 0x2 PUSH0 ADD PUSH0 SWAP1 SLOAD SWAP1 PUSH2 0x100 EXP SWAP1 DIV PUSH2 0xFFFF AND PUSH2 0xFFFF AND PUSH0 PUSH1 0x1 ADD PUSH1 0x2 SWAP1 SLOAD SWAP1 PUSH2 0x100 EXP SWAP1 DIV PUSH2 0xFFFF AND PUSH2 0xFFFF AND LT ISZERO PUSH2 0xEA6 JUMPI PUSH1 0x2 PUSH0 ADD PUSH1 0xC SWAP1 SLOAD SWAP1 PUSH2 0x100 EXP SWAP1 DIV PUSH6 0xFFFFFFFFFFFF AND PUSH1 0x2 PUSH0 ADD PUSH1 0x2 SWAP1 SLOAD SWAP1 PUSH2 0x100 EXP SWAP1 DIV PUSH4 0xFFFFFFFF AND PUSH4 0xFFFFFFFF AND PUSH1 0x2 PUSH0 ADD PUSH1 0x6 SWAP1 SLOAD SWAP1 PUSH2 0x100 EXP SWAP1 DIV PUSH6 0xFFFFFFFFFFFF AND PUSH2 0xDE1 SWAP2 SWAP1 PUSH2 0x1745 JUMP JUMPDEST PUSH2 0xDEB SWAP2 SWAP1 PUSH2 0x1745 JUMP JUMPDEST PUSH6 0xFFFFFFFFFFFF AND DUP2 PUSH6 0xFFFFFFFFFFFF AND GT PUSH2 0xEA5 JUMPI PUSH1 0x2 PUSH0 ADD PUSH1 0xC SWAP1 SLOAD SWAP1 PUSH2 0x100 EXP SWAP1 DIV PUSH6 0xFFFFFFFFFFFF AND PUSH6 0xFFFFFFFFFFFF AND PUSH1 0x3 PUSH0 DUP3 DUP3 SLOAD PUSH2 0xE30 SWAP2 SWAP1 PUSH2 0x177E JUMP JUMPDEST SWAP3 POP POP DUP2 SWAP1 SSTORE POP ADDRESS PUSH20 0xFFFFFFFFFFFFFFFFFFFFFFFFFFFFFFFFFFFFFFFF AND PUSH32 0x500DE3B55E9F23C65D27E8E2EB29867B6B250C4219CEC100F4B441983C5D7D78 PUSH1 0x2 PUSH0 ADD PUSH1 0xC SWAP1 SLOAD SWAP1 PUSH2 0x100 EXP SWAP1 DIV PUSH6 0xFFFFFFFFFFFF AND PUSH1 0x40 MLOAD PUSH2 0xE93 SWAP2 SWAP1 PUSH2 0x1439 JUMP JUMPDEST PUSH1 0x40 MLOAD DUP1 SWAP2 SUB SWAP1 LOG2 PUSH1 0x1 SWAP2 POP POP PUSH2 0xEAB JUMP JUMPDEST JUMPDEST PUSH0 SWAP2 POP POP JUMPDEST SWAP1 JUMP JUMPDEST PUSH0 PUSH1 0x8 PUSH0 ADD PUSH0 SWAP1 SLOAD SWAP1 PUSH2 0x100 EXP SWAP1 DIV PUSH20 0xFFFFFFFFFFFFFFFFFFFFFFFFFFFFFFFFFFFFFFFF AND PUSH20 0xFFFFFFFFFFFFFFFFFFFFFFFFFFFFFFFFFFFFFFFF AND PUSH4 0x70A08231 CALLER PUSH1 0x40 MLOAD DUP3 PUSH4 0xFFFFFFFF AND PUSH1 0xE0 SHL DUP2 MSTORE PUSH1 0x4 ADD PUSH2 0xF0B SWAP2 SWAP1 PUSH2 0x17B1 JUMP JUMPDEST PUSH1 0x20 PUSH1 0x40 MLOAD DUP1 DUP4 SUB DUP2 DUP7 GAS STATICCALL ISZERO DUP1 ISZERO PUSH2 0xF26 JUMPI RETURNDATASIZE PUSH0 DUP1 RETURNDATACOPY RETURNDATASIZE PUSH0 REVERT JUMPDEST POP POP POP POP PUSH1 0x40 MLOAD RETURNDATASIZE PUSH1 0x1F NOT PUSH1 0x1F DUP3 ADD AND DUP3 ADD DUP1 PUSH1 0x40 MSTORE POP DUP2 ADD SWAP1 PUSH2 0xF4A SWAP2 SWAP1 PUSH2 0x17F4 JUMP JUMPDEST SWAP1 POP PUSH0 DUP2 PUSH2 0xFFFF AND GT ISZERO PUSH2 0xFB2 JUMPI DUP1 PUSH1 0xC PUSH0 CALLER PUSH20 0xFFFFFFFFFFFFFFFFFFFFFFFFFFFFFFFFFFFFFFFF AND PUSH20 0xFFFFFFFFFFFFFFFFFFFFFFFFFFFFFFFFFFFFFFFF AND DUP2 MSTORE PUSH1 0x20 ADD SWAP1 DUP2 MSTORE PUSH1 0x20 ADD PUSH0 KECCAK256 PUSH0 ADD PUSH0 PUSH2 0x100 EXP DUP2 SLOAD DUP2 PUSH2 0xFFFF MUL NOT AND SWAP1 DUP4 PUSH2 0xFFFF AND MUL OR SWAP1 SSTORE POP JUMPDEST PUSH0 PUSH1 0xC PUSH0 CALLER PUSH20 0xFFFFFFFFFFFFFFFFFFFFFFFFFFFFFFFFFFFFFFFF AND PUSH20 0xFFFFFFFFFFFFFFFFFFFFFFFFFFFFFFFFFFFFFFFF AND DUP2 MSTORE PUSH1 0x20 ADD SWAP1 DUP2 MSTORE PUSH1 0x20 ADD PUSH0 KECCAK256 PUSH0 ADD PUSH0 SWAP1 SLOAD SWAP1 PUSH2 0x100 EXP SWAP1 DIV PUSH2 0xFFFF AND PUSH2 0xFFFF AND EQ ISZERO DUP1 PUSH2 0x1062 JUMPI POP PUSH0 PUSH1 0xC PUSH0 CALLER PUSH20 0xFFFFFFFFFFFFFFFFFFFFFFFFFFFFFFFFFFFFFFFF AND PUSH20 0xFFFFFFFFFFFFFFFFFFFFFFFFFFFFFFFFFFFFFFFF AND DUP2 MSTORE PUSH1 0x20 ADD SWAP1 DUP2 MSTORE PUSH1 0x20 ADD PUSH0 KECCAK256 PUSH0 ADD PUSH1 0x2 SWAP1 SLOAD SWAP1 PUSH2 0x100 EXP SWAP1 DIV PUSH2 0xFFFF AND PUSH2 0xFFFF AND EQ ISZERO JUMPDEST PUSH2 0x10A1 JUMPI PUSH1 0x40 MLOAD PUSH32 0x8C379A000000000000000000000000000000000000000000000000000000000 DUP2 MSTORE PUSH1 0x4 ADD PUSH2 0x1098 SWAP1 PUSH2 0x1869 JUMP JUMPDEST PUSH1 0x40 MLOAD DUP1 SWAP2 SUB SWAP1 REVERT JUMPDEST POP JUMP JUMPDEST PUSH0 PUSH20 0xFFFFFFFFFFFFFFFFFFFFFFFFFFFFFFFFFFFFFFFF DUP3 AND SWAP1 POP SWAP2 SWAP1 POP JUMP JUMPDEST PUSH0 PUSH2 0x10CD DUP3 PUSH2 0x10A4 JUMP JUMPDEST SWAP1 POP SWAP2 SWAP1 POP JUMP JUMPDEST PUSH2 0x10DD DUP2 PUSH2 0x10C3 JUMP JUMPDEST DUP3 MSTORE POP POP JUMP JUMPDEST PUSH0 DUP2 SWAP1 POP SWAP2 SWAP1 POP JUMP JUMPDEST PUSH2 0x10F5 DUP2 PUSH2 0x10E3 JUMP JUMPDEST DUP3 MSTORE POP POP JUMP JUMPDEST PUSH0 PUSH1 0x60 DUP3 ADD SWAP1 POP PUSH2 0x110E PUSH0 DUP4 ADD DUP7 PUSH2 0x10D4 JUMP JUMPDEST PUSH2 0x111B PUSH1 0x20 DUP4 ADD DUP6 PUSH2 0x10D4 JUMP JUMPDEST PUSH2 0x1128 PUSH1 0x40 DUP4 ADD DUP5 PUSH2 0x10EC JUMP JUMPDEST SWAP5 SWAP4 POP POP POP POP JUMP JUMPDEST PUSH0 DUP1 REVERT JUMPDEST PUSH0 DUP2 ISZERO ISZERO SWAP1 POP SWAP2 SWAP1 POP JUMP JUMPDEST PUSH2 0x1148 DUP2 PUSH2 0x1134 JUMP JUMPDEST DUP2 EQ PUSH2 0x1152 JUMPI PUSH0 DUP1 REVERT JUMPDEST POP JUMP JUMPDEST PUSH0 DUP2 CALLDATALOAD SWAP1 POP PUSH2 0x1163 DUP2 PUSH2 0x113F JUMP JUMPDEST SWAP3 SWAP2 POP POP JUMP JUMPDEST PUSH0 PUSH1 0x20 DUP3 DUP5 SUB SLT ISZERO PUSH2 0x117E JUMPI PUSH2 0x117D PUSH2 0x1130 JUMP JUMPDEST JUMPDEST PUSH0 PUSH2 0x118B DUP5 DUP3 DUP6 ADD PUSH2 0x1155 JUMP JUMPDEST SWAP2 POP POP SWAP3 SWAP2 POP POP JUMP JUMPDEST PUSH2 0x119D DUP2 PUSH2 0x10C3 JUMP JUMPDEST DUP2 EQ PUSH2 0x11A7 JUMPI PUSH0 DUP1 REVERT JUMPDEST POP JUMP JUMPDEST PUSH0 DUP2 CALLDATALOAD SWAP1 POP PUSH2 0x11B8 DUP2 PUSH2 0x1194 JUMP JUMPDEST SWAP3 SWAP2 POP POP JUMP JUMPDEST PUSH0 PUSH1 0x20 DUP3 DUP5 SUB SLT ISZERO PUSH2 0x11D3 JUMPI PUSH2 0x11D2 PUSH2 0x1130 JUMP JUMPDEST JUMPDEST PUSH0 PUSH2 0x11E0 DUP5 DUP3 DUP6 ADD PUSH2 0x11AA JUMP JUMPDEST SWAP2 POP POP SWAP3 SWAP2 POP POP JUMP JUMPDEST PUSH0 DUP2 SWAP1 POP SWAP2 SWAP1 POP JUMP JUMPDEST PUSH2 0x11FB DUP2 PUSH2 0x11E9 JUMP JUMPDEST DUP3 MSTORE POP POP JUMP JUMPDEST PUSH0 PUSH2 0xFFFF DUP3 AND SWAP1 POP SWAP2 SWAP1 POP JUMP JUMPDEST PUSH2 0x1217 DUP2 PUSH2 0x1201 JUMP JUMPDEST DUP3 MSTORE POP POP JUMP JUMPDEST PUSH0 PUSH1 0x60 DUP3 ADD SWAP1 POP PUSH2 0x1230 PUSH0 DUP4 ADD DUP7 PUSH2 0x11F2 JUMP JUMPDEST PUSH2 0x123D PUSH1 0x20 DUP4 ADD DUP6 PUSH2 0x120E JUMP JUMPDEST PUSH2 0x124A PUSH1 0x40 DUP4 ADD DUP5 PUSH2 0x120E JUMP JUMPDEST SWAP5 SWAP4 POP POP POP POP JUMP JUMPDEST PUSH0 PUSH4 0xFFFFFFFF DUP3 AND SWAP1 POP SWAP2 SWAP1 POP JUMP JUMPDEST PUSH2 0x126A DUP2 PUSH2 0x1252 JUMP JUMPDEST DUP3 MSTORE POP POP JUMP JUMPDEST PUSH0 PUSH6 0xFFFFFFFFFFFF DUP3 AND SWAP1 POP SWAP2 SWAP1 POP JUMP JUMPDEST PUSH2 0x128A DUP2 PUSH2 0x1270 JUMP JUMPDEST DUP3 MSTORE POP POP JUMP JUMPDEST PUSH0 PUSH1 0x80 DUP3 ADD SWAP1 POP PUSH2 0x12A3 PUSH0 DUP4 ADD DUP8 PUSH2 0x120E JUMP JUMPDEST PUSH2 0x12B0 PUSH1 0x20 DUP4 ADD DUP7 PUSH2 0x1261 JUMP JUMPDEST PUSH2 0x12BD PUSH1 0x40 DUP4 ADD DUP6 PUSH2 0x1281 JUMP JUMPDEST PUSH2 0x12CA PUSH1 0x60 DUP4 ADD DUP5 PUSH2 0x1281 JUMP JUMPDEST SWAP6 SWAP5 POP POP POP POP POP JUMP JUMPDEST PUSH0 DUP2 MLOAD SWAP1 POP SWAP2 SWAP1 POP JUMP JUMPDEST PUSH0 DUP3 DUP3 MSTORE PUSH1 0x20 DUP3 ADD SWAP1 POP SWAP3 SWAP2 POP POP JUMP JUMPDEST PUSH0 JUMPDEST DUP4 DUP2 LT ISZERO PUSH2 0x130A JUMPI DUP1 DUP3 ADD MLOAD DUP2 DUP5 ADD MSTORE PUSH1 0x20 DUP2 ADD SWAP1 POP PUSH2 0x12EF JUMP JUMPDEST PUSH0 DUP5 DUP5 ADD MSTORE POP POP POP POP JUMP JUMPDEST PUSH0 PUSH1 0x1F NOT PUSH1 0x1F DUP4 ADD AND SWAP1 POP SWAP2 SWAP1 POP JUMP JUMPDEST PUSH0 PUSH2 0x132F DUP3 PUSH2 0x12D3 JUMP JUMPDEST PUSH2 0x1339 DUP2 DUP6 PUSH2 0x12DD JUMP JUMPDEST SWAP4 POP PUSH2 0x1349 DUP2 DUP6 PUSH1 0x20 DUP7 ADD PUSH2 0x12ED JUMP JUMPDEST PUSH2 0x1352 DUP2 PUSH2 0x1315 JUMP JUMPDEST DUP5 ADD SWAP2 POP POP SWAP3 SWAP2 POP POP JUMP JUMPDEST PUSH0 PUSH1 0x80 DUP3 ADD SWAP1 POP DUP2 DUP2 SUB PUSH0 DUP4 ADD MSTORE PUSH2 0x1375 DUP2 DUP8 PUSH2 0x1325 JUMP JUMPDEST SWAP1 POP DUP2 DUP2 SUB PUSH1 0x20 DUP4 ADD MSTORE PUSH2 0x1389 DUP2 DUP7 PUSH2 0x1325 JUMP JUMPDEST SWAP1 POP PUSH2 0x1398 PUSH1 0x40 DUP4 ADD DUP6 PUSH2 0x11F2 JUMP JUMPDEST PUSH2 0x13A5 PUSH1 0x60 DUP4 ADD DUP5 PUSH2 0x10D4 JUMP JUMPDEST SWAP6 SWAP5 POP POP POP POP POP JUMP JUMPDEST PUSH0 PUSH1 0x20 DUP3 ADD SWAP1 POP PUSH2 0x13C1 PUSH0 DUP4 ADD DUP5 PUSH2 0x10EC JUMP JUMPDEST SWAP3 SWAP2 POP POP JUMP JUMPDEST PUSH0 DUP2 MLOAD SWAP1 POP SWAP2 SWAP1 POP JUMP JUMPDEST PUSH0 DUP3 DUP3 MSTORE PUSH1 0x20 DUP3 ADD SWAP1 POP SWAP3 SWAP2 POP POP JUMP JUMPDEST PUSH0 PUSH2 0x13EB DUP3 PUSH2 0x13C7 JUMP JUMPDEST PUSH2 0x13F5 DUP2 DUP6 PUSH2 0x13D1 JUMP JUMPDEST SWAP4 POP PUSH2 0x1405 DUP2 DUP6 PUSH1 0x20 DUP7 ADD PUSH2 0x12ED JUMP JUMPDEST PUSH2 0x140E DUP2 PUSH2 0x1315 JUMP JUMPDEST DUP5 ADD SWAP2 POP POP SWAP3 SWAP2 POP POP JUMP JUMPDEST PUSH0 PUSH1 0x20 DUP3 ADD SWAP1 POP DUP2 DUP2 SUB PUSH0 DUP4 ADD MSTORE PUSH2 0x1431 DUP2 DUP5 PUSH2 0x13E1 JUMP JUMPDEST SWAP1 POP SWAP3 SWAP2 POP POP JUMP JUMPDEST PUSH0 PUSH1 0x20 DUP3 ADD SWAP1 POP PUSH2 0x144C PUSH0 DUP4 ADD DUP5 PUSH2 0x1281 JUMP JUMPDEST SWAP3 SWAP2 POP POP JUMP JUMPDEST PUSH32 0x416C726561647920766F7465642E000000000000000000000000000000000000 PUSH0 DUP3 ADD MSTORE POP JUMP JUMPDEST PUSH0 PUSH2 0x1486 PUSH1 0xE DUP4 PUSH2 0x12DD JUMP JUMPDEST SWAP2 POP PUSH2 0x1491 DUP3 PUSH2 0x1452 JUMP JUMPDEST PUSH1 0x20 DUP3 ADD SWAP1 POP SWAP2 SWAP1 POP JUMP JUMPDEST PUSH0 PUSH1 0x20 DUP3 ADD SWAP1 POP DUP2 DUP2 SUB PUSH0 DUP4 ADD MSTORE PUSH2 0x14B3 DUP2 PUSH2 0x147A JUMP JUMPDEST SWAP1 POP SWAP2 SWAP1 POP JUMP JUMPDEST PUSH32 0x4E487B7100000000000000000000000000000000000000000000000000000000 PUSH0 MSTORE PUSH1 0x11 PUSH1 0x4 MSTORE PUSH1 0x24 PUSH0 REVERT JUMPDEST PUSH0 PUSH2 0x14F1 DUP3 PUSH2 0x1201 JUMP JUMPDEST SWAP2 POP PUSH2 0x14FC DUP4 PUSH2 0x1201 JUMP JUMPDEST SWAP3 POP DUP3 DUP3 ADD SWAP1 POP PUSH2 0xFFFF DUP2 GT ISZERO PUSH2 0x1516 JUMPI PUSH2 0x1515 PUSH2 0x14BA JUMP JUMPDEST JUMPDEST SWAP3 SWAP2 POP POP JUMP JUMPDEST PUSH32 0x53656C662D64656C65676174696F6E20697320646973616C6C6F7765642E0000 PUSH0 DUP3 ADD MSTORE POP JUMP JUMPDEST PUSH0 PUSH2 0x1550 PUSH1 0x1E DUP4 PUSH2 0x12DD JUMP JUMPDEST SWAP2 POP PUSH2 0x155B DUP3 PUSH2 0x151C JUMP JUMPDEST PUSH1 0x20 DUP3 ADD SWAP1 POP SWAP2 SWAP1 POP JUMP JUMPDEST PUSH0 PUSH1 0x20 DUP3 ADD SWAP1 POP DUP2 DUP2 SUB PUSH0 DUP4 ADD MSTORE PUSH2 0x157D DUP2 PUSH2 0x1544 JUMP JUMPDEST SWAP1 POP SWAP2 SWAP1 POP JUMP JUMPDEST PUSH32 0x466F756E64206C6F6F7020696E2064656C65676174696F6E2E00000000000000 PUSH0 DUP3 ADD MSTORE POP JUMP JUMPDEST PUSH0 PUSH2 0x15B8 PUSH1 0x19 DUP4 PUSH2 0x12DD JUMP JUMPDEST SWAP2 POP PUSH2 0x15C3 DUP3 PUSH2 0x1584 JUMP JUMPDEST PUSH1 0x20 DUP3 ADD SWAP1 POP SWAP2 SWAP1 POP JUMP JUMPDEST PUSH0 PUSH1 0x20 DUP3 ADD SWAP1 POP DUP2 DUP2 SUB PUSH0 DUP4 ADD MSTORE PUSH2 0x15E5 DUP2 PUSH2 0x15AC JUMP JUMPDEST SWAP1 POP SWAP2 SWAP1 POP JUMP JUMPDEST PUSH32 0x4E487B7100000000000000000000000000000000000000000000000000000000 PUSH0 MSTORE PUSH1 0x22 PUSH1 0x4 MSTORE PUSH1 0x24 PUSH0 REVERT JUMPDEST PUSH0 PUSH1 0x2 DUP3 DIV SWAP1 POP PUSH1 0x1 DUP3 AND DUP1 PUSH2 0x1630 JUMPI PUSH1 0x7F DUP3 AND SWAP2 POP JUMPDEST PUSH1 0x20 DUP3 LT DUP2 SUB PUSH2 0x1643 JUMPI PUSH2 0x1642 PUSH2 0x15EC JUMP JUMPDEST JUMPDEST POP SWAP2 SWAP1 POP JUMP JUMPDEST PUSH0 PUSH1 0x80 DUP3 ADD SWAP1 POP PUSH2 0x165C PUSH0 DUP4 ADD DUP8 PUSH2 0x10D4 JUMP JUMPDEST PUSH2 0x1669 PUSH1 0x20 DUP4 ADD DUP7 PUSH2 0x10EC JUMP JUMPDEST DUP2 DUP2 SUB PUSH1 0x40 DUP4 ADD MSTORE PUSH2 0x167B DUP2 DUP6 PUSH2 0x13E1 JUMP JUMPDEST SWAP1 POP PUSH2 0x168A PUSH1 0x60 DUP4 ADD DUP5 PUSH2 0x11F2 JUMP JUMPDEST SWAP6 SWAP5 POP POP POP POP POP JUMP JUMPDEST PUSH0 DUP2 SWAP1 POP SWAP3 SWAP2 POP POP JUMP JUMPDEST PUSH0 DUP2 SWAP1 POP DUP2 PUSH0 MSTORE PUSH1 0x20 PUSH0 KECCAK256 SWAP1 POP SWAP2 SWAP1 POP JUMP JUMPDEST PUSH0 DUP2 SLOAD PUSH2 0x16BB DUP2 PUSH2 0x1619 JUMP JUMPDEST PUSH2 0x16C5 DUP2 DUP7 PUSH2 0x1693 JUMP JUMPDEST SWAP5 POP PUSH1 0x1 DUP3 AND PUSH0 DUP2 EQ PUSH2 0x16DF JUMPI PUSH1 0x1 DUP2 EQ PUSH2 0x16F4 JUMPI PUSH2 0x1726 JUMP JUMPDEST PUSH1 0xFF NOT DUP4 AND DUP7 MSTORE DUP2 ISZERO ISZERO DUP3 MUL DUP7 ADD SWAP4 POP PUSH2 0x1726 JUMP JUMPDEST PUSH2 0x16FD DUP6 PUSH2 0x169D JUMP JUMPDEST PUSH0 JUMPDEST DUP4 DUP2 LT ISZERO PUSH2 0x171E JUMPI DUP2 SLOAD DUP2 DUP10 ADD MSTORE PUSH1 0x1 DUP3 ADD SWAP2 POP PUSH1 0x20 DUP2 ADD SWAP1 POP PUSH2 0x16FF JUMP JUMPDEST DUP4 DUP9 ADD SWAP6 POP POP POP JUMPDEST POP POP POP SWAP3 SWAP2 POP POP JUMP JUMPDEST PUSH0 PUSH2 0x173A DUP3 DUP5 PUSH2 0x16AF JUMP JUMPDEST SWAP2 POP DUP2 SWAP1 POP SWAP3 SWAP2 POP POP JUMP JUMPDEST PUSH0 PUSH2 0x174F DUP3 PUSH2 0x1270 JUMP JUMPDEST SWAP2 POP PUSH2 0x175A DUP4 PUSH2 0x1270 JUMP JUMPDEST SWAP3 POP DUP3 DUP3 ADD SWAP1 POP PUSH6 0xFFFFFFFFFFFF DUP2 GT ISZERO PUSH2 0x1778 JUMPI PUSH2 0x1777 PUSH2 0x14BA JUMP JUMPDEST JUMPDEST SWAP3 SWAP2 POP POP JUMP JUMPDEST PUSH0 PUSH2 0x1788 DUP3 PUSH2 0x10E3 JUMP JUMPDEST SWAP2 POP PUSH2 0x1793 DUP4 PUSH2 0x10E3 JUMP JUMPDEST SWAP3 POP DUP3 DUP3 ADD SWAP1 POP DUP1 DUP3 GT ISZERO PUSH2 0x17AB JUMPI PUSH2 0x17AA PUSH2 0x14BA JUMP JUMPDEST JUMPDEST SWAP3 SWAP2 POP POP JUMP JUMPDEST PUSH0 PUSH1 0x20 DUP3 ADD SWAP1 POP PUSH2 0x17C4 PUSH0 DUP4 ADD DUP5 PUSH2 0x10D4 JUMP JUMPDEST SWAP3 SWAP2 POP POP JUMP JUMPDEST PUSH2 0x17D3 DUP2 PUSH2 0x1201 JUMP JUMPDEST DUP2 EQ PUSH2 0x17DD JUMPI PUSH0 DUP1 REVERT JUMPDEST POP JUMP JUMPDEST PUSH0 DUP2 MLOAD SWAP1 POP PUSH2 0x17EE DUP2 PUSH2 0x17CA JUMP JUMPDEST SWAP3 SWAP2 POP POP JUMP JUMPDEST PUSH0 PUSH1 0x20 DUP3 DUP5 SUB SLT ISZERO PUSH2 0x1809 JUMPI PUSH2 0x1808 PUSH2 0x1130 JUMP JUMPDEST JUMPDEST PUSH0 PUSH2 0x1816 DUP5 DUP3 DUP6 ADD PUSH2 0x17E0 JUMP JUMPDEST SWAP2 POP POP SWAP3 SWAP2 POP POP JUMP JUMPDEST PUSH32 0x486173206E6F20726967687420746F20766F7465000000000000000000000000 PUSH0 DUP3 ADD MSTORE POP JUMP JUMPDEST PUSH0 PUSH2 0x1853 PUSH1 0x14 DUP4 PUSH2 0x12DD JUMP JUMPDEST SWAP2 POP PUSH2 0x185E DUP3 PUSH2 0x181F JUMP JUMPDEST PUSH1 0x20 DUP3 ADD SWAP1 POP SWAP2 SWAP1 POP JUMP JUMPDEST PUSH0 PUSH1 0x20 DUP3 ADD SWAP1 POP DUP2 DUP2 SUB PUSH0 DUP4 ADD MSTORE PUSH2 0x1880 DUP2 PUSH2 0x1847 JUMP JUMPDEST SWAP1 POP SWAP2 SWAP1 POP JUMP INVALID LOG2 PUSH5 0x6970667358 0x22 SLT KECCAK256 0xCA CREATE PUSH29 0x2F3E369CE1807D593DEFA371ED4F640C2D1A2A5DE34F3B03D10BB5A6F3 PUSH5 0x736F6C6343 STOP ADDMOD EQ STOP CALLER "
				},
				"gasEstimates": {
					"creation": {
						"codeDepositCost": "1266600",
						"executionCost": "infinite",
						"totalCost": "infinite"
					},
					"external": {
						"_ballotParam()": "infinite",
						"delegate(address)": "infinite",
						"getBallotCallData()": "infinite",
						"getBallotCallDataParams()": "infinite",
						"getBallotParam()": "infinite",
						"getBallotProposalId()": "infinite",
						"getBallotProposalParams()": "infinite",
						"getBalootVotingParams()": "infinite",
						"vote(bool)": "infinite",
						"voteCountProposal()": "346"
					},
					"internal": {
						"_votersPermission()": "infinite",
						"isVotingDeadLine()": "infinite"
					}
				},
				"methodIdentifiers": {
					"_ballotParam()": "81c4787b",
					"delegate(address)": "5c19a95c",
					"getBallotCallData()": "f8b1b08a",
					"getBallotCallDataParams()": "bc33c7d7",
					"getBallotParam()": "ee26a38a",
					"getBallotProposalId()": "ec5bf07b",
					"getBallotProposalParams()": "4731ca2b",
					"getBalootVotingParams()": "b3a05246",
					"vote(bool)": "4b9f5c98",
					"voteCountProposal()": "d4564d16"
				}
			},
			"storageLayout": {
				"storage": [
					{
						"astId": 55,
						"contract": "contracts/3_Ballot.sol:BallotTCN",
						"label": "_ballotParam",
						"offset": 0,
						"slot": "0",
						"type": "t_struct(BALLOtPARAM)52_storage"
					},
					{
						"astId": 67,
						"contract": "contracts/3_Ballot.sol:BallotTCN",
						"label": "_votingParams",
						"offset": 0,
						"slot": "2",
						"type": "t_struct(VOTINGPARAM)64_storage"
					},
					{
						"astId": 69,
						"contract": "contracts/3_Ballot.sol:BallotTCN",
						"label": "_deadLine",
						"offset": 0,
						"slot": "3",
						"type": "t_uint256"
					},
					{
						"astId": 81,
						"contract": "contracts/3_Ballot.sol:BallotTCN",
						"label": "_callDataParam",
						"offset": 0,
						"slot": "4",
						"type": "t_struct(CALLDATAPARAM)78_storage"
					},
					{
						"astId": 91,
						"contract": "contracts/3_Ballot.sol:BallotTCN",
						"label": "_proposalParams",
						"offset": 0,
						"slot": "8",
						"type": "t_struct(PROPOSALPARAM)88_storage"
					},
					{
						"astId": 95,
						"contract": "contracts/3_Ballot.sol:BallotTCN",
						"label": "_targetConnectors",
						"offset": 0,
						"slot": "11",
						"type": "t_mapping(t_address,t_address)"
					},
					{
						"astId": 100,
						"contract": "contracts/3_Ballot.sol:BallotTCN",
						"label": "_voters",
						"offset": 0,
						"slot": "12",
						"type": "t_mapping(t_address,t_struct(Voter)45_storage)"
					},
					{
						"astId": 106,
						"contract": "contracts/3_Ballot.sol:BallotTCN",
						"label": "_targetSociety",
						"offset": 0,
						"slot": "13",
						"type": "t_mapping(t_address,t_array(t_uint16)1201_storage)"
					}
				],
				"types": {
					"t_address": {
						"encoding": "inplace",
						"label": "address",
						"numberOfBytes": "20"
					},
					"t_array(t_uint16)1201_storage": {
						"base": "t_uint16",
						"encoding": "inplace",
						"label": "uint16[1201]",
						"numberOfBytes": "2432"
					},
					"t_bool": {
						"encoding": "inplace",
						"label": "bool",
						"numberOfBytes": "1"
					},
					"t_bytes32": {
						"encoding": "inplace",
						"label": "bytes32",
						"numberOfBytes": "32"
					},
					"t_mapping(t_address,t_address)": {
						"encoding": "mapping",
						"key": "t_address",
						"label": "mapping(address => address)",
						"numberOfBytes": "32",
						"value": "t_address"
					},
					"t_mapping(t_address,t_array(t_uint16)1201_storage)": {
						"encoding": "mapping",
						"key": "t_address",
						"label": "mapping(address => uint16[1201])",
						"numberOfBytes": "32",
						"value": "t_array(t_uint16)1201_storage"
					},
					"t_mapping(t_address,t_struct(Voter)45_storage)": {
						"encoding": "mapping",
						"key": "t_address",
						"label": "mapping(address => struct BallotTCN.Voter)",
						"numberOfBytes": "32",
						"value": "t_struct(Voter)45_storage"
					},
					"t_string_storage": {
						"encoding": "bytes",
						"label": "string",
						"numberOfBytes": "32"
					},
					"t_struct(BALLOtPARAM)52_storage": {
						"encoding": "inplace",
						"label": "struct BallotTCN.BALLOtPARAM",
						"members": [
							{
								"astId": 47,
								"contract": "contracts/3_Ballot.sol:BallotTCN",
								"label": "name",
								"offset": 0,
								"slot": "0",
								"type": "t_bytes32"
							},
							{
								"astId": 49,
								"contract": "contracts/3_Ballot.sol:BallotTCN",
								"label": "voteCount",
								"offset": 0,
								"slot": "1",
								"type": "t_uint16"
							},
							{
								"astId": 51,
								"contract": "contracts/3_Ballot.sol:BallotTCN",
								"label": "observed",
								"offset": 2,
								"slot": "1",
								"type": "t_uint16"
							}
						],
						"numberOfBytes": "64"
					},
					"t_struct(CALLDATAPARAM)78_storage": {
						"encoding": "inplace",
						"label": "struct BallotTCN.CALLDATAPARAM",
						"members": [
							{
								"astId": 71,
								"contract": "contracts/3_Ballot.sol:BallotTCN",
								"label": "signature",
								"offset": 0,
								"slot": "0",
								"type": "t_string_storage"
							},
							{
								"astId": 73,
								"contract": "contracts/3_Ballot.sol:BallotTCN",
								"label": "description",
								"offset": 0,
								"slot": "1",
								"type": "t_string_storage"
							},
							{
								"astId": 75,
								"contract": "contracts/3_Ballot.sol:BallotTCN",
								"label": "descriptionHash",
								"offset": 0,
								"slot": "2",
								"type": "t_bytes32"
							},
							{
								"astId": 77,
								"contract": "contracts/3_Ballot.sol:BallotTCN",
								"label": "governance",
								"offset": 0,
								"slot": "3",
								"type": "t_address"
							}
						],
						"numberOfBytes": "128"
					},
					"t_struct(PROPOSALPARAM)88_storage": {
						"encoding": "inplace",
						"label": "struct BallotTCN.PROPOSALPARAM",
						"members": [
							{
								"astId": 83,
								"contract": "contracts/3_Ballot.sol:BallotTCN",
								"label": "target",
								"offset": 0,
								"slot": "0",
								"type": "t_address"
							},
							{
								"astId": 85,
								"contract": "contracts/3_Ballot.sol:BallotTCN",
								"label": "proposer",
								"offset": 0,
								"slot": "1",
								"type": "t_address"
							},
							{
								"astId": 87,
								"contract": "contracts/3_Ballot.sol:BallotTCN",
								"label": "value",
								"offset": 0,
								"slot": "2",
								"type": "t_uint256"
							}
						],
						"numberOfBytes": "96"
					},
					"t_struct(VOTINGPARAM)64_storage": {
						"encoding": "inplace",
						"label": "struct BallotTCN.VOTINGPARAM",
						"members": [
							{
								"astId": 57,
								"contract": "contracts/3_Ballot.sol:BallotTCN",
								"label": "quorum",
								"offset": 0,
								"slot": "0",
								"type": "t_uint16"
							},
							{
								"astId": 59,
								"contract": "contracts/3_Ballot.sol:BallotTCN",
								"label": "voteDuration",
								"offset": 2,
								"slot": "0",
								"type": "t_uint32"
							},
							{
								"astId": 61,
								"contract": "contracts/3_Ballot.sol:BallotTCN",
								"label": "voteStart",
								"offset": 6,
								"slot": "0",
								"type": "t_uint48"
							},
							{
								"astId": 63,
								"contract": "contracts/3_Ballot.sol:BallotTCN",
								"label": "etaSeconds",
								"offset": 12,
								"slot": "0",
								"type": "t_uint48"
							}
						],
						"numberOfBytes": "32"
					},
					"t_struct(Voter)45_storage": {
						"encoding": "inplace",
						"label": "struct BallotTCN.Voter",
						"members": [
							{
								"astId": 36,
								"contract": "contracts/3_Ballot.sol:BallotTCN",
								"label": "weight",
								"offset": 0,
								"slot": "0",
								"type": "t_uint16"
							},
							{
								"astId": 38,
								"contract": "contracts/3_Ballot.sol:BallotTCN",
								"label": "delegateWeight",
								"offset": 2,
								"slot": "0",
								"type": "t_uint16"
							},
							{
								"astId": 40,
								"contract": "contracts/3_Ballot.sol:BallotTCN",
								"label": "voted",
								"offset": 4,
								"slot": "0",
								"type": "t_bool"
							},
							{
								"astId": 42,
								"contract": "contracts/3_Ballot.sol:BallotTCN",
								"label": "delegate",
								"offset": 5,
								"slot": "0",
								"type": "t_address"
							},
							{
								"astId": 44,
								"contract": "contracts/3_Ballot.sol:BallotTCN",
								"label": "votedTime",
								"offset": 0,
								"slot": "1",
								"type": "t_uint256"
							}
						],
						"numberOfBytes": "64"
					},
					"t_uint16": {
						"encoding": "inplace",
						"label": "uint16",
						"numberOfBytes": "2"
					},
					"t_uint256": {
						"encoding": "inplace",
						"label": "uint256",
						"numberOfBytes": "32"
					},
					"t_uint32": {
						"encoding": "inplace",
						"label": "uint32",
						"numberOfBytes": "4"
					},
					"t_uint48": {
						"encoding": "inplace",
						"label": "uint48",
						"numberOfBytes": "6"
					}
				}
			},
			"userdoc": {
				"kind": "user",
				"methods": {},
				"version": 1
			}
		}
	}
}