{
	"contracts/authority.sol": {
		"Authority": {
			"abi": [
				{
					"inputs": [],
					"stateMutability": "nonpayable",
					"type": "constructor"
				},
				{
					"inputs": [],
					"name": "AccessOnlyForThePendig",
					"type": "error"
				},
				{
					"inputs": [
						{
							"internalType": "uint48",
							"name": "reminingTime",
							"type": "uint48"
						}
					],
					"name": "RemainingTimeUntilTheConfirmationDeadline",
					"type": "error"
				},
				{
					"inputs": [
						{
							"internalType": "address",
							"name": "NewGCAddress",
							"type": "address"
						}
					],
					"name": "TheAddressIsNotValidForGC",
					"type": "error"
				},
				{
					"inputs": [
						{
							"internalType": "address",
							"name": "newRGAddress",
							"type": "address"
						}
					],
					"name": "TheAddressIsNotValidForRAddress",
					"type": "error"
				},
				{
					"anonymous": false,
					"inputs": [
						{
							"indexed": true,
							"internalType": "address",
							"name": "GCAddress",
							"type": "address"
						},
						{
							"indexed": true,
							"internalType": "uint32",
							"name": "version",
							"type": "uint32"
						}
					],
					"name": "TheNewGCAddressWasConfirmed",
					"type": "event"
				},
				{
					"anonymous": false,
					"inputs": [
						{
							"indexed": true,
							"internalType": "address",
							"name": "presidentAdd",
							"type": "address"
						},
						{
							"indexed": true,
							"internalType": "uint32",
							"name": "nonce",
							"type": "uint32"
						}
					],
					"name": "TheNewPresidentWasConfirmed",
					"type": "event"
				},
				{
					"anonymous": false,
					"inputs": [
						{
							"indexed": true,
							"internalType": "address",
							"name": "primeMinisterAdd",
							"type": "address"
						},
						{
							"indexed": true,
							"internalType": "uint32",
							"name": "nonce",
							"type": "uint32"
						}
					],
					"name": "TheNewPrimeMinisterWasConfirmed",
					"type": "event"
				},
				{
					"anonymous": false,
					"inputs": [
						{
							"indexed": true,
							"internalType": "address",
							"name": "RepublicGAddress",
							"type": "address"
						},
						{
							"indexed": true,
							"internalType": "uint32",
							"name": "version",
							"type": "uint32"
						}
					],
					"name": "TheNewRepublicGAddressWasConfirmed",
					"type": "event"
				},
				{
					"anonymous": false,
					"inputs": [
						{
							"indexed": true,
							"internalType": "address",
							"name": "newGCAddress",
							"type": "address"
						}
					],
					"name": "TheNextGCAddressWasElected",
					"type": "event"
				},
				{
					"anonymous": false,
					"inputs": [
						{
							"indexed": true,
							"internalType": "address",
							"name": "newPresidentAdd",
							"type": "address"
						}
					],
					"name": "TheNextPresidentWasElected",
					"type": "event"
				},
				{
					"anonymous": false,
					"inputs": [
						{
							"indexed": true,
							"internalType": "address",
							"name": "newPrimeMinister",
							"type": "address"
						}
					],
					"name": "TheNextPrimeMinisterWasElected",
					"type": "event"
				},
				{
					"anonymous": false,
					"inputs": [
						{
							"indexed": true,
							"internalType": "address",
							"name": "PRGAddress",
							"type": "address"
						}
					],
					"name": "TheNextRepublicGAddressWasCancelled",
					"type": "event"
				},
				{
					"anonymous": false,
					"inputs": [
						{
							"indexed": true,
							"internalType": "address",
							"name": "newRepublicGAddress",
							"type": "address"
						}
					],
					"name": "TheNextRepublicGAddressWasElected",
					"type": "event"
				},
				{
					"anonymous": false,
					"inputs": [
						{
							"indexed": true,
							"internalType": "bool",
							"name": "baned",
							"type": "bool"
						},
						{
							"indexed": true,
							"internalType": "bool",
							"name": "done",
							"type": "bool"
						}
					],
					"name": "TheStatusOfBanningAllActivitiesAndDone",
					"type": "event"
				},
				{
					"inputs": [
						{
							"internalType": "address",
							"name": "PRGAdress",
							"type": "address"
						}
					],
					"name": "cancelPendingRepublicGAddress",
					"outputs": [],
					"stateMutability": "nonpayable",
					"type": "function"
				},
				{
					"inputs": [],
					"name": "getAuthorityAddress",
					"outputs": [
						{
							"internalType": "address",
							"name": "",
							"type": "address"
						}
					],
					"stateMutability": "view",
					"type": "function"
				},
				{
					"inputs": [],
					"name": "getGovernance",
					"outputs": [
						{
							"internalType": "address",
							"name": "",
							"type": "address"
						}
					],
					"stateMutability": "view",
					"type": "function"
				},
				{
					"inputs": [],
					"name": "getPresidentAdd",
					"outputs": [
						{
							"internalType": "address",
							"name": "",
							"type": "address"
						}
					],
					"stateMutability": "view",
					"type": "function"
				},
				{
					"inputs": [],
					"name": "getPresidentBan",
					"outputs": [
						{
							"internalType": "bool",
							"name": "",
							"type": "bool"
						}
					],
					"stateMutability": "view",
					"type": "function"
				},
				{
					"inputs": [],
					"name": "getPrimeMinisterAdd",
					"outputs": [
						{
							"internalType": "address",
							"name": "",
							"type": "address"
						}
					],
					"stateMutability": "view",
					"type": "function"
				},
				{
					"inputs": [],
					"name": "getPrimeMinisterBan",
					"outputs": [
						{
							"internalType": "bool",
							"name": "",
							"type": "bool"
						}
					],
					"stateMutability": "view",
					"type": "function"
				},
				{
					"inputs": [],
					"name": "getRepublicAddress",
					"outputs": [
						{
							"internalType": "address",
							"name": "R",
							"type": "address"
						}
					],
					"stateMutability": "view",
					"type": "function"
				},
				{
					"inputs": [],
					"name": "getRepublicGAddress",
					"outputs": [
						{
							"internalType": "address",
							"name": "RG",
							"type": "address"
						}
					],
					"stateMutability": "view",
					"type": "function"
				},
				{
					"inputs": [],
					"name": "getgovernanceVersion",
					"outputs": [
						{
							"internalType": "uint32",
							"name": "",
							"type": "uint32"
						}
					],
					"stateMutability": "view",
					"type": "function"
				},
				{
					"inputs": [
						{
							"internalType": "address",
							"name": "newPresident",
							"type": "address"
						}
					],
					"name": "setPendigPresident",
					"outputs": [],
					"stateMutability": "nonpayable",
					"type": "function"
				},
				{
					"inputs": [
						{
							"internalType": "address",
							"name": "newGCAddress",
							"type": "address"
						}
					],
					"name": "setPendingGovernanceContractAddress",
					"outputs": [],
					"stateMutability": "nonpayable",
					"type": "function"
				},
				{
					"inputs": [
						{
							"internalType": "address",
							"name": "newPM",
							"type": "address"
						}
					],
					"name": "setPendingPrimeMinister",
					"outputs": [],
					"stateMutability": "nonpayable",
					"type": "function"
				},
				{
					"inputs": [
						{
							"internalType": "address",
							"name": "newRGAddress",
							"type": "address"
						}
					],
					"name": "setPendingRepublicGAddress",
					"outputs": [],
					"stateMutability": "nonpayable",
					"type": "function"
				},
				{
					"inputs": [
						{
							"internalType": "bool",
							"name": "baned",
							"type": "bool"
						}
					],
					"name": "setPresidentBaned",
					"outputs": [],
					"stateMutability": "nonpayable",
					"type": "function"
				},
				{
					"inputs": [
						{
							"internalType": "bool",
							"name": "baned",
							"type": "bool"
						}
					],
					"name": "setPrimeMinisterBaned",
					"outputs": [],
					"stateMutability": "nonpayable",
					"type": "function"
				},
				{
					"inputs": [
						{
							"internalType": "address",
							"name": "pendingGCAdd",
							"type": "address"
						}
					],
					"name": "transferGovernanceContractAddress",
					"outputs": [],
					"stateMutability": "nonpayable",
					"type": "function"
				},
				{
					"inputs": [],
					"name": "transferPresident",
					"outputs": [],
					"stateMutability": "nonpayable",
					"type": "function"
				},
				{
					"inputs": [],
					"name": "transferPrimeMinister",
					"outputs": [],
					"stateMutability": "nonpayable",
					"type": "function"
				},
				{
					"inputs": [
						{
							"internalType": "address",
							"name": "RGAddress",
							"type": "address"
						}
					],
					"name": "transferRepublicGAddress",
					"outputs": [],
					"stateMutability": "nonpayable",
					"type": "function"
				}
			],
			"devdoc": {
				"kind": "dev",
				"methods": {},
				"version": 1
			},
			"evm": {
				"assembly": "    /* \"contracts/authority.sol\":221:8567  contract Authority {... */\n  mstore(0x40, 0xc0)\n    /* \"contracts/authority.sol\":1560:1561  0 */\n  0x00\n    /* \"contracts/authority.sol\":1523:1562  address immutable Republic = address(0) */\n  0xffffffffffffffffffffffffffffffffffffffff\n  and\n  0x80\n  swap1\n  0xffffffffffffffffffffffffffffffffffffffff\n  and\n  dup2\n  mstore\n  pop\n    /* \"contracts/authority.sol\":2974:3133  constructor() {... */\n  callvalue\n  dup1\n  iszero\n  tag_1\n  jumpi\n  0x00\n  dup1\n  revert\ntag_1:\n  pop\n    /* \"contracts/authority.sol\":3044:3053  4400 days */\n  0x16a8c800\n    /* \"contracts/authority.sol\":3026:3041  block.timestamp */\n  timestamp\n    /* \"contracts/authority.sol\":3026:3053  block.timestamp + 4400 days */\n  tag_4\n  swap2\n  swap1\n  tag_5\n  jump\t// in\ntag_4:\n    /* \"contracts/authority.sol\":2999:3054  TimeFirstElection = uint48(block.timestamp + 4400 days) */\n  0xffffffffffff\n  and\n  0xa0\n  dup2\n  0xffffffffffff\n  and\n  dup2\n  mstore\n  pop\n  pop\n    /* \"contracts/authority.sol\":3086:3096  msg.sender */\n  caller\n    /* \"contracts/authority.sol\":3065:3075  _president */\n  0x04\n    /* \"contracts/authority.sol\":3065:3083  _president.roleAdd */\n  0x00\n  add\n  0x00\n    /* \"contracts/authority.sol\":3065:3096  _president.roleAdd = msg.sender */\n  0x0100\n  exp\n  dup2\n  sload\n  dup2\n  0xffffffffffffffffffffffffffffffffffffffff\n  mul\n  not\n  and\n  swap1\n  dup4\n  0xffffffffffffffffffffffffffffffffffffffff\n  and\n  mul\n  or\n  swap1\n  sstore\n  pop\n    /* \"contracts/authority.sol\":3107:3117  _president */\n  0x04\n    /* \"contracts/authority.sol\":3107:3123  _president.nonce */\n  0x00\n  add\n  0x15\n    /* \"contracts/authority.sol\":3107:3125  _president.nonce++ */\n  dup2\n  dup2\n  swap1\n  sload\n  swap1\n  0x0100\n  exp\n  swap1\n  div\n  0xffffffff\n  and\n  dup1\n  swap3\n  swap2\n  swap1\n  tag_6\n  swap1\n  tag_7\n  jump\t// in\ntag_6:\n  swap2\n  swap1\n  0x0100\n  exp\n  dup2\n  sload\n  dup2\n  0xffffffff\n  mul\n  not\n  and\n  swap1\n  dup4\n  0xffffffff\n  and\n  mul\n  or\n  swap1\n  sstore\n  pop\n  pop\n    /* \"contracts/authority.sol\":221:8567  contract Authority {... */\n  jump(tag_8)\n    /* \"#utility.yul\":7:84   */\ntag_9:\n    /* \"#utility.yul\":44:51   */\n  0x00\n    /* \"#utility.yul\":73:78   */\n  dup2\n    /* \"#utility.yul\":62:78   */\n  swap1\n  pop\n    /* \"#utility.yul\":7:84   */\n  swap2\n  swap1\n  pop\n  jump\t// out\n    /* \"#utility.yul\":90:270   */\ntag_10:\n    /* \"#utility.yul\":138:215   */\n  0x4e487b7100000000000000000000000000000000000000000000000000000000\n    /* \"#utility.yul\":135:136   */\n  0x00\n    /* \"#utility.yul\":128:216   */\n  mstore\n    /* \"#utility.yul\":235:239   */\n  0x11\n    /* \"#utility.yul\":232:233   */\n  0x04\n    /* \"#utility.yul\":225:240   */\n  mstore\n    /* \"#utility.yul\":259:263   */\n  0x24\n    /* \"#utility.yul\":256:257   */\n  0x00\n    /* \"#utility.yul\":249:264   */\n  revert\n    /* \"#utility.yul\":276:467   */\ntag_5:\n    /* \"#utility.yul\":316:319   */\n  0x00\n    /* \"#utility.yul\":335:355   */\n  tag_16\n    /* \"#utility.yul\":353:354   */\n  dup3\n    /* \"#utility.yul\":335:355   */\n  tag_9\n  jump\t// in\ntag_16:\n    /* \"#utility.yul\":330:355   */\n  swap2\n  pop\n    /* \"#utility.yul\":369:389   */\n  tag_17\n    /* \"#utility.yul\":387:388   */\n  dup4\n    /* \"#utility.yul\":369:389   */\n  tag_9\n  jump\t// in\ntag_17:\n    /* \"#utility.yul\":364:389   */\n  swap3\n  pop\n    /* \"#utility.yul\":412:413   */\n  dup3\n    /* \"#utility.yul\":409:410   */\n  dup3\n    /* \"#utility.yul\":405:414   */\n  add\n    /* \"#utility.yul\":398:414   */\n  swap1\n  pop\n    /* \"#utility.yul\":433:436   */\n  dup1\n    /* \"#utility.yul\":430:431   */\n  dup3\n    /* \"#utility.yul\":427:437   */\n  gt\n    /* \"#utility.yul\":424:460   */\n  iszero\n  tag_18\n  jumpi\n    /* \"#utility.yul\":440:458   */\n  tag_19\n  tag_10\n  jump\t// in\ntag_19:\n    /* \"#utility.yul\":424:460   */\ntag_18:\n    /* \"#utility.yul\":276:467   */\n  swap3\n  swap2\n  pop\n  pop\n  jump\t// out\n    /* \"#utility.yul\":473:566   */\ntag_11:\n    /* \"#utility.yul\":509:516   */\n  0x00\n    /* \"#utility.yul\":549:559   */\n  0xffffffff\n    /* \"#utility.yul\":542:547   */\n  dup3\n    /* \"#utility.yul\":538:560   */\n  and\n    /* \"#utility.yul\":527:560   */\n  swap1\n  pop\n    /* \"#utility.yul\":473:566   */\n  swap2\n  swap1\n  pop\n  jump\t// out\n    /* \"#utility.yul\":572:747   */\ntag_7:\n    /* \"#utility.yul\":610:613   */\n  0x00\n    /* \"#utility.yul\":633:656   */\n  tag_22\n    /* \"#utility.yul\":650:655   */\n  dup3\n    /* \"#utility.yul\":633:656   */\n  tag_11\n  jump\t// in\ntag_22:\n    /* \"#utility.yul\":624:656   */\n  swap2\n  pop\n    /* \"#utility.yul\":678:688   */\n  0xffffffff\n    /* \"#utility.yul\":671:676   */\n  dup3\n    /* \"#utility.yul\":668:689   */\n  sub\n    /* \"#utility.yul\":665:712   */\n  tag_23\n  jumpi\n    /* \"#utility.yul\":692:710   */\n  tag_24\n  tag_10\n  jump\t// in\ntag_24:\n    /* \"#utility.yul\":665:712   */\ntag_23:\n    /* \"#utility.yul\":739:740   */\n  0x01\n    /* \"#utility.yul\":732:737   */\n  dup3\n    /* \"#utility.yul\":728:741   */\n  add\n    /* \"#utility.yul\":721:741   */\n  swap1\n  pop\n    /* \"#utility.yul\":572:747   */\n  swap2\n  swap1\n  pop\n  jump\t// out\n    /* \"contracts/authority.sol\":221:8567  contract Authority {... */\ntag_8:\n  mload(0x80)\n  mload(0xa0)\n  codecopy(0x00, dataOffset(sub_0), dataSize(sub_0))\n  0x00\n  assignImmutable(\"0x881472a5783e16aed4d4ff91eeebe17d420d379d078fc85dddb0a3a55a9abffe\")\n  0x00\n  assignImmutable(\"0x4393e7114eb674248a1480712950c28cb06e118e040859a2eafa3ca8a6dfbd69\")\n  return(0x00, dataSize(sub_0))\nstop\n\nsub_0: assembly {\n        /* \"contracts/authority.sol\":221:8567  contract Authority {... */\n      mstore(0x40, 0x80)\n      callvalue\n      dup1\n      iszero\n      tag_1\n      jumpi\n      0x00\n      dup1\n      revert\n    tag_1:\n      pop\n      jumpi(tag_2, lt(calldatasize, 0x04))\n      shr(0xe0, calldataload(0x00))\n      dup1\n      0x861a179d\n      gt\n      tag_23\n      jumpi\n      dup1\n      0xca4cce68\n      gt\n      tag_24\n      jumpi\n      dup1\n      0xca4cce68\n      eq\n      tag_18\n      jumpi\n      dup1\n      0xe47a9d46\n      eq\n      tag_19\n      jumpi\n      dup1\n      0xe4f3e947\n      eq\n      tag_20\n      jumpi\n      dup1\n      0xee7126c3\n      eq\n      tag_21\n      jumpi\n      dup1\n      0xf5f9cdd4\n      eq\n      tag_22\n      jumpi\n      jump(tag_2)\n    tag_24:\n      dup1\n      0x861a179d\n      eq\n      tag_13\n      jumpi\n      dup1\n      0xa53da00b\n      eq\n      tag_14\n      jumpi\n      dup1\n      0xb5c09c68\n      eq\n      tag_15\n      jumpi\n      dup1\n      0xc387b49c\n      eq\n      tag_16\n      jumpi\n      dup1\n      0xc5a1c5c1\n      eq\n      tag_17\n      jumpi\n      jump(tag_2)\n    tag_23:\n      dup1\n      0x37676f79\n      gt\n      tag_25\n      jumpi\n      dup1\n      0x37676f79\n      eq\n      tag_8\n      jumpi\n      dup1\n      0x4494acd9\n      eq\n      tag_9\n      jumpi\n      dup1\n      0x544fa93e\n      eq\n      tag_10\n      jumpi\n      dup1\n      0x66410997\n      eq\n      tag_11\n      jumpi\n      dup1\n      0x6cf106d7\n      eq\n      tag_12\n      jumpi\n      jump(tag_2)\n    tag_25:\n      dup1\n      0x054203bd\n      eq\n      tag_3\n      jumpi\n      dup1\n      0x0df4c390\n      eq\n      tag_4\n      jumpi\n      dup1\n      0x18074eee\n      eq\n      tag_5\n      jumpi\n      dup1\n      0x1f86aa2a\n      eq\n      tag_6\n      jumpi\n      dup1\n      0x289b3c0d\n      eq\n      tag_7\n      jumpi\n    tag_2:\n      0x00\n      dup1\n      revert\n        /* \"contracts/authority.sol\":5114:5366  function setPendigPresident(address newPresident) public onlyRepublic {... */\n    tag_3:\n      tag_26\n      0x04\n      dup1\n      calldatasize\n      sub\n      dup2\n      add\n      swap1\n      tag_27\n      swap2\n      swap1\n      tag_28\n      jump\t// in\n    tag_27:\n      tag_29\n      jump\t// in\n    tag_26:\n      stop\n        /* \"contracts/authority.sol\":5374:5760  function transferPresident() public {... */\n    tag_4:\n      tag_30\n      tag_31\n      jump\t// in\n    tag_30:\n      stop\n        /* \"contracts/authority.sol\":6161:6642  function transferPrimeMinister() public {... */\n    tag_5:\n      tag_32\n      tag_33\n      jump\t// in\n    tag_32:\n      stop\n        /* \"contracts/authority.sol\":3716:4358  function transferRepublicGAddress(address RGAddress) public onlyRepublic {... */\n    tag_6:\n      tag_34\n      0x04\n      dup1\n      calldatasize\n      sub\n      dup2\n      add\n      swap1\n      tag_35\n      swap2\n      swap1\n      tag_28\n      jump\t// in\n    tag_35:\n      tag_36\n      jump\t// in\n    tag_34:\n      stop\n        /* \"contracts/authority.sol\":7631:7731  function getGovernance() public view returns (address) {... */\n    tag_7:\n      tag_37\n      tag_38\n      jump\t// in\n    tag_37:\n      mload(0x40)\n      tag_39\n      swap2\n      swap1\n      tag_40\n      jump\t// in\n    tag_39:\n      mload(0x40)\n      dup1\n      swap2\n      sub\n      swap1\n      return\n        /* \"contracts/authority.sol\":4869:4985  function getRepublicGAddress() public view returns (address RG) {... */\n    tag_8:\n      tag_41\n      tag_42\n      jump\t// in\n    tag_41:\n      mload(0x40)\n      tag_43\n      swap2\n      swap1\n      tag_40\n      jump\t// in\n    tag_43:\n      mload(0x40)\n      dup1\n      swap2\n      sub\n      swap1\n      return\n        /* \"contracts/authority.sol\":4366:4749  function cancelPendingRepublicGAddress(address PRGAdress) public onlyRepublic {... */\n    tag_9:\n      tag_44\n      0x04\n      dup1\n      calldatasize\n      sub\n      dup2\n      add\n      swap1\n      tag_45\n      swap2\n      swap1\n      tag_28\n      jump\t// in\n    tag_45:\n      tag_46\n      jump\t// in\n    tag_44:\n      stop\n        /* \"contracts/authority.sol\":5981:6153  function setPendingPrimeMinister(address newPM) public onlyPresident {... */\n    tag_10:\n      tag_47\n      0x04\n      dup1\n      calldatasize\n      sub\n      dup2\n      add\n      swap1\n      tag_48\n      swap2\n      swap1\n      tag_28\n      jump\t// in\n    tag_48:\n      tag_49\n      jump\t// in\n    tag_47:\n      stop\n        /* \"contracts/authority.sol\":5768:5869  function getPresidentAdd() public view returns (address) {... */\n    tag_11:\n      tag_50\n      tag_51\n      jump\t// in\n    tag_50:\n      mload(0x40)\n      tag_52\n      swap2\n      swap1\n      tag_40\n      jump\t// in\n    tag_52:\n      mload(0x40)\n      dup1\n      swap2\n      sub\n      swap1\n      return\n        /* \"contracts/authority.sol\":5877:5973  function getPresidentBan() public view returns (bool) {... */\n    tag_12:\n      tag_53\n      tag_54\n      jump\t// in\n    tag_53:\n      mload(0x40)\n      tag_55\n      swap2\n      swap1\n      tag_56\n      jump\t// in\n    tag_55:\n      mload(0x40)\n      dup1\n      swap2\n      sub\n      swap1\n      return\n        /* \"contracts/authority.sol\":3141:3708  function setPendingRepublicGAddress(address newRGAddress) public onlyRepublic {... */\n    tag_13:\n      tag_57\n      0x04\n      dup1\n      calldatasize\n      sub\n      dup2\n      add\n      swap1\n      tag_58\n      swap2\n      swap1\n      tag_28\n      jump\t// in\n    tag_58:\n      tag_59\n      jump\t// in\n    tag_57:\n      stop\n        /* \"contracts/authority.sol\":6650:6759  function getPrimeMinisterAdd() public view returns (address) {... */\n    tag_14:\n      tag_60\n      tag_61\n      jump\t// in\n    tag_60:\n      mload(0x40)\n      tag_62\n      swap2\n      swap1\n      tag_40\n      jump\t// in\n    tag_62:\n      mload(0x40)\n      dup1\n      swap2\n      sub\n      swap1\n      return\n        /* \"contracts/authority.sol\":7851:7994  function setPresidentBaned(bool baned) public onlyRepublic {... */\n    tag_15:\n      tag_63\n      0x04\n      dup1\n      calldatasize\n      sub\n      dup2\n      add\n      swap1\n      tag_64\n      swap2\n      swap1\n      tag_65\n      jump\t// in\n    tag_64:\n      tag_66\n      jump\t// in\n    tag_63:\n      stop\n        /* \"contracts/authority.sol\":7739:7843  function getgovernanceVersion() public view returns (uint32) {... */\n    tag_16:\n      tag_67\n      tag_68\n      jump\t// in\n    tag_67:\n      mload(0x40)\n      tag_69\n      swap2\n      swap1\n      tag_70\n      jump\t// in\n    tag_69:\n      mload(0x40)\n      dup1\n      swap2\n      sub\n      swap1\n      return\n        /* \"contracts/authority.sol\":4757:4861  function getRepublicAddress() public view returns (address R) {... */\n    tag_17:\n      tag_71\n      tag_72\n      jump\t// in\n    tag_71:\n      mload(0x40)\n      tag_73\n      swap2\n      swap1\n      tag_40\n      jump\t// in\n    tag_73:\n      mload(0x40)\n      dup1\n      swap2\n      sub\n      swap1\n      return\n        /* \"contracts/authority.sol\":6881:7196  function setPendingGovernanceContractAddress(address newGCAddress) public onlyRepublic {... */\n    tag_18:\n      tag_74\n      0x04\n      dup1\n      calldatasize\n      sub\n      dup2\n      add\n      swap1\n      tag_75\n      swap2\n      swap1\n      tag_28\n      jump\t// in\n    tag_75:\n      tag_76\n      jump\t// in\n    tag_74:\n      stop\n        /* \"contracts/authority.sol\":4997:5106  function getAuthorityAddress() public view returns (address) {... */\n    tag_19:\n      tag_77\n      tag_78\n      jump\t// in\n    tag_77:\n      mload(0x40)\n      tag_79\n      swap2\n      swap1\n      tag_40\n      jump\t// in\n    tag_79:\n      mload(0x40)\n      dup1\n      swap2\n      sub\n      swap1\n      return\n        /* \"contracts/authority.sol\":6767:6871  function getPrimeMinisterBan() public view returns (bool) {... */\n    tag_20:\n      tag_80\n      tag_81\n      jump\t// in\n    tag_80:\n      mload(0x40)\n      tag_82\n      swap2\n      swap1\n      tag_56\n      jump\t// in\n    tag_82:\n      mload(0x40)\n      dup1\n      swap2\n      sub\n      swap1\n      return\n        /* \"contracts/authority.sol\":7204:7623  function transferGovernanceContractAddress(address pendingGCAdd) public onlyPresident {... */\n    tag_21:\n      tag_83\n      0x04\n      dup1\n      calldatasize\n      sub\n      dup2\n      add\n      swap1\n      tag_84\n      swap2\n      swap1\n      tag_28\n      jump\t// in\n    tag_84:\n      tag_85\n      jump\t// in\n    tag_83:\n      stop\n        /* \"contracts/authority.sol\":8002:8114  function setPrimeMinisterBaned(bool baned) public onlyPresident {... */\n    tag_22:\n      tag_86\n      0x04\n      dup1\n      calldatasize\n      sub\n      dup2\n      add\n      swap1\n      tag_87\n      swap2\n      swap1\n      tag_65\n      jump\t// in\n    tag_87:\n      tag_88\n      jump\t// in\n    tag_86:\n      stop\n        /* \"contracts/authority.sol\":5114:5366  function setPendigPresident(address newPresident) public onlyRepublic {... */\n    tag_29:\n        /* \"contracts/authority.sol\":2071:2086  block.timestamp */\n      timestamp\n        /* \"contracts/authority.sol\":2051:2068  TimeFirstElection */\n      immutable(\"0x881472a5783e16aed4d4ff91eeebe17d420d379d078fc85dddb0a3a55a9abffe\")\n        /* \"contracts/authority.sol\":2051:2086  TimeFirstElection < block.timestamp */\n      0xffffffffffff\n      and\n      lt\n        /* \"contracts/authority.sol\":2047:2274  if (TimeFirstElection < block.timestamp) {... */\n      iszero\n      tag_90\n      jumpi\n        /* \"contracts/authority.sol\":2125:2145  getRepublicAddress() */\n      tag_91\n        /* \"contracts/authority.sol\":2125:2143  getRepublicAddress */\n      tag_72\n        /* \"contracts/authority.sol\":2125:2145  getRepublicAddress() */\n      jump\t// in\n    tag_91:\n        /* \"contracts/authority.sol\":2111:2145  msg.sender == getRepublicAddress() */\n      0xffffffffffffffffffffffffffffffffffffffff\n      and\n        /* \"contracts/authority.sol\":2111:2121  msg.sender */\n      caller\n        /* \"contracts/authority.sol\":2111:2145  msg.sender == getRepublicAddress() */\n      0xffffffffffffffffffffffffffffffffffffffff\n      and\n      eq\n        /* \"contracts/authority.sol\":2103:2169  require(msg.sender == getRepublicAddress(), \"Access is not valid\") */\n      tag_92\n      jumpi\n      mload(0x40)\n      0x08c379a000000000000000000000000000000000000000000000000000000000\n      dup2\n      mstore\n      0x04\n      add\n      tag_93\n      swap1\n      tag_94\n      jump\t// in\n    tag_93:\n      mload(0x40)\n      dup1\n      swap2\n      sub\n      swap1\n      revert\n    tag_92:\n        /* \"contracts/authority.sol\":2047:2274  if (TimeFirstElection < block.timestamp) {... */\n      jump(tag_95)\n    tag_90:\n        /* \"contracts/authority.sol\":2211:2228  getPresidentAdd() */\n      tag_96\n        /* \"contracts/authority.sol\":2211:2226  getPresidentAdd */\n      tag_51\n        /* \"contracts/authority.sol\":2211:2228  getPresidentAdd() */\n      jump\t// in\n    tag_96:\n        /* \"contracts/authority.sol\":2197:2228  msg.sender == getPresidentAdd() */\n      0xffffffffffffffffffffffffffffffffffffffff\n      and\n        /* \"contracts/authority.sol\":2197:2207  msg.sender */\n      caller\n        /* \"contracts/authority.sol\":2197:2228  msg.sender == getPresidentAdd() */\n      0xffffffffffffffffffffffffffffffffffffffff\n      and\n      eq\n        /* \"contracts/authority.sol\":2197:2250  msg.sender == getPresidentAdd() && !getPresidentBan() */\n      dup1\n      iszero\n      tag_97\n      jumpi\n      pop\n        /* \"contracts/authority.sol\":2233:2250  getPresidentBan() */\n      tag_98\n        /* \"contracts/authority.sol\":2233:2248  getPresidentBan */\n      tag_54\n        /* \"contracts/authority.sol\":2233:2250  getPresidentBan() */\n      jump\t// in\n    tag_98:\n        /* \"contracts/authority.sol\":2232:2250  !getPresidentBan() */\n      iszero\n        /* \"contracts/authority.sol\":2197:2250  msg.sender == getPresidentAdd() && !getPresidentBan() */\n    tag_97:\n        /* \"contracts/authority.sol\":2189:2274  require(msg.sender == getPresidentAdd() && !getPresidentBan(), \"Access is not valid\") */\n      tag_99\n      jumpi\n      mload(0x40)\n      0x08c379a000000000000000000000000000000000000000000000000000000000\n      dup2\n      mstore\n      0x04\n      add\n      tag_100\n      swap1\n      tag_94\n      jump\t// in\n    tag_100:\n      mload(0x40)\n      dup1\n      swap2\n      sub\n      swap1\n      revert\n    tag_99:\n        /* \"contracts/authority.sol\":2047:2274  if (TimeFirstElection < block.timestamp) {... */\n    tag_95:\n        /* \"contracts/authority.sol\":5214:5226  newPresident */\n      dup1\n        /* \"contracts/authority.sol\":5195:5211  _pendigPresident */\n      0x02\n      0x00\n        /* \"contracts/authority.sol\":5195:5226  _pendigPresident = newPresident */\n      0x0100\n      exp\n      dup2\n      sload\n      dup2\n      0xffffffffffffffffffffffffffffffffffffffff\n      mul\n      not\n      and\n      swap1\n      dup4\n      0xffffffffffffffffffffffffffffffffffffffff\n      and\n      mul\n      or\n      swap1\n      sstore\n      pop\n        /* \"contracts/authority.sol\":5237:5261  _setPresidentBaned(true) */\n      tag_102\n        /* \"contracts/authority.sol\":5256:5260  true */\n      0x01\n        /* \"contracts/authority.sol\":5237:5255  _setPresidentBaned */\n      tag_103\n        /* \"contracts/authority.sol\":5237:5261  _setPresidentBaned(true) */\n      jump\t// in\n    tag_102:\n        /* \"contracts/authority.sol\":5272:5300  _setPrimeMinisterBaned(true) */\n      tag_104\n        /* \"contracts/authority.sol\":5295:5299  true */\n      0x01\n        /* \"contracts/authority.sol\":5272:5294  _setPrimeMinisterBaned */\n      tag_105\n        /* \"contracts/authority.sol\":5272:5300  _setPrimeMinisterBaned(true) */\n      jump\t// in\n    tag_104:\n        /* \"contracts/authority.sol\":5345:5357  newPresident */\n      dup1\n        /* \"contracts/authority.sol\":5318:5358  TheNextPresidentWasElected(newPresident) */\n      0xffffffffffffffffffffffffffffffffffffffff\n      and\n      0x3553f1f7ef0242113266a8d183b621bb87468c99237f36b1150b6ab3d688b686\n      mload(0x40)\n      mload(0x40)\n      dup1\n      swap2\n      sub\n      swap1\n      log2\n        /* \"contracts/authority.sol\":5114:5366  function setPendigPresident(address newPresident) public onlyRepublic {... */\n      pop\n      jump\t// out\n        /* \"contracts/authority.sol\":5374:5760  function transferPresident() public {... */\n    tag_31:\n        /* \"contracts/authority.sol\":5445:5455  msg.sender */\n      caller\n        /* \"contracts/authority.sol\":5425:5455  _pendigPresident == msg.sender */\n      0xffffffffffffffffffffffffffffffffffffffff\n      and\n        /* \"contracts/authority.sol\":5425:5441  _pendigPresident */\n      0x02\n      0x00\n      swap1\n      sload\n      swap1\n      0x0100\n      exp\n      swap1\n      div\n      0xffffffffffffffffffffffffffffffffffffffff\n      and\n        /* \"contracts/authority.sol\":5425:5455  _pendigPresident == msg.sender */\n      0xffffffffffffffffffffffffffffffffffffffff\n      and\n      sub\n        /* \"contracts/authority.sol\":5421:5752  if (_pendigPresident == msg.sender) {... */\n      tag_107\n      jumpi\n        /* \"contracts/authority.sol\":5479:5495  _pendigPresident */\n      0x02\n      0x00\n        /* \"contracts/authority.sol\":5472:5495  delete _pendigPresident */\n      0x0100\n      exp\n      dup2\n      sload\n      swap1\n      0xffffffffffffffffffffffffffffffffffffffff\n      mul\n      not\n      and\n      swap1\n      sstore\n        /* \"contracts/authority.sol\":5531:5541  msg.sender */\n      caller\n        /* \"contracts/authority.sol\":5510:5520  _president */\n      0x04\n        /* \"contracts/authority.sol\":5510:5528  _president.roleAdd */\n      0x00\n      add\n      0x00\n        /* \"contracts/authority.sol\":5510:5541  _president.roleAdd = msg.sender */\n      0x0100\n      exp\n      dup2\n      sload\n      dup2\n      0xffffffffffffffffffffffffffffffffffffffff\n      mul\n      not\n      and\n      swap1\n      dup4\n      0xffffffffffffffffffffffffffffffffffffffff\n      and\n      mul\n      or\n      swap1\n      sstore\n      pop\n        /* \"contracts/authority.sol\":5556:5566  _president */\n      0x04\n        /* \"contracts/authority.sol\":5556:5572  _president.nonce */\n      0x00\n      add\n      0x15\n        /* \"contracts/authority.sol\":5556:5574  _president.nonce++ */\n      dup2\n      dup2\n      swap1\n      sload\n      swap1\n      0x0100\n      exp\n      swap1\n      div\n      0xffffffff\n      and\n      dup1\n      swap3\n      swap2\n      swap1\n      tag_108\n      swap1\n      tag_109\n      jump\t// in\n    tag_108:\n      swap2\n      swap1\n      0x0100\n      exp\n      dup2\n      sload\n      dup2\n      0xffffffff\n      mul\n      not\n      and\n      swap1\n      dup4\n      0xffffffff\n      and\n      mul\n      or\n      swap1\n      sstore\n      pop\n      pop\n        /* \"contracts/authority.sol\":5589:5614  _setPresidentBaned(false) */\n      tag_110\n        /* \"contracts/authority.sol\":5608:5613  false */\n      0x00\n        /* \"contracts/authority.sol\":5589:5607  _setPresidentBaned */\n      tag_103\n        /* \"contracts/authority.sol\":5589:5614  _setPresidentBaned(false) */\n      jump\t// in\n    tag_110:\n        /* \"contracts/authority.sol\":5684:5694  _president */\n      0x04\n        /* \"contracts/authority.sol\":5684:5700  _president.nonce */\n      0x00\n      add\n      0x15\n      swap1\n      sload\n      swap1\n      0x0100\n      exp\n      swap1\n      div\n      0xffffffff\n      and\n        /* \"contracts/authority.sol\":5636:5701  TheNewPresidentWasConfirmed(_president.roleAdd, _president.nonce) */\n      0xffffffff\n      and\n        /* \"contracts/authority.sol\":5664:5674  _president */\n      0x04\n        /* \"contracts/authority.sol\":5664:5682  _president.roleAdd */\n      0x00\n      add\n      0x00\n      swap1\n      sload\n      swap1\n      0x0100\n      exp\n      swap1\n      div\n      0xffffffffffffffffffffffffffffffffffffffff\n      and\n        /* \"contracts/authority.sol\":5636:5701  TheNewPresidentWasConfirmed(_president.roleAdd, _president.nonce) */\n      0xffffffffffffffffffffffffffffffffffffffff\n      and\n      0x05ad9b3688012cd825c1bfb941e4f5afb2558af6af3deaddf01dbb5e85abdaf9\n      mload(0x40)\n      mload(0x40)\n      dup1\n      swap2\n      sub\n      swap1\n      log3\n        /* \"contracts/authority.sol\":5421:5752  if (_pendigPresident == msg.sender) {... */\n      jump(tag_111)\n    tag_107:\n        /* \"contracts/authority.sol\":5728:5752  AccessOnlyForThePendig() */\n      mload(0x40)\n      0x6c4360f000000000000000000000000000000000000000000000000000000000\n      dup2\n      mstore\n      0x04\n      add\n      mload(0x40)\n      dup1\n      swap2\n      sub\n      swap1\n      revert\n        /* \"contracts/authority.sol\":5421:5752  if (_pendigPresident == msg.sender) {... */\n    tag_111:\n        /* \"contracts/authority.sol\":5374:5760  function transferPresident() public {... */\n      jump\t// out\n        /* \"contracts/authority.sol\":6161:6642  function transferPrimeMinister() public {... */\n    tag_33:\n        /* \"contracts/authority.sol\":6241:6251  msg.sender */\n      caller\n        /* \"contracts/authority.sol\":6216:6251  _pendingPrimeMinister == msg.sender */\n      0xffffffffffffffffffffffffffffffffffffffff\n      and\n        /* \"contracts/authority.sol\":6216:6237  _pendingPrimeMinister */\n      0x03\n      0x00\n      swap1\n      sload\n      swap1\n      0x0100\n      exp\n      swap1\n      div\n      0xffffffffffffffffffffffffffffffffffffffff\n      and\n        /* \"contracts/authority.sol\":6216:6251  _pendingPrimeMinister == msg.sender */\n      0xffffffffffffffffffffffffffffffffffffffff\n      and\n      sub\n        /* \"contracts/authority.sol\":6212:6634  if (_pendingPrimeMinister == msg.sender) {... */\n      tag_113\n      jumpi\n        /* \"contracts/authority.sol\":6275:6296  _pendingPrimeMinister */\n      0x03\n      0x00\n        /* \"contracts/authority.sol\":6268:6296  delete _pendingPrimeMinister */\n      0x0100\n      exp\n      dup2\n      sload\n      swap1\n      0xffffffffffffffffffffffffffffffffffffffff\n      mul\n      not\n      and\n      swap1\n      sstore\n        /* \"contracts/authority.sol\":6336:6346  msg.sender */\n      caller\n        /* \"contracts/authority.sol\":6311:6325  _primeMinister */\n      0x05\n        /* \"contracts/authority.sol\":6311:6333  _primeMinister.roleAdd */\n      0x00\n      add\n      0x00\n        /* \"contracts/authority.sol\":6311:6346  _primeMinister.roleAdd = msg.sender */\n      0x0100\n      exp\n      dup2\n      sload\n      dup2\n      0xffffffffffffffffffffffffffffffffffffffff\n      mul\n      not\n      and\n      swap1\n      dup4\n      0xffffffffffffffffffffffffffffffffffffffff\n      and\n      mul\n      or\n      swap1\n      sstore\n      pop\n        /* \"contracts/authority.sol\":6361:6375  _primeMinister */\n      0x05\n        /* \"contracts/authority.sol\":6361:6381  _primeMinister.nonce */\n      0x00\n      add\n      0x15\n        /* \"contracts/authority.sol\":6361:6383  _primeMinister.nonce++ */\n      dup2\n      dup2\n      swap1\n      sload\n      swap1\n      0x0100\n      exp\n      swap1\n      div\n      0xffffffff\n      and\n      dup1\n      swap3\n      swap2\n      swap1\n      tag_114\n      swap1\n      tag_109\n      jump\t// in\n    tag_114:\n      swap2\n      swap1\n      0x0100\n      exp\n      dup2\n      sload\n      dup2\n      0xffffffff\n      mul\n      not\n      and\n      swap1\n      dup4\n      0xffffffff\n      and\n      mul\n      or\n      swap1\n      sstore\n      pop\n      pop\n        /* \"contracts/authority.sol\":6402:6416  _primeMinister */\n      0x05\n        /* \"contracts/authority.sol\":6402:6422  _primeMinister.baned */\n      0x00\n      add\n      0x14\n      swap1\n      sload\n      swap1\n      0x0100\n      exp\n      swap1\n      div\n      0xff\n      and\n        /* \"contracts/authority.sol\":6398:6487  if (_primeMinister.baned){... */\n      iszero\n      tag_115\n      jumpi\n        /* \"contracts/authority.sol\":6442:6471  _setPrimeMinisterBaned(false) */\n      tag_116\n        /* \"contracts/authority.sol\":6465:6470  false */\n      0x00\n        /* \"contracts/authority.sol\":6442:6464  _setPrimeMinisterBaned */\n      tag_105\n        /* \"contracts/authority.sol\":6442:6471  _setPrimeMinisterBaned(false) */\n      jump\t// in\n    tag_116:\n        /* \"contracts/authority.sol\":6398:6487  if (_primeMinister.baned){... */\n    tag_115:\n        /* \"contracts/authority.sol\":6562:6576  _primeMinister */\n      0x05\n        /* \"contracts/authority.sol\":6562:6582  _primeMinister.nonce */\n      0x00\n      add\n      0x15\n      swap1\n      sload\n      swap1\n      0x0100\n      exp\n      swap1\n      div\n      0xffffffff\n      and\n        /* \"contracts/authority.sol\":6506:6583  TheNewPrimeMinisterWasConfirmed(_primeMinister.roleAdd, _primeMinister.nonce) */\n      0xffffffff\n      and\n        /* \"contracts/authority.sol\":6538:6552  _primeMinister */\n      0x05\n        /* \"contracts/authority.sol\":6538:6560  _primeMinister.roleAdd */\n      0x00\n      add\n      0x00\n      swap1\n      sload\n      swap1\n      0x0100\n      exp\n      swap1\n      div\n      0xffffffffffffffffffffffffffffffffffffffff\n      and\n        /* \"contracts/authority.sol\":6506:6583  TheNewPrimeMinisterWasConfirmed(_primeMinister.roleAdd, _primeMinister.nonce) */\n      0xffffffffffffffffffffffffffffffffffffffff\n      and\n      0x11e1b985c07e1bf3fec9bfd0bdb8c4a8e870ba2b26aa89fe50a6a19132ca10fd\n      mload(0x40)\n      mload(0x40)\n      dup1\n      swap2\n      sub\n      swap1\n      log3\n        /* \"contracts/authority.sol\":6212:6634  if (_pendingPrimeMinister == msg.sender) {... */\n      jump(tag_117)\n    tag_113:\n        /* \"contracts/authority.sol\":6610:6634  AccessOnlyForThePendig() */\n      mload(0x40)\n      0x6c4360f000000000000000000000000000000000000000000000000000000000\n      dup2\n      mstore\n      0x04\n      add\n      mload(0x40)\n      dup1\n      swap2\n      sub\n      swap1\n      revert\n        /* \"contracts/authority.sol\":6212:6634  if (_pendingPrimeMinister == msg.sender) {... */\n    tag_117:\n        /* \"contracts/authority.sol\":6161:6642  function transferPrimeMinister() public {... */\n      jump\t// out\n        /* \"contracts/authority.sol\":3716:4358  function transferRepublicGAddress(address RGAddress) public onlyRepublic {... */\n    tag_36:\n        /* \"contracts/authority.sol\":2071:2086  block.timestamp */\n      timestamp\n        /* \"contracts/authority.sol\":2051:2068  TimeFirstElection */\n      immutable(\"0x881472a5783e16aed4d4ff91eeebe17d420d379d078fc85dddb0a3a55a9abffe\")\n        /* \"contracts/authority.sol\":2051:2086  TimeFirstElection < block.timestamp */\n      0xffffffffffff\n      and\n      lt\n        /* \"contracts/authority.sol\":2047:2274  if (TimeFirstElection < block.timestamp) {... */\n      iszero\n      tag_119\n      jumpi\n        /* \"contracts/authority.sol\":2125:2145  getRepublicAddress() */\n      tag_120\n        /* \"contracts/authority.sol\":2125:2143  getRepublicAddress */\n      tag_72\n        /* \"contracts/authority.sol\":2125:2145  getRepublicAddress() */\n      jump\t// in\n    tag_120:\n        /* \"contracts/authority.sol\":2111:2145  msg.sender == getRepublicAddress() */\n      0xffffffffffffffffffffffffffffffffffffffff\n      and\n        /* \"contracts/authority.sol\":2111:2121  msg.sender */\n      caller\n        /* \"contracts/authority.sol\":2111:2145  msg.sender == getRepublicAddress() */\n      0xffffffffffffffffffffffffffffffffffffffff\n      and\n      eq\n        /* \"contracts/authority.sol\":2103:2169  require(msg.sender == getRepublicAddress(), \"Access is not valid\") */\n      tag_121\n      jumpi\n      mload(0x40)\n      0x08c379a000000000000000000000000000000000000000000000000000000000\n      dup2\n      mstore\n      0x04\n      add\n      tag_122\n      swap1\n      tag_94\n      jump\t// in\n    tag_122:\n      mload(0x40)\n      dup1\n      swap2\n      sub\n      swap1\n      revert\n    tag_121:\n        /* \"contracts/authority.sol\":2047:2274  if (TimeFirstElection < block.timestamp) {... */\n      jump(tag_123)\n    tag_119:\n        /* \"contracts/authority.sol\":2211:2228  getPresidentAdd() */\n      tag_124\n        /* \"contracts/authority.sol\":2211:2226  getPresidentAdd */\n      tag_51\n        /* \"contracts/authority.sol\":2211:2228  getPresidentAdd() */\n      jump\t// in\n    tag_124:\n        /* \"contracts/authority.sol\":2197:2228  msg.sender == getPresidentAdd() */\n      0xffffffffffffffffffffffffffffffffffffffff\n      and\n        /* \"contracts/authority.sol\":2197:2207  msg.sender */\n      caller\n        /* \"contracts/authority.sol\":2197:2228  msg.sender == getPresidentAdd() */\n      0xffffffffffffffffffffffffffffffffffffffff\n      and\n      eq\n        /* \"contracts/authority.sol\":2197:2250  msg.sender == getPresidentAdd() && !getPresidentBan() */\n      dup1\n      iszero\n      tag_125\n      jumpi\n      pop\n        /* \"contracts/authority.sol\":2233:2250  getPresidentBan() */\n      tag_126\n        /* \"contracts/authority.sol\":2233:2248  getPresidentBan */\n      tag_54\n        /* \"contracts/authority.sol\":2233:2250  getPresidentBan() */\n      jump\t// in\n    tag_126:\n        /* \"contracts/authority.sol\":2232:2250  !getPresidentBan() */\n      iszero\n        /* \"contracts/authority.sol\":2197:2250  msg.sender == getPresidentAdd() && !getPresidentBan() */\n    tag_125:\n        /* \"contracts/authority.sol\":2189:2274  require(msg.sender == getPresidentAdd() && !getPresidentBan(), \"Access is not valid\") */\n      tag_127\n      jumpi\n      mload(0x40)\n      0x08c379a000000000000000000000000000000000000000000000000000000000\n      dup2\n      mstore\n      0x04\n      add\n      tag_128\n      swap1\n      tag_94\n      jump\t// in\n    tag_128:\n      mload(0x40)\n      dup1\n      swap2\n      sub\n      swap1\n      revert\n    tag_127:\n        /* \"contracts/authority.sol\":2047:2274  if (TimeFirstElection < block.timestamp) {... */\n    tag_123:\n        /* \"contracts/authority.sol\":3836:3851  block.timestamp */\n      timestamp\n        /* \"contracts/authority.sol\":3804:3833  _delayConfirmRepublicGAddress */\n      0x03\n      0x14\n      swap1\n      sload\n      swap1\n      0x0100\n      exp\n      swap1\n      div\n      0xffffffffffff\n      and\n        /* \"contracts/authority.sol\":3804:3851  _delayConfirmRepublicGAddress < block.timestamp */\n      0xffffffffffff\n      and\n      lt\n        /* \"contracts/authority.sol\":3800:4350  if (_delayConfirmRepublicGAddress < block.timestamp) {... */\n      iszero\n      tag_130\n      jumpi\n        /* \"contracts/authority.sol\":3909:3910  0 */\n      0x00\n        /* \"contracts/authority.sol\":3876:3905  _delayConfirmRepublicGAddress */\n      0x03\n      0x14\n      swap1\n      sload\n      swap1\n      0x0100\n      exp\n      swap1\n      div\n      0xffffffffffff\n      and\n        /* \"contracts/authority.sol\":3876:3910  _delayConfirmRepublicGAddress != 0 */\n      0xffffffffffff\n      and\n      sub\n        /* \"contracts/authority.sol\":3868:3936  require(_delayConfirmRepublicGAddress != 0,\"The request is invalid\") */\n      tag_131\n      jumpi\n      mload(0x40)\n      0x08c379a000000000000000000000000000000000000000000000000000000000\n      dup2\n      mstore\n      0x04\n      add\n      tag_132\n      swap1\n      tag_133\n      jump\t// in\n    tag_132:\n      mload(0x40)\n      dup1\n      swap2\n      sub\n      swap1\n      revert\n    tag_131:\n        /* \"contracts/authority.sol\":3982:3991  RGAddress */\n      dup1\n        /* \"contracts/authority.sol\":3955:3991  _pendigRepublicGAddress == RGAddress */\n      0xffffffffffffffffffffffffffffffffffffffff\n      and\n        /* \"contracts/authority.sol\":3955:3978  _pendigRepublicGAddress */\n      0x00\n      dup1\n      sload\n      swap1\n      0x0100\n      exp\n      swap1\n      div\n      0xffffffffffffffffffffffffffffffffffffffff\n      and\n        /* \"contracts/authority.sol\":3955:3991  _pendigRepublicGAddress == RGAddress */\n      0xffffffffffffffffffffffffffffffffffffffff\n      and\n      sub\n        /* \"contracts/authority.sol\":3951:4225  if (_pendigRepublicGAddress == RGAddress) {... */\n      tag_134\n      jumpi\n        /* \"contracts/authority.sol\":4019:4048  _delayConfirmRepublicGAddress */\n      0x03\n      0x14\n        /* \"contracts/authority.sol\":4012:4048  delete _delayConfirmRepublicGAddress */\n      0x0100\n      exp\n      dup2\n      sload\n      swap1\n      0xffffffffffff\n      mul\n      not\n      and\n      swap1\n      sstore\n        /* \"contracts/authority.sol\":4074:4097  _pendigRepublicGAddress */\n      0x00\n      dup1\n        /* \"contracts/authority.sol\":4067:4097  delete _pendigRepublicGAddress */\n      0x0100\n      exp\n      dup2\n      sload\n      swap1\n      0xffffffffffffffffffffffffffffffffffffffff\n      mul\n      not\n      and\n      swap1\n      sstore\n        /* \"contracts/authority.sol\":4116:4152  _transferRepublicGAddress(RGAddress) */\n      tag_135\n        /* \"contracts/authority.sol\":4142:4151  RGAddress */\n      dup2\n        /* \"contracts/authority.sol\":4116:4141  _transferRepublicGAddress */\n      tag_136\n        /* \"contracts/authority.sol\":4116:4152  _transferRepublicGAddress(RGAddress) */\n      jump\t// in\n    tag_135:\n        /* \"contracts/authority.sol\":3951:4225  if (_pendigRepublicGAddress == RGAddress) {... */\n      jump(tag_137)\n    tag_134:\n        /* \"contracts/authority.sol\":4215:4224  RGAddress */\n      dup1\n        /* \"contracts/authority.sol\":4183:4225  TheAddressIsNotValidForRAddress(RGAddress) */\n      mload(0x40)\n      0xc632231500000000000000000000000000000000000000000000000000000000\n      dup2\n      mstore\n      0x04\n      add\n      tag_138\n      swap2\n      swap1\n      tag_40\n      jump\t// in\n    tag_138:\n      mload(0x40)\n      dup1\n      swap2\n      sub\n      swap1\n      revert\n        /* \"contracts/authority.sol\":3951:4225  if (_pendigRepublicGAddress == RGAddress) {... */\n    tag_137:\n        /* \"contracts/authority.sol\":3800:4350  if (_delayConfirmRepublicGAddress < block.timestamp) {... */\n      jump(tag_139)\n    tag_130:\n        /* \"contracts/authority.sol\":4333:4348  block.timestamp */\n      timestamp\n        /* \"contracts/authority.sol\":4294:4323  _delayConfirmRepublicGAddress */\n      0x03\n      0x14\n      swap1\n      sload\n      swap1\n      0x0100\n      exp\n      swap1\n      div\n      0xffffffffffff\n      and\n        /* \"contracts/authority.sol\":4294:4349  _delayConfirmRepublicGAddress - uint48(block.timestamp) */\n      tag_140\n      swap2\n      swap1\n      tag_141\n      jump\t// in\n    tag_140:\n        /* \"contracts/authority.sol\":4252:4350  RemainingTimeUntilTheConfirmationDeadline(_delayConfirmRepublicGAddress - uint48(block.timestamp)) */\n      mload(0x40)\n      0x223a6cbb00000000000000000000000000000000000000000000000000000000\n      dup2\n      mstore\n      0x04\n      add\n      tag_142\n      swap2\n      swap1\n      tag_143\n      jump\t// in\n    tag_142:\n      mload(0x40)\n      dup1\n      swap2\n      sub\n      swap1\n      revert\n        /* \"contracts/authority.sol\":3800:4350  if (_delayConfirmRepublicGAddress < block.timestamp) {... */\n    tag_139:\n        /* \"contracts/authority.sol\":3716:4358  function transferRepublicGAddress(address RGAddress) public onlyRepublic {... */\n      pop\n      jump\t// out\n        /* \"contracts/authority.sol\":7631:7731  function getGovernance() public view returns (address) {... */\n    tag_38:\n        /* \"contracts/authority.sol\":7677:7684  address */\n      0x00\n        /* \"contracts/authority.sol\":7704:7715  _governance */\n      0x06\n        /* \"contracts/authority.sol\":7704:7723  _governance.roleAdd */\n      0x00\n      add\n      0x00\n      swap1\n      sload\n      swap1\n      0x0100\n      exp\n      swap1\n      div\n      0xffffffffffffffffffffffffffffffffffffffff\n      and\n        /* \"contracts/authority.sol\":7697:7723  return _governance.roleAdd */\n      swap1\n      pop\n        /* \"contracts/authority.sol\":7631:7731  function getGovernance() public view returns (address) {... */\n      swap1\n      jump\t// out\n        /* \"contracts/authority.sol\":4869:4985  function getRepublicGAddress() public view returns (address RG) {... */\n    tag_42:\n        /* \"contracts/authority.sol\":4921:4931  address RG */\n      0x00\n        /* \"contracts/authority.sol\":4955:4965  _RepublicG */\n      0x07\n        /* \"contracts/authority.sol\":4955:4973  _RepublicG.roleAdd */\n      0x00\n      add\n      0x00\n      swap1\n      sload\n      swap1\n      0x0100\n      exp\n      swap1\n      div\n      0xffffffffffffffffffffffffffffffffffffffff\n      and\n        /* \"contracts/authority.sol\":4948:4973  return _RepublicG.roleAdd */\n      swap1\n      pop\n        /* \"contracts/authority.sol\":4869:4985  function getRepublicGAddress() public view returns (address RG) {... */\n      swap1\n      jump\t// out\n        /* \"contracts/authority.sol\":4366:4749  function cancelPendingRepublicGAddress(address PRGAdress) public onlyRepublic {... */\n    tag_46:\n        /* \"contracts/authority.sol\":2071:2086  block.timestamp */\n      timestamp\n        /* \"contracts/authority.sol\":2051:2068  TimeFirstElection */\n      immutable(\"0x881472a5783e16aed4d4ff91eeebe17d420d379d078fc85dddb0a3a55a9abffe\")\n        /* \"contracts/authority.sol\":2051:2086  TimeFirstElection < block.timestamp */\n      0xffffffffffff\n      and\n      lt\n        /* \"contracts/authority.sol\":2047:2274  if (TimeFirstElection < block.timestamp) {... */\n      iszero\n      tag_147\n      jumpi\n        /* \"contracts/authority.sol\":2125:2145  getRepublicAddress() */\n      tag_148\n        /* \"contracts/authority.sol\":2125:2143  getRepublicAddress */\n      tag_72\n        /* \"contracts/authority.sol\":2125:2145  getRepublicAddress() */\n      jump\t// in\n    tag_148:\n        /* \"contracts/authority.sol\":2111:2145  msg.sender == getRepublicAddress() */\n      0xffffffffffffffffffffffffffffffffffffffff\n      and\n        /* \"contracts/authority.sol\":2111:2121  msg.sender */\n      caller\n        /* \"contracts/authority.sol\":2111:2145  msg.sender == getRepublicAddress() */\n      0xffffffffffffffffffffffffffffffffffffffff\n      and\n      eq\n        /* \"contracts/authority.sol\":2103:2169  require(msg.sender == getRepublicAddress(), \"Access is not valid\") */\n      tag_149\n      jumpi\n      mload(0x40)\n      0x08c379a000000000000000000000000000000000000000000000000000000000\n      dup2\n      mstore\n      0x04\n      add\n      tag_150\n      swap1\n      tag_94\n      jump\t// in\n    tag_150:\n      mload(0x40)\n      dup1\n      swap2\n      sub\n      swap1\n      revert\n    tag_149:\n        /* \"contracts/authority.sol\":2047:2274  if (TimeFirstElection < block.timestamp) {... */\n      jump(tag_151)\n    tag_147:\n        /* \"contracts/authority.sol\":2211:2228  getPresidentAdd() */\n      tag_152\n        /* \"contracts/authority.sol\":2211:2226  getPresidentAdd */\n      tag_51\n        /* \"contracts/authority.sol\":2211:2228  getPresidentAdd() */\n      jump\t// in\n    tag_152:\n        /* \"contracts/authority.sol\":2197:2228  msg.sender == getPresidentAdd() */\n      0xffffffffffffffffffffffffffffffffffffffff\n      and\n        /* \"contracts/authority.sol\":2197:2207  msg.sender */\n      caller\n        /* \"contracts/authority.sol\":2197:2228  msg.sender == getPresidentAdd() */\n      0xffffffffffffffffffffffffffffffffffffffff\n      and\n      eq\n        /* \"contracts/authority.sol\":2197:2250  msg.sender == getPresidentAdd() && !getPresidentBan() */\n      dup1\n      iszero\n      tag_153\n      jumpi\n      pop\n        /* \"contracts/authority.sol\":2233:2250  getPresidentBan() */\n      tag_154\n        /* \"contracts/authority.sol\":2233:2248  getPresidentBan */\n      tag_54\n        /* \"contracts/authority.sol\":2233:2250  getPresidentBan() */\n      jump\t// in\n    tag_154:\n        /* \"contracts/authority.sol\":2232:2250  !getPresidentBan() */\n      iszero\n        /* \"contracts/authority.sol\":2197:2250  msg.sender == getPresidentAdd() && !getPresidentBan() */\n    tag_153:\n        /* \"contracts/authority.sol\":2189:2274  require(msg.sender == getPresidentAdd() && !getPresidentBan(), \"Access is not valid\") */\n      tag_155\n      jumpi\n      mload(0x40)\n      0x08c379a000000000000000000000000000000000000000000000000000000000\n      dup2\n      mstore\n      0x04\n      add\n      tag_156\n      swap1\n      tag_94\n      jump\t// in\n    tag_156:\n      mload(0x40)\n      dup1\n      swap2\n      sub\n      swap1\n      revert\n    tag_155:\n        /* \"contracts/authority.sol\":2047:2274  if (TimeFirstElection < block.timestamp) {... */\n    tag_151:\n        /* \"contracts/authority.sol\":4486:4495  PRGAdress */\n      dup1\n        /* \"contracts/authority.sol\":4459:4495  _pendigRepublicGAddress == PRGAdress */\n      0xffffffffffffffffffffffffffffffffffffffff\n      and\n        /* \"contracts/authority.sol\":4459:4482  _pendigRepublicGAddress */\n      0x00\n      dup1\n      sload\n      swap1\n      0x0100\n      exp\n      swap1\n      div\n      0xffffffffffffffffffffffffffffffffffffffff\n      and\n        /* \"contracts/authority.sol\":4459:4495  _pendigRepublicGAddress == PRGAdress */\n      0xffffffffffffffffffffffffffffffffffffffff\n      and\n      sub\n        /* \"contracts/authority.sol\":4455:4741  if (_pendigRepublicGAddress == PRGAdress) {... */\n      tag_158\n      jumpi\n        /* \"contracts/authority.sol\":4523:4552  _delayConfirmRepublicGAddress */\n      0x03\n      0x14\n        /* \"contracts/authority.sol\":4516:4552  delete _delayConfirmRepublicGAddress */\n      0x0100\n      exp\n      dup2\n      sload\n      swap1\n      0xffffffffffff\n      mul\n      not\n      and\n      swap1\n      sstore\n        /* \"contracts/authority.sol\":4578:4601  _pendigRepublicGAddress */\n      0x00\n      dup1\n        /* \"contracts/authority.sol\":4571:4601  delete _pendigRepublicGAddress */\n      0x0100\n      exp\n      dup2\n      sload\n      swap1\n      0xffffffffffffffffffffffffffffffffffffffff\n      mul\n      not\n      and\n      swap1\n      sstore\n        /* \"contracts/authority.sol\":4662:4671  PRGAdress */\n      dup1\n        /* \"contracts/authority.sol\":4626:4672  TheNextRepublicGAddressWasCancelled(PRGAdress) */\n      0xffffffffffffffffffffffffffffffffffffffff\n      and\n      0x62125dd3d531106ff055aac7090ccec5e1edec1d0db6b0f1355f2ca154754695\n      mload(0x40)\n      mload(0x40)\n      dup1\n      swap2\n      sub\n      swap1\n      log2\n        /* \"contracts/authority.sol\":4455:4741  if (_pendigRepublicGAddress == PRGAdress) {... */\n      jump(tag_159)\n    tag_158:\n        /* \"contracts/authority.sol\":4731:4740  PRGAdress */\n      dup1\n        /* \"contracts/authority.sol\":4699:4741  TheAddressIsNotValidForRAddress(PRGAdress) */\n      mload(0x40)\n      0xc632231500000000000000000000000000000000000000000000000000000000\n      dup2\n      mstore\n      0x04\n      add\n      tag_160\n      swap2\n      swap1\n      tag_40\n      jump\t// in\n    tag_160:\n      mload(0x40)\n      dup1\n      swap2\n      sub\n      swap1\n      revert\n        /* \"contracts/authority.sol\":4455:4741  if (_pendigRepublicGAddress == PRGAdress) {... */\n    tag_159:\n        /* \"contracts/authority.sol\":4366:4749  function cancelPendingRepublicGAddress(address PRGAdress) public onlyRepublic {... */\n      pop\n      jump\t// out\n        /* \"contracts/authority.sol\":5981:6153  function setPendingPrimeMinister(address newPM) public onlyPresident {... */\n    tag_49:\n        /* \"contracts/authority.sol\":2662:2679  getPresidentAdd() */\n      tag_162\n        /* \"contracts/authority.sol\":2662:2677  getPresidentAdd */\n      tag_51\n        /* \"contracts/authority.sol\":2662:2679  getPresidentAdd() */\n      jump\t// in\n    tag_162:\n        /* \"contracts/authority.sol\":2648:2679  msg.sender == getPresidentAdd() */\n      0xffffffffffffffffffffffffffffffffffffffff\n      and\n        /* \"contracts/authority.sol\":2648:2658  msg.sender */\n      caller\n        /* \"contracts/authority.sol\":2648:2679  msg.sender == getPresidentAdd() */\n      0xffffffffffffffffffffffffffffffffffffffff\n      and\n      eq\n        /* \"contracts/authority.sol\":2648:2701  msg.sender == getPresidentAdd() && !getPresidentBan() */\n      dup1\n      iszero\n      tag_163\n      jumpi\n      pop\n        /* \"contracts/authority.sol\":2684:2701  getPresidentBan() */\n      tag_164\n        /* \"contracts/authority.sol\":2684:2699  getPresidentBan */\n      tag_54\n        /* \"contracts/authority.sol\":2684:2701  getPresidentBan() */\n      jump\t// in\n    tag_164:\n        /* \"contracts/authority.sol\":2683:2701  !getPresidentBan() */\n      iszero\n        /* \"contracts/authority.sol\":2648:2701  msg.sender == getPresidentAdd() && !getPresidentBan() */\n    tag_163:\n        /* \"contracts/authority.sol\":2640:2725  require(msg.sender == getPresidentAdd() && !getPresidentBan(), \"Access is not valid\") */\n      tag_165\n      jumpi\n      mload(0x40)\n      0x08c379a000000000000000000000000000000000000000000000000000000000\n      dup2\n      mstore\n      0x04\n      add\n      tag_166\n      swap1\n      tag_94\n      jump\t// in\n    tag_166:\n      mload(0x40)\n      dup1\n      swap2\n      sub\n      swap1\n      revert\n    tag_165:\n        /* \"contracts/authority.sol\":6085:6090  newPM */\n      dup1\n        /* \"contracts/authority.sol\":6061:6082  _pendingPrimeMinister */\n      0x03\n      0x00\n        /* \"contracts/authority.sol\":6061:6090  _pendingPrimeMinister = newPM */\n      0x0100\n      exp\n      dup2\n      sload\n      dup2\n      0xffffffffffffffffffffffffffffffffffffffff\n      mul\n      not\n      and\n      swap1\n      dup4\n      0xffffffffffffffffffffffffffffffffffffffff\n      and\n      mul\n      or\n      swap1\n      sstore\n      pop\n        /* \"contracts/authority.sol\":6139:6144  newPM */\n      dup1\n        /* \"contracts/authority.sol\":6108:6145  TheNextPrimeMinisterWasElected(newPM) */\n      0xffffffffffffffffffffffffffffffffffffffff\n      and\n      0xff3cad3ee28c342ad5f3d7c8ff8559ee4d21eb48494092b82a1652e443b3420b\n      mload(0x40)\n      mload(0x40)\n      dup1\n      swap2\n      sub\n      swap1\n      log2\n        /* \"contracts/authority.sol\":5981:6153  function setPendingPrimeMinister(address newPM) public onlyPresident {... */\n      pop\n      jump\t// out\n        /* \"contracts/authority.sol\":5768:5869  function getPresidentAdd() public view returns (address) {... */\n    tag_51:\n        /* \"contracts/authority.sol\":5816:5823  address */\n      0x00\n        /* \"contracts/authority.sol\":5843:5853  _president */\n      0x04\n        /* \"contracts/authority.sol\":5843:5861  _president.roleAdd */\n      0x00\n      add\n      0x00\n      swap1\n      sload\n      swap1\n      0x0100\n      exp\n      swap1\n      div\n      0xffffffffffffffffffffffffffffffffffffffff\n      and\n        /* \"contracts/authority.sol\":5836:5861  return _president.roleAdd */\n      swap1\n      pop\n        /* \"contracts/authority.sol\":5768:5869  function getPresidentAdd() public view returns (address) {... */\n      swap1\n      jump\t// out\n        /* \"contracts/authority.sol\":5877:5973  function getPresidentBan() public view returns (bool) {... */\n    tag_54:\n        /* \"contracts/authority.sol\":5925:5929  bool */\n      0x00\n        /* \"contracts/authority.sol\":5949:5959  _president */\n      0x04\n        /* \"contracts/authority.sol\":5949:5965  _president.baned */\n      0x00\n      add\n      0x14\n      swap1\n      sload\n      swap1\n      0x0100\n      exp\n      swap1\n      div\n      0xff\n      and\n        /* \"contracts/authority.sol\":5942:5965  return _president.baned */\n      swap1\n      pop\n        /* \"contracts/authority.sol\":5877:5973  function getPresidentBan() public view returns (bool) {... */\n      swap1\n      jump\t// out\n        /* \"contracts/authority.sol\":3141:3708  function setPendingRepublicGAddress(address newRGAddress) public onlyRepublic {... */\n    tag_59:\n        /* \"contracts/authority.sol\":2071:2086  block.timestamp */\n      timestamp\n        /* \"contracts/authority.sol\":2051:2068  TimeFirstElection */\n      immutable(\"0x881472a5783e16aed4d4ff91eeebe17d420d379d078fc85dddb0a3a55a9abffe\")\n        /* \"contracts/authority.sol\":2051:2086  TimeFirstElection < block.timestamp */\n      0xffffffffffff\n      and\n      lt\n        /* \"contracts/authority.sol\":2047:2274  if (TimeFirstElection < block.timestamp) {... */\n      iszero\n      tag_171\n      jumpi\n        /* \"contracts/authority.sol\":2125:2145  getRepublicAddress() */\n      tag_172\n        /* \"contracts/authority.sol\":2125:2143  getRepublicAddress */\n      tag_72\n        /* \"contracts/authority.sol\":2125:2145  getRepublicAddress() */\n      jump\t// in\n    tag_172:\n        /* \"contracts/authority.sol\":2111:2145  msg.sender == getRepublicAddress() */\n      0xffffffffffffffffffffffffffffffffffffffff\n      and\n        /* \"contracts/authority.sol\":2111:2121  msg.sender */\n      caller\n        /* \"contracts/authority.sol\":2111:2145  msg.sender == getRepublicAddress() */\n      0xffffffffffffffffffffffffffffffffffffffff\n      and\n      eq\n        /* \"contracts/authority.sol\":2103:2169  require(msg.sender == getRepublicAddress(), \"Access is not valid\") */\n      tag_173\n      jumpi\n      mload(0x40)\n      0x08c379a000000000000000000000000000000000000000000000000000000000\n      dup2\n      mstore\n      0x04\n      add\n      tag_174\n      swap1\n      tag_94\n      jump\t// in\n    tag_174:\n      mload(0x40)\n      dup1\n      swap2\n      sub\n      swap1\n      revert\n    tag_173:\n        /* \"contracts/authority.sol\":2047:2274  if (TimeFirstElection < block.timestamp) {... */\n      jump(tag_175)\n    tag_171:\n        /* \"contracts/authority.sol\":2211:2228  getPresidentAdd() */\n      tag_176\n        /* \"contracts/authority.sol\":2211:2226  getPresidentAdd */\n      tag_51\n        /* \"contracts/authority.sol\":2211:2228  getPresidentAdd() */\n      jump\t// in\n    tag_176:\n        /* \"contracts/authority.sol\":2197:2228  msg.sender == getPresidentAdd() */\n      0xffffffffffffffffffffffffffffffffffffffff\n      and\n        /* \"contracts/authority.sol\":2197:2207  msg.sender */\n      caller\n        /* \"contracts/authority.sol\":2197:2228  msg.sender == getPresidentAdd() */\n      0xffffffffffffffffffffffffffffffffffffffff\n      and\n      eq\n        /* \"contracts/authority.sol\":2197:2250  msg.sender == getPresidentAdd() && !getPresidentBan() */\n      dup1\n      iszero\n      tag_177\n      jumpi\n      pop\n        /* \"contracts/authority.sol\":2233:2250  getPresidentBan() */\n      tag_178\n        /* \"contracts/authority.sol\":2233:2248  getPresidentBan */\n      tag_54\n        /* \"contracts/authority.sol\":2233:2250  getPresidentBan() */\n      jump\t// in\n    tag_178:\n        /* \"contracts/authority.sol\":2232:2250  !getPresidentBan() */\n      iszero\n        /* \"contracts/authority.sol\":2197:2250  msg.sender == getPresidentAdd() && !getPresidentBan() */\n    tag_177:\n        /* \"contracts/authority.sol\":2189:2274  require(msg.sender == getPresidentAdd() && !getPresidentBan(), \"Access is not valid\") */\n      tag_179\n      jumpi\n      mload(0x40)\n      0x08c379a000000000000000000000000000000000000000000000000000000000\n      dup2\n      mstore\n      0x04\n      add\n      tag_180\n      swap1\n      tag_94\n      jump\t// in\n    tag_180:\n      mload(0x40)\n      dup1\n      swap2\n      sub\n      swap1\n      revert\n    tag_179:\n        /* \"contracts/authority.sol\":2047:2274  if (TimeFirstElection < block.timestamp) {... */\n    tag_175:\n        /* \"contracts/authority.sol\":3261:3262  0 */\n      0x00\n        /* \"contracts/authority.sol\":3234:3246  newRGAddress */\n      dup2\n        /* \"contracts/authority.sol\":3234:3258  newRGAddress.code.length */\n      0xffffffffffffffffffffffffffffffffffffffff\n      and\n      extcodesize\n        /* \"contracts/authority.sol\":3234:3262  newRGAddress.code.length > 0 */\n      gt\n        /* \"contracts/authority.sol\":3230:3698  if (newRGAddress.code.length > 0) {... */\n      iszero\n      tag_182\n      jumpi\n        /* \"contracts/authority.sol\":3305:3315  msg.sender */\n      caller\n        /* \"contracts/authority.sol\":3283:3315  _president.roleAdd == msg.sender */\n      0xffffffffffffffffffffffffffffffffffffffff\n      and\n        /* \"contracts/authority.sol\":3283:3293  _president */\n      0x04\n        /* \"contracts/authority.sol\":3283:3301  _president.roleAdd */\n      0x00\n      add\n      0x00\n      swap1\n      sload\n      swap1\n      0x0100\n      exp\n      swap1\n      div\n      0xffffffffffffffffffffffffffffffffffffffff\n      and\n        /* \"contracts/authority.sol\":3283:3315  _president.roleAdd == msg.sender */\n      0xffffffffffffffffffffffffffffffffffffffff\n      and\n      sub\n        /* \"contracts/authority.sol\":3279:3627  if (_president.roleAdd == msg.sender) {... */\n      tag_183\n      jumpi\n        /* \"contracts/authority.sol\":3336:3375  _transferRepublicGAddress(newRGAddress) */\n      tag_184\n        /* \"contracts/authority.sol\":3362:3374  newRGAddress */\n      dup2\n        /* \"contracts/authority.sol\":3336:3361  _transferRepublicGAddress */\n      tag_136\n        /* \"contracts/authority.sol\":3336:3375  _transferRepublicGAddress(newRGAddress) */\n      jump\t// in\n    tag_184:\n        /* \"contracts/authority.sol\":3279:3627  if (_president.roleAdd == msg.sender) {... */\n      jump(tag_185)\n    tag_183:\n        /* \"contracts/authority.sol\":3475:3482  15 days */\n      0x13c680\n        /* \"contracts/authority.sol\":3457:3472  block.timestamp */\n      timestamp\n        /* \"contracts/authority.sol\":3457:3482  block.timestamp + 15 days */\n      tag_186\n      swap2\n      swap1\n      tag_187\n      jump\t// in\n    tag_186:\n        /* \"contracts/authority.sol\":3418:3447  _delayConfirmRepublicGAddress */\n      0x03\n      0x14\n        /* \"contracts/authority.sol\":3418:3483  _delayConfirmRepublicGAddress = uint48(block.timestamp + 15 days) */\n      0x0100\n      exp\n      dup2\n      sload\n      dup2\n      0xffffffffffff\n      mul\n      not\n      and\n      swap1\n      dup4\n      0xffffffffffff\n      and\n      mul\n      or\n      swap1\n      sstore\n      pop\n        /* \"contracts/authority.sol\":3528:3540  newRGAddress */\n      dup1\n        /* \"contracts/authority.sol\":3502:3525  _pendigRepublicGAddress */\n      0x00\n      dup1\n        /* \"contracts/authority.sol\":3502:3540  _pendigRepublicGAddress = newRGAddress */\n      0x0100\n      exp\n      dup2\n      sload\n      dup2\n      0xffffffffffffffffffffffffffffffffffffffff\n      mul\n      not\n      and\n      swap1\n      dup4\n      0xffffffffffffffffffffffffffffffffffffffff\n      and\n      mul\n      or\n      swap1\n      sstore\n      pop\n        /* \"contracts/authority.sol\":3598:3610  newRGAddress */\n      dup1\n        /* \"contracts/authority.sol\":3564:3611  TheNextRepublicGAddressWasElected(newRGAddress) */\n      0xffffffffffffffffffffffffffffffffffffffff\n      and\n      0x30b8fe69c9b4c23cc01223881227c0cc8cba5cc56d59263f51711df1a8f2c667\n      mload(0x40)\n      mload(0x40)\n      dup1\n      swap2\n      sub\n      swap1\n      log2\n        /* \"contracts/authority.sol\":3279:3627  if (_president.roleAdd == msg.sender) {... */\n    tag_185:\n        /* \"contracts/authority.sol\":3230:3698  if (newRGAddress.code.length > 0) {... */\n      jump(tag_188)\n    tag_182:\n        /* \"contracts/authority.sol\":3685:3697  newRGAddress */\n      dup1\n        /* \"contracts/authority.sol\":3653:3698  TheAddressIsNotValidForRAddress(newRGAddress) */\n      mload(0x40)\n      0xc632231500000000000000000000000000000000000000000000000000000000\n      dup2\n      mstore\n      0x04\n      add\n      tag_189\n      swap2\n      swap1\n      tag_40\n      jump\t// in\n    tag_189:\n      mload(0x40)\n      dup1\n      swap2\n      sub\n      swap1\n      revert\n        /* \"contracts/authority.sol\":3230:3698  if (newRGAddress.code.length > 0) {... */\n    tag_188:\n        /* \"contracts/authority.sol\":3141:3708  function setPendingRepublicGAddress(address newRGAddress) public onlyRepublic {... */\n      pop\n      jump\t// out\n        /* \"contracts/authority.sol\":6650:6759  function getPrimeMinisterAdd() public view returns (address) {... */\n    tag_61:\n        /* \"contracts/authority.sol\":6702:6709  address */\n      0x00\n        /* \"contracts/authority.sol\":6729:6743  _primeMinister */\n      0x05\n        /* \"contracts/authority.sol\":6729:6751  _primeMinister.roleAdd */\n      0x00\n      add\n      0x00\n      swap1\n      sload\n      swap1\n      0x0100\n      exp\n      swap1\n      div\n      0xffffffffffffffffffffffffffffffffffffffff\n      and\n        /* \"contracts/authority.sol\":6722:6751  return _primeMinister.roleAdd */\n      swap1\n      pop\n        /* \"contracts/authority.sol\":6650:6759  function getPrimeMinisterAdd() public view returns (address) {... */\n      swap1\n      jump\t// out\n        /* \"contracts/authority.sol\":7851:7994  function setPresidentBaned(bool baned) public onlyRepublic {... */\n    tag_66:\n        /* \"contracts/authority.sol\":2071:2086  block.timestamp */\n      timestamp\n        /* \"contracts/authority.sol\":2051:2068  TimeFirstElection */\n      immutable(\"0x881472a5783e16aed4d4ff91eeebe17d420d379d078fc85dddb0a3a55a9abffe\")\n        /* \"contracts/authority.sol\":2051:2086  TimeFirstElection < block.timestamp */\n      0xffffffffffff\n      and\n      lt\n        /* \"contracts/authority.sol\":2047:2274  if (TimeFirstElection < block.timestamp) {... */\n      iszero\n      tag_192\n      jumpi\n        /* \"contracts/authority.sol\":2125:2145  getRepublicAddress() */\n      tag_193\n        /* \"contracts/authority.sol\":2125:2143  getRepublicAddress */\n      tag_72\n        /* \"contracts/authority.sol\":2125:2145  getRepublicAddress() */\n      jump\t// in\n    tag_193:\n        /* \"contracts/authority.sol\":2111:2145  msg.sender == getRepublicAddress() */\n      0xffffffffffffffffffffffffffffffffffffffff\n      and\n        /* \"contracts/authority.sol\":2111:2121  msg.sender */\n      caller\n        /* \"contracts/authority.sol\":2111:2145  msg.sender == getRepublicAddress() */\n      0xffffffffffffffffffffffffffffffffffffffff\n      and\n      eq\n        /* \"contracts/authority.sol\":2103:2169  require(msg.sender == getRepublicAddress(), \"Access is not valid\") */\n      tag_194\n      jumpi\n      mload(0x40)\n      0x08c379a000000000000000000000000000000000000000000000000000000000\n      dup2\n      mstore\n      0x04\n      add\n      tag_195\n      swap1\n      tag_94\n      jump\t// in\n    tag_195:\n      mload(0x40)\n      dup1\n      swap2\n      sub\n      swap1\n      revert\n    tag_194:\n        /* \"contracts/authority.sol\":2047:2274  if (TimeFirstElection < block.timestamp) {... */\n      jump(tag_196)\n    tag_192:\n        /* \"contracts/authority.sol\":2211:2228  getPresidentAdd() */\n      tag_197\n        /* \"contracts/authority.sol\":2211:2226  getPresidentAdd */\n      tag_51\n        /* \"contracts/authority.sol\":2211:2228  getPresidentAdd() */\n      jump\t// in\n    tag_197:\n        /* \"contracts/authority.sol\":2197:2228  msg.sender == getPresidentAdd() */\n      0xffffffffffffffffffffffffffffffffffffffff\n      and\n        /* \"contracts/authority.sol\":2197:2207  msg.sender */\n      caller\n        /* \"contracts/authority.sol\":2197:2228  msg.sender == getPresidentAdd() */\n      0xffffffffffffffffffffffffffffffffffffffff\n      and\n      eq\n        /* \"contracts/authority.sol\":2197:2250  msg.sender == getPresidentAdd() && !getPresidentBan() */\n      dup1\n      iszero\n      tag_198\n      jumpi\n      pop\n        /* \"contracts/authority.sol\":2233:2250  getPresidentBan() */\n      tag_199\n        /* \"contracts/authority.sol\":2233:2248  getPresidentBan */\n      tag_54\n        /* \"contracts/authority.sol\":2233:2250  getPresidentBan() */\n      jump\t// in\n    tag_199:\n        /* \"contracts/authority.sol\":2232:2250  !getPresidentBan() */\n      iszero\n        /* \"contracts/authority.sol\":2197:2250  msg.sender == getPresidentAdd() && !getPresidentBan() */\n    tag_198:\n        /* \"contracts/authority.sol\":2189:2274  require(msg.sender == getPresidentAdd() && !getPresidentBan(), \"Access is not valid\") */\n      tag_200\n      jumpi\n      mload(0x40)\n      0x08c379a000000000000000000000000000000000000000000000000000000000\n      dup2\n      mstore\n      0x04\n      add\n      tag_201\n      swap1\n      tag_94\n      jump\t// in\n    tag_201:\n      mload(0x40)\n      dup1\n      swap2\n      sub\n      swap1\n      revert\n    tag_200:\n        /* \"contracts/authority.sol\":2047:2274  if (TimeFirstElection < block.timestamp) {... */\n    tag_196:\n        /* \"contracts/authority.sol\":7921:7946  _setPresidentBaned(baned) */\n      tag_203\n        /* \"contracts/authority.sol\":7940:7945  baned */\n      dup2\n        /* \"contracts/authority.sol\":7921:7939  _setPresidentBaned */\n      tag_103\n        /* \"contracts/authority.sol\":7921:7946  _setPresidentBaned(baned) */\n      jump\t// in\n    tag_203:\n        /* \"contracts/authority.sol\":7957:7986  _setPrimeMinisterBaned(baned) */\n      tag_204\n        /* \"contracts/authority.sol\":7980:7985  baned */\n      dup2\n        /* \"contracts/authority.sol\":7957:7979  _setPrimeMinisterBaned */\n      tag_105\n        /* \"contracts/authority.sol\":7957:7986  _setPrimeMinisterBaned(baned) */\n      jump\t// in\n    tag_204:\n        /* \"contracts/authority.sol\":7851:7994  function setPresidentBaned(bool baned) public onlyRepublic {... */\n      pop\n      jump\t// out\n        /* \"contracts/authority.sol\":7739:7843  function getgovernanceVersion() public view returns (uint32) {... */\n    tag_68:\n        /* \"contracts/authority.sol\":7792:7798  uint32 */\n      0x00\n        /* \"contracts/authority.sol\":7818:7829  _governance */\n      0x06\n        /* \"contracts/authority.sol\":7818:7835  _governance.nonce */\n      0x00\n      add\n      0x15\n      swap1\n      sload\n      swap1\n      0x0100\n      exp\n      swap1\n      div\n      0xffffffff\n      and\n        /* \"contracts/authority.sol\":7811:7835  return _governance.nonce */\n      swap1\n      pop\n        /* \"contracts/authority.sol\":7739:7843  function getgovernanceVersion() public view returns (uint32) {... */\n      swap1\n      jump\t// out\n        /* \"contracts/authority.sol\":4757:4861  function getRepublicAddress() public view returns (address R) {... */\n    tag_72:\n        /* \"contracts/authority.sol\":4808:4817  address R */\n      0x00\n        /* \"contracts/authority.sol\":4841:4849  Republic */\n      immutable(\"0x4393e7114eb674248a1480712950c28cb06e118e040859a2eafa3ca8a6dfbd69\")\n        /* \"contracts/authority.sol\":4834:4849  return Republic */\n      swap1\n      pop\n        /* \"contracts/authority.sol\":4757:4861  function getRepublicAddress() public view returns (address R) {... */\n      swap1\n      jump\t// out\n        /* \"contracts/authority.sol\":6881:7196  function setPendingGovernanceContractAddress(address newGCAddress) public onlyRepublic {... */\n    tag_76:\n        /* \"contracts/authority.sol\":2071:2086  block.timestamp */\n      timestamp\n        /* \"contracts/authority.sol\":2051:2068  TimeFirstElection */\n      immutable(\"0x881472a5783e16aed4d4ff91eeebe17d420d379d078fc85dddb0a3a55a9abffe\")\n        /* \"contracts/authority.sol\":2051:2086  TimeFirstElection < block.timestamp */\n      0xffffffffffff\n      and\n      lt\n        /* \"contracts/authority.sol\":2047:2274  if (TimeFirstElection < block.timestamp) {... */\n      iszero\n      tag_208\n      jumpi\n        /* \"contracts/authority.sol\":2125:2145  getRepublicAddress() */\n      tag_209\n        /* \"contracts/authority.sol\":2125:2143  getRepublicAddress */\n      tag_72\n        /* \"contracts/authority.sol\":2125:2145  getRepublicAddress() */\n      jump\t// in\n    tag_209:\n        /* \"contracts/authority.sol\":2111:2145  msg.sender == getRepublicAddress() */\n      0xffffffffffffffffffffffffffffffffffffffff\n      and\n        /* \"contracts/authority.sol\":2111:2121  msg.sender */\n      caller\n        /* \"contracts/authority.sol\":2111:2145  msg.sender == getRepublicAddress() */\n      0xffffffffffffffffffffffffffffffffffffffff\n      and\n      eq\n        /* \"contracts/authority.sol\":2103:2169  require(msg.sender == getRepublicAddress(), \"Access is not valid\") */\n      tag_210\n      jumpi\n      mload(0x40)\n      0x08c379a000000000000000000000000000000000000000000000000000000000\n      dup2\n      mstore\n      0x04\n      add\n      tag_211\n      swap1\n      tag_94\n      jump\t// in\n    tag_211:\n      mload(0x40)\n      dup1\n      swap2\n      sub\n      swap1\n      revert\n    tag_210:\n        /* \"contracts/authority.sol\":2047:2274  if (TimeFirstElection < block.timestamp) {... */\n      jump(tag_212)\n    tag_208:\n        /* \"contracts/authority.sol\":2211:2228  getPresidentAdd() */\n      tag_213\n        /* \"contracts/authority.sol\":2211:2226  getPresidentAdd */\n      tag_51\n        /* \"contracts/authority.sol\":2211:2228  getPresidentAdd() */\n      jump\t// in\n    tag_213:\n        /* \"contracts/authority.sol\":2197:2228  msg.sender == getPresidentAdd() */\n      0xffffffffffffffffffffffffffffffffffffffff\n      and\n        /* \"contracts/authority.sol\":2197:2207  msg.sender */\n      caller\n        /* \"contracts/authority.sol\":2197:2228  msg.sender == getPresidentAdd() */\n      0xffffffffffffffffffffffffffffffffffffffff\n      and\n      eq\n        /* \"contracts/authority.sol\":2197:2250  msg.sender == getPresidentAdd() && !getPresidentBan() */\n      dup1\n      iszero\n      tag_214\n      jumpi\n      pop\n        /* \"contracts/authority.sol\":2233:2250  getPresidentBan() */\n      tag_215\n        /* \"contracts/authority.sol\":2233:2248  getPresidentBan */\n      tag_54\n        /* \"contracts/authority.sol\":2233:2250  getPresidentBan() */\n      jump\t// in\n    tag_215:\n        /* \"contracts/authority.sol\":2232:2250  !getPresidentBan() */\n      iszero\n        /* \"contracts/authority.sol\":2197:2250  msg.sender == getPresidentAdd() && !getPresidentBan() */\n    tag_214:\n        /* \"contracts/authority.sol\":2189:2274  require(msg.sender == getPresidentAdd() && !getPresidentBan(), \"Access is not valid\") */\n      tag_216\n      jumpi\n      mload(0x40)\n      0x08c379a000000000000000000000000000000000000000000000000000000000\n      dup2\n      mstore\n      0x04\n      add\n      tag_217\n      swap1\n      tag_94\n      jump\t// in\n    tag_217:\n      mload(0x40)\n      dup1\n      swap2\n      sub\n      swap1\n      revert\n    tag_216:\n        /* \"contracts/authority.sol\":2047:2274  if (TimeFirstElection < block.timestamp) {... */\n    tag_212:\n        /* \"contracts/authority.sol\":7010:7011  0 */\n      0x00\n        /* \"contracts/authority.sol\":6983:6995  newGCAddress */\n      dup2\n        /* \"contracts/authority.sol\":6983:7007  newGCAddress.code.length */\n      0xffffffffffffffffffffffffffffffffffffffff\n      and\n      extcodesize\n        /* \"contracts/authority.sol\":6983:7011  newGCAddress.code.length > 0 */\n      gt\n        /* \"contracts/authority.sol\":6979:7186  if (newGCAddress.code.length > 0) {... */\n      iszero\n      tag_219\n      jumpi\n        /* \"contracts/authority.sol\":7048:7060  newGCAddress */\n      dup1\n        /* \"contracts/authority.sol\":7028:7045  _pendingGCAddress */\n      0x01\n      0x00\n        /* \"contracts/authority.sol\":7028:7060  _pendingGCAddress = newGCAddress */\n      0x0100\n      exp\n      dup2\n      sload\n      dup2\n      0xffffffffffffffffffffffffffffffffffffffff\n      mul\n      not\n      and\n      swap1\n      dup4\n      0xffffffffffffffffffffffffffffffffffffffff\n      and\n      mul\n      or\n      swap1\n      sstore\n      pop\n        /* \"contracts/authority.sol\":7107:7119  newGCAddress */\n      dup1\n        /* \"contracts/authority.sol\":7080:7120  TheNextGCAddressWasElected(newGCAddress) */\n      0xffffffffffffffffffffffffffffffffffffffff\n      and\n      0xe8d8e3c7c3ebec0c177d0fe22d223f8b5071db39155104808d45027e368ba77a\n      mload(0x40)\n      mload(0x40)\n      dup1\n      swap2\n      sub\n      swap1\n      log2\n        /* \"contracts/authority.sol\":6979:7186  if (newGCAddress.code.length > 0) {... */\n      jump(tag_220)\n    tag_219:\n        /* \"contracts/authority.sol\":7173:7185  newGCAddress */\n      dup1\n        /* \"contracts/authority.sol\":7147:7186  TheAddressIsNotValidForGC(newGCAddress) */\n      mload(0x40)\n      0x84dbc6cb00000000000000000000000000000000000000000000000000000000\n      dup2\n      mstore\n      0x04\n      add\n      tag_221\n      swap2\n      swap1\n      tag_40\n      jump\t// in\n    tag_221:\n      mload(0x40)\n      dup1\n      swap2\n      sub\n      swap1\n      revert\n        /* \"contracts/authority.sol\":6979:7186  if (newGCAddress.code.length > 0) {... */\n    tag_220:\n        /* \"contracts/authority.sol\":6881:7196  function setPendingGovernanceContractAddress(address newGCAddress) public onlyRepublic {... */\n      pop\n      jump\t// out\n        /* \"contracts/authority.sol\":4997:5106  function getAuthorityAddress() public view returns (address) {... */\n    tag_78:\n        /* \"contracts/authority.sol\":5049:5056  address */\n      0x00\n        /* \"contracts/authority.sol\":5089:5093  this */\n      address\n        /* \"contracts/authority.sol\":5073:5094  return  address(this) */\n      swap1\n      pop\n        /* \"contracts/authority.sol\":4997:5106  function getAuthorityAddress() public view returns (address) {... */\n      swap1\n      jump\t// out\n        /* \"contracts/authority.sol\":6767:6871  function getPrimeMinisterBan() public view returns (bool) {... */\n    tag_81:\n        /* \"contracts/authority.sol\":6819:6823  bool */\n      0x00\n        /* \"contracts/authority.sol\":6843:6857  _primeMinister */\n      0x05\n        /* \"contracts/authority.sol\":6843:6863  _primeMinister.baned */\n      0x00\n      add\n      0x14\n      swap1\n      sload\n      swap1\n      0x0100\n      exp\n      swap1\n      div\n      0xff\n      and\n        /* \"contracts/authority.sol\":6836:6863  return _primeMinister.baned */\n      swap1\n      pop\n        /* \"contracts/authority.sol\":6767:6871  function getPrimeMinisterBan() public view returns (bool) {... */\n      swap1\n      jump\t// out\n        /* \"contracts/authority.sol\":7204:7623  function transferGovernanceContractAddress(address pendingGCAdd) public onlyPresident {... */\n    tag_85:\n        /* \"contracts/authority.sol\":2662:2679  getPresidentAdd() */\n      tag_225\n        /* \"contracts/authority.sol\":2662:2677  getPresidentAdd */\n      tag_51\n        /* \"contracts/authority.sol\":2662:2679  getPresidentAdd() */\n      jump\t// in\n    tag_225:\n        /* \"contracts/authority.sol\":2648:2679  msg.sender == getPresidentAdd() */\n      0xffffffffffffffffffffffffffffffffffffffff\n      and\n        /* \"contracts/authority.sol\":2648:2658  msg.sender */\n      caller\n        /* \"contracts/authority.sol\":2648:2679  msg.sender == getPresidentAdd() */\n      0xffffffffffffffffffffffffffffffffffffffff\n      and\n      eq\n        /* \"contracts/authority.sol\":2648:2701  msg.sender == getPresidentAdd() && !getPresidentBan() */\n      dup1\n      iszero\n      tag_226\n      jumpi\n      pop\n        /* \"contracts/authority.sol\":2684:2701  getPresidentBan() */\n      tag_227\n        /* \"contracts/authority.sol\":2684:2699  getPresidentBan */\n      tag_54\n        /* \"contracts/authority.sol\":2684:2701  getPresidentBan() */\n      jump\t// in\n    tag_227:\n        /* \"contracts/authority.sol\":2683:2701  !getPresidentBan() */\n      iszero\n        /* \"contracts/authority.sol\":2648:2701  msg.sender == getPresidentAdd() && !getPresidentBan() */\n    tag_226:\n        /* \"contracts/authority.sol\":2640:2725  require(msg.sender == getPresidentAdd() && !getPresidentBan(), \"Access is not valid\") */\n      tag_228\n      jumpi\n      mload(0x40)\n      0x08c379a000000000000000000000000000000000000000000000000000000000\n      dup2\n      mstore\n      0x04\n      add\n      tag_229\n      swap1\n      tag_94\n      jump\t// in\n    tag_229:\n      mload(0x40)\n      dup1\n      swap2\n      sub\n      swap1\n      revert\n    tag_228:\n        /* \"contracts/authority.sol\":7326:7338  pendingGCAdd */\n      dup1\n        /* \"contracts/authority.sol\":7305:7338  _pendingGCAddress == pendingGCAdd */\n      0xffffffffffffffffffffffffffffffffffffffff\n      and\n        /* \"contracts/authority.sol\":7305:7322  _pendingGCAddress */\n      0x01\n      0x00\n      swap1\n      sload\n      swap1\n      0x0100\n      exp\n      swap1\n      div\n      0xffffffffffffffffffffffffffffffffffffffff\n      and\n        /* \"contracts/authority.sol\":7305:7338  _pendingGCAddress == pendingGCAdd */\n      0xffffffffffffffffffffffffffffffffffffffff\n      and\n      sub\n        /* \"contracts/authority.sol\":7301:7615  if (_pendingGCAddress == pendingGCAdd) {... */\n      tag_231\n      jumpi\n        /* \"contracts/authority.sol\":7362:7379  _pendingGCAddress */\n      0x01\n      0x00\n        /* \"contracts/authority.sol\":7355:7379  delete _pendingGCAddress */\n      0x0100\n      exp\n      dup2\n      sload\n      swap1\n      0xffffffffffffffffffffffffffffffffffffffff\n      mul\n      not\n      and\n      swap1\n      sstore\n        /* \"contracts/authority.sol\":7416:7428  pendingGCAdd */\n      dup1\n        /* \"contracts/authority.sol\":7394:7405  _governance */\n      0x06\n        /* \"contracts/authority.sol\":7394:7413  _governance.roleAdd */\n      0x00\n      add\n      0x00\n        /* \"contracts/authority.sol\":7394:7428  _governance.roleAdd = pendingGCAdd */\n      0x0100\n      exp\n      dup2\n      sload\n      dup2\n      0xffffffffffffffffffffffffffffffffffffffff\n      mul\n      not\n      and\n      swap1\n      dup4\n      0xffffffffffffffffffffffffffffffffffffffff\n      and\n      mul\n      or\n      swap1\n      sstore\n      pop\n        /* \"contracts/authority.sol\":7443:7454  _governance */\n      0x06\n        /* \"contracts/authority.sol\":7443:7460  _governance.nonce */\n      0x00\n      add\n      0x15\n        /* \"contracts/authority.sol\":7443:7462  _governance.nonce++ */\n      dup2\n      dup2\n      swap1\n      sload\n      swap1\n      0x0100\n      exp\n      swap1\n      div\n      0xffffffff\n      and\n      dup1\n      swap3\n      swap2\n      swap1\n      tag_232\n      swap1\n      tag_109\n      jump\t// in\n    tag_232:\n      swap2\n      swap1\n      0x0100\n      exp\n      dup2\n      sload\n      dup2\n      0xffffffff\n      mul\n      not\n      and\n      swap1\n      dup4\n      0xffffffff\n      and\n      mul\n      or\n      swap1\n      sstore\n      pop\n      pop\n        /* \"contracts/authority.sol\":7531:7542  _governance */\n      0x06\n        /* \"contracts/authority.sol\":7531:7548  _governance.nonce */\n      0x00\n      add\n      0x15\n      swap1\n      sload\n      swap1\n      0x0100\n      exp\n      swap1\n      div\n      0xffffffff\n      and\n        /* \"contracts/authority.sol\":7482:7549  TheNewGCAddressWasConfirmed(_governance.roleAdd, _governance.nonce) */\n      0xffffffff\n      and\n        /* \"contracts/authority.sol\":7510:7521  _governance */\n      0x06\n        /* \"contracts/authority.sol\":7510:7529  _governance.roleAdd */\n      0x00\n      add\n      0x00\n      swap1\n      sload\n      swap1\n      0x0100\n      exp\n      swap1\n      div\n      0xffffffffffffffffffffffffffffffffffffffff\n      and\n        /* \"contracts/authority.sol\":7482:7549  TheNewGCAddressWasConfirmed(_governance.roleAdd, _governance.nonce) */\n      0xffffffffffffffffffffffffffffffffffffffff\n      and\n      0x5e86008a8467d1efccfe6cb6bd49ba7278d6af2745a1e6994e443322a4237093\n      mload(0x40)\n      mload(0x40)\n      dup1\n      swap2\n      sub\n      swap1\n      log3\n        /* \"contracts/authority.sol\":7301:7615  if (_pendingGCAddress == pendingGCAdd) {... */\n      jump(tag_233)\n    tag_231:\n        /* \"contracts/authority.sol\":7602:7614  pendingGCAdd */\n      dup1\n        /* \"contracts/authority.sol\":7576:7615  TheAddressIsNotValidForGC(pendingGCAdd) */\n      mload(0x40)\n      0x84dbc6cb00000000000000000000000000000000000000000000000000000000\n      dup2\n      mstore\n      0x04\n      add\n      tag_234\n      swap2\n      swap1\n      tag_40\n      jump\t// in\n    tag_234:\n      mload(0x40)\n      dup1\n      swap2\n      sub\n      swap1\n      revert\n        /* \"contracts/authority.sol\":7301:7615  if (_pendingGCAddress == pendingGCAdd) {... */\n    tag_233:\n        /* \"contracts/authority.sol\":7204:7623  function transferGovernanceContractAddress(address pendingGCAdd) public onlyPresident {... */\n      pop\n      jump\t// out\n        /* \"contracts/authority.sol\":8002:8114  function setPrimeMinisterBaned(bool baned) public onlyPresident {... */\n    tag_88:\n        /* \"contracts/authority.sol\":2662:2679  getPresidentAdd() */\n      tag_236\n        /* \"contracts/authority.sol\":2662:2677  getPresidentAdd */\n      tag_51\n        /* \"contracts/authority.sol\":2662:2679  getPresidentAdd() */\n      jump\t// in\n    tag_236:\n        /* \"contracts/authority.sol\":2648:2679  msg.sender == getPresidentAdd() */\n      0xffffffffffffffffffffffffffffffffffffffff\n      and\n        /* \"contracts/authority.sol\":2648:2658  msg.sender */\n      caller\n        /* \"contracts/authority.sol\":2648:2679  msg.sender == getPresidentAdd() */\n      0xffffffffffffffffffffffffffffffffffffffff\n      and\n      eq\n        /* \"contracts/authority.sol\":2648:2701  msg.sender == getPresidentAdd() && !getPresidentBan() */\n      dup1\n      iszero\n      tag_237\n      jumpi\n      pop\n        /* \"contracts/authority.sol\":2684:2701  getPresidentBan() */\n      tag_238\n        /* \"contracts/authority.sol\":2684:2699  getPresidentBan */\n      tag_54\n        /* \"contracts/authority.sol\":2684:2701  getPresidentBan() */\n      jump\t// in\n    tag_238:\n        /* \"contracts/authority.sol\":2683:2701  !getPresidentBan() */\n      iszero\n        /* \"contracts/authority.sol\":2648:2701  msg.sender == getPresidentAdd() && !getPresidentBan() */\n    tag_237:\n        /* \"contracts/authority.sol\":2640:2725  require(msg.sender == getPresidentAdd() && !getPresidentBan(), \"Access is not valid\") */\n      tag_239\n      jumpi\n      mload(0x40)\n      0x08c379a000000000000000000000000000000000000000000000000000000000\n      dup2\n      mstore\n      0x04\n      add\n      tag_240\n      swap1\n      tag_94\n      jump\t// in\n    tag_240:\n      mload(0x40)\n      dup1\n      swap2\n      sub\n      swap1\n      revert\n    tag_239:\n        /* \"contracts/authority.sol\":8077:8106  _setPrimeMinisterBaned(baned) */\n      tag_242\n        /* \"contracts/authority.sol\":8100:8105  baned */\n      dup2\n        /* \"contracts/authority.sol\":8077:8099  _setPrimeMinisterBaned */\n      tag_105\n        /* \"contracts/authority.sol\":8077:8106  _setPrimeMinisterBaned(baned) */\n      jump\t// in\n    tag_242:\n        /* \"contracts/authority.sol\":8002:8114  function setPrimeMinisterBaned(bool baned) public onlyPresident {... */\n      pop\n      jump\t// out\n        /* \"contracts/authority.sol\":8362:8453  function _setPresidentBaned(bool baned) private {... */\n    tag_103:\n        /* \"contracts/authority.sol\":8440:8445  baned */\n      dup1\n        /* \"contracts/authority.sol\":8421:8431  _president */\n      0x04\n        /* \"contracts/authority.sol\":8421:8437  _president.baned */\n      0x00\n      add\n      0x14\n        /* \"contracts/authority.sol\":8421:8445  _president.baned = baned */\n      0x0100\n      exp\n      dup2\n      sload\n      dup2\n      0xff\n      mul\n      not\n      and\n      swap1\n      dup4\n      iszero\n      iszero\n      mul\n      or\n      swap1\n      sstore\n      pop\n        /* \"contracts/authority.sol\":8362:8453  function _setPresidentBaned(bool baned) private {... */\n      pop\n      jump\t// out\n        /* \"contracts/authority.sol\":8461:8560  function _setPrimeMinisterBaned(bool baned) private {... */\n    tag_105:\n        /* \"contracts/authority.sol\":8547:8552  baned */\n      dup1\n        /* \"contracts/authority.sol\":8524:8538  _primeMinister */\n      0x05\n        /* \"contracts/authority.sol\":8524:8544  _primeMinister.baned */\n      0x00\n      add\n      0x14\n        /* \"contracts/authority.sol\":8524:8552  _primeMinister.baned = baned */\n      0x0100\n      exp\n      dup2\n      sload\n      dup2\n      0xff\n      mul\n      not\n      and\n      swap1\n      dup4\n      iszero\n      iszero\n      mul\n      or\n      swap1\n      sstore\n      pop\n        /* \"contracts/authority.sol\":8461:8560  function _setPrimeMinisterBaned(bool baned) private {... */\n      pop\n      jump\t// out\n        /* \"contracts/authority.sol\":8126:8354  function _transferRepublicGAddress(address RGAddress) private {... */\n    tag_136:\n        /* \"contracts/authority.sol\":8220:8229  RGAddress */\n      dup1\n        /* \"contracts/authority.sol\":8199:8209  _RepublicG */\n      0x07\n        /* \"contracts/authority.sol\":8199:8217  _RepublicG.roleAdd */\n      0x00\n      add\n      0x00\n        /* \"contracts/authority.sol\":8199:8229  _RepublicG.roleAdd = RGAddress */\n      0x0100\n      exp\n      dup2\n      sload\n      dup2\n      0xffffffffffffffffffffffffffffffffffffffff\n      mul\n      not\n      and\n      swap1\n      dup4\n      0xffffffffffffffffffffffffffffffffffffffff\n      and\n      mul\n      or\n      swap1\n      sstore\n      pop\n        /* \"contracts/authority.sol\":8240:8250  _RepublicG */\n      0x07\n        /* \"contracts/authority.sol\":8240:8256  _RepublicG.nonce */\n      0x00\n      add\n      0x15\n        /* \"contracts/authority.sol\":8240:8258  _RepublicG.nonce++ */\n      dup2\n      dup2\n      swap1\n      sload\n      swap1\n      0x0100\n      exp\n      swap1\n      div\n      0xffffffff\n      and\n      dup1\n      swap3\n      swap2\n      swap1\n      tag_246\n      swap1\n      tag_109\n      jump\t// in\n    tag_246:\n      swap2\n      swap1\n      0x0100\n      exp\n      dup2\n      sload\n      dup2\n      0xffffffff\n      mul\n      not\n      and\n      swap1\n      dup4\n      0xffffffff\n      and\n      mul\n      or\n      swap1\n      sstore\n      pop\n      pop\n        /* \"contracts/authority.sol\":8329:8339  _RepublicG */\n      0x07\n        /* \"contracts/authority.sol\":8329:8345  _RepublicG.nonce */\n      0x00\n      add\n      0x15\n      swap1\n      sload\n      swap1\n      0x0100\n      exp\n      swap1\n      div\n      0xffffffff\n      and\n        /* \"contracts/authority.sol\":8274:8346  TheNewRepublicGAddressWasConfirmed(_RepublicG.roleAdd, _RepublicG.nonce) */\n      0xffffffff\n      and\n        /* \"contracts/authority.sol\":8309:8319  _RepublicG */\n      0x07\n        /* \"contracts/authority.sol\":8309:8327  _RepublicG.roleAdd */\n      0x00\n      add\n      0x00\n      swap1\n      sload\n      swap1\n      0x0100\n      exp\n      swap1\n      div\n      0xffffffffffffffffffffffffffffffffffffffff\n      and\n        /* \"contracts/authority.sol\":8274:8346  TheNewRepublicGAddressWasConfirmed(_RepublicG.roleAdd, _RepublicG.nonce) */\n      0xffffffffffffffffffffffffffffffffffffffff\n      and\n      0xb88ef4c2b55163ed88bcf28dadfee0092169b7a9a712ceb09ff75e6d2d4ba63b\n      mload(0x40)\n      mload(0x40)\n      dup1\n      swap2\n      sub\n      swap1\n      log3\n        /* \"contracts/authority.sol\":8126:8354  function _transferRepublicGAddress(address RGAddress) private {... */\n      pop\n      jump\t// out\n        /* \"#utility.yul\":88:205   */\n    tag_248:\n        /* \"#utility.yul\":197:198   */\n      0x00\n        /* \"#utility.yul\":194:195   */\n      dup1\n        /* \"#utility.yul\":187:199   */\n      revert\n        /* \"#utility.yul\":334:460   */\n    tag_250:\n        /* \"#utility.yul\":371:378   */\n      0x00\n        /* \"#utility.yul\":411:453   */\n      0xffffffffffffffffffffffffffffffffffffffff\n        /* \"#utility.yul\":404:409   */\n      dup3\n        /* \"#utility.yul\":400:454   */\n      and\n        /* \"#utility.yul\":389:454   */\n      swap1\n      pop\n        /* \"#utility.yul\":334:460   */\n      swap2\n      swap1\n      pop\n      jump\t// out\n        /* \"#utility.yul\":466:562   */\n    tag_251:\n        /* \"#utility.yul\":503:510   */\n      0x00\n        /* \"#utility.yul\":532:556   */\n      tag_276\n        /* \"#utility.yul\":550:555   */\n      dup3\n        /* \"#utility.yul\":532:556   */\n      tag_250\n      jump\t// in\n    tag_276:\n        /* \"#utility.yul\":521:556   */\n      swap1\n      pop\n        /* \"#utility.yul\":466:562   */\n      swap2\n      swap1\n      pop\n      jump\t// out\n        /* \"#utility.yul\":568:690   */\n    tag_252:\n        /* \"#utility.yul\":641:665   */\n      tag_278\n        /* \"#utility.yul\":659:664   */\n      dup2\n        /* \"#utility.yul\":641:665   */\n      tag_251\n      jump\t// in\n    tag_278:\n        /* \"#utility.yul\":634:639   */\n      dup2\n        /* \"#utility.yul\":631:666   */\n      eq\n        /* \"#utility.yul\":621:684   */\n      tag_279\n      jumpi\n        /* \"#utility.yul\":680:681   */\n      0x00\n        /* \"#utility.yul\":677:678   */\n      dup1\n        /* \"#utility.yul\":670:682   */\n      revert\n        /* \"#utility.yul\":621:684   */\n    tag_279:\n        /* \"#utility.yul\":568:690   */\n      pop\n      jump\t// out\n        /* \"#utility.yul\":696:835   */\n    tag_253:\n        /* \"#utility.yul\":742:747   */\n      0x00\n        /* \"#utility.yul\":780:786   */\n      dup2\n        /* \"#utility.yul\":767:787   */\n      calldataload\n        /* \"#utility.yul\":758:787   */\n      swap1\n      pop\n        /* \"#utility.yul\":796:829   */\n      tag_281\n        /* \"#utility.yul\":823:828   */\n      dup2\n        /* \"#utility.yul\":796:829   */\n      tag_252\n      jump\t// in\n    tag_281:\n        /* \"#utility.yul\":696:835   */\n      swap3\n      swap2\n      pop\n      pop\n      jump\t// out\n        /* \"#utility.yul\":841:1170   */\n    tag_28:\n        /* \"#utility.yul\":900:906   */\n      0x00\n        /* \"#utility.yul\":949:951   */\n      0x20\n        /* \"#utility.yul\":937:946   */\n      dup3\n        /* \"#utility.yul\":928:935   */\n      dup5\n        /* \"#utility.yul\":924:947   */\n      sub\n        /* \"#utility.yul\":920:952   */\n      slt\n        /* \"#utility.yul\":917:1036   */\n      iszero\n      tag_283\n      jumpi\n        /* \"#utility.yul\":955:1034   */\n      tag_284\n      tag_248\n      jump\t// in\n    tag_284:\n        /* \"#utility.yul\":917:1036   */\n    tag_283:\n        /* \"#utility.yul\":1075:1076   */\n      0x00\n        /* \"#utility.yul\":1100:1153   */\n      tag_285\n        /* \"#utility.yul\":1145:1152   */\n      dup5\n        /* \"#utility.yul\":1136:1142   */\n      dup3\n        /* \"#utility.yul\":1125:1134   */\n      dup6\n        /* \"#utility.yul\":1121:1143   */\n      add\n        /* \"#utility.yul\":1100:1153   */\n      tag_253\n      jump\t// in\n    tag_285:\n        /* \"#utility.yul\":1090:1153   */\n      swap2\n      pop\n        /* \"#utility.yul\":1046:1163   */\n      pop\n        /* \"#utility.yul\":841:1170   */\n      swap3\n      swap2\n      pop\n      pop\n      jump\t// out\n        /* \"#utility.yul\":1176:1294   */\n    tag_254:\n        /* \"#utility.yul\":1263:1287   */\n      tag_287\n        /* \"#utility.yul\":1281:1286   */\n      dup2\n        /* \"#utility.yul\":1263:1287   */\n      tag_251\n      jump\t// in\n    tag_287:\n        /* \"#utility.yul\":1258:1261   */\n      dup3\n        /* \"#utility.yul\":1251:1288   */\n      mstore\n        /* \"#utility.yul\":1176:1294   */\n      pop\n      pop\n      jump\t// out\n        /* \"#utility.yul\":1300:1522   */\n    tag_40:\n        /* \"#utility.yul\":1393:1397   */\n      0x00\n        /* \"#utility.yul\":1431:1433   */\n      0x20\n        /* \"#utility.yul\":1420:1429   */\n      dup3\n        /* \"#utility.yul\":1416:1434   */\n      add\n        /* \"#utility.yul\":1408:1434   */\n      swap1\n      pop\n        /* \"#utility.yul\":1444:1515   */\n      tag_289\n        /* \"#utility.yul\":1512:1513   */\n      0x00\n        /* \"#utility.yul\":1501:1510   */\n      dup4\n        /* \"#utility.yul\":1497:1514   */\n      add\n        /* \"#utility.yul\":1488:1494   */\n      dup5\n        /* \"#utility.yul\":1444:1515   */\n      tag_254\n      jump\t// in\n    tag_289:\n        /* \"#utility.yul\":1300:1522   */\n      swap3\n      swap2\n      pop\n      pop\n      jump\t// out\n        /* \"#utility.yul\":1528:1618   */\n    tag_255:\n        /* \"#utility.yul\":1562:1569   */\n      0x00\n        /* \"#utility.yul\":1605:1610   */\n      dup2\n        /* \"#utility.yul\":1598:1611   */\n      iszero\n        /* \"#utility.yul\":1591:1612   */\n      iszero\n        /* \"#utility.yul\":1580:1612   */\n      swap1\n      pop\n        /* \"#utility.yul\":1528:1618   */\n      swap2\n      swap1\n      pop\n      jump\t// out\n        /* \"#utility.yul\":1624:1733   */\n    tag_256:\n        /* \"#utility.yul\":1705:1726   */\n      tag_292\n        /* \"#utility.yul\":1720:1725   */\n      dup2\n        /* \"#utility.yul\":1705:1726   */\n      tag_255\n      jump\t// in\n    tag_292:\n        /* \"#utility.yul\":1700:1703   */\n      dup3\n        /* \"#utility.yul\":1693:1727   */\n      mstore\n        /* \"#utility.yul\":1624:1733   */\n      pop\n      pop\n      jump\t// out\n        /* \"#utility.yul\":1739:1949   */\n    tag_56:\n        /* \"#utility.yul\":1826:1830   */\n      0x00\n        /* \"#utility.yul\":1864:1866   */\n      0x20\n        /* \"#utility.yul\":1853:1862   */\n      dup3\n        /* \"#utility.yul\":1849:1867   */\n      add\n        /* \"#utility.yul\":1841:1867   */\n      swap1\n      pop\n        /* \"#utility.yul\":1877:1942   */\n      tag_294\n        /* \"#utility.yul\":1939:1940   */\n      0x00\n        /* \"#utility.yul\":1928:1937   */\n      dup4\n        /* \"#utility.yul\":1924:1941   */\n      add\n        /* \"#utility.yul\":1915:1921   */\n      dup5\n        /* \"#utility.yul\":1877:1942   */\n      tag_256\n      jump\t// in\n    tag_294:\n        /* \"#utility.yul\":1739:1949   */\n      swap3\n      swap2\n      pop\n      pop\n      jump\t// out\n        /* \"#utility.yul\":1955:2071   */\n    tag_257:\n        /* \"#utility.yul\":2025:2046   */\n      tag_296\n        /* \"#utility.yul\":2040:2045   */\n      dup2\n        /* \"#utility.yul\":2025:2046   */\n      tag_255\n      jump\t// in\n    tag_296:\n        /* \"#utility.yul\":2018:2023   */\n      dup2\n        /* \"#utility.yul\":2015:2047   */\n      eq\n        /* \"#utility.yul\":2005:2065   */\n      tag_297\n      jumpi\n        /* \"#utility.yul\":2061:2062   */\n      0x00\n        /* \"#utility.yul\":2058:2059   */\n      dup1\n        /* \"#utility.yul\":2051:2063   */\n      revert\n        /* \"#utility.yul\":2005:2065   */\n    tag_297:\n        /* \"#utility.yul\":1955:2071   */\n      pop\n      jump\t// out\n        /* \"#utility.yul\":2077:2210   */\n    tag_258:\n        /* \"#utility.yul\":2120:2125   */\n      0x00\n        /* \"#utility.yul\":2158:2164   */\n      dup2\n        /* \"#utility.yul\":2145:2165   */\n      calldataload\n        /* \"#utility.yul\":2136:2165   */\n      swap1\n      pop\n        /* \"#utility.yul\":2174:2204   */\n      tag_299\n        /* \"#utility.yul\":2198:2203   */\n      dup2\n        /* \"#utility.yul\":2174:2204   */\n      tag_257\n      jump\t// in\n    tag_299:\n        /* \"#utility.yul\":2077:2210   */\n      swap3\n      swap2\n      pop\n      pop\n      jump\t// out\n        /* \"#utility.yul\":2216:2539   */\n    tag_65:\n        /* \"#utility.yul\":2272:2278   */\n      0x00\n        /* \"#utility.yul\":2321:2323   */\n      0x20\n        /* \"#utility.yul\":2309:2318   */\n      dup3\n        /* \"#utility.yul\":2300:2307   */\n      dup5\n        /* \"#utility.yul\":2296:2319   */\n      sub\n        /* \"#utility.yul\":2292:2324   */\n      slt\n        /* \"#utility.yul\":2289:2408   */\n      iszero\n      tag_301\n      jumpi\n        /* \"#utility.yul\":2327:2406   */\n      tag_302\n      tag_248\n      jump\t// in\n    tag_302:\n        /* \"#utility.yul\":2289:2408   */\n    tag_301:\n        /* \"#utility.yul\":2447:2448   */\n      0x00\n        /* \"#utility.yul\":2472:2522   */\n      tag_303\n        /* \"#utility.yul\":2514:2521   */\n      dup5\n        /* \"#utility.yul\":2505:2511   */\n      dup3\n        /* \"#utility.yul\":2494:2503   */\n      dup6\n        /* \"#utility.yul\":2490:2512   */\n      add\n        /* \"#utility.yul\":2472:2522   */\n      tag_258\n      jump\t// in\n    tag_303:\n        /* \"#utility.yul\":2462:2522   */\n      swap2\n      pop\n        /* \"#utility.yul\":2418:2532   */\n      pop\n        /* \"#utility.yul\":2216:2539   */\n      swap3\n      swap2\n      pop\n      pop\n      jump\t// out\n        /* \"#utility.yul\":2545:2638   */\n    tag_259:\n        /* \"#utility.yul\":2581:2588   */\n      0x00\n        /* \"#utility.yul\":2621:2631   */\n      0xffffffff\n        /* \"#utility.yul\":2614:2619   */\n      dup3\n        /* \"#utility.yul\":2610:2632   */\n      and\n        /* \"#utility.yul\":2599:2632   */\n      swap1\n      pop\n        /* \"#utility.yul\":2545:2638   */\n      swap2\n      swap1\n      pop\n      jump\t// out\n        /* \"#utility.yul\":2644:2759   */\n    tag_260:\n        /* \"#utility.yul\":2729:2752   */\n      tag_306\n        /* \"#utility.yul\":2746:2751   */\n      dup2\n        /* \"#utility.yul\":2729:2752   */\n      tag_259\n      jump\t// in\n    tag_306:\n        /* \"#utility.yul\":2724:2727   */\n      dup3\n        /* \"#utility.yul\":2717:2753   */\n      mstore\n        /* \"#utility.yul\":2644:2759   */\n      pop\n      pop\n      jump\t// out\n        /* \"#utility.yul\":2765:2983   */\n    tag_70:\n        /* \"#utility.yul\":2856:2860   */\n      0x00\n        /* \"#utility.yul\":2894:2896   */\n      0x20\n        /* \"#utility.yul\":2883:2892   */\n      dup3\n        /* \"#utility.yul\":2879:2897   */\n      add\n        /* \"#utility.yul\":2871:2897   */\n      swap1\n      pop\n        /* \"#utility.yul\":2907:2976   */\n      tag_308\n        /* \"#utility.yul\":2973:2974   */\n      0x00\n        /* \"#utility.yul\":2962:2971   */\n      dup4\n        /* \"#utility.yul\":2958:2975   */\n      add\n        /* \"#utility.yul\":2949:2955   */\n      dup5\n        /* \"#utility.yul\":2907:2976   */\n      tag_260\n      jump\t// in\n    tag_308:\n        /* \"#utility.yul\":2765:2983   */\n      swap3\n      swap2\n      pop\n      pop\n      jump\t// out\n        /* \"#utility.yul\":2989:3158   */\n    tag_261:\n        /* \"#utility.yul\":3073:3084   */\n      0x00\n        /* \"#utility.yul\":3107:3113   */\n      dup3\n        /* \"#utility.yul\":3102:3105   */\n      dup3\n        /* \"#utility.yul\":3095:3114   */\n      mstore\n        /* \"#utility.yul\":3147:3151   */\n      0x20\n        /* \"#utility.yul\":3142:3145   */\n      dup3\n        /* \"#utility.yul\":3138:3152   */\n      add\n        /* \"#utility.yul\":3123:3152   */\n      swap1\n      pop\n        /* \"#utility.yul\":2989:3158   */\n      swap3\n      swap2\n      pop\n      pop\n      jump\t// out\n        /* \"#utility.yul\":3164:3333   */\n    tag_262:\n        /* \"#utility.yul\":3304:3325   */\n      0x416363657373206973206e6f742076616c696400000000000000000000000000\n        /* \"#utility.yul\":3300:3301   */\n      0x00\n        /* \"#utility.yul\":3292:3298   */\n      dup3\n        /* \"#utility.yul\":3288:3302   */\n      add\n        /* \"#utility.yul\":3281:3326   */\n      mstore\n        /* \"#utility.yul\":3164:3333   */\n      pop\n      jump\t// out\n        /* \"#utility.yul\":3339:3705   */\n    tag_263:\n        /* \"#utility.yul\":3481:3484   */\n      0x00\n        /* \"#utility.yul\":3502:3569   */\n      tag_312\n        /* \"#utility.yul\":3566:3568   */\n      0x13\n        /* \"#utility.yul\":3561:3564   */\n      dup4\n        /* \"#utility.yul\":3502:3569   */\n      tag_261\n      jump\t// in\n    tag_312:\n        /* \"#utility.yul\":3495:3569   */\n      swap2\n      pop\n        /* \"#utility.yul\":3578:3671   */\n      tag_313\n        /* \"#utility.yul\":3667:3670   */\n      dup3\n        /* \"#utility.yul\":3578:3671   */\n      tag_262\n      jump\t// in\n    tag_313:\n        /* \"#utility.yul\":3696:3698   */\n      0x20\n        /* \"#utility.yul\":3691:3694   */\n      dup3\n        /* \"#utility.yul\":3687:3699   */\n      add\n        /* \"#utility.yul\":3680:3699   */\n      swap1\n      pop\n        /* \"#utility.yul\":3339:3705   */\n      swap2\n      swap1\n      pop\n      jump\t// out\n        /* \"#utility.yul\":3711:4130   */\n    tag_94:\n        /* \"#utility.yul\":3877:3881   */\n      0x00\n        /* \"#utility.yul\":3915:3917   */\n      0x20\n        /* \"#utility.yul\":3904:3913   */\n      dup3\n        /* \"#utility.yul\":3900:3918   */\n      add\n        /* \"#utility.yul\":3892:3918   */\n      swap1\n      pop\n        /* \"#utility.yul\":3964:3973   */\n      dup2\n        /* \"#utility.yul\":3958:3962   */\n      dup2\n        /* \"#utility.yul\":3954:3974   */\n      sub\n        /* \"#utility.yul\":3950:3951   */\n      0x00\n        /* \"#utility.yul\":3939:3948   */\n      dup4\n        /* \"#utility.yul\":3935:3952   */\n      add\n        /* \"#utility.yul\":3928:3975   */\n      mstore\n        /* \"#utility.yul\":3992:4123   */\n      tag_315\n        /* \"#utility.yul\":4118:4122   */\n      dup2\n        /* \"#utility.yul\":3992:4123   */\n      tag_263\n      jump\t// in\n    tag_315:\n        /* \"#utility.yul\":3984:4123   */\n      swap1\n      pop\n        /* \"#utility.yul\":3711:4130   */\n      swap2\n      swap1\n      pop\n      jump\t// out\n        /* \"#utility.yul\":4136:4316   */\n    tag_264:\n        /* \"#utility.yul\":4184:4261   */\n      0x4e487b7100000000000000000000000000000000000000000000000000000000\n        /* \"#utility.yul\":4181:4182   */\n      0x00\n        /* \"#utility.yul\":4174:4262   */\n      mstore\n        /* \"#utility.yul\":4281:4285   */\n      0x11\n        /* \"#utility.yul\":4278:4279   */\n      0x04\n        /* \"#utility.yul\":4271:4286   */\n      mstore\n        /* \"#utility.yul\":4305:4309   */\n      0x24\n        /* \"#utility.yul\":4302:4303   */\n      0x00\n        /* \"#utility.yul\":4295:4310   */\n      revert\n        /* \"#utility.yul\":4322:4497   */\n    tag_109:\n        /* \"#utility.yul\":4360:4363   */\n      0x00\n        /* \"#utility.yul\":4383:4406   */\n      tag_318\n        /* \"#utility.yul\":4400:4405   */\n      dup3\n        /* \"#utility.yul\":4383:4406   */\n      tag_259\n      jump\t// in\n    tag_318:\n        /* \"#utility.yul\":4374:4406   */\n      swap2\n      pop\n        /* \"#utility.yul\":4428:4438   */\n      0xffffffff\n        /* \"#utility.yul\":4421:4426   */\n      dup3\n        /* \"#utility.yul\":4418:4439   */\n      sub\n        /* \"#utility.yul\":4415:4462   */\n      tag_319\n      jumpi\n        /* \"#utility.yul\":4442:4460   */\n      tag_320\n      tag_264\n      jump\t// in\n    tag_320:\n        /* \"#utility.yul\":4415:4462   */\n    tag_319:\n        /* \"#utility.yul\":4489:4490   */\n      0x01\n        /* \"#utility.yul\":4482:4487   */\n      dup3\n        /* \"#utility.yul\":4478:4491   */\n      add\n        /* \"#utility.yul\":4471:4491   */\n      swap1\n      pop\n        /* \"#utility.yul\":4322:4497   */\n      swap2\n      swap1\n      pop\n      jump\t// out\n        /* \"#utility.yul\":4503:4675   */\n    tag_265:\n        /* \"#utility.yul\":4643:4667   */\n      0x546865207265717565737420697320696e76616c696400000000000000000000\n        /* \"#utility.yul\":4639:4640   */\n      0x00\n        /* \"#utility.yul\":4631:4637   */\n      dup3\n        /* \"#utility.yul\":4627:4641   */\n      add\n        /* \"#utility.yul\":4620:4668   */\n      mstore\n        /* \"#utility.yul\":4503:4675   */\n      pop\n      jump\t// out\n        /* \"#utility.yul\":4681:5047   */\n    tag_266:\n        /* \"#utility.yul\":4823:4826   */\n      0x00\n        /* \"#utility.yul\":4844:4911   */\n      tag_323\n        /* \"#utility.yul\":4908:4910   */\n      0x16\n        /* \"#utility.yul\":4903:4906   */\n      dup4\n        /* \"#utility.yul\":4844:4911   */\n      tag_261\n      jump\t// in\n    tag_323:\n        /* \"#utility.yul\":4837:4911   */\n      swap2\n      pop\n        /* \"#utility.yul\":4920:5013   */\n      tag_324\n        /* \"#utility.yul\":5009:5012   */\n      dup3\n        /* \"#utility.yul\":4920:5013   */\n      tag_265\n      jump\t// in\n    tag_324:\n        /* \"#utility.yul\":5038:5040   */\n      0x20\n        /* \"#utility.yul\":5033:5036   */\n      dup3\n        /* \"#utility.yul\":5029:5041   */\n      add\n        /* \"#utility.yul\":5022:5041   */\n      swap1\n      pop\n        /* \"#utility.yul\":4681:5047   */\n      swap2\n      swap1\n      pop\n      jump\t// out\n        /* \"#utility.yul\":5053:5472   */\n    tag_133:\n        /* \"#utility.yul\":5219:5223   */\n      0x00\n        /* \"#utility.yul\":5257:5259   */\n      0x20\n        /* \"#utility.yul\":5246:5255   */\n      dup3\n        /* \"#utility.yul\":5242:5260   */\n      add\n        /* \"#utility.yul\":5234:5260   */\n      swap1\n      pop\n        /* \"#utility.yul\":5306:5315   */\n      dup2\n        /* \"#utility.yul\":5300:5304   */\n      dup2\n        /* \"#utility.yul\":5296:5316   */\n      sub\n        /* \"#utility.yul\":5292:5293   */\n      0x00\n        /* \"#utility.yul\":5281:5290   */\n      dup4\n        /* \"#utility.yul\":5277:5294   */\n      add\n        /* \"#utility.yul\":5270:5317   */\n      mstore\n        /* \"#utility.yul\":5334:5465   */\n      tag_326\n        /* \"#utility.yul\":5460:5464   */\n      dup2\n        /* \"#utility.yul\":5334:5465   */\n      tag_266\n      jump\t// in\n    tag_326:\n        /* \"#utility.yul\":5326:5465   */\n      swap1\n      pop\n        /* \"#utility.yul\":5053:5472   */\n      swap2\n      swap1\n      pop\n      jump\t// out\n        /* \"#utility.yul\":5478:5575   */\n    tag_267:\n        /* \"#utility.yul\":5514:5521   */\n      0x00\n        /* \"#utility.yul\":5554:5568   */\n      0xffffffffffff\n        /* \"#utility.yul\":5547:5552   */\n      dup3\n        /* \"#utility.yul\":5543:5569   */\n      and\n        /* \"#utility.yul\":5532:5569   */\n      swap1\n      pop\n        /* \"#utility.yul\":5478:5575   */\n      swap2\n      swap1\n      pop\n      jump\t// out\n        /* \"#utility.yul\":5581:5785   */\n    tag_141:\n        /* \"#utility.yul\":5620:5624   */\n      0x00\n        /* \"#utility.yul\":5640:5659   */\n      tag_329\n        /* \"#utility.yul\":5657:5658   */\n      dup3\n        /* \"#utility.yul\":5640:5659   */\n      tag_267\n      jump\t// in\n    tag_329:\n        /* \"#utility.yul\":5635:5659   */\n      swap2\n      pop\n        /* \"#utility.yul\":5673:5692   */\n      tag_330\n        /* \"#utility.yul\":5690:5691   */\n      dup4\n        /* \"#utility.yul\":5673:5692   */\n      tag_267\n      jump\t// in\n    tag_330:\n        /* \"#utility.yul\":5668:5692   */\n      swap3\n      pop\n        /* \"#utility.yul\":5716:5717   */\n      dup3\n        /* \"#utility.yul\":5713:5714   */\n      dup3\n        /* \"#utility.yul\":5709:5718   */\n      sub\n        /* \"#utility.yul\":5701:5718   */\n      swap1\n      pop\n        /* \"#utility.yul\":5740:5754   */\n      0xffffffffffff\n        /* \"#utility.yul\":5734:5738   */\n      dup2\n        /* \"#utility.yul\":5731:5755   */\n      gt\n        /* \"#utility.yul\":5728:5778   */\n      iszero\n      tag_331\n      jumpi\n        /* \"#utility.yul\":5758:5776   */\n      tag_332\n      tag_264\n      jump\t// in\n    tag_332:\n        /* \"#utility.yul\":5728:5778   */\n    tag_331:\n        /* \"#utility.yul\":5581:5785   */\n      swap3\n      swap2\n      pop\n      pop\n      jump\t// out\n        /* \"#utility.yul\":5791:5906   */\n    tag_268:\n        /* \"#utility.yul\":5876:5899   */\n      tag_334\n        /* \"#utility.yul\":5893:5898   */\n      dup2\n        /* \"#utility.yul\":5876:5899   */\n      tag_267\n      jump\t// in\n    tag_334:\n        /* \"#utility.yul\":5871:5874   */\n      dup3\n        /* \"#utility.yul\":5864:5900   */\n      mstore\n        /* \"#utility.yul\":5791:5906   */\n      pop\n      pop\n      jump\t// out\n        /* \"#utility.yul\":5912:6130   */\n    tag_143:\n        /* \"#utility.yul\":6003:6007   */\n      0x00\n        /* \"#utility.yul\":6041:6043   */\n      0x20\n        /* \"#utility.yul\":6030:6039   */\n      dup3\n        /* \"#utility.yul\":6026:6044   */\n      add\n        /* \"#utility.yul\":6018:6044   */\n      swap1\n      pop\n        /* \"#utility.yul\":6054:6123   */\n      tag_336\n        /* \"#utility.yul\":6120:6121   */\n      0x00\n        /* \"#utility.yul\":6109:6118   */\n      dup4\n        /* \"#utility.yul\":6105:6122   */\n      add\n        /* \"#utility.yul\":6096:6102   */\n      dup5\n        /* \"#utility.yul\":6054:6123   */\n      tag_268\n      jump\t// in\n    tag_336:\n        /* \"#utility.yul\":5912:6130   */\n      swap3\n      swap2\n      pop\n      pop\n      jump\t// out\n        /* \"#utility.yul\":6136:6213   */\n    tag_269:\n        /* \"#utility.yul\":6173:6180   */\n      0x00\n        /* \"#utility.yul\":6202:6207   */\n      dup2\n        /* \"#utility.yul\":6191:6207   */\n      swap1\n      pop\n        /* \"#utility.yul\":6136:6213   */\n      swap2\n      swap1\n      pop\n      jump\t// out\n        /* \"#utility.yul\":6219:6410   */\n    tag_187:\n        /* \"#utility.yul\":6259:6262   */\n      0x00\n        /* \"#utility.yul\":6278:6298   */\n      tag_339\n        /* \"#utility.yul\":6296:6297   */\n      dup3\n        /* \"#utility.yul\":6278:6298   */\n      tag_269\n      jump\t// in\n    tag_339:\n        /* \"#utility.yul\":6273:6298   */\n      swap2\n      pop\n        /* \"#utility.yul\":6312:6332   */\n      tag_340\n        /* \"#utility.yul\":6330:6331   */\n      dup4\n        /* \"#utility.yul\":6312:6332   */\n      tag_269\n      jump\t// in\n    tag_340:\n        /* \"#utility.yul\":6307:6332   */\n      swap3\n      pop\n        /* \"#utility.yul\":6355:6356   */\n      dup3\n        /* \"#utility.yul\":6352:6353   */\n      dup3\n        /* \"#utility.yul\":6348:6357   */\n      add\n        /* \"#utility.yul\":6341:6357   */\n      swap1\n      pop\n        /* \"#utility.yul\":6376:6379   */\n      dup1\n        /* \"#utility.yul\":6373:6374   */\n      dup3\n        /* \"#utility.yul\":6370:6380   */\n      gt\n        /* \"#utility.yul\":6367:6403   */\n      iszero\n      tag_341\n      jumpi\n        /* \"#utility.yul\":6383:6401   */\n      tag_342\n      tag_264\n      jump\t// in\n    tag_342:\n        /* \"#utility.yul\":6367:6403   */\n    tag_341:\n        /* \"#utility.yul\":6219:6410   */\n      swap3\n      swap2\n      pop\n      pop\n      jump\t// out\n\n    auxdata: 0xa2646970667358221220d37178467f45cb86c49952ff3a5494ba2e0a748f22e96dd0639654944738974164736f6c63430008140033\n}\n",
				"bytecode": {
					"linkReferences": {},
					"object": "60c06040525f73ffffffffffffffffffffffffffffffffffffffff1660809073ffffffffffffffffffffffffffffffffffffffff1681525034801562000043575f80fd5b506316a8c8004262000056919062000130565b65ffffffffffff1660a08165ffffffffffff16815250503360045f015f6101000a81548173ffffffffffffffffffffffffffffffffffffffff021916908373ffffffffffffffffffffffffffffffffffffffff16021790555060045f01601581819054906101000a900463ffffffff1680929190620000d59062000179565b91906101000a81548163ffffffff021916908363ffffffff16021790555050620001a9565b5f819050919050565b7f4e487b71000000000000000000000000000000000000000000000000000000005f52601160045260245ffd5b5f6200013c82620000fa565b91506200014983620000fa565b925082820190508082111562000164576200016362000103565b5b92915050565b5f63ffffffff82169050919050565b5f62000185826200016a565b915063ffffffff82036200019e576200019d62000103565b5b600182019050919050565b60805160a051611dca620001ee5f395f818161034f015281816108b201528181610bf401528181610f870152818161126001526113e801525f6113c10152611dca5ff3fe608060405234801561000f575f80fd5b506004361061012a575f3560e01c8063861a179d116100ab578063ca4cce681161006f578063ca4cce68146102bc578063e47a9d46146102d8578063e4f3e947146102f6578063ee7126c314610314578063f5f9cdd4146103305761012a565b8063861a179d1461022a578063a53da00b14610246578063b5c09c6814610264578063c387b49c14610280578063c5a1c5c11461029e5761012a565b806337676f79116100f257806337676f79146101985780634494acd9146101b6578063544fa93e146101d257806366410997146101ee5780636cf106d71461020c5761012a565b8063054203bd1461012e5780630df4c3901461014a57806318074eee146101545780631f86aa2a1461015e578063289b3c0d1461017a575b5f80fd5b61014860048036038101906101439190611a9c565b61034c565b005b610152610517565b005b61015c6106d7565b005b61017860048036038101906101739190611a9c565b6108af565b005b610182610b9d565b60405161018f9190611ad6565b60405180910390f35b6101a0610bc7565b6040516101ad9190611ad6565b60405180910390f35b6101d060048036038101906101cb9190611a9c565b610bf1565b005b6101ec60048036038101906101e79190611a9c565b610e36565b005b6101f6610f42565b6040516102039190611ad6565b60405180910390f35b610214610f6c565b6040516102219190611b09565b60405180910390f35b610244600480360381019061023f9190611a9c565b610f84565b005b61024e611233565b60405161025b9190611ad6565b60405180910390f35b61027e60048036038101906102799190611b4c565b61125d565b005b6102886113a3565b6040516102959190611b95565b60405180910390f35b6102a66113be565b6040516102b39190611ad6565b60405180910390f35b6102d660048036038101906102d19190611a9c565b6113e5565b005b6102e06115fd565b6040516102ed9190611ad6565b60405180910390f35b6102fe611604565b60405161030b9190611b09565b60405180910390f35b61032e60048036038101906103299190611a9c565b61161c565b005b61034a60048036038101906103459190611b4c565b611865565b005b427f000000000000000000000000000000000000000000000000000000000000000065ffffffffffff1610156103f6576103846113be565b73ffffffffffffffffffffffffffffffffffffffff163373ffffffffffffffffffffffffffffffffffffffff16146103f1576040517f08c379a00000000000000000000000000000000000000000000000000000000081526004016103e890611c08565b60405180910390fd5b61047d565b6103fe610f42565b73ffffffffffffffffffffffffffffffffffffffff163373ffffffffffffffffffffffffffffffffffffffff1614801561043d575061043b610f6c565b155b61047c576040517f08c379a000000000000000000000000000000000000000000000000000000000815260040161047390611c08565b60405180910390fd5b5b8060025f6101000a81548173ffffffffffffffffffffffffffffffffffffffff021916908373ffffffffffffffffffffffffffffffffffffffff1602179055506104c760016118f7565b6104d16001611916565b8073ffffffffffffffffffffffffffffffffffffffff167f3553f1f7ef0242113266a8d183b621bb87468c99237f36b1150b6ab3d688b68660405160405180910390a250565b3373ffffffffffffffffffffffffffffffffffffffff1660025f9054906101000a900473ffffffffffffffffffffffffffffffffffffffff1673ffffffffffffffffffffffffffffffffffffffff16036106a35760025f6101000a81549073ffffffffffffffffffffffffffffffffffffffff02191690553360045f015f6101000a81548173ffffffffffffffffffffffffffffffffffffffff021916908373ffffffffffffffffffffffffffffffffffffffff16021790555060045f01601581819054906101000a900463ffffffff16809291906105f590611c53565b91906101000a81548163ffffffff021916908363ffffffff1602179055505061061d5f6118f7565b60045f0160159054906101000a900463ffffffff1663ffffffff1660045f015f9054906101000a900473ffffffffffffffffffffffffffffffffffffffff1673ffffffffffffffffffffffffffffffffffffffff167f05ad9b3688012cd825c1bfb941e4f5afb2558af6af3deaddf01dbb5e85abdaf960405160405180910390a36106d5565b6040517f6c4360f000000000000000000000000000000000000000000000000000000000815260040160405180910390fd5b565b3373ffffffffffffffffffffffffffffffffffffffff1660035f9054906101000a900473ffffffffffffffffffffffffffffffffffffffff1673ffffffffffffffffffffffffffffffffffffffff160361087b5760035f6101000a81549073ffffffffffffffffffffffffffffffffffffffff02191690553360055f015f6101000a81548173ffffffffffffffffffffffffffffffffffffffff021916908373ffffffffffffffffffffffffffffffffffffffff16021790555060055f01601581819054906101000a900463ffffffff16809291906107b590611c53565b91906101000a81548163ffffffff021916908363ffffffff1602179055505060055f0160149054906101000a900460ff16156107f5576107f45f611916565b5b60055f0160159054906101000a900463ffffffff1663ffffffff1660055f015f9054906101000a900473ffffffffffffffffffffffffffffffffffffffff1673ffffffffffffffffffffffffffffffffffffffff167f11e1b985c07e1bf3fec9bfd0bdb8c4a8e870ba2b26aa89fe50a6a19132ca10fd60405160405180910390a36108ad565b6040517f6c4360f000000000000000000000000000000000000000000000000000000000815260040160405180910390fd5b565b427f000000000000000000000000000000000000000000000000000000000000000065ffffffffffff161015610959576108e76113be565b73ffffffffffffffffffffffffffffffffffffffff163373ffffffffffffffffffffffffffffffffffffffff1614610954576040517f08c379a000000000000000000000000000000000000000000000000000000000815260040161094b90611c08565b60405180910390fd5b6109e0565b610961610f42565b73ffffffffffffffffffffffffffffffffffffffff163373ffffffffffffffffffffffffffffffffffffffff161480156109a0575061099e610f6c565b155b6109df576040517f08c379a00000000000000000000000000000000000000000000000000000000081526004016109d690611c08565b60405180910390fd5b5b42600360149054906101000a900465ffffffffffff1665ffffffffffff161015610b3e575f600360149054906101000a900465ffffffffffff1665ffffffffffff1603610a62576040517f08c379a0000000000000000000000000000000000000000000000000000000008152600401610a5990611cc8565b60405180910390fd5b8073ffffffffffffffffffffffffffffffffffffffff165f8054906101000a900473ffffffffffffffffffffffffffffffffffffffff1673ffffffffffffffffffffffffffffffffffffffff1603610afc57600360146101000a81549065ffffffffffff02191690555f806101000a81549073ffffffffffffffffffffffffffffffffffffffff0219169055610af781611935565b610b39565b806040517fc6322315000000000000000000000000000000000000000000000000000000008152600401610b309190611ad6565b60405180910390fd5b610b9a565b42600360149054906101000a900465ffffffffffff16610b5e9190611cf7565b6040517f223a6cbb000000000000000000000000000000000000000000000000000000008152600401610b919190611d3f565b60405180910390fd5b50565b5f60065f015f9054906101000a900473ffffffffffffffffffffffffffffffffffffffff16905090565b5f60075f015f9054906101000a900473ffffffffffffffffffffffffffffffffffffffff16905090565b427f000000000000000000000000000000000000000000000000000000000000000065ffffffffffff161015610c9b57610c296113be565b73ffffffffffffffffffffffffffffffffffffffff163373ffffffffffffffffffffffffffffffffffffffff1614610c96576040517f08c379a0000000000000000000000000000000000000000000000000000000008152600401610c8d90611c08565b60405180910390fd5b610d22565b610ca3610f42565b73ffffffffffffffffffffffffffffffffffffffff163373ffffffffffffffffffffffffffffffffffffffff16148015610ce25750610ce0610f6c565b155b610d21576040517f08c379a0000000000000000000000000000000000000000000000000000000008152600401610d1890611c08565b60405180910390fd5b5b8073ffffffffffffffffffffffffffffffffffffffff165f8054906101000a900473ffffffffffffffffffffffffffffffffffffffff1673ffffffffffffffffffffffffffffffffffffffff1603610df657600360146101000a81549065ffffffffffff02191690555f806101000a81549073ffffffffffffffffffffffffffffffffffffffff02191690558073ffffffffffffffffffffffffffffffffffffffff167f62125dd3d531106ff055aac7090ccec5e1edec1d0db6b0f1355f2ca15475469560405160405180910390a2610e33565b806040517fc6322315000000000000000000000000000000000000000000000000000000008152600401610e2a9190611ad6565b60405180910390fd5b50565b610e3e610f42565b73ffffffffffffffffffffffffffffffffffffffff163373ffffffffffffffffffffffffffffffffffffffff16148015610e7d5750610e7b610f6c565b155b610ebc576040517f08c379a0000000000000000000000000000000000000000000000000000000008152600401610eb390611c08565b60405180910390fd5b8060035f6101000a81548173ffffffffffffffffffffffffffffffffffffffff021916908373ffffffffffffffffffffffffffffffffffffffff1602179055508073ffffffffffffffffffffffffffffffffffffffff167fff3cad3ee28c342ad5f3d7c8ff8559ee4d21eb48494092b82a1652e443b3420b60405160405180910390a250565b5f60045f015f9054906101000a900473ffffffffffffffffffffffffffffffffffffffff16905090565b5f60045f0160149054906101000a900460ff16905090565b427f000000000000000000000000000000000000000000000000000000000000000065ffffffffffff16101561102e57610fbc6113be565b73ffffffffffffffffffffffffffffffffffffffff163373ffffffffffffffffffffffffffffffffffffffff1614611029576040517f08c379a000000000000000000000000000000000000000000000000000000000815260040161102090611c08565b60405180910390fd5b6110b5565b611036610f42565b73ffffffffffffffffffffffffffffffffffffffff163373ffffffffffffffffffffffffffffffffffffffff161480156110755750611073610f6c565b155b6110b4576040517f08c379a00000000000000000000000000000000000000000000000000000000081526004016110ab90611c08565b60405180910390fd5b5b5f8173ffffffffffffffffffffffffffffffffffffffff163b11156111f3573373ffffffffffffffffffffffffffffffffffffffff1660045f015f9054906101000a900473ffffffffffffffffffffffffffffffffffffffff1673ffffffffffffffffffffffffffffffffffffffff16036111385761113381611935565b6111ee565b6213c680426111479190611d61565b600360146101000a81548165ffffffffffff021916908365ffffffffffff160217905550805f806101000a81548173ffffffffffffffffffffffffffffffffffffffff021916908373ffffffffffffffffffffffffffffffffffffffff1602179055508073ffffffffffffffffffffffffffffffffffffffff167f30b8fe69c9b4c23cc01223881227c0cc8cba5cc56d59263f51711df1a8f2c66760405160405180910390a25b611230565b806040517fc63223150000000000000000000000000000000000000000000000000000000081526004016112279190611ad6565b60405180910390fd5b50565b5f60055f015f9054906101000a900473ffffffffffffffffffffffffffffffffffffffff16905090565b427f000000000000000000000000000000000000000000000000000000000000000065ffffffffffff161015611307576112956113be565b73ffffffffffffffffffffffffffffffffffffffff163373ffffffffffffffffffffffffffffffffffffffff1614611302576040517f08c379a00000000000000000000000000000000000000000000000000000000081526004016112f990611c08565b60405180910390fd5b61138e565b61130f610f42565b73ffffffffffffffffffffffffffffffffffffffff163373ffffffffffffffffffffffffffffffffffffffff1614801561134e575061134c610f6c565b155b61138d576040517f08c379a000000000000000000000000000000000000000000000000000000000815260040161138490611c08565b60405180910390fd5b5b611397816118f7565b6113a081611916565b50565b5f60065f0160159054906101000a900463ffffffff16905090565b5f7f0000000000000000000000000000000000000000000000000000000000000000905090565b427f000000000000000000000000000000000000000000000000000000000000000065ffffffffffff16101561148f5761141d6113be565b73ffffffffffffffffffffffffffffffffffffffff163373ffffffffffffffffffffffffffffffffffffffff161461148a576040517f08c379a000000000000000000000000000000000000000000000000000000000815260040161148190611c08565b60405180910390fd5b611516565b611497610f42565b73ffffffffffffffffffffffffffffffffffffffff163373ffffffffffffffffffffffffffffffffffffffff161480156114d657506114d4610f6c565b155b611515576040517f08c379a000000000000000000000000000000000000000000000000000000000815260040161150c90611c08565b60405180910390fd5b5b5f8173ffffffffffffffffffffffffffffffffffffffff163b11156115bd578060015f6101000a81548173ffffffffffffffffffffffffffffffffffffffff021916908373ffffffffffffffffffffffffffffffffffffffff1602179055508073ffffffffffffffffffffffffffffffffffffffff167fe8d8e3c7c3ebec0c177d0fe22d223f8b5071db39155104808d45027e368ba77a60405160405180910390a26115fa565b806040517f84dbc6cb0000000000000000000000000000000000000000000000000000000081526004016115f19190611ad6565b60405180910390fd5b50565b5f30905090565b5f60055f0160149054906101000a900460ff16905090565b611624610f42565b73ffffffffffffffffffffffffffffffffffffffff163373ffffffffffffffffffffffffffffffffffffffff161480156116635750611661610f6c565b155b6116a2576040517f08c379a000000000000000000000000000000000000000000000000000000000815260040161169990611c08565b60405180910390fd5b8073ffffffffffffffffffffffffffffffffffffffff1660015f9054906101000a900473ffffffffffffffffffffffffffffffffffffffff1673ffffffffffffffffffffffffffffffffffffffff16036118255760015f6101000a81549073ffffffffffffffffffffffffffffffffffffffff02191690558060065f015f6101000a81548173ffffffffffffffffffffffffffffffffffffffff021916908373ffffffffffffffffffffffffffffffffffffffff16021790555060065f01601581819054906101000a900463ffffffff168092919061178090611c53565b91906101000a81548163ffffffff021916908363ffffffff1602179055505060065f0160159054906101000a900463ffffffff1663ffffffff1660065f015f9054906101000a900473ffffffffffffffffffffffffffffffffffffffff1673ffffffffffffffffffffffffffffffffffffffff167f5e86008a8467d1efccfe6cb6bd49ba7278d6af2745a1e6994e443322a423709360405160405180910390a3611862565b806040517f84dbc6cb0000000000000000000000000000000000000000000000000000000081526004016118599190611ad6565b60405180910390fd5b50565b61186d610f42565b73ffffffffffffffffffffffffffffffffffffffff163373ffffffffffffffffffffffffffffffffffffffff161480156118ac57506118aa610f6c565b155b6118eb576040517f08c379a00000000000000000000000000000000000000000000000000000000081526004016118e290611c08565b60405180910390fd5b6118f481611916565b50565b8060045f0160146101000a81548160ff02191690831515021790555050565b8060055f0160146101000a81548160ff02191690831515021790555050565b8060075f015f6101000a81548173ffffffffffffffffffffffffffffffffffffffff021916908373ffffffffffffffffffffffffffffffffffffffff16021790555060075f01601581819054906101000a900463ffffffff168092919061199b90611c53565b91906101000a81548163ffffffff021916908363ffffffff1602179055505060075f0160159054906101000a900463ffffffff1663ffffffff1660075f015f9054906101000a900473ffffffffffffffffffffffffffffffffffffffff1673ffffffffffffffffffffffffffffffffffffffff167fb88ef4c2b55163ed88bcf28dadfee0092169b7a9a712ceb09ff75e6d2d4ba63b60405160405180910390a350565b5f80fd5b5f73ffffffffffffffffffffffffffffffffffffffff82169050919050565b5f611a6b82611a42565b9050919050565b611a7b81611a61565b8114611a85575f80fd5b50565b5f81359050611a9681611a72565b92915050565b5f60208284031215611ab157611ab0611a3e565b5b5f611abe84828501611a88565b91505092915050565b611ad081611a61565b82525050565b5f602082019050611ae95f830184611ac7565b92915050565b5f8115159050919050565b611b0381611aef565b82525050565b5f602082019050611b1c5f830184611afa565b92915050565b611b2b81611aef565b8114611b35575f80fd5b50565b5f81359050611b4681611b22565b92915050565b5f60208284031215611b6157611b60611a3e565b5b5f611b6e84828501611b38565b91505092915050565b5f63ffffffff82169050919050565b611b8f81611b77565b82525050565b5f602082019050611ba85f830184611b86565b92915050565b5f82825260208201905092915050565b7f416363657373206973206e6f742076616c6964000000000000000000000000005f82015250565b5f611bf2601383611bae565b9150611bfd82611bbe565b602082019050919050565b5f6020820190508181035f830152611c1f81611be6565b9050919050565b7f4e487b71000000000000000000000000000000000000000000000000000000005f52601160045260245ffd5b5f611c5d82611b77565b915063ffffffff8203611c7357611c72611c26565b5b600182019050919050565b7f546865207265717565737420697320696e76616c6964000000000000000000005f82015250565b5f611cb2601683611bae565b9150611cbd82611c7e565b602082019050919050565b5f6020820190508181035f830152611cdf81611ca6565b9050919050565b5f65ffffffffffff82169050919050565b5f611d0182611ce6565b9150611d0c83611ce6565b9250828203905065ffffffffffff811115611d2a57611d29611c26565b5b92915050565b611d3981611ce6565b82525050565b5f602082019050611d525f830184611d30565b92915050565b5f819050919050565b5f611d6b82611d58565b9150611d7683611d58565b9250828201905080821115611d8e57611d8d611c26565b5b9291505056fea2646970667358221220d37178467f45cb86c49952ff3a5494ba2e0a748f22e96dd0639654944738974164736f6c63430008140033",
					"opcodes": "PUSH1 0xC0 PUSH1 0x40 MSTORE PUSH0 PUSH20 0xFFFFFFFFFFFFFFFFFFFFFFFFFFFFFFFFFFFFFFFF AND PUSH1 0x80 SWAP1 PUSH20 0xFFFFFFFFFFFFFFFFFFFFFFFFFFFFFFFFFFFFFFFF AND DUP2 MSTORE POP CALLVALUE DUP1 ISZERO PUSH3 0x43 JUMPI PUSH0 DUP1 REVERT JUMPDEST POP PUSH4 0x16A8C800 TIMESTAMP PUSH3 0x56 SWAP2 SWAP1 PUSH3 0x130 JUMP JUMPDEST PUSH6 0xFFFFFFFFFFFF AND PUSH1 0xA0 DUP2 PUSH6 0xFFFFFFFFFFFF AND DUP2 MSTORE POP POP CALLER PUSH1 0x4 PUSH0 ADD PUSH0 PUSH2 0x100 EXP DUP2 SLOAD DUP2 PUSH20 0xFFFFFFFFFFFFFFFFFFFFFFFFFFFFFFFFFFFFFFFF MUL NOT AND SWAP1 DUP4 PUSH20 0xFFFFFFFFFFFFFFFFFFFFFFFFFFFFFFFFFFFFFFFF AND MUL OR SWAP1 SSTORE POP PUSH1 0x4 PUSH0 ADD PUSH1 0x15 DUP2 DUP2 SWAP1 SLOAD SWAP1 PUSH2 0x100 EXP SWAP1 DIV PUSH4 0xFFFFFFFF AND DUP1 SWAP3 SWAP2 SWAP1 PUSH3 0xD5 SWAP1 PUSH3 0x179 JUMP JUMPDEST SWAP2 SWAP1 PUSH2 0x100 EXP DUP2 SLOAD DUP2 PUSH4 0xFFFFFFFF MUL NOT AND SWAP1 DUP4 PUSH4 0xFFFFFFFF AND MUL OR SWAP1 SSTORE POP POP PUSH3 0x1A9 JUMP JUMPDEST PUSH0 DUP2 SWAP1 POP SWAP2 SWAP1 POP JUMP JUMPDEST PUSH32 0x4E487B7100000000000000000000000000000000000000000000000000000000 PUSH0 MSTORE PUSH1 0x11 PUSH1 0x4 MSTORE PUSH1 0x24 PUSH0 REVERT JUMPDEST PUSH0 PUSH3 0x13C DUP3 PUSH3 0xFA JUMP JUMPDEST SWAP2 POP PUSH3 0x149 DUP4 PUSH3 0xFA JUMP JUMPDEST SWAP3 POP DUP3 DUP3 ADD SWAP1 POP DUP1 DUP3 GT ISZERO PUSH3 0x164 JUMPI PUSH3 0x163 PUSH3 0x103 JUMP JUMPDEST JUMPDEST SWAP3 SWAP2 POP POP JUMP JUMPDEST PUSH0 PUSH4 0xFFFFFFFF DUP3 AND SWAP1 POP SWAP2 SWAP1 POP JUMP JUMPDEST PUSH0 PUSH3 0x185 DUP3 PUSH3 0x16A JUMP JUMPDEST SWAP2 POP PUSH4 0xFFFFFFFF DUP3 SUB PUSH3 0x19E JUMPI PUSH3 0x19D PUSH3 0x103 JUMP JUMPDEST JUMPDEST PUSH1 0x1 DUP3 ADD SWAP1 POP SWAP2 SWAP1 POP JUMP JUMPDEST PUSH1 0x80 MLOAD PUSH1 0xA0 MLOAD PUSH2 0x1DCA PUSH3 0x1EE PUSH0 CODECOPY PUSH0 DUP2 DUP2 PUSH2 0x34F ADD MSTORE DUP2 DUP2 PUSH2 0x8B2 ADD MSTORE DUP2 DUP2 PUSH2 0xBF4 ADD MSTORE DUP2 DUP2 PUSH2 0xF87 ADD MSTORE DUP2 DUP2 PUSH2 0x1260 ADD MSTORE PUSH2 0x13E8 ADD MSTORE PUSH0 PUSH2 0x13C1 ADD MSTORE PUSH2 0x1DCA PUSH0 RETURN INVALID PUSH1 0x80 PUSH1 0x40 MSTORE CALLVALUE DUP1 ISZERO PUSH2 0xF JUMPI PUSH0 DUP1 REVERT JUMPDEST POP PUSH1 0x4 CALLDATASIZE LT PUSH2 0x12A JUMPI PUSH0 CALLDATALOAD PUSH1 0xE0 SHR DUP1 PUSH4 0x861A179D GT PUSH2 0xAB JUMPI DUP1 PUSH4 0xCA4CCE68 GT PUSH2 0x6F JUMPI DUP1 PUSH4 0xCA4CCE68 EQ PUSH2 0x2BC JUMPI DUP1 PUSH4 0xE47A9D46 EQ PUSH2 0x2D8 JUMPI DUP1 PUSH4 0xE4F3E947 EQ PUSH2 0x2F6 JUMPI DUP1 PUSH4 0xEE7126C3 EQ PUSH2 0x314 JUMPI DUP1 PUSH4 0xF5F9CDD4 EQ PUSH2 0x330 JUMPI PUSH2 0x12A JUMP JUMPDEST DUP1 PUSH4 0x861A179D EQ PUSH2 0x22A JUMPI DUP1 PUSH4 0xA53DA00B EQ PUSH2 0x246 JUMPI DUP1 PUSH4 0xB5C09C68 EQ PUSH2 0x264 JUMPI DUP1 PUSH4 0xC387B49C EQ PUSH2 0x280 JUMPI DUP1 PUSH4 0xC5A1C5C1 EQ PUSH2 0x29E JUMPI PUSH2 0x12A JUMP JUMPDEST DUP1 PUSH4 0x37676F79 GT PUSH2 0xF2 JUMPI DUP1 PUSH4 0x37676F79 EQ PUSH2 0x198 JUMPI DUP1 PUSH4 0x4494ACD9 EQ PUSH2 0x1B6 JUMPI DUP1 PUSH4 0x544FA93E EQ PUSH2 0x1D2 JUMPI DUP1 PUSH4 0x66410997 EQ PUSH2 0x1EE JUMPI DUP1 PUSH4 0x6CF106D7 EQ PUSH2 0x20C JUMPI PUSH2 0x12A JUMP JUMPDEST DUP1 PUSH4 0x54203BD EQ PUSH2 0x12E JUMPI DUP1 PUSH4 0xDF4C390 EQ PUSH2 0x14A JUMPI DUP1 PUSH4 0x18074EEE EQ PUSH2 0x154 JUMPI DUP1 PUSH4 0x1F86AA2A EQ PUSH2 0x15E JUMPI DUP1 PUSH4 0x289B3C0D EQ PUSH2 0x17A JUMPI JUMPDEST PUSH0 DUP1 REVERT JUMPDEST PUSH2 0x148 PUSH1 0x4 DUP1 CALLDATASIZE SUB DUP2 ADD SWAP1 PUSH2 0x143 SWAP2 SWAP1 PUSH2 0x1A9C JUMP JUMPDEST PUSH2 0x34C JUMP JUMPDEST STOP JUMPDEST PUSH2 0x152 PUSH2 0x517 JUMP JUMPDEST STOP JUMPDEST PUSH2 0x15C PUSH2 0x6D7 JUMP JUMPDEST STOP JUMPDEST PUSH2 0x178 PUSH1 0x4 DUP1 CALLDATASIZE SUB DUP2 ADD SWAP1 PUSH2 0x173 SWAP2 SWAP1 PUSH2 0x1A9C JUMP JUMPDEST PUSH2 0x8AF JUMP JUMPDEST STOP JUMPDEST PUSH2 0x182 PUSH2 0xB9D JUMP JUMPDEST PUSH1 0x40 MLOAD PUSH2 0x18F SWAP2 SWAP1 PUSH2 0x1AD6 JUMP JUMPDEST PUSH1 0x40 MLOAD DUP1 SWAP2 SUB SWAP1 RETURN JUMPDEST PUSH2 0x1A0 PUSH2 0xBC7 JUMP JUMPDEST PUSH1 0x40 MLOAD PUSH2 0x1AD SWAP2 SWAP1 PUSH2 0x1AD6 JUMP JUMPDEST PUSH1 0x40 MLOAD DUP1 SWAP2 SUB SWAP1 RETURN JUMPDEST PUSH2 0x1D0 PUSH1 0x4 DUP1 CALLDATASIZE SUB DUP2 ADD SWAP1 PUSH2 0x1CB SWAP2 SWAP1 PUSH2 0x1A9C JUMP JUMPDEST PUSH2 0xBF1 JUMP JUMPDEST STOP JUMPDEST PUSH2 0x1EC PUSH1 0x4 DUP1 CALLDATASIZE SUB DUP2 ADD SWAP1 PUSH2 0x1E7 SWAP2 SWAP1 PUSH2 0x1A9C JUMP JUMPDEST PUSH2 0xE36 JUMP JUMPDEST STOP JUMPDEST PUSH2 0x1F6 PUSH2 0xF42 JUMP JUMPDEST PUSH1 0x40 MLOAD PUSH2 0x203 SWAP2 SWAP1 PUSH2 0x1AD6 JUMP JUMPDEST PUSH1 0x40 MLOAD DUP1 SWAP2 SUB SWAP1 RETURN JUMPDEST PUSH2 0x214 PUSH2 0xF6C JUMP JUMPDEST PUSH1 0x40 MLOAD PUSH2 0x221 SWAP2 SWAP1 PUSH2 0x1B09 JUMP JUMPDEST PUSH1 0x40 MLOAD DUP1 SWAP2 SUB SWAP1 RETURN JUMPDEST PUSH2 0x244 PUSH1 0x4 DUP1 CALLDATASIZE SUB DUP2 ADD SWAP1 PUSH2 0x23F SWAP2 SWAP1 PUSH2 0x1A9C JUMP JUMPDEST PUSH2 0xF84 JUMP JUMPDEST STOP JUMPDEST PUSH2 0x24E PUSH2 0x1233 JUMP JUMPDEST PUSH1 0x40 MLOAD PUSH2 0x25B SWAP2 SWAP1 PUSH2 0x1AD6 JUMP JUMPDEST PUSH1 0x40 MLOAD DUP1 SWAP2 SUB SWAP1 RETURN JUMPDEST PUSH2 0x27E PUSH1 0x4 DUP1 CALLDATASIZE SUB DUP2 ADD SWAP1 PUSH2 0x279 SWAP2 SWAP1 PUSH2 0x1B4C JUMP JUMPDEST PUSH2 0x125D JUMP JUMPDEST STOP JUMPDEST PUSH2 0x288 PUSH2 0x13A3 JUMP JUMPDEST PUSH1 0x40 MLOAD PUSH2 0x295 SWAP2 SWAP1 PUSH2 0x1B95 JUMP JUMPDEST PUSH1 0x40 MLOAD DUP1 SWAP2 SUB SWAP1 RETURN JUMPDEST PUSH2 0x2A6 PUSH2 0x13BE JUMP JUMPDEST PUSH1 0x40 MLOAD PUSH2 0x2B3 SWAP2 SWAP1 PUSH2 0x1AD6 JUMP JUMPDEST PUSH1 0x40 MLOAD DUP1 SWAP2 SUB SWAP1 RETURN JUMPDEST PUSH2 0x2D6 PUSH1 0x4 DUP1 CALLDATASIZE SUB DUP2 ADD SWAP1 PUSH2 0x2D1 SWAP2 SWAP1 PUSH2 0x1A9C JUMP JUMPDEST PUSH2 0x13E5 JUMP JUMPDEST STOP JUMPDEST PUSH2 0x2E0 PUSH2 0x15FD JUMP JUMPDEST PUSH1 0x40 MLOAD PUSH2 0x2ED SWAP2 SWAP1 PUSH2 0x1AD6 JUMP JUMPDEST PUSH1 0x40 MLOAD DUP1 SWAP2 SUB SWAP1 RETURN JUMPDEST PUSH2 0x2FE PUSH2 0x1604 JUMP JUMPDEST PUSH1 0x40 MLOAD PUSH2 0x30B SWAP2 SWAP1 PUSH2 0x1B09 JUMP JUMPDEST PUSH1 0x40 MLOAD DUP1 SWAP2 SUB SWAP1 RETURN JUMPDEST PUSH2 0x32E PUSH1 0x4 DUP1 CALLDATASIZE SUB DUP2 ADD SWAP1 PUSH2 0x329 SWAP2 SWAP1 PUSH2 0x1A9C JUMP JUMPDEST PUSH2 0x161C JUMP JUMPDEST STOP JUMPDEST PUSH2 0x34A PUSH1 0x4 DUP1 CALLDATASIZE SUB DUP2 ADD SWAP1 PUSH2 0x345 SWAP2 SWAP1 PUSH2 0x1B4C JUMP JUMPDEST PUSH2 0x1865 JUMP JUMPDEST STOP JUMPDEST TIMESTAMP PUSH32 0x0 PUSH6 0xFFFFFFFFFFFF AND LT ISZERO PUSH2 0x3F6 JUMPI PUSH2 0x384 PUSH2 0x13BE JUMP JUMPDEST PUSH20 0xFFFFFFFFFFFFFFFFFFFFFFFFFFFFFFFFFFFFFFFF AND CALLER PUSH20 0xFFFFFFFFFFFFFFFFFFFFFFFFFFFFFFFFFFFFFFFF AND EQ PUSH2 0x3F1 JUMPI PUSH1 0x40 MLOAD PUSH32 0x8C379A000000000000000000000000000000000000000000000000000000000 DUP2 MSTORE PUSH1 0x4 ADD PUSH2 0x3E8 SWAP1 PUSH2 0x1C08 JUMP JUMPDEST PUSH1 0x40 MLOAD DUP1 SWAP2 SUB SWAP1 REVERT JUMPDEST PUSH2 0x47D JUMP JUMPDEST PUSH2 0x3FE PUSH2 0xF42 JUMP JUMPDEST PUSH20 0xFFFFFFFFFFFFFFFFFFFFFFFFFFFFFFFFFFFFFFFF AND CALLER PUSH20 0xFFFFFFFFFFFFFFFFFFFFFFFFFFFFFFFFFFFFFFFF AND EQ DUP1 ISZERO PUSH2 0x43D JUMPI POP PUSH2 0x43B PUSH2 0xF6C JUMP JUMPDEST ISZERO JUMPDEST PUSH2 0x47C JUMPI PUSH1 0x40 MLOAD PUSH32 0x8C379A000000000000000000000000000000000000000000000000000000000 DUP2 MSTORE PUSH1 0x4 ADD PUSH2 0x473 SWAP1 PUSH2 0x1C08 JUMP JUMPDEST PUSH1 0x40 MLOAD DUP1 SWAP2 SUB SWAP1 REVERT JUMPDEST JUMPDEST DUP1 PUSH1 0x2 PUSH0 PUSH2 0x100 EXP DUP2 SLOAD DUP2 PUSH20 0xFFFFFFFFFFFFFFFFFFFFFFFFFFFFFFFFFFFFFFFF MUL NOT AND SWAP1 DUP4 PUSH20 0xFFFFFFFFFFFFFFFFFFFFFFFFFFFFFFFFFFFFFFFF AND MUL OR SWAP1 SSTORE POP PUSH2 0x4C7 PUSH1 0x1 PUSH2 0x18F7 JUMP JUMPDEST PUSH2 0x4D1 PUSH1 0x1 PUSH2 0x1916 JUMP JUMPDEST DUP1 PUSH20 0xFFFFFFFFFFFFFFFFFFFFFFFFFFFFFFFFFFFFFFFF AND PUSH32 0x3553F1F7EF0242113266A8D183B621BB87468C99237F36B1150B6AB3D688B686 PUSH1 0x40 MLOAD PUSH1 0x40 MLOAD DUP1 SWAP2 SUB SWAP1 LOG2 POP JUMP JUMPDEST CALLER PUSH20 0xFFFFFFFFFFFFFFFFFFFFFFFFFFFFFFFFFFFFFFFF AND PUSH1 0x2 PUSH0 SWAP1 SLOAD SWAP1 PUSH2 0x100 EXP SWAP1 DIV PUSH20 0xFFFFFFFFFFFFFFFFFFFFFFFFFFFFFFFFFFFFFFFF AND PUSH20 0xFFFFFFFFFFFFFFFFFFFFFFFFFFFFFFFFFFFFFFFF AND SUB PUSH2 0x6A3 JUMPI PUSH1 0x2 PUSH0 PUSH2 0x100 EXP DUP2 SLOAD SWAP1 PUSH20 0xFFFFFFFFFFFFFFFFFFFFFFFFFFFFFFFFFFFFFFFF MUL NOT AND SWAP1 SSTORE CALLER PUSH1 0x4 PUSH0 ADD PUSH0 PUSH2 0x100 EXP DUP2 SLOAD DUP2 PUSH20 0xFFFFFFFFFFFFFFFFFFFFFFFFFFFFFFFFFFFFFFFF MUL NOT AND SWAP1 DUP4 PUSH20 0xFFFFFFFFFFFFFFFFFFFFFFFFFFFFFFFFFFFFFFFF AND MUL OR SWAP1 SSTORE POP PUSH1 0x4 PUSH0 ADD PUSH1 0x15 DUP2 DUP2 SWAP1 SLOAD SWAP1 PUSH2 0x100 EXP SWAP1 DIV PUSH4 0xFFFFFFFF AND DUP1 SWAP3 SWAP2 SWAP1 PUSH2 0x5F5 SWAP1 PUSH2 0x1C53 JUMP JUMPDEST SWAP2 SWAP1 PUSH2 0x100 EXP DUP2 SLOAD DUP2 PUSH4 0xFFFFFFFF MUL NOT AND SWAP1 DUP4 PUSH4 0xFFFFFFFF AND MUL OR SWAP1 SSTORE POP POP PUSH2 0x61D PUSH0 PUSH2 0x18F7 JUMP JUMPDEST PUSH1 0x4 PUSH0 ADD PUSH1 0x15 SWAP1 SLOAD SWAP1 PUSH2 0x100 EXP SWAP1 DIV PUSH4 0xFFFFFFFF AND PUSH4 0xFFFFFFFF AND PUSH1 0x4 PUSH0 ADD PUSH0 SWAP1 SLOAD SWAP1 PUSH2 0x100 EXP SWAP1 DIV PUSH20 0xFFFFFFFFFFFFFFFFFFFFFFFFFFFFFFFFFFFFFFFF AND PUSH20 0xFFFFFFFFFFFFFFFFFFFFFFFFFFFFFFFFFFFFFFFF AND PUSH32 0x5AD9B3688012CD825C1BFB941E4F5AFB2558AF6AF3DEADDF01DBB5E85ABDAF9 PUSH1 0x40 MLOAD PUSH1 0x40 MLOAD DUP1 SWAP2 SUB SWAP1 LOG3 PUSH2 0x6D5 JUMP JUMPDEST PUSH1 0x40 MLOAD PUSH32 0x6C4360F000000000000000000000000000000000000000000000000000000000 DUP2 MSTORE PUSH1 0x4 ADD PUSH1 0x40 MLOAD DUP1 SWAP2 SUB SWAP1 REVERT JUMPDEST JUMP JUMPDEST CALLER PUSH20 0xFFFFFFFFFFFFFFFFFFFFFFFFFFFFFFFFFFFFFFFF AND PUSH1 0x3 PUSH0 SWAP1 SLOAD SWAP1 PUSH2 0x100 EXP SWAP1 DIV PUSH20 0xFFFFFFFFFFFFFFFFFFFFFFFFFFFFFFFFFFFFFFFF AND PUSH20 0xFFFFFFFFFFFFFFFFFFFFFFFFFFFFFFFFFFFFFFFF AND SUB PUSH2 0x87B JUMPI PUSH1 0x3 PUSH0 PUSH2 0x100 EXP DUP2 SLOAD SWAP1 PUSH20 0xFFFFFFFFFFFFFFFFFFFFFFFFFFFFFFFFFFFFFFFF MUL NOT AND SWAP1 SSTORE CALLER PUSH1 0x5 PUSH0 ADD PUSH0 PUSH2 0x100 EXP DUP2 SLOAD DUP2 PUSH20 0xFFFFFFFFFFFFFFFFFFFFFFFFFFFFFFFFFFFFFFFF MUL NOT AND SWAP1 DUP4 PUSH20 0xFFFFFFFFFFFFFFFFFFFFFFFFFFFFFFFFFFFFFFFF AND MUL OR SWAP1 SSTORE POP PUSH1 0x5 PUSH0 ADD PUSH1 0x15 DUP2 DUP2 SWAP1 SLOAD SWAP1 PUSH2 0x100 EXP SWAP1 DIV PUSH4 0xFFFFFFFF AND DUP1 SWAP3 SWAP2 SWAP1 PUSH2 0x7B5 SWAP1 PUSH2 0x1C53 JUMP JUMPDEST SWAP2 SWAP1 PUSH2 0x100 EXP DUP2 SLOAD DUP2 PUSH4 0xFFFFFFFF MUL NOT AND SWAP1 DUP4 PUSH4 0xFFFFFFFF AND MUL OR SWAP1 SSTORE POP POP PUSH1 0x5 PUSH0 ADD PUSH1 0x14 SWAP1 SLOAD SWAP1 PUSH2 0x100 EXP SWAP1 DIV PUSH1 0xFF AND ISZERO PUSH2 0x7F5 JUMPI PUSH2 0x7F4 PUSH0 PUSH2 0x1916 JUMP JUMPDEST JUMPDEST PUSH1 0x5 PUSH0 ADD PUSH1 0x15 SWAP1 SLOAD SWAP1 PUSH2 0x100 EXP SWAP1 DIV PUSH4 0xFFFFFFFF AND PUSH4 0xFFFFFFFF AND PUSH1 0x5 PUSH0 ADD PUSH0 SWAP1 SLOAD SWAP1 PUSH2 0x100 EXP SWAP1 DIV PUSH20 0xFFFFFFFFFFFFFFFFFFFFFFFFFFFFFFFFFFFFFFFF AND PUSH20 0xFFFFFFFFFFFFFFFFFFFFFFFFFFFFFFFFFFFFFFFF AND PUSH32 0x11E1B985C07E1BF3FEC9BFD0BDB8C4A8E870BA2B26AA89FE50A6A19132CA10FD PUSH1 0x40 MLOAD PUSH1 0x40 MLOAD DUP1 SWAP2 SUB SWAP1 LOG3 PUSH2 0x8AD JUMP JUMPDEST PUSH1 0x40 MLOAD PUSH32 0x6C4360F000000000000000000000000000000000000000000000000000000000 DUP2 MSTORE PUSH1 0x4 ADD PUSH1 0x40 MLOAD DUP1 SWAP2 SUB SWAP1 REVERT JUMPDEST JUMP JUMPDEST TIMESTAMP PUSH32 0x0 PUSH6 0xFFFFFFFFFFFF AND LT ISZERO PUSH2 0x959 JUMPI PUSH2 0x8E7 PUSH2 0x13BE JUMP JUMPDEST PUSH20 0xFFFFFFFFFFFFFFFFFFFFFFFFFFFFFFFFFFFFFFFF AND CALLER PUSH20 0xFFFFFFFFFFFFFFFFFFFFFFFFFFFFFFFFFFFFFFFF AND EQ PUSH2 0x954 JUMPI PUSH1 0x40 MLOAD PUSH32 0x8C379A000000000000000000000000000000000000000000000000000000000 DUP2 MSTORE PUSH1 0x4 ADD PUSH2 0x94B SWAP1 PUSH2 0x1C08 JUMP JUMPDEST PUSH1 0x40 MLOAD DUP1 SWAP2 SUB SWAP1 REVERT JUMPDEST PUSH2 0x9E0 JUMP JUMPDEST PUSH2 0x961 PUSH2 0xF42 JUMP JUMPDEST PUSH20 0xFFFFFFFFFFFFFFFFFFFFFFFFFFFFFFFFFFFFFFFF AND CALLER PUSH20 0xFFFFFFFFFFFFFFFFFFFFFFFFFFFFFFFFFFFFFFFF AND EQ DUP1 ISZERO PUSH2 0x9A0 JUMPI POP PUSH2 0x99E PUSH2 0xF6C JUMP JUMPDEST ISZERO JUMPDEST PUSH2 0x9DF JUMPI PUSH1 0x40 MLOAD PUSH32 0x8C379A000000000000000000000000000000000000000000000000000000000 DUP2 MSTORE PUSH1 0x4 ADD PUSH2 0x9D6 SWAP1 PUSH2 0x1C08 JUMP JUMPDEST PUSH1 0x40 MLOAD DUP1 SWAP2 SUB SWAP1 REVERT JUMPDEST JUMPDEST TIMESTAMP PUSH1 0x3 PUSH1 0x14 SWAP1 SLOAD SWAP1 PUSH2 0x100 EXP SWAP1 DIV PUSH6 0xFFFFFFFFFFFF AND PUSH6 0xFFFFFFFFFFFF AND LT ISZERO PUSH2 0xB3E JUMPI PUSH0 PUSH1 0x3 PUSH1 0x14 SWAP1 SLOAD SWAP1 PUSH2 0x100 EXP SWAP1 DIV PUSH6 0xFFFFFFFFFFFF AND PUSH6 0xFFFFFFFFFFFF AND SUB PUSH2 0xA62 JUMPI PUSH1 0x40 MLOAD PUSH32 0x8C379A000000000000000000000000000000000000000000000000000000000 DUP2 MSTORE PUSH1 0x4 ADD PUSH2 0xA59 SWAP1 PUSH2 0x1CC8 JUMP JUMPDEST PUSH1 0x40 MLOAD DUP1 SWAP2 SUB SWAP1 REVERT JUMPDEST DUP1 PUSH20 0xFFFFFFFFFFFFFFFFFFFFFFFFFFFFFFFFFFFFFFFF AND PUSH0 DUP1 SLOAD SWAP1 PUSH2 0x100 EXP SWAP1 DIV PUSH20 0xFFFFFFFFFFFFFFFFFFFFFFFFFFFFFFFFFFFFFFFF AND PUSH20 0xFFFFFFFFFFFFFFFFFFFFFFFFFFFFFFFFFFFFFFFF AND SUB PUSH2 0xAFC JUMPI PUSH1 0x3 PUSH1 0x14 PUSH2 0x100 EXP DUP2 SLOAD SWAP1 PUSH6 0xFFFFFFFFFFFF MUL NOT AND SWAP1 SSTORE PUSH0 DUP1 PUSH2 0x100 EXP DUP2 SLOAD SWAP1 PUSH20 0xFFFFFFFFFFFFFFFFFFFFFFFFFFFFFFFFFFFFFFFF MUL NOT AND SWAP1 SSTORE PUSH2 0xAF7 DUP2 PUSH2 0x1935 JUMP JUMPDEST PUSH2 0xB39 JUMP JUMPDEST DUP1 PUSH1 0x40 MLOAD PUSH32 0xC632231500000000000000000000000000000000000000000000000000000000 DUP2 MSTORE PUSH1 0x4 ADD PUSH2 0xB30 SWAP2 SWAP1 PUSH2 0x1AD6 JUMP JUMPDEST PUSH1 0x40 MLOAD DUP1 SWAP2 SUB SWAP1 REVERT JUMPDEST PUSH2 0xB9A JUMP JUMPDEST TIMESTAMP PUSH1 0x3 PUSH1 0x14 SWAP1 SLOAD SWAP1 PUSH2 0x100 EXP SWAP1 DIV PUSH6 0xFFFFFFFFFFFF AND PUSH2 0xB5E SWAP2 SWAP1 PUSH2 0x1CF7 JUMP JUMPDEST PUSH1 0x40 MLOAD PUSH32 0x223A6CBB00000000000000000000000000000000000000000000000000000000 DUP2 MSTORE PUSH1 0x4 ADD PUSH2 0xB91 SWAP2 SWAP1 PUSH2 0x1D3F JUMP JUMPDEST PUSH1 0x40 MLOAD DUP1 SWAP2 SUB SWAP1 REVERT JUMPDEST POP JUMP JUMPDEST PUSH0 PUSH1 0x6 PUSH0 ADD PUSH0 SWAP1 SLOAD SWAP1 PUSH2 0x100 EXP SWAP1 DIV PUSH20 0xFFFFFFFFFFFFFFFFFFFFFFFFFFFFFFFFFFFFFFFF AND SWAP1 POP SWAP1 JUMP JUMPDEST PUSH0 PUSH1 0x7 PUSH0 ADD PUSH0 SWAP1 SLOAD SWAP1 PUSH2 0x100 EXP SWAP1 DIV PUSH20 0xFFFFFFFFFFFFFFFFFFFFFFFFFFFFFFFFFFFFFFFF AND SWAP1 POP SWAP1 JUMP JUMPDEST TIMESTAMP PUSH32 0x0 PUSH6 0xFFFFFFFFFFFF AND LT ISZERO PUSH2 0xC9B JUMPI PUSH2 0xC29 PUSH2 0x13BE JUMP JUMPDEST PUSH20 0xFFFFFFFFFFFFFFFFFFFFFFFFFFFFFFFFFFFFFFFF AND CALLER PUSH20 0xFFFFFFFFFFFFFFFFFFFFFFFFFFFFFFFFFFFFFFFF AND EQ PUSH2 0xC96 JUMPI PUSH1 0x40 MLOAD PUSH32 0x8C379A000000000000000000000000000000000000000000000000000000000 DUP2 MSTORE PUSH1 0x4 ADD PUSH2 0xC8D SWAP1 PUSH2 0x1C08 JUMP JUMPDEST PUSH1 0x40 MLOAD DUP1 SWAP2 SUB SWAP1 REVERT JUMPDEST PUSH2 0xD22 JUMP JUMPDEST PUSH2 0xCA3 PUSH2 0xF42 JUMP JUMPDEST PUSH20 0xFFFFFFFFFFFFFFFFFFFFFFFFFFFFFFFFFFFFFFFF AND CALLER PUSH20 0xFFFFFFFFFFFFFFFFFFFFFFFFFFFFFFFFFFFFFFFF AND EQ DUP1 ISZERO PUSH2 0xCE2 JUMPI POP PUSH2 0xCE0 PUSH2 0xF6C JUMP JUMPDEST ISZERO JUMPDEST PUSH2 0xD21 JUMPI PUSH1 0x40 MLOAD PUSH32 0x8C379A000000000000000000000000000000000000000000000000000000000 DUP2 MSTORE PUSH1 0x4 ADD PUSH2 0xD18 SWAP1 PUSH2 0x1C08 JUMP JUMPDEST PUSH1 0x40 MLOAD DUP1 SWAP2 SUB SWAP1 REVERT JUMPDEST JUMPDEST DUP1 PUSH20 0xFFFFFFFFFFFFFFFFFFFFFFFFFFFFFFFFFFFFFFFF AND PUSH0 DUP1 SLOAD SWAP1 PUSH2 0x100 EXP SWAP1 DIV PUSH20 0xFFFFFFFFFFFFFFFFFFFFFFFFFFFFFFFFFFFFFFFF AND PUSH20 0xFFFFFFFFFFFFFFFFFFFFFFFFFFFFFFFFFFFFFFFF AND SUB PUSH2 0xDF6 JUMPI PUSH1 0x3 PUSH1 0x14 PUSH2 0x100 EXP DUP2 SLOAD SWAP1 PUSH6 0xFFFFFFFFFFFF MUL NOT AND SWAP1 SSTORE PUSH0 DUP1 PUSH2 0x100 EXP DUP2 SLOAD SWAP1 PUSH20 0xFFFFFFFFFFFFFFFFFFFFFFFFFFFFFFFFFFFFFFFF MUL NOT AND SWAP1 SSTORE DUP1 PUSH20 0xFFFFFFFFFFFFFFFFFFFFFFFFFFFFFFFFFFFFFFFF AND PUSH32 0x62125DD3D531106FF055AAC7090CCEC5E1EDEC1D0DB6B0F1355F2CA154754695 PUSH1 0x40 MLOAD PUSH1 0x40 MLOAD DUP1 SWAP2 SUB SWAP1 LOG2 PUSH2 0xE33 JUMP JUMPDEST DUP1 PUSH1 0x40 MLOAD PUSH32 0xC632231500000000000000000000000000000000000000000000000000000000 DUP2 MSTORE PUSH1 0x4 ADD PUSH2 0xE2A SWAP2 SWAP1 PUSH2 0x1AD6 JUMP JUMPDEST PUSH1 0x40 MLOAD DUP1 SWAP2 SUB SWAP1 REVERT JUMPDEST POP JUMP JUMPDEST PUSH2 0xE3E PUSH2 0xF42 JUMP JUMPDEST PUSH20 0xFFFFFFFFFFFFFFFFFFFFFFFFFFFFFFFFFFFFFFFF AND CALLER PUSH20 0xFFFFFFFFFFFFFFFFFFFFFFFFFFFFFFFFFFFFFFFF AND EQ DUP1 ISZERO PUSH2 0xE7D JUMPI POP PUSH2 0xE7B PUSH2 0xF6C JUMP JUMPDEST ISZERO JUMPDEST PUSH2 0xEBC JUMPI PUSH1 0x40 MLOAD PUSH32 0x8C379A000000000000000000000000000000000000000000000000000000000 DUP2 MSTORE PUSH1 0x4 ADD PUSH2 0xEB3 SWAP1 PUSH2 0x1C08 JUMP JUMPDEST PUSH1 0x40 MLOAD DUP1 SWAP2 SUB SWAP1 REVERT JUMPDEST DUP1 PUSH1 0x3 PUSH0 PUSH2 0x100 EXP DUP2 SLOAD DUP2 PUSH20 0xFFFFFFFFFFFFFFFFFFFFFFFFFFFFFFFFFFFFFFFF MUL NOT AND SWAP1 DUP4 PUSH20 0xFFFFFFFFFFFFFFFFFFFFFFFFFFFFFFFFFFFFFFFF AND MUL OR SWAP1 SSTORE POP DUP1 PUSH20 0xFFFFFFFFFFFFFFFFFFFFFFFFFFFFFFFFFFFFFFFF AND PUSH32 0xFF3CAD3EE28C342AD5F3D7C8FF8559EE4D21EB48494092B82A1652E443B3420B PUSH1 0x40 MLOAD PUSH1 0x40 MLOAD DUP1 SWAP2 SUB SWAP1 LOG2 POP JUMP JUMPDEST PUSH0 PUSH1 0x4 PUSH0 ADD PUSH0 SWAP1 SLOAD SWAP1 PUSH2 0x100 EXP SWAP1 DIV PUSH20 0xFFFFFFFFFFFFFFFFFFFFFFFFFFFFFFFFFFFFFFFF AND SWAP1 POP SWAP1 JUMP JUMPDEST PUSH0 PUSH1 0x4 PUSH0 ADD PUSH1 0x14 SWAP1 SLOAD SWAP1 PUSH2 0x100 EXP SWAP1 DIV PUSH1 0xFF AND SWAP1 POP SWAP1 JUMP JUMPDEST TIMESTAMP PUSH32 0x0 PUSH6 0xFFFFFFFFFFFF AND LT ISZERO PUSH2 0x102E JUMPI PUSH2 0xFBC PUSH2 0x13BE JUMP JUMPDEST PUSH20 0xFFFFFFFFFFFFFFFFFFFFFFFFFFFFFFFFFFFFFFFF AND CALLER PUSH20 0xFFFFFFFFFFFFFFFFFFFFFFFFFFFFFFFFFFFFFFFF AND EQ PUSH2 0x1029 JUMPI PUSH1 0x40 MLOAD PUSH32 0x8C379A000000000000000000000000000000000000000000000000000000000 DUP2 MSTORE PUSH1 0x4 ADD PUSH2 0x1020 SWAP1 PUSH2 0x1C08 JUMP JUMPDEST PUSH1 0x40 MLOAD DUP1 SWAP2 SUB SWAP1 REVERT JUMPDEST PUSH2 0x10B5 JUMP JUMPDEST PUSH2 0x1036 PUSH2 0xF42 JUMP JUMPDEST PUSH20 0xFFFFFFFFFFFFFFFFFFFFFFFFFFFFFFFFFFFFFFFF AND CALLER PUSH20 0xFFFFFFFFFFFFFFFFFFFFFFFFFFFFFFFFFFFFFFFF AND EQ DUP1 ISZERO PUSH2 0x1075 JUMPI POP PUSH2 0x1073 PUSH2 0xF6C JUMP JUMPDEST ISZERO JUMPDEST PUSH2 0x10B4 JUMPI PUSH1 0x40 MLOAD PUSH32 0x8C379A000000000000000000000000000000000000000000000000000000000 DUP2 MSTORE PUSH1 0x4 ADD PUSH2 0x10AB SWAP1 PUSH2 0x1C08 JUMP JUMPDEST PUSH1 0x40 MLOAD DUP1 SWAP2 SUB SWAP1 REVERT JUMPDEST JUMPDEST PUSH0 DUP2 PUSH20 0xFFFFFFFFFFFFFFFFFFFFFFFFFFFFFFFFFFFFFFFF AND EXTCODESIZE GT ISZERO PUSH2 0x11F3 JUMPI CALLER PUSH20 0xFFFFFFFFFFFFFFFFFFFFFFFFFFFFFFFFFFFFFFFF AND PUSH1 0x4 PUSH0 ADD PUSH0 SWAP1 SLOAD SWAP1 PUSH2 0x100 EXP SWAP1 DIV PUSH20 0xFFFFFFFFFFFFFFFFFFFFFFFFFFFFFFFFFFFFFFFF AND PUSH20 0xFFFFFFFFFFFFFFFFFFFFFFFFFFFFFFFFFFFFFFFF AND SUB PUSH2 0x1138 JUMPI PUSH2 0x1133 DUP2 PUSH2 0x1935 JUMP JUMPDEST PUSH2 0x11EE JUMP JUMPDEST PUSH3 0x13C680 TIMESTAMP PUSH2 0x1147 SWAP2 SWAP1 PUSH2 0x1D61 JUMP JUMPDEST PUSH1 0x3 PUSH1 0x14 PUSH2 0x100 EXP DUP2 SLOAD DUP2 PUSH6 0xFFFFFFFFFFFF MUL NOT AND SWAP1 DUP4 PUSH6 0xFFFFFFFFFFFF AND MUL OR SWAP1 SSTORE POP DUP1 PUSH0 DUP1 PUSH2 0x100 EXP DUP2 SLOAD DUP2 PUSH20 0xFFFFFFFFFFFFFFFFFFFFFFFFFFFFFFFFFFFFFFFF MUL NOT AND SWAP1 DUP4 PUSH20 0xFFFFFFFFFFFFFFFFFFFFFFFFFFFFFFFFFFFFFFFF AND MUL OR SWAP1 SSTORE POP DUP1 PUSH20 0xFFFFFFFFFFFFFFFFFFFFFFFFFFFFFFFFFFFFFFFF AND PUSH32 0x30B8FE69C9B4C23CC01223881227C0CC8CBA5CC56D59263F51711DF1A8F2C667 PUSH1 0x40 MLOAD PUSH1 0x40 MLOAD DUP1 SWAP2 SUB SWAP1 LOG2 JUMPDEST PUSH2 0x1230 JUMP JUMPDEST DUP1 PUSH1 0x40 MLOAD PUSH32 0xC632231500000000000000000000000000000000000000000000000000000000 DUP2 MSTORE PUSH1 0x4 ADD PUSH2 0x1227 SWAP2 SWAP1 PUSH2 0x1AD6 JUMP JUMPDEST PUSH1 0x40 MLOAD DUP1 SWAP2 SUB SWAP1 REVERT JUMPDEST POP JUMP JUMPDEST PUSH0 PUSH1 0x5 PUSH0 ADD PUSH0 SWAP1 SLOAD SWAP1 PUSH2 0x100 EXP SWAP1 DIV PUSH20 0xFFFFFFFFFFFFFFFFFFFFFFFFFFFFFFFFFFFFFFFF AND SWAP1 POP SWAP1 JUMP JUMPDEST TIMESTAMP PUSH32 0x0 PUSH6 0xFFFFFFFFFFFF AND LT ISZERO PUSH2 0x1307 JUMPI PUSH2 0x1295 PUSH2 0x13BE JUMP JUMPDEST PUSH20 0xFFFFFFFFFFFFFFFFFFFFFFFFFFFFFFFFFFFFFFFF AND CALLER PUSH20 0xFFFFFFFFFFFFFFFFFFFFFFFFFFFFFFFFFFFFFFFF AND EQ PUSH2 0x1302 JUMPI PUSH1 0x40 MLOAD PUSH32 0x8C379A000000000000000000000000000000000000000000000000000000000 DUP2 MSTORE PUSH1 0x4 ADD PUSH2 0x12F9 SWAP1 PUSH2 0x1C08 JUMP JUMPDEST PUSH1 0x40 MLOAD DUP1 SWAP2 SUB SWAP1 REVERT JUMPDEST PUSH2 0x138E JUMP JUMPDEST PUSH2 0x130F PUSH2 0xF42 JUMP JUMPDEST PUSH20 0xFFFFFFFFFFFFFFFFFFFFFFFFFFFFFFFFFFFFFFFF AND CALLER PUSH20 0xFFFFFFFFFFFFFFFFFFFFFFFFFFFFFFFFFFFFFFFF AND EQ DUP1 ISZERO PUSH2 0x134E JUMPI POP PUSH2 0x134C PUSH2 0xF6C JUMP JUMPDEST ISZERO JUMPDEST PUSH2 0x138D JUMPI PUSH1 0x40 MLOAD PUSH32 0x8C379A000000000000000000000000000000000000000000000000000000000 DUP2 MSTORE PUSH1 0x4 ADD PUSH2 0x1384 SWAP1 PUSH2 0x1C08 JUMP JUMPDEST PUSH1 0x40 MLOAD DUP1 SWAP2 SUB SWAP1 REVERT JUMPDEST JUMPDEST PUSH2 0x1397 DUP2 PUSH2 0x18F7 JUMP JUMPDEST PUSH2 0x13A0 DUP2 PUSH2 0x1916 JUMP JUMPDEST POP JUMP JUMPDEST PUSH0 PUSH1 0x6 PUSH0 ADD PUSH1 0x15 SWAP1 SLOAD SWAP1 PUSH2 0x100 EXP SWAP1 DIV PUSH4 0xFFFFFFFF AND SWAP1 POP SWAP1 JUMP JUMPDEST PUSH0 PUSH32 0x0 SWAP1 POP SWAP1 JUMP JUMPDEST TIMESTAMP PUSH32 0x0 PUSH6 0xFFFFFFFFFFFF AND LT ISZERO PUSH2 0x148F JUMPI PUSH2 0x141D PUSH2 0x13BE JUMP JUMPDEST PUSH20 0xFFFFFFFFFFFFFFFFFFFFFFFFFFFFFFFFFFFFFFFF AND CALLER PUSH20 0xFFFFFFFFFFFFFFFFFFFFFFFFFFFFFFFFFFFFFFFF AND EQ PUSH2 0x148A JUMPI PUSH1 0x40 MLOAD PUSH32 0x8C379A000000000000000000000000000000000000000000000000000000000 DUP2 MSTORE PUSH1 0x4 ADD PUSH2 0x1481 SWAP1 PUSH2 0x1C08 JUMP JUMPDEST PUSH1 0x40 MLOAD DUP1 SWAP2 SUB SWAP1 REVERT JUMPDEST PUSH2 0x1516 JUMP JUMPDEST PUSH2 0x1497 PUSH2 0xF42 JUMP JUMPDEST PUSH20 0xFFFFFFFFFFFFFFFFFFFFFFFFFFFFFFFFFFFFFFFF AND CALLER PUSH20 0xFFFFFFFFFFFFFFFFFFFFFFFFFFFFFFFFFFFFFFFF AND EQ DUP1 ISZERO PUSH2 0x14D6 JUMPI POP PUSH2 0x14D4 PUSH2 0xF6C JUMP JUMPDEST ISZERO JUMPDEST PUSH2 0x1515 JUMPI PUSH1 0x40 MLOAD PUSH32 0x8C379A000000000000000000000000000000000000000000000000000000000 DUP2 MSTORE PUSH1 0x4 ADD PUSH2 0x150C SWAP1 PUSH2 0x1C08 JUMP JUMPDEST PUSH1 0x40 MLOAD DUP1 SWAP2 SUB SWAP1 REVERT JUMPDEST JUMPDEST PUSH0 DUP2 PUSH20 0xFFFFFFFFFFFFFFFFFFFFFFFFFFFFFFFFFFFFFFFF AND EXTCODESIZE GT ISZERO PUSH2 0x15BD JUMPI DUP1 PUSH1 0x1 PUSH0 PUSH2 0x100 EXP DUP2 SLOAD DUP2 PUSH20 0xFFFFFFFFFFFFFFFFFFFFFFFFFFFFFFFFFFFFFFFF MUL NOT AND SWAP1 DUP4 PUSH20 0xFFFFFFFFFFFFFFFFFFFFFFFFFFFFFFFFFFFFFFFF AND MUL OR SWAP1 SSTORE POP DUP1 PUSH20 0xFFFFFFFFFFFFFFFFFFFFFFFFFFFFFFFFFFFFFFFF AND PUSH32 0xE8D8E3C7C3EBEC0C177D0FE22D223F8B5071DB39155104808D45027E368BA77A PUSH1 0x40 MLOAD PUSH1 0x40 MLOAD DUP1 SWAP2 SUB SWAP1 LOG2 PUSH2 0x15FA JUMP JUMPDEST DUP1 PUSH1 0x40 MLOAD PUSH32 0x84DBC6CB00000000000000000000000000000000000000000000000000000000 DUP2 MSTORE PUSH1 0x4 ADD PUSH2 0x15F1 SWAP2 SWAP1 PUSH2 0x1AD6 JUMP JUMPDEST PUSH1 0x40 MLOAD DUP1 SWAP2 SUB SWAP1 REVERT JUMPDEST POP JUMP JUMPDEST PUSH0 ADDRESS SWAP1 POP SWAP1 JUMP JUMPDEST PUSH0 PUSH1 0x5 PUSH0 ADD PUSH1 0x14 SWAP1 SLOAD SWAP1 PUSH2 0x100 EXP SWAP1 DIV PUSH1 0xFF AND SWAP1 POP SWAP1 JUMP JUMPDEST PUSH2 0x1624 PUSH2 0xF42 JUMP JUMPDEST PUSH20 0xFFFFFFFFFFFFFFFFFFFFFFFFFFFFFFFFFFFFFFFF AND CALLER PUSH20 0xFFFFFFFFFFFFFFFFFFFFFFFFFFFFFFFFFFFFFFFF AND EQ DUP1 ISZERO PUSH2 0x1663 JUMPI POP PUSH2 0x1661 PUSH2 0xF6C JUMP JUMPDEST ISZERO JUMPDEST PUSH2 0x16A2 JUMPI PUSH1 0x40 MLOAD PUSH32 0x8C379A000000000000000000000000000000000000000000000000000000000 DUP2 MSTORE PUSH1 0x4 ADD PUSH2 0x1699 SWAP1 PUSH2 0x1C08 JUMP JUMPDEST PUSH1 0x40 MLOAD DUP1 SWAP2 SUB SWAP1 REVERT JUMPDEST DUP1 PUSH20 0xFFFFFFFFFFFFFFFFFFFFFFFFFFFFFFFFFFFFFFFF AND PUSH1 0x1 PUSH0 SWAP1 SLOAD SWAP1 PUSH2 0x100 EXP SWAP1 DIV PUSH20 0xFFFFFFFFFFFFFFFFFFFFFFFFFFFFFFFFFFFFFFFF AND PUSH20 0xFFFFFFFFFFFFFFFFFFFFFFFFFFFFFFFFFFFFFFFF AND SUB PUSH2 0x1825 JUMPI PUSH1 0x1 PUSH0 PUSH2 0x100 EXP DUP2 SLOAD SWAP1 PUSH20 0xFFFFFFFFFFFFFFFFFFFFFFFFFFFFFFFFFFFFFFFF MUL NOT AND SWAP1 SSTORE DUP1 PUSH1 0x6 PUSH0 ADD PUSH0 PUSH2 0x100 EXP DUP2 SLOAD DUP2 PUSH20 0xFFFFFFFFFFFFFFFFFFFFFFFFFFFFFFFFFFFFFFFF MUL NOT AND SWAP1 DUP4 PUSH20 0xFFFFFFFFFFFFFFFFFFFFFFFFFFFFFFFFFFFFFFFF AND MUL OR SWAP1 SSTORE POP PUSH1 0x6 PUSH0 ADD PUSH1 0x15 DUP2 DUP2 SWAP1 SLOAD SWAP1 PUSH2 0x100 EXP SWAP1 DIV PUSH4 0xFFFFFFFF AND DUP1 SWAP3 SWAP2 SWAP1 PUSH2 0x1780 SWAP1 PUSH2 0x1C53 JUMP JUMPDEST SWAP2 SWAP1 PUSH2 0x100 EXP DUP2 SLOAD DUP2 PUSH4 0xFFFFFFFF MUL NOT AND SWAP1 DUP4 PUSH4 0xFFFFFFFF AND MUL OR SWAP1 SSTORE POP POP PUSH1 0x6 PUSH0 ADD PUSH1 0x15 SWAP1 SLOAD SWAP1 PUSH2 0x100 EXP SWAP1 DIV PUSH4 0xFFFFFFFF AND PUSH4 0xFFFFFFFF AND PUSH1 0x6 PUSH0 ADD PUSH0 SWAP1 SLOAD SWAP1 PUSH2 0x100 EXP SWAP1 DIV PUSH20 0xFFFFFFFFFFFFFFFFFFFFFFFFFFFFFFFFFFFFFFFF AND PUSH20 0xFFFFFFFFFFFFFFFFFFFFFFFFFFFFFFFFFFFFFFFF AND PUSH32 0x5E86008A8467D1EFCCFE6CB6BD49BA7278D6AF2745A1E6994E443322A4237093 PUSH1 0x40 MLOAD PUSH1 0x40 MLOAD DUP1 SWAP2 SUB SWAP1 LOG3 PUSH2 0x1862 JUMP JUMPDEST DUP1 PUSH1 0x40 MLOAD PUSH32 0x84DBC6CB00000000000000000000000000000000000000000000000000000000 DUP2 MSTORE PUSH1 0x4 ADD PUSH2 0x1859 SWAP2 SWAP1 PUSH2 0x1AD6 JUMP JUMPDEST PUSH1 0x40 MLOAD DUP1 SWAP2 SUB SWAP1 REVERT JUMPDEST POP JUMP JUMPDEST PUSH2 0x186D PUSH2 0xF42 JUMP JUMPDEST PUSH20 0xFFFFFFFFFFFFFFFFFFFFFFFFFFFFFFFFFFFFFFFF AND CALLER PUSH20 0xFFFFFFFFFFFFFFFFFFFFFFFFFFFFFFFFFFFFFFFF AND EQ DUP1 ISZERO PUSH2 0x18AC JUMPI POP PUSH2 0x18AA PUSH2 0xF6C JUMP JUMPDEST ISZERO JUMPDEST PUSH2 0x18EB JUMPI PUSH1 0x40 MLOAD PUSH32 0x8C379A000000000000000000000000000000000000000000000000000000000 DUP2 MSTORE PUSH1 0x4 ADD PUSH2 0x18E2 SWAP1 PUSH2 0x1C08 JUMP JUMPDEST PUSH1 0x40 MLOAD DUP1 SWAP2 SUB SWAP1 REVERT JUMPDEST PUSH2 0x18F4 DUP2 PUSH2 0x1916 JUMP JUMPDEST POP JUMP JUMPDEST DUP1 PUSH1 0x4 PUSH0 ADD PUSH1 0x14 PUSH2 0x100 EXP DUP2 SLOAD DUP2 PUSH1 0xFF MUL NOT AND SWAP1 DUP4 ISZERO ISZERO MUL OR SWAP1 SSTORE POP POP JUMP JUMPDEST DUP1 PUSH1 0x5 PUSH0 ADD PUSH1 0x14 PUSH2 0x100 EXP DUP2 SLOAD DUP2 PUSH1 0xFF MUL NOT AND SWAP1 DUP4 ISZERO ISZERO MUL OR SWAP1 SSTORE POP POP JUMP JUMPDEST DUP1 PUSH1 0x7 PUSH0 ADD PUSH0 PUSH2 0x100 EXP DUP2 SLOAD DUP2 PUSH20 0xFFFFFFFFFFFFFFFFFFFFFFFFFFFFFFFFFFFFFFFF MUL NOT AND SWAP1 DUP4 PUSH20 0xFFFFFFFFFFFFFFFFFFFFFFFFFFFFFFFFFFFFFFFF AND MUL OR SWAP1 SSTORE POP PUSH1 0x7 PUSH0 ADD PUSH1 0x15 DUP2 DUP2 SWAP1 SLOAD SWAP1 PUSH2 0x100 EXP SWAP1 DIV PUSH4 0xFFFFFFFF AND DUP1 SWAP3 SWAP2 SWAP1 PUSH2 0x199B SWAP1 PUSH2 0x1C53 JUMP JUMPDEST SWAP2 SWAP1 PUSH2 0x100 EXP DUP2 SLOAD DUP2 PUSH4 0xFFFFFFFF MUL NOT AND SWAP1 DUP4 PUSH4 0xFFFFFFFF AND MUL OR SWAP1 SSTORE POP POP PUSH1 0x7 PUSH0 ADD PUSH1 0x15 SWAP1 SLOAD SWAP1 PUSH2 0x100 EXP SWAP1 DIV PUSH4 0xFFFFFFFF AND PUSH4 0xFFFFFFFF AND PUSH1 0x7 PUSH0 ADD PUSH0 SWAP1 SLOAD SWAP1 PUSH2 0x100 EXP SWAP1 DIV PUSH20 0xFFFFFFFFFFFFFFFFFFFFFFFFFFFFFFFFFFFFFFFF AND PUSH20 0xFFFFFFFFFFFFFFFFFFFFFFFFFFFFFFFFFFFFFFFF AND PUSH32 0xB88EF4C2B55163ED88BCF28DADFEE0092169B7A9A712CEB09FF75E6D2D4BA63B PUSH1 0x40 MLOAD PUSH1 0x40 MLOAD DUP1 SWAP2 SUB SWAP1 LOG3 POP JUMP JUMPDEST PUSH0 DUP1 REVERT JUMPDEST PUSH0 PUSH20 0xFFFFFFFFFFFFFFFFFFFFFFFFFFFFFFFFFFFFFFFF DUP3 AND SWAP1 POP SWAP2 SWAP1 POP JUMP JUMPDEST PUSH0 PUSH2 0x1A6B DUP3 PUSH2 0x1A42 JUMP JUMPDEST SWAP1 POP SWAP2 SWAP1 POP JUMP JUMPDEST PUSH2 0x1A7B DUP2 PUSH2 0x1A61 JUMP JUMPDEST DUP2 EQ PUSH2 0x1A85 JUMPI PUSH0 DUP1 REVERT JUMPDEST POP JUMP JUMPDEST PUSH0 DUP2 CALLDATALOAD SWAP1 POP PUSH2 0x1A96 DUP2 PUSH2 0x1A72 JUMP JUMPDEST SWAP3 SWAP2 POP POP JUMP JUMPDEST PUSH0 PUSH1 0x20 DUP3 DUP5 SUB SLT ISZERO PUSH2 0x1AB1 JUMPI PUSH2 0x1AB0 PUSH2 0x1A3E JUMP JUMPDEST JUMPDEST PUSH0 PUSH2 0x1ABE DUP5 DUP3 DUP6 ADD PUSH2 0x1A88 JUMP JUMPDEST SWAP2 POP POP SWAP3 SWAP2 POP POP JUMP JUMPDEST PUSH2 0x1AD0 DUP2 PUSH2 0x1A61 JUMP JUMPDEST DUP3 MSTORE POP POP JUMP JUMPDEST PUSH0 PUSH1 0x20 DUP3 ADD SWAP1 POP PUSH2 0x1AE9 PUSH0 DUP4 ADD DUP5 PUSH2 0x1AC7 JUMP JUMPDEST SWAP3 SWAP2 POP POP JUMP JUMPDEST PUSH0 DUP2 ISZERO ISZERO SWAP1 POP SWAP2 SWAP1 POP JUMP JUMPDEST PUSH2 0x1B03 DUP2 PUSH2 0x1AEF JUMP JUMPDEST DUP3 MSTORE POP POP JUMP JUMPDEST PUSH0 PUSH1 0x20 DUP3 ADD SWAP1 POP PUSH2 0x1B1C PUSH0 DUP4 ADD DUP5 PUSH2 0x1AFA JUMP JUMPDEST SWAP3 SWAP2 POP POP JUMP JUMPDEST PUSH2 0x1B2B DUP2 PUSH2 0x1AEF JUMP JUMPDEST DUP2 EQ PUSH2 0x1B35 JUMPI PUSH0 DUP1 REVERT JUMPDEST POP JUMP JUMPDEST PUSH0 DUP2 CALLDATALOAD SWAP1 POP PUSH2 0x1B46 DUP2 PUSH2 0x1B22 JUMP JUMPDEST SWAP3 SWAP2 POP POP JUMP JUMPDEST PUSH0 PUSH1 0x20 DUP3 DUP5 SUB SLT ISZERO PUSH2 0x1B61 JUMPI PUSH2 0x1B60 PUSH2 0x1A3E JUMP JUMPDEST JUMPDEST PUSH0 PUSH2 0x1B6E DUP5 DUP3 DUP6 ADD PUSH2 0x1B38 JUMP JUMPDEST SWAP2 POP POP SWAP3 SWAP2 POP POP JUMP JUMPDEST PUSH0 PUSH4 0xFFFFFFFF DUP3 AND SWAP1 POP SWAP2 SWAP1 POP JUMP JUMPDEST PUSH2 0x1B8F DUP2 PUSH2 0x1B77 JUMP JUMPDEST DUP3 MSTORE POP POP JUMP JUMPDEST PUSH0 PUSH1 0x20 DUP3 ADD SWAP1 POP PUSH2 0x1BA8 PUSH0 DUP4 ADD DUP5 PUSH2 0x1B86 JUMP JUMPDEST SWAP3 SWAP2 POP POP JUMP JUMPDEST PUSH0 DUP3 DUP3 MSTORE PUSH1 0x20 DUP3 ADD SWAP1 POP SWAP3 SWAP2 POP POP JUMP JUMPDEST PUSH32 0x416363657373206973206E6F742076616C696400000000000000000000000000 PUSH0 DUP3 ADD MSTORE POP JUMP JUMPDEST PUSH0 PUSH2 0x1BF2 PUSH1 0x13 DUP4 PUSH2 0x1BAE JUMP JUMPDEST SWAP2 POP PUSH2 0x1BFD DUP3 PUSH2 0x1BBE JUMP JUMPDEST PUSH1 0x20 DUP3 ADD SWAP1 POP SWAP2 SWAP1 POP JUMP JUMPDEST PUSH0 PUSH1 0x20 DUP3 ADD SWAP1 POP DUP2 DUP2 SUB PUSH0 DUP4 ADD MSTORE PUSH2 0x1C1F DUP2 PUSH2 0x1BE6 JUMP JUMPDEST SWAP1 POP SWAP2 SWAP1 POP JUMP JUMPDEST PUSH32 0x4E487B7100000000000000000000000000000000000000000000000000000000 PUSH0 MSTORE PUSH1 0x11 PUSH1 0x4 MSTORE PUSH1 0x24 PUSH0 REVERT JUMPDEST PUSH0 PUSH2 0x1C5D DUP3 PUSH2 0x1B77 JUMP JUMPDEST SWAP2 POP PUSH4 0xFFFFFFFF DUP3 SUB PUSH2 0x1C73 JUMPI PUSH2 0x1C72 PUSH2 0x1C26 JUMP JUMPDEST JUMPDEST PUSH1 0x1 DUP3 ADD SWAP1 POP SWAP2 SWAP1 POP JUMP JUMPDEST PUSH32 0x546865207265717565737420697320696E76616C696400000000000000000000 PUSH0 DUP3 ADD MSTORE POP JUMP JUMPDEST PUSH0 PUSH2 0x1CB2 PUSH1 0x16 DUP4 PUSH2 0x1BAE JUMP JUMPDEST SWAP2 POP PUSH2 0x1CBD DUP3 PUSH2 0x1C7E JUMP JUMPDEST PUSH1 0x20 DUP3 ADD SWAP1 POP SWAP2 SWAP1 POP JUMP JUMPDEST PUSH0 PUSH1 0x20 DUP3 ADD SWAP1 POP DUP2 DUP2 SUB PUSH0 DUP4 ADD MSTORE PUSH2 0x1CDF DUP2 PUSH2 0x1CA6 JUMP JUMPDEST SWAP1 POP SWAP2 SWAP1 POP JUMP JUMPDEST PUSH0 PUSH6 0xFFFFFFFFFFFF DUP3 AND SWAP1 POP SWAP2 SWAP1 POP JUMP JUMPDEST PUSH0 PUSH2 0x1D01 DUP3 PUSH2 0x1CE6 JUMP JUMPDEST SWAP2 POP PUSH2 0x1D0C DUP4 PUSH2 0x1CE6 JUMP JUMPDEST SWAP3 POP DUP3 DUP3 SUB SWAP1 POP PUSH6 0xFFFFFFFFFFFF DUP2 GT ISZERO PUSH2 0x1D2A JUMPI PUSH2 0x1D29 PUSH2 0x1C26 JUMP JUMPDEST JUMPDEST SWAP3 SWAP2 POP POP JUMP JUMPDEST PUSH2 0x1D39 DUP2 PUSH2 0x1CE6 JUMP JUMPDEST DUP3 MSTORE POP POP JUMP JUMPDEST PUSH0 PUSH1 0x20 DUP3 ADD SWAP1 POP PUSH2 0x1D52 PUSH0 DUP4 ADD DUP5 PUSH2 0x1D30 JUMP JUMPDEST SWAP3 SWAP2 POP POP JUMP JUMPDEST PUSH0 DUP2 SWAP1 POP SWAP2 SWAP1 POP JUMP JUMPDEST PUSH0 PUSH2 0x1D6B DUP3 PUSH2 0x1D58 JUMP JUMPDEST SWAP2 POP PUSH2 0x1D76 DUP4 PUSH2 0x1D58 JUMP JUMPDEST SWAP3 POP DUP3 DUP3 ADD SWAP1 POP DUP1 DUP3 GT ISZERO PUSH2 0x1D8E JUMPI PUSH2 0x1D8D PUSH2 0x1C26 JUMP JUMPDEST JUMPDEST SWAP3 SWAP2 POP POP JUMP INVALID LOG2 PUSH5 0x6970667358 0x22 SLT KECCAK256 0xD3 PUSH18 0x78467F45CB86C49952FF3A5494BA2E0A748F 0x22 0xE9 PUSH14 0xD0639654944738974164736F6C63 NUMBER STOP ADDMOD EQ STOP CALLER "
				},
				"gasEstimates": {
					"creation": {
						"codeDepositCost": "1525200",
						"executionCost": "infinite",
						"totalCost": "infinite"
					},
					"external": {
						"cancelPendingRepublicGAddress(address)": "infinite",
						"getAuthorityAddress()": "423",
						"getGovernance()": "2632",
						"getPresidentAdd()": "2609",
						"getPresidentBan()": "2640",
						"getPrimeMinisterAdd()": "2565",
						"getPrimeMinisterBan()": "2595",
						"getRepublicAddress()": "infinite",
						"getRepublicGAddress()": "2543",
						"getgovernanceVersion()": "2618",
						"setPendigPresident(address)": "infinite",
						"setPendingGovernanceContractAddress(address)": "infinite",
						"setPendingPrimeMinister(address)": "30404",
						"setPendingRepublicGAddress(address)": "infinite",
						"setPresidentBaned(bool)": "infinite",
						"setPrimeMinisterBaned(bool)": "29329",
						"transferGovernanceContractAddress(address)": "infinite",
						"transferPresident()": "107764",
						"transferPrimeMinister()": "109997",
						"transferRepublicGAddress(address)": "infinite"
					},
					"internal": {
						"_setPresidentBaned(bool)": "24333",
						"_setPrimeMinisterBaned(bool)": "24333",
						"_transferRepublicGAddress(address)": "56825"
					}
				},
				"methodIdentifiers": {
					"cancelPendingRepublicGAddress(address)": "4494acd9",
					"getAuthorityAddress()": "e47a9d46",
					"getGovernance()": "289b3c0d",
					"getPresidentAdd()": "66410997",
					"getPresidentBan()": "6cf106d7",
					"getPrimeMinisterAdd()": "a53da00b",
					"getPrimeMinisterBan()": "e4f3e947",
					"getRepublicAddress()": "c5a1c5c1",
					"getRepublicGAddress()": "37676f79",
					"getgovernanceVersion()": "c387b49c",
					"setPendigPresident(address)": "054203bd",
					"setPendingGovernanceContractAddress(address)": "ca4cce68",
					"setPendingPrimeMinister(address)": "544fa93e",
					"setPendingRepublicGAddress(address)": "861a179d",
					"setPresidentBaned(bool)": "b5c09c68",
					"setPrimeMinisterBaned(bool)": "f5f9cdd4",
					"transferGovernanceContractAddress(address)": "ee7126c3",
					"transferPresident()": "0df4c390",
					"transferPrimeMinister()": "18074eee",
					"transferRepublicGAddress(address)": "1f86aa2a"
				}
			},
			"storageLayout": {
				"storage": [
					{
						"astId": 79,
						"contract": "contracts/authority.sol:Authority",
						"label": "_pendigRepublicGAddress",
						"offset": 0,
						"slot": "0",
						"type": "t_address"
					},
					{
						"astId": 81,
						"contract": "contracts/authority.sol:Authority",
						"label": "_pendingGCAddress",
						"offset": 0,
						"slot": "1",
						"type": "t_address"
					},
					{
						"astId": 83,
						"contract": "contracts/authority.sol:Authority",
						"label": "_pendigPresident",
						"offset": 0,
						"slot": "2",
						"type": "t_address"
					},
					{
						"astId": 85,
						"contract": "contracts/authority.sol:Authority",
						"label": "_pendingPrimeMinister",
						"offset": 0,
						"slot": "3",
						"type": "t_address"
					},
					{
						"astId": 95,
						"contract": "contracts/authority.sol:Authority",
						"label": "_delayConfirmRepublicGAddress",
						"offset": 20,
						"slot": "3",
						"type": "t_uint48"
					},
					{
						"astId": 105,
						"contract": "contracts/authority.sol:Authority",
						"label": "_president",
						"offset": 0,
						"slot": "4",
						"type": "t_struct(access)102_storage"
					},
					{
						"astId": 108,
						"contract": "contracts/authority.sol:Authority",
						"label": "_primeMinister",
						"offset": 0,
						"slot": "5",
						"type": "t_struct(access)102_storage"
					},
					{
						"astId": 111,
						"contract": "contracts/authority.sol:Authority",
						"label": "_governance",
						"offset": 0,
						"slot": "6",
						"type": "t_struct(access)102_storage"
					},
					{
						"astId": 114,
						"contract": "contracts/authority.sol:Authority",
						"label": "_RepublicG",
						"offset": 0,
						"slot": "7",
						"type": "t_struct(access)102_storage"
					}
				],
				"types": {
					"t_address": {
						"encoding": "inplace",
						"label": "address",
						"numberOfBytes": "20"
					},
					"t_bool": {
						"encoding": "inplace",
						"label": "bool",
						"numberOfBytes": "1"
					},
					"t_struct(access)102_storage": {
						"encoding": "inplace",
						"label": "struct Authority.access",
						"members": [
							{
								"astId": 97,
								"contract": "contracts/authority.sol:Authority",
								"label": "roleAdd",
								"offset": 0,
								"slot": "0",
								"type": "t_address"
							},
							{
								"astId": 99,
								"contract": "contracts/authority.sol:Authority",
								"label": "baned",
								"offset": 20,
								"slot": "0",
								"type": "t_bool"
							},
							{
								"astId": 101,
								"contract": "contracts/authority.sol:Authority",
								"label": "nonce",
								"offset": 21,
								"slot": "0",
								"type": "t_uint32"
							}
						],
						"numberOfBytes": "32"
					},
					"t_uint32": {
						"encoding": "inplace",
						"label": "uint32",
						"numberOfBytes": "4"
					},
					"t_uint48": {
						"encoding": "inplace",
						"label": "uint48",
						"numberOfBytes": "6"
					}
				}
			},
			"userdoc": {
				"kind": "user",
				"methods": {},
				"version": 1
			}
		}
	}
}