{
	"contracts/3_Ballot.sol": {
		"BallotTCN": {
			"abi": [
				{
					"inputs": [
						{
							"components": [
								{
									"internalType": "string",
									"name": "signature",
									"type": "string"
								},
								{
									"internalType": "bytes32",
									"name": "descriptionHash",
									"type": "bytes32"
								},
								{
									"internalType": "address",
									"name": "governance",
									"type": "address"
								}
							],
							"internalType": "struct BallotTCN.CALLDATAPARAM",
							"name": "callDataParam_",
							"type": "tuple"
						},
						{
							"internalType": "string",
							"name": "description_",
							"type": "string"
						},
						{
							"internalType": "uint256",
							"name": "value_",
							"type": "uint256"
						},
						{
							"components": [
								{
									"internalType": "uint16",
									"name": "quorum",
									"type": "uint16"
								},
								{
									"internalType": "uint32",
									"name": "voteDuration",
									"type": "uint32"
								},
								{
									"internalType": "uint48",
									"name": "voteStart",
									"type": "uint48"
								},
								{
									"internalType": "uint48",
									"name": "etaSeconds",
									"type": "uint48"
								}
							],
							"internalType": "struct BallotTCN.VOTINGPARAM",
							"name": "votingParams_",
							"type": "tuple"
						}
					],
					"stateMutability": "nonpayable",
					"type": "constructor"
				},
				{
					"inputs": [
						{
							"internalType": "address",
							"name": "proposer",
							"type": "address"
						}
					],
					"name": "invalidProposer",
					"type": "error"
				},
				{
					"inputs": [],
					"name": "chairperson",
					"outputs": [
						{
							"internalType": "address",
							"name": "",
							"type": "address"
						}
					],
					"stateMutability": "view",
					"type": "function"
				},
				{
					"inputs": [
						{
							"internalType": "address",
							"name": "to",
							"type": "address"
						}
					],
					"name": "delegate",
					"outputs": [],
					"stateMutability": "nonpayable",
					"type": "function"
				},
				{
					"inputs": [],
					"name": "getBallotCallData",
					"outputs": [
						{
							"internalType": "bytes",
							"name": "callData",
							"type": "bytes"
						}
					],
					"stateMutability": "view",
					"type": "function"
				},
				{
					"inputs": [],
					"name": "getBallotCallDataParams",
					"outputs": [
						{
							"components": [
								{
									"internalType": "string",
									"name": "signature",
									"type": "string"
								},
								{
									"internalType": "bytes32",
									"name": "descriptionHash",
									"type": "bytes32"
								},
								{
									"internalType": "address",
									"name": "governance",
									"type": "address"
								}
							],
							"internalType": "struct BallotTCN.CALLDATAPARAM",
							"name": "callData_",
							"type": "tuple"
						}
					],
					"stateMutability": "view",
					"type": "function"
				},
				{
					"inputs": [],
					"name": "getBallotProposalId",
					"outputs": [
						{
							"internalType": "uint256",
							"name": "proposalId",
							"type": "uint256"
						}
					],
					"stateMutability": "view",
					"type": "function"
				},
				{
					"inputs": [],
					"name": "getBallotProposalParams",
					"outputs": [
						{
							"components": [
								{
									"internalType": "address",
									"name": "target",
									"type": "address"
								},
								{
									"internalType": "address",
									"name": "proposer",
									"type": "address"
								},
								{
									"internalType": "uint256",
									"name": "value",
									"type": "uint256"
								}
							],
							"internalType": "struct BallotTCN.PROPOSALPARAM",
							"name": "proposalParam",
							"type": "tuple"
						}
					],
					"stateMutability": "view",
					"type": "function"
				},
				{
					"inputs": [],
					"name": "getBalootVotingParams",
					"outputs": [
						{
							"components": [
								{
									"internalType": "uint16",
									"name": "quorum",
									"type": "uint16"
								},
								{
									"internalType": "uint32",
									"name": "voteDuration",
									"type": "uint32"
								},
								{
									"internalType": "uint48",
									"name": "voteStart",
									"type": "uint48"
								},
								{
									"internalType": "uint48",
									"name": "etaSeconds",
									"type": "uint48"
								}
							],
							"internalType": "struct BallotTCN.VOTINGPARAM",
							"name": "VotingParam_",
							"type": "tuple"
						}
					],
					"stateMutability": "view",
					"type": "function"
				},
				{
					"inputs": [
						{
							"internalType": "address",
							"name": "voter",
							"type": "address"
						}
					],
					"name": "giveRightToVote",
					"outputs": [],
					"stateMutability": "nonpayable",
					"type": "function"
				},
				{
					"inputs": [
						{
							"internalType": "uint256",
							"name": "",
							"type": "uint256"
						}
					],
					"name": "proposals",
					"outputs": [
						{
							"internalType": "bytes32",
							"name": "name",
							"type": "bytes32"
						},
						{
							"internalType": "uint256",
							"name": "voteCount",
							"type": "uint256"
						}
					],
					"stateMutability": "view",
					"type": "function"
				},
				{
					"inputs": [
						{
							"internalType": "uint256",
							"name": "proposal",
							"type": "uint256"
						}
					],
					"name": "vote",
					"outputs": [],
					"stateMutability": "nonpayable",
					"type": "function"
				},
				{
					"inputs": [],
					"name": "voteCountProposal",
					"outputs": [
						{
							"internalType": "uint256",
							"name": "winningProposal_",
							"type": "uint256"
						}
					],
					"stateMutability": "view",
					"type": "function"
				},
				{
					"inputs": [
						{
							"internalType": "address",
							"name": "",
							"type": "address"
						}
					],
					"name": "voters",
					"outputs": [
						{
							"internalType": "uint256",
							"name": "weight",
							"type": "uint256"
						},
						{
							"internalType": "bool",
							"name": "voted",
							"type": "bool"
						},
						{
							"internalType": "address",
							"name": "delegate",
							"type": "address"
						},
						{
							"internalType": "uint256",
							"name": "vote",
							"type": "uint256"
						}
					],
					"stateMutability": "view",
					"type": "function"
				},
				{
					"inputs": [],
					"name": "winnerName",
					"outputs": [
						{
							"internalType": "bytes32",
							"name": "winnerName_",
							"type": "bytes32"
						}
					],
					"stateMutability": "view",
					"type": "function"
				}
			],
			"devdoc": {
				"details": "Implements voting process along with vote delegation",
				"kind": "dev",
				"methods": {
					"delegate(address)": {
						"details": "Delegate your vote to the voter 'to'.",
						"params": {
							"to": "address to which vote is delegated"
						}
					},
					"giveRightToVote(address)": {
						"details": "Give 'voter' the right to vote on this ballot. May only be called by 'chairperson'.",
						"params": {
							"voter": "address of voter"
						}
					},
					"vote(uint256)": {
						"details": "Give your vote (including votes delegated to you) to proposal 'proposals[proposal].name'.",
						"params": {
							"proposal": "index of proposal in the proposals array"
						}
					},
					"voteCountProposal()": {
						"details": "Computes the winning proposal taking all previous votes into account.",
						"returns": {
							"winningProposal_": "index of winning proposal in the proposals array"
						}
					},
					"winnerName()": {
						"details": "Calls winningProposal() function to get the index of the winner contained in the proposals array and then",
						"returns": {
							"winnerName_": "the name of the winner"
						}
					}
				},
				"title": "Ballot",
				"version": 1
			},
			"evm": {
				"assembly": "    /* \"contracts/3_Ballot.sol\":146:8790  contract BallotTCN {... */\n  mstore(0x40, 0x80)\n    /* \"contracts/3_Ballot.sol\":1794:3258  constructor(... */\n  callvalue\n  dup1\n  iszero\n  tag_1\n  jumpi\n  0x00\n  dup1\n  revert\ntag_1:\n  pop\n  mload(0x40)\n  sub(codesize, bytecodeSize)\n  dup1\n  bytecodeSize\n  dup4\n  codecopy\n  dup2\n  dup2\n  add\n  0x40\n  mstore\n  dup2\n  add\n  swap1\n  tag_2\n  swap2\n  swap1\n  tag_3\n  jump\t// in\ntag_2:\n    /* \"contracts/3_Ballot.sol\":2043:2057  callDataParam_ */\n  dup4\n    /* \"contracts/3_Ballot.sol\":2043:2067  callDataParam_.signature */\n  0x00\n  add\n  mload\n    /* \"contracts/3_Ballot.sol\":2016:2030  _callDataParam */\n  0x01\n    /* \"contracts/3_Ballot.sol\":2016:2040  _callDataParam.signature */\n  0x00\n  add\n    /* \"contracts/3_Ballot.sol\":2016:2067  _callDataParam.signature = callDataParam_.signature */\n  swap1\n  dup2\n  tag_6\n  swap2\n  swap1\n  tag_7\n  jump\t// in\ntag_6:\n  pop\n    /* \"contracts/3_Ballot.sol\":2131:2143  description_ */\n  dup3\n    /* \"contracts/3_Ballot.sol\":2120:2144  abi.encode(description_) */\n  add(0x20, mload(0x40))\n  tag_8\n  swap2\n  swap1\n  tag_9\n  jump\t// in\ntag_8:\n  mload(0x40)\n  0x20\n  dup2\n  dup4\n  sub\n  sub\n  dup2\n  mstore\n  swap1\n  0x40\n  mstore\n    /* \"contracts/3_Ballot.sol\":2110:2145  keccak256(abi.encode(description_)) */\n  dup1\n  mload\n  swap1\n  0x20\n  add\n  keccak256\n    /* \"contracts/3_Ballot.sol\":2077:2091  _callDataParam */\n  0x01\n    /* \"contracts/3_Ballot.sol\":2077:2107  _callDataParam.descriptionHash */\n  dup1\n  add\n    /* \"contracts/3_Ballot.sol\":2077:2145  _callDataParam.descriptionHash = keccak256(abi.encode(description_)) */\n  dup2\n  swap1\n  sstore\n  pop\n    /* \"contracts/3_Ballot.sol\":2183:2197  callDataParam_ */\n  dup4\n    /* \"contracts/3_Ballot.sol\":2183:2208  callDataParam_.governance */\n  0x40\n  add\n  mload\n    /* \"contracts/3_Ballot.sol\":2155:2169  _callDataParam */\n  0x01\n    /* \"contracts/3_Ballot.sol\":2155:2180  _callDataParam.governance */\n  0x02\n  add\n  0x00\n    /* \"contracts/3_Ballot.sol\":2155:2208  _callDataParam.governance = callDataParam_.governance */\n  0x0100\n  exp\n  dup2\n  sload\n  dup2\n  0xffffffffffffffffffffffffffffffffffffffff\n  mul\n  not\n  and\n  swap1\n  dup4\n  0xffffffffffffffffffffffffffffffffffffffff\n  and\n  mul\n  or\n  swap1\n  sstore\n  pop\n    /* \"contracts/3_Ballot.sol\":2272:2282  msg.sender */\n  caller\n    /* \"contracts/3_Ballot.sol\":2245:2260  _proposalParams */\n  0x04\n    /* \"contracts/3_Ballot.sol\":2245:2269  _proposalParams.proposer */\n  0x01\n  add\n  0x00\n    /* \"contracts/3_Ballot.sol\":2245:2282  _proposalParams.proposer = msg.sender */\n  0x0100\n  exp\n  dup2\n  sload\n  dup2\n  0xffffffffffffffffffffffffffffffffffffffff\n  mul\n  not\n  and\n  swap1\n  dup4\n  0xffffffffffffffffffffffffffffffffffffffff\n  and\n  mul\n  or\n  swap1\n  sstore\n  pop\n    /* \"contracts/3_Ballot.sol\":2317:2334  _targetConnectors */\n  0x08\n    /* \"contracts/3_Ballot.sol\":2317:2360  _targetConnectors[_proposalParams.proposer] */\n  0x00\n    /* \"contracts/3_Ballot.sol\":2335:2350  _proposalParams */\n  0x04\n    /* \"contracts/3_Ballot.sol\":2335:2359  _proposalParams.proposer */\n  0x01\n  add\n  0x00\n  swap1\n  sload\n  swap1\n  0x0100\n  exp\n  swap1\n  div\n  0xffffffffffffffffffffffffffffffffffffffff\n  and\n    /* \"contracts/3_Ballot.sol\":2317:2360  _targetConnectors[_proposalParams.proposer] */\n  0xffffffffffffffffffffffffffffffffffffffff\n  and\n  0xffffffffffffffffffffffffffffffffffffffff\n  and\n  dup2\n  mstore\n  0x20\n  add\n  swap1\n  dup2\n  mstore\n  0x20\n  add\n  0x00\n  keccak256\n  0x00\n  swap1\n  sload\n  swap1\n  0x0100\n  exp\n  swap1\n  div\n  0xffffffffffffffffffffffffffffffffffffffff\n  and\n    /* \"contracts/3_Ballot.sol\":2292:2307  _proposalParams */\n  0x04\n    /* \"contracts/3_Ballot.sol\":2292:2314  _proposalParams.target */\n  0x00\n  add\n  0x00\n    /* \"contracts/3_Ballot.sol\":2292:2360  _proposalParams.target = _targetConnectors[_proposalParams.proposer] */\n  0x0100\n  exp\n  dup2\n  sload\n  dup2\n  0xffffffffffffffffffffffffffffffffffffffff\n  mul\n  not\n  and\n  swap1\n  dup4\n  0xffffffffffffffffffffffffffffffffffffffff\n  and\n  mul\n  or\n  swap1\n  sstore\n  pop\n    /* \"contracts/3_Ballot.sol\":2408:2409  0 */\n  0x00\n    /* \"contracts/3_Ballot.sol\":2374:2410  _proposalParams.target == address(0) */\n  0xffffffffffffffffffffffffffffffffffffffff\n  and\n    /* \"contracts/3_Ballot.sol\":2374:2389  _proposalParams */\n  0x04\n    /* \"contracts/3_Ballot.sol\":2374:2396  _proposalParams.target */\n  0x00\n  add\n  0x00\n  swap1\n  sload\n  swap1\n  0x0100\n  exp\n  swap1\n  div\n  0xffffffffffffffffffffffffffffffffffffffff\n  and\n    /* \"contracts/3_Ballot.sol\":2374:2410  _proposalParams.target == address(0) */\n  0xffffffffffffffffffffffffffffffffffffffff\n  and\n  sub\n    /* \"contracts/3_Ballot.sol\":2370:2485  if (_proposalParams.target == address(0)) {... */\n  tag_10\n  jumpi\n    /* \"contracts/3_Ballot.sol\":2449:2464  _proposalParams */\n  0x04\n    /* \"contracts/3_Ballot.sol\":2449:2473  _proposalParams.proposer */\n  0x01\n  add\n  0x00\n  swap1\n  sload\n  swap1\n  0x0100\n  exp\n  swap1\n  div\n  0xffffffffffffffffffffffffffffffffffffffff\n  and\n    /* \"contracts/3_Ballot.sol\":2433:2474  invalidProposer(_proposalParams.proposer) */\n  mload(0x40)\n  0xdefe7bd300000000000000000000000000000000000000000000000000000000\n  dup2\n  mstore\n  0x04\n  add\n  tag_11\n  swap2\n  swap1\n  tag_12\n  jump\t// in\ntag_11:\n  mload(0x40)\n  dup1\n  swap2\n  sub\n  swap1\n  revert\n    /* \"contracts/3_Ballot.sol\":2370:2485  if (_proposalParams.target == address(0)) {... */\ntag_10:\n    /* \"contracts/3_Ballot.sol\":2518:2524  value_ */\n  dup2\n    /* \"contracts/3_Ballot.sol\":2494:2509  _proposalParams */\n  0x04\n    /* \"contracts/3_Ballot.sol\":2494:2515  _proposalParams.value */\n  0x02\n  add\n    /* \"contracts/3_Ballot.sol\":2494:2524  _proposalParams.value = value_ */\n  dup2\n  swap1\n  sstore\n  pop\n    /* \"contracts/3_Ballot.sol\":2582:2595  votingParams_ */\n  dup1\n    /* \"contracts/3_Ballot.sol\":2582:2602  votingParams_.quorum */\n  0x00\n  add\n  mload\n    /* \"contracts/3_Ballot.sol\":2559:2572  _votingParams */\n  0x00\n    /* \"contracts/3_Ballot.sol\":2559:2579  _votingParams.quorum */\n  dup1\n  add\n  0x00\n    /* \"contracts/3_Ballot.sol\":2559:2602  _votingParams.quorum = votingParams_.quorum */\n  0x0100\n  exp\n  dup2\n  sload\n  dup2\n  0xffff\n  mul\n  not\n  and\n  swap1\n  dup4\n  0xffff\n  and\n  mul\n  or\n  swap1\n  sstore\n  pop\n    /* \"contracts/3_Ballot.sol\":2641:2654  votingParams_ */\n  dup1\n    /* \"contracts/3_Ballot.sol\":2641:2667  votingParams_.voteDuration */\n  0x20\n  add\n  mload\n    /* \"contracts/3_Ballot.sol\":2612:2625  _votingParams */\n  0x00\n    /* \"contracts/3_Ballot.sol\":2612:2638  _votingParams.voteDuration */\n  dup1\n  add\n  0x02\n    /* \"contracts/3_Ballot.sol\":2612:2667  _votingParams.voteDuration = votingParams_.voteDuration */\n  0x0100\n  exp\n  dup2\n  sload\n  dup2\n  0xffffffff\n  mul\n  not\n  and\n  swap1\n  dup4\n  0xffffffff\n  and\n  mul\n  or\n  swap1\n  sstore\n  pop\n    /* \"contracts/3_Ballot.sol\":2703:2716  votingParams_ */\n  dup1\n    /* \"contracts/3_Ballot.sol\":2703:2726  votingParams_.voteStart */\n  0x40\n  add\n  mload\n    /* \"contracts/3_Ballot.sol\":2677:2690  _votingParams */\n  0x00\n    /* \"contracts/3_Ballot.sol\":2677:2700  _votingParams.voteStart */\n  dup1\n  add\n  0x06\n    /* \"contracts/3_Ballot.sol\":2677:2726  _votingParams.voteStart = votingParams_.voteStart */\n  0x0100\n  exp\n  dup2\n  sload\n  dup2\n  0xffffffffffff\n  mul\n  not\n  and\n  swap1\n  dup4\n  0xffffffffffff\n  and\n  mul\n  or\n  swap1\n  sstore\n  pop\n    /* \"contracts/3_Ballot.sol\":2763:2776  votingParams_ */\n  dup1\n    /* \"contracts/3_Ballot.sol\":2763:2787  votingParams_.etaSeconds */\n  0x60\n  add\n  mload\n    /* \"contracts/3_Ballot.sol\":2736:2749  _votingParams */\n  0x00\n    /* \"contracts/3_Ballot.sol\":2736:2760  _votingParams.etaSeconds */\n  dup1\n  add\n  0x0c\n    /* \"contracts/3_Ballot.sol\":2736:2787  _votingParams.etaSeconds = votingParams_.etaSeconds */\n  0x0100\n  exp\n  dup2\n  sload\n  dup2\n  0xffffffffffff\n  mul\n  not\n  and\n  swap1\n  dup4\n  0xffffffffffff\n  and\n  mul\n  or\n  swap1\n  sstore\n  pop\n    /* \"contracts/3_Ballot.sol\":1794:3258  constructor(... */\n  pop\n  pop\n  pop\n  pop\n    /* \"contracts/3_Ballot.sol\":146:8790  contract BallotTCN {... */\n  jump(tag_13)\n    /* \"#utility.yul\":7:82   */\ntag_14:\n    /* \"#utility.yul\":40:46   */\n  0x00\n    /* \"#utility.yul\":73:75   */\n  0x40\n    /* \"#utility.yul\":67:76   */\n  mload\n    /* \"#utility.yul\":57:76   */\n  swap1\n  pop\n    /* \"#utility.yul\":7:82   */\n  swap1\n  jump\t// out\n    /* \"#utility.yul\":88:205   */\ntag_15:\n    /* \"#utility.yul\":197:198   */\n  0x00\n    /* \"#utility.yul\":194:195   */\n  dup1\n    /* \"#utility.yul\":187:199   */\n  revert\n    /* \"#utility.yul\":211:328   */\ntag_16:\n    /* \"#utility.yul\":320:321   */\n  0x00\n    /* \"#utility.yul\":317:318   */\n  dup1\n    /* \"#utility.yul\":310:322   */\n  revert\n    /* \"#utility.yul\":334:451   */\ntag_17:\n    /* \"#utility.yul\":443:444   */\n  0x00\n    /* \"#utility.yul\":440:441   */\n  dup1\n    /* \"#utility.yul\":433:445   */\n  revert\n    /* \"#utility.yul\":457:559   */\ntag_18:\n    /* \"#utility.yul\":498:504   */\n  0x00\n    /* \"#utility.yul\":549:551   */\n  0x1f\n    /* \"#utility.yul\":545:552   */\n  not\n    /* \"#utility.yul\":540:542   */\n  0x1f\n    /* \"#utility.yul\":533:538   */\n  dup4\n    /* \"#utility.yul\":529:543   */\n  add\n    /* \"#utility.yul\":525:553   */\n  and\n    /* \"#utility.yul\":515:553   */\n  swap1\n  pop\n    /* \"#utility.yul\":457:559   */\n  swap2\n  swap1\n  pop\n  jump\t// out\n    /* \"#utility.yul\":565:745   */\ntag_19:\n    /* \"#utility.yul\":613:690   */\n  0x4e487b7100000000000000000000000000000000000000000000000000000000\n    /* \"#utility.yul\":610:611   */\n  0x00\n    /* \"#utility.yul\":603:691   */\n  mstore\n    /* \"#utility.yul\":710:714   */\n  0x41\n    /* \"#utility.yul\":707:708   */\n  0x04\n    /* \"#utility.yul\":700:715   */\n  mstore\n    /* \"#utility.yul\":734:738   */\n  0x24\n    /* \"#utility.yul\":731:732   */\n  0x00\n    /* \"#utility.yul\":724:739   */\n  revert\n    /* \"#utility.yul\":751:1032   */\ntag_20:\n    /* \"#utility.yul\":834:861   */\n  tag_79\n    /* \"#utility.yul\":856:860   */\n  dup3\n    /* \"#utility.yul\":834:861   */\n  tag_18\n  jump\t// in\ntag_79:\n    /* \"#utility.yul\":826:832   */\n  dup2\n    /* \"#utility.yul\":822:862   */\n  add\n    /* \"#utility.yul\":964:970   */\n  dup2\n    /* \"#utility.yul\":952:962   */\n  dup2\n    /* \"#utility.yul\":949:971   */\n  lt\n    /* \"#utility.yul\":928:946   */\n  0xffffffffffffffff\n    /* \"#utility.yul\":916:926   */\n  dup3\n    /* \"#utility.yul\":913:947   */\n  gt\n    /* \"#utility.yul\":910:972   */\n  or\n    /* \"#utility.yul\":907:995   */\n  iszero\n  tag_80\n  jumpi\n    /* \"#utility.yul\":975:993   */\n  tag_81\n  tag_19\n  jump\t// in\ntag_81:\n    /* \"#utility.yul\":907:995   */\ntag_80:\n    /* \"#utility.yul\":1015:1025   */\n  dup1\n    /* \"#utility.yul\":1011:1013   */\n  0x40\n    /* \"#utility.yul\":1004:1026   */\n  mstore\n    /* \"#utility.yul\":794:1032   */\n  pop\n    /* \"#utility.yul\":751:1032   */\n  pop\n  pop\n  jump\t// out\n    /* \"#utility.yul\":1038:1167   */\ntag_21:\n    /* \"#utility.yul\":1072:1078   */\n  0x00\n    /* \"#utility.yul\":1099:1119   */\n  tag_83\n  tag_14\n  jump\t// in\ntag_83:\n    /* \"#utility.yul\":1089:1119   */\n  swap1\n  pop\n    /* \"#utility.yul\":1128:1161   */\n  tag_84\n    /* \"#utility.yul\":1156:1160   */\n  dup3\n    /* \"#utility.yul\":1148:1154   */\n  dup3\n    /* \"#utility.yul\":1128:1161   */\n  tag_20\n  jump\t// in\ntag_84:\n    /* \"#utility.yul\":1038:1167   */\n  swap2\n  swap1\n  pop\n  jump\t// out\n    /* \"#utility.yul\":1173:1290   */\ntag_22:\n    /* \"#utility.yul\":1282:1283   */\n  0x00\n    /* \"#utility.yul\":1279:1280   */\n  dup1\n    /* \"#utility.yul\":1272:1284   */\n  revert\n    /* \"#utility.yul\":1296:1413   */\ntag_23:\n    /* \"#utility.yul\":1405:1406   */\n  0x00\n    /* \"#utility.yul\":1402:1403   */\n  dup1\n    /* \"#utility.yul\":1395:1407   */\n  revert\n    /* \"#utility.yul\":1419:1536   */\ntag_24:\n    /* \"#utility.yul\":1528:1529   */\n  0x00\n    /* \"#utility.yul\":1525:1526   */\n  dup1\n    /* \"#utility.yul\":1518:1530   */\n  revert\n    /* \"#utility.yul\":1542:1850   */\ntag_25:\n    /* \"#utility.yul\":1604:1608   */\n  0x00\n    /* \"#utility.yul\":1694:1712   */\n  0xffffffffffffffff\n    /* \"#utility.yul\":1686:1692   */\n  dup3\n    /* \"#utility.yul\":1683:1713   */\n  gt\n    /* \"#utility.yul\":1680:1736   */\n  iszero\n  tag_89\n  jumpi\n    /* \"#utility.yul\":1716:1734   */\n  tag_90\n  tag_19\n  jump\t// in\ntag_90:\n    /* \"#utility.yul\":1680:1736   */\ntag_89:\n    /* \"#utility.yul\":1754:1783   */\n  tag_91\n    /* \"#utility.yul\":1776:1782   */\n  dup3\n    /* \"#utility.yul\":1754:1783   */\n  tag_18\n  jump\t// in\ntag_91:\n    /* \"#utility.yul\":1746:1783   */\n  swap1\n  pop\n    /* \"#utility.yul\":1838:1842   */\n  0x20\n    /* \"#utility.yul\":1832:1836   */\n  dup2\n    /* \"#utility.yul\":1828:1843   */\n  add\n    /* \"#utility.yul\":1820:1843   */\n  swap1\n  pop\n    /* \"#utility.yul\":1542:1850   */\n  swap2\n  swap1\n  pop\n  jump\t// out\n    /* \"#utility.yul\":1856:2102   */\ntag_26:\n    /* \"#utility.yul\":1937:1938   */\n  0x00\n    /* \"#utility.yul\":1947:2060   */\ntag_93:\n    /* \"#utility.yul\":1961:1967   */\n  dup4\n    /* \"#utility.yul\":1958:1959   */\n  dup2\n    /* \"#utility.yul\":1955:1968   */\n  lt\n    /* \"#utility.yul\":1947:2060   */\n  iszero\n  tag_95\n  jumpi\n    /* \"#utility.yul\":2046:2047   */\n  dup1\n    /* \"#utility.yul\":2041:2044   */\n  dup3\n    /* \"#utility.yul\":2037:2048   */\n  add\n    /* \"#utility.yul\":2031:2049   */\n  mload\n    /* \"#utility.yul\":2027:2028   */\n  dup2\n    /* \"#utility.yul\":2022:2025   */\n  dup5\n    /* \"#utility.yul\":2018:2029   */\n  add\n    /* \"#utility.yul\":2011:2050   */\n  mstore\n    /* \"#utility.yul\":1983:1985   */\n  0x20\n    /* \"#utility.yul\":1980:1981   */\n  dup2\n    /* \"#utility.yul\":1976:1986   */\n  add\n    /* \"#utility.yul\":1971:1986   */\n  swap1\n  pop\n    /* \"#utility.yul\":1947:2060   */\n  jump(tag_93)\ntag_95:\n    /* \"#utility.yul\":2094:2095   */\n  0x00\n    /* \"#utility.yul\":2085:2091   */\n  dup5\n    /* \"#utility.yul\":2080:2083   */\n  dup5\n    /* \"#utility.yul\":2076:2092   */\n  add\n    /* \"#utility.yul\":2069:2096   */\n  mstore\n    /* \"#utility.yul\":1918:2102   */\n  pop\n    /* \"#utility.yul\":1856:2102   */\n  pop\n  pop\n  pop\n  jump\t// out\n    /* \"#utility.yul\":2108:2542   */\ntag_27:\n    /* \"#utility.yul\":2197:2202   */\n  0x00\n    /* \"#utility.yul\":2222:2288   */\n  tag_97\n    /* \"#utility.yul\":2238:2287   */\n  tag_98\n    /* \"#utility.yul\":2280:2286   */\n  dup5\n    /* \"#utility.yul\":2238:2287   */\n  tag_25\n  jump\t// in\ntag_98:\n    /* \"#utility.yul\":2222:2288   */\n  tag_21\n  jump\t// in\ntag_97:\n    /* \"#utility.yul\":2213:2288   */\n  swap1\n  pop\n    /* \"#utility.yul\":2311:2317   */\n  dup3\n    /* \"#utility.yul\":2304:2309   */\n  dup2\n    /* \"#utility.yul\":2297:2318   */\n  mstore\n    /* \"#utility.yul\":2349:2353   */\n  0x20\n    /* \"#utility.yul\":2342:2347   */\n  dup2\n    /* \"#utility.yul\":2338:2354   */\n  add\n    /* \"#utility.yul\":2387:2390   */\n  dup5\n    /* \"#utility.yul\":2378:2384   */\n  dup5\n    /* \"#utility.yul\":2373:2376   */\n  dup5\n    /* \"#utility.yul\":2369:2385   */\n  add\n    /* \"#utility.yul\":2366:2391   */\n  gt\n    /* \"#utility.yul\":2363:2475   */\n  iszero\n  tag_99\n  jumpi\n    /* \"#utility.yul\":2394:2473   */\n  tag_100\n  tag_24\n  jump\t// in\ntag_100:\n    /* \"#utility.yul\":2363:2475   */\ntag_99:\n    /* \"#utility.yul\":2484:2536   */\n  tag_101\n    /* \"#utility.yul\":2529:2535   */\n  dup5\n    /* \"#utility.yul\":2524:2527   */\n  dup3\n    /* \"#utility.yul\":2519:2522   */\n  dup6\n    /* \"#utility.yul\":2484:2536   */\n  tag_26\n  jump\t// in\ntag_101:\n    /* \"#utility.yul\":2203:2542   */\n  pop\n    /* \"#utility.yul\":2108:2542   */\n  swap4\n  swap3\n  pop\n  pop\n  pop\n  jump\t// out\n    /* \"#utility.yul\":2562:2917   */\ntag_28:\n    /* \"#utility.yul\":2629:2634   */\n  0x00\n    /* \"#utility.yul\":2678:2681   */\n  dup3\n    /* \"#utility.yul\":2671:2675   */\n  0x1f\n    /* \"#utility.yul\":2663:2669   */\n  dup4\n    /* \"#utility.yul\":2659:2676   */\n  add\n    /* \"#utility.yul\":2655:2682   */\n  slt\n    /* \"#utility.yul\":2645:2767   */\n  tag_103\n  jumpi\n    /* \"#utility.yul\":2686:2765   */\n  tag_104\n  tag_23\n  jump\t// in\ntag_104:\n    /* \"#utility.yul\":2645:2767   */\ntag_103:\n    /* \"#utility.yul\":2796:2802   */\n  dup2\n    /* \"#utility.yul\":2790:2803   */\n  mload\n    /* \"#utility.yul\":2821:2911   */\n  tag_105\n    /* \"#utility.yul\":2907:2910   */\n  dup5\n    /* \"#utility.yul\":2899:2905   */\n  dup3\n    /* \"#utility.yul\":2892:2896   */\n  0x20\n    /* \"#utility.yul\":2884:2890   */\n  dup7\n    /* \"#utility.yul\":2880:2897   */\n  add\n    /* \"#utility.yul\":2821:2911   */\n  tag_27\n  jump\t// in\ntag_105:\n    /* \"#utility.yul\":2812:2911   */\n  swap2\n  pop\n    /* \"#utility.yul\":2635:2917   */\n  pop\n    /* \"#utility.yul\":2562:2917   */\n  swap3\n  swap2\n  pop\n  pop\n  jump\t// out\n    /* \"#utility.yul\":2923:3000   */\ntag_29:\n    /* \"#utility.yul\":2960:2967   */\n  0x00\n    /* \"#utility.yul\":2989:2994   */\n  dup2\n    /* \"#utility.yul\":2978:2994   */\n  swap1\n  pop\n    /* \"#utility.yul\":2923:3000   */\n  swap2\n  swap1\n  pop\n  jump\t// out\n    /* \"#utility.yul\":3006:3128   */\ntag_30:\n    /* \"#utility.yul\":3079:3103   */\n  tag_108\n    /* \"#utility.yul\":3097:3102   */\n  dup2\n    /* \"#utility.yul\":3079:3103   */\n  tag_29\n  jump\t// in\ntag_108:\n    /* \"#utility.yul\":3072:3077   */\n  dup2\n    /* \"#utility.yul\":3069:3104   */\n  eq\n    /* \"#utility.yul\":3059:3122   */\n  tag_109\n  jumpi\n    /* \"#utility.yul\":3118:3119   */\n  0x00\n    /* \"#utility.yul\":3115:3116   */\n  dup1\n    /* \"#utility.yul\":3108:3120   */\n  revert\n    /* \"#utility.yul\":3059:3122   */\ntag_109:\n    /* \"#utility.yul\":3006:3128   */\n  pop\n  jump\t// out\n    /* \"#utility.yul\":3134:3277   */\ntag_31:\n    /* \"#utility.yul\":3191:3196   */\n  0x00\n    /* \"#utility.yul\":3222:3228   */\n  dup2\n    /* \"#utility.yul\":3216:3229   */\n  mload\n    /* \"#utility.yul\":3207:3229   */\n  swap1\n  pop\n    /* \"#utility.yul\":3238:3271   */\n  tag_111\n    /* \"#utility.yul\":3265:3270   */\n  dup2\n    /* \"#utility.yul\":3238:3271   */\n  tag_30\n  jump\t// in\ntag_111:\n    /* \"#utility.yul\":3134:3277   */\n  swap3\n  swap2\n  pop\n  pop\n  jump\t// out\n    /* \"#utility.yul\":3283:3409   */\ntag_32:\n    /* \"#utility.yul\":3320:3327   */\n  0x00\n    /* \"#utility.yul\":3360:3402   */\n  0xffffffffffffffffffffffffffffffffffffffff\n    /* \"#utility.yul\":3353:3358   */\n  dup3\n    /* \"#utility.yul\":3349:3403   */\n  and\n    /* \"#utility.yul\":3338:3403   */\n  swap1\n  pop\n    /* \"#utility.yul\":3283:3409   */\n  swap2\n  swap1\n  pop\n  jump\t// out\n    /* \"#utility.yul\":3415:3511   */\ntag_33:\n    /* \"#utility.yul\":3452:3459   */\n  0x00\n    /* \"#utility.yul\":3481:3505   */\n  tag_114\n    /* \"#utility.yul\":3499:3504   */\n  dup3\n    /* \"#utility.yul\":3481:3505   */\n  tag_32\n  jump\t// in\ntag_114:\n    /* \"#utility.yul\":3470:3505   */\n  swap1\n  pop\n    /* \"#utility.yul\":3415:3511   */\n  swap2\n  swap1\n  pop\n  jump\t// out\n    /* \"#utility.yul\":3517:3639   */\ntag_34:\n    /* \"#utility.yul\":3590:3614   */\n  tag_116\n    /* \"#utility.yul\":3608:3613   */\n  dup2\n    /* \"#utility.yul\":3590:3614   */\n  tag_33\n  jump\t// in\ntag_116:\n    /* \"#utility.yul\":3583:3588   */\n  dup2\n    /* \"#utility.yul\":3580:3615   */\n  eq\n    /* \"#utility.yul\":3570:3633   */\n  tag_117\n  jumpi\n    /* \"#utility.yul\":3629:3630   */\n  0x00\n    /* \"#utility.yul\":3626:3627   */\n  dup1\n    /* \"#utility.yul\":3619:3631   */\n  revert\n    /* \"#utility.yul\":3570:3633   */\ntag_117:\n    /* \"#utility.yul\":3517:3639   */\n  pop\n  jump\t// out\n    /* \"#utility.yul\":3645:3788   */\ntag_35:\n    /* \"#utility.yul\":3702:3707   */\n  0x00\n    /* \"#utility.yul\":3733:3739   */\n  dup2\n    /* \"#utility.yul\":3727:3740   */\n  mload\n    /* \"#utility.yul\":3718:3740   */\n  swap1\n  pop\n    /* \"#utility.yul\":3749:3782   */\n  tag_119\n    /* \"#utility.yul\":3776:3781   */\n  dup2\n    /* \"#utility.yul\":3749:3782   */\n  tag_34\n  jump\t// in\ntag_119:\n    /* \"#utility.yul\":3645:3788   */\n  swap3\n  swap2\n  pop\n  pop\n  jump\t// out\n    /* \"#utility.yul\":3832:4800   */\ntag_36:\n    /* \"#utility.yul\":3921:3926   */\n  0x00\n    /* \"#utility.yul\":3965:3969   */\n  0x60\n    /* \"#utility.yul\":3953:3962   */\n  dup3\n    /* \"#utility.yul\":3948:3951   */\n  dup5\n    /* \"#utility.yul\":3944:3963   */\n  sub\n    /* \"#utility.yul\":3940:3970   */\n  slt\n    /* \"#utility.yul\":3937:4054   */\n  iszero\n  tag_121\n  jumpi\n    /* \"#utility.yul\":3973:4052   */\n  tag_122\n  tag_17\n  jump\t// in\ntag_122:\n    /* \"#utility.yul\":3937:4054   */\ntag_121:\n    /* \"#utility.yul\":4072:4093   */\n  tag_123\n    /* \"#utility.yul\":4088:4092   */\n  0x60\n    /* \"#utility.yul\":4072:4093   */\n  tag_21\n  jump\t// in\ntag_123:\n    /* \"#utility.yul\":4063:4093   */\n  swap1\n  pop\n    /* \"#utility.yul\":4178:4179   */\n  0x00\n    /* \"#utility.yul\":4167:4176   */\n  dup3\n    /* \"#utility.yul\":4163:4180   */\n  add\n    /* \"#utility.yul\":4157:4181   */\n  mload\n    /* \"#utility.yul\":4208:4226   */\n  0xffffffffffffffff\n    /* \"#utility.yul\":4200:4206   */\n  dup2\n    /* \"#utility.yul\":4197:4227   */\n  gt\n    /* \"#utility.yul\":4194:4311   */\n  iszero\n  tag_124\n  jumpi\n    /* \"#utility.yul\":4230:4309   */\n  tag_125\n  tag_22\n  jump\t// in\ntag_125:\n    /* \"#utility.yul\":4194:4311   */\ntag_124:\n    /* \"#utility.yul\":4350:4420   */\n  tag_126\n    /* \"#utility.yul\":4416:4419   */\n  dup5\n    /* \"#utility.yul\":4407:4413   */\n  dup3\n    /* \"#utility.yul\":4396:4405   */\n  dup6\n    /* \"#utility.yul\":4392:4414   */\n  add\n    /* \"#utility.yul\":4350:4420   */\n  tag_28\n  jump\t// in\ntag_126:\n    /* \"#utility.yul\":4343:4347   */\n  0x00\n    /* \"#utility.yul\":4336:4341   */\n  dup4\n    /* \"#utility.yul\":4332:4348   */\n  add\n    /* \"#utility.yul\":4325:4421   */\n  mstore\n    /* \"#utility.yul\":4103:4432   */\n  pop\n    /* \"#utility.yul\":4502:4504   */\n  0x20\n    /* \"#utility.yul\":4543:4603   */\n  tag_127\n    /* \"#utility.yul\":4599:4602   */\n  dup5\n    /* \"#utility.yul\":4590:4596   */\n  dup3\n    /* \"#utility.yul\":4579:4588   */\n  dup6\n    /* \"#utility.yul\":4575:4597   */\n  add\n    /* \"#utility.yul\":4543:4603   */\n  tag_31\n  jump\t// in\ntag_127:\n    /* \"#utility.yul\":4536:4540   */\n  0x20\n    /* \"#utility.yul\":4529:4534   */\n  dup4\n    /* \"#utility.yul\":4525:4541   */\n  add\n    /* \"#utility.yul\":4518:4604   */\n  mstore\n    /* \"#utility.yul\":4442:4615   */\n  pop\n    /* \"#utility.yul\":4680:4682   */\n  0x40\n    /* \"#utility.yul\":4721:4781   */\n  tag_128\n    /* \"#utility.yul\":4777:4780   */\n  dup5\n    /* \"#utility.yul\":4768:4774   */\n  dup3\n    /* \"#utility.yul\":4757:4766   */\n  dup6\n    /* \"#utility.yul\":4753:4775   */\n  add\n    /* \"#utility.yul\":4721:4781   */\n  tag_35\n  jump\t// in\ntag_128:\n    /* \"#utility.yul\":4714:4718   */\n  0x40\n    /* \"#utility.yul\":4707:4712   */\n  dup4\n    /* \"#utility.yul\":4703:4719   */\n  add\n    /* \"#utility.yul\":4696:4782   */\n  mstore\n    /* \"#utility.yul\":4625:4793   */\n  pop\n    /* \"#utility.yul\":3832:4800   */\n  swap3\n  swap2\n  pop\n  pop\n  jump\t// out\n    /* \"#utility.yul\":4806:4883   */\ntag_37:\n    /* \"#utility.yul\":4843:4850   */\n  0x00\n    /* \"#utility.yul\":4872:4877   */\n  dup2\n    /* \"#utility.yul\":4861:4877   */\n  swap1\n  pop\n    /* \"#utility.yul\":4806:4883   */\n  swap2\n  swap1\n  pop\n  jump\t// out\n    /* \"#utility.yul\":4889:5011   */\ntag_38:\n    /* \"#utility.yul\":4962:4986   */\n  tag_131\n    /* \"#utility.yul\":4980:4985   */\n  dup2\n    /* \"#utility.yul\":4962:4986   */\n  tag_37\n  jump\t// in\ntag_131:\n    /* \"#utility.yul\":4955:4960   */\n  dup2\n    /* \"#utility.yul\":4952:4987   */\n  eq\n    /* \"#utility.yul\":4942:5005   */\n  tag_132\n  jumpi\n    /* \"#utility.yul\":5001:5002   */\n  0x00\n    /* \"#utility.yul\":4998:4999   */\n  dup1\n    /* \"#utility.yul\":4991:5003   */\n  revert\n    /* \"#utility.yul\":4942:5005   */\ntag_132:\n    /* \"#utility.yul\":4889:5011   */\n  pop\n  jump\t// out\n    /* \"#utility.yul\":5017:5160   */\ntag_39:\n    /* \"#utility.yul\":5074:5079   */\n  0x00\n    /* \"#utility.yul\":5105:5111   */\n  dup2\n    /* \"#utility.yul\":5099:5112   */\n  mload\n    /* \"#utility.yul\":5090:5112   */\n  swap1\n  pop\n    /* \"#utility.yul\":5121:5154   */\n  tag_134\n    /* \"#utility.yul\":5148:5153   */\n  dup2\n    /* \"#utility.yul\":5121:5154   */\n  tag_38\n  jump\t// in\ntag_134:\n    /* \"#utility.yul\":5017:5160   */\n  swap3\n  swap2\n  pop\n  pop\n  jump\t// out\n    /* \"#utility.yul\":5166:5255   */\ntag_40:\n    /* \"#utility.yul\":5202:5209   */\n  0x00\n    /* \"#utility.yul\":5242:5248   */\n  0xffff\n    /* \"#utility.yul\":5235:5240   */\n  dup3\n    /* \"#utility.yul\":5231:5249   */\n  and\n    /* \"#utility.yul\":5220:5249   */\n  swap1\n  pop\n    /* \"#utility.yul\":5166:5255   */\n  swap2\n  swap1\n  pop\n  jump\t// out\n    /* \"#utility.yul\":5261:5381   */\ntag_41:\n    /* \"#utility.yul\":5333:5356   */\n  tag_137\n    /* \"#utility.yul\":5350:5355   */\n  dup2\n    /* \"#utility.yul\":5333:5356   */\n  tag_40\n  jump\t// in\ntag_137:\n    /* \"#utility.yul\":5326:5331   */\n  dup2\n    /* \"#utility.yul\":5323:5357   */\n  eq\n    /* \"#utility.yul\":5313:5375   */\n  tag_138\n  jumpi\n    /* \"#utility.yul\":5371:5372   */\n  0x00\n    /* \"#utility.yul\":5368:5369   */\n  dup1\n    /* \"#utility.yul\":5361:5373   */\n  revert\n    /* \"#utility.yul\":5313:5375   */\ntag_138:\n    /* \"#utility.yul\":5261:5381   */\n  pop\n  jump\t// out\n    /* \"#utility.yul\":5387:5528   */\ntag_42:\n    /* \"#utility.yul\":5443:5448   */\n  0x00\n    /* \"#utility.yul\":5474:5480   */\n  dup2\n    /* \"#utility.yul\":5468:5481   */\n  mload\n    /* \"#utility.yul\":5459:5481   */\n  swap1\n  pop\n    /* \"#utility.yul\":5490:5522   */\n  tag_140\n    /* \"#utility.yul\":5516:5521   */\n  dup2\n    /* \"#utility.yul\":5490:5522   */\n  tag_41\n  jump\t// in\ntag_140:\n    /* \"#utility.yul\":5387:5528   */\n  swap3\n  swap2\n  pop\n  pop\n  jump\t// out\n    /* \"#utility.yul\":5534:5627   */\ntag_43:\n    /* \"#utility.yul\":5570:5577   */\n  0x00\n    /* \"#utility.yul\":5610:5620   */\n  0xffffffff\n    /* \"#utility.yul\":5603:5608   */\n  dup3\n    /* \"#utility.yul\":5599:5621   */\n  and\n    /* \"#utility.yul\":5588:5621   */\n  swap1\n  pop\n    /* \"#utility.yul\":5534:5627   */\n  swap2\n  swap1\n  pop\n  jump\t// out\n    /* \"#utility.yul\":5633:5753   */\ntag_44:\n    /* \"#utility.yul\":5705:5728   */\n  tag_143\n    /* \"#utility.yul\":5722:5727   */\n  dup2\n    /* \"#utility.yul\":5705:5728   */\n  tag_43\n  jump\t// in\ntag_143:\n    /* \"#utility.yul\":5698:5703   */\n  dup2\n    /* \"#utility.yul\":5695:5729   */\n  eq\n    /* \"#utility.yul\":5685:5747   */\n  tag_144\n  jumpi\n    /* \"#utility.yul\":5743:5744   */\n  0x00\n    /* \"#utility.yul\":5740:5741   */\n  dup1\n    /* \"#utility.yul\":5733:5745   */\n  revert\n    /* \"#utility.yul\":5685:5747   */\ntag_144:\n    /* \"#utility.yul\":5633:5753   */\n  pop\n  jump\t// out\n    /* \"#utility.yul\":5759:5900   */\ntag_45:\n    /* \"#utility.yul\":5815:5820   */\n  0x00\n    /* \"#utility.yul\":5846:5852   */\n  dup2\n    /* \"#utility.yul\":5840:5853   */\n  mload\n    /* \"#utility.yul\":5831:5853   */\n  swap1\n  pop\n    /* \"#utility.yul\":5862:5894   */\n  tag_146\n    /* \"#utility.yul\":5888:5893   */\n  dup2\n    /* \"#utility.yul\":5862:5894   */\n  tag_44\n  jump\t// in\ntag_146:\n    /* \"#utility.yul\":5759:5900   */\n  swap3\n  swap2\n  pop\n  pop\n  jump\t// out\n    /* \"#utility.yul\":5906:6003   */\ntag_46:\n    /* \"#utility.yul\":5942:5949   */\n  0x00\n    /* \"#utility.yul\":5982:5996   */\n  0xffffffffffff\n    /* \"#utility.yul\":5975:5980   */\n  dup3\n    /* \"#utility.yul\":5971:5997   */\n  and\n    /* \"#utility.yul\":5960:5997   */\n  swap1\n  pop\n    /* \"#utility.yul\":5906:6003   */\n  swap2\n  swap1\n  pop\n  jump\t// out\n    /* \"#utility.yul\":6009:6129   */\ntag_47:\n    /* \"#utility.yul\":6081:6104   */\n  tag_149\n    /* \"#utility.yul\":6098:6103   */\n  dup2\n    /* \"#utility.yul\":6081:6104   */\n  tag_46\n  jump\t// in\ntag_149:\n    /* \"#utility.yul\":6074:6079   */\n  dup2\n    /* \"#utility.yul\":6071:6105   */\n  eq\n    /* \"#utility.yul\":6061:6123   */\n  tag_150\n  jumpi\n    /* \"#utility.yul\":6119:6120   */\n  0x00\n    /* \"#utility.yul\":6116:6117   */\n  dup1\n    /* \"#utility.yul\":6109:6121   */\n  revert\n    /* \"#utility.yul\":6061:6123   */\ntag_150:\n    /* \"#utility.yul\":6009:6129   */\n  pop\n  jump\t// out\n    /* \"#utility.yul\":6135:6276   */\ntag_48:\n    /* \"#utility.yul\":6191:6196   */\n  0x00\n    /* \"#utility.yul\":6222:6228   */\n  dup2\n    /* \"#utility.yul\":6216:6229   */\n  mload\n    /* \"#utility.yul\":6207:6229   */\n  swap1\n  pop\n    /* \"#utility.yul\":6238:6270   */\n  tag_152\n    /* \"#utility.yul\":6264:6269   */\n  dup2\n    /* \"#utility.yul\":6238:6270   */\n  tag_47\n  jump\t// in\ntag_152:\n    /* \"#utility.yul\":6135:6276   */\n  swap3\n  swap2\n  pop\n  pop\n  jump\t// out\n    /* \"#utility.yul\":6318:7288   */\ntag_49:\n    /* \"#utility.yul\":6405:6410   */\n  0x00\n    /* \"#utility.yul\":6449:6453   */\n  0x80\n    /* \"#utility.yul\":6437:6446   */\n  dup3\n    /* \"#utility.yul\":6432:6435   */\n  dup5\n    /* \"#utility.yul\":6428:6447   */\n  sub\n    /* \"#utility.yul\":6424:6454   */\n  slt\n    /* \"#utility.yul\":6421:6538   */\n  iszero\n  tag_154\n  jumpi\n    /* \"#utility.yul\":6457:6536   */\n  tag_155\n  tag_17\n  jump\t// in\ntag_155:\n    /* \"#utility.yul\":6421:6538   */\ntag_154:\n    /* \"#utility.yul\":6556:6577   */\n  tag_156\n    /* \"#utility.yul\":6572:6576   */\n  0x80\n    /* \"#utility.yul\":6556:6577   */\n  tag_21\n  jump\t// in\ntag_156:\n    /* \"#utility.yul\":6547:6577   */\n  swap1\n  pop\n    /* \"#utility.yul\":6638:6639   */\n  0x00\n    /* \"#utility.yul\":6678:6737   */\n  tag_157\n    /* \"#utility.yul\":6733:6736   */\n  dup5\n    /* \"#utility.yul\":6724:6730   */\n  dup3\n    /* \"#utility.yul\":6713:6722   */\n  dup6\n    /* \"#utility.yul\":6709:6731   */\n  add\n    /* \"#utility.yul\":6678:6737   */\n  tag_42\n  jump\t// in\ntag_157:\n    /* \"#utility.yul\":6671:6675   */\n  0x00\n    /* \"#utility.yul\":6664:6669   */\n  dup4\n    /* \"#utility.yul\":6660:6676   */\n  add\n    /* \"#utility.yul\":6653:6738   */\n  mstore\n    /* \"#utility.yul\":6587:6749   */\n  pop\n    /* \"#utility.yul\":6816:6818   */\n  0x20\n    /* \"#utility.yul\":6857:6916   */\n  tag_158\n    /* \"#utility.yul\":6912:6915   */\n  dup5\n    /* \"#utility.yul\":6903:6909   */\n  dup3\n    /* \"#utility.yul\":6892:6901   */\n  dup6\n    /* \"#utility.yul\":6888:6910   */\n  add\n    /* \"#utility.yul\":6857:6916   */\n  tag_45\n  jump\t// in\ntag_158:\n    /* \"#utility.yul\":6850:6854   */\n  0x20\n    /* \"#utility.yul\":6843:6848   */\n  dup4\n    /* \"#utility.yul\":6839:6855   */\n  add\n    /* \"#utility.yul\":6832:6917   */\n  mstore\n    /* \"#utility.yul\":6759:6928   */\n  pop\n    /* \"#utility.yul\":6992:6994   */\n  0x40\n    /* \"#utility.yul\":7033:7092   */\n  tag_159\n    /* \"#utility.yul\":7088:7091   */\n  dup5\n    /* \"#utility.yul\":7079:7085   */\n  dup3\n    /* \"#utility.yul\":7068:7077   */\n  dup6\n    /* \"#utility.yul\":7064:7086   */\n  add\n    /* \"#utility.yul\":7033:7092   */\n  tag_48\n  jump\t// in\ntag_159:\n    /* \"#utility.yul\":7026:7030   */\n  0x40\n    /* \"#utility.yul\":7019:7024   */\n  dup4\n    /* \"#utility.yul\":7015:7031   */\n  add\n    /* \"#utility.yul\":7008:7093   */\n  mstore\n    /* \"#utility.yul\":6938:7104   */\n  pop\n    /* \"#utility.yul\":7169:7171   */\n  0x60\n    /* \"#utility.yul\":7210:7269   */\n  tag_160\n    /* \"#utility.yul\":7265:7268   */\n  dup5\n    /* \"#utility.yul\":7256:7262   */\n  dup3\n    /* \"#utility.yul\":7245:7254   */\n  dup6\n    /* \"#utility.yul\":7241:7263   */\n  add\n    /* \"#utility.yul\":7210:7269   */\n  tag_48\n  jump\t// in\ntag_160:\n    /* \"#utility.yul\":7203:7207   */\n  0x60\n    /* \"#utility.yul\":7196:7201   */\n  dup4\n    /* \"#utility.yul\":7192:7208   */\n  add\n    /* \"#utility.yul\":7185:7270   */\n  mstore\n    /* \"#utility.yul\":7114:7281   */\n  pop\n    /* \"#utility.yul\":6318:7288   */\n  swap3\n  swap2\n  pop\n  pop\n  jump\t// out\n    /* \"#utility.yul\":7294:8552   */\ntag_3:\n    /* \"#utility.yul\":7457:7463   */\n  0x00\n    /* \"#utility.yul\":7465:7471   */\n  dup1\n    /* \"#utility.yul\":7473:7479   */\n  0x00\n    /* \"#utility.yul\":7481:7487   */\n  dup1\n    /* \"#utility.yul\":7530:7533   */\n  0xe0\n    /* \"#utility.yul\":7518:7527   */\n  dup6\n    /* \"#utility.yul\":7509:7516   */\n  dup8\n    /* \"#utility.yul\":7505:7528   */\n  sub\n    /* \"#utility.yul\":7501:7534   */\n  slt\n    /* \"#utility.yul\":7498:7618   */\n  iszero\n  tag_162\n  jumpi\n    /* \"#utility.yul\":7537:7616   */\n  tag_163\n  tag_15\n  jump\t// in\ntag_163:\n    /* \"#utility.yul\":7498:7618   */\ntag_162:\n    /* \"#utility.yul\":7678:7679   */\n  0x00\n    /* \"#utility.yul\":7667:7676   */\n  dup6\n    /* \"#utility.yul\":7663:7680   */\n  add\n    /* \"#utility.yul\":7657:7681   */\n  mload\n    /* \"#utility.yul\":7708:7726   */\n  0xffffffffffffffff\n    /* \"#utility.yul\":7700:7706   */\n  dup2\n    /* \"#utility.yul\":7697:7727   */\n  gt\n    /* \"#utility.yul\":7694:7811   */\n  iszero\n  tag_164\n  jumpi\n    /* \"#utility.yul\":7730:7809   */\n  tag_165\n  tag_16\n  jump\t// in\ntag_165:\n    /* \"#utility.yul\":7694:7811   */\ntag_164:\n    /* \"#utility.yul\":7835:7928   */\n  tag_166\n    /* \"#utility.yul\":7920:7927   */\n  dup8\n    /* \"#utility.yul\":7911:7917   */\n  dup3\n    /* \"#utility.yul\":7900:7909   */\n  dup9\n    /* \"#utility.yul\":7896:7918   */\n  add\n    /* \"#utility.yul\":7835:7928   */\n  tag_36\n  jump\t// in\ntag_166:\n    /* \"#utility.yul\":7825:7928   */\n  swap5\n  pop\n    /* \"#utility.yul\":7628:7938   */\n  pop\n    /* \"#utility.yul\":7998:8000   */\n  0x20\n    /* \"#utility.yul\":7987:7996   */\n  dup6\n    /* \"#utility.yul\":7983:8001   */\n  add\n    /* \"#utility.yul\":7977:8002   */\n  mload\n    /* \"#utility.yul\":8029:8047   */\n  0xffffffffffffffff\n    /* \"#utility.yul\":8021:8027   */\n  dup2\n    /* \"#utility.yul\":8018:8048   */\n  gt\n    /* \"#utility.yul\":8015:8132   */\n  iszero\n  tag_167\n  jumpi\n    /* \"#utility.yul\":8051:8130   */\n  tag_168\n  tag_16\n  jump\t// in\ntag_168:\n    /* \"#utility.yul\":8015:8132   */\ntag_167:\n    /* \"#utility.yul\":8156:8230   */\n  tag_169\n    /* \"#utility.yul\":8222:8229   */\n  dup8\n    /* \"#utility.yul\":8213:8219   */\n  dup3\n    /* \"#utility.yul\":8202:8211   */\n  dup9\n    /* \"#utility.yul\":8198:8220   */\n  add\n    /* \"#utility.yul\":8156:8230   */\n  tag_28\n  jump\t// in\ntag_169:\n    /* \"#utility.yul\":8146:8230   */\n  swap4\n  pop\n    /* \"#utility.yul\":7948:8240   */\n  pop\n    /* \"#utility.yul\":8279:8281   */\n  0x40\n    /* \"#utility.yul\":8305:8369   */\n  tag_170\n    /* \"#utility.yul\":8361:8368   */\n  dup8\n    /* \"#utility.yul\":8352:8358   */\n  dup3\n    /* \"#utility.yul\":8341:8350   */\n  dup9\n    /* \"#utility.yul\":8337:8359   */\n  add\n    /* \"#utility.yul\":8305:8369   */\n  tag_39\n  jump\t// in\ntag_170:\n    /* \"#utility.yul\":8295:8369   */\n  swap3\n  pop\n    /* \"#utility.yul\":8250:8379   */\n  pop\n    /* \"#utility.yul\":8418:8420   */\n  0x60\n    /* \"#utility.yul\":8444:8535   */\n  tag_171\n    /* \"#utility.yul\":8527:8534   */\n  dup8\n    /* \"#utility.yul\":8518:8524   */\n  dup3\n    /* \"#utility.yul\":8507:8516   */\n  dup9\n    /* \"#utility.yul\":8503:8525   */\n  add\n    /* \"#utility.yul\":8444:8535   */\n  tag_49\n  jump\t// in\ntag_171:\n    /* \"#utility.yul\":8434:8535   */\n  swap2\n  pop\n    /* \"#utility.yul\":8389:8545   */\n  pop\n    /* \"#utility.yul\":7294:8552   */\n  swap3\n  swap6\n  swap2\n  swap5\n  pop\n  swap3\n  pop\n  jump\t// out\n    /* \"#utility.yul\":8558:8657   */\ntag_50:\n    /* \"#utility.yul\":8610:8616   */\n  0x00\n    /* \"#utility.yul\":8644:8649   */\n  dup2\n    /* \"#utility.yul\":8638:8650   */\n  mload\n    /* \"#utility.yul\":8628:8650   */\n  swap1\n  pop\n    /* \"#utility.yul\":8558:8657   */\n  swap2\n  swap1\n  pop\n  jump\t// out\n    /* \"#utility.yul\":8663:8843   */\ntag_51:\n    /* \"#utility.yul\":8711:8788   */\n  0x4e487b7100000000000000000000000000000000000000000000000000000000\n    /* \"#utility.yul\":8708:8709   */\n  0x00\n    /* \"#utility.yul\":8701:8789   */\n  mstore\n    /* \"#utility.yul\":8808:8812   */\n  0x22\n    /* \"#utility.yul\":8805:8806   */\n  0x04\n    /* \"#utility.yul\":8798:8813   */\n  mstore\n    /* \"#utility.yul\":8832:8836   */\n  0x24\n    /* \"#utility.yul\":8829:8830   */\n  0x00\n    /* \"#utility.yul\":8822:8837   */\n  revert\n    /* \"#utility.yul\":8849:9169   */\ntag_52:\n    /* \"#utility.yul\":8893:8899   */\n  0x00\n    /* \"#utility.yul\":8930:8931   */\n  0x02\n    /* \"#utility.yul\":8924:8928   */\n  dup3\n    /* \"#utility.yul\":8920:8932   */\n  div\n    /* \"#utility.yul\":8910:8932   */\n  swap1\n  pop\n    /* \"#utility.yul\":8977:8978   */\n  0x01\n    /* \"#utility.yul\":8971:8975   */\n  dup3\n    /* \"#utility.yul\":8967:8979   */\n  and\n    /* \"#utility.yul\":8998:9016   */\n  dup1\n    /* \"#utility.yul\":8988:9069   */\n  tag_175\n  jumpi\n    /* \"#utility.yul\":9054:9058   */\n  0x7f\n    /* \"#utility.yul\":9046:9052   */\n  dup3\n    /* \"#utility.yul\":9042:9059   */\n  and\n    /* \"#utility.yul\":9032:9059   */\n  swap2\n  pop\n    /* \"#utility.yul\":8988:9069   */\ntag_175:\n    /* \"#utility.yul\":9116:9118   */\n  0x20\n    /* \"#utility.yul\":9108:9114   */\n  dup3\n    /* \"#utility.yul\":9105:9119   */\n  lt\n    /* \"#utility.yul\":9085:9103   */\n  dup2\n    /* \"#utility.yul\":9082:9120   */\n  sub\n    /* \"#utility.yul\":9079:9163   */\n  tag_176\n  jumpi\n    /* \"#utility.yul\":9135:9153   */\n  tag_177\n  tag_51\n  jump\t// in\ntag_177:\n    /* \"#utility.yul\":9079:9163   */\ntag_176:\n    /* \"#utility.yul\":8900:9169   */\n  pop\n    /* \"#utility.yul\":8849:9169   */\n  swap2\n  swap1\n  pop\n  jump\t// out\n    /* \"#utility.yul\":9175:9316   */\ntag_53:\n    /* \"#utility.yul\":9224:9228   */\n  0x00\n    /* \"#utility.yul\":9247:9250   */\n  dup2\n    /* \"#utility.yul\":9239:9250   */\n  swap1\n  pop\n    /* \"#utility.yul\":9270:9273   */\n  dup2\n    /* \"#utility.yul\":9267:9268   */\n  0x00\n    /* \"#utility.yul\":9260:9274   */\n  mstore\n    /* \"#utility.yul\":9304:9308   */\n  0x20\n    /* \"#utility.yul\":9301:9302   */\n  0x00\n    /* \"#utility.yul\":9291:9309   */\n  keccak256\n    /* \"#utility.yul\":9283:9309   */\n  swap1\n  pop\n    /* \"#utility.yul\":9175:9316   */\n  swap2\n  swap1\n  pop\n  jump\t// out\n    /* \"#utility.yul\":9322:9415   */\ntag_54:\n    /* \"#utility.yul\":9359:9365   */\n  0x00\n    /* \"#utility.yul\":9406:9408   */\n  0x20\n    /* \"#utility.yul\":9401:9403   */\n  0x1f\n    /* \"#utility.yul\":9394:9399   */\n  dup4\n    /* \"#utility.yul\":9390:9404   */\n  add\n    /* \"#utility.yul\":9386:9409   */\n  div\n    /* \"#utility.yul\":9376:9409   */\n  swap1\n  pop\n    /* \"#utility.yul\":9322:9415   */\n  swap2\n  swap1\n  pop\n  jump\t// out\n    /* \"#utility.yul\":9421:9528   */\ntag_55:\n    /* \"#utility.yul\":9465:9473   */\n  0x00\n    /* \"#utility.yul\":9515:9520   */\n  dup3\n    /* \"#utility.yul\":9509:9513   */\n  dup3\n    /* \"#utility.yul\":9505:9521   */\n  shl\n    /* \"#utility.yul\":9484:9521   */\n  swap1\n  pop\n    /* \"#utility.yul\":9421:9528   */\n  swap3\n  swap2\n  pop\n  pop\n  jump\t// out\n    /* \"#utility.yul\":9534:9927   */\ntag_56:\n    /* \"#utility.yul\":9603:9609   */\n  0x00\n    /* \"#utility.yul\":9653:9654   */\n  0x08\n    /* \"#utility.yul\":9641:9651   */\n  dup4\n    /* \"#utility.yul\":9637:9655   */\n  mul\n    /* \"#utility.yul\":9676:9773   */\n  tag_182\n    /* \"#utility.yul\":9706:9772   */\n  0xffffffffffffffffffffffffffffffffffffffffffffffffffffffffffffffff\n    /* \"#utility.yul\":9695:9704   */\n  dup3\n    /* \"#utility.yul\":9676:9773   */\n  tag_55\n  jump\t// in\ntag_182:\n    /* \"#utility.yul\":9794:9833   */\n  tag_183\n    /* \"#utility.yul\":9824:9832   */\n  dup7\n    /* \"#utility.yul\":9813:9822   */\n  dup4\n    /* \"#utility.yul\":9794:9833   */\n  tag_55\n  jump\t// in\ntag_183:\n    /* \"#utility.yul\":9782:9833   */\n  swap6\n  pop\n    /* \"#utility.yul\":9866:9870   */\n  dup1\n    /* \"#utility.yul\":9862:9871   */\n  not\n    /* \"#utility.yul\":9855:9860   */\n  dup5\n    /* \"#utility.yul\":9851:9872   */\n  and\n    /* \"#utility.yul\":9842:9872   */\n  swap4\n  pop\n    /* \"#utility.yul\":9915:9919   */\n  dup1\n    /* \"#utility.yul\":9905:9913   */\n  dup7\n    /* \"#utility.yul\":9901:9920   */\n  and\n    /* \"#utility.yul\":9894:9899   */\n  dup5\n    /* \"#utility.yul\":9891:9921   */\n  or\n    /* \"#utility.yul\":9881:9921   */\n  swap3\n  pop\n    /* \"#utility.yul\":9610:9927   */\n  pop\n  pop\n    /* \"#utility.yul\":9534:9927   */\n  swap4\n  swap3\n  pop\n  pop\n  pop\n  jump\t// out\n    /* \"#utility.yul\":9933:9993   */\ntag_57:\n    /* \"#utility.yul\":9961:9964   */\n  0x00\n    /* \"#utility.yul\":9982:9987   */\n  dup2\n    /* \"#utility.yul\":9975:9987   */\n  swap1\n  pop\n    /* \"#utility.yul\":9933:9993   */\n  swap2\n  swap1\n  pop\n  jump\t// out\n    /* \"#utility.yul\":9999:10141   */\ntag_58:\n    /* \"#utility.yul\":10049:10058   */\n  0x00\n    /* \"#utility.yul\":10082:10135   */\n  tag_186\n    /* \"#utility.yul\":10100:10134   */\n  tag_187\n    /* \"#utility.yul\":10109:10133   */\n  tag_188\n    /* \"#utility.yul\":10127:10132   */\n  dup5\n    /* \"#utility.yul\":10109:10133   */\n  tag_37\n  jump\t// in\ntag_188:\n    /* \"#utility.yul\":10100:10134   */\n  tag_57\n  jump\t// in\ntag_187:\n    /* \"#utility.yul\":10082:10135   */\n  tag_37\n  jump\t// in\ntag_186:\n    /* \"#utility.yul\":10069:10135   */\n  swap1\n  pop\n    /* \"#utility.yul\":9999:10141   */\n  swap2\n  swap1\n  pop\n  jump\t// out\n    /* \"#utility.yul\":10147:10222   */\ntag_59:\n    /* \"#utility.yul\":10190:10193   */\n  0x00\n    /* \"#utility.yul\":10211:10216   */\n  dup2\n    /* \"#utility.yul\":10204:10216   */\n  swap1\n  pop\n    /* \"#utility.yul\":10147:10222   */\n  swap2\n  swap1\n  pop\n  jump\t// out\n    /* \"#utility.yul\":10228:10497   */\ntag_60:\n    /* \"#utility.yul\":10338:10377   */\n  tag_191\n    /* \"#utility.yul\":10369:10376   */\n  dup4\n    /* \"#utility.yul\":10338:10377   */\n  tag_58\n  jump\t// in\ntag_191:\n    /* \"#utility.yul\":10399:10490   */\n  tag_192\n    /* \"#utility.yul\":10448:10489   */\n  tag_193\n    /* \"#utility.yul\":10472:10488   */\n  dup3\n    /* \"#utility.yul\":10448:10489   */\n  tag_59\n  jump\t// in\ntag_193:\n    /* \"#utility.yul\":10440:10446   */\n  dup5\n    /* \"#utility.yul\":10433:10437   */\n  dup5\n    /* \"#utility.yul\":10427:10438   */\n  sload\n    /* \"#utility.yul\":10399:10490   */\n  tag_56\n  jump\t// in\ntag_192:\n    /* \"#utility.yul\":10393:10397   */\n  dup3\n    /* \"#utility.yul\":10386:10491   */\n  sstore\n    /* \"#utility.yul\":10304:10497   */\n  pop\n    /* \"#utility.yul\":10228:10497   */\n  pop\n  pop\n  pop\n  jump\t// out\n    /* \"#utility.yul\":10503:10576   */\ntag_61:\n    /* \"#utility.yul\":10548:10551   */\n  0x00\n    /* \"#utility.yul\":10503:10576   */\n  swap1\n  jump\t// out\n    /* \"#utility.yul\":10582:10771   */\ntag_62:\n    /* \"#utility.yul\":10659:10691   */\n  tag_196\n  tag_61\n  jump\t// in\ntag_196:\n    /* \"#utility.yul\":10700:10765   */\n  tag_197\n    /* \"#utility.yul\":10758:10764   */\n  dup2\n    /* \"#utility.yul\":10750:10756   */\n  dup5\n    /* \"#utility.yul\":10744:10748   */\n  dup5\n    /* \"#utility.yul\":10700:10765   */\n  tag_60\n  jump\t// in\ntag_197:\n    /* \"#utility.yul\":10635:10771   */\n  pop\n    /* \"#utility.yul\":10582:10771   */\n  pop\n  pop\n  jump\t// out\n    /* \"#utility.yul\":10777:10963   */\ntag_63:\n    /* \"#utility.yul\":10837:10957   */\ntag_199:\n    /* \"#utility.yul\":10854:10857   */\n  dup2\n    /* \"#utility.yul\":10847:10852   */\n  dup2\n    /* \"#utility.yul\":10844:10858   */\n  lt\n    /* \"#utility.yul\":10837:10957   */\n  iszero\n  tag_201\n  jumpi\n    /* \"#utility.yul\":10908:10947   */\n  tag_202\n    /* \"#utility.yul\":10945:10946   */\n  0x00\n    /* \"#utility.yul\":10938:10943   */\n  dup3\n    /* \"#utility.yul\":10908:10947   */\n  tag_62\n  jump\t// in\ntag_202:\n    /* \"#utility.yul\":10881:10882   */\n  0x01\n    /* \"#utility.yul\":10874:10879   */\n  dup2\n    /* \"#utility.yul\":10870:10883   */\n  add\n    /* \"#utility.yul\":10861:10883   */\n  swap1\n  pop\n    /* \"#utility.yul\":10837:10957   */\n  jump(tag_199)\ntag_201:\n    /* \"#utility.yul\":10777:10963   */\n  pop\n  pop\n  jump\t// out\n    /* \"#utility.yul\":10969:11512   */\ntag_64:\n    /* \"#utility.yul\":11070:11072   */\n  0x1f\n    /* \"#utility.yul\":11065:11068   */\n  dup3\n    /* \"#utility.yul\":11062:11073   */\n  gt\n    /* \"#utility.yul\":11059:11505   */\n  iszero\n  tag_204\n  jumpi\n    /* \"#utility.yul\":11104:11142   */\n  tag_205\n    /* \"#utility.yul\":11136:11141   */\n  dup2\n    /* \"#utility.yul\":11104:11142   */\n  tag_53\n  jump\t// in\ntag_205:\n    /* \"#utility.yul\":11188:11217   */\n  tag_206\n    /* \"#utility.yul\":11206:11216   */\n  dup5\n    /* \"#utility.yul\":11188:11217   */\n  tag_54\n  jump\t// in\ntag_206:\n    /* \"#utility.yul\":11178:11186   */\n  dup2\n    /* \"#utility.yul\":11174:11218   */\n  add\n    /* \"#utility.yul\":11371:11373   */\n  0x20\n    /* \"#utility.yul\":11359:11369   */\n  dup6\n    /* \"#utility.yul\":11356:11374   */\n  lt\n    /* \"#utility.yul\":11353:11402   */\n  iszero\n  tag_207\n  jumpi\n    /* \"#utility.yul\":11392:11400   */\n  dup2\n    /* \"#utility.yul\":11377:11400   */\n  swap1\n  pop\n    /* \"#utility.yul\":11353:11402   */\ntag_207:\n    /* \"#utility.yul\":11415:11495   */\n  tag_208\n    /* \"#utility.yul\":11471:11493   */\n  tag_209\n    /* \"#utility.yul\":11489:11492   */\n  dup6\n    /* \"#utility.yul\":11471:11493   */\n  tag_54\n  jump\t// in\ntag_209:\n    /* \"#utility.yul\":11461:11469   */\n  dup4\n    /* \"#utility.yul\":11457:11494   */\n  add\n    /* \"#utility.yul\":11444:11455   */\n  dup3\n    /* \"#utility.yul\":11415:11495   */\n  tag_63\n  jump\t// in\ntag_208:\n    /* \"#utility.yul\":11074:11505   */\n  pop\n  pop\n    /* \"#utility.yul\":11059:11505   */\ntag_204:\n    /* \"#utility.yul\":10969:11512   */\n  pop\n  pop\n  pop\n  jump\t// out\n    /* \"#utility.yul\":11518:11635   */\ntag_65:\n    /* \"#utility.yul\":11572:11580   */\n  0x00\n    /* \"#utility.yul\":11622:11627   */\n  dup3\n    /* \"#utility.yul\":11616:11620   */\n  dup3\n    /* \"#utility.yul\":11612:11628   */\n  shr\n    /* \"#utility.yul\":11591:11628   */\n  swap1\n  pop\n    /* \"#utility.yul\":11518:11635   */\n  swap3\n  swap2\n  pop\n  pop\n  jump\t// out\n    /* \"#utility.yul\":11641:11810   */\ntag_66:\n    /* \"#utility.yul\":11685:11691   */\n  0x00\n    /* \"#utility.yul\":11718:11769   */\n  tag_212\n    /* \"#utility.yul\":11766:11767   */\n  0x00\n    /* \"#utility.yul\":11762:11768   */\n  not\n    /* \"#utility.yul\":11754:11759   */\n  dup5\n    /* \"#utility.yul\":11751:11752   */\n  0x08\n    /* \"#utility.yul\":11747:11760   */\n  mul\n    /* \"#utility.yul\":11718:11769   */\n  tag_65\n  jump\t// in\ntag_212:\n    /* \"#utility.yul\":11714:11770   */\n  not\n    /* \"#utility.yul\":11799:11803   */\n  dup1\n    /* \"#utility.yul\":11793:11797   */\n  dup4\n    /* \"#utility.yul\":11789:11804   */\n  and\n    /* \"#utility.yul\":11779:11804   */\n  swap2\n  pop\n    /* \"#utility.yul\":11692:11810   */\n  pop\n    /* \"#utility.yul\":11641:11810   */\n  swap3\n  swap2\n  pop\n  pop\n  jump\t// out\n    /* \"#utility.yul\":11815:12110   */\ntag_67:\n    /* \"#utility.yul\":11891:11895   */\n  0x00\n    /* \"#utility.yul\":12037:12066   */\n  tag_214\n    /* \"#utility.yul\":12062:12065   */\n  dup4\n    /* \"#utility.yul\":12056:12060   */\n  dup4\n    /* \"#utility.yul\":12037:12066   */\n  tag_66\n  jump\t// in\ntag_214:\n    /* \"#utility.yul\":12029:12066   */\n  swap2\n  pop\n    /* \"#utility.yul\":12099:12102   */\n  dup3\n    /* \"#utility.yul\":12096:12097   */\n  0x02\n    /* \"#utility.yul\":12092:12103   */\n  mul\n    /* \"#utility.yul\":12086:12090   */\n  dup3\n    /* \"#utility.yul\":12083:12104   */\n  or\n    /* \"#utility.yul\":12075:12104   */\n  swap1\n  pop\n    /* \"#utility.yul\":11815:12110   */\n  swap3\n  swap2\n  pop\n  pop\n  jump\t// out\n    /* \"#utility.yul\":12115:13510   */\ntag_7:\n    /* \"#utility.yul\":12232:12269   */\n  tag_216\n    /* \"#utility.yul\":12265:12268   */\n  dup3\n    /* \"#utility.yul\":12232:12269   */\n  tag_50\n  jump\t// in\ntag_216:\n    /* \"#utility.yul\":12334:12352   */\n  0xffffffffffffffff\n    /* \"#utility.yul\":12326:12332   */\n  dup2\n    /* \"#utility.yul\":12323:12353   */\n  gt\n    /* \"#utility.yul\":12320:12376   */\n  iszero\n  tag_217\n  jumpi\n    /* \"#utility.yul\":12356:12374   */\n  tag_218\n  tag_19\n  jump\t// in\ntag_218:\n    /* \"#utility.yul\":12320:12376   */\ntag_217:\n    /* \"#utility.yul\":12400:12438   */\n  tag_219\n    /* \"#utility.yul\":12432:12436   */\n  dup3\n    /* \"#utility.yul\":12426:12437   */\n  sload\n    /* \"#utility.yul\":12400:12438   */\n  tag_52\n  jump\t// in\ntag_219:\n    /* \"#utility.yul\":12485:12552   */\n  tag_220\n    /* \"#utility.yul\":12545:12551   */\n  dup3\n    /* \"#utility.yul\":12537:12543   */\n  dup3\n    /* \"#utility.yul\":12531:12535   */\n  dup6\n    /* \"#utility.yul\":12485:12552   */\n  tag_64\n  jump\t// in\ntag_220:\n    /* \"#utility.yul\":12579:12580   */\n  0x00\n    /* \"#utility.yul\":12603:12607   */\n  0x20\n    /* \"#utility.yul\":12590:12607   */\n  swap1\n  pop\n    /* \"#utility.yul\":12635:12637   */\n  0x1f\n    /* \"#utility.yul\":12627:12633   */\n  dup4\n    /* \"#utility.yul\":12624:12638   */\n  gt\n    /* \"#utility.yul\":12652:12653   */\n  0x01\n    /* \"#utility.yul\":12647:13265   */\n  dup2\n  eq\n  tag_222\n  jumpi\n    /* \"#utility.yul\":13309:13310   */\n  0x00\n    /* \"#utility.yul\":13326:13332   */\n  dup5\n    /* \"#utility.yul\":13323:13400   */\n  iszero\n  tag_223\n  jumpi\n    /* \"#utility.yul\":13375:13384   */\n  dup3\n    /* \"#utility.yul\":13370:13373   */\n  dup8\n    /* \"#utility.yul\":13366:13385   */\n  add\n    /* \"#utility.yul\":13360:13386   */\n  mload\n    /* \"#utility.yul\":13351:13386   */\n  swap1\n  pop\n    /* \"#utility.yul\":13323:13400   */\ntag_223:\n    /* \"#utility.yul\":13426:13493   */\n  tag_224\n    /* \"#utility.yul\":13486:13492   */\n  dup6\n    /* \"#utility.yul\":13479:13484   */\n  dup3\n    /* \"#utility.yul\":13426:13493   */\n  tag_67\n  jump\t// in\ntag_224:\n    /* \"#utility.yul\":13420:13424   */\n  dup7\n    /* \"#utility.yul\":13413:13494   */\n  sstore\n    /* \"#utility.yul\":13282:13504   */\n  pop\n    /* \"#utility.yul\":12617:13504   */\n  jump(tag_221)\n    /* \"#utility.yul\":12647:13265   */\ntag_222:\n    /* \"#utility.yul\":12699:12703   */\n  0x1f\n    /* \"#utility.yul\":12695:12704   */\n  not\n    /* \"#utility.yul\":12687:12693   */\n  dup5\n    /* \"#utility.yul\":12683:12705   */\n  and\n    /* \"#utility.yul\":12733:12770   */\n  tag_225\n    /* \"#utility.yul\":12765:12769   */\n  dup7\n    /* \"#utility.yul\":12733:12770   */\n  tag_53\n  jump\t// in\ntag_225:\n    /* \"#utility.yul\":12792:12793   */\n  0x00\n    /* \"#utility.yul\":12806:13014   */\ntag_226:\n    /* \"#utility.yul\":12820:12827   */\n  dup3\n    /* \"#utility.yul\":12817:12818   */\n  dup2\n    /* \"#utility.yul\":12814:12828   */\n  lt\n    /* \"#utility.yul\":12806:13014   */\n  iszero\n  tag_228\n  jumpi\n    /* \"#utility.yul\":12899:12908   */\n  dup5\n    /* \"#utility.yul\":12894:12897   */\n  dup10\n    /* \"#utility.yul\":12890:12909   */\n  add\n    /* \"#utility.yul\":12884:12910   */\n  mload\n    /* \"#utility.yul\":12876:12882   */\n  dup3\n    /* \"#utility.yul\":12869:12911   */\n  sstore\n    /* \"#utility.yul\":12950:12951   */\n  0x01\n    /* \"#utility.yul\":12942:12948   */\n  dup3\n    /* \"#utility.yul\":12938:12952   */\n  add\n    /* \"#utility.yul\":12928:12952   */\n  swap2\n  pop\n    /* \"#utility.yul\":12997:12999   */\n  0x20\n    /* \"#utility.yul\":12986:12995   */\n  dup6\n    /* \"#utility.yul\":12982:13000   */\n  add\n    /* \"#utility.yul\":12969:13000   */\n  swap5\n  pop\n    /* \"#utility.yul\":12843:12847   */\n  0x20\n    /* \"#utility.yul\":12840:12841   */\n  dup2\n    /* \"#utility.yul\":12836:12848   */\n  add\n    /* \"#utility.yul\":12831:12848   */\n  swap1\n  pop\n    /* \"#utility.yul\":12806:13014   */\n  jump(tag_226)\ntag_228:\n    /* \"#utility.yul\":13042:13048   */\n  dup7\n    /* \"#utility.yul\":13033:13040   */\n  dup4\n    /* \"#utility.yul\":13030:13049   */\n  lt\n    /* \"#utility.yul\":13027:13206   */\n  iszero\n  tag_229\n  jumpi\n    /* \"#utility.yul\":13100:13109   */\n  dup5\n    /* \"#utility.yul\":13095:13098   */\n  dup10\n    /* \"#utility.yul\":13091:13110   */\n  add\n    /* \"#utility.yul\":13085:13111   */\n  mload\n    /* \"#utility.yul\":13143:13191   */\n  tag_230\n    /* \"#utility.yul\":13185:13189   */\n  0x1f\n    /* \"#utility.yul\":13177:13183   */\n  dup10\n    /* \"#utility.yul\":13173:13190   */\n  and\n    /* \"#utility.yul\":13162:13171   */\n  dup3\n    /* \"#utility.yul\":13143:13191   */\n  tag_66\n  jump\t// in\ntag_230:\n    /* \"#utility.yul\":13135:13141   */\n  dup4\n    /* \"#utility.yul\":13128:13192   */\n  sstore\n    /* \"#utility.yul\":13050:13206   */\n  pop\n    /* \"#utility.yul\":13027:13206   */\ntag_229:\n    /* \"#utility.yul\":13252:13253   */\n  0x01\n    /* \"#utility.yul\":13248:13249   */\n  0x02\n    /* \"#utility.yul\":13240:13246   */\n  dup9\n    /* \"#utility.yul\":13236:13250   */\n  mul\n    /* \"#utility.yul\":13232:13254   */\n  add\n    /* \"#utility.yul\":13226:13230   */\n  dup9\n    /* \"#utility.yul\":13219:13255   */\n  sstore\n    /* \"#utility.yul\":12654:13265   */\n  pop\n  pop\n  pop\n    /* \"#utility.yul\":12617:13504   */\ntag_221:\n  pop\n    /* \"#utility.yul\":12207:13510   */\n  pop\n  pop\n  pop\n    /* \"#utility.yul\":12115:13510   */\n  pop\n  pop\n  jump\t// out\n    /* \"#utility.yul\":13516:13685   */\ntag_68:\n    /* \"#utility.yul\":13600:13611   */\n  0x00\n    /* \"#utility.yul\":13634:13640   */\n  dup3\n    /* \"#utility.yul\":13629:13632   */\n  dup3\n    /* \"#utility.yul\":13622:13641   */\n  mstore\n    /* \"#utility.yul\":13674:13678   */\n  0x20\n    /* \"#utility.yul\":13669:13672   */\n  dup3\n    /* \"#utility.yul\":13665:13679   */\n  add\n    /* \"#utility.yul\":13650:13679   */\n  swap1\n  pop\n    /* \"#utility.yul\":13516:13685   */\n  swap3\n  swap2\n  pop\n  pop\n  jump\t// out\n    /* \"#utility.yul\":13691:14068   */\ntag_69:\n    /* \"#utility.yul\":13779:13782   */\n  0x00\n    /* \"#utility.yul\":13807:13846   */\n  tag_233\n    /* \"#utility.yul\":13840:13845   */\n  dup3\n    /* \"#utility.yul\":13807:13846   */\n  tag_50\n  jump\t// in\ntag_233:\n    /* \"#utility.yul\":13862:13933   */\n  tag_234\n    /* \"#utility.yul\":13926:13932   */\n  dup2\n    /* \"#utility.yul\":13921:13924   */\n  dup6\n    /* \"#utility.yul\":13862:13933   */\n  tag_68\n  jump\t// in\ntag_234:\n    /* \"#utility.yul\":13855:13933   */\n  swap4\n  pop\n    /* \"#utility.yul\":13942:14007   */\n  tag_235\n    /* \"#utility.yul\":14000:14006   */\n  dup2\n    /* \"#utility.yul\":13995:13998   */\n  dup6\n    /* \"#utility.yul\":13988:13992   */\n  0x20\n    /* \"#utility.yul\":13981:13986   */\n  dup7\n    /* \"#utility.yul\":13977:13993   */\n  add\n    /* \"#utility.yul\":13942:14007   */\n  tag_26\n  jump\t// in\ntag_235:\n    /* \"#utility.yul\":14032:14061   */\n  tag_236\n    /* \"#utility.yul\":14054:14060   */\n  dup2\n    /* \"#utility.yul\":14032:14061   */\n  tag_18\n  jump\t// in\ntag_236:\n    /* \"#utility.yul\":14027:14030   */\n  dup5\n    /* \"#utility.yul\":14023:14062   */\n  add\n    /* \"#utility.yul\":14016:14062   */\n  swap2\n  pop\n    /* \"#utility.yul\":13783:14068   */\n  pop\n    /* \"#utility.yul\":13691:14068   */\n  swap3\n  swap2\n  pop\n  pop\n  jump\t// out\n    /* \"#utility.yul\":14074:14387   */\ntag_9:\n    /* \"#utility.yul\":14187:14191   */\n  0x00\n    /* \"#utility.yul\":14225:14227   */\n  0x20\n    /* \"#utility.yul\":14214:14223   */\n  dup3\n    /* \"#utility.yul\":14210:14228   */\n  add\n    /* \"#utility.yul\":14202:14228   */\n  swap1\n  pop\n    /* \"#utility.yul\":14274:14283   */\n  dup2\n    /* \"#utility.yul\":14268:14272   */\n  dup2\n    /* \"#utility.yul\":14264:14284   */\n  sub\n    /* \"#utility.yul\":14260:14261   */\n  0x00\n    /* \"#utility.yul\":14249:14258   */\n  dup4\n    /* \"#utility.yul\":14245:14262   */\n  add\n    /* \"#utility.yul\":14238:14285   */\n  mstore\n    /* \"#utility.yul\":14302:14380   */\n  tag_238\n    /* \"#utility.yul\":14375:14379   */\n  dup2\n    /* \"#utility.yul\":14366:14372   */\n  dup5\n    /* \"#utility.yul\":14302:14380   */\n  tag_69\n  jump\t// in\ntag_238:\n    /* \"#utility.yul\":14294:14380   */\n  swap1\n  pop\n    /* \"#utility.yul\":14074:14387   */\n  swap3\n  swap2\n  pop\n  pop\n  jump\t// out\n    /* \"#utility.yul\":14393:14511   */\ntag_70:\n    /* \"#utility.yul\":14480:14504   */\n  tag_240\n    /* \"#utility.yul\":14498:14503   */\n  dup2\n    /* \"#utility.yul\":14480:14504   */\n  tag_33\n  jump\t// in\ntag_240:\n    /* \"#utility.yul\":14475:14478   */\n  dup3\n    /* \"#utility.yul\":14468:14505   */\n  mstore\n    /* \"#utility.yul\":14393:14511   */\n  pop\n  pop\n  jump\t// out\n    /* \"#utility.yul\":14517:14739   */\ntag_12:\n    /* \"#utility.yul\":14610:14614   */\n  0x00\n    /* \"#utility.yul\":14648:14650   */\n  0x20\n    /* \"#utility.yul\":14637:14646   */\n  dup3\n    /* \"#utility.yul\":14633:14651   */\n  add\n    /* \"#utility.yul\":14625:14651   */\n  swap1\n  pop\n    /* \"#utility.yul\":14661:14732   */\n  tag_242\n    /* \"#utility.yul\":14729:14730   */\n  0x00\n    /* \"#utility.yul\":14718:14727   */\n  dup4\n    /* \"#utility.yul\":14714:14731   */\n  add\n    /* \"#utility.yul\":14705:14711   */\n  dup5\n    /* \"#utility.yul\":14661:14732   */\n  tag_70\n  jump\t// in\ntag_242:\n    /* \"#utility.yul\":14517:14739   */\n  swap3\n  swap2\n  pop\n  pop\n  jump\t// out\n    /* \"contracts/3_Ballot.sol\":146:8790  contract BallotTCN {... */\ntag_13:\n  dataSize(sub_0)\n  dup1\n  dataOffset(sub_0)\n  0x00\n  codecopy\n  0x00\n  return\nstop\n\nsub_0: assembly {\n        /* \"contracts/3_Ballot.sol\":146:8790  contract BallotTCN {... */\n      mstore(0x40, 0x80)\n      callvalue\n      dup1\n      iszero\n      tag_1\n      jumpi\n      0x00\n      dup1\n      revert\n    tag_1:\n      pop\n      jumpi(tag_2, lt(calldatasize, 0x04))\n      shr(0xe0, calldataload(0x00))\n      dup1\n      0xa3ec138d\n      gt\n      tag_16\n      jumpi\n      dup1\n      0xd4564d16\n      gt\n      tag_17\n      jumpi\n      dup1\n      0xd4564d16\n      eq\n      tag_12\n      jumpi\n      dup1\n      0xe2ba53f0\n      eq\n      tag_13\n      jumpi\n      dup1\n      0xec5bf07b\n      eq\n      tag_14\n      jumpi\n      dup1\n      0xf8b1b08a\n      eq\n      tag_15\n      jumpi\n      jump(tag_2)\n    tag_17:\n      dup1\n      0xa3ec138d\n      eq\n      tag_9\n      jumpi\n      dup1\n      0xb3a05246\n      eq\n      tag_10\n      jumpi\n      dup1\n      0xbc33c7d7\n      eq\n      tag_11\n      jumpi\n      jump(tag_2)\n    tag_16:\n      dup1\n      0x0121b93f\n      eq\n      tag_3\n      jumpi\n      dup1\n      0x013cf08b\n      eq\n      tag_4\n      jumpi\n      dup1\n      0x2e4176cf\n      eq\n      tag_5\n      jumpi\n      dup1\n      0x4731ca2b\n      eq\n      tag_6\n      jumpi\n      dup1\n      0x5c19a95c\n      eq\n      tag_7\n      jumpi\n      dup1\n      0x9e7b8d61\n      eq\n      tag_8\n      jumpi\n    tag_2:\n      0x00\n      dup1\n      revert\n        /* \"contracts/3_Ballot.sol\":7437:7895  function vote(uint proposal) public {... */\n    tag_3:\n      tag_18\n      0x04\n      dup1\n      calldatasize\n      sub\n      dup2\n      add\n      swap1\n      tag_19\n      swap2\n      swap1\n      tag_20\n      jump\t// in\n    tag_19:\n      tag_21\n      jump\t// in\n    tag_18:\n      stop\n        /* \"contracts/3_Ballot.sol\":1618:1645  Proposal[] public proposals */\n    tag_4:\n      tag_22\n      0x04\n      dup1\n      calldatasize\n      sub\n      dup2\n      add\n      swap1\n      tag_23\n      swap2\n      swap1\n      tag_20\n      jump\t// in\n    tag_23:\n      tag_24\n      jump\t// in\n    tag_22:\n      mload(0x40)\n      tag_25\n      swap3\n      swap2\n      swap1\n      tag_26\n      jump\t// in\n    tag_25:\n      mload(0x40)\n      dup1\n      swap2\n      sub\n      swap1\n      return\n        /* \"contracts/3_Ballot.sol\":1458:1484  address public chairperson */\n    tag_5:\n      tag_27\n      tag_28\n      jump\t// in\n    tag_27:\n      mload(0x40)\n      tag_29\n      swap2\n      swap1\n      tag_30\n      jump\t// in\n    tag_29:\n      mload(0x40)\n      dup1\n      swap2\n      sub\n      swap1\n      return\n        /* \"contracts/3_Ballot.sol\":3396:3527  function getBallotProposalParams() public view returns (PROPOSALPARAM memory proposalParam) {... */\n    tag_6:\n      tag_31\n      tag_32\n      jump\t// in\n    tag_31:\n      mload(0x40)\n      tag_33\n      swap2\n      swap1\n      tag_34\n      jump\t// in\n    tag_33:\n      mload(0x40)\n      dup1\n      swap2\n      sub\n      swap1\n      return\n        /* \"contracts/3_Ballot.sol\":6342:7249  function delegate(address to) public {... */\n    tag_7:\n      tag_35\n      0x04\n      dup1\n      calldatasize\n      sub\n      dup2\n      add\n      swap1\n      tag_36\n      swap2\n      swap1\n      tag_37\n      jump\t// in\n    tag_36:\n      tag_38\n      jump\t// in\n    tag_35:\n      stop\n        /* \"contracts/3_Ballot.sol\":5863:6218  function giveRightToVote(address voter) public {... */\n    tag_8:\n      tag_39\n      0x04\n      dup1\n      calldatasize\n      sub\n      dup2\n      add\n      swap1\n      tag_40\n      swap2\n      swap1\n      tag_37\n      jump\t// in\n    tag_40:\n      tag_41\n      jump\t// in\n    tag_39:\n      stop\n        /* \"contracts/3_Ballot.sol\":1572:1611  mapping(address => Voter) public voters */\n    tag_9:\n      tag_42\n      0x04\n      dup1\n      calldatasize\n      sub\n      dup2\n      add\n      swap1\n      tag_43\n      swap2\n      swap1\n      tag_37\n      jump\t// in\n    tag_43:\n      tag_44\n      jump\t// in\n    tag_42:\n      mload(0x40)\n      tag_45\n      swap5\n      swap4\n      swap3\n      swap2\n      swap1\n      tag_46\n      jump\t// in\n    tag_45:\n      mload(0x40)\n      dup1\n      swap2\n      sub\n      swap1\n      return\n        /* \"contracts/3_Ballot.sol\":3533:3657  function getBalootVotingParams() public view returns (VOTINGPARAM memory VotingParam_) {... */\n    tag_10:\n      tag_47\n      tag_48\n      jump\t// in\n    tag_47:\n      mload(0x40)\n      tag_49\n      swap2\n      swap1\n      tag_50\n      jump\t// in\n    tag_49:\n      mload(0x40)\n      dup1\n      swap2\n      sub\n      swap1\n      return\n        /* \"contracts/3_Ballot.sol\":3264:3390  function getBallotCallDataParams() public view returns (CALLDATAPARAM memory callData_) {... */\n    tag_11:\n      tag_51\n      tag_52\n      jump\t// in\n    tag_51:\n      mload(0x40)\n      tag_53\n      swap2\n      swap1\n      tag_54\n      jump\t// in\n    tag_53:\n      mload(0x40)\n      dup1\n      swap2\n      sub\n      swap1\n      return\n        /* \"contracts/3_Ballot.sol\":8081:8451  function voteCountProposal() public view... */\n    tag_12:\n      tag_55\n      tag_56\n      jump\t// in\n    tag_55:\n      mload(0x40)\n      tag_57\n      swap2\n      swap1\n      tag_58\n      jump\t// in\n    tag_57:\n      mload(0x40)\n      dup1\n      swap2\n      sub\n      swap1\n      return\n        /* \"contracts/3_Ballot.sol\":8642:8788  function winnerName() public view... */\n    tag_13:\n      tag_59\n      tag_60\n      jump\t// in\n    tag_59:\n      mload(0x40)\n      tag_61\n      swap2\n      swap1\n      tag_62\n      jump\t// in\n    tag_61:\n      mload(0x40)\n      dup1\n      swap2\n      sub\n      swap1\n      return\n        /* \"contracts/3_Ballot.sol\":3828:4060  function getBallotProposalId() public view returns (uint256 proposalId) {... */\n    tag_14:\n      tag_63\n      tag_64\n      jump\t// in\n    tag_63:\n      mload(0x40)\n      tag_65\n      swap2\n      swap1\n      tag_58\n      jump\t// in\n    tag_65:\n      mload(0x40)\n      dup1\n      swap2\n      sub\n      swap1\n      return\n        /* \"contracts/3_Ballot.sol\":3663:3822  function getBallotCallData() public view virtual  returns (bytes memory callData) {... */\n    tag_15:\n      tag_66\n      tag_67\n      jump\t// in\n    tag_66:\n      mload(0x40)\n      tag_68\n      swap2\n      swap1\n      tag_69\n      jump\t// in\n    tag_68:\n      mload(0x40)\n      dup1\n      swap2\n      sub\n      swap1\n      return\n        /* \"contracts/3_Ballot.sol\":7437:7895  function vote(uint proposal) public {... */\n    tag_21:\n        /* \"contracts/3_Ballot.sol\":7483:7503  Voter storage sender */\n      0x00\n        /* \"contracts/3_Ballot.sol\":7506:7512  voters */\n      0x09\n        /* \"contracts/3_Ballot.sol\":7506:7524  voters[msg.sender] */\n      0x00\n        /* \"contracts/3_Ballot.sol\":7513:7523  msg.sender */\n      caller\n        /* \"contracts/3_Ballot.sol\":7506:7524  voters[msg.sender] */\n      0xffffffffffffffffffffffffffffffffffffffff\n      and\n      0xffffffffffffffffffffffffffffffffffffffff\n      and\n      dup2\n      mstore\n      0x20\n      add\n      swap1\n      dup2\n      mstore\n      0x20\n      add\n      0x00\n      keccak256\n        /* \"contracts/3_Ballot.sol\":7483:7524  Voter storage sender = voters[msg.sender] */\n      swap1\n      pop\n        /* \"contracts/3_Ballot.sol\":7559:7560  0 */\n      0x00\n        /* \"contracts/3_Ballot.sol\":7542:7548  sender */\n      dup2\n        /* \"contracts/3_Ballot.sol\":7542:7555  sender.weight */\n      0x00\n      add\n      sload\n        /* \"contracts/3_Ballot.sol\":7542:7560  sender.weight != 0 */\n      sub\n        /* \"contracts/3_Ballot.sol\":7534:7585  require(sender.weight != 0, \"Has no right to vote\") */\n      tag_71\n      jumpi\n      mload(0x40)\n      0x08c379a000000000000000000000000000000000000000000000000000000000\n      dup2\n      mstore\n      0x04\n      add\n      tag_72\n      swap1\n      tag_73\n      jump\t// in\n    tag_72:\n      mload(0x40)\n      dup1\n      swap2\n      sub\n      swap1\n      revert\n    tag_71:\n        /* \"contracts/3_Ballot.sol\":7604:7610  sender */\n      dup1\n        /* \"contracts/3_Ballot.sol\":7604:7616  sender.voted */\n      0x01\n      add\n      0x00\n      swap1\n      sload\n      swap1\n      0x0100\n      exp\n      swap1\n      div\n      0xff\n      and\n        /* \"contracts/3_Ballot.sol\":7603:7616  !sender.voted */\n      iszero\n        /* \"contracts/3_Ballot.sol\":7595:7635  require(!sender.voted, \"Already voted.\") */\n      tag_74\n      jumpi\n      mload(0x40)\n      0x08c379a000000000000000000000000000000000000000000000000000000000\n      dup2\n      mstore\n      0x04\n      add\n      tag_75\n      swap1\n      tag_76\n      jump\t// in\n    tag_75:\n      mload(0x40)\n      dup1\n      swap2\n      sub\n      swap1\n      revert\n    tag_74:\n        /* \"contracts/3_Ballot.sol\":7660:7664  true */\n      0x01\n        /* \"contracts/3_Ballot.sol\":7645:7651  sender */\n      dup2\n        /* \"contracts/3_Ballot.sol\":7645:7657  sender.voted */\n      0x01\n      add\n      0x00\n        /* \"contracts/3_Ballot.sol\":7645:7664  sender.voted = true */\n      0x0100\n      exp\n      dup2\n      sload\n      dup2\n      0xff\n      mul\n      not\n      and\n      swap1\n      dup4\n      iszero\n      iszero\n      mul\n      or\n      swap1\n      sstore\n      pop\n        /* \"contracts/3_Ballot.sol\":7688:7696  proposal */\n      dup2\n        /* \"contracts/3_Ballot.sol\":7674:7680  sender */\n      dup2\n        /* \"contracts/3_Ballot.sol\":7674:7685  sender.vote */\n      0x02\n      add\n        /* \"contracts/3_Ballot.sol\":7674:7696  sender.vote = proposal */\n      dup2\n      swap1\n      sstore\n      pop\n        /* \"contracts/3_Ballot.sol\":7875:7881  sender */\n      dup1\n        /* \"contracts/3_Ballot.sol\":7875:7888  sender.weight */\n      0x00\n      add\n      sload\n        /* \"contracts/3_Ballot.sol\":7842:7851  proposals */\n      0x0a\n        /* \"contracts/3_Ballot.sol\":7852:7860  proposal */\n      dup4\n        /* \"contracts/3_Ballot.sol\":7842:7861  proposals[proposal] */\n      dup2\n      sload\n      dup2\n      lt\n      tag_77\n      jumpi\n      tag_78\n      tag_79\n      jump\t// in\n    tag_78:\n    tag_77:\n      swap1\n      0x00\n      mstore\n      keccak256(0x00, 0x20)\n      swap1\n      0x02\n      mul\n      add\n        /* \"contracts/3_Ballot.sol\":7842:7871  proposals[proposal].voteCount */\n      0x01\n      add\n      0x00\n        /* \"contracts/3_Ballot.sol\":7842:7888  proposals[proposal].voteCount += sender.weight */\n      dup3\n      dup3\n      sload\n      tag_81\n      swap2\n      swap1\n      tag_82\n      jump\t// in\n    tag_81:\n      swap3\n      pop\n      pop\n      dup2\n      swap1\n      sstore\n      pop\n        /* \"contracts/3_Ballot.sol\":7473:7895  {... */\n      pop\n        /* \"contracts/3_Ballot.sol\":7437:7895  function vote(uint proposal) public {... */\n      pop\n      jump\t// out\n        /* \"contracts/3_Ballot.sol\":1618:1645  Proposal[] public proposals */\n    tag_24:\n      0x0a\n      dup2\n      dup2\n      sload\n      dup2\n      lt\n      tag_83\n      jumpi\n      0x00\n      dup1\n      revert\n    tag_83:\n      swap1\n      0x00\n      mstore\n      keccak256(0x00, 0x20)\n      swap1\n      0x02\n      mul\n      add\n      0x00\n      swap2\n      pop\n      swap1\n      pop\n      dup1\n      0x00\n      add\n      sload\n      swap1\n      dup1\n      0x01\n      add\n      sload\n      swap1\n      pop\n      dup3\n      jump\t// out\n        /* \"contracts/3_Ballot.sol\":1458:1484  address public chairperson */\n    tag_28:\n      0x07\n      0x00\n      swap1\n      sload\n      swap1\n      0x0100\n      exp\n      swap1\n      div\n      0xffffffffffffffffffffffffffffffffffffffff\n      and\n      dup2\n      jump\t// out\n        /* \"contracts/3_Ballot.sol\":3396:3527  function getBallotProposalParams() public view returns (PROPOSALPARAM memory proposalParam) {... */\n    tag_32:\n        /* \"contracts/3_Ballot.sol\":3452:3486  PROPOSALPARAM memory proposalParam */\n      tag_85\n      tag_86\n      jump\t// in\n    tag_85:\n        /* \"contracts/3_Ballot.sol\":3505:3520  _proposalParams */\n      0x04\n        /* \"contracts/3_Ballot.sol\":3498:3520  return _proposalParams */\n      mload(0x40)\n      dup1\n      0x60\n      add\n      0x40\n      mstore\n      swap1\n      dup2\n      0x00\n      dup3\n      add\n      0x00\n      swap1\n      sload\n      swap1\n      0x0100\n      exp\n      swap1\n      div\n      0xffffffffffffffffffffffffffffffffffffffff\n      and\n      0xffffffffffffffffffffffffffffffffffffffff\n      and\n      0xffffffffffffffffffffffffffffffffffffffff\n      and\n      dup2\n      mstore\n      0x20\n      add\n      0x01\n      dup3\n      add\n      0x00\n      swap1\n      sload\n      swap1\n      0x0100\n      exp\n      swap1\n      div\n      0xffffffffffffffffffffffffffffffffffffffff\n      and\n      0xffffffffffffffffffffffffffffffffffffffff\n      and\n      0xffffffffffffffffffffffffffffffffffffffff\n      and\n      dup2\n      mstore\n      0x20\n      add\n      0x02\n      dup3\n      add\n      sload\n      dup2\n      mstore\n      pop\n      pop\n      swap1\n      pop\n        /* \"contracts/3_Ballot.sol\":3396:3527  function getBallotProposalParams() public view returns (PROPOSALPARAM memory proposalParam) {... */\n      swap1\n      jump\t// out\n        /* \"contracts/3_Ballot.sol\":6342:7249  function delegate(address to) public {... */\n    tag_38:\n        /* \"contracts/3_Ballot.sol\":6389:6409  Voter storage sender */\n      0x00\n        /* \"contracts/3_Ballot.sol\":6412:6418  voters */\n      0x09\n        /* \"contracts/3_Ballot.sol\":6412:6430  voters[msg.sender] */\n      0x00\n        /* \"contracts/3_Ballot.sol\":6419:6429  msg.sender */\n      caller\n        /* \"contracts/3_Ballot.sol\":6412:6430  voters[msg.sender] */\n      0xffffffffffffffffffffffffffffffffffffffff\n      and\n      0xffffffffffffffffffffffffffffffffffffffff\n      and\n      dup2\n      mstore\n      0x20\n      add\n      swap1\n      dup2\n      mstore\n      0x20\n      add\n      0x00\n      keccak256\n        /* \"contracts/3_Ballot.sol\":6389:6430  Voter storage sender = voters[msg.sender] */\n      swap1\n      pop\n        /* \"contracts/3_Ballot.sol\":6449:6455  sender */\n      dup1\n        /* \"contracts/3_Ballot.sol\":6449:6461  sender.voted */\n      0x01\n      add\n      0x00\n      swap1\n      sload\n      swap1\n      0x0100\n      exp\n      swap1\n      div\n      0xff\n      and\n        /* \"contracts/3_Ballot.sol\":6448:6461  !sender.voted */\n      iszero\n        /* \"contracts/3_Ballot.sol\":6440:6484  require(!sender.voted, \"You already voted.\") */\n      tag_89\n      jumpi\n      mload(0x40)\n      0x08c379a000000000000000000000000000000000000000000000000000000000\n      dup2\n      mstore\n      0x04\n      add\n      tag_90\n      swap1\n      tag_91\n      jump\t// in\n    tag_90:\n      mload(0x40)\n      dup1\n      swap2\n      sub\n      swap1\n      revert\n    tag_89:\n        /* \"contracts/3_Ballot.sol\":6508:6518  msg.sender */\n      caller\n        /* \"contracts/3_Ballot.sol\":6502:6518  to != msg.sender */\n      0xffffffffffffffffffffffffffffffffffffffff\n      and\n        /* \"contracts/3_Ballot.sol\":6502:6504  to */\n      dup3\n        /* \"contracts/3_Ballot.sol\":6502:6518  to != msg.sender */\n      0xffffffffffffffffffffffffffffffffffffffff\n      and\n      sub\n        /* \"contracts/3_Ballot.sol\":6494:6553  require(to != msg.sender, \"Self-delegation is disallowed.\") */\n      tag_92\n      jumpi\n      mload(0x40)\n      0x08c379a000000000000000000000000000000000000000000000000000000000\n      dup2\n      mstore\n      0x04\n      add\n      tag_93\n      swap1\n      tag_94\n      jump\t// in\n    tag_93:\n      mload(0x40)\n      dup1\n      swap2\n      sub\n      swap1\n      revert\n    tag_92:\n        /* \"contracts/3_Ballot.sol\":6564:6787  while (voters[to].delegate != address(0)) {... */\n    tag_95:\n        /* \"contracts/3_Ballot.sol\":6602:6603  0 */\n      0x00\n        /* \"contracts/3_Ballot.sol\":6571:6604  voters[to].delegate != address(0) */\n      0xffffffffffffffffffffffffffffffffffffffff\n      and\n        /* \"contracts/3_Ballot.sol\":6571:6577  voters */\n      0x09\n        /* \"contracts/3_Ballot.sol\":6571:6581  voters[to] */\n      0x00\n        /* \"contracts/3_Ballot.sol\":6578:6580  to */\n      dup5\n        /* \"contracts/3_Ballot.sol\":6571:6581  voters[to] */\n      0xffffffffffffffffffffffffffffffffffffffff\n      and\n      0xffffffffffffffffffffffffffffffffffffffff\n      and\n      dup2\n      mstore\n      0x20\n      add\n      swap1\n      dup2\n      mstore\n      0x20\n      add\n      0x00\n      keccak256\n        /* \"contracts/3_Ballot.sol\":6571:6590  voters[to].delegate */\n      0x01\n      add\n      0x01\n      swap1\n      sload\n      swap1\n      0x0100\n      exp\n      swap1\n      div\n      0xffffffffffffffffffffffffffffffffffffffff\n      and\n        /* \"contracts/3_Ballot.sol\":6571:6604  voters[to].delegate != address(0) */\n      0xffffffffffffffffffffffffffffffffffffffff\n      and\n      eq\n        /* \"contracts/3_Ballot.sol\":6564:6787  while (voters[to].delegate != address(0)) {... */\n      tag_96\n      jumpi\n        /* \"contracts/3_Ballot.sol\":6625:6631  voters */\n      0x09\n        /* \"contracts/3_Ballot.sol\":6625:6635  voters[to] */\n      0x00\n        /* \"contracts/3_Ballot.sol\":6632:6634  to */\n      dup4\n        /* \"contracts/3_Ballot.sol\":6625:6635  voters[to] */\n      0xffffffffffffffffffffffffffffffffffffffff\n      and\n      0xffffffffffffffffffffffffffffffffffffffff\n      and\n      dup2\n      mstore\n      0x20\n      add\n      swap1\n      dup2\n      mstore\n      0x20\n      add\n      0x00\n      keccak256\n        /* \"contracts/3_Ballot.sol\":6625:6644  voters[to].delegate */\n      0x01\n      add\n      0x01\n      swap1\n      sload\n      swap1\n      0x0100\n      exp\n      swap1\n      div\n      0xffffffffffffffffffffffffffffffffffffffff\n      and\n        /* \"contracts/3_Ballot.sol\":6620:6644  to = voters[to].delegate */\n      swap2\n      pop\n        /* \"contracts/3_Ballot.sol\":6736:6746  msg.sender */\n      caller\n        /* \"contracts/3_Ballot.sol\":6730:6746  to != msg.sender */\n      0xffffffffffffffffffffffffffffffffffffffff\n      and\n        /* \"contracts/3_Ballot.sol\":6730:6732  to */\n      dup3\n        /* \"contracts/3_Ballot.sol\":6730:6746  to != msg.sender */\n      0xffffffffffffffffffffffffffffffffffffffff\n      and\n      sub\n        /* \"contracts/3_Ballot.sol\":6722:6776  require(to != msg.sender, \"Found loop in delegation.\") */\n      tag_97\n      jumpi\n      mload(0x40)\n      0x08c379a000000000000000000000000000000000000000000000000000000000\n      dup2\n      mstore\n      0x04\n      add\n      tag_98\n      swap1\n      tag_99\n      jump\t// in\n    tag_98:\n      mload(0x40)\n      dup1\n      swap2\n      sub\n      swap1\n      revert\n    tag_97:\n        /* \"contracts/3_Ballot.sol\":6564:6787  while (voters[to].delegate != address(0)) {... */\n      jump(tag_95)\n    tag_96:\n        /* \"contracts/3_Ballot.sol\":6811:6815  true */\n      0x01\n        /* \"contracts/3_Ballot.sol\":6796:6802  sender */\n      dup2\n        /* \"contracts/3_Ballot.sol\":6796:6808  sender.voted */\n      0x01\n      add\n      0x00\n        /* \"contracts/3_Ballot.sol\":6796:6815  sender.voted = true */\n      0x0100\n      exp\n      dup2\n      sload\n      dup2\n      0xff\n      mul\n      not\n      and\n      swap1\n      dup4\n      iszero\n      iszero\n      mul\n      or\n      swap1\n      sstore\n      pop\n        /* \"contracts/3_Ballot.sol\":6843:6845  to */\n      dup2\n        /* \"contracts/3_Ballot.sol\":6825:6831  sender */\n      dup2\n        /* \"contracts/3_Ballot.sol\":6825:6840  sender.delegate */\n      0x01\n      add\n      0x01\n        /* \"contracts/3_Ballot.sol\":6825:6845  sender.delegate = to */\n      0x0100\n      exp\n      dup2\n      sload\n      dup2\n      0xffffffffffffffffffffffffffffffffffffffff\n      mul\n      not\n      and\n      swap1\n      dup4\n      0xffffffffffffffffffffffffffffffffffffffff\n      and\n      mul\n      or\n      swap1\n      sstore\n      pop\n        /* \"contracts/3_Ballot.sol\":6855:6878  Voter storage delegate_ */\n      0x00\n        /* \"contracts/3_Ballot.sol\":6881:6887  voters */\n      0x09\n        /* \"contracts/3_Ballot.sol\":6881:6891  voters[to] */\n      0x00\n        /* \"contracts/3_Ballot.sol\":6888:6890  to */\n      dup5\n        /* \"contracts/3_Ballot.sol\":6881:6891  voters[to] */\n      0xffffffffffffffffffffffffffffffffffffffff\n      and\n      0xffffffffffffffffffffffffffffffffffffffff\n      and\n      dup2\n      mstore\n      0x20\n      add\n      swap1\n      dup2\n      mstore\n      0x20\n      add\n      0x00\n      keccak256\n        /* \"contracts/3_Ballot.sol\":6855:6891  Voter storage delegate_ = voters[to] */\n      swap1\n      pop\n        /* \"contracts/3_Ballot.sol\":6905:6914  delegate_ */\n      dup1\n        /* \"contracts/3_Ballot.sol\":6905:6920  delegate_.voted */\n      0x01\n      add\n      0x00\n      swap1\n      sload\n      swap1\n      0x0100\n      exp\n      swap1\n      div\n      0xff\n      and\n        /* \"contracts/3_Ballot.sol\":6901:7243  if (delegate_.voted) {... */\n      iszero\n      tag_100\n      jumpi\n        /* \"contracts/3_Ballot.sol\":7072:7078  sender */\n      dup2\n        /* \"contracts/3_Ballot.sol\":7072:7085  sender.weight */\n      0x00\n      add\n      sload\n        /* \"contracts/3_Ballot.sol\":7033:7042  proposals */\n      0x0a\n        /* \"contracts/3_Ballot.sol\":7043:7052  delegate_ */\n      dup3\n        /* \"contracts/3_Ballot.sol\":7043:7057  delegate_.vote */\n      0x02\n      add\n      sload\n        /* \"contracts/3_Ballot.sol\":7033:7058  proposals[delegate_.vote] */\n      dup2\n      sload\n      dup2\n      lt\n      tag_101\n      jumpi\n      tag_102\n      tag_79\n      jump\t// in\n    tag_102:\n    tag_101:\n      swap1\n      0x00\n      mstore\n      keccak256(0x00, 0x20)\n      swap1\n      0x02\n      mul\n      add\n        /* \"contracts/3_Ballot.sol\":7033:7068  proposals[delegate_.vote].voteCount */\n      0x01\n      add\n      0x00\n        /* \"contracts/3_Ballot.sol\":7033:7085  proposals[delegate_.vote].voteCount += sender.weight */\n      dup3\n      dup3\n      sload\n      tag_104\n      swap2\n      swap1\n      tag_82\n      jump\t// in\n    tag_104:\n      swap3\n      pop\n      pop\n      dup2\n      swap1\n      sstore\n      pop\n        /* \"contracts/3_Ballot.sol\":6901:7243  if (delegate_.voted) {... */\n      jump(tag_105)\n    tag_100:\n        /* \"contracts/3_Ballot.sol\":7219:7225  sender */\n      dup2\n        /* \"contracts/3_Ballot.sol\":7219:7232  sender.weight */\n      0x00\n      add\n      sload\n        /* \"contracts/3_Ballot.sol\":7199:7208  delegate_ */\n      dup2\n        /* \"contracts/3_Ballot.sol\":7199:7215  delegate_.weight */\n      0x00\n      add\n      0x00\n        /* \"contracts/3_Ballot.sol\":7199:7232  delegate_.weight += sender.weight */\n      dup3\n      dup3\n      sload\n      tag_106\n      swap2\n      swap1\n      tag_82\n      jump\t// in\n    tag_106:\n      swap3\n      pop\n      pop\n      dup2\n      swap1\n      sstore\n      pop\n        /* \"contracts/3_Ballot.sol\":6901:7243  if (delegate_.voted) {... */\n    tag_105:\n        /* \"contracts/3_Ballot.sol\":6379:7249  {... */\n      pop\n      pop\n        /* \"contracts/3_Ballot.sol\":6342:7249  function delegate(address to) public {... */\n      pop\n      jump\t// out\n        /* \"contracts/3_Ballot.sol\":5863:6218  function giveRightToVote(address voter) public {... */\n    tag_41:\n        /* \"contracts/3_Ballot.sol\":5955:5966  chairperson */\n      0x07\n      0x00\n      swap1\n      sload\n      swap1\n      0x0100\n      exp\n      swap1\n      div\n      0xffffffffffffffffffffffffffffffffffffffff\n      and\n        /* \"contracts/3_Ballot.sol\":5941:5966  msg.sender == chairperson */\n      0xffffffffffffffffffffffffffffffffffffffff\n      and\n        /* \"contracts/3_Ballot.sol\":5941:5951  msg.sender */\n      caller\n        /* \"contracts/3_Ballot.sol\":5941:5966  msg.sender == chairperson */\n      0xffffffffffffffffffffffffffffffffffffffff\n      and\n      eq\n        /* \"contracts/3_Ballot.sol\":5920:6032  require(... */\n      tag_108\n      jumpi\n      mload(0x40)\n      0x08c379a000000000000000000000000000000000000000000000000000000000\n      dup2\n      mstore\n      0x04\n      add\n      tag_109\n      swap1\n      tag_110\n      jump\t// in\n    tag_109:\n      mload(0x40)\n      dup1\n      swap2\n      sub\n      swap1\n      revert\n    tag_108:\n        /* \"contracts/3_Ballot.sol\":6064:6070  voters */\n      0x09\n        /* \"contracts/3_Ballot.sol\":6064:6077  voters[voter] */\n      0x00\n        /* \"contracts/3_Ballot.sol\":6071:6076  voter */\n      dup3\n        /* \"contracts/3_Ballot.sol\":6064:6077  voters[voter] */\n      0xffffffffffffffffffffffffffffffffffffffff\n      and\n      0xffffffffffffffffffffffffffffffffffffffff\n      and\n      dup2\n      mstore\n      0x20\n      add\n      swap1\n      dup2\n      mstore\n      0x20\n      add\n      0x00\n      keccak256\n        /* \"contracts/3_Ballot.sol\":6064:6083  voters[voter].voted */\n      0x01\n      add\n      0x00\n      swap1\n      sload\n      swap1\n      0x0100\n      exp\n      swap1\n      div\n      0xff\n      and\n        /* \"contracts/3_Ballot.sol\":6063:6083  !voters[voter].voted */\n      iszero\n        /* \"contracts/3_Ballot.sol\":6042:6133  require(... */\n      tag_111\n      jumpi\n      mload(0x40)\n      0x08c379a000000000000000000000000000000000000000000000000000000000\n      dup2\n      mstore\n      0x04\n      add\n      tag_112\n      swap1\n      tag_113\n      jump\t// in\n    tag_112:\n      mload(0x40)\n      dup1\n      swap2\n      sub\n      swap1\n      revert\n    tag_111:\n        /* \"contracts/3_Ballot.sol\":6175:6176  0 */\n      0x00\n        /* \"contracts/3_Ballot.sol\":6151:6157  voters */\n      0x09\n        /* \"contracts/3_Ballot.sol\":6151:6164  voters[voter] */\n      0x00\n        /* \"contracts/3_Ballot.sol\":6158:6163  voter */\n      dup4\n        /* \"contracts/3_Ballot.sol\":6151:6164  voters[voter] */\n      0xffffffffffffffffffffffffffffffffffffffff\n      and\n      0xffffffffffffffffffffffffffffffffffffffff\n      and\n      dup2\n      mstore\n      0x20\n      add\n      swap1\n      dup2\n      mstore\n      0x20\n      add\n      0x00\n      keccak256\n        /* \"contracts/3_Ballot.sol\":6151:6171  voters[voter].weight */\n      0x00\n      add\n      sload\n        /* \"contracts/3_Ballot.sol\":6151:6176  voters[voter].weight == 0 */\n      eq\n        /* \"contracts/3_Ballot.sol\":6143:6177  require(voters[voter].weight == 0) */\n      tag_114\n      jumpi\n      0x00\n      dup1\n      revert\n    tag_114:\n        /* \"contracts/3_Ballot.sol\":6210:6211  1 */\n      0x01\n        /* \"contracts/3_Ballot.sol\":6187:6193  voters */\n      0x09\n        /* \"contracts/3_Ballot.sol\":6187:6200  voters[voter] */\n      0x00\n        /* \"contracts/3_Ballot.sol\":6194:6199  voter */\n      dup4\n        /* \"contracts/3_Ballot.sol\":6187:6200  voters[voter] */\n      0xffffffffffffffffffffffffffffffffffffffff\n      and\n      0xffffffffffffffffffffffffffffffffffffffff\n      and\n      dup2\n      mstore\n      0x20\n      add\n      swap1\n      dup2\n      mstore\n      0x20\n      add\n      0x00\n      keccak256\n        /* \"contracts/3_Ballot.sol\":6187:6207  voters[voter].weight */\n      0x00\n      add\n        /* \"contracts/3_Ballot.sol\":6187:6211  voters[voter].weight = 1 */\n      dup2\n      swap1\n      sstore\n      pop\n        /* \"contracts/3_Ballot.sol\":5863:6218  function giveRightToVote(address voter) public {... */\n      pop\n      jump\t// out\n        /* \"contracts/3_Ballot.sol\":1572:1611  mapping(address => Voter) public voters */\n    tag_44:\n      mstore(0x20, 0x09)\n      dup1\n      0x00\n      mstore\n      keccak256(0x00, 0x40)\n      0x00\n      swap2\n      pop\n      swap1\n      pop\n      dup1\n      0x00\n      add\n      sload\n      swap1\n      dup1\n      0x01\n      add\n      0x00\n      swap1\n      sload\n      swap1\n      0x0100\n      exp\n      swap1\n      div\n      0xff\n      and\n      swap1\n      dup1\n      0x01\n      add\n      0x01\n      swap1\n      sload\n      swap1\n      0x0100\n      exp\n      swap1\n      div\n      0xffffffffffffffffffffffffffffffffffffffff\n      and\n      swap1\n      dup1\n      0x02\n      add\n      sload\n      swap1\n      pop\n      dup5\n      jump\t// out\n        /* \"contracts/3_Ballot.sol\":3533:3657  function getBalootVotingParams() public view returns (VOTINGPARAM memory VotingParam_) {... */\n    tag_48:\n        /* \"contracts/3_Ballot.sol\":3587:3618  VOTINGPARAM memory VotingParam_ */\n      tag_115\n      tag_116\n      jump\t// in\n    tag_115:\n        /* \"contracts/3_Ballot.sol\":3637:3650  _votingParams */\n      0x00\n        /* \"contracts/3_Ballot.sol\":3630:3650  return _votingParams */\n      mload(0x40)\n      dup1\n      0x80\n      add\n      0x40\n      mstore\n      swap1\n      dup2\n      0x00\n      dup3\n      add\n      0x00\n      swap1\n      sload\n      swap1\n      0x0100\n      exp\n      swap1\n      div\n      0xffff\n      and\n      0xffff\n      and\n      0xffff\n      and\n      dup2\n      mstore\n      0x20\n      add\n      0x00\n      dup3\n      add\n      0x02\n      swap1\n      sload\n      swap1\n      0x0100\n      exp\n      swap1\n      div\n      0xffffffff\n      and\n      0xffffffff\n      and\n      0xffffffff\n      and\n      dup2\n      mstore\n      0x20\n      add\n      0x00\n      dup3\n      add\n      0x06\n      swap1\n      sload\n      swap1\n      0x0100\n      exp\n      swap1\n      div\n      0xffffffffffff\n      and\n      0xffffffffffff\n      and\n      0xffffffffffff\n      and\n      dup2\n      mstore\n      0x20\n      add\n      0x00\n      dup3\n      add\n      0x0c\n      swap1\n      sload\n      swap1\n      0x0100\n      exp\n      swap1\n      div\n      0xffffffffffff\n      and\n      0xffffffffffff\n      and\n      0xffffffffffff\n      and\n      dup2\n      mstore\n      pop\n      pop\n      swap1\n      pop\n        /* \"contracts/3_Ballot.sol\":3533:3657  function getBalootVotingParams() public view returns (VOTINGPARAM memory VotingParam_) {... */\n      swap1\n      jump\t// out\n        /* \"contracts/3_Ballot.sol\":3264:3390  function getBallotCallDataParams() public view returns (CALLDATAPARAM memory callData_) {... */\n    tag_52:\n        /* \"contracts/3_Ballot.sol\":3320:3350  CALLDATAPARAM memory callData_ */\n      tag_118\n      tag_119\n      jump\t// in\n    tag_118:\n        /* \"contracts/3_Ballot.sol\":3369:3383  _callDataParam */\n      0x01\n        /* \"contracts/3_Ballot.sol\":3362:3383  return _callDataParam */\n      mload(0x40)\n      dup1\n      0x60\n      add\n      0x40\n      mstore\n      swap1\n      dup2\n      0x00\n      dup3\n      add\n      dup1\n      sload\n      tag_121\n      swap1\n      tag_122\n      jump\t// in\n    tag_121:\n      dup1\n      0x1f\n      add\n      0x20\n      dup1\n      swap2\n      div\n      mul\n      0x20\n      add\n      mload(0x40)\n      swap1\n      dup2\n      add\n      0x40\n      mstore\n      dup1\n      swap3\n      swap2\n      swap1\n      dup2\n      dup2\n      mstore\n      0x20\n      add\n      dup3\n      dup1\n      sload\n      tag_123\n      swap1\n      tag_122\n      jump\t// in\n    tag_123:\n      dup1\n      iszero\n      tag_124\n      jumpi\n      dup1\n      0x1f\n      lt\n      tag_125\n      jumpi\n      0x0100\n      dup1\n      dup4\n      sload\n      div\n      mul\n      dup4\n      mstore\n      swap2\n      0x20\n      add\n      swap2\n      jump(tag_124)\n    tag_125:\n      dup3\n      add\n      swap2\n      swap1\n      0x00\n      mstore\n      keccak256(0x00, 0x20)\n      swap1\n    tag_126:\n      dup2\n      sload\n      dup2\n      mstore\n      swap1\n      0x01\n      add\n      swap1\n      0x20\n      add\n      dup1\n      dup4\n      gt\n      tag_126\n      jumpi\n      dup3\n      swap1\n      sub\n      0x1f\n      and\n      dup3\n      add\n      swap2\n    tag_124:\n      pop\n      pop\n      pop\n      pop\n      pop\n      dup2\n      mstore\n      0x20\n      add\n      0x01\n      dup3\n      add\n      sload\n      dup2\n      mstore\n      0x20\n      add\n      0x02\n      dup3\n      add\n      0x00\n      swap1\n      sload\n      swap1\n      0x0100\n      exp\n      swap1\n      div\n      0xffffffffffffffffffffffffffffffffffffffff\n      and\n      0xffffffffffffffffffffffffffffffffffffffff\n      and\n      0xffffffffffffffffffffffffffffffffffffffff\n      and\n      dup2\n      mstore\n      pop\n      pop\n      swap1\n      pop\n        /* \"contracts/3_Ballot.sol\":3264:3390  function getBallotCallDataParams() public view returns (CALLDATAPARAM memory callData_) {... */\n      swap1\n      jump\t// out\n        /* \"contracts/3_Ballot.sol\":8081:8451  function voteCountProposal() public view... */\n    tag_56:\n        /* \"contracts/3_Ballot.sol\":8143:8167  uint256 winningProposal_ */\n      0x00\n        /* \"contracts/3_Ballot.sol\":8183:8204  uint winningVoteCount */\n      dup1\n        /* \"contracts/3_Ballot.sol\":8207:8208  0 */\n      0x00\n        /* \"contracts/3_Ballot.sol\":8183:8208  uint winningVoteCount = 0 */\n      swap1\n      pop\n        /* \"contracts/3_Ballot.sol\":8223:8229  uint p */\n      0x00\n        /* \"contracts/3_Ballot.sol\":8218:8445  for (uint p = 0; p < proposals.length; p++) {... */\n    tag_128:\n        /* \"contracts/3_Ballot.sol\":8239:8248  proposals */\n      0x0a\n        /* \"contracts/3_Ballot.sol\":8239:8255  proposals.length */\n      dup1\n      sload\n      swap1\n      pop\n        /* \"contracts/3_Ballot.sol\":8235:8236  p */\n      dup2\n        /* \"contracts/3_Ballot.sol\":8235:8255  p < proposals.length */\n      lt\n        /* \"contracts/3_Ballot.sol\":8218:8445  for (uint p = 0; p < proposals.length; p++) {... */\n      iszero\n      tag_129\n      jumpi\n        /* \"contracts/3_Ballot.sol\":8305:8321  winningVoteCount */\n      dup2\n        /* \"contracts/3_Ballot.sol\":8280:8289  proposals */\n      0x0a\n        /* \"contracts/3_Ballot.sol\":8290:8291  p */\n      dup3\n        /* \"contracts/3_Ballot.sol\":8280:8292  proposals[p] */\n      dup2\n      sload\n      dup2\n      lt\n      tag_131\n      jumpi\n      tag_132\n      tag_79\n      jump\t// in\n    tag_132:\n    tag_131:\n      swap1\n      0x00\n      mstore\n      keccak256(0x00, 0x20)\n      swap1\n      0x02\n      mul\n      add\n        /* \"contracts/3_Ballot.sol\":8280:8302  proposals[p].voteCount */\n      0x01\n      add\n      sload\n        /* \"contracts/3_Ballot.sol\":8280:8321  proposals[p].voteCount > winningVoteCount */\n      gt\n        /* \"contracts/3_Ballot.sol\":8276:8435  if (proposals[p].voteCount > winningVoteCount) {... */\n      iszero\n      tag_134\n      jumpi\n        /* \"contracts/3_Ballot.sol\":8360:8369  proposals */\n      0x0a\n        /* \"contracts/3_Ballot.sol\":8370:8371  p */\n      dup2\n        /* \"contracts/3_Ballot.sol\":8360:8372  proposals[p] */\n      dup2\n      sload\n      dup2\n      lt\n      tag_135\n      jumpi\n      tag_136\n      tag_79\n      jump\t// in\n    tag_136:\n    tag_135:\n      swap1\n      0x00\n      mstore\n      keccak256(0x00, 0x20)\n      swap1\n      0x02\n      mul\n      add\n        /* \"contracts/3_Ballot.sol\":8360:8382  proposals[p].voteCount */\n      0x01\n      add\n      sload\n        /* \"contracts/3_Ballot.sol\":8341:8382  winningVoteCount = proposals[p].voteCount */\n      swap2\n      pop\n        /* \"contracts/3_Ballot.sol\":8419:8420  p */\n      dup1\n        /* \"contracts/3_Ballot.sol\":8400:8420  winningProposal_ = p */\n      swap3\n      pop\n        /* \"contracts/3_Ballot.sol\":8276:8435  if (proposals[p].voteCount > winningVoteCount) {... */\n    tag_134:\n        /* \"contracts/3_Ballot.sol\":8257:8260  p++ */\n      dup1\n      dup1\n      tag_138\n      swap1\n      tag_139\n      jump\t// in\n    tag_138:\n      swap2\n      pop\n      pop\n        /* \"contracts/3_Ballot.sol\":8218:8445  for (uint p = 0; p < proposals.length; p++) {... */\n      jump(tag_128)\n    tag_129:\n      pop\n        /* \"contracts/3_Ballot.sol\":8173:8451  {... */\n      pop\n        /* \"contracts/3_Ballot.sol\":8081:8451  function voteCountProposal() public view... */\n      swap1\n      jump\t// out\n        /* \"contracts/3_Ballot.sol\":8642:8788  function winnerName() public view... */\n    tag_60:\n        /* \"contracts/3_Ballot.sol\":8697:8716  bytes32 winnerName_ */\n      0x00\n        /* \"contracts/3_Ballot.sol\":8746:8755  proposals */\n      0x0a\n        /* \"contracts/3_Ballot.sol\":8756:8775  voteCountProposal() */\n      tag_141\n        /* \"contracts/3_Ballot.sol\":8756:8773  voteCountProposal */\n      tag_56\n        /* \"contracts/3_Ballot.sol\":8756:8775  voteCountProposal() */\n      jump\t// in\n    tag_141:\n        /* \"contracts/3_Ballot.sol\":8746:8776  proposals[voteCountProposal()] */\n      dup2\n      sload\n      dup2\n      lt\n      tag_142\n      jumpi\n      tag_143\n      tag_79\n      jump\t// in\n    tag_143:\n    tag_142:\n      swap1\n      0x00\n      mstore\n      keccak256(0x00, 0x20)\n      swap1\n      0x02\n      mul\n      add\n        /* \"contracts/3_Ballot.sol\":8746:8781  proposals[voteCountProposal()].name */\n      0x00\n      add\n      sload\n        /* \"contracts/3_Ballot.sol\":8732:8781  winnerName_ = proposals[voteCountProposal()].name */\n      swap1\n      pop\n        /* \"contracts/3_Ballot.sol\":8642:8788  function winnerName() public view... */\n      swap1\n      jump\t// out\n        /* \"contracts/3_Ballot.sol\":3828:4060  function getBallotProposalId() public view returns (uint256 proposalId) {... */\n    tag_64:\n        /* \"contracts/3_Ballot.sol\":3880:3898  uint256 proposalId */\n      0x00\n        /* \"contracts/3_Ballot.sol\":3952:3967  _proposalParams */\n      0x04\n        /* \"contracts/3_Ballot.sol\":3952:3974  _proposalParams.target */\n      0x00\n      add\n      0x00\n      swap1\n      sload\n      swap1\n      0x0100\n      exp\n      swap1\n      div\n      0xffffffffffffffffffffffffffffffffffffffff\n      and\n        /* \"contracts/3_Ballot.sol\":3976:3991  _proposalParams */\n      0x04\n        /* \"contracts/3_Ballot.sol\":3976:3997  _proposalParams.value */\n      0x02\n      add\n      sload\n        /* \"contracts/3_Ballot.sol\":3999:4018  getBallotCallData() */\n      tag_146\n        /* \"contracts/3_Ballot.sol\":3999:4016  getBallotCallData */\n      tag_67\n        /* \"contracts/3_Ballot.sol\":3999:4018  getBallotCallData() */\n      jump\t// in\n    tag_146:\n        /* \"contracts/3_Ballot.sol\":4020:4034  _callDataParam */\n      0x01\n        /* \"contracts/3_Ballot.sol\":4020:4050  _callDataParam.descriptionHash */\n      dup1\n      add\n      sload\n        /* \"contracts/3_Ballot.sol\":3941:4051  abi.encode(_proposalParams.target, _proposalParams.value, getBallotCallData(), _callDataParam.descriptionHash) */\n      add(0x20, mload(0x40))\n      tag_147\n      swap5\n      swap4\n      swap3\n      swap2\n      swap1\n      tag_148\n      jump\t// in\n    tag_147:\n      mload(0x40)\n      0x20\n      dup2\n      dup4\n      sub\n      sub\n      dup2\n      mstore\n      swap1\n      0x40\n      mstore\n        /* \"contracts/3_Ballot.sol\":3931:4052  keccak256(abi.encode(_proposalParams.target, _proposalParams.value, getBallotCallData(), _callDataParam.descriptionHash)) */\n      dup1\n      mload\n      swap1\n      0x20\n      add\n      keccak256\n        /* \"contracts/3_Ballot.sol\":3923:4053  uint256(keccak256(abi.encode(_proposalParams.target, _proposalParams.value, getBallotCallData(), _callDataParam.descriptionHash))) */\n      0x00\n      shr\n        /* \"contracts/3_Ballot.sol\":3910:4053  proposalId = uint256(keccak256(abi.encode(_proposalParams.target, _proposalParams.value, getBallotCallData(), _callDataParam.descriptionHash))) */\n      swap1\n      pop\n        /* \"contracts/3_Ballot.sol\":3828:4060  function getBallotProposalId() public view returns (uint256 proposalId) {... */\n      swap1\n      jump\t// out\n        /* \"contracts/3_Ballot.sol\":3663:3822  function getBallotCallData() public view virtual  returns (bytes memory callData) {... */\n    tag_67:\n        /* \"contracts/3_Ballot.sol\":3722:3743  bytes memory callData */\n      0x60\n        /* \"contracts/3_Ballot.sol\":3790:3804  _callDataParam */\n      0x01\n        /* \"contracts/3_Ballot.sol\":3790:3814  _callDataParam.signature */\n      0x00\n      add\n        /* \"contracts/3_Ballot.sol\":3766:3815  abi.encodeWithSignature(_callDataParam.signature) */\n      add(0x24, mload(0x40))\n      mload(0x40)\n      0x20\n      dup2\n      dup4\n      sub\n      sub\n      dup2\n      mstore\n      swap1\n      0x40\n      mstore\n      swap1\n      mload(0x40)\n      tag_150\n      swap2\n      swap1\n      tag_151\n      jump\t// in\n    tag_150:\n      mload(0x40)\n      dup1\n      swap2\n      sub\n      swap1\n      keccak256\n      not(0xffffffffffffffffffffffffffffffffffffffffffffffffffffffff)\n      and\n      0x20\n      dup3\n      add\n      dup1\n      mload\n      0xffffffffffffffffffffffffffffffffffffffffffffffffffffffff\n      dup4\n      dup2\n      dup4\n      and\n      or\n      dup4\n      mstore\n      pop\n      pop\n      pop\n      pop\n        /* \"contracts/3_Ballot.sol\":3755:3815  callData = abi.encodeWithSignature(_callDataParam.signature) */\n      swap1\n      pop\n        /* \"contracts/3_Ballot.sol\":3663:3822  function getBallotCallData() public view virtual  returns (bytes memory callData) {... */\n      swap1\n      jump\t// out\n    tag_86:\n      mload(0x40)\n      dup1\n      0x60\n      add\n      0x40\n      mstore\n      dup1\n      and(0xffffffffffffffffffffffffffffffffffffffff, 0x00)\n      dup2\n      mstore\n      0x20\n      add\n      and(0xffffffffffffffffffffffffffffffffffffffff, 0x00)\n      dup2\n      mstore\n      0x20\n      add\n      0x00\n      dup2\n      mstore\n      pop\n      swap1\n      jump\t// out\n    tag_116:\n      mload(0x40)\n      dup1\n      0x80\n      add\n      0x40\n      mstore\n      dup1\n      and(0xffff, 0x00)\n      dup2\n      mstore\n      0x20\n      add\n      and(0xffffffff, 0x00)\n      dup2\n      mstore\n      0x20\n      add\n      and(0xffffffffffff, 0x00)\n      dup2\n      mstore\n      0x20\n      add\n      and(0xffffffffffff, 0x00)\n      dup2\n      mstore\n      pop\n      swap1\n      jump\t// out\n    tag_119:\n      mload(0x40)\n      dup1\n      0x60\n      add\n      0x40\n      mstore\n      dup1\n      0x60\n      dup2\n      mstore\n      0x20\n      add\n      0x00\n      dup1\n      not\n      and\n      dup2\n      mstore\n      0x20\n      add\n      and(0xffffffffffffffffffffffffffffffffffffffff, 0x00)\n      dup2\n      mstore\n      pop\n      swap1\n      jump\t// out\n        /* \"#utility.yul\":88:205   */\n    tag_153:\n        /* \"#utility.yul\":197:198   */\n      0x00\n        /* \"#utility.yul\":194:195   */\n      dup1\n        /* \"#utility.yul\":187:199   */\n      revert\n        /* \"#utility.yul\":334:411   */\n    tag_155:\n        /* \"#utility.yul\":371:378   */\n      0x00\n        /* \"#utility.yul\":400:405   */\n      dup2\n        /* \"#utility.yul\":389:405   */\n      swap1\n      pop\n        /* \"#utility.yul\":334:411   */\n      swap2\n      swap1\n      pop\n      jump\t// out\n        /* \"#utility.yul\":417:539   */\n    tag_156:\n        /* \"#utility.yul\":490:514   */\n      tag_214\n        /* \"#utility.yul\":508:513   */\n      dup2\n        /* \"#utility.yul\":490:514   */\n      tag_155\n      jump\t// in\n    tag_214:\n        /* \"#utility.yul\":483:488   */\n      dup2\n        /* \"#utility.yul\":480:515   */\n      eq\n        /* \"#utility.yul\":470:533   */\n      tag_215\n      jumpi\n        /* \"#utility.yul\":529:530   */\n      0x00\n        /* \"#utility.yul\":526:527   */\n      dup1\n        /* \"#utility.yul\":519:531   */\n      revert\n        /* \"#utility.yul\":470:533   */\n    tag_215:\n        /* \"#utility.yul\":417:539   */\n      pop\n      jump\t// out\n        /* \"#utility.yul\":545:684   */\n    tag_157:\n        /* \"#utility.yul\":591:596   */\n      0x00\n        /* \"#utility.yul\":629:635   */\n      dup2\n        /* \"#utility.yul\":616:636   */\n      calldataload\n        /* \"#utility.yul\":607:636   */\n      swap1\n      pop\n        /* \"#utility.yul\":645:678   */\n      tag_217\n        /* \"#utility.yul\":672:677   */\n      dup2\n        /* \"#utility.yul\":645:678   */\n      tag_156\n      jump\t// in\n    tag_217:\n        /* \"#utility.yul\":545:684   */\n      swap3\n      swap2\n      pop\n      pop\n      jump\t// out\n        /* \"#utility.yul\":690:1019   */\n    tag_20:\n        /* \"#utility.yul\":749:755   */\n      0x00\n        /* \"#utility.yul\":798:800   */\n      0x20\n        /* \"#utility.yul\":786:795   */\n      dup3\n        /* \"#utility.yul\":777:784   */\n      dup5\n        /* \"#utility.yul\":773:796   */\n      sub\n        /* \"#utility.yul\":769:801   */\n      slt\n        /* \"#utility.yul\":766:885   */\n      iszero\n      tag_219\n      jumpi\n        /* \"#utility.yul\":804:883   */\n      tag_220\n      tag_153\n      jump\t// in\n    tag_220:\n        /* \"#utility.yul\":766:885   */\n    tag_219:\n        /* \"#utility.yul\":924:925   */\n      0x00\n        /* \"#utility.yul\":949:1002   */\n      tag_221\n        /* \"#utility.yul\":994:1001   */\n      dup5\n        /* \"#utility.yul\":985:991   */\n      dup3\n        /* \"#utility.yul\":974:983   */\n      dup6\n        /* \"#utility.yul\":970:992   */\n      add\n        /* \"#utility.yul\":949:1002   */\n      tag_157\n      jump\t// in\n    tag_221:\n        /* \"#utility.yul\":939:1002   */\n      swap2\n      pop\n        /* \"#utility.yul\":895:1012   */\n      pop\n        /* \"#utility.yul\":690:1019   */\n      swap3\n      swap2\n      pop\n      pop\n      jump\t// out\n        /* \"#utility.yul\":1025:1102   */\n    tag_158:\n        /* \"#utility.yul\":1062:1069   */\n      0x00\n        /* \"#utility.yul\":1091:1096   */\n      dup2\n        /* \"#utility.yul\":1080:1096   */\n      swap1\n      pop\n        /* \"#utility.yul\":1025:1102   */\n      swap2\n      swap1\n      pop\n      jump\t// out\n        /* \"#utility.yul\":1108:1226   */\n    tag_159:\n        /* \"#utility.yul\":1195:1219   */\n      tag_224\n        /* \"#utility.yul\":1213:1218   */\n      dup2\n        /* \"#utility.yul\":1195:1219   */\n      tag_158\n      jump\t// in\n    tag_224:\n        /* \"#utility.yul\":1190:1193   */\n      dup3\n        /* \"#utility.yul\":1183:1220   */\n      mstore\n        /* \"#utility.yul\":1108:1226   */\n      pop\n      pop\n      jump\t// out\n        /* \"#utility.yul\":1232:1350   */\n    tag_160:\n        /* \"#utility.yul\":1319:1343   */\n      tag_226\n        /* \"#utility.yul\":1337:1342   */\n      dup2\n        /* \"#utility.yul\":1319:1343   */\n      tag_155\n      jump\t// in\n    tag_226:\n        /* \"#utility.yul\":1314:1317   */\n      dup3\n        /* \"#utility.yul\":1307:1344   */\n      mstore\n        /* \"#utility.yul\":1232:1350   */\n      pop\n      pop\n      jump\t// out\n        /* \"#utility.yul\":1356:1688   */\n    tag_26:\n        /* \"#utility.yul\":1477:1481   */\n      0x00\n        /* \"#utility.yul\":1515:1517   */\n      0x40\n        /* \"#utility.yul\":1504:1513   */\n      dup3\n        /* \"#utility.yul\":1500:1518   */\n      add\n        /* \"#utility.yul\":1492:1518   */\n      swap1\n      pop\n        /* \"#utility.yul\":1528:1599   */\n      tag_228\n        /* \"#utility.yul\":1596:1597   */\n      0x00\n        /* \"#utility.yul\":1585:1594   */\n      dup4\n        /* \"#utility.yul\":1581:1598   */\n      add\n        /* \"#utility.yul\":1572:1578   */\n      dup6\n        /* \"#utility.yul\":1528:1599   */\n      tag_159\n      jump\t// in\n    tag_228:\n        /* \"#utility.yul\":1609:1681   */\n      tag_229\n        /* \"#utility.yul\":1677:1679   */\n      0x20\n        /* \"#utility.yul\":1666:1675   */\n      dup4\n        /* \"#utility.yul\":1662:1680   */\n      add\n        /* \"#utility.yul\":1653:1659   */\n      dup5\n        /* \"#utility.yul\":1609:1681   */\n      tag_160\n      jump\t// in\n    tag_229:\n        /* \"#utility.yul\":1356:1688   */\n      swap4\n      swap3\n      pop\n      pop\n      pop\n      jump\t// out\n        /* \"#utility.yul\":1694:1820   */\n    tag_161:\n        /* \"#utility.yul\":1731:1738   */\n      0x00\n        /* \"#utility.yul\":1771:1813   */\n      0xffffffffffffffffffffffffffffffffffffffff\n        /* \"#utility.yul\":1764:1769   */\n      dup3\n        /* \"#utility.yul\":1760:1814   */\n      and\n        /* \"#utility.yul\":1749:1814   */\n      swap1\n      pop\n        /* \"#utility.yul\":1694:1820   */\n      swap2\n      swap1\n      pop\n      jump\t// out\n        /* \"#utility.yul\":1826:1922   */\n    tag_162:\n        /* \"#utility.yul\":1863:1870   */\n      0x00\n        /* \"#utility.yul\":1892:1916   */\n      tag_232\n        /* \"#utility.yul\":1910:1915   */\n      dup3\n        /* \"#utility.yul\":1892:1916   */\n      tag_161\n      jump\t// in\n    tag_232:\n        /* \"#utility.yul\":1881:1916   */\n      swap1\n      pop\n        /* \"#utility.yul\":1826:1922   */\n      swap2\n      swap1\n      pop\n      jump\t// out\n        /* \"#utility.yul\":1928:2046   */\n    tag_163:\n        /* \"#utility.yul\":2015:2039   */\n      tag_234\n        /* \"#utility.yul\":2033:2038   */\n      dup2\n        /* \"#utility.yul\":2015:2039   */\n      tag_162\n      jump\t// in\n    tag_234:\n        /* \"#utility.yul\":2010:2013   */\n      dup3\n        /* \"#utility.yul\":2003:2040   */\n      mstore\n        /* \"#utility.yul\":1928:2046   */\n      pop\n      pop\n      jump\t// out\n        /* \"#utility.yul\":2052:2274   */\n    tag_30:\n        /* \"#utility.yul\":2145:2149   */\n      0x00\n        /* \"#utility.yul\":2183:2185   */\n      0x20\n        /* \"#utility.yul\":2172:2181   */\n      dup3\n        /* \"#utility.yul\":2168:2186   */\n      add\n        /* \"#utility.yul\":2160:2186   */\n      swap1\n      pop\n        /* \"#utility.yul\":2196:2267   */\n      tag_236\n        /* \"#utility.yul\":2264:2265   */\n      0x00\n        /* \"#utility.yul\":2253:2262   */\n      dup4\n        /* \"#utility.yul\":2249:2266   */\n      add\n        /* \"#utility.yul\":2240:2246   */\n      dup5\n        /* \"#utility.yul\":2196:2267   */\n      tag_163\n      jump\t// in\n    tag_236:\n        /* \"#utility.yul\":2052:2274   */\n      swap3\n      swap2\n      pop\n      pop\n      jump\t// out\n        /* \"#utility.yul\":2280:2388   */\n    tag_164:\n        /* \"#utility.yul\":2357:2381   */\n      tag_238\n        /* \"#utility.yul\":2375:2380   */\n      dup2\n        /* \"#utility.yul\":2357:2381   */\n      tag_162\n      jump\t// in\n    tag_238:\n        /* \"#utility.yul\":2352:2355   */\n      dup3\n        /* \"#utility.yul\":2345:2382   */\n      mstore\n        /* \"#utility.yul\":2280:2388   */\n      pop\n      pop\n      jump\t// out\n        /* \"#utility.yul\":2394:2502   */\n    tag_165:\n        /* \"#utility.yul\":2471:2495   */\n      tag_240\n        /* \"#utility.yul\":2489:2494   */\n      dup2\n        /* \"#utility.yul\":2471:2495   */\n      tag_155\n      jump\t// in\n    tag_240:\n        /* \"#utility.yul\":2466:2469   */\n      dup3\n        /* \"#utility.yul\":2459:2496   */\n      mstore\n        /* \"#utility.yul\":2394:2502   */\n      pop\n      pop\n      jump\t// out\n        /* \"#utility.yul\":2580:3276   */\n    tag_166:\n        /* \"#utility.yul\":2735:2739   */\n      0x60\n        /* \"#utility.yul\":2730:2733   */\n      dup3\n        /* \"#utility.yul\":2726:2740   */\n      add\n        /* \"#utility.yul\":2824:2828   */\n      0x00\n        /* \"#utility.yul\":2817:2822   */\n      dup3\n        /* \"#utility.yul\":2813:2829   */\n      add\n        /* \"#utility.yul\":2807:2830   */\n      mload\n        /* \"#utility.yul\":2843:2906   */\n      tag_242\n        /* \"#utility.yul\":2900:2904   */\n      0x00\n        /* \"#utility.yul\":2895:2898   */\n      dup6\n        /* \"#utility.yul\":2891:2905   */\n      add\n        /* \"#utility.yul\":2877:2889   */\n      dup3\n        /* \"#utility.yul\":2843:2906   */\n      tag_164\n      jump\t// in\n    tag_242:\n        /* \"#utility.yul\":2750:2916   */\n      pop\n        /* \"#utility.yul\":3002:3006   */\n      0x20\n        /* \"#utility.yul\":2995:3000   */\n      dup3\n        /* \"#utility.yul\":2991:3007   */\n      add\n        /* \"#utility.yul\":2985:3008   */\n      mload\n        /* \"#utility.yul\":3021:3084   */\n      tag_243\n        /* \"#utility.yul\":3078:3082   */\n      0x20\n        /* \"#utility.yul\":3073:3076   */\n      dup6\n        /* \"#utility.yul\":3069:3083   */\n      add\n        /* \"#utility.yul\":3055:3067   */\n      dup3\n        /* \"#utility.yul\":3021:3084   */\n      tag_164\n      jump\t// in\n    tag_243:\n        /* \"#utility.yul\":2926:3094   */\n      pop\n        /* \"#utility.yul\":3177:3181   */\n      0x40\n        /* \"#utility.yul\":3170:3175   */\n      dup3\n        /* \"#utility.yul\":3166:3182   */\n      add\n        /* \"#utility.yul\":3160:3183   */\n      mload\n        /* \"#utility.yul\":3196:3259   */\n      tag_244\n        /* \"#utility.yul\":3253:3257   */\n      0x40\n        /* \"#utility.yul\":3248:3251   */\n      dup6\n        /* \"#utility.yul\":3244:3258   */\n      add\n        /* \"#utility.yul\":3230:3242   */\n      dup3\n        /* \"#utility.yul\":3196:3259   */\n      tag_165\n      jump\t// in\n    tag_244:\n        /* \"#utility.yul\":3104:3269   */\n      pop\n        /* \"#utility.yul\":2704:3276   */\n      pop\n        /* \"#utility.yul\":2580:3276   */\n      pop\n      pop\n      jump\t// out\n        /* \"#utility.yul\":3282:3620   */\n    tag_34:\n        /* \"#utility.yul\":3433:3437   */\n      0x00\n        /* \"#utility.yul\":3471:3473   */\n      0x60\n        /* \"#utility.yul\":3460:3469   */\n      dup3\n        /* \"#utility.yul\":3456:3474   */\n      add\n        /* \"#utility.yul\":3448:3474   */\n      swap1\n      pop\n        /* \"#utility.yul\":3484:3613   */\n      tag_246\n        /* \"#utility.yul\":3610:3611   */\n      0x00\n        /* \"#utility.yul\":3599:3608   */\n      dup4\n        /* \"#utility.yul\":3595:3612   */\n      add\n        /* \"#utility.yul\":3586:3592   */\n      dup5\n        /* \"#utility.yul\":3484:3613   */\n      tag_166\n      jump\t// in\n    tag_246:\n        /* \"#utility.yul\":3282:3620   */\n      swap3\n      swap2\n      pop\n      pop\n      jump\t// out\n        /* \"#utility.yul\":3626:3748   */\n    tag_167:\n        /* \"#utility.yul\":3699:3723   */\n      tag_248\n        /* \"#utility.yul\":3717:3722   */\n      dup2\n        /* \"#utility.yul\":3699:3723   */\n      tag_162\n      jump\t// in\n    tag_248:\n        /* \"#utility.yul\":3692:3697   */\n      dup2\n        /* \"#utility.yul\":3689:3724   */\n      eq\n        /* \"#utility.yul\":3679:3742   */\n      tag_249\n      jumpi\n        /* \"#utility.yul\":3738:3739   */\n      0x00\n        /* \"#utility.yul\":3735:3736   */\n      dup1\n        /* \"#utility.yul\":3728:3740   */\n      revert\n        /* \"#utility.yul\":3679:3742   */\n    tag_249:\n        /* \"#utility.yul\":3626:3748   */\n      pop\n      jump\t// out\n        /* \"#utility.yul\":3754:3893   */\n    tag_168:\n        /* \"#utility.yul\":3800:3805   */\n      0x00\n        /* \"#utility.yul\":3838:3844   */\n      dup2\n        /* \"#utility.yul\":3825:3845   */\n      calldataload\n        /* \"#utility.yul\":3816:3845   */\n      swap1\n      pop\n        /* \"#utility.yul\":3854:3887   */\n      tag_251\n        /* \"#utility.yul\":3881:3886   */\n      dup2\n        /* \"#utility.yul\":3854:3887   */\n      tag_167\n      jump\t// in\n    tag_251:\n        /* \"#utility.yul\":3754:3893   */\n      swap3\n      swap2\n      pop\n      pop\n      jump\t// out\n        /* \"#utility.yul\":3899:4228   */\n    tag_37:\n        /* \"#utility.yul\":3958:3964   */\n      0x00\n        /* \"#utility.yul\":4007:4009   */\n      0x20\n        /* \"#utility.yul\":3995:4004   */\n      dup3\n        /* \"#utility.yul\":3986:3993   */\n      dup5\n        /* \"#utility.yul\":3982:4005   */\n      sub\n        /* \"#utility.yul\":3978:4010   */\n      slt\n        /* \"#utility.yul\":3975:4094   */\n      iszero\n      tag_253\n      jumpi\n        /* \"#utility.yul\":4013:4092   */\n      tag_254\n      tag_153\n      jump\t// in\n    tag_254:\n        /* \"#utility.yul\":3975:4094   */\n    tag_253:\n        /* \"#utility.yul\":4133:4134   */\n      0x00\n        /* \"#utility.yul\":4158:4211   */\n      tag_255\n        /* \"#utility.yul\":4203:4210   */\n      dup5\n        /* \"#utility.yul\":4194:4200   */\n      dup3\n        /* \"#utility.yul\":4183:4192   */\n      dup6\n        /* \"#utility.yul\":4179:4201   */\n      add\n        /* \"#utility.yul\":4158:4211   */\n      tag_168\n      jump\t// in\n    tag_255:\n        /* \"#utility.yul\":4148:4211   */\n      swap2\n      pop\n        /* \"#utility.yul\":4104:4221   */\n      pop\n        /* \"#utility.yul\":3899:4228   */\n      swap3\n      swap2\n      pop\n      pop\n      jump\t// out\n        /* \"#utility.yul\":4234:4324   */\n    tag_169:\n        /* \"#utility.yul\":4268:4275   */\n      0x00\n        /* \"#utility.yul\":4311:4316   */\n      dup2\n        /* \"#utility.yul\":4304:4317   */\n      iszero\n        /* \"#utility.yul\":4297:4318   */\n      iszero\n        /* \"#utility.yul\":4286:4318   */\n      swap1\n      pop\n        /* \"#utility.yul\":4234:4324   */\n      swap2\n      swap1\n      pop\n      jump\t// out\n        /* \"#utility.yul\":4330:4439   */\n    tag_170:\n        /* \"#utility.yul\":4411:4432   */\n      tag_258\n        /* \"#utility.yul\":4426:4431   */\n      dup2\n        /* \"#utility.yul\":4411:4432   */\n      tag_169\n      jump\t// in\n    tag_258:\n        /* \"#utility.yul\":4406:4409   */\n      dup3\n        /* \"#utility.yul\":4399:4433   */\n      mstore\n        /* \"#utility.yul\":4330:4439   */\n      pop\n      pop\n      jump\t// out\n        /* \"#utility.yul\":4445:4986   */\n    tag_46:\n        /* \"#utility.yul\":4616:4620   */\n      0x00\n        /* \"#utility.yul\":4654:4657   */\n      0x80\n        /* \"#utility.yul\":4643:4652   */\n      dup3\n        /* \"#utility.yul\":4639:4658   */\n      add\n        /* \"#utility.yul\":4631:4658   */\n      swap1\n      pop\n        /* \"#utility.yul\":4668:4739   */\n      tag_260\n        /* \"#utility.yul\":4736:4737   */\n      0x00\n        /* \"#utility.yul\":4725:4734   */\n      dup4\n        /* \"#utility.yul\":4721:4738   */\n      add\n        /* \"#utility.yul\":4712:4718   */\n      dup8\n        /* \"#utility.yul\":4668:4739   */\n      tag_160\n      jump\t// in\n    tag_260:\n        /* \"#utility.yul\":4749:4815   */\n      tag_261\n        /* \"#utility.yul\":4811:4813   */\n      0x20\n        /* \"#utility.yul\":4800:4809   */\n      dup4\n        /* \"#utility.yul\":4796:4814   */\n      add\n        /* \"#utility.yul\":4787:4793   */\n      dup7\n        /* \"#utility.yul\":4749:4815   */\n      tag_170\n      jump\t// in\n    tag_261:\n        /* \"#utility.yul\":4825:4897   */\n      tag_262\n        /* \"#utility.yul\":4893:4895   */\n      0x40\n        /* \"#utility.yul\":4882:4891   */\n      dup4\n        /* \"#utility.yul\":4878:4896   */\n      add\n        /* \"#utility.yul\":4869:4875   */\n      dup6\n        /* \"#utility.yul\":4825:4897   */\n      tag_163\n      jump\t// in\n    tag_262:\n        /* \"#utility.yul\":4907:4979   */\n      tag_263\n        /* \"#utility.yul\":4975:4977   */\n      0x60\n        /* \"#utility.yul\":4964:4973   */\n      dup4\n        /* \"#utility.yul\":4960:4978   */\n      add\n        /* \"#utility.yul\":4951:4957   */\n      dup5\n        /* \"#utility.yul\":4907:4979   */\n      tag_160\n      jump\t// in\n    tag_263:\n        /* \"#utility.yul\":4445:4986   */\n      swap6\n      swap5\n      pop\n      pop\n      pop\n      pop\n      pop\n      jump\t// out\n        /* \"#utility.yul\":4992:5081   */\n    tag_171:\n        /* \"#utility.yul\":5028:5035   */\n      0x00\n        /* \"#utility.yul\":5068:5074   */\n      0xffff\n        /* \"#utility.yul\":5061:5066   */\n      dup3\n        /* \"#utility.yul\":5057:5075   */\n      and\n        /* \"#utility.yul\":5046:5075   */\n      swap1\n      pop\n        /* \"#utility.yul\":4992:5081   */\n      swap2\n      swap1\n      pop\n      jump\t// out\n        /* \"#utility.yul\":5087:5192   */\n    tag_172:\n        /* \"#utility.yul\":5162:5185   */\n      tag_266\n        /* \"#utility.yul\":5179:5184   */\n      dup2\n        /* \"#utility.yul\":5162:5185   */\n      tag_171\n      jump\t// in\n    tag_266:\n        /* \"#utility.yul\":5157:5160   */\n      dup3\n        /* \"#utility.yul\":5150:5186   */\n      mstore\n        /* \"#utility.yul\":5087:5192   */\n      pop\n      pop\n      jump\t// out\n        /* \"#utility.yul\":5198:5291   */\n    tag_173:\n        /* \"#utility.yul\":5234:5241   */\n      0x00\n        /* \"#utility.yul\":5274:5284   */\n      0xffffffff\n        /* \"#utility.yul\":5267:5272   */\n      dup3\n        /* \"#utility.yul\":5263:5285   */\n      and\n        /* \"#utility.yul\":5252:5285   */\n      swap1\n      pop\n        /* \"#utility.yul\":5198:5291   */\n      swap2\n      swap1\n      pop\n      jump\t// out\n        /* \"#utility.yul\":5297:5402   */\n    tag_174:\n        /* \"#utility.yul\":5372:5395   */\n      tag_269\n        /* \"#utility.yul\":5389:5394   */\n      dup2\n        /* \"#utility.yul\":5372:5395   */\n      tag_173\n      jump\t// in\n    tag_269:\n        /* \"#utility.yul\":5367:5370   */\n      dup3\n        /* \"#utility.yul\":5360:5396   */\n      mstore\n        /* \"#utility.yul\":5297:5402   */\n      pop\n      pop\n      jump\t// out\n        /* \"#utility.yul\":5408:5505   */\n    tag_175:\n        /* \"#utility.yul\":5444:5451   */\n      0x00\n        /* \"#utility.yul\":5484:5498   */\n      0xffffffffffff\n        /* \"#utility.yul\":5477:5482   */\n      dup3\n        /* \"#utility.yul\":5473:5499   */\n      and\n        /* \"#utility.yul\":5462:5499   */\n      swap1\n      pop\n        /* \"#utility.yul\":5408:5505   */\n      swap2\n      swap1\n      pop\n      jump\t// out\n        /* \"#utility.yul\":5511:5616   */\n    tag_176:\n        /* \"#utility.yul\":5586:5609   */\n      tag_272\n        /* \"#utility.yul\":5603:5608   */\n      dup2\n        /* \"#utility.yul\":5586:5609   */\n      tag_175\n      jump\t// in\n    tag_272:\n        /* \"#utility.yul\":5581:5584   */\n      dup3\n        /* \"#utility.yul\":5574:5610   */\n      mstore\n        /* \"#utility.yul\":5511:5616   */\n      pop\n      pop\n      jump\t// out\n        /* \"#utility.yul\":5690:6562   */\n    tag_177:\n        /* \"#utility.yul\":5841:5845   */\n      0x80\n        /* \"#utility.yul\":5836:5839   */\n      dup3\n        /* \"#utility.yul\":5832:5846   */\n      add\n        /* \"#utility.yul\":5930:5934   */\n      0x00\n        /* \"#utility.yul\":5923:5928   */\n      dup3\n        /* \"#utility.yul\":5919:5935   */\n      add\n        /* \"#utility.yul\":5913:5936   */\n      mload\n        /* \"#utility.yul\":5949:6010   */\n      tag_274\n        /* \"#utility.yul\":6004:6008   */\n      0x00\n        /* \"#utility.yul\":5999:6002   */\n      dup6\n        /* \"#utility.yul\":5995:6009   */\n      add\n        /* \"#utility.yul\":5981:5993   */\n      dup3\n        /* \"#utility.yul\":5949:6010   */\n      tag_172\n      jump\t// in\n    tag_274:\n        /* \"#utility.yul\":5856:6020   */\n      pop\n        /* \"#utility.yul\":6110:6114   */\n      0x20\n        /* \"#utility.yul\":6103:6108   */\n      dup3\n        /* \"#utility.yul\":6099:6115   */\n      add\n        /* \"#utility.yul\":6093:6116   */\n      mload\n        /* \"#utility.yul\":6129:6190   */\n      tag_275\n        /* \"#utility.yul\":6184:6188   */\n      0x20\n        /* \"#utility.yul\":6179:6182   */\n      dup6\n        /* \"#utility.yul\":6175:6189   */\n      add\n        /* \"#utility.yul\":6161:6173   */\n      dup3\n        /* \"#utility.yul\":6129:6190   */\n      tag_174\n      jump\t// in\n    tag_275:\n        /* \"#utility.yul\":6030:6200   */\n      pop\n        /* \"#utility.yul\":6287:6291   */\n      0x40\n        /* \"#utility.yul\":6280:6285   */\n      dup3\n        /* \"#utility.yul\":6276:6292   */\n      add\n        /* \"#utility.yul\":6270:6293   */\n      mload\n        /* \"#utility.yul\":6306:6367   */\n      tag_276\n        /* \"#utility.yul\":6361:6365   */\n      0x40\n        /* \"#utility.yul\":6356:6359   */\n      dup6\n        /* \"#utility.yul\":6352:6366   */\n      add\n        /* \"#utility.yul\":6338:6350   */\n      dup3\n        /* \"#utility.yul\":6306:6367   */\n      tag_176\n      jump\t// in\n    tag_276:\n        /* \"#utility.yul\":6210:6377   */\n      pop\n        /* \"#utility.yul\":6465:6469   */\n      0x60\n        /* \"#utility.yul\":6458:6463   */\n      dup3\n        /* \"#utility.yul\":6454:6470   */\n      add\n        /* \"#utility.yul\":6448:6471   */\n      mload\n        /* \"#utility.yul\":6484:6545   */\n      tag_277\n        /* \"#utility.yul\":6539:6543   */\n      0x60\n        /* \"#utility.yul\":6534:6537   */\n      dup6\n        /* \"#utility.yul\":6530:6544   */\n      add\n        /* \"#utility.yul\":6516:6528   */\n      dup3\n        /* \"#utility.yul\":6484:6545   */\n      tag_176\n      jump\t// in\n    tag_277:\n        /* \"#utility.yul\":6387:6555   */\n      pop\n        /* \"#utility.yul\":5810:6562   */\n      pop\n        /* \"#utility.yul\":5690:6562   */\n      pop\n      pop\n      jump\t// out\n        /* \"#utility.yul\":6568:6899   */\n    tag_50:\n        /* \"#utility.yul\":6715:6719   */\n      0x00\n        /* \"#utility.yul\":6753:6756   */\n      0x80\n        /* \"#utility.yul\":6742:6751   */\n      dup3\n        /* \"#utility.yul\":6738:6757   */\n      add\n        /* \"#utility.yul\":6730:6757   */\n      swap1\n      pop\n        /* \"#utility.yul\":6767:6892   */\n      tag_279\n        /* \"#utility.yul\":6889:6890   */\n      0x00\n        /* \"#utility.yul\":6878:6887   */\n      dup4\n        /* \"#utility.yul\":6874:6891   */\n      add\n        /* \"#utility.yul\":6865:6871   */\n      dup5\n        /* \"#utility.yul\":6767:6892   */\n      tag_177\n      jump\t// in\n    tag_279:\n        /* \"#utility.yul\":6568:6899   */\n      swap3\n      swap2\n      pop\n      pop\n      jump\t// out\n        /* \"#utility.yul\":6905:7004   */\n    tag_178:\n        /* \"#utility.yul\":6957:6963   */\n      0x00\n        /* \"#utility.yul\":6991:6996   */\n      dup2\n        /* \"#utility.yul\":6985:6997   */\n      mload\n        /* \"#utility.yul\":6975:6997   */\n      swap1\n      pop\n        /* \"#utility.yul\":6905:7004   */\n      swap2\n      swap1\n      pop\n      jump\t// out\n        /* \"#utility.yul\":7010:7169   */\n    tag_179:\n        /* \"#utility.yul\":7084:7095   */\n      0x00\n        /* \"#utility.yul\":7118:7124   */\n      dup3\n        /* \"#utility.yul\":7113:7116   */\n      dup3\n        /* \"#utility.yul\":7106:7125   */\n      mstore\n        /* \"#utility.yul\":7158:7162   */\n      0x20\n        /* \"#utility.yul\":7153:7156   */\n      dup3\n        /* \"#utility.yul\":7149:7163   */\n      add\n        /* \"#utility.yul\":7134:7163   */\n      swap1\n      pop\n        /* \"#utility.yul\":7010:7169   */\n      swap3\n      swap2\n      pop\n      pop\n      jump\t// out\n        /* \"#utility.yul\":7175:7421   */\n    tag_180:\n        /* \"#utility.yul\":7256:7257   */\n      0x00\n        /* \"#utility.yul\":7266:7379   */\n    tag_283:\n        /* \"#utility.yul\":7280:7286   */\n      dup4\n        /* \"#utility.yul\":7277:7278   */\n      dup2\n        /* \"#utility.yul\":7274:7287   */\n      lt\n        /* \"#utility.yul\":7266:7379   */\n      iszero\n      tag_285\n      jumpi\n        /* \"#utility.yul\":7365:7366   */\n      dup1\n        /* \"#utility.yul\":7360:7363   */\n      dup3\n        /* \"#utility.yul\":7356:7367   */\n      add\n        /* \"#utility.yul\":7350:7368   */\n      mload\n        /* \"#utility.yul\":7346:7347   */\n      dup2\n        /* \"#utility.yul\":7341:7344   */\n      dup5\n        /* \"#utility.yul\":7337:7348   */\n      add\n        /* \"#utility.yul\":7330:7369   */\n      mstore\n        /* \"#utility.yul\":7302:7304   */\n      0x20\n        /* \"#utility.yul\":7299:7300   */\n      dup2\n        /* \"#utility.yul\":7295:7305   */\n      add\n        /* \"#utility.yul\":7290:7305   */\n      swap1\n      pop\n        /* \"#utility.yul\":7266:7379   */\n      jump(tag_283)\n    tag_285:\n        /* \"#utility.yul\":7413:7414   */\n      0x00\n        /* \"#utility.yul\":7404:7410   */\n      dup5\n        /* \"#utility.yul\":7399:7402   */\n      dup5\n        /* \"#utility.yul\":7395:7411   */\n      add\n        /* \"#utility.yul\":7388:7415   */\n      mstore\n        /* \"#utility.yul\":7237:7421   */\n      pop\n        /* \"#utility.yul\":7175:7421   */\n      pop\n      pop\n      pop\n      jump\t// out\n        /* \"#utility.yul\":7427:7529   */\n    tag_181:\n        /* \"#utility.yul\":7468:7474   */\n      0x00\n        /* \"#utility.yul\":7519:7521   */\n      0x1f\n        /* \"#utility.yul\":7515:7522   */\n      not\n        /* \"#utility.yul\":7510:7512   */\n      0x1f\n        /* \"#utility.yul\":7503:7508   */\n      dup4\n        /* \"#utility.yul\":7499:7513   */\n      add\n        /* \"#utility.yul\":7495:7523   */\n      and\n        /* \"#utility.yul\":7485:7523   */\n      swap1\n      pop\n        /* \"#utility.yul\":7427:7529   */\n      swap2\n      swap1\n      pop\n      jump\t// out\n        /* \"#utility.yul\":7535:7892   */\n    tag_182:\n        /* \"#utility.yul\":7613:7616   */\n      0x00\n        /* \"#utility.yul\":7641:7680   */\n      tag_288\n        /* \"#utility.yul\":7674:7679   */\n      dup3\n        /* \"#utility.yul\":7641:7680   */\n      tag_178\n      jump\t// in\n    tag_288:\n        /* \"#utility.yul\":7696:7757   */\n      tag_289\n        /* \"#utility.yul\":7750:7756   */\n      dup2\n        /* \"#utility.yul\":7745:7748   */\n      dup6\n        /* \"#utility.yul\":7696:7757   */\n      tag_179\n      jump\t// in\n    tag_289:\n        /* \"#utility.yul\":7689:7757   */\n      swap4\n      pop\n        /* \"#utility.yul\":7766:7831   */\n      tag_290\n        /* \"#utility.yul\":7824:7830   */\n      dup2\n        /* \"#utility.yul\":7819:7822   */\n      dup6\n        /* \"#utility.yul\":7812:7816   */\n      0x20\n        /* \"#utility.yul\":7805:7810   */\n      dup7\n        /* \"#utility.yul\":7801:7817   */\n      add\n        /* \"#utility.yul\":7766:7831   */\n      tag_180\n      jump\t// in\n    tag_290:\n        /* \"#utility.yul\":7856:7885   */\n      tag_291\n        /* \"#utility.yul\":7878:7884   */\n      dup2\n        /* \"#utility.yul\":7856:7885   */\n      tag_181\n      jump\t// in\n    tag_291:\n        /* \"#utility.yul\":7851:7854   */\n      dup5\n        /* \"#utility.yul\":7847:7886   */\n      add\n        /* \"#utility.yul\":7840:7886   */\n      swap2\n      pop\n        /* \"#utility.yul\":7617:7892   */\n      pop\n        /* \"#utility.yul\":7535:7892   */\n      swap3\n      swap2\n      pop\n      pop\n      jump\t// out\n        /* \"#utility.yul\":7898:8006   */\n    tag_183:\n        /* \"#utility.yul\":7975:7999   */\n      tag_293\n        /* \"#utility.yul\":7993:7998   */\n      dup2\n        /* \"#utility.yul\":7975:7999   */\n      tag_158\n      jump\t// in\n    tag_293:\n        /* \"#utility.yul\":7970:7973   */\n      dup3\n        /* \"#utility.yul\":7963:8000   */\n      mstore\n        /* \"#utility.yul\":7898:8006   */\n      pop\n      pop\n      jump\t// out\n        /* \"#utility.yul\":8084:8894   */\n    tag_184:\n        /* \"#utility.yul\":8211:8214   */\n      0x00\n        /* \"#utility.yul\":8247:8251   */\n      0x60\n        /* \"#utility.yul\":8242:8245   */\n      dup4\n        /* \"#utility.yul\":8238:8252   */\n      add\n        /* \"#utility.yul\":8339:8343   */\n      0x00\n        /* \"#utility.yul\":8332:8337   */\n      dup4\n        /* \"#utility.yul\":8328:8344   */\n      add\n        /* \"#utility.yul\":8322:8345   */\n      mload\n        /* \"#utility.yul\":8392:8395   */\n      dup5\n        /* \"#utility.yul\":8386:8390   */\n      dup3\n        /* \"#utility.yul\":8382:8396   */\n      sub\n        /* \"#utility.yul\":8375:8379   */\n      0x00\n        /* \"#utility.yul\":8370:8373   */\n      dup7\n        /* \"#utility.yul\":8366:8380   */\n      add\n        /* \"#utility.yul\":8359:8397   */\n      mstore\n        /* \"#utility.yul\":8418:8491   */\n      tag_295\n        /* \"#utility.yul\":8486:8490   */\n      dup3\n        /* \"#utility.yul\":8472:8484   */\n      dup3\n        /* \"#utility.yul\":8418:8491   */\n      tag_182\n      jump\t// in\n    tag_295:\n        /* \"#utility.yul\":8410:8491   */\n      swap2\n      pop\n        /* \"#utility.yul\":8262:8502   */\n      pop\n        /* \"#utility.yul\":8595:8599   */\n      0x20\n        /* \"#utility.yul\":8588:8593   */\n      dup4\n        /* \"#utility.yul\":8584:8600   */\n      add\n        /* \"#utility.yul\":8578:8601   */\n      mload\n        /* \"#utility.yul\":8614:8677   */\n      tag_296\n        /* \"#utility.yul\":8671:8675   */\n      0x20\n        /* \"#utility.yul\":8666:8669   */\n      dup7\n        /* \"#utility.yul\":8662:8676   */\n      add\n        /* \"#utility.yul\":8648:8660   */\n      dup3\n        /* \"#utility.yul\":8614:8677   */\n      tag_183\n      jump\t// in\n    tag_296:\n        /* \"#utility.yul\":8512:8687   */\n      pop\n        /* \"#utility.yul\":8775:8779   */\n      0x40\n        /* \"#utility.yul\":8768:8773   */\n      dup4\n        /* \"#utility.yul\":8764:8780   */\n      add\n        /* \"#utility.yul\":8758:8781   */\n      mload\n        /* \"#utility.yul\":8794:8857   */\n      tag_297\n        /* \"#utility.yul\":8851:8855   */\n      0x40\n        /* \"#utility.yul\":8846:8849   */\n      dup7\n        /* \"#utility.yul\":8842:8856   */\n      add\n        /* \"#utility.yul\":8828:8840   */\n      dup3\n        /* \"#utility.yul\":8794:8857   */\n      tag_164\n      jump\t// in\n    tag_297:\n        /* \"#utility.yul\":8697:8867   */\n      pop\n        /* \"#utility.yul\":8884:8888   */\n      dup1\n        /* \"#utility.yul\":8877:8888   */\n      swap2\n      pop\n        /* \"#utility.yul\":8216:8894   */\n      pop\n        /* \"#utility.yul\":8084:8894   */\n      swap3\n      swap2\n      pop\n      pop\n      jump\t// out\n        /* \"#utility.yul\":8900:9289   */\n    tag_54:\n        /* \"#utility.yul\":9051:9055   */\n      0x00\n        /* \"#utility.yul\":9089:9091   */\n      0x20\n        /* \"#utility.yul\":9078:9087   */\n      dup3\n        /* \"#utility.yul\":9074:9092   */\n      add\n        /* \"#utility.yul\":9066:9092   */\n      swap1\n      pop\n        /* \"#utility.yul\":9138:9147   */\n      dup2\n        /* \"#utility.yul\":9132:9136   */\n      dup2\n        /* \"#utility.yul\":9128:9148   */\n      sub\n        /* \"#utility.yul\":9124:9125   */\n      0x00\n        /* \"#utility.yul\":9113:9122   */\n      dup4\n        /* \"#utility.yul\":9109:9126   */\n      add\n        /* \"#utility.yul\":9102:9149   */\n      mstore\n        /* \"#utility.yul\":9166:9282   */\n      tag_299\n        /* \"#utility.yul\":9277:9281   */\n      dup2\n        /* \"#utility.yul\":9268:9274   */\n      dup5\n        /* \"#utility.yul\":9166:9282   */\n      tag_184\n      jump\t// in\n    tag_299:\n        /* \"#utility.yul\":9158:9282   */\n      swap1\n      pop\n        /* \"#utility.yul\":8900:9289   */\n      swap3\n      swap2\n      pop\n      pop\n      jump\t// out\n        /* \"#utility.yul\":9295:9517   */\n    tag_58:\n        /* \"#utility.yul\":9388:9392   */\n      0x00\n        /* \"#utility.yul\":9426:9428   */\n      0x20\n        /* \"#utility.yul\":9415:9424   */\n      dup3\n        /* \"#utility.yul\":9411:9429   */\n      add\n        /* \"#utility.yul\":9403:9429   */\n      swap1\n      pop\n        /* \"#utility.yul\":9439:9510   */\n      tag_301\n        /* \"#utility.yul\":9507:9508   */\n      0x00\n        /* \"#utility.yul\":9496:9505   */\n      dup4\n        /* \"#utility.yul\":9492:9509   */\n      add\n        /* \"#utility.yul\":9483:9489   */\n      dup5\n        /* \"#utility.yul\":9439:9510   */\n      tag_160\n      jump\t// in\n    tag_301:\n        /* \"#utility.yul\":9295:9517   */\n      swap3\n      swap2\n      pop\n      pop\n      jump\t// out\n        /* \"#utility.yul\":9523:9745   */\n    tag_62:\n        /* \"#utility.yul\":9616:9620   */\n      0x00\n        /* \"#utility.yul\":9654:9656   */\n      0x20\n        /* \"#utility.yul\":9643:9652   */\n      dup3\n        /* \"#utility.yul\":9639:9657   */\n      add\n        /* \"#utility.yul\":9631:9657   */\n      swap1\n      pop\n        /* \"#utility.yul\":9667:9738   */\n      tag_303\n        /* \"#utility.yul\":9735:9736   */\n      0x00\n        /* \"#utility.yul\":9724:9733   */\n      dup4\n        /* \"#utility.yul\":9720:9737   */\n      add\n        /* \"#utility.yul\":9711:9717   */\n      dup5\n        /* \"#utility.yul\":9667:9738   */\n      tag_159\n      jump\t// in\n    tag_303:\n        /* \"#utility.yul\":9523:9745   */\n      swap3\n      swap2\n      pop\n      pop\n      jump\t// out\n        /* \"#utility.yul\":9751:9849   */\n    tag_185:\n        /* \"#utility.yul\":9802:9808   */\n      0x00\n        /* \"#utility.yul\":9836:9841   */\n      dup2\n        /* \"#utility.yul\":9830:9842   */\n      mload\n        /* \"#utility.yul\":9820:9842   */\n      swap1\n      pop\n        /* \"#utility.yul\":9751:9849   */\n      swap2\n      swap1\n      pop\n      jump\t// out\n        /* \"#utility.yul\":9855:10023   */\n    tag_186:\n        /* \"#utility.yul\":9938:9949   */\n      0x00\n        /* \"#utility.yul\":9972:9978   */\n      dup3\n        /* \"#utility.yul\":9967:9970   */\n      dup3\n        /* \"#utility.yul\":9960:9979   */\n      mstore\n        /* \"#utility.yul\":10012:10016   */\n      0x20\n        /* \"#utility.yul\":10007:10010   */\n      dup3\n        /* \"#utility.yul\":10003:10017   */\n      add\n        /* \"#utility.yul\":9988:10017   */\n      swap1\n      pop\n        /* \"#utility.yul\":9855:10023   */\n      swap3\n      swap2\n      pop\n      pop\n      jump\t// out\n        /* \"#utility.yul\":10029:10402   */\n    tag_187:\n        /* \"#utility.yul\":10115:10118   */\n      0x00\n        /* \"#utility.yul\":10143:10181   */\n      tag_307\n        /* \"#utility.yul\":10175:10180   */\n      dup3\n        /* \"#utility.yul\":10143:10181   */\n      tag_185\n      jump\t// in\n    tag_307:\n        /* \"#utility.yul\":10197:10267   */\n      tag_308\n        /* \"#utility.yul\":10260:10266   */\n      dup2\n        /* \"#utility.yul\":10255:10258   */\n      dup6\n        /* \"#utility.yul\":10197:10267   */\n      tag_186\n      jump\t// in\n    tag_308:\n        /* \"#utility.yul\":10190:10267   */\n      swap4\n      pop\n        /* \"#utility.yul\":10276:10341   */\n      tag_309\n        /* \"#utility.yul\":10334:10340   */\n      dup2\n        /* \"#utility.yul\":10329:10332   */\n      dup6\n        /* \"#utility.yul\":10322:10326   */\n      0x20\n        /* \"#utility.yul\":10315:10320   */\n      dup7\n        /* \"#utility.yul\":10311:10327   */\n      add\n        /* \"#utility.yul\":10276:10341   */\n      tag_180\n      jump\t// in\n    tag_309:\n        /* \"#utility.yul\":10366:10395   */\n      tag_310\n        /* \"#utility.yul\":10388:10394   */\n      dup2\n        /* \"#utility.yul\":10366:10395   */\n      tag_181\n      jump\t// in\n    tag_310:\n        /* \"#utility.yul\":10361:10364   */\n      dup5\n        /* \"#utility.yul\":10357:10396   */\n      add\n        /* \"#utility.yul\":10350:10396   */\n      swap2\n      pop\n        /* \"#utility.yul\":10119:10402   */\n      pop\n        /* \"#utility.yul\":10029:10402   */\n      swap3\n      swap2\n      pop\n      pop\n      jump\t// out\n        /* \"#utility.yul\":10408:10717   */\n    tag_69:\n        /* \"#utility.yul\":10519:10523   */\n      0x00\n        /* \"#utility.yul\":10557:10559   */\n      0x20\n        /* \"#utility.yul\":10546:10555   */\n      dup3\n        /* \"#utility.yul\":10542:10560   */\n      add\n        /* \"#utility.yul\":10534:10560   */\n      swap1\n      pop\n        /* \"#utility.yul\":10606:10615   */\n      dup2\n        /* \"#utility.yul\":10600:10604   */\n      dup2\n        /* \"#utility.yul\":10596:10616   */\n      sub\n        /* \"#utility.yul\":10592:10593   */\n      0x00\n        /* \"#utility.yul\":10581:10590   */\n      dup4\n        /* \"#utility.yul\":10577:10594   */\n      add\n        /* \"#utility.yul\":10570:10617   */\n      mstore\n        /* \"#utility.yul\":10634:10710   */\n      tag_312\n        /* \"#utility.yul\":10705:10709   */\n      dup2\n        /* \"#utility.yul\":10696:10702   */\n      dup5\n        /* \"#utility.yul\":10634:10710   */\n      tag_187\n      jump\t// in\n    tag_312:\n        /* \"#utility.yul\":10626:10710   */\n      swap1\n      pop\n        /* \"#utility.yul\":10408:10717   */\n      swap3\n      swap2\n      pop\n      pop\n      jump\t// out\n        /* \"#utility.yul\":10723:10892   */\n    tag_188:\n        /* \"#utility.yul\":10807:10818   */\n      0x00\n        /* \"#utility.yul\":10841:10847   */\n      dup3\n        /* \"#utility.yul\":10836:10839   */\n      dup3\n        /* \"#utility.yul\":10829:10848   */\n      mstore\n        /* \"#utility.yul\":10881:10885   */\n      0x20\n        /* \"#utility.yul\":10876:10879   */\n      dup3\n        /* \"#utility.yul\":10872:10886   */\n      add\n        /* \"#utility.yul\":10857:10886   */\n      swap1\n      pop\n        /* \"#utility.yul\":10723:10892   */\n      swap3\n      swap2\n      pop\n      pop\n      jump\t// out\n        /* \"#utility.yul\":10898:11068   */\n    tag_189:\n        /* \"#utility.yul\":11038:11060   */\n      0x486173206e6f20726967687420746f20766f7465000000000000000000000000\n        /* \"#utility.yul\":11034:11035   */\n      0x00\n        /* \"#utility.yul\":11026:11032   */\n      dup3\n        /* \"#utility.yul\":11022:11036   */\n      add\n        /* \"#utility.yul\":11015:11061   */\n      mstore\n        /* \"#utility.yul\":10898:11068   */\n      pop\n      jump\t// out\n        /* \"#utility.yul\":11074:11440   */\n    tag_190:\n        /* \"#utility.yul\":11216:11219   */\n      0x00\n        /* \"#utility.yul\":11237:11304   */\n      tag_316\n        /* \"#utility.yul\":11301:11303   */\n      0x14\n        /* \"#utility.yul\":11296:11299   */\n      dup4\n        /* \"#utility.yul\":11237:11304   */\n      tag_188\n      jump\t// in\n    tag_316:\n        /* \"#utility.yul\":11230:11304   */\n      swap2\n      pop\n        /* \"#utility.yul\":11313:11406   */\n      tag_317\n        /* \"#utility.yul\":11402:11405   */\n      dup3\n        /* \"#utility.yul\":11313:11406   */\n      tag_189\n      jump\t// in\n    tag_317:\n        /* \"#utility.yul\":11431:11433   */\n      0x20\n        /* \"#utility.yul\":11426:11429   */\n      dup3\n        /* \"#utility.yul\":11422:11434   */\n      add\n        /* \"#utility.yul\":11415:11434   */\n      swap1\n      pop\n        /* \"#utility.yul\":11074:11440   */\n      swap2\n      swap1\n      pop\n      jump\t// out\n        /* \"#utility.yul\":11446:11865   */\n    tag_73:\n        /* \"#utility.yul\":11612:11616   */\n      0x00\n        /* \"#utility.yul\":11650:11652   */\n      0x20\n        /* \"#utility.yul\":11639:11648   */\n      dup3\n        /* \"#utility.yul\":11635:11653   */\n      add\n        /* \"#utility.yul\":11627:11653   */\n      swap1\n      pop\n        /* \"#utility.yul\":11699:11708   */\n      dup2\n        /* \"#utility.yul\":11693:11697   */\n      dup2\n        /* \"#utility.yul\":11689:11709   */\n      sub\n        /* \"#utility.yul\":11685:11686   */\n      0x00\n        /* \"#utility.yul\":11674:11683   */\n      dup4\n        /* \"#utility.yul\":11670:11687   */\n      add\n        /* \"#utility.yul\":11663:11710   */\n      mstore\n        /* \"#utility.yul\":11727:11858   */\n      tag_319\n        /* \"#utility.yul\":11853:11857   */\n      dup2\n        /* \"#utility.yul\":11727:11858   */\n      tag_190\n      jump\t// in\n    tag_319:\n        /* \"#utility.yul\":11719:11858   */\n      swap1\n      pop\n        /* \"#utility.yul\":11446:11865   */\n      swap2\n      swap1\n      pop\n      jump\t// out\n        /* \"#utility.yul\":11871:12035   */\n    tag_191:\n        /* \"#utility.yul\":12011:12027   */\n      0x416c726561647920766f7465642e000000000000000000000000000000000000\n        /* \"#utility.yul\":12007:12008   */\n      0x00\n        /* \"#utility.yul\":11999:12005   */\n      dup3\n        /* \"#utility.yul\":11995:12009   */\n      add\n        /* \"#utility.yul\":11988:12028   */\n      mstore\n        /* \"#utility.yul\":11871:12035   */\n      pop\n      jump\t// out\n        /* \"#utility.yul\":12041:12407   */\n    tag_192:\n        /* \"#utility.yul\":12183:12186   */\n      0x00\n        /* \"#utility.yul\":12204:12271   */\n      tag_322\n        /* \"#utility.yul\":12268:12270   */\n      0x0e\n        /* \"#utility.yul\":12263:12266   */\n      dup4\n        /* \"#utility.yul\":12204:12271   */\n      tag_188\n      jump\t// in\n    tag_322:\n        /* \"#utility.yul\":12197:12271   */\n      swap2\n      pop\n        /* \"#utility.yul\":12280:12373   */\n      tag_323\n        /* \"#utility.yul\":12369:12372   */\n      dup3\n        /* \"#utility.yul\":12280:12373   */\n      tag_191\n      jump\t// in\n    tag_323:\n        /* \"#utility.yul\":12398:12400   */\n      0x20\n        /* \"#utility.yul\":12393:12396   */\n      dup3\n        /* \"#utility.yul\":12389:12401   */\n      add\n        /* \"#utility.yul\":12382:12401   */\n      swap1\n      pop\n        /* \"#utility.yul\":12041:12407   */\n      swap2\n      swap1\n      pop\n      jump\t// out\n        /* \"#utility.yul\":12413:12832   */\n    tag_76:\n        /* \"#utility.yul\":12579:12583   */\n      0x00\n        /* \"#utility.yul\":12617:12619   */\n      0x20\n        /* \"#utility.yul\":12606:12615   */\n      dup3\n        /* \"#utility.yul\":12602:12620   */\n      add\n        /* \"#utility.yul\":12594:12620   */\n      swap1\n      pop\n        /* \"#utility.yul\":12666:12675   */\n      dup2\n        /* \"#utility.yul\":12660:12664   */\n      dup2\n        /* \"#utility.yul\":12656:12676   */\n      sub\n        /* \"#utility.yul\":12652:12653   */\n      0x00\n        /* \"#utility.yul\":12641:12650   */\n      dup4\n        /* \"#utility.yul\":12637:12654   */\n      add\n        /* \"#utility.yul\":12630:12677   */\n      mstore\n        /* \"#utility.yul\":12694:12825   */\n      tag_325\n        /* \"#utility.yul\":12820:12824   */\n      dup2\n        /* \"#utility.yul\":12694:12825   */\n      tag_192\n      jump\t// in\n    tag_325:\n        /* \"#utility.yul\":12686:12825   */\n      swap1\n      pop\n        /* \"#utility.yul\":12413:12832   */\n      swap2\n      swap1\n      pop\n      jump\t// out\n        /* \"#utility.yul\":12838:13018   */\n    tag_79:\n        /* \"#utility.yul\":12886:12963   */\n      0x4e487b7100000000000000000000000000000000000000000000000000000000\n        /* \"#utility.yul\":12883:12884   */\n      0x00\n        /* \"#utility.yul\":12876:12964   */\n      mstore\n        /* \"#utility.yul\":12983:12987   */\n      0x32\n        /* \"#utility.yul\":12980:12981   */\n      0x04\n        /* \"#utility.yul\":12973:12988   */\n      mstore\n        /* \"#utility.yul\":13007:13011   */\n      0x24\n        /* \"#utility.yul\":13004:13005   */\n      0x00\n        /* \"#utility.yul\":12997:13012   */\n      revert\n        /* \"#utility.yul\":13024:13204   */\n    tag_193:\n        /* \"#utility.yul\":13072:13149   */\n      0x4e487b7100000000000000000000000000000000000000000000000000000000\n        /* \"#utility.yul\":13069:13070   */\n      0x00\n        /* \"#utility.yul\":13062:13150   */\n      mstore\n        /* \"#utility.yul\":13169:13173   */\n      0x11\n        /* \"#utility.yul\":13166:13167   */\n      0x04\n        /* \"#utility.yul\":13159:13174   */\n      mstore\n        /* \"#utility.yul\":13193:13197   */\n      0x24\n        /* \"#utility.yul\":13190:13191   */\n      0x00\n        /* \"#utility.yul\":13183:13198   */\n      revert\n        /* \"#utility.yul\":13210:13401   */\n    tag_82:\n        /* \"#utility.yul\":13250:13253   */\n      0x00\n        /* \"#utility.yul\":13269:13289   */\n      tag_329\n        /* \"#utility.yul\":13287:13288   */\n      dup3\n        /* \"#utility.yul\":13269:13289   */\n      tag_155\n      jump\t// in\n    tag_329:\n        /* \"#utility.yul\":13264:13289   */\n      swap2\n      pop\n        /* \"#utility.yul\":13303:13323   */\n      tag_330\n        /* \"#utility.yul\":13321:13322   */\n      dup4\n        /* \"#utility.yul\":13303:13323   */\n      tag_155\n      jump\t// in\n    tag_330:\n        /* \"#utility.yul\":13298:13323   */\n      swap3\n      pop\n        /* \"#utility.yul\":13346:13347   */\n      dup3\n        /* \"#utility.yul\":13343:13344   */\n      dup3\n        /* \"#utility.yul\":13339:13348   */\n      add\n        /* \"#utility.yul\":13332:13348   */\n      swap1\n      pop\n        /* \"#utility.yul\":13367:13370   */\n      dup1\n        /* \"#utility.yul\":13364:13365   */\n      dup3\n        /* \"#utility.yul\":13361:13371   */\n      gt\n        /* \"#utility.yul\":13358:13394   */\n      iszero\n      tag_331\n      jumpi\n        /* \"#utility.yul\":13374:13392   */\n      tag_332\n      tag_193\n      jump\t// in\n    tag_332:\n        /* \"#utility.yul\":13358:13394   */\n    tag_331:\n        /* \"#utility.yul\":13210:13401   */\n      swap3\n      swap2\n      pop\n      pop\n      jump\t// out\n        /* \"#utility.yul\":13407:13575   */\n    tag_194:\n        /* \"#utility.yul\":13547:13567   */\n      0x596f7520616c726561647920766f7465642e0000000000000000000000000000\n        /* \"#utility.yul\":13543:13544   */\n      0x00\n        /* \"#utility.yul\":13535:13541   */\n      dup3\n        /* \"#utility.yul\":13531:13545   */\n      add\n        /* \"#utility.yul\":13524:13568   */\n      mstore\n        /* \"#utility.yul\":13407:13575   */\n      pop\n      jump\t// out\n        /* \"#utility.yul\":13581:13947   */\n    tag_195:\n        /* \"#utility.yul\":13723:13726   */\n      0x00\n        /* \"#utility.yul\":13744:13811   */\n      tag_335\n        /* \"#utility.yul\":13808:13810   */\n      0x12\n        /* \"#utility.yul\":13803:13806   */\n      dup4\n        /* \"#utility.yul\":13744:13811   */\n      tag_188\n      jump\t// in\n    tag_335:\n        /* \"#utility.yul\":13737:13811   */\n      swap2\n      pop\n        /* \"#utility.yul\":13820:13913   */\n      tag_336\n        /* \"#utility.yul\":13909:13912   */\n      dup3\n        /* \"#utility.yul\":13820:13913   */\n      tag_194\n      jump\t// in\n    tag_336:\n        /* \"#utility.yul\":13938:13940   */\n      0x20\n        /* \"#utility.yul\":13933:13936   */\n      dup3\n        /* \"#utility.yul\":13929:13941   */\n      add\n        /* \"#utility.yul\":13922:13941   */\n      swap1\n      pop\n        /* \"#utility.yul\":13581:13947   */\n      swap2\n      swap1\n      pop\n      jump\t// out\n        /* \"#utility.yul\":13953:14372   */\n    tag_91:\n        /* \"#utility.yul\":14119:14123   */\n      0x00\n        /* \"#utility.yul\":14157:14159   */\n      0x20\n        /* \"#utility.yul\":14146:14155   */\n      dup3\n        /* \"#utility.yul\":14142:14160   */\n      add\n        /* \"#utility.yul\":14134:14160   */\n      swap1\n      pop\n        /* \"#utility.yul\":14206:14215   */\n      dup2\n        /* \"#utility.yul\":14200:14204   */\n      dup2\n        /* \"#utility.yul\":14196:14216   */\n      sub\n        /* \"#utility.yul\":14192:14193   */\n      0x00\n        /* \"#utility.yul\":14181:14190   */\n      dup4\n        /* \"#utility.yul\":14177:14194   */\n      add\n        /* \"#utility.yul\":14170:14217   */\n      mstore\n        /* \"#utility.yul\":14234:14365   */\n      tag_338\n        /* \"#utility.yul\":14360:14364   */\n      dup2\n        /* \"#utility.yul\":14234:14365   */\n      tag_195\n      jump\t// in\n    tag_338:\n        /* \"#utility.yul\":14226:14365   */\n      swap1\n      pop\n        /* \"#utility.yul\":13953:14372   */\n      swap2\n      swap1\n      pop\n      jump\t// out\n        /* \"#utility.yul\":14378:14558   */\n    tag_196:\n        /* \"#utility.yul\":14518:14550   */\n      0x53656c662d64656c65676174696f6e20697320646973616c6c6f7765642e0000\n        /* \"#utility.yul\":14514:14515   */\n      0x00\n        /* \"#utility.yul\":14506:14512   */\n      dup3\n        /* \"#utility.yul\":14502:14516   */\n      add\n        /* \"#utility.yul\":14495:14551   */\n      mstore\n        /* \"#utility.yul\":14378:14558   */\n      pop\n      jump\t// out\n        /* \"#utility.yul\":14564:14930   */\n    tag_197:\n        /* \"#utility.yul\":14706:14709   */\n      0x00\n        /* \"#utility.yul\":14727:14794   */\n      tag_341\n        /* \"#utility.yul\":14791:14793   */\n      0x1e\n        /* \"#utility.yul\":14786:14789   */\n      dup4\n        /* \"#utility.yul\":14727:14794   */\n      tag_188\n      jump\t// in\n    tag_341:\n        /* \"#utility.yul\":14720:14794   */\n      swap2\n      pop\n        /* \"#utility.yul\":14803:14896   */\n      tag_342\n        /* \"#utility.yul\":14892:14895   */\n      dup3\n        /* \"#utility.yul\":14803:14896   */\n      tag_196\n      jump\t// in\n    tag_342:\n        /* \"#utility.yul\":14921:14923   */\n      0x20\n        /* \"#utility.yul\":14916:14919   */\n      dup3\n        /* \"#utility.yul\":14912:14924   */\n      add\n        /* \"#utility.yul\":14905:14924   */\n      swap1\n      pop\n        /* \"#utility.yul\":14564:14930   */\n      swap2\n      swap1\n      pop\n      jump\t// out\n        /* \"#utility.yul\":14936:15355   */\n    tag_94:\n        /* \"#utility.yul\":15102:15106   */\n      0x00\n        /* \"#utility.yul\":15140:15142   */\n      0x20\n        /* \"#utility.yul\":15129:15138   */\n      dup3\n        /* \"#utility.yul\":15125:15143   */\n      add\n        /* \"#utility.yul\":15117:15143   */\n      swap1\n      pop\n        /* \"#utility.yul\":15189:15198   */\n      dup2\n        /* \"#utility.yul\":15183:15187   */\n      dup2\n        /* \"#utility.yul\":15179:15199   */\n      sub\n        /* \"#utility.yul\":15175:15176   */\n      0x00\n        /* \"#utility.yul\":15164:15173   */\n      dup4\n        /* \"#utility.yul\":15160:15177   */\n      add\n        /* \"#utility.yul\":15153:15200   */\n      mstore\n        /* \"#utility.yul\":15217:15348   */\n      tag_344\n        /* \"#utility.yul\":15343:15347   */\n      dup2\n        /* \"#utility.yul\":15217:15348   */\n      tag_197\n      jump\t// in\n    tag_344:\n        /* \"#utility.yul\":15209:15348   */\n      swap1\n      pop\n        /* \"#utility.yul\":14936:15355   */\n      swap2\n      swap1\n      pop\n      jump\t// out\n        /* \"#utility.yul\":15361:15536   */\n    tag_198:\n        /* \"#utility.yul\":15501:15528   */\n      0x466f756e64206c6f6f7020696e2064656c65676174696f6e2e00000000000000\n        /* \"#utility.yul\":15497:15498   */\n      0x00\n        /* \"#utility.yul\":15489:15495   */\n      dup3\n        /* \"#utility.yul\":15485:15499   */\n      add\n        /* \"#utility.yul\":15478:15529   */\n      mstore\n        /* \"#utility.yul\":15361:15536   */\n      pop\n      jump\t// out\n        /* \"#utility.yul\":15542:15908   */\n    tag_199:\n        /* \"#utility.yul\":15684:15687   */\n      0x00\n        /* \"#utility.yul\":15705:15772   */\n      tag_347\n        /* \"#utility.yul\":15769:15771   */\n      0x19\n        /* \"#utility.yul\":15764:15767   */\n      dup4\n        /* \"#utility.yul\":15705:15772   */\n      tag_188\n      jump\t// in\n    tag_347:\n        /* \"#utility.yul\":15698:15772   */\n      swap2\n      pop\n        /* \"#utility.yul\":15781:15874   */\n      tag_348\n        /* \"#utility.yul\":15870:15873   */\n      dup3\n        /* \"#utility.yul\":15781:15874   */\n      tag_198\n      jump\t// in\n    tag_348:\n        /* \"#utility.yul\":15899:15901   */\n      0x20\n        /* \"#utility.yul\":15894:15897   */\n      dup3\n        /* \"#utility.yul\":15890:15902   */\n      add\n        /* \"#utility.yul\":15883:15902   */\n      swap1\n      pop\n        /* \"#utility.yul\":15542:15908   */\n      swap2\n      swap1\n      pop\n      jump\t// out\n        /* \"#utility.yul\":15914:16333   */\n    tag_99:\n        /* \"#utility.yul\":16080:16084   */\n      0x00\n        /* \"#utility.yul\":16118:16120   */\n      0x20\n        /* \"#utility.yul\":16107:16116   */\n      dup3\n        /* \"#utility.yul\":16103:16121   */\n      add\n        /* \"#utility.yul\":16095:16121   */\n      swap1\n      pop\n        /* \"#utility.yul\":16167:16176   */\n      dup2\n        /* \"#utility.yul\":16161:16165   */\n      dup2\n        /* \"#utility.yul\":16157:16177   */\n      sub\n        /* \"#utility.yul\":16153:16154   */\n      0x00\n        /* \"#utility.yul\":16142:16151   */\n      dup4\n        /* \"#utility.yul\":16138:16155   */\n      add\n        /* \"#utility.yul\":16131:16178   */\n      mstore\n        /* \"#utility.yul\":16195:16326   */\n      tag_350\n        /* \"#utility.yul\":16321:16325   */\n      dup2\n        /* \"#utility.yul\":16195:16326   */\n      tag_199\n      jump\t// in\n    tag_350:\n        /* \"#utility.yul\":16187:16326   */\n      swap1\n      pop\n        /* \"#utility.yul\":15914:16333   */\n      swap2\n      swap1\n      pop\n      jump\t// out\n        /* \"#utility.yul\":16339:16566   */\n    tag_200:\n        /* \"#utility.yul\":16479:16513   */\n      0x4f6e6c79206368616972706572736f6e2063616e206769766520726967687420\n        /* \"#utility.yul\":16475:16476   */\n      0x00\n        /* \"#utility.yul\":16467:16473   */\n      dup3\n        /* \"#utility.yul\":16463:16477   */\n      add\n        /* \"#utility.yul\":16456:16514   */\n      mstore\n        /* \"#utility.yul\":16548:16558   */\n      0x746f20766f74652e000000000000000000000000000000000000000000000000\n        /* \"#utility.yul\":16543:16545   */\n      0x20\n        /* \"#utility.yul\":16535:16541   */\n      dup3\n        /* \"#utility.yul\":16531:16546   */\n      add\n        /* \"#utility.yul\":16524:16559   */\n      mstore\n        /* \"#utility.yul\":16339:16566   */\n      pop\n      jump\t// out\n        /* \"#utility.yul\":16572:16938   */\n    tag_201:\n        /* \"#utility.yul\":16714:16717   */\n      0x00\n        /* \"#utility.yul\":16735:16802   */\n      tag_353\n        /* \"#utility.yul\":16799:16801   */\n      0x28\n        /* \"#utility.yul\":16794:16797   */\n      dup4\n        /* \"#utility.yul\":16735:16802   */\n      tag_188\n      jump\t// in\n    tag_353:\n        /* \"#utility.yul\":16728:16802   */\n      swap2\n      pop\n        /* \"#utility.yul\":16811:16904   */\n      tag_354\n        /* \"#utility.yul\":16900:16903   */\n      dup3\n        /* \"#utility.yul\":16811:16904   */\n      tag_200\n      jump\t// in\n    tag_354:\n        /* \"#utility.yul\":16929:16931   */\n      0x40\n        /* \"#utility.yul\":16924:16927   */\n      dup3\n        /* \"#utility.yul\":16920:16932   */\n      add\n        /* \"#utility.yul\":16913:16932   */\n      swap1\n      pop\n        /* \"#utility.yul\":16572:16938   */\n      swap2\n      swap1\n      pop\n      jump\t// out\n        /* \"#utility.yul\":16944:17363   */\n    tag_110:\n        /* \"#utility.yul\":17110:17114   */\n      0x00\n        /* \"#utility.yul\":17148:17150   */\n      0x20\n        /* \"#utility.yul\":17137:17146   */\n      dup3\n        /* \"#utility.yul\":17133:17151   */\n      add\n        /* \"#utility.yul\":17125:17151   */\n      swap1\n      pop\n        /* \"#utility.yul\":17197:17206   */\n      dup2\n        /* \"#utility.yul\":17191:17195   */\n      dup2\n        /* \"#utility.yul\":17187:17207   */\n      sub\n        /* \"#utility.yul\":17183:17184   */\n      0x00\n        /* \"#utility.yul\":17172:17181   */\n      dup4\n        /* \"#utility.yul\":17168:17185   */\n      add\n        /* \"#utility.yul\":17161:17208   */\n      mstore\n        /* \"#utility.yul\":17225:17356   */\n      tag_356\n        /* \"#utility.yul\":17351:17355   */\n      dup2\n        /* \"#utility.yul\":17225:17356   */\n      tag_201\n      jump\t// in\n    tag_356:\n        /* \"#utility.yul\":17217:17356   */\n      swap1\n      pop\n        /* \"#utility.yul\":16944:17363   */\n      swap2\n      swap1\n      pop\n      jump\t// out\n        /* \"#utility.yul\":17369:17543   */\n    tag_202:\n        /* \"#utility.yul\":17509:17535   */\n      0x54686520766f74657220616c726561647920766f7465642e0000000000000000\n        /* \"#utility.yul\":17505:17506   */\n      0x00\n        /* \"#utility.yul\":17497:17503   */\n      dup3\n        /* \"#utility.yul\":17493:17507   */\n      add\n        /* \"#utility.yul\":17486:17536   */\n      mstore\n        /* \"#utility.yul\":17369:17543   */\n      pop\n      jump\t// out\n        /* \"#utility.yul\":17549:17915   */\n    tag_203:\n        /* \"#utility.yul\":17691:17694   */\n      0x00\n        /* \"#utility.yul\":17712:17779   */\n      tag_359\n        /* \"#utility.yul\":17776:17778   */\n      0x18\n        /* \"#utility.yul\":17771:17774   */\n      dup4\n        /* \"#utility.yul\":17712:17779   */\n      tag_188\n      jump\t// in\n    tag_359:\n        /* \"#utility.yul\":17705:17779   */\n      swap2\n      pop\n        /* \"#utility.yul\":17788:17881   */\n      tag_360\n        /* \"#utility.yul\":17877:17880   */\n      dup3\n        /* \"#utility.yul\":17788:17881   */\n      tag_202\n      jump\t// in\n    tag_360:\n        /* \"#utility.yul\":17906:17908   */\n      0x20\n        /* \"#utility.yul\":17901:17904   */\n      dup3\n        /* \"#utility.yul\":17897:17909   */\n      add\n        /* \"#utility.yul\":17890:17909   */\n      swap1\n      pop\n        /* \"#utility.yul\":17549:17915   */\n      swap2\n      swap1\n      pop\n      jump\t// out\n        /* \"#utility.yul\":17921:18340   */\n    tag_113:\n        /* \"#utility.yul\":18087:18091   */\n      0x00\n        /* \"#utility.yul\":18125:18127   */\n      0x20\n        /* \"#utility.yul\":18114:18123   */\n      dup3\n        /* \"#utility.yul\":18110:18128   */\n      add\n        /* \"#utility.yul\":18102:18128   */\n      swap1\n      pop\n        /* \"#utility.yul\":18174:18183   */\n      dup2\n        /* \"#utility.yul\":18168:18172   */\n      dup2\n        /* \"#utility.yul\":18164:18184   */\n      sub\n        /* \"#utility.yul\":18160:18161   */\n      0x00\n        /* \"#utility.yul\":18149:18158   */\n      dup4\n        /* \"#utility.yul\":18145:18162   */\n      add\n        /* \"#utility.yul\":18138:18185   */\n      mstore\n        /* \"#utility.yul\":18202:18333   */\n      tag_362\n        /* \"#utility.yul\":18328:18332   */\n      dup2\n        /* \"#utility.yul\":18202:18333   */\n      tag_203\n      jump\t// in\n    tag_362:\n        /* \"#utility.yul\":18194:18333   */\n      swap1\n      pop\n        /* \"#utility.yul\":17921:18340   */\n      swap2\n      swap1\n      pop\n      jump\t// out\n        /* \"#utility.yul\":18346:18526   */\n    tag_204:\n        /* \"#utility.yul\":18394:18471   */\n      0x4e487b7100000000000000000000000000000000000000000000000000000000\n        /* \"#utility.yul\":18391:18392   */\n      0x00\n        /* \"#utility.yul\":18384:18472   */\n      mstore\n        /* \"#utility.yul\":18491:18495   */\n      0x22\n        /* \"#utility.yul\":18488:18489   */\n      0x04\n        /* \"#utility.yul\":18481:18496   */\n      mstore\n        /* \"#utility.yul\":18515:18519   */\n      0x24\n        /* \"#utility.yul\":18512:18513   */\n      0x00\n        /* \"#utility.yul\":18505:18520   */\n      revert\n        /* \"#utility.yul\":18532:18852   */\n    tag_122:\n        /* \"#utility.yul\":18576:18582   */\n      0x00\n        /* \"#utility.yul\":18613:18614   */\n      0x02\n        /* \"#utility.yul\":18607:18611   */\n      dup3\n        /* \"#utility.yul\":18603:18615   */\n      div\n        /* \"#utility.yul\":18593:18615   */\n      swap1\n      pop\n        /* \"#utility.yul\":18660:18661   */\n      0x01\n        /* \"#utility.yul\":18654:18658   */\n      dup3\n        /* \"#utility.yul\":18650:18662   */\n      and\n        /* \"#utility.yul\":18681:18699   */\n      dup1\n        /* \"#utility.yul\":18671:18752   */\n      tag_365\n      jumpi\n        /* \"#utility.yul\":18737:18741   */\n      0x7f\n        /* \"#utility.yul\":18729:18735   */\n      dup3\n        /* \"#utility.yul\":18725:18742   */\n      and\n        /* \"#utility.yul\":18715:18742   */\n      swap2\n      pop\n        /* \"#utility.yul\":18671:18752   */\n    tag_365:\n        /* \"#utility.yul\":18799:18801   */\n      0x20\n        /* \"#utility.yul\":18791:18797   */\n      dup3\n        /* \"#utility.yul\":18788:18802   */\n      lt\n        /* \"#utility.yul\":18768:18786   */\n      dup2\n        /* \"#utility.yul\":18765:18803   */\n      sub\n        /* \"#utility.yul\":18762:18846   */\n      tag_366\n      jumpi\n        /* \"#utility.yul\":18818:18836   */\n      tag_367\n      tag_204\n      jump\t// in\n    tag_367:\n        /* \"#utility.yul\":18762:18846   */\n    tag_366:\n        /* \"#utility.yul\":18583:18852   */\n      pop\n        /* \"#utility.yul\":18532:18852   */\n      swap2\n      swap1\n      pop\n      jump\t// out\n        /* \"#utility.yul\":18858:19091   */\n    tag_139:\n        /* \"#utility.yul\":18897:18900   */\n      0x00\n        /* \"#utility.yul\":18920:18944   */\n      tag_369\n        /* \"#utility.yul\":18938:18943   */\n      dup3\n        /* \"#utility.yul\":18920:18944   */\n      tag_155\n      jump\t// in\n    tag_369:\n        /* \"#utility.yul\":18911:18944   */\n      swap2\n      pop\n        /* \"#utility.yul\":18966:19032   */\n      0xffffffffffffffffffffffffffffffffffffffffffffffffffffffffffffffff\n        /* \"#utility.yul\":18959:18964   */\n      dup3\n        /* \"#utility.yul\":18956:19033   */\n      sub\n        /* \"#utility.yul\":18953:19056   */\n      tag_370\n      jumpi\n        /* \"#utility.yul\":19036:19054   */\n      tag_371\n      tag_193\n      jump\t// in\n    tag_371:\n        /* \"#utility.yul\":18953:19056   */\n    tag_370:\n        /* \"#utility.yul\":19083:19084   */\n      0x01\n        /* \"#utility.yul\":19076:19081   */\n      dup3\n        /* \"#utility.yul\":19072:19085   */\n      add\n        /* \"#utility.yul\":19065:19085   */\n      swap1\n      pop\n        /* \"#utility.yul\":18858:19091   */\n      swap2\n      swap1\n      pop\n      jump\t// out\n        /* \"#utility.yul\":19097:19737   */\n    tag_148:\n        /* \"#utility.yul\":19292:19296   */\n      0x00\n        /* \"#utility.yul\":19330:19333   */\n      0x80\n        /* \"#utility.yul\":19319:19328   */\n      dup3\n        /* \"#utility.yul\":19315:19334   */\n      add\n        /* \"#utility.yul\":19307:19334   */\n      swap1\n      pop\n        /* \"#utility.yul\":19344:19415   */\n      tag_373\n        /* \"#utility.yul\":19412:19413   */\n      0x00\n        /* \"#utility.yul\":19401:19410   */\n      dup4\n        /* \"#utility.yul\":19397:19414   */\n      add\n        /* \"#utility.yul\":19388:19394   */\n      dup8\n        /* \"#utility.yul\":19344:19415   */\n      tag_163\n      jump\t// in\n    tag_373:\n        /* \"#utility.yul\":19425:19497   */\n      tag_374\n        /* \"#utility.yul\":19493:19495   */\n      0x20\n        /* \"#utility.yul\":19482:19491   */\n      dup4\n        /* \"#utility.yul\":19478:19496   */\n      add\n        /* \"#utility.yul\":19469:19475   */\n      dup7\n        /* \"#utility.yul\":19425:19497   */\n      tag_160\n      jump\t// in\n    tag_374:\n        /* \"#utility.yul\":19544:19553   */\n      dup2\n        /* \"#utility.yul\":19538:19542   */\n      dup2\n        /* \"#utility.yul\":19534:19554   */\n      sub\n        /* \"#utility.yul\":19529:19531   */\n      0x40\n        /* \"#utility.yul\":19518:19527   */\n      dup4\n        /* \"#utility.yul\":19514:19532   */\n      add\n        /* \"#utility.yul\":19507:19555   */\n      mstore\n        /* \"#utility.yul\":19572:19648   */\n      tag_375\n        /* \"#utility.yul\":19643:19647   */\n      dup2\n        /* \"#utility.yul\":19634:19640   */\n      dup6\n        /* \"#utility.yul\":19572:19648   */\n      tag_187\n      jump\t// in\n    tag_375:\n        /* \"#utility.yul\":19564:19648   */\n      swap1\n      pop\n        /* \"#utility.yul\":19658:19730   */\n      tag_376\n        /* \"#utility.yul\":19726:19728   */\n      0x60\n        /* \"#utility.yul\":19715:19724   */\n      dup4\n        /* \"#utility.yul\":19711:19729   */\n      add\n        /* \"#utility.yul\":19702:19708   */\n      dup5\n        /* \"#utility.yul\":19658:19730   */\n      tag_159\n      jump\t// in\n    tag_376:\n        /* \"#utility.yul\":19097:19737   */\n      swap6\n      swap5\n      pop\n      pop\n      pop\n      pop\n      pop\n      jump\t// out\n        /* \"#utility.yul\":19743:19891   */\n    tag_205:\n        /* \"#utility.yul\":19845:19856   */\n      0x00\n        /* \"#utility.yul\":19882:19885   */\n      dup2\n        /* \"#utility.yul\":19867:19885   */\n      swap1\n      pop\n        /* \"#utility.yul\":19743:19891   */\n      swap3\n      swap2\n      pop\n      pop\n      jump\t// out\n        /* \"#utility.yul\":19897:20038   */\n    tag_206:\n        /* \"#utility.yul\":19946:19950   */\n      0x00\n        /* \"#utility.yul\":19969:19972   */\n      dup2\n        /* \"#utility.yul\":19961:19972   */\n      swap1\n      pop\n        /* \"#utility.yul\":19992:19995   */\n      dup2\n        /* \"#utility.yul\":19989:19990   */\n      0x00\n        /* \"#utility.yul\":19982:19996   */\n      mstore\n        /* \"#utility.yul\":20026:20030   */\n      0x20\n        /* \"#utility.yul\":20023:20024   */\n      0x00\n        /* \"#utility.yul\":20013:20031   */\n      keccak256\n        /* \"#utility.yul\":20005:20031   */\n      swap1\n      pop\n        /* \"#utility.yul\":19897:20038   */\n      swap2\n      swap1\n      pop\n      jump\t// out\n        /* \"#utility.yul\":20068:20942   */\n    tag_207:\n        /* \"#utility.yul\":20171:20174   */\n      0x00\n        /* \"#utility.yul\":20208:20213   */\n      dup2\n        /* \"#utility.yul\":20202:20214   */\n      sload\n        /* \"#utility.yul\":20237:20273   */\n      tag_380\n        /* \"#utility.yul\":20263:20272   */\n      dup2\n        /* \"#utility.yul\":20237:20273   */\n      tag_122\n      jump\t// in\n    tag_380:\n        /* \"#utility.yul\":20289:20378   */\n      tag_381\n        /* \"#utility.yul\":20371:20377   */\n      dup2\n        /* \"#utility.yul\":20366:20369   */\n      dup7\n        /* \"#utility.yul\":20289:20378   */\n      tag_205\n      jump\t// in\n    tag_381:\n        /* \"#utility.yul\":20282:20378   */\n      swap5\n      pop\n        /* \"#utility.yul\":20409:20410   */\n      0x01\n        /* \"#utility.yul\":20398:20407   */\n      dup3\n        /* \"#utility.yul\":20394:20411   */\n      and\n        /* \"#utility.yul\":20425:20426   */\n      0x00\n        /* \"#utility.yul\":20420:20586   */\n      dup2\n      eq\n      tag_383\n      jumpi\n        /* \"#utility.yul\":20600:20601   */\n      0x01\n        /* \"#utility.yul\":20595:20936   */\n      dup2\n      eq\n      tag_384\n      jumpi\n        /* \"#utility.yul\":20387:20936   */\n      jump(tag_382)\n        /* \"#utility.yul\":20420:20586   */\n    tag_383:\n        /* \"#utility.yul\":20504:20508   */\n      0xff\n        /* \"#utility.yul\":20500:20509   */\n      not\n        /* \"#utility.yul\":20489:20498   */\n      dup4\n        /* \"#utility.yul\":20485:20510   */\n      and\n        /* \"#utility.yul\":20480:20483   */\n      dup7\n        /* \"#utility.yul\":20473:20511   */\n      mstore\n        /* \"#utility.yul\":20566:20572   */\n      dup2\n        /* \"#utility.yul\":20559:20573   */\n      iszero\n        /* \"#utility.yul\":20552:20574   */\n      iszero\n        /* \"#utility.yul\":20544:20550   */\n      dup3\n        /* \"#utility.yul\":20540:20575   */\n      mul\n        /* \"#utility.yul\":20535:20538   */\n      dup7\n        /* \"#utility.yul\":20531:20576   */\n      add\n        /* \"#utility.yul\":20524:20576   */\n      swap4\n      pop\n        /* \"#utility.yul\":20420:20586   */\n      jump(tag_382)\n        /* \"#utility.yul\":20595:20936   */\n    tag_384:\n        /* \"#utility.yul\":20662:20700   */\n      tag_385\n        /* \"#utility.yul\":20694:20699   */\n      dup6\n        /* \"#utility.yul\":20662:20700   */\n      tag_206\n      jump\t// in\n    tag_385:\n        /* \"#utility.yul\":20722:20723   */\n      0x00\n        /* \"#utility.yul\":20736:20890   */\n    tag_386:\n        /* \"#utility.yul\":20750:20756   */\n      dup4\n        /* \"#utility.yul\":20747:20748   */\n      dup2\n        /* \"#utility.yul\":20744:20757   */\n      lt\n        /* \"#utility.yul\":20736:20890   */\n      iszero\n      tag_388\n      jumpi\n        /* \"#utility.yul\":20824:20831   */\n      dup2\n        /* \"#utility.yul\":20818:20832   */\n      sload\n        /* \"#utility.yul\":20814:20815   */\n      dup2\n        /* \"#utility.yul\":20809:20812   */\n      dup10\n        /* \"#utility.yul\":20805:20816   */\n      add\n        /* \"#utility.yul\":20798:20833   */\n      mstore\n        /* \"#utility.yul\":20874:20875   */\n      0x01\n        /* \"#utility.yul\":20865:20872   */\n      dup3\n        /* \"#utility.yul\":20861:20876   */\n      add\n        /* \"#utility.yul\":20850:20876   */\n      swap2\n      pop\n        /* \"#utility.yul\":20772:20776   */\n      0x20\n        /* \"#utility.yul\":20769:20770   */\n      dup2\n        /* \"#utility.yul\":20765:20777   */\n      add\n        /* \"#utility.yul\":20760:20777   */\n      swap1\n      pop\n        /* \"#utility.yul\":20736:20890   */\n      jump(tag_386)\n    tag_388:\n        /* \"#utility.yul\":20919:20925   */\n      dup4\n        /* \"#utility.yul\":20914:20917   */\n      dup9\n        /* \"#utility.yul\":20910:20926   */\n      add\n        /* \"#utility.yul\":20903:20926   */\n      swap6\n      pop\n        /* \"#utility.yul\":20602:20936   */\n      pop\n      pop\n        /* \"#utility.yul\":20387:20936   */\n    tag_382:\n      pop\n        /* \"#utility.yul\":20175:20942   */\n      pop\n      pop\n        /* \"#utility.yul\":20068:20942   */\n      swap3\n      swap2\n      pop\n      pop\n      jump\t// out\n        /* \"#utility.yul\":20948:21217   */\n    tag_151:\n        /* \"#utility.yul\":21077:21080   */\n      0x00\n        /* \"#utility.yul\":21099:21191   */\n      tag_390\n        /* \"#utility.yul\":21187:21190   */\n      dup3\n        /* \"#utility.yul\":21178:21184   */\n      dup5\n        /* \"#utility.yul\":21099:21191   */\n      tag_207\n      jump\t// in\n    tag_390:\n        /* \"#utility.yul\":21092:21191   */\n      swap2\n      pop\n        /* \"#utility.yul\":21208:21211   */\n      dup2\n        /* \"#utility.yul\":21201:21211   */\n      swap1\n      pop\n        /* \"#utility.yul\":20948:21217   */\n      swap3\n      swap2\n      pop\n      pop\n      jump\t// out\n\n    auxdata: 0xa2646970667358221220c8304e57c08354ddcb9aac74c7df5ecad42356f3a5c9c4716c627d1cfd2e8d0864736f6c63430008140033\n}\n",
				"bytecode": {
					"linkReferences": {},
					"object": "608060405234801562000010575f80fd5b506040516200244a3803806200244a833981810160405281019062000036919062000757565b835f015160015f0190816200004c919062000a32565b508260405160200162000060919062000b66565b604051602081830303815290604052805190602001206001800181905550836040015160016002015f6101000a81548173ffffffffffffffffffffffffffffffffffffffff021916908373ffffffffffffffffffffffffffffffffffffffff1602179055503360046001015f6101000a81548173ffffffffffffffffffffffffffffffffffffffff021916908373ffffffffffffffffffffffffffffffffffffffff16021790555060085f60046001015f9054906101000a900473ffffffffffffffffffffffffffffffffffffffff1673ffffffffffffffffffffffffffffffffffffffff1673ffffffffffffffffffffffffffffffffffffffff1681526020019081526020015f205f9054906101000a900473ffffffffffffffffffffffffffffffffffffffff1660045f015f6101000a81548173ffffffffffffffffffffffffffffffffffffffff021916908373ffffffffffffffffffffffffffffffffffffffff1602179055505f73ffffffffffffffffffffffffffffffffffffffff1660045f015f9054906101000a900473ffffffffffffffffffffffffffffffffffffffff1673ffffffffffffffffffffffffffffffffffffffff1603620002845760046001015f9054906101000a900473ffffffffffffffffffffffffffffffffffffffff166040517fdefe7bd30000000000000000000000000000000000000000000000000000000081526004016200027b919062000b99565b60405180910390fd5b81600460020181905550805f01515f80015f6101000a81548161ffff021916908361ffff16021790555080602001515f800160026101000a81548163ffffffff021916908363ffffffff16021790555080604001515f800160066101000a81548165ffffffffffff021916908365ffffffffffff16021790555080606001515f8001600c6101000a81548165ffffffffffff021916908365ffffffffffff1602179055505050505062000bb4565b5f604051905090565b5f80fd5b5f80fd5b5f80fd5b5f601f19601f8301169050919050565b7f4e487b71000000000000000000000000000000000000000000000000000000005f52604160045260245ffd5b6200038f8262000347565b810181811067ffffffffffffffff82111715620003b157620003b062000357565b5b80604052505050565b5f620003c562000332565b9050620003d3828262000384565b919050565b5f80fd5b5f80fd5b5f80fd5b5f67ffffffffffffffff82111562000401576200040062000357565b5b6200040c8262000347565b9050602081019050919050565b5f5b83811015620004385780820151818401526020810190506200041b565b5f8484015250505050565b5f620004596200045384620003e4565b620003ba565b905082815260208101848484011115620004785762000477620003e0565b5b6200048584828562000419565b509392505050565b5f82601f830112620004a457620004a3620003dc565b5b8151620004b684826020860162000443565b91505092915050565b5f819050919050565b620004d381620004bf565b8114620004de575f80fd5b50565b5f81519050620004f181620004c8565b92915050565b5f73ffffffffffffffffffffffffffffffffffffffff82169050919050565b5f6200052282620004f7565b9050919050565b620005348162000516565b81146200053f575f80fd5b50565b5f81519050620005528162000529565b92915050565b5f6060828403121562000570576200056f62000343565b5b6200057c6060620003ba565b90505f82015167ffffffffffffffff8111156200059e576200059d620003d8565b5b620005ac848285016200048d565b5f830152506020620005c184828501620004e1565b6020830152506040620005d78482850162000542565b60408301525092915050565b5f819050919050565b620005f781620005e3565b811462000602575f80fd5b50565b5f815190506200061581620005ec565b92915050565b5f61ffff82169050919050565b62000633816200061b565b81146200063e575f80fd5b50565b5f81519050620006518162000628565b92915050565b5f63ffffffff82169050919050565b620006718162000657565b81146200067c575f80fd5b50565b5f815190506200068f8162000666565b92915050565b5f65ffffffffffff82169050919050565b620006b18162000695565b8114620006bc575f80fd5b50565b5f81519050620006cf81620006a6565b92915050565b5f60808284031215620006ed57620006ec62000343565b5b620006f96080620003ba565b90505f6200070a8482850162000641565b5f8301525060206200071f848285016200067f565b60208301525060406200073584828501620006bf565b60408301525060606200074b84828501620006bf565b60608301525092915050565b5f805f8060e085870312156200077257620007716200033b565b5b5f85015167ffffffffffffffff8111156200079257620007916200033f565b5b620007a08782880162000558565b945050602085015167ffffffffffffffff811115620007c457620007c36200033f565b5b620007d2878288016200048d565b9350506040620007e58782880162000605565b9250506060620007f887828801620006d5565b91505092959194509250565b5f81519050919050565b7f4e487b71000000000000000000000000000000000000000000000000000000005f52602260045260245ffd5b5f60028204905060018216806200085357607f821691505b6020821081036200086957620008686200080e565b5b50919050565b5f819050815f5260205f209050919050565b5f6020601f8301049050919050565b5f82821b905092915050565b5f60088302620008cd7fffffffffffffffffffffffffffffffffffffffffffffffffffffffffffffffff8262000890565b620008d9868362000890565b95508019841693508086168417925050509392505050565b5f819050919050565b5f6200091a620009146200090e84620005e3565b620008f1565b620005e3565b9050919050565b5f819050919050565b6200093583620008fa565b6200094d620009448262000921565b8484546200089c565b825550505050565b5f90565b6200096362000955565b620009708184846200092a565b505050565b5b8181101562000997576200098b5f8262000959565b60018101905062000976565b5050565b601f821115620009e657620009b0816200086f565b620009bb8462000881565b81016020851015620009cb578190505b620009e3620009da8562000881565b83018262000975565b50505b505050565b5f82821c905092915050565b5f62000a085f1984600802620009eb565b1980831691505092915050565b5f62000a228383620009f7565b9150826002028217905092915050565b62000a3d8262000804565b67ffffffffffffffff81111562000a595762000a5862000357565b5b62000a6582546200083b565b62000a728282856200099b565b5f60209050601f83116001811462000aa8575f841562000a93578287015190505b62000a9f858262000a15565b86555062000b0e565b601f19841662000ab8866200086f565b5f5b8281101562000ae15784890151825560018201915060208501945060208101905062000aba565b8683101562000b01578489015162000afd601f891682620009f7565b8355505b6001600288020188555050505b505050505050565b5f82825260208201905092915050565b5f62000b328262000804565b62000b3e818562000b16565b935062000b5081856020860162000419565b62000b5b8162000347565b840191505092915050565b5f6020820190508181035f83015262000b80818462000b26565b905092915050565b62000b938162000516565b82525050565b5f60208201905062000bae5f83018462000b88565b92915050565b6118888062000bc25f395ff3fe608060405234801561000f575f80fd5b50600436106100cd575f3560e01c8063a3ec138d1161008a578063d4564d1611610064578063d4564d1614610201578063e2ba53f01461021f578063ec5bf07b1461023d578063f8b1b08a1461025b576100cd565b8063a3ec138d14610192578063b3a05246146101c5578063bc33c7d7146101e3576100cd565b80630121b93f146100d1578063013cf08b146100ed5780632e4176cf1461011e5780634731ca2b1461013c5780635c19a95c1461015a5780639e7b8d6114610176575b5f80fd5b6100eb60048036038101906100e69190610ead565b610279565b005b61010760048036038101906101029190610ead565b6103b4565b604051610115929190610eff565b60405180910390f35b6101266103e3565b6040516101339190610f65565b60405180910390f35b610144610408565b6040516101519190610fdc565b60405180910390f35b610174600480360381019061016f919061101f565b6104d5565b005b610190600480360381019061018b919061101f565b61085a565b005b6101ac60048036038101906101a7919061101f565b610a08565b6040516101bc9493929190611064565b60405180910390f35b6101cd610a60565b6040516101da9190611154565b60405180910390f35b6101eb610b12565b6040516101f89190611253565b60405180910390f35b610209610c1a565b6040516102169190611273565b60405180910390f35b610227610c9b565b604051610234919061128c565b60405180910390f35b610245610ccb565b6040516102529190611273565b60405180910390f35b610263610d33565b60405161027091906112f7565b60405180910390f35b5f60095f3373ffffffffffffffffffffffffffffffffffffffff1673ffffffffffffffffffffffffffffffffffffffff1681526020019081526020015f2090505f815f0154036102fe576040517f08c379a00000000000000000000000000000000000000000000000000000000081526004016102f590611371565b60405180910390fd5b806001015f9054906101000a900460ff161561034f576040517f08c379a0000000000000000000000000000000000000000000000000000000008152600401610346906113d9565b60405180910390fd5b6001816001015f6101000a81548160ff021916908315150217905550818160020181905550805f0154600a838154811061038c5761038b6113f7565b5b905f5260205f2090600202016001015f8282546103a99190611451565b925050819055505050565b600a81815481106103c3575f80fd5b905f5260205f2090600202015f91509050805f0154908060010154905082565b60075f9054906101000a900473ffffffffffffffffffffffffffffffffffffffff1681565b610410610db6565b60046040518060600160405290815f82015f9054906101000a900473ffffffffffffffffffffffffffffffffffffffff1673ffffffffffffffffffffffffffffffffffffffff1673ffffffffffffffffffffffffffffffffffffffff168152602001600182015f9054906101000a900473ffffffffffffffffffffffffffffffffffffffff1673ffffffffffffffffffffffffffffffffffffffff1673ffffffffffffffffffffffffffffffffffffffff168152602001600282015481525050905090565b5f60095f3373ffffffffffffffffffffffffffffffffffffffff1673ffffffffffffffffffffffffffffffffffffffff1681526020019081526020015f209050806001015f9054906101000a900460ff1615610566576040517f08c379a000000000000000000000000000000000000000000000000000000000815260040161055d906114ce565b60405180910390fd5b3373ffffffffffffffffffffffffffffffffffffffff168273ffffffffffffffffffffffffffffffffffffffff16036105d4576040517f08c379a00000000000000000000000000000000000000000000000000000000081526004016105cb90611536565b60405180910390fd5b5b5f73ffffffffffffffffffffffffffffffffffffffff1660095f8473ffffffffffffffffffffffffffffffffffffffff1673ffffffffffffffffffffffffffffffffffffffff1681526020019081526020015f2060010160019054906101000a900473ffffffffffffffffffffffffffffffffffffffff1673ffffffffffffffffffffffffffffffffffffffff161461073e5760095f8373ffffffffffffffffffffffffffffffffffffffff1673ffffffffffffffffffffffffffffffffffffffff1681526020019081526020015f2060010160019054906101000a900473ffffffffffffffffffffffffffffffffffffffff1691503373ffffffffffffffffffffffffffffffffffffffff168273ffffffffffffffffffffffffffffffffffffffff1603610739576040517f08c379a00000000000000000000000000000000000000000000000000000000081526004016107309061159e565b60405180910390fd5b6105d5565b6001816001015f6101000a81548160ff021916908315150217905550818160010160016101000a81548173ffffffffffffffffffffffffffffffffffffffff021916908373ffffffffffffffffffffffffffffffffffffffff1602179055505f60095f8473ffffffffffffffffffffffffffffffffffffffff1673ffffffffffffffffffffffffffffffffffffffff1681526020019081526020015f209050806001015f9054906101000a900460ff161561083857815f0154600a82600201548154811061080f5761080e6113f7565b5b905f5260205f2090600202016001015f82825461082c9190611451565b92505081905550610855565b815f0154815f015f82825461084d9190611451565b925050819055505b505050565b60075f9054906101000a900473ffffffffffffffffffffffffffffffffffffffff1673ffffffffffffffffffffffffffffffffffffffff163373ffffffffffffffffffffffffffffffffffffffff16146108e9576040517f08c379a00000000000000000000000000000000000000000000000000000000081526004016108e09061162c565b60405180910390fd5b60095f8273ffffffffffffffffffffffffffffffffffffffff1673ffffffffffffffffffffffffffffffffffffffff1681526020019081526020015f206001015f9054906101000a900460ff1615610976576040517f08c379a000000000000000000000000000000000000000000000000000000000815260040161096d90611694565b60405180910390fd5b5f60095f8373ffffffffffffffffffffffffffffffffffffffff1673ffffffffffffffffffffffffffffffffffffffff1681526020019081526020015f205f0154146109c0575f80fd5b600160095f8373ffffffffffffffffffffffffffffffffffffffff1673ffffffffffffffffffffffffffffffffffffffff1681526020019081526020015f205f018190555050565b6009602052805f5260405f205f91509050805f015490806001015f9054906101000a900460ff16908060010160019054906101000a900473ffffffffffffffffffffffffffffffffffffffff16908060020154905084565b610a68610e00565b5f6040518060800160405290815f82015f9054906101000a900461ffff1661ffff1661ffff1681526020015f820160029054906101000a900463ffffffff1663ffffffff1663ffffffff1681526020015f820160069054906101000a900465ffffffffffff1665ffffffffffff1665ffffffffffff1681526020015f8201600c9054906101000a900465ffffffffffff1665ffffffffffff1665ffffffffffff1681525050905090565b610b1a610e3e565b60016040518060600160405290815f82018054610b36906116df565b80601f0160208091040260200160405190810160405280929190818152602001828054610b62906116df565b8015610bad5780601f10610b8457610100808354040283529160200191610bad565b820191905f5260205f20905b815481529060010190602001808311610b9057829003601f168201915b5050505050815260200160018201548152602001600282015f9054906101000a900473ffffffffffffffffffffffffffffffffffffffff1673ffffffffffffffffffffffffffffffffffffffff1673ffffffffffffffffffffffffffffffffffffffff1681525050905090565b5f805f90505f5b600a80549050811015610c965781600a8281548110610c4357610c426113f7565b5b905f5260205f209060020201600101541115610c8357600a8181548110610c6d57610c6c6113f7565b5b905f5260205f2090600202016001015491508092505b8080610c8e9061170f565b915050610c21565b505090565b5f600a610ca6610c1a565b81548110610cb757610cb66113f7565b5b905f5260205f2090600202015f0154905090565b5f60045f015f9054906101000a900473ffffffffffffffffffffffffffffffffffffffff16600460020154610cfe610d33565b6001800154604051602001610d169493929190611756565b604051602081830303815290604052805190602001205f1c905090565b606060015f0160405160240160405160208183030381529060405290604051610d5c919061183c565b60405180910390207bffffffffffffffffffffffffffffffffffffffffffffffffffffffff19166020820180517bffffffffffffffffffffffffffffffffffffffffffffffffffffffff8381831617835250505050905090565b60405180606001604052805f73ffffffffffffffffffffffffffffffffffffffff1681526020015f73ffffffffffffffffffffffffffffffffffffffff1681526020015f81525090565b60405180608001604052805f61ffff1681526020015f63ffffffff1681526020015f65ffffffffffff1681526020015f65ffffffffffff1681525090565b6040518060600160405280606081526020015f80191681526020015f73ffffffffffffffffffffffffffffffffffffffff1681525090565b5f80fd5b5f819050919050565b610e8c81610e7a565b8114610e96575f80fd5b50565b5f81359050610ea781610e83565b92915050565b5f60208284031215610ec257610ec1610e76565b5b5f610ecf84828501610e99565b91505092915050565b5f819050919050565b610eea81610ed8565b82525050565b610ef981610e7a565b82525050565b5f604082019050610f125f830185610ee1565b610f1f6020830184610ef0565b9392505050565b5f73ffffffffffffffffffffffffffffffffffffffff82169050919050565b5f610f4f82610f26565b9050919050565b610f5f81610f45565b82525050565b5f602082019050610f785f830184610f56565b92915050565b610f8781610f45565b82525050565b610f9681610e7a565b82525050565b606082015f820151610fb05f850182610f7e565b506020820151610fc36020850182610f7e565b506040820151610fd66040850182610f8d565b50505050565b5f606082019050610fef5f830184610f9c565b92915050565b610ffe81610f45565b8114611008575f80fd5b50565b5f8135905061101981610ff5565b92915050565b5f6020828403121561103457611033610e76565b5b5f6110418482850161100b565b91505092915050565b5f8115159050919050565b61105e8161104a565b82525050565b5f6080820190506110775f830187610ef0565b6110846020830186611055565b6110916040830185610f56565b61109e6060830184610ef0565b95945050505050565b5f61ffff82169050919050565b6110bd816110a7565b82525050565b5f63ffffffff82169050919050565b6110db816110c3565b82525050565b5f65ffffffffffff82169050919050565b6110fb816110e1565b82525050565b608082015f8201516111155f8501826110b4565b50602082015161112860208501826110d2565b50604082015161113b60408501826110f2565b50606082015161114e60608501826110f2565b50505050565b5f6080820190506111675f830184611101565b92915050565b5f81519050919050565b5f82825260208201905092915050565b5f5b838110156111a4578082015181840152602081019050611189565b5f8484015250505050565b5f601f19601f8301169050919050565b5f6111c98261116d565b6111d38185611177565b93506111e3818560208601611187565b6111ec816111af565b840191505092915050565b61120081610ed8565b82525050565b5f606083015f8301518482035f86015261122082826111bf565b915050602083015161123560208601826111f7565b5060408301516112486040860182610f7e565b508091505092915050565b5f6020820190508181035f83015261126b8184611206565b905092915050565b5f6020820190506112865f830184610ef0565b92915050565b5f60208201905061129f5f830184610ee1565b92915050565b5f81519050919050565b5f82825260208201905092915050565b5f6112c9826112a5565b6112d381856112af565b93506112e3818560208601611187565b6112ec816111af565b840191505092915050565b5f6020820190508181035f83015261130f81846112bf565b905092915050565b5f82825260208201905092915050565b7f486173206e6f20726967687420746f20766f74650000000000000000000000005f82015250565b5f61135b601483611317565b915061136682611327565b602082019050919050565b5f6020820190508181035f8301526113888161134f565b9050919050565b7f416c726561647920766f7465642e0000000000000000000000000000000000005f82015250565b5f6113c3600e83611317565b91506113ce8261138f565b602082019050919050565b5f6020820190508181035f8301526113f0816113b7565b9050919050565b7f4e487b71000000000000000000000000000000000000000000000000000000005f52603260045260245ffd5b7f4e487b71000000000000000000000000000000000000000000000000000000005f52601160045260245ffd5b5f61145b82610e7a565b915061146683610e7a565b925082820190508082111561147e5761147d611424565b5b92915050565b7f596f7520616c726561647920766f7465642e00000000000000000000000000005f82015250565b5f6114b8601283611317565b91506114c382611484565b602082019050919050565b5f6020820190508181035f8301526114e5816114ac565b9050919050565b7f53656c662d64656c65676174696f6e20697320646973616c6c6f7765642e00005f82015250565b5f611520601e83611317565b915061152b826114ec565b602082019050919050565b5f6020820190508181035f83015261154d81611514565b9050919050565b7f466f756e64206c6f6f7020696e2064656c65676174696f6e2e000000000000005f82015250565b5f611588601983611317565b915061159382611554565b602082019050919050565b5f6020820190508181035f8301526115b58161157c565b9050919050565b7f4f6e6c79206368616972706572736f6e2063616e2067697665207269676874205f8201527f746f20766f74652e000000000000000000000000000000000000000000000000602082015250565b5f611616602883611317565b9150611621826115bc565b604082019050919050565b5f6020820190508181035f8301526116438161160a565b9050919050565b7f54686520766f74657220616c726561647920766f7465642e00000000000000005f82015250565b5f61167e601883611317565b91506116898261164a565b602082019050919050565b5f6020820190508181035f8301526116ab81611672565b9050919050565b7f4e487b71000000000000000000000000000000000000000000000000000000005f52602260045260245ffd5b5f60028204905060018216806116f657607f821691505b602082108103611709576117086116b2565b5b50919050565b5f61171982610e7a565b91507fffffffffffffffffffffffffffffffffffffffffffffffffffffffffffffffff820361174b5761174a611424565b5b600182019050919050565b5f6080820190506117695f830187610f56565b6117766020830186610ef0565b818103604083015261178881856112bf565b90506117976060830184610ee1565b95945050505050565b5f81905092915050565b5f819050815f5260205f209050919050565b5f81546117c8816116df565b6117d281866117a0565b9450600182165f81146117ec576001811461180157611833565b60ff1983168652811515820286019350611833565b61180a856117aa565b5f5b8381101561182b5781548189015260018201915060208101905061180c565b838801955050505b50505092915050565b5f61184782846117bc565b91508190509291505056fea2646970667358221220c8304e57c08354ddcb9aac74c7df5ecad42356f3a5c9c4716c627d1cfd2e8d0864736f6c63430008140033",
					"opcodes": "PUSH1 0x80 PUSH1 0x40 MSTORE CALLVALUE DUP1 ISZERO PUSH3 0x10 JUMPI PUSH0 DUP1 REVERT JUMPDEST POP PUSH1 0x40 MLOAD PUSH3 0x244A CODESIZE SUB DUP1 PUSH3 0x244A DUP4 CODECOPY DUP2 DUP2 ADD PUSH1 0x40 MSTORE DUP2 ADD SWAP1 PUSH3 0x36 SWAP2 SWAP1 PUSH3 0x757 JUMP JUMPDEST DUP4 PUSH0 ADD MLOAD PUSH1 0x1 PUSH0 ADD SWAP1 DUP2 PUSH3 0x4C SWAP2 SWAP1 PUSH3 0xA32 JUMP JUMPDEST POP DUP3 PUSH1 0x40 MLOAD PUSH1 0x20 ADD PUSH3 0x60 SWAP2 SWAP1 PUSH3 0xB66 JUMP JUMPDEST PUSH1 0x40 MLOAD PUSH1 0x20 DUP2 DUP4 SUB SUB DUP2 MSTORE SWAP1 PUSH1 0x40 MSTORE DUP1 MLOAD SWAP1 PUSH1 0x20 ADD KECCAK256 PUSH1 0x1 DUP1 ADD DUP2 SWAP1 SSTORE POP DUP4 PUSH1 0x40 ADD MLOAD PUSH1 0x1 PUSH1 0x2 ADD PUSH0 PUSH2 0x100 EXP DUP2 SLOAD DUP2 PUSH20 0xFFFFFFFFFFFFFFFFFFFFFFFFFFFFFFFFFFFFFFFF MUL NOT AND SWAP1 DUP4 PUSH20 0xFFFFFFFFFFFFFFFFFFFFFFFFFFFFFFFFFFFFFFFF AND MUL OR SWAP1 SSTORE POP CALLER PUSH1 0x4 PUSH1 0x1 ADD PUSH0 PUSH2 0x100 EXP DUP2 SLOAD DUP2 PUSH20 0xFFFFFFFFFFFFFFFFFFFFFFFFFFFFFFFFFFFFFFFF MUL NOT AND SWAP1 DUP4 PUSH20 0xFFFFFFFFFFFFFFFFFFFFFFFFFFFFFFFFFFFFFFFF AND MUL OR SWAP1 SSTORE POP PUSH1 0x8 PUSH0 PUSH1 0x4 PUSH1 0x1 ADD PUSH0 SWAP1 SLOAD SWAP1 PUSH2 0x100 EXP SWAP1 DIV PUSH20 0xFFFFFFFFFFFFFFFFFFFFFFFFFFFFFFFFFFFFFFFF AND PUSH20 0xFFFFFFFFFFFFFFFFFFFFFFFFFFFFFFFFFFFFFFFF AND PUSH20 0xFFFFFFFFFFFFFFFFFFFFFFFFFFFFFFFFFFFFFFFF AND DUP2 MSTORE PUSH1 0x20 ADD SWAP1 DUP2 MSTORE PUSH1 0x20 ADD PUSH0 KECCAK256 PUSH0 SWAP1 SLOAD SWAP1 PUSH2 0x100 EXP SWAP1 DIV PUSH20 0xFFFFFFFFFFFFFFFFFFFFFFFFFFFFFFFFFFFFFFFF AND PUSH1 0x4 PUSH0 ADD PUSH0 PUSH2 0x100 EXP DUP2 SLOAD DUP2 PUSH20 0xFFFFFFFFFFFFFFFFFFFFFFFFFFFFFFFFFFFFFFFF MUL NOT AND SWAP1 DUP4 PUSH20 0xFFFFFFFFFFFFFFFFFFFFFFFFFFFFFFFFFFFFFFFF AND MUL OR SWAP1 SSTORE POP PUSH0 PUSH20 0xFFFFFFFFFFFFFFFFFFFFFFFFFFFFFFFFFFFFFFFF AND PUSH1 0x4 PUSH0 ADD PUSH0 SWAP1 SLOAD SWAP1 PUSH2 0x100 EXP SWAP1 DIV PUSH20 0xFFFFFFFFFFFFFFFFFFFFFFFFFFFFFFFFFFFFFFFF AND PUSH20 0xFFFFFFFFFFFFFFFFFFFFFFFFFFFFFFFFFFFFFFFF AND SUB PUSH3 0x284 JUMPI PUSH1 0x4 PUSH1 0x1 ADD PUSH0 SWAP1 SLOAD SWAP1 PUSH2 0x100 EXP SWAP1 DIV PUSH20 0xFFFFFFFFFFFFFFFFFFFFFFFFFFFFFFFFFFFFFFFF AND PUSH1 0x40 MLOAD PUSH32 0xDEFE7BD300000000000000000000000000000000000000000000000000000000 DUP2 MSTORE PUSH1 0x4 ADD PUSH3 0x27B SWAP2 SWAP1 PUSH3 0xB99 JUMP JUMPDEST PUSH1 0x40 MLOAD DUP1 SWAP2 SUB SWAP1 REVERT JUMPDEST DUP2 PUSH1 0x4 PUSH1 0x2 ADD DUP2 SWAP1 SSTORE POP DUP1 PUSH0 ADD MLOAD PUSH0 DUP1 ADD PUSH0 PUSH2 0x100 EXP DUP2 SLOAD DUP2 PUSH2 0xFFFF MUL NOT AND SWAP1 DUP4 PUSH2 0xFFFF AND MUL OR SWAP1 SSTORE POP DUP1 PUSH1 0x20 ADD MLOAD PUSH0 DUP1 ADD PUSH1 0x2 PUSH2 0x100 EXP DUP2 SLOAD DUP2 PUSH4 0xFFFFFFFF MUL NOT AND SWAP1 DUP4 PUSH4 0xFFFFFFFF AND MUL OR SWAP1 SSTORE POP DUP1 PUSH1 0x40 ADD MLOAD PUSH0 DUP1 ADD PUSH1 0x6 PUSH2 0x100 EXP DUP2 SLOAD DUP2 PUSH6 0xFFFFFFFFFFFF MUL NOT AND SWAP1 DUP4 PUSH6 0xFFFFFFFFFFFF AND MUL OR SWAP1 SSTORE POP DUP1 PUSH1 0x60 ADD MLOAD PUSH0 DUP1 ADD PUSH1 0xC PUSH2 0x100 EXP DUP2 SLOAD DUP2 PUSH6 0xFFFFFFFFFFFF MUL NOT AND SWAP1 DUP4 PUSH6 0xFFFFFFFFFFFF AND MUL OR SWAP1 SSTORE POP POP POP POP POP PUSH3 0xBB4 JUMP JUMPDEST PUSH0 PUSH1 0x40 MLOAD SWAP1 POP SWAP1 JUMP JUMPDEST PUSH0 DUP1 REVERT JUMPDEST PUSH0 DUP1 REVERT JUMPDEST PUSH0 DUP1 REVERT JUMPDEST PUSH0 PUSH1 0x1F NOT PUSH1 0x1F DUP4 ADD AND SWAP1 POP SWAP2 SWAP1 POP JUMP JUMPDEST PUSH32 0x4E487B7100000000000000000000000000000000000000000000000000000000 PUSH0 MSTORE PUSH1 0x41 PUSH1 0x4 MSTORE PUSH1 0x24 PUSH0 REVERT JUMPDEST PUSH3 0x38F DUP3 PUSH3 0x347 JUMP JUMPDEST DUP2 ADD DUP2 DUP2 LT PUSH8 0xFFFFFFFFFFFFFFFF DUP3 GT OR ISZERO PUSH3 0x3B1 JUMPI PUSH3 0x3B0 PUSH3 0x357 JUMP JUMPDEST JUMPDEST DUP1 PUSH1 0x40 MSTORE POP POP POP JUMP JUMPDEST PUSH0 PUSH3 0x3C5 PUSH3 0x332 JUMP JUMPDEST SWAP1 POP PUSH3 0x3D3 DUP3 DUP3 PUSH3 0x384 JUMP JUMPDEST SWAP2 SWAP1 POP JUMP JUMPDEST PUSH0 DUP1 REVERT JUMPDEST PUSH0 DUP1 REVERT JUMPDEST PUSH0 DUP1 REVERT JUMPDEST PUSH0 PUSH8 0xFFFFFFFFFFFFFFFF DUP3 GT ISZERO PUSH3 0x401 JUMPI PUSH3 0x400 PUSH3 0x357 JUMP JUMPDEST JUMPDEST PUSH3 0x40C DUP3 PUSH3 0x347 JUMP JUMPDEST SWAP1 POP PUSH1 0x20 DUP2 ADD SWAP1 POP SWAP2 SWAP1 POP JUMP JUMPDEST PUSH0 JUMPDEST DUP4 DUP2 LT ISZERO PUSH3 0x438 JUMPI DUP1 DUP3 ADD MLOAD DUP2 DUP5 ADD MSTORE PUSH1 0x20 DUP2 ADD SWAP1 POP PUSH3 0x41B JUMP JUMPDEST PUSH0 DUP5 DUP5 ADD MSTORE POP POP POP POP JUMP JUMPDEST PUSH0 PUSH3 0x459 PUSH3 0x453 DUP5 PUSH3 0x3E4 JUMP JUMPDEST PUSH3 0x3BA JUMP JUMPDEST SWAP1 POP DUP3 DUP2 MSTORE PUSH1 0x20 DUP2 ADD DUP5 DUP5 DUP5 ADD GT ISZERO PUSH3 0x478 JUMPI PUSH3 0x477 PUSH3 0x3E0 JUMP JUMPDEST JUMPDEST PUSH3 0x485 DUP5 DUP3 DUP6 PUSH3 0x419 JUMP JUMPDEST POP SWAP4 SWAP3 POP POP POP JUMP JUMPDEST PUSH0 DUP3 PUSH1 0x1F DUP4 ADD SLT PUSH3 0x4A4 JUMPI PUSH3 0x4A3 PUSH3 0x3DC JUMP JUMPDEST JUMPDEST DUP2 MLOAD PUSH3 0x4B6 DUP5 DUP3 PUSH1 0x20 DUP7 ADD PUSH3 0x443 JUMP JUMPDEST SWAP2 POP POP SWAP3 SWAP2 POP POP JUMP JUMPDEST PUSH0 DUP2 SWAP1 POP SWAP2 SWAP1 POP JUMP JUMPDEST PUSH3 0x4D3 DUP2 PUSH3 0x4BF JUMP JUMPDEST DUP2 EQ PUSH3 0x4DE JUMPI PUSH0 DUP1 REVERT JUMPDEST POP JUMP JUMPDEST PUSH0 DUP2 MLOAD SWAP1 POP PUSH3 0x4F1 DUP2 PUSH3 0x4C8 JUMP JUMPDEST SWAP3 SWAP2 POP POP JUMP JUMPDEST PUSH0 PUSH20 0xFFFFFFFFFFFFFFFFFFFFFFFFFFFFFFFFFFFFFFFF DUP3 AND SWAP1 POP SWAP2 SWAP1 POP JUMP JUMPDEST PUSH0 PUSH3 0x522 DUP3 PUSH3 0x4F7 JUMP JUMPDEST SWAP1 POP SWAP2 SWAP1 POP JUMP JUMPDEST PUSH3 0x534 DUP2 PUSH3 0x516 JUMP JUMPDEST DUP2 EQ PUSH3 0x53F JUMPI PUSH0 DUP1 REVERT JUMPDEST POP JUMP JUMPDEST PUSH0 DUP2 MLOAD SWAP1 POP PUSH3 0x552 DUP2 PUSH3 0x529 JUMP JUMPDEST SWAP3 SWAP2 POP POP JUMP JUMPDEST PUSH0 PUSH1 0x60 DUP3 DUP5 SUB SLT ISZERO PUSH3 0x570 JUMPI PUSH3 0x56F PUSH3 0x343 JUMP JUMPDEST JUMPDEST PUSH3 0x57C PUSH1 0x60 PUSH3 0x3BA JUMP JUMPDEST SWAP1 POP PUSH0 DUP3 ADD MLOAD PUSH8 0xFFFFFFFFFFFFFFFF DUP2 GT ISZERO PUSH3 0x59E JUMPI PUSH3 0x59D PUSH3 0x3D8 JUMP JUMPDEST JUMPDEST PUSH3 0x5AC DUP5 DUP3 DUP6 ADD PUSH3 0x48D JUMP JUMPDEST PUSH0 DUP4 ADD MSTORE POP PUSH1 0x20 PUSH3 0x5C1 DUP5 DUP3 DUP6 ADD PUSH3 0x4E1 JUMP JUMPDEST PUSH1 0x20 DUP4 ADD MSTORE POP PUSH1 0x40 PUSH3 0x5D7 DUP5 DUP3 DUP6 ADD PUSH3 0x542 JUMP JUMPDEST PUSH1 0x40 DUP4 ADD MSTORE POP SWAP3 SWAP2 POP POP JUMP JUMPDEST PUSH0 DUP2 SWAP1 POP SWAP2 SWAP1 POP JUMP JUMPDEST PUSH3 0x5F7 DUP2 PUSH3 0x5E3 JUMP JUMPDEST DUP2 EQ PUSH3 0x602 JUMPI PUSH0 DUP1 REVERT JUMPDEST POP JUMP JUMPDEST PUSH0 DUP2 MLOAD SWAP1 POP PUSH3 0x615 DUP2 PUSH3 0x5EC JUMP JUMPDEST SWAP3 SWAP2 POP POP JUMP JUMPDEST PUSH0 PUSH2 0xFFFF DUP3 AND SWAP1 POP SWAP2 SWAP1 POP JUMP JUMPDEST PUSH3 0x633 DUP2 PUSH3 0x61B JUMP JUMPDEST DUP2 EQ PUSH3 0x63E JUMPI PUSH0 DUP1 REVERT JUMPDEST POP JUMP JUMPDEST PUSH0 DUP2 MLOAD SWAP1 POP PUSH3 0x651 DUP2 PUSH3 0x628 JUMP JUMPDEST SWAP3 SWAP2 POP POP JUMP JUMPDEST PUSH0 PUSH4 0xFFFFFFFF DUP3 AND SWAP1 POP SWAP2 SWAP1 POP JUMP JUMPDEST PUSH3 0x671 DUP2 PUSH3 0x657 JUMP JUMPDEST DUP2 EQ PUSH3 0x67C JUMPI PUSH0 DUP1 REVERT JUMPDEST POP JUMP JUMPDEST PUSH0 DUP2 MLOAD SWAP1 POP PUSH3 0x68F DUP2 PUSH3 0x666 JUMP JUMPDEST SWAP3 SWAP2 POP POP JUMP JUMPDEST PUSH0 PUSH6 0xFFFFFFFFFFFF DUP3 AND SWAP1 POP SWAP2 SWAP1 POP JUMP JUMPDEST PUSH3 0x6B1 DUP2 PUSH3 0x695 JUMP JUMPDEST DUP2 EQ PUSH3 0x6BC JUMPI PUSH0 DUP1 REVERT JUMPDEST POP JUMP JUMPDEST PUSH0 DUP2 MLOAD SWAP1 POP PUSH3 0x6CF DUP2 PUSH3 0x6A6 JUMP JUMPDEST SWAP3 SWAP2 POP POP JUMP JUMPDEST PUSH0 PUSH1 0x80 DUP3 DUP5 SUB SLT ISZERO PUSH3 0x6ED JUMPI PUSH3 0x6EC PUSH3 0x343 JUMP JUMPDEST JUMPDEST PUSH3 0x6F9 PUSH1 0x80 PUSH3 0x3BA JUMP JUMPDEST SWAP1 POP PUSH0 PUSH3 0x70A DUP5 DUP3 DUP6 ADD PUSH3 0x641 JUMP JUMPDEST PUSH0 DUP4 ADD MSTORE POP PUSH1 0x20 PUSH3 0x71F DUP5 DUP3 DUP6 ADD PUSH3 0x67F JUMP JUMPDEST PUSH1 0x20 DUP4 ADD MSTORE POP PUSH1 0x40 PUSH3 0x735 DUP5 DUP3 DUP6 ADD PUSH3 0x6BF JUMP JUMPDEST PUSH1 0x40 DUP4 ADD MSTORE POP PUSH1 0x60 PUSH3 0x74B DUP5 DUP3 DUP6 ADD PUSH3 0x6BF JUMP JUMPDEST PUSH1 0x60 DUP4 ADD MSTORE POP SWAP3 SWAP2 POP POP JUMP JUMPDEST PUSH0 DUP1 PUSH0 DUP1 PUSH1 0xE0 DUP6 DUP8 SUB SLT ISZERO PUSH3 0x772 JUMPI PUSH3 0x771 PUSH3 0x33B JUMP JUMPDEST JUMPDEST PUSH0 DUP6 ADD MLOAD PUSH8 0xFFFFFFFFFFFFFFFF DUP2 GT ISZERO PUSH3 0x792 JUMPI PUSH3 0x791 PUSH3 0x33F JUMP JUMPDEST JUMPDEST PUSH3 0x7A0 DUP8 DUP3 DUP9 ADD PUSH3 0x558 JUMP JUMPDEST SWAP5 POP POP PUSH1 0x20 DUP6 ADD MLOAD PUSH8 0xFFFFFFFFFFFFFFFF DUP2 GT ISZERO PUSH3 0x7C4 JUMPI PUSH3 0x7C3 PUSH3 0x33F JUMP JUMPDEST JUMPDEST PUSH3 0x7D2 DUP8 DUP3 DUP9 ADD PUSH3 0x48D JUMP JUMPDEST SWAP4 POP POP PUSH1 0x40 PUSH3 0x7E5 DUP8 DUP3 DUP9 ADD PUSH3 0x605 JUMP JUMPDEST SWAP3 POP POP PUSH1 0x60 PUSH3 0x7F8 DUP8 DUP3 DUP9 ADD PUSH3 0x6D5 JUMP JUMPDEST SWAP2 POP POP SWAP3 SWAP6 SWAP2 SWAP5 POP SWAP3 POP JUMP JUMPDEST PUSH0 DUP2 MLOAD SWAP1 POP SWAP2 SWAP1 POP JUMP JUMPDEST PUSH32 0x4E487B7100000000000000000000000000000000000000000000000000000000 PUSH0 MSTORE PUSH1 0x22 PUSH1 0x4 MSTORE PUSH1 0x24 PUSH0 REVERT JUMPDEST PUSH0 PUSH1 0x2 DUP3 DIV SWAP1 POP PUSH1 0x1 DUP3 AND DUP1 PUSH3 0x853 JUMPI PUSH1 0x7F DUP3 AND SWAP2 POP JUMPDEST PUSH1 0x20 DUP3 LT DUP2 SUB PUSH3 0x869 JUMPI PUSH3 0x868 PUSH3 0x80E JUMP JUMPDEST JUMPDEST POP SWAP2 SWAP1 POP JUMP JUMPDEST PUSH0 DUP2 SWAP1 POP DUP2 PUSH0 MSTORE PUSH1 0x20 PUSH0 KECCAK256 SWAP1 POP SWAP2 SWAP1 POP JUMP JUMPDEST PUSH0 PUSH1 0x20 PUSH1 0x1F DUP4 ADD DIV SWAP1 POP SWAP2 SWAP1 POP JUMP JUMPDEST PUSH0 DUP3 DUP3 SHL SWAP1 POP SWAP3 SWAP2 POP POP JUMP JUMPDEST PUSH0 PUSH1 0x8 DUP4 MUL PUSH3 0x8CD PUSH32 0xFFFFFFFFFFFFFFFFFFFFFFFFFFFFFFFFFFFFFFFFFFFFFFFFFFFFFFFFFFFFFFFF DUP3 PUSH3 0x890 JUMP JUMPDEST PUSH3 0x8D9 DUP7 DUP4 PUSH3 0x890 JUMP JUMPDEST SWAP6 POP DUP1 NOT DUP5 AND SWAP4 POP DUP1 DUP7 AND DUP5 OR SWAP3 POP POP POP SWAP4 SWAP3 POP POP POP JUMP JUMPDEST PUSH0 DUP2 SWAP1 POP SWAP2 SWAP1 POP JUMP JUMPDEST PUSH0 PUSH3 0x91A PUSH3 0x914 PUSH3 0x90E DUP5 PUSH3 0x5E3 JUMP JUMPDEST PUSH3 0x8F1 JUMP JUMPDEST PUSH3 0x5E3 JUMP JUMPDEST SWAP1 POP SWAP2 SWAP1 POP JUMP JUMPDEST PUSH0 DUP2 SWAP1 POP SWAP2 SWAP1 POP JUMP JUMPDEST PUSH3 0x935 DUP4 PUSH3 0x8FA JUMP JUMPDEST PUSH3 0x94D PUSH3 0x944 DUP3 PUSH3 0x921 JUMP JUMPDEST DUP5 DUP5 SLOAD PUSH3 0x89C JUMP JUMPDEST DUP3 SSTORE POP POP POP POP JUMP JUMPDEST PUSH0 SWAP1 JUMP JUMPDEST PUSH3 0x963 PUSH3 0x955 JUMP JUMPDEST PUSH3 0x970 DUP2 DUP5 DUP5 PUSH3 0x92A JUMP JUMPDEST POP POP POP JUMP JUMPDEST JUMPDEST DUP2 DUP2 LT ISZERO PUSH3 0x997 JUMPI PUSH3 0x98B PUSH0 DUP3 PUSH3 0x959 JUMP JUMPDEST PUSH1 0x1 DUP2 ADD SWAP1 POP PUSH3 0x976 JUMP JUMPDEST POP POP JUMP JUMPDEST PUSH1 0x1F DUP3 GT ISZERO PUSH3 0x9E6 JUMPI PUSH3 0x9B0 DUP2 PUSH3 0x86F JUMP JUMPDEST PUSH3 0x9BB DUP5 PUSH3 0x881 JUMP JUMPDEST DUP2 ADD PUSH1 0x20 DUP6 LT ISZERO PUSH3 0x9CB JUMPI DUP2 SWAP1 POP JUMPDEST PUSH3 0x9E3 PUSH3 0x9DA DUP6 PUSH3 0x881 JUMP JUMPDEST DUP4 ADD DUP3 PUSH3 0x975 JUMP JUMPDEST POP POP JUMPDEST POP POP POP JUMP JUMPDEST PUSH0 DUP3 DUP3 SHR SWAP1 POP SWAP3 SWAP2 POP POP JUMP JUMPDEST PUSH0 PUSH3 0xA08 PUSH0 NOT DUP5 PUSH1 0x8 MUL PUSH3 0x9EB JUMP JUMPDEST NOT DUP1 DUP4 AND SWAP2 POP POP SWAP3 SWAP2 POP POP JUMP JUMPDEST PUSH0 PUSH3 0xA22 DUP4 DUP4 PUSH3 0x9F7 JUMP JUMPDEST SWAP2 POP DUP3 PUSH1 0x2 MUL DUP3 OR SWAP1 POP SWAP3 SWAP2 POP POP JUMP JUMPDEST PUSH3 0xA3D DUP3 PUSH3 0x804 JUMP JUMPDEST PUSH8 0xFFFFFFFFFFFFFFFF DUP2 GT ISZERO PUSH3 0xA59 JUMPI PUSH3 0xA58 PUSH3 0x357 JUMP JUMPDEST JUMPDEST PUSH3 0xA65 DUP3 SLOAD PUSH3 0x83B JUMP JUMPDEST PUSH3 0xA72 DUP3 DUP3 DUP6 PUSH3 0x99B JUMP JUMPDEST PUSH0 PUSH1 0x20 SWAP1 POP PUSH1 0x1F DUP4 GT PUSH1 0x1 DUP2 EQ PUSH3 0xAA8 JUMPI PUSH0 DUP5 ISZERO PUSH3 0xA93 JUMPI DUP3 DUP8 ADD MLOAD SWAP1 POP JUMPDEST PUSH3 0xA9F DUP6 DUP3 PUSH3 0xA15 JUMP JUMPDEST DUP7 SSTORE POP PUSH3 0xB0E JUMP JUMPDEST PUSH1 0x1F NOT DUP5 AND PUSH3 0xAB8 DUP7 PUSH3 0x86F JUMP JUMPDEST PUSH0 JUMPDEST DUP3 DUP2 LT ISZERO PUSH3 0xAE1 JUMPI DUP5 DUP10 ADD MLOAD DUP3 SSTORE PUSH1 0x1 DUP3 ADD SWAP2 POP PUSH1 0x20 DUP6 ADD SWAP5 POP PUSH1 0x20 DUP2 ADD SWAP1 POP PUSH3 0xABA JUMP JUMPDEST DUP7 DUP4 LT ISZERO PUSH3 0xB01 JUMPI DUP5 DUP10 ADD MLOAD PUSH3 0xAFD PUSH1 0x1F DUP10 AND DUP3 PUSH3 0x9F7 JUMP JUMPDEST DUP4 SSTORE POP JUMPDEST PUSH1 0x1 PUSH1 0x2 DUP9 MUL ADD DUP9 SSTORE POP POP POP JUMPDEST POP POP POP POP POP POP JUMP JUMPDEST PUSH0 DUP3 DUP3 MSTORE PUSH1 0x20 DUP3 ADD SWAP1 POP SWAP3 SWAP2 POP POP JUMP JUMPDEST PUSH0 PUSH3 0xB32 DUP3 PUSH3 0x804 JUMP JUMPDEST PUSH3 0xB3E DUP2 DUP6 PUSH3 0xB16 JUMP JUMPDEST SWAP4 POP PUSH3 0xB50 DUP2 DUP6 PUSH1 0x20 DUP7 ADD PUSH3 0x419 JUMP JUMPDEST PUSH3 0xB5B DUP2 PUSH3 0x347 JUMP JUMPDEST DUP5 ADD SWAP2 POP POP SWAP3 SWAP2 POP POP JUMP JUMPDEST PUSH0 PUSH1 0x20 DUP3 ADD SWAP1 POP DUP2 DUP2 SUB PUSH0 DUP4 ADD MSTORE PUSH3 0xB80 DUP2 DUP5 PUSH3 0xB26 JUMP JUMPDEST SWAP1 POP SWAP3 SWAP2 POP POP JUMP JUMPDEST PUSH3 0xB93 DUP2 PUSH3 0x516 JUMP JUMPDEST DUP3 MSTORE POP POP JUMP JUMPDEST PUSH0 PUSH1 0x20 DUP3 ADD SWAP1 POP PUSH3 0xBAE PUSH0 DUP4 ADD DUP5 PUSH3 0xB88 JUMP JUMPDEST SWAP3 SWAP2 POP POP JUMP JUMPDEST PUSH2 0x1888 DUP1 PUSH3 0xBC2 PUSH0 CODECOPY PUSH0 RETURN INVALID PUSH1 0x80 PUSH1 0x40 MSTORE CALLVALUE DUP1 ISZERO PUSH2 0xF JUMPI PUSH0 DUP1 REVERT JUMPDEST POP PUSH1 0x4 CALLDATASIZE LT PUSH2 0xCD JUMPI PUSH0 CALLDATALOAD PUSH1 0xE0 SHR DUP1 PUSH4 0xA3EC138D GT PUSH2 0x8A JUMPI DUP1 PUSH4 0xD4564D16 GT PUSH2 0x64 JUMPI DUP1 PUSH4 0xD4564D16 EQ PUSH2 0x201 JUMPI DUP1 PUSH4 0xE2BA53F0 EQ PUSH2 0x21F JUMPI DUP1 PUSH4 0xEC5BF07B EQ PUSH2 0x23D JUMPI DUP1 PUSH4 0xF8B1B08A EQ PUSH2 0x25B JUMPI PUSH2 0xCD JUMP JUMPDEST DUP1 PUSH4 0xA3EC138D EQ PUSH2 0x192 JUMPI DUP1 PUSH4 0xB3A05246 EQ PUSH2 0x1C5 JUMPI DUP1 PUSH4 0xBC33C7D7 EQ PUSH2 0x1E3 JUMPI PUSH2 0xCD JUMP JUMPDEST DUP1 PUSH4 0x121B93F EQ PUSH2 0xD1 JUMPI DUP1 PUSH4 0x13CF08B EQ PUSH2 0xED JUMPI DUP1 PUSH4 0x2E4176CF EQ PUSH2 0x11E JUMPI DUP1 PUSH4 0x4731CA2B EQ PUSH2 0x13C JUMPI DUP1 PUSH4 0x5C19A95C EQ PUSH2 0x15A JUMPI DUP1 PUSH4 0x9E7B8D61 EQ PUSH2 0x176 JUMPI JUMPDEST PUSH0 DUP1 REVERT JUMPDEST PUSH2 0xEB PUSH1 0x4 DUP1 CALLDATASIZE SUB DUP2 ADD SWAP1 PUSH2 0xE6 SWAP2 SWAP1 PUSH2 0xEAD JUMP JUMPDEST PUSH2 0x279 JUMP JUMPDEST STOP JUMPDEST PUSH2 0x107 PUSH1 0x4 DUP1 CALLDATASIZE SUB DUP2 ADD SWAP1 PUSH2 0x102 SWAP2 SWAP1 PUSH2 0xEAD JUMP JUMPDEST PUSH2 0x3B4 JUMP JUMPDEST PUSH1 0x40 MLOAD PUSH2 0x115 SWAP3 SWAP2 SWAP1 PUSH2 0xEFF JUMP JUMPDEST PUSH1 0x40 MLOAD DUP1 SWAP2 SUB SWAP1 RETURN JUMPDEST PUSH2 0x126 PUSH2 0x3E3 JUMP JUMPDEST PUSH1 0x40 MLOAD PUSH2 0x133 SWAP2 SWAP1 PUSH2 0xF65 JUMP JUMPDEST PUSH1 0x40 MLOAD DUP1 SWAP2 SUB SWAP1 RETURN JUMPDEST PUSH2 0x144 PUSH2 0x408 JUMP JUMPDEST PUSH1 0x40 MLOAD PUSH2 0x151 SWAP2 SWAP1 PUSH2 0xFDC JUMP JUMPDEST PUSH1 0x40 MLOAD DUP1 SWAP2 SUB SWAP1 RETURN JUMPDEST PUSH2 0x174 PUSH1 0x4 DUP1 CALLDATASIZE SUB DUP2 ADD SWAP1 PUSH2 0x16F SWAP2 SWAP1 PUSH2 0x101F JUMP JUMPDEST PUSH2 0x4D5 JUMP JUMPDEST STOP JUMPDEST PUSH2 0x190 PUSH1 0x4 DUP1 CALLDATASIZE SUB DUP2 ADD SWAP1 PUSH2 0x18B SWAP2 SWAP1 PUSH2 0x101F JUMP JUMPDEST PUSH2 0x85A JUMP JUMPDEST STOP JUMPDEST PUSH2 0x1AC PUSH1 0x4 DUP1 CALLDATASIZE SUB DUP2 ADD SWAP1 PUSH2 0x1A7 SWAP2 SWAP1 PUSH2 0x101F JUMP JUMPDEST PUSH2 0xA08 JUMP JUMPDEST PUSH1 0x40 MLOAD PUSH2 0x1BC SWAP5 SWAP4 SWAP3 SWAP2 SWAP1 PUSH2 0x1064 JUMP JUMPDEST PUSH1 0x40 MLOAD DUP1 SWAP2 SUB SWAP1 RETURN JUMPDEST PUSH2 0x1CD PUSH2 0xA60 JUMP JUMPDEST PUSH1 0x40 MLOAD PUSH2 0x1DA SWAP2 SWAP1 PUSH2 0x1154 JUMP JUMPDEST PUSH1 0x40 MLOAD DUP1 SWAP2 SUB SWAP1 RETURN JUMPDEST PUSH2 0x1EB PUSH2 0xB12 JUMP JUMPDEST PUSH1 0x40 MLOAD PUSH2 0x1F8 SWAP2 SWAP1 PUSH2 0x1253 JUMP JUMPDEST PUSH1 0x40 MLOAD DUP1 SWAP2 SUB SWAP1 RETURN JUMPDEST PUSH2 0x209 PUSH2 0xC1A JUMP JUMPDEST PUSH1 0x40 MLOAD PUSH2 0x216 SWAP2 SWAP1 PUSH2 0x1273 JUMP JUMPDEST PUSH1 0x40 MLOAD DUP1 SWAP2 SUB SWAP1 RETURN JUMPDEST PUSH2 0x227 PUSH2 0xC9B JUMP JUMPDEST PUSH1 0x40 MLOAD PUSH2 0x234 SWAP2 SWAP1 PUSH2 0x128C JUMP JUMPDEST PUSH1 0x40 MLOAD DUP1 SWAP2 SUB SWAP1 RETURN JUMPDEST PUSH2 0x245 PUSH2 0xCCB JUMP JUMPDEST PUSH1 0x40 MLOAD PUSH2 0x252 SWAP2 SWAP1 PUSH2 0x1273 JUMP JUMPDEST PUSH1 0x40 MLOAD DUP1 SWAP2 SUB SWAP1 RETURN JUMPDEST PUSH2 0x263 PUSH2 0xD33 JUMP JUMPDEST PUSH1 0x40 MLOAD PUSH2 0x270 SWAP2 SWAP1 PUSH2 0x12F7 JUMP JUMPDEST PUSH1 0x40 MLOAD DUP1 SWAP2 SUB SWAP1 RETURN JUMPDEST PUSH0 PUSH1 0x9 PUSH0 CALLER PUSH20 0xFFFFFFFFFFFFFFFFFFFFFFFFFFFFFFFFFFFFFFFF AND PUSH20 0xFFFFFFFFFFFFFFFFFFFFFFFFFFFFFFFFFFFFFFFF AND DUP2 MSTORE PUSH1 0x20 ADD SWAP1 DUP2 MSTORE PUSH1 0x20 ADD PUSH0 KECCAK256 SWAP1 POP PUSH0 DUP2 PUSH0 ADD SLOAD SUB PUSH2 0x2FE JUMPI PUSH1 0x40 MLOAD PUSH32 0x8C379A000000000000000000000000000000000000000000000000000000000 DUP2 MSTORE PUSH1 0x4 ADD PUSH2 0x2F5 SWAP1 PUSH2 0x1371 JUMP JUMPDEST PUSH1 0x40 MLOAD DUP1 SWAP2 SUB SWAP1 REVERT JUMPDEST DUP1 PUSH1 0x1 ADD PUSH0 SWAP1 SLOAD SWAP1 PUSH2 0x100 EXP SWAP1 DIV PUSH1 0xFF AND ISZERO PUSH2 0x34F JUMPI PUSH1 0x40 MLOAD PUSH32 0x8C379A000000000000000000000000000000000000000000000000000000000 DUP2 MSTORE PUSH1 0x4 ADD PUSH2 0x346 SWAP1 PUSH2 0x13D9 JUMP JUMPDEST PUSH1 0x40 MLOAD DUP1 SWAP2 SUB SWAP1 REVERT JUMPDEST PUSH1 0x1 DUP2 PUSH1 0x1 ADD PUSH0 PUSH2 0x100 EXP DUP2 SLOAD DUP2 PUSH1 0xFF MUL NOT AND SWAP1 DUP4 ISZERO ISZERO MUL OR SWAP1 SSTORE POP DUP2 DUP2 PUSH1 0x2 ADD DUP2 SWAP1 SSTORE POP DUP1 PUSH0 ADD SLOAD PUSH1 0xA DUP4 DUP2 SLOAD DUP2 LT PUSH2 0x38C JUMPI PUSH2 0x38B PUSH2 0x13F7 JUMP JUMPDEST JUMPDEST SWAP1 PUSH0 MSTORE PUSH1 0x20 PUSH0 KECCAK256 SWAP1 PUSH1 0x2 MUL ADD PUSH1 0x1 ADD PUSH0 DUP3 DUP3 SLOAD PUSH2 0x3A9 SWAP2 SWAP1 PUSH2 0x1451 JUMP JUMPDEST SWAP3 POP POP DUP2 SWAP1 SSTORE POP POP POP JUMP JUMPDEST PUSH1 0xA DUP2 DUP2 SLOAD DUP2 LT PUSH2 0x3C3 JUMPI PUSH0 DUP1 REVERT JUMPDEST SWAP1 PUSH0 MSTORE PUSH1 0x20 PUSH0 KECCAK256 SWAP1 PUSH1 0x2 MUL ADD PUSH0 SWAP2 POP SWAP1 POP DUP1 PUSH0 ADD SLOAD SWAP1 DUP1 PUSH1 0x1 ADD SLOAD SWAP1 POP DUP3 JUMP JUMPDEST PUSH1 0x7 PUSH0 SWAP1 SLOAD SWAP1 PUSH2 0x100 EXP SWAP1 DIV PUSH20 0xFFFFFFFFFFFFFFFFFFFFFFFFFFFFFFFFFFFFFFFF AND DUP2 JUMP JUMPDEST PUSH2 0x410 PUSH2 0xDB6 JUMP JUMPDEST PUSH1 0x4 PUSH1 0x40 MLOAD DUP1 PUSH1 0x60 ADD PUSH1 0x40 MSTORE SWAP1 DUP2 PUSH0 DUP3 ADD PUSH0 SWAP1 SLOAD SWAP1 PUSH2 0x100 EXP SWAP1 DIV PUSH20 0xFFFFFFFFFFFFFFFFFFFFFFFFFFFFFFFFFFFFFFFF AND PUSH20 0xFFFFFFFFFFFFFFFFFFFFFFFFFFFFFFFFFFFFFFFF AND PUSH20 0xFFFFFFFFFFFFFFFFFFFFFFFFFFFFFFFFFFFFFFFF AND DUP2 MSTORE PUSH1 0x20 ADD PUSH1 0x1 DUP3 ADD PUSH0 SWAP1 SLOAD SWAP1 PUSH2 0x100 EXP SWAP1 DIV PUSH20 0xFFFFFFFFFFFFFFFFFFFFFFFFFFFFFFFFFFFFFFFF AND PUSH20 0xFFFFFFFFFFFFFFFFFFFFFFFFFFFFFFFFFFFFFFFF AND PUSH20 0xFFFFFFFFFFFFFFFFFFFFFFFFFFFFFFFFFFFFFFFF AND DUP2 MSTORE PUSH1 0x20 ADD PUSH1 0x2 DUP3 ADD SLOAD DUP2 MSTORE POP POP SWAP1 POP SWAP1 JUMP JUMPDEST PUSH0 PUSH1 0x9 PUSH0 CALLER PUSH20 0xFFFFFFFFFFFFFFFFFFFFFFFFFFFFFFFFFFFFFFFF AND PUSH20 0xFFFFFFFFFFFFFFFFFFFFFFFFFFFFFFFFFFFFFFFF AND DUP2 MSTORE PUSH1 0x20 ADD SWAP1 DUP2 MSTORE PUSH1 0x20 ADD PUSH0 KECCAK256 SWAP1 POP DUP1 PUSH1 0x1 ADD PUSH0 SWAP1 SLOAD SWAP1 PUSH2 0x100 EXP SWAP1 DIV PUSH1 0xFF AND ISZERO PUSH2 0x566 JUMPI PUSH1 0x40 MLOAD PUSH32 0x8C379A000000000000000000000000000000000000000000000000000000000 DUP2 MSTORE PUSH1 0x4 ADD PUSH2 0x55D SWAP1 PUSH2 0x14CE JUMP JUMPDEST PUSH1 0x40 MLOAD DUP1 SWAP2 SUB SWAP1 REVERT JUMPDEST CALLER PUSH20 0xFFFFFFFFFFFFFFFFFFFFFFFFFFFFFFFFFFFFFFFF AND DUP3 PUSH20 0xFFFFFFFFFFFFFFFFFFFFFFFFFFFFFFFFFFFFFFFF AND SUB PUSH2 0x5D4 JUMPI PUSH1 0x40 MLOAD PUSH32 0x8C379A000000000000000000000000000000000000000000000000000000000 DUP2 MSTORE PUSH1 0x4 ADD PUSH2 0x5CB SWAP1 PUSH2 0x1536 JUMP JUMPDEST PUSH1 0x40 MLOAD DUP1 SWAP2 SUB SWAP1 REVERT JUMPDEST JUMPDEST PUSH0 PUSH20 0xFFFFFFFFFFFFFFFFFFFFFFFFFFFFFFFFFFFFFFFF AND PUSH1 0x9 PUSH0 DUP5 PUSH20 0xFFFFFFFFFFFFFFFFFFFFFFFFFFFFFFFFFFFFFFFF AND PUSH20 0xFFFFFFFFFFFFFFFFFFFFFFFFFFFFFFFFFFFFFFFF AND DUP2 MSTORE PUSH1 0x20 ADD SWAP1 DUP2 MSTORE PUSH1 0x20 ADD PUSH0 KECCAK256 PUSH1 0x1 ADD PUSH1 0x1 SWAP1 SLOAD SWAP1 PUSH2 0x100 EXP SWAP1 DIV PUSH20 0xFFFFFFFFFFFFFFFFFFFFFFFFFFFFFFFFFFFFFFFF AND PUSH20 0xFFFFFFFFFFFFFFFFFFFFFFFFFFFFFFFFFFFFFFFF AND EQ PUSH2 0x73E JUMPI PUSH1 0x9 PUSH0 DUP4 PUSH20 0xFFFFFFFFFFFFFFFFFFFFFFFFFFFFFFFFFFFFFFFF AND PUSH20 0xFFFFFFFFFFFFFFFFFFFFFFFFFFFFFFFFFFFFFFFF AND DUP2 MSTORE PUSH1 0x20 ADD SWAP1 DUP2 MSTORE PUSH1 0x20 ADD PUSH0 KECCAK256 PUSH1 0x1 ADD PUSH1 0x1 SWAP1 SLOAD SWAP1 PUSH2 0x100 EXP SWAP1 DIV PUSH20 0xFFFFFFFFFFFFFFFFFFFFFFFFFFFFFFFFFFFFFFFF AND SWAP2 POP CALLER PUSH20 0xFFFFFFFFFFFFFFFFFFFFFFFFFFFFFFFFFFFFFFFF AND DUP3 PUSH20 0xFFFFFFFFFFFFFFFFFFFFFFFFFFFFFFFFFFFFFFFF AND SUB PUSH2 0x739 JUMPI PUSH1 0x40 MLOAD PUSH32 0x8C379A000000000000000000000000000000000000000000000000000000000 DUP2 MSTORE PUSH1 0x4 ADD PUSH2 0x730 SWAP1 PUSH2 0x159E JUMP JUMPDEST PUSH1 0x40 MLOAD DUP1 SWAP2 SUB SWAP1 REVERT JUMPDEST PUSH2 0x5D5 JUMP JUMPDEST PUSH1 0x1 DUP2 PUSH1 0x1 ADD PUSH0 PUSH2 0x100 EXP DUP2 SLOAD DUP2 PUSH1 0xFF MUL NOT AND SWAP1 DUP4 ISZERO ISZERO MUL OR SWAP1 SSTORE POP DUP2 DUP2 PUSH1 0x1 ADD PUSH1 0x1 PUSH2 0x100 EXP DUP2 SLOAD DUP2 PUSH20 0xFFFFFFFFFFFFFFFFFFFFFFFFFFFFFFFFFFFFFFFF MUL NOT AND SWAP1 DUP4 PUSH20 0xFFFFFFFFFFFFFFFFFFFFFFFFFFFFFFFFFFFFFFFF AND MUL OR SWAP1 SSTORE POP PUSH0 PUSH1 0x9 PUSH0 DUP5 PUSH20 0xFFFFFFFFFFFFFFFFFFFFFFFFFFFFFFFFFFFFFFFF AND PUSH20 0xFFFFFFFFFFFFFFFFFFFFFFFFFFFFFFFFFFFFFFFF AND DUP2 MSTORE PUSH1 0x20 ADD SWAP1 DUP2 MSTORE PUSH1 0x20 ADD PUSH0 KECCAK256 SWAP1 POP DUP1 PUSH1 0x1 ADD PUSH0 SWAP1 SLOAD SWAP1 PUSH2 0x100 EXP SWAP1 DIV PUSH1 0xFF AND ISZERO PUSH2 0x838 JUMPI DUP2 PUSH0 ADD SLOAD PUSH1 0xA DUP3 PUSH1 0x2 ADD SLOAD DUP2 SLOAD DUP2 LT PUSH2 0x80F JUMPI PUSH2 0x80E PUSH2 0x13F7 JUMP JUMPDEST JUMPDEST SWAP1 PUSH0 MSTORE PUSH1 0x20 PUSH0 KECCAK256 SWAP1 PUSH1 0x2 MUL ADD PUSH1 0x1 ADD PUSH0 DUP3 DUP3 SLOAD PUSH2 0x82C SWAP2 SWAP1 PUSH2 0x1451 JUMP JUMPDEST SWAP3 POP POP DUP2 SWAP1 SSTORE POP PUSH2 0x855 JUMP JUMPDEST DUP2 PUSH0 ADD SLOAD DUP2 PUSH0 ADD PUSH0 DUP3 DUP3 SLOAD PUSH2 0x84D SWAP2 SWAP1 PUSH2 0x1451 JUMP JUMPDEST SWAP3 POP POP DUP2 SWAP1 SSTORE POP JUMPDEST POP POP POP JUMP JUMPDEST PUSH1 0x7 PUSH0 SWAP1 SLOAD SWAP1 PUSH2 0x100 EXP SWAP1 DIV PUSH20 0xFFFFFFFFFFFFFFFFFFFFFFFFFFFFFFFFFFFFFFFF AND PUSH20 0xFFFFFFFFFFFFFFFFFFFFFFFFFFFFFFFFFFFFFFFF AND CALLER PUSH20 0xFFFFFFFFFFFFFFFFFFFFFFFFFFFFFFFFFFFFFFFF AND EQ PUSH2 0x8E9 JUMPI PUSH1 0x40 MLOAD PUSH32 0x8C379A000000000000000000000000000000000000000000000000000000000 DUP2 MSTORE PUSH1 0x4 ADD PUSH2 0x8E0 SWAP1 PUSH2 0x162C JUMP JUMPDEST PUSH1 0x40 MLOAD DUP1 SWAP2 SUB SWAP1 REVERT JUMPDEST PUSH1 0x9 PUSH0 DUP3 PUSH20 0xFFFFFFFFFFFFFFFFFFFFFFFFFFFFFFFFFFFFFFFF AND PUSH20 0xFFFFFFFFFFFFFFFFFFFFFFFFFFFFFFFFFFFFFFFF AND DUP2 MSTORE PUSH1 0x20 ADD SWAP1 DUP2 MSTORE PUSH1 0x20 ADD PUSH0 KECCAK256 PUSH1 0x1 ADD PUSH0 SWAP1 SLOAD SWAP1 PUSH2 0x100 EXP SWAP1 DIV PUSH1 0xFF AND ISZERO PUSH2 0x976 JUMPI PUSH1 0x40 MLOAD PUSH32 0x8C379A000000000000000000000000000000000000000000000000000000000 DUP2 MSTORE PUSH1 0x4 ADD PUSH2 0x96D SWAP1 PUSH2 0x1694 JUMP JUMPDEST PUSH1 0x40 MLOAD DUP1 SWAP2 SUB SWAP1 REVERT JUMPDEST PUSH0 PUSH1 0x9 PUSH0 DUP4 PUSH20 0xFFFFFFFFFFFFFFFFFFFFFFFFFFFFFFFFFFFFFFFF AND PUSH20 0xFFFFFFFFFFFFFFFFFFFFFFFFFFFFFFFFFFFFFFFF AND DUP2 MSTORE PUSH1 0x20 ADD SWAP1 DUP2 MSTORE PUSH1 0x20 ADD PUSH0 KECCAK256 PUSH0 ADD SLOAD EQ PUSH2 0x9C0 JUMPI PUSH0 DUP1 REVERT JUMPDEST PUSH1 0x1 PUSH1 0x9 PUSH0 DUP4 PUSH20 0xFFFFFFFFFFFFFFFFFFFFFFFFFFFFFFFFFFFFFFFF AND PUSH20 0xFFFFFFFFFFFFFFFFFFFFFFFFFFFFFFFFFFFFFFFF AND DUP2 MSTORE PUSH1 0x20 ADD SWAP1 DUP2 MSTORE PUSH1 0x20 ADD PUSH0 KECCAK256 PUSH0 ADD DUP2 SWAP1 SSTORE POP POP JUMP JUMPDEST PUSH1 0x9 PUSH1 0x20 MSTORE DUP1 PUSH0 MSTORE PUSH1 0x40 PUSH0 KECCAK256 PUSH0 SWAP2 POP SWAP1 POP DUP1 PUSH0 ADD SLOAD SWAP1 DUP1 PUSH1 0x1 ADD PUSH0 SWAP1 SLOAD SWAP1 PUSH2 0x100 EXP SWAP1 DIV PUSH1 0xFF AND SWAP1 DUP1 PUSH1 0x1 ADD PUSH1 0x1 SWAP1 SLOAD SWAP1 PUSH2 0x100 EXP SWAP1 DIV PUSH20 0xFFFFFFFFFFFFFFFFFFFFFFFFFFFFFFFFFFFFFFFF AND SWAP1 DUP1 PUSH1 0x2 ADD SLOAD SWAP1 POP DUP5 JUMP JUMPDEST PUSH2 0xA68 PUSH2 0xE00 JUMP JUMPDEST PUSH0 PUSH1 0x40 MLOAD DUP1 PUSH1 0x80 ADD PUSH1 0x40 MSTORE SWAP1 DUP2 PUSH0 DUP3 ADD PUSH0 SWAP1 SLOAD SWAP1 PUSH2 0x100 EXP SWAP1 DIV PUSH2 0xFFFF AND PUSH2 0xFFFF AND PUSH2 0xFFFF AND DUP2 MSTORE PUSH1 0x20 ADD PUSH0 DUP3 ADD PUSH1 0x2 SWAP1 SLOAD SWAP1 PUSH2 0x100 EXP SWAP1 DIV PUSH4 0xFFFFFFFF AND PUSH4 0xFFFFFFFF AND PUSH4 0xFFFFFFFF AND DUP2 MSTORE PUSH1 0x20 ADD PUSH0 DUP3 ADD PUSH1 0x6 SWAP1 SLOAD SWAP1 PUSH2 0x100 EXP SWAP1 DIV PUSH6 0xFFFFFFFFFFFF AND PUSH6 0xFFFFFFFFFFFF AND PUSH6 0xFFFFFFFFFFFF AND DUP2 MSTORE PUSH1 0x20 ADD PUSH0 DUP3 ADD PUSH1 0xC SWAP1 SLOAD SWAP1 PUSH2 0x100 EXP SWAP1 DIV PUSH6 0xFFFFFFFFFFFF AND PUSH6 0xFFFFFFFFFFFF AND PUSH6 0xFFFFFFFFFFFF AND DUP2 MSTORE POP POP SWAP1 POP SWAP1 JUMP JUMPDEST PUSH2 0xB1A PUSH2 0xE3E JUMP JUMPDEST PUSH1 0x1 PUSH1 0x40 MLOAD DUP1 PUSH1 0x60 ADD PUSH1 0x40 MSTORE SWAP1 DUP2 PUSH0 DUP3 ADD DUP1 SLOAD PUSH2 0xB36 SWAP1 PUSH2 0x16DF JUMP JUMPDEST DUP1 PUSH1 0x1F ADD PUSH1 0x20 DUP1 SWAP2 DIV MUL PUSH1 0x20 ADD PUSH1 0x40 MLOAD SWAP1 DUP2 ADD PUSH1 0x40 MSTORE DUP1 SWAP3 SWAP2 SWAP1 DUP2 DUP2 MSTORE PUSH1 0x20 ADD DUP3 DUP1 SLOAD PUSH2 0xB62 SWAP1 PUSH2 0x16DF JUMP JUMPDEST DUP1 ISZERO PUSH2 0xBAD JUMPI DUP1 PUSH1 0x1F LT PUSH2 0xB84 JUMPI PUSH2 0x100 DUP1 DUP4 SLOAD DIV MUL DUP4 MSTORE SWAP2 PUSH1 0x20 ADD SWAP2 PUSH2 0xBAD JUMP JUMPDEST DUP3 ADD SWAP2 SWAP1 PUSH0 MSTORE PUSH1 0x20 PUSH0 KECCAK256 SWAP1 JUMPDEST DUP2 SLOAD DUP2 MSTORE SWAP1 PUSH1 0x1 ADD SWAP1 PUSH1 0x20 ADD DUP1 DUP4 GT PUSH2 0xB90 JUMPI DUP3 SWAP1 SUB PUSH1 0x1F AND DUP3 ADD SWAP2 JUMPDEST POP POP POP POP POP DUP2 MSTORE PUSH1 0x20 ADD PUSH1 0x1 DUP3 ADD SLOAD DUP2 MSTORE PUSH1 0x20 ADD PUSH1 0x2 DUP3 ADD PUSH0 SWAP1 SLOAD SWAP1 PUSH2 0x100 EXP SWAP1 DIV PUSH20 0xFFFFFFFFFFFFFFFFFFFFFFFFFFFFFFFFFFFFFFFF AND PUSH20 0xFFFFFFFFFFFFFFFFFFFFFFFFFFFFFFFFFFFFFFFF AND PUSH20 0xFFFFFFFFFFFFFFFFFFFFFFFFFFFFFFFFFFFFFFFF AND DUP2 MSTORE POP POP SWAP1 POP SWAP1 JUMP JUMPDEST PUSH0 DUP1 PUSH0 SWAP1 POP PUSH0 JUMPDEST PUSH1 0xA DUP1 SLOAD SWAP1 POP DUP2 LT ISZERO PUSH2 0xC96 JUMPI DUP2 PUSH1 0xA DUP3 DUP2 SLOAD DUP2 LT PUSH2 0xC43 JUMPI PUSH2 0xC42 PUSH2 0x13F7 JUMP JUMPDEST JUMPDEST SWAP1 PUSH0 MSTORE PUSH1 0x20 PUSH0 KECCAK256 SWAP1 PUSH1 0x2 MUL ADD PUSH1 0x1 ADD SLOAD GT ISZERO PUSH2 0xC83 JUMPI PUSH1 0xA DUP2 DUP2 SLOAD DUP2 LT PUSH2 0xC6D JUMPI PUSH2 0xC6C PUSH2 0x13F7 JUMP JUMPDEST JUMPDEST SWAP1 PUSH0 MSTORE PUSH1 0x20 PUSH0 KECCAK256 SWAP1 PUSH1 0x2 MUL ADD PUSH1 0x1 ADD SLOAD SWAP2 POP DUP1 SWAP3 POP JUMPDEST DUP1 DUP1 PUSH2 0xC8E SWAP1 PUSH2 0x170F JUMP JUMPDEST SWAP2 POP POP PUSH2 0xC21 JUMP JUMPDEST POP POP SWAP1 JUMP JUMPDEST PUSH0 PUSH1 0xA PUSH2 0xCA6 PUSH2 0xC1A JUMP JUMPDEST DUP2 SLOAD DUP2 LT PUSH2 0xCB7 JUMPI PUSH2 0xCB6 PUSH2 0x13F7 JUMP JUMPDEST JUMPDEST SWAP1 PUSH0 MSTORE PUSH1 0x20 PUSH0 KECCAK256 SWAP1 PUSH1 0x2 MUL ADD PUSH0 ADD SLOAD SWAP1 POP SWAP1 JUMP JUMPDEST PUSH0 PUSH1 0x4 PUSH0 ADD PUSH0 SWAP1 SLOAD SWAP1 PUSH2 0x100 EXP SWAP1 DIV PUSH20 0xFFFFFFFFFFFFFFFFFFFFFFFFFFFFFFFFFFFFFFFF AND PUSH1 0x4 PUSH1 0x2 ADD SLOAD PUSH2 0xCFE PUSH2 0xD33 JUMP JUMPDEST PUSH1 0x1 DUP1 ADD SLOAD PUSH1 0x40 MLOAD PUSH1 0x20 ADD PUSH2 0xD16 SWAP5 SWAP4 SWAP3 SWAP2 SWAP1 PUSH2 0x1756 JUMP JUMPDEST PUSH1 0x40 MLOAD PUSH1 0x20 DUP2 DUP4 SUB SUB DUP2 MSTORE SWAP1 PUSH1 0x40 MSTORE DUP1 MLOAD SWAP1 PUSH1 0x20 ADD KECCAK256 PUSH0 SHR SWAP1 POP SWAP1 JUMP JUMPDEST PUSH1 0x60 PUSH1 0x1 PUSH0 ADD PUSH1 0x40 MLOAD PUSH1 0x24 ADD PUSH1 0x40 MLOAD PUSH1 0x20 DUP2 DUP4 SUB SUB DUP2 MSTORE SWAP1 PUSH1 0x40 MSTORE SWAP1 PUSH1 0x40 MLOAD PUSH2 0xD5C SWAP2 SWAP1 PUSH2 0x183C JUMP JUMPDEST PUSH1 0x40 MLOAD DUP1 SWAP2 SUB SWAP1 KECCAK256 PUSH28 0xFFFFFFFFFFFFFFFFFFFFFFFFFFFFFFFFFFFFFFFFFFFFFFFFFFFFFFFF NOT AND PUSH1 0x20 DUP3 ADD DUP1 MLOAD PUSH28 0xFFFFFFFFFFFFFFFFFFFFFFFFFFFFFFFFFFFFFFFFFFFFFFFFFFFFFFFF DUP4 DUP2 DUP4 AND OR DUP4 MSTORE POP POP POP POP SWAP1 POP SWAP1 JUMP JUMPDEST PUSH1 0x40 MLOAD DUP1 PUSH1 0x60 ADD PUSH1 0x40 MSTORE DUP1 PUSH0 PUSH20 0xFFFFFFFFFFFFFFFFFFFFFFFFFFFFFFFFFFFFFFFF AND DUP2 MSTORE PUSH1 0x20 ADD PUSH0 PUSH20 0xFFFFFFFFFFFFFFFFFFFFFFFFFFFFFFFFFFFFFFFF AND DUP2 MSTORE PUSH1 0x20 ADD PUSH0 DUP2 MSTORE POP SWAP1 JUMP JUMPDEST PUSH1 0x40 MLOAD DUP1 PUSH1 0x80 ADD PUSH1 0x40 MSTORE DUP1 PUSH0 PUSH2 0xFFFF AND DUP2 MSTORE PUSH1 0x20 ADD PUSH0 PUSH4 0xFFFFFFFF AND DUP2 MSTORE PUSH1 0x20 ADD PUSH0 PUSH6 0xFFFFFFFFFFFF AND DUP2 MSTORE PUSH1 0x20 ADD PUSH0 PUSH6 0xFFFFFFFFFFFF AND DUP2 MSTORE POP SWAP1 JUMP JUMPDEST PUSH1 0x40 MLOAD DUP1 PUSH1 0x60 ADD PUSH1 0x40 MSTORE DUP1 PUSH1 0x60 DUP2 MSTORE PUSH1 0x20 ADD PUSH0 DUP1 NOT AND DUP2 MSTORE PUSH1 0x20 ADD PUSH0 PUSH20 0xFFFFFFFFFFFFFFFFFFFFFFFFFFFFFFFFFFFFFFFF AND DUP2 MSTORE POP SWAP1 JUMP JUMPDEST PUSH0 DUP1 REVERT JUMPDEST PUSH0 DUP2 SWAP1 POP SWAP2 SWAP1 POP JUMP JUMPDEST PUSH2 0xE8C DUP2 PUSH2 0xE7A JUMP JUMPDEST DUP2 EQ PUSH2 0xE96 JUMPI PUSH0 DUP1 REVERT JUMPDEST POP JUMP JUMPDEST PUSH0 DUP2 CALLDATALOAD SWAP1 POP PUSH2 0xEA7 DUP2 PUSH2 0xE83 JUMP JUMPDEST SWAP3 SWAP2 POP POP JUMP JUMPDEST PUSH0 PUSH1 0x20 DUP3 DUP5 SUB SLT ISZERO PUSH2 0xEC2 JUMPI PUSH2 0xEC1 PUSH2 0xE76 JUMP JUMPDEST JUMPDEST PUSH0 PUSH2 0xECF DUP5 DUP3 DUP6 ADD PUSH2 0xE99 JUMP JUMPDEST SWAP2 POP POP SWAP3 SWAP2 POP POP JUMP JUMPDEST PUSH0 DUP2 SWAP1 POP SWAP2 SWAP1 POP JUMP JUMPDEST PUSH2 0xEEA DUP2 PUSH2 0xED8 JUMP JUMPDEST DUP3 MSTORE POP POP JUMP JUMPDEST PUSH2 0xEF9 DUP2 PUSH2 0xE7A JUMP JUMPDEST DUP3 MSTORE POP POP JUMP JUMPDEST PUSH0 PUSH1 0x40 DUP3 ADD SWAP1 POP PUSH2 0xF12 PUSH0 DUP4 ADD DUP6 PUSH2 0xEE1 JUMP JUMPDEST PUSH2 0xF1F PUSH1 0x20 DUP4 ADD DUP5 PUSH2 0xEF0 JUMP JUMPDEST SWAP4 SWAP3 POP POP POP JUMP JUMPDEST PUSH0 PUSH20 0xFFFFFFFFFFFFFFFFFFFFFFFFFFFFFFFFFFFFFFFF DUP3 AND SWAP1 POP SWAP2 SWAP1 POP JUMP JUMPDEST PUSH0 PUSH2 0xF4F DUP3 PUSH2 0xF26 JUMP JUMPDEST SWAP1 POP SWAP2 SWAP1 POP JUMP JUMPDEST PUSH2 0xF5F DUP2 PUSH2 0xF45 JUMP JUMPDEST DUP3 MSTORE POP POP JUMP JUMPDEST PUSH0 PUSH1 0x20 DUP3 ADD SWAP1 POP PUSH2 0xF78 PUSH0 DUP4 ADD DUP5 PUSH2 0xF56 JUMP JUMPDEST SWAP3 SWAP2 POP POP JUMP JUMPDEST PUSH2 0xF87 DUP2 PUSH2 0xF45 JUMP JUMPDEST DUP3 MSTORE POP POP JUMP JUMPDEST PUSH2 0xF96 DUP2 PUSH2 0xE7A JUMP JUMPDEST DUP3 MSTORE POP POP JUMP JUMPDEST PUSH1 0x60 DUP3 ADD PUSH0 DUP3 ADD MLOAD PUSH2 0xFB0 PUSH0 DUP6 ADD DUP3 PUSH2 0xF7E JUMP JUMPDEST POP PUSH1 0x20 DUP3 ADD MLOAD PUSH2 0xFC3 PUSH1 0x20 DUP6 ADD DUP3 PUSH2 0xF7E JUMP JUMPDEST POP PUSH1 0x40 DUP3 ADD MLOAD PUSH2 0xFD6 PUSH1 0x40 DUP6 ADD DUP3 PUSH2 0xF8D JUMP JUMPDEST POP POP POP POP JUMP JUMPDEST PUSH0 PUSH1 0x60 DUP3 ADD SWAP1 POP PUSH2 0xFEF PUSH0 DUP4 ADD DUP5 PUSH2 0xF9C JUMP JUMPDEST SWAP3 SWAP2 POP POP JUMP JUMPDEST PUSH2 0xFFE DUP2 PUSH2 0xF45 JUMP JUMPDEST DUP2 EQ PUSH2 0x1008 JUMPI PUSH0 DUP1 REVERT JUMPDEST POP JUMP JUMPDEST PUSH0 DUP2 CALLDATALOAD SWAP1 POP PUSH2 0x1019 DUP2 PUSH2 0xFF5 JUMP JUMPDEST SWAP3 SWAP2 POP POP JUMP JUMPDEST PUSH0 PUSH1 0x20 DUP3 DUP5 SUB SLT ISZERO PUSH2 0x1034 JUMPI PUSH2 0x1033 PUSH2 0xE76 JUMP JUMPDEST JUMPDEST PUSH0 PUSH2 0x1041 DUP5 DUP3 DUP6 ADD PUSH2 0x100B JUMP JUMPDEST SWAP2 POP POP SWAP3 SWAP2 POP POP JUMP JUMPDEST PUSH0 DUP2 ISZERO ISZERO SWAP1 POP SWAP2 SWAP1 POP JUMP JUMPDEST PUSH2 0x105E DUP2 PUSH2 0x104A JUMP JUMPDEST DUP3 MSTORE POP POP JUMP JUMPDEST PUSH0 PUSH1 0x80 DUP3 ADD SWAP1 POP PUSH2 0x1077 PUSH0 DUP4 ADD DUP8 PUSH2 0xEF0 JUMP JUMPDEST PUSH2 0x1084 PUSH1 0x20 DUP4 ADD DUP7 PUSH2 0x1055 JUMP JUMPDEST PUSH2 0x1091 PUSH1 0x40 DUP4 ADD DUP6 PUSH2 0xF56 JUMP JUMPDEST PUSH2 0x109E PUSH1 0x60 DUP4 ADD DUP5 PUSH2 0xEF0 JUMP JUMPDEST SWAP6 SWAP5 POP POP POP POP POP JUMP JUMPDEST PUSH0 PUSH2 0xFFFF DUP3 AND SWAP1 POP SWAP2 SWAP1 POP JUMP JUMPDEST PUSH2 0x10BD DUP2 PUSH2 0x10A7 JUMP JUMPDEST DUP3 MSTORE POP POP JUMP JUMPDEST PUSH0 PUSH4 0xFFFFFFFF DUP3 AND SWAP1 POP SWAP2 SWAP1 POP JUMP JUMPDEST PUSH2 0x10DB DUP2 PUSH2 0x10C3 JUMP JUMPDEST DUP3 MSTORE POP POP JUMP JUMPDEST PUSH0 PUSH6 0xFFFFFFFFFFFF DUP3 AND SWAP1 POP SWAP2 SWAP1 POP JUMP JUMPDEST PUSH2 0x10FB DUP2 PUSH2 0x10E1 JUMP JUMPDEST DUP3 MSTORE POP POP JUMP JUMPDEST PUSH1 0x80 DUP3 ADD PUSH0 DUP3 ADD MLOAD PUSH2 0x1115 PUSH0 DUP6 ADD DUP3 PUSH2 0x10B4 JUMP JUMPDEST POP PUSH1 0x20 DUP3 ADD MLOAD PUSH2 0x1128 PUSH1 0x20 DUP6 ADD DUP3 PUSH2 0x10D2 JUMP JUMPDEST POP PUSH1 0x40 DUP3 ADD MLOAD PUSH2 0x113B PUSH1 0x40 DUP6 ADD DUP3 PUSH2 0x10F2 JUMP JUMPDEST POP PUSH1 0x60 DUP3 ADD MLOAD PUSH2 0x114E PUSH1 0x60 DUP6 ADD DUP3 PUSH2 0x10F2 JUMP JUMPDEST POP POP POP POP JUMP JUMPDEST PUSH0 PUSH1 0x80 DUP3 ADD SWAP1 POP PUSH2 0x1167 PUSH0 DUP4 ADD DUP5 PUSH2 0x1101 JUMP JUMPDEST SWAP3 SWAP2 POP POP JUMP JUMPDEST PUSH0 DUP2 MLOAD SWAP1 POP SWAP2 SWAP1 POP JUMP JUMPDEST PUSH0 DUP3 DUP3 MSTORE PUSH1 0x20 DUP3 ADD SWAP1 POP SWAP3 SWAP2 POP POP JUMP JUMPDEST PUSH0 JUMPDEST DUP4 DUP2 LT ISZERO PUSH2 0x11A4 JUMPI DUP1 DUP3 ADD MLOAD DUP2 DUP5 ADD MSTORE PUSH1 0x20 DUP2 ADD SWAP1 POP PUSH2 0x1189 JUMP JUMPDEST PUSH0 DUP5 DUP5 ADD MSTORE POP POP POP POP JUMP JUMPDEST PUSH0 PUSH1 0x1F NOT PUSH1 0x1F DUP4 ADD AND SWAP1 POP SWAP2 SWAP1 POP JUMP JUMPDEST PUSH0 PUSH2 0x11C9 DUP3 PUSH2 0x116D JUMP JUMPDEST PUSH2 0x11D3 DUP2 DUP6 PUSH2 0x1177 JUMP JUMPDEST SWAP4 POP PUSH2 0x11E3 DUP2 DUP6 PUSH1 0x20 DUP7 ADD PUSH2 0x1187 JUMP JUMPDEST PUSH2 0x11EC DUP2 PUSH2 0x11AF JUMP JUMPDEST DUP5 ADD SWAP2 POP POP SWAP3 SWAP2 POP POP JUMP JUMPDEST PUSH2 0x1200 DUP2 PUSH2 0xED8 JUMP JUMPDEST DUP3 MSTORE POP POP JUMP JUMPDEST PUSH0 PUSH1 0x60 DUP4 ADD PUSH0 DUP4 ADD MLOAD DUP5 DUP3 SUB PUSH0 DUP7 ADD MSTORE PUSH2 0x1220 DUP3 DUP3 PUSH2 0x11BF JUMP JUMPDEST SWAP2 POP POP PUSH1 0x20 DUP4 ADD MLOAD PUSH2 0x1235 PUSH1 0x20 DUP7 ADD DUP3 PUSH2 0x11F7 JUMP JUMPDEST POP PUSH1 0x40 DUP4 ADD MLOAD PUSH2 0x1248 PUSH1 0x40 DUP7 ADD DUP3 PUSH2 0xF7E JUMP JUMPDEST POP DUP1 SWAP2 POP POP SWAP3 SWAP2 POP POP JUMP JUMPDEST PUSH0 PUSH1 0x20 DUP3 ADD SWAP1 POP DUP2 DUP2 SUB PUSH0 DUP4 ADD MSTORE PUSH2 0x126B DUP2 DUP5 PUSH2 0x1206 JUMP JUMPDEST SWAP1 POP SWAP3 SWAP2 POP POP JUMP JUMPDEST PUSH0 PUSH1 0x20 DUP3 ADD SWAP1 POP PUSH2 0x1286 PUSH0 DUP4 ADD DUP5 PUSH2 0xEF0 JUMP JUMPDEST SWAP3 SWAP2 POP POP JUMP JUMPDEST PUSH0 PUSH1 0x20 DUP3 ADD SWAP1 POP PUSH2 0x129F PUSH0 DUP4 ADD DUP5 PUSH2 0xEE1 JUMP JUMPDEST SWAP3 SWAP2 POP POP JUMP JUMPDEST PUSH0 DUP2 MLOAD SWAP1 POP SWAP2 SWAP1 POP JUMP JUMPDEST PUSH0 DUP3 DUP3 MSTORE PUSH1 0x20 DUP3 ADD SWAP1 POP SWAP3 SWAP2 POP POP JUMP JUMPDEST PUSH0 PUSH2 0x12C9 DUP3 PUSH2 0x12A5 JUMP JUMPDEST PUSH2 0x12D3 DUP2 DUP6 PUSH2 0x12AF JUMP JUMPDEST SWAP4 POP PUSH2 0x12E3 DUP2 DUP6 PUSH1 0x20 DUP7 ADD PUSH2 0x1187 JUMP JUMPDEST PUSH2 0x12EC DUP2 PUSH2 0x11AF JUMP JUMPDEST DUP5 ADD SWAP2 POP POP SWAP3 SWAP2 POP POP JUMP JUMPDEST PUSH0 PUSH1 0x20 DUP3 ADD SWAP1 POP DUP2 DUP2 SUB PUSH0 DUP4 ADD MSTORE PUSH2 0x130F DUP2 DUP5 PUSH2 0x12BF JUMP JUMPDEST SWAP1 POP SWAP3 SWAP2 POP POP JUMP JUMPDEST PUSH0 DUP3 DUP3 MSTORE PUSH1 0x20 DUP3 ADD SWAP1 POP SWAP3 SWAP2 POP POP JUMP JUMPDEST PUSH32 0x486173206E6F20726967687420746F20766F7465000000000000000000000000 PUSH0 DUP3 ADD MSTORE POP JUMP JUMPDEST PUSH0 PUSH2 0x135B PUSH1 0x14 DUP4 PUSH2 0x1317 JUMP JUMPDEST SWAP2 POP PUSH2 0x1366 DUP3 PUSH2 0x1327 JUMP JUMPDEST PUSH1 0x20 DUP3 ADD SWAP1 POP SWAP2 SWAP1 POP JUMP JUMPDEST PUSH0 PUSH1 0x20 DUP3 ADD SWAP1 POP DUP2 DUP2 SUB PUSH0 DUP4 ADD MSTORE PUSH2 0x1388 DUP2 PUSH2 0x134F JUMP JUMPDEST SWAP1 POP SWAP2 SWAP1 POP JUMP JUMPDEST PUSH32 0x416C726561647920766F7465642E000000000000000000000000000000000000 PUSH0 DUP3 ADD MSTORE POP JUMP JUMPDEST PUSH0 PUSH2 0x13C3 PUSH1 0xE DUP4 PUSH2 0x1317 JUMP JUMPDEST SWAP2 POP PUSH2 0x13CE DUP3 PUSH2 0x138F JUMP JUMPDEST PUSH1 0x20 DUP3 ADD SWAP1 POP SWAP2 SWAP1 POP JUMP JUMPDEST PUSH0 PUSH1 0x20 DUP3 ADD SWAP1 POP DUP2 DUP2 SUB PUSH0 DUP4 ADD MSTORE PUSH2 0x13F0 DUP2 PUSH2 0x13B7 JUMP JUMPDEST SWAP1 POP SWAP2 SWAP1 POP JUMP JUMPDEST PUSH32 0x4E487B7100000000000000000000000000000000000000000000000000000000 PUSH0 MSTORE PUSH1 0x32 PUSH1 0x4 MSTORE PUSH1 0x24 PUSH0 REVERT JUMPDEST PUSH32 0x4E487B7100000000000000000000000000000000000000000000000000000000 PUSH0 MSTORE PUSH1 0x11 PUSH1 0x4 MSTORE PUSH1 0x24 PUSH0 REVERT JUMPDEST PUSH0 PUSH2 0x145B DUP3 PUSH2 0xE7A JUMP JUMPDEST SWAP2 POP PUSH2 0x1466 DUP4 PUSH2 0xE7A JUMP JUMPDEST SWAP3 POP DUP3 DUP3 ADD SWAP1 POP DUP1 DUP3 GT ISZERO PUSH2 0x147E JUMPI PUSH2 0x147D PUSH2 0x1424 JUMP JUMPDEST JUMPDEST SWAP3 SWAP2 POP POP JUMP JUMPDEST PUSH32 0x596F7520616C726561647920766F7465642E0000000000000000000000000000 PUSH0 DUP3 ADD MSTORE POP JUMP JUMPDEST PUSH0 PUSH2 0x14B8 PUSH1 0x12 DUP4 PUSH2 0x1317 JUMP JUMPDEST SWAP2 POP PUSH2 0x14C3 DUP3 PUSH2 0x1484 JUMP JUMPDEST PUSH1 0x20 DUP3 ADD SWAP1 POP SWAP2 SWAP1 POP JUMP JUMPDEST PUSH0 PUSH1 0x20 DUP3 ADD SWAP1 POP DUP2 DUP2 SUB PUSH0 DUP4 ADD MSTORE PUSH2 0x14E5 DUP2 PUSH2 0x14AC JUMP JUMPDEST SWAP1 POP SWAP2 SWAP1 POP JUMP JUMPDEST PUSH32 0x53656C662D64656C65676174696F6E20697320646973616C6C6F7765642E0000 PUSH0 DUP3 ADD MSTORE POP JUMP JUMPDEST PUSH0 PUSH2 0x1520 PUSH1 0x1E DUP4 PUSH2 0x1317 JUMP JUMPDEST SWAP2 POP PUSH2 0x152B DUP3 PUSH2 0x14EC JUMP JUMPDEST PUSH1 0x20 DUP3 ADD SWAP1 POP SWAP2 SWAP1 POP JUMP JUMPDEST PUSH0 PUSH1 0x20 DUP3 ADD SWAP1 POP DUP2 DUP2 SUB PUSH0 DUP4 ADD MSTORE PUSH2 0x154D DUP2 PUSH2 0x1514 JUMP JUMPDEST SWAP1 POP SWAP2 SWAP1 POP JUMP JUMPDEST PUSH32 0x466F756E64206C6F6F7020696E2064656C65676174696F6E2E00000000000000 PUSH0 DUP3 ADD MSTORE POP JUMP JUMPDEST PUSH0 PUSH2 0x1588 PUSH1 0x19 DUP4 PUSH2 0x1317 JUMP JUMPDEST SWAP2 POP PUSH2 0x1593 DUP3 PUSH2 0x1554 JUMP JUMPDEST PUSH1 0x20 DUP3 ADD SWAP1 POP SWAP2 SWAP1 POP JUMP JUMPDEST PUSH0 PUSH1 0x20 DUP3 ADD SWAP1 POP DUP2 DUP2 SUB PUSH0 DUP4 ADD MSTORE PUSH2 0x15B5 DUP2 PUSH2 0x157C JUMP JUMPDEST SWAP1 POP SWAP2 SWAP1 POP JUMP JUMPDEST PUSH32 0x4F6E6C79206368616972706572736F6E2063616E206769766520726967687420 PUSH0 DUP3 ADD MSTORE PUSH32 0x746F20766F74652E000000000000000000000000000000000000000000000000 PUSH1 0x20 DUP3 ADD MSTORE POP JUMP JUMPDEST PUSH0 PUSH2 0x1616 PUSH1 0x28 DUP4 PUSH2 0x1317 JUMP JUMPDEST SWAP2 POP PUSH2 0x1621 DUP3 PUSH2 0x15BC JUMP JUMPDEST PUSH1 0x40 DUP3 ADD SWAP1 POP SWAP2 SWAP1 POP JUMP JUMPDEST PUSH0 PUSH1 0x20 DUP3 ADD SWAP1 POP DUP2 DUP2 SUB PUSH0 DUP4 ADD MSTORE PUSH2 0x1643 DUP2 PUSH2 0x160A JUMP JUMPDEST SWAP1 POP SWAP2 SWAP1 POP JUMP JUMPDEST PUSH32 0x54686520766F74657220616C726561647920766F7465642E0000000000000000 PUSH0 DUP3 ADD MSTORE POP JUMP JUMPDEST PUSH0 PUSH2 0x167E PUSH1 0x18 DUP4 PUSH2 0x1317 JUMP JUMPDEST SWAP2 POP PUSH2 0x1689 DUP3 PUSH2 0x164A JUMP JUMPDEST PUSH1 0x20 DUP3 ADD SWAP1 POP SWAP2 SWAP1 POP JUMP JUMPDEST PUSH0 PUSH1 0x20 DUP3 ADD SWAP1 POP DUP2 DUP2 SUB PUSH0 DUP4 ADD MSTORE PUSH2 0x16AB DUP2 PUSH2 0x1672 JUMP JUMPDEST SWAP1 POP SWAP2 SWAP1 POP JUMP JUMPDEST PUSH32 0x4E487B7100000000000000000000000000000000000000000000000000000000 PUSH0 MSTORE PUSH1 0x22 PUSH1 0x4 MSTORE PUSH1 0x24 PUSH0 REVERT JUMPDEST PUSH0 PUSH1 0x2 DUP3 DIV SWAP1 POP PUSH1 0x1 DUP3 AND DUP1 PUSH2 0x16F6 JUMPI PUSH1 0x7F DUP3 AND SWAP2 POP JUMPDEST PUSH1 0x20 DUP3 LT DUP2 SUB PUSH2 0x1709 JUMPI PUSH2 0x1708 PUSH2 0x16B2 JUMP JUMPDEST JUMPDEST POP SWAP2 SWAP1 POP JUMP JUMPDEST PUSH0 PUSH2 0x1719 DUP3 PUSH2 0xE7A JUMP JUMPDEST SWAP2 POP PUSH32 0xFFFFFFFFFFFFFFFFFFFFFFFFFFFFFFFFFFFFFFFFFFFFFFFFFFFFFFFFFFFFFFFF DUP3 SUB PUSH2 0x174B JUMPI PUSH2 0x174A PUSH2 0x1424 JUMP JUMPDEST JUMPDEST PUSH1 0x1 DUP3 ADD SWAP1 POP SWAP2 SWAP1 POP JUMP JUMPDEST PUSH0 PUSH1 0x80 DUP3 ADD SWAP1 POP PUSH2 0x1769 PUSH0 DUP4 ADD DUP8 PUSH2 0xF56 JUMP JUMPDEST PUSH2 0x1776 PUSH1 0x20 DUP4 ADD DUP7 PUSH2 0xEF0 JUMP JUMPDEST DUP2 DUP2 SUB PUSH1 0x40 DUP4 ADD MSTORE PUSH2 0x1788 DUP2 DUP6 PUSH2 0x12BF JUMP JUMPDEST SWAP1 POP PUSH2 0x1797 PUSH1 0x60 DUP4 ADD DUP5 PUSH2 0xEE1 JUMP JUMPDEST SWAP6 SWAP5 POP POP POP POP POP JUMP JUMPDEST PUSH0 DUP2 SWAP1 POP SWAP3 SWAP2 POP POP JUMP JUMPDEST PUSH0 DUP2 SWAP1 POP DUP2 PUSH0 MSTORE PUSH1 0x20 PUSH0 KECCAK256 SWAP1 POP SWAP2 SWAP1 POP JUMP JUMPDEST PUSH0 DUP2 SLOAD PUSH2 0x17C8 DUP2 PUSH2 0x16DF JUMP JUMPDEST PUSH2 0x17D2 DUP2 DUP7 PUSH2 0x17A0 JUMP JUMPDEST SWAP5 POP PUSH1 0x1 DUP3 AND PUSH0 DUP2 EQ PUSH2 0x17EC JUMPI PUSH1 0x1 DUP2 EQ PUSH2 0x1801 JUMPI PUSH2 0x1833 JUMP JUMPDEST PUSH1 0xFF NOT DUP4 AND DUP7 MSTORE DUP2 ISZERO ISZERO DUP3 MUL DUP7 ADD SWAP4 POP PUSH2 0x1833 JUMP JUMPDEST PUSH2 0x180A DUP6 PUSH2 0x17AA JUMP JUMPDEST PUSH0 JUMPDEST DUP4 DUP2 LT ISZERO PUSH2 0x182B JUMPI DUP2 SLOAD DUP2 DUP10 ADD MSTORE PUSH1 0x1 DUP3 ADD SWAP2 POP PUSH1 0x20 DUP2 ADD SWAP1 POP PUSH2 0x180C JUMP JUMPDEST DUP4 DUP9 ADD SWAP6 POP POP POP JUMPDEST POP POP POP SWAP3 SWAP2 POP POP JUMP JUMPDEST PUSH0 PUSH2 0x1847 DUP3 DUP5 PUSH2 0x17BC JUMP JUMPDEST SWAP2 POP DUP2 SWAP1 POP SWAP3 SWAP2 POP POP JUMP INVALID LOG2 PUSH5 0x6970667358 0x22 SLT KECCAK256 0xC8 ADDRESS 0x4E JUMPI 0xC0 DUP4 SLOAD 0xDD 0xCB SWAP11 0xAC PUSH21 0xC7DF5ECAD42356F3A5C9C4716C627D1CFD2E8D0864 PUSH20 0x6F6C634300081400330000000000000000000000 "
				},
				"gasEstimates": {
					"creation": {
						"codeDepositCost": "1256000",
						"executionCost": "infinite",
						"totalCost": "infinite"
					},
					"external": {
						"chairperson()": "2553",
						"delegate(address)": "infinite",
						"getBallotCallData()": "infinite",
						"getBallotCallDataParams()": "infinite",
						"getBallotProposalId()": "infinite",
						"getBallotProposalParams()": "infinite",
						"getBalootVotingParams()": "infinite",
						"giveRightToVote(address)": "29400",
						"proposals(uint256)": "infinite",
						"vote(uint256)": "infinite",
						"voteCountProposal()": "infinite",
						"voters(address)": "infinite",
						"winnerName()": "infinite"
					}
				},
				"methodIdentifiers": {
					"chairperson()": "2e4176cf",
					"delegate(address)": "5c19a95c",
					"getBallotCallData()": "f8b1b08a",
					"getBallotCallDataParams()": "bc33c7d7",
					"getBallotProposalId()": "ec5bf07b",
					"getBallotProposalParams()": "4731ca2b",
					"getBalootVotingParams()": "b3a05246",
					"giveRightToVote(address)": "9e7b8d61",
					"proposals(uint256)": "013cf08b",
					"vote(uint256)": "0121b93f",
					"voteCountProposal()": "d4564d16",
					"voters(address)": "a3ec138d",
					"winnerName()": "e2ba53f0"
				}
			},
			"storageLayout": {
				"storage": [
					{
						"astId": 32,
						"contract": "contracts/3_Ballot.sol:BallotTCN",
						"label": "_votingParams",
						"offset": 0,
						"slot": "0",
						"type": "t_struct(VOTINGPARAM)29_storage"
					},
					{
						"astId": 42,
						"contract": "contracts/3_Ballot.sol:BallotTCN",
						"label": "_callDataParam",
						"offset": 0,
						"slot": "1",
						"type": "t_struct(CALLDATAPARAM)39_storage"
					},
					{
						"astId": 52,
						"contract": "contracts/3_Ballot.sol:BallotTCN",
						"label": "_proposalParams",
						"offset": 0,
						"slot": "4",
						"type": "t_struct(PROPOSALPARAM)49_storage"
					},
					{
						"astId": 54,
						"contract": "contracts/3_Ballot.sol:BallotTCN",
						"label": "chairperson",
						"offset": 0,
						"slot": "7",
						"type": "t_address"
					},
					{
						"astId": 58,
						"contract": "contracts/3_Ballot.sol:BallotTCN",
						"label": "_targetConnectors",
						"offset": 0,
						"slot": "8",
						"type": "t_mapping(t_address,t_address)"
					},
					{
						"astId": 63,
						"contract": "contracts/3_Ballot.sol:BallotTCN",
						"label": "voters",
						"offset": 0,
						"slot": "9",
						"type": "t_mapping(t_address,t_struct(Voter)15_storage)"
					},
					{
						"astId": 67,
						"contract": "contracts/3_Ballot.sol:BallotTCN",
						"label": "proposals",
						"offset": 0,
						"slot": "10",
						"type": "t_array(t_struct(Proposal)20_storage)dyn_storage"
					}
				],
				"types": {
					"t_address": {
						"encoding": "inplace",
						"label": "address",
						"numberOfBytes": "20"
					},
					"t_array(t_struct(Proposal)20_storage)dyn_storage": {
						"base": "t_struct(Proposal)20_storage",
						"encoding": "dynamic_array",
						"label": "struct BallotTCN.Proposal[]",
						"numberOfBytes": "32"
					},
					"t_bool": {
						"encoding": "inplace",
						"label": "bool",
						"numberOfBytes": "1"
					},
					"t_bytes32": {
						"encoding": "inplace",
						"label": "bytes32",
						"numberOfBytes": "32"
					},
					"t_mapping(t_address,t_address)": {
						"encoding": "mapping",
						"key": "t_address",
						"label": "mapping(address => address)",
						"numberOfBytes": "32",
						"value": "t_address"
					},
					"t_mapping(t_address,t_struct(Voter)15_storage)": {
						"encoding": "mapping",
						"key": "t_address",
						"label": "mapping(address => struct BallotTCN.Voter)",
						"numberOfBytes": "32",
						"value": "t_struct(Voter)15_storage"
					},
					"t_string_storage": {
						"encoding": "bytes",
						"label": "string",
						"numberOfBytes": "32"
					},
					"t_struct(CALLDATAPARAM)39_storage": {
						"encoding": "inplace",
						"label": "struct BallotTCN.CALLDATAPARAM",
						"members": [
							{
								"astId": 34,
								"contract": "contracts/3_Ballot.sol:BallotTCN",
								"label": "signature",
								"offset": 0,
								"slot": "0",
								"type": "t_string_storage"
							},
							{
								"astId": 36,
								"contract": "contracts/3_Ballot.sol:BallotTCN",
								"label": "descriptionHash",
								"offset": 0,
								"slot": "1",
								"type": "t_bytes32"
							},
							{
								"astId": 38,
								"contract": "contracts/3_Ballot.sol:BallotTCN",
								"label": "governance",
								"offset": 0,
								"slot": "2",
								"type": "t_address"
							}
						],
						"numberOfBytes": "96"
					},
					"t_struct(PROPOSALPARAM)49_storage": {
						"encoding": "inplace",
						"label": "struct BallotTCN.PROPOSALPARAM",
						"members": [
							{
								"astId": 44,
								"contract": "contracts/3_Ballot.sol:BallotTCN",
								"label": "target",
								"offset": 0,
								"slot": "0",
								"type": "t_address"
							},
							{
								"astId": 46,
								"contract": "contracts/3_Ballot.sol:BallotTCN",
								"label": "proposer",
								"offset": 0,
								"slot": "1",
								"type": "t_address"
							},
							{
								"astId": 48,
								"contract": "contracts/3_Ballot.sol:BallotTCN",
								"label": "value",
								"offset": 0,
								"slot": "2",
								"type": "t_uint256"
							}
						],
						"numberOfBytes": "96"
					},
					"t_struct(Proposal)20_storage": {
						"encoding": "inplace",
						"label": "struct BallotTCN.Proposal",
						"members": [
							{
								"astId": 17,
								"contract": "contracts/3_Ballot.sol:BallotTCN",
								"label": "name",
								"offset": 0,
								"slot": "0",
								"type": "t_bytes32"
							},
							{
								"astId": 19,
								"contract": "contracts/3_Ballot.sol:BallotTCN",
								"label": "voteCount",
								"offset": 0,
								"slot": "1",
								"type": "t_uint256"
							}
						],
						"numberOfBytes": "64"
					},
					"t_struct(VOTINGPARAM)29_storage": {
						"encoding": "inplace",
						"label": "struct BallotTCN.VOTINGPARAM",
						"members": [
							{
								"astId": 22,
								"contract": "contracts/3_Ballot.sol:BallotTCN",
								"label": "quorum",
								"offset": 0,
								"slot": "0",
								"type": "t_uint16"
							},
							{
								"astId": 24,
								"contract": "contracts/3_Ballot.sol:BallotTCN",
								"label": "voteDuration",
								"offset": 2,
								"slot": "0",
								"type": "t_uint32"
							},
							{
								"astId": 26,
								"contract": "contracts/3_Ballot.sol:BallotTCN",
								"label": "voteStart",
								"offset": 6,
								"slot": "0",
								"type": "t_uint48"
							},
							{
								"astId": 28,
								"contract": "contracts/3_Ballot.sol:BallotTCN",
								"label": "etaSeconds",
								"offset": 12,
								"slot": "0",
								"type": "t_uint48"
							}
						],
						"numberOfBytes": "32"
					},
					"t_struct(Voter)15_storage": {
						"encoding": "inplace",
						"label": "struct BallotTCN.Voter",
						"members": [
							{
								"astId": 8,
								"contract": "contracts/3_Ballot.sol:BallotTCN",
								"label": "weight",
								"offset": 0,
								"slot": "0",
								"type": "t_uint256"
							},
							{
								"astId": 10,
								"contract": "contracts/3_Ballot.sol:BallotTCN",
								"label": "voted",
								"offset": 0,
								"slot": "1",
								"type": "t_bool"
							},
							{
								"astId": 12,
								"contract": "contracts/3_Ballot.sol:BallotTCN",
								"label": "delegate",
								"offset": 1,
								"slot": "1",
								"type": "t_address"
							},
							{
								"astId": 14,
								"contract": "contracts/3_Ballot.sol:BallotTCN",
								"label": "vote",
								"offset": 0,
								"slot": "2",
								"type": "t_uint256"
							}
						],
						"numberOfBytes": "96"
					},
					"t_uint16": {
						"encoding": "inplace",
						"label": "uint16",
						"numberOfBytes": "2"
					},
					"t_uint256": {
						"encoding": "inplace",
						"label": "uint256",
						"numberOfBytes": "32"
					},
					"t_uint32": {
						"encoding": "inplace",
						"label": "uint32",
						"numberOfBytes": "4"
					},
					"t_uint48": {
						"encoding": "inplace",
						"label": "uint48",
						"numberOfBytes": "6"
					}
				}
			},
			"userdoc": {
				"kind": "user",
				"methods": {},
				"version": 1
			}
		}
	}
}