{
	"contracts/authority.sol": {
		"Authority": {
			"abi": [
				{
					"inputs": [],
					"stateMutability": "nonpayable",
					"type": "constructor"
				},
				{
					"inputs": [],
					"name": "AccessOnlyForThePendigPresident",
					"type": "error"
				},
				{
					"inputs": [
						{
							"internalType": "uint48",
							"name": "reminingTime",
							"type": "uint48"
						}
					],
					"name": "RemainingTimeUntilTheConfirmationDeadline",
					"type": "error"
				},
				{
					"inputs": [
						{
							"internalType": "address",
							"name": "NewGCAddress",
							"type": "address"
						}
					],
					"name": "TheAddressIsNotValidForGC",
					"type": "error"
				},
				{
					"inputs": [
						{
							"internalType": "address",
							"name": "newRAddress",
							"type": "address"
						}
					],
					"name": "TheAddressIsNotValidForRAddress",
					"type": "error"
				},
				{
					"anonymous": false,
					"inputs": [
						{
							"indexed": true,
							"internalType": "address",
							"name": "GCAddress",
							"type": "address"
						},
						{
							"indexed": true,
							"internalType": "uint32",
							"name": "version",
							"type": "uint32"
						}
					],
					"name": "TheNewGCAddressWasConfirmed",
					"type": "event"
				},
				{
					"anonymous": false,
					"inputs": [
						{
							"indexed": true,
							"internalType": "address",
							"name": "presidentAdd",
							"type": "address"
						},
						{
							"indexed": true,
							"internalType": "uint32",
							"name": "nonce",
							"type": "uint32"
						}
					],
					"name": "TheNewPresidentWasConfirmed",
					"type": "event"
				},
				{
					"anonymous": false,
					"inputs": [
						{
							"indexed": true,
							"internalType": "address",
							"name": "RepublicAddress",
							"type": "address"
						},
						{
							"indexed": true,
							"internalType": "uint32",
							"name": "version",
							"type": "uint32"
						}
					],
					"name": "TheNewRepublicAddressWasConfirmed",
					"type": "event"
				},
				{
					"anonymous": false,
					"inputs": [
						{
							"indexed": true,
							"internalType": "address",
							"name": "newGCAddress",
							"type": "address"
						}
					],
					"name": "TheNextGCAddressWasElected",
					"type": "event"
				},
				{
					"anonymous": false,
					"inputs": [
						{
							"indexed": true,
							"internalType": "address",
							"name": "newPresidentAdd",
							"type": "address"
						}
					],
					"name": "TheNextPresidentWasElected",
					"type": "event"
				},
				{
					"anonymous": false,
					"inputs": [
						{
							"indexed": true,
							"internalType": "address",
							"name": "PRAddress",
							"type": "address"
						}
					],
					"name": "TheNextRepublicAddressWasCancelled",
					"type": "event"
				},
				{
					"anonymous": false,
					"inputs": [
						{
							"indexed": true,
							"internalType": "address",
							"name": "newRepublicAddress",
							"type": "address"
						}
					],
					"name": "TheNextRepublicAddressWasElected",
					"type": "event"
				},
				{
					"anonymous": false,
					"inputs": [
						{
							"indexed": true,
							"internalType": "bool",
							"name": "baned",
							"type": "bool"
						},
						{
							"indexed": true,
							"internalType": "bool",
							"name": "done",
							"type": "bool"
						}
					],
					"name": "TheStatusOfBanningAllActivitiesAndDone",
					"type": "event"
				},
				{
					"inputs": [
						{
							"internalType": "address",
							"name": "PRAdress",
							"type": "address"
						}
					],
					"name": "cancelPendingRepublicAddress",
					"outputs": [],
					"stateMutability": "nonpayable",
					"type": "function"
				},
				{
					"inputs": [],
					"name": "getAuthorityAddress",
					"outputs": [
						{
							"internalType": "address",
							"name": "",
							"type": "address"
						}
					],
					"stateMutability": "view",
					"type": "function"
				},
				{
					"inputs": [],
					"name": "getGovernance",
					"outputs": [
						{
							"internalType": "address",
							"name": "",
							"type": "address"
						}
					],
					"stateMutability": "view",
					"type": "function"
				},
				{
					"inputs": [],
					"name": "getPresidentAdd",
					"outputs": [
						{
							"internalType": "address",
							"name": "",
							"type": "address"
						}
					],
					"stateMutability": "view",
					"type": "function"
				},
				{
					"inputs": [],
					"name": "getPresidentBan",
					"outputs": [
						{
							"internalType": "bool",
							"name": "",
							"type": "bool"
						}
					],
					"stateMutability": "view",
					"type": "function"
				},
				{
					"inputs": [],
					"name": "getRepublicAddress",
					"outputs": [
						{
							"internalType": "address",
							"name": "RG",
							"type": "address"
						}
					],
					"stateMutability": "view",
					"type": "function"
				},
				{
					"inputs": [],
					"name": "getgovernanceVersion",
					"outputs": [
						{
							"internalType": "uint32",
							"name": "",
							"type": "uint32"
						}
					],
					"stateMutability": "view",
					"type": "function"
				},
				{
					"inputs": [
						{
							"internalType": "address",
							"name": "newPresident",
							"type": "address"
						}
					],
					"name": "setPendigPresident",
					"outputs": [],
					"stateMutability": "nonpayable",
					"type": "function"
				},
				{
					"inputs": [
						{
							"internalType": "address",
							"name": "newGCAddress",
							"type": "address"
						}
					],
					"name": "setPendingGovernanceContractAddress",
					"outputs": [],
					"stateMutability": "nonpayable",
					"type": "function"
				},
				{
					"inputs": [
						{
							"internalType": "address",
							"name": "newRAddress",
							"type": "address"
						}
					],
					"name": "setPendingRepublicAddress",
					"outputs": [],
					"stateMutability": "nonpayable",
					"type": "function"
				},
				{
					"inputs": [
						{
							"internalType": "bool",
							"name": "baned",
							"type": "bool"
						}
					],
					"name": "setPresidentBaned",
					"outputs": [],
					"stateMutability": "nonpayable",
					"type": "function"
				},
				{
					"inputs": [
						{
							"internalType": "address",
							"name": "pendingGCAdd",
							"type": "address"
						}
					],
					"name": "transferGovernanceContractAddress",
					"outputs": [],
					"stateMutability": "nonpayable",
					"type": "function"
				},
				{
					"inputs": [],
					"name": "transferPresident",
					"outputs": [],
					"stateMutability": "nonpayable",
					"type": "function"
				},
				{
					"inputs": [
						{
							"internalType": "address",
							"name": "RAddress",
							"type": "address"
						}
					],
					"name": "transferRepublicAddress",
					"outputs": [],
					"stateMutability": "nonpayable",
					"type": "function"
				}
			],
			"devdoc": {
				"kind": "dev",
				"methods": {},
				"version": 1
			},
			"evm": {
				"assembly": "    /* \"contracts/authority.sol\":188:6541  contract Authority {... */\n  mstore(0x40, 0xa0)\n    /* \"contracts/authority.sol\":2050:2208  constructor() {... */\n  callvalue\n  dup1\n  iszero\n  tag_1\n  jumpi\n  0x00\n  dup1\n  revert\ntag_1:\n  pop\n    /* \"contracts/authority.sol\":2120:2129  4400 days */\n  0x16a8c800\n    /* \"contracts/authority.sol\":2102:2117  block.timestamp */\n  timestamp\n    /* \"contracts/authority.sol\":2102:2129  block.timestamp + 4400 days */\n  tag_4\n  swap2\n  swap1\n  tag_5\n  jump\t// in\ntag_4:\n    /* \"contracts/authority.sol\":2075:2130  TimeFirstElection = uint48(block.timestamp + 4400 days) */\n  0xffffffffffff\n  and\n  0x80\n  dup2\n  0xffffffffffff\n  and\n  dup2\n  mstore\n  pop\n  pop\n    /* \"contracts/authority.sol\":2161:2171  msg.sender */\n  caller\n    /* \"contracts/authority.sol\":2141:2151  _president */\n  0x03\n    /* \"contracts/authority.sol\":2141:2158  _president.rolAdd */\n  0x00\n  add\n  0x00\n    /* \"contracts/authority.sol\":2141:2171  _president.rolAdd = msg.sender */\n  0x0100\n  exp\n  dup2\n  sload\n  dup2\n  0xffffffffffffffffffffffffffffffffffffffff\n  mul\n  not\n  and\n  swap1\n  dup4\n  0xffffffffffffffffffffffffffffffffffffffff\n  and\n  mul\n  or\n  swap1\n  sstore\n  pop\n    /* \"contracts/authority.sol\":2182:2192  _president */\n  0x03\n    /* \"contracts/authority.sol\":2182:2198  _president.nonce */\n  0x00\n  add\n  0x15\n    /* \"contracts/authority.sol\":2182:2200  _president.nonce++ */\n  dup2\n  dup2\n  swap1\n  sload\n  swap1\n  0x0100\n  exp\n  swap1\n  div\n  0xffffffff\n  and\n  dup1\n  swap3\n  swap2\n  swap1\n  tag_6\n  swap1\n  tag_7\n  jump\t// in\ntag_6:\n  swap2\n  swap1\n  0x0100\n  exp\n  dup2\n  sload\n  dup2\n  0xffffffff\n  mul\n  not\n  and\n  swap1\n  dup4\n  0xffffffff\n  and\n  mul\n  or\n  swap1\n  sstore\n  pop\n  pop\n    /* \"contracts/authority.sol\":188:6541  contract Authority {... */\n  jump(tag_8)\n    /* \"#utility.yul\":7:84   */\ntag_9:\n    /* \"#utility.yul\":44:51   */\n  0x00\n    /* \"#utility.yul\":73:78   */\n  dup2\n    /* \"#utility.yul\":62:78   */\n  swap1\n  pop\n    /* \"#utility.yul\":7:84   */\n  swap2\n  swap1\n  pop\n  jump\t// out\n    /* \"#utility.yul\":90:270   */\ntag_10:\n    /* \"#utility.yul\":138:215   */\n  0x4e487b7100000000000000000000000000000000000000000000000000000000\n    /* \"#utility.yul\":135:136   */\n  0x00\n    /* \"#utility.yul\":128:216   */\n  mstore\n    /* \"#utility.yul\":235:239   */\n  0x11\n    /* \"#utility.yul\":232:233   */\n  0x04\n    /* \"#utility.yul\":225:240   */\n  mstore\n    /* \"#utility.yul\":259:263   */\n  0x24\n    /* \"#utility.yul\":256:257   */\n  0x00\n    /* \"#utility.yul\":249:264   */\n  revert\n    /* \"#utility.yul\":276:467   */\ntag_5:\n    /* \"#utility.yul\":316:319   */\n  0x00\n    /* \"#utility.yul\":335:355   */\n  tag_16\n    /* \"#utility.yul\":353:354   */\n  dup3\n    /* \"#utility.yul\":335:355   */\n  tag_9\n  jump\t// in\ntag_16:\n    /* \"#utility.yul\":330:355   */\n  swap2\n  pop\n    /* \"#utility.yul\":369:389   */\n  tag_17\n    /* \"#utility.yul\":387:388   */\n  dup4\n    /* \"#utility.yul\":369:389   */\n  tag_9\n  jump\t// in\ntag_17:\n    /* \"#utility.yul\":364:389   */\n  swap3\n  pop\n    /* \"#utility.yul\":412:413   */\n  dup3\n    /* \"#utility.yul\":409:410   */\n  dup3\n    /* \"#utility.yul\":405:414   */\n  add\n    /* \"#utility.yul\":398:414   */\n  swap1\n  pop\n    /* \"#utility.yul\":433:436   */\n  dup1\n    /* \"#utility.yul\":430:431   */\n  dup3\n    /* \"#utility.yul\":427:437   */\n  gt\n    /* \"#utility.yul\":424:460   */\n  iszero\n  tag_18\n  jumpi\n    /* \"#utility.yul\":440:458   */\n  tag_19\n  tag_10\n  jump\t// in\ntag_19:\n    /* \"#utility.yul\":424:460   */\ntag_18:\n    /* \"#utility.yul\":276:467   */\n  swap3\n  swap2\n  pop\n  pop\n  jump\t// out\n    /* \"#utility.yul\":473:566   */\ntag_11:\n    /* \"#utility.yul\":509:516   */\n  0x00\n    /* \"#utility.yul\":549:559   */\n  0xffffffff\n    /* \"#utility.yul\":542:547   */\n  dup3\n    /* \"#utility.yul\":538:560   */\n  and\n    /* \"#utility.yul\":527:560   */\n  swap1\n  pop\n    /* \"#utility.yul\":473:566   */\n  swap2\n  swap1\n  pop\n  jump\t// out\n    /* \"#utility.yul\":572:747   */\ntag_7:\n    /* \"#utility.yul\":610:613   */\n  0x00\n    /* \"#utility.yul\":633:656   */\n  tag_22\n    /* \"#utility.yul\":650:655   */\n  dup3\n    /* \"#utility.yul\":633:656   */\n  tag_11\n  jump\t// in\ntag_22:\n    /* \"#utility.yul\":624:656   */\n  swap2\n  pop\n    /* \"#utility.yul\":678:688   */\n  0xffffffff\n    /* \"#utility.yul\":671:676   */\n  dup3\n    /* \"#utility.yul\":668:689   */\n  sub\n    /* \"#utility.yul\":665:712   */\n  tag_23\n  jumpi\n    /* \"#utility.yul\":692:710   */\n  tag_24\n  tag_10\n  jump\t// in\ntag_24:\n    /* \"#utility.yul\":665:712   */\ntag_23:\n    /* \"#utility.yul\":739:740   */\n  0x01\n    /* \"#utility.yul\":732:737   */\n  dup3\n    /* \"#utility.yul\":728:741   */\n  add\n    /* \"#utility.yul\":721:741   */\n  swap1\n  pop\n    /* \"#utility.yul\":572:747   */\n  swap2\n  swap1\n  pop\n  jump\t// out\n    /* \"contracts/authority.sol\":188:6541  contract Authority {... */\ntag_8:\n  mload(0x80)\n  codecopy(0x00, dataOffset(sub_0), dataSize(sub_0))\n  0x00\n  assignImmutable(\"0x2cc0d3dcb20652cd8f106aee76b6a7391771a130885634c0eb2bbe3cde796691\")\n  return(0x00, dataSize(sub_0))\nstop\n\nsub_0: assembly {\n        /* \"contracts/authority.sol\":188:6541  contract Authority {... */\n      mstore(0x40, 0x80)\n      callvalue\n      dup1\n      iszero\n      tag_1\n      jumpi\n      0x00\n      dup1\n      revert\n    tag_1:\n      pop\n      jumpi(tag_2, lt(calldatasize, 0x04))\n      shr(0xe0, calldataload(0x00))\n      dup1\n      0x9c20fe71\n      gt\n      tag_17\n      jumpi\n      dup1\n      0xc5a1c5c1\n      gt\n      tag_18\n      jumpi\n      dup1\n      0xc5a1c5c1\n      eq\n      tag_13\n      jumpi\n      dup1\n      0xca4cce68\n      eq\n      tag_14\n      jumpi\n      dup1\n      0xe47a9d46\n      eq\n      tag_15\n      jumpi\n      dup1\n      0xee7126c3\n      eq\n      tag_16\n      jumpi\n      jump(tag_2)\n    tag_18:\n      dup1\n      0x9c20fe71\n      eq\n      tag_10\n      jumpi\n      dup1\n      0xb5c09c68\n      eq\n      tag_11\n      jumpi\n      dup1\n      0xc387b49c\n      eq\n      tag_12\n      jumpi\n      jump(tag_2)\n    tag_17:\n      dup1\n      0x289b3c0d\n      gt\n      tag_19\n      jumpi\n      dup1\n      0x289b3c0d\n      eq\n      tag_6\n      jumpi\n      dup1\n      0x52e305de\n      eq\n      tag_7\n      jumpi\n      dup1\n      0x66410997\n      eq\n      tag_8\n      jumpi\n      dup1\n      0x6cf106d7\n      eq\n      tag_9\n      jumpi\n      jump(tag_2)\n    tag_19:\n      dup1\n      0x054203bd\n      eq\n      tag_3\n      jumpi\n      dup1\n      0x0df4c390\n      eq\n      tag_4\n      jumpi\n      dup1\n      0x1f72783a\n      eq\n      tag_5\n      jumpi\n    tag_2:\n      0x00\n      dup1\n      revert\n        /* \"contracts/authority.sol\":4041:4219  function setPendigPresident(address newPresident) public onlyRepublic {... */\n    tag_3:\n      tag_20\n      0x04\n      dup1\n      calldatasize\n      sub\n      dup2\n      add\n      swap1\n      tag_21\n      swap2\n      swap1\n      tag_22\n      jump\t// in\n    tag_21:\n      tag_23\n      jump\t// in\n    tag_20:\n      stop\n        /* \"contracts/authority.sol\":4227:4673  function transferPresident() public {... */\n    tag_4:\n      tag_24\n      tag_25\n      jump\t// in\n    tag_24:\n      stop\n        /* \"contracts/authority.sol\":2216:2771  function setPendingRepublicAddress(address newRAddress) public onlyRepublic {... */\n    tag_5:\n      tag_26\n      0x04\n      dup1\n      calldatasize\n      sub\n      dup2\n      add\n      swap1\n      tag_27\n      swap2\n      swap1\n      tag_22\n      jump\t// in\n    tag_27:\n      tag_28\n      jump\t// in\n    tag_26:\n      stop\n        /* \"contracts/authority.sol\":5641:5740  function getGovernance() public view returns (address) {... */\n    tag_6:\n      tag_29\n      tag_30\n      jump\t// in\n    tag_29:\n      mload(0x40)\n      tag_31\n      swap2\n      swap1\n      tag_32\n      jump\t// in\n    tag_31:\n      mload(0x40)\n      dup1\n      swap2\n      sub\n      swap1\n      return\n        /* \"contracts/authority.sol\":3417:3791  function cancelPendingRepublicAddress(address PRAdress) public onlyRepublic {... */\n    tag_7:\n      tag_33\n      0x04\n      dup1\n      calldatasize\n      sub\n      dup2\n      add\n      swap1\n      tag_34\n      swap2\n      swap1\n      tag_22\n      jump\t// in\n    tag_34:\n      tag_35\n      jump\t// in\n    tag_33:\n      stop\n        /* \"contracts/authority.sol\":4681:4781  function getPresidentAdd() public view returns (address) {... */\n    tag_8:\n      tag_36\n      tag_37\n      jump\t// in\n    tag_36:\n      mload(0x40)\n      tag_38\n      swap2\n      swap1\n      tag_32\n      jump\t// in\n    tag_38:\n      mload(0x40)\n      dup1\n      swap2\n      sub\n      swap1\n      return\n        /* \"contracts/authority.sol\":4789:4885  function getPresidentBan() public view returns (bool) {... */\n    tag_9:\n      tag_39\n      tag_40\n      jump\t// in\n    tag_39:\n      mload(0x40)\n      tag_41\n      swap2\n      swap1\n      tag_42\n      jump\t// in\n    tag_41:\n      mload(0x40)\n      dup1\n      swap2\n      sub\n      swap1\n      return\n        /* \"contracts/authority.sol\":2779:3409  function transferRepublicAddress(address RAddress) public onlyRepublic {... */\n    tag_10:\n      tag_43\n      0x04\n      dup1\n      calldatasize\n      sub\n      dup2\n      add\n      swap1\n      tag_44\n      swap2\n      swap1\n      tag_22\n      jump\t// in\n    tag_44:\n      tag_45\n      jump\t// in\n    tag_43:\n      stop\n        /* \"contracts/authority.sol\":5860:5963  function setPresidentBaned(bool baned) public onlyRepublic {... */\n    tag_11:\n      tag_46\n      0x04\n      dup1\n      calldatasize\n      sub\n      dup2\n      add\n      swap1\n      tag_47\n      swap2\n      swap1\n      tag_48\n      jump\t// in\n    tag_47:\n      tag_49\n      jump\t// in\n    tag_46:\n      stop\n        /* \"contracts/authority.sol\":5748:5852  function getgovernanceVersion() public view returns (uint32) {... */\n    tag_12:\n      tag_50\n      tag_51\n      jump\t// in\n    tag_50:\n      mload(0x40)\n      tag_52\n      swap2\n      swap1\n      tag_53\n      jump\t// in\n    tag_52:\n      mload(0x40)\n      dup1\n      swap2\n      sub\n      swap1\n      return\n        /* \"contracts/authority.sol\":3799:3912  function getRepublicAddress() public view returns (address RG) {... */\n    tag_13:\n      tag_54\n      tag_55\n      jump\t// in\n    tag_54:\n      mload(0x40)\n      tag_56\n      swap2\n      swap1\n      tag_32\n      jump\t// in\n    tag_56:\n      mload(0x40)\n      dup1\n      swap2\n      sub\n      swap1\n      return\n        /* \"contracts/authority.sol\":4893:5208  function setPendingGovernanceContractAddress(address newGCAddress) public onlyRepublic {... */\n    tag_14:\n      tag_57\n      0x04\n      dup1\n      calldatasize\n      sub\n      dup2\n      add\n      swap1\n      tag_58\n      swap2\n      swap1\n      tag_22\n      jump\t// in\n    tag_58:\n      tag_59\n      jump\t// in\n    tag_57:\n      stop\n        /* \"contracts/authority.sol\":3924:4033  function getAuthorityAddress() public view returns (address) {... */\n    tag_15:\n      tag_60\n      tag_61\n      jump\t// in\n    tag_60:\n      mload(0x40)\n      tag_62\n      swap2\n      swap1\n      tag_32\n      jump\t// in\n    tag_62:\n      mload(0x40)\n      dup1\n      swap2\n      sub\n      swap1\n      return\n        /* \"contracts/authority.sol\":5216:5633  function transferGovernanceContractAddress(address pendingGCAdd) public onlyPresident {... */\n    tag_16:\n      tag_63\n      0x04\n      dup1\n      calldatasize\n      sub\n      dup2\n      add\n      swap1\n      tag_64\n      swap2\n      swap1\n      tag_22\n      jump\t// in\n    tag_64:\n      tag_65\n      jump\t// in\n    tag_63:\n      stop\n        /* \"contracts/authority.sol\":4041:4219  function setPendigPresident(address newPresident) public onlyRepublic {... */\n    tag_23:\n        /* \"contracts/authority.sol\":1668:1683  block.timestamp */\n      timestamp\n        /* \"contracts/authority.sol\":1648:1665  TimeFirstElection */\n      immutable(\"0x2cc0d3dcb20652cd8f106aee76b6a7391771a130885634c0eb2bbe3cde796691\")\n        /* \"contracts/authority.sol\":1648:1683  TimeFirstElection < block.timestamp */\n      0xffffffffffff\n      and\n      lt\n        /* \"contracts/authority.sol\":1644:1870  if (TimeFirstElection < block.timestamp) {... */\n      iszero\n      tag_67\n      jumpi\n        /* \"contracts/authority.sol\":1722:1742  getRepublicAddress() */\n      tag_68\n        /* \"contracts/authority.sol\":1722:1740  getRepublicAddress */\n      tag_55\n        /* \"contracts/authority.sol\":1722:1742  getRepublicAddress() */\n      jump\t// in\n    tag_68:\n        /* \"contracts/authority.sol\":1708:1742  msg.sender == getRepublicAddress() */\n      0xffffffffffffffffffffffffffffffffffffffff\n      and\n        /* \"contracts/authority.sol\":1708:1718  msg.sender */\n      caller\n        /* \"contracts/authority.sol\":1708:1742  msg.sender == getRepublicAddress() */\n      0xffffffffffffffffffffffffffffffffffffffff\n      and\n      eq\n        /* \"contracts/authority.sol\":1700:1766  require(msg.sender == getRepublicAddress(), \"Access is not valid\") */\n      tag_69\n      jumpi\n      mload(0x40)\n      0x08c379a000000000000000000000000000000000000000000000000000000000\n      dup2\n      mstore\n      0x04\n      add\n      tag_70\n      swap1\n      tag_71\n      jump\t// in\n    tag_70:\n      mload(0x40)\n      dup1\n      swap2\n      sub\n      swap1\n      revert\n    tag_69:\n        /* \"contracts/authority.sol\":1644:1870  if (TimeFirstElection < block.timestamp) {... */\n      jump(tag_72)\n    tag_67:\n        /* \"contracts/authority.sol\":1808:1825  getPresidentAdd() */\n      tag_73\n        /* \"contracts/authority.sol\":1808:1823  getPresidentAdd */\n      tag_37\n        /* \"contracts/authority.sol\":1808:1825  getPresidentAdd() */\n      jump\t// in\n    tag_73:\n        /* \"contracts/authority.sol\":1794:1825  msg.sender == getPresidentAdd() */\n      0xffffffffffffffffffffffffffffffffffffffff\n      and\n        /* \"contracts/authority.sol\":1794:1804  msg.sender */\n      caller\n        /* \"contracts/authority.sol\":1794:1825  msg.sender == getPresidentAdd() */\n      0xffffffffffffffffffffffffffffffffffffffff\n      and\n      eq\n        /* \"contracts/authority.sol\":1794:1846  msg.sender == getPresidentAdd() && getPresidentBan() */\n      dup1\n      iszero\n      tag_74\n      jumpi\n      pop\n        /* \"contracts/authority.sol\":1829:1846  getPresidentBan() */\n      tag_75\n        /* \"contracts/authority.sol\":1829:1844  getPresidentBan */\n      tag_40\n        /* \"contracts/authority.sol\":1829:1846  getPresidentBan() */\n      jump\t// in\n    tag_75:\n        /* \"contracts/authority.sol\":1794:1846  msg.sender == getPresidentAdd() && getPresidentBan() */\n    tag_74:\n        /* \"contracts/authority.sol\":1786:1870  require(msg.sender == getPresidentAdd() && getPresidentBan(), \"Access is not valid\") */\n      tag_76\n      jumpi\n      mload(0x40)\n      0x08c379a000000000000000000000000000000000000000000000000000000000\n      dup2\n      mstore\n      0x04\n      add\n      tag_77\n      swap1\n      tag_71\n      jump\t// in\n    tag_77:\n      mload(0x40)\n      dup1\n      swap2\n      sub\n      swap1\n      revert\n    tag_76:\n        /* \"contracts/authority.sol\":1644:1870  if (TimeFirstElection < block.timestamp) {... */\n    tag_72:\n        /* \"contracts/authority.sol\":4141:4153  newPresident */\n      dup1\n        /* \"contracts/authority.sol\":4122:4138  _pendigPresident */\n      0x02\n      0x00\n        /* \"contracts/authority.sol\":4122:4153  _pendigPresident = newPresident */\n      0x0100\n      exp\n      dup2\n      sload\n      dup2\n      0xffffffffffffffffffffffffffffffffffffffff\n      mul\n      not\n      and\n      swap1\n      dup4\n      0xffffffffffffffffffffffffffffffffffffffff\n      and\n      mul\n      or\n      swap1\n      sstore\n      pop\n        /* \"contracts/authority.sol\":4198:4210  newPresident */\n      dup1\n        /* \"contracts/authority.sol\":4171:4211  TheNextPresidentWasElected(newPresident) */\n      0xffffffffffffffffffffffffffffffffffffffff\n      and\n      0x3553f1f7ef0242113266a8d183b621bb87468c99237f36b1150b6ab3d688b686\n      mload(0x40)\n      mload(0x40)\n      dup1\n      swap2\n      sub\n      swap1\n      log2\n        /* \"contracts/authority.sol\":4041:4219  function setPendigPresident(address newPresident) public onlyRepublic {... */\n      pop\n      jump\t// out\n        /* \"contracts/authority.sol\":4227:4673  function transferPresident() public {... */\n    tag_25:\n        /* \"contracts/authority.sol\":4298:4308  msg.sender */\n      caller\n        /* \"contracts/authority.sol\":4278:4308  _pendigPresident == msg.sender */\n      0xffffffffffffffffffffffffffffffffffffffff\n      and\n        /* \"contracts/authority.sol\":4278:4294  _pendigPresident */\n      0x02\n      0x00\n      swap1\n      sload\n      swap1\n      0x0100\n      exp\n      swap1\n      div\n      0xffffffffffffffffffffffffffffffffffffffff\n      and\n        /* \"contracts/authority.sol\":4278:4308  _pendigPresident == msg.sender */\n      0xffffffffffffffffffffffffffffffffffffffff\n      and\n      sub\n        /* \"contracts/authority.sol\":4274:4665  if (_pendigPresident == msg.sender) {... */\n      tag_80\n      jumpi\n        /* \"contracts/authority.sol\":4332:4348  _pendigPresident */\n      0x02\n      0x00\n        /* \"contracts/authority.sol\":4325:4348  delete _pendigPresident */\n      0x0100\n      exp\n      dup2\n      sload\n      swap1\n      0xffffffffffffffffffffffffffffffffffffffff\n      mul\n      not\n      and\n      swap1\n      sstore\n        /* \"contracts/authority.sol\":4383:4393  msg.sender */\n      caller\n        /* \"contracts/authority.sol\":4363:4373  _president */\n      0x03\n        /* \"contracts/authority.sol\":4363:4380  _president.rolAdd */\n      0x00\n      add\n      0x00\n        /* \"contracts/authority.sol\":4363:4393  _president.rolAdd = msg.sender */\n      0x0100\n      exp\n      dup2\n      sload\n      dup2\n      0xffffffffffffffffffffffffffffffffffffffff\n      mul\n      not\n      and\n      swap1\n      dup4\n      0xffffffffffffffffffffffffffffffffffffffff\n      and\n      mul\n      or\n      swap1\n      sstore\n      pop\n        /* \"contracts/authority.sol\":4408:4418  _president */\n      0x03\n        /* \"contracts/authority.sol\":4408:4424  _president.nonce */\n      0x00\n      add\n      0x15\n        /* \"contracts/authority.sol\":4408:4426  _president.nonce++ */\n      dup2\n      dup2\n      swap1\n      sload\n      swap1\n      0x0100\n      exp\n      swap1\n      div\n      0xffffffff\n      and\n      dup1\n      swap3\n      swap2\n      swap1\n      tag_81\n      swap1\n      tag_82\n      jump\t// in\n    tag_81:\n      swap2\n      swap1\n      0x0100\n      exp\n      dup2\n      sload\n      dup2\n      0xffffffff\n      mul\n      not\n      and\n      swap1\n      dup4\n      0xffffffff\n      and\n      mul\n      or\n      swap1\n      sstore\n      pop\n      pop\n        /* \"contracts/authority.sol\":4445:4455  _president */\n      0x03\n        /* \"contracts/authority.sol\":4445:4461  _president.baned */\n      0x00\n      add\n      0x14\n      swap1\n      sload\n      swap1\n      0x0100\n      exp\n      swap1\n      div\n      0xff\n      and\n        /* \"contracts/authority.sol\":4441:4522  if (_president.baned){... */\n      iszero\n      tag_83\n      jumpi\n        /* \"contracts/authority.sol\":4481:4506  _setPresidentBaned(false) */\n      tag_84\n        /* \"contracts/authority.sol\":4500:4505  false */\n      0x00\n        /* \"contracts/authority.sol\":4481:4499  _setPresidentBaned */\n      tag_85\n        /* \"contracts/authority.sol\":4481:4506  _setPresidentBaned(false) */\n      jump\t// in\n    tag_84:\n        /* \"contracts/authority.sol\":4441:4522  if (_president.baned){... */\n    tag_83:\n        /* \"contracts/authority.sol\":4588:4598  _president */\n      0x03\n        /* \"contracts/authority.sol\":4588:4604  _president.nonce */\n      0x00\n      add\n      0x15\n      swap1\n      sload\n      swap1\n      0x0100\n      exp\n      swap1\n      div\n      0xffffffff\n      and\n        /* \"contracts/authority.sol\":4541:4605  TheNewPresidentWasConfirmed(_president.rolAdd, _president.nonce) */\n      0xffffffff\n      and\n        /* \"contracts/authority.sol\":4569:4579  _president */\n      0x03\n        /* \"contracts/authority.sol\":4569:4586  _president.rolAdd */\n      0x00\n      add\n      0x00\n      swap1\n      sload\n      swap1\n      0x0100\n      exp\n      swap1\n      div\n      0xffffffffffffffffffffffffffffffffffffffff\n      and\n        /* \"contracts/authority.sol\":4541:4605  TheNewPresidentWasConfirmed(_president.rolAdd, _president.nonce) */\n      0xffffffffffffffffffffffffffffffffffffffff\n      and\n      0x05ad9b3688012cd825c1bfb941e4f5afb2558af6af3deaddf01dbb5e85abdaf9\n      mload(0x40)\n      mload(0x40)\n      dup1\n      swap2\n      sub\n      swap1\n      log3\n        /* \"contracts/authority.sol\":4274:4665  if (_pendigPresident == msg.sender) {... */\n      jump(tag_86)\n    tag_80:\n        /* \"contracts/authority.sol\":4632:4665  AccessOnlyForThePendigPresident() */\n      mload(0x40)\n      0xb513955100000000000000000000000000000000000000000000000000000000\n      dup2\n      mstore\n      0x04\n      add\n      mload(0x40)\n      dup1\n      swap2\n      sub\n      swap1\n      revert\n        /* \"contracts/authority.sol\":4274:4665  if (_pendigPresident == msg.sender) {... */\n    tag_86:\n        /* \"contracts/authority.sol\":4227:4673  function transferPresident() public {... */\n      jump\t// out\n        /* \"contracts/authority.sol\":2216:2771  function setPendingRepublicAddress(address newRAddress) public onlyRepublic {... */\n    tag_28:\n        /* \"contracts/authority.sol\":1668:1683  block.timestamp */\n      timestamp\n        /* \"contracts/authority.sol\":1648:1665  TimeFirstElection */\n      immutable(\"0x2cc0d3dcb20652cd8f106aee76b6a7391771a130885634c0eb2bbe3cde796691\")\n        /* \"contracts/authority.sol\":1648:1683  TimeFirstElection < block.timestamp */\n      0xffffffffffff\n      and\n      lt\n        /* \"contracts/authority.sol\":1644:1870  if (TimeFirstElection < block.timestamp) {... */\n      iszero\n      tag_88\n      jumpi\n        /* \"contracts/authority.sol\":1722:1742  getRepublicAddress() */\n      tag_89\n        /* \"contracts/authority.sol\":1722:1740  getRepublicAddress */\n      tag_55\n        /* \"contracts/authority.sol\":1722:1742  getRepublicAddress() */\n      jump\t// in\n    tag_89:\n        /* \"contracts/authority.sol\":1708:1742  msg.sender == getRepublicAddress() */\n      0xffffffffffffffffffffffffffffffffffffffff\n      and\n        /* \"contracts/authority.sol\":1708:1718  msg.sender */\n      caller\n        /* \"contracts/authority.sol\":1708:1742  msg.sender == getRepublicAddress() */\n      0xffffffffffffffffffffffffffffffffffffffff\n      and\n      eq\n        /* \"contracts/authority.sol\":1700:1766  require(msg.sender == getRepublicAddress(), \"Access is not valid\") */\n      tag_90\n      jumpi\n      mload(0x40)\n      0x08c379a000000000000000000000000000000000000000000000000000000000\n      dup2\n      mstore\n      0x04\n      add\n      tag_91\n      swap1\n      tag_71\n      jump\t// in\n    tag_91:\n      mload(0x40)\n      dup1\n      swap2\n      sub\n      swap1\n      revert\n    tag_90:\n        /* \"contracts/authority.sol\":1644:1870  if (TimeFirstElection < block.timestamp) {... */\n      jump(tag_92)\n    tag_88:\n        /* \"contracts/authority.sol\":1808:1825  getPresidentAdd() */\n      tag_93\n        /* \"contracts/authority.sol\":1808:1823  getPresidentAdd */\n      tag_37\n        /* \"contracts/authority.sol\":1808:1825  getPresidentAdd() */\n      jump\t// in\n    tag_93:\n        /* \"contracts/authority.sol\":1794:1825  msg.sender == getPresidentAdd() */\n      0xffffffffffffffffffffffffffffffffffffffff\n      and\n        /* \"contracts/authority.sol\":1794:1804  msg.sender */\n      caller\n        /* \"contracts/authority.sol\":1794:1825  msg.sender == getPresidentAdd() */\n      0xffffffffffffffffffffffffffffffffffffffff\n      and\n      eq\n        /* \"contracts/authority.sol\":1794:1846  msg.sender == getPresidentAdd() && getPresidentBan() */\n      dup1\n      iszero\n      tag_94\n      jumpi\n      pop\n        /* \"contracts/authority.sol\":1829:1846  getPresidentBan() */\n      tag_95\n        /* \"contracts/authority.sol\":1829:1844  getPresidentBan */\n      tag_40\n        /* \"contracts/authority.sol\":1829:1846  getPresidentBan() */\n      jump\t// in\n    tag_95:\n        /* \"contracts/authority.sol\":1794:1846  msg.sender == getPresidentAdd() && getPresidentBan() */\n    tag_94:\n        /* \"contracts/authority.sol\":1786:1870  require(msg.sender == getPresidentAdd() && getPresidentBan(), \"Access is not valid\") */\n      tag_96\n      jumpi\n      mload(0x40)\n      0x08c379a000000000000000000000000000000000000000000000000000000000\n      dup2\n      mstore\n      0x04\n      add\n      tag_97\n      swap1\n      tag_71\n      jump\t// in\n    tag_97:\n      mload(0x40)\n      dup1\n      swap2\n      sub\n      swap1\n      revert\n    tag_96:\n        /* \"contracts/authority.sol\":1644:1870  if (TimeFirstElection < block.timestamp) {... */\n    tag_92:\n        /* \"contracts/authority.sol\":2333:2334  0 */\n      0x00\n        /* \"contracts/authority.sol\":2307:2318  newRAddress */\n      dup2\n        /* \"contracts/authority.sol\":2307:2330  newRAddress.code.length */\n      0xffffffffffffffffffffffffffffffffffffffff\n      and\n      extcodesize\n        /* \"contracts/authority.sol\":2307:2334  newRAddress.code.length > 0 */\n      gt\n        /* \"contracts/authority.sol\":2303:2761  if (newRAddress.code.length > 0) {... */\n      iszero\n      tag_99\n      jumpi\n        /* \"contracts/authority.sol\":2376:2386  msg.sender */\n      caller\n        /* \"contracts/authority.sol\":2355:2386  _president.rolAdd == msg.sender */\n      0xffffffffffffffffffffffffffffffffffffffff\n      and\n        /* \"contracts/authority.sol\":2355:2365  _president */\n      0x03\n        /* \"contracts/authority.sol\":2355:2372  _president.rolAdd */\n      0x00\n      add\n      0x00\n      swap1\n      sload\n      swap1\n      0x0100\n      exp\n      swap1\n      div\n      0xffffffffffffffffffffffffffffffffffffffff\n      and\n        /* \"contracts/authority.sol\":2355:2386  _president.rolAdd == msg.sender */\n      0xffffffffffffffffffffffffffffffffffffffff\n      and\n      sub\n        /* \"contracts/authority.sol\":2351:2691  if (_president.rolAdd == msg.sender) {... */\n      tag_100\n      jumpi\n        /* \"contracts/authority.sol\":2407:2444  _transferRepublicAddress(newRAddress) */\n      tag_101\n        /* \"contracts/authority.sol\":2432:2443  newRAddress */\n      dup2\n        /* \"contracts/authority.sol\":2407:2431  _transferRepublicAddress */\n      tag_102\n        /* \"contracts/authority.sol\":2407:2444  _transferRepublicAddress(newRAddress) */\n      jump\t// in\n    tag_101:\n        /* \"contracts/authority.sol\":2351:2691  if (_president.rolAdd == msg.sender) {... */\n      jump(tag_103)\n    tag_100:\n        /* \"contracts/authority.sol\":2543:2550  15 days */\n      0x13c680\n        /* \"contracts/authority.sol\":2525:2540  block.timestamp */\n      timestamp\n        /* \"contracts/authority.sol\":2525:2550  block.timestamp + 15 days */\n      tag_104\n      swap2\n      swap1\n      tag_105\n      jump\t// in\n    tag_104:\n        /* \"contracts/authority.sol\":2487:2515  _delayConfirmRepublicAddress */\n      0x02\n      0x14\n        /* \"contracts/authority.sol\":2487:2551  _delayConfirmRepublicAddress = uint48(block.timestamp + 15 days) */\n      0x0100\n      exp\n      dup2\n      sload\n      dup2\n      0xffffffffffff\n      mul\n      not\n      and\n      swap1\n      dup4\n      0xffffffffffff\n      and\n      mul\n      or\n      swap1\n      sstore\n      pop\n        /* \"contracts/authority.sol\":2595:2606  newRAddress */\n      dup1\n        /* \"contracts/authority.sol\":2570:2592  _pendigRepublicAddress */\n      0x00\n      dup1\n        /* \"contracts/authority.sol\":2570:2606  _pendigRepublicAddress = newRAddress */\n      0x0100\n      exp\n      dup2\n      sload\n      dup2\n      0xffffffffffffffffffffffffffffffffffffffff\n      mul\n      not\n      and\n      swap1\n      dup4\n      0xffffffffffffffffffffffffffffffffffffffff\n      and\n      mul\n      or\n      swap1\n      sstore\n      pop\n        /* \"contracts/authority.sol\":2663:2674  newRAddress */\n      dup1\n        /* \"contracts/authority.sol\":2630:2675  TheNextRepublicAddressWasElected(newRAddress) */\n      0xffffffffffffffffffffffffffffffffffffffff\n      and\n      0x675b770e821ba4aad20be77c58f912d689226272e805637f42f838a6035eed86\n      mload(0x40)\n      mload(0x40)\n      dup1\n      swap2\n      sub\n      swap1\n      log2\n        /* \"contracts/authority.sol\":2351:2691  if (_president.rolAdd == msg.sender) {... */\n    tag_103:\n        /* \"contracts/authority.sol\":2303:2761  if (newRAddress.code.length > 0) {... */\n      jump(tag_106)\n    tag_99:\n        /* \"contracts/authority.sol\":2749:2760  newRAddress */\n      dup1\n        /* \"contracts/authority.sol\":2717:2761  TheAddressIsNotValidForRAddress(newRAddress) */\n      mload(0x40)\n      0xc632231500000000000000000000000000000000000000000000000000000000\n      dup2\n      mstore\n      0x04\n      add\n      tag_107\n      swap2\n      swap1\n      tag_32\n      jump\t// in\n    tag_107:\n      mload(0x40)\n      dup1\n      swap2\n      sub\n      swap1\n      revert\n        /* \"contracts/authority.sol\":2303:2761  if (newRAddress.code.length > 0) {... */\n    tag_106:\n        /* \"contracts/authority.sol\":2216:2771  function setPendingRepublicAddress(address newRAddress) public onlyRepublic {... */\n      pop\n      jump\t// out\n        /* \"contracts/authority.sol\":5641:5740  function getGovernance() public view returns (address) {... */\n    tag_30:\n        /* \"contracts/authority.sol\":5687:5694  address */\n      0x00\n        /* \"contracts/authority.sol\":5714:5725  _governance */\n      0x04\n        /* \"contracts/authority.sol\":5714:5732  _governance.rolAdd */\n      0x00\n      add\n      0x00\n      swap1\n      sload\n      swap1\n      0x0100\n      exp\n      swap1\n      div\n      0xffffffffffffffffffffffffffffffffffffffff\n      and\n        /* \"contracts/authority.sol\":5707:5732  return _governance.rolAdd */\n      swap1\n      pop\n        /* \"contracts/authority.sol\":5641:5740  function getGovernance() public view returns (address) {... */\n      swap1\n      jump\t// out\n        /* \"contracts/authority.sol\":3417:3791  function cancelPendingRepublicAddress(address PRAdress) public onlyRepublic {... */\n    tag_35:\n        /* \"contracts/authority.sol\":1668:1683  block.timestamp */\n      timestamp\n        /* \"contracts/authority.sol\":1648:1665  TimeFirstElection */\n      immutable(\"0x2cc0d3dcb20652cd8f106aee76b6a7391771a130885634c0eb2bbe3cde796691\")\n        /* \"contracts/authority.sol\":1648:1683  TimeFirstElection < block.timestamp */\n      0xffffffffffff\n      and\n      lt\n        /* \"contracts/authority.sol\":1644:1870  if (TimeFirstElection < block.timestamp) {... */\n      iszero\n      tag_110\n      jumpi\n        /* \"contracts/authority.sol\":1722:1742  getRepublicAddress() */\n      tag_111\n        /* \"contracts/authority.sol\":1722:1740  getRepublicAddress */\n      tag_55\n        /* \"contracts/authority.sol\":1722:1742  getRepublicAddress() */\n      jump\t// in\n    tag_111:\n        /* \"contracts/authority.sol\":1708:1742  msg.sender == getRepublicAddress() */\n      0xffffffffffffffffffffffffffffffffffffffff\n      and\n        /* \"contracts/authority.sol\":1708:1718  msg.sender */\n      caller\n        /* \"contracts/authority.sol\":1708:1742  msg.sender == getRepublicAddress() */\n      0xffffffffffffffffffffffffffffffffffffffff\n      and\n      eq\n        /* \"contracts/authority.sol\":1700:1766  require(msg.sender == getRepublicAddress(), \"Access is not valid\") */\n      tag_112\n      jumpi\n      mload(0x40)\n      0x08c379a000000000000000000000000000000000000000000000000000000000\n      dup2\n      mstore\n      0x04\n      add\n      tag_113\n      swap1\n      tag_71\n      jump\t// in\n    tag_113:\n      mload(0x40)\n      dup1\n      swap2\n      sub\n      swap1\n      revert\n    tag_112:\n        /* \"contracts/authority.sol\":1644:1870  if (TimeFirstElection < block.timestamp) {... */\n      jump(tag_114)\n    tag_110:\n        /* \"contracts/authority.sol\":1808:1825  getPresidentAdd() */\n      tag_115\n        /* \"contracts/authority.sol\":1808:1823  getPresidentAdd */\n      tag_37\n        /* \"contracts/authority.sol\":1808:1825  getPresidentAdd() */\n      jump\t// in\n    tag_115:\n        /* \"contracts/authority.sol\":1794:1825  msg.sender == getPresidentAdd() */\n      0xffffffffffffffffffffffffffffffffffffffff\n      and\n        /* \"contracts/authority.sol\":1794:1804  msg.sender */\n      caller\n        /* \"contracts/authority.sol\":1794:1825  msg.sender == getPresidentAdd() */\n      0xffffffffffffffffffffffffffffffffffffffff\n      and\n      eq\n        /* \"contracts/authority.sol\":1794:1846  msg.sender == getPresidentAdd() && getPresidentBan() */\n      dup1\n      iszero\n      tag_116\n      jumpi\n      pop\n        /* \"contracts/authority.sol\":1829:1846  getPresidentBan() */\n      tag_117\n        /* \"contracts/authority.sol\":1829:1844  getPresidentBan */\n      tag_40\n        /* \"contracts/authority.sol\":1829:1846  getPresidentBan() */\n      jump\t// in\n    tag_117:\n        /* \"contracts/authority.sol\":1794:1846  msg.sender == getPresidentAdd() && getPresidentBan() */\n    tag_116:\n        /* \"contracts/authority.sol\":1786:1870  require(msg.sender == getPresidentAdd() && getPresidentBan(), \"Access is not valid\") */\n      tag_118\n      jumpi\n      mload(0x40)\n      0x08c379a000000000000000000000000000000000000000000000000000000000\n      dup2\n      mstore\n      0x04\n      add\n      tag_119\n      swap1\n      tag_71\n      jump\t// in\n    tag_119:\n      mload(0x40)\n      dup1\n      swap2\n      sub\n      swap1\n      revert\n    tag_118:\n        /* \"contracts/authority.sol\":1644:1870  if (TimeFirstElection < block.timestamp) {... */\n    tag_114:\n        /* \"contracts/authority.sol\":3534:3542  PRAdress */\n      dup1\n        /* \"contracts/authority.sol\":3508:3542  _pendigRepublicAddress == PRAdress */\n      0xffffffffffffffffffffffffffffffffffffffff\n      and\n        /* \"contracts/authority.sol\":3508:3530  _pendigRepublicAddress */\n      0x00\n      dup1\n      sload\n      swap1\n      0x0100\n      exp\n      swap1\n      div\n      0xffffffffffffffffffffffffffffffffffffffff\n      and\n        /* \"contracts/authority.sol\":3508:3542  _pendigRepublicAddress == PRAdress */\n      0xffffffffffffffffffffffffffffffffffffffff\n      and\n      sub\n        /* \"contracts/authority.sol\":3504:3783  if (_pendigRepublicAddress == PRAdress) {... */\n      tag_121\n      jumpi\n        /* \"contracts/authority.sol\":3570:3598  _delayConfirmRepublicAddress */\n      0x02\n      0x14\n        /* \"contracts/authority.sol\":3563:3598  delete _delayConfirmRepublicAddress */\n      0x0100\n      exp\n      dup2\n      sload\n      swap1\n      0xffffffffffff\n      mul\n      not\n      and\n      swap1\n      sstore\n        /* \"contracts/authority.sol\":3624:3646  _pendigRepublicAddress */\n      0x00\n      dup1\n        /* \"contracts/authority.sol\":3617:3646  delete _pendigRepublicAddress */\n      0x0100\n      exp\n      dup2\n      sload\n      swap1\n      0xffffffffffffffffffffffffffffffffffffffff\n      mul\n      not\n      and\n      swap1\n      sstore\n        /* \"contracts/authority.sol\":3706:3714  PRAdress */\n      dup1\n        /* \"contracts/authority.sol\":3671:3715  TheNextRepublicAddressWasCancelled(PRAdress) */\n      0xffffffffffffffffffffffffffffffffffffffff\n      and\n      0xf299f61c7e493f99b20cb36c587ca903d085d5206bfe4452d295711e372da029\n      mload(0x40)\n      mload(0x40)\n      dup1\n      swap2\n      sub\n      swap1\n      log2\n        /* \"contracts/authority.sol\":3504:3783  if (_pendigRepublicAddress == PRAdress) {... */\n      jump(tag_122)\n    tag_121:\n        /* \"contracts/authority.sol\":3774:3782  PRAdress */\n      dup1\n        /* \"contracts/authority.sol\":3742:3783  TheAddressIsNotValidForRAddress(PRAdress) */\n      mload(0x40)\n      0xc632231500000000000000000000000000000000000000000000000000000000\n      dup2\n      mstore\n      0x04\n      add\n      tag_123\n      swap2\n      swap1\n      tag_32\n      jump\t// in\n    tag_123:\n      mload(0x40)\n      dup1\n      swap2\n      sub\n      swap1\n      revert\n        /* \"contracts/authority.sol\":3504:3783  if (_pendigRepublicAddress == PRAdress) {... */\n    tag_122:\n        /* \"contracts/authority.sol\":3417:3791  function cancelPendingRepublicAddress(address PRAdress) public onlyRepublic {... */\n      pop\n      jump\t// out\n        /* \"contracts/authority.sol\":4681:4781  function getPresidentAdd() public view returns (address) {... */\n    tag_37:\n        /* \"contracts/authority.sol\":4729:4736  address */\n      0x00\n        /* \"contracts/authority.sol\":4756:4766  _president */\n      0x03\n        /* \"contracts/authority.sol\":4756:4773  _president.rolAdd */\n      0x00\n      add\n      0x00\n      swap1\n      sload\n      swap1\n      0x0100\n      exp\n      swap1\n      div\n      0xffffffffffffffffffffffffffffffffffffffff\n      and\n        /* \"contracts/authority.sol\":4749:4773  return _president.rolAdd */\n      swap1\n      pop\n        /* \"contracts/authority.sol\":4681:4781  function getPresidentAdd() public view returns (address) {... */\n      swap1\n      jump\t// out\n        /* \"contracts/authority.sol\":4789:4885  function getPresidentBan() public view returns (bool) {... */\n    tag_40:\n        /* \"contracts/authority.sol\":4837:4841  bool */\n      0x00\n        /* \"contracts/authority.sol\":4861:4871  _president */\n      0x03\n        /* \"contracts/authority.sol\":4861:4877  _president.baned */\n      0x00\n      add\n      0x14\n      swap1\n      sload\n      swap1\n      0x0100\n      exp\n      swap1\n      div\n      0xff\n      and\n        /* \"contracts/authority.sol\":4854:4877  return _president.baned */\n      swap1\n      pop\n        /* \"contracts/authority.sol\":4789:4885  function getPresidentBan() public view returns (bool) {... */\n      swap1\n      jump\t// out\n        /* \"contracts/authority.sol\":2779:3409  function transferRepublicAddress(address RAddress) public onlyRepublic {... */\n    tag_45:\n        /* \"contracts/authority.sol\":1668:1683  block.timestamp */\n      timestamp\n        /* \"contracts/authority.sol\":1648:1665  TimeFirstElection */\n      immutable(\"0x2cc0d3dcb20652cd8f106aee76b6a7391771a130885634c0eb2bbe3cde796691\")\n        /* \"contracts/authority.sol\":1648:1683  TimeFirstElection < block.timestamp */\n      0xffffffffffff\n      and\n      lt\n        /* \"contracts/authority.sol\":1644:1870  if (TimeFirstElection < block.timestamp) {... */\n      iszero\n      tag_127\n      jumpi\n        /* \"contracts/authority.sol\":1722:1742  getRepublicAddress() */\n      tag_128\n        /* \"contracts/authority.sol\":1722:1740  getRepublicAddress */\n      tag_55\n        /* \"contracts/authority.sol\":1722:1742  getRepublicAddress() */\n      jump\t// in\n    tag_128:\n        /* \"contracts/authority.sol\":1708:1742  msg.sender == getRepublicAddress() */\n      0xffffffffffffffffffffffffffffffffffffffff\n      and\n        /* \"contracts/authority.sol\":1708:1718  msg.sender */\n      caller\n        /* \"contracts/authority.sol\":1708:1742  msg.sender == getRepublicAddress() */\n      0xffffffffffffffffffffffffffffffffffffffff\n      and\n      eq\n        /* \"contracts/authority.sol\":1700:1766  require(msg.sender == getRepublicAddress(), \"Access is not valid\") */\n      tag_129\n      jumpi\n      mload(0x40)\n      0x08c379a000000000000000000000000000000000000000000000000000000000\n      dup2\n      mstore\n      0x04\n      add\n      tag_130\n      swap1\n      tag_71\n      jump\t// in\n    tag_130:\n      mload(0x40)\n      dup1\n      swap2\n      sub\n      swap1\n      revert\n    tag_129:\n        /* \"contracts/authority.sol\":1644:1870  if (TimeFirstElection < block.timestamp) {... */\n      jump(tag_131)\n    tag_127:\n        /* \"contracts/authority.sol\":1808:1825  getPresidentAdd() */\n      tag_132\n        /* \"contracts/authority.sol\":1808:1823  getPresidentAdd */\n      tag_37\n        /* \"contracts/authority.sol\":1808:1825  getPresidentAdd() */\n      jump\t// in\n    tag_132:\n        /* \"contracts/authority.sol\":1794:1825  msg.sender == getPresidentAdd() */\n      0xffffffffffffffffffffffffffffffffffffffff\n      and\n        /* \"contracts/authority.sol\":1794:1804  msg.sender */\n      caller\n        /* \"contracts/authority.sol\":1794:1825  msg.sender == getPresidentAdd() */\n      0xffffffffffffffffffffffffffffffffffffffff\n      and\n      eq\n        /* \"contracts/authority.sol\":1794:1846  msg.sender == getPresidentAdd() && getPresidentBan() */\n      dup1\n      iszero\n      tag_133\n      jumpi\n      pop\n        /* \"contracts/authority.sol\":1829:1846  getPresidentBan() */\n      tag_134\n        /* \"contracts/authority.sol\":1829:1844  getPresidentBan */\n      tag_40\n        /* \"contracts/authority.sol\":1829:1846  getPresidentBan() */\n      jump\t// in\n    tag_134:\n        /* \"contracts/authority.sol\":1794:1846  msg.sender == getPresidentAdd() && getPresidentBan() */\n    tag_133:\n        /* \"contracts/authority.sol\":1786:1870  require(msg.sender == getPresidentAdd() && getPresidentBan(), \"Access is not valid\") */\n      tag_135\n      jumpi\n      mload(0x40)\n      0x08c379a000000000000000000000000000000000000000000000000000000000\n      dup2\n      mstore\n      0x04\n      add\n      tag_136\n      swap1\n      tag_71\n      jump\t// in\n    tag_136:\n      mload(0x40)\n      dup1\n      swap2\n      sub\n      swap1\n      revert\n    tag_135:\n        /* \"contracts/authority.sol\":1644:1870  if (TimeFirstElection < block.timestamp) {... */\n    tag_131:\n        /* \"contracts/authority.sol\":2896:2911  block.timestamp */\n      timestamp\n        /* \"contracts/authority.sol\":2865:2893  _delayConfirmRepublicAddress */\n      0x02\n      0x14\n      swap1\n      sload\n      swap1\n      0x0100\n      exp\n      swap1\n      div\n      0xffffffffffff\n      and\n        /* \"contracts/authority.sol\":2865:2911  _delayConfirmRepublicAddress < block.timestamp */\n      0xffffffffffff\n      and\n      lt\n        /* \"contracts/authority.sol\":2861:3401  if (_delayConfirmRepublicAddress < block.timestamp) {... */\n      iszero\n      tag_138\n      jumpi\n        /* \"contracts/authority.sol\":2968:2969  0 */\n      0x00\n        /* \"contracts/authority.sol\":2936:2964  _delayConfirmRepublicAddress */\n      0x02\n      0x14\n      swap1\n      sload\n      swap1\n      0x0100\n      exp\n      swap1\n      div\n      0xffffffffffff\n      and\n        /* \"contracts/authority.sol\":2936:2969  _delayConfirmRepublicAddress != 0 */\n      0xffffffffffff\n      and\n      sub\n        /* \"contracts/authority.sol\":2928:2995  require(_delayConfirmRepublicAddress != 0,\"The request is invalid\") */\n      tag_139\n      jumpi\n      mload(0x40)\n      0x08c379a000000000000000000000000000000000000000000000000000000000\n      dup2\n      mstore\n      0x04\n      add\n      tag_140\n      swap1\n      tag_141\n      jump\t// in\n    tag_140:\n      mload(0x40)\n      dup1\n      swap2\n      sub\n      swap1\n      revert\n    tag_139:\n        /* \"contracts/authority.sol\":3040:3048  RAddress */\n      dup1\n        /* \"contracts/authority.sol\":3014:3048  _pendigRepublicAddress == RAddress */\n      0xffffffffffffffffffffffffffffffffffffffff\n      and\n        /* \"contracts/authority.sol\":3014:3036  _pendigRepublicAddress */\n      0x00\n      dup1\n      sload\n      swap1\n      0x0100\n      exp\n      swap1\n      div\n      0xffffffffffffffffffffffffffffffffffffffff\n      and\n        /* \"contracts/authority.sol\":3014:3048  _pendigRepublicAddress == RAddress */\n      0xffffffffffffffffffffffffffffffffffffffff\n      and\n      sub\n        /* \"contracts/authority.sol\":3010:3277  if (_pendigRepublicAddress == RAddress) {... */\n      tag_142\n      jumpi\n        /* \"contracts/authority.sol\":3076:3104  _delayConfirmRepublicAddress */\n      0x02\n      0x14\n        /* \"contracts/authority.sol\":3069:3104  delete _delayConfirmRepublicAddress */\n      0x0100\n      exp\n      dup2\n      sload\n      swap1\n      0xffffffffffff\n      mul\n      not\n      and\n      swap1\n      sstore\n        /* \"contracts/authority.sol\":3130:3152  _pendigRepublicAddress */\n      0x00\n      dup1\n        /* \"contracts/authority.sol\":3123:3152  delete _pendigRepublicAddress */\n      0x0100\n      exp\n      dup2\n      sload\n      swap1\n      0xffffffffffffffffffffffffffffffffffffffff\n      mul\n      not\n      and\n      swap1\n      sstore\n        /* \"contracts/authority.sol\":3171:3205  _transferRepublicAddress(RAddress) */\n      tag_143\n        /* \"contracts/authority.sol\":3196:3204  RAddress */\n      dup2\n        /* \"contracts/authority.sol\":3171:3195  _transferRepublicAddress */\n      tag_102\n        /* \"contracts/authority.sol\":3171:3205  _transferRepublicAddress(RAddress) */\n      jump\t// in\n    tag_143:\n        /* \"contracts/authority.sol\":3010:3277  if (_pendigRepublicAddress == RAddress) {... */\n      jump(tag_144)\n    tag_142:\n        /* \"contracts/authority.sol\":3268:3276  RAddress */\n      dup1\n        /* \"contracts/authority.sol\":3236:3277  TheAddressIsNotValidForRAddress(RAddress) */\n      mload(0x40)\n      0xc632231500000000000000000000000000000000000000000000000000000000\n      dup2\n      mstore\n      0x04\n      add\n      tag_145\n      swap2\n      swap1\n      tag_32\n      jump\t// in\n    tag_145:\n      mload(0x40)\n      dup1\n      swap2\n      sub\n      swap1\n      revert\n        /* \"contracts/authority.sol\":3010:3277  if (_pendigRepublicAddress == RAddress) {... */\n    tag_144:\n        /* \"contracts/authority.sol\":2861:3401  if (_delayConfirmRepublicAddress < block.timestamp) {... */\n      jump(tag_146)\n    tag_138:\n        /* \"contracts/authority.sol\":3384:3399  block.timestamp */\n      timestamp\n        /* \"contracts/authority.sol\":3346:3374  _delayConfirmRepublicAddress */\n      0x02\n      0x14\n      swap1\n      sload\n      swap1\n      0x0100\n      exp\n      swap1\n      div\n      0xffffffffffff\n      and\n        /* \"contracts/authority.sol\":3346:3400  _delayConfirmRepublicAddress - uint48(block.timestamp) */\n      tag_147\n      swap2\n      swap1\n      tag_148\n      jump\t// in\n    tag_147:\n        /* \"contracts/authority.sol\":3304:3401  RemainingTimeUntilTheConfirmationDeadline(_delayConfirmRepublicAddress - uint48(block.timestamp)) */\n      mload(0x40)\n      0x223a6cbb00000000000000000000000000000000000000000000000000000000\n      dup2\n      mstore\n      0x04\n      add\n      tag_149\n      swap2\n      swap1\n      tag_150\n      jump\t// in\n    tag_149:\n      mload(0x40)\n      dup1\n      swap2\n      sub\n      swap1\n      revert\n        /* \"contracts/authority.sol\":2861:3401  if (_delayConfirmRepublicAddress < block.timestamp) {... */\n    tag_146:\n        /* \"contracts/authority.sol\":2779:3409  function transferRepublicAddress(address RAddress) public onlyRepublic {... */\n      pop\n      jump\t// out\n        /* \"contracts/authority.sol\":5860:5963  function setPresidentBaned(bool baned) public onlyRepublic {... */\n    tag_49:\n        /* \"contracts/authority.sol\":1668:1683  block.timestamp */\n      timestamp\n        /* \"contracts/authority.sol\":1648:1665  TimeFirstElection */\n      immutable(\"0x2cc0d3dcb20652cd8f106aee76b6a7391771a130885634c0eb2bbe3cde796691\")\n        /* \"contracts/authority.sol\":1648:1683  TimeFirstElection < block.timestamp */\n      0xffffffffffff\n      and\n      lt\n        /* \"contracts/authority.sol\":1644:1870  if (TimeFirstElection < block.timestamp) {... */\n      iszero\n      tag_152\n      jumpi\n        /* \"contracts/authority.sol\":1722:1742  getRepublicAddress() */\n      tag_153\n        /* \"contracts/authority.sol\":1722:1740  getRepublicAddress */\n      tag_55\n        /* \"contracts/authority.sol\":1722:1742  getRepublicAddress() */\n      jump\t// in\n    tag_153:\n        /* \"contracts/authority.sol\":1708:1742  msg.sender == getRepublicAddress() */\n      0xffffffffffffffffffffffffffffffffffffffff\n      and\n        /* \"contracts/authority.sol\":1708:1718  msg.sender */\n      caller\n        /* \"contracts/authority.sol\":1708:1742  msg.sender == getRepublicAddress() */\n      0xffffffffffffffffffffffffffffffffffffffff\n      and\n      eq\n        /* \"contracts/authority.sol\":1700:1766  require(msg.sender == getRepublicAddress(), \"Access is not valid\") */\n      tag_154\n      jumpi\n      mload(0x40)\n      0x08c379a000000000000000000000000000000000000000000000000000000000\n      dup2\n      mstore\n      0x04\n      add\n      tag_155\n      swap1\n      tag_71\n      jump\t// in\n    tag_155:\n      mload(0x40)\n      dup1\n      swap2\n      sub\n      swap1\n      revert\n    tag_154:\n        /* \"contracts/authority.sol\":1644:1870  if (TimeFirstElection < block.timestamp) {... */\n      jump(tag_156)\n    tag_152:\n        /* \"contracts/authority.sol\":1808:1825  getPresidentAdd() */\n      tag_157\n        /* \"contracts/authority.sol\":1808:1823  getPresidentAdd */\n      tag_37\n        /* \"contracts/authority.sol\":1808:1825  getPresidentAdd() */\n      jump\t// in\n    tag_157:\n        /* \"contracts/authority.sol\":1794:1825  msg.sender == getPresidentAdd() */\n      0xffffffffffffffffffffffffffffffffffffffff\n      and\n        /* \"contracts/authority.sol\":1794:1804  msg.sender */\n      caller\n        /* \"contracts/authority.sol\":1794:1825  msg.sender == getPresidentAdd() */\n      0xffffffffffffffffffffffffffffffffffffffff\n      and\n      eq\n        /* \"contracts/authority.sol\":1794:1846  msg.sender == getPresidentAdd() && getPresidentBan() */\n      dup1\n      iszero\n      tag_158\n      jumpi\n      pop\n        /* \"contracts/authority.sol\":1829:1846  getPresidentBan() */\n      tag_159\n        /* \"contracts/authority.sol\":1829:1844  getPresidentBan */\n      tag_40\n        /* \"contracts/authority.sol\":1829:1846  getPresidentBan() */\n      jump\t// in\n    tag_159:\n        /* \"contracts/authority.sol\":1794:1846  msg.sender == getPresidentAdd() && getPresidentBan() */\n    tag_158:\n        /* \"contracts/authority.sol\":1786:1870  require(msg.sender == getPresidentAdd() && getPresidentBan(), \"Access is not valid\") */\n      tag_160\n      jumpi\n      mload(0x40)\n      0x08c379a000000000000000000000000000000000000000000000000000000000\n      dup2\n      mstore\n      0x04\n      add\n      tag_161\n      swap1\n      tag_71\n      jump\t// in\n    tag_161:\n      mload(0x40)\n      dup1\n      swap2\n      sub\n      swap1\n      revert\n    tag_160:\n        /* \"contracts/authority.sol\":1644:1870  if (TimeFirstElection < block.timestamp) {... */\n    tag_156:\n        /* \"contracts/authority.sol\":5930:5955  _setPresidentBaned(baned) */\n      tag_163\n        /* \"contracts/authority.sol\":5949:5954  baned */\n      dup2\n        /* \"contracts/authority.sol\":5930:5948  _setPresidentBaned */\n      tag_85\n        /* \"contracts/authority.sol\":5930:5955  _setPresidentBaned(baned) */\n      jump\t// in\n    tag_163:\n        /* \"contracts/authority.sol\":5860:5963  function setPresidentBaned(bool baned) public onlyRepublic {... */\n      pop\n      jump\t// out\n        /* \"contracts/authority.sol\":5748:5852  function getgovernanceVersion() public view returns (uint32) {... */\n    tag_51:\n        /* \"contracts/authority.sol\":5801:5807  uint32 */\n      0x00\n        /* \"contracts/authority.sol\":5827:5838  _governance */\n      0x04\n        /* \"contracts/authority.sol\":5827:5844  _governance.nonce */\n      0x00\n      add\n      0x15\n      swap1\n      sload\n      swap1\n      0x0100\n      exp\n      swap1\n      div\n      0xffffffff\n      and\n        /* \"contracts/authority.sol\":5820:5844  return _governance.nonce */\n      swap1\n      pop\n        /* \"contracts/authority.sol\":5748:5852  function getgovernanceVersion() public view returns (uint32) {... */\n      swap1\n      jump\t// out\n        /* \"contracts/authority.sol\":3799:3912  function getRepublicAddress() public view returns (address RG) {... */\n    tag_55:\n        /* \"contracts/authority.sol\":3850:3860  address RG */\n      0x00\n        /* \"contracts/authority.sol\":3884:3893  _Republic */\n      0x05\n        /* \"contracts/authority.sol\":3884:3900  _Republic.rolAdd */\n      0x00\n      add\n      0x00\n      swap1\n      sload\n      swap1\n      0x0100\n      exp\n      swap1\n      div\n      0xffffffffffffffffffffffffffffffffffffffff\n      and\n        /* \"contracts/authority.sol\":3877:3900  return _Republic.rolAdd */\n      swap1\n      pop\n        /* \"contracts/authority.sol\":3799:3912  function getRepublicAddress() public view returns (address RG) {... */\n      swap1\n      jump\t// out\n        /* \"contracts/authority.sol\":4893:5208  function setPendingGovernanceContractAddress(address newGCAddress) public onlyRepublic {... */\n    tag_59:\n        /* \"contracts/authority.sol\":1668:1683  block.timestamp */\n      timestamp\n        /* \"contracts/authority.sol\":1648:1665  TimeFirstElection */\n      immutable(\"0x2cc0d3dcb20652cd8f106aee76b6a7391771a130885634c0eb2bbe3cde796691\")\n        /* \"contracts/authority.sol\":1648:1683  TimeFirstElection < block.timestamp */\n      0xffffffffffff\n      and\n      lt\n        /* \"contracts/authority.sol\":1644:1870  if (TimeFirstElection < block.timestamp) {... */\n      iszero\n      tag_167\n      jumpi\n        /* \"contracts/authority.sol\":1722:1742  getRepublicAddress() */\n      tag_168\n        /* \"contracts/authority.sol\":1722:1740  getRepublicAddress */\n      tag_55\n        /* \"contracts/authority.sol\":1722:1742  getRepublicAddress() */\n      jump\t// in\n    tag_168:\n        /* \"contracts/authority.sol\":1708:1742  msg.sender == getRepublicAddress() */\n      0xffffffffffffffffffffffffffffffffffffffff\n      and\n        /* \"contracts/authority.sol\":1708:1718  msg.sender */\n      caller\n        /* \"contracts/authority.sol\":1708:1742  msg.sender == getRepublicAddress() */\n      0xffffffffffffffffffffffffffffffffffffffff\n      and\n      eq\n        /* \"contracts/authority.sol\":1700:1766  require(msg.sender == getRepublicAddress(), \"Access is not valid\") */\n      tag_169\n      jumpi\n      mload(0x40)\n      0x08c379a000000000000000000000000000000000000000000000000000000000\n      dup2\n      mstore\n      0x04\n      add\n      tag_170\n      swap1\n      tag_71\n      jump\t// in\n    tag_170:\n      mload(0x40)\n      dup1\n      swap2\n      sub\n      swap1\n      revert\n    tag_169:\n        /* \"contracts/authority.sol\":1644:1870  if (TimeFirstElection < block.timestamp) {... */\n      jump(tag_171)\n    tag_167:\n        /* \"contracts/authority.sol\":1808:1825  getPresidentAdd() */\n      tag_172\n        /* \"contracts/authority.sol\":1808:1823  getPresidentAdd */\n      tag_37\n        /* \"contracts/authority.sol\":1808:1825  getPresidentAdd() */\n      jump\t// in\n    tag_172:\n        /* \"contracts/authority.sol\":1794:1825  msg.sender == getPresidentAdd() */\n      0xffffffffffffffffffffffffffffffffffffffff\n      and\n        /* \"contracts/authority.sol\":1794:1804  msg.sender */\n      caller\n        /* \"contracts/authority.sol\":1794:1825  msg.sender == getPresidentAdd() */\n      0xffffffffffffffffffffffffffffffffffffffff\n      and\n      eq\n        /* \"contracts/authority.sol\":1794:1846  msg.sender == getPresidentAdd() && getPresidentBan() */\n      dup1\n      iszero\n      tag_173\n      jumpi\n      pop\n        /* \"contracts/authority.sol\":1829:1846  getPresidentBan() */\n      tag_174\n        /* \"contracts/authority.sol\":1829:1844  getPresidentBan */\n      tag_40\n        /* \"contracts/authority.sol\":1829:1846  getPresidentBan() */\n      jump\t// in\n    tag_174:\n        /* \"contracts/authority.sol\":1794:1846  msg.sender == getPresidentAdd() && getPresidentBan() */\n    tag_173:\n        /* \"contracts/authority.sol\":1786:1870  require(msg.sender == getPresidentAdd() && getPresidentBan(), \"Access is not valid\") */\n      tag_175\n      jumpi\n      mload(0x40)\n      0x08c379a000000000000000000000000000000000000000000000000000000000\n      dup2\n      mstore\n      0x04\n      add\n      tag_176\n      swap1\n      tag_71\n      jump\t// in\n    tag_176:\n      mload(0x40)\n      dup1\n      swap2\n      sub\n      swap1\n      revert\n    tag_175:\n        /* \"contracts/authority.sol\":1644:1870  if (TimeFirstElection < block.timestamp) {... */\n    tag_171:\n        /* \"contracts/authority.sol\":5022:5023  0 */\n      0x00\n        /* \"contracts/authority.sol\":4995:5007  newGCAddress */\n      dup2\n        /* \"contracts/authority.sol\":4995:5019  newGCAddress.code.length */\n      0xffffffffffffffffffffffffffffffffffffffff\n      and\n      extcodesize\n        /* \"contracts/authority.sol\":4995:5023  newGCAddress.code.length > 0 */\n      gt\n        /* \"contracts/authority.sol\":4991:5198  if (newGCAddress.code.length > 0) {... */\n      iszero\n      tag_178\n      jumpi\n        /* \"contracts/authority.sol\":5060:5072  newGCAddress */\n      dup1\n        /* \"contracts/authority.sol\":5040:5057  _pendingGCAddress */\n      0x01\n      0x00\n        /* \"contracts/authority.sol\":5040:5072  _pendingGCAddress = newGCAddress */\n      0x0100\n      exp\n      dup2\n      sload\n      dup2\n      0xffffffffffffffffffffffffffffffffffffffff\n      mul\n      not\n      and\n      swap1\n      dup4\n      0xffffffffffffffffffffffffffffffffffffffff\n      and\n      mul\n      or\n      swap1\n      sstore\n      pop\n        /* \"contracts/authority.sol\":5119:5131  newGCAddress */\n      dup1\n        /* \"contracts/authority.sol\":5092:5132  TheNextGCAddressWasElected(newGCAddress) */\n      0xffffffffffffffffffffffffffffffffffffffff\n      and\n      0xe8d8e3c7c3ebec0c177d0fe22d223f8b5071db39155104808d45027e368ba77a\n      mload(0x40)\n      mload(0x40)\n      dup1\n      swap2\n      sub\n      swap1\n      log2\n        /* \"contracts/authority.sol\":4991:5198  if (newGCAddress.code.length > 0) {... */\n      jump(tag_179)\n    tag_178:\n        /* \"contracts/authority.sol\":5185:5197  newGCAddress */\n      dup1\n        /* \"contracts/authority.sol\":5159:5198  TheAddressIsNotValidForGC(newGCAddress) */\n      mload(0x40)\n      0x84dbc6cb00000000000000000000000000000000000000000000000000000000\n      dup2\n      mstore\n      0x04\n      add\n      tag_180\n      swap2\n      swap1\n      tag_32\n      jump\t// in\n    tag_180:\n      mload(0x40)\n      dup1\n      swap2\n      sub\n      swap1\n      revert\n        /* \"contracts/authority.sol\":4991:5198  if (newGCAddress.code.length > 0) {... */\n    tag_179:\n        /* \"contracts/authority.sol\":4893:5208  function setPendingGovernanceContractAddress(address newGCAddress) public onlyRepublic {... */\n      pop\n      jump\t// out\n        /* \"contracts/authority.sol\":3924:4033  function getAuthorityAddress() public view returns (address) {... */\n    tag_61:\n        /* \"contracts/authority.sol\":3976:3983  address */\n      0x00\n        /* \"contracts/authority.sol\":4016:4020  this */\n      address\n        /* \"contracts/authority.sol\":4000:4021  return  address(this) */\n      swap1\n      pop\n        /* \"contracts/authority.sol\":3924:4033  function getAuthorityAddress() public view returns (address) {... */\n      swap1\n      jump\t// out\n        /* \"contracts/authority.sol\":5216:5633  function transferGovernanceContractAddress(address pendingGCAdd) public onlyPresident {... */\n    tag_65:\n        /* \"contracts/authority.sol\":1958:1975  getPresidentAdd() */\n      tag_183\n        /* \"contracts/authority.sol\":1958:1973  getPresidentAdd */\n      tag_37\n        /* \"contracts/authority.sol\":1958:1975  getPresidentAdd() */\n      jump\t// in\n    tag_183:\n        /* \"contracts/authority.sol\":1944:1975  msg.sender == getPresidentAdd() */\n      0xffffffffffffffffffffffffffffffffffffffff\n      and\n        /* \"contracts/authority.sol\":1944:1954  msg.sender */\n      caller\n        /* \"contracts/authority.sol\":1944:1975  msg.sender == getPresidentAdd() */\n      0xffffffffffffffffffffffffffffffffffffffff\n      and\n      eq\n        /* \"contracts/authority.sol\":1944:1996  msg.sender == getPresidentAdd() && getPresidentBan() */\n      dup1\n      iszero\n      tag_184\n      jumpi\n      pop\n        /* \"contracts/authority.sol\":1979:1996  getPresidentBan() */\n      tag_185\n        /* \"contracts/authority.sol\":1979:1994  getPresidentBan */\n      tag_40\n        /* \"contracts/authority.sol\":1979:1996  getPresidentBan() */\n      jump\t// in\n    tag_185:\n        /* \"contracts/authority.sol\":1944:1996  msg.sender == getPresidentAdd() && getPresidentBan() */\n    tag_184:\n        /* \"contracts/authority.sol\":1936:2020  require(msg.sender == getPresidentAdd() && getPresidentBan(), \"Access is not valid\") */\n      tag_186\n      jumpi\n      mload(0x40)\n      0x08c379a000000000000000000000000000000000000000000000000000000000\n      dup2\n      mstore\n      0x04\n      add\n      tag_187\n      swap1\n      tag_71\n      jump\t// in\n    tag_187:\n      mload(0x40)\n      dup1\n      swap2\n      sub\n      swap1\n      revert\n    tag_186:\n        /* \"contracts/authority.sol\":5338:5350  pendingGCAdd */\n      dup1\n        /* \"contracts/authority.sol\":5317:5350  _pendingGCAddress == pendingGCAdd */\n      0xffffffffffffffffffffffffffffffffffffffff\n      and\n        /* \"contracts/authority.sol\":5317:5334  _pendingGCAddress */\n      0x01\n      0x00\n      swap1\n      sload\n      swap1\n      0x0100\n      exp\n      swap1\n      div\n      0xffffffffffffffffffffffffffffffffffffffff\n      and\n        /* \"contracts/authority.sol\":5317:5350  _pendingGCAddress == pendingGCAdd */\n      0xffffffffffffffffffffffffffffffffffffffff\n      and\n      sub\n        /* \"contracts/authority.sol\":5313:5625  if (_pendingGCAddress == pendingGCAdd) {... */\n      tag_189\n      jumpi\n        /* \"contracts/authority.sol\":5374:5391  _pendingGCAddress */\n      0x01\n      0x00\n        /* \"contracts/authority.sol\":5367:5391  delete _pendingGCAddress */\n      0x0100\n      exp\n      dup2\n      sload\n      swap1\n      0xffffffffffffffffffffffffffffffffffffffff\n      mul\n      not\n      and\n      swap1\n      sstore\n        /* \"contracts/authority.sol\":5427:5439  pendingGCAdd */\n      dup1\n        /* \"contracts/authority.sol\":5406:5417  _governance */\n      0x04\n        /* \"contracts/authority.sol\":5406:5424  _governance.rolAdd */\n      0x00\n      add\n      0x00\n        /* \"contracts/authority.sol\":5406:5439  _governance.rolAdd = pendingGCAdd */\n      0x0100\n      exp\n      dup2\n      sload\n      dup2\n      0xffffffffffffffffffffffffffffffffffffffff\n      mul\n      not\n      and\n      swap1\n      dup4\n      0xffffffffffffffffffffffffffffffffffffffff\n      and\n      mul\n      or\n      swap1\n      sstore\n      pop\n        /* \"contracts/authority.sol\":5454:5465  _governance */\n      0x04\n        /* \"contracts/authority.sol\":5454:5471  _governance.nonce */\n      0x00\n      add\n      0x15\n        /* \"contracts/authority.sol\":5454:5473  _governance.nonce++ */\n      dup2\n      dup2\n      swap1\n      sload\n      swap1\n      0x0100\n      exp\n      swap1\n      div\n      0xffffffff\n      and\n      dup1\n      swap3\n      swap2\n      swap1\n      tag_190\n      swap1\n      tag_82\n      jump\t// in\n    tag_190:\n      swap2\n      swap1\n      0x0100\n      exp\n      dup2\n      sload\n      dup2\n      0xffffffff\n      mul\n      not\n      and\n      swap1\n      dup4\n      0xffffffff\n      and\n      mul\n      or\n      swap1\n      sstore\n      pop\n      pop\n        /* \"contracts/authority.sol\":5541:5552  _governance */\n      0x04\n        /* \"contracts/authority.sol\":5541:5558  _governance.nonce */\n      0x00\n      add\n      0x15\n      swap1\n      sload\n      swap1\n      0x0100\n      exp\n      swap1\n      div\n      0xffffffff\n      and\n        /* \"contracts/authority.sol\":5493:5559  TheNewGCAddressWasConfirmed(_governance.rolAdd, _governance.nonce) */\n      0xffffffff\n      and\n        /* \"contracts/authority.sol\":5521:5532  _governance */\n      0x04\n        /* \"contracts/authority.sol\":5521:5539  _governance.rolAdd */\n      0x00\n      add\n      0x00\n      swap1\n      sload\n      swap1\n      0x0100\n      exp\n      swap1\n      div\n      0xffffffffffffffffffffffffffffffffffffffff\n      and\n        /* \"contracts/authority.sol\":5493:5559  TheNewGCAddressWasConfirmed(_governance.rolAdd, _governance.nonce) */\n      0xffffffffffffffffffffffffffffffffffffffff\n      and\n      0x5e86008a8467d1efccfe6cb6bd49ba7278d6af2745a1e6994e443322a4237093\n      mload(0x40)\n      mload(0x40)\n      dup1\n      swap2\n      sub\n      swap1\n      log3\n        /* \"contracts/authority.sol\":5313:5625  if (_pendingGCAddress == pendingGCAdd) {... */\n      jump(tag_191)\n    tag_189:\n        /* \"contracts/authority.sol\":5612:5624  pendingGCAdd */\n      dup1\n        /* \"contracts/authority.sol\":5586:5625  TheAddressIsNotValidForGC(pendingGCAdd) */\n      mload(0x40)\n      0x84dbc6cb00000000000000000000000000000000000000000000000000000000\n      dup2\n      mstore\n      0x04\n      add\n      tag_192\n      swap2\n      swap1\n      tag_32\n      jump\t// in\n    tag_192:\n      mload(0x40)\n      dup1\n      swap2\n      sub\n      swap1\n      revert\n        /* \"contracts/authority.sol\":5313:5625  if (_pendingGCAddress == pendingGCAdd) {... */\n    tag_191:\n        /* \"contracts/authority.sol\":5216:5633  function transferGovernanceContractAddress(address pendingGCAdd) public onlyPresident {... */\n      pop\n      jump\t// out\n        /* \"contracts/authority.sol\":6197:6516  function _setPresidentBaned(bool baned) private {... */\n    tag_85:\n        /* \"contracts/authority.sol\":6275:6280  baned */\n      dup1\n        /* \"contracts/authority.sol\":6256:6266  _president */\n      0x03\n        /* \"contracts/authority.sol\":6256:6272  _president.baned */\n      0x00\n      add\n      0x14\n        /* \"contracts/authority.sol\":6256:6280  _president.baned = baned */\n      0x0100\n      exp\n      dup2\n      sload\n      dup2\n      0xff\n      mul\n      not\n      and\n      swap1\n      dup4\n      iszero\n      iszero\n      mul\n      or\n      swap1\n      sstore\n      pop\n        /* \"contracts/authority.sol\":6311:6322  _governance */\n      0x04\n        /* \"contracts/authority.sol\":6311:6329  _governance.rolAdd */\n      0x00\n      add\n      0x00\n      swap1\n      sload\n      swap1\n      0x0100\n      exp\n      swap1\n      div\n      0xffffffffffffffffffffffffffffffffffffffff\n      and\n        /* \"contracts/authority.sol\":6295:6352  Igovernance_set(_governance.rolAdd).setBanedAllActivities */\n      0xffffffffffffffffffffffffffffffffffffffff\n      and\n      0xf4e25380\n        /* \"contracts/authority.sol\":6353:6358  baned */\n      dup3\n        /* \"contracts/authority.sol\":6295:6359  Igovernance_set(_governance.rolAdd).setBanedAllActivities(baned) */\n      mload(0x40)\n      dup3\n      0xffffffff\n      and\n      0xe0\n      shl\n      dup2\n      mstore\n      0x04\n      add\n      tag_194\n      swap2\n      swap1\n      tag_42\n      jump\t// in\n    tag_194:\n      0x20\n      mload(0x40)\n      dup1\n      dup4\n      sub\n      dup2\n      0x00\n      dup8\n      gas\n      call\n      iszero\n      dup1\n      iszero\n      tag_196\n      jumpi\n      returndatasize\n      0x00\n      dup1\n      returndatacopy\n      revert(0x00, returndatasize)\n    tag_196:\n      pop\n      pop\n      pop\n      pop\n      mload(0x40)\n      returndatasize\n      not(0x1f)\n      0x1f\n      dup3\n      add\n      and\n      dup3\n      add\n      dup1\n      0x40\n      mstore\n      pop\n      dup2\n      add\n      swap1\n      tag_197\n      swap2\n      swap1\n      tag_198\n      jump\t// in\n    tag_197:\n        /* \"contracts/authority.sol\":6291:6508  if (Igovernance_set(_governance.rolAdd).setBanedAllActivities(baned)){... */\n      iszero\n      tag_199\n      jumpi\n        /* \"contracts/authority.sol\":6426:6430  true */\n      0x01\n        /* \"contracts/authority.sol\":6380:6431  TheStatusOfBanningAllActivitiesAndDone(baned, true) */\n      iszero\n      iszero\n        /* \"contracts/authority.sol\":6419:6424  baned */\n      dup2\n        /* \"contracts/authority.sol\":6380:6431  TheStatusOfBanningAllActivitiesAndDone(baned, true) */\n      iszero\n      iszero\n      0x067d0bd9a6167d98b43392618557d3cba4aa9b3c54791c0b96f1a20a05eb8b84\n      mload(0x40)\n      mload(0x40)\n      dup1\n      swap2\n      sub\n      swap1\n      log3\n        /* \"contracts/authority.sol\":6291:6508  if (Igovernance_set(_governance.rolAdd).setBanedAllActivities(baned)){... */\n      jump(tag_200)\n    tag_199:\n        /* \"contracts/authority.sol\":6502:6507  false */\n      0x00\n        /* \"contracts/authority.sol\":6456:6508  TheStatusOfBanningAllActivitiesAndDone(baned, false) */\n      iszero\n      iszero\n        /* \"contracts/authority.sol\":6495:6500  baned */\n      dup2\n        /* \"contracts/authority.sol\":6456:6508  TheStatusOfBanningAllActivitiesAndDone(baned, false) */\n      iszero\n      iszero\n      0x067d0bd9a6167d98b43392618557d3cba4aa9b3c54791c0b96f1a20a05eb8b84\n      mload(0x40)\n      mload(0x40)\n      dup1\n      swap2\n      sub\n      swap1\n      log3\n        /* \"contracts/authority.sol\":6291:6508  if (Igovernance_set(_governance.rolAdd).setBanedAllActivities(baned)){... */\n    tag_200:\n        /* \"contracts/authority.sol\":6197:6516  function _setPresidentBaned(bool baned) private {... */\n      pop\n      jump\t// out\n        /* \"contracts/authority.sol\":5971:6189  function _transferRepublicAddress(address RAddress) private {... */\n    tag_102:\n        /* \"contracts/authority.sol\":6061:6069  RAddress */\n      dup1\n        /* \"contracts/authority.sol\":6042:6051  _Republic */\n      0x05\n        /* \"contracts/authority.sol\":6042:6058  _Republic.rolAdd */\n      0x00\n      add\n      0x00\n        /* \"contracts/authority.sol\":6042:6069  _Republic.rolAdd = RAddress */\n      0x0100\n      exp\n      dup2\n      sload\n      dup2\n      0xffffffffffffffffffffffffffffffffffffffff\n      mul\n      not\n      and\n      swap1\n      dup4\n      0xffffffffffffffffffffffffffffffffffffffff\n      and\n      mul\n      or\n      swap1\n      sstore\n      pop\n        /* \"contracts/authority.sol\":6080:6089  _Republic */\n      0x05\n        /* \"contracts/authority.sol\":6080:6095  _Republic.nonce */\n      0x00\n      add\n      0x15\n        /* \"contracts/authority.sol\":6080:6097  _Republic.nonce++ */\n      dup2\n      dup2\n      swap1\n      sload\n      swap1\n      0x0100\n      exp\n      swap1\n      div\n      0xffffffff\n      and\n      dup1\n      swap3\n      swap2\n      swap1\n      tag_202\n      swap1\n      tag_82\n      jump\t// in\n    tag_202:\n      swap2\n      swap1\n      0x0100\n      exp\n      dup2\n      sload\n      dup2\n      0xffffffff\n      mul\n      not\n      and\n      swap1\n      dup4\n      0xffffffff\n      and\n      mul\n      or\n      swap1\n      sstore\n      pop\n      pop\n        /* \"contracts/authority.sol\":6165:6174  _Republic */\n      0x05\n        /* \"contracts/authority.sol\":6165:6180  _Republic.nonce */\n      0x00\n      add\n      0x15\n      swap1\n      sload\n      swap1\n      0x0100\n      exp\n      swap1\n      div\n      0xffffffff\n      and\n        /* \"contracts/authority.sol\":6113:6181  TheNewRepublicAddressWasConfirmed(_Republic.rolAdd, _Republic.nonce) */\n      0xffffffff\n      and\n        /* \"contracts/authority.sol\":6147:6156  _Republic */\n      0x05\n        /* \"contracts/authority.sol\":6147:6163  _Republic.rolAdd */\n      0x00\n      add\n      0x00\n      swap1\n      sload\n      swap1\n      0x0100\n      exp\n      swap1\n      div\n      0xffffffffffffffffffffffffffffffffffffffff\n      and\n        /* \"contracts/authority.sol\":6113:6181  TheNewRepublicAddressWasConfirmed(_Republic.rolAdd, _Republic.nonce) */\n      0xffffffffffffffffffffffffffffffffffffffff\n      and\n      0xf7f7c26682668c39fd8c6dbca125bd9466e743b9e38acc3240867c139cd93c30\n      mload(0x40)\n      mload(0x40)\n      dup1\n      swap2\n      sub\n      swap1\n      log3\n        /* \"contracts/authority.sol\":5971:6189  function _transferRepublicAddress(address RAddress) private {... */\n      pop\n      jump\t// out\n        /* \"#utility.yul\":88:205   */\n    tag_204:\n        /* \"#utility.yul\":197:198   */\n      0x00\n        /* \"#utility.yul\":194:195   */\n      dup1\n        /* \"#utility.yul\":187:199   */\n      revert\n        /* \"#utility.yul\":334:460   */\n    tag_206:\n        /* \"#utility.yul\":371:378   */\n      0x00\n        /* \"#utility.yul\":411:453   */\n      0xffffffffffffffffffffffffffffffffffffffff\n        /* \"#utility.yul\":404:409   */\n      dup3\n        /* \"#utility.yul\":400:454   */\n      and\n        /* \"#utility.yul\":389:454   */\n      swap1\n      pop\n        /* \"#utility.yul\":334:460   */\n      swap2\n      swap1\n      pop\n      jump\t// out\n        /* \"#utility.yul\":466:562   */\n    tag_207:\n        /* \"#utility.yul\":503:510   */\n      0x00\n        /* \"#utility.yul\":532:556   */\n      tag_233\n        /* \"#utility.yul\":550:555   */\n      dup3\n        /* \"#utility.yul\":532:556   */\n      tag_206\n      jump\t// in\n    tag_233:\n        /* \"#utility.yul\":521:556   */\n      swap1\n      pop\n        /* \"#utility.yul\":466:562   */\n      swap2\n      swap1\n      pop\n      jump\t// out\n        /* \"#utility.yul\":568:690   */\n    tag_208:\n        /* \"#utility.yul\":641:665   */\n      tag_235\n        /* \"#utility.yul\":659:664   */\n      dup2\n        /* \"#utility.yul\":641:665   */\n      tag_207\n      jump\t// in\n    tag_235:\n        /* \"#utility.yul\":634:639   */\n      dup2\n        /* \"#utility.yul\":631:666   */\n      eq\n        /* \"#utility.yul\":621:684   */\n      tag_236\n      jumpi\n        /* \"#utility.yul\":680:681   */\n      0x00\n        /* \"#utility.yul\":677:678   */\n      dup1\n        /* \"#utility.yul\":670:682   */\n      revert\n        /* \"#utility.yul\":621:684   */\n    tag_236:\n        /* \"#utility.yul\":568:690   */\n      pop\n      jump\t// out\n        /* \"#utility.yul\":696:835   */\n    tag_209:\n        /* \"#utility.yul\":742:747   */\n      0x00\n        /* \"#utility.yul\":780:786   */\n      dup2\n        /* \"#utility.yul\":767:787   */\n      calldataload\n        /* \"#utility.yul\":758:787   */\n      swap1\n      pop\n        /* \"#utility.yul\":796:829   */\n      tag_238\n        /* \"#utility.yul\":823:828   */\n      dup2\n        /* \"#utility.yul\":796:829   */\n      tag_208\n      jump\t// in\n    tag_238:\n        /* \"#utility.yul\":696:835   */\n      swap3\n      swap2\n      pop\n      pop\n      jump\t// out\n        /* \"#utility.yul\":841:1170   */\n    tag_22:\n        /* \"#utility.yul\":900:906   */\n      0x00\n        /* \"#utility.yul\":949:951   */\n      0x20\n        /* \"#utility.yul\":937:946   */\n      dup3\n        /* \"#utility.yul\":928:935   */\n      dup5\n        /* \"#utility.yul\":924:947   */\n      sub\n        /* \"#utility.yul\":920:952   */\n      slt\n        /* \"#utility.yul\":917:1036   */\n      iszero\n      tag_240\n      jumpi\n        /* \"#utility.yul\":955:1034   */\n      tag_241\n      tag_204\n      jump\t// in\n    tag_241:\n        /* \"#utility.yul\":917:1036   */\n    tag_240:\n        /* \"#utility.yul\":1075:1076   */\n      0x00\n        /* \"#utility.yul\":1100:1153   */\n      tag_242\n        /* \"#utility.yul\":1145:1152   */\n      dup5\n        /* \"#utility.yul\":1136:1142   */\n      dup3\n        /* \"#utility.yul\":1125:1134   */\n      dup6\n        /* \"#utility.yul\":1121:1143   */\n      add\n        /* \"#utility.yul\":1100:1153   */\n      tag_209\n      jump\t// in\n    tag_242:\n        /* \"#utility.yul\":1090:1153   */\n      swap2\n      pop\n        /* \"#utility.yul\":1046:1163   */\n      pop\n        /* \"#utility.yul\":841:1170   */\n      swap3\n      swap2\n      pop\n      pop\n      jump\t// out\n        /* \"#utility.yul\":1176:1294   */\n    tag_210:\n        /* \"#utility.yul\":1263:1287   */\n      tag_244\n        /* \"#utility.yul\":1281:1286   */\n      dup2\n        /* \"#utility.yul\":1263:1287   */\n      tag_207\n      jump\t// in\n    tag_244:\n        /* \"#utility.yul\":1258:1261   */\n      dup3\n        /* \"#utility.yul\":1251:1288   */\n      mstore\n        /* \"#utility.yul\":1176:1294   */\n      pop\n      pop\n      jump\t// out\n        /* \"#utility.yul\":1300:1522   */\n    tag_32:\n        /* \"#utility.yul\":1393:1397   */\n      0x00\n        /* \"#utility.yul\":1431:1433   */\n      0x20\n        /* \"#utility.yul\":1420:1429   */\n      dup3\n        /* \"#utility.yul\":1416:1434   */\n      add\n        /* \"#utility.yul\":1408:1434   */\n      swap1\n      pop\n        /* \"#utility.yul\":1444:1515   */\n      tag_246\n        /* \"#utility.yul\":1512:1513   */\n      0x00\n        /* \"#utility.yul\":1501:1510   */\n      dup4\n        /* \"#utility.yul\":1497:1514   */\n      add\n        /* \"#utility.yul\":1488:1494   */\n      dup5\n        /* \"#utility.yul\":1444:1515   */\n      tag_210\n      jump\t// in\n    tag_246:\n        /* \"#utility.yul\":1300:1522   */\n      swap3\n      swap2\n      pop\n      pop\n      jump\t// out\n        /* \"#utility.yul\":1528:1618   */\n    tag_211:\n        /* \"#utility.yul\":1562:1569   */\n      0x00\n        /* \"#utility.yul\":1605:1610   */\n      dup2\n        /* \"#utility.yul\":1598:1611   */\n      iszero\n        /* \"#utility.yul\":1591:1612   */\n      iszero\n        /* \"#utility.yul\":1580:1612   */\n      swap1\n      pop\n        /* \"#utility.yul\":1528:1618   */\n      swap2\n      swap1\n      pop\n      jump\t// out\n        /* \"#utility.yul\":1624:1733   */\n    tag_212:\n        /* \"#utility.yul\":1705:1726   */\n      tag_249\n        /* \"#utility.yul\":1720:1725   */\n      dup2\n        /* \"#utility.yul\":1705:1726   */\n      tag_211\n      jump\t// in\n    tag_249:\n        /* \"#utility.yul\":1700:1703   */\n      dup3\n        /* \"#utility.yul\":1693:1727   */\n      mstore\n        /* \"#utility.yul\":1624:1733   */\n      pop\n      pop\n      jump\t// out\n        /* \"#utility.yul\":1739:1949   */\n    tag_42:\n        /* \"#utility.yul\":1826:1830   */\n      0x00\n        /* \"#utility.yul\":1864:1866   */\n      0x20\n        /* \"#utility.yul\":1853:1862   */\n      dup3\n        /* \"#utility.yul\":1849:1867   */\n      add\n        /* \"#utility.yul\":1841:1867   */\n      swap1\n      pop\n        /* \"#utility.yul\":1877:1942   */\n      tag_251\n        /* \"#utility.yul\":1939:1940   */\n      0x00\n        /* \"#utility.yul\":1928:1937   */\n      dup4\n        /* \"#utility.yul\":1924:1941   */\n      add\n        /* \"#utility.yul\":1915:1921   */\n      dup5\n        /* \"#utility.yul\":1877:1942   */\n      tag_212\n      jump\t// in\n    tag_251:\n        /* \"#utility.yul\":1739:1949   */\n      swap3\n      swap2\n      pop\n      pop\n      jump\t// out\n        /* \"#utility.yul\":1955:2071   */\n    tag_213:\n        /* \"#utility.yul\":2025:2046   */\n      tag_253\n        /* \"#utility.yul\":2040:2045   */\n      dup2\n        /* \"#utility.yul\":2025:2046   */\n      tag_211\n      jump\t// in\n    tag_253:\n        /* \"#utility.yul\":2018:2023   */\n      dup2\n        /* \"#utility.yul\":2015:2047   */\n      eq\n        /* \"#utility.yul\":2005:2065   */\n      tag_254\n      jumpi\n        /* \"#utility.yul\":2061:2062   */\n      0x00\n        /* \"#utility.yul\":2058:2059   */\n      dup1\n        /* \"#utility.yul\":2051:2063   */\n      revert\n        /* \"#utility.yul\":2005:2065   */\n    tag_254:\n        /* \"#utility.yul\":1955:2071   */\n      pop\n      jump\t// out\n        /* \"#utility.yul\":2077:2210   */\n    tag_214:\n        /* \"#utility.yul\":2120:2125   */\n      0x00\n        /* \"#utility.yul\":2158:2164   */\n      dup2\n        /* \"#utility.yul\":2145:2165   */\n      calldataload\n        /* \"#utility.yul\":2136:2165   */\n      swap1\n      pop\n        /* \"#utility.yul\":2174:2204   */\n      tag_256\n        /* \"#utility.yul\":2198:2203   */\n      dup2\n        /* \"#utility.yul\":2174:2204   */\n      tag_213\n      jump\t// in\n    tag_256:\n        /* \"#utility.yul\":2077:2210   */\n      swap3\n      swap2\n      pop\n      pop\n      jump\t// out\n        /* \"#utility.yul\":2216:2539   */\n    tag_48:\n        /* \"#utility.yul\":2272:2278   */\n      0x00\n        /* \"#utility.yul\":2321:2323   */\n      0x20\n        /* \"#utility.yul\":2309:2318   */\n      dup3\n        /* \"#utility.yul\":2300:2307   */\n      dup5\n        /* \"#utility.yul\":2296:2319   */\n      sub\n        /* \"#utility.yul\":2292:2324   */\n      slt\n        /* \"#utility.yul\":2289:2408   */\n      iszero\n      tag_258\n      jumpi\n        /* \"#utility.yul\":2327:2406   */\n      tag_259\n      tag_204\n      jump\t// in\n    tag_259:\n        /* \"#utility.yul\":2289:2408   */\n    tag_258:\n        /* \"#utility.yul\":2447:2448   */\n      0x00\n        /* \"#utility.yul\":2472:2522   */\n      tag_260\n        /* \"#utility.yul\":2514:2521   */\n      dup5\n        /* \"#utility.yul\":2505:2511   */\n      dup3\n        /* \"#utility.yul\":2494:2503   */\n      dup6\n        /* \"#utility.yul\":2490:2512   */\n      add\n        /* \"#utility.yul\":2472:2522   */\n      tag_214\n      jump\t// in\n    tag_260:\n        /* \"#utility.yul\":2462:2522   */\n      swap2\n      pop\n        /* \"#utility.yul\":2418:2532   */\n      pop\n        /* \"#utility.yul\":2216:2539   */\n      swap3\n      swap2\n      pop\n      pop\n      jump\t// out\n        /* \"#utility.yul\":2545:2638   */\n    tag_215:\n        /* \"#utility.yul\":2581:2588   */\n      0x00\n        /* \"#utility.yul\":2621:2631   */\n      0xffffffff\n        /* \"#utility.yul\":2614:2619   */\n      dup3\n        /* \"#utility.yul\":2610:2632   */\n      and\n        /* \"#utility.yul\":2599:2632   */\n      swap1\n      pop\n        /* \"#utility.yul\":2545:2638   */\n      swap2\n      swap1\n      pop\n      jump\t// out\n        /* \"#utility.yul\":2644:2759   */\n    tag_216:\n        /* \"#utility.yul\":2729:2752   */\n      tag_263\n        /* \"#utility.yul\":2746:2751   */\n      dup2\n        /* \"#utility.yul\":2729:2752   */\n      tag_215\n      jump\t// in\n    tag_263:\n        /* \"#utility.yul\":2724:2727   */\n      dup3\n        /* \"#utility.yul\":2717:2753   */\n      mstore\n        /* \"#utility.yul\":2644:2759   */\n      pop\n      pop\n      jump\t// out\n        /* \"#utility.yul\":2765:2983   */\n    tag_53:\n        /* \"#utility.yul\":2856:2860   */\n      0x00\n        /* \"#utility.yul\":2894:2896   */\n      0x20\n        /* \"#utility.yul\":2883:2892   */\n      dup3\n        /* \"#utility.yul\":2879:2897   */\n      add\n        /* \"#utility.yul\":2871:2897   */\n      swap1\n      pop\n        /* \"#utility.yul\":2907:2976   */\n      tag_265\n        /* \"#utility.yul\":2973:2974   */\n      0x00\n        /* \"#utility.yul\":2962:2971   */\n      dup4\n        /* \"#utility.yul\":2958:2975   */\n      add\n        /* \"#utility.yul\":2949:2955   */\n      dup5\n        /* \"#utility.yul\":2907:2976   */\n      tag_216\n      jump\t// in\n    tag_265:\n        /* \"#utility.yul\":2765:2983   */\n      swap3\n      swap2\n      pop\n      pop\n      jump\t// out\n        /* \"#utility.yul\":2989:3158   */\n    tag_217:\n        /* \"#utility.yul\":3073:3084   */\n      0x00\n        /* \"#utility.yul\":3107:3113   */\n      dup3\n        /* \"#utility.yul\":3102:3105   */\n      dup3\n        /* \"#utility.yul\":3095:3114   */\n      mstore\n        /* \"#utility.yul\":3147:3151   */\n      0x20\n        /* \"#utility.yul\":3142:3145   */\n      dup3\n        /* \"#utility.yul\":3138:3152   */\n      add\n        /* \"#utility.yul\":3123:3152   */\n      swap1\n      pop\n        /* \"#utility.yul\":2989:3158   */\n      swap3\n      swap2\n      pop\n      pop\n      jump\t// out\n        /* \"#utility.yul\":3164:3333   */\n    tag_218:\n        /* \"#utility.yul\":3304:3325   */\n      0x416363657373206973206e6f742076616c696400000000000000000000000000\n        /* \"#utility.yul\":3300:3301   */\n      0x00\n        /* \"#utility.yul\":3292:3298   */\n      dup3\n        /* \"#utility.yul\":3288:3302   */\n      add\n        /* \"#utility.yul\":3281:3326   */\n      mstore\n        /* \"#utility.yul\":3164:3333   */\n      pop\n      jump\t// out\n        /* \"#utility.yul\":3339:3705   */\n    tag_219:\n        /* \"#utility.yul\":3481:3484   */\n      0x00\n        /* \"#utility.yul\":3502:3569   */\n      tag_269\n        /* \"#utility.yul\":3566:3568   */\n      0x13\n        /* \"#utility.yul\":3561:3564   */\n      dup4\n        /* \"#utility.yul\":3502:3569   */\n      tag_217\n      jump\t// in\n    tag_269:\n        /* \"#utility.yul\":3495:3569   */\n      swap2\n      pop\n        /* \"#utility.yul\":3578:3671   */\n      tag_270\n        /* \"#utility.yul\":3667:3670   */\n      dup3\n        /* \"#utility.yul\":3578:3671   */\n      tag_218\n      jump\t// in\n    tag_270:\n        /* \"#utility.yul\":3696:3698   */\n      0x20\n        /* \"#utility.yul\":3691:3694   */\n      dup3\n        /* \"#utility.yul\":3687:3699   */\n      add\n        /* \"#utility.yul\":3680:3699   */\n      swap1\n      pop\n        /* \"#utility.yul\":3339:3705   */\n      swap2\n      swap1\n      pop\n      jump\t// out\n        /* \"#utility.yul\":3711:4130   */\n    tag_71:\n        /* \"#utility.yul\":3877:3881   */\n      0x00\n        /* \"#utility.yul\":3915:3917   */\n      0x20\n        /* \"#utility.yul\":3904:3913   */\n      dup3\n        /* \"#utility.yul\":3900:3918   */\n      add\n        /* \"#utility.yul\":3892:3918   */\n      swap1\n      pop\n        /* \"#utility.yul\":3964:3973   */\n      dup2\n        /* \"#utility.yul\":3958:3962   */\n      dup2\n        /* \"#utility.yul\":3954:3974   */\n      sub\n        /* \"#utility.yul\":3950:3951   */\n      0x00\n        /* \"#utility.yul\":3939:3948   */\n      dup4\n        /* \"#utility.yul\":3935:3952   */\n      add\n        /* \"#utility.yul\":3928:3975   */\n      mstore\n        /* \"#utility.yul\":3992:4123   */\n      tag_272\n        /* \"#utility.yul\":4118:4122   */\n      dup2\n        /* \"#utility.yul\":3992:4123   */\n      tag_219\n      jump\t// in\n    tag_272:\n        /* \"#utility.yul\":3984:4123   */\n      swap1\n      pop\n        /* \"#utility.yul\":3711:4130   */\n      swap2\n      swap1\n      pop\n      jump\t// out\n        /* \"#utility.yul\":4136:4316   */\n    tag_220:\n        /* \"#utility.yul\":4184:4261   */\n      0x4e487b7100000000000000000000000000000000000000000000000000000000\n        /* \"#utility.yul\":4181:4182   */\n      0x00\n        /* \"#utility.yul\":4174:4262   */\n      mstore\n        /* \"#utility.yul\":4281:4285   */\n      0x11\n        /* \"#utility.yul\":4278:4279   */\n      0x04\n        /* \"#utility.yul\":4271:4286   */\n      mstore\n        /* \"#utility.yul\":4305:4309   */\n      0x24\n        /* \"#utility.yul\":4302:4303   */\n      0x00\n        /* \"#utility.yul\":4295:4310   */\n      revert\n        /* \"#utility.yul\":4322:4497   */\n    tag_82:\n        /* \"#utility.yul\":4360:4363   */\n      0x00\n        /* \"#utility.yul\":4383:4406   */\n      tag_275\n        /* \"#utility.yul\":4400:4405   */\n      dup3\n        /* \"#utility.yul\":4383:4406   */\n      tag_215\n      jump\t// in\n    tag_275:\n        /* \"#utility.yul\":4374:4406   */\n      swap2\n      pop\n        /* \"#utility.yul\":4428:4438   */\n      0xffffffff\n        /* \"#utility.yul\":4421:4426   */\n      dup3\n        /* \"#utility.yul\":4418:4439   */\n      sub\n        /* \"#utility.yul\":4415:4462   */\n      tag_276\n      jumpi\n        /* \"#utility.yul\":4442:4460   */\n      tag_277\n      tag_220\n      jump\t// in\n    tag_277:\n        /* \"#utility.yul\":4415:4462   */\n    tag_276:\n        /* \"#utility.yul\":4489:4490   */\n      0x01\n        /* \"#utility.yul\":4482:4487   */\n      dup3\n        /* \"#utility.yul\":4478:4491   */\n      add\n        /* \"#utility.yul\":4471:4491   */\n      swap1\n      pop\n        /* \"#utility.yul\":4322:4497   */\n      swap2\n      swap1\n      pop\n      jump\t// out\n        /* \"#utility.yul\":4503:4580   */\n    tag_221:\n        /* \"#utility.yul\":4540:4547   */\n      0x00\n        /* \"#utility.yul\":4569:4574   */\n      dup2\n        /* \"#utility.yul\":4558:4574   */\n      swap1\n      pop\n        /* \"#utility.yul\":4503:4580   */\n      swap2\n      swap1\n      pop\n      jump\t// out\n        /* \"#utility.yul\":4586:4777   */\n    tag_105:\n        /* \"#utility.yul\":4626:4629   */\n      0x00\n        /* \"#utility.yul\":4645:4665   */\n      tag_280\n        /* \"#utility.yul\":4663:4664   */\n      dup3\n        /* \"#utility.yul\":4645:4665   */\n      tag_221\n      jump\t// in\n    tag_280:\n        /* \"#utility.yul\":4640:4665   */\n      swap2\n      pop\n        /* \"#utility.yul\":4679:4699   */\n      tag_281\n        /* \"#utility.yul\":4697:4698   */\n      dup4\n        /* \"#utility.yul\":4679:4699   */\n      tag_221\n      jump\t// in\n    tag_281:\n        /* \"#utility.yul\":4674:4699   */\n      swap3\n      pop\n        /* \"#utility.yul\":4722:4723   */\n      dup3\n        /* \"#utility.yul\":4719:4720   */\n      dup3\n        /* \"#utility.yul\":4715:4724   */\n      add\n        /* \"#utility.yul\":4708:4724   */\n      swap1\n      pop\n        /* \"#utility.yul\":4743:4746   */\n      dup1\n        /* \"#utility.yul\":4740:4741   */\n      dup3\n        /* \"#utility.yul\":4737:4747   */\n      gt\n        /* \"#utility.yul\":4734:4770   */\n      iszero\n      tag_282\n      jumpi\n        /* \"#utility.yul\":4750:4768   */\n      tag_283\n      tag_220\n      jump\t// in\n    tag_283:\n        /* \"#utility.yul\":4734:4770   */\n    tag_282:\n        /* \"#utility.yul\":4586:4777   */\n      swap3\n      swap2\n      pop\n      pop\n      jump\t// out\n        /* \"#utility.yul\":4783:4955   */\n    tag_222:\n        /* \"#utility.yul\":4923:4947   */\n      0x546865207265717565737420697320696e76616c696400000000000000000000\n        /* \"#utility.yul\":4919:4920   */\n      0x00\n        /* \"#utility.yul\":4911:4917   */\n      dup3\n        /* \"#utility.yul\":4907:4921   */\n      add\n        /* \"#utility.yul\":4900:4948   */\n      mstore\n        /* \"#utility.yul\":4783:4955   */\n      pop\n      jump\t// out\n        /* \"#utility.yul\":4961:5327   */\n    tag_223:\n        /* \"#utility.yul\":5103:5106   */\n      0x00\n        /* \"#utility.yul\":5124:5191   */\n      tag_286\n        /* \"#utility.yul\":5188:5190   */\n      0x16\n        /* \"#utility.yul\":5183:5186   */\n      dup4\n        /* \"#utility.yul\":5124:5191   */\n      tag_217\n      jump\t// in\n    tag_286:\n        /* \"#utility.yul\":5117:5191   */\n      swap2\n      pop\n        /* \"#utility.yul\":5200:5293   */\n      tag_287\n        /* \"#utility.yul\":5289:5292   */\n      dup3\n        /* \"#utility.yul\":5200:5293   */\n      tag_222\n      jump\t// in\n    tag_287:\n        /* \"#utility.yul\":5318:5320   */\n      0x20\n        /* \"#utility.yul\":5313:5316   */\n      dup3\n        /* \"#utility.yul\":5309:5321   */\n      add\n        /* \"#utility.yul\":5302:5321   */\n      swap1\n      pop\n        /* \"#utility.yul\":4961:5327   */\n      swap2\n      swap1\n      pop\n      jump\t// out\n        /* \"#utility.yul\":5333:5752   */\n    tag_141:\n        /* \"#utility.yul\":5499:5503   */\n      0x00\n        /* \"#utility.yul\":5537:5539   */\n      0x20\n        /* \"#utility.yul\":5526:5535   */\n      dup3\n        /* \"#utility.yul\":5522:5540   */\n      add\n        /* \"#utility.yul\":5514:5540   */\n      swap1\n      pop\n        /* \"#utility.yul\":5586:5595   */\n      dup2\n        /* \"#utility.yul\":5580:5584   */\n      dup2\n        /* \"#utility.yul\":5576:5596   */\n      sub\n        /* \"#utility.yul\":5572:5573   */\n      0x00\n        /* \"#utility.yul\":5561:5570   */\n      dup4\n        /* \"#utility.yul\":5557:5574   */\n      add\n        /* \"#utility.yul\":5550:5597   */\n      mstore\n        /* \"#utility.yul\":5614:5745   */\n      tag_289\n        /* \"#utility.yul\":5740:5744   */\n      dup2\n        /* \"#utility.yul\":5614:5745   */\n      tag_223\n      jump\t// in\n    tag_289:\n        /* \"#utility.yul\":5606:5745   */\n      swap1\n      pop\n        /* \"#utility.yul\":5333:5752   */\n      swap2\n      swap1\n      pop\n      jump\t// out\n        /* \"#utility.yul\":5758:5855   */\n    tag_224:\n        /* \"#utility.yul\":5794:5801   */\n      0x00\n        /* \"#utility.yul\":5834:5848   */\n      0xffffffffffff\n        /* \"#utility.yul\":5827:5832   */\n      dup3\n        /* \"#utility.yul\":5823:5849   */\n      and\n        /* \"#utility.yul\":5812:5849   */\n      swap1\n      pop\n        /* \"#utility.yul\":5758:5855   */\n      swap2\n      swap1\n      pop\n      jump\t// out\n        /* \"#utility.yul\":5861:6065   */\n    tag_148:\n        /* \"#utility.yul\":5900:5904   */\n      0x00\n        /* \"#utility.yul\":5920:5939   */\n      tag_292\n        /* \"#utility.yul\":5937:5938   */\n      dup3\n        /* \"#utility.yul\":5920:5939   */\n      tag_224\n      jump\t// in\n    tag_292:\n        /* \"#utility.yul\":5915:5939   */\n      swap2\n      pop\n        /* \"#utility.yul\":5953:5972   */\n      tag_293\n        /* \"#utility.yul\":5970:5971   */\n      dup4\n        /* \"#utility.yul\":5953:5972   */\n      tag_224\n      jump\t// in\n    tag_293:\n        /* \"#utility.yul\":5948:5972   */\n      swap3\n      pop\n        /* \"#utility.yul\":5996:5997   */\n      dup3\n        /* \"#utility.yul\":5993:5994   */\n      dup3\n        /* \"#utility.yul\":5989:5998   */\n      sub\n        /* \"#utility.yul\":5981:5998   */\n      swap1\n      pop\n        /* \"#utility.yul\":6020:6034   */\n      0xffffffffffff\n        /* \"#utility.yul\":6014:6018   */\n      dup2\n        /* \"#utility.yul\":6011:6035   */\n      gt\n        /* \"#utility.yul\":6008:6058   */\n      iszero\n      tag_294\n      jumpi\n        /* \"#utility.yul\":6038:6056   */\n      tag_295\n      tag_220\n      jump\t// in\n    tag_295:\n        /* \"#utility.yul\":6008:6058   */\n    tag_294:\n        /* \"#utility.yul\":5861:6065   */\n      swap3\n      swap2\n      pop\n      pop\n      jump\t// out\n        /* \"#utility.yul\":6071:6186   */\n    tag_225:\n        /* \"#utility.yul\":6156:6179   */\n      tag_297\n        /* \"#utility.yul\":6173:6178   */\n      dup2\n        /* \"#utility.yul\":6156:6179   */\n      tag_224\n      jump\t// in\n    tag_297:\n        /* \"#utility.yul\":6151:6154   */\n      dup3\n        /* \"#utility.yul\":6144:6180   */\n      mstore\n        /* \"#utility.yul\":6071:6186   */\n      pop\n      pop\n      jump\t// out\n        /* \"#utility.yul\":6192:6410   */\n    tag_150:\n        /* \"#utility.yul\":6283:6287   */\n      0x00\n        /* \"#utility.yul\":6321:6323   */\n      0x20\n        /* \"#utility.yul\":6310:6319   */\n      dup3\n        /* \"#utility.yul\":6306:6324   */\n      add\n        /* \"#utility.yul\":6298:6324   */\n      swap1\n      pop\n        /* \"#utility.yul\":6334:6403   */\n      tag_299\n        /* \"#utility.yul\":6400:6401   */\n      0x00\n        /* \"#utility.yul\":6389:6398   */\n      dup4\n        /* \"#utility.yul\":6385:6402   */\n      add\n        /* \"#utility.yul\":6376:6382   */\n      dup5\n        /* \"#utility.yul\":6334:6403   */\n      tag_225\n      jump\t// in\n    tag_299:\n        /* \"#utility.yul\":6192:6410   */\n      swap3\n      swap2\n      pop\n      pop\n      jump\t// out\n        /* \"#utility.yul\":6416:6553   */\n    tag_226:\n        /* \"#utility.yul\":6470:6475   */\n      0x00\n        /* \"#utility.yul\":6501:6507   */\n      dup2\n        /* \"#utility.yul\":6495:6508   */\n      mload\n        /* \"#utility.yul\":6486:6508   */\n      swap1\n      pop\n        /* \"#utility.yul\":6517:6547   */\n      tag_301\n        /* \"#utility.yul\":6541:6546   */\n      dup2\n        /* \"#utility.yul\":6517:6547   */\n      tag_213\n      jump\t// in\n    tag_301:\n        /* \"#utility.yul\":6416:6553   */\n      swap3\n      swap2\n      pop\n      pop\n      jump\t// out\n        /* \"#utility.yul\":6559:6904   */\n    tag_198:\n        /* \"#utility.yul\":6626:6632   */\n      0x00\n        /* \"#utility.yul\":6675:6677   */\n      0x20\n        /* \"#utility.yul\":6663:6672   */\n      dup3\n        /* \"#utility.yul\":6654:6661   */\n      dup5\n        /* \"#utility.yul\":6650:6673   */\n      sub\n        /* \"#utility.yul\":6646:6678   */\n      slt\n        /* \"#utility.yul\":6643:6762   */\n      iszero\n      tag_303\n      jumpi\n        /* \"#utility.yul\":6681:6760   */\n      tag_304\n      tag_204\n      jump\t// in\n    tag_304:\n        /* \"#utility.yul\":6643:6762   */\n    tag_303:\n        /* \"#utility.yul\":6801:6802   */\n      0x00\n        /* \"#utility.yul\":6826:6887   */\n      tag_305\n        /* \"#utility.yul\":6879:6886   */\n      dup5\n        /* \"#utility.yul\":6870:6876   */\n      dup3\n        /* \"#utility.yul\":6859:6868   */\n      dup6\n        /* \"#utility.yul\":6855:6877   */\n      add\n        /* \"#utility.yul\":6826:6887   */\n      tag_226\n      jump\t// in\n    tag_305:\n        /* \"#utility.yul\":6816:6887   */\n      swap2\n      pop\n        /* \"#utility.yul\":6772:6897   */\n      pop\n        /* \"#utility.yul\":6559:6904   */\n      swap3\n      swap2\n      pop\n      pop\n      jump\t// out\n\n    auxdata: 0xa26469706673582212209c74fac356d48570f5af0255f2ef02d5eaecf0fa601fcd8490530eca60f627b164736f6c63430008140033\n}\n",
				"bytecode": {
					"linkReferences": {},
					"object": "60a060405234801562000010575f80fd5b506316a8c80042620000239190620000fd565b65ffffffffffff1660808165ffffffffffff16815250503360035f015f6101000a81548173ffffffffffffffffffffffffffffffffffffffff021916908373ffffffffffffffffffffffffffffffffffffffff16021790555060035f01601581819054906101000a900463ffffffff1680929190620000a29062000146565b91906101000a81548163ffffffff021916908363ffffffff1602179055505062000176565b5f819050919050565b7f4e487b71000000000000000000000000000000000000000000000000000000005f52601160045260245ffd5b5f6200010982620000c7565b91506200011683620000c7565b9250828201905080821115620001315762000130620000d0565b5b92915050565b5f63ffffffff82169050919050565b5f620001528262000137565b915063ffffffff82036200016b576200016a620000d0565b5b600182019050919050565b608051611a2d620001b25f395f8181610271015281816105ff015281816108d701528181610b5d01528181610e4a0152610fcb0152611a2d5ff3fe608060405234801561000f575f80fd5b50600436106100e8575f3560e01c80639c20fe711161008a578063c5a1c5c111610064578063c5a1c5c1146101fa578063ca4cce6814610218578063e47a9d4614610234578063ee7126c314610252576100e8565b80639c20fe71146101a4578063b5c09c68146101c0578063c387b49c146101dc576100e8565b8063289b3c0d116100c6578063289b3c0d1461012e57806352e305de1461014c57806366410997146101685780636cf106d714610186576100e8565b8063054203bd146100ec5780630df4c390146101085780631f72783a14610112575b5f80fd5b610106600480360381019061010191906116c0565b61026e565b005b610110610424565b005b61012c600480360381019061012791906116c0565b6105fc565b005b6101366108aa565b60405161014391906116fa565b60405180910390f35b610166600480360381019061016191906116c0565b6108d4565b005b610170610b18565b60405161017d91906116fa565b60405180910390f35b61018e610b42565b60405161019b919061172d565b60405180910390f35b6101be60048036038101906101b991906116c0565b610b5a565b005b6101da60048036038101906101d59190611770565b610e47565b005b6101e4610f83565b6040516101f191906117b9565b60405180910390f35b610202610f9e565b60405161020f91906116fa565b60405180910390f35b610232600480360381019061022d91906116c0565b610fc8565b005b61023c6111df565b60405161024991906116fa565b60405180910390f35b61026c600480360381019061026791906116c0565b6111e6565b005b427f000000000000000000000000000000000000000000000000000000000000000065ffffffffffff161015610318576102a6610f9e565b73ffffffffffffffffffffffffffffffffffffffff163373ffffffffffffffffffffffffffffffffffffffff1614610313576040517f08c379a000000000000000000000000000000000000000000000000000000000815260040161030a9061182c565b60405180910390fd5b61039e565b610320610b18565b73ffffffffffffffffffffffffffffffffffffffff163373ffffffffffffffffffffffffffffffffffffffff1614801561035e575061035d610b42565b5b61039d576040517f08c379a00000000000000000000000000000000000000000000000000000000081526004016103949061182c565b60405180910390fd5b5b8060025f6101000a81548173ffffffffffffffffffffffffffffffffffffffff021916908373ffffffffffffffffffffffffffffffffffffffff1602179055508073ffffffffffffffffffffffffffffffffffffffff167f3553f1f7ef0242113266a8d183b621bb87468c99237f36b1150b6ab3d688b68660405160405180910390a250565b3373ffffffffffffffffffffffffffffffffffffffff1660025f9054906101000a900473ffffffffffffffffffffffffffffffffffffffff1673ffffffffffffffffffffffffffffffffffffffff16036105c85760025f6101000a81549073ffffffffffffffffffffffffffffffffffffffff02191690553360035f015f6101000a81548173ffffffffffffffffffffffffffffffffffffffff021916908373ffffffffffffffffffffffffffffffffffffffff16021790555060035f01601581819054906101000a900463ffffffff168092919061050290611877565b91906101000a81548163ffffffff021916908363ffffffff1602179055505060035f0160149054906101000a900460ff1615610542576105415f61142e565b5b60035f0160159054906101000a900463ffffffff1663ffffffff1660035f015f9054906101000a900473ffffffffffffffffffffffffffffffffffffffff1673ffffffffffffffffffffffffffffffffffffffff167f05ad9b3688012cd825c1bfb941e4f5afb2558af6af3deaddf01dbb5e85abdaf960405160405180910390a36105fa565b6040517fb513955100000000000000000000000000000000000000000000000000000000815260040160405180910390fd5b565b427f000000000000000000000000000000000000000000000000000000000000000065ffffffffffff1610156106a657610634610f9e565b73ffffffffffffffffffffffffffffffffffffffff163373ffffffffffffffffffffffffffffffffffffffff16146106a1576040517f08c379a00000000000000000000000000000000000000000000000000000000081526004016106989061182c565b60405180910390fd5b61072c565b6106ae610b18565b73ffffffffffffffffffffffffffffffffffffffff163373ffffffffffffffffffffffffffffffffffffffff161480156106ec57506106eb610b42565b5b61072b576040517f08c379a00000000000000000000000000000000000000000000000000000000081526004016107229061182c565b60405180910390fd5b5b5f8173ffffffffffffffffffffffffffffffffffffffff163b111561086a573373ffffffffffffffffffffffffffffffffffffffff1660035f015f9054906101000a900473ffffffffffffffffffffffffffffffffffffffff1673ffffffffffffffffffffffffffffffffffffffff16036107af576107aa81611559565b610865565b6213c680426107be91906118ab565b600260146101000a81548165ffffffffffff021916908365ffffffffffff160217905550805f806101000a81548173ffffffffffffffffffffffffffffffffffffffff021916908373ffffffffffffffffffffffffffffffffffffffff1602179055508073ffffffffffffffffffffffffffffffffffffffff167f675b770e821ba4aad20be77c58f912d689226272e805637f42f838a6035eed8660405160405180910390a25b6108a7565b806040517fc632231500000000000000000000000000000000000000000000000000000000815260040161089e91906116fa565b60405180910390fd5b50565b5f60045f015f9054906101000a900473ffffffffffffffffffffffffffffffffffffffff16905090565b427f000000000000000000000000000000000000000000000000000000000000000065ffffffffffff16101561097e5761090c610f9e565b73ffffffffffffffffffffffffffffffffffffffff163373ffffffffffffffffffffffffffffffffffffffff1614610979576040517f08c379a00000000000000000000000000000000000000000000000000000000081526004016109709061182c565b60405180910390fd5b610a04565b610986610b18565b73ffffffffffffffffffffffffffffffffffffffff163373ffffffffffffffffffffffffffffffffffffffff161480156109c457506109c3610b42565b5b610a03576040517f08c379a00000000000000000000000000000000000000000000000000000000081526004016109fa9061182c565b60405180910390fd5b5b8073ffffffffffffffffffffffffffffffffffffffff165f8054906101000a900473ffffffffffffffffffffffffffffffffffffffff1673ffffffffffffffffffffffffffffffffffffffff1603610ad857600260146101000a81549065ffffffffffff02191690555f806101000a81549073ffffffffffffffffffffffffffffffffffffffff02191690558073ffffffffffffffffffffffffffffffffffffffff167ff299f61c7e493f99b20cb36c587ca903d085d5206bfe4452d295711e372da02960405160405180910390a2610b15565b806040517fc6322315000000000000000000000000000000000000000000000000000000008152600401610b0c91906116fa565b60405180910390fd5b50565b5f60035f015f9054906101000a900473ffffffffffffffffffffffffffffffffffffffff16905090565b5f60035f0160149054906101000a900460ff16905090565b427f000000000000000000000000000000000000000000000000000000000000000065ffffffffffff161015610c0457610b92610f9e565b73ffffffffffffffffffffffffffffffffffffffff163373ffffffffffffffffffffffffffffffffffffffff1614610bff576040517f08c379a0000000000000000000000000000000000000000000000000000000008152600401610bf69061182c565b60405180910390fd5b610c8a565b610c0c610b18565b73ffffffffffffffffffffffffffffffffffffffff163373ffffffffffffffffffffffffffffffffffffffff16148015610c4a5750610c49610b42565b5b610c89576040517f08c379a0000000000000000000000000000000000000000000000000000000008152600401610c809061182c565b60405180910390fd5b5b42600260149054906101000a900465ffffffffffff1665ffffffffffff161015610de8575f600260149054906101000a900465ffffffffffff1665ffffffffffff1603610d0c576040517f08c379a0000000000000000000000000000000000000000000000000000000008152600401610d0390611928565b60405180910390fd5b8073ffffffffffffffffffffffffffffffffffffffff165f8054906101000a900473ffffffffffffffffffffffffffffffffffffffff1673ffffffffffffffffffffffffffffffffffffffff1603610da657600260146101000a81549065ffffffffffff02191690555f806101000a81549073ffffffffffffffffffffffffffffffffffffffff0219169055610da181611559565b610de3565b806040517fc6322315000000000000000000000000000000000000000000000000000000008152600401610dda91906116fa565b60405180910390fd5b610e44565b42600260149054906101000a900465ffffffffffff16610e089190611957565b6040517f223a6cbb000000000000000000000000000000000000000000000000000000008152600401610e3b919061199f565b60405180910390fd5b50565b427f000000000000000000000000000000000000000000000000000000000000000065ffffffffffff161015610ef157610e7f610f9e565b73ffffffffffffffffffffffffffffffffffffffff163373ffffffffffffffffffffffffffffffffffffffff1614610eec576040517f08c379a0000000000000000000000000000000000000000000000000000000008152600401610ee39061182c565b60405180910390fd5b610f77565b610ef9610b18565b73ffffffffffffffffffffffffffffffffffffffff163373ffffffffffffffffffffffffffffffffffffffff16148015610f375750610f36610b42565b5b610f76576040517f08c379a0000000000000000000000000000000000000000000000000000000008152600401610f6d9061182c565b60405180910390fd5b5b610f808161142e565b50565b5f60045f0160159054906101000a900463ffffffff16905090565b5f60055f015f9054906101000a900473ffffffffffffffffffffffffffffffffffffffff16905090565b427f000000000000000000000000000000000000000000000000000000000000000065ffffffffffff16101561107257611000610f9e565b73ffffffffffffffffffffffffffffffffffffffff163373ffffffffffffffffffffffffffffffffffffffff161461106d576040517f08c379a00000000000000000000000000000000000000000000000000000000081526004016110649061182c565b60405180910390fd5b6110f8565b61107a610b18565b73ffffffffffffffffffffffffffffffffffffffff163373ffffffffffffffffffffffffffffffffffffffff161480156110b857506110b7610b42565b5b6110f7576040517f08c379a00000000000000000000000000000000000000000000000000000000081526004016110ee9061182c565b60405180910390fd5b5b5f8173ffffffffffffffffffffffffffffffffffffffff163b111561119f578060015f6101000a81548173ffffffffffffffffffffffffffffffffffffffff021916908373ffffffffffffffffffffffffffffffffffffffff1602179055508073ffffffffffffffffffffffffffffffffffffffff167fe8d8e3c7c3ebec0c177d0fe22d223f8b5071db39155104808d45027e368ba77a60405160405180910390a26111dc565b806040517f84dbc6cb0000000000000000000000000000000000000000000000000000000081526004016111d391906116fa565b60405180910390fd5b50565b5f30905090565b6111ee610b18565b73ffffffffffffffffffffffffffffffffffffffff163373ffffffffffffffffffffffffffffffffffffffff1614801561122c575061122b610b42565b5b61126b576040517f08c379a00000000000000000000000000000000000000000000000000000000081526004016112629061182c565b60405180910390fd5b8073ffffffffffffffffffffffffffffffffffffffff1660015f9054906101000a900473ffffffffffffffffffffffffffffffffffffffff1673ffffffffffffffffffffffffffffffffffffffff16036113ee5760015f6101000a81549073ffffffffffffffffffffffffffffffffffffffff02191690558060045f015f6101000a81548173ffffffffffffffffffffffffffffffffffffffff021916908373ffffffffffffffffffffffffffffffffffffffff16021790555060045f01601581819054906101000a900463ffffffff168092919061134990611877565b91906101000a81548163ffffffff021916908363ffffffff1602179055505060045f0160159054906101000a900463ffffffff1663ffffffff1660045f015f9054906101000a900473ffffffffffffffffffffffffffffffffffffffff1673ffffffffffffffffffffffffffffffffffffffff167f5e86008a8467d1efccfe6cb6bd49ba7278d6af2745a1e6994e443322a423709360405160405180910390a361142b565b806040517f84dbc6cb00000000000000000000000000000000000000000000000000000000815260040161142291906116fa565b60405180910390fd5b50565b8060035f0160146101000a81548160ff02191690831515021790555060045f015f9054906101000a900473ffffffffffffffffffffffffffffffffffffffff1673ffffffffffffffffffffffffffffffffffffffff1663f4e25380826040518263ffffffff1660e01b81526004016114a6919061172d565b6020604051808303815f875af11580156114c2573d5f803e3d5ffd5b505050506040513d601f19601f820116820180604052508101906114e691906119cc565b1561152357600115158115157f067d0bd9a6167d98b43392618557d3cba4aa9b3c54791c0b96f1a20a05eb8b8460405160405180910390a3611556565b5f15158115157f067d0bd9a6167d98b43392618557d3cba4aa9b3c54791c0b96f1a20a05eb8b8460405160405180910390a35b50565b8060055f015f6101000a81548173ffffffffffffffffffffffffffffffffffffffff021916908373ffffffffffffffffffffffffffffffffffffffff16021790555060055f01601581819054906101000a900463ffffffff16809291906115bf90611877565b91906101000a81548163ffffffff021916908363ffffffff1602179055505060055f0160159054906101000a900463ffffffff1663ffffffff1660055f015f9054906101000a900473ffffffffffffffffffffffffffffffffffffffff1673ffffffffffffffffffffffffffffffffffffffff167ff7f7c26682668c39fd8c6dbca125bd9466e743b9e38acc3240867c139cd93c3060405160405180910390a350565b5f80fd5b5f73ffffffffffffffffffffffffffffffffffffffff82169050919050565b5f61168f82611666565b9050919050565b61169f81611685565b81146116a9575f80fd5b50565b5f813590506116ba81611696565b92915050565b5f602082840312156116d5576116d4611662565b5b5f6116e2848285016116ac565b91505092915050565b6116f481611685565b82525050565b5f60208201905061170d5f8301846116eb565b92915050565b5f8115159050919050565b61172781611713565b82525050565b5f6020820190506117405f83018461171e565b92915050565b61174f81611713565b8114611759575f80fd5b50565b5f8135905061176a81611746565b92915050565b5f6020828403121561178557611784611662565b5b5f6117928482850161175c565b91505092915050565b5f63ffffffff82169050919050565b6117b38161179b565b82525050565b5f6020820190506117cc5f8301846117aa565b92915050565b5f82825260208201905092915050565b7f416363657373206973206e6f742076616c6964000000000000000000000000005f82015250565b5f6118166013836117d2565b9150611821826117e2565b602082019050919050565b5f6020820190508181035f8301526118438161180a565b9050919050565b7f4e487b71000000000000000000000000000000000000000000000000000000005f52601160045260245ffd5b5f6118818261179b565b915063ffffffff82036118975761189661184a565b5b600182019050919050565b5f819050919050565b5f6118b5826118a2565b91506118c0836118a2565b92508282019050808211156118d8576118d761184a565b5b92915050565b7f546865207265717565737420697320696e76616c6964000000000000000000005f82015250565b5f6119126016836117d2565b915061191d826118de565b602082019050919050565b5f6020820190508181035f83015261193f81611906565b9050919050565b5f65ffffffffffff82169050919050565b5f61196182611946565b915061196c83611946565b9250828203905065ffffffffffff81111561198a5761198961184a565b5b92915050565b61199981611946565b82525050565b5f6020820190506119b25f830184611990565b92915050565b5f815190506119c681611746565b92915050565b5f602082840312156119e1576119e0611662565b5b5f6119ee848285016119b8565b9150509291505056fea26469706673582212209c74fac356d48570f5af0255f2ef02d5eaecf0fa601fcd8490530eca60f627b164736f6c63430008140033",
					"opcodes": "PUSH1 0xA0 PUSH1 0x40 MSTORE CALLVALUE DUP1 ISZERO PUSH3 0x10 JUMPI PUSH0 DUP1 REVERT JUMPDEST POP PUSH4 0x16A8C800 TIMESTAMP PUSH3 0x23 SWAP2 SWAP1 PUSH3 0xFD JUMP JUMPDEST PUSH6 0xFFFFFFFFFFFF AND PUSH1 0x80 DUP2 PUSH6 0xFFFFFFFFFFFF AND DUP2 MSTORE POP POP CALLER PUSH1 0x3 PUSH0 ADD PUSH0 PUSH2 0x100 EXP DUP2 SLOAD DUP2 PUSH20 0xFFFFFFFFFFFFFFFFFFFFFFFFFFFFFFFFFFFFFFFF MUL NOT AND SWAP1 DUP4 PUSH20 0xFFFFFFFFFFFFFFFFFFFFFFFFFFFFFFFFFFFFFFFF AND MUL OR SWAP1 SSTORE POP PUSH1 0x3 PUSH0 ADD PUSH1 0x15 DUP2 DUP2 SWAP1 SLOAD SWAP1 PUSH2 0x100 EXP SWAP1 DIV PUSH4 0xFFFFFFFF AND DUP1 SWAP3 SWAP2 SWAP1 PUSH3 0xA2 SWAP1 PUSH3 0x146 JUMP JUMPDEST SWAP2 SWAP1 PUSH2 0x100 EXP DUP2 SLOAD DUP2 PUSH4 0xFFFFFFFF MUL NOT AND SWAP1 DUP4 PUSH4 0xFFFFFFFF AND MUL OR SWAP1 SSTORE POP POP PUSH3 0x176 JUMP JUMPDEST PUSH0 DUP2 SWAP1 POP SWAP2 SWAP1 POP JUMP JUMPDEST PUSH32 0x4E487B7100000000000000000000000000000000000000000000000000000000 PUSH0 MSTORE PUSH1 0x11 PUSH1 0x4 MSTORE PUSH1 0x24 PUSH0 REVERT JUMPDEST PUSH0 PUSH3 0x109 DUP3 PUSH3 0xC7 JUMP JUMPDEST SWAP2 POP PUSH3 0x116 DUP4 PUSH3 0xC7 JUMP JUMPDEST SWAP3 POP DUP3 DUP3 ADD SWAP1 POP DUP1 DUP3 GT ISZERO PUSH3 0x131 JUMPI PUSH3 0x130 PUSH3 0xD0 JUMP JUMPDEST JUMPDEST SWAP3 SWAP2 POP POP JUMP JUMPDEST PUSH0 PUSH4 0xFFFFFFFF DUP3 AND SWAP1 POP SWAP2 SWAP1 POP JUMP JUMPDEST PUSH0 PUSH3 0x152 DUP3 PUSH3 0x137 JUMP JUMPDEST SWAP2 POP PUSH4 0xFFFFFFFF DUP3 SUB PUSH3 0x16B JUMPI PUSH3 0x16A PUSH3 0xD0 JUMP JUMPDEST JUMPDEST PUSH1 0x1 DUP3 ADD SWAP1 POP SWAP2 SWAP1 POP JUMP JUMPDEST PUSH1 0x80 MLOAD PUSH2 0x1A2D PUSH3 0x1B2 PUSH0 CODECOPY PUSH0 DUP2 DUP2 PUSH2 0x271 ADD MSTORE DUP2 DUP2 PUSH2 0x5FF ADD MSTORE DUP2 DUP2 PUSH2 0x8D7 ADD MSTORE DUP2 DUP2 PUSH2 0xB5D ADD MSTORE DUP2 DUP2 PUSH2 0xE4A ADD MSTORE PUSH2 0xFCB ADD MSTORE PUSH2 0x1A2D PUSH0 RETURN INVALID PUSH1 0x80 PUSH1 0x40 MSTORE CALLVALUE DUP1 ISZERO PUSH2 0xF JUMPI PUSH0 DUP1 REVERT JUMPDEST POP PUSH1 0x4 CALLDATASIZE LT PUSH2 0xE8 JUMPI PUSH0 CALLDATALOAD PUSH1 0xE0 SHR DUP1 PUSH4 0x9C20FE71 GT PUSH2 0x8A JUMPI DUP1 PUSH4 0xC5A1C5C1 GT PUSH2 0x64 JUMPI DUP1 PUSH4 0xC5A1C5C1 EQ PUSH2 0x1FA JUMPI DUP1 PUSH4 0xCA4CCE68 EQ PUSH2 0x218 JUMPI DUP1 PUSH4 0xE47A9D46 EQ PUSH2 0x234 JUMPI DUP1 PUSH4 0xEE7126C3 EQ PUSH2 0x252 JUMPI PUSH2 0xE8 JUMP JUMPDEST DUP1 PUSH4 0x9C20FE71 EQ PUSH2 0x1A4 JUMPI DUP1 PUSH4 0xB5C09C68 EQ PUSH2 0x1C0 JUMPI DUP1 PUSH4 0xC387B49C EQ PUSH2 0x1DC JUMPI PUSH2 0xE8 JUMP JUMPDEST DUP1 PUSH4 0x289B3C0D GT PUSH2 0xC6 JUMPI DUP1 PUSH4 0x289B3C0D EQ PUSH2 0x12E JUMPI DUP1 PUSH4 0x52E305DE EQ PUSH2 0x14C JUMPI DUP1 PUSH4 0x66410997 EQ PUSH2 0x168 JUMPI DUP1 PUSH4 0x6CF106D7 EQ PUSH2 0x186 JUMPI PUSH2 0xE8 JUMP JUMPDEST DUP1 PUSH4 0x54203BD EQ PUSH2 0xEC JUMPI DUP1 PUSH4 0xDF4C390 EQ PUSH2 0x108 JUMPI DUP1 PUSH4 0x1F72783A EQ PUSH2 0x112 JUMPI JUMPDEST PUSH0 DUP1 REVERT JUMPDEST PUSH2 0x106 PUSH1 0x4 DUP1 CALLDATASIZE SUB DUP2 ADD SWAP1 PUSH2 0x101 SWAP2 SWAP1 PUSH2 0x16C0 JUMP JUMPDEST PUSH2 0x26E JUMP JUMPDEST STOP JUMPDEST PUSH2 0x110 PUSH2 0x424 JUMP JUMPDEST STOP JUMPDEST PUSH2 0x12C PUSH1 0x4 DUP1 CALLDATASIZE SUB DUP2 ADD SWAP1 PUSH2 0x127 SWAP2 SWAP1 PUSH2 0x16C0 JUMP JUMPDEST PUSH2 0x5FC JUMP JUMPDEST STOP JUMPDEST PUSH2 0x136 PUSH2 0x8AA JUMP JUMPDEST PUSH1 0x40 MLOAD PUSH2 0x143 SWAP2 SWAP1 PUSH2 0x16FA JUMP JUMPDEST PUSH1 0x40 MLOAD DUP1 SWAP2 SUB SWAP1 RETURN JUMPDEST PUSH2 0x166 PUSH1 0x4 DUP1 CALLDATASIZE SUB DUP2 ADD SWAP1 PUSH2 0x161 SWAP2 SWAP1 PUSH2 0x16C0 JUMP JUMPDEST PUSH2 0x8D4 JUMP JUMPDEST STOP JUMPDEST PUSH2 0x170 PUSH2 0xB18 JUMP JUMPDEST PUSH1 0x40 MLOAD PUSH2 0x17D SWAP2 SWAP1 PUSH2 0x16FA JUMP JUMPDEST PUSH1 0x40 MLOAD DUP1 SWAP2 SUB SWAP1 RETURN JUMPDEST PUSH2 0x18E PUSH2 0xB42 JUMP JUMPDEST PUSH1 0x40 MLOAD PUSH2 0x19B SWAP2 SWAP1 PUSH2 0x172D JUMP JUMPDEST PUSH1 0x40 MLOAD DUP1 SWAP2 SUB SWAP1 RETURN JUMPDEST PUSH2 0x1BE PUSH1 0x4 DUP1 CALLDATASIZE SUB DUP2 ADD SWAP1 PUSH2 0x1B9 SWAP2 SWAP1 PUSH2 0x16C0 JUMP JUMPDEST PUSH2 0xB5A JUMP JUMPDEST STOP JUMPDEST PUSH2 0x1DA PUSH1 0x4 DUP1 CALLDATASIZE SUB DUP2 ADD SWAP1 PUSH2 0x1D5 SWAP2 SWAP1 PUSH2 0x1770 JUMP JUMPDEST PUSH2 0xE47 JUMP JUMPDEST STOP JUMPDEST PUSH2 0x1E4 PUSH2 0xF83 JUMP JUMPDEST PUSH1 0x40 MLOAD PUSH2 0x1F1 SWAP2 SWAP1 PUSH2 0x17B9 JUMP JUMPDEST PUSH1 0x40 MLOAD DUP1 SWAP2 SUB SWAP1 RETURN JUMPDEST PUSH2 0x202 PUSH2 0xF9E JUMP JUMPDEST PUSH1 0x40 MLOAD PUSH2 0x20F SWAP2 SWAP1 PUSH2 0x16FA JUMP JUMPDEST PUSH1 0x40 MLOAD DUP1 SWAP2 SUB SWAP1 RETURN JUMPDEST PUSH2 0x232 PUSH1 0x4 DUP1 CALLDATASIZE SUB DUP2 ADD SWAP1 PUSH2 0x22D SWAP2 SWAP1 PUSH2 0x16C0 JUMP JUMPDEST PUSH2 0xFC8 JUMP JUMPDEST STOP JUMPDEST PUSH2 0x23C PUSH2 0x11DF JUMP JUMPDEST PUSH1 0x40 MLOAD PUSH2 0x249 SWAP2 SWAP1 PUSH2 0x16FA JUMP JUMPDEST PUSH1 0x40 MLOAD DUP1 SWAP2 SUB SWAP1 RETURN JUMPDEST PUSH2 0x26C PUSH1 0x4 DUP1 CALLDATASIZE SUB DUP2 ADD SWAP1 PUSH2 0x267 SWAP2 SWAP1 PUSH2 0x16C0 JUMP JUMPDEST PUSH2 0x11E6 JUMP JUMPDEST STOP JUMPDEST TIMESTAMP PUSH32 0x0 PUSH6 0xFFFFFFFFFFFF AND LT ISZERO PUSH2 0x318 JUMPI PUSH2 0x2A6 PUSH2 0xF9E JUMP JUMPDEST PUSH20 0xFFFFFFFFFFFFFFFFFFFFFFFFFFFFFFFFFFFFFFFF AND CALLER PUSH20 0xFFFFFFFFFFFFFFFFFFFFFFFFFFFFFFFFFFFFFFFF AND EQ PUSH2 0x313 JUMPI PUSH1 0x40 MLOAD PUSH32 0x8C379A000000000000000000000000000000000000000000000000000000000 DUP2 MSTORE PUSH1 0x4 ADD PUSH2 0x30A SWAP1 PUSH2 0x182C JUMP JUMPDEST PUSH1 0x40 MLOAD DUP1 SWAP2 SUB SWAP1 REVERT JUMPDEST PUSH2 0x39E JUMP JUMPDEST PUSH2 0x320 PUSH2 0xB18 JUMP JUMPDEST PUSH20 0xFFFFFFFFFFFFFFFFFFFFFFFFFFFFFFFFFFFFFFFF AND CALLER PUSH20 0xFFFFFFFFFFFFFFFFFFFFFFFFFFFFFFFFFFFFFFFF AND EQ DUP1 ISZERO PUSH2 0x35E JUMPI POP PUSH2 0x35D PUSH2 0xB42 JUMP JUMPDEST JUMPDEST PUSH2 0x39D JUMPI PUSH1 0x40 MLOAD PUSH32 0x8C379A000000000000000000000000000000000000000000000000000000000 DUP2 MSTORE PUSH1 0x4 ADD PUSH2 0x394 SWAP1 PUSH2 0x182C JUMP JUMPDEST PUSH1 0x40 MLOAD DUP1 SWAP2 SUB SWAP1 REVERT JUMPDEST JUMPDEST DUP1 PUSH1 0x2 PUSH0 PUSH2 0x100 EXP DUP2 SLOAD DUP2 PUSH20 0xFFFFFFFFFFFFFFFFFFFFFFFFFFFFFFFFFFFFFFFF MUL NOT AND SWAP1 DUP4 PUSH20 0xFFFFFFFFFFFFFFFFFFFFFFFFFFFFFFFFFFFFFFFF AND MUL OR SWAP1 SSTORE POP DUP1 PUSH20 0xFFFFFFFFFFFFFFFFFFFFFFFFFFFFFFFFFFFFFFFF AND PUSH32 0x3553F1F7EF0242113266A8D183B621BB87468C99237F36B1150B6AB3D688B686 PUSH1 0x40 MLOAD PUSH1 0x40 MLOAD DUP1 SWAP2 SUB SWAP1 LOG2 POP JUMP JUMPDEST CALLER PUSH20 0xFFFFFFFFFFFFFFFFFFFFFFFFFFFFFFFFFFFFFFFF AND PUSH1 0x2 PUSH0 SWAP1 SLOAD SWAP1 PUSH2 0x100 EXP SWAP1 DIV PUSH20 0xFFFFFFFFFFFFFFFFFFFFFFFFFFFFFFFFFFFFFFFF AND PUSH20 0xFFFFFFFFFFFFFFFFFFFFFFFFFFFFFFFFFFFFFFFF AND SUB PUSH2 0x5C8 JUMPI PUSH1 0x2 PUSH0 PUSH2 0x100 EXP DUP2 SLOAD SWAP1 PUSH20 0xFFFFFFFFFFFFFFFFFFFFFFFFFFFFFFFFFFFFFFFF MUL NOT AND SWAP1 SSTORE CALLER PUSH1 0x3 PUSH0 ADD PUSH0 PUSH2 0x100 EXP DUP2 SLOAD DUP2 PUSH20 0xFFFFFFFFFFFFFFFFFFFFFFFFFFFFFFFFFFFFFFFF MUL NOT AND SWAP1 DUP4 PUSH20 0xFFFFFFFFFFFFFFFFFFFFFFFFFFFFFFFFFFFFFFFF AND MUL OR SWAP1 SSTORE POP PUSH1 0x3 PUSH0 ADD PUSH1 0x15 DUP2 DUP2 SWAP1 SLOAD SWAP1 PUSH2 0x100 EXP SWAP1 DIV PUSH4 0xFFFFFFFF AND DUP1 SWAP3 SWAP2 SWAP1 PUSH2 0x502 SWAP1 PUSH2 0x1877 JUMP JUMPDEST SWAP2 SWAP1 PUSH2 0x100 EXP DUP2 SLOAD DUP2 PUSH4 0xFFFFFFFF MUL NOT AND SWAP1 DUP4 PUSH4 0xFFFFFFFF AND MUL OR SWAP1 SSTORE POP POP PUSH1 0x3 PUSH0 ADD PUSH1 0x14 SWAP1 SLOAD SWAP1 PUSH2 0x100 EXP SWAP1 DIV PUSH1 0xFF AND ISZERO PUSH2 0x542 JUMPI PUSH2 0x541 PUSH0 PUSH2 0x142E JUMP JUMPDEST JUMPDEST PUSH1 0x3 PUSH0 ADD PUSH1 0x15 SWAP1 SLOAD SWAP1 PUSH2 0x100 EXP SWAP1 DIV PUSH4 0xFFFFFFFF AND PUSH4 0xFFFFFFFF AND PUSH1 0x3 PUSH0 ADD PUSH0 SWAP1 SLOAD SWAP1 PUSH2 0x100 EXP SWAP1 DIV PUSH20 0xFFFFFFFFFFFFFFFFFFFFFFFFFFFFFFFFFFFFFFFF AND PUSH20 0xFFFFFFFFFFFFFFFFFFFFFFFFFFFFFFFFFFFFFFFF AND PUSH32 0x5AD9B3688012CD825C1BFB941E4F5AFB2558AF6AF3DEADDF01DBB5E85ABDAF9 PUSH1 0x40 MLOAD PUSH1 0x40 MLOAD DUP1 SWAP2 SUB SWAP1 LOG3 PUSH2 0x5FA JUMP JUMPDEST PUSH1 0x40 MLOAD PUSH32 0xB513955100000000000000000000000000000000000000000000000000000000 DUP2 MSTORE PUSH1 0x4 ADD PUSH1 0x40 MLOAD DUP1 SWAP2 SUB SWAP1 REVERT JUMPDEST JUMP JUMPDEST TIMESTAMP PUSH32 0x0 PUSH6 0xFFFFFFFFFFFF AND LT ISZERO PUSH2 0x6A6 JUMPI PUSH2 0x634 PUSH2 0xF9E JUMP JUMPDEST PUSH20 0xFFFFFFFFFFFFFFFFFFFFFFFFFFFFFFFFFFFFFFFF AND CALLER PUSH20 0xFFFFFFFFFFFFFFFFFFFFFFFFFFFFFFFFFFFFFFFF AND EQ PUSH2 0x6A1 JUMPI PUSH1 0x40 MLOAD PUSH32 0x8C379A000000000000000000000000000000000000000000000000000000000 DUP2 MSTORE PUSH1 0x4 ADD PUSH2 0x698 SWAP1 PUSH2 0x182C JUMP JUMPDEST PUSH1 0x40 MLOAD DUP1 SWAP2 SUB SWAP1 REVERT JUMPDEST PUSH2 0x72C JUMP JUMPDEST PUSH2 0x6AE PUSH2 0xB18 JUMP JUMPDEST PUSH20 0xFFFFFFFFFFFFFFFFFFFFFFFFFFFFFFFFFFFFFFFF AND CALLER PUSH20 0xFFFFFFFFFFFFFFFFFFFFFFFFFFFFFFFFFFFFFFFF AND EQ DUP1 ISZERO PUSH2 0x6EC JUMPI POP PUSH2 0x6EB PUSH2 0xB42 JUMP JUMPDEST JUMPDEST PUSH2 0x72B JUMPI PUSH1 0x40 MLOAD PUSH32 0x8C379A000000000000000000000000000000000000000000000000000000000 DUP2 MSTORE PUSH1 0x4 ADD PUSH2 0x722 SWAP1 PUSH2 0x182C JUMP JUMPDEST PUSH1 0x40 MLOAD DUP1 SWAP2 SUB SWAP1 REVERT JUMPDEST JUMPDEST PUSH0 DUP2 PUSH20 0xFFFFFFFFFFFFFFFFFFFFFFFFFFFFFFFFFFFFFFFF AND EXTCODESIZE GT ISZERO PUSH2 0x86A JUMPI CALLER PUSH20 0xFFFFFFFFFFFFFFFFFFFFFFFFFFFFFFFFFFFFFFFF AND PUSH1 0x3 PUSH0 ADD PUSH0 SWAP1 SLOAD SWAP1 PUSH2 0x100 EXP SWAP1 DIV PUSH20 0xFFFFFFFFFFFFFFFFFFFFFFFFFFFFFFFFFFFFFFFF AND PUSH20 0xFFFFFFFFFFFFFFFFFFFFFFFFFFFFFFFFFFFFFFFF AND SUB PUSH2 0x7AF JUMPI PUSH2 0x7AA DUP2 PUSH2 0x1559 JUMP JUMPDEST PUSH2 0x865 JUMP JUMPDEST PUSH3 0x13C680 TIMESTAMP PUSH2 0x7BE SWAP2 SWAP1 PUSH2 0x18AB JUMP JUMPDEST PUSH1 0x2 PUSH1 0x14 PUSH2 0x100 EXP DUP2 SLOAD DUP2 PUSH6 0xFFFFFFFFFFFF MUL NOT AND SWAP1 DUP4 PUSH6 0xFFFFFFFFFFFF AND MUL OR SWAP1 SSTORE POP DUP1 PUSH0 DUP1 PUSH2 0x100 EXP DUP2 SLOAD DUP2 PUSH20 0xFFFFFFFFFFFFFFFFFFFFFFFFFFFFFFFFFFFFFFFF MUL NOT AND SWAP1 DUP4 PUSH20 0xFFFFFFFFFFFFFFFFFFFFFFFFFFFFFFFFFFFFFFFF AND MUL OR SWAP1 SSTORE POP DUP1 PUSH20 0xFFFFFFFFFFFFFFFFFFFFFFFFFFFFFFFFFFFFFFFF AND PUSH32 0x675B770E821BA4AAD20BE77C58F912D689226272E805637F42F838A6035EED86 PUSH1 0x40 MLOAD PUSH1 0x40 MLOAD DUP1 SWAP2 SUB SWAP1 LOG2 JUMPDEST PUSH2 0x8A7 JUMP JUMPDEST DUP1 PUSH1 0x40 MLOAD PUSH32 0xC632231500000000000000000000000000000000000000000000000000000000 DUP2 MSTORE PUSH1 0x4 ADD PUSH2 0x89E SWAP2 SWAP1 PUSH2 0x16FA JUMP JUMPDEST PUSH1 0x40 MLOAD DUP1 SWAP2 SUB SWAP1 REVERT JUMPDEST POP JUMP JUMPDEST PUSH0 PUSH1 0x4 PUSH0 ADD PUSH0 SWAP1 SLOAD SWAP1 PUSH2 0x100 EXP SWAP1 DIV PUSH20 0xFFFFFFFFFFFFFFFFFFFFFFFFFFFFFFFFFFFFFFFF AND SWAP1 POP SWAP1 JUMP JUMPDEST TIMESTAMP PUSH32 0x0 PUSH6 0xFFFFFFFFFFFF AND LT ISZERO PUSH2 0x97E JUMPI PUSH2 0x90C PUSH2 0xF9E JUMP JUMPDEST PUSH20 0xFFFFFFFFFFFFFFFFFFFFFFFFFFFFFFFFFFFFFFFF AND CALLER PUSH20 0xFFFFFFFFFFFFFFFFFFFFFFFFFFFFFFFFFFFFFFFF AND EQ PUSH2 0x979 JUMPI PUSH1 0x40 MLOAD PUSH32 0x8C379A000000000000000000000000000000000000000000000000000000000 DUP2 MSTORE PUSH1 0x4 ADD PUSH2 0x970 SWAP1 PUSH2 0x182C JUMP JUMPDEST PUSH1 0x40 MLOAD DUP1 SWAP2 SUB SWAP1 REVERT JUMPDEST PUSH2 0xA04 JUMP JUMPDEST PUSH2 0x986 PUSH2 0xB18 JUMP JUMPDEST PUSH20 0xFFFFFFFFFFFFFFFFFFFFFFFFFFFFFFFFFFFFFFFF AND CALLER PUSH20 0xFFFFFFFFFFFFFFFFFFFFFFFFFFFFFFFFFFFFFFFF AND EQ DUP1 ISZERO PUSH2 0x9C4 JUMPI POP PUSH2 0x9C3 PUSH2 0xB42 JUMP JUMPDEST JUMPDEST PUSH2 0xA03 JUMPI PUSH1 0x40 MLOAD PUSH32 0x8C379A000000000000000000000000000000000000000000000000000000000 DUP2 MSTORE PUSH1 0x4 ADD PUSH2 0x9FA SWAP1 PUSH2 0x182C JUMP JUMPDEST PUSH1 0x40 MLOAD DUP1 SWAP2 SUB SWAP1 REVERT JUMPDEST JUMPDEST DUP1 PUSH20 0xFFFFFFFFFFFFFFFFFFFFFFFFFFFFFFFFFFFFFFFF AND PUSH0 DUP1 SLOAD SWAP1 PUSH2 0x100 EXP SWAP1 DIV PUSH20 0xFFFFFFFFFFFFFFFFFFFFFFFFFFFFFFFFFFFFFFFF AND PUSH20 0xFFFFFFFFFFFFFFFFFFFFFFFFFFFFFFFFFFFFFFFF AND SUB PUSH2 0xAD8 JUMPI PUSH1 0x2 PUSH1 0x14 PUSH2 0x100 EXP DUP2 SLOAD SWAP1 PUSH6 0xFFFFFFFFFFFF MUL NOT AND SWAP1 SSTORE PUSH0 DUP1 PUSH2 0x100 EXP DUP2 SLOAD SWAP1 PUSH20 0xFFFFFFFFFFFFFFFFFFFFFFFFFFFFFFFFFFFFFFFF MUL NOT AND SWAP1 SSTORE DUP1 PUSH20 0xFFFFFFFFFFFFFFFFFFFFFFFFFFFFFFFFFFFFFFFF AND PUSH32 0xF299F61C7E493F99B20CB36C587CA903D085D5206BFE4452D295711E372DA029 PUSH1 0x40 MLOAD PUSH1 0x40 MLOAD DUP1 SWAP2 SUB SWAP1 LOG2 PUSH2 0xB15 JUMP JUMPDEST DUP1 PUSH1 0x40 MLOAD PUSH32 0xC632231500000000000000000000000000000000000000000000000000000000 DUP2 MSTORE PUSH1 0x4 ADD PUSH2 0xB0C SWAP2 SWAP1 PUSH2 0x16FA JUMP JUMPDEST PUSH1 0x40 MLOAD DUP1 SWAP2 SUB SWAP1 REVERT JUMPDEST POP JUMP JUMPDEST PUSH0 PUSH1 0x3 PUSH0 ADD PUSH0 SWAP1 SLOAD SWAP1 PUSH2 0x100 EXP SWAP1 DIV PUSH20 0xFFFFFFFFFFFFFFFFFFFFFFFFFFFFFFFFFFFFFFFF AND SWAP1 POP SWAP1 JUMP JUMPDEST PUSH0 PUSH1 0x3 PUSH0 ADD PUSH1 0x14 SWAP1 SLOAD SWAP1 PUSH2 0x100 EXP SWAP1 DIV PUSH1 0xFF AND SWAP1 POP SWAP1 JUMP JUMPDEST TIMESTAMP PUSH32 0x0 PUSH6 0xFFFFFFFFFFFF AND LT ISZERO PUSH2 0xC04 JUMPI PUSH2 0xB92 PUSH2 0xF9E JUMP JUMPDEST PUSH20 0xFFFFFFFFFFFFFFFFFFFFFFFFFFFFFFFFFFFFFFFF AND CALLER PUSH20 0xFFFFFFFFFFFFFFFFFFFFFFFFFFFFFFFFFFFFFFFF AND EQ PUSH2 0xBFF JUMPI PUSH1 0x40 MLOAD PUSH32 0x8C379A000000000000000000000000000000000000000000000000000000000 DUP2 MSTORE PUSH1 0x4 ADD PUSH2 0xBF6 SWAP1 PUSH2 0x182C JUMP JUMPDEST PUSH1 0x40 MLOAD DUP1 SWAP2 SUB SWAP1 REVERT JUMPDEST PUSH2 0xC8A JUMP JUMPDEST PUSH2 0xC0C PUSH2 0xB18 JUMP JUMPDEST PUSH20 0xFFFFFFFFFFFFFFFFFFFFFFFFFFFFFFFFFFFFFFFF AND CALLER PUSH20 0xFFFFFFFFFFFFFFFFFFFFFFFFFFFFFFFFFFFFFFFF AND EQ DUP1 ISZERO PUSH2 0xC4A JUMPI POP PUSH2 0xC49 PUSH2 0xB42 JUMP JUMPDEST JUMPDEST PUSH2 0xC89 JUMPI PUSH1 0x40 MLOAD PUSH32 0x8C379A000000000000000000000000000000000000000000000000000000000 DUP2 MSTORE PUSH1 0x4 ADD PUSH2 0xC80 SWAP1 PUSH2 0x182C JUMP JUMPDEST PUSH1 0x40 MLOAD DUP1 SWAP2 SUB SWAP1 REVERT JUMPDEST JUMPDEST TIMESTAMP PUSH1 0x2 PUSH1 0x14 SWAP1 SLOAD SWAP1 PUSH2 0x100 EXP SWAP1 DIV PUSH6 0xFFFFFFFFFFFF AND PUSH6 0xFFFFFFFFFFFF AND LT ISZERO PUSH2 0xDE8 JUMPI PUSH0 PUSH1 0x2 PUSH1 0x14 SWAP1 SLOAD SWAP1 PUSH2 0x100 EXP SWAP1 DIV PUSH6 0xFFFFFFFFFFFF AND PUSH6 0xFFFFFFFFFFFF AND SUB PUSH2 0xD0C JUMPI PUSH1 0x40 MLOAD PUSH32 0x8C379A000000000000000000000000000000000000000000000000000000000 DUP2 MSTORE PUSH1 0x4 ADD PUSH2 0xD03 SWAP1 PUSH2 0x1928 JUMP JUMPDEST PUSH1 0x40 MLOAD DUP1 SWAP2 SUB SWAP1 REVERT JUMPDEST DUP1 PUSH20 0xFFFFFFFFFFFFFFFFFFFFFFFFFFFFFFFFFFFFFFFF AND PUSH0 DUP1 SLOAD SWAP1 PUSH2 0x100 EXP SWAP1 DIV PUSH20 0xFFFFFFFFFFFFFFFFFFFFFFFFFFFFFFFFFFFFFFFF AND PUSH20 0xFFFFFFFFFFFFFFFFFFFFFFFFFFFFFFFFFFFFFFFF AND SUB PUSH2 0xDA6 JUMPI PUSH1 0x2 PUSH1 0x14 PUSH2 0x100 EXP DUP2 SLOAD SWAP1 PUSH6 0xFFFFFFFFFFFF MUL NOT AND SWAP1 SSTORE PUSH0 DUP1 PUSH2 0x100 EXP DUP2 SLOAD SWAP1 PUSH20 0xFFFFFFFFFFFFFFFFFFFFFFFFFFFFFFFFFFFFFFFF MUL NOT AND SWAP1 SSTORE PUSH2 0xDA1 DUP2 PUSH2 0x1559 JUMP JUMPDEST PUSH2 0xDE3 JUMP JUMPDEST DUP1 PUSH1 0x40 MLOAD PUSH32 0xC632231500000000000000000000000000000000000000000000000000000000 DUP2 MSTORE PUSH1 0x4 ADD PUSH2 0xDDA SWAP2 SWAP1 PUSH2 0x16FA JUMP JUMPDEST PUSH1 0x40 MLOAD DUP1 SWAP2 SUB SWAP1 REVERT JUMPDEST PUSH2 0xE44 JUMP JUMPDEST TIMESTAMP PUSH1 0x2 PUSH1 0x14 SWAP1 SLOAD SWAP1 PUSH2 0x100 EXP SWAP1 DIV PUSH6 0xFFFFFFFFFFFF AND PUSH2 0xE08 SWAP2 SWAP1 PUSH2 0x1957 JUMP JUMPDEST PUSH1 0x40 MLOAD PUSH32 0x223A6CBB00000000000000000000000000000000000000000000000000000000 DUP2 MSTORE PUSH1 0x4 ADD PUSH2 0xE3B SWAP2 SWAP1 PUSH2 0x199F JUMP JUMPDEST PUSH1 0x40 MLOAD DUP1 SWAP2 SUB SWAP1 REVERT JUMPDEST POP JUMP JUMPDEST TIMESTAMP PUSH32 0x0 PUSH6 0xFFFFFFFFFFFF AND LT ISZERO PUSH2 0xEF1 JUMPI PUSH2 0xE7F PUSH2 0xF9E JUMP JUMPDEST PUSH20 0xFFFFFFFFFFFFFFFFFFFFFFFFFFFFFFFFFFFFFFFF AND CALLER PUSH20 0xFFFFFFFFFFFFFFFFFFFFFFFFFFFFFFFFFFFFFFFF AND EQ PUSH2 0xEEC JUMPI PUSH1 0x40 MLOAD PUSH32 0x8C379A000000000000000000000000000000000000000000000000000000000 DUP2 MSTORE PUSH1 0x4 ADD PUSH2 0xEE3 SWAP1 PUSH2 0x182C JUMP JUMPDEST PUSH1 0x40 MLOAD DUP1 SWAP2 SUB SWAP1 REVERT JUMPDEST PUSH2 0xF77 JUMP JUMPDEST PUSH2 0xEF9 PUSH2 0xB18 JUMP JUMPDEST PUSH20 0xFFFFFFFFFFFFFFFFFFFFFFFFFFFFFFFFFFFFFFFF AND CALLER PUSH20 0xFFFFFFFFFFFFFFFFFFFFFFFFFFFFFFFFFFFFFFFF AND EQ DUP1 ISZERO PUSH2 0xF37 JUMPI POP PUSH2 0xF36 PUSH2 0xB42 JUMP JUMPDEST JUMPDEST PUSH2 0xF76 JUMPI PUSH1 0x40 MLOAD PUSH32 0x8C379A000000000000000000000000000000000000000000000000000000000 DUP2 MSTORE PUSH1 0x4 ADD PUSH2 0xF6D SWAP1 PUSH2 0x182C JUMP JUMPDEST PUSH1 0x40 MLOAD DUP1 SWAP2 SUB SWAP1 REVERT JUMPDEST JUMPDEST PUSH2 0xF80 DUP2 PUSH2 0x142E JUMP JUMPDEST POP JUMP JUMPDEST PUSH0 PUSH1 0x4 PUSH0 ADD PUSH1 0x15 SWAP1 SLOAD SWAP1 PUSH2 0x100 EXP SWAP1 DIV PUSH4 0xFFFFFFFF AND SWAP1 POP SWAP1 JUMP JUMPDEST PUSH0 PUSH1 0x5 PUSH0 ADD PUSH0 SWAP1 SLOAD SWAP1 PUSH2 0x100 EXP SWAP1 DIV PUSH20 0xFFFFFFFFFFFFFFFFFFFFFFFFFFFFFFFFFFFFFFFF AND SWAP1 POP SWAP1 JUMP JUMPDEST TIMESTAMP PUSH32 0x0 PUSH6 0xFFFFFFFFFFFF AND LT ISZERO PUSH2 0x1072 JUMPI PUSH2 0x1000 PUSH2 0xF9E JUMP JUMPDEST PUSH20 0xFFFFFFFFFFFFFFFFFFFFFFFFFFFFFFFFFFFFFFFF AND CALLER PUSH20 0xFFFFFFFFFFFFFFFFFFFFFFFFFFFFFFFFFFFFFFFF AND EQ PUSH2 0x106D JUMPI PUSH1 0x40 MLOAD PUSH32 0x8C379A000000000000000000000000000000000000000000000000000000000 DUP2 MSTORE PUSH1 0x4 ADD PUSH2 0x1064 SWAP1 PUSH2 0x182C JUMP JUMPDEST PUSH1 0x40 MLOAD DUP1 SWAP2 SUB SWAP1 REVERT JUMPDEST PUSH2 0x10F8 JUMP JUMPDEST PUSH2 0x107A PUSH2 0xB18 JUMP JUMPDEST PUSH20 0xFFFFFFFFFFFFFFFFFFFFFFFFFFFFFFFFFFFFFFFF AND CALLER PUSH20 0xFFFFFFFFFFFFFFFFFFFFFFFFFFFFFFFFFFFFFFFF AND EQ DUP1 ISZERO PUSH2 0x10B8 JUMPI POP PUSH2 0x10B7 PUSH2 0xB42 JUMP JUMPDEST JUMPDEST PUSH2 0x10F7 JUMPI PUSH1 0x40 MLOAD PUSH32 0x8C379A000000000000000000000000000000000000000000000000000000000 DUP2 MSTORE PUSH1 0x4 ADD PUSH2 0x10EE SWAP1 PUSH2 0x182C JUMP JUMPDEST PUSH1 0x40 MLOAD DUP1 SWAP2 SUB SWAP1 REVERT JUMPDEST JUMPDEST PUSH0 DUP2 PUSH20 0xFFFFFFFFFFFFFFFFFFFFFFFFFFFFFFFFFFFFFFFF AND EXTCODESIZE GT ISZERO PUSH2 0x119F JUMPI DUP1 PUSH1 0x1 PUSH0 PUSH2 0x100 EXP DUP2 SLOAD DUP2 PUSH20 0xFFFFFFFFFFFFFFFFFFFFFFFFFFFFFFFFFFFFFFFF MUL NOT AND SWAP1 DUP4 PUSH20 0xFFFFFFFFFFFFFFFFFFFFFFFFFFFFFFFFFFFFFFFF AND MUL OR SWAP1 SSTORE POP DUP1 PUSH20 0xFFFFFFFFFFFFFFFFFFFFFFFFFFFFFFFFFFFFFFFF AND PUSH32 0xE8D8E3C7C3EBEC0C177D0FE22D223F8B5071DB39155104808D45027E368BA77A PUSH1 0x40 MLOAD PUSH1 0x40 MLOAD DUP1 SWAP2 SUB SWAP1 LOG2 PUSH2 0x11DC JUMP JUMPDEST DUP1 PUSH1 0x40 MLOAD PUSH32 0x84DBC6CB00000000000000000000000000000000000000000000000000000000 DUP2 MSTORE PUSH1 0x4 ADD PUSH2 0x11D3 SWAP2 SWAP1 PUSH2 0x16FA JUMP JUMPDEST PUSH1 0x40 MLOAD DUP1 SWAP2 SUB SWAP1 REVERT JUMPDEST POP JUMP JUMPDEST PUSH0 ADDRESS SWAP1 POP SWAP1 JUMP JUMPDEST PUSH2 0x11EE PUSH2 0xB18 JUMP JUMPDEST PUSH20 0xFFFFFFFFFFFFFFFFFFFFFFFFFFFFFFFFFFFFFFFF AND CALLER PUSH20 0xFFFFFFFFFFFFFFFFFFFFFFFFFFFFFFFFFFFFFFFF AND EQ DUP1 ISZERO PUSH2 0x122C JUMPI POP PUSH2 0x122B PUSH2 0xB42 JUMP JUMPDEST JUMPDEST PUSH2 0x126B JUMPI PUSH1 0x40 MLOAD PUSH32 0x8C379A000000000000000000000000000000000000000000000000000000000 DUP2 MSTORE PUSH1 0x4 ADD PUSH2 0x1262 SWAP1 PUSH2 0x182C JUMP JUMPDEST PUSH1 0x40 MLOAD DUP1 SWAP2 SUB SWAP1 REVERT JUMPDEST DUP1 PUSH20 0xFFFFFFFFFFFFFFFFFFFFFFFFFFFFFFFFFFFFFFFF AND PUSH1 0x1 PUSH0 SWAP1 SLOAD SWAP1 PUSH2 0x100 EXP SWAP1 DIV PUSH20 0xFFFFFFFFFFFFFFFFFFFFFFFFFFFFFFFFFFFFFFFF AND PUSH20 0xFFFFFFFFFFFFFFFFFFFFFFFFFFFFFFFFFFFFFFFF AND SUB PUSH2 0x13EE JUMPI PUSH1 0x1 PUSH0 PUSH2 0x100 EXP DUP2 SLOAD SWAP1 PUSH20 0xFFFFFFFFFFFFFFFFFFFFFFFFFFFFFFFFFFFFFFFF MUL NOT AND SWAP1 SSTORE DUP1 PUSH1 0x4 PUSH0 ADD PUSH0 PUSH2 0x100 EXP DUP2 SLOAD DUP2 PUSH20 0xFFFFFFFFFFFFFFFFFFFFFFFFFFFFFFFFFFFFFFFF MUL NOT AND SWAP1 DUP4 PUSH20 0xFFFFFFFFFFFFFFFFFFFFFFFFFFFFFFFFFFFFFFFF AND MUL OR SWAP1 SSTORE POP PUSH1 0x4 PUSH0 ADD PUSH1 0x15 DUP2 DUP2 SWAP1 SLOAD SWAP1 PUSH2 0x100 EXP SWAP1 DIV PUSH4 0xFFFFFFFF AND DUP1 SWAP3 SWAP2 SWAP1 PUSH2 0x1349 SWAP1 PUSH2 0x1877 JUMP JUMPDEST SWAP2 SWAP1 PUSH2 0x100 EXP DUP2 SLOAD DUP2 PUSH4 0xFFFFFFFF MUL NOT AND SWAP1 DUP4 PUSH4 0xFFFFFFFF AND MUL OR SWAP1 SSTORE POP POP PUSH1 0x4 PUSH0 ADD PUSH1 0x15 SWAP1 SLOAD SWAP1 PUSH2 0x100 EXP SWAP1 DIV PUSH4 0xFFFFFFFF AND PUSH4 0xFFFFFFFF AND PUSH1 0x4 PUSH0 ADD PUSH0 SWAP1 SLOAD SWAP1 PUSH2 0x100 EXP SWAP1 DIV PUSH20 0xFFFFFFFFFFFFFFFFFFFFFFFFFFFFFFFFFFFFFFFF AND PUSH20 0xFFFFFFFFFFFFFFFFFFFFFFFFFFFFFFFFFFFFFFFF AND PUSH32 0x5E86008A8467D1EFCCFE6CB6BD49BA7278D6AF2745A1E6994E443322A4237093 PUSH1 0x40 MLOAD PUSH1 0x40 MLOAD DUP1 SWAP2 SUB SWAP1 LOG3 PUSH2 0x142B JUMP JUMPDEST DUP1 PUSH1 0x40 MLOAD PUSH32 0x84DBC6CB00000000000000000000000000000000000000000000000000000000 DUP2 MSTORE PUSH1 0x4 ADD PUSH2 0x1422 SWAP2 SWAP1 PUSH2 0x16FA JUMP JUMPDEST PUSH1 0x40 MLOAD DUP1 SWAP2 SUB SWAP1 REVERT JUMPDEST POP JUMP JUMPDEST DUP1 PUSH1 0x3 PUSH0 ADD PUSH1 0x14 PUSH2 0x100 EXP DUP2 SLOAD DUP2 PUSH1 0xFF MUL NOT AND SWAP1 DUP4 ISZERO ISZERO MUL OR SWAP1 SSTORE POP PUSH1 0x4 PUSH0 ADD PUSH0 SWAP1 SLOAD SWAP1 PUSH2 0x100 EXP SWAP1 DIV PUSH20 0xFFFFFFFFFFFFFFFFFFFFFFFFFFFFFFFFFFFFFFFF AND PUSH20 0xFFFFFFFFFFFFFFFFFFFFFFFFFFFFFFFFFFFFFFFF AND PUSH4 0xF4E25380 DUP3 PUSH1 0x40 MLOAD DUP3 PUSH4 0xFFFFFFFF AND PUSH1 0xE0 SHL DUP2 MSTORE PUSH1 0x4 ADD PUSH2 0x14A6 SWAP2 SWAP1 PUSH2 0x172D JUMP JUMPDEST PUSH1 0x20 PUSH1 0x40 MLOAD DUP1 DUP4 SUB DUP2 PUSH0 DUP8 GAS CALL ISZERO DUP1 ISZERO PUSH2 0x14C2 JUMPI RETURNDATASIZE PUSH0 DUP1 RETURNDATACOPY RETURNDATASIZE PUSH0 REVERT JUMPDEST POP POP POP POP PUSH1 0x40 MLOAD RETURNDATASIZE PUSH1 0x1F NOT PUSH1 0x1F DUP3 ADD AND DUP3 ADD DUP1 PUSH1 0x40 MSTORE POP DUP2 ADD SWAP1 PUSH2 0x14E6 SWAP2 SWAP1 PUSH2 0x19CC JUMP JUMPDEST ISZERO PUSH2 0x1523 JUMPI PUSH1 0x1 ISZERO ISZERO DUP2 ISZERO ISZERO PUSH32 0x67D0BD9A6167D98B43392618557D3CBA4AA9B3C54791C0B96F1A20A05EB8B84 PUSH1 0x40 MLOAD PUSH1 0x40 MLOAD DUP1 SWAP2 SUB SWAP1 LOG3 PUSH2 0x1556 JUMP JUMPDEST PUSH0 ISZERO ISZERO DUP2 ISZERO ISZERO PUSH32 0x67D0BD9A6167D98B43392618557D3CBA4AA9B3C54791C0B96F1A20A05EB8B84 PUSH1 0x40 MLOAD PUSH1 0x40 MLOAD DUP1 SWAP2 SUB SWAP1 LOG3 JUMPDEST POP JUMP JUMPDEST DUP1 PUSH1 0x5 PUSH0 ADD PUSH0 PUSH2 0x100 EXP DUP2 SLOAD DUP2 PUSH20 0xFFFFFFFFFFFFFFFFFFFFFFFFFFFFFFFFFFFFFFFF MUL NOT AND SWAP1 DUP4 PUSH20 0xFFFFFFFFFFFFFFFFFFFFFFFFFFFFFFFFFFFFFFFF AND MUL OR SWAP1 SSTORE POP PUSH1 0x5 PUSH0 ADD PUSH1 0x15 DUP2 DUP2 SWAP1 SLOAD SWAP1 PUSH2 0x100 EXP SWAP1 DIV PUSH4 0xFFFFFFFF AND DUP1 SWAP3 SWAP2 SWAP1 PUSH2 0x15BF SWAP1 PUSH2 0x1877 JUMP JUMPDEST SWAP2 SWAP1 PUSH2 0x100 EXP DUP2 SLOAD DUP2 PUSH4 0xFFFFFFFF MUL NOT AND SWAP1 DUP4 PUSH4 0xFFFFFFFF AND MUL OR SWAP1 SSTORE POP POP PUSH1 0x5 PUSH0 ADD PUSH1 0x15 SWAP1 SLOAD SWAP1 PUSH2 0x100 EXP SWAP1 DIV PUSH4 0xFFFFFFFF AND PUSH4 0xFFFFFFFF AND PUSH1 0x5 PUSH0 ADD PUSH0 SWAP1 SLOAD SWAP1 PUSH2 0x100 EXP SWAP1 DIV PUSH20 0xFFFFFFFFFFFFFFFFFFFFFFFFFFFFFFFFFFFFFFFF AND PUSH20 0xFFFFFFFFFFFFFFFFFFFFFFFFFFFFFFFFFFFFFFFF AND PUSH32 0xF7F7C26682668C39FD8C6DBCA125BD9466E743B9E38ACC3240867C139CD93C30 PUSH1 0x40 MLOAD PUSH1 0x40 MLOAD DUP1 SWAP2 SUB SWAP1 LOG3 POP JUMP JUMPDEST PUSH0 DUP1 REVERT JUMPDEST PUSH0 PUSH20 0xFFFFFFFFFFFFFFFFFFFFFFFFFFFFFFFFFFFFFFFF DUP3 AND SWAP1 POP SWAP2 SWAP1 POP JUMP JUMPDEST PUSH0 PUSH2 0x168F DUP3 PUSH2 0x1666 JUMP JUMPDEST SWAP1 POP SWAP2 SWAP1 POP JUMP JUMPDEST PUSH2 0x169F DUP2 PUSH2 0x1685 JUMP JUMPDEST DUP2 EQ PUSH2 0x16A9 JUMPI PUSH0 DUP1 REVERT JUMPDEST POP JUMP JUMPDEST PUSH0 DUP2 CALLDATALOAD SWAP1 POP PUSH2 0x16BA DUP2 PUSH2 0x1696 JUMP JUMPDEST SWAP3 SWAP2 POP POP JUMP JUMPDEST PUSH0 PUSH1 0x20 DUP3 DUP5 SUB SLT ISZERO PUSH2 0x16D5 JUMPI PUSH2 0x16D4 PUSH2 0x1662 JUMP JUMPDEST JUMPDEST PUSH0 PUSH2 0x16E2 DUP5 DUP3 DUP6 ADD PUSH2 0x16AC JUMP JUMPDEST SWAP2 POP POP SWAP3 SWAP2 POP POP JUMP JUMPDEST PUSH2 0x16F4 DUP2 PUSH2 0x1685 JUMP JUMPDEST DUP3 MSTORE POP POP JUMP JUMPDEST PUSH0 PUSH1 0x20 DUP3 ADD SWAP1 POP PUSH2 0x170D PUSH0 DUP4 ADD DUP5 PUSH2 0x16EB JUMP JUMPDEST SWAP3 SWAP2 POP POP JUMP JUMPDEST PUSH0 DUP2 ISZERO ISZERO SWAP1 POP SWAP2 SWAP1 POP JUMP JUMPDEST PUSH2 0x1727 DUP2 PUSH2 0x1713 JUMP JUMPDEST DUP3 MSTORE POP POP JUMP JUMPDEST PUSH0 PUSH1 0x20 DUP3 ADD SWAP1 POP PUSH2 0x1740 PUSH0 DUP4 ADD DUP5 PUSH2 0x171E JUMP JUMPDEST SWAP3 SWAP2 POP POP JUMP JUMPDEST PUSH2 0x174F DUP2 PUSH2 0x1713 JUMP JUMPDEST DUP2 EQ PUSH2 0x1759 JUMPI PUSH0 DUP1 REVERT JUMPDEST POP JUMP JUMPDEST PUSH0 DUP2 CALLDATALOAD SWAP1 POP PUSH2 0x176A DUP2 PUSH2 0x1746 JUMP JUMPDEST SWAP3 SWAP2 POP POP JUMP JUMPDEST PUSH0 PUSH1 0x20 DUP3 DUP5 SUB SLT ISZERO PUSH2 0x1785 JUMPI PUSH2 0x1784 PUSH2 0x1662 JUMP JUMPDEST JUMPDEST PUSH0 PUSH2 0x1792 DUP5 DUP3 DUP6 ADD PUSH2 0x175C JUMP JUMPDEST SWAP2 POP POP SWAP3 SWAP2 POP POP JUMP JUMPDEST PUSH0 PUSH4 0xFFFFFFFF DUP3 AND SWAP1 POP SWAP2 SWAP1 POP JUMP JUMPDEST PUSH2 0x17B3 DUP2 PUSH2 0x179B JUMP JUMPDEST DUP3 MSTORE POP POP JUMP JUMPDEST PUSH0 PUSH1 0x20 DUP3 ADD SWAP1 POP PUSH2 0x17CC PUSH0 DUP4 ADD DUP5 PUSH2 0x17AA JUMP JUMPDEST SWAP3 SWAP2 POP POP JUMP JUMPDEST PUSH0 DUP3 DUP3 MSTORE PUSH1 0x20 DUP3 ADD SWAP1 POP SWAP3 SWAP2 POP POP JUMP JUMPDEST PUSH32 0x416363657373206973206E6F742076616C696400000000000000000000000000 PUSH0 DUP3 ADD MSTORE POP JUMP JUMPDEST PUSH0 PUSH2 0x1816 PUSH1 0x13 DUP4 PUSH2 0x17D2 JUMP JUMPDEST SWAP2 POP PUSH2 0x1821 DUP3 PUSH2 0x17E2 JUMP JUMPDEST PUSH1 0x20 DUP3 ADD SWAP1 POP SWAP2 SWAP1 POP JUMP JUMPDEST PUSH0 PUSH1 0x20 DUP3 ADD SWAP1 POP DUP2 DUP2 SUB PUSH0 DUP4 ADD MSTORE PUSH2 0x1843 DUP2 PUSH2 0x180A JUMP JUMPDEST SWAP1 POP SWAP2 SWAP1 POP JUMP JUMPDEST PUSH32 0x4E487B7100000000000000000000000000000000000000000000000000000000 PUSH0 MSTORE PUSH1 0x11 PUSH1 0x4 MSTORE PUSH1 0x24 PUSH0 REVERT JUMPDEST PUSH0 PUSH2 0x1881 DUP3 PUSH2 0x179B JUMP JUMPDEST SWAP2 POP PUSH4 0xFFFFFFFF DUP3 SUB PUSH2 0x1897 JUMPI PUSH2 0x1896 PUSH2 0x184A JUMP JUMPDEST JUMPDEST PUSH1 0x1 DUP3 ADD SWAP1 POP SWAP2 SWAP1 POP JUMP JUMPDEST PUSH0 DUP2 SWAP1 POP SWAP2 SWAP1 POP JUMP JUMPDEST PUSH0 PUSH2 0x18B5 DUP3 PUSH2 0x18A2 JUMP JUMPDEST SWAP2 POP PUSH2 0x18C0 DUP4 PUSH2 0x18A2 JUMP JUMPDEST SWAP3 POP DUP3 DUP3 ADD SWAP1 POP DUP1 DUP3 GT ISZERO PUSH2 0x18D8 JUMPI PUSH2 0x18D7 PUSH2 0x184A JUMP JUMPDEST JUMPDEST SWAP3 SWAP2 POP POP JUMP JUMPDEST PUSH32 0x546865207265717565737420697320696E76616C696400000000000000000000 PUSH0 DUP3 ADD MSTORE POP JUMP JUMPDEST PUSH0 PUSH2 0x1912 PUSH1 0x16 DUP4 PUSH2 0x17D2 JUMP JUMPDEST SWAP2 POP PUSH2 0x191D DUP3 PUSH2 0x18DE JUMP JUMPDEST PUSH1 0x20 DUP3 ADD SWAP1 POP SWAP2 SWAP1 POP JUMP JUMPDEST PUSH0 PUSH1 0x20 DUP3 ADD SWAP1 POP DUP2 DUP2 SUB PUSH0 DUP4 ADD MSTORE PUSH2 0x193F DUP2 PUSH2 0x1906 JUMP JUMPDEST SWAP1 POP SWAP2 SWAP1 POP JUMP JUMPDEST PUSH0 PUSH6 0xFFFFFFFFFFFF DUP3 AND SWAP1 POP SWAP2 SWAP1 POP JUMP JUMPDEST PUSH0 PUSH2 0x1961 DUP3 PUSH2 0x1946 JUMP JUMPDEST SWAP2 POP PUSH2 0x196C DUP4 PUSH2 0x1946 JUMP JUMPDEST SWAP3 POP DUP3 DUP3 SUB SWAP1 POP PUSH6 0xFFFFFFFFFFFF DUP2 GT ISZERO PUSH2 0x198A JUMPI PUSH2 0x1989 PUSH2 0x184A JUMP JUMPDEST JUMPDEST SWAP3 SWAP2 POP POP JUMP JUMPDEST PUSH2 0x1999 DUP2 PUSH2 0x1946 JUMP JUMPDEST DUP3 MSTORE POP POP JUMP JUMPDEST PUSH0 PUSH1 0x20 DUP3 ADD SWAP1 POP PUSH2 0x19B2 PUSH0 DUP4 ADD DUP5 PUSH2 0x1990 JUMP JUMPDEST SWAP3 SWAP2 POP POP JUMP JUMPDEST PUSH0 DUP2 MLOAD SWAP1 POP PUSH2 0x19C6 DUP2 PUSH2 0x1746 JUMP JUMPDEST SWAP3 SWAP2 POP POP JUMP JUMPDEST PUSH0 PUSH1 0x20 DUP3 DUP5 SUB SLT ISZERO PUSH2 0x19E1 JUMPI PUSH2 0x19E0 PUSH2 0x1662 JUMP JUMPDEST JUMPDEST PUSH0 PUSH2 0x19EE DUP5 DUP3 DUP6 ADD PUSH2 0x19B8 JUMP JUMPDEST SWAP2 POP POP SWAP3 SWAP2 POP POP JUMP INVALID LOG2 PUSH5 0x6970667358 0x22 SLT KECCAK256 SWAP13 PUSH21 0xFAC356D48570F5AF0255F2EF02D5EAECF0FA601FCD DUP5 SWAP1 MSTORE8 0xE 0xCA PUSH1 0xF6 0x27 0xB1 PUSH5 0x736F6C6343 STOP ADDMOD EQ STOP CALLER "
				},
				"gasEstimates": {
					"creation": {
						"codeDepositCost": "1340200",
						"executionCost": "infinite",
						"totalCost": "infinite"
					},
					"external": {
						"cancelPendingRepublicAddress(address)": "infinite",
						"getAuthorityAddress()": "445",
						"getGovernance()": "2543",
						"getPresidentAdd()": "2587",
						"getPresidentBan()": "2618",
						"getRepublicAddress()": "2542",
						"getgovernanceVersion()": "2596",
						"setPendigPresident(address)": "infinite",
						"setPendingGovernanceContractAddress(address)": "infinite",
						"setPendingRepublicAddress(address)": "infinite",
						"setPresidentBaned(bool)": "infinite",
						"transferGovernanceContractAddress(address)": "infinite",
						"transferPresident()": "infinite",
						"transferRepublicAddress(address)": "infinite"
					},
					"internal": {
						"_setPresidentBaned(bool)": "infinite",
						"_transferRepublicAddress(address)": "56825"
					}
				},
				"methodIdentifiers": {
					"cancelPendingRepublicAddress(address)": "52e305de",
					"getAuthorityAddress()": "e47a9d46",
					"getGovernance()": "289b3c0d",
					"getPresidentAdd()": "66410997",
					"getPresidentBan()": "6cf106d7",
					"getRepublicAddress()": "c5a1c5c1",
					"getgovernanceVersion()": "c387b49c",
					"setPendigPresident(address)": "054203bd",
					"setPendingGovernanceContractAddress(address)": "ca4cce68",
					"setPendingRepublicAddress(address)": "1f72783a",
					"setPresidentBaned(bool)": "b5c09c68",
					"transferGovernanceContractAddress(address)": "ee7126c3",
					"transferPresident()": "0df4c390",
					"transferRepublicAddress(address)": "9c20fe71"
				}
			},
			"storageLayout": {
				"storage": [
					{
						"astId": 65,
						"contract": "contracts/authority.sol:Authority",
						"label": "_pendigRepublicAddress",
						"offset": 0,
						"slot": "0",
						"type": "t_address"
					},
					{
						"astId": 67,
						"contract": "contracts/authority.sol:Authority",
						"label": "_pendingGCAddress",
						"offset": 0,
						"slot": "1",
						"type": "t_address"
					},
					{
						"astId": 69,
						"contract": "contracts/authority.sol:Authority",
						"label": "_pendigPresident",
						"offset": 0,
						"slot": "2",
						"type": "t_address"
					},
					{
						"astId": 73,
						"contract": "contracts/authority.sol:Authority",
						"label": "_delayConfirmRepublicAddress",
						"offset": 20,
						"slot": "2",
						"type": "t_uint48"
					},
					{
						"astId": 83,
						"contract": "contracts/authority.sol:Authority",
						"label": "_president",
						"offset": 0,
						"slot": "3",
						"type": "t_struct(access)80_storage"
					},
					{
						"astId": 86,
						"contract": "contracts/authority.sol:Authority",
						"label": "_governance",
						"offset": 0,
						"slot": "4",
						"type": "t_struct(access)80_storage"
					},
					{
						"astId": 89,
						"contract": "contracts/authority.sol:Authority",
						"label": "_Republic",
						"offset": 0,
						"slot": "5",
						"type": "t_struct(access)80_storage"
					}
				],
				"types": {
					"t_address": {
						"encoding": "inplace",
						"label": "address",
						"numberOfBytes": "20"
					},
					"t_bool": {
						"encoding": "inplace",
						"label": "bool",
						"numberOfBytes": "1"
					},
					"t_struct(access)80_storage": {
						"encoding": "inplace",
						"label": "struct Authority.access",
						"members": [
							{
								"astId": 75,
								"contract": "contracts/authority.sol:Authority",
								"label": "rolAdd",
								"offset": 0,
								"slot": "0",
								"type": "t_address"
							},
							{
								"astId": 77,
								"contract": "contracts/authority.sol:Authority",
								"label": "baned",
								"offset": 20,
								"slot": "0",
								"type": "t_bool"
							},
							{
								"astId": 79,
								"contract": "contracts/authority.sol:Authority",
								"label": "nonce",
								"offset": 21,
								"slot": "0",
								"type": "t_uint32"
							}
						],
						"numberOfBytes": "32"
					},
					"t_uint32": {
						"encoding": "inplace",
						"label": "uint32",
						"numberOfBytes": "4"
					},
					"t_uint48": {
						"encoding": "inplace",
						"label": "uint48",
						"numberOfBytes": "6"
					}
				}
			},
			"userdoc": {
				"kind": "user",
				"methods": {},
				"version": 1
			}
		}
	}
}