{
	"contracts/authority.sol": {
		"Authority": {
			"abi": [
				{
					"inputs": [],
					"stateMutability": "nonpayable",
					"type": "constructor"
				},
				{
					"inputs": [],
					"name": "AccessOnlyForThePendig",
					"type": "error"
				},
				{
					"inputs": [
						{
							"internalType": "uint48",
							"name": "reminingTime",
							"type": "uint48"
						}
					],
					"name": "RemainingTimeUntilTheConfirmationDeadline",
					"type": "error"
				},
				{
					"inputs": [
						{
							"internalType": "address",
							"name": "NewGCAddress",
							"type": "address"
						}
					],
					"name": "TheAddressIsNotValidForGC",
					"type": "error"
				},
				{
					"inputs": [
						{
							"internalType": "address",
							"name": "newRGAddress",
							"type": "address"
						}
					],
					"name": "TheAddressIsNotValidForRAddress",
					"type": "error"
				},
				{
					"anonymous": false,
					"inputs": [
						{
							"indexed": true,
							"internalType": "address",
							"name": "GCAddress",
							"type": "address"
						},
						{
							"indexed": true,
							"internalType": "uint32",
							"name": "version",
							"type": "uint32"
						}
					],
					"name": "TheNewGCAddressWasConfirmed",
					"type": "event"
				},
				{
					"anonymous": false,
					"inputs": [
						{
							"indexed": true,
							"internalType": "address",
							"name": "presidentAdd",
							"type": "address"
						},
						{
							"indexed": true,
							"internalType": "uint32",
							"name": "nonce",
							"type": "uint32"
						}
					],
					"name": "TheNewPresidentWasConfirmed",
					"type": "event"
				},
				{
					"anonymous": false,
					"inputs": [
						{
							"indexed": true,
							"internalType": "address",
							"name": "primeMinisterAdd",
							"type": "address"
						},
						{
							"indexed": true,
							"internalType": "uint32",
							"name": "nonce",
							"type": "uint32"
						}
					],
					"name": "TheNewPrimeMinisterWasConfirmed",
					"type": "event"
				},
				{
					"anonymous": false,
					"inputs": [
						{
							"indexed": true,
							"internalType": "address",
							"name": "RepublicGAddress",
							"type": "address"
						},
						{
							"indexed": true,
							"internalType": "uint32",
							"name": "version",
							"type": "uint32"
						}
					],
					"name": "TheNewRepublicGAddressWasConfirmed",
					"type": "event"
				},
				{
					"anonymous": false,
					"inputs": [
						{
							"indexed": true,
							"internalType": "address",
							"name": "newGCAddress",
							"type": "address"
						}
					],
					"name": "TheNextGCAddressWasElected",
					"type": "event"
				},
				{
					"anonymous": false,
					"inputs": [
						{
							"indexed": true,
							"internalType": "address",
							"name": "newPresidentAdd",
							"type": "address"
						}
					],
					"name": "TheNextPresidentWasElected",
					"type": "event"
				},
				{
					"anonymous": false,
					"inputs": [
						{
							"indexed": true,
							"internalType": "address",
							"name": "newPrimeMinister",
							"type": "address"
						}
					],
					"name": "TheNextPrimeMinisterWasElected",
					"type": "event"
				},
				{
					"anonymous": false,
					"inputs": [
						{
							"indexed": true,
							"internalType": "address",
							"name": "PRGAddress",
							"type": "address"
						}
					],
					"name": "TheNextRepublicGAddressWasCancelled",
					"type": "event"
				},
				{
					"anonymous": false,
					"inputs": [
						{
							"indexed": true,
							"internalType": "address",
							"name": "newRepublicGAddress",
							"type": "address"
						}
					],
					"name": "TheNextRepublicGAddressWasElected",
					"type": "event"
				},
				{
					"anonymous": false,
					"inputs": [
						{
							"indexed": true,
							"internalType": "bool",
							"name": "baned",
							"type": "bool"
						},
						{
							"indexed": true,
							"internalType": "bool",
							"name": "done",
							"type": "bool"
						}
					],
					"name": "TheStatusOfBanningAllActivitiesAndDone",
					"type": "event"
				},
				{
					"inputs": [
						{
							"internalType": "address",
							"name": "PRGAdress",
							"type": "address"
						}
					],
					"name": "cancelPendingRepublicGAddress",
					"outputs": [],
					"stateMutability": "nonpayable",
					"type": "function"
				},
				{
					"inputs": [],
					"name": "getAuthorityAddress",
					"outputs": [
						{
							"internalType": "address",
							"name": "",
							"type": "address"
						}
					],
					"stateMutability": "view",
					"type": "function"
				},
				{
					"inputs": [],
					"name": "getGovernance",
					"outputs": [
						{
							"internalType": "address",
							"name": "",
							"type": "address"
						}
					],
					"stateMutability": "view",
					"type": "function"
				},
				{
					"inputs": [],
					"name": "getPresidentAdd",
					"outputs": [
						{
							"internalType": "address",
							"name": "",
							"type": "address"
						}
					],
					"stateMutability": "view",
					"type": "function"
				},
				{
					"inputs": [],
					"name": "getPresidentBan",
					"outputs": [
						{
							"internalType": "bool",
							"name": "",
							"type": "bool"
						}
					],
					"stateMutability": "view",
					"type": "function"
				},
				{
					"inputs": [],
					"name": "getPrimeMinisterAdd",
					"outputs": [
						{
							"internalType": "address",
							"name": "",
							"type": "address"
						}
					],
					"stateMutability": "view",
					"type": "function"
				},
				{
					"inputs": [],
					"name": "getPrimeMinisterBan",
					"outputs": [
						{
							"internalType": "bool",
							"name": "",
							"type": "bool"
						}
					],
					"stateMutability": "view",
					"type": "function"
				},
				{
					"inputs": [],
					"name": "getRepublicAddress",
					"outputs": [
						{
							"internalType": "address",
							"name": "R",
							"type": "address"
						}
					],
					"stateMutability": "view",
					"type": "function"
				},
				{
					"inputs": [],
					"name": "getRepublicGAddress",
					"outputs": [
						{
							"internalType": "address",
							"name": "RG",
							"type": "address"
						}
					],
					"stateMutability": "view",
					"type": "function"
				},
				{
					"inputs": [],
					"name": "getgovernanceVersion",
					"outputs": [
						{
							"internalType": "uint32",
							"name": "",
							"type": "uint32"
						}
					],
					"stateMutability": "view",
					"type": "function"
				},
				{
					"inputs": [
						{
							"internalType": "address",
							"name": "newPresident",
							"type": "address"
						}
					],
					"name": "setPendigPresident",
					"outputs": [],
					"stateMutability": "nonpayable",
					"type": "function"
				},
				{
					"inputs": [
						{
							"internalType": "address",
							"name": "newGCAddress",
							"type": "address"
						}
					],
					"name": "setPendingGovernanceContractAddress",
					"outputs": [],
					"stateMutability": "nonpayable",
					"type": "function"
				},
				{
					"inputs": [
						{
							"internalType": "address",
							"name": "newPM",
							"type": "address"
						}
					],
					"name": "setPendingPrimeMinister",
					"outputs": [],
					"stateMutability": "nonpayable",
					"type": "function"
				},
				{
					"inputs": [
						{
							"internalType": "address",
							"name": "newRGAddress",
							"type": "address"
						}
					],
					"name": "setPendingRepublicGAddress",
					"outputs": [],
					"stateMutability": "nonpayable",
					"type": "function"
				},
				{
					"inputs": [
						{
							"internalType": "bool",
							"name": "baned",
							"type": "bool"
						}
					],
					"name": "setPresidentBaned",
					"outputs": [],
					"stateMutability": "nonpayable",
					"type": "function"
				},
				{
					"inputs": [
						{
							"internalType": "bool",
							"name": "baned",
							"type": "bool"
						}
					],
					"name": "setPrimeMinisterBaned",
					"outputs": [],
					"stateMutability": "nonpayable",
					"type": "function"
				},
				{
					"inputs": [
						{
							"internalType": "address",
							"name": "pendingGCAdd",
							"type": "address"
						}
					],
					"name": "transferGovernanceContractAddress",
					"outputs": [],
					"stateMutability": "nonpayable",
					"type": "function"
				},
				{
					"inputs": [],
					"name": "transferPresident",
					"outputs": [],
					"stateMutability": "nonpayable",
					"type": "function"
				},
				{
					"inputs": [],
					"name": "transferPrimeMinister",
					"outputs": [],
					"stateMutability": "nonpayable",
					"type": "function"
				},
				{
					"inputs": [
						{
							"internalType": "address",
							"name": "RGAddress",
							"type": "address"
						}
					],
					"name": "transferRepublicGAddress",
					"outputs": [],
					"stateMutability": "nonpayable",
					"type": "function"
				}
			],
			"devdoc": {
				"kind": "dev",
				"methods": {},
				"version": 1
			},
			"evm": {
				"assembly": "    /* \"contracts/authority.sol\":464:9173  contract Authority {... */\n  mstore(0x40, 0xc0)\n    /* \"contracts/authority.sol\":1803:1804  0 */\n  0x00\n    /* \"contracts/authority.sol\":1766:1805  address immutable Republic = address(0) */\n  0xffffffffffffffffffffffffffffffffffffffff\n  and\n  0x80\n  swap1\n  0xffffffffffffffffffffffffffffffffffffffff\n  and\n  dup2\n  mstore\n  pop\n    /* \"contracts/authority.sol\":3195:3354  constructor() {... */\n  callvalue\n  dup1\n  iszero\n  tag_1\n  jumpi\n  0x00\n  dup1\n  revert\ntag_1:\n  pop\n    /* \"contracts/authority.sol\":3265:3274  4383 days */\n  0x16925e80\n    /* \"contracts/authority.sol\":3247:3262  block.timestamp */\n  timestamp\n    /* \"contracts/authority.sol\":3247:3274  block.timestamp + 4383 days */\n  tag_4\n  swap2\n  swap1\n  tag_5\n  jump\t// in\ntag_4:\n    /* \"contracts/authority.sol\":3220:3275  TimeFirstElection = uint48(block.timestamp + 4383 days) */\n  0xffffffffffff\n  and\n  0xa0\n  dup2\n  0xffffffffffff\n  and\n  dup2\n  mstore\n  pop\n  pop\n    /* \"contracts/authority.sol\":3307:3317  msg.sender */\n  caller\n    /* \"contracts/authority.sol\":3286:3296  _president */\n  0x04\n    /* \"contracts/authority.sol\":3286:3304  _president.roleAdd */\n  0x00\n  add\n  0x00\n    /* \"contracts/authority.sol\":3286:3317  _president.roleAdd = msg.sender */\n  0x0100\n  exp\n  dup2\n  sload\n  dup2\n  0xffffffffffffffffffffffffffffffffffffffff\n  mul\n  not\n  and\n  swap1\n  dup4\n  0xffffffffffffffffffffffffffffffffffffffff\n  and\n  mul\n  or\n  swap1\n  sstore\n  pop\n    /* \"contracts/authority.sol\":3328:3338  _president */\n  0x04\n    /* \"contracts/authority.sol\":3328:3344  _president.nonce */\n  0x00\n  add\n  0x15\n    /* \"contracts/authority.sol\":3328:3346  _president.nonce++ */\n  dup2\n  dup2\n  swap1\n  sload\n  swap1\n  0x0100\n  exp\n  swap1\n  div\n  0xffffffff\n  and\n  dup1\n  swap3\n  swap2\n  swap1\n  tag_6\n  swap1\n  tag_7\n  jump\t// in\ntag_6:\n  swap2\n  swap1\n  0x0100\n  exp\n  dup2\n  sload\n  dup2\n  0xffffffff\n  mul\n  not\n  and\n  swap1\n  dup4\n  0xffffffff\n  and\n  mul\n  or\n  swap1\n  sstore\n  pop\n  pop\n    /* \"contracts/authority.sol\":464:9173  contract Authority {... */\n  jump(tag_8)\n    /* \"#utility.yul\":7:84   */\ntag_9:\n    /* \"#utility.yul\":44:51   */\n  0x00\n    /* \"#utility.yul\":73:78   */\n  dup2\n    /* \"#utility.yul\":62:78   */\n  swap1\n  pop\n    /* \"#utility.yul\":7:84   */\n  swap2\n  swap1\n  pop\n  jump\t// out\n    /* \"#utility.yul\":90:270   */\ntag_10:\n    /* \"#utility.yul\":138:215   */\n  0x4e487b7100000000000000000000000000000000000000000000000000000000\n    /* \"#utility.yul\":135:136   */\n  0x00\n    /* \"#utility.yul\":128:216   */\n  mstore\n    /* \"#utility.yul\":235:239   */\n  0x11\n    /* \"#utility.yul\":232:233   */\n  0x04\n    /* \"#utility.yul\":225:240   */\n  mstore\n    /* \"#utility.yul\":259:263   */\n  0x24\n    /* \"#utility.yul\":256:257   */\n  0x00\n    /* \"#utility.yul\":249:264   */\n  revert\n    /* \"#utility.yul\":276:467   */\ntag_5:\n    /* \"#utility.yul\":316:319   */\n  0x00\n    /* \"#utility.yul\":335:355   */\n  tag_16\n    /* \"#utility.yul\":353:354   */\n  dup3\n    /* \"#utility.yul\":335:355   */\n  tag_9\n  jump\t// in\ntag_16:\n    /* \"#utility.yul\":330:355   */\n  swap2\n  pop\n    /* \"#utility.yul\":369:389   */\n  tag_17\n    /* \"#utility.yul\":387:388   */\n  dup4\n    /* \"#utility.yul\":369:389   */\n  tag_9\n  jump\t// in\ntag_17:\n    /* \"#utility.yul\":364:389   */\n  swap3\n  pop\n    /* \"#utility.yul\":412:413   */\n  dup3\n    /* \"#utility.yul\":409:410   */\n  dup3\n    /* \"#utility.yul\":405:414   */\n  add\n    /* \"#utility.yul\":398:414   */\n  swap1\n  pop\n    /* \"#utility.yul\":433:436   */\n  dup1\n    /* \"#utility.yul\":430:431   */\n  dup3\n    /* \"#utility.yul\":427:437   */\n  gt\n    /* \"#utility.yul\":424:460   */\n  iszero\n  tag_18\n  jumpi\n    /* \"#utility.yul\":440:458   */\n  tag_19\n  tag_10\n  jump\t// in\ntag_19:\n    /* \"#utility.yul\":424:460   */\ntag_18:\n    /* \"#utility.yul\":276:467   */\n  swap3\n  swap2\n  pop\n  pop\n  jump\t// out\n    /* \"#utility.yul\":473:566   */\ntag_11:\n    /* \"#utility.yul\":509:516   */\n  0x00\n    /* \"#utility.yul\":549:559   */\n  0xffffffff\n    /* \"#utility.yul\":542:547   */\n  dup3\n    /* \"#utility.yul\":538:560   */\n  and\n    /* \"#utility.yul\":527:560   */\n  swap1\n  pop\n    /* \"#utility.yul\":473:566   */\n  swap2\n  swap1\n  pop\n  jump\t// out\n    /* \"#utility.yul\":572:747   */\ntag_7:\n    /* \"#utility.yul\":610:613   */\n  0x00\n    /* \"#utility.yul\":633:656   */\n  tag_22\n    /* \"#utility.yul\":650:655   */\n  dup3\n    /* \"#utility.yul\":633:656   */\n  tag_11\n  jump\t// in\ntag_22:\n    /* \"#utility.yul\":624:656   */\n  swap2\n  pop\n    /* \"#utility.yul\":678:688   */\n  0xffffffff\n    /* \"#utility.yul\":671:676   */\n  dup3\n    /* \"#utility.yul\":668:689   */\n  sub\n    /* \"#utility.yul\":665:712   */\n  tag_23\n  jumpi\n    /* \"#utility.yul\":692:710   */\n  tag_24\n  tag_10\n  jump\t// in\ntag_24:\n    /* \"#utility.yul\":665:712   */\ntag_23:\n    /* \"#utility.yul\":739:740   */\n  0x01\n    /* \"#utility.yul\":732:737   */\n  dup3\n    /* \"#utility.yul\":728:741   */\n  add\n    /* \"#utility.yul\":721:741   */\n  swap1\n  pop\n    /* \"#utility.yul\":572:747   */\n  swap2\n  swap1\n  pop\n  jump\t// out\n    /* \"contracts/authority.sol\":464:9173  contract Authority {... */\ntag_8:\n  mload(0x80)\n  mload(0xa0)\n  codecopy(0x00, dataOffset(sub_0), dataSize(sub_0))\n  0x00\n  assignImmutable(\"0x7d4579ab3c781860520f730aa471b37a7366c1c6efb6e34470da23130f5149f7\")\n  0x00\n  assignImmutable(\"0x5d519e8ccff65fbf7a596d649336943263020a2cedd697418c72b82d84123abe\")\n  return(0x00, dataSize(sub_0))\nstop\n\nsub_0: assembly {\n        /* \"contracts/authority.sol\":464:9173  contract Authority {... */\n      mstore(0x40, 0x80)\n      callvalue\n      dup1\n      iszero\n      tag_1\n      jumpi\n      0x00\n      dup1\n      revert\n    tag_1:\n      pop\n      jumpi(tag_2, lt(calldatasize, 0x04))\n      shr(0xe0, calldataload(0x00))\n      dup1\n      0x861a179d\n      gt\n      tag_23\n      jumpi\n      dup1\n      0xca4cce68\n      gt\n      tag_24\n      jumpi\n      dup1\n      0xca4cce68\n      eq\n      tag_18\n      jumpi\n      dup1\n      0xe47a9d46\n      eq\n      tag_19\n      jumpi\n      dup1\n      0xe4f3e947\n      eq\n      tag_20\n      jumpi\n      dup1\n      0xee7126c3\n      eq\n      tag_21\n      jumpi\n      dup1\n      0xf5f9cdd4\n      eq\n      tag_22\n      jumpi\n      jump(tag_2)\n    tag_24:\n      dup1\n      0x861a179d\n      eq\n      tag_13\n      jumpi\n      dup1\n      0xa53da00b\n      eq\n      tag_14\n      jumpi\n      dup1\n      0xb5c09c68\n      eq\n      tag_15\n      jumpi\n      dup1\n      0xc387b49c\n      eq\n      tag_16\n      jumpi\n      dup1\n      0xc5a1c5c1\n      eq\n      tag_17\n      jumpi\n      jump(tag_2)\n    tag_23:\n      dup1\n      0x37676f79\n      gt\n      tag_25\n      jumpi\n      dup1\n      0x37676f79\n      eq\n      tag_8\n      jumpi\n      dup1\n      0x4494acd9\n      eq\n      tag_9\n      jumpi\n      dup1\n      0x544fa93e\n      eq\n      tag_10\n      jumpi\n      dup1\n      0x66410997\n      eq\n      tag_11\n      jumpi\n      dup1\n      0x6cf106d7\n      eq\n      tag_12\n      jumpi\n      jump(tag_2)\n    tag_25:\n      dup1\n      0x054203bd\n      eq\n      tag_3\n      jumpi\n      dup1\n      0x0df4c390\n      eq\n      tag_4\n      jumpi\n      dup1\n      0x18074eee\n      eq\n      tag_5\n      jumpi\n      dup1\n      0x1f86aa2a\n      eq\n      tag_6\n      jumpi\n      dup1\n      0x289b3c0d\n      eq\n      tag_7\n      jumpi\n    tag_2:\n      0x00\n      dup1\n      revert\n        /* \"contracts/authority.sol\":5335:5587  function setPendigPresident(address newPresident) public onlyRepublic {... */\n    tag_3:\n      tag_26\n      0x04\n      dup1\n      calldatasize\n      sub\n      dup2\n      add\n      swap1\n      tag_27\n      swap2\n      swap1\n      tag_28\n      jump\t// in\n    tag_27:\n      tag_29\n      jump\t// in\n    tag_26:\n      stop\n        /* \"contracts/authority.sol\":5595:5981  function transferPresident() public {... */\n    tag_4:\n      tag_30\n      tag_31\n      jump\t// in\n    tag_30:\n      stop\n        /* \"contracts/authority.sol\":6382:7053  function transferPrimeMinister() public {... */\n    tag_5:\n      tag_32\n      tag_33\n      jump\t// in\n    tag_32:\n      stop\n        /* \"contracts/authority.sol\":3937:4579  function transferRepublicGAddress(address RGAddress) public onlyRepublic {... */\n    tag_6:\n      tag_34\n      0x04\n      dup1\n      calldatasize\n      sub\n      dup2\n      add\n      swap1\n      tag_35\n      swap2\n      swap1\n      tag_28\n      jump\t// in\n    tag_35:\n      tag_36\n      jump\t// in\n    tag_34:\n      stop\n        /* \"contracts/authority.sol\":8042:8142  function getGovernance() public view returns (address) {... */\n    tag_7:\n      tag_37\n      tag_38\n      jump\t// in\n    tag_37:\n      mload(0x40)\n      tag_39\n      swap2\n      swap1\n      tag_40\n      jump\t// in\n    tag_39:\n      mload(0x40)\n      dup1\n      swap2\n      sub\n      swap1\n      return\n        /* \"contracts/authority.sol\":5090:5206  function getRepublicGAddress() public view returns (address RG) {... */\n    tag_8:\n      tag_41\n      tag_42\n      jump\t// in\n    tag_41:\n      mload(0x40)\n      tag_43\n      swap2\n      swap1\n      tag_40\n      jump\t// in\n    tag_43:\n      mload(0x40)\n      dup1\n      swap2\n      sub\n      swap1\n      return\n        /* \"contracts/authority.sol\":4587:4970  function cancelPendingRepublicGAddress(address PRGAdress) public onlyRepublic {... */\n    tag_9:\n      tag_44\n      0x04\n      dup1\n      calldatasize\n      sub\n      dup2\n      add\n      swap1\n      tag_45\n      swap2\n      swap1\n      tag_28\n      jump\t// in\n    tag_45:\n      tag_46\n      jump\t// in\n    tag_44:\n      stop\n        /* \"contracts/authority.sol\":6202:6374  function setPendingPrimeMinister(address newPM) public onlyPresident {... */\n    tag_10:\n      tag_47\n      0x04\n      dup1\n      calldatasize\n      sub\n      dup2\n      add\n      swap1\n      tag_48\n      swap2\n      swap1\n      tag_28\n      jump\t// in\n    tag_48:\n      tag_49\n      jump\t// in\n    tag_47:\n      stop\n        /* \"contracts/authority.sol\":5989:6090  function getPresidentAdd() public view returns (address) {... */\n    tag_11:\n      tag_50\n      tag_51\n      jump\t// in\n    tag_50:\n      mload(0x40)\n      tag_52\n      swap2\n      swap1\n      tag_40\n      jump\t// in\n    tag_52:\n      mload(0x40)\n      dup1\n      swap2\n      sub\n      swap1\n      return\n        /* \"contracts/authority.sol\":6098:6194  function getPresidentBan() public view returns (bool) {... */\n    tag_12:\n      tag_53\n      tag_54\n      jump\t// in\n    tag_53:\n      mload(0x40)\n      tag_55\n      swap2\n      swap1\n      tag_56\n      jump\t// in\n    tag_55:\n      mload(0x40)\n      dup1\n      swap2\n      sub\n      swap1\n      return\n        /* \"contracts/authority.sol\":3362:3929  function setPendingRepublicGAddress(address newRGAddress) public onlyRepublic {... */\n    tag_13:\n      tag_57\n      0x04\n      dup1\n      calldatasize\n      sub\n      dup2\n      add\n      swap1\n      tag_58\n      swap2\n      swap1\n      tag_28\n      jump\t// in\n    tag_58:\n      tag_59\n      jump\t// in\n    tag_57:\n      stop\n        /* \"contracts/authority.sol\":7061:7170  function getPrimeMinisterAdd() public view returns (address) {... */\n    tag_14:\n      tag_60\n      tag_61\n      jump\t// in\n    tag_60:\n      mload(0x40)\n      tag_62\n      swap2\n      swap1\n      tag_40\n      jump\t// in\n    tag_62:\n      mload(0x40)\n      dup1\n      swap2\n      sub\n      swap1\n      return\n        /* \"contracts/authority.sol\":8262:8405  function setPresidentBaned(bool baned) public onlyRepublic {... */\n    tag_15:\n      tag_63\n      0x04\n      dup1\n      calldatasize\n      sub\n      dup2\n      add\n      swap1\n      tag_64\n      swap2\n      swap1\n      tag_65\n      jump\t// in\n    tag_64:\n      tag_66\n      jump\t// in\n    tag_63:\n      stop\n        /* \"contracts/authority.sol\":8150:8254  function getgovernanceVersion() public view returns (uint32) {... */\n    tag_16:\n      tag_67\n      tag_68\n      jump\t// in\n    tag_67:\n      mload(0x40)\n      tag_69\n      swap2\n      swap1\n      tag_70\n      jump\t// in\n    tag_69:\n      mload(0x40)\n      dup1\n      swap2\n      sub\n      swap1\n      return\n        /* \"contracts/authority.sol\":4978:5082  function getRepublicAddress() public view returns (address R) {... */\n    tag_17:\n      tag_71\n      tag_72\n      jump\t// in\n    tag_71:\n      mload(0x40)\n      tag_73\n      swap2\n      swap1\n      tag_40\n      jump\t// in\n    tag_73:\n      mload(0x40)\n      dup1\n      swap2\n      sub\n      swap1\n      return\n        /* \"contracts/authority.sol\":7292:7607  function setPendingGovernanceContractAddress(address newGCAddress) public onlyRepublic {... */\n    tag_18:\n      tag_74\n      0x04\n      dup1\n      calldatasize\n      sub\n      dup2\n      add\n      swap1\n      tag_75\n      swap2\n      swap1\n      tag_28\n      jump\t// in\n    tag_75:\n      tag_76\n      jump\t// in\n    tag_74:\n      stop\n        /* \"contracts/authority.sol\":5218:5327  function getAuthorityAddress() public view returns (address) {... */\n    tag_19:\n      tag_77\n      tag_78\n      jump\t// in\n    tag_77:\n      mload(0x40)\n      tag_79\n      swap2\n      swap1\n      tag_40\n      jump\t// in\n    tag_79:\n      mload(0x40)\n      dup1\n      swap2\n      sub\n      swap1\n      return\n        /* \"contracts/authority.sol\":7178:7282  function getPrimeMinisterBan() public view returns (bool) {... */\n    tag_20:\n      tag_80\n      tag_81\n      jump\t// in\n    tag_80:\n      mload(0x40)\n      tag_82\n      swap2\n      swap1\n      tag_56\n      jump\t// in\n    tag_82:\n      mload(0x40)\n      dup1\n      swap2\n      sub\n      swap1\n      return\n        /* \"contracts/authority.sol\":7615:8034  function transferGovernanceContractAddress(address pendingGCAdd) public onlyPresident {... */\n    tag_21:\n      tag_83\n      0x04\n      dup1\n      calldatasize\n      sub\n      dup2\n      add\n      swap1\n      tag_84\n      swap2\n      swap1\n      tag_28\n      jump\t// in\n    tag_84:\n      tag_85\n      jump\t// in\n    tag_83:\n      stop\n        /* \"contracts/authority.sol\":8413:8525  function setPrimeMinisterBaned(bool baned) public onlyPresident {... */\n    tag_22:\n      tag_86\n      0x04\n      dup1\n      calldatasize\n      sub\n      dup2\n      add\n      swap1\n      tag_87\n      swap2\n      swap1\n      tag_65\n      jump\t// in\n    tag_87:\n      tag_88\n      jump\t// in\n    tag_86:\n      stop\n        /* \"contracts/authority.sol\":5335:5587  function setPendigPresident(address newPresident) public onlyRepublic {... */\n    tag_29:\n        /* \"contracts/authority.sol\":2314:2329  block.timestamp */\n      timestamp\n        /* \"contracts/authority.sol\":2294:2311  TimeFirstElection */\n      immutable(\"0x7d4579ab3c781860520f730aa471b37a7366c1c6efb6e34470da23130f5149f7\")\n        /* \"contracts/authority.sol\":2294:2329  TimeFirstElection < block.timestamp */\n      0xffffffffffff\n      and\n      lt\n        /* \"contracts/authority.sol\":2290:2517  if (TimeFirstElection < block.timestamp) {... */\n      iszero\n      tag_90\n      jumpi\n        /* \"contracts/authority.sol\":2368:2388  getRepublicAddress() */\n      tag_91\n        /* \"contracts/authority.sol\":2368:2386  getRepublicAddress */\n      tag_72\n        /* \"contracts/authority.sol\":2368:2388  getRepublicAddress() */\n      jump\t// in\n    tag_91:\n        /* \"contracts/authority.sol\":2354:2388  msg.sender == getRepublicAddress() */\n      0xffffffffffffffffffffffffffffffffffffffff\n      and\n        /* \"contracts/authority.sol\":2354:2364  msg.sender */\n      caller\n        /* \"contracts/authority.sol\":2354:2388  msg.sender == getRepublicAddress() */\n      0xffffffffffffffffffffffffffffffffffffffff\n      and\n      eq\n        /* \"contracts/authority.sol\":2346:2412  require(msg.sender == getRepublicAddress(), \"Access is not valid\") */\n      tag_92\n      jumpi\n      mload(0x40)\n      0x08c379a000000000000000000000000000000000000000000000000000000000\n      dup2\n      mstore\n      0x04\n      add\n      tag_93\n      swap1\n      tag_94\n      jump\t// in\n    tag_93:\n      mload(0x40)\n      dup1\n      swap2\n      sub\n      swap1\n      revert\n    tag_92:\n        /* \"contracts/authority.sol\":2290:2517  if (TimeFirstElection < block.timestamp) {... */\n      jump(tag_95)\n    tag_90:\n        /* \"contracts/authority.sol\":2454:2471  getPresidentAdd() */\n      tag_96\n        /* \"contracts/authority.sol\":2454:2469  getPresidentAdd */\n      tag_51\n        /* \"contracts/authority.sol\":2454:2471  getPresidentAdd() */\n      jump\t// in\n    tag_96:\n        /* \"contracts/authority.sol\":2440:2471  msg.sender == getPresidentAdd() */\n      0xffffffffffffffffffffffffffffffffffffffff\n      and\n        /* \"contracts/authority.sol\":2440:2450  msg.sender */\n      caller\n        /* \"contracts/authority.sol\":2440:2471  msg.sender == getPresidentAdd() */\n      0xffffffffffffffffffffffffffffffffffffffff\n      and\n      eq\n        /* \"contracts/authority.sol\":2440:2493  msg.sender == getPresidentAdd() && !getPresidentBan() */\n      dup1\n      iszero\n      tag_97\n      jumpi\n      pop\n        /* \"contracts/authority.sol\":2476:2493  getPresidentBan() */\n      tag_98\n        /* \"contracts/authority.sol\":2476:2491  getPresidentBan */\n      tag_54\n        /* \"contracts/authority.sol\":2476:2493  getPresidentBan() */\n      jump\t// in\n    tag_98:\n        /* \"contracts/authority.sol\":2475:2493  !getPresidentBan() */\n      iszero\n        /* \"contracts/authority.sol\":2440:2493  msg.sender == getPresidentAdd() && !getPresidentBan() */\n    tag_97:\n        /* \"contracts/authority.sol\":2432:2517  require(msg.sender == getPresidentAdd() && !getPresidentBan(), \"Access is not valid\") */\n      tag_99\n      jumpi\n      mload(0x40)\n      0x08c379a000000000000000000000000000000000000000000000000000000000\n      dup2\n      mstore\n      0x04\n      add\n      tag_100\n      swap1\n      tag_94\n      jump\t// in\n    tag_100:\n      mload(0x40)\n      dup1\n      swap2\n      sub\n      swap1\n      revert\n    tag_99:\n        /* \"contracts/authority.sol\":2290:2517  if (TimeFirstElection < block.timestamp) {... */\n    tag_95:\n        /* \"contracts/authority.sol\":5435:5447  newPresident */\n      dup1\n        /* \"contracts/authority.sol\":5416:5432  _pendigPresident */\n      0x02\n      0x00\n        /* \"contracts/authority.sol\":5416:5447  _pendigPresident = newPresident */\n      0x0100\n      exp\n      dup2\n      sload\n      dup2\n      0xffffffffffffffffffffffffffffffffffffffff\n      mul\n      not\n      and\n      swap1\n      dup4\n      0xffffffffffffffffffffffffffffffffffffffff\n      and\n      mul\n      or\n      swap1\n      sstore\n      pop\n        /* \"contracts/authority.sol\":5458:5482  _setPresidentBaned(true) */\n      tag_102\n        /* \"contracts/authority.sol\":5477:5481  true */\n      0x01\n        /* \"contracts/authority.sol\":5458:5476  _setPresidentBaned */\n      tag_103\n        /* \"contracts/authority.sol\":5458:5482  _setPresidentBaned(true) */\n      jump\t// in\n    tag_102:\n        /* \"contracts/authority.sol\":5493:5521  _setPrimeMinisterBaned(true) */\n      tag_104\n        /* \"contracts/authority.sol\":5516:5520  true */\n      0x01\n        /* \"contracts/authority.sol\":5493:5515  _setPrimeMinisterBaned */\n      tag_105\n        /* \"contracts/authority.sol\":5493:5521  _setPrimeMinisterBaned(true) */\n      jump\t// in\n    tag_104:\n        /* \"contracts/authority.sol\":5566:5578  newPresident */\n      dup1\n        /* \"contracts/authority.sol\":5539:5579  TheNextPresidentWasElected(newPresident) */\n      0xffffffffffffffffffffffffffffffffffffffff\n      and\n      0x3553f1f7ef0242113266a8d183b621bb87468c99237f36b1150b6ab3d688b686\n      mload(0x40)\n      mload(0x40)\n      dup1\n      swap2\n      sub\n      swap1\n      log2\n        /* \"contracts/authority.sol\":5335:5587  function setPendigPresident(address newPresident) public onlyRepublic {... */\n      pop\n      jump\t// out\n        /* \"contracts/authority.sol\":5595:5981  function transferPresident() public {... */\n    tag_31:\n        /* \"contracts/authority.sol\":5666:5676  msg.sender */\n      caller\n        /* \"contracts/authority.sol\":5646:5676  _pendigPresident == msg.sender */\n      0xffffffffffffffffffffffffffffffffffffffff\n      and\n        /* \"contracts/authority.sol\":5646:5662  _pendigPresident */\n      0x02\n      0x00\n      swap1\n      sload\n      swap1\n      0x0100\n      exp\n      swap1\n      div\n      0xffffffffffffffffffffffffffffffffffffffff\n      and\n        /* \"contracts/authority.sol\":5646:5676  _pendigPresident == msg.sender */\n      0xffffffffffffffffffffffffffffffffffffffff\n      and\n      sub\n        /* \"contracts/authority.sol\":5642:5973  if (_pendigPresident == msg.sender) {... */\n      tag_107\n      jumpi\n        /* \"contracts/authority.sol\":5700:5716  _pendigPresident */\n      0x02\n      0x00\n        /* \"contracts/authority.sol\":5693:5716  delete _pendigPresident */\n      0x0100\n      exp\n      dup2\n      sload\n      swap1\n      0xffffffffffffffffffffffffffffffffffffffff\n      mul\n      not\n      and\n      swap1\n      sstore\n        /* \"contracts/authority.sol\":5752:5762  msg.sender */\n      caller\n        /* \"contracts/authority.sol\":5731:5741  _president */\n      0x04\n        /* \"contracts/authority.sol\":5731:5749  _president.roleAdd */\n      0x00\n      add\n      0x00\n        /* \"contracts/authority.sol\":5731:5762  _president.roleAdd = msg.sender */\n      0x0100\n      exp\n      dup2\n      sload\n      dup2\n      0xffffffffffffffffffffffffffffffffffffffff\n      mul\n      not\n      and\n      swap1\n      dup4\n      0xffffffffffffffffffffffffffffffffffffffff\n      and\n      mul\n      or\n      swap1\n      sstore\n      pop\n        /* \"contracts/authority.sol\":5777:5787  _president */\n      0x04\n        /* \"contracts/authority.sol\":5777:5793  _president.nonce */\n      0x00\n      add\n      0x15\n        /* \"contracts/authority.sol\":5777:5795  _president.nonce++ */\n      dup2\n      dup2\n      swap1\n      sload\n      swap1\n      0x0100\n      exp\n      swap1\n      div\n      0xffffffff\n      and\n      dup1\n      swap3\n      swap2\n      swap1\n      tag_108\n      swap1\n      tag_109\n      jump\t// in\n    tag_108:\n      swap2\n      swap1\n      0x0100\n      exp\n      dup2\n      sload\n      dup2\n      0xffffffff\n      mul\n      not\n      and\n      swap1\n      dup4\n      0xffffffff\n      and\n      mul\n      or\n      swap1\n      sstore\n      pop\n      pop\n        /* \"contracts/authority.sol\":5810:5835  _setPresidentBaned(false) */\n      tag_110\n        /* \"contracts/authority.sol\":5829:5834  false */\n      0x00\n        /* \"contracts/authority.sol\":5810:5828  _setPresidentBaned */\n      tag_103\n        /* \"contracts/authority.sol\":5810:5835  _setPresidentBaned(false) */\n      jump\t// in\n    tag_110:\n        /* \"contracts/authority.sol\":5905:5915  _president */\n      0x04\n        /* \"contracts/authority.sol\":5905:5921  _president.nonce */\n      0x00\n      add\n      0x15\n      swap1\n      sload\n      swap1\n      0x0100\n      exp\n      swap1\n      div\n      0xffffffff\n      and\n        /* \"contracts/authority.sol\":5857:5922  TheNewPresidentWasConfirmed(_president.roleAdd, _president.nonce) */\n      0xffffffff\n      and\n        /* \"contracts/authority.sol\":5885:5895  _president */\n      0x04\n        /* \"contracts/authority.sol\":5885:5903  _president.roleAdd */\n      0x00\n      add\n      0x00\n      swap1\n      sload\n      swap1\n      0x0100\n      exp\n      swap1\n      div\n      0xffffffffffffffffffffffffffffffffffffffff\n      and\n        /* \"contracts/authority.sol\":5857:5922  TheNewPresidentWasConfirmed(_president.roleAdd, _president.nonce) */\n      0xffffffffffffffffffffffffffffffffffffffff\n      and\n      0x05ad9b3688012cd825c1bfb941e4f5afb2558af6af3deaddf01dbb5e85abdaf9\n      mload(0x40)\n      mload(0x40)\n      dup1\n      swap2\n      sub\n      swap1\n      log3\n        /* \"contracts/authority.sol\":5642:5973  if (_pendigPresident == msg.sender) {... */\n      jump(tag_111)\n    tag_107:\n        /* \"contracts/authority.sol\":5949:5973  AccessOnlyForThePendig() */\n      mload(0x40)\n      0x6c4360f000000000000000000000000000000000000000000000000000000000\n      dup2\n      mstore\n      0x04\n      add\n      mload(0x40)\n      dup1\n      swap2\n      sub\n      swap1\n      revert\n        /* \"contracts/authority.sol\":5642:5973  if (_pendigPresident == msg.sender) {... */\n    tag_111:\n        /* \"contracts/authority.sol\":5595:5981  function transferPresident() public {... */\n      jump\t// out\n        /* \"contracts/authority.sol\":6382:7053  function transferPrimeMinister() public {... */\n    tag_33:\n        /* \"contracts/authority.sol\":6462:6472  msg.sender */\n      caller\n        /* \"contracts/authority.sol\":6437:6472  _pendingPrimeMinister == msg.sender */\n      0xffffffffffffffffffffffffffffffffffffffff\n      and\n        /* \"contracts/authority.sol\":6437:6458  _pendingPrimeMinister */\n      0x03\n      0x00\n      swap1\n      sload\n      swap1\n      0x0100\n      exp\n      swap1\n      div\n      0xffffffffffffffffffffffffffffffffffffffff\n      and\n        /* \"contracts/authority.sol\":6437:6472  _pendingPrimeMinister == msg.sender */\n      0xffffffffffffffffffffffffffffffffffffffff\n      and\n      sub\n        /* \"contracts/authority.sol\":6433:7045  if (_pendingPrimeMinister == msg.sender) {... */\n      tag_113\n      jumpi\n        /* \"contracts/authority.sol\":6496:6517  _pendingPrimeMinister */\n      0x03\n      0x00\n        /* \"contracts/authority.sol\":6489:6517  delete _pendingPrimeMinister */\n      0x0100\n      exp\n      dup2\n      sload\n      swap1\n      0xffffffffffffffffffffffffffffffffffffffff\n      mul\n      not\n      and\n      swap1\n      sstore\n        /* \"contracts/authority.sol\":6567:6568  0 */\n      0x00\n        /* \"contracts/authority.sol\":6536:6569  _governance.roleAdd != address(0) */\n      0xffffffffffffffffffffffffffffffffffffffff\n      and\n        /* \"contracts/authority.sol\":6536:6547  _governance */\n      0x06\n        /* \"contracts/authority.sol\":6536:6555  _governance.roleAdd */\n      0x00\n      add\n      0x00\n      swap1\n      sload\n      swap1\n      0x0100\n      exp\n      swap1\n      div\n      0xffffffffffffffffffffffffffffffffffffffff\n      and\n        /* \"contracts/authority.sol\":6536:6569  _governance.roleAdd != address(0) */\n      0xffffffffffffffffffffffffffffffffffffffff\n      and\n      eq\n        /* \"contracts/authority.sol\":6532:6708  if (_governance.roleAdd != address(0)) {... */\n      tag_114\n      jumpi\n        /* \"contracts/authority.sol\":6602:6613  _governance */\n      0x06\n        /* \"contracts/authority.sol\":6602:6621  _governance.roleAdd */\n      0x00\n      add\n      0x00\n      swap1\n      sload\n      swap1\n      0x0100\n      exp\n      swap1\n      div\n      0xffffffffffffffffffffffffffffffffffffffff\n      and\n        /* \"contracts/authority.sol\":6586:6632  Igovernance_set(_governance.roleAdd).setCaller */\n      0xffffffffffffffffffffffffffffffffffffffff\n      and\n      0xc92a788c\n        /* \"contracts/authority.sol\":6633:6637  true */\n      0x01\n        /* \"contracts/authority.sol\":6639:6653  _primeMinister */\n      0x05\n        /* \"contracts/authority.sol\":6639:6661  _primeMinister.roleAdd */\n      0x00\n      add\n      0x00\n      swap1\n      sload\n      swap1\n      0x0100\n      exp\n      swap1\n      div\n      0xffffffffffffffffffffffffffffffffffffffff\n      and\n        /* \"contracts/authority.sol\":6663:6673  msg.sender */\n      caller\n        /* \"contracts/authority.sol\":6682:6683  4 */\n      0x04\n        /* \"contracts/authority.sol\":6685:6691  1 days */\n      0x015180\n        /* \"contracts/authority.sol\":6586:6692  Igovernance_set(_governance.roleAdd).setCaller(true, _primeMinister.roleAdd, msg.sender, \"All\", 4, 1 days) */\n      mload(0x40)\n      dup7\n      0xffffffff\n      and\n      0xe0\n      shl\n      dup2\n      mstore\n      0x04\n      add\n      tag_115\n      swap6\n      swap5\n      swap4\n      swap3\n      swap2\n      swap1\n      tag_116\n      jump\t// in\n    tag_115:\n      0x00\n      mload(0x40)\n      dup1\n      dup4\n      sub\n      dup2\n      0x00\n      dup8\n      dup1\n      extcodesize\n      iszero\n      dup1\n      iszero\n      tag_117\n      jumpi\n      0x00\n      dup1\n      revert\n    tag_117:\n      pop\n      gas\n      call\n      iszero\n      dup1\n      iszero\n      tag_119\n      jumpi\n      returndatasize\n      0x00\n      dup1\n      returndatacopy\n      revert(0x00, returndatasize)\n    tag_119:\n      pop\n      pop\n      pop\n      pop\n        /* \"contracts/authority.sol\":6532:6708  if (_governance.roleAdd != address(0)) {... */\n    tag_114:\n        /* \"contracts/authority.sol\":6747:6757  msg.sender */\n      caller\n        /* \"contracts/authority.sol\":6722:6736  _primeMinister */\n      0x05\n        /* \"contracts/authority.sol\":6722:6744  _primeMinister.roleAdd */\n      0x00\n      add\n      0x00\n        /* \"contracts/authority.sol\":6722:6757  _primeMinister.roleAdd = msg.sender */\n      0x0100\n      exp\n      dup2\n      sload\n      dup2\n      0xffffffffffffffffffffffffffffffffffffffff\n      mul\n      not\n      and\n      swap1\n      dup4\n      0xffffffffffffffffffffffffffffffffffffffff\n      and\n      mul\n      or\n      swap1\n      sstore\n      pop\n        /* \"contracts/authority.sol\":6772:6786  _primeMinister */\n      0x05\n        /* \"contracts/authority.sol\":6772:6792  _primeMinister.nonce */\n      0x00\n      add\n      0x15\n        /* \"contracts/authority.sol\":6772:6794  _primeMinister.nonce++ */\n      dup2\n      dup2\n      swap1\n      sload\n      swap1\n      0x0100\n      exp\n      swap1\n      div\n      0xffffffff\n      and\n      dup1\n      swap3\n      swap2\n      swap1\n      tag_120\n      swap1\n      tag_109\n      jump\t// in\n    tag_120:\n      swap2\n      swap1\n      0x0100\n      exp\n      dup2\n      sload\n      dup2\n      0xffffffff\n      mul\n      not\n      and\n      swap1\n      dup4\n      0xffffffff\n      and\n      mul\n      or\n      swap1\n      sstore\n      pop\n      pop\n        /* \"contracts/authority.sol\":6813:6827  _primeMinister */\n      0x05\n        /* \"contracts/authority.sol\":6813:6833  _primeMinister.baned */\n      0x00\n      add\n      0x14\n      swap1\n      sload\n      swap1\n      0x0100\n      exp\n      swap1\n      div\n      0xff\n      and\n        /* \"contracts/authority.sol\":6809:6898  if (_primeMinister.baned){... */\n      iszero\n      tag_121\n      jumpi\n        /* \"contracts/authority.sol\":6853:6882  _setPrimeMinisterBaned(false) */\n      tag_122\n        /* \"contracts/authority.sol\":6876:6881  false */\n      0x00\n        /* \"contracts/authority.sol\":6853:6875  _setPrimeMinisterBaned */\n      tag_105\n        /* \"contracts/authority.sol\":6853:6882  _setPrimeMinisterBaned(false) */\n      jump\t// in\n    tag_122:\n        /* \"contracts/authority.sol\":6809:6898  if (_primeMinister.baned){... */\n    tag_121:\n        /* \"contracts/authority.sol\":6973:6987  _primeMinister */\n      0x05\n        /* \"contracts/authority.sol\":6973:6993  _primeMinister.nonce */\n      0x00\n      add\n      0x15\n      swap1\n      sload\n      swap1\n      0x0100\n      exp\n      swap1\n      div\n      0xffffffff\n      and\n        /* \"contracts/authority.sol\":6917:6994  TheNewPrimeMinisterWasConfirmed(_primeMinister.roleAdd, _primeMinister.nonce) */\n      0xffffffff\n      and\n        /* \"contracts/authority.sol\":6949:6963  _primeMinister */\n      0x05\n        /* \"contracts/authority.sol\":6949:6971  _primeMinister.roleAdd */\n      0x00\n      add\n      0x00\n      swap1\n      sload\n      swap1\n      0x0100\n      exp\n      swap1\n      div\n      0xffffffffffffffffffffffffffffffffffffffff\n      and\n        /* \"contracts/authority.sol\":6917:6994  TheNewPrimeMinisterWasConfirmed(_primeMinister.roleAdd, _primeMinister.nonce) */\n      0xffffffffffffffffffffffffffffffffffffffff\n      and\n      0x11e1b985c07e1bf3fec9bfd0bdb8c4a8e870ba2b26aa89fe50a6a19132ca10fd\n      mload(0x40)\n      mload(0x40)\n      dup1\n      swap2\n      sub\n      swap1\n      log3\n        /* \"contracts/authority.sol\":6433:7045  if (_pendingPrimeMinister == msg.sender) {... */\n      jump(tag_123)\n    tag_113:\n        /* \"contracts/authority.sol\":7021:7045  AccessOnlyForThePendig() */\n      mload(0x40)\n      0x6c4360f000000000000000000000000000000000000000000000000000000000\n      dup2\n      mstore\n      0x04\n      add\n      mload(0x40)\n      dup1\n      swap2\n      sub\n      swap1\n      revert\n        /* \"contracts/authority.sol\":6433:7045  if (_pendingPrimeMinister == msg.sender) {... */\n    tag_123:\n        /* \"contracts/authority.sol\":6382:7053  function transferPrimeMinister() public {... */\n      jump\t// out\n        /* \"contracts/authority.sol\":3937:4579  function transferRepublicGAddress(address RGAddress) public onlyRepublic {... */\n    tag_36:\n        /* \"contracts/authority.sol\":2314:2329  block.timestamp */\n      timestamp\n        /* \"contracts/authority.sol\":2294:2311  TimeFirstElection */\n      immutable(\"0x7d4579ab3c781860520f730aa471b37a7366c1c6efb6e34470da23130f5149f7\")\n        /* \"contracts/authority.sol\":2294:2329  TimeFirstElection < block.timestamp */\n      0xffffffffffff\n      and\n      lt\n        /* \"contracts/authority.sol\":2290:2517  if (TimeFirstElection < block.timestamp) {... */\n      iszero\n      tag_125\n      jumpi\n        /* \"contracts/authority.sol\":2368:2388  getRepublicAddress() */\n      tag_126\n        /* \"contracts/authority.sol\":2368:2386  getRepublicAddress */\n      tag_72\n        /* \"contracts/authority.sol\":2368:2388  getRepublicAddress() */\n      jump\t// in\n    tag_126:\n        /* \"contracts/authority.sol\":2354:2388  msg.sender == getRepublicAddress() */\n      0xffffffffffffffffffffffffffffffffffffffff\n      and\n        /* \"contracts/authority.sol\":2354:2364  msg.sender */\n      caller\n        /* \"contracts/authority.sol\":2354:2388  msg.sender == getRepublicAddress() */\n      0xffffffffffffffffffffffffffffffffffffffff\n      and\n      eq\n        /* \"contracts/authority.sol\":2346:2412  require(msg.sender == getRepublicAddress(), \"Access is not valid\") */\n      tag_127\n      jumpi\n      mload(0x40)\n      0x08c379a000000000000000000000000000000000000000000000000000000000\n      dup2\n      mstore\n      0x04\n      add\n      tag_128\n      swap1\n      tag_94\n      jump\t// in\n    tag_128:\n      mload(0x40)\n      dup1\n      swap2\n      sub\n      swap1\n      revert\n    tag_127:\n        /* \"contracts/authority.sol\":2290:2517  if (TimeFirstElection < block.timestamp) {... */\n      jump(tag_129)\n    tag_125:\n        /* \"contracts/authority.sol\":2454:2471  getPresidentAdd() */\n      tag_130\n        /* \"contracts/authority.sol\":2454:2469  getPresidentAdd */\n      tag_51\n        /* \"contracts/authority.sol\":2454:2471  getPresidentAdd() */\n      jump\t// in\n    tag_130:\n        /* \"contracts/authority.sol\":2440:2471  msg.sender == getPresidentAdd() */\n      0xffffffffffffffffffffffffffffffffffffffff\n      and\n        /* \"contracts/authority.sol\":2440:2450  msg.sender */\n      caller\n        /* \"contracts/authority.sol\":2440:2471  msg.sender == getPresidentAdd() */\n      0xffffffffffffffffffffffffffffffffffffffff\n      and\n      eq\n        /* \"contracts/authority.sol\":2440:2493  msg.sender == getPresidentAdd() && !getPresidentBan() */\n      dup1\n      iszero\n      tag_131\n      jumpi\n      pop\n        /* \"contracts/authority.sol\":2476:2493  getPresidentBan() */\n      tag_132\n        /* \"contracts/authority.sol\":2476:2491  getPresidentBan */\n      tag_54\n        /* \"contracts/authority.sol\":2476:2493  getPresidentBan() */\n      jump\t// in\n    tag_132:\n        /* \"contracts/authority.sol\":2475:2493  !getPresidentBan() */\n      iszero\n        /* \"contracts/authority.sol\":2440:2493  msg.sender == getPresidentAdd() && !getPresidentBan() */\n    tag_131:\n        /* \"contracts/authority.sol\":2432:2517  require(msg.sender == getPresidentAdd() && !getPresidentBan(), \"Access is not valid\") */\n      tag_133\n      jumpi\n      mload(0x40)\n      0x08c379a000000000000000000000000000000000000000000000000000000000\n      dup2\n      mstore\n      0x04\n      add\n      tag_134\n      swap1\n      tag_94\n      jump\t// in\n    tag_134:\n      mload(0x40)\n      dup1\n      swap2\n      sub\n      swap1\n      revert\n    tag_133:\n        /* \"contracts/authority.sol\":2290:2517  if (TimeFirstElection < block.timestamp) {... */\n    tag_129:\n        /* \"contracts/authority.sol\":4057:4072  block.timestamp */\n      timestamp\n        /* \"contracts/authority.sol\":4025:4054  _delayConfirmRepublicGAddress */\n      0x03\n      0x14\n      swap1\n      sload\n      swap1\n      0x0100\n      exp\n      swap1\n      div\n      0xffffffffffff\n      and\n        /* \"contracts/authority.sol\":4025:4072  _delayConfirmRepublicGAddress < block.timestamp */\n      0xffffffffffff\n      and\n      lt\n        /* \"contracts/authority.sol\":4021:4571  if (_delayConfirmRepublicGAddress < block.timestamp) {... */\n      iszero\n      tag_136\n      jumpi\n        /* \"contracts/authority.sol\":4130:4131  0 */\n      0x00\n        /* \"contracts/authority.sol\":4097:4126  _delayConfirmRepublicGAddress */\n      0x03\n      0x14\n      swap1\n      sload\n      swap1\n      0x0100\n      exp\n      swap1\n      div\n      0xffffffffffff\n      and\n        /* \"contracts/authority.sol\":4097:4131  _delayConfirmRepublicGAddress != 0 */\n      0xffffffffffff\n      and\n      sub\n        /* \"contracts/authority.sol\":4089:4157  require(_delayConfirmRepublicGAddress != 0,\"The request is invalid\") */\n      tag_137\n      jumpi\n      mload(0x40)\n      0x08c379a000000000000000000000000000000000000000000000000000000000\n      dup2\n      mstore\n      0x04\n      add\n      tag_138\n      swap1\n      tag_139\n      jump\t// in\n    tag_138:\n      mload(0x40)\n      dup1\n      swap2\n      sub\n      swap1\n      revert\n    tag_137:\n        /* \"contracts/authority.sol\":4203:4212  RGAddress */\n      dup1\n        /* \"contracts/authority.sol\":4176:4212  _pendigRepublicGAddress == RGAddress */\n      0xffffffffffffffffffffffffffffffffffffffff\n      and\n        /* \"contracts/authority.sol\":4176:4199  _pendigRepublicGAddress */\n      0x00\n      dup1\n      sload\n      swap1\n      0x0100\n      exp\n      swap1\n      div\n      0xffffffffffffffffffffffffffffffffffffffff\n      and\n        /* \"contracts/authority.sol\":4176:4212  _pendigRepublicGAddress == RGAddress */\n      0xffffffffffffffffffffffffffffffffffffffff\n      and\n      sub\n        /* \"contracts/authority.sol\":4172:4446  if (_pendigRepublicGAddress == RGAddress) {... */\n      tag_140\n      jumpi\n        /* \"contracts/authority.sol\":4240:4269  _delayConfirmRepublicGAddress */\n      0x03\n      0x14\n        /* \"contracts/authority.sol\":4233:4269  delete _delayConfirmRepublicGAddress */\n      0x0100\n      exp\n      dup2\n      sload\n      swap1\n      0xffffffffffff\n      mul\n      not\n      and\n      swap1\n      sstore\n        /* \"contracts/authority.sol\":4295:4318  _pendigRepublicGAddress */\n      0x00\n      dup1\n        /* \"contracts/authority.sol\":4288:4318  delete _pendigRepublicGAddress */\n      0x0100\n      exp\n      dup2\n      sload\n      swap1\n      0xffffffffffffffffffffffffffffffffffffffff\n      mul\n      not\n      and\n      swap1\n      sstore\n        /* \"contracts/authority.sol\":4337:4373  _transferRepublicGAddress(RGAddress) */\n      tag_141\n        /* \"contracts/authority.sol\":4363:4372  RGAddress */\n      dup2\n        /* \"contracts/authority.sol\":4337:4362  _transferRepublicGAddress */\n      tag_142\n        /* \"contracts/authority.sol\":4337:4373  _transferRepublicGAddress(RGAddress) */\n      jump\t// in\n    tag_141:\n        /* \"contracts/authority.sol\":4172:4446  if (_pendigRepublicGAddress == RGAddress) {... */\n      jump(tag_143)\n    tag_140:\n        /* \"contracts/authority.sol\":4436:4445  RGAddress */\n      dup1\n        /* \"contracts/authority.sol\":4404:4446  TheAddressIsNotValidForRAddress(RGAddress) */\n      mload(0x40)\n      0xc632231500000000000000000000000000000000000000000000000000000000\n      dup2\n      mstore\n      0x04\n      add\n      tag_144\n      swap2\n      swap1\n      tag_40\n      jump\t// in\n    tag_144:\n      mload(0x40)\n      dup1\n      swap2\n      sub\n      swap1\n      revert\n        /* \"contracts/authority.sol\":4172:4446  if (_pendigRepublicGAddress == RGAddress) {... */\n    tag_143:\n        /* \"contracts/authority.sol\":4021:4571  if (_delayConfirmRepublicGAddress < block.timestamp) {... */\n      jump(tag_145)\n    tag_136:\n        /* \"contracts/authority.sol\":4554:4569  block.timestamp */\n      timestamp\n        /* \"contracts/authority.sol\":4515:4544  _delayConfirmRepublicGAddress */\n      0x03\n      0x14\n      swap1\n      sload\n      swap1\n      0x0100\n      exp\n      swap1\n      div\n      0xffffffffffff\n      and\n        /* \"contracts/authority.sol\":4515:4570  _delayConfirmRepublicGAddress - uint48(block.timestamp) */\n      tag_146\n      swap2\n      swap1\n      tag_147\n      jump\t// in\n    tag_146:\n        /* \"contracts/authority.sol\":4473:4571  RemainingTimeUntilTheConfirmationDeadline(_delayConfirmRepublicGAddress - uint48(block.timestamp)) */\n      mload(0x40)\n      0x223a6cbb00000000000000000000000000000000000000000000000000000000\n      dup2\n      mstore\n      0x04\n      add\n      tag_148\n      swap2\n      swap1\n      tag_149\n      jump\t// in\n    tag_148:\n      mload(0x40)\n      dup1\n      swap2\n      sub\n      swap1\n      revert\n        /* \"contracts/authority.sol\":4021:4571  if (_delayConfirmRepublicGAddress < block.timestamp) {... */\n    tag_145:\n        /* \"contracts/authority.sol\":3937:4579  function transferRepublicGAddress(address RGAddress) public onlyRepublic {... */\n      pop\n      jump\t// out\n        /* \"contracts/authority.sol\":8042:8142  function getGovernance() public view returns (address) {... */\n    tag_38:\n        /* \"contracts/authority.sol\":8088:8095  address */\n      0x00\n        /* \"contracts/authority.sol\":8115:8126  _governance */\n      0x06\n        /* \"contracts/authority.sol\":8115:8134  _governance.roleAdd */\n      0x00\n      add\n      0x00\n      swap1\n      sload\n      swap1\n      0x0100\n      exp\n      swap1\n      div\n      0xffffffffffffffffffffffffffffffffffffffff\n      and\n        /* \"contracts/authority.sol\":8108:8134  return _governance.roleAdd */\n      swap1\n      pop\n        /* \"contracts/authority.sol\":8042:8142  function getGovernance() public view returns (address) {... */\n      swap1\n      jump\t// out\n        /* \"contracts/authority.sol\":5090:5206  function getRepublicGAddress() public view returns (address RG) {... */\n    tag_42:\n        /* \"contracts/authority.sol\":5142:5152  address RG */\n      0x00\n        /* \"contracts/authority.sol\":5176:5186  _RepublicG */\n      0x07\n        /* \"contracts/authority.sol\":5176:5194  _RepublicG.roleAdd */\n      0x00\n      add\n      0x00\n      swap1\n      sload\n      swap1\n      0x0100\n      exp\n      swap1\n      div\n      0xffffffffffffffffffffffffffffffffffffffff\n      and\n        /* \"contracts/authority.sol\":5169:5194  return _RepublicG.roleAdd */\n      swap1\n      pop\n        /* \"contracts/authority.sol\":5090:5206  function getRepublicGAddress() public view returns (address RG) {... */\n      swap1\n      jump\t// out\n        /* \"contracts/authority.sol\":4587:4970  function cancelPendingRepublicGAddress(address PRGAdress) public onlyRepublic {... */\n    tag_46:\n        /* \"contracts/authority.sol\":2314:2329  block.timestamp */\n      timestamp\n        /* \"contracts/authority.sol\":2294:2311  TimeFirstElection */\n      immutable(\"0x7d4579ab3c781860520f730aa471b37a7366c1c6efb6e34470da23130f5149f7\")\n        /* \"contracts/authority.sol\":2294:2329  TimeFirstElection < block.timestamp */\n      0xffffffffffff\n      and\n      lt\n        /* \"contracts/authority.sol\":2290:2517  if (TimeFirstElection < block.timestamp) {... */\n      iszero\n      tag_153\n      jumpi\n        /* \"contracts/authority.sol\":2368:2388  getRepublicAddress() */\n      tag_154\n        /* \"contracts/authority.sol\":2368:2386  getRepublicAddress */\n      tag_72\n        /* \"contracts/authority.sol\":2368:2388  getRepublicAddress() */\n      jump\t// in\n    tag_154:\n        /* \"contracts/authority.sol\":2354:2388  msg.sender == getRepublicAddress() */\n      0xffffffffffffffffffffffffffffffffffffffff\n      and\n        /* \"contracts/authority.sol\":2354:2364  msg.sender */\n      caller\n        /* \"contracts/authority.sol\":2354:2388  msg.sender == getRepublicAddress() */\n      0xffffffffffffffffffffffffffffffffffffffff\n      and\n      eq\n        /* \"contracts/authority.sol\":2346:2412  require(msg.sender == getRepublicAddress(), \"Access is not valid\") */\n      tag_155\n      jumpi\n      mload(0x40)\n      0x08c379a000000000000000000000000000000000000000000000000000000000\n      dup2\n      mstore\n      0x04\n      add\n      tag_156\n      swap1\n      tag_94\n      jump\t// in\n    tag_156:\n      mload(0x40)\n      dup1\n      swap2\n      sub\n      swap1\n      revert\n    tag_155:\n        /* \"contracts/authority.sol\":2290:2517  if (TimeFirstElection < block.timestamp) {... */\n      jump(tag_157)\n    tag_153:\n        /* \"contracts/authority.sol\":2454:2471  getPresidentAdd() */\n      tag_158\n        /* \"contracts/authority.sol\":2454:2469  getPresidentAdd */\n      tag_51\n        /* \"contracts/authority.sol\":2454:2471  getPresidentAdd() */\n      jump\t// in\n    tag_158:\n        /* \"contracts/authority.sol\":2440:2471  msg.sender == getPresidentAdd() */\n      0xffffffffffffffffffffffffffffffffffffffff\n      and\n        /* \"contracts/authority.sol\":2440:2450  msg.sender */\n      caller\n        /* \"contracts/authority.sol\":2440:2471  msg.sender == getPresidentAdd() */\n      0xffffffffffffffffffffffffffffffffffffffff\n      and\n      eq\n        /* \"contracts/authority.sol\":2440:2493  msg.sender == getPresidentAdd() && !getPresidentBan() */\n      dup1\n      iszero\n      tag_159\n      jumpi\n      pop\n        /* \"contracts/authority.sol\":2476:2493  getPresidentBan() */\n      tag_160\n        /* \"contracts/authority.sol\":2476:2491  getPresidentBan */\n      tag_54\n        /* \"contracts/authority.sol\":2476:2493  getPresidentBan() */\n      jump\t// in\n    tag_160:\n        /* \"contracts/authority.sol\":2475:2493  !getPresidentBan() */\n      iszero\n        /* \"contracts/authority.sol\":2440:2493  msg.sender == getPresidentAdd() && !getPresidentBan() */\n    tag_159:\n        /* \"contracts/authority.sol\":2432:2517  require(msg.sender == getPresidentAdd() && !getPresidentBan(), \"Access is not valid\") */\n      tag_161\n      jumpi\n      mload(0x40)\n      0x08c379a000000000000000000000000000000000000000000000000000000000\n      dup2\n      mstore\n      0x04\n      add\n      tag_162\n      swap1\n      tag_94\n      jump\t// in\n    tag_162:\n      mload(0x40)\n      dup1\n      swap2\n      sub\n      swap1\n      revert\n    tag_161:\n        /* \"contracts/authority.sol\":2290:2517  if (TimeFirstElection < block.timestamp) {... */\n    tag_157:\n        /* \"contracts/authority.sol\":4707:4716  PRGAdress */\n      dup1\n        /* \"contracts/authority.sol\":4680:4716  _pendigRepublicGAddress == PRGAdress */\n      0xffffffffffffffffffffffffffffffffffffffff\n      and\n        /* \"contracts/authority.sol\":4680:4703  _pendigRepublicGAddress */\n      0x00\n      dup1\n      sload\n      swap1\n      0x0100\n      exp\n      swap1\n      div\n      0xffffffffffffffffffffffffffffffffffffffff\n      and\n        /* \"contracts/authority.sol\":4680:4716  _pendigRepublicGAddress == PRGAdress */\n      0xffffffffffffffffffffffffffffffffffffffff\n      and\n      sub\n        /* \"contracts/authority.sol\":4676:4962  if (_pendigRepublicGAddress == PRGAdress) {... */\n      tag_164\n      jumpi\n        /* \"contracts/authority.sol\":4744:4773  _delayConfirmRepublicGAddress */\n      0x03\n      0x14\n        /* \"contracts/authority.sol\":4737:4773  delete _delayConfirmRepublicGAddress */\n      0x0100\n      exp\n      dup2\n      sload\n      swap1\n      0xffffffffffff\n      mul\n      not\n      and\n      swap1\n      sstore\n        /* \"contracts/authority.sol\":4799:4822  _pendigRepublicGAddress */\n      0x00\n      dup1\n        /* \"contracts/authority.sol\":4792:4822  delete _pendigRepublicGAddress */\n      0x0100\n      exp\n      dup2\n      sload\n      swap1\n      0xffffffffffffffffffffffffffffffffffffffff\n      mul\n      not\n      and\n      swap1\n      sstore\n        /* \"contracts/authority.sol\":4883:4892  PRGAdress */\n      dup1\n        /* \"contracts/authority.sol\":4847:4893  TheNextRepublicGAddressWasCancelled(PRGAdress) */\n      0xffffffffffffffffffffffffffffffffffffffff\n      and\n      0x62125dd3d531106ff055aac7090ccec5e1edec1d0db6b0f1355f2ca154754695\n      mload(0x40)\n      mload(0x40)\n      dup1\n      swap2\n      sub\n      swap1\n      log2\n        /* \"contracts/authority.sol\":4676:4962  if (_pendigRepublicGAddress == PRGAdress) {... */\n      jump(tag_165)\n    tag_164:\n        /* \"contracts/authority.sol\":4952:4961  PRGAdress */\n      dup1\n        /* \"contracts/authority.sol\":4920:4962  TheAddressIsNotValidForRAddress(PRGAdress) */\n      mload(0x40)\n      0xc632231500000000000000000000000000000000000000000000000000000000\n      dup2\n      mstore\n      0x04\n      add\n      tag_166\n      swap2\n      swap1\n      tag_40\n      jump\t// in\n    tag_166:\n      mload(0x40)\n      dup1\n      swap2\n      sub\n      swap1\n      revert\n        /* \"contracts/authority.sol\":4676:4962  if (_pendigRepublicGAddress == PRGAdress) {... */\n    tag_165:\n        /* \"contracts/authority.sol\":4587:4970  function cancelPendingRepublicGAddress(address PRGAdress) public onlyRepublic {... */\n      pop\n      jump\t// out\n        /* \"contracts/authority.sol\":6202:6374  function setPendingPrimeMinister(address newPM) public onlyPresident {... */\n    tag_49:\n        /* \"contracts/authority.sol\":2905:2922  getPresidentAdd() */\n      tag_168\n        /* \"contracts/authority.sol\":2905:2920  getPresidentAdd */\n      tag_51\n        /* \"contracts/authority.sol\":2905:2922  getPresidentAdd() */\n      jump\t// in\n    tag_168:\n        /* \"contracts/authority.sol\":2891:2922  msg.sender == getPresidentAdd() */\n      0xffffffffffffffffffffffffffffffffffffffff\n      and\n        /* \"contracts/authority.sol\":2891:2901  msg.sender */\n      caller\n        /* \"contracts/authority.sol\":2891:2922  msg.sender == getPresidentAdd() */\n      0xffffffffffffffffffffffffffffffffffffffff\n      and\n      eq\n        /* \"contracts/authority.sol\":2891:2944  msg.sender == getPresidentAdd() && !getPresidentBan() */\n      dup1\n      iszero\n      tag_169\n      jumpi\n      pop\n        /* \"contracts/authority.sol\":2927:2944  getPresidentBan() */\n      tag_170\n        /* \"contracts/authority.sol\":2927:2942  getPresidentBan */\n      tag_54\n        /* \"contracts/authority.sol\":2927:2944  getPresidentBan() */\n      jump\t// in\n    tag_170:\n        /* \"contracts/authority.sol\":2926:2944  !getPresidentBan() */\n      iszero\n        /* \"contracts/authority.sol\":2891:2944  msg.sender == getPresidentAdd() && !getPresidentBan() */\n    tag_169:\n        /* \"contracts/authority.sol\":2883:2968  require(msg.sender == getPresidentAdd() && !getPresidentBan(), \"Access is not valid\") */\n      tag_171\n      jumpi\n      mload(0x40)\n      0x08c379a000000000000000000000000000000000000000000000000000000000\n      dup2\n      mstore\n      0x04\n      add\n      tag_172\n      swap1\n      tag_94\n      jump\t// in\n    tag_172:\n      mload(0x40)\n      dup1\n      swap2\n      sub\n      swap1\n      revert\n    tag_171:\n        /* \"contracts/authority.sol\":6306:6311  newPM */\n      dup1\n        /* \"contracts/authority.sol\":6282:6303  _pendingPrimeMinister */\n      0x03\n      0x00\n        /* \"contracts/authority.sol\":6282:6311  _pendingPrimeMinister = newPM */\n      0x0100\n      exp\n      dup2\n      sload\n      dup2\n      0xffffffffffffffffffffffffffffffffffffffff\n      mul\n      not\n      and\n      swap1\n      dup4\n      0xffffffffffffffffffffffffffffffffffffffff\n      and\n      mul\n      or\n      swap1\n      sstore\n      pop\n        /* \"contracts/authority.sol\":6360:6365  newPM */\n      dup1\n        /* \"contracts/authority.sol\":6329:6366  TheNextPrimeMinisterWasElected(newPM) */\n      0xffffffffffffffffffffffffffffffffffffffff\n      and\n      0xff3cad3ee28c342ad5f3d7c8ff8559ee4d21eb48494092b82a1652e443b3420b\n      mload(0x40)\n      mload(0x40)\n      dup1\n      swap2\n      sub\n      swap1\n      log2\n        /* \"contracts/authority.sol\":6202:6374  function setPendingPrimeMinister(address newPM) public onlyPresident {... */\n      pop\n      jump\t// out\n        /* \"contracts/authority.sol\":5989:6090  function getPresidentAdd() public view returns (address) {... */\n    tag_51:\n        /* \"contracts/authority.sol\":6037:6044  address */\n      0x00\n        /* \"contracts/authority.sol\":6064:6074  _president */\n      0x04\n        /* \"contracts/authority.sol\":6064:6082  _president.roleAdd */\n      0x00\n      add\n      0x00\n      swap1\n      sload\n      swap1\n      0x0100\n      exp\n      swap1\n      div\n      0xffffffffffffffffffffffffffffffffffffffff\n      and\n        /* \"contracts/authority.sol\":6057:6082  return _president.roleAdd */\n      swap1\n      pop\n        /* \"contracts/authority.sol\":5989:6090  function getPresidentAdd() public view returns (address) {... */\n      swap1\n      jump\t// out\n        /* \"contracts/authority.sol\":6098:6194  function getPresidentBan() public view returns (bool) {... */\n    tag_54:\n        /* \"contracts/authority.sol\":6146:6150  bool */\n      0x00\n        /* \"contracts/authority.sol\":6170:6180  _president */\n      0x04\n        /* \"contracts/authority.sol\":6170:6186  _president.baned */\n      0x00\n      add\n      0x14\n      swap1\n      sload\n      swap1\n      0x0100\n      exp\n      swap1\n      div\n      0xff\n      and\n        /* \"contracts/authority.sol\":6163:6186  return _president.baned */\n      swap1\n      pop\n        /* \"contracts/authority.sol\":6098:6194  function getPresidentBan() public view returns (bool) {... */\n      swap1\n      jump\t// out\n        /* \"contracts/authority.sol\":3362:3929  function setPendingRepublicGAddress(address newRGAddress) public onlyRepublic {... */\n    tag_59:\n        /* \"contracts/authority.sol\":2314:2329  block.timestamp */\n      timestamp\n        /* \"contracts/authority.sol\":2294:2311  TimeFirstElection */\n      immutable(\"0x7d4579ab3c781860520f730aa471b37a7366c1c6efb6e34470da23130f5149f7\")\n        /* \"contracts/authority.sol\":2294:2329  TimeFirstElection < block.timestamp */\n      0xffffffffffff\n      and\n      lt\n        /* \"contracts/authority.sol\":2290:2517  if (TimeFirstElection < block.timestamp) {... */\n      iszero\n      tag_177\n      jumpi\n        /* \"contracts/authority.sol\":2368:2388  getRepublicAddress() */\n      tag_178\n        /* \"contracts/authority.sol\":2368:2386  getRepublicAddress */\n      tag_72\n        /* \"contracts/authority.sol\":2368:2388  getRepublicAddress() */\n      jump\t// in\n    tag_178:\n        /* \"contracts/authority.sol\":2354:2388  msg.sender == getRepublicAddress() */\n      0xffffffffffffffffffffffffffffffffffffffff\n      and\n        /* \"contracts/authority.sol\":2354:2364  msg.sender */\n      caller\n        /* \"contracts/authority.sol\":2354:2388  msg.sender == getRepublicAddress() */\n      0xffffffffffffffffffffffffffffffffffffffff\n      and\n      eq\n        /* \"contracts/authority.sol\":2346:2412  require(msg.sender == getRepublicAddress(), \"Access is not valid\") */\n      tag_179\n      jumpi\n      mload(0x40)\n      0x08c379a000000000000000000000000000000000000000000000000000000000\n      dup2\n      mstore\n      0x04\n      add\n      tag_180\n      swap1\n      tag_94\n      jump\t// in\n    tag_180:\n      mload(0x40)\n      dup1\n      swap2\n      sub\n      swap1\n      revert\n    tag_179:\n        /* \"contracts/authority.sol\":2290:2517  if (TimeFirstElection < block.timestamp) {... */\n      jump(tag_181)\n    tag_177:\n        /* \"contracts/authority.sol\":2454:2471  getPresidentAdd() */\n      tag_182\n        /* \"contracts/authority.sol\":2454:2469  getPresidentAdd */\n      tag_51\n        /* \"contracts/authority.sol\":2454:2471  getPresidentAdd() */\n      jump\t// in\n    tag_182:\n        /* \"contracts/authority.sol\":2440:2471  msg.sender == getPresidentAdd() */\n      0xffffffffffffffffffffffffffffffffffffffff\n      and\n        /* \"contracts/authority.sol\":2440:2450  msg.sender */\n      caller\n        /* \"contracts/authority.sol\":2440:2471  msg.sender == getPresidentAdd() */\n      0xffffffffffffffffffffffffffffffffffffffff\n      and\n      eq\n        /* \"contracts/authority.sol\":2440:2493  msg.sender == getPresidentAdd() && !getPresidentBan() */\n      dup1\n      iszero\n      tag_183\n      jumpi\n      pop\n        /* \"contracts/authority.sol\":2476:2493  getPresidentBan() */\n      tag_184\n        /* \"contracts/authority.sol\":2476:2491  getPresidentBan */\n      tag_54\n        /* \"contracts/authority.sol\":2476:2493  getPresidentBan() */\n      jump\t// in\n    tag_184:\n        /* \"contracts/authority.sol\":2475:2493  !getPresidentBan() */\n      iszero\n        /* \"contracts/authority.sol\":2440:2493  msg.sender == getPresidentAdd() && !getPresidentBan() */\n    tag_183:\n        /* \"contracts/authority.sol\":2432:2517  require(msg.sender == getPresidentAdd() && !getPresidentBan(), \"Access is not valid\") */\n      tag_185\n      jumpi\n      mload(0x40)\n      0x08c379a000000000000000000000000000000000000000000000000000000000\n      dup2\n      mstore\n      0x04\n      add\n      tag_186\n      swap1\n      tag_94\n      jump\t// in\n    tag_186:\n      mload(0x40)\n      dup1\n      swap2\n      sub\n      swap1\n      revert\n    tag_185:\n        /* \"contracts/authority.sol\":2290:2517  if (TimeFirstElection < block.timestamp) {... */\n    tag_181:\n        /* \"contracts/authority.sol\":3482:3483  0 */\n      0x00\n        /* \"contracts/authority.sol\":3455:3467  newRGAddress */\n      dup2\n        /* \"contracts/authority.sol\":3455:3479  newRGAddress.code.length */\n      0xffffffffffffffffffffffffffffffffffffffff\n      and\n      extcodesize\n        /* \"contracts/authority.sol\":3455:3483  newRGAddress.code.length > 0 */\n      gt\n        /* \"contracts/authority.sol\":3451:3919  if (newRGAddress.code.length > 0) {... */\n      iszero\n      tag_188\n      jumpi\n        /* \"contracts/authority.sol\":3526:3536  msg.sender */\n      caller\n        /* \"contracts/authority.sol\":3504:3536  _president.roleAdd == msg.sender */\n      0xffffffffffffffffffffffffffffffffffffffff\n      and\n        /* \"contracts/authority.sol\":3504:3514  _president */\n      0x04\n        /* \"contracts/authority.sol\":3504:3522  _president.roleAdd */\n      0x00\n      add\n      0x00\n      swap1\n      sload\n      swap1\n      0x0100\n      exp\n      swap1\n      div\n      0xffffffffffffffffffffffffffffffffffffffff\n      and\n        /* \"contracts/authority.sol\":3504:3536  _president.roleAdd == msg.sender */\n      0xffffffffffffffffffffffffffffffffffffffff\n      and\n      sub\n        /* \"contracts/authority.sol\":3500:3848  if (_president.roleAdd == msg.sender) {... */\n      tag_189\n      jumpi\n        /* \"contracts/authority.sol\":3557:3596  _transferRepublicGAddress(newRGAddress) */\n      tag_190\n        /* \"contracts/authority.sol\":3583:3595  newRGAddress */\n      dup2\n        /* \"contracts/authority.sol\":3557:3582  _transferRepublicGAddress */\n      tag_142\n        /* \"contracts/authority.sol\":3557:3596  _transferRepublicGAddress(newRGAddress) */\n      jump\t// in\n    tag_190:\n        /* \"contracts/authority.sol\":3500:3848  if (_president.roleAdd == msg.sender) {... */\n      jump(tag_191)\n    tag_189:\n        /* \"contracts/authority.sol\":3696:3703  15 days */\n      0x13c680\n        /* \"contracts/authority.sol\":3678:3693  block.timestamp */\n      timestamp\n        /* \"contracts/authority.sol\":3678:3703  block.timestamp + 15 days */\n      tag_192\n      swap2\n      swap1\n      tag_193\n      jump\t// in\n    tag_192:\n        /* \"contracts/authority.sol\":3639:3668  _delayConfirmRepublicGAddress */\n      0x03\n      0x14\n        /* \"contracts/authority.sol\":3639:3704  _delayConfirmRepublicGAddress = uint48(block.timestamp + 15 days) */\n      0x0100\n      exp\n      dup2\n      sload\n      dup2\n      0xffffffffffff\n      mul\n      not\n      and\n      swap1\n      dup4\n      0xffffffffffff\n      and\n      mul\n      or\n      swap1\n      sstore\n      pop\n        /* \"contracts/authority.sol\":3749:3761  newRGAddress */\n      dup1\n        /* \"contracts/authority.sol\":3723:3746  _pendigRepublicGAddress */\n      0x00\n      dup1\n        /* \"contracts/authority.sol\":3723:3761  _pendigRepublicGAddress = newRGAddress */\n      0x0100\n      exp\n      dup2\n      sload\n      dup2\n      0xffffffffffffffffffffffffffffffffffffffff\n      mul\n      not\n      and\n      swap1\n      dup4\n      0xffffffffffffffffffffffffffffffffffffffff\n      and\n      mul\n      or\n      swap1\n      sstore\n      pop\n        /* \"contracts/authority.sol\":3819:3831  newRGAddress */\n      dup1\n        /* \"contracts/authority.sol\":3785:3832  TheNextRepublicGAddressWasElected(newRGAddress) */\n      0xffffffffffffffffffffffffffffffffffffffff\n      and\n      0x30b8fe69c9b4c23cc01223881227c0cc8cba5cc56d59263f51711df1a8f2c667\n      mload(0x40)\n      mload(0x40)\n      dup1\n      swap2\n      sub\n      swap1\n      log2\n        /* \"contracts/authority.sol\":3500:3848  if (_president.roleAdd == msg.sender) {... */\n    tag_191:\n        /* \"contracts/authority.sol\":3451:3919  if (newRGAddress.code.length > 0) {... */\n      jump(tag_194)\n    tag_188:\n        /* \"contracts/authority.sol\":3906:3918  newRGAddress */\n      dup1\n        /* \"contracts/authority.sol\":3874:3919  TheAddressIsNotValidForRAddress(newRGAddress) */\n      mload(0x40)\n      0xc632231500000000000000000000000000000000000000000000000000000000\n      dup2\n      mstore\n      0x04\n      add\n      tag_195\n      swap2\n      swap1\n      tag_40\n      jump\t// in\n    tag_195:\n      mload(0x40)\n      dup1\n      swap2\n      sub\n      swap1\n      revert\n        /* \"contracts/authority.sol\":3451:3919  if (newRGAddress.code.length > 0) {... */\n    tag_194:\n        /* \"contracts/authority.sol\":3362:3929  function setPendingRepublicGAddress(address newRGAddress) public onlyRepublic {... */\n      pop\n      jump\t// out\n        /* \"contracts/authority.sol\":7061:7170  function getPrimeMinisterAdd() public view returns (address) {... */\n    tag_61:\n        /* \"contracts/authority.sol\":7113:7120  address */\n      0x00\n        /* \"contracts/authority.sol\":7140:7154  _primeMinister */\n      0x05\n        /* \"contracts/authority.sol\":7140:7162  _primeMinister.roleAdd */\n      0x00\n      add\n      0x00\n      swap1\n      sload\n      swap1\n      0x0100\n      exp\n      swap1\n      div\n      0xffffffffffffffffffffffffffffffffffffffff\n      and\n        /* \"contracts/authority.sol\":7133:7162  return _primeMinister.roleAdd */\n      swap1\n      pop\n        /* \"contracts/authority.sol\":7061:7170  function getPrimeMinisterAdd() public view returns (address) {... */\n      swap1\n      jump\t// out\n        /* \"contracts/authority.sol\":8262:8405  function setPresidentBaned(bool baned) public onlyRepublic {... */\n    tag_66:\n        /* \"contracts/authority.sol\":2314:2329  block.timestamp */\n      timestamp\n        /* \"contracts/authority.sol\":2294:2311  TimeFirstElection */\n      immutable(\"0x7d4579ab3c781860520f730aa471b37a7366c1c6efb6e34470da23130f5149f7\")\n        /* \"contracts/authority.sol\":2294:2329  TimeFirstElection < block.timestamp */\n      0xffffffffffff\n      and\n      lt\n        /* \"contracts/authority.sol\":2290:2517  if (TimeFirstElection < block.timestamp) {... */\n      iszero\n      tag_198\n      jumpi\n        /* \"contracts/authority.sol\":2368:2388  getRepublicAddress() */\n      tag_199\n        /* \"contracts/authority.sol\":2368:2386  getRepublicAddress */\n      tag_72\n        /* \"contracts/authority.sol\":2368:2388  getRepublicAddress() */\n      jump\t// in\n    tag_199:\n        /* \"contracts/authority.sol\":2354:2388  msg.sender == getRepublicAddress() */\n      0xffffffffffffffffffffffffffffffffffffffff\n      and\n        /* \"contracts/authority.sol\":2354:2364  msg.sender */\n      caller\n        /* \"contracts/authority.sol\":2354:2388  msg.sender == getRepublicAddress() */\n      0xffffffffffffffffffffffffffffffffffffffff\n      and\n      eq\n        /* \"contracts/authority.sol\":2346:2412  require(msg.sender == getRepublicAddress(), \"Access is not valid\") */\n      tag_200\n      jumpi\n      mload(0x40)\n      0x08c379a000000000000000000000000000000000000000000000000000000000\n      dup2\n      mstore\n      0x04\n      add\n      tag_201\n      swap1\n      tag_94\n      jump\t// in\n    tag_201:\n      mload(0x40)\n      dup1\n      swap2\n      sub\n      swap1\n      revert\n    tag_200:\n        /* \"contracts/authority.sol\":2290:2517  if (TimeFirstElection < block.timestamp) {... */\n      jump(tag_202)\n    tag_198:\n        /* \"contracts/authority.sol\":2454:2471  getPresidentAdd() */\n      tag_203\n        /* \"contracts/authority.sol\":2454:2469  getPresidentAdd */\n      tag_51\n        /* \"contracts/authority.sol\":2454:2471  getPresidentAdd() */\n      jump\t// in\n    tag_203:\n        /* \"contracts/authority.sol\":2440:2471  msg.sender == getPresidentAdd() */\n      0xffffffffffffffffffffffffffffffffffffffff\n      and\n        /* \"contracts/authority.sol\":2440:2450  msg.sender */\n      caller\n        /* \"contracts/authority.sol\":2440:2471  msg.sender == getPresidentAdd() */\n      0xffffffffffffffffffffffffffffffffffffffff\n      and\n      eq\n        /* \"contracts/authority.sol\":2440:2493  msg.sender == getPresidentAdd() && !getPresidentBan() */\n      dup1\n      iszero\n      tag_204\n      jumpi\n      pop\n        /* \"contracts/authority.sol\":2476:2493  getPresidentBan() */\n      tag_205\n        /* \"contracts/authority.sol\":2476:2491  getPresidentBan */\n      tag_54\n        /* \"contracts/authority.sol\":2476:2493  getPresidentBan() */\n      jump\t// in\n    tag_205:\n        /* \"contracts/authority.sol\":2475:2493  !getPresidentBan() */\n      iszero\n        /* \"contracts/authority.sol\":2440:2493  msg.sender == getPresidentAdd() && !getPresidentBan() */\n    tag_204:\n        /* \"contracts/authority.sol\":2432:2517  require(msg.sender == getPresidentAdd() && !getPresidentBan(), \"Access is not valid\") */\n      tag_206\n      jumpi\n      mload(0x40)\n      0x08c379a000000000000000000000000000000000000000000000000000000000\n      dup2\n      mstore\n      0x04\n      add\n      tag_207\n      swap1\n      tag_94\n      jump\t// in\n    tag_207:\n      mload(0x40)\n      dup1\n      swap2\n      sub\n      swap1\n      revert\n    tag_206:\n        /* \"contracts/authority.sol\":2290:2517  if (TimeFirstElection < block.timestamp) {... */\n    tag_202:\n        /* \"contracts/authority.sol\":8332:8357  _setPresidentBaned(baned) */\n      tag_209\n        /* \"contracts/authority.sol\":8351:8356  baned */\n      dup2\n        /* \"contracts/authority.sol\":8332:8350  _setPresidentBaned */\n      tag_103\n        /* \"contracts/authority.sol\":8332:8357  _setPresidentBaned(baned) */\n      jump\t// in\n    tag_209:\n        /* \"contracts/authority.sol\":8368:8397  _setPrimeMinisterBaned(baned) */\n      tag_210\n        /* \"contracts/authority.sol\":8391:8396  baned */\n      dup2\n        /* \"contracts/authority.sol\":8368:8390  _setPrimeMinisterBaned */\n      tag_105\n        /* \"contracts/authority.sol\":8368:8397  _setPrimeMinisterBaned(baned) */\n      jump\t// in\n    tag_210:\n        /* \"contracts/authority.sol\":8262:8405  function setPresidentBaned(bool baned) public onlyRepublic {... */\n      pop\n      jump\t// out\n        /* \"contracts/authority.sol\":8150:8254  function getgovernanceVersion() public view returns (uint32) {... */\n    tag_68:\n        /* \"contracts/authority.sol\":8203:8209  uint32 */\n      0x00\n        /* \"contracts/authority.sol\":8229:8240  _governance */\n      0x06\n        /* \"contracts/authority.sol\":8229:8246  _governance.nonce */\n      0x00\n      add\n      0x15\n      swap1\n      sload\n      swap1\n      0x0100\n      exp\n      swap1\n      div\n      0xffffffff\n      and\n        /* \"contracts/authority.sol\":8222:8246  return _governance.nonce */\n      swap1\n      pop\n        /* \"contracts/authority.sol\":8150:8254  function getgovernanceVersion() public view returns (uint32) {... */\n      swap1\n      jump\t// out\n        /* \"contracts/authority.sol\":4978:5082  function getRepublicAddress() public view returns (address R) {... */\n    tag_72:\n        /* \"contracts/authority.sol\":5029:5038  address R */\n      0x00\n        /* \"contracts/authority.sol\":5062:5070  Republic */\n      immutable(\"0x5d519e8ccff65fbf7a596d649336943263020a2cedd697418c72b82d84123abe\")\n        /* \"contracts/authority.sol\":5055:5070  return Republic */\n      swap1\n      pop\n        /* \"contracts/authority.sol\":4978:5082  function getRepublicAddress() public view returns (address R) {... */\n      swap1\n      jump\t// out\n        /* \"contracts/authority.sol\":7292:7607  function setPendingGovernanceContractAddress(address newGCAddress) public onlyRepublic {... */\n    tag_76:\n        /* \"contracts/authority.sol\":2314:2329  block.timestamp */\n      timestamp\n        /* \"contracts/authority.sol\":2294:2311  TimeFirstElection */\n      immutable(\"0x7d4579ab3c781860520f730aa471b37a7366c1c6efb6e34470da23130f5149f7\")\n        /* \"contracts/authority.sol\":2294:2329  TimeFirstElection < block.timestamp */\n      0xffffffffffff\n      and\n      lt\n        /* \"contracts/authority.sol\":2290:2517  if (TimeFirstElection < block.timestamp) {... */\n      iszero\n      tag_214\n      jumpi\n        /* \"contracts/authority.sol\":2368:2388  getRepublicAddress() */\n      tag_215\n        /* \"contracts/authority.sol\":2368:2386  getRepublicAddress */\n      tag_72\n        /* \"contracts/authority.sol\":2368:2388  getRepublicAddress() */\n      jump\t// in\n    tag_215:\n        /* \"contracts/authority.sol\":2354:2388  msg.sender == getRepublicAddress() */\n      0xffffffffffffffffffffffffffffffffffffffff\n      and\n        /* \"contracts/authority.sol\":2354:2364  msg.sender */\n      caller\n        /* \"contracts/authority.sol\":2354:2388  msg.sender == getRepublicAddress() */\n      0xffffffffffffffffffffffffffffffffffffffff\n      and\n      eq\n        /* \"contracts/authority.sol\":2346:2412  require(msg.sender == getRepublicAddress(), \"Access is not valid\") */\n      tag_216\n      jumpi\n      mload(0x40)\n      0x08c379a000000000000000000000000000000000000000000000000000000000\n      dup2\n      mstore\n      0x04\n      add\n      tag_217\n      swap1\n      tag_94\n      jump\t// in\n    tag_217:\n      mload(0x40)\n      dup1\n      swap2\n      sub\n      swap1\n      revert\n    tag_216:\n        /* \"contracts/authority.sol\":2290:2517  if (TimeFirstElection < block.timestamp) {... */\n      jump(tag_218)\n    tag_214:\n        /* \"contracts/authority.sol\":2454:2471  getPresidentAdd() */\n      tag_219\n        /* \"contracts/authority.sol\":2454:2469  getPresidentAdd */\n      tag_51\n        /* \"contracts/authority.sol\":2454:2471  getPresidentAdd() */\n      jump\t// in\n    tag_219:\n        /* \"contracts/authority.sol\":2440:2471  msg.sender == getPresidentAdd() */\n      0xffffffffffffffffffffffffffffffffffffffff\n      and\n        /* \"contracts/authority.sol\":2440:2450  msg.sender */\n      caller\n        /* \"contracts/authority.sol\":2440:2471  msg.sender == getPresidentAdd() */\n      0xffffffffffffffffffffffffffffffffffffffff\n      and\n      eq\n        /* \"contracts/authority.sol\":2440:2493  msg.sender == getPresidentAdd() && !getPresidentBan() */\n      dup1\n      iszero\n      tag_220\n      jumpi\n      pop\n        /* \"contracts/authority.sol\":2476:2493  getPresidentBan() */\n      tag_221\n        /* \"contracts/authority.sol\":2476:2491  getPresidentBan */\n      tag_54\n        /* \"contracts/authority.sol\":2476:2493  getPresidentBan() */\n      jump\t// in\n    tag_221:\n        /* \"contracts/authority.sol\":2475:2493  !getPresidentBan() */\n      iszero\n        /* \"contracts/authority.sol\":2440:2493  msg.sender == getPresidentAdd() && !getPresidentBan() */\n    tag_220:\n        /* \"contracts/authority.sol\":2432:2517  require(msg.sender == getPresidentAdd() && !getPresidentBan(), \"Access is not valid\") */\n      tag_222\n      jumpi\n      mload(0x40)\n      0x08c379a000000000000000000000000000000000000000000000000000000000\n      dup2\n      mstore\n      0x04\n      add\n      tag_223\n      swap1\n      tag_94\n      jump\t// in\n    tag_223:\n      mload(0x40)\n      dup1\n      swap2\n      sub\n      swap1\n      revert\n    tag_222:\n        /* \"contracts/authority.sol\":2290:2517  if (TimeFirstElection < block.timestamp) {... */\n    tag_218:\n        /* \"contracts/authority.sol\":7421:7422  0 */\n      0x00\n        /* \"contracts/authority.sol\":7394:7406  newGCAddress */\n      dup2\n        /* \"contracts/authority.sol\":7394:7418  newGCAddress.code.length */\n      0xffffffffffffffffffffffffffffffffffffffff\n      and\n      extcodesize\n        /* \"contracts/authority.sol\":7394:7422  newGCAddress.code.length > 0 */\n      gt\n        /* \"contracts/authority.sol\":7390:7597  if (newGCAddress.code.length > 0) {... */\n      iszero\n      tag_225\n      jumpi\n        /* \"contracts/authority.sol\":7459:7471  newGCAddress */\n      dup1\n        /* \"contracts/authority.sol\":7439:7456  _pendingGCAddress */\n      0x01\n      0x00\n        /* \"contracts/authority.sol\":7439:7471  _pendingGCAddress = newGCAddress */\n      0x0100\n      exp\n      dup2\n      sload\n      dup2\n      0xffffffffffffffffffffffffffffffffffffffff\n      mul\n      not\n      and\n      swap1\n      dup4\n      0xffffffffffffffffffffffffffffffffffffffff\n      and\n      mul\n      or\n      swap1\n      sstore\n      pop\n        /* \"contracts/authority.sol\":7518:7530  newGCAddress */\n      dup1\n        /* \"contracts/authority.sol\":7491:7531  TheNextGCAddressWasElected(newGCAddress) */\n      0xffffffffffffffffffffffffffffffffffffffff\n      and\n      0xe8d8e3c7c3ebec0c177d0fe22d223f8b5071db39155104808d45027e368ba77a\n      mload(0x40)\n      mload(0x40)\n      dup1\n      swap2\n      sub\n      swap1\n      log2\n        /* \"contracts/authority.sol\":7390:7597  if (newGCAddress.code.length > 0) {... */\n      jump(tag_226)\n    tag_225:\n        /* \"contracts/authority.sol\":7584:7596  newGCAddress */\n      dup1\n        /* \"contracts/authority.sol\":7558:7597  TheAddressIsNotValidForGC(newGCAddress) */\n      mload(0x40)\n      0x84dbc6cb00000000000000000000000000000000000000000000000000000000\n      dup2\n      mstore\n      0x04\n      add\n      tag_227\n      swap2\n      swap1\n      tag_40\n      jump\t// in\n    tag_227:\n      mload(0x40)\n      dup1\n      swap2\n      sub\n      swap1\n      revert\n        /* \"contracts/authority.sol\":7390:7597  if (newGCAddress.code.length > 0) {... */\n    tag_226:\n        /* \"contracts/authority.sol\":7292:7607  function setPendingGovernanceContractAddress(address newGCAddress) public onlyRepublic {... */\n      pop\n      jump\t// out\n        /* \"contracts/authority.sol\":5218:5327  function getAuthorityAddress() public view returns (address) {... */\n    tag_78:\n        /* \"contracts/authority.sol\":5270:5277  address */\n      0x00\n        /* \"contracts/authority.sol\":5310:5314  this */\n      address\n        /* \"contracts/authority.sol\":5294:5315  return  address(this) */\n      swap1\n      pop\n        /* \"contracts/authority.sol\":5218:5327  function getAuthorityAddress() public view returns (address) {... */\n      swap1\n      jump\t// out\n        /* \"contracts/authority.sol\":7178:7282  function getPrimeMinisterBan() public view returns (bool) {... */\n    tag_81:\n        /* \"contracts/authority.sol\":7230:7234  bool */\n      0x00\n        /* \"contracts/authority.sol\":7254:7268  _primeMinister */\n      0x05\n        /* \"contracts/authority.sol\":7254:7274  _primeMinister.baned */\n      0x00\n      add\n      0x14\n      swap1\n      sload\n      swap1\n      0x0100\n      exp\n      swap1\n      div\n      0xff\n      and\n        /* \"contracts/authority.sol\":7247:7274  return _primeMinister.baned */\n      swap1\n      pop\n        /* \"contracts/authority.sol\":7178:7282  function getPrimeMinisterBan() public view returns (bool) {... */\n      swap1\n      jump\t// out\n        /* \"contracts/authority.sol\":7615:8034  function transferGovernanceContractAddress(address pendingGCAdd) public onlyPresident {... */\n    tag_85:\n        /* \"contracts/authority.sol\":2905:2922  getPresidentAdd() */\n      tag_231\n        /* \"contracts/authority.sol\":2905:2920  getPresidentAdd */\n      tag_51\n        /* \"contracts/authority.sol\":2905:2922  getPresidentAdd() */\n      jump\t// in\n    tag_231:\n        /* \"contracts/authority.sol\":2891:2922  msg.sender == getPresidentAdd() */\n      0xffffffffffffffffffffffffffffffffffffffff\n      and\n        /* \"contracts/authority.sol\":2891:2901  msg.sender */\n      caller\n        /* \"contracts/authority.sol\":2891:2922  msg.sender == getPresidentAdd() */\n      0xffffffffffffffffffffffffffffffffffffffff\n      and\n      eq\n        /* \"contracts/authority.sol\":2891:2944  msg.sender == getPresidentAdd() && !getPresidentBan() */\n      dup1\n      iszero\n      tag_232\n      jumpi\n      pop\n        /* \"contracts/authority.sol\":2927:2944  getPresidentBan() */\n      tag_233\n        /* \"contracts/authority.sol\":2927:2942  getPresidentBan */\n      tag_54\n        /* \"contracts/authority.sol\":2927:2944  getPresidentBan() */\n      jump\t// in\n    tag_233:\n        /* \"contracts/authority.sol\":2926:2944  !getPresidentBan() */\n      iszero\n        /* \"contracts/authority.sol\":2891:2944  msg.sender == getPresidentAdd() && !getPresidentBan() */\n    tag_232:\n        /* \"contracts/authority.sol\":2883:2968  require(msg.sender == getPresidentAdd() && !getPresidentBan(), \"Access is not valid\") */\n      tag_234\n      jumpi\n      mload(0x40)\n      0x08c379a000000000000000000000000000000000000000000000000000000000\n      dup2\n      mstore\n      0x04\n      add\n      tag_235\n      swap1\n      tag_94\n      jump\t// in\n    tag_235:\n      mload(0x40)\n      dup1\n      swap2\n      sub\n      swap1\n      revert\n    tag_234:\n        /* \"contracts/authority.sol\":7737:7749  pendingGCAdd */\n      dup1\n        /* \"contracts/authority.sol\":7716:7749  _pendingGCAddress == pendingGCAdd */\n      0xffffffffffffffffffffffffffffffffffffffff\n      and\n        /* \"contracts/authority.sol\":7716:7733  _pendingGCAddress */\n      0x01\n      0x00\n      swap1\n      sload\n      swap1\n      0x0100\n      exp\n      swap1\n      div\n      0xffffffffffffffffffffffffffffffffffffffff\n      and\n        /* \"contracts/authority.sol\":7716:7749  _pendingGCAddress == pendingGCAdd */\n      0xffffffffffffffffffffffffffffffffffffffff\n      and\n      sub\n        /* \"contracts/authority.sol\":7712:8026  if (_pendingGCAddress == pendingGCAdd) {... */\n      tag_237\n      jumpi\n        /* \"contracts/authority.sol\":7773:7790  _pendingGCAddress */\n      0x01\n      0x00\n        /* \"contracts/authority.sol\":7766:7790  delete _pendingGCAddress */\n      0x0100\n      exp\n      dup2\n      sload\n      swap1\n      0xffffffffffffffffffffffffffffffffffffffff\n      mul\n      not\n      and\n      swap1\n      sstore\n        /* \"contracts/authority.sol\":7827:7839  pendingGCAdd */\n      dup1\n        /* \"contracts/authority.sol\":7805:7816  _governance */\n      0x06\n        /* \"contracts/authority.sol\":7805:7824  _governance.roleAdd */\n      0x00\n      add\n      0x00\n        /* \"contracts/authority.sol\":7805:7839  _governance.roleAdd = pendingGCAdd */\n      0x0100\n      exp\n      dup2\n      sload\n      dup2\n      0xffffffffffffffffffffffffffffffffffffffff\n      mul\n      not\n      and\n      swap1\n      dup4\n      0xffffffffffffffffffffffffffffffffffffffff\n      and\n      mul\n      or\n      swap1\n      sstore\n      pop\n        /* \"contracts/authority.sol\":7854:7865  _governance */\n      0x06\n        /* \"contracts/authority.sol\":7854:7871  _governance.nonce */\n      0x00\n      add\n      0x15\n        /* \"contracts/authority.sol\":7854:7873  _governance.nonce++ */\n      dup2\n      dup2\n      swap1\n      sload\n      swap1\n      0x0100\n      exp\n      swap1\n      div\n      0xffffffff\n      and\n      dup1\n      swap3\n      swap2\n      swap1\n      tag_238\n      swap1\n      tag_109\n      jump\t// in\n    tag_238:\n      swap2\n      swap1\n      0x0100\n      exp\n      dup2\n      sload\n      dup2\n      0xffffffff\n      mul\n      not\n      and\n      swap1\n      dup4\n      0xffffffff\n      and\n      mul\n      or\n      swap1\n      sstore\n      pop\n      pop\n        /* \"contracts/authority.sol\":7942:7953  _governance */\n      0x06\n        /* \"contracts/authority.sol\":7942:7959  _governance.nonce */\n      0x00\n      add\n      0x15\n      swap1\n      sload\n      swap1\n      0x0100\n      exp\n      swap1\n      div\n      0xffffffff\n      and\n        /* \"contracts/authority.sol\":7893:7960  TheNewGCAddressWasConfirmed(_governance.roleAdd, _governance.nonce) */\n      0xffffffff\n      and\n        /* \"contracts/authority.sol\":7921:7932  _governance */\n      0x06\n        /* \"contracts/authority.sol\":7921:7940  _governance.roleAdd */\n      0x00\n      add\n      0x00\n      swap1\n      sload\n      swap1\n      0x0100\n      exp\n      swap1\n      div\n      0xffffffffffffffffffffffffffffffffffffffff\n      and\n        /* \"contracts/authority.sol\":7893:7960  TheNewGCAddressWasConfirmed(_governance.roleAdd, _governance.nonce) */\n      0xffffffffffffffffffffffffffffffffffffffff\n      and\n      0x5e86008a8467d1efccfe6cb6bd49ba7278d6af2745a1e6994e443322a4237093\n      mload(0x40)\n      mload(0x40)\n      dup1\n      swap2\n      sub\n      swap1\n      log3\n        /* \"contracts/authority.sol\":7712:8026  if (_pendingGCAddress == pendingGCAdd) {... */\n      jump(tag_239)\n    tag_237:\n        /* \"contracts/authority.sol\":8013:8025  pendingGCAdd */\n      dup1\n        /* \"contracts/authority.sol\":7987:8026  TheAddressIsNotValidForGC(pendingGCAdd) */\n      mload(0x40)\n      0x84dbc6cb00000000000000000000000000000000000000000000000000000000\n      dup2\n      mstore\n      0x04\n      add\n      tag_240\n      swap2\n      swap1\n      tag_40\n      jump\t// in\n    tag_240:\n      mload(0x40)\n      dup1\n      swap2\n      sub\n      swap1\n      revert\n        /* \"contracts/authority.sol\":7712:8026  if (_pendingGCAddress == pendingGCAdd) {... */\n    tag_239:\n        /* \"contracts/authority.sol\":7615:8034  function transferGovernanceContractAddress(address pendingGCAdd) public onlyPresident {... */\n      pop\n      jump\t// out\n        /* \"contracts/authority.sol\":8413:8525  function setPrimeMinisterBaned(bool baned) public onlyPresident {... */\n    tag_88:\n        /* \"contracts/authority.sol\":2905:2922  getPresidentAdd() */\n      tag_242\n        /* \"contracts/authority.sol\":2905:2920  getPresidentAdd */\n      tag_51\n        /* \"contracts/authority.sol\":2905:2922  getPresidentAdd() */\n      jump\t// in\n    tag_242:\n        /* \"contracts/authority.sol\":2891:2922  msg.sender == getPresidentAdd() */\n      0xffffffffffffffffffffffffffffffffffffffff\n      and\n        /* \"contracts/authority.sol\":2891:2901  msg.sender */\n      caller\n        /* \"contracts/authority.sol\":2891:2922  msg.sender == getPresidentAdd() */\n      0xffffffffffffffffffffffffffffffffffffffff\n      and\n      eq\n        /* \"contracts/authority.sol\":2891:2944  msg.sender == getPresidentAdd() && !getPresidentBan() */\n      dup1\n      iszero\n      tag_243\n      jumpi\n      pop\n        /* \"contracts/authority.sol\":2927:2944  getPresidentBan() */\n      tag_244\n        /* \"contracts/authority.sol\":2927:2942  getPresidentBan */\n      tag_54\n        /* \"contracts/authority.sol\":2927:2944  getPresidentBan() */\n      jump\t// in\n    tag_244:\n        /* \"contracts/authority.sol\":2926:2944  !getPresidentBan() */\n      iszero\n        /* \"contracts/authority.sol\":2891:2944  msg.sender == getPresidentAdd() && !getPresidentBan() */\n    tag_243:\n        /* \"contracts/authority.sol\":2883:2968  require(msg.sender == getPresidentAdd() && !getPresidentBan(), \"Access is not valid\") */\n      tag_245\n      jumpi\n      mload(0x40)\n      0x08c379a000000000000000000000000000000000000000000000000000000000\n      dup2\n      mstore\n      0x04\n      add\n      tag_246\n      swap1\n      tag_94\n      jump\t// in\n    tag_246:\n      mload(0x40)\n      dup1\n      swap2\n      sub\n      swap1\n      revert\n    tag_245:\n        /* \"contracts/authority.sol\":8488:8517  _setPrimeMinisterBaned(baned) */\n      tag_248\n        /* \"contracts/authority.sol\":8511:8516  baned */\n      dup2\n        /* \"contracts/authority.sol\":8488:8510  _setPrimeMinisterBaned */\n      tag_105\n        /* \"contracts/authority.sol\":8488:8517  _setPrimeMinisterBaned(baned) */\n      jump\t// in\n    tag_248:\n        /* \"contracts/authority.sol\":8413:8525  function setPrimeMinisterBaned(bool baned) public onlyPresident {... */\n      pop\n      jump\t// out\n        /* \"contracts/authority.sol\":8885:8976  function _setPresidentBaned(bool baned) private {... */\n    tag_103:\n        /* \"contracts/authority.sol\":8963:8968  baned */\n      dup1\n        /* \"contracts/authority.sol\":8944:8954  _president */\n      0x04\n        /* \"contracts/authority.sol\":8944:8960  _president.baned */\n      0x00\n      add\n      0x14\n        /* \"contracts/authority.sol\":8944:8968  _president.baned = baned */\n      0x0100\n      exp\n      dup2\n      sload\n      dup2\n      0xff\n      mul\n      not\n      and\n      swap1\n      dup4\n      iszero\n      iszero\n      mul\n      or\n      swap1\n      sstore\n      pop\n        /* \"contracts/authority.sol\":8885:8976  function _setPresidentBaned(bool baned) private {... */\n      pop\n      jump\t// out\n        /* \"contracts/authority.sol\":8984:9166  function _setPrimeMinisterBaned(bool baned) private {... */\n    tag_105:\n        /* \"contracts/authority.sol\":9070:9075  baned */\n      dup1\n        /* \"contracts/authority.sol\":9047:9061  _primeMinister */\n      0x05\n        /* \"contracts/authority.sol\":9047:9067  _primeMinister.baned */\n      0x00\n      add\n      0x14\n        /* \"contracts/authority.sol\":9047:9075  _primeMinister.baned = baned */\n      0x0100\n      exp\n      dup2\n      sload\n      dup2\n      0xff\n      mul\n      not\n      and\n      swap1\n      dup4\n      iszero\n      iszero\n      mul\n      or\n      swap1\n      sstore\n      pop\n        /* \"contracts/authority.sol\":9102:9113  _governance */\n      0x06\n        /* \"contracts/authority.sol\":9102:9121  _governance.roleAdd */\n      0x00\n      add\n      0x00\n      swap1\n      sload\n      swap1\n      0x0100\n      exp\n      swap1\n      div\n      0xffffffffffffffffffffffffffffffffffffffff\n      and\n        /* \"contracts/authority.sol\":9086:9131  Igovernance_set(_governance.roleAdd).setBaned */\n      0xffffffffffffffffffffffffffffffffffffffff\n      and\n      0x863ad595\n        /* \"contracts/authority.sol\":9132:9137  baned */\n      dup3\n        /* \"contracts/authority.sol\":9139:9140  4 */\n      0x04\n        /* \"contracts/authority.sol\":9086:9148  Igovernance_set(_governance.roleAdd).setBaned(baned, 4, \"All\") */\n      mload(0x40)\n      dup4\n      0xffffffff\n      and\n      0xe0\n      shl\n      dup2\n      mstore\n      0x04\n      add\n      tag_251\n      swap3\n      swap2\n      swap1\n      tag_252\n      jump\t// in\n    tag_251:\n      0x00\n      mload(0x40)\n      dup1\n      dup4\n      sub\n      dup2\n      0x00\n      dup8\n      dup1\n      extcodesize\n      iszero\n      dup1\n      iszero\n      tag_253\n      jumpi\n      0x00\n      dup1\n      revert\n    tag_253:\n      pop\n      gas\n      call\n      iszero\n      dup1\n      iszero\n      tag_255\n      jumpi\n      returndatasize\n      0x00\n      dup1\n      returndatacopy\n      revert(0x00, returndatasize)\n    tag_255:\n      pop\n      pop\n      pop\n      pop\n        /* \"contracts/authority.sol\":8984:9166  function _setPrimeMinisterBaned(bool baned) private {... */\n      pop\n      jump\t// out\n        /* \"contracts/authority.sol\":8537:8877  function _transferRepublicGAddress(address RGAddress) private {... */\n    tag_142:\n        /* \"contracts/authority.sol\":8626:8637  _governance */\n      0x06\n        /* \"contracts/authority.sol\":8626:8645  _governance.roleAdd */\n      0x00\n      add\n      0x00\n      swap1\n      sload\n      swap1\n      0x0100\n      exp\n      swap1\n      div\n      0xffffffffffffffffffffffffffffffffffffffff\n      and\n        /* \"contracts/authority.sol\":8610:8656  Igovernance_set(_governance.roleAdd).setCaller */\n      0xffffffffffffffffffffffffffffffffffffffff\n      and\n      0xc92a788c\n        /* \"contracts/authority.sol\":8657:8661  true */\n      0x01\n        /* \"contracts/authority.sol\":8663:8673  _RepublicG */\n      0x07\n        /* \"contracts/authority.sol\":8663:8681  _RepublicG.roleAdd */\n      0x00\n      add\n      0x00\n      swap1\n      sload\n      swap1\n      0x0100\n      exp\n      swap1\n      div\n      0xffffffffffffffffffffffffffffffffffffffff\n      and\n        /* \"contracts/authority.sol\":8683:8692  RGAddress */\n      dup5\n        /* \"contracts/authority.sol\":8701:8702  2 */\n      0x02\n        /* \"contracts/authority.sol\":8704:8710  1 days */\n      0x015180\n        /* \"contracts/authority.sol\":8610:8711  Igovernance_set(_governance.roleAdd).setCaller(true, _RepublicG.roleAdd, RGAddress, \"All\", 2, 1 days) */\n      mload(0x40)\n      dup7\n      0xffffffff\n      and\n      0xe0\n      shl\n      dup2\n      mstore\n      0x04\n      add\n      tag_257\n      swap6\n      swap5\n      swap4\n      swap3\n      swap2\n      swap1\n      tag_258\n      jump\t// in\n    tag_257:\n      0x00\n      mload(0x40)\n      dup1\n      dup4\n      sub\n      dup2\n      0x00\n      dup8\n      dup1\n      extcodesize\n      iszero\n      dup1\n      iszero\n      tag_259\n      jumpi\n      0x00\n      dup1\n      revert\n    tag_259:\n      pop\n      gas\n      call\n      iszero\n      dup1\n      iszero\n      tag_261\n      jumpi\n      returndatasize\n      0x00\n      dup1\n      returndatacopy\n      revert(0x00, returndatasize)\n    tag_261:\n      pop\n      pop\n      pop\n      pop\n        /* \"contracts/authority.sol\":8743:8752  RGAddress */\n      dup1\n        /* \"contracts/authority.sol\":8722:8732  _RepublicG */\n      0x07\n        /* \"contracts/authority.sol\":8722:8740  _RepublicG.roleAdd */\n      0x00\n      add\n      0x00\n        /* \"contracts/authority.sol\":8722:8752  _RepublicG.roleAdd = RGAddress */\n      0x0100\n      exp\n      dup2\n      sload\n      dup2\n      0xffffffffffffffffffffffffffffffffffffffff\n      mul\n      not\n      and\n      swap1\n      dup4\n      0xffffffffffffffffffffffffffffffffffffffff\n      and\n      mul\n      or\n      swap1\n      sstore\n      pop\n        /* \"contracts/authority.sol\":8763:8773  _RepublicG */\n      0x07\n        /* \"contracts/authority.sol\":8763:8779  _RepublicG.nonce */\n      0x00\n      add\n      0x15\n        /* \"contracts/authority.sol\":8763:8781  _RepublicG.nonce++ */\n      dup2\n      dup2\n      swap1\n      sload\n      swap1\n      0x0100\n      exp\n      swap1\n      div\n      0xffffffff\n      and\n      dup1\n      swap3\n      swap2\n      swap1\n      tag_262\n      swap1\n      tag_109\n      jump\t// in\n    tag_262:\n      swap2\n      swap1\n      0x0100\n      exp\n      dup2\n      sload\n      dup2\n      0xffffffff\n      mul\n      not\n      and\n      swap1\n      dup4\n      0xffffffff\n      and\n      mul\n      or\n      swap1\n      sstore\n      pop\n      pop\n        /* \"contracts/authority.sol\":8852:8862  _RepublicG */\n      0x07\n        /* \"contracts/authority.sol\":8852:8868  _RepublicG.nonce */\n      0x00\n      add\n      0x15\n      swap1\n      sload\n      swap1\n      0x0100\n      exp\n      swap1\n      div\n      0xffffffff\n      and\n        /* \"contracts/authority.sol\":8797:8869  TheNewRepublicGAddressWasConfirmed(_RepublicG.roleAdd, _RepublicG.nonce) */\n      0xffffffff\n      and\n        /* \"contracts/authority.sol\":8832:8842  _RepublicG */\n      0x07\n        /* \"contracts/authority.sol\":8832:8850  _RepublicG.roleAdd */\n      0x00\n      add\n      0x00\n      swap1\n      sload\n      swap1\n      0x0100\n      exp\n      swap1\n      div\n      0xffffffffffffffffffffffffffffffffffffffff\n      and\n        /* \"contracts/authority.sol\":8797:8869  TheNewRepublicGAddressWasConfirmed(_RepublicG.roleAdd, _RepublicG.nonce) */\n      0xffffffffffffffffffffffffffffffffffffffff\n      and\n      0xb88ef4c2b55163ed88bcf28dadfee0092169b7a9a712ceb09ff75e6d2d4ba63b\n      mload(0x40)\n      mload(0x40)\n      dup1\n      swap2\n      sub\n      swap1\n      log3\n        /* \"contracts/authority.sol\":8537:8877  function _transferRepublicGAddress(address RGAddress) private {... */\n      pop\n      jump\t// out\n        /* \"#utility.yul\":88:205   */\n    tag_264:\n        /* \"#utility.yul\":197:198   */\n      0x00\n        /* \"#utility.yul\":194:195   */\n      dup1\n        /* \"#utility.yul\":187:199   */\n      revert\n        /* \"#utility.yul\":334:460   */\n    tag_266:\n        /* \"#utility.yul\":371:378   */\n      0x00\n        /* \"#utility.yul\":411:453   */\n      0xffffffffffffffffffffffffffffffffffffffff\n        /* \"#utility.yul\":404:409   */\n      dup3\n        /* \"#utility.yul\":400:454   */\n      and\n        /* \"#utility.yul\":389:454   */\n      swap1\n      pop\n        /* \"#utility.yul\":334:460   */\n      swap2\n      swap1\n      pop\n      jump\t// out\n        /* \"#utility.yul\":466:562   */\n    tag_267:\n        /* \"#utility.yul\":503:510   */\n      0x00\n        /* \"#utility.yul\":532:556   */\n      tag_303\n        /* \"#utility.yul\":550:555   */\n      dup3\n        /* \"#utility.yul\":532:556   */\n      tag_266\n      jump\t// in\n    tag_303:\n        /* \"#utility.yul\":521:556   */\n      swap1\n      pop\n        /* \"#utility.yul\":466:562   */\n      swap2\n      swap1\n      pop\n      jump\t// out\n        /* \"#utility.yul\":568:690   */\n    tag_268:\n        /* \"#utility.yul\":641:665   */\n      tag_305\n        /* \"#utility.yul\":659:664   */\n      dup2\n        /* \"#utility.yul\":641:665   */\n      tag_267\n      jump\t// in\n    tag_305:\n        /* \"#utility.yul\":634:639   */\n      dup2\n        /* \"#utility.yul\":631:666   */\n      eq\n        /* \"#utility.yul\":621:684   */\n      tag_306\n      jumpi\n        /* \"#utility.yul\":680:681   */\n      0x00\n        /* \"#utility.yul\":677:678   */\n      dup1\n        /* \"#utility.yul\":670:682   */\n      revert\n        /* \"#utility.yul\":621:684   */\n    tag_306:\n        /* \"#utility.yul\":568:690   */\n      pop\n      jump\t// out\n        /* \"#utility.yul\":696:835   */\n    tag_269:\n        /* \"#utility.yul\":742:747   */\n      0x00\n        /* \"#utility.yul\":780:786   */\n      dup2\n        /* \"#utility.yul\":767:787   */\n      calldataload\n        /* \"#utility.yul\":758:787   */\n      swap1\n      pop\n        /* \"#utility.yul\":796:829   */\n      tag_308\n        /* \"#utility.yul\":823:828   */\n      dup2\n        /* \"#utility.yul\":796:829   */\n      tag_268\n      jump\t// in\n    tag_308:\n        /* \"#utility.yul\":696:835   */\n      swap3\n      swap2\n      pop\n      pop\n      jump\t// out\n        /* \"#utility.yul\":841:1170   */\n    tag_28:\n        /* \"#utility.yul\":900:906   */\n      0x00\n        /* \"#utility.yul\":949:951   */\n      0x20\n        /* \"#utility.yul\":937:946   */\n      dup3\n        /* \"#utility.yul\":928:935   */\n      dup5\n        /* \"#utility.yul\":924:947   */\n      sub\n        /* \"#utility.yul\":920:952   */\n      slt\n        /* \"#utility.yul\":917:1036   */\n      iszero\n      tag_310\n      jumpi\n        /* \"#utility.yul\":955:1034   */\n      tag_311\n      tag_264\n      jump\t// in\n    tag_311:\n        /* \"#utility.yul\":917:1036   */\n    tag_310:\n        /* \"#utility.yul\":1075:1076   */\n      0x00\n        /* \"#utility.yul\":1100:1153   */\n      tag_312\n        /* \"#utility.yul\":1145:1152   */\n      dup5\n        /* \"#utility.yul\":1136:1142   */\n      dup3\n        /* \"#utility.yul\":1125:1134   */\n      dup6\n        /* \"#utility.yul\":1121:1143   */\n      add\n        /* \"#utility.yul\":1100:1153   */\n      tag_269\n      jump\t// in\n    tag_312:\n        /* \"#utility.yul\":1090:1153   */\n      swap2\n      pop\n        /* \"#utility.yul\":1046:1163   */\n      pop\n        /* \"#utility.yul\":841:1170   */\n      swap3\n      swap2\n      pop\n      pop\n      jump\t// out\n        /* \"#utility.yul\":1176:1294   */\n    tag_270:\n        /* \"#utility.yul\":1263:1287   */\n      tag_314\n        /* \"#utility.yul\":1281:1286   */\n      dup2\n        /* \"#utility.yul\":1263:1287   */\n      tag_267\n      jump\t// in\n    tag_314:\n        /* \"#utility.yul\":1258:1261   */\n      dup3\n        /* \"#utility.yul\":1251:1288   */\n      mstore\n        /* \"#utility.yul\":1176:1294   */\n      pop\n      pop\n      jump\t// out\n        /* \"#utility.yul\":1300:1522   */\n    tag_40:\n        /* \"#utility.yul\":1393:1397   */\n      0x00\n        /* \"#utility.yul\":1431:1433   */\n      0x20\n        /* \"#utility.yul\":1420:1429   */\n      dup3\n        /* \"#utility.yul\":1416:1434   */\n      add\n        /* \"#utility.yul\":1408:1434   */\n      swap1\n      pop\n        /* \"#utility.yul\":1444:1515   */\n      tag_316\n        /* \"#utility.yul\":1512:1513   */\n      0x00\n        /* \"#utility.yul\":1501:1510   */\n      dup4\n        /* \"#utility.yul\":1497:1514   */\n      add\n        /* \"#utility.yul\":1488:1494   */\n      dup5\n        /* \"#utility.yul\":1444:1515   */\n      tag_270\n      jump\t// in\n    tag_316:\n        /* \"#utility.yul\":1300:1522   */\n      swap3\n      swap2\n      pop\n      pop\n      jump\t// out\n        /* \"#utility.yul\":1528:1618   */\n    tag_271:\n        /* \"#utility.yul\":1562:1569   */\n      0x00\n        /* \"#utility.yul\":1605:1610   */\n      dup2\n        /* \"#utility.yul\":1598:1611   */\n      iszero\n        /* \"#utility.yul\":1591:1612   */\n      iszero\n        /* \"#utility.yul\":1580:1612   */\n      swap1\n      pop\n        /* \"#utility.yul\":1528:1618   */\n      swap2\n      swap1\n      pop\n      jump\t// out\n        /* \"#utility.yul\":1624:1733   */\n    tag_272:\n        /* \"#utility.yul\":1705:1726   */\n      tag_319\n        /* \"#utility.yul\":1720:1725   */\n      dup2\n        /* \"#utility.yul\":1705:1726   */\n      tag_271\n      jump\t// in\n    tag_319:\n        /* \"#utility.yul\":1700:1703   */\n      dup3\n        /* \"#utility.yul\":1693:1727   */\n      mstore\n        /* \"#utility.yul\":1624:1733   */\n      pop\n      pop\n      jump\t// out\n        /* \"#utility.yul\":1739:1949   */\n    tag_56:\n        /* \"#utility.yul\":1826:1830   */\n      0x00\n        /* \"#utility.yul\":1864:1866   */\n      0x20\n        /* \"#utility.yul\":1853:1862   */\n      dup3\n        /* \"#utility.yul\":1849:1867   */\n      add\n        /* \"#utility.yul\":1841:1867   */\n      swap1\n      pop\n        /* \"#utility.yul\":1877:1942   */\n      tag_321\n        /* \"#utility.yul\":1939:1940   */\n      0x00\n        /* \"#utility.yul\":1928:1937   */\n      dup4\n        /* \"#utility.yul\":1924:1941   */\n      add\n        /* \"#utility.yul\":1915:1921   */\n      dup5\n        /* \"#utility.yul\":1877:1942   */\n      tag_272\n      jump\t// in\n    tag_321:\n        /* \"#utility.yul\":1739:1949   */\n      swap3\n      swap2\n      pop\n      pop\n      jump\t// out\n        /* \"#utility.yul\":1955:2071   */\n    tag_273:\n        /* \"#utility.yul\":2025:2046   */\n      tag_323\n        /* \"#utility.yul\":2040:2045   */\n      dup2\n        /* \"#utility.yul\":2025:2046   */\n      tag_271\n      jump\t// in\n    tag_323:\n        /* \"#utility.yul\":2018:2023   */\n      dup2\n        /* \"#utility.yul\":2015:2047   */\n      eq\n        /* \"#utility.yul\":2005:2065   */\n      tag_324\n      jumpi\n        /* \"#utility.yul\":2061:2062   */\n      0x00\n        /* \"#utility.yul\":2058:2059   */\n      dup1\n        /* \"#utility.yul\":2051:2063   */\n      revert\n        /* \"#utility.yul\":2005:2065   */\n    tag_324:\n        /* \"#utility.yul\":1955:2071   */\n      pop\n      jump\t// out\n        /* \"#utility.yul\":2077:2210   */\n    tag_274:\n        /* \"#utility.yul\":2120:2125   */\n      0x00\n        /* \"#utility.yul\":2158:2164   */\n      dup2\n        /* \"#utility.yul\":2145:2165   */\n      calldataload\n        /* \"#utility.yul\":2136:2165   */\n      swap1\n      pop\n        /* \"#utility.yul\":2174:2204   */\n      tag_326\n        /* \"#utility.yul\":2198:2203   */\n      dup2\n        /* \"#utility.yul\":2174:2204   */\n      tag_273\n      jump\t// in\n    tag_326:\n        /* \"#utility.yul\":2077:2210   */\n      swap3\n      swap2\n      pop\n      pop\n      jump\t// out\n        /* \"#utility.yul\":2216:2539   */\n    tag_65:\n        /* \"#utility.yul\":2272:2278   */\n      0x00\n        /* \"#utility.yul\":2321:2323   */\n      0x20\n        /* \"#utility.yul\":2309:2318   */\n      dup3\n        /* \"#utility.yul\":2300:2307   */\n      dup5\n        /* \"#utility.yul\":2296:2319   */\n      sub\n        /* \"#utility.yul\":2292:2324   */\n      slt\n        /* \"#utility.yul\":2289:2408   */\n      iszero\n      tag_328\n      jumpi\n        /* \"#utility.yul\":2327:2406   */\n      tag_329\n      tag_264\n      jump\t// in\n    tag_329:\n        /* \"#utility.yul\":2289:2408   */\n    tag_328:\n        /* \"#utility.yul\":2447:2448   */\n      0x00\n        /* \"#utility.yul\":2472:2522   */\n      tag_330\n        /* \"#utility.yul\":2514:2521   */\n      dup5\n        /* \"#utility.yul\":2505:2511   */\n      dup3\n        /* \"#utility.yul\":2494:2503   */\n      dup6\n        /* \"#utility.yul\":2490:2512   */\n      add\n        /* \"#utility.yul\":2472:2522   */\n      tag_274\n      jump\t// in\n    tag_330:\n        /* \"#utility.yul\":2462:2522   */\n      swap2\n      pop\n        /* \"#utility.yul\":2418:2532   */\n      pop\n        /* \"#utility.yul\":2216:2539   */\n      swap3\n      swap2\n      pop\n      pop\n      jump\t// out\n        /* \"#utility.yul\":2545:2638   */\n    tag_275:\n        /* \"#utility.yul\":2581:2588   */\n      0x00\n        /* \"#utility.yul\":2621:2631   */\n      0xffffffff\n        /* \"#utility.yul\":2614:2619   */\n      dup3\n        /* \"#utility.yul\":2610:2632   */\n      and\n        /* \"#utility.yul\":2599:2632   */\n      swap1\n      pop\n        /* \"#utility.yul\":2545:2638   */\n      swap2\n      swap1\n      pop\n      jump\t// out\n        /* \"#utility.yul\":2644:2759   */\n    tag_276:\n        /* \"#utility.yul\":2729:2752   */\n      tag_333\n        /* \"#utility.yul\":2746:2751   */\n      dup2\n        /* \"#utility.yul\":2729:2752   */\n      tag_275\n      jump\t// in\n    tag_333:\n        /* \"#utility.yul\":2724:2727   */\n      dup3\n        /* \"#utility.yul\":2717:2753   */\n      mstore\n        /* \"#utility.yul\":2644:2759   */\n      pop\n      pop\n      jump\t// out\n        /* \"#utility.yul\":2765:2983   */\n    tag_70:\n        /* \"#utility.yul\":2856:2860   */\n      0x00\n        /* \"#utility.yul\":2894:2896   */\n      0x20\n        /* \"#utility.yul\":2883:2892   */\n      dup3\n        /* \"#utility.yul\":2879:2897   */\n      add\n        /* \"#utility.yul\":2871:2897   */\n      swap1\n      pop\n        /* \"#utility.yul\":2907:2976   */\n      tag_335\n        /* \"#utility.yul\":2973:2974   */\n      0x00\n        /* \"#utility.yul\":2962:2971   */\n      dup4\n        /* \"#utility.yul\":2958:2975   */\n      add\n        /* \"#utility.yul\":2949:2955   */\n      dup5\n        /* \"#utility.yul\":2907:2976   */\n      tag_276\n      jump\t// in\n    tag_335:\n        /* \"#utility.yul\":2765:2983   */\n      swap3\n      swap2\n      pop\n      pop\n      jump\t// out\n        /* \"#utility.yul\":2989:3158   */\n    tag_277:\n        /* \"#utility.yul\":3073:3084   */\n      0x00\n        /* \"#utility.yul\":3107:3113   */\n      dup3\n        /* \"#utility.yul\":3102:3105   */\n      dup3\n        /* \"#utility.yul\":3095:3114   */\n      mstore\n        /* \"#utility.yul\":3147:3151   */\n      0x20\n        /* \"#utility.yul\":3142:3145   */\n      dup3\n        /* \"#utility.yul\":3138:3152   */\n      add\n        /* \"#utility.yul\":3123:3152   */\n      swap1\n      pop\n        /* \"#utility.yul\":2989:3158   */\n      swap3\n      swap2\n      pop\n      pop\n      jump\t// out\n        /* \"#utility.yul\":3164:3333   */\n    tag_278:\n        /* \"#utility.yul\":3304:3325   */\n      0x416363657373206973206e6f742076616c696400000000000000000000000000\n        /* \"#utility.yul\":3300:3301   */\n      0x00\n        /* \"#utility.yul\":3292:3298   */\n      dup3\n        /* \"#utility.yul\":3288:3302   */\n      add\n        /* \"#utility.yul\":3281:3326   */\n      mstore\n        /* \"#utility.yul\":3164:3333   */\n      pop\n      jump\t// out\n        /* \"#utility.yul\":3339:3705   */\n    tag_279:\n        /* \"#utility.yul\":3481:3484   */\n      0x00\n        /* \"#utility.yul\":3502:3569   */\n      tag_339\n        /* \"#utility.yul\":3566:3568   */\n      0x13\n        /* \"#utility.yul\":3561:3564   */\n      dup4\n        /* \"#utility.yul\":3502:3569   */\n      tag_277\n      jump\t// in\n    tag_339:\n        /* \"#utility.yul\":3495:3569   */\n      swap2\n      pop\n        /* \"#utility.yul\":3578:3671   */\n      tag_340\n        /* \"#utility.yul\":3667:3670   */\n      dup3\n        /* \"#utility.yul\":3578:3671   */\n      tag_278\n      jump\t// in\n    tag_340:\n        /* \"#utility.yul\":3696:3698   */\n      0x20\n        /* \"#utility.yul\":3691:3694   */\n      dup3\n        /* \"#utility.yul\":3687:3699   */\n      add\n        /* \"#utility.yul\":3680:3699   */\n      swap1\n      pop\n        /* \"#utility.yul\":3339:3705   */\n      swap2\n      swap1\n      pop\n      jump\t// out\n        /* \"#utility.yul\":3711:4130   */\n    tag_94:\n        /* \"#utility.yul\":3877:3881   */\n      0x00\n        /* \"#utility.yul\":3915:3917   */\n      0x20\n        /* \"#utility.yul\":3904:3913   */\n      dup3\n        /* \"#utility.yul\":3900:3918   */\n      add\n        /* \"#utility.yul\":3892:3918   */\n      swap1\n      pop\n        /* \"#utility.yul\":3964:3973   */\n      dup2\n        /* \"#utility.yul\":3958:3962   */\n      dup2\n        /* \"#utility.yul\":3954:3974   */\n      sub\n        /* \"#utility.yul\":3950:3951   */\n      0x00\n        /* \"#utility.yul\":3939:3948   */\n      dup4\n        /* \"#utility.yul\":3935:3952   */\n      add\n        /* \"#utility.yul\":3928:3975   */\n      mstore\n        /* \"#utility.yul\":3992:4123   */\n      tag_342\n        /* \"#utility.yul\":4118:4122   */\n      dup2\n        /* \"#utility.yul\":3992:4123   */\n      tag_279\n      jump\t// in\n    tag_342:\n        /* \"#utility.yul\":3984:4123   */\n      swap1\n      pop\n        /* \"#utility.yul\":3711:4130   */\n      swap2\n      swap1\n      pop\n      jump\t// out\n        /* \"#utility.yul\":4136:4316   */\n    tag_280:\n        /* \"#utility.yul\":4184:4261   */\n      0x4e487b7100000000000000000000000000000000000000000000000000000000\n        /* \"#utility.yul\":4181:4182   */\n      0x00\n        /* \"#utility.yul\":4174:4262   */\n      mstore\n        /* \"#utility.yul\":4281:4285   */\n      0x11\n        /* \"#utility.yul\":4278:4279   */\n      0x04\n        /* \"#utility.yul\":4271:4286   */\n      mstore\n        /* \"#utility.yul\":4305:4309   */\n      0x24\n        /* \"#utility.yul\":4302:4303   */\n      0x00\n        /* \"#utility.yul\":4295:4310   */\n      revert\n        /* \"#utility.yul\":4322:4497   */\n    tag_109:\n        /* \"#utility.yul\":4360:4363   */\n      0x00\n        /* \"#utility.yul\":4383:4406   */\n      tag_345\n        /* \"#utility.yul\":4400:4405   */\n      dup3\n        /* \"#utility.yul\":4383:4406   */\n      tag_275\n      jump\t// in\n    tag_345:\n        /* \"#utility.yul\":4374:4406   */\n      swap2\n      pop\n        /* \"#utility.yul\":4428:4438   */\n      0xffffffff\n        /* \"#utility.yul\":4421:4426   */\n      dup3\n        /* \"#utility.yul\":4418:4439   */\n      sub\n        /* \"#utility.yul\":4415:4462   */\n      tag_346\n      jumpi\n        /* \"#utility.yul\":4442:4460   */\n      tag_347\n      tag_280\n      jump\t// in\n    tag_347:\n        /* \"#utility.yul\":4415:4462   */\n    tag_346:\n        /* \"#utility.yul\":4489:4490   */\n      0x01\n        /* \"#utility.yul\":4482:4487   */\n      dup3\n        /* \"#utility.yul\":4478:4491   */\n      add\n        /* \"#utility.yul\":4471:4491   */\n      swap1\n      pop\n        /* \"#utility.yul\":4322:4497   */\n      swap2\n      swap1\n      pop\n      jump\t// out\n        /* \"#utility.yul\":4503:4666   */\n    tag_281:\n        /* \"#utility.yul\":4654:4659   */\n      0x416c6c0000000000000000000000000000000000000000000000000000000000\n        /* \"#utility.yul\":4649:4652   */\n      dup2\n        /* \"#utility.yul\":4642:4660   */\n      mstore\n        /* \"#utility.yul\":4503:4666   */\n      pop\n      jump\t// out\n        /* \"#utility.yul\":4672:4757   */\n    tag_282:\n        /* \"#utility.yul\":4717:4724   */\n      0x00\n        /* \"#utility.yul\":4746:4751   */\n      dup2\n        /* \"#utility.yul\":4735:4751   */\n      swap1\n      pop\n        /* \"#utility.yul\":4672:4757   */\n      swap2\n      swap1\n      pop\n      jump\t// out\n        /* \"#utility.yul\":4763:4823   */\n    tag_283:\n        /* \"#utility.yul\":4791:4794   */\n      0x00\n        /* \"#utility.yul\":4812:4817   */\n      dup2\n        /* \"#utility.yul\":4805:4817   */\n      swap1\n      pop\n        /* \"#utility.yul\":4763:4823   */\n      swap2\n      swap1\n      pop\n      jump\t// out\n        /* \"#utility.yul\":4829:4985   */\n    tag_284:\n        /* \"#utility.yul\":4886:4895   */\n      0x00\n        /* \"#utility.yul\":4919:4979   */\n      tag_352\n        /* \"#utility.yul\":4936:4978   */\n      tag_353\n        /* \"#utility.yul\":4945:4977   */\n      tag_354\n        /* \"#utility.yul\":4971:4976   */\n      dup5\n        /* \"#utility.yul\":4945:4977   */\n      tag_282\n      jump\t// in\n    tag_354:\n        /* \"#utility.yul\":4936:4978   */\n      tag_283\n      jump\t// in\n    tag_353:\n        /* \"#utility.yul\":4919:4979   */\n      tag_275\n      jump\t// in\n    tag_352:\n        /* \"#utility.yul\":4906:4979   */\n      swap1\n      pop\n        /* \"#utility.yul\":4829:4985   */\n      swap2\n      swap1\n      pop\n      jump\t// out\n        /* \"#utility.yul\":4991:5136   */\n    tag_285:\n        /* \"#utility.yul\":5085:5129   */\n      tag_356\n        /* \"#utility.yul\":5123:5128   */\n      dup2\n        /* \"#utility.yul\":5085:5129   */\n      tag_284\n      jump\t// in\n    tag_356:\n        /* \"#utility.yul\":5080:5083   */\n      dup3\n        /* \"#utility.yul\":5073:5130   */\n      mstore\n        /* \"#utility.yul\":4991:5136   */\n      pop\n      pop\n      jump\t// out\n        /* \"#utility.yul\":5142:5231   */\n    tag_286:\n        /* \"#utility.yul\":5191:5198   */\n      0x00\n        /* \"#utility.yul\":5220:5225   */\n      dup2\n        /* \"#utility.yul\":5209:5225   */\n      swap1\n      pop\n        /* \"#utility.yul\":5142:5231   */\n      swap2\n      swap1\n      pop\n      jump\t// out\n        /* \"#utility.yul\":5237:5334   */\n    tag_287:\n        /* \"#utility.yul\":5273:5280   */\n      0x00\n        /* \"#utility.yul\":5313:5327   */\n      0xffffffffffff\n        /* \"#utility.yul\":5306:5311   */\n      dup3\n        /* \"#utility.yul\":5302:5328   */\n      and\n        /* \"#utility.yul\":5291:5328   */\n      swap1\n      pop\n        /* \"#utility.yul\":5237:5334   */\n      swap2\n      swap1\n      pop\n      jump\t// out\n        /* \"#utility.yul\":5340:5504   */\n    tag_288:\n        /* \"#utility.yul\":5401:5410   */\n      0x00\n        /* \"#utility.yul\":5434:5498   */\n      tag_360\n        /* \"#utility.yul\":5451:5497   */\n      tag_361\n        /* \"#utility.yul\":5460:5496   */\n      tag_362\n        /* \"#utility.yul\":5490:5495   */\n      dup5\n        /* \"#utility.yul\":5460:5496   */\n      tag_286\n      jump\t// in\n    tag_362:\n        /* \"#utility.yul\":5451:5497   */\n      tag_283\n      jump\t// in\n    tag_361:\n        /* \"#utility.yul\":5434:5498   */\n      tag_287\n      jump\t// in\n    tag_360:\n        /* \"#utility.yul\":5421:5498   */\n      swap1\n      pop\n        /* \"#utility.yul\":5340:5504   */\n      swap2\n      swap1\n      pop\n      jump\t// out\n        /* \"#utility.yul\":5510:5663   */\n    tag_289:\n        /* \"#utility.yul\":5608:5656   */\n      tag_364\n        /* \"#utility.yul\":5650:5655   */\n      dup2\n        /* \"#utility.yul\":5608:5656   */\n      tag_288\n      jump\t// in\n    tag_364:\n        /* \"#utility.yul\":5603:5606   */\n      dup3\n        /* \"#utility.yul\":5596:5657   */\n      mstore\n        /* \"#utility.yul\":5510:5663   */\n      pop\n      pop\n      jump\t// out\n        /* \"#utility.yul\":5669:6594   */\n    tag_116:\n        /* \"#utility.yul\":5977:5981   */\n      0x00\n        /* \"#utility.yul\":6015:6018   */\n      0xc0\n        /* \"#utility.yul\":6004:6013   */\n      dup3\n        /* \"#utility.yul\":6000:6019   */\n      add\n        /* \"#utility.yul\":5992:6019   */\n      swap1\n      pop\n        /* \"#utility.yul\":6029:6094   */\n      tag_366\n        /* \"#utility.yul\":6091:6092   */\n      0x00\n        /* \"#utility.yul\":6080:6089   */\n      dup4\n        /* \"#utility.yul\":6076:6093   */\n      add\n        /* \"#utility.yul\":6067:6073   */\n      dup9\n        /* \"#utility.yul\":6029:6094   */\n      tag_272\n      jump\t// in\n    tag_366:\n        /* \"#utility.yul\":6104:6176   */\n      tag_367\n        /* \"#utility.yul\":6172:6174   */\n      0x20\n        /* \"#utility.yul\":6161:6170   */\n      dup4\n        /* \"#utility.yul\":6157:6175   */\n      add\n        /* \"#utility.yul\":6148:6154   */\n      dup8\n        /* \"#utility.yul\":6104:6176   */\n      tag_270\n      jump\t// in\n    tag_367:\n        /* \"#utility.yul\":6186:6258   */\n      tag_368\n        /* \"#utility.yul\":6254:6256   */\n      0x40\n        /* \"#utility.yul\":6243:6252   */\n      dup4\n        /* \"#utility.yul\":6239:6257   */\n      add\n        /* \"#utility.yul\":6230:6236   */\n      dup7\n        /* \"#utility.yul\":6186:6258   */\n      tag_270\n      jump\t// in\n    tag_368:\n        /* \"#utility.yul\":6268:6403   */\n      tag_369\n        /* \"#utility.yul\":6399:6401   */\n      0x60\n        /* \"#utility.yul\":6388:6397   */\n      dup4\n        /* \"#utility.yul\":6384:6402   */\n      add\n        /* \"#utility.yul\":6268:6403   */\n      tag_281\n      jump\t// in\n    tag_369:\n        /* \"#utility.yul\":6413:6493   */\n      tag_370\n        /* \"#utility.yul\":6488:6491   */\n      0x80\n        /* \"#utility.yul\":6477:6486   */\n      dup4\n        /* \"#utility.yul\":6473:6492   */\n      add\n        /* \"#utility.yul\":6464:6470   */\n      dup6\n        /* \"#utility.yul\":6413:6493   */\n      tag_285\n      jump\t// in\n    tag_370:\n        /* \"#utility.yul\":6503:6587   */\n      tag_371\n        /* \"#utility.yul\":6582:6585   */\n      0xa0\n        /* \"#utility.yul\":6571:6580   */\n      dup4\n        /* \"#utility.yul\":6567:6586   */\n      add\n        /* \"#utility.yul\":6558:6564   */\n      dup5\n        /* \"#utility.yul\":6503:6587   */\n      tag_289\n      jump\t// in\n    tag_371:\n        /* \"#utility.yul\":5669:6594   */\n      swap7\n      swap6\n      pop\n      pop\n      pop\n      pop\n      pop\n      pop\n      jump\t// out\n        /* \"#utility.yul\":6600:6772   */\n    tag_290:\n        /* \"#utility.yul\":6740:6764   */\n      0x546865207265717565737420697320696e76616c696400000000000000000000\n        /* \"#utility.yul\":6736:6737   */\n      0x00\n        /* \"#utility.yul\":6728:6734   */\n      dup3\n        /* \"#utility.yul\":6724:6738   */\n      add\n        /* \"#utility.yul\":6717:6765   */\n      mstore\n        /* \"#utility.yul\":6600:6772   */\n      pop\n      jump\t// out\n        /* \"#utility.yul\":6778:7144   */\n    tag_291:\n        /* \"#utility.yul\":6920:6923   */\n      0x00\n        /* \"#utility.yul\":6941:7008   */\n      tag_374\n        /* \"#utility.yul\":7005:7007   */\n      0x16\n        /* \"#utility.yul\":7000:7003   */\n      dup4\n        /* \"#utility.yul\":6941:7008   */\n      tag_277\n      jump\t// in\n    tag_374:\n        /* \"#utility.yul\":6934:7008   */\n      swap2\n      pop\n        /* \"#utility.yul\":7017:7110   */\n      tag_375\n        /* \"#utility.yul\":7106:7109   */\n      dup3\n        /* \"#utility.yul\":7017:7110   */\n      tag_290\n      jump\t// in\n    tag_375:\n        /* \"#utility.yul\":7135:7137   */\n      0x20\n        /* \"#utility.yul\":7130:7133   */\n      dup3\n        /* \"#utility.yul\":7126:7138   */\n      add\n        /* \"#utility.yul\":7119:7138   */\n      swap1\n      pop\n        /* \"#utility.yul\":6778:7144   */\n      swap2\n      swap1\n      pop\n      jump\t// out\n        /* \"#utility.yul\":7150:7569   */\n    tag_139:\n        /* \"#utility.yul\":7316:7320   */\n      0x00\n        /* \"#utility.yul\":7354:7356   */\n      0x20\n        /* \"#utility.yul\":7343:7352   */\n      dup3\n        /* \"#utility.yul\":7339:7357   */\n      add\n        /* \"#utility.yul\":7331:7357   */\n      swap1\n      pop\n        /* \"#utility.yul\":7403:7412   */\n      dup2\n        /* \"#utility.yul\":7397:7401   */\n      dup2\n        /* \"#utility.yul\":7393:7413   */\n      sub\n        /* \"#utility.yul\":7389:7390   */\n      0x00\n        /* \"#utility.yul\":7378:7387   */\n      dup4\n        /* \"#utility.yul\":7374:7391   */\n      add\n        /* \"#utility.yul\":7367:7414   */\n      mstore\n        /* \"#utility.yul\":7431:7562   */\n      tag_377\n        /* \"#utility.yul\":7557:7561   */\n      dup2\n        /* \"#utility.yul\":7431:7562   */\n      tag_291\n      jump\t// in\n    tag_377:\n        /* \"#utility.yul\":7423:7562   */\n      swap1\n      pop\n        /* \"#utility.yul\":7150:7569   */\n      swap2\n      swap1\n      pop\n      jump\t// out\n        /* \"#utility.yul\":7575:7779   */\n    tag_147:\n        /* \"#utility.yul\":7614:7618   */\n      0x00\n        /* \"#utility.yul\":7634:7653   */\n      tag_379\n        /* \"#utility.yul\":7651:7652   */\n      dup3\n        /* \"#utility.yul\":7634:7653   */\n      tag_287\n      jump\t// in\n    tag_379:\n        /* \"#utility.yul\":7629:7653   */\n      swap2\n      pop\n        /* \"#utility.yul\":7667:7686   */\n      tag_380\n        /* \"#utility.yul\":7684:7685   */\n      dup4\n        /* \"#utility.yul\":7667:7686   */\n      tag_287\n      jump\t// in\n    tag_380:\n        /* \"#utility.yul\":7662:7686   */\n      swap3\n      pop\n        /* \"#utility.yul\":7710:7711   */\n      dup3\n        /* \"#utility.yul\":7707:7708   */\n      dup3\n        /* \"#utility.yul\":7703:7712   */\n      sub\n        /* \"#utility.yul\":7695:7712   */\n      swap1\n      pop\n        /* \"#utility.yul\":7734:7748   */\n      0xffffffffffff\n        /* \"#utility.yul\":7728:7732   */\n      dup2\n        /* \"#utility.yul\":7725:7749   */\n      gt\n        /* \"#utility.yul\":7722:7772   */\n      iszero\n      tag_381\n      jumpi\n        /* \"#utility.yul\":7752:7770   */\n      tag_382\n      tag_280\n      jump\t// in\n    tag_382:\n        /* \"#utility.yul\":7722:7772   */\n    tag_381:\n        /* \"#utility.yul\":7575:7779   */\n      swap3\n      swap2\n      pop\n      pop\n      jump\t// out\n        /* \"#utility.yul\":7785:7900   */\n    tag_292:\n        /* \"#utility.yul\":7870:7893   */\n      tag_384\n        /* \"#utility.yul\":7887:7892   */\n      dup2\n        /* \"#utility.yul\":7870:7893   */\n      tag_287\n      jump\t// in\n    tag_384:\n        /* \"#utility.yul\":7865:7868   */\n      dup3\n        /* \"#utility.yul\":7858:7894   */\n      mstore\n        /* \"#utility.yul\":7785:7900   */\n      pop\n      pop\n      jump\t// out\n        /* \"#utility.yul\":7906:8124   */\n    tag_149:\n        /* \"#utility.yul\":7997:8001   */\n      0x00\n        /* \"#utility.yul\":8035:8037   */\n      0x20\n        /* \"#utility.yul\":8024:8033   */\n      dup3\n        /* \"#utility.yul\":8020:8038   */\n      add\n        /* \"#utility.yul\":8012:8038   */\n      swap1\n      pop\n        /* \"#utility.yul\":8048:8117   */\n      tag_386\n        /* \"#utility.yul\":8114:8115   */\n      0x00\n        /* \"#utility.yul\":8103:8112   */\n      dup4\n        /* \"#utility.yul\":8099:8116   */\n      add\n        /* \"#utility.yul\":8090:8096   */\n      dup5\n        /* \"#utility.yul\":8048:8117   */\n      tag_292\n      jump\t// in\n    tag_386:\n        /* \"#utility.yul\":7906:8124   */\n      swap3\n      swap2\n      pop\n      pop\n      jump\t// out\n        /* \"#utility.yul\":8130:8207   */\n    tag_293:\n        /* \"#utility.yul\":8167:8174   */\n      0x00\n        /* \"#utility.yul\":8196:8201   */\n      dup2\n        /* \"#utility.yul\":8185:8201   */\n      swap1\n      pop\n        /* \"#utility.yul\":8130:8207   */\n      swap2\n      swap1\n      pop\n      jump\t// out\n        /* \"#utility.yul\":8213:8404   */\n    tag_193:\n        /* \"#utility.yul\":8253:8256   */\n      0x00\n        /* \"#utility.yul\":8272:8292   */\n      tag_389\n        /* \"#utility.yul\":8290:8291   */\n      dup3\n        /* \"#utility.yul\":8272:8292   */\n      tag_293\n      jump\t// in\n    tag_389:\n        /* \"#utility.yul\":8267:8292   */\n      swap2\n      pop\n        /* \"#utility.yul\":8306:8326   */\n      tag_390\n        /* \"#utility.yul\":8324:8325   */\n      dup4\n        /* \"#utility.yul\":8306:8326   */\n      tag_293\n      jump\t// in\n    tag_390:\n        /* \"#utility.yul\":8301:8326   */\n      swap3\n      pop\n        /* \"#utility.yul\":8349:8350   */\n      dup3\n        /* \"#utility.yul\":8346:8347   */\n      dup3\n        /* \"#utility.yul\":8342:8351   */\n      add\n        /* \"#utility.yul\":8335:8351   */\n      swap1\n      pop\n        /* \"#utility.yul\":8370:8373   */\n      dup1\n        /* \"#utility.yul\":8367:8368   */\n      dup3\n        /* \"#utility.yul\":8364:8374   */\n      gt\n        /* \"#utility.yul\":8361:8397   */\n      iszero\n      tag_391\n      jumpi\n        /* \"#utility.yul\":8377:8395   */\n      tag_392\n      tag_280\n      jump\t// in\n    tag_392:\n        /* \"#utility.yul\":8361:8397   */\n    tag_391:\n        /* \"#utility.yul\":8213:8404   */\n      swap3\n      swap2\n      pop\n      pop\n      jump\t// out\n        /* \"#utility.yul\":8410:8980   */\n    tag_252:\n        /* \"#utility.yul\":8623:8627   */\n      0x00\n        /* \"#utility.yul\":8661:8663   */\n      0x60\n        /* \"#utility.yul\":8650:8659   */\n      dup3\n        /* \"#utility.yul\":8646:8664   */\n      add\n        /* \"#utility.yul\":8638:8664   */\n      swap1\n      pop\n        /* \"#utility.yul\":8674:8739   */\n      tag_394\n        /* \"#utility.yul\":8736:8737   */\n      0x00\n        /* \"#utility.yul\":8725:8734   */\n      dup4\n        /* \"#utility.yul\":8721:8738   */\n      add\n        /* \"#utility.yul\":8712:8718   */\n      dup6\n        /* \"#utility.yul\":8674:8739   */\n      tag_272\n      jump\t// in\n    tag_394:\n        /* \"#utility.yul\":8749:8828   */\n      tag_395\n        /* \"#utility.yul\":8824:8826   */\n      0x20\n        /* \"#utility.yul\":8813:8822   */\n      dup4\n        /* \"#utility.yul\":8809:8827   */\n      add\n        /* \"#utility.yul\":8800:8806   */\n      dup5\n        /* \"#utility.yul\":8749:8828   */\n      tag_285\n      jump\t// in\n    tag_395:\n        /* \"#utility.yul\":8838:8973   */\n      tag_396\n        /* \"#utility.yul\":8969:8971   */\n      0x40\n        /* \"#utility.yul\":8958:8967   */\n      dup4\n        /* \"#utility.yul\":8954:8972   */\n      add\n        /* \"#utility.yul\":8838:8973   */\n      tag_281\n      jump\t// in\n    tag_396:\n        /* \"#utility.yul\":8410:8980   */\n      swap4\n      swap3\n      pop\n      pop\n      pop\n      jump\t// out\n        /* \"#utility.yul\":8986:9071   */\n    tag_294:\n        /* \"#utility.yul\":9031:9038   */\n      0x00\n        /* \"#utility.yul\":9060:9065   */\n      dup2\n        /* \"#utility.yul\":9049:9065   */\n      swap1\n      pop\n        /* \"#utility.yul\":8986:9071   */\n      swap2\n      swap1\n      pop\n      jump\t// out\n        /* \"#utility.yul\":9077:9233   */\n    tag_295:\n        /* \"#utility.yul\":9134:9143   */\n      0x00\n        /* \"#utility.yul\":9167:9227   */\n      tag_399\n        /* \"#utility.yul\":9184:9226   */\n      tag_400\n        /* \"#utility.yul\":9193:9225   */\n      tag_401\n        /* \"#utility.yul\":9219:9224   */\n      dup5\n        /* \"#utility.yul\":9193:9225   */\n      tag_294\n      jump\t// in\n    tag_401:\n        /* \"#utility.yul\":9184:9226   */\n      tag_283\n      jump\t// in\n    tag_400:\n        /* \"#utility.yul\":9167:9227   */\n      tag_275\n      jump\t// in\n    tag_399:\n        /* \"#utility.yul\":9154:9227   */\n      swap1\n      pop\n        /* \"#utility.yul\":9077:9233   */\n      swap2\n      swap1\n      pop\n      jump\t// out\n        /* \"#utility.yul\":9239:9384   */\n    tag_296:\n        /* \"#utility.yul\":9333:9377   */\n      tag_403\n        /* \"#utility.yul\":9371:9376   */\n      dup2\n        /* \"#utility.yul\":9333:9377   */\n      tag_295\n      jump\t// in\n    tag_403:\n        /* \"#utility.yul\":9328:9331   */\n      dup3\n        /* \"#utility.yul\":9321:9378   */\n      mstore\n        /* \"#utility.yul\":9239:9384   */\n      pop\n      pop\n      jump\t// out\n        /* \"#utility.yul\":9390:10315   */\n    tag_258:\n        /* \"#utility.yul\":9698:9702   */\n      0x00\n        /* \"#utility.yul\":9736:9739   */\n      0xc0\n        /* \"#utility.yul\":9725:9734   */\n      dup3\n        /* \"#utility.yul\":9721:9740   */\n      add\n        /* \"#utility.yul\":9713:9740   */\n      swap1\n      pop\n        /* \"#utility.yul\":9750:9815   */\n      tag_405\n        /* \"#utility.yul\":9812:9813   */\n      0x00\n        /* \"#utility.yul\":9801:9810   */\n      dup4\n        /* \"#utility.yul\":9797:9814   */\n      add\n        /* \"#utility.yul\":9788:9794   */\n      dup9\n        /* \"#utility.yul\":9750:9815   */\n      tag_272\n      jump\t// in\n    tag_405:\n        /* \"#utility.yul\":9825:9897   */\n      tag_406\n        /* \"#utility.yul\":9893:9895   */\n      0x20\n        /* \"#utility.yul\":9882:9891   */\n      dup4\n        /* \"#utility.yul\":9878:9896   */\n      add\n        /* \"#utility.yul\":9869:9875   */\n      dup8\n        /* \"#utility.yul\":9825:9897   */\n      tag_270\n      jump\t// in\n    tag_406:\n        /* \"#utility.yul\":9907:9979   */\n      tag_407\n        /* \"#utility.yul\":9975:9977   */\n      0x40\n        /* \"#utility.yul\":9964:9973   */\n      dup4\n        /* \"#utility.yul\":9960:9978   */\n      add\n        /* \"#utility.yul\":9951:9957   */\n      dup7\n        /* \"#utility.yul\":9907:9979   */\n      tag_270\n      jump\t// in\n    tag_407:\n        /* \"#utility.yul\":9989:10124   */\n      tag_408\n        /* \"#utility.yul\":10120:10122   */\n      0x60\n        /* \"#utility.yul\":10109:10118   */\n      dup4\n        /* \"#utility.yul\":10105:10123   */\n      add\n        /* \"#utility.yul\":9989:10124   */\n      tag_281\n      jump\t// in\n    tag_408:\n        /* \"#utility.yul\":10134:10214   */\n      tag_409\n        /* \"#utility.yul\":10209:10212   */\n      0x80\n        /* \"#utility.yul\":10198:10207   */\n      dup4\n        /* \"#utility.yul\":10194:10213   */\n      add\n        /* \"#utility.yul\":10185:10191   */\n      dup6\n        /* \"#utility.yul\":10134:10214   */\n      tag_296\n      jump\t// in\n    tag_409:\n        /* \"#utility.yul\":10224:10308   */\n      tag_410\n        /* \"#utility.yul\":10303:10306   */\n      0xa0\n        /* \"#utility.yul\":10292:10301   */\n      dup4\n        /* \"#utility.yul\":10288:10307   */\n      add\n        /* \"#utility.yul\":10279:10285   */\n      dup5\n        /* \"#utility.yul\":10224:10308   */\n      tag_289\n      jump\t// in\n    tag_410:\n        /* \"#utility.yul\":9390:10315   */\n      swap7\n      swap6\n      pop\n      pop\n      pop\n      pop\n      pop\n      pop\n      jump\t// out\n\n    auxdata: 0xa26469706673582212208ba8f272da704b6b2403f37d4ac2949c4535ea9e35c02646db052a3776dacccb64736f6c63430008140033\n}\n",
				"bytecode": {
					"linkReferences": {},
					"object": "60c06040525f73ffffffffffffffffffffffffffffffffffffffff1660809073ffffffffffffffffffffffffffffffffffffffff1681525034801562000043575f80fd5b506316925e804262000056919062000130565b65ffffffffffff1660a08165ffffffffffff16815250503360045f015f6101000a81548173ffffffffffffffffffffffffffffffffffffffff021916908373ffffffffffffffffffffffffffffffffffffffff16021790555060045f01601581819054906101000a900463ffffffff1680929190620000d59062000179565b91906101000a81548163ffffffff021916908363ffffffff16021790555050620001a9565b5f819050919050565b7f4e487b71000000000000000000000000000000000000000000000000000000005f52601160045260245ffd5b5f6200013c82620000fa565b91506200014983620000fa565b925082820190508082111562000164576200016362000103565b5b92915050565b5f63ffffffff82169050919050565b5f62000185826200016a565b915063ffffffff82036200019e576200019d62000103565b5b600182019050919050565b60805160a0516121e6620001ee5f395f818161034f015281816109c201528181610d04015281816110970152818161137001526114f801525f6114d101526121e65ff3fe608060405234801561000f575f80fd5b506004361061012a575f3560e01c8063861a179d116100ab578063ca4cce681161006f578063ca4cce68146102bc578063e47a9d46146102d8578063e4f3e947146102f6578063ee7126c314610314578063f5f9cdd4146103305761012a565b8063861a179d1461022a578063a53da00b14610246578063b5c09c6814610264578063c387b49c14610280578063c5a1c5c11461029e5761012a565b806337676f79116100f257806337676f79146101985780634494acd9146101b6578063544fa93e146101d257806366410997146101ee5780636cf106d71461020c5761012a565b8063054203bd1461012e5780630df4c3901461014a57806318074eee146101545780631f86aa2a1461015e578063289b3c0d1461017a575b5f80fd5b61014860048036038101906101439190611cf1565b61034c565b005b610152610517565b005b61015c6106d7565b005b61017860048036038101906101739190611cf1565b6109bf565b005b610182610cad565b60405161018f9190611d2b565b60405180910390f35b6101a0610cd7565b6040516101ad9190611d2b565b60405180910390f35b6101d060048036038101906101cb9190611cf1565b610d01565b005b6101ec60048036038101906101e79190611cf1565b610f46565b005b6101f6611052565b6040516102039190611d2b565b60405180910390f35b61021461107c565b6040516102219190611d5e565b60405180910390f35b610244600480360381019061023f9190611cf1565b611094565b005b61024e611343565b60405161025b9190611d2b565b60405180910390f35b61027e60048036038101906102799190611da1565b61136d565b005b6102886114b3565b6040516102959190611dea565b60405180910390f35b6102a66114ce565b6040516102b39190611d2b565b60405180910390f35b6102d660048036038101906102d19190611cf1565b6114f5565b005b6102e061170d565b6040516102ed9190611d2b565b60405180910390f35b6102fe611714565b60405161030b9190611d5e565b60405180910390f35b61032e60048036038101906103299190611cf1565b61172c565b005b61034a60048036038101906103459190611da1565b611975565b005b427f000000000000000000000000000000000000000000000000000000000000000065ffffffffffff1610156103f6576103846114ce565b73ffffffffffffffffffffffffffffffffffffffff163373ffffffffffffffffffffffffffffffffffffffff16146103f1576040517f08c379a00000000000000000000000000000000000000000000000000000000081526004016103e890611e5d565b60405180910390fd5b61047d565b6103fe611052565b73ffffffffffffffffffffffffffffffffffffffff163373ffffffffffffffffffffffffffffffffffffffff1614801561043d575061043b61107c565b155b61047c576040517f08c379a000000000000000000000000000000000000000000000000000000000815260040161047390611e5d565b60405180910390fd5b5b8060025f6101000a81548173ffffffffffffffffffffffffffffffffffffffff021916908373ffffffffffffffffffffffffffffffffffffffff1602179055506104c76001611a07565b6104d16001611a26565b8073ffffffffffffffffffffffffffffffffffffffff167f3553f1f7ef0242113266a8d183b621bb87468c99237f36b1150b6ab3d688b68660405160405180910390a250565b3373ffffffffffffffffffffffffffffffffffffffff1660025f9054906101000a900473ffffffffffffffffffffffffffffffffffffffff1673ffffffffffffffffffffffffffffffffffffffff16036106a35760025f6101000a81549073ffffffffffffffffffffffffffffffffffffffff02191690553360045f015f6101000a81548173ffffffffffffffffffffffffffffffffffffffff021916908373ffffffffffffffffffffffffffffffffffffffff16021790555060045f01601581819054906101000a900463ffffffff16809291906105f590611ea8565b91906101000a81548163ffffffff021916908363ffffffff1602179055505061061d5f611a07565b60045f0160159054906101000a900463ffffffff1663ffffffff1660045f015f9054906101000a900473ffffffffffffffffffffffffffffffffffffffff1673ffffffffffffffffffffffffffffffffffffffff167f05ad9b3688012cd825c1bfb941e4f5afb2558af6af3deaddf01dbb5e85abdaf960405160405180910390a36106d5565b6040517f6c4360f000000000000000000000000000000000000000000000000000000000815260040160405180910390fd5b565b3373ffffffffffffffffffffffffffffffffffffffff1660035f9054906101000a900473ffffffffffffffffffffffffffffffffffffffff1673ffffffffffffffffffffffffffffffffffffffff160361098b5760035f6101000a81549073ffffffffffffffffffffffffffffffffffffffff02191690555f73ffffffffffffffffffffffffffffffffffffffff1660065f015f9054906101000a900473ffffffffffffffffffffffffffffffffffffffff1673ffffffffffffffffffffffffffffffffffffffff161461085f5760065f015f9054906101000a900473ffffffffffffffffffffffffffffffffffffffff1673ffffffffffffffffffffffffffffffffffffffff1663c92a788c600160055f015f9054906101000a900473ffffffffffffffffffffffffffffffffffffffff16336004620151806040518663ffffffff1660e01b8152600401610831959493929190611f85565b5f604051808303815f87803b158015610848575f80fd5b505af115801561085a573d5f803e3d5ffd5b505050505b3360055f015f6101000a81548173ffffffffffffffffffffffffffffffffffffffff021916908373ffffffffffffffffffffffffffffffffffffffff16021790555060055f01601581819054906101000a900463ffffffff16809291906108c590611ea8565b91906101000a81548163ffffffff021916908363ffffffff1602179055505060055f0160149054906101000a900460ff1615610905576109045f611a26565b5b60055f0160159054906101000a900463ffffffff1663ffffffff1660055f015f9054906101000a900473ffffffffffffffffffffffffffffffffffffffff1673ffffffffffffffffffffffffffffffffffffffff167f11e1b985c07e1bf3fec9bfd0bdb8c4a8e870ba2b26aa89fe50a6a19132ca10fd60405160405180910390a36109bd565b6040517f6c4360f000000000000000000000000000000000000000000000000000000000815260040160405180910390fd5b565b427f000000000000000000000000000000000000000000000000000000000000000065ffffffffffff161015610a69576109f76114ce565b73ffffffffffffffffffffffffffffffffffffffff163373ffffffffffffffffffffffffffffffffffffffff1614610a64576040517f08c379a0000000000000000000000000000000000000000000000000000000008152600401610a5b90611e5d565b60405180910390fd5b610af0565b610a71611052565b73ffffffffffffffffffffffffffffffffffffffff163373ffffffffffffffffffffffffffffffffffffffff16148015610ab05750610aae61107c565b155b610aef576040517f08c379a0000000000000000000000000000000000000000000000000000000008152600401610ae690611e5d565b60405180910390fd5b5b42600360149054906101000a900465ffffffffffff1665ffffffffffff161015610c4e575f600360149054906101000a900465ffffffffffff1665ffffffffffff1603610b72576040517f08c379a0000000000000000000000000000000000000000000000000000000008152600401610b699061202c565b60405180910390fd5b8073ffffffffffffffffffffffffffffffffffffffff165f8054906101000a900473ffffffffffffffffffffffffffffffffffffffff1673ffffffffffffffffffffffffffffffffffffffff1603610c0c57600360146101000a81549065ffffffffffff02191690555f806101000a81549073ffffffffffffffffffffffffffffffffffffffff0219169055610c0781611ad1565b610c49565b806040517fc6322315000000000000000000000000000000000000000000000000000000008152600401610c409190611d2b565b60405180910390fd5b610caa565b42600360149054906101000a900465ffffffffffff16610c6e919061204a565b6040517f223a6cbb000000000000000000000000000000000000000000000000000000008152600401610ca19190612092565b60405180910390fd5b50565b5f60065f015f9054906101000a900473ffffffffffffffffffffffffffffffffffffffff16905090565b5f60075f015f9054906101000a900473ffffffffffffffffffffffffffffffffffffffff16905090565b427f000000000000000000000000000000000000000000000000000000000000000065ffffffffffff161015610dab57610d396114ce565b73ffffffffffffffffffffffffffffffffffffffff163373ffffffffffffffffffffffffffffffffffffffff1614610da6576040517f08c379a0000000000000000000000000000000000000000000000000000000008152600401610d9d90611e5d565b60405180910390fd5b610e32565b610db3611052565b73ffffffffffffffffffffffffffffffffffffffff163373ffffffffffffffffffffffffffffffffffffffff16148015610df25750610df061107c565b155b610e31576040517f08c379a0000000000000000000000000000000000000000000000000000000008152600401610e2890611e5d565b60405180910390fd5b5b8073ffffffffffffffffffffffffffffffffffffffff165f8054906101000a900473ffffffffffffffffffffffffffffffffffffffff1673ffffffffffffffffffffffffffffffffffffffff1603610f0657600360146101000a81549065ffffffffffff02191690555f806101000a81549073ffffffffffffffffffffffffffffffffffffffff02191690558073ffffffffffffffffffffffffffffffffffffffff167f62125dd3d531106ff055aac7090ccec5e1edec1d0db6b0f1355f2ca15475469560405160405180910390a2610f43565b806040517fc6322315000000000000000000000000000000000000000000000000000000008152600401610f3a9190611d2b565b60405180910390fd5b50565b610f4e611052565b73ffffffffffffffffffffffffffffffffffffffff163373ffffffffffffffffffffffffffffffffffffffff16148015610f8d5750610f8b61107c565b155b610fcc576040517f08c379a0000000000000000000000000000000000000000000000000000000008152600401610fc390611e5d565b60405180910390fd5b8060035f6101000a81548173ffffffffffffffffffffffffffffffffffffffff021916908373ffffffffffffffffffffffffffffffffffffffff1602179055508073ffffffffffffffffffffffffffffffffffffffff167fff3cad3ee28c342ad5f3d7c8ff8559ee4d21eb48494092b82a1652e443b3420b60405160405180910390a250565b5f60045f015f9054906101000a900473ffffffffffffffffffffffffffffffffffffffff16905090565b5f60045f0160149054906101000a900460ff16905090565b427f000000000000000000000000000000000000000000000000000000000000000065ffffffffffff16101561113e576110cc6114ce565b73ffffffffffffffffffffffffffffffffffffffff163373ffffffffffffffffffffffffffffffffffffffff1614611139576040517f08c379a000000000000000000000000000000000000000000000000000000000815260040161113090611e5d565b60405180910390fd5b6111c5565b611146611052565b73ffffffffffffffffffffffffffffffffffffffff163373ffffffffffffffffffffffffffffffffffffffff16148015611185575061118361107c565b155b6111c4576040517f08c379a00000000000000000000000000000000000000000000000000000000081526004016111bb90611e5d565b60405180910390fd5b5b5f8173ffffffffffffffffffffffffffffffffffffffff163b1115611303573373ffffffffffffffffffffffffffffffffffffffff1660045f015f9054906101000a900473ffffffffffffffffffffffffffffffffffffffff1673ffffffffffffffffffffffffffffffffffffffff16036112485761124381611ad1565b6112fe565b6213c6804261125791906120b4565b600360146101000a81548165ffffffffffff021916908365ffffffffffff160217905550805f806101000a81548173ffffffffffffffffffffffffffffffffffffffff021916908373ffffffffffffffffffffffffffffffffffffffff1602179055508073ffffffffffffffffffffffffffffffffffffffff167f30b8fe69c9b4c23cc01223881227c0cc8cba5cc56d59263f51711df1a8f2c66760405160405180910390a25b611340565b806040517fc63223150000000000000000000000000000000000000000000000000000000081526004016113379190611d2b565b60405180910390fd5b50565b5f60055f015f9054906101000a900473ffffffffffffffffffffffffffffffffffffffff16905090565b427f000000000000000000000000000000000000000000000000000000000000000065ffffffffffff161015611417576113a56114ce565b73ffffffffffffffffffffffffffffffffffffffff163373ffffffffffffffffffffffffffffffffffffffff1614611412576040517f08c379a000000000000000000000000000000000000000000000000000000000815260040161140990611e5d565b60405180910390fd5b61149e565b61141f611052565b73ffffffffffffffffffffffffffffffffffffffff163373ffffffffffffffffffffffffffffffffffffffff1614801561145e575061145c61107c565b155b61149d576040517f08c379a000000000000000000000000000000000000000000000000000000000815260040161149490611e5d565b60405180910390fd5b5b6114a781611a07565b6114b081611a26565b50565b5f60065f0160159054906101000a900463ffffffff16905090565b5f7f0000000000000000000000000000000000000000000000000000000000000000905090565b427f000000000000000000000000000000000000000000000000000000000000000065ffffffffffff16101561159f5761152d6114ce565b73ffffffffffffffffffffffffffffffffffffffff163373ffffffffffffffffffffffffffffffffffffffff161461159a576040517f08c379a000000000000000000000000000000000000000000000000000000000815260040161159190611e5d565b60405180910390fd5b611626565b6115a7611052565b73ffffffffffffffffffffffffffffffffffffffff163373ffffffffffffffffffffffffffffffffffffffff161480156115e657506115e461107c565b155b611625576040517f08c379a000000000000000000000000000000000000000000000000000000000815260040161161c90611e5d565b60405180910390fd5b5b5f8173ffffffffffffffffffffffffffffffffffffffff163b11156116cd578060015f6101000a81548173ffffffffffffffffffffffffffffffffffffffff021916908373ffffffffffffffffffffffffffffffffffffffff1602179055508073ffffffffffffffffffffffffffffffffffffffff167fe8d8e3c7c3ebec0c177d0fe22d223f8b5071db39155104808d45027e368ba77a60405160405180910390a261170a565b806040517f84dbc6cb0000000000000000000000000000000000000000000000000000000081526004016117019190611d2b565b60405180910390fd5b50565b5f30905090565b5f60055f0160149054906101000a900460ff16905090565b611734611052565b73ffffffffffffffffffffffffffffffffffffffff163373ffffffffffffffffffffffffffffffffffffffff16148015611773575061177161107c565b155b6117b2576040517f08c379a00000000000000000000000000000000000000000000000000000000081526004016117a990611e5d565b60405180910390fd5b8073ffffffffffffffffffffffffffffffffffffffff1660015f9054906101000a900473ffffffffffffffffffffffffffffffffffffffff1673ffffffffffffffffffffffffffffffffffffffff16036119355760015f6101000a81549073ffffffffffffffffffffffffffffffffffffffff02191690558060065f015f6101000a81548173ffffffffffffffffffffffffffffffffffffffff021916908373ffffffffffffffffffffffffffffffffffffffff16021790555060065f01601581819054906101000a900463ffffffff168092919061189090611ea8565b91906101000a81548163ffffffff021916908363ffffffff1602179055505060065f0160159054906101000a900463ffffffff1663ffffffff1660065f015f9054906101000a900473ffffffffffffffffffffffffffffffffffffffff1673ffffffffffffffffffffffffffffffffffffffff167f5e86008a8467d1efccfe6cb6bd49ba7278d6af2745a1e6994e443322a423709360405160405180910390a3611972565b806040517f84dbc6cb0000000000000000000000000000000000000000000000000000000081526004016119699190611d2b565b60405180910390fd5b50565b61197d611052565b73ffffffffffffffffffffffffffffffffffffffff163373ffffffffffffffffffffffffffffffffffffffff161480156119bc57506119ba61107c565b155b6119fb576040517f08c379a00000000000000000000000000000000000000000000000000000000081526004016119f290611e5d565b60405180910390fd5b611a0481611a26565b50565b8060045f0160146101000a81548160ff02191690831515021790555050565b8060055f0160146101000a81548160ff02191690831515021790555060065f015f9054906101000a900473ffffffffffffffffffffffffffffffffffffffff1673ffffffffffffffffffffffffffffffffffffffff1663863ad5958260046040518363ffffffff1660e01b8152600401611aa19291906120e7565b5f604051808303815f87803b158015611ab8575f80fd5b505af1158015611aca573d5f803e3d5ffd5b5050505050565b60065f015f9054906101000a900473ffffffffffffffffffffffffffffffffffffffff1673ffffffffffffffffffffffffffffffffffffffff1663c92a788c600160075f015f9054906101000a900473ffffffffffffffffffffffffffffffffffffffff16846002620151806040518663ffffffff1660e01b8152600401611b5d959493929190612153565b5f604051808303815f87803b158015611b74575f80fd5b505af1158015611b86573d5f803e3d5ffd5b505050508060075f015f6101000a81548173ffffffffffffffffffffffffffffffffffffffff021916908373ffffffffffffffffffffffffffffffffffffffff16021790555060075f01601581819054906101000a900463ffffffff1680929190611bf090611ea8565b91906101000a81548163ffffffff021916908363ffffffff1602179055505060075f0160159054906101000a900463ffffffff1663ffffffff1660075f015f9054906101000a900473ffffffffffffffffffffffffffffffffffffffff1673ffffffffffffffffffffffffffffffffffffffff167fb88ef4c2b55163ed88bcf28dadfee0092169b7a9a712ceb09ff75e6d2d4ba63b60405160405180910390a350565b5f80fd5b5f73ffffffffffffffffffffffffffffffffffffffff82169050919050565b5f611cc082611c97565b9050919050565b611cd081611cb6565b8114611cda575f80fd5b50565b5f81359050611ceb81611cc7565b92915050565b5f60208284031215611d0657611d05611c93565b5b5f611d1384828501611cdd565b91505092915050565b611d2581611cb6565b82525050565b5f602082019050611d3e5f830184611d1c565b92915050565b5f8115159050919050565b611d5881611d44565b82525050565b5f602082019050611d715f830184611d4f565b92915050565b611d8081611d44565b8114611d8a575f80fd5b50565b5f81359050611d9b81611d77565b92915050565b5f60208284031215611db657611db5611c93565b5b5f611dc384828501611d8d565b91505092915050565b5f63ffffffff82169050919050565b611de481611dcc565b82525050565b5f602082019050611dfd5f830184611ddb565b92915050565b5f82825260208201905092915050565b7f416363657373206973206e6f742076616c6964000000000000000000000000005f82015250565b5f611e47601383611e03565b9150611e5282611e13565b602082019050919050565b5f6020820190508181035f830152611e7481611e3b565b9050919050565b7f4e487b71000000000000000000000000000000000000000000000000000000005f52601160045260245ffd5b5f611eb282611dcc565b915063ffffffff8203611ec857611ec7611e7b565b5b600182019050919050565b7f416c6c0000000000000000000000000000000000000000000000000000000000815250565b5f819050919050565b5f819050919050565b5f611f25611f20611f1b84611ef9565b611f02565b611dcc565b9050919050565b611f3581611f0b565b82525050565b5f819050919050565b5f65ffffffffffff82169050919050565b5f611f6f611f6a611f6584611f3b565b611f02565b611f44565b9050919050565b611f7f81611f55565b82525050565b5f60c082019050611f985f830188611d4f565b611fa56020830187611d1c565b611fb26040830186611d1c565b611fbe60608301611ed3565b611fcb6080830185611f2c565b611fd860a0830184611f76565b9695505050505050565b7f546865207265717565737420697320696e76616c6964000000000000000000005f82015250565b5f612016601683611e03565b915061202182611fe2565b602082019050919050565b5f6020820190508181035f8301526120438161200a565b9050919050565b5f61205482611f44565b915061205f83611f44565b9250828203905065ffffffffffff81111561207d5761207c611e7b565b5b92915050565b61208c81611f44565b82525050565b5f6020820190506120a55f830184612083565b92915050565b5f819050919050565b5f6120be826120ab565b91506120c9836120ab565b92508282019050808211156120e1576120e0611e7b565b5b92915050565b5f6060820190506120fa5f830185611d4f565b6121076020830184611f2c565b61211360408301611ed3565b9392505050565b5f819050919050565b5f61213d6121386121338461211a565b611f02565b611dcc565b9050919050565b61214d81612123565b82525050565b5f60c0820190506121665f830188611d4f565b6121736020830187611d1c565b6121806040830186611d1c565b61218c60608301611ed3565b6121996080830185612144565b6121a660a0830184611f76565b969550505050505056fea26469706673582212208ba8f272da704b6b2403f37d4ac2949c4535ea9e35c02646db052a3776dacccb64736f6c63430008140033",
					"opcodes": "PUSH1 0xC0 PUSH1 0x40 MSTORE PUSH0 PUSH20 0xFFFFFFFFFFFFFFFFFFFFFFFFFFFFFFFFFFFFFFFF AND PUSH1 0x80 SWAP1 PUSH20 0xFFFFFFFFFFFFFFFFFFFFFFFFFFFFFFFFFFFFFFFF AND DUP2 MSTORE POP CALLVALUE DUP1 ISZERO PUSH3 0x43 JUMPI PUSH0 DUP1 REVERT JUMPDEST POP PUSH4 0x16925E80 TIMESTAMP PUSH3 0x56 SWAP2 SWAP1 PUSH3 0x130 JUMP JUMPDEST PUSH6 0xFFFFFFFFFFFF AND PUSH1 0xA0 DUP2 PUSH6 0xFFFFFFFFFFFF AND DUP2 MSTORE POP POP CALLER PUSH1 0x4 PUSH0 ADD PUSH0 PUSH2 0x100 EXP DUP2 SLOAD DUP2 PUSH20 0xFFFFFFFFFFFFFFFFFFFFFFFFFFFFFFFFFFFFFFFF MUL NOT AND SWAP1 DUP4 PUSH20 0xFFFFFFFFFFFFFFFFFFFFFFFFFFFFFFFFFFFFFFFF AND MUL OR SWAP1 SSTORE POP PUSH1 0x4 PUSH0 ADD PUSH1 0x15 DUP2 DUP2 SWAP1 SLOAD SWAP1 PUSH2 0x100 EXP SWAP1 DIV PUSH4 0xFFFFFFFF AND DUP1 SWAP3 SWAP2 SWAP1 PUSH3 0xD5 SWAP1 PUSH3 0x179 JUMP JUMPDEST SWAP2 SWAP1 PUSH2 0x100 EXP DUP2 SLOAD DUP2 PUSH4 0xFFFFFFFF MUL NOT AND SWAP1 DUP4 PUSH4 0xFFFFFFFF AND MUL OR SWAP1 SSTORE POP POP PUSH3 0x1A9 JUMP JUMPDEST PUSH0 DUP2 SWAP1 POP SWAP2 SWAP1 POP JUMP JUMPDEST PUSH32 0x4E487B7100000000000000000000000000000000000000000000000000000000 PUSH0 MSTORE PUSH1 0x11 PUSH1 0x4 MSTORE PUSH1 0x24 PUSH0 REVERT JUMPDEST PUSH0 PUSH3 0x13C DUP3 PUSH3 0xFA JUMP JUMPDEST SWAP2 POP PUSH3 0x149 DUP4 PUSH3 0xFA JUMP JUMPDEST SWAP3 POP DUP3 DUP3 ADD SWAP1 POP DUP1 DUP3 GT ISZERO PUSH3 0x164 JUMPI PUSH3 0x163 PUSH3 0x103 JUMP JUMPDEST JUMPDEST SWAP3 SWAP2 POP POP JUMP JUMPDEST PUSH0 PUSH4 0xFFFFFFFF DUP3 AND SWAP1 POP SWAP2 SWAP1 POP JUMP JUMPDEST PUSH0 PUSH3 0x185 DUP3 PUSH3 0x16A JUMP JUMPDEST SWAP2 POP PUSH4 0xFFFFFFFF DUP3 SUB PUSH3 0x19E JUMPI PUSH3 0x19D PUSH3 0x103 JUMP JUMPDEST JUMPDEST PUSH1 0x1 DUP3 ADD SWAP1 POP SWAP2 SWAP1 POP JUMP JUMPDEST PUSH1 0x80 MLOAD PUSH1 0xA0 MLOAD PUSH2 0x21E6 PUSH3 0x1EE PUSH0 CODECOPY PUSH0 DUP2 DUP2 PUSH2 0x34F ADD MSTORE DUP2 DUP2 PUSH2 0x9C2 ADD MSTORE DUP2 DUP2 PUSH2 0xD04 ADD MSTORE DUP2 DUP2 PUSH2 0x1097 ADD MSTORE DUP2 DUP2 PUSH2 0x1370 ADD MSTORE PUSH2 0x14F8 ADD MSTORE PUSH0 PUSH2 0x14D1 ADD MSTORE PUSH2 0x21E6 PUSH0 RETURN INVALID PUSH1 0x80 PUSH1 0x40 MSTORE CALLVALUE DUP1 ISZERO PUSH2 0xF JUMPI PUSH0 DUP1 REVERT JUMPDEST POP PUSH1 0x4 CALLDATASIZE LT PUSH2 0x12A JUMPI PUSH0 CALLDATALOAD PUSH1 0xE0 SHR DUP1 PUSH4 0x861A179D GT PUSH2 0xAB JUMPI DUP1 PUSH4 0xCA4CCE68 GT PUSH2 0x6F JUMPI DUP1 PUSH4 0xCA4CCE68 EQ PUSH2 0x2BC JUMPI DUP1 PUSH4 0xE47A9D46 EQ PUSH2 0x2D8 JUMPI DUP1 PUSH4 0xE4F3E947 EQ PUSH2 0x2F6 JUMPI DUP1 PUSH4 0xEE7126C3 EQ PUSH2 0x314 JUMPI DUP1 PUSH4 0xF5F9CDD4 EQ PUSH2 0x330 JUMPI PUSH2 0x12A JUMP JUMPDEST DUP1 PUSH4 0x861A179D EQ PUSH2 0x22A JUMPI DUP1 PUSH4 0xA53DA00B EQ PUSH2 0x246 JUMPI DUP1 PUSH4 0xB5C09C68 EQ PUSH2 0x264 JUMPI DUP1 PUSH4 0xC387B49C EQ PUSH2 0x280 JUMPI DUP1 PUSH4 0xC5A1C5C1 EQ PUSH2 0x29E JUMPI PUSH2 0x12A JUMP JUMPDEST DUP1 PUSH4 0x37676F79 GT PUSH2 0xF2 JUMPI DUP1 PUSH4 0x37676F79 EQ PUSH2 0x198 JUMPI DUP1 PUSH4 0x4494ACD9 EQ PUSH2 0x1B6 JUMPI DUP1 PUSH4 0x544FA93E EQ PUSH2 0x1D2 JUMPI DUP1 PUSH4 0x66410997 EQ PUSH2 0x1EE JUMPI DUP1 PUSH4 0x6CF106D7 EQ PUSH2 0x20C JUMPI PUSH2 0x12A JUMP JUMPDEST DUP1 PUSH4 0x54203BD EQ PUSH2 0x12E JUMPI DUP1 PUSH4 0xDF4C390 EQ PUSH2 0x14A JUMPI DUP1 PUSH4 0x18074EEE EQ PUSH2 0x154 JUMPI DUP1 PUSH4 0x1F86AA2A EQ PUSH2 0x15E JUMPI DUP1 PUSH4 0x289B3C0D EQ PUSH2 0x17A JUMPI JUMPDEST PUSH0 DUP1 REVERT JUMPDEST PUSH2 0x148 PUSH1 0x4 DUP1 CALLDATASIZE SUB DUP2 ADD SWAP1 PUSH2 0x143 SWAP2 SWAP1 PUSH2 0x1CF1 JUMP JUMPDEST PUSH2 0x34C JUMP JUMPDEST STOP JUMPDEST PUSH2 0x152 PUSH2 0x517 JUMP JUMPDEST STOP JUMPDEST PUSH2 0x15C PUSH2 0x6D7 JUMP JUMPDEST STOP JUMPDEST PUSH2 0x178 PUSH1 0x4 DUP1 CALLDATASIZE SUB DUP2 ADD SWAP1 PUSH2 0x173 SWAP2 SWAP1 PUSH2 0x1CF1 JUMP JUMPDEST PUSH2 0x9BF JUMP JUMPDEST STOP JUMPDEST PUSH2 0x182 PUSH2 0xCAD JUMP JUMPDEST PUSH1 0x40 MLOAD PUSH2 0x18F SWAP2 SWAP1 PUSH2 0x1D2B JUMP JUMPDEST PUSH1 0x40 MLOAD DUP1 SWAP2 SUB SWAP1 RETURN JUMPDEST PUSH2 0x1A0 PUSH2 0xCD7 JUMP JUMPDEST PUSH1 0x40 MLOAD PUSH2 0x1AD SWAP2 SWAP1 PUSH2 0x1D2B JUMP JUMPDEST PUSH1 0x40 MLOAD DUP1 SWAP2 SUB SWAP1 RETURN JUMPDEST PUSH2 0x1D0 PUSH1 0x4 DUP1 CALLDATASIZE SUB DUP2 ADD SWAP1 PUSH2 0x1CB SWAP2 SWAP1 PUSH2 0x1CF1 JUMP JUMPDEST PUSH2 0xD01 JUMP JUMPDEST STOP JUMPDEST PUSH2 0x1EC PUSH1 0x4 DUP1 CALLDATASIZE SUB DUP2 ADD SWAP1 PUSH2 0x1E7 SWAP2 SWAP1 PUSH2 0x1CF1 JUMP JUMPDEST PUSH2 0xF46 JUMP JUMPDEST STOP JUMPDEST PUSH2 0x1F6 PUSH2 0x1052 JUMP JUMPDEST PUSH1 0x40 MLOAD PUSH2 0x203 SWAP2 SWAP1 PUSH2 0x1D2B JUMP JUMPDEST PUSH1 0x40 MLOAD DUP1 SWAP2 SUB SWAP1 RETURN JUMPDEST PUSH2 0x214 PUSH2 0x107C JUMP JUMPDEST PUSH1 0x40 MLOAD PUSH2 0x221 SWAP2 SWAP1 PUSH2 0x1D5E JUMP JUMPDEST PUSH1 0x40 MLOAD DUP1 SWAP2 SUB SWAP1 RETURN JUMPDEST PUSH2 0x244 PUSH1 0x4 DUP1 CALLDATASIZE SUB DUP2 ADD SWAP1 PUSH2 0x23F SWAP2 SWAP1 PUSH2 0x1CF1 JUMP JUMPDEST PUSH2 0x1094 JUMP JUMPDEST STOP JUMPDEST PUSH2 0x24E PUSH2 0x1343 JUMP JUMPDEST PUSH1 0x40 MLOAD PUSH2 0x25B SWAP2 SWAP1 PUSH2 0x1D2B JUMP JUMPDEST PUSH1 0x40 MLOAD DUP1 SWAP2 SUB SWAP1 RETURN JUMPDEST PUSH2 0x27E PUSH1 0x4 DUP1 CALLDATASIZE SUB DUP2 ADD SWAP1 PUSH2 0x279 SWAP2 SWAP1 PUSH2 0x1DA1 JUMP JUMPDEST PUSH2 0x136D JUMP JUMPDEST STOP JUMPDEST PUSH2 0x288 PUSH2 0x14B3 JUMP JUMPDEST PUSH1 0x40 MLOAD PUSH2 0x295 SWAP2 SWAP1 PUSH2 0x1DEA JUMP JUMPDEST PUSH1 0x40 MLOAD DUP1 SWAP2 SUB SWAP1 RETURN JUMPDEST PUSH2 0x2A6 PUSH2 0x14CE JUMP JUMPDEST PUSH1 0x40 MLOAD PUSH2 0x2B3 SWAP2 SWAP1 PUSH2 0x1D2B JUMP JUMPDEST PUSH1 0x40 MLOAD DUP1 SWAP2 SUB SWAP1 RETURN JUMPDEST PUSH2 0x2D6 PUSH1 0x4 DUP1 CALLDATASIZE SUB DUP2 ADD SWAP1 PUSH2 0x2D1 SWAP2 SWAP1 PUSH2 0x1CF1 JUMP JUMPDEST PUSH2 0x14F5 JUMP JUMPDEST STOP JUMPDEST PUSH2 0x2E0 PUSH2 0x170D JUMP JUMPDEST PUSH1 0x40 MLOAD PUSH2 0x2ED SWAP2 SWAP1 PUSH2 0x1D2B JUMP JUMPDEST PUSH1 0x40 MLOAD DUP1 SWAP2 SUB SWAP1 RETURN JUMPDEST PUSH2 0x2FE PUSH2 0x1714 JUMP JUMPDEST PUSH1 0x40 MLOAD PUSH2 0x30B SWAP2 SWAP1 PUSH2 0x1D5E JUMP JUMPDEST PUSH1 0x40 MLOAD DUP1 SWAP2 SUB SWAP1 RETURN JUMPDEST PUSH2 0x32E PUSH1 0x4 DUP1 CALLDATASIZE SUB DUP2 ADD SWAP1 PUSH2 0x329 SWAP2 SWAP1 PUSH2 0x1CF1 JUMP JUMPDEST PUSH2 0x172C JUMP JUMPDEST STOP JUMPDEST PUSH2 0x34A PUSH1 0x4 DUP1 CALLDATASIZE SUB DUP2 ADD SWAP1 PUSH2 0x345 SWAP2 SWAP1 PUSH2 0x1DA1 JUMP JUMPDEST PUSH2 0x1975 JUMP JUMPDEST STOP JUMPDEST TIMESTAMP PUSH32 0x0 PUSH6 0xFFFFFFFFFFFF AND LT ISZERO PUSH2 0x3F6 JUMPI PUSH2 0x384 PUSH2 0x14CE JUMP JUMPDEST PUSH20 0xFFFFFFFFFFFFFFFFFFFFFFFFFFFFFFFFFFFFFFFF AND CALLER PUSH20 0xFFFFFFFFFFFFFFFFFFFFFFFFFFFFFFFFFFFFFFFF AND EQ PUSH2 0x3F1 JUMPI PUSH1 0x40 MLOAD PUSH32 0x8C379A000000000000000000000000000000000000000000000000000000000 DUP2 MSTORE PUSH1 0x4 ADD PUSH2 0x3E8 SWAP1 PUSH2 0x1E5D JUMP JUMPDEST PUSH1 0x40 MLOAD DUP1 SWAP2 SUB SWAP1 REVERT JUMPDEST PUSH2 0x47D JUMP JUMPDEST PUSH2 0x3FE PUSH2 0x1052 JUMP JUMPDEST PUSH20 0xFFFFFFFFFFFFFFFFFFFFFFFFFFFFFFFFFFFFFFFF AND CALLER PUSH20 0xFFFFFFFFFFFFFFFFFFFFFFFFFFFFFFFFFFFFFFFF AND EQ DUP1 ISZERO PUSH2 0x43D JUMPI POP PUSH2 0x43B PUSH2 0x107C JUMP JUMPDEST ISZERO JUMPDEST PUSH2 0x47C JUMPI PUSH1 0x40 MLOAD PUSH32 0x8C379A000000000000000000000000000000000000000000000000000000000 DUP2 MSTORE PUSH1 0x4 ADD PUSH2 0x473 SWAP1 PUSH2 0x1E5D JUMP JUMPDEST PUSH1 0x40 MLOAD DUP1 SWAP2 SUB SWAP1 REVERT JUMPDEST JUMPDEST DUP1 PUSH1 0x2 PUSH0 PUSH2 0x100 EXP DUP2 SLOAD DUP2 PUSH20 0xFFFFFFFFFFFFFFFFFFFFFFFFFFFFFFFFFFFFFFFF MUL NOT AND SWAP1 DUP4 PUSH20 0xFFFFFFFFFFFFFFFFFFFFFFFFFFFFFFFFFFFFFFFF AND MUL OR SWAP1 SSTORE POP PUSH2 0x4C7 PUSH1 0x1 PUSH2 0x1A07 JUMP JUMPDEST PUSH2 0x4D1 PUSH1 0x1 PUSH2 0x1A26 JUMP JUMPDEST DUP1 PUSH20 0xFFFFFFFFFFFFFFFFFFFFFFFFFFFFFFFFFFFFFFFF AND PUSH32 0x3553F1F7EF0242113266A8D183B621BB87468C99237F36B1150B6AB3D688B686 PUSH1 0x40 MLOAD PUSH1 0x40 MLOAD DUP1 SWAP2 SUB SWAP1 LOG2 POP JUMP JUMPDEST CALLER PUSH20 0xFFFFFFFFFFFFFFFFFFFFFFFFFFFFFFFFFFFFFFFF AND PUSH1 0x2 PUSH0 SWAP1 SLOAD SWAP1 PUSH2 0x100 EXP SWAP1 DIV PUSH20 0xFFFFFFFFFFFFFFFFFFFFFFFFFFFFFFFFFFFFFFFF AND PUSH20 0xFFFFFFFFFFFFFFFFFFFFFFFFFFFFFFFFFFFFFFFF AND SUB PUSH2 0x6A3 JUMPI PUSH1 0x2 PUSH0 PUSH2 0x100 EXP DUP2 SLOAD SWAP1 PUSH20 0xFFFFFFFFFFFFFFFFFFFFFFFFFFFFFFFFFFFFFFFF MUL NOT AND SWAP1 SSTORE CALLER PUSH1 0x4 PUSH0 ADD PUSH0 PUSH2 0x100 EXP DUP2 SLOAD DUP2 PUSH20 0xFFFFFFFFFFFFFFFFFFFFFFFFFFFFFFFFFFFFFFFF MUL NOT AND SWAP1 DUP4 PUSH20 0xFFFFFFFFFFFFFFFFFFFFFFFFFFFFFFFFFFFFFFFF AND MUL OR SWAP1 SSTORE POP PUSH1 0x4 PUSH0 ADD PUSH1 0x15 DUP2 DUP2 SWAP1 SLOAD SWAP1 PUSH2 0x100 EXP SWAP1 DIV PUSH4 0xFFFFFFFF AND DUP1 SWAP3 SWAP2 SWAP1 PUSH2 0x5F5 SWAP1 PUSH2 0x1EA8 JUMP JUMPDEST SWAP2 SWAP1 PUSH2 0x100 EXP DUP2 SLOAD DUP2 PUSH4 0xFFFFFFFF MUL NOT AND SWAP1 DUP4 PUSH4 0xFFFFFFFF AND MUL OR SWAP1 SSTORE POP POP PUSH2 0x61D PUSH0 PUSH2 0x1A07 JUMP JUMPDEST PUSH1 0x4 PUSH0 ADD PUSH1 0x15 SWAP1 SLOAD SWAP1 PUSH2 0x100 EXP SWAP1 DIV PUSH4 0xFFFFFFFF AND PUSH4 0xFFFFFFFF AND PUSH1 0x4 PUSH0 ADD PUSH0 SWAP1 SLOAD SWAP1 PUSH2 0x100 EXP SWAP1 DIV PUSH20 0xFFFFFFFFFFFFFFFFFFFFFFFFFFFFFFFFFFFFFFFF AND PUSH20 0xFFFFFFFFFFFFFFFFFFFFFFFFFFFFFFFFFFFFFFFF AND PUSH32 0x5AD9B3688012CD825C1BFB941E4F5AFB2558AF6AF3DEADDF01DBB5E85ABDAF9 PUSH1 0x40 MLOAD PUSH1 0x40 MLOAD DUP1 SWAP2 SUB SWAP1 LOG3 PUSH2 0x6D5 JUMP JUMPDEST PUSH1 0x40 MLOAD PUSH32 0x6C4360F000000000000000000000000000000000000000000000000000000000 DUP2 MSTORE PUSH1 0x4 ADD PUSH1 0x40 MLOAD DUP1 SWAP2 SUB SWAP1 REVERT JUMPDEST JUMP JUMPDEST CALLER PUSH20 0xFFFFFFFFFFFFFFFFFFFFFFFFFFFFFFFFFFFFFFFF AND PUSH1 0x3 PUSH0 SWAP1 SLOAD SWAP1 PUSH2 0x100 EXP SWAP1 DIV PUSH20 0xFFFFFFFFFFFFFFFFFFFFFFFFFFFFFFFFFFFFFFFF AND PUSH20 0xFFFFFFFFFFFFFFFFFFFFFFFFFFFFFFFFFFFFFFFF AND SUB PUSH2 0x98B JUMPI PUSH1 0x3 PUSH0 PUSH2 0x100 EXP DUP2 SLOAD SWAP1 PUSH20 0xFFFFFFFFFFFFFFFFFFFFFFFFFFFFFFFFFFFFFFFF MUL NOT AND SWAP1 SSTORE PUSH0 PUSH20 0xFFFFFFFFFFFFFFFFFFFFFFFFFFFFFFFFFFFFFFFF AND PUSH1 0x6 PUSH0 ADD PUSH0 SWAP1 SLOAD SWAP1 PUSH2 0x100 EXP SWAP1 DIV PUSH20 0xFFFFFFFFFFFFFFFFFFFFFFFFFFFFFFFFFFFFFFFF AND PUSH20 0xFFFFFFFFFFFFFFFFFFFFFFFFFFFFFFFFFFFFFFFF AND EQ PUSH2 0x85F JUMPI PUSH1 0x6 PUSH0 ADD PUSH0 SWAP1 SLOAD SWAP1 PUSH2 0x100 EXP SWAP1 DIV PUSH20 0xFFFFFFFFFFFFFFFFFFFFFFFFFFFFFFFFFFFFFFFF AND PUSH20 0xFFFFFFFFFFFFFFFFFFFFFFFFFFFFFFFFFFFFFFFF AND PUSH4 0xC92A788C PUSH1 0x1 PUSH1 0x5 PUSH0 ADD PUSH0 SWAP1 SLOAD SWAP1 PUSH2 0x100 EXP SWAP1 DIV PUSH20 0xFFFFFFFFFFFFFFFFFFFFFFFFFFFFFFFFFFFFFFFF AND CALLER PUSH1 0x4 PUSH3 0x15180 PUSH1 0x40 MLOAD DUP7 PUSH4 0xFFFFFFFF AND PUSH1 0xE0 SHL DUP2 MSTORE PUSH1 0x4 ADD PUSH2 0x831 SWAP6 SWAP5 SWAP4 SWAP3 SWAP2 SWAP1 PUSH2 0x1F85 JUMP JUMPDEST PUSH0 PUSH1 0x40 MLOAD DUP1 DUP4 SUB DUP2 PUSH0 DUP8 DUP1 EXTCODESIZE ISZERO DUP1 ISZERO PUSH2 0x848 JUMPI PUSH0 DUP1 REVERT JUMPDEST POP GAS CALL ISZERO DUP1 ISZERO PUSH2 0x85A JUMPI RETURNDATASIZE PUSH0 DUP1 RETURNDATACOPY RETURNDATASIZE PUSH0 REVERT JUMPDEST POP POP POP POP JUMPDEST CALLER PUSH1 0x5 PUSH0 ADD PUSH0 PUSH2 0x100 EXP DUP2 SLOAD DUP2 PUSH20 0xFFFFFFFFFFFFFFFFFFFFFFFFFFFFFFFFFFFFFFFF MUL NOT AND SWAP1 DUP4 PUSH20 0xFFFFFFFFFFFFFFFFFFFFFFFFFFFFFFFFFFFFFFFF AND MUL OR SWAP1 SSTORE POP PUSH1 0x5 PUSH0 ADD PUSH1 0x15 DUP2 DUP2 SWAP1 SLOAD SWAP1 PUSH2 0x100 EXP SWAP1 DIV PUSH4 0xFFFFFFFF AND DUP1 SWAP3 SWAP2 SWAP1 PUSH2 0x8C5 SWAP1 PUSH2 0x1EA8 JUMP JUMPDEST SWAP2 SWAP1 PUSH2 0x100 EXP DUP2 SLOAD DUP2 PUSH4 0xFFFFFFFF MUL NOT AND SWAP1 DUP4 PUSH4 0xFFFFFFFF AND MUL OR SWAP1 SSTORE POP POP PUSH1 0x5 PUSH0 ADD PUSH1 0x14 SWAP1 SLOAD SWAP1 PUSH2 0x100 EXP SWAP1 DIV PUSH1 0xFF AND ISZERO PUSH2 0x905 JUMPI PUSH2 0x904 PUSH0 PUSH2 0x1A26 JUMP JUMPDEST JUMPDEST PUSH1 0x5 PUSH0 ADD PUSH1 0x15 SWAP1 SLOAD SWAP1 PUSH2 0x100 EXP SWAP1 DIV PUSH4 0xFFFFFFFF AND PUSH4 0xFFFFFFFF AND PUSH1 0x5 PUSH0 ADD PUSH0 SWAP1 SLOAD SWAP1 PUSH2 0x100 EXP SWAP1 DIV PUSH20 0xFFFFFFFFFFFFFFFFFFFFFFFFFFFFFFFFFFFFFFFF AND PUSH20 0xFFFFFFFFFFFFFFFFFFFFFFFFFFFFFFFFFFFFFFFF AND PUSH32 0x11E1B985C07E1BF3FEC9BFD0BDB8C4A8E870BA2B26AA89FE50A6A19132CA10FD PUSH1 0x40 MLOAD PUSH1 0x40 MLOAD DUP1 SWAP2 SUB SWAP1 LOG3 PUSH2 0x9BD JUMP JUMPDEST PUSH1 0x40 MLOAD PUSH32 0x6C4360F000000000000000000000000000000000000000000000000000000000 DUP2 MSTORE PUSH1 0x4 ADD PUSH1 0x40 MLOAD DUP1 SWAP2 SUB SWAP1 REVERT JUMPDEST JUMP JUMPDEST TIMESTAMP PUSH32 0x0 PUSH6 0xFFFFFFFFFFFF AND LT ISZERO PUSH2 0xA69 JUMPI PUSH2 0x9F7 PUSH2 0x14CE JUMP JUMPDEST PUSH20 0xFFFFFFFFFFFFFFFFFFFFFFFFFFFFFFFFFFFFFFFF AND CALLER PUSH20 0xFFFFFFFFFFFFFFFFFFFFFFFFFFFFFFFFFFFFFFFF AND EQ PUSH2 0xA64 JUMPI PUSH1 0x40 MLOAD PUSH32 0x8C379A000000000000000000000000000000000000000000000000000000000 DUP2 MSTORE PUSH1 0x4 ADD PUSH2 0xA5B SWAP1 PUSH2 0x1E5D JUMP JUMPDEST PUSH1 0x40 MLOAD DUP1 SWAP2 SUB SWAP1 REVERT JUMPDEST PUSH2 0xAF0 JUMP JUMPDEST PUSH2 0xA71 PUSH2 0x1052 JUMP JUMPDEST PUSH20 0xFFFFFFFFFFFFFFFFFFFFFFFFFFFFFFFFFFFFFFFF AND CALLER PUSH20 0xFFFFFFFFFFFFFFFFFFFFFFFFFFFFFFFFFFFFFFFF AND EQ DUP1 ISZERO PUSH2 0xAB0 JUMPI POP PUSH2 0xAAE PUSH2 0x107C JUMP JUMPDEST ISZERO JUMPDEST PUSH2 0xAEF JUMPI PUSH1 0x40 MLOAD PUSH32 0x8C379A000000000000000000000000000000000000000000000000000000000 DUP2 MSTORE PUSH1 0x4 ADD PUSH2 0xAE6 SWAP1 PUSH2 0x1E5D JUMP JUMPDEST PUSH1 0x40 MLOAD DUP1 SWAP2 SUB SWAP1 REVERT JUMPDEST JUMPDEST TIMESTAMP PUSH1 0x3 PUSH1 0x14 SWAP1 SLOAD SWAP1 PUSH2 0x100 EXP SWAP1 DIV PUSH6 0xFFFFFFFFFFFF AND PUSH6 0xFFFFFFFFFFFF AND LT ISZERO PUSH2 0xC4E JUMPI PUSH0 PUSH1 0x3 PUSH1 0x14 SWAP1 SLOAD SWAP1 PUSH2 0x100 EXP SWAP1 DIV PUSH6 0xFFFFFFFFFFFF AND PUSH6 0xFFFFFFFFFFFF AND SUB PUSH2 0xB72 JUMPI PUSH1 0x40 MLOAD PUSH32 0x8C379A000000000000000000000000000000000000000000000000000000000 DUP2 MSTORE PUSH1 0x4 ADD PUSH2 0xB69 SWAP1 PUSH2 0x202C JUMP JUMPDEST PUSH1 0x40 MLOAD DUP1 SWAP2 SUB SWAP1 REVERT JUMPDEST DUP1 PUSH20 0xFFFFFFFFFFFFFFFFFFFFFFFFFFFFFFFFFFFFFFFF AND PUSH0 DUP1 SLOAD SWAP1 PUSH2 0x100 EXP SWAP1 DIV PUSH20 0xFFFFFFFFFFFFFFFFFFFFFFFFFFFFFFFFFFFFFFFF AND PUSH20 0xFFFFFFFFFFFFFFFFFFFFFFFFFFFFFFFFFFFFFFFF AND SUB PUSH2 0xC0C JUMPI PUSH1 0x3 PUSH1 0x14 PUSH2 0x100 EXP DUP2 SLOAD SWAP1 PUSH6 0xFFFFFFFFFFFF MUL NOT AND SWAP1 SSTORE PUSH0 DUP1 PUSH2 0x100 EXP DUP2 SLOAD SWAP1 PUSH20 0xFFFFFFFFFFFFFFFFFFFFFFFFFFFFFFFFFFFFFFFF MUL NOT AND SWAP1 SSTORE PUSH2 0xC07 DUP2 PUSH2 0x1AD1 JUMP JUMPDEST PUSH2 0xC49 JUMP JUMPDEST DUP1 PUSH1 0x40 MLOAD PUSH32 0xC632231500000000000000000000000000000000000000000000000000000000 DUP2 MSTORE PUSH1 0x4 ADD PUSH2 0xC40 SWAP2 SWAP1 PUSH2 0x1D2B JUMP JUMPDEST PUSH1 0x40 MLOAD DUP1 SWAP2 SUB SWAP1 REVERT JUMPDEST PUSH2 0xCAA JUMP JUMPDEST TIMESTAMP PUSH1 0x3 PUSH1 0x14 SWAP1 SLOAD SWAP1 PUSH2 0x100 EXP SWAP1 DIV PUSH6 0xFFFFFFFFFFFF AND PUSH2 0xC6E SWAP2 SWAP1 PUSH2 0x204A JUMP JUMPDEST PUSH1 0x40 MLOAD PUSH32 0x223A6CBB00000000000000000000000000000000000000000000000000000000 DUP2 MSTORE PUSH1 0x4 ADD PUSH2 0xCA1 SWAP2 SWAP1 PUSH2 0x2092 JUMP JUMPDEST PUSH1 0x40 MLOAD DUP1 SWAP2 SUB SWAP1 REVERT JUMPDEST POP JUMP JUMPDEST PUSH0 PUSH1 0x6 PUSH0 ADD PUSH0 SWAP1 SLOAD SWAP1 PUSH2 0x100 EXP SWAP1 DIV PUSH20 0xFFFFFFFFFFFFFFFFFFFFFFFFFFFFFFFFFFFFFFFF AND SWAP1 POP SWAP1 JUMP JUMPDEST PUSH0 PUSH1 0x7 PUSH0 ADD PUSH0 SWAP1 SLOAD SWAP1 PUSH2 0x100 EXP SWAP1 DIV PUSH20 0xFFFFFFFFFFFFFFFFFFFFFFFFFFFFFFFFFFFFFFFF AND SWAP1 POP SWAP1 JUMP JUMPDEST TIMESTAMP PUSH32 0x0 PUSH6 0xFFFFFFFFFFFF AND LT ISZERO PUSH2 0xDAB JUMPI PUSH2 0xD39 PUSH2 0x14CE JUMP JUMPDEST PUSH20 0xFFFFFFFFFFFFFFFFFFFFFFFFFFFFFFFFFFFFFFFF AND CALLER PUSH20 0xFFFFFFFFFFFFFFFFFFFFFFFFFFFFFFFFFFFFFFFF AND EQ PUSH2 0xDA6 JUMPI PUSH1 0x40 MLOAD PUSH32 0x8C379A000000000000000000000000000000000000000000000000000000000 DUP2 MSTORE PUSH1 0x4 ADD PUSH2 0xD9D SWAP1 PUSH2 0x1E5D JUMP JUMPDEST PUSH1 0x40 MLOAD DUP1 SWAP2 SUB SWAP1 REVERT JUMPDEST PUSH2 0xE32 JUMP JUMPDEST PUSH2 0xDB3 PUSH2 0x1052 JUMP JUMPDEST PUSH20 0xFFFFFFFFFFFFFFFFFFFFFFFFFFFFFFFFFFFFFFFF AND CALLER PUSH20 0xFFFFFFFFFFFFFFFFFFFFFFFFFFFFFFFFFFFFFFFF AND EQ DUP1 ISZERO PUSH2 0xDF2 JUMPI POP PUSH2 0xDF0 PUSH2 0x107C JUMP JUMPDEST ISZERO JUMPDEST PUSH2 0xE31 JUMPI PUSH1 0x40 MLOAD PUSH32 0x8C379A000000000000000000000000000000000000000000000000000000000 DUP2 MSTORE PUSH1 0x4 ADD PUSH2 0xE28 SWAP1 PUSH2 0x1E5D JUMP JUMPDEST PUSH1 0x40 MLOAD DUP1 SWAP2 SUB SWAP1 REVERT JUMPDEST JUMPDEST DUP1 PUSH20 0xFFFFFFFFFFFFFFFFFFFFFFFFFFFFFFFFFFFFFFFF AND PUSH0 DUP1 SLOAD SWAP1 PUSH2 0x100 EXP SWAP1 DIV PUSH20 0xFFFFFFFFFFFFFFFFFFFFFFFFFFFFFFFFFFFFFFFF AND PUSH20 0xFFFFFFFFFFFFFFFFFFFFFFFFFFFFFFFFFFFFFFFF AND SUB PUSH2 0xF06 JUMPI PUSH1 0x3 PUSH1 0x14 PUSH2 0x100 EXP DUP2 SLOAD SWAP1 PUSH6 0xFFFFFFFFFFFF MUL NOT AND SWAP1 SSTORE PUSH0 DUP1 PUSH2 0x100 EXP DUP2 SLOAD SWAP1 PUSH20 0xFFFFFFFFFFFFFFFFFFFFFFFFFFFFFFFFFFFFFFFF MUL NOT AND SWAP1 SSTORE DUP1 PUSH20 0xFFFFFFFFFFFFFFFFFFFFFFFFFFFFFFFFFFFFFFFF AND PUSH32 0x62125DD3D531106FF055AAC7090CCEC5E1EDEC1D0DB6B0F1355F2CA154754695 PUSH1 0x40 MLOAD PUSH1 0x40 MLOAD DUP1 SWAP2 SUB SWAP1 LOG2 PUSH2 0xF43 JUMP JUMPDEST DUP1 PUSH1 0x40 MLOAD PUSH32 0xC632231500000000000000000000000000000000000000000000000000000000 DUP2 MSTORE PUSH1 0x4 ADD PUSH2 0xF3A SWAP2 SWAP1 PUSH2 0x1D2B JUMP JUMPDEST PUSH1 0x40 MLOAD DUP1 SWAP2 SUB SWAP1 REVERT JUMPDEST POP JUMP JUMPDEST PUSH2 0xF4E PUSH2 0x1052 JUMP JUMPDEST PUSH20 0xFFFFFFFFFFFFFFFFFFFFFFFFFFFFFFFFFFFFFFFF AND CALLER PUSH20 0xFFFFFFFFFFFFFFFFFFFFFFFFFFFFFFFFFFFFFFFF AND EQ DUP1 ISZERO PUSH2 0xF8D JUMPI POP PUSH2 0xF8B PUSH2 0x107C JUMP JUMPDEST ISZERO JUMPDEST PUSH2 0xFCC JUMPI PUSH1 0x40 MLOAD PUSH32 0x8C379A000000000000000000000000000000000000000000000000000000000 DUP2 MSTORE PUSH1 0x4 ADD PUSH2 0xFC3 SWAP1 PUSH2 0x1E5D JUMP JUMPDEST PUSH1 0x40 MLOAD DUP1 SWAP2 SUB SWAP1 REVERT JUMPDEST DUP1 PUSH1 0x3 PUSH0 PUSH2 0x100 EXP DUP2 SLOAD DUP2 PUSH20 0xFFFFFFFFFFFFFFFFFFFFFFFFFFFFFFFFFFFFFFFF MUL NOT AND SWAP1 DUP4 PUSH20 0xFFFFFFFFFFFFFFFFFFFFFFFFFFFFFFFFFFFFFFFF AND MUL OR SWAP1 SSTORE POP DUP1 PUSH20 0xFFFFFFFFFFFFFFFFFFFFFFFFFFFFFFFFFFFFFFFF AND PUSH32 0xFF3CAD3EE28C342AD5F3D7C8FF8559EE4D21EB48494092B82A1652E443B3420B PUSH1 0x40 MLOAD PUSH1 0x40 MLOAD DUP1 SWAP2 SUB SWAP1 LOG2 POP JUMP JUMPDEST PUSH0 PUSH1 0x4 PUSH0 ADD PUSH0 SWAP1 SLOAD SWAP1 PUSH2 0x100 EXP SWAP1 DIV PUSH20 0xFFFFFFFFFFFFFFFFFFFFFFFFFFFFFFFFFFFFFFFF AND SWAP1 POP SWAP1 JUMP JUMPDEST PUSH0 PUSH1 0x4 PUSH0 ADD PUSH1 0x14 SWAP1 SLOAD SWAP1 PUSH2 0x100 EXP SWAP1 DIV PUSH1 0xFF AND SWAP1 POP SWAP1 JUMP JUMPDEST TIMESTAMP PUSH32 0x0 PUSH6 0xFFFFFFFFFFFF AND LT ISZERO PUSH2 0x113E JUMPI PUSH2 0x10CC PUSH2 0x14CE JUMP JUMPDEST PUSH20 0xFFFFFFFFFFFFFFFFFFFFFFFFFFFFFFFFFFFFFFFF AND CALLER PUSH20 0xFFFFFFFFFFFFFFFFFFFFFFFFFFFFFFFFFFFFFFFF AND EQ PUSH2 0x1139 JUMPI PUSH1 0x40 MLOAD PUSH32 0x8C379A000000000000000000000000000000000000000000000000000000000 DUP2 MSTORE PUSH1 0x4 ADD PUSH2 0x1130 SWAP1 PUSH2 0x1E5D JUMP JUMPDEST PUSH1 0x40 MLOAD DUP1 SWAP2 SUB SWAP1 REVERT JUMPDEST PUSH2 0x11C5 JUMP JUMPDEST PUSH2 0x1146 PUSH2 0x1052 JUMP JUMPDEST PUSH20 0xFFFFFFFFFFFFFFFFFFFFFFFFFFFFFFFFFFFFFFFF AND CALLER PUSH20 0xFFFFFFFFFFFFFFFFFFFFFFFFFFFFFFFFFFFFFFFF AND EQ DUP1 ISZERO PUSH2 0x1185 JUMPI POP PUSH2 0x1183 PUSH2 0x107C JUMP JUMPDEST ISZERO JUMPDEST PUSH2 0x11C4 JUMPI PUSH1 0x40 MLOAD PUSH32 0x8C379A000000000000000000000000000000000000000000000000000000000 DUP2 MSTORE PUSH1 0x4 ADD PUSH2 0x11BB SWAP1 PUSH2 0x1E5D JUMP JUMPDEST PUSH1 0x40 MLOAD DUP1 SWAP2 SUB SWAP1 REVERT JUMPDEST JUMPDEST PUSH0 DUP2 PUSH20 0xFFFFFFFFFFFFFFFFFFFFFFFFFFFFFFFFFFFFFFFF AND EXTCODESIZE GT ISZERO PUSH2 0x1303 JUMPI CALLER PUSH20 0xFFFFFFFFFFFFFFFFFFFFFFFFFFFFFFFFFFFFFFFF AND PUSH1 0x4 PUSH0 ADD PUSH0 SWAP1 SLOAD SWAP1 PUSH2 0x100 EXP SWAP1 DIV PUSH20 0xFFFFFFFFFFFFFFFFFFFFFFFFFFFFFFFFFFFFFFFF AND PUSH20 0xFFFFFFFFFFFFFFFFFFFFFFFFFFFFFFFFFFFFFFFF AND SUB PUSH2 0x1248 JUMPI PUSH2 0x1243 DUP2 PUSH2 0x1AD1 JUMP JUMPDEST PUSH2 0x12FE JUMP JUMPDEST PUSH3 0x13C680 TIMESTAMP PUSH2 0x1257 SWAP2 SWAP1 PUSH2 0x20B4 JUMP JUMPDEST PUSH1 0x3 PUSH1 0x14 PUSH2 0x100 EXP DUP2 SLOAD DUP2 PUSH6 0xFFFFFFFFFFFF MUL NOT AND SWAP1 DUP4 PUSH6 0xFFFFFFFFFFFF AND MUL OR SWAP1 SSTORE POP DUP1 PUSH0 DUP1 PUSH2 0x100 EXP DUP2 SLOAD DUP2 PUSH20 0xFFFFFFFFFFFFFFFFFFFFFFFFFFFFFFFFFFFFFFFF MUL NOT AND SWAP1 DUP4 PUSH20 0xFFFFFFFFFFFFFFFFFFFFFFFFFFFFFFFFFFFFFFFF AND MUL OR SWAP1 SSTORE POP DUP1 PUSH20 0xFFFFFFFFFFFFFFFFFFFFFFFFFFFFFFFFFFFFFFFF AND PUSH32 0x30B8FE69C9B4C23CC01223881227C0CC8CBA5CC56D59263F51711DF1A8F2C667 PUSH1 0x40 MLOAD PUSH1 0x40 MLOAD DUP1 SWAP2 SUB SWAP1 LOG2 JUMPDEST PUSH2 0x1340 JUMP JUMPDEST DUP1 PUSH1 0x40 MLOAD PUSH32 0xC632231500000000000000000000000000000000000000000000000000000000 DUP2 MSTORE PUSH1 0x4 ADD PUSH2 0x1337 SWAP2 SWAP1 PUSH2 0x1D2B JUMP JUMPDEST PUSH1 0x40 MLOAD DUP1 SWAP2 SUB SWAP1 REVERT JUMPDEST POP JUMP JUMPDEST PUSH0 PUSH1 0x5 PUSH0 ADD PUSH0 SWAP1 SLOAD SWAP1 PUSH2 0x100 EXP SWAP1 DIV PUSH20 0xFFFFFFFFFFFFFFFFFFFFFFFFFFFFFFFFFFFFFFFF AND SWAP1 POP SWAP1 JUMP JUMPDEST TIMESTAMP PUSH32 0x0 PUSH6 0xFFFFFFFFFFFF AND LT ISZERO PUSH2 0x1417 JUMPI PUSH2 0x13A5 PUSH2 0x14CE JUMP JUMPDEST PUSH20 0xFFFFFFFFFFFFFFFFFFFFFFFFFFFFFFFFFFFFFFFF AND CALLER PUSH20 0xFFFFFFFFFFFFFFFFFFFFFFFFFFFFFFFFFFFFFFFF AND EQ PUSH2 0x1412 JUMPI PUSH1 0x40 MLOAD PUSH32 0x8C379A000000000000000000000000000000000000000000000000000000000 DUP2 MSTORE PUSH1 0x4 ADD PUSH2 0x1409 SWAP1 PUSH2 0x1E5D JUMP JUMPDEST PUSH1 0x40 MLOAD DUP1 SWAP2 SUB SWAP1 REVERT JUMPDEST PUSH2 0x149E JUMP JUMPDEST PUSH2 0x141F PUSH2 0x1052 JUMP JUMPDEST PUSH20 0xFFFFFFFFFFFFFFFFFFFFFFFFFFFFFFFFFFFFFFFF AND CALLER PUSH20 0xFFFFFFFFFFFFFFFFFFFFFFFFFFFFFFFFFFFFFFFF AND EQ DUP1 ISZERO PUSH2 0x145E JUMPI POP PUSH2 0x145C PUSH2 0x107C JUMP JUMPDEST ISZERO JUMPDEST PUSH2 0x149D JUMPI PUSH1 0x40 MLOAD PUSH32 0x8C379A000000000000000000000000000000000000000000000000000000000 DUP2 MSTORE PUSH1 0x4 ADD PUSH2 0x1494 SWAP1 PUSH2 0x1E5D JUMP JUMPDEST PUSH1 0x40 MLOAD DUP1 SWAP2 SUB SWAP1 REVERT JUMPDEST JUMPDEST PUSH2 0x14A7 DUP2 PUSH2 0x1A07 JUMP JUMPDEST PUSH2 0x14B0 DUP2 PUSH2 0x1A26 JUMP JUMPDEST POP JUMP JUMPDEST PUSH0 PUSH1 0x6 PUSH0 ADD PUSH1 0x15 SWAP1 SLOAD SWAP1 PUSH2 0x100 EXP SWAP1 DIV PUSH4 0xFFFFFFFF AND SWAP1 POP SWAP1 JUMP JUMPDEST PUSH0 PUSH32 0x0 SWAP1 POP SWAP1 JUMP JUMPDEST TIMESTAMP PUSH32 0x0 PUSH6 0xFFFFFFFFFFFF AND LT ISZERO PUSH2 0x159F JUMPI PUSH2 0x152D PUSH2 0x14CE JUMP JUMPDEST PUSH20 0xFFFFFFFFFFFFFFFFFFFFFFFFFFFFFFFFFFFFFFFF AND CALLER PUSH20 0xFFFFFFFFFFFFFFFFFFFFFFFFFFFFFFFFFFFFFFFF AND EQ PUSH2 0x159A JUMPI PUSH1 0x40 MLOAD PUSH32 0x8C379A000000000000000000000000000000000000000000000000000000000 DUP2 MSTORE PUSH1 0x4 ADD PUSH2 0x1591 SWAP1 PUSH2 0x1E5D JUMP JUMPDEST PUSH1 0x40 MLOAD DUP1 SWAP2 SUB SWAP1 REVERT JUMPDEST PUSH2 0x1626 JUMP JUMPDEST PUSH2 0x15A7 PUSH2 0x1052 JUMP JUMPDEST PUSH20 0xFFFFFFFFFFFFFFFFFFFFFFFFFFFFFFFFFFFFFFFF AND CALLER PUSH20 0xFFFFFFFFFFFFFFFFFFFFFFFFFFFFFFFFFFFFFFFF AND EQ DUP1 ISZERO PUSH2 0x15E6 JUMPI POP PUSH2 0x15E4 PUSH2 0x107C JUMP JUMPDEST ISZERO JUMPDEST PUSH2 0x1625 JUMPI PUSH1 0x40 MLOAD PUSH32 0x8C379A000000000000000000000000000000000000000000000000000000000 DUP2 MSTORE PUSH1 0x4 ADD PUSH2 0x161C SWAP1 PUSH2 0x1E5D JUMP JUMPDEST PUSH1 0x40 MLOAD DUP1 SWAP2 SUB SWAP1 REVERT JUMPDEST JUMPDEST PUSH0 DUP2 PUSH20 0xFFFFFFFFFFFFFFFFFFFFFFFFFFFFFFFFFFFFFFFF AND EXTCODESIZE GT ISZERO PUSH2 0x16CD JUMPI DUP1 PUSH1 0x1 PUSH0 PUSH2 0x100 EXP DUP2 SLOAD DUP2 PUSH20 0xFFFFFFFFFFFFFFFFFFFFFFFFFFFFFFFFFFFFFFFF MUL NOT AND SWAP1 DUP4 PUSH20 0xFFFFFFFFFFFFFFFFFFFFFFFFFFFFFFFFFFFFFFFF AND MUL OR SWAP1 SSTORE POP DUP1 PUSH20 0xFFFFFFFFFFFFFFFFFFFFFFFFFFFFFFFFFFFFFFFF AND PUSH32 0xE8D8E3C7C3EBEC0C177D0FE22D223F8B5071DB39155104808D45027E368BA77A PUSH1 0x40 MLOAD PUSH1 0x40 MLOAD DUP1 SWAP2 SUB SWAP1 LOG2 PUSH2 0x170A JUMP JUMPDEST DUP1 PUSH1 0x40 MLOAD PUSH32 0x84DBC6CB00000000000000000000000000000000000000000000000000000000 DUP2 MSTORE PUSH1 0x4 ADD PUSH2 0x1701 SWAP2 SWAP1 PUSH2 0x1D2B JUMP JUMPDEST PUSH1 0x40 MLOAD DUP1 SWAP2 SUB SWAP1 REVERT JUMPDEST POP JUMP JUMPDEST PUSH0 ADDRESS SWAP1 POP SWAP1 JUMP JUMPDEST PUSH0 PUSH1 0x5 PUSH0 ADD PUSH1 0x14 SWAP1 SLOAD SWAP1 PUSH2 0x100 EXP SWAP1 DIV PUSH1 0xFF AND SWAP1 POP SWAP1 JUMP JUMPDEST PUSH2 0x1734 PUSH2 0x1052 JUMP JUMPDEST PUSH20 0xFFFFFFFFFFFFFFFFFFFFFFFFFFFFFFFFFFFFFFFF AND CALLER PUSH20 0xFFFFFFFFFFFFFFFFFFFFFFFFFFFFFFFFFFFFFFFF AND EQ DUP1 ISZERO PUSH2 0x1773 JUMPI POP PUSH2 0x1771 PUSH2 0x107C JUMP JUMPDEST ISZERO JUMPDEST PUSH2 0x17B2 JUMPI PUSH1 0x40 MLOAD PUSH32 0x8C379A000000000000000000000000000000000000000000000000000000000 DUP2 MSTORE PUSH1 0x4 ADD PUSH2 0x17A9 SWAP1 PUSH2 0x1E5D JUMP JUMPDEST PUSH1 0x40 MLOAD DUP1 SWAP2 SUB SWAP1 REVERT JUMPDEST DUP1 PUSH20 0xFFFFFFFFFFFFFFFFFFFFFFFFFFFFFFFFFFFFFFFF AND PUSH1 0x1 PUSH0 SWAP1 SLOAD SWAP1 PUSH2 0x100 EXP SWAP1 DIV PUSH20 0xFFFFFFFFFFFFFFFFFFFFFFFFFFFFFFFFFFFFFFFF AND PUSH20 0xFFFFFFFFFFFFFFFFFFFFFFFFFFFFFFFFFFFFFFFF AND SUB PUSH2 0x1935 JUMPI PUSH1 0x1 PUSH0 PUSH2 0x100 EXP DUP2 SLOAD SWAP1 PUSH20 0xFFFFFFFFFFFFFFFFFFFFFFFFFFFFFFFFFFFFFFFF MUL NOT AND SWAP1 SSTORE DUP1 PUSH1 0x6 PUSH0 ADD PUSH0 PUSH2 0x100 EXP DUP2 SLOAD DUP2 PUSH20 0xFFFFFFFFFFFFFFFFFFFFFFFFFFFFFFFFFFFFFFFF MUL NOT AND SWAP1 DUP4 PUSH20 0xFFFFFFFFFFFFFFFFFFFFFFFFFFFFFFFFFFFFFFFF AND MUL OR SWAP1 SSTORE POP PUSH1 0x6 PUSH0 ADD PUSH1 0x15 DUP2 DUP2 SWAP1 SLOAD SWAP1 PUSH2 0x100 EXP SWAP1 DIV PUSH4 0xFFFFFFFF AND DUP1 SWAP3 SWAP2 SWAP1 PUSH2 0x1890 SWAP1 PUSH2 0x1EA8 JUMP JUMPDEST SWAP2 SWAP1 PUSH2 0x100 EXP DUP2 SLOAD DUP2 PUSH4 0xFFFFFFFF MUL NOT AND SWAP1 DUP4 PUSH4 0xFFFFFFFF AND MUL OR SWAP1 SSTORE POP POP PUSH1 0x6 PUSH0 ADD PUSH1 0x15 SWAP1 SLOAD SWAP1 PUSH2 0x100 EXP SWAP1 DIV PUSH4 0xFFFFFFFF AND PUSH4 0xFFFFFFFF AND PUSH1 0x6 PUSH0 ADD PUSH0 SWAP1 SLOAD SWAP1 PUSH2 0x100 EXP SWAP1 DIV PUSH20 0xFFFFFFFFFFFFFFFFFFFFFFFFFFFFFFFFFFFFFFFF AND PUSH20 0xFFFFFFFFFFFFFFFFFFFFFFFFFFFFFFFFFFFFFFFF AND PUSH32 0x5E86008A8467D1EFCCFE6CB6BD49BA7278D6AF2745A1E6994E443322A4237093 PUSH1 0x40 MLOAD PUSH1 0x40 MLOAD DUP1 SWAP2 SUB SWAP1 LOG3 PUSH2 0x1972 JUMP JUMPDEST DUP1 PUSH1 0x40 MLOAD PUSH32 0x84DBC6CB00000000000000000000000000000000000000000000000000000000 DUP2 MSTORE PUSH1 0x4 ADD PUSH2 0x1969 SWAP2 SWAP1 PUSH2 0x1D2B JUMP JUMPDEST PUSH1 0x40 MLOAD DUP1 SWAP2 SUB SWAP1 REVERT JUMPDEST POP JUMP JUMPDEST PUSH2 0x197D PUSH2 0x1052 JUMP JUMPDEST PUSH20 0xFFFFFFFFFFFFFFFFFFFFFFFFFFFFFFFFFFFFFFFF AND CALLER PUSH20 0xFFFFFFFFFFFFFFFFFFFFFFFFFFFFFFFFFFFFFFFF AND EQ DUP1 ISZERO PUSH2 0x19BC JUMPI POP PUSH2 0x19BA PUSH2 0x107C JUMP JUMPDEST ISZERO JUMPDEST PUSH2 0x19FB JUMPI PUSH1 0x40 MLOAD PUSH32 0x8C379A000000000000000000000000000000000000000000000000000000000 DUP2 MSTORE PUSH1 0x4 ADD PUSH2 0x19F2 SWAP1 PUSH2 0x1E5D JUMP JUMPDEST PUSH1 0x40 MLOAD DUP1 SWAP2 SUB SWAP1 REVERT JUMPDEST PUSH2 0x1A04 DUP2 PUSH2 0x1A26 JUMP JUMPDEST POP JUMP JUMPDEST DUP1 PUSH1 0x4 PUSH0 ADD PUSH1 0x14 PUSH2 0x100 EXP DUP2 SLOAD DUP2 PUSH1 0xFF MUL NOT AND SWAP1 DUP4 ISZERO ISZERO MUL OR SWAP1 SSTORE POP POP JUMP JUMPDEST DUP1 PUSH1 0x5 PUSH0 ADD PUSH1 0x14 PUSH2 0x100 EXP DUP2 SLOAD DUP2 PUSH1 0xFF MUL NOT AND SWAP1 DUP4 ISZERO ISZERO MUL OR SWAP1 SSTORE POP PUSH1 0x6 PUSH0 ADD PUSH0 SWAP1 SLOAD SWAP1 PUSH2 0x100 EXP SWAP1 DIV PUSH20 0xFFFFFFFFFFFFFFFFFFFFFFFFFFFFFFFFFFFFFFFF AND PUSH20 0xFFFFFFFFFFFFFFFFFFFFFFFFFFFFFFFFFFFFFFFF AND PUSH4 0x863AD595 DUP3 PUSH1 0x4 PUSH1 0x40 MLOAD DUP4 PUSH4 0xFFFFFFFF AND PUSH1 0xE0 SHL DUP2 MSTORE PUSH1 0x4 ADD PUSH2 0x1AA1 SWAP3 SWAP2 SWAP1 PUSH2 0x20E7 JUMP JUMPDEST PUSH0 PUSH1 0x40 MLOAD DUP1 DUP4 SUB DUP2 PUSH0 DUP8 DUP1 EXTCODESIZE ISZERO DUP1 ISZERO PUSH2 0x1AB8 JUMPI PUSH0 DUP1 REVERT JUMPDEST POP GAS CALL ISZERO DUP1 ISZERO PUSH2 0x1ACA JUMPI RETURNDATASIZE PUSH0 DUP1 RETURNDATACOPY RETURNDATASIZE PUSH0 REVERT JUMPDEST POP POP POP POP POP JUMP JUMPDEST PUSH1 0x6 PUSH0 ADD PUSH0 SWAP1 SLOAD SWAP1 PUSH2 0x100 EXP SWAP1 DIV PUSH20 0xFFFFFFFFFFFFFFFFFFFFFFFFFFFFFFFFFFFFFFFF AND PUSH20 0xFFFFFFFFFFFFFFFFFFFFFFFFFFFFFFFFFFFFFFFF AND PUSH4 0xC92A788C PUSH1 0x1 PUSH1 0x7 PUSH0 ADD PUSH0 SWAP1 SLOAD SWAP1 PUSH2 0x100 EXP SWAP1 DIV PUSH20 0xFFFFFFFFFFFFFFFFFFFFFFFFFFFFFFFFFFFFFFFF AND DUP5 PUSH1 0x2 PUSH3 0x15180 PUSH1 0x40 MLOAD DUP7 PUSH4 0xFFFFFFFF AND PUSH1 0xE0 SHL DUP2 MSTORE PUSH1 0x4 ADD PUSH2 0x1B5D SWAP6 SWAP5 SWAP4 SWAP3 SWAP2 SWAP1 PUSH2 0x2153 JUMP JUMPDEST PUSH0 PUSH1 0x40 MLOAD DUP1 DUP4 SUB DUP2 PUSH0 DUP8 DUP1 EXTCODESIZE ISZERO DUP1 ISZERO PUSH2 0x1B74 JUMPI PUSH0 DUP1 REVERT JUMPDEST POP GAS CALL ISZERO DUP1 ISZERO PUSH2 0x1B86 JUMPI RETURNDATASIZE PUSH0 DUP1 RETURNDATACOPY RETURNDATASIZE PUSH0 REVERT JUMPDEST POP POP POP POP DUP1 PUSH1 0x7 PUSH0 ADD PUSH0 PUSH2 0x100 EXP DUP2 SLOAD DUP2 PUSH20 0xFFFFFFFFFFFFFFFFFFFFFFFFFFFFFFFFFFFFFFFF MUL NOT AND SWAP1 DUP4 PUSH20 0xFFFFFFFFFFFFFFFFFFFFFFFFFFFFFFFFFFFFFFFF AND MUL OR SWAP1 SSTORE POP PUSH1 0x7 PUSH0 ADD PUSH1 0x15 DUP2 DUP2 SWAP1 SLOAD SWAP1 PUSH2 0x100 EXP SWAP1 DIV PUSH4 0xFFFFFFFF AND DUP1 SWAP3 SWAP2 SWAP1 PUSH2 0x1BF0 SWAP1 PUSH2 0x1EA8 JUMP JUMPDEST SWAP2 SWAP1 PUSH2 0x100 EXP DUP2 SLOAD DUP2 PUSH4 0xFFFFFFFF MUL NOT AND SWAP1 DUP4 PUSH4 0xFFFFFFFF AND MUL OR SWAP1 SSTORE POP POP PUSH1 0x7 PUSH0 ADD PUSH1 0x15 SWAP1 SLOAD SWAP1 PUSH2 0x100 EXP SWAP1 DIV PUSH4 0xFFFFFFFF AND PUSH4 0xFFFFFFFF AND PUSH1 0x7 PUSH0 ADD PUSH0 SWAP1 SLOAD SWAP1 PUSH2 0x100 EXP SWAP1 DIV PUSH20 0xFFFFFFFFFFFFFFFFFFFFFFFFFFFFFFFFFFFFFFFF AND PUSH20 0xFFFFFFFFFFFFFFFFFFFFFFFFFFFFFFFFFFFFFFFF AND PUSH32 0xB88EF4C2B55163ED88BCF28DADFEE0092169B7A9A712CEB09FF75E6D2D4BA63B PUSH1 0x40 MLOAD PUSH1 0x40 MLOAD DUP1 SWAP2 SUB SWAP1 LOG3 POP JUMP JUMPDEST PUSH0 DUP1 REVERT JUMPDEST PUSH0 PUSH20 0xFFFFFFFFFFFFFFFFFFFFFFFFFFFFFFFFFFFFFFFF DUP3 AND SWAP1 POP SWAP2 SWAP1 POP JUMP JUMPDEST PUSH0 PUSH2 0x1CC0 DUP3 PUSH2 0x1C97 JUMP JUMPDEST SWAP1 POP SWAP2 SWAP1 POP JUMP JUMPDEST PUSH2 0x1CD0 DUP2 PUSH2 0x1CB6 JUMP JUMPDEST DUP2 EQ PUSH2 0x1CDA JUMPI PUSH0 DUP1 REVERT JUMPDEST POP JUMP JUMPDEST PUSH0 DUP2 CALLDATALOAD SWAP1 POP PUSH2 0x1CEB DUP2 PUSH2 0x1CC7 JUMP JUMPDEST SWAP3 SWAP2 POP POP JUMP JUMPDEST PUSH0 PUSH1 0x20 DUP3 DUP5 SUB SLT ISZERO PUSH2 0x1D06 JUMPI PUSH2 0x1D05 PUSH2 0x1C93 JUMP JUMPDEST JUMPDEST PUSH0 PUSH2 0x1D13 DUP5 DUP3 DUP6 ADD PUSH2 0x1CDD JUMP JUMPDEST SWAP2 POP POP SWAP3 SWAP2 POP POP JUMP JUMPDEST PUSH2 0x1D25 DUP2 PUSH2 0x1CB6 JUMP JUMPDEST DUP3 MSTORE POP POP JUMP JUMPDEST PUSH0 PUSH1 0x20 DUP3 ADD SWAP1 POP PUSH2 0x1D3E PUSH0 DUP4 ADD DUP5 PUSH2 0x1D1C JUMP JUMPDEST SWAP3 SWAP2 POP POP JUMP JUMPDEST PUSH0 DUP2 ISZERO ISZERO SWAP1 POP SWAP2 SWAP1 POP JUMP JUMPDEST PUSH2 0x1D58 DUP2 PUSH2 0x1D44 JUMP JUMPDEST DUP3 MSTORE POP POP JUMP JUMPDEST PUSH0 PUSH1 0x20 DUP3 ADD SWAP1 POP PUSH2 0x1D71 PUSH0 DUP4 ADD DUP5 PUSH2 0x1D4F JUMP JUMPDEST SWAP3 SWAP2 POP POP JUMP JUMPDEST PUSH2 0x1D80 DUP2 PUSH2 0x1D44 JUMP JUMPDEST DUP2 EQ PUSH2 0x1D8A JUMPI PUSH0 DUP1 REVERT JUMPDEST POP JUMP JUMPDEST PUSH0 DUP2 CALLDATALOAD SWAP1 POP PUSH2 0x1D9B DUP2 PUSH2 0x1D77 JUMP JUMPDEST SWAP3 SWAP2 POP POP JUMP JUMPDEST PUSH0 PUSH1 0x20 DUP3 DUP5 SUB SLT ISZERO PUSH2 0x1DB6 JUMPI PUSH2 0x1DB5 PUSH2 0x1C93 JUMP JUMPDEST JUMPDEST PUSH0 PUSH2 0x1DC3 DUP5 DUP3 DUP6 ADD PUSH2 0x1D8D JUMP JUMPDEST SWAP2 POP POP SWAP3 SWAP2 POP POP JUMP JUMPDEST PUSH0 PUSH4 0xFFFFFFFF DUP3 AND SWAP1 POP SWAP2 SWAP1 POP JUMP JUMPDEST PUSH2 0x1DE4 DUP2 PUSH2 0x1DCC JUMP JUMPDEST DUP3 MSTORE POP POP JUMP JUMPDEST PUSH0 PUSH1 0x20 DUP3 ADD SWAP1 POP PUSH2 0x1DFD PUSH0 DUP4 ADD DUP5 PUSH2 0x1DDB JUMP JUMPDEST SWAP3 SWAP2 POP POP JUMP JUMPDEST PUSH0 DUP3 DUP3 MSTORE PUSH1 0x20 DUP3 ADD SWAP1 POP SWAP3 SWAP2 POP POP JUMP JUMPDEST PUSH32 0x416363657373206973206E6F742076616C696400000000000000000000000000 PUSH0 DUP3 ADD MSTORE POP JUMP JUMPDEST PUSH0 PUSH2 0x1E47 PUSH1 0x13 DUP4 PUSH2 0x1E03 JUMP JUMPDEST SWAP2 POP PUSH2 0x1E52 DUP3 PUSH2 0x1E13 JUMP JUMPDEST PUSH1 0x20 DUP3 ADD SWAP1 POP SWAP2 SWAP1 POP JUMP JUMPDEST PUSH0 PUSH1 0x20 DUP3 ADD SWAP1 POP DUP2 DUP2 SUB PUSH0 DUP4 ADD MSTORE PUSH2 0x1E74 DUP2 PUSH2 0x1E3B JUMP JUMPDEST SWAP1 POP SWAP2 SWAP1 POP JUMP JUMPDEST PUSH32 0x4E487B7100000000000000000000000000000000000000000000000000000000 PUSH0 MSTORE PUSH1 0x11 PUSH1 0x4 MSTORE PUSH1 0x24 PUSH0 REVERT JUMPDEST PUSH0 PUSH2 0x1EB2 DUP3 PUSH2 0x1DCC JUMP JUMPDEST SWAP2 POP PUSH4 0xFFFFFFFF DUP3 SUB PUSH2 0x1EC8 JUMPI PUSH2 0x1EC7 PUSH2 0x1E7B JUMP JUMPDEST JUMPDEST PUSH1 0x1 DUP3 ADD SWAP1 POP SWAP2 SWAP1 POP JUMP JUMPDEST PUSH32 0x416C6C0000000000000000000000000000000000000000000000000000000000 DUP2 MSTORE POP JUMP JUMPDEST PUSH0 DUP2 SWAP1 POP SWAP2 SWAP1 POP JUMP JUMPDEST PUSH0 DUP2 SWAP1 POP SWAP2 SWAP1 POP JUMP JUMPDEST PUSH0 PUSH2 0x1F25 PUSH2 0x1F20 PUSH2 0x1F1B DUP5 PUSH2 0x1EF9 JUMP JUMPDEST PUSH2 0x1F02 JUMP JUMPDEST PUSH2 0x1DCC JUMP JUMPDEST SWAP1 POP SWAP2 SWAP1 POP JUMP JUMPDEST PUSH2 0x1F35 DUP2 PUSH2 0x1F0B JUMP JUMPDEST DUP3 MSTORE POP POP JUMP JUMPDEST PUSH0 DUP2 SWAP1 POP SWAP2 SWAP1 POP JUMP JUMPDEST PUSH0 PUSH6 0xFFFFFFFFFFFF DUP3 AND SWAP1 POP SWAP2 SWAP1 POP JUMP JUMPDEST PUSH0 PUSH2 0x1F6F PUSH2 0x1F6A PUSH2 0x1F65 DUP5 PUSH2 0x1F3B JUMP JUMPDEST PUSH2 0x1F02 JUMP JUMPDEST PUSH2 0x1F44 JUMP JUMPDEST SWAP1 POP SWAP2 SWAP1 POP JUMP JUMPDEST PUSH2 0x1F7F DUP2 PUSH2 0x1F55 JUMP JUMPDEST DUP3 MSTORE POP POP JUMP JUMPDEST PUSH0 PUSH1 0xC0 DUP3 ADD SWAP1 POP PUSH2 0x1F98 PUSH0 DUP4 ADD DUP9 PUSH2 0x1D4F JUMP JUMPDEST PUSH2 0x1FA5 PUSH1 0x20 DUP4 ADD DUP8 PUSH2 0x1D1C JUMP JUMPDEST PUSH2 0x1FB2 PUSH1 0x40 DUP4 ADD DUP7 PUSH2 0x1D1C JUMP JUMPDEST PUSH2 0x1FBE PUSH1 0x60 DUP4 ADD PUSH2 0x1ED3 JUMP JUMPDEST PUSH2 0x1FCB PUSH1 0x80 DUP4 ADD DUP6 PUSH2 0x1F2C JUMP JUMPDEST PUSH2 0x1FD8 PUSH1 0xA0 DUP4 ADD DUP5 PUSH2 0x1F76 JUMP JUMPDEST SWAP7 SWAP6 POP POP POP POP POP POP JUMP JUMPDEST PUSH32 0x546865207265717565737420697320696E76616C696400000000000000000000 PUSH0 DUP3 ADD MSTORE POP JUMP JUMPDEST PUSH0 PUSH2 0x2016 PUSH1 0x16 DUP4 PUSH2 0x1E03 JUMP JUMPDEST SWAP2 POP PUSH2 0x2021 DUP3 PUSH2 0x1FE2 JUMP JUMPDEST PUSH1 0x20 DUP3 ADD SWAP1 POP SWAP2 SWAP1 POP JUMP JUMPDEST PUSH0 PUSH1 0x20 DUP3 ADD SWAP1 POP DUP2 DUP2 SUB PUSH0 DUP4 ADD MSTORE PUSH2 0x2043 DUP2 PUSH2 0x200A JUMP JUMPDEST SWAP1 POP SWAP2 SWAP1 POP JUMP JUMPDEST PUSH0 PUSH2 0x2054 DUP3 PUSH2 0x1F44 JUMP JUMPDEST SWAP2 POP PUSH2 0x205F DUP4 PUSH2 0x1F44 JUMP JUMPDEST SWAP3 POP DUP3 DUP3 SUB SWAP1 POP PUSH6 0xFFFFFFFFFFFF DUP2 GT ISZERO PUSH2 0x207D JUMPI PUSH2 0x207C PUSH2 0x1E7B JUMP JUMPDEST JUMPDEST SWAP3 SWAP2 POP POP JUMP JUMPDEST PUSH2 0x208C DUP2 PUSH2 0x1F44 JUMP JUMPDEST DUP3 MSTORE POP POP JUMP JUMPDEST PUSH0 PUSH1 0x20 DUP3 ADD SWAP1 POP PUSH2 0x20A5 PUSH0 DUP4 ADD DUP5 PUSH2 0x2083 JUMP JUMPDEST SWAP3 SWAP2 POP POP JUMP JUMPDEST PUSH0 DUP2 SWAP1 POP SWAP2 SWAP1 POP JUMP JUMPDEST PUSH0 PUSH2 0x20BE DUP3 PUSH2 0x20AB JUMP JUMPDEST SWAP2 POP PUSH2 0x20C9 DUP4 PUSH2 0x20AB JUMP JUMPDEST SWAP3 POP DUP3 DUP3 ADD SWAP1 POP DUP1 DUP3 GT ISZERO PUSH2 0x20E1 JUMPI PUSH2 0x20E0 PUSH2 0x1E7B JUMP JUMPDEST JUMPDEST SWAP3 SWAP2 POP POP JUMP JUMPDEST PUSH0 PUSH1 0x60 DUP3 ADD SWAP1 POP PUSH2 0x20FA PUSH0 DUP4 ADD DUP6 PUSH2 0x1D4F JUMP JUMPDEST PUSH2 0x2107 PUSH1 0x20 DUP4 ADD DUP5 PUSH2 0x1F2C JUMP JUMPDEST PUSH2 0x2113 PUSH1 0x40 DUP4 ADD PUSH2 0x1ED3 JUMP JUMPDEST SWAP4 SWAP3 POP POP POP JUMP JUMPDEST PUSH0 DUP2 SWAP1 POP SWAP2 SWAP1 POP JUMP JUMPDEST PUSH0 PUSH2 0x213D PUSH2 0x2138 PUSH2 0x2133 DUP5 PUSH2 0x211A JUMP JUMPDEST PUSH2 0x1F02 JUMP JUMPDEST PUSH2 0x1DCC JUMP JUMPDEST SWAP1 POP SWAP2 SWAP1 POP JUMP JUMPDEST PUSH2 0x214D DUP2 PUSH2 0x2123 JUMP JUMPDEST DUP3 MSTORE POP POP JUMP JUMPDEST PUSH0 PUSH1 0xC0 DUP3 ADD SWAP1 POP PUSH2 0x2166 PUSH0 DUP4 ADD DUP9 PUSH2 0x1D4F JUMP JUMPDEST PUSH2 0x2173 PUSH1 0x20 DUP4 ADD DUP8 PUSH2 0x1D1C JUMP JUMPDEST PUSH2 0x2180 PUSH1 0x40 DUP4 ADD DUP7 PUSH2 0x1D1C JUMP JUMPDEST PUSH2 0x218C PUSH1 0x60 DUP4 ADD PUSH2 0x1ED3 JUMP JUMPDEST PUSH2 0x2199 PUSH1 0x80 DUP4 ADD DUP6 PUSH2 0x2144 JUMP JUMPDEST PUSH2 0x21A6 PUSH1 0xA0 DUP4 ADD DUP5 PUSH2 0x1F76 JUMP JUMPDEST SWAP7 SWAP6 POP POP POP POP POP POP JUMP INVALID LOG2 PUSH5 0x6970667358 0x22 SLT KECCAK256 DUP12 0xA8 CALLCODE PUSH19 0xDA704B6B2403F37D4AC2949C4535EA9E35C026 CHAINID 0xDB SDIV 0x2A CALLDATACOPY PUSH23 0xDACCCB64736F6C63430008140033000000000000000000 "
				},
				"gasEstimates": {
					"creation": {
						"codeDepositCost": "1735600",
						"executionCost": "infinite",
						"totalCost": "infinite"
					},
					"external": {
						"cancelPendingRepublicGAddress(address)": "infinite",
						"getAuthorityAddress()": "423",
						"getGovernance()": "2632",
						"getPresidentAdd()": "2609",
						"getPresidentBan()": "2640",
						"getPrimeMinisterAdd()": "2565",
						"getPrimeMinisterBan()": "2595",
						"getRepublicAddress()": "infinite",
						"getRepublicGAddress()": "2543",
						"getgovernanceVersion()": "2618",
						"setPendigPresident(address)": "infinite",
						"setPendingGovernanceContractAddress(address)": "infinite",
						"setPendingPrimeMinister(address)": "30404",
						"setPendingRepublicGAddress(address)": "infinite",
						"setPresidentBaned(bool)": "infinite",
						"setPrimeMinisterBaned(bool)": "infinite",
						"transferGovernanceContractAddress(address)": "infinite",
						"transferPresident()": "107764",
						"transferPrimeMinister()": "infinite",
						"transferRepublicGAddress(address)": "infinite"
					},
					"internal": {
						"_setPresidentBaned(bool)": "24333",
						"_setPrimeMinisterBaned(bool)": "infinite",
						"_transferRepublicGAddress(address)": "infinite"
					}
				},
				"methodIdentifiers": {
					"cancelPendingRepublicGAddress(address)": "4494acd9",
					"getAuthorityAddress()": "e47a9d46",
					"getGovernance()": "289b3c0d",
					"getPresidentAdd()": "66410997",
					"getPresidentBan()": "6cf106d7",
					"getPrimeMinisterAdd()": "a53da00b",
					"getPrimeMinisterBan()": "e4f3e947",
					"getRepublicAddress()": "c5a1c5c1",
					"getRepublicGAddress()": "37676f79",
					"getgovernanceVersion()": "c387b49c",
					"setPendigPresident(address)": "054203bd",
					"setPendingGovernanceContractAddress(address)": "ca4cce68",
					"setPendingPrimeMinister(address)": "544fa93e",
					"setPendingRepublicGAddress(address)": "861a179d",
					"setPresidentBaned(bool)": "b5c09c68",
					"setPrimeMinisterBaned(bool)": "f5f9cdd4",
					"transferGovernanceContractAddress(address)": "ee7126c3",
					"transferPresident()": "0df4c390",
					"transferPrimeMinister()": "18074eee",
					"transferRepublicGAddress(address)": "1f86aa2a"
				}
			},
			"storageLayout": {
				"storage": [
					{
						"astId": 103,
						"contract": "contracts/authority.sol:Authority",
						"label": "_pendigRepublicGAddress",
						"offset": 0,
						"slot": "0",
						"type": "t_address"
					},
					{
						"astId": 105,
						"contract": "contracts/authority.sol:Authority",
						"label": "_pendingGCAddress",
						"offset": 0,
						"slot": "1",
						"type": "t_address"
					},
					{
						"astId": 107,
						"contract": "contracts/authority.sol:Authority",
						"label": "_pendigPresident",
						"offset": 0,
						"slot": "2",
						"type": "t_address"
					},
					{
						"astId": 109,
						"contract": "contracts/authority.sol:Authority",
						"label": "_pendingPrimeMinister",
						"offset": 0,
						"slot": "3",
						"type": "t_address"
					},
					{
						"astId": 119,
						"contract": "contracts/authority.sol:Authority",
						"label": "_delayConfirmRepublicGAddress",
						"offset": 20,
						"slot": "3",
						"type": "t_uint48"
					},
					{
						"astId": 129,
						"contract": "contracts/authority.sol:Authority",
						"label": "_president",
						"offset": 0,
						"slot": "4",
						"type": "t_struct(access)126_storage"
					},
					{
						"astId": 132,
						"contract": "contracts/authority.sol:Authority",
						"label": "_primeMinister",
						"offset": 0,
						"slot": "5",
						"type": "t_struct(access)126_storage"
					},
					{
						"astId": 135,
						"contract": "contracts/authority.sol:Authority",
						"label": "_governance",
						"offset": 0,
						"slot": "6",
						"type": "t_struct(access)126_storage"
					},
					{
						"astId": 138,
						"contract": "contracts/authority.sol:Authority",
						"label": "_RepublicG",
						"offset": 0,
						"slot": "7",
						"type": "t_struct(access)126_storage"
					}
				],
				"types": {
					"t_address": {
						"encoding": "inplace",
						"label": "address",
						"numberOfBytes": "20"
					},
					"t_bool": {
						"encoding": "inplace",
						"label": "bool",
						"numberOfBytes": "1"
					},
					"t_struct(access)126_storage": {
						"encoding": "inplace",
						"label": "struct Authority.access",
						"members": [
							{
								"astId": 121,
								"contract": "contracts/authority.sol:Authority",
								"label": "roleAdd",
								"offset": 0,
								"slot": "0",
								"type": "t_address"
							},
							{
								"astId": 123,
								"contract": "contracts/authority.sol:Authority",
								"label": "baned",
								"offset": 20,
								"slot": "0",
								"type": "t_bool"
							},
							{
								"astId": 125,
								"contract": "contracts/authority.sol:Authority",
								"label": "nonce",
								"offset": 21,
								"slot": "0",
								"type": "t_uint32"
							}
						],
						"numberOfBytes": "32"
					},
					"t_uint32": {
						"encoding": "inplace",
						"label": "uint32",
						"numberOfBytes": "4"
					},
					"t_uint48": {
						"encoding": "inplace",
						"label": "uint48",
						"numberOfBytes": "6"
					}
				}
			},
			"userdoc": {
				"kind": "user",
				"methods": {},
				"version": 1
			}
		}
	}
}