{
	"contracts/storageTokenContractName.sol": {
		"storageTCN": {
			"abi": [
				{
					"inputs": [
						{
							"internalType": "uint256",
							"name": "proposalState",
							"type": "uint256"
						}
					],
					"name": "stateIsInvalid",
					"type": "error"
				},
				{
					"inputs": [
						{
							"internalType": "bytes32",
							"name": "varName",
							"type": "bytes32"
						}
					],
					"name": "getActivityTimeToken",
					"outputs": [
						{
							"internalType": "uint48[1201]",
							"name": "time_",
							"type": "uint48[1201]"
						}
					],
					"stateMutability": "view",
					"type": "function"
				},
				{
					"inputs": [
						{
							"internalType": "uint256",
							"name": "proposalId",
							"type": "uint256"
						}
					],
					"name": "proposals",
					"outputs": [
						{
							"components": [
								{
									"internalType": "address",
									"name": "proposer",
									"type": "address"
								},
								{
									"internalType": "address",
									"name": "ballotContract",
									"type": "address"
								},
								{
									"internalType": "uint16",
									"name": "quorum",
									"type": "uint16"
								},
								{
									"internalType": "uint32",
									"name": "voteDuration",
									"type": "uint32"
								},
								{
									"internalType": "uint48",
									"name": "voteStart",
									"type": "uint48"
								},
								{
									"internalType": "uint48",
									"name": "etaSeconds",
									"type": "uint48"
								},
								{
									"internalType": "bool",
									"name": "executed",
									"type": "bool"
								},
								{
									"internalType": "bool",
									"name": "canceled",
									"type": "bool"
								},
								{
									"internalType": "bool",
									"name": "Succeeded",
									"type": "bool"
								},
								{
									"internalType": "bool",
									"name": "Defeated",
									"type": "bool"
								}
							],
							"internalType": "struct storageTCN.ProposalCore",
							"name": "",
							"type": "tuple"
						}
					],
					"stateMutability": "view",
					"type": "function"
				},
				{
					"inputs": [
						{
							"internalType": "uint256",
							"name": "time",
							"type": "uint256"
						},
						{
							"internalType": "uint16",
							"name": "tokenId",
							"type": "uint16"
						},
						{
							"internalType": "bytes32",
							"name": "varName",
							"type": "bytes32"
						}
					],
					"name": "setActivityTimeToken",
					"outputs": [],
					"stateMutability": "nonpayable",
					"type": "function"
				},
				{
					"inputs": [
						{
							"internalType": "uint256",
							"name": "proposalId",
							"type": "uint256"
						},
						{
							"internalType": "address",
							"name": "proposer_",
							"type": "address"
						},
						{
							"internalType": "address",
							"name": "ballotContract_",
							"type": "address"
						},
						{
							"internalType": "uint16",
							"name": "quorum_",
							"type": "uint16"
						},
						{
							"internalType": "uint32",
							"name": "voteDuration_",
							"type": "uint32"
						},
						{
							"internalType": "uint48",
							"name": "voteStart_",
							"type": "uint48"
						},
						{
							"internalType": "uint48",
							"name": "etaSeconds_",
							"type": "uint48"
						}
					],
					"name": "setProposalCore",
					"outputs": [],
					"stateMutability": "nonpayable",
					"type": "function"
				},
				{
					"inputs": [
						{
							"internalType": "uint256",
							"name": "proposalState",
							"type": "uint256"
						},
						{
							"internalType": "uint256",
							"name": "proposalId",
							"type": "uint256"
						}
					],
					"name": "setProposalState",
					"outputs": [],
					"stateMutability": "nonpayable",
					"type": "function"
				}
			],
			"devdoc": {
				"kind": "dev",
				"methods": {},
				"version": 1
			},
			"evm": {
				"assembly": "    /* \"contracts/storageTokenContractName.sol\":75:4320  contract storageTCN {... */\n  mstore(0x40, 0x80)\n  callvalue\n  dup1\n  iszero\n  tag_1\n  jumpi\n  0x00\n  dup1\n  revert\ntag_1:\n  pop\n  dataSize(sub_0)\n  dup1\n  dataOffset(sub_0)\n  0x00\n  codecopy\n  0x00\n  return\nstop\n\nsub_0: assembly {\n        /* \"contracts/storageTokenContractName.sol\":75:4320  contract storageTCN {... */\n      mstore(0x40, 0x80)\n      callvalue\n      dup1\n      iszero\n      tag_1\n      jumpi\n      0x00\n      dup1\n      revert\n    tag_1:\n      pop\n      jumpi(tag_2, lt(calldatasize, 0x04))\n      shr(0xe0, calldataload(0x00))\n      dup1\n      0x013cf08b\n      eq\n      tag_3\n      jumpi\n      dup1\n      0x1e9608a8\n      eq\n      tag_4\n      jumpi\n      dup1\n      0x8d8caded\n      eq\n      tag_5\n      jumpi\n      dup1\n      0xc34fe703\n      eq\n      tag_6\n      jumpi\n      dup1\n      0xc5301082\n      eq\n      tag_7\n      jumpi\n    tag_2:\n      0x00\n      dup1\n      revert\n        /* \"contracts/storageTokenContractName.sol\":3361:3490  function proposals(uint256 proposalId) public view returns (ProposalCore memory) {... */\n    tag_3:\n      tag_8\n      0x04\n      dup1\n      calldatasize\n      sub\n      dup2\n      add\n      swap1\n      tag_9\n      swap2\n      swap1\n      tag_10\n      jump\t// in\n    tag_9:\n      tag_11\n      jump\t// in\n    tag_8:\n      mload(0x40)\n      tag_12\n      swap2\n      swap1\n      tag_13\n      jump\t// in\n    tag_12:\n      mload(0x40)\n      dup1\n      swap2\n      sub\n      swap1\n      return\n        /* \"contracts/storageTokenContractName.sol\":1489:2059  function setProposalState(uint256 proposalState, uint256 proposalId) public {... */\n    tag_4:\n      tag_14\n      0x04\n      dup1\n      calldatasize\n      sub\n      dup2\n      add\n      swap1\n      tag_15\n      swap2\n      swap1\n      tag_16\n      jump\t// in\n    tag_15:\n      tag_17\n      jump\t// in\n    tag_14:\n      stop\n        /* \"contracts/storageTokenContractName.sol\":860:1479  function setProposalCore(... */\n    tag_5:\n      tag_18\n      0x04\n      dup1\n      calldatasize\n      sub\n      dup2\n      add\n      swap1\n      tag_19\n      swap2\n      swap1\n      tag_20\n      jump\t// in\n    tag_19:\n      tag_21\n      jump\t// in\n    tag_18:\n      stop\n        /* \"contracts/storageTokenContractName.sol\":3500:4305  function getActivityTimeToken(bytes32 varName) public view returns (uint48[1201] memory time_) {... */\n    tag_6:\n      tag_22\n      0x04\n      dup1\n      calldatasize\n      sub\n      dup2\n      add\n      swap1\n      tag_23\n      swap2\n      swap1\n      tag_24\n      jump\t// in\n    tag_23:\n      tag_25\n      jump\t// in\n    tag_22:\n      mload(0x40)\n      tag_26\n      swap2\n      swap1\n      tag_27\n      jump\t// in\n    tag_26:\n      mload(0x40)\n      dup1\n      swap2\n      sub\n      swap1\n      return\n        /* \"contracts/storageTokenContractName.sol\":2071:3351  function setActivityTimeToken(uint256 time, uint16 tokenId, bytes32 varName) public {... */\n    tag_7:\n      tag_28\n      0x04\n      dup1\n      calldatasize\n      sub\n      dup2\n      add\n      swap1\n      tag_29\n      swap2\n      swap1\n      tag_30\n      jump\t// in\n    tag_29:\n      tag_31\n      jump\t// in\n    tag_28:\n      stop\n        /* \"contracts/storageTokenContractName.sol\":3361:3490  function proposals(uint256 proposalId) public view returns (ProposalCore memory) {... */\n    tag_11:\n        /* \"contracts/storageTokenContractName.sol\":3421:3440  ProposalCore memory */\n      tag_32\n      tag_33\n      jump\t// in\n    tag_32:\n        /* \"contracts/storageTokenContractName.sol\":3460:3470  _proposals */\n      0x03c4\n        /* \"contracts/storageTokenContractName.sol\":3460:3482  _proposals[proposalId] */\n      0x00\n        /* \"contracts/storageTokenContractName.sol\":3471:3481  proposalId */\n      dup4\n        /* \"contracts/storageTokenContractName.sol\":3460:3482  _proposals[proposalId] */\n      dup2\n      mstore\n      0x20\n      add\n      swap1\n      dup2\n      mstore\n      0x20\n      add\n      0x00\n      keccak256\n        /* \"contracts/storageTokenContractName.sol\":3453:3482  return _proposals[proposalId] */\n      mload(0x40)\n      dup1\n      0x0140\n      add\n      0x40\n      mstore\n      swap1\n      dup2\n      0x00\n      dup3\n      add\n      0x00\n      swap1\n      sload\n      swap1\n      0x0100\n      exp\n      swap1\n      div\n      0xffffffffffffffffffffffffffffffffffffffff\n      and\n      0xffffffffffffffffffffffffffffffffffffffff\n      and\n      0xffffffffffffffffffffffffffffffffffffffff\n      and\n      dup2\n      mstore\n      0x20\n      add\n      0x01\n      dup3\n      add\n      0x00\n      swap1\n      sload\n      swap1\n      0x0100\n      exp\n      swap1\n      div\n      0xffffffffffffffffffffffffffffffffffffffff\n      and\n      0xffffffffffffffffffffffffffffffffffffffff\n      and\n      0xffffffffffffffffffffffffffffffffffffffff\n      and\n      dup2\n      mstore\n      0x20\n      add\n      0x01\n      dup3\n      add\n      0x14\n      swap1\n      sload\n      swap1\n      0x0100\n      exp\n      swap1\n      div\n      0xffff\n      and\n      0xffff\n      and\n      0xffff\n      and\n      dup2\n      mstore\n      0x20\n      add\n      0x01\n      dup3\n      add\n      0x16\n      swap1\n      sload\n      swap1\n      0x0100\n      exp\n      swap1\n      div\n      0xffffffff\n      and\n      0xffffffff\n      and\n      0xffffffff\n      and\n      dup2\n      mstore\n      0x20\n      add\n      0x01\n      dup3\n      add\n      0x1a\n      swap1\n      sload\n      swap1\n      0x0100\n      exp\n      swap1\n      div\n      0xffffffffffff\n      and\n      0xffffffffffff\n      and\n      0xffffffffffff\n      and\n      dup2\n      mstore\n      0x20\n      add\n      0x02\n      dup3\n      add\n      0x00\n      swap1\n      sload\n      swap1\n      0x0100\n      exp\n      swap1\n      div\n      0xffffffffffff\n      and\n      0xffffffffffff\n      and\n      0xffffffffffff\n      and\n      dup2\n      mstore\n      0x20\n      add\n      0x02\n      dup3\n      add\n      0x06\n      swap1\n      sload\n      swap1\n      0x0100\n      exp\n      swap1\n      div\n      0xff\n      and\n      iszero\n      iszero\n      iszero\n      iszero\n      dup2\n      mstore\n      0x20\n      add\n      0x02\n      dup3\n      add\n      0x07\n      swap1\n      sload\n      swap1\n      0x0100\n      exp\n      swap1\n      div\n      0xff\n      and\n      iszero\n      iszero\n      iszero\n      iszero\n      dup2\n      mstore\n      0x20\n      add\n      0x02\n      dup3\n      add\n      0x08\n      swap1\n      sload\n      swap1\n      0x0100\n      exp\n      swap1\n      div\n      0xff\n      and\n      iszero\n      iszero\n      iszero\n      iszero\n      dup2\n      mstore\n      0x20\n      add\n      0x02\n      dup3\n      add\n      0x09\n      swap1\n      sload\n      swap1\n      0x0100\n      exp\n      swap1\n      div\n      0xff\n      and\n      iszero\n      iszero\n      iszero\n      iszero\n      dup2\n      mstore\n      pop\n      pop\n      swap1\n      pop\n        /* \"contracts/storageTokenContractName.sol\":3361:3490  function proposals(uint256 proposalId) public view returns (ProposalCore memory) {... */\n      swap2\n      swap1\n      pop\n      jump\t// out\n        /* \"contracts/storageTokenContractName.sol\":1489:2059  function setProposalState(uint256 proposalState, uint256 proposalId) public {... */\n    tag_17:\n        /* \"contracts/storageTokenContractName.sol\":1585:1598  proposalState */\n      dup2\n        /* \"contracts/storageTokenContractName.sol\":1580:1581  2 */\n      0x02\n        /* \"contracts/storageTokenContractName.sol\":1580:1598  2 >= proposalState */\n      lt\n      iszero\n        /* \"contracts/storageTokenContractName.sol\":1580:1620  2 >= proposalState || proposalState >= 5 */\n      dup1\n      tag_36\n      jumpi\n      pop\n        /* \"contracts/storageTokenContractName.sol\":1619:1620  5 */\n      0x05\n        /* \"contracts/storageTokenContractName.sol\":1602:1615  proposalState */\n      dup3\n        /* \"contracts/storageTokenContractName.sol\":1602:1620  proposalState >= 5 */\n      lt\n      iszero\n        /* \"contracts/storageTokenContractName.sol\":1580:1620  2 >= proposalState || proposalState >= 5 */\n    tag_36:\n        /* \"contracts/storageTokenContractName.sol\":1576:1685  if (2 >= proposalState || proposalState >= 5) {... */\n      iszero\n      tag_37\n      jumpi\n        /* \"contracts/storageTokenContractName.sol\":1659:1672  proposalState */\n      dup2\n        /* \"contracts/storageTokenContractName.sol\":1644:1673  stateIsInvalid(proposalState) */\n      mload(0x40)\n      0x4961771d00000000000000000000000000000000000000000000000000000000\n      dup2\n      mstore\n      0x04\n      add\n      tag_38\n      swap2\n      swap1\n      tag_39\n      jump\t// in\n    tag_38:\n      mload(0x40)\n      dup1\n      swap2\n      sub\n      swap1\n      revert\n        /* \"contracts/storageTokenContractName.sol\":1576:1685  if (2 >= proposalState || proposalState >= 5) {... */\n    tag_37:\n        /* \"contracts/storageTokenContractName.sol\":1716:1717  4 */\n      0x04\n        /* \"contracts/storageTokenContractName.sol\":1699:1712  proposalState */\n      dup3\n        /* \"contracts/storageTokenContractName.sol\":1699:1717  proposalState == 4 */\n      sub\n        /* \"contracts/storageTokenContractName.sol\":1695:2052  if (proposalState == 4) {... */\n      tag_40\n      jumpi\n        /* \"contracts/storageTokenContractName.sol\":1769:1773  true */\n      0x01\n        /* \"contracts/storageTokenContractName.sol\":1734:1744  _proposals */\n      0x03c4\n        /* \"contracts/storageTokenContractName.sol\":1734:1756  _proposals[proposalId] */\n      0x00\n        /* \"contracts/storageTokenContractName.sol\":1745:1755  proposalId */\n      dup4\n        /* \"contracts/storageTokenContractName.sol\":1734:1756  _proposals[proposalId] */\n      dup2\n      mstore\n      0x20\n      add\n      swap1\n      dup2\n      mstore\n      0x20\n      add\n      0x00\n      keccak256\n        /* \"contracts/storageTokenContractName.sol\":1734:1766  _proposals[proposalId].Succeeded */\n      0x02\n      add\n      0x08\n        /* \"contracts/storageTokenContractName.sol\":1734:1773  _proposals[proposalId].Succeeded = true */\n      0x0100\n      exp\n      dup2\n      sload\n      dup2\n      0xff\n      mul\n      not\n      and\n      swap1\n      dup4\n      iszero\n      iszero\n      mul\n      or\n      swap1\n      sstore\n      pop\n        /* \"contracts/storageTokenContractName.sol\":1695:2052  if (proposalState == 4) {... */\n      jump(tag_41)\n    tag_40:\n        /* \"contracts/storageTokenContractName.sol\":1814:1815  3 */\n      0x03\n        /* \"contracts/storageTokenContractName.sol\":1797:1810  proposalState */\n      dup3\n        /* \"contracts/storageTokenContractName.sol\":1797:1815  proposalState == 3 */\n      sub\n        /* \"contracts/storageTokenContractName.sol\":1793:2052  if (proposalState == 3) {... */\n      tag_42\n      jumpi\n        /* \"contracts/storageTokenContractName.sol\":1866:1870  true */\n      0x01\n        /* \"contracts/storageTokenContractName.sol\":1832:1842  _proposals */\n      0x03c4\n        /* \"contracts/storageTokenContractName.sol\":1832:1854  _proposals[proposalId] */\n      0x00\n        /* \"contracts/storageTokenContractName.sol\":1843:1853  proposalId */\n      dup4\n        /* \"contracts/storageTokenContractName.sol\":1832:1854  _proposals[proposalId] */\n      dup2\n      mstore\n      0x20\n      add\n      swap1\n      dup2\n      mstore\n      0x20\n      add\n      0x00\n      keccak256\n        /* \"contracts/storageTokenContractName.sol\":1832:1863  _proposals[proposalId].Defeated */\n      0x02\n      add\n      0x09\n        /* \"contracts/storageTokenContractName.sol\":1832:1870  _proposals[proposalId].Defeated = true */\n      0x0100\n      exp\n      dup2\n      sload\n      dup2\n      0xff\n      mul\n      not\n      and\n      swap1\n      dup4\n      iszero\n      iszero\n      mul\n      or\n      swap1\n      sstore\n      pop\n        /* \"contracts/storageTokenContractName.sol\":1793:2052  if (proposalState == 3) {... */\n      jump(tag_43)\n    tag_42:\n        /* \"contracts/storageTokenContractName.sol\":1911:1912  5 */\n      0x05\n        /* \"contracts/storageTokenContractName.sol\":1894:1907  proposalState */\n      dup3\n        /* \"contracts/storageTokenContractName.sol\":1894:1912  proposalState == 5 */\n      sub\n        /* \"contracts/storageTokenContractName.sol\":1890:2052  if (proposalState == 5) {... */\n      tag_44\n      jumpi\n        /* \"contracts/storageTokenContractName.sol\":1963:1967  true */\n      0x01\n        /* \"contracts/storageTokenContractName.sol\":1929:1939  _proposals */\n      0x03c4\n        /* \"contracts/storageTokenContractName.sol\":1929:1951  _proposals[proposalId] */\n      0x00\n        /* \"contracts/storageTokenContractName.sol\":1940:1950  proposalId */\n      dup4\n        /* \"contracts/storageTokenContractName.sol\":1929:1951  _proposals[proposalId] */\n      dup2\n      mstore\n      0x20\n      add\n      swap1\n      dup2\n      mstore\n      0x20\n      add\n      0x00\n      keccak256\n        /* \"contracts/storageTokenContractName.sol\":1929:1960  _proposals[proposalId].executed */\n      0x02\n      add\n      0x06\n        /* \"contracts/storageTokenContractName.sol\":1929:1967  _proposals[proposalId].executed = true */\n      0x0100\n      exp\n      dup2\n      sload\n      dup2\n      0xff\n      mul\n      not\n      and\n      swap1\n      dup4\n      iszero\n      iszero\n      mul\n      or\n      swap1\n      sstore\n      pop\n        /* \"contracts/storageTokenContractName.sol\":1890:2052  if (proposalState == 5) {... */\n      jump(tag_45)\n    tag_44:\n        /* \"contracts/storageTokenContractName.sol\":2036:2040  true */\n      0x01\n        /* \"contracts/storageTokenContractName.sol\":2002:2012  _proposals */\n      0x03c4\n        /* \"contracts/storageTokenContractName.sol\":2002:2024  _proposals[proposalId] */\n      0x00\n        /* \"contracts/storageTokenContractName.sol\":2013:2023  proposalId */\n      dup4\n        /* \"contracts/storageTokenContractName.sol\":2002:2024  _proposals[proposalId] */\n      dup2\n      mstore\n      0x20\n      add\n      swap1\n      dup2\n      mstore\n      0x20\n      add\n      0x00\n      keccak256\n        /* \"contracts/storageTokenContractName.sol\":2002:2033  _proposals[proposalId].canceled */\n      0x02\n      add\n      0x07\n        /* \"contracts/storageTokenContractName.sol\":2002:2040  _proposals[proposalId].canceled = true */\n      0x0100\n      exp\n      dup2\n      sload\n      dup2\n      0xff\n      mul\n      not\n      and\n      swap1\n      dup4\n      iszero\n      iszero\n      mul\n      or\n      swap1\n      sstore\n      pop\n        /* \"contracts/storageTokenContractName.sol\":1890:2052  if (proposalState == 5) {... */\n    tag_45:\n        /* \"contracts/storageTokenContractName.sol\":1793:2052  if (proposalState == 3) {... */\n    tag_43:\n        /* \"contracts/storageTokenContractName.sol\":1695:2052  if (proposalState == 4) {... */\n    tag_41:\n        /* \"contracts/storageTokenContractName.sol\":1489:2059  function setProposalState(uint256 proposalState, uint256 proposalId) public {... */\n      pop\n      pop\n      jump\t// out\n        /* \"contracts/storageTokenContractName.sol\":860:1479  function setProposalCore(... */\n    tag_21:\n        /* \"contracts/storageTokenContractName.sol\":1146:1155  proposer_ */\n      dup6\n        /* \"contracts/storageTokenContractName.sol\":1112:1122  _proposals */\n      0x03c4\n        /* \"contracts/storageTokenContractName.sol\":1112:1134  _proposals[proposalId] */\n      0x00\n        /* \"contracts/storageTokenContractName.sol\":1123:1133  proposalId */\n      dup10\n        /* \"contracts/storageTokenContractName.sol\":1112:1134  _proposals[proposalId] */\n      dup2\n      mstore\n      0x20\n      add\n      swap1\n      dup2\n      mstore\n      0x20\n      add\n      0x00\n      keccak256\n        /* \"contracts/storageTokenContractName.sol\":1112:1143  _proposals[proposalId].proposer */\n      0x00\n      add\n      0x00\n        /* \"contracts/storageTokenContractName.sol\":1112:1155  _proposals[proposalId].proposer = proposer_ */\n      0x0100\n      exp\n      dup2\n      sload\n      dup2\n      0xffffffffffffffffffffffffffffffffffffffff\n      mul\n      not\n      and\n      swap1\n      dup4\n      0xffffffffffffffffffffffffffffffffffffffff\n      and\n      mul\n      or\n      swap1\n      sstore\n      pop\n        /* \"contracts/storageTokenContractName.sol\":1210:1225  ballotContract_ */\n      dup5\n        /* \"contracts/storageTokenContractName.sol\":1170:1180  _proposals */\n      0x03c4\n        /* \"contracts/storageTokenContractName.sol\":1170:1192  _proposals[proposalId] */\n      0x00\n        /* \"contracts/storageTokenContractName.sol\":1181:1191  proposalId */\n      dup10\n        /* \"contracts/storageTokenContractName.sol\":1170:1192  _proposals[proposalId] */\n      dup2\n      mstore\n      0x20\n      add\n      swap1\n      dup2\n      mstore\n      0x20\n      add\n      0x00\n      keccak256\n        /* \"contracts/storageTokenContractName.sol\":1170:1207  _proposals[proposalId].ballotContract */\n      0x01\n      add\n      0x00\n        /* \"contracts/storageTokenContractName.sol\":1170:1225  _proposals[proposalId].ballotContract = ballotContract_ */\n      0x0100\n      exp\n      dup2\n      sload\n      dup2\n      0xffffffffffffffffffffffffffffffffffffffff\n      mul\n      not\n      and\n      swap1\n      dup4\n      0xffffffffffffffffffffffffffffffffffffffff\n      and\n      mul\n      or\n      swap1\n      sstore\n      pop\n        /* \"contracts/storageTokenContractName.sol\":1272:1279  quorum_ */\n      dup4\n        /* \"contracts/storageTokenContractName.sol\":1240:1250  _proposals */\n      0x03c4\n        /* \"contracts/storageTokenContractName.sol\":1240:1262  _proposals[proposalId] */\n      0x00\n        /* \"contracts/storageTokenContractName.sol\":1251:1261  proposalId */\n      dup10\n        /* \"contracts/storageTokenContractName.sol\":1240:1262  _proposals[proposalId] */\n      dup2\n      mstore\n      0x20\n      add\n      swap1\n      dup2\n      mstore\n      0x20\n      add\n      0x00\n      keccak256\n        /* \"contracts/storageTokenContractName.sol\":1240:1269  _proposals[proposalId].quorum */\n      0x01\n      add\n      0x14\n        /* \"contracts/storageTokenContractName.sol\":1240:1279  _proposals[proposalId].quorum = quorum_ */\n      0x0100\n      exp\n      dup2\n      sload\n      dup2\n      0xffff\n      mul\n      not\n      and\n      swap1\n      dup4\n      0xffff\n      and\n      mul\n      or\n      swap1\n      sstore\n      pop\n        /* \"contracts/storageTokenContractName.sol\":1332:1345  voteDuration_ */\n      dup3\n        /* \"contracts/storageTokenContractName.sol\":1294:1304  _proposals */\n      0x03c4\n        /* \"contracts/storageTokenContractName.sol\":1294:1316  _proposals[proposalId] */\n      0x00\n        /* \"contracts/storageTokenContractName.sol\":1305:1315  proposalId */\n      dup10\n        /* \"contracts/storageTokenContractName.sol\":1294:1316  _proposals[proposalId] */\n      dup2\n      mstore\n      0x20\n      add\n      swap1\n      dup2\n      mstore\n      0x20\n      add\n      0x00\n      keccak256\n        /* \"contracts/storageTokenContractName.sol\":1294:1329  _proposals[proposalId].voteDuration */\n      0x01\n      add\n      0x16\n        /* \"contracts/storageTokenContractName.sol\":1294:1345  _proposals[proposalId].voteDuration = voteDuration_ */\n      0x0100\n      exp\n      dup2\n      sload\n      dup2\n      0xffffffff\n      mul\n      not\n      and\n      swap1\n      dup4\n      0xffffffff\n      and\n      mul\n      or\n      swap1\n      sstore\n      pop\n        /* \"contracts/storageTokenContractName.sol\":1395:1405  voteStart_ */\n      dup2\n        /* \"contracts/storageTokenContractName.sol\":1360:1370  _proposals */\n      0x03c4\n        /* \"contracts/storageTokenContractName.sol\":1360:1382  _proposals[proposalId] */\n      0x00\n        /* \"contracts/storageTokenContractName.sol\":1371:1381  proposalId */\n      dup10\n        /* \"contracts/storageTokenContractName.sol\":1360:1382  _proposals[proposalId] */\n      dup2\n      mstore\n      0x20\n      add\n      swap1\n      dup2\n      mstore\n      0x20\n      add\n      0x00\n      keccak256\n        /* \"contracts/storageTokenContractName.sol\":1360:1392  _proposals[proposalId].voteStart */\n      0x01\n      add\n      0x1a\n        /* \"contracts/storageTokenContractName.sol\":1360:1405  _proposals[proposalId].voteStart = voteStart_ */\n      0x0100\n      exp\n      dup2\n      sload\n      dup2\n      0xffffffffffff\n      mul\n      not\n      and\n      swap1\n      dup4\n      0xffffffffffff\n      and\n      mul\n      or\n      swap1\n      sstore\n      pop\n        /* \"contracts/storageTokenContractName.sol\":1456:1467  etaSeconds_ */\n      dup1\n        /* \"contracts/storageTokenContractName.sol\":1420:1430  _proposals */\n      0x03c4\n        /* \"contracts/storageTokenContractName.sol\":1420:1442  _proposals[proposalId] */\n      0x00\n        /* \"contracts/storageTokenContractName.sol\":1431:1441  proposalId */\n      dup10\n        /* \"contracts/storageTokenContractName.sol\":1420:1442  _proposals[proposalId] */\n      dup2\n      mstore\n      0x20\n      add\n      swap1\n      dup2\n      mstore\n      0x20\n      add\n      0x00\n      keccak256\n        /* \"contracts/storageTokenContractName.sol\":1420:1453  _proposals[proposalId].etaSeconds */\n      0x02\n      add\n      0x00\n        /* \"contracts/storageTokenContractName.sol\":1420:1467  _proposals[proposalId].etaSeconds = etaSeconds_ */\n      0x0100\n      exp\n      dup2\n      sload\n      dup2\n      0xffffffffffff\n      mul\n      not\n      and\n      swap1\n      dup4\n      0xffffffffffff\n      and\n      mul\n      or\n      swap1\n      sstore\n      pop\n        /* \"contracts/storageTokenContractName.sol\":860:1479  function setProposalCore(... */\n      pop\n      pop\n      pop\n      pop\n      pop\n      pop\n      pop\n      jump\t// out\n        /* \"contracts/storageTokenContractName.sol\":3500:4305  function getActivityTimeToken(bytes32 varName) public view returns (uint48[1201] memory time_) {... */\n    tag_25:\n        /* \"contracts/storageTokenContractName.sol\":3568:3593  uint48[1201] memory time_ */\n      tag_47\n      tag_48\n      jump\t// in\n    tag_47:\n        /* \"contracts/storageTokenContractName.sol\":3607:3623  bytes32 varName_ */\n      0x00\n        /* \"contracts/storageTokenContractName.sol\":3653:3660  varName */\n      dup3\n        /* \"contracts/storageTokenContractName.sol\":3636:3661  abi.encodePacked(varName) */\n      add(0x20, mload(0x40))\n      tag_50\n      swap2\n      swap1\n      tag_51\n      jump\t// in\n    tag_50:\n      mload(0x40)\n      0x20\n      dup2\n      dup4\n      sub\n      sub\n      dup2\n      mstore\n      swap1\n      0x40\n      mstore\n        /* \"contracts/storageTokenContractName.sol\":3626:3662  keccak256(abi.encodePacked(varName)) */\n      dup1\n      mload\n      swap1\n      0x20\n      add\n      keccak256\n        /* \"contracts/storageTokenContractName.sol\":3607:3662  bytes32 varName_ = keccak256(abi.encodePacked(varName)) */\n      swap1\n      pop\n        /* \"contracts/storageTokenContractName.sol\":3720:3728  varName_ */\n      dup1\n        /* \"contracts/storageTokenContractName.sol\":3689:3715  abi.encodePacked(\"forAny\") */\n      add(0x20, mload(0x40))\n      tag_52\n      swap1\n      tag_53\n      jump\t// in\n    tag_52:\n      mload(0x40)\n      0x20\n      dup2\n      dup4\n      sub\n      sub\n      dup2\n      mstore\n      swap1\n      0x40\n      mstore\n        /* \"contracts/storageTokenContractName.sol\":3679:3716  keccak256(abi.encodePacked(\"forAny\")) */\n      dup1\n      mload\n      swap1\n      0x20\n      add\n      keccak256\n        /* \"contracts/storageTokenContractName.sol\":3679:3728  keccak256(abi.encodePacked(\"forAny\")) == varName_ */\n      sub\n        /* \"contracts/storageTokenContractName.sol\":3675:4298  if (keccak256(abi.encodePacked(\"forAny\")) == varName_) {... */\n      tag_54\n      jumpi\n        /* \"contracts/storageTokenContractName.sol\":3753:3770  activityTimeToken */\n      0x00\n        /* \"contracts/storageTokenContractName.sol\":3753:3777  activityTimeToken.forAny */\n      dup1\n      add\n        /* \"contracts/storageTokenContractName.sol\":3745:3777  time_ = activityTimeToken.forAny */\n      0x04b1\n      dup1\n      0x20\n      mul\n      mload(0x40)\n      swap1\n      dup2\n      add\n      0x40\n      mstore\n      dup1\n      swap3\n      swap2\n      swap1\n      dup3\n      0x04b1\n      dup1\n      iszero\n      tag_55\n      jumpi\n      0x20\n      mul\n      dup3\n      add\n      swap2\n      0x00\n      swap1\n    tag_56:\n      dup3\n      dup3\n      swap1\n      sload\n      swap1\n      0x0100\n      exp\n      swap1\n      div\n      0xffffffffffff\n      and\n      0xffffffffffff\n      and\n      dup2\n      mstore\n      0x20\n      add\n      swap1\n      0x06\n      add\n      swap1\n      0x20\n      dup3\n      0x05\n      add\n      div\n      swap3\n      dup4\n      add\n      swap3\n      0x01\n      sub\n      dup3\n      mul\n      swap2\n      pop\n      dup1\n      dup5\n      gt\n      tag_56\n      jumpi\n      swap1\n      pop\n    tag_55:\n      pop\n      pop\n      pop\n      pop\n      pop\n      swap2\n      pop\n        /* \"contracts/storageTokenContractName.sol\":3792:3804  return time_ */\n      pop\n      jump(tag_49)\n        /* \"contracts/storageTokenContractName.sol\":3675:4298  if (keccak256(abi.encodePacked(\"forAny\")) == varName_) {... */\n    tag_54:\n        /* \"contracts/storageTokenContractName.sol\":3876:3884  varName_ */\n      dup1\n        /* \"contracts/storageTokenContractName.sol\":3835:3871  abi.encodePacked(\"lastPartiAuction\") */\n      add(0x20, mload(0x40))\n      tag_58\n      swap1\n      tag_59\n      jump\t// in\n    tag_58:\n      mload(0x40)\n      0x20\n      dup2\n      dup4\n      sub\n      sub\n      dup2\n      mstore\n      swap1\n      0x40\n      mstore\n        /* \"contracts/storageTokenContractName.sol\":3825:3872  keccak256(abi.encodePacked(\"lastPartiAuction\")) */\n      dup1\n      mload\n      swap1\n      0x20\n      add\n      keccak256\n        /* \"contracts/storageTokenContractName.sol\":3825:3884  keccak256(abi.encodePacked(\"lastPartiAuction\")) == varName_ */\n      sub\n        /* \"contracts/storageTokenContractName.sol\":3821:4298  if (keccak256(abi.encodePacked(\"lastPartiAuction\")) == varName_) {... */\n      tag_60\n      jumpi\n        /* \"contracts/storageTokenContractName.sol\":3908:3925  activityTimeToken */\n      0x00\n        /* \"contracts/storageTokenContractName.sol\":3908:3942  activityTimeToken.lastPartiAuction */\n      0x01e2\n      add\n        /* \"contracts/storageTokenContractName.sol\":3900:3942  time_ = activityTimeToken.lastPartiAuction */\n      0x04b1\n      dup1\n      0x20\n      mul\n      mload(0x40)\n      swap1\n      dup2\n      add\n      0x40\n      mstore\n      dup1\n      swap3\n      swap2\n      swap1\n      dup3\n      0x04b1\n      dup1\n      iszero\n      tag_61\n      jumpi\n      0x20\n      mul\n      dup3\n      add\n      swap2\n      0x00\n      swap1\n    tag_62:\n      dup3\n      dup3\n      swap1\n      sload\n      swap1\n      0x0100\n      exp\n      swap1\n      div\n      0xffffffffffff\n      and\n      0xffffffffffff\n      and\n      dup2\n      mstore\n      0x20\n      add\n      swap1\n      0x06\n      add\n      swap1\n      0x20\n      dup3\n      0x05\n      add\n      div\n      swap3\n      dup4\n      add\n      swap3\n      0x01\n      sub\n      dup3\n      mul\n      swap2\n      pop\n      dup1\n      dup5\n      gt\n      tag_62\n      jumpi\n      swap1\n      pop\n    tag_61:\n      pop\n      pop\n      pop\n      pop\n      pop\n      swap2\n      pop\n        /* \"contracts/storageTokenContractName.sol\":3957:3969  return time_ */\n      pop\n      jump(tag_49)\n        /* \"contracts/storageTokenContractName.sol\":3821:4298  if (keccak256(abi.encodePacked(\"lastPartiAuction\")) == varName_) {... */\n    tag_60:\n        /* \"contracts/storageTokenContractName.sol\":4039:4047  varName_ */\n      dup1\n        /* \"contracts/storageTokenContractName.sol\":4000:4034  abi.encodePacked(\"lastSucAuction\") */\n      add(0x20, mload(0x40))\n      tag_64\n      swap1\n      tag_65\n      jump\t// in\n    tag_64:\n      mload(0x40)\n      0x20\n      dup2\n      dup4\n      sub\n      sub\n      dup2\n      mstore\n      swap1\n      0x40\n      mstore\n        /* \"contracts/storageTokenContractName.sol\":3990:4035  keccak256(abi.encodePacked(\"lastSucAuction\")) */\n      dup1\n      mload\n      swap1\n      0x20\n      add\n      keccak256\n        /* \"contracts/storageTokenContractName.sol\":3990:4047  keccak256(abi.encodePacked(\"lastSucAuction\")) == varName_ */\n      sub\n        /* \"contracts/storageTokenContractName.sol\":3986:4298  if (keccak256(abi.encodePacked(\"lastSucAuction\")) == varName_) {... */\n      tag_66\n      jumpi\n        /* \"contracts/storageTokenContractName.sol\":4071:4088  activityTimeToken */\n      0x00\n        /* \"contracts/storageTokenContractName.sol\":4071:4103  activityTimeToken.lastSucAuction */\n      0x02d3\n      add\n        /* \"contracts/storageTokenContractName.sol\":4063:4103  time_ = activityTimeToken.lastSucAuction */\n      0x04b1\n      dup1\n      0x20\n      mul\n      mload(0x40)\n      swap1\n      dup2\n      add\n      0x40\n      mstore\n      dup1\n      swap3\n      swap2\n      swap1\n      dup3\n      0x04b1\n      dup1\n      iszero\n      tag_67\n      jumpi\n      0x20\n      mul\n      dup3\n      add\n      swap2\n      0x00\n      swap1\n    tag_68:\n      dup3\n      dup3\n      swap1\n      sload\n      swap1\n      0x0100\n      exp\n      swap1\n      div\n      0xffffffffffff\n      and\n      0xffffffffffff\n      and\n      dup2\n      mstore\n      0x20\n      add\n      swap1\n      0x06\n      add\n      swap1\n      0x20\n      dup3\n      0x05\n      add\n      div\n      swap3\n      dup4\n      add\n      swap3\n      0x01\n      sub\n      dup3\n      mul\n      swap2\n      pop\n      dup1\n      dup5\n      gt\n      tag_68\n      jumpi\n      swap1\n      pop\n    tag_67:\n      pop\n      pop\n      pop\n      pop\n      pop\n      swap2\n      pop\n        /* \"contracts/storageTokenContractName.sol\":4118:4130  return time_ */\n      pop\n      jump(tag_49)\n        /* \"contracts/storageTokenContractName.sol\":3986:4298  if (keccak256(abi.encodePacked(\"lastSucAuction\")) == varName_) {... */\n    tag_66:\n        /* \"contracts/storageTokenContractName.sol\":4198:4206  varName_ */\n      dup1\n        /* \"contracts/storageTokenContractName.sol\":4161:4193  abi.encodePacked(\"lastTransfer\") */\n      add(0x20, mload(0x40))\n      tag_70\n      swap1\n      tag_71\n      jump\t// in\n    tag_70:\n      mload(0x40)\n      0x20\n      dup2\n      dup4\n      sub\n      sub\n      dup2\n      mstore\n      swap1\n      0x40\n      mstore\n        /* \"contracts/storageTokenContractName.sol\":4151:4194  keccak256(abi.encodePacked(\"lastTransfer\")) */\n      dup1\n      mload\n      swap1\n      0x20\n      add\n      keccak256\n        /* \"contracts/storageTokenContractName.sol\":4151:4206  keccak256(abi.encodePacked(\"lastTransfer\")) == varName_ */\n      sub\n        /* \"contracts/storageTokenContractName.sol\":4147:4298  if (keccak256(abi.encodePacked(\"lastTransfer\")) == varName_) {... */\n      tag_72\n      jumpi\n        /* \"contracts/storageTokenContractName.sol\":4230:4247  activityTimeToken */\n      0x00\n        /* \"contracts/storageTokenContractName.sol\":4230:4260  activityTimeToken.lastTransfer */\n      0xf1\n      add\n        /* \"contracts/storageTokenContractName.sol\":4222:4260  time_ = activityTimeToken.lastTransfer */\n      0x04b1\n      dup1\n      0x20\n      mul\n      mload(0x40)\n      swap1\n      dup2\n      add\n      0x40\n      mstore\n      dup1\n      swap3\n      swap2\n      swap1\n      dup3\n      0x04b1\n      dup1\n      iszero\n      tag_73\n      jumpi\n      0x20\n      mul\n      dup3\n      add\n      swap2\n      0x00\n      swap1\n    tag_74:\n      dup3\n      dup3\n      swap1\n      sload\n      swap1\n      0x0100\n      exp\n      swap1\n      div\n      0xffffffffffff\n      and\n      0xffffffffffff\n      and\n      dup2\n      mstore\n      0x20\n      add\n      swap1\n      0x06\n      add\n      swap1\n      0x20\n      dup3\n      0x05\n      add\n      div\n      swap3\n      dup4\n      add\n      swap3\n      0x01\n      sub\n      dup3\n      mul\n      swap2\n      pop\n      dup1\n      dup5\n      gt\n      tag_74\n      jumpi\n      swap1\n      pop\n    tag_73:\n      pop\n      pop\n      pop\n      pop\n      pop\n      swap2\n      pop\n        /* \"contracts/storageTokenContractName.sol\":4275:4287  return time_ */\n      pop\n      jump(tag_49)\n        /* \"contracts/storageTokenContractName.sol\":4147:4298  if (keccak256(abi.encodePacked(\"lastTransfer\")) == varName_) {... */\n    tag_72:\n        /* \"contracts/storageTokenContractName.sol\":3595:4305  {... */\n      pop\n        /* \"contracts/storageTokenContractName.sol\":3500:4305  function getActivityTimeToken(bytes32 varName) public view returns (uint48[1201] memory time_) {... */\n    tag_49:\n      swap2\n      swap1\n      pop\n      jump\t// out\n        /* \"contracts/storageTokenContractName.sol\":2071:3351  function setActivityTimeToken(uint256 time, uint16 tokenId, bytes32 varName) public {... */\n    tag_31:\n        /* \"contracts/storageTokenContractName.sol\":2166:2182  bytes32 varName_ */\n      0x00\n        /* \"contracts/storageTokenContractName.sol\":2212:2219  varName */\n      dup2\n        /* \"contracts/storageTokenContractName.sol\":2195:2220  abi.encodePacked(varName) */\n      add(0x20, mload(0x40))\n      tag_76\n      swap2\n      swap1\n      tag_51\n      jump\t// in\n    tag_76:\n      mload(0x40)\n      0x20\n      dup2\n      dup4\n      sub\n      sub\n      dup2\n      mstore\n      swap1\n      0x40\n      mstore\n        /* \"contracts/storageTokenContractName.sol\":2185:2221  keccak256(abi.encodePacked(varName)) */\n      dup1\n      mload\n      swap1\n      0x20\n      add\n      keccak256\n        /* \"contracts/storageTokenContractName.sol\":2166:2221  bytes32 varName_ = keccak256(abi.encodePacked(varName)) */\n      swap1\n      pop\n        /* \"contracts/storageTokenContractName.sol\":2232:2244  uint48 time_ */\n      0x00\n        /* \"contracts/storageTokenContractName.sol\":2254:2258  time */\n      dup5\n        /* \"contracts/storageTokenContractName.sol\":2232:2259  uint48 time_ = uint48(time) */\n      swap1\n      pop\n        /* \"contracts/storageTokenContractName.sol\":2314:2322  varName_ */\n      dup2\n        /* \"contracts/storageTokenContractName.sol\":2283:2309  abi.encodePacked(\"forAny\") */\n      add(0x20, mload(0x40))\n      tag_77\n      swap1\n      tag_53\n      jump\t// in\n    tag_77:\n      mload(0x40)\n      0x20\n      dup2\n      dup4\n      sub\n      sub\n      dup2\n      mstore\n      swap1\n      0x40\n      mstore\n        /* \"contracts/storageTokenContractName.sol\":2273:2310  keccak256(abi.encodePacked(\"forAny\")) */\n      dup1\n      mload\n      swap1\n      0x20\n      add\n      keccak256\n        /* \"contracts/storageTokenContractName.sol\":2273:2322  keccak256(abi.encodePacked(\"forAny\")) == varName_ */\n      sub\n        /* \"contracts/storageTokenContractName.sol\":2269:3344  if (keccak256(abi.encodePacked(\"forAny\")) == varName_) {... */\n      tag_78\n      jumpi\n        /* \"contracts/storageTokenContractName.sol\":2375:2380  time_ */\n      dup1\n        /* \"contracts/storageTokenContractName.sol\":2339:2356  activityTimeToken */\n      0x00\n        /* \"contracts/storageTokenContractName.sol\":2339:2363  activityTimeToken.forAny */\n      dup1\n      add\n        /* \"contracts/storageTokenContractName.sol\":2364:2371  tokenId */\n      dup6\n        /* \"contracts/storageTokenContractName.sol\":2339:2372  activityTimeToken.forAny[tokenId] */\n      0xffff\n      and\n      0x04b1\n      dup2\n      lt\n      tag_79\n      jumpi\n      tag_80\n      tag_81\n      jump\t// in\n    tag_80:\n    tag_79:\n      0x05\n      swap2\n      dup3\n      dup3\n      div\n      add\n      swap2\n      swap1\n      mod\n      0x06\n      mul\n        /* \"contracts/storageTokenContractName.sol\":2339:2380  activityTimeToken.forAny[tokenId] = time_ */\n      0x0100\n      exp\n      dup2\n      sload\n      dup2\n      0xffffffffffff\n      mul\n      not\n      and\n      swap1\n      dup4\n      0xffffffffffff\n      and\n      mul\n      or\n      swap1\n      sstore\n      pop\n        /* \"contracts/storageTokenContractName.sol\":2426:2427  1 */\n      0x01\n        /* \"contracts/storageTokenContractName.sol\":2395:2412  activityTimeToken */\n      0x00\n        /* \"contracts/storageTokenContractName.sol\":2395:2419  activityTimeToken.forAny */\n      dup1\n      add\n        /* \"contracts/storageTokenContractName.sol\":2420:2421  0 */\n      0x00\n        /* \"contracts/storageTokenContractName.sol\":2395:2422  activityTimeToken.forAny[0] */\n      0x04b1\n      dup2\n      lt\n      tag_83\n      jumpi\n      tag_84\n      tag_81\n      jump\t// in\n    tag_84:\n    tag_83:\n      0x05\n      swap2\n      dup3\n      dup3\n      div\n      add\n      swap2\n      swap1\n      mod\n      0x06\n      mul\n        /* \"contracts/storageTokenContractName.sol\":2395:2427  activityTimeToken.forAny[0] += 1 */\n      dup3\n      dup3\n      dup3\n      swap1\n      sload\n      swap1\n      0x0100\n      exp\n      swap1\n      div\n      0xffffffffffff\n      and\n      tag_86\n      swap2\n      swap1\n      tag_87\n      jump\t// in\n    tag_86:\n      swap3\n      pop\n      0x0100\n      exp\n      dup2\n      sload\n      dup2\n      0xffffffffffff\n      mul\n      not\n      and\n      swap1\n      dup4\n      0xffffffffffff\n      and\n      mul\n      or\n      swap1\n      sstore\n      pop\n        /* \"contracts/storageTokenContractName.sol\":2269:3344  if (keccak256(abi.encodePacked(\"forAny\")) == varName_) {... */\n      jump(tag_88)\n    tag_78:\n        /* \"contracts/storageTokenContractName.sol\":2499:2507  varName_ */\n      dup2\n        /* \"contracts/storageTokenContractName.sol\":2458:2494  abi.encodePacked(\"lastPartiAuction\") */\n      add(0x20, mload(0x40))\n      tag_89\n      swap1\n      tag_59\n      jump\t// in\n    tag_89:\n      mload(0x40)\n      0x20\n      dup2\n      dup4\n      sub\n      sub\n      dup2\n      mstore\n      swap1\n      0x40\n      mstore\n        /* \"contracts/storageTokenContractName.sol\":2448:2495  keccak256(abi.encodePacked(\"lastPartiAuction\")) */\n      dup1\n      mload\n      swap1\n      0x20\n      add\n      keccak256\n        /* \"contracts/storageTokenContractName.sol\":2448:2507  keccak256(abi.encodePacked(\"lastPartiAuction\")) == varName_ */\n      sub\n        /* \"contracts/storageTokenContractName.sol\":2444:3344  if (keccak256(abi.encodePacked(\"lastPartiAuction\")) == varName_) {... */\n      tag_90\n      jumpi\n        /* \"contracts/storageTokenContractName.sol\":2560:2565  time_ */\n      dup1\n        /* \"contracts/storageTokenContractName.sol\":2524:2541  activityTimeToken */\n      0x00\n        /* \"contracts/storageTokenContractName.sol\":2524:2548  activityTimeToken.forAny */\n      dup1\n      add\n        /* \"contracts/storageTokenContractName.sol\":2549:2556  tokenId */\n      dup6\n        /* \"contracts/storageTokenContractName.sol\":2524:2557  activityTimeToken.forAny[tokenId] */\n      0xffff\n      and\n      0x04b1\n      dup2\n      lt\n      tag_91\n      jumpi\n      tag_92\n      tag_81\n      jump\t// in\n    tag_92:\n    tag_91:\n      0x05\n      swap2\n      dup3\n      dup3\n      div\n      add\n      swap2\n      swap1\n      mod\n      0x06\n      mul\n        /* \"contracts/storageTokenContractName.sol\":2524:2565  activityTimeToken.forAny[tokenId] = time_ */\n      0x0100\n      exp\n      dup2\n      sload\n      dup2\n      0xffffffffffff\n      mul\n      not\n      and\n      swap1\n      dup4\n      0xffffffffffff\n      and\n      mul\n      or\n      swap1\n      sstore\n      pop\n        /* \"contracts/storageTokenContractName.sol\":2611:2612  1 */\n      0x01\n        /* \"contracts/storageTokenContractName.sol\":2580:2597  activityTimeToken */\n      0x00\n        /* \"contracts/storageTokenContractName.sol\":2580:2604  activityTimeToken.forAny */\n      dup1\n      add\n        /* \"contracts/storageTokenContractName.sol\":2605:2606  0 */\n      0x00\n        /* \"contracts/storageTokenContractName.sol\":2580:2607  activityTimeToken.forAny[0] */\n      0x04b1\n      dup2\n      lt\n      tag_94\n      jumpi\n      tag_95\n      tag_81\n      jump\t// in\n    tag_95:\n    tag_94:\n      0x05\n      swap2\n      dup3\n      dup3\n      div\n      add\n      swap2\n      swap1\n      mod\n      0x06\n      mul\n        /* \"contracts/storageTokenContractName.sol\":2580:2612  activityTimeToken.forAny[0] += 1 */\n      dup3\n      dup3\n      dup3\n      swap1\n      sload\n      swap1\n      0x0100\n      exp\n      swap1\n      div\n      0xffffffffffff\n      and\n      tag_97\n      swap2\n      swap1\n      tag_87\n      jump\t// in\n    tag_97:\n      swap3\n      pop\n      0x0100\n      exp\n      dup2\n      sload\n      dup2\n      0xffffffffffff\n      mul\n      not\n      and\n      swap1\n      dup4\n      0xffffffffffff\n      and\n      mul\n      or\n      swap1\n      sstore\n      pop\n        /* \"contracts/storageTokenContractName.sol\":2673:2678  time_ */\n      dup1\n        /* \"contracts/storageTokenContractName.sol\":2627:2644  activityTimeToken */\n      0x00\n        /* \"contracts/storageTokenContractName.sol\":2627:2661  activityTimeToken.lastPartiAuction */\n      0x01e2\n      add\n        /* \"contracts/storageTokenContractName.sol\":2662:2669  tokenId */\n      dup6\n        /* \"contracts/storageTokenContractName.sol\":2627:2670  activityTimeToken.lastPartiAuction[tokenId] */\n      0xffff\n      and\n      0x04b1\n      dup2\n      lt\n      tag_98\n      jumpi\n      tag_99\n      tag_81\n      jump\t// in\n    tag_99:\n    tag_98:\n      0x05\n      swap2\n      dup3\n      dup3\n      div\n      add\n      swap2\n      swap1\n      mod\n      0x06\n      mul\n        /* \"contracts/storageTokenContractName.sol\":2627:2678  activityTimeToken.lastPartiAuction[tokenId] = time_ */\n      0x0100\n      exp\n      dup2\n      sload\n      dup2\n      0xffffffffffff\n      mul\n      not\n      and\n      swap1\n      dup4\n      0xffffffffffff\n      and\n      mul\n      or\n      swap1\n      sstore\n      pop\n        /* \"contracts/storageTokenContractName.sol\":2734:2735  1 */\n      0x01\n        /* \"contracts/storageTokenContractName.sol\":2693:2710  activityTimeToken */\n      0x00\n        /* \"contracts/storageTokenContractName.sol\":2693:2727  activityTimeToken.lastPartiAuction */\n      0x01e2\n      add\n        /* \"contracts/storageTokenContractName.sol\":2728:2729  0 */\n      0x00\n        /* \"contracts/storageTokenContractName.sol\":2693:2730  activityTimeToken.lastPartiAuction[0] */\n      0x04b1\n      dup2\n      lt\n      tag_101\n      jumpi\n      tag_102\n      tag_81\n      jump\t// in\n    tag_102:\n    tag_101:\n      0x05\n      swap2\n      dup3\n      dup3\n      div\n      add\n      swap2\n      swap1\n      mod\n      0x06\n      mul\n        /* \"contracts/storageTokenContractName.sol\":2693:2735  activityTimeToken.lastPartiAuction[0] += 1 */\n      dup3\n      dup3\n      dup3\n      swap1\n      sload\n      swap1\n      0x0100\n      exp\n      swap1\n      div\n      0xffffffffffff\n      and\n      tag_104\n      swap2\n      swap1\n      tag_87\n      jump\t// in\n    tag_104:\n      swap3\n      pop\n      0x0100\n      exp\n      dup2\n      sload\n      dup2\n      0xffffffffffff\n      mul\n      not\n      and\n      swap1\n      dup4\n      0xffffffffffff\n      and\n      mul\n      or\n      swap1\n      sstore\n      pop\n        /* \"contracts/storageTokenContractName.sol\":2444:3344  if (keccak256(abi.encodePacked(\"lastPartiAuction\")) == varName_) {... */\n      jump(tag_105)\n    tag_90:\n        /* \"contracts/storageTokenContractName.sol\":2805:2813  varName_ */\n      dup2\n        /* \"contracts/storageTokenContractName.sol\":2766:2800  abi.encodePacked(\"lastSucAuction\") */\n      add(0x20, mload(0x40))\n      tag_106\n      swap1\n      tag_65\n      jump\t// in\n    tag_106:\n      mload(0x40)\n      0x20\n      dup2\n      dup4\n      sub\n      sub\n      dup2\n      mstore\n      swap1\n      0x40\n      mstore\n        /* \"contracts/storageTokenContractName.sol\":2756:2801  keccak256(abi.encodePacked(\"lastSucAuction\")) */\n      dup1\n      mload\n      swap1\n      0x20\n      add\n      keccak256\n        /* \"contracts/storageTokenContractName.sol\":2756:2813  keccak256(abi.encodePacked(\"lastSucAuction\")) == varName_ */\n      sub\n        /* \"contracts/storageTokenContractName.sol\":2752:3344  if (keccak256(abi.encodePacked(\"lastSucAuction\")) == varName_) {... */\n      tag_107\n      jumpi\n        /* \"contracts/storageTokenContractName.sol\":2866:2871  time_ */\n      dup1\n        /* \"contracts/storageTokenContractName.sol\":2830:2847  activityTimeToken */\n      0x00\n        /* \"contracts/storageTokenContractName.sol\":2830:2854  activityTimeToken.forAny */\n      dup1\n      add\n        /* \"contracts/storageTokenContractName.sol\":2855:2862  tokenId */\n      dup6\n        /* \"contracts/storageTokenContractName.sol\":2830:2863  activityTimeToken.forAny[tokenId] */\n      0xffff\n      and\n      0x04b1\n      dup2\n      lt\n      tag_108\n      jumpi\n      tag_109\n      tag_81\n      jump\t// in\n    tag_109:\n    tag_108:\n      0x05\n      swap2\n      dup3\n      dup3\n      div\n      add\n      swap2\n      swap1\n      mod\n      0x06\n      mul\n        /* \"contracts/storageTokenContractName.sol\":2830:2871  activityTimeToken.forAny[tokenId] = time_ */\n      0x0100\n      exp\n      dup2\n      sload\n      dup2\n      0xffffffffffff\n      mul\n      not\n      and\n      swap1\n      dup4\n      0xffffffffffff\n      and\n      mul\n      or\n      swap1\n      sstore\n      pop\n        /* \"contracts/storageTokenContractName.sol\":2917:2918  1 */\n      0x01\n        /* \"contracts/storageTokenContractName.sol\":2886:2903  activityTimeToken */\n      0x00\n        /* \"contracts/storageTokenContractName.sol\":2886:2910  activityTimeToken.forAny */\n      dup1\n      add\n        /* \"contracts/storageTokenContractName.sol\":2911:2912  0 */\n      0x00\n        /* \"contracts/storageTokenContractName.sol\":2886:2913  activityTimeToken.forAny[0] */\n      0x04b1\n      dup2\n      lt\n      tag_111\n      jumpi\n      tag_112\n      tag_81\n      jump\t// in\n    tag_112:\n    tag_111:\n      0x05\n      swap2\n      dup3\n      dup3\n      div\n      add\n      swap2\n      swap1\n      mod\n      0x06\n      mul\n        /* \"contracts/storageTokenContractName.sol\":2886:2918  activityTimeToken.forAny[0] += 1 */\n      dup3\n      dup3\n      dup3\n      swap1\n      sload\n      swap1\n      0x0100\n      exp\n      swap1\n      div\n      0xffffffffffff\n      and\n      tag_114\n      swap2\n      swap1\n      tag_87\n      jump\t// in\n    tag_114:\n      swap3\n      pop\n      0x0100\n      exp\n      dup2\n      sload\n      dup2\n      0xffffffffffff\n      mul\n      not\n      and\n      swap1\n      dup4\n      0xffffffffffff\n      and\n      mul\n      or\n      swap1\n      sstore\n      pop\n        /* \"contracts/storageTokenContractName.sol\":2977:2982  time_ */\n      dup1\n        /* \"contracts/storageTokenContractName.sol\":2933:2950  activityTimeToken */\n      0x00\n        /* \"contracts/storageTokenContractName.sol\":2933:2965  activityTimeToken.lastSucAuction */\n      0x02d3\n      add\n        /* \"contracts/storageTokenContractName.sol\":2966:2973  tokenId */\n      dup6\n        /* \"contracts/storageTokenContractName.sol\":2933:2974  activityTimeToken.lastSucAuction[tokenId] */\n      0xffff\n      and\n      0x04b1\n      dup2\n      lt\n      tag_115\n      jumpi\n      tag_116\n      tag_81\n      jump\t// in\n    tag_116:\n    tag_115:\n      0x05\n      swap2\n      dup3\n      dup3\n      div\n      add\n      swap2\n      swap1\n      mod\n      0x06\n      mul\n        /* \"contracts/storageTokenContractName.sol\":2933:2982  activityTimeToken.lastSucAuction[tokenId] = time_ */\n      0x0100\n      exp\n      dup2\n      sload\n      dup2\n      0xffffffffffff\n      mul\n      not\n      and\n      swap1\n      dup4\n      0xffffffffffff\n      and\n      mul\n      or\n      swap1\n      sstore\n      pop\n        /* \"contracts/storageTokenContractName.sol\":3036:3037  1 */\n      0x01\n        /* \"contracts/storageTokenContractName.sol\":2997:3014  activityTimeToken */\n      0x00\n        /* \"contracts/storageTokenContractName.sol\":2997:3029  activityTimeToken.lastSucAuction */\n      0x02d3\n      add\n        /* \"contracts/storageTokenContractName.sol\":3030:3031  0 */\n      0x00\n        /* \"contracts/storageTokenContractName.sol\":2997:3032  activityTimeToken.lastSucAuction[0] */\n      0x04b1\n      dup2\n      lt\n      tag_118\n      jumpi\n      tag_119\n      tag_81\n      jump\t// in\n    tag_119:\n    tag_118:\n      0x05\n      swap2\n      dup3\n      dup3\n      div\n      add\n      swap2\n      swap1\n      mod\n      0x06\n      mul\n        /* \"contracts/storageTokenContractName.sol\":2997:3037  activityTimeToken.lastSucAuction[0] += 1 */\n      dup3\n      dup3\n      dup3\n      swap1\n      sload\n      swap1\n      0x0100\n      exp\n      swap1\n      div\n      0xffffffffffff\n      and\n      tag_121\n      swap2\n      swap1\n      tag_87\n      jump\t// in\n    tag_121:\n      swap3\n      pop\n      0x0100\n      exp\n      dup2\n      sload\n      dup2\n      0xffffffffffff\n      mul\n      not\n      and\n      swap1\n      dup4\n      0xffffffffffff\n      and\n      mul\n      or\n      swap1\n      sstore\n      pop\n        /* \"contracts/storageTokenContractName.sol\":2752:3344  if (keccak256(abi.encodePacked(\"lastSucAuction\")) == varName_) {... */\n      jump(tag_122)\n    tag_107:\n        /* \"contracts/storageTokenContractName.sol\":3105:3113  varName_ */\n      dup2\n        /* \"contracts/storageTokenContractName.sol\":3068:3100  abi.encodePacked(\"lastTransfer\") */\n      add(0x20, mload(0x40))\n      tag_123\n      swap1\n      tag_71\n      jump\t// in\n    tag_123:\n      mload(0x40)\n      0x20\n      dup2\n      dup4\n      sub\n      sub\n      dup2\n      mstore\n      swap1\n      0x40\n      mstore\n        /* \"contracts/storageTokenContractName.sol\":3058:3101  keccak256(abi.encodePacked(\"lastTransfer\")) */\n      dup1\n      mload\n      swap1\n      0x20\n      add\n      keccak256\n        /* \"contracts/storageTokenContractName.sol\":3058:3113  keccak256(abi.encodePacked(\"lastTransfer\")) == varName_ */\n      sub\n        /* \"contracts/storageTokenContractName.sol\":3054:3344  if (keccak256(abi.encodePacked(\"lastTransfer\")) == varName_) {... */\n      tag_124\n      jumpi\n        /* \"contracts/storageTokenContractName.sol\":3166:3171  time_ */\n      dup1\n        /* \"contracts/storageTokenContractName.sol\":3130:3147  activityTimeToken */\n      0x00\n        /* \"contracts/storageTokenContractName.sol\":3130:3154  activityTimeToken.forAny */\n      dup1\n      add\n        /* \"contracts/storageTokenContractName.sol\":3155:3162  tokenId */\n      dup6\n        /* \"contracts/storageTokenContractName.sol\":3130:3163  activityTimeToken.forAny[tokenId] */\n      0xffff\n      and\n      0x04b1\n      dup2\n      lt\n      tag_125\n      jumpi\n      tag_126\n      tag_81\n      jump\t// in\n    tag_126:\n    tag_125:\n      0x05\n      swap2\n      dup3\n      dup3\n      div\n      add\n      swap2\n      swap1\n      mod\n      0x06\n      mul\n        /* \"contracts/storageTokenContractName.sol\":3130:3171  activityTimeToken.forAny[tokenId] = time_ */\n      0x0100\n      exp\n      dup2\n      sload\n      dup2\n      0xffffffffffff\n      mul\n      not\n      and\n      swap1\n      dup4\n      0xffffffffffff\n      and\n      mul\n      or\n      swap1\n      sstore\n      pop\n        /* \"contracts/storageTokenContractName.sol\":3217:3218  1 */\n      0x01\n        /* \"contracts/storageTokenContractName.sol\":3186:3203  activityTimeToken */\n      0x00\n        /* \"contracts/storageTokenContractName.sol\":3186:3210  activityTimeToken.forAny */\n      dup1\n      add\n        /* \"contracts/storageTokenContractName.sol\":3211:3212  0 */\n      0x00\n        /* \"contracts/storageTokenContractName.sol\":3186:3213  activityTimeToken.forAny[0] */\n      0x04b1\n      dup2\n      lt\n      tag_128\n      jumpi\n      tag_129\n      tag_81\n      jump\t// in\n    tag_129:\n    tag_128:\n      0x05\n      swap2\n      dup3\n      dup3\n      div\n      add\n      swap2\n      swap1\n      mod\n      0x06\n      mul\n        /* \"contracts/storageTokenContractName.sol\":3186:3218  activityTimeToken.forAny[0] += 1 */\n      dup3\n      dup3\n      dup3\n      swap1\n      sload\n      swap1\n      0x0100\n      exp\n      swap1\n      div\n      0xffffffffffff\n      and\n      tag_131\n      swap2\n      swap1\n      tag_87\n      jump\t// in\n    tag_131:\n      swap3\n      pop\n      0x0100\n      exp\n      dup2\n      sload\n      dup2\n      0xffffffffffff\n      mul\n      not\n      and\n      swap1\n      dup4\n      0xffffffffffff\n      and\n      mul\n      or\n      swap1\n      sstore\n      pop\n        /* \"contracts/storageTokenContractName.sol\":3275:3280  time_ */\n      dup1\n        /* \"contracts/storageTokenContractName.sol\":3233:3250  activityTimeToken */\n      0x00\n        /* \"contracts/storageTokenContractName.sol\":3233:3263  activityTimeToken.lastTransfer */\n      0xf1\n      add\n        /* \"contracts/storageTokenContractName.sol\":3264:3271  tokenId */\n      dup6\n        /* \"contracts/storageTokenContractName.sol\":3233:3272  activityTimeToken.lastTransfer[tokenId] */\n      0xffff\n      and\n      0x04b1\n      dup2\n      lt\n      tag_132\n      jumpi\n      tag_133\n      tag_81\n      jump\t// in\n    tag_133:\n    tag_132:\n      0x05\n      swap2\n      dup3\n      dup3\n      div\n      add\n      swap2\n      swap1\n      mod\n      0x06\n      mul\n        /* \"contracts/storageTokenContractName.sol\":3233:3280  activityTimeToken.lastTransfer[tokenId] = time_ */\n      0x0100\n      exp\n      dup2\n      sload\n      dup2\n      0xffffffffffff\n      mul\n      not\n      and\n      swap1\n      dup4\n      0xffffffffffff\n      and\n      mul\n      or\n      swap1\n      sstore\n      pop\n        /* \"contracts/storageTokenContractName.sol\":3332:3333  1 */\n      0x01\n        /* \"contracts/storageTokenContractName.sol\":3295:3312  activityTimeToken */\n      0x00\n        /* \"contracts/storageTokenContractName.sol\":3295:3325  activityTimeToken.lastTransfer */\n      0xf1\n      add\n        /* \"contracts/storageTokenContractName.sol\":3326:3327  0 */\n      0x00\n        /* \"contracts/storageTokenContractName.sol\":3295:3328  activityTimeToken.lastTransfer[0] */\n      0x04b1\n      dup2\n      lt\n      tag_135\n      jumpi\n      tag_136\n      tag_81\n      jump\t// in\n    tag_136:\n    tag_135:\n      0x05\n      swap2\n      dup3\n      dup3\n      div\n      add\n      swap2\n      swap1\n      mod\n      0x06\n      mul\n        /* \"contracts/storageTokenContractName.sol\":3295:3333  activityTimeToken.lastTransfer[0] += 1 */\n      dup3\n      dup3\n      dup3\n      swap1\n      sload\n      swap1\n      0x0100\n      exp\n      swap1\n      div\n      0xffffffffffff\n      and\n      tag_138\n      swap2\n      swap1\n      tag_87\n      jump\t// in\n    tag_138:\n      swap3\n      pop\n      0x0100\n      exp\n      dup2\n      sload\n      dup2\n      0xffffffffffff\n      mul\n      not\n      and\n      swap1\n      dup4\n      0xffffffffffff\n      and\n      mul\n      or\n      swap1\n      sstore\n      pop\n        /* \"contracts/storageTokenContractName.sol\":3054:3344  if (keccak256(abi.encodePacked(\"lastTransfer\")) == varName_) {... */\n    tag_124:\n        /* \"contracts/storageTokenContractName.sol\":2752:3344  if (keccak256(abi.encodePacked(\"lastSucAuction\")) == varName_) {... */\n    tag_122:\n        /* \"contracts/storageTokenContractName.sol\":2444:3344  if (keccak256(abi.encodePacked(\"lastPartiAuction\")) == varName_) {... */\n    tag_105:\n        /* \"contracts/storageTokenContractName.sol\":2269:3344  if (keccak256(abi.encodePacked(\"forAny\")) == varName_) {... */\n    tag_88:\n        /* \"contracts/storageTokenContractName.sol\":2155:3351  {... */\n      pop\n      pop\n        /* \"contracts/storageTokenContractName.sol\":2071:3351  function setActivityTimeToken(uint256 time, uint16 tokenId, bytes32 varName) public {... */\n      pop\n      pop\n      pop\n      jump\t// out\n    tag_33:\n      mload(0x40)\n      dup1\n      0x0140\n      add\n      0x40\n      mstore\n      dup1\n      and(0xffffffffffffffffffffffffffffffffffffffff, 0x00)\n      dup2\n      mstore\n      0x20\n      add\n      and(0xffffffffffffffffffffffffffffffffffffffff, 0x00)\n      dup2\n      mstore\n      0x20\n      add\n      and(0xffff, 0x00)\n      dup2\n      mstore\n      0x20\n      add\n      and(0xffffffff, 0x00)\n      dup2\n      mstore\n      0x20\n      add\n      and(0xffffffffffff, 0x00)\n      dup2\n      mstore\n      0x20\n      add\n      and(0xffffffffffff, 0x00)\n      dup2\n      mstore\n      0x20\n      add\n      iszero(iszero(0x00))\n      dup2\n      mstore\n      0x20\n      add\n      iszero(iszero(0x00))\n      dup2\n      mstore\n      0x20\n      add\n      iszero(iszero(0x00))\n      dup2\n      mstore\n      0x20\n      add\n      iszero(iszero(0x00))\n      dup2\n      mstore\n      pop\n      swap1\n      jump\t// out\n    tag_48:\n      mload(0x40)\n      dup1\n      0x9620\n      add\n      0x40\n      mstore\n      dup1\n      0x04b1\n      swap1\n      0x20\n      dup3\n      mul\n      dup1\n      calldatasize\n      dup4\n      calldatacopy\n      dup1\n      dup3\n      add\n      swap2\n      pop\n      pop\n      swap1\n      pop\n      pop\n      swap1\n      jump\t// out\n        /* \"#utility.yul\":88:205   */\n    tag_140:\n        /* \"#utility.yul\":197:198   */\n      0x00\n        /* \"#utility.yul\":194:195   */\n      dup1\n        /* \"#utility.yul\":187:199   */\n      revert\n        /* \"#utility.yul\":334:411   */\n    tag_142:\n        /* \"#utility.yul\":371:378   */\n      0x00\n        /* \"#utility.yul\":400:405   */\n      dup2\n        /* \"#utility.yul\":389:405   */\n      swap1\n      pop\n        /* \"#utility.yul\":334:411   */\n      swap2\n      swap1\n      pop\n      jump\t// out\n        /* \"#utility.yul\":417:539   */\n    tag_143:\n        /* \"#utility.yul\":490:514   */\n      tag_193\n        /* \"#utility.yul\":508:513   */\n      dup2\n        /* \"#utility.yul\":490:514   */\n      tag_142\n      jump\t// in\n    tag_193:\n        /* \"#utility.yul\":483:488   */\n      dup2\n        /* \"#utility.yul\":480:515   */\n      eq\n        /* \"#utility.yul\":470:533   */\n      tag_194\n      jumpi\n        /* \"#utility.yul\":529:530   */\n      0x00\n        /* \"#utility.yul\":526:527   */\n      dup1\n        /* \"#utility.yul\":519:531   */\n      revert\n        /* \"#utility.yul\":470:533   */\n    tag_194:\n        /* \"#utility.yul\":417:539   */\n      pop\n      jump\t// out\n        /* \"#utility.yul\":545:684   */\n    tag_144:\n        /* \"#utility.yul\":591:596   */\n      0x00\n        /* \"#utility.yul\":629:635   */\n      dup2\n        /* \"#utility.yul\":616:636   */\n      calldataload\n        /* \"#utility.yul\":607:636   */\n      swap1\n      pop\n        /* \"#utility.yul\":645:678   */\n      tag_196\n        /* \"#utility.yul\":672:677   */\n      dup2\n        /* \"#utility.yul\":645:678   */\n      tag_143\n      jump\t// in\n    tag_196:\n        /* \"#utility.yul\":545:684   */\n      swap3\n      swap2\n      pop\n      pop\n      jump\t// out\n        /* \"#utility.yul\":690:1019   */\n    tag_10:\n        /* \"#utility.yul\":749:755   */\n      0x00\n        /* \"#utility.yul\":798:800   */\n      0x20\n        /* \"#utility.yul\":786:795   */\n      dup3\n        /* \"#utility.yul\":777:784   */\n      dup5\n        /* \"#utility.yul\":773:796   */\n      sub\n        /* \"#utility.yul\":769:801   */\n      slt\n        /* \"#utility.yul\":766:885   */\n      iszero\n      tag_198\n      jumpi\n        /* \"#utility.yul\":804:883   */\n      tag_199\n      tag_140\n      jump\t// in\n    tag_199:\n        /* \"#utility.yul\":766:885   */\n    tag_198:\n        /* \"#utility.yul\":924:925   */\n      0x00\n        /* \"#utility.yul\":949:1002   */\n      tag_200\n        /* \"#utility.yul\":994:1001   */\n      dup5\n        /* \"#utility.yul\":985:991   */\n      dup3\n        /* \"#utility.yul\":974:983   */\n      dup6\n        /* \"#utility.yul\":970:992   */\n      add\n        /* \"#utility.yul\":949:1002   */\n      tag_144\n      jump\t// in\n    tag_200:\n        /* \"#utility.yul\":939:1002   */\n      swap2\n      pop\n        /* \"#utility.yul\":895:1012   */\n      pop\n        /* \"#utility.yul\":690:1019   */\n      swap3\n      swap2\n      pop\n      pop\n      jump\t// out\n        /* \"#utility.yul\":1025:1151   */\n    tag_145:\n        /* \"#utility.yul\":1062:1069   */\n      0x00\n        /* \"#utility.yul\":1102:1144   */\n      0xffffffffffffffffffffffffffffffffffffffff\n        /* \"#utility.yul\":1095:1100   */\n      dup3\n        /* \"#utility.yul\":1091:1145   */\n      and\n        /* \"#utility.yul\":1080:1145   */\n      swap1\n      pop\n        /* \"#utility.yul\":1025:1151   */\n      swap2\n      swap1\n      pop\n      jump\t// out\n        /* \"#utility.yul\":1157:1253   */\n    tag_146:\n        /* \"#utility.yul\":1194:1201   */\n      0x00\n        /* \"#utility.yul\":1223:1247   */\n      tag_203\n        /* \"#utility.yul\":1241:1246   */\n      dup3\n        /* \"#utility.yul\":1223:1247   */\n      tag_145\n      jump\t// in\n    tag_203:\n        /* \"#utility.yul\":1212:1247   */\n      swap1\n      pop\n        /* \"#utility.yul\":1157:1253   */\n      swap2\n      swap1\n      pop\n      jump\t// out\n        /* \"#utility.yul\":1259:1367   */\n    tag_147:\n        /* \"#utility.yul\":1336:1360   */\n      tag_205\n        /* \"#utility.yul\":1354:1359   */\n      dup2\n        /* \"#utility.yul\":1336:1360   */\n      tag_146\n      jump\t// in\n    tag_205:\n        /* \"#utility.yul\":1331:1334   */\n      dup3\n        /* \"#utility.yul\":1324:1361   */\n      mstore\n        /* \"#utility.yul\":1259:1367   */\n      pop\n      pop\n      jump\t// out\n        /* \"#utility.yul\":1373:1462   */\n    tag_148:\n        /* \"#utility.yul\":1409:1416   */\n      0x00\n        /* \"#utility.yul\":1449:1455   */\n      0xffff\n        /* \"#utility.yul\":1442:1447   */\n      dup3\n        /* \"#utility.yul\":1438:1456   */\n      and\n        /* \"#utility.yul\":1427:1456   */\n      swap1\n      pop\n        /* \"#utility.yul\":1373:1462   */\n      swap2\n      swap1\n      pop\n      jump\t// out\n        /* \"#utility.yul\":1468:1573   */\n    tag_149:\n        /* \"#utility.yul\":1543:1566   */\n      tag_208\n        /* \"#utility.yul\":1560:1565   */\n      dup2\n        /* \"#utility.yul\":1543:1566   */\n      tag_148\n      jump\t// in\n    tag_208:\n        /* \"#utility.yul\":1538:1541   */\n      dup3\n        /* \"#utility.yul\":1531:1567   */\n      mstore\n        /* \"#utility.yul\":1468:1573   */\n      pop\n      pop\n      jump\t// out\n        /* \"#utility.yul\":1579:1672   */\n    tag_150:\n        /* \"#utility.yul\":1615:1622   */\n      0x00\n        /* \"#utility.yul\":1655:1665   */\n      0xffffffff\n        /* \"#utility.yul\":1648:1653   */\n      dup3\n        /* \"#utility.yul\":1644:1666   */\n      and\n        /* \"#utility.yul\":1633:1666   */\n      swap1\n      pop\n        /* \"#utility.yul\":1579:1672   */\n      swap2\n      swap1\n      pop\n      jump\t// out\n        /* \"#utility.yul\":1678:1783   */\n    tag_151:\n        /* \"#utility.yul\":1753:1776   */\n      tag_211\n        /* \"#utility.yul\":1770:1775   */\n      dup2\n        /* \"#utility.yul\":1753:1776   */\n      tag_150\n      jump\t// in\n    tag_211:\n        /* \"#utility.yul\":1748:1751   */\n      dup3\n        /* \"#utility.yul\":1741:1777   */\n      mstore\n        /* \"#utility.yul\":1678:1783   */\n      pop\n      pop\n      jump\t// out\n        /* \"#utility.yul\":1789:1886   */\n    tag_152:\n        /* \"#utility.yul\":1825:1832   */\n      0x00\n        /* \"#utility.yul\":1865:1879   */\n      0xffffffffffff\n        /* \"#utility.yul\":1858:1863   */\n      dup3\n        /* \"#utility.yul\":1854:1880   */\n      and\n        /* \"#utility.yul\":1843:1880   */\n      swap1\n      pop\n        /* \"#utility.yul\":1789:1886   */\n      swap2\n      swap1\n      pop\n      jump\t// out\n        /* \"#utility.yul\":1892:1997   */\n    tag_153:\n        /* \"#utility.yul\":1967:1990   */\n      tag_214\n        /* \"#utility.yul\":1984:1989   */\n      dup2\n        /* \"#utility.yul\":1967:1990   */\n      tag_152\n      jump\t// in\n    tag_214:\n        /* \"#utility.yul\":1962:1965   */\n      dup3\n        /* \"#utility.yul\":1955:1991   */\n      mstore\n        /* \"#utility.yul\":1892:1997   */\n      pop\n      pop\n      jump\t// out\n        /* \"#utility.yul\":2003:2093   */\n    tag_154:\n        /* \"#utility.yul\":2037:2044   */\n      0x00\n        /* \"#utility.yul\":2080:2085   */\n      dup2\n        /* \"#utility.yul\":2073:2086   */\n      iszero\n        /* \"#utility.yul\":2066:2087   */\n      iszero\n        /* \"#utility.yul\":2055:2087   */\n      swap1\n      pop\n        /* \"#utility.yul\":2003:2093   */\n      swap2\n      swap1\n      pop\n      jump\t// out\n        /* \"#utility.yul\":2099:2198   */\n    tag_155:\n        /* \"#utility.yul\":2170:2191   */\n      tag_217\n        /* \"#utility.yul\":2185:2190   */\n      dup2\n        /* \"#utility.yul\":2170:2191   */\n      tag_154\n      jump\t// in\n    tag_217:\n        /* \"#utility.yul\":2165:2168   */\n      dup3\n        /* \"#utility.yul\":2158:2192   */\n      mstore\n        /* \"#utility.yul\":2099:2198   */\n      pop\n      pop\n      jump\t// out\n        /* \"#utility.yul\":2276:4211   */\n    tag_156:\n        /* \"#utility.yul\":2429:2435   */\n      0x0140\n        /* \"#utility.yul\":2424:2427   */\n      dup3\n        /* \"#utility.yul\":2420:2436   */\n      add\n        /* \"#utility.yul\":2522:2526   */\n      0x00\n        /* \"#utility.yul\":2515:2520   */\n      dup3\n        /* \"#utility.yul\":2511:2527   */\n      add\n        /* \"#utility.yul\":2505:2528   */\n      mload\n        /* \"#utility.yul\":2541:2604   */\n      tag_219\n        /* \"#utility.yul\":2598:2602   */\n      0x00\n        /* \"#utility.yul\":2593:2596   */\n      dup6\n        /* \"#utility.yul\":2589:2603   */\n      add\n        /* \"#utility.yul\":2575:2587   */\n      dup3\n        /* \"#utility.yul\":2541:2604   */\n      tag_147\n      jump\t// in\n    tag_219:\n        /* \"#utility.yul\":2446:2614   */\n      pop\n        /* \"#utility.yul\":2706:2710   */\n      0x20\n        /* \"#utility.yul\":2699:2704   */\n      dup3\n        /* \"#utility.yul\":2695:2711   */\n      add\n        /* \"#utility.yul\":2689:2712   */\n      mload\n        /* \"#utility.yul\":2725:2788   */\n      tag_220\n        /* \"#utility.yul\":2782:2786   */\n      0x20\n        /* \"#utility.yul\":2777:2780   */\n      dup6\n        /* \"#utility.yul\":2773:2787   */\n      add\n        /* \"#utility.yul\":2759:2771   */\n      dup3\n        /* \"#utility.yul\":2725:2788   */\n      tag_147\n      jump\t// in\n    tag_220:\n        /* \"#utility.yul\":2624:2798   */\n      pop\n        /* \"#utility.yul\":2882:2886   */\n      0x40\n        /* \"#utility.yul\":2875:2880   */\n      dup3\n        /* \"#utility.yul\":2871:2887   */\n      add\n        /* \"#utility.yul\":2865:2888   */\n      mload\n        /* \"#utility.yul\":2901:2962   */\n      tag_221\n        /* \"#utility.yul\":2956:2960   */\n      0x40\n        /* \"#utility.yul\":2951:2954   */\n      dup6\n        /* \"#utility.yul\":2947:2961   */\n      add\n        /* \"#utility.yul\":2933:2945   */\n      dup3\n        /* \"#utility.yul\":2901:2962   */\n      tag_149\n      jump\t// in\n    tag_221:\n        /* \"#utility.yul\":2808:2972   */\n      pop\n        /* \"#utility.yul\":3062:3066   */\n      0x60\n        /* \"#utility.yul\":3055:3060   */\n      dup3\n        /* \"#utility.yul\":3051:3067   */\n      add\n        /* \"#utility.yul\":3045:3068   */\n      mload\n        /* \"#utility.yul\":3081:3142   */\n      tag_222\n        /* \"#utility.yul\":3136:3140   */\n      0x60\n        /* \"#utility.yul\":3131:3134   */\n      dup6\n        /* \"#utility.yul\":3127:3141   */\n      add\n        /* \"#utility.yul\":3113:3125   */\n      dup3\n        /* \"#utility.yul\":3081:3142   */\n      tag_151\n      jump\t// in\n    tag_222:\n        /* \"#utility.yul\":2982:3152   */\n      pop\n        /* \"#utility.yul\":3239:3243   */\n      0x80\n        /* \"#utility.yul\":3232:3237   */\n      dup3\n        /* \"#utility.yul\":3228:3244   */\n      add\n        /* \"#utility.yul\":3222:3245   */\n      mload\n        /* \"#utility.yul\":3258:3319   */\n      tag_223\n        /* \"#utility.yul\":3313:3317   */\n      0x80\n        /* \"#utility.yul\":3308:3311   */\n      dup6\n        /* \"#utility.yul\":3304:3318   */\n      add\n        /* \"#utility.yul\":3290:3302   */\n      dup3\n        /* \"#utility.yul\":3258:3319   */\n      tag_153\n      jump\t// in\n    tag_223:\n        /* \"#utility.yul\":3162:3329   */\n      pop\n        /* \"#utility.yul\":3417:3421   */\n      0xa0\n        /* \"#utility.yul\":3410:3415   */\n      dup3\n        /* \"#utility.yul\":3406:3422   */\n      add\n        /* \"#utility.yul\":3400:3423   */\n      mload\n        /* \"#utility.yul\":3436:3497   */\n      tag_224\n        /* \"#utility.yul\":3491:3495   */\n      0xa0\n        /* \"#utility.yul\":3486:3489   */\n      dup6\n        /* \"#utility.yul\":3482:3496   */\n      add\n        /* \"#utility.yul\":3468:3480   */\n      dup3\n        /* \"#utility.yul\":3436:3497   */\n      tag_153\n      jump\t// in\n    tag_224:\n        /* \"#utility.yul\":3339:3507   */\n      pop\n        /* \"#utility.yul\":3593:3597   */\n      0xc0\n        /* \"#utility.yul\":3586:3591   */\n      dup3\n        /* \"#utility.yul\":3582:3598   */\n      add\n        /* \"#utility.yul\":3576:3599   */\n      mload\n        /* \"#utility.yul\":3612:3669   */\n      tag_225\n        /* \"#utility.yul\":3663:3667   */\n      0xc0\n        /* \"#utility.yul\":3658:3661   */\n      dup6\n        /* \"#utility.yul\":3654:3668   */\n      add\n        /* \"#utility.yul\":3640:3652   */\n      dup3\n        /* \"#utility.yul\":3612:3669   */\n      tag_155\n      jump\t// in\n    tag_225:\n        /* \"#utility.yul\":3517:3679   */\n      pop\n        /* \"#utility.yul\":3765:3769   */\n      0xe0\n        /* \"#utility.yul\":3758:3763   */\n      dup3\n        /* \"#utility.yul\":3754:3770   */\n      add\n        /* \"#utility.yul\":3748:3771   */\n      mload\n        /* \"#utility.yul\":3784:3841   */\n      tag_226\n        /* \"#utility.yul\":3835:3839   */\n      0xe0\n        /* \"#utility.yul\":3830:3833   */\n      dup6\n        /* \"#utility.yul\":3826:3840   */\n      add\n        /* \"#utility.yul\":3812:3824   */\n      dup3\n        /* \"#utility.yul\":3784:3841   */\n      tag_155\n      jump\t// in\n    tag_226:\n        /* \"#utility.yul\":3689:3851   */\n      pop\n        /* \"#utility.yul\":3938:3944   */\n      0x0100\n        /* \"#utility.yul\":3931:3936   */\n      dup3\n        /* \"#utility.yul\":3927:3945   */\n      add\n        /* \"#utility.yul\":3921:3946   */\n      mload\n        /* \"#utility.yul\":3959:4018   */\n      tag_227\n        /* \"#utility.yul\":4010:4016   */\n      0x0100\n        /* \"#utility.yul\":4005:4008   */\n      dup6\n        /* \"#utility.yul\":4001:4017   */\n      add\n        /* \"#utility.yul\":3987:3999   */\n      dup3\n        /* \"#utility.yul\":3959:4018   */\n      tag_155\n      jump\t// in\n    tag_227:\n        /* \"#utility.yul\":3861:4028   */\n      pop\n        /* \"#utility.yul\":4114:4120   */\n      0x0120\n        /* \"#utility.yul\":4107:4112   */\n      dup3\n        /* \"#utility.yul\":4103:4121   */\n      add\n        /* \"#utility.yul\":4097:4122   */\n      mload\n        /* \"#utility.yul\":4135:4194   */\n      tag_228\n        /* \"#utility.yul\":4186:4192   */\n      0x0120\n        /* \"#utility.yul\":4181:4184   */\n      dup6\n        /* \"#utility.yul\":4177:4193   */\n      add\n        /* \"#utility.yul\":4163:4175   */\n      dup3\n        /* \"#utility.yul\":4135:4194   */\n      tag_155\n      jump\t// in\n    tag_228:\n        /* \"#utility.yul\":4038:4204   */\n      pop\n        /* \"#utility.yul\":2398:4211   */\n      pop\n        /* \"#utility.yul\":2276:4211   */\n      pop\n      pop\n      jump\t// out\n        /* \"#utility.yul\":4217:4552   */\n    tag_13:\n        /* \"#utility.yul\":4366:4370   */\n      0x00\n        /* \"#utility.yul\":4404:4407   */\n      0x0140\n        /* \"#utility.yul\":4393:4402   */\n      dup3\n        /* \"#utility.yul\":4389:4408   */\n      add\n        /* \"#utility.yul\":4381:4408   */\n      swap1\n      pop\n        /* \"#utility.yul\":4418:4545   */\n      tag_230\n        /* \"#utility.yul\":4542:4543   */\n      0x00\n        /* \"#utility.yul\":4531:4540   */\n      dup4\n        /* \"#utility.yul\":4527:4544   */\n      add\n        /* \"#utility.yul\":4518:4524   */\n      dup5\n        /* \"#utility.yul\":4418:4545   */\n      tag_156\n      jump\t// in\n    tag_230:\n        /* \"#utility.yul\":4217:4552   */\n      swap3\n      swap2\n      pop\n      pop\n      jump\t// out\n        /* \"#utility.yul\":4558:5032   */\n    tag_16:\n        /* \"#utility.yul\":4626:4632   */\n      0x00\n        /* \"#utility.yul\":4634:4640   */\n      dup1\n        /* \"#utility.yul\":4683:4685   */\n      0x40\n        /* \"#utility.yul\":4671:4680   */\n      dup4\n        /* \"#utility.yul\":4662:4669   */\n      dup6\n        /* \"#utility.yul\":4658:4681   */\n      sub\n        /* \"#utility.yul\":4654:4686   */\n      slt\n        /* \"#utility.yul\":4651:4770   */\n      iszero\n      tag_232\n      jumpi\n        /* \"#utility.yul\":4689:4768   */\n      tag_233\n      tag_140\n      jump\t// in\n    tag_233:\n        /* \"#utility.yul\":4651:4770   */\n    tag_232:\n        /* \"#utility.yul\":4809:4810   */\n      0x00\n        /* \"#utility.yul\":4834:4887   */\n      tag_234\n        /* \"#utility.yul\":4879:4886   */\n      dup6\n        /* \"#utility.yul\":4870:4876   */\n      dup3\n        /* \"#utility.yul\":4859:4868   */\n      dup7\n        /* \"#utility.yul\":4855:4877   */\n      add\n        /* \"#utility.yul\":4834:4887   */\n      tag_144\n      jump\t// in\n    tag_234:\n        /* \"#utility.yul\":4824:4887   */\n      swap3\n      pop\n        /* \"#utility.yul\":4780:4897   */\n      pop\n        /* \"#utility.yul\":4936:4938   */\n      0x20\n        /* \"#utility.yul\":4962:5015   */\n      tag_235\n        /* \"#utility.yul\":5007:5014   */\n      dup6\n        /* \"#utility.yul\":4998:5004   */\n      dup3\n        /* \"#utility.yul\":4987:4996   */\n      dup7\n        /* \"#utility.yul\":4983:5005   */\n      add\n        /* \"#utility.yul\":4962:5015   */\n      tag_144\n      jump\t// in\n    tag_235:\n        /* \"#utility.yul\":4952:5015   */\n      swap2\n      pop\n        /* \"#utility.yul\":4907:5025   */\n      pop\n        /* \"#utility.yul\":4558:5032   */\n      swap3\n      pop\n      swap3\n      swap1\n      pop\n      jump\t// out\n        /* \"#utility.yul\":5038:5160   */\n    tag_157:\n        /* \"#utility.yul\":5111:5135   */\n      tag_237\n        /* \"#utility.yul\":5129:5134   */\n      dup2\n        /* \"#utility.yul\":5111:5135   */\n      tag_146\n      jump\t// in\n    tag_237:\n        /* \"#utility.yul\":5104:5109   */\n      dup2\n        /* \"#utility.yul\":5101:5136   */\n      eq\n        /* \"#utility.yul\":5091:5154   */\n      tag_238\n      jumpi\n        /* \"#utility.yul\":5150:5151   */\n      0x00\n        /* \"#utility.yul\":5147:5148   */\n      dup1\n        /* \"#utility.yul\":5140:5152   */\n      revert\n        /* \"#utility.yul\":5091:5154   */\n    tag_238:\n        /* \"#utility.yul\":5038:5160   */\n      pop\n      jump\t// out\n        /* \"#utility.yul\":5166:5305   */\n    tag_158:\n        /* \"#utility.yul\":5212:5217   */\n      0x00\n        /* \"#utility.yul\":5250:5256   */\n      dup2\n        /* \"#utility.yul\":5237:5257   */\n      calldataload\n        /* \"#utility.yul\":5228:5257   */\n      swap1\n      pop\n        /* \"#utility.yul\":5266:5299   */\n      tag_240\n        /* \"#utility.yul\":5293:5298   */\n      dup2\n        /* \"#utility.yul\":5266:5299   */\n      tag_157\n      jump\t// in\n    tag_240:\n        /* \"#utility.yul\":5166:5305   */\n      swap3\n      swap2\n      pop\n      pop\n      jump\t// out\n        /* \"#utility.yul\":5311:5431   */\n    tag_159:\n        /* \"#utility.yul\":5383:5406   */\n      tag_242\n        /* \"#utility.yul\":5400:5405   */\n      dup2\n        /* \"#utility.yul\":5383:5406   */\n      tag_148\n      jump\t// in\n    tag_242:\n        /* \"#utility.yul\":5376:5381   */\n      dup2\n        /* \"#utility.yul\":5373:5407   */\n      eq\n        /* \"#utility.yul\":5363:5425   */\n      tag_243\n      jumpi\n        /* \"#utility.yul\":5421:5422   */\n      0x00\n        /* \"#utility.yul\":5418:5419   */\n      dup1\n        /* \"#utility.yul\":5411:5423   */\n      revert\n        /* \"#utility.yul\":5363:5425   */\n    tag_243:\n        /* \"#utility.yul\":5311:5431   */\n      pop\n      jump\t// out\n        /* \"#utility.yul\":5437:5574   */\n    tag_160:\n        /* \"#utility.yul\":5482:5487   */\n      0x00\n        /* \"#utility.yul\":5520:5526   */\n      dup2\n        /* \"#utility.yul\":5507:5527   */\n      calldataload\n        /* \"#utility.yul\":5498:5527   */\n      swap1\n      pop\n        /* \"#utility.yul\":5536:5568   */\n      tag_245\n        /* \"#utility.yul\":5562:5567   */\n      dup2\n        /* \"#utility.yul\":5536:5568   */\n      tag_159\n      jump\t// in\n    tag_245:\n        /* \"#utility.yul\":5437:5574   */\n      swap3\n      swap2\n      pop\n      pop\n      jump\t// out\n        /* \"#utility.yul\":5580:5700   */\n    tag_161:\n        /* \"#utility.yul\":5652:5675   */\n      tag_247\n        /* \"#utility.yul\":5669:5674   */\n      dup2\n        /* \"#utility.yul\":5652:5675   */\n      tag_150\n      jump\t// in\n    tag_247:\n        /* \"#utility.yul\":5645:5650   */\n      dup2\n        /* \"#utility.yul\":5642:5676   */\n      eq\n        /* \"#utility.yul\":5632:5694   */\n      tag_248\n      jumpi\n        /* \"#utility.yul\":5690:5691   */\n      0x00\n        /* \"#utility.yul\":5687:5688   */\n      dup1\n        /* \"#utility.yul\":5680:5692   */\n      revert\n        /* \"#utility.yul\":5632:5694   */\n    tag_248:\n        /* \"#utility.yul\":5580:5700   */\n      pop\n      jump\t// out\n        /* \"#utility.yul\":5706:5843   */\n    tag_162:\n        /* \"#utility.yul\":5751:5756   */\n      0x00\n        /* \"#utility.yul\":5789:5795   */\n      dup2\n        /* \"#utility.yul\":5776:5796   */\n      calldataload\n        /* \"#utility.yul\":5767:5796   */\n      swap1\n      pop\n        /* \"#utility.yul\":5805:5837   */\n      tag_250\n        /* \"#utility.yul\":5831:5836   */\n      dup2\n        /* \"#utility.yul\":5805:5837   */\n      tag_161\n      jump\t// in\n    tag_250:\n        /* \"#utility.yul\":5706:5843   */\n      swap3\n      swap2\n      pop\n      pop\n      jump\t// out\n        /* \"#utility.yul\":5849:5969   */\n    tag_163:\n        /* \"#utility.yul\":5921:5944   */\n      tag_252\n        /* \"#utility.yul\":5938:5943   */\n      dup2\n        /* \"#utility.yul\":5921:5944   */\n      tag_152\n      jump\t// in\n    tag_252:\n        /* \"#utility.yul\":5914:5919   */\n      dup2\n        /* \"#utility.yul\":5911:5945   */\n      eq\n        /* \"#utility.yul\":5901:5963   */\n      tag_253\n      jumpi\n        /* \"#utility.yul\":5959:5960   */\n      0x00\n        /* \"#utility.yul\":5956:5957   */\n      dup1\n        /* \"#utility.yul\":5949:5961   */\n      revert\n        /* \"#utility.yul\":5901:5963   */\n    tag_253:\n        /* \"#utility.yul\":5849:5969   */\n      pop\n      jump\t// out\n        /* \"#utility.yul\":5975:6112   */\n    tag_164:\n        /* \"#utility.yul\":6020:6025   */\n      0x00\n        /* \"#utility.yul\":6058:6064   */\n      dup2\n        /* \"#utility.yul\":6045:6065   */\n      calldataload\n        /* \"#utility.yul\":6036:6065   */\n      swap1\n      pop\n        /* \"#utility.yul\":6074:6106   */\n      tag_255\n        /* \"#utility.yul\":6100:6105   */\n      dup2\n        /* \"#utility.yul\":6074:6106   */\n      tag_163\n      jump\t// in\n    tag_255:\n        /* \"#utility.yul\":5975:6112   */\n      swap3\n      swap2\n      pop\n      pop\n      jump\t// out\n        /* \"#utility.yul\":6118:7313   */\n    tag_20:\n        /* \"#utility.yul\":6227:6233   */\n      0x00\n        /* \"#utility.yul\":6235:6241   */\n      dup1\n        /* \"#utility.yul\":6243:6249   */\n      0x00\n        /* \"#utility.yul\":6251:6257   */\n      dup1\n        /* \"#utility.yul\":6259:6265   */\n      0x00\n        /* \"#utility.yul\":6267:6273   */\n      dup1\n        /* \"#utility.yul\":6275:6281   */\n      0x00\n        /* \"#utility.yul\":6324:6327   */\n      0xe0\n        /* \"#utility.yul\":6312:6321   */\n      dup9\n        /* \"#utility.yul\":6303:6310   */\n      dup11\n        /* \"#utility.yul\":6299:6322   */\n      sub\n        /* \"#utility.yul\":6295:6328   */\n      slt\n        /* \"#utility.yul\":6292:6412   */\n      iszero\n      tag_257\n      jumpi\n        /* \"#utility.yul\":6331:6410   */\n      tag_258\n      tag_140\n      jump\t// in\n    tag_258:\n        /* \"#utility.yul\":6292:6412   */\n    tag_257:\n        /* \"#utility.yul\":6451:6452   */\n      0x00\n        /* \"#utility.yul\":6476:6529   */\n      tag_259\n        /* \"#utility.yul\":6521:6528   */\n      dup11\n        /* \"#utility.yul\":6512:6518   */\n      dup3\n        /* \"#utility.yul\":6501:6510   */\n      dup12\n        /* \"#utility.yul\":6497:6519   */\n      add\n        /* \"#utility.yul\":6476:6529   */\n      tag_144\n      jump\t// in\n    tag_259:\n        /* \"#utility.yul\":6466:6529   */\n      swap8\n      pop\n        /* \"#utility.yul\":6422:6539   */\n      pop\n        /* \"#utility.yul\":6578:6580   */\n      0x20\n        /* \"#utility.yul\":6604:6657   */\n      tag_260\n        /* \"#utility.yul\":6649:6656   */\n      dup11\n        /* \"#utility.yul\":6640:6646   */\n      dup3\n        /* \"#utility.yul\":6629:6638   */\n      dup12\n        /* \"#utility.yul\":6625:6647   */\n      add\n        /* \"#utility.yul\":6604:6657   */\n      tag_158\n      jump\t// in\n    tag_260:\n        /* \"#utility.yul\":6594:6657   */\n      swap7\n      pop\n        /* \"#utility.yul\":6549:6667   */\n      pop\n        /* \"#utility.yul\":6706:6708   */\n      0x40\n        /* \"#utility.yul\":6732:6785   */\n      tag_261\n        /* \"#utility.yul\":6777:6784   */\n      dup11\n        /* \"#utility.yul\":6768:6774   */\n      dup3\n        /* \"#utility.yul\":6757:6766   */\n      dup12\n        /* \"#utility.yul\":6753:6775   */\n      add\n        /* \"#utility.yul\":6732:6785   */\n      tag_158\n      jump\t// in\n    tag_261:\n        /* \"#utility.yul\":6722:6785   */\n      swap6\n      pop\n        /* \"#utility.yul\":6677:6795   */\n      pop\n        /* \"#utility.yul\":6834:6836   */\n      0x60\n        /* \"#utility.yul\":6860:6912   */\n      tag_262\n        /* \"#utility.yul\":6904:6911   */\n      dup11\n        /* \"#utility.yul\":6895:6901   */\n      dup3\n        /* \"#utility.yul\":6884:6893   */\n      dup12\n        /* \"#utility.yul\":6880:6902   */\n      add\n        /* \"#utility.yul\":6860:6912   */\n      tag_160\n      jump\t// in\n    tag_262:\n        /* \"#utility.yul\":6850:6912   */\n      swap5\n      pop\n        /* \"#utility.yul\":6805:6922   */\n      pop\n        /* \"#utility.yul\":6961:6964   */\n      0x80\n        /* \"#utility.yul\":6988:7040   */\n      tag_263\n        /* \"#utility.yul\":7032:7039   */\n      dup11\n        /* \"#utility.yul\":7023:7029   */\n      dup3\n        /* \"#utility.yul\":7012:7021   */\n      dup12\n        /* \"#utility.yul\":7008:7030   */\n      add\n        /* \"#utility.yul\":6988:7040   */\n      tag_162\n      jump\t// in\n    tag_263:\n        /* \"#utility.yul\":6978:7040   */\n      swap4\n      pop\n        /* \"#utility.yul\":6932:7050   */\n      pop\n        /* \"#utility.yul\":7089:7092   */\n      0xa0\n        /* \"#utility.yul\":7116:7168   */\n      tag_264\n        /* \"#utility.yul\":7160:7167   */\n      dup11\n        /* \"#utility.yul\":7151:7157   */\n      dup3\n        /* \"#utility.yul\":7140:7149   */\n      dup12\n        /* \"#utility.yul\":7136:7158   */\n      add\n        /* \"#utility.yul\":7116:7168   */\n      tag_164\n      jump\t// in\n    tag_264:\n        /* \"#utility.yul\":7106:7168   */\n      swap3\n      pop\n        /* \"#utility.yul\":7060:7178   */\n      pop\n        /* \"#utility.yul\":7217:7220   */\n      0xc0\n        /* \"#utility.yul\":7244:7296   */\n      tag_265\n        /* \"#utility.yul\":7288:7295   */\n      dup11\n        /* \"#utility.yul\":7279:7285   */\n      dup3\n        /* \"#utility.yul\":7268:7277   */\n      dup12\n        /* \"#utility.yul\":7264:7286   */\n      add\n        /* \"#utility.yul\":7244:7296   */\n      tag_164\n      jump\t// in\n    tag_265:\n        /* \"#utility.yul\":7234:7296   */\n      swap2\n      pop\n        /* \"#utility.yul\":7188:7306   */\n      pop\n        /* \"#utility.yul\":6118:7313   */\n      swap3\n      swap6\n      swap9\n      swap2\n      swap5\n      swap8\n      pop\n      swap3\n      swap6\n      pop\n      jump\t// out\n        /* \"#utility.yul\":7319:7396   */\n    tag_165:\n        /* \"#utility.yul\":7356:7363   */\n      0x00\n        /* \"#utility.yul\":7385:7390   */\n      dup2\n        /* \"#utility.yul\":7374:7390   */\n      swap1\n      pop\n        /* \"#utility.yul\":7319:7396   */\n      swap2\n      swap1\n      pop\n      jump\t// out\n        /* \"#utility.yul\":7402:7524   */\n    tag_166:\n        /* \"#utility.yul\":7475:7499   */\n      tag_268\n        /* \"#utility.yul\":7493:7498   */\n      dup2\n        /* \"#utility.yul\":7475:7499   */\n      tag_165\n      jump\t// in\n    tag_268:\n        /* \"#utility.yul\":7468:7473   */\n      dup2\n        /* \"#utility.yul\":7465:7500   */\n      eq\n        /* \"#utility.yul\":7455:7518   */\n      tag_269\n      jumpi\n        /* \"#utility.yul\":7514:7515   */\n      0x00\n        /* \"#utility.yul\":7511:7512   */\n      dup1\n        /* \"#utility.yul\":7504:7516   */\n      revert\n        /* \"#utility.yul\":7455:7518   */\n    tag_269:\n        /* \"#utility.yul\":7402:7524   */\n      pop\n      jump\t// out\n        /* \"#utility.yul\":7530:7669   */\n    tag_167:\n        /* \"#utility.yul\":7576:7581   */\n      0x00\n        /* \"#utility.yul\":7614:7620   */\n      dup2\n        /* \"#utility.yul\":7601:7621   */\n      calldataload\n        /* \"#utility.yul\":7592:7621   */\n      swap1\n      pop\n        /* \"#utility.yul\":7630:7663   */\n      tag_271\n        /* \"#utility.yul\":7657:7662   */\n      dup2\n        /* \"#utility.yul\":7630:7663   */\n      tag_166\n      jump\t// in\n    tag_271:\n        /* \"#utility.yul\":7530:7669   */\n      swap3\n      swap2\n      pop\n      pop\n      jump\t// out\n        /* \"#utility.yul\":7675:8004   */\n    tag_24:\n        /* \"#utility.yul\":7734:7740   */\n      0x00\n        /* \"#utility.yul\":7783:7785   */\n      0x20\n        /* \"#utility.yul\":7771:7780   */\n      dup3\n        /* \"#utility.yul\":7762:7769   */\n      dup5\n        /* \"#utility.yul\":7758:7781   */\n      sub\n        /* \"#utility.yul\":7754:7786   */\n      slt\n        /* \"#utility.yul\":7751:7870   */\n      iszero\n      tag_273\n      jumpi\n        /* \"#utility.yul\":7789:7868   */\n      tag_274\n      tag_140\n      jump\t// in\n    tag_274:\n        /* \"#utility.yul\":7751:7870   */\n    tag_273:\n        /* \"#utility.yul\":7909:7910   */\n      0x00\n        /* \"#utility.yul\":7934:7987   */\n      tag_275\n        /* \"#utility.yul\":7979:7986   */\n      dup5\n        /* \"#utility.yul\":7970:7976   */\n      dup3\n        /* \"#utility.yul\":7959:7968   */\n      dup6\n        /* \"#utility.yul\":7955:7977   */\n      add\n        /* \"#utility.yul\":7934:7987   */\n      tag_167\n      jump\t// in\n    tag_275:\n        /* \"#utility.yul\":7924:7987   */\n      swap2\n      pop\n        /* \"#utility.yul\":7880:7997   */\n      pop\n        /* \"#utility.yul\":7675:8004   */\n      swap3\n      swap2\n      pop\n      pop\n      jump\t// out\n        /* \"#utility.yul\":8010:8118   */\n    tag_168:\n        /* \"#utility.yul\":8077:8083   */\n      0x00\n        /* \"#utility.yul\":8105:8111   */\n      0x04b1\n        /* \"#utility.yul\":8095:8111   */\n      swap1\n      pop\n        /* \"#utility.yul\":8010:8118   */\n      swap2\n      swap1\n      pop\n      jump\t// out\n        /* \"#utility.yul\":8124:8269   */\n    tag_169:\n        /* \"#utility.yul\":8223:8234   */\n      0x00\n        /* \"#utility.yul\":8260:8263   */\n      dup2\n        /* \"#utility.yul\":8245:8263   */\n      swap1\n      pop\n        /* \"#utility.yul\":8124:8269   */\n      swap3\n      swap2\n      pop\n      pop\n      jump\t// out\n        /* \"#utility.yul\":8275:8375   */\n    tag_170:\n        /* \"#utility.yul\":8342:8346   */\n      0x00\n        /* \"#utility.yul\":8365:8368   */\n      dup2\n        /* \"#utility.yul\":8357:8368   */\n      swap1\n      pop\n        /* \"#utility.yul\":8275:8375   */\n      swap2\n      swap1\n      pop\n      jump\t// out\n        /* \"#utility.yul\":8381:8556   */\n    tag_171:\n        /* \"#utility.yul\":8448:8458   */\n      0x00\n        /* \"#utility.yul\":8469:8513   */\n      tag_280\n        /* \"#utility.yul\":8509:8512   */\n      dup4\n        /* \"#utility.yul\":8501:8507   */\n      dup4\n        /* \"#utility.yul\":8469:8513   */\n      tag_153\n      jump\t// in\n    tag_280:\n        /* \"#utility.yul\":8545:8549   */\n      0x20\n        /* \"#utility.yul\":8540:8543   */\n      dup4\n        /* \"#utility.yul\":8536:8550   */\n      add\n        /* \"#utility.yul\":8522:8550   */\n      swap1\n      pop\n        /* \"#utility.yul\":8381:8556   */\n      swap3\n      swap2\n      pop\n      pop\n      jump\t// out\n        /* \"#utility.yul\":8562:8675   */\n    tag_172:\n        /* \"#utility.yul\":8632:8636   */\n      0x00\n        /* \"#utility.yul\":8664:8668   */\n      0x20\n        /* \"#utility.yul\":8659:8662   */\n      dup3\n        /* \"#utility.yul\":8655:8669   */\n      add\n        /* \"#utility.yul\":8647:8669   */\n      swap1\n      pop\n        /* \"#utility.yul\":8562:8675   */\n      swap2\n      swap1\n      pop\n      jump\t// out\n        /* \"#utility.yul\":8717:9421   */\n    tag_173:\n        /* \"#utility.yul\":8857:8911   */\n      tag_283\n        /* \"#utility.yul\":8905:8910   */\n      dup2\n        /* \"#utility.yul\":8857:8911   */\n      tag_168\n      jump\t// in\n    tag_283:\n        /* \"#utility.yul\":8927:9013   */\n      tag_284\n        /* \"#utility.yul\":9006:9012   */\n      dup2\n        /* \"#utility.yul\":9001:9004   */\n      dup5\n        /* \"#utility.yul\":8927:9013   */\n      tag_169\n      jump\t// in\n    tag_284:\n        /* \"#utility.yul\":8920:9013   */\n      swap3\n      pop\n        /* \"#utility.yul\":9037:9093   */\n      tag_285\n        /* \"#utility.yul\":9087:9092   */\n      dup3\n        /* \"#utility.yul\":9037:9093   */\n      tag_170\n      jump\t// in\n    tag_285:\n        /* \"#utility.yul\":9116:9123   */\n      dup1\n        /* \"#utility.yul\":9147:9148   */\n      0x00\n        /* \"#utility.yul\":9132:9414   */\n    tag_286:\n        /* \"#utility.yul\":9157:9163   */\n      dup4\n        /* \"#utility.yul\":9154:9155   */\n      dup2\n        /* \"#utility.yul\":9151:9164   */\n      lt\n        /* \"#utility.yul\":9132:9414   */\n      iszero\n      tag_288\n      jumpi\n        /* \"#utility.yul\":9233:9239   */\n      dup2\n        /* \"#utility.yul\":9227:9240   */\n      mload\n        /* \"#utility.yul\":9260:9321   */\n      tag_289\n        /* \"#utility.yul\":9317:9320   */\n      dup8\n        /* \"#utility.yul\":9302:9315   */\n      dup3\n        /* \"#utility.yul\":9260:9321   */\n      tag_171\n      jump\t// in\n    tag_289:\n        /* \"#utility.yul\":9253:9321   */\n      swap7\n      pop\n        /* \"#utility.yul\":9344:9404   */\n      tag_290\n        /* \"#utility.yul\":9397:9403   */\n      dup4\n        /* \"#utility.yul\":9344:9404   */\n      tag_172\n      jump\t// in\n    tag_290:\n        /* \"#utility.yul\":9334:9404   */\n      swap3\n      pop\n        /* \"#utility.yul\":9192:9414   */\n      pop\n        /* \"#utility.yul\":9179:9180   */\n      0x01\n        /* \"#utility.yul\":9176:9177   */\n      dup2\n        /* \"#utility.yul\":9172:9181   */\n      add\n        /* \"#utility.yul\":9167:9181   */\n      swap1\n      pop\n        /* \"#utility.yul\":9132:9414   */\n      jump(tag_286)\n    tag_288:\n        /* \"#utility.yul\":9136:9150   */\n      pop\n        /* \"#utility.yul\":8833:9421   */\n      pop\n      pop\n      pop\n        /* \"#utility.yul\":8717:9421   */\n      pop\n      pop\n      jump\t// out\n        /* \"#utility.yul\":9427:9752   */\n    tag_27:\n        /* \"#utility.yul\":9570:9574   */\n      0x00\n        /* \"#utility.yul\":9608:9613   */\n      0x9620\n        /* \"#utility.yul\":9597:9606   */\n      dup3\n        /* \"#utility.yul\":9593:9614   */\n      add\n        /* \"#utility.yul\":9585:9614   */\n      swap1\n      pop\n        /* \"#utility.yul\":9624:9745   */\n      tag_292\n        /* \"#utility.yul\":9742:9743   */\n      0x00\n        /* \"#utility.yul\":9731:9740   */\n      dup4\n        /* \"#utility.yul\":9727:9744   */\n      add\n        /* \"#utility.yul\":9718:9724   */\n      dup5\n        /* \"#utility.yul\":9624:9745   */\n      tag_173\n      jump\t// in\n    tag_292:\n        /* \"#utility.yul\":9427:9752   */\n      swap3\n      swap2\n      pop\n      pop\n      jump\t// out\n        /* \"#utility.yul\":9758:10375   */\n    tag_30:\n        /* \"#utility.yul\":9834:9840   */\n      0x00\n        /* \"#utility.yul\":9842:9848   */\n      dup1\n        /* \"#utility.yul\":9850:9856   */\n      0x00\n        /* \"#utility.yul\":9899:9901   */\n      0x60\n        /* \"#utility.yul\":9887:9896   */\n      dup5\n        /* \"#utility.yul\":9878:9885   */\n      dup7\n        /* \"#utility.yul\":9874:9897   */\n      sub\n        /* \"#utility.yul\":9870:9902   */\n      slt\n        /* \"#utility.yul\":9867:9986   */\n      iszero\n      tag_294\n      jumpi\n        /* \"#utility.yul\":9905:9984   */\n      tag_295\n      tag_140\n      jump\t// in\n    tag_295:\n        /* \"#utility.yul\":9867:9986   */\n    tag_294:\n        /* \"#utility.yul\":10025:10026   */\n      0x00\n        /* \"#utility.yul\":10050:10103   */\n      tag_296\n        /* \"#utility.yul\":10095:10102   */\n      dup7\n        /* \"#utility.yul\":10086:10092   */\n      dup3\n        /* \"#utility.yul\":10075:10084   */\n      dup8\n        /* \"#utility.yul\":10071:10093   */\n      add\n        /* \"#utility.yul\":10050:10103   */\n      tag_144\n      jump\t// in\n    tag_296:\n        /* \"#utility.yul\":10040:10103   */\n      swap4\n      pop\n        /* \"#utility.yul\":9996:10113   */\n      pop\n        /* \"#utility.yul\":10152:10154   */\n      0x20\n        /* \"#utility.yul\":10178:10230   */\n      tag_297\n        /* \"#utility.yul\":10222:10229   */\n      dup7\n        /* \"#utility.yul\":10213:10219   */\n      dup3\n        /* \"#utility.yul\":10202:10211   */\n      dup8\n        /* \"#utility.yul\":10198:10220   */\n      add\n        /* \"#utility.yul\":10178:10230   */\n      tag_160\n      jump\t// in\n    tag_297:\n        /* \"#utility.yul\":10168:10230   */\n      swap3\n      pop\n        /* \"#utility.yul\":10123:10240   */\n      pop\n        /* \"#utility.yul\":10279:10281   */\n      0x40\n        /* \"#utility.yul\":10305:10358   */\n      tag_298\n        /* \"#utility.yul\":10350:10357   */\n      dup7\n        /* \"#utility.yul\":10341:10347   */\n      dup3\n        /* \"#utility.yul\":10330:10339   */\n      dup8\n        /* \"#utility.yul\":10326:10348   */\n      add\n        /* \"#utility.yul\":10305:10358   */\n      tag_167\n      jump\t// in\n    tag_298:\n        /* \"#utility.yul\":10295:10358   */\n      swap2\n      pop\n        /* \"#utility.yul\":10250:10368   */\n      pop\n        /* \"#utility.yul\":9758:10375   */\n      swap3\n      pop\n      swap3\n      pop\n      swap3\n      jump\t// out\n        /* \"#utility.yul\":10381:10499   */\n    tag_174:\n        /* \"#utility.yul\":10468:10492   */\n      tag_300\n        /* \"#utility.yul\":10486:10491   */\n      dup2\n        /* \"#utility.yul\":10468:10492   */\n      tag_142\n      jump\t// in\n    tag_300:\n        /* \"#utility.yul\":10463:10466   */\n      dup3\n        /* \"#utility.yul\":10456:10493   */\n      mstore\n        /* \"#utility.yul\":10381:10499   */\n      pop\n      pop\n      jump\t// out\n        /* \"#utility.yul\":10505:10727   */\n    tag_39:\n        /* \"#utility.yul\":10598:10602   */\n      0x00\n        /* \"#utility.yul\":10636:10638   */\n      0x20\n        /* \"#utility.yul\":10625:10634   */\n      dup3\n        /* \"#utility.yul\":10621:10639   */\n      add\n        /* \"#utility.yul\":10613:10639   */\n      swap1\n      pop\n        /* \"#utility.yul\":10649:10720   */\n      tag_302\n        /* \"#utility.yul\":10717:10718   */\n      0x00\n        /* \"#utility.yul\":10706:10715   */\n      dup4\n        /* \"#utility.yul\":10702:10719   */\n      add\n        /* \"#utility.yul\":10693:10699   */\n      dup5\n        /* \"#utility.yul\":10649:10720   */\n      tag_174\n      jump\t// in\n    tag_302:\n        /* \"#utility.yul\":10505:10727   */\n      swap3\n      swap2\n      pop\n      pop\n      jump\t// out\n        /* \"#utility.yul\":10733:10812   */\n    tag_175:\n        /* \"#utility.yul\":10772:10779   */\n      0x00\n        /* \"#utility.yul\":10801:10806   */\n      dup2\n        /* \"#utility.yul\":10790:10806   */\n      swap1\n      pop\n        /* \"#utility.yul\":10733:10812   */\n      swap2\n      swap1\n      pop\n      jump\t// out\n        /* \"#utility.yul\":10818:10975   */\n    tag_176:\n        /* \"#utility.yul\":10923:10968   */\n      tag_305\n        /* \"#utility.yul\":10943:10967   */\n      tag_306\n        /* \"#utility.yul\":10961:10966   */\n      dup3\n        /* \"#utility.yul\":10943:10967   */\n      tag_165\n      jump\t// in\n    tag_306:\n        /* \"#utility.yul\":10923:10968   */\n      tag_175\n      jump\t// in\n    tag_305:\n        /* \"#utility.yul\":10918:10921   */\n      dup3\n        /* \"#utility.yul\":10911:10969   */\n      mstore\n        /* \"#utility.yul\":10818:10975   */\n      pop\n      pop\n      jump\t// out\n        /* \"#utility.yul\":10981:11237   */\n    tag_51:\n        /* \"#utility.yul\":11093:11096   */\n      0x00\n        /* \"#utility.yul\":11108:11183   */\n      tag_308\n        /* \"#utility.yul\":11179:11182   */\n      dup3\n        /* \"#utility.yul\":11170:11176   */\n      dup5\n        /* \"#utility.yul\":11108:11183   */\n      tag_176\n      jump\t// in\n    tag_308:\n        /* \"#utility.yul\":11208:11210   */\n      0x20\n        /* \"#utility.yul\":11203:11206   */\n      dup3\n        /* \"#utility.yul\":11199:11211   */\n      add\n        /* \"#utility.yul\":11192:11211   */\n      swap2\n      pop\n        /* \"#utility.yul\":11228:11231   */\n      dup2\n        /* \"#utility.yul\":11221:11231   */\n      swap1\n      pop\n        /* \"#utility.yul\":10981:11237   */\n      swap3\n      swap2\n      pop\n      pop\n      jump\t// out\n        /* \"#utility.yul\":11243:11391   */\n    tag_177:\n        /* \"#utility.yul\":11345:11356   */\n      0x00\n        /* \"#utility.yul\":11382:11385   */\n      dup2\n        /* \"#utility.yul\":11367:11385   */\n      swap1\n      pop\n        /* \"#utility.yul\":11243:11391   */\n      swap3\n      swap2\n      pop\n      pop\n      jump\t// out\n        /* \"#utility.yul\":11397:11553   */\n    tag_178:\n        /* \"#utility.yul\":11537:11545   */\n      0x666f72416e790000000000000000000000000000000000000000000000000000\n        /* \"#utility.yul\":11533:11534   */\n      0x00\n        /* \"#utility.yul\":11525:11531   */\n      dup3\n        /* \"#utility.yul\":11521:11535   */\n      add\n        /* \"#utility.yul\":11514:11546   */\n      mstore\n        /* \"#utility.yul\":11397:11553   */\n      pop\n      jump\t// out\n        /* \"#utility.yul\":11559:11959   */\n    tag_179:\n        /* \"#utility.yul\":11719:11722   */\n      0x00\n        /* \"#utility.yul\":11740:11824   */\n      tag_312\n        /* \"#utility.yul\":11822:11823   */\n      0x06\n        /* \"#utility.yul\":11817:11820   */\n      dup4\n        /* \"#utility.yul\":11740:11824   */\n      tag_177\n      jump\t// in\n    tag_312:\n        /* \"#utility.yul\":11733:11824   */\n      swap2\n      pop\n        /* \"#utility.yul\":11833:11926   */\n      tag_313\n        /* \"#utility.yul\":11922:11925   */\n      dup3\n        /* \"#utility.yul\":11833:11926   */\n      tag_178\n      jump\t// in\n    tag_313:\n        /* \"#utility.yul\":11951:11952   */\n      0x06\n        /* \"#utility.yul\":11946:11949   */\n      dup3\n        /* \"#utility.yul\":11942:11953   */\n      add\n        /* \"#utility.yul\":11935:11953   */\n      swap1\n      pop\n        /* \"#utility.yul\":11559:11959   */\n      swap2\n      swap1\n      pop\n      jump\t// out\n        /* \"#utility.yul\":11965:12346   */\n    tag_53:\n        /* \"#utility.yul\":12150:12153   */\n      0x00\n        /* \"#utility.yul\":12172:12320   */\n      tag_315\n        /* \"#utility.yul\":12316:12319   */\n      dup3\n        /* \"#utility.yul\":12172:12320   */\n      tag_179\n      jump\t// in\n    tag_315:\n        /* \"#utility.yul\":12165:12320   */\n      swap2\n      pop\n        /* \"#utility.yul\":12337:12340   */\n      dup2\n        /* \"#utility.yul\":12330:12340   */\n      swap1\n      pop\n        /* \"#utility.yul\":11965:12346   */\n      swap2\n      swap1\n      pop\n      jump\t// out\n        /* \"#utility.yul\":12352:12518   */\n    tag_180:\n        /* \"#utility.yul\":12492:12510   */\n      0x6c617374506172746941756374696f6e00000000000000000000000000000000\n        /* \"#utility.yul\":12488:12489   */\n      0x00\n        /* \"#utility.yul\":12480:12486   */\n      dup3\n        /* \"#utility.yul\":12476:12490   */\n      add\n        /* \"#utility.yul\":12469:12511   */\n      mstore\n        /* \"#utility.yul\":12352:12518   */\n      pop\n      jump\t// out\n        /* \"#utility.yul\":12524:12926   */\n    tag_181:\n        /* \"#utility.yul\":12684:12687   */\n      0x00\n        /* \"#utility.yul\":12705:12790   */\n      tag_318\n        /* \"#utility.yul\":12787:12789   */\n      0x10\n        /* \"#utility.yul\":12782:12785   */\n      dup4\n        /* \"#utility.yul\":12705:12790   */\n      tag_177\n      jump\t// in\n    tag_318:\n        /* \"#utility.yul\":12698:12790   */\n      swap2\n      pop\n        /* \"#utility.yul\":12799:12892   */\n      tag_319\n        /* \"#utility.yul\":12888:12891   */\n      dup3\n        /* \"#utility.yul\":12799:12892   */\n      tag_180\n      jump\t// in\n    tag_319:\n        /* \"#utility.yul\":12917:12919   */\n      0x10\n        /* \"#utility.yul\":12912:12915   */\n      dup3\n        /* \"#utility.yul\":12908:12920   */\n      add\n        /* \"#utility.yul\":12901:12920   */\n      swap1\n      pop\n        /* \"#utility.yul\":12524:12926   */\n      swap2\n      swap1\n      pop\n      jump\t// out\n        /* \"#utility.yul\":12932:13313   */\n    tag_59:\n        /* \"#utility.yul\":13117:13120   */\n      0x00\n        /* \"#utility.yul\":13139:13287   */\n      tag_321\n        /* \"#utility.yul\":13283:13286   */\n      dup3\n        /* \"#utility.yul\":13139:13287   */\n      tag_181\n      jump\t// in\n    tag_321:\n        /* \"#utility.yul\":13132:13287   */\n      swap2\n      pop\n        /* \"#utility.yul\":13304:13307   */\n      dup2\n        /* \"#utility.yul\":13297:13307   */\n      swap1\n      pop\n        /* \"#utility.yul\":12932:13313   */\n      swap2\n      swap1\n      pop\n      jump\t// out\n        /* \"#utility.yul\":13319:13483   */\n    tag_182:\n        /* \"#utility.yul\":13459:13475   */\n      0x6c61737453756341756374696f6e000000000000000000000000000000000000\n        /* \"#utility.yul\":13455:13456   */\n      0x00\n        /* \"#utility.yul\":13447:13453   */\n      dup3\n        /* \"#utility.yul\":13443:13457   */\n      add\n        /* \"#utility.yul\":13436:13476   */\n      mstore\n        /* \"#utility.yul\":13319:13483   */\n      pop\n      jump\t// out\n        /* \"#utility.yul\":13489:13891   */\n    tag_183:\n        /* \"#utility.yul\":13649:13652   */\n      0x00\n        /* \"#utility.yul\":13670:13755   */\n      tag_324\n        /* \"#utility.yul\":13752:13754   */\n      0x0e\n        /* \"#utility.yul\":13747:13750   */\n      dup4\n        /* \"#utility.yul\":13670:13755   */\n      tag_177\n      jump\t// in\n    tag_324:\n        /* \"#utility.yul\":13663:13755   */\n      swap2\n      pop\n        /* \"#utility.yul\":13764:13857   */\n      tag_325\n        /* \"#utility.yul\":13853:13856   */\n      dup3\n        /* \"#utility.yul\":13764:13857   */\n      tag_182\n      jump\t// in\n    tag_325:\n        /* \"#utility.yul\":13882:13884   */\n      0x0e\n        /* \"#utility.yul\":13877:13880   */\n      dup3\n        /* \"#utility.yul\":13873:13885   */\n      add\n        /* \"#utility.yul\":13866:13885   */\n      swap1\n      pop\n        /* \"#utility.yul\":13489:13891   */\n      swap2\n      swap1\n      pop\n      jump\t// out\n        /* \"#utility.yul\":13897:14278   */\n    tag_65:\n        /* \"#utility.yul\":14082:14085   */\n      0x00\n        /* \"#utility.yul\":14104:14252   */\n      tag_327\n        /* \"#utility.yul\":14248:14251   */\n      dup3\n        /* \"#utility.yul\":14104:14252   */\n      tag_183\n      jump\t// in\n    tag_327:\n        /* \"#utility.yul\":14097:14252   */\n      swap2\n      pop\n        /* \"#utility.yul\":14269:14272   */\n      dup2\n        /* \"#utility.yul\":14262:14272   */\n      swap1\n      pop\n        /* \"#utility.yul\":13897:14278   */\n      swap2\n      swap1\n      pop\n      jump\t// out\n        /* \"#utility.yul\":14284:14446   */\n    tag_184:\n        /* \"#utility.yul\":14424:14438   */\n      0x6c6173745472616e736665720000000000000000000000000000000000000000\n        /* \"#utility.yul\":14420:14421   */\n      0x00\n        /* \"#utility.yul\":14412:14418   */\n      dup3\n        /* \"#utility.yul\":14408:14422   */\n      add\n        /* \"#utility.yul\":14401:14439   */\n      mstore\n        /* \"#utility.yul\":14284:14446   */\n      pop\n      jump\t// out\n        /* \"#utility.yul\":14452:14854   */\n    tag_185:\n        /* \"#utility.yul\":14612:14615   */\n      0x00\n        /* \"#utility.yul\":14633:14718   */\n      tag_330\n        /* \"#utility.yul\":14715:14717   */\n      0x0c\n        /* \"#utility.yul\":14710:14713   */\n      dup4\n        /* \"#utility.yul\":14633:14718   */\n      tag_177\n      jump\t// in\n    tag_330:\n        /* \"#utility.yul\":14626:14718   */\n      swap2\n      pop\n        /* \"#utility.yul\":14727:14820   */\n      tag_331\n        /* \"#utility.yul\":14816:14819   */\n      dup3\n        /* \"#utility.yul\":14727:14820   */\n      tag_184\n      jump\t// in\n    tag_331:\n        /* \"#utility.yul\":14845:14847   */\n      0x0c\n        /* \"#utility.yul\":14840:14843   */\n      dup3\n        /* \"#utility.yul\":14836:14848   */\n      add\n        /* \"#utility.yul\":14829:14848   */\n      swap1\n      pop\n        /* \"#utility.yul\":14452:14854   */\n      swap2\n      swap1\n      pop\n      jump\t// out\n        /* \"#utility.yul\":14860:15241   */\n    tag_71:\n        /* \"#utility.yul\":15045:15048   */\n      0x00\n        /* \"#utility.yul\":15067:15215   */\n      tag_333\n        /* \"#utility.yul\":15211:15214   */\n      dup3\n        /* \"#utility.yul\":15067:15215   */\n      tag_185\n      jump\t// in\n    tag_333:\n        /* \"#utility.yul\":15060:15215   */\n      swap2\n      pop\n        /* \"#utility.yul\":15232:15235   */\n      dup2\n        /* \"#utility.yul\":15225:15235   */\n      swap1\n      pop\n        /* \"#utility.yul\":14860:15241   */\n      swap2\n      swap1\n      pop\n      jump\t// out\n        /* \"#utility.yul\":15247:15427   */\n    tag_81:\n        /* \"#utility.yul\":15295:15372   */\n      0x4e487b7100000000000000000000000000000000000000000000000000000000\n        /* \"#utility.yul\":15292:15293   */\n      0x00\n        /* \"#utility.yul\":15285:15373   */\n      mstore\n        /* \"#utility.yul\":15392:15396   */\n      0x32\n        /* \"#utility.yul\":15389:15390   */\n      0x04\n        /* \"#utility.yul\":15382:15397   */\n      mstore\n        /* \"#utility.yul\":15416:15420   */\n      0x24\n        /* \"#utility.yul\":15413:15414   */\n      0x00\n        /* \"#utility.yul\":15406:15421   */\n      revert\n        /* \"#utility.yul\":15433:15613   */\n    tag_186:\n        /* \"#utility.yul\":15481:15558   */\n      0x4e487b7100000000000000000000000000000000000000000000000000000000\n        /* \"#utility.yul\":15478:15479   */\n      0x00\n        /* \"#utility.yul\":15471:15559   */\n      mstore\n        /* \"#utility.yul\":15578:15582   */\n      0x11\n        /* \"#utility.yul\":15575:15576   */\n      0x04\n        /* \"#utility.yul\":15568:15583   */\n      mstore\n        /* \"#utility.yul\":15602:15606   */\n      0x24\n        /* \"#utility.yul\":15599:15600   */\n      0x00\n        /* \"#utility.yul\":15592:15607   */\n      revert\n        /* \"#utility.yul\":15619:15820   */\n    tag_87:\n        /* \"#utility.yul\":15658:15661   */\n      0x00\n        /* \"#utility.yul\":15677:15696   */\n      tag_337\n        /* \"#utility.yul\":15694:15695   */\n      dup3\n        /* \"#utility.yul\":15677:15696   */\n      tag_152\n      jump\t// in\n    tag_337:\n        /* \"#utility.yul\":15672:15696   */\n      swap2\n      pop\n        /* \"#utility.yul\":15710:15729   */\n      tag_338\n        /* \"#utility.yul\":15727:15728   */\n      dup4\n        /* \"#utility.yul\":15710:15729   */\n      tag_152\n      jump\t// in\n    tag_338:\n        /* \"#utility.yul\":15705:15729   */\n      swap3\n      pop\n        /* \"#utility.yul\":15752:15753   */\n      dup3\n        /* \"#utility.yul\":15749:15750   */\n      dup3\n        /* \"#utility.yul\":15745:15754   */\n      add\n        /* \"#utility.yul\":15738:15754   */\n      swap1\n      pop\n        /* \"#utility.yul\":15775:15789   */\n      0xffffffffffff\n        /* \"#utility.yul\":15770:15773   */\n      dup2\n        /* \"#utility.yul\":15767:15790   */\n      gt\n        /* \"#utility.yul\":15764:15813   */\n      iszero\n      tag_339\n      jumpi\n        /* \"#utility.yul\":15793:15811   */\n      tag_340\n      tag_186\n      jump\t// in\n    tag_340:\n        /* \"#utility.yul\":15764:15813   */\n    tag_339:\n        /* \"#utility.yul\":15619:15820   */\n      swap3\n      swap2\n      pop\n      pop\n      jump\t// out\n\n    auxdata: 0xa26469706673582212205dd470c0b3eee90e3662760a53190d91ea95ede8e69be1df02f3b9a7b9b72dbe64736f6c63430008140033\n}\n",
				"bytecode": {
					"linkReferences": {},
					"object": "608060405234801561000f575f80fd5b5061166c8061001d5f395ff3fe608060405234801561000f575f80fd5b5060043610610055575f3560e01c8063013cf08b146100595780631e9608a8146100895780638d8caded146100a5578063c34fe703146100c1578063c5301082146100f1575b5f80fd5b610073600480360381019061006e9190610f1b565b61010d565b60405161008091906110c3565b60405180910390f35b6100a3600480360381019061009e91906110dd565b6102ec565b005b6100bf60048036038101906100ba91906111c3565b610425565b005b6100db60048036038101906100d69190611293565b6105a6565b6040516100e89190611355565b60405180910390f35b61010b6004803603810190610106919061136f565b610870565b005b610115610e29565b6103c45f8381526020019081526020015f20604051806101400160405290815f82015f9054906101000a900473ffffffffffffffffffffffffffffffffffffffff1673ffffffffffffffffffffffffffffffffffffffff1673ffffffffffffffffffffffffffffffffffffffff168152602001600182015f9054906101000a900473ffffffffffffffffffffffffffffffffffffffff1673ffffffffffffffffffffffffffffffffffffffff1673ffffffffffffffffffffffffffffffffffffffff1681526020016001820160149054906101000a900461ffff1661ffff1661ffff1681526020016001820160169054906101000a900463ffffffff1663ffffffff1663ffffffff16815260200160018201601a9054906101000a900465ffffffffffff1665ffffffffffff1665ffffffffffff168152602001600282015f9054906101000a900465ffffffffffff1665ffffffffffff1665ffffffffffff1681526020016002820160069054906101000a900460ff161515151581526020016002820160079054906101000a900460ff161515151581526020016002820160089054906101000a900460ff161515151581526020016002820160099054906101000a900460ff1615151515815250509050919050565b8160021015806102fd575060058210155b1561033f57816040517f4961771d00000000000000000000000000000000000000000000000000000000815260040161033691906113ce565b60405180910390fd5b6004820361037a5760016103c45f8381526020019081526020015f2060020160086101000a81548160ff021916908315150217905550610421565b600382036103b55760016103c45f8381526020019081526020015f2060020160096101000a81548160ff021916908315150217905550610420565b600582036103f05760016103c45f8381526020019081526020015f2060020160066101000a81548160ff02191690831515021790555061041f565b60016103c45f8381526020019081526020015f2060020160076101000a81548160ff0219169083151502179055505b5b5b5050565b856103c45f8981526020019081526020015f205f015f6101000a81548173ffffffffffffffffffffffffffffffffffffffff021916908373ffffffffffffffffffffffffffffffffffffffff160217905550846103c45f8981526020019081526020015f206001015f6101000a81548173ffffffffffffffffffffffffffffffffffffffff021916908373ffffffffffffffffffffffffffffffffffffffff160217905550836103c45f8981526020019081526020015f2060010160146101000a81548161ffff021916908361ffff160217905550826103c45f8981526020019081526020015f2060010160166101000a81548163ffffffff021916908363ffffffff160217905550816103c45f8981526020019081526020015f20600101601a6101000a81548165ffffffffffff021916908365ffffffffffff160217905550806103c45f8981526020019081526020015f206002015f6101000a81548165ffffffffffff021916908365ffffffffffff16021790555050505050505050565b6105ae610ec0565b5f826040516020016105c09190611407565b604051602081830303815290604052805190602001209050806040516020016105e890611475565b604051602081830303815290604052805190602001200361067b575f80016104b18060200260405190810160405280929190826104b1801561066e576020028201915f905b82829054906101000a900465ffffffffffff1665ffffffffffff168152602001906006019060208260050104928301926001038202915080841161062d5790505b505050505091505061086b565b8060405160200161068b906114d3565b6040516020818303038152906040528051906020012003610720575f6101e2016104b18060200260405190810160405280929190826104b18015610713576020028201915f905b82829054906101000a900465ffffffffffff1665ffffffffffff16815260200190600601906020826005010492830192600103820291508084116106d25790505b505050505091505061086b565b8060405160200161073090611531565b60405160208183030381529060405280519060200120036107c5575f6102d3016104b18060200260405190810160405280929190826104b180156107b8576020028201915f905b82829054906101000a900465ffffffffffff1665ffffffffffff16815260200190600601906020826005010492830192600103820291508084116107775790505b505050505091505061086b565b806040516020016107d59061158f565b6040516020818303038152906040528051906020012003610869575f60f1016104b18060200260405190810160405280929190826104b1801561085c576020028201915f905b82829054906101000a900465ffffffffffff1665ffffffffffff168152602001906006019060208260050104928301926001038202915080841161081b5790505b505050505091505061086b565b505b919050565b5f816040516020016108829190611407565b6040516020818303038152906040528051906020012090505f849050816040516020016108ae90611475565b604051602081830303815290604052805190602001200361097b57805f80018561ffff166104b181106108e4576108e36115a3565b5b600591828204019190066006026101000a81548165ffffffffffff021916908365ffffffffffff16021790555060015f80015f6104b18110610929576109286115a3565b5b600591828204019190066006028282829054906101000a900465ffffffffffff1661095491906115fd565b92506101000a81548165ffffffffffff021916908365ffffffffffff160217905550610e22565b8160405160200161098b906114d3565b6040516020818303038152906040528051906020012003610b0957805f80018561ffff166104b181106109c1576109c06115a3565b5b600591828204019190066006026101000a81548165ffffffffffff021916908365ffffffffffff16021790555060015f80015f6104b18110610a0657610a056115a3565b5b600591828204019190066006028282829054906101000a900465ffffffffffff16610a3191906115fd565b92506101000a81548165ffffffffffff021916908365ffffffffffff160217905550805f6101e2018561ffff166104b18110610a7057610a6f6115a3565b5b600591828204019190066006026101000a81548165ffffffffffff021916908365ffffffffffff16021790555060015f6101e2015f6104b18110610ab757610ab66115a3565b5b600591828204019190066006028282829054906101000a900465ffffffffffff16610ae291906115fd565b92506101000a81548165ffffffffffff021916908365ffffffffffff160217905550610e21565b81604051602001610b1990611531565b6040516020818303038152906040528051906020012003610c9757805f80018561ffff166104b18110610b4f57610b4e6115a3565b5b600591828204019190066006026101000a81548165ffffffffffff021916908365ffffffffffff16021790555060015f80015f6104b18110610b9457610b936115a3565b5b600591828204019190066006028282829054906101000a900465ffffffffffff16610bbf91906115fd565b92506101000a81548165ffffffffffff021916908365ffffffffffff160217905550805f6102d3018561ffff166104b18110610bfe57610bfd6115a3565b5b600591828204019190066006026101000a81548165ffffffffffff021916908365ffffffffffff16021790555060015f6102d3015f6104b18110610c4557610c446115a3565b5b600591828204019190066006028282829054906101000a900465ffffffffffff16610c7091906115fd565b92506101000a81548165ffffffffffff021916908365ffffffffffff160217905550610e20565b81604051602001610ca79061158f565b6040516020818303038152906040528051906020012003610e1f57805f80018561ffff166104b18110610cdd57610cdc6115a3565b5b600591828204019190066006026101000a81548165ffffffffffff021916908365ffffffffffff16021790555060015f80015f6104b18110610d2257610d216115a3565b5b600591828204019190066006028282829054906101000a900465ffffffffffff16610d4d91906115fd565b92506101000a81548165ffffffffffff021916908365ffffffffffff160217905550805f60f1018561ffff166104b18110610d8b57610d8a6115a3565b5b600591828204019190066006026101000a81548165ffffffffffff021916908365ffffffffffff16021790555060015f60f1015f6104b18110610dd157610dd06115a3565b5b600591828204019190066006028282829054906101000a900465ffffffffffff16610dfc91906115fd565b92506101000a81548165ffffffffffff021916908365ffffffffffff1602179055505b5b5b5b5050505050565b6040518061014001604052805f73ffffffffffffffffffffffffffffffffffffffff1681526020015f73ffffffffffffffffffffffffffffffffffffffff1681526020015f61ffff1681526020015f63ffffffff1681526020015f65ffffffffffff1681526020015f65ffffffffffff1681526020015f151581526020015f151581526020015f151581526020015f151581525090565b6040518061962001604052806104b190602082028036833780820191505090505090565b5f80fd5b5f819050919050565b610efa81610ee8565b8114610f04575f80fd5b50565b5f81359050610f1581610ef1565b92915050565b5f60208284031215610f3057610f2f610ee4565b5b5f610f3d84828501610f07565b91505092915050565b5f73ffffffffffffffffffffffffffffffffffffffff82169050919050565b5f610f6f82610f46565b9050919050565b610f7f81610f65565b82525050565b5f61ffff82169050919050565b610f9b81610f85565b82525050565b5f63ffffffff82169050919050565b610fb981610fa1565b82525050565b5f65ffffffffffff82169050919050565b610fd981610fbf565b82525050565b5f8115159050919050565b610ff381610fdf565b82525050565b61014082015f82015161100e5f850182610f76565b5060208201516110216020850182610f76565b5060408201516110346040850182610f92565b5060608201516110476060850182610fb0565b50608082015161105a6080850182610fd0565b5060a082015161106d60a0850182610fd0565b5060c082015161108060c0850182610fea565b5060e082015161109360e0850182610fea565b506101008201516110a8610100850182610fea565b506101208201516110bd610120850182610fea565b50505050565b5f610140820190506110d75f830184610ff9565b92915050565b5f80604083850312156110f3576110f2610ee4565b5b5f61110085828601610f07565b925050602061111185828601610f07565b9150509250929050565b61112481610f65565b811461112e575f80fd5b50565b5f8135905061113f8161111b565b92915050565b61114e81610f85565b8114611158575f80fd5b50565b5f8135905061116981611145565b92915050565b61117881610fa1565b8114611182575f80fd5b50565b5f813590506111938161116f565b92915050565b6111a281610fbf565b81146111ac575f80fd5b50565b5f813590506111bd81611199565b92915050565b5f805f805f805f60e0888a0312156111de576111dd610ee4565b5b5f6111eb8a828b01610f07565b97505060206111fc8a828b01611131565b965050604061120d8a828b01611131565b955050606061121e8a828b0161115b565b945050608061122f8a828b01611185565b93505060a06112408a828b016111af565b92505060c06112518a828b016111af565b91505092959891949750929550565b5f819050919050565b61127281611260565b811461127c575f80fd5b50565b5f8135905061128d81611269565b92915050565b5f602082840312156112a8576112a7610ee4565b5b5f6112b58482850161127f565b91505092915050565b5f6104b19050919050565b5f81905092915050565b5f819050919050565b5f6112e78383610fd0565b60208301905092915050565b5f602082019050919050565b611308816112be565b61131281846112c9565b925061131d826112d3565b805f5b8381101561134d57815161133487826112dc565b965061133f836112f3565b925050600181019050611320565b505050505050565b5f619620820190506113695f8301846112ff565b92915050565b5f805f6060848603121561138657611385610ee4565b5b5f61139386828701610f07565b93505060206113a48682870161115b565b92505060406113b58682870161127f565b9150509250925092565b6113c881610ee8565b82525050565b5f6020820190506113e15f8301846113bf565b92915050565b5f819050919050565b6114016113fc82611260565b6113e7565b82525050565b5f61141282846113f0565b60208201915081905092915050565b5f81905092915050565b7f666f72416e7900000000000000000000000000000000000000000000000000005f82015250565b5f61145f600683611421565b915061146a8261142b565b600682019050919050565b5f61147f82611453565b9150819050919050565b7f6c617374506172746941756374696f6e000000000000000000000000000000005f82015250565b5f6114bd601083611421565b91506114c882611489565b601082019050919050565b5f6114dd826114b1565b9150819050919050565b7f6c61737453756341756374696f6e0000000000000000000000000000000000005f82015250565b5f61151b600e83611421565b9150611526826114e7565b600e82019050919050565b5f61153b8261150f565b9150819050919050565b7f6c6173745472616e7366657200000000000000000000000000000000000000005f82015250565b5f611579600c83611421565b915061158482611545565b600c82019050919050565b5f6115998261156d565b9150819050919050565b7f4e487b71000000000000000000000000000000000000000000000000000000005f52603260045260245ffd5b7f4e487b71000000000000000000000000000000000000000000000000000000005f52601160045260245ffd5b5f61160782610fbf565b915061161283610fbf565b9250828201905065ffffffffffff8111156116305761162f6115d0565b5b9291505056fea26469706673582212205dd470c0b3eee90e3662760a53190d91ea95ede8e69be1df02f3b9a7b9b72dbe64736f6c63430008140033",
					"opcodes": "PUSH1 0x80 PUSH1 0x40 MSTORE CALLVALUE DUP1 ISZERO PUSH2 0xF JUMPI PUSH0 DUP1 REVERT JUMPDEST POP PUSH2 0x166C DUP1 PUSH2 0x1D PUSH0 CODECOPY PUSH0 RETURN INVALID PUSH1 0x80 PUSH1 0x40 MSTORE CALLVALUE DUP1 ISZERO PUSH2 0xF JUMPI PUSH0 DUP1 REVERT JUMPDEST POP PUSH1 0x4 CALLDATASIZE LT PUSH2 0x55 JUMPI PUSH0 CALLDATALOAD PUSH1 0xE0 SHR DUP1 PUSH4 0x13CF08B EQ PUSH2 0x59 JUMPI DUP1 PUSH4 0x1E9608A8 EQ PUSH2 0x89 JUMPI DUP1 PUSH4 0x8D8CADED EQ PUSH2 0xA5 JUMPI DUP1 PUSH4 0xC34FE703 EQ PUSH2 0xC1 JUMPI DUP1 PUSH4 0xC5301082 EQ PUSH2 0xF1 JUMPI JUMPDEST PUSH0 DUP1 REVERT JUMPDEST PUSH2 0x73 PUSH1 0x4 DUP1 CALLDATASIZE SUB DUP2 ADD SWAP1 PUSH2 0x6E SWAP2 SWAP1 PUSH2 0xF1B JUMP JUMPDEST PUSH2 0x10D JUMP JUMPDEST PUSH1 0x40 MLOAD PUSH2 0x80 SWAP2 SWAP1 PUSH2 0x10C3 JUMP JUMPDEST PUSH1 0x40 MLOAD DUP1 SWAP2 SUB SWAP1 RETURN JUMPDEST PUSH2 0xA3 PUSH1 0x4 DUP1 CALLDATASIZE SUB DUP2 ADD SWAP1 PUSH2 0x9E SWAP2 SWAP1 PUSH2 0x10DD JUMP JUMPDEST PUSH2 0x2EC JUMP JUMPDEST STOP JUMPDEST PUSH2 0xBF PUSH1 0x4 DUP1 CALLDATASIZE SUB DUP2 ADD SWAP1 PUSH2 0xBA SWAP2 SWAP1 PUSH2 0x11C3 JUMP JUMPDEST PUSH2 0x425 JUMP JUMPDEST STOP JUMPDEST PUSH2 0xDB PUSH1 0x4 DUP1 CALLDATASIZE SUB DUP2 ADD SWAP1 PUSH2 0xD6 SWAP2 SWAP1 PUSH2 0x1293 JUMP JUMPDEST PUSH2 0x5A6 JUMP JUMPDEST PUSH1 0x40 MLOAD PUSH2 0xE8 SWAP2 SWAP1 PUSH2 0x1355 JUMP JUMPDEST PUSH1 0x40 MLOAD DUP1 SWAP2 SUB SWAP1 RETURN JUMPDEST PUSH2 0x10B PUSH1 0x4 DUP1 CALLDATASIZE SUB DUP2 ADD SWAP1 PUSH2 0x106 SWAP2 SWAP1 PUSH2 0x136F JUMP JUMPDEST PUSH2 0x870 JUMP JUMPDEST STOP JUMPDEST PUSH2 0x115 PUSH2 0xE29 JUMP JUMPDEST PUSH2 0x3C4 PUSH0 DUP4 DUP2 MSTORE PUSH1 0x20 ADD SWAP1 DUP2 MSTORE PUSH1 0x20 ADD PUSH0 KECCAK256 PUSH1 0x40 MLOAD DUP1 PUSH2 0x140 ADD PUSH1 0x40 MSTORE SWAP1 DUP2 PUSH0 DUP3 ADD PUSH0 SWAP1 SLOAD SWAP1 PUSH2 0x100 EXP SWAP1 DIV PUSH20 0xFFFFFFFFFFFFFFFFFFFFFFFFFFFFFFFFFFFFFFFF AND PUSH20 0xFFFFFFFFFFFFFFFFFFFFFFFFFFFFFFFFFFFFFFFF AND PUSH20 0xFFFFFFFFFFFFFFFFFFFFFFFFFFFFFFFFFFFFFFFF AND DUP2 MSTORE PUSH1 0x20 ADD PUSH1 0x1 DUP3 ADD PUSH0 SWAP1 SLOAD SWAP1 PUSH2 0x100 EXP SWAP1 DIV PUSH20 0xFFFFFFFFFFFFFFFFFFFFFFFFFFFFFFFFFFFFFFFF AND PUSH20 0xFFFFFFFFFFFFFFFFFFFFFFFFFFFFFFFFFFFFFFFF AND PUSH20 0xFFFFFFFFFFFFFFFFFFFFFFFFFFFFFFFFFFFFFFFF AND DUP2 MSTORE PUSH1 0x20 ADD PUSH1 0x1 DUP3 ADD PUSH1 0x14 SWAP1 SLOAD SWAP1 PUSH2 0x100 EXP SWAP1 DIV PUSH2 0xFFFF AND PUSH2 0xFFFF AND PUSH2 0xFFFF AND DUP2 MSTORE PUSH1 0x20 ADD PUSH1 0x1 DUP3 ADD PUSH1 0x16 SWAP1 SLOAD SWAP1 PUSH2 0x100 EXP SWAP1 DIV PUSH4 0xFFFFFFFF AND PUSH4 0xFFFFFFFF AND PUSH4 0xFFFFFFFF AND DUP2 MSTORE PUSH1 0x20 ADD PUSH1 0x1 DUP3 ADD PUSH1 0x1A SWAP1 SLOAD SWAP1 PUSH2 0x100 EXP SWAP1 DIV PUSH6 0xFFFFFFFFFFFF AND PUSH6 0xFFFFFFFFFFFF AND PUSH6 0xFFFFFFFFFFFF AND DUP2 MSTORE PUSH1 0x20 ADD PUSH1 0x2 DUP3 ADD PUSH0 SWAP1 SLOAD SWAP1 PUSH2 0x100 EXP SWAP1 DIV PUSH6 0xFFFFFFFFFFFF AND PUSH6 0xFFFFFFFFFFFF AND PUSH6 0xFFFFFFFFFFFF AND DUP2 MSTORE PUSH1 0x20 ADD PUSH1 0x2 DUP3 ADD PUSH1 0x6 SWAP1 SLOAD SWAP1 PUSH2 0x100 EXP SWAP1 DIV PUSH1 0xFF AND ISZERO ISZERO ISZERO ISZERO DUP2 MSTORE PUSH1 0x20 ADD PUSH1 0x2 DUP3 ADD PUSH1 0x7 SWAP1 SLOAD SWAP1 PUSH2 0x100 EXP SWAP1 DIV PUSH1 0xFF AND ISZERO ISZERO ISZERO ISZERO DUP2 MSTORE PUSH1 0x20 ADD PUSH1 0x2 DUP3 ADD PUSH1 0x8 SWAP1 SLOAD SWAP1 PUSH2 0x100 EXP SWAP1 DIV PUSH1 0xFF AND ISZERO ISZERO ISZERO ISZERO DUP2 MSTORE PUSH1 0x20 ADD PUSH1 0x2 DUP3 ADD PUSH1 0x9 SWAP1 SLOAD SWAP1 PUSH2 0x100 EXP SWAP1 DIV PUSH1 0xFF AND ISZERO ISZERO ISZERO ISZERO DUP2 MSTORE POP POP SWAP1 POP SWAP2 SWAP1 POP JUMP JUMPDEST DUP2 PUSH1 0x2 LT ISZERO DUP1 PUSH2 0x2FD JUMPI POP PUSH1 0x5 DUP3 LT ISZERO JUMPDEST ISZERO PUSH2 0x33F JUMPI DUP2 PUSH1 0x40 MLOAD PUSH32 0x4961771D00000000000000000000000000000000000000000000000000000000 DUP2 MSTORE PUSH1 0x4 ADD PUSH2 0x336 SWAP2 SWAP1 PUSH2 0x13CE JUMP JUMPDEST PUSH1 0x40 MLOAD DUP1 SWAP2 SUB SWAP1 REVERT JUMPDEST PUSH1 0x4 DUP3 SUB PUSH2 0x37A JUMPI PUSH1 0x1 PUSH2 0x3C4 PUSH0 DUP4 DUP2 MSTORE PUSH1 0x20 ADD SWAP1 DUP2 MSTORE PUSH1 0x20 ADD PUSH0 KECCAK256 PUSH1 0x2 ADD PUSH1 0x8 PUSH2 0x100 EXP DUP2 SLOAD DUP2 PUSH1 0xFF MUL NOT AND SWAP1 DUP4 ISZERO ISZERO MUL OR SWAP1 SSTORE POP PUSH2 0x421 JUMP JUMPDEST PUSH1 0x3 DUP3 SUB PUSH2 0x3B5 JUMPI PUSH1 0x1 PUSH2 0x3C4 PUSH0 DUP4 DUP2 MSTORE PUSH1 0x20 ADD SWAP1 DUP2 MSTORE PUSH1 0x20 ADD PUSH0 KECCAK256 PUSH1 0x2 ADD PUSH1 0x9 PUSH2 0x100 EXP DUP2 SLOAD DUP2 PUSH1 0xFF MUL NOT AND SWAP1 DUP4 ISZERO ISZERO MUL OR SWAP1 SSTORE POP PUSH2 0x420 JUMP JUMPDEST PUSH1 0x5 DUP3 SUB PUSH2 0x3F0 JUMPI PUSH1 0x1 PUSH2 0x3C4 PUSH0 DUP4 DUP2 MSTORE PUSH1 0x20 ADD SWAP1 DUP2 MSTORE PUSH1 0x20 ADD PUSH0 KECCAK256 PUSH1 0x2 ADD PUSH1 0x6 PUSH2 0x100 EXP DUP2 SLOAD DUP2 PUSH1 0xFF MUL NOT AND SWAP1 DUP4 ISZERO ISZERO MUL OR SWAP1 SSTORE POP PUSH2 0x41F JUMP JUMPDEST PUSH1 0x1 PUSH2 0x3C4 PUSH0 DUP4 DUP2 MSTORE PUSH1 0x20 ADD SWAP1 DUP2 MSTORE PUSH1 0x20 ADD PUSH0 KECCAK256 PUSH1 0x2 ADD PUSH1 0x7 PUSH2 0x100 EXP DUP2 SLOAD DUP2 PUSH1 0xFF MUL NOT AND SWAP1 DUP4 ISZERO ISZERO MUL OR SWAP1 SSTORE POP JUMPDEST JUMPDEST JUMPDEST POP POP JUMP JUMPDEST DUP6 PUSH2 0x3C4 PUSH0 DUP10 DUP2 MSTORE PUSH1 0x20 ADD SWAP1 DUP2 MSTORE PUSH1 0x20 ADD PUSH0 KECCAK256 PUSH0 ADD PUSH0 PUSH2 0x100 EXP DUP2 SLOAD DUP2 PUSH20 0xFFFFFFFFFFFFFFFFFFFFFFFFFFFFFFFFFFFFFFFF MUL NOT AND SWAP1 DUP4 PUSH20 0xFFFFFFFFFFFFFFFFFFFFFFFFFFFFFFFFFFFFFFFF AND MUL OR SWAP1 SSTORE POP DUP5 PUSH2 0x3C4 PUSH0 DUP10 DUP2 MSTORE PUSH1 0x20 ADD SWAP1 DUP2 MSTORE PUSH1 0x20 ADD PUSH0 KECCAK256 PUSH1 0x1 ADD PUSH0 PUSH2 0x100 EXP DUP2 SLOAD DUP2 PUSH20 0xFFFFFFFFFFFFFFFFFFFFFFFFFFFFFFFFFFFFFFFF MUL NOT AND SWAP1 DUP4 PUSH20 0xFFFFFFFFFFFFFFFFFFFFFFFFFFFFFFFFFFFFFFFF AND MUL OR SWAP1 SSTORE POP DUP4 PUSH2 0x3C4 PUSH0 DUP10 DUP2 MSTORE PUSH1 0x20 ADD SWAP1 DUP2 MSTORE PUSH1 0x20 ADD PUSH0 KECCAK256 PUSH1 0x1 ADD PUSH1 0x14 PUSH2 0x100 EXP DUP2 SLOAD DUP2 PUSH2 0xFFFF MUL NOT AND SWAP1 DUP4 PUSH2 0xFFFF AND MUL OR SWAP1 SSTORE POP DUP3 PUSH2 0x3C4 PUSH0 DUP10 DUP2 MSTORE PUSH1 0x20 ADD SWAP1 DUP2 MSTORE PUSH1 0x20 ADD PUSH0 KECCAK256 PUSH1 0x1 ADD PUSH1 0x16 PUSH2 0x100 EXP DUP2 SLOAD DUP2 PUSH4 0xFFFFFFFF MUL NOT AND SWAP1 DUP4 PUSH4 0xFFFFFFFF AND MUL OR SWAP1 SSTORE POP DUP2 PUSH2 0x3C4 PUSH0 DUP10 DUP2 MSTORE PUSH1 0x20 ADD SWAP1 DUP2 MSTORE PUSH1 0x20 ADD PUSH0 KECCAK256 PUSH1 0x1 ADD PUSH1 0x1A PUSH2 0x100 EXP DUP2 SLOAD DUP2 PUSH6 0xFFFFFFFFFFFF MUL NOT AND SWAP1 DUP4 PUSH6 0xFFFFFFFFFFFF AND MUL OR SWAP1 SSTORE POP DUP1 PUSH2 0x3C4 PUSH0 DUP10 DUP2 MSTORE PUSH1 0x20 ADD SWAP1 DUP2 MSTORE PUSH1 0x20 ADD PUSH0 KECCAK256 PUSH1 0x2 ADD PUSH0 PUSH2 0x100 EXP DUP2 SLOAD DUP2 PUSH6 0xFFFFFFFFFFFF MUL NOT AND SWAP1 DUP4 PUSH6 0xFFFFFFFFFFFF AND MUL OR SWAP1 SSTORE POP POP POP POP POP POP POP POP JUMP JUMPDEST PUSH2 0x5AE PUSH2 0xEC0 JUMP JUMPDEST PUSH0 DUP3 PUSH1 0x40 MLOAD PUSH1 0x20 ADD PUSH2 0x5C0 SWAP2 SWAP1 PUSH2 0x1407 JUMP JUMPDEST PUSH1 0x40 MLOAD PUSH1 0x20 DUP2 DUP4 SUB SUB DUP2 MSTORE SWAP1 PUSH1 0x40 MSTORE DUP1 MLOAD SWAP1 PUSH1 0x20 ADD KECCAK256 SWAP1 POP DUP1 PUSH1 0x40 MLOAD PUSH1 0x20 ADD PUSH2 0x5E8 SWAP1 PUSH2 0x1475 JUMP JUMPDEST PUSH1 0x40 MLOAD PUSH1 0x20 DUP2 DUP4 SUB SUB DUP2 MSTORE SWAP1 PUSH1 0x40 MSTORE DUP1 MLOAD SWAP1 PUSH1 0x20 ADD KECCAK256 SUB PUSH2 0x67B JUMPI PUSH0 DUP1 ADD PUSH2 0x4B1 DUP1 PUSH1 0x20 MUL PUSH1 0x40 MLOAD SWAP1 DUP2 ADD PUSH1 0x40 MSTORE DUP1 SWAP3 SWAP2 SWAP1 DUP3 PUSH2 0x4B1 DUP1 ISZERO PUSH2 0x66E JUMPI PUSH1 0x20 MUL DUP3 ADD SWAP2 PUSH0 SWAP1 JUMPDEST DUP3 DUP3 SWAP1 SLOAD SWAP1 PUSH2 0x100 EXP SWAP1 DIV PUSH6 0xFFFFFFFFFFFF AND PUSH6 0xFFFFFFFFFFFF AND DUP2 MSTORE PUSH1 0x20 ADD SWAP1 PUSH1 0x6 ADD SWAP1 PUSH1 0x20 DUP3 PUSH1 0x5 ADD DIV SWAP3 DUP4 ADD SWAP3 PUSH1 0x1 SUB DUP3 MUL SWAP2 POP DUP1 DUP5 GT PUSH2 0x62D JUMPI SWAP1 POP JUMPDEST POP POP POP POP POP SWAP2 POP POP PUSH2 0x86B JUMP JUMPDEST DUP1 PUSH1 0x40 MLOAD PUSH1 0x20 ADD PUSH2 0x68B SWAP1 PUSH2 0x14D3 JUMP JUMPDEST PUSH1 0x40 MLOAD PUSH1 0x20 DUP2 DUP4 SUB SUB DUP2 MSTORE SWAP1 PUSH1 0x40 MSTORE DUP1 MLOAD SWAP1 PUSH1 0x20 ADD KECCAK256 SUB PUSH2 0x720 JUMPI PUSH0 PUSH2 0x1E2 ADD PUSH2 0x4B1 DUP1 PUSH1 0x20 MUL PUSH1 0x40 MLOAD SWAP1 DUP2 ADD PUSH1 0x40 MSTORE DUP1 SWAP3 SWAP2 SWAP1 DUP3 PUSH2 0x4B1 DUP1 ISZERO PUSH2 0x713 JUMPI PUSH1 0x20 MUL DUP3 ADD SWAP2 PUSH0 SWAP1 JUMPDEST DUP3 DUP3 SWAP1 SLOAD SWAP1 PUSH2 0x100 EXP SWAP1 DIV PUSH6 0xFFFFFFFFFFFF AND PUSH6 0xFFFFFFFFFFFF AND DUP2 MSTORE PUSH1 0x20 ADD SWAP1 PUSH1 0x6 ADD SWAP1 PUSH1 0x20 DUP3 PUSH1 0x5 ADD DIV SWAP3 DUP4 ADD SWAP3 PUSH1 0x1 SUB DUP3 MUL SWAP2 POP DUP1 DUP5 GT PUSH2 0x6D2 JUMPI SWAP1 POP JUMPDEST POP POP POP POP POP SWAP2 POP POP PUSH2 0x86B JUMP JUMPDEST DUP1 PUSH1 0x40 MLOAD PUSH1 0x20 ADD PUSH2 0x730 SWAP1 PUSH2 0x1531 JUMP JUMPDEST PUSH1 0x40 MLOAD PUSH1 0x20 DUP2 DUP4 SUB SUB DUP2 MSTORE SWAP1 PUSH1 0x40 MSTORE DUP1 MLOAD SWAP1 PUSH1 0x20 ADD KECCAK256 SUB PUSH2 0x7C5 JUMPI PUSH0 PUSH2 0x2D3 ADD PUSH2 0x4B1 DUP1 PUSH1 0x20 MUL PUSH1 0x40 MLOAD SWAP1 DUP2 ADD PUSH1 0x40 MSTORE DUP1 SWAP3 SWAP2 SWAP1 DUP3 PUSH2 0x4B1 DUP1 ISZERO PUSH2 0x7B8 JUMPI PUSH1 0x20 MUL DUP3 ADD SWAP2 PUSH0 SWAP1 JUMPDEST DUP3 DUP3 SWAP1 SLOAD SWAP1 PUSH2 0x100 EXP SWAP1 DIV PUSH6 0xFFFFFFFFFFFF AND PUSH6 0xFFFFFFFFFFFF AND DUP2 MSTORE PUSH1 0x20 ADD SWAP1 PUSH1 0x6 ADD SWAP1 PUSH1 0x20 DUP3 PUSH1 0x5 ADD DIV SWAP3 DUP4 ADD SWAP3 PUSH1 0x1 SUB DUP3 MUL SWAP2 POP DUP1 DUP5 GT PUSH2 0x777 JUMPI SWAP1 POP JUMPDEST POP POP POP POP POP SWAP2 POP POP PUSH2 0x86B JUMP JUMPDEST DUP1 PUSH1 0x40 MLOAD PUSH1 0x20 ADD PUSH2 0x7D5 SWAP1 PUSH2 0x158F JUMP JUMPDEST PUSH1 0x40 MLOAD PUSH1 0x20 DUP2 DUP4 SUB SUB DUP2 MSTORE SWAP1 PUSH1 0x40 MSTORE DUP1 MLOAD SWAP1 PUSH1 0x20 ADD KECCAK256 SUB PUSH2 0x869 JUMPI PUSH0 PUSH1 0xF1 ADD PUSH2 0x4B1 DUP1 PUSH1 0x20 MUL PUSH1 0x40 MLOAD SWAP1 DUP2 ADD PUSH1 0x40 MSTORE DUP1 SWAP3 SWAP2 SWAP1 DUP3 PUSH2 0x4B1 DUP1 ISZERO PUSH2 0x85C JUMPI PUSH1 0x20 MUL DUP3 ADD SWAP2 PUSH0 SWAP1 JUMPDEST DUP3 DUP3 SWAP1 SLOAD SWAP1 PUSH2 0x100 EXP SWAP1 DIV PUSH6 0xFFFFFFFFFFFF AND PUSH6 0xFFFFFFFFFFFF AND DUP2 MSTORE PUSH1 0x20 ADD SWAP1 PUSH1 0x6 ADD SWAP1 PUSH1 0x20 DUP3 PUSH1 0x5 ADD DIV SWAP3 DUP4 ADD SWAP3 PUSH1 0x1 SUB DUP3 MUL SWAP2 POP DUP1 DUP5 GT PUSH2 0x81B JUMPI SWAP1 POP JUMPDEST POP POP POP POP POP SWAP2 POP POP PUSH2 0x86B JUMP JUMPDEST POP JUMPDEST SWAP2 SWAP1 POP JUMP JUMPDEST PUSH0 DUP2 PUSH1 0x40 MLOAD PUSH1 0x20 ADD PUSH2 0x882 SWAP2 SWAP1 PUSH2 0x1407 JUMP JUMPDEST PUSH1 0x40 MLOAD PUSH1 0x20 DUP2 DUP4 SUB SUB DUP2 MSTORE SWAP1 PUSH1 0x40 MSTORE DUP1 MLOAD SWAP1 PUSH1 0x20 ADD KECCAK256 SWAP1 POP PUSH0 DUP5 SWAP1 POP DUP2 PUSH1 0x40 MLOAD PUSH1 0x20 ADD PUSH2 0x8AE SWAP1 PUSH2 0x1475 JUMP JUMPDEST PUSH1 0x40 MLOAD PUSH1 0x20 DUP2 DUP4 SUB SUB DUP2 MSTORE SWAP1 PUSH1 0x40 MSTORE DUP1 MLOAD SWAP1 PUSH1 0x20 ADD KECCAK256 SUB PUSH2 0x97B JUMPI DUP1 PUSH0 DUP1 ADD DUP6 PUSH2 0xFFFF AND PUSH2 0x4B1 DUP2 LT PUSH2 0x8E4 JUMPI PUSH2 0x8E3 PUSH2 0x15A3 JUMP JUMPDEST JUMPDEST PUSH1 0x5 SWAP2 DUP3 DUP3 DIV ADD SWAP2 SWAP1 MOD PUSH1 0x6 MUL PUSH2 0x100 EXP DUP2 SLOAD DUP2 PUSH6 0xFFFFFFFFFFFF MUL NOT AND SWAP1 DUP4 PUSH6 0xFFFFFFFFFFFF AND MUL OR SWAP1 SSTORE POP PUSH1 0x1 PUSH0 DUP1 ADD PUSH0 PUSH2 0x4B1 DUP2 LT PUSH2 0x929 JUMPI PUSH2 0x928 PUSH2 0x15A3 JUMP JUMPDEST JUMPDEST PUSH1 0x5 SWAP2 DUP3 DUP3 DIV ADD SWAP2 SWAP1 MOD PUSH1 0x6 MUL DUP3 DUP3 DUP3 SWAP1 SLOAD SWAP1 PUSH2 0x100 EXP SWAP1 DIV PUSH6 0xFFFFFFFFFFFF AND PUSH2 0x954 SWAP2 SWAP1 PUSH2 0x15FD JUMP JUMPDEST SWAP3 POP PUSH2 0x100 EXP DUP2 SLOAD DUP2 PUSH6 0xFFFFFFFFFFFF MUL NOT AND SWAP1 DUP4 PUSH6 0xFFFFFFFFFFFF AND MUL OR SWAP1 SSTORE POP PUSH2 0xE22 JUMP JUMPDEST DUP2 PUSH1 0x40 MLOAD PUSH1 0x20 ADD PUSH2 0x98B SWAP1 PUSH2 0x14D3 JUMP JUMPDEST PUSH1 0x40 MLOAD PUSH1 0x20 DUP2 DUP4 SUB SUB DUP2 MSTORE SWAP1 PUSH1 0x40 MSTORE DUP1 MLOAD SWAP1 PUSH1 0x20 ADD KECCAK256 SUB PUSH2 0xB09 JUMPI DUP1 PUSH0 DUP1 ADD DUP6 PUSH2 0xFFFF AND PUSH2 0x4B1 DUP2 LT PUSH2 0x9C1 JUMPI PUSH2 0x9C0 PUSH2 0x15A3 JUMP JUMPDEST JUMPDEST PUSH1 0x5 SWAP2 DUP3 DUP3 DIV ADD SWAP2 SWAP1 MOD PUSH1 0x6 MUL PUSH2 0x100 EXP DUP2 SLOAD DUP2 PUSH6 0xFFFFFFFFFFFF MUL NOT AND SWAP1 DUP4 PUSH6 0xFFFFFFFFFFFF AND MUL OR SWAP1 SSTORE POP PUSH1 0x1 PUSH0 DUP1 ADD PUSH0 PUSH2 0x4B1 DUP2 LT PUSH2 0xA06 JUMPI PUSH2 0xA05 PUSH2 0x15A3 JUMP JUMPDEST JUMPDEST PUSH1 0x5 SWAP2 DUP3 DUP3 DIV ADD SWAP2 SWAP1 MOD PUSH1 0x6 MUL DUP3 DUP3 DUP3 SWAP1 SLOAD SWAP1 PUSH2 0x100 EXP SWAP1 DIV PUSH6 0xFFFFFFFFFFFF AND PUSH2 0xA31 SWAP2 SWAP1 PUSH2 0x15FD JUMP JUMPDEST SWAP3 POP PUSH2 0x100 EXP DUP2 SLOAD DUP2 PUSH6 0xFFFFFFFFFFFF MUL NOT AND SWAP1 DUP4 PUSH6 0xFFFFFFFFFFFF AND MUL OR SWAP1 SSTORE POP DUP1 PUSH0 PUSH2 0x1E2 ADD DUP6 PUSH2 0xFFFF AND PUSH2 0x4B1 DUP2 LT PUSH2 0xA70 JUMPI PUSH2 0xA6F PUSH2 0x15A3 JUMP JUMPDEST JUMPDEST PUSH1 0x5 SWAP2 DUP3 DUP3 DIV ADD SWAP2 SWAP1 MOD PUSH1 0x6 MUL PUSH2 0x100 EXP DUP2 SLOAD DUP2 PUSH6 0xFFFFFFFFFFFF MUL NOT AND SWAP1 DUP4 PUSH6 0xFFFFFFFFFFFF AND MUL OR SWAP1 SSTORE POP PUSH1 0x1 PUSH0 PUSH2 0x1E2 ADD PUSH0 PUSH2 0x4B1 DUP2 LT PUSH2 0xAB7 JUMPI PUSH2 0xAB6 PUSH2 0x15A3 JUMP JUMPDEST JUMPDEST PUSH1 0x5 SWAP2 DUP3 DUP3 DIV ADD SWAP2 SWAP1 MOD PUSH1 0x6 MUL DUP3 DUP3 DUP3 SWAP1 SLOAD SWAP1 PUSH2 0x100 EXP SWAP1 DIV PUSH6 0xFFFFFFFFFFFF AND PUSH2 0xAE2 SWAP2 SWAP1 PUSH2 0x15FD JUMP JUMPDEST SWAP3 POP PUSH2 0x100 EXP DUP2 SLOAD DUP2 PUSH6 0xFFFFFFFFFFFF MUL NOT AND SWAP1 DUP4 PUSH6 0xFFFFFFFFFFFF AND MUL OR SWAP1 SSTORE POP PUSH2 0xE21 JUMP JUMPDEST DUP2 PUSH1 0x40 MLOAD PUSH1 0x20 ADD PUSH2 0xB19 SWAP1 PUSH2 0x1531 JUMP JUMPDEST PUSH1 0x40 MLOAD PUSH1 0x20 DUP2 DUP4 SUB SUB DUP2 MSTORE SWAP1 PUSH1 0x40 MSTORE DUP1 MLOAD SWAP1 PUSH1 0x20 ADD KECCAK256 SUB PUSH2 0xC97 JUMPI DUP1 PUSH0 DUP1 ADD DUP6 PUSH2 0xFFFF AND PUSH2 0x4B1 DUP2 LT PUSH2 0xB4F JUMPI PUSH2 0xB4E PUSH2 0x15A3 JUMP JUMPDEST JUMPDEST PUSH1 0x5 SWAP2 DUP3 DUP3 DIV ADD SWAP2 SWAP1 MOD PUSH1 0x6 MUL PUSH2 0x100 EXP DUP2 SLOAD DUP2 PUSH6 0xFFFFFFFFFFFF MUL NOT AND SWAP1 DUP4 PUSH6 0xFFFFFFFFFFFF AND MUL OR SWAP1 SSTORE POP PUSH1 0x1 PUSH0 DUP1 ADD PUSH0 PUSH2 0x4B1 DUP2 LT PUSH2 0xB94 JUMPI PUSH2 0xB93 PUSH2 0x15A3 JUMP JUMPDEST JUMPDEST PUSH1 0x5 SWAP2 DUP3 DUP3 DIV ADD SWAP2 SWAP1 MOD PUSH1 0x6 MUL DUP3 DUP3 DUP3 SWAP1 SLOAD SWAP1 PUSH2 0x100 EXP SWAP1 DIV PUSH6 0xFFFFFFFFFFFF AND PUSH2 0xBBF SWAP2 SWAP1 PUSH2 0x15FD JUMP JUMPDEST SWAP3 POP PUSH2 0x100 EXP DUP2 SLOAD DUP2 PUSH6 0xFFFFFFFFFFFF MUL NOT AND SWAP1 DUP4 PUSH6 0xFFFFFFFFFFFF AND MUL OR SWAP1 SSTORE POP DUP1 PUSH0 PUSH2 0x2D3 ADD DUP6 PUSH2 0xFFFF AND PUSH2 0x4B1 DUP2 LT PUSH2 0xBFE JUMPI PUSH2 0xBFD PUSH2 0x15A3 JUMP JUMPDEST JUMPDEST PUSH1 0x5 SWAP2 DUP3 DUP3 DIV ADD SWAP2 SWAP1 MOD PUSH1 0x6 MUL PUSH2 0x100 EXP DUP2 SLOAD DUP2 PUSH6 0xFFFFFFFFFFFF MUL NOT AND SWAP1 DUP4 PUSH6 0xFFFFFFFFFFFF AND MUL OR SWAP1 SSTORE POP PUSH1 0x1 PUSH0 PUSH2 0x2D3 ADD PUSH0 PUSH2 0x4B1 DUP2 LT PUSH2 0xC45 JUMPI PUSH2 0xC44 PUSH2 0x15A3 JUMP JUMPDEST JUMPDEST PUSH1 0x5 SWAP2 DUP3 DUP3 DIV ADD SWAP2 SWAP1 MOD PUSH1 0x6 MUL DUP3 DUP3 DUP3 SWAP1 SLOAD SWAP1 PUSH2 0x100 EXP SWAP1 DIV PUSH6 0xFFFFFFFFFFFF AND PUSH2 0xC70 SWAP2 SWAP1 PUSH2 0x15FD JUMP JUMPDEST SWAP3 POP PUSH2 0x100 EXP DUP2 SLOAD DUP2 PUSH6 0xFFFFFFFFFFFF MUL NOT AND SWAP1 DUP4 PUSH6 0xFFFFFFFFFFFF AND MUL OR SWAP1 SSTORE POP PUSH2 0xE20 JUMP JUMPDEST DUP2 PUSH1 0x40 MLOAD PUSH1 0x20 ADD PUSH2 0xCA7 SWAP1 PUSH2 0x158F JUMP JUMPDEST PUSH1 0x40 MLOAD PUSH1 0x20 DUP2 DUP4 SUB SUB DUP2 MSTORE SWAP1 PUSH1 0x40 MSTORE DUP1 MLOAD SWAP1 PUSH1 0x20 ADD KECCAK256 SUB PUSH2 0xE1F JUMPI DUP1 PUSH0 DUP1 ADD DUP6 PUSH2 0xFFFF AND PUSH2 0x4B1 DUP2 LT PUSH2 0xCDD JUMPI PUSH2 0xCDC PUSH2 0x15A3 JUMP JUMPDEST JUMPDEST PUSH1 0x5 SWAP2 DUP3 DUP3 DIV ADD SWAP2 SWAP1 MOD PUSH1 0x6 MUL PUSH2 0x100 EXP DUP2 SLOAD DUP2 PUSH6 0xFFFFFFFFFFFF MUL NOT AND SWAP1 DUP4 PUSH6 0xFFFFFFFFFFFF AND MUL OR SWAP1 SSTORE POP PUSH1 0x1 PUSH0 DUP1 ADD PUSH0 PUSH2 0x4B1 DUP2 LT PUSH2 0xD22 JUMPI PUSH2 0xD21 PUSH2 0x15A3 JUMP JUMPDEST JUMPDEST PUSH1 0x5 SWAP2 DUP3 DUP3 DIV ADD SWAP2 SWAP1 MOD PUSH1 0x6 MUL DUP3 DUP3 DUP3 SWAP1 SLOAD SWAP1 PUSH2 0x100 EXP SWAP1 DIV PUSH6 0xFFFFFFFFFFFF AND PUSH2 0xD4D SWAP2 SWAP1 PUSH2 0x15FD JUMP JUMPDEST SWAP3 POP PUSH2 0x100 EXP DUP2 SLOAD DUP2 PUSH6 0xFFFFFFFFFFFF MUL NOT AND SWAP1 DUP4 PUSH6 0xFFFFFFFFFFFF AND MUL OR SWAP1 SSTORE POP DUP1 PUSH0 PUSH1 0xF1 ADD DUP6 PUSH2 0xFFFF AND PUSH2 0x4B1 DUP2 LT PUSH2 0xD8B JUMPI PUSH2 0xD8A PUSH2 0x15A3 JUMP JUMPDEST JUMPDEST PUSH1 0x5 SWAP2 DUP3 DUP3 DIV ADD SWAP2 SWAP1 MOD PUSH1 0x6 MUL PUSH2 0x100 EXP DUP2 SLOAD DUP2 PUSH6 0xFFFFFFFFFFFF MUL NOT AND SWAP1 DUP4 PUSH6 0xFFFFFFFFFFFF AND MUL OR SWAP1 SSTORE POP PUSH1 0x1 PUSH0 PUSH1 0xF1 ADD PUSH0 PUSH2 0x4B1 DUP2 LT PUSH2 0xDD1 JUMPI PUSH2 0xDD0 PUSH2 0x15A3 JUMP JUMPDEST JUMPDEST PUSH1 0x5 SWAP2 DUP3 DUP3 DIV ADD SWAP2 SWAP1 MOD PUSH1 0x6 MUL DUP3 DUP3 DUP3 SWAP1 SLOAD SWAP1 PUSH2 0x100 EXP SWAP1 DIV PUSH6 0xFFFFFFFFFFFF AND PUSH2 0xDFC SWAP2 SWAP1 PUSH2 0x15FD JUMP JUMPDEST SWAP3 POP PUSH2 0x100 EXP DUP2 SLOAD DUP2 PUSH6 0xFFFFFFFFFFFF MUL NOT AND SWAP1 DUP4 PUSH6 0xFFFFFFFFFFFF AND MUL OR SWAP1 SSTORE POP JUMPDEST JUMPDEST JUMPDEST JUMPDEST POP POP POP POP POP JUMP JUMPDEST PUSH1 0x40 MLOAD DUP1 PUSH2 0x140 ADD PUSH1 0x40 MSTORE DUP1 PUSH0 PUSH20 0xFFFFFFFFFFFFFFFFFFFFFFFFFFFFFFFFFFFFFFFF AND DUP2 MSTORE PUSH1 0x20 ADD PUSH0 PUSH20 0xFFFFFFFFFFFFFFFFFFFFFFFFFFFFFFFFFFFFFFFF AND DUP2 MSTORE PUSH1 0x20 ADD PUSH0 PUSH2 0xFFFF AND DUP2 MSTORE PUSH1 0x20 ADD PUSH0 PUSH4 0xFFFFFFFF AND DUP2 MSTORE PUSH1 0x20 ADD PUSH0 PUSH6 0xFFFFFFFFFFFF AND DUP2 MSTORE PUSH1 0x20 ADD PUSH0 PUSH6 0xFFFFFFFFFFFF AND DUP2 MSTORE PUSH1 0x20 ADD PUSH0 ISZERO ISZERO DUP2 MSTORE PUSH1 0x20 ADD PUSH0 ISZERO ISZERO DUP2 MSTORE PUSH1 0x20 ADD PUSH0 ISZERO ISZERO DUP2 MSTORE PUSH1 0x20 ADD PUSH0 ISZERO ISZERO DUP2 MSTORE POP SWAP1 JUMP JUMPDEST PUSH1 0x40 MLOAD DUP1 PUSH2 0x9620 ADD PUSH1 0x40 MSTORE DUP1 PUSH2 0x4B1 SWAP1 PUSH1 0x20 DUP3 MUL DUP1 CALLDATASIZE DUP4 CALLDATACOPY DUP1 DUP3 ADD SWAP2 POP POP SWAP1 POP POP SWAP1 JUMP JUMPDEST PUSH0 DUP1 REVERT JUMPDEST PUSH0 DUP2 SWAP1 POP SWAP2 SWAP1 POP JUMP JUMPDEST PUSH2 0xEFA DUP2 PUSH2 0xEE8 JUMP JUMPDEST DUP2 EQ PUSH2 0xF04 JUMPI PUSH0 DUP1 REVERT JUMPDEST POP JUMP JUMPDEST PUSH0 DUP2 CALLDATALOAD SWAP1 POP PUSH2 0xF15 DUP2 PUSH2 0xEF1 JUMP JUMPDEST SWAP3 SWAP2 POP POP JUMP JUMPDEST PUSH0 PUSH1 0x20 DUP3 DUP5 SUB SLT ISZERO PUSH2 0xF30 JUMPI PUSH2 0xF2F PUSH2 0xEE4 JUMP JUMPDEST JUMPDEST PUSH0 PUSH2 0xF3D DUP5 DUP3 DUP6 ADD PUSH2 0xF07 JUMP JUMPDEST SWAP2 POP POP SWAP3 SWAP2 POP POP JUMP JUMPDEST PUSH0 PUSH20 0xFFFFFFFFFFFFFFFFFFFFFFFFFFFFFFFFFFFFFFFF DUP3 AND SWAP1 POP SWAP2 SWAP1 POP JUMP JUMPDEST PUSH0 PUSH2 0xF6F DUP3 PUSH2 0xF46 JUMP JUMPDEST SWAP1 POP SWAP2 SWAP1 POP JUMP JUMPDEST PUSH2 0xF7F DUP2 PUSH2 0xF65 JUMP JUMPDEST DUP3 MSTORE POP POP JUMP JUMPDEST PUSH0 PUSH2 0xFFFF DUP3 AND SWAP1 POP SWAP2 SWAP1 POP JUMP JUMPDEST PUSH2 0xF9B DUP2 PUSH2 0xF85 JUMP JUMPDEST DUP3 MSTORE POP POP JUMP JUMPDEST PUSH0 PUSH4 0xFFFFFFFF DUP3 AND SWAP1 POP SWAP2 SWAP1 POP JUMP JUMPDEST PUSH2 0xFB9 DUP2 PUSH2 0xFA1 JUMP JUMPDEST DUP3 MSTORE POP POP JUMP JUMPDEST PUSH0 PUSH6 0xFFFFFFFFFFFF DUP3 AND SWAP1 POP SWAP2 SWAP1 POP JUMP JUMPDEST PUSH2 0xFD9 DUP2 PUSH2 0xFBF JUMP JUMPDEST DUP3 MSTORE POP POP JUMP JUMPDEST PUSH0 DUP2 ISZERO ISZERO SWAP1 POP SWAP2 SWAP1 POP JUMP JUMPDEST PUSH2 0xFF3 DUP2 PUSH2 0xFDF JUMP JUMPDEST DUP3 MSTORE POP POP JUMP JUMPDEST PUSH2 0x140 DUP3 ADD PUSH0 DUP3 ADD MLOAD PUSH2 0x100E PUSH0 DUP6 ADD DUP3 PUSH2 0xF76 JUMP JUMPDEST POP PUSH1 0x20 DUP3 ADD MLOAD PUSH2 0x1021 PUSH1 0x20 DUP6 ADD DUP3 PUSH2 0xF76 JUMP JUMPDEST POP PUSH1 0x40 DUP3 ADD MLOAD PUSH2 0x1034 PUSH1 0x40 DUP6 ADD DUP3 PUSH2 0xF92 JUMP JUMPDEST POP PUSH1 0x60 DUP3 ADD MLOAD PUSH2 0x1047 PUSH1 0x60 DUP6 ADD DUP3 PUSH2 0xFB0 JUMP JUMPDEST POP PUSH1 0x80 DUP3 ADD MLOAD PUSH2 0x105A PUSH1 0x80 DUP6 ADD DUP3 PUSH2 0xFD0 JUMP JUMPDEST POP PUSH1 0xA0 DUP3 ADD MLOAD PUSH2 0x106D PUSH1 0xA0 DUP6 ADD DUP3 PUSH2 0xFD0 JUMP JUMPDEST POP PUSH1 0xC0 DUP3 ADD MLOAD PUSH2 0x1080 PUSH1 0xC0 DUP6 ADD DUP3 PUSH2 0xFEA JUMP JUMPDEST POP PUSH1 0xE0 DUP3 ADD MLOAD PUSH2 0x1093 PUSH1 0xE0 DUP6 ADD DUP3 PUSH2 0xFEA JUMP JUMPDEST POP PUSH2 0x100 DUP3 ADD MLOAD PUSH2 0x10A8 PUSH2 0x100 DUP6 ADD DUP3 PUSH2 0xFEA JUMP JUMPDEST POP PUSH2 0x120 DUP3 ADD MLOAD PUSH2 0x10BD PUSH2 0x120 DUP6 ADD DUP3 PUSH2 0xFEA JUMP JUMPDEST POP POP POP POP JUMP JUMPDEST PUSH0 PUSH2 0x140 DUP3 ADD SWAP1 POP PUSH2 0x10D7 PUSH0 DUP4 ADD DUP5 PUSH2 0xFF9 JUMP JUMPDEST SWAP3 SWAP2 POP POP JUMP JUMPDEST PUSH0 DUP1 PUSH1 0x40 DUP4 DUP6 SUB SLT ISZERO PUSH2 0x10F3 JUMPI PUSH2 0x10F2 PUSH2 0xEE4 JUMP JUMPDEST JUMPDEST PUSH0 PUSH2 0x1100 DUP6 DUP3 DUP7 ADD PUSH2 0xF07 JUMP JUMPDEST SWAP3 POP POP PUSH1 0x20 PUSH2 0x1111 DUP6 DUP3 DUP7 ADD PUSH2 0xF07 JUMP JUMPDEST SWAP2 POP POP SWAP3 POP SWAP3 SWAP1 POP JUMP JUMPDEST PUSH2 0x1124 DUP2 PUSH2 0xF65 JUMP JUMPDEST DUP2 EQ PUSH2 0x112E JUMPI PUSH0 DUP1 REVERT JUMPDEST POP JUMP JUMPDEST PUSH0 DUP2 CALLDATALOAD SWAP1 POP PUSH2 0x113F DUP2 PUSH2 0x111B JUMP JUMPDEST SWAP3 SWAP2 POP POP JUMP JUMPDEST PUSH2 0x114E DUP2 PUSH2 0xF85 JUMP JUMPDEST DUP2 EQ PUSH2 0x1158 JUMPI PUSH0 DUP1 REVERT JUMPDEST POP JUMP JUMPDEST PUSH0 DUP2 CALLDATALOAD SWAP1 POP PUSH2 0x1169 DUP2 PUSH2 0x1145 JUMP JUMPDEST SWAP3 SWAP2 POP POP JUMP JUMPDEST PUSH2 0x1178 DUP2 PUSH2 0xFA1 JUMP JUMPDEST DUP2 EQ PUSH2 0x1182 JUMPI PUSH0 DUP1 REVERT JUMPDEST POP JUMP JUMPDEST PUSH0 DUP2 CALLDATALOAD SWAP1 POP PUSH2 0x1193 DUP2 PUSH2 0x116F JUMP JUMPDEST SWAP3 SWAP2 POP POP JUMP JUMPDEST PUSH2 0x11A2 DUP2 PUSH2 0xFBF JUMP JUMPDEST DUP2 EQ PUSH2 0x11AC JUMPI PUSH0 DUP1 REVERT JUMPDEST POP JUMP JUMPDEST PUSH0 DUP2 CALLDATALOAD SWAP1 POP PUSH2 0x11BD DUP2 PUSH2 0x1199 JUMP JUMPDEST SWAP3 SWAP2 POP POP JUMP JUMPDEST PUSH0 DUP1 PUSH0 DUP1 PUSH0 DUP1 PUSH0 PUSH1 0xE0 DUP9 DUP11 SUB SLT ISZERO PUSH2 0x11DE JUMPI PUSH2 0x11DD PUSH2 0xEE4 JUMP JUMPDEST JUMPDEST PUSH0 PUSH2 0x11EB DUP11 DUP3 DUP12 ADD PUSH2 0xF07 JUMP JUMPDEST SWAP8 POP POP PUSH1 0x20 PUSH2 0x11FC DUP11 DUP3 DUP12 ADD PUSH2 0x1131 JUMP JUMPDEST SWAP7 POP POP PUSH1 0x40 PUSH2 0x120D DUP11 DUP3 DUP12 ADD PUSH2 0x1131 JUMP JUMPDEST SWAP6 POP POP PUSH1 0x60 PUSH2 0x121E DUP11 DUP3 DUP12 ADD PUSH2 0x115B JUMP JUMPDEST SWAP5 POP POP PUSH1 0x80 PUSH2 0x122F DUP11 DUP3 DUP12 ADD PUSH2 0x1185 JUMP JUMPDEST SWAP4 POP POP PUSH1 0xA0 PUSH2 0x1240 DUP11 DUP3 DUP12 ADD PUSH2 0x11AF JUMP JUMPDEST SWAP3 POP POP PUSH1 0xC0 PUSH2 0x1251 DUP11 DUP3 DUP12 ADD PUSH2 0x11AF JUMP JUMPDEST SWAP2 POP POP SWAP3 SWAP6 SWAP9 SWAP2 SWAP5 SWAP8 POP SWAP3 SWAP6 POP JUMP JUMPDEST PUSH0 DUP2 SWAP1 POP SWAP2 SWAP1 POP JUMP JUMPDEST PUSH2 0x1272 DUP2 PUSH2 0x1260 JUMP JUMPDEST DUP2 EQ PUSH2 0x127C JUMPI PUSH0 DUP1 REVERT JUMPDEST POP JUMP JUMPDEST PUSH0 DUP2 CALLDATALOAD SWAP1 POP PUSH2 0x128D DUP2 PUSH2 0x1269 JUMP JUMPDEST SWAP3 SWAP2 POP POP JUMP JUMPDEST PUSH0 PUSH1 0x20 DUP3 DUP5 SUB SLT ISZERO PUSH2 0x12A8 JUMPI PUSH2 0x12A7 PUSH2 0xEE4 JUMP JUMPDEST JUMPDEST PUSH0 PUSH2 0x12B5 DUP5 DUP3 DUP6 ADD PUSH2 0x127F JUMP JUMPDEST SWAP2 POP POP SWAP3 SWAP2 POP POP JUMP JUMPDEST PUSH0 PUSH2 0x4B1 SWAP1 POP SWAP2 SWAP1 POP JUMP JUMPDEST PUSH0 DUP2 SWAP1 POP SWAP3 SWAP2 POP POP JUMP JUMPDEST PUSH0 DUP2 SWAP1 POP SWAP2 SWAP1 POP JUMP JUMPDEST PUSH0 PUSH2 0x12E7 DUP4 DUP4 PUSH2 0xFD0 JUMP JUMPDEST PUSH1 0x20 DUP4 ADD SWAP1 POP SWAP3 SWAP2 POP POP JUMP JUMPDEST PUSH0 PUSH1 0x20 DUP3 ADD SWAP1 POP SWAP2 SWAP1 POP JUMP JUMPDEST PUSH2 0x1308 DUP2 PUSH2 0x12BE JUMP JUMPDEST PUSH2 0x1312 DUP2 DUP5 PUSH2 0x12C9 JUMP JUMPDEST SWAP3 POP PUSH2 0x131D DUP3 PUSH2 0x12D3 JUMP JUMPDEST DUP1 PUSH0 JUMPDEST DUP4 DUP2 LT ISZERO PUSH2 0x134D JUMPI DUP2 MLOAD PUSH2 0x1334 DUP8 DUP3 PUSH2 0x12DC JUMP JUMPDEST SWAP7 POP PUSH2 0x133F DUP4 PUSH2 0x12F3 JUMP JUMPDEST SWAP3 POP POP PUSH1 0x1 DUP2 ADD SWAP1 POP PUSH2 0x1320 JUMP JUMPDEST POP POP POP POP POP POP JUMP JUMPDEST PUSH0 PUSH2 0x9620 DUP3 ADD SWAP1 POP PUSH2 0x1369 PUSH0 DUP4 ADD DUP5 PUSH2 0x12FF JUMP JUMPDEST SWAP3 SWAP2 POP POP JUMP JUMPDEST PUSH0 DUP1 PUSH0 PUSH1 0x60 DUP5 DUP7 SUB SLT ISZERO PUSH2 0x1386 JUMPI PUSH2 0x1385 PUSH2 0xEE4 JUMP JUMPDEST JUMPDEST PUSH0 PUSH2 0x1393 DUP7 DUP3 DUP8 ADD PUSH2 0xF07 JUMP JUMPDEST SWAP4 POP POP PUSH1 0x20 PUSH2 0x13A4 DUP7 DUP3 DUP8 ADD PUSH2 0x115B JUMP JUMPDEST SWAP3 POP POP PUSH1 0x40 PUSH2 0x13B5 DUP7 DUP3 DUP8 ADD PUSH2 0x127F JUMP JUMPDEST SWAP2 POP POP SWAP3 POP SWAP3 POP SWAP3 JUMP JUMPDEST PUSH2 0x13C8 DUP2 PUSH2 0xEE8 JUMP JUMPDEST DUP3 MSTORE POP POP JUMP JUMPDEST PUSH0 PUSH1 0x20 DUP3 ADD SWAP1 POP PUSH2 0x13E1 PUSH0 DUP4 ADD DUP5 PUSH2 0x13BF JUMP JUMPDEST SWAP3 SWAP2 POP POP JUMP JUMPDEST PUSH0 DUP2 SWAP1 POP SWAP2 SWAP1 POP JUMP JUMPDEST PUSH2 0x1401 PUSH2 0x13FC DUP3 PUSH2 0x1260 JUMP JUMPDEST PUSH2 0x13E7 JUMP JUMPDEST DUP3 MSTORE POP POP JUMP JUMPDEST PUSH0 PUSH2 0x1412 DUP3 DUP5 PUSH2 0x13F0 JUMP JUMPDEST PUSH1 0x20 DUP3 ADD SWAP2 POP DUP2 SWAP1 POP SWAP3 SWAP2 POP POP JUMP JUMPDEST PUSH0 DUP2 SWAP1 POP SWAP3 SWAP2 POP POP JUMP JUMPDEST PUSH32 0x666F72416E790000000000000000000000000000000000000000000000000000 PUSH0 DUP3 ADD MSTORE POP JUMP JUMPDEST PUSH0 PUSH2 0x145F PUSH1 0x6 DUP4 PUSH2 0x1421 JUMP JUMPDEST SWAP2 POP PUSH2 0x146A DUP3 PUSH2 0x142B JUMP JUMPDEST PUSH1 0x6 DUP3 ADD SWAP1 POP SWAP2 SWAP1 POP JUMP JUMPDEST PUSH0 PUSH2 0x147F DUP3 PUSH2 0x1453 JUMP JUMPDEST SWAP2 POP DUP2 SWAP1 POP SWAP2 SWAP1 POP JUMP JUMPDEST PUSH32 0x6C617374506172746941756374696F6E00000000000000000000000000000000 PUSH0 DUP3 ADD MSTORE POP JUMP JUMPDEST PUSH0 PUSH2 0x14BD PUSH1 0x10 DUP4 PUSH2 0x1421 JUMP JUMPDEST SWAP2 POP PUSH2 0x14C8 DUP3 PUSH2 0x1489 JUMP JUMPDEST PUSH1 0x10 DUP3 ADD SWAP1 POP SWAP2 SWAP1 POP JUMP JUMPDEST PUSH0 PUSH2 0x14DD DUP3 PUSH2 0x14B1 JUMP JUMPDEST SWAP2 POP DUP2 SWAP1 POP SWAP2 SWAP1 POP JUMP JUMPDEST PUSH32 0x6C61737453756341756374696F6E000000000000000000000000000000000000 PUSH0 DUP3 ADD MSTORE POP JUMP JUMPDEST PUSH0 PUSH2 0x151B PUSH1 0xE DUP4 PUSH2 0x1421 JUMP JUMPDEST SWAP2 POP PUSH2 0x1526 DUP3 PUSH2 0x14E7 JUMP JUMPDEST PUSH1 0xE DUP3 ADD SWAP1 POP SWAP2 SWAP1 POP JUMP JUMPDEST PUSH0 PUSH2 0x153B DUP3 PUSH2 0x150F JUMP JUMPDEST SWAP2 POP DUP2 SWAP1 POP SWAP2 SWAP1 POP JUMP JUMPDEST PUSH32 0x6C6173745472616E736665720000000000000000000000000000000000000000 PUSH0 DUP3 ADD MSTORE POP JUMP JUMPDEST PUSH0 PUSH2 0x1579 PUSH1 0xC DUP4 PUSH2 0x1421 JUMP JUMPDEST SWAP2 POP PUSH2 0x1584 DUP3 PUSH2 0x1545 JUMP JUMPDEST PUSH1 0xC DUP3 ADD SWAP1 POP SWAP2 SWAP1 POP JUMP JUMPDEST PUSH0 PUSH2 0x1599 DUP3 PUSH2 0x156D JUMP JUMPDEST SWAP2 POP DUP2 SWAP1 POP SWAP2 SWAP1 POP JUMP JUMPDEST PUSH32 0x4E487B7100000000000000000000000000000000000000000000000000000000 PUSH0 MSTORE PUSH1 0x32 PUSH1 0x4 MSTORE PUSH1 0x24 PUSH0 REVERT JUMPDEST PUSH32 0x4E487B7100000000000000000000000000000000000000000000000000000000 PUSH0 MSTORE PUSH1 0x11 PUSH1 0x4 MSTORE PUSH1 0x24 PUSH0 REVERT JUMPDEST PUSH0 PUSH2 0x1607 DUP3 PUSH2 0xFBF JUMP JUMPDEST SWAP2 POP PUSH2 0x1612 DUP4 PUSH2 0xFBF JUMP JUMPDEST SWAP3 POP DUP3 DUP3 ADD SWAP1 POP PUSH6 0xFFFFFFFFFFFF DUP2 GT ISZERO PUSH2 0x1630 JUMPI PUSH2 0x162F PUSH2 0x15D0 JUMP JUMPDEST JUMPDEST SWAP3 SWAP2 POP POP JUMP INVALID LOG2 PUSH5 0x6970667358 0x22 SLT KECCAK256 0x5D 0xD4 PUSH17 0xC0B3EEE90E3662760A53190D91EA95EDE8 0xE6 SWAP12 0xE1 0xDF MUL RETURN 0xB9 0xA7 0xB9 0xB7 0x2D 0xBE PUSH5 0x736F6C6343 STOP ADDMOD EQ STOP CALLER "
				},
				"gasEstimates": {
					"creation": {
						"codeDepositCost": "1148000",
						"executionCost": "1192",
						"totalCost": "1149192"
					},
					"external": {
						"getActivityTimeToken(bytes32)": "infinite",
						"proposals(uint256)": "infinite",
						"setActivityTimeToken(uint256,uint16,bytes32)": "infinite",
						"setProposalCore(uint256,address,address,uint16,uint32,uint48,uint48)": "infinite",
						"setProposalState(uint256,uint256)": "infinite"
					}
				},
				"methodIdentifiers": {
					"getActivityTimeToken(bytes32)": "c34fe703",
					"proposals(uint256)": "013cf08b",
					"setActivityTimeToken(uint256,uint16,bytes32)": "c5301082",
					"setProposalCore(uint256,address,address,uint16,uint32,uint48,uint48)": "8d8caded",
					"setProposalState(uint256,uint256)": "1e9608a8"
				}
			},
			"storageLayout": {
				"storage": [
					{
						"astId": 25,
						"contract": "contracts/storageTokenContractName.sol:storageTCN",
						"label": "activityTimeToken",
						"offset": 0,
						"slot": "0",
						"type": "t_struct(ACTIVITYTIME)22_storage"
					},
					{
						"astId": 51,
						"contract": "contracts/storageTokenContractName.sol:storageTCN",
						"label": "_proposals",
						"offset": 0,
						"slot": "964",
						"type": "t_mapping(t_uint256,t_struct(ProposalCore)46_storage)"
					},
					{
						"astId": 57,
						"contract": "contracts/storageTokenContractName.sol:storageTCN",
						"label": "_votersVote",
						"offset": 0,
						"slot": "965",
						"type": "t_mapping(t_uint256,t_mapping(t_address,t_bytes32))"
					}
				],
				"types": {
					"t_address": {
						"encoding": "inplace",
						"label": "address",
						"numberOfBytes": "20"
					},
					"t_array(t_uint48)1201_storage": {
						"base": "t_uint48",
						"encoding": "inplace",
						"label": "uint48[1201]",
						"numberOfBytes": "7712"
					},
					"t_bool": {
						"encoding": "inplace",
						"label": "bool",
						"numberOfBytes": "1"
					},
					"t_bytes32": {
						"encoding": "inplace",
						"label": "bytes32",
						"numberOfBytes": "32"
					},
					"t_mapping(t_address,t_bytes32)": {
						"encoding": "mapping",
						"key": "t_address",
						"label": "mapping(address => bytes32)",
						"numberOfBytes": "32",
						"value": "t_bytes32"
					},
					"t_mapping(t_uint256,t_mapping(t_address,t_bytes32))": {
						"encoding": "mapping",
						"key": "t_uint256",
						"label": "mapping(uint256 => mapping(address => bytes32))",
						"numberOfBytes": "32",
						"value": "t_mapping(t_address,t_bytes32)"
					},
					"t_mapping(t_uint256,t_struct(ProposalCore)46_storage)": {
						"encoding": "mapping",
						"key": "t_uint256",
						"label": "mapping(uint256 => struct storageTCN.ProposalCore)",
						"numberOfBytes": "32",
						"value": "t_struct(ProposalCore)46_storage"
					},
					"t_struct(ACTIVITYTIME)22_storage": {
						"encoding": "inplace",
						"label": "struct storageTCN.ACTIVITYTIME",
						"members": [
							{
								"astId": 9,
								"contract": "contracts/storageTokenContractName.sol:storageTCN",
								"label": "forAny",
								"offset": 0,
								"slot": "0",
								"type": "t_array(t_uint48)1201_storage"
							},
							{
								"astId": 13,
								"contract": "contracts/storageTokenContractName.sol:storageTCN",
								"label": "lastTransfer",
								"offset": 0,
								"slot": "241",
								"type": "t_array(t_uint48)1201_storage"
							},
							{
								"astId": 17,
								"contract": "contracts/storageTokenContractName.sol:storageTCN",
								"label": "lastPartiAuction",
								"offset": 0,
								"slot": "482",
								"type": "t_array(t_uint48)1201_storage"
							},
							{
								"astId": 21,
								"contract": "contracts/storageTokenContractName.sol:storageTCN",
								"label": "lastSucAuction",
								"offset": 0,
								"slot": "723",
								"type": "t_array(t_uint48)1201_storage"
							}
						],
						"numberOfBytes": "30848"
					},
					"t_struct(ProposalCore)46_storage": {
						"encoding": "inplace",
						"label": "struct storageTCN.ProposalCore",
						"members": [
							{
								"astId": 27,
								"contract": "contracts/storageTokenContractName.sol:storageTCN",
								"label": "proposer",
								"offset": 0,
								"slot": "0",
								"type": "t_address"
							},
							{
								"astId": 29,
								"contract": "contracts/storageTokenContractName.sol:storageTCN",
								"label": "ballotContract",
								"offset": 0,
								"slot": "1",
								"type": "t_address"
							},
							{
								"astId": 31,
								"contract": "contracts/storageTokenContractName.sol:storageTCN",
								"label": "quorum",
								"offset": 20,
								"slot": "1",
								"type": "t_uint16"
							},
							{
								"astId": 33,
								"contract": "contracts/storageTokenContractName.sol:storageTCN",
								"label": "voteDuration",
								"offset": 22,
								"slot": "1",
								"type": "t_uint32"
							},
							{
								"astId": 35,
								"contract": "contracts/storageTokenContractName.sol:storageTCN",
								"label": "voteStart",
								"offset": 26,
								"slot": "1",
								"type": "t_uint48"
							},
							{
								"astId": 37,
								"contract": "contracts/storageTokenContractName.sol:storageTCN",
								"label": "etaSeconds",
								"offset": 0,
								"slot": "2",
								"type": "t_uint48"
							},
							{
								"astId": 39,
								"contract": "contracts/storageTokenContractName.sol:storageTCN",
								"label": "executed",
								"offset": 6,
								"slot": "2",
								"type": "t_bool"
							},
							{
								"astId": 41,
								"contract": "contracts/storageTokenContractName.sol:storageTCN",
								"label": "canceled",
								"offset": 7,
								"slot": "2",
								"type": "t_bool"
							},
							{
								"astId": 43,
								"contract": "contracts/storageTokenContractName.sol:storageTCN",
								"label": "Succeeded",
								"offset": 8,
								"slot": "2",
								"type": "t_bool"
							},
							{
								"astId": 45,
								"contract": "contracts/storageTokenContractName.sol:storageTCN",
								"label": "Defeated",
								"offset": 9,
								"slot": "2",
								"type": "t_bool"
							}
						],
						"numberOfBytes": "96"
					},
					"t_uint16": {
						"encoding": "inplace",
						"label": "uint16",
						"numberOfBytes": "2"
					},
					"t_uint256": {
						"encoding": "inplace",
						"label": "uint256",
						"numberOfBytes": "32"
					},
					"t_uint32": {
						"encoding": "inplace",
						"label": "uint32",
						"numberOfBytes": "4"
					},
					"t_uint48": {
						"encoding": "inplace",
						"label": "uint48",
						"numberOfBytes": "6"
					}
				}
			},
			"userdoc": {
				"kind": "user",
				"methods": {},
				"version": 1
			}
		}
	}
}