{
	"contracts/faykGovernance.sol": {
		"faykGovernance": {
			"abi": [
				{
					"inputs": [],
					"name": "AccessOnlyForThePendig",
					"type": "error"
				},
				{
					"inputs": [
						{
							"internalType": "uint48",
							"name": "reminingTime",
							"type": "uint48"
						}
					],
					"name": "RemainingTimeUntilTheConfirmationDeadline",
					"type": "error"
				},
				{
					"inputs": [
						{
							"internalType": "address",
							"name": "NewGCAddress",
							"type": "address"
						}
					],
					"name": "TheAddressIsNotValidForGC",
					"type": "error"
				},
				{
					"inputs": [
						{
							"internalType": "address",
							"name": "newRAddress",
							"type": "address"
						}
					],
					"name": "TheAddressIsNotValidForRAddress",
					"type": "error"
				},
				{
					"anonymous": false,
					"inputs": [
						{
							"indexed": true,
							"internalType": "address",
							"name": "newCaller",
							"type": "address"
						},
						{
							"indexed": true,
							"internalType": "bytes32",
							"name": "peopleName_satrap",
							"type": "bytes32"
						},
						{
							"indexed": true,
							"internalType": "uint32",
							"name": "roleId",
							"type": "uint32"
						}
					],
					"name": "AnOfficialWasConfirmed",
					"type": "event"
				},
				{
					"anonymous": false,
					"inputs": [
						{
							"indexed": true,
							"internalType": "address",
							"name": "newCaller",
							"type": "address"
						},
						{
							"indexed": true,
							"internalType": "bytes32",
							"name": "peopleName_satrap",
							"type": "bytes32"
						},
						{
							"indexed": true,
							"internalType": "uint32",
							"name": "roleId",
							"type": "uint32"
						}
					],
					"name": "AnOfficialWasElected",
					"type": "event"
				},
				{
					"anonymous": false,
					"inputs": [
						{
							"indexed": true,
							"internalType": "address",
							"name": "GCAddress",
							"type": "address"
						},
						{
							"indexed": true,
							"internalType": "uint32",
							"name": "version",
							"type": "uint32"
						}
					],
					"name": "TheNewGCAddressWasConfirmed",
					"type": "event"
				},
				{
					"anonymous": false,
					"inputs": [
						{
							"indexed": true,
							"internalType": "address",
							"name": "presidentAdd",
							"type": "address"
						},
						{
							"indexed": true,
							"internalType": "uint32",
							"name": "nonce",
							"type": "uint32"
						}
					],
					"name": "TheNewPresidentWasConfirmed",
					"type": "event"
				},
				{
					"anonymous": false,
					"inputs": [
						{
							"indexed": true,
							"internalType": "address",
							"name": "primeMinisterAdd",
							"type": "address"
						},
						{
							"indexed": true,
							"internalType": "uint32",
							"name": "nonce",
							"type": "uint32"
						}
					],
					"name": "TheNewPrimeMinisterWasConfirmed",
					"type": "event"
				},
				{
					"anonymous": false,
					"inputs": [
						{
							"indexed": true,
							"internalType": "address",
							"name": "RepublicAddress",
							"type": "address"
						},
						{
							"indexed": true,
							"internalType": "uint32",
							"name": "version",
							"type": "uint32"
						}
					],
					"name": "TheNewRepublicAddressWasConfirmed",
					"type": "event"
				},
				{
					"anonymous": false,
					"inputs": [
						{
							"indexed": true,
							"internalType": "address",
							"name": "newGCAddress",
							"type": "address"
						}
					],
					"name": "TheNextGCAddressWasElected",
					"type": "event"
				},
				{
					"anonymous": false,
					"inputs": [
						{
							"indexed": true,
							"internalType": "address",
							"name": "newPresidentAdd",
							"type": "address"
						}
					],
					"name": "TheNextPresidentWasElected",
					"type": "event"
				},
				{
					"anonymous": false,
					"inputs": [
						{
							"indexed": true,
							"internalType": "address",
							"name": "newPrimeMinister",
							"type": "address"
						}
					],
					"name": "TheNextPrimeMinisterWasElected",
					"type": "event"
				},
				{
					"anonymous": false,
					"inputs": [
						{
							"indexed": true,
							"internalType": "address",
							"name": "PRAddress",
							"type": "address"
						}
					],
					"name": "TheNextRepublicAddressWasCancelled",
					"type": "event"
				},
				{
					"anonymous": false,
					"inputs": [
						{
							"indexed": true,
							"internalType": "address",
							"name": "newRepublicAddress",
							"type": "address"
						}
					],
					"name": "TheNextRepublicAddressWasElected",
					"type": "event"
				},
				{
					"anonymous": false,
					"inputs": [
						{
							"indexed": true,
							"internalType": "bool",
							"name": "baned",
							"type": "bool"
						},
						{
							"indexed": true,
							"internalType": "bool",
							"name": "done",
							"type": "bool"
						}
					],
					"name": "TheStatusOfBanningAllActivitiesAndDone",
					"type": "event"
				},
				{
					"inputs": [
						{
							"internalType": "address",
							"name": "PRAdress",
							"type": "address"
						}
					],
					"name": "cancelPendingRepublicAddress",
					"outputs": [],
					"stateMutability": "nonpayable",
					"type": "function"
				},
				{
					"inputs": [],
					"name": "getAuthorityAddress",
					"outputs": [
						{
							"internalType": "address",
							"name": "",
							"type": "address"
						}
					],
					"stateMutability": "view",
					"type": "function"
				},
				{
					"inputs": [],
					"name": "getGovernance",
					"outputs": [
						{
							"internalType": "address",
							"name": "",
							"type": "address"
						}
					],
					"stateMutability": "view",
					"type": "function"
				},
				{
					"inputs": [],
					"name": "getPresidentAdd",
					"outputs": [
						{
							"internalType": "address",
							"name": "",
							"type": "address"
						}
					],
					"stateMutability": "view",
					"type": "function"
				},
				{
					"inputs": [],
					"name": "getPresidentBan",
					"outputs": [
						{
							"internalType": "bool",
							"name": "",
							"type": "bool"
						}
					],
					"stateMutability": "view",
					"type": "function"
				},
				{
					"inputs": [],
					"name": "getPrimeMinisterAdd",
					"outputs": [
						{
							"internalType": "address",
							"name": "",
							"type": "address"
						}
					],
					"stateMutability": "view",
					"type": "function"
				},
				{
					"inputs": [],
					"name": "getPrimeMinisterBan",
					"outputs": [
						{
							"internalType": "bool",
							"name": "",
							"type": "bool"
						}
					],
					"stateMutability": "view",
					"type": "function"
				},
				{
					"inputs": [],
					"name": "getRepublicAddress",
					"outputs": [
						{
							"internalType": "address",
							"name": "RG",
							"type": "address"
						}
					],
					"stateMutability": "view",
					"type": "function"
				},
				{
					"inputs": [],
					"name": "getgovernanceVersion",
					"outputs": [
						{
							"internalType": "uint32",
							"name": "",
							"type": "uint32"
						}
					],
					"stateMutability": "view",
					"type": "function"
				},
				{
					"inputs": [
						{
							"internalType": "address",
							"name": "oldCaller",
							"type": "address"
						},
						{
							"internalType": "address",
							"name": "newCaller",
							"type": "address"
						},
						{
							"internalType": "bytes32",
							"name": "peopleName_satrap",
							"type": "bytes32"
						},
						{
							"internalType": "uint32",
							"name": "roleId",
							"type": "uint32"
						},
						{
							"internalType": "uint48",
							"name": "delay",
							"type": "uint48"
						}
					],
					"name": "setCallerInfo",
					"outputs": [],
					"stateMutability": "nonpayable",
					"type": "function"
				},
				{
					"inputs": [
						{
							"internalType": "address",
							"name": "newPresident",
							"type": "address"
						}
					],
					"name": "setPendigPresident",
					"outputs": [],
					"stateMutability": "nonpayable",
					"type": "function"
				},
				{
					"inputs": [
						{
							"internalType": "address",
							"name": "newGCAddress",
							"type": "address"
						}
					],
					"name": "setPendingGovernanceContractAddress",
					"outputs": [],
					"stateMutability": "nonpayable",
					"type": "function"
				},
				{
					"inputs": [
						{
							"internalType": "address",
							"name": "newPM",
							"type": "address"
						}
					],
					"name": "setPendingPrimeMinister",
					"outputs": [],
					"stateMutability": "nonpayable",
					"type": "function"
				},
				{
					"inputs": [
						{
							"internalType": "address",
							"name": "newRAddress",
							"type": "address"
						}
					],
					"name": "setPendingRepublicAddress",
					"outputs": [],
					"stateMutability": "nonpayable",
					"type": "function"
				},
				{
					"inputs": [
						{
							"internalType": "bool",
							"name": "baned",
							"type": "bool"
						}
					],
					"name": "setPresidentBaned",
					"outputs": [],
					"stateMutability": "nonpayable",
					"type": "function"
				},
				{
					"inputs": [
						{
							"internalType": "bool",
							"name": "baned",
							"type": "bool"
						}
					],
					"name": "setPrimeMinister",
					"outputs": [],
					"stateMutability": "nonpayable",
					"type": "function"
				},
				{
					"inputs": [],
					"name": "transferCallerInfo",
					"outputs": [],
					"stateMutability": "nonpayable",
					"type": "function"
				},
				{
					"inputs": [
						{
							"internalType": "address",
							"name": "pendingGCAdd",
							"type": "address"
						}
					],
					"name": "transferGovernanceContractAddress",
					"outputs": [],
					"stateMutability": "nonpayable",
					"type": "function"
				},
				{
					"inputs": [],
					"name": "transferPresident",
					"outputs": [],
					"stateMutability": "nonpayable",
					"type": "function"
				},
				{
					"inputs": [],
					"name": "transferPrimeMinister",
					"outputs": [],
					"stateMutability": "nonpayable",
					"type": "function"
				},
				{
					"inputs": [
						{
							"internalType": "address",
							"name": "RAddress",
							"type": "address"
						}
					],
					"name": "transferRepublicAddress",
					"outputs": [],
					"stateMutability": "nonpayable",
					"type": "function"
				}
			],
			"devdoc": {
				"kind": "dev",
				"methods": {},
				"version": 1
			},
			"evm": {
				"assembly": "    /* \"contracts/faykGovernance.sol\":181:2972  contract faykGovernance is Authority {... */\n  mstore(0x40, 0xa0)\n  callvalue\n  dup1\n  iszero\n  tag_1\n  jumpi\n  0x00\n  dup1\n  revert\ntag_1:\n  pop\n    /* \"contracts/authority.sol\":2629:2638  4400 days */\n  0x16a8c800\n    /* \"contracts/authority.sol\":2611:2626  block.timestamp */\n  timestamp\n    /* \"contracts/authority.sol\":2611:2638  block.timestamp + 4400 days */\n  tag_4\n  swap2\n  swap1\n  tag_5\n  jump\t// in\ntag_4:\n    /* \"contracts/authority.sol\":2584:2639  TimeFirstElection = uint48(block.timestamp + 4400 days) */\n  0xffffffffffff\n  and\n  0x80\n  dup2\n  0xffffffffffff\n  and\n  dup2\n  mstore\n  pop\n  pop\n    /* \"contracts/authority.sol\":2671:2681  msg.sender */\n  caller\n    /* \"contracts/authority.sol\":2650:2660  _president */\n  0x04\n    /* \"contracts/authority.sol\":2650:2668  _president.roleAdd */\n  0x00\n  add\n  0x00\n    /* \"contracts/authority.sol\":2650:2681  _president.roleAdd = msg.sender */\n  0x0100\n  exp\n  dup2\n  sload\n  dup2\n  0xffffffffffffffffffffffffffffffffffffffff\n  mul\n  not\n  and\n  swap1\n  dup4\n  0xffffffffffffffffffffffffffffffffffffffff\n  and\n  mul\n  or\n  swap1\n  sstore\n  pop\n    /* \"contracts/authority.sol\":2692:2702  _president */\n  0x04\n    /* \"contracts/authority.sol\":2692:2708  _president.nonce */\n  0x00\n  add\n  0x15\n    /* \"contracts/authority.sol\":2692:2710  _president.nonce++ */\n  dup2\n  dup2\n  swap1\n  sload\n  swap1\n  0x0100\n  exp\n  swap1\n  div\n  0xffffffff\n  and\n  dup1\n  swap3\n  swap2\n  swap1\n  tag_6\n  swap1\n  tag_7\n  jump\t// in\ntag_6:\n  swap2\n  swap1\n  0x0100\n  exp\n  dup2\n  sload\n  dup2\n  0xffffffff\n  mul\n  not\n  and\n  swap1\n  dup4\n  0xffffffff\n  and\n  mul\n  or\n  swap1\n  sstore\n  pop\n  pop\n    /* \"contracts/faykGovernance.sol\":181:2972  contract faykGovernance is Authority {... */\n  jump(tag_8)\n    /* \"#utility.yul\":7:84   */\ntag_9:\n    /* \"#utility.yul\":44:51   */\n  0x00\n    /* \"#utility.yul\":73:78   */\n  dup2\n    /* \"#utility.yul\":62:78   */\n  swap1\n  pop\n    /* \"#utility.yul\":7:84   */\n  swap2\n  swap1\n  pop\n  jump\t// out\n    /* \"#utility.yul\":90:270   */\ntag_10:\n    /* \"#utility.yul\":138:215   */\n  0x4e487b7100000000000000000000000000000000000000000000000000000000\n    /* \"#utility.yul\":135:136   */\n  0x00\n    /* \"#utility.yul\":128:216   */\n  mstore\n    /* \"#utility.yul\":235:239   */\n  0x11\n    /* \"#utility.yul\":232:233   */\n  0x04\n    /* \"#utility.yul\":225:240   */\n  mstore\n    /* \"#utility.yul\":259:263   */\n  0x24\n    /* \"#utility.yul\":256:257   */\n  0x00\n    /* \"#utility.yul\":249:264   */\n  revert\n    /* \"#utility.yul\":276:467   */\ntag_5:\n    /* \"#utility.yul\":316:319   */\n  0x00\n    /* \"#utility.yul\":335:355   */\n  tag_16\n    /* \"#utility.yul\":353:354   */\n  dup3\n    /* \"#utility.yul\":335:355   */\n  tag_9\n  jump\t// in\ntag_16:\n    /* \"#utility.yul\":330:355   */\n  swap2\n  pop\n    /* \"#utility.yul\":369:389   */\n  tag_17\n    /* \"#utility.yul\":387:388   */\n  dup4\n    /* \"#utility.yul\":369:389   */\n  tag_9\n  jump\t// in\ntag_17:\n    /* \"#utility.yul\":364:389   */\n  swap3\n  pop\n    /* \"#utility.yul\":412:413   */\n  dup3\n    /* \"#utility.yul\":409:410   */\n  dup3\n    /* \"#utility.yul\":405:414   */\n  add\n    /* \"#utility.yul\":398:414   */\n  swap1\n  pop\n    /* \"#utility.yul\":433:436   */\n  dup1\n    /* \"#utility.yul\":430:431   */\n  dup3\n    /* \"#utility.yul\":427:437   */\n  gt\n    /* \"#utility.yul\":424:460   */\n  iszero\n  tag_18\n  jumpi\n    /* \"#utility.yul\":440:458   */\n  tag_19\n  tag_10\n  jump\t// in\ntag_19:\n    /* \"#utility.yul\":424:460   */\ntag_18:\n    /* \"#utility.yul\":276:467   */\n  swap3\n  swap2\n  pop\n  pop\n  jump\t// out\n    /* \"#utility.yul\":473:566   */\ntag_11:\n    /* \"#utility.yul\":509:516   */\n  0x00\n    /* \"#utility.yul\":549:559   */\n  0xffffffff\n    /* \"#utility.yul\":542:547   */\n  dup3\n    /* \"#utility.yul\":538:560   */\n  and\n    /* \"#utility.yul\":527:560   */\n  swap1\n  pop\n    /* \"#utility.yul\":473:566   */\n  swap2\n  swap1\n  pop\n  jump\t// out\n    /* \"#utility.yul\":572:747   */\ntag_7:\n    /* \"#utility.yul\":610:613   */\n  0x00\n    /* \"#utility.yul\":633:656   */\n  tag_22\n    /* \"#utility.yul\":650:655   */\n  dup3\n    /* \"#utility.yul\":633:656   */\n  tag_11\n  jump\t// in\ntag_22:\n    /* \"#utility.yul\":624:656   */\n  swap2\n  pop\n    /* \"#utility.yul\":678:688   */\n  0xffffffff\n    /* \"#utility.yul\":671:676   */\n  dup3\n    /* \"#utility.yul\":668:689   */\n  sub\n    /* \"#utility.yul\":665:712   */\n  tag_23\n  jumpi\n    /* \"#utility.yul\":692:710   */\n  tag_24\n  tag_10\n  jump\t// in\ntag_24:\n    /* \"#utility.yul\":665:712   */\ntag_23:\n    /* \"#utility.yul\":739:740   */\n  0x01\n    /* \"#utility.yul\":732:737   */\n  dup3\n    /* \"#utility.yul\":728:741   */\n  add\n    /* \"#utility.yul\":721:741   */\n  swap1\n  pop\n    /* \"#utility.yul\":572:747   */\n  swap2\n  swap1\n  pop\n  jump\t// out\n    /* \"contracts/faykGovernance.sol\":181:2972  contract faykGovernance is Authority {... */\ntag_8:\n  mload(0x80)\n  codecopy(0x00, dataOffset(sub_0), dataSize(sub_0))\n  0x00\n  assignImmutable(\"0x243d3ba375e91e040b8b9e2bbbb1688b2b311eacea842eebda952071560e7854\")\n  return(0x00, dataSize(sub_0))\nstop\n\nsub_0: assembly {\n        /* \"contracts/faykGovernance.sol\":181:2972  contract faykGovernance is Authority {... */\n      mstore(0x40, 0x80)\n      callvalue\n      dup1\n      iszero\n      tag_1\n      jumpi\n      0x00\n      dup1\n      revert\n    tag_1:\n      pop\n      jumpi(tag_2, lt(calldatasize, 0x04))\n      shr(0xe0, calldataload(0x00))\n      dup1\n      0x6cf106d7\n      gt\n      tag_24\n      jumpi\n      dup1\n      0xc5a1c5c1\n      gt\n      tag_25\n      jumpi\n      dup1\n      0xc5a1c5c1\n      eq\n      tag_18\n      jumpi\n      dup1\n      0xca4cce68\n      eq\n      tag_19\n      jumpi\n      dup1\n      0xcd01cc28\n      eq\n      tag_20\n      jumpi\n      dup1\n      0xe47a9d46\n      eq\n      tag_21\n      jumpi\n      dup1\n      0xe4f3e947\n      eq\n      tag_22\n      jumpi\n      dup1\n      0xee7126c3\n      eq\n      tag_23\n      jumpi\n      jump(tag_2)\n    tag_25:\n      dup1\n      0x6cf106d7\n      eq\n      tag_13\n      jumpi\n      dup1\n      0x9c20fe71\n      eq\n      tag_14\n      jumpi\n      dup1\n      0xa53da00b\n      eq\n      tag_15\n      jumpi\n      dup1\n      0xb5c09c68\n      eq\n      tag_16\n      jumpi\n      dup1\n      0xc387b49c\n      eq\n      tag_17\n      jumpi\n      jump(tag_2)\n    tag_24:\n      dup1\n      0x1f72783a\n      gt\n      tag_26\n      jumpi\n      dup1\n      0x1f72783a\n      eq\n      tag_8\n      jumpi\n      dup1\n      0x289b3c0d\n      eq\n      tag_9\n      jumpi\n      dup1\n      0x52e305de\n      eq\n      tag_10\n      jumpi\n      dup1\n      0x544fa93e\n      eq\n      tag_11\n      jumpi\n      dup1\n      0x66410997\n      eq\n      tag_12\n      jumpi\n      jump(tag_2)\n    tag_26:\n      dup1\n      0x054203bd\n      eq\n      tag_3\n      jumpi\n      dup1\n      0x06e99d93\n      eq\n      tag_4\n      jumpi\n      dup1\n      0x0df4c390\n      eq\n      tag_5\n      jumpi\n      dup1\n      0x14c58b51\n      eq\n      tag_6\n      jumpi\n      dup1\n      0x18074eee\n      eq\n      tag_7\n      jumpi\n    tag_2:\n      0x00\n      dup1\n      revert\n        /* \"contracts/authority.sol\":4553:4805  function setPendigPresident(address newPresident) public onlyRepublic {... */\n    tag_3:\n      tag_27\n      0x04\n      dup1\n      calldatasize\n      sub\n      dup2\n      add\n      swap1\n      tag_28\n      swap2\n      swap1\n      tag_29\n      jump\t// in\n    tag_28:\n      tag_30\n      jump\t// in\n    tag_27:\n      stop\n        /* \"contracts/authority.sol\":7441:7548  function setPrimeMinister(bool baned) public onlyPresident {... */\n    tag_4:\n      tag_31\n      0x04\n      dup1\n      calldatasize\n      sub\n      dup2\n      add\n      swap1\n      tag_32\n      swap2\n      swap1\n      tag_33\n      jump\t// in\n    tag_32:\n      tag_34\n      jump\t// in\n    tag_31:\n      stop\n        /* \"contracts/authority.sol\":4813:5199  function transferPresident() public {... */\n    tag_5:\n      tag_35\n      tag_36\n      jump\t// in\n    tag_35:\n      stop\n        /* \"contracts/faykGovernance.sol\":1952:2608  function setCallerInfo(address oldCaller, address newCaller, bytes32 peopleName_satrap, uint32 roleId, uint48 delay) public onlyPrimeRepublic {... */\n    tag_6:\n      tag_37\n      0x04\n      dup1\n      calldatasize\n      sub\n      dup2\n      add\n      swap1\n      tag_38\n      swap2\n      swap1\n      tag_39\n      jump\t// in\n    tag_38:\n      tag_40\n      jump\t// in\n    tag_37:\n      stop\n        /* \"contracts/authority.sol\":5600:6081  function transferPrimeMinister() public {... */\n    tag_7:\n      tag_41\n      tag_42\n      jump\t// in\n    tag_41:\n      stop\n        /* \"contracts/authority.sol\":2726:3282  function setPendingRepublicAddress(address newRAddress) public onlyRepublic {... */\n    tag_8:\n      tag_43\n      0x04\n      dup1\n      calldatasize\n      sub\n      dup2\n      add\n      swap1\n      tag_44\n      swap2\n      swap1\n      tag_29\n      jump\t// in\n    tag_44:\n      tag_45\n      jump\t// in\n    tag_43:\n      stop\n        /* \"contracts/authority.sol\":7070:7170  function getGovernance() public view returns (address) {... */\n    tag_9:\n      tag_46\n      tag_47\n      jump\t// in\n    tag_46:\n      mload(0x40)\n      tag_48\n      swap2\n      swap1\n      tag_49\n      jump\t// in\n    tag_48:\n      mload(0x40)\n      dup1\n      swap2\n      sub\n      swap1\n      return\n        /* \"contracts/authority.sol\":3928:4302  function cancelPendingRepublicAddress(address PRAdress) public onlyRepublic {... */\n    tag_10:\n      tag_50\n      0x04\n      dup1\n      calldatasize\n      sub\n      dup2\n      add\n      swap1\n      tag_51\n      swap2\n      swap1\n      tag_29\n      jump\t// in\n    tag_51:\n      tag_52\n      jump\t// in\n    tag_50:\n      stop\n        /* \"contracts/authority.sol\":5420:5592  function setPendingPrimeMinister(address newPM) public onlyPresident {... */\n    tag_11:\n      tag_53\n      0x04\n      dup1\n      calldatasize\n      sub\n      dup2\n      add\n      swap1\n      tag_54\n      swap2\n      swap1\n      tag_29\n      jump\t// in\n    tag_54:\n      tag_55\n      jump\t// in\n    tag_53:\n      stop\n        /* \"contracts/authority.sol\":5207:5308  function getPresidentAdd() public view returns (address) {... */\n    tag_12:\n      tag_56\n      tag_57\n      jump\t// in\n    tag_56:\n      mload(0x40)\n      tag_58\n      swap2\n      swap1\n      tag_49\n      jump\t// in\n    tag_58:\n      mload(0x40)\n      dup1\n      swap2\n      sub\n      swap1\n      return\n        /* \"contracts/authority.sol\":5316:5412  function getPresidentBan() public view returns (bool) {... */\n    tag_13:\n      tag_59\n      tag_60\n      jump\t// in\n    tag_59:\n      mload(0x40)\n      tag_61\n      swap2\n      swap1\n      tag_62\n      jump\t// in\n    tag_61:\n      mload(0x40)\n      dup1\n      swap2\n      sub\n      swap1\n      return\n        /* \"contracts/authority.sol\":3290:3920  function transferRepublicAddress(address RAddress) public onlyRepublic {... */\n    tag_14:\n      tag_63\n      0x04\n      dup1\n      calldatasize\n      sub\n      dup2\n      add\n      swap1\n      tag_64\n      swap2\n      swap1\n      tag_29\n      jump\t// in\n    tag_64:\n      tag_65\n      jump\t// in\n    tag_63:\n      stop\n        /* \"contracts/authority.sol\":6089:6198  function getPrimeMinisterAdd() public view returns (address) {... */\n    tag_15:\n      tag_66\n      tag_67\n      jump\t// in\n    tag_66:\n      mload(0x40)\n      tag_68\n      swap2\n      swap1\n      tag_49\n      jump\t// in\n    tag_68:\n      mload(0x40)\n      dup1\n      swap2\n      sub\n      swap1\n      return\n        /* \"contracts/authority.sol\":7290:7433  function setPresidentBaned(bool baned) public onlyRepublic {... */\n    tag_16:\n      tag_69\n      0x04\n      dup1\n      calldatasize\n      sub\n      dup2\n      add\n      swap1\n      tag_70\n      swap2\n      swap1\n      tag_33\n      jump\t// in\n    tag_70:\n      tag_71\n      jump\t// in\n    tag_69:\n      stop\n        /* \"contracts/authority.sol\":7178:7282  function getgovernanceVersion() public view returns (uint32) {... */\n    tag_17:\n      tag_72\n      tag_73\n      jump\t// in\n    tag_72:\n      mload(0x40)\n      tag_74\n      swap2\n      swap1\n      tag_75\n      jump\t// in\n    tag_74:\n      mload(0x40)\n      dup1\n      swap2\n      sub\n      swap1\n      return\n        /* \"contracts/authority.sol\":4310:4424  function getRepublicAddress() public view returns (address RG) {... */\n    tag_18:\n      tag_76\n      tag_77\n      jump\t// in\n    tag_76:\n      mload(0x40)\n      tag_78\n      swap2\n      swap1\n      tag_49\n      jump\t// in\n    tag_78:\n      mload(0x40)\n      dup1\n      swap2\n      sub\n      swap1\n      return\n        /* \"contracts/authority.sol\":6320:6635  function setPendingGovernanceContractAddress(address newGCAddress) public onlyRepublic {... */\n    tag_19:\n      tag_79\n      0x04\n      dup1\n      calldatasize\n      sub\n      dup2\n      add\n      swap1\n      tag_80\n      swap2\n      swap1\n      tag_29\n      jump\t// in\n    tag_80:\n      tag_81\n      jump\t// in\n    tag_79:\n      stop\n        /* \"contracts/faykGovernance.sol\":2620:2964  function transferCallerInfo() public {... */\n    tag_20:\n      tag_82\n      tag_83\n      jump\t// in\n    tag_82:\n      stop\n        /* \"contracts/authority.sol\":4436:4545  function getAuthorityAddress() public view returns (address) {... */\n    tag_21:\n      tag_84\n      tag_85\n      jump\t// in\n    tag_84:\n      mload(0x40)\n      tag_86\n      swap2\n      swap1\n      tag_49\n      jump\t// in\n    tag_86:\n      mload(0x40)\n      dup1\n      swap2\n      sub\n      swap1\n      return\n        /* \"contracts/authority.sol\":6206:6310  function getPrimeMinisterBan() public view returns (bool) {... */\n    tag_22:\n      tag_87\n      tag_88\n      jump\t// in\n    tag_87:\n      mload(0x40)\n      tag_89\n      swap2\n      swap1\n      tag_62\n      jump\t// in\n    tag_89:\n      mload(0x40)\n      dup1\n      swap2\n      sub\n      swap1\n      return\n        /* \"contracts/authority.sol\":6643:7062  function transferGovernanceContractAddress(address pendingGCAdd) public onlyPresident {... */\n    tag_23:\n      tag_90\n      0x04\n      dup1\n      calldatasize\n      sub\n      dup2\n      add\n      swap1\n      tag_91\n      swap2\n      swap1\n      tag_29\n      jump\t// in\n    tag_91:\n      tag_92\n      jump\t// in\n    tag_90:\n      stop\n        /* \"contracts/authority.sol\":4553:4805  function setPendigPresident(address newPresident) public onlyRepublic {... */\n    tag_30:\n        /* \"contracts/authority.sol\":1956:1971  block.timestamp */\n      timestamp\n        /* \"contracts/authority.sol\":1936:1953  TimeFirstElection */\n      immutable(\"0x243d3ba375e91e040b8b9e2bbbb1688b2b311eacea842eebda952071560e7854\")\n        /* \"contracts/authority.sol\":1936:1971  TimeFirstElection < block.timestamp */\n      0xffffffffffff\n      and\n      lt\n        /* \"contracts/authority.sol\":1932:2159  if (TimeFirstElection < block.timestamp) {... */\n      iszero\n      tag_94\n      jumpi\n        /* \"contracts/authority.sol\":2010:2030  getRepublicAddress() */\n      tag_95\n        /* \"contracts/authority.sol\":2010:2028  getRepublicAddress */\n      tag_77\n        /* \"contracts/authority.sol\":2010:2030  getRepublicAddress() */\n      jump\t// in\n    tag_95:\n        /* \"contracts/authority.sol\":1996:2030  msg.sender == getRepublicAddress() */\n      0xffffffffffffffffffffffffffffffffffffffff\n      and\n        /* \"contracts/authority.sol\":1996:2006  msg.sender */\n      caller\n        /* \"contracts/authority.sol\":1996:2030  msg.sender == getRepublicAddress() */\n      0xffffffffffffffffffffffffffffffffffffffff\n      and\n      eq\n        /* \"contracts/authority.sol\":1988:2054  require(msg.sender == getRepublicAddress(), \"Access is not valid\") */\n      tag_96\n      jumpi\n      mload(0x40)\n      0x08c379a000000000000000000000000000000000000000000000000000000000\n      dup2\n      mstore\n      0x04\n      add\n      tag_97\n      swap1\n      tag_98\n      jump\t// in\n    tag_97:\n      mload(0x40)\n      dup1\n      swap2\n      sub\n      swap1\n      revert\n    tag_96:\n        /* \"contracts/authority.sol\":1932:2159  if (TimeFirstElection < block.timestamp) {... */\n      jump(tag_99)\n    tag_94:\n        /* \"contracts/authority.sol\":2096:2113  getPresidentAdd() */\n      tag_100\n        /* \"contracts/authority.sol\":2096:2111  getPresidentAdd */\n      tag_57\n        /* \"contracts/authority.sol\":2096:2113  getPresidentAdd() */\n      jump\t// in\n    tag_100:\n        /* \"contracts/authority.sol\":2082:2113  msg.sender == getPresidentAdd() */\n      0xffffffffffffffffffffffffffffffffffffffff\n      and\n        /* \"contracts/authority.sol\":2082:2092  msg.sender */\n      caller\n        /* \"contracts/authority.sol\":2082:2113  msg.sender == getPresidentAdd() */\n      0xffffffffffffffffffffffffffffffffffffffff\n      and\n      eq\n        /* \"contracts/authority.sol\":2082:2135  msg.sender == getPresidentAdd() && !getPresidentBan() */\n      dup1\n      iszero\n      tag_101\n      jumpi\n      pop\n        /* \"contracts/authority.sol\":2118:2135  getPresidentBan() */\n      tag_102\n        /* \"contracts/authority.sol\":2118:2133  getPresidentBan */\n      tag_60\n        /* \"contracts/authority.sol\":2118:2135  getPresidentBan() */\n      jump\t// in\n    tag_102:\n        /* \"contracts/authority.sol\":2117:2135  !getPresidentBan() */\n      iszero\n        /* \"contracts/authority.sol\":2082:2135  msg.sender == getPresidentAdd() && !getPresidentBan() */\n    tag_101:\n        /* \"contracts/authority.sol\":2074:2159  require(msg.sender == getPresidentAdd() && !getPresidentBan(), \"Access is not valid\") */\n      tag_103\n      jumpi\n      mload(0x40)\n      0x08c379a000000000000000000000000000000000000000000000000000000000\n      dup2\n      mstore\n      0x04\n      add\n      tag_104\n      swap1\n      tag_98\n      jump\t// in\n    tag_104:\n      mload(0x40)\n      dup1\n      swap2\n      sub\n      swap1\n      revert\n    tag_103:\n        /* \"contracts/authority.sol\":1932:2159  if (TimeFirstElection < block.timestamp) {... */\n    tag_99:\n        /* \"contracts/authority.sol\":4653:4665  newPresident */\n      dup1\n        /* \"contracts/authority.sol\":4634:4650  _pendigPresident */\n      0x02\n      0x00\n        /* \"contracts/authority.sol\":4634:4665  _pendigPresident = newPresident */\n      0x0100\n      exp\n      dup2\n      sload\n      dup2\n      0xffffffffffffffffffffffffffffffffffffffff\n      mul\n      not\n      and\n      swap1\n      dup4\n      0xffffffffffffffffffffffffffffffffffffffff\n      and\n      mul\n      or\n      swap1\n      sstore\n      pop\n        /* \"contracts/authority.sol\":4676:4700  _setPresidentBaned(true) */\n      tag_106\n        /* \"contracts/authority.sol\":4695:4699  true */\n      0x01\n        /* \"contracts/authority.sol\":4676:4694  _setPresidentBaned */\n      tag_107\n        /* \"contracts/authority.sol\":4676:4700  _setPresidentBaned(true) */\n      jump\t// in\n    tag_106:\n        /* \"contracts/authority.sol\":4711:4739  _setPrimeMinisterBaned(true) */\n      tag_108\n        /* \"contracts/authority.sol\":4734:4738  true */\n      0x01\n        /* \"contracts/authority.sol\":4711:4733  _setPrimeMinisterBaned */\n      tag_109\n        /* \"contracts/authority.sol\":4711:4739  _setPrimeMinisterBaned(true) */\n      jump\t// in\n    tag_108:\n        /* \"contracts/authority.sol\":4784:4796  newPresident */\n      dup1\n        /* \"contracts/authority.sol\":4757:4797  TheNextPresidentWasElected(newPresident) */\n      0xffffffffffffffffffffffffffffffffffffffff\n      and\n      0x3553f1f7ef0242113266a8d183b621bb87468c99237f36b1150b6ab3d688b686\n      mload(0x40)\n      mload(0x40)\n      dup1\n      swap2\n      sub\n      swap1\n      log2\n        /* \"contracts/authority.sol\":4553:4805  function setPendigPresident(address newPresident) public onlyRepublic {... */\n      pop\n      jump\t// out\n        /* \"contracts/authority.sol\":7441:7548  function setPrimeMinister(bool baned) public onlyPresident {... */\n    tag_34:\n        /* \"contracts/authority.sol\":2247:2264  getPresidentAdd() */\n      tag_111\n        /* \"contracts/authority.sol\":2247:2262  getPresidentAdd */\n      tag_57\n        /* \"contracts/authority.sol\":2247:2264  getPresidentAdd() */\n      jump\t// in\n    tag_111:\n        /* \"contracts/authority.sol\":2233:2264  msg.sender == getPresidentAdd() */\n      0xffffffffffffffffffffffffffffffffffffffff\n      and\n        /* \"contracts/authority.sol\":2233:2243  msg.sender */\n      caller\n        /* \"contracts/authority.sol\":2233:2264  msg.sender == getPresidentAdd() */\n      0xffffffffffffffffffffffffffffffffffffffff\n      and\n      eq\n        /* \"contracts/authority.sol\":2233:2286  msg.sender == getPresidentAdd() && !getPresidentBan() */\n      dup1\n      iszero\n      tag_112\n      jumpi\n      pop\n        /* \"contracts/authority.sol\":2269:2286  getPresidentBan() */\n      tag_113\n        /* \"contracts/authority.sol\":2269:2284  getPresidentBan */\n      tag_60\n        /* \"contracts/authority.sol\":2269:2286  getPresidentBan() */\n      jump\t// in\n    tag_113:\n        /* \"contracts/authority.sol\":2268:2286  !getPresidentBan() */\n      iszero\n        /* \"contracts/authority.sol\":2233:2286  msg.sender == getPresidentAdd() && !getPresidentBan() */\n    tag_112:\n        /* \"contracts/authority.sol\":2225:2310  require(msg.sender == getPresidentAdd() && !getPresidentBan(), \"Access is not valid\") */\n      tag_114\n      jumpi\n      mload(0x40)\n      0x08c379a000000000000000000000000000000000000000000000000000000000\n      dup2\n      mstore\n      0x04\n      add\n      tag_115\n      swap1\n      tag_98\n      jump\t// in\n    tag_115:\n      mload(0x40)\n      dup1\n      swap2\n      sub\n      swap1\n      revert\n    tag_114:\n        /* \"contracts/authority.sol\":7511:7540  _setPrimeMinisterBaned(baned) */\n      tag_117\n        /* \"contracts/authority.sol\":7534:7539  baned */\n      dup2\n        /* \"contracts/authority.sol\":7511:7533  _setPrimeMinisterBaned */\n      tag_109\n        /* \"contracts/authority.sol\":7511:7540  _setPrimeMinisterBaned(baned) */\n      jump\t// in\n    tag_117:\n        /* \"contracts/authority.sol\":7441:7548  function setPrimeMinister(bool baned) public onlyPresident {... */\n      pop\n      jump\t// out\n        /* \"contracts/authority.sol\":4813:5199  function transferPresident() public {... */\n    tag_36:\n        /* \"contracts/authority.sol\":4884:4894  msg.sender */\n      caller\n        /* \"contracts/authority.sol\":4864:4894  _pendigPresident == msg.sender */\n      0xffffffffffffffffffffffffffffffffffffffff\n      and\n        /* \"contracts/authority.sol\":4864:4880  _pendigPresident */\n      0x02\n      0x00\n      swap1\n      sload\n      swap1\n      0x0100\n      exp\n      swap1\n      div\n      0xffffffffffffffffffffffffffffffffffffffff\n      and\n        /* \"contracts/authority.sol\":4864:4894  _pendigPresident == msg.sender */\n      0xffffffffffffffffffffffffffffffffffffffff\n      and\n      sub\n        /* \"contracts/authority.sol\":4860:5191  if (_pendigPresident == msg.sender) {... */\n      tag_119\n      jumpi\n        /* \"contracts/authority.sol\":4918:4934  _pendigPresident */\n      0x02\n      0x00\n        /* \"contracts/authority.sol\":4911:4934  delete _pendigPresident */\n      0x0100\n      exp\n      dup2\n      sload\n      swap1\n      0xffffffffffffffffffffffffffffffffffffffff\n      mul\n      not\n      and\n      swap1\n      sstore\n        /* \"contracts/authority.sol\":4970:4980  msg.sender */\n      caller\n        /* \"contracts/authority.sol\":4949:4959  _president */\n      0x04\n        /* \"contracts/authority.sol\":4949:4967  _president.roleAdd */\n      0x00\n      add\n      0x00\n        /* \"contracts/authority.sol\":4949:4980  _president.roleAdd = msg.sender */\n      0x0100\n      exp\n      dup2\n      sload\n      dup2\n      0xffffffffffffffffffffffffffffffffffffffff\n      mul\n      not\n      and\n      swap1\n      dup4\n      0xffffffffffffffffffffffffffffffffffffffff\n      and\n      mul\n      or\n      swap1\n      sstore\n      pop\n        /* \"contracts/authority.sol\":4995:5005  _president */\n      0x04\n        /* \"contracts/authority.sol\":4995:5011  _president.nonce */\n      0x00\n      add\n      0x15\n        /* \"contracts/authority.sol\":4995:5013  _president.nonce++ */\n      dup2\n      dup2\n      swap1\n      sload\n      swap1\n      0x0100\n      exp\n      swap1\n      div\n      0xffffffff\n      and\n      dup1\n      swap3\n      swap2\n      swap1\n      tag_120\n      swap1\n      tag_121\n      jump\t// in\n    tag_120:\n      swap2\n      swap1\n      0x0100\n      exp\n      dup2\n      sload\n      dup2\n      0xffffffff\n      mul\n      not\n      and\n      swap1\n      dup4\n      0xffffffff\n      and\n      mul\n      or\n      swap1\n      sstore\n      pop\n      pop\n        /* \"contracts/authority.sol\":5028:5053  _setPresidentBaned(false) */\n      tag_122\n        /* \"contracts/authority.sol\":5047:5052  false */\n      0x00\n        /* \"contracts/authority.sol\":5028:5046  _setPresidentBaned */\n      tag_107\n        /* \"contracts/authority.sol\":5028:5053  _setPresidentBaned(false) */\n      jump\t// in\n    tag_122:\n        /* \"contracts/authority.sol\":5123:5133  _president */\n      0x04\n        /* \"contracts/authority.sol\":5123:5139  _president.nonce */\n      0x00\n      add\n      0x15\n      swap1\n      sload\n      swap1\n      0x0100\n      exp\n      swap1\n      div\n      0xffffffff\n      and\n        /* \"contracts/authority.sol\":5075:5140  TheNewPresidentWasConfirmed(_president.roleAdd, _president.nonce) */\n      0xffffffff\n      and\n        /* \"contracts/authority.sol\":5103:5113  _president */\n      0x04\n        /* \"contracts/authority.sol\":5103:5121  _president.roleAdd */\n      0x00\n      add\n      0x00\n      swap1\n      sload\n      swap1\n      0x0100\n      exp\n      swap1\n      div\n      0xffffffffffffffffffffffffffffffffffffffff\n      and\n        /* \"contracts/authority.sol\":5075:5140  TheNewPresidentWasConfirmed(_president.roleAdd, _president.nonce) */\n      0xffffffffffffffffffffffffffffffffffffffff\n      and\n      0x05ad9b3688012cd825c1bfb941e4f5afb2558af6af3deaddf01dbb5e85abdaf9\n      mload(0x40)\n      mload(0x40)\n      dup1\n      swap2\n      sub\n      swap1\n      log3\n        /* \"contracts/authority.sol\":4860:5191  if (_pendigPresident == msg.sender) {... */\n      jump(tag_123)\n    tag_119:\n        /* \"contracts/authority.sol\":5167:5191  AccessOnlyForThePendig() */\n      mload(0x40)\n      0x6c4360f000000000000000000000000000000000000000000000000000000000\n      dup2\n      mstore\n      0x04\n      add\n      mload(0x40)\n      dup1\n      swap2\n      sub\n      swap1\n      revert\n        /* \"contracts/authority.sol\":4860:5191  if (_pendigPresident == msg.sender) {... */\n    tag_123:\n        /* \"contracts/authority.sol\":4813:5199  function transferPresident() public {... */\n      jump\t// out\n        /* \"contracts/faykGovernance.sol\":1952:2608  function setCallerInfo(address oldCaller, address newCaller, bytes32 peopleName_satrap, uint32 roleId, uint48 delay) public onlyPrimeRepublic {... */\n    tag_40:\n        /* \"contracts/faykGovernance.sol\":1711:1726  block.timestamp */\n      timestamp\n        /* \"contracts/faykGovernance.sol\":1691:1708  TimeFirstElection */\n      immutable(\"0x243d3ba375e91e040b8b9e2bbbb1688b2b311eacea842eebda952071560e7854\")\n        /* \"contracts/faykGovernance.sol\":1691:1726  TimeFirstElection < block.timestamp */\n      0xffffffffffff\n      and\n      lt\n        /* \"contracts/faykGovernance.sol\":1687:1922  if (TimeFirstElection < block.timestamp) {... */\n      iszero\n      tag_125\n      jumpi\n        /* \"contracts/faykGovernance.sol\":1765:1785  getRepublicAddress() */\n      tag_126\n        /* \"contracts/faykGovernance.sol\":1765:1783  getRepublicAddress */\n      tag_77\n        /* \"contracts/faykGovernance.sol\":1765:1785  getRepublicAddress() */\n      jump\t// in\n    tag_126:\n        /* \"contracts/faykGovernance.sol\":1751:1785  msg.sender == getRepublicAddress() */\n      0xffffffffffffffffffffffffffffffffffffffff\n      and\n        /* \"contracts/faykGovernance.sol\":1751:1761  msg.sender */\n      caller\n        /* \"contracts/faykGovernance.sol\":1751:1785  msg.sender == getRepublicAddress() */\n      0xffffffffffffffffffffffffffffffffffffffff\n      and\n      eq\n        /* \"contracts/faykGovernance.sol\":1743:1809  require(msg.sender == getRepublicAddress(), \"Access is not valid\") */\n      tag_127\n      jumpi\n      mload(0x40)\n      0x08c379a000000000000000000000000000000000000000000000000000000000\n      dup2\n      mstore\n      0x04\n      add\n      tag_128\n      swap1\n      tag_98\n      jump\t// in\n    tag_128:\n      mload(0x40)\n      dup1\n      swap2\n      sub\n      swap1\n      revert\n    tag_127:\n        /* \"contracts/faykGovernance.sol\":1687:1922  if (TimeFirstElection < block.timestamp) {... */\n      jump(tag_129)\n    tag_125:\n        /* \"contracts/faykGovernance.sol\":1851:1872  getPrimeMinisterAdd() */\n      tag_130\n        /* \"contracts/faykGovernance.sol\":1851:1870  getPrimeMinisterAdd */\n      tag_67\n        /* \"contracts/faykGovernance.sol\":1851:1872  getPrimeMinisterAdd() */\n      jump\t// in\n    tag_130:\n        /* \"contracts/faykGovernance.sol\":1837:1872  msg.sender == getPrimeMinisterAdd() */\n      0xffffffffffffffffffffffffffffffffffffffff\n      and\n        /* \"contracts/faykGovernance.sol\":1837:1847  msg.sender */\n      caller\n        /* \"contracts/faykGovernance.sol\":1837:1872  msg.sender == getPrimeMinisterAdd() */\n      0xffffffffffffffffffffffffffffffffffffffff\n      and\n      eq\n        /* \"contracts/faykGovernance.sol\":1837:1898  msg.sender == getPrimeMinisterAdd() && !getPrimeMinisterBan() */\n      dup1\n      iszero\n      tag_131\n      jumpi\n      pop\n        /* \"contracts/faykGovernance.sol\":1877:1898  getPrimeMinisterBan() */\n      tag_132\n        /* \"contracts/faykGovernance.sol\":1877:1896  getPrimeMinisterBan */\n      tag_88\n        /* \"contracts/faykGovernance.sol\":1877:1898  getPrimeMinisterBan() */\n      jump\t// in\n    tag_132:\n        /* \"contracts/faykGovernance.sol\":1876:1898  !getPrimeMinisterBan() */\n      iszero\n        /* \"contracts/faykGovernance.sol\":1837:1898  msg.sender == getPrimeMinisterAdd() && !getPrimeMinisterBan() */\n    tag_131:\n        /* \"contracts/faykGovernance.sol\":1829:1922  require(msg.sender == getPrimeMinisterAdd() && !getPrimeMinisterBan(), \"Access is not valid\") */\n      tag_133\n      jumpi\n      mload(0x40)\n      0x08c379a000000000000000000000000000000000000000000000000000000000\n      dup2\n      mstore\n      0x04\n      add\n      tag_134\n      swap1\n      tag_98\n      jump\t// in\n    tag_134:\n      mload(0x40)\n      dup1\n      swap2\n      sub\n      swap1\n      revert\n    tag_133:\n        /* \"contracts/faykGovernance.sol\":1687:1922  if (TimeFirstElection < block.timestamp) {... */\n    tag_129:\n        /* \"contracts/faykGovernance.sol\":2130:2131  0 */\n      0x00\n        /* \"contracts/faykGovernance.sol\":2109:2132  oldCaller != address(0) */\n      0xffffffffffffffffffffffffffffffffffffffff\n      and\n        /* \"contracts/faykGovernance.sol\":2109:2118  oldCaller */\n      dup6\n        /* \"contracts/faykGovernance.sol\":2109:2132  oldCaller != address(0) */\n      0xffffffffffffffffffffffffffffffffffffffff\n      and\n      eq\n        /* \"contracts/faykGovernance.sol\":2105:2190  if (oldCaller != address(0)) {... */\n      tag_136\n      jumpi\n        /* \"contracts/faykGovernance.sol\":2156:2167  _callerInfo */\n      0x08\n        /* \"contracts/faykGovernance.sol\":2156:2178  _callerInfo[oldCaller] */\n      0x00\n        /* \"contracts/faykGovernance.sol\":2168:2177  oldCaller */\n      dup7\n        /* \"contracts/faykGovernance.sol\":2156:2178  _callerInfo[oldCaller] */\n      0xffffffffffffffffffffffffffffffffffffffff\n      and\n      0xffffffffffffffffffffffffffffffffffffffff\n      and\n      dup2\n      mstore\n      0x20\n      add\n      swap1\n      dup2\n      mstore\n      0x20\n      add\n      0x00\n      keccak256\n      0x00\n        /* \"contracts/faykGovernance.sol\":2149:2178  delete _callerInfo[oldCaller] */\n      dup1\n      dup3\n      add\n      0x00\n      swap1\n      sstore\n      0x01\n      dup3\n      add\n      exp(0x0100, 0x00)\n      dup2\n      sload\n      swap1\n      0xffffffff\n      mul\n      not\n      and\n      swap1\n      sstore\n      0x01\n      dup3\n      add\n      exp(0x0100, 0x04)\n      dup2\n      sload\n      swap1\n      0xffffffffffff\n      mul\n      not\n      and\n      swap1\n      sstore\n      0x01\n      dup3\n      add\n      exp(0x0100, 0x0a)\n      dup2\n      sload\n      swap1\n      0xffffffffffff\n      mul\n      not\n      and\n      swap1\n      sstore\n      0x01\n      dup3\n      add\n      exp(0x0100, 0x10)\n      dup2\n      sload\n      swap1\n      0xffffffffffff\n      mul\n      not\n      and\n      swap1\n      sstore\n      pop\n      pop\n        /* \"contracts/faykGovernance.sol\":2105:2190  if (oldCaller != address(0)) {... */\n    tag_136:\n        /* \"contracts/faykGovernance.sol\":2249:2266  peopleName_satrap */\n      dup3\n        /* \"contracts/faykGovernance.sol\":2205:2216  _callerInfo */\n      0x08\n        /* \"contracts/faykGovernance.sol\":2205:2227  _callerInfo[newCaller] */\n      0x00\n        /* \"contracts/faykGovernance.sol\":2217:2226  newCaller */\n      dup7\n        /* \"contracts/faykGovernance.sol\":2205:2227  _callerInfo[newCaller] */\n      0xffffffffffffffffffffffffffffffffffffffff\n      and\n      0xffffffffffffffffffffffffffffffffffffffff\n      and\n      dup2\n      mstore\n      0x20\n      add\n      swap1\n      dup2\n      mstore\n      0x20\n      add\n      0x00\n      keccak256\n        /* \"contracts/faykGovernance.sol\":2205:2245  _callerInfo[newCaller].peopleName_satrap */\n      0x00\n      add\n      sload\n        /* \"contracts/faykGovernance.sol\":2205:2266  _callerInfo[newCaller].peopleName_satrap != peopleName_satrap */\n      eq\n      iszero\n        /* \"contracts/faykGovernance.sol\":2205:2309  _callerInfo[newCaller].peopleName_satrap != peopleName_satrap && _callerInfo[newCaller].roleId != roleId */\n      dup1\n      iszero\n      tag_137\n      jumpi\n      pop\n        /* \"contracts/faykGovernance.sol\":2303:2309  roleId */\n      dup2\n        /* \"contracts/faykGovernance.sol\":2270:2309  _callerInfo[newCaller].roleId != roleId */\n      0xffffffff\n      and\n        /* \"contracts/faykGovernance.sol\":2270:2281  _callerInfo */\n      0x08\n        /* \"contracts/faykGovernance.sol\":2270:2292  _callerInfo[newCaller] */\n      0x00\n        /* \"contracts/faykGovernance.sol\":2282:2291  newCaller */\n      dup7\n        /* \"contracts/faykGovernance.sol\":2270:2292  _callerInfo[newCaller] */\n      0xffffffffffffffffffffffffffffffffffffffff\n      and\n      0xffffffffffffffffffffffffffffffffffffffff\n      and\n      dup2\n      mstore\n      0x20\n      add\n      swap1\n      dup2\n      mstore\n      0x20\n      add\n      0x00\n      keccak256\n        /* \"contracts/faykGovernance.sol\":2270:2299  _callerInfo[newCaller].roleId */\n      0x01\n      add\n      0x00\n      swap1\n      sload\n      swap1\n      0x0100\n      exp\n      swap1\n      div\n      0xffffffff\n      and\n        /* \"contracts/faykGovernance.sol\":2270:2309  _callerInfo[newCaller].roleId != roleId */\n      0xffffffff\n      and\n      eq\n      iszero\n        /* \"contracts/faykGovernance.sol\":2205:2309  _callerInfo[newCaller].peopleName_satrap != peopleName_satrap && _callerInfo[newCaller].roleId != roleId */\n    tag_137:\n        /* \"contracts/faykGovernance.sol\":2201:2601  if (_callerInfo[newCaller].peopleName_satrap != peopleName_satrap && _callerInfo[newCaller].roleId != roleId) {... */\n      iszero\n      tag_138\n      jumpi\n        /* \"contracts/faykGovernance.sol\":2371:2388  peopleName_satrap */\n      dup3\n        /* \"contracts/faykGovernance.sol\":2328:2339  _callerInfo */\n      0x08\n        /* \"contracts/faykGovernance.sol\":2328:2350  _callerInfo[newCaller] */\n      0x00\n        /* \"contracts/faykGovernance.sol\":2340:2349  newCaller */\n      dup7\n        /* \"contracts/faykGovernance.sol\":2328:2350  _callerInfo[newCaller] */\n      0xffffffffffffffffffffffffffffffffffffffff\n      and\n      0xffffffffffffffffffffffffffffffffffffffff\n      and\n      dup2\n      mstore\n      0x20\n      add\n      swap1\n      dup2\n      mstore\n      0x20\n      add\n      0x00\n      keccak256\n        /* \"contracts/faykGovernance.sol\":2328:2368  _callerInfo[newCaller].peopleName_satrap */\n      0x00\n      add\n        /* \"contracts/faykGovernance.sol\":2328:2388  _callerInfo[newCaller].peopleName_satrap = peopleName_satrap */\n      dup2\n      swap1\n      sstore\n      pop\n        /* \"contracts/faykGovernance.sol\":2435:2441  roleId */\n      dup2\n        /* \"contracts/faykGovernance.sol\":2403:2414  _callerInfo */\n      0x08\n        /* \"contracts/faykGovernance.sol\":2403:2425  _callerInfo[newCaller] */\n      0x00\n        /* \"contracts/faykGovernance.sol\":2415:2424  newCaller */\n      dup7\n        /* \"contracts/faykGovernance.sol\":2403:2425  _callerInfo[newCaller] */\n      0xffffffffffffffffffffffffffffffffffffffff\n      and\n      0xffffffffffffffffffffffffffffffffffffffff\n      and\n      dup2\n      mstore\n      0x20\n      add\n      swap1\n      dup2\n      mstore\n      0x20\n      add\n      0x00\n      keccak256\n        /* \"contracts/faykGovernance.sol\":2403:2432  _callerInfo[newCaller].roleId */\n      0x01\n      add\n      0x00\n        /* \"contracts/faykGovernance.sol\":2403:2441  _callerInfo[newCaller].roleId = roleId */\n      0x0100\n      exp\n      dup2\n      sload\n      dup2\n      0xffffffff\n      mul\n      not\n      and\n      swap1\n      dup4\n      0xffffffff\n      and\n      mul\n      or\n      swap1\n      sstore\n      pop\n        /* \"contracts/faykGovernance.sol\":2494:2499  delay */\n      dup1\n        /* \"contracts/faykGovernance.sol\":2456:2467  _callerInfo */\n      0x08\n        /* \"contracts/faykGovernance.sol\":2456:2478  _callerInfo[newCaller] */\n      0x00\n        /* \"contracts/faykGovernance.sol\":2468:2477  newCaller */\n      dup7\n        /* \"contracts/faykGovernance.sol\":2456:2478  _callerInfo[newCaller] */\n      0xffffffffffffffffffffffffffffffffffffffff\n      and\n      0xffffffffffffffffffffffffffffffffffffffff\n      and\n      dup2\n      mstore\n      0x20\n      add\n      swap1\n      dup2\n      mstore\n      0x20\n      add\n      0x00\n      keccak256\n        /* \"contracts/faykGovernance.sol\":2456:2491  _callerInfo[newCaller].executeDelay */\n      0x01\n      add\n      0x10\n        /* \"contracts/faykGovernance.sol\":2456:2499  _callerInfo[newCaller].executeDelay = delay */\n      0x0100\n      exp\n      dup2\n      sload\n      dup2\n      0xffffffffffff\n      mul\n      not\n      and\n      swap1\n      dup4\n      0xffffffffffff\n      and\n      mul\n      or\n      swap1\n      sstore\n      pop\n        /* \"contracts/faykGovernance.sol\":2572:2578  roleId */\n      dup2\n        /* \"contracts/faykGovernance.sol\":2521:2579  AnOfficialWasElected(newCaller, peopleName_satrap, roleId) */\n      0xffffffff\n      and\n        /* \"contracts/faykGovernance.sol\":2553:2570  peopleName_satrap */\n      dup4\n        /* \"contracts/faykGovernance.sol\":2542:2551  newCaller */\n      dup6\n        /* \"contracts/faykGovernance.sol\":2521:2579  AnOfficialWasElected(newCaller, peopleName_satrap, roleId) */\n      0xffffffffffffffffffffffffffffffffffffffff\n      and\n      0x5c43a67d451cacaddc8309af64192a4ebee009b9cab5eeb59ec1fb77dd3abcbc\n      mload(0x40)\n      mload(0x40)\n      dup1\n      swap2\n      sub\n      swap1\n      log4\n        /* \"contracts/faykGovernance.sol\":2201:2601  if (_callerInfo[newCaller].peopleName_satrap != peopleName_satrap && _callerInfo[newCaller].roleId != roleId) {... */\n      jump(tag_139)\n    tag_138:\n    tag_139:\n        /* \"contracts/faykGovernance.sol\":1952:2608  function setCallerInfo(address oldCaller, address newCaller, bytes32 peopleName_satrap, uint32 roleId, uint48 delay) public onlyPrimeRepublic {... */\n      pop\n      pop\n      pop\n      pop\n      pop\n      jump\t// out\n        /* \"contracts/authority.sol\":5600:6081  function transferPrimeMinister() public {... */\n    tag_42:\n        /* \"contracts/authority.sol\":5680:5690  msg.sender */\n      caller\n        /* \"contracts/authority.sol\":5655:5690  _pendingPrimeMinister == msg.sender */\n      0xffffffffffffffffffffffffffffffffffffffff\n      and\n        /* \"contracts/authority.sol\":5655:5676  _pendingPrimeMinister */\n      0x03\n      0x00\n      swap1\n      sload\n      swap1\n      0x0100\n      exp\n      swap1\n      div\n      0xffffffffffffffffffffffffffffffffffffffff\n      and\n        /* \"contracts/authority.sol\":5655:5690  _pendingPrimeMinister == msg.sender */\n      0xffffffffffffffffffffffffffffffffffffffff\n      and\n      sub\n        /* \"contracts/authority.sol\":5651:6073  if (_pendingPrimeMinister == msg.sender) {... */\n      tag_141\n      jumpi\n        /* \"contracts/authority.sol\":5714:5735  _pendingPrimeMinister */\n      0x03\n      0x00\n        /* \"contracts/authority.sol\":5707:5735  delete _pendingPrimeMinister */\n      0x0100\n      exp\n      dup2\n      sload\n      swap1\n      0xffffffffffffffffffffffffffffffffffffffff\n      mul\n      not\n      and\n      swap1\n      sstore\n        /* \"contracts/authority.sol\":5775:5785  msg.sender */\n      caller\n        /* \"contracts/authority.sol\":5750:5764  _primeMinister */\n      0x05\n        /* \"contracts/authority.sol\":5750:5772  _primeMinister.roleAdd */\n      0x00\n      add\n      0x00\n        /* \"contracts/authority.sol\":5750:5785  _primeMinister.roleAdd = msg.sender */\n      0x0100\n      exp\n      dup2\n      sload\n      dup2\n      0xffffffffffffffffffffffffffffffffffffffff\n      mul\n      not\n      and\n      swap1\n      dup4\n      0xffffffffffffffffffffffffffffffffffffffff\n      and\n      mul\n      or\n      swap1\n      sstore\n      pop\n        /* \"contracts/authority.sol\":5800:5814  _primeMinister */\n      0x05\n        /* \"contracts/authority.sol\":5800:5820  _primeMinister.nonce */\n      0x00\n      add\n      0x15\n        /* \"contracts/authority.sol\":5800:5822  _primeMinister.nonce++ */\n      dup2\n      dup2\n      swap1\n      sload\n      swap1\n      0x0100\n      exp\n      swap1\n      div\n      0xffffffff\n      and\n      dup1\n      swap3\n      swap2\n      swap1\n      tag_142\n      swap1\n      tag_121\n      jump\t// in\n    tag_142:\n      swap2\n      swap1\n      0x0100\n      exp\n      dup2\n      sload\n      dup2\n      0xffffffff\n      mul\n      not\n      and\n      swap1\n      dup4\n      0xffffffff\n      and\n      mul\n      or\n      swap1\n      sstore\n      pop\n      pop\n        /* \"contracts/authority.sol\":5841:5855  _primeMinister */\n      0x05\n        /* \"contracts/authority.sol\":5841:5861  _primeMinister.baned */\n      0x00\n      add\n      0x14\n      swap1\n      sload\n      swap1\n      0x0100\n      exp\n      swap1\n      div\n      0xff\n      and\n        /* \"contracts/authority.sol\":5837:5926  if (_primeMinister.baned){... */\n      iszero\n      tag_143\n      jumpi\n        /* \"contracts/authority.sol\":5881:5910  _setPrimeMinisterBaned(false) */\n      tag_144\n        /* \"contracts/authority.sol\":5904:5909  false */\n      0x00\n        /* \"contracts/authority.sol\":5881:5903  _setPrimeMinisterBaned */\n      tag_109\n        /* \"contracts/authority.sol\":5881:5910  _setPrimeMinisterBaned(false) */\n      jump\t// in\n    tag_144:\n        /* \"contracts/authority.sol\":5837:5926  if (_primeMinister.baned){... */\n    tag_143:\n        /* \"contracts/authority.sol\":6001:6015  _primeMinister */\n      0x05\n        /* \"contracts/authority.sol\":6001:6021  _primeMinister.nonce */\n      0x00\n      add\n      0x15\n      swap1\n      sload\n      swap1\n      0x0100\n      exp\n      swap1\n      div\n      0xffffffff\n      and\n        /* \"contracts/authority.sol\":5945:6022  TheNewPrimeMinisterWasConfirmed(_primeMinister.roleAdd, _primeMinister.nonce) */\n      0xffffffff\n      and\n        /* \"contracts/authority.sol\":5977:5991  _primeMinister */\n      0x05\n        /* \"contracts/authority.sol\":5977:5999  _primeMinister.roleAdd */\n      0x00\n      add\n      0x00\n      swap1\n      sload\n      swap1\n      0x0100\n      exp\n      swap1\n      div\n      0xffffffffffffffffffffffffffffffffffffffff\n      and\n        /* \"contracts/authority.sol\":5945:6022  TheNewPrimeMinisterWasConfirmed(_primeMinister.roleAdd, _primeMinister.nonce) */\n      0xffffffffffffffffffffffffffffffffffffffff\n      and\n      0x11e1b985c07e1bf3fec9bfd0bdb8c4a8e870ba2b26aa89fe50a6a19132ca10fd\n      mload(0x40)\n      mload(0x40)\n      dup1\n      swap2\n      sub\n      swap1\n      log3\n        /* \"contracts/authority.sol\":5651:6073  if (_pendingPrimeMinister == msg.sender) {... */\n      jump(tag_145)\n    tag_141:\n        /* \"contracts/authority.sol\":6049:6073  AccessOnlyForThePendig() */\n      mload(0x40)\n      0x6c4360f000000000000000000000000000000000000000000000000000000000\n      dup2\n      mstore\n      0x04\n      add\n      mload(0x40)\n      dup1\n      swap2\n      sub\n      swap1\n      revert\n        /* \"contracts/authority.sol\":5651:6073  if (_pendingPrimeMinister == msg.sender) {... */\n    tag_145:\n        /* \"contracts/authority.sol\":5600:6081  function transferPrimeMinister() public {... */\n      jump\t// out\n        /* \"contracts/authority.sol\":2726:3282  function setPendingRepublicAddress(address newRAddress) public onlyRepublic {... */\n    tag_45:\n        /* \"contracts/authority.sol\":1956:1971  block.timestamp */\n      timestamp\n        /* \"contracts/authority.sol\":1936:1953  TimeFirstElection */\n      immutable(\"0x243d3ba375e91e040b8b9e2bbbb1688b2b311eacea842eebda952071560e7854\")\n        /* \"contracts/authority.sol\":1936:1971  TimeFirstElection < block.timestamp */\n      0xffffffffffff\n      and\n      lt\n        /* \"contracts/authority.sol\":1932:2159  if (TimeFirstElection < block.timestamp) {... */\n      iszero\n      tag_147\n      jumpi\n        /* \"contracts/authority.sol\":2010:2030  getRepublicAddress() */\n      tag_148\n        /* \"contracts/authority.sol\":2010:2028  getRepublicAddress */\n      tag_77\n        /* \"contracts/authority.sol\":2010:2030  getRepublicAddress() */\n      jump\t// in\n    tag_148:\n        /* \"contracts/authority.sol\":1996:2030  msg.sender == getRepublicAddress() */\n      0xffffffffffffffffffffffffffffffffffffffff\n      and\n        /* \"contracts/authority.sol\":1996:2006  msg.sender */\n      caller\n        /* \"contracts/authority.sol\":1996:2030  msg.sender == getRepublicAddress() */\n      0xffffffffffffffffffffffffffffffffffffffff\n      and\n      eq\n        /* \"contracts/authority.sol\":1988:2054  require(msg.sender == getRepublicAddress(), \"Access is not valid\") */\n      tag_149\n      jumpi\n      mload(0x40)\n      0x08c379a000000000000000000000000000000000000000000000000000000000\n      dup2\n      mstore\n      0x04\n      add\n      tag_150\n      swap1\n      tag_98\n      jump\t// in\n    tag_150:\n      mload(0x40)\n      dup1\n      swap2\n      sub\n      swap1\n      revert\n    tag_149:\n        /* \"contracts/authority.sol\":1932:2159  if (TimeFirstElection < block.timestamp) {... */\n      jump(tag_151)\n    tag_147:\n        /* \"contracts/authority.sol\":2096:2113  getPresidentAdd() */\n      tag_152\n        /* \"contracts/authority.sol\":2096:2111  getPresidentAdd */\n      tag_57\n        /* \"contracts/authority.sol\":2096:2113  getPresidentAdd() */\n      jump\t// in\n    tag_152:\n        /* \"contracts/authority.sol\":2082:2113  msg.sender == getPresidentAdd() */\n      0xffffffffffffffffffffffffffffffffffffffff\n      and\n        /* \"contracts/authority.sol\":2082:2092  msg.sender */\n      caller\n        /* \"contracts/authority.sol\":2082:2113  msg.sender == getPresidentAdd() */\n      0xffffffffffffffffffffffffffffffffffffffff\n      and\n      eq\n        /* \"contracts/authority.sol\":2082:2135  msg.sender == getPresidentAdd() && !getPresidentBan() */\n      dup1\n      iszero\n      tag_153\n      jumpi\n      pop\n        /* \"contracts/authority.sol\":2118:2135  getPresidentBan() */\n      tag_154\n        /* \"contracts/authority.sol\":2118:2133  getPresidentBan */\n      tag_60\n        /* \"contracts/authority.sol\":2118:2135  getPresidentBan() */\n      jump\t// in\n    tag_154:\n        /* \"contracts/authority.sol\":2117:2135  !getPresidentBan() */\n      iszero\n        /* \"contracts/authority.sol\":2082:2135  msg.sender == getPresidentAdd() && !getPresidentBan() */\n    tag_153:\n        /* \"contracts/authority.sol\":2074:2159  require(msg.sender == getPresidentAdd() && !getPresidentBan(), \"Access is not valid\") */\n      tag_155\n      jumpi\n      mload(0x40)\n      0x08c379a000000000000000000000000000000000000000000000000000000000\n      dup2\n      mstore\n      0x04\n      add\n      tag_156\n      swap1\n      tag_98\n      jump\t// in\n    tag_156:\n      mload(0x40)\n      dup1\n      swap2\n      sub\n      swap1\n      revert\n    tag_155:\n        /* \"contracts/authority.sol\":1932:2159  if (TimeFirstElection < block.timestamp) {... */\n    tag_151:\n        /* \"contracts/authority.sol\":2843:2844  0 */\n      0x00\n        /* \"contracts/authority.sol\":2817:2828  newRAddress */\n      dup2\n        /* \"contracts/authority.sol\":2817:2840  newRAddress.code.length */\n      0xffffffffffffffffffffffffffffffffffffffff\n      and\n      extcodesize\n        /* \"contracts/authority.sol\":2817:2844  newRAddress.code.length > 0 */\n      gt\n        /* \"contracts/authority.sol\":2813:3272  if (newRAddress.code.length > 0) {... */\n      iszero\n      tag_158\n      jumpi\n        /* \"contracts/authority.sol\":2887:2897  msg.sender */\n      caller\n        /* \"contracts/authority.sol\":2865:2897  _president.roleAdd == msg.sender */\n      0xffffffffffffffffffffffffffffffffffffffff\n      and\n        /* \"contracts/authority.sol\":2865:2875  _president */\n      0x04\n        /* \"contracts/authority.sol\":2865:2883  _president.roleAdd */\n      0x00\n      add\n      0x00\n      swap1\n      sload\n      swap1\n      0x0100\n      exp\n      swap1\n      div\n      0xffffffffffffffffffffffffffffffffffffffff\n      and\n        /* \"contracts/authority.sol\":2865:2897  _president.roleAdd == msg.sender */\n      0xffffffffffffffffffffffffffffffffffffffff\n      and\n      sub\n        /* \"contracts/authority.sol\":2861:3202  if (_president.roleAdd == msg.sender) {... */\n      tag_159\n      jumpi\n        /* \"contracts/authority.sol\":2918:2955  _transferRepublicAddress(newRAddress) */\n      tag_160\n        /* \"contracts/authority.sol\":2943:2954  newRAddress */\n      dup2\n        /* \"contracts/authority.sol\":2918:2942  _transferRepublicAddress */\n      tag_161\n        /* \"contracts/authority.sol\":2918:2955  _transferRepublicAddress(newRAddress) */\n      jump\t// in\n    tag_160:\n        /* \"contracts/authority.sol\":2861:3202  if (_president.roleAdd == msg.sender) {... */\n      jump(tag_162)\n    tag_159:\n        /* \"contracts/authority.sol\":3054:3061  15 days */\n      0x13c680\n        /* \"contracts/authority.sol\":3036:3051  block.timestamp */\n      timestamp\n        /* \"contracts/authority.sol\":3036:3061  block.timestamp + 15 days */\n      tag_163\n      swap2\n      swap1\n      tag_164\n      jump\t// in\n    tag_163:\n        /* \"contracts/authority.sol\":2998:3026  _delayConfirmRepublicAddress */\n      0x03\n      0x14\n        /* \"contracts/authority.sol\":2998:3062  _delayConfirmRepublicAddress = uint48(block.timestamp + 15 days) */\n      0x0100\n      exp\n      dup2\n      sload\n      dup2\n      0xffffffffffff\n      mul\n      not\n      and\n      swap1\n      dup4\n      0xffffffffffff\n      and\n      mul\n      or\n      swap1\n      sstore\n      pop\n        /* \"contracts/authority.sol\":3106:3117  newRAddress */\n      dup1\n        /* \"contracts/authority.sol\":3081:3103  _pendigRepublicAddress */\n      0x00\n      dup1\n        /* \"contracts/authority.sol\":3081:3117  _pendigRepublicAddress = newRAddress */\n      0x0100\n      exp\n      dup2\n      sload\n      dup2\n      0xffffffffffffffffffffffffffffffffffffffff\n      mul\n      not\n      and\n      swap1\n      dup4\n      0xffffffffffffffffffffffffffffffffffffffff\n      and\n      mul\n      or\n      swap1\n      sstore\n      pop\n        /* \"contracts/authority.sol\":3174:3185  newRAddress */\n      dup1\n        /* \"contracts/authority.sol\":3141:3186  TheNextRepublicAddressWasElected(newRAddress) */\n      0xffffffffffffffffffffffffffffffffffffffff\n      and\n      0x675b770e821ba4aad20be77c58f912d689226272e805637f42f838a6035eed86\n      mload(0x40)\n      mload(0x40)\n      dup1\n      swap2\n      sub\n      swap1\n      log2\n        /* \"contracts/authority.sol\":2861:3202  if (_president.roleAdd == msg.sender) {... */\n    tag_162:\n        /* \"contracts/authority.sol\":2813:3272  if (newRAddress.code.length > 0) {... */\n      jump(tag_165)\n    tag_158:\n        /* \"contracts/authority.sol\":3260:3271  newRAddress */\n      dup1\n        /* \"contracts/authority.sol\":3228:3272  TheAddressIsNotValidForRAddress(newRAddress) */\n      mload(0x40)\n      0xc632231500000000000000000000000000000000000000000000000000000000\n      dup2\n      mstore\n      0x04\n      add\n      tag_166\n      swap2\n      swap1\n      tag_49\n      jump\t// in\n    tag_166:\n      mload(0x40)\n      dup1\n      swap2\n      sub\n      swap1\n      revert\n        /* \"contracts/authority.sol\":2813:3272  if (newRAddress.code.length > 0) {... */\n    tag_165:\n        /* \"contracts/authority.sol\":2726:3282  function setPendingRepublicAddress(address newRAddress) public onlyRepublic {... */\n      pop\n      jump\t// out\n        /* \"contracts/authority.sol\":7070:7170  function getGovernance() public view returns (address) {... */\n    tag_47:\n        /* \"contracts/authority.sol\":7116:7123  address */\n      0x00\n        /* \"contracts/authority.sol\":7143:7154  _governance */\n      0x06\n        /* \"contracts/authority.sol\":7143:7162  _governance.roleAdd */\n      0x00\n      add\n      0x00\n      swap1\n      sload\n      swap1\n      0x0100\n      exp\n      swap1\n      div\n      0xffffffffffffffffffffffffffffffffffffffff\n      and\n        /* \"contracts/authority.sol\":7136:7162  return _governance.roleAdd */\n      swap1\n      pop\n        /* \"contracts/authority.sol\":7070:7170  function getGovernance() public view returns (address) {... */\n      swap1\n      jump\t// out\n        /* \"contracts/authority.sol\":3928:4302  function cancelPendingRepublicAddress(address PRAdress) public onlyRepublic {... */\n    tag_52:\n        /* \"contracts/authority.sol\":1956:1971  block.timestamp */\n      timestamp\n        /* \"contracts/authority.sol\":1936:1953  TimeFirstElection */\n      immutable(\"0x243d3ba375e91e040b8b9e2bbbb1688b2b311eacea842eebda952071560e7854\")\n        /* \"contracts/authority.sol\":1936:1971  TimeFirstElection < block.timestamp */\n      0xffffffffffff\n      and\n      lt\n        /* \"contracts/authority.sol\":1932:2159  if (TimeFirstElection < block.timestamp) {... */\n      iszero\n      tag_169\n      jumpi\n        /* \"contracts/authority.sol\":2010:2030  getRepublicAddress() */\n      tag_170\n        /* \"contracts/authority.sol\":2010:2028  getRepublicAddress */\n      tag_77\n        /* \"contracts/authority.sol\":2010:2030  getRepublicAddress() */\n      jump\t// in\n    tag_170:\n        /* \"contracts/authority.sol\":1996:2030  msg.sender == getRepublicAddress() */\n      0xffffffffffffffffffffffffffffffffffffffff\n      and\n        /* \"contracts/authority.sol\":1996:2006  msg.sender */\n      caller\n        /* \"contracts/authority.sol\":1996:2030  msg.sender == getRepublicAddress() */\n      0xffffffffffffffffffffffffffffffffffffffff\n      and\n      eq\n        /* \"contracts/authority.sol\":1988:2054  require(msg.sender == getRepublicAddress(), \"Access is not valid\") */\n      tag_171\n      jumpi\n      mload(0x40)\n      0x08c379a000000000000000000000000000000000000000000000000000000000\n      dup2\n      mstore\n      0x04\n      add\n      tag_172\n      swap1\n      tag_98\n      jump\t// in\n    tag_172:\n      mload(0x40)\n      dup1\n      swap2\n      sub\n      swap1\n      revert\n    tag_171:\n        /* \"contracts/authority.sol\":1932:2159  if (TimeFirstElection < block.timestamp) {... */\n      jump(tag_173)\n    tag_169:\n        /* \"contracts/authority.sol\":2096:2113  getPresidentAdd() */\n      tag_174\n        /* \"contracts/authority.sol\":2096:2111  getPresidentAdd */\n      tag_57\n        /* \"contracts/authority.sol\":2096:2113  getPresidentAdd() */\n      jump\t// in\n    tag_174:\n        /* \"contracts/authority.sol\":2082:2113  msg.sender == getPresidentAdd() */\n      0xffffffffffffffffffffffffffffffffffffffff\n      and\n        /* \"contracts/authority.sol\":2082:2092  msg.sender */\n      caller\n        /* \"contracts/authority.sol\":2082:2113  msg.sender == getPresidentAdd() */\n      0xffffffffffffffffffffffffffffffffffffffff\n      and\n      eq\n        /* \"contracts/authority.sol\":2082:2135  msg.sender == getPresidentAdd() && !getPresidentBan() */\n      dup1\n      iszero\n      tag_175\n      jumpi\n      pop\n        /* \"contracts/authority.sol\":2118:2135  getPresidentBan() */\n      tag_176\n        /* \"contracts/authority.sol\":2118:2133  getPresidentBan */\n      tag_60\n        /* \"contracts/authority.sol\":2118:2135  getPresidentBan() */\n      jump\t// in\n    tag_176:\n        /* \"contracts/authority.sol\":2117:2135  !getPresidentBan() */\n      iszero\n        /* \"contracts/authority.sol\":2082:2135  msg.sender == getPresidentAdd() && !getPresidentBan() */\n    tag_175:\n        /* \"contracts/authority.sol\":2074:2159  require(msg.sender == getPresidentAdd() && !getPresidentBan(), \"Access is not valid\") */\n      tag_177\n      jumpi\n      mload(0x40)\n      0x08c379a000000000000000000000000000000000000000000000000000000000\n      dup2\n      mstore\n      0x04\n      add\n      tag_178\n      swap1\n      tag_98\n      jump\t// in\n    tag_178:\n      mload(0x40)\n      dup1\n      swap2\n      sub\n      swap1\n      revert\n    tag_177:\n        /* \"contracts/authority.sol\":1932:2159  if (TimeFirstElection < block.timestamp) {... */\n    tag_173:\n        /* \"contracts/authority.sol\":4045:4053  PRAdress */\n      dup1\n        /* \"contracts/authority.sol\":4019:4053  _pendigRepublicAddress == PRAdress */\n      0xffffffffffffffffffffffffffffffffffffffff\n      and\n        /* \"contracts/authority.sol\":4019:4041  _pendigRepublicAddress */\n      0x00\n      dup1\n      sload\n      swap1\n      0x0100\n      exp\n      swap1\n      div\n      0xffffffffffffffffffffffffffffffffffffffff\n      and\n        /* \"contracts/authority.sol\":4019:4053  _pendigRepublicAddress == PRAdress */\n      0xffffffffffffffffffffffffffffffffffffffff\n      and\n      sub\n        /* \"contracts/authority.sol\":4015:4294  if (_pendigRepublicAddress == PRAdress) {... */\n      tag_180\n      jumpi\n        /* \"contracts/authority.sol\":4081:4109  _delayConfirmRepublicAddress */\n      0x03\n      0x14\n        /* \"contracts/authority.sol\":4074:4109  delete _delayConfirmRepublicAddress */\n      0x0100\n      exp\n      dup2\n      sload\n      swap1\n      0xffffffffffff\n      mul\n      not\n      and\n      swap1\n      sstore\n        /* \"contracts/authority.sol\":4135:4157  _pendigRepublicAddress */\n      0x00\n      dup1\n        /* \"contracts/authority.sol\":4128:4157  delete _pendigRepublicAddress */\n      0x0100\n      exp\n      dup2\n      sload\n      swap1\n      0xffffffffffffffffffffffffffffffffffffffff\n      mul\n      not\n      and\n      swap1\n      sstore\n        /* \"contracts/authority.sol\":4217:4225  PRAdress */\n      dup1\n        /* \"contracts/authority.sol\":4182:4226  TheNextRepublicAddressWasCancelled(PRAdress) */\n      0xffffffffffffffffffffffffffffffffffffffff\n      and\n      0xf299f61c7e493f99b20cb36c587ca903d085d5206bfe4452d295711e372da029\n      mload(0x40)\n      mload(0x40)\n      dup1\n      swap2\n      sub\n      swap1\n      log2\n        /* \"contracts/authority.sol\":4015:4294  if (_pendigRepublicAddress == PRAdress) {... */\n      jump(tag_181)\n    tag_180:\n        /* \"contracts/authority.sol\":4285:4293  PRAdress */\n      dup1\n        /* \"contracts/authority.sol\":4253:4294  TheAddressIsNotValidForRAddress(PRAdress) */\n      mload(0x40)\n      0xc632231500000000000000000000000000000000000000000000000000000000\n      dup2\n      mstore\n      0x04\n      add\n      tag_182\n      swap2\n      swap1\n      tag_49\n      jump\t// in\n    tag_182:\n      mload(0x40)\n      dup1\n      swap2\n      sub\n      swap1\n      revert\n        /* \"contracts/authority.sol\":4015:4294  if (_pendigRepublicAddress == PRAdress) {... */\n    tag_181:\n        /* \"contracts/authority.sol\":3928:4302  function cancelPendingRepublicAddress(address PRAdress) public onlyRepublic {... */\n      pop\n      jump\t// out\n        /* \"contracts/authority.sol\":5420:5592  function setPendingPrimeMinister(address newPM) public onlyPresident {... */\n    tag_55:\n        /* \"contracts/authority.sol\":2247:2264  getPresidentAdd() */\n      tag_184\n        /* \"contracts/authority.sol\":2247:2262  getPresidentAdd */\n      tag_57\n        /* \"contracts/authority.sol\":2247:2264  getPresidentAdd() */\n      jump\t// in\n    tag_184:\n        /* \"contracts/authority.sol\":2233:2264  msg.sender == getPresidentAdd() */\n      0xffffffffffffffffffffffffffffffffffffffff\n      and\n        /* \"contracts/authority.sol\":2233:2243  msg.sender */\n      caller\n        /* \"contracts/authority.sol\":2233:2264  msg.sender == getPresidentAdd() */\n      0xffffffffffffffffffffffffffffffffffffffff\n      and\n      eq\n        /* \"contracts/authority.sol\":2233:2286  msg.sender == getPresidentAdd() && !getPresidentBan() */\n      dup1\n      iszero\n      tag_185\n      jumpi\n      pop\n        /* \"contracts/authority.sol\":2269:2286  getPresidentBan() */\n      tag_186\n        /* \"contracts/authority.sol\":2269:2284  getPresidentBan */\n      tag_60\n        /* \"contracts/authority.sol\":2269:2286  getPresidentBan() */\n      jump\t// in\n    tag_186:\n        /* \"contracts/authority.sol\":2268:2286  !getPresidentBan() */\n      iszero\n        /* \"contracts/authority.sol\":2233:2286  msg.sender == getPresidentAdd() && !getPresidentBan() */\n    tag_185:\n        /* \"contracts/authority.sol\":2225:2310  require(msg.sender == getPresidentAdd() && !getPresidentBan(), \"Access is not valid\") */\n      tag_187\n      jumpi\n      mload(0x40)\n      0x08c379a000000000000000000000000000000000000000000000000000000000\n      dup2\n      mstore\n      0x04\n      add\n      tag_188\n      swap1\n      tag_98\n      jump\t// in\n    tag_188:\n      mload(0x40)\n      dup1\n      swap2\n      sub\n      swap1\n      revert\n    tag_187:\n        /* \"contracts/authority.sol\":5524:5529  newPM */\n      dup1\n        /* \"contracts/authority.sol\":5500:5521  _pendingPrimeMinister */\n      0x03\n      0x00\n        /* \"contracts/authority.sol\":5500:5529  _pendingPrimeMinister = newPM */\n      0x0100\n      exp\n      dup2\n      sload\n      dup2\n      0xffffffffffffffffffffffffffffffffffffffff\n      mul\n      not\n      and\n      swap1\n      dup4\n      0xffffffffffffffffffffffffffffffffffffffff\n      and\n      mul\n      or\n      swap1\n      sstore\n      pop\n        /* \"contracts/authority.sol\":5578:5583  newPM */\n      dup1\n        /* \"contracts/authority.sol\":5547:5584  TheNextPrimeMinisterWasElected(newPM) */\n      0xffffffffffffffffffffffffffffffffffffffff\n      and\n      0xff3cad3ee28c342ad5f3d7c8ff8559ee4d21eb48494092b82a1652e443b3420b\n      mload(0x40)\n      mload(0x40)\n      dup1\n      swap2\n      sub\n      swap1\n      log2\n        /* \"contracts/authority.sol\":5420:5592  function setPendingPrimeMinister(address newPM) public onlyPresident {... */\n      pop\n      jump\t// out\n        /* \"contracts/authority.sol\":5207:5308  function getPresidentAdd() public view returns (address) {... */\n    tag_57:\n        /* \"contracts/authority.sol\":5255:5262  address */\n      0x00\n        /* \"contracts/authority.sol\":5282:5292  _president */\n      0x04\n        /* \"contracts/authority.sol\":5282:5300  _president.roleAdd */\n      0x00\n      add\n      0x00\n      swap1\n      sload\n      swap1\n      0x0100\n      exp\n      swap1\n      div\n      0xffffffffffffffffffffffffffffffffffffffff\n      and\n        /* \"contracts/authority.sol\":5275:5300  return _president.roleAdd */\n      swap1\n      pop\n        /* \"contracts/authority.sol\":5207:5308  function getPresidentAdd() public view returns (address) {... */\n      swap1\n      jump\t// out\n        /* \"contracts/authority.sol\":5316:5412  function getPresidentBan() public view returns (bool) {... */\n    tag_60:\n        /* \"contracts/authority.sol\":5364:5368  bool */\n      0x00\n        /* \"contracts/authority.sol\":5388:5398  _president */\n      0x04\n        /* \"contracts/authority.sol\":5388:5404  _president.baned */\n      0x00\n      add\n      0x14\n      swap1\n      sload\n      swap1\n      0x0100\n      exp\n      swap1\n      div\n      0xff\n      and\n        /* \"contracts/authority.sol\":5381:5404  return _president.baned */\n      swap1\n      pop\n        /* \"contracts/authority.sol\":5316:5412  function getPresidentBan() public view returns (bool) {... */\n      swap1\n      jump\t// out\n        /* \"contracts/authority.sol\":3290:3920  function transferRepublicAddress(address RAddress) public onlyRepublic {... */\n    tag_65:\n        /* \"contracts/authority.sol\":1956:1971  block.timestamp */\n      timestamp\n        /* \"contracts/authority.sol\":1936:1953  TimeFirstElection */\n      immutable(\"0x243d3ba375e91e040b8b9e2bbbb1688b2b311eacea842eebda952071560e7854\")\n        /* \"contracts/authority.sol\":1936:1971  TimeFirstElection < block.timestamp */\n      0xffffffffffff\n      and\n      lt\n        /* \"contracts/authority.sol\":1932:2159  if (TimeFirstElection < block.timestamp) {... */\n      iszero\n      tag_193\n      jumpi\n        /* \"contracts/authority.sol\":2010:2030  getRepublicAddress() */\n      tag_194\n        /* \"contracts/authority.sol\":2010:2028  getRepublicAddress */\n      tag_77\n        /* \"contracts/authority.sol\":2010:2030  getRepublicAddress() */\n      jump\t// in\n    tag_194:\n        /* \"contracts/authority.sol\":1996:2030  msg.sender == getRepublicAddress() */\n      0xffffffffffffffffffffffffffffffffffffffff\n      and\n        /* \"contracts/authority.sol\":1996:2006  msg.sender */\n      caller\n        /* \"contracts/authority.sol\":1996:2030  msg.sender == getRepublicAddress() */\n      0xffffffffffffffffffffffffffffffffffffffff\n      and\n      eq\n        /* \"contracts/authority.sol\":1988:2054  require(msg.sender == getRepublicAddress(), \"Access is not valid\") */\n      tag_195\n      jumpi\n      mload(0x40)\n      0x08c379a000000000000000000000000000000000000000000000000000000000\n      dup2\n      mstore\n      0x04\n      add\n      tag_196\n      swap1\n      tag_98\n      jump\t// in\n    tag_196:\n      mload(0x40)\n      dup1\n      swap2\n      sub\n      swap1\n      revert\n    tag_195:\n        /* \"contracts/authority.sol\":1932:2159  if (TimeFirstElection < block.timestamp) {... */\n      jump(tag_197)\n    tag_193:\n        /* \"contracts/authority.sol\":2096:2113  getPresidentAdd() */\n      tag_198\n        /* \"contracts/authority.sol\":2096:2111  getPresidentAdd */\n      tag_57\n        /* \"contracts/authority.sol\":2096:2113  getPresidentAdd() */\n      jump\t// in\n    tag_198:\n        /* \"contracts/authority.sol\":2082:2113  msg.sender == getPresidentAdd() */\n      0xffffffffffffffffffffffffffffffffffffffff\n      and\n        /* \"contracts/authority.sol\":2082:2092  msg.sender */\n      caller\n        /* \"contracts/authority.sol\":2082:2113  msg.sender == getPresidentAdd() */\n      0xffffffffffffffffffffffffffffffffffffffff\n      and\n      eq\n        /* \"contracts/authority.sol\":2082:2135  msg.sender == getPresidentAdd() && !getPresidentBan() */\n      dup1\n      iszero\n      tag_199\n      jumpi\n      pop\n        /* \"contracts/authority.sol\":2118:2135  getPresidentBan() */\n      tag_200\n        /* \"contracts/authority.sol\":2118:2133  getPresidentBan */\n      tag_60\n        /* \"contracts/authority.sol\":2118:2135  getPresidentBan() */\n      jump\t// in\n    tag_200:\n        /* \"contracts/authority.sol\":2117:2135  !getPresidentBan() */\n      iszero\n        /* \"contracts/authority.sol\":2082:2135  msg.sender == getPresidentAdd() && !getPresidentBan() */\n    tag_199:\n        /* \"contracts/authority.sol\":2074:2159  require(msg.sender == getPresidentAdd() && !getPresidentBan(), \"Access is not valid\") */\n      tag_201\n      jumpi\n      mload(0x40)\n      0x08c379a000000000000000000000000000000000000000000000000000000000\n      dup2\n      mstore\n      0x04\n      add\n      tag_202\n      swap1\n      tag_98\n      jump\t// in\n    tag_202:\n      mload(0x40)\n      dup1\n      swap2\n      sub\n      swap1\n      revert\n    tag_201:\n        /* \"contracts/authority.sol\":1932:2159  if (TimeFirstElection < block.timestamp) {... */\n    tag_197:\n        /* \"contracts/authority.sol\":3407:3422  block.timestamp */\n      timestamp\n        /* \"contracts/authority.sol\":3376:3404  _delayConfirmRepublicAddress */\n      0x03\n      0x14\n      swap1\n      sload\n      swap1\n      0x0100\n      exp\n      swap1\n      div\n      0xffffffffffff\n      and\n        /* \"contracts/authority.sol\":3376:3422  _delayConfirmRepublicAddress < block.timestamp */\n      0xffffffffffff\n      and\n      lt\n        /* \"contracts/authority.sol\":3372:3912  if (_delayConfirmRepublicAddress < block.timestamp) {... */\n      iszero\n      tag_204\n      jumpi\n        /* \"contracts/authority.sol\":3479:3480  0 */\n      0x00\n        /* \"contracts/authority.sol\":3447:3475  _delayConfirmRepublicAddress */\n      0x03\n      0x14\n      swap1\n      sload\n      swap1\n      0x0100\n      exp\n      swap1\n      div\n      0xffffffffffff\n      and\n        /* \"contracts/authority.sol\":3447:3480  _delayConfirmRepublicAddress != 0 */\n      0xffffffffffff\n      and\n      sub\n        /* \"contracts/authority.sol\":3439:3506  require(_delayConfirmRepublicAddress != 0,\"The request is invalid\") */\n      tag_205\n      jumpi\n      mload(0x40)\n      0x08c379a000000000000000000000000000000000000000000000000000000000\n      dup2\n      mstore\n      0x04\n      add\n      tag_206\n      swap1\n      tag_207\n      jump\t// in\n    tag_206:\n      mload(0x40)\n      dup1\n      swap2\n      sub\n      swap1\n      revert\n    tag_205:\n        /* \"contracts/authority.sol\":3551:3559  RAddress */\n      dup1\n        /* \"contracts/authority.sol\":3525:3559  _pendigRepublicAddress == RAddress */\n      0xffffffffffffffffffffffffffffffffffffffff\n      and\n        /* \"contracts/authority.sol\":3525:3547  _pendigRepublicAddress */\n      0x00\n      dup1\n      sload\n      swap1\n      0x0100\n      exp\n      swap1\n      div\n      0xffffffffffffffffffffffffffffffffffffffff\n      and\n        /* \"contracts/authority.sol\":3525:3559  _pendigRepublicAddress == RAddress */\n      0xffffffffffffffffffffffffffffffffffffffff\n      and\n      sub\n        /* \"contracts/authority.sol\":3521:3788  if (_pendigRepublicAddress == RAddress) {... */\n      tag_208\n      jumpi\n        /* \"contracts/authority.sol\":3587:3615  _delayConfirmRepublicAddress */\n      0x03\n      0x14\n        /* \"contracts/authority.sol\":3580:3615  delete _delayConfirmRepublicAddress */\n      0x0100\n      exp\n      dup2\n      sload\n      swap1\n      0xffffffffffff\n      mul\n      not\n      and\n      swap1\n      sstore\n        /* \"contracts/authority.sol\":3641:3663  _pendigRepublicAddress */\n      0x00\n      dup1\n        /* \"contracts/authority.sol\":3634:3663  delete _pendigRepublicAddress */\n      0x0100\n      exp\n      dup2\n      sload\n      swap1\n      0xffffffffffffffffffffffffffffffffffffffff\n      mul\n      not\n      and\n      swap1\n      sstore\n        /* \"contracts/authority.sol\":3682:3716  _transferRepublicAddress(RAddress) */\n      tag_209\n        /* \"contracts/authority.sol\":3707:3715  RAddress */\n      dup2\n        /* \"contracts/authority.sol\":3682:3706  _transferRepublicAddress */\n      tag_161\n        /* \"contracts/authority.sol\":3682:3716  _transferRepublicAddress(RAddress) */\n      jump\t// in\n    tag_209:\n        /* \"contracts/authority.sol\":3521:3788  if (_pendigRepublicAddress == RAddress) {... */\n      jump(tag_210)\n    tag_208:\n        /* \"contracts/authority.sol\":3779:3787  RAddress */\n      dup1\n        /* \"contracts/authority.sol\":3747:3788  TheAddressIsNotValidForRAddress(RAddress) */\n      mload(0x40)\n      0xc632231500000000000000000000000000000000000000000000000000000000\n      dup2\n      mstore\n      0x04\n      add\n      tag_211\n      swap2\n      swap1\n      tag_49\n      jump\t// in\n    tag_211:\n      mload(0x40)\n      dup1\n      swap2\n      sub\n      swap1\n      revert\n        /* \"contracts/authority.sol\":3521:3788  if (_pendigRepublicAddress == RAddress) {... */\n    tag_210:\n        /* \"contracts/authority.sol\":3372:3912  if (_delayConfirmRepublicAddress < block.timestamp) {... */\n      jump(tag_212)\n    tag_204:\n        /* \"contracts/authority.sol\":3895:3910  block.timestamp */\n      timestamp\n        /* \"contracts/authority.sol\":3857:3885  _delayConfirmRepublicAddress */\n      0x03\n      0x14\n      swap1\n      sload\n      swap1\n      0x0100\n      exp\n      swap1\n      div\n      0xffffffffffff\n      and\n        /* \"contracts/authority.sol\":3857:3911  _delayConfirmRepublicAddress - uint48(block.timestamp) */\n      tag_213\n      swap2\n      swap1\n      tag_214\n      jump\t// in\n    tag_213:\n        /* \"contracts/authority.sol\":3815:3912  RemainingTimeUntilTheConfirmationDeadline(_delayConfirmRepublicAddress - uint48(block.timestamp)) */\n      mload(0x40)\n      0x223a6cbb00000000000000000000000000000000000000000000000000000000\n      dup2\n      mstore\n      0x04\n      add\n      tag_215\n      swap2\n      swap1\n      tag_216\n      jump\t// in\n    tag_215:\n      mload(0x40)\n      dup1\n      swap2\n      sub\n      swap1\n      revert\n        /* \"contracts/authority.sol\":3372:3912  if (_delayConfirmRepublicAddress < block.timestamp) {... */\n    tag_212:\n        /* \"contracts/authority.sol\":3290:3920  function transferRepublicAddress(address RAddress) public onlyRepublic {... */\n      pop\n      jump\t// out\n        /* \"contracts/authority.sol\":6089:6198  function getPrimeMinisterAdd() public view returns (address) {... */\n    tag_67:\n        /* \"contracts/authority.sol\":6141:6148  address */\n      0x00\n        /* \"contracts/authority.sol\":6168:6182  _primeMinister */\n      0x05\n        /* \"contracts/authority.sol\":6168:6190  _primeMinister.roleAdd */\n      0x00\n      add\n      0x00\n      swap1\n      sload\n      swap1\n      0x0100\n      exp\n      swap1\n      div\n      0xffffffffffffffffffffffffffffffffffffffff\n      and\n        /* \"contracts/authority.sol\":6161:6190  return _primeMinister.roleAdd */\n      swap1\n      pop\n        /* \"contracts/authority.sol\":6089:6198  function getPrimeMinisterAdd() public view returns (address) {... */\n      swap1\n      jump\t// out\n        /* \"contracts/authority.sol\":7290:7433  function setPresidentBaned(bool baned) public onlyRepublic {... */\n    tag_71:\n        /* \"contracts/authority.sol\":1956:1971  block.timestamp */\n      timestamp\n        /* \"contracts/authority.sol\":1936:1953  TimeFirstElection */\n      immutable(\"0x243d3ba375e91e040b8b9e2bbbb1688b2b311eacea842eebda952071560e7854\")\n        /* \"contracts/authority.sol\":1936:1971  TimeFirstElection < block.timestamp */\n      0xffffffffffff\n      and\n      lt\n        /* \"contracts/authority.sol\":1932:2159  if (TimeFirstElection < block.timestamp) {... */\n      iszero\n      tag_219\n      jumpi\n        /* \"contracts/authority.sol\":2010:2030  getRepublicAddress() */\n      tag_220\n        /* \"contracts/authority.sol\":2010:2028  getRepublicAddress */\n      tag_77\n        /* \"contracts/authority.sol\":2010:2030  getRepublicAddress() */\n      jump\t// in\n    tag_220:\n        /* \"contracts/authority.sol\":1996:2030  msg.sender == getRepublicAddress() */\n      0xffffffffffffffffffffffffffffffffffffffff\n      and\n        /* \"contracts/authority.sol\":1996:2006  msg.sender */\n      caller\n        /* \"contracts/authority.sol\":1996:2030  msg.sender == getRepublicAddress() */\n      0xffffffffffffffffffffffffffffffffffffffff\n      and\n      eq\n        /* \"contracts/authority.sol\":1988:2054  require(msg.sender == getRepublicAddress(), \"Access is not valid\") */\n      tag_221\n      jumpi\n      mload(0x40)\n      0x08c379a000000000000000000000000000000000000000000000000000000000\n      dup2\n      mstore\n      0x04\n      add\n      tag_222\n      swap1\n      tag_98\n      jump\t// in\n    tag_222:\n      mload(0x40)\n      dup1\n      swap2\n      sub\n      swap1\n      revert\n    tag_221:\n        /* \"contracts/authority.sol\":1932:2159  if (TimeFirstElection < block.timestamp) {... */\n      jump(tag_223)\n    tag_219:\n        /* \"contracts/authority.sol\":2096:2113  getPresidentAdd() */\n      tag_224\n        /* \"contracts/authority.sol\":2096:2111  getPresidentAdd */\n      tag_57\n        /* \"contracts/authority.sol\":2096:2113  getPresidentAdd() */\n      jump\t// in\n    tag_224:\n        /* \"contracts/authority.sol\":2082:2113  msg.sender == getPresidentAdd() */\n      0xffffffffffffffffffffffffffffffffffffffff\n      and\n        /* \"contracts/authority.sol\":2082:2092  msg.sender */\n      caller\n        /* \"contracts/authority.sol\":2082:2113  msg.sender == getPresidentAdd() */\n      0xffffffffffffffffffffffffffffffffffffffff\n      and\n      eq\n        /* \"contracts/authority.sol\":2082:2135  msg.sender == getPresidentAdd() && !getPresidentBan() */\n      dup1\n      iszero\n      tag_225\n      jumpi\n      pop\n        /* \"contracts/authority.sol\":2118:2135  getPresidentBan() */\n      tag_226\n        /* \"contracts/authority.sol\":2118:2133  getPresidentBan */\n      tag_60\n        /* \"contracts/authority.sol\":2118:2135  getPresidentBan() */\n      jump\t// in\n    tag_226:\n        /* \"contracts/authority.sol\":2117:2135  !getPresidentBan() */\n      iszero\n        /* \"contracts/authority.sol\":2082:2135  msg.sender == getPresidentAdd() && !getPresidentBan() */\n    tag_225:\n        /* \"contracts/authority.sol\":2074:2159  require(msg.sender == getPresidentAdd() && !getPresidentBan(), \"Access is not valid\") */\n      tag_227\n      jumpi\n      mload(0x40)\n      0x08c379a000000000000000000000000000000000000000000000000000000000\n      dup2\n      mstore\n      0x04\n      add\n      tag_228\n      swap1\n      tag_98\n      jump\t// in\n    tag_228:\n      mload(0x40)\n      dup1\n      swap2\n      sub\n      swap1\n      revert\n    tag_227:\n        /* \"contracts/authority.sol\":1932:2159  if (TimeFirstElection < block.timestamp) {... */\n    tag_223:\n        /* \"contracts/authority.sol\":7360:7385  _setPresidentBaned(baned) */\n      tag_230\n        /* \"contracts/authority.sol\":7379:7384  baned */\n      dup2\n        /* \"contracts/authority.sol\":7360:7378  _setPresidentBaned */\n      tag_107\n        /* \"contracts/authority.sol\":7360:7385  _setPresidentBaned(baned) */\n      jump\t// in\n    tag_230:\n        /* \"contracts/authority.sol\":7396:7425  _setPrimeMinisterBaned(baned) */\n      tag_231\n        /* \"contracts/authority.sol\":7419:7424  baned */\n      dup2\n        /* \"contracts/authority.sol\":7396:7418  _setPrimeMinisterBaned */\n      tag_109\n        /* \"contracts/authority.sol\":7396:7425  _setPrimeMinisterBaned(baned) */\n      jump\t// in\n    tag_231:\n        /* \"contracts/authority.sol\":7290:7433  function setPresidentBaned(bool baned) public onlyRepublic {... */\n      pop\n      jump\t// out\n        /* \"contracts/authority.sol\":7178:7282  function getgovernanceVersion() public view returns (uint32) {... */\n    tag_73:\n        /* \"contracts/authority.sol\":7231:7237  uint32 */\n      0x00\n        /* \"contracts/authority.sol\":7257:7268  _governance */\n      0x06\n        /* \"contracts/authority.sol\":7257:7274  _governance.nonce */\n      0x00\n      add\n      0x15\n      swap1\n      sload\n      swap1\n      0x0100\n      exp\n      swap1\n      div\n      0xffffffff\n      and\n        /* \"contracts/authority.sol\":7250:7274  return _governance.nonce */\n      swap1\n      pop\n        /* \"contracts/authority.sol\":7178:7282  function getgovernanceVersion() public view returns (uint32) {... */\n      swap1\n      jump\t// out\n        /* \"contracts/authority.sol\":4310:4424  function getRepublicAddress() public view returns (address RG) {... */\n    tag_77:\n        /* \"contracts/authority.sol\":4361:4371  address RG */\n      0x00\n        /* \"contracts/authority.sol\":4395:4404  _Republic */\n      0x07\n        /* \"contracts/authority.sol\":4395:4412  _Republic.roleAdd */\n      0x00\n      add\n      0x00\n      swap1\n      sload\n      swap1\n      0x0100\n      exp\n      swap1\n      div\n      0xffffffffffffffffffffffffffffffffffffffff\n      and\n        /* \"contracts/authority.sol\":4388:4412  return _Republic.roleAdd */\n      swap1\n      pop\n        /* \"contracts/authority.sol\":4310:4424  function getRepublicAddress() public view returns (address RG) {... */\n      swap1\n      jump\t// out\n        /* \"contracts/authority.sol\":6320:6635  function setPendingGovernanceContractAddress(address newGCAddress) public onlyRepublic {... */\n    tag_81:\n        /* \"contracts/authority.sol\":1956:1971  block.timestamp */\n      timestamp\n        /* \"contracts/authority.sol\":1936:1953  TimeFirstElection */\n      immutable(\"0x243d3ba375e91e040b8b9e2bbbb1688b2b311eacea842eebda952071560e7854\")\n        /* \"contracts/authority.sol\":1936:1971  TimeFirstElection < block.timestamp */\n      0xffffffffffff\n      and\n      lt\n        /* \"contracts/authority.sol\":1932:2159  if (TimeFirstElection < block.timestamp) {... */\n      iszero\n      tag_235\n      jumpi\n        /* \"contracts/authority.sol\":2010:2030  getRepublicAddress() */\n      tag_236\n        /* \"contracts/authority.sol\":2010:2028  getRepublicAddress */\n      tag_77\n        /* \"contracts/authority.sol\":2010:2030  getRepublicAddress() */\n      jump\t// in\n    tag_236:\n        /* \"contracts/authority.sol\":1996:2030  msg.sender == getRepublicAddress() */\n      0xffffffffffffffffffffffffffffffffffffffff\n      and\n        /* \"contracts/authority.sol\":1996:2006  msg.sender */\n      caller\n        /* \"contracts/authority.sol\":1996:2030  msg.sender == getRepublicAddress() */\n      0xffffffffffffffffffffffffffffffffffffffff\n      and\n      eq\n        /* \"contracts/authority.sol\":1988:2054  require(msg.sender == getRepublicAddress(), \"Access is not valid\") */\n      tag_237\n      jumpi\n      mload(0x40)\n      0x08c379a000000000000000000000000000000000000000000000000000000000\n      dup2\n      mstore\n      0x04\n      add\n      tag_238\n      swap1\n      tag_98\n      jump\t// in\n    tag_238:\n      mload(0x40)\n      dup1\n      swap2\n      sub\n      swap1\n      revert\n    tag_237:\n        /* \"contracts/authority.sol\":1932:2159  if (TimeFirstElection < block.timestamp) {... */\n      jump(tag_239)\n    tag_235:\n        /* \"contracts/authority.sol\":2096:2113  getPresidentAdd() */\n      tag_240\n        /* \"contracts/authority.sol\":2096:2111  getPresidentAdd */\n      tag_57\n        /* \"contracts/authority.sol\":2096:2113  getPresidentAdd() */\n      jump\t// in\n    tag_240:\n        /* \"contracts/authority.sol\":2082:2113  msg.sender == getPresidentAdd() */\n      0xffffffffffffffffffffffffffffffffffffffff\n      and\n        /* \"contracts/authority.sol\":2082:2092  msg.sender */\n      caller\n        /* \"contracts/authority.sol\":2082:2113  msg.sender == getPresidentAdd() */\n      0xffffffffffffffffffffffffffffffffffffffff\n      and\n      eq\n        /* \"contracts/authority.sol\":2082:2135  msg.sender == getPresidentAdd() && !getPresidentBan() */\n      dup1\n      iszero\n      tag_241\n      jumpi\n      pop\n        /* \"contracts/authority.sol\":2118:2135  getPresidentBan() */\n      tag_242\n        /* \"contracts/authority.sol\":2118:2133  getPresidentBan */\n      tag_60\n        /* \"contracts/authority.sol\":2118:2135  getPresidentBan() */\n      jump\t// in\n    tag_242:\n        /* \"contracts/authority.sol\":2117:2135  !getPresidentBan() */\n      iszero\n        /* \"contracts/authority.sol\":2082:2135  msg.sender == getPresidentAdd() && !getPresidentBan() */\n    tag_241:\n        /* \"contracts/authority.sol\":2074:2159  require(msg.sender == getPresidentAdd() && !getPresidentBan(), \"Access is not valid\") */\n      tag_243\n      jumpi\n      mload(0x40)\n      0x08c379a000000000000000000000000000000000000000000000000000000000\n      dup2\n      mstore\n      0x04\n      add\n      tag_244\n      swap1\n      tag_98\n      jump\t// in\n    tag_244:\n      mload(0x40)\n      dup1\n      swap2\n      sub\n      swap1\n      revert\n    tag_243:\n        /* \"contracts/authority.sol\":1932:2159  if (TimeFirstElection < block.timestamp) {... */\n    tag_239:\n        /* \"contracts/authority.sol\":6449:6450  0 */\n      0x00\n        /* \"contracts/authority.sol\":6422:6434  newGCAddress */\n      dup2\n        /* \"contracts/authority.sol\":6422:6446  newGCAddress.code.length */\n      0xffffffffffffffffffffffffffffffffffffffff\n      and\n      extcodesize\n        /* \"contracts/authority.sol\":6422:6450  newGCAddress.code.length > 0 */\n      gt\n        /* \"contracts/authority.sol\":6418:6625  if (newGCAddress.code.length > 0) {... */\n      iszero\n      tag_246\n      jumpi\n        /* \"contracts/authority.sol\":6487:6499  newGCAddress */\n      dup1\n        /* \"contracts/authority.sol\":6467:6484  _pendingGCAddress */\n      0x01\n      0x00\n        /* \"contracts/authority.sol\":6467:6499  _pendingGCAddress = newGCAddress */\n      0x0100\n      exp\n      dup2\n      sload\n      dup2\n      0xffffffffffffffffffffffffffffffffffffffff\n      mul\n      not\n      and\n      swap1\n      dup4\n      0xffffffffffffffffffffffffffffffffffffffff\n      and\n      mul\n      or\n      swap1\n      sstore\n      pop\n        /* \"contracts/authority.sol\":6546:6558  newGCAddress */\n      dup1\n        /* \"contracts/authority.sol\":6519:6559  TheNextGCAddressWasElected(newGCAddress) */\n      0xffffffffffffffffffffffffffffffffffffffff\n      and\n      0xe8d8e3c7c3ebec0c177d0fe22d223f8b5071db39155104808d45027e368ba77a\n      mload(0x40)\n      mload(0x40)\n      dup1\n      swap2\n      sub\n      swap1\n      log2\n        /* \"contracts/authority.sol\":6418:6625  if (newGCAddress.code.length > 0) {... */\n      jump(tag_247)\n    tag_246:\n        /* \"contracts/authority.sol\":6612:6624  newGCAddress */\n      dup1\n        /* \"contracts/authority.sol\":6586:6625  TheAddressIsNotValidForGC(newGCAddress) */\n      mload(0x40)\n      0x84dbc6cb00000000000000000000000000000000000000000000000000000000\n      dup2\n      mstore\n      0x04\n      add\n      tag_248\n      swap2\n      swap1\n      tag_49\n      jump\t// in\n    tag_248:\n      mload(0x40)\n      dup1\n      swap2\n      sub\n      swap1\n      revert\n        /* \"contracts/authority.sol\":6418:6625  if (newGCAddress.code.length > 0) {... */\n    tag_247:\n        /* \"contracts/authority.sol\":6320:6635  function setPendingGovernanceContractAddress(address newGCAddress) public onlyRepublic {... */\n      pop\n      jump\t// out\n        /* \"contracts/faykGovernance.sol\":2620:2964  function transferCallerInfo() public {... */\n    tag_83:\n        /* \"contracts/faykGovernance.sol\":2704:2705  0 */\n      0x00\n        /* \"contracts/faykGovernance.sol\":2671:2682  _callerInfo */\n      0x08\n        /* \"contracts/faykGovernance.sol\":2671:2694  _callerInfo[msg.sender] */\n      0x00\n        /* \"contracts/faykGovernance.sol\":2683:2693  msg.sender */\n      caller\n        /* \"contracts/faykGovernance.sol\":2671:2694  _callerInfo[msg.sender] */\n      0xffffffffffffffffffffffffffffffffffffffff\n      and\n      0xffffffffffffffffffffffffffffffffffffffff\n      and\n      dup2\n      mstore\n      0x20\n      add\n      swap1\n      dup2\n      mstore\n      0x20\n      add\n      0x00\n      keccak256\n        /* \"contracts/faykGovernance.sol\":2671:2701  _callerInfo[msg.sender].roleId */\n      0x01\n      add\n      0x00\n      swap1\n      sload\n      swap1\n      0x0100\n      exp\n      swap1\n      div\n      0xffffffff\n      and\n        /* \"contracts/faykGovernance.sol\":2671:2705  _callerInfo[msg.sender].roleId > 0 */\n      0xffffffff\n      and\n      gt\n        /* \"contracts/faykGovernance.sol\":2671:2743  _callerInfo[msg.sender].roleId > 0 && _callerInfo[msg.sender].since == 0 */\n      dup1\n      iszero\n      tag_250\n      jumpi\n      pop\n        /* \"contracts/faykGovernance.sol\":2742:2743  0 */\n      0x00\n        /* \"contracts/faykGovernance.sol\":2709:2720  _callerInfo */\n      0x08\n        /* \"contracts/faykGovernance.sol\":2709:2732  _callerInfo[msg.sender] */\n      0x00\n        /* \"contracts/faykGovernance.sol\":2721:2731  msg.sender */\n      caller\n        /* \"contracts/faykGovernance.sol\":2709:2732  _callerInfo[msg.sender] */\n      0xffffffffffffffffffffffffffffffffffffffff\n      and\n      0xffffffffffffffffffffffffffffffffffffffff\n      and\n      dup2\n      mstore\n      0x20\n      add\n      swap1\n      dup2\n      mstore\n      0x20\n      add\n      0x00\n      keccak256\n        /* \"contracts/faykGovernance.sol\":2709:2738  _callerInfo[msg.sender].since */\n      0x01\n      add\n      0x04\n      swap1\n      sload\n      swap1\n      0x0100\n      exp\n      swap1\n      div\n      0xffffffffffff\n      and\n        /* \"contracts/faykGovernance.sol\":2709:2743  _callerInfo[msg.sender].since == 0 */\n      0xffffffffffff\n      and\n      eq\n        /* \"contracts/faykGovernance.sol\":2671:2743  _callerInfo[msg.sender].roleId > 0 && _callerInfo[msg.sender].since == 0 */\n    tag_250:\n        /* \"contracts/faykGovernance.sol\":2667:2956  if (_callerInfo[msg.sender].roleId > 0 && _callerInfo[msg.sender].since == 0) {... */\n      iszero\n      tag_251\n      jumpi\n        /* \"contracts/faykGovernance.sol\":2756:2767  _callerInfo */\n      0x08\n        /* \"contracts/faykGovernance.sol\":2756:2779  _callerInfo[msg.sender] */\n      0x00\n        /* \"contracts/faykGovernance.sol\":2768:2778  msg.sender */\n      caller\n        /* \"contracts/faykGovernance.sol\":2756:2779  _callerInfo[msg.sender] */\n      0xffffffffffffffffffffffffffffffffffffffff\n      and\n      0xffffffffffffffffffffffffffffffffffffffff\n      and\n      dup2\n      mstore\n      0x20\n      add\n      swap1\n      dup2\n      mstore\n      0x20\n      add\n      0x00\n      keccak256\n      pop\n        /* \"contracts/faykGovernance.sol\":2875:2886  _callerInfo */\n      0x08\n        /* \"contracts/faykGovernance.sol\":2875:2898  _callerInfo[msg.sender] */\n      0x00\n        /* \"contracts/faykGovernance.sol\":2887:2897  msg.sender */\n      caller\n        /* \"contracts/faykGovernance.sol\":2875:2898  _callerInfo[msg.sender] */\n      0xffffffffffffffffffffffffffffffffffffffff\n      and\n      0xffffffffffffffffffffffffffffffffffffffff\n      and\n      dup2\n      mstore\n      0x20\n      add\n      swap1\n      dup2\n      mstore\n      0x20\n      add\n      0x00\n      keccak256\n        /* \"contracts/faykGovernance.sol\":2875:2905  _callerInfo[msg.sender].roleId */\n      0x01\n      add\n      0x00\n      swap1\n      sload\n      swap1\n      0x0100\n      exp\n      swap1\n      div\n      0xffffffff\n      and\n        /* \"contracts/faykGovernance.sol\":2797:2906  AnOfficialWasConfirmed(msg.sender, _callerInfo[msg.sender].peopleName_satrap, _callerInfo[msg.sender].roleId) */\n      0xffffffff\n      and\n        /* \"contracts/faykGovernance.sol\":2832:2843  _callerInfo */\n      0x08\n        /* \"contracts/faykGovernance.sol\":2832:2855  _callerInfo[msg.sender] */\n      0x00\n        /* \"contracts/faykGovernance.sol\":2844:2854  msg.sender */\n      caller\n        /* \"contracts/faykGovernance.sol\":2832:2855  _callerInfo[msg.sender] */\n      0xffffffffffffffffffffffffffffffffffffffff\n      and\n      0xffffffffffffffffffffffffffffffffffffffff\n      and\n      dup2\n      mstore\n      0x20\n      add\n      swap1\n      dup2\n      mstore\n      0x20\n      add\n      0x00\n      keccak256\n        /* \"contracts/faykGovernance.sol\":2832:2873  _callerInfo[msg.sender].peopleName_satrap */\n      0x00\n      add\n      sload\n        /* \"contracts/faykGovernance.sol\":2820:2830  msg.sender */\n      caller\n        /* \"contracts/faykGovernance.sol\":2797:2906  AnOfficialWasConfirmed(msg.sender, _callerInfo[msg.sender].peopleName_satrap, _callerInfo[msg.sender].roleId) */\n      0xffffffffffffffffffffffffffffffffffffffff\n      and\n      0x04a5552f2d245eb6039b03d3a4f2aeeae275c3d6dc08931b837b5715fbbe5199\n      mload(0x40)\n      mload(0x40)\n      dup1\n      swap2\n      sub\n      swap1\n      log4\n        /* \"contracts/faykGovernance.sol\":2667:2956  if (_callerInfo[msg.sender].roleId > 0 && _callerInfo[msg.sender].since == 0) {... */\n      jump(tag_252)\n    tag_251:\n        /* \"contracts/faykGovernance.sol\":2932:2956  AccessOnlyForThePendig() */\n      mload(0x40)\n      0x6c4360f000000000000000000000000000000000000000000000000000000000\n      dup2\n      mstore\n      0x04\n      add\n      mload(0x40)\n      dup1\n      swap2\n      sub\n      swap1\n      revert\n        /* \"contracts/faykGovernance.sol\":2667:2956  if (_callerInfo[msg.sender].roleId > 0 && _callerInfo[msg.sender].since == 0) {... */\n    tag_252:\n        /* \"contracts/faykGovernance.sol\":2620:2964  function transferCallerInfo() public {... */\n      jump\t// out\n        /* \"contracts/authority.sol\":4436:4545  function getAuthorityAddress() public view returns (address) {... */\n    tag_85:\n        /* \"contracts/authority.sol\":4488:4495  address */\n      0x00\n        /* \"contracts/authority.sol\":4528:4532  this */\n      address\n        /* \"contracts/authority.sol\":4512:4533  return  address(this) */\n      swap1\n      pop\n        /* \"contracts/authority.sol\":4436:4545  function getAuthorityAddress() public view returns (address) {... */\n      swap1\n      jump\t// out\n        /* \"contracts/authority.sol\":6206:6310  function getPrimeMinisterBan() public view returns (bool) {... */\n    tag_88:\n        /* \"contracts/authority.sol\":6258:6262  bool */\n      0x00\n        /* \"contracts/authority.sol\":6282:6296  _primeMinister */\n      0x05\n        /* \"contracts/authority.sol\":6282:6302  _primeMinister.baned */\n      0x00\n      add\n      0x14\n      swap1\n      sload\n      swap1\n      0x0100\n      exp\n      swap1\n      div\n      0xff\n      and\n        /* \"contracts/authority.sol\":6275:6302  return _primeMinister.baned */\n      swap1\n      pop\n        /* \"contracts/authority.sol\":6206:6310  function getPrimeMinisterBan() public view returns (bool) {... */\n      swap1\n      jump\t// out\n        /* \"contracts/authority.sol\":6643:7062  function transferGovernanceContractAddress(address pendingGCAdd) public onlyPresident {... */\n    tag_92:\n        /* \"contracts/authority.sol\":2247:2264  getPresidentAdd() */\n      tag_256\n        /* \"contracts/authority.sol\":2247:2262  getPresidentAdd */\n      tag_57\n        /* \"contracts/authority.sol\":2247:2264  getPresidentAdd() */\n      jump\t// in\n    tag_256:\n        /* \"contracts/authority.sol\":2233:2264  msg.sender == getPresidentAdd() */\n      0xffffffffffffffffffffffffffffffffffffffff\n      and\n        /* \"contracts/authority.sol\":2233:2243  msg.sender */\n      caller\n        /* \"contracts/authority.sol\":2233:2264  msg.sender == getPresidentAdd() */\n      0xffffffffffffffffffffffffffffffffffffffff\n      and\n      eq\n        /* \"contracts/authority.sol\":2233:2286  msg.sender == getPresidentAdd() && !getPresidentBan() */\n      dup1\n      iszero\n      tag_257\n      jumpi\n      pop\n        /* \"contracts/authority.sol\":2269:2286  getPresidentBan() */\n      tag_258\n        /* \"contracts/authority.sol\":2269:2284  getPresidentBan */\n      tag_60\n        /* \"contracts/authority.sol\":2269:2286  getPresidentBan() */\n      jump\t// in\n    tag_258:\n        /* \"contracts/authority.sol\":2268:2286  !getPresidentBan() */\n      iszero\n        /* \"contracts/authority.sol\":2233:2286  msg.sender == getPresidentAdd() && !getPresidentBan() */\n    tag_257:\n        /* \"contracts/authority.sol\":2225:2310  require(msg.sender == getPresidentAdd() && !getPresidentBan(), \"Access is not valid\") */\n      tag_259\n      jumpi\n      mload(0x40)\n      0x08c379a000000000000000000000000000000000000000000000000000000000\n      dup2\n      mstore\n      0x04\n      add\n      tag_260\n      swap1\n      tag_98\n      jump\t// in\n    tag_260:\n      mload(0x40)\n      dup1\n      swap2\n      sub\n      swap1\n      revert\n    tag_259:\n        /* \"contracts/authority.sol\":6765:6777  pendingGCAdd */\n      dup1\n        /* \"contracts/authority.sol\":6744:6777  _pendingGCAddress == pendingGCAdd */\n      0xffffffffffffffffffffffffffffffffffffffff\n      and\n        /* \"contracts/authority.sol\":6744:6761  _pendingGCAddress */\n      0x01\n      0x00\n      swap1\n      sload\n      swap1\n      0x0100\n      exp\n      swap1\n      div\n      0xffffffffffffffffffffffffffffffffffffffff\n      and\n        /* \"contracts/authority.sol\":6744:6777  _pendingGCAddress == pendingGCAdd */\n      0xffffffffffffffffffffffffffffffffffffffff\n      and\n      sub\n        /* \"contracts/authority.sol\":6740:7054  if (_pendingGCAddress == pendingGCAdd) {... */\n      tag_262\n      jumpi\n        /* \"contracts/authority.sol\":6801:6818  _pendingGCAddress */\n      0x01\n      0x00\n        /* \"contracts/authority.sol\":6794:6818  delete _pendingGCAddress */\n      0x0100\n      exp\n      dup2\n      sload\n      swap1\n      0xffffffffffffffffffffffffffffffffffffffff\n      mul\n      not\n      and\n      swap1\n      sstore\n        /* \"contracts/authority.sol\":6855:6867  pendingGCAdd */\n      dup1\n        /* \"contracts/authority.sol\":6833:6844  _governance */\n      0x06\n        /* \"contracts/authority.sol\":6833:6852  _governance.roleAdd */\n      0x00\n      add\n      0x00\n        /* \"contracts/authority.sol\":6833:6867  _governance.roleAdd = pendingGCAdd */\n      0x0100\n      exp\n      dup2\n      sload\n      dup2\n      0xffffffffffffffffffffffffffffffffffffffff\n      mul\n      not\n      and\n      swap1\n      dup4\n      0xffffffffffffffffffffffffffffffffffffffff\n      and\n      mul\n      or\n      swap1\n      sstore\n      pop\n        /* \"contracts/authority.sol\":6882:6893  _governance */\n      0x06\n        /* \"contracts/authority.sol\":6882:6899  _governance.nonce */\n      0x00\n      add\n      0x15\n        /* \"contracts/authority.sol\":6882:6901  _governance.nonce++ */\n      dup2\n      dup2\n      swap1\n      sload\n      swap1\n      0x0100\n      exp\n      swap1\n      div\n      0xffffffff\n      and\n      dup1\n      swap3\n      swap2\n      swap1\n      tag_263\n      swap1\n      tag_121\n      jump\t// in\n    tag_263:\n      swap2\n      swap1\n      0x0100\n      exp\n      dup2\n      sload\n      dup2\n      0xffffffff\n      mul\n      not\n      and\n      swap1\n      dup4\n      0xffffffff\n      and\n      mul\n      or\n      swap1\n      sstore\n      pop\n      pop\n        /* \"contracts/authority.sol\":6970:6981  _governance */\n      0x06\n        /* \"contracts/authority.sol\":6970:6987  _governance.nonce */\n      0x00\n      add\n      0x15\n      swap1\n      sload\n      swap1\n      0x0100\n      exp\n      swap1\n      div\n      0xffffffff\n      and\n        /* \"contracts/authority.sol\":6921:6988  TheNewGCAddressWasConfirmed(_governance.roleAdd, _governance.nonce) */\n      0xffffffff\n      and\n        /* \"contracts/authority.sol\":6949:6960  _governance */\n      0x06\n        /* \"contracts/authority.sol\":6949:6968  _governance.roleAdd */\n      0x00\n      add\n      0x00\n      swap1\n      sload\n      swap1\n      0x0100\n      exp\n      swap1\n      div\n      0xffffffffffffffffffffffffffffffffffffffff\n      and\n        /* \"contracts/authority.sol\":6921:6988  TheNewGCAddressWasConfirmed(_governance.roleAdd, _governance.nonce) */\n      0xffffffffffffffffffffffffffffffffffffffff\n      and\n      0x5e86008a8467d1efccfe6cb6bd49ba7278d6af2745a1e6994e443322a4237093\n      mload(0x40)\n      mload(0x40)\n      dup1\n      swap2\n      sub\n      swap1\n      log3\n        /* \"contracts/authority.sol\":6740:7054  if (_pendingGCAddress == pendingGCAdd) {... */\n      jump(tag_264)\n    tag_262:\n        /* \"contracts/authority.sol\":7041:7053  pendingGCAdd */\n      dup1\n        /* \"contracts/authority.sol\":7015:7054  TheAddressIsNotValidForGC(pendingGCAdd) */\n      mload(0x40)\n      0x84dbc6cb00000000000000000000000000000000000000000000000000000000\n      dup2\n      mstore\n      0x04\n      add\n      tag_265\n      swap2\n      swap1\n      tag_49\n      jump\t// in\n    tag_265:\n      mload(0x40)\n      dup1\n      swap2\n      sub\n      swap1\n      revert\n        /* \"contracts/authority.sol\":6740:7054  if (_pendingGCAddress == pendingGCAdd) {... */\n    tag_264:\n        /* \"contracts/authority.sol\":6643:7062  function transferGovernanceContractAddress(address pendingGCAdd) public onlyPresident {... */\n      pop\n      jump\t// out\n        /* \"contracts/authority.sol\":7788:7879  function _setPresidentBaned(bool baned) private {... */\n    tag_107:\n        /* \"contracts/authority.sol\":7866:7871  baned */\n      dup1\n        /* \"contracts/authority.sol\":7847:7857  _president */\n      0x04\n        /* \"contracts/authority.sol\":7847:7863  _president.baned */\n      0x00\n      add\n      0x14\n        /* \"contracts/authority.sol\":7847:7871  _president.baned = baned */\n      0x0100\n      exp\n      dup2\n      sload\n      dup2\n      0xff\n      mul\n      not\n      and\n      swap1\n      dup4\n      iszero\n      iszero\n      mul\n      or\n      swap1\n      sstore\n      pop\n        /* \"contracts/authority.sol\":7788:7879  function _setPresidentBaned(bool baned) private {... */\n      pop\n      jump\t// out\n        /* \"contracts/authority.sol\":7887:7986  function _setPrimeMinisterBaned(bool baned) private {... */\n    tag_109:\n        /* \"contracts/authority.sol\":7973:7978  baned */\n      dup1\n        /* \"contracts/authority.sol\":7950:7964  _primeMinister */\n      0x05\n        /* \"contracts/authority.sol\":7950:7970  _primeMinister.baned */\n      0x00\n      add\n      0x14\n        /* \"contracts/authority.sol\":7950:7978  _primeMinister.baned = baned */\n      0x0100\n      exp\n      dup2\n      sload\n      dup2\n      0xff\n      mul\n      not\n      and\n      swap1\n      dup4\n      iszero\n      iszero\n      mul\n      or\n      swap1\n      sstore\n      pop\n        /* \"contracts/authority.sol\":7887:7986  function _setPrimeMinisterBaned(bool baned) private {... */\n      pop\n      jump\t// out\n        /* \"contracts/authority.sol\":7560:7780  function _transferRepublicAddress(address RAddress) private {... */\n    tag_161:\n        /* \"contracts/authority.sol\":7651:7659  RAddress */\n      dup1\n        /* \"contracts/authority.sol\":7631:7640  _Republic */\n      0x07\n        /* \"contracts/authority.sol\":7631:7648  _Republic.roleAdd */\n      0x00\n      add\n      0x00\n        /* \"contracts/authority.sol\":7631:7659  _Republic.roleAdd = RAddress */\n      0x0100\n      exp\n      dup2\n      sload\n      dup2\n      0xffffffffffffffffffffffffffffffffffffffff\n      mul\n      not\n      and\n      swap1\n      dup4\n      0xffffffffffffffffffffffffffffffffffffffff\n      and\n      mul\n      or\n      swap1\n      sstore\n      pop\n        /* \"contracts/authority.sol\":7670:7679  _Republic */\n      0x07\n        /* \"contracts/authority.sol\":7670:7685  _Republic.nonce */\n      0x00\n      add\n      0x15\n        /* \"contracts/authority.sol\":7670:7687  _Republic.nonce++ */\n      dup2\n      dup2\n      swap1\n      sload\n      swap1\n      0x0100\n      exp\n      swap1\n      div\n      0xffffffff\n      and\n      dup1\n      swap3\n      swap2\n      swap1\n      tag_269\n      swap1\n      tag_121\n      jump\t// in\n    tag_269:\n      swap2\n      swap1\n      0x0100\n      exp\n      dup2\n      sload\n      dup2\n      0xffffffff\n      mul\n      not\n      and\n      swap1\n      dup4\n      0xffffffff\n      and\n      mul\n      or\n      swap1\n      sstore\n      pop\n      pop\n        /* \"contracts/authority.sol\":7756:7765  _Republic */\n      0x07\n        /* \"contracts/authority.sol\":7756:7771  _Republic.nonce */\n      0x00\n      add\n      0x15\n      swap1\n      sload\n      swap1\n      0x0100\n      exp\n      swap1\n      div\n      0xffffffff\n      and\n        /* \"contracts/authority.sol\":7703:7772  TheNewRepublicAddressWasConfirmed(_Republic.roleAdd, _Republic.nonce) */\n      0xffffffff\n      and\n        /* \"contracts/authority.sol\":7737:7746  _Republic */\n      0x07\n        /* \"contracts/authority.sol\":7737:7754  _Republic.roleAdd */\n      0x00\n      add\n      0x00\n      swap1\n      sload\n      swap1\n      0x0100\n      exp\n      swap1\n      div\n      0xffffffffffffffffffffffffffffffffffffffff\n      and\n        /* \"contracts/authority.sol\":7703:7772  TheNewRepublicAddressWasConfirmed(_Republic.roleAdd, _Republic.nonce) */\n      0xffffffffffffffffffffffffffffffffffffffff\n      and\n      0xf7f7c26682668c39fd8c6dbca125bd9466e743b9e38acc3240867c139cd93c30\n      mload(0x40)\n      mload(0x40)\n      dup1\n      swap2\n      sub\n      swap1\n      log3\n        /* \"contracts/authority.sol\":7560:7780  function _transferRepublicAddress(address RAddress) private {... */\n      pop\n      jump\t// out\n        /* \"#utility.yul\":88:205   */\n    tag_271:\n        /* \"#utility.yul\":197:198   */\n      0x00\n        /* \"#utility.yul\":194:195   */\n      dup1\n        /* \"#utility.yul\":187:199   */\n      revert\n        /* \"#utility.yul\":334:460   */\n    tag_273:\n        /* \"#utility.yul\":371:378   */\n      0x00\n        /* \"#utility.yul\":411:453   */\n      0xffffffffffffffffffffffffffffffffffffffff\n        /* \"#utility.yul\":404:409   */\n      dup3\n        /* \"#utility.yul\":400:454   */\n      and\n        /* \"#utility.yul\":389:454   */\n      swap1\n      pop\n        /* \"#utility.yul\":334:460   */\n      swap2\n      swap1\n      pop\n      jump\t// out\n        /* \"#utility.yul\":466:562   */\n    tag_274:\n        /* \"#utility.yul\":503:510   */\n      0x00\n        /* \"#utility.yul\":532:556   */\n      tag_306\n        /* \"#utility.yul\":550:555   */\n      dup3\n        /* \"#utility.yul\":532:556   */\n      tag_273\n      jump\t// in\n    tag_306:\n        /* \"#utility.yul\":521:556   */\n      swap1\n      pop\n        /* \"#utility.yul\":466:562   */\n      swap2\n      swap1\n      pop\n      jump\t// out\n        /* \"#utility.yul\":568:690   */\n    tag_275:\n        /* \"#utility.yul\":641:665   */\n      tag_308\n        /* \"#utility.yul\":659:664   */\n      dup2\n        /* \"#utility.yul\":641:665   */\n      tag_274\n      jump\t// in\n    tag_308:\n        /* \"#utility.yul\":634:639   */\n      dup2\n        /* \"#utility.yul\":631:666   */\n      eq\n        /* \"#utility.yul\":621:684   */\n      tag_309\n      jumpi\n        /* \"#utility.yul\":680:681   */\n      0x00\n        /* \"#utility.yul\":677:678   */\n      dup1\n        /* \"#utility.yul\":670:682   */\n      revert\n        /* \"#utility.yul\":621:684   */\n    tag_309:\n        /* \"#utility.yul\":568:690   */\n      pop\n      jump\t// out\n        /* \"#utility.yul\":696:835   */\n    tag_276:\n        /* \"#utility.yul\":742:747   */\n      0x00\n        /* \"#utility.yul\":780:786   */\n      dup2\n        /* \"#utility.yul\":767:787   */\n      calldataload\n        /* \"#utility.yul\":758:787   */\n      swap1\n      pop\n        /* \"#utility.yul\":796:829   */\n      tag_311\n        /* \"#utility.yul\":823:828   */\n      dup2\n        /* \"#utility.yul\":796:829   */\n      tag_275\n      jump\t// in\n    tag_311:\n        /* \"#utility.yul\":696:835   */\n      swap3\n      swap2\n      pop\n      pop\n      jump\t// out\n        /* \"#utility.yul\":841:1170   */\n    tag_29:\n        /* \"#utility.yul\":900:906   */\n      0x00\n        /* \"#utility.yul\":949:951   */\n      0x20\n        /* \"#utility.yul\":937:946   */\n      dup3\n        /* \"#utility.yul\":928:935   */\n      dup5\n        /* \"#utility.yul\":924:947   */\n      sub\n        /* \"#utility.yul\":920:952   */\n      slt\n        /* \"#utility.yul\":917:1036   */\n      iszero\n      tag_313\n      jumpi\n        /* \"#utility.yul\":955:1034   */\n      tag_314\n      tag_271\n      jump\t// in\n    tag_314:\n        /* \"#utility.yul\":917:1036   */\n    tag_313:\n        /* \"#utility.yul\":1075:1076   */\n      0x00\n        /* \"#utility.yul\":1100:1153   */\n      tag_315\n        /* \"#utility.yul\":1145:1152   */\n      dup5\n        /* \"#utility.yul\":1136:1142   */\n      dup3\n        /* \"#utility.yul\":1125:1134   */\n      dup6\n        /* \"#utility.yul\":1121:1143   */\n      add\n        /* \"#utility.yul\":1100:1153   */\n      tag_276\n      jump\t// in\n    tag_315:\n        /* \"#utility.yul\":1090:1153   */\n      swap2\n      pop\n        /* \"#utility.yul\":1046:1163   */\n      pop\n        /* \"#utility.yul\":841:1170   */\n      swap3\n      swap2\n      pop\n      pop\n      jump\t// out\n        /* \"#utility.yul\":1176:1266   */\n    tag_277:\n        /* \"#utility.yul\":1210:1217   */\n      0x00\n        /* \"#utility.yul\":1253:1258   */\n      dup2\n        /* \"#utility.yul\":1246:1259   */\n      iszero\n        /* \"#utility.yul\":1239:1260   */\n      iszero\n        /* \"#utility.yul\":1228:1260   */\n      swap1\n      pop\n        /* \"#utility.yul\":1176:1266   */\n      swap2\n      swap1\n      pop\n      jump\t// out\n        /* \"#utility.yul\":1272:1388   */\n    tag_278:\n        /* \"#utility.yul\":1342:1363   */\n      tag_318\n        /* \"#utility.yul\":1357:1362   */\n      dup2\n        /* \"#utility.yul\":1342:1363   */\n      tag_277\n      jump\t// in\n    tag_318:\n        /* \"#utility.yul\":1335:1340   */\n      dup2\n        /* \"#utility.yul\":1332:1364   */\n      eq\n        /* \"#utility.yul\":1322:1382   */\n      tag_319\n      jumpi\n        /* \"#utility.yul\":1378:1379   */\n      0x00\n        /* \"#utility.yul\":1375:1376   */\n      dup1\n        /* \"#utility.yul\":1368:1380   */\n      revert\n        /* \"#utility.yul\":1322:1382   */\n    tag_319:\n        /* \"#utility.yul\":1272:1388   */\n      pop\n      jump\t// out\n        /* \"#utility.yul\":1394:1527   */\n    tag_279:\n        /* \"#utility.yul\":1437:1442   */\n      0x00\n        /* \"#utility.yul\":1475:1481   */\n      dup2\n        /* \"#utility.yul\":1462:1482   */\n      calldataload\n        /* \"#utility.yul\":1453:1482   */\n      swap1\n      pop\n        /* \"#utility.yul\":1491:1521   */\n      tag_321\n        /* \"#utility.yul\":1515:1520   */\n      dup2\n        /* \"#utility.yul\":1491:1521   */\n      tag_278\n      jump\t// in\n    tag_321:\n        /* \"#utility.yul\":1394:1527   */\n      swap3\n      swap2\n      pop\n      pop\n      jump\t// out\n        /* \"#utility.yul\":1533:1856   */\n    tag_33:\n        /* \"#utility.yul\":1589:1595   */\n      0x00\n        /* \"#utility.yul\":1638:1640   */\n      0x20\n        /* \"#utility.yul\":1626:1635   */\n      dup3\n        /* \"#utility.yul\":1617:1624   */\n      dup5\n        /* \"#utility.yul\":1613:1636   */\n      sub\n        /* \"#utility.yul\":1609:1641   */\n      slt\n        /* \"#utility.yul\":1606:1725   */\n      iszero\n      tag_323\n      jumpi\n        /* \"#utility.yul\":1644:1723   */\n      tag_324\n      tag_271\n      jump\t// in\n    tag_324:\n        /* \"#utility.yul\":1606:1725   */\n    tag_323:\n        /* \"#utility.yul\":1764:1765   */\n      0x00\n        /* \"#utility.yul\":1789:1839   */\n      tag_325\n        /* \"#utility.yul\":1831:1838   */\n      dup5\n        /* \"#utility.yul\":1822:1828   */\n      dup3\n        /* \"#utility.yul\":1811:1820   */\n      dup6\n        /* \"#utility.yul\":1807:1829   */\n      add\n        /* \"#utility.yul\":1789:1839   */\n      tag_279\n      jump\t// in\n    tag_325:\n        /* \"#utility.yul\":1779:1839   */\n      swap2\n      pop\n        /* \"#utility.yul\":1735:1849   */\n      pop\n        /* \"#utility.yul\":1533:1856   */\n      swap3\n      swap2\n      pop\n      pop\n      jump\t// out\n        /* \"#utility.yul\":1862:1939   */\n    tag_280:\n        /* \"#utility.yul\":1899:1906   */\n      0x00\n        /* \"#utility.yul\":1928:1933   */\n      dup2\n        /* \"#utility.yul\":1917:1933   */\n      swap1\n      pop\n        /* \"#utility.yul\":1862:1939   */\n      swap2\n      swap1\n      pop\n      jump\t// out\n        /* \"#utility.yul\":1945:2067   */\n    tag_281:\n        /* \"#utility.yul\":2018:2042   */\n      tag_328\n        /* \"#utility.yul\":2036:2041   */\n      dup2\n        /* \"#utility.yul\":2018:2042   */\n      tag_280\n      jump\t// in\n    tag_328:\n        /* \"#utility.yul\":2011:2016   */\n      dup2\n        /* \"#utility.yul\":2008:2043   */\n      eq\n        /* \"#utility.yul\":1998:2061   */\n      tag_329\n      jumpi\n        /* \"#utility.yul\":2057:2058   */\n      0x00\n        /* \"#utility.yul\":2054:2055   */\n      dup1\n        /* \"#utility.yul\":2047:2059   */\n      revert\n        /* \"#utility.yul\":1998:2061   */\n    tag_329:\n        /* \"#utility.yul\":1945:2067   */\n      pop\n      jump\t// out\n        /* \"#utility.yul\":2073:2212   */\n    tag_282:\n        /* \"#utility.yul\":2119:2124   */\n      0x00\n        /* \"#utility.yul\":2157:2163   */\n      dup2\n        /* \"#utility.yul\":2144:2164   */\n      calldataload\n        /* \"#utility.yul\":2135:2164   */\n      swap1\n      pop\n        /* \"#utility.yul\":2173:2206   */\n      tag_331\n        /* \"#utility.yul\":2200:2205   */\n      dup2\n        /* \"#utility.yul\":2173:2206   */\n      tag_281\n      jump\t// in\n    tag_331:\n        /* \"#utility.yul\":2073:2212   */\n      swap3\n      swap2\n      pop\n      pop\n      jump\t// out\n        /* \"#utility.yul\":2218:2311   */\n    tag_283:\n        /* \"#utility.yul\":2254:2261   */\n      0x00\n        /* \"#utility.yul\":2294:2304   */\n      0xffffffff\n        /* \"#utility.yul\":2287:2292   */\n      dup3\n        /* \"#utility.yul\":2283:2305   */\n      and\n        /* \"#utility.yul\":2272:2305   */\n      swap1\n      pop\n        /* \"#utility.yul\":2218:2311   */\n      swap2\n      swap1\n      pop\n      jump\t// out\n        /* \"#utility.yul\":2317:2437   */\n    tag_284:\n        /* \"#utility.yul\":2389:2412   */\n      tag_334\n        /* \"#utility.yul\":2406:2411   */\n      dup2\n        /* \"#utility.yul\":2389:2412   */\n      tag_283\n      jump\t// in\n    tag_334:\n        /* \"#utility.yul\":2382:2387   */\n      dup2\n        /* \"#utility.yul\":2379:2413   */\n      eq\n        /* \"#utility.yul\":2369:2431   */\n      tag_335\n      jumpi\n        /* \"#utility.yul\":2427:2428   */\n      0x00\n        /* \"#utility.yul\":2424:2425   */\n      dup1\n        /* \"#utility.yul\":2417:2429   */\n      revert\n        /* \"#utility.yul\":2369:2431   */\n    tag_335:\n        /* \"#utility.yul\":2317:2437   */\n      pop\n      jump\t// out\n        /* \"#utility.yul\":2443:2580   */\n    tag_285:\n        /* \"#utility.yul\":2488:2493   */\n      0x00\n        /* \"#utility.yul\":2526:2532   */\n      dup2\n        /* \"#utility.yul\":2513:2533   */\n      calldataload\n        /* \"#utility.yul\":2504:2533   */\n      swap1\n      pop\n        /* \"#utility.yul\":2542:2574   */\n      tag_337\n        /* \"#utility.yul\":2568:2573   */\n      dup2\n        /* \"#utility.yul\":2542:2574   */\n      tag_284\n      jump\t// in\n    tag_337:\n        /* \"#utility.yul\":2443:2580   */\n      swap3\n      swap2\n      pop\n      pop\n      jump\t// out\n        /* \"#utility.yul\":2586:2683   */\n    tag_286:\n        /* \"#utility.yul\":2622:2629   */\n      0x00\n        /* \"#utility.yul\":2662:2676   */\n      0xffffffffffff\n        /* \"#utility.yul\":2655:2660   */\n      dup3\n        /* \"#utility.yul\":2651:2677   */\n      and\n        /* \"#utility.yul\":2640:2677   */\n      swap1\n      pop\n        /* \"#utility.yul\":2586:2683   */\n      swap2\n      swap1\n      pop\n      jump\t// out\n        /* \"#utility.yul\":2689:2809   */\n    tag_287:\n        /* \"#utility.yul\":2761:2784   */\n      tag_340\n        /* \"#utility.yul\":2778:2783   */\n      dup2\n        /* \"#utility.yul\":2761:2784   */\n      tag_286\n      jump\t// in\n    tag_340:\n        /* \"#utility.yul\":2754:2759   */\n      dup2\n        /* \"#utility.yul\":2751:2785   */\n      eq\n        /* \"#utility.yul\":2741:2803   */\n      tag_341\n      jumpi\n        /* \"#utility.yul\":2799:2800   */\n      0x00\n        /* \"#utility.yul\":2796:2797   */\n      dup1\n        /* \"#utility.yul\":2789:2801   */\n      revert\n        /* \"#utility.yul\":2741:2803   */\n    tag_341:\n        /* \"#utility.yul\":2689:2809   */\n      pop\n      jump\t// out\n        /* \"#utility.yul\":2815:2952   */\n    tag_288:\n        /* \"#utility.yul\":2860:2865   */\n      0x00\n        /* \"#utility.yul\":2898:2904   */\n      dup2\n        /* \"#utility.yul\":2885:2905   */\n      calldataload\n        /* \"#utility.yul\":2876:2905   */\n      swap1\n      pop\n        /* \"#utility.yul\":2914:2946   */\n      tag_343\n        /* \"#utility.yul\":2940:2945   */\n      dup2\n        /* \"#utility.yul\":2914:2946   */\n      tag_287\n      jump\t// in\n    tag_343:\n        /* \"#utility.yul\":2815:2952   */\n      swap3\n      swap2\n      pop\n      pop\n      jump\t// out\n        /* \"#utility.yul\":2958:3865   */\n    tag_39:\n        /* \"#utility.yul\":3051:3057   */\n      0x00\n        /* \"#utility.yul\":3059:3065   */\n      dup1\n        /* \"#utility.yul\":3067:3073   */\n      0x00\n        /* \"#utility.yul\":3075:3081   */\n      dup1\n        /* \"#utility.yul\":3083:3089   */\n      0x00\n        /* \"#utility.yul\":3132:3135   */\n      0xa0\n        /* \"#utility.yul\":3120:3129   */\n      dup7\n        /* \"#utility.yul\":3111:3118   */\n      dup9\n        /* \"#utility.yul\":3107:3130   */\n      sub\n        /* \"#utility.yul\":3103:3136   */\n      slt\n        /* \"#utility.yul\":3100:3220   */\n      iszero\n      tag_345\n      jumpi\n        /* \"#utility.yul\":3139:3218   */\n      tag_346\n      tag_271\n      jump\t// in\n    tag_346:\n        /* \"#utility.yul\":3100:3220   */\n    tag_345:\n        /* \"#utility.yul\":3259:3260   */\n      0x00\n        /* \"#utility.yul\":3284:3337   */\n      tag_347\n        /* \"#utility.yul\":3329:3336   */\n      dup9\n        /* \"#utility.yul\":3320:3326   */\n      dup3\n        /* \"#utility.yul\":3309:3318   */\n      dup10\n        /* \"#utility.yul\":3305:3327   */\n      add\n        /* \"#utility.yul\":3284:3337   */\n      tag_276\n      jump\t// in\n    tag_347:\n        /* \"#utility.yul\":3274:3337   */\n      swap6\n      pop\n        /* \"#utility.yul\":3230:3347   */\n      pop\n        /* \"#utility.yul\":3386:3388   */\n      0x20\n        /* \"#utility.yul\":3412:3465   */\n      tag_348\n        /* \"#utility.yul\":3457:3464   */\n      dup9\n        /* \"#utility.yul\":3448:3454   */\n      dup3\n        /* \"#utility.yul\":3437:3446   */\n      dup10\n        /* \"#utility.yul\":3433:3455   */\n      add\n        /* \"#utility.yul\":3412:3465   */\n      tag_276\n      jump\t// in\n    tag_348:\n        /* \"#utility.yul\":3402:3465   */\n      swap5\n      pop\n        /* \"#utility.yul\":3357:3475   */\n      pop\n        /* \"#utility.yul\":3514:3516   */\n      0x40\n        /* \"#utility.yul\":3540:3593   */\n      tag_349\n        /* \"#utility.yul\":3585:3592   */\n      dup9\n        /* \"#utility.yul\":3576:3582   */\n      dup3\n        /* \"#utility.yul\":3565:3574   */\n      dup10\n        /* \"#utility.yul\":3561:3583   */\n      add\n        /* \"#utility.yul\":3540:3593   */\n      tag_282\n      jump\t// in\n    tag_349:\n        /* \"#utility.yul\":3530:3593   */\n      swap4\n      pop\n        /* \"#utility.yul\":3485:3603   */\n      pop\n        /* \"#utility.yul\":3642:3644   */\n      0x60\n        /* \"#utility.yul\":3668:3720   */\n      tag_350\n        /* \"#utility.yul\":3712:3719   */\n      dup9\n        /* \"#utility.yul\":3703:3709   */\n      dup3\n        /* \"#utility.yul\":3692:3701   */\n      dup10\n        /* \"#utility.yul\":3688:3710   */\n      add\n        /* \"#utility.yul\":3668:3720   */\n      tag_285\n      jump\t// in\n    tag_350:\n        /* \"#utility.yul\":3658:3720   */\n      swap3\n      pop\n        /* \"#utility.yul\":3613:3730   */\n      pop\n        /* \"#utility.yul\":3769:3772   */\n      0x80\n        /* \"#utility.yul\":3796:3848   */\n      tag_351\n        /* \"#utility.yul\":3840:3847   */\n      dup9\n        /* \"#utility.yul\":3831:3837   */\n      dup3\n        /* \"#utility.yul\":3820:3829   */\n      dup10\n        /* \"#utility.yul\":3816:3838   */\n      add\n        /* \"#utility.yul\":3796:3848   */\n      tag_288\n      jump\t// in\n    tag_351:\n        /* \"#utility.yul\":3786:3848   */\n      swap2\n      pop\n        /* \"#utility.yul\":3740:3858   */\n      pop\n        /* \"#utility.yul\":2958:3865   */\n      swap3\n      swap6\n      pop\n      swap3\n      swap6\n      swap1\n      swap4\n      pop\n      jump\t// out\n        /* \"#utility.yul\":3871:3989   */\n    tag_289:\n        /* \"#utility.yul\":3958:3982   */\n      tag_353\n        /* \"#utility.yul\":3976:3981   */\n      dup2\n        /* \"#utility.yul\":3958:3982   */\n      tag_274\n      jump\t// in\n    tag_353:\n        /* \"#utility.yul\":3953:3956   */\n      dup3\n        /* \"#utility.yul\":3946:3983   */\n      mstore\n        /* \"#utility.yul\":3871:3989   */\n      pop\n      pop\n      jump\t// out\n        /* \"#utility.yul\":3995:4217   */\n    tag_49:\n        /* \"#utility.yul\":4088:4092   */\n      0x00\n        /* \"#utility.yul\":4126:4128   */\n      0x20\n        /* \"#utility.yul\":4115:4124   */\n      dup3\n        /* \"#utility.yul\":4111:4129   */\n      add\n        /* \"#utility.yul\":4103:4129   */\n      swap1\n      pop\n        /* \"#utility.yul\":4139:4210   */\n      tag_355\n        /* \"#utility.yul\":4207:4208   */\n      0x00\n        /* \"#utility.yul\":4196:4205   */\n      dup4\n        /* \"#utility.yul\":4192:4209   */\n      add\n        /* \"#utility.yul\":4183:4189   */\n      dup5\n        /* \"#utility.yul\":4139:4210   */\n      tag_289\n      jump\t// in\n    tag_355:\n        /* \"#utility.yul\":3995:4217   */\n      swap3\n      swap2\n      pop\n      pop\n      jump\t// out\n        /* \"#utility.yul\":4223:4332   */\n    tag_290:\n        /* \"#utility.yul\":4304:4325   */\n      tag_357\n        /* \"#utility.yul\":4319:4324   */\n      dup2\n        /* \"#utility.yul\":4304:4325   */\n      tag_277\n      jump\t// in\n    tag_357:\n        /* \"#utility.yul\":4299:4302   */\n      dup3\n        /* \"#utility.yul\":4292:4326   */\n      mstore\n        /* \"#utility.yul\":4223:4332   */\n      pop\n      pop\n      jump\t// out\n        /* \"#utility.yul\":4338:4548   */\n    tag_62:\n        /* \"#utility.yul\":4425:4429   */\n      0x00\n        /* \"#utility.yul\":4463:4465   */\n      0x20\n        /* \"#utility.yul\":4452:4461   */\n      dup3\n        /* \"#utility.yul\":4448:4466   */\n      add\n        /* \"#utility.yul\":4440:4466   */\n      swap1\n      pop\n        /* \"#utility.yul\":4476:4541   */\n      tag_359\n        /* \"#utility.yul\":4538:4539   */\n      0x00\n        /* \"#utility.yul\":4527:4536   */\n      dup4\n        /* \"#utility.yul\":4523:4540   */\n      add\n        /* \"#utility.yul\":4514:4520   */\n      dup5\n        /* \"#utility.yul\":4476:4541   */\n      tag_290\n      jump\t// in\n    tag_359:\n        /* \"#utility.yul\":4338:4548   */\n      swap3\n      swap2\n      pop\n      pop\n      jump\t// out\n        /* \"#utility.yul\":4554:4669   */\n    tag_291:\n        /* \"#utility.yul\":4639:4662   */\n      tag_361\n        /* \"#utility.yul\":4656:4661   */\n      dup2\n        /* \"#utility.yul\":4639:4662   */\n      tag_283\n      jump\t// in\n    tag_361:\n        /* \"#utility.yul\":4634:4637   */\n      dup3\n        /* \"#utility.yul\":4627:4663   */\n      mstore\n        /* \"#utility.yul\":4554:4669   */\n      pop\n      pop\n      jump\t// out\n        /* \"#utility.yul\":4675:4893   */\n    tag_75:\n        /* \"#utility.yul\":4766:4770   */\n      0x00\n        /* \"#utility.yul\":4804:4806   */\n      0x20\n        /* \"#utility.yul\":4793:4802   */\n      dup3\n        /* \"#utility.yul\":4789:4807   */\n      add\n        /* \"#utility.yul\":4781:4807   */\n      swap1\n      pop\n        /* \"#utility.yul\":4817:4886   */\n      tag_363\n        /* \"#utility.yul\":4883:4884   */\n      0x00\n        /* \"#utility.yul\":4872:4881   */\n      dup4\n        /* \"#utility.yul\":4868:4885   */\n      add\n        /* \"#utility.yul\":4859:4865   */\n      dup5\n        /* \"#utility.yul\":4817:4886   */\n      tag_291\n      jump\t// in\n    tag_363:\n        /* \"#utility.yul\":4675:4893   */\n      swap3\n      swap2\n      pop\n      pop\n      jump\t// out\n        /* \"#utility.yul\":4899:5068   */\n    tag_292:\n        /* \"#utility.yul\":4983:4994   */\n      0x00\n        /* \"#utility.yul\":5017:5023   */\n      dup3\n        /* \"#utility.yul\":5012:5015   */\n      dup3\n        /* \"#utility.yul\":5005:5024   */\n      mstore\n        /* \"#utility.yul\":5057:5061   */\n      0x20\n        /* \"#utility.yul\":5052:5055   */\n      dup3\n        /* \"#utility.yul\":5048:5062   */\n      add\n        /* \"#utility.yul\":5033:5062   */\n      swap1\n      pop\n        /* \"#utility.yul\":4899:5068   */\n      swap3\n      swap2\n      pop\n      pop\n      jump\t// out\n        /* \"#utility.yul\":5074:5243   */\n    tag_293:\n        /* \"#utility.yul\":5214:5235   */\n      0x416363657373206973206e6f742076616c696400000000000000000000000000\n        /* \"#utility.yul\":5210:5211   */\n      0x00\n        /* \"#utility.yul\":5202:5208   */\n      dup3\n        /* \"#utility.yul\":5198:5212   */\n      add\n        /* \"#utility.yul\":5191:5236   */\n      mstore\n        /* \"#utility.yul\":5074:5243   */\n      pop\n      jump\t// out\n        /* \"#utility.yul\":5249:5615   */\n    tag_294:\n        /* \"#utility.yul\":5391:5394   */\n      0x00\n        /* \"#utility.yul\":5412:5479   */\n      tag_367\n        /* \"#utility.yul\":5476:5478   */\n      0x13\n        /* \"#utility.yul\":5471:5474   */\n      dup4\n        /* \"#utility.yul\":5412:5479   */\n      tag_292\n      jump\t// in\n    tag_367:\n        /* \"#utility.yul\":5405:5479   */\n      swap2\n      pop\n        /* \"#utility.yul\":5488:5581   */\n      tag_368\n        /* \"#utility.yul\":5577:5580   */\n      dup3\n        /* \"#utility.yul\":5488:5581   */\n      tag_293\n      jump\t// in\n    tag_368:\n        /* \"#utility.yul\":5606:5608   */\n      0x20\n        /* \"#utility.yul\":5601:5604   */\n      dup3\n        /* \"#utility.yul\":5597:5609   */\n      add\n        /* \"#utility.yul\":5590:5609   */\n      swap1\n      pop\n        /* \"#utility.yul\":5249:5615   */\n      swap2\n      swap1\n      pop\n      jump\t// out\n        /* \"#utility.yul\":5621:6040   */\n    tag_98:\n        /* \"#utility.yul\":5787:5791   */\n      0x00\n        /* \"#utility.yul\":5825:5827   */\n      0x20\n        /* \"#utility.yul\":5814:5823   */\n      dup3\n        /* \"#utility.yul\":5810:5828   */\n      add\n        /* \"#utility.yul\":5802:5828   */\n      swap1\n      pop\n        /* \"#utility.yul\":5874:5883   */\n      dup2\n        /* \"#utility.yul\":5868:5872   */\n      dup2\n        /* \"#utility.yul\":5864:5884   */\n      sub\n        /* \"#utility.yul\":5860:5861   */\n      0x00\n        /* \"#utility.yul\":5849:5858   */\n      dup4\n        /* \"#utility.yul\":5845:5862   */\n      add\n        /* \"#utility.yul\":5838:5885   */\n      mstore\n        /* \"#utility.yul\":5902:6033   */\n      tag_370\n        /* \"#utility.yul\":6028:6032   */\n      dup2\n        /* \"#utility.yul\":5902:6033   */\n      tag_294\n      jump\t// in\n    tag_370:\n        /* \"#utility.yul\":5894:6033   */\n      swap1\n      pop\n        /* \"#utility.yul\":5621:6040   */\n      swap2\n      swap1\n      pop\n      jump\t// out\n        /* \"#utility.yul\":6046:6226   */\n    tag_295:\n        /* \"#utility.yul\":6094:6171   */\n      0x4e487b7100000000000000000000000000000000000000000000000000000000\n        /* \"#utility.yul\":6091:6092   */\n      0x00\n        /* \"#utility.yul\":6084:6172   */\n      mstore\n        /* \"#utility.yul\":6191:6195   */\n      0x11\n        /* \"#utility.yul\":6188:6189   */\n      0x04\n        /* \"#utility.yul\":6181:6196   */\n      mstore\n        /* \"#utility.yul\":6215:6219   */\n      0x24\n        /* \"#utility.yul\":6212:6213   */\n      0x00\n        /* \"#utility.yul\":6205:6220   */\n      revert\n        /* \"#utility.yul\":6232:6407   */\n    tag_121:\n        /* \"#utility.yul\":6270:6273   */\n      0x00\n        /* \"#utility.yul\":6293:6316   */\n      tag_373\n        /* \"#utility.yul\":6310:6315   */\n      dup3\n        /* \"#utility.yul\":6293:6316   */\n      tag_283\n      jump\t// in\n    tag_373:\n        /* \"#utility.yul\":6284:6316   */\n      swap2\n      pop\n        /* \"#utility.yul\":6338:6348   */\n      0xffffffff\n        /* \"#utility.yul\":6331:6336   */\n      dup3\n        /* \"#utility.yul\":6328:6349   */\n      sub\n        /* \"#utility.yul\":6325:6372   */\n      tag_374\n      jumpi\n        /* \"#utility.yul\":6352:6370   */\n      tag_375\n      tag_295\n      jump\t// in\n    tag_375:\n        /* \"#utility.yul\":6325:6372   */\n    tag_374:\n        /* \"#utility.yul\":6399:6400   */\n      0x01\n        /* \"#utility.yul\":6392:6397   */\n      dup3\n        /* \"#utility.yul\":6388:6401   */\n      add\n        /* \"#utility.yul\":6381:6401   */\n      swap1\n      pop\n        /* \"#utility.yul\":6232:6407   */\n      swap2\n      swap1\n      pop\n      jump\t// out\n        /* \"#utility.yul\":6413:6490   */\n    tag_296:\n        /* \"#utility.yul\":6450:6457   */\n      0x00\n        /* \"#utility.yul\":6479:6484   */\n      dup2\n        /* \"#utility.yul\":6468:6484   */\n      swap1\n      pop\n        /* \"#utility.yul\":6413:6490   */\n      swap2\n      swap1\n      pop\n      jump\t// out\n        /* \"#utility.yul\":6496:6687   */\n    tag_164:\n        /* \"#utility.yul\":6536:6539   */\n      0x00\n        /* \"#utility.yul\":6555:6575   */\n      tag_378\n        /* \"#utility.yul\":6573:6574   */\n      dup3\n        /* \"#utility.yul\":6555:6575   */\n      tag_296\n      jump\t// in\n    tag_378:\n        /* \"#utility.yul\":6550:6575   */\n      swap2\n      pop\n        /* \"#utility.yul\":6589:6609   */\n      tag_379\n        /* \"#utility.yul\":6607:6608   */\n      dup4\n        /* \"#utility.yul\":6589:6609   */\n      tag_296\n      jump\t// in\n    tag_379:\n        /* \"#utility.yul\":6584:6609   */\n      swap3\n      pop\n        /* \"#utility.yul\":6632:6633   */\n      dup3\n        /* \"#utility.yul\":6629:6630   */\n      dup3\n        /* \"#utility.yul\":6625:6634   */\n      add\n        /* \"#utility.yul\":6618:6634   */\n      swap1\n      pop\n        /* \"#utility.yul\":6653:6656   */\n      dup1\n        /* \"#utility.yul\":6650:6651   */\n      dup3\n        /* \"#utility.yul\":6647:6657   */\n      gt\n        /* \"#utility.yul\":6644:6680   */\n      iszero\n      tag_380\n      jumpi\n        /* \"#utility.yul\":6660:6678   */\n      tag_381\n      tag_295\n      jump\t// in\n    tag_381:\n        /* \"#utility.yul\":6644:6680   */\n    tag_380:\n        /* \"#utility.yul\":6496:6687   */\n      swap3\n      swap2\n      pop\n      pop\n      jump\t// out\n        /* \"#utility.yul\":6693:6865   */\n    tag_297:\n        /* \"#utility.yul\":6833:6857   */\n      0x546865207265717565737420697320696e76616c696400000000000000000000\n        /* \"#utility.yul\":6829:6830   */\n      0x00\n        /* \"#utility.yul\":6821:6827   */\n      dup3\n        /* \"#utility.yul\":6817:6831   */\n      add\n        /* \"#utility.yul\":6810:6858   */\n      mstore\n        /* \"#utility.yul\":6693:6865   */\n      pop\n      jump\t// out\n        /* \"#utility.yul\":6871:7237   */\n    tag_298:\n        /* \"#utility.yul\":7013:7016   */\n      0x00\n        /* \"#utility.yul\":7034:7101   */\n      tag_384\n        /* \"#utility.yul\":7098:7100   */\n      0x16\n        /* \"#utility.yul\":7093:7096   */\n      dup4\n        /* \"#utility.yul\":7034:7101   */\n      tag_292\n      jump\t// in\n    tag_384:\n        /* \"#utility.yul\":7027:7101   */\n      swap2\n      pop\n        /* \"#utility.yul\":7110:7203   */\n      tag_385\n        /* \"#utility.yul\":7199:7202   */\n      dup3\n        /* \"#utility.yul\":7110:7203   */\n      tag_297\n      jump\t// in\n    tag_385:\n        /* \"#utility.yul\":7228:7230   */\n      0x20\n        /* \"#utility.yul\":7223:7226   */\n      dup3\n        /* \"#utility.yul\":7219:7231   */\n      add\n        /* \"#utility.yul\":7212:7231   */\n      swap1\n      pop\n        /* \"#utility.yul\":6871:7237   */\n      swap2\n      swap1\n      pop\n      jump\t// out\n        /* \"#utility.yul\":7243:7662   */\n    tag_207:\n        /* \"#utility.yul\":7409:7413   */\n      0x00\n        /* \"#utility.yul\":7447:7449   */\n      0x20\n        /* \"#utility.yul\":7436:7445   */\n      dup3\n        /* \"#utility.yul\":7432:7450   */\n      add\n        /* \"#utility.yul\":7424:7450   */\n      swap1\n      pop\n        /* \"#utility.yul\":7496:7505   */\n      dup2\n        /* \"#utility.yul\":7490:7494   */\n      dup2\n        /* \"#utility.yul\":7486:7506   */\n      sub\n        /* \"#utility.yul\":7482:7483   */\n      0x00\n        /* \"#utility.yul\":7471:7480   */\n      dup4\n        /* \"#utility.yul\":7467:7484   */\n      add\n        /* \"#utility.yul\":7460:7507   */\n      mstore\n        /* \"#utility.yul\":7524:7655   */\n      tag_387\n        /* \"#utility.yul\":7650:7654   */\n      dup2\n        /* \"#utility.yul\":7524:7655   */\n      tag_298\n      jump\t// in\n    tag_387:\n        /* \"#utility.yul\":7516:7655   */\n      swap1\n      pop\n        /* \"#utility.yul\":7243:7662   */\n      swap2\n      swap1\n      pop\n      jump\t// out\n        /* \"#utility.yul\":7668:7872   */\n    tag_214:\n        /* \"#utility.yul\":7707:7711   */\n      0x00\n        /* \"#utility.yul\":7727:7746   */\n      tag_389\n        /* \"#utility.yul\":7744:7745   */\n      dup3\n        /* \"#utility.yul\":7727:7746   */\n      tag_286\n      jump\t// in\n    tag_389:\n        /* \"#utility.yul\":7722:7746   */\n      swap2\n      pop\n        /* \"#utility.yul\":7760:7779   */\n      tag_390\n        /* \"#utility.yul\":7777:7778   */\n      dup4\n        /* \"#utility.yul\":7760:7779   */\n      tag_286\n      jump\t// in\n    tag_390:\n        /* \"#utility.yul\":7755:7779   */\n      swap3\n      pop\n        /* \"#utility.yul\":7803:7804   */\n      dup3\n        /* \"#utility.yul\":7800:7801   */\n      dup3\n        /* \"#utility.yul\":7796:7805   */\n      sub\n        /* \"#utility.yul\":7788:7805   */\n      swap1\n      pop\n        /* \"#utility.yul\":7827:7841   */\n      0xffffffffffff\n        /* \"#utility.yul\":7821:7825   */\n      dup2\n        /* \"#utility.yul\":7818:7842   */\n      gt\n        /* \"#utility.yul\":7815:7865   */\n      iszero\n      tag_391\n      jumpi\n        /* \"#utility.yul\":7845:7863   */\n      tag_392\n      tag_295\n      jump\t// in\n    tag_392:\n        /* \"#utility.yul\":7815:7865   */\n    tag_391:\n        /* \"#utility.yul\":7668:7872   */\n      swap3\n      swap2\n      pop\n      pop\n      jump\t// out\n        /* \"#utility.yul\":7878:7993   */\n    tag_299:\n        /* \"#utility.yul\":7963:7986   */\n      tag_394\n        /* \"#utility.yul\":7980:7985   */\n      dup2\n        /* \"#utility.yul\":7963:7986   */\n      tag_286\n      jump\t// in\n    tag_394:\n        /* \"#utility.yul\":7958:7961   */\n      dup3\n        /* \"#utility.yul\":7951:7987   */\n      mstore\n        /* \"#utility.yul\":7878:7993   */\n      pop\n      pop\n      jump\t// out\n        /* \"#utility.yul\":7999:8217   */\n    tag_216:\n        /* \"#utility.yul\":8090:8094   */\n      0x00\n        /* \"#utility.yul\":8128:8130   */\n      0x20\n        /* \"#utility.yul\":8117:8126   */\n      dup3\n        /* \"#utility.yul\":8113:8131   */\n      add\n        /* \"#utility.yul\":8105:8131   */\n      swap1\n      pop\n        /* \"#utility.yul\":8141:8210   */\n      tag_396\n        /* \"#utility.yul\":8207:8208   */\n      0x00\n        /* \"#utility.yul\":8196:8205   */\n      dup4\n        /* \"#utility.yul\":8192:8209   */\n      add\n        /* \"#utility.yul\":8183:8189   */\n      dup5\n        /* \"#utility.yul\":8141:8210   */\n      tag_299\n      jump\t// in\n    tag_396:\n        /* \"#utility.yul\":7999:8217   */\n      swap3\n      swap2\n      pop\n      pop\n      jump\t// out\n\n    auxdata: 0xa2646970667358221220df3fc02980fe8842fb4ebb052a2071a101a4d19b2ea7e4a013015f4a6a8d29dd64736f6c63430008140033\n}\n",
				"bytecode": {
					"linkReferences": {},
					"object": "60a060405234801562000010575f80fd5b506316a8c80042620000239190620000fd565b65ffffffffffff1660808165ffffffffffff16815250503360045f015f6101000a81548173ffffffffffffffffffffffffffffffffffffffff021916908373ffffffffffffffffffffffffffffffffffffffff16021790555060045f01601581819054906101000a900463ffffffff1680929190620000a29062000146565b91906101000a81548163ffffffff021916908363ffffffff1602179055505062000176565b5f819050919050565b7f4e487b71000000000000000000000000000000000000000000000000000000005f52601160045260245ffd5b5f6200010982620000c7565b91506200011683620000c7565b9250828201905080821115620001315762000130620000d0565b5b92915050565b5f63ffffffff82169050919050565b5f620001528262000137565b915063ffffffff82036200016b576200016a620000d0565b5b600182019050919050565b6080516124de620001b95f395f81816103620152818161077f01528181610d6f01528181611048015281816113db015281816116f3015261187e01526124de5ff3fe608060405234801561000f575f80fd5b5060043610610135575f3560e01c80636cf106d7116100b6578063c5a1c5c11161007a578063c5a1c5c1146102c3578063ca4cce68146102e1578063cd01cc28146102fd578063e47a9d4614610307578063e4f3e94714610325578063ee7126c31461034357610135565b80636cf106d7146102315780639c20fe711461024f578063a53da00b1461026b578063b5c09c6814610289578063c387b49c146102a557610135565b80631f72783a116100fd5780631f72783a146101a1578063289b3c0d146101bd57806352e305de146101db578063544fa93e146101f7578063664109971461021357610135565b8063054203bd1461013957806306e99d93146101555780630df4c3901461017157806314c58b511461017b57806318074eee14610197575b5f80fd5b610153600480360381019061014e91906120b2565b61035f565b005b61016f600480360381019061016a9190612112565b61052a565b005b6101796105bc565b005b610195600480360381019061019091906121e4565b61077c565b005b61019f610b94565b005b6101bb60048036038101906101b691906120b2565b610d6c565b005b6101c561101b565b6040516101d2919061226a565b60405180910390f35b6101f560048036038101906101f091906120b2565b611045565b005b610211600480360381019061020c91906120b2565b61128a565b005b61021b611396565b604051610228919061226a565b60405180910390f35b6102396113c0565b6040516102469190612292565b60405180910390f35b610269600480360381019061026491906120b2565b6113d8565b005b6102736116c6565b604051610280919061226a565b60405180910390f35b6102a3600480360381019061029e9190612112565b6116f0565b005b6102ad611836565b6040516102ba91906122ba565b60405180910390f35b6102cb611851565b6040516102d8919061226a565b60405180910390f35b6102fb60048036038101906102f691906120b2565b61187b565b005b610305611a93565b005b61030f611ca5565b60405161031c919061226a565b60405180910390f35b61032d611cac565b60405161033a9190612292565b60405180910390f35b61035d600480360381019061035891906120b2565b611cc4565b005b427f000000000000000000000000000000000000000000000000000000000000000065ffffffffffff16101561040957610397611851565b73ffffffffffffffffffffffffffffffffffffffff163373ffffffffffffffffffffffffffffffffffffffff1614610404576040517f08c379a00000000000000000000000000000000000000000000000000000000081526004016103fb9061232d565b60405180910390fd5b610490565b610411611396565b73ffffffffffffffffffffffffffffffffffffffff163373ffffffffffffffffffffffffffffffffffffffff16148015610450575061044e6113c0565b155b61048f576040517f08c379a00000000000000000000000000000000000000000000000000000000081526004016104869061232d565b60405180910390fd5b5b8060025f6101000a81548173ffffffffffffffffffffffffffffffffffffffff021916908373ffffffffffffffffffffffffffffffffffffffff1602179055506104da6001611f0d565b6104e46001611f2c565b8073ffffffffffffffffffffffffffffffffffffffff167f3553f1f7ef0242113266a8d183b621bb87468c99237f36b1150b6ab3d688b68660405160405180910390a250565b610532611396565b73ffffffffffffffffffffffffffffffffffffffff163373ffffffffffffffffffffffffffffffffffffffff16148015610571575061056f6113c0565b155b6105b0576040517f08c379a00000000000000000000000000000000000000000000000000000000081526004016105a79061232d565b60405180910390fd5b6105b981611f2c565b50565b3373ffffffffffffffffffffffffffffffffffffffff1660025f9054906101000a900473ffffffffffffffffffffffffffffffffffffffff1673ffffffffffffffffffffffffffffffffffffffff16036107485760025f6101000a81549073ffffffffffffffffffffffffffffffffffffffff02191690553360045f015f6101000a81548173ffffffffffffffffffffffffffffffffffffffff021916908373ffffffffffffffffffffffffffffffffffffffff16021790555060045f01601581819054906101000a900463ffffffff168092919061069a90612378565b91906101000a81548163ffffffff021916908363ffffffff160217905550506106c25f611f0d565b60045f0160159054906101000a900463ffffffff1663ffffffff1660045f015f9054906101000a900473ffffffffffffffffffffffffffffffffffffffff1673ffffffffffffffffffffffffffffffffffffffff167f05ad9b3688012cd825c1bfb941e4f5afb2558af6af3deaddf01dbb5e85abdaf960405160405180910390a361077a565b6040517f6c4360f000000000000000000000000000000000000000000000000000000000815260040160405180910390fd5b565b427f000000000000000000000000000000000000000000000000000000000000000065ffffffffffff161015610826576107b4611851565b73ffffffffffffffffffffffffffffffffffffffff163373ffffffffffffffffffffffffffffffffffffffff1614610821576040517f08c379a00000000000000000000000000000000000000000000000000000000081526004016108189061232d565b60405180910390fd5b6108ad565b61082e6116c6565b73ffffffffffffffffffffffffffffffffffffffff163373ffffffffffffffffffffffffffffffffffffffff1614801561086d575061086b611cac565b155b6108ac576040517f08c379a00000000000000000000000000000000000000000000000000000000081526004016108a39061232d565b60405180910390fd5b5b5f73ffffffffffffffffffffffffffffffffffffffff168573ffffffffffffffffffffffffffffffffffffffff16146109885760085f8673ffffffffffffffffffffffffffffffffffffffff1673ffffffffffffffffffffffffffffffffffffffff1681526020019081526020015f205f8082015f9055600182015f6101000a81549063ffffffff02191690556001820160046101000a81549065ffffffffffff021916905560018201600a6101000a81549065ffffffffffff02191690556001820160106101000a81549065ffffffffffff021916905550505b8260085f8673ffffffffffffffffffffffffffffffffffffffff1673ffffffffffffffffffffffffffffffffffffffff1681526020019081526020015f205f015414158015610a3257508163ffffffff1660085f8673ffffffffffffffffffffffffffffffffffffffff1673ffffffffffffffffffffffffffffffffffffffff1681526020019081526020015f206001015f9054906101000a900463ffffffff1663ffffffff1614155b15610b8c578260085f8673ffffffffffffffffffffffffffffffffffffffff1673ffffffffffffffffffffffffffffffffffffffff1681526020019081526020015f205f01819055508160085f8673ffffffffffffffffffffffffffffffffffffffff1673ffffffffffffffffffffffffffffffffffffffff1681526020019081526020015f206001015f6101000a81548163ffffffff021916908363ffffffff1602179055508060085f8673ffffffffffffffffffffffffffffffffffffffff1673ffffffffffffffffffffffffffffffffffffffff1681526020019081526020015f2060010160106101000a81548165ffffffffffff021916908365ffffffffffff1602179055508163ffffffff16838573ffffffffffffffffffffffffffffffffffffffff167f5c43a67d451cacaddc8309af64192a4ebee009b9cab5eeb59ec1fb77dd3abcbc60405160405180910390a4610b8d565b5b5050505050565b3373ffffffffffffffffffffffffffffffffffffffff1660035f9054906101000a900473ffffffffffffffffffffffffffffffffffffffff1673ffffffffffffffffffffffffffffffffffffffff1603610d385760035f6101000a81549073ffffffffffffffffffffffffffffffffffffffff02191690553360055f015f6101000a81548173ffffffffffffffffffffffffffffffffffffffff021916908373ffffffffffffffffffffffffffffffffffffffff16021790555060055f01601581819054906101000a900463ffffffff1680929190610c7290612378565b91906101000a81548163ffffffff021916908363ffffffff1602179055505060055f0160149054906101000a900460ff1615610cb257610cb15f611f2c565b5b60055f0160159054906101000a900463ffffffff1663ffffffff1660055f015f9054906101000a900473ffffffffffffffffffffffffffffffffffffffff1673ffffffffffffffffffffffffffffffffffffffff167f11e1b985c07e1bf3fec9bfd0bdb8c4a8e870ba2b26aa89fe50a6a19132ca10fd60405160405180910390a3610d6a565b6040517f6c4360f000000000000000000000000000000000000000000000000000000000815260040160405180910390fd5b565b427f000000000000000000000000000000000000000000000000000000000000000065ffffffffffff161015610e1657610da4611851565b73ffffffffffffffffffffffffffffffffffffffff163373ffffffffffffffffffffffffffffffffffffffff1614610e11576040517f08c379a0000000000000000000000000000000000000000000000000000000008152600401610e089061232d565b60405180910390fd5b610e9d565b610e1e611396565b73ffffffffffffffffffffffffffffffffffffffff163373ffffffffffffffffffffffffffffffffffffffff16148015610e5d5750610e5b6113c0565b155b610e9c576040517f08c379a0000000000000000000000000000000000000000000000000000000008152600401610e939061232d565b60405180910390fd5b5b5f8173ffffffffffffffffffffffffffffffffffffffff163b1115610fdb573373ffffffffffffffffffffffffffffffffffffffff1660045f015f9054906101000a900473ffffffffffffffffffffffffffffffffffffffff1673ffffffffffffffffffffffffffffffffffffffff1603610f2057610f1b81611f4b565b610fd6565b6213c68042610f2f91906123ac565b600360146101000a81548165ffffffffffff021916908365ffffffffffff160217905550805f806101000a81548173ffffffffffffffffffffffffffffffffffffffff021916908373ffffffffffffffffffffffffffffffffffffffff1602179055508073ffffffffffffffffffffffffffffffffffffffff167f675b770e821ba4aad20be77c58f912d689226272e805637f42f838a6035eed8660405160405180910390a25b611018565b806040517fc632231500000000000000000000000000000000000000000000000000000000815260040161100f919061226a565b60405180910390fd5b50565b5f60065f015f9054906101000a900473ffffffffffffffffffffffffffffffffffffffff16905090565b427f000000000000000000000000000000000000000000000000000000000000000065ffffffffffff1610156110ef5761107d611851565b73ffffffffffffffffffffffffffffffffffffffff163373ffffffffffffffffffffffffffffffffffffffff16146110ea576040517f08c379a00000000000000000000000000000000000000000000000000000000081526004016110e19061232d565b60405180910390fd5b611176565b6110f7611396565b73ffffffffffffffffffffffffffffffffffffffff163373ffffffffffffffffffffffffffffffffffffffff1614801561113657506111346113c0565b155b611175576040517f08c379a000000000000000000000000000000000000000000000000000000000815260040161116c9061232d565b60405180910390fd5b5b8073ffffffffffffffffffffffffffffffffffffffff165f8054906101000a900473ffffffffffffffffffffffffffffffffffffffff1673ffffffffffffffffffffffffffffffffffffffff160361124a57600360146101000a81549065ffffffffffff02191690555f806101000a81549073ffffffffffffffffffffffffffffffffffffffff02191690558073ffffffffffffffffffffffffffffffffffffffff167ff299f61c7e493f99b20cb36c587ca903d085d5206bfe4452d295711e372da02960405160405180910390a2611287565b806040517fc632231500000000000000000000000000000000000000000000000000000000815260040161127e919061226a565b60405180910390fd5b50565b611292611396565b73ffffffffffffffffffffffffffffffffffffffff163373ffffffffffffffffffffffffffffffffffffffff161480156112d157506112cf6113c0565b155b611310576040517f08c379a00000000000000000000000000000000000000000000000000000000081526004016113079061232d565b60405180910390fd5b8060035f6101000a81548173ffffffffffffffffffffffffffffffffffffffff021916908373ffffffffffffffffffffffffffffffffffffffff1602179055508073ffffffffffffffffffffffffffffffffffffffff167fff3cad3ee28c342ad5f3d7c8ff8559ee4d21eb48494092b82a1652e443b3420b60405160405180910390a250565b5f60045f015f9054906101000a900473ffffffffffffffffffffffffffffffffffffffff16905090565b5f60045f0160149054906101000a900460ff16905090565b427f000000000000000000000000000000000000000000000000000000000000000065ffffffffffff16101561148257611410611851565b73ffffffffffffffffffffffffffffffffffffffff163373ffffffffffffffffffffffffffffffffffffffff161461147d576040517f08c379a00000000000000000000000000000000000000000000000000000000081526004016114749061232d565b60405180910390fd5b611509565b61148a611396565b73ffffffffffffffffffffffffffffffffffffffff163373ffffffffffffffffffffffffffffffffffffffff161480156114c957506114c76113c0565b155b611508576040517f08c379a00000000000000000000000000000000000000000000000000000000081526004016114ff9061232d565b60405180910390fd5b5b42600360149054906101000a900465ffffffffffff1665ffffffffffff161015611667575f600360149054906101000a900465ffffffffffff1665ffffffffffff160361158b576040517f08c379a000000000000000000000000000000000000000000000000000000000815260040161158290612429565b60405180910390fd5b8073ffffffffffffffffffffffffffffffffffffffff165f8054906101000a900473ffffffffffffffffffffffffffffffffffffffff1673ffffffffffffffffffffffffffffffffffffffff160361162557600360146101000a81549065ffffffffffff02191690555f806101000a81549073ffffffffffffffffffffffffffffffffffffffff021916905561162081611f4b565b611662565b806040517fc6322315000000000000000000000000000000000000000000000000000000008152600401611659919061226a565b60405180910390fd5b6116c3565b42600360149054906101000a900465ffffffffffff166116879190612447565b6040517f223a6cbb0000000000000000000000000000000000000000000000000000000081526004016116ba919061248f565b60405180910390fd5b50565b5f60055f015f9054906101000a900473ffffffffffffffffffffffffffffffffffffffff16905090565b427f000000000000000000000000000000000000000000000000000000000000000065ffffffffffff16101561179a57611728611851565b73ffffffffffffffffffffffffffffffffffffffff163373ffffffffffffffffffffffffffffffffffffffff1614611795576040517f08c379a000000000000000000000000000000000000000000000000000000000815260040161178c9061232d565b60405180910390fd5b611821565b6117a2611396565b73ffffffffffffffffffffffffffffffffffffffff163373ffffffffffffffffffffffffffffffffffffffff161480156117e157506117df6113c0565b155b611820576040517f08c379a00000000000000000000000000000000000000000000000000000000081526004016118179061232d565b60405180910390fd5b5b61182a81611f0d565b61183381611f2c565b50565b5f60065f0160159054906101000a900463ffffffff16905090565b5f60075f015f9054906101000a900473ffffffffffffffffffffffffffffffffffffffff16905090565b427f000000000000000000000000000000000000000000000000000000000000000065ffffffffffff161015611925576118b3611851565b73ffffffffffffffffffffffffffffffffffffffff163373ffffffffffffffffffffffffffffffffffffffff1614611920576040517f08c379a00000000000000000000000000000000000000000000000000000000081526004016119179061232d565b60405180910390fd5b6119ac565b61192d611396565b73ffffffffffffffffffffffffffffffffffffffff163373ffffffffffffffffffffffffffffffffffffffff1614801561196c575061196a6113c0565b155b6119ab576040517f08c379a00000000000000000000000000000000000000000000000000000000081526004016119a29061232d565b60405180910390fd5b5b5f8173ffffffffffffffffffffffffffffffffffffffff163b1115611a53578060015f6101000a81548173ffffffffffffffffffffffffffffffffffffffff021916908373ffffffffffffffffffffffffffffffffffffffff1602179055508073ffffffffffffffffffffffffffffffffffffffff167fe8d8e3c7c3ebec0c177d0fe22d223f8b5071db39155104808d45027e368ba77a60405160405180910390a2611a90565b806040517f84dbc6cb000000000000000000000000000000000000000000000000000000008152600401611a87919061226a565b60405180910390fd5b50565b5f60085f3373ffffffffffffffffffffffffffffffffffffffff1673ffffffffffffffffffffffffffffffffffffffff1681526020019081526020015f206001015f9054906101000a900463ffffffff1663ffffffff16118015611b5057505f60085f3373ffffffffffffffffffffffffffffffffffffffff1673ffffffffffffffffffffffffffffffffffffffff1681526020019081526020015f2060010160049054906101000a900465ffffffffffff1665ffffffffffff16145b15611c715760085f3373ffffffffffffffffffffffffffffffffffffffff1673ffffffffffffffffffffffffffffffffffffffff1681526020019081526020015f205060085f3373ffffffffffffffffffffffffffffffffffffffff1673ffffffffffffffffffffffffffffffffffffffff1681526020019081526020015f206001015f9054906101000a900463ffffffff1663ffffffff1660085f3373ffffffffffffffffffffffffffffffffffffffff1673ffffffffffffffffffffffffffffffffffffffff1681526020019081526020015f205f01543373ffffffffffffffffffffffffffffffffffffffff167f04a5552f2d245eb6039b03d3a4f2aeeae275c3d6dc08931b837b5715fbbe519960405160405180910390a4611ca3565b6040517f6c4360f000000000000000000000000000000000000000000000000000000000815260040160405180910390fd5b565b5f30905090565b5f60055f0160149054906101000a900460ff16905090565b611ccc611396565b73ffffffffffffffffffffffffffffffffffffffff163373ffffffffffffffffffffffffffffffffffffffff16148015611d0b5750611d096113c0565b155b611d4a576040517f08c379a0000000000000000000000000000000000000000000000000000000008152600401611d419061232d565b60405180910390fd5b8073ffffffffffffffffffffffffffffffffffffffff1660015f9054906101000a900473ffffffffffffffffffffffffffffffffffffffff1673ffffffffffffffffffffffffffffffffffffffff1603611ecd5760015f6101000a81549073ffffffffffffffffffffffffffffffffffffffff02191690558060065f015f6101000a81548173ffffffffffffffffffffffffffffffffffffffff021916908373ffffffffffffffffffffffffffffffffffffffff16021790555060065f01601581819054906101000a900463ffffffff1680929190611e2890612378565b91906101000a81548163ffffffff021916908363ffffffff1602179055505060065f0160159054906101000a900463ffffffff1663ffffffff1660065f015f9054906101000a900473ffffffffffffffffffffffffffffffffffffffff1673ffffffffffffffffffffffffffffffffffffffff167f5e86008a8467d1efccfe6cb6bd49ba7278d6af2745a1e6994e443322a423709360405160405180910390a3611f0a565b806040517f84dbc6cb000000000000000000000000000000000000000000000000000000008152600401611f01919061226a565b60405180910390fd5b50565b8060045f0160146101000a81548160ff02191690831515021790555050565b8060055f0160146101000a81548160ff02191690831515021790555050565b8060075f015f6101000a81548173ffffffffffffffffffffffffffffffffffffffff021916908373ffffffffffffffffffffffffffffffffffffffff16021790555060075f01601581819054906101000a900463ffffffff1680929190611fb190612378565b91906101000a81548163ffffffff021916908363ffffffff1602179055505060075f0160159054906101000a900463ffffffff1663ffffffff1660075f015f9054906101000a900473ffffffffffffffffffffffffffffffffffffffff1673ffffffffffffffffffffffffffffffffffffffff167ff7f7c26682668c39fd8c6dbca125bd9466e743b9e38acc3240867c139cd93c3060405160405180910390a350565b5f80fd5b5f73ffffffffffffffffffffffffffffffffffffffff82169050919050565b5f61208182612058565b9050919050565b61209181612077565b811461209b575f80fd5b50565b5f813590506120ac81612088565b92915050565b5f602082840312156120c7576120c6612054565b5b5f6120d48482850161209e565b91505092915050565b5f8115159050919050565b6120f1816120dd565b81146120fb575f80fd5b50565b5f8135905061210c816120e8565b92915050565b5f6020828403121561212757612126612054565b5b5f612134848285016120fe565b91505092915050565b5f819050919050565b61214f8161213d565b8114612159575f80fd5b50565b5f8135905061216a81612146565b92915050565b5f63ffffffff82169050919050565b61218881612170565b8114612192575f80fd5b50565b5f813590506121a38161217f565b92915050565b5f65ffffffffffff82169050919050565b6121c3816121a9565b81146121cd575f80fd5b50565b5f813590506121de816121ba565b92915050565b5f805f805f60a086880312156121fd576121fc612054565b5b5f61220a8882890161209e565b955050602061221b8882890161209e565b945050604061222c8882890161215c565b935050606061223d88828901612195565b925050608061224e888289016121d0565b9150509295509295909350565b61226481612077565b82525050565b5f60208201905061227d5f83018461225b565b92915050565b61228c816120dd565b82525050565b5f6020820190506122a55f830184612283565b92915050565b6122b481612170565b82525050565b5f6020820190506122cd5f8301846122ab565b92915050565b5f82825260208201905092915050565b7f416363657373206973206e6f742076616c6964000000000000000000000000005f82015250565b5f6123176013836122d3565b9150612322826122e3565b602082019050919050565b5f6020820190508181035f8301526123448161230b565b9050919050565b7f4e487b71000000000000000000000000000000000000000000000000000000005f52601160045260245ffd5b5f61238282612170565b915063ffffffff82036123985761239761234b565b5b600182019050919050565b5f819050919050565b5f6123b6826123a3565b91506123c1836123a3565b92508282019050808211156123d9576123d861234b565b5b92915050565b7f546865207265717565737420697320696e76616c6964000000000000000000005f82015250565b5f6124136016836122d3565b915061241e826123df565b602082019050919050565b5f6020820190508181035f83015261244081612407565b9050919050565b5f612451826121a9565b915061245c836121a9565b9250828203905065ffffffffffff81111561247a5761247961234b565b5b92915050565b612489816121a9565b82525050565b5f6020820190506124a25f830184612480565b9291505056fea2646970667358221220df3fc02980fe8842fb4ebb052a2071a101a4d19b2ea7e4a013015f4a6a8d29dd64736f6c63430008140033",
					"opcodes": "PUSH1 0xA0 PUSH1 0x40 MSTORE CALLVALUE DUP1 ISZERO PUSH3 0x10 JUMPI PUSH0 DUP1 REVERT JUMPDEST POP PUSH4 0x16A8C800 TIMESTAMP PUSH3 0x23 SWAP2 SWAP1 PUSH3 0xFD JUMP JUMPDEST PUSH6 0xFFFFFFFFFFFF AND PUSH1 0x80 DUP2 PUSH6 0xFFFFFFFFFFFF AND DUP2 MSTORE POP POP CALLER PUSH1 0x4 PUSH0 ADD PUSH0 PUSH2 0x100 EXP DUP2 SLOAD DUP2 PUSH20 0xFFFFFFFFFFFFFFFFFFFFFFFFFFFFFFFFFFFFFFFF MUL NOT AND SWAP1 DUP4 PUSH20 0xFFFFFFFFFFFFFFFFFFFFFFFFFFFFFFFFFFFFFFFF AND MUL OR SWAP1 SSTORE POP PUSH1 0x4 PUSH0 ADD PUSH1 0x15 DUP2 DUP2 SWAP1 SLOAD SWAP1 PUSH2 0x100 EXP SWAP1 DIV PUSH4 0xFFFFFFFF AND DUP1 SWAP3 SWAP2 SWAP1 PUSH3 0xA2 SWAP1 PUSH3 0x146 JUMP JUMPDEST SWAP2 SWAP1 PUSH2 0x100 EXP DUP2 SLOAD DUP2 PUSH4 0xFFFFFFFF MUL NOT AND SWAP1 DUP4 PUSH4 0xFFFFFFFF AND MUL OR SWAP1 SSTORE POP POP PUSH3 0x176 JUMP JUMPDEST PUSH0 DUP2 SWAP1 POP SWAP2 SWAP1 POP JUMP JUMPDEST PUSH32 0x4E487B7100000000000000000000000000000000000000000000000000000000 PUSH0 MSTORE PUSH1 0x11 PUSH1 0x4 MSTORE PUSH1 0x24 PUSH0 REVERT JUMPDEST PUSH0 PUSH3 0x109 DUP3 PUSH3 0xC7 JUMP JUMPDEST SWAP2 POP PUSH3 0x116 DUP4 PUSH3 0xC7 JUMP JUMPDEST SWAP3 POP DUP3 DUP3 ADD SWAP1 POP DUP1 DUP3 GT ISZERO PUSH3 0x131 JUMPI PUSH3 0x130 PUSH3 0xD0 JUMP JUMPDEST JUMPDEST SWAP3 SWAP2 POP POP JUMP JUMPDEST PUSH0 PUSH4 0xFFFFFFFF DUP3 AND SWAP1 POP SWAP2 SWAP1 POP JUMP JUMPDEST PUSH0 PUSH3 0x152 DUP3 PUSH3 0x137 JUMP JUMPDEST SWAP2 POP PUSH4 0xFFFFFFFF DUP3 SUB PUSH3 0x16B JUMPI PUSH3 0x16A PUSH3 0xD0 JUMP JUMPDEST JUMPDEST PUSH1 0x1 DUP3 ADD SWAP1 POP SWAP2 SWAP1 POP JUMP JUMPDEST PUSH1 0x80 MLOAD PUSH2 0x24DE PUSH3 0x1B9 PUSH0 CODECOPY PUSH0 DUP2 DUP2 PUSH2 0x362 ADD MSTORE DUP2 DUP2 PUSH2 0x77F ADD MSTORE DUP2 DUP2 PUSH2 0xD6F ADD MSTORE DUP2 DUP2 PUSH2 0x1048 ADD MSTORE DUP2 DUP2 PUSH2 0x13DB ADD MSTORE DUP2 DUP2 PUSH2 0x16F3 ADD MSTORE PUSH2 0x187E ADD MSTORE PUSH2 0x24DE PUSH0 RETURN INVALID PUSH1 0x80 PUSH1 0x40 MSTORE CALLVALUE DUP1 ISZERO PUSH2 0xF JUMPI PUSH0 DUP1 REVERT JUMPDEST POP PUSH1 0x4 CALLDATASIZE LT PUSH2 0x135 JUMPI PUSH0 CALLDATALOAD PUSH1 0xE0 SHR DUP1 PUSH4 0x6CF106D7 GT PUSH2 0xB6 JUMPI DUP1 PUSH4 0xC5A1C5C1 GT PUSH2 0x7A JUMPI DUP1 PUSH4 0xC5A1C5C1 EQ PUSH2 0x2C3 JUMPI DUP1 PUSH4 0xCA4CCE68 EQ PUSH2 0x2E1 JUMPI DUP1 PUSH4 0xCD01CC28 EQ PUSH2 0x2FD JUMPI DUP1 PUSH4 0xE47A9D46 EQ PUSH2 0x307 JUMPI DUP1 PUSH4 0xE4F3E947 EQ PUSH2 0x325 JUMPI DUP1 PUSH4 0xEE7126C3 EQ PUSH2 0x343 JUMPI PUSH2 0x135 JUMP JUMPDEST DUP1 PUSH4 0x6CF106D7 EQ PUSH2 0x231 JUMPI DUP1 PUSH4 0x9C20FE71 EQ PUSH2 0x24F JUMPI DUP1 PUSH4 0xA53DA00B EQ PUSH2 0x26B JUMPI DUP1 PUSH4 0xB5C09C68 EQ PUSH2 0x289 JUMPI DUP1 PUSH4 0xC387B49C EQ PUSH2 0x2A5 JUMPI PUSH2 0x135 JUMP JUMPDEST DUP1 PUSH4 0x1F72783A GT PUSH2 0xFD JUMPI DUP1 PUSH4 0x1F72783A EQ PUSH2 0x1A1 JUMPI DUP1 PUSH4 0x289B3C0D EQ PUSH2 0x1BD JUMPI DUP1 PUSH4 0x52E305DE EQ PUSH2 0x1DB JUMPI DUP1 PUSH4 0x544FA93E EQ PUSH2 0x1F7 JUMPI DUP1 PUSH4 0x66410997 EQ PUSH2 0x213 JUMPI PUSH2 0x135 JUMP JUMPDEST DUP1 PUSH4 0x54203BD EQ PUSH2 0x139 JUMPI DUP1 PUSH4 0x6E99D93 EQ PUSH2 0x155 JUMPI DUP1 PUSH4 0xDF4C390 EQ PUSH2 0x171 JUMPI DUP1 PUSH4 0x14C58B51 EQ PUSH2 0x17B JUMPI DUP1 PUSH4 0x18074EEE EQ PUSH2 0x197 JUMPI JUMPDEST PUSH0 DUP1 REVERT JUMPDEST PUSH2 0x153 PUSH1 0x4 DUP1 CALLDATASIZE SUB DUP2 ADD SWAP1 PUSH2 0x14E SWAP2 SWAP1 PUSH2 0x20B2 JUMP JUMPDEST PUSH2 0x35F JUMP JUMPDEST STOP JUMPDEST PUSH2 0x16F PUSH1 0x4 DUP1 CALLDATASIZE SUB DUP2 ADD SWAP1 PUSH2 0x16A SWAP2 SWAP1 PUSH2 0x2112 JUMP JUMPDEST PUSH2 0x52A JUMP JUMPDEST STOP JUMPDEST PUSH2 0x179 PUSH2 0x5BC JUMP JUMPDEST STOP JUMPDEST PUSH2 0x195 PUSH1 0x4 DUP1 CALLDATASIZE SUB DUP2 ADD SWAP1 PUSH2 0x190 SWAP2 SWAP1 PUSH2 0x21E4 JUMP JUMPDEST PUSH2 0x77C JUMP JUMPDEST STOP JUMPDEST PUSH2 0x19F PUSH2 0xB94 JUMP JUMPDEST STOP JUMPDEST PUSH2 0x1BB PUSH1 0x4 DUP1 CALLDATASIZE SUB DUP2 ADD SWAP1 PUSH2 0x1B6 SWAP2 SWAP1 PUSH2 0x20B2 JUMP JUMPDEST PUSH2 0xD6C JUMP JUMPDEST STOP JUMPDEST PUSH2 0x1C5 PUSH2 0x101B JUMP JUMPDEST PUSH1 0x40 MLOAD PUSH2 0x1D2 SWAP2 SWAP1 PUSH2 0x226A JUMP JUMPDEST PUSH1 0x40 MLOAD DUP1 SWAP2 SUB SWAP1 RETURN JUMPDEST PUSH2 0x1F5 PUSH1 0x4 DUP1 CALLDATASIZE SUB DUP2 ADD SWAP1 PUSH2 0x1F0 SWAP2 SWAP1 PUSH2 0x20B2 JUMP JUMPDEST PUSH2 0x1045 JUMP JUMPDEST STOP JUMPDEST PUSH2 0x211 PUSH1 0x4 DUP1 CALLDATASIZE SUB DUP2 ADD SWAP1 PUSH2 0x20C SWAP2 SWAP1 PUSH2 0x20B2 JUMP JUMPDEST PUSH2 0x128A JUMP JUMPDEST STOP JUMPDEST PUSH2 0x21B PUSH2 0x1396 JUMP JUMPDEST PUSH1 0x40 MLOAD PUSH2 0x228 SWAP2 SWAP1 PUSH2 0x226A JUMP JUMPDEST PUSH1 0x40 MLOAD DUP1 SWAP2 SUB SWAP1 RETURN JUMPDEST PUSH2 0x239 PUSH2 0x13C0 JUMP JUMPDEST PUSH1 0x40 MLOAD PUSH2 0x246 SWAP2 SWAP1 PUSH2 0x2292 JUMP JUMPDEST PUSH1 0x40 MLOAD DUP1 SWAP2 SUB SWAP1 RETURN JUMPDEST PUSH2 0x269 PUSH1 0x4 DUP1 CALLDATASIZE SUB DUP2 ADD SWAP1 PUSH2 0x264 SWAP2 SWAP1 PUSH2 0x20B2 JUMP JUMPDEST PUSH2 0x13D8 JUMP JUMPDEST STOP JUMPDEST PUSH2 0x273 PUSH2 0x16C6 JUMP JUMPDEST PUSH1 0x40 MLOAD PUSH2 0x280 SWAP2 SWAP1 PUSH2 0x226A JUMP JUMPDEST PUSH1 0x40 MLOAD DUP1 SWAP2 SUB SWAP1 RETURN JUMPDEST PUSH2 0x2A3 PUSH1 0x4 DUP1 CALLDATASIZE SUB DUP2 ADD SWAP1 PUSH2 0x29E SWAP2 SWAP1 PUSH2 0x2112 JUMP JUMPDEST PUSH2 0x16F0 JUMP JUMPDEST STOP JUMPDEST PUSH2 0x2AD PUSH2 0x1836 JUMP JUMPDEST PUSH1 0x40 MLOAD PUSH2 0x2BA SWAP2 SWAP1 PUSH2 0x22BA JUMP JUMPDEST PUSH1 0x40 MLOAD DUP1 SWAP2 SUB SWAP1 RETURN JUMPDEST PUSH2 0x2CB PUSH2 0x1851 JUMP JUMPDEST PUSH1 0x40 MLOAD PUSH2 0x2D8 SWAP2 SWAP1 PUSH2 0x226A JUMP JUMPDEST PUSH1 0x40 MLOAD DUP1 SWAP2 SUB SWAP1 RETURN JUMPDEST PUSH2 0x2FB PUSH1 0x4 DUP1 CALLDATASIZE SUB DUP2 ADD SWAP1 PUSH2 0x2F6 SWAP2 SWAP1 PUSH2 0x20B2 JUMP JUMPDEST PUSH2 0x187B JUMP JUMPDEST STOP JUMPDEST PUSH2 0x305 PUSH2 0x1A93 JUMP JUMPDEST STOP JUMPDEST PUSH2 0x30F PUSH2 0x1CA5 JUMP JUMPDEST PUSH1 0x40 MLOAD PUSH2 0x31C SWAP2 SWAP1 PUSH2 0x226A JUMP JUMPDEST PUSH1 0x40 MLOAD DUP1 SWAP2 SUB SWAP1 RETURN JUMPDEST PUSH2 0x32D PUSH2 0x1CAC JUMP JUMPDEST PUSH1 0x40 MLOAD PUSH2 0x33A SWAP2 SWAP1 PUSH2 0x2292 JUMP JUMPDEST PUSH1 0x40 MLOAD DUP1 SWAP2 SUB SWAP1 RETURN JUMPDEST PUSH2 0x35D PUSH1 0x4 DUP1 CALLDATASIZE SUB DUP2 ADD SWAP1 PUSH2 0x358 SWAP2 SWAP1 PUSH2 0x20B2 JUMP JUMPDEST PUSH2 0x1CC4 JUMP JUMPDEST STOP JUMPDEST TIMESTAMP PUSH32 0x0 PUSH6 0xFFFFFFFFFFFF AND LT ISZERO PUSH2 0x409 JUMPI PUSH2 0x397 PUSH2 0x1851 JUMP JUMPDEST PUSH20 0xFFFFFFFFFFFFFFFFFFFFFFFFFFFFFFFFFFFFFFFF AND CALLER PUSH20 0xFFFFFFFFFFFFFFFFFFFFFFFFFFFFFFFFFFFFFFFF AND EQ PUSH2 0x404 JUMPI PUSH1 0x40 MLOAD PUSH32 0x8C379A000000000000000000000000000000000000000000000000000000000 DUP2 MSTORE PUSH1 0x4 ADD PUSH2 0x3FB SWAP1 PUSH2 0x232D JUMP JUMPDEST PUSH1 0x40 MLOAD DUP1 SWAP2 SUB SWAP1 REVERT JUMPDEST PUSH2 0x490 JUMP JUMPDEST PUSH2 0x411 PUSH2 0x1396 JUMP JUMPDEST PUSH20 0xFFFFFFFFFFFFFFFFFFFFFFFFFFFFFFFFFFFFFFFF AND CALLER PUSH20 0xFFFFFFFFFFFFFFFFFFFFFFFFFFFFFFFFFFFFFFFF AND EQ DUP1 ISZERO PUSH2 0x450 JUMPI POP PUSH2 0x44E PUSH2 0x13C0 JUMP JUMPDEST ISZERO JUMPDEST PUSH2 0x48F JUMPI PUSH1 0x40 MLOAD PUSH32 0x8C379A000000000000000000000000000000000000000000000000000000000 DUP2 MSTORE PUSH1 0x4 ADD PUSH2 0x486 SWAP1 PUSH2 0x232D JUMP JUMPDEST PUSH1 0x40 MLOAD DUP1 SWAP2 SUB SWAP1 REVERT JUMPDEST JUMPDEST DUP1 PUSH1 0x2 PUSH0 PUSH2 0x100 EXP DUP2 SLOAD DUP2 PUSH20 0xFFFFFFFFFFFFFFFFFFFFFFFFFFFFFFFFFFFFFFFF MUL NOT AND SWAP1 DUP4 PUSH20 0xFFFFFFFFFFFFFFFFFFFFFFFFFFFFFFFFFFFFFFFF AND MUL OR SWAP1 SSTORE POP PUSH2 0x4DA PUSH1 0x1 PUSH2 0x1F0D JUMP JUMPDEST PUSH2 0x4E4 PUSH1 0x1 PUSH2 0x1F2C JUMP JUMPDEST DUP1 PUSH20 0xFFFFFFFFFFFFFFFFFFFFFFFFFFFFFFFFFFFFFFFF AND PUSH32 0x3553F1F7EF0242113266A8D183B621BB87468C99237F36B1150B6AB3D688B686 PUSH1 0x40 MLOAD PUSH1 0x40 MLOAD DUP1 SWAP2 SUB SWAP1 LOG2 POP JUMP JUMPDEST PUSH2 0x532 PUSH2 0x1396 JUMP JUMPDEST PUSH20 0xFFFFFFFFFFFFFFFFFFFFFFFFFFFFFFFFFFFFFFFF AND CALLER PUSH20 0xFFFFFFFFFFFFFFFFFFFFFFFFFFFFFFFFFFFFFFFF AND EQ DUP1 ISZERO PUSH2 0x571 JUMPI POP PUSH2 0x56F PUSH2 0x13C0 JUMP JUMPDEST ISZERO JUMPDEST PUSH2 0x5B0 JUMPI PUSH1 0x40 MLOAD PUSH32 0x8C379A000000000000000000000000000000000000000000000000000000000 DUP2 MSTORE PUSH1 0x4 ADD PUSH2 0x5A7 SWAP1 PUSH2 0x232D JUMP JUMPDEST PUSH1 0x40 MLOAD DUP1 SWAP2 SUB SWAP1 REVERT JUMPDEST PUSH2 0x5B9 DUP2 PUSH2 0x1F2C JUMP JUMPDEST POP JUMP JUMPDEST CALLER PUSH20 0xFFFFFFFFFFFFFFFFFFFFFFFFFFFFFFFFFFFFFFFF AND PUSH1 0x2 PUSH0 SWAP1 SLOAD SWAP1 PUSH2 0x100 EXP SWAP1 DIV PUSH20 0xFFFFFFFFFFFFFFFFFFFFFFFFFFFFFFFFFFFFFFFF AND PUSH20 0xFFFFFFFFFFFFFFFFFFFFFFFFFFFFFFFFFFFFFFFF AND SUB PUSH2 0x748 JUMPI PUSH1 0x2 PUSH0 PUSH2 0x100 EXP DUP2 SLOAD SWAP1 PUSH20 0xFFFFFFFFFFFFFFFFFFFFFFFFFFFFFFFFFFFFFFFF MUL NOT AND SWAP1 SSTORE CALLER PUSH1 0x4 PUSH0 ADD PUSH0 PUSH2 0x100 EXP DUP2 SLOAD DUP2 PUSH20 0xFFFFFFFFFFFFFFFFFFFFFFFFFFFFFFFFFFFFFFFF MUL NOT AND SWAP1 DUP4 PUSH20 0xFFFFFFFFFFFFFFFFFFFFFFFFFFFFFFFFFFFFFFFF AND MUL OR SWAP1 SSTORE POP PUSH1 0x4 PUSH0 ADD PUSH1 0x15 DUP2 DUP2 SWAP1 SLOAD SWAP1 PUSH2 0x100 EXP SWAP1 DIV PUSH4 0xFFFFFFFF AND DUP1 SWAP3 SWAP2 SWAP1 PUSH2 0x69A SWAP1 PUSH2 0x2378 JUMP JUMPDEST SWAP2 SWAP1 PUSH2 0x100 EXP DUP2 SLOAD DUP2 PUSH4 0xFFFFFFFF MUL NOT AND SWAP1 DUP4 PUSH4 0xFFFFFFFF AND MUL OR SWAP1 SSTORE POP POP PUSH2 0x6C2 PUSH0 PUSH2 0x1F0D JUMP JUMPDEST PUSH1 0x4 PUSH0 ADD PUSH1 0x15 SWAP1 SLOAD SWAP1 PUSH2 0x100 EXP SWAP1 DIV PUSH4 0xFFFFFFFF AND PUSH4 0xFFFFFFFF AND PUSH1 0x4 PUSH0 ADD PUSH0 SWAP1 SLOAD SWAP1 PUSH2 0x100 EXP SWAP1 DIV PUSH20 0xFFFFFFFFFFFFFFFFFFFFFFFFFFFFFFFFFFFFFFFF AND PUSH20 0xFFFFFFFFFFFFFFFFFFFFFFFFFFFFFFFFFFFFFFFF AND PUSH32 0x5AD9B3688012CD825C1BFB941E4F5AFB2558AF6AF3DEADDF01DBB5E85ABDAF9 PUSH1 0x40 MLOAD PUSH1 0x40 MLOAD DUP1 SWAP2 SUB SWAP1 LOG3 PUSH2 0x77A JUMP JUMPDEST PUSH1 0x40 MLOAD PUSH32 0x6C4360F000000000000000000000000000000000000000000000000000000000 DUP2 MSTORE PUSH1 0x4 ADD PUSH1 0x40 MLOAD DUP1 SWAP2 SUB SWAP1 REVERT JUMPDEST JUMP JUMPDEST TIMESTAMP PUSH32 0x0 PUSH6 0xFFFFFFFFFFFF AND LT ISZERO PUSH2 0x826 JUMPI PUSH2 0x7B4 PUSH2 0x1851 JUMP JUMPDEST PUSH20 0xFFFFFFFFFFFFFFFFFFFFFFFFFFFFFFFFFFFFFFFF AND CALLER PUSH20 0xFFFFFFFFFFFFFFFFFFFFFFFFFFFFFFFFFFFFFFFF AND EQ PUSH2 0x821 JUMPI PUSH1 0x40 MLOAD PUSH32 0x8C379A000000000000000000000000000000000000000000000000000000000 DUP2 MSTORE PUSH1 0x4 ADD PUSH2 0x818 SWAP1 PUSH2 0x232D JUMP JUMPDEST PUSH1 0x40 MLOAD DUP1 SWAP2 SUB SWAP1 REVERT JUMPDEST PUSH2 0x8AD JUMP JUMPDEST PUSH2 0x82E PUSH2 0x16C6 JUMP JUMPDEST PUSH20 0xFFFFFFFFFFFFFFFFFFFFFFFFFFFFFFFFFFFFFFFF AND CALLER PUSH20 0xFFFFFFFFFFFFFFFFFFFFFFFFFFFFFFFFFFFFFFFF AND EQ DUP1 ISZERO PUSH2 0x86D JUMPI POP PUSH2 0x86B PUSH2 0x1CAC JUMP JUMPDEST ISZERO JUMPDEST PUSH2 0x8AC JUMPI PUSH1 0x40 MLOAD PUSH32 0x8C379A000000000000000000000000000000000000000000000000000000000 DUP2 MSTORE PUSH1 0x4 ADD PUSH2 0x8A3 SWAP1 PUSH2 0x232D JUMP JUMPDEST PUSH1 0x40 MLOAD DUP1 SWAP2 SUB SWAP1 REVERT JUMPDEST JUMPDEST PUSH0 PUSH20 0xFFFFFFFFFFFFFFFFFFFFFFFFFFFFFFFFFFFFFFFF AND DUP6 PUSH20 0xFFFFFFFFFFFFFFFFFFFFFFFFFFFFFFFFFFFFFFFF AND EQ PUSH2 0x988 JUMPI PUSH1 0x8 PUSH0 DUP7 PUSH20 0xFFFFFFFFFFFFFFFFFFFFFFFFFFFFFFFFFFFFFFFF AND PUSH20 0xFFFFFFFFFFFFFFFFFFFFFFFFFFFFFFFFFFFFFFFF AND DUP2 MSTORE PUSH1 0x20 ADD SWAP1 DUP2 MSTORE PUSH1 0x20 ADD PUSH0 KECCAK256 PUSH0 DUP1 DUP3 ADD PUSH0 SWAP1 SSTORE PUSH1 0x1 DUP3 ADD PUSH0 PUSH2 0x100 EXP DUP2 SLOAD SWAP1 PUSH4 0xFFFFFFFF MUL NOT AND SWAP1 SSTORE PUSH1 0x1 DUP3 ADD PUSH1 0x4 PUSH2 0x100 EXP DUP2 SLOAD SWAP1 PUSH6 0xFFFFFFFFFFFF MUL NOT AND SWAP1 SSTORE PUSH1 0x1 DUP3 ADD PUSH1 0xA PUSH2 0x100 EXP DUP2 SLOAD SWAP1 PUSH6 0xFFFFFFFFFFFF MUL NOT AND SWAP1 SSTORE PUSH1 0x1 DUP3 ADD PUSH1 0x10 PUSH2 0x100 EXP DUP2 SLOAD SWAP1 PUSH6 0xFFFFFFFFFFFF MUL NOT AND SWAP1 SSTORE POP POP JUMPDEST DUP3 PUSH1 0x8 PUSH0 DUP7 PUSH20 0xFFFFFFFFFFFFFFFFFFFFFFFFFFFFFFFFFFFFFFFF AND PUSH20 0xFFFFFFFFFFFFFFFFFFFFFFFFFFFFFFFFFFFFFFFF AND DUP2 MSTORE PUSH1 0x20 ADD SWAP1 DUP2 MSTORE PUSH1 0x20 ADD PUSH0 KECCAK256 PUSH0 ADD SLOAD EQ ISZERO DUP1 ISZERO PUSH2 0xA32 JUMPI POP DUP2 PUSH4 0xFFFFFFFF AND PUSH1 0x8 PUSH0 DUP7 PUSH20 0xFFFFFFFFFFFFFFFFFFFFFFFFFFFFFFFFFFFFFFFF AND PUSH20 0xFFFFFFFFFFFFFFFFFFFFFFFFFFFFFFFFFFFFFFFF AND DUP2 MSTORE PUSH1 0x20 ADD SWAP1 DUP2 MSTORE PUSH1 0x20 ADD PUSH0 KECCAK256 PUSH1 0x1 ADD PUSH0 SWAP1 SLOAD SWAP1 PUSH2 0x100 EXP SWAP1 DIV PUSH4 0xFFFFFFFF AND PUSH4 0xFFFFFFFF AND EQ ISZERO JUMPDEST ISZERO PUSH2 0xB8C JUMPI DUP3 PUSH1 0x8 PUSH0 DUP7 PUSH20 0xFFFFFFFFFFFFFFFFFFFFFFFFFFFFFFFFFFFFFFFF AND PUSH20 0xFFFFFFFFFFFFFFFFFFFFFFFFFFFFFFFFFFFFFFFF AND DUP2 MSTORE PUSH1 0x20 ADD SWAP1 DUP2 MSTORE PUSH1 0x20 ADD PUSH0 KECCAK256 PUSH0 ADD DUP2 SWAP1 SSTORE POP DUP2 PUSH1 0x8 PUSH0 DUP7 PUSH20 0xFFFFFFFFFFFFFFFFFFFFFFFFFFFFFFFFFFFFFFFF AND PUSH20 0xFFFFFFFFFFFFFFFFFFFFFFFFFFFFFFFFFFFFFFFF AND DUP2 MSTORE PUSH1 0x20 ADD SWAP1 DUP2 MSTORE PUSH1 0x20 ADD PUSH0 KECCAK256 PUSH1 0x1 ADD PUSH0 PUSH2 0x100 EXP DUP2 SLOAD DUP2 PUSH4 0xFFFFFFFF MUL NOT AND SWAP1 DUP4 PUSH4 0xFFFFFFFF AND MUL OR SWAP1 SSTORE POP DUP1 PUSH1 0x8 PUSH0 DUP7 PUSH20 0xFFFFFFFFFFFFFFFFFFFFFFFFFFFFFFFFFFFFFFFF AND PUSH20 0xFFFFFFFFFFFFFFFFFFFFFFFFFFFFFFFFFFFFFFFF AND DUP2 MSTORE PUSH1 0x20 ADD SWAP1 DUP2 MSTORE PUSH1 0x20 ADD PUSH0 KECCAK256 PUSH1 0x1 ADD PUSH1 0x10 PUSH2 0x100 EXP DUP2 SLOAD DUP2 PUSH6 0xFFFFFFFFFFFF MUL NOT AND SWAP1 DUP4 PUSH6 0xFFFFFFFFFFFF AND MUL OR SWAP1 SSTORE POP DUP2 PUSH4 0xFFFFFFFF AND DUP4 DUP6 PUSH20 0xFFFFFFFFFFFFFFFFFFFFFFFFFFFFFFFFFFFFFFFF AND PUSH32 0x5C43A67D451CACADDC8309AF64192A4EBEE009B9CAB5EEB59EC1FB77DD3ABCBC PUSH1 0x40 MLOAD PUSH1 0x40 MLOAD DUP1 SWAP2 SUB SWAP1 LOG4 PUSH2 0xB8D JUMP JUMPDEST JUMPDEST POP POP POP POP POP JUMP JUMPDEST CALLER PUSH20 0xFFFFFFFFFFFFFFFFFFFFFFFFFFFFFFFFFFFFFFFF AND PUSH1 0x3 PUSH0 SWAP1 SLOAD SWAP1 PUSH2 0x100 EXP SWAP1 DIV PUSH20 0xFFFFFFFFFFFFFFFFFFFFFFFFFFFFFFFFFFFFFFFF AND PUSH20 0xFFFFFFFFFFFFFFFFFFFFFFFFFFFFFFFFFFFFFFFF AND SUB PUSH2 0xD38 JUMPI PUSH1 0x3 PUSH0 PUSH2 0x100 EXP DUP2 SLOAD SWAP1 PUSH20 0xFFFFFFFFFFFFFFFFFFFFFFFFFFFFFFFFFFFFFFFF MUL NOT AND SWAP1 SSTORE CALLER PUSH1 0x5 PUSH0 ADD PUSH0 PUSH2 0x100 EXP DUP2 SLOAD DUP2 PUSH20 0xFFFFFFFFFFFFFFFFFFFFFFFFFFFFFFFFFFFFFFFF MUL NOT AND SWAP1 DUP4 PUSH20 0xFFFFFFFFFFFFFFFFFFFFFFFFFFFFFFFFFFFFFFFF AND MUL OR SWAP1 SSTORE POP PUSH1 0x5 PUSH0 ADD PUSH1 0x15 DUP2 DUP2 SWAP1 SLOAD SWAP1 PUSH2 0x100 EXP SWAP1 DIV PUSH4 0xFFFFFFFF AND DUP1 SWAP3 SWAP2 SWAP1 PUSH2 0xC72 SWAP1 PUSH2 0x2378 JUMP JUMPDEST SWAP2 SWAP1 PUSH2 0x100 EXP DUP2 SLOAD DUP2 PUSH4 0xFFFFFFFF MUL NOT AND SWAP1 DUP4 PUSH4 0xFFFFFFFF AND MUL OR SWAP1 SSTORE POP POP PUSH1 0x5 PUSH0 ADD PUSH1 0x14 SWAP1 SLOAD SWAP1 PUSH2 0x100 EXP SWAP1 DIV PUSH1 0xFF AND ISZERO PUSH2 0xCB2 JUMPI PUSH2 0xCB1 PUSH0 PUSH2 0x1F2C JUMP JUMPDEST JUMPDEST PUSH1 0x5 PUSH0 ADD PUSH1 0x15 SWAP1 SLOAD SWAP1 PUSH2 0x100 EXP SWAP1 DIV PUSH4 0xFFFFFFFF AND PUSH4 0xFFFFFFFF AND PUSH1 0x5 PUSH0 ADD PUSH0 SWAP1 SLOAD SWAP1 PUSH2 0x100 EXP SWAP1 DIV PUSH20 0xFFFFFFFFFFFFFFFFFFFFFFFFFFFFFFFFFFFFFFFF AND PUSH20 0xFFFFFFFFFFFFFFFFFFFFFFFFFFFFFFFFFFFFFFFF AND PUSH32 0x11E1B985C07E1BF3FEC9BFD0BDB8C4A8E870BA2B26AA89FE50A6A19132CA10FD PUSH1 0x40 MLOAD PUSH1 0x40 MLOAD DUP1 SWAP2 SUB SWAP1 LOG3 PUSH2 0xD6A JUMP JUMPDEST PUSH1 0x40 MLOAD PUSH32 0x6C4360F000000000000000000000000000000000000000000000000000000000 DUP2 MSTORE PUSH1 0x4 ADD PUSH1 0x40 MLOAD DUP1 SWAP2 SUB SWAP1 REVERT JUMPDEST JUMP JUMPDEST TIMESTAMP PUSH32 0x0 PUSH6 0xFFFFFFFFFFFF AND LT ISZERO PUSH2 0xE16 JUMPI PUSH2 0xDA4 PUSH2 0x1851 JUMP JUMPDEST PUSH20 0xFFFFFFFFFFFFFFFFFFFFFFFFFFFFFFFFFFFFFFFF AND CALLER PUSH20 0xFFFFFFFFFFFFFFFFFFFFFFFFFFFFFFFFFFFFFFFF AND EQ PUSH2 0xE11 JUMPI PUSH1 0x40 MLOAD PUSH32 0x8C379A000000000000000000000000000000000000000000000000000000000 DUP2 MSTORE PUSH1 0x4 ADD PUSH2 0xE08 SWAP1 PUSH2 0x232D JUMP JUMPDEST PUSH1 0x40 MLOAD DUP1 SWAP2 SUB SWAP1 REVERT JUMPDEST PUSH2 0xE9D JUMP JUMPDEST PUSH2 0xE1E PUSH2 0x1396 JUMP JUMPDEST PUSH20 0xFFFFFFFFFFFFFFFFFFFFFFFFFFFFFFFFFFFFFFFF AND CALLER PUSH20 0xFFFFFFFFFFFFFFFFFFFFFFFFFFFFFFFFFFFFFFFF AND EQ DUP1 ISZERO PUSH2 0xE5D JUMPI POP PUSH2 0xE5B PUSH2 0x13C0 JUMP JUMPDEST ISZERO JUMPDEST PUSH2 0xE9C JUMPI PUSH1 0x40 MLOAD PUSH32 0x8C379A000000000000000000000000000000000000000000000000000000000 DUP2 MSTORE PUSH1 0x4 ADD PUSH2 0xE93 SWAP1 PUSH2 0x232D JUMP JUMPDEST PUSH1 0x40 MLOAD DUP1 SWAP2 SUB SWAP1 REVERT JUMPDEST JUMPDEST PUSH0 DUP2 PUSH20 0xFFFFFFFFFFFFFFFFFFFFFFFFFFFFFFFFFFFFFFFF AND EXTCODESIZE GT ISZERO PUSH2 0xFDB JUMPI CALLER PUSH20 0xFFFFFFFFFFFFFFFFFFFFFFFFFFFFFFFFFFFFFFFF AND PUSH1 0x4 PUSH0 ADD PUSH0 SWAP1 SLOAD SWAP1 PUSH2 0x100 EXP SWAP1 DIV PUSH20 0xFFFFFFFFFFFFFFFFFFFFFFFFFFFFFFFFFFFFFFFF AND PUSH20 0xFFFFFFFFFFFFFFFFFFFFFFFFFFFFFFFFFFFFFFFF AND SUB PUSH2 0xF20 JUMPI PUSH2 0xF1B DUP2 PUSH2 0x1F4B JUMP JUMPDEST PUSH2 0xFD6 JUMP JUMPDEST PUSH3 0x13C680 TIMESTAMP PUSH2 0xF2F SWAP2 SWAP1 PUSH2 0x23AC JUMP JUMPDEST PUSH1 0x3 PUSH1 0x14 PUSH2 0x100 EXP DUP2 SLOAD DUP2 PUSH6 0xFFFFFFFFFFFF MUL NOT AND SWAP1 DUP4 PUSH6 0xFFFFFFFFFFFF AND MUL OR SWAP1 SSTORE POP DUP1 PUSH0 DUP1 PUSH2 0x100 EXP DUP2 SLOAD DUP2 PUSH20 0xFFFFFFFFFFFFFFFFFFFFFFFFFFFFFFFFFFFFFFFF MUL NOT AND SWAP1 DUP4 PUSH20 0xFFFFFFFFFFFFFFFFFFFFFFFFFFFFFFFFFFFFFFFF AND MUL OR SWAP1 SSTORE POP DUP1 PUSH20 0xFFFFFFFFFFFFFFFFFFFFFFFFFFFFFFFFFFFFFFFF AND PUSH32 0x675B770E821BA4AAD20BE77C58F912D689226272E805637F42F838A6035EED86 PUSH1 0x40 MLOAD PUSH1 0x40 MLOAD DUP1 SWAP2 SUB SWAP1 LOG2 JUMPDEST PUSH2 0x1018 JUMP JUMPDEST DUP1 PUSH1 0x40 MLOAD PUSH32 0xC632231500000000000000000000000000000000000000000000000000000000 DUP2 MSTORE PUSH1 0x4 ADD PUSH2 0x100F SWAP2 SWAP1 PUSH2 0x226A JUMP JUMPDEST PUSH1 0x40 MLOAD DUP1 SWAP2 SUB SWAP1 REVERT JUMPDEST POP JUMP JUMPDEST PUSH0 PUSH1 0x6 PUSH0 ADD PUSH0 SWAP1 SLOAD SWAP1 PUSH2 0x100 EXP SWAP1 DIV PUSH20 0xFFFFFFFFFFFFFFFFFFFFFFFFFFFFFFFFFFFFFFFF AND SWAP1 POP SWAP1 JUMP JUMPDEST TIMESTAMP PUSH32 0x0 PUSH6 0xFFFFFFFFFFFF AND LT ISZERO PUSH2 0x10EF JUMPI PUSH2 0x107D PUSH2 0x1851 JUMP JUMPDEST PUSH20 0xFFFFFFFFFFFFFFFFFFFFFFFFFFFFFFFFFFFFFFFF AND CALLER PUSH20 0xFFFFFFFFFFFFFFFFFFFFFFFFFFFFFFFFFFFFFFFF AND EQ PUSH2 0x10EA JUMPI PUSH1 0x40 MLOAD PUSH32 0x8C379A000000000000000000000000000000000000000000000000000000000 DUP2 MSTORE PUSH1 0x4 ADD PUSH2 0x10E1 SWAP1 PUSH2 0x232D JUMP JUMPDEST PUSH1 0x40 MLOAD DUP1 SWAP2 SUB SWAP1 REVERT JUMPDEST PUSH2 0x1176 JUMP JUMPDEST PUSH2 0x10F7 PUSH2 0x1396 JUMP JUMPDEST PUSH20 0xFFFFFFFFFFFFFFFFFFFFFFFFFFFFFFFFFFFFFFFF AND CALLER PUSH20 0xFFFFFFFFFFFFFFFFFFFFFFFFFFFFFFFFFFFFFFFF AND EQ DUP1 ISZERO PUSH2 0x1136 JUMPI POP PUSH2 0x1134 PUSH2 0x13C0 JUMP JUMPDEST ISZERO JUMPDEST PUSH2 0x1175 JUMPI PUSH1 0x40 MLOAD PUSH32 0x8C379A000000000000000000000000000000000000000000000000000000000 DUP2 MSTORE PUSH1 0x4 ADD PUSH2 0x116C SWAP1 PUSH2 0x232D JUMP JUMPDEST PUSH1 0x40 MLOAD DUP1 SWAP2 SUB SWAP1 REVERT JUMPDEST JUMPDEST DUP1 PUSH20 0xFFFFFFFFFFFFFFFFFFFFFFFFFFFFFFFFFFFFFFFF AND PUSH0 DUP1 SLOAD SWAP1 PUSH2 0x100 EXP SWAP1 DIV PUSH20 0xFFFFFFFFFFFFFFFFFFFFFFFFFFFFFFFFFFFFFFFF AND PUSH20 0xFFFFFFFFFFFFFFFFFFFFFFFFFFFFFFFFFFFFFFFF AND SUB PUSH2 0x124A JUMPI PUSH1 0x3 PUSH1 0x14 PUSH2 0x100 EXP DUP2 SLOAD SWAP1 PUSH6 0xFFFFFFFFFFFF MUL NOT AND SWAP1 SSTORE PUSH0 DUP1 PUSH2 0x100 EXP DUP2 SLOAD SWAP1 PUSH20 0xFFFFFFFFFFFFFFFFFFFFFFFFFFFFFFFFFFFFFFFF MUL NOT AND SWAP1 SSTORE DUP1 PUSH20 0xFFFFFFFFFFFFFFFFFFFFFFFFFFFFFFFFFFFFFFFF AND PUSH32 0xF299F61C7E493F99B20CB36C587CA903D085D5206BFE4452D295711E372DA029 PUSH1 0x40 MLOAD PUSH1 0x40 MLOAD DUP1 SWAP2 SUB SWAP1 LOG2 PUSH2 0x1287 JUMP JUMPDEST DUP1 PUSH1 0x40 MLOAD PUSH32 0xC632231500000000000000000000000000000000000000000000000000000000 DUP2 MSTORE PUSH1 0x4 ADD PUSH2 0x127E SWAP2 SWAP1 PUSH2 0x226A JUMP JUMPDEST PUSH1 0x40 MLOAD DUP1 SWAP2 SUB SWAP1 REVERT JUMPDEST POP JUMP JUMPDEST PUSH2 0x1292 PUSH2 0x1396 JUMP JUMPDEST PUSH20 0xFFFFFFFFFFFFFFFFFFFFFFFFFFFFFFFFFFFFFFFF AND CALLER PUSH20 0xFFFFFFFFFFFFFFFFFFFFFFFFFFFFFFFFFFFFFFFF AND EQ DUP1 ISZERO PUSH2 0x12D1 JUMPI POP PUSH2 0x12CF PUSH2 0x13C0 JUMP JUMPDEST ISZERO JUMPDEST PUSH2 0x1310 JUMPI PUSH1 0x40 MLOAD PUSH32 0x8C379A000000000000000000000000000000000000000000000000000000000 DUP2 MSTORE PUSH1 0x4 ADD PUSH2 0x1307 SWAP1 PUSH2 0x232D JUMP JUMPDEST PUSH1 0x40 MLOAD DUP1 SWAP2 SUB SWAP1 REVERT JUMPDEST DUP1 PUSH1 0x3 PUSH0 PUSH2 0x100 EXP DUP2 SLOAD DUP2 PUSH20 0xFFFFFFFFFFFFFFFFFFFFFFFFFFFFFFFFFFFFFFFF MUL NOT AND SWAP1 DUP4 PUSH20 0xFFFFFFFFFFFFFFFFFFFFFFFFFFFFFFFFFFFFFFFF AND MUL OR SWAP1 SSTORE POP DUP1 PUSH20 0xFFFFFFFFFFFFFFFFFFFFFFFFFFFFFFFFFFFFFFFF AND PUSH32 0xFF3CAD3EE28C342AD5F3D7C8FF8559EE4D21EB48494092B82A1652E443B3420B PUSH1 0x40 MLOAD PUSH1 0x40 MLOAD DUP1 SWAP2 SUB SWAP1 LOG2 POP JUMP JUMPDEST PUSH0 PUSH1 0x4 PUSH0 ADD PUSH0 SWAP1 SLOAD SWAP1 PUSH2 0x100 EXP SWAP1 DIV PUSH20 0xFFFFFFFFFFFFFFFFFFFFFFFFFFFFFFFFFFFFFFFF AND SWAP1 POP SWAP1 JUMP JUMPDEST PUSH0 PUSH1 0x4 PUSH0 ADD PUSH1 0x14 SWAP1 SLOAD SWAP1 PUSH2 0x100 EXP SWAP1 DIV PUSH1 0xFF AND SWAP1 POP SWAP1 JUMP JUMPDEST TIMESTAMP PUSH32 0x0 PUSH6 0xFFFFFFFFFFFF AND LT ISZERO PUSH2 0x1482 JUMPI PUSH2 0x1410 PUSH2 0x1851 JUMP JUMPDEST PUSH20 0xFFFFFFFFFFFFFFFFFFFFFFFFFFFFFFFFFFFFFFFF AND CALLER PUSH20 0xFFFFFFFFFFFFFFFFFFFFFFFFFFFFFFFFFFFFFFFF AND EQ PUSH2 0x147D JUMPI PUSH1 0x40 MLOAD PUSH32 0x8C379A000000000000000000000000000000000000000000000000000000000 DUP2 MSTORE PUSH1 0x4 ADD PUSH2 0x1474 SWAP1 PUSH2 0x232D JUMP JUMPDEST PUSH1 0x40 MLOAD DUP1 SWAP2 SUB SWAP1 REVERT JUMPDEST PUSH2 0x1509 JUMP JUMPDEST PUSH2 0x148A PUSH2 0x1396 JUMP JUMPDEST PUSH20 0xFFFFFFFFFFFFFFFFFFFFFFFFFFFFFFFFFFFFFFFF AND CALLER PUSH20 0xFFFFFFFFFFFFFFFFFFFFFFFFFFFFFFFFFFFFFFFF AND EQ DUP1 ISZERO PUSH2 0x14C9 JUMPI POP PUSH2 0x14C7 PUSH2 0x13C0 JUMP JUMPDEST ISZERO JUMPDEST PUSH2 0x1508 JUMPI PUSH1 0x40 MLOAD PUSH32 0x8C379A000000000000000000000000000000000000000000000000000000000 DUP2 MSTORE PUSH1 0x4 ADD PUSH2 0x14FF SWAP1 PUSH2 0x232D JUMP JUMPDEST PUSH1 0x40 MLOAD DUP1 SWAP2 SUB SWAP1 REVERT JUMPDEST JUMPDEST TIMESTAMP PUSH1 0x3 PUSH1 0x14 SWAP1 SLOAD SWAP1 PUSH2 0x100 EXP SWAP1 DIV PUSH6 0xFFFFFFFFFFFF AND PUSH6 0xFFFFFFFFFFFF AND LT ISZERO PUSH2 0x1667 JUMPI PUSH0 PUSH1 0x3 PUSH1 0x14 SWAP1 SLOAD SWAP1 PUSH2 0x100 EXP SWAP1 DIV PUSH6 0xFFFFFFFFFFFF AND PUSH6 0xFFFFFFFFFFFF AND SUB PUSH2 0x158B JUMPI PUSH1 0x40 MLOAD PUSH32 0x8C379A000000000000000000000000000000000000000000000000000000000 DUP2 MSTORE PUSH1 0x4 ADD PUSH2 0x1582 SWAP1 PUSH2 0x2429 JUMP JUMPDEST PUSH1 0x40 MLOAD DUP1 SWAP2 SUB SWAP1 REVERT JUMPDEST DUP1 PUSH20 0xFFFFFFFFFFFFFFFFFFFFFFFFFFFFFFFFFFFFFFFF AND PUSH0 DUP1 SLOAD SWAP1 PUSH2 0x100 EXP SWAP1 DIV PUSH20 0xFFFFFFFFFFFFFFFFFFFFFFFFFFFFFFFFFFFFFFFF AND PUSH20 0xFFFFFFFFFFFFFFFFFFFFFFFFFFFFFFFFFFFFFFFF AND SUB PUSH2 0x1625 JUMPI PUSH1 0x3 PUSH1 0x14 PUSH2 0x100 EXP DUP2 SLOAD SWAP1 PUSH6 0xFFFFFFFFFFFF MUL NOT AND SWAP1 SSTORE PUSH0 DUP1 PUSH2 0x100 EXP DUP2 SLOAD SWAP1 PUSH20 0xFFFFFFFFFFFFFFFFFFFFFFFFFFFFFFFFFFFFFFFF MUL NOT AND SWAP1 SSTORE PUSH2 0x1620 DUP2 PUSH2 0x1F4B JUMP JUMPDEST PUSH2 0x1662 JUMP JUMPDEST DUP1 PUSH1 0x40 MLOAD PUSH32 0xC632231500000000000000000000000000000000000000000000000000000000 DUP2 MSTORE PUSH1 0x4 ADD PUSH2 0x1659 SWAP2 SWAP1 PUSH2 0x226A JUMP JUMPDEST PUSH1 0x40 MLOAD DUP1 SWAP2 SUB SWAP1 REVERT JUMPDEST PUSH2 0x16C3 JUMP JUMPDEST TIMESTAMP PUSH1 0x3 PUSH1 0x14 SWAP1 SLOAD SWAP1 PUSH2 0x100 EXP SWAP1 DIV PUSH6 0xFFFFFFFFFFFF AND PUSH2 0x1687 SWAP2 SWAP1 PUSH2 0x2447 JUMP JUMPDEST PUSH1 0x40 MLOAD PUSH32 0x223A6CBB00000000000000000000000000000000000000000000000000000000 DUP2 MSTORE PUSH1 0x4 ADD PUSH2 0x16BA SWAP2 SWAP1 PUSH2 0x248F JUMP JUMPDEST PUSH1 0x40 MLOAD DUP1 SWAP2 SUB SWAP1 REVERT JUMPDEST POP JUMP JUMPDEST PUSH0 PUSH1 0x5 PUSH0 ADD PUSH0 SWAP1 SLOAD SWAP1 PUSH2 0x100 EXP SWAP1 DIV PUSH20 0xFFFFFFFFFFFFFFFFFFFFFFFFFFFFFFFFFFFFFFFF AND SWAP1 POP SWAP1 JUMP JUMPDEST TIMESTAMP PUSH32 0x0 PUSH6 0xFFFFFFFFFFFF AND LT ISZERO PUSH2 0x179A JUMPI PUSH2 0x1728 PUSH2 0x1851 JUMP JUMPDEST PUSH20 0xFFFFFFFFFFFFFFFFFFFFFFFFFFFFFFFFFFFFFFFF AND CALLER PUSH20 0xFFFFFFFFFFFFFFFFFFFFFFFFFFFFFFFFFFFFFFFF AND EQ PUSH2 0x1795 JUMPI PUSH1 0x40 MLOAD PUSH32 0x8C379A000000000000000000000000000000000000000000000000000000000 DUP2 MSTORE PUSH1 0x4 ADD PUSH2 0x178C SWAP1 PUSH2 0x232D JUMP JUMPDEST PUSH1 0x40 MLOAD DUP1 SWAP2 SUB SWAP1 REVERT JUMPDEST PUSH2 0x1821 JUMP JUMPDEST PUSH2 0x17A2 PUSH2 0x1396 JUMP JUMPDEST PUSH20 0xFFFFFFFFFFFFFFFFFFFFFFFFFFFFFFFFFFFFFFFF AND CALLER PUSH20 0xFFFFFFFFFFFFFFFFFFFFFFFFFFFFFFFFFFFFFFFF AND EQ DUP1 ISZERO PUSH2 0x17E1 JUMPI POP PUSH2 0x17DF PUSH2 0x13C0 JUMP JUMPDEST ISZERO JUMPDEST PUSH2 0x1820 JUMPI PUSH1 0x40 MLOAD PUSH32 0x8C379A000000000000000000000000000000000000000000000000000000000 DUP2 MSTORE PUSH1 0x4 ADD PUSH2 0x1817 SWAP1 PUSH2 0x232D JUMP JUMPDEST PUSH1 0x40 MLOAD DUP1 SWAP2 SUB SWAP1 REVERT JUMPDEST JUMPDEST PUSH2 0x182A DUP2 PUSH2 0x1F0D JUMP JUMPDEST PUSH2 0x1833 DUP2 PUSH2 0x1F2C JUMP JUMPDEST POP JUMP JUMPDEST PUSH0 PUSH1 0x6 PUSH0 ADD PUSH1 0x15 SWAP1 SLOAD SWAP1 PUSH2 0x100 EXP SWAP1 DIV PUSH4 0xFFFFFFFF AND SWAP1 POP SWAP1 JUMP JUMPDEST PUSH0 PUSH1 0x7 PUSH0 ADD PUSH0 SWAP1 SLOAD SWAP1 PUSH2 0x100 EXP SWAP1 DIV PUSH20 0xFFFFFFFFFFFFFFFFFFFFFFFFFFFFFFFFFFFFFFFF AND SWAP1 POP SWAP1 JUMP JUMPDEST TIMESTAMP PUSH32 0x0 PUSH6 0xFFFFFFFFFFFF AND LT ISZERO PUSH2 0x1925 JUMPI PUSH2 0x18B3 PUSH2 0x1851 JUMP JUMPDEST PUSH20 0xFFFFFFFFFFFFFFFFFFFFFFFFFFFFFFFFFFFFFFFF AND CALLER PUSH20 0xFFFFFFFFFFFFFFFFFFFFFFFFFFFFFFFFFFFFFFFF AND EQ PUSH2 0x1920 JUMPI PUSH1 0x40 MLOAD PUSH32 0x8C379A000000000000000000000000000000000000000000000000000000000 DUP2 MSTORE PUSH1 0x4 ADD PUSH2 0x1917 SWAP1 PUSH2 0x232D JUMP JUMPDEST PUSH1 0x40 MLOAD DUP1 SWAP2 SUB SWAP1 REVERT JUMPDEST PUSH2 0x19AC JUMP JUMPDEST PUSH2 0x192D PUSH2 0x1396 JUMP JUMPDEST PUSH20 0xFFFFFFFFFFFFFFFFFFFFFFFFFFFFFFFFFFFFFFFF AND CALLER PUSH20 0xFFFFFFFFFFFFFFFFFFFFFFFFFFFFFFFFFFFFFFFF AND EQ DUP1 ISZERO PUSH2 0x196C JUMPI POP PUSH2 0x196A PUSH2 0x13C0 JUMP JUMPDEST ISZERO JUMPDEST PUSH2 0x19AB JUMPI PUSH1 0x40 MLOAD PUSH32 0x8C379A000000000000000000000000000000000000000000000000000000000 DUP2 MSTORE PUSH1 0x4 ADD PUSH2 0x19A2 SWAP1 PUSH2 0x232D JUMP JUMPDEST PUSH1 0x40 MLOAD DUP1 SWAP2 SUB SWAP1 REVERT JUMPDEST JUMPDEST PUSH0 DUP2 PUSH20 0xFFFFFFFFFFFFFFFFFFFFFFFFFFFFFFFFFFFFFFFF AND EXTCODESIZE GT ISZERO PUSH2 0x1A53 JUMPI DUP1 PUSH1 0x1 PUSH0 PUSH2 0x100 EXP DUP2 SLOAD DUP2 PUSH20 0xFFFFFFFFFFFFFFFFFFFFFFFFFFFFFFFFFFFFFFFF MUL NOT AND SWAP1 DUP4 PUSH20 0xFFFFFFFFFFFFFFFFFFFFFFFFFFFFFFFFFFFFFFFF AND MUL OR SWAP1 SSTORE POP DUP1 PUSH20 0xFFFFFFFFFFFFFFFFFFFFFFFFFFFFFFFFFFFFFFFF AND PUSH32 0xE8D8E3C7C3EBEC0C177D0FE22D223F8B5071DB39155104808D45027E368BA77A PUSH1 0x40 MLOAD PUSH1 0x40 MLOAD DUP1 SWAP2 SUB SWAP1 LOG2 PUSH2 0x1A90 JUMP JUMPDEST DUP1 PUSH1 0x40 MLOAD PUSH32 0x84DBC6CB00000000000000000000000000000000000000000000000000000000 DUP2 MSTORE PUSH1 0x4 ADD PUSH2 0x1A87 SWAP2 SWAP1 PUSH2 0x226A JUMP JUMPDEST PUSH1 0x40 MLOAD DUP1 SWAP2 SUB SWAP1 REVERT JUMPDEST POP JUMP JUMPDEST PUSH0 PUSH1 0x8 PUSH0 CALLER PUSH20 0xFFFFFFFFFFFFFFFFFFFFFFFFFFFFFFFFFFFFFFFF AND PUSH20 0xFFFFFFFFFFFFFFFFFFFFFFFFFFFFFFFFFFFFFFFF AND DUP2 MSTORE PUSH1 0x20 ADD SWAP1 DUP2 MSTORE PUSH1 0x20 ADD PUSH0 KECCAK256 PUSH1 0x1 ADD PUSH0 SWAP1 SLOAD SWAP1 PUSH2 0x100 EXP SWAP1 DIV PUSH4 0xFFFFFFFF AND PUSH4 0xFFFFFFFF AND GT DUP1 ISZERO PUSH2 0x1B50 JUMPI POP PUSH0 PUSH1 0x8 PUSH0 CALLER PUSH20 0xFFFFFFFFFFFFFFFFFFFFFFFFFFFFFFFFFFFFFFFF AND PUSH20 0xFFFFFFFFFFFFFFFFFFFFFFFFFFFFFFFFFFFFFFFF AND DUP2 MSTORE PUSH1 0x20 ADD SWAP1 DUP2 MSTORE PUSH1 0x20 ADD PUSH0 KECCAK256 PUSH1 0x1 ADD PUSH1 0x4 SWAP1 SLOAD SWAP1 PUSH2 0x100 EXP SWAP1 DIV PUSH6 0xFFFFFFFFFFFF AND PUSH6 0xFFFFFFFFFFFF AND EQ JUMPDEST ISZERO PUSH2 0x1C71 JUMPI PUSH1 0x8 PUSH0 CALLER PUSH20 0xFFFFFFFFFFFFFFFFFFFFFFFFFFFFFFFFFFFFFFFF AND PUSH20 0xFFFFFFFFFFFFFFFFFFFFFFFFFFFFFFFFFFFFFFFF AND DUP2 MSTORE PUSH1 0x20 ADD SWAP1 DUP2 MSTORE PUSH1 0x20 ADD PUSH0 KECCAK256 POP PUSH1 0x8 PUSH0 CALLER PUSH20 0xFFFFFFFFFFFFFFFFFFFFFFFFFFFFFFFFFFFFFFFF AND PUSH20 0xFFFFFFFFFFFFFFFFFFFFFFFFFFFFFFFFFFFFFFFF AND DUP2 MSTORE PUSH1 0x20 ADD SWAP1 DUP2 MSTORE PUSH1 0x20 ADD PUSH0 KECCAK256 PUSH1 0x1 ADD PUSH0 SWAP1 SLOAD SWAP1 PUSH2 0x100 EXP SWAP1 DIV PUSH4 0xFFFFFFFF AND PUSH4 0xFFFFFFFF AND PUSH1 0x8 PUSH0 CALLER PUSH20 0xFFFFFFFFFFFFFFFFFFFFFFFFFFFFFFFFFFFFFFFF AND PUSH20 0xFFFFFFFFFFFFFFFFFFFFFFFFFFFFFFFFFFFFFFFF AND DUP2 MSTORE PUSH1 0x20 ADD SWAP1 DUP2 MSTORE PUSH1 0x20 ADD PUSH0 KECCAK256 PUSH0 ADD SLOAD CALLER PUSH20 0xFFFFFFFFFFFFFFFFFFFFFFFFFFFFFFFFFFFFFFFF AND PUSH32 0x4A5552F2D245EB6039B03D3A4F2AEEAE275C3D6DC08931B837B5715FBBE5199 PUSH1 0x40 MLOAD PUSH1 0x40 MLOAD DUP1 SWAP2 SUB SWAP1 LOG4 PUSH2 0x1CA3 JUMP JUMPDEST PUSH1 0x40 MLOAD PUSH32 0x6C4360F000000000000000000000000000000000000000000000000000000000 DUP2 MSTORE PUSH1 0x4 ADD PUSH1 0x40 MLOAD DUP1 SWAP2 SUB SWAP1 REVERT JUMPDEST JUMP JUMPDEST PUSH0 ADDRESS SWAP1 POP SWAP1 JUMP JUMPDEST PUSH0 PUSH1 0x5 PUSH0 ADD PUSH1 0x14 SWAP1 SLOAD SWAP1 PUSH2 0x100 EXP SWAP1 DIV PUSH1 0xFF AND SWAP1 POP SWAP1 JUMP JUMPDEST PUSH2 0x1CCC PUSH2 0x1396 JUMP JUMPDEST PUSH20 0xFFFFFFFFFFFFFFFFFFFFFFFFFFFFFFFFFFFFFFFF AND CALLER PUSH20 0xFFFFFFFFFFFFFFFFFFFFFFFFFFFFFFFFFFFFFFFF AND EQ DUP1 ISZERO PUSH2 0x1D0B JUMPI POP PUSH2 0x1D09 PUSH2 0x13C0 JUMP JUMPDEST ISZERO JUMPDEST PUSH2 0x1D4A JUMPI PUSH1 0x40 MLOAD PUSH32 0x8C379A000000000000000000000000000000000000000000000000000000000 DUP2 MSTORE PUSH1 0x4 ADD PUSH2 0x1D41 SWAP1 PUSH2 0x232D JUMP JUMPDEST PUSH1 0x40 MLOAD DUP1 SWAP2 SUB SWAP1 REVERT JUMPDEST DUP1 PUSH20 0xFFFFFFFFFFFFFFFFFFFFFFFFFFFFFFFFFFFFFFFF AND PUSH1 0x1 PUSH0 SWAP1 SLOAD SWAP1 PUSH2 0x100 EXP SWAP1 DIV PUSH20 0xFFFFFFFFFFFFFFFFFFFFFFFFFFFFFFFFFFFFFFFF AND PUSH20 0xFFFFFFFFFFFFFFFFFFFFFFFFFFFFFFFFFFFFFFFF AND SUB PUSH2 0x1ECD JUMPI PUSH1 0x1 PUSH0 PUSH2 0x100 EXP DUP2 SLOAD SWAP1 PUSH20 0xFFFFFFFFFFFFFFFFFFFFFFFFFFFFFFFFFFFFFFFF MUL NOT AND SWAP1 SSTORE DUP1 PUSH1 0x6 PUSH0 ADD PUSH0 PUSH2 0x100 EXP DUP2 SLOAD DUP2 PUSH20 0xFFFFFFFFFFFFFFFFFFFFFFFFFFFFFFFFFFFFFFFF MUL NOT AND SWAP1 DUP4 PUSH20 0xFFFFFFFFFFFFFFFFFFFFFFFFFFFFFFFFFFFFFFFF AND MUL OR SWAP1 SSTORE POP PUSH1 0x6 PUSH0 ADD PUSH1 0x15 DUP2 DUP2 SWAP1 SLOAD SWAP1 PUSH2 0x100 EXP SWAP1 DIV PUSH4 0xFFFFFFFF AND DUP1 SWAP3 SWAP2 SWAP1 PUSH2 0x1E28 SWAP1 PUSH2 0x2378 JUMP JUMPDEST SWAP2 SWAP1 PUSH2 0x100 EXP DUP2 SLOAD DUP2 PUSH4 0xFFFFFFFF MUL NOT AND SWAP1 DUP4 PUSH4 0xFFFFFFFF AND MUL OR SWAP1 SSTORE POP POP PUSH1 0x6 PUSH0 ADD PUSH1 0x15 SWAP1 SLOAD SWAP1 PUSH2 0x100 EXP SWAP1 DIV PUSH4 0xFFFFFFFF AND PUSH4 0xFFFFFFFF AND PUSH1 0x6 PUSH0 ADD PUSH0 SWAP1 SLOAD SWAP1 PUSH2 0x100 EXP SWAP1 DIV PUSH20 0xFFFFFFFFFFFFFFFFFFFFFFFFFFFFFFFFFFFFFFFF AND PUSH20 0xFFFFFFFFFFFFFFFFFFFFFFFFFFFFFFFFFFFFFFFF AND PUSH32 0x5E86008A8467D1EFCCFE6CB6BD49BA7278D6AF2745A1E6994E443322A4237093 PUSH1 0x40 MLOAD PUSH1 0x40 MLOAD DUP1 SWAP2 SUB SWAP1 LOG3 PUSH2 0x1F0A JUMP JUMPDEST DUP1 PUSH1 0x40 MLOAD PUSH32 0x84DBC6CB00000000000000000000000000000000000000000000000000000000 DUP2 MSTORE PUSH1 0x4 ADD PUSH2 0x1F01 SWAP2 SWAP1 PUSH2 0x226A JUMP JUMPDEST PUSH1 0x40 MLOAD DUP1 SWAP2 SUB SWAP1 REVERT JUMPDEST POP JUMP JUMPDEST DUP1 PUSH1 0x4 PUSH0 ADD PUSH1 0x14 PUSH2 0x100 EXP DUP2 SLOAD DUP2 PUSH1 0xFF MUL NOT AND SWAP1 DUP4 ISZERO ISZERO MUL OR SWAP1 SSTORE POP POP JUMP JUMPDEST DUP1 PUSH1 0x5 PUSH0 ADD PUSH1 0x14 PUSH2 0x100 EXP DUP2 SLOAD DUP2 PUSH1 0xFF MUL NOT AND SWAP1 DUP4 ISZERO ISZERO MUL OR SWAP1 SSTORE POP POP JUMP JUMPDEST DUP1 PUSH1 0x7 PUSH0 ADD PUSH0 PUSH2 0x100 EXP DUP2 SLOAD DUP2 PUSH20 0xFFFFFFFFFFFFFFFFFFFFFFFFFFFFFFFFFFFFFFFF MUL NOT AND SWAP1 DUP4 PUSH20 0xFFFFFFFFFFFFFFFFFFFFFFFFFFFFFFFFFFFFFFFF AND MUL OR SWAP1 SSTORE POP PUSH1 0x7 PUSH0 ADD PUSH1 0x15 DUP2 DUP2 SWAP1 SLOAD SWAP1 PUSH2 0x100 EXP SWAP1 DIV PUSH4 0xFFFFFFFF AND DUP1 SWAP3 SWAP2 SWAP1 PUSH2 0x1FB1 SWAP1 PUSH2 0x2378 JUMP JUMPDEST SWAP2 SWAP1 PUSH2 0x100 EXP DUP2 SLOAD DUP2 PUSH4 0xFFFFFFFF MUL NOT AND SWAP1 DUP4 PUSH4 0xFFFFFFFF AND MUL OR SWAP1 SSTORE POP POP PUSH1 0x7 PUSH0 ADD PUSH1 0x15 SWAP1 SLOAD SWAP1 PUSH2 0x100 EXP SWAP1 DIV PUSH4 0xFFFFFFFF AND PUSH4 0xFFFFFFFF AND PUSH1 0x7 PUSH0 ADD PUSH0 SWAP1 SLOAD SWAP1 PUSH2 0x100 EXP SWAP1 DIV PUSH20 0xFFFFFFFFFFFFFFFFFFFFFFFFFFFFFFFFFFFFFFFF AND PUSH20 0xFFFFFFFFFFFFFFFFFFFFFFFFFFFFFFFFFFFFFFFF AND PUSH32 0xF7F7C26682668C39FD8C6DBCA125BD9466E743B9E38ACC3240867C139CD93C30 PUSH1 0x40 MLOAD PUSH1 0x40 MLOAD DUP1 SWAP2 SUB SWAP1 LOG3 POP JUMP JUMPDEST PUSH0 DUP1 REVERT JUMPDEST PUSH0 PUSH20 0xFFFFFFFFFFFFFFFFFFFFFFFFFFFFFFFFFFFFFFFF DUP3 AND SWAP1 POP SWAP2 SWAP1 POP JUMP JUMPDEST PUSH0 PUSH2 0x2081 DUP3 PUSH2 0x2058 JUMP JUMPDEST SWAP1 POP SWAP2 SWAP1 POP JUMP JUMPDEST PUSH2 0x2091 DUP2 PUSH2 0x2077 JUMP JUMPDEST DUP2 EQ PUSH2 0x209B JUMPI PUSH0 DUP1 REVERT JUMPDEST POP JUMP JUMPDEST PUSH0 DUP2 CALLDATALOAD SWAP1 POP PUSH2 0x20AC DUP2 PUSH2 0x2088 JUMP JUMPDEST SWAP3 SWAP2 POP POP JUMP JUMPDEST PUSH0 PUSH1 0x20 DUP3 DUP5 SUB SLT ISZERO PUSH2 0x20C7 JUMPI PUSH2 0x20C6 PUSH2 0x2054 JUMP JUMPDEST JUMPDEST PUSH0 PUSH2 0x20D4 DUP5 DUP3 DUP6 ADD PUSH2 0x209E JUMP JUMPDEST SWAP2 POP POP SWAP3 SWAP2 POP POP JUMP JUMPDEST PUSH0 DUP2 ISZERO ISZERO SWAP1 POP SWAP2 SWAP1 POP JUMP JUMPDEST PUSH2 0x20F1 DUP2 PUSH2 0x20DD JUMP JUMPDEST DUP2 EQ PUSH2 0x20FB JUMPI PUSH0 DUP1 REVERT JUMPDEST POP JUMP JUMPDEST PUSH0 DUP2 CALLDATALOAD SWAP1 POP PUSH2 0x210C DUP2 PUSH2 0x20E8 JUMP JUMPDEST SWAP3 SWAP2 POP POP JUMP JUMPDEST PUSH0 PUSH1 0x20 DUP3 DUP5 SUB SLT ISZERO PUSH2 0x2127 JUMPI PUSH2 0x2126 PUSH2 0x2054 JUMP JUMPDEST JUMPDEST PUSH0 PUSH2 0x2134 DUP5 DUP3 DUP6 ADD PUSH2 0x20FE JUMP JUMPDEST SWAP2 POP POP SWAP3 SWAP2 POP POP JUMP JUMPDEST PUSH0 DUP2 SWAP1 POP SWAP2 SWAP1 POP JUMP JUMPDEST PUSH2 0x214F DUP2 PUSH2 0x213D JUMP JUMPDEST DUP2 EQ PUSH2 0x2159 JUMPI PUSH0 DUP1 REVERT JUMPDEST POP JUMP JUMPDEST PUSH0 DUP2 CALLDATALOAD SWAP1 POP PUSH2 0x216A DUP2 PUSH2 0x2146 JUMP JUMPDEST SWAP3 SWAP2 POP POP JUMP JUMPDEST PUSH0 PUSH4 0xFFFFFFFF DUP3 AND SWAP1 POP SWAP2 SWAP1 POP JUMP JUMPDEST PUSH2 0x2188 DUP2 PUSH2 0x2170 JUMP JUMPDEST DUP2 EQ PUSH2 0x2192 JUMPI PUSH0 DUP1 REVERT JUMPDEST POP JUMP JUMPDEST PUSH0 DUP2 CALLDATALOAD SWAP1 POP PUSH2 0x21A3 DUP2 PUSH2 0x217F JUMP JUMPDEST SWAP3 SWAP2 POP POP JUMP JUMPDEST PUSH0 PUSH6 0xFFFFFFFFFFFF DUP3 AND SWAP1 POP SWAP2 SWAP1 POP JUMP JUMPDEST PUSH2 0x21C3 DUP2 PUSH2 0x21A9 JUMP JUMPDEST DUP2 EQ PUSH2 0x21CD JUMPI PUSH0 DUP1 REVERT JUMPDEST POP JUMP JUMPDEST PUSH0 DUP2 CALLDATALOAD SWAP1 POP PUSH2 0x21DE DUP2 PUSH2 0x21BA JUMP JUMPDEST SWAP3 SWAP2 POP POP JUMP JUMPDEST PUSH0 DUP1 PUSH0 DUP1 PUSH0 PUSH1 0xA0 DUP7 DUP9 SUB SLT ISZERO PUSH2 0x21FD JUMPI PUSH2 0x21FC PUSH2 0x2054 JUMP JUMPDEST JUMPDEST PUSH0 PUSH2 0x220A DUP9 DUP3 DUP10 ADD PUSH2 0x209E JUMP JUMPDEST SWAP6 POP POP PUSH1 0x20 PUSH2 0x221B DUP9 DUP3 DUP10 ADD PUSH2 0x209E JUMP JUMPDEST SWAP5 POP POP PUSH1 0x40 PUSH2 0x222C DUP9 DUP3 DUP10 ADD PUSH2 0x215C JUMP JUMPDEST SWAP4 POP POP PUSH1 0x60 PUSH2 0x223D DUP9 DUP3 DUP10 ADD PUSH2 0x2195 JUMP JUMPDEST SWAP3 POP POP PUSH1 0x80 PUSH2 0x224E DUP9 DUP3 DUP10 ADD PUSH2 0x21D0 JUMP JUMPDEST SWAP2 POP POP SWAP3 SWAP6 POP SWAP3 SWAP6 SWAP1 SWAP4 POP JUMP JUMPDEST PUSH2 0x2264 DUP2 PUSH2 0x2077 JUMP JUMPDEST DUP3 MSTORE POP POP JUMP JUMPDEST PUSH0 PUSH1 0x20 DUP3 ADD SWAP1 POP PUSH2 0x227D PUSH0 DUP4 ADD DUP5 PUSH2 0x225B JUMP JUMPDEST SWAP3 SWAP2 POP POP JUMP JUMPDEST PUSH2 0x228C DUP2 PUSH2 0x20DD JUMP JUMPDEST DUP3 MSTORE POP POP JUMP JUMPDEST PUSH0 PUSH1 0x20 DUP3 ADD SWAP1 POP PUSH2 0x22A5 PUSH0 DUP4 ADD DUP5 PUSH2 0x2283 JUMP JUMPDEST SWAP3 SWAP2 POP POP JUMP JUMPDEST PUSH2 0x22B4 DUP2 PUSH2 0x2170 JUMP JUMPDEST DUP3 MSTORE POP POP JUMP JUMPDEST PUSH0 PUSH1 0x20 DUP3 ADD SWAP1 POP PUSH2 0x22CD PUSH0 DUP4 ADD DUP5 PUSH2 0x22AB JUMP JUMPDEST SWAP3 SWAP2 POP POP JUMP JUMPDEST PUSH0 DUP3 DUP3 MSTORE PUSH1 0x20 DUP3 ADD SWAP1 POP SWAP3 SWAP2 POP POP JUMP JUMPDEST PUSH32 0x416363657373206973206E6F742076616C696400000000000000000000000000 PUSH0 DUP3 ADD MSTORE POP JUMP JUMPDEST PUSH0 PUSH2 0x2317 PUSH1 0x13 DUP4 PUSH2 0x22D3 JUMP JUMPDEST SWAP2 POP PUSH2 0x2322 DUP3 PUSH2 0x22E3 JUMP JUMPDEST PUSH1 0x20 DUP3 ADD SWAP1 POP SWAP2 SWAP1 POP JUMP JUMPDEST PUSH0 PUSH1 0x20 DUP3 ADD SWAP1 POP DUP2 DUP2 SUB PUSH0 DUP4 ADD MSTORE PUSH2 0x2344 DUP2 PUSH2 0x230B JUMP JUMPDEST SWAP1 POP SWAP2 SWAP1 POP JUMP JUMPDEST PUSH32 0x4E487B7100000000000000000000000000000000000000000000000000000000 PUSH0 MSTORE PUSH1 0x11 PUSH1 0x4 MSTORE PUSH1 0x24 PUSH0 REVERT JUMPDEST PUSH0 PUSH2 0x2382 DUP3 PUSH2 0x2170 JUMP JUMPDEST SWAP2 POP PUSH4 0xFFFFFFFF DUP3 SUB PUSH2 0x2398 JUMPI PUSH2 0x2397 PUSH2 0x234B JUMP JUMPDEST JUMPDEST PUSH1 0x1 DUP3 ADD SWAP1 POP SWAP2 SWAP1 POP JUMP JUMPDEST PUSH0 DUP2 SWAP1 POP SWAP2 SWAP1 POP JUMP JUMPDEST PUSH0 PUSH2 0x23B6 DUP3 PUSH2 0x23A3 JUMP JUMPDEST SWAP2 POP PUSH2 0x23C1 DUP4 PUSH2 0x23A3 JUMP JUMPDEST SWAP3 POP DUP3 DUP3 ADD SWAP1 POP DUP1 DUP3 GT ISZERO PUSH2 0x23D9 JUMPI PUSH2 0x23D8 PUSH2 0x234B JUMP JUMPDEST JUMPDEST SWAP3 SWAP2 POP POP JUMP JUMPDEST PUSH32 0x546865207265717565737420697320696E76616C696400000000000000000000 PUSH0 DUP3 ADD MSTORE POP JUMP JUMPDEST PUSH0 PUSH2 0x2413 PUSH1 0x16 DUP4 PUSH2 0x22D3 JUMP JUMPDEST SWAP2 POP PUSH2 0x241E DUP3 PUSH2 0x23DF JUMP JUMPDEST PUSH1 0x20 DUP3 ADD SWAP1 POP SWAP2 SWAP1 POP JUMP JUMPDEST PUSH0 PUSH1 0x20 DUP3 ADD SWAP1 POP DUP2 DUP2 SUB PUSH0 DUP4 ADD MSTORE PUSH2 0x2440 DUP2 PUSH2 0x2407 JUMP JUMPDEST SWAP1 POP SWAP2 SWAP1 POP JUMP JUMPDEST PUSH0 PUSH2 0x2451 DUP3 PUSH2 0x21A9 JUMP JUMPDEST SWAP2 POP PUSH2 0x245C DUP4 PUSH2 0x21A9 JUMP JUMPDEST SWAP3 POP DUP3 DUP3 SUB SWAP1 POP PUSH6 0xFFFFFFFFFFFF DUP2 GT ISZERO PUSH2 0x247A JUMPI PUSH2 0x2479 PUSH2 0x234B JUMP JUMPDEST JUMPDEST SWAP3 SWAP2 POP POP JUMP JUMPDEST PUSH2 0x2489 DUP2 PUSH2 0x21A9 JUMP JUMPDEST DUP3 MSTORE POP POP JUMP JUMPDEST PUSH0 PUSH1 0x20 DUP3 ADD SWAP1 POP PUSH2 0x24A2 PUSH0 DUP4 ADD DUP5 PUSH2 0x2480 JUMP JUMPDEST SWAP3 SWAP2 POP POP JUMP INVALID LOG2 PUSH5 0x6970667358 0x22 SLT KECCAK256 0xDF EXTCODEHASH 0xC0 0x29 DUP1 INVALID DUP9 TIMESTAMP 0xFB 0x4E 0xBB SDIV 0x2A KECCAK256 PUSH18 0xA101A4D19B2EA7E4A013015F4A6A8D29DD64 PUSH20 0x6F6C634300081400330000000000000000000000 "
				},
				"gasEstimates": {
					"creation": {
						"codeDepositCost": "1887600",
						"executionCost": "infinite",
						"totalCost": "infinite"
					},
					"external": {
						"cancelPendingRepublicAddress(address)": "infinite",
						"getAuthorityAddress()": "467",
						"getGovernance()": "2565",
						"getPresidentAdd()": "2631",
						"getPresidentBan()": "2552",
						"getPrimeMinisterAdd()": "2587",
						"getPrimeMinisterBan()": "2639",
						"getRepublicAddress()": "2542",
						"getgovernanceVersion()": "2640",
						"setCallerInfo(address,address,bytes32,uint32,uint48)": "infinite",
						"setPendigPresident(address)": "infinite",
						"setPendingGovernanceContractAddress(address)": "infinite",
						"setPendingPrimeMinister(address)": "30426",
						"setPendingRepublicAddress(address)": "infinite",
						"setPresidentBaned(bool)": "infinite",
						"setPrimeMinister(bool)": "29265",
						"transferCallerInfo()": "11228",
						"transferGovernanceContractAddress(address)": "infinite",
						"transferPresident()": "107786",
						"transferPrimeMinister()": "110041",
						"transferRepublicAddress(address)": "infinite"
					}
				},
				"methodIdentifiers": {
					"cancelPendingRepublicAddress(address)": "52e305de",
					"getAuthorityAddress()": "e47a9d46",
					"getGovernance()": "289b3c0d",
					"getPresidentAdd()": "66410997",
					"getPresidentBan()": "6cf106d7",
					"getPrimeMinisterAdd()": "a53da00b",
					"getPrimeMinisterBan()": "e4f3e947",
					"getRepublicAddress()": "c5a1c5c1",
					"getgovernanceVersion()": "c387b49c",
					"setCallerInfo(address,address,bytes32,uint32,uint48)": "14c58b51",
					"setPendigPresident(address)": "054203bd",
					"setPendingGovernanceContractAddress(address)": "ca4cce68",
					"setPendingPrimeMinister(address)": "544fa93e",
					"setPendingRepublicAddress(address)": "1f72783a",
					"setPresidentBaned(bool)": "b5c09c68",
					"setPrimeMinister(bool)": "06e99d93",
					"transferCallerInfo()": "cd01cc28",
					"transferGovernanceContractAddress(address)": "ee7126c3",
					"transferPresident()": "0df4c390",
					"transferPrimeMinister()": "18074eee",
					"transferRepublicAddress(address)": "9c20fe71"
				}
			},
			"storageLayout": {
				"storage": [
					{
						"astId": 3163,
						"contract": "contracts/faykGovernance.sol:faykGovernance",
						"label": "_pendigRepublicAddress",
						"offset": 0,
						"slot": "0",
						"type": "t_address"
					},
					{
						"astId": 3165,
						"contract": "contracts/faykGovernance.sol:faykGovernance",
						"label": "_pendingGCAddress",
						"offset": 0,
						"slot": "1",
						"type": "t_address"
					},
					{
						"astId": 3167,
						"contract": "contracts/faykGovernance.sol:faykGovernance",
						"label": "_pendigPresident",
						"offset": 0,
						"slot": "2",
						"type": "t_address"
					},
					{
						"astId": 3169,
						"contract": "contracts/faykGovernance.sol:faykGovernance",
						"label": "_pendingPrimeMinister",
						"offset": 0,
						"slot": "3",
						"type": "t_address"
					},
					{
						"astId": 3173,
						"contract": "contracts/faykGovernance.sol:faykGovernance",
						"label": "_delayConfirmRepublicAddress",
						"offset": 20,
						"slot": "3",
						"type": "t_uint48"
					},
					{
						"astId": 3183,
						"contract": "contracts/faykGovernance.sol:faykGovernance",
						"label": "_president",
						"offset": 0,
						"slot": "4",
						"type": "t_struct(access)3180_storage"
					},
					{
						"astId": 3186,
						"contract": "contracts/faykGovernance.sol:faykGovernance",
						"label": "_primeMinister",
						"offset": 0,
						"slot": "5",
						"type": "t_struct(access)3180_storage"
					},
					{
						"astId": 3189,
						"contract": "contracts/faykGovernance.sol:faykGovernance",
						"label": "_governance",
						"offset": 0,
						"slot": "6",
						"type": "t_struct(access)3180_storage"
					},
					{
						"astId": 3192,
						"contract": "contracts/faykGovernance.sol:faykGovernance",
						"label": "_Republic",
						"offset": 0,
						"slot": "7",
						"type": "t_struct(access)3180_storage"
					},
					{
						"astId": 3813,
						"contract": "contracts/faykGovernance.sol:faykGovernance",
						"label": "_callerInfo",
						"offset": 0,
						"slot": "8",
						"type": "t_mapping(t_address,t_struct(CallerInfo)3790_storage)"
					},
					{
						"astId": 3819,
						"contract": "contracts/faykGovernance.sol:faykGovernance",
						"label": "_connectorMapping",
						"offset": 0,
						"slot": "9",
						"type": "t_mapping(t_bytes32,t_mapping(t_bytes32,t_address))"
					},
					{
						"astId": 3826,
						"contract": "contracts/faykGovernance.sol:faykGovernance",
						"label": "_roleinfo",
						"offset": 0,
						"slot": "10",
						"type": "t_mapping(t_uint32,t_mapping(t_bytes32,t_struct(Role)3808_storage))"
					},
					{
						"astId": 3833,
						"contract": "contracts/faykGovernance.sol:faykGovernance",
						"label": "_targets",
						"offset": 0,
						"slot": "11",
						"type": "t_mapping(t_address,t_mapping(t_bytes4,t_struct(TargetConfig)3799_storage))"
					}
				],
				"types": {
					"t_address": {
						"encoding": "inplace",
						"label": "address",
						"numberOfBytes": "20"
					},
					"t_bool": {
						"encoding": "inplace",
						"label": "bool",
						"numberOfBytes": "1"
					},
					"t_bytes32": {
						"encoding": "inplace",
						"label": "bytes32",
						"numberOfBytes": "32"
					},
					"t_bytes4": {
						"encoding": "inplace",
						"label": "bytes4",
						"numberOfBytes": "4"
					},
					"t_mapping(t_address,t_mapping(t_bytes4,t_struct(TargetConfig)3799_storage))": {
						"encoding": "mapping",
						"key": "t_address",
						"label": "mapping(address => mapping(bytes4 => struct faykGovernance.TargetConfig))",
						"numberOfBytes": "32",
						"value": "t_mapping(t_bytes4,t_struct(TargetConfig)3799_storage)"
					},
					"t_mapping(t_address,t_struct(CallerInfo)3790_storage)": {
						"encoding": "mapping",
						"key": "t_address",
						"label": "mapping(address => struct faykGovernance.CallerInfo)",
						"numberOfBytes": "32",
						"value": "t_struct(CallerInfo)3790_storage"
					},
					"t_mapping(t_bytes32,t_address)": {
						"encoding": "mapping",
						"key": "t_bytes32",
						"label": "mapping(bytes32 => address)",
						"numberOfBytes": "32",
						"value": "t_address"
					},
					"t_mapping(t_bytes32,t_mapping(t_bytes32,t_address))": {
						"encoding": "mapping",
						"key": "t_bytes32",
						"label": "mapping(bytes32 => mapping(bytes32 => address))",
						"numberOfBytes": "32",
						"value": "t_mapping(t_bytes32,t_address)"
					},
					"t_mapping(t_bytes32,t_struct(Role)3808_storage)": {
						"encoding": "mapping",
						"key": "t_bytes32",
						"label": "mapping(bytes32 => struct faykGovernance.Role)",
						"numberOfBytes": "32",
						"value": "t_struct(Role)3808_storage"
					},
					"t_mapping(t_bytes4,t_struct(TargetConfig)3799_storage)": {
						"encoding": "mapping",
						"key": "t_bytes4",
						"label": "mapping(bytes4 => struct faykGovernance.TargetConfig)",
						"numberOfBytes": "32",
						"value": "t_struct(TargetConfig)3799_storage"
					},
					"t_mapping(t_uint32,t_mapping(t_bytes32,t_struct(Role)3808_storage))": {
						"encoding": "mapping",
						"key": "t_uint32",
						"label": "mapping(uint32 => mapping(bytes32 => struct faykGovernance.Role))",
						"numberOfBytes": "32",
						"value": "t_mapping(t_bytes32,t_struct(Role)3808_storage)"
					},
					"t_struct(CallerInfo)3790_storage": {
						"encoding": "inplace",
						"label": "struct faykGovernance.CallerInfo",
						"members": [
							{
								"astId": 3781,
								"contract": "contracts/faykGovernance.sol:faykGovernance",
								"label": "peopleName_satrap",
								"offset": 0,
								"slot": "0",
								"type": "t_bytes32"
							},
							{
								"astId": 3783,
								"contract": "contracts/faykGovernance.sol:faykGovernance",
								"label": "roleId",
								"offset": 0,
								"slot": "1",
								"type": "t_uint32"
							},
							{
								"astId": 3785,
								"contract": "contracts/faykGovernance.sol:faykGovernance",
								"label": "since",
								"offset": 4,
								"slot": "1",
								"type": "t_uint48"
							},
							{
								"astId": 3787,
								"contract": "contracts/faykGovernance.sol:faykGovernance",
								"label": "EndSession",
								"offset": 10,
								"slot": "1",
								"type": "t_uint48"
							},
							{
								"astId": 3789,
								"contract": "contracts/faykGovernance.sol:faykGovernance",
								"label": "executeDelay",
								"offset": 16,
								"slot": "1",
								"type": "t_uint48"
							}
						],
						"numberOfBytes": "64"
					},
					"t_struct(Role)3808_storage": {
						"encoding": "inplace",
						"label": "struct faykGovernance.Role",
						"members": [
							{
								"astId": 3801,
								"contract": "contracts/faykGovernance.sol:faykGovernance",
								"label": "roleLabel",
								"offset": 0,
								"slot": "0",
								"type": "t_bytes32"
							},
							{
								"astId": 3803,
								"contract": "contracts/faykGovernance.sol:faykGovernance",
								"label": "admin",
								"offset": 0,
								"slot": "1",
								"type": "t_uint32"
							},
							{
								"astId": 3805,
								"contract": "contracts/faykGovernance.sol:faykGovernance",
								"label": "guardian",
								"offset": 4,
								"slot": "1",
								"type": "t_uint32"
							},
							{
								"astId": 3807,
								"contract": "contracts/faykGovernance.sol:faykGovernance",
								"label": "periodTime",
								"offset": 8,
								"slot": "1",
								"type": "t_uint48"
							}
						],
						"numberOfBytes": "64"
					},
					"t_struct(TargetConfig)3799_storage": {
						"encoding": "inplace",
						"label": "struct faykGovernance.TargetConfig",
						"members": [
							{
								"astId": 3792,
								"contract": "contracts/faykGovernance.sol:faykGovernance",
								"label": "roleId",
								"offset": 0,
								"slot": "0",
								"type": "t_uint32"
							},
							{
								"astId": 3794,
								"contract": "contracts/faykGovernance.sol:faykGovernance",
								"label": "peopleName_satrap",
								"offset": 0,
								"slot": "1",
								"type": "t_bytes32"
							},
							{
								"astId": 3796,
								"contract": "contracts/faykGovernance.sol:faykGovernance",
								"label": "executeDelay",
								"offset": 0,
								"slot": "2",
								"type": "t_uint48"
							},
							{
								"astId": 3798,
								"contract": "contracts/faykGovernance.sol:faykGovernance",
								"label": "closed",
								"offset": 6,
								"slot": "2",
								"type": "t_bool"
							}
						],
						"numberOfBytes": "96"
					},
					"t_struct(access)3180_storage": {
						"encoding": "inplace",
						"label": "struct Authority.access",
						"members": [
							{
								"astId": 3175,
								"contract": "contracts/faykGovernance.sol:faykGovernance",
								"label": "roleAdd",
								"offset": 0,
								"slot": "0",
								"type": "t_address"
							},
							{
								"astId": 3177,
								"contract": "contracts/faykGovernance.sol:faykGovernance",
								"label": "baned",
								"offset": 20,
								"slot": "0",
								"type": "t_bool"
							},
							{
								"astId": 3179,
								"contract": "contracts/faykGovernance.sol:faykGovernance",
								"label": "nonce",
								"offset": 21,
								"slot": "0",
								"type": "t_uint32"
							}
						],
						"numberOfBytes": "32"
					},
					"t_uint32": {
						"encoding": "inplace",
						"label": "uint32",
						"numberOfBytes": "4"
					},
					"t_uint48": {
						"encoding": "inplace",
						"label": "uint48",
						"numberOfBytes": "6"
					}
				}
			},
			"userdoc": {
				"kind": "user",
				"methods": {},
				"version": 1
			}
		}
	}
}