{
	"contracts/ERC721TokenContractName.sol": {
		"ERC721TokenContractName": {
			"abi": [
				{
					"inputs": [
						{
							"internalType": "bytes20",
							"name": "name_",
							"type": "bytes20"
						},
						{
							"internalType": "bytes10",
							"name": "symbol_",
							"type": "bytes10"
						}
					],
					"stateMutability": "nonpayable",
					"type": "constructor"
				},
				{
					"inputs": [
						{
							"internalType": "address",
							"name": "sender",
							"type": "address"
						},
						{
							"internalType": "uint256",
							"name": "tokenId",
							"type": "uint256"
						},
						{
							"internalType": "address",
							"name": "owner",
							"type": "address"
						}
					],
					"name": "ERC721IncorrectOwner",
					"type": "error"
				},
				{
					"inputs": [
						{
							"internalType": "address",
							"name": "operator",
							"type": "address"
						},
						{
							"internalType": "uint256",
							"name": "tokenId",
							"type": "uint256"
						}
					],
					"name": "ERC721InsufficientApproval",
					"type": "error"
				},
				{
					"inputs": [
						{
							"internalType": "address",
							"name": "approver",
							"type": "address"
						}
					],
					"name": "ERC721InvalidApprover",
					"type": "error"
				},
				{
					"inputs": [
						{
							"internalType": "address",
							"name": "operator",
							"type": "address"
						}
					],
					"name": "ERC721InvalidOperator",
					"type": "error"
				},
				{
					"inputs": [
						{
							"internalType": "address",
							"name": "owner",
							"type": "address"
						}
					],
					"name": "ERC721InvalidOwner",
					"type": "error"
				},
				{
					"inputs": [
						{
							"internalType": "address",
							"name": "receiver",
							"type": "address"
						}
					],
					"name": "ERC721InvalidReceiver",
					"type": "error"
				},
				{
					"inputs": [
						{
							"internalType": "address",
							"name": "sender",
							"type": "address"
						}
					],
					"name": "ERC721InvalidSender",
					"type": "error"
				},
				{
					"inputs": [
						{
							"internalType": "uint256",
							"name": "tokenId",
							"type": "uint256"
						}
					],
					"name": "ERC721NonexistentToken",
					"type": "error"
				},
				{
					"anonymous": false,
					"inputs": [
						{
							"indexed": true,
							"internalType": "address",
							"name": "owner",
							"type": "address"
						},
						{
							"indexed": true,
							"internalType": "address",
							"name": "approved",
							"type": "address"
						},
						{
							"indexed": true,
							"internalType": "uint16",
							"name": "tokenId",
							"type": "uint16"
						}
					],
					"name": "Approval",
					"type": "event"
				},
				{
					"anonymous": false,
					"inputs": [
						{
							"indexed": true,
							"internalType": "address",
							"name": "owner",
							"type": "address"
						},
						{
							"indexed": true,
							"internalType": "address",
							"name": "operator",
							"type": "address"
						},
						{
							"indexed": false,
							"internalType": "bool",
							"name": "approved",
							"type": "bool"
						}
					],
					"name": "ApprovalForAll",
					"type": "event"
				},
				{
					"anonymous": false,
					"inputs": [
						{
							"indexed": true,
							"internalType": "address",
							"name": "from",
							"type": "address"
						},
						{
							"indexed": true,
							"internalType": "address",
							"name": "to",
							"type": "address"
						},
						{
							"indexed": true,
							"internalType": "uint16",
							"name": "tokenId",
							"type": "uint16"
						}
					],
					"name": "Transfer",
					"type": "event"
				},
				{
					"anonymous": false,
					"inputs": [
						{
							"indexed": true,
							"internalType": "uint16",
							"name": "newmaxMinted",
							"type": "uint16"
						},
						{
							"indexed": true,
							"internalType": "uint48",
							"name": "newregistrationStartTime",
							"type": "uint48"
						},
						{
							"indexed": true,
							"internalType": "address",
							"name": "newexecutor",
							"type": "address"
						}
					],
					"name": "updatemintInfo",
					"type": "event"
				},
				{
					"inputs": [
						{
							"internalType": "address",
							"name": "to",
							"type": "address"
						},
						{
							"internalType": "uint16",
							"name": "tokenId",
							"type": "uint16"
						}
					],
					"name": "approve",
					"outputs": [],
					"stateMutability": "nonpayable",
					"type": "function"
				},
				{
					"inputs": [
						{
							"internalType": "address",
							"name": "owner",
							"type": "address"
						}
					],
					"name": "balanceOf",
					"outputs": [
						{
							"internalType": "uint16",
							"name": "",
							"type": "uint16"
						}
					],
					"stateMutability": "view",
					"type": "function"
				},
				{
					"inputs": [
						{
							"internalType": "uint16",
							"name": "tokenId",
							"type": "uint16"
						}
					],
					"name": "getApproved",
					"outputs": [
						{
							"internalType": "address",
							"name": "",
							"type": "address"
						}
					],
					"stateMutability": "view",
					"type": "function"
				},
				{
					"inputs": [
						{
							"internalType": "address",
							"name": "owner",
							"type": "address"
						},
						{
							"internalType": "address",
							"name": "operator",
							"type": "address"
						}
					],
					"name": "isApprovedForAll",
					"outputs": [
						{
							"internalType": "bool",
							"name": "",
							"type": "bool"
						}
					],
					"stateMutability": "view",
					"type": "function"
				},
				{
					"inputs": [],
					"name": "name",
					"outputs": [
						{
							"internalType": "bytes20",
							"name": "",
							"type": "bytes20"
						}
					],
					"stateMutability": "view",
					"type": "function"
				},
				{
					"inputs": [
						{
							"internalType": "address",
							"name": "operator",
							"type": "address"
						},
						{
							"internalType": "address",
							"name": "from",
							"type": "address"
						},
						{
							"internalType": "uint16",
							"name": "tokenId",
							"type": "uint16"
						},
						{
							"internalType": "bytes",
							"name": "data",
							"type": "bytes"
						}
					],
					"name": "onERC721Received",
					"outputs": [
						{
							"internalType": "bytes4",
							"name": "",
							"type": "bytes4"
						}
					],
					"stateMutability": "nonpayable",
					"type": "function"
				},
				{
					"inputs": [
						{
							"internalType": "uint16",
							"name": "tokenId",
							"type": "uint16"
						}
					],
					"name": "ownerOf",
					"outputs": [
						{
							"internalType": "address",
							"name": "",
							"type": "address"
						}
					],
					"stateMutability": "view",
					"type": "function"
				},
				{
					"inputs": [
						{
							"internalType": "address",
							"name": "from",
							"type": "address"
						},
						{
							"internalType": "address",
							"name": "to",
							"type": "address"
						},
						{
							"internalType": "uint16",
							"name": "tokenId",
							"type": "uint16"
						}
					],
					"name": "safeTransferFrom",
					"outputs": [],
					"stateMutability": "nonpayable",
					"type": "function"
				},
				{
					"inputs": [
						{
							"internalType": "address",
							"name": "from",
							"type": "address"
						},
						{
							"internalType": "address",
							"name": "to",
							"type": "address"
						},
						{
							"internalType": "uint16",
							"name": "tokenId",
							"type": "uint16"
						},
						{
							"internalType": "bytes",
							"name": "data",
							"type": "bytes"
						}
					],
					"name": "safeTransferFrom",
					"outputs": [],
					"stateMutability": "nonpayable",
					"type": "function"
				},
				{
					"inputs": [
						{
							"internalType": "address",
							"name": "operator",
							"type": "address"
						},
						{
							"internalType": "bool",
							"name": "approved",
							"type": "bool"
						}
					],
					"name": "setApprovalForAll",
					"outputs": [],
					"stateMutability": "nonpayable",
					"type": "function"
				},
				{
					"inputs": [],
					"name": "setRegister",
					"outputs": [],
					"stateMutability": "nonpayable",
					"type": "function"
				},
				{
					"inputs": [],
					"name": "stateVoting",
					"outputs": [
						{
							"internalType": "bytes32",
							"name": "",
							"type": "bytes32"
						}
					],
					"stateMutability": "nonpayable",
					"type": "function"
				},
				{
					"inputs": [],
					"name": "symbol",
					"outputs": [
						{
							"internalType": "bytes10",
							"name": "",
							"type": "bytes10"
						}
					],
					"stateMutability": "view",
					"type": "function"
				},
				{
					"inputs": [
						{
							"internalType": "uint16",
							"name": "tokenId",
							"type": "uint16"
						}
					],
					"name": "tokenURI",
					"outputs": [
						{
							"internalType": "string",
							"name": "",
							"type": "string"
						}
					],
					"stateMutability": "view",
					"type": "function"
				},
				{
					"inputs": [
						{
							"internalType": "address",
							"name": "from",
							"type": "address"
						},
						{
							"internalType": "address",
							"name": "to",
							"type": "address"
						},
						{
							"internalType": "uint16",
							"name": "tokenId",
							"type": "uint16"
						}
					],
					"name": "transferFrom",
					"outputs": [],
					"stateMutability": "nonpayable",
					"type": "function"
				},
				{
					"inputs": [
						{
							"internalType": "uint16",
							"name": "newmaxMinted",
							"type": "uint16"
						},
						{
							"internalType": "uint48",
							"name": "newregistrationStartTime",
							"type": "uint48"
						},
						{
							"internalType": "address",
							"name": "newexecutor",
							"type": "address"
						}
					],
					"name": "updateMintInfo",
					"outputs": [],
					"stateMutability": "nonpayable",
					"type": "function"
				}
			],
			"devdoc": {
				"errors": {
					"ERC721IncorrectOwner(address,uint256,address)": [
						{
							"details": "Indicates an error related to the ownership over a particular token. Used in transfers.",
							"params": {
								"owner": "Address of the current owner of a token.",
								"sender": "Address whose tokens are being transferred.",
								"tokenId": "Identifier number of a token."
							}
						}
					],
					"ERC721InsufficientApproval(address,uint256)": [
						{
							"details": "Indicates a failure with the `operator`’s approval. Used in transfers.",
							"params": {
								"operator": "Address that may be allowed to operate on tokens without being their owner.",
								"tokenId": "Identifier number of a token."
							}
						}
					],
					"ERC721InvalidApprover(address)": [
						{
							"details": "Indicates a failure with the `approver` of a token to be approved. Used in approvals.",
							"params": {
								"approver": "Address initiating an approval operation."
							}
						}
					],
					"ERC721InvalidOperator(address)": [
						{
							"details": "Indicates a failure with the `operator` to be approved. Used in approvals.",
							"params": {
								"operator": "Address that may be allowed to operate on tokens without being their owner."
							}
						}
					],
					"ERC721InvalidOwner(address)": [
						{
							"details": "Indicates that an address can't be an owner. For example, `address(0)` is a forbidden owner in EIP-20. Used in balance queries.",
							"params": {
								"owner": "Address of the current owner of a token."
							}
						}
					],
					"ERC721InvalidReceiver(address)": [
						{
							"details": "Indicates a failure with the token `receiver`. Used in transfers.",
							"params": {
								"receiver": "Address to which tokens are being transferred."
							}
						}
					],
					"ERC721InvalidSender(address)": [
						{
							"details": "Indicates a failure with the token `sender`. Used in transfers.",
							"params": {
								"sender": "Address whose tokens are being transferred."
							}
						}
					],
					"ERC721NonexistentToken(uint256)": [
						{
							"details": "Indicates a `tokenId` whose `owner` is the zero address.",
							"params": {
								"tokenId": "Identifier number of a token."
							}
						}
					]
				},
				"kind": "dev",
				"methods": {
					"onERC721Received(address,address,uint16,bytes)": {
						"details": "Whenever an {IERC721} `tokenId` token is transferred to this contract via {IERC721-safeTransferFrom} by `operator` from `from`, this function is called. It must return its Solidity selector to confirm the token transfer. If any other value is returned or the interface is not implemented by the recipient, the transfer will be reverted. The selector can be obtained in Solidity with `IERC721Receiver.onERC721Received.selector`."
					}
				},
				"version": 1
			},
			"evm": {
				"assembly": "    /* \"contracts/ERC721TokenContractName.sol\":400:8850  contract ERC721TokenContractName is Context, IERC721Errors, IERC721TCNReceiver {... */\n  mstore(0x40, 0x80)\n    /* \"contracts/ERC721TokenContractName.sol\":1562:1709  constructor(bytes20 name_, bytes10 symbol_) {... */\n  callvalue\n  dup1\n  iszero\n  tag_1\n  jumpi\n  0x00\n  dup1\n  revert\ntag_1:\n  pop\n  mload(0x40)\n  sub(codesize, bytecodeSize)\n  dup1\n  bytecodeSize\n  dup4\n  codecopy\n  dup2\n  dup2\n  add\n  0x40\n  mstore\n  dup2\n  add\n  swap1\n  tag_2\n  swap2\n  swap1\n  tag_3\n  jump\t// in\ntag_2:\n    /* \"contracts/ERC721TokenContractName.sol\":1625:1630  name_ */\n  dup2\n    /* \"contracts/ERC721TokenContractName.sol\":1617:1622  _name */\n  0x00\n  dup1\n    /* \"contracts/ERC721TokenContractName.sol\":1617:1630  _name = name_ */\n  0x0100\n  exp\n  dup2\n  sload\n  dup2\n  0xffffffffffffffffffffffffffffffffffffffff\n  mul\n  not\n  and\n  swap1\n  dup4\n  0x60\n  shr\n  mul\n  or\n  swap1\n  sstore\n  pop\n    /* \"contracts/ERC721TokenContractName.sol\":1651:1658  symbol_ */\n  dup1\n    /* \"contracts/ERC721TokenContractName.sol\":1641:1648  _symbol */\n  0x00\n  0x14\n    /* \"contracts/ERC721TokenContractName.sol\":1641:1658  _symbol = symbol_ */\n  0x0100\n  exp\n  dup2\n  sload\n  dup2\n  0xffffffffffffffffffff\n  mul\n  not\n  and\n  swap1\n  dup4\n  0xb0\n  shr\n  mul\n  or\n  swap1\n  sstore\n  pop\n    /* \"contracts/ERC721TokenContractName.sol\":1689:1701  _msgSender() */\n  tag_6\n    /* \"contracts/ERC721TokenContractName.sol\":1689:1699  _msgSender */\n  shl(0x20, tag_7)\n    /* \"contracts/ERC721TokenContractName.sol\":1689:1701  _msgSender() */\n  0x20\n  shr\n  jump\t// in\ntag_6:\n    /* \"contracts/ERC721TokenContractName.sol\":1669:1677  mintInfo */\n  0x01\n    /* \"contracts/ERC721TokenContractName.sol\":1669:1686  mintInfo.executor */\n  0x00\n  add\n  0x0c\n    /* \"contracts/ERC721TokenContractName.sol\":1669:1701  mintInfo.executor = _msgSender() */\n  0x0100\n  exp\n  dup2\n  sload\n  dup2\n  0xffffffffffffffffffffffffffffffffffffffff\n  mul\n  not\n  and\n  swap1\n  dup4\n  0xffffffffffffffffffffffffffffffffffffffff\n  and\n  mul\n  or\n  swap1\n  sstore\n  pop\n    /* \"contracts/ERC721TokenContractName.sol\":1562:1709  constructor(bytes20 name_, bytes10 symbol_) {... */\n  pop\n  pop\n    /* \"contracts/ERC721TokenContractName.sol\":400:8850  contract ERC721TokenContractName is Context, IERC721Errors, IERC721TCNReceiver {... */\n  jump(tag_8)\n    /* \"@openzeppelin/contracts/utils/Context.sol\":656:752  function _msgSender() internal view virtual returns (address) {... */\ntag_7:\n    /* \"@openzeppelin/contracts/utils/Context.sol\":709:716  address */\n  0x00\n    /* \"@openzeppelin/contracts/utils/Context.sol\":735:745  msg.sender */\n  caller\n    /* \"@openzeppelin/contracts/utils/Context.sol\":728:745  return msg.sender */\n  swap1\n  pop\n    /* \"@openzeppelin/contracts/utils/Context.sol\":656:752  function _msgSender() internal view virtual returns (address) {... */\n  swap1\n  jump\t// out\n    /* \"#utility.yul\":88:205   */\ntag_11:\n    /* \"#utility.yul\":197:198   */\n  0x00\n    /* \"#utility.yul\":194:195   */\n  dup1\n    /* \"#utility.yul\":187:199   */\n  revert\n    /* \"#utility.yul\":334:484   */\ntag_13:\n    /* \"#utility.yul\":371:378   */\n  0x00\n    /* \"#utility.yul\":411:477   */\n  0xffffffffffffffffffffffffffffffffffffffff000000000000000000000000\n    /* \"#utility.yul\":404:409   */\n  dup3\n    /* \"#utility.yul\":400:478   */\n  and\n    /* \"#utility.yul\":389:478   */\n  swap1\n  pop\n    /* \"#utility.yul\":334:484   */\n  swap2\n  swap1\n  pop\n  jump\t// out\n    /* \"#utility.yul\":490:612   */\ntag_14:\n    /* \"#utility.yul\":563:587   */\n  tag_25\n    /* \"#utility.yul\":581:586   */\n  dup2\n    /* \"#utility.yul\":563:587   */\n  tag_13\n  jump\t// in\ntag_25:\n    /* \"#utility.yul\":556:561   */\n  dup2\n    /* \"#utility.yul\":553:588   */\n  eq\n    /* \"#utility.yul\":543:606   */\n  tag_26\n  jumpi\n    /* \"#utility.yul\":602:603   */\n  0x00\n    /* \"#utility.yul\":599:600   */\n  dup1\n    /* \"#utility.yul\":592:604   */\n  revert\n    /* \"#utility.yul\":543:606   */\ntag_26:\n    /* \"#utility.yul\":490:612   */\n  pop\n  jump\t// out\n    /* \"#utility.yul\":618:761   */\ntag_15:\n    /* \"#utility.yul\":675:680   */\n  0x00\n    /* \"#utility.yul\":706:712   */\n  dup2\n    /* \"#utility.yul\":700:713   */\n  mload\n    /* \"#utility.yul\":691:713   */\n  swap1\n  pop\n    /* \"#utility.yul\":722:755   */\n  tag_28\n    /* \"#utility.yul\":749:754   */\n  dup2\n    /* \"#utility.yul\":722:755   */\n  tag_14\n  jump\t// in\ntag_28:\n    /* \"#utility.yul\":618:761   */\n  swap3\n  swap2\n  pop\n  pop\n  jump\t// out\n    /* \"#utility.yul\":767:917   */\ntag_16:\n    /* \"#utility.yul\":804:811   */\n  0x00\n    /* \"#utility.yul\":844:910   */\n  0xffffffffffffffffffff00000000000000000000000000000000000000000000\n    /* \"#utility.yul\":837:842   */\n  dup3\n    /* \"#utility.yul\":833:911   */\n  and\n    /* \"#utility.yul\":822:911   */\n  swap1\n  pop\n    /* \"#utility.yul\":767:917   */\n  swap2\n  swap1\n  pop\n  jump\t// out\n    /* \"#utility.yul\":923:1045   */\ntag_17:\n    /* \"#utility.yul\":996:1020   */\n  tag_31\n    /* \"#utility.yul\":1014:1019   */\n  dup2\n    /* \"#utility.yul\":996:1020   */\n  tag_16\n  jump\t// in\ntag_31:\n    /* \"#utility.yul\":989:994   */\n  dup2\n    /* \"#utility.yul\":986:1021   */\n  eq\n    /* \"#utility.yul\":976:1039   */\n  tag_32\n  jumpi\n    /* \"#utility.yul\":1035:1036   */\n  0x00\n    /* \"#utility.yul\":1032:1033   */\n  dup1\n    /* \"#utility.yul\":1025:1037   */\n  revert\n    /* \"#utility.yul\":976:1039   */\ntag_32:\n    /* \"#utility.yul\":923:1045   */\n  pop\n  jump\t// out\n    /* \"#utility.yul\":1051:1194   */\ntag_18:\n    /* \"#utility.yul\":1108:1113   */\n  0x00\n    /* \"#utility.yul\":1139:1145   */\n  dup2\n    /* \"#utility.yul\":1133:1146   */\n  mload\n    /* \"#utility.yul\":1124:1146   */\n  swap1\n  pop\n    /* \"#utility.yul\":1155:1188   */\n  tag_34\n    /* \"#utility.yul\":1182:1187   */\n  dup2\n    /* \"#utility.yul\":1155:1188   */\n  tag_17\n  jump\t// in\ntag_34:\n    /* \"#utility.yul\":1051:1194   */\n  swap3\n  swap2\n  pop\n  pop\n  jump\t// out\n    /* \"#utility.yul\":1200:1707   */\ntag_3:\n    /* \"#utility.yul\":1279:1285   */\n  0x00\n    /* \"#utility.yul\":1287:1293   */\n  dup1\n    /* \"#utility.yul\":1336:1338   */\n  0x40\n    /* \"#utility.yul\":1324:1333   */\n  dup4\n    /* \"#utility.yul\":1315:1322   */\n  dup6\n    /* \"#utility.yul\":1311:1334   */\n  sub\n    /* \"#utility.yul\":1307:1339   */\n  slt\n    /* \"#utility.yul\":1304:1423   */\n  iszero\n  tag_36\n  jumpi\n    /* \"#utility.yul\":1342:1421   */\n  tag_37\n  tag_11\n  jump\t// in\ntag_37:\n    /* \"#utility.yul\":1304:1423   */\ntag_36:\n    /* \"#utility.yul\":1462:1463   */\n  0x00\n    /* \"#utility.yul\":1487:1551   */\n  tag_38\n    /* \"#utility.yul\":1543:1550   */\n  dup6\n    /* \"#utility.yul\":1534:1540   */\n  dup3\n    /* \"#utility.yul\":1523:1532   */\n  dup7\n    /* \"#utility.yul\":1519:1541   */\n  add\n    /* \"#utility.yul\":1487:1551   */\n  tag_15\n  jump\t// in\ntag_38:\n    /* \"#utility.yul\":1477:1551   */\n  swap3\n  pop\n    /* \"#utility.yul\":1433:1561   */\n  pop\n    /* \"#utility.yul\":1600:1602   */\n  0x20\n    /* \"#utility.yul\":1626:1690   */\n  tag_39\n    /* \"#utility.yul\":1682:1689   */\n  dup6\n    /* \"#utility.yul\":1673:1679   */\n  dup3\n    /* \"#utility.yul\":1662:1671   */\n  dup7\n    /* \"#utility.yul\":1658:1680   */\n  add\n    /* \"#utility.yul\":1626:1690   */\n  tag_18\n  jump\t// in\ntag_39:\n    /* \"#utility.yul\":1616:1690   */\n  swap2\n  pop\n    /* \"#utility.yul\":1571:1700   */\n  pop\n    /* \"#utility.yul\":1200:1707   */\n  swap3\n  pop\n  swap3\n  swap1\n  pop\n  jump\t// out\n    /* \"contracts/ERC721TokenContractName.sol\":400:8850  contract ERC721TokenContractName is Context, IERC721Errors, IERC721TCNReceiver {... */\ntag_8:\n  dataSize(sub_0)\n  dup1\n  dataOffset(sub_0)\n  0x00\n  codecopy\n  0x00\n  return\nstop\n\nsub_0: assembly {\n        /* \"contracts/ERC721TokenContractName.sol\":400:8850  contract ERC721TokenContractName is Context, IERC721Errors, IERC721TCNReceiver {... */\n      mstore(0x40, 0x80)\n      callvalue\n      dup1\n      iszero\n      tag_1\n      jumpi\n      0x00\n      dup1\n      revert\n    tag_1:\n      pop\n      jumpi(tag_2, lt(calldatasize, 0x04))\n      shr(0xe0, calldataload(0x00))\n      dup1\n      0xa22cb465\n      gt\n      tag_19\n      jumpi\n      dup1\n      0xe560ca43\n      gt\n      tag_20\n      jumpi\n      dup1\n      0xe560ca43\n      eq\n      tag_15\n      jumpi\n      dup1\n      0xe985e9c5\n      eq\n      tag_16\n      jumpi\n      dup1\n      0xecadbc04\n      eq\n      tag_17\n      jumpi\n      dup1\n      0xedbe39a0\n      eq\n      tag_18\n      jumpi\n      jump(tag_2)\n    tag_20:\n      dup1\n      0xa22cb465\n      eq\n      tag_11\n      jumpi\n      dup1\n      0xb145ae31\n      eq\n      tag_12\n      jumpi\n      dup1\n      0xb1cff380\n      eq\n      tag_13\n      jumpi\n      dup1\n      0xdd7d8440\n      eq\n      tag_14\n      jumpi\n      jump(tag_2)\n    tag_19:\n      dup1\n      0x70a08231\n      gt\n      tag_21\n      jumpi\n      dup1\n      0x70a08231\n      eq\n      tag_7\n      jumpi\n      dup1\n      0x82a7cf1e\n      eq\n      tag_8\n      jumpi\n      dup1\n      0x93b871f2\n      eq\n      tag_9\n      jumpi\n      dup1\n      0x95d89b41\n      eq\n      tag_10\n      jumpi\n      jump(tag_2)\n    tag_21:\n      dup1\n      0x06fdde03\n      eq\n      tag_3\n      jumpi\n      dup1\n      0x07394401\n      eq\n      tag_4\n      jumpi\n      dup1\n      0x4ec3dcfe\n      eq\n      tag_5\n      jumpi\n      dup1\n      0x6e1514f1\n      eq\n      tag_6\n      jumpi\n    tag_2:\n      0x00\n      dup1\n      revert\n        /* \"contracts/ERC721TokenContractName.sol\":1719:1796  function name() public view returns (bytes20) {... */\n    tag_3:\n      tag_22\n      tag_23\n      jump\t// in\n    tag_22:\n      mload(0x40)\n      tag_24\n      swap2\n      swap1\n      tag_25\n      jump\t// in\n    tag_24:\n      mload(0x40)\n      dup1\n      swap2\n      sub\n      swap1\n      return\n        /* \"contracts/ERC721TokenContractName.sol\":4627:4760  function safeTransferFrom(address from, address to, uint16 tokenId) public {... */\n    tag_4:\n      tag_26\n      0x04\n      dup1\n      calldatasize\n      sub\n      dup2\n      add\n      swap1\n      tag_27\n      swap2\n      swap1\n      tag_28\n      jump\t// in\n    tag_27:\n      tag_29\n      jump\t// in\n    tag_26:\n      stop\n        /* \"contracts/ERC721TokenContractName.sol\":3622:4619  function transferFrom(address from, address to, uint16 tokenId) public virtual {... */\n    tag_5:\n      tag_30\n      0x04\n      dup1\n      calldatasize\n      sub\n      dup2\n      add\n      swap1\n      tag_31\n      swap2\n      swap1\n      tag_28\n      jump\t// in\n    tag_31:\n      tag_32\n      jump\t// in\n    tag_30:\n      stop\n        /* \"contracts/ERC721TokenContractName.sol\":8756:8813  function stateVoting() public returns(bytes32) {... */\n    tag_6:\n      tag_33\n      tag_34\n      jump\t// in\n    tag_33:\n      mload(0x40)\n      tag_35\n      swap2\n      swap1\n      tag_36\n      jump\t// in\n    tag_35:\n      mload(0x40)\n      dup1\n      swap2\n      sub\n      swap1\n      return\n        /* \"contracts/ERC721TokenContractName.sol\":1897:2086  function balanceOf(address owner) public view returns (uint16) {... */\n    tag_7:\n      tag_37\n      0x04\n      dup1\n      calldatasize\n      sub\n      dup2\n      add\n      swap1\n      tag_38\n      swap2\n      swap1\n      tag_39\n      jump\t// in\n    tag_38:\n      tag_40\n      jump\t// in\n    tag_37:\n      mload(0x40)\n      tag_41\n      swap2\n      swap1\n      tag_42\n      jump\t// in\n    tag_41:\n      mload(0x40)\n      dup1\n      swap2\n      sub\n      swap1\n      return\n        /* \"contracts/ERC721TokenContractName.sol\":2096:2207  function ownerOf(uint16 tokenId) public view returns (address) {... */\n    tag_8:\n      tag_43\n      0x04\n      dup1\n      calldatasize\n      sub\n      dup2\n      add\n      swap1\n      tag_44\n      swap2\n      swap1\n      tag_45\n      jump\t// in\n    tag_44:\n      tag_46\n      jump\t// in\n    tag_43:\n      mload(0x40)\n      tag_47\n      swap2\n      swap1\n      tag_48\n      jump\t// in\n    tag_47:\n      mload(0x40)\n      dup1\n      swap2\n      sub\n      swap1\n      return\n        /* \"contracts/ERC721TokenContractName.sol\":2863:3023  function getApproved(uint16 tokenId) public view virtual returns (address) {... */\n    tag_9:\n      tag_49\n      0x04\n      dup1\n      calldatasize\n      sub\n      dup2\n      add\n      swap1\n      tag_50\n      swap2\n      swap1\n      tag_45\n      jump\t// in\n    tag_50:\n      tag_51\n      jump\t// in\n    tag_49:\n      mload(0x40)\n      tag_52\n      swap2\n      swap1\n      tag_48\n      jump\t// in\n    tag_52:\n      mload(0x40)\n      dup1\n      swap2\n      sub\n      swap1\n      return\n        /* \"contracts/ERC721TokenContractName.sol\":1806:1887  function symbol() public view returns (bytes10) {... */\n    tag_10:\n      tag_53\n      tag_54\n      jump\t// in\n    tag_53:\n      mload(0x40)\n      tag_55\n      swap2\n      swap1\n      tag_56\n      jump\t// in\n    tag_55:\n      mload(0x40)\n      dup1\n      swap2\n      sub\n      swap1\n      return\n        /* \"contracts/ERC721TokenContractName.sol\":3031:3457  function setApprovalForAll(address operator, bool approved) public {... */\n    tag_11:\n      tag_57\n      0x04\n      dup1\n      calldatasize\n      sub\n      dup2\n      add\n      swap1\n      tag_58\n      swap2\n      swap1\n      tag_59\n      jump\t// in\n    tag_58:\n      tag_60\n      jump\t// in\n    tag_57:\n      stop\n        /* \"contracts/ERC721TokenContractName.sol\":4768:4978  function safeTransferFrom(address from, address to, uint16 tokenId, bytes memory data) public virtual {... */\n    tag_12:\n      tag_61\n      0x04\n      dup1\n      calldatasize\n      sub\n      dup2\n      add\n      swap1\n      tag_62\n      swap2\n      swap1\n      tag_63\n      jump\t// in\n    tag_62:\n      tag_64\n      jump\t// in\n    tag_61:\n      stop\n        /* \"contracts/ERC721TokenContractName.sol\":8485:8650  function onERC721Received(... */\n    tag_13:\n      tag_65\n      0x04\n      dup1\n      calldatasize\n      sub\n      dup2\n      add\n      swap1\n      tag_66\n      swap2\n      swap1\n      tag_67\n      jump\t// in\n    tag_66:\n      tag_68\n      jump\t// in\n    tag_65:\n      mload(0x40)\n      tag_69\n      swap2\n      swap1\n      tag_70\n      jump\t// in\n    tag_69:\n      mload(0x40)\n      dup1\n      swap2\n      sub\n      swap1\n      return\n        /* \"contracts/ERC721TokenContractName.sol\":2217:2457  function tokenURI(uint16 tokenId) public view returns (string memory) {... */\n    tag_14:\n      tag_71\n      0x04\n      dup1\n      calldatasize\n      sub\n      dup2\n      add\n      swap1\n      tag_72\n      swap2\n      swap1\n      tag_45\n      jump\t// in\n    tag_72:\n      tag_73\n      jump\t// in\n    tag_71:\n      mload(0x40)\n      tag_74\n      swap2\n      swap1\n      tag_75\n      jump\t// in\n    tag_74:\n      mload(0x40)\n      dup1\n      swap2\n      sub\n      swap1\n      return\n        /* \"contracts/ERC721TokenContractName.sol\":2467:2855  function approve(address to, uint16 tokenId) public {... */\n    tag_15:\n      tag_76\n      0x04\n      dup1\n      calldatasize\n      sub\n      dup2\n      add\n      swap1\n      tag_77\n      swap2\n      swap1\n      tag_78\n      jump\t// in\n    tag_77:\n      tag_79\n      jump\t// in\n    tag_76:\n      stop\n        /* \"contracts/ERC721TokenContractName.sol\":3467:3614  function isApprovedForAll(address owner, address operator) public view returns (bool) {... */\n    tag_16:\n      tag_80\n      0x04\n      dup1\n      calldatasize\n      sub\n      dup2\n      add\n      swap1\n      tag_81\n      swap2\n      swap1\n      tag_82\n      jump\t// in\n    tag_81:\n      tag_83\n      jump\t// in\n    tag_80:\n      mload(0x40)\n      tag_84\n      swap2\n      swap1\n      tag_85\n      jump\t// in\n    tag_84:\n      mload(0x40)\n      dup1\n      swap2\n      sub\n      swap1\n      return\n        /* \"contracts/ERC721TokenContractName.sol\":5917:6158  function setRegister() public{... */\n    tag_17:\n      tag_86\n      tag_87\n      jump\t// in\n    tag_86:\n      stop\n        /* \"contracts/ERC721TokenContractName.sol\":4988:5909  function updateMintInfo(uint16 newmaxMinted, uint48 newregistrationStartTime, address newexecutor) public {... */\n    tag_18:\n      tag_88\n      0x04\n      dup1\n      calldatasize\n      sub\n      dup2\n      add\n      swap1\n      tag_89\n      swap2\n      swap1\n      tag_90\n      jump\t// in\n    tag_89:\n      tag_91\n      jump\t// in\n    tag_88:\n      stop\n        /* \"contracts/ERC721TokenContractName.sol\":1719:1796  function name() public view returns (bytes20) {... */\n    tag_23:\n        /* \"contracts/ERC721TokenContractName.sol\":1756:1763  bytes20 */\n      0x00\n        /* \"contracts/ERC721TokenContractName.sol\":1783:1788  _name */\n      dup1\n      0x00\n      swap1\n      sload\n      swap1\n      0x0100\n      exp\n      swap1\n      div\n      0x60\n      shl\n        /* \"contracts/ERC721TokenContractName.sol\":1776:1788  return _name */\n      swap1\n      pop\n        /* \"contracts/ERC721TokenContractName.sol\":1719:1796  function name() public view returns (bytes20) {... */\n      swap1\n      jump\t// out\n        /* \"contracts/ERC721TokenContractName.sol\":4627:4760  function safeTransferFrom(address from, address to, uint16 tokenId) public {... */\n    tag_29:\n        /* \"contracts/ERC721TokenContractName.sol\":4713:4752  safeTransferFrom(from, to, tokenId, \"\") */\n      tag_94\n        /* \"contracts/ERC721TokenContractName.sol\":4730:4734  from */\n      dup4\n        /* \"contracts/ERC721TokenContractName.sol\":4736:4738  to */\n      dup4\n        /* \"contracts/ERC721TokenContractName.sol\":4740:4747  tokenId */\n      dup4\n        /* \"contracts/ERC721TokenContractName.sol\":4713:4752  safeTransferFrom(from, to, tokenId, \"\") */\n      mload(0x40)\n      dup1\n      0x20\n      add\n      0x40\n      mstore\n      dup1\n      0x00\n      dup2\n      mstore\n      pop\n        /* \"contracts/ERC721TokenContractName.sol\":4713:4729  safeTransferFrom */\n      tag_64\n        /* \"contracts/ERC721TokenContractName.sol\":4713:4752  safeTransferFrom(from, to, tokenId, \"\") */\n      jump\t// in\n    tag_94:\n        /* \"contracts/ERC721TokenContractName.sol\":4627:4760  function safeTransferFrom(address from, address to, uint16 tokenId) public {... */\n      pop\n      pop\n      pop\n      jump\t// out\n        /* \"contracts/ERC721TokenContractName.sol\":3622:4619  function transferFrom(address from, address to, uint16 tokenId) public virtual {... */\n    tag_32:\n        /* \"contracts/ERC721TokenContractName.sol\":3731:3732  0 */\n      0x00\n        /* \"contracts/ERC721TokenContractName.sol\":3717:3733  to == address(0) */\n      0xffffffffffffffffffffffffffffffffffffffff\n      and\n        /* \"contracts/ERC721TokenContractName.sol\":3717:3719  to */\n      dup3\n        /* \"contracts/ERC721TokenContractName.sol\":3717:3733  to == address(0) */\n      0xffffffffffffffffffffffffffffffffffffffff\n      and\n      sub\n        /* \"contracts/ERC721TokenContractName.sol\":3713:3802  if (to == address(0)) {... */\n      tag_96\n      jumpi\n        /* \"contracts/ERC721TokenContractName.sol\":3787:3788  0 */\n      0x00\n        /* \"contracts/ERC721TokenContractName.sol\":3757:3790  ERC721InvalidReceiver(address(0)) */\n      mload(0x40)\n      0x64a0ae9200000000000000000000000000000000000000000000000000000000\n      dup2\n      mstore\n      0x04\n      add\n      tag_97\n      swap2\n      swap1\n      tag_48\n      jump\t// in\n    tag_97:\n      mload(0x40)\n      dup1\n      swap2\n      sub\n      swap1\n      revert\n        /* \"contracts/ERC721TokenContractName.sol\":3713:3802  if (to == address(0)) {... */\n    tag_96:\n        /* \"contracts/ERC721TokenContractName.sol\":3814:3835  address previousOwner */\n      0x00\n        /* \"contracts/ERC721TokenContractName.sol\":3838:3860  _requireOwned(tokenId) */\n      tag_98\n        /* \"contracts/ERC721TokenContractName.sol\":3852:3859  tokenId */\n      dup3\n        /* \"contracts/ERC721TokenContractName.sol\":3838:3851  _requireOwned */\n      tag_99\n        /* \"contracts/ERC721TokenContractName.sol\":3838:3860  _requireOwned(tokenId) */\n      jump\t// in\n    tag_98:\n        /* \"contracts/ERC721TokenContractName.sol\":3814:3860  address previousOwner = _requireOwned(tokenId) */\n      swap1\n      pop\n        /* \"contracts/ERC721TokenContractName.sol\":3882:3885  ban */\n      0x04b3\n        /* \"contracts/ERC721TokenContractName.sol\":3886:3893  tokenId */\n      dup3\n        /* \"contracts/ERC721TokenContractName.sol\":3882:3894  ban[tokenId] */\n      0xffff\n      and\n      0x04b1\n      dup2\n      lt\n      tag_100\n      jumpi\n      tag_101\n      tag_102\n      jump\t// in\n    tag_101:\n    tag_100:\n      0x20\n      swap2\n      dup3\n      dup3\n      div\n      add\n      swap2\n      swap1\n      mod\n      swap1\n      sload\n      swap1\n      0x0100\n      exp\n      swap1\n      div\n      0xff\n      and\n        /* \"contracts/ERC721TokenContractName.sol\":3881:3894  !ban[tokenId] */\n      iszero\n        /* \"contracts/ERC721TokenContractName.sol\":3873:3945  require(!ban[tokenId], \"The transfer of this token is currently banned\") */\n      tag_104\n      jumpi\n      mload(0x40)\n      0x08c379a000000000000000000000000000000000000000000000000000000000\n      dup2\n      mstore\n      0x04\n      add\n      tag_105\n      swap1\n      tag_106\n      jump\t// in\n    tag_105:\n      mload(0x40)\n      dup1\n      swap2\n      sub\n      swap1\n      revert\n    tag_104:\n        /* \"contracts/ERC721TokenContractName.sol\":3980:3993  previousOwner */\n      dup1\n        /* \"contracts/ERC721TokenContractName.sol\":3964:3993  _msgSender() == previousOwner */\n      0xffffffffffffffffffffffffffffffffffffffff\n      and\n        /* \"contracts/ERC721TokenContractName.sol\":3964:3976  _msgSender() */\n      tag_107\n        /* \"contracts/ERC721TokenContractName.sol\":3964:3974  _msgSender */\n      tag_108\n        /* \"contracts/ERC721TokenContractName.sol\":3964:3976  _msgSender() */\n      jump\t// in\n    tag_107:\n        /* \"contracts/ERC721TokenContractName.sol\":3964:3993  _msgSender() == previousOwner */\n      0xffffffffffffffffffffffffffffffffffffffff\n      and\n      eq\n        /* \"contracts/ERC721TokenContractName.sol\":3964:4042  _msgSender() == previousOwner || isApprovedForAll(previousOwner, _msgSender()) */\n      dup1\n      tag_109\n      jumpi\n      pop\n        /* \"contracts/ERC721TokenContractName.sol\":3997:4042  isApprovedForAll(previousOwner, _msgSender()) */\n      tag_110\n        /* \"contracts/ERC721TokenContractName.sol\":4014:4027  previousOwner */\n      dup2\n        /* \"contracts/ERC721TokenContractName.sol\":4029:4041  _msgSender() */\n      tag_111\n        /* \"contracts/ERC721TokenContractName.sol\":4029:4039  _msgSender */\n      tag_108\n        /* \"contracts/ERC721TokenContractName.sol\":4029:4041  _msgSender() */\n      jump\t// in\n    tag_111:\n        /* \"contracts/ERC721TokenContractName.sol\":3997:4013  isApprovedForAll */\n      tag_83\n        /* \"contracts/ERC721TokenContractName.sol\":3997:4042  isApprovedForAll(previousOwner, _msgSender()) */\n      jump\t// in\n    tag_110:\n        /* \"contracts/ERC721TokenContractName.sol\":3964:4042  _msgSender() == previousOwner || isApprovedForAll(previousOwner, _msgSender()) */\n    tag_109:\n        /* \"contracts/ERC721TokenContractName.sol\":3964:4082  _msgSender() == previousOwner || isApprovedForAll(previousOwner, _msgSender()) || getApproved(tokenId) == _msgSender() */\n      dup1\n      tag_112\n      jumpi\n      pop\n        /* \"contracts/ERC721TokenContractName.sol\":4070:4082  _msgSender() */\n      tag_113\n        /* \"contracts/ERC721TokenContractName.sol\":4070:4080  _msgSender */\n      tag_108\n        /* \"contracts/ERC721TokenContractName.sol\":4070:4082  _msgSender() */\n      jump\t// in\n    tag_113:\n        /* \"contracts/ERC721TokenContractName.sol\":4046:4082  getApproved(tokenId) == _msgSender() */\n      0xffffffffffffffffffffffffffffffffffffffff\n      and\n        /* \"contracts/ERC721TokenContractName.sol\":4046:4066  getApproved(tokenId) */\n      tag_114\n        /* \"contracts/ERC721TokenContractName.sol\":4058:4065  tokenId */\n      dup4\n        /* \"contracts/ERC721TokenContractName.sol\":4046:4057  getApproved */\n      tag_51\n        /* \"contracts/ERC721TokenContractName.sol\":4046:4066  getApproved(tokenId) */\n      jump\t// in\n    tag_114:\n        /* \"contracts/ERC721TokenContractName.sol\":4046:4082  getApproved(tokenId) == _msgSender() */\n      0xffffffffffffffffffffffffffffffffffffffff\n      and\n      eq\n        /* \"contracts/ERC721TokenContractName.sol\":3964:4082  _msgSender() == previousOwner || isApprovedForAll(previousOwner, _msgSender()) || getApproved(tokenId) == _msgSender() */\n    tag_112:\n        /* \"contracts/ERC721TokenContractName.sol\":3958:4168  if (!(_msgSender() == previousOwner || isApprovedForAll(previousOwner, _msgSender()) || getApproved(tokenId) == _msgSender())) {... */\n      tag_115\n      jumpi\n        /* \"contracts/ERC721TokenContractName.sol\":4134:4146  _msgSender() */\n      tag_116\n        /* \"contracts/ERC721TokenContractName.sol\":4134:4144  _msgSender */\n      tag_108\n        /* \"contracts/ERC721TokenContractName.sol\":4134:4146  _msgSender() */\n      jump\t// in\n    tag_116:\n        /* \"contracts/ERC721TokenContractName.sol\":4148:4155  tokenId */\n      dup3\n        /* \"contracts/ERC721TokenContractName.sol\":4107:4156  ERC721InsufficientApproval(_msgSender(), tokenId) */\n      mload(0x40)\n      0x177e802f00000000000000000000000000000000000000000000000000000000\n      dup2\n      mstore\n      0x04\n      add\n      tag_117\n      swap3\n      swap2\n      swap1\n      tag_118\n      jump\t// in\n    tag_117:\n      mload(0x40)\n      dup1\n      swap2\n      sub\n      swap1\n      revert\n        /* \"contracts/ERC721TokenContractName.sol\":3958:4168  if (!(_msgSender() == previousOwner || isApprovedForAll(previousOwner, _msgSender()) || getApproved(tokenId) == _msgSender())) {... */\n    tag_115:\n        /* \"contracts/ERC721TokenContractName.sol\":4209:4213  from */\n      dup4\n        /* \"contracts/ERC721TokenContractName.sol\":4192:4213  previousOwner != from */\n      0xffffffffffffffffffffffffffffffffffffffff\n      and\n        /* \"contracts/ERC721TokenContractName.sol\":4192:4205  previousOwner */\n      dup2\n        /* \"contracts/ERC721TokenContractName.sol\":4192:4213  previousOwner != from */\n      0xffffffffffffffffffffffffffffffffffffffff\n      and\n      eq\n        /* \"contracts/ERC721TokenContractName.sol\":4188:4299  if (previousOwner != from) {... */\n      tag_119\n      jumpi\n        /* \"contracts/ERC721TokenContractName.sol\":4258:4262  from */\n      dup4\n        /* \"contracts/ERC721TokenContractName.sol\":4264:4271  tokenId */\n      dup3\n        /* \"contracts/ERC721TokenContractName.sol\":4273:4286  previousOwner */\n      dup3\n        /* \"contracts/ERC721TokenContractName.sol\":4237:4287  ERC721IncorrectOwner(from, tokenId, previousOwner) */\n      mload(0x40)\n      0x64283d7b00000000000000000000000000000000000000000000000000000000\n      dup2\n      mstore\n      0x04\n      add\n      tag_120\n      swap4\n      swap3\n      swap2\n      swap1\n      tag_121\n      jump\t// in\n    tag_120:\n      mload(0x40)\n      dup1\n      swap2\n      sub\n      swap1\n      revert\n        /* \"contracts/ERC721TokenContractName.sol\":4188:4299  if (previousOwner != from) {... */\n    tag_119:\n        /* \"contracts/ERC721TokenContractName.sol\":4311:4354  _aprove(address(0), tokenId, previousOwner) */\n      tag_122\n        /* \"contracts/ERC721TokenContractName.sol\":4327:4328  0 */\n      0x00\n        /* \"contracts/ERC721TokenContractName.sol\":4331:4338  tokenId */\n      dup4\n        /* \"contracts/ERC721TokenContractName.sol\":4340:4353  previousOwner */\n      dup4\n        /* \"contracts/ERC721TokenContractName.sol\":4311:4318  _aprove */\n      tag_123\n        /* \"contracts/ERC721TokenContractName.sol\":4311:4354  _aprove(address(0), tokenId, previousOwner) */\n      jump\t// in\n    tag_122:\n        /* \"contracts/ERC721TokenContractName.sol\":4576:4611  _update(to, tokenId, previousOwner) */\n      tag_124\n        /* \"contracts/ERC721TokenContractName.sol\":4584:4586  to */\n      dup4\n        /* \"contracts/ERC721TokenContractName.sol\":4588:4595  tokenId */\n      dup4\n        /* \"contracts/ERC721TokenContractName.sol\":4597:4610  previousOwner */\n      dup4\n        /* \"contracts/ERC721TokenContractName.sol\":4576:4583  _update */\n      tag_125\n        /* \"contracts/ERC721TokenContractName.sol\":4576:4611  _update(to, tokenId, previousOwner) */\n      jump\t// in\n    tag_124:\n        /* \"contracts/ERC721TokenContractName.sol\":3701:4619  {... */\n      pop\n        /* \"contracts/ERC721TokenContractName.sol\":3622:4619  function transferFrom(address from, address to, uint16 tokenId) public virtual {... */\n      pop\n      pop\n      pop\n      jump\t// out\n        /* \"contracts/ERC721TokenContractName.sol\":8756:8813  function stateVoting() public returns(bytes32) {... */\n    tag_34:\n        /* \"contracts/ERC721TokenContractName.sol\":8794:8801  bytes32 */\n      0x00\n        /* \"contracts/ERC721TokenContractName.sol\":8756:8813  function stateVoting() public returns(bytes32) {... */\n      swap1\n      jump\t// out\n        /* \"contracts/ERC721TokenContractName.sol\":1897:2086  function balanceOf(address owner) public view returns (uint16) {... */\n    tag_40:\n        /* \"contracts/ERC721TokenContractName.sol\":1952:1958  uint16 */\n      0x00\n        /* \"contracts/ERC721TokenContractName.sol\":1996:1997  0 */\n      dup1\n        /* \"contracts/ERC721TokenContractName.sol\":1979:1998  owner != address(0) */\n      0xffffffffffffffffffffffffffffffffffffffff\n      and\n        /* \"contracts/ERC721TokenContractName.sol\":1979:1984  owner */\n      dup3\n        /* \"contracts/ERC721TokenContractName.sol\":1979:1998  owner != address(0) */\n      0xffffffffffffffffffffffffffffffffffffffff\n      and\n      sub\n        /* \"contracts/ERC721TokenContractName.sol\":1971:2034  require(owner != address(0),\"The input address cannot be zero\") */\n      tag_128\n      jumpi\n      mload(0x40)\n      0x08c379a000000000000000000000000000000000000000000000000000000000\n      dup2\n      mstore\n      0x04\n      add\n      tag_129\n      swap1\n      tag_130\n      jump\t// in\n    tag_129:\n      mload(0x40)\n      dup1\n      swap2\n      sub\n      swap1\n      revert\n    tag_128:\n        /* \"contracts/ERC721TokenContractName.sol\":2052:2068  _balanceAndTokId */\n      0x04d9\n        /* \"contracts/ERC721TokenContractName.sol\":2052:2075  _balanceAndTokId[owner] */\n      0x00\n        /* \"contracts/ERC721TokenContractName.sol\":2069:2074  owner */\n      dup4\n        /* \"contracts/ERC721TokenContractName.sol\":2052:2075  _balanceAndTokId[owner] */\n      0xffffffffffffffffffffffffffffffffffffffff\n      and\n      0xffffffffffffffffffffffffffffffffffffffff\n      and\n      dup2\n      mstore\n      0x20\n      add\n      swap1\n      dup2\n      mstore\n      0x20\n      add\n      0x00\n      keccak256\n        /* \"contracts/ERC721TokenContractName.sol\":2076:2077  0 */\n      0x00\n        /* \"contracts/ERC721TokenContractName.sol\":2052:2078  _balanceAndTokId[owner][0] */\n      0x04b1\n      dup2\n      lt\n      tag_131\n      jumpi\n      tag_132\n      tag_102\n      jump\t// in\n    tag_132:\n    tag_131:\n      0x10\n      swap2\n      dup3\n      dup3\n      div\n      add\n      swap2\n      swap1\n      mod\n      0x02\n      mul\n      swap1\n      sload\n      swap1\n      0x0100\n      exp\n      swap1\n      div\n      0xffff\n      and\n        /* \"contracts/ERC721TokenContractName.sol\":2045:2078  return _balanceAndTokId[owner][0] */\n      swap1\n      pop\n        /* \"contracts/ERC721TokenContractName.sol\":1897:2086  function balanceOf(address owner) public view returns (uint16) {... */\n      swap2\n      swap1\n      pop\n      jump\t// out\n        /* \"contracts/ERC721TokenContractName.sol\":2096:2207  function ownerOf(uint16 tokenId) public view returns (address) {... */\n    tag_46:\n        /* \"contracts/ERC721TokenContractName.sol\":2150:2157  address */\n      0x00\n        /* \"contracts/ERC721TokenContractName.sol\":2177:2199  _requireOwned(tokenId) */\n      tag_135\n        /* \"contracts/ERC721TokenContractName.sol\":2191:2198  tokenId */\n      dup3\n        /* \"contracts/ERC721TokenContractName.sol\":2177:2190  _requireOwned */\n      tag_99\n        /* \"contracts/ERC721TokenContractName.sol\":2177:2199  _requireOwned(tokenId) */\n      jump\t// in\n    tag_135:\n        /* \"contracts/ERC721TokenContractName.sol\":2170:2199  return _requireOwned(tokenId) */\n      swap1\n      pop\n        /* \"contracts/ERC721TokenContractName.sol\":2096:2207  function ownerOf(uint16 tokenId) public view returns (address) {... */\n      swap2\n      swap1\n      pop\n      jump\t// out\n        /* \"contracts/ERC721TokenContractName.sol\":2863:3023  function getApproved(uint16 tokenId) public view virtual returns (address) {... */\n    tag_51:\n        /* \"contracts/ERC721TokenContractName.sol\":2929:2936  address */\n      0x00\n        /* \"contracts/ERC721TokenContractName.sol\":2949:2971  _requireOwned(tokenId) */\n      tag_137\n        /* \"contracts/ERC721TokenContractName.sol\":2963:2970  tokenId */\n      dup3\n        /* \"contracts/ERC721TokenContractName.sol\":2949:2962  _requireOwned */\n      tag_99\n        /* \"contracts/ERC721TokenContractName.sol\":2949:2971  _requireOwned(tokenId) */\n      jump\t// in\n    tag_137:\n      pop\n        /* \"contracts/ERC721TokenContractName.sol\":2991:3006  _tokenApprovals */\n      0x04da\n        /* \"contracts/ERC721TokenContractName.sol\":2991:3015  _tokenApprovals[tokenId] */\n      0x00\n        /* \"contracts/ERC721TokenContractName.sol\":3007:3014  tokenId */\n      dup4\n        /* \"contracts/ERC721TokenContractName.sol\":2991:3015  _tokenApprovals[tokenId] */\n      0xffff\n      and\n      0xffff\n      and\n      dup2\n      mstore\n      0x20\n      add\n      swap1\n      dup2\n      mstore\n      0x20\n      add\n      0x00\n      keccak256\n      0x00\n      swap1\n      sload\n      swap1\n      0x0100\n      exp\n      swap1\n      div\n      0xffffffffffffffffffffffffffffffffffffffff\n      and\n        /* \"contracts/ERC721TokenContractName.sol\":2984:3015  return _tokenApprovals[tokenId] */\n      swap1\n      pop\n        /* \"contracts/ERC721TokenContractName.sol\":2863:3023  function getApproved(uint16 tokenId) public view virtual returns (address) {... */\n      swap2\n      swap1\n      pop\n      jump\t// out\n        /* \"contracts/ERC721TokenContractName.sol\":1806:1887  function symbol() public view returns (bytes10) {... */\n    tag_54:\n        /* \"contracts/ERC721TokenContractName.sol\":1845:1852  bytes10 */\n      0x00\n        /* \"contracts/ERC721TokenContractName.sol\":1872:1879  _symbol */\n      dup1\n      0x14\n      swap1\n      sload\n      swap1\n      0x0100\n      exp\n      swap1\n      div\n      0xb0\n      shl\n        /* \"contracts/ERC721TokenContractName.sol\":1865:1879  return _symbol */\n      swap1\n      pop\n        /* \"contracts/ERC721TokenContractName.sol\":1806:1887  function symbol() public view returns (bytes10) {... */\n      swap1\n      jump\t// out\n        /* \"contracts/ERC721TokenContractName.sol\":3031:3457  function setApprovalForAll(address operator, bool approved) public {... */\n    tag_60:\n        /* \"contracts/ERC721TokenContractName.sol\":3133:3141  operator */\n      dup2\n        /* \"contracts/ERC721TokenContractName.sol\":3117:3141  _msgSender() != operator */\n      0xffffffffffffffffffffffffffffffffffffffff\n      and\n        /* \"contracts/ERC721TokenContractName.sol\":3117:3129  _msgSender() */\n      tag_140\n        /* \"contracts/ERC721TokenContractName.sol\":3117:3127  _msgSender */\n      tag_108\n        /* \"contracts/ERC721TokenContractName.sol\":3117:3129  _msgSender() */\n      jump\t// in\n    tag_140:\n        /* \"contracts/ERC721TokenContractName.sol\":3117:3141  _msgSender() != operator */\n      0xffffffffffffffffffffffffffffffffffffffff\n      and\n      sub\n        /* \"contracts/ERC721TokenContractName.sol\":3109:3205  require(_msgSender() != operator, \"The address of the owner and the operator must be different\") */\n      tag_141\n      jumpi\n      mload(0x40)\n      0x08c379a000000000000000000000000000000000000000000000000000000000\n      dup2\n      mstore\n      0x04\n      add\n      tag_142\n      swap1\n      tag_143\n      jump\t// in\n    tag_142:\n      mload(0x40)\n      dup1\n      swap2\n      sub\n      swap1\n      revert\n    tag_141:\n        /* \"contracts/ERC721TokenContractName.sol\":3242:3243  0 */\n      0x00\n        /* \"contracts/ERC721TokenContractName.sol\":3222:3244  operator == address(0) */\n      0xffffffffffffffffffffffffffffffffffffffff\n      and\n        /* \"contracts/ERC721TokenContractName.sol\":3222:3230  operator */\n      dup3\n        /* \"contracts/ERC721TokenContractName.sol\":3222:3244  operator == address(0) */\n      0xffffffffffffffffffffffffffffffffffffffff\n      and\n      sub\n        /* \"contracts/ERC721TokenContractName.sol\":3218:3311  if (operator == address(0)) {... */\n      tag_144\n      jumpi\n        /* \"contracts/ERC721TokenContractName.sol\":3290:3298  operator */\n      dup2\n        /* \"contracts/ERC721TokenContractName.sol\":3268:3299  ERC721InvalidOperator(operator) */\n      mload(0x40)\n      0x5b08ba1800000000000000000000000000000000000000000000000000000000\n      dup2\n      mstore\n      0x04\n      add\n      tag_145\n      swap2\n      swap1\n      tag_48\n      jump\t// in\n    tag_145:\n      mload(0x40)\n      dup1\n      swap2\n      sub\n      swap1\n      revert\n        /* \"contracts/ERC721TokenContractName.sol\":3218:3311  if (operator == address(0)) {... */\n    tag_144:\n        /* \"contracts/ERC721TokenContractName.sol\":3376:3384  approved */\n      dup1\n        /* \"contracts/ERC721TokenContractName.sol\":3331:3349  _operatorApprovals */\n      0x04db\n        /* \"contracts/ERC721TokenContractName.sol\":3331:3363  _operatorApprovals[_msgSender()] */\n      0x00\n        /* \"contracts/ERC721TokenContractName.sol\":3350:3362  _msgSender() */\n      tag_146\n        /* \"contracts/ERC721TokenContractName.sol\":3350:3360  _msgSender */\n      tag_108\n        /* \"contracts/ERC721TokenContractName.sol\":3350:3362  _msgSender() */\n      jump\t// in\n    tag_146:\n        /* \"contracts/ERC721TokenContractName.sol\":3331:3363  _operatorApprovals[_msgSender()] */\n      0xffffffffffffffffffffffffffffffffffffffff\n      and\n      0xffffffffffffffffffffffffffffffffffffffff\n      and\n      dup2\n      mstore\n      0x20\n      add\n      swap1\n      dup2\n      mstore\n      0x20\n      add\n      0x00\n      keccak256\n        /* \"contracts/ERC721TokenContractName.sol\":3331:3373  _operatorApprovals[_msgSender()][operator] */\n      0x00\n        /* \"contracts/ERC721TokenContractName.sol\":3364:3372  operator */\n      dup5\n        /* \"contracts/ERC721TokenContractName.sol\":3331:3373  _operatorApprovals[_msgSender()][operator] */\n      0xffffffffffffffffffffffffffffffffffffffff\n      and\n      0xffffffffffffffffffffffffffffffffffffffff\n      and\n      dup2\n      mstore\n      0x20\n      add\n      swap1\n      dup2\n      mstore\n      0x20\n      add\n      0x00\n      keccak256\n      0x00\n        /* \"contracts/ERC721TokenContractName.sol\":3331:3384  _operatorApprovals[_msgSender()][operator] = approved */\n      0x0100\n      exp\n      dup2\n      sload\n      dup2\n      0xff\n      mul\n      not\n      and\n      swap1\n      dup4\n      iszero\n      iszero\n      mul\n      or\n      swap1\n      sstore\n      pop\n        /* \"contracts/ERC721TokenContractName.sol\":3430:3438  operator */\n      dup2\n        /* \"contracts/ERC721TokenContractName.sol\":3401:3449  ApprovalForAll(_msgSender(), operator, approved) */\n      0xffffffffffffffffffffffffffffffffffffffff\n      and\n        /* \"contracts/ERC721TokenContractName.sol\":3416:3428  _msgSender() */\n      tag_147\n        /* \"contracts/ERC721TokenContractName.sol\":3416:3426  _msgSender */\n      tag_108\n        /* \"contracts/ERC721TokenContractName.sol\":3416:3428  _msgSender() */\n      jump\t// in\n    tag_147:\n        /* \"contracts/ERC721TokenContractName.sol\":3401:3449  ApprovalForAll(_msgSender(), operator, approved) */\n      0xffffffffffffffffffffffffffffffffffffffff\n      and\n      0x17307eab39ab6107e8899845ad3d59bd9653f200f220920489ca2b5937696c31\n        /* \"contracts/ERC721TokenContractName.sol\":3440:3448  approved */\n      dup4\n        /* \"contracts/ERC721TokenContractName.sol\":3401:3449  ApprovalForAll(_msgSender(), operator, approved) */\n      mload(0x40)\n      tag_148\n      swap2\n      swap1\n      tag_85\n      jump\t// in\n    tag_148:\n      mload(0x40)\n      dup1\n      swap2\n      sub\n      swap1\n      log3\n        /* \"contracts/ERC721TokenContractName.sol\":3031:3457  function setApprovalForAll(address operator, bool approved) public {... */\n      pop\n      pop\n      jump\t// out\n        /* \"contracts/ERC721TokenContractName.sol\":4768:4978  function safeTransferFrom(address from, address to, uint16 tokenId, bytes memory data) public virtual {... */\n    tag_64:\n        /* \"contracts/ERC721TokenContractName.sol\":4881:4912  transferFrom(from, to, tokenId) */\n      tag_150\n        /* \"contracts/ERC721TokenContractName.sol\":4894:4898  from */\n      dup5\n        /* \"contracts/ERC721TokenContractName.sol\":4900:4902  to */\n      dup5\n        /* \"contracts/ERC721TokenContractName.sol\":4904:4911  tokenId */\n      dup5\n        /* \"contracts/ERC721TokenContractName.sol\":4881:4893  transferFrom */\n      tag_32\n        /* \"contracts/ERC721TokenContractName.sol\":4881:4912  transferFrom(from, to, tokenId) */\n      jump\t// in\n    tag_150:\n        /* \"contracts/ERC721TokenContractName.sol\":4923:4970  _checkOnERC721Received(from, to, tokenId, data) */\n      tag_151\n        /* \"contracts/ERC721TokenContractName.sol\":4946:4950  from */\n      dup5\n        /* \"contracts/ERC721TokenContractName.sol\":4952:4954  to */\n      dup5\n        /* \"contracts/ERC721TokenContractName.sol\":4956:4963  tokenId */\n      dup5\n        /* \"contracts/ERC721TokenContractName.sol\":4965:4969  data */\n      dup5\n        /* \"contracts/ERC721TokenContractName.sol\":4923:4945  _checkOnERC721Received */\n      tag_152\n        /* \"contracts/ERC721TokenContractName.sol\":4923:4970  _checkOnERC721Received(from, to, tokenId, data) */\n      jump\t// in\n    tag_151:\n        /* \"contracts/ERC721TokenContractName.sol\":4768:4978  function safeTransferFrom(address from, address to, uint16 tokenId, bytes memory data) public virtual {... */\n      pop\n      pop\n      pop\n      pop\n      jump\t// out\n        /* \"contracts/ERC721TokenContractName.sol\":8485:8650  function onERC721Received(... */\n    tag_68:\n        /* \"contracts/ERC721TokenContractName.sol\":8641:8647  bytes4 */\n      0x00\n        /* \"contracts/ERC721TokenContractName.sol\":8485:8650  function onERC721Received(... */\n      swap6\n      swap5\n      pop\n      pop\n      pop\n      pop\n      pop\n      jump\t// out\n        /* \"contracts/ERC721TokenContractName.sol\":2217:2457  function tokenURI(uint16 tokenId) public view returns (string memory) {... */\n    tag_73:\n        /* \"contracts/ERC721TokenContractName.sol\":2272:2285  string memory */\n      0x60\n        /* \"contracts/ERC721TokenContractName.sol\":2298:2320  _requireOwned(tokenId) */\n      tag_155\n        /* \"contracts/ERC721TokenContractName.sol\":2312:2319  tokenId */\n      dup3\n        /* \"contracts/ERC721TokenContractName.sol\":2298:2311  _requireOwned */\n      tag_99\n        /* \"contracts/ERC721TokenContractName.sol\":2298:2320  _requireOwned(tokenId) */\n      jump\t// in\n    tag_155:\n      pop\n        /* \"contracts/ERC721TokenContractName.sol\":2331:2349  string memory base */\n      0x00\n        /* \"contracts/ERC721TokenContractName.sol\":2352:2362  _baseURI() */\n      tag_156\n        /* \"contracts/ERC721TokenContractName.sol\":2352:2360  _baseURI */\n      tag_157\n        /* \"contracts/ERC721TokenContractName.sol\":2352:2362  _baseURI() */\n      jump\t// in\n    tag_156:\n        /* \"contracts/ERC721TokenContractName.sol\":2331:2362  string memory base = _baseURI() */\n      swap1\n      pop\n        /* \"contracts/ERC721TokenContractName.sol\":2401:2402  0 */\n      0x00\n        /* \"contracts/ERC721TokenContractName.sol\":2386:2390  base */\n      dup2\n        /* \"contracts/ERC721TokenContractName.sol\":2380:2398  bytes(base).length */\n      mload\n        /* \"contracts/ERC721TokenContractName.sol\":2380:2402  bytes(base).length > 0 */\n      gt\n        /* \"contracts/ERC721TokenContractName.sol\":2380:2449  bytes(base).length > 0 ? string.concat(base, tokenId.toString()) : \"\" */\n      tag_158\n      jumpi\n      mload(0x40)\n      dup1\n      0x20\n      add\n      0x40\n      mstore\n      dup1\n      0x00\n      dup2\n      mstore\n      pop\n      jump(tag_159)\n    tag_158:\n        /* \"contracts/ERC721TokenContractName.sol\":2419:2423  base */\n      dup1\n        /* \"contracts/ERC721TokenContractName.sol\":2425:2443  tokenId.toString() */\n      tag_160\n        /* \"contracts/ERC721TokenContractName.sol\":2425:2432  tokenId */\n      dup5\n        /* \"contracts/ERC721TokenContractName.sol\":2425:2441  tokenId.toString */\n      0xffff\n      and\n      tag_161\n        /* \"contracts/ERC721TokenContractName.sol\":2425:2443  tokenId.toString() */\n      jump\t// in\n    tag_160:\n        /* \"contracts/ERC721TokenContractName.sol\":2405:2444  string.concat(base, tokenId.toString()) */\n      add(0x20, mload(0x40))\n      tag_162\n      swap3\n      swap2\n      swap1\n      tag_163\n      jump\t// in\n    tag_162:\n      mload(0x40)\n      0x20\n      dup2\n      dup4\n      sub\n      sub\n      dup2\n      mstore\n      swap1\n      0x40\n      mstore\n        /* \"contracts/ERC721TokenContractName.sol\":2380:2449  bytes(base).length > 0 ? string.concat(base, tokenId.toString()) : \"\" */\n    tag_159:\n        /* \"contracts/ERC721TokenContractName.sol\":2373:2449  return bytes(base).length > 0 ? string.concat(base, tokenId.toString()) : \"\" */\n      swap2\n      pop\n      pop\n        /* \"contracts/ERC721TokenContractName.sol\":2217:2457  function tokenURI(uint16 tokenId) public view returns (string memory) {... */\n      swap2\n      swap1\n      pop\n      jump\t// out\n        /* \"contracts/ERC721TokenContractName.sol\":2467:2855  function approve(address to, uint16 tokenId) public {... */\n    tag_79:\n        /* \"contracts/ERC721TokenContractName.sol\":2530:2543  address owner */\n      0x00\n        /* \"contracts/ERC721TokenContractName.sol\":2546:2568  _requireOwned(tokenId) */\n      tag_165\n        /* \"contracts/ERC721TokenContractName.sol\":2560:2567  tokenId */\n      dup3\n        /* \"contracts/ERC721TokenContractName.sol\":2546:2559  _requireOwned */\n      tag_99\n        /* \"contracts/ERC721TokenContractName.sol\":2546:2568  _requireOwned(tokenId) */\n      jump\t// in\n    tag_165:\n        /* \"contracts/ERC721TokenContractName.sol\":2530:2568  address owner = _requireOwned(tokenId) */\n      swap1\n      pop\n        /* \"contracts/ERC721TokenContractName.sol\":2598:2600  to */\n      dup3\n        /* \"contracts/ERC721TokenContractName.sol\":2589:2600  owner != to */\n      0xffffffffffffffffffffffffffffffffffffffff\n      and\n        /* \"contracts/ERC721TokenContractName.sol\":2589:2594  owner */\n      dup2\n        /* \"contracts/ERC721TokenContractName.sol\":2589:2600  owner != to */\n      0xffffffffffffffffffffffffffffffffffffffff\n      and\n      sub\n        /* \"contracts/ERC721TokenContractName.sol\":2581:2664  require(owner != to, \"The address of the owner and the operator must be different\") */\n      tag_166\n      jumpi\n      mload(0x40)\n      0x08c379a000000000000000000000000000000000000000000000000000000000\n      dup2\n      mstore\n      0x04\n      add\n      tag_167\n      swap1\n      tag_143\n      jump\t// in\n    tag_167:\n      mload(0x40)\n      dup1\n      swap2\n      sub\n      swap1\n      revert\n    tag_166:\n        /* \"contracts/ERC721TokenContractName.sol\":2689:2701  _msgSender() */\n      tag_168\n        /* \"contracts/ERC721TokenContractName.sol\":2689:2699  _msgSender */\n      tag_108\n        /* \"contracts/ERC721TokenContractName.sol\":2689:2701  _msgSender() */\n      jump\t// in\n    tag_168:\n        /* \"contracts/ERC721TokenContractName.sol\":2680:2701  owner != _msgSender() */\n      0xffffffffffffffffffffffffffffffffffffffff\n      and\n        /* \"contracts/ERC721TokenContractName.sol\":2680:2685  owner */\n      dup2\n        /* \"contracts/ERC721TokenContractName.sol\":2680:2701  owner != _msgSender() */\n      0xffffffffffffffffffffffffffffffffffffffff\n      and\n      eq\n      iszero\n        /* \"contracts/ERC721TokenContractName.sol\":2680:2743  owner != _msgSender() && !isApprovedForAll(owner, _msgSender()) */\n      dup1\n      iszero\n      tag_169\n      jumpi\n      pop\n        /* \"contracts/ERC721TokenContractName.sol\":2706:2743  isApprovedForAll(owner, _msgSender()) */\n      tag_170\n        /* \"contracts/ERC721TokenContractName.sol\":2723:2728  owner */\n      dup2\n        /* \"contracts/ERC721TokenContractName.sol\":2730:2742  _msgSender() */\n      tag_171\n        /* \"contracts/ERC721TokenContractName.sol\":2730:2740  _msgSender */\n      tag_108\n        /* \"contracts/ERC721TokenContractName.sol\":2730:2742  _msgSender() */\n      jump\t// in\n    tag_171:\n        /* \"contracts/ERC721TokenContractName.sol\":2706:2722  isApprovedForAll */\n      tag_83\n        /* \"contracts/ERC721TokenContractName.sol\":2706:2743  isApprovedForAll(owner, _msgSender()) */\n      jump\t// in\n    tag_170:\n        /* \"contracts/ERC721TokenContractName.sol\":2705:2743  !isApprovedForAll(owner, _msgSender()) */\n      iszero\n        /* \"contracts/ERC721TokenContractName.sol\":2680:2743  owner != _msgSender() && !isApprovedForAll(owner, _msgSender()) */\n    tag_169:\n        /* \"contracts/ERC721TokenContractName.sol\":2676:2808  if (owner != _msgSender() && !isApprovedForAll(owner, _msgSender())){... */\n      iszero\n      tag_172\n      jumpi\n        /* \"contracts/ERC721TokenContractName.sol\":2784:2796  _msgSender() */\n      tag_173\n        /* \"contracts/ERC721TokenContractName.sol\":2784:2794  _msgSender */\n      tag_108\n        /* \"contracts/ERC721TokenContractName.sol\":2784:2796  _msgSender() */\n      jump\t// in\n    tag_173:\n        /* \"contracts/ERC721TokenContractName.sol\":2762:2797  ERC721InvalidApprover(_msgSender()) */\n      mload(0x40)\n      0xa9fbf51f00000000000000000000000000000000000000000000000000000000\n      dup2\n      mstore\n      0x04\n      add\n      tag_174\n      swap2\n      swap1\n      tag_48\n      jump\t// in\n    tag_174:\n      mload(0x40)\n      dup1\n      swap2\n      sub\n      swap1\n      revert\n        /* \"contracts/ERC721TokenContractName.sol\":2676:2808  if (owner != _msgSender() && !isApprovedForAll(owner, _msgSender())){... */\n    tag_172:\n        /* \"contracts/ERC721TokenContractName.sol\":2820:2847  _aprove(to, tokenId, owner) */\n      tag_175\n        /* \"contracts/ERC721TokenContractName.sol\":2828:2830  to */\n      dup4\n        /* \"contracts/ERC721TokenContractName.sol\":2832:2839  tokenId */\n      dup4\n        /* \"contracts/ERC721TokenContractName.sol\":2841:2846  owner */\n      dup4\n        /* \"contracts/ERC721TokenContractName.sol\":2820:2827  _aprove */\n      tag_123\n        /* \"contracts/ERC721TokenContractName.sol\":2820:2847  _aprove(to, tokenId, owner) */\n      jump\t// in\n    tag_175:\n        /* \"contracts/ERC721TokenContractName.sol\":2519:2855  {... */\n      pop\n        /* \"contracts/ERC721TokenContractName.sol\":2467:2855  function approve(address to, uint16 tokenId) public {... */\n      pop\n      pop\n      jump\t// out\n        /* \"contracts/ERC721TokenContractName.sol\":3467:3614  function isApprovedForAll(address owner, address operator) public view returns (bool) {... */\n    tag_83:\n        /* \"contracts/ERC721TokenContractName.sol\":3547:3551  bool */\n      0x00\n        /* \"contracts/ERC721TokenContractName.sol\":3571:3589  _operatorApprovals */\n      0x04db\n        /* \"contracts/ERC721TokenContractName.sol\":3571:3596  _operatorApprovals[owner] */\n      0x00\n        /* \"contracts/ERC721TokenContractName.sol\":3590:3595  owner */\n      dup5\n        /* \"contracts/ERC721TokenContractName.sol\":3571:3596  _operatorApprovals[owner] */\n      0xffffffffffffffffffffffffffffffffffffffff\n      and\n      0xffffffffffffffffffffffffffffffffffffffff\n      and\n      dup2\n      mstore\n      0x20\n      add\n      swap1\n      dup2\n      mstore\n      0x20\n      add\n      0x00\n      keccak256\n        /* \"contracts/ERC721TokenContractName.sol\":3571:3606  _operatorApprovals[owner][operator] */\n      0x00\n        /* \"contracts/ERC721TokenContractName.sol\":3597:3605  operator */\n      dup4\n        /* \"contracts/ERC721TokenContractName.sol\":3571:3606  _operatorApprovals[owner][operator] */\n      0xffffffffffffffffffffffffffffffffffffffff\n      and\n      0xffffffffffffffffffffffffffffffffffffffff\n      and\n      dup2\n      mstore\n      0x20\n      add\n      swap1\n      dup2\n      mstore\n      0x20\n      add\n      0x00\n      keccak256\n      0x00\n      swap1\n      sload\n      swap1\n      0x0100\n      exp\n      swap1\n      div\n      0xff\n      and\n        /* \"contracts/ERC721TokenContractName.sol\":3564:3606  return _operatorApprovals[owner][operator] */\n      swap1\n      pop\n        /* \"contracts/ERC721TokenContractName.sol\":3467:3614  function isApprovedForAll(address owner, address operator) public view returns (bool) {... */\n      swap3\n      swap2\n      pop\n      pop\n      jump\t// out\n        /* \"contracts/ERC721TokenContractName.sol\":5917:6158  function setRegister() public{... */\n    tag_87:\n        /* \"contracts/ERC721TokenContractName.sol\":5957:5975  address registrant */\n      0x00\n        /* \"contracts/ERC721TokenContractName.sol\":5977:5989  _msgSender() */\n      tag_178\n        /* \"contracts/ERC721TokenContractName.sol\":5977:5987  _msgSender */\n      tag_108\n        /* \"contracts/ERC721TokenContractName.sol\":5977:5989  _msgSender() */\n      jump\t// in\n    tag_178:\n        /* \"contracts/ERC721TokenContractName.sol\":5957:5989  address registrant =_msgSender() */\n      swap1\n      pop\n        /* \"contracts/ERC721TokenContractName.sol\":6031:6032  0 */\n      0x00\n        /* \"contracts/ERC721TokenContractName.sol\":6009:6033  registrant != address(0) */\n      0xffffffffffffffffffffffffffffffffffffffff\n      and\n        /* \"contracts/ERC721TokenContractName.sol\":6009:6019  registrant */\n      dup2\n        /* \"contracts/ERC721TokenContractName.sol\":6009:6033  registrant != address(0) */\n      0xffffffffffffffffffffffffffffffffffffffff\n      and\n      eq\n      iszero\n        /* \"contracts/ERC721TokenContractName.sol\":6009:6064  registrant != address(0) && registrant.code.length == 0 */\n      dup1\n      iszero\n      tag_179\n      jumpi\n      pop\n        /* \"contracts/ERC721TokenContractName.sol\":6063:6064  0 */\n      0x00\n        /* \"contracts/ERC721TokenContractName.sol\":6037:6047  registrant */\n      dup2\n        /* \"contracts/ERC721TokenContractName.sol\":6037:6059  registrant.code.length */\n      0xffffffffffffffffffffffffffffffffffffffff\n      and\n      extcodesize\n        /* \"contracts/ERC721TokenContractName.sol\":6037:6064  registrant.code.length == 0 */\n      eq\n        /* \"contracts/ERC721TokenContractName.sol\":6009:6064  registrant != address(0) && registrant.code.length == 0 */\n    tag_179:\n        /* \"contracts/ERC721TokenContractName.sol\":6000:6140  require( registrant != address(0) && registrant.code.length == 0,\"The address of the registrant must not be 0 or the address of a contract\") */\n      tag_180\n      jumpi\n      mload(0x40)\n      0x08c379a000000000000000000000000000000000000000000000000000000000\n      dup2\n      mstore\n      0x04\n      add\n      tag_181\n      swap1\n      tag_182\n      jump\t// in\n    tag_181:\n      mload(0x40)\n      dup1\n      swap2\n      sub\n      swap1\n      revert\n    tag_180:\n        /* \"contracts/ERC721TokenContractName.sol\":5946:6158  {... */\n      pop\n        /* \"contracts/ERC721TokenContractName.sol\":5917:6158  function setRegister() public{... */\n      jump\t// out\n        /* \"contracts/ERC721TokenContractName.sol\":4988:5909  function updateMintInfo(uint16 newmaxMinted, uint48 newregistrationStartTime, address newexecutor) public {... */\n    tag_91:\n        /* \"contracts/ERC721TokenContractName.sol\":5129:5137  mintInfo */\n      0x01\n        /* \"contracts/ERC721TokenContractName.sol\":5129:5146  mintInfo.executor */\n      0x00\n      add\n      0x0c\n      swap1\n      sload\n      swap1\n      0x0100\n      exp\n      swap1\n      div\n      0xffffffffffffffffffffffffffffffffffffffff\n      and\n        /* \"contracts/ERC721TokenContractName.sol\":5113:5146  _msgSender() == mintInfo.executor */\n      0xffffffffffffffffffffffffffffffffffffffff\n      and\n        /* \"contracts/ERC721TokenContractName.sol\":5113:5125  _msgSender() */\n      tag_184\n        /* \"contracts/ERC721TokenContractName.sol\":5113:5123  _msgSender */\n      tag_108\n        /* \"contracts/ERC721TokenContractName.sol\":5113:5125  _msgSender() */\n      jump\t// in\n    tag_184:\n        /* \"contracts/ERC721TokenContractName.sol\":5113:5146  _msgSender() == mintInfo.executor */\n      0xffffffffffffffffffffffffffffffffffffffff\n      and\n      eq\n        /* \"contracts/ERC721TokenContractName.sol\":5105:5190  require(_msgSender() == mintInfo.executor, \"You do not have access to this function\") */\n      tag_185\n      jumpi\n      mload(0x40)\n      0x08c379a000000000000000000000000000000000000000000000000000000000\n      dup2\n      mstore\n      0x04\n      add\n      tag_186\n      swap1\n      tag_187\n      jump\t// in\n    tag_186:\n      mload(0x40)\n      dup1\n      swap2\n      sub\n      swap1\n      revert\n    tag_185:\n        /* \"contracts/ERC721TokenContractName.sol\":5224:5232  mintInfo */\n      0x01\n        /* \"contracts/ERC721TokenContractName.sol\":5224:5245  mintInfo.nRegistrants */\n      0x00\n      add\n      0x04\n      swap1\n      sload\n      swap1\n      0x0100\n      exp\n      swap1\n      div\n      0xffff\n      and\n        /* \"contracts/ERC721TokenContractName.sol\":5209:5245  newmaxMinted > mintInfo.nRegistrants */\n      0xffff\n      and\n        /* \"contracts/ERC721TokenContractName.sol\":5209:5221  newmaxMinted */\n      dup4\n        /* \"contracts/ERC721TokenContractName.sol\":5209:5245  newmaxMinted > mintInfo.nRegistrants */\n      0xffff\n      and\n      gt\n        /* \"contracts/ERC721TokenContractName.sol\":5209:5292  newmaxMinted > mintInfo.nRegistrants && newregistrationStartTime >= block.timestamp */\n      dup1\n      iszero\n      tag_188\n      jumpi\n      pop\n        /* \"contracts/ERC721TokenContractName.sol\":5277:5292  block.timestamp */\n      timestamp\n        /* \"contracts/ERC721TokenContractName.sol\":5249:5273  newregistrationStartTime */\n      dup3\n        /* \"contracts/ERC721TokenContractName.sol\":5249:5292  newregistrationStartTime >= block.timestamp */\n      0xffffffffffff\n      and\n      lt\n      iszero\n        /* \"contracts/ERC721TokenContractName.sol\":5209:5292  newmaxMinted > mintInfo.nRegistrants && newregistrationStartTime >= block.timestamp */\n    tag_188:\n        /* \"contracts/ERC721TokenContractName.sol\":5201:5338  require(newmaxMinted > mintInfo.nRegistrants && newregistrationStartTime >= block.timestamp, \"The entered parameters are not acceptable\") */\n      tag_189\n      jumpi\n      mload(0x40)\n      0x08c379a000000000000000000000000000000000000000000000000000000000\n      dup2\n      mstore\n      0x04\n      add\n      tag_190\n      swap1\n      tag_191\n      jump\t// in\n    tag_190:\n      mload(0x40)\n      dup1\n      swap2\n      sub\n      swap1\n      revert\n    tag_189:\n        /* \"contracts/ERC721TokenContractName.sol\":5368:5372  1000 */\n      0x03e8\n        /* \"contracts/ERC721TokenContractName.sol\":5353:5365  newmaxMinted */\n      dup4\n        /* \"contracts/ERC721TokenContractName.sol\":5353:5372  newmaxMinted > 1000 */\n      0xffff\n      and\n      gt\n        /* \"contracts/ERC721TokenContractName.sol\":5349:5653  if (newmaxMinted > 1000) {... */\n      iszero\n      tag_192\n      jumpi\n        /* \"contracts/ERC721TokenContractName.sol\":5389:5406  bytes32 sucessded */\n      0x00\n        /* \"contracts/ERC721TokenContractName.sol\":5468:5472  1201 */\n      0x04b1\n        /* \"contracts/ERC721TokenContractName.sol\":5453:5465  newmaxMinted */\n      dup5\n        /* \"contracts/ERC721TokenContractName.sol\":5453:5472  newmaxMinted < 1201 */\n      0xffff\n      and\n      lt\n        /* \"contracts/ERC721TokenContractName.sol\":5453:5504  newmaxMinted < 1201 && (sucessded == stateVoting()) */\n      dup1\n      iszero\n      tag_193\n      jumpi\n      pop\n        /* \"contracts/ERC721TokenContractName.sol\":5490:5503  stateVoting() */\n      tag_194\n        /* \"contracts/ERC721TokenContractName.sol\":5490:5501  stateVoting */\n      tag_34\n        /* \"contracts/ERC721TokenContractName.sol\":5490:5503  stateVoting() */\n      jump\t// in\n    tag_194:\n        /* \"contracts/ERC721TokenContractName.sol\":5477:5486  sucessded */\n      dup2\n        /* \"contracts/ERC721TokenContractName.sol\":5477:5503  sucessded == stateVoting() */\n      eq\n        /* \"contracts/ERC721TokenContractName.sol\":5453:5504  newmaxMinted < 1201 && (sucessded == stateVoting()) */\n    tag_193:\n        /* \"contracts/ERC721TokenContractName.sol\":5445:5546  require(newmaxMinted < 1201 && (sucessded == stateVoting()), \"You do not have permission to upgrade\") */\n      tag_195\n      jumpi\n      mload(0x40)\n      0x08c379a000000000000000000000000000000000000000000000000000000000\n      dup2\n      mstore\n      0x04\n      add\n      tag_196\n      swap1\n      tag_197\n      jump\t// in\n    tag_196:\n      mload(0x40)\n      dup1\n      swap2\n      sub\n      swap1\n      revert\n    tag_195:\n        /* \"contracts/ERC721TokenContractName.sol\":5561:5577  bytes32 executed */\n      0x00\n        /* \"contracts/ERC721TokenContractName.sol\":5617:5641  setStateVoting(executed) */\n      tag_198\n        /* \"contracts/ERC721TokenContractName.sol\":5632:5640  executed */\n      dup2\n        /* \"contracts/ERC721TokenContractName.sol\":5617:5631  setStateVoting */\n      tag_199\n        /* \"contracts/ERC721TokenContractName.sol\":5617:5641  setStateVoting(executed) */\n      jump\t// in\n    tag_198:\n        /* \"contracts/ERC721TokenContractName.sol\":5374:5653  {... */\n      pop\n      pop\n        /* \"contracts/ERC721TokenContractName.sol\":5349:5653  if (newmaxMinted > 1000) {... */\n    tag_192:\n        /* \"contracts/ERC721TokenContractName.sol\":5686:5698  newmaxMinted */\n      dup3\n        /* \"contracts/ERC721TokenContractName.sol\":5665:5673  mintInfo */\n      0x01\n        /* \"contracts/ERC721TokenContractName.sol\":5665:5683  mintInfo.maxMinted */\n      0x00\n      add\n      0x00\n        /* \"contracts/ERC721TokenContractName.sol\":5665:5698  mintInfo.maxMinted = newmaxMinted */\n      0x0100\n      exp\n      dup2\n      sload\n      dup2\n      0xffff\n      mul\n      not\n      and\n      swap1\n      dup4\n      0xffff\n      and\n      mul\n      or\n      swap1\n      sstore\n      pop\n        /* \"contracts/ERC721TokenContractName.sol\":5742:5766  newregistrationStartTime */\n      dup2\n        /* \"contracts/ERC721TokenContractName.sol\":5709:5717  mintInfo */\n      0x01\n        /* \"contracts/ERC721TokenContractName.sol\":5709:5739  mintInfo.registrationStartTime */\n      0x00\n      add\n      0x06\n        /* \"contracts/ERC721TokenContractName.sol\":5709:5766  mintInfo.registrationStartTime = newregistrationStartTime */\n      0x0100\n      exp\n      dup2\n      sload\n      dup2\n      0xffffffffffff\n      mul\n      not\n      and\n      swap1\n      dup4\n      0xffffffffffff\n      and\n      mul\n      or\n      swap1\n      sstore\n      pop\n        /* \"contracts/ERC721TokenContractName.sol\":5797:5808  newexecutor */\n      dup1\n        /* \"contracts/ERC721TokenContractName.sol\":5777:5785  mintInfo */\n      0x01\n        /* \"contracts/ERC721TokenContractName.sol\":5777:5794  mintInfo.executor */\n      0x00\n      add\n      0x0c\n        /* \"contracts/ERC721TokenContractName.sol\":5777:5808  mintInfo.executor = newexecutor */\n      0x0100\n      exp\n      dup2\n      sload\n      dup2\n      0xffffffffffffffffffffffffffffffffffffffff\n      mul\n      not\n      and\n      swap1\n      dup4\n      0xffffffffffffffffffffffffffffffffffffffff\n      and\n      mul\n      or\n      swap1\n      sstore\n      pop\n        /* \"contracts/ERC721TokenContractName.sol\":5879:5890  newexecutor */\n      dup1\n        /* \"contracts/ERC721TokenContractName.sol\":5824:5891  updatemintInfo(newmaxMinted, newregistrationStartTime, newexecutor) */\n      0xffffffffffffffffffffffffffffffffffffffff\n      and\n        /* \"contracts/ERC721TokenContractName.sol\":5853:5877  newregistrationStartTime */\n      dup3\n        /* \"contracts/ERC721TokenContractName.sol\":5824:5891  updatemintInfo(newmaxMinted, newregistrationStartTime, newexecutor) */\n      0xffffffffffff\n      and\n        /* \"contracts/ERC721TokenContractName.sol\":5839:5851  newmaxMinted */\n      dup5\n        /* \"contracts/ERC721TokenContractName.sol\":5824:5891  updatemintInfo(newmaxMinted, newregistrationStartTime, newexecutor) */\n      0xffff\n      and\n      0xb489119eff6a52171d8ed8978bb59f62003dc2345fe157f731a848c940066168\n      mload(0x40)\n      mload(0x40)\n      dup1\n      swap2\n      sub\n      swap1\n      log4\n        /* \"contracts/ERC721TokenContractName.sol\":4988:5909  function updateMintInfo(uint16 newmaxMinted, uint48 newregistrationStartTime, address newexecutor) public {... */\n      pop\n      pop\n      pop\n      jump\t// out\n        /* \"contracts/ERC721TokenContractName.sol\":7306:7570  function _requireOwned(uint16 tokenId) private view returns (address) {... */\n    tag_99:\n        /* \"contracts/ERC721TokenContractName.sol\":7367:7374  address */\n      0x00\n        /* \"contracts/ERC721TokenContractName.sol\":7399:7406  tokenId */\n      dup2\n        /* \"contracts/ERC721TokenContractName.sol\":7395:7406  0 < tokenId */\n      0xffff\n      and\n        /* \"contracts/ERC721TokenContractName.sol\":7395:7396  0 */\n      0x00\n        /* \"contracts/ERC721TokenContractName.sol\":7395:7406  0 < tokenId */\n      lt\n        /* \"contracts/ERC721TokenContractName.sol\":7395:7443  0 < tokenId && tokenId <= mintInfo.currentTokens */\n      dup1\n      iszero\n      tag_201\n      jumpi\n      pop\n        /* \"contracts/ERC721TokenContractName.sol\":7421:7429  mintInfo */\n      0x01\n        /* \"contracts/ERC721TokenContractName.sol\":7421:7443  mintInfo.currentTokens */\n      0x00\n      add\n      0x02\n      swap1\n      sload\n      swap1\n      0x0100\n      exp\n      swap1\n      div\n      0xffff\n      and\n        /* \"contracts/ERC721TokenContractName.sol\":7410:7443  tokenId <= mintInfo.currentTokens */\n      0xffff\n      and\n        /* \"contracts/ERC721TokenContractName.sol\":7410:7417  tokenId */\n      dup3\n        /* \"contracts/ERC721TokenContractName.sol\":7410:7443  tokenId <= mintInfo.currentTokens */\n      0xffff\n      and\n      gt\n      iszero\n        /* \"contracts/ERC721TokenContractName.sol\":7395:7443  0 < tokenId && tokenId <= mintInfo.currentTokens */\n    tag_201:\n        /* \"contracts/ERC721TokenContractName.sol\":7387:7527  require(0 < tokenId && tokenId <= mintInfo.currentTokens, \"The ID entered is invalid. It must be in this interval 0 < id <= current tokens\") */\n      tag_202\n      jumpi\n      mload(0x40)\n      0x08c379a000000000000000000000000000000000000000000000000000000000\n      dup2\n      mstore\n      0x04\n      add\n      tag_203\n      swap1\n      tag_204\n      jump\t// in\n    tag_203:\n      mload(0x40)\n      dup1\n      swap2\n      sub\n      swap1\n      revert\n    tag_202:\n        /* \"contracts/ERC721TokenContractName.sol\":7546:7553  _owners */\n      0x02\n        /* \"contracts/ERC721TokenContractName.sol\":7554:7561  tokenId */\n      dup3\n        /* \"contracts/ERC721TokenContractName.sol\":7546:7562  _owners[tokenId] */\n      0xffff\n      and\n      0x04b1\n      dup2\n      lt\n      tag_205\n      jumpi\n      tag_206\n      tag_102\n      jump\t// in\n    tag_206:\n    tag_205:\n      add\n      0x00\n      swap1\n      sload\n      swap1\n      0x0100\n      exp\n      swap1\n      div\n      0xffffffffffffffffffffffffffffffffffffffff\n      and\n        /* \"contracts/ERC721TokenContractName.sol\":7539:7562  return _owners[tokenId] */\n      swap1\n      pop\n        /* \"contracts/ERC721TokenContractName.sol\":7306:7570  function _requireOwned(uint16 tokenId) private view returns (address) {... */\n      swap2\n      swap1\n      pop\n      jump\t// out\n        /* \"@openzeppelin/contracts/utils/Context.sol\":656:752  function _msgSender() internal view virtual returns (address) {... */\n    tag_108:\n        /* \"@openzeppelin/contracts/utils/Context.sol\":709:716  address */\n      0x00\n        /* \"@openzeppelin/contracts/utils/Context.sol\":735:745  msg.sender */\n      caller\n        /* \"@openzeppelin/contracts/utils/Context.sol\":728:745  return msg.sender */\n      swap1\n      pop\n        /* \"@openzeppelin/contracts/utils/Context.sol\":656:752  function _msgSender() internal view virtual returns (address) {... */\n      swap1\n      jump\t// out\n        /* \"contracts/ERC721TokenContractName.sol\":7128:7288  function _aprove(address to, uint16 tokenId, address owner) private {... */\n    tag_123:\n        /* \"contracts/ERC721TokenContractName.sol\":7234:7236  to */\n      dup3\n        /* \"contracts/ERC721TokenContractName.sol\":7207:7222  _tokenApprovals */\n      0x04da\n        /* \"contracts/ERC721TokenContractName.sol\":7207:7231  _tokenApprovals[tokenId] */\n      0x00\n        /* \"contracts/ERC721TokenContractName.sol\":7223:7230  tokenId */\n      dup5\n        /* \"contracts/ERC721TokenContractName.sol\":7207:7231  _tokenApprovals[tokenId] */\n      0xffff\n      and\n      0xffff\n      and\n      dup2\n      mstore\n      0x20\n      add\n      swap1\n      dup2\n      mstore\n      0x20\n      add\n      0x00\n      keccak256\n      0x00\n        /* \"contracts/ERC721TokenContractName.sol\":7207:7236  _tokenApprovals[tokenId] = to */\n      0x0100\n      exp\n      dup2\n      sload\n      dup2\n      0xffffffffffffffffffffffffffffffffffffffff\n      mul\n      not\n      and\n      swap1\n      dup4\n      0xffffffffffffffffffffffffffffffffffffffff\n      and\n      mul\n      or\n      swap1\n      sstore\n      pop\n        /* \"contracts/ERC721TokenContractName.sol\":7272:7279  tokenId */\n      dup2\n        /* \"contracts/ERC721TokenContractName.sol\":7252:7280  Approval(owner, to, tokenId) */\n      0xffff\n      and\n        /* \"contracts/ERC721TokenContractName.sol\":7268:7270  to */\n      dup4\n        /* \"contracts/ERC721TokenContractName.sol\":7252:7280  Approval(owner, to, tokenId) */\n      0xffffffffffffffffffffffffffffffffffffffff\n      and\n        /* \"contracts/ERC721TokenContractName.sol\":7261:7266  owner */\n      dup3\n        /* \"contracts/ERC721TokenContractName.sol\":7252:7280  Approval(owner, to, tokenId) */\n      0xffffffffffffffffffffffffffffffffffffffff\n      and\n      0x0a9d294fd4bd42bb30e96cba2b478d149a783fba3c729b1e5c42bec89d95b85a\n      mload(0x40)\n      mload(0x40)\n      dup1\n      swap2\n      sub\n      swap1\n      log4\n        /* \"contracts/ERC721TokenContractName.sol\":7128:7288  function _aprove(address to, uint16 tokenId, address owner) private {... */\n      pop\n      pop\n      pop\n      jump\t// out\n        /* \"contracts/ERC721TokenContractName.sol\":6168:7118  function _update(address to, uint16 tokenId, address from) private {... */\n    tag_125:\n        /* \"contracts/ERC721TokenContractName.sol\":6246:6267  uint16 preBalanceFrom */\n      0x00\n        /* \"contracts/ERC721TokenContractName.sol\":6270:6286  _balanceAndTokId */\n      0x04d9\n        /* \"contracts/ERC721TokenContractName.sol\":6270:6292  _balanceAndTokId[from] */\n      0x00\n        /* \"contracts/ERC721TokenContractName.sol\":6287:6291  from */\n      dup4\n        /* \"contracts/ERC721TokenContractName.sol\":6270:6292  _balanceAndTokId[from] */\n      0xffffffffffffffffffffffffffffffffffffffff\n      and\n      0xffffffffffffffffffffffffffffffffffffffff\n      and\n      dup2\n      mstore\n      0x20\n      add\n      swap1\n      dup2\n      mstore\n      0x20\n      add\n      0x00\n      keccak256\n        /* \"contracts/ERC721TokenContractName.sol\":6293:6294  0 */\n      0x00\n        /* \"contracts/ERC721TokenContractName.sol\":6270:6295  _balanceAndTokId[from][0] */\n      0x04b1\n      dup2\n      lt\n      tag_211\n      jumpi\n      tag_212\n      tag_102\n      jump\t// in\n    tag_212:\n    tag_211:\n      0x10\n      swap2\n      dup3\n      dup3\n      div\n      add\n      swap2\n      swap1\n      mod\n      0x02\n      mul\n      swap1\n      sload\n      swap1\n      0x0100\n      exp\n      swap1\n      div\n      0xffff\n      and\n        /* \"contracts/ERC721TokenContractName.sol\":6246:6295  uint16 preBalanceFrom = _balanceAndTokId[from][0] */\n      swap1\n      pop\n        /* \"contracts/ERC721TokenContractName.sol\":6325:6326  0 */\n      0x00\n        /* \"contracts/ERC721TokenContractName.sol\":6309:6327  from != address(0) */\n      0xffffffffffffffffffffffffffffffffffffffff\n      and\n        /* \"contracts/ERC721TokenContractName.sol\":6309:6313  from */\n      dup3\n        /* \"contracts/ERC721TokenContractName.sol\":6309:6327  from != address(0) */\n      0xffffffffffffffffffffffffffffffffffffffff\n      and\n      eq\n        /* \"contracts/ERC721TokenContractName.sol\":6305:6770  if (from != address(0)) {... */\n      tag_214\n      jumpi\n        /* \"contracts/ERC721TokenContractName.sol\":6345:6353  uint16 i */\n      0x00\n        /* \"contracts/ERC721TokenContractName.sol\":6356:6357  1 */\n      0x01\n        /* \"contracts/ERC721TokenContractName.sol\":6345:6357  uint16 i = 1 */\n      swap1\n      pop\n        /* \"contracts/ERC721TokenContractName.sol\":6340:6577  for (uint16 i = 1; i <= preBalanceFrom; i++) {... */\n    tag_215:\n        /* \"contracts/ERC721TokenContractName.sol\":6364:6378  preBalanceFrom */\n      dup2\n        /* \"contracts/ERC721TokenContractName.sol\":6359:6378  i <= preBalanceFrom */\n      0xffff\n      and\n        /* \"contracts/ERC721TokenContractName.sol\":6359:6360  i */\n      dup2\n        /* \"contracts/ERC721TokenContractName.sol\":6359:6378  i <= preBalanceFrom */\n      0xffff\n      and\n      gt\n        /* \"contracts/ERC721TokenContractName.sol\":6340:6577  for (uint16 i = 1; i <= preBalanceFrom; i++) {... */\n      tag_216\n      jumpi\n        /* \"contracts/ERC721TokenContractName.sol\":6433:6440  tokenId */\n      dup4\n        /* \"contracts/ERC721TokenContractName.sol\":6404:6440  _balanceAndTokId[from][i] == tokenId */\n      0xffff\n      and\n        /* \"contracts/ERC721TokenContractName.sol\":6404:6420  _balanceAndTokId */\n      0x04d9\n        /* \"contracts/ERC721TokenContractName.sol\":6404:6426  _balanceAndTokId[from] */\n      0x00\n        /* \"contracts/ERC721TokenContractName.sol\":6421:6425  from */\n      dup6\n        /* \"contracts/ERC721TokenContractName.sol\":6404:6426  _balanceAndTokId[from] */\n      0xffffffffffffffffffffffffffffffffffffffff\n      and\n      0xffffffffffffffffffffffffffffffffffffffff\n      and\n      dup2\n      mstore\n      0x20\n      add\n      swap1\n      dup2\n      mstore\n      0x20\n      add\n      0x00\n      keccak256\n        /* \"contracts/ERC721TokenContractName.sol\":6427:6428  i */\n      dup3\n        /* \"contracts/ERC721TokenContractName.sol\":6404:6429  _balanceAndTokId[from][i] */\n      0xffff\n      and\n      0x04b1\n      dup2\n      lt\n      tag_218\n      jumpi\n      tag_219\n      tag_102\n      jump\t// in\n    tag_219:\n    tag_218:\n      0x10\n      swap2\n      dup3\n      dup3\n      div\n      add\n      swap2\n      swap1\n      mod\n      0x02\n      mul\n      swap1\n      sload\n      swap1\n      0x0100\n      exp\n      swap1\n      div\n      0xffff\n      and\n        /* \"contracts/ERC721TokenContractName.sol\":6404:6440  _balanceAndTokId[from][i] == tokenId */\n      0xffff\n      and\n      sub\n        /* \"contracts/ERC721TokenContractName.sol\":6400:6566  if (_balanceAndTokId[from][i] == tokenId) {... */\n      tag_221\n      jumpi\n        /* \"contracts/ERC721TokenContractName.sol\":6489:6505  _balanceAndTokId */\n      0x04d9\n        /* \"contracts/ERC721TokenContractName.sol\":6489:6511  _balanceAndTokId[from] */\n      0x00\n        /* \"contracts/ERC721TokenContractName.sol\":6506:6510  from */\n      dup5\n        /* \"contracts/ERC721TokenContractName.sol\":6489:6511  _balanceAndTokId[from] */\n      0xffffffffffffffffffffffffffffffffffffffff\n      and\n      0xffffffffffffffffffffffffffffffffffffffff\n      and\n      dup2\n      mstore\n      0x20\n      add\n      swap1\n      dup2\n      mstore\n      0x20\n      add\n      0x00\n      keccak256\n        /* \"contracts/ERC721TokenContractName.sol\":6512:6526  preBalanceFrom */\n      dup3\n        /* \"contracts/ERC721TokenContractName.sol\":6489:6527  _balanceAndTokId[from][preBalanceFrom] */\n      0xffff\n      and\n      0x04b1\n      dup2\n      lt\n      tag_222\n      jumpi\n      tag_223\n      tag_102\n      jump\t// in\n    tag_223:\n    tag_222:\n      0x10\n      swap2\n      dup3\n      dup3\n      div\n      add\n      swap2\n      swap1\n      mod\n      0x02\n      mul\n      swap1\n      sload\n      swap1\n      0x0100\n      exp\n      swap1\n      div\n      0xffff\n      and\n        /* \"contracts/ERC721TokenContractName.sol\":6461:6477  _balanceAndTokId */\n      0x04d9\n        /* \"contracts/ERC721TokenContractName.sol\":6461:6483  _balanceAndTokId[from] */\n      0x00\n        /* \"contracts/ERC721TokenContractName.sol\":6478:6482  from */\n      dup6\n        /* \"contracts/ERC721TokenContractName.sol\":6461:6483  _balanceAndTokId[from] */\n      0xffffffffffffffffffffffffffffffffffffffff\n      and\n      0xffffffffffffffffffffffffffffffffffffffff\n      and\n      dup2\n      mstore\n      0x20\n      add\n      swap1\n      dup2\n      mstore\n      0x20\n      add\n      0x00\n      keccak256\n        /* \"contracts/ERC721TokenContractName.sol\":6484:6485  i */\n      dup3\n        /* \"contracts/ERC721TokenContractName.sol\":6461:6486  _balanceAndTokId[from][i] */\n      0xffff\n      and\n      0x04b1\n      dup2\n      lt\n      tag_225\n      jumpi\n      tag_226\n      tag_102\n      jump\t// in\n    tag_226:\n    tag_225:\n      0x10\n      swap2\n      dup3\n      dup3\n      div\n      add\n      swap2\n      swap1\n      mod\n      0x02\n      mul\n        /* \"contracts/ERC721TokenContractName.sol\":6461:6527  _balanceAndTokId[from][i] = _balanceAndTokId[from][preBalanceFrom] */\n      0x0100\n      exp\n      dup2\n      sload\n      dup2\n      0xffff\n      mul\n      not\n      and\n      swap1\n      dup4\n      0xffff\n      and\n      mul\n      or\n      swap1\n      sstore\n      pop\n        /* \"contracts/ERC721TokenContractName.sol\":6546:6551  break */\n      jump(tag_216)\n        /* \"contracts/ERC721TokenContractName.sol\":6400:6566  if (_balanceAndTokId[from][i] == tokenId) {... */\n    tag_221:\n        /* \"contracts/ERC721TokenContractName.sol\":6380:6383  i++ */\n      dup1\n      dup1\n      tag_228\n      swap1\n      tag_229\n      jump\t// in\n    tag_228:\n      swap2\n      pop\n      pop\n        /* \"contracts/ERC721TokenContractName.sol\":6340:6577  for (uint16 i = 1; i <= preBalanceFrom; i++) {... */\n      jump(tag_215)\n    tag_216:\n      pop\n        /* \"contracts/ERC721TokenContractName.sol\":6305:6770  if (from != address(0)) {... */\n      jump(tag_230)\n    tag_214:\n        /* \"contracts/ERC721TokenContractName.sol\":6606:6618  uint16 index */\n      0x00\n        /* \"contracts/ERC721TokenContractName.sol\":6621:6628  tokenId */\n      dup4\n        /* \"contracts/ERC721TokenContractName.sol\":6606:6628  uint16 index = tokenId */\n      swap1\n      pop\n        /* \"contracts/ERC721TokenContractName.sol\":6649:6665  _balanceAndTokId */\n      0x04d9\n        /* \"contracts/ERC721TokenContractName.sol\":6649:6671  _balanceAndTokId[from] */\n      0x00\n        /* \"contracts/ERC721TokenContractName.sol\":6666:6670  from */\n      dup5\n        /* \"contracts/ERC721TokenContractName.sol\":6649:6671  _balanceAndTokId[from] */\n      0xffffffffffffffffffffffffffffffffffffffff\n      and\n      0xffffffffffffffffffffffffffffffffffffffff\n      and\n      dup2\n      mstore\n      0x20\n      add\n      swap1\n      dup2\n      mstore\n      0x20\n      add\n      0x00\n      keccak256\n        /* \"contracts/ERC721TokenContractName.sol\":6672:6677  index */\n      dup2\n        /* \"contracts/ERC721TokenContractName.sol\":6649:6678  _balanceAndTokId[from][index] */\n      0xffff\n      and\n      0x04b1\n      dup2\n      lt\n      tag_231\n      jumpi\n      tag_232\n      tag_102\n      jump\t// in\n    tag_232:\n    tag_231:\n      0x10\n      swap2\n      dup3\n      dup3\n      div\n      add\n      swap2\n      swap1\n      mod\n      0x02\n      mul\n      swap1\n      sload\n      swap1\n      0x0100\n      exp\n      swap1\n      div\n      0xffff\n      and\n        /* \"contracts/ERC721TokenContractName.sol\":6639:6678  tokenId = _balanceAndTokId[from][index] */\n      swap4\n      pop\n        /* \"contracts/ERC721TokenContractName.sol\":6721:6737  _balanceAndTokId */\n      0x04d9\n        /* \"contracts/ERC721TokenContractName.sol\":6721:6743  _balanceAndTokId[from] */\n      0x00\n        /* \"contracts/ERC721TokenContractName.sol\":6738:6742  from */\n      dup5\n        /* \"contracts/ERC721TokenContractName.sol\":6721:6743  _balanceAndTokId[from] */\n      0xffffffffffffffffffffffffffffffffffffffff\n      and\n      0xffffffffffffffffffffffffffffffffffffffff\n      and\n      dup2\n      mstore\n      0x20\n      add\n      swap1\n      dup2\n      mstore\n      0x20\n      add\n      0x00\n      keccak256\n        /* \"contracts/ERC721TokenContractName.sol\":6744:6758  preBalanceFrom */\n      dup3\n        /* \"contracts/ERC721TokenContractName.sol\":6721:6759  _balanceAndTokId[from][preBalanceFrom] */\n      0xffff\n      and\n      0x04b1\n      dup2\n      lt\n      tag_234\n      jumpi\n      tag_235\n      tag_102\n      jump\t// in\n    tag_235:\n    tag_234:\n      0x10\n      swap2\n      dup3\n      dup3\n      div\n      add\n      swap2\n      swap1\n      mod\n      0x02\n      mul\n      swap1\n      sload\n      swap1\n      0x0100\n      exp\n      swap1\n      div\n      0xffff\n      and\n        /* \"contracts/ERC721TokenContractName.sol\":6689:6705  _balanceAndTokId */\n      0x04d9\n        /* \"contracts/ERC721TokenContractName.sol\":6689:6711  _balanceAndTokId[from] */\n      0x00\n        /* \"contracts/ERC721TokenContractName.sol\":6706:6710  from */\n      dup6\n        /* \"contracts/ERC721TokenContractName.sol\":6689:6711  _balanceAndTokId[from] */\n      0xffffffffffffffffffffffffffffffffffffffff\n      and\n      0xffffffffffffffffffffffffffffffffffffffff\n      and\n      dup2\n      mstore\n      0x20\n      add\n      swap1\n      dup2\n      mstore\n      0x20\n      add\n      0x00\n      keccak256\n        /* \"contracts/ERC721TokenContractName.sol\":6712:6717  index */\n      dup3\n        /* \"contracts/ERC721TokenContractName.sol\":6689:6718  _balanceAndTokId[from][index] */\n      0xffff\n      and\n      0x04b1\n      dup2\n      lt\n      tag_237\n      jumpi\n      tag_238\n      tag_102\n      jump\t// in\n    tag_238:\n    tag_237:\n      0x10\n      swap2\n      dup3\n      dup3\n      div\n      add\n      swap2\n      swap1\n      mod\n      0x02\n      mul\n        /* \"contracts/ERC721TokenContractName.sol\":6689:6759  _balanceAndTokId[from][index] = _balanceAndTokId[from][preBalanceFrom] */\n      0x0100\n      exp\n      dup2\n      sload\n      dup2\n      0xffff\n      mul\n      not\n      and\n      swap1\n      dup4\n      0xffff\n      and\n      mul\n      or\n      swap1\n      sstore\n      pop\n        /* \"contracts/ERC721TokenContractName.sol\":6595:6770  {... */\n      pop\n        /* \"contracts/ERC721TokenContractName.sol\":6305:6770  if (from != address(0)) {... */\n    tag_230:\n        /* \"contracts/ERC721TokenContractName.sol\":6823:6824  0 */\n      0x00\n        /* \"contracts/ERC721TokenContractName.sol\":6782:6798  _balanceAndTokId */\n      0x04d9\n        /* \"contracts/ERC721TokenContractName.sol\":6782:6804  _balanceAndTokId[from] */\n      0x00\n        /* \"contracts/ERC721TokenContractName.sol\":6799:6803  from */\n      dup5\n        /* \"contracts/ERC721TokenContractName.sol\":6782:6804  _balanceAndTokId[from] */\n      0xffffffffffffffffffffffffffffffffffffffff\n      and\n      0xffffffffffffffffffffffffffffffffffffffff\n      and\n      dup2\n      mstore\n      0x20\n      add\n      swap1\n      dup2\n      mstore\n      0x20\n      add\n      0x00\n      keccak256\n        /* \"contracts/ERC721TokenContractName.sol\":6805:6819  preBalanceFrom */\n      dup3\n        /* \"contracts/ERC721TokenContractName.sol\":6782:6820  _balanceAndTokId[from][preBalanceFrom] */\n      0xffff\n      and\n      0x04b1\n      dup2\n      lt\n      tag_240\n      jumpi\n      tag_241\n      tag_102\n      jump\t// in\n    tag_241:\n    tag_240:\n      0x10\n      swap2\n      dup3\n      dup3\n      div\n      add\n      swap2\n      swap1\n      mod\n      0x02\n      mul\n        /* \"contracts/ERC721TokenContractName.sol\":6782:6824  _balanceAndTokId[from][preBalanceFrom] = 0 */\n      0x0100\n      exp\n      dup2\n      sload\n      dup2\n      0xffff\n      mul\n      not\n      and\n      swap1\n      dup4\n      0xffff\n      and\n      mul\n      or\n      swap1\n      sstore\n      pop\n        /* \"contracts/ERC721TokenContractName.sol\":6864:6865  1 */\n      0x01\n        /* \"contracts/ERC721TokenContractName.sol\":6835:6851  _balanceAndTokId */\n      0x04d9\n        /* \"contracts/ERC721TokenContractName.sol\":6835:6857  _balanceAndTokId[from] */\n      0x00\n        /* \"contracts/ERC721TokenContractName.sol\":6852:6856  from */\n      dup5\n        /* \"contracts/ERC721TokenContractName.sol\":6835:6857  _balanceAndTokId[from] */\n      0xffffffffffffffffffffffffffffffffffffffff\n      and\n      0xffffffffffffffffffffffffffffffffffffffff\n      and\n      dup2\n      mstore\n      0x20\n      add\n      swap1\n      dup2\n      mstore\n      0x20\n      add\n      0x00\n      keccak256\n        /* \"contracts/ERC721TokenContractName.sol\":6858:6859  0 */\n      0x00\n        /* \"contracts/ERC721TokenContractName.sol\":6835:6860  _balanceAndTokId[from][0] */\n      0x04b1\n      dup2\n      lt\n      tag_243\n      jumpi\n      tag_244\n      tag_102\n      jump\t// in\n    tag_244:\n    tag_243:\n      0x10\n      swap2\n      dup3\n      dup3\n      div\n      add\n      swap2\n      swap1\n      mod\n      0x02\n      mul\n        /* \"contracts/ERC721TokenContractName.sol\":6835:6865  _balanceAndTokId[from][0] -= 1 */\n      dup3\n      dup3\n      dup3\n      swap1\n      sload\n      swap1\n      0x0100\n      exp\n      swap1\n      div\n      0xffff\n      and\n      tag_246\n      swap2\n      swap1\n      tag_247\n      jump\t// in\n    tag_246:\n      swap3\n      pop\n      0x0100\n      exp\n      dup2\n      sload\n      dup2\n      0xffff\n      mul\n      not\n      and\n      swap1\n      dup4\n      0xffff\n      and\n      mul\n      or\n      swap1\n      sstore\n      pop\n        /* \"contracts/ERC721TokenContractName.sol\":6878:6897  uint16 newBalanceTo */\n      0x00\n        /* \"contracts/ERC721TokenContractName.sol\":6927:6928  1 */\n      0x01\n        /* \"contracts/ERC721TokenContractName.sol\":6901:6917  _balanceAndTokId */\n      0x04d9\n        /* \"contracts/ERC721TokenContractName.sol\":6901:6921  _balanceAndTokId[to] */\n      0x00\n        /* \"contracts/ERC721TokenContractName.sol\":6918:6920  to */\n      dup8\n        /* \"contracts/ERC721TokenContractName.sol\":6901:6921  _balanceAndTokId[to] */\n      0xffffffffffffffffffffffffffffffffffffffff\n      and\n      0xffffffffffffffffffffffffffffffffffffffff\n      and\n      dup2\n      mstore\n      0x20\n      add\n      swap1\n      dup2\n      mstore\n      0x20\n      add\n      0x00\n      keccak256\n        /* \"contracts/ERC721TokenContractName.sol\":6922:6923  0 */\n      0x00\n        /* \"contracts/ERC721TokenContractName.sol\":6901:6924  _balanceAndTokId[to][0] */\n      0x04b1\n      dup2\n      lt\n      tag_248\n      jumpi\n      tag_249\n      tag_102\n      jump\t// in\n    tag_249:\n    tag_248:\n      0x10\n      swap2\n      dup3\n      dup3\n      div\n      add\n      swap2\n      swap1\n      mod\n      0x02\n      mul\n      swap1\n      sload\n      swap1\n      0x0100\n      exp\n      swap1\n      div\n      0xffff\n      and\n        /* \"contracts/ERC721TokenContractName.sol\":6901:6928  _balanceAndTokId[to][0] + 1 */\n      tag_251\n      swap2\n      swap1\n      tag_252\n      jump\t// in\n    tag_251:\n        /* \"contracts/ERC721TokenContractName.sol\":6878:6929  uint16 newBalanceTo = (_balanceAndTokId[to][0] + 1) */\n      swap1\n      pop\n        /* \"contracts/ERC721TokenContractName.sol\":6977:6984  tokenId */\n      dup4\n        /* \"contracts/ERC721TokenContractName.sol\":6940:6956  _balanceAndTokId */\n      0x04d9\n        /* \"contracts/ERC721TokenContractName.sol\":6940:6960  _balanceAndTokId[to] */\n      0x00\n        /* \"contracts/ERC721TokenContractName.sol\":6957:6959  to */\n      dup8\n        /* \"contracts/ERC721TokenContractName.sol\":6940:6960  _balanceAndTokId[to] */\n      0xffffffffffffffffffffffffffffffffffffffff\n      and\n      0xffffffffffffffffffffffffffffffffffffffff\n      and\n      dup2\n      mstore\n      0x20\n      add\n      swap1\n      dup2\n      mstore\n      0x20\n      add\n      0x00\n      keccak256\n        /* \"contracts/ERC721TokenContractName.sol\":6961:6973  newBalanceTo */\n      dup3\n        /* \"contracts/ERC721TokenContractName.sol\":6940:6974  _balanceAndTokId[to][newBalanceTo] */\n      0xffff\n      and\n      0x04b1\n      dup2\n      lt\n      tag_253\n      jumpi\n      tag_254\n      tag_102\n      jump\t// in\n    tag_254:\n    tag_253:\n      0x10\n      swap2\n      dup3\n      dup3\n      div\n      add\n      swap2\n      swap1\n      mod\n      0x02\n      mul\n        /* \"contracts/ERC721TokenContractName.sol\":6940:6984  _balanceAndTokId[to][newBalanceTo] = tokenId */\n      0x0100\n      exp\n      dup2\n      sload\n      dup2\n      0xffff\n      mul\n      not\n      and\n      swap1\n      dup4\n      0xffff\n      and\n      mul\n      or\n      swap1\n      sstore\n      pop\n        /* \"contracts/ERC721TokenContractName.sol\":7021:7033  newBalanceTo */\n      dup1\n        /* \"contracts/ERC721TokenContractName.sol\":6995:7011  _balanceAndTokId */\n      0x04d9\n        /* \"contracts/ERC721TokenContractName.sol\":6995:7015  _balanceAndTokId[to] */\n      0x00\n        /* \"contracts/ERC721TokenContractName.sol\":7012:7014  to */\n      dup8\n        /* \"contracts/ERC721TokenContractName.sol\":6995:7015  _balanceAndTokId[to] */\n      0xffffffffffffffffffffffffffffffffffffffff\n      and\n      0xffffffffffffffffffffffffffffffffffffffff\n      and\n      dup2\n      mstore\n      0x20\n      add\n      swap1\n      dup2\n      mstore\n      0x20\n      add\n      0x00\n      keccak256\n        /* \"contracts/ERC721TokenContractName.sol\":7016:7017  0 */\n      0x00\n        /* \"contracts/ERC721TokenContractName.sol\":6995:7018  _balanceAndTokId[to][0] */\n      0x04b1\n      dup2\n      lt\n      tag_256\n      jumpi\n      tag_257\n      tag_102\n      jump\t// in\n    tag_257:\n    tag_256:\n      0x10\n      swap2\n      dup3\n      dup3\n      div\n      add\n      swap2\n      swap1\n      mod\n      0x02\n      mul\n        /* \"contracts/ERC721TokenContractName.sol\":6995:7033  _balanceAndTokId[to][0] = newBalanceTo */\n      0x0100\n      exp\n      dup2\n      sload\n      dup2\n      0xffff\n      mul\n      not\n      and\n      swap1\n      dup4\n      0xffff\n      and\n      mul\n      or\n      swap1\n      sstore\n      pop\n        /* \"contracts/ERC721TokenContractName.sol\":7065:7067  to */\n      dup5\n        /* \"contracts/ERC721TokenContractName.sol\":7046:7053  _owners */\n      0x02\n        /* \"contracts/ERC721TokenContractName.sol\":7054:7061  tokenId */\n      dup6\n        /* \"contracts/ERC721TokenContractName.sol\":7046:7062  _owners[tokenId] */\n      0xffff\n      and\n      0x04b1\n      dup2\n      lt\n      tag_259\n      jumpi\n      tag_260\n      tag_102\n      jump\t// in\n    tag_260:\n    tag_259:\n      add\n      0x00\n        /* \"contracts/ERC721TokenContractName.sol\":7046:7067  _owners[tokenId] = to */\n      0x0100\n      exp\n      dup2\n      sload\n      dup2\n      0xffffffffffffffffffffffffffffffffffffffff\n      mul\n      not\n      and\n      swap1\n      dup4\n      0xffffffffffffffffffffffffffffffffffffffff\n      and\n      mul\n      or\n      swap1\n      sstore\n      pop\n        /* \"contracts/ERC721TokenContractName.sol\":7102:7109  tokenId */\n      dup4\n        /* \"contracts/ERC721TokenContractName.sol\":7083:7110  Transfer(from, to, tokenId) */\n      0xffff\n      and\n        /* \"contracts/ERC721TokenContractName.sol\":7098:7100  to */\n      dup6\n        /* \"contracts/ERC721TokenContractName.sol\":7083:7110  Transfer(from, to, tokenId) */\n      0xffffffffffffffffffffffffffffffffffffffff\n      and\n        /* \"contracts/ERC721TokenContractName.sol\":7092:7096  from */\n      dup5\n        /* \"contracts/ERC721TokenContractName.sol\":7083:7110  Transfer(from, to, tokenId) */\n      0xffffffffffffffffffffffffffffffffffffffff\n      and\n      0x89896edbd223c9360ce42ddfed7522a2bffb20c056e4c42d42370cb493b65676\n      mload(0x40)\n      mload(0x40)\n      dup1\n      swap2\n      sub\n      swap1\n      log4\n        /* \"contracts/ERC721TokenContractName.sol\":6235:7118  {... */\n      pop\n      pop\n        /* \"contracts/ERC721TokenContractName.sol\":6168:7118  function _update(address to, uint16 tokenId, address from) private {... */\n      pop\n      pop\n      pop\n      jump\t// out\n        /* \"contracts/ERC721TokenContractName.sol\":7673:8477  function _checkOnERC721Received(address from, address to, uint16 tokenId, bytes memory data) private {... */\n    tag_152:\n        /* \"contracts/ERC721TokenContractName.sol\":7806:7807  0 */\n      0x00\n        /* \"contracts/ERC721TokenContractName.sol\":7789:7791  to */\n      dup4\n        /* \"contracts/ERC721TokenContractName.sol\":7789:7803  to.code.length */\n      0xffffffffffffffffffffffffffffffffffffffff\n      and\n      extcodesize\n        /* \"contracts/ERC721TokenContractName.sol\":7789:7807  to.code.length > 0 */\n      gt\n        /* \"contracts/ERC721TokenContractName.sol\":7785:8470  if (to.code.length > 0) {... */\n      iszero\n      tag_263\n      jumpi\n        /* \"contracts/ERC721TokenContractName.sol\":7847:7849  to */\n      dup3\n        /* \"contracts/ERC721TokenContractName.sol\":7828:7867  IERC721TCNReceiver(to).onERC721Received */\n      0xffffffffffffffffffffffffffffffffffffffff\n      and\n      0xb1cff380\n        /* \"contracts/ERC721TokenContractName.sol\":7868:7880  _msgSender() */\n      tag_264\n        /* \"contracts/ERC721TokenContractName.sol\":7868:7878  _msgSender */\n      tag_108\n        /* \"contracts/ERC721TokenContractName.sol\":7868:7880  _msgSender() */\n      jump\t// in\n    tag_264:\n        /* \"contracts/ERC721TokenContractName.sol\":7882:7886  from */\n      dup7\n        /* \"contracts/ERC721TokenContractName.sol\":7888:7895  tokenId */\n      dup6\n        /* \"contracts/ERC721TokenContractName.sol\":7897:7901  data */\n      dup6\n        /* \"contracts/ERC721TokenContractName.sol\":7828:7902  IERC721TCNReceiver(to).onERC721Received(_msgSender(), from, tokenId, data) */\n      mload(0x40)\n      dup6\n      0xffffffff\n      and\n      0xe0\n      shl\n      dup2\n      mstore\n      0x04\n      add\n      tag_265\n      swap5\n      swap4\n      swap3\n      swap2\n      swap1\n      tag_266\n      jump\t// in\n    tag_265:\n      0x20\n      mload(0x40)\n      dup1\n      dup4\n      sub\n      dup2\n      0x00\n      dup8\n      gas\n      call\n      swap3\n      pop\n      pop\n      pop\n      dup1\n      iszero\n      tag_267\n      jumpi\n      pop\n      mload(0x40)\n      returndatasize\n      not(0x1f)\n      0x1f\n      dup3\n      add\n      and\n      dup3\n      add\n      dup1\n      0x40\n      mstore\n      pop\n      dup2\n      add\n      swap1\n      tag_268\n      swap2\n      swap1\n      tag_269\n      jump\t// in\n    tag_268:\n      0x01\n    tag_267:\n        /* \"contracts/ERC721TokenContractName.sol\":7824:8459  try IERC721TCNReceiver(to).onERC721Received(_msgSender(), from, tokenId, data) returns (bytes4 retval) {... */\n      tag_270\n      jumpi\n      returndatasize\n      dup1\n      0x00\n      dup2\n      eq\n      tag_275\n      jumpi\n      mload(0x40)\n      swap2\n      pop\n      and(add(returndatasize, 0x3f), not(0x1f))\n      dup3\n      add\n      0x40\n      mstore\n      returndatasize\n      dup3\n      mstore\n      returndatasize\n      0x00\n      0x20\n      dup5\n      add\n      returndatacopy\n      jump(tag_274)\n    tag_275:\n      0x60\n      swap2\n      pop\n    tag_274:\n      pop\n        /* \"contracts/ERC721TokenContractName.sol\":8165:8166  0 */\n      0x00\n        /* \"contracts/ERC721TokenContractName.sol\":8148:8154  reason */\n      dup2\n        /* \"contracts/ERC721TokenContractName.sol\":8148:8161  reason.length */\n      mload\n        /* \"contracts/ERC721TokenContractName.sol\":8148:8166  reason.length == 0 */\n      sub\n        /* \"contracts/ERC721TokenContractName.sol\":8144:8444  if (reason.length == 0) {... */\n      tag_276\n      jumpi\n        /* \"contracts/ERC721TokenContractName.sol\":8220:8222  to */\n      dup4\n        /* \"contracts/ERC721TokenContractName.sol\":8198:8223  ERC721InvalidReceiver(to) */\n      mload(0x40)\n      0x64a0ae9200000000000000000000000000000000000000000000000000000000\n      dup2\n      mstore\n      0x04\n      add\n      tag_277\n      swap2\n      swap1\n      tag_48\n      jump\t// in\n    tag_277:\n      mload(0x40)\n      dup1\n      swap2\n      sub\n      swap1\n      revert\n        /* \"contracts/ERC721TokenContractName.sol\":8144:8444  if (reason.length == 0) {... */\n    tag_276:\n        /* \"contracts/ERC721TokenContractName.sol\":8394:8400  reason */\n      dup1\n        /* \"contracts/ERC721TokenContractName.sol\":8388:8401  mload(reason) */\n      mload\n        /* \"contracts/ERC721TokenContractName.sol\":8379:8385  reason */\n      dup2\n        /* \"contracts/ERC721TokenContractName.sol\":8375:8377  32 */\n      0x20\n        /* \"contracts/ERC721TokenContractName.sol\":8371:8386  add(32, reason) */\n      add\n        /* \"contracts/ERC721TokenContractName.sol\":8364:8402  revert(add(32, reason), mload(reason)) */\n      revert\n        /* \"contracts/ERC721TokenContractName.sol\":7824:8459  try IERC721TCNReceiver(to).onERC721Received(_msgSender(), from, tokenId, data) returns (bytes4 retval) {... */\n    tag_270:\n        /* \"contracts/ERC721TokenContractName.sol\":7960:8004  IERC721TCNReceiver.onERC721Received.selector */\n      shl(0xe0, 0xb1cff380)\n        /* \"contracts/ERC721TokenContractName.sol\":7950:8004  retval != IERC721TCNReceiver.onERC721Received.selector */\n      not(0xffffffffffffffffffffffffffffffffffffffffffffffffffffffff)\n      and\n        /* \"contracts/ERC721TokenContractName.sol\":7950:7956  retval */\n      dup2\n        /* \"contracts/ERC721TokenContractName.sol\":7950:8004  retval != IERC721TCNReceiver.onERC721Received.selector */\n      not(0xffffffffffffffffffffffffffffffffffffffffffffffffffffffff)\n      and\n      eq\n        /* \"contracts/ERC721TokenContractName.sol\":7946:8081  if (retval != IERC721TCNReceiver.onERC721Received.selector) {... */\n      tag_280\n      jumpi\n        /* \"contracts/ERC721TokenContractName.sol\":8058:8060  to */\n      dup4\n        /* \"contracts/ERC721TokenContractName.sol\":8036:8061  ERC721InvalidReceiver(to) */\n      mload(0x40)\n      0x64a0ae9200000000000000000000000000000000000000000000000000000000\n      dup2\n      mstore\n      0x04\n      add\n      tag_281\n      swap2\n      swap1\n      tag_48\n      jump\t// in\n    tag_281:\n      mload(0x40)\n      dup1\n      swap2\n      sub\n      swap1\n      revert\n        /* \"contracts/ERC721TokenContractName.sol\":7946:8081  if (retval != IERC721TCNReceiver.onERC721Received.selector) {... */\n    tag_280:\n        /* \"contracts/ERC721TokenContractName.sol\":7903:8096  returns (bytes4 retval) {... */\n      pop\n        /* \"contracts/ERC721TokenContractName.sol\":7785:8470  if (to.code.length > 0) {... */\n    tag_263:\n        /* \"contracts/ERC721TokenContractName.sol\":7673:8477  function _checkOnERC721Received(address from, address to, uint16 tokenId, bytes memory data) private {... */\n      pop\n      pop\n      pop\n      pop\n      jump\t// out\n        /* \"contracts/ERC721TokenContractName.sol\":7580:7665  function _baseURI() private pure returns (string memory) {... */\n    tag_157:\n        /* \"contracts/ERC721TokenContractName.sol\":7622:7635  string memory */\n      0x60\n        /* \"contracts/ERC721TokenContractName.sol\":7648:7657  return \"\" */\n      mload(0x40)\n      dup1\n      0x20\n      add\n      0x40\n      mstore\n      dup1\n      0x00\n      dup2\n      mstore\n      pop\n      swap1\n      pop\n        /* \"contracts/ERC721TokenContractName.sol\":7580:7665  function _baseURI() private pure returns (string memory) {... */\n      swap1\n      jump\t// out\n        /* \"@openzeppelin/contracts/utils/Strings.sol\":637:1335  function toString(uint256 value) internal pure returns (string memory) {... */\n    tag_161:\n        /* \"@openzeppelin/contracts/utils/Strings.sol\":693:706  string memory */\n      0x60\n        /* \"@openzeppelin/contracts/utils/Strings.sol\":742:756  uint256 length */\n      0x00\n        /* \"@openzeppelin/contracts/utils/Strings.sol\":779:780  1 */\n      0x01\n        /* \"@openzeppelin/contracts/utils/Strings.sol\":759:776  Math.log10(value) */\n      tag_284\n        /* \"@openzeppelin/contracts/utils/Strings.sol\":770:775  value */\n      dup5\n        /* \"@openzeppelin/contracts/utils/Strings.sol\":759:769  Math.log10 */\n      tag_285\n        /* \"@openzeppelin/contracts/utils/Strings.sol\":759:776  Math.log10(value) */\n      jump\t// in\n    tag_284:\n        /* \"@openzeppelin/contracts/utils/Strings.sol\":759:780  Math.log10(value) + 1 */\n      add\n        /* \"@openzeppelin/contracts/utils/Strings.sol\":742:780  uint256 length = Math.log10(value) + 1 */\n      swap1\n      pop\n        /* \"@openzeppelin/contracts/utils/Strings.sol\":794:814  string memory buffer */\n      0x00\n        /* \"@openzeppelin/contracts/utils/Strings.sol\":828:834  length */\n      dup2\n        /* \"@openzeppelin/contracts/utils/Strings.sol\":817:835  new string(length) */\n      0xffffffffffffffff\n      dup2\n      gt\n      iszero\n      tag_286\n      jumpi\n      tag_287\n      tag_288\n      jump\t// in\n    tag_287:\n    tag_286:\n      mload(0x40)\n      swap1\n      dup1\n      dup3\n      mstore\n      dup1\n      0x1f\n      add\n      not(0x1f)\n      and\n      0x20\n      add\n      dup3\n      add\n      0x40\n      mstore\n      dup1\n      iszero\n      tag_289\n      jumpi\n      dup2\n      0x20\n      add\n      0x01\n      dup3\n      mul\n      dup1\n      calldatasize\n      dup4\n      calldatacopy\n      dup1\n      dup3\n      add\n      swap2\n      pop\n      pop\n      swap1\n      pop\n    tag_289:\n      pop\n        /* \"@openzeppelin/contracts/utils/Strings.sol\":794:835  string memory buffer = new string(length) */\n      swap1\n      pop\n        /* \"@openzeppelin/contracts/utils/Strings.sol\":849:860  uint256 ptr */\n      0x00\n        /* \"@openzeppelin/contracts/utils/Strings.sol\":975:981  length */\n      dup3\n        /* \"@openzeppelin/contracts/utils/Strings.sol\":971:973  32 */\n      0x20\n        /* \"@openzeppelin/contracts/utils/Strings.sol\":967:982  add(32, length) */\n      add\n        /* \"@openzeppelin/contracts/utils/Strings.sol\":959:965  buffer */\n      dup3\n        /* \"@openzeppelin/contracts/utils/Strings.sol\":955:983  add(buffer, add(32, length)) */\n      add\n        /* \"@openzeppelin/contracts/utils/Strings.sol\":948:983  ptr := add(buffer, add(32, length)) */\n      swap1\n      pop\n        /* \"@openzeppelin/contracts/utils/Strings.sol\":1010:1292  while (true) {... */\n    tag_290:\n        /* \"@openzeppelin/contracts/utils/Strings.sol\":1017:1021  true */\n      0x01\n        /* \"@openzeppelin/contracts/utils/Strings.sol\":1010:1292  while (true) {... */\n      iszero\n      tag_291\n      jumpi\n        /* \"@openzeppelin/contracts/utils/Strings.sol\":1041:1046  ptr-- */\n      dup1\n      dup1\n      0x01\n      swap1\n      sub\n      swap2\n      pop\n      pop\n        /* \"@openzeppelin/contracts/utils/Strings.sol\":1180:1190  HEX_DIGITS */\n      0x3031323334353637383961626364656600000000000000000000000000000000\n        /* \"@openzeppelin/contracts/utils/Strings.sol\":1175:1177  10 */\n      0x0a\n        /* \"@openzeppelin/contracts/utils/Strings.sol\":1168:1173  value */\n      dup7\n        /* \"@openzeppelin/contracts/utils/Strings.sol\":1164:1178  mod(value, 10) */\n      mod\n        /* \"@openzeppelin/contracts/utils/Strings.sol\":1159:1191  byte(mod(value, 10), HEX_DIGITS) */\n      byte\n        /* \"@openzeppelin/contracts/utils/Strings.sol\":1154:1157  ptr */\n      dup2\n        /* \"@openzeppelin/contracts/utils/Strings.sol\":1146:1192  mstore8(ptr, byte(mod(value, 10), HEX_DIGITS)) */\n      mstore8\n        /* \"@openzeppelin/contracts/utils/Strings.sol\":1236:1238  10 */\n      0x0a\n        /* \"@openzeppelin/contracts/utils/Strings.sol\":1227:1238  value /= 10 */\n      dup6\n      dup2\n      tag_292\n      jumpi\n      tag_293\n      tag_294\n      jump\t// in\n    tag_293:\n    tag_292:\n      div\n      swap5\n      pop\n        /* \"@openzeppelin/contracts/utils/Strings.sol\":1269:1270  0 */\n      0x00\n        /* \"@openzeppelin/contracts/utils/Strings.sol\":1260:1265  value */\n      dup6\n        /* \"@openzeppelin/contracts/utils/Strings.sol\":1260:1270  value == 0 */\n      sub\n        /* \"@openzeppelin/contracts/utils/Strings.sol\":1010:1292  while (true) {... */\n      tag_290\n        /* \"@openzeppelin/contracts/utils/Strings.sol\":1256:1277  if (value == 0) break */\n      jumpi\n        /* \"@openzeppelin/contracts/utils/Strings.sol\":1010:1292  while (true) {... */\n    tag_291:\n        /* \"@openzeppelin/contracts/utils/Strings.sol\":1312:1318  buffer */\n      dup2\n        /* \"@openzeppelin/contracts/utils/Strings.sol\":1305:1318  return buffer */\n      swap4\n      pop\n      pop\n      pop\n      pop\n        /* \"@openzeppelin/contracts/utils/Strings.sol\":637:1335  function toString(uint256 value) internal pure returns (string memory) {... */\n      swap2\n      swap1\n      pop\n      jump\t// out\n        /* \"contracts/ERC721TokenContractName.sol\":8666:8724  function setStateVoting(bytes32 state) internal {... */\n    tag_199:\n      pop\n      jump\t// out\n        /* \"@openzeppelin/contracts/utils/math/Math.sol\":12214:13130  function log10(uint256 value) internal pure returns (uint256) {... */\n    tag_285:\n        /* \"@openzeppelin/contracts/utils/math/Math.sol\":12267:12274  uint256 */\n      0x00\n        /* \"@openzeppelin/contracts/utils/math/Math.sol\":12286:12300  uint256 result */\n      dup1\n        /* \"@openzeppelin/contracts/utils/math/Math.sol\":12303:12304  0 */\n      0x00\n        /* \"@openzeppelin/contracts/utils/math/Math.sol\":12286:12304  uint256 result = 0 */\n      swap1\n      pop\n        /* \"@openzeppelin/contracts/utils/math/Math.sol\":12351:12359  10 ** 64 */\n      0x184f03e93ff9f4daa797ed6e38ed64bf6a1f010000000000000000\n        /* \"@openzeppelin/contracts/utils/math/Math.sol\":12342:12347  value */\n      dup4\n        /* \"@openzeppelin/contracts/utils/math/Math.sol\":12342:12359  value >= 10 ** 64 */\n      lt\n        /* \"@openzeppelin/contracts/utils/math/Math.sol\":12338:12441  if (value >= 10 ** 64) {... */\n      tag_298\n      jumpi\n        /* \"@openzeppelin/contracts/utils/math/Math.sol\":12388:12396  10 ** 64 */\n      0x184f03e93ff9f4daa797ed6e38ed64bf6a1f010000000000000000\n        /* \"@openzeppelin/contracts/utils/math/Math.sol\":12379:12396  value /= 10 ** 64 */\n      dup4\n      dup2\n      tag_299\n      jumpi\n      tag_300\n      tag_294\n      jump\t// in\n    tag_300:\n    tag_299:\n      div\n      swap3\n      pop\n        /* \"@openzeppelin/contracts/utils/math/Math.sol\":12424:12426  64 */\n      0x40\n        /* \"@openzeppelin/contracts/utils/math/Math.sol\":12414:12426  result += 64 */\n      dup2\n      add\n      swap1\n      pop\n        /* \"@openzeppelin/contracts/utils/math/Math.sol\":12338:12441  if (value >= 10 ** 64) {... */\n    tag_298:\n        /* \"@openzeppelin/contracts/utils/math/Math.sol\":12467:12475  10 ** 32 */\n      0x04ee2d6d415b85acef8100000000\n        /* \"@openzeppelin/contracts/utils/math/Math.sol\":12458:12463  value */\n      dup4\n        /* \"@openzeppelin/contracts/utils/math/Math.sol\":12458:12475  value >= 10 ** 32 */\n      lt\n        /* \"@openzeppelin/contracts/utils/math/Math.sol\":12454:12557  if (value >= 10 ** 32) {... */\n      tag_301\n      jumpi\n        /* \"@openzeppelin/contracts/utils/math/Math.sol\":12504:12512  10 ** 32 */\n      0x04ee2d6d415b85acef8100000000\n        /* \"@openzeppelin/contracts/utils/math/Math.sol\":12495:12512  value /= 10 ** 32 */\n      dup4\n      dup2\n      tag_302\n      jumpi\n      tag_303\n      tag_294\n      jump\t// in\n    tag_303:\n    tag_302:\n      div\n      swap3\n      pop\n        /* \"@openzeppelin/contracts/utils/math/Math.sol\":12540:12542  32 */\n      0x20\n        /* \"@openzeppelin/contracts/utils/math/Math.sol\":12530:12542  result += 32 */\n      dup2\n      add\n      swap1\n      pop\n        /* \"@openzeppelin/contracts/utils/math/Math.sol\":12454:12557  if (value >= 10 ** 32) {... */\n    tag_301:\n        /* \"@openzeppelin/contracts/utils/math/Math.sol\":12583:12591  10 ** 16 */\n      0x2386f26fc10000\n        /* \"@openzeppelin/contracts/utils/math/Math.sol\":12574:12579  value */\n      dup4\n        /* \"@openzeppelin/contracts/utils/math/Math.sol\":12574:12591  value >= 10 ** 16 */\n      lt\n        /* \"@openzeppelin/contracts/utils/math/Math.sol\":12570:12673  if (value >= 10 ** 16) {... */\n      tag_304\n      jumpi\n        /* \"@openzeppelin/contracts/utils/math/Math.sol\":12620:12628  10 ** 16 */\n      0x2386f26fc10000\n        /* \"@openzeppelin/contracts/utils/math/Math.sol\":12611:12628  value /= 10 ** 16 */\n      dup4\n      dup2\n      tag_305\n      jumpi\n      tag_306\n      tag_294\n      jump\t// in\n    tag_306:\n    tag_305:\n      div\n      swap3\n      pop\n        /* \"@openzeppelin/contracts/utils/math/Math.sol\":12656:12658  16 */\n      0x10\n        /* \"@openzeppelin/contracts/utils/math/Math.sol\":12646:12658  result += 16 */\n      dup2\n      add\n      swap1\n      pop\n        /* \"@openzeppelin/contracts/utils/math/Math.sol\":12570:12673  if (value >= 10 ** 16) {... */\n    tag_304:\n        /* \"@openzeppelin/contracts/utils/math/Math.sol\":12699:12706  10 ** 8 */\n      0x05f5e100\n        /* \"@openzeppelin/contracts/utils/math/Math.sol\":12690:12695  value */\n      dup4\n        /* \"@openzeppelin/contracts/utils/math/Math.sol\":12690:12706  value >= 10 ** 8 */\n      lt\n        /* \"@openzeppelin/contracts/utils/math/Math.sol\":12686:12786  if (value >= 10 ** 8) {... */\n      tag_307\n      jumpi\n        /* \"@openzeppelin/contracts/utils/math/Math.sol\":12735:12742  10 ** 8 */\n      0x05f5e100\n        /* \"@openzeppelin/contracts/utils/math/Math.sol\":12726:12742  value /= 10 ** 8 */\n      dup4\n      dup2\n      tag_308\n      jumpi\n      tag_309\n      tag_294\n      jump\t// in\n    tag_309:\n    tag_308:\n      div\n      swap3\n      pop\n        /* \"@openzeppelin/contracts/utils/math/Math.sol\":12770:12771  8 */\n      0x08\n        /* \"@openzeppelin/contracts/utils/math/Math.sol\":12760:12771  result += 8 */\n      dup2\n      add\n      swap1\n      pop\n        /* \"@openzeppelin/contracts/utils/math/Math.sol\":12686:12786  if (value >= 10 ** 8) {... */\n    tag_307:\n        /* \"@openzeppelin/contracts/utils/math/Math.sol\":12812:12819  10 ** 4 */\n      0x2710\n        /* \"@openzeppelin/contracts/utils/math/Math.sol\":12803:12808  value */\n      dup4\n        /* \"@openzeppelin/contracts/utils/math/Math.sol\":12803:12819  value >= 10 ** 4 */\n      lt\n        /* \"@openzeppelin/contracts/utils/math/Math.sol\":12799:12899  if (value >= 10 ** 4) {... */\n      tag_310\n      jumpi\n        /* \"@openzeppelin/contracts/utils/math/Math.sol\":12848:12855  10 ** 4 */\n      0x2710\n        /* \"@openzeppelin/contracts/utils/math/Math.sol\":12839:12855  value /= 10 ** 4 */\n      dup4\n      dup2\n      tag_311\n      jumpi\n      tag_312\n      tag_294\n      jump\t// in\n    tag_312:\n    tag_311:\n      div\n      swap3\n      pop\n        /* \"@openzeppelin/contracts/utils/math/Math.sol\":12883:12884  4 */\n      0x04\n        /* \"@openzeppelin/contracts/utils/math/Math.sol\":12873:12884  result += 4 */\n      dup2\n      add\n      swap1\n      pop\n        /* \"@openzeppelin/contracts/utils/math/Math.sol\":12799:12899  if (value >= 10 ** 4) {... */\n    tag_310:\n        /* \"@openzeppelin/contracts/utils/math/Math.sol\":12925:12932  10 ** 2 */\n      0x64\n        /* \"@openzeppelin/contracts/utils/math/Math.sol\":12916:12921  value */\n      dup4\n        /* \"@openzeppelin/contracts/utils/math/Math.sol\":12916:12932  value >= 10 ** 2 */\n      lt\n        /* \"@openzeppelin/contracts/utils/math/Math.sol\":12912:13012  if (value >= 10 ** 2) {... */\n      tag_313\n      jumpi\n        /* \"@openzeppelin/contracts/utils/math/Math.sol\":12961:12968  10 ** 2 */\n      0x64\n        /* \"@openzeppelin/contracts/utils/math/Math.sol\":12952:12968  value /= 10 ** 2 */\n      dup4\n      dup2\n      tag_314\n      jumpi\n      tag_315\n      tag_294\n      jump\t// in\n    tag_315:\n    tag_314:\n      div\n      swap3\n      pop\n        /* \"@openzeppelin/contracts/utils/math/Math.sol\":12996:12997  2 */\n      0x02\n        /* \"@openzeppelin/contracts/utils/math/Math.sol\":12986:12997  result += 2 */\n      dup2\n      add\n      swap1\n      pop\n        /* \"@openzeppelin/contracts/utils/math/Math.sol\":12912:13012  if (value >= 10 ** 2) {... */\n    tag_313:\n        /* \"@openzeppelin/contracts/utils/math/Math.sol\":13038:13045  10 ** 1 */\n      0x0a\n        /* \"@openzeppelin/contracts/utils/math/Math.sol\":13029:13034  value */\n      dup4\n        /* \"@openzeppelin/contracts/utils/math/Math.sol\":13029:13045  value >= 10 ** 1 */\n      lt\n        /* \"@openzeppelin/contracts/utils/math/Math.sol\":13025:13091  if (value >= 10 ** 1) {... */\n      tag_316\n      jumpi\n        /* \"@openzeppelin/contracts/utils/math/Math.sol\":13075:13076  1 */\n      0x01\n        /* \"@openzeppelin/contracts/utils/math/Math.sol\":13065:13076  result += 1 */\n      dup2\n      add\n      swap1\n      pop\n        /* \"@openzeppelin/contracts/utils/math/Math.sol\":13025:13091  if (value >= 10 ** 1) {... */\n    tag_316:\n        /* \"@openzeppelin/contracts/utils/math/Math.sol\":13117:13123  result */\n      dup1\n        /* \"@openzeppelin/contracts/utils/math/Math.sol\":13110:13123  return result */\n      swap2\n      pop\n      pop\n        /* \"@openzeppelin/contracts/utils/math/Math.sol\":12214:13130  function log10(uint256 value) internal pure returns (uint256) {... */\n      swap2\n      swap1\n      pop\n      jump\t// out\n        /* \"#utility.yul\":7:157   */\n    tag_317:\n        /* \"#utility.yul\":44:51   */\n      0x00\n        /* \"#utility.yul\":84:150   */\n      0xffffffffffffffffffffffffffffffffffffffff000000000000000000000000\n        /* \"#utility.yul\":77:82   */\n      dup3\n        /* \"#utility.yul\":73:151   */\n      and\n        /* \"#utility.yul\":62:151   */\n      swap1\n      pop\n        /* \"#utility.yul\":7:157   */\n      swap2\n      swap1\n      pop\n      jump\t// out\n        /* \"#utility.yul\":163:281   */\n    tag_318:\n        /* \"#utility.yul\":250:274   */\n      tag_391\n        /* \"#utility.yul\":268:273   */\n      dup2\n        /* \"#utility.yul\":250:274   */\n      tag_317\n      jump\t// in\n    tag_391:\n        /* \"#utility.yul\":245:248   */\n      dup3\n        /* \"#utility.yul\":238:275   */\n      mstore\n        /* \"#utility.yul\":163:281   */\n      pop\n      pop\n      jump\t// out\n        /* \"#utility.yul\":287:509   */\n    tag_25:\n        /* \"#utility.yul\":380:384   */\n      0x00\n        /* \"#utility.yul\":418:420   */\n      0x20\n        /* \"#utility.yul\":407:416   */\n      dup3\n        /* \"#utility.yul\":403:421   */\n      add\n        /* \"#utility.yul\":395:421   */\n      swap1\n      pop\n        /* \"#utility.yul\":431:502   */\n      tag_393\n        /* \"#utility.yul\":499:500   */\n      0x00\n        /* \"#utility.yul\":488:497   */\n      dup4\n        /* \"#utility.yul\":484:501   */\n      add\n        /* \"#utility.yul\":475:481   */\n      dup5\n        /* \"#utility.yul\":431:502   */\n      tag_318\n      jump\t// in\n    tag_393:\n        /* \"#utility.yul\":287:509   */\n      swap3\n      swap2\n      pop\n      pop\n      jump\t// out\n        /* \"#utility.yul\":515:590   */\n    tag_319:\n        /* \"#utility.yul\":548:554   */\n      0x00\n        /* \"#utility.yul\":581:583   */\n      0x40\n        /* \"#utility.yul\":575:584   */\n      mload\n        /* \"#utility.yul\":565:584   */\n      swap1\n      pop\n        /* \"#utility.yul\":515:590   */\n      swap1\n      jump\t// out\n        /* \"#utility.yul\":596:713   */\n    tag_320:\n        /* \"#utility.yul\":705:706   */\n      0x00\n        /* \"#utility.yul\":702:703   */\n      dup1\n        /* \"#utility.yul\":695:707   */\n      revert\n        /* \"#utility.yul\":719:836   */\n    tag_321:\n        /* \"#utility.yul\":828:829   */\n      0x00\n        /* \"#utility.yul\":825:826   */\n      dup1\n        /* \"#utility.yul\":818:830   */\n      revert\n        /* \"#utility.yul\":842:968   */\n    tag_322:\n        /* \"#utility.yul\":879:886   */\n      0x00\n        /* \"#utility.yul\":919:961   */\n      0xffffffffffffffffffffffffffffffffffffffff\n        /* \"#utility.yul\":912:917   */\n      dup3\n        /* \"#utility.yul\":908:962   */\n      and\n        /* \"#utility.yul\":897:962   */\n      swap1\n      pop\n        /* \"#utility.yul\":842:968   */\n      swap2\n      swap1\n      pop\n      jump\t// out\n        /* \"#utility.yul\":974:1070   */\n    tag_323:\n        /* \"#utility.yul\":1011:1018   */\n      0x00\n        /* \"#utility.yul\":1040:1064   */\n      tag_399\n        /* \"#utility.yul\":1058:1063   */\n      dup3\n        /* \"#utility.yul\":1040:1064   */\n      tag_322\n      jump\t// in\n    tag_399:\n        /* \"#utility.yul\":1029:1064   */\n      swap1\n      pop\n        /* \"#utility.yul\":974:1070   */\n      swap2\n      swap1\n      pop\n      jump\t// out\n        /* \"#utility.yul\":1076:1198   */\n    tag_324:\n        /* \"#utility.yul\":1149:1173   */\n      tag_401\n        /* \"#utility.yul\":1167:1172   */\n      dup2\n        /* \"#utility.yul\":1149:1173   */\n      tag_323\n      jump\t// in\n    tag_401:\n        /* \"#utility.yul\":1142:1147   */\n      dup2\n        /* \"#utility.yul\":1139:1174   */\n      eq\n        /* \"#utility.yul\":1129:1192   */\n      tag_402\n      jumpi\n        /* \"#utility.yul\":1188:1189   */\n      0x00\n        /* \"#utility.yul\":1185:1186   */\n      dup1\n        /* \"#utility.yul\":1178:1190   */\n      revert\n        /* \"#utility.yul\":1129:1192   */\n    tag_402:\n        /* \"#utility.yul\":1076:1198   */\n      pop\n      jump\t// out\n        /* \"#utility.yul\":1204:1343   */\n    tag_325:\n        /* \"#utility.yul\":1250:1255   */\n      0x00\n        /* \"#utility.yul\":1288:1294   */\n      dup2\n        /* \"#utility.yul\":1275:1295   */\n      calldataload\n        /* \"#utility.yul\":1266:1295   */\n      swap1\n      pop\n        /* \"#utility.yul\":1304:1337   */\n      tag_404\n        /* \"#utility.yul\":1331:1336   */\n      dup2\n        /* \"#utility.yul\":1304:1337   */\n      tag_324\n      jump\t// in\n    tag_404:\n        /* \"#utility.yul\":1204:1343   */\n      swap3\n      swap2\n      pop\n      pop\n      jump\t// out\n        /* \"#utility.yul\":1349:1438   */\n    tag_326:\n        /* \"#utility.yul\":1385:1392   */\n      0x00\n        /* \"#utility.yul\":1425:1431   */\n      0xffff\n        /* \"#utility.yul\":1418:1423   */\n      dup3\n        /* \"#utility.yul\":1414:1432   */\n      and\n        /* \"#utility.yul\":1403:1432   */\n      swap1\n      pop\n        /* \"#utility.yul\":1349:1438   */\n      swap2\n      swap1\n      pop\n      jump\t// out\n        /* \"#utility.yul\":1444:1564   */\n    tag_327:\n        /* \"#utility.yul\":1516:1539   */\n      tag_407\n        /* \"#utility.yul\":1533:1538   */\n      dup2\n        /* \"#utility.yul\":1516:1539   */\n      tag_326\n      jump\t// in\n    tag_407:\n        /* \"#utility.yul\":1509:1514   */\n      dup2\n        /* \"#utility.yul\":1506:1540   */\n      eq\n        /* \"#utility.yul\":1496:1558   */\n      tag_408\n      jumpi\n        /* \"#utility.yul\":1554:1555   */\n      0x00\n        /* \"#utility.yul\":1551:1552   */\n      dup1\n        /* \"#utility.yul\":1544:1556   */\n      revert\n        /* \"#utility.yul\":1496:1558   */\n    tag_408:\n        /* \"#utility.yul\":1444:1564   */\n      pop\n      jump\t// out\n        /* \"#utility.yul\":1570:1707   */\n    tag_328:\n        /* \"#utility.yul\":1615:1620   */\n      0x00\n        /* \"#utility.yul\":1653:1659   */\n      dup2\n        /* \"#utility.yul\":1640:1660   */\n      calldataload\n        /* \"#utility.yul\":1631:1660   */\n      swap1\n      pop\n        /* \"#utility.yul\":1669:1701   */\n      tag_410\n        /* \"#utility.yul\":1695:1700   */\n      dup2\n        /* \"#utility.yul\":1669:1701   */\n      tag_327\n      jump\t// in\n    tag_410:\n        /* \"#utility.yul\":1570:1707   */\n      swap3\n      swap2\n      pop\n      pop\n      jump\t// out\n        /* \"#utility.yul\":1713:2330   */\n    tag_28:\n        /* \"#utility.yul\":1789:1795   */\n      0x00\n        /* \"#utility.yul\":1797:1803   */\n      dup1\n        /* \"#utility.yul\":1805:1811   */\n      0x00\n        /* \"#utility.yul\":1854:1856   */\n      0x60\n        /* \"#utility.yul\":1842:1851   */\n      dup5\n        /* \"#utility.yul\":1833:1840   */\n      dup7\n        /* \"#utility.yul\":1829:1852   */\n      sub\n        /* \"#utility.yul\":1825:1857   */\n      slt\n        /* \"#utility.yul\":1822:1941   */\n      iszero\n      tag_412\n      jumpi\n        /* \"#utility.yul\":1860:1939   */\n      tag_413\n      tag_320\n      jump\t// in\n    tag_413:\n        /* \"#utility.yul\":1822:1941   */\n    tag_412:\n        /* \"#utility.yul\":1980:1981   */\n      0x00\n        /* \"#utility.yul\":2005:2058   */\n      tag_414\n        /* \"#utility.yul\":2050:2057   */\n      dup7\n        /* \"#utility.yul\":2041:2047   */\n      dup3\n        /* \"#utility.yul\":2030:2039   */\n      dup8\n        /* \"#utility.yul\":2026:2048   */\n      add\n        /* \"#utility.yul\":2005:2058   */\n      tag_325\n      jump\t// in\n    tag_414:\n        /* \"#utility.yul\":1995:2058   */\n      swap4\n      pop\n        /* \"#utility.yul\":1951:2068   */\n      pop\n        /* \"#utility.yul\":2107:2109   */\n      0x20\n        /* \"#utility.yul\":2133:2186   */\n      tag_415\n        /* \"#utility.yul\":2178:2185   */\n      dup7\n        /* \"#utility.yul\":2169:2175   */\n      dup3\n        /* \"#utility.yul\":2158:2167   */\n      dup8\n        /* \"#utility.yul\":2154:2176   */\n      add\n        /* \"#utility.yul\":2133:2186   */\n      tag_325\n      jump\t// in\n    tag_415:\n        /* \"#utility.yul\":2123:2186   */\n      swap3\n      pop\n        /* \"#utility.yul\":2078:2196   */\n      pop\n        /* \"#utility.yul\":2235:2237   */\n      0x40\n        /* \"#utility.yul\":2261:2313   */\n      tag_416\n        /* \"#utility.yul\":2305:2312   */\n      dup7\n        /* \"#utility.yul\":2296:2302   */\n      dup3\n        /* \"#utility.yul\":2285:2294   */\n      dup8\n        /* \"#utility.yul\":2281:2303   */\n      add\n        /* \"#utility.yul\":2261:2313   */\n      tag_328\n      jump\t// in\n    tag_416:\n        /* \"#utility.yul\":2251:2313   */\n      swap2\n      pop\n        /* \"#utility.yul\":2206:2323   */\n      pop\n        /* \"#utility.yul\":1713:2330   */\n      swap3\n      pop\n      swap3\n      pop\n      swap3\n      jump\t// out\n        /* \"#utility.yul\":2336:2413   */\n    tag_329:\n        /* \"#utility.yul\":2373:2380   */\n      0x00\n        /* \"#utility.yul\":2402:2407   */\n      dup2\n        /* \"#utility.yul\":2391:2407   */\n      swap1\n      pop\n        /* \"#utility.yul\":2336:2413   */\n      swap2\n      swap1\n      pop\n      jump\t// out\n        /* \"#utility.yul\":2419:2537   */\n    tag_330:\n        /* \"#utility.yul\":2506:2530   */\n      tag_419\n        /* \"#utility.yul\":2524:2529   */\n      dup2\n        /* \"#utility.yul\":2506:2530   */\n      tag_329\n      jump\t// in\n    tag_419:\n        /* \"#utility.yul\":2501:2504   */\n      dup3\n        /* \"#utility.yul\":2494:2531   */\n      mstore\n        /* \"#utility.yul\":2419:2537   */\n      pop\n      pop\n      jump\t// out\n        /* \"#utility.yul\":2543:2765   */\n    tag_36:\n        /* \"#utility.yul\":2636:2640   */\n      0x00\n        /* \"#utility.yul\":2674:2676   */\n      0x20\n        /* \"#utility.yul\":2663:2672   */\n      dup3\n        /* \"#utility.yul\":2659:2677   */\n      add\n        /* \"#utility.yul\":2651:2677   */\n      swap1\n      pop\n        /* \"#utility.yul\":2687:2758   */\n      tag_421\n        /* \"#utility.yul\":2755:2756   */\n      0x00\n        /* \"#utility.yul\":2744:2753   */\n      dup4\n        /* \"#utility.yul\":2740:2757   */\n      add\n        /* \"#utility.yul\":2731:2737   */\n      dup5\n        /* \"#utility.yul\":2687:2758   */\n      tag_330\n      jump\t// in\n    tag_421:\n        /* \"#utility.yul\":2543:2765   */\n      swap3\n      swap2\n      pop\n      pop\n      jump\t// out\n        /* \"#utility.yul\":2771:3100   */\n    tag_39:\n        /* \"#utility.yul\":2830:2836   */\n      0x00\n        /* \"#utility.yul\":2879:2881   */\n      0x20\n        /* \"#utility.yul\":2867:2876   */\n      dup3\n        /* \"#utility.yul\":2858:2865   */\n      dup5\n        /* \"#utility.yul\":2854:2877   */\n      sub\n        /* \"#utility.yul\":2850:2882   */\n      slt\n        /* \"#utility.yul\":2847:2966   */\n      iszero\n      tag_423\n      jumpi\n        /* \"#utility.yul\":2885:2964   */\n      tag_424\n      tag_320\n      jump\t// in\n    tag_424:\n        /* \"#utility.yul\":2847:2966   */\n    tag_423:\n        /* \"#utility.yul\":3005:3006   */\n      0x00\n        /* \"#utility.yul\":3030:3083   */\n      tag_425\n        /* \"#utility.yul\":3075:3082   */\n      dup5\n        /* \"#utility.yul\":3066:3072   */\n      dup3\n        /* \"#utility.yul\":3055:3064   */\n      dup6\n        /* \"#utility.yul\":3051:3073   */\n      add\n        /* \"#utility.yul\":3030:3083   */\n      tag_325\n      jump\t// in\n    tag_425:\n        /* \"#utility.yul\":3020:3083   */\n      swap2\n      pop\n        /* \"#utility.yul\":2976:3093   */\n      pop\n        /* \"#utility.yul\":2771:3100   */\n      swap3\n      swap2\n      pop\n      pop\n      jump\t// out\n        /* \"#utility.yul\":3106:3221   */\n    tag_331:\n        /* \"#utility.yul\":3191:3214   */\n      tag_427\n        /* \"#utility.yul\":3208:3213   */\n      dup2\n        /* \"#utility.yul\":3191:3214   */\n      tag_326\n      jump\t// in\n    tag_427:\n        /* \"#utility.yul\":3186:3189   */\n      dup3\n        /* \"#utility.yul\":3179:3215   */\n      mstore\n        /* \"#utility.yul\":3106:3221   */\n      pop\n      pop\n      jump\t// out\n        /* \"#utility.yul\":3227:3445   */\n    tag_42:\n        /* \"#utility.yul\":3318:3322   */\n      0x00\n        /* \"#utility.yul\":3356:3358   */\n      0x20\n        /* \"#utility.yul\":3345:3354   */\n      dup3\n        /* \"#utility.yul\":3341:3359   */\n      add\n        /* \"#utility.yul\":3333:3359   */\n      swap1\n      pop\n        /* \"#utility.yul\":3369:3438   */\n      tag_429\n        /* \"#utility.yul\":3435:3436   */\n      0x00\n        /* \"#utility.yul\":3424:3433   */\n      dup4\n        /* \"#utility.yul\":3420:3437   */\n      add\n        /* \"#utility.yul\":3411:3417   */\n      dup5\n        /* \"#utility.yul\":3369:3438   */\n      tag_331\n      jump\t// in\n    tag_429:\n        /* \"#utility.yul\":3227:3445   */\n      swap3\n      swap2\n      pop\n      pop\n      jump\t// out\n        /* \"#utility.yul\":3451:3778   */\n    tag_45:\n        /* \"#utility.yul\":3509:3515   */\n      0x00\n        /* \"#utility.yul\":3558:3560   */\n      0x20\n        /* \"#utility.yul\":3546:3555   */\n      dup3\n        /* \"#utility.yul\":3537:3544   */\n      dup5\n        /* \"#utility.yul\":3533:3556   */\n      sub\n        /* \"#utility.yul\":3529:3561   */\n      slt\n        /* \"#utility.yul\":3526:3645   */\n      iszero\n      tag_431\n      jumpi\n        /* \"#utility.yul\":3564:3643   */\n      tag_432\n      tag_320\n      jump\t// in\n    tag_432:\n        /* \"#utility.yul\":3526:3645   */\n    tag_431:\n        /* \"#utility.yul\":3684:3685   */\n      0x00\n        /* \"#utility.yul\":3709:3761   */\n      tag_433\n        /* \"#utility.yul\":3753:3760   */\n      dup5\n        /* \"#utility.yul\":3744:3750   */\n      dup3\n        /* \"#utility.yul\":3733:3742   */\n      dup6\n        /* \"#utility.yul\":3729:3751   */\n      add\n        /* \"#utility.yul\":3709:3761   */\n      tag_328\n      jump\t// in\n    tag_433:\n        /* \"#utility.yul\":3699:3761   */\n      swap2\n      pop\n        /* \"#utility.yul\":3655:3771   */\n      pop\n        /* \"#utility.yul\":3451:3778   */\n      swap3\n      swap2\n      pop\n      pop\n      jump\t// out\n        /* \"#utility.yul\":3784:3902   */\n    tag_332:\n        /* \"#utility.yul\":3871:3895   */\n      tag_435\n        /* \"#utility.yul\":3889:3894   */\n      dup2\n        /* \"#utility.yul\":3871:3895   */\n      tag_323\n      jump\t// in\n    tag_435:\n        /* \"#utility.yul\":3866:3869   */\n      dup3\n        /* \"#utility.yul\":3859:3896   */\n      mstore\n        /* \"#utility.yul\":3784:3902   */\n      pop\n      pop\n      jump\t// out\n        /* \"#utility.yul\":3908:4130   */\n    tag_48:\n        /* \"#utility.yul\":4001:4005   */\n      0x00\n        /* \"#utility.yul\":4039:4041   */\n      0x20\n        /* \"#utility.yul\":4028:4037   */\n      dup3\n        /* \"#utility.yul\":4024:4042   */\n      add\n        /* \"#utility.yul\":4016:4042   */\n      swap1\n      pop\n        /* \"#utility.yul\":4052:4123   */\n      tag_437\n        /* \"#utility.yul\":4120:4121   */\n      0x00\n        /* \"#utility.yul\":4109:4118   */\n      dup4\n        /* \"#utility.yul\":4105:4122   */\n      add\n        /* \"#utility.yul\":4096:4102   */\n      dup5\n        /* \"#utility.yul\":4052:4123   */\n      tag_332\n      jump\t// in\n    tag_437:\n        /* \"#utility.yul\":3908:4130   */\n      swap3\n      swap2\n      pop\n      pop\n      jump\t// out\n        /* \"#utility.yul\":4136:4286   */\n    tag_333:\n        /* \"#utility.yul\":4173:4180   */\n      0x00\n        /* \"#utility.yul\":4213:4279   */\n      0xffffffffffffffffffff00000000000000000000000000000000000000000000\n        /* \"#utility.yul\":4206:4211   */\n      dup3\n        /* \"#utility.yul\":4202:4280   */\n      and\n        /* \"#utility.yul\":4191:4280   */\n      swap1\n      pop\n        /* \"#utility.yul\":4136:4286   */\n      swap2\n      swap1\n      pop\n      jump\t// out\n        /* \"#utility.yul\":4292:4410   */\n    tag_334:\n        /* \"#utility.yul\":4379:4403   */\n      tag_440\n        /* \"#utility.yul\":4397:4402   */\n      dup2\n        /* \"#utility.yul\":4379:4403   */\n      tag_333\n      jump\t// in\n    tag_440:\n        /* \"#utility.yul\":4374:4377   */\n      dup3\n        /* \"#utility.yul\":4367:4404   */\n      mstore\n        /* \"#utility.yul\":4292:4410   */\n      pop\n      pop\n      jump\t// out\n        /* \"#utility.yul\":4416:4638   */\n    tag_56:\n        /* \"#utility.yul\":4509:4513   */\n      0x00\n        /* \"#utility.yul\":4547:4549   */\n      0x20\n        /* \"#utility.yul\":4536:4545   */\n      dup3\n        /* \"#utility.yul\":4532:4550   */\n      add\n        /* \"#utility.yul\":4524:4550   */\n      swap1\n      pop\n        /* \"#utility.yul\":4560:4631   */\n      tag_442\n        /* \"#utility.yul\":4628:4629   */\n      0x00\n        /* \"#utility.yul\":4617:4626   */\n      dup4\n        /* \"#utility.yul\":4613:4630   */\n      add\n        /* \"#utility.yul\":4604:4610   */\n      dup5\n        /* \"#utility.yul\":4560:4631   */\n      tag_334\n      jump\t// in\n    tag_442:\n        /* \"#utility.yul\":4416:4638   */\n      swap3\n      swap2\n      pop\n      pop\n      jump\t// out\n        /* \"#utility.yul\":4644:4734   */\n    tag_335:\n        /* \"#utility.yul\":4678:4685   */\n      0x00\n        /* \"#utility.yul\":4721:4726   */\n      dup2\n        /* \"#utility.yul\":4714:4727   */\n      iszero\n        /* \"#utility.yul\":4707:4728   */\n      iszero\n        /* \"#utility.yul\":4696:4728   */\n      swap1\n      pop\n        /* \"#utility.yul\":4644:4734   */\n      swap2\n      swap1\n      pop\n      jump\t// out\n        /* \"#utility.yul\":4740:4856   */\n    tag_336:\n        /* \"#utility.yul\":4810:4831   */\n      tag_445\n        /* \"#utility.yul\":4825:4830   */\n      dup2\n        /* \"#utility.yul\":4810:4831   */\n      tag_335\n      jump\t// in\n    tag_445:\n        /* \"#utility.yul\":4803:4808   */\n      dup2\n        /* \"#utility.yul\":4800:4832   */\n      eq\n        /* \"#utility.yul\":4790:4850   */\n      tag_446\n      jumpi\n        /* \"#utility.yul\":4846:4847   */\n      0x00\n        /* \"#utility.yul\":4843:4844   */\n      dup1\n        /* \"#utility.yul\":4836:4848   */\n      revert\n        /* \"#utility.yul\":4790:4850   */\n    tag_446:\n        /* \"#utility.yul\":4740:4856   */\n      pop\n      jump\t// out\n        /* \"#utility.yul\":4862:4995   */\n    tag_337:\n        /* \"#utility.yul\":4905:4910   */\n      0x00\n        /* \"#utility.yul\":4943:4949   */\n      dup2\n        /* \"#utility.yul\":4930:4950   */\n      calldataload\n        /* \"#utility.yul\":4921:4950   */\n      swap1\n      pop\n        /* \"#utility.yul\":4959:4989   */\n      tag_448\n        /* \"#utility.yul\":4983:4988   */\n      dup2\n        /* \"#utility.yul\":4959:4989   */\n      tag_336\n      jump\t// in\n    tag_448:\n        /* \"#utility.yul\":4862:4995   */\n      swap3\n      swap2\n      pop\n      pop\n      jump\t// out\n        /* \"#utility.yul\":5001:5469   */\n    tag_59:\n        /* \"#utility.yul\":5066:5072   */\n      0x00\n        /* \"#utility.yul\":5074:5080   */\n      dup1\n        /* \"#utility.yul\":5123:5125   */\n      0x40\n        /* \"#utility.yul\":5111:5120   */\n      dup4\n        /* \"#utility.yul\":5102:5109   */\n      dup6\n        /* \"#utility.yul\":5098:5121   */\n      sub\n        /* \"#utility.yul\":5094:5126   */\n      slt\n        /* \"#utility.yul\":5091:5210   */\n      iszero\n      tag_450\n      jumpi\n        /* \"#utility.yul\":5129:5208   */\n      tag_451\n      tag_320\n      jump\t// in\n    tag_451:\n        /* \"#utility.yul\":5091:5210   */\n    tag_450:\n        /* \"#utility.yul\":5249:5250   */\n      0x00\n        /* \"#utility.yul\":5274:5327   */\n      tag_452\n        /* \"#utility.yul\":5319:5326   */\n      dup6\n        /* \"#utility.yul\":5310:5316   */\n      dup3\n        /* \"#utility.yul\":5299:5308   */\n      dup7\n        /* \"#utility.yul\":5295:5317   */\n      add\n        /* \"#utility.yul\":5274:5327   */\n      tag_325\n      jump\t// in\n    tag_452:\n        /* \"#utility.yul\":5264:5327   */\n      swap3\n      pop\n        /* \"#utility.yul\":5220:5337   */\n      pop\n        /* \"#utility.yul\":5376:5378   */\n      0x20\n        /* \"#utility.yul\":5402:5452   */\n      tag_453\n        /* \"#utility.yul\":5444:5451   */\n      dup6\n        /* \"#utility.yul\":5435:5441   */\n      dup3\n        /* \"#utility.yul\":5424:5433   */\n      dup7\n        /* \"#utility.yul\":5420:5442   */\n      add\n        /* \"#utility.yul\":5402:5452   */\n      tag_337\n      jump\t// in\n    tag_453:\n        /* \"#utility.yul\":5392:5452   */\n      swap2\n      pop\n        /* \"#utility.yul\":5347:5462   */\n      pop\n        /* \"#utility.yul\":5001:5469   */\n      swap3\n      pop\n      swap3\n      swap1\n      pop\n      jump\t// out\n        /* \"#utility.yul\":5475:5592   */\n    tag_338:\n        /* \"#utility.yul\":5584:5585   */\n      0x00\n        /* \"#utility.yul\":5581:5582   */\n      dup1\n        /* \"#utility.yul\":5574:5586   */\n      revert\n        /* \"#utility.yul\":5598:5715   */\n    tag_339:\n        /* \"#utility.yul\":5707:5708   */\n      0x00\n        /* \"#utility.yul\":5704:5705   */\n      dup1\n        /* \"#utility.yul\":5697:5709   */\n      revert\n        /* \"#utility.yul\":5721:5823   */\n    tag_340:\n        /* \"#utility.yul\":5762:5768   */\n      0x00\n        /* \"#utility.yul\":5813:5815   */\n      0x1f\n        /* \"#utility.yul\":5809:5816   */\n      not\n        /* \"#utility.yul\":5804:5806   */\n      0x1f\n        /* \"#utility.yul\":5797:5802   */\n      dup4\n        /* \"#utility.yul\":5793:5807   */\n      add\n        /* \"#utility.yul\":5789:5817   */\n      and\n        /* \"#utility.yul\":5779:5817   */\n      swap1\n      pop\n        /* \"#utility.yul\":5721:5823   */\n      swap2\n      swap1\n      pop\n      jump\t// out\n        /* \"#utility.yul\":5829:6009   */\n    tag_288:\n        /* \"#utility.yul\":5877:5954   */\n      0x4e487b7100000000000000000000000000000000000000000000000000000000\n        /* \"#utility.yul\":5874:5875   */\n      0x00\n        /* \"#utility.yul\":5867:5955   */\n      mstore\n        /* \"#utility.yul\":5974:5978   */\n      0x41\n        /* \"#utility.yul\":5971:5972   */\n      0x04\n        /* \"#utility.yul\":5964:5979   */\n      mstore\n        /* \"#utility.yul\":5998:6002   */\n      0x24\n        /* \"#utility.yul\":5995:5996   */\n      0x00\n        /* \"#utility.yul\":5988:6003   */\n      revert\n        /* \"#utility.yul\":6015:6296   */\n    tag_341:\n        /* \"#utility.yul\":6098:6125   */\n      tag_459\n        /* \"#utility.yul\":6120:6124   */\n      dup3\n        /* \"#utility.yul\":6098:6125   */\n      tag_340\n      jump\t// in\n    tag_459:\n        /* \"#utility.yul\":6090:6096   */\n      dup2\n        /* \"#utility.yul\":6086:6126   */\n      add\n        /* \"#utility.yul\":6228:6234   */\n      dup2\n        /* \"#utility.yul\":6216:6226   */\n      dup2\n        /* \"#utility.yul\":6213:6235   */\n      lt\n        /* \"#utility.yul\":6192:6210   */\n      0xffffffffffffffff\n        /* \"#utility.yul\":6180:6190   */\n      dup3\n        /* \"#utility.yul\":6177:6211   */\n      gt\n        /* \"#utility.yul\":6174:6236   */\n      or\n        /* \"#utility.yul\":6171:6259   */\n      iszero\n      tag_460\n      jumpi\n        /* \"#utility.yul\":6239:6257   */\n      tag_461\n      tag_288\n      jump\t// in\n    tag_461:\n        /* \"#utility.yul\":6171:6259   */\n    tag_460:\n        /* \"#utility.yul\":6279:6289   */\n      dup1\n        /* \"#utility.yul\":6275:6277   */\n      0x40\n        /* \"#utility.yul\":6268:6290   */\n      mstore\n        /* \"#utility.yul\":6058:6296   */\n      pop\n        /* \"#utility.yul\":6015:6296   */\n      pop\n      pop\n      jump\t// out\n        /* \"#utility.yul\":6302:6431   */\n    tag_342:\n        /* \"#utility.yul\":6336:6342   */\n      0x00\n        /* \"#utility.yul\":6363:6383   */\n      tag_463\n      tag_319\n      jump\t// in\n    tag_463:\n        /* \"#utility.yul\":6353:6383   */\n      swap1\n      pop\n        /* \"#utility.yul\":6392:6425   */\n      tag_464\n        /* \"#utility.yul\":6420:6424   */\n      dup3\n        /* \"#utility.yul\":6412:6418   */\n      dup3\n        /* \"#utility.yul\":6392:6425   */\n      tag_341\n      jump\t// in\n    tag_464:\n        /* \"#utility.yul\":6302:6431   */\n      swap2\n      swap1\n      pop\n      jump\t// out\n        /* \"#utility.yul\":6437:6744   */\n    tag_343:\n        /* \"#utility.yul\":6498:6502   */\n      0x00\n        /* \"#utility.yul\":6588:6606   */\n      0xffffffffffffffff\n        /* \"#utility.yul\":6580:6586   */\n      dup3\n        /* \"#utility.yul\":6577:6607   */\n      gt\n        /* \"#utility.yul\":6574:6630   */\n      iszero\n      tag_466\n      jumpi\n        /* \"#utility.yul\":6610:6628   */\n      tag_467\n      tag_288\n      jump\t// in\n    tag_467:\n        /* \"#utility.yul\":6574:6630   */\n    tag_466:\n        /* \"#utility.yul\":6648:6677   */\n      tag_468\n        /* \"#utility.yul\":6670:6676   */\n      dup3\n        /* \"#utility.yul\":6648:6677   */\n      tag_340\n      jump\t// in\n    tag_468:\n        /* \"#utility.yul\":6640:6677   */\n      swap1\n      pop\n        /* \"#utility.yul\":6732:6736   */\n      0x20\n        /* \"#utility.yul\":6726:6730   */\n      dup2\n        /* \"#utility.yul\":6722:6737   */\n      add\n        /* \"#utility.yul\":6714:6737   */\n      swap1\n      pop\n        /* \"#utility.yul\":6437:6744   */\n      swap2\n      swap1\n      pop\n      jump\t// out\n        /* \"#utility.yul\":6750:6896   */\n    tag_344:\n        /* \"#utility.yul\":6847:6853   */\n      dup3\n        /* \"#utility.yul\":6842:6845   */\n      dup2\n        /* \"#utility.yul\":6837:6840   */\n      dup4\n        /* \"#utility.yul\":6824:6854   */\n      calldatacopy\n        /* \"#utility.yul\":6888:6889   */\n      0x00\n        /* \"#utility.yul\":6879:6885   */\n      dup4\n        /* \"#utility.yul\":6874:6877   */\n      dup4\n        /* \"#utility.yul\":6870:6886   */\n      add\n        /* \"#utility.yul\":6863:6890   */\n      mstore\n        /* \"#utility.yul\":6750:6896   */\n      pop\n      pop\n      pop\n      jump\t// out\n        /* \"#utility.yul\":6902:7325   */\n    tag_345:\n        /* \"#utility.yul\":6979:6984   */\n      0x00\n        /* \"#utility.yul\":7004:7069   */\n      tag_471\n        /* \"#utility.yul\":7020:7068   */\n      tag_472\n        /* \"#utility.yul\":7061:7067   */\n      dup5\n        /* \"#utility.yul\":7020:7068   */\n      tag_343\n      jump\t// in\n    tag_472:\n        /* \"#utility.yul\":7004:7069   */\n      tag_342\n      jump\t// in\n    tag_471:\n        /* \"#utility.yul\":6995:7069   */\n      swap1\n      pop\n        /* \"#utility.yul\":7092:7098   */\n      dup3\n        /* \"#utility.yul\":7085:7090   */\n      dup2\n        /* \"#utility.yul\":7078:7099   */\n      mstore\n        /* \"#utility.yul\":7130:7134   */\n      0x20\n        /* \"#utility.yul\":7123:7128   */\n      dup2\n        /* \"#utility.yul\":7119:7135   */\n      add\n        /* \"#utility.yul\":7168:7171   */\n      dup5\n        /* \"#utility.yul\":7159:7165   */\n      dup5\n        /* \"#utility.yul\":7154:7157   */\n      dup5\n        /* \"#utility.yul\":7150:7166   */\n      add\n        /* \"#utility.yul\":7147:7172   */\n      gt\n        /* \"#utility.yul\":7144:7256   */\n      iszero\n      tag_473\n      jumpi\n        /* \"#utility.yul\":7175:7254   */\n      tag_474\n      tag_339\n      jump\t// in\n    tag_474:\n        /* \"#utility.yul\":7144:7256   */\n    tag_473:\n        /* \"#utility.yul\":7265:7319   */\n      tag_475\n        /* \"#utility.yul\":7312:7318   */\n      dup5\n        /* \"#utility.yul\":7307:7310   */\n      dup3\n        /* \"#utility.yul\":7302:7305   */\n      dup6\n        /* \"#utility.yul\":7265:7319   */\n      tag_344\n      jump\t// in\n    tag_475:\n        /* \"#utility.yul\":6985:7325   */\n      pop\n        /* \"#utility.yul\":6902:7325   */\n      swap4\n      swap3\n      pop\n      pop\n      pop\n      jump\t// out\n        /* \"#utility.yul\":7344:7682   */\n    tag_346:\n        /* \"#utility.yul\":7399:7404   */\n      0x00\n        /* \"#utility.yul\":7448:7451   */\n      dup3\n        /* \"#utility.yul\":7441:7445   */\n      0x1f\n        /* \"#utility.yul\":7433:7439   */\n      dup4\n        /* \"#utility.yul\":7429:7446   */\n      add\n        /* \"#utility.yul\":7425:7452   */\n      slt\n        /* \"#utility.yul\":7415:7537   */\n      tag_477\n      jumpi\n        /* \"#utility.yul\":7456:7535   */\n      tag_478\n      tag_338\n      jump\t// in\n    tag_478:\n        /* \"#utility.yul\":7415:7537   */\n    tag_477:\n        /* \"#utility.yul\":7573:7579   */\n      dup2\n        /* \"#utility.yul\":7560:7580   */\n      calldataload\n        /* \"#utility.yul\":7598:7676   */\n      tag_479\n        /* \"#utility.yul\":7672:7675   */\n      dup5\n        /* \"#utility.yul\":7664:7670   */\n      dup3\n        /* \"#utility.yul\":7657:7661   */\n      0x20\n        /* \"#utility.yul\":7649:7655   */\n      dup7\n        /* \"#utility.yul\":7645:7662   */\n      add\n        /* \"#utility.yul\":7598:7676   */\n      tag_345\n      jump\t// in\n    tag_479:\n        /* \"#utility.yul\":7589:7676   */\n      swap2\n      pop\n        /* \"#utility.yul\":7405:7682   */\n      pop\n        /* \"#utility.yul\":7344:7682   */\n      swap3\n      swap2\n      pop\n      pop\n      jump\t// out\n        /* \"#utility.yul\":7688:8629   */\n    tag_63:\n        /* \"#utility.yul\":7782:7788   */\n      0x00\n        /* \"#utility.yul\":7790:7796   */\n      dup1\n        /* \"#utility.yul\":7798:7804   */\n      0x00\n        /* \"#utility.yul\":7806:7812   */\n      dup1\n        /* \"#utility.yul\":7855:7858   */\n      0x80\n        /* \"#utility.yul\":7843:7852   */\n      dup6\n        /* \"#utility.yul\":7834:7841   */\n      dup8\n        /* \"#utility.yul\":7830:7853   */\n      sub\n        /* \"#utility.yul\":7826:7859   */\n      slt\n        /* \"#utility.yul\":7823:7943   */\n      iszero\n      tag_481\n      jumpi\n        /* \"#utility.yul\":7862:7941   */\n      tag_482\n      tag_320\n      jump\t// in\n    tag_482:\n        /* \"#utility.yul\":7823:7943   */\n    tag_481:\n        /* \"#utility.yul\":7982:7983   */\n      0x00\n        /* \"#utility.yul\":8007:8060   */\n      tag_483\n        /* \"#utility.yul\":8052:8059   */\n      dup8\n        /* \"#utility.yul\":8043:8049   */\n      dup3\n        /* \"#utility.yul\":8032:8041   */\n      dup9\n        /* \"#utility.yul\":8028:8050   */\n      add\n        /* \"#utility.yul\":8007:8060   */\n      tag_325\n      jump\t// in\n    tag_483:\n        /* \"#utility.yul\":7997:8060   */\n      swap5\n      pop\n        /* \"#utility.yul\":7953:8070   */\n      pop\n        /* \"#utility.yul\":8109:8111   */\n      0x20\n        /* \"#utility.yul\":8135:8188   */\n      tag_484\n        /* \"#utility.yul\":8180:8187   */\n      dup8\n        /* \"#utility.yul\":8171:8177   */\n      dup3\n        /* \"#utility.yul\":8160:8169   */\n      dup9\n        /* \"#utility.yul\":8156:8178   */\n      add\n        /* \"#utility.yul\":8135:8188   */\n      tag_325\n      jump\t// in\n    tag_484:\n        /* \"#utility.yul\":8125:8188   */\n      swap4\n      pop\n        /* \"#utility.yul\":8080:8198   */\n      pop\n        /* \"#utility.yul\":8237:8239   */\n      0x40\n        /* \"#utility.yul\":8263:8315   */\n      tag_485\n        /* \"#utility.yul\":8307:8314   */\n      dup8\n        /* \"#utility.yul\":8298:8304   */\n      dup3\n        /* \"#utility.yul\":8287:8296   */\n      dup9\n        /* \"#utility.yul\":8283:8305   */\n      add\n        /* \"#utility.yul\":8263:8315   */\n      tag_328\n      jump\t// in\n    tag_485:\n        /* \"#utility.yul\":8253:8315   */\n      swap3\n      pop\n        /* \"#utility.yul\":8208:8325   */\n      pop\n        /* \"#utility.yul\":8392:8394   */\n      0x60\n        /* \"#utility.yul\":8381:8390   */\n      dup6\n        /* \"#utility.yul\":8377:8395   */\n      add\n        /* \"#utility.yul\":8364:8396   */\n      calldataload\n        /* \"#utility.yul\":8423:8441   */\n      0xffffffffffffffff\n        /* \"#utility.yul\":8415:8421   */\n      dup2\n        /* \"#utility.yul\":8412:8442   */\n      gt\n        /* \"#utility.yul\":8409:8526   */\n      iszero\n      tag_486\n      jumpi\n        /* \"#utility.yul\":8445:8524   */\n      tag_487\n      tag_321\n      jump\t// in\n    tag_487:\n        /* \"#utility.yul\":8409:8526   */\n    tag_486:\n        /* \"#utility.yul\":8550:8612   */\n      tag_488\n        /* \"#utility.yul\":8604:8611   */\n      dup8\n        /* \"#utility.yul\":8595:8601   */\n      dup3\n        /* \"#utility.yul\":8584:8593   */\n      dup9\n        /* \"#utility.yul\":8580:8602   */\n      add\n        /* \"#utility.yul\":8550:8612   */\n      tag_346\n      jump\t// in\n    tag_488:\n        /* \"#utility.yul\":8540:8612   */\n      swap2\n      pop\n        /* \"#utility.yul\":8335:8622   */\n      pop\n        /* \"#utility.yul\":7688:8629   */\n      swap3\n      swap6\n      swap2\n      swap5\n      pop\n      swap3\n      pop\n      jump\t// out\n        /* \"#utility.yul\":8635:8752   */\n    tag_347:\n        /* \"#utility.yul\":8744:8745   */\n      0x00\n        /* \"#utility.yul\":8741:8742   */\n      dup1\n        /* \"#utility.yul\":8734:8746   */\n      revert\n        /* \"#utility.yul\":8758:8875   */\n    tag_348:\n        /* \"#utility.yul\":8867:8868   */\n      0x00\n        /* \"#utility.yul\":8864:8865   */\n      dup1\n        /* \"#utility.yul\":8857:8869   */\n      revert\n        /* \"#utility.yul\":8894:9446   */\n    tag_349:\n        /* \"#utility.yul\":8951:8959   */\n      0x00\n        /* \"#utility.yul\":8961:8967   */\n      dup1\n        /* \"#utility.yul\":9011:9014   */\n      dup4\n        /* \"#utility.yul\":9004:9008   */\n      0x1f\n        /* \"#utility.yul\":8996:9002   */\n      dup5\n        /* \"#utility.yul\":8992:9009   */\n      add\n        /* \"#utility.yul\":8988:9015   */\n      slt\n        /* \"#utility.yul\":8978:9100   */\n      tag_492\n      jumpi\n        /* \"#utility.yul\":9019:9098   */\n      tag_493\n      tag_338\n      jump\t// in\n    tag_493:\n        /* \"#utility.yul\":8978:9100   */\n    tag_492:\n        /* \"#utility.yul\":9132:9138   */\n      dup3\n        /* \"#utility.yul\":9119:9139   */\n      calldataload\n        /* \"#utility.yul\":9109:9139   */\n      swap1\n      pop\n        /* \"#utility.yul\":9162:9180   */\n      0xffffffffffffffff\n        /* \"#utility.yul\":9154:9160   */\n      dup2\n        /* \"#utility.yul\":9151:9181   */\n      gt\n        /* \"#utility.yul\":9148:9265   */\n      iszero\n      tag_494\n      jumpi\n        /* \"#utility.yul\":9184:9263   */\n      tag_495\n      tag_347\n      jump\t// in\n    tag_495:\n        /* \"#utility.yul\":9148:9265   */\n    tag_494:\n        /* \"#utility.yul\":9298:9302   */\n      0x20\n        /* \"#utility.yul\":9290:9296   */\n      dup4\n        /* \"#utility.yul\":9286:9303   */\n      add\n        /* \"#utility.yul\":9274:9303   */\n      swap2\n      pop\n        /* \"#utility.yul\":9352:9355   */\n      dup4\n        /* \"#utility.yul\":9344:9348   */\n      0x01\n        /* \"#utility.yul\":9336:9342   */\n      dup3\n        /* \"#utility.yul\":9332:9349   */\n      mul\n        /* \"#utility.yul\":9322:9330   */\n      dup4\n        /* \"#utility.yul\":9318:9350   */\n      add\n        /* \"#utility.yul\":9315:9356   */\n      gt\n        /* \"#utility.yul\":9312:9440   */\n      iszero\n      tag_496\n      jumpi\n        /* \"#utility.yul\":9359:9438   */\n      tag_497\n      tag_348\n      jump\t// in\n    tag_497:\n        /* \"#utility.yul\":9312:9440   */\n    tag_496:\n        /* \"#utility.yul\":8894:9446   */\n      swap3\n      pop\n      swap3\n      swap1\n      pop\n      jump\t// out\n        /* \"#utility.yul\":9452:10413   */\n    tag_67:\n        /* \"#utility.yul\":9548:9554   */\n      0x00\n        /* \"#utility.yul\":9556:9562   */\n      dup1\n        /* \"#utility.yul\":9564:9570   */\n      0x00\n        /* \"#utility.yul\":9572:9578   */\n      dup1\n        /* \"#utility.yul\":9580:9586   */\n      0x00\n        /* \"#utility.yul\":9629:9632   */\n      0x80\n        /* \"#utility.yul\":9617:9626   */\n      dup7\n        /* \"#utility.yul\":9608:9615   */\n      dup9\n        /* \"#utility.yul\":9604:9627   */\n      sub\n        /* \"#utility.yul\":9600:9633   */\n      slt\n        /* \"#utility.yul\":9597:9717   */\n      iszero\n      tag_499\n      jumpi\n        /* \"#utility.yul\":9636:9715   */\n      tag_500\n      tag_320\n      jump\t// in\n    tag_500:\n        /* \"#utility.yul\":9597:9717   */\n    tag_499:\n        /* \"#utility.yul\":9756:9757   */\n      0x00\n        /* \"#utility.yul\":9781:9834   */\n      tag_501\n        /* \"#utility.yul\":9826:9833   */\n      dup9\n        /* \"#utility.yul\":9817:9823   */\n      dup3\n        /* \"#utility.yul\":9806:9815   */\n      dup10\n        /* \"#utility.yul\":9802:9824   */\n      add\n        /* \"#utility.yul\":9781:9834   */\n      tag_325\n      jump\t// in\n    tag_501:\n        /* \"#utility.yul\":9771:9834   */\n      swap6\n      pop\n        /* \"#utility.yul\":9727:9844   */\n      pop\n        /* \"#utility.yul\":9883:9885   */\n      0x20\n        /* \"#utility.yul\":9909:9962   */\n      tag_502\n        /* \"#utility.yul\":9954:9961   */\n      dup9\n        /* \"#utility.yul\":9945:9951   */\n      dup3\n        /* \"#utility.yul\":9934:9943   */\n      dup10\n        /* \"#utility.yul\":9930:9952   */\n      add\n        /* \"#utility.yul\":9909:9962   */\n      tag_325\n      jump\t// in\n    tag_502:\n        /* \"#utility.yul\":9899:9962   */\n      swap5\n      pop\n        /* \"#utility.yul\":9854:9972   */\n      pop\n        /* \"#utility.yul\":10011:10013   */\n      0x40\n        /* \"#utility.yul\":10037:10089   */\n      tag_503\n        /* \"#utility.yul\":10081:10088   */\n      dup9\n        /* \"#utility.yul\":10072:10078   */\n      dup3\n        /* \"#utility.yul\":10061:10070   */\n      dup10\n        /* \"#utility.yul\":10057:10079   */\n      add\n        /* \"#utility.yul\":10037:10089   */\n      tag_328\n      jump\t// in\n    tag_503:\n        /* \"#utility.yul\":10027:10089   */\n      swap4\n      pop\n        /* \"#utility.yul\":9982:10099   */\n      pop\n        /* \"#utility.yul\":10166:10168   */\n      0x60\n        /* \"#utility.yul\":10155:10164   */\n      dup7\n        /* \"#utility.yul\":10151:10169   */\n      add\n        /* \"#utility.yul\":10138:10170   */\n      calldataload\n        /* \"#utility.yul\":10197:10215   */\n      0xffffffffffffffff\n        /* \"#utility.yul\":10189:10195   */\n      dup2\n        /* \"#utility.yul\":10186:10216   */\n      gt\n        /* \"#utility.yul\":10183:10300   */\n      iszero\n      tag_504\n      jumpi\n        /* \"#utility.yul\":10219:10298   */\n      tag_505\n      tag_321\n      jump\t// in\n    tag_505:\n        /* \"#utility.yul\":10183:10300   */\n    tag_504:\n        /* \"#utility.yul\":10332:10396   */\n      tag_506\n        /* \"#utility.yul\":10388:10395   */\n      dup9\n        /* \"#utility.yul\":10379:10385   */\n      dup3\n        /* \"#utility.yul\":10368:10377   */\n      dup10\n        /* \"#utility.yul\":10364:10386   */\n      add\n        /* \"#utility.yul\":10332:10396   */\n      tag_349\n      jump\t// in\n    tag_506:\n        /* \"#utility.yul\":10314:10396   */\n      swap3\n      pop\n      swap3\n      pop\n        /* \"#utility.yul\":10109:10406   */\n      pop\n        /* \"#utility.yul\":9452:10413   */\n      swap3\n      swap6\n      pop\n      swap3\n      swap6\n      swap1\n      swap4\n      pop\n      jump\t// out\n        /* \"#utility.yul\":10419:10568   */\n    tag_350:\n        /* \"#utility.yul\":10455:10462   */\n      0x00\n        /* \"#utility.yul\":10495:10561   */\n      0xffffffff00000000000000000000000000000000000000000000000000000000\n        /* \"#utility.yul\":10488:10493   */\n      dup3\n        /* \"#utility.yul\":10484:10562   */\n      and\n        /* \"#utility.yul\":10473:10562   */\n      swap1\n      pop\n        /* \"#utility.yul\":10419:10568   */\n      swap2\n      swap1\n      pop\n      jump\t// out\n        /* \"#utility.yul\":10574:10689   */\n    tag_351:\n        /* \"#utility.yul\":10659:10682   */\n      tag_509\n        /* \"#utility.yul\":10676:10681   */\n      dup2\n        /* \"#utility.yul\":10659:10682   */\n      tag_350\n      jump\t// in\n    tag_509:\n        /* \"#utility.yul\":10654:10657   */\n      dup3\n        /* \"#utility.yul\":10647:10683   */\n      mstore\n        /* \"#utility.yul\":10574:10689   */\n      pop\n      pop\n      jump\t// out\n        /* \"#utility.yul\":10695:10913   */\n    tag_70:\n        /* \"#utility.yul\":10786:10790   */\n      0x00\n        /* \"#utility.yul\":10824:10826   */\n      0x20\n        /* \"#utility.yul\":10813:10822   */\n      dup3\n        /* \"#utility.yul\":10809:10827   */\n      add\n        /* \"#utility.yul\":10801:10827   */\n      swap1\n      pop\n        /* \"#utility.yul\":10837:10906   */\n      tag_511\n        /* \"#utility.yul\":10903:10904   */\n      0x00\n        /* \"#utility.yul\":10892:10901   */\n      dup4\n        /* \"#utility.yul\":10888:10905   */\n      add\n        /* \"#utility.yul\":10879:10885   */\n      dup5\n        /* \"#utility.yul\":10837:10906   */\n      tag_351\n      jump\t// in\n    tag_511:\n        /* \"#utility.yul\":10695:10913   */\n      swap3\n      swap2\n      pop\n      pop\n      jump\t// out\n        /* \"#utility.yul\":10919:11018   */\n    tag_352:\n        /* \"#utility.yul\":10971:10977   */\n      0x00\n        /* \"#utility.yul\":11005:11010   */\n      dup2\n        /* \"#utility.yul\":10999:11011   */\n      mload\n        /* \"#utility.yul\":10989:11011   */\n      swap1\n      pop\n        /* \"#utility.yul\":10919:11018   */\n      swap2\n      swap1\n      pop\n      jump\t// out\n        /* \"#utility.yul\":11024:11193   */\n    tag_353:\n        /* \"#utility.yul\":11108:11119   */\n      0x00\n        /* \"#utility.yul\":11142:11148   */\n      dup3\n        /* \"#utility.yul\":11137:11140   */\n      dup3\n        /* \"#utility.yul\":11130:11149   */\n      mstore\n        /* \"#utility.yul\":11182:11186   */\n      0x20\n        /* \"#utility.yul\":11177:11180   */\n      dup3\n        /* \"#utility.yul\":11173:11187   */\n      add\n        /* \"#utility.yul\":11158:11187   */\n      swap1\n      pop\n        /* \"#utility.yul\":11024:11193   */\n      swap3\n      swap2\n      pop\n      pop\n      jump\t// out\n        /* \"#utility.yul\":11199:11445   */\n    tag_354:\n        /* \"#utility.yul\":11280:11281   */\n      0x00\n        /* \"#utility.yul\":11290:11403   */\n    tag_515:\n        /* \"#utility.yul\":11304:11310   */\n      dup4\n        /* \"#utility.yul\":11301:11302   */\n      dup2\n        /* \"#utility.yul\":11298:11311   */\n      lt\n        /* \"#utility.yul\":11290:11403   */\n      iszero\n      tag_517\n      jumpi\n        /* \"#utility.yul\":11389:11390   */\n      dup1\n        /* \"#utility.yul\":11384:11387   */\n      dup3\n        /* \"#utility.yul\":11380:11391   */\n      add\n        /* \"#utility.yul\":11374:11392   */\n      mload\n        /* \"#utility.yul\":11370:11371   */\n      dup2\n        /* \"#utility.yul\":11365:11368   */\n      dup5\n        /* \"#utility.yul\":11361:11372   */\n      add\n        /* \"#utility.yul\":11354:11393   */\n      mstore\n        /* \"#utility.yul\":11326:11328   */\n      0x20\n        /* \"#utility.yul\":11323:11324   */\n      dup2\n        /* \"#utility.yul\":11319:11329   */\n      add\n        /* \"#utility.yul\":11314:11329   */\n      swap1\n      pop\n        /* \"#utility.yul\":11290:11403   */\n      jump(tag_515)\n    tag_517:\n        /* \"#utility.yul\":11437:11438   */\n      0x00\n        /* \"#utility.yul\":11428:11434   */\n      dup5\n        /* \"#utility.yul\":11423:11426   */\n      dup5\n        /* \"#utility.yul\":11419:11435   */\n      add\n        /* \"#utility.yul\":11412:11439   */\n      mstore\n        /* \"#utility.yul\":11261:11445   */\n      pop\n        /* \"#utility.yul\":11199:11445   */\n      pop\n      pop\n      pop\n      jump\t// out\n        /* \"#utility.yul\":11451:11828   */\n    tag_355:\n        /* \"#utility.yul\":11539:11542   */\n      0x00\n        /* \"#utility.yul\":11567:11606   */\n      tag_519\n        /* \"#utility.yul\":11600:11605   */\n      dup3\n        /* \"#utility.yul\":11567:11606   */\n      tag_352\n      jump\t// in\n    tag_519:\n        /* \"#utility.yul\":11622:11693   */\n      tag_520\n        /* \"#utility.yul\":11686:11692   */\n      dup2\n        /* \"#utility.yul\":11681:11684   */\n      dup6\n        /* \"#utility.yul\":11622:11693   */\n      tag_353\n      jump\t// in\n    tag_520:\n        /* \"#utility.yul\":11615:11693   */\n      swap4\n      pop\n        /* \"#utility.yul\":11702:11767   */\n      tag_521\n        /* \"#utility.yul\":11760:11766   */\n      dup2\n        /* \"#utility.yul\":11755:11758   */\n      dup6\n        /* \"#utility.yul\":11748:11752   */\n      0x20\n        /* \"#utility.yul\":11741:11746   */\n      dup7\n        /* \"#utility.yul\":11737:11753   */\n      add\n        /* \"#utility.yul\":11702:11767   */\n      tag_354\n      jump\t// in\n    tag_521:\n        /* \"#utility.yul\":11792:11821   */\n      tag_522\n        /* \"#utility.yul\":11814:11820   */\n      dup2\n        /* \"#utility.yul\":11792:11821   */\n      tag_340\n      jump\t// in\n    tag_522:\n        /* \"#utility.yul\":11787:11790   */\n      dup5\n        /* \"#utility.yul\":11783:11822   */\n      add\n        /* \"#utility.yul\":11776:11822   */\n      swap2\n      pop\n        /* \"#utility.yul\":11543:11828   */\n      pop\n        /* \"#utility.yul\":11451:11828   */\n      swap3\n      swap2\n      pop\n      pop\n      jump\t// out\n        /* \"#utility.yul\":11834:12147   */\n    tag_75:\n        /* \"#utility.yul\":11947:11951   */\n      0x00\n        /* \"#utility.yul\":11985:11987   */\n      0x20\n        /* \"#utility.yul\":11974:11983   */\n      dup3\n        /* \"#utility.yul\":11970:11988   */\n      add\n        /* \"#utility.yul\":11962:11988   */\n      swap1\n      pop\n        /* \"#utility.yul\":12034:12043   */\n      dup2\n        /* \"#utility.yul\":12028:12032   */\n      dup2\n        /* \"#utility.yul\":12024:12044   */\n      sub\n        /* \"#utility.yul\":12020:12021   */\n      0x00\n        /* \"#utility.yul\":12009:12018   */\n      dup4\n        /* \"#utility.yul\":12005:12022   */\n      add\n        /* \"#utility.yul\":11998:12045   */\n      mstore\n        /* \"#utility.yul\":12062:12140   */\n      tag_524\n        /* \"#utility.yul\":12135:12139   */\n      dup2\n        /* \"#utility.yul\":12126:12132   */\n      dup5\n        /* \"#utility.yul\":12062:12140   */\n      tag_355\n      jump\t// in\n    tag_524:\n        /* \"#utility.yul\":12054:12140   */\n      swap1\n      pop\n        /* \"#utility.yul\":11834:12147   */\n      swap3\n      swap2\n      pop\n      pop\n      jump\t// out\n        /* \"#utility.yul\":12153:12625   */\n    tag_78:\n        /* \"#utility.yul\":12220:12226   */\n      0x00\n        /* \"#utility.yul\":12228:12234   */\n      dup1\n        /* \"#utility.yul\":12277:12279   */\n      0x40\n        /* \"#utility.yul\":12265:12274   */\n      dup4\n        /* \"#utility.yul\":12256:12263   */\n      dup6\n        /* \"#utility.yul\":12252:12275   */\n      sub\n        /* \"#utility.yul\":12248:12280   */\n      slt\n        /* \"#utility.yul\":12245:12364   */\n      iszero\n      tag_526\n      jumpi\n        /* \"#utility.yul\":12283:12362   */\n      tag_527\n      tag_320\n      jump\t// in\n    tag_527:\n        /* \"#utility.yul\":12245:12364   */\n    tag_526:\n        /* \"#utility.yul\":12403:12404   */\n      0x00\n        /* \"#utility.yul\":12428:12481   */\n      tag_528\n        /* \"#utility.yul\":12473:12480   */\n      dup6\n        /* \"#utility.yul\":12464:12470   */\n      dup3\n        /* \"#utility.yul\":12453:12462   */\n      dup7\n        /* \"#utility.yul\":12449:12471   */\n      add\n        /* \"#utility.yul\":12428:12481   */\n      tag_325\n      jump\t// in\n    tag_528:\n        /* \"#utility.yul\":12418:12481   */\n      swap3\n      pop\n        /* \"#utility.yul\":12374:12491   */\n      pop\n        /* \"#utility.yul\":12530:12532   */\n      0x20\n        /* \"#utility.yul\":12556:12608   */\n      tag_529\n        /* \"#utility.yul\":12600:12607   */\n      dup6\n        /* \"#utility.yul\":12591:12597   */\n      dup3\n        /* \"#utility.yul\":12580:12589   */\n      dup7\n        /* \"#utility.yul\":12576:12598   */\n      add\n        /* \"#utility.yul\":12556:12608   */\n      tag_328\n      jump\t// in\n    tag_529:\n        /* \"#utility.yul\":12546:12608   */\n      swap2\n      pop\n        /* \"#utility.yul\":12501:12618   */\n      pop\n        /* \"#utility.yul\":12153:12625   */\n      swap3\n      pop\n      swap3\n      swap1\n      pop\n      jump\t// out\n        /* \"#utility.yul\":12631:13105   */\n    tag_82:\n        /* \"#utility.yul\":12699:12705   */\n      0x00\n        /* \"#utility.yul\":12707:12713   */\n      dup1\n        /* \"#utility.yul\":12756:12758   */\n      0x40\n        /* \"#utility.yul\":12744:12753   */\n      dup4\n        /* \"#utility.yul\":12735:12742   */\n      dup6\n        /* \"#utility.yul\":12731:12754   */\n      sub\n        /* \"#utility.yul\":12727:12759   */\n      slt\n        /* \"#utility.yul\":12724:12843   */\n      iszero\n      tag_531\n      jumpi\n        /* \"#utility.yul\":12762:12841   */\n      tag_532\n      tag_320\n      jump\t// in\n    tag_532:\n        /* \"#utility.yul\":12724:12843   */\n    tag_531:\n        /* \"#utility.yul\":12882:12883   */\n      0x00\n        /* \"#utility.yul\":12907:12960   */\n      tag_533\n        /* \"#utility.yul\":12952:12959   */\n      dup6\n        /* \"#utility.yul\":12943:12949   */\n      dup3\n        /* \"#utility.yul\":12932:12941   */\n      dup7\n        /* \"#utility.yul\":12928:12950   */\n      add\n        /* \"#utility.yul\":12907:12960   */\n      tag_325\n      jump\t// in\n    tag_533:\n        /* \"#utility.yul\":12897:12960   */\n      swap3\n      pop\n        /* \"#utility.yul\":12853:12970   */\n      pop\n        /* \"#utility.yul\":13009:13011   */\n      0x20\n        /* \"#utility.yul\":13035:13088   */\n      tag_534\n        /* \"#utility.yul\":13080:13087   */\n      dup6\n        /* \"#utility.yul\":13071:13077   */\n      dup3\n        /* \"#utility.yul\":13060:13069   */\n      dup7\n        /* \"#utility.yul\":13056:13078   */\n      add\n        /* \"#utility.yul\":13035:13088   */\n      tag_325\n      jump\t// in\n    tag_534:\n        /* \"#utility.yul\":13025:13088   */\n      swap2\n      pop\n        /* \"#utility.yul\":12980:13098   */\n      pop\n        /* \"#utility.yul\":12631:13105   */\n      swap3\n      pop\n      swap3\n      swap1\n      pop\n      jump\t// out\n        /* \"#utility.yul\":13111:13220   */\n    tag_356:\n        /* \"#utility.yul\":13192:13213   */\n      tag_536\n        /* \"#utility.yul\":13207:13212   */\n      dup2\n        /* \"#utility.yul\":13192:13213   */\n      tag_335\n      jump\t// in\n    tag_536:\n        /* \"#utility.yul\":13187:13190   */\n      dup3\n        /* \"#utility.yul\":13180:13214   */\n      mstore\n        /* \"#utility.yul\":13111:13220   */\n      pop\n      pop\n      jump\t// out\n        /* \"#utility.yul\":13226:13436   */\n    tag_85:\n        /* \"#utility.yul\":13313:13317   */\n      0x00\n        /* \"#utility.yul\":13351:13353   */\n      0x20\n        /* \"#utility.yul\":13340:13349   */\n      dup3\n        /* \"#utility.yul\":13336:13354   */\n      add\n        /* \"#utility.yul\":13328:13354   */\n      swap1\n      pop\n        /* \"#utility.yul\":13364:13429   */\n      tag_538\n        /* \"#utility.yul\":13426:13427   */\n      0x00\n        /* \"#utility.yul\":13415:13424   */\n      dup4\n        /* \"#utility.yul\":13411:13428   */\n      add\n        /* \"#utility.yul\":13402:13408   */\n      dup5\n        /* \"#utility.yul\":13364:13429   */\n      tag_356\n      jump\t// in\n    tag_538:\n        /* \"#utility.yul\":13226:13436   */\n      swap3\n      swap2\n      pop\n      pop\n      jump\t// out\n        /* \"#utility.yul\":13442:13539   */\n    tag_357:\n        /* \"#utility.yul\":13478:13485   */\n      0x00\n        /* \"#utility.yul\":13518:13532   */\n      0xffffffffffff\n        /* \"#utility.yul\":13511:13516   */\n      dup3\n        /* \"#utility.yul\":13507:13533   */\n      and\n        /* \"#utility.yul\":13496:13533   */\n      swap1\n      pop\n        /* \"#utility.yul\":13442:13539   */\n      swap2\n      swap1\n      pop\n      jump\t// out\n        /* \"#utility.yul\":13545:13665   */\n    tag_358:\n        /* \"#utility.yul\":13617:13640   */\n      tag_541\n        /* \"#utility.yul\":13634:13639   */\n      dup2\n        /* \"#utility.yul\":13617:13640   */\n      tag_357\n      jump\t// in\n    tag_541:\n        /* \"#utility.yul\":13610:13615   */\n      dup2\n        /* \"#utility.yul\":13607:13641   */\n      eq\n        /* \"#utility.yul\":13597:13659   */\n      tag_542\n      jumpi\n        /* \"#utility.yul\":13655:13656   */\n      0x00\n        /* \"#utility.yul\":13652:13653   */\n      dup1\n        /* \"#utility.yul\":13645:13657   */\n      revert\n        /* \"#utility.yul\":13597:13659   */\n    tag_542:\n        /* \"#utility.yul\":13545:13665   */\n      pop\n      jump\t// out\n        /* \"#utility.yul\":13671:13808   */\n    tag_359:\n        /* \"#utility.yul\":13716:13721   */\n      0x00\n        /* \"#utility.yul\":13754:13760   */\n      dup2\n        /* \"#utility.yul\":13741:13761   */\n      calldataload\n        /* \"#utility.yul\":13732:13761   */\n      swap1\n      pop\n        /* \"#utility.yul\":13770:13802   */\n      tag_544\n        /* \"#utility.yul\":13796:13801   */\n      dup2\n        /* \"#utility.yul\":13770:13802   */\n      tag_358\n      jump\t// in\n    tag_544:\n        /* \"#utility.yul\":13671:13808   */\n      swap3\n      swap2\n      pop\n      pop\n      jump\t// out\n        /* \"#utility.yul\":13814:14429   */\n    tag_90:\n        /* \"#utility.yul\":13889:13895   */\n      0x00\n        /* \"#utility.yul\":13897:13903   */\n      dup1\n        /* \"#utility.yul\":13905:13911   */\n      0x00\n        /* \"#utility.yul\":13954:13956   */\n      0x60\n        /* \"#utility.yul\":13942:13951   */\n      dup5\n        /* \"#utility.yul\":13933:13940   */\n      dup7\n        /* \"#utility.yul\":13929:13952   */\n      sub\n        /* \"#utility.yul\":13925:13957   */\n      slt\n        /* \"#utility.yul\":13922:14041   */\n      iszero\n      tag_546\n      jumpi\n        /* \"#utility.yul\":13960:14039   */\n      tag_547\n      tag_320\n      jump\t// in\n    tag_547:\n        /* \"#utility.yul\":13922:14041   */\n    tag_546:\n        /* \"#utility.yul\":14080:14081   */\n      0x00\n        /* \"#utility.yul\":14105:14157   */\n      tag_548\n        /* \"#utility.yul\":14149:14156   */\n      dup7\n        /* \"#utility.yul\":14140:14146   */\n      dup3\n        /* \"#utility.yul\":14129:14138   */\n      dup8\n        /* \"#utility.yul\":14125:14147   */\n      add\n        /* \"#utility.yul\":14105:14157   */\n      tag_328\n      jump\t// in\n    tag_548:\n        /* \"#utility.yul\":14095:14157   */\n      swap4\n      pop\n        /* \"#utility.yul\":14051:14167   */\n      pop\n        /* \"#utility.yul\":14206:14208   */\n      0x20\n        /* \"#utility.yul\":14232:14284   */\n      tag_549\n        /* \"#utility.yul\":14276:14283   */\n      dup7\n        /* \"#utility.yul\":14267:14273   */\n      dup3\n        /* \"#utility.yul\":14256:14265   */\n      dup8\n        /* \"#utility.yul\":14252:14274   */\n      add\n        /* \"#utility.yul\":14232:14284   */\n      tag_359\n      jump\t// in\n    tag_549:\n        /* \"#utility.yul\":14222:14284   */\n      swap3\n      pop\n        /* \"#utility.yul\":14177:14294   */\n      pop\n        /* \"#utility.yul\":14333:14335   */\n      0x40\n        /* \"#utility.yul\":14359:14412   */\n      tag_550\n        /* \"#utility.yul\":14404:14411   */\n      dup7\n        /* \"#utility.yul\":14395:14401   */\n      dup3\n        /* \"#utility.yul\":14384:14393   */\n      dup8\n        /* \"#utility.yul\":14380:14402   */\n      add\n        /* \"#utility.yul\":14359:14412   */\n      tag_325\n      jump\t// in\n    tag_550:\n        /* \"#utility.yul\":14349:14412   */\n      swap2\n      pop\n        /* \"#utility.yul\":14304:14422   */\n      pop\n        /* \"#utility.yul\":13814:14429   */\n      swap3\n      pop\n      swap3\n      pop\n      swap3\n      jump\t// out\n        /* \"#utility.yul\":14435:14615   */\n    tag_102:\n        /* \"#utility.yul\":14483:14560   */\n      0x4e487b7100000000000000000000000000000000000000000000000000000000\n        /* \"#utility.yul\":14480:14481   */\n      0x00\n        /* \"#utility.yul\":14473:14561   */\n      mstore\n        /* \"#utility.yul\":14580:14584   */\n      0x32\n        /* \"#utility.yul\":14577:14578   */\n      0x04\n        /* \"#utility.yul\":14570:14585   */\n      mstore\n        /* \"#utility.yul\":14604:14608   */\n      0x24\n        /* \"#utility.yul\":14601:14602   */\n      0x00\n        /* \"#utility.yul\":14594:14609   */\n      revert\n        /* \"#utility.yul\":14621:14854   */\n    tag_360:\n        /* \"#utility.yul\":14761:14795   */\n      0x546865207472616e73666572206f66207468697320746f6b656e206973206375\n        /* \"#utility.yul\":14757:14758   */\n      0x00\n        /* \"#utility.yul\":14749:14755   */\n      dup3\n        /* \"#utility.yul\":14745:14759   */\n      add\n        /* \"#utility.yul\":14738:14796   */\n      mstore\n        /* \"#utility.yul\":14830:14846   */\n      0x7272656e746c792062616e6e6564000000000000000000000000000000000000\n        /* \"#utility.yul\":14825:14827   */\n      0x20\n        /* \"#utility.yul\":14817:14823   */\n      dup3\n        /* \"#utility.yul\":14813:14828   */\n      add\n        /* \"#utility.yul\":14806:14847   */\n      mstore\n        /* \"#utility.yul\":14621:14854   */\n      pop\n      jump\t// out\n        /* \"#utility.yul\":14860:15226   */\n    tag_361:\n        /* \"#utility.yul\":15002:15005   */\n      0x00\n        /* \"#utility.yul\":15023:15090   */\n      tag_554\n        /* \"#utility.yul\":15087:15089   */\n      0x2e\n        /* \"#utility.yul\":15082:15085   */\n      dup4\n        /* \"#utility.yul\":15023:15090   */\n      tag_353\n      jump\t// in\n    tag_554:\n        /* \"#utility.yul\":15016:15090   */\n      swap2\n      pop\n        /* \"#utility.yul\":15099:15192   */\n      tag_555\n        /* \"#utility.yul\":15188:15191   */\n      dup3\n        /* \"#utility.yul\":15099:15192   */\n      tag_360\n      jump\t// in\n    tag_555:\n        /* \"#utility.yul\":15217:15219   */\n      0x40\n        /* \"#utility.yul\":15212:15215   */\n      dup3\n        /* \"#utility.yul\":15208:15220   */\n      add\n        /* \"#utility.yul\":15201:15220   */\n      swap1\n      pop\n        /* \"#utility.yul\":14860:15226   */\n      swap2\n      swap1\n      pop\n      jump\t// out\n        /* \"#utility.yul\":15232:15651   */\n    tag_106:\n        /* \"#utility.yul\":15398:15402   */\n      0x00\n        /* \"#utility.yul\":15436:15438   */\n      0x20\n        /* \"#utility.yul\":15425:15434   */\n      dup3\n        /* \"#utility.yul\":15421:15439   */\n      add\n        /* \"#utility.yul\":15413:15439   */\n      swap1\n      pop\n        /* \"#utility.yul\":15485:15494   */\n      dup2\n        /* \"#utility.yul\":15479:15483   */\n      dup2\n        /* \"#utility.yul\":15475:15495   */\n      sub\n        /* \"#utility.yul\":15471:15472   */\n      0x00\n        /* \"#utility.yul\":15460:15469   */\n      dup4\n        /* \"#utility.yul\":15456:15473   */\n      add\n        /* \"#utility.yul\":15449:15496   */\n      mstore\n        /* \"#utility.yul\":15513:15644   */\n      tag_557\n        /* \"#utility.yul\":15639:15643   */\n      dup2\n        /* \"#utility.yul\":15513:15644   */\n      tag_361\n      jump\t// in\n    tag_557:\n        /* \"#utility.yul\":15505:15644   */\n      swap1\n      pop\n        /* \"#utility.yul\":15232:15651   */\n      swap2\n      swap1\n      pop\n      jump\t// out\n        /* \"#utility.yul\":15657:15734   */\n    tag_362:\n        /* \"#utility.yul\":15694:15701   */\n      0x00\n        /* \"#utility.yul\":15723:15728   */\n      dup2\n        /* \"#utility.yul\":15712:15728   */\n      swap1\n      pop\n        /* \"#utility.yul\":15657:15734   */\n      swap2\n      swap1\n      pop\n      jump\t// out\n        /* \"#utility.yul\":15740:15800   */\n    tag_363:\n        /* \"#utility.yul\":15768:15771   */\n      0x00\n        /* \"#utility.yul\":15789:15794   */\n      dup2\n        /* \"#utility.yul\":15782:15794   */\n      swap1\n      pop\n        /* \"#utility.yul\":15740:15800   */\n      swap2\n      swap1\n      pop\n      jump\t// out\n        /* \"#utility.yul\":15806:15946   */\n    tag_364:\n        /* \"#utility.yul\":15855:15864   */\n      0x00\n        /* \"#utility.yul\":15888:15940   */\n      tag_561\n        /* \"#utility.yul\":15906:15939   */\n      tag_562\n        /* \"#utility.yul\":15915:15938   */\n      tag_563\n        /* \"#utility.yul\":15932:15937   */\n      dup5\n        /* \"#utility.yul\":15915:15938   */\n      tag_326\n      jump\t// in\n    tag_563:\n        /* \"#utility.yul\":15906:15939   */\n      tag_363\n      jump\t// in\n    tag_562:\n        /* \"#utility.yul\":15888:15940   */\n      tag_362\n      jump\t// in\n    tag_561:\n        /* \"#utility.yul\":15875:15940   */\n      swap1\n      pop\n        /* \"#utility.yul\":15806:15946   */\n      swap2\n      swap1\n      pop\n      jump\t// out\n        /* \"#utility.yul\":15952:16081   */\n    tag_365:\n        /* \"#utility.yul\":16038:16074   */\n      tag_565\n        /* \"#utility.yul\":16068:16073   */\n      dup2\n        /* \"#utility.yul\":16038:16074   */\n      tag_364\n      jump\t// in\n    tag_565:\n        /* \"#utility.yul\":16033:16036   */\n      dup3\n        /* \"#utility.yul\":16026:16075   */\n      mstore\n        /* \"#utility.yul\":15952:16081   */\n      pop\n      pop\n      jump\t// out\n        /* \"#utility.yul\":16087:16417   */\n    tag_118:\n        /* \"#utility.yul\":16207:16211   */\n      0x00\n        /* \"#utility.yul\":16245:16247   */\n      0x40\n        /* \"#utility.yul\":16234:16243   */\n      dup3\n        /* \"#utility.yul\":16230:16248   */\n      add\n        /* \"#utility.yul\":16222:16248   */\n      swap1\n      pop\n        /* \"#utility.yul\":16258:16329   */\n      tag_567\n        /* \"#utility.yul\":16326:16327   */\n      0x00\n        /* \"#utility.yul\":16315:16324   */\n      dup4\n        /* \"#utility.yul\":16311:16328   */\n      add\n        /* \"#utility.yul\":16302:16308   */\n      dup6\n        /* \"#utility.yul\":16258:16329   */\n      tag_332\n      jump\t// in\n    tag_567:\n        /* \"#utility.yul\":16339:16410   */\n      tag_568\n        /* \"#utility.yul\":16406:16408   */\n      0x20\n        /* \"#utility.yul\":16395:16404   */\n      dup4\n        /* \"#utility.yul\":16391:16409   */\n      add\n        /* \"#utility.yul\":16382:16388   */\n      dup5\n        /* \"#utility.yul\":16339:16410   */\n      tag_365\n      jump\t// in\n    tag_568:\n        /* \"#utility.yul\":16087:16417   */\n      swap4\n      swap3\n      pop\n      pop\n      pop\n      jump\t// out\n        /* \"#utility.yul\":16423:16863   */\n    tag_121:\n        /* \"#utility.yul\":16571:16575   */\n      0x00\n        /* \"#utility.yul\":16609:16611   */\n      0x60\n        /* \"#utility.yul\":16598:16607   */\n      dup3\n        /* \"#utility.yul\":16594:16612   */\n      add\n        /* \"#utility.yul\":16586:16612   */\n      swap1\n      pop\n        /* \"#utility.yul\":16622:16693   */\n      tag_570\n        /* \"#utility.yul\":16690:16691   */\n      0x00\n        /* \"#utility.yul\":16679:16688   */\n      dup4\n        /* \"#utility.yul\":16675:16692   */\n      add\n        /* \"#utility.yul\":16666:16672   */\n      dup7\n        /* \"#utility.yul\":16622:16693   */\n      tag_332\n      jump\t// in\n    tag_570:\n        /* \"#utility.yul\":16703:16774   */\n      tag_571\n        /* \"#utility.yul\":16770:16772   */\n      0x20\n        /* \"#utility.yul\":16759:16768   */\n      dup4\n        /* \"#utility.yul\":16755:16773   */\n      add\n        /* \"#utility.yul\":16746:16752   */\n      dup6\n        /* \"#utility.yul\":16703:16774   */\n      tag_365\n      jump\t// in\n    tag_571:\n        /* \"#utility.yul\":16784:16856   */\n      tag_572\n        /* \"#utility.yul\":16852:16854   */\n      0x40\n        /* \"#utility.yul\":16841:16850   */\n      dup4\n        /* \"#utility.yul\":16837:16855   */\n      add\n        /* \"#utility.yul\":16828:16834   */\n      dup5\n        /* \"#utility.yul\":16784:16856   */\n      tag_332\n      jump\t// in\n    tag_572:\n        /* \"#utility.yul\":16423:16863   */\n      swap5\n      swap4\n      pop\n      pop\n      pop\n      pop\n      jump\t// out\n        /* \"#utility.yul\":16869:17051   */\n    tag_366:\n        /* \"#utility.yul\":17009:17043   */\n      0x54686520696e70757420616464726573732063616e6e6f74206265207a65726f\n        /* \"#utility.yul\":17005:17006   */\n      0x00\n        /* \"#utility.yul\":16997:17003   */\n      dup3\n        /* \"#utility.yul\":16993:17007   */\n      add\n        /* \"#utility.yul\":16986:17044   */\n      mstore\n        /* \"#utility.yul\":16869:17051   */\n      pop\n      jump\t// out\n        /* \"#utility.yul\":17057:17423   */\n    tag_367:\n        /* \"#utility.yul\":17199:17202   */\n      0x00\n        /* \"#utility.yul\":17220:17287   */\n      tag_575\n        /* \"#utility.yul\":17284:17286   */\n      0x20\n        /* \"#utility.yul\":17279:17282   */\n      dup4\n        /* \"#utility.yul\":17220:17287   */\n      tag_353\n      jump\t// in\n    tag_575:\n        /* \"#utility.yul\":17213:17287   */\n      swap2\n      pop\n        /* \"#utility.yul\":17296:17389   */\n      tag_576\n        /* \"#utility.yul\":17385:17388   */\n      dup3\n        /* \"#utility.yul\":17296:17389   */\n      tag_366\n      jump\t// in\n    tag_576:\n        /* \"#utility.yul\":17414:17416   */\n      0x20\n        /* \"#utility.yul\":17409:17412   */\n      dup3\n        /* \"#utility.yul\":17405:17417   */\n      add\n        /* \"#utility.yul\":17398:17417   */\n      swap1\n      pop\n        /* \"#utility.yul\":17057:17423   */\n      swap2\n      swap1\n      pop\n      jump\t// out\n        /* \"#utility.yul\":17429:17848   */\n    tag_130:\n        /* \"#utility.yul\":17595:17599   */\n      0x00\n        /* \"#utility.yul\":17633:17635   */\n      0x20\n        /* \"#utility.yul\":17622:17631   */\n      dup3\n        /* \"#utility.yul\":17618:17636   */\n      add\n        /* \"#utility.yul\":17610:17636   */\n      swap1\n      pop\n        /* \"#utility.yul\":17682:17691   */\n      dup2\n        /* \"#utility.yul\":17676:17680   */\n      dup2\n        /* \"#utility.yul\":17672:17692   */\n      sub\n        /* \"#utility.yul\":17668:17669   */\n      0x00\n        /* \"#utility.yul\":17657:17666   */\n      dup4\n        /* \"#utility.yul\":17653:17670   */\n      add\n        /* \"#utility.yul\":17646:17693   */\n      mstore\n        /* \"#utility.yul\":17710:17841   */\n      tag_578\n        /* \"#utility.yul\":17836:17840   */\n      dup2\n        /* \"#utility.yul\":17710:17841   */\n      tag_367\n      jump\t// in\n    tag_578:\n        /* \"#utility.yul\":17702:17841   */\n      swap1\n      pop\n        /* \"#utility.yul\":17429:17848   */\n      swap2\n      swap1\n      pop\n      jump\t// out\n        /* \"#utility.yul\":17854:18100   */\n    tag_368:\n        /* \"#utility.yul\":17994:18028   */\n      0x5468652061646472657373206f6620746865206f776e657220616e6420746865\n        /* \"#utility.yul\":17990:17991   */\n      0x00\n        /* \"#utility.yul\":17982:17988   */\n      dup3\n        /* \"#utility.yul\":17978:17992   */\n      add\n        /* \"#utility.yul\":17971:18029   */\n      mstore\n        /* \"#utility.yul\":18063:18092   */\n      0x206f70657261746f72206d75737420626520646966666572656e740000000000\n        /* \"#utility.yul\":18058:18060   */\n      0x20\n        /* \"#utility.yul\":18050:18056   */\n      dup3\n        /* \"#utility.yul\":18046:18061   */\n      add\n        /* \"#utility.yul\":18039:18093   */\n      mstore\n        /* \"#utility.yul\":17854:18100   */\n      pop\n      jump\t// out\n        /* \"#utility.yul\":18106:18472   */\n    tag_369:\n        /* \"#utility.yul\":18248:18251   */\n      0x00\n        /* \"#utility.yul\":18269:18336   */\n      tag_581\n        /* \"#utility.yul\":18333:18335   */\n      0x3b\n        /* \"#utility.yul\":18328:18331   */\n      dup4\n        /* \"#utility.yul\":18269:18336   */\n      tag_353\n      jump\t// in\n    tag_581:\n        /* \"#utility.yul\":18262:18336   */\n      swap2\n      pop\n        /* \"#utility.yul\":18345:18438   */\n      tag_582\n        /* \"#utility.yul\":18434:18437   */\n      dup3\n        /* \"#utility.yul\":18345:18438   */\n      tag_368\n      jump\t// in\n    tag_582:\n        /* \"#utility.yul\":18463:18465   */\n      0x40\n        /* \"#utility.yul\":18458:18461   */\n      dup3\n        /* \"#utility.yul\":18454:18466   */\n      add\n        /* \"#utility.yul\":18447:18466   */\n      swap1\n      pop\n        /* \"#utility.yul\":18106:18472   */\n      swap2\n      swap1\n      pop\n      jump\t// out\n        /* \"#utility.yul\":18478:18897   */\n    tag_143:\n        /* \"#utility.yul\":18644:18648   */\n      0x00\n        /* \"#utility.yul\":18682:18684   */\n      0x20\n        /* \"#utility.yul\":18671:18680   */\n      dup3\n        /* \"#utility.yul\":18667:18685   */\n      add\n        /* \"#utility.yul\":18659:18685   */\n      swap1\n      pop\n        /* \"#utility.yul\":18731:18740   */\n      dup2\n        /* \"#utility.yul\":18725:18729   */\n      dup2\n        /* \"#utility.yul\":18721:18741   */\n      sub\n        /* \"#utility.yul\":18717:18718   */\n      0x00\n        /* \"#utility.yul\":18706:18715   */\n      dup4\n        /* \"#utility.yul\":18702:18719   */\n      add\n        /* \"#utility.yul\":18695:18742   */\n      mstore\n        /* \"#utility.yul\":18759:18890   */\n      tag_584\n        /* \"#utility.yul\":18885:18889   */\n      dup2\n        /* \"#utility.yul\":18759:18890   */\n      tag_369\n      jump\t// in\n    tag_584:\n        /* \"#utility.yul\":18751:18890   */\n      swap1\n      pop\n        /* \"#utility.yul\":18478:18897   */\n      swap2\n      swap1\n      pop\n      jump\t// out\n        /* \"#utility.yul\":18903:19051   */\n    tag_370:\n        /* \"#utility.yul\":19005:19016   */\n      0x00\n        /* \"#utility.yul\":19042:19045   */\n      dup2\n        /* \"#utility.yul\":19027:19045   */\n      swap1\n      pop\n        /* \"#utility.yul\":18903:19051   */\n      swap3\n      swap2\n      pop\n      pop\n      jump\t// out\n        /* \"#utility.yul\":19057:19447   */\n    tag_371:\n        /* \"#utility.yul\":19163:19166   */\n      0x00\n        /* \"#utility.yul\":19191:19230   */\n      tag_587\n        /* \"#utility.yul\":19224:19229   */\n      dup3\n        /* \"#utility.yul\":19191:19230   */\n      tag_352\n      jump\t// in\n    tag_587:\n        /* \"#utility.yul\":19246:19335   */\n      tag_588\n        /* \"#utility.yul\":19328:19334   */\n      dup2\n        /* \"#utility.yul\":19323:19326   */\n      dup6\n        /* \"#utility.yul\":19246:19335   */\n      tag_370\n      jump\t// in\n    tag_588:\n        /* \"#utility.yul\":19239:19335   */\n      swap4\n      pop\n        /* \"#utility.yul\":19344:19409   */\n      tag_589\n        /* \"#utility.yul\":19402:19408   */\n      dup2\n        /* \"#utility.yul\":19397:19400   */\n      dup6\n        /* \"#utility.yul\":19390:19394   */\n      0x20\n        /* \"#utility.yul\":19383:19388   */\n      dup7\n        /* \"#utility.yul\":19379:19395   */\n      add\n        /* \"#utility.yul\":19344:19409   */\n      tag_354\n      jump\t// in\n    tag_589:\n        /* \"#utility.yul\":19434:19440   */\n      dup1\n        /* \"#utility.yul\":19429:19432   */\n      dup5\n        /* \"#utility.yul\":19425:19441   */\n      add\n        /* \"#utility.yul\":19418:19441   */\n      swap2\n      pop\n        /* \"#utility.yul\":19167:19447   */\n      pop\n        /* \"#utility.yul\":19057:19447   */\n      swap3\n      swap2\n      pop\n      pop\n      jump\t// out\n        /* \"#utility.yul\":19453:19888   */\n    tag_163:\n        /* \"#utility.yul\":19633:19636   */\n      0x00\n        /* \"#utility.yul\":19655:19750   */\n      tag_591\n        /* \"#utility.yul\":19746:19749   */\n      dup3\n        /* \"#utility.yul\":19737:19743   */\n      dup6\n        /* \"#utility.yul\":19655:19750   */\n      tag_371\n      jump\t// in\n    tag_591:\n        /* \"#utility.yul\":19648:19750   */\n      swap2\n      pop\n        /* \"#utility.yul\":19767:19862   */\n      tag_592\n        /* \"#utility.yul\":19858:19861   */\n      dup3\n        /* \"#utility.yul\":19849:19855   */\n      dup5\n        /* \"#utility.yul\":19767:19862   */\n      tag_371\n      jump\t// in\n    tag_592:\n        /* \"#utility.yul\":19760:19862   */\n      swap2\n      pop\n        /* \"#utility.yul\":19879:19882   */\n      dup2\n        /* \"#utility.yul\":19872:19882   */\n      swap1\n      pop\n        /* \"#utility.yul\":19453:19888   */\n      swap4\n      swap3\n      pop\n      pop\n      pop\n      jump\t// out\n        /* \"#utility.yul\":19894:20190   */\n    tag_372:\n        /* \"#utility.yul\":20034:20068   */\n      0x5468652061646472657373206f66207468652072656769737472616e74206d75\n        /* \"#utility.yul\":20030:20031   */\n      0x00\n        /* \"#utility.yul\":20022:20028   */\n      dup3\n        /* \"#utility.yul\":20018:20032   */\n      add\n        /* \"#utility.yul\":20011:20069   */\n      mstore\n        /* \"#utility.yul\":20103:20137   */\n      0x7374206e6f742062652030206f72207468652061646472657373206f66206120\n        /* \"#utility.yul\":20098:20100   */\n      0x20\n        /* \"#utility.yul\":20090:20096   */\n      dup3\n        /* \"#utility.yul\":20086:20101   */\n      add\n        /* \"#utility.yul\":20079:20138   */\n      mstore\n        /* \"#utility.yul\":20172:20182   */\n      0x636f6e7472616374000000000000000000000000000000000000000000000000\n        /* \"#utility.yul\":20167:20169   */\n      0x40\n        /* \"#utility.yul\":20159:20165   */\n      dup3\n        /* \"#utility.yul\":20155:20170   */\n      add\n        /* \"#utility.yul\":20148:20183   */\n      mstore\n        /* \"#utility.yul\":19894:20190   */\n      pop\n      jump\t// out\n        /* \"#utility.yul\":20196:20562   */\n    tag_373:\n        /* \"#utility.yul\":20338:20341   */\n      0x00\n        /* \"#utility.yul\":20359:20426   */\n      tag_595\n        /* \"#utility.yul\":20423:20425   */\n      0x48\n        /* \"#utility.yul\":20418:20421   */\n      dup4\n        /* \"#utility.yul\":20359:20426   */\n      tag_353\n      jump\t// in\n    tag_595:\n        /* \"#utility.yul\":20352:20426   */\n      swap2\n      pop\n        /* \"#utility.yul\":20435:20528   */\n      tag_596\n        /* \"#utility.yul\":20524:20527   */\n      dup3\n        /* \"#utility.yul\":20435:20528   */\n      tag_372\n      jump\t// in\n    tag_596:\n        /* \"#utility.yul\":20553:20555   */\n      0x60\n        /* \"#utility.yul\":20548:20551   */\n      dup3\n        /* \"#utility.yul\":20544:20556   */\n      add\n        /* \"#utility.yul\":20537:20556   */\n      swap1\n      pop\n        /* \"#utility.yul\":20196:20562   */\n      swap2\n      swap1\n      pop\n      jump\t// out\n        /* \"#utility.yul\":20568:20987   */\n    tag_182:\n        /* \"#utility.yul\":20734:20738   */\n      0x00\n        /* \"#utility.yul\":20772:20774   */\n      0x20\n        /* \"#utility.yul\":20761:20770   */\n      dup3\n        /* \"#utility.yul\":20757:20775   */\n      add\n        /* \"#utility.yul\":20749:20775   */\n      swap1\n      pop\n        /* \"#utility.yul\":20821:20830   */\n      dup2\n        /* \"#utility.yul\":20815:20819   */\n      dup2\n        /* \"#utility.yul\":20811:20831   */\n      sub\n        /* \"#utility.yul\":20807:20808   */\n      0x00\n        /* \"#utility.yul\":20796:20805   */\n      dup4\n        /* \"#utility.yul\":20792:20809   */\n      add\n        /* \"#utility.yul\":20785:20832   */\n      mstore\n        /* \"#utility.yul\":20849:20980   */\n      tag_598\n        /* \"#utility.yul\":20975:20979   */\n      dup2\n        /* \"#utility.yul\":20849:20980   */\n      tag_373\n      jump\t// in\n    tag_598:\n        /* \"#utility.yul\":20841:20980   */\n      swap1\n      pop\n        /* \"#utility.yul\":20568:20987   */\n      swap2\n      swap1\n      pop\n      jump\t// out\n        /* \"#utility.yul\":20993:21219   */\n    tag_374:\n        /* \"#utility.yul\":21133:21167   */\n      0x596f7520646f206e6f7420686176652061636365737320746f20746869732066\n        /* \"#utility.yul\":21129:21130   */\n      0x00\n        /* \"#utility.yul\":21121:21127   */\n      dup3\n        /* \"#utility.yul\":21117:21131   */\n      add\n        /* \"#utility.yul\":21110:21168   */\n      mstore\n        /* \"#utility.yul\":21202:21211   */\n      0x756e6374696f6e00000000000000000000000000000000000000000000000000\n        /* \"#utility.yul\":21197:21199   */\n      0x20\n        /* \"#utility.yul\":21189:21195   */\n      dup3\n        /* \"#utility.yul\":21185:21200   */\n      add\n        /* \"#utility.yul\":21178:21212   */\n      mstore\n        /* \"#utility.yul\":20993:21219   */\n      pop\n      jump\t// out\n        /* \"#utility.yul\":21225:21591   */\n    tag_375:\n        /* \"#utility.yul\":21367:21370   */\n      0x00\n        /* \"#utility.yul\":21388:21455   */\n      tag_601\n        /* \"#utility.yul\":21452:21454   */\n      0x27\n        /* \"#utility.yul\":21447:21450   */\n      dup4\n        /* \"#utility.yul\":21388:21455   */\n      tag_353\n      jump\t// in\n    tag_601:\n        /* \"#utility.yul\":21381:21455   */\n      swap2\n      pop\n        /* \"#utility.yul\":21464:21557   */\n      tag_602\n        /* \"#utility.yul\":21553:21556   */\n      dup3\n        /* \"#utility.yul\":21464:21557   */\n      tag_374\n      jump\t// in\n    tag_602:\n        /* \"#utility.yul\":21582:21584   */\n      0x40\n        /* \"#utility.yul\":21577:21580   */\n      dup3\n        /* \"#utility.yul\":21573:21585   */\n      add\n        /* \"#utility.yul\":21566:21585   */\n      swap1\n      pop\n        /* \"#utility.yul\":21225:21591   */\n      swap2\n      swap1\n      pop\n      jump\t// out\n        /* \"#utility.yul\":21597:22016   */\n    tag_187:\n        /* \"#utility.yul\":21763:21767   */\n      0x00\n        /* \"#utility.yul\":21801:21803   */\n      0x20\n        /* \"#utility.yul\":21790:21799   */\n      dup3\n        /* \"#utility.yul\":21786:21804   */\n      add\n        /* \"#utility.yul\":21778:21804   */\n      swap1\n      pop\n        /* \"#utility.yul\":21850:21859   */\n      dup2\n        /* \"#utility.yul\":21844:21848   */\n      dup2\n        /* \"#utility.yul\":21840:21860   */\n      sub\n        /* \"#utility.yul\":21836:21837   */\n      0x00\n        /* \"#utility.yul\":21825:21834   */\n      dup4\n        /* \"#utility.yul\":21821:21838   */\n      add\n        /* \"#utility.yul\":21814:21861   */\n      mstore\n        /* \"#utility.yul\":21878:22009   */\n      tag_604\n        /* \"#utility.yul\":22004:22008   */\n      dup2\n        /* \"#utility.yul\":21878:22009   */\n      tag_375\n      jump\t// in\n    tag_604:\n        /* \"#utility.yul\":21870:22009   */\n      swap1\n      pop\n        /* \"#utility.yul\":21597:22016   */\n      swap2\n      swap1\n      pop\n      jump\t// out\n        /* \"#utility.yul\":22022:22250   */\n    tag_376:\n        /* \"#utility.yul\":22162:22196   */\n      0x54686520656e746572656420706172616d657465727320617265206e6f742061\n        /* \"#utility.yul\":22158:22159   */\n      0x00\n        /* \"#utility.yul\":22150:22156   */\n      dup3\n        /* \"#utility.yul\":22146:22160   */\n      add\n        /* \"#utility.yul\":22139:22197   */\n      mstore\n        /* \"#utility.yul\":22231:22242   */\n      0x636365707461626c650000000000000000000000000000000000000000000000\n        /* \"#utility.yul\":22226:22228   */\n      0x20\n        /* \"#utility.yul\":22218:22224   */\n      dup3\n        /* \"#utility.yul\":22214:22229   */\n      add\n        /* \"#utility.yul\":22207:22243   */\n      mstore\n        /* \"#utility.yul\":22022:22250   */\n      pop\n      jump\t// out\n        /* \"#utility.yul\":22256:22622   */\n    tag_377:\n        /* \"#utility.yul\":22398:22401   */\n      0x00\n        /* \"#utility.yul\":22419:22486   */\n      tag_607\n        /* \"#utility.yul\":22483:22485   */\n      0x29\n        /* \"#utility.yul\":22478:22481   */\n      dup4\n        /* \"#utility.yul\":22419:22486   */\n      tag_353\n      jump\t// in\n    tag_607:\n        /* \"#utility.yul\":22412:22486   */\n      swap2\n      pop\n        /* \"#utility.yul\":22495:22588   */\n      tag_608\n        /* \"#utility.yul\":22584:22587   */\n      dup3\n        /* \"#utility.yul\":22495:22588   */\n      tag_376\n      jump\t// in\n    tag_608:\n        /* \"#utility.yul\":22613:22615   */\n      0x40\n        /* \"#utility.yul\":22608:22611   */\n      dup3\n        /* \"#utility.yul\":22604:22616   */\n      add\n        /* \"#utility.yul\":22597:22616   */\n      swap1\n      pop\n        /* \"#utility.yul\":22256:22622   */\n      swap2\n      swap1\n      pop\n      jump\t// out\n        /* \"#utility.yul\":22628:23047   */\n    tag_191:\n        /* \"#utility.yul\":22794:22798   */\n      0x00\n        /* \"#utility.yul\":22832:22834   */\n      0x20\n        /* \"#utility.yul\":22821:22830   */\n      dup3\n        /* \"#utility.yul\":22817:22835   */\n      add\n        /* \"#utility.yul\":22809:22835   */\n      swap1\n      pop\n        /* \"#utility.yul\":22881:22890   */\n      dup2\n        /* \"#utility.yul\":22875:22879   */\n      dup2\n        /* \"#utility.yul\":22871:22891   */\n      sub\n        /* \"#utility.yul\":22867:22868   */\n      0x00\n        /* \"#utility.yul\":22856:22865   */\n      dup4\n        /* \"#utility.yul\":22852:22869   */\n      add\n        /* \"#utility.yul\":22845:22892   */\n      mstore\n        /* \"#utility.yul\":22909:23040   */\n      tag_610\n        /* \"#utility.yul\":23035:23039   */\n      dup2\n        /* \"#utility.yul\":22909:23040   */\n      tag_377\n      jump\t// in\n    tag_610:\n        /* \"#utility.yul\":22901:23040   */\n      swap1\n      pop\n        /* \"#utility.yul\":22628:23047   */\n      swap2\n      swap1\n      pop\n      jump\t// out\n        /* \"#utility.yul\":23053:23277   */\n    tag_378:\n        /* \"#utility.yul\":23193:23227   */\n      0x596f7520646f206e6f742068617665207065726d697373696f6e20746f207570\n        /* \"#utility.yul\":23189:23190   */\n      0x00\n        /* \"#utility.yul\":23181:23187   */\n      dup3\n        /* \"#utility.yul\":23177:23191   */\n      add\n        /* \"#utility.yul\":23170:23228   */\n      mstore\n        /* \"#utility.yul\":23262:23269   */\n      0x6772616465000000000000000000000000000000000000000000000000000000\n        /* \"#utility.yul\":23257:23259   */\n      0x20\n        /* \"#utility.yul\":23249:23255   */\n      dup3\n        /* \"#utility.yul\":23245:23260   */\n      add\n        /* \"#utility.yul\":23238:23270   */\n      mstore\n        /* \"#utility.yul\":23053:23277   */\n      pop\n      jump\t// out\n        /* \"#utility.yul\":23283:23649   */\n    tag_379:\n        /* \"#utility.yul\":23425:23428   */\n      0x00\n        /* \"#utility.yul\":23446:23513   */\n      tag_613\n        /* \"#utility.yul\":23510:23512   */\n      0x25\n        /* \"#utility.yul\":23505:23508   */\n      dup4\n        /* \"#utility.yul\":23446:23513   */\n      tag_353\n      jump\t// in\n    tag_613:\n        /* \"#utility.yul\":23439:23513   */\n      swap2\n      pop\n        /* \"#utility.yul\":23522:23615   */\n      tag_614\n        /* \"#utility.yul\":23611:23614   */\n      dup3\n        /* \"#utility.yul\":23522:23615   */\n      tag_378\n      jump\t// in\n    tag_614:\n        /* \"#utility.yul\":23640:23642   */\n      0x40\n        /* \"#utility.yul\":23635:23638   */\n      dup3\n        /* \"#utility.yul\":23631:23643   */\n      add\n        /* \"#utility.yul\":23624:23643   */\n      swap1\n      pop\n        /* \"#utility.yul\":23283:23649   */\n      swap2\n      swap1\n      pop\n      jump\t// out\n        /* \"#utility.yul\":23655:24074   */\n    tag_197:\n        /* \"#utility.yul\":23821:23825   */\n      0x00\n        /* \"#utility.yul\":23859:23861   */\n      0x20\n        /* \"#utility.yul\":23848:23857   */\n      dup3\n        /* \"#utility.yul\":23844:23862   */\n      add\n        /* \"#utility.yul\":23836:23862   */\n      swap1\n      pop\n        /* \"#utility.yul\":23908:23917   */\n      dup2\n        /* \"#utility.yul\":23902:23906   */\n      dup2\n        /* \"#utility.yul\":23898:23918   */\n      sub\n        /* \"#utility.yul\":23894:23895   */\n      0x00\n        /* \"#utility.yul\":23883:23892   */\n      dup4\n        /* \"#utility.yul\":23879:23896   */\n      add\n        /* \"#utility.yul\":23872:23919   */\n      mstore\n        /* \"#utility.yul\":23936:24067   */\n      tag_616\n        /* \"#utility.yul\":24062:24066   */\n      dup2\n        /* \"#utility.yul\":23936:24067   */\n      tag_379\n      jump\t// in\n    tag_616:\n        /* \"#utility.yul\":23928:24067   */\n      swap1\n      pop\n        /* \"#utility.yul\":23655:24074   */\n      swap2\n      swap1\n      pop\n      jump\t// out\n        /* \"#utility.yul\":24080:24383   */\n    tag_380:\n        /* \"#utility.yul\":24220:24254   */\n      0x54686520494420656e746572656420697320696e76616c69642e204974206d75\n        /* \"#utility.yul\":24216:24217   */\n      0x00\n        /* \"#utility.yul\":24208:24214   */\n      dup3\n        /* \"#utility.yul\":24204:24218   */\n      add\n        /* \"#utility.yul\":24197:24255   */\n      mstore\n        /* \"#utility.yul\":24289:24323   */\n      0x737420626520696e207468697320696e74657276616c2030203c206964203c3d\n        /* \"#utility.yul\":24284:24286   */\n      0x20\n        /* \"#utility.yul\":24276:24282   */\n      dup3\n        /* \"#utility.yul\":24272:24287   */\n      add\n        /* \"#utility.yul\":24265:24324   */\n      mstore\n        /* \"#utility.yul\":24358:24375   */\n      0x2063757272656e7420746f6b656e730000000000000000000000000000000000\n        /* \"#utility.yul\":24353:24355   */\n      0x40\n        /* \"#utility.yul\":24345:24351   */\n      dup3\n        /* \"#utility.yul\":24341:24356   */\n      add\n        /* \"#utility.yul\":24334:24376   */\n      mstore\n        /* \"#utility.yul\":24080:24383   */\n      pop\n      jump\t// out\n        /* \"#utility.yul\":24389:24755   */\n    tag_381:\n        /* \"#utility.yul\":24531:24534   */\n      0x00\n        /* \"#utility.yul\":24552:24619   */\n      tag_619\n        /* \"#utility.yul\":24616:24618   */\n      0x4f\n        /* \"#utility.yul\":24611:24614   */\n      dup4\n        /* \"#utility.yul\":24552:24619   */\n      tag_353\n      jump\t// in\n    tag_619:\n        /* \"#utility.yul\":24545:24619   */\n      swap2\n      pop\n        /* \"#utility.yul\":24628:24721   */\n      tag_620\n        /* \"#utility.yul\":24717:24720   */\n      dup3\n        /* \"#utility.yul\":24628:24721   */\n      tag_380\n      jump\t// in\n    tag_620:\n        /* \"#utility.yul\":24746:24748   */\n      0x60\n        /* \"#utility.yul\":24741:24744   */\n      dup3\n        /* \"#utility.yul\":24737:24749   */\n      add\n        /* \"#utility.yul\":24730:24749   */\n      swap1\n      pop\n        /* \"#utility.yul\":24389:24755   */\n      swap2\n      swap1\n      pop\n      jump\t// out\n        /* \"#utility.yul\":24761:25180   */\n    tag_204:\n        /* \"#utility.yul\":24927:24931   */\n      0x00\n        /* \"#utility.yul\":24965:24967   */\n      0x20\n        /* \"#utility.yul\":24954:24963   */\n      dup3\n        /* \"#utility.yul\":24950:24968   */\n      add\n        /* \"#utility.yul\":24942:24968   */\n      swap1\n      pop\n        /* \"#utility.yul\":25014:25023   */\n      dup2\n        /* \"#utility.yul\":25008:25012   */\n      dup2\n        /* \"#utility.yul\":25004:25024   */\n      sub\n        /* \"#utility.yul\":25000:25001   */\n      0x00\n        /* \"#utility.yul\":24989:24998   */\n      dup4\n        /* \"#utility.yul\":24985:25002   */\n      add\n        /* \"#utility.yul\":24978:25025   */\n      mstore\n        /* \"#utility.yul\":25042:25173   */\n      tag_622\n        /* \"#utility.yul\":25168:25172   */\n      dup2\n        /* \"#utility.yul\":25042:25173   */\n      tag_381\n      jump\t// in\n    tag_622:\n        /* \"#utility.yul\":25034:25173   */\n      swap1\n      pop\n        /* \"#utility.yul\":24761:25180   */\n      swap2\n      swap1\n      pop\n      jump\t// out\n        /* \"#utility.yul\":25186:25366   */\n    tag_382:\n        /* \"#utility.yul\":25234:25311   */\n      0x4e487b7100000000000000000000000000000000000000000000000000000000\n        /* \"#utility.yul\":25231:25232   */\n      0x00\n        /* \"#utility.yul\":25224:25312   */\n      mstore\n        /* \"#utility.yul\":25331:25335   */\n      0x11\n        /* \"#utility.yul\":25328:25329   */\n      0x04\n        /* \"#utility.yul\":25321:25336   */\n      mstore\n        /* \"#utility.yul\":25355:25359   */\n      0x24\n        /* \"#utility.yul\":25352:25353   */\n      0x00\n        /* \"#utility.yul\":25345:25360   */\n      revert\n        /* \"#utility.yul\":25372:25543   */\n    tag_229:\n        /* \"#utility.yul\":25410:25413   */\n      0x00\n        /* \"#utility.yul\":25433:25456   */\n      tag_625\n        /* \"#utility.yul\":25450:25455   */\n      dup3\n        /* \"#utility.yul\":25433:25456   */\n      tag_326\n      jump\t// in\n    tag_625:\n        /* \"#utility.yul\":25424:25456   */\n      swap2\n      pop\n        /* \"#utility.yul\":25478:25484   */\n      0xffff\n        /* \"#utility.yul\":25471:25476   */\n      dup3\n        /* \"#utility.yul\":25468:25485   */\n      sub\n        /* \"#utility.yul\":25465:25508   */\n      tag_626\n      jumpi\n        /* \"#utility.yul\":25488:25506   */\n      tag_627\n      tag_382\n      jump\t// in\n    tag_627:\n        /* \"#utility.yul\":25465:25508   */\n    tag_626:\n        /* \"#utility.yul\":25535:25536   */\n      0x01\n        /* \"#utility.yul\":25528:25533   */\n      dup3\n        /* \"#utility.yul\":25524:25537   */\n      add\n        /* \"#utility.yul\":25517:25537   */\n      swap1\n      pop\n        /* \"#utility.yul\":25372:25543   */\n      swap2\n      swap1\n      pop\n      jump\t// out\n        /* \"#utility.yul\":25549:25745   */\n    tag_247:\n        /* \"#utility.yul\":25588:25592   */\n      0x00\n        /* \"#utility.yul\":25608:25627   */\n      tag_629\n        /* \"#utility.yul\":25625:25626   */\n      dup3\n        /* \"#utility.yul\":25608:25627   */\n      tag_326\n      jump\t// in\n    tag_629:\n        /* \"#utility.yul\":25603:25627   */\n      swap2\n      pop\n        /* \"#utility.yul\":25641:25660   */\n      tag_630\n        /* \"#utility.yul\":25658:25659   */\n      dup4\n        /* \"#utility.yul\":25641:25660   */\n      tag_326\n      jump\t// in\n    tag_630:\n        /* \"#utility.yul\":25636:25660   */\n      swap3\n      pop\n        /* \"#utility.yul\":25684:25685   */\n      dup3\n        /* \"#utility.yul\":25681:25682   */\n      dup3\n        /* \"#utility.yul\":25677:25686   */\n      sub\n        /* \"#utility.yul\":25669:25686   */\n      swap1\n      pop\n        /* \"#utility.yul\":25708:25714   */\n      0xffff\n        /* \"#utility.yul\":25702:25706   */\n      dup2\n        /* \"#utility.yul\":25699:25715   */\n      gt\n        /* \"#utility.yul\":25696:25738   */\n      iszero\n      tag_631\n      jumpi\n        /* \"#utility.yul\":25718:25736   */\n      tag_632\n      tag_382\n      jump\t// in\n    tag_632:\n        /* \"#utility.yul\":25696:25738   */\n    tag_631:\n        /* \"#utility.yul\":25549:25745   */\n      swap3\n      swap2\n      pop\n      pop\n      jump\t// out\n        /* \"#utility.yul\":25751:25944   */\n    tag_252:\n        /* \"#utility.yul\":25790:25793   */\n      0x00\n        /* \"#utility.yul\":25809:25828   */\n      tag_634\n        /* \"#utility.yul\":25826:25827   */\n      dup3\n        /* \"#utility.yul\":25809:25828   */\n      tag_326\n      jump\t// in\n    tag_634:\n        /* \"#utility.yul\":25804:25828   */\n      swap2\n      pop\n        /* \"#utility.yul\":25842:25861   */\n      tag_635\n        /* \"#utility.yul\":25859:25860   */\n      dup4\n        /* \"#utility.yul\":25842:25861   */\n      tag_326\n      jump\t// in\n    tag_635:\n        /* \"#utility.yul\":25837:25861   */\n      swap3\n      pop\n        /* \"#utility.yul\":25884:25885   */\n      dup3\n        /* \"#utility.yul\":25881:25882   */\n      dup3\n        /* \"#utility.yul\":25877:25886   */\n      add\n        /* \"#utility.yul\":25870:25886   */\n      swap1\n      pop\n        /* \"#utility.yul\":25907:25913   */\n      0xffff\n        /* \"#utility.yul\":25902:25905   */\n      dup2\n        /* \"#utility.yul\":25899:25914   */\n      gt\n        /* \"#utility.yul\":25896:25937   */\n      iszero\n      tag_636\n      jumpi\n        /* \"#utility.yul\":25917:25935   */\n      tag_637\n      tag_382\n      jump\t// in\n    tag_637:\n        /* \"#utility.yul\":25896:25937   */\n    tag_636:\n        /* \"#utility.yul\":25751:25944   */\n      swap3\n      swap2\n      pop\n      pop\n      jump\t// out\n        /* \"#utility.yul\":25950:26048   */\n    tag_383:\n        /* \"#utility.yul\":26001:26007   */\n      0x00\n        /* \"#utility.yul\":26035:26040   */\n      dup2\n        /* \"#utility.yul\":26029:26041   */\n      mload\n        /* \"#utility.yul\":26019:26041   */\n      swap1\n      pop\n        /* \"#utility.yul\":25950:26048   */\n      swap2\n      swap1\n      pop\n      jump\t// out\n        /* \"#utility.yul\":26054:26222   */\n    tag_384:\n        /* \"#utility.yul\":26137:26148   */\n      0x00\n        /* \"#utility.yul\":26171:26177   */\n      dup3\n        /* \"#utility.yul\":26166:26169   */\n      dup3\n        /* \"#utility.yul\":26159:26178   */\n      mstore\n        /* \"#utility.yul\":26211:26215   */\n      0x20\n        /* \"#utility.yul\":26206:26209   */\n      dup3\n        /* \"#utility.yul\":26202:26216   */\n      add\n        /* \"#utility.yul\":26187:26216   */\n      swap1\n      pop\n        /* \"#utility.yul\":26054:26222   */\n      swap3\n      swap2\n      pop\n      pop\n      jump\t// out\n        /* \"#utility.yul\":26228:26601   */\n    tag_385:\n        /* \"#utility.yul\":26314:26317   */\n      0x00\n        /* \"#utility.yul\":26342:26380   */\n      tag_641\n        /* \"#utility.yul\":26374:26379   */\n      dup3\n        /* \"#utility.yul\":26342:26380   */\n      tag_383\n      jump\t// in\n    tag_641:\n        /* \"#utility.yul\":26396:26466   */\n      tag_642\n        /* \"#utility.yul\":26459:26465   */\n      dup2\n        /* \"#utility.yul\":26454:26457   */\n      dup6\n        /* \"#utility.yul\":26396:26466   */\n      tag_384\n      jump\t// in\n    tag_642:\n        /* \"#utility.yul\":26389:26466   */\n      swap4\n      pop\n        /* \"#utility.yul\":26475:26540   */\n      tag_643\n        /* \"#utility.yul\":26533:26539   */\n      dup2\n        /* \"#utility.yul\":26528:26531   */\n      dup6\n        /* \"#utility.yul\":26521:26525   */\n      0x20\n        /* \"#utility.yul\":26514:26519   */\n      dup7\n        /* \"#utility.yul\":26510:26526   */\n      add\n        /* \"#utility.yul\":26475:26540   */\n      tag_354\n      jump\t// in\n    tag_643:\n        /* \"#utility.yul\":26565:26594   */\n      tag_644\n        /* \"#utility.yul\":26587:26593   */\n      dup2\n        /* \"#utility.yul\":26565:26594   */\n      tag_340\n      jump\t// in\n    tag_644:\n        /* \"#utility.yul\":26560:26563   */\n      dup5\n        /* \"#utility.yul\":26556:26595   */\n      add\n        /* \"#utility.yul\":26549:26595   */\n      swap2\n      pop\n        /* \"#utility.yul\":26318:26601   */\n      pop\n        /* \"#utility.yul\":26228:26601   */\n      swap3\n      swap2\n      pop\n      pop\n      jump\t// out\n        /* \"#utility.yul\":26607:27243   */\n    tag_266:\n        /* \"#utility.yul\":26800:26804   */\n      0x00\n        /* \"#utility.yul\":26838:26841   */\n      0x80\n        /* \"#utility.yul\":26827:26836   */\n      dup3\n        /* \"#utility.yul\":26823:26842   */\n      add\n        /* \"#utility.yul\":26815:26842   */\n      swap1\n      pop\n        /* \"#utility.yul\":26852:26923   */\n      tag_646\n        /* \"#utility.yul\":26920:26921   */\n      0x00\n        /* \"#utility.yul\":26909:26918   */\n      dup4\n        /* \"#utility.yul\":26905:26922   */\n      add\n        /* \"#utility.yul\":26896:26902   */\n      dup8\n        /* \"#utility.yul\":26852:26923   */\n      tag_332\n      jump\t// in\n    tag_646:\n        /* \"#utility.yul\":26933:27005   */\n      tag_647\n        /* \"#utility.yul\":27001:27003   */\n      0x20\n        /* \"#utility.yul\":26990:26999   */\n      dup4\n        /* \"#utility.yul\":26986:27004   */\n      add\n        /* \"#utility.yul\":26977:26983   */\n      dup7\n        /* \"#utility.yul\":26933:27005   */\n      tag_332\n      jump\t// in\n    tag_647:\n        /* \"#utility.yul\":27015:27085   */\n      tag_648\n        /* \"#utility.yul\":27081:27083   */\n      0x40\n        /* \"#utility.yul\":27070:27079   */\n      dup4\n        /* \"#utility.yul\":27066:27084   */\n      add\n        /* \"#utility.yul\":27057:27063   */\n      dup6\n        /* \"#utility.yul\":27015:27085   */\n      tag_331\n      jump\t// in\n    tag_648:\n        /* \"#utility.yul\":27132:27141   */\n      dup2\n        /* \"#utility.yul\":27126:27130   */\n      dup2\n        /* \"#utility.yul\":27122:27142   */\n      sub\n        /* \"#utility.yul\":27117:27119   */\n      0x60\n        /* \"#utility.yul\":27106:27115   */\n      dup4\n        /* \"#utility.yul\":27102:27120   */\n      add\n        /* \"#utility.yul\":27095:27143   */\n      mstore\n        /* \"#utility.yul\":27160:27236   */\n      tag_649\n        /* \"#utility.yul\":27231:27235   */\n      dup2\n        /* \"#utility.yul\":27222:27228   */\n      dup5\n        /* \"#utility.yul\":27160:27236   */\n      tag_385\n      jump\t// in\n    tag_649:\n        /* \"#utility.yul\":27152:27236   */\n      swap1\n      pop\n        /* \"#utility.yul\":26607:27243   */\n      swap6\n      swap5\n      pop\n      pop\n      pop\n      pop\n      pop\n      jump\t// out\n        /* \"#utility.yul\":27249:27369   */\n    tag_386:\n        /* \"#utility.yul\":27321:27344   */\n      tag_651\n        /* \"#utility.yul\":27338:27343   */\n      dup2\n        /* \"#utility.yul\":27321:27344   */\n      tag_350\n      jump\t// in\n    tag_651:\n        /* \"#utility.yul\":27314:27319   */\n      dup2\n        /* \"#utility.yul\":27311:27345   */\n      eq\n        /* \"#utility.yul\":27301:27363   */\n      tag_652\n      jumpi\n        /* \"#utility.yul\":27359:27360   */\n      0x00\n        /* \"#utility.yul\":27356:27357   */\n      dup1\n        /* \"#utility.yul\":27349:27361   */\n      revert\n        /* \"#utility.yul\":27301:27363   */\n    tag_652:\n        /* \"#utility.yul\":27249:27369   */\n      pop\n      jump\t// out\n        /* \"#utility.yul\":27375:27516   */\n    tag_387:\n        /* \"#utility.yul\":27431:27436   */\n      0x00\n        /* \"#utility.yul\":27462:27468   */\n      dup2\n        /* \"#utility.yul\":27456:27469   */\n      mload\n        /* \"#utility.yul\":27447:27469   */\n      swap1\n      pop\n        /* \"#utility.yul\":27478:27510   */\n      tag_654\n        /* \"#utility.yul\":27504:27509   */\n      dup2\n        /* \"#utility.yul\":27478:27510   */\n      tag_386\n      jump\t// in\n    tag_654:\n        /* \"#utility.yul\":27375:27516   */\n      swap3\n      swap2\n      pop\n      pop\n      jump\t// out\n        /* \"#utility.yul\":27522:27871   */\n    tag_269:\n        /* \"#utility.yul\":27591:27597   */\n      0x00\n        /* \"#utility.yul\":27640:27642   */\n      0x20\n        /* \"#utility.yul\":27628:27637   */\n      dup3\n        /* \"#utility.yul\":27619:27626   */\n      dup5\n        /* \"#utility.yul\":27615:27638   */\n      sub\n        /* \"#utility.yul\":27611:27643   */\n      slt\n        /* \"#utility.yul\":27608:27727   */\n      iszero\n      tag_656\n      jumpi\n        /* \"#utility.yul\":27646:27725   */\n      tag_657\n      tag_320\n      jump\t// in\n    tag_657:\n        /* \"#utility.yul\":27608:27727   */\n    tag_656:\n        /* \"#utility.yul\":27766:27767   */\n      0x00\n        /* \"#utility.yul\":27791:27854   */\n      tag_658\n        /* \"#utility.yul\":27846:27853   */\n      dup5\n        /* \"#utility.yul\":27837:27843   */\n      dup3\n        /* \"#utility.yul\":27826:27835   */\n      dup6\n        /* \"#utility.yul\":27822:27844   */\n      add\n        /* \"#utility.yul\":27791:27854   */\n      tag_387\n      jump\t// in\n    tag_658:\n        /* \"#utility.yul\":27781:27854   */\n      swap2\n      pop\n        /* \"#utility.yul\":27737:27864   */\n      pop\n        /* \"#utility.yul\":27522:27871   */\n      swap3\n      swap2\n      pop\n      pop\n      jump\t// out\n        /* \"#utility.yul\":27877:28057   */\n    tag_294:\n        /* \"#utility.yul\":27925:28002   */\n      0x4e487b7100000000000000000000000000000000000000000000000000000000\n        /* \"#utility.yul\":27922:27923   */\n      0x00\n        /* \"#utility.yul\":27915:28003   */\n      mstore\n        /* \"#utility.yul\":28022:28026   */\n      0x12\n        /* \"#utility.yul\":28019:28020   */\n      0x04\n        /* \"#utility.yul\":28012:28027   */\n      mstore\n        /* \"#utility.yul\":28046:28050   */\n      0x24\n        /* \"#utility.yul\":28043:28044   */\n      0x00\n        /* \"#utility.yul\":28036:28051   */\n      revert\n\n    auxdata: 0xa2646970667358221220948e41ac172c734cb51e5e869807f752deccbc3db0dc4d0de727956f165a0ec364736f6c63430008140033\n}\n",
				"bytecode": {
					"linkReferences": {},
					"object": "608060405234801562000010575f80fd5b5060405162002bc538038062002bc583398181016040528101906200003691906200019e565b815f806101000a81548173ffffffffffffffffffffffffffffffffffffffff021916908360601c0217905550805f60146101000a81548169ffffffffffffffffffff021916908360b01c021790555062000095620000df60201b60201c565b60015f01600c6101000a81548173ffffffffffffffffffffffffffffffffffffffff021916908373ffffffffffffffffffffffffffffffffffffffff1602179055505050620001e3565b5f33905090565b5f80fd5b5f7fffffffffffffffffffffffffffffffffffffffff00000000000000000000000082169050919050565b6200012081620000ea565b81146200012b575f80fd5b50565b5f815190506200013e8162000115565b92915050565b5f7fffffffffffffffffffff0000000000000000000000000000000000000000000082169050919050565b6200017a8162000144565b811462000185575f80fd5b50565b5f8151905062000198816200016f565b92915050565b5f8060408385031215620001b757620001b6620000e6565b5b5f620001c6858286016200012e565b9250506020620001d98582860162000188565b9150509250929050565b6129d480620001f15f395ff3fe608060405234801561000f575f80fd5b50600436106100fe575f3560e01c8063a22cb46511610095578063e560ca4311610064578063e560ca43146102bc578063e985e9c5146102d8578063ecadbc0414610308578063edbe39a014610312576100fe565b8063a22cb46514610224578063b145ae3114610240578063b1cff3801461025c578063dd7d84401461028c576100fe565b806370a08231116100d157806370a082311461017657806382a7cf1e146101a657806393b871f2146101d657806395d89b4114610206576100fe565b806306fdde031461010257806307394401146101205780634ec3dcfe1461013c5780636e1514f114610158575b5f80fd5b61010a61032e565b6040516101179190611aa1565b60405180910390f35b61013a60048036038101906101359190611b5c565b610342565b005b61015660048036038101906101519190611b5c565b610361565b005b6101606105ba565b60405161016d9190611bc4565b60405180910390f35b610190600480360381019061018b9190611bdd565b6105be565b60405161019d9190611c17565b60405180910390f35b6101c060048036038101906101bb9190611c30565b61069f565b6040516101cd9190611c6a565b60405180910390f35b6101f060048036038101906101eb9190611c30565b6106b0565b6040516101fd9190611c6a565b60405180910390f35b61020e6106fc565b60405161021b9190611cbd565b60405180910390f35b61023e60048036038101906102399190611d0b565b610711565b005b61025a60048036038101906102559190611e85565b6108fd565b005b61027660048036038101906102719190611f62565b61091a565b6040516102839190612020565b60405180910390f35b6102a660048036038101906102a19190611c30565b610924565b6040516102b391906120b3565b60405180910390f35b6102d660048036038101906102d191906120d3565b61098e565b005b6102f260048036038101906102ed9190612111565b610ab2565b6040516102ff919061215e565b60405180910390f35b610310610b41565b005b61032c600480360381019061032791906121b2565b610be0565b005b5f805f9054906101000a900460601b905090565b61035c83838360405180602001604052805f8152506108fd565b505050565b5f73ffffffffffffffffffffffffffffffffffffffff168273ffffffffffffffffffffffffffffffffffffffff16036103d1575f6040517f64a0ae920000000000000000000000000000000000000000000000000000000081526004016103c89190611c6a565b60405180910390fd5b5f6103db82610e3d565b90506104b38261ffff166104b181106103f7576103f6612202565b5b602091828204019190069054906101000a900460ff161561044d576040517f08c379a00000000000000000000000000000000000000000000000000000000081526004016104449061229f565b60405180910390fd5b8073ffffffffffffffffffffffffffffffffffffffff1661046c610eeb565b73ffffffffffffffffffffffffffffffffffffffff16148061049b575061049a81610495610eeb565b610ab2565b5b806104e057506104a9610eeb565b73ffffffffffffffffffffffffffffffffffffffff166104c8836106b0565b73ffffffffffffffffffffffffffffffffffffffff16145b61052a576104ec610eeb565b826040517f177e802f0000000000000000000000000000000000000000000000000000000081526004016105219291906122ff565b60405180910390fd5b8373ffffffffffffffffffffffffffffffffffffffff168173ffffffffffffffffffffffffffffffffffffffff161461059e578382826040517f64283d7b00000000000000000000000000000000000000000000000000000000815260040161059593929190612326565b60405180910390fd5b6105a95f8383610ef2565b6105b4838383610fae565b50505050565b5f90565b5f8073ffffffffffffffffffffffffffffffffffffffff168273ffffffffffffffffffffffffffffffffffffffff160361062d576040517f08c379a0000000000000000000000000000000000000000000000000000000008152600401610624906123a5565b60405180910390fd5b6104d95f8373ffffffffffffffffffffffffffffffffffffffff1673ffffffffffffffffffffffffffffffffffffffff1681526020019081526020015f205f6104b1811061067e5761067d612202565b5b601091828204019190066002029054906101000a900461ffff169050919050565b5f6106a982610e3d565b9050919050565b5f6106ba82610e3d565b506104da5f8361ffff1661ffff1681526020019081526020015f205f9054906101000a900473ffffffffffffffffffffffffffffffffffffffff169050919050565b5f8060149054906101000a900460b01b905090565b8173ffffffffffffffffffffffffffffffffffffffff16610730610eeb565b73ffffffffffffffffffffffffffffffffffffffff1603610786576040517f08c379a000000000000000000000000000000000000000000000000000000000815260040161077d90612433565b60405180910390fd5b5f73ffffffffffffffffffffffffffffffffffffffff168273ffffffffffffffffffffffffffffffffffffffff16036107f657816040517f5b08ba180000000000000000000000000000000000000000000000000000000081526004016107ed9190611c6a565b60405180910390fd5b806104db5f610803610eeb565b73ffffffffffffffffffffffffffffffffffffffff1673ffffffffffffffffffffffffffffffffffffffff1681526020019081526020015f205f8473ffffffffffffffffffffffffffffffffffffffff1673ffffffffffffffffffffffffffffffffffffffff1681526020019081526020015f205f6101000a81548160ff0219169083151502179055508173ffffffffffffffffffffffffffffffffffffffff166108ac610eeb565b73ffffffffffffffffffffffffffffffffffffffff167f17307eab39ab6107e8899845ad3d59bd9653f200f220920489ca2b5937696c31836040516108f1919061215e565b60405180910390a35050565b610908848484610361565b61091484848484611681565b50505050565b5f95945050505050565b606061092f82610e3d565b505f610939611833565b90505f8151116109575760405180602001604052805f815250610986565b806109658461ffff16611849565b60405160200161097692919061248b565b6040516020818303038152906040525b915050919050565b5f61099882610e3d565b90508273ffffffffffffffffffffffffffffffffffffffff168173ffffffffffffffffffffffffffffffffffffffff1603610a08576040517f08c379a00000000000000000000000000000000000000000000000000000000081526004016109ff90612433565b60405180910390fd5b610a10610eeb565b73ffffffffffffffffffffffffffffffffffffffff168173ffffffffffffffffffffffffffffffffffffffff1614158015610a595750610a5781610a52610eeb565b610ab2565b155b15610aa257610a66610eeb565b6040517fa9fbf51f000000000000000000000000000000000000000000000000000000008152600401610a999190611c6a565b60405180910390fd5b610aad838383610ef2565b505050565b5f6104db5f8473ffffffffffffffffffffffffffffffffffffffff1673ffffffffffffffffffffffffffffffffffffffff1681526020019081526020015f205f8373ffffffffffffffffffffffffffffffffffffffff1673ffffffffffffffffffffffffffffffffffffffff1681526020019081526020015f205f9054906101000a900460ff16905092915050565b5f610b4a610eeb565b90505f73ffffffffffffffffffffffffffffffffffffffff168173ffffffffffffffffffffffffffffffffffffffff1614158015610b9e57505f8173ffffffffffffffffffffffffffffffffffffffff163b145b610bdd576040517f08c379a0000000000000000000000000000000000000000000000000000000008152600401610bd490612544565b60405180910390fd5b50565b60015f01600c9054906101000a900473ffffffffffffffffffffffffffffffffffffffff1673ffffffffffffffffffffffffffffffffffffffff16610c23610eeb565b73ffffffffffffffffffffffffffffffffffffffff1614610c79576040517f08c379a0000000000000000000000000000000000000000000000000000000008152600401610c70906125d2565b60405180910390fd5b60015f0160049054906101000a900461ffff1661ffff168361ffff16118015610caa5750428265ffffffffffff1610155b610ce9576040517f08c379a0000000000000000000000000000000000000000000000000000000008152600401610ce090612660565b60405180910390fd5b6103e88361ffff161115610d5f575f6104b18461ffff16108015610d135750610d106105ba565b81145b610d52576040517f08c379a0000000000000000000000000000000000000000000000000000000008152600401610d49906126ee565b60405180910390fd5b5f610d5c81611913565b50505b8260015f015f6101000a81548161ffff021916908361ffff1602179055508160015f0160066101000a81548165ffffffffffff021916908365ffffffffffff1602179055508060015f01600c6101000a81548173ffffffffffffffffffffffffffffffffffffffff021916908373ffffffffffffffffffffffffffffffffffffffff1602179055508073ffffffffffffffffffffffffffffffffffffffff168265ffffffffffff168461ffff167fb489119eff6a52171d8ed8978bb59f62003dc2345fe157f731a848c94006616860405160405180910390a4505050565b5f8161ffff165f108015610e6b575060015f0160029054906101000a900461ffff1661ffff168261ffff1611155b610eaa576040517f08c379a0000000000000000000000000000000000000000000000000000000008152600401610ea1906127a2565b60405180910390fd5b60028261ffff166104b18110610ec357610ec2612202565b5b015f9054906101000a900473ffffffffffffffffffffffffffffffffffffffff169050919050565b5f33905090565b826104da5f8461ffff1661ffff1681526020019081526020015f205f6101000a81548173ffffffffffffffffffffffffffffffffffffffff021916908373ffffffffffffffffffffffffffffffffffffffff1602179055508161ffff168373ffffffffffffffffffffffffffffffffffffffff168273ffffffffffffffffffffffffffffffffffffffff167f0a9d294fd4bd42bb30e96cba2b478d149a783fba3c729b1e5c42bec89d95b85a60405160405180910390a4505050565b5f6104d95f8373ffffffffffffffffffffffffffffffffffffffff1673ffffffffffffffffffffffffffffffffffffffff1681526020019081526020015f205f6104b1811061100057610fff612202565b5b601091828204019190066002029054906101000a900461ffff1690505f73ffffffffffffffffffffffffffffffffffffffff168273ffffffffffffffffffffffffffffffffffffffff16146111e8575f600190505b8161ffff168161ffff16116111e2578361ffff166104d95f8573ffffffffffffffffffffffffffffffffffffffff1673ffffffffffffffffffffffffffffffffffffffff1681526020019081526020015f208261ffff166104b181106110be576110bd612202565b5b601091828204019190066002029054906101000a900461ffff1661ffff16036111cf576104d95f8473ffffffffffffffffffffffffffffffffffffffff1673ffffffffffffffffffffffffffffffffffffffff1681526020019081526020015f208261ffff166104b1811061113657611135612202565b5b601091828204019190066002029054906101000a900461ffff166104d95f8573ffffffffffffffffffffffffffffffffffffffff1673ffffffffffffffffffffffffffffffffffffffff1681526020019081526020015f208261ffff166104b181106111a5576111a4612202565b5b601091828204019190066002026101000a81548161ffff021916908361ffff1602179055506111e2565b80806111da906127ed565b915050611055565b50611348565b5f8390506104d95f8473ffffffffffffffffffffffffffffffffffffffff1673ffffffffffffffffffffffffffffffffffffffff1681526020019081526020015f208161ffff166104b1811061124157611240612202565b5b601091828204019190066002029054906101000a900461ffff1693506104d95f8473ffffffffffffffffffffffffffffffffffffffff1673ffffffffffffffffffffffffffffffffffffffff1681526020019081526020015f208261ffff166104b181106112b2576112b1612202565b5b601091828204019190066002029054906101000a900461ffff166104d95f8573ffffffffffffffffffffffffffffffffffffffff1673ffffffffffffffffffffffffffffffffffffffff1681526020019081526020015f208261ffff166104b1811061132157611320612202565b5b601091828204019190066002026101000a81548161ffff021916908361ffff160217905550505b5f6104d95f8473ffffffffffffffffffffffffffffffffffffffff1673ffffffffffffffffffffffffffffffffffffffff1681526020019081526020015f208261ffff166104b1811061139e5761139d612202565b5b601091828204019190066002026101000a81548161ffff021916908361ffff16021790555060016104d95f8473ffffffffffffffffffffffffffffffffffffffff1673ffffffffffffffffffffffffffffffffffffffff1681526020019081526020015f205f6104b1811061141657611415612202565b5b601091828204019190066002028282829054906101000a900461ffff1661143d9190612816565b92506101000a81548161ffff021916908361ffff1602179055505f60016104d95f8773ffffffffffffffffffffffffffffffffffffffff1673ffffffffffffffffffffffffffffffffffffffff1681526020019081526020015f205f6104b181106114ab576114aa612202565b5b601091828204019190066002029054906101000a900461ffff166114cf919061284b565b9050836104d95f8773ffffffffffffffffffffffffffffffffffffffff1673ffffffffffffffffffffffffffffffffffffffff1681526020019081526020015f208261ffff166104b1811061152757611526612202565b5b601091828204019190066002026101000a81548161ffff021916908361ffff160217905550806104d95f8773ffffffffffffffffffffffffffffffffffffffff1673ffffffffffffffffffffffffffffffffffffffff1681526020019081526020015f205f6104b1811061159e5761159d612202565b5b601091828204019190066002026101000a81548161ffff021916908361ffff1602179055508460028561ffff166104b181106115dd576115dc612202565b5b015f6101000a81548173ffffffffffffffffffffffffffffffffffffffff021916908373ffffffffffffffffffffffffffffffffffffffff1602179055508361ffff168573ffffffffffffffffffffffffffffffffffffffff168473ffffffffffffffffffffffffffffffffffffffff167f89896edbd223c9360ce42ddfed7522a2bffb20c056e4c42d42370cb493b6567660405160405180910390a45050505050565b5f8373ffffffffffffffffffffffffffffffffffffffff163b111561182d578273ffffffffffffffffffffffffffffffffffffffff1663b1cff3806116c4610eeb565b8685856040518563ffffffff1660e01b81526004016116e694939291906128d2565b6020604051808303815f875af192505050801561172157506040513d601f19601f8201168201806040525081019061171e9190612946565b60015b6117a2573d805f811461174f576040519150601f19603f3d011682016040523d82523d5f602084013e611754565b606091505b505f81510361179a57836040517f64a0ae920000000000000000000000000000000000000000000000000000000081526004016117919190611c6a565b60405180910390fd5b805181602001fd5b63b1cff38060e01b7bffffffffffffffffffffffffffffffffffffffffffffffffffffffff1916817bffffffffffffffffffffffffffffffffffffffffffffffffffffffff19161461182b57836040517f64a0ae920000000000000000000000000000000000000000000000000000000081526004016118229190611c6a565b60405180910390fd5b505b50505050565b606060405180602001604052805f815250905090565b60605f600161185784611916565b0190505f8167ffffffffffffffff81111561187557611874611d61565b5b6040519080825280601f01601f1916602001820160405280156118a75781602001600182028036833780820191505090505b5090505f82602001820190505b600115611908578080600190039150507f3031323334353637383961626364656600000000000000000000000000000000600a86061a8153600a85816118fd576118fc612971565b5b0494505f85036118b4575b819350505050919050565b50565b5f805f90507a184f03e93ff9f4daa797ed6e38ed64bf6a1f0100000000000000008310611972577a184f03e93ff9f4daa797ed6e38ed64bf6a1f010000000000000000838161196857611967612971565b5b0492506040810190505b6d04ee2d6d415b85acef810000000083106119af576d04ee2d6d415b85acef810000000083816119a5576119a4612971565b5b0492506020810190505b662386f26fc1000083106119de57662386f26fc1000083816119d4576119d3612971565b5b0492506010810190505b6305f5e1008310611a07576305f5e10083816119fd576119fc612971565b5b0492506008810190505b6127108310611a2c576127108381611a2257611a21612971565b5b0492506004810190505b60648310611a4f5760648381611a4557611a44612971565b5b0492506002810190505b600a8310611a5e576001810190505b80915050919050565b5f7fffffffffffffffffffffffffffffffffffffffff00000000000000000000000082169050919050565b611a9b81611a67565b82525050565b5f602082019050611ab45f830184611a92565b92915050565b5f604051905090565b5f80fd5b5f80fd5b5f73ffffffffffffffffffffffffffffffffffffffff82169050919050565b5f611af482611acb565b9050919050565b611b0481611aea565b8114611b0e575f80fd5b50565b5f81359050611b1f81611afb565b92915050565b5f61ffff82169050919050565b611b3b81611b25565b8114611b45575f80fd5b50565b5f81359050611b5681611b32565b92915050565b5f805f60608486031215611b7357611b72611ac3565b5b5f611b8086828701611b11565b9350506020611b9186828701611b11565b9250506040611ba286828701611b48565b9150509250925092565b5f819050919050565b611bbe81611bac565b82525050565b5f602082019050611bd75f830184611bb5565b92915050565b5f60208284031215611bf257611bf1611ac3565b5b5f611bff84828501611b11565b91505092915050565b611c1181611b25565b82525050565b5f602082019050611c2a5f830184611c08565b92915050565b5f60208284031215611c4557611c44611ac3565b5b5f611c5284828501611b48565b91505092915050565b611c6481611aea565b82525050565b5f602082019050611c7d5f830184611c5b565b92915050565b5f7fffffffffffffffffffff0000000000000000000000000000000000000000000082169050919050565b611cb781611c83565b82525050565b5f602082019050611cd05f830184611cae565b92915050565b5f8115159050919050565b611cea81611cd6565b8114611cf4575f80fd5b50565b5f81359050611d0581611ce1565b92915050565b5f8060408385031215611d2157611d20611ac3565b5b5f611d2e85828601611b11565b9250506020611d3f85828601611cf7565b9150509250929050565b5f80fd5b5f80fd5b5f601f19601f8301169050919050565b7f4e487b71000000000000000000000000000000000000000000000000000000005f52604160045260245ffd5b611d9782611d51565b810181811067ffffffffffffffff82111715611db657611db5611d61565b5b80604052505050565b5f611dc8611aba565b9050611dd48282611d8e565b919050565b5f67ffffffffffffffff821115611df357611df2611d61565b5b611dfc82611d51565b9050602081019050919050565b828183375f83830152505050565b5f611e29611e2484611dd9565b611dbf565b905082815260208101848484011115611e4557611e44611d4d565b5b611e50848285611e09565b509392505050565b5f82601f830112611e6c57611e6b611d49565b5b8135611e7c848260208601611e17565b91505092915050565b5f805f8060808587031215611e9d57611e9c611ac3565b5b5f611eaa87828801611b11565b9450506020611ebb87828801611b11565b9350506040611ecc87828801611b48565b925050606085013567ffffffffffffffff811115611eed57611eec611ac7565b5b611ef987828801611e58565b91505092959194509250565b5f80fd5b5f80fd5b5f8083601f840112611f2257611f21611d49565b5b8235905067ffffffffffffffff811115611f3f57611f3e611f05565b5b602083019150836001820283011115611f5b57611f5a611f09565b5b9250929050565b5f805f805f60808688031215611f7b57611f7a611ac3565b5b5f611f8888828901611b11565b9550506020611f9988828901611b11565b9450506040611faa88828901611b48565b935050606086013567ffffffffffffffff811115611fcb57611fca611ac7565b5b611fd788828901611f0d565b92509250509295509295909350565b5f7fffffffff0000000000000000000000000000000000000000000000000000000082169050919050565b61201a81611fe6565b82525050565b5f6020820190506120335f830184612011565b92915050565b5f81519050919050565b5f82825260208201905092915050565b5f5b83811015612070578082015181840152602081019050612055565b5f8484015250505050565b5f61208582612039565b61208f8185612043565b935061209f818560208601612053565b6120a881611d51565b840191505092915050565b5f6020820190508181035f8301526120cb818461207b565b905092915050565b5f80604083850312156120e9576120e8611ac3565b5b5f6120f685828601611b11565b925050602061210785828601611b48565b9150509250929050565b5f806040838503121561212757612126611ac3565b5b5f61213485828601611b11565b925050602061214585828601611b11565b9150509250929050565b61215881611cd6565b82525050565b5f6020820190506121715f83018461214f565b92915050565b5f65ffffffffffff82169050919050565b61219181612177565b811461219b575f80fd5b50565b5f813590506121ac81612188565b92915050565b5f805f606084860312156121c9576121c8611ac3565b5b5f6121d686828701611b48565b93505060206121e78682870161219e565b92505060406121f886828701611b11565b9150509250925092565b7f4e487b71000000000000000000000000000000000000000000000000000000005f52603260045260245ffd5b7f546865207472616e73666572206f66207468697320746f6b656e2069732063755f8201527f7272656e746c792062616e6e6564000000000000000000000000000000000000602082015250565b5f612289602e83612043565b91506122948261222f565b604082019050919050565b5f6020820190508181035f8301526122b68161227d565b9050919050565b5f819050919050565b5f819050919050565b5f6122e96122e46122df84611b25565b6122c6565b6122bd565b9050919050565b6122f9816122cf565b82525050565b5f6040820190506123125f830185611c5b565b61231f60208301846122f0565b9392505050565b5f6060820190506123395f830186611c5b565b61234660208301856122f0565b6123536040830184611c5b565b949350505050565b7f54686520696e70757420616464726573732063616e6e6f74206265207a65726f5f82015250565b5f61238f602083612043565b915061239a8261235b565b602082019050919050565b5f6020820190508181035f8301526123bc81612383565b9050919050565b7f5468652061646472657373206f6620746865206f776e657220616e64207468655f8201527f206f70657261746f72206d75737420626520646966666572656e740000000000602082015250565b5f61241d603b83612043565b9150612428826123c3565b604082019050919050565b5f6020820190508181035f83015261244a81612411565b9050919050565b5f81905092915050565b5f61246582612039565b61246f8185612451565b935061247f818560208601612053565b80840191505092915050565b5f612496828561245b565b91506124a2828461245b565b91508190509392505050565b7f5468652061646472657373206f66207468652072656769737472616e74206d755f8201527f7374206e6f742062652030206f72207468652061646472657373206f6620612060208201527f636f6e7472616374000000000000000000000000000000000000000000000000604082015250565b5f61252e604883612043565b9150612539826124ae565b606082019050919050565b5f6020820190508181035f83015261255b81612522565b9050919050565b7f596f7520646f206e6f7420686176652061636365737320746f207468697320665f8201527f756e6374696f6e00000000000000000000000000000000000000000000000000602082015250565b5f6125bc602783612043565b91506125c782612562565b604082019050919050565b5f6020820190508181035f8301526125e9816125b0565b9050919050565b7f54686520656e746572656420706172616d657465727320617265206e6f7420615f8201527f636365707461626c650000000000000000000000000000000000000000000000602082015250565b5f61264a602983612043565b9150612655826125f0565b604082019050919050565b5f6020820190508181035f8301526126778161263e565b9050919050565b7f596f7520646f206e6f742068617665207065726d697373696f6e20746f2075705f8201527f6772616465000000000000000000000000000000000000000000000000000000602082015250565b5f6126d8602583612043565b91506126e38261267e565b604082019050919050565b5f6020820190508181035f830152612705816126cc565b9050919050565b7f54686520494420656e746572656420697320696e76616c69642e204974206d755f8201527f737420626520696e207468697320696e74657276616c2030203c206964203c3d60208201527f2063757272656e7420746f6b656e730000000000000000000000000000000000604082015250565b5f61278c604f83612043565b91506127978261270c565b606082019050919050565b5f6020820190508181035f8301526127b981612780565b9050919050565b7f4e487b71000000000000000000000000000000000000000000000000000000005f52601160045260245ffd5b5f6127f782611b25565b915061ffff820361280b5761280a6127c0565b5b600182019050919050565b5f61282082611b25565b915061282b83611b25565b9250828203905061ffff811115612845576128446127c0565b5b92915050565b5f61285582611b25565b915061286083611b25565b9250828201905061ffff81111561287a576128796127c0565b5b92915050565b5f81519050919050565b5f82825260208201905092915050565b5f6128a482612880565b6128ae818561288a565b93506128be818560208601612053565b6128c781611d51565b840191505092915050565b5f6080820190506128e55f830187611c5b565b6128f26020830186611c5b565b6128ff6040830185611c08565b8181036060830152612911818461289a565b905095945050505050565b61292581611fe6565b811461292f575f80fd5b50565b5f815190506129408161291c565b92915050565b5f6020828403121561295b5761295a611ac3565b5b5f61296884828501612932565b91505092915050565b7f4e487b71000000000000000000000000000000000000000000000000000000005f52601260045260245ffdfea2646970667358221220948e41ac172c734cb51e5e869807f752deccbc3db0dc4d0de727956f165a0ec364736f6c63430008140033",
					"opcodes": "PUSH1 0x80 PUSH1 0x40 MSTORE CALLVALUE DUP1 ISZERO PUSH3 0x10 JUMPI PUSH0 DUP1 REVERT JUMPDEST POP PUSH1 0x40 MLOAD PUSH3 0x2BC5 CODESIZE SUB DUP1 PUSH3 0x2BC5 DUP4 CODECOPY DUP2 DUP2 ADD PUSH1 0x40 MSTORE DUP2 ADD SWAP1 PUSH3 0x36 SWAP2 SWAP1 PUSH3 0x19E JUMP JUMPDEST DUP2 PUSH0 DUP1 PUSH2 0x100 EXP DUP2 SLOAD DUP2 PUSH20 0xFFFFFFFFFFFFFFFFFFFFFFFFFFFFFFFFFFFFFFFF MUL NOT AND SWAP1 DUP4 PUSH1 0x60 SHR MUL OR SWAP1 SSTORE POP DUP1 PUSH0 PUSH1 0x14 PUSH2 0x100 EXP DUP2 SLOAD DUP2 PUSH10 0xFFFFFFFFFFFFFFFFFFFF MUL NOT AND SWAP1 DUP4 PUSH1 0xB0 SHR MUL OR SWAP1 SSTORE POP PUSH3 0x95 PUSH3 0xDF PUSH1 0x20 SHL PUSH1 0x20 SHR JUMP JUMPDEST PUSH1 0x1 PUSH0 ADD PUSH1 0xC PUSH2 0x100 EXP DUP2 SLOAD DUP2 PUSH20 0xFFFFFFFFFFFFFFFFFFFFFFFFFFFFFFFFFFFFFFFF MUL NOT AND SWAP1 DUP4 PUSH20 0xFFFFFFFFFFFFFFFFFFFFFFFFFFFFFFFFFFFFFFFF AND MUL OR SWAP1 SSTORE POP POP POP PUSH3 0x1E3 JUMP JUMPDEST PUSH0 CALLER SWAP1 POP SWAP1 JUMP JUMPDEST PUSH0 DUP1 REVERT JUMPDEST PUSH0 PUSH32 0xFFFFFFFFFFFFFFFFFFFFFFFFFFFFFFFFFFFFFFFF000000000000000000000000 DUP3 AND SWAP1 POP SWAP2 SWAP1 POP JUMP JUMPDEST PUSH3 0x120 DUP2 PUSH3 0xEA JUMP JUMPDEST DUP2 EQ PUSH3 0x12B JUMPI PUSH0 DUP1 REVERT JUMPDEST POP JUMP JUMPDEST PUSH0 DUP2 MLOAD SWAP1 POP PUSH3 0x13E DUP2 PUSH3 0x115 JUMP JUMPDEST SWAP3 SWAP2 POP POP JUMP JUMPDEST PUSH0 PUSH32 0xFFFFFFFFFFFFFFFFFFFF00000000000000000000000000000000000000000000 DUP3 AND SWAP1 POP SWAP2 SWAP1 POP JUMP JUMPDEST PUSH3 0x17A DUP2 PUSH3 0x144 JUMP JUMPDEST DUP2 EQ PUSH3 0x185 JUMPI PUSH0 DUP1 REVERT JUMPDEST POP JUMP JUMPDEST PUSH0 DUP2 MLOAD SWAP1 POP PUSH3 0x198 DUP2 PUSH3 0x16F JUMP JUMPDEST SWAP3 SWAP2 POP POP JUMP JUMPDEST PUSH0 DUP1 PUSH1 0x40 DUP4 DUP6 SUB SLT ISZERO PUSH3 0x1B7 JUMPI PUSH3 0x1B6 PUSH3 0xE6 JUMP JUMPDEST JUMPDEST PUSH0 PUSH3 0x1C6 DUP6 DUP3 DUP7 ADD PUSH3 0x12E JUMP JUMPDEST SWAP3 POP POP PUSH1 0x20 PUSH3 0x1D9 DUP6 DUP3 DUP7 ADD PUSH3 0x188 JUMP JUMPDEST SWAP2 POP POP SWAP3 POP SWAP3 SWAP1 POP JUMP JUMPDEST PUSH2 0x29D4 DUP1 PUSH3 0x1F1 PUSH0 CODECOPY PUSH0 RETURN INVALID PUSH1 0x80 PUSH1 0x40 MSTORE CALLVALUE DUP1 ISZERO PUSH2 0xF JUMPI PUSH0 DUP1 REVERT JUMPDEST POP PUSH1 0x4 CALLDATASIZE LT PUSH2 0xFE JUMPI PUSH0 CALLDATALOAD PUSH1 0xE0 SHR DUP1 PUSH4 0xA22CB465 GT PUSH2 0x95 JUMPI DUP1 PUSH4 0xE560CA43 GT PUSH2 0x64 JUMPI DUP1 PUSH4 0xE560CA43 EQ PUSH2 0x2BC JUMPI DUP1 PUSH4 0xE985E9C5 EQ PUSH2 0x2D8 JUMPI DUP1 PUSH4 0xECADBC04 EQ PUSH2 0x308 JUMPI DUP1 PUSH4 0xEDBE39A0 EQ PUSH2 0x312 JUMPI PUSH2 0xFE JUMP JUMPDEST DUP1 PUSH4 0xA22CB465 EQ PUSH2 0x224 JUMPI DUP1 PUSH4 0xB145AE31 EQ PUSH2 0x240 JUMPI DUP1 PUSH4 0xB1CFF380 EQ PUSH2 0x25C JUMPI DUP1 PUSH4 0xDD7D8440 EQ PUSH2 0x28C JUMPI PUSH2 0xFE JUMP JUMPDEST DUP1 PUSH4 0x70A08231 GT PUSH2 0xD1 JUMPI DUP1 PUSH4 0x70A08231 EQ PUSH2 0x176 JUMPI DUP1 PUSH4 0x82A7CF1E EQ PUSH2 0x1A6 JUMPI DUP1 PUSH4 0x93B871F2 EQ PUSH2 0x1D6 JUMPI DUP1 PUSH4 0x95D89B41 EQ PUSH2 0x206 JUMPI PUSH2 0xFE JUMP JUMPDEST DUP1 PUSH4 0x6FDDE03 EQ PUSH2 0x102 JUMPI DUP1 PUSH4 0x7394401 EQ PUSH2 0x120 JUMPI DUP1 PUSH4 0x4EC3DCFE EQ PUSH2 0x13C JUMPI DUP1 PUSH4 0x6E1514F1 EQ PUSH2 0x158 JUMPI JUMPDEST PUSH0 DUP1 REVERT JUMPDEST PUSH2 0x10A PUSH2 0x32E JUMP JUMPDEST PUSH1 0x40 MLOAD PUSH2 0x117 SWAP2 SWAP1 PUSH2 0x1AA1 JUMP JUMPDEST PUSH1 0x40 MLOAD DUP1 SWAP2 SUB SWAP1 RETURN JUMPDEST PUSH2 0x13A PUSH1 0x4 DUP1 CALLDATASIZE SUB DUP2 ADD SWAP1 PUSH2 0x135 SWAP2 SWAP1 PUSH2 0x1B5C JUMP JUMPDEST PUSH2 0x342 JUMP JUMPDEST STOP JUMPDEST PUSH2 0x156 PUSH1 0x4 DUP1 CALLDATASIZE SUB DUP2 ADD SWAP1 PUSH2 0x151 SWAP2 SWAP1 PUSH2 0x1B5C JUMP JUMPDEST PUSH2 0x361 JUMP JUMPDEST STOP JUMPDEST PUSH2 0x160 PUSH2 0x5BA JUMP JUMPDEST PUSH1 0x40 MLOAD PUSH2 0x16D SWAP2 SWAP1 PUSH2 0x1BC4 JUMP JUMPDEST PUSH1 0x40 MLOAD DUP1 SWAP2 SUB SWAP1 RETURN JUMPDEST PUSH2 0x190 PUSH1 0x4 DUP1 CALLDATASIZE SUB DUP2 ADD SWAP1 PUSH2 0x18B SWAP2 SWAP1 PUSH2 0x1BDD JUMP JUMPDEST PUSH2 0x5BE JUMP JUMPDEST PUSH1 0x40 MLOAD PUSH2 0x19D SWAP2 SWAP1 PUSH2 0x1C17 JUMP JUMPDEST PUSH1 0x40 MLOAD DUP1 SWAP2 SUB SWAP1 RETURN JUMPDEST PUSH2 0x1C0 PUSH1 0x4 DUP1 CALLDATASIZE SUB DUP2 ADD SWAP1 PUSH2 0x1BB SWAP2 SWAP1 PUSH2 0x1C30 JUMP JUMPDEST PUSH2 0x69F JUMP JUMPDEST PUSH1 0x40 MLOAD PUSH2 0x1CD SWAP2 SWAP1 PUSH2 0x1C6A JUMP JUMPDEST PUSH1 0x40 MLOAD DUP1 SWAP2 SUB SWAP1 RETURN JUMPDEST PUSH2 0x1F0 PUSH1 0x4 DUP1 CALLDATASIZE SUB DUP2 ADD SWAP1 PUSH2 0x1EB SWAP2 SWAP1 PUSH2 0x1C30 JUMP JUMPDEST PUSH2 0x6B0 JUMP JUMPDEST PUSH1 0x40 MLOAD PUSH2 0x1FD SWAP2 SWAP1 PUSH2 0x1C6A JUMP JUMPDEST PUSH1 0x40 MLOAD DUP1 SWAP2 SUB SWAP1 RETURN JUMPDEST PUSH2 0x20E PUSH2 0x6FC JUMP JUMPDEST PUSH1 0x40 MLOAD PUSH2 0x21B SWAP2 SWAP1 PUSH2 0x1CBD JUMP JUMPDEST PUSH1 0x40 MLOAD DUP1 SWAP2 SUB SWAP1 RETURN JUMPDEST PUSH2 0x23E PUSH1 0x4 DUP1 CALLDATASIZE SUB DUP2 ADD SWAP1 PUSH2 0x239 SWAP2 SWAP1 PUSH2 0x1D0B JUMP JUMPDEST PUSH2 0x711 JUMP JUMPDEST STOP JUMPDEST PUSH2 0x25A PUSH1 0x4 DUP1 CALLDATASIZE SUB DUP2 ADD SWAP1 PUSH2 0x255 SWAP2 SWAP1 PUSH2 0x1E85 JUMP JUMPDEST PUSH2 0x8FD JUMP JUMPDEST STOP JUMPDEST PUSH2 0x276 PUSH1 0x4 DUP1 CALLDATASIZE SUB DUP2 ADD SWAP1 PUSH2 0x271 SWAP2 SWAP1 PUSH2 0x1F62 JUMP JUMPDEST PUSH2 0x91A JUMP JUMPDEST PUSH1 0x40 MLOAD PUSH2 0x283 SWAP2 SWAP1 PUSH2 0x2020 JUMP JUMPDEST PUSH1 0x40 MLOAD DUP1 SWAP2 SUB SWAP1 RETURN JUMPDEST PUSH2 0x2A6 PUSH1 0x4 DUP1 CALLDATASIZE SUB DUP2 ADD SWAP1 PUSH2 0x2A1 SWAP2 SWAP1 PUSH2 0x1C30 JUMP JUMPDEST PUSH2 0x924 JUMP JUMPDEST PUSH1 0x40 MLOAD PUSH2 0x2B3 SWAP2 SWAP1 PUSH2 0x20B3 JUMP JUMPDEST PUSH1 0x40 MLOAD DUP1 SWAP2 SUB SWAP1 RETURN JUMPDEST PUSH2 0x2D6 PUSH1 0x4 DUP1 CALLDATASIZE SUB DUP2 ADD SWAP1 PUSH2 0x2D1 SWAP2 SWAP1 PUSH2 0x20D3 JUMP JUMPDEST PUSH2 0x98E JUMP JUMPDEST STOP JUMPDEST PUSH2 0x2F2 PUSH1 0x4 DUP1 CALLDATASIZE SUB DUP2 ADD SWAP1 PUSH2 0x2ED SWAP2 SWAP1 PUSH2 0x2111 JUMP JUMPDEST PUSH2 0xAB2 JUMP JUMPDEST PUSH1 0x40 MLOAD PUSH2 0x2FF SWAP2 SWAP1 PUSH2 0x215E JUMP JUMPDEST PUSH1 0x40 MLOAD DUP1 SWAP2 SUB SWAP1 RETURN JUMPDEST PUSH2 0x310 PUSH2 0xB41 JUMP JUMPDEST STOP JUMPDEST PUSH2 0x32C PUSH1 0x4 DUP1 CALLDATASIZE SUB DUP2 ADD SWAP1 PUSH2 0x327 SWAP2 SWAP1 PUSH2 0x21B2 JUMP JUMPDEST PUSH2 0xBE0 JUMP JUMPDEST STOP JUMPDEST PUSH0 DUP1 PUSH0 SWAP1 SLOAD SWAP1 PUSH2 0x100 EXP SWAP1 DIV PUSH1 0x60 SHL SWAP1 POP SWAP1 JUMP JUMPDEST PUSH2 0x35C DUP4 DUP4 DUP4 PUSH1 0x40 MLOAD DUP1 PUSH1 0x20 ADD PUSH1 0x40 MSTORE DUP1 PUSH0 DUP2 MSTORE POP PUSH2 0x8FD JUMP JUMPDEST POP POP POP JUMP JUMPDEST PUSH0 PUSH20 0xFFFFFFFFFFFFFFFFFFFFFFFFFFFFFFFFFFFFFFFF AND DUP3 PUSH20 0xFFFFFFFFFFFFFFFFFFFFFFFFFFFFFFFFFFFFFFFF AND SUB PUSH2 0x3D1 JUMPI PUSH0 PUSH1 0x40 MLOAD PUSH32 0x64A0AE9200000000000000000000000000000000000000000000000000000000 DUP2 MSTORE PUSH1 0x4 ADD PUSH2 0x3C8 SWAP2 SWAP1 PUSH2 0x1C6A JUMP JUMPDEST PUSH1 0x40 MLOAD DUP1 SWAP2 SUB SWAP1 REVERT JUMPDEST PUSH0 PUSH2 0x3DB DUP3 PUSH2 0xE3D JUMP JUMPDEST SWAP1 POP PUSH2 0x4B3 DUP3 PUSH2 0xFFFF AND PUSH2 0x4B1 DUP2 LT PUSH2 0x3F7 JUMPI PUSH2 0x3F6 PUSH2 0x2202 JUMP JUMPDEST JUMPDEST PUSH1 0x20 SWAP2 DUP3 DUP3 DIV ADD SWAP2 SWAP1 MOD SWAP1 SLOAD SWAP1 PUSH2 0x100 EXP SWAP1 DIV PUSH1 0xFF AND ISZERO PUSH2 0x44D JUMPI PUSH1 0x40 MLOAD PUSH32 0x8C379A000000000000000000000000000000000000000000000000000000000 DUP2 MSTORE PUSH1 0x4 ADD PUSH2 0x444 SWAP1 PUSH2 0x229F JUMP JUMPDEST PUSH1 0x40 MLOAD DUP1 SWAP2 SUB SWAP1 REVERT JUMPDEST DUP1 PUSH20 0xFFFFFFFFFFFFFFFFFFFFFFFFFFFFFFFFFFFFFFFF AND PUSH2 0x46C PUSH2 0xEEB JUMP JUMPDEST PUSH20 0xFFFFFFFFFFFFFFFFFFFFFFFFFFFFFFFFFFFFFFFF AND EQ DUP1 PUSH2 0x49B JUMPI POP PUSH2 0x49A DUP2 PUSH2 0x495 PUSH2 0xEEB JUMP JUMPDEST PUSH2 0xAB2 JUMP JUMPDEST JUMPDEST DUP1 PUSH2 0x4E0 JUMPI POP PUSH2 0x4A9 PUSH2 0xEEB JUMP JUMPDEST PUSH20 0xFFFFFFFFFFFFFFFFFFFFFFFFFFFFFFFFFFFFFFFF AND PUSH2 0x4C8 DUP4 PUSH2 0x6B0 JUMP JUMPDEST PUSH20 0xFFFFFFFFFFFFFFFFFFFFFFFFFFFFFFFFFFFFFFFF AND EQ JUMPDEST PUSH2 0x52A JUMPI PUSH2 0x4EC PUSH2 0xEEB JUMP JUMPDEST DUP3 PUSH1 0x40 MLOAD PUSH32 0x177E802F00000000000000000000000000000000000000000000000000000000 DUP2 MSTORE PUSH1 0x4 ADD PUSH2 0x521 SWAP3 SWAP2 SWAP1 PUSH2 0x22FF JUMP JUMPDEST PUSH1 0x40 MLOAD DUP1 SWAP2 SUB SWAP1 REVERT JUMPDEST DUP4 PUSH20 0xFFFFFFFFFFFFFFFFFFFFFFFFFFFFFFFFFFFFFFFF AND DUP2 PUSH20 0xFFFFFFFFFFFFFFFFFFFFFFFFFFFFFFFFFFFFFFFF AND EQ PUSH2 0x59E JUMPI DUP4 DUP3 DUP3 PUSH1 0x40 MLOAD PUSH32 0x64283D7B00000000000000000000000000000000000000000000000000000000 DUP2 MSTORE PUSH1 0x4 ADD PUSH2 0x595 SWAP4 SWAP3 SWAP2 SWAP1 PUSH2 0x2326 JUMP JUMPDEST PUSH1 0x40 MLOAD DUP1 SWAP2 SUB SWAP1 REVERT JUMPDEST PUSH2 0x5A9 PUSH0 DUP4 DUP4 PUSH2 0xEF2 JUMP JUMPDEST PUSH2 0x5B4 DUP4 DUP4 DUP4 PUSH2 0xFAE JUMP JUMPDEST POP POP POP POP JUMP JUMPDEST PUSH0 SWAP1 JUMP JUMPDEST PUSH0 DUP1 PUSH20 0xFFFFFFFFFFFFFFFFFFFFFFFFFFFFFFFFFFFFFFFF AND DUP3 PUSH20 0xFFFFFFFFFFFFFFFFFFFFFFFFFFFFFFFFFFFFFFFF AND SUB PUSH2 0x62D JUMPI PUSH1 0x40 MLOAD PUSH32 0x8C379A000000000000000000000000000000000000000000000000000000000 DUP2 MSTORE PUSH1 0x4 ADD PUSH2 0x624 SWAP1 PUSH2 0x23A5 JUMP JUMPDEST PUSH1 0x40 MLOAD DUP1 SWAP2 SUB SWAP1 REVERT JUMPDEST PUSH2 0x4D9 PUSH0 DUP4 PUSH20 0xFFFFFFFFFFFFFFFFFFFFFFFFFFFFFFFFFFFFFFFF AND PUSH20 0xFFFFFFFFFFFFFFFFFFFFFFFFFFFFFFFFFFFFFFFF AND DUP2 MSTORE PUSH1 0x20 ADD SWAP1 DUP2 MSTORE PUSH1 0x20 ADD PUSH0 KECCAK256 PUSH0 PUSH2 0x4B1 DUP2 LT PUSH2 0x67E JUMPI PUSH2 0x67D PUSH2 0x2202 JUMP JUMPDEST JUMPDEST PUSH1 0x10 SWAP2 DUP3 DUP3 DIV ADD SWAP2 SWAP1 MOD PUSH1 0x2 MUL SWAP1 SLOAD SWAP1 PUSH2 0x100 EXP SWAP1 DIV PUSH2 0xFFFF AND SWAP1 POP SWAP2 SWAP1 POP JUMP JUMPDEST PUSH0 PUSH2 0x6A9 DUP3 PUSH2 0xE3D JUMP JUMPDEST SWAP1 POP SWAP2 SWAP1 POP JUMP JUMPDEST PUSH0 PUSH2 0x6BA DUP3 PUSH2 0xE3D JUMP JUMPDEST POP PUSH2 0x4DA PUSH0 DUP4 PUSH2 0xFFFF AND PUSH2 0xFFFF AND DUP2 MSTORE PUSH1 0x20 ADD SWAP1 DUP2 MSTORE PUSH1 0x20 ADD PUSH0 KECCAK256 PUSH0 SWAP1 SLOAD SWAP1 PUSH2 0x100 EXP SWAP1 DIV PUSH20 0xFFFFFFFFFFFFFFFFFFFFFFFFFFFFFFFFFFFFFFFF AND SWAP1 POP SWAP2 SWAP1 POP JUMP JUMPDEST PUSH0 DUP1 PUSH1 0x14 SWAP1 SLOAD SWAP1 PUSH2 0x100 EXP SWAP1 DIV PUSH1 0xB0 SHL SWAP1 POP SWAP1 JUMP JUMPDEST DUP2 PUSH20 0xFFFFFFFFFFFFFFFFFFFFFFFFFFFFFFFFFFFFFFFF AND PUSH2 0x730 PUSH2 0xEEB JUMP JUMPDEST PUSH20 0xFFFFFFFFFFFFFFFFFFFFFFFFFFFFFFFFFFFFFFFF AND SUB PUSH2 0x786 JUMPI PUSH1 0x40 MLOAD PUSH32 0x8C379A000000000000000000000000000000000000000000000000000000000 DUP2 MSTORE PUSH1 0x4 ADD PUSH2 0x77D SWAP1 PUSH2 0x2433 JUMP JUMPDEST PUSH1 0x40 MLOAD DUP1 SWAP2 SUB SWAP1 REVERT JUMPDEST PUSH0 PUSH20 0xFFFFFFFFFFFFFFFFFFFFFFFFFFFFFFFFFFFFFFFF AND DUP3 PUSH20 0xFFFFFFFFFFFFFFFFFFFFFFFFFFFFFFFFFFFFFFFF AND SUB PUSH2 0x7F6 JUMPI DUP2 PUSH1 0x40 MLOAD PUSH32 0x5B08BA1800000000000000000000000000000000000000000000000000000000 DUP2 MSTORE PUSH1 0x4 ADD PUSH2 0x7ED SWAP2 SWAP1 PUSH2 0x1C6A JUMP JUMPDEST PUSH1 0x40 MLOAD DUP1 SWAP2 SUB SWAP1 REVERT JUMPDEST DUP1 PUSH2 0x4DB PUSH0 PUSH2 0x803 PUSH2 0xEEB JUMP JUMPDEST PUSH20 0xFFFFFFFFFFFFFFFFFFFFFFFFFFFFFFFFFFFFFFFF AND PUSH20 0xFFFFFFFFFFFFFFFFFFFFFFFFFFFFFFFFFFFFFFFF AND DUP2 MSTORE PUSH1 0x20 ADD SWAP1 DUP2 MSTORE PUSH1 0x20 ADD PUSH0 KECCAK256 PUSH0 DUP5 PUSH20 0xFFFFFFFFFFFFFFFFFFFFFFFFFFFFFFFFFFFFFFFF AND PUSH20 0xFFFFFFFFFFFFFFFFFFFFFFFFFFFFFFFFFFFFFFFF AND DUP2 MSTORE PUSH1 0x20 ADD SWAP1 DUP2 MSTORE PUSH1 0x20 ADD PUSH0 KECCAK256 PUSH0 PUSH2 0x100 EXP DUP2 SLOAD DUP2 PUSH1 0xFF MUL NOT AND SWAP1 DUP4 ISZERO ISZERO MUL OR SWAP1 SSTORE POP DUP2 PUSH20 0xFFFFFFFFFFFFFFFFFFFFFFFFFFFFFFFFFFFFFFFF AND PUSH2 0x8AC PUSH2 0xEEB JUMP JUMPDEST PUSH20 0xFFFFFFFFFFFFFFFFFFFFFFFFFFFFFFFFFFFFFFFF AND PUSH32 0x17307EAB39AB6107E8899845AD3D59BD9653F200F220920489CA2B5937696C31 DUP4 PUSH1 0x40 MLOAD PUSH2 0x8F1 SWAP2 SWAP1 PUSH2 0x215E JUMP JUMPDEST PUSH1 0x40 MLOAD DUP1 SWAP2 SUB SWAP1 LOG3 POP POP JUMP JUMPDEST PUSH2 0x908 DUP5 DUP5 DUP5 PUSH2 0x361 JUMP JUMPDEST PUSH2 0x914 DUP5 DUP5 DUP5 DUP5 PUSH2 0x1681 JUMP JUMPDEST POP POP POP POP JUMP JUMPDEST PUSH0 SWAP6 SWAP5 POP POP POP POP POP JUMP JUMPDEST PUSH1 0x60 PUSH2 0x92F DUP3 PUSH2 0xE3D JUMP JUMPDEST POP PUSH0 PUSH2 0x939 PUSH2 0x1833 JUMP JUMPDEST SWAP1 POP PUSH0 DUP2 MLOAD GT PUSH2 0x957 JUMPI PUSH1 0x40 MLOAD DUP1 PUSH1 0x20 ADD PUSH1 0x40 MSTORE DUP1 PUSH0 DUP2 MSTORE POP PUSH2 0x986 JUMP JUMPDEST DUP1 PUSH2 0x965 DUP5 PUSH2 0xFFFF AND PUSH2 0x1849 JUMP JUMPDEST PUSH1 0x40 MLOAD PUSH1 0x20 ADD PUSH2 0x976 SWAP3 SWAP2 SWAP1 PUSH2 0x248B JUMP JUMPDEST PUSH1 0x40 MLOAD PUSH1 0x20 DUP2 DUP4 SUB SUB DUP2 MSTORE SWAP1 PUSH1 0x40 MSTORE JUMPDEST SWAP2 POP POP SWAP2 SWAP1 POP JUMP JUMPDEST PUSH0 PUSH2 0x998 DUP3 PUSH2 0xE3D JUMP JUMPDEST SWAP1 POP DUP3 PUSH20 0xFFFFFFFFFFFFFFFFFFFFFFFFFFFFFFFFFFFFFFFF AND DUP2 PUSH20 0xFFFFFFFFFFFFFFFFFFFFFFFFFFFFFFFFFFFFFFFF AND SUB PUSH2 0xA08 JUMPI PUSH1 0x40 MLOAD PUSH32 0x8C379A000000000000000000000000000000000000000000000000000000000 DUP2 MSTORE PUSH1 0x4 ADD PUSH2 0x9FF SWAP1 PUSH2 0x2433 JUMP JUMPDEST PUSH1 0x40 MLOAD DUP1 SWAP2 SUB SWAP1 REVERT JUMPDEST PUSH2 0xA10 PUSH2 0xEEB JUMP JUMPDEST PUSH20 0xFFFFFFFFFFFFFFFFFFFFFFFFFFFFFFFFFFFFFFFF AND DUP2 PUSH20 0xFFFFFFFFFFFFFFFFFFFFFFFFFFFFFFFFFFFFFFFF AND EQ ISZERO DUP1 ISZERO PUSH2 0xA59 JUMPI POP PUSH2 0xA57 DUP2 PUSH2 0xA52 PUSH2 0xEEB JUMP JUMPDEST PUSH2 0xAB2 JUMP JUMPDEST ISZERO JUMPDEST ISZERO PUSH2 0xAA2 JUMPI PUSH2 0xA66 PUSH2 0xEEB JUMP JUMPDEST PUSH1 0x40 MLOAD PUSH32 0xA9FBF51F00000000000000000000000000000000000000000000000000000000 DUP2 MSTORE PUSH1 0x4 ADD PUSH2 0xA99 SWAP2 SWAP1 PUSH2 0x1C6A JUMP JUMPDEST PUSH1 0x40 MLOAD DUP1 SWAP2 SUB SWAP1 REVERT JUMPDEST PUSH2 0xAAD DUP4 DUP4 DUP4 PUSH2 0xEF2 JUMP JUMPDEST POP POP POP JUMP JUMPDEST PUSH0 PUSH2 0x4DB PUSH0 DUP5 PUSH20 0xFFFFFFFFFFFFFFFFFFFFFFFFFFFFFFFFFFFFFFFF AND PUSH20 0xFFFFFFFFFFFFFFFFFFFFFFFFFFFFFFFFFFFFFFFF AND DUP2 MSTORE PUSH1 0x20 ADD SWAP1 DUP2 MSTORE PUSH1 0x20 ADD PUSH0 KECCAK256 PUSH0 DUP4 PUSH20 0xFFFFFFFFFFFFFFFFFFFFFFFFFFFFFFFFFFFFFFFF AND PUSH20 0xFFFFFFFFFFFFFFFFFFFFFFFFFFFFFFFFFFFFFFFF AND DUP2 MSTORE PUSH1 0x20 ADD SWAP1 DUP2 MSTORE PUSH1 0x20 ADD PUSH0 KECCAK256 PUSH0 SWAP1 SLOAD SWAP1 PUSH2 0x100 EXP SWAP1 DIV PUSH1 0xFF AND SWAP1 POP SWAP3 SWAP2 POP POP JUMP JUMPDEST PUSH0 PUSH2 0xB4A PUSH2 0xEEB JUMP JUMPDEST SWAP1 POP PUSH0 PUSH20 0xFFFFFFFFFFFFFFFFFFFFFFFFFFFFFFFFFFFFFFFF AND DUP2 PUSH20 0xFFFFFFFFFFFFFFFFFFFFFFFFFFFFFFFFFFFFFFFF AND EQ ISZERO DUP1 ISZERO PUSH2 0xB9E JUMPI POP PUSH0 DUP2 PUSH20 0xFFFFFFFFFFFFFFFFFFFFFFFFFFFFFFFFFFFFFFFF AND EXTCODESIZE EQ JUMPDEST PUSH2 0xBDD JUMPI PUSH1 0x40 MLOAD PUSH32 0x8C379A000000000000000000000000000000000000000000000000000000000 DUP2 MSTORE PUSH1 0x4 ADD PUSH2 0xBD4 SWAP1 PUSH2 0x2544 JUMP JUMPDEST PUSH1 0x40 MLOAD DUP1 SWAP2 SUB SWAP1 REVERT JUMPDEST POP JUMP JUMPDEST PUSH1 0x1 PUSH0 ADD PUSH1 0xC SWAP1 SLOAD SWAP1 PUSH2 0x100 EXP SWAP1 DIV PUSH20 0xFFFFFFFFFFFFFFFFFFFFFFFFFFFFFFFFFFFFFFFF AND PUSH20 0xFFFFFFFFFFFFFFFFFFFFFFFFFFFFFFFFFFFFFFFF AND PUSH2 0xC23 PUSH2 0xEEB JUMP JUMPDEST PUSH20 0xFFFFFFFFFFFFFFFFFFFFFFFFFFFFFFFFFFFFFFFF AND EQ PUSH2 0xC79 JUMPI PUSH1 0x40 MLOAD PUSH32 0x8C379A000000000000000000000000000000000000000000000000000000000 DUP2 MSTORE PUSH1 0x4 ADD PUSH2 0xC70 SWAP1 PUSH2 0x25D2 JUMP JUMPDEST PUSH1 0x40 MLOAD DUP1 SWAP2 SUB SWAP1 REVERT JUMPDEST PUSH1 0x1 PUSH0 ADD PUSH1 0x4 SWAP1 SLOAD SWAP1 PUSH2 0x100 EXP SWAP1 DIV PUSH2 0xFFFF AND PUSH2 0xFFFF AND DUP4 PUSH2 0xFFFF AND GT DUP1 ISZERO PUSH2 0xCAA JUMPI POP TIMESTAMP DUP3 PUSH6 0xFFFFFFFFFFFF AND LT ISZERO JUMPDEST PUSH2 0xCE9 JUMPI PUSH1 0x40 MLOAD PUSH32 0x8C379A000000000000000000000000000000000000000000000000000000000 DUP2 MSTORE PUSH1 0x4 ADD PUSH2 0xCE0 SWAP1 PUSH2 0x2660 JUMP JUMPDEST PUSH1 0x40 MLOAD DUP1 SWAP2 SUB SWAP1 REVERT JUMPDEST PUSH2 0x3E8 DUP4 PUSH2 0xFFFF AND GT ISZERO PUSH2 0xD5F JUMPI PUSH0 PUSH2 0x4B1 DUP5 PUSH2 0xFFFF AND LT DUP1 ISZERO PUSH2 0xD13 JUMPI POP PUSH2 0xD10 PUSH2 0x5BA JUMP JUMPDEST DUP2 EQ JUMPDEST PUSH2 0xD52 JUMPI PUSH1 0x40 MLOAD PUSH32 0x8C379A000000000000000000000000000000000000000000000000000000000 DUP2 MSTORE PUSH1 0x4 ADD PUSH2 0xD49 SWAP1 PUSH2 0x26EE JUMP JUMPDEST PUSH1 0x40 MLOAD DUP1 SWAP2 SUB SWAP1 REVERT JUMPDEST PUSH0 PUSH2 0xD5C DUP2 PUSH2 0x1913 JUMP JUMPDEST POP POP JUMPDEST DUP3 PUSH1 0x1 PUSH0 ADD PUSH0 PUSH2 0x100 EXP DUP2 SLOAD DUP2 PUSH2 0xFFFF MUL NOT AND SWAP1 DUP4 PUSH2 0xFFFF AND MUL OR SWAP1 SSTORE POP DUP2 PUSH1 0x1 PUSH0 ADD PUSH1 0x6 PUSH2 0x100 EXP DUP2 SLOAD DUP2 PUSH6 0xFFFFFFFFFFFF MUL NOT AND SWAP1 DUP4 PUSH6 0xFFFFFFFFFFFF AND MUL OR SWAP1 SSTORE POP DUP1 PUSH1 0x1 PUSH0 ADD PUSH1 0xC PUSH2 0x100 EXP DUP2 SLOAD DUP2 PUSH20 0xFFFFFFFFFFFFFFFFFFFFFFFFFFFFFFFFFFFFFFFF MUL NOT AND SWAP1 DUP4 PUSH20 0xFFFFFFFFFFFFFFFFFFFFFFFFFFFFFFFFFFFFFFFF AND MUL OR SWAP1 SSTORE POP DUP1 PUSH20 0xFFFFFFFFFFFFFFFFFFFFFFFFFFFFFFFFFFFFFFFF AND DUP3 PUSH6 0xFFFFFFFFFFFF AND DUP5 PUSH2 0xFFFF AND PUSH32 0xB489119EFF6A52171D8ED8978BB59F62003DC2345FE157F731A848C940066168 PUSH1 0x40 MLOAD PUSH1 0x40 MLOAD DUP1 SWAP2 SUB SWAP1 LOG4 POP POP POP JUMP JUMPDEST PUSH0 DUP2 PUSH2 0xFFFF AND PUSH0 LT DUP1 ISZERO PUSH2 0xE6B JUMPI POP PUSH1 0x1 PUSH0 ADD PUSH1 0x2 SWAP1 SLOAD SWAP1 PUSH2 0x100 EXP SWAP1 DIV PUSH2 0xFFFF AND PUSH2 0xFFFF AND DUP3 PUSH2 0xFFFF AND GT ISZERO JUMPDEST PUSH2 0xEAA JUMPI PUSH1 0x40 MLOAD PUSH32 0x8C379A000000000000000000000000000000000000000000000000000000000 DUP2 MSTORE PUSH1 0x4 ADD PUSH2 0xEA1 SWAP1 PUSH2 0x27A2 JUMP JUMPDEST PUSH1 0x40 MLOAD DUP1 SWAP2 SUB SWAP1 REVERT JUMPDEST PUSH1 0x2 DUP3 PUSH2 0xFFFF AND PUSH2 0x4B1 DUP2 LT PUSH2 0xEC3 JUMPI PUSH2 0xEC2 PUSH2 0x2202 JUMP JUMPDEST JUMPDEST ADD PUSH0 SWAP1 SLOAD SWAP1 PUSH2 0x100 EXP SWAP1 DIV PUSH20 0xFFFFFFFFFFFFFFFFFFFFFFFFFFFFFFFFFFFFFFFF AND SWAP1 POP SWAP2 SWAP1 POP JUMP JUMPDEST PUSH0 CALLER SWAP1 POP SWAP1 JUMP JUMPDEST DUP3 PUSH2 0x4DA PUSH0 DUP5 PUSH2 0xFFFF AND PUSH2 0xFFFF AND DUP2 MSTORE PUSH1 0x20 ADD SWAP1 DUP2 MSTORE PUSH1 0x20 ADD PUSH0 KECCAK256 PUSH0 PUSH2 0x100 EXP DUP2 SLOAD DUP2 PUSH20 0xFFFFFFFFFFFFFFFFFFFFFFFFFFFFFFFFFFFFFFFF MUL NOT AND SWAP1 DUP4 PUSH20 0xFFFFFFFFFFFFFFFFFFFFFFFFFFFFFFFFFFFFFFFF AND MUL OR SWAP1 SSTORE POP DUP2 PUSH2 0xFFFF AND DUP4 PUSH20 0xFFFFFFFFFFFFFFFFFFFFFFFFFFFFFFFFFFFFFFFF AND DUP3 PUSH20 0xFFFFFFFFFFFFFFFFFFFFFFFFFFFFFFFFFFFFFFFF AND PUSH32 0xA9D294FD4BD42BB30E96CBA2B478D149A783FBA3C729B1E5C42BEC89D95B85A PUSH1 0x40 MLOAD PUSH1 0x40 MLOAD DUP1 SWAP2 SUB SWAP1 LOG4 POP POP POP JUMP JUMPDEST PUSH0 PUSH2 0x4D9 PUSH0 DUP4 PUSH20 0xFFFFFFFFFFFFFFFFFFFFFFFFFFFFFFFFFFFFFFFF AND PUSH20 0xFFFFFFFFFFFFFFFFFFFFFFFFFFFFFFFFFFFFFFFF AND DUP2 MSTORE PUSH1 0x20 ADD SWAP1 DUP2 MSTORE PUSH1 0x20 ADD PUSH0 KECCAK256 PUSH0 PUSH2 0x4B1 DUP2 LT PUSH2 0x1000 JUMPI PUSH2 0xFFF PUSH2 0x2202 JUMP JUMPDEST JUMPDEST PUSH1 0x10 SWAP2 DUP3 DUP3 DIV ADD SWAP2 SWAP1 MOD PUSH1 0x2 MUL SWAP1 SLOAD SWAP1 PUSH2 0x100 EXP SWAP1 DIV PUSH2 0xFFFF AND SWAP1 POP PUSH0 PUSH20 0xFFFFFFFFFFFFFFFFFFFFFFFFFFFFFFFFFFFFFFFF AND DUP3 PUSH20 0xFFFFFFFFFFFFFFFFFFFFFFFFFFFFFFFFFFFFFFFF AND EQ PUSH2 0x11E8 JUMPI PUSH0 PUSH1 0x1 SWAP1 POP JUMPDEST DUP2 PUSH2 0xFFFF AND DUP2 PUSH2 0xFFFF AND GT PUSH2 0x11E2 JUMPI DUP4 PUSH2 0xFFFF AND PUSH2 0x4D9 PUSH0 DUP6 PUSH20 0xFFFFFFFFFFFFFFFFFFFFFFFFFFFFFFFFFFFFFFFF AND PUSH20 0xFFFFFFFFFFFFFFFFFFFFFFFFFFFFFFFFFFFFFFFF AND DUP2 MSTORE PUSH1 0x20 ADD SWAP1 DUP2 MSTORE PUSH1 0x20 ADD PUSH0 KECCAK256 DUP3 PUSH2 0xFFFF AND PUSH2 0x4B1 DUP2 LT PUSH2 0x10BE JUMPI PUSH2 0x10BD PUSH2 0x2202 JUMP JUMPDEST JUMPDEST PUSH1 0x10 SWAP2 DUP3 DUP3 DIV ADD SWAP2 SWAP1 MOD PUSH1 0x2 MUL SWAP1 SLOAD SWAP1 PUSH2 0x100 EXP SWAP1 DIV PUSH2 0xFFFF AND PUSH2 0xFFFF AND SUB PUSH2 0x11CF JUMPI PUSH2 0x4D9 PUSH0 DUP5 PUSH20 0xFFFFFFFFFFFFFFFFFFFFFFFFFFFFFFFFFFFFFFFF AND PUSH20 0xFFFFFFFFFFFFFFFFFFFFFFFFFFFFFFFFFFFFFFFF AND DUP2 MSTORE PUSH1 0x20 ADD SWAP1 DUP2 MSTORE PUSH1 0x20 ADD PUSH0 KECCAK256 DUP3 PUSH2 0xFFFF AND PUSH2 0x4B1 DUP2 LT PUSH2 0x1136 JUMPI PUSH2 0x1135 PUSH2 0x2202 JUMP JUMPDEST JUMPDEST PUSH1 0x10 SWAP2 DUP3 DUP3 DIV ADD SWAP2 SWAP1 MOD PUSH1 0x2 MUL SWAP1 SLOAD SWAP1 PUSH2 0x100 EXP SWAP1 DIV PUSH2 0xFFFF AND PUSH2 0x4D9 PUSH0 DUP6 PUSH20 0xFFFFFFFFFFFFFFFFFFFFFFFFFFFFFFFFFFFFFFFF AND PUSH20 0xFFFFFFFFFFFFFFFFFFFFFFFFFFFFFFFFFFFFFFFF AND DUP2 MSTORE PUSH1 0x20 ADD SWAP1 DUP2 MSTORE PUSH1 0x20 ADD PUSH0 KECCAK256 DUP3 PUSH2 0xFFFF AND PUSH2 0x4B1 DUP2 LT PUSH2 0x11A5 JUMPI PUSH2 0x11A4 PUSH2 0x2202 JUMP JUMPDEST JUMPDEST PUSH1 0x10 SWAP2 DUP3 DUP3 DIV ADD SWAP2 SWAP1 MOD PUSH1 0x2 MUL PUSH2 0x100 EXP DUP2 SLOAD DUP2 PUSH2 0xFFFF MUL NOT AND SWAP1 DUP4 PUSH2 0xFFFF AND MUL OR SWAP1 SSTORE POP PUSH2 0x11E2 JUMP JUMPDEST DUP1 DUP1 PUSH2 0x11DA SWAP1 PUSH2 0x27ED JUMP JUMPDEST SWAP2 POP POP PUSH2 0x1055 JUMP JUMPDEST POP PUSH2 0x1348 JUMP JUMPDEST PUSH0 DUP4 SWAP1 POP PUSH2 0x4D9 PUSH0 DUP5 PUSH20 0xFFFFFFFFFFFFFFFFFFFFFFFFFFFFFFFFFFFFFFFF AND PUSH20 0xFFFFFFFFFFFFFFFFFFFFFFFFFFFFFFFFFFFFFFFF AND DUP2 MSTORE PUSH1 0x20 ADD SWAP1 DUP2 MSTORE PUSH1 0x20 ADD PUSH0 KECCAK256 DUP2 PUSH2 0xFFFF AND PUSH2 0x4B1 DUP2 LT PUSH2 0x1241 JUMPI PUSH2 0x1240 PUSH2 0x2202 JUMP JUMPDEST JUMPDEST PUSH1 0x10 SWAP2 DUP3 DUP3 DIV ADD SWAP2 SWAP1 MOD PUSH1 0x2 MUL SWAP1 SLOAD SWAP1 PUSH2 0x100 EXP SWAP1 DIV PUSH2 0xFFFF AND SWAP4 POP PUSH2 0x4D9 PUSH0 DUP5 PUSH20 0xFFFFFFFFFFFFFFFFFFFFFFFFFFFFFFFFFFFFFFFF AND PUSH20 0xFFFFFFFFFFFFFFFFFFFFFFFFFFFFFFFFFFFFFFFF AND DUP2 MSTORE PUSH1 0x20 ADD SWAP1 DUP2 MSTORE PUSH1 0x20 ADD PUSH0 KECCAK256 DUP3 PUSH2 0xFFFF AND PUSH2 0x4B1 DUP2 LT PUSH2 0x12B2 JUMPI PUSH2 0x12B1 PUSH2 0x2202 JUMP JUMPDEST JUMPDEST PUSH1 0x10 SWAP2 DUP3 DUP3 DIV ADD SWAP2 SWAP1 MOD PUSH1 0x2 MUL SWAP1 SLOAD SWAP1 PUSH2 0x100 EXP SWAP1 DIV PUSH2 0xFFFF AND PUSH2 0x4D9 PUSH0 DUP6 PUSH20 0xFFFFFFFFFFFFFFFFFFFFFFFFFFFFFFFFFFFFFFFF AND PUSH20 0xFFFFFFFFFFFFFFFFFFFFFFFFFFFFFFFFFFFFFFFF AND DUP2 MSTORE PUSH1 0x20 ADD SWAP1 DUP2 MSTORE PUSH1 0x20 ADD PUSH0 KECCAK256 DUP3 PUSH2 0xFFFF AND PUSH2 0x4B1 DUP2 LT PUSH2 0x1321 JUMPI PUSH2 0x1320 PUSH2 0x2202 JUMP JUMPDEST JUMPDEST PUSH1 0x10 SWAP2 DUP3 DUP3 DIV ADD SWAP2 SWAP1 MOD PUSH1 0x2 MUL PUSH2 0x100 EXP DUP2 SLOAD DUP2 PUSH2 0xFFFF MUL NOT AND SWAP1 DUP4 PUSH2 0xFFFF AND MUL OR SWAP1 SSTORE POP POP JUMPDEST PUSH0 PUSH2 0x4D9 PUSH0 DUP5 PUSH20 0xFFFFFFFFFFFFFFFFFFFFFFFFFFFFFFFFFFFFFFFF AND PUSH20 0xFFFFFFFFFFFFFFFFFFFFFFFFFFFFFFFFFFFFFFFF AND DUP2 MSTORE PUSH1 0x20 ADD SWAP1 DUP2 MSTORE PUSH1 0x20 ADD PUSH0 KECCAK256 DUP3 PUSH2 0xFFFF AND PUSH2 0x4B1 DUP2 LT PUSH2 0x139E JUMPI PUSH2 0x139D PUSH2 0x2202 JUMP JUMPDEST JUMPDEST PUSH1 0x10 SWAP2 DUP3 DUP3 DIV ADD SWAP2 SWAP1 MOD PUSH1 0x2 MUL PUSH2 0x100 EXP DUP2 SLOAD DUP2 PUSH2 0xFFFF MUL NOT AND SWAP1 DUP4 PUSH2 0xFFFF AND MUL OR SWAP1 SSTORE POP PUSH1 0x1 PUSH2 0x4D9 PUSH0 DUP5 PUSH20 0xFFFFFFFFFFFFFFFFFFFFFFFFFFFFFFFFFFFFFFFF AND PUSH20 0xFFFFFFFFFFFFFFFFFFFFFFFFFFFFFFFFFFFFFFFF AND DUP2 MSTORE PUSH1 0x20 ADD SWAP1 DUP2 MSTORE PUSH1 0x20 ADD PUSH0 KECCAK256 PUSH0 PUSH2 0x4B1 DUP2 LT PUSH2 0x1416 JUMPI PUSH2 0x1415 PUSH2 0x2202 JUMP JUMPDEST JUMPDEST PUSH1 0x10 SWAP2 DUP3 DUP3 DIV ADD SWAP2 SWAP1 MOD PUSH1 0x2 MUL DUP3 DUP3 DUP3 SWAP1 SLOAD SWAP1 PUSH2 0x100 EXP SWAP1 DIV PUSH2 0xFFFF AND PUSH2 0x143D SWAP2 SWAP1 PUSH2 0x2816 JUMP JUMPDEST SWAP3 POP PUSH2 0x100 EXP DUP2 SLOAD DUP2 PUSH2 0xFFFF MUL NOT AND SWAP1 DUP4 PUSH2 0xFFFF AND MUL OR SWAP1 SSTORE POP PUSH0 PUSH1 0x1 PUSH2 0x4D9 PUSH0 DUP8 PUSH20 0xFFFFFFFFFFFFFFFFFFFFFFFFFFFFFFFFFFFFFFFF AND PUSH20 0xFFFFFFFFFFFFFFFFFFFFFFFFFFFFFFFFFFFFFFFF AND DUP2 MSTORE PUSH1 0x20 ADD SWAP1 DUP2 MSTORE PUSH1 0x20 ADD PUSH0 KECCAK256 PUSH0 PUSH2 0x4B1 DUP2 LT PUSH2 0x14AB JUMPI PUSH2 0x14AA PUSH2 0x2202 JUMP JUMPDEST JUMPDEST PUSH1 0x10 SWAP2 DUP3 DUP3 DIV ADD SWAP2 SWAP1 MOD PUSH1 0x2 MUL SWAP1 SLOAD SWAP1 PUSH2 0x100 EXP SWAP1 DIV PUSH2 0xFFFF AND PUSH2 0x14CF SWAP2 SWAP1 PUSH2 0x284B JUMP JUMPDEST SWAP1 POP DUP4 PUSH2 0x4D9 PUSH0 DUP8 PUSH20 0xFFFFFFFFFFFFFFFFFFFFFFFFFFFFFFFFFFFFFFFF AND PUSH20 0xFFFFFFFFFFFFFFFFFFFFFFFFFFFFFFFFFFFFFFFF AND DUP2 MSTORE PUSH1 0x20 ADD SWAP1 DUP2 MSTORE PUSH1 0x20 ADD PUSH0 KECCAK256 DUP3 PUSH2 0xFFFF AND PUSH2 0x4B1 DUP2 LT PUSH2 0x1527 JUMPI PUSH2 0x1526 PUSH2 0x2202 JUMP JUMPDEST JUMPDEST PUSH1 0x10 SWAP2 DUP3 DUP3 DIV ADD SWAP2 SWAP1 MOD PUSH1 0x2 MUL PUSH2 0x100 EXP DUP2 SLOAD DUP2 PUSH2 0xFFFF MUL NOT AND SWAP1 DUP4 PUSH2 0xFFFF AND MUL OR SWAP1 SSTORE POP DUP1 PUSH2 0x4D9 PUSH0 DUP8 PUSH20 0xFFFFFFFFFFFFFFFFFFFFFFFFFFFFFFFFFFFFFFFF AND PUSH20 0xFFFFFFFFFFFFFFFFFFFFFFFFFFFFFFFFFFFFFFFF AND DUP2 MSTORE PUSH1 0x20 ADD SWAP1 DUP2 MSTORE PUSH1 0x20 ADD PUSH0 KECCAK256 PUSH0 PUSH2 0x4B1 DUP2 LT PUSH2 0x159E JUMPI PUSH2 0x159D PUSH2 0x2202 JUMP JUMPDEST JUMPDEST PUSH1 0x10 SWAP2 DUP3 DUP3 DIV ADD SWAP2 SWAP1 MOD PUSH1 0x2 MUL PUSH2 0x100 EXP DUP2 SLOAD DUP2 PUSH2 0xFFFF MUL NOT AND SWAP1 DUP4 PUSH2 0xFFFF AND MUL OR SWAP1 SSTORE POP DUP5 PUSH1 0x2 DUP6 PUSH2 0xFFFF AND PUSH2 0x4B1 DUP2 LT PUSH2 0x15DD JUMPI PUSH2 0x15DC PUSH2 0x2202 JUMP JUMPDEST JUMPDEST ADD PUSH0 PUSH2 0x100 EXP DUP2 SLOAD DUP2 PUSH20 0xFFFFFFFFFFFFFFFFFFFFFFFFFFFFFFFFFFFFFFFF MUL NOT AND SWAP1 DUP4 PUSH20 0xFFFFFFFFFFFFFFFFFFFFFFFFFFFFFFFFFFFFFFFF AND MUL OR SWAP1 SSTORE POP DUP4 PUSH2 0xFFFF AND DUP6 PUSH20 0xFFFFFFFFFFFFFFFFFFFFFFFFFFFFFFFFFFFFFFFF AND DUP5 PUSH20 0xFFFFFFFFFFFFFFFFFFFFFFFFFFFFFFFFFFFFFFFF AND PUSH32 0x89896EDBD223C9360CE42DDFED7522A2BFFB20C056E4C42D42370CB493B65676 PUSH1 0x40 MLOAD PUSH1 0x40 MLOAD DUP1 SWAP2 SUB SWAP1 LOG4 POP POP POP POP POP JUMP JUMPDEST PUSH0 DUP4 PUSH20 0xFFFFFFFFFFFFFFFFFFFFFFFFFFFFFFFFFFFFFFFF AND EXTCODESIZE GT ISZERO PUSH2 0x182D JUMPI DUP3 PUSH20 0xFFFFFFFFFFFFFFFFFFFFFFFFFFFFFFFFFFFFFFFF AND PUSH4 0xB1CFF380 PUSH2 0x16C4 PUSH2 0xEEB JUMP JUMPDEST DUP7 DUP6 DUP6 PUSH1 0x40 MLOAD DUP6 PUSH4 0xFFFFFFFF AND PUSH1 0xE0 SHL DUP2 MSTORE PUSH1 0x4 ADD PUSH2 0x16E6 SWAP5 SWAP4 SWAP3 SWAP2 SWAP1 PUSH2 0x28D2 JUMP JUMPDEST PUSH1 0x20 PUSH1 0x40 MLOAD DUP1 DUP4 SUB DUP2 PUSH0 DUP8 GAS CALL SWAP3 POP POP POP DUP1 ISZERO PUSH2 0x1721 JUMPI POP PUSH1 0x40 MLOAD RETURNDATASIZE PUSH1 0x1F NOT PUSH1 0x1F DUP3 ADD AND DUP3 ADD DUP1 PUSH1 0x40 MSTORE POP DUP2 ADD SWAP1 PUSH2 0x171E SWAP2 SWAP1 PUSH2 0x2946 JUMP JUMPDEST PUSH1 0x1 JUMPDEST PUSH2 0x17A2 JUMPI RETURNDATASIZE DUP1 PUSH0 DUP2 EQ PUSH2 0x174F JUMPI PUSH1 0x40 MLOAD SWAP2 POP PUSH1 0x1F NOT PUSH1 0x3F RETURNDATASIZE ADD AND DUP3 ADD PUSH1 0x40 MSTORE RETURNDATASIZE DUP3 MSTORE RETURNDATASIZE PUSH0 PUSH1 0x20 DUP5 ADD RETURNDATACOPY PUSH2 0x1754 JUMP JUMPDEST PUSH1 0x60 SWAP2 POP JUMPDEST POP PUSH0 DUP2 MLOAD SUB PUSH2 0x179A JUMPI DUP4 PUSH1 0x40 MLOAD PUSH32 0x64A0AE9200000000000000000000000000000000000000000000000000000000 DUP2 MSTORE PUSH1 0x4 ADD PUSH2 0x1791 SWAP2 SWAP1 PUSH2 0x1C6A JUMP JUMPDEST PUSH1 0x40 MLOAD DUP1 SWAP2 SUB SWAP1 REVERT JUMPDEST DUP1 MLOAD DUP2 PUSH1 0x20 ADD REVERT JUMPDEST PUSH4 0xB1CFF380 PUSH1 0xE0 SHL PUSH28 0xFFFFFFFFFFFFFFFFFFFFFFFFFFFFFFFFFFFFFFFFFFFFFFFFFFFFFFFF NOT AND DUP2 PUSH28 0xFFFFFFFFFFFFFFFFFFFFFFFFFFFFFFFFFFFFFFFFFFFFFFFFFFFFFFFF NOT AND EQ PUSH2 0x182B JUMPI DUP4 PUSH1 0x40 MLOAD PUSH32 0x64A0AE9200000000000000000000000000000000000000000000000000000000 DUP2 MSTORE PUSH1 0x4 ADD PUSH2 0x1822 SWAP2 SWAP1 PUSH2 0x1C6A JUMP JUMPDEST PUSH1 0x40 MLOAD DUP1 SWAP2 SUB SWAP1 REVERT JUMPDEST POP JUMPDEST POP POP POP POP JUMP JUMPDEST PUSH1 0x60 PUSH1 0x40 MLOAD DUP1 PUSH1 0x20 ADD PUSH1 0x40 MSTORE DUP1 PUSH0 DUP2 MSTORE POP SWAP1 POP SWAP1 JUMP JUMPDEST PUSH1 0x60 PUSH0 PUSH1 0x1 PUSH2 0x1857 DUP5 PUSH2 0x1916 JUMP JUMPDEST ADD SWAP1 POP PUSH0 DUP2 PUSH8 0xFFFFFFFFFFFFFFFF DUP2 GT ISZERO PUSH2 0x1875 JUMPI PUSH2 0x1874 PUSH2 0x1D61 JUMP JUMPDEST JUMPDEST PUSH1 0x40 MLOAD SWAP1 DUP1 DUP3 MSTORE DUP1 PUSH1 0x1F ADD PUSH1 0x1F NOT AND PUSH1 0x20 ADD DUP3 ADD PUSH1 0x40 MSTORE DUP1 ISZERO PUSH2 0x18A7 JUMPI DUP2 PUSH1 0x20 ADD PUSH1 0x1 DUP3 MUL DUP1 CALLDATASIZE DUP4 CALLDATACOPY DUP1 DUP3 ADD SWAP2 POP POP SWAP1 POP JUMPDEST POP SWAP1 POP PUSH0 DUP3 PUSH1 0x20 ADD DUP3 ADD SWAP1 POP JUMPDEST PUSH1 0x1 ISZERO PUSH2 0x1908 JUMPI DUP1 DUP1 PUSH1 0x1 SWAP1 SUB SWAP2 POP POP PUSH32 0x3031323334353637383961626364656600000000000000000000000000000000 PUSH1 0xA DUP7 MOD BYTE DUP2 MSTORE8 PUSH1 0xA DUP6 DUP2 PUSH2 0x18FD JUMPI PUSH2 0x18FC PUSH2 0x2971 JUMP JUMPDEST JUMPDEST DIV SWAP5 POP PUSH0 DUP6 SUB PUSH2 0x18B4 JUMPI JUMPDEST DUP2 SWAP4 POP POP POP POP SWAP2 SWAP1 POP JUMP JUMPDEST POP JUMP JUMPDEST PUSH0 DUP1 PUSH0 SWAP1 POP PUSH27 0x184F03E93FF9F4DAA797ED6E38ED64BF6A1F010000000000000000 DUP4 LT PUSH2 0x1972 JUMPI PUSH27 0x184F03E93FF9F4DAA797ED6E38ED64BF6A1F010000000000000000 DUP4 DUP2 PUSH2 0x1968 JUMPI PUSH2 0x1967 PUSH2 0x2971 JUMP JUMPDEST JUMPDEST DIV SWAP3 POP PUSH1 0x40 DUP2 ADD SWAP1 POP JUMPDEST PUSH14 0x4EE2D6D415B85ACEF8100000000 DUP4 LT PUSH2 0x19AF JUMPI PUSH14 0x4EE2D6D415B85ACEF8100000000 DUP4 DUP2 PUSH2 0x19A5 JUMPI PUSH2 0x19A4 PUSH2 0x2971 JUMP JUMPDEST JUMPDEST DIV SWAP3 POP PUSH1 0x20 DUP2 ADD SWAP1 POP JUMPDEST PUSH7 0x2386F26FC10000 DUP4 LT PUSH2 0x19DE JUMPI PUSH7 0x2386F26FC10000 DUP4 DUP2 PUSH2 0x19D4 JUMPI PUSH2 0x19D3 PUSH2 0x2971 JUMP JUMPDEST JUMPDEST DIV SWAP3 POP PUSH1 0x10 DUP2 ADD SWAP1 POP JUMPDEST PUSH4 0x5F5E100 DUP4 LT PUSH2 0x1A07 JUMPI PUSH4 0x5F5E100 DUP4 DUP2 PUSH2 0x19FD JUMPI PUSH2 0x19FC PUSH2 0x2971 JUMP JUMPDEST JUMPDEST DIV SWAP3 POP PUSH1 0x8 DUP2 ADD SWAP1 POP JUMPDEST PUSH2 0x2710 DUP4 LT PUSH2 0x1A2C JUMPI PUSH2 0x2710 DUP4 DUP2 PUSH2 0x1A22 JUMPI PUSH2 0x1A21 PUSH2 0x2971 JUMP JUMPDEST JUMPDEST DIV SWAP3 POP PUSH1 0x4 DUP2 ADD SWAP1 POP JUMPDEST PUSH1 0x64 DUP4 LT PUSH2 0x1A4F JUMPI PUSH1 0x64 DUP4 DUP2 PUSH2 0x1A45 JUMPI PUSH2 0x1A44 PUSH2 0x2971 JUMP JUMPDEST JUMPDEST DIV SWAP3 POP PUSH1 0x2 DUP2 ADD SWAP1 POP JUMPDEST PUSH1 0xA DUP4 LT PUSH2 0x1A5E JUMPI PUSH1 0x1 DUP2 ADD SWAP1 POP JUMPDEST DUP1 SWAP2 POP POP SWAP2 SWAP1 POP JUMP JUMPDEST PUSH0 PUSH32 0xFFFFFFFFFFFFFFFFFFFFFFFFFFFFFFFFFFFFFFFF000000000000000000000000 DUP3 AND SWAP1 POP SWAP2 SWAP1 POP JUMP JUMPDEST PUSH2 0x1A9B DUP2 PUSH2 0x1A67 JUMP JUMPDEST DUP3 MSTORE POP POP JUMP JUMPDEST PUSH0 PUSH1 0x20 DUP3 ADD SWAP1 POP PUSH2 0x1AB4 PUSH0 DUP4 ADD DUP5 PUSH2 0x1A92 JUMP JUMPDEST SWAP3 SWAP2 POP POP JUMP JUMPDEST PUSH0 PUSH1 0x40 MLOAD SWAP1 POP SWAP1 JUMP JUMPDEST PUSH0 DUP1 REVERT JUMPDEST PUSH0 DUP1 REVERT JUMPDEST PUSH0 PUSH20 0xFFFFFFFFFFFFFFFFFFFFFFFFFFFFFFFFFFFFFFFF DUP3 AND SWAP1 POP SWAP2 SWAP1 POP JUMP JUMPDEST PUSH0 PUSH2 0x1AF4 DUP3 PUSH2 0x1ACB JUMP JUMPDEST SWAP1 POP SWAP2 SWAP1 POP JUMP JUMPDEST PUSH2 0x1B04 DUP2 PUSH2 0x1AEA JUMP JUMPDEST DUP2 EQ PUSH2 0x1B0E JUMPI PUSH0 DUP1 REVERT JUMPDEST POP JUMP JUMPDEST PUSH0 DUP2 CALLDATALOAD SWAP1 POP PUSH2 0x1B1F DUP2 PUSH2 0x1AFB JUMP JUMPDEST SWAP3 SWAP2 POP POP JUMP JUMPDEST PUSH0 PUSH2 0xFFFF DUP3 AND SWAP1 POP SWAP2 SWAP1 POP JUMP JUMPDEST PUSH2 0x1B3B DUP2 PUSH2 0x1B25 JUMP JUMPDEST DUP2 EQ PUSH2 0x1B45 JUMPI PUSH0 DUP1 REVERT JUMPDEST POP JUMP JUMPDEST PUSH0 DUP2 CALLDATALOAD SWAP1 POP PUSH2 0x1B56 DUP2 PUSH2 0x1B32 JUMP JUMPDEST SWAP3 SWAP2 POP POP JUMP JUMPDEST PUSH0 DUP1 PUSH0 PUSH1 0x60 DUP5 DUP7 SUB SLT ISZERO PUSH2 0x1B73 JUMPI PUSH2 0x1B72 PUSH2 0x1AC3 JUMP JUMPDEST JUMPDEST PUSH0 PUSH2 0x1B80 DUP7 DUP3 DUP8 ADD PUSH2 0x1B11 JUMP JUMPDEST SWAP4 POP POP PUSH1 0x20 PUSH2 0x1B91 DUP7 DUP3 DUP8 ADD PUSH2 0x1B11 JUMP JUMPDEST SWAP3 POP POP PUSH1 0x40 PUSH2 0x1BA2 DUP7 DUP3 DUP8 ADD PUSH2 0x1B48 JUMP JUMPDEST SWAP2 POP POP SWAP3 POP SWAP3 POP SWAP3 JUMP JUMPDEST PUSH0 DUP2 SWAP1 POP SWAP2 SWAP1 POP JUMP JUMPDEST PUSH2 0x1BBE DUP2 PUSH2 0x1BAC JUMP JUMPDEST DUP3 MSTORE POP POP JUMP JUMPDEST PUSH0 PUSH1 0x20 DUP3 ADD SWAP1 POP PUSH2 0x1BD7 PUSH0 DUP4 ADD DUP5 PUSH2 0x1BB5 JUMP JUMPDEST SWAP3 SWAP2 POP POP JUMP JUMPDEST PUSH0 PUSH1 0x20 DUP3 DUP5 SUB SLT ISZERO PUSH2 0x1BF2 JUMPI PUSH2 0x1BF1 PUSH2 0x1AC3 JUMP JUMPDEST JUMPDEST PUSH0 PUSH2 0x1BFF DUP5 DUP3 DUP6 ADD PUSH2 0x1B11 JUMP JUMPDEST SWAP2 POP POP SWAP3 SWAP2 POP POP JUMP JUMPDEST PUSH2 0x1C11 DUP2 PUSH2 0x1B25 JUMP JUMPDEST DUP3 MSTORE POP POP JUMP JUMPDEST PUSH0 PUSH1 0x20 DUP3 ADD SWAP1 POP PUSH2 0x1C2A PUSH0 DUP4 ADD DUP5 PUSH2 0x1C08 JUMP JUMPDEST SWAP3 SWAP2 POP POP JUMP JUMPDEST PUSH0 PUSH1 0x20 DUP3 DUP5 SUB SLT ISZERO PUSH2 0x1C45 JUMPI PUSH2 0x1C44 PUSH2 0x1AC3 JUMP JUMPDEST JUMPDEST PUSH0 PUSH2 0x1C52 DUP5 DUP3 DUP6 ADD PUSH2 0x1B48 JUMP JUMPDEST SWAP2 POP POP SWAP3 SWAP2 POP POP JUMP JUMPDEST PUSH2 0x1C64 DUP2 PUSH2 0x1AEA JUMP JUMPDEST DUP3 MSTORE POP POP JUMP JUMPDEST PUSH0 PUSH1 0x20 DUP3 ADD SWAP1 POP PUSH2 0x1C7D PUSH0 DUP4 ADD DUP5 PUSH2 0x1C5B JUMP JUMPDEST SWAP3 SWAP2 POP POP JUMP JUMPDEST PUSH0 PUSH32 0xFFFFFFFFFFFFFFFFFFFF00000000000000000000000000000000000000000000 DUP3 AND SWAP1 POP SWAP2 SWAP1 POP JUMP JUMPDEST PUSH2 0x1CB7 DUP2 PUSH2 0x1C83 JUMP JUMPDEST DUP3 MSTORE POP POP JUMP JUMPDEST PUSH0 PUSH1 0x20 DUP3 ADD SWAP1 POP PUSH2 0x1CD0 PUSH0 DUP4 ADD DUP5 PUSH2 0x1CAE JUMP JUMPDEST SWAP3 SWAP2 POP POP JUMP JUMPDEST PUSH0 DUP2 ISZERO ISZERO SWAP1 POP SWAP2 SWAP1 POP JUMP JUMPDEST PUSH2 0x1CEA DUP2 PUSH2 0x1CD6 JUMP JUMPDEST DUP2 EQ PUSH2 0x1CF4 JUMPI PUSH0 DUP1 REVERT JUMPDEST POP JUMP JUMPDEST PUSH0 DUP2 CALLDATALOAD SWAP1 POP PUSH2 0x1D05 DUP2 PUSH2 0x1CE1 JUMP JUMPDEST SWAP3 SWAP2 POP POP JUMP JUMPDEST PUSH0 DUP1 PUSH1 0x40 DUP4 DUP6 SUB SLT ISZERO PUSH2 0x1D21 JUMPI PUSH2 0x1D20 PUSH2 0x1AC3 JUMP JUMPDEST JUMPDEST PUSH0 PUSH2 0x1D2E DUP6 DUP3 DUP7 ADD PUSH2 0x1B11 JUMP JUMPDEST SWAP3 POP POP PUSH1 0x20 PUSH2 0x1D3F DUP6 DUP3 DUP7 ADD PUSH2 0x1CF7 JUMP JUMPDEST SWAP2 POP POP SWAP3 POP SWAP3 SWAP1 POP JUMP JUMPDEST PUSH0 DUP1 REVERT JUMPDEST PUSH0 DUP1 REVERT JUMPDEST PUSH0 PUSH1 0x1F NOT PUSH1 0x1F DUP4 ADD AND SWAP1 POP SWAP2 SWAP1 POP JUMP JUMPDEST PUSH32 0x4E487B7100000000000000000000000000000000000000000000000000000000 PUSH0 MSTORE PUSH1 0x41 PUSH1 0x4 MSTORE PUSH1 0x24 PUSH0 REVERT JUMPDEST PUSH2 0x1D97 DUP3 PUSH2 0x1D51 JUMP JUMPDEST DUP2 ADD DUP2 DUP2 LT PUSH8 0xFFFFFFFFFFFFFFFF DUP3 GT OR ISZERO PUSH2 0x1DB6 JUMPI PUSH2 0x1DB5 PUSH2 0x1D61 JUMP JUMPDEST JUMPDEST DUP1 PUSH1 0x40 MSTORE POP POP POP JUMP JUMPDEST PUSH0 PUSH2 0x1DC8 PUSH2 0x1ABA JUMP JUMPDEST SWAP1 POP PUSH2 0x1DD4 DUP3 DUP3 PUSH2 0x1D8E JUMP JUMPDEST SWAP2 SWAP1 POP JUMP JUMPDEST PUSH0 PUSH8 0xFFFFFFFFFFFFFFFF DUP3 GT ISZERO PUSH2 0x1DF3 JUMPI PUSH2 0x1DF2 PUSH2 0x1D61 JUMP JUMPDEST JUMPDEST PUSH2 0x1DFC DUP3 PUSH2 0x1D51 JUMP JUMPDEST SWAP1 POP PUSH1 0x20 DUP2 ADD SWAP1 POP SWAP2 SWAP1 POP JUMP JUMPDEST DUP3 DUP2 DUP4 CALLDATACOPY PUSH0 DUP4 DUP4 ADD MSTORE POP POP POP JUMP JUMPDEST PUSH0 PUSH2 0x1E29 PUSH2 0x1E24 DUP5 PUSH2 0x1DD9 JUMP JUMPDEST PUSH2 0x1DBF JUMP JUMPDEST SWAP1 POP DUP3 DUP2 MSTORE PUSH1 0x20 DUP2 ADD DUP5 DUP5 DUP5 ADD GT ISZERO PUSH2 0x1E45 JUMPI PUSH2 0x1E44 PUSH2 0x1D4D JUMP JUMPDEST JUMPDEST PUSH2 0x1E50 DUP5 DUP3 DUP6 PUSH2 0x1E09 JUMP JUMPDEST POP SWAP4 SWAP3 POP POP POP JUMP JUMPDEST PUSH0 DUP3 PUSH1 0x1F DUP4 ADD SLT PUSH2 0x1E6C JUMPI PUSH2 0x1E6B PUSH2 0x1D49 JUMP JUMPDEST JUMPDEST DUP2 CALLDATALOAD PUSH2 0x1E7C DUP5 DUP3 PUSH1 0x20 DUP7 ADD PUSH2 0x1E17 JUMP JUMPDEST SWAP2 POP POP SWAP3 SWAP2 POP POP JUMP JUMPDEST PUSH0 DUP1 PUSH0 DUP1 PUSH1 0x80 DUP6 DUP8 SUB SLT ISZERO PUSH2 0x1E9D JUMPI PUSH2 0x1E9C PUSH2 0x1AC3 JUMP JUMPDEST JUMPDEST PUSH0 PUSH2 0x1EAA DUP8 DUP3 DUP9 ADD PUSH2 0x1B11 JUMP JUMPDEST SWAP5 POP POP PUSH1 0x20 PUSH2 0x1EBB DUP8 DUP3 DUP9 ADD PUSH2 0x1B11 JUMP JUMPDEST SWAP4 POP POP PUSH1 0x40 PUSH2 0x1ECC DUP8 DUP3 DUP9 ADD PUSH2 0x1B48 JUMP JUMPDEST SWAP3 POP POP PUSH1 0x60 DUP6 ADD CALLDATALOAD PUSH8 0xFFFFFFFFFFFFFFFF DUP2 GT ISZERO PUSH2 0x1EED JUMPI PUSH2 0x1EEC PUSH2 0x1AC7 JUMP JUMPDEST JUMPDEST PUSH2 0x1EF9 DUP8 DUP3 DUP9 ADD PUSH2 0x1E58 JUMP JUMPDEST SWAP2 POP POP SWAP3 SWAP6 SWAP2 SWAP5 POP SWAP3 POP JUMP JUMPDEST PUSH0 DUP1 REVERT JUMPDEST PUSH0 DUP1 REVERT JUMPDEST PUSH0 DUP1 DUP4 PUSH1 0x1F DUP5 ADD SLT PUSH2 0x1F22 JUMPI PUSH2 0x1F21 PUSH2 0x1D49 JUMP JUMPDEST JUMPDEST DUP3 CALLDATALOAD SWAP1 POP PUSH8 0xFFFFFFFFFFFFFFFF DUP2 GT ISZERO PUSH2 0x1F3F JUMPI PUSH2 0x1F3E PUSH2 0x1F05 JUMP JUMPDEST JUMPDEST PUSH1 0x20 DUP4 ADD SWAP2 POP DUP4 PUSH1 0x1 DUP3 MUL DUP4 ADD GT ISZERO PUSH2 0x1F5B JUMPI PUSH2 0x1F5A PUSH2 0x1F09 JUMP JUMPDEST JUMPDEST SWAP3 POP SWAP3 SWAP1 POP JUMP JUMPDEST PUSH0 DUP1 PUSH0 DUP1 PUSH0 PUSH1 0x80 DUP7 DUP9 SUB SLT ISZERO PUSH2 0x1F7B JUMPI PUSH2 0x1F7A PUSH2 0x1AC3 JUMP JUMPDEST JUMPDEST PUSH0 PUSH2 0x1F88 DUP9 DUP3 DUP10 ADD PUSH2 0x1B11 JUMP JUMPDEST SWAP6 POP POP PUSH1 0x20 PUSH2 0x1F99 DUP9 DUP3 DUP10 ADD PUSH2 0x1B11 JUMP JUMPDEST SWAP5 POP POP PUSH1 0x40 PUSH2 0x1FAA DUP9 DUP3 DUP10 ADD PUSH2 0x1B48 JUMP JUMPDEST SWAP4 POP POP PUSH1 0x60 DUP7 ADD CALLDATALOAD PUSH8 0xFFFFFFFFFFFFFFFF DUP2 GT ISZERO PUSH2 0x1FCB JUMPI PUSH2 0x1FCA PUSH2 0x1AC7 JUMP JUMPDEST JUMPDEST PUSH2 0x1FD7 DUP9 DUP3 DUP10 ADD PUSH2 0x1F0D JUMP JUMPDEST SWAP3 POP SWAP3 POP POP SWAP3 SWAP6 POP SWAP3 SWAP6 SWAP1 SWAP4 POP JUMP JUMPDEST PUSH0 PUSH32 0xFFFFFFFF00000000000000000000000000000000000000000000000000000000 DUP3 AND SWAP1 POP SWAP2 SWAP1 POP JUMP JUMPDEST PUSH2 0x201A DUP2 PUSH2 0x1FE6 JUMP JUMPDEST DUP3 MSTORE POP POP JUMP JUMPDEST PUSH0 PUSH1 0x20 DUP3 ADD SWAP1 POP PUSH2 0x2033 PUSH0 DUP4 ADD DUP5 PUSH2 0x2011 JUMP JUMPDEST SWAP3 SWAP2 POP POP JUMP JUMPDEST PUSH0 DUP2 MLOAD SWAP1 POP SWAP2 SWAP1 POP JUMP JUMPDEST PUSH0 DUP3 DUP3 MSTORE PUSH1 0x20 DUP3 ADD SWAP1 POP SWAP3 SWAP2 POP POP JUMP JUMPDEST PUSH0 JUMPDEST DUP4 DUP2 LT ISZERO PUSH2 0x2070 JUMPI DUP1 DUP3 ADD MLOAD DUP2 DUP5 ADD MSTORE PUSH1 0x20 DUP2 ADD SWAP1 POP PUSH2 0x2055 JUMP JUMPDEST PUSH0 DUP5 DUP5 ADD MSTORE POP POP POP POP JUMP JUMPDEST PUSH0 PUSH2 0x2085 DUP3 PUSH2 0x2039 JUMP JUMPDEST PUSH2 0x208F DUP2 DUP6 PUSH2 0x2043 JUMP JUMPDEST SWAP4 POP PUSH2 0x209F DUP2 DUP6 PUSH1 0x20 DUP7 ADD PUSH2 0x2053 JUMP JUMPDEST PUSH2 0x20A8 DUP2 PUSH2 0x1D51 JUMP JUMPDEST DUP5 ADD SWAP2 POP POP SWAP3 SWAP2 POP POP JUMP JUMPDEST PUSH0 PUSH1 0x20 DUP3 ADD SWAP1 POP DUP2 DUP2 SUB PUSH0 DUP4 ADD MSTORE PUSH2 0x20CB DUP2 DUP5 PUSH2 0x207B JUMP JUMPDEST SWAP1 POP SWAP3 SWAP2 POP POP JUMP JUMPDEST PUSH0 DUP1 PUSH1 0x40 DUP4 DUP6 SUB SLT ISZERO PUSH2 0x20E9 JUMPI PUSH2 0x20E8 PUSH2 0x1AC3 JUMP JUMPDEST JUMPDEST PUSH0 PUSH2 0x20F6 DUP6 DUP3 DUP7 ADD PUSH2 0x1B11 JUMP JUMPDEST SWAP3 POP POP PUSH1 0x20 PUSH2 0x2107 DUP6 DUP3 DUP7 ADD PUSH2 0x1B48 JUMP JUMPDEST SWAP2 POP POP SWAP3 POP SWAP3 SWAP1 POP JUMP JUMPDEST PUSH0 DUP1 PUSH1 0x40 DUP4 DUP6 SUB SLT ISZERO PUSH2 0x2127 JUMPI PUSH2 0x2126 PUSH2 0x1AC3 JUMP JUMPDEST JUMPDEST PUSH0 PUSH2 0x2134 DUP6 DUP3 DUP7 ADD PUSH2 0x1B11 JUMP JUMPDEST SWAP3 POP POP PUSH1 0x20 PUSH2 0x2145 DUP6 DUP3 DUP7 ADD PUSH2 0x1B11 JUMP JUMPDEST SWAP2 POP POP SWAP3 POP SWAP3 SWAP1 POP JUMP JUMPDEST PUSH2 0x2158 DUP2 PUSH2 0x1CD6 JUMP JUMPDEST DUP3 MSTORE POP POP JUMP JUMPDEST PUSH0 PUSH1 0x20 DUP3 ADD SWAP1 POP PUSH2 0x2171 PUSH0 DUP4 ADD DUP5 PUSH2 0x214F JUMP JUMPDEST SWAP3 SWAP2 POP POP JUMP JUMPDEST PUSH0 PUSH6 0xFFFFFFFFFFFF DUP3 AND SWAP1 POP SWAP2 SWAP1 POP JUMP JUMPDEST PUSH2 0x2191 DUP2 PUSH2 0x2177 JUMP JUMPDEST DUP2 EQ PUSH2 0x219B JUMPI PUSH0 DUP1 REVERT JUMPDEST POP JUMP JUMPDEST PUSH0 DUP2 CALLDATALOAD SWAP1 POP PUSH2 0x21AC DUP2 PUSH2 0x2188 JUMP JUMPDEST SWAP3 SWAP2 POP POP JUMP JUMPDEST PUSH0 DUP1 PUSH0 PUSH1 0x60 DUP5 DUP7 SUB SLT ISZERO PUSH2 0x21C9 JUMPI PUSH2 0x21C8 PUSH2 0x1AC3 JUMP JUMPDEST JUMPDEST PUSH0 PUSH2 0x21D6 DUP7 DUP3 DUP8 ADD PUSH2 0x1B48 JUMP JUMPDEST SWAP4 POP POP PUSH1 0x20 PUSH2 0x21E7 DUP7 DUP3 DUP8 ADD PUSH2 0x219E JUMP JUMPDEST SWAP3 POP POP PUSH1 0x40 PUSH2 0x21F8 DUP7 DUP3 DUP8 ADD PUSH2 0x1B11 JUMP JUMPDEST SWAP2 POP POP SWAP3 POP SWAP3 POP SWAP3 JUMP JUMPDEST PUSH32 0x4E487B7100000000000000000000000000000000000000000000000000000000 PUSH0 MSTORE PUSH1 0x32 PUSH1 0x4 MSTORE PUSH1 0x24 PUSH0 REVERT JUMPDEST PUSH32 0x546865207472616E73666572206F66207468697320746F6B656E206973206375 PUSH0 DUP3 ADD MSTORE PUSH32 0x7272656E746C792062616E6E6564000000000000000000000000000000000000 PUSH1 0x20 DUP3 ADD MSTORE POP JUMP JUMPDEST PUSH0 PUSH2 0x2289 PUSH1 0x2E DUP4 PUSH2 0x2043 JUMP JUMPDEST SWAP2 POP PUSH2 0x2294 DUP3 PUSH2 0x222F JUMP JUMPDEST PUSH1 0x40 DUP3 ADD SWAP1 POP SWAP2 SWAP1 POP JUMP JUMPDEST PUSH0 PUSH1 0x20 DUP3 ADD SWAP1 POP DUP2 DUP2 SUB PUSH0 DUP4 ADD MSTORE PUSH2 0x22B6 DUP2 PUSH2 0x227D JUMP JUMPDEST SWAP1 POP SWAP2 SWAP1 POP JUMP JUMPDEST PUSH0 DUP2 SWAP1 POP SWAP2 SWAP1 POP JUMP JUMPDEST PUSH0 DUP2 SWAP1 POP SWAP2 SWAP1 POP JUMP JUMPDEST PUSH0 PUSH2 0x22E9 PUSH2 0x22E4 PUSH2 0x22DF DUP5 PUSH2 0x1B25 JUMP JUMPDEST PUSH2 0x22C6 JUMP JUMPDEST PUSH2 0x22BD JUMP JUMPDEST SWAP1 POP SWAP2 SWAP1 POP JUMP JUMPDEST PUSH2 0x22F9 DUP2 PUSH2 0x22CF JUMP JUMPDEST DUP3 MSTORE POP POP JUMP JUMPDEST PUSH0 PUSH1 0x40 DUP3 ADD SWAP1 POP PUSH2 0x2312 PUSH0 DUP4 ADD DUP6 PUSH2 0x1C5B JUMP JUMPDEST PUSH2 0x231F PUSH1 0x20 DUP4 ADD DUP5 PUSH2 0x22F0 JUMP JUMPDEST SWAP4 SWAP3 POP POP POP JUMP JUMPDEST PUSH0 PUSH1 0x60 DUP3 ADD SWAP1 POP PUSH2 0x2339 PUSH0 DUP4 ADD DUP7 PUSH2 0x1C5B JUMP JUMPDEST PUSH2 0x2346 PUSH1 0x20 DUP4 ADD DUP6 PUSH2 0x22F0 JUMP JUMPDEST PUSH2 0x2353 PUSH1 0x40 DUP4 ADD DUP5 PUSH2 0x1C5B JUMP JUMPDEST SWAP5 SWAP4 POP POP POP POP JUMP JUMPDEST PUSH32 0x54686520696E70757420616464726573732063616E6E6F74206265207A65726F PUSH0 DUP3 ADD MSTORE POP JUMP JUMPDEST PUSH0 PUSH2 0x238F PUSH1 0x20 DUP4 PUSH2 0x2043 JUMP JUMPDEST SWAP2 POP PUSH2 0x239A DUP3 PUSH2 0x235B JUMP JUMPDEST PUSH1 0x20 DUP3 ADD SWAP1 POP SWAP2 SWAP1 POP JUMP JUMPDEST PUSH0 PUSH1 0x20 DUP3 ADD SWAP1 POP DUP2 DUP2 SUB PUSH0 DUP4 ADD MSTORE PUSH2 0x23BC DUP2 PUSH2 0x2383 JUMP JUMPDEST SWAP1 POP SWAP2 SWAP1 POP JUMP JUMPDEST PUSH32 0x5468652061646472657373206F6620746865206F776E657220616E6420746865 PUSH0 DUP3 ADD MSTORE PUSH32 0x206F70657261746F72206D75737420626520646966666572656E740000000000 PUSH1 0x20 DUP3 ADD MSTORE POP JUMP JUMPDEST PUSH0 PUSH2 0x241D PUSH1 0x3B DUP4 PUSH2 0x2043 JUMP JUMPDEST SWAP2 POP PUSH2 0x2428 DUP3 PUSH2 0x23C3 JUMP JUMPDEST PUSH1 0x40 DUP3 ADD SWAP1 POP SWAP2 SWAP1 POP JUMP JUMPDEST PUSH0 PUSH1 0x20 DUP3 ADD SWAP1 POP DUP2 DUP2 SUB PUSH0 DUP4 ADD MSTORE PUSH2 0x244A DUP2 PUSH2 0x2411 JUMP JUMPDEST SWAP1 POP SWAP2 SWAP1 POP JUMP JUMPDEST PUSH0 DUP2 SWAP1 POP SWAP3 SWAP2 POP POP JUMP JUMPDEST PUSH0 PUSH2 0x2465 DUP3 PUSH2 0x2039 JUMP JUMPDEST PUSH2 0x246F DUP2 DUP6 PUSH2 0x2451 JUMP JUMPDEST SWAP4 POP PUSH2 0x247F DUP2 DUP6 PUSH1 0x20 DUP7 ADD PUSH2 0x2053 JUMP JUMPDEST DUP1 DUP5 ADD SWAP2 POP POP SWAP3 SWAP2 POP POP JUMP JUMPDEST PUSH0 PUSH2 0x2496 DUP3 DUP6 PUSH2 0x245B JUMP JUMPDEST SWAP2 POP PUSH2 0x24A2 DUP3 DUP5 PUSH2 0x245B JUMP JUMPDEST SWAP2 POP DUP2 SWAP1 POP SWAP4 SWAP3 POP POP POP JUMP JUMPDEST PUSH32 0x5468652061646472657373206F66207468652072656769737472616E74206D75 PUSH0 DUP3 ADD MSTORE PUSH32 0x7374206E6F742062652030206F72207468652061646472657373206F66206120 PUSH1 0x20 DUP3 ADD MSTORE PUSH32 0x636F6E7472616374000000000000000000000000000000000000000000000000 PUSH1 0x40 DUP3 ADD MSTORE POP JUMP JUMPDEST PUSH0 PUSH2 0x252E PUSH1 0x48 DUP4 PUSH2 0x2043 JUMP JUMPDEST SWAP2 POP PUSH2 0x2539 DUP3 PUSH2 0x24AE JUMP JUMPDEST PUSH1 0x60 DUP3 ADD SWAP1 POP SWAP2 SWAP1 POP JUMP JUMPDEST PUSH0 PUSH1 0x20 DUP3 ADD SWAP1 POP DUP2 DUP2 SUB PUSH0 DUP4 ADD MSTORE PUSH2 0x255B DUP2 PUSH2 0x2522 JUMP JUMPDEST SWAP1 POP SWAP2 SWAP1 POP JUMP JUMPDEST PUSH32 0x596F7520646F206E6F7420686176652061636365737320746F20746869732066 PUSH0 DUP3 ADD MSTORE PUSH32 0x756E6374696F6E00000000000000000000000000000000000000000000000000 PUSH1 0x20 DUP3 ADD MSTORE POP JUMP JUMPDEST PUSH0 PUSH2 0x25BC PUSH1 0x27 DUP4 PUSH2 0x2043 JUMP JUMPDEST SWAP2 POP PUSH2 0x25C7 DUP3 PUSH2 0x2562 JUMP JUMPDEST PUSH1 0x40 DUP3 ADD SWAP1 POP SWAP2 SWAP1 POP JUMP JUMPDEST PUSH0 PUSH1 0x20 DUP3 ADD SWAP1 POP DUP2 DUP2 SUB PUSH0 DUP4 ADD MSTORE PUSH2 0x25E9 DUP2 PUSH2 0x25B0 JUMP JUMPDEST SWAP1 POP SWAP2 SWAP1 POP JUMP JUMPDEST PUSH32 0x54686520656E746572656420706172616D657465727320617265206E6F742061 PUSH0 DUP3 ADD MSTORE PUSH32 0x636365707461626C650000000000000000000000000000000000000000000000 PUSH1 0x20 DUP3 ADD MSTORE POP JUMP JUMPDEST PUSH0 PUSH2 0x264A PUSH1 0x29 DUP4 PUSH2 0x2043 JUMP JUMPDEST SWAP2 POP PUSH2 0x2655 DUP3 PUSH2 0x25F0 JUMP JUMPDEST PUSH1 0x40 DUP3 ADD SWAP1 POP SWAP2 SWAP1 POP JUMP JUMPDEST PUSH0 PUSH1 0x20 DUP3 ADD SWAP1 POP DUP2 DUP2 SUB PUSH0 DUP4 ADD MSTORE PUSH2 0x2677 DUP2 PUSH2 0x263E JUMP JUMPDEST SWAP1 POP SWAP2 SWAP1 POP JUMP JUMPDEST PUSH32 0x596F7520646F206E6F742068617665207065726D697373696F6E20746F207570 PUSH0 DUP3 ADD MSTORE PUSH32 0x6772616465000000000000000000000000000000000000000000000000000000 PUSH1 0x20 DUP3 ADD MSTORE POP JUMP JUMPDEST PUSH0 PUSH2 0x26D8 PUSH1 0x25 DUP4 PUSH2 0x2043 JUMP JUMPDEST SWAP2 POP PUSH2 0x26E3 DUP3 PUSH2 0x267E JUMP JUMPDEST PUSH1 0x40 DUP3 ADD SWAP1 POP SWAP2 SWAP1 POP JUMP JUMPDEST PUSH0 PUSH1 0x20 DUP3 ADD SWAP1 POP DUP2 DUP2 SUB PUSH0 DUP4 ADD MSTORE PUSH2 0x2705 DUP2 PUSH2 0x26CC JUMP JUMPDEST SWAP1 POP SWAP2 SWAP1 POP JUMP JUMPDEST PUSH32 0x54686520494420656E746572656420697320696E76616C69642E204974206D75 PUSH0 DUP3 ADD MSTORE PUSH32 0x737420626520696E207468697320696E74657276616C2030203C206964203C3D PUSH1 0x20 DUP3 ADD MSTORE PUSH32 0x2063757272656E7420746F6B656E730000000000000000000000000000000000 PUSH1 0x40 DUP3 ADD MSTORE POP JUMP JUMPDEST PUSH0 PUSH2 0x278C PUSH1 0x4F DUP4 PUSH2 0x2043 JUMP JUMPDEST SWAP2 POP PUSH2 0x2797 DUP3 PUSH2 0x270C JUMP JUMPDEST PUSH1 0x60 DUP3 ADD SWAP1 POP SWAP2 SWAP1 POP JUMP JUMPDEST PUSH0 PUSH1 0x20 DUP3 ADD SWAP1 POP DUP2 DUP2 SUB PUSH0 DUP4 ADD MSTORE PUSH2 0x27B9 DUP2 PUSH2 0x2780 JUMP JUMPDEST SWAP1 POP SWAP2 SWAP1 POP JUMP JUMPDEST PUSH32 0x4E487B7100000000000000000000000000000000000000000000000000000000 PUSH0 MSTORE PUSH1 0x11 PUSH1 0x4 MSTORE PUSH1 0x24 PUSH0 REVERT JUMPDEST PUSH0 PUSH2 0x27F7 DUP3 PUSH2 0x1B25 JUMP JUMPDEST SWAP2 POP PUSH2 0xFFFF DUP3 SUB PUSH2 0x280B JUMPI PUSH2 0x280A PUSH2 0x27C0 JUMP JUMPDEST JUMPDEST PUSH1 0x1 DUP3 ADD SWAP1 POP SWAP2 SWAP1 POP JUMP JUMPDEST PUSH0 PUSH2 0x2820 DUP3 PUSH2 0x1B25 JUMP JUMPDEST SWAP2 POP PUSH2 0x282B DUP4 PUSH2 0x1B25 JUMP JUMPDEST SWAP3 POP DUP3 DUP3 SUB SWAP1 POP PUSH2 0xFFFF DUP2 GT ISZERO PUSH2 0x2845 JUMPI PUSH2 0x2844 PUSH2 0x27C0 JUMP JUMPDEST JUMPDEST SWAP3 SWAP2 POP POP JUMP JUMPDEST PUSH0 PUSH2 0x2855 DUP3 PUSH2 0x1B25 JUMP JUMPDEST SWAP2 POP PUSH2 0x2860 DUP4 PUSH2 0x1B25 JUMP JUMPDEST SWAP3 POP DUP3 DUP3 ADD SWAP1 POP PUSH2 0xFFFF DUP2 GT ISZERO PUSH2 0x287A JUMPI PUSH2 0x2879 PUSH2 0x27C0 JUMP JUMPDEST JUMPDEST SWAP3 SWAP2 POP POP JUMP JUMPDEST PUSH0 DUP2 MLOAD SWAP1 POP SWAP2 SWAP1 POP JUMP JUMPDEST PUSH0 DUP3 DUP3 MSTORE PUSH1 0x20 DUP3 ADD SWAP1 POP SWAP3 SWAP2 POP POP JUMP JUMPDEST PUSH0 PUSH2 0x28A4 DUP3 PUSH2 0x2880 JUMP JUMPDEST PUSH2 0x28AE DUP2 DUP6 PUSH2 0x288A JUMP JUMPDEST SWAP4 POP PUSH2 0x28BE DUP2 DUP6 PUSH1 0x20 DUP7 ADD PUSH2 0x2053 JUMP JUMPDEST PUSH2 0x28C7 DUP2 PUSH2 0x1D51 JUMP JUMPDEST DUP5 ADD SWAP2 POP POP SWAP3 SWAP2 POP POP JUMP JUMPDEST PUSH0 PUSH1 0x80 DUP3 ADD SWAP1 POP PUSH2 0x28E5 PUSH0 DUP4 ADD DUP8 PUSH2 0x1C5B JUMP JUMPDEST PUSH2 0x28F2 PUSH1 0x20 DUP4 ADD DUP7 PUSH2 0x1C5B JUMP JUMPDEST PUSH2 0x28FF PUSH1 0x40 DUP4 ADD DUP6 PUSH2 0x1C08 JUMP JUMPDEST DUP2 DUP2 SUB PUSH1 0x60 DUP4 ADD MSTORE PUSH2 0x2911 DUP2 DUP5 PUSH2 0x289A JUMP JUMPDEST SWAP1 POP SWAP6 SWAP5 POP POP POP POP POP JUMP JUMPDEST PUSH2 0x2925 DUP2 PUSH2 0x1FE6 JUMP JUMPDEST DUP2 EQ PUSH2 0x292F JUMPI PUSH0 DUP1 REVERT JUMPDEST POP JUMP JUMPDEST PUSH0 DUP2 MLOAD SWAP1 POP PUSH2 0x2940 DUP2 PUSH2 0x291C JUMP JUMPDEST SWAP3 SWAP2 POP POP JUMP JUMPDEST PUSH0 PUSH1 0x20 DUP3 DUP5 SUB SLT ISZERO PUSH2 0x295B JUMPI PUSH2 0x295A PUSH2 0x1AC3 JUMP JUMPDEST JUMPDEST PUSH0 PUSH2 0x2968 DUP5 DUP3 DUP6 ADD PUSH2 0x2932 JUMP JUMPDEST SWAP2 POP POP SWAP3 SWAP2 POP POP JUMP JUMPDEST PUSH32 0x4E487B7100000000000000000000000000000000000000000000000000000000 PUSH0 MSTORE PUSH1 0x12 PUSH1 0x4 MSTORE PUSH1 0x24 PUSH0 REVERT INVALID LOG2 PUSH5 0x6970667358 0x22 SLT KECCAK256 SWAP5 DUP15 COINBASE 0xAC OR 0x2C PUSH20 0x4CB51E5E869807F752DECCBC3DB0DC4D0DE72795 PUSH16 0x165A0EC364736F6C6343000814003300 "
				},
				"gasEstimates": {
					"creation": {
						"codeDepositCost": "2141600",
						"executionCost": "infinite",
						"totalCost": "infinite"
					},
					"external": {
						"approve(address,uint16)": "infinite",
						"balanceOf(address)": "2990",
						"getApproved(uint16)": "7419",
						"isApprovedForAll(address,address)": "infinite",
						"name()": "2497",
						"onERC721Received(address,address,uint16,bytes)": "infinite",
						"ownerOf(uint16)": "5169",
						"safeTransferFrom(address,address,uint16)": "infinite",
						"safeTransferFrom(address,address,uint16,bytes)": "infinite",
						"setApprovalForAll(address,bool)": "infinite",
						"setRegister()": "3245",
						"stateVoting()": "414",
						"symbol()": "2613",
						"tokenURI(uint16)": "5586",
						"transferFrom(address,address,uint16)": "infinite",
						"updateMintInfo(uint16,uint48,address)": "80410"
					},
					"internal": {
						"_aprove(address,uint16,address)": "26307",
						"_baseURI()": "infinite",
						"_checkOnERC721Received(address,address,uint16,bytes memory)": "infinite",
						"_requireOwned(uint16)": "infinite",
						"_update(address,uint16,address)": "infinite",
						"setStateVoting(bytes32)": "11"
					}
				},
				"methodIdentifiers": {
					"approve(address,uint16)": "e560ca43",
					"balanceOf(address)": "70a08231",
					"getApproved(uint16)": "93b871f2",
					"isApprovedForAll(address,address)": "e985e9c5",
					"name()": "06fdde03",
					"onERC721Received(address,address,uint16,bytes)": "b1cff380",
					"ownerOf(uint16)": "82a7cf1e",
					"safeTransferFrom(address,address,uint16)": "07394401",
					"safeTransferFrom(address,address,uint16,bytes)": "b145ae31",
					"setApprovalForAll(address,bool)": "a22cb465",
					"setRegister()": "ecadbc04",
					"stateVoting()": "6e1514f1",
					"symbol()": "95d89b41",
					"tokenURI(uint16)": "dd7d8440",
					"transferFrom(address,address,uint16)": "4ec3dcfe",
					"updateMintInfo(uint16,uint48,address)": "edbe39a0"
				}
			},
			"storageLayout": {
				"storage": [
					{
						"astId": 1888,
						"contract": "contracts/ERC721TokenContractName.sol:ERC721TokenContractName",
						"label": "_name",
						"offset": 0,
						"slot": "0",
						"type": "t_bytes20"
					},
					{
						"astId": 1890,
						"contract": "contracts/ERC721TokenContractName.sol:ERC721TokenContractName",
						"label": "_symbol",
						"offset": 20,
						"slot": "0",
						"type": "t_bytes10"
					},
					{
						"astId": 1904,
						"contract": "contracts/ERC721TokenContractName.sol:ERC721TokenContractName",
						"label": "mintInfo",
						"offset": 0,
						"slot": "1",
						"type": "t_struct(MintInfo)1901_storage"
					},
					{
						"astId": 1908,
						"contract": "contracts/ERC721TokenContractName.sol:ERC721TokenContractName",
						"label": "_owners",
						"offset": 0,
						"slot": "2",
						"type": "t_array(t_address)1201_storage"
					},
					{
						"astId": 1912,
						"contract": "contracts/ERC721TokenContractName.sol:ERC721TokenContractName",
						"label": "ban",
						"offset": 0,
						"slot": "1203",
						"type": "t_array(t_bool)1201_storage"
					},
					{
						"astId": 1918,
						"contract": "contracts/ERC721TokenContractName.sol:ERC721TokenContractName",
						"label": "_balanceAndTokId",
						"offset": 0,
						"slot": "1241",
						"type": "t_mapping(t_address,t_array(t_uint16)1201_storage)"
					},
					{
						"astId": 1922,
						"contract": "contracts/ERC721TokenContractName.sol:ERC721TokenContractName",
						"label": "_tokenApprovals",
						"offset": 0,
						"slot": "1242",
						"type": "t_mapping(t_uint16,t_address)"
					},
					{
						"astId": 1928,
						"contract": "contracts/ERC721TokenContractName.sol:ERC721TokenContractName",
						"label": "_operatorApprovals",
						"offset": 0,
						"slot": "1243",
						"type": "t_mapping(t_address,t_mapping(t_address,t_bool))"
					}
				],
				"types": {
					"t_address": {
						"encoding": "inplace",
						"label": "address",
						"numberOfBytes": "20"
					},
					"t_array(t_address)1201_storage": {
						"base": "t_address",
						"encoding": "inplace",
						"label": "address[1201]",
						"numberOfBytes": "38432"
					},
					"t_array(t_bool)1201_storage": {
						"base": "t_bool",
						"encoding": "inplace",
						"label": "bool[1201]",
						"numberOfBytes": "1216"
					},
					"t_array(t_uint16)1201_storage": {
						"base": "t_uint16",
						"encoding": "inplace",
						"label": "uint16[1201]",
						"numberOfBytes": "2432"
					},
					"t_bool": {
						"encoding": "inplace",
						"label": "bool",
						"numberOfBytes": "1"
					},
					"t_bytes10": {
						"encoding": "inplace",
						"label": "bytes10",
						"numberOfBytes": "10"
					},
					"t_bytes20": {
						"encoding": "inplace",
						"label": "bytes20",
						"numberOfBytes": "20"
					},
					"t_mapping(t_address,t_array(t_uint16)1201_storage)": {
						"encoding": "mapping",
						"key": "t_address",
						"label": "mapping(address => uint16[1201])",
						"numberOfBytes": "32",
						"value": "t_array(t_uint16)1201_storage"
					},
					"t_mapping(t_address,t_bool)": {
						"encoding": "mapping",
						"key": "t_address",
						"label": "mapping(address => bool)",
						"numberOfBytes": "32",
						"value": "t_bool"
					},
					"t_mapping(t_address,t_mapping(t_address,t_bool))": {
						"encoding": "mapping",
						"key": "t_address",
						"label": "mapping(address => mapping(address => bool))",
						"numberOfBytes": "32",
						"value": "t_mapping(t_address,t_bool)"
					},
					"t_mapping(t_uint16,t_address)": {
						"encoding": "mapping",
						"key": "t_uint16",
						"label": "mapping(uint16 => address)",
						"numberOfBytes": "32",
						"value": "t_address"
					},
					"t_struct(MintInfo)1901_storage": {
						"encoding": "inplace",
						"label": "struct ERC721TokenContractName.MintInfo",
						"members": [
							{
								"astId": 1892,
								"contract": "contracts/ERC721TokenContractName.sol:ERC721TokenContractName",
								"label": "maxMinted",
								"offset": 0,
								"slot": "0",
								"type": "t_uint16"
							},
							{
								"astId": 1894,
								"contract": "contracts/ERC721TokenContractName.sol:ERC721TokenContractName",
								"label": "currentTokens",
								"offset": 2,
								"slot": "0",
								"type": "t_uint16"
							},
							{
								"astId": 1896,
								"contract": "contracts/ERC721TokenContractName.sol:ERC721TokenContractName",
								"label": "nRegistrants",
								"offset": 4,
								"slot": "0",
								"type": "t_uint16"
							},
							{
								"astId": 1898,
								"contract": "contracts/ERC721TokenContractName.sol:ERC721TokenContractName",
								"label": "registrationStartTime",
								"offset": 6,
								"slot": "0",
								"type": "t_uint48"
							},
							{
								"astId": 1900,
								"contract": "contracts/ERC721TokenContractName.sol:ERC721TokenContractName",
								"label": "executor",
								"offset": 12,
								"slot": "0",
								"type": "t_address"
							}
						],
						"numberOfBytes": "32"
					},
					"t_uint16": {
						"encoding": "inplace",
						"label": "uint16",
						"numberOfBytes": "2"
					},
					"t_uint48": {
						"encoding": "inplace",
						"label": "uint48",
						"numberOfBytes": "6"
					}
				}
			},
			"userdoc": {
				"kind": "user",
				"methods": {},
				"version": 1
			}
		}
	}
}