{
	"contracts/3_Ballot.sol": {
		"BallotTCN": {
			"abi": [
				{
					"inputs": [
						{
							"components": [
								{
									"internalType": "string",
									"name": "signature",
									"type": "string"
								},
								{
									"internalType": "string",
									"name": "description",
									"type": "string"
								},
								{
									"internalType": "bytes32",
									"name": "descriptionHash",
									"type": "bytes32"
								},
								{
									"internalType": "address",
									"name": "governance",
									"type": "address"
								}
							],
							"internalType": "struct BallotTCN.CALLDATAPARAM",
							"name": "callDataParam_",
							"type": "tuple"
						},
						{
							"internalType": "string",
							"name": "description_",
							"type": "string"
						},
						{
							"internalType": "uint256",
							"name": "value_",
							"type": "uint256"
						},
						{
							"components": [
								{
									"internalType": "uint16",
									"name": "quorum",
									"type": "uint16"
								},
								{
									"internalType": "uint32",
									"name": "voteDuration",
									"type": "uint32"
								},
								{
									"internalType": "uint48",
									"name": "voteStart",
									"type": "uint48"
								},
								{
									"internalType": "uint48",
									"name": "etaSeconds",
									"type": "uint48"
								}
							],
							"internalType": "struct BallotTCN.VOTINGPARAM",
							"name": "votingParams_",
							"type": "tuple"
						}
					],
					"stateMutability": "nonpayable",
					"type": "constructor"
				},
				{
					"inputs": [
						{
							"internalType": "address",
							"name": "proposer",
							"type": "address"
						}
					],
					"name": "invalidProposer",
					"type": "error"
				},
				{
					"inputs": [],
					"name": "chairperson",
					"outputs": [
						{
							"internalType": "address",
							"name": "",
							"type": "address"
						}
					],
					"stateMutability": "view",
					"type": "function"
				},
				{
					"inputs": [
						{
							"internalType": "address",
							"name": "to",
							"type": "address"
						}
					],
					"name": "delegate",
					"outputs": [],
					"stateMutability": "nonpayable",
					"type": "function"
				},
				{
					"inputs": [],
					"name": "getBallotCallData",
					"outputs": [
						{
							"internalType": "bytes",
							"name": "callData",
							"type": "bytes"
						}
					],
					"stateMutability": "view",
					"type": "function"
				},
				{
					"inputs": [],
					"name": "getBallotCallDataParams",
					"outputs": [
						{
							"internalType": "string",
							"name": "",
							"type": "string"
						},
						{
							"internalType": "string",
							"name": "",
							"type": "string"
						},
						{
							"internalType": "bytes32",
							"name": "",
							"type": "bytes32"
						},
						{
							"internalType": "address",
							"name": "",
							"type": "address"
						}
					],
					"stateMutability": "view",
					"type": "function"
				},
				{
					"inputs": [],
					"name": "getBallotProposalId",
					"outputs": [
						{
							"internalType": "uint256",
							"name": "proposalId",
							"type": "uint256"
						}
					],
					"stateMutability": "view",
					"type": "function"
				},
				{
					"inputs": [],
					"name": "getBallotProposalParams",
					"outputs": [
						{
							"internalType": "address",
							"name": "",
							"type": "address"
						},
						{
							"internalType": "address",
							"name": "",
							"type": "address"
						},
						{
							"internalType": "uint256",
							"name": "",
							"type": "uint256"
						}
					],
					"stateMutability": "view",
					"type": "function"
				},
				{
					"inputs": [],
					"name": "getBalootVotingParams",
					"outputs": [
						{
							"internalType": "uint16",
							"name": "",
							"type": "uint16"
						},
						{
							"internalType": "uint32",
							"name": "",
							"type": "uint32"
						},
						{
							"internalType": "uint48",
							"name": "",
							"type": "uint48"
						},
						{
							"internalType": "uint48",
							"name": "",
							"type": "uint48"
						}
					],
					"stateMutability": "view",
					"type": "function"
				},
				{
					"inputs": [
						{
							"internalType": "address",
							"name": "voter",
							"type": "address"
						}
					],
					"name": "giveRightToVote",
					"outputs": [],
					"stateMutability": "nonpayable",
					"type": "function"
				},
				{
					"inputs": [
						{
							"internalType": "uint256",
							"name": "",
							"type": "uint256"
						}
					],
					"name": "proposals",
					"outputs": [
						{
							"internalType": "bytes32",
							"name": "name",
							"type": "bytes32"
						},
						{
							"internalType": "uint256",
							"name": "voteCount",
							"type": "uint256"
						}
					],
					"stateMutability": "view",
					"type": "function"
				},
				{
					"inputs": [
						{
							"internalType": "uint256",
							"name": "proposal",
							"type": "uint256"
						}
					],
					"name": "vote",
					"outputs": [],
					"stateMutability": "nonpayable",
					"type": "function"
				},
				{
					"inputs": [],
					"name": "voteCountProposal",
					"outputs": [
						{
							"internalType": "uint256",
							"name": "winningProposal_",
							"type": "uint256"
						}
					],
					"stateMutability": "view",
					"type": "function"
				},
				{
					"inputs": [
						{
							"internalType": "address",
							"name": "",
							"type": "address"
						}
					],
					"name": "voters",
					"outputs": [
						{
							"internalType": "uint256",
							"name": "weight",
							"type": "uint256"
						},
						{
							"internalType": "bool",
							"name": "voted",
							"type": "bool"
						},
						{
							"internalType": "address",
							"name": "delegate",
							"type": "address"
						},
						{
							"internalType": "uint256",
							"name": "vote",
							"type": "uint256"
						}
					],
					"stateMutability": "view",
					"type": "function"
				},
				{
					"inputs": [],
					"name": "winnerName",
					"outputs": [
						{
							"internalType": "bytes32",
							"name": "winnerName_",
							"type": "bytes32"
						}
					],
					"stateMutability": "view",
					"type": "function"
				}
			],
			"devdoc": {
				"details": "Implements voting process along with vote delegation",
				"kind": "dev",
				"methods": {
					"delegate(address)": {
						"details": "Delegate your vote to the voter 'to'.",
						"params": {
							"to": "address to which vote is delegated"
						}
					},
					"giveRightToVote(address)": {
						"details": "Give 'voter' the right to vote on this ballot. May only be called by 'chairperson'.",
						"params": {
							"voter": "address of voter"
						}
					},
					"vote(uint256)": {
						"details": "Give your vote (including votes delegated to you) to proposal 'proposals[proposal].name'.",
						"params": {
							"proposal": "index of proposal in the proposals array"
						}
					},
					"voteCountProposal()": {
						"details": "Computes the winning proposal taking all previous votes into account.",
						"returns": {
							"winningProposal_": "index of winning proposal in the proposals array"
						}
					},
					"winnerName()": {
						"details": "Calls winningProposal() function to get the index of the winner contained in the proposals array and then",
						"returns": {
							"winnerName_": "the name of the winner"
						}
					}
				},
				"title": "Ballot",
				"version": 1
			},
			"evm": {
				"assembly": "    /* \"contracts/3_Ballot.sol\":146:9070  contract BallotTCN {... */\n  mstore(0x40, 0x80)\n    /* \"contracts/3_Ballot.sol\":1821:3285  constructor(... */\n  callvalue\n  dup1\n  iszero\n  tag_1\n  jumpi\n  0x00\n  dup1\n  revert\ntag_1:\n  pop\n  mload(0x40)\n  sub(codesize, bytecodeSize)\n  dup1\n  bytecodeSize\n  dup4\n  codecopy\n  dup2\n  dup2\n  add\n  0x40\n  mstore\n  dup2\n  add\n  swap1\n  tag_2\n  swap2\n  swap1\n  tag_3\n  jump\t// in\ntag_2:\n    /* \"contracts/3_Ballot.sol\":2070:2084  callDataParam_ */\n  dup4\n    /* \"contracts/3_Ballot.sol\":2070:2094  callDataParam_.signature */\n  0x00\n  add\n  mload\n    /* \"contracts/3_Ballot.sol\":2043:2057  _callDataParam */\n  0x01\n    /* \"contracts/3_Ballot.sol\":2043:2067  _callDataParam.signature */\n  0x00\n  add\n    /* \"contracts/3_Ballot.sol\":2043:2094  _callDataParam.signature = callDataParam_.signature */\n  swap1\n  dup2\n  tag_6\n  swap2\n  swap1\n  tag_7\n  jump\t// in\ntag_6:\n  pop\n    /* \"contracts/3_Ballot.sol\":2158:2170  description_ */\n  dup3\n    /* \"contracts/3_Ballot.sol\":2147:2171  abi.encode(description_) */\n  add(0x20, mload(0x40))\n  tag_8\n  swap2\n  swap1\n  tag_9\n  jump\t// in\ntag_8:\n  mload(0x40)\n  0x20\n  dup2\n  dup4\n  sub\n  sub\n  dup2\n  mstore\n  swap1\n  0x40\n  mstore\n    /* \"contracts/3_Ballot.sol\":2137:2172  keccak256(abi.encode(description_)) */\n  dup1\n  mload\n  swap1\n  0x20\n  add\n  keccak256\n    /* \"contracts/3_Ballot.sol\":2104:2118  _callDataParam */\n  0x01\n    /* \"contracts/3_Ballot.sol\":2104:2134  _callDataParam.descriptionHash */\n  0x02\n  add\n    /* \"contracts/3_Ballot.sol\":2104:2172  _callDataParam.descriptionHash = keccak256(abi.encode(description_)) */\n  dup2\n  swap1\n  sstore\n  pop\n    /* \"contracts/3_Ballot.sol\":2210:2224  callDataParam_ */\n  dup4\n    /* \"contracts/3_Ballot.sol\":2210:2235  callDataParam_.governance */\n  0x60\n  add\n  mload\n    /* \"contracts/3_Ballot.sol\":2182:2196  _callDataParam */\n  0x01\n    /* \"contracts/3_Ballot.sol\":2182:2207  _callDataParam.governance */\n  0x03\n  add\n  0x00\n    /* \"contracts/3_Ballot.sol\":2182:2235  _callDataParam.governance = callDataParam_.governance */\n  0x0100\n  exp\n  dup2\n  sload\n  dup2\n  0xffffffffffffffffffffffffffffffffffffffff\n  mul\n  not\n  and\n  swap1\n  dup4\n  0xffffffffffffffffffffffffffffffffffffffff\n  and\n  mul\n  or\n  swap1\n  sstore\n  pop\n    /* \"contracts/3_Ballot.sol\":2299:2309  msg.sender */\n  caller\n    /* \"contracts/3_Ballot.sol\":2272:2287  _proposalParams */\n  0x05\n    /* \"contracts/3_Ballot.sol\":2272:2296  _proposalParams.proposer */\n  0x01\n  add\n  0x00\n    /* \"contracts/3_Ballot.sol\":2272:2309  _proposalParams.proposer = msg.sender */\n  0x0100\n  exp\n  dup2\n  sload\n  dup2\n  0xffffffffffffffffffffffffffffffffffffffff\n  mul\n  not\n  and\n  swap1\n  dup4\n  0xffffffffffffffffffffffffffffffffffffffff\n  and\n  mul\n  or\n  swap1\n  sstore\n  pop\n    /* \"contracts/3_Ballot.sol\":2344:2361  _targetConnectors */\n  0x09\n    /* \"contracts/3_Ballot.sol\":2344:2387  _targetConnectors[_proposalParams.proposer] */\n  0x00\n    /* \"contracts/3_Ballot.sol\":2362:2377  _proposalParams */\n  0x05\n    /* \"contracts/3_Ballot.sol\":2362:2386  _proposalParams.proposer */\n  0x01\n  add\n  0x00\n  swap1\n  sload\n  swap1\n  0x0100\n  exp\n  swap1\n  div\n  0xffffffffffffffffffffffffffffffffffffffff\n  and\n    /* \"contracts/3_Ballot.sol\":2344:2387  _targetConnectors[_proposalParams.proposer] */\n  0xffffffffffffffffffffffffffffffffffffffff\n  and\n  0xffffffffffffffffffffffffffffffffffffffff\n  and\n  dup2\n  mstore\n  0x20\n  add\n  swap1\n  dup2\n  mstore\n  0x20\n  add\n  0x00\n  keccak256\n  0x00\n  swap1\n  sload\n  swap1\n  0x0100\n  exp\n  swap1\n  div\n  0xffffffffffffffffffffffffffffffffffffffff\n  and\n    /* \"contracts/3_Ballot.sol\":2319:2334  _proposalParams */\n  0x05\n    /* \"contracts/3_Ballot.sol\":2319:2341  _proposalParams.target */\n  0x00\n  add\n  0x00\n    /* \"contracts/3_Ballot.sol\":2319:2387  _proposalParams.target = _targetConnectors[_proposalParams.proposer] */\n  0x0100\n  exp\n  dup2\n  sload\n  dup2\n  0xffffffffffffffffffffffffffffffffffffffff\n  mul\n  not\n  and\n  swap1\n  dup4\n  0xffffffffffffffffffffffffffffffffffffffff\n  and\n  mul\n  or\n  swap1\n  sstore\n  pop\n    /* \"contracts/3_Ballot.sol\":2435:2436  0 */\n  0x00\n    /* \"contracts/3_Ballot.sol\":2401:2437  _proposalParams.target == address(0) */\n  0xffffffffffffffffffffffffffffffffffffffff\n  and\n    /* \"contracts/3_Ballot.sol\":2401:2416  _proposalParams */\n  0x05\n    /* \"contracts/3_Ballot.sol\":2401:2423  _proposalParams.target */\n  0x00\n  add\n  0x00\n  swap1\n  sload\n  swap1\n  0x0100\n  exp\n  swap1\n  div\n  0xffffffffffffffffffffffffffffffffffffffff\n  and\n    /* \"contracts/3_Ballot.sol\":2401:2437  _proposalParams.target == address(0) */\n  0xffffffffffffffffffffffffffffffffffffffff\n  and\n  sub\n    /* \"contracts/3_Ballot.sol\":2397:2512  if (_proposalParams.target == address(0)) {... */\n  tag_10\n  jumpi\n    /* \"contracts/3_Ballot.sol\":2476:2491  _proposalParams */\n  0x05\n    /* \"contracts/3_Ballot.sol\":2476:2500  _proposalParams.proposer */\n  0x01\n  add\n  0x00\n  swap1\n  sload\n  swap1\n  0x0100\n  exp\n  swap1\n  div\n  0xffffffffffffffffffffffffffffffffffffffff\n  and\n    /* \"contracts/3_Ballot.sol\":2460:2501  invalidProposer(_proposalParams.proposer) */\n  mload(0x40)\n  0xdefe7bd300000000000000000000000000000000000000000000000000000000\n  dup2\n  mstore\n  0x04\n  add\n  tag_11\n  swap2\n  swap1\n  tag_12\n  jump\t// in\ntag_11:\n  mload(0x40)\n  dup1\n  swap2\n  sub\n  swap1\n  revert\n    /* \"contracts/3_Ballot.sol\":2397:2512  if (_proposalParams.target == address(0)) {... */\ntag_10:\n    /* \"contracts/3_Ballot.sol\":2545:2551  value_ */\n  dup2\n    /* \"contracts/3_Ballot.sol\":2521:2536  _proposalParams */\n  0x05\n    /* \"contracts/3_Ballot.sol\":2521:2542  _proposalParams.value */\n  0x02\n  add\n    /* \"contracts/3_Ballot.sol\":2521:2551  _proposalParams.value = value_ */\n  dup2\n  swap1\n  sstore\n  pop\n    /* \"contracts/3_Ballot.sol\":2609:2622  votingParams_ */\n  dup1\n    /* \"contracts/3_Ballot.sol\":2609:2629  votingParams_.quorum */\n  0x00\n  add\n  mload\n    /* \"contracts/3_Ballot.sol\":2586:2599  _votingParams */\n  0x00\n    /* \"contracts/3_Ballot.sol\":2586:2606  _votingParams.quorum */\n  dup1\n  add\n  0x00\n    /* \"contracts/3_Ballot.sol\":2586:2629  _votingParams.quorum = votingParams_.quorum */\n  0x0100\n  exp\n  dup2\n  sload\n  dup2\n  0xffff\n  mul\n  not\n  and\n  swap1\n  dup4\n  0xffff\n  and\n  mul\n  or\n  swap1\n  sstore\n  pop\n    /* \"contracts/3_Ballot.sol\":2668:2681  votingParams_ */\n  dup1\n    /* \"contracts/3_Ballot.sol\":2668:2694  votingParams_.voteDuration */\n  0x20\n  add\n  mload\n    /* \"contracts/3_Ballot.sol\":2639:2652  _votingParams */\n  0x00\n    /* \"contracts/3_Ballot.sol\":2639:2665  _votingParams.voteDuration */\n  dup1\n  add\n  0x02\n    /* \"contracts/3_Ballot.sol\":2639:2694  _votingParams.voteDuration = votingParams_.voteDuration */\n  0x0100\n  exp\n  dup2\n  sload\n  dup2\n  0xffffffff\n  mul\n  not\n  and\n  swap1\n  dup4\n  0xffffffff\n  and\n  mul\n  or\n  swap1\n  sstore\n  pop\n    /* \"contracts/3_Ballot.sol\":2730:2743  votingParams_ */\n  dup1\n    /* \"contracts/3_Ballot.sol\":2730:2753  votingParams_.voteStart */\n  0x40\n  add\n  mload\n    /* \"contracts/3_Ballot.sol\":2704:2717  _votingParams */\n  0x00\n    /* \"contracts/3_Ballot.sol\":2704:2727  _votingParams.voteStart */\n  dup1\n  add\n  0x06\n    /* \"contracts/3_Ballot.sol\":2704:2753  _votingParams.voteStart = votingParams_.voteStart */\n  0x0100\n  exp\n  dup2\n  sload\n  dup2\n  0xffffffffffff\n  mul\n  not\n  and\n  swap1\n  dup4\n  0xffffffffffff\n  and\n  mul\n  or\n  swap1\n  sstore\n  pop\n    /* \"contracts/3_Ballot.sol\":2790:2803  votingParams_ */\n  dup1\n    /* \"contracts/3_Ballot.sol\":2790:2814  votingParams_.etaSeconds */\n  0x60\n  add\n  mload\n    /* \"contracts/3_Ballot.sol\":2763:2776  _votingParams */\n  0x00\n    /* \"contracts/3_Ballot.sol\":2763:2787  _votingParams.etaSeconds */\n  dup1\n  add\n  0x0c\n    /* \"contracts/3_Ballot.sol\":2763:2814  _votingParams.etaSeconds = votingParams_.etaSeconds */\n  0x0100\n  exp\n  dup2\n  sload\n  dup2\n  0xffffffffffff\n  mul\n  not\n  and\n  swap1\n  dup4\n  0xffffffffffff\n  and\n  mul\n  or\n  swap1\n  sstore\n  pop\n    /* \"contracts/3_Ballot.sol\":1821:3285  constructor(... */\n  pop\n  pop\n  pop\n  pop\n    /* \"contracts/3_Ballot.sol\":146:9070  contract BallotTCN {... */\n  jump(tag_13)\n    /* \"#utility.yul\":7:82   */\ntag_14:\n    /* \"#utility.yul\":40:46   */\n  0x00\n    /* \"#utility.yul\":73:75   */\n  0x40\n    /* \"#utility.yul\":67:76   */\n  mload\n    /* \"#utility.yul\":57:76   */\n  swap1\n  pop\n    /* \"#utility.yul\":7:82   */\n  swap1\n  jump\t// out\n    /* \"#utility.yul\":88:205   */\ntag_15:\n    /* \"#utility.yul\":197:198   */\n  0x00\n    /* \"#utility.yul\":194:195   */\n  dup1\n    /* \"#utility.yul\":187:199   */\n  revert\n    /* \"#utility.yul\":211:328   */\ntag_16:\n    /* \"#utility.yul\":320:321   */\n  0x00\n    /* \"#utility.yul\":317:318   */\n  dup1\n    /* \"#utility.yul\":310:322   */\n  revert\n    /* \"#utility.yul\":334:451   */\ntag_17:\n    /* \"#utility.yul\":443:444   */\n  0x00\n    /* \"#utility.yul\":440:441   */\n  dup1\n    /* \"#utility.yul\":433:445   */\n  revert\n    /* \"#utility.yul\":457:559   */\ntag_18:\n    /* \"#utility.yul\":498:504   */\n  0x00\n    /* \"#utility.yul\":549:551   */\n  0x1f\n    /* \"#utility.yul\":545:552   */\n  not\n    /* \"#utility.yul\":540:542   */\n  0x1f\n    /* \"#utility.yul\":533:538   */\n  dup4\n    /* \"#utility.yul\":529:543   */\n  add\n    /* \"#utility.yul\":525:553   */\n  and\n    /* \"#utility.yul\":515:553   */\n  swap1\n  pop\n    /* \"#utility.yul\":457:559   */\n  swap2\n  swap1\n  pop\n  jump\t// out\n    /* \"#utility.yul\":565:745   */\ntag_19:\n    /* \"#utility.yul\":613:690   */\n  0x4e487b7100000000000000000000000000000000000000000000000000000000\n    /* \"#utility.yul\":610:611   */\n  0x00\n    /* \"#utility.yul\":603:691   */\n  mstore\n    /* \"#utility.yul\":710:714   */\n  0x41\n    /* \"#utility.yul\":707:708   */\n  0x04\n    /* \"#utility.yul\":700:715   */\n  mstore\n    /* \"#utility.yul\":734:738   */\n  0x24\n    /* \"#utility.yul\":731:732   */\n  0x00\n    /* \"#utility.yul\":724:739   */\n  revert\n    /* \"#utility.yul\":751:1032   */\ntag_20:\n    /* \"#utility.yul\":834:861   */\n  tag_79\n    /* \"#utility.yul\":856:860   */\n  dup3\n    /* \"#utility.yul\":834:861   */\n  tag_18\n  jump\t// in\ntag_79:\n    /* \"#utility.yul\":826:832   */\n  dup2\n    /* \"#utility.yul\":822:862   */\n  add\n    /* \"#utility.yul\":964:970   */\n  dup2\n    /* \"#utility.yul\":952:962   */\n  dup2\n    /* \"#utility.yul\":949:971   */\n  lt\n    /* \"#utility.yul\":928:946   */\n  0xffffffffffffffff\n    /* \"#utility.yul\":916:926   */\n  dup3\n    /* \"#utility.yul\":913:947   */\n  gt\n    /* \"#utility.yul\":910:972   */\n  or\n    /* \"#utility.yul\":907:995   */\n  iszero\n  tag_80\n  jumpi\n    /* \"#utility.yul\":975:993   */\n  tag_81\n  tag_19\n  jump\t// in\ntag_81:\n    /* \"#utility.yul\":907:995   */\ntag_80:\n    /* \"#utility.yul\":1015:1025   */\n  dup1\n    /* \"#utility.yul\":1011:1013   */\n  0x40\n    /* \"#utility.yul\":1004:1026   */\n  mstore\n    /* \"#utility.yul\":794:1032   */\n  pop\n    /* \"#utility.yul\":751:1032   */\n  pop\n  pop\n  jump\t// out\n    /* \"#utility.yul\":1038:1167   */\ntag_21:\n    /* \"#utility.yul\":1072:1078   */\n  0x00\n    /* \"#utility.yul\":1099:1119   */\n  tag_83\n  tag_14\n  jump\t// in\ntag_83:\n    /* \"#utility.yul\":1089:1119   */\n  swap1\n  pop\n    /* \"#utility.yul\":1128:1161   */\n  tag_84\n    /* \"#utility.yul\":1156:1160   */\n  dup3\n    /* \"#utility.yul\":1148:1154   */\n  dup3\n    /* \"#utility.yul\":1128:1161   */\n  tag_20\n  jump\t// in\ntag_84:\n    /* \"#utility.yul\":1038:1167   */\n  swap2\n  swap1\n  pop\n  jump\t// out\n    /* \"#utility.yul\":1173:1290   */\ntag_22:\n    /* \"#utility.yul\":1282:1283   */\n  0x00\n    /* \"#utility.yul\":1279:1280   */\n  dup1\n    /* \"#utility.yul\":1272:1284   */\n  revert\n    /* \"#utility.yul\":1296:1413   */\ntag_23:\n    /* \"#utility.yul\":1405:1406   */\n  0x00\n    /* \"#utility.yul\":1402:1403   */\n  dup1\n    /* \"#utility.yul\":1395:1407   */\n  revert\n    /* \"#utility.yul\":1419:1536   */\ntag_24:\n    /* \"#utility.yul\":1528:1529   */\n  0x00\n    /* \"#utility.yul\":1525:1526   */\n  dup1\n    /* \"#utility.yul\":1518:1530   */\n  revert\n    /* \"#utility.yul\":1542:1850   */\ntag_25:\n    /* \"#utility.yul\":1604:1608   */\n  0x00\n    /* \"#utility.yul\":1694:1712   */\n  0xffffffffffffffff\n    /* \"#utility.yul\":1686:1692   */\n  dup3\n    /* \"#utility.yul\":1683:1713   */\n  gt\n    /* \"#utility.yul\":1680:1736   */\n  iszero\n  tag_89\n  jumpi\n    /* \"#utility.yul\":1716:1734   */\n  tag_90\n  tag_19\n  jump\t// in\ntag_90:\n    /* \"#utility.yul\":1680:1736   */\ntag_89:\n    /* \"#utility.yul\":1754:1783   */\n  tag_91\n    /* \"#utility.yul\":1776:1782   */\n  dup3\n    /* \"#utility.yul\":1754:1783   */\n  tag_18\n  jump\t// in\ntag_91:\n    /* \"#utility.yul\":1746:1783   */\n  swap1\n  pop\n    /* \"#utility.yul\":1838:1842   */\n  0x20\n    /* \"#utility.yul\":1832:1836   */\n  dup2\n    /* \"#utility.yul\":1828:1843   */\n  add\n    /* \"#utility.yul\":1820:1843   */\n  swap1\n  pop\n    /* \"#utility.yul\":1542:1850   */\n  swap2\n  swap1\n  pop\n  jump\t// out\n    /* \"#utility.yul\":1856:2102   */\ntag_26:\n    /* \"#utility.yul\":1937:1938   */\n  0x00\n    /* \"#utility.yul\":1947:2060   */\ntag_93:\n    /* \"#utility.yul\":1961:1967   */\n  dup4\n    /* \"#utility.yul\":1958:1959   */\n  dup2\n    /* \"#utility.yul\":1955:1968   */\n  lt\n    /* \"#utility.yul\":1947:2060   */\n  iszero\n  tag_95\n  jumpi\n    /* \"#utility.yul\":2046:2047   */\n  dup1\n    /* \"#utility.yul\":2041:2044   */\n  dup3\n    /* \"#utility.yul\":2037:2048   */\n  add\n    /* \"#utility.yul\":2031:2049   */\n  mload\n    /* \"#utility.yul\":2027:2028   */\n  dup2\n    /* \"#utility.yul\":2022:2025   */\n  dup5\n    /* \"#utility.yul\":2018:2029   */\n  add\n    /* \"#utility.yul\":2011:2050   */\n  mstore\n    /* \"#utility.yul\":1983:1985   */\n  0x20\n    /* \"#utility.yul\":1980:1981   */\n  dup2\n    /* \"#utility.yul\":1976:1986   */\n  add\n    /* \"#utility.yul\":1971:1986   */\n  swap1\n  pop\n    /* \"#utility.yul\":1947:2060   */\n  jump(tag_93)\ntag_95:\n    /* \"#utility.yul\":2094:2095   */\n  0x00\n    /* \"#utility.yul\":2085:2091   */\n  dup5\n    /* \"#utility.yul\":2080:2083   */\n  dup5\n    /* \"#utility.yul\":2076:2092   */\n  add\n    /* \"#utility.yul\":2069:2096   */\n  mstore\n    /* \"#utility.yul\":1918:2102   */\n  pop\n    /* \"#utility.yul\":1856:2102   */\n  pop\n  pop\n  pop\n  jump\t// out\n    /* \"#utility.yul\":2108:2542   */\ntag_27:\n    /* \"#utility.yul\":2197:2202   */\n  0x00\n    /* \"#utility.yul\":2222:2288   */\n  tag_97\n    /* \"#utility.yul\":2238:2287   */\n  tag_98\n    /* \"#utility.yul\":2280:2286   */\n  dup5\n    /* \"#utility.yul\":2238:2287   */\n  tag_25\n  jump\t// in\ntag_98:\n    /* \"#utility.yul\":2222:2288   */\n  tag_21\n  jump\t// in\ntag_97:\n    /* \"#utility.yul\":2213:2288   */\n  swap1\n  pop\n    /* \"#utility.yul\":2311:2317   */\n  dup3\n    /* \"#utility.yul\":2304:2309   */\n  dup2\n    /* \"#utility.yul\":2297:2318   */\n  mstore\n    /* \"#utility.yul\":2349:2353   */\n  0x20\n    /* \"#utility.yul\":2342:2347   */\n  dup2\n    /* \"#utility.yul\":2338:2354   */\n  add\n    /* \"#utility.yul\":2387:2390   */\n  dup5\n    /* \"#utility.yul\":2378:2384   */\n  dup5\n    /* \"#utility.yul\":2373:2376   */\n  dup5\n    /* \"#utility.yul\":2369:2385   */\n  add\n    /* \"#utility.yul\":2366:2391   */\n  gt\n    /* \"#utility.yul\":2363:2475   */\n  iszero\n  tag_99\n  jumpi\n    /* \"#utility.yul\":2394:2473   */\n  tag_100\n  tag_24\n  jump\t// in\ntag_100:\n    /* \"#utility.yul\":2363:2475   */\ntag_99:\n    /* \"#utility.yul\":2484:2536   */\n  tag_101\n    /* \"#utility.yul\":2529:2535   */\n  dup5\n    /* \"#utility.yul\":2524:2527   */\n  dup3\n    /* \"#utility.yul\":2519:2522   */\n  dup6\n    /* \"#utility.yul\":2484:2536   */\n  tag_26\n  jump\t// in\ntag_101:\n    /* \"#utility.yul\":2203:2542   */\n  pop\n    /* \"#utility.yul\":2108:2542   */\n  swap4\n  swap3\n  pop\n  pop\n  pop\n  jump\t// out\n    /* \"#utility.yul\":2562:2917   */\ntag_28:\n    /* \"#utility.yul\":2629:2634   */\n  0x00\n    /* \"#utility.yul\":2678:2681   */\n  dup3\n    /* \"#utility.yul\":2671:2675   */\n  0x1f\n    /* \"#utility.yul\":2663:2669   */\n  dup4\n    /* \"#utility.yul\":2659:2676   */\n  add\n    /* \"#utility.yul\":2655:2682   */\n  slt\n    /* \"#utility.yul\":2645:2767   */\n  tag_103\n  jumpi\n    /* \"#utility.yul\":2686:2765   */\n  tag_104\n  tag_23\n  jump\t// in\ntag_104:\n    /* \"#utility.yul\":2645:2767   */\ntag_103:\n    /* \"#utility.yul\":2796:2802   */\n  dup2\n    /* \"#utility.yul\":2790:2803   */\n  mload\n    /* \"#utility.yul\":2821:2911   */\n  tag_105\n    /* \"#utility.yul\":2907:2910   */\n  dup5\n    /* \"#utility.yul\":2899:2905   */\n  dup3\n    /* \"#utility.yul\":2892:2896   */\n  0x20\n    /* \"#utility.yul\":2884:2890   */\n  dup7\n    /* \"#utility.yul\":2880:2897   */\n  add\n    /* \"#utility.yul\":2821:2911   */\n  tag_27\n  jump\t// in\ntag_105:\n    /* \"#utility.yul\":2812:2911   */\n  swap2\n  pop\n    /* \"#utility.yul\":2635:2917   */\n  pop\n    /* \"#utility.yul\":2562:2917   */\n  swap3\n  swap2\n  pop\n  pop\n  jump\t// out\n    /* \"#utility.yul\":2923:3000   */\ntag_29:\n    /* \"#utility.yul\":2960:2967   */\n  0x00\n    /* \"#utility.yul\":2989:2994   */\n  dup2\n    /* \"#utility.yul\":2978:2994   */\n  swap1\n  pop\n    /* \"#utility.yul\":2923:3000   */\n  swap2\n  swap1\n  pop\n  jump\t// out\n    /* \"#utility.yul\":3006:3128   */\ntag_30:\n    /* \"#utility.yul\":3079:3103   */\n  tag_108\n    /* \"#utility.yul\":3097:3102   */\n  dup2\n    /* \"#utility.yul\":3079:3103   */\n  tag_29\n  jump\t// in\ntag_108:\n    /* \"#utility.yul\":3072:3077   */\n  dup2\n    /* \"#utility.yul\":3069:3104   */\n  eq\n    /* \"#utility.yul\":3059:3122   */\n  tag_109\n  jumpi\n    /* \"#utility.yul\":3118:3119   */\n  0x00\n    /* \"#utility.yul\":3115:3116   */\n  dup1\n    /* \"#utility.yul\":3108:3120   */\n  revert\n    /* \"#utility.yul\":3059:3122   */\ntag_109:\n    /* \"#utility.yul\":3006:3128   */\n  pop\n  jump\t// out\n    /* \"#utility.yul\":3134:3277   */\ntag_31:\n    /* \"#utility.yul\":3191:3196   */\n  0x00\n    /* \"#utility.yul\":3222:3228   */\n  dup2\n    /* \"#utility.yul\":3216:3229   */\n  mload\n    /* \"#utility.yul\":3207:3229   */\n  swap1\n  pop\n    /* \"#utility.yul\":3238:3271   */\n  tag_111\n    /* \"#utility.yul\":3265:3270   */\n  dup2\n    /* \"#utility.yul\":3238:3271   */\n  tag_30\n  jump\t// in\ntag_111:\n    /* \"#utility.yul\":3134:3277   */\n  swap3\n  swap2\n  pop\n  pop\n  jump\t// out\n    /* \"#utility.yul\":3283:3409   */\ntag_32:\n    /* \"#utility.yul\":3320:3327   */\n  0x00\n    /* \"#utility.yul\":3360:3402   */\n  0xffffffffffffffffffffffffffffffffffffffff\n    /* \"#utility.yul\":3353:3358   */\n  dup3\n    /* \"#utility.yul\":3349:3403   */\n  and\n    /* \"#utility.yul\":3338:3403   */\n  swap1\n  pop\n    /* \"#utility.yul\":3283:3409   */\n  swap2\n  swap1\n  pop\n  jump\t// out\n    /* \"#utility.yul\":3415:3511   */\ntag_33:\n    /* \"#utility.yul\":3452:3459   */\n  0x00\n    /* \"#utility.yul\":3481:3505   */\n  tag_114\n    /* \"#utility.yul\":3499:3504   */\n  dup3\n    /* \"#utility.yul\":3481:3505   */\n  tag_32\n  jump\t// in\ntag_114:\n    /* \"#utility.yul\":3470:3505   */\n  swap1\n  pop\n    /* \"#utility.yul\":3415:3511   */\n  swap2\n  swap1\n  pop\n  jump\t// out\n    /* \"#utility.yul\":3517:3639   */\ntag_34:\n    /* \"#utility.yul\":3590:3614   */\n  tag_116\n    /* \"#utility.yul\":3608:3613   */\n  dup2\n    /* \"#utility.yul\":3590:3614   */\n  tag_33\n  jump\t// in\ntag_116:\n    /* \"#utility.yul\":3583:3588   */\n  dup2\n    /* \"#utility.yul\":3580:3615   */\n  eq\n    /* \"#utility.yul\":3570:3633   */\n  tag_117\n  jumpi\n    /* \"#utility.yul\":3629:3630   */\n  0x00\n    /* \"#utility.yul\":3626:3627   */\n  dup1\n    /* \"#utility.yul\":3619:3631   */\n  revert\n    /* \"#utility.yul\":3570:3633   */\ntag_117:\n    /* \"#utility.yul\":3517:3639   */\n  pop\n  jump\t// out\n    /* \"#utility.yul\":3645:3788   */\ntag_35:\n    /* \"#utility.yul\":3702:3707   */\n  0x00\n    /* \"#utility.yul\":3733:3739   */\n  dup2\n    /* \"#utility.yul\":3727:3740   */\n  mload\n    /* \"#utility.yul\":3718:3740   */\n  swap1\n  pop\n    /* \"#utility.yul\":3749:3782   */\n  tag_119\n    /* \"#utility.yul\":3776:3781   */\n  dup2\n    /* \"#utility.yul\":3749:3782   */\n  tag_34\n  jump\t// in\ntag_119:\n    /* \"#utility.yul\":3645:3788   */\n  swap3\n  swap2\n  pop\n  pop\n  jump\t// out\n    /* \"#utility.yul\":3832:5142   */\ntag_36:\n    /* \"#utility.yul\":3921:3926   */\n  0x00\n    /* \"#utility.yul\":3965:3969   */\n  0x80\n    /* \"#utility.yul\":3953:3962   */\n  dup3\n    /* \"#utility.yul\":3948:3951   */\n  dup5\n    /* \"#utility.yul\":3944:3963   */\n  sub\n    /* \"#utility.yul\":3940:3970   */\n  slt\n    /* \"#utility.yul\":3937:4054   */\n  iszero\n  tag_121\n  jumpi\n    /* \"#utility.yul\":3973:4052   */\n  tag_122\n  tag_17\n  jump\t// in\ntag_122:\n    /* \"#utility.yul\":3937:4054   */\ntag_121:\n    /* \"#utility.yul\":4072:4093   */\n  tag_123\n    /* \"#utility.yul\":4088:4092   */\n  0x80\n    /* \"#utility.yul\":4072:4093   */\n  tag_21\n  jump\t// in\ntag_123:\n    /* \"#utility.yul\":4063:4093   */\n  swap1\n  pop\n    /* \"#utility.yul\":4178:4179   */\n  0x00\n    /* \"#utility.yul\":4167:4176   */\n  dup3\n    /* \"#utility.yul\":4163:4180   */\n  add\n    /* \"#utility.yul\":4157:4181   */\n  mload\n    /* \"#utility.yul\":4208:4226   */\n  0xffffffffffffffff\n    /* \"#utility.yul\":4200:4206   */\n  dup2\n    /* \"#utility.yul\":4197:4227   */\n  gt\n    /* \"#utility.yul\":4194:4311   */\n  iszero\n  tag_124\n  jumpi\n    /* \"#utility.yul\":4230:4309   */\n  tag_125\n  tag_22\n  jump\t// in\ntag_125:\n    /* \"#utility.yul\":4194:4311   */\ntag_124:\n    /* \"#utility.yul\":4350:4420   */\n  tag_126\n    /* \"#utility.yul\":4416:4419   */\n  dup5\n    /* \"#utility.yul\":4407:4413   */\n  dup3\n    /* \"#utility.yul\":4396:4405   */\n  dup6\n    /* \"#utility.yul\":4392:4414   */\n  add\n    /* \"#utility.yul\":4350:4420   */\n  tag_28\n  jump\t// in\ntag_126:\n    /* \"#utility.yul\":4343:4347   */\n  0x00\n    /* \"#utility.yul\":4336:4341   */\n  dup4\n    /* \"#utility.yul\":4332:4348   */\n  add\n    /* \"#utility.yul\":4325:4421   */\n  mstore\n    /* \"#utility.yul\":4103:4432   */\n  pop\n    /* \"#utility.yul\":4519:4521   */\n  0x20\n    /* \"#utility.yul\":4508:4517   */\n  dup3\n    /* \"#utility.yul\":4504:4522   */\n  add\n    /* \"#utility.yul\":4498:4523   */\n  mload\n    /* \"#utility.yul\":4550:4568   */\n  0xffffffffffffffff\n    /* \"#utility.yul\":4542:4548   */\n  dup2\n    /* \"#utility.yul\":4539:4569   */\n  gt\n    /* \"#utility.yul\":4536:4653   */\n  iszero\n  tag_127\n  jumpi\n    /* \"#utility.yul\":4572:4651   */\n  tag_128\n  tag_22\n  jump\t// in\ntag_128:\n    /* \"#utility.yul\":4536:4653   */\ntag_127:\n    /* \"#utility.yul\":4692:4762   */\n  tag_129\n    /* \"#utility.yul\":4758:4761   */\n  dup5\n    /* \"#utility.yul\":4749:4755   */\n  dup3\n    /* \"#utility.yul\":4738:4747   */\n  dup6\n    /* \"#utility.yul\":4734:4756   */\n  add\n    /* \"#utility.yul\":4692:4762   */\n  tag_28\n  jump\t// in\ntag_129:\n    /* \"#utility.yul\":4685:4689   */\n  0x20\n    /* \"#utility.yul\":4678:4683   */\n  dup4\n    /* \"#utility.yul\":4674:4690   */\n  add\n    /* \"#utility.yul\":4667:4763   */\n  mstore\n    /* \"#utility.yul\":4442:4774   */\n  pop\n    /* \"#utility.yul\":4844:4846   */\n  0x40\n    /* \"#utility.yul\":4885:4945   */\n  tag_130\n    /* \"#utility.yul\":4941:4944   */\n  dup5\n    /* \"#utility.yul\":4932:4938   */\n  dup3\n    /* \"#utility.yul\":4921:4930   */\n  dup6\n    /* \"#utility.yul\":4917:4939   */\n  add\n    /* \"#utility.yul\":4885:4945   */\n  tag_31\n  jump\t// in\ntag_130:\n    /* \"#utility.yul\":4878:4882   */\n  0x40\n    /* \"#utility.yul\":4871:4876   */\n  dup4\n    /* \"#utility.yul\":4867:4883   */\n  add\n    /* \"#utility.yul\":4860:4946   */\n  mstore\n    /* \"#utility.yul\":4784:4957   */\n  pop\n    /* \"#utility.yul\":5022:5024   */\n  0x60\n    /* \"#utility.yul\":5063:5123   */\n  tag_131\n    /* \"#utility.yul\":5119:5122   */\n  dup5\n    /* \"#utility.yul\":5110:5116   */\n  dup3\n    /* \"#utility.yul\":5099:5108   */\n  dup6\n    /* \"#utility.yul\":5095:5117   */\n  add\n    /* \"#utility.yul\":5063:5123   */\n  tag_35\n  jump\t// in\ntag_131:\n    /* \"#utility.yul\":5056:5060   */\n  0x60\n    /* \"#utility.yul\":5049:5054   */\n  dup4\n    /* \"#utility.yul\":5045:5061   */\n  add\n    /* \"#utility.yul\":5038:5124   */\n  mstore\n    /* \"#utility.yul\":4967:5135   */\n  pop\n    /* \"#utility.yul\":3832:5142   */\n  swap3\n  swap2\n  pop\n  pop\n  jump\t// out\n    /* \"#utility.yul\":5148:5225   */\ntag_37:\n    /* \"#utility.yul\":5185:5192   */\n  0x00\n    /* \"#utility.yul\":5214:5219   */\n  dup2\n    /* \"#utility.yul\":5203:5219   */\n  swap1\n  pop\n    /* \"#utility.yul\":5148:5225   */\n  swap2\n  swap1\n  pop\n  jump\t// out\n    /* \"#utility.yul\":5231:5353   */\ntag_38:\n    /* \"#utility.yul\":5304:5328   */\n  tag_134\n    /* \"#utility.yul\":5322:5327   */\n  dup2\n    /* \"#utility.yul\":5304:5328   */\n  tag_37\n  jump\t// in\ntag_134:\n    /* \"#utility.yul\":5297:5302   */\n  dup2\n    /* \"#utility.yul\":5294:5329   */\n  eq\n    /* \"#utility.yul\":5284:5347   */\n  tag_135\n  jumpi\n    /* \"#utility.yul\":5343:5344   */\n  0x00\n    /* \"#utility.yul\":5340:5341   */\n  dup1\n    /* \"#utility.yul\":5333:5345   */\n  revert\n    /* \"#utility.yul\":5284:5347   */\ntag_135:\n    /* \"#utility.yul\":5231:5353   */\n  pop\n  jump\t// out\n    /* \"#utility.yul\":5359:5502   */\ntag_39:\n    /* \"#utility.yul\":5416:5421   */\n  0x00\n    /* \"#utility.yul\":5447:5453   */\n  dup2\n    /* \"#utility.yul\":5441:5454   */\n  mload\n    /* \"#utility.yul\":5432:5454   */\n  swap1\n  pop\n    /* \"#utility.yul\":5463:5496   */\n  tag_137\n    /* \"#utility.yul\":5490:5495   */\n  dup2\n    /* \"#utility.yul\":5463:5496   */\n  tag_38\n  jump\t// in\ntag_137:\n    /* \"#utility.yul\":5359:5502   */\n  swap3\n  swap2\n  pop\n  pop\n  jump\t// out\n    /* \"#utility.yul\":5508:5597   */\ntag_40:\n    /* \"#utility.yul\":5544:5551   */\n  0x00\n    /* \"#utility.yul\":5584:5590   */\n  0xffff\n    /* \"#utility.yul\":5577:5582   */\n  dup3\n    /* \"#utility.yul\":5573:5591   */\n  and\n    /* \"#utility.yul\":5562:5591   */\n  swap1\n  pop\n    /* \"#utility.yul\":5508:5597   */\n  swap2\n  swap1\n  pop\n  jump\t// out\n    /* \"#utility.yul\":5603:5723   */\ntag_41:\n    /* \"#utility.yul\":5675:5698   */\n  tag_140\n    /* \"#utility.yul\":5692:5697   */\n  dup2\n    /* \"#utility.yul\":5675:5698   */\n  tag_40\n  jump\t// in\ntag_140:\n    /* \"#utility.yul\":5668:5673   */\n  dup2\n    /* \"#utility.yul\":5665:5699   */\n  eq\n    /* \"#utility.yul\":5655:5717   */\n  tag_141\n  jumpi\n    /* \"#utility.yul\":5713:5714   */\n  0x00\n    /* \"#utility.yul\":5710:5711   */\n  dup1\n    /* \"#utility.yul\":5703:5715   */\n  revert\n    /* \"#utility.yul\":5655:5717   */\ntag_141:\n    /* \"#utility.yul\":5603:5723   */\n  pop\n  jump\t// out\n    /* \"#utility.yul\":5729:5870   */\ntag_42:\n    /* \"#utility.yul\":5785:5790   */\n  0x00\n    /* \"#utility.yul\":5816:5822   */\n  dup2\n    /* \"#utility.yul\":5810:5823   */\n  mload\n    /* \"#utility.yul\":5801:5823   */\n  swap1\n  pop\n    /* \"#utility.yul\":5832:5864   */\n  tag_143\n    /* \"#utility.yul\":5858:5863   */\n  dup2\n    /* \"#utility.yul\":5832:5864   */\n  tag_41\n  jump\t// in\ntag_143:\n    /* \"#utility.yul\":5729:5870   */\n  swap3\n  swap2\n  pop\n  pop\n  jump\t// out\n    /* \"#utility.yul\":5876:5969   */\ntag_43:\n    /* \"#utility.yul\":5912:5919   */\n  0x00\n    /* \"#utility.yul\":5952:5962   */\n  0xffffffff\n    /* \"#utility.yul\":5945:5950   */\n  dup3\n    /* \"#utility.yul\":5941:5963   */\n  and\n    /* \"#utility.yul\":5930:5963   */\n  swap1\n  pop\n    /* \"#utility.yul\":5876:5969   */\n  swap2\n  swap1\n  pop\n  jump\t// out\n    /* \"#utility.yul\":5975:6095   */\ntag_44:\n    /* \"#utility.yul\":6047:6070   */\n  tag_146\n    /* \"#utility.yul\":6064:6069   */\n  dup2\n    /* \"#utility.yul\":6047:6070   */\n  tag_43\n  jump\t// in\ntag_146:\n    /* \"#utility.yul\":6040:6045   */\n  dup2\n    /* \"#utility.yul\":6037:6071   */\n  eq\n    /* \"#utility.yul\":6027:6089   */\n  tag_147\n  jumpi\n    /* \"#utility.yul\":6085:6086   */\n  0x00\n    /* \"#utility.yul\":6082:6083   */\n  dup1\n    /* \"#utility.yul\":6075:6087   */\n  revert\n    /* \"#utility.yul\":6027:6089   */\ntag_147:\n    /* \"#utility.yul\":5975:6095   */\n  pop\n  jump\t// out\n    /* \"#utility.yul\":6101:6242   */\ntag_45:\n    /* \"#utility.yul\":6157:6162   */\n  0x00\n    /* \"#utility.yul\":6188:6194   */\n  dup2\n    /* \"#utility.yul\":6182:6195   */\n  mload\n    /* \"#utility.yul\":6173:6195   */\n  swap1\n  pop\n    /* \"#utility.yul\":6204:6236   */\n  tag_149\n    /* \"#utility.yul\":6230:6235   */\n  dup2\n    /* \"#utility.yul\":6204:6236   */\n  tag_44\n  jump\t// in\ntag_149:\n    /* \"#utility.yul\":6101:6242   */\n  swap3\n  swap2\n  pop\n  pop\n  jump\t// out\n    /* \"#utility.yul\":6248:6345   */\ntag_46:\n    /* \"#utility.yul\":6284:6291   */\n  0x00\n    /* \"#utility.yul\":6324:6338   */\n  0xffffffffffff\n    /* \"#utility.yul\":6317:6322   */\n  dup3\n    /* \"#utility.yul\":6313:6339   */\n  and\n    /* \"#utility.yul\":6302:6339   */\n  swap1\n  pop\n    /* \"#utility.yul\":6248:6345   */\n  swap2\n  swap1\n  pop\n  jump\t// out\n    /* \"#utility.yul\":6351:6471   */\ntag_47:\n    /* \"#utility.yul\":6423:6446   */\n  tag_152\n    /* \"#utility.yul\":6440:6445   */\n  dup2\n    /* \"#utility.yul\":6423:6446   */\n  tag_46\n  jump\t// in\ntag_152:\n    /* \"#utility.yul\":6416:6421   */\n  dup2\n    /* \"#utility.yul\":6413:6447   */\n  eq\n    /* \"#utility.yul\":6403:6465   */\n  tag_153\n  jumpi\n    /* \"#utility.yul\":6461:6462   */\n  0x00\n    /* \"#utility.yul\":6458:6459   */\n  dup1\n    /* \"#utility.yul\":6451:6463   */\n  revert\n    /* \"#utility.yul\":6403:6465   */\ntag_153:\n    /* \"#utility.yul\":6351:6471   */\n  pop\n  jump\t// out\n    /* \"#utility.yul\":6477:6618   */\ntag_48:\n    /* \"#utility.yul\":6533:6538   */\n  0x00\n    /* \"#utility.yul\":6564:6570   */\n  dup2\n    /* \"#utility.yul\":6558:6571   */\n  mload\n    /* \"#utility.yul\":6549:6571   */\n  swap1\n  pop\n    /* \"#utility.yul\":6580:6612   */\n  tag_155\n    /* \"#utility.yul\":6606:6611   */\n  dup2\n    /* \"#utility.yul\":6580:6612   */\n  tag_47\n  jump\t// in\ntag_155:\n    /* \"#utility.yul\":6477:6618   */\n  swap3\n  swap2\n  pop\n  pop\n  jump\t// out\n    /* \"#utility.yul\":6660:7630   */\ntag_49:\n    /* \"#utility.yul\":6747:6752   */\n  0x00\n    /* \"#utility.yul\":6791:6795   */\n  0x80\n    /* \"#utility.yul\":6779:6788   */\n  dup3\n    /* \"#utility.yul\":6774:6777   */\n  dup5\n    /* \"#utility.yul\":6770:6789   */\n  sub\n    /* \"#utility.yul\":6766:6796   */\n  slt\n    /* \"#utility.yul\":6763:6880   */\n  iszero\n  tag_157\n  jumpi\n    /* \"#utility.yul\":6799:6878   */\n  tag_158\n  tag_17\n  jump\t// in\ntag_158:\n    /* \"#utility.yul\":6763:6880   */\ntag_157:\n    /* \"#utility.yul\":6898:6919   */\n  tag_159\n    /* \"#utility.yul\":6914:6918   */\n  0x80\n    /* \"#utility.yul\":6898:6919   */\n  tag_21\n  jump\t// in\ntag_159:\n    /* \"#utility.yul\":6889:6919   */\n  swap1\n  pop\n    /* \"#utility.yul\":6980:6981   */\n  0x00\n    /* \"#utility.yul\":7020:7079   */\n  tag_160\n    /* \"#utility.yul\":7075:7078   */\n  dup5\n    /* \"#utility.yul\":7066:7072   */\n  dup3\n    /* \"#utility.yul\":7055:7064   */\n  dup6\n    /* \"#utility.yul\":7051:7073   */\n  add\n    /* \"#utility.yul\":7020:7079   */\n  tag_42\n  jump\t// in\ntag_160:\n    /* \"#utility.yul\":7013:7017   */\n  0x00\n    /* \"#utility.yul\":7006:7011   */\n  dup4\n    /* \"#utility.yul\":7002:7018   */\n  add\n    /* \"#utility.yul\":6995:7080   */\n  mstore\n    /* \"#utility.yul\":6929:7091   */\n  pop\n    /* \"#utility.yul\":7158:7160   */\n  0x20\n    /* \"#utility.yul\":7199:7258   */\n  tag_161\n    /* \"#utility.yul\":7254:7257   */\n  dup5\n    /* \"#utility.yul\":7245:7251   */\n  dup3\n    /* \"#utility.yul\":7234:7243   */\n  dup6\n    /* \"#utility.yul\":7230:7252   */\n  add\n    /* \"#utility.yul\":7199:7258   */\n  tag_45\n  jump\t// in\ntag_161:\n    /* \"#utility.yul\":7192:7196   */\n  0x20\n    /* \"#utility.yul\":7185:7190   */\n  dup4\n    /* \"#utility.yul\":7181:7197   */\n  add\n    /* \"#utility.yul\":7174:7259   */\n  mstore\n    /* \"#utility.yul\":7101:7270   */\n  pop\n    /* \"#utility.yul\":7334:7336   */\n  0x40\n    /* \"#utility.yul\":7375:7434   */\n  tag_162\n    /* \"#utility.yul\":7430:7433   */\n  dup5\n    /* \"#utility.yul\":7421:7427   */\n  dup3\n    /* \"#utility.yul\":7410:7419   */\n  dup6\n    /* \"#utility.yul\":7406:7428   */\n  add\n    /* \"#utility.yul\":7375:7434   */\n  tag_48\n  jump\t// in\ntag_162:\n    /* \"#utility.yul\":7368:7372   */\n  0x40\n    /* \"#utility.yul\":7361:7366   */\n  dup4\n    /* \"#utility.yul\":7357:7373   */\n  add\n    /* \"#utility.yul\":7350:7435   */\n  mstore\n    /* \"#utility.yul\":7280:7446   */\n  pop\n    /* \"#utility.yul\":7511:7513   */\n  0x60\n    /* \"#utility.yul\":7552:7611   */\n  tag_163\n    /* \"#utility.yul\":7607:7610   */\n  dup5\n    /* \"#utility.yul\":7598:7604   */\n  dup3\n    /* \"#utility.yul\":7587:7596   */\n  dup6\n    /* \"#utility.yul\":7583:7605   */\n  add\n    /* \"#utility.yul\":7552:7611   */\n  tag_48\n  jump\t// in\ntag_163:\n    /* \"#utility.yul\":7545:7549   */\n  0x60\n    /* \"#utility.yul\":7538:7543   */\n  dup4\n    /* \"#utility.yul\":7534:7550   */\n  add\n    /* \"#utility.yul\":7527:7612   */\n  mstore\n    /* \"#utility.yul\":7456:7623   */\n  pop\n    /* \"#utility.yul\":6660:7630   */\n  swap3\n  swap2\n  pop\n  pop\n  jump\t// out\n    /* \"#utility.yul\":7636:8894   */\ntag_3:\n    /* \"#utility.yul\":7799:7805   */\n  0x00\n    /* \"#utility.yul\":7807:7813   */\n  dup1\n    /* \"#utility.yul\":7815:7821   */\n  0x00\n    /* \"#utility.yul\":7823:7829   */\n  dup1\n    /* \"#utility.yul\":7872:7875   */\n  0xe0\n    /* \"#utility.yul\":7860:7869   */\n  dup6\n    /* \"#utility.yul\":7851:7858   */\n  dup8\n    /* \"#utility.yul\":7847:7870   */\n  sub\n    /* \"#utility.yul\":7843:7876   */\n  slt\n    /* \"#utility.yul\":7840:7960   */\n  iszero\n  tag_165\n  jumpi\n    /* \"#utility.yul\":7879:7958   */\n  tag_166\n  tag_15\n  jump\t// in\ntag_166:\n    /* \"#utility.yul\":7840:7960   */\ntag_165:\n    /* \"#utility.yul\":8020:8021   */\n  0x00\n    /* \"#utility.yul\":8009:8018   */\n  dup6\n    /* \"#utility.yul\":8005:8022   */\n  add\n    /* \"#utility.yul\":7999:8023   */\n  mload\n    /* \"#utility.yul\":8050:8068   */\n  0xffffffffffffffff\n    /* \"#utility.yul\":8042:8048   */\n  dup2\n    /* \"#utility.yul\":8039:8069   */\n  gt\n    /* \"#utility.yul\":8036:8153   */\n  iszero\n  tag_167\n  jumpi\n    /* \"#utility.yul\":8072:8151   */\n  tag_168\n  tag_16\n  jump\t// in\ntag_168:\n    /* \"#utility.yul\":8036:8153   */\ntag_167:\n    /* \"#utility.yul\":8177:8270   */\n  tag_169\n    /* \"#utility.yul\":8262:8269   */\n  dup8\n    /* \"#utility.yul\":8253:8259   */\n  dup3\n    /* \"#utility.yul\":8242:8251   */\n  dup9\n    /* \"#utility.yul\":8238:8260   */\n  add\n    /* \"#utility.yul\":8177:8270   */\n  tag_36\n  jump\t// in\ntag_169:\n    /* \"#utility.yul\":8167:8270   */\n  swap5\n  pop\n    /* \"#utility.yul\":7970:8280   */\n  pop\n    /* \"#utility.yul\":8340:8342   */\n  0x20\n    /* \"#utility.yul\":8329:8338   */\n  dup6\n    /* \"#utility.yul\":8325:8343   */\n  add\n    /* \"#utility.yul\":8319:8344   */\n  mload\n    /* \"#utility.yul\":8371:8389   */\n  0xffffffffffffffff\n    /* \"#utility.yul\":8363:8369   */\n  dup2\n    /* \"#utility.yul\":8360:8390   */\n  gt\n    /* \"#utility.yul\":8357:8474   */\n  iszero\n  tag_170\n  jumpi\n    /* \"#utility.yul\":8393:8472   */\n  tag_171\n  tag_16\n  jump\t// in\ntag_171:\n    /* \"#utility.yul\":8357:8474   */\ntag_170:\n    /* \"#utility.yul\":8498:8572   */\n  tag_172\n    /* \"#utility.yul\":8564:8571   */\n  dup8\n    /* \"#utility.yul\":8555:8561   */\n  dup3\n    /* \"#utility.yul\":8544:8553   */\n  dup9\n    /* \"#utility.yul\":8540:8562   */\n  add\n    /* \"#utility.yul\":8498:8572   */\n  tag_28\n  jump\t// in\ntag_172:\n    /* \"#utility.yul\":8488:8572   */\n  swap4\n  pop\n    /* \"#utility.yul\":8290:8582   */\n  pop\n    /* \"#utility.yul\":8621:8623   */\n  0x40\n    /* \"#utility.yul\":8647:8711   */\n  tag_173\n    /* \"#utility.yul\":8703:8710   */\n  dup8\n    /* \"#utility.yul\":8694:8700   */\n  dup3\n    /* \"#utility.yul\":8683:8692   */\n  dup9\n    /* \"#utility.yul\":8679:8701   */\n  add\n    /* \"#utility.yul\":8647:8711   */\n  tag_39\n  jump\t// in\ntag_173:\n    /* \"#utility.yul\":8637:8711   */\n  swap3\n  pop\n    /* \"#utility.yul\":8592:8721   */\n  pop\n    /* \"#utility.yul\":8760:8762   */\n  0x60\n    /* \"#utility.yul\":8786:8877   */\n  tag_174\n    /* \"#utility.yul\":8869:8876   */\n  dup8\n    /* \"#utility.yul\":8860:8866   */\n  dup3\n    /* \"#utility.yul\":8849:8858   */\n  dup9\n    /* \"#utility.yul\":8845:8867   */\n  add\n    /* \"#utility.yul\":8786:8877   */\n  tag_49\n  jump\t// in\ntag_174:\n    /* \"#utility.yul\":8776:8877   */\n  swap2\n  pop\n    /* \"#utility.yul\":8731:8887   */\n  pop\n    /* \"#utility.yul\":7636:8894   */\n  swap3\n  swap6\n  swap2\n  swap5\n  pop\n  swap3\n  pop\n  jump\t// out\n    /* \"#utility.yul\":8900:8999   */\ntag_50:\n    /* \"#utility.yul\":8952:8958   */\n  0x00\n    /* \"#utility.yul\":8986:8991   */\n  dup2\n    /* \"#utility.yul\":8980:8992   */\n  mload\n    /* \"#utility.yul\":8970:8992   */\n  swap1\n  pop\n    /* \"#utility.yul\":8900:8999   */\n  swap2\n  swap1\n  pop\n  jump\t// out\n    /* \"#utility.yul\":9005:9185   */\ntag_51:\n    /* \"#utility.yul\":9053:9130   */\n  0x4e487b7100000000000000000000000000000000000000000000000000000000\n    /* \"#utility.yul\":9050:9051   */\n  0x00\n    /* \"#utility.yul\":9043:9131   */\n  mstore\n    /* \"#utility.yul\":9150:9154   */\n  0x22\n    /* \"#utility.yul\":9147:9148   */\n  0x04\n    /* \"#utility.yul\":9140:9155   */\n  mstore\n    /* \"#utility.yul\":9174:9178   */\n  0x24\n    /* \"#utility.yul\":9171:9172   */\n  0x00\n    /* \"#utility.yul\":9164:9179   */\n  revert\n    /* \"#utility.yul\":9191:9511   */\ntag_52:\n    /* \"#utility.yul\":9235:9241   */\n  0x00\n    /* \"#utility.yul\":9272:9273   */\n  0x02\n    /* \"#utility.yul\":9266:9270   */\n  dup3\n    /* \"#utility.yul\":9262:9274   */\n  div\n    /* \"#utility.yul\":9252:9274   */\n  swap1\n  pop\n    /* \"#utility.yul\":9319:9320   */\n  0x01\n    /* \"#utility.yul\":9313:9317   */\n  dup3\n    /* \"#utility.yul\":9309:9321   */\n  and\n    /* \"#utility.yul\":9340:9358   */\n  dup1\n    /* \"#utility.yul\":9330:9411   */\n  tag_178\n  jumpi\n    /* \"#utility.yul\":9396:9400   */\n  0x7f\n    /* \"#utility.yul\":9388:9394   */\n  dup3\n    /* \"#utility.yul\":9384:9401   */\n  and\n    /* \"#utility.yul\":9374:9401   */\n  swap2\n  pop\n    /* \"#utility.yul\":9330:9411   */\ntag_178:\n    /* \"#utility.yul\":9458:9460   */\n  0x20\n    /* \"#utility.yul\":9450:9456   */\n  dup3\n    /* \"#utility.yul\":9447:9461   */\n  lt\n    /* \"#utility.yul\":9427:9445   */\n  dup2\n    /* \"#utility.yul\":9424:9462   */\n  sub\n    /* \"#utility.yul\":9421:9505   */\n  tag_179\n  jumpi\n    /* \"#utility.yul\":9477:9495   */\n  tag_180\n  tag_51\n  jump\t// in\ntag_180:\n    /* \"#utility.yul\":9421:9505   */\ntag_179:\n    /* \"#utility.yul\":9242:9511   */\n  pop\n    /* \"#utility.yul\":9191:9511   */\n  swap2\n  swap1\n  pop\n  jump\t// out\n    /* \"#utility.yul\":9517:9658   */\ntag_53:\n    /* \"#utility.yul\":9566:9570   */\n  0x00\n    /* \"#utility.yul\":9589:9592   */\n  dup2\n    /* \"#utility.yul\":9581:9592   */\n  swap1\n  pop\n    /* \"#utility.yul\":9612:9615   */\n  dup2\n    /* \"#utility.yul\":9609:9610   */\n  0x00\n    /* \"#utility.yul\":9602:9616   */\n  mstore\n    /* \"#utility.yul\":9646:9650   */\n  0x20\n    /* \"#utility.yul\":9643:9644   */\n  0x00\n    /* \"#utility.yul\":9633:9651   */\n  keccak256\n    /* \"#utility.yul\":9625:9651   */\n  swap1\n  pop\n    /* \"#utility.yul\":9517:9658   */\n  swap2\n  swap1\n  pop\n  jump\t// out\n    /* \"#utility.yul\":9664:9757   */\ntag_54:\n    /* \"#utility.yul\":9701:9707   */\n  0x00\n    /* \"#utility.yul\":9748:9750   */\n  0x20\n    /* \"#utility.yul\":9743:9745   */\n  0x1f\n    /* \"#utility.yul\":9736:9741   */\n  dup4\n    /* \"#utility.yul\":9732:9746   */\n  add\n    /* \"#utility.yul\":9728:9751   */\n  div\n    /* \"#utility.yul\":9718:9751   */\n  swap1\n  pop\n    /* \"#utility.yul\":9664:9757   */\n  swap2\n  swap1\n  pop\n  jump\t// out\n    /* \"#utility.yul\":9763:9870   */\ntag_55:\n    /* \"#utility.yul\":9807:9815   */\n  0x00\n    /* \"#utility.yul\":9857:9862   */\n  dup3\n    /* \"#utility.yul\":9851:9855   */\n  dup3\n    /* \"#utility.yul\":9847:9863   */\n  shl\n    /* \"#utility.yul\":9826:9863   */\n  swap1\n  pop\n    /* \"#utility.yul\":9763:9870   */\n  swap3\n  swap2\n  pop\n  pop\n  jump\t// out\n    /* \"#utility.yul\":9876:10269   */\ntag_56:\n    /* \"#utility.yul\":9945:9951   */\n  0x00\n    /* \"#utility.yul\":9995:9996   */\n  0x08\n    /* \"#utility.yul\":9983:9993   */\n  dup4\n    /* \"#utility.yul\":9979:9997   */\n  mul\n    /* \"#utility.yul\":10018:10115   */\n  tag_185\n    /* \"#utility.yul\":10048:10114   */\n  0xffffffffffffffffffffffffffffffffffffffffffffffffffffffffffffffff\n    /* \"#utility.yul\":10037:10046   */\n  dup3\n    /* \"#utility.yul\":10018:10115   */\n  tag_55\n  jump\t// in\ntag_185:\n    /* \"#utility.yul\":10136:10175   */\n  tag_186\n    /* \"#utility.yul\":10166:10174   */\n  dup7\n    /* \"#utility.yul\":10155:10164   */\n  dup4\n    /* \"#utility.yul\":10136:10175   */\n  tag_55\n  jump\t// in\ntag_186:\n    /* \"#utility.yul\":10124:10175   */\n  swap6\n  pop\n    /* \"#utility.yul\":10208:10212   */\n  dup1\n    /* \"#utility.yul\":10204:10213   */\n  not\n    /* \"#utility.yul\":10197:10202   */\n  dup5\n    /* \"#utility.yul\":10193:10214   */\n  and\n    /* \"#utility.yul\":10184:10214   */\n  swap4\n  pop\n    /* \"#utility.yul\":10257:10261   */\n  dup1\n    /* \"#utility.yul\":10247:10255   */\n  dup7\n    /* \"#utility.yul\":10243:10262   */\n  and\n    /* \"#utility.yul\":10236:10241   */\n  dup5\n    /* \"#utility.yul\":10233:10263   */\n  or\n    /* \"#utility.yul\":10223:10263   */\n  swap3\n  pop\n    /* \"#utility.yul\":9952:10269   */\n  pop\n  pop\n    /* \"#utility.yul\":9876:10269   */\n  swap4\n  swap3\n  pop\n  pop\n  pop\n  jump\t// out\n    /* \"#utility.yul\":10275:10335   */\ntag_57:\n    /* \"#utility.yul\":10303:10306   */\n  0x00\n    /* \"#utility.yul\":10324:10329   */\n  dup2\n    /* \"#utility.yul\":10317:10329   */\n  swap1\n  pop\n    /* \"#utility.yul\":10275:10335   */\n  swap2\n  swap1\n  pop\n  jump\t// out\n    /* \"#utility.yul\":10341:10483   */\ntag_58:\n    /* \"#utility.yul\":10391:10400   */\n  0x00\n    /* \"#utility.yul\":10424:10477   */\n  tag_189\n    /* \"#utility.yul\":10442:10476   */\n  tag_190\n    /* \"#utility.yul\":10451:10475   */\n  tag_191\n    /* \"#utility.yul\":10469:10474   */\n  dup5\n    /* \"#utility.yul\":10451:10475   */\n  tag_37\n  jump\t// in\ntag_191:\n    /* \"#utility.yul\":10442:10476   */\n  tag_57\n  jump\t// in\ntag_190:\n    /* \"#utility.yul\":10424:10477   */\n  tag_37\n  jump\t// in\ntag_189:\n    /* \"#utility.yul\":10411:10477   */\n  swap1\n  pop\n    /* \"#utility.yul\":10341:10483   */\n  swap2\n  swap1\n  pop\n  jump\t// out\n    /* \"#utility.yul\":10489:10564   */\ntag_59:\n    /* \"#utility.yul\":10532:10535   */\n  0x00\n    /* \"#utility.yul\":10553:10558   */\n  dup2\n    /* \"#utility.yul\":10546:10558   */\n  swap1\n  pop\n    /* \"#utility.yul\":10489:10564   */\n  swap2\n  swap1\n  pop\n  jump\t// out\n    /* \"#utility.yul\":10570:10839   */\ntag_60:\n    /* \"#utility.yul\":10680:10719   */\n  tag_194\n    /* \"#utility.yul\":10711:10718   */\n  dup4\n    /* \"#utility.yul\":10680:10719   */\n  tag_58\n  jump\t// in\ntag_194:\n    /* \"#utility.yul\":10741:10832   */\n  tag_195\n    /* \"#utility.yul\":10790:10831   */\n  tag_196\n    /* \"#utility.yul\":10814:10830   */\n  dup3\n    /* \"#utility.yul\":10790:10831   */\n  tag_59\n  jump\t// in\ntag_196:\n    /* \"#utility.yul\":10782:10788   */\n  dup5\n    /* \"#utility.yul\":10775:10779   */\n  dup5\n    /* \"#utility.yul\":10769:10780   */\n  sload\n    /* \"#utility.yul\":10741:10832   */\n  tag_56\n  jump\t// in\ntag_195:\n    /* \"#utility.yul\":10735:10739   */\n  dup3\n    /* \"#utility.yul\":10728:10833   */\n  sstore\n    /* \"#utility.yul\":10646:10839   */\n  pop\n    /* \"#utility.yul\":10570:10839   */\n  pop\n  pop\n  pop\n  jump\t// out\n    /* \"#utility.yul\":10845:10918   */\ntag_61:\n    /* \"#utility.yul\":10890:10893   */\n  0x00\n    /* \"#utility.yul\":10845:10918   */\n  swap1\n  jump\t// out\n    /* \"#utility.yul\":10924:11113   */\ntag_62:\n    /* \"#utility.yul\":11001:11033   */\n  tag_199\n  tag_61\n  jump\t// in\ntag_199:\n    /* \"#utility.yul\":11042:11107   */\n  tag_200\n    /* \"#utility.yul\":11100:11106   */\n  dup2\n    /* \"#utility.yul\":11092:11098   */\n  dup5\n    /* \"#utility.yul\":11086:11090   */\n  dup5\n    /* \"#utility.yul\":11042:11107   */\n  tag_60\n  jump\t// in\ntag_200:\n    /* \"#utility.yul\":10977:11113   */\n  pop\n    /* \"#utility.yul\":10924:11113   */\n  pop\n  pop\n  jump\t// out\n    /* \"#utility.yul\":11119:11305   */\ntag_63:\n    /* \"#utility.yul\":11179:11299   */\ntag_202:\n    /* \"#utility.yul\":11196:11199   */\n  dup2\n    /* \"#utility.yul\":11189:11194   */\n  dup2\n    /* \"#utility.yul\":11186:11200   */\n  lt\n    /* \"#utility.yul\":11179:11299   */\n  iszero\n  tag_204\n  jumpi\n    /* \"#utility.yul\":11250:11289   */\n  tag_205\n    /* \"#utility.yul\":11287:11288   */\n  0x00\n    /* \"#utility.yul\":11280:11285   */\n  dup3\n    /* \"#utility.yul\":11250:11289   */\n  tag_62\n  jump\t// in\ntag_205:\n    /* \"#utility.yul\":11223:11224   */\n  0x01\n    /* \"#utility.yul\":11216:11221   */\n  dup2\n    /* \"#utility.yul\":11212:11225   */\n  add\n    /* \"#utility.yul\":11203:11225   */\n  swap1\n  pop\n    /* \"#utility.yul\":11179:11299   */\n  jump(tag_202)\ntag_204:\n    /* \"#utility.yul\":11119:11305   */\n  pop\n  pop\n  jump\t// out\n    /* \"#utility.yul\":11311:11854   */\ntag_64:\n    /* \"#utility.yul\":11412:11414   */\n  0x1f\n    /* \"#utility.yul\":11407:11410   */\n  dup3\n    /* \"#utility.yul\":11404:11415   */\n  gt\n    /* \"#utility.yul\":11401:11847   */\n  iszero\n  tag_207\n  jumpi\n    /* \"#utility.yul\":11446:11484   */\n  tag_208\n    /* \"#utility.yul\":11478:11483   */\n  dup2\n    /* \"#utility.yul\":11446:11484   */\n  tag_53\n  jump\t// in\ntag_208:\n    /* \"#utility.yul\":11530:11559   */\n  tag_209\n    /* \"#utility.yul\":11548:11558   */\n  dup5\n    /* \"#utility.yul\":11530:11559   */\n  tag_54\n  jump\t// in\ntag_209:\n    /* \"#utility.yul\":11520:11528   */\n  dup2\n    /* \"#utility.yul\":11516:11560   */\n  add\n    /* \"#utility.yul\":11713:11715   */\n  0x20\n    /* \"#utility.yul\":11701:11711   */\n  dup6\n    /* \"#utility.yul\":11698:11716   */\n  lt\n    /* \"#utility.yul\":11695:11744   */\n  iszero\n  tag_210\n  jumpi\n    /* \"#utility.yul\":11734:11742   */\n  dup2\n    /* \"#utility.yul\":11719:11742   */\n  swap1\n  pop\n    /* \"#utility.yul\":11695:11744   */\ntag_210:\n    /* \"#utility.yul\":11757:11837   */\n  tag_211\n    /* \"#utility.yul\":11813:11835   */\n  tag_212\n    /* \"#utility.yul\":11831:11834   */\n  dup6\n    /* \"#utility.yul\":11813:11835   */\n  tag_54\n  jump\t// in\ntag_212:\n    /* \"#utility.yul\":11803:11811   */\n  dup4\n    /* \"#utility.yul\":11799:11836   */\n  add\n    /* \"#utility.yul\":11786:11797   */\n  dup3\n    /* \"#utility.yul\":11757:11837   */\n  tag_63\n  jump\t// in\ntag_211:\n    /* \"#utility.yul\":11416:11847   */\n  pop\n  pop\n    /* \"#utility.yul\":11401:11847   */\ntag_207:\n    /* \"#utility.yul\":11311:11854   */\n  pop\n  pop\n  pop\n  jump\t// out\n    /* \"#utility.yul\":11860:11977   */\ntag_65:\n    /* \"#utility.yul\":11914:11922   */\n  0x00\n    /* \"#utility.yul\":11964:11969   */\n  dup3\n    /* \"#utility.yul\":11958:11962   */\n  dup3\n    /* \"#utility.yul\":11954:11970   */\n  shr\n    /* \"#utility.yul\":11933:11970   */\n  swap1\n  pop\n    /* \"#utility.yul\":11860:11977   */\n  swap3\n  swap2\n  pop\n  pop\n  jump\t// out\n    /* \"#utility.yul\":11983:12152   */\ntag_66:\n    /* \"#utility.yul\":12027:12033   */\n  0x00\n    /* \"#utility.yul\":12060:12111   */\n  tag_215\n    /* \"#utility.yul\":12108:12109   */\n  0x00\n    /* \"#utility.yul\":12104:12110   */\n  not\n    /* \"#utility.yul\":12096:12101   */\n  dup5\n    /* \"#utility.yul\":12093:12094   */\n  0x08\n    /* \"#utility.yul\":12089:12102   */\n  mul\n    /* \"#utility.yul\":12060:12111   */\n  tag_65\n  jump\t// in\ntag_215:\n    /* \"#utility.yul\":12056:12112   */\n  not\n    /* \"#utility.yul\":12141:12145   */\n  dup1\n    /* \"#utility.yul\":12135:12139   */\n  dup4\n    /* \"#utility.yul\":12131:12146   */\n  and\n    /* \"#utility.yul\":12121:12146   */\n  swap2\n  pop\n    /* \"#utility.yul\":12034:12152   */\n  pop\n    /* \"#utility.yul\":11983:12152   */\n  swap3\n  swap2\n  pop\n  pop\n  jump\t// out\n    /* \"#utility.yul\":12157:12452   */\ntag_67:\n    /* \"#utility.yul\":12233:12237   */\n  0x00\n    /* \"#utility.yul\":12379:12408   */\n  tag_217\n    /* \"#utility.yul\":12404:12407   */\n  dup4\n    /* \"#utility.yul\":12398:12402   */\n  dup4\n    /* \"#utility.yul\":12379:12408   */\n  tag_66\n  jump\t// in\ntag_217:\n    /* \"#utility.yul\":12371:12408   */\n  swap2\n  pop\n    /* \"#utility.yul\":12441:12444   */\n  dup3\n    /* \"#utility.yul\":12438:12439   */\n  0x02\n    /* \"#utility.yul\":12434:12445   */\n  mul\n    /* \"#utility.yul\":12428:12432   */\n  dup3\n    /* \"#utility.yul\":12425:12446   */\n  or\n    /* \"#utility.yul\":12417:12446   */\n  swap1\n  pop\n    /* \"#utility.yul\":12157:12452   */\n  swap3\n  swap2\n  pop\n  pop\n  jump\t// out\n    /* \"#utility.yul\":12457:13852   */\ntag_7:\n    /* \"#utility.yul\":12574:12611   */\n  tag_219\n    /* \"#utility.yul\":12607:12610   */\n  dup3\n    /* \"#utility.yul\":12574:12611   */\n  tag_50\n  jump\t// in\ntag_219:\n    /* \"#utility.yul\":12676:12694   */\n  0xffffffffffffffff\n    /* \"#utility.yul\":12668:12674   */\n  dup2\n    /* \"#utility.yul\":12665:12695   */\n  gt\n    /* \"#utility.yul\":12662:12718   */\n  iszero\n  tag_220\n  jumpi\n    /* \"#utility.yul\":12698:12716   */\n  tag_221\n  tag_19\n  jump\t// in\ntag_221:\n    /* \"#utility.yul\":12662:12718   */\ntag_220:\n    /* \"#utility.yul\":12742:12780   */\n  tag_222\n    /* \"#utility.yul\":12774:12778   */\n  dup3\n    /* \"#utility.yul\":12768:12779   */\n  sload\n    /* \"#utility.yul\":12742:12780   */\n  tag_52\n  jump\t// in\ntag_222:\n    /* \"#utility.yul\":12827:12894   */\n  tag_223\n    /* \"#utility.yul\":12887:12893   */\n  dup3\n    /* \"#utility.yul\":12879:12885   */\n  dup3\n    /* \"#utility.yul\":12873:12877   */\n  dup6\n    /* \"#utility.yul\":12827:12894   */\n  tag_64\n  jump\t// in\ntag_223:\n    /* \"#utility.yul\":12921:12922   */\n  0x00\n    /* \"#utility.yul\":12945:12949   */\n  0x20\n    /* \"#utility.yul\":12932:12949   */\n  swap1\n  pop\n    /* \"#utility.yul\":12977:12979   */\n  0x1f\n    /* \"#utility.yul\":12969:12975   */\n  dup4\n    /* \"#utility.yul\":12966:12980   */\n  gt\n    /* \"#utility.yul\":12994:12995   */\n  0x01\n    /* \"#utility.yul\":12989:13607   */\n  dup2\n  eq\n  tag_225\n  jumpi\n    /* \"#utility.yul\":13651:13652   */\n  0x00\n    /* \"#utility.yul\":13668:13674   */\n  dup5\n    /* \"#utility.yul\":13665:13742   */\n  iszero\n  tag_226\n  jumpi\n    /* \"#utility.yul\":13717:13726   */\n  dup3\n    /* \"#utility.yul\":13712:13715   */\n  dup8\n    /* \"#utility.yul\":13708:13727   */\n  add\n    /* \"#utility.yul\":13702:13728   */\n  mload\n    /* \"#utility.yul\":13693:13728   */\n  swap1\n  pop\n    /* \"#utility.yul\":13665:13742   */\ntag_226:\n    /* \"#utility.yul\":13768:13835   */\n  tag_227\n    /* \"#utility.yul\":13828:13834   */\n  dup6\n    /* \"#utility.yul\":13821:13826   */\n  dup3\n    /* \"#utility.yul\":13768:13835   */\n  tag_67\n  jump\t// in\ntag_227:\n    /* \"#utility.yul\":13762:13766   */\n  dup7\n    /* \"#utility.yul\":13755:13836   */\n  sstore\n    /* \"#utility.yul\":13624:13846   */\n  pop\n    /* \"#utility.yul\":12959:13846   */\n  jump(tag_224)\n    /* \"#utility.yul\":12989:13607   */\ntag_225:\n    /* \"#utility.yul\":13041:13045   */\n  0x1f\n    /* \"#utility.yul\":13037:13046   */\n  not\n    /* \"#utility.yul\":13029:13035   */\n  dup5\n    /* \"#utility.yul\":13025:13047   */\n  and\n    /* \"#utility.yul\":13075:13112   */\n  tag_228\n    /* \"#utility.yul\":13107:13111   */\n  dup7\n    /* \"#utility.yul\":13075:13112   */\n  tag_53\n  jump\t// in\ntag_228:\n    /* \"#utility.yul\":13134:13135   */\n  0x00\n    /* \"#utility.yul\":13148:13356   */\ntag_229:\n    /* \"#utility.yul\":13162:13169   */\n  dup3\n    /* \"#utility.yul\":13159:13160   */\n  dup2\n    /* \"#utility.yul\":13156:13170   */\n  lt\n    /* \"#utility.yul\":13148:13356   */\n  iszero\n  tag_231\n  jumpi\n    /* \"#utility.yul\":13241:13250   */\n  dup5\n    /* \"#utility.yul\":13236:13239   */\n  dup10\n    /* \"#utility.yul\":13232:13251   */\n  add\n    /* \"#utility.yul\":13226:13252   */\n  mload\n    /* \"#utility.yul\":13218:13224   */\n  dup3\n    /* \"#utility.yul\":13211:13253   */\n  sstore\n    /* \"#utility.yul\":13292:13293   */\n  0x01\n    /* \"#utility.yul\":13284:13290   */\n  dup3\n    /* \"#utility.yul\":13280:13294   */\n  add\n    /* \"#utility.yul\":13270:13294   */\n  swap2\n  pop\n    /* \"#utility.yul\":13339:13341   */\n  0x20\n    /* \"#utility.yul\":13328:13337   */\n  dup6\n    /* \"#utility.yul\":13324:13342   */\n  add\n    /* \"#utility.yul\":13311:13342   */\n  swap5\n  pop\n    /* \"#utility.yul\":13185:13189   */\n  0x20\n    /* \"#utility.yul\":13182:13183   */\n  dup2\n    /* \"#utility.yul\":13178:13190   */\n  add\n    /* \"#utility.yul\":13173:13190   */\n  swap1\n  pop\n    /* \"#utility.yul\":13148:13356   */\n  jump(tag_229)\ntag_231:\n    /* \"#utility.yul\":13384:13390   */\n  dup7\n    /* \"#utility.yul\":13375:13382   */\n  dup4\n    /* \"#utility.yul\":13372:13391   */\n  lt\n    /* \"#utility.yul\":13369:13548   */\n  iszero\n  tag_232\n  jumpi\n    /* \"#utility.yul\":13442:13451   */\n  dup5\n    /* \"#utility.yul\":13437:13440   */\n  dup10\n    /* \"#utility.yul\":13433:13452   */\n  add\n    /* \"#utility.yul\":13427:13453   */\n  mload\n    /* \"#utility.yul\":13485:13533   */\n  tag_233\n    /* \"#utility.yul\":13527:13531   */\n  0x1f\n    /* \"#utility.yul\":13519:13525   */\n  dup10\n    /* \"#utility.yul\":13515:13532   */\n  and\n    /* \"#utility.yul\":13504:13513   */\n  dup3\n    /* \"#utility.yul\":13485:13533   */\n  tag_66\n  jump\t// in\ntag_233:\n    /* \"#utility.yul\":13477:13483   */\n  dup4\n    /* \"#utility.yul\":13470:13534   */\n  sstore\n    /* \"#utility.yul\":13392:13548   */\n  pop\n    /* \"#utility.yul\":13369:13548   */\ntag_232:\n    /* \"#utility.yul\":13594:13595   */\n  0x01\n    /* \"#utility.yul\":13590:13591   */\n  0x02\n    /* \"#utility.yul\":13582:13588   */\n  dup9\n    /* \"#utility.yul\":13578:13592   */\n  mul\n    /* \"#utility.yul\":13574:13596   */\n  add\n    /* \"#utility.yul\":13568:13572   */\n  dup9\n    /* \"#utility.yul\":13561:13597   */\n  sstore\n    /* \"#utility.yul\":12996:13607   */\n  pop\n  pop\n  pop\n    /* \"#utility.yul\":12959:13846   */\ntag_224:\n  pop\n    /* \"#utility.yul\":12549:13852   */\n  pop\n  pop\n  pop\n    /* \"#utility.yul\":12457:13852   */\n  pop\n  pop\n  jump\t// out\n    /* \"#utility.yul\":13858:14027   */\ntag_68:\n    /* \"#utility.yul\":13942:13953   */\n  0x00\n    /* \"#utility.yul\":13976:13982   */\n  dup3\n    /* \"#utility.yul\":13971:13974   */\n  dup3\n    /* \"#utility.yul\":13964:13983   */\n  mstore\n    /* \"#utility.yul\":14016:14020   */\n  0x20\n    /* \"#utility.yul\":14011:14014   */\n  dup3\n    /* \"#utility.yul\":14007:14021   */\n  add\n    /* \"#utility.yul\":13992:14021   */\n  swap1\n  pop\n    /* \"#utility.yul\":13858:14027   */\n  swap3\n  swap2\n  pop\n  pop\n  jump\t// out\n    /* \"#utility.yul\":14033:14410   */\ntag_69:\n    /* \"#utility.yul\":14121:14124   */\n  0x00\n    /* \"#utility.yul\":14149:14188   */\n  tag_236\n    /* \"#utility.yul\":14182:14187   */\n  dup3\n    /* \"#utility.yul\":14149:14188   */\n  tag_50\n  jump\t// in\ntag_236:\n    /* \"#utility.yul\":14204:14275   */\n  tag_237\n    /* \"#utility.yul\":14268:14274   */\n  dup2\n    /* \"#utility.yul\":14263:14266   */\n  dup6\n    /* \"#utility.yul\":14204:14275   */\n  tag_68\n  jump\t// in\ntag_237:\n    /* \"#utility.yul\":14197:14275   */\n  swap4\n  pop\n    /* \"#utility.yul\":14284:14349   */\n  tag_238\n    /* \"#utility.yul\":14342:14348   */\n  dup2\n    /* \"#utility.yul\":14337:14340   */\n  dup6\n    /* \"#utility.yul\":14330:14334   */\n  0x20\n    /* \"#utility.yul\":14323:14328   */\n  dup7\n    /* \"#utility.yul\":14319:14335   */\n  add\n    /* \"#utility.yul\":14284:14349   */\n  tag_26\n  jump\t// in\ntag_238:\n    /* \"#utility.yul\":14374:14403   */\n  tag_239\n    /* \"#utility.yul\":14396:14402   */\n  dup2\n    /* \"#utility.yul\":14374:14403   */\n  tag_18\n  jump\t// in\ntag_239:\n    /* \"#utility.yul\":14369:14372   */\n  dup5\n    /* \"#utility.yul\":14365:14404   */\n  add\n    /* \"#utility.yul\":14358:14404   */\n  swap2\n  pop\n    /* \"#utility.yul\":14125:14410   */\n  pop\n    /* \"#utility.yul\":14033:14410   */\n  swap3\n  swap2\n  pop\n  pop\n  jump\t// out\n    /* \"#utility.yul\":14416:14729   */\ntag_9:\n    /* \"#utility.yul\":14529:14533   */\n  0x00\n    /* \"#utility.yul\":14567:14569   */\n  0x20\n    /* \"#utility.yul\":14556:14565   */\n  dup3\n    /* \"#utility.yul\":14552:14570   */\n  add\n    /* \"#utility.yul\":14544:14570   */\n  swap1\n  pop\n    /* \"#utility.yul\":14616:14625   */\n  dup2\n    /* \"#utility.yul\":14610:14614   */\n  dup2\n    /* \"#utility.yul\":14606:14626   */\n  sub\n    /* \"#utility.yul\":14602:14603   */\n  0x00\n    /* \"#utility.yul\":14591:14600   */\n  dup4\n    /* \"#utility.yul\":14587:14604   */\n  add\n    /* \"#utility.yul\":14580:14627   */\n  mstore\n    /* \"#utility.yul\":14644:14722   */\n  tag_241\n    /* \"#utility.yul\":14717:14721   */\n  dup2\n    /* \"#utility.yul\":14708:14714   */\n  dup5\n    /* \"#utility.yul\":14644:14722   */\n  tag_69\n  jump\t// in\ntag_241:\n    /* \"#utility.yul\":14636:14722   */\n  swap1\n  pop\n    /* \"#utility.yul\":14416:14729   */\n  swap3\n  swap2\n  pop\n  pop\n  jump\t// out\n    /* \"#utility.yul\":14735:14853   */\ntag_70:\n    /* \"#utility.yul\":14822:14846   */\n  tag_243\n    /* \"#utility.yul\":14840:14845   */\n  dup2\n    /* \"#utility.yul\":14822:14846   */\n  tag_33\n  jump\t// in\ntag_243:\n    /* \"#utility.yul\":14817:14820   */\n  dup3\n    /* \"#utility.yul\":14810:14847   */\n  mstore\n    /* \"#utility.yul\":14735:14853   */\n  pop\n  pop\n  jump\t// out\n    /* \"#utility.yul\":14859:15081   */\ntag_12:\n    /* \"#utility.yul\":14952:14956   */\n  0x00\n    /* \"#utility.yul\":14990:14992   */\n  0x20\n    /* \"#utility.yul\":14979:14988   */\n  dup3\n    /* \"#utility.yul\":14975:14993   */\n  add\n    /* \"#utility.yul\":14967:14993   */\n  swap1\n  pop\n    /* \"#utility.yul\":15003:15074   */\n  tag_245\n    /* \"#utility.yul\":15071:15072   */\n  0x00\n    /* \"#utility.yul\":15060:15069   */\n  dup4\n    /* \"#utility.yul\":15056:15073   */\n  add\n    /* \"#utility.yul\":15047:15053   */\n  dup5\n    /* \"#utility.yul\":15003:15074   */\n  tag_70\n  jump\t// in\ntag_245:\n    /* \"#utility.yul\":14859:15081   */\n  swap3\n  swap2\n  pop\n  pop\n  jump\t// out\n    /* \"contracts/3_Ballot.sol\":146:9070  contract BallotTCN {... */\ntag_13:\n  dataSize(sub_0)\n  dup1\n  dataOffset(sub_0)\n  0x00\n  codecopy\n  0x00\n  return\nstop\n\nsub_0: assembly {\n        /* \"contracts/3_Ballot.sol\":146:9070  contract BallotTCN {... */\n      mstore(0x40, 0x80)\n      callvalue\n      dup1\n      iszero\n      tag_1\n      jumpi\n      0x00\n      dup1\n      revert\n    tag_1:\n      pop\n      jumpi(tag_2, lt(calldatasize, 0x04))\n      shr(0xe0, calldataload(0x00))\n      dup1\n      0xa3ec138d\n      gt\n      tag_16\n      jumpi\n      dup1\n      0xd4564d16\n      gt\n      tag_17\n      jumpi\n      dup1\n      0xd4564d16\n      eq\n      tag_12\n      jumpi\n      dup1\n      0xe2ba53f0\n      eq\n      tag_13\n      jumpi\n      dup1\n      0xec5bf07b\n      eq\n      tag_14\n      jumpi\n      dup1\n      0xf8b1b08a\n      eq\n      tag_15\n      jumpi\n      jump(tag_2)\n    tag_17:\n      dup1\n      0xa3ec138d\n      eq\n      tag_9\n      jumpi\n      dup1\n      0xb3a05246\n      eq\n      tag_10\n      jumpi\n      dup1\n      0xbc33c7d7\n      eq\n      tag_11\n      jumpi\n      jump(tag_2)\n    tag_16:\n      dup1\n      0x0121b93f\n      eq\n      tag_3\n      jumpi\n      dup1\n      0x013cf08b\n      eq\n      tag_4\n      jumpi\n      dup1\n      0x2e4176cf\n      eq\n      tag_5\n      jumpi\n      dup1\n      0x4731ca2b\n      eq\n      tag_6\n      jumpi\n      dup1\n      0x5c19a95c\n      eq\n      tag_7\n      jumpi\n      dup1\n      0x9e7b8d61\n      eq\n      tag_8\n      jumpi\n    tag_2:\n      0x00\n      dup1\n      revert\n        /* \"contracts/3_Ballot.sol\":7717:8175  function vote(uint proposal) public {... */\n    tag_3:\n      tag_18\n      0x04\n      dup1\n      calldatasize\n      sub\n      dup2\n      add\n      swap1\n      tag_19\n      swap2\n      swap1\n      tag_20\n      jump\t// in\n    tag_19:\n      tag_21\n      jump\t// in\n    tag_18:\n      stop\n        /* \"contracts/3_Ballot.sol\":1645:1672  Proposal[] public proposals */\n    tag_4:\n      tag_22\n      0x04\n      dup1\n      calldatasize\n      sub\n      dup2\n      add\n      swap1\n      tag_23\n      swap2\n      swap1\n      tag_20\n      jump\t// in\n    tag_23:\n      tag_24\n      jump\t// in\n    tag_22:\n      mload(0x40)\n      tag_25\n      swap3\n      swap2\n      swap1\n      tag_26\n      jump\t// in\n    tag_25:\n      mload(0x40)\n      dup1\n      swap2\n      sub\n      swap1\n      return\n        /* \"contracts/3_Ballot.sol\":1485:1511  address public chairperson */\n    tag_5:\n      tag_27\n      tag_28\n      jump\t// in\n    tag_27:\n      mload(0x40)\n      tag_29\n      swap2\n      swap1\n      tag_30\n      jump\t// in\n    tag_29:\n      mload(0x40)\n      dup1\n      swap2\n      sub\n      swap1\n      return\n        /* \"contracts/3_Ballot.sol\":3540:3720  function getBallotProposalParams() public view returns (address, address, uint256) {... */\n    tag_6:\n      tag_31\n      tag_32\n      jump\t// in\n    tag_31:\n      mload(0x40)\n      tag_33\n      swap4\n      swap3\n      swap2\n      swap1\n      tag_34\n      jump\t// in\n    tag_33:\n      mload(0x40)\n      dup1\n      swap2\n      sub\n      swap1\n      return\n        /* \"contracts/3_Ballot.sol\":6622:7529  function delegate(address to) public {... */\n    tag_7:\n      tag_35\n      0x04\n      dup1\n      calldatasize\n      sub\n      dup2\n      add\n      swap1\n      tag_36\n      swap2\n      swap1\n      tag_37\n      jump\t// in\n    tag_36:\n      tag_38\n      jump\t// in\n    tag_35:\n      stop\n        /* \"contracts/3_Ballot.sol\":6143:6498  function giveRightToVote(address voter) public {... */\n    tag_8:\n      tag_39\n      0x04\n      dup1\n      calldatasize\n      sub\n      dup2\n      add\n      swap1\n      tag_40\n      swap2\n      swap1\n      tag_37\n      jump\t// in\n    tag_40:\n      tag_41\n      jump\t// in\n    tag_39:\n      stop\n        /* \"contracts/3_Ballot.sol\":1599:1638  mapping(address => Voter) public voters */\n    tag_9:\n      tag_42\n      0x04\n      dup1\n      calldatasize\n      sub\n      dup2\n      add\n      swap1\n      tag_43\n      swap2\n      swap1\n      tag_37\n      jump\t// in\n    tag_43:\n      tag_44\n      jump\t// in\n    tag_42:\n      mload(0x40)\n      tag_45\n      swap5\n      swap4\n      swap3\n      swap2\n      swap1\n      tag_46\n      jump\t// in\n    tag_45:\n      mload(0x40)\n      dup1\n      swap2\n      sub\n      swap1\n      return\n        /* \"contracts/3_Ballot.sol\":3726:3937  function getBalootVotingParams() public view returns (uint16, uint32, uint48, uint48) {... */\n    tag_10:\n      tag_47\n      tag_48\n      jump\t// in\n    tag_47:\n      mload(0x40)\n      tag_49\n      swap5\n      swap4\n      swap3\n      swap2\n      swap1\n      tag_50\n      jump\t// in\n    tag_49:\n      mload(0x40)\n      dup1\n      swap2\n      sub\n      swap1\n      return\n        /* \"contracts/3_Ballot.sol\":3292:3534  function getBallotCallDataParams() public view returns (string memory, string memory, bytes32, address) {... */\n    tag_11:\n      tag_51\n      tag_52\n      jump\t// in\n    tag_51:\n      mload(0x40)\n      tag_53\n      swap5\n      swap4\n      swap3\n      swap2\n      swap1\n      tag_54\n      jump\t// in\n    tag_53:\n      mload(0x40)\n      dup1\n      swap2\n      sub\n      swap1\n      return\n        /* \"contracts/3_Ballot.sol\":8361:8731  function voteCountProposal() public view... */\n    tag_12:\n      tag_55\n      tag_56\n      jump\t// in\n    tag_55:\n      mload(0x40)\n      tag_57\n      swap2\n      swap1\n      tag_58\n      jump\t// in\n    tag_57:\n      mload(0x40)\n      dup1\n      swap2\n      sub\n      swap1\n      return\n        /* \"contracts/3_Ballot.sol\":8922:9068  function winnerName() public view... */\n    tag_13:\n      tag_59\n      tag_60\n      jump\t// in\n    tag_59:\n      mload(0x40)\n      tag_61\n      swap2\n      swap1\n      tag_62\n      jump\t// in\n    tag_61:\n      mload(0x40)\n      dup1\n      swap2\n      sub\n      swap1\n      return\n        /* \"contracts/3_Ballot.sol\":4108:4340  function getBallotProposalId() public view returns (uint256 proposalId) {... */\n    tag_14:\n      tag_63\n      tag_64\n      jump\t// in\n    tag_63:\n      mload(0x40)\n      tag_65\n      swap2\n      swap1\n      tag_58\n      jump\t// in\n    tag_65:\n      mload(0x40)\n      dup1\n      swap2\n      sub\n      swap1\n      return\n        /* \"contracts/3_Ballot.sol\":3943:4102  function getBallotCallData() public view virtual  returns (bytes memory callData) {... */\n    tag_15:\n      tag_66\n      tag_67\n      jump\t// in\n    tag_66:\n      mload(0x40)\n      tag_68\n      swap2\n      swap1\n      tag_69\n      jump\t// in\n    tag_68:\n      mload(0x40)\n      dup1\n      swap2\n      sub\n      swap1\n      return\n        /* \"contracts/3_Ballot.sol\":7717:8175  function vote(uint proposal) public {... */\n    tag_21:\n        /* \"contracts/3_Ballot.sol\":7763:7783  Voter storage sender */\n      0x00\n        /* \"contracts/3_Ballot.sol\":7786:7792  voters */\n      0x0a\n        /* \"contracts/3_Ballot.sol\":7786:7804  voters[msg.sender] */\n      0x00\n        /* \"contracts/3_Ballot.sol\":7793:7803  msg.sender */\n      caller\n        /* \"contracts/3_Ballot.sol\":7786:7804  voters[msg.sender] */\n      0xffffffffffffffffffffffffffffffffffffffff\n      and\n      0xffffffffffffffffffffffffffffffffffffffff\n      and\n      dup2\n      mstore\n      0x20\n      add\n      swap1\n      dup2\n      mstore\n      0x20\n      add\n      0x00\n      keccak256\n        /* \"contracts/3_Ballot.sol\":7763:7804  Voter storage sender = voters[msg.sender] */\n      swap1\n      pop\n        /* \"contracts/3_Ballot.sol\":7839:7840  0 */\n      0x00\n        /* \"contracts/3_Ballot.sol\":7822:7828  sender */\n      dup2\n        /* \"contracts/3_Ballot.sol\":7822:7835  sender.weight */\n      0x00\n      add\n      sload\n        /* \"contracts/3_Ballot.sol\":7822:7840  sender.weight != 0 */\n      sub\n        /* \"contracts/3_Ballot.sol\":7814:7865  require(sender.weight != 0, \"Has no right to vote\") */\n      tag_71\n      jumpi\n      mload(0x40)\n      0x08c379a000000000000000000000000000000000000000000000000000000000\n      dup2\n      mstore\n      0x04\n      add\n      tag_72\n      swap1\n      tag_73\n      jump\t// in\n    tag_72:\n      mload(0x40)\n      dup1\n      swap2\n      sub\n      swap1\n      revert\n    tag_71:\n        /* \"contracts/3_Ballot.sol\":7884:7890  sender */\n      dup1\n        /* \"contracts/3_Ballot.sol\":7884:7896  sender.voted */\n      0x01\n      add\n      0x00\n      swap1\n      sload\n      swap1\n      0x0100\n      exp\n      swap1\n      div\n      0xff\n      and\n        /* \"contracts/3_Ballot.sol\":7883:7896  !sender.voted */\n      iszero\n        /* \"contracts/3_Ballot.sol\":7875:7915  require(!sender.voted, \"Already voted.\") */\n      tag_74\n      jumpi\n      mload(0x40)\n      0x08c379a000000000000000000000000000000000000000000000000000000000\n      dup2\n      mstore\n      0x04\n      add\n      tag_75\n      swap1\n      tag_76\n      jump\t// in\n    tag_75:\n      mload(0x40)\n      dup1\n      swap2\n      sub\n      swap1\n      revert\n    tag_74:\n        /* \"contracts/3_Ballot.sol\":7940:7944  true */\n      0x01\n        /* \"contracts/3_Ballot.sol\":7925:7931  sender */\n      dup2\n        /* \"contracts/3_Ballot.sol\":7925:7937  sender.voted */\n      0x01\n      add\n      0x00\n        /* \"contracts/3_Ballot.sol\":7925:7944  sender.voted = true */\n      0x0100\n      exp\n      dup2\n      sload\n      dup2\n      0xff\n      mul\n      not\n      and\n      swap1\n      dup4\n      iszero\n      iszero\n      mul\n      or\n      swap1\n      sstore\n      pop\n        /* \"contracts/3_Ballot.sol\":7968:7976  proposal */\n      dup2\n        /* \"contracts/3_Ballot.sol\":7954:7960  sender */\n      dup2\n        /* \"contracts/3_Ballot.sol\":7954:7965  sender.vote */\n      0x02\n      add\n        /* \"contracts/3_Ballot.sol\":7954:7976  sender.vote = proposal */\n      dup2\n      swap1\n      sstore\n      pop\n        /* \"contracts/3_Ballot.sol\":8155:8161  sender */\n      dup1\n        /* \"contracts/3_Ballot.sol\":8155:8168  sender.weight */\n      0x00\n      add\n      sload\n        /* \"contracts/3_Ballot.sol\":8122:8131  proposals */\n      0x0b\n        /* \"contracts/3_Ballot.sol\":8132:8140  proposal */\n      dup4\n        /* \"contracts/3_Ballot.sol\":8122:8141  proposals[proposal] */\n      dup2\n      sload\n      dup2\n      lt\n      tag_77\n      jumpi\n      tag_78\n      tag_79\n      jump\t// in\n    tag_78:\n    tag_77:\n      swap1\n      0x00\n      mstore\n      keccak256(0x00, 0x20)\n      swap1\n      0x02\n      mul\n      add\n        /* \"contracts/3_Ballot.sol\":8122:8151  proposals[proposal].voteCount */\n      0x01\n      add\n      0x00\n        /* \"contracts/3_Ballot.sol\":8122:8168  proposals[proposal].voteCount += sender.weight */\n      dup3\n      dup3\n      sload\n      tag_81\n      swap2\n      swap1\n      tag_82\n      jump\t// in\n    tag_81:\n      swap3\n      pop\n      pop\n      dup2\n      swap1\n      sstore\n      pop\n        /* \"contracts/3_Ballot.sol\":7753:8175  {... */\n      pop\n        /* \"contracts/3_Ballot.sol\":7717:8175  function vote(uint proposal) public {... */\n      pop\n      jump\t// out\n        /* \"contracts/3_Ballot.sol\":1645:1672  Proposal[] public proposals */\n    tag_24:\n      0x0b\n      dup2\n      dup2\n      sload\n      dup2\n      lt\n      tag_83\n      jumpi\n      0x00\n      dup1\n      revert\n    tag_83:\n      swap1\n      0x00\n      mstore\n      keccak256(0x00, 0x20)\n      swap1\n      0x02\n      mul\n      add\n      0x00\n      swap2\n      pop\n      swap1\n      pop\n      dup1\n      0x00\n      add\n      sload\n      swap1\n      dup1\n      0x01\n      add\n      sload\n      swap1\n      pop\n      dup3\n      jump\t// out\n        /* \"contracts/3_Ballot.sol\":1485:1511  address public chairperson */\n    tag_28:\n      0x08\n      0x00\n      swap1\n      sload\n      swap1\n      0x0100\n      exp\n      swap1\n      div\n      0xffffffffffffffffffffffffffffffffffffffff\n      and\n      dup2\n      jump\t// out\n        /* \"contracts/3_Ballot.sol\":3540:3720  function getBallotProposalParams() public view returns (address, address, uint256) {... */\n    tag_32:\n        /* \"contracts/3_Ballot.sol\":3596:3603  address */\n      0x00\n        /* \"contracts/3_Ballot.sol\":3605:3612  address */\n      dup1\n        /* \"contracts/3_Ballot.sol\":3614:3621  uint256 */\n      0x00\n        /* \"contracts/3_Ballot.sol\":3641:3656  _proposalParams */\n      0x05\n        /* \"contracts/3_Ballot.sol\":3641:3663  _proposalParams.target */\n      0x00\n      add\n      0x00\n      swap1\n      sload\n      swap1\n      0x0100\n      exp\n      swap1\n      div\n      0xffffffffffffffffffffffffffffffffffffffff\n      and\n        /* \"contracts/3_Ballot.sol\":3665:3680  _proposalParams */\n      0x05\n        /* \"contracts/3_Ballot.sol\":3665:3689  _proposalParams.proposer */\n      0x01\n      add\n      0x00\n      swap1\n      sload\n      swap1\n      0x0100\n      exp\n      swap1\n      div\n      0xffffffffffffffffffffffffffffffffffffffff\n      and\n        /* \"contracts/3_Ballot.sol\":3691:3706  _proposalParams */\n      0x05\n        /* \"contracts/3_Ballot.sol\":3691:3712  _proposalParams.value */\n      0x02\n      add\n      sload\n        /* \"contracts/3_Ballot.sol\":3633:3713  return (_proposalParams.target, _proposalParams.proposer, _proposalParams.value) */\n      swap3\n      pop\n      swap3\n      pop\n      swap3\n      pop\n        /* \"contracts/3_Ballot.sol\":3540:3720  function getBallotProposalParams() public view returns (address, address, uint256) {... */\n      swap1\n      swap2\n      swap3\n      jump\t// out\n        /* \"contracts/3_Ballot.sol\":6622:7529  function delegate(address to) public {... */\n    tag_38:\n        /* \"contracts/3_Ballot.sol\":6669:6689  Voter storage sender */\n      0x00\n        /* \"contracts/3_Ballot.sol\":6692:6698  voters */\n      0x0a\n        /* \"contracts/3_Ballot.sol\":6692:6710  voters[msg.sender] */\n      0x00\n        /* \"contracts/3_Ballot.sol\":6699:6709  msg.sender */\n      caller\n        /* \"contracts/3_Ballot.sol\":6692:6710  voters[msg.sender] */\n      0xffffffffffffffffffffffffffffffffffffffff\n      and\n      0xffffffffffffffffffffffffffffffffffffffff\n      and\n      dup2\n      mstore\n      0x20\n      add\n      swap1\n      dup2\n      mstore\n      0x20\n      add\n      0x00\n      keccak256\n        /* \"contracts/3_Ballot.sol\":6669:6710  Voter storage sender = voters[msg.sender] */\n      swap1\n      pop\n        /* \"contracts/3_Ballot.sol\":6729:6735  sender */\n      dup1\n        /* \"contracts/3_Ballot.sol\":6729:6741  sender.voted */\n      0x01\n      add\n      0x00\n      swap1\n      sload\n      swap1\n      0x0100\n      exp\n      swap1\n      div\n      0xff\n      and\n        /* \"contracts/3_Ballot.sol\":6728:6741  !sender.voted */\n      iszero\n        /* \"contracts/3_Ballot.sol\":6720:6764  require(!sender.voted, \"You already voted.\") */\n      tag_87\n      jumpi\n      mload(0x40)\n      0x08c379a000000000000000000000000000000000000000000000000000000000\n      dup2\n      mstore\n      0x04\n      add\n      tag_88\n      swap1\n      tag_89\n      jump\t// in\n    tag_88:\n      mload(0x40)\n      dup1\n      swap2\n      sub\n      swap1\n      revert\n    tag_87:\n        /* \"contracts/3_Ballot.sol\":6788:6798  msg.sender */\n      caller\n        /* \"contracts/3_Ballot.sol\":6782:6798  to != msg.sender */\n      0xffffffffffffffffffffffffffffffffffffffff\n      and\n        /* \"contracts/3_Ballot.sol\":6782:6784  to */\n      dup3\n        /* \"contracts/3_Ballot.sol\":6782:6798  to != msg.sender */\n      0xffffffffffffffffffffffffffffffffffffffff\n      and\n      sub\n        /* \"contracts/3_Ballot.sol\":6774:6833  require(to != msg.sender, \"Self-delegation is disallowed.\") */\n      tag_90\n      jumpi\n      mload(0x40)\n      0x08c379a000000000000000000000000000000000000000000000000000000000\n      dup2\n      mstore\n      0x04\n      add\n      tag_91\n      swap1\n      tag_92\n      jump\t// in\n    tag_91:\n      mload(0x40)\n      dup1\n      swap2\n      sub\n      swap1\n      revert\n    tag_90:\n        /* \"contracts/3_Ballot.sol\":6844:7067  while (voters[to].delegate != address(0)) {... */\n    tag_93:\n        /* \"contracts/3_Ballot.sol\":6882:6883  0 */\n      0x00\n        /* \"contracts/3_Ballot.sol\":6851:6884  voters[to].delegate != address(0) */\n      0xffffffffffffffffffffffffffffffffffffffff\n      and\n        /* \"contracts/3_Ballot.sol\":6851:6857  voters */\n      0x0a\n        /* \"contracts/3_Ballot.sol\":6851:6861  voters[to] */\n      0x00\n        /* \"contracts/3_Ballot.sol\":6858:6860  to */\n      dup5\n        /* \"contracts/3_Ballot.sol\":6851:6861  voters[to] */\n      0xffffffffffffffffffffffffffffffffffffffff\n      and\n      0xffffffffffffffffffffffffffffffffffffffff\n      and\n      dup2\n      mstore\n      0x20\n      add\n      swap1\n      dup2\n      mstore\n      0x20\n      add\n      0x00\n      keccak256\n        /* \"contracts/3_Ballot.sol\":6851:6870  voters[to].delegate */\n      0x01\n      add\n      0x01\n      swap1\n      sload\n      swap1\n      0x0100\n      exp\n      swap1\n      div\n      0xffffffffffffffffffffffffffffffffffffffff\n      and\n        /* \"contracts/3_Ballot.sol\":6851:6884  voters[to].delegate != address(0) */\n      0xffffffffffffffffffffffffffffffffffffffff\n      and\n      eq\n        /* \"contracts/3_Ballot.sol\":6844:7067  while (voters[to].delegate != address(0)) {... */\n      tag_94\n      jumpi\n        /* \"contracts/3_Ballot.sol\":6905:6911  voters */\n      0x0a\n        /* \"contracts/3_Ballot.sol\":6905:6915  voters[to] */\n      0x00\n        /* \"contracts/3_Ballot.sol\":6912:6914  to */\n      dup4\n        /* \"contracts/3_Ballot.sol\":6905:6915  voters[to] */\n      0xffffffffffffffffffffffffffffffffffffffff\n      and\n      0xffffffffffffffffffffffffffffffffffffffff\n      and\n      dup2\n      mstore\n      0x20\n      add\n      swap1\n      dup2\n      mstore\n      0x20\n      add\n      0x00\n      keccak256\n        /* \"contracts/3_Ballot.sol\":6905:6924  voters[to].delegate */\n      0x01\n      add\n      0x01\n      swap1\n      sload\n      swap1\n      0x0100\n      exp\n      swap1\n      div\n      0xffffffffffffffffffffffffffffffffffffffff\n      and\n        /* \"contracts/3_Ballot.sol\":6900:6924  to = voters[to].delegate */\n      swap2\n      pop\n        /* \"contracts/3_Ballot.sol\":7016:7026  msg.sender */\n      caller\n        /* \"contracts/3_Ballot.sol\":7010:7026  to != msg.sender */\n      0xffffffffffffffffffffffffffffffffffffffff\n      and\n        /* \"contracts/3_Ballot.sol\":7010:7012  to */\n      dup3\n        /* \"contracts/3_Ballot.sol\":7010:7026  to != msg.sender */\n      0xffffffffffffffffffffffffffffffffffffffff\n      and\n      sub\n        /* \"contracts/3_Ballot.sol\":7002:7056  require(to != msg.sender, \"Found loop in delegation.\") */\n      tag_95\n      jumpi\n      mload(0x40)\n      0x08c379a000000000000000000000000000000000000000000000000000000000\n      dup2\n      mstore\n      0x04\n      add\n      tag_96\n      swap1\n      tag_97\n      jump\t// in\n    tag_96:\n      mload(0x40)\n      dup1\n      swap2\n      sub\n      swap1\n      revert\n    tag_95:\n        /* \"contracts/3_Ballot.sol\":6844:7067  while (voters[to].delegate != address(0)) {... */\n      jump(tag_93)\n    tag_94:\n        /* \"contracts/3_Ballot.sol\":7091:7095  true */\n      0x01\n        /* \"contracts/3_Ballot.sol\":7076:7082  sender */\n      dup2\n        /* \"contracts/3_Ballot.sol\":7076:7088  sender.voted */\n      0x01\n      add\n      0x00\n        /* \"contracts/3_Ballot.sol\":7076:7095  sender.voted = true */\n      0x0100\n      exp\n      dup2\n      sload\n      dup2\n      0xff\n      mul\n      not\n      and\n      swap1\n      dup4\n      iszero\n      iszero\n      mul\n      or\n      swap1\n      sstore\n      pop\n        /* \"contracts/3_Ballot.sol\":7123:7125  to */\n      dup2\n        /* \"contracts/3_Ballot.sol\":7105:7111  sender */\n      dup2\n        /* \"contracts/3_Ballot.sol\":7105:7120  sender.delegate */\n      0x01\n      add\n      0x01\n        /* \"contracts/3_Ballot.sol\":7105:7125  sender.delegate = to */\n      0x0100\n      exp\n      dup2\n      sload\n      dup2\n      0xffffffffffffffffffffffffffffffffffffffff\n      mul\n      not\n      and\n      swap1\n      dup4\n      0xffffffffffffffffffffffffffffffffffffffff\n      and\n      mul\n      or\n      swap1\n      sstore\n      pop\n        /* \"contracts/3_Ballot.sol\":7135:7158  Voter storage delegate_ */\n      0x00\n        /* \"contracts/3_Ballot.sol\":7161:7167  voters */\n      0x0a\n        /* \"contracts/3_Ballot.sol\":7161:7171  voters[to] */\n      0x00\n        /* \"contracts/3_Ballot.sol\":7168:7170  to */\n      dup5\n        /* \"contracts/3_Ballot.sol\":7161:7171  voters[to] */\n      0xffffffffffffffffffffffffffffffffffffffff\n      and\n      0xffffffffffffffffffffffffffffffffffffffff\n      and\n      dup2\n      mstore\n      0x20\n      add\n      swap1\n      dup2\n      mstore\n      0x20\n      add\n      0x00\n      keccak256\n        /* \"contracts/3_Ballot.sol\":7135:7171  Voter storage delegate_ = voters[to] */\n      swap1\n      pop\n        /* \"contracts/3_Ballot.sol\":7185:7194  delegate_ */\n      dup1\n        /* \"contracts/3_Ballot.sol\":7185:7200  delegate_.voted */\n      0x01\n      add\n      0x00\n      swap1\n      sload\n      swap1\n      0x0100\n      exp\n      swap1\n      div\n      0xff\n      and\n        /* \"contracts/3_Ballot.sol\":7181:7523  if (delegate_.voted) {... */\n      iszero\n      tag_98\n      jumpi\n        /* \"contracts/3_Ballot.sol\":7352:7358  sender */\n      dup2\n        /* \"contracts/3_Ballot.sol\":7352:7365  sender.weight */\n      0x00\n      add\n      sload\n        /* \"contracts/3_Ballot.sol\":7313:7322  proposals */\n      0x0b\n        /* \"contracts/3_Ballot.sol\":7323:7332  delegate_ */\n      dup3\n        /* \"contracts/3_Ballot.sol\":7323:7337  delegate_.vote */\n      0x02\n      add\n      sload\n        /* \"contracts/3_Ballot.sol\":7313:7338  proposals[delegate_.vote] */\n      dup2\n      sload\n      dup2\n      lt\n      tag_99\n      jumpi\n      tag_100\n      tag_79\n      jump\t// in\n    tag_100:\n    tag_99:\n      swap1\n      0x00\n      mstore\n      keccak256(0x00, 0x20)\n      swap1\n      0x02\n      mul\n      add\n        /* \"contracts/3_Ballot.sol\":7313:7348  proposals[delegate_.vote].voteCount */\n      0x01\n      add\n      0x00\n        /* \"contracts/3_Ballot.sol\":7313:7365  proposals[delegate_.vote].voteCount += sender.weight */\n      dup3\n      dup3\n      sload\n      tag_102\n      swap2\n      swap1\n      tag_82\n      jump\t// in\n    tag_102:\n      swap3\n      pop\n      pop\n      dup2\n      swap1\n      sstore\n      pop\n        /* \"contracts/3_Ballot.sol\":7181:7523  if (delegate_.voted) {... */\n      jump(tag_103)\n    tag_98:\n        /* \"contracts/3_Ballot.sol\":7499:7505  sender */\n      dup2\n        /* \"contracts/3_Ballot.sol\":7499:7512  sender.weight */\n      0x00\n      add\n      sload\n        /* \"contracts/3_Ballot.sol\":7479:7488  delegate_ */\n      dup2\n        /* \"contracts/3_Ballot.sol\":7479:7495  delegate_.weight */\n      0x00\n      add\n      0x00\n        /* \"contracts/3_Ballot.sol\":7479:7512  delegate_.weight += sender.weight */\n      dup3\n      dup3\n      sload\n      tag_104\n      swap2\n      swap1\n      tag_82\n      jump\t// in\n    tag_104:\n      swap3\n      pop\n      pop\n      dup2\n      swap1\n      sstore\n      pop\n        /* \"contracts/3_Ballot.sol\":7181:7523  if (delegate_.voted) {... */\n    tag_103:\n        /* \"contracts/3_Ballot.sol\":6659:7529  {... */\n      pop\n      pop\n        /* \"contracts/3_Ballot.sol\":6622:7529  function delegate(address to) public {... */\n      pop\n      jump\t// out\n        /* \"contracts/3_Ballot.sol\":6143:6498  function giveRightToVote(address voter) public {... */\n    tag_41:\n        /* \"contracts/3_Ballot.sol\":6235:6246  chairperson */\n      0x08\n      0x00\n      swap1\n      sload\n      swap1\n      0x0100\n      exp\n      swap1\n      div\n      0xffffffffffffffffffffffffffffffffffffffff\n      and\n        /* \"contracts/3_Ballot.sol\":6221:6246  msg.sender == chairperson */\n      0xffffffffffffffffffffffffffffffffffffffff\n      and\n        /* \"contracts/3_Ballot.sol\":6221:6231  msg.sender */\n      caller\n        /* \"contracts/3_Ballot.sol\":6221:6246  msg.sender == chairperson */\n      0xffffffffffffffffffffffffffffffffffffffff\n      and\n      eq\n        /* \"contracts/3_Ballot.sol\":6200:6312  require(... */\n      tag_106\n      jumpi\n      mload(0x40)\n      0x08c379a000000000000000000000000000000000000000000000000000000000\n      dup2\n      mstore\n      0x04\n      add\n      tag_107\n      swap1\n      tag_108\n      jump\t// in\n    tag_107:\n      mload(0x40)\n      dup1\n      swap2\n      sub\n      swap1\n      revert\n    tag_106:\n        /* \"contracts/3_Ballot.sol\":6344:6350  voters */\n      0x0a\n        /* \"contracts/3_Ballot.sol\":6344:6357  voters[voter] */\n      0x00\n        /* \"contracts/3_Ballot.sol\":6351:6356  voter */\n      dup3\n        /* \"contracts/3_Ballot.sol\":6344:6357  voters[voter] */\n      0xffffffffffffffffffffffffffffffffffffffff\n      and\n      0xffffffffffffffffffffffffffffffffffffffff\n      and\n      dup2\n      mstore\n      0x20\n      add\n      swap1\n      dup2\n      mstore\n      0x20\n      add\n      0x00\n      keccak256\n        /* \"contracts/3_Ballot.sol\":6344:6363  voters[voter].voted */\n      0x01\n      add\n      0x00\n      swap1\n      sload\n      swap1\n      0x0100\n      exp\n      swap1\n      div\n      0xff\n      and\n        /* \"contracts/3_Ballot.sol\":6343:6363  !voters[voter].voted */\n      iszero\n        /* \"contracts/3_Ballot.sol\":6322:6413  require(... */\n      tag_109\n      jumpi\n      mload(0x40)\n      0x08c379a000000000000000000000000000000000000000000000000000000000\n      dup2\n      mstore\n      0x04\n      add\n      tag_110\n      swap1\n      tag_111\n      jump\t// in\n    tag_110:\n      mload(0x40)\n      dup1\n      swap2\n      sub\n      swap1\n      revert\n    tag_109:\n        /* \"contracts/3_Ballot.sol\":6455:6456  0 */\n      0x00\n        /* \"contracts/3_Ballot.sol\":6431:6437  voters */\n      0x0a\n        /* \"contracts/3_Ballot.sol\":6431:6444  voters[voter] */\n      0x00\n        /* \"contracts/3_Ballot.sol\":6438:6443  voter */\n      dup4\n        /* \"contracts/3_Ballot.sol\":6431:6444  voters[voter] */\n      0xffffffffffffffffffffffffffffffffffffffff\n      and\n      0xffffffffffffffffffffffffffffffffffffffff\n      and\n      dup2\n      mstore\n      0x20\n      add\n      swap1\n      dup2\n      mstore\n      0x20\n      add\n      0x00\n      keccak256\n        /* \"contracts/3_Ballot.sol\":6431:6451  voters[voter].weight */\n      0x00\n      add\n      sload\n        /* \"contracts/3_Ballot.sol\":6431:6456  voters[voter].weight == 0 */\n      eq\n        /* \"contracts/3_Ballot.sol\":6423:6457  require(voters[voter].weight == 0) */\n      tag_112\n      jumpi\n      0x00\n      dup1\n      revert\n    tag_112:\n        /* \"contracts/3_Ballot.sol\":6490:6491  1 */\n      0x01\n        /* \"contracts/3_Ballot.sol\":6467:6473  voters */\n      0x0a\n        /* \"contracts/3_Ballot.sol\":6467:6480  voters[voter] */\n      0x00\n        /* \"contracts/3_Ballot.sol\":6474:6479  voter */\n      dup4\n        /* \"contracts/3_Ballot.sol\":6467:6480  voters[voter] */\n      0xffffffffffffffffffffffffffffffffffffffff\n      and\n      0xffffffffffffffffffffffffffffffffffffffff\n      and\n      dup2\n      mstore\n      0x20\n      add\n      swap1\n      dup2\n      mstore\n      0x20\n      add\n      0x00\n      keccak256\n        /* \"contracts/3_Ballot.sol\":6467:6487  voters[voter].weight */\n      0x00\n      add\n        /* \"contracts/3_Ballot.sol\":6467:6491  voters[voter].weight = 1 */\n      dup2\n      swap1\n      sstore\n      pop\n        /* \"contracts/3_Ballot.sol\":6143:6498  function giveRightToVote(address voter) public {... */\n      pop\n      jump\t// out\n        /* \"contracts/3_Ballot.sol\":1599:1638  mapping(address => Voter) public voters */\n    tag_44:\n      mstore(0x20, 0x0a)\n      dup1\n      0x00\n      mstore\n      keccak256(0x00, 0x40)\n      0x00\n      swap2\n      pop\n      swap1\n      pop\n      dup1\n      0x00\n      add\n      sload\n      swap1\n      dup1\n      0x01\n      add\n      0x00\n      swap1\n      sload\n      swap1\n      0x0100\n      exp\n      swap1\n      div\n      0xff\n      and\n      swap1\n      dup1\n      0x01\n      add\n      0x01\n      swap1\n      sload\n      swap1\n      0x0100\n      exp\n      swap1\n      div\n      0xffffffffffffffffffffffffffffffffffffffff\n      and\n      swap1\n      dup1\n      0x02\n      add\n      sload\n      swap1\n      pop\n      dup5\n      jump\t// out\n        /* \"contracts/3_Ballot.sol\":3726:3937  function getBalootVotingParams() public view returns (uint16, uint32, uint48, uint48) {... */\n    tag_48:\n        /* \"contracts/3_Ballot.sol\":3780:3786  uint16 */\n      0x00\n        /* \"contracts/3_Ballot.sol\":3788:3794  uint32 */\n      dup1\n        /* \"contracts/3_Ballot.sol\":3796:3802  uint48 */\n      0x00\n        /* \"contracts/3_Ballot.sol\":3804:3810  uint48 */\n      dup1\n        /* \"contracts/3_Ballot.sol\":3830:3843  _votingParams */\n      0x00\n        /* \"contracts/3_Ballot.sol\":3830:3850  _votingParams.quorum */\n      dup1\n      add\n      0x00\n      swap1\n      sload\n      swap1\n      0x0100\n      exp\n      swap1\n      div\n      0xffff\n      and\n        /* \"contracts/3_Ballot.sol\":3852:3865  _votingParams */\n      0x00\n        /* \"contracts/3_Ballot.sol\":3852:3878  _votingParams.voteDuration */\n      dup1\n      add\n      0x02\n      swap1\n      sload\n      swap1\n      0x0100\n      exp\n      swap1\n      div\n      0xffffffff\n      and\n        /* \"contracts/3_Ballot.sol\":3880:3893  _votingParams */\n      0x00\n        /* \"contracts/3_Ballot.sol\":3880:3903  _votingParams.voteStart */\n      dup1\n      add\n      0x06\n      swap1\n      sload\n      swap1\n      0x0100\n      exp\n      swap1\n      div\n      0xffffffffffff\n      and\n        /* \"contracts/3_Ballot.sol\":3905:3918  _votingParams */\n      0x00\n        /* \"contracts/3_Ballot.sol\":3905:3929  _votingParams.etaSeconds */\n      dup1\n      add\n      0x0c\n      swap1\n      sload\n      swap1\n      0x0100\n      exp\n      swap1\n      div\n      0xffffffffffff\n      and\n        /* \"contracts/3_Ballot.sol\":3822:3930  return (_votingParams.quorum, _votingParams.voteDuration, _votingParams.voteStart, _votingParams.etaSeconds) */\n      swap4\n      pop\n      swap4\n      pop\n      swap4\n      pop\n      swap4\n      pop\n        /* \"contracts/3_Ballot.sol\":3726:3937  function getBalootVotingParams() public view returns (uint16, uint32, uint48, uint48) {... */\n      swap1\n      swap2\n      swap3\n      swap4\n      jump\t// out\n        /* \"contracts/3_Ballot.sol\":3292:3534  function getBallotCallDataParams() public view returns (string memory, string memory, bytes32, address) {... */\n    tag_52:\n        /* \"contracts/3_Ballot.sol\":3348:3361  string memory */\n      0x60\n        /* \"contracts/3_Ballot.sol\":3363:3376  string memory */\n      dup1\n        /* \"contracts/3_Ballot.sol\":3378:3385  bytes32 */\n      0x00\n        /* \"contracts/3_Ballot.sol\":3387:3394  address */\n      dup1\n        /* \"contracts/3_Ballot.sol\":3414:3428  _callDataParam */\n      0x01\n        /* \"contracts/3_Ballot.sol\":3414:3438  _callDataParam.signature */\n      0x00\n      add\n        /* \"contracts/3_Ballot.sol\":3440:3454  _callDataParam */\n      0x01\n        /* \"contracts/3_Ballot.sol\":3440:3466  _callDataParam.description */\n      dup1\n      add\n        /* \"contracts/3_Ballot.sol\":3469:3483  _callDataParam */\n      0x01\n        /* \"contracts/3_Ballot.sol\":3469:3499  _callDataParam.descriptionHash */\n      0x02\n      add\n      sload\n        /* \"contracts/3_Ballot.sol\":3501:3515  _callDataParam */\n      0x01\n        /* \"contracts/3_Ballot.sol\":3501:3526  _callDataParam.governance */\n      0x03\n      add\n      0x00\n      swap1\n      sload\n      swap1\n      0x0100\n      exp\n      swap1\n      div\n      0xffffffffffffffffffffffffffffffffffffffff\n      and\n        /* \"contracts/3_Ballot.sol\":3406:3527  return (_callDataParam.signature, _callDataParam.description,  _callDataParam.descriptionHash, _callDataParam.governance) */\n      dup4\n      dup1\n      sload\n      tag_115\n      swap1\n      tag_116\n      jump\t// in\n    tag_115:\n      dup1\n      0x1f\n      add\n      0x20\n      dup1\n      swap2\n      div\n      mul\n      0x20\n      add\n      mload(0x40)\n      swap1\n      dup2\n      add\n      0x40\n      mstore\n      dup1\n      swap3\n      swap2\n      swap1\n      dup2\n      dup2\n      mstore\n      0x20\n      add\n      dup3\n      dup1\n      sload\n      tag_117\n      swap1\n      tag_116\n      jump\t// in\n    tag_117:\n      dup1\n      iszero\n      tag_118\n      jumpi\n      dup1\n      0x1f\n      lt\n      tag_119\n      jumpi\n      0x0100\n      dup1\n      dup4\n      sload\n      div\n      mul\n      dup4\n      mstore\n      swap2\n      0x20\n      add\n      swap2\n      jump(tag_118)\n    tag_119:\n      dup3\n      add\n      swap2\n      swap1\n      0x00\n      mstore\n      keccak256(0x00, 0x20)\n      swap1\n    tag_120:\n      dup2\n      sload\n      dup2\n      mstore\n      swap1\n      0x01\n      add\n      swap1\n      0x20\n      add\n      dup1\n      dup4\n      gt\n      tag_120\n      jumpi\n      dup3\n      swap1\n      sub\n      0x1f\n      and\n      dup3\n      add\n      swap2\n    tag_118:\n      pop\n      pop\n      pop\n      pop\n      pop\n      swap4\n      pop\n      dup3\n      dup1\n      sload\n      tag_121\n      swap1\n      tag_116\n      jump\t// in\n    tag_121:\n      dup1\n      0x1f\n      add\n      0x20\n      dup1\n      swap2\n      div\n      mul\n      0x20\n      add\n      mload(0x40)\n      swap1\n      dup2\n      add\n      0x40\n      mstore\n      dup1\n      swap3\n      swap2\n      swap1\n      dup2\n      dup2\n      mstore\n      0x20\n      add\n      dup3\n      dup1\n      sload\n      tag_122\n      swap1\n      tag_116\n      jump\t// in\n    tag_122:\n      dup1\n      iszero\n      tag_123\n      jumpi\n      dup1\n      0x1f\n      lt\n      tag_124\n      jumpi\n      0x0100\n      dup1\n      dup4\n      sload\n      div\n      mul\n      dup4\n      mstore\n      swap2\n      0x20\n      add\n      swap2\n      jump(tag_123)\n    tag_124:\n      dup3\n      add\n      swap2\n      swap1\n      0x00\n      mstore\n      keccak256(0x00, 0x20)\n      swap1\n    tag_125:\n      dup2\n      sload\n      dup2\n      mstore\n      swap1\n      0x01\n      add\n      swap1\n      0x20\n      add\n      dup1\n      dup4\n      gt\n      tag_125\n      jumpi\n      dup3\n      swap1\n      sub\n      0x1f\n      and\n      dup3\n      add\n      swap2\n    tag_123:\n      pop\n      pop\n      pop\n      pop\n      pop\n      swap3\n      pop\n      swap4\n      pop\n      swap4\n      pop\n      swap4\n      pop\n      swap4\n      pop\n        /* \"contracts/3_Ballot.sol\":3292:3534  function getBallotCallDataParams() public view returns (string memory, string memory, bytes32, address) {... */\n      swap1\n      swap2\n      swap3\n      swap4\n      jump\t// out\n        /* \"contracts/3_Ballot.sol\":8361:8731  function voteCountProposal() public view... */\n    tag_56:\n        /* \"contracts/3_Ballot.sol\":8423:8447  uint256 winningProposal_ */\n      0x00\n        /* \"contracts/3_Ballot.sol\":8463:8484  uint winningVoteCount */\n      dup1\n        /* \"contracts/3_Ballot.sol\":8487:8488  0 */\n      0x00\n        /* \"contracts/3_Ballot.sol\":8463:8488  uint winningVoteCount = 0 */\n      swap1\n      pop\n        /* \"contracts/3_Ballot.sol\":8503:8509  uint p */\n      0x00\n        /* \"contracts/3_Ballot.sol\":8498:8725  for (uint p = 0; p < proposals.length; p++) {... */\n    tag_127:\n        /* \"contracts/3_Ballot.sol\":8519:8528  proposals */\n      0x0b\n        /* \"contracts/3_Ballot.sol\":8519:8535  proposals.length */\n      dup1\n      sload\n      swap1\n      pop\n        /* \"contracts/3_Ballot.sol\":8515:8516  p */\n      dup2\n        /* \"contracts/3_Ballot.sol\":8515:8535  p < proposals.length */\n      lt\n        /* \"contracts/3_Ballot.sol\":8498:8725  for (uint p = 0; p < proposals.length; p++) {... */\n      iszero\n      tag_128\n      jumpi\n        /* \"contracts/3_Ballot.sol\":8585:8601  winningVoteCount */\n      dup2\n        /* \"contracts/3_Ballot.sol\":8560:8569  proposals */\n      0x0b\n        /* \"contracts/3_Ballot.sol\":8570:8571  p */\n      dup3\n        /* \"contracts/3_Ballot.sol\":8560:8572  proposals[p] */\n      dup2\n      sload\n      dup2\n      lt\n      tag_130\n      jumpi\n      tag_131\n      tag_79\n      jump\t// in\n    tag_131:\n    tag_130:\n      swap1\n      0x00\n      mstore\n      keccak256(0x00, 0x20)\n      swap1\n      0x02\n      mul\n      add\n        /* \"contracts/3_Ballot.sol\":8560:8582  proposals[p].voteCount */\n      0x01\n      add\n      sload\n        /* \"contracts/3_Ballot.sol\":8560:8601  proposals[p].voteCount > winningVoteCount */\n      gt\n        /* \"contracts/3_Ballot.sol\":8556:8715  if (proposals[p].voteCount > winningVoteCount) {... */\n      iszero\n      tag_133\n      jumpi\n        /* \"contracts/3_Ballot.sol\":8640:8649  proposals */\n      0x0b\n        /* \"contracts/3_Ballot.sol\":8650:8651  p */\n      dup2\n        /* \"contracts/3_Ballot.sol\":8640:8652  proposals[p] */\n      dup2\n      sload\n      dup2\n      lt\n      tag_134\n      jumpi\n      tag_135\n      tag_79\n      jump\t// in\n    tag_135:\n    tag_134:\n      swap1\n      0x00\n      mstore\n      keccak256(0x00, 0x20)\n      swap1\n      0x02\n      mul\n      add\n        /* \"contracts/3_Ballot.sol\":8640:8662  proposals[p].voteCount */\n      0x01\n      add\n      sload\n        /* \"contracts/3_Ballot.sol\":8621:8662  winningVoteCount = proposals[p].voteCount */\n      swap2\n      pop\n        /* \"contracts/3_Ballot.sol\":8699:8700  p */\n      dup1\n        /* \"contracts/3_Ballot.sol\":8680:8700  winningProposal_ = p */\n      swap3\n      pop\n        /* \"contracts/3_Ballot.sol\":8556:8715  if (proposals[p].voteCount > winningVoteCount) {... */\n    tag_133:\n        /* \"contracts/3_Ballot.sol\":8537:8540  p++ */\n      dup1\n      dup1\n      tag_137\n      swap1\n      tag_138\n      jump\t// in\n    tag_137:\n      swap2\n      pop\n      pop\n        /* \"contracts/3_Ballot.sol\":8498:8725  for (uint p = 0; p < proposals.length; p++) {... */\n      jump(tag_127)\n    tag_128:\n      pop\n        /* \"contracts/3_Ballot.sol\":8453:8731  {... */\n      pop\n        /* \"contracts/3_Ballot.sol\":8361:8731  function voteCountProposal() public view... */\n      swap1\n      jump\t// out\n        /* \"contracts/3_Ballot.sol\":8922:9068  function winnerName() public view... */\n    tag_60:\n        /* \"contracts/3_Ballot.sol\":8977:8996  bytes32 winnerName_ */\n      0x00\n        /* \"contracts/3_Ballot.sol\":9026:9035  proposals */\n      0x0b\n        /* \"contracts/3_Ballot.sol\":9036:9055  voteCountProposal() */\n      tag_140\n        /* \"contracts/3_Ballot.sol\":9036:9053  voteCountProposal */\n      tag_56\n        /* \"contracts/3_Ballot.sol\":9036:9055  voteCountProposal() */\n      jump\t// in\n    tag_140:\n        /* \"contracts/3_Ballot.sol\":9026:9056  proposals[voteCountProposal()] */\n      dup2\n      sload\n      dup2\n      lt\n      tag_141\n      jumpi\n      tag_142\n      tag_79\n      jump\t// in\n    tag_142:\n    tag_141:\n      swap1\n      0x00\n      mstore\n      keccak256(0x00, 0x20)\n      swap1\n      0x02\n      mul\n      add\n        /* \"contracts/3_Ballot.sol\":9026:9061  proposals[voteCountProposal()].name */\n      0x00\n      add\n      sload\n        /* \"contracts/3_Ballot.sol\":9012:9061  winnerName_ = proposals[voteCountProposal()].name */\n      swap1\n      pop\n        /* \"contracts/3_Ballot.sol\":8922:9068  function winnerName() public view... */\n      swap1\n      jump\t// out\n        /* \"contracts/3_Ballot.sol\":4108:4340  function getBallotProposalId() public view returns (uint256 proposalId) {... */\n    tag_64:\n        /* \"contracts/3_Ballot.sol\":4160:4178  uint256 proposalId */\n      0x00\n        /* \"contracts/3_Ballot.sol\":4232:4247  _proposalParams */\n      0x05\n        /* \"contracts/3_Ballot.sol\":4232:4254  _proposalParams.target */\n      0x00\n      add\n      0x00\n      swap1\n      sload\n      swap1\n      0x0100\n      exp\n      swap1\n      div\n      0xffffffffffffffffffffffffffffffffffffffff\n      and\n        /* \"contracts/3_Ballot.sol\":4256:4271  _proposalParams */\n      0x05\n        /* \"contracts/3_Ballot.sol\":4256:4277  _proposalParams.value */\n      0x02\n      add\n      sload\n        /* \"contracts/3_Ballot.sol\":4279:4298  getBallotCallData() */\n      tag_145\n        /* \"contracts/3_Ballot.sol\":4279:4296  getBallotCallData */\n      tag_67\n        /* \"contracts/3_Ballot.sol\":4279:4298  getBallotCallData() */\n      jump\t// in\n    tag_145:\n        /* \"contracts/3_Ballot.sol\":4300:4314  _callDataParam */\n      0x01\n        /* \"contracts/3_Ballot.sol\":4300:4330  _callDataParam.descriptionHash */\n      0x02\n      add\n      sload\n        /* \"contracts/3_Ballot.sol\":4221:4331  abi.encode(_proposalParams.target, _proposalParams.value, getBallotCallData(), _callDataParam.descriptionHash) */\n      add(0x20, mload(0x40))\n      tag_146\n      swap5\n      swap4\n      swap3\n      swap2\n      swap1\n      tag_147\n      jump\t// in\n    tag_146:\n      mload(0x40)\n      0x20\n      dup2\n      dup4\n      sub\n      sub\n      dup2\n      mstore\n      swap1\n      0x40\n      mstore\n        /* \"contracts/3_Ballot.sol\":4211:4332  keccak256(abi.encode(_proposalParams.target, _proposalParams.value, getBallotCallData(), _callDataParam.descriptionHash)) */\n      dup1\n      mload\n      swap1\n      0x20\n      add\n      keccak256\n        /* \"contracts/3_Ballot.sol\":4203:4333  uint256(keccak256(abi.encode(_proposalParams.target, _proposalParams.value, getBallotCallData(), _callDataParam.descriptionHash))) */\n      0x00\n      shr\n        /* \"contracts/3_Ballot.sol\":4190:4333  proposalId = uint256(keccak256(abi.encode(_proposalParams.target, _proposalParams.value, getBallotCallData(), _callDataParam.descriptionHash))) */\n      swap1\n      pop\n        /* \"contracts/3_Ballot.sol\":4108:4340  function getBallotProposalId() public view returns (uint256 proposalId) {... */\n      swap1\n      jump\t// out\n        /* \"contracts/3_Ballot.sol\":3943:4102  function getBallotCallData() public view virtual  returns (bytes memory callData) {... */\n    tag_67:\n        /* \"contracts/3_Ballot.sol\":4002:4023  bytes memory callData */\n      0x60\n        /* \"contracts/3_Ballot.sol\":4070:4084  _callDataParam */\n      0x01\n        /* \"contracts/3_Ballot.sol\":4070:4094  _callDataParam.signature */\n      0x00\n      add\n        /* \"contracts/3_Ballot.sol\":4046:4095  abi.encodeWithSignature(_callDataParam.signature) */\n      add(0x24, mload(0x40))\n      mload(0x40)\n      0x20\n      dup2\n      dup4\n      sub\n      sub\n      dup2\n      mstore\n      swap1\n      0x40\n      mstore\n      swap1\n      mload(0x40)\n      tag_149\n      swap2\n      swap1\n      tag_150\n      jump\t// in\n    tag_149:\n      mload(0x40)\n      dup1\n      swap2\n      sub\n      swap1\n      keccak256\n      not(0xffffffffffffffffffffffffffffffffffffffffffffffffffffffff)\n      and\n      0x20\n      dup3\n      add\n      dup1\n      mload\n      0xffffffffffffffffffffffffffffffffffffffffffffffffffffffff\n      dup4\n      dup2\n      dup4\n      and\n      or\n      dup4\n      mstore\n      pop\n      pop\n      pop\n      pop\n        /* \"contracts/3_Ballot.sol\":4035:4095  callData = abi.encodeWithSignature(_callDataParam.signature) */\n      swap1\n      pop\n        /* \"contracts/3_Ballot.sol\":3943:4102  function getBallotCallData() public view virtual  returns (bytes memory callData) {... */\n      swap1\n      jump\t// out\n        /* \"#utility.yul\":88:205   */\n    tag_152:\n        /* \"#utility.yul\":197:198   */\n      0x00\n        /* \"#utility.yul\":194:195   */\n      dup1\n        /* \"#utility.yul\":187:199   */\n      revert\n        /* \"#utility.yul\":334:411   */\n    tag_154:\n        /* \"#utility.yul\":371:378   */\n      0x00\n        /* \"#utility.yul\":400:405   */\n      dup2\n        /* \"#utility.yul\":389:405   */\n      swap1\n      pop\n        /* \"#utility.yul\":334:411   */\n      swap2\n      swap1\n      pop\n      jump\t// out\n        /* \"#utility.yul\":417:539   */\n    tag_155:\n        /* \"#utility.yul\":490:514   */\n      tag_206\n        /* \"#utility.yul\":508:513   */\n      dup2\n        /* \"#utility.yul\":490:514   */\n      tag_154\n      jump\t// in\n    tag_206:\n        /* \"#utility.yul\":483:488   */\n      dup2\n        /* \"#utility.yul\":480:515   */\n      eq\n        /* \"#utility.yul\":470:533   */\n      tag_207\n      jumpi\n        /* \"#utility.yul\":529:530   */\n      0x00\n        /* \"#utility.yul\":526:527   */\n      dup1\n        /* \"#utility.yul\":519:531   */\n      revert\n        /* \"#utility.yul\":470:533   */\n    tag_207:\n        /* \"#utility.yul\":417:539   */\n      pop\n      jump\t// out\n        /* \"#utility.yul\":545:684   */\n    tag_156:\n        /* \"#utility.yul\":591:596   */\n      0x00\n        /* \"#utility.yul\":629:635   */\n      dup2\n        /* \"#utility.yul\":616:636   */\n      calldataload\n        /* \"#utility.yul\":607:636   */\n      swap1\n      pop\n        /* \"#utility.yul\":645:678   */\n      tag_209\n        /* \"#utility.yul\":672:677   */\n      dup2\n        /* \"#utility.yul\":645:678   */\n      tag_155\n      jump\t// in\n    tag_209:\n        /* \"#utility.yul\":545:684   */\n      swap3\n      swap2\n      pop\n      pop\n      jump\t// out\n        /* \"#utility.yul\":690:1019   */\n    tag_20:\n        /* \"#utility.yul\":749:755   */\n      0x00\n        /* \"#utility.yul\":798:800   */\n      0x20\n        /* \"#utility.yul\":786:795   */\n      dup3\n        /* \"#utility.yul\":777:784   */\n      dup5\n        /* \"#utility.yul\":773:796   */\n      sub\n        /* \"#utility.yul\":769:801   */\n      slt\n        /* \"#utility.yul\":766:885   */\n      iszero\n      tag_211\n      jumpi\n        /* \"#utility.yul\":804:883   */\n      tag_212\n      tag_152\n      jump\t// in\n    tag_212:\n        /* \"#utility.yul\":766:885   */\n    tag_211:\n        /* \"#utility.yul\":924:925   */\n      0x00\n        /* \"#utility.yul\":949:1002   */\n      tag_213\n        /* \"#utility.yul\":994:1001   */\n      dup5\n        /* \"#utility.yul\":985:991   */\n      dup3\n        /* \"#utility.yul\":974:983   */\n      dup6\n        /* \"#utility.yul\":970:992   */\n      add\n        /* \"#utility.yul\":949:1002   */\n      tag_156\n      jump\t// in\n    tag_213:\n        /* \"#utility.yul\":939:1002   */\n      swap2\n      pop\n        /* \"#utility.yul\":895:1012   */\n      pop\n        /* \"#utility.yul\":690:1019   */\n      swap3\n      swap2\n      pop\n      pop\n      jump\t// out\n        /* \"#utility.yul\":1025:1102   */\n    tag_157:\n        /* \"#utility.yul\":1062:1069   */\n      0x00\n        /* \"#utility.yul\":1091:1096   */\n      dup2\n        /* \"#utility.yul\":1080:1096   */\n      swap1\n      pop\n        /* \"#utility.yul\":1025:1102   */\n      swap2\n      swap1\n      pop\n      jump\t// out\n        /* \"#utility.yul\":1108:1226   */\n    tag_158:\n        /* \"#utility.yul\":1195:1219   */\n      tag_216\n        /* \"#utility.yul\":1213:1218   */\n      dup2\n        /* \"#utility.yul\":1195:1219   */\n      tag_157\n      jump\t// in\n    tag_216:\n        /* \"#utility.yul\":1190:1193   */\n      dup3\n        /* \"#utility.yul\":1183:1220   */\n      mstore\n        /* \"#utility.yul\":1108:1226   */\n      pop\n      pop\n      jump\t// out\n        /* \"#utility.yul\":1232:1350   */\n    tag_159:\n        /* \"#utility.yul\":1319:1343   */\n      tag_218\n        /* \"#utility.yul\":1337:1342   */\n      dup2\n        /* \"#utility.yul\":1319:1343   */\n      tag_154\n      jump\t// in\n    tag_218:\n        /* \"#utility.yul\":1314:1317   */\n      dup3\n        /* \"#utility.yul\":1307:1344   */\n      mstore\n        /* \"#utility.yul\":1232:1350   */\n      pop\n      pop\n      jump\t// out\n        /* \"#utility.yul\":1356:1688   */\n    tag_26:\n        /* \"#utility.yul\":1477:1481   */\n      0x00\n        /* \"#utility.yul\":1515:1517   */\n      0x40\n        /* \"#utility.yul\":1504:1513   */\n      dup3\n        /* \"#utility.yul\":1500:1518   */\n      add\n        /* \"#utility.yul\":1492:1518   */\n      swap1\n      pop\n        /* \"#utility.yul\":1528:1599   */\n      tag_220\n        /* \"#utility.yul\":1596:1597   */\n      0x00\n        /* \"#utility.yul\":1585:1594   */\n      dup4\n        /* \"#utility.yul\":1581:1598   */\n      add\n        /* \"#utility.yul\":1572:1578   */\n      dup6\n        /* \"#utility.yul\":1528:1599   */\n      tag_158\n      jump\t// in\n    tag_220:\n        /* \"#utility.yul\":1609:1681   */\n      tag_221\n        /* \"#utility.yul\":1677:1679   */\n      0x20\n        /* \"#utility.yul\":1666:1675   */\n      dup4\n        /* \"#utility.yul\":1662:1680   */\n      add\n        /* \"#utility.yul\":1653:1659   */\n      dup5\n        /* \"#utility.yul\":1609:1681   */\n      tag_159\n      jump\t// in\n    tag_221:\n        /* \"#utility.yul\":1356:1688   */\n      swap4\n      swap3\n      pop\n      pop\n      pop\n      jump\t// out\n        /* \"#utility.yul\":1694:1820   */\n    tag_160:\n        /* \"#utility.yul\":1731:1738   */\n      0x00\n        /* \"#utility.yul\":1771:1813   */\n      0xffffffffffffffffffffffffffffffffffffffff\n        /* \"#utility.yul\":1764:1769   */\n      dup3\n        /* \"#utility.yul\":1760:1814   */\n      and\n        /* \"#utility.yul\":1749:1814   */\n      swap1\n      pop\n        /* \"#utility.yul\":1694:1820   */\n      swap2\n      swap1\n      pop\n      jump\t// out\n        /* \"#utility.yul\":1826:1922   */\n    tag_161:\n        /* \"#utility.yul\":1863:1870   */\n      0x00\n        /* \"#utility.yul\":1892:1916   */\n      tag_224\n        /* \"#utility.yul\":1910:1915   */\n      dup3\n        /* \"#utility.yul\":1892:1916   */\n      tag_160\n      jump\t// in\n    tag_224:\n        /* \"#utility.yul\":1881:1916   */\n      swap1\n      pop\n        /* \"#utility.yul\":1826:1922   */\n      swap2\n      swap1\n      pop\n      jump\t// out\n        /* \"#utility.yul\":1928:2046   */\n    tag_162:\n        /* \"#utility.yul\":2015:2039   */\n      tag_226\n        /* \"#utility.yul\":2033:2038   */\n      dup2\n        /* \"#utility.yul\":2015:2039   */\n      tag_161\n      jump\t// in\n    tag_226:\n        /* \"#utility.yul\":2010:2013   */\n      dup3\n        /* \"#utility.yul\":2003:2040   */\n      mstore\n        /* \"#utility.yul\":1928:2046   */\n      pop\n      pop\n      jump\t// out\n        /* \"#utility.yul\":2052:2274   */\n    tag_30:\n        /* \"#utility.yul\":2145:2149   */\n      0x00\n        /* \"#utility.yul\":2183:2185   */\n      0x20\n        /* \"#utility.yul\":2172:2181   */\n      dup3\n        /* \"#utility.yul\":2168:2186   */\n      add\n        /* \"#utility.yul\":2160:2186   */\n      swap1\n      pop\n        /* \"#utility.yul\":2196:2267   */\n      tag_228\n        /* \"#utility.yul\":2264:2265   */\n      0x00\n        /* \"#utility.yul\":2253:2262   */\n      dup4\n        /* \"#utility.yul\":2249:2266   */\n      add\n        /* \"#utility.yul\":2240:2246   */\n      dup5\n        /* \"#utility.yul\":2196:2267   */\n      tag_162\n      jump\t// in\n    tag_228:\n        /* \"#utility.yul\":2052:2274   */\n      swap3\n      swap2\n      pop\n      pop\n      jump\t// out\n        /* \"#utility.yul\":2280:2722   */\n    tag_34:\n        /* \"#utility.yul\":2429:2433   */\n      0x00\n        /* \"#utility.yul\":2467:2469   */\n      0x60\n        /* \"#utility.yul\":2456:2465   */\n      dup3\n        /* \"#utility.yul\":2452:2470   */\n      add\n        /* \"#utility.yul\":2444:2470   */\n      swap1\n      pop\n        /* \"#utility.yul\":2480:2551   */\n      tag_230\n        /* \"#utility.yul\":2548:2549   */\n      0x00\n        /* \"#utility.yul\":2537:2546   */\n      dup4\n        /* \"#utility.yul\":2533:2550   */\n      add\n        /* \"#utility.yul\":2524:2530   */\n      dup7\n        /* \"#utility.yul\":2480:2551   */\n      tag_162\n      jump\t// in\n    tag_230:\n        /* \"#utility.yul\":2561:2633   */\n      tag_231\n        /* \"#utility.yul\":2629:2631   */\n      0x20\n        /* \"#utility.yul\":2618:2627   */\n      dup4\n        /* \"#utility.yul\":2614:2632   */\n      add\n        /* \"#utility.yul\":2605:2611   */\n      dup6\n        /* \"#utility.yul\":2561:2633   */\n      tag_162\n      jump\t// in\n    tag_231:\n        /* \"#utility.yul\":2643:2715   */\n      tag_232\n        /* \"#utility.yul\":2711:2713   */\n      0x40\n        /* \"#utility.yul\":2700:2709   */\n      dup4\n        /* \"#utility.yul\":2696:2714   */\n      add\n        /* \"#utility.yul\":2687:2693   */\n      dup5\n        /* \"#utility.yul\":2643:2715   */\n      tag_159\n      jump\t// in\n    tag_232:\n        /* \"#utility.yul\":2280:2722   */\n      swap5\n      swap4\n      pop\n      pop\n      pop\n      pop\n      jump\t// out\n        /* \"#utility.yul\":2728:2850   */\n    tag_163:\n        /* \"#utility.yul\":2801:2825   */\n      tag_234\n        /* \"#utility.yul\":2819:2824   */\n      dup2\n        /* \"#utility.yul\":2801:2825   */\n      tag_161\n      jump\t// in\n    tag_234:\n        /* \"#utility.yul\":2794:2799   */\n      dup2\n        /* \"#utility.yul\":2791:2826   */\n      eq\n        /* \"#utility.yul\":2781:2844   */\n      tag_235\n      jumpi\n        /* \"#utility.yul\":2840:2841   */\n      0x00\n        /* \"#utility.yul\":2837:2838   */\n      dup1\n        /* \"#utility.yul\":2830:2842   */\n      revert\n        /* \"#utility.yul\":2781:2844   */\n    tag_235:\n        /* \"#utility.yul\":2728:2850   */\n      pop\n      jump\t// out\n        /* \"#utility.yul\":2856:2995   */\n    tag_164:\n        /* \"#utility.yul\":2902:2907   */\n      0x00\n        /* \"#utility.yul\":2940:2946   */\n      dup2\n        /* \"#utility.yul\":2927:2947   */\n      calldataload\n        /* \"#utility.yul\":2918:2947   */\n      swap1\n      pop\n        /* \"#utility.yul\":2956:2989   */\n      tag_237\n        /* \"#utility.yul\":2983:2988   */\n      dup2\n        /* \"#utility.yul\":2956:2989   */\n      tag_163\n      jump\t// in\n    tag_237:\n        /* \"#utility.yul\":2856:2995   */\n      swap3\n      swap2\n      pop\n      pop\n      jump\t// out\n        /* \"#utility.yul\":3001:3330   */\n    tag_37:\n        /* \"#utility.yul\":3060:3066   */\n      0x00\n        /* \"#utility.yul\":3109:3111   */\n      0x20\n        /* \"#utility.yul\":3097:3106   */\n      dup3\n        /* \"#utility.yul\":3088:3095   */\n      dup5\n        /* \"#utility.yul\":3084:3107   */\n      sub\n        /* \"#utility.yul\":3080:3112   */\n      slt\n        /* \"#utility.yul\":3077:3196   */\n      iszero\n      tag_239\n      jumpi\n        /* \"#utility.yul\":3115:3194   */\n      tag_240\n      tag_152\n      jump\t// in\n    tag_240:\n        /* \"#utility.yul\":3077:3196   */\n    tag_239:\n        /* \"#utility.yul\":3235:3236   */\n      0x00\n        /* \"#utility.yul\":3260:3313   */\n      tag_241\n        /* \"#utility.yul\":3305:3312   */\n      dup5\n        /* \"#utility.yul\":3296:3302   */\n      dup3\n        /* \"#utility.yul\":3285:3294   */\n      dup6\n        /* \"#utility.yul\":3281:3303   */\n      add\n        /* \"#utility.yul\":3260:3313   */\n      tag_164\n      jump\t// in\n    tag_241:\n        /* \"#utility.yul\":3250:3313   */\n      swap2\n      pop\n        /* \"#utility.yul\":3206:3323   */\n      pop\n        /* \"#utility.yul\":3001:3330   */\n      swap3\n      swap2\n      pop\n      pop\n      jump\t// out\n        /* \"#utility.yul\":3336:3426   */\n    tag_165:\n        /* \"#utility.yul\":3370:3377   */\n      0x00\n        /* \"#utility.yul\":3413:3418   */\n      dup2\n        /* \"#utility.yul\":3406:3419   */\n      iszero\n        /* \"#utility.yul\":3399:3420   */\n      iszero\n        /* \"#utility.yul\":3388:3420   */\n      swap1\n      pop\n        /* \"#utility.yul\":3336:3426   */\n      swap2\n      swap1\n      pop\n      jump\t// out\n        /* \"#utility.yul\":3432:3541   */\n    tag_166:\n        /* \"#utility.yul\":3513:3534   */\n      tag_244\n        /* \"#utility.yul\":3528:3533   */\n      dup2\n        /* \"#utility.yul\":3513:3534   */\n      tag_165\n      jump\t// in\n    tag_244:\n        /* \"#utility.yul\":3508:3511   */\n      dup3\n        /* \"#utility.yul\":3501:3535   */\n      mstore\n        /* \"#utility.yul\":3432:3541   */\n      pop\n      pop\n      jump\t// out\n        /* \"#utility.yul\":3547:4088   */\n    tag_46:\n        /* \"#utility.yul\":3718:3722   */\n      0x00\n        /* \"#utility.yul\":3756:3759   */\n      0x80\n        /* \"#utility.yul\":3745:3754   */\n      dup3\n        /* \"#utility.yul\":3741:3760   */\n      add\n        /* \"#utility.yul\":3733:3760   */\n      swap1\n      pop\n        /* \"#utility.yul\":3770:3841   */\n      tag_246\n        /* \"#utility.yul\":3838:3839   */\n      0x00\n        /* \"#utility.yul\":3827:3836   */\n      dup4\n        /* \"#utility.yul\":3823:3840   */\n      add\n        /* \"#utility.yul\":3814:3820   */\n      dup8\n        /* \"#utility.yul\":3770:3841   */\n      tag_159\n      jump\t// in\n    tag_246:\n        /* \"#utility.yul\":3851:3917   */\n      tag_247\n        /* \"#utility.yul\":3913:3915   */\n      0x20\n        /* \"#utility.yul\":3902:3911   */\n      dup4\n        /* \"#utility.yul\":3898:3916   */\n      add\n        /* \"#utility.yul\":3889:3895   */\n      dup7\n        /* \"#utility.yul\":3851:3917   */\n      tag_166\n      jump\t// in\n    tag_247:\n        /* \"#utility.yul\":3927:3999   */\n      tag_248\n        /* \"#utility.yul\":3995:3997   */\n      0x40\n        /* \"#utility.yul\":3984:3993   */\n      dup4\n        /* \"#utility.yul\":3980:3998   */\n      add\n        /* \"#utility.yul\":3971:3977   */\n      dup6\n        /* \"#utility.yul\":3927:3999   */\n      tag_162\n      jump\t// in\n    tag_248:\n        /* \"#utility.yul\":4009:4081   */\n      tag_249\n        /* \"#utility.yul\":4077:4079   */\n      0x60\n        /* \"#utility.yul\":4066:4075   */\n      dup4\n        /* \"#utility.yul\":4062:4080   */\n      add\n        /* \"#utility.yul\":4053:4059   */\n      dup5\n        /* \"#utility.yul\":4009:4081   */\n      tag_159\n      jump\t// in\n    tag_249:\n        /* \"#utility.yul\":3547:4088   */\n      swap6\n      swap5\n      pop\n      pop\n      pop\n      pop\n      pop\n      jump\t// out\n        /* \"#utility.yul\":4094:4183   */\n    tag_167:\n        /* \"#utility.yul\":4130:4137   */\n      0x00\n        /* \"#utility.yul\":4170:4176   */\n      0xffff\n        /* \"#utility.yul\":4163:4168   */\n      dup3\n        /* \"#utility.yul\":4159:4177   */\n      and\n        /* \"#utility.yul\":4148:4177   */\n      swap1\n      pop\n        /* \"#utility.yul\":4094:4183   */\n      swap2\n      swap1\n      pop\n      jump\t// out\n        /* \"#utility.yul\":4189:4304   */\n    tag_168:\n        /* \"#utility.yul\":4274:4297   */\n      tag_252\n        /* \"#utility.yul\":4291:4296   */\n      dup2\n        /* \"#utility.yul\":4274:4297   */\n      tag_167\n      jump\t// in\n    tag_252:\n        /* \"#utility.yul\":4269:4272   */\n      dup3\n        /* \"#utility.yul\":4262:4298   */\n      mstore\n        /* \"#utility.yul\":4189:4304   */\n      pop\n      pop\n      jump\t// out\n        /* \"#utility.yul\":4310:4403   */\n    tag_169:\n        /* \"#utility.yul\":4346:4353   */\n      0x00\n        /* \"#utility.yul\":4386:4396   */\n      0xffffffff\n        /* \"#utility.yul\":4379:4384   */\n      dup3\n        /* \"#utility.yul\":4375:4397   */\n      and\n        /* \"#utility.yul\":4364:4397   */\n      swap1\n      pop\n        /* \"#utility.yul\":4310:4403   */\n      swap2\n      swap1\n      pop\n      jump\t// out\n        /* \"#utility.yul\":4409:4524   */\n    tag_170:\n        /* \"#utility.yul\":4494:4517   */\n      tag_255\n        /* \"#utility.yul\":4511:4516   */\n      dup2\n        /* \"#utility.yul\":4494:4517   */\n      tag_169\n      jump\t// in\n    tag_255:\n        /* \"#utility.yul\":4489:4492   */\n      dup3\n        /* \"#utility.yul\":4482:4518   */\n      mstore\n        /* \"#utility.yul\":4409:4524   */\n      pop\n      pop\n      jump\t// out\n        /* \"#utility.yul\":4530:4627   */\n    tag_171:\n        /* \"#utility.yul\":4566:4573   */\n      0x00\n        /* \"#utility.yul\":4606:4620   */\n      0xffffffffffff\n        /* \"#utility.yul\":4599:4604   */\n      dup3\n        /* \"#utility.yul\":4595:4621   */\n      and\n        /* \"#utility.yul\":4584:4621   */\n      swap1\n      pop\n        /* \"#utility.yul\":4530:4627   */\n      swap2\n      swap1\n      pop\n      jump\t// out\n        /* \"#utility.yul\":4633:4748   */\n    tag_172:\n        /* \"#utility.yul\":4718:4741   */\n      tag_258\n        /* \"#utility.yul\":4735:4740   */\n      dup2\n        /* \"#utility.yul\":4718:4741   */\n      tag_171\n      jump\t// in\n    tag_258:\n        /* \"#utility.yul\":4713:4716   */\n      dup3\n        /* \"#utility.yul\":4706:4742   */\n      mstore\n        /* \"#utility.yul\":4633:4748   */\n      pop\n      pop\n      jump\t// out\n        /* \"#utility.yul\":4754:5291   */\n    tag_50:\n        /* \"#utility.yul\":4923:4927   */\n      0x00\n        /* \"#utility.yul\":4961:4964   */\n      0x80\n        /* \"#utility.yul\":4950:4959   */\n      dup3\n        /* \"#utility.yul\":4946:4965   */\n      add\n        /* \"#utility.yul\":4938:4965   */\n      swap1\n      pop\n        /* \"#utility.yul\":4975:5044   */\n      tag_260\n        /* \"#utility.yul\":5041:5042   */\n      0x00\n        /* \"#utility.yul\":5030:5039   */\n      dup4\n        /* \"#utility.yul\":5026:5043   */\n      add\n        /* \"#utility.yul\":5017:5023   */\n      dup8\n        /* \"#utility.yul\":4975:5044   */\n      tag_168\n      jump\t// in\n    tag_260:\n        /* \"#utility.yul\":5054:5124   */\n      tag_261\n        /* \"#utility.yul\":5120:5122   */\n      0x20\n        /* \"#utility.yul\":5109:5118   */\n      dup4\n        /* \"#utility.yul\":5105:5123   */\n      add\n        /* \"#utility.yul\":5096:5102   */\n      dup7\n        /* \"#utility.yul\":5054:5124   */\n      tag_170\n      jump\t// in\n    tag_261:\n        /* \"#utility.yul\":5134:5204   */\n      tag_262\n        /* \"#utility.yul\":5200:5202   */\n      0x40\n        /* \"#utility.yul\":5189:5198   */\n      dup4\n        /* \"#utility.yul\":5185:5203   */\n      add\n        /* \"#utility.yul\":5176:5182   */\n      dup6\n        /* \"#utility.yul\":5134:5204   */\n      tag_172\n      jump\t// in\n    tag_262:\n        /* \"#utility.yul\":5214:5284   */\n      tag_263\n        /* \"#utility.yul\":5280:5282   */\n      0x60\n        /* \"#utility.yul\":5269:5278   */\n      dup4\n        /* \"#utility.yul\":5265:5283   */\n      add\n        /* \"#utility.yul\":5256:5262   */\n      dup5\n        /* \"#utility.yul\":5214:5284   */\n      tag_172\n      jump\t// in\n    tag_263:\n        /* \"#utility.yul\":4754:5291   */\n      swap6\n      swap5\n      pop\n      pop\n      pop\n      pop\n      pop\n      jump\t// out\n        /* \"#utility.yul\":5297:5396   */\n    tag_173:\n        /* \"#utility.yul\":5349:5355   */\n      0x00\n        /* \"#utility.yul\":5383:5388   */\n      dup2\n        /* \"#utility.yul\":5377:5389   */\n      mload\n        /* \"#utility.yul\":5367:5389   */\n      swap1\n      pop\n        /* \"#utility.yul\":5297:5396   */\n      swap2\n      swap1\n      pop\n      jump\t// out\n        /* \"#utility.yul\":5402:5571   */\n    tag_174:\n        /* \"#utility.yul\":5486:5497   */\n      0x00\n        /* \"#utility.yul\":5520:5526   */\n      dup3\n        /* \"#utility.yul\":5515:5518   */\n      dup3\n        /* \"#utility.yul\":5508:5527   */\n      mstore\n        /* \"#utility.yul\":5560:5564   */\n      0x20\n        /* \"#utility.yul\":5555:5558   */\n      dup3\n        /* \"#utility.yul\":5551:5565   */\n      add\n        /* \"#utility.yul\":5536:5565   */\n      swap1\n      pop\n        /* \"#utility.yul\":5402:5571   */\n      swap3\n      swap2\n      pop\n      pop\n      jump\t// out\n        /* \"#utility.yul\":5577:5823   */\n    tag_175:\n        /* \"#utility.yul\":5658:5659   */\n      0x00\n        /* \"#utility.yul\":5668:5781   */\n    tag_267:\n        /* \"#utility.yul\":5682:5688   */\n      dup4\n        /* \"#utility.yul\":5679:5680   */\n      dup2\n        /* \"#utility.yul\":5676:5689   */\n      lt\n        /* \"#utility.yul\":5668:5781   */\n      iszero\n      tag_269\n      jumpi\n        /* \"#utility.yul\":5767:5768   */\n      dup1\n        /* \"#utility.yul\":5762:5765   */\n      dup3\n        /* \"#utility.yul\":5758:5769   */\n      add\n        /* \"#utility.yul\":5752:5770   */\n      mload\n        /* \"#utility.yul\":5748:5749   */\n      dup2\n        /* \"#utility.yul\":5743:5746   */\n      dup5\n        /* \"#utility.yul\":5739:5750   */\n      add\n        /* \"#utility.yul\":5732:5771   */\n      mstore\n        /* \"#utility.yul\":5704:5706   */\n      0x20\n        /* \"#utility.yul\":5701:5702   */\n      dup2\n        /* \"#utility.yul\":5697:5707   */\n      add\n        /* \"#utility.yul\":5692:5707   */\n      swap1\n      pop\n        /* \"#utility.yul\":5668:5781   */\n      jump(tag_267)\n    tag_269:\n        /* \"#utility.yul\":5815:5816   */\n      0x00\n        /* \"#utility.yul\":5806:5812   */\n      dup5\n        /* \"#utility.yul\":5801:5804   */\n      dup5\n        /* \"#utility.yul\":5797:5813   */\n      add\n        /* \"#utility.yul\":5790:5817   */\n      mstore\n        /* \"#utility.yul\":5639:5823   */\n      pop\n        /* \"#utility.yul\":5577:5823   */\n      pop\n      pop\n      pop\n      jump\t// out\n        /* \"#utility.yul\":5829:5931   */\n    tag_176:\n        /* \"#utility.yul\":5870:5876   */\n      0x00\n        /* \"#utility.yul\":5921:5923   */\n      0x1f\n        /* \"#utility.yul\":5917:5924   */\n      not\n        /* \"#utility.yul\":5912:5914   */\n      0x1f\n        /* \"#utility.yul\":5905:5910   */\n      dup4\n        /* \"#utility.yul\":5901:5915   */\n      add\n        /* \"#utility.yul\":5897:5925   */\n      and\n        /* \"#utility.yul\":5887:5925   */\n      swap1\n      pop\n        /* \"#utility.yul\":5829:5931   */\n      swap2\n      swap1\n      pop\n      jump\t// out\n        /* \"#utility.yul\":5937:6314   */\n    tag_177:\n        /* \"#utility.yul\":6025:6028   */\n      0x00\n        /* \"#utility.yul\":6053:6092   */\n      tag_272\n        /* \"#utility.yul\":6086:6091   */\n      dup3\n        /* \"#utility.yul\":6053:6092   */\n      tag_173\n      jump\t// in\n    tag_272:\n        /* \"#utility.yul\":6108:6179   */\n      tag_273\n        /* \"#utility.yul\":6172:6178   */\n      dup2\n        /* \"#utility.yul\":6167:6170   */\n      dup6\n        /* \"#utility.yul\":6108:6179   */\n      tag_174\n      jump\t// in\n    tag_273:\n        /* \"#utility.yul\":6101:6179   */\n      swap4\n      pop\n        /* \"#utility.yul\":6188:6253   */\n      tag_274\n        /* \"#utility.yul\":6246:6252   */\n      dup2\n        /* \"#utility.yul\":6241:6244   */\n      dup6\n        /* \"#utility.yul\":6234:6238   */\n      0x20\n        /* \"#utility.yul\":6227:6232   */\n      dup7\n        /* \"#utility.yul\":6223:6239   */\n      add\n        /* \"#utility.yul\":6188:6253   */\n      tag_175\n      jump\t// in\n    tag_274:\n        /* \"#utility.yul\":6278:6307   */\n      tag_275\n        /* \"#utility.yul\":6300:6306   */\n      dup2\n        /* \"#utility.yul\":6278:6307   */\n      tag_176\n      jump\t// in\n    tag_275:\n        /* \"#utility.yul\":6273:6276   */\n      dup5\n        /* \"#utility.yul\":6269:6308   */\n      add\n        /* \"#utility.yul\":6262:6308   */\n      swap2\n      pop\n        /* \"#utility.yul\":6029:6314   */\n      pop\n        /* \"#utility.yul\":5937:6314   */\n      swap3\n      swap2\n      pop\n      pop\n      jump\t// out\n        /* \"#utility.yul\":6320:7055   */\n    tag_54:\n        /* \"#utility.yul\":6537:6541   */\n      0x00\n        /* \"#utility.yul\":6575:6578   */\n      0x80\n        /* \"#utility.yul\":6564:6573   */\n      dup3\n        /* \"#utility.yul\":6560:6579   */\n      add\n        /* \"#utility.yul\":6552:6579   */\n      swap1\n      pop\n        /* \"#utility.yul\":6625:6634   */\n      dup2\n        /* \"#utility.yul\":6619:6623   */\n      dup2\n        /* \"#utility.yul\":6615:6635   */\n      sub\n        /* \"#utility.yul\":6611:6612   */\n      0x00\n        /* \"#utility.yul\":6600:6609   */\n      dup4\n        /* \"#utility.yul\":6596:6613   */\n      add\n        /* \"#utility.yul\":6589:6636   */\n      mstore\n        /* \"#utility.yul\":6653:6731   */\n      tag_277\n        /* \"#utility.yul\":6726:6730   */\n      dup2\n        /* \"#utility.yul\":6717:6723   */\n      dup8\n        /* \"#utility.yul\":6653:6731   */\n      tag_177\n      jump\t// in\n    tag_277:\n        /* \"#utility.yul\":6645:6731   */\n      swap1\n      pop\n        /* \"#utility.yul\":6778:6787   */\n      dup2\n        /* \"#utility.yul\":6772:6776   */\n      dup2\n        /* \"#utility.yul\":6768:6788   */\n      sub\n        /* \"#utility.yul\":6763:6765   */\n      0x20\n        /* \"#utility.yul\":6752:6761   */\n      dup4\n        /* \"#utility.yul\":6748:6766   */\n      add\n        /* \"#utility.yul\":6741:6789   */\n      mstore\n        /* \"#utility.yul\":6806:6884   */\n      tag_278\n        /* \"#utility.yul\":6879:6883   */\n      dup2\n        /* \"#utility.yul\":6870:6876   */\n      dup7\n        /* \"#utility.yul\":6806:6884   */\n      tag_177\n      jump\t// in\n    tag_278:\n        /* \"#utility.yul\":6798:6884   */\n      swap1\n      pop\n        /* \"#utility.yul\":6894:6966   */\n      tag_279\n        /* \"#utility.yul\":6962:6964   */\n      0x40\n        /* \"#utility.yul\":6951:6960   */\n      dup4\n        /* \"#utility.yul\":6947:6965   */\n      add\n        /* \"#utility.yul\":6938:6944   */\n      dup6\n        /* \"#utility.yul\":6894:6966   */\n      tag_158\n      jump\t// in\n    tag_279:\n        /* \"#utility.yul\":6976:7048   */\n      tag_280\n        /* \"#utility.yul\":7044:7046   */\n      0x60\n        /* \"#utility.yul\":7033:7042   */\n      dup4\n        /* \"#utility.yul\":7029:7047   */\n      add\n        /* \"#utility.yul\":7020:7026   */\n      dup5\n        /* \"#utility.yul\":6976:7048   */\n      tag_162\n      jump\t// in\n    tag_280:\n        /* \"#utility.yul\":6320:7055   */\n      swap6\n      swap5\n      pop\n      pop\n      pop\n      pop\n      pop\n      jump\t// out\n        /* \"#utility.yul\":7061:7283   */\n    tag_58:\n        /* \"#utility.yul\":7154:7158   */\n      0x00\n        /* \"#utility.yul\":7192:7194   */\n      0x20\n        /* \"#utility.yul\":7181:7190   */\n      dup3\n        /* \"#utility.yul\":7177:7195   */\n      add\n        /* \"#utility.yul\":7169:7195   */\n      swap1\n      pop\n        /* \"#utility.yul\":7205:7276   */\n      tag_282\n        /* \"#utility.yul\":7273:7274   */\n      0x00\n        /* \"#utility.yul\":7262:7271   */\n      dup4\n        /* \"#utility.yul\":7258:7275   */\n      add\n        /* \"#utility.yul\":7249:7255   */\n      dup5\n        /* \"#utility.yul\":7205:7276   */\n      tag_159\n      jump\t// in\n    tag_282:\n        /* \"#utility.yul\":7061:7283   */\n      swap3\n      swap2\n      pop\n      pop\n      jump\t// out\n        /* \"#utility.yul\":7289:7511   */\n    tag_62:\n        /* \"#utility.yul\":7382:7386   */\n      0x00\n        /* \"#utility.yul\":7420:7422   */\n      0x20\n        /* \"#utility.yul\":7409:7418   */\n      dup3\n        /* \"#utility.yul\":7405:7423   */\n      add\n        /* \"#utility.yul\":7397:7423   */\n      swap1\n      pop\n        /* \"#utility.yul\":7433:7504   */\n      tag_284\n        /* \"#utility.yul\":7501:7502   */\n      0x00\n        /* \"#utility.yul\":7490:7499   */\n      dup4\n        /* \"#utility.yul\":7486:7503   */\n      add\n        /* \"#utility.yul\":7477:7483   */\n      dup5\n        /* \"#utility.yul\":7433:7504   */\n      tag_158\n      jump\t// in\n    tag_284:\n        /* \"#utility.yul\":7289:7511   */\n      swap3\n      swap2\n      pop\n      pop\n      jump\t// out\n        /* \"#utility.yul\":7517:7615   */\n    tag_178:\n        /* \"#utility.yul\":7568:7574   */\n      0x00\n        /* \"#utility.yul\":7602:7607   */\n      dup2\n        /* \"#utility.yul\":7596:7608   */\n      mload\n        /* \"#utility.yul\":7586:7608   */\n      swap1\n      pop\n        /* \"#utility.yul\":7517:7615   */\n      swap2\n      swap1\n      pop\n      jump\t// out\n        /* \"#utility.yul\":7621:7789   */\n    tag_179:\n        /* \"#utility.yul\":7704:7715   */\n      0x00\n        /* \"#utility.yul\":7738:7744   */\n      dup3\n        /* \"#utility.yul\":7733:7736   */\n      dup3\n        /* \"#utility.yul\":7726:7745   */\n      mstore\n        /* \"#utility.yul\":7778:7782   */\n      0x20\n        /* \"#utility.yul\":7773:7776   */\n      dup3\n        /* \"#utility.yul\":7769:7783   */\n      add\n        /* \"#utility.yul\":7754:7783   */\n      swap1\n      pop\n        /* \"#utility.yul\":7621:7789   */\n      swap3\n      swap2\n      pop\n      pop\n      jump\t// out\n        /* \"#utility.yul\":7795:8168   */\n    tag_180:\n        /* \"#utility.yul\":7881:7884   */\n      0x00\n        /* \"#utility.yul\":7909:7947   */\n      tag_288\n        /* \"#utility.yul\":7941:7946   */\n      dup3\n        /* \"#utility.yul\":7909:7947   */\n      tag_178\n      jump\t// in\n    tag_288:\n        /* \"#utility.yul\":7963:8033   */\n      tag_289\n        /* \"#utility.yul\":8026:8032   */\n      dup2\n        /* \"#utility.yul\":8021:8024   */\n      dup6\n        /* \"#utility.yul\":7963:8033   */\n      tag_179\n      jump\t// in\n    tag_289:\n        /* \"#utility.yul\":7956:8033   */\n      swap4\n      pop\n        /* \"#utility.yul\":8042:8107   */\n      tag_290\n        /* \"#utility.yul\":8100:8106   */\n      dup2\n        /* \"#utility.yul\":8095:8098   */\n      dup6\n        /* \"#utility.yul\":8088:8092   */\n      0x20\n        /* \"#utility.yul\":8081:8086   */\n      dup7\n        /* \"#utility.yul\":8077:8093   */\n      add\n        /* \"#utility.yul\":8042:8107   */\n      tag_175\n      jump\t// in\n    tag_290:\n        /* \"#utility.yul\":8132:8161   */\n      tag_291\n        /* \"#utility.yul\":8154:8160   */\n      dup2\n        /* \"#utility.yul\":8132:8161   */\n      tag_176\n      jump\t// in\n    tag_291:\n        /* \"#utility.yul\":8127:8130   */\n      dup5\n        /* \"#utility.yul\":8123:8162   */\n      add\n        /* \"#utility.yul\":8116:8162   */\n      swap2\n      pop\n        /* \"#utility.yul\":7885:8168   */\n      pop\n        /* \"#utility.yul\":7795:8168   */\n      swap3\n      swap2\n      pop\n      pop\n      jump\t// out\n        /* \"#utility.yul\":8174:8483   */\n    tag_69:\n        /* \"#utility.yul\":8285:8289   */\n      0x00\n        /* \"#utility.yul\":8323:8325   */\n      0x20\n        /* \"#utility.yul\":8312:8321   */\n      dup3\n        /* \"#utility.yul\":8308:8326   */\n      add\n        /* \"#utility.yul\":8300:8326   */\n      swap1\n      pop\n        /* \"#utility.yul\":8372:8381   */\n      dup2\n        /* \"#utility.yul\":8366:8370   */\n      dup2\n        /* \"#utility.yul\":8362:8382   */\n      sub\n        /* \"#utility.yul\":8358:8359   */\n      0x00\n        /* \"#utility.yul\":8347:8356   */\n      dup4\n        /* \"#utility.yul\":8343:8360   */\n      add\n        /* \"#utility.yul\":8336:8383   */\n      mstore\n        /* \"#utility.yul\":8400:8476   */\n      tag_293\n        /* \"#utility.yul\":8471:8475   */\n      dup2\n        /* \"#utility.yul\":8462:8468   */\n      dup5\n        /* \"#utility.yul\":8400:8476   */\n      tag_180\n      jump\t// in\n    tag_293:\n        /* \"#utility.yul\":8392:8476   */\n      swap1\n      pop\n        /* \"#utility.yul\":8174:8483   */\n      swap3\n      swap2\n      pop\n      pop\n      jump\t// out\n        /* \"#utility.yul\":8489:8659   */\n    tag_181:\n        /* \"#utility.yul\":8629:8651   */\n      0x486173206e6f20726967687420746f20766f7465000000000000000000000000\n        /* \"#utility.yul\":8625:8626   */\n      0x00\n        /* \"#utility.yul\":8617:8623   */\n      dup3\n        /* \"#utility.yul\":8613:8627   */\n      add\n        /* \"#utility.yul\":8606:8652   */\n      mstore\n        /* \"#utility.yul\":8489:8659   */\n      pop\n      jump\t// out\n        /* \"#utility.yul\":8665:9031   */\n    tag_182:\n        /* \"#utility.yul\":8807:8810   */\n      0x00\n        /* \"#utility.yul\":8828:8895   */\n      tag_296\n        /* \"#utility.yul\":8892:8894   */\n      0x14\n        /* \"#utility.yul\":8887:8890   */\n      dup4\n        /* \"#utility.yul\":8828:8895   */\n      tag_174\n      jump\t// in\n    tag_296:\n        /* \"#utility.yul\":8821:8895   */\n      swap2\n      pop\n        /* \"#utility.yul\":8904:8997   */\n      tag_297\n        /* \"#utility.yul\":8993:8996   */\n      dup3\n        /* \"#utility.yul\":8904:8997   */\n      tag_181\n      jump\t// in\n    tag_297:\n        /* \"#utility.yul\":9022:9024   */\n      0x20\n        /* \"#utility.yul\":9017:9020   */\n      dup3\n        /* \"#utility.yul\":9013:9025   */\n      add\n        /* \"#utility.yul\":9006:9025   */\n      swap1\n      pop\n        /* \"#utility.yul\":8665:9031   */\n      swap2\n      swap1\n      pop\n      jump\t// out\n        /* \"#utility.yul\":9037:9456   */\n    tag_73:\n        /* \"#utility.yul\":9203:9207   */\n      0x00\n        /* \"#utility.yul\":9241:9243   */\n      0x20\n        /* \"#utility.yul\":9230:9239   */\n      dup3\n        /* \"#utility.yul\":9226:9244   */\n      add\n        /* \"#utility.yul\":9218:9244   */\n      swap1\n      pop\n        /* \"#utility.yul\":9290:9299   */\n      dup2\n        /* \"#utility.yul\":9284:9288   */\n      dup2\n        /* \"#utility.yul\":9280:9300   */\n      sub\n        /* \"#utility.yul\":9276:9277   */\n      0x00\n        /* \"#utility.yul\":9265:9274   */\n      dup4\n        /* \"#utility.yul\":9261:9278   */\n      add\n        /* \"#utility.yul\":9254:9301   */\n      mstore\n        /* \"#utility.yul\":9318:9449   */\n      tag_299\n        /* \"#utility.yul\":9444:9448   */\n      dup2\n        /* \"#utility.yul\":9318:9449   */\n      tag_182\n      jump\t// in\n    tag_299:\n        /* \"#utility.yul\":9310:9449   */\n      swap1\n      pop\n        /* \"#utility.yul\":9037:9456   */\n      swap2\n      swap1\n      pop\n      jump\t// out\n        /* \"#utility.yul\":9462:9626   */\n    tag_183:\n        /* \"#utility.yul\":9602:9618   */\n      0x416c726561647920766f7465642e000000000000000000000000000000000000\n        /* \"#utility.yul\":9598:9599   */\n      0x00\n        /* \"#utility.yul\":9590:9596   */\n      dup3\n        /* \"#utility.yul\":9586:9600   */\n      add\n        /* \"#utility.yul\":9579:9619   */\n      mstore\n        /* \"#utility.yul\":9462:9626   */\n      pop\n      jump\t// out\n        /* \"#utility.yul\":9632:9998   */\n    tag_184:\n        /* \"#utility.yul\":9774:9777   */\n      0x00\n        /* \"#utility.yul\":9795:9862   */\n      tag_302\n        /* \"#utility.yul\":9859:9861   */\n      0x0e\n        /* \"#utility.yul\":9854:9857   */\n      dup4\n        /* \"#utility.yul\":9795:9862   */\n      tag_174\n      jump\t// in\n    tag_302:\n        /* \"#utility.yul\":9788:9862   */\n      swap2\n      pop\n        /* \"#utility.yul\":9871:9964   */\n      tag_303\n        /* \"#utility.yul\":9960:9963   */\n      dup3\n        /* \"#utility.yul\":9871:9964   */\n      tag_183\n      jump\t// in\n    tag_303:\n        /* \"#utility.yul\":9989:9991   */\n      0x20\n        /* \"#utility.yul\":9984:9987   */\n      dup3\n        /* \"#utility.yul\":9980:9992   */\n      add\n        /* \"#utility.yul\":9973:9992   */\n      swap1\n      pop\n        /* \"#utility.yul\":9632:9998   */\n      swap2\n      swap1\n      pop\n      jump\t// out\n        /* \"#utility.yul\":10004:10423   */\n    tag_76:\n        /* \"#utility.yul\":10170:10174   */\n      0x00\n        /* \"#utility.yul\":10208:10210   */\n      0x20\n        /* \"#utility.yul\":10197:10206   */\n      dup3\n        /* \"#utility.yul\":10193:10211   */\n      add\n        /* \"#utility.yul\":10185:10211   */\n      swap1\n      pop\n        /* \"#utility.yul\":10257:10266   */\n      dup2\n        /* \"#utility.yul\":10251:10255   */\n      dup2\n        /* \"#utility.yul\":10247:10267   */\n      sub\n        /* \"#utility.yul\":10243:10244   */\n      0x00\n        /* \"#utility.yul\":10232:10241   */\n      dup4\n        /* \"#utility.yul\":10228:10245   */\n      add\n        /* \"#utility.yul\":10221:10268   */\n      mstore\n        /* \"#utility.yul\":10285:10416   */\n      tag_305\n        /* \"#utility.yul\":10411:10415   */\n      dup2\n        /* \"#utility.yul\":10285:10416   */\n      tag_184\n      jump\t// in\n    tag_305:\n        /* \"#utility.yul\":10277:10416   */\n      swap1\n      pop\n        /* \"#utility.yul\":10004:10423   */\n      swap2\n      swap1\n      pop\n      jump\t// out\n        /* \"#utility.yul\":10429:10609   */\n    tag_79:\n        /* \"#utility.yul\":10477:10554   */\n      0x4e487b7100000000000000000000000000000000000000000000000000000000\n        /* \"#utility.yul\":10474:10475   */\n      0x00\n        /* \"#utility.yul\":10467:10555   */\n      mstore\n        /* \"#utility.yul\":10574:10578   */\n      0x32\n        /* \"#utility.yul\":10571:10572   */\n      0x04\n        /* \"#utility.yul\":10564:10579   */\n      mstore\n        /* \"#utility.yul\":10598:10602   */\n      0x24\n        /* \"#utility.yul\":10595:10596   */\n      0x00\n        /* \"#utility.yul\":10588:10603   */\n      revert\n        /* \"#utility.yul\":10615:10795   */\n    tag_185:\n        /* \"#utility.yul\":10663:10740   */\n      0x4e487b7100000000000000000000000000000000000000000000000000000000\n        /* \"#utility.yul\":10660:10661   */\n      0x00\n        /* \"#utility.yul\":10653:10741   */\n      mstore\n        /* \"#utility.yul\":10760:10764   */\n      0x11\n        /* \"#utility.yul\":10757:10758   */\n      0x04\n        /* \"#utility.yul\":10750:10765   */\n      mstore\n        /* \"#utility.yul\":10784:10788   */\n      0x24\n        /* \"#utility.yul\":10781:10782   */\n      0x00\n        /* \"#utility.yul\":10774:10789   */\n      revert\n        /* \"#utility.yul\":10801:10992   */\n    tag_82:\n        /* \"#utility.yul\":10841:10844   */\n      0x00\n        /* \"#utility.yul\":10860:10880   */\n      tag_309\n        /* \"#utility.yul\":10878:10879   */\n      dup3\n        /* \"#utility.yul\":10860:10880   */\n      tag_154\n      jump\t// in\n    tag_309:\n        /* \"#utility.yul\":10855:10880   */\n      swap2\n      pop\n        /* \"#utility.yul\":10894:10914   */\n      tag_310\n        /* \"#utility.yul\":10912:10913   */\n      dup4\n        /* \"#utility.yul\":10894:10914   */\n      tag_154\n      jump\t// in\n    tag_310:\n        /* \"#utility.yul\":10889:10914   */\n      swap3\n      pop\n        /* \"#utility.yul\":10937:10938   */\n      dup3\n        /* \"#utility.yul\":10934:10935   */\n      dup3\n        /* \"#utility.yul\":10930:10939   */\n      add\n        /* \"#utility.yul\":10923:10939   */\n      swap1\n      pop\n        /* \"#utility.yul\":10958:10961   */\n      dup1\n        /* \"#utility.yul\":10955:10956   */\n      dup3\n        /* \"#utility.yul\":10952:10962   */\n      gt\n        /* \"#utility.yul\":10949:10985   */\n      iszero\n      tag_311\n      jumpi\n        /* \"#utility.yul\":10965:10983   */\n      tag_312\n      tag_185\n      jump\t// in\n    tag_312:\n        /* \"#utility.yul\":10949:10985   */\n    tag_311:\n        /* \"#utility.yul\":10801:10992   */\n      swap3\n      swap2\n      pop\n      pop\n      jump\t// out\n        /* \"#utility.yul\":10998:11166   */\n    tag_186:\n        /* \"#utility.yul\":11138:11158   */\n      0x596f7520616c726561647920766f7465642e0000000000000000000000000000\n        /* \"#utility.yul\":11134:11135   */\n      0x00\n        /* \"#utility.yul\":11126:11132   */\n      dup3\n        /* \"#utility.yul\":11122:11136   */\n      add\n        /* \"#utility.yul\":11115:11159   */\n      mstore\n        /* \"#utility.yul\":10998:11166   */\n      pop\n      jump\t// out\n        /* \"#utility.yul\":11172:11538   */\n    tag_187:\n        /* \"#utility.yul\":11314:11317   */\n      0x00\n        /* \"#utility.yul\":11335:11402   */\n      tag_315\n        /* \"#utility.yul\":11399:11401   */\n      0x12\n        /* \"#utility.yul\":11394:11397   */\n      dup4\n        /* \"#utility.yul\":11335:11402   */\n      tag_174\n      jump\t// in\n    tag_315:\n        /* \"#utility.yul\":11328:11402   */\n      swap2\n      pop\n        /* \"#utility.yul\":11411:11504   */\n      tag_316\n        /* \"#utility.yul\":11500:11503   */\n      dup3\n        /* \"#utility.yul\":11411:11504   */\n      tag_186\n      jump\t// in\n    tag_316:\n        /* \"#utility.yul\":11529:11531   */\n      0x20\n        /* \"#utility.yul\":11524:11527   */\n      dup3\n        /* \"#utility.yul\":11520:11532   */\n      add\n        /* \"#utility.yul\":11513:11532   */\n      swap1\n      pop\n        /* \"#utility.yul\":11172:11538   */\n      swap2\n      swap1\n      pop\n      jump\t// out\n        /* \"#utility.yul\":11544:11963   */\n    tag_89:\n        /* \"#utility.yul\":11710:11714   */\n      0x00\n        /* \"#utility.yul\":11748:11750   */\n      0x20\n        /* \"#utility.yul\":11737:11746   */\n      dup3\n        /* \"#utility.yul\":11733:11751   */\n      add\n        /* \"#utility.yul\":11725:11751   */\n      swap1\n      pop\n        /* \"#utility.yul\":11797:11806   */\n      dup2\n        /* \"#utility.yul\":11791:11795   */\n      dup2\n        /* \"#utility.yul\":11787:11807   */\n      sub\n        /* \"#utility.yul\":11783:11784   */\n      0x00\n        /* \"#utility.yul\":11772:11781   */\n      dup4\n        /* \"#utility.yul\":11768:11785   */\n      add\n        /* \"#utility.yul\":11761:11808   */\n      mstore\n        /* \"#utility.yul\":11825:11956   */\n      tag_318\n        /* \"#utility.yul\":11951:11955   */\n      dup2\n        /* \"#utility.yul\":11825:11956   */\n      tag_187\n      jump\t// in\n    tag_318:\n        /* \"#utility.yul\":11817:11956   */\n      swap1\n      pop\n        /* \"#utility.yul\":11544:11963   */\n      swap2\n      swap1\n      pop\n      jump\t// out\n        /* \"#utility.yul\":11969:12149   */\n    tag_188:\n        /* \"#utility.yul\":12109:12141   */\n      0x53656c662d64656c65676174696f6e20697320646973616c6c6f7765642e0000\n        /* \"#utility.yul\":12105:12106   */\n      0x00\n        /* \"#utility.yul\":12097:12103   */\n      dup3\n        /* \"#utility.yul\":12093:12107   */\n      add\n        /* \"#utility.yul\":12086:12142   */\n      mstore\n        /* \"#utility.yul\":11969:12149   */\n      pop\n      jump\t// out\n        /* \"#utility.yul\":12155:12521   */\n    tag_189:\n        /* \"#utility.yul\":12297:12300   */\n      0x00\n        /* \"#utility.yul\":12318:12385   */\n      tag_321\n        /* \"#utility.yul\":12382:12384   */\n      0x1e\n        /* \"#utility.yul\":12377:12380   */\n      dup4\n        /* \"#utility.yul\":12318:12385   */\n      tag_174\n      jump\t// in\n    tag_321:\n        /* \"#utility.yul\":12311:12385   */\n      swap2\n      pop\n        /* \"#utility.yul\":12394:12487   */\n      tag_322\n        /* \"#utility.yul\":12483:12486   */\n      dup3\n        /* \"#utility.yul\":12394:12487   */\n      tag_188\n      jump\t// in\n    tag_322:\n        /* \"#utility.yul\":12512:12514   */\n      0x20\n        /* \"#utility.yul\":12507:12510   */\n      dup3\n        /* \"#utility.yul\":12503:12515   */\n      add\n        /* \"#utility.yul\":12496:12515   */\n      swap1\n      pop\n        /* \"#utility.yul\":12155:12521   */\n      swap2\n      swap1\n      pop\n      jump\t// out\n        /* \"#utility.yul\":12527:12946   */\n    tag_92:\n        /* \"#utility.yul\":12693:12697   */\n      0x00\n        /* \"#utility.yul\":12731:12733   */\n      0x20\n        /* \"#utility.yul\":12720:12729   */\n      dup3\n        /* \"#utility.yul\":12716:12734   */\n      add\n        /* \"#utility.yul\":12708:12734   */\n      swap1\n      pop\n        /* \"#utility.yul\":12780:12789   */\n      dup2\n        /* \"#utility.yul\":12774:12778   */\n      dup2\n        /* \"#utility.yul\":12770:12790   */\n      sub\n        /* \"#utility.yul\":12766:12767   */\n      0x00\n        /* \"#utility.yul\":12755:12764   */\n      dup4\n        /* \"#utility.yul\":12751:12768   */\n      add\n        /* \"#utility.yul\":12744:12791   */\n      mstore\n        /* \"#utility.yul\":12808:12939   */\n      tag_324\n        /* \"#utility.yul\":12934:12938   */\n      dup2\n        /* \"#utility.yul\":12808:12939   */\n      tag_189\n      jump\t// in\n    tag_324:\n        /* \"#utility.yul\":12800:12939   */\n      swap1\n      pop\n        /* \"#utility.yul\":12527:12946   */\n      swap2\n      swap1\n      pop\n      jump\t// out\n        /* \"#utility.yul\":12952:13127   */\n    tag_190:\n        /* \"#utility.yul\":13092:13119   */\n      0x466f756e64206c6f6f7020696e2064656c65676174696f6e2e00000000000000\n        /* \"#utility.yul\":13088:13089   */\n      0x00\n        /* \"#utility.yul\":13080:13086   */\n      dup3\n        /* \"#utility.yul\":13076:13090   */\n      add\n        /* \"#utility.yul\":13069:13120   */\n      mstore\n        /* \"#utility.yul\":12952:13127   */\n      pop\n      jump\t// out\n        /* \"#utility.yul\":13133:13499   */\n    tag_191:\n        /* \"#utility.yul\":13275:13278   */\n      0x00\n        /* \"#utility.yul\":13296:13363   */\n      tag_327\n        /* \"#utility.yul\":13360:13362   */\n      0x19\n        /* \"#utility.yul\":13355:13358   */\n      dup4\n        /* \"#utility.yul\":13296:13363   */\n      tag_174\n      jump\t// in\n    tag_327:\n        /* \"#utility.yul\":13289:13363   */\n      swap2\n      pop\n        /* \"#utility.yul\":13372:13465   */\n      tag_328\n        /* \"#utility.yul\":13461:13464   */\n      dup3\n        /* \"#utility.yul\":13372:13465   */\n      tag_190\n      jump\t// in\n    tag_328:\n        /* \"#utility.yul\":13490:13492   */\n      0x20\n        /* \"#utility.yul\":13485:13488   */\n      dup3\n        /* \"#utility.yul\":13481:13493   */\n      add\n        /* \"#utility.yul\":13474:13493   */\n      swap1\n      pop\n        /* \"#utility.yul\":13133:13499   */\n      swap2\n      swap1\n      pop\n      jump\t// out\n        /* \"#utility.yul\":13505:13924   */\n    tag_97:\n        /* \"#utility.yul\":13671:13675   */\n      0x00\n        /* \"#utility.yul\":13709:13711   */\n      0x20\n        /* \"#utility.yul\":13698:13707   */\n      dup3\n        /* \"#utility.yul\":13694:13712   */\n      add\n        /* \"#utility.yul\":13686:13712   */\n      swap1\n      pop\n        /* \"#utility.yul\":13758:13767   */\n      dup2\n        /* \"#utility.yul\":13752:13756   */\n      dup2\n        /* \"#utility.yul\":13748:13768   */\n      sub\n        /* \"#utility.yul\":13744:13745   */\n      0x00\n        /* \"#utility.yul\":13733:13742   */\n      dup4\n        /* \"#utility.yul\":13729:13746   */\n      add\n        /* \"#utility.yul\":13722:13769   */\n      mstore\n        /* \"#utility.yul\":13786:13917   */\n      tag_330\n        /* \"#utility.yul\":13912:13916   */\n      dup2\n        /* \"#utility.yul\":13786:13917   */\n      tag_191\n      jump\t// in\n    tag_330:\n        /* \"#utility.yul\":13778:13917   */\n      swap1\n      pop\n        /* \"#utility.yul\":13505:13924   */\n      swap2\n      swap1\n      pop\n      jump\t// out\n        /* \"#utility.yul\":13930:14157   */\n    tag_192:\n        /* \"#utility.yul\":14070:14104   */\n      0x4f6e6c79206368616972706572736f6e2063616e206769766520726967687420\n        /* \"#utility.yul\":14066:14067   */\n      0x00\n        /* \"#utility.yul\":14058:14064   */\n      dup3\n        /* \"#utility.yul\":14054:14068   */\n      add\n        /* \"#utility.yul\":14047:14105   */\n      mstore\n        /* \"#utility.yul\":14139:14149   */\n      0x746f20766f74652e000000000000000000000000000000000000000000000000\n        /* \"#utility.yul\":14134:14136   */\n      0x20\n        /* \"#utility.yul\":14126:14132   */\n      dup3\n        /* \"#utility.yul\":14122:14137   */\n      add\n        /* \"#utility.yul\":14115:14150   */\n      mstore\n        /* \"#utility.yul\":13930:14157   */\n      pop\n      jump\t// out\n        /* \"#utility.yul\":14163:14529   */\n    tag_193:\n        /* \"#utility.yul\":14305:14308   */\n      0x00\n        /* \"#utility.yul\":14326:14393   */\n      tag_333\n        /* \"#utility.yul\":14390:14392   */\n      0x28\n        /* \"#utility.yul\":14385:14388   */\n      dup4\n        /* \"#utility.yul\":14326:14393   */\n      tag_174\n      jump\t// in\n    tag_333:\n        /* \"#utility.yul\":14319:14393   */\n      swap2\n      pop\n        /* \"#utility.yul\":14402:14495   */\n      tag_334\n        /* \"#utility.yul\":14491:14494   */\n      dup3\n        /* \"#utility.yul\":14402:14495   */\n      tag_192\n      jump\t// in\n    tag_334:\n        /* \"#utility.yul\":14520:14522   */\n      0x40\n        /* \"#utility.yul\":14515:14518   */\n      dup3\n        /* \"#utility.yul\":14511:14523   */\n      add\n        /* \"#utility.yul\":14504:14523   */\n      swap1\n      pop\n        /* \"#utility.yul\":14163:14529   */\n      swap2\n      swap1\n      pop\n      jump\t// out\n        /* \"#utility.yul\":14535:14954   */\n    tag_108:\n        /* \"#utility.yul\":14701:14705   */\n      0x00\n        /* \"#utility.yul\":14739:14741   */\n      0x20\n        /* \"#utility.yul\":14728:14737   */\n      dup3\n        /* \"#utility.yul\":14724:14742   */\n      add\n        /* \"#utility.yul\":14716:14742   */\n      swap1\n      pop\n        /* \"#utility.yul\":14788:14797   */\n      dup2\n        /* \"#utility.yul\":14782:14786   */\n      dup2\n        /* \"#utility.yul\":14778:14798   */\n      sub\n        /* \"#utility.yul\":14774:14775   */\n      0x00\n        /* \"#utility.yul\":14763:14772   */\n      dup4\n        /* \"#utility.yul\":14759:14776   */\n      add\n        /* \"#utility.yul\":14752:14799   */\n      mstore\n        /* \"#utility.yul\":14816:14947   */\n      tag_336\n        /* \"#utility.yul\":14942:14946   */\n      dup2\n        /* \"#utility.yul\":14816:14947   */\n      tag_193\n      jump\t// in\n    tag_336:\n        /* \"#utility.yul\":14808:14947   */\n      swap1\n      pop\n        /* \"#utility.yul\":14535:14954   */\n      swap2\n      swap1\n      pop\n      jump\t// out\n        /* \"#utility.yul\":14960:15134   */\n    tag_194:\n        /* \"#utility.yul\":15100:15126   */\n      0x54686520766f74657220616c726561647920766f7465642e0000000000000000\n        /* \"#utility.yul\":15096:15097   */\n      0x00\n        /* \"#utility.yul\":15088:15094   */\n      dup3\n        /* \"#utility.yul\":15084:15098   */\n      add\n        /* \"#utility.yul\":15077:15127   */\n      mstore\n        /* \"#utility.yul\":14960:15134   */\n      pop\n      jump\t// out\n        /* \"#utility.yul\":15140:15506   */\n    tag_195:\n        /* \"#utility.yul\":15282:15285   */\n      0x00\n        /* \"#utility.yul\":15303:15370   */\n      tag_339\n        /* \"#utility.yul\":15367:15369   */\n      0x18\n        /* \"#utility.yul\":15362:15365   */\n      dup4\n        /* \"#utility.yul\":15303:15370   */\n      tag_174\n      jump\t// in\n    tag_339:\n        /* \"#utility.yul\":15296:15370   */\n      swap2\n      pop\n        /* \"#utility.yul\":15379:15472   */\n      tag_340\n        /* \"#utility.yul\":15468:15471   */\n      dup3\n        /* \"#utility.yul\":15379:15472   */\n      tag_194\n      jump\t// in\n    tag_340:\n        /* \"#utility.yul\":15497:15499   */\n      0x20\n        /* \"#utility.yul\":15492:15495   */\n      dup3\n        /* \"#utility.yul\":15488:15500   */\n      add\n        /* \"#utility.yul\":15481:15500   */\n      swap1\n      pop\n        /* \"#utility.yul\":15140:15506   */\n      swap2\n      swap1\n      pop\n      jump\t// out\n        /* \"#utility.yul\":15512:15931   */\n    tag_111:\n        /* \"#utility.yul\":15678:15682   */\n      0x00\n        /* \"#utility.yul\":15716:15718   */\n      0x20\n        /* \"#utility.yul\":15705:15714   */\n      dup3\n        /* \"#utility.yul\":15701:15719   */\n      add\n        /* \"#utility.yul\":15693:15719   */\n      swap1\n      pop\n        /* \"#utility.yul\":15765:15774   */\n      dup2\n        /* \"#utility.yul\":15759:15763   */\n      dup2\n        /* \"#utility.yul\":15755:15775   */\n      sub\n        /* \"#utility.yul\":15751:15752   */\n      0x00\n        /* \"#utility.yul\":15740:15749   */\n      dup4\n        /* \"#utility.yul\":15736:15753   */\n      add\n        /* \"#utility.yul\":15729:15776   */\n      mstore\n        /* \"#utility.yul\":15793:15924   */\n      tag_342\n        /* \"#utility.yul\":15919:15923   */\n      dup2\n        /* \"#utility.yul\":15793:15924   */\n      tag_195\n      jump\t// in\n    tag_342:\n        /* \"#utility.yul\":15785:15924   */\n      swap1\n      pop\n        /* \"#utility.yul\":15512:15931   */\n      swap2\n      swap1\n      pop\n      jump\t// out\n        /* \"#utility.yul\":15937:16117   */\n    tag_196:\n        /* \"#utility.yul\":15985:16062   */\n      0x4e487b7100000000000000000000000000000000000000000000000000000000\n        /* \"#utility.yul\":15982:15983   */\n      0x00\n        /* \"#utility.yul\":15975:16063   */\n      mstore\n        /* \"#utility.yul\":16082:16086   */\n      0x22\n        /* \"#utility.yul\":16079:16080   */\n      0x04\n        /* \"#utility.yul\":16072:16087   */\n      mstore\n        /* \"#utility.yul\":16106:16110   */\n      0x24\n        /* \"#utility.yul\":16103:16104   */\n      0x00\n        /* \"#utility.yul\":16096:16111   */\n      revert\n        /* \"#utility.yul\":16123:16443   */\n    tag_116:\n        /* \"#utility.yul\":16167:16173   */\n      0x00\n        /* \"#utility.yul\":16204:16205   */\n      0x02\n        /* \"#utility.yul\":16198:16202   */\n      dup3\n        /* \"#utility.yul\":16194:16206   */\n      div\n        /* \"#utility.yul\":16184:16206   */\n      swap1\n      pop\n        /* \"#utility.yul\":16251:16252   */\n      0x01\n        /* \"#utility.yul\":16245:16249   */\n      dup3\n        /* \"#utility.yul\":16241:16253   */\n      and\n        /* \"#utility.yul\":16272:16290   */\n      dup1\n        /* \"#utility.yul\":16262:16343   */\n      tag_345\n      jumpi\n        /* \"#utility.yul\":16328:16332   */\n      0x7f\n        /* \"#utility.yul\":16320:16326   */\n      dup3\n        /* \"#utility.yul\":16316:16333   */\n      and\n        /* \"#utility.yul\":16306:16333   */\n      swap2\n      pop\n        /* \"#utility.yul\":16262:16343   */\n    tag_345:\n        /* \"#utility.yul\":16390:16392   */\n      0x20\n        /* \"#utility.yul\":16382:16388   */\n      dup3\n        /* \"#utility.yul\":16379:16393   */\n      lt\n        /* \"#utility.yul\":16359:16377   */\n      dup2\n        /* \"#utility.yul\":16356:16394   */\n      sub\n        /* \"#utility.yul\":16353:16437   */\n      tag_346\n      jumpi\n        /* \"#utility.yul\":16409:16427   */\n      tag_347\n      tag_196\n      jump\t// in\n    tag_347:\n        /* \"#utility.yul\":16353:16437   */\n    tag_346:\n        /* \"#utility.yul\":16174:16443   */\n      pop\n        /* \"#utility.yul\":16123:16443   */\n      swap2\n      swap1\n      pop\n      jump\t// out\n        /* \"#utility.yul\":16449:16682   */\n    tag_138:\n        /* \"#utility.yul\":16488:16491   */\n      0x00\n        /* \"#utility.yul\":16511:16535   */\n      tag_349\n        /* \"#utility.yul\":16529:16534   */\n      dup3\n        /* \"#utility.yul\":16511:16535   */\n      tag_154\n      jump\t// in\n    tag_349:\n        /* \"#utility.yul\":16502:16535   */\n      swap2\n      pop\n        /* \"#utility.yul\":16557:16623   */\n      0xffffffffffffffffffffffffffffffffffffffffffffffffffffffffffffffff\n        /* \"#utility.yul\":16550:16555   */\n      dup3\n        /* \"#utility.yul\":16547:16624   */\n      sub\n        /* \"#utility.yul\":16544:16647   */\n      tag_350\n      jumpi\n        /* \"#utility.yul\":16627:16645   */\n      tag_351\n      tag_185\n      jump\t// in\n    tag_351:\n        /* \"#utility.yul\":16544:16647   */\n    tag_350:\n        /* \"#utility.yul\":16674:16675   */\n      0x01\n        /* \"#utility.yul\":16667:16672   */\n      dup3\n        /* \"#utility.yul\":16663:16676   */\n      add\n        /* \"#utility.yul\":16656:16676   */\n      swap1\n      pop\n        /* \"#utility.yul\":16449:16682   */\n      swap2\n      swap1\n      pop\n      jump\t// out\n        /* \"#utility.yul\":16688:17328   */\n    tag_147:\n        /* \"#utility.yul\":16883:16887   */\n      0x00\n        /* \"#utility.yul\":16921:16924   */\n      0x80\n        /* \"#utility.yul\":16910:16919   */\n      dup3\n        /* \"#utility.yul\":16906:16925   */\n      add\n        /* \"#utility.yul\":16898:16925   */\n      swap1\n      pop\n        /* \"#utility.yul\":16935:17006   */\n      tag_353\n        /* \"#utility.yul\":17003:17004   */\n      0x00\n        /* \"#utility.yul\":16992:17001   */\n      dup4\n        /* \"#utility.yul\":16988:17005   */\n      add\n        /* \"#utility.yul\":16979:16985   */\n      dup8\n        /* \"#utility.yul\":16935:17006   */\n      tag_162\n      jump\t// in\n    tag_353:\n        /* \"#utility.yul\":17016:17088   */\n      tag_354\n        /* \"#utility.yul\":17084:17086   */\n      0x20\n        /* \"#utility.yul\":17073:17082   */\n      dup4\n        /* \"#utility.yul\":17069:17087   */\n      add\n        /* \"#utility.yul\":17060:17066   */\n      dup7\n        /* \"#utility.yul\":17016:17088   */\n      tag_159\n      jump\t// in\n    tag_354:\n        /* \"#utility.yul\":17135:17144   */\n      dup2\n        /* \"#utility.yul\":17129:17133   */\n      dup2\n        /* \"#utility.yul\":17125:17145   */\n      sub\n        /* \"#utility.yul\":17120:17122   */\n      0x40\n        /* \"#utility.yul\":17109:17118   */\n      dup4\n        /* \"#utility.yul\":17105:17123   */\n      add\n        /* \"#utility.yul\":17098:17146   */\n      mstore\n        /* \"#utility.yul\":17163:17239   */\n      tag_355\n        /* \"#utility.yul\":17234:17238   */\n      dup2\n        /* \"#utility.yul\":17225:17231   */\n      dup6\n        /* \"#utility.yul\":17163:17239   */\n      tag_180\n      jump\t// in\n    tag_355:\n        /* \"#utility.yul\":17155:17239   */\n      swap1\n      pop\n        /* \"#utility.yul\":17249:17321   */\n      tag_356\n        /* \"#utility.yul\":17317:17319   */\n      0x60\n        /* \"#utility.yul\":17306:17315   */\n      dup4\n        /* \"#utility.yul\":17302:17320   */\n      add\n        /* \"#utility.yul\":17293:17299   */\n      dup5\n        /* \"#utility.yul\":17249:17321   */\n      tag_158\n      jump\t// in\n    tag_356:\n        /* \"#utility.yul\":16688:17328   */\n      swap6\n      swap5\n      pop\n      pop\n      pop\n      pop\n      pop\n      jump\t// out\n        /* \"#utility.yul\":17334:17482   */\n    tag_197:\n        /* \"#utility.yul\":17436:17447   */\n      0x00\n        /* \"#utility.yul\":17473:17476   */\n      dup2\n        /* \"#utility.yul\":17458:17476   */\n      swap1\n      pop\n        /* \"#utility.yul\":17334:17482   */\n      swap3\n      swap2\n      pop\n      pop\n      jump\t// out\n        /* \"#utility.yul\":17488:17629   */\n    tag_198:\n        /* \"#utility.yul\":17537:17541   */\n      0x00\n        /* \"#utility.yul\":17560:17563   */\n      dup2\n        /* \"#utility.yul\":17552:17563   */\n      swap1\n      pop\n        /* \"#utility.yul\":17583:17586   */\n      dup2\n        /* \"#utility.yul\":17580:17581   */\n      0x00\n        /* \"#utility.yul\":17573:17587   */\n      mstore\n        /* \"#utility.yul\":17617:17621   */\n      0x20\n        /* \"#utility.yul\":17614:17615   */\n      0x00\n        /* \"#utility.yul\":17604:17622   */\n      keccak256\n        /* \"#utility.yul\":17596:17622   */\n      swap1\n      pop\n        /* \"#utility.yul\":17488:17629   */\n      swap2\n      swap1\n      pop\n      jump\t// out\n        /* \"#utility.yul\":17659:18533   */\n    tag_199:\n        /* \"#utility.yul\":17762:17765   */\n      0x00\n        /* \"#utility.yul\":17799:17804   */\n      dup2\n        /* \"#utility.yul\":17793:17805   */\n      sload\n        /* \"#utility.yul\":17828:17864   */\n      tag_360\n        /* \"#utility.yul\":17854:17863   */\n      dup2\n        /* \"#utility.yul\":17828:17864   */\n      tag_116\n      jump\t// in\n    tag_360:\n        /* \"#utility.yul\":17880:17969   */\n      tag_361\n        /* \"#utility.yul\":17962:17968   */\n      dup2\n        /* \"#utility.yul\":17957:17960   */\n      dup7\n        /* \"#utility.yul\":17880:17969   */\n      tag_197\n      jump\t// in\n    tag_361:\n        /* \"#utility.yul\":17873:17969   */\n      swap5\n      pop\n        /* \"#utility.yul\":18000:18001   */\n      0x01\n        /* \"#utility.yul\":17989:17998   */\n      dup3\n        /* \"#utility.yul\":17985:18002   */\n      and\n        /* \"#utility.yul\":18016:18017   */\n      0x00\n        /* \"#utility.yul\":18011:18177   */\n      dup2\n      eq\n      tag_363\n      jumpi\n        /* \"#utility.yul\":18191:18192   */\n      0x01\n        /* \"#utility.yul\":18186:18527   */\n      dup2\n      eq\n      tag_364\n      jumpi\n        /* \"#utility.yul\":17978:18527   */\n      jump(tag_362)\n        /* \"#utility.yul\":18011:18177   */\n    tag_363:\n        /* \"#utility.yul\":18095:18099   */\n      0xff\n        /* \"#utility.yul\":18091:18100   */\n      not\n        /* \"#utility.yul\":18080:18089   */\n      dup4\n        /* \"#utility.yul\":18076:18101   */\n      and\n        /* \"#utility.yul\":18071:18074   */\n      dup7\n        /* \"#utility.yul\":18064:18102   */\n      mstore\n        /* \"#utility.yul\":18157:18163   */\n      dup2\n        /* \"#utility.yul\":18150:18164   */\n      iszero\n        /* \"#utility.yul\":18143:18165   */\n      iszero\n        /* \"#utility.yul\":18135:18141   */\n      dup3\n        /* \"#utility.yul\":18131:18166   */\n      mul\n        /* \"#utility.yul\":18126:18129   */\n      dup7\n        /* \"#utility.yul\":18122:18167   */\n      add\n        /* \"#utility.yul\":18115:18167   */\n      swap4\n      pop\n        /* \"#utility.yul\":18011:18177   */\n      jump(tag_362)\n        /* \"#utility.yul\":18186:18527   */\n    tag_364:\n        /* \"#utility.yul\":18253:18291   */\n      tag_365\n        /* \"#utility.yul\":18285:18290   */\n      dup6\n        /* \"#utility.yul\":18253:18291   */\n      tag_198\n      jump\t// in\n    tag_365:\n        /* \"#utility.yul\":18313:18314   */\n      0x00\n        /* \"#utility.yul\":18327:18481   */\n    tag_366:\n        /* \"#utility.yul\":18341:18347   */\n      dup4\n        /* \"#utility.yul\":18338:18339   */\n      dup2\n        /* \"#utility.yul\":18335:18348   */\n      lt\n        /* \"#utility.yul\":18327:18481   */\n      iszero\n      tag_368\n      jumpi\n        /* \"#utility.yul\":18415:18422   */\n      dup2\n        /* \"#utility.yul\":18409:18423   */\n      sload\n        /* \"#utility.yul\":18405:18406   */\n      dup2\n        /* \"#utility.yul\":18400:18403   */\n      dup10\n        /* \"#utility.yul\":18396:18407   */\n      add\n        /* \"#utility.yul\":18389:18424   */\n      mstore\n        /* \"#utility.yul\":18465:18466   */\n      0x01\n        /* \"#utility.yul\":18456:18463   */\n      dup3\n        /* \"#utility.yul\":18452:18467   */\n      add\n        /* \"#utility.yul\":18441:18467   */\n      swap2\n      pop\n        /* \"#utility.yul\":18363:18367   */\n      0x20\n        /* \"#utility.yul\":18360:18361   */\n      dup2\n        /* \"#utility.yul\":18356:18368   */\n      add\n        /* \"#utility.yul\":18351:18368   */\n      swap1\n      pop\n        /* \"#utility.yul\":18327:18481   */\n      jump(tag_366)\n    tag_368:\n        /* \"#utility.yul\":18510:18516   */\n      dup4\n        /* \"#utility.yul\":18505:18508   */\n      dup9\n        /* \"#utility.yul\":18501:18517   */\n      add\n        /* \"#utility.yul\":18494:18517   */\n      swap6\n      pop\n        /* \"#utility.yul\":18193:18527   */\n      pop\n      pop\n        /* \"#utility.yul\":17978:18527   */\n    tag_362:\n      pop\n        /* \"#utility.yul\":17766:18533   */\n      pop\n      pop\n        /* \"#utility.yul\":17659:18533   */\n      swap3\n      swap2\n      pop\n      pop\n      jump\t// out\n        /* \"#utility.yul\":18539:18808   */\n    tag_150:\n        /* \"#utility.yul\":18668:18671   */\n      0x00\n        /* \"#utility.yul\":18690:18782   */\n      tag_370\n        /* \"#utility.yul\":18778:18781   */\n      dup3\n        /* \"#utility.yul\":18769:18775   */\n      dup5\n        /* \"#utility.yul\":18690:18782   */\n      tag_199\n      jump\t// in\n    tag_370:\n        /* \"#utility.yul\":18683:18782   */\n      swap2\n      pop\n        /* \"#utility.yul\":18799:18802   */\n      dup2\n        /* \"#utility.yul\":18792:18802   */\n      swap1\n      pop\n        /* \"#utility.yul\":18539:18808   */\n      swap3\n      swap2\n      pop\n      pop\n      jump\t// out\n\n    auxdata: 0xa2646970667358221220b0f7063d86f79da30388ff99f384de22b368cf73a7503809aff320bab102158964736f6c63430008140033\n}\n",
				"bytecode": {
					"linkReferences": {},
					"object": "608060405234801562000010575f80fd5b50604051620022b6380380620022b683398181016040528101906200003691906200078d565b835f015160015f0190816200004c919062000a68565b508260405160200162000060919062000b9c565b60405160208183030381529060405280519060200120600160020181905550836060015160016003015f6101000a81548173ffffffffffffffffffffffffffffffffffffffff021916908373ffffffffffffffffffffffffffffffffffffffff1602179055503360056001015f6101000a81548173ffffffffffffffffffffffffffffffffffffffff021916908373ffffffffffffffffffffffffffffffffffffffff16021790555060095f60056001015f9054906101000a900473ffffffffffffffffffffffffffffffffffffffff1673ffffffffffffffffffffffffffffffffffffffff1673ffffffffffffffffffffffffffffffffffffffff1681526020019081526020015f205f9054906101000a900473ffffffffffffffffffffffffffffffffffffffff1660055f015f6101000a81548173ffffffffffffffffffffffffffffffffffffffff021916908373ffffffffffffffffffffffffffffffffffffffff1602179055505f73ffffffffffffffffffffffffffffffffffffffff1660055f015f9054906101000a900473ffffffffffffffffffffffffffffffffffffffff1673ffffffffffffffffffffffffffffffffffffffff1603620002855760056001015f9054906101000a900473ffffffffffffffffffffffffffffffffffffffff166040517fdefe7bd30000000000000000000000000000000000000000000000000000000081526004016200027c919062000bcf565b60405180910390fd5b81600560020181905550805f01515f80015f6101000a81548161ffff021916908361ffff16021790555080602001515f800160026101000a81548163ffffffff021916908363ffffffff16021790555080604001515f800160066101000a81548165ffffffffffff021916908365ffffffffffff16021790555080606001515f8001600c6101000a81548165ffffffffffff021916908365ffffffffffff1602179055505050505062000bea565b5f604051905090565b5f80fd5b5f80fd5b5f80fd5b5f601f19601f8301169050919050565b7f4e487b71000000000000000000000000000000000000000000000000000000005f52604160045260245ffd5b620003908262000348565b810181811067ffffffffffffffff82111715620003b257620003b162000358565b5b80604052505050565b5f620003c662000333565b9050620003d4828262000385565b919050565b5f80fd5b5f80fd5b5f80fd5b5f67ffffffffffffffff82111562000402576200040162000358565b5b6200040d8262000348565b9050602081019050919050565b5f5b83811015620004395780820151818401526020810190506200041c565b5f8484015250505050565b5f6200045a6200045484620003e5565b620003bb565b905082815260208101848484011115620004795762000478620003e1565b5b620004868482856200041a565b509392505050565b5f82601f830112620004a557620004a4620003dd565b5b8151620004b784826020860162000444565b91505092915050565b5f819050919050565b620004d481620004c0565b8114620004df575f80fd5b50565b5f81519050620004f281620004c9565b92915050565b5f73ffffffffffffffffffffffffffffffffffffffff82169050919050565b5f6200052382620004f8565b9050919050565b620005358162000517565b811462000540575f80fd5b50565b5f8151905062000553816200052a565b92915050565b5f6080828403121562000571576200057062000344565b5b6200057d6080620003bb565b90505f82015167ffffffffffffffff8111156200059f576200059e620003d9565b5b620005ad848285016200048e565b5f83015250602082015167ffffffffffffffff811115620005d357620005d2620003d9565b5b620005e1848285016200048e565b6020830152506040620005f784828501620004e2565b60408301525060606200060d8482850162000543565b60608301525092915050565b5f819050919050565b6200062d8162000619565b811462000638575f80fd5b50565b5f815190506200064b8162000622565b92915050565b5f61ffff82169050919050565b620006698162000651565b811462000674575f80fd5b50565b5f8151905062000687816200065e565b92915050565b5f63ffffffff82169050919050565b620006a7816200068d565b8114620006b2575f80fd5b50565b5f81519050620006c5816200069c565b92915050565b5f65ffffffffffff82169050919050565b620006e781620006cb565b8114620006f2575f80fd5b50565b5f815190506200070581620006dc565b92915050565b5f6080828403121562000723576200072262000344565b5b6200072f6080620003bb565b90505f620007408482850162000677565b5f8301525060206200075584828501620006b5565b60208301525060406200076b84828501620006f5565b60408301525060606200078184828501620006f5565b60608301525092915050565b5f805f8060e08587031215620007a857620007a76200033c565b5b5f85015167ffffffffffffffff811115620007c857620007c762000340565b5b620007d68782880162000559565b945050602085015167ffffffffffffffff811115620007fa57620007f962000340565b5b62000808878288016200048e565b93505060406200081b878288016200063b565b92505060606200082e878288016200070b565b91505092959194509250565b5f81519050919050565b7f4e487b71000000000000000000000000000000000000000000000000000000005f52602260045260245ffd5b5f60028204905060018216806200088957607f821691505b6020821081036200089f576200089e62000844565b5b50919050565b5f819050815f5260205f209050919050565b5f6020601f8301049050919050565b5f82821b905092915050565b5f60088302620009037fffffffffffffffffffffffffffffffffffffffffffffffffffffffffffffffff82620008c6565b6200090f8683620008c6565b95508019841693508086168417925050509392505050565b5f819050919050565b5f620009506200094a620009448462000619565b62000927565b62000619565b9050919050565b5f819050919050565b6200096b8362000930565b620009836200097a8262000957565b848454620008d2565b825550505050565b5f90565b620009996200098b565b620009a681848462000960565b505050565b5b81811015620009cd57620009c15f826200098f565b600181019050620009ac565b5050565b601f82111562000a1c57620009e681620008a5565b620009f184620008b7565b8101602085101562000a01578190505b62000a1962000a1085620008b7565b830182620009ab565b50505b505050565b5f82821c905092915050565b5f62000a3e5f198460080262000a21565b1980831691505092915050565b5f62000a58838362000a2d565b9150826002028217905092915050565b62000a73826200083a565b67ffffffffffffffff81111562000a8f5762000a8e62000358565b5b62000a9b825462000871565b62000aa8828285620009d1565b5f60209050601f83116001811462000ade575f841562000ac9578287015190505b62000ad5858262000a4b565b86555062000b44565b601f19841662000aee86620008a5565b5f5b8281101562000b175784890151825560018201915060208501945060208101905062000af0565b8683101562000b37578489015162000b33601f89168262000a2d565b8355505b6001600288020188555050505b505050505050565b5f82825260208201905092915050565b5f62000b68826200083a565b62000b74818562000b4c565b935062000b868185602086016200041a565b62000b918162000348565b840191505092915050565b5f6020820190508181035f83015262000bb6818462000b5c565b905092915050565b62000bc98162000517565b82525050565b5f60208201905062000be45f83018462000bbe565b92915050565b6116be8062000bf85f395ff3fe608060405234801561000f575f80fd5b50600436106100cd575f3560e01c8063a3ec138d1161008a578063d4564d1611610064578063d4564d1614610209578063e2ba53f014610227578063ec5bf07b14610245578063f8b1b08a14610263576100cd565b8063a3ec138d14610194578063b3a05246146101c7578063bc33c7d7146101e8576100cd565b80630121b93f146100d1578063013cf08b146100ed5780632e4176cf1461011e5780634731ca2b1461013c5780635c19a95c1461015c5780639e7b8d6114610178575b5f80fd5b6100eb60048036038101906100e69190610d89565b610281565b005b61010760048036038101906101029190610d89565b6103bc565b604051610115929190610ddb565b60405180910390f35b6101266103eb565b6040516101339190610e41565b60405180910390f35b610144610410565b60405161015393929190610e5a565b60405180910390f35b61017660048036038101906101719190610eb9565b61046d565b005b610192600480360381019061018d9190610eb9565b6107f2565b005b6101ae60048036038101906101a99190610eb9565b6109a0565b6040516101be9493929190610efe565b60405180910390f35b6101cf6109f8565b6040516101df9493929190610f9b565b60405180910390f35b6101f0610a5b565b6040516102009493929190611068565b60405180910390f35b610211610bb5565b60405161021e91906110b9565b60405180910390f35b61022f610c36565b60405161023c91906110d2565b60405180910390f35b61024d610c66565b60405161025a91906110b9565b60405180910390f35b61026b610ccf565b604051610278919061113d565b60405180910390f35b5f600a5f3373ffffffffffffffffffffffffffffffffffffffff1673ffffffffffffffffffffffffffffffffffffffff1681526020019081526020015f2090505f815f015403610306576040517f08c379a00000000000000000000000000000000000000000000000000000000081526004016102fd906111a7565b60405180910390fd5b806001015f9054906101000a900460ff1615610357576040517f08c379a000000000000000000000000000000000000000000000000000000000815260040161034e9061120f565b60405180910390fd5b6001816001015f6101000a81548160ff021916908315150217905550818160020181905550805f0154600b83815481106103945761039361122d565b5b905f5260205f2090600202016001015f8282546103b19190611287565b925050819055505050565b600b81815481106103cb575f80fd5b905f5260205f2090600202015f91509050805f0154908060010154905082565b60085f9054906101000a900473ffffffffffffffffffffffffffffffffffffffff1681565b5f805f60055f015f9054906101000a900473ffffffffffffffffffffffffffffffffffffffff1660056001015f9054906101000a900473ffffffffffffffffffffffffffffffffffffffff16600560020154925092509250909192565b5f600a5f3373ffffffffffffffffffffffffffffffffffffffff1673ffffffffffffffffffffffffffffffffffffffff1681526020019081526020015f209050806001015f9054906101000a900460ff16156104fe576040517f08c379a00000000000000000000000000000000000000000000000000000000081526004016104f590611304565b60405180910390fd5b3373ffffffffffffffffffffffffffffffffffffffff168273ffffffffffffffffffffffffffffffffffffffff160361056c576040517f08c379a00000000000000000000000000000000000000000000000000000000081526004016105639061136c565b60405180910390fd5b5b5f73ffffffffffffffffffffffffffffffffffffffff16600a5f8473ffffffffffffffffffffffffffffffffffffffff1673ffffffffffffffffffffffffffffffffffffffff1681526020019081526020015f2060010160019054906101000a900473ffffffffffffffffffffffffffffffffffffffff1673ffffffffffffffffffffffffffffffffffffffff16146106d657600a5f8373ffffffffffffffffffffffffffffffffffffffff1673ffffffffffffffffffffffffffffffffffffffff1681526020019081526020015f2060010160019054906101000a900473ffffffffffffffffffffffffffffffffffffffff1691503373ffffffffffffffffffffffffffffffffffffffff168273ffffffffffffffffffffffffffffffffffffffff16036106d1576040517f08c379a00000000000000000000000000000000000000000000000000000000081526004016106c8906113d4565b60405180910390fd5b61056d565b6001816001015f6101000a81548160ff021916908315150217905550818160010160016101000a81548173ffffffffffffffffffffffffffffffffffffffff021916908373ffffffffffffffffffffffffffffffffffffffff1602179055505f600a5f8473ffffffffffffffffffffffffffffffffffffffff1673ffffffffffffffffffffffffffffffffffffffff1681526020019081526020015f209050806001015f9054906101000a900460ff16156107d057815f0154600b8260020154815481106107a7576107a661122d565b5b905f5260205f2090600202016001015f8282546107c49190611287565b925050819055506107ed565b815f0154815f015f8282546107e59190611287565b925050819055505b505050565b60085f9054906101000a900473ffffffffffffffffffffffffffffffffffffffff1673ffffffffffffffffffffffffffffffffffffffff163373ffffffffffffffffffffffffffffffffffffffff1614610881576040517f08c379a000000000000000000000000000000000000000000000000000000000815260040161087890611462565b60405180910390fd5b600a5f8273ffffffffffffffffffffffffffffffffffffffff1673ffffffffffffffffffffffffffffffffffffffff1681526020019081526020015f206001015f9054906101000a900460ff161561090e576040517f08c379a0000000000000000000000000000000000000000000000000000000008152600401610905906114ca565b60405180910390fd5b5f600a5f8373ffffffffffffffffffffffffffffffffffffffff1673ffffffffffffffffffffffffffffffffffffffff1681526020019081526020015f205f015414610958575f80fd5b6001600a5f8373ffffffffffffffffffffffffffffffffffffffff1673ffffffffffffffffffffffffffffffffffffffff1681526020019081526020015f205f018190555050565b600a602052805f5260405f205f91509050805f015490806001015f9054906101000a900460ff16908060010160019054906101000a900473ffffffffffffffffffffffffffffffffffffffff16908060020154905084565b5f805f805f80015f9054906101000a900461ffff165f800160029054906101000a900463ffffffff165f800160069054906101000a900465ffffffffffff165f8001600c9054906101000a900465ffffffffffff16935093509350935090919293565b6060805f8060015f016001800160016002015460016003015f9054906101000a900473ffffffffffffffffffffffffffffffffffffffff16838054610a9f90611515565b80601f0160208091040260200160405190810160405280929190818152602001828054610acb90611515565b8015610b165780601f10610aed57610100808354040283529160200191610b16565b820191905f5260205f20905b815481529060010190602001808311610af957829003601f168201915b50505050509350828054610b2990611515565b80601f0160208091040260200160405190810160405280929190818152602001828054610b5590611515565b8015610ba05780601f10610b7757610100808354040283529160200191610ba0565b820191905f5260205f20905b815481529060010190602001808311610b8357829003601f168201915b50505050509250935093509350935090919293565b5f805f90505f5b600b80549050811015610c315781600b8281548110610bde57610bdd61122d565b5b905f5260205f209060020201600101541115610c1e57600b8181548110610c0857610c0761122d565b5b905f5260205f2090600202016001015491508092505b8080610c2990611545565b915050610bbc565b505090565b5f600b610c41610bb5565b81548110610c5257610c5161122d565b5b905f5260205f2090600202015f0154905090565b5f60055f015f9054906101000a900473ffffffffffffffffffffffffffffffffffffffff16600560020154610c99610ccf565b600160020154604051602001610cb2949392919061158c565b604051602081830303815290604052805190602001205f1c905090565b606060015f0160405160240160405160208183030381529060405290604051610cf89190611672565b60405180910390207bffffffffffffffffffffffffffffffffffffffffffffffffffffffff19166020820180517bffffffffffffffffffffffffffffffffffffffffffffffffffffffff8381831617835250505050905090565b5f80fd5b5f819050919050565b610d6881610d56565b8114610d72575f80fd5b50565b5f81359050610d8381610d5f565b92915050565b5f60208284031215610d9e57610d9d610d52565b5b5f610dab84828501610d75565b91505092915050565b5f819050919050565b610dc681610db4565b82525050565b610dd581610d56565b82525050565b5f604082019050610dee5f830185610dbd565b610dfb6020830184610dcc565b9392505050565b5f73ffffffffffffffffffffffffffffffffffffffff82169050919050565b5f610e2b82610e02565b9050919050565b610e3b81610e21565b82525050565b5f602082019050610e545f830184610e32565b92915050565b5f606082019050610e6d5f830186610e32565b610e7a6020830185610e32565b610e876040830184610dcc565b949350505050565b610e9881610e21565b8114610ea2575f80fd5b50565b5f81359050610eb381610e8f565b92915050565b5f60208284031215610ece57610ecd610d52565b5b5f610edb84828501610ea5565b91505092915050565b5f8115159050919050565b610ef881610ee4565b82525050565b5f608082019050610f115f830187610dcc565b610f1e6020830186610eef565b610f2b6040830185610e32565b610f386060830184610dcc565b95945050505050565b5f61ffff82169050919050565b610f5781610f41565b82525050565b5f63ffffffff82169050919050565b610f7581610f5d565b82525050565b5f65ffffffffffff82169050919050565b610f9581610f7b565b82525050565b5f608082019050610fae5f830187610f4e565b610fbb6020830186610f6c565b610fc86040830185610f8c565b610fd56060830184610f8c565b95945050505050565b5f81519050919050565b5f82825260208201905092915050565b5f5b83811015611015578082015181840152602081019050610ffa565b5f8484015250505050565b5f601f19601f8301169050919050565b5f61103a82610fde565b6110448185610fe8565b9350611054818560208601610ff8565b61105d81611020565b840191505092915050565b5f6080820190508181035f8301526110808187611030565b905081810360208301526110948186611030565b90506110a36040830185610dbd565b6110b06060830184610e32565b95945050505050565b5f6020820190506110cc5f830184610dcc565b92915050565b5f6020820190506110e55f830184610dbd565b92915050565b5f81519050919050565b5f82825260208201905092915050565b5f61110f826110eb565b61111981856110f5565b9350611129818560208601610ff8565b61113281611020565b840191505092915050565b5f6020820190508181035f8301526111558184611105565b905092915050565b7f486173206e6f20726967687420746f20766f74650000000000000000000000005f82015250565b5f611191601483610fe8565b915061119c8261115d565b602082019050919050565b5f6020820190508181035f8301526111be81611185565b9050919050565b7f416c726561647920766f7465642e0000000000000000000000000000000000005f82015250565b5f6111f9600e83610fe8565b9150611204826111c5565b602082019050919050565b5f6020820190508181035f830152611226816111ed565b9050919050565b7f4e487b71000000000000000000000000000000000000000000000000000000005f52603260045260245ffd5b7f4e487b71000000000000000000000000000000000000000000000000000000005f52601160045260245ffd5b5f61129182610d56565b915061129c83610d56565b92508282019050808211156112b4576112b361125a565b5b92915050565b7f596f7520616c726561647920766f7465642e00000000000000000000000000005f82015250565b5f6112ee601283610fe8565b91506112f9826112ba565b602082019050919050565b5f6020820190508181035f83015261131b816112e2565b9050919050565b7f53656c662d64656c65676174696f6e20697320646973616c6c6f7765642e00005f82015250565b5f611356601e83610fe8565b915061136182611322565b602082019050919050565b5f6020820190508181035f8301526113838161134a565b9050919050565b7f466f756e64206c6f6f7020696e2064656c65676174696f6e2e000000000000005f82015250565b5f6113be601983610fe8565b91506113c98261138a565b602082019050919050565b5f6020820190508181035f8301526113eb816113b2565b9050919050565b7f4f6e6c79206368616972706572736f6e2063616e2067697665207269676874205f8201527f746f20766f74652e000000000000000000000000000000000000000000000000602082015250565b5f61144c602883610fe8565b9150611457826113f2565b604082019050919050565b5f6020820190508181035f83015261147981611440565b9050919050565b7f54686520766f74657220616c726561647920766f7465642e00000000000000005f82015250565b5f6114b4601883610fe8565b91506114bf82611480565b602082019050919050565b5f6020820190508181035f8301526114e1816114a8565b9050919050565b7f4e487b71000000000000000000000000000000000000000000000000000000005f52602260045260245ffd5b5f600282049050600182168061152c57607f821691505b60208210810361153f5761153e6114e8565b5b50919050565b5f61154f82610d56565b91507fffffffffffffffffffffffffffffffffffffffffffffffffffffffffffffffff82036115815761158061125a565b5b600182019050919050565b5f60808201905061159f5f830187610e32565b6115ac6020830186610dcc565b81810360408301526115be8185611105565b90506115cd6060830184610dbd565b95945050505050565b5f81905092915050565b5f819050815f5260205f209050919050565b5f81546115fe81611515565b61160881866115d6565b9450600182165f8114611622576001811461163757611669565b60ff1983168652811515820286019350611669565b611640856115e0565b5f5b8381101561166157815481890152600182019150602081019050611642565b838801955050505b50505092915050565b5f61167d82846115f2565b91508190509291505056fea2646970667358221220b0f7063d86f79da30388ff99f384de22b368cf73a7503809aff320bab102158964736f6c63430008140033",
					"opcodes": "PUSH1 0x80 PUSH1 0x40 MSTORE CALLVALUE DUP1 ISZERO PUSH3 0x10 JUMPI PUSH0 DUP1 REVERT JUMPDEST POP PUSH1 0x40 MLOAD PUSH3 0x22B6 CODESIZE SUB DUP1 PUSH3 0x22B6 DUP4 CODECOPY DUP2 DUP2 ADD PUSH1 0x40 MSTORE DUP2 ADD SWAP1 PUSH3 0x36 SWAP2 SWAP1 PUSH3 0x78D JUMP JUMPDEST DUP4 PUSH0 ADD MLOAD PUSH1 0x1 PUSH0 ADD SWAP1 DUP2 PUSH3 0x4C SWAP2 SWAP1 PUSH3 0xA68 JUMP JUMPDEST POP DUP3 PUSH1 0x40 MLOAD PUSH1 0x20 ADD PUSH3 0x60 SWAP2 SWAP1 PUSH3 0xB9C JUMP JUMPDEST PUSH1 0x40 MLOAD PUSH1 0x20 DUP2 DUP4 SUB SUB DUP2 MSTORE SWAP1 PUSH1 0x40 MSTORE DUP1 MLOAD SWAP1 PUSH1 0x20 ADD KECCAK256 PUSH1 0x1 PUSH1 0x2 ADD DUP2 SWAP1 SSTORE POP DUP4 PUSH1 0x60 ADD MLOAD PUSH1 0x1 PUSH1 0x3 ADD PUSH0 PUSH2 0x100 EXP DUP2 SLOAD DUP2 PUSH20 0xFFFFFFFFFFFFFFFFFFFFFFFFFFFFFFFFFFFFFFFF MUL NOT AND SWAP1 DUP4 PUSH20 0xFFFFFFFFFFFFFFFFFFFFFFFFFFFFFFFFFFFFFFFF AND MUL OR SWAP1 SSTORE POP CALLER PUSH1 0x5 PUSH1 0x1 ADD PUSH0 PUSH2 0x100 EXP DUP2 SLOAD DUP2 PUSH20 0xFFFFFFFFFFFFFFFFFFFFFFFFFFFFFFFFFFFFFFFF MUL NOT AND SWAP1 DUP4 PUSH20 0xFFFFFFFFFFFFFFFFFFFFFFFFFFFFFFFFFFFFFFFF AND MUL OR SWAP1 SSTORE POP PUSH1 0x9 PUSH0 PUSH1 0x5 PUSH1 0x1 ADD PUSH0 SWAP1 SLOAD SWAP1 PUSH2 0x100 EXP SWAP1 DIV PUSH20 0xFFFFFFFFFFFFFFFFFFFFFFFFFFFFFFFFFFFFFFFF AND PUSH20 0xFFFFFFFFFFFFFFFFFFFFFFFFFFFFFFFFFFFFFFFF AND PUSH20 0xFFFFFFFFFFFFFFFFFFFFFFFFFFFFFFFFFFFFFFFF AND DUP2 MSTORE PUSH1 0x20 ADD SWAP1 DUP2 MSTORE PUSH1 0x20 ADD PUSH0 KECCAK256 PUSH0 SWAP1 SLOAD SWAP1 PUSH2 0x100 EXP SWAP1 DIV PUSH20 0xFFFFFFFFFFFFFFFFFFFFFFFFFFFFFFFFFFFFFFFF AND PUSH1 0x5 PUSH0 ADD PUSH0 PUSH2 0x100 EXP DUP2 SLOAD DUP2 PUSH20 0xFFFFFFFFFFFFFFFFFFFFFFFFFFFFFFFFFFFFFFFF MUL NOT AND SWAP1 DUP4 PUSH20 0xFFFFFFFFFFFFFFFFFFFFFFFFFFFFFFFFFFFFFFFF AND MUL OR SWAP1 SSTORE POP PUSH0 PUSH20 0xFFFFFFFFFFFFFFFFFFFFFFFFFFFFFFFFFFFFFFFF AND PUSH1 0x5 PUSH0 ADD PUSH0 SWAP1 SLOAD SWAP1 PUSH2 0x100 EXP SWAP1 DIV PUSH20 0xFFFFFFFFFFFFFFFFFFFFFFFFFFFFFFFFFFFFFFFF AND PUSH20 0xFFFFFFFFFFFFFFFFFFFFFFFFFFFFFFFFFFFFFFFF AND SUB PUSH3 0x285 JUMPI PUSH1 0x5 PUSH1 0x1 ADD PUSH0 SWAP1 SLOAD SWAP1 PUSH2 0x100 EXP SWAP1 DIV PUSH20 0xFFFFFFFFFFFFFFFFFFFFFFFFFFFFFFFFFFFFFFFF AND PUSH1 0x40 MLOAD PUSH32 0xDEFE7BD300000000000000000000000000000000000000000000000000000000 DUP2 MSTORE PUSH1 0x4 ADD PUSH3 0x27C SWAP2 SWAP1 PUSH3 0xBCF JUMP JUMPDEST PUSH1 0x40 MLOAD DUP1 SWAP2 SUB SWAP1 REVERT JUMPDEST DUP2 PUSH1 0x5 PUSH1 0x2 ADD DUP2 SWAP1 SSTORE POP DUP1 PUSH0 ADD MLOAD PUSH0 DUP1 ADD PUSH0 PUSH2 0x100 EXP DUP2 SLOAD DUP2 PUSH2 0xFFFF MUL NOT AND SWAP1 DUP4 PUSH2 0xFFFF AND MUL OR SWAP1 SSTORE POP DUP1 PUSH1 0x20 ADD MLOAD PUSH0 DUP1 ADD PUSH1 0x2 PUSH2 0x100 EXP DUP2 SLOAD DUP2 PUSH4 0xFFFFFFFF MUL NOT AND SWAP1 DUP4 PUSH4 0xFFFFFFFF AND MUL OR SWAP1 SSTORE POP DUP1 PUSH1 0x40 ADD MLOAD PUSH0 DUP1 ADD PUSH1 0x6 PUSH2 0x100 EXP DUP2 SLOAD DUP2 PUSH6 0xFFFFFFFFFFFF MUL NOT AND SWAP1 DUP4 PUSH6 0xFFFFFFFFFFFF AND MUL OR SWAP1 SSTORE POP DUP1 PUSH1 0x60 ADD MLOAD PUSH0 DUP1 ADD PUSH1 0xC PUSH2 0x100 EXP DUP2 SLOAD DUP2 PUSH6 0xFFFFFFFFFFFF MUL NOT AND SWAP1 DUP4 PUSH6 0xFFFFFFFFFFFF AND MUL OR SWAP1 SSTORE POP POP POP POP POP PUSH3 0xBEA JUMP JUMPDEST PUSH0 PUSH1 0x40 MLOAD SWAP1 POP SWAP1 JUMP JUMPDEST PUSH0 DUP1 REVERT JUMPDEST PUSH0 DUP1 REVERT JUMPDEST PUSH0 DUP1 REVERT JUMPDEST PUSH0 PUSH1 0x1F NOT PUSH1 0x1F DUP4 ADD AND SWAP1 POP SWAP2 SWAP1 POP JUMP JUMPDEST PUSH32 0x4E487B7100000000000000000000000000000000000000000000000000000000 PUSH0 MSTORE PUSH1 0x41 PUSH1 0x4 MSTORE PUSH1 0x24 PUSH0 REVERT JUMPDEST PUSH3 0x390 DUP3 PUSH3 0x348 JUMP JUMPDEST DUP2 ADD DUP2 DUP2 LT PUSH8 0xFFFFFFFFFFFFFFFF DUP3 GT OR ISZERO PUSH3 0x3B2 JUMPI PUSH3 0x3B1 PUSH3 0x358 JUMP JUMPDEST JUMPDEST DUP1 PUSH1 0x40 MSTORE POP POP POP JUMP JUMPDEST PUSH0 PUSH3 0x3C6 PUSH3 0x333 JUMP JUMPDEST SWAP1 POP PUSH3 0x3D4 DUP3 DUP3 PUSH3 0x385 JUMP JUMPDEST SWAP2 SWAP1 POP JUMP JUMPDEST PUSH0 DUP1 REVERT JUMPDEST PUSH0 DUP1 REVERT JUMPDEST PUSH0 DUP1 REVERT JUMPDEST PUSH0 PUSH8 0xFFFFFFFFFFFFFFFF DUP3 GT ISZERO PUSH3 0x402 JUMPI PUSH3 0x401 PUSH3 0x358 JUMP JUMPDEST JUMPDEST PUSH3 0x40D DUP3 PUSH3 0x348 JUMP JUMPDEST SWAP1 POP PUSH1 0x20 DUP2 ADD SWAP1 POP SWAP2 SWAP1 POP JUMP JUMPDEST PUSH0 JUMPDEST DUP4 DUP2 LT ISZERO PUSH3 0x439 JUMPI DUP1 DUP3 ADD MLOAD DUP2 DUP5 ADD MSTORE PUSH1 0x20 DUP2 ADD SWAP1 POP PUSH3 0x41C JUMP JUMPDEST PUSH0 DUP5 DUP5 ADD MSTORE POP POP POP POP JUMP JUMPDEST PUSH0 PUSH3 0x45A PUSH3 0x454 DUP5 PUSH3 0x3E5 JUMP JUMPDEST PUSH3 0x3BB JUMP JUMPDEST SWAP1 POP DUP3 DUP2 MSTORE PUSH1 0x20 DUP2 ADD DUP5 DUP5 DUP5 ADD GT ISZERO PUSH3 0x479 JUMPI PUSH3 0x478 PUSH3 0x3E1 JUMP JUMPDEST JUMPDEST PUSH3 0x486 DUP5 DUP3 DUP6 PUSH3 0x41A JUMP JUMPDEST POP SWAP4 SWAP3 POP POP POP JUMP JUMPDEST PUSH0 DUP3 PUSH1 0x1F DUP4 ADD SLT PUSH3 0x4A5 JUMPI PUSH3 0x4A4 PUSH3 0x3DD JUMP JUMPDEST JUMPDEST DUP2 MLOAD PUSH3 0x4B7 DUP5 DUP3 PUSH1 0x20 DUP7 ADD PUSH3 0x444 JUMP JUMPDEST SWAP2 POP POP SWAP3 SWAP2 POP POP JUMP JUMPDEST PUSH0 DUP2 SWAP1 POP SWAP2 SWAP1 POP JUMP JUMPDEST PUSH3 0x4D4 DUP2 PUSH3 0x4C0 JUMP JUMPDEST DUP2 EQ PUSH3 0x4DF JUMPI PUSH0 DUP1 REVERT JUMPDEST POP JUMP JUMPDEST PUSH0 DUP2 MLOAD SWAP1 POP PUSH3 0x4F2 DUP2 PUSH3 0x4C9 JUMP JUMPDEST SWAP3 SWAP2 POP POP JUMP JUMPDEST PUSH0 PUSH20 0xFFFFFFFFFFFFFFFFFFFFFFFFFFFFFFFFFFFFFFFF DUP3 AND SWAP1 POP SWAP2 SWAP1 POP JUMP JUMPDEST PUSH0 PUSH3 0x523 DUP3 PUSH3 0x4F8 JUMP JUMPDEST SWAP1 POP SWAP2 SWAP1 POP JUMP JUMPDEST PUSH3 0x535 DUP2 PUSH3 0x517 JUMP JUMPDEST DUP2 EQ PUSH3 0x540 JUMPI PUSH0 DUP1 REVERT JUMPDEST POP JUMP JUMPDEST PUSH0 DUP2 MLOAD SWAP1 POP PUSH3 0x553 DUP2 PUSH3 0x52A JUMP JUMPDEST SWAP3 SWAP2 POP POP JUMP JUMPDEST PUSH0 PUSH1 0x80 DUP3 DUP5 SUB SLT ISZERO PUSH3 0x571 JUMPI PUSH3 0x570 PUSH3 0x344 JUMP JUMPDEST JUMPDEST PUSH3 0x57D PUSH1 0x80 PUSH3 0x3BB JUMP JUMPDEST SWAP1 POP PUSH0 DUP3 ADD MLOAD PUSH8 0xFFFFFFFFFFFFFFFF DUP2 GT ISZERO PUSH3 0x59F JUMPI PUSH3 0x59E PUSH3 0x3D9 JUMP JUMPDEST JUMPDEST PUSH3 0x5AD DUP5 DUP3 DUP6 ADD PUSH3 0x48E JUMP JUMPDEST PUSH0 DUP4 ADD MSTORE POP PUSH1 0x20 DUP3 ADD MLOAD PUSH8 0xFFFFFFFFFFFFFFFF DUP2 GT ISZERO PUSH3 0x5D3 JUMPI PUSH3 0x5D2 PUSH3 0x3D9 JUMP JUMPDEST JUMPDEST PUSH3 0x5E1 DUP5 DUP3 DUP6 ADD PUSH3 0x48E JUMP JUMPDEST PUSH1 0x20 DUP4 ADD MSTORE POP PUSH1 0x40 PUSH3 0x5F7 DUP5 DUP3 DUP6 ADD PUSH3 0x4E2 JUMP JUMPDEST PUSH1 0x40 DUP4 ADD MSTORE POP PUSH1 0x60 PUSH3 0x60D DUP5 DUP3 DUP6 ADD PUSH3 0x543 JUMP JUMPDEST PUSH1 0x60 DUP4 ADD MSTORE POP SWAP3 SWAP2 POP POP JUMP JUMPDEST PUSH0 DUP2 SWAP1 POP SWAP2 SWAP1 POP JUMP JUMPDEST PUSH3 0x62D DUP2 PUSH3 0x619 JUMP JUMPDEST DUP2 EQ PUSH3 0x638 JUMPI PUSH0 DUP1 REVERT JUMPDEST POP JUMP JUMPDEST PUSH0 DUP2 MLOAD SWAP1 POP PUSH3 0x64B DUP2 PUSH3 0x622 JUMP JUMPDEST SWAP3 SWAP2 POP POP JUMP JUMPDEST PUSH0 PUSH2 0xFFFF DUP3 AND SWAP1 POP SWAP2 SWAP1 POP JUMP JUMPDEST PUSH3 0x669 DUP2 PUSH3 0x651 JUMP JUMPDEST DUP2 EQ PUSH3 0x674 JUMPI PUSH0 DUP1 REVERT JUMPDEST POP JUMP JUMPDEST PUSH0 DUP2 MLOAD SWAP1 POP PUSH3 0x687 DUP2 PUSH3 0x65E JUMP JUMPDEST SWAP3 SWAP2 POP POP JUMP JUMPDEST PUSH0 PUSH4 0xFFFFFFFF DUP3 AND SWAP1 POP SWAP2 SWAP1 POP JUMP JUMPDEST PUSH3 0x6A7 DUP2 PUSH3 0x68D JUMP JUMPDEST DUP2 EQ PUSH3 0x6B2 JUMPI PUSH0 DUP1 REVERT JUMPDEST POP JUMP JUMPDEST PUSH0 DUP2 MLOAD SWAP1 POP PUSH3 0x6C5 DUP2 PUSH3 0x69C JUMP JUMPDEST SWAP3 SWAP2 POP POP JUMP JUMPDEST PUSH0 PUSH6 0xFFFFFFFFFFFF DUP3 AND SWAP1 POP SWAP2 SWAP1 POP JUMP JUMPDEST PUSH3 0x6E7 DUP2 PUSH3 0x6CB JUMP JUMPDEST DUP2 EQ PUSH3 0x6F2 JUMPI PUSH0 DUP1 REVERT JUMPDEST POP JUMP JUMPDEST PUSH0 DUP2 MLOAD SWAP1 POP PUSH3 0x705 DUP2 PUSH3 0x6DC JUMP JUMPDEST SWAP3 SWAP2 POP POP JUMP JUMPDEST PUSH0 PUSH1 0x80 DUP3 DUP5 SUB SLT ISZERO PUSH3 0x723 JUMPI PUSH3 0x722 PUSH3 0x344 JUMP JUMPDEST JUMPDEST PUSH3 0x72F PUSH1 0x80 PUSH3 0x3BB JUMP JUMPDEST SWAP1 POP PUSH0 PUSH3 0x740 DUP5 DUP3 DUP6 ADD PUSH3 0x677 JUMP JUMPDEST PUSH0 DUP4 ADD MSTORE POP PUSH1 0x20 PUSH3 0x755 DUP5 DUP3 DUP6 ADD PUSH3 0x6B5 JUMP JUMPDEST PUSH1 0x20 DUP4 ADD MSTORE POP PUSH1 0x40 PUSH3 0x76B DUP5 DUP3 DUP6 ADD PUSH3 0x6F5 JUMP JUMPDEST PUSH1 0x40 DUP4 ADD MSTORE POP PUSH1 0x60 PUSH3 0x781 DUP5 DUP3 DUP6 ADD PUSH3 0x6F5 JUMP JUMPDEST PUSH1 0x60 DUP4 ADD MSTORE POP SWAP3 SWAP2 POP POP JUMP JUMPDEST PUSH0 DUP1 PUSH0 DUP1 PUSH1 0xE0 DUP6 DUP8 SUB SLT ISZERO PUSH3 0x7A8 JUMPI PUSH3 0x7A7 PUSH3 0x33C JUMP JUMPDEST JUMPDEST PUSH0 DUP6 ADD MLOAD PUSH8 0xFFFFFFFFFFFFFFFF DUP2 GT ISZERO PUSH3 0x7C8 JUMPI PUSH3 0x7C7 PUSH3 0x340 JUMP JUMPDEST JUMPDEST PUSH3 0x7D6 DUP8 DUP3 DUP9 ADD PUSH3 0x559 JUMP JUMPDEST SWAP5 POP POP PUSH1 0x20 DUP6 ADD MLOAD PUSH8 0xFFFFFFFFFFFFFFFF DUP2 GT ISZERO PUSH3 0x7FA JUMPI PUSH3 0x7F9 PUSH3 0x340 JUMP JUMPDEST JUMPDEST PUSH3 0x808 DUP8 DUP3 DUP9 ADD PUSH3 0x48E JUMP JUMPDEST SWAP4 POP POP PUSH1 0x40 PUSH3 0x81B DUP8 DUP3 DUP9 ADD PUSH3 0x63B JUMP JUMPDEST SWAP3 POP POP PUSH1 0x60 PUSH3 0x82E DUP8 DUP3 DUP9 ADD PUSH3 0x70B JUMP JUMPDEST SWAP2 POP POP SWAP3 SWAP6 SWAP2 SWAP5 POP SWAP3 POP JUMP JUMPDEST PUSH0 DUP2 MLOAD SWAP1 POP SWAP2 SWAP1 POP JUMP JUMPDEST PUSH32 0x4E487B7100000000000000000000000000000000000000000000000000000000 PUSH0 MSTORE PUSH1 0x22 PUSH1 0x4 MSTORE PUSH1 0x24 PUSH0 REVERT JUMPDEST PUSH0 PUSH1 0x2 DUP3 DIV SWAP1 POP PUSH1 0x1 DUP3 AND DUP1 PUSH3 0x889 JUMPI PUSH1 0x7F DUP3 AND SWAP2 POP JUMPDEST PUSH1 0x20 DUP3 LT DUP2 SUB PUSH3 0x89F JUMPI PUSH3 0x89E PUSH3 0x844 JUMP JUMPDEST JUMPDEST POP SWAP2 SWAP1 POP JUMP JUMPDEST PUSH0 DUP2 SWAP1 POP DUP2 PUSH0 MSTORE PUSH1 0x20 PUSH0 KECCAK256 SWAP1 POP SWAP2 SWAP1 POP JUMP JUMPDEST PUSH0 PUSH1 0x20 PUSH1 0x1F DUP4 ADD DIV SWAP1 POP SWAP2 SWAP1 POP JUMP JUMPDEST PUSH0 DUP3 DUP3 SHL SWAP1 POP SWAP3 SWAP2 POP POP JUMP JUMPDEST PUSH0 PUSH1 0x8 DUP4 MUL PUSH3 0x903 PUSH32 0xFFFFFFFFFFFFFFFFFFFFFFFFFFFFFFFFFFFFFFFFFFFFFFFFFFFFFFFFFFFFFFFF DUP3 PUSH3 0x8C6 JUMP JUMPDEST PUSH3 0x90F DUP7 DUP4 PUSH3 0x8C6 JUMP JUMPDEST SWAP6 POP DUP1 NOT DUP5 AND SWAP4 POP DUP1 DUP7 AND DUP5 OR SWAP3 POP POP POP SWAP4 SWAP3 POP POP POP JUMP JUMPDEST PUSH0 DUP2 SWAP1 POP SWAP2 SWAP1 POP JUMP JUMPDEST PUSH0 PUSH3 0x950 PUSH3 0x94A PUSH3 0x944 DUP5 PUSH3 0x619 JUMP JUMPDEST PUSH3 0x927 JUMP JUMPDEST PUSH3 0x619 JUMP JUMPDEST SWAP1 POP SWAP2 SWAP1 POP JUMP JUMPDEST PUSH0 DUP2 SWAP1 POP SWAP2 SWAP1 POP JUMP JUMPDEST PUSH3 0x96B DUP4 PUSH3 0x930 JUMP JUMPDEST PUSH3 0x983 PUSH3 0x97A DUP3 PUSH3 0x957 JUMP JUMPDEST DUP5 DUP5 SLOAD PUSH3 0x8D2 JUMP JUMPDEST DUP3 SSTORE POP POP POP POP JUMP JUMPDEST PUSH0 SWAP1 JUMP JUMPDEST PUSH3 0x999 PUSH3 0x98B JUMP JUMPDEST PUSH3 0x9A6 DUP2 DUP5 DUP5 PUSH3 0x960 JUMP JUMPDEST POP POP POP JUMP JUMPDEST JUMPDEST DUP2 DUP2 LT ISZERO PUSH3 0x9CD JUMPI PUSH3 0x9C1 PUSH0 DUP3 PUSH3 0x98F JUMP JUMPDEST PUSH1 0x1 DUP2 ADD SWAP1 POP PUSH3 0x9AC JUMP JUMPDEST POP POP JUMP JUMPDEST PUSH1 0x1F DUP3 GT ISZERO PUSH3 0xA1C JUMPI PUSH3 0x9E6 DUP2 PUSH3 0x8A5 JUMP JUMPDEST PUSH3 0x9F1 DUP5 PUSH3 0x8B7 JUMP JUMPDEST DUP2 ADD PUSH1 0x20 DUP6 LT ISZERO PUSH3 0xA01 JUMPI DUP2 SWAP1 POP JUMPDEST PUSH3 0xA19 PUSH3 0xA10 DUP6 PUSH3 0x8B7 JUMP JUMPDEST DUP4 ADD DUP3 PUSH3 0x9AB JUMP JUMPDEST POP POP JUMPDEST POP POP POP JUMP JUMPDEST PUSH0 DUP3 DUP3 SHR SWAP1 POP SWAP3 SWAP2 POP POP JUMP JUMPDEST PUSH0 PUSH3 0xA3E PUSH0 NOT DUP5 PUSH1 0x8 MUL PUSH3 0xA21 JUMP JUMPDEST NOT DUP1 DUP4 AND SWAP2 POP POP SWAP3 SWAP2 POP POP JUMP JUMPDEST PUSH0 PUSH3 0xA58 DUP4 DUP4 PUSH3 0xA2D JUMP JUMPDEST SWAP2 POP DUP3 PUSH1 0x2 MUL DUP3 OR SWAP1 POP SWAP3 SWAP2 POP POP JUMP JUMPDEST PUSH3 0xA73 DUP3 PUSH3 0x83A JUMP JUMPDEST PUSH8 0xFFFFFFFFFFFFFFFF DUP2 GT ISZERO PUSH3 0xA8F JUMPI PUSH3 0xA8E PUSH3 0x358 JUMP JUMPDEST JUMPDEST PUSH3 0xA9B DUP3 SLOAD PUSH3 0x871 JUMP JUMPDEST PUSH3 0xAA8 DUP3 DUP3 DUP6 PUSH3 0x9D1 JUMP JUMPDEST PUSH0 PUSH1 0x20 SWAP1 POP PUSH1 0x1F DUP4 GT PUSH1 0x1 DUP2 EQ PUSH3 0xADE JUMPI PUSH0 DUP5 ISZERO PUSH3 0xAC9 JUMPI DUP3 DUP8 ADD MLOAD SWAP1 POP JUMPDEST PUSH3 0xAD5 DUP6 DUP3 PUSH3 0xA4B JUMP JUMPDEST DUP7 SSTORE POP PUSH3 0xB44 JUMP JUMPDEST PUSH1 0x1F NOT DUP5 AND PUSH3 0xAEE DUP7 PUSH3 0x8A5 JUMP JUMPDEST PUSH0 JUMPDEST DUP3 DUP2 LT ISZERO PUSH3 0xB17 JUMPI DUP5 DUP10 ADD MLOAD DUP3 SSTORE PUSH1 0x1 DUP3 ADD SWAP2 POP PUSH1 0x20 DUP6 ADD SWAP5 POP PUSH1 0x20 DUP2 ADD SWAP1 POP PUSH3 0xAF0 JUMP JUMPDEST DUP7 DUP4 LT ISZERO PUSH3 0xB37 JUMPI DUP5 DUP10 ADD MLOAD PUSH3 0xB33 PUSH1 0x1F DUP10 AND DUP3 PUSH3 0xA2D JUMP JUMPDEST DUP4 SSTORE POP JUMPDEST PUSH1 0x1 PUSH1 0x2 DUP9 MUL ADD DUP9 SSTORE POP POP POP JUMPDEST POP POP POP POP POP POP JUMP JUMPDEST PUSH0 DUP3 DUP3 MSTORE PUSH1 0x20 DUP3 ADD SWAP1 POP SWAP3 SWAP2 POP POP JUMP JUMPDEST PUSH0 PUSH3 0xB68 DUP3 PUSH3 0x83A JUMP JUMPDEST PUSH3 0xB74 DUP2 DUP6 PUSH3 0xB4C JUMP JUMPDEST SWAP4 POP PUSH3 0xB86 DUP2 DUP6 PUSH1 0x20 DUP7 ADD PUSH3 0x41A JUMP JUMPDEST PUSH3 0xB91 DUP2 PUSH3 0x348 JUMP JUMPDEST DUP5 ADD SWAP2 POP POP SWAP3 SWAP2 POP POP JUMP JUMPDEST PUSH0 PUSH1 0x20 DUP3 ADD SWAP1 POP DUP2 DUP2 SUB PUSH0 DUP4 ADD MSTORE PUSH3 0xBB6 DUP2 DUP5 PUSH3 0xB5C JUMP JUMPDEST SWAP1 POP SWAP3 SWAP2 POP POP JUMP JUMPDEST PUSH3 0xBC9 DUP2 PUSH3 0x517 JUMP JUMPDEST DUP3 MSTORE POP POP JUMP JUMPDEST PUSH0 PUSH1 0x20 DUP3 ADD SWAP1 POP PUSH3 0xBE4 PUSH0 DUP4 ADD DUP5 PUSH3 0xBBE JUMP JUMPDEST SWAP3 SWAP2 POP POP JUMP JUMPDEST PUSH2 0x16BE DUP1 PUSH3 0xBF8 PUSH0 CODECOPY PUSH0 RETURN INVALID PUSH1 0x80 PUSH1 0x40 MSTORE CALLVALUE DUP1 ISZERO PUSH2 0xF JUMPI PUSH0 DUP1 REVERT JUMPDEST POP PUSH1 0x4 CALLDATASIZE LT PUSH2 0xCD JUMPI PUSH0 CALLDATALOAD PUSH1 0xE0 SHR DUP1 PUSH4 0xA3EC138D GT PUSH2 0x8A JUMPI DUP1 PUSH4 0xD4564D16 GT PUSH2 0x64 JUMPI DUP1 PUSH4 0xD4564D16 EQ PUSH2 0x209 JUMPI DUP1 PUSH4 0xE2BA53F0 EQ PUSH2 0x227 JUMPI DUP1 PUSH4 0xEC5BF07B EQ PUSH2 0x245 JUMPI DUP1 PUSH4 0xF8B1B08A EQ PUSH2 0x263 JUMPI PUSH2 0xCD JUMP JUMPDEST DUP1 PUSH4 0xA3EC138D EQ PUSH2 0x194 JUMPI DUP1 PUSH4 0xB3A05246 EQ PUSH2 0x1C7 JUMPI DUP1 PUSH4 0xBC33C7D7 EQ PUSH2 0x1E8 JUMPI PUSH2 0xCD JUMP JUMPDEST DUP1 PUSH4 0x121B93F EQ PUSH2 0xD1 JUMPI DUP1 PUSH4 0x13CF08B EQ PUSH2 0xED JUMPI DUP1 PUSH4 0x2E4176CF EQ PUSH2 0x11E JUMPI DUP1 PUSH4 0x4731CA2B EQ PUSH2 0x13C JUMPI DUP1 PUSH4 0x5C19A95C EQ PUSH2 0x15C JUMPI DUP1 PUSH4 0x9E7B8D61 EQ PUSH2 0x178 JUMPI JUMPDEST PUSH0 DUP1 REVERT JUMPDEST PUSH2 0xEB PUSH1 0x4 DUP1 CALLDATASIZE SUB DUP2 ADD SWAP1 PUSH2 0xE6 SWAP2 SWAP1 PUSH2 0xD89 JUMP JUMPDEST PUSH2 0x281 JUMP JUMPDEST STOP JUMPDEST PUSH2 0x107 PUSH1 0x4 DUP1 CALLDATASIZE SUB DUP2 ADD SWAP1 PUSH2 0x102 SWAP2 SWAP1 PUSH2 0xD89 JUMP JUMPDEST PUSH2 0x3BC JUMP JUMPDEST PUSH1 0x40 MLOAD PUSH2 0x115 SWAP3 SWAP2 SWAP1 PUSH2 0xDDB JUMP JUMPDEST PUSH1 0x40 MLOAD DUP1 SWAP2 SUB SWAP1 RETURN JUMPDEST PUSH2 0x126 PUSH2 0x3EB JUMP JUMPDEST PUSH1 0x40 MLOAD PUSH2 0x133 SWAP2 SWAP1 PUSH2 0xE41 JUMP JUMPDEST PUSH1 0x40 MLOAD DUP1 SWAP2 SUB SWAP1 RETURN JUMPDEST PUSH2 0x144 PUSH2 0x410 JUMP JUMPDEST PUSH1 0x40 MLOAD PUSH2 0x153 SWAP4 SWAP3 SWAP2 SWAP1 PUSH2 0xE5A JUMP JUMPDEST PUSH1 0x40 MLOAD DUP1 SWAP2 SUB SWAP1 RETURN JUMPDEST PUSH2 0x176 PUSH1 0x4 DUP1 CALLDATASIZE SUB DUP2 ADD SWAP1 PUSH2 0x171 SWAP2 SWAP1 PUSH2 0xEB9 JUMP JUMPDEST PUSH2 0x46D JUMP JUMPDEST STOP JUMPDEST PUSH2 0x192 PUSH1 0x4 DUP1 CALLDATASIZE SUB DUP2 ADD SWAP1 PUSH2 0x18D SWAP2 SWAP1 PUSH2 0xEB9 JUMP JUMPDEST PUSH2 0x7F2 JUMP JUMPDEST STOP JUMPDEST PUSH2 0x1AE PUSH1 0x4 DUP1 CALLDATASIZE SUB DUP2 ADD SWAP1 PUSH2 0x1A9 SWAP2 SWAP1 PUSH2 0xEB9 JUMP JUMPDEST PUSH2 0x9A0 JUMP JUMPDEST PUSH1 0x40 MLOAD PUSH2 0x1BE SWAP5 SWAP4 SWAP3 SWAP2 SWAP1 PUSH2 0xEFE JUMP JUMPDEST PUSH1 0x40 MLOAD DUP1 SWAP2 SUB SWAP1 RETURN JUMPDEST PUSH2 0x1CF PUSH2 0x9F8 JUMP JUMPDEST PUSH1 0x40 MLOAD PUSH2 0x1DF SWAP5 SWAP4 SWAP3 SWAP2 SWAP1 PUSH2 0xF9B JUMP JUMPDEST PUSH1 0x40 MLOAD DUP1 SWAP2 SUB SWAP1 RETURN JUMPDEST PUSH2 0x1F0 PUSH2 0xA5B JUMP JUMPDEST PUSH1 0x40 MLOAD PUSH2 0x200 SWAP5 SWAP4 SWAP3 SWAP2 SWAP1 PUSH2 0x1068 JUMP JUMPDEST PUSH1 0x40 MLOAD DUP1 SWAP2 SUB SWAP1 RETURN JUMPDEST PUSH2 0x211 PUSH2 0xBB5 JUMP JUMPDEST PUSH1 0x40 MLOAD PUSH2 0x21E SWAP2 SWAP1 PUSH2 0x10B9 JUMP JUMPDEST PUSH1 0x40 MLOAD DUP1 SWAP2 SUB SWAP1 RETURN JUMPDEST PUSH2 0x22F PUSH2 0xC36 JUMP JUMPDEST PUSH1 0x40 MLOAD PUSH2 0x23C SWAP2 SWAP1 PUSH2 0x10D2 JUMP JUMPDEST PUSH1 0x40 MLOAD DUP1 SWAP2 SUB SWAP1 RETURN JUMPDEST PUSH2 0x24D PUSH2 0xC66 JUMP JUMPDEST PUSH1 0x40 MLOAD PUSH2 0x25A SWAP2 SWAP1 PUSH2 0x10B9 JUMP JUMPDEST PUSH1 0x40 MLOAD DUP1 SWAP2 SUB SWAP1 RETURN JUMPDEST PUSH2 0x26B PUSH2 0xCCF JUMP JUMPDEST PUSH1 0x40 MLOAD PUSH2 0x278 SWAP2 SWAP1 PUSH2 0x113D JUMP JUMPDEST PUSH1 0x40 MLOAD DUP1 SWAP2 SUB SWAP1 RETURN JUMPDEST PUSH0 PUSH1 0xA PUSH0 CALLER PUSH20 0xFFFFFFFFFFFFFFFFFFFFFFFFFFFFFFFFFFFFFFFF AND PUSH20 0xFFFFFFFFFFFFFFFFFFFFFFFFFFFFFFFFFFFFFFFF AND DUP2 MSTORE PUSH1 0x20 ADD SWAP1 DUP2 MSTORE PUSH1 0x20 ADD PUSH0 KECCAK256 SWAP1 POP PUSH0 DUP2 PUSH0 ADD SLOAD SUB PUSH2 0x306 JUMPI PUSH1 0x40 MLOAD PUSH32 0x8C379A000000000000000000000000000000000000000000000000000000000 DUP2 MSTORE PUSH1 0x4 ADD PUSH2 0x2FD SWAP1 PUSH2 0x11A7 JUMP JUMPDEST PUSH1 0x40 MLOAD DUP1 SWAP2 SUB SWAP1 REVERT JUMPDEST DUP1 PUSH1 0x1 ADD PUSH0 SWAP1 SLOAD SWAP1 PUSH2 0x100 EXP SWAP1 DIV PUSH1 0xFF AND ISZERO PUSH2 0x357 JUMPI PUSH1 0x40 MLOAD PUSH32 0x8C379A000000000000000000000000000000000000000000000000000000000 DUP2 MSTORE PUSH1 0x4 ADD PUSH2 0x34E SWAP1 PUSH2 0x120F JUMP JUMPDEST PUSH1 0x40 MLOAD DUP1 SWAP2 SUB SWAP1 REVERT JUMPDEST PUSH1 0x1 DUP2 PUSH1 0x1 ADD PUSH0 PUSH2 0x100 EXP DUP2 SLOAD DUP2 PUSH1 0xFF MUL NOT AND SWAP1 DUP4 ISZERO ISZERO MUL OR SWAP1 SSTORE POP DUP2 DUP2 PUSH1 0x2 ADD DUP2 SWAP1 SSTORE POP DUP1 PUSH0 ADD SLOAD PUSH1 0xB DUP4 DUP2 SLOAD DUP2 LT PUSH2 0x394 JUMPI PUSH2 0x393 PUSH2 0x122D JUMP JUMPDEST JUMPDEST SWAP1 PUSH0 MSTORE PUSH1 0x20 PUSH0 KECCAK256 SWAP1 PUSH1 0x2 MUL ADD PUSH1 0x1 ADD PUSH0 DUP3 DUP3 SLOAD PUSH2 0x3B1 SWAP2 SWAP1 PUSH2 0x1287 JUMP JUMPDEST SWAP3 POP POP DUP2 SWAP1 SSTORE POP POP POP JUMP JUMPDEST PUSH1 0xB DUP2 DUP2 SLOAD DUP2 LT PUSH2 0x3CB JUMPI PUSH0 DUP1 REVERT JUMPDEST SWAP1 PUSH0 MSTORE PUSH1 0x20 PUSH0 KECCAK256 SWAP1 PUSH1 0x2 MUL ADD PUSH0 SWAP2 POP SWAP1 POP DUP1 PUSH0 ADD SLOAD SWAP1 DUP1 PUSH1 0x1 ADD SLOAD SWAP1 POP DUP3 JUMP JUMPDEST PUSH1 0x8 PUSH0 SWAP1 SLOAD SWAP1 PUSH2 0x100 EXP SWAP1 DIV PUSH20 0xFFFFFFFFFFFFFFFFFFFFFFFFFFFFFFFFFFFFFFFF AND DUP2 JUMP JUMPDEST PUSH0 DUP1 PUSH0 PUSH1 0x5 PUSH0 ADD PUSH0 SWAP1 SLOAD SWAP1 PUSH2 0x100 EXP SWAP1 DIV PUSH20 0xFFFFFFFFFFFFFFFFFFFFFFFFFFFFFFFFFFFFFFFF AND PUSH1 0x5 PUSH1 0x1 ADD PUSH0 SWAP1 SLOAD SWAP1 PUSH2 0x100 EXP SWAP1 DIV PUSH20 0xFFFFFFFFFFFFFFFFFFFFFFFFFFFFFFFFFFFFFFFF AND PUSH1 0x5 PUSH1 0x2 ADD SLOAD SWAP3 POP SWAP3 POP SWAP3 POP SWAP1 SWAP2 SWAP3 JUMP JUMPDEST PUSH0 PUSH1 0xA PUSH0 CALLER PUSH20 0xFFFFFFFFFFFFFFFFFFFFFFFFFFFFFFFFFFFFFFFF AND PUSH20 0xFFFFFFFFFFFFFFFFFFFFFFFFFFFFFFFFFFFFFFFF AND DUP2 MSTORE PUSH1 0x20 ADD SWAP1 DUP2 MSTORE PUSH1 0x20 ADD PUSH0 KECCAK256 SWAP1 POP DUP1 PUSH1 0x1 ADD PUSH0 SWAP1 SLOAD SWAP1 PUSH2 0x100 EXP SWAP1 DIV PUSH1 0xFF AND ISZERO PUSH2 0x4FE JUMPI PUSH1 0x40 MLOAD PUSH32 0x8C379A000000000000000000000000000000000000000000000000000000000 DUP2 MSTORE PUSH1 0x4 ADD PUSH2 0x4F5 SWAP1 PUSH2 0x1304 JUMP JUMPDEST PUSH1 0x40 MLOAD DUP1 SWAP2 SUB SWAP1 REVERT JUMPDEST CALLER PUSH20 0xFFFFFFFFFFFFFFFFFFFFFFFFFFFFFFFFFFFFFFFF AND DUP3 PUSH20 0xFFFFFFFFFFFFFFFFFFFFFFFFFFFFFFFFFFFFFFFF AND SUB PUSH2 0x56C JUMPI PUSH1 0x40 MLOAD PUSH32 0x8C379A000000000000000000000000000000000000000000000000000000000 DUP2 MSTORE PUSH1 0x4 ADD PUSH2 0x563 SWAP1 PUSH2 0x136C JUMP JUMPDEST PUSH1 0x40 MLOAD DUP1 SWAP2 SUB SWAP1 REVERT JUMPDEST JUMPDEST PUSH0 PUSH20 0xFFFFFFFFFFFFFFFFFFFFFFFFFFFFFFFFFFFFFFFF AND PUSH1 0xA PUSH0 DUP5 PUSH20 0xFFFFFFFFFFFFFFFFFFFFFFFFFFFFFFFFFFFFFFFF AND PUSH20 0xFFFFFFFFFFFFFFFFFFFFFFFFFFFFFFFFFFFFFFFF AND DUP2 MSTORE PUSH1 0x20 ADD SWAP1 DUP2 MSTORE PUSH1 0x20 ADD PUSH0 KECCAK256 PUSH1 0x1 ADD PUSH1 0x1 SWAP1 SLOAD SWAP1 PUSH2 0x100 EXP SWAP1 DIV PUSH20 0xFFFFFFFFFFFFFFFFFFFFFFFFFFFFFFFFFFFFFFFF AND PUSH20 0xFFFFFFFFFFFFFFFFFFFFFFFFFFFFFFFFFFFFFFFF AND EQ PUSH2 0x6D6 JUMPI PUSH1 0xA PUSH0 DUP4 PUSH20 0xFFFFFFFFFFFFFFFFFFFFFFFFFFFFFFFFFFFFFFFF AND PUSH20 0xFFFFFFFFFFFFFFFFFFFFFFFFFFFFFFFFFFFFFFFF AND DUP2 MSTORE PUSH1 0x20 ADD SWAP1 DUP2 MSTORE PUSH1 0x20 ADD PUSH0 KECCAK256 PUSH1 0x1 ADD PUSH1 0x1 SWAP1 SLOAD SWAP1 PUSH2 0x100 EXP SWAP1 DIV PUSH20 0xFFFFFFFFFFFFFFFFFFFFFFFFFFFFFFFFFFFFFFFF AND SWAP2 POP CALLER PUSH20 0xFFFFFFFFFFFFFFFFFFFFFFFFFFFFFFFFFFFFFFFF AND DUP3 PUSH20 0xFFFFFFFFFFFFFFFFFFFFFFFFFFFFFFFFFFFFFFFF AND SUB PUSH2 0x6D1 JUMPI PUSH1 0x40 MLOAD PUSH32 0x8C379A000000000000000000000000000000000000000000000000000000000 DUP2 MSTORE PUSH1 0x4 ADD PUSH2 0x6C8 SWAP1 PUSH2 0x13D4 JUMP JUMPDEST PUSH1 0x40 MLOAD DUP1 SWAP2 SUB SWAP1 REVERT JUMPDEST PUSH2 0x56D JUMP JUMPDEST PUSH1 0x1 DUP2 PUSH1 0x1 ADD PUSH0 PUSH2 0x100 EXP DUP2 SLOAD DUP2 PUSH1 0xFF MUL NOT AND SWAP1 DUP4 ISZERO ISZERO MUL OR SWAP1 SSTORE POP DUP2 DUP2 PUSH1 0x1 ADD PUSH1 0x1 PUSH2 0x100 EXP DUP2 SLOAD DUP2 PUSH20 0xFFFFFFFFFFFFFFFFFFFFFFFFFFFFFFFFFFFFFFFF MUL NOT AND SWAP1 DUP4 PUSH20 0xFFFFFFFFFFFFFFFFFFFFFFFFFFFFFFFFFFFFFFFF AND MUL OR SWAP1 SSTORE POP PUSH0 PUSH1 0xA PUSH0 DUP5 PUSH20 0xFFFFFFFFFFFFFFFFFFFFFFFFFFFFFFFFFFFFFFFF AND PUSH20 0xFFFFFFFFFFFFFFFFFFFFFFFFFFFFFFFFFFFFFFFF AND DUP2 MSTORE PUSH1 0x20 ADD SWAP1 DUP2 MSTORE PUSH1 0x20 ADD PUSH0 KECCAK256 SWAP1 POP DUP1 PUSH1 0x1 ADD PUSH0 SWAP1 SLOAD SWAP1 PUSH2 0x100 EXP SWAP1 DIV PUSH1 0xFF AND ISZERO PUSH2 0x7D0 JUMPI DUP2 PUSH0 ADD SLOAD PUSH1 0xB DUP3 PUSH1 0x2 ADD SLOAD DUP2 SLOAD DUP2 LT PUSH2 0x7A7 JUMPI PUSH2 0x7A6 PUSH2 0x122D JUMP JUMPDEST JUMPDEST SWAP1 PUSH0 MSTORE PUSH1 0x20 PUSH0 KECCAK256 SWAP1 PUSH1 0x2 MUL ADD PUSH1 0x1 ADD PUSH0 DUP3 DUP3 SLOAD PUSH2 0x7C4 SWAP2 SWAP1 PUSH2 0x1287 JUMP JUMPDEST SWAP3 POP POP DUP2 SWAP1 SSTORE POP PUSH2 0x7ED JUMP JUMPDEST DUP2 PUSH0 ADD SLOAD DUP2 PUSH0 ADD PUSH0 DUP3 DUP3 SLOAD PUSH2 0x7E5 SWAP2 SWAP1 PUSH2 0x1287 JUMP JUMPDEST SWAP3 POP POP DUP2 SWAP1 SSTORE POP JUMPDEST POP POP POP JUMP JUMPDEST PUSH1 0x8 PUSH0 SWAP1 SLOAD SWAP1 PUSH2 0x100 EXP SWAP1 DIV PUSH20 0xFFFFFFFFFFFFFFFFFFFFFFFFFFFFFFFFFFFFFFFF AND PUSH20 0xFFFFFFFFFFFFFFFFFFFFFFFFFFFFFFFFFFFFFFFF AND CALLER PUSH20 0xFFFFFFFFFFFFFFFFFFFFFFFFFFFFFFFFFFFFFFFF AND EQ PUSH2 0x881 JUMPI PUSH1 0x40 MLOAD PUSH32 0x8C379A000000000000000000000000000000000000000000000000000000000 DUP2 MSTORE PUSH1 0x4 ADD PUSH2 0x878 SWAP1 PUSH2 0x1462 JUMP JUMPDEST PUSH1 0x40 MLOAD DUP1 SWAP2 SUB SWAP1 REVERT JUMPDEST PUSH1 0xA PUSH0 DUP3 PUSH20 0xFFFFFFFFFFFFFFFFFFFFFFFFFFFFFFFFFFFFFFFF AND PUSH20 0xFFFFFFFFFFFFFFFFFFFFFFFFFFFFFFFFFFFFFFFF AND DUP2 MSTORE PUSH1 0x20 ADD SWAP1 DUP2 MSTORE PUSH1 0x20 ADD PUSH0 KECCAK256 PUSH1 0x1 ADD PUSH0 SWAP1 SLOAD SWAP1 PUSH2 0x100 EXP SWAP1 DIV PUSH1 0xFF AND ISZERO PUSH2 0x90E JUMPI PUSH1 0x40 MLOAD PUSH32 0x8C379A000000000000000000000000000000000000000000000000000000000 DUP2 MSTORE PUSH1 0x4 ADD PUSH2 0x905 SWAP1 PUSH2 0x14CA JUMP JUMPDEST PUSH1 0x40 MLOAD DUP1 SWAP2 SUB SWAP1 REVERT JUMPDEST PUSH0 PUSH1 0xA PUSH0 DUP4 PUSH20 0xFFFFFFFFFFFFFFFFFFFFFFFFFFFFFFFFFFFFFFFF AND PUSH20 0xFFFFFFFFFFFFFFFFFFFFFFFFFFFFFFFFFFFFFFFF AND DUP2 MSTORE PUSH1 0x20 ADD SWAP1 DUP2 MSTORE PUSH1 0x20 ADD PUSH0 KECCAK256 PUSH0 ADD SLOAD EQ PUSH2 0x958 JUMPI PUSH0 DUP1 REVERT JUMPDEST PUSH1 0x1 PUSH1 0xA PUSH0 DUP4 PUSH20 0xFFFFFFFFFFFFFFFFFFFFFFFFFFFFFFFFFFFFFFFF AND PUSH20 0xFFFFFFFFFFFFFFFFFFFFFFFFFFFFFFFFFFFFFFFF AND DUP2 MSTORE PUSH1 0x20 ADD SWAP1 DUP2 MSTORE PUSH1 0x20 ADD PUSH0 KECCAK256 PUSH0 ADD DUP2 SWAP1 SSTORE POP POP JUMP JUMPDEST PUSH1 0xA PUSH1 0x20 MSTORE DUP1 PUSH0 MSTORE PUSH1 0x40 PUSH0 KECCAK256 PUSH0 SWAP2 POP SWAP1 POP DUP1 PUSH0 ADD SLOAD SWAP1 DUP1 PUSH1 0x1 ADD PUSH0 SWAP1 SLOAD SWAP1 PUSH2 0x100 EXP SWAP1 DIV PUSH1 0xFF AND SWAP1 DUP1 PUSH1 0x1 ADD PUSH1 0x1 SWAP1 SLOAD SWAP1 PUSH2 0x100 EXP SWAP1 DIV PUSH20 0xFFFFFFFFFFFFFFFFFFFFFFFFFFFFFFFFFFFFFFFF AND SWAP1 DUP1 PUSH1 0x2 ADD SLOAD SWAP1 POP DUP5 JUMP JUMPDEST PUSH0 DUP1 PUSH0 DUP1 PUSH0 DUP1 ADD PUSH0 SWAP1 SLOAD SWAP1 PUSH2 0x100 EXP SWAP1 DIV PUSH2 0xFFFF AND PUSH0 DUP1 ADD PUSH1 0x2 SWAP1 SLOAD SWAP1 PUSH2 0x100 EXP SWAP1 DIV PUSH4 0xFFFFFFFF AND PUSH0 DUP1 ADD PUSH1 0x6 SWAP1 SLOAD SWAP1 PUSH2 0x100 EXP SWAP1 DIV PUSH6 0xFFFFFFFFFFFF AND PUSH0 DUP1 ADD PUSH1 0xC SWAP1 SLOAD SWAP1 PUSH2 0x100 EXP SWAP1 DIV PUSH6 0xFFFFFFFFFFFF AND SWAP4 POP SWAP4 POP SWAP4 POP SWAP4 POP SWAP1 SWAP2 SWAP3 SWAP4 JUMP JUMPDEST PUSH1 0x60 DUP1 PUSH0 DUP1 PUSH1 0x1 PUSH0 ADD PUSH1 0x1 DUP1 ADD PUSH1 0x1 PUSH1 0x2 ADD SLOAD PUSH1 0x1 PUSH1 0x3 ADD PUSH0 SWAP1 SLOAD SWAP1 PUSH2 0x100 EXP SWAP1 DIV PUSH20 0xFFFFFFFFFFFFFFFFFFFFFFFFFFFFFFFFFFFFFFFF AND DUP4 DUP1 SLOAD PUSH2 0xA9F SWAP1 PUSH2 0x1515 JUMP JUMPDEST DUP1 PUSH1 0x1F ADD PUSH1 0x20 DUP1 SWAP2 DIV MUL PUSH1 0x20 ADD PUSH1 0x40 MLOAD SWAP1 DUP2 ADD PUSH1 0x40 MSTORE DUP1 SWAP3 SWAP2 SWAP1 DUP2 DUP2 MSTORE PUSH1 0x20 ADD DUP3 DUP1 SLOAD PUSH2 0xACB SWAP1 PUSH2 0x1515 JUMP JUMPDEST DUP1 ISZERO PUSH2 0xB16 JUMPI DUP1 PUSH1 0x1F LT PUSH2 0xAED JUMPI PUSH2 0x100 DUP1 DUP4 SLOAD DIV MUL DUP4 MSTORE SWAP2 PUSH1 0x20 ADD SWAP2 PUSH2 0xB16 JUMP JUMPDEST DUP3 ADD SWAP2 SWAP1 PUSH0 MSTORE PUSH1 0x20 PUSH0 KECCAK256 SWAP1 JUMPDEST DUP2 SLOAD DUP2 MSTORE SWAP1 PUSH1 0x1 ADD SWAP1 PUSH1 0x20 ADD DUP1 DUP4 GT PUSH2 0xAF9 JUMPI DUP3 SWAP1 SUB PUSH1 0x1F AND DUP3 ADD SWAP2 JUMPDEST POP POP POP POP POP SWAP4 POP DUP3 DUP1 SLOAD PUSH2 0xB29 SWAP1 PUSH2 0x1515 JUMP JUMPDEST DUP1 PUSH1 0x1F ADD PUSH1 0x20 DUP1 SWAP2 DIV MUL PUSH1 0x20 ADD PUSH1 0x40 MLOAD SWAP1 DUP2 ADD PUSH1 0x40 MSTORE DUP1 SWAP3 SWAP2 SWAP1 DUP2 DUP2 MSTORE PUSH1 0x20 ADD DUP3 DUP1 SLOAD PUSH2 0xB55 SWAP1 PUSH2 0x1515 JUMP JUMPDEST DUP1 ISZERO PUSH2 0xBA0 JUMPI DUP1 PUSH1 0x1F LT PUSH2 0xB77 JUMPI PUSH2 0x100 DUP1 DUP4 SLOAD DIV MUL DUP4 MSTORE SWAP2 PUSH1 0x20 ADD SWAP2 PUSH2 0xBA0 JUMP JUMPDEST DUP3 ADD SWAP2 SWAP1 PUSH0 MSTORE PUSH1 0x20 PUSH0 KECCAK256 SWAP1 JUMPDEST DUP2 SLOAD DUP2 MSTORE SWAP1 PUSH1 0x1 ADD SWAP1 PUSH1 0x20 ADD DUP1 DUP4 GT PUSH2 0xB83 JUMPI DUP3 SWAP1 SUB PUSH1 0x1F AND DUP3 ADD SWAP2 JUMPDEST POP POP POP POP POP SWAP3 POP SWAP4 POP SWAP4 POP SWAP4 POP SWAP4 POP SWAP1 SWAP2 SWAP3 SWAP4 JUMP JUMPDEST PUSH0 DUP1 PUSH0 SWAP1 POP PUSH0 JUMPDEST PUSH1 0xB DUP1 SLOAD SWAP1 POP DUP2 LT ISZERO PUSH2 0xC31 JUMPI DUP2 PUSH1 0xB DUP3 DUP2 SLOAD DUP2 LT PUSH2 0xBDE JUMPI PUSH2 0xBDD PUSH2 0x122D JUMP JUMPDEST JUMPDEST SWAP1 PUSH0 MSTORE PUSH1 0x20 PUSH0 KECCAK256 SWAP1 PUSH1 0x2 MUL ADD PUSH1 0x1 ADD SLOAD GT ISZERO PUSH2 0xC1E JUMPI PUSH1 0xB DUP2 DUP2 SLOAD DUP2 LT PUSH2 0xC08 JUMPI PUSH2 0xC07 PUSH2 0x122D JUMP JUMPDEST JUMPDEST SWAP1 PUSH0 MSTORE PUSH1 0x20 PUSH0 KECCAK256 SWAP1 PUSH1 0x2 MUL ADD PUSH1 0x1 ADD SLOAD SWAP2 POP DUP1 SWAP3 POP JUMPDEST DUP1 DUP1 PUSH2 0xC29 SWAP1 PUSH2 0x1545 JUMP JUMPDEST SWAP2 POP POP PUSH2 0xBBC JUMP JUMPDEST POP POP SWAP1 JUMP JUMPDEST PUSH0 PUSH1 0xB PUSH2 0xC41 PUSH2 0xBB5 JUMP JUMPDEST DUP2 SLOAD DUP2 LT PUSH2 0xC52 JUMPI PUSH2 0xC51 PUSH2 0x122D JUMP JUMPDEST JUMPDEST SWAP1 PUSH0 MSTORE PUSH1 0x20 PUSH0 KECCAK256 SWAP1 PUSH1 0x2 MUL ADD PUSH0 ADD SLOAD SWAP1 POP SWAP1 JUMP JUMPDEST PUSH0 PUSH1 0x5 PUSH0 ADD PUSH0 SWAP1 SLOAD SWAP1 PUSH2 0x100 EXP SWAP1 DIV PUSH20 0xFFFFFFFFFFFFFFFFFFFFFFFFFFFFFFFFFFFFFFFF AND PUSH1 0x5 PUSH1 0x2 ADD SLOAD PUSH2 0xC99 PUSH2 0xCCF JUMP JUMPDEST PUSH1 0x1 PUSH1 0x2 ADD SLOAD PUSH1 0x40 MLOAD PUSH1 0x20 ADD PUSH2 0xCB2 SWAP5 SWAP4 SWAP3 SWAP2 SWAP1 PUSH2 0x158C JUMP JUMPDEST PUSH1 0x40 MLOAD PUSH1 0x20 DUP2 DUP4 SUB SUB DUP2 MSTORE SWAP1 PUSH1 0x40 MSTORE DUP1 MLOAD SWAP1 PUSH1 0x20 ADD KECCAK256 PUSH0 SHR SWAP1 POP SWAP1 JUMP JUMPDEST PUSH1 0x60 PUSH1 0x1 PUSH0 ADD PUSH1 0x40 MLOAD PUSH1 0x24 ADD PUSH1 0x40 MLOAD PUSH1 0x20 DUP2 DUP4 SUB SUB DUP2 MSTORE SWAP1 PUSH1 0x40 MSTORE SWAP1 PUSH1 0x40 MLOAD PUSH2 0xCF8 SWAP2 SWAP1 PUSH2 0x1672 JUMP JUMPDEST PUSH1 0x40 MLOAD DUP1 SWAP2 SUB SWAP1 KECCAK256 PUSH28 0xFFFFFFFFFFFFFFFFFFFFFFFFFFFFFFFFFFFFFFFFFFFFFFFFFFFFFFFF NOT AND PUSH1 0x20 DUP3 ADD DUP1 MLOAD PUSH28 0xFFFFFFFFFFFFFFFFFFFFFFFFFFFFFFFFFFFFFFFFFFFFFFFFFFFFFFFF DUP4 DUP2 DUP4 AND OR DUP4 MSTORE POP POP POP POP SWAP1 POP SWAP1 JUMP JUMPDEST PUSH0 DUP1 REVERT JUMPDEST PUSH0 DUP2 SWAP1 POP SWAP2 SWAP1 POP JUMP JUMPDEST PUSH2 0xD68 DUP2 PUSH2 0xD56 JUMP JUMPDEST DUP2 EQ PUSH2 0xD72 JUMPI PUSH0 DUP1 REVERT JUMPDEST POP JUMP JUMPDEST PUSH0 DUP2 CALLDATALOAD SWAP1 POP PUSH2 0xD83 DUP2 PUSH2 0xD5F JUMP JUMPDEST SWAP3 SWAP2 POP POP JUMP JUMPDEST PUSH0 PUSH1 0x20 DUP3 DUP5 SUB SLT ISZERO PUSH2 0xD9E JUMPI PUSH2 0xD9D PUSH2 0xD52 JUMP JUMPDEST JUMPDEST PUSH0 PUSH2 0xDAB DUP5 DUP3 DUP6 ADD PUSH2 0xD75 JUMP JUMPDEST SWAP2 POP POP SWAP3 SWAP2 POP POP JUMP JUMPDEST PUSH0 DUP2 SWAP1 POP SWAP2 SWAP1 POP JUMP JUMPDEST PUSH2 0xDC6 DUP2 PUSH2 0xDB4 JUMP JUMPDEST DUP3 MSTORE POP POP JUMP JUMPDEST PUSH2 0xDD5 DUP2 PUSH2 0xD56 JUMP JUMPDEST DUP3 MSTORE POP POP JUMP JUMPDEST PUSH0 PUSH1 0x40 DUP3 ADD SWAP1 POP PUSH2 0xDEE PUSH0 DUP4 ADD DUP6 PUSH2 0xDBD JUMP JUMPDEST PUSH2 0xDFB PUSH1 0x20 DUP4 ADD DUP5 PUSH2 0xDCC JUMP JUMPDEST SWAP4 SWAP3 POP POP POP JUMP JUMPDEST PUSH0 PUSH20 0xFFFFFFFFFFFFFFFFFFFFFFFFFFFFFFFFFFFFFFFF DUP3 AND SWAP1 POP SWAP2 SWAP1 POP JUMP JUMPDEST PUSH0 PUSH2 0xE2B DUP3 PUSH2 0xE02 JUMP JUMPDEST SWAP1 POP SWAP2 SWAP1 POP JUMP JUMPDEST PUSH2 0xE3B DUP2 PUSH2 0xE21 JUMP JUMPDEST DUP3 MSTORE POP POP JUMP JUMPDEST PUSH0 PUSH1 0x20 DUP3 ADD SWAP1 POP PUSH2 0xE54 PUSH0 DUP4 ADD DUP5 PUSH2 0xE32 JUMP JUMPDEST SWAP3 SWAP2 POP POP JUMP JUMPDEST PUSH0 PUSH1 0x60 DUP3 ADD SWAP1 POP PUSH2 0xE6D PUSH0 DUP4 ADD DUP7 PUSH2 0xE32 JUMP JUMPDEST PUSH2 0xE7A PUSH1 0x20 DUP4 ADD DUP6 PUSH2 0xE32 JUMP JUMPDEST PUSH2 0xE87 PUSH1 0x40 DUP4 ADD DUP5 PUSH2 0xDCC JUMP JUMPDEST SWAP5 SWAP4 POP POP POP POP JUMP JUMPDEST PUSH2 0xE98 DUP2 PUSH2 0xE21 JUMP JUMPDEST DUP2 EQ PUSH2 0xEA2 JUMPI PUSH0 DUP1 REVERT JUMPDEST POP JUMP JUMPDEST PUSH0 DUP2 CALLDATALOAD SWAP1 POP PUSH2 0xEB3 DUP2 PUSH2 0xE8F JUMP JUMPDEST SWAP3 SWAP2 POP POP JUMP JUMPDEST PUSH0 PUSH1 0x20 DUP3 DUP5 SUB SLT ISZERO PUSH2 0xECE JUMPI PUSH2 0xECD PUSH2 0xD52 JUMP JUMPDEST JUMPDEST PUSH0 PUSH2 0xEDB DUP5 DUP3 DUP6 ADD PUSH2 0xEA5 JUMP JUMPDEST SWAP2 POP POP SWAP3 SWAP2 POP POP JUMP JUMPDEST PUSH0 DUP2 ISZERO ISZERO SWAP1 POP SWAP2 SWAP1 POP JUMP JUMPDEST PUSH2 0xEF8 DUP2 PUSH2 0xEE4 JUMP JUMPDEST DUP3 MSTORE POP POP JUMP JUMPDEST PUSH0 PUSH1 0x80 DUP3 ADD SWAP1 POP PUSH2 0xF11 PUSH0 DUP4 ADD DUP8 PUSH2 0xDCC JUMP JUMPDEST PUSH2 0xF1E PUSH1 0x20 DUP4 ADD DUP7 PUSH2 0xEEF JUMP JUMPDEST PUSH2 0xF2B PUSH1 0x40 DUP4 ADD DUP6 PUSH2 0xE32 JUMP JUMPDEST PUSH2 0xF38 PUSH1 0x60 DUP4 ADD DUP5 PUSH2 0xDCC JUMP JUMPDEST SWAP6 SWAP5 POP POP POP POP POP JUMP JUMPDEST PUSH0 PUSH2 0xFFFF DUP3 AND SWAP1 POP SWAP2 SWAP1 POP JUMP JUMPDEST PUSH2 0xF57 DUP2 PUSH2 0xF41 JUMP JUMPDEST DUP3 MSTORE POP POP JUMP JUMPDEST PUSH0 PUSH4 0xFFFFFFFF DUP3 AND SWAP1 POP SWAP2 SWAP1 POP JUMP JUMPDEST PUSH2 0xF75 DUP2 PUSH2 0xF5D JUMP JUMPDEST DUP3 MSTORE POP POP JUMP JUMPDEST PUSH0 PUSH6 0xFFFFFFFFFFFF DUP3 AND SWAP1 POP SWAP2 SWAP1 POP JUMP JUMPDEST PUSH2 0xF95 DUP2 PUSH2 0xF7B JUMP JUMPDEST DUP3 MSTORE POP POP JUMP JUMPDEST PUSH0 PUSH1 0x80 DUP3 ADD SWAP1 POP PUSH2 0xFAE PUSH0 DUP4 ADD DUP8 PUSH2 0xF4E JUMP JUMPDEST PUSH2 0xFBB PUSH1 0x20 DUP4 ADD DUP7 PUSH2 0xF6C JUMP JUMPDEST PUSH2 0xFC8 PUSH1 0x40 DUP4 ADD DUP6 PUSH2 0xF8C JUMP JUMPDEST PUSH2 0xFD5 PUSH1 0x60 DUP4 ADD DUP5 PUSH2 0xF8C JUMP JUMPDEST SWAP6 SWAP5 POP POP POP POP POP JUMP JUMPDEST PUSH0 DUP2 MLOAD SWAP1 POP SWAP2 SWAP1 POP JUMP JUMPDEST PUSH0 DUP3 DUP3 MSTORE PUSH1 0x20 DUP3 ADD SWAP1 POP SWAP3 SWAP2 POP POP JUMP JUMPDEST PUSH0 JUMPDEST DUP4 DUP2 LT ISZERO PUSH2 0x1015 JUMPI DUP1 DUP3 ADD MLOAD DUP2 DUP5 ADD MSTORE PUSH1 0x20 DUP2 ADD SWAP1 POP PUSH2 0xFFA JUMP JUMPDEST PUSH0 DUP5 DUP5 ADD MSTORE POP POP POP POP JUMP JUMPDEST PUSH0 PUSH1 0x1F NOT PUSH1 0x1F DUP4 ADD AND SWAP1 POP SWAP2 SWAP1 POP JUMP JUMPDEST PUSH0 PUSH2 0x103A DUP3 PUSH2 0xFDE JUMP JUMPDEST PUSH2 0x1044 DUP2 DUP6 PUSH2 0xFE8 JUMP JUMPDEST SWAP4 POP PUSH2 0x1054 DUP2 DUP6 PUSH1 0x20 DUP7 ADD PUSH2 0xFF8 JUMP JUMPDEST PUSH2 0x105D DUP2 PUSH2 0x1020 JUMP JUMPDEST DUP5 ADD SWAP2 POP POP SWAP3 SWAP2 POP POP JUMP JUMPDEST PUSH0 PUSH1 0x80 DUP3 ADD SWAP1 POP DUP2 DUP2 SUB PUSH0 DUP4 ADD MSTORE PUSH2 0x1080 DUP2 DUP8 PUSH2 0x1030 JUMP JUMPDEST SWAP1 POP DUP2 DUP2 SUB PUSH1 0x20 DUP4 ADD MSTORE PUSH2 0x1094 DUP2 DUP7 PUSH2 0x1030 JUMP JUMPDEST SWAP1 POP PUSH2 0x10A3 PUSH1 0x40 DUP4 ADD DUP6 PUSH2 0xDBD JUMP JUMPDEST PUSH2 0x10B0 PUSH1 0x60 DUP4 ADD DUP5 PUSH2 0xE32 JUMP JUMPDEST SWAP6 SWAP5 POP POP POP POP POP JUMP JUMPDEST PUSH0 PUSH1 0x20 DUP3 ADD SWAP1 POP PUSH2 0x10CC PUSH0 DUP4 ADD DUP5 PUSH2 0xDCC JUMP JUMPDEST SWAP3 SWAP2 POP POP JUMP JUMPDEST PUSH0 PUSH1 0x20 DUP3 ADD SWAP1 POP PUSH2 0x10E5 PUSH0 DUP4 ADD DUP5 PUSH2 0xDBD JUMP JUMPDEST SWAP3 SWAP2 POP POP JUMP JUMPDEST PUSH0 DUP2 MLOAD SWAP1 POP SWAP2 SWAP1 POP JUMP JUMPDEST PUSH0 DUP3 DUP3 MSTORE PUSH1 0x20 DUP3 ADD SWAP1 POP SWAP3 SWAP2 POP POP JUMP JUMPDEST PUSH0 PUSH2 0x110F DUP3 PUSH2 0x10EB JUMP JUMPDEST PUSH2 0x1119 DUP2 DUP6 PUSH2 0x10F5 JUMP JUMPDEST SWAP4 POP PUSH2 0x1129 DUP2 DUP6 PUSH1 0x20 DUP7 ADD PUSH2 0xFF8 JUMP JUMPDEST PUSH2 0x1132 DUP2 PUSH2 0x1020 JUMP JUMPDEST DUP5 ADD SWAP2 POP POP SWAP3 SWAP2 POP POP JUMP JUMPDEST PUSH0 PUSH1 0x20 DUP3 ADD SWAP1 POP DUP2 DUP2 SUB PUSH0 DUP4 ADD MSTORE PUSH2 0x1155 DUP2 DUP5 PUSH2 0x1105 JUMP JUMPDEST SWAP1 POP SWAP3 SWAP2 POP POP JUMP JUMPDEST PUSH32 0x486173206E6F20726967687420746F20766F7465000000000000000000000000 PUSH0 DUP3 ADD MSTORE POP JUMP JUMPDEST PUSH0 PUSH2 0x1191 PUSH1 0x14 DUP4 PUSH2 0xFE8 JUMP JUMPDEST SWAP2 POP PUSH2 0x119C DUP3 PUSH2 0x115D JUMP JUMPDEST PUSH1 0x20 DUP3 ADD SWAP1 POP SWAP2 SWAP1 POP JUMP JUMPDEST PUSH0 PUSH1 0x20 DUP3 ADD SWAP1 POP DUP2 DUP2 SUB PUSH0 DUP4 ADD MSTORE PUSH2 0x11BE DUP2 PUSH2 0x1185 JUMP JUMPDEST SWAP1 POP SWAP2 SWAP1 POP JUMP JUMPDEST PUSH32 0x416C726561647920766F7465642E000000000000000000000000000000000000 PUSH0 DUP3 ADD MSTORE POP JUMP JUMPDEST PUSH0 PUSH2 0x11F9 PUSH1 0xE DUP4 PUSH2 0xFE8 JUMP JUMPDEST SWAP2 POP PUSH2 0x1204 DUP3 PUSH2 0x11C5 JUMP JUMPDEST PUSH1 0x20 DUP3 ADD SWAP1 POP SWAP2 SWAP1 POP JUMP JUMPDEST PUSH0 PUSH1 0x20 DUP3 ADD SWAP1 POP DUP2 DUP2 SUB PUSH0 DUP4 ADD MSTORE PUSH2 0x1226 DUP2 PUSH2 0x11ED JUMP JUMPDEST SWAP1 POP SWAP2 SWAP1 POP JUMP JUMPDEST PUSH32 0x4E487B7100000000000000000000000000000000000000000000000000000000 PUSH0 MSTORE PUSH1 0x32 PUSH1 0x4 MSTORE PUSH1 0x24 PUSH0 REVERT JUMPDEST PUSH32 0x4E487B7100000000000000000000000000000000000000000000000000000000 PUSH0 MSTORE PUSH1 0x11 PUSH1 0x4 MSTORE PUSH1 0x24 PUSH0 REVERT JUMPDEST PUSH0 PUSH2 0x1291 DUP3 PUSH2 0xD56 JUMP JUMPDEST SWAP2 POP PUSH2 0x129C DUP4 PUSH2 0xD56 JUMP JUMPDEST SWAP3 POP DUP3 DUP3 ADD SWAP1 POP DUP1 DUP3 GT ISZERO PUSH2 0x12B4 JUMPI PUSH2 0x12B3 PUSH2 0x125A JUMP JUMPDEST JUMPDEST SWAP3 SWAP2 POP POP JUMP JUMPDEST PUSH32 0x596F7520616C726561647920766F7465642E0000000000000000000000000000 PUSH0 DUP3 ADD MSTORE POP JUMP JUMPDEST PUSH0 PUSH2 0x12EE PUSH1 0x12 DUP4 PUSH2 0xFE8 JUMP JUMPDEST SWAP2 POP PUSH2 0x12F9 DUP3 PUSH2 0x12BA JUMP JUMPDEST PUSH1 0x20 DUP3 ADD SWAP1 POP SWAP2 SWAP1 POP JUMP JUMPDEST PUSH0 PUSH1 0x20 DUP3 ADD SWAP1 POP DUP2 DUP2 SUB PUSH0 DUP4 ADD MSTORE PUSH2 0x131B DUP2 PUSH2 0x12E2 JUMP JUMPDEST SWAP1 POP SWAP2 SWAP1 POP JUMP JUMPDEST PUSH32 0x53656C662D64656C65676174696F6E20697320646973616C6C6F7765642E0000 PUSH0 DUP3 ADD MSTORE POP JUMP JUMPDEST PUSH0 PUSH2 0x1356 PUSH1 0x1E DUP4 PUSH2 0xFE8 JUMP JUMPDEST SWAP2 POP PUSH2 0x1361 DUP3 PUSH2 0x1322 JUMP JUMPDEST PUSH1 0x20 DUP3 ADD SWAP1 POP SWAP2 SWAP1 POP JUMP JUMPDEST PUSH0 PUSH1 0x20 DUP3 ADD SWAP1 POP DUP2 DUP2 SUB PUSH0 DUP4 ADD MSTORE PUSH2 0x1383 DUP2 PUSH2 0x134A JUMP JUMPDEST SWAP1 POP SWAP2 SWAP1 POP JUMP JUMPDEST PUSH32 0x466F756E64206C6F6F7020696E2064656C65676174696F6E2E00000000000000 PUSH0 DUP3 ADD MSTORE POP JUMP JUMPDEST PUSH0 PUSH2 0x13BE PUSH1 0x19 DUP4 PUSH2 0xFE8 JUMP JUMPDEST SWAP2 POP PUSH2 0x13C9 DUP3 PUSH2 0x138A JUMP JUMPDEST PUSH1 0x20 DUP3 ADD SWAP1 POP SWAP2 SWAP1 POP JUMP JUMPDEST PUSH0 PUSH1 0x20 DUP3 ADD SWAP1 POP DUP2 DUP2 SUB PUSH0 DUP4 ADD MSTORE PUSH2 0x13EB DUP2 PUSH2 0x13B2 JUMP JUMPDEST SWAP1 POP SWAP2 SWAP1 POP JUMP JUMPDEST PUSH32 0x4F6E6C79206368616972706572736F6E2063616E206769766520726967687420 PUSH0 DUP3 ADD MSTORE PUSH32 0x746F20766F74652E000000000000000000000000000000000000000000000000 PUSH1 0x20 DUP3 ADD MSTORE POP JUMP JUMPDEST PUSH0 PUSH2 0x144C PUSH1 0x28 DUP4 PUSH2 0xFE8 JUMP JUMPDEST SWAP2 POP PUSH2 0x1457 DUP3 PUSH2 0x13F2 JUMP JUMPDEST PUSH1 0x40 DUP3 ADD SWAP1 POP SWAP2 SWAP1 POP JUMP JUMPDEST PUSH0 PUSH1 0x20 DUP3 ADD SWAP1 POP DUP2 DUP2 SUB PUSH0 DUP4 ADD MSTORE PUSH2 0x1479 DUP2 PUSH2 0x1440 JUMP JUMPDEST SWAP1 POP SWAP2 SWAP1 POP JUMP JUMPDEST PUSH32 0x54686520766F74657220616C726561647920766F7465642E0000000000000000 PUSH0 DUP3 ADD MSTORE POP JUMP JUMPDEST PUSH0 PUSH2 0x14B4 PUSH1 0x18 DUP4 PUSH2 0xFE8 JUMP JUMPDEST SWAP2 POP PUSH2 0x14BF DUP3 PUSH2 0x1480 JUMP JUMPDEST PUSH1 0x20 DUP3 ADD SWAP1 POP SWAP2 SWAP1 POP JUMP JUMPDEST PUSH0 PUSH1 0x20 DUP3 ADD SWAP1 POP DUP2 DUP2 SUB PUSH0 DUP4 ADD MSTORE PUSH2 0x14E1 DUP2 PUSH2 0x14A8 JUMP JUMPDEST SWAP1 POP SWAP2 SWAP1 POP JUMP JUMPDEST PUSH32 0x4E487B7100000000000000000000000000000000000000000000000000000000 PUSH0 MSTORE PUSH1 0x22 PUSH1 0x4 MSTORE PUSH1 0x24 PUSH0 REVERT JUMPDEST PUSH0 PUSH1 0x2 DUP3 DIV SWAP1 POP PUSH1 0x1 DUP3 AND DUP1 PUSH2 0x152C JUMPI PUSH1 0x7F DUP3 AND SWAP2 POP JUMPDEST PUSH1 0x20 DUP3 LT DUP2 SUB PUSH2 0x153F JUMPI PUSH2 0x153E PUSH2 0x14E8 JUMP JUMPDEST JUMPDEST POP SWAP2 SWAP1 POP JUMP JUMPDEST PUSH0 PUSH2 0x154F DUP3 PUSH2 0xD56 JUMP JUMPDEST SWAP2 POP PUSH32 0xFFFFFFFFFFFFFFFFFFFFFFFFFFFFFFFFFFFFFFFFFFFFFFFFFFFFFFFFFFFFFFFF DUP3 SUB PUSH2 0x1581 JUMPI PUSH2 0x1580 PUSH2 0x125A JUMP JUMPDEST JUMPDEST PUSH1 0x1 DUP3 ADD SWAP1 POP SWAP2 SWAP1 POP JUMP JUMPDEST PUSH0 PUSH1 0x80 DUP3 ADD SWAP1 POP PUSH2 0x159F PUSH0 DUP4 ADD DUP8 PUSH2 0xE32 JUMP JUMPDEST PUSH2 0x15AC PUSH1 0x20 DUP4 ADD DUP7 PUSH2 0xDCC JUMP JUMPDEST DUP2 DUP2 SUB PUSH1 0x40 DUP4 ADD MSTORE PUSH2 0x15BE DUP2 DUP6 PUSH2 0x1105 JUMP JUMPDEST SWAP1 POP PUSH2 0x15CD PUSH1 0x60 DUP4 ADD DUP5 PUSH2 0xDBD JUMP JUMPDEST SWAP6 SWAP5 POP POP POP POP POP JUMP JUMPDEST PUSH0 DUP2 SWAP1 POP SWAP3 SWAP2 POP POP JUMP JUMPDEST PUSH0 DUP2 SWAP1 POP DUP2 PUSH0 MSTORE PUSH1 0x20 PUSH0 KECCAK256 SWAP1 POP SWAP2 SWAP1 POP JUMP JUMPDEST PUSH0 DUP2 SLOAD PUSH2 0x15FE DUP2 PUSH2 0x1515 JUMP JUMPDEST PUSH2 0x1608 DUP2 DUP7 PUSH2 0x15D6 JUMP JUMPDEST SWAP5 POP PUSH1 0x1 DUP3 AND PUSH0 DUP2 EQ PUSH2 0x1622 JUMPI PUSH1 0x1 DUP2 EQ PUSH2 0x1637 JUMPI PUSH2 0x1669 JUMP JUMPDEST PUSH1 0xFF NOT DUP4 AND DUP7 MSTORE DUP2 ISZERO ISZERO DUP3 MUL DUP7 ADD SWAP4 POP PUSH2 0x1669 JUMP JUMPDEST PUSH2 0x1640 DUP6 PUSH2 0x15E0 JUMP JUMPDEST PUSH0 JUMPDEST DUP4 DUP2 LT ISZERO PUSH2 0x1661 JUMPI DUP2 SLOAD DUP2 DUP10 ADD MSTORE PUSH1 0x1 DUP3 ADD SWAP2 POP PUSH1 0x20 DUP2 ADD SWAP1 POP PUSH2 0x1642 JUMP JUMPDEST DUP4 DUP9 ADD SWAP6 POP POP POP JUMPDEST POP POP POP SWAP3 SWAP2 POP POP JUMP JUMPDEST PUSH0 PUSH2 0x167D DUP3 DUP5 PUSH2 0x15F2 JUMP JUMPDEST SWAP2 POP DUP2 SWAP1 POP SWAP3 SWAP2 POP POP JUMP INVALID LOG2 PUSH5 0x6970667358 0x22 SLT KECCAK256 0xB0 0xF7 MOD RETURNDATASIZE DUP7 0xF7 SWAP14 LOG3 SUB DUP9 SELFDESTRUCT SWAP10 RETURN DUP5 0xDE 0x22 0xB3 PUSH9 0xCF73A7503809AFF320 0xBA 0xB1 MUL ISZERO DUP10 PUSH5 0x736F6C6343 STOP ADDMOD EQ STOP CALLER "
				},
				"gasEstimates": {
					"creation": {
						"codeDepositCost": "1164400",
						"executionCost": "infinite",
						"totalCost": "infinite"
					},
					"external": {
						"chairperson()": "2553",
						"delegate(address)": "infinite",
						"getBallotCallData()": "infinite",
						"getBallotCallDataParams()": "infinite",
						"getBallotProposalId()": "infinite",
						"getBallotProposalParams()": "infinite",
						"getBalootVotingParams()": "infinite",
						"giveRightToVote(address)": "29400",
						"proposals(uint256)": "infinite",
						"vote(uint256)": "infinite",
						"voteCountProposal()": "infinite",
						"voters(address)": "infinite",
						"winnerName()": "infinite"
					}
				},
				"methodIdentifiers": {
					"chairperson()": "2e4176cf",
					"delegate(address)": "5c19a95c",
					"getBallotCallData()": "f8b1b08a",
					"getBallotCallDataParams()": "bc33c7d7",
					"getBallotProposalId()": "ec5bf07b",
					"getBallotProposalParams()": "4731ca2b",
					"getBalootVotingParams()": "b3a05246",
					"giveRightToVote(address)": "9e7b8d61",
					"proposals(uint256)": "013cf08b",
					"vote(uint256)": "0121b93f",
					"voteCountProposal()": "d4564d16",
					"voters(address)": "a3ec138d",
					"winnerName()": "e2ba53f0"
				}
			},
			"storageLayout": {
				"storage": [
					{
						"astId": 32,
						"contract": "contracts/3_Ballot.sol:BallotTCN",
						"label": "_votingParams",
						"offset": 0,
						"slot": "0",
						"type": "t_struct(VOTINGPARAM)29_storage"
					},
					{
						"astId": 44,
						"contract": "contracts/3_Ballot.sol:BallotTCN",
						"label": "_callDataParam",
						"offset": 0,
						"slot": "1",
						"type": "t_struct(CALLDATAPARAM)41_storage"
					},
					{
						"astId": 54,
						"contract": "contracts/3_Ballot.sol:BallotTCN",
						"label": "_proposalParams",
						"offset": 0,
						"slot": "5",
						"type": "t_struct(PROPOSALPARAM)51_storage"
					},
					{
						"astId": 56,
						"contract": "contracts/3_Ballot.sol:BallotTCN",
						"label": "chairperson",
						"offset": 0,
						"slot": "8",
						"type": "t_address"
					},
					{
						"astId": 60,
						"contract": "contracts/3_Ballot.sol:BallotTCN",
						"label": "_targetConnectors",
						"offset": 0,
						"slot": "9",
						"type": "t_mapping(t_address,t_address)"
					},
					{
						"astId": 65,
						"contract": "contracts/3_Ballot.sol:BallotTCN",
						"label": "voters",
						"offset": 0,
						"slot": "10",
						"type": "t_mapping(t_address,t_struct(Voter)15_storage)"
					},
					{
						"astId": 69,
						"contract": "contracts/3_Ballot.sol:BallotTCN",
						"label": "proposals",
						"offset": 0,
						"slot": "11",
						"type": "t_array(t_struct(Proposal)20_storage)dyn_storage"
					}
				],
				"types": {
					"t_address": {
						"encoding": "inplace",
						"label": "address",
						"numberOfBytes": "20"
					},
					"t_array(t_struct(Proposal)20_storage)dyn_storage": {
						"base": "t_struct(Proposal)20_storage",
						"encoding": "dynamic_array",
						"label": "struct BallotTCN.Proposal[]",
						"numberOfBytes": "32"
					},
					"t_bool": {
						"encoding": "inplace",
						"label": "bool",
						"numberOfBytes": "1"
					},
					"t_bytes32": {
						"encoding": "inplace",
						"label": "bytes32",
						"numberOfBytes": "32"
					},
					"t_mapping(t_address,t_address)": {
						"encoding": "mapping",
						"key": "t_address",
						"label": "mapping(address => address)",
						"numberOfBytes": "32",
						"value": "t_address"
					},
					"t_mapping(t_address,t_struct(Voter)15_storage)": {
						"encoding": "mapping",
						"key": "t_address",
						"label": "mapping(address => struct BallotTCN.Voter)",
						"numberOfBytes": "32",
						"value": "t_struct(Voter)15_storage"
					},
					"t_string_storage": {
						"encoding": "bytes",
						"label": "string",
						"numberOfBytes": "32"
					},
					"t_struct(CALLDATAPARAM)41_storage": {
						"encoding": "inplace",
						"label": "struct BallotTCN.CALLDATAPARAM",
						"members": [
							{
								"astId": 34,
								"contract": "contracts/3_Ballot.sol:BallotTCN",
								"label": "signature",
								"offset": 0,
								"slot": "0",
								"type": "t_string_storage"
							},
							{
								"astId": 36,
								"contract": "contracts/3_Ballot.sol:BallotTCN",
								"label": "description",
								"offset": 0,
								"slot": "1",
								"type": "t_string_storage"
							},
							{
								"astId": 38,
								"contract": "contracts/3_Ballot.sol:BallotTCN",
								"label": "descriptionHash",
								"offset": 0,
								"slot": "2",
								"type": "t_bytes32"
							},
							{
								"astId": 40,
								"contract": "contracts/3_Ballot.sol:BallotTCN",
								"label": "governance",
								"offset": 0,
								"slot": "3",
								"type": "t_address"
							}
						],
						"numberOfBytes": "128"
					},
					"t_struct(PROPOSALPARAM)51_storage": {
						"encoding": "inplace",
						"label": "struct BallotTCN.PROPOSALPARAM",
						"members": [
							{
								"astId": 46,
								"contract": "contracts/3_Ballot.sol:BallotTCN",
								"label": "target",
								"offset": 0,
								"slot": "0",
								"type": "t_address"
							},
							{
								"astId": 48,
								"contract": "contracts/3_Ballot.sol:BallotTCN",
								"label": "proposer",
								"offset": 0,
								"slot": "1",
								"type": "t_address"
							},
							{
								"astId": 50,
								"contract": "contracts/3_Ballot.sol:BallotTCN",
								"label": "value",
								"offset": 0,
								"slot": "2",
								"type": "t_uint256"
							}
						],
						"numberOfBytes": "96"
					},
					"t_struct(Proposal)20_storage": {
						"encoding": "inplace",
						"label": "struct BallotTCN.Proposal",
						"members": [
							{
								"astId": 17,
								"contract": "contracts/3_Ballot.sol:BallotTCN",
								"label": "name",
								"offset": 0,
								"slot": "0",
								"type": "t_bytes32"
							},
							{
								"astId": 19,
								"contract": "contracts/3_Ballot.sol:BallotTCN",
								"label": "voteCount",
								"offset": 0,
								"slot": "1",
								"type": "t_uint256"
							}
						],
						"numberOfBytes": "64"
					},
					"t_struct(VOTINGPARAM)29_storage": {
						"encoding": "inplace",
						"label": "struct BallotTCN.VOTINGPARAM",
						"members": [
							{
								"astId": 22,
								"contract": "contracts/3_Ballot.sol:BallotTCN",
								"label": "quorum",
								"offset": 0,
								"slot": "0",
								"type": "t_uint16"
							},
							{
								"astId": 24,
								"contract": "contracts/3_Ballot.sol:BallotTCN",
								"label": "voteDuration",
								"offset": 2,
								"slot": "0",
								"type": "t_uint32"
							},
							{
								"astId": 26,
								"contract": "contracts/3_Ballot.sol:BallotTCN",
								"label": "voteStart",
								"offset": 6,
								"slot": "0",
								"type": "t_uint48"
							},
							{
								"astId": 28,
								"contract": "contracts/3_Ballot.sol:BallotTCN",
								"label": "etaSeconds",
								"offset": 12,
								"slot": "0",
								"type": "t_uint48"
							}
						],
						"numberOfBytes": "32"
					},
					"t_struct(Voter)15_storage": {
						"encoding": "inplace",
						"label": "struct BallotTCN.Voter",
						"members": [
							{
								"astId": 8,
								"contract": "contracts/3_Ballot.sol:BallotTCN",
								"label": "weight",
								"offset": 0,
								"slot": "0",
								"type": "t_uint256"
							},
							{
								"astId": 10,
								"contract": "contracts/3_Ballot.sol:BallotTCN",
								"label": "voted",
								"offset": 0,
								"slot": "1",
								"type": "t_bool"
							},
							{
								"astId": 12,
								"contract": "contracts/3_Ballot.sol:BallotTCN",
								"label": "delegate",
								"offset": 1,
								"slot": "1",
								"type": "t_address"
							},
							{
								"astId": 14,
								"contract": "contracts/3_Ballot.sol:BallotTCN",
								"label": "vote",
								"offset": 0,
								"slot": "2",
								"type": "t_uint256"
							}
						],
						"numberOfBytes": "96"
					},
					"t_uint16": {
						"encoding": "inplace",
						"label": "uint16",
						"numberOfBytes": "2"
					},
					"t_uint256": {
						"encoding": "inplace",
						"label": "uint256",
						"numberOfBytes": "32"
					},
					"t_uint32": {
						"encoding": "inplace",
						"label": "uint32",
						"numberOfBytes": "4"
					},
					"t_uint48": {
						"encoding": "inplace",
						"label": "uint48",
						"numberOfBytes": "6"
					}
				}
			},
			"userdoc": {
				"kind": "user",
				"methods": {},
				"version": 1
			}
		}
	}
}