{
	"contracts/storageTokenContractName.sol": {
		"storageTCN": {
			"abi": [
				{
					"inputs": [
						{
							"internalType": "uint256",
							"name": "proposalState",
							"type": "uint256"
						}
					],
					"name": "stateIsInvalid",
					"type": "error"
				},
				{
					"inputs": [
						{
							"internalType": "uint16",
							"name": "quorumProposal",
							"type": "uint16"
						}
					],
					"name": "isQuorumValid",
					"outputs": [
						{
							"internalType": "bool",
							"name": "",
							"type": "bool"
						}
					],
					"stateMutability": "view",
					"type": "function"
				},
				{
					"inputs": [
						{
							"internalType": "uint256",
							"name": "proposalId",
							"type": "uint256"
						}
					],
					"name": "proposals",
					"outputs": [
						{
							"components": [
								{
									"internalType": "address",
									"name": "proposer",
									"type": "address"
								},
								{
									"internalType": "address",
									"name": "ballotContract",
									"type": "address"
								},
								{
									"internalType": "uint16",
									"name": "quorum",
									"type": "uint16"
								},
								{
									"internalType": "uint32",
									"name": "voteDuration",
									"type": "uint32"
								},
								{
									"internalType": "uint48",
									"name": "voteStart",
									"type": "uint48"
								},
								{
									"internalType": "uint48",
									"name": "etaSeconds",
									"type": "uint48"
								},
								{
									"internalType": "bool",
									"name": "executed",
									"type": "bool"
								},
								{
									"internalType": "bool",
									"name": "canceled",
									"type": "bool"
								},
								{
									"internalType": "bool",
									"name": "Succeeded",
									"type": "bool"
								},
								{
									"internalType": "bool",
									"name": "Defeated",
									"type": "bool"
								}
							],
							"internalType": "struct storageTCN.ProposalCore",
							"name": "",
							"type": "tuple"
						}
					],
					"stateMutability": "view",
					"type": "function"
				},
				{
					"inputs": [
						{
							"internalType": "uint48",
							"name": "time",
							"type": "uint48"
						},
						{
							"internalType": "uint16",
							"name": "tokenId",
							"type": "uint16"
						},
						{
							"internalType": "bytes32",
							"name": "varName",
							"type": "bytes32"
						}
					],
					"name": "setActivityTimeToken",
					"outputs": [],
					"stateMutability": "nonpayable",
					"type": "function"
				},
				{
					"inputs": [
						{
							"internalType": "uint256",
							"name": "proposalState",
							"type": "uint256"
						},
						{
							"internalType": "uint256",
							"name": "proposalId",
							"type": "uint256"
						}
					],
					"name": "setProposalState",
					"outputs": [],
					"stateMutability": "nonpayable",
					"type": "function"
				}
			],
			"devdoc": {
				"kind": "dev",
				"methods": {},
				"version": 1
			},
			"evm": {
				"assembly": "    /* \"contracts/storageTokenContractName.sol\":75:3431  contract storageTCN {... */\n  mstore(0x40, 0x80)\n  callvalue\n  dup1\n  iszero\n  tag_1\n  jumpi\n  0x00\n  dup1\n  revert\ntag_1:\n  pop\n  dataSize(sub_0)\n  dup1\n  dataOffset(sub_0)\n  0x00\n  codecopy\n  0x00\n  return\nstop\n\nsub_0: assembly {\n        /* \"contracts/storageTokenContractName.sol\":75:3431  contract storageTCN {... */\n      mstore(0x40, 0x80)\n      callvalue\n      dup1\n      iszero\n      tag_1\n      jumpi\n      0x00\n      dup1\n      revert\n    tag_1:\n      pop\n      jumpi(tag_2, lt(calldatasize, 0x04))\n      shr(0xe0, calldataload(0x00))\n      dup1\n      0x013cf08b\n      eq\n      tag_3\n      jumpi\n      dup1\n      0x0702718e\n      eq\n      tag_4\n      jumpi\n      dup1\n      0x1e9608a8\n      eq\n      tag_5\n      jumpi\n      dup1\n      0x990492f5\n      eq\n      tag_6\n      jumpi\n    tag_2:\n      0x00\n      dup1\n      revert\n        /* \"contracts/storageTokenContractName.sol\":2719:2848  function proposals(uint256 proposalId) public view returns (ProposalCore memory) {... */\n    tag_3:\n      tag_7\n      0x04\n      dup1\n      calldatasize\n      sub\n      dup2\n      add\n      swap1\n      tag_8\n      swap2\n      swap1\n      tag_9\n      jump\t// in\n    tag_8:\n      tag_10\n      jump\t// in\n    tag_7:\n      mload(0x40)\n      tag_11\n      swap2\n      swap1\n      tag_12\n      jump\t// in\n    tag_11:\n      mload(0x40)\n      dup1\n      swap2\n      sub\n      swap1\n      return\n        /* \"contracts/storageTokenContractName.sol\":2048:2711  function isQuorumValid(uint16 quorumProposal) public view returns (bool) {... */\n    tag_4:\n      tag_13\n      0x04\n      dup1\n      calldatasize\n      sub\n      dup2\n      add\n      swap1\n      tag_14\n      swap2\n      swap1\n      tag_15\n      jump\t// in\n    tag_14:\n      tag_16\n      jump\t// in\n    tag_13:\n      mload(0x40)\n      tag_17\n      swap2\n      swap1\n      tag_18\n      jump\t// in\n    tag_17:\n      mload(0x40)\n      dup1\n      swap2\n      sub\n      swap1\n      return\n        /* \"contracts/storageTokenContractName.sol\":2856:3426  function setProposalState(uint256 proposalState, uint256 proposalId) public {... */\n    tag_5:\n      tag_19\n      0x04\n      dup1\n      calldatasize\n      sub\n      dup2\n      add\n      swap1\n      tag_20\n      swap2\n      swap1\n      tag_21\n      jump\t// in\n    tag_20:\n      tag_22\n      jump\t// in\n    tag_19:\n      stop\n        /* \"contracts/storageTokenContractName.sol\":862:2040  function setActivityTimeToken(uint48 time, uint16 tokenId, bytes32 varName) public {... */\n    tag_6:\n      tag_23\n      0x04\n      dup1\n      calldatasize\n      sub\n      dup2\n      add\n      swap1\n      tag_24\n      swap2\n      swap1\n      tag_25\n      jump\t// in\n    tag_24:\n      tag_26\n      jump\t// in\n    tag_23:\n      stop\n        /* \"contracts/storageTokenContractName.sol\":2719:2848  function proposals(uint256 proposalId) public view returns (ProposalCore memory) {... */\n    tag_10:\n        /* \"contracts/storageTokenContractName.sol\":2779:2798  ProposalCore memory */\n      tag_27\n      tag_28\n      jump\t// in\n    tag_27:\n        /* \"contracts/storageTokenContractName.sol\":2818:2828  _proposals */\n      0x03c4\n        /* \"contracts/storageTokenContractName.sol\":2818:2840  _proposals[proposalId] */\n      0x00\n        /* \"contracts/storageTokenContractName.sol\":2829:2839  proposalId */\n      dup4\n        /* \"contracts/storageTokenContractName.sol\":2818:2840  _proposals[proposalId] */\n      dup2\n      mstore\n      0x20\n      add\n      swap1\n      dup2\n      mstore\n      0x20\n      add\n      0x00\n      keccak256\n        /* \"contracts/storageTokenContractName.sol\":2811:2840  return _proposals[proposalId] */\n      mload(0x40)\n      dup1\n      0x0140\n      add\n      0x40\n      mstore\n      swap1\n      dup2\n      0x00\n      dup3\n      add\n      0x00\n      swap1\n      sload\n      swap1\n      0x0100\n      exp\n      swap1\n      div\n      0xffffffffffffffffffffffffffffffffffffffff\n      and\n      0xffffffffffffffffffffffffffffffffffffffff\n      and\n      0xffffffffffffffffffffffffffffffffffffffff\n      and\n      dup2\n      mstore\n      0x20\n      add\n      0x01\n      dup3\n      add\n      0x00\n      swap1\n      sload\n      swap1\n      0x0100\n      exp\n      swap1\n      div\n      0xffffffffffffffffffffffffffffffffffffffff\n      and\n      0xffffffffffffffffffffffffffffffffffffffff\n      and\n      0xffffffffffffffffffffffffffffffffffffffff\n      and\n      dup2\n      mstore\n      0x20\n      add\n      0x01\n      dup3\n      add\n      0x14\n      swap1\n      sload\n      swap1\n      0x0100\n      exp\n      swap1\n      div\n      0xffff\n      and\n      0xffff\n      and\n      0xffff\n      and\n      dup2\n      mstore\n      0x20\n      add\n      0x01\n      dup3\n      add\n      0x16\n      swap1\n      sload\n      swap1\n      0x0100\n      exp\n      swap1\n      div\n      0xffffffff\n      and\n      0xffffffff\n      and\n      0xffffffff\n      and\n      dup2\n      mstore\n      0x20\n      add\n      0x01\n      dup3\n      add\n      0x1a\n      swap1\n      sload\n      swap1\n      0x0100\n      exp\n      swap1\n      div\n      0xffffffffffff\n      and\n      0xffffffffffff\n      and\n      0xffffffffffff\n      and\n      dup2\n      mstore\n      0x20\n      add\n      0x02\n      dup3\n      add\n      0x00\n      swap1\n      sload\n      swap1\n      0x0100\n      exp\n      swap1\n      div\n      0xffffffffffff\n      and\n      0xffffffffffff\n      and\n      0xffffffffffff\n      and\n      dup2\n      mstore\n      0x20\n      add\n      0x02\n      dup3\n      add\n      0x06\n      swap1\n      sload\n      swap1\n      0x0100\n      exp\n      swap1\n      div\n      0xff\n      and\n      iszero\n      iszero\n      iszero\n      iszero\n      dup2\n      mstore\n      0x20\n      add\n      0x02\n      dup3\n      add\n      0x07\n      swap1\n      sload\n      swap1\n      0x0100\n      exp\n      swap1\n      div\n      0xff\n      and\n      iszero\n      iszero\n      iszero\n      iszero\n      dup2\n      mstore\n      0x20\n      add\n      0x02\n      dup3\n      add\n      0x08\n      swap1\n      sload\n      swap1\n      0x0100\n      exp\n      swap1\n      div\n      0xff\n      and\n      iszero\n      iszero\n      iszero\n      iszero\n      dup2\n      mstore\n      0x20\n      add\n      0x02\n      dup3\n      add\n      0x09\n      swap1\n      sload\n      swap1\n      0x0100\n      exp\n      swap1\n      div\n      0xff\n      and\n      iszero\n      iszero\n      iszero\n      iszero\n      dup2\n      mstore\n      pop\n      pop\n      swap1\n      pop\n        /* \"contracts/storageTokenContractName.sol\":2719:2848  function proposals(uint256 proposalId) public view returns (ProposalCore memory) {... */\n      swap2\n      swap1\n      pop\n      jump\t// out\n        /* \"contracts/storageTokenContractName.sol\":2048:2711  function isQuorumValid(uint16 quorumProposal) public view returns (bool) {... */\n    tag_16:\n        /* \"contracts/storageTokenContractName.sol\":2115:2119  bool */\n      0x00\n        /* \"contracts/storageTokenContractName.sol\":2132:2151  uint256 currentTime */\n      dup1\n        /* \"contracts/storageTokenContractName.sol\":2154:2169  block.timestamp */\n      timestamp\n        /* \"contracts/storageTokenContractName.sol\":2132:2169  uint256 currentTime = block.timestamp */\n      swap1\n      pop\n        /* \"contracts/storageTokenContractName.sol\":2180:2197  uint48 sampleTime */\n      0x00\n        /* \"contracts/storageTokenContractName.sol\":2221:2228  60 days */\n      0x4f1a00\n        /* \"contracts/storageTokenContractName.sol\":2207:2218  currentTime */\n      dup3\n        /* \"contracts/storageTokenContractName.sol\":2207:2228  currentTime - 60 days */\n      tag_31\n      swap2\n      swap1\n      tag_32\n      jump\t// in\n    tag_31:\n        /* \"contracts/storageTokenContractName.sol\":2180:2229  uint48 sampleTime = uint48(currentTime - 60 days) */\n      swap1\n      pop\n        /* \"contracts/storageTokenContractName.sol\":2240:2258  uint16 activeToken */\n      0x00\n        /* \"contracts/storageTokenContractName.sol\":2269:2277  uint16 i */\n      dup1\n        /* \"contracts/storageTokenContractName.sol\":2297:2298  1 */\n      0x01\n        /* \"contracts/storageTokenContractName.sol\":2293:2298  i = 1 */\n      swap1\n      pop\n        /* \"contracts/storageTokenContractName.sol\":2288:2520  for (i = 1; i <= 1200; i++) {... */\n    tag_33:\n        /* \"contracts/storageTokenContractName.sol\":2305:2309  1200 */\n      0x04b0\n        /* \"contracts/storageTokenContractName.sol\":2300:2301  i */\n      dup2\n        /* \"contracts/storageTokenContractName.sol\":2300:2309  i <= 1200 */\n      0xffff\n      and\n      gt\n        /* \"contracts/storageTokenContractName.sol\":2288:2520  for (i = 1; i <= 1200; i++) {... */\n      tag_34\n      jumpi\n        /* \"contracts/storageTokenContractName.sol\":2366:2367  0 */\n      0x00\n        /* \"contracts/storageTokenContractName.sol\":2335:2352  activityTimeToken */\n      dup1\n        /* \"contracts/storageTokenContractName.sol\":2335:2359  activityTimeToken.forAny */\n      0x00\n      add\n        /* \"contracts/storageTokenContractName.sol\":2360:2361  i */\n      dup3\n        /* \"contracts/storageTokenContractName.sol\":2335:2362  activityTimeToken.forAny[i] */\n      0xffff\n      and\n      0x04b1\n      dup2\n      lt\n      tag_36\n      jumpi\n      tag_37\n      tag_38\n      jump\t// in\n    tag_37:\n    tag_36:\n      0x05\n      swap2\n      dup3\n      dup3\n      div\n      add\n      swap2\n      swap1\n      mod\n      0x06\n      mul\n      swap1\n      sload\n      swap1\n      0x0100\n      exp\n      swap1\n      div\n      0xffffffffffff\n      and\n        /* \"contracts/storageTokenContractName.sol\":2335:2367  activityTimeToken.forAny[i] == 0 */\n      0xffffffffffff\n      and\n      sub\n        /* \"contracts/storageTokenContractName.sol\":2331:2509  if (activityTimeToken.forAny[i] == 0) {... */\n      iszero\n        /* \"contracts/storageTokenContractName.sol\":2388:2393  break */\n      tag_34\n        /* \"contracts/storageTokenContractName.sol\":2331:2509  if (activityTimeToken.forAny[i] == 0) {... */\n      jumpi\n        /* \"contracts/storageTokenContractName.sol\":2432:2449  activityTimeToken */\n      0x00\n        /* \"contracts/storageTokenContractName.sol\":2432:2456  activityTimeToken.forAny */\n      dup1\n      add\n        /* \"contracts/storageTokenContractName.sol\":2457:2458  i */\n      dup2\n        /* \"contracts/storageTokenContractName.sol\":2432:2459  activityTimeToken.forAny[i] */\n      0xffff\n      and\n      0x04b1\n      dup2\n      lt\n      tag_42\n      jumpi\n      tag_43\n      tag_38\n      jump\t// in\n    tag_43:\n    tag_42:\n      0x05\n      swap2\n      dup3\n      dup3\n      div\n      add\n      swap2\n      swap1\n      mod\n      0x06\n      mul\n      swap1\n      sload\n      swap1\n      0x0100\n      exp\n      swap1\n      div\n      0xffffffffffff\n      and\n        /* \"contracts/storageTokenContractName.sol\":2419:2459  sampleTime < activityTimeToken.forAny[i] */\n      0xffffffffffff\n      and\n        /* \"contracts/storageTokenContractName.sol\":2419:2429  sampleTime */\n      dup4\n        /* \"contracts/storageTokenContractName.sol\":2419:2459  sampleTime < activityTimeToken.forAny[i] */\n      0xffffffffffff\n      and\n      lt\n        /* \"contracts/storageTokenContractName.sol\":2415:2509  if (sampleTime < activityTimeToken.forAny[i]) {... */\n      iszero\n      tag_45\n      jumpi\n        /* \"contracts/storageTokenContractName.sol\":2480:2493  ++activeToken */\n      dup2\n      tag_46\n      swap1\n      tag_47\n      jump\t// in\n    tag_46:\n      swap2\n      pop\n        /* \"contracts/storageTokenContractName.sol\":2415:2509  if (sampleTime < activityTimeToken.forAny[i]) {... */\n    tag_45:\n        /* \"contracts/storageTokenContractName.sol\":2311:2314  i++ */\n      dup1\n      dup1\n      tag_48\n      swap1\n      tag_47\n      jump\t// in\n    tag_48:\n      swap2\n      pop\n      pop\n        /* \"contracts/storageTokenContractName.sol\":2288:2520  for (i = 1; i <= 1200; i++) {... */\n      jump(tag_33)\n    tag_34:\n        /* \"contracts/storageTokenContractName.sol\":2554:2555  2 */\n      0x02\n        /* \"contracts/storageTokenContractName.sol\":2552:2553  i */\n      dup2\n        /* \"contracts/storageTokenContractName.sol\":2552:2555  i/2 */\n      tag_49\n      swap2\n      swap1\n      tag_50\n      jump\t// in\n    tag_49:\n        /* \"contracts/storageTokenContractName.sol\":2534:2556  quorumProposal > (i/2) */\n      0xffff\n      and\n        /* \"contracts/storageTokenContractName.sol\":2534:2548  quorumProposal */\n      dup7\n        /* \"contracts/storageTokenContractName.sol\":2534:2556  quorumProposal > (i/2) */\n      0xffff\n      and\n      gt\n        /* \"contracts/storageTokenContractName.sol\":2530:2703  if (quorumProposal > (i/2)) {... */\n      iszero\n      tag_51\n      jumpi\n        /* \"contracts/storageTokenContractName.sol\":2580:2584  true */\n      0x01\n        /* \"contracts/storageTokenContractName.sol\":2573:2584  return true */\n      swap5\n      pop\n      pop\n      pop\n      pop\n      pop\n      jump(tag_30)\n        /* \"contracts/storageTokenContractName.sol\":2530:2703  if (quorumProposal > (i/2)) {... */\n    tag_51:\n        /* \"contracts/storageTokenContractName.sol\":2644:2646  70 */\n      0x46\n        /* \"contracts/storageTokenContractName.sol\":2637:2640  100 */\n      0x64\n        /* \"contracts/storageTokenContractName.sol\":2622:2633  activeToken */\n      dup4\n        /* \"contracts/storageTokenContractName.sol\":2607:2621  quorumProposal */\n      dup9\n        /* \"contracts/storageTokenContractName.sol\":2607:2633  quorumProposal/activeToken */\n      tag_53\n      swap2\n      swap1\n      tag_50\n      jump\t// in\n    tag_53:\n        /* \"contracts/storageTokenContractName.sol\":2606:2640  (quorumProposal/activeToken) * 100 */\n      tag_54\n      swap2\n      swap1\n      tag_55\n      jump\t// in\n    tag_54:\n        /* \"contracts/storageTokenContractName.sol\":2605:2646  ((quorumProposal/activeToken) * 100) > 70 */\n      0xffff\n      and\n      gt\n        /* \"contracts/storageTokenContractName.sol\":2601:2703  if (((quorumProposal/activeToken) * 100) > 70) {... */\n      iszero\n      tag_56\n      jumpi\n        /* \"contracts/storageTokenContractName.sol\":2670:2674  true */\n      0x01\n        /* \"contracts/storageTokenContractName.sol\":2663:2674  return true */\n      swap5\n      pop\n      pop\n      pop\n      pop\n      pop\n      jump(tag_30)\n        /* \"contracts/storageTokenContractName.sol\":2601:2703  if (((quorumProposal/activeToken) * 100) > 70) {... */\n    tag_56:\n        /* \"contracts/storageTokenContractName.sol\":2698:2703  false */\n      0x00\n        /* \"contracts/storageTokenContractName.sol\":2691:2703  return false */\n      swap5\n      pop\n      pop\n      pop\n      pop\n      pop\n        /* \"contracts/storageTokenContractName.sol\":2048:2711  function isQuorumValid(uint16 quorumProposal) public view returns (bool) {... */\n    tag_30:\n      swap2\n      swap1\n      pop\n      jump\t// out\n        /* \"contracts/storageTokenContractName.sol\":2856:3426  function setProposalState(uint256 proposalState, uint256 proposalId) public {... */\n    tag_22:\n        /* \"contracts/storageTokenContractName.sol\":2952:2965  proposalState */\n      dup2\n        /* \"contracts/storageTokenContractName.sol\":2947:2948  2 */\n      0x02\n        /* \"contracts/storageTokenContractName.sol\":2947:2965  2 >= proposalState */\n      lt\n      iszero\n        /* \"contracts/storageTokenContractName.sol\":2947:2987  2 >= proposalState || proposalState >= 5 */\n      dup1\n      tag_59\n      jumpi\n      pop\n        /* \"contracts/storageTokenContractName.sol\":2986:2987  5 */\n      0x05\n        /* \"contracts/storageTokenContractName.sol\":2969:2982  proposalState */\n      dup3\n        /* \"contracts/storageTokenContractName.sol\":2969:2987  proposalState >= 5 */\n      lt\n      iszero\n        /* \"contracts/storageTokenContractName.sol\":2947:2987  2 >= proposalState || proposalState >= 5 */\n    tag_59:\n        /* \"contracts/storageTokenContractName.sol\":2943:3052  if (2 >= proposalState || proposalState >= 5) {... */\n      iszero\n      tag_60\n      jumpi\n        /* \"contracts/storageTokenContractName.sol\":3026:3039  proposalState */\n      dup2\n        /* \"contracts/storageTokenContractName.sol\":3011:3040  stateIsInvalid(proposalState) */\n      mload(0x40)\n      0x4961771d00000000000000000000000000000000000000000000000000000000\n      dup2\n      mstore\n      0x04\n      add\n      tag_61\n      swap2\n      swap1\n      tag_62\n      jump\t// in\n    tag_61:\n      mload(0x40)\n      dup1\n      swap2\n      sub\n      swap1\n      revert\n        /* \"contracts/storageTokenContractName.sol\":2943:3052  if (2 >= proposalState || proposalState >= 5) {... */\n    tag_60:\n        /* \"contracts/storageTokenContractName.sol\":3083:3084  4 */\n      0x04\n        /* \"contracts/storageTokenContractName.sol\":3066:3079  proposalState */\n      dup3\n        /* \"contracts/storageTokenContractName.sol\":3066:3084  proposalState == 4 */\n      sub\n        /* \"contracts/storageTokenContractName.sol\":3062:3419  if (proposalState == 4) {... */\n      tag_63\n      jumpi\n        /* \"contracts/storageTokenContractName.sol\":3136:3140  true */\n      0x01\n        /* \"contracts/storageTokenContractName.sol\":3101:3111  _proposals */\n      0x03c4\n        /* \"contracts/storageTokenContractName.sol\":3101:3123  _proposals[proposalId] */\n      0x00\n        /* \"contracts/storageTokenContractName.sol\":3112:3122  proposalId */\n      dup4\n        /* \"contracts/storageTokenContractName.sol\":3101:3123  _proposals[proposalId] */\n      dup2\n      mstore\n      0x20\n      add\n      swap1\n      dup2\n      mstore\n      0x20\n      add\n      0x00\n      keccak256\n        /* \"contracts/storageTokenContractName.sol\":3101:3133  _proposals[proposalId].Succeeded */\n      0x02\n      add\n      0x08\n        /* \"contracts/storageTokenContractName.sol\":3101:3140  _proposals[proposalId].Succeeded = true */\n      0x0100\n      exp\n      dup2\n      sload\n      dup2\n      0xff\n      mul\n      not\n      and\n      swap1\n      dup4\n      iszero\n      iszero\n      mul\n      or\n      swap1\n      sstore\n      pop\n        /* \"contracts/storageTokenContractName.sol\":3062:3419  if (proposalState == 4) {... */\n      jump(tag_64)\n    tag_63:\n        /* \"contracts/storageTokenContractName.sol\":3181:3182  3 */\n      0x03\n        /* \"contracts/storageTokenContractName.sol\":3164:3177  proposalState */\n      dup3\n        /* \"contracts/storageTokenContractName.sol\":3164:3182  proposalState == 3 */\n      sub\n        /* \"contracts/storageTokenContractName.sol\":3160:3419  if (proposalState == 3) {... */\n      tag_65\n      jumpi\n        /* \"contracts/storageTokenContractName.sol\":3233:3237  true */\n      0x01\n        /* \"contracts/storageTokenContractName.sol\":3199:3209  _proposals */\n      0x03c4\n        /* \"contracts/storageTokenContractName.sol\":3199:3221  _proposals[proposalId] */\n      0x00\n        /* \"contracts/storageTokenContractName.sol\":3210:3220  proposalId */\n      dup4\n        /* \"contracts/storageTokenContractName.sol\":3199:3221  _proposals[proposalId] */\n      dup2\n      mstore\n      0x20\n      add\n      swap1\n      dup2\n      mstore\n      0x20\n      add\n      0x00\n      keccak256\n        /* \"contracts/storageTokenContractName.sol\":3199:3230  _proposals[proposalId].Defeated */\n      0x02\n      add\n      0x09\n        /* \"contracts/storageTokenContractName.sol\":3199:3237  _proposals[proposalId].Defeated = true */\n      0x0100\n      exp\n      dup2\n      sload\n      dup2\n      0xff\n      mul\n      not\n      and\n      swap1\n      dup4\n      iszero\n      iszero\n      mul\n      or\n      swap1\n      sstore\n      pop\n        /* \"contracts/storageTokenContractName.sol\":3160:3419  if (proposalState == 3) {... */\n      jump(tag_66)\n    tag_65:\n        /* \"contracts/storageTokenContractName.sol\":3278:3279  5 */\n      0x05\n        /* \"contracts/storageTokenContractName.sol\":3261:3274  proposalState */\n      dup3\n        /* \"contracts/storageTokenContractName.sol\":3261:3279  proposalState == 5 */\n      sub\n        /* \"contracts/storageTokenContractName.sol\":3257:3419  if (proposalState == 5) {... */\n      tag_67\n      jumpi\n        /* \"contracts/storageTokenContractName.sol\":3330:3334  true */\n      0x01\n        /* \"contracts/storageTokenContractName.sol\":3296:3306  _proposals */\n      0x03c4\n        /* \"contracts/storageTokenContractName.sol\":3296:3318  _proposals[proposalId] */\n      0x00\n        /* \"contracts/storageTokenContractName.sol\":3307:3317  proposalId */\n      dup4\n        /* \"contracts/storageTokenContractName.sol\":3296:3318  _proposals[proposalId] */\n      dup2\n      mstore\n      0x20\n      add\n      swap1\n      dup2\n      mstore\n      0x20\n      add\n      0x00\n      keccak256\n        /* \"contracts/storageTokenContractName.sol\":3296:3327  _proposals[proposalId].executed */\n      0x02\n      add\n      0x06\n        /* \"contracts/storageTokenContractName.sol\":3296:3334  _proposals[proposalId].executed = true */\n      0x0100\n      exp\n      dup2\n      sload\n      dup2\n      0xff\n      mul\n      not\n      and\n      swap1\n      dup4\n      iszero\n      iszero\n      mul\n      or\n      swap1\n      sstore\n      pop\n        /* \"contracts/storageTokenContractName.sol\":3257:3419  if (proposalState == 5) {... */\n      jump(tag_68)\n    tag_67:\n        /* \"contracts/storageTokenContractName.sol\":3403:3407  true */\n      0x01\n        /* \"contracts/storageTokenContractName.sol\":3369:3379  _proposals */\n      0x03c4\n        /* \"contracts/storageTokenContractName.sol\":3369:3391  _proposals[proposalId] */\n      0x00\n        /* \"contracts/storageTokenContractName.sol\":3380:3390  proposalId */\n      dup4\n        /* \"contracts/storageTokenContractName.sol\":3369:3391  _proposals[proposalId] */\n      dup2\n      mstore\n      0x20\n      add\n      swap1\n      dup2\n      mstore\n      0x20\n      add\n      0x00\n      keccak256\n        /* \"contracts/storageTokenContractName.sol\":3369:3400  _proposals[proposalId].canceled */\n      0x02\n      add\n      0x07\n        /* \"contracts/storageTokenContractName.sol\":3369:3407  _proposals[proposalId].canceled = true */\n      0x0100\n      exp\n      dup2\n      sload\n      dup2\n      0xff\n      mul\n      not\n      and\n      swap1\n      dup4\n      iszero\n      iszero\n      mul\n      or\n      swap1\n      sstore\n      pop\n        /* \"contracts/storageTokenContractName.sol\":3257:3419  if (proposalState == 5) {... */\n    tag_68:\n        /* \"contracts/storageTokenContractName.sol\":3160:3419  if (proposalState == 3) {... */\n    tag_66:\n        /* \"contracts/storageTokenContractName.sol\":3062:3419  if (proposalState == 4) {... */\n    tag_64:\n        /* \"contracts/storageTokenContractName.sol\":2856:3426  function setProposalState(uint256 proposalState, uint256 proposalId) public {... */\n      pop\n      pop\n      jump\t// out\n        /* \"contracts/storageTokenContractName.sol\":862:2040  function setActivityTimeToken(uint48 time, uint16 tokenId, bytes32 varName) public {... */\n    tag_26:\n        /* \"contracts/storageTokenContractName.sol\":956:972  bytes32 varName_ */\n      0x00\n        /* \"contracts/storageTokenContractName.sol\":1002:1009  varName */\n      dup2\n        /* \"contracts/storageTokenContractName.sol\":985:1010  abi.encodePacked(varName) */\n      add(0x20, mload(0x40))\n      tag_70\n      swap2\n      swap1\n      tag_71\n      jump\t// in\n    tag_70:\n      mload(0x40)\n      0x20\n      dup2\n      dup4\n      sub\n      sub\n      dup2\n      mstore\n      swap1\n      0x40\n      mstore\n        /* \"contracts/storageTokenContractName.sol\":975:1011  keccak256(abi.encodePacked(varName)) */\n      dup1\n      mload\n      swap1\n      0x20\n      add\n      keccak256\n        /* \"contracts/storageTokenContractName.sol\":956:1011  bytes32 varName_ = keccak256(abi.encodePacked(varName)) */\n      swap1\n      pop\n        /* \"contracts/storageTokenContractName.sol\":1066:1074  varName_ */\n      dup1\n        /* \"contracts/storageTokenContractName.sol\":1035:1061  abi.encodePacked(\"forAny\") */\n      add(0x20, mload(0x40))\n      tag_72\n      swap1\n      tag_73\n      jump\t// in\n    tag_72:\n      mload(0x40)\n      0x20\n      dup2\n      dup4\n      sub\n      sub\n      dup2\n      mstore\n      swap1\n      0x40\n      mstore\n        /* \"contracts/storageTokenContractName.sol\":1025:1062  keccak256(abi.encodePacked(\"forAny\")) */\n      dup1\n      mload\n      swap1\n      0x20\n      add\n      keccak256\n        /* \"contracts/storageTokenContractName.sol\":1025:1074  keccak256(abi.encodePacked(\"forAny\")) == varName_ */\n      sub\n        /* \"contracts/storageTokenContractName.sol\":1021:2033  if (keccak256(abi.encodePacked(\"forAny\")) == varName_) {... */\n      tag_74\n      jumpi\n        /* \"contracts/storageTokenContractName.sol\":1123:1127  time */\n      dup4\n        /* \"contracts/storageTokenContractName.sol\":1087:1104  activityTimeToken */\n      0x00\n        /* \"contracts/storageTokenContractName.sol\":1087:1111  activityTimeToken.forAny */\n      dup1\n      add\n        /* \"contracts/storageTokenContractName.sol\":1112:1119  tokenId */\n      dup5\n        /* \"contracts/storageTokenContractName.sol\":1087:1120  activityTimeToken.forAny[tokenId] */\n      0xffff\n      and\n      0x04b1\n      dup2\n      lt\n      tag_75\n      jumpi\n      tag_76\n      tag_38\n      jump\t// in\n    tag_76:\n    tag_75:\n      0x05\n      swap2\n      dup3\n      dup3\n      div\n      add\n      swap2\n      swap1\n      mod\n      0x06\n      mul\n        /* \"contracts/storageTokenContractName.sol\":1087:1127  activityTimeToken.forAny[tokenId] = time */\n      0x0100\n      exp\n      dup2\n      sload\n      dup2\n      0xffffffffffff\n      mul\n      not\n      and\n      swap1\n      dup4\n      0xffffffffffff\n      and\n      mul\n      or\n      swap1\n      sstore\n      pop\n        /* \"contracts/storageTokenContractName.sol\":1169:1170  1 */\n      0x01\n        /* \"contracts/storageTokenContractName.sol\":1138:1155  activityTimeToken */\n      0x00\n        /* \"contracts/storageTokenContractName.sol\":1138:1162  activityTimeToken.forAny */\n      dup1\n      add\n        /* \"contracts/storageTokenContractName.sol\":1163:1164  0 */\n      0x00\n        /* \"contracts/storageTokenContractName.sol\":1138:1165  activityTimeToken.forAny[0] */\n      0x04b1\n      dup2\n      lt\n      tag_78\n      jumpi\n      tag_79\n      tag_38\n      jump\t// in\n    tag_79:\n    tag_78:\n      0x05\n      swap2\n      dup3\n      dup3\n      div\n      add\n      swap2\n      swap1\n      mod\n      0x06\n      mul\n        /* \"contracts/storageTokenContractName.sol\":1138:1170  activityTimeToken.forAny[0] += 1 */\n      dup3\n      dup3\n      dup3\n      swap1\n      sload\n      swap1\n      0x0100\n      exp\n      swap1\n      div\n      0xffffffffffff\n      and\n      tag_81\n      swap2\n      swap1\n      tag_82\n      jump\t// in\n    tag_81:\n      swap3\n      pop\n      0x0100\n      exp\n      dup2\n      sload\n      dup2\n      0xffffffffffff\n      mul\n      not\n      and\n      swap1\n      dup4\n      0xffffffffffff\n      and\n      mul\n      or\n      swap1\n      sstore\n      pop\n        /* \"contracts/storageTokenContractName.sol\":1021:2033  if (keccak256(abi.encodePacked(\"forAny\")) == varName_) {... */\n      jump(tag_83)\n    tag_74:\n        /* \"contracts/storageTokenContractName.sol\":1242:1250  varName_ */\n      dup1\n        /* \"contracts/storageTokenContractName.sol\":1201:1237  abi.encodePacked(\"lastPartiAuction\") */\n      add(0x20, mload(0x40))\n      tag_84\n      swap1\n      tag_85\n      jump\t// in\n    tag_84:\n      mload(0x40)\n      0x20\n      dup2\n      dup4\n      sub\n      sub\n      dup2\n      mstore\n      swap1\n      0x40\n      mstore\n        /* \"contracts/storageTokenContractName.sol\":1191:1238  keccak256(abi.encodePacked(\"lastPartiAuction\")) */\n      dup1\n      mload\n      swap1\n      0x20\n      add\n      keccak256\n        /* \"contracts/storageTokenContractName.sol\":1191:1250  keccak256(abi.encodePacked(\"lastPartiAuction\")) == varName_ */\n      sub\n        /* \"contracts/storageTokenContractName.sol\":1187:2033  if (keccak256(abi.encodePacked(\"lastPartiAuction\")) == varName_) {... */\n      tag_86\n      jumpi\n        /* \"contracts/storageTokenContractName.sol\":1299:1303  time */\n      dup4\n        /* \"contracts/storageTokenContractName.sol\":1263:1280  activityTimeToken */\n      0x00\n        /* \"contracts/storageTokenContractName.sol\":1263:1287  activityTimeToken.forAny */\n      dup1\n      add\n        /* \"contracts/storageTokenContractName.sol\":1288:1295  tokenId */\n      dup5\n        /* \"contracts/storageTokenContractName.sol\":1263:1296  activityTimeToken.forAny[tokenId] */\n      0xffff\n      and\n      0x04b1\n      dup2\n      lt\n      tag_87\n      jumpi\n      tag_88\n      tag_38\n      jump\t// in\n    tag_88:\n    tag_87:\n      0x05\n      swap2\n      dup3\n      dup3\n      div\n      add\n      swap2\n      swap1\n      mod\n      0x06\n      mul\n        /* \"contracts/storageTokenContractName.sol\":1263:1303  activityTimeToken.forAny[tokenId] = time */\n      0x0100\n      exp\n      dup2\n      sload\n      dup2\n      0xffffffffffff\n      mul\n      not\n      and\n      swap1\n      dup4\n      0xffffffffffff\n      and\n      mul\n      or\n      swap1\n      sstore\n      pop\n        /* \"contracts/storageTokenContractName.sol\":1345:1346  1 */\n      0x01\n        /* \"contracts/storageTokenContractName.sol\":1314:1331  activityTimeToken */\n      0x00\n        /* \"contracts/storageTokenContractName.sol\":1314:1338  activityTimeToken.forAny */\n      dup1\n      add\n        /* \"contracts/storageTokenContractName.sol\":1339:1340  0 */\n      0x00\n        /* \"contracts/storageTokenContractName.sol\":1314:1341  activityTimeToken.forAny[0] */\n      0x04b1\n      dup2\n      lt\n      tag_90\n      jumpi\n      tag_91\n      tag_38\n      jump\t// in\n    tag_91:\n    tag_90:\n      0x05\n      swap2\n      dup3\n      dup3\n      div\n      add\n      swap2\n      swap1\n      mod\n      0x06\n      mul\n        /* \"contracts/storageTokenContractName.sol\":1314:1346  activityTimeToken.forAny[0] += 1 */\n      dup3\n      dup3\n      dup3\n      swap1\n      sload\n      swap1\n      0x0100\n      exp\n      swap1\n      div\n      0xffffffffffff\n      and\n      tag_93\n      swap2\n      swap1\n      tag_82\n      jump\t// in\n    tag_93:\n      swap3\n      pop\n      0x0100\n      exp\n      dup2\n      sload\n      dup2\n      0xffffffffffff\n      mul\n      not\n      and\n      swap1\n      dup4\n      0xffffffffffff\n      and\n      mul\n      or\n      swap1\n      sstore\n      pop\n        /* \"contracts/storageTokenContractName.sol\":1403:1407  time */\n      dup4\n        /* \"contracts/storageTokenContractName.sol\":1357:1374  activityTimeToken */\n      0x00\n        /* \"contracts/storageTokenContractName.sol\":1357:1391  activityTimeToken.lastPartiAuction */\n      0x01e2\n      add\n        /* \"contracts/storageTokenContractName.sol\":1392:1399  tokenId */\n      dup5\n        /* \"contracts/storageTokenContractName.sol\":1357:1400  activityTimeToken.lastPartiAuction[tokenId] */\n      0xffff\n      and\n      0x04b1\n      dup2\n      lt\n      tag_94\n      jumpi\n      tag_95\n      tag_38\n      jump\t// in\n    tag_95:\n    tag_94:\n      0x05\n      swap2\n      dup3\n      dup3\n      div\n      add\n      swap2\n      swap1\n      mod\n      0x06\n      mul\n        /* \"contracts/storageTokenContractName.sol\":1357:1407  activityTimeToken.lastPartiAuction[tokenId] = time */\n      0x0100\n      exp\n      dup2\n      sload\n      dup2\n      0xffffffffffff\n      mul\n      not\n      and\n      swap1\n      dup4\n      0xffffffffffff\n      and\n      mul\n      or\n      swap1\n      sstore\n      pop\n        /* \"contracts/storageTokenContractName.sol\":1459:1460  1 */\n      0x01\n        /* \"contracts/storageTokenContractName.sol\":1418:1435  activityTimeToken */\n      0x00\n        /* \"contracts/storageTokenContractName.sol\":1418:1452  activityTimeToken.lastPartiAuction */\n      0x01e2\n      add\n        /* \"contracts/storageTokenContractName.sol\":1453:1454  0 */\n      0x00\n        /* \"contracts/storageTokenContractName.sol\":1418:1455  activityTimeToken.lastPartiAuction[0] */\n      0x04b1\n      dup2\n      lt\n      tag_97\n      jumpi\n      tag_98\n      tag_38\n      jump\t// in\n    tag_98:\n    tag_97:\n      0x05\n      swap2\n      dup3\n      dup3\n      div\n      add\n      swap2\n      swap1\n      mod\n      0x06\n      mul\n        /* \"contracts/storageTokenContractName.sol\":1418:1460  activityTimeToken.lastPartiAuction[0] += 1 */\n      dup3\n      dup3\n      dup3\n      swap1\n      sload\n      swap1\n      0x0100\n      exp\n      swap1\n      div\n      0xffffffffffff\n      and\n      tag_100\n      swap2\n      swap1\n      tag_82\n      jump\t// in\n    tag_100:\n      swap3\n      pop\n      0x0100\n      exp\n      dup2\n      sload\n      dup2\n      0xffffffffffff\n      mul\n      not\n      and\n      swap1\n      dup4\n      0xffffffffffff\n      and\n      mul\n      or\n      swap1\n      sstore\n      pop\n        /* \"contracts/storageTokenContractName.sol\":1187:2033  if (keccak256(abi.encodePacked(\"lastPartiAuction\")) == varName_) {... */\n      jump(tag_101)\n    tag_86:\n        /* \"contracts/storageTokenContractName.sol\":1530:1538  varName_ */\n      dup1\n        /* \"contracts/storageTokenContractName.sol\":1491:1525  abi.encodePacked(\"lastSucAuction\") */\n      add(0x20, mload(0x40))\n      tag_102\n      swap1\n      tag_103\n      jump\t// in\n    tag_102:\n      mload(0x40)\n      0x20\n      dup2\n      dup4\n      sub\n      sub\n      dup2\n      mstore\n      swap1\n      0x40\n      mstore\n        /* \"contracts/storageTokenContractName.sol\":1481:1526  keccak256(abi.encodePacked(\"lastSucAuction\")) */\n      dup1\n      mload\n      swap1\n      0x20\n      add\n      keccak256\n        /* \"contracts/storageTokenContractName.sol\":1481:1538  keccak256(abi.encodePacked(\"lastSucAuction\")) == varName_ */\n      sub\n        /* \"contracts/storageTokenContractName.sol\":1477:2033  if (keccak256(abi.encodePacked(\"lastSucAuction\")) == varName_) {... */\n      tag_104\n      jumpi\n        /* \"contracts/storageTokenContractName.sol\":1587:1591  time */\n      dup4\n        /* \"contracts/storageTokenContractName.sol\":1551:1568  activityTimeToken */\n      0x00\n        /* \"contracts/storageTokenContractName.sol\":1551:1575  activityTimeToken.forAny */\n      dup1\n      add\n        /* \"contracts/storageTokenContractName.sol\":1576:1583  tokenId */\n      dup5\n        /* \"contracts/storageTokenContractName.sol\":1551:1584  activityTimeToken.forAny[tokenId] */\n      0xffff\n      and\n      0x04b1\n      dup2\n      lt\n      tag_105\n      jumpi\n      tag_106\n      tag_38\n      jump\t// in\n    tag_106:\n    tag_105:\n      0x05\n      swap2\n      dup3\n      dup3\n      div\n      add\n      swap2\n      swap1\n      mod\n      0x06\n      mul\n        /* \"contracts/storageTokenContractName.sol\":1551:1591  activityTimeToken.forAny[tokenId] = time */\n      0x0100\n      exp\n      dup2\n      sload\n      dup2\n      0xffffffffffff\n      mul\n      not\n      and\n      swap1\n      dup4\n      0xffffffffffff\n      and\n      mul\n      or\n      swap1\n      sstore\n      pop\n        /* \"contracts/storageTokenContractName.sol\":1633:1634  1 */\n      0x01\n        /* \"contracts/storageTokenContractName.sol\":1602:1619  activityTimeToken */\n      0x00\n        /* \"contracts/storageTokenContractName.sol\":1602:1626  activityTimeToken.forAny */\n      dup1\n      add\n        /* \"contracts/storageTokenContractName.sol\":1627:1628  0 */\n      0x00\n        /* \"contracts/storageTokenContractName.sol\":1602:1629  activityTimeToken.forAny[0] */\n      0x04b1\n      dup2\n      lt\n      tag_108\n      jumpi\n      tag_109\n      tag_38\n      jump\t// in\n    tag_109:\n    tag_108:\n      0x05\n      swap2\n      dup3\n      dup3\n      div\n      add\n      swap2\n      swap1\n      mod\n      0x06\n      mul\n        /* \"contracts/storageTokenContractName.sol\":1602:1634  activityTimeToken.forAny[0] += 1 */\n      dup3\n      dup3\n      dup3\n      swap1\n      sload\n      swap1\n      0x0100\n      exp\n      swap1\n      div\n      0xffffffffffff\n      and\n      tag_111\n      swap2\n      swap1\n      tag_82\n      jump\t// in\n    tag_111:\n      swap3\n      pop\n      0x0100\n      exp\n      dup2\n      sload\n      dup2\n      0xffffffffffff\n      mul\n      not\n      and\n      swap1\n      dup4\n      0xffffffffffff\n      and\n      mul\n      or\n      swap1\n      sstore\n      pop\n        /* \"contracts/storageTokenContractName.sol\":1689:1693  time */\n      dup4\n        /* \"contracts/storageTokenContractName.sol\":1645:1662  activityTimeToken */\n      0x00\n        /* \"contracts/storageTokenContractName.sol\":1645:1677  activityTimeToken.lastSucAuction */\n      0x02d3\n      add\n        /* \"contracts/storageTokenContractName.sol\":1678:1685  tokenId */\n      dup5\n        /* \"contracts/storageTokenContractName.sol\":1645:1686  activityTimeToken.lastSucAuction[tokenId] */\n      0xffff\n      and\n      0x04b1\n      dup2\n      lt\n      tag_112\n      jumpi\n      tag_113\n      tag_38\n      jump\t// in\n    tag_113:\n    tag_112:\n      0x05\n      swap2\n      dup3\n      dup3\n      div\n      add\n      swap2\n      swap1\n      mod\n      0x06\n      mul\n        /* \"contracts/storageTokenContractName.sol\":1645:1693  activityTimeToken.lastSucAuction[tokenId] = time */\n      0x0100\n      exp\n      dup2\n      sload\n      dup2\n      0xffffffffffff\n      mul\n      not\n      and\n      swap1\n      dup4\n      0xffffffffffff\n      and\n      mul\n      or\n      swap1\n      sstore\n      pop\n        /* \"contracts/storageTokenContractName.sol\":1743:1744  1 */\n      0x01\n        /* \"contracts/storageTokenContractName.sol\":1704:1721  activityTimeToken */\n      0x00\n        /* \"contracts/storageTokenContractName.sol\":1704:1736  activityTimeToken.lastSucAuction */\n      0x02d3\n      add\n        /* \"contracts/storageTokenContractName.sol\":1737:1738  0 */\n      0x00\n        /* \"contracts/storageTokenContractName.sol\":1704:1739  activityTimeToken.lastSucAuction[0] */\n      0x04b1\n      dup2\n      lt\n      tag_115\n      jumpi\n      tag_116\n      tag_38\n      jump\t// in\n    tag_116:\n    tag_115:\n      0x05\n      swap2\n      dup3\n      dup3\n      div\n      add\n      swap2\n      swap1\n      mod\n      0x06\n      mul\n        /* \"contracts/storageTokenContractName.sol\":1704:1744  activityTimeToken.lastSucAuction[0] += 1 */\n      dup3\n      dup3\n      dup3\n      swap1\n      sload\n      swap1\n      0x0100\n      exp\n      swap1\n      div\n      0xffffffffffff\n      and\n      tag_118\n      swap2\n      swap1\n      tag_82\n      jump\t// in\n    tag_118:\n      swap3\n      pop\n      0x0100\n      exp\n      dup2\n      sload\n      dup2\n      0xffffffffffff\n      mul\n      not\n      and\n      swap1\n      dup4\n      0xffffffffffff\n      and\n      mul\n      or\n      swap1\n      sstore\n      pop\n        /* \"contracts/storageTokenContractName.sol\":1477:2033  if (keccak256(abi.encodePacked(\"lastSucAuction\")) == varName_) {... */\n      jump(tag_119)\n    tag_104:\n        /* \"contracts/storageTokenContractName.sol\":1812:1820  varName_ */\n      dup1\n        /* \"contracts/storageTokenContractName.sol\":1775:1807  abi.encodePacked(\"lastTransfer\") */\n      add(0x20, mload(0x40))\n      tag_120\n      swap1\n      tag_121\n      jump\t// in\n    tag_120:\n      mload(0x40)\n      0x20\n      dup2\n      dup4\n      sub\n      sub\n      dup2\n      mstore\n      swap1\n      0x40\n      mstore\n        /* \"contracts/storageTokenContractName.sol\":1765:1808  keccak256(abi.encodePacked(\"lastTransfer\")) */\n      dup1\n      mload\n      swap1\n      0x20\n      add\n      keccak256\n        /* \"contracts/storageTokenContractName.sol\":1765:1820  keccak256(abi.encodePacked(\"lastTransfer\")) == varName_ */\n      sub\n        /* \"contracts/storageTokenContractName.sol\":1761:2033  if (keccak256(abi.encodePacked(\"lastTransfer\")) == varName_) {... */\n      tag_122\n      jumpi\n        /* \"contracts/storageTokenContractName.sol\":1869:1873  time */\n      dup4\n        /* \"contracts/storageTokenContractName.sol\":1833:1850  activityTimeToken */\n      0x00\n        /* \"contracts/storageTokenContractName.sol\":1833:1857  activityTimeToken.forAny */\n      dup1\n      add\n        /* \"contracts/storageTokenContractName.sol\":1858:1865  tokenId */\n      dup5\n        /* \"contracts/storageTokenContractName.sol\":1833:1866  activityTimeToken.forAny[tokenId] */\n      0xffff\n      and\n      0x04b1\n      dup2\n      lt\n      tag_123\n      jumpi\n      tag_124\n      tag_38\n      jump\t// in\n    tag_124:\n    tag_123:\n      0x05\n      swap2\n      dup3\n      dup3\n      div\n      add\n      swap2\n      swap1\n      mod\n      0x06\n      mul\n        /* \"contracts/storageTokenContractName.sol\":1833:1873  activityTimeToken.forAny[tokenId] = time */\n      0x0100\n      exp\n      dup2\n      sload\n      dup2\n      0xffffffffffff\n      mul\n      not\n      and\n      swap1\n      dup4\n      0xffffffffffff\n      and\n      mul\n      or\n      swap1\n      sstore\n      pop\n        /* \"contracts/storageTokenContractName.sol\":1915:1916  1 */\n      0x01\n        /* \"contracts/storageTokenContractName.sol\":1884:1901  activityTimeToken */\n      0x00\n        /* \"contracts/storageTokenContractName.sol\":1884:1908  activityTimeToken.forAny */\n      dup1\n      add\n        /* \"contracts/storageTokenContractName.sol\":1909:1910  0 */\n      0x00\n        /* \"contracts/storageTokenContractName.sol\":1884:1911  activityTimeToken.forAny[0] */\n      0x04b1\n      dup2\n      lt\n      tag_126\n      jumpi\n      tag_127\n      tag_38\n      jump\t// in\n    tag_127:\n    tag_126:\n      0x05\n      swap2\n      dup3\n      dup3\n      div\n      add\n      swap2\n      swap1\n      mod\n      0x06\n      mul\n        /* \"contracts/storageTokenContractName.sol\":1884:1916  activityTimeToken.forAny[0] += 1 */\n      dup3\n      dup3\n      dup3\n      swap1\n      sload\n      swap1\n      0x0100\n      exp\n      swap1\n      div\n      0xffffffffffff\n      and\n      tag_129\n      swap2\n      swap1\n      tag_82\n      jump\t// in\n    tag_129:\n      swap3\n      pop\n      0x0100\n      exp\n      dup2\n      sload\n      dup2\n      0xffffffffffff\n      mul\n      not\n      and\n      swap1\n      dup4\n      0xffffffffffff\n      and\n      mul\n      or\n      swap1\n      sstore\n      pop\n        /* \"contracts/storageTokenContractName.sol\":1969:1973  time */\n      dup4\n        /* \"contracts/storageTokenContractName.sol\":1927:1944  activityTimeToken */\n      0x00\n        /* \"contracts/storageTokenContractName.sol\":1927:1957  activityTimeToken.lastTransfer */\n      0xf1\n      add\n        /* \"contracts/storageTokenContractName.sol\":1958:1965  tokenId */\n      dup5\n        /* \"contracts/storageTokenContractName.sol\":1927:1966  activityTimeToken.lastTransfer[tokenId] */\n      0xffff\n      and\n      0x04b1\n      dup2\n      lt\n      tag_130\n      jumpi\n      tag_131\n      tag_38\n      jump\t// in\n    tag_131:\n    tag_130:\n      0x05\n      swap2\n      dup3\n      dup3\n      div\n      add\n      swap2\n      swap1\n      mod\n      0x06\n      mul\n        /* \"contracts/storageTokenContractName.sol\":1927:1973  activityTimeToken.lastTransfer[tokenId] = time */\n      0x0100\n      exp\n      dup2\n      sload\n      dup2\n      0xffffffffffff\n      mul\n      not\n      and\n      swap1\n      dup4\n      0xffffffffffff\n      and\n      mul\n      or\n      swap1\n      sstore\n      pop\n        /* \"contracts/storageTokenContractName.sol\":2021:2022  1 */\n      0x01\n        /* \"contracts/storageTokenContractName.sol\":1984:2001  activityTimeToken */\n      0x00\n        /* \"contracts/storageTokenContractName.sol\":1984:2014  activityTimeToken.lastTransfer */\n      0xf1\n      add\n        /* \"contracts/storageTokenContractName.sol\":2015:2016  0 */\n      0x00\n        /* \"contracts/storageTokenContractName.sol\":1984:2017  activityTimeToken.lastTransfer[0] */\n      0x04b1\n      dup2\n      lt\n      tag_133\n      jumpi\n      tag_134\n      tag_38\n      jump\t// in\n    tag_134:\n    tag_133:\n      0x05\n      swap2\n      dup3\n      dup3\n      div\n      add\n      swap2\n      swap1\n      mod\n      0x06\n      mul\n        /* \"contracts/storageTokenContractName.sol\":1984:2022  activityTimeToken.lastTransfer[0] += 1 */\n      dup3\n      dup3\n      dup3\n      swap1\n      sload\n      swap1\n      0x0100\n      exp\n      swap1\n      div\n      0xffffffffffff\n      and\n      tag_136\n      swap2\n      swap1\n      tag_82\n      jump\t// in\n    tag_136:\n      swap3\n      pop\n      0x0100\n      exp\n      dup2\n      sload\n      dup2\n      0xffffffffffff\n      mul\n      not\n      and\n      swap1\n      dup4\n      0xffffffffffff\n      and\n      mul\n      or\n      swap1\n      sstore\n      pop\n        /* \"contracts/storageTokenContractName.sol\":1761:2033  if (keccak256(abi.encodePacked(\"lastTransfer\")) == varName_) {... */\n    tag_122:\n        /* \"contracts/storageTokenContractName.sol\":1477:2033  if (keccak256(abi.encodePacked(\"lastSucAuction\")) == varName_) {... */\n    tag_119:\n        /* \"contracts/storageTokenContractName.sol\":1187:2033  if (keccak256(abi.encodePacked(\"lastPartiAuction\")) == varName_) {... */\n    tag_101:\n        /* \"contracts/storageTokenContractName.sol\":1021:2033  if (keccak256(abi.encodePacked(\"forAny\")) == varName_) {... */\n    tag_83:\n        /* \"contracts/storageTokenContractName.sol\":945:2040  {... */\n      pop\n        /* \"contracts/storageTokenContractName.sol\":862:2040  function setActivityTimeToken(uint48 time, uint16 tokenId, bytes32 varName) public {... */\n      pop\n      pop\n      pop\n      jump\t// out\n    tag_28:\n      mload(0x40)\n      dup1\n      0x0140\n      add\n      0x40\n      mstore\n      dup1\n      and(0xffffffffffffffffffffffffffffffffffffffff, 0x00)\n      dup2\n      mstore\n      0x20\n      add\n      and(0xffffffffffffffffffffffffffffffffffffffff, 0x00)\n      dup2\n      mstore\n      0x20\n      add\n      and(0xffff, 0x00)\n      dup2\n      mstore\n      0x20\n      add\n      and(0xffffffff, 0x00)\n      dup2\n      mstore\n      0x20\n      add\n      and(0xffffffffffff, 0x00)\n      dup2\n      mstore\n      0x20\n      add\n      and(0xffffffffffff, 0x00)\n      dup2\n      mstore\n      0x20\n      add\n      iszero(iszero(0x00))\n      dup2\n      mstore\n      0x20\n      add\n      iszero(iszero(0x00))\n      dup2\n      mstore\n      0x20\n      add\n      iszero(iszero(0x00))\n      dup2\n      mstore\n      0x20\n      add\n      iszero(iszero(0x00))\n      dup2\n      mstore\n      pop\n      swap1\n      jump\t// out\n        /* \"#utility.yul\":88:205   */\n    tag_138:\n        /* \"#utility.yul\":197:198   */\n      0x00\n        /* \"#utility.yul\":194:195   */\n      dup1\n        /* \"#utility.yul\":187:199   */\n      revert\n        /* \"#utility.yul\":334:411   */\n    tag_140:\n        /* \"#utility.yul\":371:378   */\n      0x00\n        /* \"#utility.yul\":400:405   */\n      dup2\n        /* \"#utility.yul\":389:405   */\n      swap1\n      pop\n        /* \"#utility.yul\":334:411   */\n      swap2\n      swap1\n      pop\n      jump\t// out\n        /* \"#utility.yul\":417:539   */\n    tag_141:\n        /* \"#utility.yul\":490:514   */\n      tag_183\n        /* \"#utility.yul\":508:513   */\n      dup2\n        /* \"#utility.yul\":490:514   */\n      tag_140\n      jump\t// in\n    tag_183:\n        /* \"#utility.yul\":483:488   */\n      dup2\n        /* \"#utility.yul\":480:515   */\n      eq\n        /* \"#utility.yul\":470:533   */\n      tag_184\n      jumpi\n        /* \"#utility.yul\":529:530   */\n      0x00\n        /* \"#utility.yul\":526:527   */\n      dup1\n        /* \"#utility.yul\":519:531   */\n      revert\n        /* \"#utility.yul\":470:533   */\n    tag_184:\n        /* \"#utility.yul\":417:539   */\n      pop\n      jump\t// out\n        /* \"#utility.yul\":545:684   */\n    tag_142:\n        /* \"#utility.yul\":591:596   */\n      0x00\n        /* \"#utility.yul\":629:635   */\n      dup2\n        /* \"#utility.yul\":616:636   */\n      calldataload\n        /* \"#utility.yul\":607:636   */\n      swap1\n      pop\n        /* \"#utility.yul\":645:678   */\n      tag_186\n        /* \"#utility.yul\":672:677   */\n      dup2\n        /* \"#utility.yul\":645:678   */\n      tag_141\n      jump\t// in\n    tag_186:\n        /* \"#utility.yul\":545:684   */\n      swap3\n      swap2\n      pop\n      pop\n      jump\t// out\n        /* \"#utility.yul\":690:1019   */\n    tag_9:\n        /* \"#utility.yul\":749:755   */\n      0x00\n        /* \"#utility.yul\":798:800   */\n      0x20\n        /* \"#utility.yul\":786:795   */\n      dup3\n        /* \"#utility.yul\":777:784   */\n      dup5\n        /* \"#utility.yul\":773:796   */\n      sub\n        /* \"#utility.yul\":769:801   */\n      slt\n        /* \"#utility.yul\":766:885   */\n      iszero\n      tag_188\n      jumpi\n        /* \"#utility.yul\":804:883   */\n      tag_189\n      tag_138\n      jump\t// in\n    tag_189:\n        /* \"#utility.yul\":766:885   */\n    tag_188:\n        /* \"#utility.yul\":924:925   */\n      0x00\n        /* \"#utility.yul\":949:1002   */\n      tag_190\n        /* \"#utility.yul\":994:1001   */\n      dup5\n        /* \"#utility.yul\":985:991   */\n      dup3\n        /* \"#utility.yul\":974:983   */\n      dup6\n        /* \"#utility.yul\":970:992   */\n      add\n        /* \"#utility.yul\":949:1002   */\n      tag_142\n      jump\t// in\n    tag_190:\n        /* \"#utility.yul\":939:1002   */\n      swap2\n      pop\n        /* \"#utility.yul\":895:1012   */\n      pop\n        /* \"#utility.yul\":690:1019   */\n      swap3\n      swap2\n      pop\n      pop\n      jump\t// out\n        /* \"#utility.yul\":1025:1151   */\n    tag_143:\n        /* \"#utility.yul\":1062:1069   */\n      0x00\n        /* \"#utility.yul\":1102:1144   */\n      0xffffffffffffffffffffffffffffffffffffffff\n        /* \"#utility.yul\":1095:1100   */\n      dup3\n        /* \"#utility.yul\":1091:1145   */\n      and\n        /* \"#utility.yul\":1080:1145   */\n      swap1\n      pop\n        /* \"#utility.yul\":1025:1151   */\n      swap2\n      swap1\n      pop\n      jump\t// out\n        /* \"#utility.yul\":1157:1253   */\n    tag_144:\n        /* \"#utility.yul\":1194:1201   */\n      0x00\n        /* \"#utility.yul\":1223:1247   */\n      tag_193\n        /* \"#utility.yul\":1241:1246   */\n      dup3\n        /* \"#utility.yul\":1223:1247   */\n      tag_143\n      jump\t// in\n    tag_193:\n        /* \"#utility.yul\":1212:1247   */\n      swap1\n      pop\n        /* \"#utility.yul\":1157:1253   */\n      swap2\n      swap1\n      pop\n      jump\t// out\n        /* \"#utility.yul\":1259:1367   */\n    tag_145:\n        /* \"#utility.yul\":1336:1360   */\n      tag_195\n        /* \"#utility.yul\":1354:1359   */\n      dup2\n        /* \"#utility.yul\":1336:1360   */\n      tag_144\n      jump\t// in\n    tag_195:\n        /* \"#utility.yul\":1331:1334   */\n      dup3\n        /* \"#utility.yul\":1324:1361   */\n      mstore\n        /* \"#utility.yul\":1259:1367   */\n      pop\n      pop\n      jump\t// out\n        /* \"#utility.yul\":1373:1462   */\n    tag_146:\n        /* \"#utility.yul\":1409:1416   */\n      0x00\n        /* \"#utility.yul\":1449:1455   */\n      0xffff\n        /* \"#utility.yul\":1442:1447   */\n      dup3\n        /* \"#utility.yul\":1438:1456   */\n      and\n        /* \"#utility.yul\":1427:1456   */\n      swap1\n      pop\n        /* \"#utility.yul\":1373:1462   */\n      swap2\n      swap1\n      pop\n      jump\t// out\n        /* \"#utility.yul\":1468:1573   */\n    tag_147:\n        /* \"#utility.yul\":1543:1566   */\n      tag_198\n        /* \"#utility.yul\":1560:1565   */\n      dup2\n        /* \"#utility.yul\":1543:1566   */\n      tag_146\n      jump\t// in\n    tag_198:\n        /* \"#utility.yul\":1538:1541   */\n      dup3\n        /* \"#utility.yul\":1531:1567   */\n      mstore\n        /* \"#utility.yul\":1468:1573   */\n      pop\n      pop\n      jump\t// out\n        /* \"#utility.yul\":1579:1672   */\n    tag_148:\n        /* \"#utility.yul\":1615:1622   */\n      0x00\n        /* \"#utility.yul\":1655:1665   */\n      0xffffffff\n        /* \"#utility.yul\":1648:1653   */\n      dup3\n        /* \"#utility.yul\":1644:1666   */\n      and\n        /* \"#utility.yul\":1633:1666   */\n      swap1\n      pop\n        /* \"#utility.yul\":1579:1672   */\n      swap2\n      swap1\n      pop\n      jump\t// out\n        /* \"#utility.yul\":1678:1783   */\n    tag_149:\n        /* \"#utility.yul\":1753:1776   */\n      tag_201\n        /* \"#utility.yul\":1770:1775   */\n      dup2\n        /* \"#utility.yul\":1753:1776   */\n      tag_148\n      jump\t// in\n    tag_201:\n        /* \"#utility.yul\":1748:1751   */\n      dup3\n        /* \"#utility.yul\":1741:1777   */\n      mstore\n        /* \"#utility.yul\":1678:1783   */\n      pop\n      pop\n      jump\t// out\n        /* \"#utility.yul\":1789:1886   */\n    tag_150:\n        /* \"#utility.yul\":1825:1832   */\n      0x00\n        /* \"#utility.yul\":1865:1879   */\n      0xffffffffffff\n        /* \"#utility.yul\":1858:1863   */\n      dup3\n        /* \"#utility.yul\":1854:1880   */\n      and\n        /* \"#utility.yul\":1843:1880   */\n      swap1\n      pop\n        /* \"#utility.yul\":1789:1886   */\n      swap2\n      swap1\n      pop\n      jump\t// out\n        /* \"#utility.yul\":1892:1997   */\n    tag_151:\n        /* \"#utility.yul\":1967:1990   */\n      tag_204\n        /* \"#utility.yul\":1984:1989   */\n      dup2\n        /* \"#utility.yul\":1967:1990   */\n      tag_150\n      jump\t// in\n    tag_204:\n        /* \"#utility.yul\":1962:1965   */\n      dup3\n        /* \"#utility.yul\":1955:1991   */\n      mstore\n        /* \"#utility.yul\":1892:1997   */\n      pop\n      pop\n      jump\t// out\n        /* \"#utility.yul\":2003:2093   */\n    tag_152:\n        /* \"#utility.yul\":2037:2044   */\n      0x00\n        /* \"#utility.yul\":2080:2085   */\n      dup2\n        /* \"#utility.yul\":2073:2086   */\n      iszero\n        /* \"#utility.yul\":2066:2087   */\n      iszero\n        /* \"#utility.yul\":2055:2087   */\n      swap1\n      pop\n        /* \"#utility.yul\":2003:2093   */\n      swap2\n      swap1\n      pop\n      jump\t// out\n        /* \"#utility.yul\":2099:2198   */\n    tag_153:\n        /* \"#utility.yul\":2170:2191   */\n      tag_207\n        /* \"#utility.yul\":2185:2190   */\n      dup2\n        /* \"#utility.yul\":2170:2191   */\n      tag_152\n      jump\t// in\n    tag_207:\n        /* \"#utility.yul\":2165:2168   */\n      dup3\n        /* \"#utility.yul\":2158:2192   */\n      mstore\n        /* \"#utility.yul\":2099:2198   */\n      pop\n      pop\n      jump\t// out\n        /* \"#utility.yul\":2276:4211   */\n    tag_154:\n        /* \"#utility.yul\":2429:2435   */\n      0x0140\n        /* \"#utility.yul\":2424:2427   */\n      dup3\n        /* \"#utility.yul\":2420:2436   */\n      add\n        /* \"#utility.yul\":2522:2526   */\n      0x00\n        /* \"#utility.yul\":2515:2520   */\n      dup3\n        /* \"#utility.yul\":2511:2527   */\n      add\n        /* \"#utility.yul\":2505:2528   */\n      mload\n        /* \"#utility.yul\":2541:2604   */\n      tag_209\n        /* \"#utility.yul\":2598:2602   */\n      0x00\n        /* \"#utility.yul\":2593:2596   */\n      dup6\n        /* \"#utility.yul\":2589:2603   */\n      add\n        /* \"#utility.yul\":2575:2587   */\n      dup3\n        /* \"#utility.yul\":2541:2604   */\n      tag_145\n      jump\t// in\n    tag_209:\n        /* \"#utility.yul\":2446:2614   */\n      pop\n        /* \"#utility.yul\":2706:2710   */\n      0x20\n        /* \"#utility.yul\":2699:2704   */\n      dup3\n        /* \"#utility.yul\":2695:2711   */\n      add\n        /* \"#utility.yul\":2689:2712   */\n      mload\n        /* \"#utility.yul\":2725:2788   */\n      tag_210\n        /* \"#utility.yul\":2782:2786   */\n      0x20\n        /* \"#utility.yul\":2777:2780   */\n      dup6\n        /* \"#utility.yul\":2773:2787   */\n      add\n        /* \"#utility.yul\":2759:2771   */\n      dup3\n        /* \"#utility.yul\":2725:2788   */\n      tag_145\n      jump\t// in\n    tag_210:\n        /* \"#utility.yul\":2624:2798   */\n      pop\n        /* \"#utility.yul\":2882:2886   */\n      0x40\n        /* \"#utility.yul\":2875:2880   */\n      dup3\n        /* \"#utility.yul\":2871:2887   */\n      add\n        /* \"#utility.yul\":2865:2888   */\n      mload\n        /* \"#utility.yul\":2901:2962   */\n      tag_211\n        /* \"#utility.yul\":2956:2960   */\n      0x40\n        /* \"#utility.yul\":2951:2954   */\n      dup6\n        /* \"#utility.yul\":2947:2961   */\n      add\n        /* \"#utility.yul\":2933:2945   */\n      dup3\n        /* \"#utility.yul\":2901:2962   */\n      tag_147\n      jump\t// in\n    tag_211:\n        /* \"#utility.yul\":2808:2972   */\n      pop\n        /* \"#utility.yul\":3062:3066   */\n      0x60\n        /* \"#utility.yul\":3055:3060   */\n      dup3\n        /* \"#utility.yul\":3051:3067   */\n      add\n        /* \"#utility.yul\":3045:3068   */\n      mload\n        /* \"#utility.yul\":3081:3142   */\n      tag_212\n        /* \"#utility.yul\":3136:3140   */\n      0x60\n        /* \"#utility.yul\":3131:3134   */\n      dup6\n        /* \"#utility.yul\":3127:3141   */\n      add\n        /* \"#utility.yul\":3113:3125   */\n      dup3\n        /* \"#utility.yul\":3081:3142   */\n      tag_149\n      jump\t// in\n    tag_212:\n        /* \"#utility.yul\":2982:3152   */\n      pop\n        /* \"#utility.yul\":3239:3243   */\n      0x80\n        /* \"#utility.yul\":3232:3237   */\n      dup3\n        /* \"#utility.yul\":3228:3244   */\n      add\n        /* \"#utility.yul\":3222:3245   */\n      mload\n        /* \"#utility.yul\":3258:3319   */\n      tag_213\n        /* \"#utility.yul\":3313:3317   */\n      0x80\n        /* \"#utility.yul\":3308:3311   */\n      dup6\n        /* \"#utility.yul\":3304:3318   */\n      add\n        /* \"#utility.yul\":3290:3302   */\n      dup3\n        /* \"#utility.yul\":3258:3319   */\n      tag_151\n      jump\t// in\n    tag_213:\n        /* \"#utility.yul\":3162:3329   */\n      pop\n        /* \"#utility.yul\":3417:3421   */\n      0xa0\n        /* \"#utility.yul\":3410:3415   */\n      dup3\n        /* \"#utility.yul\":3406:3422   */\n      add\n        /* \"#utility.yul\":3400:3423   */\n      mload\n        /* \"#utility.yul\":3436:3497   */\n      tag_214\n        /* \"#utility.yul\":3491:3495   */\n      0xa0\n        /* \"#utility.yul\":3486:3489   */\n      dup6\n        /* \"#utility.yul\":3482:3496   */\n      add\n        /* \"#utility.yul\":3468:3480   */\n      dup3\n        /* \"#utility.yul\":3436:3497   */\n      tag_151\n      jump\t// in\n    tag_214:\n        /* \"#utility.yul\":3339:3507   */\n      pop\n        /* \"#utility.yul\":3593:3597   */\n      0xc0\n        /* \"#utility.yul\":3586:3591   */\n      dup3\n        /* \"#utility.yul\":3582:3598   */\n      add\n        /* \"#utility.yul\":3576:3599   */\n      mload\n        /* \"#utility.yul\":3612:3669   */\n      tag_215\n        /* \"#utility.yul\":3663:3667   */\n      0xc0\n        /* \"#utility.yul\":3658:3661   */\n      dup6\n        /* \"#utility.yul\":3654:3668   */\n      add\n        /* \"#utility.yul\":3640:3652   */\n      dup3\n        /* \"#utility.yul\":3612:3669   */\n      tag_153\n      jump\t// in\n    tag_215:\n        /* \"#utility.yul\":3517:3679   */\n      pop\n        /* \"#utility.yul\":3765:3769   */\n      0xe0\n        /* \"#utility.yul\":3758:3763   */\n      dup3\n        /* \"#utility.yul\":3754:3770   */\n      add\n        /* \"#utility.yul\":3748:3771   */\n      mload\n        /* \"#utility.yul\":3784:3841   */\n      tag_216\n        /* \"#utility.yul\":3835:3839   */\n      0xe0\n        /* \"#utility.yul\":3830:3833   */\n      dup6\n        /* \"#utility.yul\":3826:3840   */\n      add\n        /* \"#utility.yul\":3812:3824   */\n      dup3\n        /* \"#utility.yul\":3784:3841   */\n      tag_153\n      jump\t// in\n    tag_216:\n        /* \"#utility.yul\":3689:3851   */\n      pop\n        /* \"#utility.yul\":3938:3944   */\n      0x0100\n        /* \"#utility.yul\":3931:3936   */\n      dup3\n        /* \"#utility.yul\":3927:3945   */\n      add\n        /* \"#utility.yul\":3921:3946   */\n      mload\n        /* \"#utility.yul\":3959:4018   */\n      tag_217\n        /* \"#utility.yul\":4010:4016   */\n      0x0100\n        /* \"#utility.yul\":4005:4008   */\n      dup6\n        /* \"#utility.yul\":4001:4017   */\n      add\n        /* \"#utility.yul\":3987:3999   */\n      dup3\n        /* \"#utility.yul\":3959:4018   */\n      tag_153\n      jump\t// in\n    tag_217:\n        /* \"#utility.yul\":3861:4028   */\n      pop\n        /* \"#utility.yul\":4114:4120   */\n      0x0120\n        /* \"#utility.yul\":4107:4112   */\n      dup3\n        /* \"#utility.yul\":4103:4121   */\n      add\n        /* \"#utility.yul\":4097:4122   */\n      mload\n        /* \"#utility.yul\":4135:4194   */\n      tag_218\n        /* \"#utility.yul\":4186:4192   */\n      0x0120\n        /* \"#utility.yul\":4181:4184   */\n      dup6\n        /* \"#utility.yul\":4177:4193   */\n      add\n        /* \"#utility.yul\":4163:4175   */\n      dup3\n        /* \"#utility.yul\":4135:4194   */\n      tag_153\n      jump\t// in\n    tag_218:\n        /* \"#utility.yul\":4038:4204   */\n      pop\n        /* \"#utility.yul\":2398:4211   */\n      pop\n        /* \"#utility.yul\":2276:4211   */\n      pop\n      pop\n      jump\t// out\n        /* \"#utility.yul\":4217:4552   */\n    tag_12:\n        /* \"#utility.yul\":4366:4370   */\n      0x00\n        /* \"#utility.yul\":4404:4407   */\n      0x0140\n        /* \"#utility.yul\":4393:4402   */\n      dup3\n        /* \"#utility.yul\":4389:4408   */\n      add\n        /* \"#utility.yul\":4381:4408   */\n      swap1\n      pop\n        /* \"#utility.yul\":4418:4545   */\n      tag_220\n        /* \"#utility.yul\":4542:4543   */\n      0x00\n        /* \"#utility.yul\":4531:4540   */\n      dup4\n        /* \"#utility.yul\":4527:4544   */\n      add\n        /* \"#utility.yul\":4518:4524   */\n      dup5\n        /* \"#utility.yul\":4418:4545   */\n      tag_154\n      jump\t// in\n    tag_220:\n        /* \"#utility.yul\":4217:4552   */\n      swap3\n      swap2\n      pop\n      pop\n      jump\t// out\n        /* \"#utility.yul\":4558:4678   */\n    tag_155:\n        /* \"#utility.yul\":4630:4653   */\n      tag_222\n        /* \"#utility.yul\":4647:4652   */\n      dup2\n        /* \"#utility.yul\":4630:4653   */\n      tag_146\n      jump\t// in\n    tag_222:\n        /* \"#utility.yul\":4623:4628   */\n      dup2\n        /* \"#utility.yul\":4620:4654   */\n      eq\n        /* \"#utility.yul\":4610:4672   */\n      tag_223\n      jumpi\n        /* \"#utility.yul\":4668:4669   */\n      0x00\n        /* \"#utility.yul\":4665:4666   */\n      dup1\n        /* \"#utility.yul\":4658:4670   */\n      revert\n        /* \"#utility.yul\":4610:4672   */\n    tag_223:\n        /* \"#utility.yul\":4558:4678   */\n      pop\n      jump\t// out\n        /* \"#utility.yul\":4684:4821   */\n    tag_156:\n        /* \"#utility.yul\":4729:4734   */\n      0x00\n        /* \"#utility.yul\":4767:4773   */\n      dup2\n        /* \"#utility.yul\":4754:4774   */\n      calldataload\n        /* \"#utility.yul\":4745:4774   */\n      swap1\n      pop\n        /* \"#utility.yul\":4783:4815   */\n      tag_225\n        /* \"#utility.yul\":4809:4814   */\n      dup2\n        /* \"#utility.yul\":4783:4815   */\n      tag_155\n      jump\t// in\n    tag_225:\n        /* \"#utility.yul\":4684:4821   */\n      swap3\n      swap2\n      pop\n      pop\n      jump\t// out\n        /* \"#utility.yul\":4827:5154   */\n    tag_15:\n        /* \"#utility.yul\":4885:4891   */\n      0x00\n        /* \"#utility.yul\":4934:4936   */\n      0x20\n        /* \"#utility.yul\":4922:4931   */\n      dup3\n        /* \"#utility.yul\":4913:4920   */\n      dup5\n        /* \"#utility.yul\":4909:4932   */\n      sub\n        /* \"#utility.yul\":4905:4937   */\n      slt\n        /* \"#utility.yul\":4902:5021   */\n      iszero\n      tag_227\n      jumpi\n        /* \"#utility.yul\":4940:5019   */\n      tag_228\n      tag_138\n      jump\t// in\n    tag_228:\n        /* \"#utility.yul\":4902:5021   */\n    tag_227:\n        /* \"#utility.yul\":5060:5061   */\n      0x00\n        /* \"#utility.yul\":5085:5137   */\n      tag_229\n        /* \"#utility.yul\":5129:5136   */\n      dup5\n        /* \"#utility.yul\":5120:5126   */\n      dup3\n        /* \"#utility.yul\":5109:5118   */\n      dup6\n        /* \"#utility.yul\":5105:5127   */\n      add\n        /* \"#utility.yul\":5085:5137   */\n      tag_156\n      jump\t// in\n    tag_229:\n        /* \"#utility.yul\":5075:5137   */\n      swap2\n      pop\n        /* \"#utility.yul\":5031:5147   */\n      pop\n        /* \"#utility.yul\":4827:5154   */\n      swap3\n      swap2\n      pop\n      pop\n      jump\t// out\n        /* \"#utility.yul\":5160:5269   */\n    tag_157:\n        /* \"#utility.yul\":5241:5262   */\n      tag_231\n        /* \"#utility.yul\":5256:5261   */\n      dup2\n        /* \"#utility.yul\":5241:5262   */\n      tag_152\n      jump\t// in\n    tag_231:\n        /* \"#utility.yul\":5236:5239   */\n      dup3\n        /* \"#utility.yul\":5229:5263   */\n      mstore\n        /* \"#utility.yul\":5160:5269   */\n      pop\n      pop\n      jump\t// out\n        /* \"#utility.yul\":5275:5485   */\n    tag_18:\n        /* \"#utility.yul\":5362:5366   */\n      0x00\n        /* \"#utility.yul\":5400:5402   */\n      0x20\n        /* \"#utility.yul\":5389:5398   */\n      dup3\n        /* \"#utility.yul\":5385:5403   */\n      add\n        /* \"#utility.yul\":5377:5403   */\n      swap1\n      pop\n        /* \"#utility.yul\":5413:5478   */\n      tag_233\n        /* \"#utility.yul\":5475:5476   */\n      0x00\n        /* \"#utility.yul\":5464:5473   */\n      dup4\n        /* \"#utility.yul\":5460:5477   */\n      add\n        /* \"#utility.yul\":5451:5457   */\n      dup5\n        /* \"#utility.yul\":5413:5478   */\n      tag_157\n      jump\t// in\n    tag_233:\n        /* \"#utility.yul\":5275:5485   */\n      swap3\n      swap2\n      pop\n      pop\n      jump\t// out\n        /* \"#utility.yul\":5491:5965   */\n    tag_21:\n        /* \"#utility.yul\":5559:5565   */\n      0x00\n        /* \"#utility.yul\":5567:5573   */\n      dup1\n        /* \"#utility.yul\":5616:5618   */\n      0x40\n        /* \"#utility.yul\":5604:5613   */\n      dup4\n        /* \"#utility.yul\":5595:5602   */\n      dup6\n        /* \"#utility.yul\":5591:5614   */\n      sub\n        /* \"#utility.yul\":5587:5619   */\n      slt\n        /* \"#utility.yul\":5584:5703   */\n      iszero\n      tag_235\n      jumpi\n        /* \"#utility.yul\":5622:5701   */\n      tag_236\n      tag_138\n      jump\t// in\n    tag_236:\n        /* \"#utility.yul\":5584:5703   */\n    tag_235:\n        /* \"#utility.yul\":5742:5743   */\n      0x00\n        /* \"#utility.yul\":5767:5820   */\n      tag_237\n        /* \"#utility.yul\":5812:5819   */\n      dup6\n        /* \"#utility.yul\":5803:5809   */\n      dup3\n        /* \"#utility.yul\":5792:5801   */\n      dup7\n        /* \"#utility.yul\":5788:5810   */\n      add\n        /* \"#utility.yul\":5767:5820   */\n      tag_142\n      jump\t// in\n    tag_237:\n        /* \"#utility.yul\":5757:5820   */\n      swap3\n      pop\n        /* \"#utility.yul\":5713:5830   */\n      pop\n        /* \"#utility.yul\":5869:5871   */\n      0x20\n        /* \"#utility.yul\":5895:5948   */\n      tag_238\n        /* \"#utility.yul\":5940:5947   */\n      dup6\n        /* \"#utility.yul\":5931:5937   */\n      dup3\n        /* \"#utility.yul\":5920:5929   */\n      dup7\n        /* \"#utility.yul\":5916:5938   */\n      add\n        /* \"#utility.yul\":5895:5948   */\n      tag_142\n      jump\t// in\n    tag_238:\n        /* \"#utility.yul\":5885:5948   */\n      swap2\n      pop\n        /* \"#utility.yul\":5840:5958   */\n      pop\n        /* \"#utility.yul\":5491:5965   */\n      swap3\n      pop\n      swap3\n      swap1\n      pop\n      jump\t// out\n        /* \"#utility.yul\":5971:6091   */\n    tag_158:\n        /* \"#utility.yul\":6043:6066   */\n      tag_240\n        /* \"#utility.yul\":6060:6065   */\n      dup2\n        /* \"#utility.yul\":6043:6066   */\n      tag_150\n      jump\t// in\n    tag_240:\n        /* \"#utility.yul\":6036:6041   */\n      dup2\n        /* \"#utility.yul\":6033:6067   */\n      eq\n        /* \"#utility.yul\":6023:6085   */\n      tag_241\n      jumpi\n        /* \"#utility.yul\":6081:6082   */\n      0x00\n        /* \"#utility.yul\":6078:6079   */\n      dup1\n        /* \"#utility.yul\":6071:6083   */\n      revert\n        /* \"#utility.yul\":6023:6085   */\n    tag_241:\n        /* \"#utility.yul\":5971:6091   */\n      pop\n      jump\t// out\n        /* \"#utility.yul\":6097:6234   */\n    tag_159:\n        /* \"#utility.yul\":6142:6147   */\n      0x00\n        /* \"#utility.yul\":6180:6186   */\n      dup2\n        /* \"#utility.yul\":6167:6187   */\n      calldataload\n        /* \"#utility.yul\":6158:6187   */\n      swap1\n      pop\n        /* \"#utility.yul\":6196:6228   */\n      tag_243\n        /* \"#utility.yul\":6222:6227   */\n      dup2\n        /* \"#utility.yul\":6196:6228   */\n      tag_158\n      jump\t// in\n    tag_243:\n        /* \"#utility.yul\":6097:6234   */\n      swap3\n      swap2\n      pop\n      pop\n      jump\t// out\n        /* \"#utility.yul\":6240:6317   */\n    tag_160:\n        /* \"#utility.yul\":6277:6284   */\n      0x00\n        /* \"#utility.yul\":6306:6311   */\n      dup2\n        /* \"#utility.yul\":6295:6311   */\n      swap1\n      pop\n        /* \"#utility.yul\":6240:6317   */\n      swap2\n      swap1\n      pop\n      jump\t// out\n        /* \"#utility.yul\":6323:6445   */\n    tag_161:\n        /* \"#utility.yul\":6396:6420   */\n      tag_246\n        /* \"#utility.yul\":6414:6419   */\n      dup2\n        /* \"#utility.yul\":6396:6420   */\n      tag_160\n      jump\t// in\n    tag_246:\n        /* \"#utility.yul\":6389:6394   */\n      dup2\n        /* \"#utility.yul\":6386:6421   */\n      eq\n        /* \"#utility.yul\":6376:6439   */\n      tag_247\n      jumpi\n        /* \"#utility.yul\":6435:6436   */\n      0x00\n        /* \"#utility.yul\":6432:6433   */\n      dup1\n        /* \"#utility.yul\":6425:6437   */\n      revert\n        /* \"#utility.yul\":6376:6439   */\n    tag_247:\n        /* \"#utility.yul\":6323:6445   */\n      pop\n      jump\t// out\n        /* \"#utility.yul\":6451:6590   */\n    tag_162:\n        /* \"#utility.yul\":6497:6502   */\n      0x00\n        /* \"#utility.yul\":6535:6541   */\n      dup2\n        /* \"#utility.yul\":6522:6542   */\n      calldataload\n        /* \"#utility.yul\":6513:6542   */\n      swap1\n      pop\n        /* \"#utility.yul\":6551:6584   */\n      tag_249\n        /* \"#utility.yul\":6578:6583   */\n      dup2\n        /* \"#utility.yul\":6551:6584   */\n      tag_161\n      jump\t// in\n    tag_249:\n        /* \"#utility.yul\":6451:6590   */\n      swap3\n      swap2\n      pop\n      pop\n      jump\t// out\n        /* \"#utility.yul\":6596:7211   */\n    tag_25:\n        /* \"#utility.yul\":6671:6677   */\n      0x00\n        /* \"#utility.yul\":6679:6685   */\n      dup1\n        /* \"#utility.yul\":6687:6693   */\n      0x00\n        /* \"#utility.yul\":6736:6738   */\n      0x60\n        /* \"#utility.yul\":6724:6733   */\n      dup5\n        /* \"#utility.yul\":6715:6722   */\n      dup7\n        /* \"#utility.yul\":6711:6734   */\n      sub\n        /* \"#utility.yul\":6707:6739   */\n      slt\n        /* \"#utility.yul\":6704:6823   */\n      iszero\n      tag_251\n      jumpi\n        /* \"#utility.yul\":6742:6821   */\n      tag_252\n      tag_138\n      jump\t// in\n    tag_252:\n        /* \"#utility.yul\":6704:6823   */\n    tag_251:\n        /* \"#utility.yul\":6862:6863   */\n      0x00\n        /* \"#utility.yul\":6887:6939   */\n      tag_253\n        /* \"#utility.yul\":6931:6938   */\n      dup7\n        /* \"#utility.yul\":6922:6928   */\n      dup3\n        /* \"#utility.yul\":6911:6920   */\n      dup8\n        /* \"#utility.yul\":6907:6929   */\n      add\n        /* \"#utility.yul\":6887:6939   */\n      tag_159\n      jump\t// in\n    tag_253:\n        /* \"#utility.yul\":6877:6939   */\n      swap4\n      pop\n        /* \"#utility.yul\":6833:6949   */\n      pop\n        /* \"#utility.yul\":6988:6990   */\n      0x20\n        /* \"#utility.yul\":7014:7066   */\n      tag_254\n        /* \"#utility.yul\":7058:7065   */\n      dup7\n        /* \"#utility.yul\":7049:7055   */\n      dup3\n        /* \"#utility.yul\":7038:7047   */\n      dup8\n        /* \"#utility.yul\":7034:7056   */\n      add\n        /* \"#utility.yul\":7014:7066   */\n      tag_156\n      jump\t// in\n    tag_254:\n        /* \"#utility.yul\":7004:7066   */\n      swap3\n      pop\n        /* \"#utility.yul\":6959:7076   */\n      pop\n        /* \"#utility.yul\":7115:7117   */\n      0x40\n        /* \"#utility.yul\":7141:7194   */\n      tag_255\n        /* \"#utility.yul\":7186:7193   */\n      dup7\n        /* \"#utility.yul\":7177:7183   */\n      dup3\n        /* \"#utility.yul\":7166:7175   */\n      dup8\n        /* \"#utility.yul\":7162:7184   */\n      add\n        /* \"#utility.yul\":7141:7194   */\n      tag_162\n      jump\t// in\n    tag_255:\n        /* \"#utility.yul\":7131:7194   */\n      swap2\n      pop\n        /* \"#utility.yul\":7086:7204   */\n      pop\n        /* \"#utility.yul\":6596:7211   */\n      swap3\n      pop\n      swap3\n      pop\n      swap3\n      jump\t// out\n        /* \"#utility.yul\":7217:7397   */\n    tag_163:\n        /* \"#utility.yul\":7265:7342   */\n      0x4e487b7100000000000000000000000000000000000000000000000000000000\n        /* \"#utility.yul\":7262:7263   */\n      0x00\n        /* \"#utility.yul\":7255:7343   */\n      mstore\n        /* \"#utility.yul\":7362:7366   */\n      0x11\n        /* \"#utility.yul\":7359:7360   */\n      0x04\n        /* \"#utility.yul\":7352:7367   */\n      mstore\n        /* \"#utility.yul\":7386:7390   */\n      0x24\n        /* \"#utility.yul\":7383:7384   */\n      0x00\n        /* \"#utility.yul\":7376:7391   */\n      revert\n        /* \"#utility.yul\":7403:7597   */\n    tag_32:\n        /* \"#utility.yul\":7443:7447   */\n      0x00\n        /* \"#utility.yul\":7463:7483   */\n      tag_258\n        /* \"#utility.yul\":7481:7482   */\n      dup3\n        /* \"#utility.yul\":7463:7483   */\n      tag_140\n      jump\t// in\n    tag_258:\n        /* \"#utility.yul\":7458:7483   */\n      swap2\n      pop\n        /* \"#utility.yul\":7497:7517   */\n      tag_259\n        /* \"#utility.yul\":7515:7516   */\n      dup4\n        /* \"#utility.yul\":7497:7517   */\n      tag_140\n      jump\t// in\n    tag_259:\n        /* \"#utility.yul\":7492:7517   */\n      swap3\n      pop\n        /* \"#utility.yul\":7541:7542   */\n      dup3\n        /* \"#utility.yul\":7538:7539   */\n      dup3\n        /* \"#utility.yul\":7534:7543   */\n      sub\n        /* \"#utility.yul\":7526:7543   */\n      swap1\n      pop\n        /* \"#utility.yul\":7565:7566   */\n      dup2\n        /* \"#utility.yul\":7559:7563   */\n      dup2\n        /* \"#utility.yul\":7556:7567   */\n      gt\n        /* \"#utility.yul\":7553:7590   */\n      iszero\n      tag_260\n      jumpi\n        /* \"#utility.yul\":7570:7588   */\n      tag_261\n      tag_163\n      jump\t// in\n    tag_261:\n        /* \"#utility.yul\":7553:7590   */\n    tag_260:\n        /* \"#utility.yul\":7403:7597   */\n      swap3\n      swap2\n      pop\n      pop\n      jump\t// out\n        /* \"#utility.yul\":7603:7783   */\n    tag_38:\n        /* \"#utility.yul\":7651:7728   */\n      0x4e487b7100000000000000000000000000000000000000000000000000000000\n        /* \"#utility.yul\":7648:7649   */\n      0x00\n        /* \"#utility.yul\":7641:7729   */\n      mstore\n        /* \"#utility.yul\":7748:7752   */\n      0x32\n        /* \"#utility.yul\":7745:7746   */\n      0x04\n        /* \"#utility.yul\":7738:7753   */\n      mstore\n        /* \"#utility.yul\":7772:7776   */\n      0x24\n        /* \"#utility.yul\":7769:7770   */\n      0x00\n        /* \"#utility.yul\":7762:7777   */\n      revert\n        /* \"#utility.yul\":7789:7960   */\n    tag_47:\n        /* \"#utility.yul\":7827:7830   */\n      0x00\n        /* \"#utility.yul\":7850:7873   */\n      tag_264\n        /* \"#utility.yul\":7867:7872   */\n      dup3\n        /* \"#utility.yul\":7850:7873   */\n      tag_146\n      jump\t// in\n    tag_264:\n        /* \"#utility.yul\":7841:7873   */\n      swap2\n      pop\n        /* \"#utility.yul\":7895:7901   */\n      0xffff\n        /* \"#utility.yul\":7888:7893   */\n      dup3\n        /* \"#utility.yul\":7885:7902   */\n      sub\n        /* \"#utility.yul\":7882:7925   */\n      tag_265\n      jumpi\n        /* \"#utility.yul\":7905:7923   */\n      tag_266\n      tag_163\n      jump\t// in\n    tag_266:\n        /* \"#utility.yul\":7882:7925   */\n    tag_265:\n        /* \"#utility.yul\":7952:7953   */\n      0x01\n        /* \"#utility.yul\":7945:7950   */\n      dup3\n        /* \"#utility.yul\":7941:7954   */\n      add\n        /* \"#utility.yul\":7934:7954   */\n      swap1\n      pop\n        /* \"#utility.yul\":7789:7960   */\n      swap2\n      swap1\n      pop\n      jump\t// out\n        /* \"#utility.yul\":7966:8146   */\n    tag_164:\n        /* \"#utility.yul\":8014:8091   */\n      0x4e487b7100000000000000000000000000000000000000000000000000000000\n        /* \"#utility.yul\":8011:8012   */\n      0x00\n        /* \"#utility.yul\":8004:8092   */\n      mstore\n        /* \"#utility.yul\":8111:8115   */\n      0x12\n        /* \"#utility.yul\":8108:8109   */\n      0x04\n        /* \"#utility.yul\":8101:8116   */\n      mstore\n        /* \"#utility.yul\":8135:8139   */\n      0x24\n        /* \"#utility.yul\":8132:8133   */\n      0x00\n        /* \"#utility.yul\":8125:8140   */\n      revert\n        /* \"#utility.yul\":8152:8334   */\n    tag_50:\n        /* \"#utility.yul\":8191:8192   */\n      0x00\n        /* \"#utility.yul\":8208:8227   */\n      tag_269\n        /* \"#utility.yul\":8225:8226   */\n      dup3\n        /* \"#utility.yul\":8208:8227   */\n      tag_146\n      jump\t// in\n    tag_269:\n        /* \"#utility.yul\":8203:8227   */\n      swap2\n      pop\n        /* \"#utility.yul\":8241:8260   */\n      tag_270\n        /* \"#utility.yul\":8258:8259   */\n      dup4\n        /* \"#utility.yul\":8241:8260   */\n      tag_146\n      jump\t// in\n    tag_270:\n        /* \"#utility.yul\":8236:8260   */\n      swap3\n      pop\n        /* \"#utility.yul\":8279:8280   */\n      dup3\n        /* \"#utility.yul\":8269:8304   */\n      tag_271\n      jumpi\n        /* \"#utility.yul\":8284:8302   */\n      tag_272\n      tag_164\n      jump\t// in\n    tag_272:\n        /* \"#utility.yul\":8269:8304   */\n    tag_271:\n        /* \"#utility.yul\":8326:8327   */\n      dup3\n        /* \"#utility.yul\":8323:8324   */\n      dup3\n        /* \"#utility.yul\":8319:8328   */\n      div\n        /* \"#utility.yul\":8314:8328   */\n      swap1\n      pop\n        /* \"#utility.yul\":8152:8334   */\n      swap3\n      swap2\n      pop\n      pop\n      jump\t// out\n        /* \"#utility.yul\":8340:8615   */\n    tag_55:\n        /* \"#utility.yul\":8379:8386   */\n      0x00\n        /* \"#utility.yul\":8402:8421   */\n      tag_274\n        /* \"#utility.yul\":8419:8420   */\n      dup3\n        /* \"#utility.yul\":8402:8421   */\n      tag_146\n      jump\t// in\n    tag_274:\n        /* \"#utility.yul\":8397:8421   */\n      swap2\n      pop\n        /* \"#utility.yul\":8435:8454   */\n      tag_275\n        /* \"#utility.yul\":8452:8453   */\n      dup4\n        /* \"#utility.yul\":8435:8454   */\n      tag_146\n      jump\t// in\n    tag_275:\n        /* \"#utility.yul\":8430:8454   */\n      swap3\n      pop\n        /* \"#utility.yul\":8489:8490   */\n      dup3\n        /* \"#utility.yul\":8486:8487   */\n      dup3\n        /* \"#utility.yul\":8482:8491   */\n      mul\n        /* \"#utility.yul\":8511:8540   */\n      tag_276\n        /* \"#utility.yul\":8528:8539   */\n      dup2\n        /* \"#utility.yul\":8511:8540   */\n      tag_146\n      jump\t// in\n    tag_276:\n        /* \"#utility.yul\":8500:8540   */\n      swap2\n      pop\n        /* \"#utility.yul\":8572:8583   */\n      dup1\n        /* \"#utility.yul\":8563:8570   */\n      dup3\n        /* \"#utility.yul\":8560:8584   */\n      eq\n        /* \"#utility.yul\":8550:8608   */\n      tag_277\n      jumpi\n        /* \"#utility.yul\":8588:8606   */\n      tag_278\n      tag_163\n      jump\t// in\n    tag_278:\n        /* \"#utility.yul\":8550:8608   */\n    tag_277:\n        /* \"#utility.yul\":8387:8615   */\n      pop\n        /* \"#utility.yul\":8340:8615   */\n      swap3\n      swap2\n      pop\n      pop\n      jump\t// out\n        /* \"#utility.yul\":8621:8739   */\n    tag_165:\n        /* \"#utility.yul\":8708:8732   */\n      tag_280\n        /* \"#utility.yul\":8726:8731   */\n      dup2\n        /* \"#utility.yul\":8708:8732   */\n      tag_140\n      jump\t// in\n    tag_280:\n        /* \"#utility.yul\":8703:8706   */\n      dup3\n        /* \"#utility.yul\":8696:8733   */\n      mstore\n        /* \"#utility.yul\":8621:8739   */\n      pop\n      pop\n      jump\t// out\n        /* \"#utility.yul\":8745:8967   */\n    tag_62:\n        /* \"#utility.yul\":8838:8842   */\n      0x00\n        /* \"#utility.yul\":8876:8878   */\n      0x20\n        /* \"#utility.yul\":8865:8874   */\n      dup3\n        /* \"#utility.yul\":8861:8879   */\n      add\n        /* \"#utility.yul\":8853:8879   */\n      swap1\n      pop\n        /* \"#utility.yul\":8889:8960   */\n      tag_282\n        /* \"#utility.yul\":8957:8958   */\n      0x00\n        /* \"#utility.yul\":8946:8955   */\n      dup4\n        /* \"#utility.yul\":8942:8959   */\n      add\n        /* \"#utility.yul\":8933:8939   */\n      dup5\n        /* \"#utility.yul\":8889:8960   */\n      tag_165\n      jump\t// in\n    tag_282:\n        /* \"#utility.yul\":8745:8967   */\n      swap3\n      swap2\n      pop\n      pop\n      jump\t// out\n        /* \"#utility.yul\":8973:9052   */\n    tag_166:\n        /* \"#utility.yul\":9012:9019   */\n      0x00\n        /* \"#utility.yul\":9041:9046   */\n      dup2\n        /* \"#utility.yul\":9030:9046   */\n      swap1\n      pop\n        /* \"#utility.yul\":8973:9052   */\n      swap2\n      swap1\n      pop\n      jump\t// out\n        /* \"#utility.yul\":9058:9215   */\n    tag_167:\n        /* \"#utility.yul\":9163:9208   */\n      tag_285\n        /* \"#utility.yul\":9183:9207   */\n      tag_286\n        /* \"#utility.yul\":9201:9206   */\n      dup3\n        /* \"#utility.yul\":9183:9207   */\n      tag_160\n      jump\t// in\n    tag_286:\n        /* \"#utility.yul\":9163:9208   */\n      tag_166\n      jump\t// in\n    tag_285:\n        /* \"#utility.yul\":9158:9161   */\n      dup3\n        /* \"#utility.yul\":9151:9209   */\n      mstore\n        /* \"#utility.yul\":9058:9215   */\n      pop\n      pop\n      jump\t// out\n        /* \"#utility.yul\":9221:9477   */\n    tag_71:\n        /* \"#utility.yul\":9333:9336   */\n      0x00\n        /* \"#utility.yul\":9348:9423   */\n      tag_288\n        /* \"#utility.yul\":9419:9422   */\n      dup3\n        /* \"#utility.yul\":9410:9416   */\n      dup5\n        /* \"#utility.yul\":9348:9423   */\n      tag_167\n      jump\t// in\n    tag_288:\n        /* \"#utility.yul\":9448:9450   */\n      0x20\n        /* \"#utility.yul\":9443:9446   */\n      dup3\n        /* \"#utility.yul\":9439:9451   */\n      add\n        /* \"#utility.yul\":9432:9451   */\n      swap2\n      pop\n        /* \"#utility.yul\":9468:9471   */\n      dup2\n        /* \"#utility.yul\":9461:9471   */\n      swap1\n      pop\n        /* \"#utility.yul\":9221:9477   */\n      swap3\n      swap2\n      pop\n      pop\n      jump\t// out\n        /* \"#utility.yul\":9483:9631   */\n    tag_168:\n        /* \"#utility.yul\":9585:9596   */\n      0x00\n        /* \"#utility.yul\":9622:9625   */\n      dup2\n        /* \"#utility.yul\":9607:9625   */\n      swap1\n      pop\n        /* \"#utility.yul\":9483:9631   */\n      swap3\n      swap2\n      pop\n      pop\n      jump\t// out\n        /* \"#utility.yul\":9637:9793   */\n    tag_169:\n        /* \"#utility.yul\":9777:9785   */\n      0x666f72416e790000000000000000000000000000000000000000000000000000\n        /* \"#utility.yul\":9773:9774   */\n      0x00\n        /* \"#utility.yul\":9765:9771   */\n      dup3\n        /* \"#utility.yul\":9761:9775   */\n      add\n        /* \"#utility.yul\":9754:9786   */\n      mstore\n        /* \"#utility.yul\":9637:9793   */\n      pop\n      jump\t// out\n        /* \"#utility.yul\":9799:10199   */\n    tag_170:\n        /* \"#utility.yul\":9959:9962   */\n      0x00\n        /* \"#utility.yul\":9980:10064   */\n      tag_292\n        /* \"#utility.yul\":10062:10063   */\n      0x06\n        /* \"#utility.yul\":10057:10060   */\n      dup4\n        /* \"#utility.yul\":9980:10064   */\n      tag_168\n      jump\t// in\n    tag_292:\n        /* \"#utility.yul\":9973:10064   */\n      swap2\n      pop\n        /* \"#utility.yul\":10073:10166   */\n      tag_293\n        /* \"#utility.yul\":10162:10165   */\n      dup3\n        /* \"#utility.yul\":10073:10166   */\n      tag_169\n      jump\t// in\n    tag_293:\n        /* \"#utility.yul\":10191:10192   */\n      0x06\n        /* \"#utility.yul\":10186:10189   */\n      dup3\n        /* \"#utility.yul\":10182:10193   */\n      add\n        /* \"#utility.yul\":10175:10193   */\n      swap1\n      pop\n        /* \"#utility.yul\":9799:10199   */\n      swap2\n      swap1\n      pop\n      jump\t// out\n        /* \"#utility.yul\":10205:10586   */\n    tag_73:\n        /* \"#utility.yul\":10390:10393   */\n      0x00\n        /* \"#utility.yul\":10412:10560   */\n      tag_295\n        /* \"#utility.yul\":10556:10559   */\n      dup3\n        /* \"#utility.yul\":10412:10560   */\n      tag_170\n      jump\t// in\n    tag_295:\n        /* \"#utility.yul\":10405:10560   */\n      swap2\n      pop\n        /* \"#utility.yul\":10577:10580   */\n      dup2\n        /* \"#utility.yul\":10570:10580   */\n      swap1\n      pop\n        /* \"#utility.yul\":10205:10586   */\n      swap2\n      swap1\n      pop\n      jump\t// out\n        /* \"#utility.yul\":10592:10793   */\n    tag_82:\n        /* \"#utility.yul\":10631:10634   */\n      0x00\n        /* \"#utility.yul\":10650:10669   */\n      tag_297\n        /* \"#utility.yul\":10667:10668   */\n      dup3\n        /* \"#utility.yul\":10650:10669   */\n      tag_150\n      jump\t// in\n    tag_297:\n        /* \"#utility.yul\":10645:10669   */\n      swap2\n      pop\n        /* \"#utility.yul\":10683:10702   */\n      tag_298\n        /* \"#utility.yul\":10700:10701   */\n      dup4\n        /* \"#utility.yul\":10683:10702   */\n      tag_150\n      jump\t// in\n    tag_298:\n        /* \"#utility.yul\":10678:10702   */\n      swap3\n      pop\n        /* \"#utility.yul\":10725:10726   */\n      dup3\n        /* \"#utility.yul\":10722:10723   */\n      dup3\n        /* \"#utility.yul\":10718:10727   */\n      add\n        /* \"#utility.yul\":10711:10727   */\n      swap1\n      pop\n        /* \"#utility.yul\":10748:10762   */\n      0xffffffffffff\n        /* \"#utility.yul\":10743:10746   */\n      dup2\n        /* \"#utility.yul\":10740:10763   */\n      gt\n        /* \"#utility.yul\":10737:10786   */\n      iszero\n      tag_299\n      jumpi\n        /* \"#utility.yul\":10766:10784   */\n      tag_300\n      tag_163\n      jump\t// in\n    tag_300:\n        /* \"#utility.yul\":10737:10786   */\n    tag_299:\n        /* \"#utility.yul\":10592:10793   */\n      swap3\n      swap2\n      pop\n      pop\n      jump\t// out\n        /* \"#utility.yul\":10799:10965   */\n    tag_171:\n        /* \"#utility.yul\":10939:10957   */\n      0x6c617374506172746941756374696f6e00000000000000000000000000000000\n        /* \"#utility.yul\":10935:10936   */\n      0x00\n        /* \"#utility.yul\":10927:10933   */\n      dup3\n        /* \"#utility.yul\":10923:10937   */\n      add\n        /* \"#utility.yul\":10916:10958   */\n      mstore\n        /* \"#utility.yul\":10799:10965   */\n      pop\n      jump\t// out\n        /* \"#utility.yul\":10971:11373   */\n    tag_172:\n        /* \"#utility.yul\":11131:11134   */\n      0x00\n        /* \"#utility.yul\":11152:11237   */\n      tag_303\n        /* \"#utility.yul\":11234:11236   */\n      0x10\n        /* \"#utility.yul\":11229:11232   */\n      dup4\n        /* \"#utility.yul\":11152:11237   */\n      tag_168\n      jump\t// in\n    tag_303:\n        /* \"#utility.yul\":11145:11237   */\n      swap2\n      pop\n        /* \"#utility.yul\":11246:11339   */\n      tag_304\n        /* \"#utility.yul\":11335:11338   */\n      dup3\n        /* \"#utility.yul\":11246:11339   */\n      tag_171\n      jump\t// in\n    tag_304:\n        /* \"#utility.yul\":11364:11366   */\n      0x10\n        /* \"#utility.yul\":11359:11362   */\n      dup3\n        /* \"#utility.yul\":11355:11367   */\n      add\n        /* \"#utility.yul\":11348:11367   */\n      swap1\n      pop\n        /* \"#utility.yul\":10971:11373   */\n      swap2\n      swap1\n      pop\n      jump\t// out\n        /* \"#utility.yul\":11379:11760   */\n    tag_85:\n        /* \"#utility.yul\":11564:11567   */\n      0x00\n        /* \"#utility.yul\":11586:11734   */\n      tag_306\n        /* \"#utility.yul\":11730:11733   */\n      dup3\n        /* \"#utility.yul\":11586:11734   */\n      tag_172\n      jump\t// in\n    tag_306:\n        /* \"#utility.yul\":11579:11734   */\n      swap2\n      pop\n        /* \"#utility.yul\":11751:11754   */\n      dup2\n        /* \"#utility.yul\":11744:11754   */\n      swap1\n      pop\n        /* \"#utility.yul\":11379:11760   */\n      swap2\n      swap1\n      pop\n      jump\t// out\n        /* \"#utility.yul\":11766:11930   */\n    tag_173:\n        /* \"#utility.yul\":11906:11922   */\n      0x6c61737453756341756374696f6e000000000000000000000000000000000000\n        /* \"#utility.yul\":11902:11903   */\n      0x00\n        /* \"#utility.yul\":11894:11900   */\n      dup3\n        /* \"#utility.yul\":11890:11904   */\n      add\n        /* \"#utility.yul\":11883:11923   */\n      mstore\n        /* \"#utility.yul\":11766:11930   */\n      pop\n      jump\t// out\n        /* \"#utility.yul\":11936:12338   */\n    tag_174:\n        /* \"#utility.yul\":12096:12099   */\n      0x00\n        /* \"#utility.yul\":12117:12202   */\n      tag_309\n        /* \"#utility.yul\":12199:12201   */\n      0x0e\n        /* \"#utility.yul\":12194:12197   */\n      dup4\n        /* \"#utility.yul\":12117:12202   */\n      tag_168\n      jump\t// in\n    tag_309:\n        /* \"#utility.yul\":12110:12202   */\n      swap2\n      pop\n        /* \"#utility.yul\":12211:12304   */\n      tag_310\n        /* \"#utility.yul\":12300:12303   */\n      dup3\n        /* \"#utility.yul\":12211:12304   */\n      tag_173\n      jump\t// in\n    tag_310:\n        /* \"#utility.yul\":12329:12331   */\n      0x0e\n        /* \"#utility.yul\":12324:12327   */\n      dup3\n        /* \"#utility.yul\":12320:12332   */\n      add\n        /* \"#utility.yul\":12313:12332   */\n      swap1\n      pop\n        /* \"#utility.yul\":11936:12338   */\n      swap2\n      swap1\n      pop\n      jump\t// out\n        /* \"#utility.yul\":12344:12725   */\n    tag_103:\n        /* \"#utility.yul\":12529:12532   */\n      0x00\n        /* \"#utility.yul\":12551:12699   */\n      tag_312\n        /* \"#utility.yul\":12695:12698   */\n      dup3\n        /* \"#utility.yul\":12551:12699   */\n      tag_174\n      jump\t// in\n    tag_312:\n        /* \"#utility.yul\":12544:12699   */\n      swap2\n      pop\n        /* \"#utility.yul\":12716:12719   */\n      dup2\n        /* \"#utility.yul\":12709:12719   */\n      swap1\n      pop\n        /* \"#utility.yul\":12344:12725   */\n      swap2\n      swap1\n      pop\n      jump\t// out\n        /* \"#utility.yul\":12731:12893   */\n    tag_175:\n        /* \"#utility.yul\":12871:12885   */\n      0x6c6173745472616e736665720000000000000000000000000000000000000000\n        /* \"#utility.yul\":12867:12868   */\n      0x00\n        /* \"#utility.yul\":12859:12865   */\n      dup3\n        /* \"#utility.yul\":12855:12869   */\n      add\n        /* \"#utility.yul\":12848:12886   */\n      mstore\n        /* \"#utility.yul\":12731:12893   */\n      pop\n      jump\t// out\n        /* \"#utility.yul\":12899:13301   */\n    tag_176:\n        /* \"#utility.yul\":13059:13062   */\n      0x00\n        /* \"#utility.yul\":13080:13165   */\n      tag_315\n        /* \"#utility.yul\":13162:13164   */\n      0x0c\n        /* \"#utility.yul\":13157:13160   */\n      dup4\n        /* \"#utility.yul\":13080:13165   */\n      tag_168\n      jump\t// in\n    tag_315:\n        /* \"#utility.yul\":13073:13165   */\n      swap2\n      pop\n        /* \"#utility.yul\":13174:13267   */\n      tag_316\n        /* \"#utility.yul\":13263:13266   */\n      dup3\n        /* \"#utility.yul\":13174:13267   */\n      tag_175\n      jump\t// in\n    tag_316:\n        /* \"#utility.yul\":13292:13294   */\n      0x0c\n        /* \"#utility.yul\":13287:13290   */\n      dup3\n        /* \"#utility.yul\":13283:13295   */\n      add\n        /* \"#utility.yul\":13276:13295   */\n      swap1\n      pop\n        /* \"#utility.yul\":12899:13301   */\n      swap2\n      swap1\n      pop\n      jump\t// out\n        /* \"#utility.yul\":13307:13688   */\n    tag_121:\n        /* \"#utility.yul\":13492:13495   */\n      0x00\n        /* \"#utility.yul\":13514:13662   */\n      tag_318\n        /* \"#utility.yul\":13658:13661   */\n      dup3\n        /* \"#utility.yul\":13514:13662   */\n      tag_176\n      jump\t// in\n    tag_318:\n        /* \"#utility.yul\":13507:13662   */\n      swap2\n      pop\n        /* \"#utility.yul\":13679:13682   */\n      dup2\n        /* \"#utility.yul\":13672:13682   */\n      swap1\n      pop\n        /* \"#utility.yul\":13307:13688   */\n      swap2\n      swap1\n      pop\n      jump\t// out\n\n    auxdata: 0xa26469706673582212203d7b4094a4f793739220a5d48e74ce2586266d6e45cfbfff6e496a1db2c0f3fc64736f6c63430008140033\n}\n",
				"bytecode": {
					"linkReferences": {},
					"object": "608060405234801561000f575f80fd5b506112948061001d5f395ff3fe608060405234801561000f575f80fd5b506004361061004a575f3560e01c8063013cf08b1461004e5780630702718e1461007e5780631e9608a8146100ae578063990492f5146100ca575b5f80fd5b61006860048036038101906100639190610bc8565b6100e6565b6040516100759190610d70565b60405180910390f35b61009860048036038101906100939190610db4565b6102c5565b6040516100a59190610dee565b60405180910390f35b6100c860048036038101906100c39190610e07565b61040d565b005b6100e460048036038101906100df9190610ea2565b610546565b005b6100ee610afa565b6103c45f8381526020019081526020015f20604051806101400160405290815f82015f9054906101000a900473ffffffffffffffffffffffffffffffffffffffff1673ffffffffffffffffffffffffffffffffffffffff1673ffffffffffffffffffffffffffffffffffffffff168152602001600182015f9054906101000a900473ffffffffffffffffffffffffffffffffffffffff1673ffffffffffffffffffffffffffffffffffffffff1673ffffffffffffffffffffffffffffffffffffffff1681526020016001820160149054906101000a900461ffff1661ffff1661ffff1681526020016001820160169054906101000a900463ffffffff1663ffffffff1663ffffffff16815260200160018201601a9054906101000a900465ffffffffffff1665ffffffffffff1665ffffffffffff168152602001600282015f9054906101000a900465ffffffffffff1665ffffffffffff1665ffffffffffff1681526020016002820160069054906101000a900460ff161515151581526020016002820160079054906101000a900460ff161515151581526020016002820160089054906101000a900460ff161515151581526020016002820160099054906101000a900460ff1615151515815250509050919050565b5f804290505f624f1a00826102da9190610f1f565b90505f80600190505b6104b08161ffff16116103a6575f805f018261ffff166104b1811061030b5761030a610f52565b5b600591828204019190066006029054906101000a900465ffffffffffff1665ffffffffffff1603156103a6575f80018161ffff166104b1811061035157610350610f52565b5b600591828204019190066006029054906101000a900465ffffffffffff1665ffffffffffff168365ffffffffffff161015610393578161039090610f7f565b91505b808061039e90610f7f565b9150506102e3565b6002816103b39190610fd5565b61ffff168661ffff1611156103cf576001945050505050610408565b6046606483886103df9190610fd5565b6103e99190611005565b61ffff161115610400576001945050505050610408565b5f9450505050505b919050565b81600210158061041e575060058210155b1561046057816040517f4961771d0000000000000000000000000000000000000000000000000000000081526004016104579190611050565b60405180910390fd5b6004820361049b5760016103c45f8381526020019081526020015f2060020160086101000a81548160ff021916908315150217905550610542565b600382036104d65760016103c45f8381526020019081526020015f2060020160096101000a81548160ff021916908315150217905550610541565b600582036105115760016103c45f8381526020019081526020015f2060020160066101000a81548160ff021916908315150217905550610540565b60016103c45f8381526020019081526020015f2060020160076101000a81548160ff0219169083151502179055505b5b5b5050565b5f816040516020016105589190611089565b60405160208183030381529060405280519060200120905080604051602001610580906110f7565b604051602081830303815290604052805190602001200361064d57835f80018461ffff166104b181106105b6576105b5610f52565b5b600591828204019190066006026101000a81548165ffffffffffff021916908365ffffffffffff16021790555060015f80015f6104b181106105fb576105fa610f52565b5b600591828204019190066006028282829054906101000a900465ffffffffffff16610626919061110b565b92506101000a81548165ffffffffffff021916908365ffffffffffff160217905550610af4565b8060405160200161065d9061118e565b60405160208183030381529060405280519060200120036107db57835f80018461ffff166104b1811061069357610692610f52565b5b600591828204019190066006026101000a81548165ffffffffffff021916908365ffffffffffff16021790555060015f80015f6104b181106106d8576106d7610f52565b5b600591828204019190066006028282829054906101000a900465ffffffffffff16610703919061110b565b92506101000a81548165ffffffffffff021916908365ffffffffffff160217905550835f6101e2018461ffff166104b1811061074257610741610f52565b5b600591828204019190066006026101000a81548165ffffffffffff021916908365ffffffffffff16021790555060015f6101e2015f6104b1811061078957610788610f52565b5b600591828204019190066006028282829054906101000a900465ffffffffffff166107b4919061110b565b92506101000a81548165ffffffffffff021916908365ffffffffffff160217905550610af3565b806040516020016107eb906111ec565b604051602081830303815290604052805190602001200361096957835f80018461ffff166104b1811061082157610820610f52565b5b600591828204019190066006026101000a81548165ffffffffffff021916908365ffffffffffff16021790555060015f80015f6104b1811061086657610865610f52565b5b600591828204019190066006028282829054906101000a900465ffffffffffff16610891919061110b565b92506101000a81548165ffffffffffff021916908365ffffffffffff160217905550835f6102d3018461ffff166104b181106108d0576108cf610f52565b5b600591828204019190066006026101000a81548165ffffffffffff021916908365ffffffffffff16021790555060015f6102d3015f6104b1811061091757610916610f52565b5b600591828204019190066006028282829054906101000a900465ffffffffffff16610942919061110b565b92506101000a81548165ffffffffffff021916908365ffffffffffff160217905550610af2565b806040516020016109799061124a565b6040516020818303038152906040528051906020012003610af157835f80018461ffff166104b181106109af576109ae610f52565b5b600591828204019190066006026101000a81548165ffffffffffff021916908365ffffffffffff16021790555060015f80015f6104b181106109f4576109f3610f52565b5b600591828204019190066006028282829054906101000a900465ffffffffffff16610a1f919061110b565b92506101000a81548165ffffffffffff021916908365ffffffffffff160217905550835f60f1018461ffff166104b18110610a5d57610a5c610f52565b5b600591828204019190066006026101000a81548165ffffffffffff021916908365ffffffffffff16021790555060015f60f1015f6104b18110610aa357610aa2610f52565b5b600591828204019190066006028282829054906101000a900465ffffffffffff16610ace919061110b565b92506101000a81548165ffffffffffff021916908365ffffffffffff1602179055505b5b5b5b50505050565b6040518061014001604052805f73ffffffffffffffffffffffffffffffffffffffff1681526020015f73ffffffffffffffffffffffffffffffffffffffff1681526020015f61ffff1681526020015f63ffffffff1681526020015f65ffffffffffff1681526020015f65ffffffffffff1681526020015f151581526020015f151581526020015f151581526020015f151581525090565b5f80fd5b5f819050919050565b610ba781610b95565b8114610bb1575f80fd5b50565b5f81359050610bc281610b9e565b92915050565b5f60208284031215610bdd57610bdc610b91565b5b5f610bea84828501610bb4565b91505092915050565b5f73ffffffffffffffffffffffffffffffffffffffff82169050919050565b5f610c1c82610bf3565b9050919050565b610c2c81610c12565b82525050565b5f61ffff82169050919050565b610c4881610c32565b82525050565b5f63ffffffff82169050919050565b610c6681610c4e565b82525050565b5f65ffffffffffff82169050919050565b610c8681610c6c565b82525050565b5f8115159050919050565b610ca081610c8c565b82525050565b61014082015f820151610cbb5f850182610c23565b506020820151610cce6020850182610c23565b506040820151610ce16040850182610c3f565b506060820151610cf46060850182610c5d565b506080820151610d076080850182610c7d565b5060a0820151610d1a60a0850182610c7d565b5060c0820151610d2d60c0850182610c97565b5060e0820151610d4060e0850182610c97565b50610100820151610d55610100850182610c97565b50610120820151610d6a610120850182610c97565b50505050565b5f61014082019050610d845f830184610ca6565b92915050565b610d9381610c32565b8114610d9d575f80fd5b50565b5f81359050610dae81610d8a565b92915050565b5f60208284031215610dc957610dc8610b91565b5b5f610dd684828501610da0565b91505092915050565b610de881610c8c565b82525050565b5f602082019050610e015f830184610ddf565b92915050565b5f8060408385031215610e1d57610e1c610b91565b5b5f610e2a85828601610bb4565b9250506020610e3b85828601610bb4565b9150509250929050565b610e4e81610c6c565b8114610e58575f80fd5b50565b5f81359050610e6981610e45565b92915050565b5f819050919050565b610e8181610e6f565b8114610e8b575f80fd5b50565b5f81359050610e9c81610e78565b92915050565b5f805f60608486031215610eb957610eb8610b91565b5b5f610ec686828701610e5b565b9350506020610ed786828701610da0565b9250506040610ee886828701610e8e565b9150509250925092565b7f4e487b71000000000000000000000000000000000000000000000000000000005f52601160045260245ffd5b5f610f2982610b95565b9150610f3483610b95565b9250828203905081811115610f4c57610f4b610ef2565b5b92915050565b7f4e487b71000000000000000000000000000000000000000000000000000000005f52603260045260245ffd5b5f610f8982610c32565b915061ffff8203610f9d57610f9c610ef2565b5b600182019050919050565b7f4e487b71000000000000000000000000000000000000000000000000000000005f52601260045260245ffd5b5f610fdf82610c32565b9150610fea83610c32565b925082610ffa57610ff9610fa8565b5b828204905092915050565b5f61100f82610c32565b915061101a83610c32565b925082820261102881610c32565b915080821461103a57611039610ef2565b5b5092915050565b61104a81610b95565b82525050565b5f6020820190506110635f830184611041565b92915050565b5f819050919050565b61108361107e82610e6f565b611069565b82525050565b5f6110948284611072565b60208201915081905092915050565b5f81905092915050565b7f666f72416e7900000000000000000000000000000000000000000000000000005f82015250565b5f6110e16006836110a3565b91506110ec826110ad565b600682019050919050565b5f611101826110d5565b9150819050919050565b5f61111582610c6c565b915061112083610c6c565b9250828201905065ffffffffffff81111561113e5761113d610ef2565b5b92915050565b7f6c617374506172746941756374696f6e000000000000000000000000000000005f82015250565b5f6111786010836110a3565b915061118382611144565b601082019050919050565b5f6111988261116c565b9150819050919050565b7f6c61737453756341756374696f6e0000000000000000000000000000000000005f82015250565b5f6111d6600e836110a3565b91506111e1826111a2565b600e82019050919050565b5f6111f6826111ca565b9150819050919050565b7f6c6173745472616e7366657200000000000000000000000000000000000000005f82015250565b5f611234600c836110a3565b915061123f82611200565b600c82019050919050565b5f61125482611228565b915081905091905056fea26469706673582212203d7b4094a4f793739220a5d48e74ce2586266d6e45cfbfff6e496a1db2c0f3fc64736f6c63430008140033",
					"opcodes": "PUSH1 0x80 PUSH1 0x40 MSTORE CALLVALUE DUP1 ISZERO PUSH2 0xF JUMPI PUSH0 DUP1 REVERT JUMPDEST POP PUSH2 0x1294 DUP1 PUSH2 0x1D PUSH0 CODECOPY PUSH0 RETURN INVALID PUSH1 0x80 PUSH1 0x40 MSTORE CALLVALUE DUP1 ISZERO PUSH2 0xF JUMPI PUSH0 DUP1 REVERT JUMPDEST POP PUSH1 0x4 CALLDATASIZE LT PUSH2 0x4A JUMPI PUSH0 CALLDATALOAD PUSH1 0xE0 SHR DUP1 PUSH4 0x13CF08B EQ PUSH2 0x4E JUMPI DUP1 PUSH4 0x702718E EQ PUSH2 0x7E JUMPI DUP1 PUSH4 0x1E9608A8 EQ PUSH2 0xAE JUMPI DUP1 PUSH4 0x990492F5 EQ PUSH2 0xCA JUMPI JUMPDEST PUSH0 DUP1 REVERT JUMPDEST PUSH2 0x68 PUSH1 0x4 DUP1 CALLDATASIZE SUB DUP2 ADD SWAP1 PUSH2 0x63 SWAP2 SWAP1 PUSH2 0xBC8 JUMP JUMPDEST PUSH2 0xE6 JUMP JUMPDEST PUSH1 0x40 MLOAD PUSH2 0x75 SWAP2 SWAP1 PUSH2 0xD70 JUMP JUMPDEST PUSH1 0x40 MLOAD DUP1 SWAP2 SUB SWAP1 RETURN JUMPDEST PUSH2 0x98 PUSH1 0x4 DUP1 CALLDATASIZE SUB DUP2 ADD SWAP1 PUSH2 0x93 SWAP2 SWAP1 PUSH2 0xDB4 JUMP JUMPDEST PUSH2 0x2C5 JUMP JUMPDEST PUSH1 0x40 MLOAD PUSH2 0xA5 SWAP2 SWAP1 PUSH2 0xDEE JUMP JUMPDEST PUSH1 0x40 MLOAD DUP1 SWAP2 SUB SWAP1 RETURN JUMPDEST PUSH2 0xC8 PUSH1 0x4 DUP1 CALLDATASIZE SUB DUP2 ADD SWAP1 PUSH2 0xC3 SWAP2 SWAP1 PUSH2 0xE07 JUMP JUMPDEST PUSH2 0x40D JUMP JUMPDEST STOP JUMPDEST PUSH2 0xE4 PUSH1 0x4 DUP1 CALLDATASIZE SUB DUP2 ADD SWAP1 PUSH2 0xDF SWAP2 SWAP1 PUSH2 0xEA2 JUMP JUMPDEST PUSH2 0x546 JUMP JUMPDEST STOP JUMPDEST PUSH2 0xEE PUSH2 0xAFA JUMP JUMPDEST PUSH2 0x3C4 PUSH0 DUP4 DUP2 MSTORE PUSH1 0x20 ADD SWAP1 DUP2 MSTORE PUSH1 0x20 ADD PUSH0 KECCAK256 PUSH1 0x40 MLOAD DUP1 PUSH2 0x140 ADD PUSH1 0x40 MSTORE SWAP1 DUP2 PUSH0 DUP3 ADD PUSH0 SWAP1 SLOAD SWAP1 PUSH2 0x100 EXP SWAP1 DIV PUSH20 0xFFFFFFFFFFFFFFFFFFFFFFFFFFFFFFFFFFFFFFFF AND PUSH20 0xFFFFFFFFFFFFFFFFFFFFFFFFFFFFFFFFFFFFFFFF AND PUSH20 0xFFFFFFFFFFFFFFFFFFFFFFFFFFFFFFFFFFFFFFFF AND DUP2 MSTORE PUSH1 0x20 ADD PUSH1 0x1 DUP3 ADD PUSH0 SWAP1 SLOAD SWAP1 PUSH2 0x100 EXP SWAP1 DIV PUSH20 0xFFFFFFFFFFFFFFFFFFFFFFFFFFFFFFFFFFFFFFFF AND PUSH20 0xFFFFFFFFFFFFFFFFFFFFFFFFFFFFFFFFFFFFFFFF AND PUSH20 0xFFFFFFFFFFFFFFFFFFFFFFFFFFFFFFFFFFFFFFFF AND DUP2 MSTORE PUSH1 0x20 ADD PUSH1 0x1 DUP3 ADD PUSH1 0x14 SWAP1 SLOAD SWAP1 PUSH2 0x100 EXP SWAP1 DIV PUSH2 0xFFFF AND PUSH2 0xFFFF AND PUSH2 0xFFFF AND DUP2 MSTORE PUSH1 0x20 ADD PUSH1 0x1 DUP3 ADD PUSH1 0x16 SWAP1 SLOAD SWAP1 PUSH2 0x100 EXP SWAP1 DIV PUSH4 0xFFFFFFFF AND PUSH4 0xFFFFFFFF AND PUSH4 0xFFFFFFFF AND DUP2 MSTORE PUSH1 0x20 ADD PUSH1 0x1 DUP3 ADD PUSH1 0x1A SWAP1 SLOAD SWAP1 PUSH2 0x100 EXP SWAP1 DIV PUSH6 0xFFFFFFFFFFFF AND PUSH6 0xFFFFFFFFFFFF AND PUSH6 0xFFFFFFFFFFFF AND DUP2 MSTORE PUSH1 0x20 ADD PUSH1 0x2 DUP3 ADD PUSH0 SWAP1 SLOAD SWAP1 PUSH2 0x100 EXP SWAP1 DIV PUSH6 0xFFFFFFFFFFFF AND PUSH6 0xFFFFFFFFFFFF AND PUSH6 0xFFFFFFFFFFFF AND DUP2 MSTORE PUSH1 0x20 ADD PUSH1 0x2 DUP3 ADD PUSH1 0x6 SWAP1 SLOAD SWAP1 PUSH2 0x100 EXP SWAP1 DIV PUSH1 0xFF AND ISZERO ISZERO ISZERO ISZERO DUP2 MSTORE PUSH1 0x20 ADD PUSH1 0x2 DUP3 ADD PUSH1 0x7 SWAP1 SLOAD SWAP1 PUSH2 0x100 EXP SWAP1 DIV PUSH1 0xFF AND ISZERO ISZERO ISZERO ISZERO DUP2 MSTORE PUSH1 0x20 ADD PUSH1 0x2 DUP3 ADD PUSH1 0x8 SWAP1 SLOAD SWAP1 PUSH2 0x100 EXP SWAP1 DIV PUSH1 0xFF AND ISZERO ISZERO ISZERO ISZERO DUP2 MSTORE PUSH1 0x20 ADD PUSH1 0x2 DUP3 ADD PUSH1 0x9 SWAP1 SLOAD SWAP1 PUSH2 0x100 EXP SWAP1 DIV PUSH1 0xFF AND ISZERO ISZERO ISZERO ISZERO DUP2 MSTORE POP POP SWAP1 POP SWAP2 SWAP1 POP JUMP JUMPDEST PUSH0 DUP1 TIMESTAMP SWAP1 POP PUSH0 PUSH3 0x4F1A00 DUP3 PUSH2 0x2DA SWAP2 SWAP1 PUSH2 0xF1F JUMP JUMPDEST SWAP1 POP PUSH0 DUP1 PUSH1 0x1 SWAP1 POP JUMPDEST PUSH2 0x4B0 DUP2 PUSH2 0xFFFF AND GT PUSH2 0x3A6 JUMPI PUSH0 DUP1 PUSH0 ADD DUP3 PUSH2 0xFFFF AND PUSH2 0x4B1 DUP2 LT PUSH2 0x30B JUMPI PUSH2 0x30A PUSH2 0xF52 JUMP JUMPDEST JUMPDEST PUSH1 0x5 SWAP2 DUP3 DUP3 DIV ADD SWAP2 SWAP1 MOD PUSH1 0x6 MUL SWAP1 SLOAD SWAP1 PUSH2 0x100 EXP SWAP1 DIV PUSH6 0xFFFFFFFFFFFF AND PUSH6 0xFFFFFFFFFFFF AND SUB ISZERO PUSH2 0x3A6 JUMPI PUSH0 DUP1 ADD DUP2 PUSH2 0xFFFF AND PUSH2 0x4B1 DUP2 LT PUSH2 0x351 JUMPI PUSH2 0x350 PUSH2 0xF52 JUMP JUMPDEST JUMPDEST PUSH1 0x5 SWAP2 DUP3 DUP3 DIV ADD SWAP2 SWAP1 MOD PUSH1 0x6 MUL SWAP1 SLOAD SWAP1 PUSH2 0x100 EXP SWAP1 DIV PUSH6 0xFFFFFFFFFFFF AND PUSH6 0xFFFFFFFFFFFF AND DUP4 PUSH6 0xFFFFFFFFFFFF AND LT ISZERO PUSH2 0x393 JUMPI DUP2 PUSH2 0x390 SWAP1 PUSH2 0xF7F JUMP JUMPDEST SWAP2 POP JUMPDEST DUP1 DUP1 PUSH2 0x39E SWAP1 PUSH2 0xF7F JUMP JUMPDEST SWAP2 POP POP PUSH2 0x2E3 JUMP JUMPDEST PUSH1 0x2 DUP2 PUSH2 0x3B3 SWAP2 SWAP1 PUSH2 0xFD5 JUMP JUMPDEST PUSH2 0xFFFF AND DUP7 PUSH2 0xFFFF AND GT ISZERO PUSH2 0x3CF JUMPI PUSH1 0x1 SWAP5 POP POP POP POP POP PUSH2 0x408 JUMP JUMPDEST PUSH1 0x46 PUSH1 0x64 DUP4 DUP9 PUSH2 0x3DF SWAP2 SWAP1 PUSH2 0xFD5 JUMP JUMPDEST PUSH2 0x3E9 SWAP2 SWAP1 PUSH2 0x1005 JUMP JUMPDEST PUSH2 0xFFFF AND GT ISZERO PUSH2 0x400 JUMPI PUSH1 0x1 SWAP5 POP POP POP POP POP PUSH2 0x408 JUMP JUMPDEST PUSH0 SWAP5 POP POP POP POP POP JUMPDEST SWAP2 SWAP1 POP JUMP JUMPDEST DUP2 PUSH1 0x2 LT ISZERO DUP1 PUSH2 0x41E JUMPI POP PUSH1 0x5 DUP3 LT ISZERO JUMPDEST ISZERO PUSH2 0x460 JUMPI DUP2 PUSH1 0x40 MLOAD PUSH32 0x4961771D00000000000000000000000000000000000000000000000000000000 DUP2 MSTORE PUSH1 0x4 ADD PUSH2 0x457 SWAP2 SWAP1 PUSH2 0x1050 JUMP JUMPDEST PUSH1 0x40 MLOAD DUP1 SWAP2 SUB SWAP1 REVERT JUMPDEST PUSH1 0x4 DUP3 SUB PUSH2 0x49B JUMPI PUSH1 0x1 PUSH2 0x3C4 PUSH0 DUP4 DUP2 MSTORE PUSH1 0x20 ADD SWAP1 DUP2 MSTORE PUSH1 0x20 ADD PUSH0 KECCAK256 PUSH1 0x2 ADD PUSH1 0x8 PUSH2 0x100 EXP DUP2 SLOAD DUP2 PUSH1 0xFF MUL NOT AND SWAP1 DUP4 ISZERO ISZERO MUL OR SWAP1 SSTORE POP PUSH2 0x542 JUMP JUMPDEST PUSH1 0x3 DUP3 SUB PUSH2 0x4D6 JUMPI PUSH1 0x1 PUSH2 0x3C4 PUSH0 DUP4 DUP2 MSTORE PUSH1 0x20 ADD SWAP1 DUP2 MSTORE PUSH1 0x20 ADD PUSH0 KECCAK256 PUSH1 0x2 ADD PUSH1 0x9 PUSH2 0x100 EXP DUP2 SLOAD DUP2 PUSH1 0xFF MUL NOT AND SWAP1 DUP4 ISZERO ISZERO MUL OR SWAP1 SSTORE POP PUSH2 0x541 JUMP JUMPDEST PUSH1 0x5 DUP3 SUB PUSH2 0x511 JUMPI PUSH1 0x1 PUSH2 0x3C4 PUSH0 DUP4 DUP2 MSTORE PUSH1 0x20 ADD SWAP1 DUP2 MSTORE PUSH1 0x20 ADD PUSH0 KECCAK256 PUSH1 0x2 ADD PUSH1 0x6 PUSH2 0x100 EXP DUP2 SLOAD DUP2 PUSH1 0xFF MUL NOT AND SWAP1 DUP4 ISZERO ISZERO MUL OR SWAP1 SSTORE POP PUSH2 0x540 JUMP JUMPDEST PUSH1 0x1 PUSH2 0x3C4 PUSH0 DUP4 DUP2 MSTORE PUSH1 0x20 ADD SWAP1 DUP2 MSTORE PUSH1 0x20 ADD PUSH0 KECCAK256 PUSH1 0x2 ADD PUSH1 0x7 PUSH2 0x100 EXP DUP2 SLOAD DUP2 PUSH1 0xFF MUL NOT AND SWAP1 DUP4 ISZERO ISZERO MUL OR SWAP1 SSTORE POP JUMPDEST JUMPDEST JUMPDEST POP POP JUMP JUMPDEST PUSH0 DUP2 PUSH1 0x40 MLOAD PUSH1 0x20 ADD PUSH2 0x558 SWAP2 SWAP1 PUSH2 0x1089 JUMP JUMPDEST PUSH1 0x40 MLOAD PUSH1 0x20 DUP2 DUP4 SUB SUB DUP2 MSTORE SWAP1 PUSH1 0x40 MSTORE DUP1 MLOAD SWAP1 PUSH1 0x20 ADD KECCAK256 SWAP1 POP DUP1 PUSH1 0x40 MLOAD PUSH1 0x20 ADD PUSH2 0x580 SWAP1 PUSH2 0x10F7 JUMP JUMPDEST PUSH1 0x40 MLOAD PUSH1 0x20 DUP2 DUP4 SUB SUB DUP2 MSTORE SWAP1 PUSH1 0x40 MSTORE DUP1 MLOAD SWAP1 PUSH1 0x20 ADD KECCAK256 SUB PUSH2 0x64D JUMPI DUP4 PUSH0 DUP1 ADD DUP5 PUSH2 0xFFFF AND PUSH2 0x4B1 DUP2 LT PUSH2 0x5B6 JUMPI PUSH2 0x5B5 PUSH2 0xF52 JUMP JUMPDEST JUMPDEST PUSH1 0x5 SWAP2 DUP3 DUP3 DIV ADD SWAP2 SWAP1 MOD PUSH1 0x6 MUL PUSH2 0x100 EXP DUP2 SLOAD DUP2 PUSH6 0xFFFFFFFFFFFF MUL NOT AND SWAP1 DUP4 PUSH6 0xFFFFFFFFFFFF AND MUL OR SWAP1 SSTORE POP PUSH1 0x1 PUSH0 DUP1 ADD PUSH0 PUSH2 0x4B1 DUP2 LT PUSH2 0x5FB JUMPI PUSH2 0x5FA PUSH2 0xF52 JUMP JUMPDEST JUMPDEST PUSH1 0x5 SWAP2 DUP3 DUP3 DIV ADD SWAP2 SWAP1 MOD PUSH1 0x6 MUL DUP3 DUP3 DUP3 SWAP1 SLOAD SWAP1 PUSH2 0x100 EXP SWAP1 DIV PUSH6 0xFFFFFFFFFFFF AND PUSH2 0x626 SWAP2 SWAP1 PUSH2 0x110B JUMP JUMPDEST SWAP3 POP PUSH2 0x100 EXP DUP2 SLOAD DUP2 PUSH6 0xFFFFFFFFFFFF MUL NOT AND SWAP1 DUP4 PUSH6 0xFFFFFFFFFFFF AND MUL OR SWAP1 SSTORE POP PUSH2 0xAF4 JUMP JUMPDEST DUP1 PUSH1 0x40 MLOAD PUSH1 0x20 ADD PUSH2 0x65D SWAP1 PUSH2 0x118E JUMP JUMPDEST PUSH1 0x40 MLOAD PUSH1 0x20 DUP2 DUP4 SUB SUB DUP2 MSTORE SWAP1 PUSH1 0x40 MSTORE DUP1 MLOAD SWAP1 PUSH1 0x20 ADD KECCAK256 SUB PUSH2 0x7DB JUMPI DUP4 PUSH0 DUP1 ADD DUP5 PUSH2 0xFFFF AND PUSH2 0x4B1 DUP2 LT PUSH2 0x693 JUMPI PUSH2 0x692 PUSH2 0xF52 JUMP JUMPDEST JUMPDEST PUSH1 0x5 SWAP2 DUP3 DUP3 DIV ADD SWAP2 SWAP1 MOD PUSH1 0x6 MUL PUSH2 0x100 EXP DUP2 SLOAD DUP2 PUSH6 0xFFFFFFFFFFFF MUL NOT AND SWAP1 DUP4 PUSH6 0xFFFFFFFFFFFF AND MUL OR SWAP1 SSTORE POP PUSH1 0x1 PUSH0 DUP1 ADD PUSH0 PUSH2 0x4B1 DUP2 LT PUSH2 0x6D8 JUMPI PUSH2 0x6D7 PUSH2 0xF52 JUMP JUMPDEST JUMPDEST PUSH1 0x5 SWAP2 DUP3 DUP3 DIV ADD SWAP2 SWAP1 MOD PUSH1 0x6 MUL DUP3 DUP3 DUP3 SWAP1 SLOAD SWAP1 PUSH2 0x100 EXP SWAP1 DIV PUSH6 0xFFFFFFFFFFFF AND PUSH2 0x703 SWAP2 SWAP1 PUSH2 0x110B JUMP JUMPDEST SWAP3 POP PUSH2 0x100 EXP DUP2 SLOAD DUP2 PUSH6 0xFFFFFFFFFFFF MUL NOT AND SWAP1 DUP4 PUSH6 0xFFFFFFFFFFFF AND MUL OR SWAP1 SSTORE POP DUP4 PUSH0 PUSH2 0x1E2 ADD DUP5 PUSH2 0xFFFF AND PUSH2 0x4B1 DUP2 LT PUSH2 0x742 JUMPI PUSH2 0x741 PUSH2 0xF52 JUMP JUMPDEST JUMPDEST PUSH1 0x5 SWAP2 DUP3 DUP3 DIV ADD SWAP2 SWAP1 MOD PUSH1 0x6 MUL PUSH2 0x100 EXP DUP2 SLOAD DUP2 PUSH6 0xFFFFFFFFFFFF MUL NOT AND SWAP1 DUP4 PUSH6 0xFFFFFFFFFFFF AND MUL OR SWAP1 SSTORE POP PUSH1 0x1 PUSH0 PUSH2 0x1E2 ADD PUSH0 PUSH2 0x4B1 DUP2 LT PUSH2 0x789 JUMPI PUSH2 0x788 PUSH2 0xF52 JUMP JUMPDEST JUMPDEST PUSH1 0x5 SWAP2 DUP3 DUP3 DIV ADD SWAP2 SWAP1 MOD PUSH1 0x6 MUL DUP3 DUP3 DUP3 SWAP1 SLOAD SWAP1 PUSH2 0x100 EXP SWAP1 DIV PUSH6 0xFFFFFFFFFFFF AND PUSH2 0x7B4 SWAP2 SWAP1 PUSH2 0x110B JUMP JUMPDEST SWAP3 POP PUSH2 0x100 EXP DUP2 SLOAD DUP2 PUSH6 0xFFFFFFFFFFFF MUL NOT AND SWAP1 DUP4 PUSH6 0xFFFFFFFFFFFF AND MUL OR SWAP1 SSTORE POP PUSH2 0xAF3 JUMP JUMPDEST DUP1 PUSH1 0x40 MLOAD PUSH1 0x20 ADD PUSH2 0x7EB SWAP1 PUSH2 0x11EC JUMP JUMPDEST PUSH1 0x40 MLOAD PUSH1 0x20 DUP2 DUP4 SUB SUB DUP2 MSTORE SWAP1 PUSH1 0x40 MSTORE DUP1 MLOAD SWAP1 PUSH1 0x20 ADD KECCAK256 SUB PUSH2 0x969 JUMPI DUP4 PUSH0 DUP1 ADD DUP5 PUSH2 0xFFFF AND PUSH2 0x4B1 DUP2 LT PUSH2 0x821 JUMPI PUSH2 0x820 PUSH2 0xF52 JUMP JUMPDEST JUMPDEST PUSH1 0x5 SWAP2 DUP3 DUP3 DIV ADD SWAP2 SWAP1 MOD PUSH1 0x6 MUL PUSH2 0x100 EXP DUP2 SLOAD DUP2 PUSH6 0xFFFFFFFFFFFF MUL NOT AND SWAP1 DUP4 PUSH6 0xFFFFFFFFFFFF AND MUL OR SWAP1 SSTORE POP PUSH1 0x1 PUSH0 DUP1 ADD PUSH0 PUSH2 0x4B1 DUP2 LT PUSH2 0x866 JUMPI PUSH2 0x865 PUSH2 0xF52 JUMP JUMPDEST JUMPDEST PUSH1 0x5 SWAP2 DUP3 DUP3 DIV ADD SWAP2 SWAP1 MOD PUSH1 0x6 MUL DUP3 DUP3 DUP3 SWAP1 SLOAD SWAP1 PUSH2 0x100 EXP SWAP1 DIV PUSH6 0xFFFFFFFFFFFF AND PUSH2 0x891 SWAP2 SWAP1 PUSH2 0x110B JUMP JUMPDEST SWAP3 POP PUSH2 0x100 EXP DUP2 SLOAD DUP2 PUSH6 0xFFFFFFFFFFFF MUL NOT AND SWAP1 DUP4 PUSH6 0xFFFFFFFFFFFF AND MUL OR SWAP1 SSTORE POP DUP4 PUSH0 PUSH2 0x2D3 ADD DUP5 PUSH2 0xFFFF AND PUSH2 0x4B1 DUP2 LT PUSH2 0x8D0 JUMPI PUSH2 0x8CF PUSH2 0xF52 JUMP JUMPDEST JUMPDEST PUSH1 0x5 SWAP2 DUP3 DUP3 DIV ADD SWAP2 SWAP1 MOD PUSH1 0x6 MUL PUSH2 0x100 EXP DUP2 SLOAD DUP2 PUSH6 0xFFFFFFFFFFFF MUL NOT AND SWAP1 DUP4 PUSH6 0xFFFFFFFFFFFF AND MUL OR SWAP1 SSTORE POP PUSH1 0x1 PUSH0 PUSH2 0x2D3 ADD PUSH0 PUSH2 0x4B1 DUP2 LT PUSH2 0x917 JUMPI PUSH2 0x916 PUSH2 0xF52 JUMP JUMPDEST JUMPDEST PUSH1 0x5 SWAP2 DUP3 DUP3 DIV ADD SWAP2 SWAP1 MOD PUSH1 0x6 MUL DUP3 DUP3 DUP3 SWAP1 SLOAD SWAP1 PUSH2 0x100 EXP SWAP1 DIV PUSH6 0xFFFFFFFFFFFF AND PUSH2 0x942 SWAP2 SWAP1 PUSH2 0x110B JUMP JUMPDEST SWAP3 POP PUSH2 0x100 EXP DUP2 SLOAD DUP2 PUSH6 0xFFFFFFFFFFFF MUL NOT AND SWAP1 DUP4 PUSH6 0xFFFFFFFFFFFF AND MUL OR SWAP1 SSTORE POP PUSH2 0xAF2 JUMP JUMPDEST DUP1 PUSH1 0x40 MLOAD PUSH1 0x20 ADD PUSH2 0x979 SWAP1 PUSH2 0x124A JUMP JUMPDEST PUSH1 0x40 MLOAD PUSH1 0x20 DUP2 DUP4 SUB SUB DUP2 MSTORE SWAP1 PUSH1 0x40 MSTORE DUP1 MLOAD SWAP1 PUSH1 0x20 ADD KECCAK256 SUB PUSH2 0xAF1 JUMPI DUP4 PUSH0 DUP1 ADD DUP5 PUSH2 0xFFFF AND PUSH2 0x4B1 DUP2 LT PUSH2 0x9AF JUMPI PUSH2 0x9AE PUSH2 0xF52 JUMP JUMPDEST JUMPDEST PUSH1 0x5 SWAP2 DUP3 DUP3 DIV ADD SWAP2 SWAP1 MOD PUSH1 0x6 MUL PUSH2 0x100 EXP DUP2 SLOAD DUP2 PUSH6 0xFFFFFFFFFFFF MUL NOT AND SWAP1 DUP4 PUSH6 0xFFFFFFFFFFFF AND MUL OR SWAP1 SSTORE POP PUSH1 0x1 PUSH0 DUP1 ADD PUSH0 PUSH2 0x4B1 DUP2 LT PUSH2 0x9F4 JUMPI PUSH2 0x9F3 PUSH2 0xF52 JUMP JUMPDEST JUMPDEST PUSH1 0x5 SWAP2 DUP3 DUP3 DIV ADD SWAP2 SWAP1 MOD PUSH1 0x6 MUL DUP3 DUP3 DUP3 SWAP1 SLOAD SWAP1 PUSH2 0x100 EXP SWAP1 DIV PUSH6 0xFFFFFFFFFFFF AND PUSH2 0xA1F SWAP2 SWAP1 PUSH2 0x110B JUMP JUMPDEST SWAP3 POP PUSH2 0x100 EXP DUP2 SLOAD DUP2 PUSH6 0xFFFFFFFFFFFF MUL NOT AND SWAP1 DUP4 PUSH6 0xFFFFFFFFFFFF AND MUL OR SWAP1 SSTORE POP DUP4 PUSH0 PUSH1 0xF1 ADD DUP5 PUSH2 0xFFFF AND PUSH2 0x4B1 DUP2 LT PUSH2 0xA5D JUMPI PUSH2 0xA5C PUSH2 0xF52 JUMP JUMPDEST JUMPDEST PUSH1 0x5 SWAP2 DUP3 DUP3 DIV ADD SWAP2 SWAP1 MOD PUSH1 0x6 MUL PUSH2 0x100 EXP DUP2 SLOAD DUP2 PUSH6 0xFFFFFFFFFFFF MUL NOT AND SWAP1 DUP4 PUSH6 0xFFFFFFFFFFFF AND MUL OR SWAP1 SSTORE POP PUSH1 0x1 PUSH0 PUSH1 0xF1 ADD PUSH0 PUSH2 0x4B1 DUP2 LT PUSH2 0xAA3 JUMPI PUSH2 0xAA2 PUSH2 0xF52 JUMP JUMPDEST JUMPDEST PUSH1 0x5 SWAP2 DUP3 DUP3 DIV ADD SWAP2 SWAP1 MOD PUSH1 0x6 MUL DUP3 DUP3 DUP3 SWAP1 SLOAD SWAP1 PUSH2 0x100 EXP SWAP1 DIV PUSH6 0xFFFFFFFFFFFF AND PUSH2 0xACE SWAP2 SWAP1 PUSH2 0x110B JUMP JUMPDEST SWAP3 POP PUSH2 0x100 EXP DUP2 SLOAD DUP2 PUSH6 0xFFFFFFFFFFFF MUL NOT AND SWAP1 DUP4 PUSH6 0xFFFFFFFFFFFF AND MUL OR SWAP1 SSTORE POP JUMPDEST JUMPDEST JUMPDEST JUMPDEST POP POP POP POP JUMP JUMPDEST PUSH1 0x40 MLOAD DUP1 PUSH2 0x140 ADD PUSH1 0x40 MSTORE DUP1 PUSH0 PUSH20 0xFFFFFFFFFFFFFFFFFFFFFFFFFFFFFFFFFFFFFFFF AND DUP2 MSTORE PUSH1 0x20 ADD PUSH0 PUSH20 0xFFFFFFFFFFFFFFFFFFFFFFFFFFFFFFFFFFFFFFFF AND DUP2 MSTORE PUSH1 0x20 ADD PUSH0 PUSH2 0xFFFF AND DUP2 MSTORE PUSH1 0x20 ADD PUSH0 PUSH4 0xFFFFFFFF AND DUP2 MSTORE PUSH1 0x20 ADD PUSH0 PUSH6 0xFFFFFFFFFFFF AND DUP2 MSTORE PUSH1 0x20 ADD PUSH0 PUSH6 0xFFFFFFFFFFFF AND DUP2 MSTORE PUSH1 0x20 ADD PUSH0 ISZERO ISZERO DUP2 MSTORE PUSH1 0x20 ADD PUSH0 ISZERO ISZERO DUP2 MSTORE PUSH1 0x20 ADD PUSH0 ISZERO ISZERO DUP2 MSTORE PUSH1 0x20 ADD PUSH0 ISZERO ISZERO DUP2 MSTORE POP SWAP1 JUMP JUMPDEST PUSH0 DUP1 REVERT JUMPDEST PUSH0 DUP2 SWAP1 POP SWAP2 SWAP1 POP JUMP JUMPDEST PUSH2 0xBA7 DUP2 PUSH2 0xB95 JUMP JUMPDEST DUP2 EQ PUSH2 0xBB1 JUMPI PUSH0 DUP1 REVERT JUMPDEST POP JUMP JUMPDEST PUSH0 DUP2 CALLDATALOAD SWAP1 POP PUSH2 0xBC2 DUP2 PUSH2 0xB9E JUMP JUMPDEST SWAP3 SWAP2 POP POP JUMP JUMPDEST PUSH0 PUSH1 0x20 DUP3 DUP5 SUB SLT ISZERO PUSH2 0xBDD JUMPI PUSH2 0xBDC PUSH2 0xB91 JUMP JUMPDEST JUMPDEST PUSH0 PUSH2 0xBEA DUP5 DUP3 DUP6 ADD PUSH2 0xBB4 JUMP JUMPDEST SWAP2 POP POP SWAP3 SWAP2 POP POP JUMP JUMPDEST PUSH0 PUSH20 0xFFFFFFFFFFFFFFFFFFFFFFFFFFFFFFFFFFFFFFFF DUP3 AND SWAP1 POP SWAP2 SWAP1 POP JUMP JUMPDEST PUSH0 PUSH2 0xC1C DUP3 PUSH2 0xBF3 JUMP JUMPDEST SWAP1 POP SWAP2 SWAP1 POP JUMP JUMPDEST PUSH2 0xC2C DUP2 PUSH2 0xC12 JUMP JUMPDEST DUP3 MSTORE POP POP JUMP JUMPDEST PUSH0 PUSH2 0xFFFF DUP3 AND SWAP1 POP SWAP2 SWAP1 POP JUMP JUMPDEST PUSH2 0xC48 DUP2 PUSH2 0xC32 JUMP JUMPDEST DUP3 MSTORE POP POP JUMP JUMPDEST PUSH0 PUSH4 0xFFFFFFFF DUP3 AND SWAP1 POP SWAP2 SWAP1 POP JUMP JUMPDEST PUSH2 0xC66 DUP2 PUSH2 0xC4E JUMP JUMPDEST DUP3 MSTORE POP POP JUMP JUMPDEST PUSH0 PUSH6 0xFFFFFFFFFFFF DUP3 AND SWAP1 POP SWAP2 SWAP1 POP JUMP JUMPDEST PUSH2 0xC86 DUP2 PUSH2 0xC6C JUMP JUMPDEST DUP3 MSTORE POP POP JUMP JUMPDEST PUSH0 DUP2 ISZERO ISZERO SWAP1 POP SWAP2 SWAP1 POP JUMP JUMPDEST PUSH2 0xCA0 DUP2 PUSH2 0xC8C JUMP JUMPDEST DUP3 MSTORE POP POP JUMP JUMPDEST PUSH2 0x140 DUP3 ADD PUSH0 DUP3 ADD MLOAD PUSH2 0xCBB PUSH0 DUP6 ADD DUP3 PUSH2 0xC23 JUMP JUMPDEST POP PUSH1 0x20 DUP3 ADD MLOAD PUSH2 0xCCE PUSH1 0x20 DUP6 ADD DUP3 PUSH2 0xC23 JUMP JUMPDEST POP PUSH1 0x40 DUP3 ADD MLOAD PUSH2 0xCE1 PUSH1 0x40 DUP6 ADD DUP3 PUSH2 0xC3F JUMP JUMPDEST POP PUSH1 0x60 DUP3 ADD MLOAD PUSH2 0xCF4 PUSH1 0x60 DUP6 ADD DUP3 PUSH2 0xC5D JUMP JUMPDEST POP PUSH1 0x80 DUP3 ADD MLOAD PUSH2 0xD07 PUSH1 0x80 DUP6 ADD DUP3 PUSH2 0xC7D JUMP JUMPDEST POP PUSH1 0xA0 DUP3 ADD MLOAD PUSH2 0xD1A PUSH1 0xA0 DUP6 ADD DUP3 PUSH2 0xC7D JUMP JUMPDEST POP PUSH1 0xC0 DUP3 ADD MLOAD PUSH2 0xD2D PUSH1 0xC0 DUP6 ADD DUP3 PUSH2 0xC97 JUMP JUMPDEST POP PUSH1 0xE0 DUP3 ADD MLOAD PUSH2 0xD40 PUSH1 0xE0 DUP6 ADD DUP3 PUSH2 0xC97 JUMP JUMPDEST POP PUSH2 0x100 DUP3 ADD MLOAD PUSH2 0xD55 PUSH2 0x100 DUP6 ADD DUP3 PUSH2 0xC97 JUMP JUMPDEST POP PUSH2 0x120 DUP3 ADD MLOAD PUSH2 0xD6A PUSH2 0x120 DUP6 ADD DUP3 PUSH2 0xC97 JUMP JUMPDEST POP POP POP POP JUMP JUMPDEST PUSH0 PUSH2 0x140 DUP3 ADD SWAP1 POP PUSH2 0xD84 PUSH0 DUP4 ADD DUP5 PUSH2 0xCA6 JUMP JUMPDEST SWAP3 SWAP2 POP POP JUMP JUMPDEST PUSH2 0xD93 DUP2 PUSH2 0xC32 JUMP JUMPDEST DUP2 EQ PUSH2 0xD9D JUMPI PUSH0 DUP1 REVERT JUMPDEST POP JUMP JUMPDEST PUSH0 DUP2 CALLDATALOAD SWAP1 POP PUSH2 0xDAE DUP2 PUSH2 0xD8A JUMP JUMPDEST SWAP3 SWAP2 POP POP JUMP JUMPDEST PUSH0 PUSH1 0x20 DUP3 DUP5 SUB SLT ISZERO PUSH2 0xDC9 JUMPI PUSH2 0xDC8 PUSH2 0xB91 JUMP JUMPDEST JUMPDEST PUSH0 PUSH2 0xDD6 DUP5 DUP3 DUP6 ADD PUSH2 0xDA0 JUMP JUMPDEST SWAP2 POP POP SWAP3 SWAP2 POP POP JUMP JUMPDEST PUSH2 0xDE8 DUP2 PUSH2 0xC8C JUMP JUMPDEST DUP3 MSTORE POP POP JUMP JUMPDEST PUSH0 PUSH1 0x20 DUP3 ADD SWAP1 POP PUSH2 0xE01 PUSH0 DUP4 ADD DUP5 PUSH2 0xDDF JUMP JUMPDEST SWAP3 SWAP2 POP POP JUMP JUMPDEST PUSH0 DUP1 PUSH1 0x40 DUP4 DUP6 SUB SLT ISZERO PUSH2 0xE1D JUMPI PUSH2 0xE1C PUSH2 0xB91 JUMP JUMPDEST JUMPDEST PUSH0 PUSH2 0xE2A DUP6 DUP3 DUP7 ADD PUSH2 0xBB4 JUMP JUMPDEST SWAP3 POP POP PUSH1 0x20 PUSH2 0xE3B DUP6 DUP3 DUP7 ADD PUSH2 0xBB4 JUMP JUMPDEST SWAP2 POP POP SWAP3 POP SWAP3 SWAP1 POP JUMP JUMPDEST PUSH2 0xE4E DUP2 PUSH2 0xC6C JUMP JUMPDEST DUP2 EQ PUSH2 0xE58 JUMPI PUSH0 DUP1 REVERT JUMPDEST POP JUMP JUMPDEST PUSH0 DUP2 CALLDATALOAD SWAP1 POP PUSH2 0xE69 DUP2 PUSH2 0xE45 JUMP JUMPDEST SWAP3 SWAP2 POP POP JUMP JUMPDEST PUSH0 DUP2 SWAP1 POP SWAP2 SWAP1 POP JUMP JUMPDEST PUSH2 0xE81 DUP2 PUSH2 0xE6F JUMP JUMPDEST DUP2 EQ PUSH2 0xE8B JUMPI PUSH0 DUP1 REVERT JUMPDEST POP JUMP JUMPDEST PUSH0 DUP2 CALLDATALOAD SWAP1 POP PUSH2 0xE9C DUP2 PUSH2 0xE78 JUMP JUMPDEST SWAP3 SWAP2 POP POP JUMP JUMPDEST PUSH0 DUP1 PUSH0 PUSH1 0x60 DUP5 DUP7 SUB SLT ISZERO PUSH2 0xEB9 JUMPI PUSH2 0xEB8 PUSH2 0xB91 JUMP JUMPDEST JUMPDEST PUSH0 PUSH2 0xEC6 DUP7 DUP3 DUP8 ADD PUSH2 0xE5B JUMP JUMPDEST SWAP4 POP POP PUSH1 0x20 PUSH2 0xED7 DUP7 DUP3 DUP8 ADD PUSH2 0xDA0 JUMP JUMPDEST SWAP3 POP POP PUSH1 0x40 PUSH2 0xEE8 DUP7 DUP3 DUP8 ADD PUSH2 0xE8E JUMP JUMPDEST SWAP2 POP POP SWAP3 POP SWAP3 POP SWAP3 JUMP JUMPDEST PUSH32 0x4E487B7100000000000000000000000000000000000000000000000000000000 PUSH0 MSTORE PUSH1 0x11 PUSH1 0x4 MSTORE PUSH1 0x24 PUSH0 REVERT JUMPDEST PUSH0 PUSH2 0xF29 DUP3 PUSH2 0xB95 JUMP JUMPDEST SWAP2 POP PUSH2 0xF34 DUP4 PUSH2 0xB95 JUMP JUMPDEST SWAP3 POP DUP3 DUP3 SUB SWAP1 POP DUP2 DUP2 GT ISZERO PUSH2 0xF4C JUMPI PUSH2 0xF4B PUSH2 0xEF2 JUMP JUMPDEST JUMPDEST SWAP3 SWAP2 POP POP JUMP JUMPDEST PUSH32 0x4E487B7100000000000000000000000000000000000000000000000000000000 PUSH0 MSTORE PUSH1 0x32 PUSH1 0x4 MSTORE PUSH1 0x24 PUSH0 REVERT JUMPDEST PUSH0 PUSH2 0xF89 DUP3 PUSH2 0xC32 JUMP JUMPDEST SWAP2 POP PUSH2 0xFFFF DUP3 SUB PUSH2 0xF9D JUMPI PUSH2 0xF9C PUSH2 0xEF2 JUMP JUMPDEST JUMPDEST PUSH1 0x1 DUP3 ADD SWAP1 POP SWAP2 SWAP1 POP JUMP JUMPDEST PUSH32 0x4E487B7100000000000000000000000000000000000000000000000000000000 PUSH0 MSTORE PUSH1 0x12 PUSH1 0x4 MSTORE PUSH1 0x24 PUSH0 REVERT JUMPDEST PUSH0 PUSH2 0xFDF DUP3 PUSH2 0xC32 JUMP JUMPDEST SWAP2 POP PUSH2 0xFEA DUP4 PUSH2 0xC32 JUMP JUMPDEST SWAP3 POP DUP3 PUSH2 0xFFA JUMPI PUSH2 0xFF9 PUSH2 0xFA8 JUMP JUMPDEST JUMPDEST DUP3 DUP3 DIV SWAP1 POP SWAP3 SWAP2 POP POP JUMP JUMPDEST PUSH0 PUSH2 0x100F DUP3 PUSH2 0xC32 JUMP JUMPDEST SWAP2 POP PUSH2 0x101A DUP4 PUSH2 0xC32 JUMP JUMPDEST SWAP3 POP DUP3 DUP3 MUL PUSH2 0x1028 DUP2 PUSH2 0xC32 JUMP JUMPDEST SWAP2 POP DUP1 DUP3 EQ PUSH2 0x103A JUMPI PUSH2 0x1039 PUSH2 0xEF2 JUMP JUMPDEST JUMPDEST POP SWAP3 SWAP2 POP POP JUMP JUMPDEST PUSH2 0x104A DUP2 PUSH2 0xB95 JUMP JUMPDEST DUP3 MSTORE POP POP JUMP JUMPDEST PUSH0 PUSH1 0x20 DUP3 ADD SWAP1 POP PUSH2 0x1063 PUSH0 DUP4 ADD DUP5 PUSH2 0x1041 JUMP JUMPDEST SWAP3 SWAP2 POP POP JUMP JUMPDEST PUSH0 DUP2 SWAP1 POP SWAP2 SWAP1 POP JUMP JUMPDEST PUSH2 0x1083 PUSH2 0x107E DUP3 PUSH2 0xE6F JUMP JUMPDEST PUSH2 0x1069 JUMP JUMPDEST DUP3 MSTORE POP POP JUMP JUMPDEST PUSH0 PUSH2 0x1094 DUP3 DUP5 PUSH2 0x1072 JUMP JUMPDEST PUSH1 0x20 DUP3 ADD SWAP2 POP DUP2 SWAP1 POP SWAP3 SWAP2 POP POP JUMP JUMPDEST PUSH0 DUP2 SWAP1 POP SWAP3 SWAP2 POP POP JUMP JUMPDEST PUSH32 0x666F72416E790000000000000000000000000000000000000000000000000000 PUSH0 DUP3 ADD MSTORE POP JUMP JUMPDEST PUSH0 PUSH2 0x10E1 PUSH1 0x6 DUP4 PUSH2 0x10A3 JUMP JUMPDEST SWAP2 POP PUSH2 0x10EC DUP3 PUSH2 0x10AD JUMP JUMPDEST PUSH1 0x6 DUP3 ADD SWAP1 POP SWAP2 SWAP1 POP JUMP JUMPDEST PUSH0 PUSH2 0x1101 DUP3 PUSH2 0x10D5 JUMP JUMPDEST SWAP2 POP DUP2 SWAP1 POP SWAP2 SWAP1 POP JUMP JUMPDEST PUSH0 PUSH2 0x1115 DUP3 PUSH2 0xC6C JUMP JUMPDEST SWAP2 POP PUSH2 0x1120 DUP4 PUSH2 0xC6C JUMP JUMPDEST SWAP3 POP DUP3 DUP3 ADD SWAP1 POP PUSH6 0xFFFFFFFFFFFF DUP2 GT ISZERO PUSH2 0x113E JUMPI PUSH2 0x113D PUSH2 0xEF2 JUMP JUMPDEST JUMPDEST SWAP3 SWAP2 POP POP JUMP JUMPDEST PUSH32 0x6C617374506172746941756374696F6E00000000000000000000000000000000 PUSH0 DUP3 ADD MSTORE POP JUMP JUMPDEST PUSH0 PUSH2 0x1178 PUSH1 0x10 DUP4 PUSH2 0x10A3 JUMP JUMPDEST SWAP2 POP PUSH2 0x1183 DUP3 PUSH2 0x1144 JUMP JUMPDEST PUSH1 0x10 DUP3 ADD SWAP1 POP SWAP2 SWAP1 POP JUMP JUMPDEST PUSH0 PUSH2 0x1198 DUP3 PUSH2 0x116C JUMP JUMPDEST SWAP2 POP DUP2 SWAP1 POP SWAP2 SWAP1 POP JUMP JUMPDEST PUSH32 0x6C61737453756341756374696F6E000000000000000000000000000000000000 PUSH0 DUP3 ADD MSTORE POP JUMP JUMPDEST PUSH0 PUSH2 0x11D6 PUSH1 0xE DUP4 PUSH2 0x10A3 JUMP JUMPDEST SWAP2 POP PUSH2 0x11E1 DUP3 PUSH2 0x11A2 JUMP JUMPDEST PUSH1 0xE DUP3 ADD SWAP1 POP SWAP2 SWAP1 POP JUMP JUMPDEST PUSH0 PUSH2 0x11F6 DUP3 PUSH2 0x11CA JUMP JUMPDEST SWAP2 POP DUP2 SWAP1 POP SWAP2 SWAP1 POP JUMP JUMPDEST PUSH32 0x6C6173745472616E736665720000000000000000000000000000000000000000 PUSH0 DUP3 ADD MSTORE POP JUMP JUMPDEST PUSH0 PUSH2 0x1234 PUSH1 0xC DUP4 PUSH2 0x10A3 JUMP JUMPDEST SWAP2 POP PUSH2 0x123F DUP3 PUSH2 0x1200 JUMP JUMPDEST PUSH1 0xC DUP3 ADD SWAP1 POP SWAP2 SWAP1 POP JUMP JUMPDEST PUSH0 PUSH2 0x1254 DUP3 PUSH2 0x1228 JUMP JUMPDEST SWAP2 POP DUP2 SWAP1 POP SWAP2 SWAP1 POP JUMP INVALID LOG2 PUSH5 0x6970667358 0x22 SLT KECCAK256 RETURNDATASIZE PUSH28 0x4094A4F793739220A5D48E74CE2586266D6E45CFBFFF6E496A1DB2C0 RETURN 0xFC PUSH5 0x736F6C6343 STOP ADDMOD EQ STOP CALLER "
				},
				"gasEstimates": {
					"creation": {
						"codeDepositCost": "951200",
						"executionCost": "986",
						"totalCost": "952186"
					},
					"external": {
						"isQuorumValid(uint16)": "infinite",
						"proposals(uint256)": "infinite",
						"setActivityTimeToken(uint48,uint16,bytes32)": "infinite",
						"setProposalState(uint256,uint256)": "infinite"
					}
				},
				"methodIdentifiers": {
					"isQuorumValid(uint16)": "0702718e",
					"proposals(uint256)": "013cf08b",
					"setActivityTimeToken(uint48,uint16,bytes32)": "990492f5",
					"setProposalState(uint256,uint256)": "1e9608a8"
				}
			},
			"storageLayout": {
				"storage": [
					{
						"astId": 25,
						"contract": "contracts/storageTokenContractName.sol:storageTCN",
						"label": "activityTimeToken",
						"offset": 0,
						"slot": "0",
						"type": "t_struct(ACTIVITYTIME)22_storage"
					},
					{
						"astId": 51,
						"contract": "contracts/storageTokenContractName.sol:storageTCN",
						"label": "_proposals",
						"offset": 0,
						"slot": "964",
						"type": "t_mapping(t_uint256,t_struct(ProposalCore)46_storage)"
					},
					{
						"astId": 57,
						"contract": "contracts/storageTokenContractName.sol:storageTCN",
						"label": "_votersVote",
						"offset": 0,
						"slot": "965",
						"type": "t_mapping(t_uint256,t_mapping(t_address,t_bytes32))"
					}
				],
				"types": {
					"t_address": {
						"encoding": "inplace",
						"label": "address",
						"numberOfBytes": "20"
					},
					"t_array(t_uint48)1201_storage": {
						"base": "t_uint48",
						"encoding": "inplace",
						"label": "uint48[1201]",
						"numberOfBytes": "7712"
					},
					"t_bool": {
						"encoding": "inplace",
						"label": "bool",
						"numberOfBytes": "1"
					},
					"t_bytes32": {
						"encoding": "inplace",
						"label": "bytes32",
						"numberOfBytes": "32"
					},
					"t_mapping(t_address,t_bytes32)": {
						"encoding": "mapping",
						"key": "t_address",
						"label": "mapping(address => bytes32)",
						"numberOfBytes": "32",
						"value": "t_bytes32"
					},
					"t_mapping(t_uint256,t_mapping(t_address,t_bytes32))": {
						"encoding": "mapping",
						"key": "t_uint256",
						"label": "mapping(uint256 => mapping(address => bytes32))",
						"numberOfBytes": "32",
						"value": "t_mapping(t_address,t_bytes32)"
					},
					"t_mapping(t_uint256,t_struct(ProposalCore)46_storage)": {
						"encoding": "mapping",
						"key": "t_uint256",
						"label": "mapping(uint256 => struct storageTCN.ProposalCore)",
						"numberOfBytes": "32",
						"value": "t_struct(ProposalCore)46_storage"
					},
					"t_struct(ACTIVITYTIME)22_storage": {
						"encoding": "inplace",
						"label": "struct storageTCN.ACTIVITYTIME",
						"members": [
							{
								"astId": 9,
								"contract": "contracts/storageTokenContractName.sol:storageTCN",
								"label": "forAny",
								"offset": 0,
								"slot": "0",
								"type": "t_array(t_uint48)1201_storage"
							},
							{
								"astId": 13,
								"contract": "contracts/storageTokenContractName.sol:storageTCN",
								"label": "lastTransfer",
								"offset": 0,
								"slot": "241",
								"type": "t_array(t_uint48)1201_storage"
							},
							{
								"astId": 17,
								"contract": "contracts/storageTokenContractName.sol:storageTCN",
								"label": "lastPartiAuction",
								"offset": 0,
								"slot": "482",
								"type": "t_array(t_uint48)1201_storage"
							},
							{
								"astId": 21,
								"contract": "contracts/storageTokenContractName.sol:storageTCN",
								"label": "lastSucAuction",
								"offset": 0,
								"slot": "723",
								"type": "t_array(t_uint48)1201_storage"
							}
						],
						"numberOfBytes": "30848"
					},
					"t_struct(ProposalCore)46_storage": {
						"encoding": "inplace",
						"label": "struct storageTCN.ProposalCore",
						"members": [
							{
								"astId": 27,
								"contract": "contracts/storageTokenContractName.sol:storageTCN",
								"label": "proposer",
								"offset": 0,
								"slot": "0",
								"type": "t_address"
							},
							{
								"astId": 29,
								"contract": "contracts/storageTokenContractName.sol:storageTCN",
								"label": "ballotContract",
								"offset": 0,
								"slot": "1",
								"type": "t_address"
							},
							{
								"astId": 31,
								"contract": "contracts/storageTokenContractName.sol:storageTCN",
								"label": "quorum",
								"offset": 20,
								"slot": "1",
								"type": "t_uint16"
							},
							{
								"astId": 33,
								"contract": "contracts/storageTokenContractName.sol:storageTCN",
								"label": "voteDuration",
								"offset": 22,
								"slot": "1",
								"type": "t_uint32"
							},
							{
								"astId": 35,
								"contract": "contracts/storageTokenContractName.sol:storageTCN",
								"label": "voteStart",
								"offset": 26,
								"slot": "1",
								"type": "t_uint48"
							},
							{
								"astId": 37,
								"contract": "contracts/storageTokenContractName.sol:storageTCN",
								"label": "etaSeconds",
								"offset": 0,
								"slot": "2",
								"type": "t_uint48"
							},
							{
								"astId": 39,
								"contract": "contracts/storageTokenContractName.sol:storageTCN",
								"label": "executed",
								"offset": 6,
								"slot": "2",
								"type": "t_bool"
							},
							{
								"astId": 41,
								"contract": "contracts/storageTokenContractName.sol:storageTCN",
								"label": "canceled",
								"offset": 7,
								"slot": "2",
								"type": "t_bool"
							},
							{
								"astId": 43,
								"contract": "contracts/storageTokenContractName.sol:storageTCN",
								"label": "Succeeded",
								"offset": 8,
								"slot": "2",
								"type": "t_bool"
							},
							{
								"astId": 45,
								"contract": "contracts/storageTokenContractName.sol:storageTCN",
								"label": "Defeated",
								"offset": 9,
								"slot": "2",
								"type": "t_bool"
							}
						],
						"numberOfBytes": "96"
					},
					"t_uint16": {
						"encoding": "inplace",
						"label": "uint16",
						"numberOfBytes": "2"
					},
					"t_uint256": {
						"encoding": "inplace",
						"label": "uint256",
						"numberOfBytes": "32"
					},
					"t_uint32": {
						"encoding": "inplace",
						"label": "uint32",
						"numberOfBytes": "4"
					},
					"t_uint48": {
						"encoding": "inplace",
						"label": "uint48",
						"numberOfBytes": "6"
					}
				}
			},
			"userdoc": {
				"kind": "user",
				"methods": {},
				"version": 1
			}
		}
	}
}