{
	"contracts/storageTokenContractName.sol": {
		"storageTCN": {
			"abi": [
				{
					"inputs": [
						{
							"internalType": "uint256",
							"name": "proposalState",
							"type": "uint256"
						}
					],
					"name": "stateIsInvalid",
					"type": "error"
				},
				{
					"inputs": [
						{
							"internalType": "bytes32",
							"name": "varName",
							"type": "bytes32"
						}
					],
					"name": "getActivityTimeToken",
					"outputs": [
						{
							"internalType": "uint48[1201]",
							"name": "time_",
							"type": "uint48[1201]"
						}
					],
					"stateMutability": "view",
					"type": "function"
				},
				{
					"inputs": [
						{
							"internalType": "uint256",
							"name": "proposalId",
							"type": "uint256"
						}
					],
					"name": "proposals",
					"outputs": [
						{
							"components": [
								{
									"internalType": "address",
									"name": "proposer",
									"type": "address"
								},
								{
									"internalType": "address",
									"name": "ballotContract",
									"type": "address"
								},
								{
									"internalType": "uint16",
									"name": "quorum",
									"type": "uint16"
								},
								{
									"internalType": "uint32",
									"name": "voteDuration",
									"type": "uint32"
								},
								{
									"internalType": "uint48",
									"name": "voteStart",
									"type": "uint48"
								},
								{
									"internalType": "uint48",
									"name": "etaSeconds",
									"type": "uint48"
								},
								{
									"internalType": "bool",
									"name": "executed",
									"type": "bool"
								},
								{
									"internalType": "bool",
									"name": "canceled",
									"type": "bool"
								},
								{
									"internalType": "bool",
									"name": "Succeeded",
									"type": "bool"
								},
								{
									"internalType": "bool",
									"name": "Defeated",
									"type": "bool"
								}
							],
							"internalType": "struct storageTCN.ProposalCore",
							"name": "",
							"type": "tuple"
						}
					],
					"stateMutability": "view",
					"type": "function"
				},
				{
					"inputs": [
						{
							"internalType": "uint256",
							"name": "time",
							"type": "uint256"
						},
						{
							"internalType": "uint16",
							"name": "tokenId",
							"type": "uint16"
						},
						{
							"internalType": "bytes32",
							"name": "varName",
							"type": "bytes32"
						}
					],
					"name": "setActivityTimeToken",
					"outputs": [],
					"stateMutability": "nonpayable",
					"type": "function"
				},
				{
					"inputs": [
						{
							"internalType": "uint256",
							"name": "proposalState",
							"type": "uint256"
						},
						{
							"internalType": "uint256",
							"name": "proposalId",
							"type": "uint256"
						}
					],
					"name": "setProposalState",
					"outputs": [],
					"stateMutability": "nonpayable",
					"type": "function"
				}
			],
			"devdoc": {
				"kind": "dev",
				"methods": {},
				"version": 1
			},
			"evm": {
				"assembly": "    /* \"contracts/storageTokenContractName.sol\":75:3681  contract storageTCN {... */\n  mstore(0x40, 0x80)\n  callvalue\n  dup1\n  iszero\n  tag_1\n  jumpi\n  0x00\n  dup1\n  revert\ntag_1:\n  pop\n  dataSize(sub_0)\n  dup1\n  dataOffset(sub_0)\n  0x00\n  codecopy\n  0x00\n  return\nstop\n\nsub_0: assembly {\n        /* \"contracts/storageTokenContractName.sol\":75:3681  contract storageTCN {... */\n      mstore(0x40, 0x80)\n      callvalue\n      dup1\n      iszero\n      tag_1\n      jumpi\n      0x00\n      dup1\n      revert\n    tag_1:\n      pop\n      jumpi(tag_2, lt(calldatasize, 0x04))\n      shr(0xe0, calldataload(0x00))\n      dup1\n      0x013cf08b\n      eq\n      tag_3\n      jumpi\n      dup1\n      0x1e9608a8\n      eq\n      tag_4\n      jumpi\n      dup1\n      0xc34fe703\n      eq\n      tag_5\n      jumpi\n      dup1\n      0xc5301082\n      eq\n      tag_6\n      jumpi\n    tag_2:\n      0x00\n      dup1\n      revert\n        /* \"contracts/storageTokenContractName.sol\":2152:2281  function proposals(uint256 proposalId) public view returns (ProposalCore memory) {... */\n    tag_3:\n      tag_7\n      0x04\n      dup1\n      calldatasize\n      sub\n      dup2\n      add\n      swap1\n      tag_8\n      swap2\n      swap1\n      tag_9\n      jump\t// in\n    tag_8:\n      tag_10\n      jump\t// in\n    tag_7:\n      mload(0x40)\n      tag_11\n      swap2\n      swap1\n      tag_12\n      jump\t// in\n    tag_11:\n      mload(0x40)\n      dup1\n      swap2\n      sub\n      swap1\n      return\n        /* \"contracts/storageTokenContractName.sol\":3106:3676  function setProposalState(uint256 proposalState, uint256 proposalId) public {... */\n    tag_4:\n      tag_13\n      0x04\n      dup1\n      calldatasize\n      sub\n      dup2\n      add\n      swap1\n      tag_14\n      swap2\n      swap1\n      tag_15\n      jump\t// in\n    tag_14:\n      tag_16\n      jump\t// in\n    tag_13:\n      stop\n        /* \"contracts/storageTokenContractName.sol\":2291:3096  function getActivityTimeToken(bytes32 varName) public view returns (uint48[1201] memory time_) {... */\n    tag_5:\n      tag_17\n      0x04\n      dup1\n      calldatasize\n      sub\n      dup2\n      add\n      swap1\n      tag_18\n      swap2\n      swap1\n      tag_19\n      jump\t// in\n    tag_18:\n      tag_20\n      jump\t// in\n    tag_17:\n      mload(0x40)\n      tag_21\n      swap2\n      swap1\n      tag_22\n      jump\t// in\n    tag_21:\n      mload(0x40)\n      dup1\n      swap2\n      sub\n      swap1\n      return\n        /* \"contracts/storageTokenContractName.sol\":862:2142  function setActivityTimeToken(uint256 time, uint16 tokenId, bytes32 varName) public {... */\n    tag_6:\n      tag_23\n      0x04\n      dup1\n      calldatasize\n      sub\n      dup2\n      add\n      swap1\n      tag_24\n      swap2\n      swap1\n      tag_25\n      jump\t// in\n    tag_24:\n      tag_26\n      jump\t// in\n    tag_23:\n      stop\n        /* \"contracts/storageTokenContractName.sol\":2152:2281  function proposals(uint256 proposalId) public view returns (ProposalCore memory) {... */\n    tag_10:\n        /* \"contracts/storageTokenContractName.sol\":2212:2231  ProposalCore memory */\n      tag_27\n      tag_28\n      jump\t// in\n    tag_27:\n        /* \"contracts/storageTokenContractName.sol\":2251:2261  _proposals */\n      0x03c4\n        /* \"contracts/storageTokenContractName.sol\":2251:2273  _proposals[proposalId] */\n      0x00\n        /* \"contracts/storageTokenContractName.sol\":2262:2272  proposalId */\n      dup4\n        /* \"contracts/storageTokenContractName.sol\":2251:2273  _proposals[proposalId] */\n      dup2\n      mstore\n      0x20\n      add\n      swap1\n      dup2\n      mstore\n      0x20\n      add\n      0x00\n      keccak256\n        /* \"contracts/storageTokenContractName.sol\":2244:2273  return _proposals[proposalId] */\n      mload(0x40)\n      dup1\n      0x0140\n      add\n      0x40\n      mstore\n      swap1\n      dup2\n      0x00\n      dup3\n      add\n      0x00\n      swap1\n      sload\n      swap1\n      0x0100\n      exp\n      swap1\n      div\n      0xffffffffffffffffffffffffffffffffffffffff\n      and\n      0xffffffffffffffffffffffffffffffffffffffff\n      and\n      0xffffffffffffffffffffffffffffffffffffffff\n      and\n      dup2\n      mstore\n      0x20\n      add\n      0x01\n      dup3\n      add\n      0x00\n      swap1\n      sload\n      swap1\n      0x0100\n      exp\n      swap1\n      div\n      0xffffffffffffffffffffffffffffffffffffffff\n      and\n      0xffffffffffffffffffffffffffffffffffffffff\n      and\n      0xffffffffffffffffffffffffffffffffffffffff\n      and\n      dup2\n      mstore\n      0x20\n      add\n      0x01\n      dup3\n      add\n      0x14\n      swap1\n      sload\n      swap1\n      0x0100\n      exp\n      swap1\n      div\n      0xffff\n      and\n      0xffff\n      and\n      0xffff\n      and\n      dup2\n      mstore\n      0x20\n      add\n      0x01\n      dup3\n      add\n      0x16\n      swap1\n      sload\n      swap1\n      0x0100\n      exp\n      swap1\n      div\n      0xffffffff\n      and\n      0xffffffff\n      and\n      0xffffffff\n      and\n      dup2\n      mstore\n      0x20\n      add\n      0x01\n      dup3\n      add\n      0x1a\n      swap1\n      sload\n      swap1\n      0x0100\n      exp\n      swap1\n      div\n      0xffffffffffff\n      and\n      0xffffffffffff\n      and\n      0xffffffffffff\n      and\n      dup2\n      mstore\n      0x20\n      add\n      0x02\n      dup3\n      add\n      0x00\n      swap1\n      sload\n      swap1\n      0x0100\n      exp\n      swap1\n      div\n      0xffffffffffff\n      and\n      0xffffffffffff\n      and\n      0xffffffffffff\n      and\n      dup2\n      mstore\n      0x20\n      add\n      0x02\n      dup3\n      add\n      0x06\n      swap1\n      sload\n      swap1\n      0x0100\n      exp\n      swap1\n      div\n      0xff\n      and\n      iszero\n      iszero\n      iszero\n      iszero\n      dup2\n      mstore\n      0x20\n      add\n      0x02\n      dup3\n      add\n      0x07\n      swap1\n      sload\n      swap1\n      0x0100\n      exp\n      swap1\n      div\n      0xff\n      and\n      iszero\n      iszero\n      iszero\n      iszero\n      dup2\n      mstore\n      0x20\n      add\n      0x02\n      dup3\n      add\n      0x08\n      swap1\n      sload\n      swap1\n      0x0100\n      exp\n      swap1\n      div\n      0xff\n      and\n      iszero\n      iszero\n      iszero\n      iszero\n      dup2\n      mstore\n      0x20\n      add\n      0x02\n      dup3\n      add\n      0x09\n      swap1\n      sload\n      swap1\n      0x0100\n      exp\n      swap1\n      div\n      0xff\n      and\n      iszero\n      iszero\n      iszero\n      iszero\n      dup2\n      mstore\n      pop\n      pop\n      swap1\n      pop\n        /* \"contracts/storageTokenContractName.sol\":2152:2281  function proposals(uint256 proposalId) public view returns (ProposalCore memory) {... */\n      swap2\n      swap1\n      pop\n      jump\t// out\n        /* \"contracts/storageTokenContractName.sol\":3106:3676  function setProposalState(uint256 proposalState, uint256 proposalId) public {... */\n    tag_16:\n        /* \"contracts/storageTokenContractName.sol\":3202:3215  proposalState */\n      dup2\n        /* \"contracts/storageTokenContractName.sol\":3197:3198  2 */\n      0x02\n        /* \"contracts/storageTokenContractName.sol\":3197:3215  2 >= proposalState */\n      lt\n      iszero\n        /* \"contracts/storageTokenContractName.sol\":3197:3237  2 >= proposalState || proposalState >= 5 */\n      dup1\n      tag_31\n      jumpi\n      pop\n        /* \"contracts/storageTokenContractName.sol\":3236:3237  5 */\n      0x05\n        /* \"contracts/storageTokenContractName.sol\":3219:3232  proposalState */\n      dup3\n        /* \"contracts/storageTokenContractName.sol\":3219:3237  proposalState >= 5 */\n      lt\n      iszero\n        /* \"contracts/storageTokenContractName.sol\":3197:3237  2 >= proposalState || proposalState >= 5 */\n    tag_31:\n        /* \"contracts/storageTokenContractName.sol\":3193:3302  if (2 >= proposalState || proposalState >= 5) {... */\n      iszero\n      tag_32\n      jumpi\n        /* \"contracts/storageTokenContractName.sol\":3276:3289  proposalState */\n      dup2\n        /* \"contracts/storageTokenContractName.sol\":3261:3290  stateIsInvalid(proposalState) */\n      mload(0x40)\n      0x4961771d00000000000000000000000000000000000000000000000000000000\n      dup2\n      mstore\n      0x04\n      add\n      tag_33\n      swap2\n      swap1\n      tag_34\n      jump\t// in\n    tag_33:\n      mload(0x40)\n      dup1\n      swap2\n      sub\n      swap1\n      revert\n        /* \"contracts/storageTokenContractName.sol\":3193:3302  if (2 >= proposalState || proposalState >= 5) {... */\n    tag_32:\n        /* \"contracts/storageTokenContractName.sol\":3333:3334  4 */\n      0x04\n        /* \"contracts/storageTokenContractName.sol\":3316:3329  proposalState */\n      dup3\n        /* \"contracts/storageTokenContractName.sol\":3316:3334  proposalState == 4 */\n      sub\n        /* \"contracts/storageTokenContractName.sol\":3312:3669  if (proposalState == 4) {... */\n      tag_35\n      jumpi\n        /* \"contracts/storageTokenContractName.sol\":3386:3390  true */\n      0x01\n        /* \"contracts/storageTokenContractName.sol\":3351:3361  _proposals */\n      0x03c4\n        /* \"contracts/storageTokenContractName.sol\":3351:3373  _proposals[proposalId] */\n      0x00\n        /* \"contracts/storageTokenContractName.sol\":3362:3372  proposalId */\n      dup4\n        /* \"contracts/storageTokenContractName.sol\":3351:3373  _proposals[proposalId] */\n      dup2\n      mstore\n      0x20\n      add\n      swap1\n      dup2\n      mstore\n      0x20\n      add\n      0x00\n      keccak256\n        /* \"contracts/storageTokenContractName.sol\":3351:3383  _proposals[proposalId].Succeeded */\n      0x02\n      add\n      0x08\n        /* \"contracts/storageTokenContractName.sol\":3351:3390  _proposals[proposalId].Succeeded = true */\n      0x0100\n      exp\n      dup2\n      sload\n      dup2\n      0xff\n      mul\n      not\n      and\n      swap1\n      dup4\n      iszero\n      iszero\n      mul\n      or\n      swap1\n      sstore\n      pop\n        /* \"contracts/storageTokenContractName.sol\":3312:3669  if (proposalState == 4) {... */\n      jump(tag_36)\n    tag_35:\n        /* \"contracts/storageTokenContractName.sol\":3431:3432  3 */\n      0x03\n        /* \"contracts/storageTokenContractName.sol\":3414:3427  proposalState */\n      dup3\n        /* \"contracts/storageTokenContractName.sol\":3414:3432  proposalState == 3 */\n      sub\n        /* \"contracts/storageTokenContractName.sol\":3410:3669  if (proposalState == 3) {... */\n      tag_37\n      jumpi\n        /* \"contracts/storageTokenContractName.sol\":3483:3487  true */\n      0x01\n        /* \"contracts/storageTokenContractName.sol\":3449:3459  _proposals */\n      0x03c4\n        /* \"contracts/storageTokenContractName.sol\":3449:3471  _proposals[proposalId] */\n      0x00\n        /* \"contracts/storageTokenContractName.sol\":3460:3470  proposalId */\n      dup4\n        /* \"contracts/storageTokenContractName.sol\":3449:3471  _proposals[proposalId] */\n      dup2\n      mstore\n      0x20\n      add\n      swap1\n      dup2\n      mstore\n      0x20\n      add\n      0x00\n      keccak256\n        /* \"contracts/storageTokenContractName.sol\":3449:3480  _proposals[proposalId].Defeated */\n      0x02\n      add\n      0x09\n        /* \"contracts/storageTokenContractName.sol\":3449:3487  _proposals[proposalId].Defeated = true */\n      0x0100\n      exp\n      dup2\n      sload\n      dup2\n      0xff\n      mul\n      not\n      and\n      swap1\n      dup4\n      iszero\n      iszero\n      mul\n      or\n      swap1\n      sstore\n      pop\n        /* \"contracts/storageTokenContractName.sol\":3410:3669  if (proposalState == 3) {... */\n      jump(tag_38)\n    tag_37:\n        /* \"contracts/storageTokenContractName.sol\":3528:3529  5 */\n      0x05\n        /* \"contracts/storageTokenContractName.sol\":3511:3524  proposalState */\n      dup3\n        /* \"contracts/storageTokenContractName.sol\":3511:3529  proposalState == 5 */\n      sub\n        /* \"contracts/storageTokenContractName.sol\":3507:3669  if (proposalState == 5) {... */\n      tag_39\n      jumpi\n        /* \"contracts/storageTokenContractName.sol\":3580:3584  true */\n      0x01\n        /* \"contracts/storageTokenContractName.sol\":3546:3556  _proposals */\n      0x03c4\n        /* \"contracts/storageTokenContractName.sol\":3546:3568  _proposals[proposalId] */\n      0x00\n        /* \"contracts/storageTokenContractName.sol\":3557:3567  proposalId */\n      dup4\n        /* \"contracts/storageTokenContractName.sol\":3546:3568  _proposals[proposalId] */\n      dup2\n      mstore\n      0x20\n      add\n      swap1\n      dup2\n      mstore\n      0x20\n      add\n      0x00\n      keccak256\n        /* \"contracts/storageTokenContractName.sol\":3546:3577  _proposals[proposalId].executed */\n      0x02\n      add\n      0x06\n        /* \"contracts/storageTokenContractName.sol\":3546:3584  _proposals[proposalId].executed = true */\n      0x0100\n      exp\n      dup2\n      sload\n      dup2\n      0xff\n      mul\n      not\n      and\n      swap1\n      dup4\n      iszero\n      iszero\n      mul\n      or\n      swap1\n      sstore\n      pop\n        /* \"contracts/storageTokenContractName.sol\":3507:3669  if (proposalState == 5) {... */\n      jump(tag_40)\n    tag_39:\n        /* \"contracts/storageTokenContractName.sol\":3653:3657  true */\n      0x01\n        /* \"contracts/storageTokenContractName.sol\":3619:3629  _proposals */\n      0x03c4\n        /* \"contracts/storageTokenContractName.sol\":3619:3641  _proposals[proposalId] */\n      0x00\n        /* \"contracts/storageTokenContractName.sol\":3630:3640  proposalId */\n      dup4\n        /* \"contracts/storageTokenContractName.sol\":3619:3641  _proposals[proposalId] */\n      dup2\n      mstore\n      0x20\n      add\n      swap1\n      dup2\n      mstore\n      0x20\n      add\n      0x00\n      keccak256\n        /* \"contracts/storageTokenContractName.sol\":3619:3650  _proposals[proposalId].canceled */\n      0x02\n      add\n      0x07\n        /* \"contracts/storageTokenContractName.sol\":3619:3657  _proposals[proposalId].canceled = true */\n      0x0100\n      exp\n      dup2\n      sload\n      dup2\n      0xff\n      mul\n      not\n      and\n      swap1\n      dup4\n      iszero\n      iszero\n      mul\n      or\n      swap1\n      sstore\n      pop\n        /* \"contracts/storageTokenContractName.sol\":3507:3669  if (proposalState == 5) {... */\n    tag_40:\n        /* \"contracts/storageTokenContractName.sol\":3410:3669  if (proposalState == 3) {... */\n    tag_38:\n        /* \"contracts/storageTokenContractName.sol\":3312:3669  if (proposalState == 4) {... */\n    tag_36:\n        /* \"contracts/storageTokenContractName.sol\":3106:3676  function setProposalState(uint256 proposalState, uint256 proposalId) public {... */\n      pop\n      pop\n      jump\t// out\n        /* \"contracts/storageTokenContractName.sol\":2291:3096  function getActivityTimeToken(bytes32 varName) public view returns (uint48[1201] memory time_) {... */\n    tag_20:\n        /* \"contracts/storageTokenContractName.sol\":2359:2384  uint48[1201] memory time_ */\n      tag_41\n      tag_42\n      jump\t// in\n    tag_41:\n        /* \"contracts/storageTokenContractName.sol\":2398:2414  bytes32 varName_ */\n      0x00\n        /* \"contracts/storageTokenContractName.sol\":2444:2451  varName */\n      dup3\n        /* \"contracts/storageTokenContractName.sol\":2427:2452  abi.encodePacked(varName) */\n      add(0x20, mload(0x40))\n      tag_44\n      swap2\n      swap1\n      tag_45\n      jump\t// in\n    tag_44:\n      mload(0x40)\n      0x20\n      dup2\n      dup4\n      sub\n      sub\n      dup2\n      mstore\n      swap1\n      0x40\n      mstore\n        /* \"contracts/storageTokenContractName.sol\":2417:2453  keccak256(abi.encodePacked(varName)) */\n      dup1\n      mload\n      swap1\n      0x20\n      add\n      keccak256\n        /* \"contracts/storageTokenContractName.sol\":2398:2453  bytes32 varName_ = keccak256(abi.encodePacked(varName)) */\n      swap1\n      pop\n        /* \"contracts/storageTokenContractName.sol\":2511:2519  varName_ */\n      dup1\n        /* \"contracts/storageTokenContractName.sol\":2480:2506  abi.encodePacked(\"forAny\") */\n      add(0x20, mload(0x40))\n      tag_46\n      swap1\n      tag_47\n      jump\t// in\n    tag_46:\n      mload(0x40)\n      0x20\n      dup2\n      dup4\n      sub\n      sub\n      dup2\n      mstore\n      swap1\n      0x40\n      mstore\n        /* \"contracts/storageTokenContractName.sol\":2470:2507  keccak256(abi.encodePacked(\"forAny\")) */\n      dup1\n      mload\n      swap1\n      0x20\n      add\n      keccak256\n        /* \"contracts/storageTokenContractName.sol\":2470:2519  keccak256(abi.encodePacked(\"forAny\")) == varName_ */\n      sub\n        /* \"contracts/storageTokenContractName.sol\":2466:3089  if (keccak256(abi.encodePacked(\"forAny\")) == varName_) {... */\n      tag_48\n      jumpi\n        /* \"contracts/storageTokenContractName.sol\":2544:2561  activityTimeToken */\n      0x00\n        /* \"contracts/storageTokenContractName.sol\":2544:2568  activityTimeToken.forAny */\n      dup1\n      add\n        /* \"contracts/storageTokenContractName.sol\":2536:2568  time_ = activityTimeToken.forAny */\n      0x04b1\n      dup1\n      0x20\n      mul\n      mload(0x40)\n      swap1\n      dup2\n      add\n      0x40\n      mstore\n      dup1\n      swap3\n      swap2\n      swap1\n      dup3\n      0x04b1\n      dup1\n      iszero\n      tag_49\n      jumpi\n      0x20\n      mul\n      dup3\n      add\n      swap2\n      0x00\n      swap1\n    tag_50:\n      dup3\n      dup3\n      swap1\n      sload\n      swap1\n      0x0100\n      exp\n      swap1\n      div\n      0xffffffffffff\n      and\n      0xffffffffffff\n      and\n      dup2\n      mstore\n      0x20\n      add\n      swap1\n      0x06\n      add\n      swap1\n      0x20\n      dup3\n      0x05\n      add\n      div\n      swap3\n      dup4\n      add\n      swap3\n      0x01\n      sub\n      dup3\n      mul\n      swap2\n      pop\n      dup1\n      dup5\n      gt\n      tag_50\n      jumpi\n      swap1\n      pop\n    tag_49:\n      pop\n      pop\n      pop\n      pop\n      pop\n      swap2\n      pop\n        /* \"contracts/storageTokenContractName.sol\":2583:2595  return time_ */\n      pop\n      jump(tag_43)\n        /* \"contracts/storageTokenContractName.sol\":2466:3089  if (keccak256(abi.encodePacked(\"forAny\")) == varName_) {... */\n    tag_48:\n        /* \"contracts/storageTokenContractName.sol\":2667:2675  varName_ */\n      dup1\n        /* \"contracts/storageTokenContractName.sol\":2626:2662  abi.encodePacked(\"lastPartiAuction\") */\n      add(0x20, mload(0x40))\n      tag_52\n      swap1\n      tag_53\n      jump\t// in\n    tag_52:\n      mload(0x40)\n      0x20\n      dup2\n      dup4\n      sub\n      sub\n      dup2\n      mstore\n      swap1\n      0x40\n      mstore\n        /* \"contracts/storageTokenContractName.sol\":2616:2663  keccak256(abi.encodePacked(\"lastPartiAuction\")) */\n      dup1\n      mload\n      swap1\n      0x20\n      add\n      keccak256\n        /* \"contracts/storageTokenContractName.sol\":2616:2675  keccak256(abi.encodePacked(\"lastPartiAuction\")) == varName_ */\n      sub\n        /* \"contracts/storageTokenContractName.sol\":2612:3089  if (keccak256(abi.encodePacked(\"lastPartiAuction\")) == varName_) {... */\n      tag_54\n      jumpi\n        /* \"contracts/storageTokenContractName.sol\":2699:2716  activityTimeToken */\n      0x00\n        /* \"contracts/storageTokenContractName.sol\":2699:2733  activityTimeToken.lastPartiAuction */\n      0x01e2\n      add\n        /* \"contracts/storageTokenContractName.sol\":2691:2733  time_ = activityTimeToken.lastPartiAuction */\n      0x04b1\n      dup1\n      0x20\n      mul\n      mload(0x40)\n      swap1\n      dup2\n      add\n      0x40\n      mstore\n      dup1\n      swap3\n      swap2\n      swap1\n      dup3\n      0x04b1\n      dup1\n      iszero\n      tag_55\n      jumpi\n      0x20\n      mul\n      dup3\n      add\n      swap2\n      0x00\n      swap1\n    tag_56:\n      dup3\n      dup3\n      swap1\n      sload\n      swap1\n      0x0100\n      exp\n      swap1\n      div\n      0xffffffffffff\n      and\n      0xffffffffffff\n      and\n      dup2\n      mstore\n      0x20\n      add\n      swap1\n      0x06\n      add\n      swap1\n      0x20\n      dup3\n      0x05\n      add\n      div\n      swap3\n      dup4\n      add\n      swap3\n      0x01\n      sub\n      dup3\n      mul\n      swap2\n      pop\n      dup1\n      dup5\n      gt\n      tag_56\n      jumpi\n      swap1\n      pop\n    tag_55:\n      pop\n      pop\n      pop\n      pop\n      pop\n      swap2\n      pop\n        /* \"contracts/storageTokenContractName.sol\":2748:2760  return time_ */\n      pop\n      jump(tag_43)\n        /* \"contracts/storageTokenContractName.sol\":2612:3089  if (keccak256(abi.encodePacked(\"lastPartiAuction\")) == varName_) {... */\n    tag_54:\n        /* \"contracts/storageTokenContractName.sol\":2830:2838  varName_ */\n      dup1\n        /* \"contracts/storageTokenContractName.sol\":2791:2825  abi.encodePacked(\"lastSucAuction\") */\n      add(0x20, mload(0x40))\n      tag_58\n      swap1\n      tag_59\n      jump\t// in\n    tag_58:\n      mload(0x40)\n      0x20\n      dup2\n      dup4\n      sub\n      sub\n      dup2\n      mstore\n      swap1\n      0x40\n      mstore\n        /* \"contracts/storageTokenContractName.sol\":2781:2826  keccak256(abi.encodePacked(\"lastSucAuction\")) */\n      dup1\n      mload\n      swap1\n      0x20\n      add\n      keccak256\n        /* \"contracts/storageTokenContractName.sol\":2781:2838  keccak256(abi.encodePacked(\"lastSucAuction\")) == varName_ */\n      sub\n        /* \"contracts/storageTokenContractName.sol\":2777:3089  if (keccak256(abi.encodePacked(\"lastSucAuction\")) == varName_) {... */\n      tag_60\n      jumpi\n        /* \"contracts/storageTokenContractName.sol\":2862:2879  activityTimeToken */\n      0x00\n        /* \"contracts/storageTokenContractName.sol\":2862:2894  activityTimeToken.lastSucAuction */\n      0x02d3\n      add\n        /* \"contracts/storageTokenContractName.sol\":2854:2894  time_ = activityTimeToken.lastSucAuction */\n      0x04b1\n      dup1\n      0x20\n      mul\n      mload(0x40)\n      swap1\n      dup2\n      add\n      0x40\n      mstore\n      dup1\n      swap3\n      swap2\n      swap1\n      dup3\n      0x04b1\n      dup1\n      iszero\n      tag_61\n      jumpi\n      0x20\n      mul\n      dup3\n      add\n      swap2\n      0x00\n      swap1\n    tag_62:\n      dup3\n      dup3\n      swap1\n      sload\n      swap1\n      0x0100\n      exp\n      swap1\n      div\n      0xffffffffffff\n      and\n      0xffffffffffff\n      and\n      dup2\n      mstore\n      0x20\n      add\n      swap1\n      0x06\n      add\n      swap1\n      0x20\n      dup3\n      0x05\n      add\n      div\n      swap3\n      dup4\n      add\n      swap3\n      0x01\n      sub\n      dup3\n      mul\n      swap2\n      pop\n      dup1\n      dup5\n      gt\n      tag_62\n      jumpi\n      swap1\n      pop\n    tag_61:\n      pop\n      pop\n      pop\n      pop\n      pop\n      swap2\n      pop\n        /* \"contracts/storageTokenContractName.sol\":2909:2921  return time_ */\n      pop\n      jump(tag_43)\n        /* \"contracts/storageTokenContractName.sol\":2777:3089  if (keccak256(abi.encodePacked(\"lastSucAuction\")) == varName_) {... */\n    tag_60:\n        /* \"contracts/storageTokenContractName.sol\":2989:2997  varName_ */\n      dup1\n        /* \"contracts/storageTokenContractName.sol\":2952:2984  abi.encodePacked(\"lastTransfer\") */\n      add(0x20, mload(0x40))\n      tag_64\n      swap1\n      tag_65\n      jump\t// in\n    tag_64:\n      mload(0x40)\n      0x20\n      dup2\n      dup4\n      sub\n      sub\n      dup2\n      mstore\n      swap1\n      0x40\n      mstore\n        /* \"contracts/storageTokenContractName.sol\":2942:2985  keccak256(abi.encodePacked(\"lastTransfer\")) */\n      dup1\n      mload\n      swap1\n      0x20\n      add\n      keccak256\n        /* \"contracts/storageTokenContractName.sol\":2942:2997  keccak256(abi.encodePacked(\"lastTransfer\")) == varName_ */\n      sub\n        /* \"contracts/storageTokenContractName.sol\":2938:3089  if (keccak256(abi.encodePacked(\"lastTransfer\")) == varName_) {... */\n      tag_66\n      jumpi\n        /* \"contracts/storageTokenContractName.sol\":3021:3038  activityTimeToken */\n      0x00\n        /* \"contracts/storageTokenContractName.sol\":3021:3051  activityTimeToken.lastTransfer */\n      0xf1\n      add\n        /* \"contracts/storageTokenContractName.sol\":3013:3051  time_ = activityTimeToken.lastTransfer */\n      0x04b1\n      dup1\n      0x20\n      mul\n      mload(0x40)\n      swap1\n      dup2\n      add\n      0x40\n      mstore\n      dup1\n      swap3\n      swap2\n      swap1\n      dup3\n      0x04b1\n      dup1\n      iszero\n      tag_67\n      jumpi\n      0x20\n      mul\n      dup3\n      add\n      swap2\n      0x00\n      swap1\n    tag_68:\n      dup3\n      dup3\n      swap1\n      sload\n      swap1\n      0x0100\n      exp\n      swap1\n      div\n      0xffffffffffff\n      and\n      0xffffffffffff\n      and\n      dup2\n      mstore\n      0x20\n      add\n      swap1\n      0x06\n      add\n      swap1\n      0x20\n      dup3\n      0x05\n      add\n      div\n      swap3\n      dup4\n      add\n      swap3\n      0x01\n      sub\n      dup3\n      mul\n      swap2\n      pop\n      dup1\n      dup5\n      gt\n      tag_68\n      jumpi\n      swap1\n      pop\n    tag_67:\n      pop\n      pop\n      pop\n      pop\n      pop\n      swap2\n      pop\n        /* \"contracts/storageTokenContractName.sol\":3066:3078  return time_ */\n      pop\n      jump(tag_43)\n        /* \"contracts/storageTokenContractName.sol\":2938:3089  if (keccak256(abi.encodePacked(\"lastTransfer\")) == varName_) {... */\n    tag_66:\n        /* \"contracts/storageTokenContractName.sol\":2386:3096  {... */\n      pop\n        /* \"contracts/storageTokenContractName.sol\":2291:3096  function getActivityTimeToken(bytes32 varName) public view returns (uint48[1201] memory time_) {... */\n    tag_43:\n      swap2\n      swap1\n      pop\n      jump\t// out\n        /* \"contracts/storageTokenContractName.sol\":862:2142  function setActivityTimeToken(uint256 time, uint16 tokenId, bytes32 varName) public {... */\n    tag_26:\n        /* \"contracts/storageTokenContractName.sol\":957:973  bytes32 varName_ */\n      0x00\n        /* \"contracts/storageTokenContractName.sol\":1003:1010  varName */\n      dup2\n        /* \"contracts/storageTokenContractName.sol\":986:1011  abi.encodePacked(varName) */\n      add(0x20, mload(0x40))\n      tag_70\n      swap2\n      swap1\n      tag_45\n      jump\t// in\n    tag_70:\n      mload(0x40)\n      0x20\n      dup2\n      dup4\n      sub\n      sub\n      dup2\n      mstore\n      swap1\n      0x40\n      mstore\n        /* \"contracts/storageTokenContractName.sol\":976:1012  keccak256(abi.encodePacked(varName)) */\n      dup1\n      mload\n      swap1\n      0x20\n      add\n      keccak256\n        /* \"contracts/storageTokenContractName.sol\":957:1012  bytes32 varName_ = keccak256(abi.encodePacked(varName)) */\n      swap1\n      pop\n        /* \"contracts/storageTokenContractName.sol\":1023:1035  uint48 time_ */\n      0x00\n        /* \"contracts/storageTokenContractName.sol\":1045:1049  time */\n      dup5\n        /* \"contracts/storageTokenContractName.sol\":1023:1050  uint48 time_ = uint48(time) */\n      swap1\n      pop\n        /* \"contracts/storageTokenContractName.sol\":1105:1113  varName_ */\n      dup2\n        /* \"contracts/storageTokenContractName.sol\":1074:1100  abi.encodePacked(\"forAny\") */\n      add(0x20, mload(0x40))\n      tag_71\n      swap1\n      tag_47\n      jump\t// in\n    tag_71:\n      mload(0x40)\n      0x20\n      dup2\n      dup4\n      sub\n      sub\n      dup2\n      mstore\n      swap1\n      0x40\n      mstore\n        /* \"contracts/storageTokenContractName.sol\":1064:1101  keccak256(abi.encodePacked(\"forAny\")) */\n      dup1\n      mload\n      swap1\n      0x20\n      add\n      keccak256\n        /* \"contracts/storageTokenContractName.sol\":1064:1113  keccak256(abi.encodePacked(\"forAny\")) == varName_ */\n      sub\n        /* \"contracts/storageTokenContractName.sol\":1060:2135  if (keccak256(abi.encodePacked(\"forAny\")) == varName_) {... */\n      tag_72\n      jumpi\n        /* \"contracts/storageTokenContractName.sol\":1166:1171  time_ */\n      dup1\n        /* \"contracts/storageTokenContractName.sol\":1130:1147  activityTimeToken */\n      0x00\n        /* \"contracts/storageTokenContractName.sol\":1130:1154  activityTimeToken.forAny */\n      dup1\n      add\n        /* \"contracts/storageTokenContractName.sol\":1155:1162  tokenId */\n      dup6\n        /* \"contracts/storageTokenContractName.sol\":1130:1163  activityTimeToken.forAny[tokenId] */\n      0xffff\n      and\n      0x04b1\n      dup2\n      lt\n      tag_73\n      jumpi\n      tag_74\n      tag_75\n      jump\t// in\n    tag_74:\n    tag_73:\n      0x05\n      swap2\n      dup3\n      dup3\n      div\n      add\n      swap2\n      swap1\n      mod\n      0x06\n      mul\n        /* \"contracts/storageTokenContractName.sol\":1130:1171  activityTimeToken.forAny[tokenId] = time_ */\n      0x0100\n      exp\n      dup2\n      sload\n      dup2\n      0xffffffffffff\n      mul\n      not\n      and\n      swap1\n      dup4\n      0xffffffffffff\n      and\n      mul\n      or\n      swap1\n      sstore\n      pop\n        /* \"contracts/storageTokenContractName.sol\":1217:1218  1 */\n      0x01\n        /* \"contracts/storageTokenContractName.sol\":1186:1203  activityTimeToken */\n      0x00\n        /* \"contracts/storageTokenContractName.sol\":1186:1210  activityTimeToken.forAny */\n      dup1\n      add\n        /* \"contracts/storageTokenContractName.sol\":1211:1212  0 */\n      0x00\n        /* \"contracts/storageTokenContractName.sol\":1186:1213  activityTimeToken.forAny[0] */\n      0x04b1\n      dup2\n      lt\n      tag_77\n      jumpi\n      tag_78\n      tag_75\n      jump\t// in\n    tag_78:\n    tag_77:\n      0x05\n      swap2\n      dup3\n      dup3\n      div\n      add\n      swap2\n      swap1\n      mod\n      0x06\n      mul\n        /* \"contracts/storageTokenContractName.sol\":1186:1218  activityTimeToken.forAny[0] += 1 */\n      dup3\n      dup3\n      dup3\n      swap1\n      sload\n      swap1\n      0x0100\n      exp\n      swap1\n      div\n      0xffffffffffff\n      and\n      tag_80\n      swap2\n      swap1\n      tag_81\n      jump\t// in\n    tag_80:\n      swap3\n      pop\n      0x0100\n      exp\n      dup2\n      sload\n      dup2\n      0xffffffffffff\n      mul\n      not\n      and\n      swap1\n      dup4\n      0xffffffffffff\n      and\n      mul\n      or\n      swap1\n      sstore\n      pop\n        /* \"contracts/storageTokenContractName.sol\":1060:2135  if (keccak256(abi.encodePacked(\"forAny\")) == varName_) {... */\n      jump(tag_82)\n    tag_72:\n        /* \"contracts/storageTokenContractName.sol\":1290:1298  varName_ */\n      dup2\n        /* \"contracts/storageTokenContractName.sol\":1249:1285  abi.encodePacked(\"lastPartiAuction\") */\n      add(0x20, mload(0x40))\n      tag_83\n      swap1\n      tag_53\n      jump\t// in\n    tag_83:\n      mload(0x40)\n      0x20\n      dup2\n      dup4\n      sub\n      sub\n      dup2\n      mstore\n      swap1\n      0x40\n      mstore\n        /* \"contracts/storageTokenContractName.sol\":1239:1286  keccak256(abi.encodePacked(\"lastPartiAuction\")) */\n      dup1\n      mload\n      swap1\n      0x20\n      add\n      keccak256\n        /* \"contracts/storageTokenContractName.sol\":1239:1298  keccak256(abi.encodePacked(\"lastPartiAuction\")) == varName_ */\n      sub\n        /* \"contracts/storageTokenContractName.sol\":1235:2135  if (keccak256(abi.encodePacked(\"lastPartiAuction\")) == varName_) {... */\n      tag_84\n      jumpi\n        /* \"contracts/storageTokenContractName.sol\":1351:1356  time_ */\n      dup1\n        /* \"contracts/storageTokenContractName.sol\":1315:1332  activityTimeToken */\n      0x00\n        /* \"contracts/storageTokenContractName.sol\":1315:1339  activityTimeToken.forAny */\n      dup1\n      add\n        /* \"contracts/storageTokenContractName.sol\":1340:1347  tokenId */\n      dup6\n        /* \"contracts/storageTokenContractName.sol\":1315:1348  activityTimeToken.forAny[tokenId] */\n      0xffff\n      and\n      0x04b1\n      dup2\n      lt\n      tag_85\n      jumpi\n      tag_86\n      tag_75\n      jump\t// in\n    tag_86:\n    tag_85:\n      0x05\n      swap2\n      dup3\n      dup3\n      div\n      add\n      swap2\n      swap1\n      mod\n      0x06\n      mul\n        /* \"contracts/storageTokenContractName.sol\":1315:1356  activityTimeToken.forAny[tokenId] = time_ */\n      0x0100\n      exp\n      dup2\n      sload\n      dup2\n      0xffffffffffff\n      mul\n      not\n      and\n      swap1\n      dup4\n      0xffffffffffff\n      and\n      mul\n      or\n      swap1\n      sstore\n      pop\n        /* \"contracts/storageTokenContractName.sol\":1402:1403  1 */\n      0x01\n        /* \"contracts/storageTokenContractName.sol\":1371:1388  activityTimeToken */\n      0x00\n        /* \"contracts/storageTokenContractName.sol\":1371:1395  activityTimeToken.forAny */\n      dup1\n      add\n        /* \"contracts/storageTokenContractName.sol\":1396:1397  0 */\n      0x00\n        /* \"contracts/storageTokenContractName.sol\":1371:1398  activityTimeToken.forAny[0] */\n      0x04b1\n      dup2\n      lt\n      tag_88\n      jumpi\n      tag_89\n      tag_75\n      jump\t// in\n    tag_89:\n    tag_88:\n      0x05\n      swap2\n      dup3\n      dup3\n      div\n      add\n      swap2\n      swap1\n      mod\n      0x06\n      mul\n        /* \"contracts/storageTokenContractName.sol\":1371:1403  activityTimeToken.forAny[0] += 1 */\n      dup3\n      dup3\n      dup3\n      swap1\n      sload\n      swap1\n      0x0100\n      exp\n      swap1\n      div\n      0xffffffffffff\n      and\n      tag_91\n      swap2\n      swap1\n      tag_81\n      jump\t// in\n    tag_91:\n      swap3\n      pop\n      0x0100\n      exp\n      dup2\n      sload\n      dup2\n      0xffffffffffff\n      mul\n      not\n      and\n      swap1\n      dup4\n      0xffffffffffff\n      and\n      mul\n      or\n      swap1\n      sstore\n      pop\n        /* \"contracts/storageTokenContractName.sol\":1464:1469  time_ */\n      dup1\n        /* \"contracts/storageTokenContractName.sol\":1418:1435  activityTimeToken */\n      0x00\n        /* \"contracts/storageTokenContractName.sol\":1418:1452  activityTimeToken.lastPartiAuction */\n      0x01e2\n      add\n        /* \"contracts/storageTokenContractName.sol\":1453:1460  tokenId */\n      dup6\n        /* \"contracts/storageTokenContractName.sol\":1418:1461  activityTimeToken.lastPartiAuction[tokenId] */\n      0xffff\n      and\n      0x04b1\n      dup2\n      lt\n      tag_92\n      jumpi\n      tag_93\n      tag_75\n      jump\t// in\n    tag_93:\n    tag_92:\n      0x05\n      swap2\n      dup3\n      dup3\n      div\n      add\n      swap2\n      swap1\n      mod\n      0x06\n      mul\n        /* \"contracts/storageTokenContractName.sol\":1418:1469  activityTimeToken.lastPartiAuction[tokenId] = time_ */\n      0x0100\n      exp\n      dup2\n      sload\n      dup2\n      0xffffffffffff\n      mul\n      not\n      and\n      swap1\n      dup4\n      0xffffffffffff\n      and\n      mul\n      or\n      swap1\n      sstore\n      pop\n        /* \"contracts/storageTokenContractName.sol\":1525:1526  1 */\n      0x01\n        /* \"contracts/storageTokenContractName.sol\":1484:1501  activityTimeToken */\n      0x00\n        /* \"contracts/storageTokenContractName.sol\":1484:1518  activityTimeToken.lastPartiAuction */\n      0x01e2\n      add\n        /* \"contracts/storageTokenContractName.sol\":1519:1520  0 */\n      0x00\n        /* \"contracts/storageTokenContractName.sol\":1484:1521  activityTimeToken.lastPartiAuction[0] */\n      0x04b1\n      dup2\n      lt\n      tag_95\n      jumpi\n      tag_96\n      tag_75\n      jump\t// in\n    tag_96:\n    tag_95:\n      0x05\n      swap2\n      dup3\n      dup3\n      div\n      add\n      swap2\n      swap1\n      mod\n      0x06\n      mul\n        /* \"contracts/storageTokenContractName.sol\":1484:1526  activityTimeToken.lastPartiAuction[0] += 1 */\n      dup3\n      dup3\n      dup3\n      swap1\n      sload\n      swap1\n      0x0100\n      exp\n      swap1\n      div\n      0xffffffffffff\n      and\n      tag_98\n      swap2\n      swap1\n      tag_81\n      jump\t// in\n    tag_98:\n      swap3\n      pop\n      0x0100\n      exp\n      dup2\n      sload\n      dup2\n      0xffffffffffff\n      mul\n      not\n      and\n      swap1\n      dup4\n      0xffffffffffff\n      and\n      mul\n      or\n      swap1\n      sstore\n      pop\n        /* \"contracts/storageTokenContractName.sol\":1235:2135  if (keccak256(abi.encodePacked(\"lastPartiAuction\")) == varName_) {... */\n      jump(tag_99)\n    tag_84:\n        /* \"contracts/storageTokenContractName.sol\":1596:1604  varName_ */\n      dup2\n        /* \"contracts/storageTokenContractName.sol\":1557:1591  abi.encodePacked(\"lastSucAuction\") */\n      add(0x20, mload(0x40))\n      tag_100\n      swap1\n      tag_59\n      jump\t// in\n    tag_100:\n      mload(0x40)\n      0x20\n      dup2\n      dup4\n      sub\n      sub\n      dup2\n      mstore\n      swap1\n      0x40\n      mstore\n        /* \"contracts/storageTokenContractName.sol\":1547:1592  keccak256(abi.encodePacked(\"lastSucAuction\")) */\n      dup1\n      mload\n      swap1\n      0x20\n      add\n      keccak256\n        /* \"contracts/storageTokenContractName.sol\":1547:1604  keccak256(abi.encodePacked(\"lastSucAuction\")) == varName_ */\n      sub\n        /* \"contracts/storageTokenContractName.sol\":1543:2135  if (keccak256(abi.encodePacked(\"lastSucAuction\")) == varName_) {... */\n      tag_101\n      jumpi\n        /* \"contracts/storageTokenContractName.sol\":1657:1662  time_ */\n      dup1\n        /* \"contracts/storageTokenContractName.sol\":1621:1638  activityTimeToken */\n      0x00\n        /* \"contracts/storageTokenContractName.sol\":1621:1645  activityTimeToken.forAny */\n      dup1\n      add\n        /* \"contracts/storageTokenContractName.sol\":1646:1653  tokenId */\n      dup6\n        /* \"contracts/storageTokenContractName.sol\":1621:1654  activityTimeToken.forAny[tokenId] */\n      0xffff\n      and\n      0x04b1\n      dup2\n      lt\n      tag_102\n      jumpi\n      tag_103\n      tag_75\n      jump\t// in\n    tag_103:\n    tag_102:\n      0x05\n      swap2\n      dup3\n      dup3\n      div\n      add\n      swap2\n      swap1\n      mod\n      0x06\n      mul\n        /* \"contracts/storageTokenContractName.sol\":1621:1662  activityTimeToken.forAny[tokenId] = time_ */\n      0x0100\n      exp\n      dup2\n      sload\n      dup2\n      0xffffffffffff\n      mul\n      not\n      and\n      swap1\n      dup4\n      0xffffffffffff\n      and\n      mul\n      or\n      swap1\n      sstore\n      pop\n        /* \"contracts/storageTokenContractName.sol\":1708:1709  1 */\n      0x01\n        /* \"contracts/storageTokenContractName.sol\":1677:1694  activityTimeToken */\n      0x00\n        /* \"contracts/storageTokenContractName.sol\":1677:1701  activityTimeToken.forAny */\n      dup1\n      add\n        /* \"contracts/storageTokenContractName.sol\":1702:1703  0 */\n      0x00\n        /* \"contracts/storageTokenContractName.sol\":1677:1704  activityTimeToken.forAny[0] */\n      0x04b1\n      dup2\n      lt\n      tag_105\n      jumpi\n      tag_106\n      tag_75\n      jump\t// in\n    tag_106:\n    tag_105:\n      0x05\n      swap2\n      dup3\n      dup3\n      div\n      add\n      swap2\n      swap1\n      mod\n      0x06\n      mul\n        /* \"contracts/storageTokenContractName.sol\":1677:1709  activityTimeToken.forAny[0] += 1 */\n      dup3\n      dup3\n      dup3\n      swap1\n      sload\n      swap1\n      0x0100\n      exp\n      swap1\n      div\n      0xffffffffffff\n      and\n      tag_108\n      swap2\n      swap1\n      tag_81\n      jump\t// in\n    tag_108:\n      swap3\n      pop\n      0x0100\n      exp\n      dup2\n      sload\n      dup2\n      0xffffffffffff\n      mul\n      not\n      and\n      swap1\n      dup4\n      0xffffffffffff\n      and\n      mul\n      or\n      swap1\n      sstore\n      pop\n        /* \"contracts/storageTokenContractName.sol\":1768:1773  time_ */\n      dup1\n        /* \"contracts/storageTokenContractName.sol\":1724:1741  activityTimeToken */\n      0x00\n        /* \"contracts/storageTokenContractName.sol\":1724:1756  activityTimeToken.lastSucAuction */\n      0x02d3\n      add\n        /* \"contracts/storageTokenContractName.sol\":1757:1764  tokenId */\n      dup6\n        /* \"contracts/storageTokenContractName.sol\":1724:1765  activityTimeToken.lastSucAuction[tokenId] */\n      0xffff\n      and\n      0x04b1\n      dup2\n      lt\n      tag_109\n      jumpi\n      tag_110\n      tag_75\n      jump\t// in\n    tag_110:\n    tag_109:\n      0x05\n      swap2\n      dup3\n      dup3\n      div\n      add\n      swap2\n      swap1\n      mod\n      0x06\n      mul\n        /* \"contracts/storageTokenContractName.sol\":1724:1773  activityTimeToken.lastSucAuction[tokenId] = time_ */\n      0x0100\n      exp\n      dup2\n      sload\n      dup2\n      0xffffffffffff\n      mul\n      not\n      and\n      swap1\n      dup4\n      0xffffffffffff\n      and\n      mul\n      or\n      swap1\n      sstore\n      pop\n        /* \"contracts/storageTokenContractName.sol\":1827:1828  1 */\n      0x01\n        /* \"contracts/storageTokenContractName.sol\":1788:1805  activityTimeToken */\n      0x00\n        /* \"contracts/storageTokenContractName.sol\":1788:1820  activityTimeToken.lastSucAuction */\n      0x02d3\n      add\n        /* \"contracts/storageTokenContractName.sol\":1821:1822  0 */\n      0x00\n        /* \"contracts/storageTokenContractName.sol\":1788:1823  activityTimeToken.lastSucAuction[0] */\n      0x04b1\n      dup2\n      lt\n      tag_112\n      jumpi\n      tag_113\n      tag_75\n      jump\t// in\n    tag_113:\n    tag_112:\n      0x05\n      swap2\n      dup3\n      dup3\n      div\n      add\n      swap2\n      swap1\n      mod\n      0x06\n      mul\n        /* \"contracts/storageTokenContractName.sol\":1788:1828  activityTimeToken.lastSucAuction[0] += 1 */\n      dup3\n      dup3\n      dup3\n      swap1\n      sload\n      swap1\n      0x0100\n      exp\n      swap1\n      div\n      0xffffffffffff\n      and\n      tag_115\n      swap2\n      swap1\n      tag_81\n      jump\t// in\n    tag_115:\n      swap3\n      pop\n      0x0100\n      exp\n      dup2\n      sload\n      dup2\n      0xffffffffffff\n      mul\n      not\n      and\n      swap1\n      dup4\n      0xffffffffffff\n      and\n      mul\n      or\n      swap1\n      sstore\n      pop\n        /* \"contracts/storageTokenContractName.sol\":1543:2135  if (keccak256(abi.encodePacked(\"lastSucAuction\")) == varName_) {... */\n      jump(tag_116)\n    tag_101:\n        /* \"contracts/storageTokenContractName.sol\":1896:1904  varName_ */\n      dup2\n        /* \"contracts/storageTokenContractName.sol\":1859:1891  abi.encodePacked(\"lastTransfer\") */\n      add(0x20, mload(0x40))\n      tag_117\n      swap1\n      tag_65\n      jump\t// in\n    tag_117:\n      mload(0x40)\n      0x20\n      dup2\n      dup4\n      sub\n      sub\n      dup2\n      mstore\n      swap1\n      0x40\n      mstore\n        /* \"contracts/storageTokenContractName.sol\":1849:1892  keccak256(abi.encodePacked(\"lastTransfer\")) */\n      dup1\n      mload\n      swap1\n      0x20\n      add\n      keccak256\n        /* \"contracts/storageTokenContractName.sol\":1849:1904  keccak256(abi.encodePacked(\"lastTransfer\")) == varName_ */\n      sub\n        /* \"contracts/storageTokenContractName.sol\":1845:2135  if (keccak256(abi.encodePacked(\"lastTransfer\")) == varName_) {... */\n      tag_118\n      jumpi\n        /* \"contracts/storageTokenContractName.sol\":1957:1962  time_ */\n      dup1\n        /* \"contracts/storageTokenContractName.sol\":1921:1938  activityTimeToken */\n      0x00\n        /* \"contracts/storageTokenContractName.sol\":1921:1945  activityTimeToken.forAny */\n      dup1\n      add\n        /* \"contracts/storageTokenContractName.sol\":1946:1953  tokenId */\n      dup6\n        /* \"contracts/storageTokenContractName.sol\":1921:1954  activityTimeToken.forAny[tokenId] */\n      0xffff\n      and\n      0x04b1\n      dup2\n      lt\n      tag_119\n      jumpi\n      tag_120\n      tag_75\n      jump\t// in\n    tag_120:\n    tag_119:\n      0x05\n      swap2\n      dup3\n      dup3\n      div\n      add\n      swap2\n      swap1\n      mod\n      0x06\n      mul\n        /* \"contracts/storageTokenContractName.sol\":1921:1962  activityTimeToken.forAny[tokenId] = time_ */\n      0x0100\n      exp\n      dup2\n      sload\n      dup2\n      0xffffffffffff\n      mul\n      not\n      and\n      swap1\n      dup4\n      0xffffffffffff\n      and\n      mul\n      or\n      swap1\n      sstore\n      pop\n        /* \"contracts/storageTokenContractName.sol\":2008:2009  1 */\n      0x01\n        /* \"contracts/storageTokenContractName.sol\":1977:1994  activityTimeToken */\n      0x00\n        /* \"contracts/storageTokenContractName.sol\":1977:2001  activityTimeToken.forAny */\n      dup1\n      add\n        /* \"contracts/storageTokenContractName.sol\":2002:2003  0 */\n      0x00\n        /* \"contracts/storageTokenContractName.sol\":1977:2004  activityTimeToken.forAny[0] */\n      0x04b1\n      dup2\n      lt\n      tag_122\n      jumpi\n      tag_123\n      tag_75\n      jump\t// in\n    tag_123:\n    tag_122:\n      0x05\n      swap2\n      dup3\n      dup3\n      div\n      add\n      swap2\n      swap1\n      mod\n      0x06\n      mul\n        /* \"contracts/storageTokenContractName.sol\":1977:2009  activityTimeToken.forAny[0] += 1 */\n      dup3\n      dup3\n      dup3\n      swap1\n      sload\n      swap1\n      0x0100\n      exp\n      swap1\n      div\n      0xffffffffffff\n      and\n      tag_125\n      swap2\n      swap1\n      tag_81\n      jump\t// in\n    tag_125:\n      swap3\n      pop\n      0x0100\n      exp\n      dup2\n      sload\n      dup2\n      0xffffffffffff\n      mul\n      not\n      and\n      swap1\n      dup4\n      0xffffffffffff\n      and\n      mul\n      or\n      swap1\n      sstore\n      pop\n        /* \"contracts/storageTokenContractName.sol\":2066:2071  time_ */\n      dup1\n        /* \"contracts/storageTokenContractName.sol\":2024:2041  activityTimeToken */\n      0x00\n        /* \"contracts/storageTokenContractName.sol\":2024:2054  activityTimeToken.lastTransfer */\n      0xf1\n      add\n        /* \"contracts/storageTokenContractName.sol\":2055:2062  tokenId */\n      dup6\n        /* \"contracts/storageTokenContractName.sol\":2024:2063  activityTimeToken.lastTransfer[tokenId] */\n      0xffff\n      and\n      0x04b1\n      dup2\n      lt\n      tag_126\n      jumpi\n      tag_127\n      tag_75\n      jump\t// in\n    tag_127:\n    tag_126:\n      0x05\n      swap2\n      dup3\n      dup3\n      div\n      add\n      swap2\n      swap1\n      mod\n      0x06\n      mul\n        /* \"contracts/storageTokenContractName.sol\":2024:2071  activityTimeToken.lastTransfer[tokenId] = time_ */\n      0x0100\n      exp\n      dup2\n      sload\n      dup2\n      0xffffffffffff\n      mul\n      not\n      and\n      swap1\n      dup4\n      0xffffffffffff\n      and\n      mul\n      or\n      swap1\n      sstore\n      pop\n        /* \"contracts/storageTokenContractName.sol\":2123:2124  1 */\n      0x01\n        /* \"contracts/storageTokenContractName.sol\":2086:2103  activityTimeToken */\n      0x00\n        /* \"contracts/storageTokenContractName.sol\":2086:2116  activityTimeToken.lastTransfer */\n      0xf1\n      add\n        /* \"contracts/storageTokenContractName.sol\":2117:2118  0 */\n      0x00\n        /* \"contracts/storageTokenContractName.sol\":2086:2119  activityTimeToken.lastTransfer[0] */\n      0x04b1\n      dup2\n      lt\n      tag_129\n      jumpi\n      tag_130\n      tag_75\n      jump\t// in\n    tag_130:\n    tag_129:\n      0x05\n      swap2\n      dup3\n      dup3\n      div\n      add\n      swap2\n      swap1\n      mod\n      0x06\n      mul\n        /* \"contracts/storageTokenContractName.sol\":2086:2124  activityTimeToken.lastTransfer[0] += 1 */\n      dup3\n      dup3\n      dup3\n      swap1\n      sload\n      swap1\n      0x0100\n      exp\n      swap1\n      div\n      0xffffffffffff\n      and\n      tag_132\n      swap2\n      swap1\n      tag_81\n      jump\t// in\n    tag_132:\n      swap3\n      pop\n      0x0100\n      exp\n      dup2\n      sload\n      dup2\n      0xffffffffffff\n      mul\n      not\n      and\n      swap1\n      dup4\n      0xffffffffffff\n      and\n      mul\n      or\n      swap1\n      sstore\n      pop\n        /* \"contracts/storageTokenContractName.sol\":1845:2135  if (keccak256(abi.encodePacked(\"lastTransfer\")) == varName_) {... */\n    tag_118:\n        /* \"contracts/storageTokenContractName.sol\":1543:2135  if (keccak256(abi.encodePacked(\"lastSucAuction\")) == varName_) {... */\n    tag_116:\n        /* \"contracts/storageTokenContractName.sol\":1235:2135  if (keccak256(abi.encodePacked(\"lastPartiAuction\")) == varName_) {... */\n    tag_99:\n        /* \"contracts/storageTokenContractName.sol\":1060:2135  if (keccak256(abi.encodePacked(\"forAny\")) == varName_) {... */\n    tag_82:\n        /* \"contracts/storageTokenContractName.sol\":946:2142  {... */\n      pop\n      pop\n        /* \"contracts/storageTokenContractName.sol\":862:2142  function setActivityTimeToken(uint256 time, uint16 tokenId, bytes32 varName) public {... */\n      pop\n      pop\n      pop\n      jump\t// out\n    tag_28:\n      mload(0x40)\n      dup1\n      0x0140\n      add\n      0x40\n      mstore\n      dup1\n      and(0xffffffffffffffffffffffffffffffffffffffff, 0x00)\n      dup2\n      mstore\n      0x20\n      add\n      and(0xffffffffffffffffffffffffffffffffffffffff, 0x00)\n      dup2\n      mstore\n      0x20\n      add\n      and(0xffff, 0x00)\n      dup2\n      mstore\n      0x20\n      add\n      and(0xffffffff, 0x00)\n      dup2\n      mstore\n      0x20\n      add\n      and(0xffffffffffff, 0x00)\n      dup2\n      mstore\n      0x20\n      add\n      and(0xffffffffffff, 0x00)\n      dup2\n      mstore\n      0x20\n      add\n      iszero(iszero(0x00))\n      dup2\n      mstore\n      0x20\n      add\n      iszero(iszero(0x00))\n      dup2\n      mstore\n      0x20\n      add\n      iszero(iszero(0x00))\n      dup2\n      mstore\n      0x20\n      add\n      iszero(iszero(0x00))\n      dup2\n      mstore\n      pop\n      swap1\n      jump\t// out\n    tag_42:\n      mload(0x40)\n      dup1\n      0x9620\n      add\n      0x40\n      mstore\n      dup1\n      0x04b1\n      swap1\n      0x20\n      dup3\n      mul\n      dup1\n      calldatasize\n      dup4\n      calldatacopy\n      dup1\n      dup3\n      add\n      swap2\n      pop\n      pop\n      swap1\n      pop\n      pop\n      swap1\n      jump\t// out\n        /* \"#utility.yul\":88:205   */\n    tag_134:\n        /* \"#utility.yul\":197:198   */\n      0x00\n        /* \"#utility.yul\":194:195   */\n      dup1\n        /* \"#utility.yul\":187:199   */\n      revert\n        /* \"#utility.yul\":334:411   */\n    tag_136:\n        /* \"#utility.yul\":371:378   */\n      0x00\n        /* \"#utility.yul\":400:405   */\n      dup2\n        /* \"#utility.yul\":389:405   */\n      swap1\n      pop\n        /* \"#utility.yul\":334:411   */\n      swap2\n      swap1\n      pop\n      jump\t// out\n        /* \"#utility.yul\":417:539   */\n    tag_137:\n        /* \"#utility.yul\":490:514   */\n      tag_181\n        /* \"#utility.yul\":508:513   */\n      dup2\n        /* \"#utility.yul\":490:514   */\n      tag_136\n      jump\t// in\n    tag_181:\n        /* \"#utility.yul\":483:488   */\n      dup2\n        /* \"#utility.yul\":480:515   */\n      eq\n        /* \"#utility.yul\":470:533   */\n      tag_182\n      jumpi\n        /* \"#utility.yul\":529:530   */\n      0x00\n        /* \"#utility.yul\":526:527   */\n      dup1\n        /* \"#utility.yul\":519:531   */\n      revert\n        /* \"#utility.yul\":470:533   */\n    tag_182:\n        /* \"#utility.yul\":417:539   */\n      pop\n      jump\t// out\n        /* \"#utility.yul\":545:684   */\n    tag_138:\n        /* \"#utility.yul\":591:596   */\n      0x00\n        /* \"#utility.yul\":629:635   */\n      dup2\n        /* \"#utility.yul\":616:636   */\n      calldataload\n        /* \"#utility.yul\":607:636   */\n      swap1\n      pop\n        /* \"#utility.yul\":645:678   */\n      tag_184\n        /* \"#utility.yul\":672:677   */\n      dup2\n        /* \"#utility.yul\":645:678   */\n      tag_137\n      jump\t// in\n    tag_184:\n        /* \"#utility.yul\":545:684   */\n      swap3\n      swap2\n      pop\n      pop\n      jump\t// out\n        /* \"#utility.yul\":690:1019   */\n    tag_9:\n        /* \"#utility.yul\":749:755   */\n      0x00\n        /* \"#utility.yul\":798:800   */\n      0x20\n        /* \"#utility.yul\":786:795   */\n      dup3\n        /* \"#utility.yul\":777:784   */\n      dup5\n        /* \"#utility.yul\":773:796   */\n      sub\n        /* \"#utility.yul\":769:801   */\n      slt\n        /* \"#utility.yul\":766:885   */\n      iszero\n      tag_186\n      jumpi\n        /* \"#utility.yul\":804:883   */\n      tag_187\n      tag_134\n      jump\t// in\n    tag_187:\n        /* \"#utility.yul\":766:885   */\n    tag_186:\n        /* \"#utility.yul\":924:925   */\n      0x00\n        /* \"#utility.yul\":949:1002   */\n      tag_188\n        /* \"#utility.yul\":994:1001   */\n      dup5\n        /* \"#utility.yul\":985:991   */\n      dup3\n        /* \"#utility.yul\":974:983   */\n      dup6\n        /* \"#utility.yul\":970:992   */\n      add\n        /* \"#utility.yul\":949:1002   */\n      tag_138\n      jump\t// in\n    tag_188:\n        /* \"#utility.yul\":939:1002   */\n      swap2\n      pop\n        /* \"#utility.yul\":895:1012   */\n      pop\n        /* \"#utility.yul\":690:1019   */\n      swap3\n      swap2\n      pop\n      pop\n      jump\t// out\n        /* \"#utility.yul\":1025:1151   */\n    tag_139:\n        /* \"#utility.yul\":1062:1069   */\n      0x00\n        /* \"#utility.yul\":1102:1144   */\n      0xffffffffffffffffffffffffffffffffffffffff\n        /* \"#utility.yul\":1095:1100   */\n      dup3\n        /* \"#utility.yul\":1091:1145   */\n      and\n        /* \"#utility.yul\":1080:1145   */\n      swap1\n      pop\n        /* \"#utility.yul\":1025:1151   */\n      swap2\n      swap1\n      pop\n      jump\t// out\n        /* \"#utility.yul\":1157:1253   */\n    tag_140:\n        /* \"#utility.yul\":1194:1201   */\n      0x00\n        /* \"#utility.yul\":1223:1247   */\n      tag_191\n        /* \"#utility.yul\":1241:1246   */\n      dup3\n        /* \"#utility.yul\":1223:1247   */\n      tag_139\n      jump\t// in\n    tag_191:\n        /* \"#utility.yul\":1212:1247   */\n      swap1\n      pop\n        /* \"#utility.yul\":1157:1253   */\n      swap2\n      swap1\n      pop\n      jump\t// out\n        /* \"#utility.yul\":1259:1367   */\n    tag_141:\n        /* \"#utility.yul\":1336:1360   */\n      tag_193\n        /* \"#utility.yul\":1354:1359   */\n      dup2\n        /* \"#utility.yul\":1336:1360   */\n      tag_140\n      jump\t// in\n    tag_193:\n        /* \"#utility.yul\":1331:1334   */\n      dup3\n        /* \"#utility.yul\":1324:1361   */\n      mstore\n        /* \"#utility.yul\":1259:1367   */\n      pop\n      pop\n      jump\t// out\n        /* \"#utility.yul\":1373:1462   */\n    tag_142:\n        /* \"#utility.yul\":1409:1416   */\n      0x00\n        /* \"#utility.yul\":1449:1455   */\n      0xffff\n        /* \"#utility.yul\":1442:1447   */\n      dup3\n        /* \"#utility.yul\":1438:1456   */\n      and\n        /* \"#utility.yul\":1427:1456   */\n      swap1\n      pop\n        /* \"#utility.yul\":1373:1462   */\n      swap2\n      swap1\n      pop\n      jump\t// out\n        /* \"#utility.yul\":1468:1573   */\n    tag_143:\n        /* \"#utility.yul\":1543:1566   */\n      tag_196\n        /* \"#utility.yul\":1560:1565   */\n      dup2\n        /* \"#utility.yul\":1543:1566   */\n      tag_142\n      jump\t// in\n    tag_196:\n        /* \"#utility.yul\":1538:1541   */\n      dup3\n        /* \"#utility.yul\":1531:1567   */\n      mstore\n        /* \"#utility.yul\":1468:1573   */\n      pop\n      pop\n      jump\t// out\n        /* \"#utility.yul\":1579:1672   */\n    tag_144:\n        /* \"#utility.yul\":1615:1622   */\n      0x00\n        /* \"#utility.yul\":1655:1665   */\n      0xffffffff\n        /* \"#utility.yul\":1648:1653   */\n      dup3\n        /* \"#utility.yul\":1644:1666   */\n      and\n        /* \"#utility.yul\":1633:1666   */\n      swap1\n      pop\n        /* \"#utility.yul\":1579:1672   */\n      swap2\n      swap1\n      pop\n      jump\t// out\n        /* \"#utility.yul\":1678:1783   */\n    tag_145:\n        /* \"#utility.yul\":1753:1776   */\n      tag_199\n        /* \"#utility.yul\":1770:1775   */\n      dup2\n        /* \"#utility.yul\":1753:1776   */\n      tag_144\n      jump\t// in\n    tag_199:\n        /* \"#utility.yul\":1748:1751   */\n      dup3\n        /* \"#utility.yul\":1741:1777   */\n      mstore\n        /* \"#utility.yul\":1678:1783   */\n      pop\n      pop\n      jump\t// out\n        /* \"#utility.yul\":1789:1886   */\n    tag_146:\n        /* \"#utility.yul\":1825:1832   */\n      0x00\n        /* \"#utility.yul\":1865:1879   */\n      0xffffffffffff\n        /* \"#utility.yul\":1858:1863   */\n      dup3\n        /* \"#utility.yul\":1854:1880   */\n      and\n        /* \"#utility.yul\":1843:1880   */\n      swap1\n      pop\n        /* \"#utility.yul\":1789:1886   */\n      swap2\n      swap1\n      pop\n      jump\t// out\n        /* \"#utility.yul\":1892:1997   */\n    tag_147:\n        /* \"#utility.yul\":1967:1990   */\n      tag_202\n        /* \"#utility.yul\":1984:1989   */\n      dup2\n        /* \"#utility.yul\":1967:1990   */\n      tag_146\n      jump\t// in\n    tag_202:\n        /* \"#utility.yul\":1962:1965   */\n      dup3\n        /* \"#utility.yul\":1955:1991   */\n      mstore\n        /* \"#utility.yul\":1892:1997   */\n      pop\n      pop\n      jump\t// out\n        /* \"#utility.yul\":2003:2093   */\n    tag_148:\n        /* \"#utility.yul\":2037:2044   */\n      0x00\n        /* \"#utility.yul\":2080:2085   */\n      dup2\n        /* \"#utility.yul\":2073:2086   */\n      iszero\n        /* \"#utility.yul\":2066:2087   */\n      iszero\n        /* \"#utility.yul\":2055:2087   */\n      swap1\n      pop\n        /* \"#utility.yul\":2003:2093   */\n      swap2\n      swap1\n      pop\n      jump\t// out\n        /* \"#utility.yul\":2099:2198   */\n    tag_149:\n        /* \"#utility.yul\":2170:2191   */\n      tag_205\n        /* \"#utility.yul\":2185:2190   */\n      dup2\n        /* \"#utility.yul\":2170:2191   */\n      tag_148\n      jump\t// in\n    tag_205:\n        /* \"#utility.yul\":2165:2168   */\n      dup3\n        /* \"#utility.yul\":2158:2192   */\n      mstore\n        /* \"#utility.yul\":2099:2198   */\n      pop\n      pop\n      jump\t// out\n        /* \"#utility.yul\":2276:4211   */\n    tag_150:\n        /* \"#utility.yul\":2429:2435   */\n      0x0140\n        /* \"#utility.yul\":2424:2427   */\n      dup3\n        /* \"#utility.yul\":2420:2436   */\n      add\n        /* \"#utility.yul\":2522:2526   */\n      0x00\n        /* \"#utility.yul\":2515:2520   */\n      dup3\n        /* \"#utility.yul\":2511:2527   */\n      add\n        /* \"#utility.yul\":2505:2528   */\n      mload\n        /* \"#utility.yul\":2541:2604   */\n      tag_207\n        /* \"#utility.yul\":2598:2602   */\n      0x00\n        /* \"#utility.yul\":2593:2596   */\n      dup6\n        /* \"#utility.yul\":2589:2603   */\n      add\n        /* \"#utility.yul\":2575:2587   */\n      dup3\n        /* \"#utility.yul\":2541:2604   */\n      tag_141\n      jump\t// in\n    tag_207:\n        /* \"#utility.yul\":2446:2614   */\n      pop\n        /* \"#utility.yul\":2706:2710   */\n      0x20\n        /* \"#utility.yul\":2699:2704   */\n      dup3\n        /* \"#utility.yul\":2695:2711   */\n      add\n        /* \"#utility.yul\":2689:2712   */\n      mload\n        /* \"#utility.yul\":2725:2788   */\n      tag_208\n        /* \"#utility.yul\":2782:2786   */\n      0x20\n        /* \"#utility.yul\":2777:2780   */\n      dup6\n        /* \"#utility.yul\":2773:2787   */\n      add\n        /* \"#utility.yul\":2759:2771   */\n      dup3\n        /* \"#utility.yul\":2725:2788   */\n      tag_141\n      jump\t// in\n    tag_208:\n        /* \"#utility.yul\":2624:2798   */\n      pop\n        /* \"#utility.yul\":2882:2886   */\n      0x40\n        /* \"#utility.yul\":2875:2880   */\n      dup3\n        /* \"#utility.yul\":2871:2887   */\n      add\n        /* \"#utility.yul\":2865:2888   */\n      mload\n        /* \"#utility.yul\":2901:2962   */\n      tag_209\n        /* \"#utility.yul\":2956:2960   */\n      0x40\n        /* \"#utility.yul\":2951:2954   */\n      dup6\n        /* \"#utility.yul\":2947:2961   */\n      add\n        /* \"#utility.yul\":2933:2945   */\n      dup3\n        /* \"#utility.yul\":2901:2962   */\n      tag_143\n      jump\t// in\n    tag_209:\n        /* \"#utility.yul\":2808:2972   */\n      pop\n        /* \"#utility.yul\":3062:3066   */\n      0x60\n        /* \"#utility.yul\":3055:3060   */\n      dup3\n        /* \"#utility.yul\":3051:3067   */\n      add\n        /* \"#utility.yul\":3045:3068   */\n      mload\n        /* \"#utility.yul\":3081:3142   */\n      tag_210\n        /* \"#utility.yul\":3136:3140   */\n      0x60\n        /* \"#utility.yul\":3131:3134   */\n      dup6\n        /* \"#utility.yul\":3127:3141   */\n      add\n        /* \"#utility.yul\":3113:3125   */\n      dup3\n        /* \"#utility.yul\":3081:3142   */\n      tag_145\n      jump\t// in\n    tag_210:\n        /* \"#utility.yul\":2982:3152   */\n      pop\n        /* \"#utility.yul\":3239:3243   */\n      0x80\n        /* \"#utility.yul\":3232:3237   */\n      dup3\n        /* \"#utility.yul\":3228:3244   */\n      add\n        /* \"#utility.yul\":3222:3245   */\n      mload\n        /* \"#utility.yul\":3258:3319   */\n      tag_211\n        /* \"#utility.yul\":3313:3317   */\n      0x80\n        /* \"#utility.yul\":3308:3311   */\n      dup6\n        /* \"#utility.yul\":3304:3318   */\n      add\n        /* \"#utility.yul\":3290:3302   */\n      dup3\n        /* \"#utility.yul\":3258:3319   */\n      tag_147\n      jump\t// in\n    tag_211:\n        /* \"#utility.yul\":3162:3329   */\n      pop\n        /* \"#utility.yul\":3417:3421   */\n      0xa0\n        /* \"#utility.yul\":3410:3415   */\n      dup3\n        /* \"#utility.yul\":3406:3422   */\n      add\n        /* \"#utility.yul\":3400:3423   */\n      mload\n        /* \"#utility.yul\":3436:3497   */\n      tag_212\n        /* \"#utility.yul\":3491:3495   */\n      0xa0\n        /* \"#utility.yul\":3486:3489   */\n      dup6\n        /* \"#utility.yul\":3482:3496   */\n      add\n        /* \"#utility.yul\":3468:3480   */\n      dup3\n        /* \"#utility.yul\":3436:3497   */\n      tag_147\n      jump\t// in\n    tag_212:\n        /* \"#utility.yul\":3339:3507   */\n      pop\n        /* \"#utility.yul\":3593:3597   */\n      0xc0\n        /* \"#utility.yul\":3586:3591   */\n      dup3\n        /* \"#utility.yul\":3582:3598   */\n      add\n        /* \"#utility.yul\":3576:3599   */\n      mload\n        /* \"#utility.yul\":3612:3669   */\n      tag_213\n        /* \"#utility.yul\":3663:3667   */\n      0xc0\n        /* \"#utility.yul\":3658:3661   */\n      dup6\n        /* \"#utility.yul\":3654:3668   */\n      add\n        /* \"#utility.yul\":3640:3652   */\n      dup3\n        /* \"#utility.yul\":3612:3669   */\n      tag_149\n      jump\t// in\n    tag_213:\n        /* \"#utility.yul\":3517:3679   */\n      pop\n        /* \"#utility.yul\":3765:3769   */\n      0xe0\n        /* \"#utility.yul\":3758:3763   */\n      dup3\n        /* \"#utility.yul\":3754:3770   */\n      add\n        /* \"#utility.yul\":3748:3771   */\n      mload\n        /* \"#utility.yul\":3784:3841   */\n      tag_214\n        /* \"#utility.yul\":3835:3839   */\n      0xe0\n        /* \"#utility.yul\":3830:3833   */\n      dup6\n        /* \"#utility.yul\":3826:3840   */\n      add\n        /* \"#utility.yul\":3812:3824   */\n      dup3\n        /* \"#utility.yul\":3784:3841   */\n      tag_149\n      jump\t// in\n    tag_214:\n        /* \"#utility.yul\":3689:3851   */\n      pop\n        /* \"#utility.yul\":3938:3944   */\n      0x0100\n        /* \"#utility.yul\":3931:3936   */\n      dup3\n        /* \"#utility.yul\":3927:3945   */\n      add\n        /* \"#utility.yul\":3921:3946   */\n      mload\n        /* \"#utility.yul\":3959:4018   */\n      tag_215\n        /* \"#utility.yul\":4010:4016   */\n      0x0100\n        /* \"#utility.yul\":4005:4008   */\n      dup6\n        /* \"#utility.yul\":4001:4017   */\n      add\n        /* \"#utility.yul\":3987:3999   */\n      dup3\n        /* \"#utility.yul\":3959:4018   */\n      tag_149\n      jump\t// in\n    tag_215:\n        /* \"#utility.yul\":3861:4028   */\n      pop\n        /* \"#utility.yul\":4114:4120   */\n      0x0120\n        /* \"#utility.yul\":4107:4112   */\n      dup3\n        /* \"#utility.yul\":4103:4121   */\n      add\n        /* \"#utility.yul\":4097:4122   */\n      mload\n        /* \"#utility.yul\":4135:4194   */\n      tag_216\n        /* \"#utility.yul\":4186:4192   */\n      0x0120\n        /* \"#utility.yul\":4181:4184   */\n      dup6\n        /* \"#utility.yul\":4177:4193   */\n      add\n        /* \"#utility.yul\":4163:4175   */\n      dup3\n        /* \"#utility.yul\":4135:4194   */\n      tag_149\n      jump\t// in\n    tag_216:\n        /* \"#utility.yul\":4038:4204   */\n      pop\n        /* \"#utility.yul\":2398:4211   */\n      pop\n        /* \"#utility.yul\":2276:4211   */\n      pop\n      pop\n      jump\t// out\n        /* \"#utility.yul\":4217:4552   */\n    tag_12:\n        /* \"#utility.yul\":4366:4370   */\n      0x00\n        /* \"#utility.yul\":4404:4407   */\n      0x0140\n        /* \"#utility.yul\":4393:4402   */\n      dup3\n        /* \"#utility.yul\":4389:4408   */\n      add\n        /* \"#utility.yul\":4381:4408   */\n      swap1\n      pop\n        /* \"#utility.yul\":4418:4545   */\n      tag_218\n        /* \"#utility.yul\":4542:4543   */\n      0x00\n        /* \"#utility.yul\":4531:4540   */\n      dup4\n        /* \"#utility.yul\":4527:4544   */\n      add\n        /* \"#utility.yul\":4518:4524   */\n      dup5\n        /* \"#utility.yul\":4418:4545   */\n      tag_150\n      jump\t// in\n    tag_218:\n        /* \"#utility.yul\":4217:4552   */\n      swap3\n      swap2\n      pop\n      pop\n      jump\t// out\n        /* \"#utility.yul\":4558:5032   */\n    tag_15:\n        /* \"#utility.yul\":4626:4632   */\n      0x00\n        /* \"#utility.yul\":4634:4640   */\n      dup1\n        /* \"#utility.yul\":4683:4685   */\n      0x40\n        /* \"#utility.yul\":4671:4680   */\n      dup4\n        /* \"#utility.yul\":4662:4669   */\n      dup6\n        /* \"#utility.yul\":4658:4681   */\n      sub\n        /* \"#utility.yul\":4654:4686   */\n      slt\n        /* \"#utility.yul\":4651:4770   */\n      iszero\n      tag_220\n      jumpi\n        /* \"#utility.yul\":4689:4768   */\n      tag_221\n      tag_134\n      jump\t// in\n    tag_221:\n        /* \"#utility.yul\":4651:4770   */\n    tag_220:\n        /* \"#utility.yul\":4809:4810   */\n      0x00\n        /* \"#utility.yul\":4834:4887   */\n      tag_222\n        /* \"#utility.yul\":4879:4886   */\n      dup6\n        /* \"#utility.yul\":4870:4876   */\n      dup3\n        /* \"#utility.yul\":4859:4868   */\n      dup7\n        /* \"#utility.yul\":4855:4877   */\n      add\n        /* \"#utility.yul\":4834:4887   */\n      tag_138\n      jump\t// in\n    tag_222:\n        /* \"#utility.yul\":4824:4887   */\n      swap3\n      pop\n        /* \"#utility.yul\":4780:4897   */\n      pop\n        /* \"#utility.yul\":4936:4938   */\n      0x20\n        /* \"#utility.yul\":4962:5015   */\n      tag_223\n        /* \"#utility.yul\":5007:5014   */\n      dup6\n        /* \"#utility.yul\":4998:5004   */\n      dup3\n        /* \"#utility.yul\":4987:4996   */\n      dup7\n        /* \"#utility.yul\":4983:5005   */\n      add\n        /* \"#utility.yul\":4962:5015   */\n      tag_138\n      jump\t// in\n    tag_223:\n        /* \"#utility.yul\":4952:5015   */\n      swap2\n      pop\n        /* \"#utility.yul\":4907:5025   */\n      pop\n        /* \"#utility.yul\":4558:5032   */\n      swap3\n      pop\n      swap3\n      swap1\n      pop\n      jump\t// out\n        /* \"#utility.yul\":5038:5115   */\n    tag_151:\n        /* \"#utility.yul\":5075:5082   */\n      0x00\n        /* \"#utility.yul\":5104:5109   */\n      dup2\n        /* \"#utility.yul\":5093:5109   */\n      swap1\n      pop\n        /* \"#utility.yul\":5038:5115   */\n      swap2\n      swap1\n      pop\n      jump\t// out\n        /* \"#utility.yul\":5121:5243   */\n    tag_152:\n        /* \"#utility.yul\":5194:5218   */\n      tag_226\n        /* \"#utility.yul\":5212:5217   */\n      dup2\n        /* \"#utility.yul\":5194:5218   */\n      tag_151\n      jump\t// in\n    tag_226:\n        /* \"#utility.yul\":5187:5192   */\n      dup2\n        /* \"#utility.yul\":5184:5219   */\n      eq\n        /* \"#utility.yul\":5174:5237   */\n      tag_227\n      jumpi\n        /* \"#utility.yul\":5233:5234   */\n      0x00\n        /* \"#utility.yul\":5230:5231   */\n      dup1\n        /* \"#utility.yul\":5223:5235   */\n      revert\n        /* \"#utility.yul\":5174:5237   */\n    tag_227:\n        /* \"#utility.yul\":5121:5243   */\n      pop\n      jump\t// out\n        /* \"#utility.yul\":5249:5388   */\n    tag_153:\n        /* \"#utility.yul\":5295:5300   */\n      0x00\n        /* \"#utility.yul\":5333:5339   */\n      dup2\n        /* \"#utility.yul\":5320:5340   */\n      calldataload\n        /* \"#utility.yul\":5311:5340   */\n      swap1\n      pop\n        /* \"#utility.yul\":5349:5382   */\n      tag_229\n        /* \"#utility.yul\":5376:5381   */\n      dup2\n        /* \"#utility.yul\":5349:5382   */\n      tag_152\n      jump\t// in\n    tag_229:\n        /* \"#utility.yul\":5249:5388   */\n      swap3\n      swap2\n      pop\n      pop\n      jump\t// out\n        /* \"#utility.yul\":5394:5723   */\n    tag_19:\n        /* \"#utility.yul\":5453:5459   */\n      0x00\n        /* \"#utility.yul\":5502:5504   */\n      0x20\n        /* \"#utility.yul\":5490:5499   */\n      dup3\n        /* \"#utility.yul\":5481:5488   */\n      dup5\n        /* \"#utility.yul\":5477:5500   */\n      sub\n        /* \"#utility.yul\":5473:5505   */\n      slt\n        /* \"#utility.yul\":5470:5589   */\n      iszero\n      tag_231\n      jumpi\n        /* \"#utility.yul\":5508:5587   */\n      tag_232\n      tag_134\n      jump\t// in\n    tag_232:\n        /* \"#utility.yul\":5470:5589   */\n    tag_231:\n        /* \"#utility.yul\":5628:5629   */\n      0x00\n        /* \"#utility.yul\":5653:5706   */\n      tag_233\n        /* \"#utility.yul\":5698:5705   */\n      dup5\n        /* \"#utility.yul\":5689:5695   */\n      dup3\n        /* \"#utility.yul\":5678:5687   */\n      dup6\n        /* \"#utility.yul\":5674:5696   */\n      add\n        /* \"#utility.yul\":5653:5706   */\n      tag_153\n      jump\t// in\n    tag_233:\n        /* \"#utility.yul\":5643:5706   */\n      swap2\n      pop\n        /* \"#utility.yul\":5599:5716   */\n      pop\n        /* \"#utility.yul\":5394:5723   */\n      swap3\n      swap2\n      pop\n      pop\n      jump\t// out\n        /* \"#utility.yul\":5729:5837   */\n    tag_154:\n        /* \"#utility.yul\":5796:5802   */\n      0x00\n        /* \"#utility.yul\":5824:5830   */\n      0x04b1\n        /* \"#utility.yul\":5814:5830   */\n      swap1\n      pop\n        /* \"#utility.yul\":5729:5837   */\n      swap2\n      swap1\n      pop\n      jump\t// out\n        /* \"#utility.yul\":5843:5988   */\n    tag_155:\n        /* \"#utility.yul\":5942:5953   */\n      0x00\n        /* \"#utility.yul\":5979:5982   */\n      dup2\n        /* \"#utility.yul\":5964:5982   */\n      swap1\n      pop\n        /* \"#utility.yul\":5843:5988   */\n      swap3\n      swap2\n      pop\n      pop\n      jump\t// out\n        /* \"#utility.yul\":5994:6094   */\n    tag_156:\n        /* \"#utility.yul\":6061:6065   */\n      0x00\n        /* \"#utility.yul\":6084:6087   */\n      dup2\n        /* \"#utility.yul\":6076:6087   */\n      swap1\n      pop\n        /* \"#utility.yul\":5994:6094   */\n      swap2\n      swap1\n      pop\n      jump\t// out\n        /* \"#utility.yul\":6100:6275   */\n    tag_157:\n        /* \"#utility.yul\":6167:6177   */\n      0x00\n        /* \"#utility.yul\":6188:6232   */\n      tag_238\n        /* \"#utility.yul\":6228:6231   */\n      dup4\n        /* \"#utility.yul\":6220:6226   */\n      dup4\n        /* \"#utility.yul\":6188:6232   */\n      tag_147\n      jump\t// in\n    tag_238:\n        /* \"#utility.yul\":6264:6268   */\n      0x20\n        /* \"#utility.yul\":6259:6262   */\n      dup4\n        /* \"#utility.yul\":6255:6269   */\n      add\n        /* \"#utility.yul\":6241:6269   */\n      swap1\n      pop\n        /* \"#utility.yul\":6100:6275   */\n      swap3\n      swap2\n      pop\n      pop\n      jump\t// out\n        /* \"#utility.yul\":6281:6394   */\n    tag_158:\n        /* \"#utility.yul\":6351:6355   */\n      0x00\n        /* \"#utility.yul\":6383:6387   */\n      0x20\n        /* \"#utility.yul\":6378:6381   */\n      dup3\n        /* \"#utility.yul\":6374:6388   */\n      add\n        /* \"#utility.yul\":6366:6388   */\n      swap1\n      pop\n        /* \"#utility.yul\":6281:6394   */\n      swap2\n      swap1\n      pop\n      jump\t// out\n        /* \"#utility.yul\":6436:7140   */\n    tag_159:\n        /* \"#utility.yul\":6576:6630   */\n      tag_241\n        /* \"#utility.yul\":6624:6629   */\n      dup2\n        /* \"#utility.yul\":6576:6630   */\n      tag_154\n      jump\t// in\n    tag_241:\n        /* \"#utility.yul\":6646:6732   */\n      tag_242\n        /* \"#utility.yul\":6725:6731   */\n      dup2\n        /* \"#utility.yul\":6720:6723   */\n      dup5\n        /* \"#utility.yul\":6646:6732   */\n      tag_155\n      jump\t// in\n    tag_242:\n        /* \"#utility.yul\":6639:6732   */\n      swap3\n      pop\n        /* \"#utility.yul\":6756:6812   */\n      tag_243\n        /* \"#utility.yul\":6806:6811   */\n      dup3\n        /* \"#utility.yul\":6756:6812   */\n      tag_156\n      jump\t// in\n    tag_243:\n        /* \"#utility.yul\":6835:6842   */\n      dup1\n        /* \"#utility.yul\":6866:6867   */\n      0x00\n        /* \"#utility.yul\":6851:7133   */\n    tag_244:\n        /* \"#utility.yul\":6876:6882   */\n      dup4\n        /* \"#utility.yul\":6873:6874   */\n      dup2\n        /* \"#utility.yul\":6870:6883   */\n      lt\n        /* \"#utility.yul\":6851:7133   */\n      iszero\n      tag_246\n      jumpi\n        /* \"#utility.yul\":6952:6958   */\n      dup2\n        /* \"#utility.yul\":6946:6959   */\n      mload\n        /* \"#utility.yul\":6979:7040   */\n      tag_247\n        /* \"#utility.yul\":7036:7039   */\n      dup8\n        /* \"#utility.yul\":7021:7034   */\n      dup3\n        /* \"#utility.yul\":6979:7040   */\n      tag_157\n      jump\t// in\n    tag_247:\n        /* \"#utility.yul\":6972:7040   */\n      swap7\n      pop\n        /* \"#utility.yul\":7063:7123   */\n      tag_248\n        /* \"#utility.yul\":7116:7122   */\n      dup4\n        /* \"#utility.yul\":7063:7123   */\n      tag_158\n      jump\t// in\n    tag_248:\n        /* \"#utility.yul\":7053:7123   */\n      swap3\n      pop\n        /* \"#utility.yul\":6911:7133   */\n      pop\n        /* \"#utility.yul\":6898:6899   */\n      0x01\n        /* \"#utility.yul\":6895:6896   */\n      dup2\n        /* \"#utility.yul\":6891:6900   */\n      add\n        /* \"#utility.yul\":6886:6900   */\n      swap1\n      pop\n        /* \"#utility.yul\":6851:7133   */\n      jump(tag_244)\n    tag_246:\n        /* \"#utility.yul\":6855:6869   */\n      pop\n        /* \"#utility.yul\":6552:7140   */\n      pop\n      pop\n      pop\n        /* \"#utility.yul\":6436:7140   */\n      pop\n      pop\n      jump\t// out\n        /* \"#utility.yul\":7146:7471   */\n    tag_22:\n        /* \"#utility.yul\":7289:7293   */\n      0x00\n        /* \"#utility.yul\":7327:7332   */\n      0x9620\n        /* \"#utility.yul\":7316:7325   */\n      dup3\n        /* \"#utility.yul\":7312:7333   */\n      add\n        /* \"#utility.yul\":7304:7333   */\n      swap1\n      pop\n        /* \"#utility.yul\":7343:7464   */\n      tag_250\n        /* \"#utility.yul\":7461:7462   */\n      0x00\n        /* \"#utility.yul\":7450:7459   */\n      dup4\n        /* \"#utility.yul\":7446:7463   */\n      add\n        /* \"#utility.yul\":7437:7443   */\n      dup5\n        /* \"#utility.yul\":7343:7464   */\n      tag_159\n      jump\t// in\n    tag_250:\n        /* \"#utility.yul\":7146:7471   */\n      swap3\n      swap2\n      pop\n      pop\n      jump\t// out\n        /* \"#utility.yul\":7477:7597   */\n    tag_160:\n        /* \"#utility.yul\":7549:7572   */\n      tag_252\n        /* \"#utility.yul\":7566:7571   */\n      dup2\n        /* \"#utility.yul\":7549:7572   */\n      tag_142\n      jump\t// in\n    tag_252:\n        /* \"#utility.yul\":7542:7547   */\n      dup2\n        /* \"#utility.yul\":7539:7573   */\n      eq\n        /* \"#utility.yul\":7529:7591   */\n      tag_253\n      jumpi\n        /* \"#utility.yul\":7587:7588   */\n      0x00\n        /* \"#utility.yul\":7584:7585   */\n      dup1\n        /* \"#utility.yul\":7577:7589   */\n      revert\n        /* \"#utility.yul\":7529:7591   */\n    tag_253:\n        /* \"#utility.yul\":7477:7597   */\n      pop\n      jump\t// out\n        /* \"#utility.yul\":7603:7740   */\n    tag_161:\n        /* \"#utility.yul\":7648:7653   */\n      0x00\n        /* \"#utility.yul\":7686:7692   */\n      dup2\n        /* \"#utility.yul\":7673:7693   */\n      calldataload\n        /* \"#utility.yul\":7664:7693   */\n      swap1\n      pop\n        /* \"#utility.yul\":7702:7734   */\n      tag_255\n        /* \"#utility.yul\":7728:7733   */\n      dup2\n        /* \"#utility.yul\":7702:7734   */\n      tag_160\n      jump\t// in\n    tag_255:\n        /* \"#utility.yul\":7603:7740   */\n      swap3\n      swap2\n      pop\n      pop\n      jump\t// out\n        /* \"#utility.yul\":7746:8363   */\n    tag_25:\n        /* \"#utility.yul\":7822:7828   */\n      0x00\n        /* \"#utility.yul\":7830:7836   */\n      dup1\n        /* \"#utility.yul\":7838:7844   */\n      0x00\n        /* \"#utility.yul\":7887:7889   */\n      0x60\n        /* \"#utility.yul\":7875:7884   */\n      dup5\n        /* \"#utility.yul\":7866:7873   */\n      dup7\n        /* \"#utility.yul\":7862:7885   */\n      sub\n        /* \"#utility.yul\":7858:7890   */\n      slt\n        /* \"#utility.yul\":7855:7974   */\n      iszero\n      tag_257\n      jumpi\n        /* \"#utility.yul\":7893:7972   */\n      tag_258\n      tag_134\n      jump\t// in\n    tag_258:\n        /* \"#utility.yul\":7855:7974   */\n    tag_257:\n        /* \"#utility.yul\":8013:8014   */\n      0x00\n        /* \"#utility.yul\":8038:8091   */\n      tag_259\n        /* \"#utility.yul\":8083:8090   */\n      dup7\n        /* \"#utility.yul\":8074:8080   */\n      dup3\n        /* \"#utility.yul\":8063:8072   */\n      dup8\n        /* \"#utility.yul\":8059:8081   */\n      add\n        /* \"#utility.yul\":8038:8091   */\n      tag_138\n      jump\t// in\n    tag_259:\n        /* \"#utility.yul\":8028:8091   */\n      swap4\n      pop\n        /* \"#utility.yul\":7984:8101   */\n      pop\n        /* \"#utility.yul\":8140:8142   */\n      0x20\n        /* \"#utility.yul\":8166:8218   */\n      tag_260\n        /* \"#utility.yul\":8210:8217   */\n      dup7\n        /* \"#utility.yul\":8201:8207   */\n      dup3\n        /* \"#utility.yul\":8190:8199   */\n      dup8\n        /* \"#utility.yul\":8186:8208   */\n      add\n        /* \"#utility.yul\":8166:8218   */\n      tag_161\n      jump\t// in\n    tag_260:\n        /* \"#utility.yul\":8156:8218   */\n      swap3\n      pop\n        /* \"#utility.yul\":8111:8228   */\n      pop\n        /* \"#utility.yul\":8267:8269   */\n      0x40\n        /* \"#utility.yul\":8293:8346   */\n      tag_261\n        /* \"#utility.yul\":8338:8345   */\n      dup7\n        /* \"#utility.yul\":8329:8335   */\n      dup3\n        /* \"#utility.yul\":8318:8327   */\n      dup8\n        /* \"#utility.yul\":8314:8336   */\n      add\n        /* \"#utility.yul\":8293:8346   */\n      tag_153\n      jump\t// in\n    tag_261:\n        /* \"#utility.yul\":8283:8346   */\n      swap2\n      pop\n        /* \"#utility.yul\":8238:8356   */\n      pop\n        /* \"#utility.yul\":7746:8363   */\n      swap3\n      pop\n      swap3\n      pop\n      swap3\n      jump\t// out\n        /* \"#utility.yul\":8369:8487   */\n    tag_162:\n        /* \"#utility.yul\":8456:8480   */\n      tag_263\n        /* \"#utility.yul\":8474:8479   */\n      dup2\n        /* \"#utility.yul\":8456:8480   */\n      tag_136\n      jump\t// in\n    tag_263:\n        /* \"#utility.yul\":8451:8454   */\n      dup3\n        /* \"#utility.yul\":8444:8481   */\n      mstore\n        /* \"#utility.yul\":8369:8487   */\n      pop\n      pop\n      jump\t// out\n        /* \"#utility.yul\":8493:8715   */\n    tag_34:\n        /* \"#utility.yul\":8586:8590   */\n      0x00\n        /* \"#utility.yul\":8624:8626   */\n      0x20\n        /* \"#utility.yul\":8613:8622   */\n      dup3\n        /* \"#utility.yul\":8609:8627   */\n      add\n        /* \"#utility.yul\":8601:8627   */\n      swap1\n      pop\n        /* \"#utility.yul\":8637:8708   */\n      tag_265\n        /* \"#utility.yul\":8705:8706   */\n      0x00\n        /* \"#utility.yul\":8694:8703   */\n      dup4\n        /* \"#utility.yul\":8690:8707   */\n      add\n        /* \"#utility.yul\":8681:8687   */\n      dup5\n        /* \"#utility.yul\":8637:8708   */\n      tag_162\n      jump\t// in\n    tag_265:\n        /* \"#utility.yul\":8493:8715   */\n      swap3\n      swap2\n      pop\n      pop\n      jump\t// out\n        /* \"#utility.yul\":8721:8800   */\n    tag_163:\n        /* \"#utility.yul\":8760:8767   */\n      0x00\n        /* \"#utility.yul\":8789:8794   */\n      dup2\n        /* \"#utility.yul\":8778:8794   */\n      swap1\n      pop\n        /* \"#utility.yul\":8721:8800   */\n      swap2\n      swap1\n      pop\n      jump\t// out\n        /* \"#utility.yul\":8806:8963   */\n    tag_164:\n        /* \"#utility.yul\":8911:8956   */\n      tag_268\n        /* \"#utility.yul\":8931:8955   */\n      tag_269\n        /* \"#utility.yul\":8949:8954   */\n      dup3\n        /* \"#utility.yul\":8931:8955   */\n      tag_151\n      jump\t// in\n    tag_269:\n        /* \"#utility.yul\":8911:8956   */\n      tag_163\n      jump\t// in\n    tag_268:\n        /* \"#utility.yul\":8906:8909   */\n      dup3\n        /* \"#utility.yul\":8899:8957   */\n      mstore\n        /* \"#utility.yul\":8806:8963   */\n      pop\n      pop\n      jump\t// out\n        /* \"#utility.yul\":8969:9225   */\n    tag_45:\n        /* \"#utility.yul\":9081:9084   */\n      0x00\n        /* \"#utility.yul\":9096:9171   */\n      tag_271\n        /* \"#utility.yul\":9167:9170   */\n      dup3\n        /* \"#utility.yul\":9158:9164   */\n      dup5\n        /* \"#utility.yul\":9096:9171   */\n      tag_164\n      jump\t// in\n    tag_271:\n        /* \"#utility.yul\":9196:9198   */\n      0x20\n        /* \"#utility.yul\":9191:9194   */\n      dup3\n        /* \"#utility.yul\":9187:9199   */\n      add\n        /* \"#utility.yul\":9180:9199   */\n      swap2\n      pop\n        /* \"#utility.yul\":9216:9219   */\n      dup2\n        /* \"#utility.yul\":9209:9219   */\n      swap1\n      pop\n        /* \"#utility.yul\":8969:9225   */\n      swap3\n      swap2\n      pop\n      pop\n      jump\t// out\n        /* \"#utility.yul\":9231:9379   */\n    tag_165:\n        /* \"#utility.yul\":9333:9344   */\n      0x00\n        /* \"#utility.yul\":9370:9373   */\n      dup2\n        /* \"#utility.yul\":9355:9373   */\n      swap1\n      pop\n        /* \"#utility.yul\":9231:9379   */\n      swap3\n      swap2\n      pop\n      pop\n      jump\t// out\n        /* \"#utility.yul\":9385:9541   */\n    tag_166:\n        /* \"#utility.yul\":9525:9533   */\n      0x666f72416e790000000000000000000000000000000000000000000000000000\n        /* \"#utility.yul\":9521:9522   */\n      0x00\n        /* \"#utility.yul\":9513:9519   */\n      dup3\n        /* \"#utility.yul\":9509:9523   */\n      add\n        /* \"#utility.yul\":9502:9534   */\n      mstore\n        /* \"#utility.yul\":9385:9541   */\n      pop\n      jump\t// out\n        /* \"#utility.yul\":9547:9947   */\n    tag_167:\n        /* \"#utility.yul\":9707:9710   */\n      0x00\n        /* \"#utility.yul\":9728:9812   */\n      tag_275\n        /* \"#utility.yul\":9810:9811   */\n      0x06\n        /* \"#utility.yul\":9805:9808   */\n      dup4\n        /* \"#utility.yul\":9728:9812   */\n      tag_165\n      jump\t// in\n    tag_275:\n        /* \"#utility.yul\":9721:9812   */\n      swap2\n      pop\n        /* \"#utility.yul\":9821:9914   */\n      tag_276\n        /* \"#utility.yul\":9910:9913   */\n      dup3\n        /* \"#utility.yul\":9821:9914   */\n      tag_166\n      jump\t// in\n    tag_276:\n        /* \"#utility.yul\":9939:9940   */\n      0x06\n        /* \"#utility.yul\":9934:9937   */\n      dup3\n        /* \"#utility.yul\":9930:9941   */\n      add\n        /* \"#utility.yul\":9923:9941   */\n      swap1\n      pop\n        /* \"#utility.yul\":9547:9947   */\n      swap2\n      swap1\n      pop\n      jump\t// out\n        /* \"#utility.yul\":9953:10334   */\n    tag_47:\n        /* \"#utility.yul\":10138:10141   */\n      0x00\n        /* \"#utility.yul\":10160:10308   */\n      tag_278\n        /* \"#utility.yul\":10304:10307   */\n      dup3\n        /* \"#utility.yul\":10160:10308   */\n      tag_167\n      jump\t// in\n    tag_278:\n        /* \"#utility.yul\":10153:10308   */\n      swap2\n      pop\n        /* \"#utility.yul\":10325:10328   */\n      dup2\n        /* \"#utility.yul\":10318:10328   */\n      swap1\n      pop\n        /* \"#utility.yul\":9953:10334   */\n      swap2\n      swap1\n      pop\n      jump\t// out\n        /* \"#utility.yul\":10340:10506   */\n    tag_168:\n        /* \"#utility.yul\":10480:10498   */\n      0x6c617374506172746941756374696f6e00000000000000000000000000000000\n        /* \"#utility.yul\":10476:10477   */\n      0x00\n        /* \"#utility.yul\":10468:10474   */\n      dup3\n        /* \"#utility.yul\":10464:10478   */\n      add\n        /* \"#utility.yul\":10457:10499   */\n      mstore\n        /* \"#utility.yul\":10340:10506   */\n      pop\n      jump\t// out\n        /* \"#utility.yul\":10512:10914   */\n    tag_169:\n        /* \"#utility.yul\":10672:10675   */\n      0x00\n        /* \"#utility.yul\":10693:10778   */\n      tag_281\n        /* \"#utility.yul\":10775:10777   */\n      0x10\n        /* \"#utility.yul\":10770:10773   */\n      dup4\n        /* \"#utility.yul\":10693:10778   */\n      tag_165\n      jump\t// in\n    tag_281:\n        /* \"#utility.yul\":10686:10778   */\n      swap2\n      pop\n        /* \"#utility.yul\":10787:10880   */\n      tag_282\n        /* \"#utility.yul\":10876:10879   */\n      dup3\n        /* \"#utility.yul\":10787:10880   */\n      tag_168\n      jump\t// in\n    tag_282:\n        /* \"#utility.yul\":10905:10907   */\n      0x10\n        /* \"#utility.yul\":10900:10903   */\n      dup3\n        /* \"#utility.yul\":10896:10908   */\n      add\n        /* \"#utility.yul\":10889:10908   */\n      swap1\n      pop\n        /* \"#utility.yul\":10512:10914   */\n      swap2\n      swap1\n      pop\n      jump\t// out\n        /* \"#utility.yul\":10920:11301   */\n    tag_53:\n        /* \"#utility.yul\":11105:11108   */\n      0x00\n        /* \"#utility.yul\":11127:11275   */\n      tag_284\n        /* \"#utility.yul\":11271:11274   */\n      dup3\n        /* \"#utility.yul\":11127:11275   */\n      tag_169\n      jump\t// in\n    tag_284:\n        /* \"#utility.yul\":11120:11275   */\n      swap2\n      pop\n        /* \"#utility.yul\":11292:11295   */\n      dup2\n        /* \"#utility.yul\":11285:11295   */\n      swap1\n      pop\n        /* \"#utility.yul\":10920:11301   */\n      swap2\n      swap1\n      pop\n      jump\t// out\n        /* \"#utility.yul\":11307:11471   */\n    tag_170:\n        /* \"#utility.yul\":11447:11463   */\n      0x6c61737453756341756374696f6e000000000000000000000000000000000000\n        /* \"#utility.yul\":11443:11444   */\n      0x00\n        /* \"#utility.yul\":11435:11441   */\n      dup3\n        /* \"#utility.yul\":11431:11445   */\n      add\n        /* \"#utility.yul\":11424:11464   */\n      mstore\n        /* \"#utility.yul\":11307:11471   */\n      pop\n      jump\t// out\n        /* \"#utility.yul\":11477:11879   */\n    tag_171:\n        /* \"#utility.yul\":11637:11640   */\n      0x00\n        /* \"#utility.yul\":11658:11743   */\n      tag_287\n        /* \"#utility.yul\":11740:11742   */\n      0x0e\n        /* \"#utility.yul\":11735:11738   */\n      dup4\n        /* \"#utility.yul\":11658:11743   */\n      tag_165\n      jump\t// in\n    tag_287:\n        /* \"#utility.yul\":11651:11743   */\n      swap2\n      pop\n        /* \"#utility.yul\":11752:11845   */\n      tag_288\n        /* \"#utility.yul\":11841:11844   */\n      dup3\n        /* \"#utility.yul\":11752:11845   */\n      tag_170\n      jump\t// in\n    tag_288:\n        /* \"#utility.yul\":11870:11872   */\n      0x0e\n        /* \"#utility.yul\":11865:11868   */\n      dup3\n        /* \"#utility.yul\":11861:11873   */\n      add\n        /* \"#utility.yul\":11854:11873   */\n      swap1\n      pop\n        /* \"#utility.yul\":11477:11879   */\n      swap2\n      swap1\n      pop\n      jump\t// out\n        /* \"#utility.yul\":11885:12266   */\n    tag_59:\n        /* \"#utility.yul\":12070:12073   */\n      0x00\n        /* \"#utility.yul\":12092:12240   */\n      tag_290\n        /* \"#utility.yul\":12236:12239   */\n      dup3\n        /* \"#utility.yul\":12092:12240   */\n      tag_171\n      jump\t// in\n    tag_290:\n        /* \"#utility.yul\":12085:12240   */\n      swap2\n      pop\n        /* \"#utility.yul\":12257:12260   */\n      dup2\n        /* \"#utility.yul\":12250:12260   */\n      swap1\n      pop\n        /* \"#utility.yul\":11885:12266   */\n      swap2\n      swap1\n      pop\n      jump\t// out\n        /* \"#utility.yul\":12272:12434   */\n    tag_172:\n        /* \"#utility.yul\":12412:12426   */\n      0x6c6173745472616e736665720000000000000000000000000000000000000000\n        /* \"#utility.yul\":12408:12409   */\n      0x00\n        /* \"#utility.yul\":12400:12406   */\n      dup3\n        /* \"#utility.yul\":12396:12410   */\n      add\n        /* \"#utility.yul\":12389:12427   */\n      mstore\n        /* \"#utility.yul\":12272:12434   */\n      pop\n      jump\t// out\n        /* \"#utility.yul\":12440:12842   */\n    tag_173:\n        /* \"#utility.yul\":12600:12603   */\n      0x00\n        /* \"#utility.yul\":12621:12706   */\n      tag_293\n        /* \"#utility.yul\":12703:12705   */\n      0x0c\n        /* \"#utility.yul\":12698:12701   */\n      dup4\n        /* \"#utility.yul\":12621:12706   */\n      tag_165\n      jump\t// in\n    tag_293:\n        /* \"#utility.yul\":12614:12706   */\n      swap2\n      pop\n        /* \"#utility.yul\":12715:12808   */\n      tag_294\n        /* \"#utility.yul\":12804:12807   */\n      dup3\n        /* \"#utility.yul\":12715:12808   */\n      tag_172\n      jump\t// in\n    tag_294:\n        /* \"#utility.yul\":12833:12835   */\n      0x0c\n        /* \"#utility.yul\":12828:12831   */\n      dup3\n        /* \"#utility.yul\":12824:12836   */\n      add\n        /* \"#utility.yul\":12817:12836   */\n      swap1\n      pop\n        /* \"#utility.yul\":12440:12842   */\n      swap2\n      swap1\n      pop\n      jump\t// out\n        /* \"#utility.yul\":12848:13229   */\n    tag_65:\n        /* \"#utility.yul\":13033:13036   */\n      0x00\n        /* \"#utility.yul\":13055:13203   */\n      tag_296\n        /* \"#utility.yul\":13199:13202   */\n      dup3\n        /* \"#utility.yul\":13055:13203   */\n      tag_173\n      jump\t// in\n    tag_296:\n        /* \"#utility.yul\":13048:13203   */\n      swap2\n      pop\n        /* \"#utility.yul\":13220:13223   */\n      dup2\n        /* \"#utility.yul\":13213:13223   */\n      swap1\n      pop\n        /* \"#utility.yul\":12848:13229   */\n      swap2\n      swap1\n      pop\n      jump\t// out\n        /* \"#utility.yul\":13235:13415   */\n    tag_75:\n        /* \"#utility.yul\":13283:13360   */\n      0x4e487b7100000000000000000000000000000000000000000000000000000000\n        /* \"#utility.yul\":13280:13281   */\n      0x00\n        /* \"#utility.yul\":13273:13361   */\n      mstore\n        /* \"#utility.yul\":13380:13384   */\n      0x32\n        /* \"#utility.yul\":13377:13378   */\n      0x04\n        /* \"#utility.yul\":13370:13385   */\n      mstore\n        /* \"#utility.yul\":13404:13408   */\n      0x24\n        /* \"#utility.yul\":13401:13402   */\n      0x00\n        /* \"#utility.yul\":13394:13409   */\n      revert\n        /* \"#utility.yul\":13421:13601   */\n    tag_174:\n        /* \"#utility.yul\":13469:13546   */\n      0x4e487b7100000000000000000000000000000000000000000000000000000000\n        /* \"#utility.yul\":13466:13467   */\n      0x00\n        /* \"#utility.yul\":13459:13547   */\n      mstore\n        /* \"#utility.yul\":13566:13570   */\n      0x11\n        /* \"#utility.yul\":13563:13564   */\n      0x04\n        /* \"#utility.yul\":13556:13571   */\n      mstore\n        /* \"#utility.yul\":13590:13594   */\n      0x24\n        /* \"#utility.yul\":13587:13588   */\n      0x00\n        /* \"#utility.yul\":13580:13595   */\n      revert\n        /* \"#utility.yul\":13607:13808   */\n    tag_81:\n        /* \"#utility.yul\":13646:13649   */\n      0x00\n        /* \"#utility.yul\":13665:13684   */\n      tag_300\n        /* \"#utility.yul\":13682:13683   */\n      dup3\n        /* \"#utility.yul\":13665:13684   */\n      tag_146\n      jump\t// in\n    tag_300:\n        /* \"#utility.yul\":13660:13684   */\n      swap2\n      pop\n        /* \"#utility.yul\":13698:13717   */\n      tag_301\n        /* \"#utility.yul\":13715:13716   */\n      dup4\n        /* \"#utility.yul\":13698:13717   */\n      tag_146\n      jump\t// in\n    tag_301:\n        /* \"#utility.yul\":13693:13717   */\n      swap3\n      pop\n        /* \"#utility.yul\":13740:13741   */\n      dup3\n        /* \"#utility.yul\":13737:13738   */\n      dup3\n        /* \"#utility.yul\":13733:13742   */\n      add\n        /* \"#utility.yul\":13726:13742   */\n      swap1\n      pop\n        /* \"#utility.yul\":13763:13777   */\n      0xffffffffffff\n        /* \"#utility.yul\":13758:13761   */\n      dup2\n        /* \"#utility.yul\":13755:13778   */\n      gt\n        /* \"#utility.yul\":13752:13801   */\n      iszero\n      tag_302\n      jumpi\n        /* \"#utility.yul\":13781:13799   */\n      tag_303\n      tag_174\n      jump\t// in\n    tag_303:\n        /* \"#utility.yul\":13752:13801   */\n    tag_302:\n        /* \"#utility.yul\":13607:13808   */\n      swap3\n      swap2\n      pop\n      pop\n      jump\t// out\n\n    auxdata: 0xa2646970667358221220f195be9c20ae743ebc3a1b96e07f804724a850e804999d9197b91f1cad1ed89464736f6c63430008140033\n}\n",
				"bytecode": {
					"linkReferences": {},
					"object": "608060405234801561000f575f80fd5b506113a98061001d5f395ff3fe608060405234801561000f575f80fd5b506004361061004a575f3560e01c8063013cf08b1461004e5780631e9608a81461007e578063c34fe7031461009a578063c5301082146100ca575b5f80fd5b61006860048036038101906100639190610d73565b6100e6565b6040516100759190610f1b565b60405180910390f35b61009860048036038101906100939190610f35565b6102c5565b005b6100b460048036038101906100af9190610fa6565b6103fe565b6040516100c19190611068565b60405180910390f35b6100e460048036038101906100df91906110ac565b6106c8565b005b6100ee610c81565b6103c45f8381526020019081526020015f20604051806101400160405290815f82015f9054906101000a900473ffffffffffffffffffffffffffffffffffffffff1673ffffffffffffffffffffffffffffffffffffffff1673ffffffffffffffffffffffffffffffffffffffff168152602001600182015f9054906101000a900473ffffffffffffffffffffffffffffffffffffffff1673ffffffffffffffffffffffffffffffffffffffff1673ffffffffffffffffffffffffffffffffffffffff1681526020016001820160149054906101000a900461ffff1661ffff1661ffff1681526020016001820160169054906101000a900463ffffffff1663ffffffff1663ffffffff16815260200160018201601a9054906101000a900465ffffffffffff1665ffffffffffff1665ffffffffffff168152602001600282015f9054906101000a900465ffffffffffff1665ffffffffffff1665ffffffffffff1681526020016002820160069054906101000a900460ff161515151581526020016002820160079054906101000a900460ff161515151581526020016002820160089054906101000a900460ff161515151581526020016002820160099054906101000a900460ff1615151515815250509050919050565b8160021015806102d6575060058210155b1561031857816040517f4961771d00000000000000000000000000000000000000000000000000000000815260040161030f919061110b565b60405180910390fd5b600482036103535760016103c45f8381526020019081526020015f2060020160086101000a81548160ff0219169083151502179055506103fa565b6003820361038e5760016103c45f8381526020019081526020015f2060020160096101000a81548160ff0219169083151502179055506103f9565b600582036103c95760016103c45f8381526020019081526020015f2060020160066101000a81548160ff0219169083151502179055506103f8565b60016103c45f8381526020019081526020015f2060020160076101000a81548160ff0219169083151502179055505b5b5b5050565b610406610d18565b5f826040516020016104189190611144565b60405160208183030381529060405280519060200120905080604051602001610440906111b2565b60405160208183030381529060405280519060200120036104d3575f80016104b18060200260405190810160405280929190826104b180156104c6576020028201915f905b82829054906101000a900465ffffffffffff1665ffffffffffff16815260200190600601906020826005010492830192600103820291508084116104855790505b50505050509150506106c3565b806040516020016104e390611210565b6040516020818303038152906040528051906020012003610578575f6101e2016104b18060200260405190810160405280929190826104b1801561056b576020028201915f905b82829054906101000a900465ffffffffffff1665ffffffffffff168152602001906006019060208260050104928301926001038202915080841161052a5790505b50505050509150506106c3565b806040516020016105889061126e565b604051602081830303815290604052805190602001200361061d575f6102d3016104b18060200260405190810160405280929190826104b18015610610576020028201915f905b82829054906101000a900465ffffffffffff1665ffffffffffff16815260200190600601906020826005010492830192600103820291508084116105cf5790505b50505050509150506106c3565b8060405160200161062d906112cc565b60405160208183030381529060405280519060200120036106c1575f60f1016104b18060200260405190810160405280929190826104b180156106b4576020028201915f905b82829054906101000a900465ffffffffffff1665ffffffffffff16815260200190600601906020826005010492830192600103820291508084116106735790505b50505050509150506106c3565b505b919050565b5f816040516020016106da9190611144565b6040516020818303038152906040528051906020012090505f84905081604051602001610706906111b2565b60405160208183030381529060405280519060200120036107d357805f80018561ffff166104b1811061073c5761073b6112e0565b5b600591828204019190066006026101000a81548165ffffffffffff021916908365ffffffffffff16021790555060015f80015f6104b18110610781576107806112e0565b5b600591828204019190066006028282829054906101000a900465ffffffffffff166107ac919061133a565b92506101000a81548165ffffffffffff021916908365ffffffffffff160217905550610c7a565b816040516020016107e390611210565b604051602081830303815290604052805190602001200361096157805f80018561ffff166104b18110610819576108186112e0565b5b600591828204019190066006026101000a81548165ffffffffffff021916908365ffffffffffff16021790555060015f80015f6104b1811061085e5761085d6112e0565b5b600591828204019190066006028282829054906101000a900465ffffffffffff16610889919061133a565b92506101000a81548165ffffffffffff021916908365ffffffffffff160217905550805f6101e2018561ffff166104b181106108c8576108c76112e0565b5b600591828204019190066006026101000a81548165ffffffffffff021916908365ffffffffffff16021790555060015f6101e2015f6104b1811061090f5761090e6112e0565b5b600591828204019190066006028282829054906101000a900465ffffffffffff1661093a919061133a565b92506101000a81548165ffffffffffff021916908365ffffffffffff160217905550610c79565b816040516020016109719061126e565b6040516020818303038152906040528051906020012003610aef57805f80018561ffff166104b181106109a7576109a66112e0565b5b600591828204019190066006026101000a81548165ffffffffffff021916908365ffffffffffff16021790555060015f80015f6104b181106109ec576109eb6112e0565b5b600591828204019190066006028282829054906101000a900465ffffffffffff16610a17919061133a565b92506101000a81548165ffffffffffff021916908365ffffffffffff160217905550805f6102d3018561ffff166104b18110610a5657610a556112e0565b5b600591828204019190066006026101000a81548165ffffffffffff021916908365ffffffffffff16021790555060015f6102d3015f6104b18110610a9d57610a9c6112e0565b5b600591828204019190066006028282829054906101000a900465ffffffffffff16610ac8919061133a565b92506101000a81548165ffffffffffff021916908365ffffffffffff160217905550610c78565b81604051602001610aff906112cc565b6040516020818303038152906040528051906020012003610c7757805f80018561ffff166104b18110610b3557610b346112e0565b5b600591828204019190066006026101000a81548165ffffffffffff021916908365ffffffffffff16021790555060015f80015f6104b18110610b7a57610b796112e0565b5b600591828204019190066006028282829054906101000a900465ffffffffffff16610ba5919061133a565b92506101000a81548165ffffffffffff021916908365ffffffffffff160217905550805f60f1018561ffff166104b18110610be357610be26112e0565b5b600591828204019190066006026101000a81548165ffffffffffff021916908365ffffffffffff16021790555060015f60f1015f6104b18110610c2957610c286112e0565b5b600591828204019190066006028282829054906101000a900465ffffffffffff16610c54919061133a565b92506101000a81548165ffffffffffff021916908365ffffffffffff1602179055505b5b5b5b5050505050565b6040518061014001604052805f73ffffffffffffffffffffffffffffffffffffffff1681526020015f73ffffffffffffffffffffffffffffffffffffffff1681526020015f61ffff1681526020015f63ffffffff1681526020015f65ffffffffffff1681526020015f65ffffffffffff1681526020015f151581526020015f151581526020015f151581526020015f151581525090565b6040518061962001604052806104b190602082028036833780820191505090505090565b5f80fd5b5f819050919050565b610d5281610d40565b8114610d5c575f80fd5b50565b5f81359050610d6d81610d49565b92915050565b5f60208284031215610d8857610d87610d3c565b5b5f610d9584828501610d5f565b91505092915050565b5f73ffffffffffffffffffffffffffffffffffffffff82169050919050565b5f610dc782610d9e565b9050919050565b610dd781610dbd565b82525050565b5f61ffff82169050919050565b610df381610ddd565b82525050565b5f63ffffffff82169050919050565b610e1181610df9565b82525050565b5f65ffffffffffff82169050919050565b610e3181610e17565b82525050565b5f8115159050919050565b610e4b81610e37565b82525050565b61014082015f820151610e665f850182610dce565b506020820151610e796020850182610dce565b506040820151610e8c6040850182610dea565b506060820151610e9f6060850182610e08565b506080820151610eb26080850182610e28565b5060a0820151610ec560a0850182610e28565b5060c0820151610ed860c0850182610e42565b5060e0820151610eeb60e0850182610e42565b50610100820151610f00610100850182610e42565b50610120820151610f15610120850182610e42565b50505050565b5f61014082019050610f2f5f830184610e51565b92915050565b5f8060408385031215610f4b57610f4a610d3c565b5b5f610f5885828601610d5f565b9250506020610f6985828601610d5f565b9150509250929050565b5f819050919050565b610f8581610f73565b8114610f8f575f80fd5b50565b5f81359050610fa081610f7c565b92915050565b5f60208284031215610fbb57610fba610d3c565b5b5f610fc884828501610f92565b91505092915050565b5f6104b19050919050565b5f81905092915050565b5f819050919050565b5f610ffa8383610e28565b60208301905092915050565b5f602082019050919050565b61101b81610fd1565b6110258184610fdc565b925061103082610fe6565b805f5b838110156110605781516110478782610fef565b965061105283611006565b925050600181019050611033565b505050505050565b5f6196208201905061107c5f830184611012565b92915050565b61108b81610ddd565b8114611095575f80fd5b50565b5f813590506110a681611082565b92915050565b5f805f606084860312156110c3576110c2610d3c565b5b5f6110d086828701610d5f565b93505060206110e186828701611098565b92505060406110f286828701610f92565b9150509250925092565b61110581610d40565b82525050565b5f60208201905061111e5f8301846110fc565b92915050565b5f819050919050565b61113e61113982610f73565b611124565b82525050565b5f61114f828461112d565b60208201915081905092915050565b5f81905092915050565b7f666f72416e7900000000000000000000000000000000000000000000000000005f82015250565b5f61119c60068361115e565b91506111a782611168565b600682019050919050565b5f6111bc82611190565b9150819050919050565b7f6c617374506172746941756374696f6e000000000000000000000000000000005f82015250565b5f6111fa60108361115e565b9150611205826111c6565b601082019050919050565b5f61121a826111ee565b9150819050919050565b7f6c61737453756341756374696f6e0000000000000000000000000000000000005f82015250565b5f611258600e8361115e565b915061126382611224565b600e82019050919050565b5f6112788261124c565b9150819050919050565b7f6c6173745472616e7366657200000000000000000000000000000000000000005f82015250565b5f6112b6600c8361115e565b91506112c182611282565b600c82019050919050565b5f6112d6826112aa565b9150819050919050565b7f4e487b71000000000000000000000000000000000000000000000000000000005f52603260045260245ffd5b7f4e487b71000000000000000000000000000000000000000000000000000000005f52601160045260245ffd5b5f61134482610e17565b915061134f83610e17565b9250828201905065ffffffffffff81111561136d5761136c61130d565b5b9291505056fea2646970667358221220f195be9c20ae743ebc3a1b96e07f804724a850e804999d9197b91f1cad1ed89464736f6c63430008140033",
					"opcodes": "PUSH1 0x80 PUSH1 0x40 MSTORE CALLVALUE DUP1 ISZERO PUSH2 0xF JUMPI PUSH0 DUP1 REVERT JUMPDEST POP PUSH2 0x13A9 DUP1 PUSH2 0x1D PUSH0 CODECOPY PUSH0 RETURN INVALID PUSH1 0x80 PUSH1 0x40 MSTORE CALLVALUE DUP1 ISZERO PUSH2 0xF JUMPI PUSH0 DUP1 REVERT JUMPDEST POP PUSH1 0x4 CALLDATASIZE LT PUSH2 0x4A JUMPI PUSH0 CALLDATALOAD PUSH1 0xE0 SHR DUP1 PUSH4 0x13CF08B EQ PUSH2 0x4E JUMPI DUP1 PUSH4 0x1E9608A8 EQ PUSH2 0x7E JUMPI DUP1 PUSH4 0xC34FE703 EQ PUSH2 0x9A JUMPI DUP1 PUSH4 0xC5301082 EQ PUSH2 0xCA JUMPI JUMPDEST PUSH0 DUP1 REVERT JUMPDEST PUSH2 0x68 PUSH1 0x4 DUP1 CALLDATASIZE SUB DUP2 ADD SWAP1 PUSH2 0x63 SWAP2 SWAP1 PUSH2 0xD73 JUMP JUMPDEST PUSH2 0xE6 JUMP JUMPDEST PUSH1 0x40 MLOAD PUSH2 0x75 SWAP2 SWAP1 PUSH2 0xF1B JUMP JUMPDEST PUSH1 0x40 MLOAD DUP1 SWAP2 SUB SWAP1 RETURN JUMPDEST PUSH2 0x98 PUSH1 0x4 DUP1 CALLDATASIZE SUB DUP2 ADD SWAP1 PUSH2 0x93 SWAP2 SWAP1 PUSH2 0xF35 JUMP JUMPDEST PUSH2 0x2C5 JUMP JUMPDEST STOP JUMPDEST PUSH2 0xB4 PUSH1 0x4 DUP1 CALLDATASIZE SUB DUP2 ADD SWAP1 PUSH2 0xAF SWAP2 SWAP1 PUSH2 0xFA6 JUMP JUMPDEST PUSH2 0x3FE JUMP JUMPDEST PUSH1 0x40 MLOAD PUSH2 0xC1 SWAP2 SWAP1 PUSH2 0x1068 JUMP JUMPDEST PUSH1 0x40 MLOAD DUP1 SWAP2 SUB SWAP1 RETURN JUMPDEST PUSH2 0xE4 PUSH1 0x4 DUP1 CALLDATASIZE SUB DUP2 ADD SWAP1 PUSH2 0xDF SWAP2 SWAP1 PUSH2 0x10AC JUMP JUMPDEST PUSH2 0x6C8 JUMP JUMPDEST STOP JUMPDEST PUSH2 0xEE PUSH2 0xC81 JUMP JUMPDEST PUSH2 0x3C4 PUSH0 DUP4 DUP2 MSTORE PUSH1 0x20 ADD SWAP1 DUP2 MSTORE PUSH1 0x20 ADD PUSH0 KECCAK256 PUSH1 0x40 MLOAD DUP1 PUSH2 0x140 ADD PUSH1 0x40 MSTORE SWAP1 DUP2 PUSH0 DUP3 ADD PUSH0 SWAP1 SLOAD SWAP1 PUSH2 0x100 EXP SWAP1 DIV PUSH20 0xFFFFFFFFFFFFFFFFFFFFFFFFFFFFFFFFFFFFFFFF AND PUSH20 0xFFFFFFFFFFFFFFFFFFFFFFFFFFFFFFFFFFFFFFFF AND PUSH20 0xFFFFFFFFFFFFFFFFFFFFFFFFFFFFFFFFFFFFFFFF AND DUP2 MSTORE PUSH1 0x20 ADD PUSH1 0x1 DUP3 ADD PUSH0 SWAP1 SLOAD SWAP1 PUSH2 0x100 EXP SWAP1 DIV PUSH20 0xFFFFFFFFFFFFFFFFFFFFFFFFFFFFFFFFFFFFFFFF AND PUSH20 0xFFFFFFFFFFFFFFFFFFFFFFFFFFFFFFFFFFFFFFFF AND PUSH20 0xFFFFFFFFFFFFFFFFFFFFFFFFFFFFFFFFFFFFFFFF AND DUP2 MSTORE PUSH1 0x20 ADD PUSH1 0x1 DUP3 ADD PUSH1 0x14 SWAP1 SLOAD SWAP1 PUSH2 0x100 EXP SWAP1 DIV PUSH2 0xFFFF AND PUSH2 0xFFFF AND PUSH2 0xFFFF AND DUP2 MSTORE PUSH1 0x20 ADD PUSH1 0x1 DUP3 ADD PUSH1 0x16 SWAP1 SLOAD SWAP1 PUSH2 0x100 EXP SWAP1 DIV PUSH4 0xFFFFFFFF AND PUSH4 0xFFFFFFFF AND PUSH4 0xFFFFFFFF AND DUP2 MSTORE PUSH1 0x20 ADD PUSH1 0x1 DUP3 ADD PUSH1 0x1A SWAP1 SLOAD SWAP1 PUSH2 0x100 EXP SWAP1 DIV PUSH6 0xFFFFFFFFFFFF AND PUSH6 0xFFFFFFFFFFFF AND PUSH6 0xFFFFFFFFFFFF AND DUP2 MSTORE PUSH1 0x20 ADD PUSH1 0x2 DUP3 ADD PUSH0 SWAP1 SLOAD SWAP1 PUSH2 0x100 EXP SWAP1 DIV PUSH6 0xFFFFFFFFFFFF AND PUSH6 0xFFFFFFFFFFFF AND PUSH6 0xFFFFFFFFFFFF AND DUP2 MSTORE PUSH1 0x20 ADD PUSH1 0x2 DUP3 ADD PUSH1 0x6 SWAP1 SLOAD SWAP1 PUSH2 0x100 EXP SWAP1 DIV PUSH1 0xFF AND ISZERO ISZERO ISZERO ISZERO DUP2 MSTORE PUSH1 0x20 ADD PUSH1 0x2 DUP3 ADD PUSH1 0x7 SWAP1 SLOAD SWAP1 PUSH2 0x100 EXP SWAP1 DIV PUSH1 0xFF AND ISZERO ISZERO ISZERO ISZERO DUP2 MSTORE PUSH1 0x20 ADD PUSH1 0x2 DUP3 ADD PUSH1 0x8 SWAP1 SLOAD SWAP1 PUSH2 0x100 EXP SWAP1 DIV PUSH1 0xFF AND ISZERO ISZERO ISZERO ISZERO DUP2 MSTORE PUSH1 0x20 ADD PUSH1 0x2 DUP3 ADD PUSH1 0x9 SWAP1 SLOAD SWAP1 PUSH2 0x100 EXP SWAP1 DIV PUSH1 0xFF AND ISZERO ISZERO ISZERO ISZERO DUP2 MSTORE POP POP SWAP1 POP SWAP2 SWAP1 POP JUMP JUMPDEST DUP2 PUSH1 0x2 LT ISZERO DUP1 PUSH2 0x2D6 JUMPI POP PUSH1 0x5 DUP3 LT ISZERO JUMPDEST ISZERO PUSH2 0x318 JUMPI DUP2 PUSH1 0x40 MLOAD PUSH32 0x4961771D00000000000000000000000000000000000000000000000000000000 DUP2 MSTORE PUSH1 0x4 ADD PUSH2 0x30F SWAP2 SWAP1 PUSH2 0x110B JUMP JUMPDEST PUSH1 0x40 MLOAD DUP1 SWAP2 SUB SWAP1 REVERT JUMPDEST PUSH1 0x4 DUP3 SUB PUSH2 0x353 JUMPI PUSH1 0x1 PUSH2 0x3C4 PUSH0 DUP4 DUP2 MSTORE PUSH1 0x20 ADD SWAP1 DUP2 MSTORE PUSH1 0x20 ADD PUSH0 KECCAK256 PUSH1 0x2 ADD PUSH1 0x8 PUSH2 0x100 EXP DUP2 SLOAD DUP2 PUSH1 0xFF MUL NOT AND SWAP1 DUP4 ISZERO ISZERO MUL OR SWAP1 SSTORE POP PUSH2 0x3FA JUMP JUMPDEST PUSH1 0x3 DUP3 SUB PUSH2 0x38E JUMPI PUSH1 0x1 PUSH2 0x3C4 PUSH0 DUP4 DUP2 MSTORE PUSH1 0x20 ADD SWAP1 DUP2 MSTORE PUSH1 0x20 ADD PUSH0 KECCAK256 PUSH1 0x2 ADD PUSH1 0x9 PUSH2 0x100 EXP DUP2 SLOAD DUP2 PUSH1 0xFF MUL NOT AND SWAP1 DUP4 ISZERO ISZERO MUL OR SWAP1 SSTORE POP PUSH2 0x3F9 JUMP JUMPDEST PUSH1 0x5 DUP3 SUB PUSH2 0x3C9 JUMPI PUSH1 0x1 PUSH2 0x3C4 PUSH0 DUP4 DUP2 MSTORE PUSH1 0x20 ADD SWAP1 DUP2 MSTORE PUSH1 0x20 ADD PUSH0 KECCAK256 PUSH1 0x2 ADD PUSH1 0x6 PUSH2 0x100 EXP DUP2 SLOAD DUP2 PUSH1 0xFF MUL NOT AND SWAP1 DUP4 ISZERO ISZERO MUL OR SWAP1 SSTORE POP PUSH2 0x3F8 JUMP JUMPDEST PUSH1 0x1 PUSH2 0x3C4 PUSH0 DUP4 DUP2 MSTORE PUSH1 0x20 ADD SWAP1 DUP2 MSTORE PUSH1 0x20 ADD PUSH0 KECCAK256 PUSH1 0x2 ADD PUSH1 0x7 PUSH2 0x100 EXP DUP2 SLOAD DUP2 PUSH1 0xFF MUL NOT AND SWAP1 DUP4 ISZERO ISZERO MUL OR SWAP1 SSTORE POP JUMPDEST JUMPDEST JUMPDEST POP POP JUMP JUMPDEST PUSH2 0x406 PUSH2 0xD18 JUMP JUMPDEST PUSH0 DUP3 PUSH1 0x40 MLOAD PUSH1 0x20 ADD PUSH2 0x418 SWAP2 SWAP1 PUSH2 0x1144 JUMP JUMPDEST PUSH1 0x40 MLOAD PUSH1 0x20 DUP2 DUP4 SUB SUB DUP2 MSTORE SWAP1 PUSH1 0x40 MSTORE DUP1 MLOAD SWAP1 PUSH1 0x20 ADD KECCAK256 SWAP1 POP DUP1 PUSH1 0x40 MLOAD PUSH1 0x20 ADD PUSH2 0x440 SWAP1 PUSH2 0x11B2 JUMP JUMPDEST PUSH1 0x40 MLOAD PUSH1 0x20 DUP2 DUP4 SUB SUB DUP2 MSTORE SWAP1 PUSH1 0x40 MSTORE DUP1 MLOAD SWAP1 PUSH1 0x20 ADD KECCAK256 SUB PUSH2 0x4D3 JUMPI PUSH0 DUP1 ADD PUSH2 0x4B1 DUP1 PUSH1 0x20 MUL PUSH1 0x40 MLOAD SWAP1 DUP2 ADD PUSH1 0x40 MSTORE DUP1 SWAP3 SWAP2 SWAP1 DUP3 PUSH2 0x4B1 DUP1 ISZERO PUSH2 0x4C6 JUMPI PUSH1 0x20 MUL DUP3 ADD SWAP2 PUSH0 SWAP1 JUMPDEST DUP3 DUP3 SWAP1 SLOAD SWAP1 PUSH2 0x100 EXP SWAP1 DIV PUSH6 0xFFFFFFFFFFFF AND PUSH6 0xFFFFFFFFFFFF AND DUP2 MSTORE PUSH1 0x20 ADD SWAP1 PUSH1 0x6 ADD SWAP1 PUSH1 0x20 DUP3 PUSH1 0x5 ADD DIV SWAP3 DUP4 ADD SWAP3 PUSH1 0x1 SUB DUP3 MUL SWAP2 POP DUP1 DUP5 GT PUSH2 0x485 JUMPI SWAP1 POP JUMPDEST POP POP POP POP POP SWAP2 POP POP PUSH2 0x6C3 JUMP JUMPDEST DUP1 PUSH1 0x40 MLOAD PUSH1 0x20 ADD PUSH2 0x4E3 SWAP1 PUSH2 0x1210 JUMP JUMPDEST PUSH1 0x40 MLOAD PUSH1 0x20 DUP2 DUP4 SUB SUB DUP2 MSTORE SWAP1 PUSH1 0x40 MSTORE DUP1 MLOAD SWAP1 PUSH1 0x20 ADD KECCAK256 SUB PUSH2 0x578 JUMPI PUSH0 PUSH2 0x1E2 ADD PUSH2 0x4B1 DUP1 PUSH1 0x20 MUL PUSH1 0x40 MLOAD SWAP1 DUP2 ADD PUSH1 0x40 MSTORE DUP1 SWAP3 SWAP2 SWAP1 DUP3 PUSH2 0x4B1 DUP1 ISZERO PUSH2 0x56B JUMPI PUSH1 0x20 MUL DUP3 ADD SWAP2 PUSH0 SWAP1 JUMPDEST DUP3 DUP3 SWAP1 SLOAD SWAP1 PUSH2 0x100 EXP SWAP1 DIV PUSH6 0xFFFFFFFFFFFF AND PUSH6 0xFFFFFFFFFFFF AND DUP2 MSTORE PUSH1 0x20 ADD SWAP1 PUSH1 0x6 ADD SWAP1 PUSH1 0x20 DUP3 PUSH1 0x5 ADD DIV SWAP3 DUP4 ADD SWAP3 PUSH1 0x1 SUB DUP3 MUL SWAP2 POP DUP1 DUP5 GT PUSH2 0x52A JUMPI SWAP1 POP JUMPDEST POP POP POP POP POP SWAP2 POP POP PUSH2 0x6C3 JUMP JUMPDEST DUP1 PUSH1 0x40 MLOAD PUSH1 0x20 ADD PUSH2 0x588 SWAP1 PUSH2 0x126E JUMP JUMPDEST PUSH1 0x40 MLOAD PUSH1 0x20 DUP2 DUP4 SUB SUB DUP2 MSTORE SWAP1 PUSH1 0x40 MSTORE DUP1 MLOAD SWAP1 PUSH1 0x20 ADD KECCAK256 SUB PUSH2 0x61D JUMPI PUSH0 PUSH2 0x2D3 ADD PUSH2 0x4B1 DUP1 PUSH1 0x20 MUL PUSH1 0x40 MLOAD SWAP1 DUP2 ADD PUSH1 0x40 MSTORE DUP1 SWAP3 SWAP2 SWAP1 DUP3 PUSH2 0x4B1 DUP1 ISZERO PUSH2 0x610 JUMPI PUSH1 0x20 MUL DUP3 ADD SWAP2 PUSH0 SWAP1 JUMPDEST DUP3 DUP3 SWAP1 SLOAD SWAP1 PUSH2 0x100 EXP SWAP1 DIV PUSH6 0xFFFFFFFFFFFF AND PUSH6 0xFFFFFFFFFFFF AND DUP2 MSTORE PUSH1 0x20 ADD SWAP1 PUSH1 0x6 ADD SWAP1 PUSH1 0x20 DUP3 PUSH1 0x5 ADD DIV SWAP3 DUP4 ADD SWAP3 PUSH1 0x1 SUB DUP3 MUL SWAP2 POP DUP1 DUP5 GT PUSH2 0x5CF JUMPI SWAP1 POP JUMPDEST POP POP POP POP POP SWAP2 POP POP PUSH2 0x6C3 JUMP JUMPDEST DUP1 PUSH1 0x40 MLOAD PUSH1 0x20 ADD PUSH2 0x62D SWAP1 PUSH2 0x12CC JUMP JUMPDEST PUSH1 0x40 MLOAD PUSH1 0x20 DUP2 DUP4 SUB SUB DUP2 MSTORE SWAP1 PUSH1 0x40 MSTORE DUP1 MLOAD SWAP1 PUSH1 0x20 ADD KECCAK256 SUB PUSH2 0x6C1 JUMPI PUSH0 PUSH1 0xF1 ADD PUSH2 0x4B1 DUP1 PUSH1 0x20 MUL PUSH1 0x40 MLOAD SWAP1 DUP2 ADD PUSH1 0x40 MSTORE DUP1 SWAP3 SWAP2 SWAP1 DUP3 PUSH2 0x4B1 DUP1 ISZERO PUSH2 0x6B4 JUMPI PUSH1 0x20 MUL DUP3 ADD SWAP2 PUSH0 SWAP1 JUMPDEST DUP3 DUP3 SWAP1 SLOAD SWAP1 PUSH2 0x100 EXP SWAP1 DIV PUSH6 0xFFFFFFFFFFFF AND PUSH6 0xFFFFFFFFFFFF AND DUP2 MSTORE PUSH1 0x20 ADD SWAP1 PUSH1 0x6 ADD SWAP1 PUSH1 0x20 DUP3 PUSH1 0x5 ADD DIV SWAP3 DUP4 ADD SWAP3 PUSH1 0x1 SUB DUP3 MUL SWAP2 POP DUP1 DUP5 GT PUSH2 0x673 JUMPI SWAP1 POP JUMPDEST POP POP POP POP POP SWAP2 POP POP PUSH2 0x6C3 JUMP JUMPDEST POP JUMPDEST SWAP2 SWAP1 POP JUMP JUMPDEST PUSH0 DUP2 PUSH1 0x40 MLOAD PUSH1 0x20 ADD PUSH2 0x6DA SWAP2 SWAP1 PUSH2 0x1144 JUMP JUMPDEST PUSH1 0x40 MLOAD PUSH1 0x20 DUP2 DUP4 SUB SUB DUP2 MSTORE SWAP1 PUSH1 0x40 MSTORE DUP1 MLOAD SWAP1 PUSH1 0x20 ADD KECCAK256 SWAP1 POP PUSH0 DUP5 SWAP1 POP DUP2 PUSH1 0x40 MLOAD PUSH1 0x20 ADD PUSH2 0x706 SWAP1 PUSH2 0x11B2 JUMP JUMPDEST PUSH1 0x40 MLOAD PUSH1 0x20 DUP2 DUP4 SUB SUB DUP2 MSTORE SWAP1 PUSH1 0x40 MSTORE DUP1 MLOAD SWAP1 PUSH1 0x20 ADD KECCAK256 SUB PUSH2 0x7D3 JUMPI DUP1 PUSH0 DUP1 ADD DUP6 PUSH2 0xFFFF AND PUSH2 0x4B1 DUP2 LT PUSH2 0x73C JUMPI PUSH2 0x73B PUSH2 0x12E0 JUMP JUMPDEST JUMPDEST PUSH1 0x5 SWAP2 DUP3 DUP3 DIV ADD SWAP2 SWAP1 MOD PUSH1 0x6 MUL PUSH2 0x100 EXP DUP2 SLOAD DUP2 PUSH6 0xFFFFFFFFFFFF MUL NOT AND SWAP1 DUP4 PUSH6 0xFFFFFFFFFFFF AND MUL OR SWAP1 SSTORE POP PUSH1 0x1 PUSH0 DUP1 ADD PUSH0 PUSH2 0x4B1 DUP2 LT PUSH2 0x781 JUMPI PUSH2 0x780 PUSH2 0x12E0 JUMP JUMPDEST JUMPDEST PUSH1 0x5 SWAP2 DUP3 DUP3 DIV ADD SWAP2 SWAP1 MOD PUSH1 0x6 MUL DUP3 DUP3 DUP3 SWAP1 SLOAD SWAP1 PUSH2 0x100 EXP SWAP1 DIV PUSH6 0xFFFFFFFFFFFF AND PUSH2 0x7AC SWAP2 SWAP1 PUSH2 0x133A JUMP JUMPDEST SWAP3 POP PUSH2 0x100 EXP DUP2 SLOAD DUP2 PUSH6 0xFFFFFFFFFFFF MUL NOT AND SWAP1 DUP4 PUSH6 0xFFFFFFFFFFFF AND MUL OR SWAP1 SSTORE POP PUSH2 0xC7A JUMP JUMPDEST DUP2 PUSH1 0x40 MLOAD PUSH1 0x20 ADD PUSH2 0x7E3 SWAP1 PUSH2 0x1210 JUMP JUMPDEST PUSH1 0x40 MLOAD PUSH1 0x20 DUP2 DUP4 SUB SUB DUP2 MSTORE SWAP1 PUSH1 0x40 MSTORE DUP1 MLOAD SWAP1 PUSH1 0x20 ADD KECCAK256 SUB PUSH2 0x961 JUMPI DUP1 PUSH0 DUP1 ADD DUP6 PUSH2 0xFFFF AND PUSH2 0x4B1 DUP2 LT PUSH2 0x819 JUMPI PUSH2 0x818 PUSH2 0x12E0 JUMP JUMPDEST JUMPDEST PUSH1 0x5 SWAP2 DUP3 DUP3 DIV ADD SWAP2 SWAP1 MOD PUSH1 0x6 MUL PUSH2 0x100 EXP DUP2 SLOAD DUP2 PUSH6 0xFFFFFFFFFFFF MUL NOT AND SWAP1 DUP4 PUSH6 0xFFFFFFFFFFFF AND MUL OR SWAP1 SSTORE POP PUSH1 0x1 PUSH0 DUP1 ADD PUSH0 PUSH2 0x4B1 DUP2 LT PUSH2 0x85E JUMPI PUSH2 0x85D PUSH2 0x12E0 JUMP JUMPDEST JUMPDEST PUSH1 0x5 SWAP2 DUP3 DUP3 DIV ADD SWAP2 SWAP1 MOD PUSH1 0x6 MUL DUP3 DUP3 DUP3 SWAP1 SLOAD SWAP1 PUSH2 0x100 EXP SWAP1 DIV PUSH6 0xFFFFFFFFFFFF AND PUSH2 0x889 SWAP2 SWAP1 PUSH2 0x133A JUMP JUMPDEST SWAP3 POP PUSH2 0x100 EXP DUP2 SLOAD DUP2 PUSH6 0xFFFFFFFFFFFF MUL NOT AND SWAP1 DUP4 PUSH6 0xFFFFFFFFFFFF AND MUL OR SWAP1 SSTORE POP DUP1 PUSH0 PUSH2 0x1E2 ADD DUP6 PUSH2 0xFFFF AND PUSH2 0x4B1 DUP2 LT PUSH2 0x8C8 JUMPI PUSH2 0x8C7 PUSH2 0x12E0 JUMP JUMPDEST JUMPDEST PUSH1 0x5 SWAP2 DUP3 DUP3 DIV ADD SWAP2 SWAP1 MOD PUSH1 0x6 MUL PUSH2 0x100 EXP DUP2 SLOAD DUP2 PUSH6 0xFFFFFFFFFFFF MUL NOT AND SWAP1 DUP4 PUSH6 0xFFFFFFFFFFFF AND MUL OR SWAP1 SSTORE POP PUSH1 0x1 PUSH0 PUSH2 0x1E2 ADD PUSH0 PUSH2 0x4B1 DUP2 LT PUSH2 0x90F JUMPI PUSH2 0x90E PUSH2 0x12E0 JUMP JUMPDEST JUMPDEST PUSH1 0x5 SWAP2 DUP3 DUP3 DIV ADD SWAP2 SWAP1 MOD PUSH1 0x6 MUL DUP3 DUP3 DUP3 SWAP1 SLOAD SWAP1 PUSH2 0x100 EXP SWAP1 DIV PUSH6 0xFFFFFFFFFFFF AND PUSH2 0x93A SWAP2 SWAP1 PUSH2 0x133A JUMP JUMPDEST SWAP3 POP PUSH2 0x100 EXP DUP2 SLOAD DUP2 PUSH6 0xFFFFFFFFFFFF MUL NOT AND SWAP1 DUP4 PUSH6 0xFFFFFFFFFFFF AND MUL OR SWAP1 SSTORE POP PUSH2 0xC79 JUMP JUMPDEST DUP2 PUSH1 0x40 MLOAD PUSH1 0x20 ADD PUSH2 0x971 SWAP1 PUSH2 0x126E JUMP JUMPDEST PUSH1 0x40 MLOAD PUSH1 0x20 DUP2 DUP4 SUB SUB DUP2 MSTORE SWAP1 PUSH1 0x40 MSTORE DUP1 MLOAD SWAP1 PUSH1 0x20 ADD KECCAK256 SUB PUSH2 0xAEF JUMPI DUP1 PUSH0 DUP1 ADD DUP6 PUSH2 0xFFFF AND PUSH2 0x4B1 DUP2 LT PUSH2 0x9A7 JUMPI PUSH2 0x9A6 PUSH2 0x12E0 JUMP JUMPDEST JUMPDEST PUSH1 0x5 SWAP2 DUP3 DUP3 DIV ADD SWAP2 SWAP1 MOD PUSH1 0x6 MUL PUSH2 0x100 EXP DUP2 SLOAD DUP2 PUSH6 0xFFFFFFFFFFFF MUL NOT AND SWAP1 DUP4 PUSH6 0xFFFFFFFFFFFF AND MUL OR SWAP1 SSTORE POP PUSH1 0x1 PUSH0 DUP1 ADD PUSH0 PUSH2 0x4B1 DUP2 LT PUSH2 0x9EC JUMPI PUSH2 0x9EB PUSH2 0x12E0 JUMP JUMPDEST JUMPDEST PUSH1 0x5 SWAP2 DUP3 DUP3 DIV ADD SWAP2 SWAP1 MOD PUSH1 0x6 MUL DUP3 DUP3 DUP3 SWAP1 SLOAD SWAP1 PUSH2 0x100 EXP SWAP1 DIV PUSH6 0xFFFFFFFFFFFF AND PUSH2 0xA17 SWAP2 SWAP1 PUSH2 0x133A JUMP JUMPDEST SWAP3 POP PUSH2 0x100 EXP DUP2 SLOAD DUP2 PUSH6 0xFFFFFFFFFFFF MUL NOT AND SWAP1 DUP4 PUSH6 0xFFFFFFFFFFFF AND MUL OR SWAP1 SSTORE POP DUP1 PUSH0 PUSH2 0x2D3 ADD DUP6 PUSH2 0xFFFF AND PUSH2 0x4B1 DUP2 LT PUSH2 0xA56 JUMPI PUSH2 0xA55 PUSH2 0x12E0 JUMP JUMPDEST JUMPDEST PUSH1 0x5 SWAP2 DUP3 DUP3 DIV ADD SWAP2 SWAP1 MOD PUSH1 0x6 MUL PUSH2 0x100 EXP DUP2 SLOAD DUP2 PUSH6 0xFFFFFFFFFFFF MUL NOT AND SWAP1 DUP4 PUSH6 0xFFFFFFFFFFFF AND MUL OR SWAP1 SSTORE POP PUSH1 0x1 PUSH0 PUSH2 0x2D3 ADD PUSH0 PUSH2 0x4B1 DUP2 LT PUSH2 0xA9D JUMPI PUSH2 0xA9C PUSH2 0x12E0 JUMP JUMPDEST JUMPDEST PUSH1 0x5 SWAP2 DUP3 DUP3 DIV ADD SWAP2 SWAP1 MOD PUSH1 0x6 MUL DUP3 DUP3 DUP3 SWAP1 SLOAD SWAP1 PUSH2 0x100 EXP SWAP1 DIV PUSH6 0xFFFFFFFFFFFF AND PUSH2 0xAC8 SWAP2 SWAP1 PUSH2 0x133A JUMP JUMPDEST SWAP3 POP PUSH2 0x100 EXP DUP2 SLOAD DUP2 PUSH6 0xFFFFFFFFFFFF MUL NOT AND SWAP1 DUP4 PUSH6 0xFFFFFFFFFFFF AND MUL OR SWAP1 SSTORE POP PUSH2 0xC78 JUMP JUMPDEST DUP2 PUSH1 0x40 MLOAD PUSH1 0x20 ADD PUSH2 0xAFF SWAP1 PUSH2 0x12CC JUMP JUMPDEST PUSH1 0x40 MLOAD PUSH1 0x20 DUP2 DUP4 SUB SUB DUP2 MSTORE SWAP1 PUSH1 0x40 MSTORE DUP1 MLOAD SWAP1 PUSH1 0x20 ADD KECCAK256 SUB PUSH2 0xC77 JUMPI DUP1 PUSH0 DUP1 ADD DUP6 PUSH2 0xFFFF AND PUSH2 0x4B1 DUP2 LT PUSH2 0xB35 JUMPI PUSH2 0xB34 PUSH2 0x12E0 JUMP JUMPDEST JUMPDEST PUSH1 0x5 SWAP2 DUP3 DUP3 DIV ADD SWAP2 SWAP1 MOD PUSH1 0x6 MUL PUSH2 0x100 EXP DUP2 SLOAD DUP2 PUSH6 0xFFFFFFFFFFFF MUL NOT AND SWAP1 DUP4 PUSH6 0xFFFFFFFFFFFF AND MUL OR SWAP1 SSTORE POP PUSH1 0x1 PUSH0 DUP1 ADD PUSH0 PUSH2 0x4B1 DUP2 LT PUSH2 0xB7A JUMPI PUSH2 0xB79 PUSH2 0x12E0 JUMP JUMPDEST JUMPDEST PUSH1 0x5 SWAP2 DUP3 DUP3 DIV ADD SWAP2 SWAP1 MOD PUSH1 0x6 MUL DUP3 DUP3 DUP3 SWAP1 SLOAD SWAP1 PUSH2 0x100 EXP SWAP1 DIV PUSH6 0xFFFFFFFFFFFF AND PUSH2 0xBA5 SWAP2 SWAP1 PUSH2 0x133A JUMP JUMPDEST SWAP3 POP PUSH2 0x100 EXP DUP2 SLOAD DUP2 PUSH6 0xFFFFFFFFFFFF MUL NOT AND SWAP1 DUP4 PUSH6 0xFFFFFFFFFFFF AND MUL OR SWAP1 SSTORE POP DUP1 PUSH0 PUSH1 0xF1 ADD DUP6 PUSH2 0xFFFF AND PUSH2 0x4B1 DUP2 LT PUSH2 0xBE3 JUMPI PUSH2 0xBE2 PUSH2 0x12E0 JUMP JUMPDEST JUMPDEST PUSH1 0x5 SWAP2 DUP3 DUP3 DIV ADD SWAP2 SWAP1 MOD PUSH1 0x6 MUL PUSH2 0x100 EXP DUP2 SLOAD DUP2 PUSH6 0xFFFFFFFFFFFF MUL NOT AND SWAP1 DUP4 PUSH6 0xFFFFFFFFFFFF AND MUL OR SWAP1 SSTORE POP PUSH1 0x1 PUSH0 PUSH1 0xF1 ADD PUSH0 PUSH2 0x4B1 DUP2 LT PUSH2 0xC29 JUMPI PUSH2 0xC28 PUSH2 0x12E0 JUMP JUMPDEST JUMPDEST PUSH1 0x5 SWAP2 DUP3 DUP3 DIV ADD SWAP2 SWAP1 MOD PUSH1 0x6 MUL DUP3 DUP3 DUP3 SWAP1 SLOAD SWAP1 PUSH2 0x100 EXP SWAP1 DIV PUSH6 0xFFFFFFFFFFFF AND PUSH2 0xC54 SWAP2 SWAP1 PUSH2 0x133A JUMP JUMPDEST SWAP3 POP PUSH2 0x100 EXP DUP2 SLOAD DUP2 PUSH6 0xFFFFFFFFFFFF MUL NOT AND SWAP1 DUP4 PUSH6 0xFFFFFFFFFFFF AND MUL OR SWAP1 SSTORE POP JUMPDEST JUMPDEST JUMPDEST JUMPDEST POP POP POP POP POP JUMP JUMPDEST PUSH1 0x40 MLOAD DUP1 PUSH2 0x140 ADD PUSH1 0x40 MSTORE DUP1 PUSH0 PUSH20 0xFFFFFFFFFFFFFFFFFFFFFFFFFFFFFFFFFFFFFFFF AND DUP2 MSTORE PUSH1 0x20 ADD PUSH0 PUSH20 0xFFFFFFFFFFFFFFFFFFFFFFFFFFFFFFFFFFFFFFFF AND DUP2 MSTORE PUSH1 0x20 ADD PUSH0 PUSH2 0xFFFF AND DUP2 MSTORE PUSH1 0x20 ADD PUSH0 PUSH4 0xFFFFFFFF AND DUP2 MSTORE PUSH1 0x20 ADD PUSH0 PUSH6 0xFFFFFFFFFFFF AND DUP2 MSTORE PUSH1 0x20 ADD PUSH0 PUSH6 0xFFFFFFFFFFFF AND DUP2 MSTORE PUSH1 0x20 ADD PUSH0 ISZERO ISZERO DUP2 MSTORE PUSH1 0x20 ADD PUSH0 ISZERO ISZERO DUP2 MSTORE PUSH1 0x20 ADD PUSH0 ISZERO ISZERO DUP2 MSTORE PUSH1 0x20 ADD PUSH0 ISZERO ISZERO DUP2 MSTORE POP SWAP1 JUMP JUMPDEST PUSH1 0x40 MLOAD DUP1 PUSH2 0x9620 ADD PUSH1 0x40 MSTORE DUP1 PUSH2 0x4B1 SWAP1 PUSH1 0x20 DUP3 MUL DUP1 CALLDATASIZE DUP4 CALLDATACOPY DUP1 DUP3 ADD SWAP2 POP POP SWAP1 POP POP SWAP1 JUMP JUMPDEST PUSH0 DUP1 REVERT JUMPDEST PUSH0 DUP2 SWAP1 POP SWAP2 SWAP1 POP JUMP JUMPDEST PUSH2 0xD52 DUP2 PUSH2 0xD40 JUMP JUMPDEST DUP2 EQ PUSH2 0xD5C JUMPI PUSH0 DUP1 REVERT JUMPDEST POP JUMP JUMPDEST PUSH0 DUP2 CALLDATALOAD SWAP1 POP PUSH2 0xD6D DUP2 PUSH2 0xD49 JUMP JUMPDEST SWAP3 SWAP2 POP POP JUMP JUMPDEST PUSH0 PUSH1 0x20 DUP3 DUP5 SUB SLT ISZERO PUSH2 0xD88 JUMPI PUSH2 0xD87 PUSH2 0xD3C JUMP JUMPDEST JUMPDEST PUSH0 PUSH2 0xD95 DUP5 DUP3 DUP6 ADD PUSH2 0xD5F JUMP JUMPDEST SWAP2 POP POP SWAP3 SWAP2 POP POP JUMP JUMPDEST PUSH0 PUSH20 0xFFFFFFFFFFFFFFFFFFFFFFFFFFFFFFFFFFFFFFFF DUP3 AND SWAP1 POP SWAP2 SWAP1 POP JUMP JUMPDEST PUSH0 PUSH2 0xDC7 DUP3 PUSH2 0xD9E JUMP JUMPDEST SWAP1 POP SWAP2 SWAP1 POP JUMP JUMPDEST PUSH2 0xDD7 DUP2 PUSH2 0xDBD JUMP JUMPDEST DUP3 MSTORE POP POP JUMP JUMPDEST PUSH0 PUSH2 0xFFFF DUP3 AND SWAP1 POP SWAP2 SWAP1 POP JUMP JUMPDEST PUSH2 0xDF3 DUP2 PUSH2 0xDDD JUMP JUMPDEST DUP3 MSTORE POP POP JUMP JUMPDEST PUSH0 PUSH4 0xFFFFFFFF DUP3 AND SWAP1 POP SWAP2 SWAP1 POP JUMP JUMPDEST PUSH2 0xE11 DUP2 PUSH2 0xDF9 JUMP JUMPDEST DUP3 MSTORE POP POP JUMP JUMPDEST PUSH0 PUSH6 0xFFFFFFFFFFFF DUP3 AND SWAP1 POP SWAP2 SWAP1 POP JUMP JUMPDEST PUSH2 0xE31 DUP2 PUSH2 0xE17 JUMP JUMPDEST DUP3 MSTORE POP POP JUMP JUMPDEST PUSH0 DUP2 ISZERO ISZERO SWAP1 POP SWAP2 SWAP1 POP JUMP JUMPDEST PUSH2 0xE4B DUP2 PUSH2 0xE37 JUMP JUMPDEST DUP3 MSTORE POP POP JUMP JUMPDEST PUSH2 0x140 DUP3 ADD PUSH0 DUP3 ADD MLOAD PUSH2 0xE66 PUSH0 DUP6 ADD DUP3 PUSH2 0xDCE JUMP JUMPDEST POP PUSH1 0x20 DUP3 ADD MLOAD PUSH2 0xE79 PUSH1 0x20 DUP6 ADD DUP3 PUSH2 0xDCE JUMP JUMPDEST POP PUSH1 0x40 DUP3 ADD MLOAD PUSH2 0xE8C PUSH1 0x40 DUP6 ADD DUP3 PUSH2 0xDEA JUMP JUMPDEST POP PUSH1 0x60 DUP3 ADD MLOAD PUSH2 0xE9F PUSH1 0x60 DUP6 ADD DUP3 PUSH2 0xE08 JUMP JUMPDEST POP PUSH1 0x80 DUP3 ADD MLOAD PUSH2 0xEB2 PUSH1 0x80 DUP6 ADD DUP3 PUSH2 0xE28 JUMP JUMPDEST POP PUSH1 0xA0 DUP3 ADD MLOAD PUSH2 0xEC5 PUSH1 0xA0 DUP6 ADD DUP3 PUSH2 0xE28 JUMP JUMPDEST POP PUSH1 0xC0 DUP3 ADD MLOAD PUSH2 0xED8 PUSH1 0xC0 DUP6 ADD DUP3 PUSH2 0xE42 JUMP JUMPDEST POP PUSH1 0xE0 DUP3 ADD MLOAD PUSH2 0xEEB PUSH1 0xE0 DUP6 ADD DUP3 PUSH2 0xE42 JUMP JUMPDEST POP PUSH2 0x100 DUP3 ADD MLOAD PUSH2 0xF00 PUSH2 0x100 DUP6 ADD DUP3 PUSH2 0xE42 JUMP JUMPDEST POP PUSH2 0x120 DUP3 ADD MLOAD PUSH2 0xF15 PUSH2 0x120 DUP6 ADD DUP3 PUSH2 0xE42 JUMP JUMPDEST POP POP POP POP JUMP JUMPDEST PUSH0 PUSH2 0x140 DUP3 ADD SWAP1 POP PUSH2 0xF2F PUSH0 DUP4 ADD DUP5 PUSH2 0xE51 JUMP JUMPDEST SWAP3 SWAP2 POP POP JUMP JUMPDEST PUSH0 DUP1 PUSH1 0x40 DUP4 DUP6 SUB SLT ISZERO PUSH2 0xF4B JUMPI PUSH2 0xF4A PUSH2 0xD3C JUMP JUMPDEST JUMPDEST PUSH0 PUSH2 0xF58 DUP6 DUP3 DUP7 ADD PUSH2 0xD5F JUMP JUMPDEST SWAP3 POP POP PUSH1 0x20 PUSH2 0xF69 DUP6 DUP3 DUP7 ADD PUSH2 0xD5F JUMP JUMPDEST SWAP2 POP POP SWAP3 POP SWAP3 SWAP1 POP JUMP JUMPDEST PUSH0 DUP2 SWAP1 POP SWAP2 SWAP1 POP JUMP JUMPDEST PUSH2 0xF85 DUP2 PUSH2 0xF73 JUMP JUMPDEST DUP2 EQ PUSH2 0xF8F JUMPI PUSH0 DUP1 REVERT JUMPDEST POP JUMP JUMPDEST PUSH0 DUP2 CALLDATALOAD SWAP1 POP PUSH2 0xFA0 DUP2 PUSH2 0xF7C JUMP JUMPDEST SWAP3 SWAP2 POP POP JUMP JUMPDEST PUSH0 PUSH1 0x20 DUP3 DUP5 SUB SLT ISZERO PUSH2 0xFBB JUMPI PUSH2 0xFBA PUSH2 0xD3C JUMP JUMPDEST JUMPDEST PUSH0 PUSH2 0xFC8 DUP5 DUP3 DUP6 ADD PUSH2 0xF92 JUMP JUMPDEST SWAP2 POP POP SWAP3 SWAP2 POP POP JUMP JUMPDEST PUSH0 PUSH2 0x4B1 SWAP1 POP SWAP2 SWAP1 POP JUMP JUMPDEST PUSH0 DUP2 SWAP1 POP SWAP3 SWAP2 POP POP JUMP JUMPDEST PUSH0 DUP2 SWAP1 POP SWAP2 SWAP1 POP JUMP JUMPDEST PUSH0 PUSH2 0xFFA DUP4 DUP4 PUSH2 0xE28 JUMP JUMPDEST PUSH1 0x20 DUP4 ADD SWAP1 POP SWAP3 SWAP2 POP POP JUMP JUMPDEST PUSH0 PUSH1 0x20 DUP3 ADD SWAP1 POP SWAP2 SWAP1 POP JUMP JUMPDEST PUSH2 0x101B DUP2 PUSH2 0xFD1 JUMP JUMPDEST PUSH2 0x1025 DUP2 DUP5 PUSH2 0xFDC JUMP JUMPDEST SWAP3 POP PUSH2 0x1030 DUP3 PUSH2 0xFE6 JUMP JUMPDEST DUP1 PUSH0 JUMPDEST DUP4 DUP2 LT ISZERO PUSH2 0x1060 JUMPI DUP2 MLOAD PUSH2 0x1047 DUP8 DUP3 PUSH2 0xFEF JUMP JUMPDEST SWAP7 POP PUSH2 0x1052 DUP4 PUSH2 0x1006 JUMP JUMPDEST SWAP3 POP POP PUSH1 0x1 DUP2 ADD SWAP1 POP PUSH2 0x1033 JUMP JUMPDEST POP POP POP POP POP POP JUMP JUMPDEST PUSH0 PUSH2 0x9620 DUP3 ADD SWAP1 POP PUSH2 0x107C PUSH0 DUP4 ADD DUP5 PUSH2 0x1012 JUMP JUMPDEST SWAP3 SWAP2 POP POP JUMP JUMPDEST PUSH2 0x108B DUP2 PUSH2 0xDDD JUMP JUMPDEST DUP2 EQ PUSH2 0x1095 JUMPI PUSH0 DUP1 REVERT JUMPDEST POP JUMP JUMPDEST PUSH0 DUP2 CALLDATALOAD SWAP1 POP PUSH2 0x10A6 DUP2 PUSH2 0x1082 JUMP JUMPDEST SWAP3 SWAP2 POP POP JUMP JUMPDEST PUSH0 DUP1 PUSH0 PUSH1 0x60 DUP5 DUP7 SUB SLT ISZERO PUSH2 0x10C3 JUMPI PUSH2 0x10C2 PUSH2 0xD3C JUMP JUMPDEST JUMPDEST PUSH0 PUSH2 0x10D0 DUP7 DUP3 DUP8 ADD PUSH2 0xD5F JUMP JUMPDEST SWAP4 POP POP PUSH1 0x20 PUSH2 0x10E1 DUP7 DUP3 DUP8 ADD PUSH2 0x1098 JUMP JUMPDEST SWAP3 POP POP PUSH1 0x40 PUSH2 0x10F2 DUP7 DUP3 DUP8 ADD PUSH2 0xF92 JUMP JUMPDEST SWAP2 POP POP SWAP3 POP SWAP3 POP SWAP3 JUMP JUMPDEST PUSH2 0x1105 DUP2 PUSH2 0xD40 JUMP JUMPDEST DUP3 MSTORE POP POP JUMP JUMPDEST PUSH0 PUSH1 0x20 DUP3 ADD SWAP1 POP PUSH2 0x111E PUSH0 DUP4 ADD DUP5 PUSH2 0x10FC JUMP JUMPDEST SWAP3 SWAP2 POP POP JUMP JUMPDEST PUSH0 DUP2 SWAP1 POP SWAP2 SWAP1 POP JUMP JUMPDEST PUSH2 0x113E PUSH2 0x1139 DUP3 PUSH2 0xF73 JUMP JUMPDEST PUSH2 0x1124 JUMP JUMPDEST DUP3 MSTORE POP POP JUMP JUMPDEST PUSH0 PUSH2 0x114F DUP3 DUP5 PUSH2 0x112D JUMP JUMPDEST PUSH1 0x20 DUP3 ADD SWAP2 POP DUP2 SWAP1 POP SWAP3 SWAP2 POP POP JUMP JUMPDEST PUSH0 DUP2 SWAP1 POP SWAP3 SWAP2 POP POP JUMP JUMPDEST PUSH32 0x666F72416E790000000000000000000000000000000000000000000000000000 PUSH0 DUP3 ADD MSTORE POP JUMP JUMPDEST PUSH0 PUSH2 0x119C PUSH1 0x6 DUP4 PUSH2 0x115E JUMP JUMPDEST SWAP2 POP PUSH2 0x11A7 DUP3 PUSH2 0x1168 JUMP JUMPDEST PUSH1 0x6 DUP3 ADD SWAP1 POP SWAP2 SWAP1 POP JUMP JUMPDEST PUSH0 PUSH2 0x11BC DUP3 PUSH2 0x1190 JUMP JUMPDEST SWAP2 POP DUP2 SWAP1 POP SWAP2 SWAP1 POP JUMP JUMPDEST PUSH32 0x6C617374506172746941756374696F6E00000000000000000000000000000000 PUSH0 DUP3 ADD MSTORE POP JUMP JUMPDEST PUSH0 PUSH2 0x11FA PUSH1 0x10 DUP4 PUSH2 0x115E JUMP JUMPDEST SWAP2 POP PUSH2 0x1205 DUP3 PUSH2 0x11C6 JUMP JUMPDEST PUSH1 0x10 DUP3 ADD SWAP1 POP SWAP2 SWAP1 POP JUMP JUMPDEST PUSH0 PUSH2 0x121A DUP3 PUSH2 0x11EE JUMP JUMPDEST SWAP2 POP DUP2 SWAP1 POP SWAP2 SWAP1 POP JUMP JUMPDEST PUSH32 0x6C61737453756341756374696F6E000000000000000000000000000000000000 PUSH0 DUP3 ADD MSTORE POP JUMP JUMPDEST PUSH0 PUSH2 0x1258 PUSH1 0xE DUP4 PUSH2 0x115E JUMP JUMPDEST SWAP2 POP PUSH2 0x1263 DUP3 PUSH2 0x1224 JUMP JUMPDEST PUSH1 0xE DUP3 ADD SWAP1 POP SWAP2 SWAP1 POP JUMP JUMPDEST PUSH0 PUSH2 0x1278 DUP3 PUSH2 0x124C JUMP JUMPDEST SWAP2 POP DUP2 SWAP1 POP SWAP2 SWAP1 POP JUMP JUMPDEST PUSH32 0x6C6173745472616E736665720000000000000000000000000000000000000000 PUSH0 DUP3 ADD MSTORE POP JUMP JUMPDEST PUSH0 PUSH2 0x12B6 PUSH1 0xC DUP4 PUSH2 0x115E JUMP JUMPDEST SWAP2 POP PUSH2 0x12C1 DUP3 PUSH2 0x1282 JUMP JUMPDEST PUSH1 0xC DUP3 ADD SWAP1 POP SWAP2 SWAP1 POP JUMP JUMPDEST PUSH0 PUSH2 0x12D6 DUP3 PUSH2 0x12AA JUMP JUMPDEST SWAP2 POP DUP2 SWAP1 POP SWAP2 SWAP1 POP JUMP JUMPDEST PUSH32 0x4E487B7100000000000000000000000000000000000000000000000000000000 PUSH0 MSTORE PUSH1 0x32 PUSH1 0x4 MSTORE PUSH1 0x24 PUSH0 REVERT JUMPDEST PUSH32 0x4E487B7100000000000000000000000000000000000000000000000000000000 PUSH0 MSTORE PUSH1 0x11 PUSH1 0x4 MSTORE PUSH1 0x24 PUSH0 REVERT JUMPDEST PUSH0 PUSH2 0x1344 DUP3 PUSH2 0xE17 JUMP JUMPDEST SWAP2 POP PUSH2 0x134F DUP4 PUSH2 0xE17 JUMP JUMPDEST SWAP3 POP DUP3 DUP3 ADD SWAP1 POP PUSH6 0xFFFFFFFFFFFF DUP2 GT ISZERO PUSH2 0x136D JUMPI PUSH2 0x136C PUSH2 0x130D JUMP JUMPDEST JUMPDEST SWAP3 SWAP2 POP POP JUMP INVALID LOG2 PUSH5 0x6970667358 0x22 SLT KECCAK256 CALL SWAP6 0xBE SWAP13 KECCAK256 0xAE PUSH21 0x3EBC3A1B96E07F804724A850E804999D9197B91F1C 0xAD 0x1E 0xD8 SWAP5 PUSH5 0x736F6C6343 STOP ADDMOD EQ STOP CALLER "
				},
				"gasEstimates": {
					"creation": {
						"codeDepositCost": "1006600",
						"executionCost": "1045",
						"totalCost": "1007645"
					},
					"external": {
						"getActivityTimeToken(bytes32)": "infinite",
						"proposals(uint256)": "infinite",
						"setActivityTimeToken(uint256,uint16,bytes32)": "infinite",
						"setProposalState(uint256,uint256)": "infinite"
					}
				},
				"methodIdentifiers": {
					"getActivityTimeToken(bytes32)": "c34fe703",
					"proposals(uint256)": "013cf08b",
					"setActivityTimeToken(uint256,uint16,bytes32)": "c5301082",
					"setProposalState(uint256,uint256)": "1e9608a8"
				}
			},
			"storageLayout": {
				"storage": [
					{
						"astId": 25,
						"contract": "contracts/storageTokenContractName.sol:storageTCN",
						"label": "activityTimeToken",
						"offset": 0,
						"slot": "0",
						"type": "t_struct(ACTIVITYTIME)22_storage"
					},
					{
						"astId": 51,
						"contract": "contracts/storageTokenContractName.sol:storageTCN",
						"label": "_proposals",
						"offset": 0,
						"slot": "964",
						"type": "t_mapping(t_uint256,t_struct(ProposalCore)46_storage)"
					},
					{
						"astId": 57,
						"contract": "contracts/storageTokenContractName.sol:storageTCN",
						"label": "_votersVote",
						"offset": 0,
						"slot": "965",
						"type": "t_mapping(t_uint256,t_mapping(t_address,t_bytes32))"
					}
				],
				"types": {
					"t_address": {
						"encoding": "inplace",
						"label": "address",
						"numberOfBytes": "20"
					},
					"t_array(t_uint48)1201_storage": {
						"base": "t_uint48",
						"encoding": "inplace",
						"label": "uint48[1201]",
						"numberOfBytes": "7712"
					},
					"t_bool": {
						"encoding": "inplace",
						"label": "bool",
						"numberOfBytes": "1"
					},
					"t_bytes32": {
						"encoding": "inplace",
						"label": "bytes32",
						"numberOfBytes": "32"
					},
					"t_mapping(t_address,t_bytes32)": {
						"encoding": "mapping",
						"key": "t_address",
						"label": "mapping(address => bytes32)",
						"numberOfBytes": "32",
						"value": "t_bytes32"
					},
					"t_mapping(t_uint256,t_mapping(t_address,t_bytes32))": {
						"encoding": "mapping",
						"key": "t_uint256",
						"label": "mapping(uint256 => mapping(address => bytes32))",
						"numberOfBytes": "32",
						"value": "t_mapping(t_address,t_bytes32)"
					},
					"t_mapping(t_uint256,t_struct(ProposalCore)46_storage)": {
						"encoding": "mapping",
						"key": "t_uint256",
						"label": "mapping(uint256 => struct storageTCN.ProposalCore)",
						"numberOfBytes": "32",
						"value": "t_struct(ProposalCore)46_storage"
					},
					"t_struct(ACTIVITYTIME)22_storage": {
						"encoding": "inplace",
						"label": "struct storageTCN.ACTIVITYTIME",
						"members": [
							{
								"astId": 9,
								"contract": "contracts/storageTokenContractName.sol:storageTCN",
								"label": "forAny",
								"offset": 0,
								"slot": "0",
								"type": "t_array(t_uint48)1201_storage"
							},
							{
								"astId": 13,
								"contract": "contracts/storageTokenContractName.sol:storageTCN",
								"label": "lastTransfer",
								"offset": 0,
								"slot": "241",
								"type": "t_array(t_uint48)1201_storage"
							},
							{
								"astId": 17,
								"contract": "contracts/storageTokenContractName.sol:storageTCN",
								"label": "lastPartiAuction",
								"offset": 0,
								"slot": "482",
								"type": "t_array(t_uint48)1201_storage"
							},
							{
								"astId": 21,
								"contract": "contracts/storageTokenContractName.sol:storageTCN",
								"label": "lastSucAuction",
								"offset": 0,
								"slot": "723",
								"type": "t_array(t_uint48)1201_storage"
							}
						],
						"numberOfBytes": "30848"
					},
					"t_struct(ProposalCore)46_storage": {
						"encoding": "inplace",
						"label": "struct storageTCN.ProposalCore",
						"members": [
							{
								"astId": 27,
								"contract": "contracts/storageTokenContractName.sol:storageTCN",
								"label": "proposer",
								"offset": 0,
								"slot": "0",
								"type": "t_address"
							},
							{
								"astId": 29,
								"contract": "contracts/storageTokenContractName.sol:storageTCN",
								"label": "ballotContract",
								"offset": 0,
								"slot": "1",
								"type": "t_address"
							},
							{
								"astId": 31,
								"contract": "contracts/storageTokenContractName.sol:storageTCN",
								"label": "quorum",
								"offset": 20,
								"slot": "1",
								"type": "t_uint16"
							},
							{
								"astId": 33,
								"contract": "contracts/storageTokenContractName.sol:storageTCN",
								"label": "voteDuration",
								"offset": 22,
								"slot": "1",
								"type": "t_uint32"
							},
							{
								"astId": 35,
								"contract": "contracts/storageTokenContractName.sol:storageTCN",
								"label": "voteStart",
								"offset": 26,
								"slot": "1",
								"type": "t_uint48"
							},
							{
								"astId": 37,
								"contract": "contracts/storageTokenContractName.sol:storageTCN",
								"label": "etaSeconds",
								"offset": 0,
								"slot": "2",
								"type": "t_uint48"
							},
							{
								"astId": 39,
								"contract": "contracts/storageTokenContractName.sol:storageTCN",
								"label": "executed",
								"offset": 6,
								"slot": "2",
								"type": "t_bool"
							},
							{
								"astId": 41,
								"contract": "contracts/storageTokenContractName.sol:storageTCN",
								"label": "canceled",
								"offset": 7,
								"slot": "2",
								"type": "t_bool"
							},
							{
								"astId": 43,
								"contract": "contracts/storageTokenContractName.sol:storageTCN",
								"label": "Succeeded",
								"offset": 8,
								"slot": "2",
								"type": "t_bool"
							},
							{
								"astId": 45,
								"contract": "contracts/storageTokenContractName.sol:storageTCN",
								"label": "Defeated",
								"offset": 9,
								"slot": "2",
								"type": "t_bool"
							}
						],
						"numberOfBytes": "96"
					},
					"t_uint16": {
						"encoding": "inplace",
						"label": "uint16",
						"numberOfBytes": "2"
					},
					"t_uint256": {
						"encoding": "inplace",
						"label": "uint256",
						"numberOfBytes": "32"
					},
					"t_uint32": {
						"encoding": "inplace",
						"label": "uint32",
						"numberOfBytes": "4"
					},
					"t_uint48": {
						"encoding": "inplace",
						"label": "uint48",
						"numberOfBytes": "6"
					}
				}
			},
			"userdoc": {
				"kind": "user",
				"methods": {},
				"version": 1
			}
		}
	}
}