{
	"contracts/3_Ballot.sol": {
		"BallotTCN": {
			"abi": [
				{
					"inputs": [
						{
							"components": [
								{
									"internalType": "string",
									"name": "signature",
									"type": "string"
								},
								{
									"internalType": "string",
									"name": "description",
									"type": "string"
								},
								{
									"internalType": "bytes32",
									"name": "descriptionHash",
									"type": "bytes32"
								},
								{
									"internalType": "address",
									"name": "governance",
									"type": "address"
								}
							],
							"internalType": "struct BallotTCN.CALLDATAPARAM",
							"name": "callDataParam_",
							"type": "tuple"
						},
						{
							"internalType": "uint256",
							"name": "value_",
							"type": "uint256"
						},
						{
							"components": [
								{
									"internalType": "uint16",
									"name": "quorum",
									"type": "uint16"
								},
								{
									"internalType": "uint32",
									"name": "voteDuration",
									"type": "uint32"
								},
								{
									"internalType": "uint48",
									"name": "voteStart",
									"type": "uint48"
								},
								{
									"internalType": "uint48",
									"name": "etaSeconds",
									"type": "uint48"
								}
							],
							"internalType": "struct BallotTCN.VOTINGPARAM",
							"name": "votingParams_",
							"type": "tuple"
						},
						{
							"internalType": "bytes32",
							"name": "name_",
							"type": "bytes32"
						}
					],
					"stateMutability": "nonpayable",
					"type": "constructor"
				},
				{
					"inputs": [
						{
							"internalType": "uint48",
							"name": "_voteStart",
							"type": "uint48"
						}
					],
					"name": "VotingHasNotStarted",
					"type": "error"
				},
				{
					"inputs": [
						{
							"internalType": "uint256",
							"name": "_deadLine",
							"type": "uint256"
						}
					],
					"name": "VotingIsNotOver",
					"type": "error"
				},
				{
					"inputs": [
						{
							"internalType": "uint256",
							"name": "_deadLine",
							"type": "uint256"
						}
					],
					"name": "VotingIsOver",
					"type": "error"
				},
				{
					"inputs": [
						{
							"internalType": "address",
							"name": "proposer",
							"type": "address"
						}
					],
					"name": "invalidProposer",
					"type": "error"
				},
				{
					"anonymous": false,
					"inputs": [
						{
							"indexed": true,
							"internalType": "address",
							"name": "sender",
							"type": "address"
						},
						{
							"indexed": true,
							"internalType": "address",
							"name": "_this",
							"type": "address"
						}
					],
					"name": "TheVoteWasRegistered",
					"type": "event"
				},
				{
					"anonymous": false,
					"inputs": [
						{
							"indexed": true,
							"internalType": "address",
							"name": "_this",
							"type": "address"
						},
						{
							"indexed": false,
							"internalType": "uint48",
							"name": "_etaSeconds",
							"type": "uint48"
						}
					],
					"name": "etaSecondsIsActivated",
					"type": "event"
				},
				{
					"inputs": [],
					"name": "_ballotParam",
					"outputs": [
						{
							"internalType": "bytes32",
							"name": "name",
							"type": "bytes32"
						},
						{
							"internalType": "uint16",
							"name": "voteCount",
							"type": "uint16"
						},
						{
							"internalType": "uint16",
							"name": "observed",
							"type": "uint16"
						}
					],
					"stateMutability": "view",
					"type": "function"
				},
				{
					"inputs": [
						{
							"internalType": "address",
							"name": "to",
							"type": "address"
						}
					],
					"name": "delegate",
					"outputs": [],
					"stateMutability": "nonpayable",
					"type": "function"
				},
				{
					"inputs": [],
					"name": "getBallotCallData",
					"outputs": [
						{
							"internalType": "bytes",
							"name": "callData",
							"type": "bytes"
						}
					],
					"stateMutability": "view",
					"type": "function"
				},
				{
					"inputs": [],
					"name": "getBallotCallDataParams",
					"outputs": [
						{
							"internalType": "string",
							"name": "",
							"type": "string"
						},
						{
							"internalType": "string",
							"name": "",
							"type": "string"
						},
						{
							"internalType": "bytes32",
							"name": "",
							"type": "bytes32"
						},
						{
							"internalType": "address",
							"name": "",
							"type": "address"
						}
					],
					"stateMutability": "view",
					"type": "function"
				},
				{
					"inputs": [],
					"name": "getBallotParam",
					"outputs": [
						{
							"internalType": "bytes32",
							"name": "name",
							"type": "bytes32"
						},
						{
							"internalType": "uint16",
							"name": "voteCount",
							"type": "uint16"
						},
						{
							"internalType": "uint16",
							"name": "observed",
							"type": "uint16"
						}
					],
					"stateMutability": "view",
					"type": "function"
				},
				{
					"inputs": [],
					"name": "getBallotProposalId",
					"outputs": [
						{
							"internalType": "uint256",
							"name": "proposalId",
							"type": "uint256"
						}
					],
					"stateMutability": "view",
					"type": "function"
				},
				{
					"inputs": [],
					"name": "getBallotProposalParams",
					"outputs": [
						{
							"internalType": "address",
							"name": "",
							"type": "address"
						},
						{
							"internalType": "address",
							"name": "",
							"type": "address"
						},
						{
							"internalType": "uint256",
							"name": "",
							"type": "uint256"
						}
					],
					"stateMutability": "view",
					"type": "function"
				},
				{
					"inputs": [],
					"name": "getBalootVotingParams",
					"outputs": [
						{
							"internalType": "uint16",
							"name": "",
							"type": "uint16"
						},
						{
							"internalType": "uint32",
							"name": "",
							"type": "uint32"
						},
						{
							"internalType": "uint48",
							"name": "",
							"type": "uint48"
						},
						{
							"internalType": "uint48",
							"name": "",
							"type": "uint48"
						}
					],
					"stateMutability": "view",
					"type": "function"
				},
				{
					"inputs": [],
					"name": "getDeadline",
					"outputs": [
						{
							"internalType": "uint256",
							"name": "",
							"type": "uint256"
						}
					],
					"stateMutability": "view",
					"type": "function"
				},
				{
					"inputs": [
						{
							"internalType": "address",
							"name": "voter_",
							"type": "address"
						}
					],
					"name": "getVoterOpinion",
					"outputs": [
						{
							"internalType": "bool",
							"name": "opinion_",
							"type": "bool"
						}
					],
					"stateMutability": "view",
					"type": "function"
				},
				{
					"inputs": [
						{
							"internalType": "address",
							"name": "voter_",
							"type": "address"
						}
					],
					"name": "getvote",
					"outputs": [
						{
							"components": [
								{
									"internalType": "uint16",
									"name": "weight",
									"type": "uint16"
								},
								{
									"internalType": "uint16",
									"name": "delegateWeight",
									"type": "uint16"
								},
								{
									"internalType": "bool",
									"name": "voted",
									"type": "bool"
								},
								{
									"internalType": "bool",
									"name": "opinion",
									"type": "bool"
								},
								{
									"internalType": "address",
									"name": "delegate",
									"type": "address"
								},
								{
									"internalType": "uint256",
									"name": "votedTime",
									"type": "uint256"
								}
							],
							"internalType": "struct BallotTCN.Voter",
							"name": "",
							"type": "tuple"
						}
					],
					"stateMutability": "view",
					"type": "function"
				},
				{
					"inputs": [
						{
							"internalType": "bool",
							"name": "opinion_",
							"type": "bool"
						}
					],
					"name": "vote",
					"outputs": [],
					"stateMutability": "nonpayable",
					"type": "function"
				},
				{
					"inputs": [],
					"name": "votingResult",
					"outputs": [
						{
							"internalType": "bool",
							"name": "",
							"type": "bool"
						}
					],
					"stateMutability": "nonpayable",
					"type": "function"
				}
			],
			"devdoc": {
				"details": "Implements voting process along with vote delegation",
				"kind": "dev",
				"methods": {
					"delegate(address)": {
						"details": "Delegate your vote to the voter 'to'.",
						"params": {
							"to": "address to which vote is delegated"
						}
					},
					"vote(bool)": {
						"details": "Give your vote (including votes delegated to you).",
						"params": {
							"opinion_": "index of opinion in the vote function"
						}
					},
					"votingResult()": {
						"details": "Computes the winning proposal taking all previous votes into account.",
						"returns": {
							"_0": "result index of winning proposal in the proposals array"
						}
					}
				},
				"title": "Ballot",
				"version": 1
			},
			"evm": {
				"assembly": "    /* \"contracts/3_Ballot.sol\":327:9610  contract BallotTCN {... */\n  mstore(0x40, 0x80)\n    /* \"contracts/3_Ballot.sol\":2457:3382  constructor(... */\n  callvalue\n  dup1\n  iszero\n  tag_1\n  jumpi\n  0x00\n  dup1\n  revert\ntag_1:\n  pop\n  mload(0x40)\n  sub(codesize, bytecodeSize)\n  dup1\n  bytecodeSize\n  dup4\n  codecopy\n  dup2\n  dup2\n  add\n  0x40\n  mstore\n  dup2\n  add\n  swap1\n  tag_2\n  swap2\n  swap1\n  tag_3\n  jump\t// in\ntag_2:\n    /* \"contracts/3_Ballot.sol\":2658:2672  callDataParam_ */\n  dup4\n    /* \"contracts/3_Ballot.sol\":2641:2655  _callDataParam */\n  0x04\n    /* \"contracts/3_Ballot.sol\":2641:2672  _callDataParam = callDataParam_ */\n  0x00\n  dup3\n  add\n  mload\n  dup2\n  0x00\n  add\n  swap1\n  dup2\n  tag_6\n  swap2\n  swap1\n  tag_7\n  jump\t// in\ntag_6:\n  pop\n  0x20\n  dup3\n  add\n  mload\n  dup2\n  0x01\n  add\n  swap1\n  dup2\n  tag_8\n  swap2\n  swap1\n  tag_7\n  jump\t// in\ntag_8:\n  pop\n  0x40\n  dup3\n  add\n  mload\n  dup2\n  0x02\n  add\n  sstore\n  0x60\n  dup3\n  add\n  mload\n  dup2\n  0x03\n  add\n  exp(0x0100, 0x00)\n  dup2\n  sload\n  dup2\n  0xffffffffffffffffffffffffffffffffffffffff\n  mul\n  not\n  and\n  swap1\n  dup4\n  0xffffffffffffffffffffffffffffffffffffffff\n  and\n  mul\n  or\n  swap1\n  sstore\n  pop\n  swap1\n  pop\n  pop\n    /* \"contracts/3_Ballot.sol\":2736:2750  _callDataParam */\n  0x04\n    /* \"contracts/3_Ballot.sol\":2736:2762  _callDataParam.description */\n  0x01\n  add\n    /* \"contracts/3_Ballot.sol\":2725:2763  abi.encode(_callDataParam.description) */\n  add(0x20, mload(0x40))\n  tag_9\n  swap2\n  swap1\n  tag_10\n  jump\t// in\ntag_9:\n  mload(0x40)\n  0x20\n  dup2\n  dup4\n  sub\n  sub\n  dup2\n  mstore\n  swap1\n  0x40\n  mstore\n    /* \"contracts/3_Ballot.sol\":2715:2764  keccak256(abi.encode(_callDataParam.description)) */\n  dup1\n  mload\n  swap1\n  0x20\n  add\n  keccak256\n    /* \"contracts/3_Ballot.sol\":2682:2696  _callDataParam */\n  0x04\n    /* \"contracts/3_Ballot.sol\":2682:2712  _callDataParam.descriptionHash */\n  0x02\n  add\n    /* \"contracts/3_Ballot.sol\":2682:2764  _callDataParam.descriptionHash = keccak256(abi.encode(_callDataParam.description)) */\n  dup2\n  swap1\n  sstore\n  pop\n    /* \"contracts/3_Ballot.sol\":2828:2838  msg.sender */\n  caller\n    /* \"contracts/3_Ballot.sol\":2801:2816  _proposalParams */\n  0x08\n    /* \"contracts/3_Ballot.sol\":2801:2825  _proposalParams.proposer */\n  0x01\n  add\n  0x00\n    /* \"contracts/3_Ballot.sol\":2801:2838  _proposalParams.proposer = msg.sender */\n  0x0100\n  exp\n  dup2\n  sload\n  dup2\n  0xffffffffffffffffffffffffffffffffffffffff\n  mul\n  not\n  and\n  swap1\n  dup4\n  0xffffffffffffffffffffffffffffffffffffffff\n  and\n  mul\n  or\n  swap1\n  sstore\n  pop\n    /* \"contracts/3_Ballot.sol\":2873:2890  _targetConnectors */\n  0x0b\n    /* \"contracts/3_Ballot.sol\":2873:2916  _targetConnectors[_proposalParams.proposer] */\n  0x00\n    /* \"contracts/3_Ballot.sol\":2891:2906  _proposalParams */\n  0x08\n    /* \"contracts/3_Ballot.sol\":2891:2915  _proposalParams.proposer */\n  0x01\n  add\n  0x00\n  swap1\n  sload\n  swap1\n  0x0100\n  exp\n  swap1\n  div\n  0xffffffffffffffffffffffffffffffffffffffff\n  and\n    /* \"contracts/3_Ballot.sol\":2873:2916  _targetConnectors[_proposalParams.proposer] */\n  0xffffffffffffffffffffffffffffffffffffffff\n  and\n  0xffffffffffffffffffffffffffffffffffffffff\n  and\n  dup2\n  mstore\n  0x20\n  add\n  swap1\n  dup2\n  mstore\n  0x20\n  add\n  0x00\n  keccak256\n  0x00\n  swap1\n  sload\n  swap1\n  0x0100\n  exp\n  swap1\n  div\n  0xffffffffffffffffffffffffffffffffffffffff\n  and\n    /* \"contracts/3_Ballot.sol\":2848:2863  _proposalParams */\n  0x08\n    /* \"contracts/3_Ballot.sol\":2848:2870  _proposalParams.target */\n  0x00\n  add\n  0x00\n    /* \"contracts/3_Ballot.sol\":2848:2916  _proposalParams.target = _targetConnectors[_proposalParams.proposer] */\n  0x0100\n  exp\n  dup2\n  sload\n  dup2\n  0xffffffffffffffffffffffffffffffffffffffff\n  mul\n  not\n  and\n  swap1\n  dup4\n  0xffffffffffffffffffffffffffffffffffffffff\n  and\n  mul\n  or\n  swap1\n  sstore\n  pop\n    /* \"contracts/3_Ballot.sol\":2964:2965  0 */\n  0x00\n    /* \"contracts/3_Ballot.sol\":2930:2966  _proposalParams.target == address(0) */\n  0xffffffffffffffffffffffffffffffffffffffff\n  and\n    /* \"contracts/3_Ballot.sol\":2930:2945  _proposalParams */\n  0x08\n    /* \"contracts/3_Ballot.sol\":2930:2952  _proposalParams.target */\n  0x00\n  add\n  0x00\n  swap1\n  sload\n  swap1\n  0x0100\n  exp\n  swap1\n  div\n  0xffffffffffffffffffffffffffffffffffffffff\n  and\n    /* \"contracts/3_Ballot.sol\":2930:2966  _proposalParams.target == address(0) */\n  0xffffffffffffffffffffffffffffffffffffffff\n  and\n  sub\n    /* \"contracts/3_Ballot.sol\":2926:3041  if (_proposalParams.target == address(0)) {... */\n  tag_11\n  jumpi\n    /* \"contracts/3_Ballot.sol\":3005:3020  _proposalParams */\n  0x08\n    /* \"contracts/3_Ballot.sol\":3005:3029  _proposalParams.proposer */\n  0x01\n  add\n  0x00\n  swap1\n  sload\n  swap1\n  0x0100\n  exp\n  swap1\n  div\n  0xffffffffffffffffffffffffffffffffffffffff\n  and\n    /* \"contracts/3_Ballot.sol\":2989:3030  invalidProposer(_proposalParams.proposer) */\n  mload(0x40)\n  0xdefe7bd300000000000000000000000000000000000000000000000000000000\n  dup2\n  mstore\n  0x04\n  add\n  tag_12\n  swap2\n  swap1\n  tag_13\n  jump\t// in\ntag_12:\n  mload(0x40)\n  dup1\n  swap2\n  sub\n  swap1\n  revert\n    /* \"contracts/3_Ballot.sol\":2926:3041  if (_proposalParams.target == address(0)) {... */\ntag_11:\n    /* \"contracts/3_Ballot.sol\":3074:3080  value_ */\n  dup3\n    /* \"contracts/3_Ballot.sol\":3050:3065  _proposalParams */\n  0x08\n    /* \"contracts/3_Ballot.sol\":3050:3071  _proposalParams.value */\n  0x02\n  add\n    /* \"contracts/3_Ballot.sol\":3050:3080  _proposalParams.value = value_ */\n  dup2\n  swap1\n  sstore\n  pop\n    /* \"contracts/3_Ballot.sol\":3131:3144  votingParams_ */\n  dup2\n    /* \"contracts/3_Ballot.sol\":3115:3128  _votingParams */\n  0x02\n    /* \"contracts/3_Ballot.sol\":3115:3144  _votingParams = votingParams_ */\n  0x00\n  dup3\n  add\n  mload\n  dup2\n  0x00\n  add\n  exp(0x0100, 0x00)\n  dup2\n  sload\n  dup2\n  0xffff\n  mul\n  not\n  and\n  swap1\n  dup4\n  0xffff\n  and\n  mul\n  or\n  swap1\n  sstore\n  pop\n  0x20\n  dup3\n  add\n  mload\n  dup2\n  0x00\n  add\n  exp(0x0100, 0x02)\n  dup2\n  sload\n  dup2\n  0xffffffff\n  mul\n  not\n  and\n  swap1\n  dup4\n  0xffffffff\n  and\n  mul\n  or\n  swap1\n  sstore\n  pop\n  0x40\n  dup3\n  add\n  mload\n  dup2\n  0x00\n  add\n  exp(0x0100, 0x06)\n  dup2\n  sload\n  dup2\n  0xffffffffffff\n  mul\n  not\n  and\n  swap1\n  dup4\n  0xffffffffffff\n  and\n  mul\n  or\n  swap1\n  sstore\n  pop\n  0x60\n  dup3\n  add\n  mload\n  dup2\n  0x00\n  add\n  exp(0x0100, 0x0c)\n  dup2\n  sload\n  dup2\n  0xffffffffffff\n  mul\n  not\n  and\n  swap1\n  dup4\n  0xffffffffffff\n  and\n  mul\n  or\n  swap1\n  sstore\n  pop\n  swap1\n  pop\n  pop\n    /* \"contracts/3_Ballot.sol\":3192:3205  _votingParams */\n  0x02\n    /* \"contracts/3_Ballot.sol\":3192:3218  _votingParams.voteDuration */\n  0x00\n  add\n  0x02\n  swap1\n  sload\n  swap1\n  0x0100\n  exp\n  swap1\n  div\n  0xffffffff\n  and\n    /* \"contracts/3_Ballot.sol\":3166:3218  _votingParams.voteStart + _votingParams.voteDuration */\n  0xffffffff\n  and\n    /* \"contracts/3_Ballot.sol\":3166:3179  _votingParams */\n  0x02\n    /* \"contracts/3_Ballot.sol\":3166:3189  _votingParams.voteStart */\n  0x00\n  add\n  0x06\n  swap1\n  sload\n  swap1\n  0x0100\n  exp\n  swap1\n  div\n  0xffffffffffff\n  and\n    /* \"contracts/3_Ballot.sol\":3166:3218  _votingParams.voteStart + _votingParams.voteDuration */\n  tag_14\n  swap2\n  swap1\n  tag_15\n  jump\t// in\ntag_14:\n    /* \"contracts/3_Ballot.sol\":3154:3218  _deadLine = _votingParams.voteStart + _votingParams.voteDuration */\n  0xffffffffffff\n  and\n    /* \"contracts/3_Ballot.sol\":3154:3163  _deadLine */\n  0x03\n    /* \"contracts/3_Ballot.sol\":3154:3218  _deadLine = _votingParams.voteStart + _votingParams.voteDuration */\n  dup2\n  swap1\n  sstore\n  pop\n    /* \"contracts/3_Ballot.sol\":3273:3278  name_ */\n  dup1\n    /* \"contracts/3_Ballot.sol\":3253:3265  _ballotParam */\n  0x00\n    /* \"contracts/3_Ballot.sol\":3253:3270  _ballotParam.name */\n  dup1\n  add\n    /* \"contracts/3_Ballot.sol\":3253:3278  _ballotParam.name = name_ */\n  dup2\n  swap1\n  sstore\n  pop\n    /* \"contracts/3_Ballot.sol\":3313:3314  0 */\n  0x00\n    /* \"contracts/3_Ballot.sol\":3288:3300  _ballotParam */\n  dup1\n    /* \"contracts/3_Ballot.sol\":3288:3310  _ballotParam.voteCount */\n  0x01\n  add\n  0x00\n    /* \"contracts/3_Ballot.sol\":3288:3314  _ballotParam.voteCount = 0 */\n  0x0100\n  exp\n  dup2\n  sload\n  dup2\n  0xffff\n  mul\n  not\n  and\n  swap1\n  dup4\n  0xffff\n  and\n  mul\n  or\n  swap1\n  sstore\n  pop\n    /* \"contracts/3_Ballot.sol\":3348:3349  0 */\n  0x00\n    /* \"contracts/3_Ballot.sol\":3324:3336  _ballotParam */\n  dup1\n    /* \"contracts/3_Ballot.sol\":3324:3345  _ballotParam.observed */\n  0x01\n  add\n  0x02\n    /* \"contracts/3_Ballot.sol\":3324:3349  _ballotParam.observed = 0 */\n  0x0100\n  exp\n  dup2\n  sload\n  dup2\n  0xffff\n  mul\n  not\n  and\n  swap1\n  dup4\n  0xffff\n  and\n  mul\n  or\n  swap1\n  sstore\n  pop\n    /* \"contracts/3_Ballot.sol\":2457:3382  constructor(... */\n  pop\n  pop\n  pop\n  pop\n    /* \"contracts/3_Ballot.sol\":327:9610  contract BallotTCN {... */\n  jump(tag_16)\n    /* \"#utility.yul\":7:82   */\ntag_17:\n    /* \"#utility.yul\":40:46   */\n  0x00\n    /* \"#utility.yul\":73:75   */\n  0x40\n    /* \"#utility.yul\":67:76   */\n  mload\n    /* \"#utility.yul\":57:76   */\n  swap1\n  pop\n    /* \"#utility.yul\":7:82   */\n  swap1\n  jump\t// out\n    /* \"#utility.yul\":88:205   */\ntag_18:\n    /* \"#utility.yul\":197:198   */\n  0x00\n    /* \"#utility.yul\":194:195   */\n  dup1\n    /* \"#utility.yul\":187:199   */\n  revert\n    /* \"#utility.yul\":211:328   */\ntag_19:\n    /* \"#utility.yul\":320:321   */\n  0x00\n    /* \"#utility.yul\":317:318   */\n  dup1\n    /* \"#utility.yul\":310:322   */\n  revert\n    /* \"#utility.yul\":334:451   */\ntag_20:\n    /* \"#utility.yul\":443:444   */\n  0x00\n    /* \"#utility.yul\":440:441   */\n  dup1\n    /* \"#utility.yul\":433:445   */\n  revert\n    /* \"#utility.yul\":457:559   */\ntag_21:\n    /* \"#utility.yul\":498:504   */\n  0x00\n    /* \"#utility.yul\":549:551   */\n  0x1f\n    /* \"#utility.yul\":545:552   */\n  not\n    /* \"#utility.yul\":540:542   */\n  0x1f\n    /* \"#utility.yul\":533:538   */\n  dup4\n    /* \"#utility.yul\":529:543   */\n  add\n    /* \"#utility.yul\":525:553   */\n  and\n    /* \"#utility.yul\":515:553   */\n  swap1\n  pop\n    /* \"#utility.yul\":457:559   */\n  swap2\n  swap1\n  pop\n  jump\t// out\n    /* \"#utility.yul\":565:745   */\ntag_22:\n    /* \"#utility.yul\":613:690   */\n  0x4e487b7100000000000000000000000000000000000000000000000000000000\n    /* \"#utility.yul\":610:611   */\n  0x00\n    /* \"#utility.yul\":603:691   */\n  mstore\n    /* \"#utility.yul\":710:714   */\n  0x41\n    /* \"#utility.yul\":707:708   */\n  0x04\n    /* \"#utility.yul\":700:715   */\n  mstore\n    /* \"#utility.yul\":734:738   */\n  0x24\n    /* \"#utility.yul\":731:732   */\n  0x00\n    /* \"#utility.yul\":724:739   */\n  revert\n    /* \"#utility.yul\":751:1032   */\ntag_23:\n    /* \"#utility.yul\":834:861   */\n  tag_83\n    /* \"#utility.yul\":856:860   */\n  dup3\n    /* \"#utility.yul\":834:861   */\n  tag_21\n  jump\t// in\ntag_83:\n    /* \"#utility.yul\":826:832   */\n  dup2\n    /* \"#utility.yul\":822:862   */\n  add\n    /* \"#utility.yul\":964:970   */\n  dup2\n    /* \"#utility.yul\":952:962   */\n  dup2\n    /* \"#utility.yul\":949:971   */\n  lt\n    /* \"#utility.yul\":928:946   */\n  0xffffffffffffffff\n    /* \"#utility.yul\":916:926   */\n  dup3\n    /* \"#utility.yul\":913:947   */\n  gt\n    /* \"#utility.yul\":910:972   */\n  or\n    /* \"#utility.yul\":907:995   */\n  iszero\n  tag_84\n  jumpi\n    /* \"#utility.yul\":975:993   */\n  tag_85\n  tag_22\n  jump\t// in\ntag_85:\n    /* \"#utility.yul\":907:995   */\ntag_84:\n    /* \"#utility.yul\":1015:1025   */\n  dup1\n    /* \"#utility.yul\":1011:1013   */\n  0x40\n    /* \"#utility.yul\":1004:1026   */\n  mstore\n    /* \"#utility.yul\":794:1032   */\n  pop\n    /* \"#utility.yul\":751:1032   */\n  pop\n  pop\n  jump\t// out\n    /* \"#utility.yul\":1038:1167   */\ntag_24:\n    /* \"#utility.yul\":1072:1078   */\n  0x00\n    /* \"#utility.yul\":1099:1119   */\n  tag_87\n  tag_17\n  jump\t// in\ntag_87:\n    /* \"#utility.yul\":1089:1119   */\n  swap1\n  pop\n    /* \"#utility.yul\":1128:1161   */\n  tag_88\n    /* \"#utility.yul\":1156:1160   */\n  dup3\n    /* \"#utility.yul\":1148:1154   */\n  dup3\n    /* \"#utility.yul\":1128:1161   */\n  tag_23\n  jump\t// in\ntag_88:\n    /* \"#utility.yul\":1038:1167   */\n  swap2\n  swap1\n  pop\n  jump\t// out\n    /* \"#utility.yul\":1173:1290   */\ntag_25:\n    /* \"#utility.yul\":1282:1283   */\n  0x00\n    /* \"#utility.yul\":1279:1280   */\n  dup1\n    /* \"#utility.yul\":1272:1284   */\n  revert\n    /* \"#utility.yul\":1296:1413   */\ntag_26:\n    /* \"#utility.yul\":1405:1406   */\n  0x00\n    /* \"#utility.yul\":1402:1403   */\n  dup1\n    /* \"#utility.yul\":1395:1407   */\n  revert\n    /* \"#utility.yul\":1419:1536   */\ntag_27:\n    /* \"#utility.yul\":1528:1529   */\n  0x00\n    /* \"#utility.yul\":1525:1526   */\n  dup1\n    /* \"#utility.yul\":1518:1530   */\n  revert\n    /* \"#utility.yul\":1542:1850   */\ntag_28:\n    /* \"#utility.yul\":1604:1608   */\n  0x00\n    /* \"#utility.yul\":1694:1712   */\n  0xffffffffffffffff\n    /* \"#utility.yul\":1686:1692   */\n  dup3\n    /* \"#utility.yul\":1683:1713   */\n  gt\n    /* \"#utility.yul\":1680:1736   */\n  iszero\n  tag_93\n  jumpi\n    /* \"#utility.yul\":1716:1734   */\n  tag_94\n  tag_22\n  jump\t// in\ntag_94:\n    /* \"#utility.yul\":1680:1736   */\ntag_93:\n    /* \"#utility.yul\":1754:1783   */\n  tag_95\n    /* \"#utility.yul\":1776:1782   */\n  dup3\n    /* \"#utility.yul\":1754:1783   */\n  tag_21\n  jump\t// in\ntag_95:\n    /* \"#utility.yul\":1746:1783   */\n  swap1\n  pop\n    /* \"#utility.yul\":1838:1842   */\n  0x20\n    /* \"#utility.yul\":1832:1836   */\n  dup2\n    /* \"#utility.yul\":1828:1843   */\n  add\n    /* \"#utility.yul\":1820:1843   */\n  swap1\n  pop\n    /* \"#utility.yul\":1542:1850   */\n  swap2\n  swap1\n  pop\n  jump\t// out\n    /* \"#utility.yul\":1856:2102   */\ntag_29:\n    /* \"#utility.yul\":1937:1938   */\n  0x00\n    /* \"#utility.yul\":1947:2060   */\ntag_97:\n    /* \"#utility.yul\":1961:1967   */\n  dup4\n    /* \"#utility.yul\":1958:1959   */\n  dup2\n    /* \"#utility.yul\":1955:1968   */\n  lt\n    /* \"#utility.yul\":1947:2060   */\n  iszero\n  tag_99\n  jumpi\n    /* \"#utility.yul\":2046:2047   */\n  dup1\n    /* \"#utility.yul\":2041:2044   */\n  dup3\n    /* \"#utility.yul\":2037:2048   */\n  add\n    /* \"#utility.yul\":2031:2049   */\n  mload\n    /* \"#utility.yul\":2027:2028   */\n  dup2\n    /* \"#utility.yul\":2022:2025   */\n  dup5\n    /* \"#utility.yul\":2018:2029   */\n  add\n    /* \"#utility.yul\":2011:2050   */\n  mstore\n    /* \"#utility.yul\":1983:1985   */\n  0x20\n    /* \"#utility.yul\":1980:1981   */\n  dup2\n    /* \"#utility.yul\":1976:1986   */\n  add\n    /* \"#utility.yul\":1971:1986   */\n  swap1\n  pop\n    /* \"#utility.yul\":1947:2060   */\n  jump(tag_97)\ntag_99:\n    /* \"#utility.yul\":2094:2095   */\n  0x00\n    /* \"#utility.yul\":2085:2091   */\n  dup5\n    /* \"#utility.yul\":2080:2083   */\n  dup5\n    /* \"#utility.yul\":2076:2092   */\n  add\n    /* \"#utility.yul\":2069:2096   */\n  mstore\n    /* \"#utility.yul\":1918:2102   */\n  pop\n    /* \"#utility.yul\":1856:2102   */\n  pop\n  pop\n  pop\n  jump\t// out\n    /* \"#utility.yul\":2108:2542   */\ntag_30:\n    /* \"#utility.yul\":2197:2202   */\n  0x00\n    /* \"#utility.yul\":2222:2288   */\n  tag_101\n    /* \"#utility.yul\":2238:2287   */\n  tag_102\n    /* \"#utility.yul\":2280:2286   */\n  dup5\n    /* \"#utility.yul\":2238:2287   */\n  tag_28\n  jump\t// in\ntag_102:\n    /* \"#utility.yul\":2222:2288   */\n  tag_24\n  jump\t// in\ntag_101:\n    /* \"#utility.yul\":2213:2288   */\n  swap1\n  pop\n    /* \"#utility.yul\":2311:2317   */\n  dup3\n    /* \"#utility.yul\":2304:2309   */\n  dup2\n    /* \"#utility.yul\":2297:2318   */\n  mstore\n    /* \"#utility.yul\":2349:2353   */\n  0x20\n    /* \"#utility.yul\":2342:2347   */\n  dup2\n    /* \"#utility.yul\":2338:2354   */\n  add\n    /* \"#utility.yul\":2387:2390   */\n  dup5\n    /* \"#utility.yul\":2378:2384   */\n  dup5\n    /* \"#utility.yul\":2373:2376   */\n  dup5\n    /* \"#utility.yul\":2369:2385   */\n  add\n    /* \"#utility.yul\":2366:2391   */\n  gt\n    /* \"#utility.yul\":2363:2475   */\n  iszero\n  tag_103\n  jumpi\n    /* \"#utility.yul\":2394:2473   */\n  tag_104\n  tag_27\n  jump\t// in\ntag_104:\n    /* \"#utility.yul\":2363:2475   */\ntag_103:\n    /* \"#utility.yul\":2484:2536   */\n  tag_105\n    /* \"#utility.yul\":2529:2535   */\n  dup5\n    /* \"#utility.yul\":2524:2527   */\n  dup3\n    /* \"#utility.yul\":2519:2522   */\n  dup6\n    /* \"#utility.yul\":2484:2536   */\n  tag_29\n  jump\t// in\ntag_105:\n    /* \"#utility.yul\":2203:2542   */\n  pop\n    /* \"#utility.yul\":2108:2542   */\n  swap4\n  swap3\n  pop\n  pop\n  pop\n  jump\t// out\n    /* \"#utility.yul\":2562:2917   */\ntag_31:\n    /* \"#utility.yul\":2629:2634   */\n  0x00\n    /* \"#utility.yul\":2678:2681   */\n  dup3\n    /* \"#utility.yul\":2671:2675   */\n  0x1f\n    /* \"#utility.yul\":2663:2669   */\n  dup4\n    /* \"#utility.yul\":2659:2676   */\n  add\n    /* \"#utility.yul\":2655:2682   */\n  slt\n    /* \"#utility.yul\":2645:2767   */\n  tag_107\n  jumpi\n    /* \"#utility.yul\":2686:2765   */\n  tag_108\n  tag_26\n  jump\t// in\ntag_108:\n    /* \"#utility.yul\":2645:2767   */\ntag_107:\n    /* \"#utility.yul\":2796:2802   */\n  dup2\n    /* \"#utility.yul\":2790:2803   */\n  mload\n    /* \"#utility.yul\":2821:2911   */\n  tag_109\n    /* \"#utility.yul\":2907:2910   */\n  dup5\n    /* \"#utility.yul\":2899:2905   */\n  dup3\n    /* \"#utility.yul\":2892:2896   */\n  0x20\n    /* \"#utility.yul\":2884:2890   */\n  dup7\n    /* \"#utility.yul\":2880:2897   */\n  add\n    /* \"#utility.yul\":2821:2911   */\n  tag_30\n  jump\t// in\ntag_109:\n    /* \"#utility.yul\":2812:2911   */\n  swap2\n  pop\n    /* \"#utility.yul\":2635:2917   */\n  pop\n    /* \"#utility.yul\":2562:2917   */\n  swap3\n  swap2\n  pop\n  pop\n  jump\t// out\n    /* \"#utility.yul\":2923:3000   */\ntag_32:\n    /* \"#utility.yul\":2960:2967   */\n  0x00\n    /* \"#utility.yul\":2989:2994   */\n  dup2\n    /* \"#utility.yul\":2978:2994   */\n  swap1\n  pop\n    /* \"#utility.yul\":2923:3000   */\n  swap2\n  swap1\n  pop\n  jump\t// out\n    /* \"#utility.yul\":3006:3128   */\ntag_33:\n    /* \"#utility.yul\":3079:3103   */\n  tag_112\n    /* \"#utility.yul\":3097:3102   */\n  dup2\n    /* \"#utility.yul\":3079:3103   */\n  tag_32\n  jump\t// in\ntag_112:\n    /* \"#utility.yul\":3072:3077   */\n  dup2\n    /* \"#utility.yul\":3069:3104   */\n  eq\n    /* \"#utility.yul\":3059:3122   */\n  tag_113\n  jumpi\n    /* \"#utility.yul\":3118:3119   */\n  0x00\n    /* \"#utility.yul\":3115:3116   */\n  dup1\n    /* \"#utility.yul\":3108:3120   */\n  revert\n    /* \"#utility.yul\":3059:3122   */\ntag_113:\n    /* \"#utility.yul\":3006:3128   */\n  pop\n  jump\t// out\n    /* \"#utility.yul\":3134:3277   */\ntag_34:\n    /* \"#utility.yul\":3191:3196   */\n  0x00\n    /* \"#utility.yul\":3222:3228   */\n  dup2\n    /* \"#utility.yul\":3216:3229   */\n  mload\n    /* \"#utility.yul\":3207:3229   */\n  swap1\n  pop\n    /* \"#utility.yul\":3238:3271   */\n  tag_115\n    /* \"#utility.yul\":3265:3270   */\n  dup2\n    /* \"#utility.yul\":3238:3271   */\n  tag_33\n  jump\t// in\ntag_115:\n    /* \"#utility.yul\":3134:3277   */\n  swap3\n  swap2\n  pop\n  pop\n  jump\t// out\n    /* \"#utility.yul\":3283:3409   */\ntag_35:\n    /* \"#utility.yul\":3320:3327   */\n  0x00\n    /* \"#utility.yul\":3360:3402   */\n  0xffffffffffffffffffffffffffffffffffffffff\n    /* \"#utility.yul\":3353:3358   */\n  dup3\n    /* \"#utility.yul\":3349:3403   */\n  and\n    /* \"#utility.yul\":3338:3403   */\n  swap1\n  pop\n    /* \"#utility.yul\":3283:3409   */\n  swap2\n  swap1\n  pop\n  jump\t// out\n    /* \"#utility.yul\":3415:3511   */\ntag_36:\n    /* \"#utility.yul\":3452:3459   */\n  0x00\n    /* \"#utility.yul\":3481:3505   */\n  tag_118\n    /* \"#utility.yul\":3499:3504   */\n  dup3\n    /* \"#utility.yul\":3481:3505   */\n  tag_35\n  jump\t// in\ntag_118:\n    /* \"#utility.yul\":3470:3505   */\n  swap1\n  pop\n    /* \"#utility.yul\":3415:3511   */\n  swap2\n  swap1\n  pop\n  jump\t// out\n    /* \"#utility.yul\":3517:3639   */\ntag_37:\n    /* \"#utility.yul\":3590:3614   */\n  tag_120\n    /* \"#utility.yul\":3608:3613   */\n  dup2\n    /* \"#utility.yul\":3590:3614   */\n  tag_36\n  jump\t// in\ntag_120:\n    /* \"#utility.yul\":3583:3588   */\n  dup2\n    /* \"#utility.yul\":3580:3615   */\n  eq\n    /* \"#utility.yul\":3570:3633   */\n  tag_121\n  jumpi\n    /* \"#utility.yul\":3629:3630   */\n  0x00\n    /* \"#utility.yul\":3626:3627   */\n  dup1\n    /* \"#utility.yul\":3619:3631   */\n  revert\n    /* \"#utility.yul\":3570:3633   */\ntag_121:\n    /* \"#utility.yul\":3517:3639   */\n  pop\n  jump\t// out\n    /* \"#utility.yul\":3645:3788   */\ntag_38:\n    /* \"#utility.yul\":3702:3707   */\n  0x00\n    /* \"#utility.yul\":3733:3739   */\n  dup2\n    /* \"#utility.yul\":3727:3740   */\n  mload\n    /* \"#utility.yul\":3718:3740   */\n  swap1\n  pop\n    /* \"#utility.yul\":3749:3782   */\n  tag_123\n    /* \"#utility.yul\":3776:3781   */\n  dup2\n    /* \"#utility.yul\":3749:3782   */\n  tag_37\n  jump\t// in\ntag_123:\n    /* \"#utility.yul\":3645:3788   */\n  swap3\n  swap2\n  pop\n  pop\n  jump\t// out\n    /* \"#utility.yul\":3832:5142   */\ntag_39:\n    /* \"#utility.yul\":3921:3926   */\n  0x00\n    /* \"#utility.yul\":3965:3969   */\n  0x80\n    /* \"#utility.yul\":3953:3962   */\n  dup3\n    /* \"#utility.yul\":3948:3951   */\n  dup5\n    /* \"#utility.yul\":3944:3963   */\n  sub\n    /* \"#utility.yul\":3940:3970   */\n  slt\n    /* \"#utility.yul\":3937:4054   */\n  iszero\n  tag_125\n  jumpi\n    /* \"#utility.yul\":3973:4052   */\n  tag_126\n  tag_20\n  jump\t// in\ntag_126:\n    /* \"#utility.yul\":3937:4054   */\ntag_125:\n    /* \"#utility.yul\":4072:4093   */\n  tag_127\n    /* \"#utility.yul\":4088:4092   */\n  0x80\n    /* \"#utility.yul\":4072:4093   */\n  tag_24\n  jump\t// in\ntag_127:\n    /* \"#utility.yul\":4063:4093   */\n  swap1\n  pop\n    /* \"#utility.yul\":4178:4179   */\n  0x00\n    /* \"#utility.yul\":4167:4176   */\n  dup3\n    /* \"#utility.yul\":4163:4180   */\n  add\n    /* \"#utility.yul\":4157:4181   */\n  mload\n    /* \"#utility.yul\":4208:4226   */\n  0xffffffffffffffff\n    /* \"#utility.yul\":4200:4206   */\n  dup2\n    /* \"#utility.yul\":4197:4227   */\n  gt\n    /* \"#utility.yul\":4194:4311   */\n  iszero\n  tag_128\n  jumpi\n    /* \"#utility.yul\":4230:4309   */\n  tag_129\n  tag_25\n  jump\t// in\ntag_129:\n    /* \"#utility.yul\":4194:4311   */\ntag_128:\n    /* \"#utility.yul\":4350:4420   */\n  tag_130\n    /* \"#utility.yul\":4416:4419   */\n  dup5\n    /* \"#utility.yul\":4407:4413   */\n  dup3\n    /* \"#utility.yul\":4396:4405   */\n  dup6\n    /* \"#utility.yul\":4392:4414   */\n  add\n    /* \"#utility.yul\":4350:4420   */\n  tag_31\n  jump\t// in\ntag_130:\n    /* \"#utility.yul\":4343:4347   */\n  0x00\n    /* \"#utility.yul\":4336:4341   */\n  dup4\n    /* \"#utility.yul\":4332:4348   */\n  add\n    /* \"#utility.yul\":4325:4421   */\n  mstore\n    /* \"#utility.yul\":4103:4432   */\n  pop\n    /* \"#utility.yul\":4519:4521   */\n  0x20\n    /* \"#utility.yul\":4508:4517   */\n  dup3\n    /* \"#utility.yul\":4504:4522   */\n  add\n    /* \"#utility.yul\":4498:4523   */\n  mload\n    /* \"#utility.yul\":4550:4568   */\n  0xffffffffffffffff\n    /* \"#utility.yul\":4542:4548   */\n  dup2\n    /* \"#utility.yul\":4539:4569   */\n  gt\n    /* \"#utility.yul\":4536:4653   */\n  iszero\n  tag_131\n  jumpi\n    /* \"#utility.yul\":4572:4651   */\n  tag_132\n  tag_25\n  jump\t// in\ntag_132:\n    /* \"#utility.yul\":4536:4653   */\ntag_131:\n    /* \"#utility.yul\":4692:4762   */\n  tag_133\n    /* \"#utility.yul\":4758:4761   */\n  dup5\n    /* \"#utility.yul\":4749:4755   */\n  dup3\n    /* \"#utility.yul\":4738:4747   */\n  dup6\n    /* \"#utility.yul\":4734:4756   */\n  add\n    /* \"#utility.yul\":4692:4762   */\n  tag_31\n  jump\t// in\ntag_133:\n    /* \"#utility.yul\":4685:4689   */\n  0x20\n    /* \"#utility.yul\":4678:4683   */\n  dup4\n    /* \"#utility.yul\":4674:4690   */\n  add\n    /* \"#utility.yul\":4667:4763   */\n  mstore\n    /* \"#utility.yul\":4442:4774   */\n  pop\n    /* \"#utility.yul\":4844:4846   */\n  0x40\n    /* \"#utility.yul\":4885:4945   */\n  tag_134\n    /* \"#utility.yul\":4941:4944   */\n  dup5\n    /* \"#utility.yul\":4932:4938   */\n  dup3\n    /* \"#utility.yul\":4921:4930   */\n  dup6\n    /* \"#utility.yul\":4917:4939   */\n  add\n    /* \"#utility.yul\":4885:4945   */\n  tag_34\n  jump\t// in\ntag_134:\n    /* \"#utility.yul\":4878:4882   */\n  0x40\n    /* \"#utility.yul\":4871:4876   */\n  dup4\n    /* \"#utility.yul\":4867:4883   */\n  add\n    /* \"#utility.yul\":4860:4946   */\n  mstore\n    /* \"#utility.yul\":4784:4957   */\n  pop\n    /* \"#utility.yul\":5022:5024   */\n  0x60\n    /* \"#utility.yul\":5063:5123   */\n  tag_135\n    /* \"#utility.yul\":5119:5122   */\n  dup5\n    /* \"#utility.yul\":5110:5116   */\n  dup3\n    /* \"#utility.yul\":5099:5108   */\n  dup6\n    /* \"#utility.yul\":5095:5117   */\n  add\n    /* \"#utility.yul\":5063:5123   */\n  tag_38\n  jump\t// in\ntag_135:\n    /* \"#utility.yul\":5056:5060   */\n  0x60\n    /* \"#utility.yul\":5049:5054   */\n  dup4\n    /* \"#utility.yul\":5045:5061   */\n  add\n    /* \"#utility.yul\":5038:5124   */\n  mstore\n    /* \"#utility.yul\":4967:5135   */\n  pop\n    /* \"#utility.yul\":3832:5142   */\n  swap3\n  swap2\n  pop\n  pop\n  jump\t// out\n    /* \"#utility.yul\":5148:5225   */\ntag_40:\n    /* \"#utility.yul\":5185:5192   */\n  0x00\n    /* \"#utility.yul\":5214:5219   */\n  dup2\n    /* \"#utility.yul\":5203:5219   */\n  swap1\n  pop\n    /* \"#utility.yul\":5148:5225   */\n  swap2\n  swap1\n  pop\n  jump\t// out\n    /* \"#utility.yul\":5231:5353   */\ntag_41:\n    /* \"#utility.yul\":5304:5328   */\n  tag_138\n    /* \"#utility.yul\":5322:5327   */\n  dup2\n    /* \"#utility.yul\":5304:5328   */\n  tag_40\n  jump\t// in\ntag_138:\n    /* \"#utility.yul\":5297:5302   */\n  dup2\n    /* \"#utility.yul\":5294:5329   */\n  eq\n    /* \"#utility.yul\":5284:5347   */\n  tag_139\n  jumpi\n    /* \"#utility.yul\":5343:5344   */\n  0x00\n    /* \"#utility.yul\":5340:5341   */\n  dup1\n    /* \"#utility.yul\":5333:5345   */\n  revert\n    /* \"#utility.yul\":5284:5347   */\ntag_139:\n    /* \"#utility.yul\":5231:5353   */\n  pop\n  jump\t// out\n    /* \"#utility.yul\":5359:5502   */\ntag_42:\n    /* \"#utility.yul\":5416:5421   */\n  0x00\n    /* \"#utility.yul\":5447:5453   */\n  dup2\n    /* \"#utility.yul\":5441:5454   */\n  mload\n    /* \"#utility.yul\":5432:5454   */\n  swap1\n  pop\n    /* \"#utility.yul\":5463:5496   */\n  tag_141\n    /* \"#utility.yul\":5490:5495   */\n  dup2\n    /* \"#utility.yul\":5463:5496   */\n  tag_41\n  jump\t// in\ntag_141:\n    /* \"#utility.yul\":5359:5502   */\n  swap3\n  swap2\n  pop\n  pop\n  jump\t// out\n    /* \"#utility.yul\":5508:5597   */\ntag_43:\n    /* \"#utility.yul\":5544:5551   */\n  0x00\n    /* \"#utility.yul\":5584:5590   */\n  0xffff\n    /* \"#utility.yul\":5577:5582   */\n  dup3\n    /* \"#utility.yul\":5573:5591   */\n  and\n    /* \"#utility.yul\":5562:5591   */\n  swap1\n  pop\n    /* \"#utility.yul\":5508:5597   */\n  swap2\n  swap1\n  pop\n  jump\t// out\n    /* \"#utility.yul\":5603:5723   */\ntag_44:\n    /* \"#utility.yul\":5675:5698   */\n  tag_144\n    /* \"#utility.yul\":5692:5697   */\n  dup2\n    /* \"#utility.yul\":5675:5698   */\n  tag_43\n  jump\t// in\ntag_144:\n    /* \"#utility.yul\":5668:5673   */\n  dup2\n    /* \"#utility.yul\":5665:5699   */\n  eq\n    /* \"#utility.yul\":5655:5717   */\n  tag_145\n  jumpi\n    /* \"#utility.yul\":5713:5714   */\n  0x00\n    /* \"#utility.yul\":5710:5711   */\n  dup1\n    /* \"#utility.yul\":5703:5715   */\n  revert\n    /* \"#utility.yul\":5655:5717   */\ntag_145:\n    /* \"#utility.yul\":5603:5723   */\n  pop\n  jump\t// out\n    /* \"#utility.yul\":5729:5870   */\ntag_45:\n    /* \"#utility.yul\":5785:5790   */\n  0x00\n    /* \"#utility.yul\":5816:5822   */\n  dup2\n    /* \"#utility.yul\":5810:5823   */\n  mload\n    /* \"#utility.yul\":5801:5823   */\n  swap1\n  pop\n    /* \"#utility.yul\":5832:5864   */\n  tag_147\n    /* \"#utility.yul\":5858:5863   */\n  dup2\n    /* \"#utility.yul\":5832:5864   */\n  tag_44\n  jump\t// in\ntag_147:\n    /* \"#utility.yul\":5729:5870   */\n  swap3\n  swap2\n  pop\n  pop\n  jump\t// out\n    /* \"#utility.yul\":5876:5969   */\ntag_46:\n    /* \"#utility.yul\":5912:5919   */\n  0x00\n    /* \"#utility.yul\":5952:5962   */\n  0xffffffff\n    /* \"#utility.yul\":5945:5950   */\n  dup3\n    /* \"#utility.yul\":5941:5963   */\n  and\n    /* \"#utility.yul\":5930:5963   */\n  swap1\n  pop\n    /* \"#utility.yul\":5876:5969   */\n  swap2\n  swap1\n  pop\n  jump\t// out\n    /* \"#utility.yul\":5975:6095   */\ntag_47:\n    /* \"#utility.yul\":6047:6070   */\n  tag_150\n    /* \"#utility.yul\":6064:6069   */\n  dup2\n    /* \"#utility.yul\":6047:6070   */\n  tag_46\n  jump\t// in\ntag_150:\n    /* \"#utility.yul\":6040:6045   */\n  dup2\n    /* \"#utility.yul\":6037:6071   */\n  eq\n    /* \"#utility.yul\":6027:6089   */\n  tag_151\n  jumpi\n    /* \"#utility.yul\":6085:6086   */\n  0x00\n    /* \"#utility.yul\":6082:6083   */\n  dup1\n    /* \"#utility.yul\":6075:6087   */\n  revert\n    /* \"#utility.yul\":6027:6089   */\ntag_151:\n    /* \"#utility.yul\":5975:6095   */\n  pop\n  jump\t// out\n    /* \"#utility.yul\":6101:6242   */\ntag_48:\n    /* \"#utility.yul\":6157:6162   */\n  0x00\n    /* \"#utility.yul\":6188:6194   */\n  dup2\n    /* \"#utility.yul\":6182:6195   */\n  mload\n    /* \"#utility.yul\":6173:6195   */\n  swap1\n  pop\n    /* \"#utility.yul\":6204:6236   */\n  tag_153\n    /* \"#utility.yul\":6230:6235   */\n  dup2\n    /* \"#utility.yul\":6204:6236   */\n  tag_47\n  jump\t// in\ntag_153:\n    /* \"#utility.yul\":6101:6242   */\n  swap3\n  swap2\n  pop\n  pop\n  jump\t// out\n    /* \"#utility.yul\":6248:6345   */\ntag_49:\n    /* \"#utility.yul\":6284:6291   */\n  0x00\n    /* \"#utility.yul\":6324:6338   */\n  0xffffffffffff\n    /* \"#utility.yul\":6317:6322   */\n  dup3\n    /* \"#utility.yul\":6313:6339   */\n  and\n    /* \"#utility.yul\":6302:6339   */\n  swap1\n  pop\n    /* \"#utility.yul\":6248:6345   */\n  swap2\n  swap1\n  pop\n  jump\t// out\n    /* \"#utility.yul\":6351:6471   */\ntag_50:\n    /* \"#utility.yul\":6423:6446   */\n  tag_156\n    /* \"#utility.yul\":6440:6445   */\n  dup2\n    /* \"#utility.yul\":6423:6446   */\n  tag_49\n  jump\t// in\ntag_156:\n    /* \"#utility.yul\":6416:6421   */\n  dup2\n    /* \"#utility.yul\":6413:6447   */\n  eq\n    /* \"#utility.yul\":6403:6465   */\n  tag_157\n  jumpi\n    /* \"#utility.yul\":6461:6462   */\n  0x00\n    /* \"#utility.yul\":6458:6459   */\n  dup1\n    /* \"#utility.yul\":6451:6463   */\n  revert\n    /* \"#utility.yul\":6403:6465   */\ntag_157:\n    /* \"#utility.yul\":6351:6471   */\n  pop\n  jump\t// out\n    /* \"#utility.yul\":6477:6618   */\ntag_51:\n    /* \"#utility.yul\":6533:6538   */\n  0x00\n    /* \"#utility.yul\":6564:6570   */\n  dup2\n    /* \"#utility.yul\":6558:6571   */\n  mload\n    /* \"#utility.yul\":6549:6571   */\n  swap1\n  pop\n    /* \"#utility.yul\":6580:6612   */\n  tag_159\n    /* \"#utility.yul\":6606:6611   */\n  dup2\n    /* \"#utility.yul\":6580:6612   */\n  tag_50\n  jump\t// in\ntag_159:\n    /* \"#utility.yul\":6477:6618   */\n  swap3\n  swap2\n  pop\n  pop\n  jump\t// out\n    /* \"#utility.yul\":6660:7630   */\ntag_52:\n    /* \"#utility.yul\":6747:6752   */\n  0x00\n    /* \"#utility.yul\":6791:6795   */\n  0x80\n    /* \"#utility.yul\":6779:6788   */\n  dup3\n    /* \"#utility.yul\":6774:6777   */\n  dup5\n    /* \"#utility.yul\":6770:6789   */\n  sub\n    /* \"#utility.yul\":6766:6796   */\n  slt\n    /* \"#utility.yul\":6763:6880   */\n  iszero\n  tag_161\n  jumpi\n    /* \"#utility.yul\":6799:6878   */\n  tag_162\n  tag_20\n  jump\t// in\ntag_162:\n    /* \"#utility.yul\":6763:6880   */\ntag_161:\n    /* \"#utility.yul\":6898:6919   */\n  tag_163\n    /* \"#utility.yul\":6914:6918   */\n  0x80\n    /* \"#utility.yul\":6898:6919   */\n  tag_24\n  jump\t// in\ntag_163:\n    /* \"#utility.yul\":6889:6919   */\n  swap1\n  pop\n    /* \"#utility.yul\":6980:6981   */\n  0x00\n    /* \"#utility.yul\":7020:7079   */\n  tag_164\n    /* \"#utility.yul\":7075:7078   */\n  dup5\n    /* \"#utility.yul\":7066:7072   */\n  dup3\n    /* \"#utility.yul\":7055:7064   */\n  dup6\n    /* \"#utility.yul\":7051:7073   */\n  add\n    /* \"#utility.yul\":7020:7079   */\n  tag_45\n  jump\t// in\ntag_164:\n    /* \"#utility.yul\":7013:7017   */\n  0x00\n    /* \"#utility.yul\":7006:7011   */\n  dup4\n    /* \"#utility.yul\":7002:7018   */\n  add\n    /* \"#utility.yul\":6995:7080   */\n  mstore\n    /* \"#utility.yul\":6929:7091   */\n  pop\n    /* \"#utility.yul\":7158:7160   */\n  0x20\n    /* \"#utility.yul\":7199:7258   */\n  tag_165\n    /* \"#utility.yul\":7254:7257   */\n  dup5\n    /* \"#utility.yul\":7245:7251   */\n  dup3\n    /* \"#utility.yul\":7234:7243   */\n  dup6\n    /* \"#utility.yul\":7230:7252   */\n  add\n    /* \"#utility.yul\":7199:7258   */\n  tag_48\n  jump\t// in\ntag_165:\n    /* \"#utility.yul\":7192:7196   */\n  0x20\n    /* \"#utility.yul\":7185:7190   */\n  dup4\n    /* \"#utility.yul\":7181:7197   */\n  add\n    /* \"#utility.yul\":7174:7259   */\n  mstore\n    /* \"#utility.yul\":7101:7270   */\n  pop\n    /* \"#utility.yul\":7334:7336   */\n  0x40\n    /* \"#utility.yul\":7375:7434   */\n  tag_166\n    /* \"#utility.yul\":7430:7433   */\n  dup5\n    /* \"#utility.yul\":7421:7427   */\n  dup3\n    /* \"#utility.yul\":7410:7419   */\n  dup6\n    /* \"#utility.yul\":7406:7428   */\n  add\n    /* \"#utility.yul\":7375:7434   */\n  tag_51\n  jump\t// in\ntag_166:\n    /* \"#utility.yul\":7368:7372   */\n  0x40\n    /* \"#utility.yul\":7361:7366   */\n  dup4\n    /* \"#utility.yul\":7357:7373   */\n  add\n    /* \"#utility.yul\":7350:7435   */\n  mstore\n    /* \"#utility.yul\":7280:7446   */\n  pop\n    /* \"#utility.yul\":7511:7513   */\n  0x60\n    /* \"#utility.yul\":7552:7611   */\n  tag_167\n    /* \"#utility.yul\":7607:7610   */\n  dup5\n    /* \"#utility.yul\":7598:7604   */\n  dup3\n    /* \"#utility.yul\":7587:7596   */\n  dup6\n    /* \"#utility.yul\":7583:7605   */\n  add\n    /* \"#utility.yul\":7552:7611   */\n  tag_51\n  jump\t// in\ntag_167:\n    /* \"#utility.yul\":7545:7549   */\n  0x60\n    /* \"#utility.yul\":7538:7543   */\n  dup4\n    /* \"#utility.yul\":7534:7550   */\n  add\n    /* \"#utility.yul\":7527:7612   */\n  mstore\n    /* \"#utility.yul\":7456:7623   */\n  pop\n    /* \"#utility.yul\":6660:7630   */\n  swap3\n  swap2\n  pop\n  pop\n  jump\t// out\n    /* \"#utility.yul\":7636:8722   */\ntag_3:\n    /* \"#utility.yul\":7789:7795   */\n  0x00\n    /* \"#utility.yul\":7797:7803   */\n  dup1\n    /* \"#utility.yul\":7805:7811   */\n  0x00\n    /* \"#utility.yul\":7813:7819   */\n  dup1\n    /* \"#utility.yul\":7862:7865   */\n  0xe0\n    /* \"#utility.yul\":7850:7859   */\n  dup6\n    /* \"#utility.yul\":7841:7848   */\n  dup8\n    /* \"#utility.yul\":7837:7860   */\n  sub\n    /* \"#utility.yul\":7833:7866   */\n  slt\n    /* \"#utility.yul\":7830:7950   */\n  iszero\n  tag_169\n  jumpi\n    /* \"#utility.yul\":7869:7948   */\n  tag_170\n  tag_18\n  jump\t// in\ntag_170:\n    /* \"#utility.yul\":7830:7950   */\ntag_169:\n    /* \"#utility.yul\":8010:8011   */\n  0x00\n    /* \"#utility.yul\":7999:8008   */\n  dup6\n    /* \"#utility.yul\":7995:8012   */\n  add\n    /* \"#utility.yul\":7989:8013   */\n  mload\n    /* \"#utility.yul\":8040:8058   */\n  0xffffffffffffffff\n    /* \"#utility.yul\":8032:8038   */\n  dup2\n    /* \"#utility.yul\":8029:8059   */\n  gt\n    /* \"#utility.yul\":8026:8143   */\n  iszero\n  tag_171\n  jumpi\n    /* \"#utility.yul\":8062:8141   */\n  tag_172\n  tag_19\n  jump\t// in\ntag_172:\n    /* \"#utility.yul\":8026:8143   */\ntag_171:\n    /* \"#utility.yul\":8167:8260   */\n  tag_173\n    /* \"#utility.yul\":8252:8259   */\n  dup8\n    /* \"#utility.yul\":8243:8249   */\n  dup3\n    /* \"#utility.yul\":8232:8241   */\n  dup9\n    /* \"#utility.yul\":8228:8250   */\n  add\n    /* \"#utility.yul\":8167:8260   */\n  tag_39\n  jump\t// in\ntag_173:\n    /* \"#utility.yul\":8157:8260   */\n  swap5\n  pop\n    /* \"#utility.yul\":7960:8270   */\n  pop\n    /* \"#utility.yul\":8309:8311   */\n  0x20\n    /* \"#utility.yul\":8335:8399   */\n  tag_174\n    /* \"#utility.yul\":8391:8398   */\n  dup8\n    /* \"#utility.yul\":8382:8388   */\n  dup3\n    /* \"#utility.yul\":8371:8380   */\n  dup9\n    /* \"#utility.yul\":8367:8389   */\n  add\n    /* \"#utility.yul\":8335:8399   */\n  tag_42\n  jump\t// in\ntag_174:\n    /* \"#utility.yul\":8325:8399   */\n  swap4\n  pop\n    /* \"#utility.yul\":8280:8409   */\n  pop\n    /* \"#utility.yul\":8448:8450   */\n  0x40\n    /* \"#utility.yul\":8474:8565   */\n  tag_175\n    /* \"#utility.yul\":8557:8564   */\n  dup8\n    /* \"#utility.yul\":8548:8554   */\n  dup3\n    /* \"#utility.yul\":8537:8546   */\n  dup9\n    /* \"#utility.yul\":8533:8555   */\n  add\n    /* \"#utility.yul\":8474:8565   */\n  tag_52\n  jump\t// in\ntag_175:\n    /* \"#utility.yul\":8464:8565   */\n  swap3\n  pop\n    /* \"#utility.yul\":8419:8575   */\n  pop\n    /* \"#utility.yul\":8614:8617   */\n  0xc0\n    /* \"#utility.yul\":8641:8705   */\n  tag_176\n    /* \"#utility.yul\":8697:8704   */\n  dup8\n    /* \"#utility.yul\":8688:8694   */\n  dup3\n    /* \"#utility.yul\":8677:8686   */\n  dup9\n    /* \"#utility.yul\":8673:8695   */\n  add\n    /* \"#utility.yul\":8641:8705   */\n  tag_34\n  jump\t// in\ntag_176:\n    /* \"#utility.yul\":8631:8705   */\n  swap2\n  pop\n    /* \"#utility.yul\":8585:8715   */\n  pop\n    /* \"#utility.yul\":7636:8722   */\n  swap3\n  swap6\n  swap2\n  swap5\n  pop\n  swap3\n  pop\n  jump\t// out\n    /* \"#utility.yul\":8728:8827   */\ntag_53:\n    /* \"#utility.yul\":8780:8786   */\n  0x00\n    /* \"#utility.yul\":8814:8819   */\n  dup2\n    /* \"#utility.yul\":8808:8820   */\n  mload\n    /* \"#utility.yul\":8798:8820   */\n  swap1\n  pop\n    /* \"#utility.yul\":8728:8827   */\n  swap2\n  swap1\n  pop\n  jump\t// out\n    /* \"#utility.yul\":8833:9013   */\ntag_54:\n    /* \"#utility.yul\":8881:8958   */\n  0x4e487b7100000000000000000000000000000000000000000000000000000000\n    /* \"#utility.yul\":8878:8879   */\n  0x00\n    /* \"#utility.yul\":8871:8959   */\n  mstore\n    /* \"#utility.yul\":8978:8982   */\n  0x22\n    /* \"#utility.yul\":8975:8976   */\n  0x04\n    /* \"#utility.yul\":8968:8983   */\n  mstore\n    /* \"#utility.yul\":9002:9006   */\n  0x24\n    /* \"#utility.yul\":8999:9000   */\n  0x00\n    /* \"#utility.yul\":8992:9007   */\n  revert\n    /* \"#utility.yul\":9019:9339   */\ntag_55:\n    /* \"#utility.yul\":9063:9069   */\n  0x00\n    /* \"#utility.yul\":9100:9101   */\n  0x02\n    /* \"#utility.yul\":9094:9098   */\n  dup3\n    /* \"#utility.yul\":9090:9102   */\n  div\n    /* \"#utility.yul\":9080:9102   */\n  swap1\n  pop\n    /* \"#utility.yul\":9147:9148   */\n  0x01\n    /* \"#utility.yul\":9141:9145   */\n  dup3\n    /* \"#utility.yul\":9137:9149   */\n  and\n    /* \"#utility.yul\":9168:9186   */\n  dup1\n    /* \"#utility.yul\":9158:9239   */\n  tag_180\n  jumpi\n    /* \"#utility.yul\":9224:9228   */\n  0x7f\n    /* \"#utility.yul\":9216:9222   */\n  dup3\n    /* \"#utility.yul\":9212:9229   */\n  and\n    /* \"#utility.yul\":9202:9229   */\n  swap2\n  pop\n    /* \"#utility.yul\":9158:9239   */\ntag_180:\n    /* \"#utility.yul\":9286:9288   */\n  0x20\n    /* \"#utility.yul\":9278:9284   */\n  dup3\n    /* \"#utility.yul\":9275:9289   */\n  lt\n    /* \"#utility.yul\":9255:9273   */\n  dup2\n    /* \"#utility.yul\":9252:9290   */\n  sub\n    /* \"#utility.yul\":9249:9333   */\n  tag_181\n  jumpi\n    /* \"#utility.yul\":9305:9323   */\n  tag_182\n  tag_54\n  jump\t// in\ntag_182:\n    /* \"#utility.yul\":9249:9333   */\ntag_181:\n    /* \"#utility.yul\":9070:9339   */\n  pop\n    /* \"#utility.yul\":9019:9339   */\n  swap2\n  swap1\n  pop\n  jump\t// out\n    /* \"#utility.yul\":9345:9486   */\ntag_56:\n    /* \"#utility.yul\":9394:9398   */\n  0x00\n    /* \"#utility.yul\":9417:9420   */\n  dup2\n    /* \"#utility.yul\":9409:9420   */\n  swap1\n  pop\n    /* \"#utility.yul\":9440:9443   */\n  dup2\n    /* \"#utility.yul\":9437:9438   */\n  0x00\n    /* \"#utility.yul\":9430:9444   */\n  mstore\n    /* \"#utility.yul\":9474:9478   */\n  0x20\n    /* \"#utility.yul\":9471:9472   */\n  0x00\n    /* \"#utility.yul\":9461:9479   */\n  keccak256\n    /* \"#utility.yul\":9453:9479   */\n  swap1\n  pop\n    /* \"#utility.yul\":9345:9486   */\n  swap2\n  swap1\n  pop\n  jump\t// out\n    /* \"#utility.yul\":9492:9585   */\ntag_57:\n    /* \"#utility.yul\":9529:9535   */\n  0x00\n    /* \"#utility.yul\":9576:9578   */\n  0x20\n    /* \"#utility.yul\":9571:9573   */\n  0x1f\n    /* \"#utility.yul\":9564:9569   */\n  dup4\n    /* \"#utility.yul\":9560:9574   */\n  add\n    /* \"#utility.yul\":9556:9579   */\n  div\n    /* \"#utility.yul\":9546:9579   */\n  swap1\n  pop\n    /* \"#utility.yul\":9492:9585   */\n  swap2\n  swap1\n  pop\n  jump\t// out\n    /* \"#utility.yul\":9591:9698   */\ntag_58:\n    /* \"#utility.yul\":9635:9643   */\n  0x00\n    /* \"#utility.yul\":9685:9690   */\n  dup3\n    /* \"#utility.yul\":9679:9683   */\n  dup3\n    /* \"#utility.yul\":9675:9691   */\n  shl\n    /* \"#utility.yul\":9654:9691   */\n  swap1\n  pop\n    /* \"#utility.yul\":9591:9698   */\n  swap3\n  swap2\n  pop\n  pop\n  jump\t// out\n    /* \"#utility.yul\":9704:10097   */\ntag_59:\n    /* \"#utility.yul\":9773:9779   */\n  0x00\n    /* \"#utility.yul\":9823:9824   */\n  0x08\n    /* \"#utility.yul\":9811:9821   */\n  dup4\n    /* \"#utility.yul\":9807:9825   */\n  mul\n    /* \"#utility.yul\":9846:9943   */\n  tag_187\n    /* \"#utility.yul\":9876:9942   */\n  0xffffffffffffffffffffffffffffffffffffffffffffffffffffffffffffffff\n    /* \"#utility.yul\":9865:9874   */\n  dup3\n    /* \"#utility.yul\":9846:9943   */\n  tag_58\n  jump\t// in\ntag_187:\n    /* \"#utility.yul\":9964:10003   */\n  tag_188\n    /* \"#utility.yul\":9994:10002   */\n  dup7\n    /* \"#utility.yul\":9983:9992   */\n  dup4\n    /* \"#utility.yul\":9964:10003   */\n  tag_58\n  jump\t// in\ntag_188:\n    /* \"#utility.yul\":9952:10003   */\n  swap6\n  pop\n    /* \"#utility.yul\":10036:10040   */\n  dup1\n    /* \"#utility.yul\":10032:10041   */\n  not\n    /* \"#utility.yul\":10025:10030   */\n  dup5\n    /* \"#utility.yul\":10021:10042   */\n  and\n    /* \"#utility.yul\":10012:10042   */\n  swap4\n  pop\n    /* \"#utility.yul\":10085:10089   */\n  dup1\n    /* \"#utility.yul\":10075:10083   */\n  dup7\n    /* \"#utility.yul\":10071:10090   */\n  and\n    /* \"#utility.yul\":10064:10069   */\n  dup5\n    /* \"#utility.yul\":10061:10091   */\n  or\n    /* \"#utility.yul\":10051:10091   */\n  swap3\n  pop\n    /* \"#utility.yul\":9780:10097   */\n  pop\n  pop\n    /* \"#utility.yul\":9704:10097   */\n  swap4\n  swap3\n  pop\n  pop\n  pop\n  jump\t// out\n    /* \"#utility.yul\":10103:10163   */\ntag_60:\n    /* \"#utility.yul\":10131:10134   */\n  0x00\n    /* \"#utility.yul\":10152:10157   */\n  dup2\n    /* \"#utility.yul\":10145:10157   */\n  swap1\n  pop\n    /* \"#utility.yul\":10103:10163   */\n  swap2\n  swap1\n  pop\n  jump\t// out\n    /* \"#utility.yul\":10169:10311   */\ntag_61:\n    /* \"#utility.yul\":10219:10228   */\n  0x00\n    /* \"#utility.yul\":10252:10305   */\n  tag_191\n    /* \"#utility.yul\":10270:10304   */\n  tag_192\n    /* \"#utility.yul\":10279:10303   */\n  tag_193\n    /* \"#utility.yul\":10297:10302   */\n  dup5\n    /* \"#utility.yul\":10279:10303   */\n  tag_40\n  jump\t// in\ntag_193:\n    /* \"#utility.yul\":10270:10304   */\n  tag_60\n  jump\t// in\ntag_192:\n    /* \"#utility.yul\":10252:10305   */\n  tag_40\n  jump\t// in\ntag_191:\n    /* \"#utility.yul\":10239:10305   */\n  swap1\n  pop\n    /* \"#utility.yul\":10169:10311   */\n  swap2\n  swap1\n  pop\n  jump\t// out\n    /* \"#utility.yul\":10317:10392   */\ntag_62:\n    /* \"#utility.yul\":10360:10363   */\n  0x00\n    /* \"#utility.yul\":10381:10386   */\n  dup2\n    /* \"#utility.yul\":10374:10386   */\n  swap1\n  pop\n    /* \"#utility.yul\":10317:10392   */\n  swap2\n  swap1\n  pop\n  jump\t// out\n    /* \"#utility.yul\":10398:10667   */\ntag_63:\n    /* \"#utility.yul\":10508:10547   */\n  tag_196\n    /* \"#utility.yul\":10539:10546   */\n  dup4\n    /* \"#utility.yul\":10508:10547   */\n  tag_61\n  jump\t// in\ntag_196:\n    /* \"#utility.yul\":10569:10660   */\n  tag_197\n    /* \"#utility.yul\":10618:10659   */\n  tag_198\n    /* \"#utility.yul\":10642:10658   */\n  dup3\n    /* \"#utility.yul\":10618:10659   */\n  tag_62\n  jump\t// in\ntag_198:\n    /* \"#utility.yul\":10610:10616   */\n  dup5\n    /* \"#utility.yul\":10603:10607   */\n  dup5\n    /* \"#utility.yul\":10597:10608   */\n  sload\n    /* \"#utility.yul\":10569:10660   */\n  tag_59\n  jump\t// in\ntag_197:\n    /* \"#utility.yul\":10563:10567   */\n  dup3\n    /* \"#utility.yul\":10556:10661   */\n  sstore\n    /* \"#utility.yul\":10474:10667   */\n  pop\n    /* \"#utility.yul\":10398:10667   */\n  pop\n  pop\n  pop\n  jump\t// out\n    /* \"#utility.yul\":10673:10746   */\ntag_64:\n    /* \"#utility.yul\":10718:10721   */\n  0x00\n    /* \"#utility.yul\":10673:10746   */\n  swap1\n  jump\t// out\n    /* \"#utility.yul\":10752:10941   */\ntag_65:\n    /* \"#utility.yul\":10829:10861   */\n  tag_201\n  tag_64\n  jump\t// in\ntag_201:\n    /* \"#utility.yul\":10870:10935   */\n  tag_202\n    /* \"#utility.yul\":10928:10934   */\n  dup2\n    /* \"#utility.yul\":10920:10926   */\n  dup5\n    /* \"#utility.yul\":10914:10918   */\n  dup5\n    /* \"#utility.yul\":10870:10935   */\n  tag_63\n  jump\t// in\ntag_202:\n    /* \"#utility.yul\":10805:10941   */\n  pop\n    /* \"#utility.yul\":10752:10941   */\n  pop\n  pop\n  jump\t// out\n    /* \"#utility.yul\":10947:11133   */\ntag_66:\n    /* \"#utility.yul\":11007:11127   */\ntag_204:\n    /* \"#utility.yul\":11024:11027   */\n  dup2\n    /* \"#utility.yul\":11017:11022   */\n  dup2\n    /* \"#utility.yul\":11014:11028   */\n  lt\n    /* \"#utility.yul\":11007:11127   */\n  iszero\n  tag_206\n  jumpi\n    /* \"#utility.yul\":11078:11117   */\n  tag_207\n    /* \"#utility.yul\":11115:11116   */\n  0x00\n    /* \"#utility.yul\":11108:11113   */\n  dup3\n    /* \"#utility.yul\":11078:11117   */\n  tag_65\n  jump\t// in\ntag_207:\n    /* \"#utility.yul\":11051:11052   */\n  0x01\n    /* \"#utility.yul\":11044:11049   */\n  dup2\n    /* \"#utility.yul\":11040:11053   */\n  add\n    /* \"#utility.yul\":11031:11053   */\n  swap1\n  pop\n    /* \"#utility.yul\":11007:11127   */\n  jump(tag_204)\ntag_206:\n    /* \"#utility.yul\":10947:11133   */\n  pop\n  pop\n  jump\t// out\n    /* \"#utility.yul\":11139:11682   */\ntag_67:\n    /* \"#utility.yul\":11240:11242   */\n  0x1f\n    /* \"#utility.yul\":11235:11238   */\n  dup3\n    /* \"#utility.yul\":11232:11243   */\n  gt\n    /* \"#utility.yul\":11229:11675   */\n  iszero\n  tag_209\n  jumpi\n    /* \"#utility.yul\":11274:11312   */\n  tag_210\n    /* \"#utility.yul\":11306:11311   */\n  dup2\n    /* \"#utility.yul\":11274:11312   */\n  tag_56\n  jump\t// in\ntag_210:\n    /* \"#utility.yul\":11358:11387   */\n  tag_211\n    /* \"#utility.yul\":11376:11386   */\n  dup5\n    /* \"#utility.yul\":11358:11387   */\n  tag_57\n  jump\t// in\ntag_211:\n    /* \"#utility.yul\":11348:11356   */\n  dup2\n    /* \"#utility.yul\":11344:11388   */\n  add\n    /* \"#utility.yul\":11541:11543   */\n  0x20\n    /* \"#utility.yul\":11529:11539   */\n  dup6\n    /* \"#utility.yul\":11526:11544   */\n  lt\n    /* \"#utility.yul\":11523:11572   */\n  iszero\n  tag_212\n  jumpi\n    /* \"#utility.yul\":11562:11570   */\n  dup2\n    /* \"#utility.yul\":11547:11570   */\n  swap1\n  pop\n    /* \"#utility.yul\":11523:11572   */\ntag_212:\n    /* \"#utility.yul\":11585:11665   */\n  tag_213\n    /* \"#utility.yul\":11641:11663   */\n  tag_214\n    /* \"#utility.yul\":11659:11662   */\n  dup6\n    /* \"#utility.yul\":11641:11663   */\n  tag_57\n  jump\t// in\ntag_214:\n    /* \"#utility.yul\":11631:11639   */\n  dup4\n    /* \"#utility.yul\":11627:11664   */\n  add\n    /* \"#utility.yul\":11614:11625   */\n  dup3\n    /* \"#utility.yul\":11585:11665   */\n  tag_66\n  jump\t// in\ntag_213:\n    /* \"#utility.yul\":11244:11675   */\n  pop\n  pop\n    /* \"#utility.yul\":11229:11675   */\ntag_209:\n    /* \"#utility.yul\":11139:11682   */\n  pop\n  pop\n  pop\n  jump\t// out\n    /* \"#utility.yul\":11688:11805   */\ntag_68:\n    /* \"#utility.yul\":11742:11750   */\n  0x00\n    /* \"#utility.yul\":11792:11797   */\n  dup3\n    /* \"#utility.yul\":11786:11790   */\n  dup3\n    /* \"#utility.yul\":11782:11798   */\n  shr\n    /* \"#utility.yul\":11761:11798   */\n  swap1\n  pop\n    /* \"#utility.yul\":11688:11805   */\n  swap3\n  swap2\n  pop\n  pop\n  jump\t// out\n    /* \"#utility.yul\":11811:11980   */\ntag_69:\n    /* \"#utility.yul\":11855:11861   */\n  0x00\n    /* \"#utility.yul\":11888:11939   */\n  tag_217\n    /* \"#utility.yul\":11936:11937   */\n  0x00\n    /* \"#utility.yul\":11932:11938   */\n  not\n    /* \"#utility.yul\":11924:11929   */\n  dup5\n    /* \"#utility.yul\":11921:11922   */\n  0x08\n    /* \"#utility.yul\":11917:11930   */\n  mul\n    /* \"#utility.yul\":11888:11939   */\n  tag_68\n  jump\t// in\ntag_217:\n    /* \"#utility.yul\":11884:11940   */\n  not\n    /* \"#utility.yul\":11969:11973   */\n  dup1\n    /* \"#utility.yul\":11963:11967   */\n  dup4\n    /* \"#utility.yul\":11959:11974   */\n  and\n    /* \"#utility.yul\":11949:11974   */\n  swap2\n  pop\n    /* \"#utility.yul\":11862:11980   */\n  pop\n    /* \"#utility.yul\":11811:11980   */\n  swap3\n  swap2\n  pop\n  pop\n  jump\t// out\n    /* \"#utility.yul\":11985:12280   */\ntag_70:\n    /* \"#utility.yul\":12061:12065   */\n  0x00\n    /* \"#utility.yul\":12207:12236   */\n  tag_219\n    /* \"#utility.yul\":12232:12235   */\n  dup4\n    /* \"#utility.yul\":12226:12230   */\n  dup4\n    /* \"#utility.yul\":12207:12236   */\n  tag_69\n  jump\t// in\ntag_219:\n    /* \"#utility.yul\":12199:12236   */\n  swap2\n  pop\n    /* \"#utility.yul\":12269:12272   */\n  dup3\n    /* \"#utility.yul\":12266:12267   */\n  0x02\n    /* \"#utility.yul\":12262:12273   */\n  mul\n    /* \"#utility.yul\":12256:12260   */\n  dup3\n    /* \"#utility.yul\":12253:12274   */\n  or\n    /* \"#utility.yul\":12245:12274   */\n  swap1\n  pop\n    /* \"#utility.yul\":11985:12280   */\n  swap3\n  swap2\n  pop\n  pop\n  jump\t// out\n    /* \"#utility.yul\":12285:13680   */\ntag_7:\n    /* \"#utility.yul\":12402:12439   */\n  tag_221\n    /* \"#utility.yul\":12435:12438   */\n  dup3\n    /* \"#utility.yul\":12402:12439   */\n  tag_53\n  jump\t// in\ntag_221:\n    /* \"#utility.yul\":12504:12522   */\n  0xffffffffffffffff\n    /* \"#utility.yul\":12496:12502   */\n  dup2\n    /* \"#utility.yul\":12493:12523   */\n  gt\n    /* \"#utility.yul\":12490:12546   */\n  iszero\n  tag_222\n  jumpi\n    /* \"#utility.yul\":12526:12544   */\n  tag_223\n  tag_22\n  jump\t// in\ntag_223:\n    /* \"#utility.yul\":12490:12546   */\ntag_222:\n    /* \"#utility.yul\":12570:12608   */\n  tag_224\n    /* \"#utility.yul\":12602:12606   */\n  dup3\n    /* \"#utility.yul\":12596:12607   */\n  sload\n    /* \"#utility.yul\":12570:12608   */\n  tag_55\n  jump\t// in\ntag_224:\n    /* \"#utility.yul\":12655:12722   */\n  tag_225\n    /* \"#utility.yul\":12715:12721   */\n  dup3\n    /* \"#utility.yul\":12707:12713   */\n  dup3\n    /* \"#utility.yul\":12701:12705   */\n  dup6\n    /* \"#utility.yul\":12655:12722   */\n  tag_67\n  jump\t// in\ntag_225:\n    /* \"#utility.yul\":12749:12750   */\n  0x00\n    /* \"#utility.yul\":12773:12777   */\n  0x20\n    /* \"#utility.yul\":12760:12777   */\n  swap1\n  pop\n    /* \"#utility.yul\":12805:12807   */\n  0x1f\n    /* \"#utility.yul\":12797:12803   */\n  dup4\n    /* \"#utility.yul\":12794:12808   */\n  gt\n    /* \"#utility.yul\":12822:12823   */\n  0x01\n    /* \"#utility.yul\":12817:13435   */\n  dup2\n  eq\n  tag_227\n  jumpi\n    /* \"#utility.yul\":13479:13480   */\n  0x00\n    /* \"#utility.yul\":13496:13502   */\n  dup5\n    /* \"#utility.yul\":13493:13570   */\n  iszero\n  tag_228\n  jumpi\n    /* \"#utility.yul\":13545:13554   */\n  dup3\n    /* \"#utility.yul\":13540:13543   */\n  dup8\n    /* \"#utility.yul\":13536:13555   */\n  add\n    /* \"#utility.yul\":13530:13556   */\n  mload\n    /* \"#utility.yul\":13521:13556   */\n  swap1\n  pop\n    /* \"#utility.yul\":13493:13570   */\ntag_228:\n    /* \"#utility.yul\":13596:13663   */\n  tag_229\n    /* \"#utility.yul\":13656:13662   */\n  dup6\n    /* \"#utility.yul\":13649:13654   */\n  dup3\n    /* \"#utility.yul\":13596:13663   */\n  tag_70\n  jump\t// in\ntag_229:\n    /* \"#utility.yul\":13590:13594   */\n  dup7\n    /* \"#utility.yul\":13583:13664   */\n  sstore\n    /* \"#utility.yul\":13452:13674   */\n  pop\n    /* \"#utility.yul\":12787:13674   */\n  jump(tag_226)\n    /* \"#utility.yul\":12817:13435   */\ntag_227:\n    /* \"#utility.yul\":12869:12873   */\n  0x1f\n    /* \"#utility.yul\":12865:12874   */\n  not\n    /* \"#utility.yul\":12857:12863   */\n  dup5\n    /* \"#utility.yul\":12853:12875   */\n  and\n    /* \"#utility.yul\":12903:12940   */\n  tag_230\n    /* \"#utility.yul\":12935:12939   */\n  dup7\n    /* \"#utility.yul\":12903:12940   */\n  tag_56\n  jump\t// in\ntag_230:\n    /* \"#utility.yul\":12962:12963   */\n  0x00\n    /* \"#utility.yul\":12976:13184   */\ntag_231:\n    /* \"#utility.yul\":12990:12997   */\n  dup3\n    /* \"#utility.yul\":12987:12988   */\n  dup2\n    /* \"#utility.yul\":12984:12998   */\n  lt\n    /* \"#utility.yul\":12976:13184   */\n  iszero\n  tag_233\n  jumpi\n    /* \"#utility.yul\":13069:13078   */\n  dup5\n    /* \"#utility.yul\":13064:13067   */\n  dup10\n    /* \"#utility.yul\":13060:13079   */\n  add\n    /* \"#utility.yul\":13054:13080   */\n  mload\n    /* \"#utility.yul\":13046:13052   */\n  dup3\n    /* \"#utility.yul\":13039:13081   */\n  sstore\n    /* \"#utility.yul\":13120:13121   */\n  0x01\n    /* \"#utility.yul\":13112:13118   */\n  dup3\n    /* \"#utility.yul\":13108:13122   */\n  add\n    /* \"#utility.yul\":13098:13122   */\n  swap2\n  pop\n    /* \"#utility.yul\":13167:13169   */\n  0x20\n    /* \"#utility.yul\":13156:13165   */\n  dup6\n    /* \"#utility.yul\":13152:13170   */\n  add\n    /* \"#utility.yul\":13139:13170   */\n  swap5\n  pop\n    /* \"#utility.yul\":13013:13017   */\n  0x20\n    /* \"#utility.yul\":13010:13011   */\n  dup2\n    /* \"#utility.yul\":13006:13018   */\n  add\n    /* \"#utility.yul\":13001:13018   */\n  swap1\n  pop\n    /* \"#utility.yul\":12976:13184   */\n  jump(tag_231)\ntag_233:\n    /* \"#utility.yul\":13212:13218   */\n  dup7\n    /* \"#utility.yul\":13203:13210   */\n  dup4\n    /* \"#utility.yul\":13200:13219   */\n  lt\n    /* \"#utility.yul\":13197:13376   */\n  iszero\n  tag_234\n  jumpi\n    /* \"#utility.yul\":13270:13279   */\n  dup5\n    /* \"#utility.yul\":13265:13268   */\n  dup10\n    /* \"#utility.yul\":13261:13280   */\n  add\n    /* \"#utility.yul\":13255:13281   */\n  mload\n    /* \"#utility.yul\":13313:13361   */\n  tag_235\n    /* \"#utility.yul\":13355:13359   */\n  0x1f\n    /* \"#utility.yul\":13347:13353   */\n  dup10\n    /* \"#utility.yul\":13343:13360   */\n  and\n    /* \"#utility.yul\":13332:13341   */\n  dup3\n    /* \"#utility.yul\":13313:13361   */\n  tag_69\n  jump\t// in\ntag_235:\n    /* \"#utility.yul\":13305:13311   */\n  dup4\n    /* \"#utility.yul\":13298:13362   */\n  sstore\n    /* \"#utility.yul\":13220:13376   */\n  pop\n    /* \"#utility.yul\":13197:13376   */\ntag_234:\n    /* \"#utility.yul\":13422:13423   */\n  0x01\n    /* \"#utility.yul\":13418:13419   */\n  0x02\n    /* \"#utility.yul\":13410:13416   */\n  dup9\n    /* \"#utility.yul\":13406:13420   */\n  mul\n    /* \"#utility.yul\":13402:13424   */\n  add\n    /* \"#utility.yul\":13396:13400   */\n  dup9\n    /* \"#utility.yul\":13389:13425   */\n  sstore\n    /* \"#utility.yul\":12824:13435   */\n  pop\n  pop\n  pop\n    /* \"#utility.yul\":12787:13674   */\ntag_226:\n  pop\n    /* \"#utility.yul\":12377:13680   */\n  pop\n  pop\n  pop\n    /* \"#utility.yul\":12285:13680   */\n  pop\n  pop\n  jump\t// out\n    /* \"#utility.yul\":13686:13855   */\ntag_71:\n    /* \"#utility.yul\":13770:13781   */\n  0x00\n    /* \"#utility.yul\":13804:13810   */\n  dup3\n    /* \"#utility.yul\":13799:13802   */\n  dup3\n    /* \"#utility.yul\":13792:13811   */\n  mstore\n    /* \"#utility.yul\":13844:13848   */\n  0x20\n    /* \"#utility.yul\":13839:13842   */\n  dup3\n    /* \"#utility.yul\":13835:13849   */\n  add\n    /* \"#utility.yul\":13820:13849   */\n  swap1\n  pop\n    /* \"#utility.yul\":13686:13855   */\n  swap3\n  swap2\n  pop\n  pop\n  jump\t// out\n    /* \"#utility.yul\":13885:14716   */\ntag_72:\n    /* \"#utility.yul\":13970:13973   */\n  0x00\n    /* \"#utility.yul\":14007:14012   */\n  dup2\n    /* \"#utility.yul\":14001:14013   */\n  sload\n    /* \"#utility.yul\":14036:14072   */\n  tag_238\n    /* \"#utility.yul\":14062:14071   */\n  dup2\n    /* \"#utility.yul\":14036:14072   */\n  tag_55\n  jump\t// in\ntag_238:\n    /* \"#utility.yul\":14088:14159   */\n  tag_239\n    /* \"#utility.yul\":14152:14158   */\n  dup2\n    /* \"#utility.yul\":14147:14150   */\n  dup7\n    /* \"#utility.yul\":14088:14159   */\n  tag_71\n  jump\t// in\ntag_239:\n    /* \"#utility.yul\":14081:14159   */\n  swap5\n  pop\n    /* \"#utility.yul\":14190:14191   */\n  0x01\n    /* \"#utility.yul\":14179:14188   */\n  dup3\n    /* \"#utility.yul\":14175:14192   */\n  and\n    /* \"#utility.yul\":14206:14207   */\n  0x00\n    /* \"#utility.yul\":14201:14365   */\n  dup2\n  eq\n  tag_241\n  jumpi\n    /* \"#utility.yul\":14379:14380   */\n  0x01\n    /* \"#utility.yul\":14374:14710   */\n  dup2\n  eq\n  tag_242\n  jumpi\n    /* \"#utility.yul\":14168:14710   */\n  jump(tag_240)\n    /* \"#utility.yul\":14201:14365   */\ntag_241:\n    /* \"#utility.yul\":14285:14289   */\n  0xff\n    /* \"#utility.yul\":14281:14290   */\n  not\n    /* \"#utility.yul\":14270:14279   */\n  dup4\n    /* \"#utility.yul\":14266:14291   */\n  and\n    /* \"#utility.yul\":14261:14264   */\n  dup7\n    /* \"#utility.yul\":14254:14292   */\n  mstore\n    /* \"#utility.yul\":14345:14351   */\n  dup2\n    /* \"#utility.yul\":14338:14352   */\n  iszero\n    /* \"#utility.yul\":14331:14353   */\n  iszero\n    /* \"#utility.yul\":14325:14329   */\n  0x20\n    /* \"#utility.yul\":14321:14354   */\n  mul\n    /* \"#utility.yul\":14316:14319   */\n  dup7\n    /* \"#utility.yul\":14312:14355   */\n  add\n    /* \"#utility.yul\":14305:14355   */\n  swap4\n  pop\n    /* \"#utility.yul\":14201:14365   */\n  jump(tag_240)\n    /* \"#utility.yul\":14374:14710   */\ntag_242:\n    /* \"#utility.yul\":14441:14479   */\n  tag_243\n    /* \"#utility.yul\":14473:14478   */\n  dup6\n    /* \"#utility.yul\":14441:14479   */\n  tag_56\n  jump\t// in\ntag_243:\n    /* \"#utility.yul\":14501:14502   */\n  0x00\n    /* \"#utility.yul\":14515:14669   */\ntag_244:\n    /* \"#utility.yul\":14529:14535   */\n  dup4\n    /* \"#utility.yul\":14526:14527   */\n  dup2\n    /* \"#utility.yul\":14523:14536   */\n  lt\n    /* \"#utility.yul\":14515:14669   */\n  iszero\n  tag_246\n  jumpi\n    /* \"#utility.yul\":14603:14610   */\n  dup2\n    /* \"#utility.yul\":14597:14611   */\n  sload\n    /* \"#utility.yul\":14593:14594   */\n  dup2\n    /* \"#utility.yul\":14588:14591   */\n  dup10\n    /* \"#utility.yul\":14584:14595   */\n  add\n    /* \"#utility.yul\":14577:14612   */\n  mstore\n    /* \"#utility.yul\":14653:14654   */\n  0x01\n    /* \"#utility.yul\":14644:14651   */\n  dup3\n    /* \"#utility.yul\":14640:14655   */\n  add\n    /* \"#utility.yul\":14629:14655   */\n  swap2\n  pop\n    /* \"#utility.yul\":14551:14555   */\n  0x20\n    /* \"#utility.yul\":14548:14549   */\n  dup2\n    /* \"#utility.yul\":14544:14556   */\n  add\n    /* \"#utility.yul\":14539:14556   */\n  swap1\n  pop\n    /* \"#utility.yul\":14515:14669   */\n  jump(tag_244)\ntag_246:\n    /* \"#utility.yul\":14698:14699   */\n  dup1\n    /* \"#utility.yul\":14693:14696   */\n  dup9\n    /* \"#utility.yul\":14689:14700   */\n  add\n    /* \"#utility.yul\":14682:14700   */\n  swap6\n  pop\n    /* \"#utility.yul\":14381:14710   */\n  pop\n  pop\n    /* \"#utility.yul\":14168:14710   */\ntag_240:\n  pop\n    /* \"#utility.yul\":13974:14716   */\n  pop\n  pop\n    /* \"#utility.yul\":13885:14716   */\n  swap3\n  swap2\n  pop\n  pop\n  jump\t// out\n    /* \"#utility.yul\":14722:15029   */\ntag_10:\n    /* \"#utility.yul\":14832:14836   */\n  0x00\n    /* \"#utility.yul\":14870:14872   */\n  0x20\n    /* \"#utility.yul\":14859:14868   */\n  dup3\n    /* \"#utility.yul\":14855:14873   */\n  add\n    /* \"#utility.yul\":14847:14873   */\n  swap1\n  pop\n    /* \"#utility.yul\":14919:14928   */\n  dup2\n    /* \"#utility.yul\":14913:14917   */\n  dup2\n    /* \"#utility.yul\":14909:14929   */\n  sub\n    /* \"#utility.yul\":14905:14906   */\n  0x00\n    /* \"#utility.yul\":14894:14903   */\n  dup4\n    /* \"#utility.yul\":14890:14907   */\n  add\n    /* \"#utility.yul\":14883:14930   */\n  mstore\n    /* \"#utility.yul\":14947:15022   */\n  tag_248\n    /* \"#utility.yul\":15017:15021   */\n  dup2\n    /* \"#utility.yul\":15008:15014   */\n  dup5\n    /* \"#utility.yul\":14947:15022   */\n  tag_72\n  jump\t// in\ntag_248:\n    /* \"#utility.yul\":14939:15022   */\n  swap1\n  pop\n    /* \"#utility.yul\":14722:15029   */\n  swap3\n  swap2\n  pop\n  pop\n  jump\t// out\n    /* \"#utility.yul\":15035:15153   */\ntag_73:\n    /* \"#utility.yul\":15122:15146   */\n  tag_250\n    /* \"#utility.yul\":15140:15145   */\n  dup2\n    /* \"#utility.yul\":15122:15146   */\n  tag_36\n  jump\t// in\ntag_250:\n    /* \"#utility.yul\":15117:15120   */\n  dup3\n    /* \"#utility.yul\":15110:15147   */\n  mstore\n    /* \"#utility.yul\":15035:15153   */\n  pop\n  pop\n  jump\t// out\n    /* \"#utility.yul\":15159:15381   */\ntag_13:\n    /* \"#utility.yul\":15252:15256   */\n  0x00\n    /* \"#utility.yul\":15290:15292   */\n  0x20\n    /* \"#utility.yul\":15279:15288   */\n  dup3\n    /* \"#utility.yul\":15275:15293   */\n  add\n    /* \"#utility.yul\":15267:15293   */\n  swap1\n  pop\n    /* \"#utility.yul\":15303:15374   */\n  tag_252\n    /* \"#utility.yul\":15371:15372   */\n  0x00\n    /* \"#utility.yul\":15360:15369   */\n  dup4\n    /* \"#utility.yul\":15356:15373   */\n  add\n    /* \"#utility.yul\":15347:15353   */\n  dup5\n    /* \"#utility.yul\":15303:15374   */\n  tag_73\n  jump\t// in\ntag_252:\n    /* \"#utility.yul\":15159:15381   */\n  swap3\n  swap2\n  pop\n  pop\n  jump\t// out\n    /* \"#utility.yul\":15387:15567   */\ntag_74:\n    /* \"#utility.yul\":15435:15512   */\n  0x4e487b7100000000000000000000000000000000000000000000000000000000\n    /* \"#utility.yul\":15432:15433   */\n  0x00\n    /* \"#utility.yul\":15425:15513   */\n  mstore\n    /* \"#utility.yul\":15532:15536   */\n  0x11\n    /* \"#utility.yul\":15529:15530   */\n  0x04\n    /* \"#utility.yul\":15522:15537   */\n  mstore\n    /* \"#utility.yul\":15556:15560   */\n  0x24\n    /* \"#utility.yul\":15553:15554   */\n  0x00\n    /* \"#utility.yul\":15546:15561   */\n  revert\n    /* \"#utility.yul\":15573:15774   */\ntag_15:\n    /* \"#utility.yul\":15612:15615   */\n  0x00\n    /* \"#utility.yul\":15631:15650   */\n  tag_255\n    /* \"#utility.yul\":15648:15649   */\n  dup3\n    /* \"#utility.yul\":15631:15650   */\n  tag_49\n  jump\t// in\ntag_255:\n    /* \"#utility.yul\":15626:15650   */\n  swap2\n  pop\n    /* \"#utility.yul\":15664:15683   */\n  tag_256\n    /* \"#utility.yul\":15681:15682   */\n  dup4\n    /* \"#utility.yul\":15664:15683   */\n  tag_49\n  jump\t// in\ntag_256:\n    /* \"#utility.yul\":15659:15683   */\n  swap3\n  pop\n    /* \"#utility.yul\":15706:15707   */\n  dup3\n    /* \"#utility.yul\":15703:15704   */\n  dup3\n    /* \"#utility.yul\":15699:15708   */\n  add\n    /* \"#utility.yul\":15692:15708   */\n  swap1\n  pop\n    /* \"#utility.yul\":15729:15743   */\n  0xffffffffffff\n    /* \"#utility.yul\":15724:15727   */\n  dup2\n    /* \"#utility.yul\":15721:15744   */\n  gt\n    /* \"#utility.yul\":15718:15767   */\n  iszero\n  tag_257\n  jumpi\n    /* \"#utility.yul\":15747:15765   */\n  tag_258\n  tag_74\n  jump\t// in\ntag_258:\n    /* \"#utility.yul\":15718:15767   */\ntag_257:\n    /* \"#utility.yul\":15573:15774   */\n  swap3\n  swap2\n  pop\n  pop\n  jump\t// out\n    /* \"contracts/3_Ballot.sol\":327:9610  contract BallotTCN {... */\ntag_16:\n  dataSize(sub_0)\n  dup1\n  dataOffset(sub_0)\n  0x00\n  codecopy\n  0x00\n  return\nstop\n\nsub_0: assembly {\n        /* \"contracts/3_Ballot.sol\":327:9610  contract BallotTCN {... */\n      mstore(0x40, 0x80)\n      callvalue\n      dup1\n      iszero\n      tag_1\n      jumpi\n      0x00\n      dup1\n      revert\n    tag_1:\n      pop\n      jumpi(tag_2, lt(calldatasize, 0x04))\n      shr(0xe0, calldataload(0x00))\n      dup1\n      0x85227e51\n      gt\n      tag_16\n      jumpi\n      dup1\n      0xcfb62dee\n      gt\n      tag_17\n      jumpi\n      dup1\n      0xcfb62dee\n      eq\n      tag_12\n      jumpi\n      dup1\n      0xec5bf07b\n      eq\n      tag_13\n      jumpi\n      dup1\n      0xee26a38a\n      eq\n      tag_14\n      jumpi\n      dup1\n      0xf8b1b08a\n      eq\n      tag_15\n      jumpi\n      jump(tag_2)\n    tag_17:\n      dup1\n      0x85227e51\n      eq\n      tag_9\n      jumpi\n      dup1\n      0xb3a05246\n      eq\n      tag_10\n      jumpi\n      dup1\n      0xbc33c7d7\n      eq\n      tag_11\n      jumpi\n      jump(tag_2)\n    tag_16:\n      dup1\n      0x41617c8f\n      eq\n      tag_3\n      jumpi\n      dup1\n      0x4731ca2b\n      eq\n      tag_4\n      jumpi\n      dup1\n      0x4b9f5c98\n      eq\n      tag_5\n      jumpi\n      dup1\n      0x5c19a95c\n      eq\n      tag_6\n      jumpi\n      dup1\n      0x5f8d96de\n      eq\n      tag_7\n      jumpi\n      dup1\n      0x81c4787b\n      eq\n      tag_8\n      jumpi\n    tag_2:\n      0x00\n      dup1\n      revert\n        /* \"contracts/3_Ballot.sol\":4772:4879  function getvote(address voter_) public view returns (Voter memory) {... */\n    tag_3:\n      tag_18\n      0x04\n      dup1\n      calldatasize\n      sub\n      dup2\n      add\n      swap1\n      tag_19\n      swap2\n      swap1\n      tag_20\n      jump\t// in\n    tag_19:\n      tag_21\n      jump\t// in\n    tag_18:\n      mload(0x40)\n      tag_22\n      swap2\n      swap1\n      tag_23\n      jump\t// in\n    tag_22:\n      mload(0x40)\n      dup1\n      swap2\n      sub\n      swap1\n      return\n        /* \"contracts/3_Ballot.sol\":3637:3817  function getBallotProposalParams() public view returns (address, address, uint256) {... */\n    tag_4:\n      tag_24\n      tag_25\n      jump\t// in\n    tag_24:\n      mload(0x40)\n      tag_26\n      swap4\n      swap3\n      swap2\n      swap1\n      tag_27\n      jump\t// in\n    tag_26:\n      mload(0x40)\n      dup1\n      swap2\n      sub\n      swap1\n      return\n        /* \"contracts/3_Ballot.sol\":7353:8142  function vote(bool opinion_) public {... */\n    tag_5:\n      tag_28\n      0x04\n      dup1\n      calldatasize\n      sub\n      dup2\n      add\n      swap1\n      tag_29\n      swap2\n      swap1\n      tag_30\n      jump\t// in\n    tag_29:\n      tag_31\n      jump\t// in\n    tag_28:\n      stop\n        /* \"contracts/3_Ballot.sol\":6029:7207  function delegate(address to) public {... */\n    tag_6:\n      tag_32\n      0x04\n      dup1\n      calldatasize\n      sub\n      dup2\n      add\n      swap1\n      tag_33\n      swap2\n      swap1\n      tag_20\n      jump\t// in\n    tag_33:\n      tag_34\n      jump\t// in\n    tag_32:\n      stop\n        /* \"contracts/3_Ballot.sol\":4680:4766  function getDeadline() public view returns (uint256) {... */\n    tag_7:\n      tag_35\n      tag_36\n      jump\t// in\n    tag_35:\n      mload(0x40)\n      tag_37\n      swap2\n      swap1\n      tag_38\n      jump\t// in\n    tag_37:\n      mload(0x40)\n      dup1\n      swap2\n      sub\n      swap1\n      return\n        /* \"contracts/3_Ballot.sol\":1319:1350  BALLOtPARAM public _ballotParam */\n    tag_8:\n      tag_39\n      tag_40\n      jump\t// in\n    tag_39:\n      mload(0x40)\n      tag_41\n      swap4\n      swap3\n      swap2\n      swap1\n      tag_42\n      jump\t// in\n    tag_41:\n      mload(0x40)\n      dup1\n      swap2\n      sub\n      swap1\n      return\n        /* \"contracts/3_Ballot.sol\":4885:5246  function getVoterOpinion(address voter_) public view returns (bool opinion_) {... */\n    tag_9:\n      tag_43\n      0x04\n      dup1\n      calldatasize\n      sub\n      dup2\n      add\n      swap1\n      tag_44\n      swap2\n      swap1\n      tag_20\n      jump\t// in\n    tag_44:\n      tag_45\n      jump\t// in\n    tag_43:\n      mload(0x40)\n      tag_46\n      swap2\n      swap1\n      tag_47\n      jump\t// in\n    tag_46:\n      mload(0x40)\n      dup1\n      swap2\n      sub\n      swap1\n      return\n        /* \"contracts/3_Ballot.sol\":3823:4034  function getBalootVotingParams() public view returns (uint16, uint32, uint48, uint48) {... */\n    tag_10:\n      tag_48\n      tag_49\n      jump\t// in\n    tag_48:\n      mload(0x40)\n      tag_50\n      swap5\n      swap4\n      swap3\n      swap2\n      swap1\n      tag_51\n      jump\t// in\n    tag_50:\n      mload(0x40)\n      dup1\n      swap2\n      sub\n      swap1\n      return\n        /* \"contracts/3_Ballot.sol\":3389:3631  function getBallotCallDataParams() public view returns (string memory, string memory, bytes32, address) {... */\n    tag_11:\n      tag_52\n      tag_53\n      jump\t// in\n    tag_52:\n      mload(0x40)\n      tag_54\n      swap5\n      swap4\n      swap3\n      swap2\n      swap1\n      tag_55\n      jump\t// in\n    tag_54:\n      mload(0x40)\n      dup1\n      swap2\n      sub\n      swap1\n      return\n        /* \"contracts/3_Ballot.sol\":8318:8648  function votingResult() public returns (bool) {... */\n    tag_12:\n      tag_56\n      tag_57\n      jump\t// in\n    tag_56:\n      mload(0x40)\n      tag_58\n      swap2\n      swap1\n      tag_47\n      jump\t// in\n    tag_58:\n      mload(0x40)\n      dup1\n      swap2\n      sub\n      swap1\n      return\n        /* \"contracts/3_Ballot.sol\":4250:4482  function getBallotProposalId() public view returns (uint256 proposalId) {... */\n    tag_13:\n      tag_59\n      tag_60\n      jump\t// in\n    tag_59:\n      mload(0x40)\n      tag_61\n      swap2\n      swap1\n      tag_38\n      jump\t// in\n    tag_61:\n      mload(0x40)\n      dup1\n      swap2\n      sub\n      swap1\n      return\n        /* \"contracts/3_Ballot.sol\":4488:4674  function getBallotParam() public view returns (bytes32 name, uint16 voteCount, uint16 observed) {... */\n    tag_14:\n      tag_62\n      tag_63\n      jump\t// in\n    tag_62:\n      mload(0x40)\n      tag_64\n      swap4\n      swap3\n      swap2\n      swap1\n      tag_42\n      jump\t// in\n    tag_64:\n      mload(0x40)\n      dup1\n      swap2\n      sub\n      swap1\n      return\n        /* \"contracts/3_Ballot.sol\":4040:4244  function getBallotCallData() public view virtual  returns (bytes memory callData) {... */\n    tag_15:\n      tag_65\n      tag_66\n      jump\t// in\n    tag_65:\n      mload(0x40)\n      tag_67\n      swap2\n      swap1\n      tag_68\n      jump\t// in\n    tag_67:\n      mload(0x40)\n      dup1\n      swap2\n      sub\n      swap1\n      return\n        /* \"contracts/3_Ballot.sol\":4772:4879  function getvote(address voter_) public view returns (Voter memory) {... */\n    tag_21:\n        /* \"contracts/3_Ballot.sol\":4826:4838  Voter memory */\n      tag_69\n      tag_70\n      jump\t// in\n    tag_69:\n        /* \"contracts/3_Ballot.sol\":4857:4864  _voters */\n      0x0c\n        /* \"contracts/3_Ballot.sol\":4857:4872  _voters[voter_] */\n      0x00\n        /* \"contracts/3_Ballot.sol\":4865:4871  voter_ */\n      dup4\n        /* \"contracts/3_Ballot.sol\":4857:4872  _voters[voter_] */\n      0xffffffffffffffffffffffffffffffffffffffff\n      and\n      0xffffffffffffffffffffffffffffffffffffffff\n      and\n      dup2\n      mstore\n      0x20\n      add\n      swap1\n      dup2\n      mstore\n      0x20\n      add\n      0x00\n      keccak256\n        /* \"contracts/3_Ballot.sol\":4850:4872  return _voters[voter_] */\n      mload(0x40)\n      dup1\n      0xc0\n      add\n      0x40\n      mstore\n      swap1\n      dup2\n      0x00\n      dup3\n      add\n      0x00\n      swap1\n      sload\n      swap1\n      0x0100\n      exp\n      swap1\n      div\n      0xffff\n      and\n      0xffff\n      and\n      0xffff\n      and\n      dup2\n      mstore\n      0x20\n      add\n      0x00\n      dup3\n      add\n      0x02\n      swap1\n      sload\n      swap1\n      0x0100\n      exp\n      swap1\n      div\n      0xffff\n      and\n      0xffff\n      and\n      0xffff\n      and\n      dup2\n      mstore\n      0x20\n      add\n      0x00\n      dup3\n      add\n      0x04\n      swap1\n      sload\n      swap1\n      0x0100\n      exp\n      swap1\n      div\n      0xff\n      and\n      iszero\n      iszero\n      iszero\n      iszero\n      dup2\n      mstore\n      0x20\n      add\n      0x00\n      dup3\n      add\n      0x05\n      swap1\n      sload\n      swap1\n      0x0100\n      exp\n      swap1\n      div\n      0xff\n      and\n      iszero\n      iszero\n      iszero\n      iszero\n      dup2\n      mstore\n      0x20\n      add\n      0x00\n      dup3\n      add\n      0x06\n      swap1\n      sload\n      swap1\n      0x0100\n      exp\n      swap1\n      div\n      0xffffffffffffffffffffffffffffffffffffffff\n      and\n      0xffffffffffffffffffffffffffffffffffffffff\n      and\n      0xffffffffffffffffffffffffffffffffffffffff\n      and\n      dup2\n      mstore\n      0x20\n      add\n      0x01\n      dup3\n      add\n      sload\n      dup2\n      mstore\n      pop\n      pop\n      swap1\n      pop\n        /* \"contracts/3_Ballot.sol\":4772:4879  function getvote(address voter_) public view returns (Voter memory) {... */\n      swap2\n      swap1\n      pop\n      jump\t// out\n        /* \"contracts/3_Ballot.sol\":3637:3817  function getBallotProposalParams() public view returns (address, address, uint256) {... */\n    tag_25:\n        /* \"contracts/3_Ballot.sol\":3693:3700  address */\n      0x00\n        /* \"contracts/3_Ballot.sol\":3702:3709  address */\n      dup1\n        /* \"contracts/3_Ballot.sol\":3711:3718  uint256 */\n      0x00\n        /* \"contracts/3_Ballot.sol\":3738:3753  _proposalParams */\n      0x08\n        /* \"contracts/3_Ballot.sol\":3738:3760  _proposalParams.target */\n      0x00\n      add\n      0x00\n      swap1\n      sload\n      swap1\n      0x0100\n      exp\n      swap1\n      div\n      0xffffffffffffffffffffffffffffffffffffffff\n      and\n        /* \"contracts/3_Ballot.sol\":3762:3777  _proposalParams */\n      0x08\n        /* \"contracts/3_Ballot.sol\":3762:3786  _proposalParams.proposer */\n      0x01\n      add\n      0x00\n      swap1\n      sload\n      swap1\n      0x0100\n      exp\n      swap1\n      div\n      0xffffffffffffffffffffffffffffffffffffffff\n      and\n        /* \"contracts/3_Ballot.sol\":3788:3803  _proposalParams */\n      0x08\n        /* \"contracts/3_Ballot.sol\":3788:3809  _proposalParams.value */\n      0x02\n      add\n      sload\n        /* \"contracts/3_Ballot.sol\":3730:3810  return (_proposalParams.target, _proposalParams.proposer, _proposalParams.value) */\n      swap3\n      pop\n      swap3\n      pop\n      swap3\n      pop\n        /* \"contracts/3_Ballot.sol\":3637:3817  function getBallotProposalParams() public view returns (address, address, uint256) {... */\n      swap1\n      swap2\n      swap3\n      jump\t// out\n        /* \"contracts/3_Ballot.sol\":7353:8142  function vote(bool opinion_) public {... */\n    tag_31:\n        /* \"contracts/3_Ballot.sol\":7421:7434  _votingParams */\n      0x02\n        /* \"contracts/3_Ballot.sol\":7421:7444  _votingParams.voteStart */\n      0x00\n      add\n      0x06\n      swap1\n      sload\n      swap1\n      0x0100\n      exp\n      swap1\n      div\n      0xffffffffffff\n      and\n        /* \"contracts/3_Ballot.sol\":7403:7444  block.timestamp < _votingParams.voteStart */\n      0xffffffffffff\n      and\n        /* \"contracts/3_Ballot.sol\":7403:7418  block.timestamp */\n      timestamp\n        /* \"contracts/3_Ballot.sol\":7403:7444  block.timestamp < _votingParams.voteStart */\n      lt\n        /* \"contracts/3_Ballot.sol\":7399:7609  if (block.timestamp < _votingParams.voteStart) { ... */\n      iszero\n      tag_74\n      jumpi\n        /* \"contracts/3_Ballot.sol\":7488:7501  _votingParams */\n      0x02\n        /* \"contracts/3_Ballot.sol\":7488:7511  _votingParams.voteStart */\n      0x00\n      add\n      0x06\n      swap1\n      sload\n      swap1\n      0x0100\n      exp\n      swap1\n      div\n      0xffffffffffff\n      and\n        /* \"contracts/3_Ballot.sol\":7468:7512  VotingHasNotStarted(_votingParams.voteStart) */\n      mload(0x40)\n      0x55d0b3cf00000000000000000000000000000000000000000000000000000000\n      dup2\n      mstore\n      0x04\n      add\n      tag_75\n      swap2\n      swap1\n      tag_76\n      jump\t// in\n    tag_75:\n      mload(0x40)\n      dup1\n      swap2\n      sub\n      swap1\n      revert\n        /* \"contracts/3_Ballot.sol\":7399:7609  if (block.timestamp < _votingParams.voteStart) { ... */\n    tag_74:\n        /* \"contracts/3_Ballot.sol\":7534:7552  isVotingDeadLine() */\n      tag_78\n        /* \"contracts/3_Ballot.sol\":7534:7550  isVotingDeadLine */\n      tag_79\n        /* \"contracts/3_Ballot.sol\":7534:7552  isVotingDeadLine() */\n      jump\t// in\n    tag_78:\n        /* \"contracts/3_Ballot.sol\":7529:7609  if (!isVotingDeadLine()) {... */\n      tag_80\n      jumpi\n        /* \"contracts/3_Ballot.sol\":7588:7597  _deadLine */\n      sload(0x03)\n        /* \"contracts/3_Ballot.sol\":7575:7598  VotingIsOver(_deadLine) */\n      mload(0x40)\n      0x8b00b71700000000000000000000000000000000000000000000000000000000\n      dup2\n      mstore\n      0x04\n      add\n      tag_81\n      swap2\n      swap1\n      tag_38\n      jump\t// in\n    tag_81:\n      mload(0x40)\n      dup1\n      swap2\n      sub\n      swap1\n      revert\n        /* \"contracts/3_Ballot.sol\":7529:7609  if (!isVotingDeadLine()) {... */\n    tag_80:\n        /* \"contracts/3_Ballot.sol\":7627:7634  _voters */\n      0x0c\n        /* \"contracts/3_Ballot.sol\":7627:7646  _voters[msg.sender] */\n      0x00\n        /* \"contracts/3_Ballot.sol\":7635:7645  msg.sender */\n      caller\n        /* \"contracts/3_Ballot.sol\":7627:7646  _voters[msg.sender] */\n      0xffffffffffffffffffffffffffffffffffffffff\n      and\n      0xffffffffffffffffffffffffffffffffffffffff\n      and\n      dup2\n      mstore\n      0x20\n      add\n      swap1\n      dup2\n      mstore\n      0x20\n      add\n      0x00\n      keccak256\n        /* \"contracts/3_Ballot.sol\":7627:7652  _voters[msg.sender].voted */\n      0x00\n      add\n      0x04\n      swap1\n      sload\n      swap1\n      0x0100\n      exp\n      swap1\n      div\n      0xff\n      and\n        /* \"contracts/3_Ballot.sol\":7626:7652  !_voters[msg.sender].voted */\n      iszero\n        /* \"contracts/3_Ballot.sol\":7618:7671  require(!_voters[msg.sender].voted, \"Already voted.\") */\n      tag_82\n      jumpi\n      mload(0x40)\n      0x08c379a000000000000000000000000000000000000000000000000000000000\n      dup2\n      mstore\n      0x04\n      add\n      tag_83\n      swap1\n      tag_84\n      jump\t// in\n    tag_83:\n      mload(0x40)\n      dup1\n      swap2\n      sub\n      swap1\n      revert\n    tag_82:\n        /* \"contracts/3_Ballot.sol\":7681:7700  _votersPermission() */\n      tag_85\n        /* \"contracts/3_Ballot.sol\":7681:7698  _votersPermission */\n      tag_86\n        /* \"contracts/3_Ballot.sol\":7681:7700  _votersPermission() */\n      jump\t// in\n    tag_85:\n        /* \"contracts/3_Ballot.sol\":7710:7730  Voter storage sender */\n      0x00\n        /* \"contracts/3_Ballot.sol\":7733:7740  _voters */\n      0x0c\n        /* \"contracts/3_Ballot.sol\":7733:7752  _voters[msg.sender] */\n      0x00\n        /* \"contracts/3_Ballot.sol\":7741:7751  msg.sender */\n      caller\n        /* \"contracts/3_Ballot.sol\":7733:7752  _voters[msg.sender] */\n      0xffffffffffffffffffffffffffffffffffffffff\n      and\n      0xffffffffffffffffffffffffffffffffffffffff\n      and\n      dup2\n      mstore\n      0x20\n      add\n      swap1\n      dup2\n      mstore\n      0x20\n      add\n      0x00\n      keccak256\n        /* \"contracts/3_Ballot.sol\":7710:7752  Voter storage sender = _voters[msg.sender] */\n      swap1\n      pop\n        /* \"contracts/3_Ballot.sol\":7777:7781  true */\n      0x01\n        /* \"contracts/3_Ballot.sol\":7762:7768  sender */\n      dup2\n        /* \"contracts/3_Ballot.sol\":7762:7774  sender.voted */\n      0x00\n      add\n      0x04\n        /* \"contracts/3_Ballot.sol\":7762:7781  sender.voted = true */\n      0x0100\n      exp\n      dup2\n      sload\n      dup2\n      0xff\n      mul\n      not\n      and\n      swap1\n      dup4\n      iszero\n      iszero\n      mul\n      or\n      swap1\n      sstore\n      pop\n        /* \"contracts/3_Ballot.sol\":7810:7825  block.timestamp */\n      timestamp\n        /* \"contracts/3_Ballot.sol\":7791:7797  sender */\n      dup2\n        /* \"contracts/3_Ballot.sol\":7791:7807  sender.votedTime */\n      0x01\n      add\n        /* \"contracts/3_Ballot.sol\":7791:7825  sender.votedTime = block.timestamp */\n      dup2\n      swap1\n      sstore\n      pop\n        /* \"contracts/3_Ballot.sol\":7839:7847  opinion_ */\n      dup2\n        /* \"contracts/3_Ballot.sol\":7835:8074  if (opinion_) {... */\n      iszero\n      tag_87\n      jumpi\n        /* \"contracts/3_Ballot.sol\":7888:7894  sender */\n      dup1\n        /* \"contracts/3_Ballot.sol\":7888:7901  sender.weight */\n      0x00\n      add\n      0x00\n      swap1\n      sload\n      swap1\n      0x0100\n      exp\n      swap1\n      div\n      0xffff\n      and\n        /* \"contracts/3_Ballot.sol\":7863:7875  _ballotParam */\n      0x00\n        /* \"contracts/3_Ballot.sol\":7863:7884  _ballotParam.observed */\n      0x01\n      add\n      0x02\n        /* \"contracts/3_Ballot.sol\":7863:7901  _ballotParam.observed += sender.weight */\n      dup3\n      dup3\n      dup3\n      swap1\n      sload\n      swap1\n      0x0100\n      exp\n      swap1\n      div\n      0xffff\n      and\n      tag_88\n      swap2\n      swap1\n      tag_89\n      jump\t// in\n    tag_88:\n      swap3\n      pop\n      0x0100\n      exp\n      dup2\n      sload\n      dup2\n      0xffff\n      mul\n      not\n      and\n      swap1\n      dup4\n      0xffff\n      and\n      mul\n      or\n      swap1\n      sstore\n      pop\n        /* \"contracts/3_Ballot.sol\":7958:7964  sender */\n      dup1\n        /* \"contracts/3_Ballot.sol\":7958:7979  sender.delegateWeight */\n      0x00\n      add\n      0x02\n      swap1\n      sload\n      swap1\n      0x0100\n      exp\n      swap1\n      div\n      0xffff\n      and\n        /* \"contracts/3_Ballot.sol\":7942:7948  sender */\n      dup2\n        /* \"contracts/3_Ballot.sol\":7942:7955  sender.weight */\n      0x00\n      add\n      0x00\n      swap1\n      sload\n      swap1\n      0x0100\n      exp\n      swap1\n      div\n      0xffff\n      and\n        /* \"contracts/3_Ballot.sol\":7942:7979  sender.weight + sender.delegateWeight */\n      tag_90\n      swap2\n      swap1\n      tag_89\n      jump\t// in\n    tag_90:\n        /* \"contracts/3_Ballot.sol\":7915:7927  _ballotParam */\n      0x00\n        /* \"contracts/3_Ballot.sol\":7915:7937  _ballotParam.voteCount */\n      0x01\n      add\n      0x00\n        /* \"contracts/3_Ballot.sol\":7915:7980  _ballotParam.voteCount += (sender.weight + sender.delegateWeight) */\n      dup3\n      dup3\n      dup3\n      swap1\n      sload\n      swap1\n      0x0100\n      exp\n      swap1\n      div\n      0xffff\n      and\n      tag_91\n      swap2\n      swap1\n      tag_89\n      jump\t// in\n    tag_91:\n      swap3\n      pop\n      0x0100\n      exp\n      dup2\n      sload\n      dup2\n      0xffff\n      mul\n      not\n      and\n      swap1\n      dup4\n      0xffff\n      and\n      mul\n      or\n      swap1\n      sstore\n      pop\n        /* \"contracts/3_Ballot.sol\":8011:8019  opinion_ */\n      dup2\n        /* \"contracts/3_Ballot.sol\":7994:8000  sender */\n      dup2\n        /* \"contracts/3_Ballot.sol\":7994:8008  sender.opinion */\n      0x00\n      add\n      0x05\n        /* \"contracts/3_Ballot.sol\":7994:8019  sender.opinion = opinion_ */\n      0x0100\n      exp\n      dup2\n      sload\n      dup2\n      0xff\n      mul\n      not\n      and\n      swap1\n      dup4\n      iszero\n      iszero\n      mul\n      or\n      swap1\n      sstore\n      pop\n        /* \"contracts/3_Ballot.sol\":7835:8074  if (opinion_) {... */\n      jump(tag_92)\n    tag_87:\n        /* \"contracts/3_Ballot.sol\":8061:8067  sender */\n      dup1\n        /* \"contracts/3_Ballot.sol\":8061:8074  sender.weight */\n      0x00\n      add\n      0x00\n      swap1\n      sload\n      swap1\n      0x0100\n      exp\n      swap1\n      div\n      0xffff\n      and\n        /* \"contracts/3_Ballot.sol\":8036:8048  _ballotParam */\n      0x00\n        /* \"contracts/3_Ballot.sol\":8036:8057  _ballotParam.observed */\n      0x01\n      add\n      0x02\n        /* \"contracts/3_Ballot.sol\":8036:8074  _ballotParam.observed += sender.weight */\n      dup3\n      dup3\n      dup3\n      swap1\n      sload\n      swap1\n      0x0100\n      exp\n      swap1\n      div\n      0xffff\n      and\n      tag_93\n      swap2\n      swap1\n      tag_89\n      jump\t// in\n    tag_93:\n      swap3\n      pop\n      0x0100\n      exp\n      dup2\n      sload\n      dup2\n      0xffff\n      mul\n      not\n      and\n      swap1\n      dup4\n      0xffff\n      and\n      mul\n      or\n      swap1\n      sstore\n      pop\n        /* \"contracts/3_Ballot.sol\":7835:8074  if (opinion_) {... */\n    tag_92:\n        /* \"contracts/3_Ballot.sol\":8129:8133  this */\n      address\n        /* \"contracts/3_Ballot.sol\":8089:8135  TheVoteWasRegistered(msg.sender,address(this)) */\n      0xffffffffffffffffffffffffffffffffffffffff\n      and\n        /* \"contracts/3_Ballot.sol\":8110:8120  msg.sender */\n      caller\n        /* \"contracts/3_Ballot.sol\":8089:8135  TheVoteWasRegistered(msg.sender,address(this)) */\n      0xffffffffffffffffffffffffffffffffffffffff\n      and\n      0xf0c90984366c9ecce045b67da09271f6d22bd9ad1aed6562de5bcf1def4c7399\n      mload(0x40)\n      mload(0x40)\n      dup1\n      swap2\n      sub\n      swap1\n      log3\n        /* \"contracts/3_Ballot.sol\":7389:8142  {... */\n      pop\n        /* \"contracts/3_Ballot.sol\":7353:8142  function vote(bool opinion_) public {... */\n      pop\n      jump\t// out\n        /* \"contracts/3_Ballot.sol\":6029:7207  function delegate(address to) public {... */\n    tag_34:\n        /* \"contracts/3_Ballot.sol\":6081:6099  isVotingDeadLine() */\n      tag_95\n        /* \"contracts/3_Ballot.sol\":6081:6097  isVotingDeadLine */\n      tag_79\n        /* \"contracts/3_Ballot.sol\":6081:6099  isVotingDeadLine() */\n      jump\t// in\n    tag_95:\n        /* \"contracts/3_Ballot.sol\":6076:6156  if (!isVotingDeadLine()) {... */\n      tag_96\n      jumpi\n        /* \"contracts/3_Ballot.sol\":6135:6144  _deadLine */\n      sload(0x03)\n        /* \"contracts/3_Ballot.sol\":6122:6145  VotingIsOver(_deadLine) */\n      mload(0x40)\n      0x8b00b71700000000000000000000000000000000000000000000000000000000\n      dup2\n      mstore\n      0x04\n      add\n      tag_97\n      swap2\n      swap1\n      tag_38\n      jump\t// in\n    tag_97:\n      mload(0x40)\n      dup1\n      swap2\n      sub\n      swap1\n      revert\n        /* \"contracts/3_Ballot.sol\":6076:6156  if (!isVotingDeadLine()) {... */\n    tag_96:\n        /* \"contracts/3_Ballot.sol\":6174:6181  _voters */\n      0x0c\n        /* \"contracts/3_Ballot.sol\":6174:6193  _voters[msg.sender] */\n      0x00\n        /* \"contracts/3_Ballot.sol\":6182:6192  msg.sender */\n      caller\n        /* \"contracts/3_Ballot.sol\":6174:6193  _voters[msg.sender] */\n      0xffffffffffffffffffffffffffffffffffffffff\n      and\n      0xffffffffffffffffffffffffffffffffffffffff\n      and\n      dup2\n      mstore\n      0x20\n      add\n      swap1\n      dup2\n      mstore\n      0x20\n      add\n      0x00\n      keccak256\n        /* \"contracts/3_Ballot.sol\":6174:6199  _voters[msg.sender].voted */\n      0x00\n      add\n      0x04\n      swap1\n      sload\n      swap1\n      0x0100\n      exp\n      swap1\n      div\n      0xff\n      and\n        /* \"contracts/3_Ballot.sol\":6173:6199  !_voters[msg.sender].voted */\n      iszero\n        /* \"contracts/3_Ballot.sol\":6165:6218  require(!_voters[msg.sender].voted, \"Already voted.\") */\n      tag_98\n      jumpi\n      mload(0x40)\n      0x08c379a000000000000000000000000000000000000000000000000000000000\n      dup2\n      mstore\n      0x04\n      add\n      tag_99\n      swap1\n      tag_84\n      jump\t// in\n    tag_99:\n      mload(0x40)\n      dup1\n      swap2\n      sub\n      swap1\n      revert\n    tag_98:\n        /* \"contracts/3_Ballot.sol\":6228:6247  _votersPermission() */\n      tag_100\n        /* \"contracts/3_Ballot.sol\":6228:6245  _votersPermission */\n      tag_86\n        /* \"contracts/3_Ballot.sol\":6228:6247  _votersPermission() */\n      jump\t// in\n    tag_100:\n        /* \"contracts/3_Ballot.sol\":6257:6277  Voter storage sender */\n      0x00\n        /* \"contracts/3_Ballot.sol\":6280:6287  _voters */\n      0x0c\n        /* \"contracts/3_Ballot.sol\":6280:6299  _voters[msg.sender] */\n      0x00\n        /* \"contracts/3_Ballot.sol\":6288:6298  msg.sender */\n      caller\n        /* \"contracts/3_Ballot.sol\":6280:6299  _voters[msg.sender] */\n      0xffffffffffffffffffffffffffffffffffffffff\n      and\n      0xffffffffffffffffffffffffffffffffffffffff\n      and\n      dup2\n      mstore\n      0x20\n      add\n      swap1\n      dup2\n      mstore\n      0x20\n      add\n      0x00\n      keccak256\n        /* \"contracts/3_Ballot.sol\":6257:6299  Voter storage sender = _voters[msg.sender] */\n      swap1\n      pop\n        /* \"contracts/3_Ballot.sol\":6323:6333  msg.sender */\n      caller\n        /* \"contracts/3_Ballot.sol\":6317:6333  to != msg.sender */\n      0xffffffffffffffffffffffffffffffffffffffff\n      and\n        /* \"contracts/3_Ballot.sol\":6317:6319  to */\n      dup3\n        /* \"contracts/3_Ballot.sol\":6317:6333  to != msg.sender */\n      0xffffffffffffffffffffffffffffffffffffffff\n      and\n      sub\n        /* \"contracts/3_Ballot.sol\":6309:6368  require(to != msg.sender, \"Self-delegation is disallowed.\") */\n      tag_101\n      jumpi\n      mload(0x40)\n      0x08c379a000000000000000000000000000000000000000000000000000000000\n      dup2\n      mstore\n      0x04\n      add\n      tag_102\n      swap1\n      tag_103\n      jump\t// in\n    tag_102:\n      mload(0x40)\n      dup1\n      swap2\n      sub\n      swap1\n      revert\n    tag_101:\n        /* \"contracts/3_Ballot.sol\":6379:6604  while (_voters[to].delegate != address(0)) {... */\n    tag_104:\n        /* \"contracts/3_Ballot.sol\":6418:6419  0 */\n      0x00\n        /* \"contracts/3_Ballot.sol\":6386:6420  _voters[to].delegate != address(0) */\n      0xffffffffffffffffffffffffffffffffffffffff\n      and\n        /* \"contracts/3_Ballot.sol\":6386:6393  _voters */\n      0x0c\n        /* \"contracts/3_Ballot.sol\":6386:6397  _voters[to] */\n      0x00\n        /* \"contracts/3_Ballot.sol\":6394:6396  to */\n      dup5\n        /* \"contracts/3_Ballot.sol\":6386:6397  _voters[to] */\n      0xffffffffffffffffffffffffffffffffffffffff\n      and\n      0xffffffffffffffffffffffffffffffffffffffff\n      and\n      dup2\n      mstore\n      0x20\n      add\n      swap1\n      dup2\n      mstore\n      0x20\n      add\n      0x00\n      keccak256\n        /* \"contracts/3_Ballot.sol\":6386:6406  _voters[to].delegate */\n      0x00\n      add\n      0x06\n      swap1\n      sload\n      swap1\n      0x0100\n      exp\n      swap1\n      div\n      0xffffffffffffffffffffffffffffffffffffffff\n      and\n        /* \"contracts/3_Ballot.sol\":6386:6420  _voters[to].delegate != address(0) */\n      0xffffffffffffffffffffffffffffffffffffffff\n      and\n      eq\n        /* \"contracts/3_Ballot.sol\":6379:6604  while (_voters[to].delegate != address(0)) {... */\n      tag_105\n      jumpi\n        /* \"contracts/3_Ballot.sol\":6441:6448  _voters */\n      0x0c\n        /* \"contracts/3_Ballot.sol\":6441:6452  _voters[to] */\n      0x00\n        /* \"contracts/3_Ballot.sol\":6449:6451  to */\n      dup4\n        /* \"contracts/3_Ballot.sol\":6441:6452  _voters[to] */\n      0xffffffffffffffffffffffffffffffffffffffff\n      and\n      0xffffffffffffffffffffffffffffffffffffffff\n      and\n      dup2\n      mstore\n      0x20\n      add\n      swap1\n      dup2\n      mstore\n      0x20\n      add\n      0x00\n      keccak256\n        /* \"contracts/3_Ballot.sol\":6441:6461  _voters[to].delegate */\n      0x00\n      add\n      0x06\n      swap1\n      sload\n      swap1\n      0x0100\n      exp\n      swap1\n      div\n      0xffffffffffffffffffffffffffffffffffffffff\n      and\n        /* \"contracts/3_Ballot.sol\":6436:6461  to = _voters[to].delegate */\n      swap2\n      pop\n        /* \"contracts/3_Ballot.sol\":6553:6563  msg.sender */\n      caller\n        /* \"contracts/3_Ballot.sol\":6547:6563  to != msg.sender */\n      0xffffffffffffffffffffffffffffffffffffffff\n      and\n        /* \"contracts/3_Ballot.sol\":6547:6549  to */\n      dup3\n        /* \"contracts/3_Ballot.sol\":6547:6563  to != msg.sender */\n      0xffffffffffffffffffffffffffffffffffffffff\n      and\n      sub\n        /* \"contracts/3_Ballot.sol\":6539:6593  require(to != msg.sender, \"Found loop in delegation.\") */\n      tag_106\n      jumpi\n      mload(0x40)\n      0x08c379a000000000000000000000000000000000000000000000000000000000\n      dup2\n      mstore\n      0x04\n      add\n      tag_107\n      swap1\n      tag_108\n      jump\t// in\n    tag_107:\n      mload(0x40)\n      dup1\n      swap2\n      sub\n      swap1\n      revert\n    tag_106:\n        /* \"contracts/3_Ballot.sol\":6379:6604  while (_voters[to].delegate != address(0)) {... */\n      jump(tag_104)\n    tag_105:\n        /* \"contracts/3_Ballot.sol\":6628:6632  true */\n      0x01\n        /* \"contracts/3_Ballot.sol\":6613:6619  sender */\n      dup2\n        /* \"contracts/3_Ballot.sol\":6613:6625  sender.voted */\n      0x00\n      add\n      0x04\n        /* \"contracts/3_Ballot.sol\":6613:6632  sender.voted = true */\n      0x0100\n      exp\n      dup2\n      sload\n      dup2\n      0xff\n      mul\n      not\n      and\n      swap1\n      dup4\n      iszero\n      iszero\n      mul\n      or\n      swap1\n      sstore\n      pop\n        /* \"contracts/3_Ballot.sol\":6661:6676  block.timestamp */\n      timestamp\n        /* \"contracts/3_Ballot.sol\":6642:6648  sender */\n      dup2\n        /* \"contracts/3_Ballot.sol\":6642:6658  sender.votedTime */\n      0x01\n      add\n        /* \"contracts/3_Ballot.sol\":6642:6676  sender.votedTime = block.timestamp */\n      dup2\n      swap1\n      sstore\n      pop\n        /* \"contracts/3_Ballot.sol\":6711:6717  sender */\n      dup1\n        /* \"contracts/3_Ballot.sol\":6711:6724  sender.weight */\n      0x00\n      add\n      0x00\n      swap1\n      sload\n      swap1\n      0x0100\n      exp\n      swap1\n      div\n      0xffff\n      and\n        /* \"contracts/3_Ballot.sol\":6686:6698  _ballotParam */\n      0x00\n        /* \"contracts/3_Ballot.sol\":6686:6707  _ballotParam.observed */\n      0x01\n      add\n      0x02\n        /* \"contracts/3_Ballot.sol\":6686:6724  _ballotParam.observed += sender.weight */\n      dup3\n      dup3\n      dup3\n      swap1\n      sload\n      swap1\n      0x0100\n      exp\n      swap1\n      div\n      0xffff\n      and\n      tag_109\n      swap2\n      swap1\n      tag_89\n      jump\t// in\n    tag_109:\n      swap3\n      pop\n      0x0100\n      exp\n      dup2\n      sload\n      dup2\n      0xffff\n      mul\n      not\n      and\n      swap1\n      dup4\n      0xffff\n      and\n      mul\n      or\n      swap1\n      sstore\n      pop\n        /* \"contracts/3_Ballot.sol\":6752:6754  to */\n      dup2\n        /* \"contracts/3_Ballot.sol\":6734:6740  sender */\n      dup2\n        /* \"contracts/3_Ballot.sol\":6734:6749  sender.delegate */\n      0x00\n      add\n      0x06\n        /* \"contracts/3_Ballot.sol\":6734:6754  sender.delegate = to */\n      0x0100\n      exp\n      dup2\n      sload\n      dup2\n      0xffffffffffffffffffffffffffffffffffffffff\n      mul\n      not\n      and\n      swap1\n      dup4\n      0xffffffffffffffffffffffffffffffffffffffff\n      and\n      mul\n      or\n      swap1\n      sstore\n      pop\n        /* \"contracts/3_Ballot.sol\":6764:6787  Voter storage delegate_ */\n      0x00\n        /* \"contracts/3_Ballot.sol\":6790:6797  _voters */\n      0x0c\n        /* \"contracts/3_Ballot.sol\":6790:6801  _voters[to] */\n      0x00\n        /* \"contracts/3_Ballot.sol\":6798:6800  to */\n      dup5\n        /* \"contracts/3_Ballot.sol\":6790:6801  _voters[to] */\n      0xffffffffffffffffffffffffffffffffffffffff\n      and\n      0xffffffffffffffffffffffffffffffffffffffff\n      and\n      dup2\n      mstore\n      0x20\n      add\n      swap1\n      dup2\n      mstore\n      0x20\n      add\n      0x00\n      keccak256\n        /* \"contracts/3_Ballot.sol\":6764:6801  Voter storage delegate_ = _voters[to] */\n      swap1\n      pop\n        /* \"contracts/3_Ballot.sol\":6815:6824  delegate_ */\n      dup1\n        /* \"contracts/3_Ballot.sol\":6815:6830  delegate_.voted */\n      0x00\n      add\n      0x04\n      swap1\n      sload\n      swap1\n      0x0100\n      exp\n      swap1\n      div\n      0xff\n      and\n        /* \"contracts/3_Ballot.sol\":6811:7200  if (delegate_.voted) {... */\n      iszero\n      tag_110\n      jumpi\n        /* \"contracts/3_Ballot.sol\":6986:6992  sender */\n      dup2\n        /* \"contracts/3_Ballot.sol\":6986:7007  sender.delegateWeight */\n      0x00\n      add\n      0x02\n      swap1\n      sload\n      swap1\n      0x0100\n      exp\n      swap1\n      div\n      0xffff\n      and\n        /* \"contracts/3_Ballot.sol\":6970:6976  sender */\n      dup3\n        /* \"contracts/3_Ballot.sol\":6970:6983  sender.weight */\n      0x00\n      add\n      0x00\n      swap1\n      sload\n      swap1\n      0x0100\n      exp\n      swap1\n      div\n      0xffff\n      and\n        /* \"contracts/3_Ballot.sol\":6970:7007  sender.weight + sender.delegateWeight */\n      tag_111\n      swap2\n      swap1\n      tag_89\n      jump\t// in\n    tag_111:\n        /* \"contracts/3_Ballot.sol\":6943:6955  _ballotParam */\n      0x00\n        /* \"contracts/3_Ballot.sol\":6943:6965  _ballotParam.voteCount */\n      0x01\n      add\n      0x00\n        /* \"contracts/3_Ballot.sol\":6943:7008  _ballotParam.voteCount += (sender.weight + sender.delegateWeight) */\n      dup3\n      dup3\n      dup3\n      swap1\n      sload\n      swap1\n      0x0100\n      exp\n      swap1\n      div\n      0xffff\n      and\n      tag_112\n      swap2\n      swap1\n      tag_89\n      jump\t// in\n    tag_112:\n      swap3\n      pop\n      0x0100\n      exp\n      dup2\n      sload\n      dup2\n      0xffff\n      mul\n      not\n      and\n      swap1\n      dup4\n      0xffff\n      and\n      mul\n      or\n      swap1\n      sstore\n      pop\n        /* \"contracts/3_Ballot.sol\":6811:7200  if (delegate_.voted) {... */\n      jump(tag_113)\n    tag_110:\n        /* \"contracts/3_Ballot.sol\":7167:7173  sender */\n      dup2\n        /* \"contracts/3_Ballot.sol\":7167:7188  sender.delegateWeight */\n      0x00\n      add\n      0x02\n      swap1\n      sload\n      swap1\n      0x0100\n      exp\n      swap1\n      div\n      0xffff\n      and\n        /* \"contracts/3_Ballot.sol\":7151:7157  sender */\n      dup3\n        /* \"contracts/3_Ballot.sol\":7151:7164  sender.weight */\n      0x00\n      add\n      0x00\n      swap1\n      sload\n      swap1\n      0x0100\n      exp\n      swap1\n      div\n      0xffff\n      and\n        /* \"contracts/3_Ballot.sol\":7151:7188  sender.weight + sender.delegateWeight */\n      tag_114\n      swap2\n      swap1\n      tag_89\n      jump\t// in\n    tag_114:\n        /* \"contracts/3_Ballot.sol\":7122:7131  delegate_ */\n      dup2\n        /* \"contracts/3_Ballot.sol\":7122:7146  delegate_.delegateWeight */\n      0x00\n      add\n      0x02\n        /* \"contracts/3_Ballot.sol\":7122:7189  delegate_.delegateWeight += (sender.weight + sender.delegateWeight) */\n      dup3\n      dup3\n      dup3\n      swap1\n      sload\n      swap1\n      0x0100\n      exp\n      swap1\n      div\n      0xffff\n      and\n      tag_115\n      swap2\n      swap1\n      tag_89\n      jump\t// in\n    tag_115:\n      swap3\n      pop\n      0x0100\n      exp\n      dup2\n      sload\n      dup2\n      0xffff\n      mul\n      not\n      and\n      swap1\n      dup4\n      0xffff\n      and\n      mul\n      or\n      swap1\n      sstore\n      pop\n        /* \"contracts/3_Ballot.sol\":6811:7200  if (delegate_.voted) {... */\n    tag_113:\n        /* \"contracts/3_Ballot.sol\":6066:7207  {... */\n      pop\n      pop\n        /* \"contracts/3_Ballot.sol\":6029:7207  function delegate(address to) public {... */\n      pop\n      jump\t// out\n        /* \"contracts/3_Ballot.sol\":4680:4766  function getDeadline() public view returns (uint256) {... */\n    tag_36:\n        /* \"contracts/3_Ballot.sol\":4724:4731  uint256 */\n      0x00\n        /* \"contracts/3_Ballot.sol\":4750:4759  _deadLine */\n      sload(0x03)\n        /* \"contracts/3_Ballot.sol\":4743:4759  return _deadLine */\n      swap1\n      pop\n        /* \"contracts/3_Ballot.sol\":4680:4766  function getDeadline() public view returns (uint256) {... */\n      swap1\n      jump\t// out\n        /* \"contracts/3_Ballot.sol\":1319:1350  BALLOtPARAM public _ballotParam */\n    tag_40:\n      0x00\n      dup1\n      0x00\n      add\n      sload\n      swap1\n      dup1\n      0x01\n      add\n      0x00\n      swap1\n      sload\n      swap1\n      0x0100\n      exp\n      swap1\n      div\n      0xffff\n      and\n      swap1\n      dup1\n      0x01\n      add\n      0x02\n      swap1\n      sload\n      swap1\n      0x0100\n      exp\n      swap1\n      div\n      0xffff\n      and\n      swap1\n      pop\n      dup4\n      jump\t// out\n        /* \"contracts/3_Ballot.sol\":4885:5246  function getVoterOpinion(address voter_) public view returns (bool opinion_) {... */\n    tag_45:\n        /* \"contracts/3_Ballot.sol\":4947:4960  bool opinion_ */\n      0x00\n        /* \"contracts/3_Ballot.sol\":5012:5013  0 */\n      dup1\n        /* \"contracts/3_Ballot.sol\":4976:5014  _voters[voter_].delegate != address(0) */\n      0xffffffffffffffffffffffffffffffffffffffff\n      and\n        /* \"contracts/3_Ballot.sol\":4976:4983  _voters */\n      0x0c\n        /* \"contracts/3_Ballot.sol\":4976:4991  _voters[voter_] */\n      0x00\n        /* \"contracts/3_Ballot.sol\":4984:4990  voter_ */\n      dup5\n        /* \"contracts/3_Ballot.sol\":4976:4991  _voters[voter_] */\n      0xffffffffffffffffffffffffffffffffffffffff\n      and\n      0xffffffffffffffffffffffffffffffffffffffff\n      and\n      dup2\n      mstore\n      0x20\n      add\n      swap1\n      dup2\n      mstore\n      0x20\n      add\n      0x00\n      keccak256\n        /* \"contracts/3_Ballot.sol\":4976:5000  _voters[voter_].delegate */\n      0x00\n      add\n      0x06\n      swap1\n      sload\n      swap1\n      0x0100\n      exp\n      swap1\n      div\n      0xffffffffffffffffffffffffffffffffffffffff\n      and\n        /* \"contracts/3_Ballot.sol\":4976:5014  _voters[voter_].delegate != address(0) */\n      0xffffffffffffffffffffffffffffffffffffffff\n      and\n      eq\n        /* \"contracts/3_Ballot.sol\":4972:5239  if (_voters[voter_].delegate != address(0)) {... */\n      tag_118\n      jumpi\n        /* \"contracts/3_Ballot.sol\":5030:5143  while (_voters[voter_].delegate != address(0)) {... */\n    tag_119:\n        /* \"contracts/3_Ballot.sol\":5073:5074  0 */\n      0x00\n        /* \"contracts/3_Ballot.sol\":5037:5075  _voters[voter_].delegate != address(0) */\n      0xffffffffffffffffffffffffffffffffffffffff\n      and\n        /* \"contracts/3_Ballot.sol\":5037:5044  _voters */\n      0x0c\n        /* \"contracts/3_Ballot.sol\":5037:5052  _voters[voter_] */\n      0x00\n        /* \"contracts/3_Ballot.sol\":5045:5051  voter_ */\n      dup5\n        /* \"contracts/3_Ballot.sol\":5037:5052  _voters[voter_] */\n      0xffffffffffffffffffffffffffffffffffffffff\n      and\n      0xffffffffffffffffffffffffffffffffffffffff\n      and\n      dup2\n      mstore\n      0x20\n      add\n      swap1\n      dup2\n      mstore\n      0x20\n      add\n      0x00\n      keccak256\n        /* \"contracts/3_Ballot.sol\":5037:5061  _voters[voter_].delegate */\n      0x00\n      add\n      0x06\n      swap1\n      sload\n      swap1\n      0x0100\n      exp\n      swap1\n      div\n      0xffffffffffffffffffffffffffffffffffffffff\n      and\n        /* \"contracts/3_Ballot.sol\":5037:5075  _voters[voter_].delegate != address(0) */\n      0xffffffffffffffffffffffffffffffffffffffff\n      and\n      eq\n        /* \"contracts/3_Ballot.sol\":5030:5143  while (_voters[voter_].delegate != address(0)) {... */\n      tag_120\n      jumpi\n        /* \"contracts/3_Ballot.sol\":5104:5111  _voters */\n      0x0c\n        /* \"contracts/3_Ballot.sol\":5104:5119  _voters[voter_] */\n      0x00\n        /* \"contracts/3_Ballot.sol\":5112:5118  voter_ */\n      dup4\n        /* \"contracts/3_Ballot.sol\":5104:5119  _voters[voter_] */\n      0xffffffffffffffffffffffffffffffffffffffff\n      and\n      0xffffffffffffffffffffffffffffffffffffffff\n      and\n      dup2\n      mstore\n      0x20\n      add\n      swap1\n      dup2\n      mstore\n      0x20\n      add\n      0x00\n      keccak256\n        /* \"contracts/3_Ballot.sol\":5104:5128  _voters[voter_].delegate */\n      0x00\n      add\n      0x06\n      swap1\n      sload\n      swap1\n      0x0100\n      exp\n      swap1\n      div\n      0xffffffffffffffffffffffffffffffffffffffff\n      and\n        /* \"contracts/3_Ballot.sol\":5095:5128  voter_ = _voters[voter_].delegate */\n      swap2\n      pop\n        /* \"contracts/3_Ballot.sol\":5030:5143  while (_voters[voter_].delegate != address(0)) {... */\n      jump(tag_119)\n    tag_120:\n        /* \"contracts/3_Ballot.sol\":5163:5170  _voters */\n      0x0c\n        /* \"contracts/3_Ballot.sol\":5163:5178  _voters[voter_] */\n      0x00\n        /* \"contracts/3_Ballot.sol\":5171:5177  voter_ */\n      dup4\n        /* \"contracts/3_Ballot.sol\":5163:5178  _voters[voter_] */\n      0xffffffffffffffffffffffffffffffffffffffff\n      and\n      0xffffffffffffffffffffffffffffffffffffffff\n      and\n      dup2\n      mstore\n      0x20\n      add\n      swap1\n      dup2\n      mstore\n      0x20\n      add\n      0x00\n      keccak256\n        /* \"contracts/3_Ballot.sol\":5163:5186  _voters[voter_].opinion */\n      0x00\n      add\n      0x05\n      swap1\n      sload\n      swap1\n      0x0100\n      exp\n      swap1\n      div\n      0xff\n      and\n        /* \"contracts/3_Ballot.sol\":5156:5186  return _voters[voter_].opinion */\n      swap1\n      pop\n      jump(tag_117)\n        /* \"contracts/3_Ballot.sol\":4972:5239  if (_voters[voter_].delegate != address(0)) {... */\n    tag_118:\n        /* \"contracts/3_Ballot.sol\":5216:5223  _voters */\n      0x0c\n        /* \"contracts/3_Ballot.sol\":5216:5231  _voters[voter_] */\n      0x00\n        /* \"contracts/3_Ballot.sol\":5224:5230  voter_ */\n      dup4\n        /* \"contracts/3_Ballot.sol\":5216:5231  _voters[voter_] */\n      0xffffffffffffffffffffffffffffffffffffffff\n      and\n      0xffffffffffffffffffffffffffffffffffffffff\n      and\n      dup2\n      mstore\n      0x20\n      add\n      swap1\n      dup2\n      mstore\n      0x20\n      add\n      0x00\n      keccak256\n        /* \"contracts/3_Ballot.sol\":5216:5239  _voters[voter_].opinion */\n      0x00\n      add\n      0x05\n      swap1\n      sload\n      swap1\n      0x0100\n      exp\n      swap1\n      pop\n      pop\n        /* \"contracts/3_Ballot.sol\":4885:5246  function getVoterOpinion(address voter_) public view returns (bool opinion_) {... */\n    tag_117:\n      swap2\n      swap1\n      pop\n      jump\t// out\n        /* \"contracts/3_Ballot.sol\":3823:4034  function getBalootVotingParams() public view returns (uint16, uint32, uint48, uint48) {... */\n    tag_49:\n        /* \"contracts/3_Ballot.sol\":3877:3883  uint16 */\n      0x00\n        /* \"contracts/3_Ballot.sol\":3885:3891  uint32 */\n      dup1\n        /* \"contracts/3_Ballot.sol\":3893:3899  uint48 */\n      0x00\n        /* \"contracts/3_Ballot.sol\":3901:3907  uint48 */\n      dup1\n        /* \"contracts/3_Ballot.sol\":3927:3940  _votingParams */\n      0x02\n        /* \"contracts/3_Ballot.sol\":3927:3947  _votingParams.quorum */\n      0x00\n      add\n      0x00\n      swap1\n      sload\n      swap1\n      0x0100\n      exp\n      swap1\n      div\n      0xffff\n      and\n        /* \"contracts/3_Ballot.sol\":3949:3962  _votingParams */\n      0x02\n        /* \"contracts/3_Ballot.sol\":3949:3975  _votingParams.voteDuration */\n      0x00\n      add\n      0x02\n      swap1\n      sload\n      swap1\n      0x0100\n      exp\n      swap1\n      div\n      0xffffffff\n      and\n        /* \"contracts/3_Ballot.sol\":3977:3990  _votingParams */\n      0x02\n        /* \"contracts/3_Ballot.sol\":3977:4000  _votingParams.voteStart */\n      0x00\n      add\n      0x06\n      swap1\n      sload\n      swap1\n      0x0100\n      exp\n      swap1\n      div\n      0xffffffffffff\n      and\n        /* \"contracts/3_Ballot.sol\":4002:4015  _votingParams */\n      0x02\n        /* \"contracts/3_Ballot.sol\":4002:4026  _votingParams.etaSeconds */\n      0x00\n      add\n      0x0c\n      swap1\n      sload\n      swap1\n      0x0100\n      exp\n      swap1\n      div\n      0xffffffffffff\n      and\n        /* \"contracts/3_Ballot.sol\":3919:4027  return (_votingParams.quorum, _votingParams.voteDuration, _votingParams.voteStart, _votingParams.etaSeconds) */\n      swap4\n      pop\n      swap4\n      pop\n      swap4\n      pop\n      swap4\n      pop\n        /* \"contracts/3_Ballot.sol\":3823:4034  function getBalootVotingParams() public view returns (uint16, uint32, uint48, uint48) {... */\n      swap1\n      swap2\n      swap3\n      swap4\n      jump\t// out\n        /* \"contracts/3_Ballot.sol\":3389:3631  function getBallotCallDataParams() public view returns (string memory, string memory, bytes32, address) {... */\n    tag_53:\n        /* \"contracts/3_Ballot.sol\":3445:3458  string memory */\n      0x60\n        /* \"contracts/3_Ballot.sol\":3460:3473  string memory */\n      dup1\n        /* \"contracts/3_Ballot.sol\":3475:3482  bytes32 */\n      0x00\n        /* \"contracts/3_Ballot.sol\":3484:3491  address */\n      dup1\n        /* \"contracts/3_Ballot.sol\":3511:3525  _callDataParam */\n      0x04\n        /* \"contracts/3_Ballot.sol\":3511:3535  _callDataParam.signature */\n      0x00\n      add\n        /* \"contracts/3_Ballot.sol\":3537:3551  _callDataParam */\n      0x04\n        /* \"contracts/3_Ballot.sol\":3537:3563  _callDataParam.description */\n      0x01\n      add\n        /* \"contracts/3_Ballot.sol\":3566:3580  _callDataParam */\n      0x04\n        /* \"contracts/3_Ballot.sol\":3566:3596  _callDataParam.descriptionHash */\n      0x02\n      add\n      sload\n        /* \"contracts/3_Ballot.sol\":3598:3612  _callDataParam */\n      0x04\n        /* \"contracts/3_Ballot.sol\":3598:3623  _callDataParam.governance */\n      0x03\n      add\n      0x00\n      swap1\n      sload\n      swap1\n      0x0100\n      exp\n      swap1\n      div\n      0xffffffffffffffffffffffffffffffffffffffff\n      and\n        /* \"contracts/3_Ballot.sol\":3503:3624  return (_callDataParam.signature, _callDataParam.description,  _callDataParam.descriptionHash, _callDataParam.governance) */\n      dup4\n      dup1\n      sload\n      tag_124\n      swap1\n      tag_125\n      jump\t// in\n    tag_124:\n      dup1\n      0x1f\n      add\n      0x20\n      dup1\n      swap2\n      div\n      mul\n      0x20\n      add\n      mload(0x40)\n      swap1\n      dup2\n      add\n      0x40\n      mstore\n      dup1\n      swap3\n      swap2\n      swap1\n      dup2\n      dup2\n      mstore\n      0x20\n      add\n      dup3\n      dup1\n      sload\n      tag_126\n      swap1\n      tag_125\n      jump\t// in\n    tag_126:\n      dup1\n      iszero\n      tag_127\n      jumpi\n      dup1\n      0x1f\n      lt\n      tag_128\n      jumpi\n      0x0100\n      dup1\n      dup4\n      sload\n      div\n      mul\n      dup4\n      mstore\n      swap2\n      0x20\n      add\n      swap2\n      jump(tag_127)\n    tag_128:\n      dup3\n      add\n      swap2\n      swap1\n      0x00\n      mstore\n      keccak256(0x00, 0x20)\n      swap1\n    tag_129:\n      dup2\n      sload\n      dup2\n      mstore\n      swap1\n      0x01\n      add\n      swap1\n      0x20\n      add\n      dup1\n      dup4\n      gt\n      tag_129\n      jumpi\n      dup3\n      swap1\n      sub\n      0x1f\n      and\n      dup3\n      add\n      swap2\n    tag_127:\n      pop\n      pop\n      pop\n      pop\n      pop\n      swap4\n      pop\n      dup3\n      dup1\n      sload\n      tag_130\n      swap1\n      tag_125\n      jump\t// in\n    tag_130:\n      dup1\n      0x1f\n      add\n      0x20\n      dup1\n      swap2\n      div\n      mul\n      0x20\n      add\n      mload(0x40)\n      swap1\n      dup2\n      add\n      0x40\n      mstore\n      dup1\n      swap3\n      swap2\n      swap1\n      dup2\n      dup2\n      mstore\n      0x20\n      add\n      dup3\n      dup1\n      sload\n      tag_131\n      swap1\n      tag_125\n      jump\t// in\n    tag_131:\n      dup1\n      iszero\n      tag_132\n      jumpi\n      dup1\n      0x1f\n      lt\n      tag_133\n      jumpi\n      0x0100\n      dup1\n      dup4\n      sload\n      div\n      mul\n      dup4\n      mstore\n      swap2\n      0x20\n      add\n      swap2\n      jump(tag_132)\n    tag_133:\n      dup3\n      add\n      swap2\n      swap1\n      0x00\n      mstore\n      keccak256(0x00, 0x20)\n      swap1\n    tag_134:\n      dup2\n      sload\n      dup2\n      mstore\n      swap1\n      0x01\n      add\n      swap1\n      0x20\n      add\n      dup1\n      dup4\n      gt\n      tag_134\n      jumpi\n      dup3\n      swap1\n      sub\n      0x1f\n      and\n      dup3\n      add\n      swap2\n    tag_132:\n      pop\n      pop\n      pop\n      pop\n      pop\n      swap3\n      pop\n      swap4\n      pop\n      swap4\n      pop\n      swap4\n      pop\n      swap4\n      pop\n        /* \"contracts/3_Ballot.sol\":3389:3631  function getBallotCallDataParams() public view returns (string memory, string memory, bytes32, address) {... */\n      swap1\n      swap2\n      swap3\n      swap4\n      jump\t// out\n        /* \"contracts/3_Ballot.sol\":8318:8648  function votingResult() public returns (bool) {... */\n    tag_57:\n        /* \"contracts/3_Ballot.sol\":8358:8362  bool */\n      0x00\n        /* \"contracts/3_Ballot.sol\":8379:8397  isVotingDeadLine() */\n      tag_136\n        /* \"contracts/3_Ballot.sol\":8379:8395  isVotingDeadLine */\n      tag_79\n        /* \"contracts/3_Ballot.sol\":8379:8397  isVotingDeadLine() */\n      jump\t// in\n    tag_136:\n        /* \"contracts/3_Ballot.sol\":8374:8641  if (!isVotingDeadLine()) {... */\n      tag_137\n      jumpi\n        /* \"contracts/3_Ballot.sol\":8442:8455  _votingParams */\n      0x02\n        /* \"contracts/3_Ballot.sol\":8442:8462  _votingParams.quorum */\n      0x00\n      add\n      0x00\n      swap1\n      sload\n      swap1\n      0x0100\n      exp\n      swap1\n      div\n      0xffff\n      and\n        /* \"contracts/3_Ballot.sol\":8417:8462  _ballotParam.observed >= _votingParams.quorum */\n      0xffff\n      and\n        /* \"contracts/3_Ballot.sol\":8417:8429  _ballotParam */\n      0x00\n        /* \"contracts/3_Ballot.sol\":8417:8438  _ballotParam.observed */\n      0x01\n      add\n      0x02\n      swap1\n      sload\n      swap1\n      0x0100\n      exp\n      swap1\n      div\n      0xffff\n      and\n        /* \"contracts/3_Ballot.sol\":8417:8462  _ballotParam.observed >= _votingParams.quorum */\n      0xffff\n      and\n      lt\n      iszero\n        /* \"contracts/3_Ballot.sol\":8417:8527  _ballotParam.observed >= _votingParams.quorum && _ballotParam.voteCount > ((_ballotParam.observed * 50) / 100) */\n      dup1\n      iszero\n      tag_138\n      jumpi\n      pop\n        /* \"contracts/3_Ballot.sol\":8523:8526  100 */\n      0x64\n        /* \"contracts/3_Ballot.sol\":8517:8519  50 */\n      0x32\n        /* \"contracts/3_Ballot.sol\":8493:8505  _ballotParam */\n      0x00\n        /* \"contracts/3_Ballot.sol\":8493:8514  _ballotParam.observed */\n      0x01\n      add\n      0x02\n      swap1\n      sload\n      swap1\n      0x0100\n      exp\n      swap1\n      div\n      0xffff\n      and\n        /* \"contracts/3_Ballot.sol\":8493:8519  _ballotParam.observed * 50 */\n      tag_139\n      swap2\n      swap1\n      tag_140\n      jump\t// in\n    tag_139:\n        /* \"contracts/3_Ballot.sol\":8492:8526  (_ballotParam.observed * 50) / 100 */\n      tag_141\n      swap2\n      swap1\n      tag_142\n      jump\t// in\n    tag_141:\n        /* \"contracts/3_Ballot.sol\":8466:8527  _ballotParam.voteCount > ((_ballotParam.observed * 50) / 100) */\n      0xffff\n      and\n        /* \"contracts/3_Ballot.sol\":8466:8478  _ballotParam */\n      0x00\n        /* \"contracts/3_Ballot.sol\":8466:8488  _ballotParam.voteCount */\n      0x01\n      add\n      0x00\n      swap1\n      sload\n      swap1\n      0x0100\n      exp\n      swap1\n      div\n      0xffff\n      and\n        /* \"contracts/3_Ballot.sol\":8466:8527  _ballotParam.voteCount > ((_ballotParam.observed * 50) / 100) */\n      0xffff\n      and\n      gt\n        /* \"contracts/3_Ballot.sol\":8417:8527  _ballotParam.observed >= _votingParams.quorum && _ballotParam.voteCount > ((_ballotParam.observed * 50) / 100) */\n    tag_138:\n        /* \"contracts/3_Ballot.sol\":8413:8591  if (_ballotParam.observed >= _votingParams.quorum && _ballotParam.voteCount > ((_ballotParam.observed * 50) / 100)) {... */\n      iszero\n      tag_143\n      jumpi\n        /* \"contracts/3_Ballot.sol\":8554:8558  true */\n      0x01\n        /* \"contracts/3_Ballot.sol\":8547:8558  return true */\n      swap1\n      pop\n      jump(tag_135)\n        /* \"contracts/3_Ballot.sol\":8413:8591  if (_ballotParam.observed >= _votingParams.quorum && _ballotParam.voteCount > ((_ballotParam.observed * 50) / 100)) {... */\n    tag_143:\n        /* \"contracts/3_Ballot.sol\":8586:8591  false */\n      0x00\n        /* \"contracts/3_Ballot.sol\":8579:8591  return false */\n      swap1\n      pop\n      jump(tag_135)\n        /* \"contracts/3_Ballot.sol\":8374:8641  if (!isVotingDeadLine()) {... */\n    tag_137:\n        /* \"contracts/3_Ballot.sol\":8631:8640  _deadLine */\n      sload(0x03)\n        /* \"contracts/3_Ballot.sol\":8615:8641  VotingIsNotOver(_deadLine) */\n      mload(0x40)\n      0x2661a1cc00000000000000000000000000000000000000000000000000000000\n      dup2\n      mstore\n      0x04\n      add\n      tag_146\n      swap2\n      swap1\n      tag_38\n      jump\t// in\n    tag_146:\n      mload(0x40)\n      dup1\n      swap2\n      sub\n      swap1\n      revert\n        /* \"contracts/3_Ballot.sol\":8318:8648  function votingResult() public returns (bool) {... */\n    tag_135:\n      swap1\n      jump\t// out\n        /* \"contracts/3_Ballot.sol\":4250:4482  function getBallotProposalId() public view returns (uint256 proposalId) {... */\n    tag_60:\n        /* \"contracts/3_Ballot.sol\":4302:4320  uint256 proposalId */\n      0x00\n        /* \"contracts/3_Ballot.sol\":4374:4389  _proposalParams */\n      0x08\n        /* \"contracts/3_Ballot.sol\":4374:4396  _proposalParams.target */\n      0x00\n      add\n      0x00\n      swap1\n      sload\n      swap1\n      0x0100\n      exp\n      swap1\n      div\n      0xffffffffffffffffffffffffffffffffffffffff\n      and\n        /* \"contracts/3_Ballot.sol\":4398:4413  _proposalParams */\n      0x08\n        /* \"contracts/3_Ballot.sol\":4398:4419  _proposalParams.value */\n      0x02\n      add\n      sload\n        /* \"contracts/3_Ballot.sol\":4421:4440  getBallotCallData() */\n      tag_148\n        /* \"contracts/3_Ballot.sol\":4421:4438  getBallotCallData */\n      tag_66\n        /* \"contracts/3_Ballot.sol\":4421:4440  getBallotCallData() */\n      jump\t// in\n    tag_148:\n        /* \"contracts/3_Ballot.sol\":4442:4456  _callDataParam */\n      0x04\n        /* \"contracts/3_Ballot.sol\":4442:4472  _callDataParam.descriptionHash */\n      0x02\n      add\n      sload\n        /* \"contracts/3_Ballot.sol\":4363:4473  abi.encode(_proposalParams.target, _proposalParams.value, getBallotCallData(), _callDataParam.descriptionHash) */\n      add(0x20, mload(0x40))\n      tag_149\n      swap5\n      swap4\n      swap3\n      swap2\n      swap1\n      tag_150\n      jump\t// in\n    tag_149:\n      mload(0x40)\n      0x20\n      dup2\n      dup4\n      sub\n      sub\n      dup2\n      mstore\n      swap1\n      0x40\n      mstore\n        /* \"contracts/3_Ballot.sol\":4353:4474  keccak256(abi.encode(_proposalParams.target, _proposalParams.value, getBallotCallData(), _callDataParam.descriptionHash)) */\n      dup1\n      mload\n      swap1\n      0x20\n      add\n      keccak256\n        /* \"contracts/3_Ballot.sol\":4345:4475  uint256(keccak256(abi.encode(_proposalParams.target, _proposalParams.value, getBallotCallData(), _callDataParam.descriptionHash))) */\n      0x00\n      shr\n        /* \"contracts/3_Ballot.sol\":4332:4475  proposalId = uint256(keccak256(abi.encode(_proposalParams.target, _proposalParams.value, getBallotCallData(), _callDataParam.descriptionHash))) */\n      swap1\n      pop\n        /* \"contracts/3_Ballot.sol\":4250:4482  function getBallotProposalId() public view returns (uint256 proposalId) {... */\n      swap1\n      jump\t// out\n        /* \"contracts/3_Ballot.sol\":4488:4674  function getBallotParam() public view returns (bytes32 name, uint16 voteCount, uint16 observed) {... */\n    tag_63:\n        /* \"contracts/3_Ballot.sol\":4535:4547  bytes32 name */\n      0x00\n        /* \"contracts/3_Ballot.sol\":4549:4565  uint16 voteCount */\n      dup1\n        /* \"contracts/3_Ballot.sol\":4567:4582  uint16 observed */\n      0x00\n        /* \"contracts/3_Ballot.sol\":4602:4614  _ballotParam */\n      dup1\n        /* \"contracts/3_Ballot.sol\":4602:4619  _ballotParam.name */\n      0x00\n      add\n      sload\n        /* \"contracts/3_Ballot.sol\":4621:4633  _ballotParam */\n      0x00\n        /* \"contracts/3_Ballot.sol\":4621:4643  _ballotParam.voteCount */\n      0x01\n      add\n      0x00\n      swap1\n      sload\n      swap1\n      0x0100\n      exp\n      swap1\n      div\n      0xffff\n      and\n        /* \"contracts/3_Ballot.sol\":4645:4657  _ballotParam */\n      0x00\n        /* \"contracts/3_Ballot.sol\":4645:4666  _ballotParam.observed */\n      0x01\n      add\n      0x02\n      swap1\n      sload\n      swap1\n      0x0100\n      exp\n      swap1\n      div\n      0xffff\n      and\n        /* \"contracts/3_Ballot.sol\":4594:4667  return (_ballotParam.name, _ballotParam.voteCount, _ballotParam.observed) */\n      swap3\n      pop\n      swap3\n      pop\n      swap3\n      pop\n        /* \"contracts/3_Ballot.sol\":4488:4674  function getBallotParam() public view returns (bytes32 name, uint16 voteCount, uint16 observed) {... */\n      swap1\n      swap2\n      swap3\n      jump\t// out\n        /* \"contracts/3_Ballot.sol\":4040:4244  function getBallotCallData() public view virtual  returns (bytes memory callData) {... */\n    tag_66:\n        /* \"contracts/3_Ballot.sol\":4099:4120  bytes memory callData */\n      0x60\n        /* \"contracts/3_Ballot.sol\":4167:4181  _callDataParam */\n      0x04\n        /* \"contracts/3_Ballot.sol\":4167:4191  _callDataParam.signature */\n      0x00\n      add\n        /* \"contracts/3_Ballot.sol\":4143:4192  abi.encodeWithSignature(_callDataParam.signature) */\n      add(0x24, mload(0x40))\n      mload(0x40)\n      0x20\n      dup2\n      dup4\n      sub\n      sub\n      dup2\n      mstore\n      swap1\n      0x40\n      mstore\n      swap1\n      mload(0x40)\n      tag_153\n      swap2\n      swap1\n      tag_154\n      jump\t// in\n    tag_153:\n      mload(0x40)\n      dup1\n      swap2\n      sub\n      swap1\n      keccak256\n      not(0xffffffffffffffffffffffffffffffffffffffffffffffffffffffff)\n      and\n      0x20\n      dup3\n      add\n      dup1\n      mload\n      0xffffffffffffffffffffffffffffffffffffffffffffffffffffffff\n      dup4\n      dup2\n      dup4\n      and\n      or\n      dup4\n      mstore\n      pop\n      pop\n      pop\n      pop\n        /* \"contracts/3_Ballot.sol\":4132:4192  callData = abi.encodeWithSignature(_callDataParam.signature) */\n      swap1\n      pop\n        /* \"contracts/3_Ballot.sol\":4040:4244  function getBallotCallData() public view virtual  returns (bytes memory callData) {... */\n      swap1\n      jump\t// out\n        /* \"contracts/3_Ballot.sol\":8992:9608  function isVotingDeadLine() private returns (bool) {... */\n    tag_79:\n        /* \"contracts/3_Ballot.sol\":9037:9041  bool */\n      0x00\n        /* \"contracts/3_Ballot.sol\":9053:9071  uint48 currentTime */\n      dup1\n        /* \"contracts/3_Ballot.sol\":9081:9096  block.timestamp */\n      timestamp\n        /* \"contracts/3_Ballot.sol\":9053:9097  uint48 currentTime = uint48(block.timestamp) */\n      swap1\n      pop\n        /* \"contracts/3_Ballot.sol\":9126:9135  _deadLine */\n      sload(0x03)\n        /* \"contracts/3_Ballot.sol\":9111:9122  currentTime */\n      dup2\n        /* \"contracts/3_Ballot.sol\":9111:9135  currentTime <= _deadLine */\n      0xffffffffffff\n      and\n      gt\n        /* \"contracts/3_Ballot.sol\":9107:9580  if (currentTime <= _deadLine) {... */\n      tag_156\n      jumpi\n        /* \"contracts/3_Ballot.sol\":9158:9162  true */\n      0x01\n        /* \"contracts/3_Ballot.sol\":9151:9162  return true */\n      swap2\n      pop\n      pop\n      jump(tag_155)\n        /* \"contracts/3_Ballot.sol\":9107:9580  if (currentTime <= _deadLine) {... */\n    tag_156:\n        /* \"contracts/3_Ballot.sol\":9262:9265  100 */\n      0x64\n        /* \"contracts/3_Ballot.sol\":9256:9258  20 */\n      0x14\n        /* \"contracts/3_Ballot.sol\":9233:9246  _votingParams */\n      0x02\n        /* \"contracts/3_Ballot.sol\":9233:9253  _votingParams.quorum */\n      0x00\n      add\n      0x00\n      swap1\n      sload\n      swap1\n      0x0100\n      exp\n      swap1\n      div\n      0xffff\n      and\n        /* \"contracts/3_Ballot.sol\":9233:9258  _votingParams.quorum * 20 */\n      tag_158\n      swap2\n      swap1\n      tag_140\n      jump\t// in\n    tag_158:\n        /* \"contracts/3_Ballot.sol\":9232:9265  (_votingParams.quorum * 20) / 100 */\n      tag_159\n      swap2\n      swap1\n      tag_142\n      jump\t// in\n    tag_159:\n        /* \"contracts/3_Ballot.sol\":9208:9221  _votingParams */\n      0x02\n        /* \"contracts/3_Ballot.sol\":9208:9228  _votingParams.quorum */\n      0x00\n      add\n      0x00\n      swap1\n      sload\n      swap1\n      0x0100\n      exp\n      swap1\n      div\n      0xffff\n      and\n        /* \"contracts/3_Ballot.sol\":9208:9266  _votingParams.quorum + ((_votingParams.quorum * 20) / 100) */\n      tag_160\n      swap2\n      swap1\n      tag_89\n      jump\t// in\n    tag_160:\n        /* \"contracts/3_Ballot.sol\":9183:9267  _ballotParam.observed < (_votingParams.quorum + ((_votingParams.quorum * 20) / 100)) */\n      0xffff\n      and\n        /* \"contracts/3_Ballot.sol\":9183:9195  _ballotParam */\n      0x00\n        /* \"contracts/3_Ballot.sol\":9183:9204  _ballotParam.observed */\n      0x01\n      add\n      0x02\n      swap1\n      sload\n      swap1\n      0x0100\n      exp\n      swap1\n      div\n      0xffff\n      and\n        /* \"contracts/3_Ballot.sol\":9183:9267  _ballotParam.observed < (_votingParams.quorum + ((_votingParams.quorum * 20) / 100)) */\n      0xffff\n      and\n      lt\n        /* \"contracts/3_Ballot.sol\":9179:9580  if (_ballotParam.observed < (_votingParams.quorum + ((_votingParams.quorum * 20) / 100))) {... */\n      iszero\n      tag_161\n      jumpi\n        /* \"contracts/3_Ballot.sol\":9358:9371  _votingParams */\n      0x02\n        /* \"contracts/3_Ballot.sol\":9358:9382  _votingParams.etaSeconds */\n      0x00\n      add\n      0x0c\n      swap1\n      sload\n      swap1\n      0x0100\n      exp\n      swap1\n      div\n      0xffffffffffff\n      and\n        /* \"contracts/3_Ballot.sol\":9329:9342  _votingParams */\n      0x02\n        /* \"contracts/3_Ballot.sol\":9329:9355  _votingParams.voteDuration */\n      0x00\n      add\n      0x02\n      swap1\n      sload\n      swap1\n      0x0100\n      exp\n      swap1\n      div\n      0xffffffff\n      and\n        /* \"contracts/3_Ballot.sol\":9303:9355  _votingParams.voteStart + _votingParams.voteDuration */\n      0xffffffff\n      and\n        /* \"contracts/3_Ballot.sol\":9303:9316  _votingParams */\n      0x02\n        /* \"contracts/3_Ballot.sol\":9303:9326  _votingParams.voteStart */\n      0x00\n      add\n      0x06\n      swap1\n      sload\n      swap1\n      0x0100\n      exp\n      swap1\n      div\n      0xffffffffffff\n      and\n        /* \"contracts/3_Ballot.sol\":9303:9355  _votingParams.voteStart + _votingParams.voteDuration */\n      tag_162\n      swap2\n      swap1\n      tag_163\n      jump\t// in\n    tag_162:\n        /* \"contracts/3_Ballot.sol\":9303:9382  _votingParams.voteStart + _votingParams.voteDuration + _votingParams.etaSeconds */\n      tag_164\n      swap2\n      swap1\n      tag_163\n      jump\t// in\n    tag_164:\n        /* \"contracts/3_Ballot.sol\":9287:9383  currentTime <= (_votingParams.voteStart + _votingParams.voteDuration + _votingParams.etaSeconds) */\n      0xffffffffffff\n      and\n        /* \"contracts/3_Ballot.sol\":9287:9298  currentTime */\n      dup2\n        /* \"contracts/3_Ballot.sol\":9287:9383  currentTime <= (_votingParams.voteStart + _votingParams.voteDuration + _votingParams.etaSeconds) */\n      0xffffffffffff\n      and\n      gt\n        /* \"contracts/3_Ballot.sol\":9283:9569  if (currentTime <= (_votingParams.voteStart + _votingParams.voteDuration + _votingParams.etaSeconds)) {... */\n      tag_165\n      jumpi\n        /* \"contracts/3_Ballot.sol\":9416:9429  _votingParams */\n      0x02\n        /* \"contracts/3_Ballot.sol\":9416:9440  _votingParams.etaSeconds */\n      0x00\n      add\n      0x0c\n      swap1\n      sload\n      swap1\n      0x0100\n      exp\n      swap1\n      div\n      0xffffffffffff\n      and\n        /* \"contracts/3_Ballot.sol\":9403:9440  _deadLine += _votingParams.etaSeconds */\n      0xffffffffffff\n      and\n        /* \"contracts/3_Ballot.sol\":9403:9412  _deadLine */\n      0x03\n      0x00\n        /* \"contracts/3_Ballot.sol\":9403:9440  _deadLine += _votingParams.etaSeconds */\n      dup3\n      dup3\n      sload\n      tag_166\n      swap2\n      swap1\n      tag_167\n      jump\t// in\n    tag_166:\n      swap3\n      pop\n      pop\n      dup2\n      swap1\n      sstore\n      pop\n        /* \"contracts/3_Ballot.sol\":9493:9497  this */\n      address\n        /* \"contracts/3_Ballot.sol\":9463:9525  etaSecondsIsActivated(address(this), _votingParams.etaSeconds) */\n      0xffffffffffffffffffffffffffffffffffffffff\n      and\n      0x500de3b55e9f23c65d27e8e2eb29867b6b250c4219cec100f4b441983c5d7d78\n        /* \"contracts/3_Ballot.sol\":9500:9513  _votingParams */\n      0x02\n        /* \"contracts/3_Ballot.sol\":9500:9524  _votingParams.etaSeconds */\n      0x00\n      add\n      0x0c\n      swap1\n      sload\n      swap1\n      0x0100\n      exp\n      swap1\n      div\n      0xffffffffffff\n      and\n        /* \"contracts/3_Ballot.sol\":9463:9525  etaSecondsIsActivated(address(this), _votingParams.etaSeconds) */\n      mload(0x40)\n      tag_168\n      swap2\n      swap1\n      tag_76\n      jump\t// in\n    tag_168:\n      mload(0x40)\n      dup1\n      swap2\n      sub\n      swap1\n      log2\n        /* \"contracts/3_Ballot.sol\":9550:9554  true */\n      0x01\n        /* \"contracts/3_Ballot.sol\":9543:9554  return true */\n      swap2\n      pop\n      pop\n      jump(tag_155)\n        /* \"contracts/3_Ballot.sol\":9283:9569  if (currentTime <= (_votingParams.voteStart + _votingParams.voteDuration + _votingParams.etaSeconds)) {... */\n    tag_165:\n        /* \"contracts/3_Ballot.sol\":9179:9580  if (_ballotParam.observed < (_votingParams.quorum + ((_votingParams.quorum * 20) / 100))) {... */\n    tag_161:\n        /* \"contracts/3_Ballot.sol\":9596:9601  false */\n      0x00\n        /* \"contracts/3_Ballot.sol\":9589:9601  return false */\n      swap2\n      pop\n      pop\n        /* \"contracts/3_Ballot.sol\":8992:9608  function isVotingDeadLine() private returns (bool) {... */\n    tag_155:\n      swap1\n      jump\t// out\n        /* \"contracts/3_Ballot.sol\":8654:8986  function _votersPermission() private {... */\n    tag_86:\n        /* \"contracts/3_Ballot.sol\":8701:8715  uint16 weight_ */\n      0x00\n        /* \"contracts/3_Ballot.sol\":8730:8745  _proposalParams */\n      0x08\n        /* \"contracts/3_Ballot.sol\":8730:8752  _proposalParams.target */\n      0x00\n      add\n      0x00\n      swap1\n      sload\n      swap1\n      0x0100\n      exp\n      swap1\n      div\n      0xffffffffffffffffffffffffffffffffffffffff\n      and\n        /* \"contracts/3_Ballot.sol\":8718:8763  IgetBalance(_proposalParams.target).balanceOf */\n      0xffffffffffffffffffffffffffffffffffffffff\n      and\n      0x70a08231\n        /* \"contracts/3_Ballot.sol\":8764:8774  msg.sender */\n      caller\n        /* \"contracts/3_Ballot.sol\":8718:8775  IgetBalance(_proposalParams.target).balanceOf(msg.sender) */\n      mload(0x40)\n      dup3\n      0xffffffff\n      and\n      0xe0\n      shl\n      dup2\n      mstore\n      0x04\n      add\n      tag_170\n      swap2\n      swap1\n      tag_171\n      jump\t// in\n    tag_170:\n      0x20\n      mload(0x40)\n      dup1\n      dup4\n      sub\n      dup2\n      dup7\n      gas\n      staticcall\n      iszero\n      dup1\n      iszero\n      tag_173\n      jumpi\n      returndatasize\n      0x00\n      dup1\n      returndatacopy\n      revert(0x00, returndatasize)\n    tag_173:\n      pop\n      pop\n      pop\n      pop\n      mload(0x40)\n      returndatasize\n      not(0x1f)\n      0x1f\n      dup3\n      add\n      and\n      dup3\n      add\n      dup1\n      0x40\n      mstore\n      pop\n      dup2\n      add\n      swap1\n      tag_174\n      swap2\n      swap1\n      tag_175\n      jump\t// in\n    tag_174:\n        /* \"contracts/3_Ballot.sol\":8701:8775  uint16 weight_ = IgetBalance(_proposalParams.target).balanceOf(msg.sender) */\n      swap1\n      pop\n        /* \"contracts/3_Ballot.sol\":8799:8800  0 */\n      0x00\n        /* \"contracts/3_Ballot.sol\":8789:8796  weight_ */\n      dup2\n        /* \"contracts/3_Ballot.sol\":8789:8800  weight_ > 0 */\n      0xffff\n      and\n      gt\n        /* \"contracts/3_Ballot.sol\":8785:8863  if (weight_ > 0) {... */\n      iszero\n      tag_176\n      jumpi\n        /* \"contracts/3_Ballot.sol\":8845:8852  weight_ */\n      dup1\n        /* \"contracts/3_Ballot.sol\":8816:8823  _voters */\n      0x0c\n        /* \"contracts/3_Ballot.sol\":8816:8835  _voters[msg.sender] */\n      0x00\n        /* \"contracts/3_Ballot.sol\":8824:8834  msg.sender */\n      caller\n        /* \"contracts/3_Ballot.sol\":8816:8835  _voters[msg.sender] */\n      0xffffffffffffffffffffffffffffffffffffffff\n      and\n      0xffffffffffffffffffffffffffffffffffffffff\n      and\n      dup2\n      mstore\n      0x20\n      add\n      swap1\n      dup2\n      mstore\n      0x20\n      add\n      0x00\n      keccak256\n        /* \"contracts/3_Ballot.sol\":8816:8842  _voters[msg.sender].weight */\n      0x00\n      add\n      0x00\n        /* \"contracts/3_Ballot.sol\":8816:8852  _voters[msg.sender].weight = weight_ */\n      0x0100\n      exp\n      dup2\n      sload\n      dup2\n      0xffff\n      mul\n      not\n      and\n      swap1\n      dup4\n      0xffff\n      and\n      mul\n      or\n      swap1\n      sstore\n      pop\n        /* \"contracts/3_Ballot.sol\":8785:8863  if (weight_ > 0) {... */\n    tag_176:\n        /* \"contracts/3_Ballot.sol\":8910:8911  0 */\n      0x00\n        /* \"contracts/3_Ballot.sol\":8880:8887  _voters */\n      0x0c\n        /* \"contracts/3_Ballot.sol\":8880:8899  _voters[msg.sender] */\n      0x00\n        /* \"contracts/3_Ballot.sol\":8888:8898  msg.sender */\n      caller\n        /* \"contracts/3_Ballot.sol\":8880:8899  _voters[msg.sender] */\n      0xffffffffffffffffffffffffffffffffffffffff\n      and\n      0xffffffffffffffffffffffffffffffffffffffff\n      and\n      dup2\n      mstore\n      0x20\n      add\n      swap1\n      dup2\n      mstore\n      0x20\n      add\n      0x00\n      keccak256\n        /* \"contracts/3_Ballot.sol\":8880:8906  _voters[msg.sender].weight */\n      0x00\n      add\n      0x00\n      swap1\n      sload\n      swap1\n      0x0100\n      exp\n      swap1\n      div\n      0xffff\n      and\n        /* \"contracts/3_Ballot.sol\":8880:8911  _voters[msg.sender].weight != 0 */\n      0xffff\n      and\n      eq\n      iszero\n        /* \"contracts/3_Ballot.sol\":8880:8954  _voters[msg.sender].weight != 0 || _voters[msg.sender].delegateWeight != 0 */\n      dup1\n      tag_177\n      jumpi\n      pop\n        /* \"contracts/3_Ballot.sol\":8953:8954  0 */\n      0x00\n        /* \"contracts/3_Ballot.sol\":8915:8922  _voters */\n      0x0c\n        /* \"contracts/3_Ballot.sol\":8915:8934  _voters[msg.sender] */\n      0x00\n        /* \"contracts/3_Ballot.sol\":8923:8933  msg.sender */\n      caller\n        /* \"contracts/3_Ballot.sol\":8915:8934  _voters[msg.sender] */\n      0xffffffffffffffffffffffffffffffffffffffff\n      and\n      0xffffffffffffffffffffffffffffffffffffffff\n      and\n      dup2\n      mstore\n      0x20\n      add\n      swap1\n      dup2\n      mstore\n      0x20\n      add\n      0x00\n      keccak256\n        /* \"contracts/3_Ballot.sol\":8915:8949  _voters[msg.sender].delegateWeight */\n      0x00\n      add\n      0x02\n      swap1\n      sload\n      swap1\n      0x0100\n      exp\n      swap1\n      div\n      0xffff\n      and\n        /* \"contracts/3_Ballot.sol\":8915:8954  _voters[msg.sender].delegateWeight != 0 */\n      0xffff\n      and\n      eq\n      iszero\n        /* \"contracts/3_Ballot.sol\":8880:8954  _voters[msg.sender].weight != 0 || _voters[msg.sender].delegateWeight != 0 */\n    tag_177:\n        /* \"contracts/3_Ballot.sol\":8872:8979  require(_voters[msg.sender].weight != 0 || _voters[msg.sender].delegateWeight != 0, \"Has no right to vote\") */\n      tag_178\n      jumpi\n      mload(0x40)\n      0x08c379a000000000000000000000000000000000000000000000000000000000\n      dup2\n      mstore\n      0x04\n      add\n      tag_179\n      swap1\n      tag_180\n      jump\t// in\n    tag_179:\n      mload(0x40)\n      dup1\n      swap2\n      sub\n      swap1\n      revert\n    tag_178:\n        /* \"contracts/3_Ballot.sol\":8691:8986  {... */\n      pop\n        /* \"contracts/3_Ballot.sol\":8654:8986  function _votersPermission() private {... */\n      jump\t// out\n    tag_70:\n      mload(0x40)\n      dup1\n      0xc0\n      add\n      0x40\n      mstore\n      dup1\n      and(0xffff, 0x00)\n      dup2\n      mstore\n      0x20\n      add\n      and(0xffff, 0x00)\n      dup2\n      mstore\n      0x20\n      add\n      iszero(iszero(0x00))\n      dup2\n      mstore\n      0x20\n      add\n      iszero(iszero(0x00))\n      dup2\n      mstore\n      0x20\n      add\n      and(0xffffffffffffffffffffffffffffffffffffffff, 0x00)\n      dup2\n      mstore\n      0x20\n      add\n      0x00\n      dup2\n      mstore\n      pop\n      swap1\n      jump\t// out\n        /* \"#utility.yul\":88:205   */\n    tag_182:\n        /* \"#utility.yul\":197:198   */\n      0x00\n        /* \"#utility.yul\":194:195   */\n      dup1\n        /* \"#utility.yul\":187:199   */\n      revert\n        /* \"#utility.yul\":334:460   */\n    tag_184:\n        /* \"#utility.yul\":371:378   */\n      0x00\n        /* \"#utility.yul\":411:453   */\n      0xffffffffffffffffffffffffffffffffffffffff\n        /* \"#utility.yul\":404:409   */\n      dup3\n        /* \"#utility.yul\":400:454   */\n      and\n        /* \"#utility.yul\":389:454   */\n      swap1\n      pop\n        /* \"#utility.yul\":334:460   */\n      swap2\n      swap1\n      pop\n      jump\t// out\n        /* \"#utility.yul\":466:562   */\n    tag_185:\n        /* \"#utility.yul\":503:510   */\n      0x00\n        /* \"#utility.yul\":532:556   */\n      tag_238\n        /* \"#utility.yul\":550:555   */\n      dup3\n        /* \"#utility.yul\":532:556   */\n      tag_184\n      jump\t// in\n    tag_238:\n        /* \"#utility.yul\":521:556   */\n      swap1\n      pop\n        /* \"#utility.yul\":466:562   */\n      swap2\n      swap1\n      pop\n      jump\t// out\n        /* \"#utility.yul\":568:690   */\n    tag_186:\n        /* \"#utility.yul\":641:665   */\n      tag_240\n        /* \"#utility.yul\":659:664   */\n      dup2\n        /* \"#utility.yul\":641:665   */\n      tag_185\n      jump\t// in\n    tag_240:\n        /* \"#utility.yul\":634:639   */\n      dup2\n        /* \"#utility.yul\":631:666   */\n      eq\n        /* \"#utility.yul\":621:684   */\n      tag_241\n      jumpi\n        /* \"#utility.yul\":680:681   */\n      0x00\n        /* \"#utility.yul\":677:678   */\n      dup1\n        /* \"#utility.yul\":670:682   */\n      revert\n        /* \"#utility.yul\":621:684   */\n    tag_241:\n        /* \"#utility.yul\":568:690   */\n      pop\n      jump\t// out\n        /* \"#utility.yul\":696:835   */\n    tag_187:\n        /* \"#utility.yul\":742:747   */\n      0x00\n        /* \"#utility.yul\":780:786   */\n      dup2\n        /* \"#utility.yul\":767:787   */\n      calldataload\n        /* \"#utility.yul\":758:787   */\n      swap1\n      pop\n        /* \"#utility.yul\":796:829   */\n      tag_243\n        /* \"#utility.yul\":823:828   */\n      dup2\n        /* \"#utility.yul\":796:829   */\n      tag_186\n      jump\t// in\n    tag_243:\n        /* \"#utility.yul\":696:835   */\n      swap3\n      swap2\n      pop\n      pop\n      jump\t// out\n        /* \"#utility.yul\":841:1170   */\n    tag_20:\n        /* \"#utility.yul\":900:906   */\n      0x00\n        /* \"#utility.yul\":949:951   */\n      0x20\n        /* \"#utility.yul\":937:946   */\n      dup3\n        /* \"#utility.yul\":928:935   */\n      dup5\n        /* \"#utility.yul\":924:947   */\n      sub\n        /* \"#utility.yul\":920:952   */\n      slt\n        /* \"#utility.yul\":917:1036   */\n      iszero\n      tag_245\n      jumpi\n        /* \"#utility.yul\":955:1034   */\n      tag_246\n      tag_182\n      jump\t// in\n    tag_246:\n        /* \"#utility.yul\":917:1036   */\n    tag_245:\n        /* \"#utility.yul\":1075:1076   */\n      0x00\n        /* \"#utility.yul\":1100:1153   */\n      tag_247\n        /* \"#utility.yul\":1145:1152   */\n      dup5\n        /* \"#utility.yul\":1136:1142   */\n      dup3\n        /* \"#utility.yul\":1125:1134   */\n      dup6\n        /* \"#utility.yul\":1121:1143   */\n      add\n        /* \"#utility.yul\":1100:1153   */\n      tag_187\n      jump\t// in\n    tag_247:\n        /* \"#utility.yul\":1090:1153   */\n      swap2\n      pop\n        /* \"#utility.yul\":1046:1163   */\n      pop\n        /* \"#utility.yul\":841:1170   */\n      swap3\n      swap2\n      pop\n      pop\n      jump\t// out\n        /* \"#utility.yul\":1176:1265   */\n    tag_188:\n        /* \"#utility.yul\":1212:1219   */\n      0x00\n        /* \"#utility.yul\":1252:1258   */\n      0xffff\n        /* \"#utility.yul\":1245:1250   */\n      dup3\n        /* \"#utility.yul\":1241:1259   */\n      and\n        /* \"#utility.yul\":1230:1259   */\n      swap1\n      pop\n        /* \"#utility.yul\":1176:1265   */\n      swap2\n      swap1\n      pop\n      jump\t// out\n        /* \"#utility.yul\":1271:1376   */\n    tag_189:\n        /* \"#utility.yul\":1346:1369   */\n      tag_250\n        /* \"#utility.yul\":1363:1368   */\n      dup2\n        /* \"#utility.yul\":1346:1369   */\n      tag_188\n      jump\t// in\n    tag_250:\n        /* \"#utility.yul\":1341:1344   */\n      dup3\n        /* \"#utility.yul\":1334:1370   */\n      mstore\n        /* \"#utility.yul\":1271:1376   */\n      pop\n      pop\n      jump\t// out\n        /* \"#utility.yul\":1382:1472   */\n    tag_190:\n        /* \"#utility.yul\":1416:1423   */\n      0x00\n        /* \"#utility.yul\":1459:1464   */\n      dup2\n        /* \"#utility.yul\":1452:1465   */\n      iszero\n        /* \"#utility.yul\":1445:1466   */\n      iszero\n        /* \"#utility.yul\":1434:1466   */\n      swap1\n      pop\n        /* \"#utility.yul\":1382:1472   */\n      swap2\n      swap1\n      pop\n      jump\t// out\n        /* \"#utility.yul\":1478:1577   */\n    tag_191:\n        /* \"#utility.yul\":1549:1570   */\n      tag_253\n        /* \"#utility.yul\":1564:1569   */\n      dup2\n        /* \"#utility.yul\":1549:1570   */\n      tag_190\n      jump\t// in\n    tag_253:\n        /* \"#utility.yul\":1544:1547   */\n      dup3\n        /* \"#utility.yul\":1537:1571   */\n      mstore\n        /* \"#utility.yul\":1478:1577   */\n      pop\n      pop\n      jump\t// out\n        /* \"#utility.yul\":1583:1691   */\n    tag_192:\n        /* \"#utility.yul\":1660:1684   */\n      tag_255\n        /* \"#utility.yul\":1678:1683   */\n      dup2\n        /* \"#utility.yul\":1660:1684   */\n      tag_185\n      jump\t// in\n    tag_255:\n        /* \"#utility.yul\":1655:1658   */\n      dup3\n        /* \"#utility.yul\":1648:1685   */\n      mstore\n        /* \"#utility.yul\":1583:1691   */\n      pop\n      pop\n      jump\t// out\n        /* \"#utility.yul\":1697:1774   */\n    tag_193:\n        /* \"#utility.yul\":1734:1741   */\n      0x00\n        /* \"#utility.yul\":1763:1768   */\n      dup2\n        /* \"#utility.yul\":1752:1768   */\n      swap1\n      pop\n        /* \"#utility.yul\":1697:1774   */\n      swap2\n      swap1\n      pop\n      jump\t// out\n        /* \"#utility.yul\":1780:1888   */\n    tag_194:\n        /* \"#utility.yul\":1857:1881   */\n      tag_258\n        /* \"#utility.yul\":1875:1880   */\n      dup2\n        /* \"#utility.yul\":1857:1881   */\n      tag_193\n      jump\t// in\n    tag_258:\n        /* \"#utility.yul\":1852:1855   */\n      dup3\n        /* \"#utility.yul\":1845:1882   */\n      mstore\n        /* \"#utility.yul\":1780:1888   */\n      pop\n      pop\n      jump\t// out\n        /* \"#utility.yul\":1950:3154   */\n    tag_195:\n        /* \"#utility.yul\":2089:2093   */\n      0xc0\n        /* \"#utility.yul\":2084:2087   */\n      dup3\n        /* \"#utility.yul\":2080:2094   */\n      add\n        /* \"#utility.yul\":2178:2182   */\n      0x00\n        /* \"#utility.yul\":2171:2176   */\n      dup3\n        /* \"#utility.yul\":2167:2183   */\n      add\n        /* \"#utility.yul\":2161:2184   */\n      mload\n        /* \"#utility.yul\":2197:2258   */\n      tag_260\n        /* \"#utility.yul\":2252:2256   */\n      0x00\n        /* \"#utility.yul\":2247:2250   */\n      dup6\n        /* \"#utility.yul\":2243:2257   */\n      add\n        /* \"#utility.yul\":2229:2241   */\n      dup3\n        /* \"#utility.yul\":2197:2258   */\n      tag_189\n      jump\t// in\n    tag_260:\n        /* \"#utility.yul\":2104:2268   */\n      pop\n        /* \"#utility.yul\":2360:2364   */\n      0x20\n        /* \"#utility.yul\":2353:2358   */\n      dup3\n        /* \"#utility.yul\":2349:2365   */\n      add\n        /* \"#utility.yul\":2343:2366   */\n      mload\n        /* \"#utility.yul\":2379:2440   */\n      tag_261\n        /* \"#utility.yul\":2434:2438   */\n      0x20\n        /* \"#utility.yul\":2429:2432   */\n      dup6\n        /* \"#utility.yul\":2425:2439   */\n      add\n        /* \"#utility.yul\":2411:2423   */\n      dup3\n        /* \"#utility.yul\":2379:2440   */\n      tag_189\n      jump\t// in\n    tag_261:\n        /* \"#utility.yul\":2278:2450   */\n      pop\n        /* \"#utility.yul\":2533:2537   */\n      0x40\n        /* \"#utility.yul\":2526:2531   */\n      dup3\n        /* \"#utility.yul\":2522:2538   */\n      add\n        /* \"#utility.yul\":2516:2539   */\n      mload\n        /* \"#utility.yul\":2552:2609   */\n      tag_262\n        /* \"#utility.yul\":2603:2607   */\n      0x40\n        /* \"#utility.yul\":2598:2601   */\n      dup6\n        /* \"#utility.yul\":2594:2608   */\n      add\n        /* \"#utility.yul\":2580:2592   */\n      dup3\n        /* \"#utility.yul\":2552:2609   */\n      tag_191\n      jump\t// in\n    tag_262:\n        /* \"#utility.yul\":2460:2619   */\n      pop\n        /* \"#utility.yul\":2704:2708   */\n      0x60\n        /* \"#utility.yul\":2697:2702   */\n      dup3\n        /* \"#utility.yul\":2693:2709   */\n      add\n        /* \"#utility.yul\":2687:2710   */\n      mload\n        /* \"#utility.yul\":2723:2780   */\n      tag_263\n        /* \"#utility.yul\":2774:2778   */\n      0x60\n        /* \"#utility.yul\":2769:2772   */\n      dup6\n        /* \"#utility.yul\":2765:2779   */\n      add\n        /* \"#utility.yul\":2751:2763   */\n      dup3\n        /* \"#utility.yul\":2723:2780   */\n      tag_191\n      jump\t// in\n    tag_263:\n        /* \"#utility.yul\":2629:2790   */\n      pop\n        /* \"#utility.yul\":2876:2880   */\n      0x80\n        /* \"#utility.yul\":2869:2874   */\n      dup3\n        /* \"#utility.yul\":2865:2881   */\n      add\n        /* \"#utility.yul\":2859:2882   */\n      mload\n        /* \"#utility.yul\":2895:2958   */\n      tag_264\n        /* \"#utility.yul\":2952:2956   */\n      0x80\n        /* \"#utility.yul\":2947:2950   */\n      dup6\n        /* \"#utility.yul\":2943:2957   */\n      add\n        /* \"#utility.yul\":2929:2941   */\n      dup3\n        /* \"#utility.yul\":2895:2958   */\n      tag_192\n      jump\t// in\n    tag_264:\n        /* \"#utility.yul\":2800:2968   */\n      pop\n        /* \"#utility.yul\":3055:3059   */\n      0xa0\n        /* \"#utility.yul\":3048:3053   */\n      dup3\n        /* \"#utility.yul\":3044:3060   */\n      add\n        /* \"#utility.yul\":3038:3061   */\n      mload\n        /* \"#utility.yul\":3074:3137   */\n      tag_265\n        /* \"#utility.yul\":3131:3135   */\n      0xa0\n        /* \"#utility.yul\":3126:3129   */\n      dup6\n        /* \"#utility.yul\":3122:3136   */\n      add\n        /* \"#utility.yul\":3108:3120   */\n      dup3\n        /* \"#utility.yul\":3074:3137   */\n      tag_194\n      jump\t// in\n    tag_265:\n        /* \"#utility.yul\":2978:3147   */\n      pop\n        /* \"#utility.yul\":2058:3154   */\n      pop\n        /* \"#utility.yul\":1950:3154   */\n      pop\n      pop\n      jump\t// out\n        /* \"#utility.yul\":3160:3467   */\n    tag_23:\n        /* \"#utility.yul\":3295:3299   */\n      0x00\n        /* \"#utility.yul\":3333:3336   */\n      0xc0\n        /* \"#utility.yul\":3322:3331   */\n      dup3\n        /* \"#utility.yul\":3318:3337   */\n      add\n        /* \"#utility.yul\":3310:3337   */\n      swap1\n      pop\n        /* \"#utility.yul\":3347:3460   */\n      tag_267\n        /* \"#utility.yul\":3457:3458   */\n      0x00\n        /* \"#utility.yul\":3446:3455   */\n      dup4\n        /* \"#utility.yul\":3442:3459   */\n      add\n        /* \"#utility.yul\":3433:3439   */\n      dup5\n        /* \"#utility.yul\":3347:3460   */\n      tag_195\n      jump\t// in\n    tag_267:\n        /* \"#utility.yul\":3160:3467   */\n      swap3\n      swap2\n      pop\n      pop\n      jump\t// out\n        /* \"#utility.yul\":3473:3591   */\n    tag_196:\n        /* \"#utility.yul\":3560:3584   */\n      tag_269\n        /* \"#utility.yul\":3578:3583   */\n      dup2\n        /* \"#utility.yul\":3560:3584   */\n      tag_185\n      jump\t// in\n    tag_269:\n        /* \"#utility.yul\":3555:3558   */\n      dup3\n        /* \"#utility.yul\":3548:3585   */\n      mstore\n        /* \"#utility.yul\":3473:3591   */\n      pop\n      pop\n      jump\t// out\n        /* \"#utility.yul\":3597:3715   */\n    tag_197:\n        /* \"#utility.yul\":3684:3708   */\n      tag_271\n        /* \"#utility.yul\":3702:3707   */\n      dup2\n        /* \"#utility.yul\":3684:3708   */\n      tag_193\n      jump\t// in\n    tag_271:\n        /* \"#utility.yul\":3679:3682   */\n      dup3\n        /* \"#utility.yul\":3672:3709   */\n      mstore\n        /* \"#utility.yul\":3597:3715   */\n      pop\n      pop\n      jump\t// out\n        /* \"#utility.yul\":3721:4163   */\n    tag_27:\n        /* \"#utility.yul\":3870:3874   */\n      0x00\n        /* \"#utility.yul\":3908:3910   */\n      0x60\n        /* \"#utility.yul\":3897:3906   */\n      dup3\n        /* \"#utility.yul\":3893:3911   */\n      add\n        /* \"#utility.yul\":3885:3911   */\n      swap1\n      pop\n        /* \"#utility.yul\":3921:3992   */\n      tag_273\n        /* \"#utility.yul\":3989:3990   */\n      0x00\n        /* \"#utility.yul\":3978:3987   */\n      dup4\n        /* \"#utility.yul\":3974:3991   */\n      add\n        /* \"#utility.yul\":3965:3971   */\n      dup7\n        /* \"#utility.yul\":3921:3992   */\n      tag_196\n      jump\t// in\n    tag_273:\n        /* \"#utility.yul\":4002:4074   */\n      tag_274\n        /* \"#utility.yul\":4070:4072   */\n      0x20\n        /* \"#utility.yul\":4059:4068   */\n      dup4\n        /* \"#utility.yul\":4055:4073   */\n      add\n        /* \"#utility.yul\":4046:4052   */\n      dup6\n        /* \"#utility.yul\":4002:4074   */\n      tag_196\n      jump\t// in\n    tag_274:\n        /* \"#utility.yul\":4084:4156   */\n      tag_275\n        /* \"#utility.yul\":4152:4154   */\n      0x40\n        /* \"#utility.yul\":4141:4150   */\n      dup4\n        /* \"#utility.yul\":4137:4155   */\n      add\n        /* \"#utility.yul\":4128:4134   */\n      dup5\n        /* \"#utility.yul\":4084:4156   */\n      tag_197\n      jump\t// in\n    tag_275:\n        /* \"#utility.yul\":3721:4163   */\n      swap5\n      swap4\n      pop\n      pop\n      pop\n      pop\n      jump\t// out\n        /* \"#utility.yul\":4169:4285   */\n    tag_198:\n        /* \"#utility.yul\":4239:4260   */\n      tag_277\n        /* \"#utility.yul\":4254:4259   */\n      dup2\n        /* \"#utility.yul\":4239:4260   */\n      tag_190\n      jump\t// in\n    tag_277:\n        /* \"#utility.yul\":4232:4237   */\n      dup2\n        /* \"#utility.yul\":4229:4261   */\n      eq\n        /* \"#utility.yul\":4219:4279   */\n      tag_278\n      jumpi\n        /* \"#utility.yul\":4275:4276   */\n      0x00\n        /* \"#utility.yul\":4272:4273   */\n      dup1\n        /* \"#utility.yul\":4265:4277   */\n      revert\n        /* \"#utility.yul\":4219:4279   */\n    tag_278:\n        /* \"#utility.yul\":4169:4285   */\n      pop\n      jump\t// out\n        /* \"#utility.yul\":4291:4424   */\n    tag_199:\n        /* \"#utility.yul\":4334:4339   */\n      0x00\n        /* \"#utility.yul\":4372:4378   */\n      dup2\n        /* \"#utility.yul\":4359:4379   */\n      calldataload\n        /* \"#utility.yul\":4350:4379   */\n      swap1\n      pop\n        /* \"#utility.yul\":4388:4418   */\n      tag_280\n        /* \"#utility.yul\":4412:4417   */\n      dup2\n        /* \"#utility.yul\":4388:4418   */\n      tag_198\n      jump\t// in\n    tag_280:\n        /* \"#utility.yul\":4291:4424   */\n      swap3\n      swap2\n      pop\n      pop\n      jump\t// out\n        /* \"#utility.yul\":4430:4753   */\n    tag_30:\n        /* \"#utility.yul\":4486:4492   */\n      0x00\n        /* \"#utility.yul\":4535:4537   */\n      0x20\n        /* \"#utility.yul\":4523:4532   */\n      dup3\n        /* \"#utility.yul\":4514:4521   */\n      dup5\n        /* \"#utility.yul\":4510:4533   */\n      sub\n        /* \"#utility.yul\":4506:4538   */\n      slt\n        /* \"#utility.yul\":4503:4622   */\n      iszero\n      tag_282\n      jumpi\n        /* \"#utility.yul\":4541:4620   */\n      tag_283\n      tag_182\n      jump\t// in\n    tag_283:\n        /* \"#utility.yul\":4503:4622   */\n    tag_282:\n        /* \"#utility.yul\":4661:4662   */\n      0x00\n        /* \"#utility.yul\":4686:4736   */\n      tag_284\n        /* \"#utility.yul\":4728:4735   */\n      dup5\n        /* \"#utility.yul\":4719:4725   */\n      dup3\n        /* \"#utility.yul\":4708:4717   */\n      dup6\n        /* \"#utility.yul\":4704:4726   */\n      add\n        /* \"#utility.yul\":4686:4736   */\n      tag_199\n      jump\t// in\n    tag_284:\n        /* \"#utility.yul\":4676:4736   */\n      swap2\n      pop\n        /* \"#utility.yul\":4632:4746   */\n      pop\n        /* \"#utility.yul\":4430:4753   */\n      swap3\n      swap2\n      pop\n      pop\n      jump\t// out\n        /* \"#utility.yul\":4759:4981   */\n    tag_38:\n        /* \"#utility.yul\":4852:4856   */\n      0x00\n        /* \"#utility.yul\":4890:4892   */\n      0x20\n        /* \"#utility.yul\":4879:4888   */\n      dup3\n        /* \"#utility.yul\":4875:4893   */\n      add\n        /* \"#utility.yul\":4867:4893   */\n      swap1\n      pop\n        /* \"#utility.yul\":4903:4974   */\n      tag_286\n        /* \"#utility.yul\":4971:4972   */\n      0x00\n        /* \"#utility.yul\":4960:4969   */\n      dup4\n        /* \"#utility.yul\":4956:4973   */\n      add\n        /* \"#utility.yul\":4947:4953   */\n      dup5\n        /* \"#utility.yul\":4903:4974   */\n      tag_197\n      jump\t// in\n    tag_286:\n        /* \"#utility.yul\":4759:4981   */\n      swap3\n      swap2\n      pop\n      pop\n      jump\t// out\n        /* \"#utility.yul\":4987:5064   */\n    tag_200:\n        /* \"#utility.yul\":5024:5031   */\n      0x00\n        /* \"#utility.yul\":5053:5058   */\n      dup2\n        /* \"#utility.yul\":5042:5058   */\n      swap1\n      pop\n        /* \"#utility.yul\":4987:5064   */\n      swap2\n      swap1\n      pop\n      jump\t// out\n        /* \"#utility.yul\":5070:5188   */\n    tag_201:\n        /* \"#utility.yul\":5157:5181   */\n      tag_289\n        /* \"#utility.yul\":5175:5180   */\n      dup2\n        /* \"#utility.yul\":5157:5181   */\n      tag_200\n      jump\t// in\n    tag_289:\n        /* \"#utility.yul\":5152:5155   */\n      dup3\n        /* \"#utility.yul\":5145:5182   */\n      mstore\n        /* \"#utility.yul\":5070:5188   */\n      pop\n      pop\n      jump\t// out\n        /* \"#utility.yul\":5194:5309   */\n    tag_202:\n        /* \"#utility.yul\":5279:5302   */\n      tag_291\n        /* \"#utility.yul\":5296:5301   */\n      dup2\n        /* \"#utility.yul\":5279:5302   */\n      tag_188\n      jump\t// in\n    tag_291:\n        /* \"#utility.yul\":5274:5277   */\n      dup3\n        /* \"#utility.yul\":5267:5303   */\n      mstore\n        /* \"#utility.yul\":5194:5309   */\n      pop\n      pop\n      jump\t// out\n        /* \"#utility.yul\":5315:5749   */\n    tag_42:\n        /* \"#utility.yul\":5460:5464   */\n      0x00\n        /* \"#utility.yul\":5498:5500   */\n      0x60\n        /* \"#utility.yul\":5487:5496   */\n      dup3\n        /* \"#utility.yul\":5483:5501   */\n      add\n        /* \"#utility.yul\":5475:5501   */\n      swap1\n      pop\n        /* \"#utility.yul\":5511:5582   */\n      tag_293\n        /* \"#utility.yul\":5579:5580   */\n      0x00\n        /* \"#utility.yul\":5568:5577   */\n      dup4\n        /* \"#utility.yul\":5564:5581   */\n      add\n        /* \"#utility.yul\":5555:5561   */\n      dup7\n        /* \"#utility.yul\":5511:5582   */\n      tag_201\n      jump\t// in\n    tag_293:\n        /* \"#utility.yul\":5592:5662   */\n      tag_294\n        /* \"#utility.yul\":5658:5660   */\n      0x20\n        /* \"#utility.yul\":5647:5656   */\n      dup4\n        /* \"#utility.yul\":5643:5661   */\n      add\n        /* \"#utility.yul\":5634:5640   */\n      dup6\n        /* \"#utility.yul\":5592:5662   */\n      tag_202\n      jump\t// in\n    tag_294:\n        /* \"#utility.yul\":5672:5742   */\n      tag_295\n        /* \"#utility.yul\":5738:5740   */\n      0x40\n        /* \"#utility.yul\":5727:5736   */\n      dup4\n        /* \"#utility.yul\":5723:5741   */\n      add\n        /* \"#utility.yul\":5714:5720   */\n      dup5\n        /* \"#utility.yul\":5672:5742   */\n      tag_202\n      jump\t// in\n    tag_295:\n        /* \"#utility.yul\":5315:5749   */\n      swap5\n      swap4\n      pop\n      pop\n      pop\n      pop\n      jump\t// out\n        /* \"#utility.yul\":5755:5864   */\n    tag_203:\n        /* \"#utility.yul\":5836:5857   */\n      tag_297\n        /* \"#utility.yul\":5851:5856   */\n      dup2\n        /* \"#utility.yul\":5836:5857   */\n      tag_190\n      jump\t// in\n    tag_297:\n        /* \"#utility.yul\":5831:5834   */\n      dup3\n        /* \"#utility.yul\":5824:5858   */\n      mstore\n        /* \"#utility.yul\":5755:5864   */\n      pop\n      pop\n      jump\t// out\n        /* \"#utility.yul\":5870:6080   */\n    tag_47:\n        /* \"#utility.yul\":5957:5961   */\n      0x00\n        /* \"#utility.yul\":5995:5997   */\n      0x20\n        /* \"#utility.yul\":5984:5993   */\n      dup3\n        /* \"#utility.yul\":5980:5998   */\n      add\n        /* \"#utility.yul\":5972:5998   */\n      swap1\n      pop\n        /* \"#utility.yul\":6008:6073   */\n      tag_299\n        /* \"#utility.yul\":6070:6071   */\n      0x00\n        /* \"#utility.yul\":6059:6068   */\n      dup4\n        /* \"#utility.yul\":6055:6072   */\n      add\n        /* \"#utility.yul\":6046:6052   */\n      dup5\n        /* \"#utility.yul\":6008:6073   */\n      tag_203\n      jump\t// in\n    tag_299:\n        /* \"#utility.yul\":5870:6080   */\n      swap3\n      swap2\n      pop\n      pop\n      jump\t// out\n        /* \"#utility.yul\":6086:6179   */\n    tag_204:\n        /* \"#utility.yul\":6122:6129   */\n      0x00\n        /* \"#utility.yul\":6162:6172   */\n      0xffffffff\n        /* \"#utility.yul\":6155:6160   */\n      dup3\n        /* \"#utility.yul\":6151:6173   */\n      and\n        /* \"#utility.yul\":6140:6173   */\n      swap1\n      pop\n        /* \"#utility.yul\":6086:6179   */\n      swap2\n      swap1\n      pop\n      jump\t// out\n        /* \"#utility.yul\":6185:6300   */\n    tag_205:\n        /* \"#utility.yul\":6270:6293   */\n      tag_302\n        /* \"#utility.yul\":6287:6292   */\n      dup2\n        /* \"#utility.yul\":6270:6293   */\n      tag_204\n      jump\t// in\n    tag_302:\n        /* \"#utility.yul\":6265:6268   */\n      dup3\n        /* \"#utility.yul\":6258:6294   */\n      mstore\n        /* \"#utility.yul\":6185:6300   */\n      pop\n      pop\n      jump\t// out\n        /* \"#utility.yul\":6306:6403   */\n    tag_206:\n        /* \"#utility.yul\":6342:6349   */\n      0x00\n        /* \"#utility.yul\":6382:6396   */\n      0xffffffffffff\n        /* \"#utility.yul\":6375:6380   */\n      dup3\n        /* \"#utility.yul\":6371:6397   */\n      and\n        /* \"#utility.yul\":6360:6397   */\n      swap1\n      pop\n        /* \"#utility.yul\":6306:6403   */\n      swap2\n      swap1\n      pop\n      jump\t// out\n        /* \"#utility.yul\":6409:6524   */\n    tag_207:\n        /* \"#utility.yul\":6494:6517   */\n      tag_305\n        /* \"#utility.yul\":6511:6516   */\n      dup2\n        /* \"#utility.yul\":6494:6517   */\n      tag_206\n      jump\t// in\n    tag_305:\n        /* \"#utility.yul\":6489:6492   */\n      dup3\n        /* \"#utility.yul\":6482:6518   */\n      mstore\n        /* \"#utility.yul\":6409:6524   */\n      pop\n      pop\n      jump\t// out\n        /* \"#utility.yul\":6530:7067   */\n    tag_51:\n        /* \"#utility.yul\":6699:6703   */\n      0x00\n        /* \"#utility.yul\":6737:6740   */\n      0x80\n        /* \"#utility.yul\":6726:6735   */\n      dup3\n        /* \"#utility.yul\":6722:6741   */\n      add\n        /* \"#utility.yul\":6714:6741   */\n      swap1\n      pop\n        /* \"#utility.yul\":6751:6820   */\n      tag_307\n        /* \"#utility.yul\":6817:6818   */\n      0x00\n        /* \"#utility.yul\":6806:6815   */\n      dup4\n        /* \"#utility.yul\":6802:6819   */\n      add\n        /* \"#utility.yul\":6793:6799   */\n      dup8\n        /* \"#utility.yul\":6751:6820   */\n      tag_202\n      jump\t// in\n    tag_307:\n        /* \"#utility.yul\":6830:6900   */\n      tag_308\n        /* \"#utility.yul\":6896:6898   */\n      0x20\n        /* \"#utility.yul\":6885:6894   */\n      dup4\n        /* \"#utility.yul\":6881:6899   */\n      add\n        /* \"#utility.yul\":6872:6878   */\n      dup7\n        /* \"#utility.yul\":6830:6900   */\n      tag_205\n      jump\t// in\n    tag_308:\n        /* \"#utility.yul\":6910:6980   */\n      tag_309\n        /* \"#utility.yul\":6976:6978   */\n      0x40\n        /* \"#utility.yul\":6965:6974   */\n      dup4\n        /* \"#utility.yul\":6961:6979   */\n      add\n        /* \"#utility.yul\":6952:6958   */\n      dup6\n        /* \"#utility.yul\":6910:6980   */\n      tag_207\n      jump\t// in\n    tag_309:\n        /* \"#utility.yul\":6990:7060   */\n      tag_310\n        /* \"#utility.yul\":7056:7058   */\n      0x60\n        /* \"#utility.yul\":7045:7054   */\n      dup4\n        /* \"#utility.yul\":7041:7059   */\n      add\n        /* \"#utility.yul\":7032:7038   */\n      dup5\n        /* \"#utility.yul\":6990:7060   */\n      tag_207\n      jump\t// in\n    tag_310:\n        /* \"#utility.yul\":6530:7067   */\n      swap6\n      swap5\n      pop\n      pop\n      pop\n      pop\n      pop\n      jump\t// out\n        /* \"#utility.yul\":7073:7172   */\n    tag_208:\n        /* \"#utility.yul\":7125:7131   */\n      0x00\n        /* \"#utility.yul\":7159:7164   */\n      dup2\n        /* \"#utility.yul\":7153:7165   */\n      mload\n        /* \"#utility.yul\":7143:7165   */\n      swap1\n      pop\n        /* \"#utility.yul\":7073:7172   */\n      swap2\n      swap1\n      pop\n      jump\t// out\n        /* \"#utility.yul\":7178:7347   */\n    tag_209:\n        /* \"#utility.yul\":7262:7273   */\n      0x00\n        /* \"#utility.yul\":7296:7302   */\n      dup3\n        /* \"#utility.yul\":7291:7294   */\n      dup3\n        /* \"#utility.yul\":7284:7303   */\n      mstore\n        /* \"#utility.yul\":7336:7340   */\n      0x20\n        /* \"#utility.yul\":7331:7334   */\n      dup3\n        /* \"#utility.yul\":7327:7341   */\n      add\n        /* \"#utility.yul\":7312:7341   */\n      swap1\n      pop\n        /* \"#utility.yul\":7178:7347   */\n      swap3\n      swap2\n      pop\n      pop\n      jump\t// out\n        /* \"#utility.yul\":7353:7599   */\n    tag_210:\n        /* \"#utility.yul\":7434:7435   */\n      0x00\n        /* \"#utility.yul\":7444:7557   */\n    tag_314:\n        /* \"#utility.yul\":7458:7464   */\n      dup4\n        /* \"#utility.yul\":7455:7456   */\n      dup2\n        /* \"#utility.yul\":7452:7465   */\n      lt\n        /* \"#utility.yul\":7444:7557   */\n      iszero\n      tag_316\n      jumpi\n        /* \"#utility.yul\":7543:7544   */\n      dup1\n        /* \"#utility.yul\":7538:7541   */\n      dup3\n        /* \"#utility.yul\":7534:7545   */\n      add\n        /* \"#utility.yul\":7528:7546   */\n      mload\n        /* \"#utility.yul\":7524:7525   */\n      dup2\n        /* \"#utility.yul\":7519:7522   */\n      dup5\n        /* \"#utility.yul\":7515:7526   */\n      add\n        /* \"#utility.yul\":7508:7547   */\n      mstore\n        /* \"#utility.yul\":7480:7482   */\n      0x20\n        /* \"#utility.yul\":7477:7478   */\n      dup2\n        /* \"#utility.yul\":7473:7483   */\n      add\n        /* \"#utility.yul\":7468:7483   */\n      swap1\n      pop\n        /* \"#utility.yul\":7444:7557   */\n      jump(tag_314)\n    tag_316:\n        /* \"#utility.yul\":7591:7592   */\n      0x00\n        /* \"#utility.yul\":7582:7588   */\n      dup5\n        /* \"#utility.yul\":7577:7580   */\n      dup5\n        /* \"#utility.yul\":7573:7589   */\n      add\n        /* \"#utility.yul\":7566:7593   */\n      mstore\n        /* \"#utility.yul\":7415:7599   */\n      pop\n        /* \"#utility.yul\":7353:7599   */\n      pop\n      pop\n      pop\n      jump\t// out\n        /* \"#utility.yul\":7605:7707   */\n    tag_211:\n        /* \"#utility.yul\":7646:7652   */\n      0x00\n        /* \"#utility.yul\":7697:7699   */\n      0x1f\n        /* \"#utility.yul\":7693:7700   */\n      not\n        /* \"#utility.yul\":7688:7690   */\n      0x1f\n        /* \"#utility.yul\":7681:7686   */\n      dup4\n        /* \"#utility.yul\":7677:7691   */\n      add\n        /* \"#utility.yul\":7673:7701   */\n      and\n        /* \"#utility.yul\":7663:7701   */\n      swap1\n      pop\n        /* \"#utility.yul\":7605:7707   */\n      swap2\n      swap1\n      pop\n      jump\t// out\n        /* \"#utility.yul\":7713:8090   */\n    tag_212:\n        /* \"#utility.yul\":7801:7804   */\n      0x00\n        /* \"#utility.yul\":7829:7868   */\n      tag_319\n        /* \"#utility.yul\":7862:7867   */\n      dup3\n        /* \"#utility.yul\":7829:7868   */\n      tag_208\n      jump\t// in\n    tag_319:\n        /* \"#utility.yul\":7884:7955   */\n      tag_320\n        /* \"#utility.yul\":7948:7954   */\n      dup2\n        /* \"#utility.yul\":7943:7946   */\n      dup6\n        /* \"#utility.yul\":7884:7955   */\n      tag_209\n      jump\t// in\n    tag_320:\n        /* \"#utility.yul\":7877:7955   */\n      swap4\n      pop\n        /* \"#utility.yul\":7964:8029   */\n      tag_321\n        /* \"#utility.yul\":8022:8028   */\n      dup2\n        /* \"#utility.yul\":8017:8020   */\n      dup6\n        /* \"#utility.yul\":8010:8014   */\n      0x20\n        /* \"#utility.yul\":8003:8008   */\n      dup7\n        /* \"#utility.yul\":7999:8015   */\n      add\n        /* \"#utility.yul\":7964:8029   */\n      tag_210\n      jump\t// in\n    tag_321:\n        /* \"#utility.yul\":8054:8083   */\n      tag_322\n        /* \"#utility.yul\":8076:8082   */\n      dup2\n        /* \"#utility.yul\":8054:8083   */\n      tag_211\n      jump\t// in\n    tag_322:\n        /* \"#utility.yul\":8049:8052   */\n      dup5\n        /* \"#utility.yul\":8045:8084   */\n      add\n        /* \"#utility.yul\":8038:8084   */\n      swap2\n      pop\n        /* \"#utility.yul\":7805:8090   */\n      pop\n        /* \"#utility.yul\":7713:8090   */\n      swap3\n      swap2\n      pop\n      pop\n      jump\t// out\n        /* \"#utility.yul\":8096:8831   */\n    tag_55:\n        /* \"#utility.yul\":8313:8317   */\n      0x00\n        /* \"#utility.yul\":8351:8354   */\n      0x80\n        /* \"#utility.yul\":8340:8349   */\n      dup3\n        /* \"#utility.yul\":8336:8355   */\n      add\n        /* \"#utility.yul\":8328:8355   */\n      swap1\n      pop\n        /* \"#utility.yul\":8401:8410   */\n      dup2\n        /* \"#utility.yul\":8395:8399   */\n      dup2\n        /* \"#utility.yul\":8391:8411   */\n      sub\n        /* \"#utility.yul\":8387:8388   */\n      0x00\n        /* \"#utility.yul\":8376:8385   */\n      dup4\n        /* \"#utility.yul\":8372:8389   */\n      add\n        /* \"#utility.yul\":8365:8412   */\n      mstore\n        /* \"#utility.yul\":8429:8507   */\n      tag_324\n        /* \"#utility.yul\":8502:8506   */\n      dup2\n        /* \"#utility.yul\":8493:8499   */\n      dup8\n        /* \"#utility.yul\":8429:8507   */\n      tag_212\n      jump\t// in\n    tag_324:\n        /* \"#utility.yul\":8421:8507   */\n      swap1\n      pop\n        /* \"#utility.yul\":8554:8563   */\n      dup2\n        /* \"#utility.yul\":8548:8552   */\n      dup2\n        /* \"#utility.yul\":8544:8564   */\n      sub\n        /* \"#utility.yul\":8539:8541   */\n      0x20\n        /* \"#utility.yul\":8528:8537   */\n      dup4\n        /* \"#utility.yul\":8524:8542   */\n      add\n        /* \"#utility.yul\":8517:8565   */\n      mstore\n        /* \"#utility.yul\":8582:8660   */\n      tag_325\n        /* \"#utility.yul\":8655:8659   */\n      dup2\n        /* \"#utility.yul\":8646:8652   */\n      dup7\n        /* \"#utility.yul\":8582:8660   */\n      tag_212\n      jump\t// in\n    tag_325:\n        /* \"#utility.yul\":8574:8660   */\n      swap1\n      pop\n        /* \"#utility.yul\":8670:8742   */\n      tag_326\n        /* \"#utility.yul\":8738:8740   */\n      0x40\n        /* \"#utility.yul\":8727:8736   */\n      dup4\n        /* \"#utility.yul\":8723:8741   */\n      add\n        /* \"#utility.yul\":8714:8720   */\n      dup6\n        /* \"#utility.yul\":8670:8742   */\n      tag_201\n      jump\t// in\n    tag_326:\n        /* \"#utility.yul\":8752:8824   */\n      tag_327\n        /* \"#utility.yul\":8820:8822   */\n      0x60\n        /* \"#utility.yul\":8809:8818   */\n      dup4\n        /* \"#utility.yul\":8805:8823   */\n      add\n        /* \"#utility.yul\":8796:8802   */\n      dup5\n        /* \"#utility.yul\":8752:8824   */\n      tag_196\n      jump\t// in\n    tag_327:\n        /* \"#utility.yul\":8096:8831   */\n      swap6\n      swap5\n      pop\n      pop\n      pop\n      pop\n      pop\n      jump\t// out\n        /* \"#utility.yul\":8837:8935   */\n    tag_213:\n        /* \"#utility.yul\":8888:8894   */\n      0x00\n        /* \"#utility.yul\":8922:8927   */\n      dup2\n        /* \"#utility.yul\":8916:8928   */\n      mload\n        /* \"#utility.yul\":8906:8928   */\n      swap1\n      pop\n        /* \"#utility.yul\":8837:8935   */\n      swap2\n      swap1\n      pop\n      jump\t// out\n        /* \"#utility.yul\":8941:9109   */\n    tag_214:\n        /* \"#utility.yul\":9024:9035   */\n      0x00\n        /* \"#utility.yul\":9058:9064   */\n      dup3\n        /* \"#utility.yul\":9053:9056   */\n      dup3\n        /* \"#utility.yul\":9046:9065   */\n      mstore\n        /* \"#utility.yul\":9098:9102   */\n      0x20\n        /* \"#utility.yul\":9093:9096   */\n      dup3\n        /* \"#utility.yul\":9089:9103   */\n      add\n        /* \"#utility.yul\":9074:9103   */\n      swap1\n      pop\n        /* \"#utility.yul\":8941:9109   */\n      swap3\n      swap2\n      pop\n      pop\n      jump\t// out\n        /* \"#utility.yul\":9115:9488   */\n    tag_215:\n        /* \"#utility.yul\":9201:9204   */\n      0x00\n        /* \"#utility.yul\":9229:9267   */\n      tag_331\n        /* \"#utility.yul\":9261:9266   */\n      dup3\n        /* \"#utility.yul\":9229:9267   */\n      tag_213\n      jump\t// in\n    tag_331:\n        /* \"#utility.yul\":9283:9353   */\n      tag_332\n        /* \"#utility.yul\":9346:9352   */\n      dup2\n        /* \"#utility.yul\":9341:9344   */\n      dup6\n        /* \"#utility.yul\":9283:9353   */\n      tag_214\n      jump\t// in\n    tag_332:\n        /* \"#utility.yul\":9276:9353   */\n      swap4\n      pop\n        /* \"#utility.yul\":9362:9427   */\n      tag_333\n        /* \"#utility.yul\":9420:9426   */\n      dup2\n        /* \"#utility.yul\":9415:9418   */\n      dup6\n        /* \"#utility.yul\":9408:9412   */\n      0x20\n        /* \"#utility.yul\":9401:9406   */\n      dup7\n        /* \"#utility.yul\":9397:9413   */\n      add\n        /* \"#utility.yul\":9362:9427   */\n      tag_210\n      jump\t// in\n    tag_333:\n        /* \"#utility.yul\":9452:9481   */\n      tag_334\n        /* \"#utility.yul\":9474:9480   */\n      dup2\n        /* \"#utility.yul\":9452:9481   */\n      tag_211\n      jump\t// in\n    tag_334:\n        /* \"#utility.yul\":9447:9450   */\n      dup5\n        /* \"#utility.yul\":9443:9482   */\n      add\n        /* \"#utility.yul\":9436:9482   */\n      swap2\n      pop\n        /* \"#utility.yul\":9205:9488   */\n      pop\n        /* \"#utility.yul\":9115:9488   */\n      swap3\n      swap2\n      pop\n      pop\n      jump\t// out\n        /* \"#utility.yul\":9494:9803   */\n    tag_68:\n        /* \"#utility.yul\":9605:9609   */\n      0x00\n        /* \"#utility.yul\":9643:9645   */\n      0x20\n        /* \"#utility.yul\":9632:9641   */\n      dup3\n        /* \"#utility.yul\":9628:9646   */\n      add\n        /* \"#utility.yul\":9620:9646   */\n      swap1\n      pop\n        /* \"#utility.yul\":9692:9701   */\n      dup2\n        /* \"#utility.yul\":9686:9690   */\n      dup2\n        /* \"#utility.yul\":9682:9702   */\n      sub\n        /* \"#utility.yul\":9678:9679   */\n      0x00\n        /* \"#utility.yul\":9667:9676   */\n      dup4\n        /* \"#utility.yul\":9663:9680   */\n      add\n        /* \"#utility.yul\":9656:9703   */\n      mstore\n        /* \"#utility.yul\":9720:9796   */\n      tag_336\n        /* \"#utility.yul\":9791:9795   */\n      dup2\n        /* \"#utility.yul\":9782:9788   */\n      dup5\n        /* \"#utility.yul\":9720:9796   */\n      tag_215\n      jump\t// in\n    tag_336:\n        /* \"#utility.yul\":9712:9796   */\n      swap1\n      pop\n        /* \"#utility.yul\":9494:9803   */\n      swap3\n      swap2\n      pop\n      pop\n      jump\t// out\n        /* \"#utility.yul\":9809:10027   */\n    tag_76:\n        /* \"#utility.yul\":9900:9904   */\n      0x00\n        /* \"#utility.yul\":9938:9940   */\n      0x20\n        /* \"#utility.yul\":9927:9936   */\n      dup3\n        /* \"#utility.yul\":9923:9941   */\n      add\n        /* \"#utility.yul\":9915:9941   */\n      swap1\n      pop\n        /* \"#utility.yul\":9951:10020   */\n      tag_338\n        /* \"#utility.yul\":10017:10018   */\n      0x00\n        /* \"#utility.yul\":10006:10015   */\n      dup4\n        /* \"#utility.yul\":10002:10019   */\n      add\n        /* \"#utility.yul\":9993:9999   */\n      dup5\n        /* \"#utility.yul\":9951:10020   */\n      tag_207\n      jump\t// in\n    tag_338:\n        /* \"#utility.yul\":9809:10027   */\n      swap3\n      swap2\n      pop\n      pop\n      jump\t// out\n        /* \"#utility.yul\":10033:10197   */\n    tag_216:\n        /* \"#utility.yul\":10173:10189   */\n      0x416c726561647920766f7465642e000000000000000000000000000000000000\n        /* \"#utility.yul\":10169:10170   */\n      0x00\n        /* \"#utility.yul\":10161:10167   */\n      dup3\n        /* \"#utility.yul\":10157:10171   */\n      add\n        /* \"#utility.yul\":10150:10190   */\n      mstore\n        /* \"#utility.yul\":10033:10197   */\n      pop\n      jump\t// out\n        /* \"#utility.yul\":10203:10569   */\n    tag_217:\n        /* \"#utility.yul\":10345:10348   */\n      0x00\n        /* \"#utility.yul\":10366:10433   */\n      tag_341\n        /* \"#utility.yul\":10430:10432   */\n      0x0e\n        /* \"#utility.yul\":10425:10428   */\n      dup4\n        /* \"#utility.yul\":10366:10433   */\n      tag_209\n      jump\t// in\n    tag_341:\n        /* \"#utility.yul\":10359:10433   */\n      swap2\n      pop\n        /* \"#utility.yul\":10442:10535   */\n      tag_342\n        /* \"#utility.yul\":10531:10534   */\n      dup3\n        /* \"#utility.yul\":10442:10535   */\n      tag_216\n      jump\t// in\n    tag_342:\n        /* \"#utility.yul\":10560:10562   */\n      0x20\n        /* \"#utility.yul\":10555:10558   */\n      dup3\n        /* \"#utility.yul\":10551:10563   */\n      add\n        /* \"#utility.yul\":10544:10563   */\n      swap1\n      pop\n        /* \"#utility.yul\":10203:10569   */\n      swap2\n      swap1\n      pop\n      jump\t// out\n        /* \"#utility.yul\":10575:10994   */\n    tag_84:\n        /* \"#utility.yul\":10741:10745   */\n      0x00\n        /* \"#utility.yul\":10779:10781   */\n      0x20\n        /* \"#utility.yul\":10768:10777   */\n      dup3\n        /* \"#utility.yul\":10764:10782   */\n      add\n        /* \"#utility.yul\":10756:10782   */\n      swap1\n      pop\n        /* \"#utility.yul\":10828:10837   */\n      dup2\n        /* \"#utility.yul\":10822:10826   */\n      dup2\n        /* \"#utility.yul\":10818:10838   */\n      sub\n        /* \"#utility.yul\":10814:10815   */\n      0x00\n        /* \"#utility.yul\":10803:10812   */\n      dup4\n        /* \"#utility.yul\":10799:10816   */\n      add\n        /* \"#utility.yul\":10792:10839   */\n      mstore\n        /* \"#utility.yul\":10856:10987   */\n      tag_344\n        /* \"#utility.yul\":10982:10986   */\n      dup2\n        /* \"#utility.yul\":10856:10987   */\n      tag_217\n      jump\t// in\n    tag_344:\n        /* \"#utility.yul\":10848:10987   */\n      swap1\n      pop\n        /* \"#utility.yul\":10575:10994   */\n      swap2\n      swap1\n      pop\n      jump\t// out\n        /* \"#utility.yul\":11000:11180   */\n    tag_218:\n        /* \"#utility.yul\":11048:11125   */\n      0x4e487b7100000000000000000000000000000000000000000000000000000000\n        /* \"#utility.yul\":11045:11046   */\n      0x00\n        /* \"#utility.yul\":11038:11126   */\n      mstore\n        /* \"#utility.yul\":11145:11149   */\n      0x11\n        /* \"#utility.yul\":11142:11143   */\n      0x04\n        /* \"#utility.yul\":11135:11150   */\n      mstore\n        /* \"#utility.yul\":11169:11173   */\n      0x24\n        /* \"#utility.yul\":11166:11167   */\n      0x00\n        /* \"#utility.yul\":11159:11174   */\n      revert\n        /* \"#utility.yul\":11186:11379   */\n    tag_89:\n        /* \"#utility.yul\":11225:11228   */\n      0x00\n        /* \"#utility.yul\":11244:11263   */\n      tag_347\n        /* \"#utility.yul\":11261:11262   */\n      dup3\n        /* \"#utility.yul\":11244:11263   */\n      tag_188\n      jump\t// in\n    tag_347:\n        /* \"#utility.yul\":11239:11263   */\n      swap2\n      pop\n        /* \"#utility.yul\":11277:11296   */\n      tag_348\n        /* \"#utility.yul\":11294:11295   */\n      dup4\n        /* \"#utility.yul\":11277:11296   */\n      tag_188\n      jump\t// in\n    tag_348:\n        /* \"#utility.yul\":11272:11296   */\n      swap3\n      pop\n        /* \"#utility.yul\":11319:11320   */\n      dup3\n        /* \"#utility.yul\":11316:11317   */\n      dup3\n        /* \"#utility.yul\":11312:11321   */\n      add\n        /* \"#utility.yul\":11305:11321   */\n      swap1\n      pop\n        /* \"#utility.yul\":11342:11348   */\n      0xffff\n        /* \"#utility.yul\":11337:11340   */\n      dup2\n        /* \"#utility.yul\":11334:11349   */\n      gt\n        /* \"#utility.yul\":11331:11372   */\n      iszero\n      tag_349\n      jumpi\n        /* \"#utility.yul\":11352:11370   */\n      tag_350\n      tag_218\n      jump\t// in\n    tag_350:\n        /* \"#utility.yul\":11331:11372   */\n    tag_349:\n        /* \"#utility.yul\":11186:11379   */\n      swap3\n      swap2\n      pop\n      pop\n      jump\t// out\n        /* \"#utility.yul\":11385:11565   */\n    tag_219:\n        /* \"#utility.yul\":11525:11557   */\n      0x53656c662d64656c65676174696f6e20697320646973616c6c6f7765642e0000\n        /* \"#utility.yul\":11521:11522   */\n      0x00\n        /* \"#utility.yul\":11513:11519   */\n      dup3\n        /* \"#utility.yul\":11509:11523   */\n      add\n        /* \"#utility.yul\":11502:11558   */\n      mstore\n        /* \"#utility.yul\":11385:11565   */\n      pop\n      jump\t// out\n        /* \"#utility.yul\":11571:11937   */\n    tag_220:\n        /* \"#utility.yul\":11713:11716   */\n      0x00\n        /* \"#utility.yul\":11734:11801   */\n      tag_353\n        /* \"#utility.yul\":11798:11800   */\n      0x1e\n        /* \"#utility.yul\":11793:11796   */\n      dup4\n        /* \"#utility.yul\":11734:11801   */\n      tag_209\n      jump\t// in\n    tag_353:\n        /* \"#utility.yul\":11727:11801   */\n      swap2\n      pop\n        /* \"#utility.yul\":11810:11903   */\n      tag_354\n        /* \"#utility.yul\":11899:11902   */\n      dup3\n        /* \"#utility.yul\":11810:11903   */\n      tag_219\n      jump\t// in\n    tag_354:\n        /* \"#utility.yul\":11928:11930   */\n      0x20\n        /* \"#utility.yul\":11923:11926   */\n      dup3\n        /* \"#utility.yul\":11919:11931   */\n      add\n        /* \"#utility.yul\":11912:11931   */\n      swap1\n      pop\n        /* \"#utility.yul\":11571:11937   */\n      swap2\n      swap1\n      pop\n      jump\t// out\n        /* \"#utility.yul\":11943:12362   */\n    tag_103:\n        /* \"#utility.yul\":12109:12113   */\n      0x00\n        /* \"#utility.yul\":12147:12149   */\n      0x20\n        /* \"#utility.yul\":12136:12145   */\n      dup3\n        /* \"#utility.yul\":12132:12150   */\n      add\n        /* \"#utility.yul\":12124:12150   */\n      swap1\n      pop\n        /* \"#utility.yul\":12196:12205   */\n      dup2\n        /* \"#utility.yul\":12190:12194   */\n      dup2\n        /* \"#utility.yul\":12186:12206   */\n      sub\n        /* \"#utility.yul\":12182:12183   */\n      0x00\n        /* \"#utility.yul\":12171:12180   */\n      dup4\n        /* \"#utility.yul\":12167:12184   */\n      add\n        /* \"#utility.yul\":12160:12207   */\n      mstore\n        /* \"#utility.yul\":12224:12355   */\n      tag_356\n        /* \"#utility.yul\":12350:12354   */\n      dup2\n        /* \"#utility.yul\":12224:12355   */\n      tag_220\n      jump\t// in\n    tag_356:\n        /* \"#utility.yul\":12216:12355   */\n      swap1\n      pop\n        /* \"#utility.yul\":11943:12362   */\n      swap2\n      swap1\n      pop\n      jump\t// out\n        /* \"#utility.yul\":12368:12543   */\n    tag_221:\n        /* \"#utility.yul\":12508:12535   */\n      0x466f756e64206c6f6f7020696e2064656c65676174696f6e2e00000000000000\n        /* \"#utility.yul\":12504:12505   */\n      0x00\n        /* \"#utility.yul\":12496:12502   */\n      dup3\n        /* \"#utility.yul\":12492:12506   */\n      add\n        /* \"#utility.yul\":12485:12536   */\n      mstore\n        /* \"#utility.yul\":12368:12543   */\n      pop\n      jump\t// out\n        /* \"#utility.yul\":12549:12915   */\n    tag_222:\n        /* \"#utility.yul\":12691:12694   */\n      0x00\n        /* \"#utility.yul\":12712:12779   */\n      tag_359\n        /* \"#utility.yul\":12776:12778   */\n      0x19\n        /* \"#utility.yul\":12771:12774   */\n      dup4\n        /* \"#utility.yul\":12712:12779   */\n      tag_209\n      jump\t// in\n    tag_359:\n        /* \"#utility.yul\":12705:12779   */\n      swap2\n      pop\n        /* \"#utility.yul\":12788:12881   */\n      tag_360\n        /* \"#utility.yul\":12877:12880   */\n      dup3\n        /* \"#utility.yul\":12788:12881   */\n      tag_221\n      jump\t// in\n    tag_360:\n        /* \"#utility.yul\":12906:12908   */\n      0x20\n        /* \"#utility.yul\":12901:12904   */\n      dup3\n        /* \"#utility.yul\":12897:12909   */\n      add\n        /* \"#utility.yul\":12890:12909   */\n      swap1\n      pop\n        /* \"#utility.yul\":12549:12915   */\n      swap2\n      swap1\n      pop\n      jump\t// out\n        /* \"#utility.yul\":12921:13340   */\n    tag_108:\n        /* \"#utility.yul\":13087:13091   */\n      0x00\n        /* \"#utility.yul\":13125:13127   */\n      0x20\n        /* \"#utility.yul\":13114:13123   */\n      dup3\n        /* \"#utility.yul\":13110:13128   */\n      add\n        /* \"#utility.yul\":13102:13128   */\n      swap1\n      pop\n        /* \"#utility.yul\":13174:13183   */\n      dup2\n        /* \"#utility.yul\":13168:13172   */\n      dup2\n        /* \"#utility.yul\":13164:13184   */\n      sub\n        /* \"#utility.yul\":13160:13161   */\n      0x00\n        /* \"#utility.yul\":13149:13158   */\n      dup4\n        /* \"#utility.yul\":13145:13162   */\n      add\n        /* \"#utility.yul\":13138:13185   */\n      mstore\n        /* \"#utility.yul\":13202:13333   */\n      tag_362\n        /* \"#utility.yul\":13328:13332   */\n      dup2\n        /* \"#utility.yul\":13202:13333   */\n      tag_222\n      jump\t// in\n    tag_362:\n        /* \"#utility.yul\":13194:13333   */\n      swap1\n      pop\n        /* \"#utility.yul\":12921:13340   */\n      swap2\n      swap1\n      pop\n      jump\t// out\n        /* \"#utility.yul\":13346:13526   */\n    tag_223:\n        /* \"#utility.yul\":13394:13471   */\n      0x4e487b7100000000000000000000000000000000000000000000000000000000\n        /* \"#utility.yul\":13391:13392   */\n      0x00\n        /* \"#utility.yul\":13384:13472   */\n      mstore\n        /* \"#utility.yul\":13491:13495   */\n      0x22\n        /* \"#utility.yul\":13488:13489   */\n      0x04\n        /* \"#utility.yul\":13481:13496   */\n      mstore\n        /* \"#utility.yul\":13515:13519   */\n      0x24\n        /* \"#utility.yul\":13512:13513   */\n      0x00\n        /* \"#utility.yul\":13505:13520   */\n      revert\n        /* \"#utility.yul\":13532:13852   */\n    tag_125:\n        /* \"#utility.yul\":13576:13582   */\n      0x00\n        /* \"#utility.yul\":13613:13614   */\n      0x02\n        /* \"#utility.yul\":13607:13611   */\n      dup3\n        /* \"#utility.yul\":13603:13615   */\n      div\n        /* \"#utility.yul\":13593:13615   */\n      swap1\n      pop\n        /* \"#utility.yul\":13660:13661   */\n      0x01\n        /* \"#utility.yul\":13654:13658   */\n      dup3\n        /* \"#utility.yul\":13650:13662   */\n      and\n        /* \"#utility.yul\":13681:13699   */\n      dup1\n        /* \"#utility.yul\":13671:13752   */\n      tag_365\n      jumpi\n        /* \"#utility.yul\":13737:13741   */\n      0x7f\n        /* \"#utility.yul\":13729:13735   */\n      dup3\n        /* \"#utility.yul\":13725:13742   */\n      and\n        /* \"#utility.yul\":13715:13742   */\n      swap2\n      pop\n        /* \"#utility.yul\":13671:13752   */\n    tag_365:\n        /* \"#utility.yul\":13799:13801   */\n      0x20\n        /* \"#utility.yul\":13791:13797   */\n      dup3\n        /* \"#utility.yul\":13788:13802   */\n      lt\n        /* \"#utility.yul\":13768:13786   */\n      dup2\n        /* \"#utility.yul\":13765:13803   */\n      sub\n        /* \"#utility.yul\":13762:13846   */\n      tag_366\n      jumpi\n        /* \"#utility.yul\":13818:13836   */\n      tag_367\n      tag_223\n      jump\t// in\n    tag_367:\n        /* \"#utility.yul\":13762:13846   */\n    tag_366:\n        /* \"#utility.yul\":13583:13852   */\n      pop\n        /* \"#utility.yul\":13532:13852   */\n      swap2\n      swap1\n      pop\n      jump\t// out\n        /* \"#utility.yul\":13858:14133   */\n    tag_140:\n        /* \"#utility.yul\":13897:13904   */\n      0x00\n        /* \"#utility.yul\":13920:13939   */\n      tag_369\n        /* \"#utility.yul\":13937:13938   */\n      dup3\n        /* \"#utility.yul\":13920:13939   */\n      tag_188\n      jump\t// in\n    tag_369:\n        /* \"#utility.yul\":13915:13939   */\n      swap2\n      pop\n        /* \"#utility.yul\":13953:13972   */\n      tag_370\n        /* \"#utility.yul\":13970:13971   */\n      dup4\n        /* \"#utility.yul\":13953:13972   */\n      tag_188\n      jump\t// in\n    tag_370:\n        /* \"#utility.yul\":13948:13972   */\n      swap3\n      pop\n        /* \"#utility.yul\":14007:14008   */\n      dup3\n        /* \"#utility.yul\":14004:14005   */\n      dup3\n        /* \"#utility.yul\":14000:14009   */\n      mul\n        /* \"#utility.yul\":14029:14058   */\n      tag_371\n        /* \"#utility.yul\":14046:14057   */\n      dup2\n        /* \"#utility.yul\":14029:14058   */\n      tag_188\n      jump\t// in\n    tag_371:\n        /* \"#utility.yul\":14018:14058   */\n      swap2\n      pop\n        /* \"#utility.yul\":14090:14101   */\n      dup1\n        /* \"#utility.yul\":14081:14088   */\n      dup3\n        /* \"#utility.yul\":14078:14102   */\n      eq\n        /* \"#utility.yul\":14068:14126   */\n      tag_372\n      jumpi\n        /* \"#utility.yul\":14106:14124   */\n      tag_373\n      tag_218\n      jump\t// in\n    tag_373:\n        /* \"#utility.yul\":14068:14126   */\n    tag_372:\n        /* \"#utility.yul\":13905:14133   */\n      pop\n        /* \"#utility.yul\":13858:14133   */\n      swap3\n      swap2\n      pop\n      pop\n      jump\t// out\n        /* \"#utility.yul\":14139:14319   */\n    tag_224:\n        /* \"#utility.yul\":14187:14264   */\n      0x4e487b7100000000000000000000000000000000000000000000000000000000\n        /* \"#utility.yul\":14184:14185   */\n      0x00\n        /* \"#utility.yul\":14177:14265   */\n      mstore\n        /* \"#utility.yul\":14284:14288   */\n      0x12\n        /* \"#utility.yul\":14281:14282   */\n      0x04\n        /* \"#utility.yul\":14274:14289   */\n      mstore\n        /* \"#utility.yul\":14308:14312   */\n      0x24\n        /* \"#utility.yul\":14305:14306   */\n      0x00\n        /* \"#utility.yul\":14298:14313   */\n      revert\n        /* \"#utility.yul\":14325:14507   */\n    tag_142:\n        /* \"#utility.yul\":14364:14365   */\n      0x00\n        /* \"#utility.yul\":14381:14400   */\n      tag_376\n        /* \"#utility.yul\":14398:14399   */\n      dup3\n        /* \"#utility.yul\":14381:14400   */\n      tag_188\n      jump\t// in\n    tag_376:\n        /* \"#utility.yul\":14376:14400   */\n      swap2\n      pop\n        /* \"#utility.yul\":14414:14433   */\n      tag_377\n        /* \"#utility.yul\":14431:14432   */\n      dup4\n        /* \"#utility.yul\":14414:14433   */\n      tag_188\n      jump\t// in\n    tag_377:\n        /* \"#utility.yul\":14409:14433   */\n      swap3\n      pop\n        /* \"#utility.yul\":14452:14453   */\n      dup3\n        /* \"#utility.yul\":14442:14477   */\n      tag_378\n      jumpi\n        /* \"#utility.yul\":14457:14475   */\n      tag_379\n      tag_224\n      jump\t// in\n    tag_379:\n        /* \"#utility.yul\":14442:14477   */\n    tag_378:\n        /* \"#utility.yul\":14499:14500   */\n      dup3\n        /* \"#utility.yul\":14496:14497   */\n      dup3\n        /* \"#utility.yul\":14492:14501   */\n      div\n        /* \"#utility.yul\":14487:14501   */\n      swap1\n      pop\n        /* \"#utility.yul\":14325:14507   */\n      swap3\n      swap2\n      pop\n      pop\n      jump\t// out\n        /* \"#utility.yul\":14513:15153   */\n    tag_150:\n        /* \"#utility.yul\":14708:14712   */\n      0x00\n        /* \"#utility.yul\":14746:14749   */\n      0x80\n        /* \"#utility.yul\":14735:14744   */\n      dup3\n        /* \"#utility.yul\":14731:14750   */\n      add\n        /* \"#utility.yul\":14723:14750   */\n      swap1\n      pop\n        /* \"#utility.yul\":14760:14831   */\n      tag_381\n        /* \"#utility.yul\":14828:14829   */\n      0x00\n        /* \"#utility.yul\":14817:14826   */\n      dup4\n        /* \"#utility.yul\":14813:14830   */\n      add\n        /* \"#utility.yul\":14804:14810   */\n      dup8\n        /* \"#utility.yul\":14760:14831   */\n      tag_196\n      jump\t// in\n    tag_381:\n        /* \"#utility.yul\":14841:14913   */\n      tag_382\n        /* \"#utility.yul\":14909:14911   */\n      0x20\n        /* \"#utility.yul\":14898:14907   */\n      dup4\n        /* \"#utility.yul\":14894:14912   */\n      add\n        /* \"#utility.yul\":14885:14891   */\n      dup7\n        /* \"#utility.yul\":14841:14913   */\n      tag_197\n      jump\t// in\n    tag_382:\n        /* \"#utility.yul\":14960:14969   */\n      dup2\n        /* \"#utility.yul\":14954:14958   */\n      dup2\n        /* \"#utility.yul\":14950:14970   */\n      sub\n        /* \"#utility.yul\":14945:14947   */\n      0x40\n        /* \"#utility.yul\":14934:14943   */\n      dup4\n        /* \"#utility.yul\":14930:14948   */\n      add\n        /* \"#utility.yul\":14923:14971   */\n      mstore\n        /* \"#utility.yul\":14988:15064   */\n      tag_383\n        /* \"#utility.yul\":15059:15063   */\n      dup2\n        /* \"#utility.yul\":15050:15056   */\n      dup6\n        /* \"#utility.yul\":14988:15064   */\n      tag_215\n      jump\t// in\n    tag_383:\n        /* \"#utility.yul\":14980:15064   */\n      swap1\n      pop\n        /* \"#utility.yul\":15074:15146   */\n      tag_384\n        /* \"#utility.yul\":15142:15144   */\n      0x60\n        /* \"#utility.yul\":15131:15140   */\n      dup4\n        /* \"#utility.yul\":15127:15145   */\n      add\n        /* \"#utility.yul\":15118:15124   */\n      dup5\n        /* \"#utility.yul\":15074:15146   */\n      tag_201\n      jump\t// in\n    tag_384:\n        /* \"#utility.yul\":14513:15153   */\n      swap6\n      swap5\n      pop\n      pop\n      pop\n      pop\n      pop\n      jump\t// out\n        /* \"#utility.yul\":15159:15307   */\n    tag_225:\n        /* \"#utility.yul\":15261:15272   */\n      0x00\n        /* \"#utility.yul\":15298:15301   */\n      dup2\n        /* \"#utility.yul\":15283:15301   */\n      swap1\n      pop\n        /* \"#utility.yul\":15159:15307   */\n      swap3\n      swap2\n      pop\n      pop\n      jump\t// out\n        /* \"#utility.yul\":15313:15454   */\n    tag_226:\n        /* \"#utility.yul\":15362:15366   */\n      0x00\n        /* \"#utility.yul\":15385:15388   */\n      dup2\n        /* \"#utility.yul\":15377:15388   */\n      swap1\n      pop\n        /* \"#utility.yul\":15408:15411   */\n      dup2\n        /* \"#utility.yul\":15405:15406   */\n      0x00\n        /* \"#utility.yul\":15398:15412   */\n      mstore\n        /* \"#utility.yul\":15442:15446   */\n      0x20\n        /* \"#utility.yul\":15439:15440   */\n      0x00\n        /* \"#utility.yul\":15429:15447   */\n      keccak256\n        /* \"#utility.yul\":15421:15447   */\n      swap1\n      pop\n        /* \"#utility.yul\":15313:15454   */\n      swap2\n      swap1\n      pop\n      jump\t// out\n        /* \"#utility.yul\":15484:16358   */\n    tag_227:\n        /* \"#utility.yul\":15587:15590   */\n      0x00\n        /* \"#utility.yul\":15624:15629   */\n      dup2\n        /* \"#utility.yul\":15618:15630   */\n      sload\n        /* \"#utility.yul\":15653:15689   */\n      tag_388\n        /* \"#utility.yul\":15679:15688   */\n      dup2\n        /* \"#utility.yul\":15653:15689   */\n      tag_125\n      jump\t// in\n    tag_388:\n        /* \"#utility.yul\":15705:15794   */\n      tag_389\n        /* \"#utility.yul\":15787:15793   */\n      dup2\n        /* \"#utility.yul\":15782:15785   */\n      dup7\n        /* \"#utility.yul\":15705:15794   */\n      tag_225\n      jump\t// in\n    tag_389:\n        /* \"#utility.yul\":15698:15794   */\n      swap5\n      pop\n        /* \"#utility.yul\":15825:15826   */\n      0x01\n        /* \"#utility.yul\":15814:15823   */\n      dup3\n        /* \"#utility.yul\":15810:15827   */\n      and\n        /* \"#utility.yul\":15841:15842   */\n      0x00\n        /* \"#utility.yul\":15836:16002   */\n      dup2\n      eq\n      tag_391\n      jumpi\n        /* \"#utility.yul\":16016:16017   */\n      0x01\n        /* \"#utility.yul\":16011:16352   */\n      dup2\n      eq\n      tag_392\n      jumpi\n        /* \"#utility.yul\":15803:16352   */\n      jump(tag_390)\n        /* \"#utility.yul\":15836:16002   */\n    tag_391:\n        /* \"#utility.yul\":15920:15924   */\n      0xff\n        /* \"#utility.yul\":15916:15925   */\n      not\n        /* \"#utility.yul\":15905:15914   */\n      dup4\n        /* \"#utility.yul\":15901:15926   */\n      and\n        /* \"#utility.yul\":15896:15899   */\n      dup7\n        /* \"#utility.yul\":15889:15927   */\n      mstore\n        /* \"#utility.yul\":15982:15988   */\n      dup2\n        /* \"#utility.yul\":15975:15989   */\n      iszero\n        /* \"#utility.yul\":15968:15990   */\n      iszero\n        /* \"#utility.yul\":15960:15966   */\n      dup3\n        /* \"#utility.yul\":15956:15991   */\n      mul\n        /* \"#utility.yul\":15951:15954   */\n      dup7\n        /* \"#utility.yul\":15947:15992   */\n      add\n        /* \"#utility.yul\":15940:15992   */\n      swap4\n      pop\n        /* \"#utility.yul\":15836:16002   */\n      jump(tag_390)\n        /* \"#utility.yul\":16011:16352   */\n    tag_392:\n        /* \"#utility.yul\":16078:16116   */\n      tag_393\n        /* \"#utility.yul\":16110:16115   */\n      dup6\n        /* \"#utility.yul\":16078:16116   */\n      tag_226\n      jump\t// in\n    tag_393:\n        /* \"#utility.yul\":16138:16139   */\n      0x00\n        /* \"#utility.yul\":16152:16306   */\n    tag_394:\n        /* \"#utility.yul\":16166:16172   */\n      dup4\n        /* \"#utility.yul\":16163:16164   */\n      dup2\n        /* \"#utility.yul\":16160:16173   */\n      lt\n        /* \"#utility.yul\":16152:16306   */\n      iszero\n      tag_396\n      jumpi\n        /* \"#utility.yul\":16240:16247   */\n      dup2\n        /* \"#utility.yul\":16234:16248   */\n      sload\n        /* \"#utility.yul\":16230:16231   */\n      dup2\n        /* \"#utility.yul\":16225:16228   */\n      dup10\n        /* \"#utility.yul\":16221:16232   */\n      add\n        /* \"#utility.yul\":16214:16249   */\n      mstore\n        /* \"#utility.yul\":16290:16291   */\n      0x01\n        /* \"#utility.yul\":16281:16288   */\n      dup3\n        /* \"#utility.yul\":16277:16292   */\n      add\n        /* \"#utility.yul\":16266:16292   */\n      swap2\n      pop\n        /* \"#utility.yul\":16188:16192   */\n      0x20\n        /* \"#utility.yul\":16185:16186   */\n      dup2\n        /* \"#utility.yul\":16181:16193   */\n      add\n        /* \"#utility.yul\":16176:16193   */\n      swap1\n      pop\n        /* \"#utility.yul\":16152:16306   */\n      jump(tag_394)\n    tag_396:\n        /* \"#utility.yul\":16335:16341   */\n      dup4\n        /* \"#utility.yul\":16330:16333   */\n      dup9\n        /* \"#utility.yul\":16326:16342   */\n      add\n        /* \"#utility.yul\":16319:16342   */\n      swap6\n      pop\n        /* \"#utility.yul\":16018:16352   */\n      pop\n      pop\n        /* \"#utility.yul\":15803:16352   */\n    tag_390:\n      pop\n        /* \"#utility.yul\":15591:16358   */\n      pop\n      pop\n        /* \"#utility.yul\":15484:16358   */\n      swap3\n      swap2\n      pop\n      pop\n      jump\t// out\n        /* \"#utility.yul\":16364:16633   */\n    tag_154:\n        /* \"#utility.yul\":16493:16496   */\n      0x00\n        /* \"#utility.yul\":16515:16607   */\n      tag_398\n        /* \"#utility.yul\":16603:16606   */\n      dup3\n        /* \"#utility.yul\":16594:16600   */\n      dup5\n        /* \"#utility.yul\":16515:16607   */\n      tag_227\n      jump\t// in\n    tag_398:\n        /* \"#utility.yul\":16508:16607   */\n      swap2\n      pop\n        /* \"#utility.yul\":16624:16627   */\n      dup2\n        /* \"#utility.yul\":16617:16627   */\n      swap1\n      pop\n        /* \"#utility.yul\":16364:16633   */\n      swap3\n      swap2\n      pop\n      pop\n      jump\t// out\n        /* \"#utility.yul\":16639:16840   */\n    tag_163:\n        /* \"#utility.yul\":16678:16681   */\n      0x00\n        /* \"#utility.yul\":16697:16716   */\n      tag_400\n        /* \"#utility.yul\":16714:16715   */\n      dup3\n        /* \"#utility.yul\":16697:16716   */\n      tag_206\n      jump\t// in\n    tag_400:\n        /* \"#utility.yul\":16692:16716   */\n      swap2\n      pop\n        /* \"#utility.yul\":16730:16749   */\n      tag_401\n        /* \"#utility.yul\":16747:16748   */\n      dup4\n        /* \"#utility.yul\":16730:16749   */\n      tag_206\n      jump\t// in\n    tag_401:\n        /* \"#utility.yul\":16725:16749   */\n      swap3\n      pop\n        /* \"#utility.yul\":16772:16773   */\n      dup3\n        /* \"#utility.yul\":16769:16770   */\n      dup3\n        /* \"#utility.yul\":16765:16774   */\n      add\n        /* \"#utility.yul\":16758:16774   */\n      swap1\n      pop\n        /* \"#utility.yul\":16795:16809   */\n      0xffffffffffff\n        /* \"#utility.yul\":16790:16793   */\n      dup2\n        /* \"#utility.yul\":16787:16810   */\n      gt\n        /* \"#utility.yul\":16784:16833   */\n      iszero\n      tag_402\n      jumpi\n        /* \"#utility.yul\":16813:16831   */\n      tag_403\n      tag_218\n      jump\t// in\n    tag_403:\n        /* \"#utility.yul\":16784:16833   */\n    tag_402:\n        /* \"#utility.yul\":16639:16840   */\n      swap3\n      swap2\n      pop\n      pop\n      jump\t// out\n        /* \"#utility.yul\":16846:17037   */\n    tag_167:\n        /* \"#utility.yul\":16886:16889   */\n      0x00\n        /* \"#utility.yul\":16905:16925   */\n      tag_405\n        /* \"#utility.yul\":16923:16924   */\n      dup3\n        /* \"#utility.yul\":16905:16925   */\n      tag_193\n      jump\t// in\n    tag_405:\n        /* \"#utility.yul\":16900:16925   */\n      swap2\n      pop\n        /* \"#utility.yul\":16939:16959   */\n      tag_406\n        /* \"#utility.yul\":16957:16958   */\n      dup4\n        /* \"#utility.yul\":16939:16959   */\n      tag_193\n      jump\t// in\n    tag_406:\n        /* \"#utility.yul\":16934:16959   */\n      swap3\n      pop\n        /* \"#utility.yul\":16982:16983   */\n      dup3\n        /* \"#utility.yul\":16979:16980   */\n      dup3\n        /* \"#utility.yul\":16975:16984   */\n      add\n        /* \"#utility.yul\":16968:16984   */\n      swap1\n      pop\n        /* \"#utility.yul\":17003:17006   */\n      dup1\n        /* \"#utility.yul\":17000:17001   */\n      dup3\n        /* \"#utility.yul\":16997:17007   */\n      gt\n        /* \"#utility.yul\":16994:17030   */\n      iszero\n      tag_407\n      jumpi\n        /* \"#utility.yul\":17010:17028   */\n      tag_408\n      tag_218\n      jump\t// in\n    tag_408:\n        /* \"#utility.yul\":16994:17030   */\n    tag_407:\n        /* \"#utility.yul\":16846:17037   */\n      swap3\n      swap2\n      pop\n      pop\n      jump\t// out\n        /* \"#utility.yul\":17043:17265   */\n    tag_171:\n        /* \"#utility.yul\":17136:17140   */\n      0x00\n        /* \"#utility.yul\":17174:17176   */\n      0x20\n        /* \"#utility.yul\":17163:17172   */\n      dup3\n        /* \"#utility.yul\":17159:17177   */\n      add\n        /* \"#utility.yul\":17151:17177   */\n      swap1\n      pop\n        /* \"#utility.yul\":17187:17258   */\n      tag_410\n        /* \"#utility.yul\":17255:17256   */\n      0x00\n        /* \"#utility.yul\":17244:17253   */\n      dup4\n        /* \"#utility.yul\":17240:17257   */\n      add\n        /* \"#utility.yul\":17231:17237   */\n      dup5\n        /* \"#utility.yul\":17187:17258   */\n      tag_196\n      jump\t// in\n    tag_410:\n        /* \"#utility.yul\":17043:17265   */\n      swap3\n      swap2\n      pop\n      pop\n      jump\t// out\n        /* \"#utility.yul\":17271:17391   */\n    tag_228:\n        /* \"#utility.yul\":17343:17366   */\n      tag_412\n        /* \"#utility.yul\":17360:17365   */\n      dup2\n        /* \"#utility.yul\":17343:17366   */\n      tag_188\n      jump\t// in\n    tag_412:\n        /* \"#utility.yul\":17336:17341   */\n      dup2\n        /* \"#utility.yul\":17333:17367   */\n      eq\n        /* \"#utility.yul\":17323:17385   */\n      tag_413\n      jumpi\n        /* \"#utility.yul\":17381:17382   */\n      0x00\n        /* \"#utility.yul\":17378:17379   */\n      dup1\n        /* \"#utility.yul\":17371:17383   */\n      revert\n        /* \"#utility.yul\":17323:17385   */\n    tag_413:\n        /* \"#utility.yul\":17271:17391   */\n      pop\n      jump\t// out\n        /* \"#utility.yul\":17397:17538   */\n    tag_229:\n        /* \"#utility.yul\":17453:17458   */\n      0x00\n        /* \"#utility.yul\":17484:17490   */\n      dup2\n        /* \"#utility.yul\":17478:17491   */\n      mload\n        /* \"#utility.yul\":17469:17491   */\n      swap1\n      pop\n        /* \"#utility.yul\":17500:17532   */\n      tag_415\n        /* \"#utility.yul\":17526:17531   */\n      dup2\n        /* \"#utility.yul\":17500:17532   */\n      tag_228\n      jump\t// in\n    tag_415:\n        /* \"#utility.yul\":17397:17538   */\n      swap3\n      swap2\n      pop\n      pop\n      jump\t// out\n        /* \"#utility.yul\":17544:17893   */\n    tag_175:\n        /* \"#utility.yul\":17613:17619   */\n      0x00\n        /* \"#utility.yul\":17662:17664   */\n      0x20\n        /* \"#utility.yul\":17650:17659   */\n      dup3\n        /* \"#utility.yul\":17641:17648   */\n      dup5\n        /* \"#utility.yul\":17637:17660   */\n      sub\n        /* \"#utility.yul\":17633:17665   */\n      slt\n        /* \"#utility.yul\":17630:17749   */\n      iszero\n      tag_417\n      jumpi\n        /* \"#utility.yul\":17668:17747   */\n      tag_418\n      tag_182\n      jump\t// in\n    tag_418:\n        /* \"#utility.yul\":17630:17749   */\n    tag_417:\n        /* \"#utility.yul\":17788:17789   */\n      0x00\n        /* \"#utility.yul\":17813:17876   */\n      tag_419\n        /* \"#utility.yul\":17868:17875   */\n      dup5\n        /* \"#utility.yul\":17859:17865   */\n      dup3\n        /* \"#utility.yul\":17848:17857   */\n      dup6\n        /* \"#utility.yul\":17844:17866   */\n      add\n        /* \"#utility.yul\":17813:17876   */\n      tag_229\n      jump\t// in\n    tag_419:\n        /* \"#utility.yul\":17803:17876   */\n      swap2\n      pop\n        /* \"#utility.yul\":17759:17886   */\n      pop\n        /* \"#utility.yul\":17544:17893   */\n      swap3\n      swap2\n      pop\n      pop\n      jump\t// out\n        /* \"#utility.yul\":17899:18069   */\n    tag_230:\n        /* \"#utility.yul\":18039:18061   */\n      0x486173206e6f20726967687420746f20766f7465000000000000000000000000\n        /* \"#utility.yul\":18035:18036   */\n      0x00\n        /* \"#utility.yul\":18027:18033   */\n      dup3\n        /* \"#utility.yul\":18023:18037   */\n      add\n        /* \"#utility.yul\":18016:18062   */\n      mstore\n        /* \"#utility.yul\":17899:18069   */\n      pop\n      jump\t// out\n        /* \"#utility.yul\":18075:18441   */\n    tag_231:\n        /* \"#utility.yul\":18217:18220   */\n      0x00\n        /* \"#utility.yul\":18238:18305   */\n      tag_422\n        /* \"#utility.yul\":18302:18304   */\n      0x14\n        /* \"#utility.yul\":18297:18300   */\n      dup4\n        /* \"#utility.yul\":18238:18305   */\n      tag_209\n      jump\t// in\n    tag_422:\n        /* \"#utility.yul\":18231:18305   */\n      swap2\n      pop\n        /* \"#utility.yul\":18314:18407   */\n      tag_423\n        /* \"#utility.yul\":18403:18406   */\n      dup3\n        /* \"#utility.yul\":18314:18407   */\n      tag_230\n      jump\t// in\n    tag_423:\n        /* \"#utility.yul\":18432:18434   */\n      0x20\n        /* \"#utility.yul\":18427:18430   */\n      dup3\n        /* \"#utility.yul\":18423:18435   */\n      add\n        /* \"#utility.yul\":18416:18435   */\n      swap1\n      pop\n        /* \"#utility.yul\":18075:18441   */\n      swap2\n      swap1\n      pop\n      jump\t// out\n        /* \"#utility.yul\":18447:18866   */\n    tag_180:\n        /* \"#utility.yul\":18613:18617   */\n      0x00\n        /* \"#utility.yul\":18651:18653   */\n      0x20\n        /* \"#utility.yul\":18640:18649   */\n      dup3\n        /* \"#utility.yul\":18636:18654   */\n      add\n        /* \"#utility.yul\":18628:18654   */\n      swap1\n      pop\n        /* \"#utility.yul\":18700:18709   */\n      dup2\n        /* \"#utility.yul\":18694:18698   */\n      dup2\n        /* \"#utility.yul\":18690:18710   */\n      sub\n        /* \"#utility.yul\":18686:18687   */\n      0x00\n        /* \"#utility.yul\":18675:18684   */\n      dup4\n        /* \"#utility.yul\":18671:18688   */\n      add\n        /* \"#utility.yul\":18664:18711   */\n      mstore\n        /* \"#utility.yul\":18728:18859   */\n      tag_425\n        /* \"#utility.yul\":18854:18858   */\n      dup2\n        /* \"#utility.yul\":18728:18859   */\n      tag_231\n      jump\t// in\n    tag_425:\n        /* \"#utility.yul\":18720:18859   */\n      swap1\n      pop\n        /* \"#utility.yul\":18447:18866   */\n      swap2\n      swap1\n      pop\n      jump\t// out\n\n    auxdata: 0xa26469706673582212202cffccf156dd2e35069be2bb003ab3d342f91b76bb2cb6108f2ced736ea64b3664736f6c63430008140033\n}\n",
				"bytecode": {
					"linkReferences": {},
					"object": "608060405234801562000010575f80fd5b5060405162002d3938038062002d3983398181016040528101906200003691906200084e565b8360045f820151815f0190816200004e919062000b0a565b50602082015181600101908162000066919062000b0a565b50604082015181600201556060820151816003015f6101000a81548173ffffffffffffffffffffffffffffffffffffffff021916908373ffffffffffffffffffffffffffffffffffffffff1602179055509050506004600101604051602001620000d1919062000c8b565b604051602081830303815290604052805190602001206004600201819055503360086001015f6101000a81548173ffffffffffffffffffffffffffffffffffffffff021916908373ffffffffffffffffffffffffffffffffffffffff160217905550600b5f60086001015f9054906101000a900473ffffffffffffffffffffffffffffffffffffffff1673ffffffffffffffffffffffffffffffffffffffff1673ffffffffffffffffffffffffffffffffffffffff1681526020019081526020015f205f9054906101000a900473ffffffffffffffffffffffffffffffffffffffff1660085f015f6101000a81548173ffffffffffffffffffffffffffffffffffffffff021916908373ffffffffffffffffffffffffffffffffffffffff1602179055505f73ffffffffffffffffffffffffffffffffffffffff1660085f015f9054906101000a900473ffffffffffffffffffffffffffffffffffffffff1673ffffffffffffffffffffffffffffffffffffffff1603620002af5760086001015f9054906101000a900473ffffffffffffffffffffffffffffffffffffffff166040517fdefe7bd3000000000000000000000000000000000000000000000000000000008152600401620002a6919062000cbe565b60405180910390fd5b826008600201819055508160025f820151815f015f6101000a81548161ffff021916908361ffff1602179055506020820151815f0160026101000a81548163ffffffff021916908363ffffffff1602179055506040820151815f0160066101000a81548165ffffffffffff021916908365ffffffffffff1602179055506060820151815f01600c6101000a81548165ffffffffffff021916908365ffffffffffff16021790555090505060025f0160029054906101000a900463ffffffff1663ffffffff1660025f0160069054906101000a900465ffffffffffff1662000397919062000d06565b65ffffffffffff16600381905550805f8001819055505f806001015f6101000a81548161ffff021916908361ffff1602179055505f8060010160026101000a81548161ffff021916908361ffff1602179055505050505062000d46565b5f604051905090565b5f80fd5b5f80fd5b5f80fd5b5f601f19601f8301169050919050565b7f4e487b71000000000000000000000000000000000000000000000000000000005f52604160045260245ffd5b620004518262000409565b810181811067ffffffffffffffff8211171562000473576200047262000419565b5b80604052505050565b5f62000487620003f4565b905062000495828262000446565b919050565b5f80fd5b5f80fd5b5f80fd5b5f67ffffffffffffffff821115620004c357620004c262000419565b5b620004ce8262000409565b9050602081019050919050565b5f5b83811015620004fa578082015181840152602081019050620004dd565b5f8484015250505050565b5f6200051b6200051584620004a6565b6200047c565b9050828152602081018484840111156200053a5762000539620004a2565b5b62000547848285620004db565b509392505050565b5f82601f8301126200056657620005656200049e565b5b81516200057884826020860162000505565b91505092915050565b5f819050919050565b620005958162000581565b8114620005a0575f80fd5b50565b5f81519050620005b3816200058a565b92915050565b5f73ffffffffffffffffffffffffffffffffffffffff82169050919050565b5f620005e482620005b9565b9050919050565b620005f681620005d8565b811462000601575f80fd5b50565b5f815190506200061481620005eb565b92915050565b5f6080828403121562000632576200063162000405565b5b6200063e60806200047c565b90505f82015167ffffffffffffffff81111562000660576200065f6200049a565b5b6200066e848285016200054f565b5f83015250602082015167ffffffffffffffff8111156200069457620006936200049a565b5b620006a2848285016200054f565b6020830152506040620006b884828501620005a3565b6040830152506060620006ce8482850162000604565b60608301525092915050565b5f819050919050565b620006ee81620006da565b8114620006f9575f80fd5b50565b5f815190506200070c81620006e3565b92915050565b5f61ffff82169050919050565b6200072a8162000712565b811462000735575f80fd5b50565b5f8151905062000748816200071f565b92915050565b5f63ffffffff82169050919050565b62000768816200074e565b811462000773575f80fd5b50565b5f8151905062000786816200075d565b92915050565b5f65ffffffffffff82169050919050565b620007a8816200078c565b8114620007b3575f80fd5b50565b5f81519050620007c6816200079d565b92915050565b5f60808284031215620007e457620007e362000405565b5b620007f060806200047c565b90505f620008018482850162000738565b5f830152506020620008168482850162000776565b60208301525060406200082c84828501620007b6565b60408301525060606200084284828501620007b6565b60608301525092915050565b5f805f8060e08587031215620008695762000868620003fd565b5b5f85015167ffffffffffffffff81111562000889576200088862000401565b5b62000897878288016200061a565b9450506020620008aa87828801620006fc565b9350506040620008bd87828801620007cc565b92505060c0620008d087828801620005a3565b91505092959194509250565b5f81519050919050565b7f4e487b71000000000000000000000000000000000000000000000000000000005f52602260045260245ffd5b5f60028204905060018216806200092b57607f821691505b602082108103620009415762000940620008e6565b5b50919050565b5f819050815f5260205f209050919050565b5f6020601f8301049050919050565b5f82821b905092915050565b5f60088302620009a57fffffffffffffffffffffffffffffffffffffffffffffffffffffffffffffffff8262000968565b620009b1868362000968565b95508019841693508086168417925050509392505050565b5f819050919050565b5f620009f2620009ec620009e684620006da565b620009c9565b620006da565b9050919050565b5f819050919050565b62000a0d83620009d2565b62000a2562000a1c82620009f9565b84845462000974565b825550505050565b5f90565b62000a3b62000a2d565b62000a4881848462000a02565b505050565b5b8181101562000a6f5762000a635f8262000a31565b60018101905062000a4e565b5050565b601f82111562000abe5762000a888162000947565b62000a938462000959565b8101602085101562000aa3578190505b62000abb62000ab28562000959565b83018262000a4d565b50505b505050565b5f82821c905092915050565b5f62000ae05f198460080262000ac3565b1980831691505092915050565b5f62000afa838362000acf565b9150826002028217905092915050565b62000b1582620008dc565b67ffffffffffffffff81111562000b315762000b3062000419565b5b62000b3d825462000913565b62000b4a82828562000a73565b5f60209050601f83116001811462000b80575f841562000b6b578287015190505b62000b77858262000aed565b86555062000be6565b601f19841662000b908662000947565b5f5b8281101562000bb95784890151825560018201915060208501945060208101905062000b92565b8683101562000bd9578489015162000bd5601f89168262000acf565b8355505b6001600288020188555050505b505050505050565b5f82825260208201905092915050565b5f815462000c0c8162000913565b62000c18818662000bee565b9450600182165f811462000c35576001811462000c4c5762000c82565b60ff19831686528115156020028601935062000c82565b62000c578562000947565b5f5b8381101562000c7a5781548189015260018201915060208101905062000c59565b808801955050505b50505092915050565b5f6020820190508181035f83015262000ca5818462000bfe565b905092915050565b62000cb881620005d8565b82525050565b5f60208201905062000cd35f83018462000cad565b92915050565b7f4e487b71000000000000000000000000000000000000000000000000000000005f52601160045260245ffd5b5f62000d12826200078c565b915062000d1f836200078c565b9250828201905065ffffffffffff81111562000d405762000d3f62000cd9565b5b92915050565b611fe58062000d545f395ff3fe608060405234801561000f575f80fd5b50600436106100cd575f3560e01c806385227e511161008a578063cfb62dee11610064578063cfb62dee14610209578063ec5bf07b14610227578063ee26a38a14610245578063f8b1b08a14610265576100cd565b806385227e5114610197578063b3a05246146101c7578063bc33c7d7146101e8576100cd565b806341617c8f146100d15780634731ca2b146101015780634b9f5c98146101215780635c19a95c1461013d5780635f8d96de1461015957806381c4787b14610177575b5f80fd5b6100eb60048036038101906100e6919061169b565b610283565b6040516100f8919061179c565b60405180910390f35b6101096103aa565b604051610118939291906117d3565b60405180910390f35b61013b60048036038101906101369190611832565b610407565b005b6101576004803603810190610152919061169b565b610746565b005b610161610c1b565b60405161016e919061185d565b60405180910390f35b61017f610c24565b60405161018e9392919061189d565b60405180910390f35b6101b160048036038101906101ac919061169b565b610c55565b6040516101be91906118e1565b60405180910390f35b6101cf610e87565b6040516101df9493929190611938565b60405180910390f35b6101f0610eee565b6040516102009493929190611a05565b60405180910390f35b610211611049565b60405161021e91906118e1565b60405180910390f35b61022f61112b565b60405161023c919061185d565b60405180910390f35b61024d611194565b60405161025c9392919061189d565b60405180910390f35b61026d6111cb565b60405161027a9190611aa8565b60405180910390f35b61028b6115eb565b600c5f8373ffffffffffffffffffffffffffffffffffffffff1673ffffffffffffffffffffffffffffffffffffffff1681526020019081526020015f206040518060c00160405290815f82015f9054906101000a900461ffff1661ffff1661ffff1681526020015f820160029054906101000a900461ffff1661ffff1661ffff1681526020015f820160049054906101000a900460ff161515151581526020015f820160059054906101000a900460ff161515151581526020015f820160069054906101000a900473ffffffffffffffffffffffffffffffffffffffff1673ffffffffffffffffffffffffffffffffffffffff1673ffffffffffffffffffffffffffffffffffffffff1681526020016001820154815250509050919050565b5f805f60085f015f9054906101000a900473ffffffffffffffffffffffffffffffffffffffff1660086001015f9054906101000a900473ffffffffffffffffffffffffffffffffffffffff16600860020154925092509250909192565b60025f0160069054906101000a900465ffffffffffff1665ffffffffffff164210156104805760025f0160069054906101000a900465ffffffffffff166040517f55d0b3cf0000000000000000000000000000000000000000000000000000000081526004016104779190611ac8565b60405180910390fd5b61048861124e565b6104cb576003546040517f8b00b7170000000000000000000000000000000000000000000000000000000081526004016104c2919061185d565b60405180910390fd5b600c5f3373ffffffffffffffffffffffffffffffffffffffff1673ffffffffffffffffffffffffffffffffffffffff1681526020019081526020015f205f0160049054906101000a900460ff1615610558576040517f08c379a000000000000000000000000000000000000000000000000000000000815260040161054f90611b2b565b60405180910390fd5b6105606113f5565b5f600c5f3373ffffffffffffffffffffffffffffffffffffffff1673ffffffffffffffffffffffffffffffffffffffff1681526020019081526020015f2090506001815f0160046101000a81548160ff021916908315150217905550428160010181905550811561069c57805f015f9054906101000a900461ffff165f60010160028282829054906101000a900461ffff166105fc9190611b76565b92506101000a81548161ffff021916908361ffff160217905550805f0160029054906101000a900461ffff16815f015f9054906101000a900461ffff166106439190611b76565b5f6001015f8282829054906101000a900461ffff166106629190611b76565b92506101000a81548161ffff021916908361ffff16021790555081815f0160056101000a81548160ff0219169083151502179055506106e8565b805f015f9054906101000a900461ffff165f60010160028282829054906101000a900461ffff166106cd9190611b76565b92506101000a81548161ffff021916908361ffff1602179055505b3073ffffffffffffffffffffffffffffffffffffffff163373ffffffffffffffffffffffffffffffffffffffff167ff0c90984366c9ecce045b67da09271f6d22bd9ad1aed6562de5bcf1def4c739960405160405180910390a35050565b61074e61124e565b610791576003546040517f8b00b717000000000000000000000000000000000000000000000000000000008152600401610788919061185d565b60405180910390fd5b600c5f3373ffffffffffffffffffffffffffffffffffffffff1673ffffffffffffffffffffffffffffffffffffffff1681526020019081526020015f205f0160049054906101000a900460ff161561081e576040517f08c379a000000000000000000000000000000000000000000000000000000000815260040161081590611b2b565b60405180910390fd5b6108266113f5565b5f600c5f3373ffffffffffffffffffffffffffffffffffffffff1673ffffffffffffffffffffffffffffffffffffffff1681526020019081526020015f2090503373ffffffffffffffffffffffffffffffffffffffff168273ffffffffffffffffffffffffffffffffffffffff16036108d4576040517f08c379a00000000000000000000000000000000000000000000000000000000081526004016108cb90611bf5565b60405180910390fd5b5b5f73ffffffffffffffffffffffffffffffffffffffff16600c5f8473ffffffffffffffffffffffffffffffffffffffff1673ffffffffffffffffffffffffffffffffffffffff1681526020019081526020015f205f0160069054906101000a900473ffffffffffffffffffffffffffffffffffffffff1673ffffffffffffffffffffffffffffffffffffffff1614610a3c57600c5f8373ffffffffffffffffffffffffffffffffffffffff1673ffffffffffffffffffffffffffffffffffffffff1681526020019081526020015f205f0160069054906101000a900473ffffffffffffffffffffffffffffffffffffffff1691503373ffffffffffffffffffffffffffffffffffffffff168273ffffffffffffffffffffffffffffffffffffffff1603610a37576040517f08c379a0000000000000000000000000000000000000000000000000000000008152600401610a2e90611c5d565b60405180910390fd5b6108d5565b6001815f0160046101000a81548160ff021916908315150217905550428160010181905550805f015f9054906101000a900461ffff165f60010160028282829054906101000a900461ffff16610a929190611b76565b92506101000a81548161ffff021916908361ffff16021790555081815f0160066101000a81548173ffffffffffffffffffffffffffffffffffffffff021916908373ffffffffffffffffffffffffffffffffffffffff1602179055505f600c5f8473ffffffffffffffffffffffffffffffffffffffff1673ffffffffffffffffffffffffffffffffffffffff1681526020019081526020015f209050805f0160049054906101000a900460ff1615610baf57815f0160029054906101000a900461ffff16825f015f9054906101000a900461ffff16610b719190611b76565b5f6001015f8282829054906101000a900461ffff16610b909190611b76565b92506101000a81548161ffff021916908361ffff160217905550610c16565b815f0160029054906101000a900461ffff16825f015f9054906101000a900461ffff16610bdc9190611b76565b815f0160028282829054906101000a900461ffff16610bfb9190611b76565b92506101000a81548161ffff021916908361ffff1602179055505b505050565b5f600354905090565b5f805f015490806001015f9054906101000a900461ffff16908060010160029054906101000a900461ffff16905083565b5f8073ffffffffffffffffffffffffffffffffffffffff16600c5f8473ffffffffffffffffffffffffffffffffffffffff1673ffffffffffffffffffffffffffffffffffffffff1681526020019081526020015f205f0160069054906101000a900473ffffffffffffffffffffffffffffffffffffffff1673ffffffffffffffffffffffffffffffffffffffff1614610e36575b5f73ffffffffffffffffffffffffffffffffffffffff16600c5f8473ffffffffffffffffffffffffffffffffffffffff1673ffffffffffffffffffffffffffffffffffffffff1681526020019081526020015f205f0160069054906101000a900473ffffffffffffffffffffffffffffffffffffffff1673ffffffffffffffffffffffffffffffffffffffff1614610de257600c5f8373ffffffffffffffffffffffffffffffffffffffff1673ffffffffffffffffffffffffffffffffffffffff1681526020019081526020015f205f0160069054906101000a900473ffffffffffffffffffffffffffffffffffffffff169150610ce9565b600c5f8373ffffffffffffffffffffffffffffffffffffffff1673ffffffffffffffffffffffffffffffffffffffff1681526020019081526020015f205f0160059054906101000a900460ff169050610e82565b600c5f8373ffffffffffffffffffffffffffffffffffffffff1673ffffffffffffffffffffffffffffffffffffffff1681526020019081526020015f205f0160059054906101000a9050505b919050565b5f805f8060025f015f9054906101000a900461ffff1660025f0160029054906101000a900463ffffffff1660025f0160069054906101000a900465ffffffffffff1660025f01600c9054906101000a900465ffffffffffff16935093509350935090919293565b6060805f8060045f01600460010160046002015460046003015f9054906101000a900473ffffffffffffffffffffffffffffffffffffffff16838054610f3390611ca8565b80601f0160208091040260200160405190810160405280929190818152602001828054610f5f90611ca8565b8015610faa5780601f10610f8157610100808354040283529160200191610faa565b820191905f5260205f20905b815481529060010190602001808311610f8d57829003601f168201915b50505050509350828054610fbd90611ca8565b80601f0160208091040260200160405190810160405280929190818152602001828054610fe990611ca8565b80156110345780601f1061100b57610100808354040283529160200191611034565b820191905f5260205f20905b81548152906001019060200180831161101757829003601f168201915b50505050509250935093509350935090919293565b5f61105261124e565b6110e95760025f015f9054906101000a900461ffff1661ffff165f60010160029054906101000a900461ffff1661ffff16101580156110d35750606460325f60010160029054906101000a900461ffff166110ad9190611cd8565b6110b79190611d41565b61ffff165f6001015f9054906101000a900461ffff1661ffff16115b156110e15760019050611128565b5f9050611128565b6003546040517f2661a1cc00000000000000000000000000000000000000000000000000000000815260040161111f919061185d565b60405180910390fd5b90565b5f60085f015f9054906101000a900473ffffffffffffffffffffffffffffffffffffffff1660086002015461115e6111cb565b6004600201546040516020016111779493929190611d71565b604051602081830303815290604052805190602001205f1c905090565b5f805f805f01545f6001015f9054906101000a900461ffff165f60010160029054906101000a900461ffff16925092509250909192565b606060045f01604051602401604051602081830303815290604052906040516111f49190611e57565b60405180910390207bffffffffffffffffffffffffffffffffffffffffffffffffffffffff19166020820180517bffffffffffffffffffffffffffffffffffffffffffffffffffffffff8381831617835250505050905090565b5f804290506003548165ffffffffffff161161126e5760019150506113f2565b6064601460025f015f9054906101000a900461ffff1661128e9190611cd8565b6112989190611d41565b60025f015f9054906101000a900461ffff166112b49190611b76565b61ffff165f60010160029054906101000a900461ffff1661ffff1610156113ed5760025f01600c9054906101000a900465ffffffffffff1660025f0160029054906101000a900463ffffffff1663ffffffff1660025f0160069054906101000a900465ffffffffffff166113289190611e6d565b6113329190611e6d565b65ffffffffffff168165ffffffffffff16116113ec5760025f01600c9054906101000a900465ffffffffffff1665ffffffffffff1660035f8282546113779190611ea6565b925050819055503073ffffffffffffffffffffffffffffffffffffffff167f500de3b55e9f23c65d27e8e2eb29867b6b250c4219cec100f4b441983c5d7d7860025f01600c9054906101000a900465ffffffffffff166040516113da9190611ac8565b60405180910390a260019150506113f2565b5b5f9150505b90565b5f60085f015f9054906101000a900473ffffffffffffffffffffffffffffffffffffffff1673ffffffffffffffffffffffffffffffffffffffff166370a08231336040518263ffffffff1660e01b81526004016114529190611ed9565b602060405180830381865afa15801561146d573d5f803e3d5ffd5b505050506040513d601f19601f820116820180604052508101906114919190611f1c565b90505f8161ffff1611156114f95780600c5f3373ffffffffffffffffffffffffffffffffffffffff1673ffffffffffffffffffffffffffffffffffffffff1681526020019081526020015f205f015f6101000a81548161ffff021916908361ffff1602179055505b5f600c5f3373ffffffffffffffffffffffffffffffffffffffff1673ffffffffffffffffffffffffffffffffffffffff1681526020019081526020015f205f015f9054906101000a900461ffff1661ffff161415806115a957505f600c5f3373ffffffffffffffffffffffffffffffffffffffff1673ffffffffffffffffffffffffffffffffffffffff1681526020019081526020015f205f0160029054906101000a900461ffff1661ffff1614155b6115e8576040517f08c379a00000000000000000000000000000000000000000000000000000000081526004016115df90611f91565b60405180910390fd5b50565b6040518060c001604052805f61ffff1681526020015f61ffff1681526020015f151581526020015f151581526020015f73ffffffffffffffffffffffffffffffffffffffff1681526020015f81525090565b5f80fd5b5f73ffffffffffffffffffffffffffffffffffffffff82169050919050565b5f61166a82611641565b9050919050565b61167a81611660565b8114611684575f80fd5b50565b5f8135905061169581611671565b92915050565b5f602082840312156116b0576116af61163d565b5b5f6116bd84828501611687565b91505092915050565b5f61ffff82169050919050565b6116dc816116c6565b82525050565b5f8115159050919050565b6116f6816116e2565b82525050565b61170581611660565b82525050565b5f819050919050565b61171d8161170b565b82525050565b60c082015f8201516117375f8501826116d3565b50602082015161174a60208501826116d3565b50604082015161175d60408501826116ed565b50606082015161177060608501826116ed565b50608082015161178360808501826116fc565b5060a082015161179660a0850182611714565b50505050565b5f60c0820190506117af5f830184611723565b92915050565b6117be81611660565b82525050565b6117cd8161170b565b82525050565b5f6060820190506117e65f8301866117b5565b6117f360208301856117b5565b61180060408301846117c4565b949350505050565b611811816116e2565b811461181b575f80fd5b50565b5f8135905061182c81611808565b92915050565b5f602082840312156118475761184661163d565b5b5f6118548482850161181e565b91505092915050565b5f6020820190506118705f8301846117c4565b92915050565b5f819050919050565b61188881611876565b82525050565b611897816116c6565b82525050565b5f6060820190506118b05f83018661187f565b6118bd602083018561188e565b6118ca604083018461188e565b949350505050565b6118db816116e2565b82525050565b5f6020820190506118f45f8301846118d2565b92915050565b5f63ffffffff82169050919050565b611912816118fa565b82525050565b5f65ffffffffffff82169050919050565b61193281611918565b82525050565b5f60808201905061194b5f83018761188e565b6119586020830186611909565b6119656040830185611929565b6119726060830184611929565b95945050505050565b5f81519050919050565b5f82825260208201905092915050565b5f5b838110156119b2578082015181840152602081019050611997565b5f8484015250505050565b5f601f19601f8301169050919050565b5f6119d78261197b565b6119e18185611985565b93506119f1818560208601611995565b6119fa816119bd565b840191505092915050565b5f6080820190508181035f830152611a1d81876119cd565b90508181036020830152611a3181866119cd565b9050611a40604083018561187f565b611a4d60608301846117b5565b95945050505050565b5f81519050919050565b5f82825260208201905092915050565b5f611a7a82611a56565b611a848185611a60565b9350611a94818560208601611995565b611a9d816119bd565b840191505092915050565b5f6020820190508181035f830152611ac08184611a70565b905092915050565b5f602082019050611adb5f830184611929565b92915050565b7f416c726561647920766f7465642e0000000000000000000000000000000000005f82015250565b5f611b15600e83611985565b9150611b2082611ae1565b602082019050919050565b5f6020820190508181035f830152611b4281611b09565b9050919050565b7f4e487b71000000000000000000000000000000000000000000000000000000005f52601160045260245ffd5b5f611b80826116c6565b9150611b8b836116c6565b9250828201905061ffff811115611ba557611ba4611b49565b5b92915050565b7f53656c662d64656c65676174696f6e20697320646973616c6c6f7765642e00005f82015250565b5f611bdf601e83611985565b9150611bea82611bab565b602082019050919050565b5f6020820190508181035f830152611c0c81611bd3565b9050919050565b7f466f756e64206c6f6f7020696e2064656c65676174696f6e2e000000000000005f82015250565b5f611c47601983611985565b9150611c5282611c13565b602082019050919050565b5f6020820190508181035f830152611c7481611c3b565b9050919050565b7f4e487b71000000000000000000000000000000000000000000000000000000005f52602260045260245ffd5b5f6002820490506001821680611cbf57607f821691505b602082108103611cd257611cd1611c7b565b5b50919050565b5f611ce2826116c6565b9150611ced836116c6565b9250828202611cfb816116c6565b9150808214611d0d57611d0c611b49565b5b5092915050565b7f4e487b71000000000000000000000000000000000000000000000000000000005f52601260045260245ffd5b5f611d4b826116c6565b9150611d56836116c6565b925082611d6657611d65611d14565b5b828204905092915050565b5f608082019050611d845f8301876117b5565b611d9160208301866117c4565b8181036040830152611da38185611a70565b9050611db2606083018461187f565b95945050505050565b5f81905092915050565b5f819050815f5260205f209050919050565b5f8154611de381611ca8565b611ded8186611dbb565b9450600182165f8114611e075760018114611e1c57611e4e565b60ff1983168652811515820286019350611e4e565b611e2585611dc5565b5f5b83811015611e4657815481890152600182019150602081019050611e27565b838801955050505b50505092915050565b5f611e628284611dd7565b915081905092915050565b5f611e7782611918565b9150611e8283611918565b9250828201905065ffffffffffff811115611ea057611e9f611b49565b5b92915050565b5f611eb08261170b565b9150611ebb8361170b565b9250828201905080821115611ed357611ed2611b49565b5b92915050565b5f602082019050611eec5f8301846117b5565b92915050565b611efb816116c6565b8114611f05575f80fd5b50565b5f81519050611f1681611ef2565b92915050565b5f60208284031215611f3157611f3061163d565b5b5f611f3e84828501611f08565b91505092915050565b7f486173206e6f20726967687420746f20766f74650000000000000000000000005f82015250565b5f611f7b601483611985565b9150611f8682611f47565b602082019050919050565b5f6020820190508181035f830152611fa881611f6f565b905091905056fea26469706673582212202cffccf156dd2e35069be2bb003ab3d342f91b76bb2cb6108f2ced736ea64b3664736f6c63430008140033",
					"opcodes": "PUSH1 0x80 PUSH1 0x40 MSTORE CALLVALUE DUP1 ISZERO PUSH3 0x10 JUMPI PUSH0 DUP1 REVERT JUMPDEST POP PUSH1 0x40 MLOAD PUSH3 0x2D39 CODESIZE SUB DUP1 PUSH3 0x2D39 DUP4 CODECOPY DUP2 DUP2 ADD PUSH1 0x40 MSTORE DUP2 ADD SWAP1 PUSH3 0x36 SWAP2 SWAP1 PUSH3 0x84E JUMP JUMPDEST DUP4 PUSH1 0x4 PUSH0 DUP3 ADD MLOAD DUP2 PUSH0 ADD SWAP1 DUP2 PUSH3 0x4E SWAP2 SWAP1 PUSH3 0xB0A JUMP JUMPDEST POP PUSH1 0x20 DUP3 ADD MLOAD DUP2 PUSH1 0x1 ADD SWAP1 DUP2 PUSH3 0x66 SWAP2 SWAP1 PUSH3 0xB0A JUMP JUMPDEST POP PUSH1 0x40 DUP3 ADD MLOAD DUP2 PUSH1 0x2 ADD SSTORE PUSH1 0x60 DUP3 ADD MLOAD DUP2 PUSH1 0x3 ADD PUSH0 PUSH2 0x100 EXP DUP2 SLOAD DUP2 PUSH20 0xFFFFFFFFFFFFFFFFFFFFFFFFFFFFFFFFFFFFFFFF MUL NOT AND SWAP1 DUP4 PUSH20 0xFFFFFFFFFFFFFFFFFFFFFFFFFFFFFFFFFFFFFFFF AND MUL OR SWAP1 SSTORE POP SWAP1 POP POP PUSH1 0x4 PUSH1 0x1 ADD PUSH1 0x40 MLOAD PUSH1 0x20 ADD PUSH3 0xD1 SWAP2 SWAP1 PUSH3 0xC8B JUMP JUMPDEST PUSH1 0x40 MLOAD PUSH1 0x20 DUP2 DUP4 SUB SUB DUP2 MSTORE SWAP1 PUSH1 0x40 MSTORE DUP1 MLOAD SWAP1 PUSH1 0x20 ADD KECCAK256 PUSH1 0x4 PUSH1 0x2 ADD DUP2 SWAP1 SSTORE POP CALLER PUSH1 0x8 PUSH1 0x1 ADD PUSH0 PUSH2 0x100 EXP DUP2 SLOAD DUP2 PUSH20 0xFFFFFFFFFFFFFFFFFFFFFFFFFFFFFFFFFFFFFFFF MUL NOT AND SWAP1 DUP4 PUSH20 0xFFFFFFFFFFFFFFFFFFFFFFFFFFFFFFFFFFFFFFFF AND MUL OR SWAP1 SSTORE POP PUSH1 0xB PUSH0 PUSH1 0x8 PUSH1 0x1 ADD PUSH0 SWAP1 SLOAD SWAP1 PUSH2 0x100 EXP SWAP1 DIV PUSH20 0xFFFFFFFFFFFFFFFFFFFFFFFFFFFFFFFFFFFFFFFF AND PUSH20 0xFFFFFFFFFFFFFFFFFFFFFFFFFFFFFFFFFFFFFFFF AND PUSH20 0xFFFFFFFFFFFFFFFFFFFFFFFFFFFFFFFFFFFFFFFF AND DUP2 MSTORE PUSH1 0x20 ADD SWAP1 DUP2 MSTORE PUSH1 0x20 ADD PUSH0 KECCAK256 PUSH0 SWAP1 SLOAD SWAP1 PUSH2 0x100 EXP SWAP1 DIV PUSH20 0xFFFFFFFFFFFFFFFFFFFFFFFFFFFFFFFFFFFFFFFF AND PUSH1 0x8 PUSH0 ADD PUSH0 PUSH2 0x100 EXP DUP2 SLOAD DUP2 PUSH20 0xFFFFFFFFFFFFFFFFFFFFFFFFFFFFFFFFFFFFFFFF MUL NOT AND SWAP1 DUP4 PUSH20 0xFFFFFFFFFFFFFFFFFFFFFFFFFFFFFFFFFFFFFFFF AND MUL OR SWAP1 SSTORE POP PUSH0 PUSH20 0xFFFFFFFFFFFFFFFFFFFFFFFFFFFFFFFFFFFFFFFF AND PUSH1 0x8 PUSH0 ADD PUSH0 SWAP1 SLOAD SWAP1 PUSH2 0x100 EXP SWAP1 DIV PUSH20 0xFFFFFFFFFFFFFFFFFFFFFFFFFFFFFFFFFFFFFFFF AND PUSH20 0xFFFFFFFFFFFFFFFFFFFFFFFFFFFFFFFFFFFFFFFF AND SUB PUSH3 0x2AF JUMPI PUSH1 0x8 PUSH1 0x1 ADD PUSH0 SWAP1 SLOAD SWAP1 PUSH2 0x100 EXP SWAP1 DIV PUSH20 0xFFFFFFFFFFFFFFFFFFFFFFFFFFFFFFFFFFFFFFFF AND PUSH1 0x40 MLOAD PUSH32 0xDEFE7BD300000000000000000000000000000000000000000000000000000000 DUP2 MSTORE PUSH1 0x4 ADD PUSH3 0x2A6 SWAP2 SWAP1 PUSH3 0xCBE JUMP JUMPDEST PUSH1 0x40 MLOAD DUP1 SWAP2 SUB SWAP1 REVERT JUMPDEST DUP3 PUSH1 0x8 PUSH1 0x2 ADD DUP2 SWAP1 SSTORE POP DUP2 PUSH1 0x2 PUSH0 DUP3 ADD MLOAD DUP2 PUSH0 ADD PUSH0 PUSH2 0x100 EXP DUP2 SLOAD DUP2 PUSH2 0xFFFF MUL NOT AND SWAP1 DUP4 PUSH2 0xFFFF AND MUL OR SWAP1 SSTORE POP PUSH1 0x20 DUP3 ADD MLOAD DUP2 PUSH0 ADD PUSH1 0x2 PUSH2 0x100 EXP DUP2 SLOAD DUP2 PUSH4 0xFFFFFFFF MUL NOT AND SWAP1 DUP4 PUSH4 0xFFFFFFFF AND MUL OR SWAP1 SSTORE POP PUSH1 0x40 DUP3 ADD MLOAD DUP2 PUSH0 ADD PUSH1 0x6 PUSH2 0x100 EXP DUP2 SLOAD DUP2 PUSH6 0xFFFFFFFFFFFF MUL NOT AND SWAP1 DUP4 PUSH6 0xFFFFFFFFFFFF AND MUL OR SWAP1 SSTORE POP PUSH1 0x60 DUP3 ADD MLOAD DUP2 PUSH0 ADD PUSH1 0xC PUSH2 0x100 EXP DUP2 SLOAD DUP2 PUSH6 0xFFFFFFFFFFFF MUL NOT AND SWAP1 DUP4 PUSH6 0xFFFFFFFFFFFF AND MUL OR SWAP1 SSTORE POP SWAP1 POP POP PUSH1 0x2 PUSH0 ADD PUSH1 0x2 SWAP1 SLOAD SWAP1 PUSH2 0x100 EXP SWAP1 DIV PUSH4 0xFFFFFFFF AND PUSH4 0xFFFFFFFF AND PUSH1 0x2 PUSH0 ADD PUSH1 0x6 SWAP1 SLOAD SWAP1 PUSH2 0x100 EXP SWAP1 DIV PUSH6 0xFFFFFFFFFFFF AND PUSH3 0x397 SWAP2 SWAP1 PUSH3 0xD06 JUMP JUMPDEST PUSH6 0xFFFFFFFFFFFF AND PUSH1 0x3 DUP2 SWAP1 SSTORE POP DUP1 PUSH0 DUP1 ADD DUP2 SWAP1 SSTORE POP PUSH0 DUP1 PUSH1 0x1 ADD PUSH0 PUSH2 0x100 EXP DUP2 SLOAD DUP2 PUSH2 0xFFFF MUL NOT AND SWAP1 DUP4 PUSH2 0xFFFF AND MUL OR SWAP1 SSTORE POP PUSH0 DUP1 PUSH1 0x1 ADD PUSH1 0x2 PUSH2 0x100 EXP DUP2 SLOAD DUP2 PUSH2 0xFFFF MUL NOT AND SWAP1 DUP4 PUSH2 0xFFFF AND MUL OR SWAP1 SSTORE POP POP POP POP POP PUSH3 0xD46 JUMP JUMPDEST PUSH0 PUSH1 0x40 MLOAD SWAP1 POP SWAP1 JUMP JUMPDEST PUSH0 DUP1 REVERT JUMPDEST PUSH0 DUP1 REVERT JUMPDEST PUSH0 DUP1 REVERT JUMPDEST PUSH0 PUSH1 0x1F NOT PUSH1 0x1F DUP4 ADD AND SWAP1 POP SWAP2 SWAP1 POP JUMP JUMPDEST PUSH32 0x4E487B7100000000000000000000000000000000000000000000000000000000 PUSH0 MSTORE PUSH1 0x41 PUSH1 0x4 MSTORE PUSH1 0x24 PUSH0 REVERT JUMPDEST PUSH3 0x451 DUP3 PUSH3 0x409 JUMP JUMPDEST DUP2 ADD DUP2 DUP2 LT PUSH8 0xFFFFFFFFFFFFFFFF DUP3 GT OR ISZERO PUSH3 0x473 JUMPI PUSH3 0x472 PUSH3 0x419 JUMP JUMPDEST JUMPDEST DUP1 PUSH1 0x40 MSTORE POP POP POP JUMP JUMPDEST PUSH0 PUSH3 0x487 PUSH3 0x3F4 JUMP JUMPDEST SWAP1 POP PUSH3 0x495 DUP3 DUP3 PUSH3 0x446 JUMP JUMPDEST SWAP2 SWAP1 POP JUMP JUMPDEST PUSH0 DUP1 REVERT JUMPDEST PUSH0 DUP1 REVERT JUMPDEST PUSH0 DUP1 REVERT JUMPDEST PUSH0 PUSH8 0xFFFFFFFFFFFFFFFF DUP3 GT ISZERO PUSH3 0x4C3 JUMPI PUSH3 0x4C2 PUSH3 0x419 JUMP JUMPDEST JUMPDEST PUSH3 0x4CE DUP3 PUSH3 0x409 JUMP JUMPDEST SWAP1 POP PUSH1 0x20 DUP2 ADD SWAP1 POP SWAP2 SWAP1 POP JUMP JUMPDEST PUSH0 JUMPDEST DUP4 DUP2 LT ISZERO PUSH3 0x4FA JUMPI DUP1 DUP3 ADD MLOAD DUP2 DUP5 ADD MSTORE PUSH1 0x20 DUP2 ADD SWAP1 POP PUSH3 0x4DD JUMP JUMPDEST PUSH0 DUP5 DUP5 ADD MSTORE POP POP POP POP JUMP JUMPDEST PUSH0 PUSH3 0x51B PUSH3 0x515 DUP5 PUSH3 0x4A6 JUMP JUMPDEST PUSH3 0x47C JUMP JUMPDEST SWAP1 POP DUP3 DUP2 MSTORE PUSH1 0x20 DUP2 ADD DUP5 DUP5 DUP5 ADD GT ISZERO PUSH3 0x53A JUMPI PUSH3 0x539 PUSH3 0x4A2 JUMP JUMPDEST JUMPDEST PUSH3 0x547 DUP5 DUP3 DUP6 PUSH3 0x4DB JUMP JUMPDEST POP SWAP4 SWAP3 POP POP POP JUMP JUMPDEST PUSH0 DUP3 PUSH1 0x1F DUP4 ADD SLT PUSH3 0x566 JUMPI PUSH3 0x565 PUSH3 0x49E JUMP JUMPDEST JUMPDEST DUP2 MLOAD PUSH3 0x578 DUP5 DUP3 PUSH1 0x20 DUP7 ADD PUSH3 0x505 JUMP JUMPDEST SWAP2 POP POP SWAP3 SWAP2 POP POP JUMP JUMPDEST PUSH0 DUP2 SWAP1 POP SWAP2 SWAP1 POP JUMP JUMPDEST PUSH3 0x595 DUP2 PUSH3 0x581 JUMP JUMPDEST DUP2 EQ PUSH3 0x5A0 JUMPI PUSH0 DUP1 REVERT JUMPDEST POP JUMP JUMPDEST PUSH0 DUP2 MLOAD SWAP1 POP PUSH3 0x5B3 DUP2 PUSH3 0x58A JUMP JUMPDEST SWAP3 SWAP2 POP POP JUMP JUMPDEST PUSH0 PUSH20 0xFFFFFFFFFFFFFFFFFFFFFFFFFFFFFFFFFFFFFFFF DUP3 AND SWAP1 POP SWAP2 SWAP1 POP JUMP JUMPDEST PUSH0 PUSH3 0x5E4 DUP3 PUSH3 0x5B9 JUMP JUMPDEST SWAP1 POP SWAP2 SWAP1 POP JUMP JUMPDEST PUSH3 0x5F6 DUP2 PUSH3 0x5D8 JUMP JUMPDEST DUP2 EQ PUSH3 0x601 JUMPI PUSH0 DUP1 REVERT JUMPDEST POP JUMP JUMPDEST PUSH0 DUP2 MLOAD SWAP1 POP PUSH3 0x614 DUP2 PUSH3 0x5EB JUMP JUMPDEST SWAP3 SWAP2 POP POP JUMP JUMPDEST PUSH0 PUSH1 0x80 DUP3 DUP5 SUB SLT ISZERO PUSH3 0x632 JUMPI PUSH3 0x631 PUSH3 0x405 JUMP JUMPDEST JUMPDEST PUSH3 0x63E PUSH1 0x80 PUSH3 0x47C JUMP JUMPDEST SWAP1 POP PUSH0 DUP3 ADD MLOAD PUSH8 0xFFFFFFFFFFFFFFFF DUP2 GT ISZERO PUSH3 0x660 JUMPI PUSH3 0x65F PUSH3 0x49A JUMP JUMPDEST JUMPDEST PUSH3 0x66E DUP5 DUP3 DUP6 ADD PUSH3 0x54F JUMP JUMPDEST PUSH0 DUP4 ADD MSTORE POP PUSH1 0x20 DUP3 ADD MLOAD PUSH8 0xFFFFFFFFFFFFFFFF DUP2 GT ISZERO PUSH3 0x694 JUMPI PUSH3 0x693 PUSH3 0x49A JUMP JUMPDEST JUMPDEST PUSH3 0x6A2 DUP5 DUP3 DUP6 ADD PUSH3 0x54F JUMP JUMPDEST PUSH1 0x20 DUP4 ADD MSTORE POP PUSH1 0x40 PUSH3 0x6B8 DUP5 DUP3 DUP6 ADD PUSH3 0x5A3 JUMP JUMPDEST PUSH1 0x40 DUP4 ADD MSTORE POP PUSH1 0x60 PUSH3 0x6CE DUP5 DUP3 DUP6 ADD PUSH3 0x604 JUMP JUMPDEST PUSH1 0x60 DUP4 ADD MSTORE POP SWAP3 SWAP2 POP POP JUMP JUMPDEST PUSH0 DUP2 SWAP1 POP SWAP2 SWAP1 POP JUMP JUMPDEST PUSH3 0x6EE DUP2 PUSH3 0x6DA JUMP JUMPDEST DUP2 EQ PUSH3 0x6F9 JUMPI PUSH0 DUP1 REVERT JUMPDEST POP JUMP JUMPDEST PUSH0 DUP2 MLOAD SWAP1 POP PUSH3 0x70C DUP2 PUSH3 0x6E3 JUMP JUMPDEST SWAP3 SWAP2 POP POP JUMP JUMPDEST PUSH0 PUSH2 0xFFFF DUP3 AND SWAP1 POP SWAP2 SWAP1 POP JUMP JUMPDEST PUSH3 0x72A DUP2 PUSH3 0x712 JUMP JUMPDEST DUP2 EQ PUSH3 0x735 JUMPI PUSH0 DUP1 REVERT JUMPDEST POP JUMP JUMPDEST PUSH0 DUP2 MLOAD SWAP1 POP PUSH3 0x748 DUP2 PUSH3 0x71F JUMP JUMPDEST SWAP3 SWAP2 POP POP JUMP JUMPDEST PUSH0 PUSH4 0xFFFFFFFF DUP3 AND SWAP1 POP SWAP2 SWAP1 POP JUMP JUMPDEST PUSH3 0x768 DUP2 PUSH3 0x74E JUMP JUMPDEST DUP2 EQ PUSH3 0x773 JUMPI PUSH0 DUP1 REVERT JUMPDEST POP JUMP JUMPDEST PUSH0 DUP2 MLOAD SWAP1 POP PUSH3 0x786 DUP2 PUSH3 0x75D JUMP JUMPDEST SWAP3 SWAP2 POP POP JUMP JUMPDEST PUSH0 PUSH6 0xFFFFFFFFFFFF DUP3 AND SWAP1 POP SWAP2 SWAP1 POP JUMP JUMPDEST PUSH3 0x7A8 DUP2 PUSH3 0x78C JUMP JUMPDEST DUP2 EQ PUSH3 0x7B3 JUMPI PUSH0 DUP1 REVERT JUMPDEST POP JUMP JUMPDEST PUSH0 DUP2 MLOAD SWAP1 POP PUSH3 0x7C6 DUP2 PUSH3 0x79D JUMP JUMPDEST SWAP3 SWAP2 POP POP JUMP JUMPDEST PUSH0 PUSH1 0x80 DUP3 DUP5 SUB SLT ISZERO PUSH3 0x7E4 JUMPI PUSH3 0x7E3 PUSH3 0x405 JUMP JUMPDEST JUMPDEST PUSH3 0x7F0 PUSH1 0x80 PUSH3 0x47C JUMP JUMPDEST SWAP1 POP PUSH0 PUSH3 0x801 DUP5 DUP3 DUP6 ADD PUSH3 0x738 JUMP JUMPDEST PUSH0 DUP4 ADD MSTORE POP PUSH1 0x20 PUSH3 0x816 DUP5 DUP3 DUP6 ADD PUSH3 0x776 JUMP JUMPDEST PUSH1 0x20 DUP4 ADD MSTORE POP PUSH1 0x40 PUSH3 0x82C DUP5 DUP3 DUP6 ADD PUSH3 0x7B6 JUMP JUMPDEST PUSH1 0x40 DUP4 ADD MSTORE POP PUSH1 0x60 PUSH3 0x842 DUP5 DUP3 DUP6 ADD PUSH3 0x7B6 JUMP JUMPDEST PUSH1 0x60 DUP4 ADD MSTORE POP SWAP3 SWAP2 POP POP JUMP JUMPDEST PUSH0 DUP1 PUSH0 DUP1 PUSH1 0xE0 DUP6 DUP8 SUB SLT ISZERO PUSH3 0x869 JUMPI PUSH3 0x868 PUSH3 0x3FD JUMP JUMPDEST JUMPDEST PUSH0 DUP6 ADD MLOAD PUSH8 0xFFFFFFFFFFFFFFFF DUP2 GT ISZERO PUSH3 0x889 JUMPI PUSH3 0x888 PUSH3 0x401 JUMP JUMPDEST JUMPDEST PUSH3 0x897 DUP8 DUP3 DUP9 ADD PUSH3 0x61A JUMP JUMPDEST SWAP5 POP POP PUSH1 0x20 PUSH3 0x8AA DUP8 DUP3 DUP9 ADD PUSH3 0x6FC JUMP JUMPDEST SWAP4 POP POP PUSH1 0x40 PUSH3 0x8BD DUP8 DUP3 DUP9 ADD PUSH3 0x7CC JUMP JUMPDEST SWAP3 POP POP PUSH1 0xC0 PUSH3 0x8D0 DUP8 DUP3 DUP9 ADD PUSH3 0x5A3 JUMP JUMPDEST SWAP2 POP POP SWAP3 SWAP6 SWAP2 SWAP5 POP SWAP3 POP JUMP JUMPDEST PUSH0 DUP2 MLOAD SWAP1 POP SWAP2 SWAP1 POP JUMP JUMPDEST PUSH32 0x4E487B7100000000000000000000000000000000000000000000000000000000 PUSH0 MSTORE PUSH1 0x22 PUSH1 0x4 MSTORE PUSH1 0x24 PUSH0 REVERT JUMPDEST PUSH0 PUSH1 0x2 DUP3 DIV SWAP1 POP PUSH1 0x1 DUP3 AND DUP1 PUSH3 0x92B JUMPI PUSH1 0x7F DUP3 AND SWAP2 POP JUMPDEST PUSH1 0x20 DUP3 LT DUP2 SUB PUSH3 0x941 JUMPI PUSH3 0x940 PUSH3 0x8E6 JUMP JUMPDEST JUMPDEST POP SWAP2 SWAP1 POP JUMP JUMPDEST PUSH0 DUP2 SWAP1 POP DUP2 PUSH0 MSTORE PUSH1 0x20 PUSH0 KECCAK256 SWAP1 POP SWAP2 SWAP1 POP JUMP JUMPDEST PUSH0 PUSH1 0x20 PUSH1 0x1F DUP4 ADD DIV SWAP1 POP SWAP2 SWAP1 POP JUMP JUMPDEST PUSH0 DUP3 DUP3 SHL SWAP1 POP SWAP3 SWAP2 POP POP JUMP JUMPDEST PUSH0 PUSH1 0x8 DUP4 MUL PUSH3 0x9A5 PUSH32 0xFFFFFFFFFFFFFFFFFFFFFFFFFFFFFFFFFFFFFFFFFFFFFFFFFFFFFFFFFFFFFFFF DUP3 PUSH3 0x968 JUMP JUMPDEST PUSH3 0x9B1 DUP7 DUP4 PUSH3 0x968 JUMP JUMPDEST SWAP6 POP DUP1 NOT DUP5 AND SWAP4 POP DUP1 DUP7 AND DUP5 OR SWAP3 POP POP POP SWAP4 SWAP3 POP POP POP JUMP JUMPDEST PUSH0 DUP2 SWAP1 POP SWAP2 SWAP1 POP JUMP JUMPDEST PUSH0 PUSH3 0x9F2 PUSH3 0x9EC PUSH3 0x9E6 DUP5 PUSH3 0x6DA JUMP JUMPDEST PUSH3 0x9C9 JUMP JUMPDEST PUSH3 0x6DA JUMP JUMPDEST SWAP1 POP SWAP2 SWAP1 POP JUMP JUMPDEST PUSH0 DUP2 SWAP1 POP SWAP2 SWAP1 POP JUMP JUMPDEST PUSH3 0xA0D DUP4 PUSH3 0x9D2 JUMP JUMPDEST PUSH3 0xA25 PUSH3 0xA1C DUP3 PUSH3 0x9F9 JUMP JUMPDEST DUP5 DUP5 SLOAD PUSH3 0x974 JUMP JUMPDEST DUP3 SSTORE POP POP POP POP JUMP JUMPDEST PUSH0 SWAP1 JUMP JUMPDEST PUSH3 0xA3B PUSH3 0xA2D JUMP JUMPDEST PUSH3 0xA48 DUP2 DUP5 DUP5 PUSH3 0xA02 JUMP JUMPDEST POP POP POP JUMP JUMPDEST JUMPDEST DUP2 DUP2 LT ISZERO PUSH3 0xA6F JUMPI PUSH3 0xA63 PUSH0 DUP3 PUSH3 0xA31 JUMP JUMPDEST PUSH1 0x1 DUP2 ADD SWAP1 POP PUSH3 0xA4E JUMP JUMPDEST POP POP JUMP JUMPDEST PUSH1 0x1F DUP3 GT ISZERO PUSH3 0xABE JUMPI PUSH3 0xA88 DUP2 PUSH3 0x947 JUMP JUMPDEST PUSH3 0xA93 DUP5 PUSH3 0x959 JUMP JUMPDEST DUP2 ADD PUSH1 0x20 DUP6 LT ISZERO PUSH3 0xAA3 JUMPI DUP2 SWAP1 POP JUMPDEST PUSH3 0xABB PUSH3 0xAB2 DUP6 PUSH3 0x959 JUMP JUMPDEST DUP4 ADD DUP3 PUSH3 0xA4D JUMP JUMPDEST POP POP JUMPDEST POP POP POP JUMP JUMPDEST PUSH0 DUP3 DUP3 SHR SWAP1 POP SWAP3 SWAP2 POP POP JUMP JUMPDEST PUSH0 PUSH3 0xAE0 PUSH0 NOT DUP5 PUSH1 0x8 MUL PUSH3 0xAC3 JUMP JUMPDEST NOT DUP1 DUP4 AND SWAP2 POP POP SWAP3 SWAP2 POP POP JUMP JUMPDEST PUSH0 PUSH3 0xAFA DUP4 DUP4 PUSH3 0xACF JUMP JUMPDEST SWAP2 POP DUP3 PUSH1 0x2 MUL DUP3 OR SWAP1 POP SWAP3 SWAP2 POP POP JUMP JUMPDEST PUSH3 0xB15 DUP3 PUSH3 0x8DC JUMP JUMPDEST PUSH8 0xFFFFFFFFFFFFFFFF DUP2 GT ISZERO PUSH3 0xB31 JUMPI PUSH3 0xB30 PUSH3 0x419 JUMP JUMPDEST JUMPDEST PUSH3 0xB3D DUP3 SLOAD PUSH3 0x913 JUMP JUMPDEST PUSH3 0xB4A DUP3 DUP3 DUP6 PUSH3 0xA73 JUMP JUMPDEST PUSH0 PUSH1 0x20 SWAP1 POP PUSH1 0x1F DUP4 GT PUSH1 0x1 DUP2 EQ PUSH3 0xB80 JUMPI PUSH0 DUP5 ISZERO PUSH3 0xB6B JUMPI DUP3 DUP8 ADD MLOAD SWAP1 POP JUMPDEST PUSH3 0xB77 DUP6 DUP3 PUSH3 0xAED JUMP JUMPDEST DUP7 SSTORE POP PUSH3 0xBE6 JUMP JUMPDEST PUSH1 0x1F NOT DUP5 AND PUSH3 0xB90 DUP7 PUSH3 0x947 JUMP JUMPDEST PUSH0 JUMPDEST DUP3 DUP2 LT ISZERO PUSH3 0xBB9 JUMPI DUP5 DUP10 ADD MLOAD DUP3 SSTORE PUSH1 0x1 DUP3 ADD SWAP2 POP PUSH1 0x20 DUP6 ADD SWAP5 POP PUSH1 0x20 DUP2 ADD SWAP1 POP PUSH3 0xB92 JUMP JUMPDEST DUP7 DUP4 LT ISZERO PUSH3 0xBD9 JUMPI DUP5 DUP10 ADD MLOAD PUSH3 0xBD5 PUSH1 0x1F DUP10 AND DUP3 PUSH3 0xACF JUMP JUMPDEST DUP4 SSTORE POP JUMPDEST PUSH1 0x1 PUSH1 0x2 DUP9 MUL ADD DUP9 SSTORE POP POP POP JUMPDEST POP POP POP POP POP POP JUMP JUMPDEST PUSH0 DUP3 DUP3 MSTORE PUSH1 0x20 DUP3 ADD SWAP1 POP SWAP3 SWAP2 POP POP JUMP JUMPDEST PUSH0 DUP2 SLOAD PUSH3 0xC0C DUP2 PUSH3 0x913 JUMP JUMPDEST PUSH3 0xC18 DUP2 DUP7 PUSH3 0xBEE JUMP JUMPDEST SWAP5 POP PUSH1 0x1 DUP3 AND PUSH0 DUP2 EQ PUSH3 0xC35 JUMPI PUSH1 0x1 DUP2 EQ PUSH3 0xC4C JUMPI PUSH3 0xC82 JUMP JUMPDEST PUSH1 0xFF NOT DUP4 AND DUP7 MSTORE DUP2 ISZERO ISZERO PUSH1 0x20 MUL DUP7 ADD SWAP4 POP PUSH3 0xC82 JUMP JUMPDEST PUSH3 0xC57 DUP6 PUSH3 0x947 JUMP JUMPDEST PUSH0 JUMPDEST DUP4 DUP2 LT ISZERO PUSH3 0xC7A JUMPI DUP2 SLOAD DUP2 DUP10 ADD MSTORE PUSH1 0x1 DUP3 ADD SWAP2 POP PUSH1 0x20 DUP2 ADD SWAP1 POP PUSH3 0xC59 JUMP JUMPDEST DUP1 DUP9 ADD SWAP6 POP POP POP JUMPDEST POP POP POP SWAP3 SWAP2 POP POP JUMP JUMPDEST PUSH0 PUSH1 0x20 DUP3 ADD SWAP1 POP DUP2 DUP2 SUB PUSH0 DUP4 ADD MSTORE PUSH3 0xCA5 DUP2 DUP5 PUSH3 0xBFE JUMP JUMPDEST SWAP1 POP SWAP3 SWAP2 POP POP JUMP JUMPDEST PUSH3 0xCB8 DUP2 PUSH3 0x5D8 JUMP JUMPDEST DUP3 MSTORE POP POP JUMP JUMPDEST PUSH0 PUSH1 0x20 DUP3 ADD SWAP1 POP PUSH3 0xCD3 PUSH0 DUP4 ADD DUP5 PUSH3 0xCAD JUMP JUMPDEST SWAP3 SWAP2 POP POP JUMP JUMPDEST PUSH32 0x4E487B7100000000000000000000000000000000000000000000000000000000 PUSH0 MSTORE PUSH1 0x11 PUSH1 0x4 MSTORE PUSH1 0x24 PUSH0 REVERT JUMPDEST PUSH0 PUSH3 0xD12 DUP3 PUSH3 0x78C JUMP JUMPDEST SWAP2 POP PUSH3 0xD1F DUP4 PUSH3 0x78C JUMP JUMPDEST SWAP3 POP DUP3 DUP3 ADD SWAP1 POP PUSH6 0xFFFFFFFFFFFF DUP2 GT ISZERO PUSH3 0xD40 JUMPI PUSH3 0xD3F PUSH3 0xCD9 JUMP JUMPDEST JUMPDEST SWAP3 SWAP2 POP POP JUMP JUMPDEST PUSH2 0x1FE5 DUP1 PUSH3 0xD54 PUSH0 CODECOPY PUSH0 RETURN INVALID PUSH1 0x80 PUSH1 0x40 MSTORE CALLVALUE DUP1 ISZERO PUSH2 0xF JUMPI PUSH0 DUP1 REVERT JUMPDEST POP PUSH1 0x4 CALLDATASIZE LT PUSH2 0xCD JUMPI PUSH0 CALLDATALOAD PUSH1 0xE0 SHR DUP1 PUSH4 0x85227E51 GT PUSH2 0x8A JUMPI DUP1 PUSH4 0xCFB62DEE GT PUSH2 0x64 JUMPI DUP1 PUSH4 0xCFB62DEE EQ PUSH2 0x209 JUMPI DUP1 PUSH4 0xEC5BF07B EQ PUSH2 0x227 JUMPI DUP1 PUSH4 0xEE26A38A EQ PUSH2 0x245 JUMPI DUP1 PUSH4 0xF8B1B08A EQ PUSH2 0x265 JUMPI PUSH2 0xCD JUMP JUMPDEST DUP1 PUSH4 0x85227E51 EQ PUSH2 0x197 JUMPI DUP1 PUSH4 0xB3A05246 EQ PUSH2 0x1C7 JUMPI DUP1 PUSH4 0xBC33C7D7 EQ PUSH2 0x1E8 JUMPI PUSH2 0xCD JUMP JUMPDEST DUP1 PUSH4 0x41617C8F EQ PUSH2 0xD1 JUMPI DUP1 PUSH4 0x4731CA2B EQ PUSH2 0x101 JUMPI DUP1 PUSH4 0x4B9F5C98 EQ PUSH2 0x121 JUMPI DUP1 PUSH4 0x5C19A95C EQ PUSH2 0x13D JUMPI DUP1 PUSH4 0x5F8D96DE EQ PUSH2 0x159 JUMPI DUP1 PUSH4 0x81C4787B EQ PUSH2 0x177 JUMPI JUMPDEST PUSH0 DUP1 REVERT JUMPDEST PUSH2 0xEB PUSH1 0x4 DUP1 CALLDATASIZE SUB DUP2 ADD SWAP1 PUSH2 0xE6 SWAP2 SWAP1 PUSH2 0x169B JUMP JUMPDEST PUSH2 0x283 JUMP JUMPDEST PUSH1 0x40 MLOAD PUSH2 0xF8 SWAP2 SWAP1 PUSH2 0x179C JUMP JUMPDEST PUSH1 0x40 MLOAD DUP1 SWAP2 SUB SWAP1 RETURN JUMPDEST PUSH2 0x109 PUSH2 0x3AA JUMP JUMPDEST PUSH1 0x40 MLOAD PUSH2 0x118 SWAP4 SWAP3 SWAP2 SWAP1 PUSH2 0x17D3 JUMP JUMPDEST PUSH1 0x40 MLOAD DUP1 SWAP2 SUB SWAP1 RETURN JUMPDEST PUSH2 0x13B PUSH1 0x4 DUP1 CALLDATASIZE SUB DUP2 ADD SWAP1 PUSH2 0x136 SWAP2 SWAP1 PUSH2 0x1832 JUMP JUMPDEST PUSH2 0x407 JUMP JUMPDEST STOP JUMPDEST PUSH2 0x157 PUSH1 0x4 DUP1 CALLDATASIZE SUB DUP2 ADD SWAP1 PUSH2 0x152 SWAP2 SWAP1 PUSH2 0x169B JUMP JUMPDEST PUSH2 0x746 JUMP JUMPDEST STOP JUMPDEST PUSH2 0x161 PUSH2 0xC1B JUMP JUMPDEST PUSH1 0x40 MLOAD PUSH2 0x16E SWAP2 SWAP1 PUSH2 0x185D JUMP JUMPDEST PUSH1 0x40 MLOAD DUP1 SWAP2 SUB SWAP1 RETURN JUMPDEST PUSH2 0x17F PUSH2 0xC24 JUMP JUMPDEST PUSH1 0x40 MLOAD PUSH2 0x18E SWAP4 SWAP3 SWAP2 SWAP1 PUSH2 0x189D JUMP JUMPDEST PUSH1 0x40 MLOAD DUP1 SWAP2 SUB SWAP1 RETURN JUMPDEST PUSH2 0x1B1 PUSH1 0x4 DUP1 CALLDATASIZE SUB DUP2 ADD SWAP1 PUSH2 0x1AC SWAP2 SWAP1 PUSH2 0x169B JUMP JUMPDEST PUSH2 0xC55 JUMP JUMPDEST PUSH1 0x40 MLOAD PUSH2 0x1BE SWAP2 SWAP1 PUSH2 0x18E1 JUMP JUMPDEST PUSH1 0x40 MLOAD DUP1 SWAP2 SUB SWAP1 RETURN JUMPDEST PUSH2 0x1CF PUSH2 0xE87 JUMP JUMPDEST PUSH1 0x40 MLOAD PUSH2 0x1DF SWAP5 SWAP4 SWAP3 SWAP2 SWAP1 PUSH2 0x1938 JUMP JUMPDEST PUSH1 0x40 MLOAD DUP1 SWAP2 SUB SWAP1 RETURN JUMPDEST PUSH2 0x1F0 PUSH2 0xEEE JUMP JUMPDEST PUSH1 0x40 MLOAD PUSH2 0x200 SWAP5 SWAP4 SWAP3 SWAP2 SWAP1 PUSH2 0x1A05 JUMP JUMPDEST PUSH1 0x40 MLOAD DUP1 SWAP2 SUB SWAP1 RETURN JUMPDEST PUSH2 0x211 PUSH2 0x1049 JUMP JUMPDEST PUSH1 0x40 MLOAD PUSH2 0x21E SWAP2 SWAP1 PUSH2 0x18E1 JUMP JUMPDEST PUSH1 0x40 MLOAD DUP1 SWAP2 SUB SWAP1 RETURN JUMPDEST PUSH2 0x22F PUSH2 0x112B JUMP JUMPDEST PUSH1 0x40 MLOAD PUSH2 0x23C SWAP2 SWAP1 PUSH2 0x185D JUMP JUMPDEST PUSH1 0x40 MLOAD DUP1 SWAP2 SUB SWAP1 RETURN JUMPDEST PUSH2 0x24D PUSH2 0x1194 JUMP JUMPDEST PUSH1 0x40 MLOAD PUSH2 0x25C SWAP4 SWAP3 SWAP2 SWAP1 PUSH2 0x189D JUMP JUMPDEST PUSH1 0x40 MLOAD DUP1 SWAP2 SUB SWAP1 RETURN JUMPDEST PUSH2 0x26D PUSH2 0x11CB JUMP JUMPDEST PUSH1 0x40 MLOAD PUSH2 0x27A SWAP2 SWAP1 PUSH2 0x1AA8 JUMP JUMPDEST PUSH1 0x40 MLOAD DUP1 SWAP2 SUB SWAP1 RETURN JUMPDEST PUSH2 0x28B PUSH2 0x15EB JUMP JUMPDEST PUSH1 0xC PUSH0 DUP4 PUSH20 0xFFFFFFFFFFFFFFFFFFFFFFFFFFFFFFFFFFFFFFFF AND PUSH20 0xFFFFFFFFFFFFFFFFFFFFFFFFFFFFFFFFFFFFFFFF AND DUP2 MSTORE PUSH1 0x20 ADD SWAP1 DUP2 MSTORE PUSH1 0x20 ADD PUSH0 KECCAK256 PUSH1 0x40 MLOAD DUP1 PUSH1 0xC0 ADD PUSH1 0x40 MSTORE SWAP1 DUP2 PUSH0 DUP3 ADD PUSH0 SWAP1 SLOAD SWAP1 PUSH2 0x100 EXP SWAP1 DIV PUSH2 0xFFFF AND PUSH2 0xFFFF AND PUSH2 0xFFFF AND DUP2 MSTORE PUSH1 0x20 ADD PUSH0 DUP3 ADD PUSH1 0x2 SWAP1 SLOAD SWAP1 PUSH2 0x100 EXP SWAP1 DIV PUSH2 0xFFFF AND PUSH2 0xFFFF AND PUSH2 0xFFFF AND DUP2 MSTORE PUSH1 0x20 ADD PUSH0 DUP3 ADD PUSH1 0x4 SWAP1 SLOAD SWAP1 PUSH2 0x100 EXP SWAP1 DIV PUSH1 0xFF AND ISZERO ISZERO ISZERO ISZERO DUP2 MSTORE PUSH1 0x20 ADD PUSH0 DUP3 ADD PUSH1 0x5 SWAP1 SLOAD SWAP1 PUSH2 0x100 EXP SWAP1 DIV PUSH1 0xFF AND ISZERO ISZERO ISZERO ISZERO DUP2 MSTORE PUSH1 0x20 ADD PUSH0 DUP3 ADD PUSH1 0x6 SWAP1 SLOAD SWAP1 PUSH2 0x100 EXP SWAP1 DIV PUSH20 0xFFFFFFFFFFFFFFFFFFFFFFFFFFFFFFFFFFFFFFFF AND PUSH20 0xFFFFFFFFFFFFFFFFFFFFFFFFFFFFFFFFFFFFFFFF AND PUSH20 0xFFFFFFFFFFFFFFFFFFFFFFFFFFFFFFFFFFFFFFFF AND DUP2 MSTORE PUSH1 0x20 ADD PUSH1 0x1 DUP3 ADD SLOAD DUP2 MSTORE POP POP SWAP1 POP SWAP2 SWAP1 POP JUMP JUMPDEST PUSH0 DUP1 PUSH0 PUSH1 0x8 PUSH0 ADD PUSH0 SWAP1 SLOAD SWAP1 PUSH2 0x100 EXP SWAP1 DIV PUSH20 0xFFFFFFFFFFFFFFFFFFFFFFFFFFFFFFFFFFFFFFFF AND PUSH1 0x8 PUSH1 0x1 ADD PUSH0 SWAP1 SLOAD SWAP1 PUSH2 0x100 EXP SWAP1 DIV PUSH20 0xFFFFFFFFFFFFFFFFFFFFFFFFFFFFFFFFFFFFFFFF AND PUSH1 0x8 PUSH1 0x2 ADD SLOAD SWAP3 POP SWAP3 POP SWAP3 POP SWAP1 SWAP2 SWAP3 JUMP JUMPDEST PUSH1 0x2 PUSH0 ADD PUSH1 0x6 SWAP1 SLOAD SWAP1 PUSH2 0x100 EXP SWAP1 DIV PUSH6 0xFFFFFFFFFFFF AND PUSH6 0xFFFFFFFFFFFF AND TIMESTAMP LT ISZERO PUSH2 0x480 JUMPI PUSH1 0x2 PUSH0 ADD PUSH1 0x6 SWAP1 SLOAD SWAP1 PUSH2 0x100 EXP SWAP1 DIV PUSH6 0xFFFFFFFFFFFF AND PUSH1 0x40 MLOAD PUSH32 0x55D0B3CF00000000000000000000000000000000000000000000000000000000 DUP2 MSTORE PUSH1 0x4 ADD PUSH2 0x477 SWAP2 SWAP1 PUSH2 0x1AC8 JUMP JUMPDEST PUSH1 0x40 MLOAD DUP1 SWAP2 SUB SWAP1 REVERT JUMPDEST PUSH2 0x488 PUSH2 0x124E JUMP JUMPDEST PUSH2 0x4CB JUMPI PUSH1 0x3 SLOAD PUSH1 0x40 MLOAD PUSH32 0x8B00B71700000000000000000000000000000000000000000000000000000000 DUP2 MSTORE PUSH1 0x4 ADD PUSH2 0x4C2 SWAP2 SWAP1 PUSH2 0x185D JUMP JUMPDEST PUSH1 0x40 MLOAD DUP1 SWAP2 SUB SWAP1 REVERT JUMPDEST PUSH1 0xC PUSH0 CALLER PUSH20 0xFFFFFFFFFFFFFFFFFFFFFFFFFFFFFFFFFFFFFFFF AND PUSH20 0xFFFFFFFFFFFFFFFFFFFFFFFFFFFFFFFFFFFFFFFF AND DUP2 MSTORE PUSH1 0x20 ADD SWAP1 DUP2 MSTORE PUSH1 0x20 ADD PUSH0 KECCAK256 PUSH0 ADD PUSH1 0x4 SWAP1 SLOAD SWAP1 PUSH2 0x100 EXP SWAP1 DIV PUSH1 0xFF AND ISZERO PUSH2 0x558 JUMPI PUSH1 0x40 MLOAD PUSH32 0x8C379A000000000000000000000000000000000000000000000000000000000 DUP2 MSTORE PUSH1 0x4 ADD PUSH2 0x54F SWAP1 PUSH2 0x1B2B JUMP JUMPDEST PUSH1 0x40 MLOAD DUP1 SWAP2 SUB SWAP1 REVERT JUMPDEST PUSH2 0x560 PUSH2 0x13F5 JUMP JUMPDEST PUSH0 PUSH1 0xC PUSH0 CALLER PUSH20 0xFFFFFFFFFFFFFFFFFFFFFFFFFFFFFFFFFFFFFFFF AND PUSH20 0xFFFFFFFFFFFFFFFFFFFFFFFFFFFFFFFFFFFFFFFF AND DUP2 MSTORE PUSH1 0x20 ADD SWAP1 DUP2 MSTORE PUSH1 0x20 ADD PUSH0 KECCAK256 SWAP1 POP PUSH1 0x1 DUP2 PUSH0 ADD PUSH1 0x4 PUSH2 0x100 EXP DUP2 SLOAD DUP2 PUSH1 0xFF MUL NOT AND SWAP1 DUP4 ISZERO ISZERO MUL OR SWAP1 SSTORE POP TIMESTAMP DUP2 PUSH1 0x1 ADD DUP2 SWAP1 SSTORE POP DUP2 ISZERO PUSH2 0x69C JUMPI DUP1 PUSH0 ADD PUSH0 SWAP1 SLOAD SWAP1 PUSH2 0x100 EXP SWAP1 DIV PUSH2 0xFFFF AND PUSH0 PUSH1 0x1 ADD PUSH1 0x2 DUP3 DUP3 DUP3 SWAP1 SLOAD SWAP1 PUSH2 0x100 EXP SWAP1 DIV PUSH2 0xFFFF AND PUSH2 0x5FC SWAP2 SWAP1 PUSH2 0x1B76 JUMP JUMPDEST SWAP3 POP PUSH2 0x100 EXP DUP2 SLOAD DUP2 PUSH2 0xFFFF MUL NOT AND SWAP1 DUP4 PUSH2 0xFFFF AND MUL OR SWAP1 SSTORE POP DUP1 PUSH0 ADD PUSH1 0x2 SWAP1 SLOAD SWAP1 PUSH2 0x100 EXP SWAP1 DIV PUSH2 0xFFFF AND DUP2 PUSH0 ADD PUSH0 SWAP1 SLOAD SWAP1 PUSH2 0x100 EXP SWAP1 DIV PUSH2 0xFFFF AND PUSH2 0x643 SWAP2 SWAP1 PUSH2 0x1B76 JUMP JUMPDEST PUSH0 PUSH1 0x1 ADD PUSH0 DUP3 DUP3 DUP3 SWAP1 SLOAD SWAP1 PUSH2 0x100 EXP SWAP1 DIV PUSH2 0xFFFF AND PUSH2 0x662 SWAP2 SWAP1 PUSH2 0x1B76 JUMP JUMPDEST SWAP3 POP PUSH2 0x100 EXP DUP2 SLOAD DUP2 PUSH2 0xFFFF MUL NOT AND SWAP1 DUP4 PUSH2 0xFFFF AND MUL OR SWAP1 SSTORE POP DUP2 DUP2 PUSH0 ADD PUSH1 0x5 PUSH2 0x100 EXP DUP2 SLOAD DUP2 PUSH1 0xFF MUL NOT AND SWAP1 DUP4 ISZERO ISZERO MUL OR SWAP1 SSTORE POP PUSH2 0x6E8 JUMP JUMPDEST DUP1 PUSH0 ADD PUSH0 SWAP1 SLOAD SWAP1 PUSH2 0x100 EXP SWAP1 DIV PUSH2 0xFFFF AND PUSH0 PUSH1 0x1 ADD PUSH1 0x2 DUP3 DUP3 DUP3 SWAP1 SLOAD SWAP1 PUSH2 0x100 EXP SWAP1 DIV PUSH2 0xFFFF AND PUSH2 0x6CD SWAP2 SWAP1 PUSH2 0x1B76 JUMP JUMPDEST SWAP3 POP PUSH2 0x100 EXP DUP2 SLOAD DUP2 PUSH2 0xFFFF MUL NOT AND SWAP1 DUP4 PUSH2 0xFFFF AND MUL OR SWAP1 SSTORE POP JUMPDEST ADDRESS PUSH20 0xFFFFFFFFFFFFFFFFFFFFFFFFFFFFFFFFFFFFFFFF AND CALLER PUSH20 0xFFFFFFFFFFFFFFFFFFFFFFFFFFFFFFFFFFFFFFFF AND PUSH32 0xF0C90984366C9ECCE045B67DA09271F6D22BD9AD1AED6562DE5BCF1DEF4C7399 PUSH1 0x40 MLOAD PUSH1 0x40 MLOAD DUP1 SWAP2 SUB SWAP1 LOG3 POP POP JUMP JUMPDEST PUSH2 0x74E PUSH2 0x124E JUMP JUMPDEST PUSH2 0x791 JUMPI PUSH1 0x3 SLOAD PUSH1 0x40 MLOAD PUSH32 0x8B00B71700000000000000000000000000000000000000000000000000000000 DUP2 MSTORE PUSH1 0x4 ADD PUSH2 0x788 SWAP2 SWAP1 PUSH2 0x185D JUMP JUMPDEST PUSH1 0x40 MLOAD DUP1 SWAP2 SUB SWAP1 REVERT JUMPDEST PUSH1 0xC PUSH0 CALLER PUSH20 0xFFFFFFFFFFFFFFFFFFFFFFFFFFFFFFFFFFFFFFFF AND PUSH20 0xFFFFFFFFFFFFFFFFFFFFFFFFFFFFFFFFFFFFFFFF AND DUP2 MSTORE PUSH1 0x20 ADD SWAP1 DUP2 MSTORE PUSH1 0x20 ADD PUSH0 KECCAK256 PUSH0 ADD PUSH1 0x4 SWAP1 SLOAD SWAP1 PUSH2 0x100 EXP SWAP1 DIV PUSH1 0xFF AND ISZERO PUSH2 0x81E JUMPI PUSH1 0x40 MLOAD PUSH32 0x8C379A000000000000000000000000000000000000000000000000000000000 DUP2 MSTORE PUSH1 0x4 ADD PUSH2 0x815 SWAP1 PUSH2 0x1B2B JUMP JUMPDEST PUSH1 0x40 MLOAD DUP1 SWAP2 SUB SWAP1 REVERT JUMPDEST PUSH2 0x826 PUSH2 0x13F5 JUMP JUMPDEST PUSH0 PUSH1 0xC PUSH0 CALLER PUSH20 0xFFFFFFFFFFFFFFFFFFFFFFFFFFFFFFFFFFFFFFFF AND PUSH20 0xFFFFFFFFFFFFFFFFFFFFFFFFFFFFFFFFFFFFFFFF AND DUP2 MSTORE PUSH1 0x20 ADD SWAP1 DUP2 MSTORE PUSH1 0x20 ADD PUSH0 KECCAK256 SWAP1 POP CALLER PUSH20 0xFFFFFFFFFFFFFFFFFFFFFFFFFFFFFFFFFFFFFFFF AND DUP3 PUSH20 0xFFFFFFFFFFFFFFFFFFFFFFFFFFFFFFFFFFFFFFFF AND SUB PUSH2 0x8D4 JUMPI PUSH1 0x40 MLOAD PUSH32 0x8C379A000000000000000000000000000000000000000000000000000000000 DUP2 MSTORE PUSH1 0x4 ADD PUSH2 0x8CB SWAP1 PUSH2 0x1BF5 JUMP JUMPDEST PUSH1 0x40 MLOAD DUP1 SWAP2 SUB SWAP1 REVERT JUMPDEST JUMPDEST PUSH0 PUSH20 0xFFFFFFFFFFFFFFFFFFFFFFFFFFFFFFFFFFFFFFFF AND PUSH1 0xC PUSH0 DUP5 PUSH20 0xFFFFFFFFFFFFFFFFFFFFFFFFFFFFFFFFFFFFFFFF AND PUSH20 0xFFFFFFFFFFFFFFFFFFFFFFFFFFFFFFFFFFFFFFFF AND DUP2 MSTORE PUSH1 0x20 ADD SWAP1 DUP2 MSTORE PUSH1 0x20 ADD PUSH0 KECCAK256 PUSH0 ADD PUSH1 0x6 SWAP1 SLOAD SWAP1 PUSH2 0x100 EXP SWAP1 DIV PUSH20 0xFFFFFFFFFFFFFFFFFFFFFFFFFFFFFFFFFFFFFFFF AND PUSH20 0xFFFFFFFFFFFFFFFFFFFFFFFFFFFFFFFFFFFFFFFF AND EQ PUSH2 0xA3C JUMPI PUSH1 0xC PUSH0 DUP4 PUSH20 0xFFFFFFFFFFFFFFFFFFFFFFFFFFFFFFFFFFFFFFFF AND PUSH20 0xFFFFFFFFFFFFFFFFFFFFFFFFFFFFFFFFFFFFFFFF AND DUP2 MSTORE PUSH1 0x20 ADD SWAP1 DUP2 MSTORE PUSH1 0x20 ADD PUSH0 KECCAK256 PUSH0 ADD PUSH1 0x6 SWAP1 SLOAD SWAP1 PUSH2 0x100 EXP SWAP1 DIV PUSH20 0xFFFFFFFFFFFFFFFFFFFFFFFFFFFFFFFFFFFFFFFF AND SWAP2 POP CALLER PUSH20 0xFFFFFFFFFFFFFFFFFFFFFFFFFFFFFFFFFFFFFFFF AND DUP3 PUSH20 0xFFFFFFFFFFFFFFFFFFFFFFFFFFFFFFFFFFFFFFFF AND SUB PUSH2 0xA37 JUMPI PUSH1 0x40 MLOAD PUSH32 0x8C379A000000000000000000000000000000000000000000000000000000000 DUP2 MSTORE PUSH1 0x4 ADD PUSH2 0xA2E SWAP1 PUSH2 0x1C5D JUMP JUMPDEST PUSH1 0x40 MLOAD DUP1 SWAP2 SUB SWAP1 REVERT JUMPDEST PUSH2 0x8D5 JUMP JUMPDEST PUSH1 0x1 DUP2 PUSH0 ADD PUSH1 0x4 PUSH2 0x100 EXP DUP2 SLOAD DUP2 PUSH1 0xFF MUL NOT AND SWAP1 DUP4 ISZERO ISZERO MUL OR SWAP1 SSTORE POP TIMESTAMP DUP2 PUSH1 0x1 ADD DUP2 SWAP1 SSTORE POP DUP1 PUSH0 ADD PUSH0 SWAP1 SLOAD SWAP1 PUSH2 0x100 EXP SWAP1 DIV PUSH2 0xFFFF AND PUSH0 PUSH1 0x1 ADD PUSH1 0x2 DUP3 DUP3 DUP3 SWAP1 SLOAD SWAP1 PUSH2 0x100 EXP SWAP1 DIV PUSH2 0xFFFF AND PUSH2 0xA92 SWAP2 SWAP1 PUSH2 0x1B76 JUMP JUMPDEST SWAP3 POP PUSH2 0x100 EXP DUP2 SLOAD DUP2 PUSH2 0xFFFF MUL NOT AND SWAP1 DUP4 PUSH2 0xFFFF AND MUL OR SWAP1 SSTORE POP DUP2 DUP2 PUSH0 ADD PUSH1 0x6 PUSH2 0x100 EXP DUP2 SLOAD DUP2 PUSH20 0xFFFFFFFFFFFFFFFFFFFFFFFFFFFFFFFFFFFFFFFF MUL NOT AND SWAP1 DUP4 PUSH20 0xFFFFFFFFFFFFFFFFFFFFFFFFFFFFFFFFFFFFFFFF AND MUL OR SWAP1 SSTORE POP PUSH0 PUSH1 0xC PUSH0 DUP5 PUSH20 0xFFFFFFFFFFFFFFFFFFFFFFFFFFFFFFFFFFFFFFFF AND PUSH20 0xFFFFFFFFFFFFFFFFFFFFFFFFFFFFFFFFFFFFFFFF AND DUP2 MSTORE PUSH1 0x20 ADD SWAP1 DUP2 MSTORE PUSH1 0x20 ADD PUSH0 KECCAK256 SWAP1 POP DUP1 PUSH0 ADD PUSH1 0x4 SWAP1 SLOAD SWAP1 PUSH2 0x100 EXP SWAP1 DIV PUSH1 0xFF AND ISZERO PUSH2 0xBAF JUMPI DUP2 PUSH0 ADD PUSH1 0x2 SWAP1 SLOAD SWAP1 PUSH2 0x100 EXP SWAP1 DIV PUSH2 0xFFFF AND DUP3 PUSH0 ADD PUSH0 SWAP1 SLOAD SWAP1 PUSH2 0x100 EXP SWAP1 DIV PUSH2 0xFFFF AND PUSH2 0xB71 SWAP2 SWAP1 PUSH2 0x1B76 JUMP JUMPDEST PUSH0 PUSH1 0x1 ADD PUSH0 DUP3 DUP3 DUP3 SWAP1 SLOAD SWAP1 PUSH2 0x100 EXP SWAP1 DIV PUSH2 0xFFFF AND PUSH2 0xB90 SWAP2 SWAP1 PUSH2 0x1B76 JUMP JUMPDEST SWAP3 POP PUSH2 0x100 EXP DUP2 SLOAD DUP2 PUSH2 0xFFFF MUL NOT AND SWAP1 DUP4 PUSH2 0xFFFF AND MUL OR SWAP1 SSTORE POP PUSH2 0xC16 JUMP JUMPDEST DUP2 PUSH0 ADD PUSH1 0x2 SWAP1 SLOAD SWAP1 PUSH2 0x100 EXP SWAP1 DIV PUSH2 0xFFFF AND DUP3 PUSH0 ADD PUSH0 SWAP1 SLOAD SWAP1 PUSH2 0x100 EXP SWAP1 DIV PUSH2 0xFFFF AND PUSH2 0xBDC SWAP2 SWAP1 PUSH2 0x1B76 JUMP JUMPDEST DUP2 PUSH0 ADD PUSH1 0x2 DUP3 DUP3 DUP3 SWAP1 SLOAD SWAP1 PUSH2 0x100 EXP SWAP1 DIV PUSH2 0xFFFF AND PUSH2 0xBFB SWAP2 SWAP1 PUSH2 0x1B76 JUMP JUMPDEST SWAP3 POP PUSH2 0x100 EXP DUP2 SLOAD DUP2 PUSH2 0xFFFF MUL NOT AND SWAP1 DUP4 PUSH2 0xFFFF AND MUL OR SWAP1 SSTORE POP JUMPDEST POP POP POP JUMP JUMPDEST PUSH0 PUSH1 0x3 SLOAD SWAP1 POP SWAP1 JUMP JUMPDEST PUSH0 DUP1 PUSH0 ADD SLOAD SWAP1 DUP1 PUSH1 0x1 ADD PUSH0 SWAP1 SLOAD SWAP1 PUSH2 0x100 EXP SWAP1 DIV PUSH2 0xFFFF AND SWAP1 DUP1 PUSH1 0x1 ADD PUSH1 0x2 SWAP1 SLOAD SWAP1 PUSH2 0x100 EXP SWAP1 DIV PUSH2 0xFFFF AND SWAP1 POP DUP4 JUMP JUMPDEST PUSH0 DUP1 PUSH20 0xFFFFFFFFFFFFFFFFFFFFFFFFFFFFFFFFFFFFFFFF AND PUSH1 0xC PUSH0 DUP5 PUSH20 0xFFFFFFFFFFFFFFFFFFFFFFFFFFFFFFFFFFFFFFFF AND PUSH20 0xFFFFFFFFFFFFFFFFFFFFFFFFFFFFFFFFFFFFFFFF AND DUP2 MSTORE PUSH1 0x20 ADD SWAP1 DUP2 MSTORE PUSH1 0x20 ADD PUSH0 KECCAK256 PUSH0 ADD PUSH1 0x6 SWAP1 SLOAD SWAP1 PUSH2 0x100 EXP SWAP1 DIV PUSH20 0xFFFFFFFFFFFFFFFFFFFFFFFFFFFFFFFFFFFFFFFF AND PUSH20 0xFFFFFFFFFFFFFFFFFFFFFFFFFFFFFFFFFFFFFFFF AND EQ PUSH2 0xE36 JUMPI JUMPDEST PUSH0 PUSH20 0xFFFFFFFFFFFFFFFFFFFFFFFFFFFFFFFFFFFFFFFF AND PUSH1 0xC PUSH0 DUP5 PUSH20 0xFFFFFFFFFFFFFFFFFFFFFFFFFFFFFFFFFFFFFFFF AND PUSH20 0xFFFFFFFFFFFFFFFFFFFFFFFFFFFFFFFFFFFFFFFF AND DUP2 MSTORE PUSH1 0x20 ADD SWAP1 DUP2 MSTORE PUSH1 0x20 ADD PUSH0 KECCAK256 PUSH0 ADD PUSH1 0x6 SWAP1 SLOAD SWAP1 PUSH2 0x100 EXP SWAP1 DIV PUSH20 0xFFFFFFFFFFFFFFFFFFFFFFFFFFFFFFFFFFFFFFFF AND PUSH20 0xFFFFFFFFFFFFFFFFFFFFFFFFFFFFFFFFFFFFFFFF AND EQ PUSH2 0xDE2 JUMPI PUSH1 0xC PUSH0 DUP4 PUSH20 0xFFFFFFFFFFFFFFFFFFFFFFFFFFFFFFFFFFFFFFFF AND PUSH20 0xFFFFFFFFFFFFFFFFFFFFFFFFFFFFFFFFFFFFFFFF AND DUP2 MSTORE PUSH1 0x20 ADD SWAP1 DUP2 MSTORE PUSH1 0x20 ADD PUSH0 KECCAK256 PUSH0 ADD PUSH1 0x6 SWAP1 SLOAD SWAP1 PUSH2 0x100 EXP SWAP1 DIV PUSH20 0xFFFFFFFFFFFFFFFFFFFFFFFFFFFFFFFFFFFFFFFF AND SWAP2 POP PUSH2 0xCE9 JUMP JUMPDEST PUSH1 0xC PUSH0 DUP4 PUSH20 0xFFFFFFFFFFFFFFFFFFFFFFFFFFFFFFFFFFFFFFFF AND PUSH20 0xFFFFFFFFFFFFFFFFFFFFFFFFFFFFFFFFFFFFFFFF AND DUP2 MSTORE PUSH1 0x20 ADD SWAP1 DUP2 MSTORE PUSH1 0x20 ADD PUSH0 KECCAK256 PUSH0 ADD PUSH1 0x5 SWAP1 SLOAD SWAP1 PUSH2 0x100 EXP SWAP1 DIV PUSH1 0xFF AND SWAP1 POP PUSH2 0xE82 JUMP JUMPDEST PUSH1 0xC PUSH0 DUP4 PUSH20 0xFFFFFFFFFFFFFFFFFFFFFFFFFFFFFFFFFFFFFFFF AND PUSH20 0xFFFFFFFFFFFFFFFFFFFFFFFFFFFFFFFFFFFFFFFF AND DUP2 MSTORE PUSH1 0x20 ADD SWAP1 DUP2 MSTORE PUSH1 0x20 ADD PUSH0 KECCAK256 PUSH0 ADD PUSH1 0x5 SWAP1 SLOAD SWAP1 PUSH2 0x100 EXP SWAP1 POP POP JUMPDEST SWAP2 SWAP1 POP JUMP JUMPDEST PUSH0 DUP1 PUSH0 DUP1 PUSH1 0x2 PUSH0 ADD PUSH0 SWAP1 SLOAD SWAP1 PUSH2 0x100 EXP SWAP1 DIV PUSH2 0xFFFF AND PUSH1 0x2 PUSH0 ADD PUSH1 0x2 SWAP1 SLOAD SWAP1 PUSH2 0x100 EXP SWAP1 DIV PUSH4 0xFFFFFFFF AND PUSH1 0x2 PUSH0 ADD PUSH1 0x6 SWAP1 SLOAD SWAP1 PUSH2 0x100 EXP SWAP1 DIV PUSH6 0xFFFFFFFFFFFF AND PUSH1 0x2 PUSH0 ADD PUSH1 0xC SWAP1 SLOAD SWAP1 PUSH2 0x100 EXP SWAP1 DIV PUSH6 0xFFFFFFFFFFFF AND SWAP4 POP SWAP4 POP SWAP4 POP SWAP4 POP SWAP1 SWAP2 SWAP3 SWAP4 JUMP JUMPDEST PUSH1 0x60 DUP1 PUSH0 DUP1 PUSH1 0x4 PUSH0 ADD PUSH1 0x4 PUSH1 0x1 ADD PUSH1 0x4 PUSH1 0x2 ADD SLOAD PUSH1 0x4 PUSH1 0x3 ADD PUSH0 SWAP1 SLOAD SWAP1 PUSH2 0x100 EXP SWAP1 DIV PUSH20 0xFFFFFFFFFFFFFFFFFFFFFFFFFFFFFFFFFFFFFFFF AND DUP4 DUP1 SLOAD PUSH2 0xF33 SWAP1 PUSH2 0x1CA8 JUMP JUMPDEST DUP1 PUSH1 0x1F ADD PUSH1 0x20 DUP1 SWAP2 DIV MUL PUSH1 0x20 ADD PUSH1 0x40 MLOAD SWAP1 DUP2 ADD PUSH1 0x40 MSTORE DUP1 SWAP3 SWAP2 SWAP1 DUP2 DUP2 MSTORE PUSH1 0x20 ADD DUP3 DUP1 SLOAD PUSH2 0xF5F SWAP1 PUSH2 0x1CA8 JUMP JUMPDEST DUP1 ISZERO PUSH2 0xFAA JUMPI DUP1 PUSH1 0x1F LT PUSH2 0xF81 JUMPI PUSH2 0x100 DUP1 DUP4 SLOAD DIV MUL DUP4 MSTORE SWAP2 PUSH1 0x20 ADD SWAP2 PUSH2 0xFAA JUMP JUMPDEST DUP3 ADD SWAP2 SWAP1 PUSH0 MSTORE PUSH1 0x20 PUSH0 KECCAK256 SWAP1 JUMPDEST DUP2 SLOAD DUP2 MSTORE SWAP1 PUSH1 0x1 ADD SWAP1 PUSH1 0x20 ADD DUP1 DUP4 GT PUSH2 0xF8D JUMPI DUP3 SWAP1 SUB PUSH1 0x1F AND DUP3 ADD SWAP2 JUMPDEST POP POP POP POP POP SWAP4 POP DUP3 DUP1 SLOAD PUSH2 0xFBD SWAP1 PUSH2 0x1CA8 JUMP JUMPDEST DUP1 PUSH1 0x1F ADD PUSH1 0x20 DUP1 SWAP2 DIV MUL PUSH1 0x20 ADD PUSH1 0x40 MLOAD SWAP1 DUP2 ADD PUSH1 0x40 MSTORE DUP1 SWAP3 SWAP2 SWAP1 DUP2 DUP2 MSTORE PUSH1 0x20 ADD DUP3 DUP1 SLOAD PUSH2 0xFE9 SWAP1 PUSH2 0x1CA8 JUMP JUMPDEST DUP1 ISZERO PUSH2 0x1034 JUMPI DUP1 PUSH1 0x1F LT PUSH2 0x100B JUMPI PUSH2 0x100 DUP1 DUP4 SLOAD DIV MUL DUP4 MSTORE SWAP2 PUSH1 0x20 ADD SWAP2 PUSH2 0x1034 JUMP JUMPDEST DUP3 ADD SWAP2 SWAP1 PUSH0 MSTORE PUSH1 0x20 PUSH0 KECCAK256 SWAP1 JUMPDEST DUP2 SLOAD DUP2 MSTORE SWAP1 PUSH1 0x1 ADD SWAP1 PUSH1 0x20 ADD DUP1 DUP4 GT PUSH2 0x1017 JUMPI DUP3 SWAP1 SUB PUSH1 0x1F AND DUP3 ADD SWAP2 JUMPDEST POP POP POP POP POP SWAP3 POP SWAP4 POP SWAP4 POP SWAP4 POP SWAP4 POP SWAP1 SWAP2 SWAP3 SWAP4 JUMP JUMPDEST PUSH0 PUSH2 0x1052 PUSH2 0x124E JUMP JUMPDEST PUSH2 0x10E9 JUMPI PUSH1 0x2 PUSH0 ADD PUSH0 SWAP1 SLOAD SWAP1 PUSH2 0x100 EXP SWAP1 DIV PUSH2 0xFFFF AND PUSH2 0xFFFF AND PUSH0 PUSH1 0x1 ADD PUSH1 0x2 SWAP1 SLOAD SWAP1 PUSH2 0x100 EXP SWAP1 DIV PUSH2 0xFFFF AND PUSH2 0xFFFF AND LT ISZERO DUP1 ISZERO PUSH2 0x10D3 JUMPI POP PUSH1 0x64 PUSH1 0x32 PUSH0 PUSH1 0x1 ADD PUSH1 0x2 SWAP1 SLOAD SWAP1 PUSH2 0x100 EXP SWAP1 DIV PUSH2 0xFFFF AND PUSH2 0x10AD SWAP2 SWAP1 PUSH2 0x1CD8 JUMP JUMPDEST PUSH2 0x10B7 SWAP2 SWAP1 PUSH2 0x1D41 JUMP JUMPDEST PUSH2 0xFFFF AND PUSH0 PUSH1 0x1 ADD PUSH0 SWAP1 SLOAD SWAP1 PUSH2 0x100 EXP SWAP1 DIV PUSH2 0xFFFF AND PUSH2 0xFFFF AND GT JUMPDEST ISZERO PUSH2 0x10E1 JUMPI PUSH1 0x1 SWAP1 POP PUSH2 0x1128 JUMP JUMPDEST PUSH0 SWAP1 POP PUSH2 0x1128 JUMP JUMPDEST PUSH1 0x3 SLOAD PUSH1 0x40 MLOAD PUSH32 0x2661A1CC00000000000000000000000000000000000000000000000000000000 DUP2 MSTORE PUSH1 0x4 ADD PUSH2 0x111F SWAP2 SWAP1 PUSH2 0x185D JUMP JUMPDEST PUSH1 0x40 MLOAD DUP1 SWAP2 SUB SWAP1 REVERT JUMPDEST SWAP1 JUMP JUMPDEST PUSH0 PUSH1 0x8 PUSH0 ADD PUSH0 SWAP1 SLOAD SWAP1 PUSH2 0x100 EXP SWAP1 DIV PUSH20 0xFFFFFFFFFFFFFFFFFFFFFFFFFFFFFFFFFFFFFFFF AND PUSH1 0x8 PUSH1 0x2 ADD SLOAD PUSH2 0x115E PUSH2 0x11CB JUMP JUMPDEST PUSH1 0x4 PUSH1 0x2 ADD SLOAD PUSH1 0x40 MLOAD PUSH1 0x20 ADD PUSH2 0x1177 SWAP5 SWAP4 SWAP3 SWAP2 SWAP1 PUSH2 0x1D71 JUMP JUMPDEST PUSH1 0x40 MLOAD PUSH1 0x20 DUP2 DUP4 SUB SUB DUP2 MSTORE SWAP1 PUSH1 0x40 MSTORE DUP1 MLOAD SWAP1 PUSH1 0x20 ADD KECCAK256 PUSH0 SHR SWAP1 POP SWAP1 JUMP JUMPDEST PUSH0 DUP1 PUSH0 DUP1 PUSH0 ADD SLOAD PUSH0 PUSH1 0x1 ADD PUSH0 SWAP1 SLOAD SWAP1 PUSH2 0x100 EXP SWAP1 DIV PUSH2 0xFFFF AND PUSH0 PUSH1 0x1 ADD PUSH1 0x2 SWAP1 SLOAD SWAP1 PUSH2 0x100 EXP SWAP1 DIV PUSH2 0xFFFF AND SWAP3 POP SWAP3 POP SWAP3 POP SWAP1 SWAP2 SWAP3 JUMP JUMPDEST PUSH1 0x60 PUSH1 0x4 PUSH0 ADD PUSH1 0x40 MLOAD PUSH1 0x24 ADD PUSH1 0x40 MLOAD PUSH1 0x20 DUP2 DUP4 SUB SUB DUP2 MSTORE SWAP1 PUSH1 0x40 MSTORE SWAP1 PUSH1 0x40 MLOAD PUSH2 0x11F4 SWAP2 SWAP1 PUSH2 0x1E57 JUMP JUMPDEST PUSH1 0x40 MLOAD DUP1 SWAP2 SUB SWAP1 KECCAK256 PUSH28 0xFFFFFFFFFFFFFFFFFFFFFFFFFFFFFFFFFFFFFFFFFFFFFFFFFFFFFFFF NOT AND PUSH1 0x20 DUP3 ADD DUP1 MLOAD PUSH28 0xFFFFFFFFFFFFFFFFFFFFFFFFFFFFFFFFFFFFFFFFFFFFFFFFFFFFFFFF DUP4 DUP2 DUP4 AND OR DUP4 MSTORE POP POP POP POP SWAP1 POP SWAP1 JUMP JUMPDEST PUSH0 DUP1 TIMESTAMP SWAP1 POP PUSH1 0x3 SLOAD DUP2 PUSH6 0xFFFFFFFFFFFF AND GT PUSH2 0x126E JUMPI PUSH1 0x1 SWAP2 POP POP PUSH2 0x13F2 JUMP JUMPDEST PUSH1 0x64 PUSH1 0x14 PUSH1 0x2 PUSH0 ADD PUSH0 SWAP1 SLOAD SWAP1 PUSH2 0x100 EXP SWAP1 DIV PUSH2 0xFFFF AND PUSH2 0x128E SWAP2 SWAP1 PUSH2 0x1CD8 JUMP JUMPDEST PUSH2 0x1298 SWAP2 SWAP1 PUSH2 0x1D41 JUMP JUMPDEST PUSH1 0x2 PUSH0 ADD PUSH0 SWAP1 SLOAD SWAP1 PUSH2 0x100 EXP SWAP1 DIV PUSH2 0xFFFF AND PUSH2 0x12B4 SWAP2 SWAP1 PUSH2 0x1B76 JUMP JUMPDEST PUSH2 0xFFFF AND PUSH0 PUSH1 0x1 ADD PUSH1 0x2 SWAP1 SLOAD SWAP1 PUSH2 0x100 EXP SWAP1 DIV PUSH2 0xFFFF AND PUSH2 0xFFFF AND LT ISZERO PUSH2 0x13ED JUMPI PUSH1 0x2 PUSH0 ADD PUSH1 0xC SWAP1 SLOAD SWAP1 PUSH2 0x100 EXP SWAP1 DIV PUSH6 0xFFFFFFFFFFFF AND PUSH1 0x2 PUSH0 ADD PUSH1 0x2 SWAP1 SLOAD SWAP1 PUSH2 0x100 EXP SWAP1 DIV PUSH4 0xFFFFFFFF AND PUSH4 0xFFFFFFFF AND PUSH1 0x2 PUSH0 ADD PUSH1 0x6 SWAP1 SLOAD SWAP1 PUSH2 0x100 EXP SWAP1 DIV PUSH6 0xFFFFFFFFFFFF AND PUSH2 0x1328 SWAP2 SWAP1 PUSH2 0x1E6D JUMP JUMPDEST PUSH2 0x1332 SWAP2 SWAP1 PUSH2 0x1E6D JUMP JUMPDEST PUSH6 0xFFFFFFFFFFFF AND DUP2 PUSH6 0xFFFFFFFFFFFF AND GT PUSH2 0x13EC JUMPI PUSH1 0x2 PUSH0 ADD PUSH1 0xC SWAP1 SLOAD SWAP1 PUSH2 0x100 EXP SWAP1 DIV PUSH6 0xFFFFFFFFFFFF AND PUSH6 0xFFFFFFFFFFFF AND PUSH1 0x3 PUSH0 DUP3 DUP3 SLOAD PUSH2 0x1377 SWAP2 SWAP1 PUSH2 0x1EA6 JUMP JUMPDEST SWAP3 POP POP DUP2 SWAP1 SSTORE POP ADDRESS PUSH20 0xFFFFFFFFFFFFFFFFFFFFFFFFFFFFFFFFFFFFFFFF AND PUSH32 0x500DE3B55E9F23C65D27E8E2EB29867B6B250C4219CEC100F4B441983C5D7D78 PUSH1 0x2 PUSH0 ADD PUSH1 0xC SWAP1 SLOAD SWAP1 PUSH2 0x100 EXP SWAP1 DIV PUSH6 0xFFFFFFFFFFFF AND PUSH1 0x40 MLOAD PUSH2 0x13DA SWAP2 SWAP1 PUSH2 0x1AC8 JUMP JUMPDEST PUSH1 0x40 MLOAD DUP1 SWAP2 SUB SWAP1 LOG2 PUSH1 0x1 SWAP2 POP POP PUSH2 0x13F2 JUMP JUMPDEST JUMPDEST PUSH0 SWAP2 POP POP JUMPDEST SWAP1 JUMP JUMPDEST PUSH0 PUSH1 0x8 PUSH0 ADD PUSH0 SWAP1 SLOAD SWAP1 PUSH2 0x100 EXP SWAP1 DIV PUSH20 0xFFFFFFFFFFFFFFFFFFFFFFFFFFFFFFFFFFFFFFFF AND PUSH20 0xFFFFFFFFFFFFFFFFFFFFFFFFFFFFFFFFFFFFFFFF AND PUSH4 0x70A08231 CALLER PUSH1 0x40 MLOAD DUP3 PUSH4 0xFFFFFFFF AND PUSH1 0xE0 SHL DUP2 MSTORE PUSH1 0x4 ADD PUSH2 0x1452 SWAP2 SWAP1 PUSH2 0x1ED9 JUMP JUMPDEST PUSH1 0x20 PUSH1 0x40 MLOAD DUP1 DUP4 SUB DUP2 DUP7 GAS STATICCALL ISZERO DUP1 ISZERO PUSH2 0x146D JUMPI RETURNDATASIZE PUSH0 DUP1 RETURNDATACOPY RETURNDATASIZE PUSH0 REVERT JUMPDEST POP POP POP POP PUSH1 0x40 MLOAD RETURNDATASIZE PUSH1 0x1F NOT PUSH1 0x1F DUP3 ADD AND DUP3 ADD DUP1 PUSH1 0x40 MSTORE POP DUP2 ADD SWAP1 PUSH2 0x1491 SWAP2 SWAP1 PUSH2 0x1F1C JUMP JUMPDEST SWAP1 POP PUSH0 DUP2 PUSH2 0xFFFF AND GT ISZERO PUSH2 0x14F9 JUMPI DUP1 PUSH1 0xC PUSH0 CALLER PUSH20 0xFFFFFFFFFFFFFFFFFFFFFFFFFFFFFFFFFFFFFFFF AND PUSH20 0xFFFFFFFFFFFFFFFFFFFFFFFFFFFFFFFFFFFFFFFF AND DUP2 MSTORE PUSH1 0x20 ADD SWAP1 DUP2 MSTORE PUSH1 0x20 ADD PUSH0 KECCAK256 PUSH0 ADD PUSH0 PUSH2 0x100 EXP DUP2 SLOAD DUP2 PUSH2 0xFFFF MUL NOT AND SWAP1 DUP4 PUSH2 0xFFFF AND MUL OR SWAP1 SSTORE POP JUMPDEST PUSH0 PUSH1 0xC PUSH0 CALLER PUSH20 0xFFFFFFFFFFFFFFFFFFFFFFFFFFFFFFFFFFFFFFFF AND PUSH20 0xFFFFFFFFFFFFFFFFFFFFFFFFFFFFFFFFFFFFFFFF AND DUP2 MSTORE PUSH1 0x20 ADD SWAP1 DUP2 MSTORE PUSH1 0x20 ADD PUSH0 KECCAK256 PUSH0 ADD PUSH0 SWAP1 SLOAD SWAP1 PUSH2 0x100 EXP SWAP1 DIV PUSH2 0xFFFF AND PUSH2 0xFFFF AND EQ ISZERO DUP1 PUSH2 0x15A9 JUMPI POP PUSH0 PUSH1 0xC PUSH0 CALLER PUSH20 0xFFFFFFFFFFFFFFFFFFFFFFFFFFFFFFFFFFFFFFFF AND PUSH20 0xFFFFFFFFFFFFFFFFFFFFFFFFFFFFFFFFFFFFFFFF AND DUP2 MSTORE PUSH1 0x20 ADD SWAP1 DUP2 MSTORE PUSH1 0x20 ADD PUSH0 KECCAK256 PUSH0 ADD PUSH1 0x2 SWAP1 SLOAD SWAP1 PUSH2 0x100 EXP SWAP1 DIV PUSH2 0xFFFF AND PUSH2 0xFFFF AND EQ ISZERO JUMPDEST PUSH2 0x15E8 JUMPI PUSH1 0x40 MLOAD PUSH32 0x8C379A000000000000000000000000000000000000000000000000000000000 DUP2 MSTORE PUSH1 0x4 ADD PUSH2 0x15DF SWAP1 PUSH2 0x1F91 JUMP JUMPDEST PUSH1 0x40 MLOAD DUP1 SWAP2 SUB SWAP1 REVERT JUMPDEST POP JUMP JUMPDEST PUSH1 0x40 MLOAD DUP1 PUSH1 0xC0 ADD PUSH1 0x40 MSTORE DUP1 PUSH0 PUSH2 0xFFFF AND DUP2 MSTORE PUSH1 0x20 ADD PUSH0 PUSH2 0xFFFF AND DUP2 MSTORE PUSH1 0x20 ADD PUSH0 ISZERO ISZERO DUP2 MSTORE PUSH1 0x20 ADD PUSH0 ISZERO ISZERO DUP2 MSTORE PUSH1 0x20 ADD PUSH0 PUSH20 0xFFFFFFFFFFFFFFFFFFFFFFFFFFFFFFFFFFFFFFFF AND DUP2 MSTORE PUSH1 0x20 ADD PUSH0 DUP2 MSTORE POP SWAP1 JUMP JUMPDEST PUSH0 DUP1 REVERT JUMPDEST PUSH0 PUSH20 0xFFFFFFFFFFFFFFFFFFFFFFFFFFFFFFFFFFFFFFFF DUP3 AND SWAP1 POP SWAP2 SWAP1 POP JUMP JUMPDEST PUSH0 PUSH2 0x166A DUP3 PUSH2 0x1641 JUMP JUMPDEST SWAP1 POP SWAP2 SWAP1 POP JUMP JUMPDEST PUSH2 0x167A DUP2 PUSH2 0x1660 JUMP JUMPDEST DUP2 EQ PUSH2 0x1684 JUMPI PUSH0 DUP1 REVERT JUMPDEST POP JUMP JUMPDEST PUSH0 DUP2 CALLDATALOAD SWAP1 POP PUSH2 0x1695 DUP2 PUSH2 0x1671 JUMP JUMPDEST SWAP3 SWAP2 POP POP JUMP JUMPDEST PUSH0 PUSH1 0x20 DUP3 DUP5 SUB SLT ISZERO PUSH2 0x16B0 JUMPI PUSH2 0x16AF PUSH2 0x163D JUMP JUMPDEST JUMPDEST PUSH0 PUSH2 0x16BD DUP5 DUP3 DUP6 ADD PUSH2 0x1687 JUMP JUMPDEST SWAP2 POP POP SWAP3 SWAP2 POP POP JUMP JUMPDEST PUSH0 PUSH2 0xFFFF DUP3 AND SWAP1 POP SWAP2 SWAP1 POP JUMP JUMPDEST PUSH2 0x16DC DUP2 PUSH2 0x16C6 JUMP JUMPDEST DUP3 MSTORE POP POP JUMP JUMPDEST PUSH0 DUP2 ISZERO ISZERO SWAP1 POP SWAP2 SWAP1 POP JUMP JUMPDEST PUSH2 0x16F6 DUP2 PUSH2 0x16E2 JUMP JUMPDEST DUP3 MSTORE POP POP JUMP JUMPDEST PUSH2 0x1705 DUP2 PUSH2 0x1660 JUMP JUMPDEST DUP3 MSTORE POP POP JUMP JUMPDEST PUSH0 DUP2 SWAP1 POP SWAP2 SWAP1 POP JUMP JUMPDEST PUSH2 0x171D DUP2 PUSH2 0x170B JUMP JUMPDEST DUP3 MSTORE POP POP JUMP JUMPDEST PUSH1 0xC0 DUP3 ADD PUSH0 DUP3 ADD MLOAD PUSH2 0x1737 PUSH0 DUP6 ADD DUP3 PUSH2 0x16D3 JUMP JUMPDEST POP PUSH1 0x20 DUP3 ADD MLOAD PUSH2 0x174A PUSH1 0x20 DUP6 ADD DUP3 PUSH2 0x16D3 JUMP JUMPDEST POP PUSH1 0x40 DUP3 ADD MLOAD PUSH2 0x175D PUSH1 0x40 DUP6 ADD DUP3 PUSH2 0x16ED JUMP JUMPDEST POP PUSH1 0x60 DUP3 ADD MLOAD PUSH2 0x1770 PUSH1 0x60 DUP6 ADD DUP3 PUSH2 0x16ED JUMP JUMPDEST POP PUSH1 0x80 DUP3 ADD MLOAD PUSH2 0x1783 PUSH1 0x80 DUP6 ADD DUP3 PUSH2 0x16FC JUMP JUMPDEST POP PUSH1 0xA0 DUP3 ADD MLOAD PUSH2 0x1796 PUSH1 0xA0 DUP6 ADD DUP3 PUSH2 0x1714 JUMP JUMPDEST POP POP POP POP JUMP JUMPDEST PUSH0 PUSH1 0xC0 DUP3 ADD SWAP1 POP PUSH2 0x17AF PUSH0 DUP4 ADD DUP5 PUSH2 0x1723 JUMP JUMPDEST SWAP3 SWAP2 POP POP JUMP JUMPDEST PUSH2 0x17BE DUP2 PUSH2 0x1660 JUMP JUMPDEST DUP3 MSTORE POP POP JUMP JUMPDEST PUSH2 0x17CD DUP2 PUSH2 0x170B JUMP JUMPDEST DUP3 MSTORE POP POP JUMP JUMPDEST PUSH0 PUSH1 0x60 DUP3 ADD SWAP1 POP PUSH2 0x17E6 PUSH0 DUP4 ADD DUP7 PUSH2 0x17B5 JUMP JUMPDEST PUSH2 0x17F3 PUSH1 0x20 DUP4 ADD DUP6 PUSH2 0x17B5 JUMP JUMPDEST PUSH2 0x1800 PUSH1 0x40 DUP4 ADD DUP5 PUSH2 0x17C4 JUMP JUMPDEST SWAP5 SWAP4 POP POP POP POP JUMP JUMPDEST PUSH2 0x1811 DUP2 PUSH2 0x16E2 JUMP JUMPDEST DUP2 EQ PUSH2 0x181B JUMPI PUSH0 DUP1 REVERT JUMPDEST POP JUMP JUMPDEST PUSH0 DUP2 CALLDATALOAD SWAP1 POP PUSH2 0x182C DUP2 PUSH2 0x1808 JUMP JUMPDEST SWAP3 SWAP2 POP POP JUMP JUMPDEST PUSH0 PUSH1 0x20 DUP3 DUP5 SUB SLT ISZERO PUSH2 0x1847 JUMPI PUSH2 0x1846 PUSH2 0x163D JUMP JUMPDEST JUMPDEST PUSH0 PUSH2 0x1854 DUP5 DUP3 DUP6 ADD PUSH2 0x181E JUMP JUMPDEST SWAP2 POP POP SWAP3 SWAP2 POP POP JUMP JUMPDEST PUSH0 PUSH1 0x20 DUP3 ADD SWAP1 POP PUSH2 0x1870 PUSH0 DUP4 ADD DUP5 PUSH2 0x17C4 JUMP JUMPDEST SWAP3 SWAP2 POP POP JUMP JUMPDEST PUSH0 DUP2 SWAP1 POP SWAP2 SWAP1 POP JUMP JUMPDEST PUSH2 0x1888 DUP2 PUSH2 0x1876 JUMP JUMPDEST DUP3 MSTORE POP POP JUMP JUMPDEST PUSH2 0x1897 DUP2 PUSH2 0x16C6 JUMP JUMPDEST DUP3 MSTORE POP POP JUMP JUMPDEST PUSH0 PUSH1 0x60 DUP3 ADD SWAP1 POP PUSH2 0x18B0 PUSH0 DUP4 ADD DUP7 PUSH2 0x187F JUMP JUMPDEST PUSH2 0x18BD PUSH1 0x20 DUP4 ADD DUP6 PUSH2 0x188E JUMP JUMPDEST PUSH2 0x18CA PUSH1 0x40 DUP4 ADD DUP5 PUSH2 0x188E JUMP JUMPDEST SWAP5 SWAP4 POP POP POP POP JUMP JUMPDEST PUSH2 0x18DB DUP2 PUSH2 0x16E2 JUMP JUMPDEST DUP3 MSTORE POP POP JUMP JUMPDEST PUSH0 PUSH1 0x20 DUP3 ADD SWAP1 POP PUSH2 0x18F4 PUSH0 DUP4 ADD DUP5 PUSH2 0x18D2 JUMP JUMPDEST SWAP3 SWAP2 POP POP JUMP JUMPDEST PUSH0 PUSH4 0xFFFFFFFF DUP3 AND SWAP1 POP SWAP2 SWAP1 POP JUMP JUMPDEST PUSH2 0x1912 DUP2 PUSH2 0x18FA JUMP JUMPDEST DUP3 MSTORE POP POP JUMP JUMPDEST PUSH0 PUSH6 0xFFFFFFFFFFFF DUP3 AND SWAP1 POP SWAP2 SWAP1 POP JUMP JUMPDEST PUSH2 0x1932 DUP2 PUSH2 0x1918 JUMP JUMPDEST DUP3 MSTORE POP POP JUMP JUMPDEST PUSH0 PUSH1 0x80 DUP3 ADD SWAP1 POP PUSH2 0x194B PUSH0 DUP4 ADD DUP8 PUSH2 0x188E JUMP JUMPDEST PUSH2 0x1958 PUSH1 0x20 DUP4 ADD DUP7 PUSH2 0x1909 JUMP JUMPDEST PUSH2 0x1965 PUSH1 0x40 DUP4 ADD DUP6 PUSH2 0x1929 JUMP JUMPDEST PUSH2 0x1972 PUSH1 0x60 DUP4 ADD DUP5 PUSH2 0x1929 JUMP JUMPDEST SWAP6 SWAP5 POP POP POP POP POP JUMP JUMPDEST PUSH0 DUP2 MLOAD SWAP1 POP SWAP2 SWAP1 POP JUMP JUMPDEST PUSH0 DUP3 DUP3 MSTORE PUSH1 0x20 DUP3 ADD SWAP1 POP SWAP3 SWAP2 POP POP JUMP JUMPDEST PUSH0 JUMPDEST DUP4 DUP2 LT ISZERO PUSH2 0x19B2 JUMPI DUP1 DUP3 ADD MLOAD DUP2 DUP5 ADD MSTORE PUSH1 0x20 DUP2 ADD SWAP1 POP PUSH2 0x1997 JUMP JUMPDEST PUSH0 DUP5 DUP5 ADD MSTORE POP POP POP POP JUMP JUMPDEST PUSH0 PUSH1 0x1F NOT PUSH1 0x1F DUP4 ADD AND SWAP1 POP SWAP2 SWAP1 POP JUMP JUMPDEST PUSH0 PUSH2 0x19D7 DUP3 PUSH2 0x197B JUMP JUMPDEST PUSH2 0x19E1 DUP2 DUP6 PUSH2 0x1985 JUMP JUMPDEST SWAP4 POP PUSH2 0x19F1 DUP2 DUP6 PUSH1 0x20 DUP7 ADD PUSH2 0x1995 JUMP JUMPDEST PUSH2 0x19FA DUP2 PUSH2 0x19BD JUMP JUMPDEST DUP5 ADD SWAP2 POP POP SWAP3 SWAP2 POP POP JUMP JUMPDEST PUSH0 PUSH1 0x80 DUP3 ADD SWAP1 POP DUP2 DUP2 SUB PUSH0 DUP4 ADD MSTORE PUSH2 0x1A1D DUP2 DUP8 PUSH2 0x19CD JUMP JUMPDEST SWAP1 POP DUP2 DUP2 SUB PUSH1 0x20 DUP4 ADD MSTORE PUSH2 0x1A31 DUP2 DUP7 PUSH2 0x19CD JUMP JUMPDEST SWAP1 POP PUSH2 0x1A40 PUSH1 0x40 DUP4 ADD DUP6 PUSH2 0x187F JUMP JUMPDEST PUSH2 0x1A4D PUSH1 0x60 DUP4 ADD DUP5 PUSH2 0x17B5 JUMP JUMPDEST SWAP6 SWAP5 POP POP POP POP POP JUMP JUMPDEST PUSH0 DUP2 MLOAD SWAP1 POP SWAP2 SWAP1 POP JUMP JUMPDEST PUSH0 DUP3 DUP3 MSTORE PUSH1 0x20 DUP3 ADD SWAP1 POP SWAP3 SWAP2 POP POP JUMP JUMPDEST PUSH0 PUSH2 0x1A7A DUP3 PUSH2 0x1A56 JUMP JUMPDEST PUSH2 0x1A84 DUP2 DUP6 PUSH2 0x1A60 JUMP JUMPDEST SWAP4 POP PUSH2 0x1A94 DUP2 DUP6 PUSH1 0x20 DUP7 ADD PUSH2 0x1995 JUMP JUMPDEST PUSH2 0x1A9D DUP2 PUSH2 0x19BD JUMP JUMPDEST DUP5 ADD SWAP2 POP POP SWAP3 SWAP2 POP POP JUMP JUMPDEST PUSH0 PUSH1 0x20 DUP3 ADD SWAP1 POP DUP2 DUP2 SUB PUSH0 DUP4 ADD MSTORE PUSH2 0x1AC0 DUP2 DUP5 PUSH2 0x1A70 JUMP JUMPDEST SWAP1 POP SWAP3 SWAP2 POP POP JUMP JUMPDEST PUSH0 PUSH1 0x20 DUP3 ADD SWAP1 POP PUSH2 0x1ADB PUSH0 DUP4 ADD DUP5 PUSH2 0x1929 JUMP JUMPDEST SWAP3 SWAP2 POP POP JUMP JUMPDEST PUSH32 0x416C726561647920766F7465642E000000000000000000000000000000000000 PUSH0 DUP3 ADD MSTORE POP JUMP JUMPDEST PUSH0 PUSH2 0x1B15 PUSH1 0xE DUP4 PUSH2 0x1985 JUMP JUMPDEST SWAP2 POP PUSH2 0x1B20 DUP3 PUSH2 0x1AE1 JUMP JUMPDEST PUSH1 0x20 DUP3 ADD SWAP1 POP SWAP2 SWAP1 POP JUMP JUMPDEST PUSH0 PUSH1 0x20 DUP3 ADD SWAP1 POP DUP2 DUP2 SUB PUSH0 DUP4 ADD MSTORE PUSH2 0x1B42 DUP2 PUSH2 0x1B09 JUMP JUMPDEST SWAP1 POP SWAP2 SWAP1 POP JUMP JUMPDEST PUSH32 0x4E487B7100000000000000000000000000000000000000000000000000000000 PUSH0 MSTORE PUSH1 0x11 PUSH1 0x4 MSTORE PUSH1 0x24 PUSH0 REVERT JUMPDEST PUSH0 PUSH2 0x1B80 DUP3 PUSH2 0x16C6 JUMP JUMPDEST SWAP2 POP PUSH2 0x1B8B DUP4 PUSH2 0x16C6 JUMP JUMPDEST SWAP3 POP DUP3 DUP3 ADD SWAP1 POP PUSH2 0xFFFF DUP2 GT ISZERO PUSH2 0x1BA5 JUMPI PUSH2 0x1BA4 PUSH2 0x1B49 JUMP JUMPDEST JUMPDEST SWAP3 SWAP2 POP POP JUMP JUMPDEST PUSH32 0x53656C662D64656C65676174696F6E20697320646973616C6C6F7765642E0000 PUSH0 DUP3 ADD MSTORE POP JUMP JUMPDEST PUSH0 PUSH2 0x1BDF PUSH1 0x1E DUP4 PUSH2 0x1985 JUMP JUMPDEST SWAP2 POP PUSH2 0x1BEA DUP3 PUSH2 0x1BAB JUMP JUMPDEST PUSH1 0x20 DUP3 ADD SWAP1 POP SWAP2 SWAP1 POP JUMP JUMPDEST PUSH0 PUSH1 0x20 DUP3 ADD SWAP1 POP DUP2 DUP2 SUB PUSH0 DUP4 ADD MSTORE PUSH2 0x1C0C DUP2 PUSH2 0x1BD3 JUMP JUMPDEST SWAP1 POP SWAP2 SWAP1 POP JUMP JUMPDEST PUSH32 0x466F756E64206C6F6F7020696E2064656C65676174696F6E2E00000000000000 PUSH0 DUP3 ADD MSTORE POP JUMP JUMPDEST PUSH0 PUSH2 0x1C47 PUSH1 0x19 DUP4 PUSH2 0x1985 JUMP JUMPDEST SWAP2 POP PUSH2 0x1C52 DUP3 PUSH2 0x1C13 JUMP JUMPDEST PUSH1 0x20 DUP3 ADD SWAP1 POP SWAP2 SWAP1 POP JUMP JUMPDEST PUSH0 PUSH1 0x20 DUP3 ADD SWAP1 POP DUP2 DUP2 SUB PUSH0 DUP4 ADD MSTORE PUSH2 0x1C74 DUP2 PUSH2 0x1C3B JUMP JUMPDEST SWAP1 POP SWAP2 SWAP1 POP JUMP JUMPDEST PUSH32 0x4E487B7100000000000000000000000000000000000000000000000000000000 PUSH0 MSTORE PUSH1 0x22 PUSH1 0x4 MSTORE PUSH1 0x24 PUSH0 REVERT JUMPDEST PUSH0 PUSH1 0x2 DUP3 DIV SWAP1 POP PUSH1 0x1 DUP3 AND DUP1 PUSH2 0x1CBF JUMPI PUSH1 0x7F DUP3 AND SWAP2 POP JUMPDEST PUSH1 0x20 DUP3 LT DUP2 SUB PUSH2 0x1CD2 JUMPI PUSH2 0x1CD1 PUSH2 0x1C7B JUMP JUMPDEST JUMPDEST POP SWAP2 SWAP1 POP JUMP JUMPDEST PUSH0 PUSH2 0x1CE2 DUP3 PUSH2 0x16C6 JUMP JUMPDEST SWAP2 POP PUSH2 0x1CED DUP4 PUSH2 0x16C6 JUMP JUMPDEST SWAP3 POP DUP3 DUP3 MUL PUSH2 0x1CFB DUP2 PUSH2 0x16C6 JUMP JUMPDEST SWAP2 POP DUP1 DUP3 EQ PUSH2 0x1D0D JUMPI PUSH2 0x1D0C PUSH2 0x1B49 JUMP JUMPDEST JUMPDEST POP SWAP3 SWAP2 POP POP JUMP JUMPDEST PUSH32 0x4E487B7100000000000000000000000000000000000000000000000000000000 PUSH0 MSTORE PUSH1 0x12 PUSH1 0x4 MSTORE PUSH1 0x24 PUSH0 REVERT JUMPDEST PUSH0 PUSH2 0x1D4B DUP3 PUSH2 0x16C6 JUMP JUMPDEST SWAP2 POP PUSH2 0x1D56 DUP4 PUSH2 0x16C6 JUMP JUMPDEST SWAP3 POP DUP3 PUSH2 0x1D66 JUMPI PUSH2 0x1D65 PUSH2 0x1D14 JUMP JUMPDEST JUMPDEST DUP3 DUP3 DIV SWAP1 POP SWAP3 SWAP2 POP POP JUMP JUMPDEST PUSH0 PUSH1 0x80 DUP3 ADD SWAP1 POP PUSH2 0x1D84 PUSH0 DUP4 ADD DUP8 PUSH2 0x17B5 JUMP JUMPDEST PUSH2 0x1D91 PUSH1 0x20 DUP4 ADD DUP7 PUSH2 0x17C4 JUMP JUMPDEST DUP2 DUP2 SUB PUSH1 0x40 DUP4 ADD MSTORE PUSH2 0x1DA3 DUP2 DUP6 PUSH2 0x1A70 JUMP JUMPDEST SWAP1 POP PUSH2 0x1DB2 PUSH1 0x60 DUP4 ADD DUP5 PUSH2 0x187F JUMP JUMPDEST SWAP6 SWAP5 POP POP POP POP POP JUMP JUMPDEST PUSH0 DUP2 SWAP1 POP SWAP3 SWAP2 POP POP JUMP JUMPDEST PUSH0 DUP2 SWAP1 POP DUP2 PUSH0 MSTORE PUSH1 0x20 PUSH0 KECCAK256 SWAP1 POP SWAP2 SWAP1 POP JUMP JUMPDEST PUSH0 DUP2 SLOAD PUSH2 0x1DE3 DUP2 PUSH2 0x1CA8 JUMP JUMPDEST PUSH2 0x1DED DUP2 DUP7 PUSH2 0x1DBB JUMP JUMPDEST SWAP5 POP PUSH1 0x1 DUP3 AND PUSH0 DUP2 EQ PUSH2 0x1E07 JUMPI PUSH1 0x1 DUP2 EQ PUSH2 0x1E1C JUMPI PUSH2 0x1E4E JUMP JUMPDEST PUSH1 0xFF NOT DUP4 AND DUP7 MSTORE DUP2 ISZERO ISZERO DUP3 MUL DUP7 ADD SWAP4 POP PUSH2 0x1E4E JUMP JUMPDEST PUSH2 0x1E25 DUP6 PUSH2 0x1DC5 JUMP JUMPDEST PUSH0 JUMPDEST DUP4 DUP2 LT ISZERO PUSH2 0x1E46 JUMPI DUP2 SLOAD DUP2 DUP10 ADD MSTORE PUSH1 0x1 DUP3 ADD SWAP2 POP PUSH1 0x20 DUP2 ADD SWAP1 POP PUSH2 0x1E27 JUMP JUMPDEST DUP4 DUP9 ADD SWAP6 POP POP POP JUMPDEST POP POP POP SWAP3 SWAP2 POP POP JUMP JUMPDEST PUSH0 PUSH2 0x1E62 DUP3 DUP5 PUSH2 0x1DD7 JUMP JUMPDEST SWAP2 POP DUP2 SWAP1 POP SWAP3 SWAP2 POP POP JUMP JUMPDEST PUSH0 PUSH2 0x1E77 DUP3 PUSH2 0x1918 JUMP JUMPDEST SWAP2 POP PUSH2 0x1E82 DUP4 PUSH2 0x1918 JUMP JUMPDEST SWAP3 POP DUP3 DUP3 ADD SWAP1 POP PUSH6 0xFFFFFFFFFFFF DUP2 GT ISZERO PUSH2 0x1EA0 JUMPI PUSH2 0x1E9F PUSH2 0x1B49 JUMP JUMPDEST JUMPDEST SWAP3 SWAP2 POP POP JUMP JUMPDEST PUSH0 PUSH2 0x1EB0 DUP3 PUSH2 0x170B JUMP JUMPDEST SWAP2 POP PUSH2 0x1EBB DUP4 PUSH2 0x170B JUMP JUMPDEST SWAP3 POP DUP3 DUP3 ADD SWAP1 POP DUP1 DUP3 GT ISZERO PUSH2 0x1ED3 JUMPI PUSH2 0x1ED2 PUSH2 0x1B49 JUMP JUMPDEST JUMPDEST SWAP3 SWAP2 POP POP JUMP JUMPDEST PUSH0 PUSH1 0x20 DUP3 ADD SWAP1 POP PUSH2 0x1EEC PUSH0 DUP4 ADD DUP5 PUSH2 0x17B5 JUMP JUMPDEST SWAP3 SWAP2 POP POP JUMP JUMPDEST PUSH2 0x1EFB DUP2 PUSH2 0x16C6 JUMP JUMPDEST DUP2 EQ PUSH2 0x1F05 JUMPI PUSH0 DUP1 REVERT JUMPDEST POP JUMP JUMPDEST PUSH0 DUP2 MLOAD SWAP1 POP PUSH2 0x1F16 DUP2 PUSH2 0x1EF2 JUMP JUMPDEST SWAP3 SWAP2 POP POP JUMP JUMPDEST PUSH0 PUSH1 0x20 DUP3 DUP5 SUB SLT ISZERO PUSH2 0x1F31 JUMPI PUSH2 0x1F30 PUSH2 0x163D JUMP JUMPDEST JUMPDEST PUSH0 PUSH2 0x1F3E DUP5 DUP3 DUP6 ADD PUSH2 0x1F08 JUMP JUMPDEST SWAP2 POP POP SWAP3 SWAP2 POP POP JUMP JUMPDEST PUSH32 0x486173206E6F20726967687420746F20766F7465000000000000000000000000 PUSH0 DUP3 ADD MSTORE POP JUMP JUMPDEST PUSH0 PUSH2 0x1F7B PUSH1 0x14 DUP4 PUSH2 0x1985 JUMP JUMPDEST SWAP2 POP PUSH2 0x1F86 DUP3 PUSH2 0x1F47 JUMP JUMPDEST PUSH1 0x20 DUP3 ADD SWAP1 POP SWAP2 SWAP1 POP JUMP JUMPDEST PUSH0 PUSH1 0x20 DUP3 ADD SWAP1 POP DUP2 DUP2 SUB PUSH0 DUP4 ADD MSTORE PUSH2 0x1FA8 DUP2 PUSH2 0x1F6F JUMP JUMPDEST SWAP1 POP SWAP2 SWAP1 POP JUMP INVALID LOG2 PUSH5 0x6970667358 0x22 SLT KECCAK256 0x2C SELFDESTRUCT 0xCC CALL JUMP 0xDD 0x2E CALLDATALOAD MOD SWAP12 0xE2 0xBB STOP GASPRICE 0xB3 0xD3 TIMESTAMP 0xF9 SHL PUSH23 0xBB2CB6108F2CED736EA64B3664736F6C63430008140033 "
				},
				"gasEstimates": {
					"creation": {
						"codeDepositCost": "1633000",
						"executionCost": "infinite",
						"totalCost": "infinite"
					},
					"external": {
						"_ballotParam()": "infinite",
						"delegate(address)": "infinite",
						"getBallotCallData()": "infinite",
						"getBallotCallDataParams()": "infinite",
						"getBallotParam()": "infinite",
						"getBallotProposalId()": "infinite",
						"getBallotProposalParams()": "infinite",
						"getBalootVotingParams()": "infinite",
						"getDeadline()": "2521",
						"getVoterOpinion(address)": "infinite",
						"getvote(address)": "infinite",
						"vote(bool)": "infinite",
						"votingResult()": "infinite"
					},
					"internal": {
						"_votersPermission()": "infinite",
						"isVotingDeadLine()": "infinite"
					}
				},
				"methodIdentifiers": {
					"_ballotParam()": "81c4787b",
					"delegate(address)": "5c19a95c",
					"getBallotCallData()": "f8b1b08a",
					"getBallotCallDataParams()": "bc33c7d7",
					"getBallotParam()": "ee26a38a",
					"getBallotProposalId()": "ec5bf07b",
					"getBallotProposalParams()": "4731ca2b",
					"getBalootVotingParams()": "b3a05246",
					"getDeadline()": "5f8d96de",
					"getVoterOpinion(address)": "85227e51",
					"getvote(address)": "41617c8f",
					"vote(bool)": "4b9f5c98",
					"votingResult()": "cfb62dee"
				}
			},
			"storageLayout": {
				"storage": [
					{
						"astId": 61,
						"contract": "contracts/3_Ballot.sol:BallotTCN",
						"label": "_ballotParam",
						"offset": 0,
						"slot": "0",
						"type": "t_struct(BALLOtPARAM)58_storage"
					},
					{
						"astId": 73,
						"contract": "contracts/3_Ballot.sol:BallotTCN",
						"label": "_votingParams",
						"offset": 0,
						"slot": "2",
						"type": "t_struct(VOTINGPARAM)70_storage"
					},
					{
						"astId": 75,
						"contract": "contracts/3_Ballot.sol:BallotTCN",
						"label": "_deadLine",
						"offset": 0,
						"slot": "3",
						"type": "t_uint256"
					},
					{
						"astId": 87,
						"contract": "contracts/3_Ballot.sol:BallotTCN",
						"label": "_callDataParam",
						"offset": 0,
						"slot": "4",
						"type": "t_struct(CALLDATAPARAM)84_storage"
					},
					{
						"astId": 97,
						"contract": "contracts/3_Ballot.sol:BallotTCN",
						"label": "_proposalParams",
						"offset": 0,
						"slot": "8",
						"type": "t_struct(PROPOSALPARAM)94_storage"
					},
					{
						"astId": 101,
						"contract": "contracts/3_Ballot.sol:BallotTCN",
						"label": "_targetConnectors",
						"offset": 0,
						"slot": "11",
						"type": "t_mapping(t_address,t_address)"
					},
					{
						"astId": 106,
						"contract": "contracts/3_Ballot.sol:BallotTCN",
						"label": "_voters",
						"offset": 0,
						"slot": "12",
						"type": "t_mapping(t_address,t_struct(Voter)51_storage)"
					},
					{
						"astId": 112,
						"contract": "contracts/3_Ballot.sol:BallotTCN",
						"label": "_targetSociety",
						"offset": 0,
						"slot": "13",
						"type": "t_mapping(t_address,t_array(t_uint16)1201_storage)"
					}
				],
				"types": {
					"t_address": {
						"encoding": "inplace",
						"label": "address",
						"numberOfBytes": "20"
					},
					"t_array(t_uint16)1201_storage": {
						"base": "t_uint16",
						"encoding": "inplace",
						"label": "uint16[1201]",
						"numberOfBytes": "2432"
					},
					"t_bool": {
						"encoding": "inplace",
						"label": "bool",
						"numberOfBytes": "1"
					},
					"t_bytes32": {
						"encoding": "inplace",
						"label": "bytes32",
						"numberOfBytes": "32"
					},
					"t_mapping(t_address,t_address)": {
						"encoding": "mapping",
						"key": "t_address",
						"label": "mapping(address => address)",
						"numberOfBytes": "32",
						"value": "t_address"
					},
					"t_mapping(t_address,t_array(t_uint16)1201_storage)": {
						"encoding": "mapping",
						"key": "t_address",
						"label": "mapping(address => uint16[1201])",
						"numberOfBytes": "32",
						"value": "t_array(t_uint16)1201_storage"
					},
					"t_mapping(t_address,t_struct(Voter)51_storage)": {
						"encoding": "mapping",
						"key": "t_address",
						"label": "mapping(address => struct BallotTCN.Voter)",
						"numberOfBytes": "32",
						"value": "t_struct(Voter)51_storage"
					},
					"t_string_storage": {
						"encoding": "bytes",
						"label": "string",
						"numberOfBytes": "32"
					},
					"t_struct(BALLOtPARAM)58_storage": {
						"encoding": "inplace",
						"label": "struct BallotTCN.BALLOtPARAM",
						"members": [
							{
								"astId": 53,
								"contract": "contracts/3_Ballot.sol:BallotTCN",
								"label": "name",
								"offset": 0,
								"slot": "0",
								"type": "t_bytes32"
							},
							{
								"astId": 55,
								"contract": "contracts/3_Ballot.sol:BallotTCN",
								"label": "voteCount",
								"offset": 0,
								"slot": "1",
								"type": "t_uint16"
							},
							{
								"astId": 57,
								"contract": "contracts/3_Ballot.sol:BallotTCN",
								"label": "observed",
								"offset": 2,
								"slot": "1",
								"type": "t_uint16"
							}
						],
						"numberOfBytes": "64"
					},
					"t_struct(CALLDATAPARAM)84_storage": {
						"encoding": "inplace",
						"label": "struct BallotTCN.CALLDATAPARAM",
						"members": [
							{
								"astId": 77,
								"contract": "contracts/3_Ballot.sol:BallotTCN",
								"label": "signature",
								"offset": 0,
								"slot": "0",
								"type": "t_string_storage"
							},
							{
								"astId": 79,
								"contract": "contracts/3_Ballot.sol:BallotTCN",
								"label": "description",
								"offset": 0,
								"slot": "1",
								"type": "t_string_storage"
							},
							{
								"astId": 81,
								"contract": "contracts/3_Ballot.sol:BallotTCN",
								"label": "descriptionHash",
								"offset": 0,
								"slot": "2",
								"type": "t_bytes32"
							},
							{
								"astId": 83,
								"contract": "contracts/3_Ballot.sol:BallotTCN",
								"label": "governance",
								"offset": 0,
								"slot": "3",
								"type": "t_address"
							}
						],
						"numberOfBytes": "128"
					},
					"t_struct(PROPOSALPARAM)94_storage": {
						"encoding": "inplace",
						"label": "struct BallotTCN.PROPOSALPARAM",
						"members": [
							{
								"astId": 89,
								"contract": "contracts/3_Ballot.sol:BallotTCN",
								"label": "target",
								"offset": 0,
								"slot": "0",
								"type": "t_address"
							},
							{
								"astId": 91,
								"contract": "contracts/3_Ballot.sol:BallotTCN",
								"label": "proposer",
								"offset": 0,
								"slot": "1",
								"type": "t_address"
							},
							{
								"astId": 93,
								"contract": "contracts/3_Ballot.sol:BallotTCN",
								"label": "value",
								"offset": 0,
								"slot": "2",
								"type": "t_uint256"
							}
						],
						"numberOfBytes": "96"
					},
					"t_struct(VOTINGPARAM)70_storage": {
						"encoding": "inplace",
						"label": "struct BallotTCN.VOTINGPARAM",
						"members": [
							{
								"astId": 63,
								"contract": "contracts/3_Ballot.sol:BallotTCN",
								"label": "quorum",
								"offset": 0,
								"slot": "0",
								"type": "t_uint16"
							},
							{
								"astId": 65,
								"contract": "contracts/3_Ballot.sol:BallotTCN",
								"label": "voteDuration",
								"offset": 2,
								"slot": "0",
								"type": "t_uint32"
							},
							{
								"astId": 67,
								"contract": "contracts/3_Ballot.sol:BallotTCN",
								"label": "voteStart",
								"offset": 6,
								"slot": "0",
								"type": "t_uint48"
							},
							{
								"astId": 69,
								"contract": "contracts/3_Ballot.sol:BallotTCN",
								"label": "etaSeconds",
								"offset": 12,
								"slot": "0",
								"type": "t_uint48"
							}
						],
						"numberOfBytes": "32"
					},
					"t_struct(Voter)51_storage": {
						"encoding": "inplace",
						"label": "struct BallotTCN.Voter",
						"members": [
							{
								"astId": 40,
								"contract": "contracts/3_Ballot.sol:BallotTCN",
								"label": "weight",
								"offset": 0,
								"slot": "0",
								"type": "t_uint16"
							},
							{
								"astId": 42,
								"contract": "contracts/3_Ballot.sol:BallotTCN",
								"label": "delegateWeight",
								"offset": 2,
								"slot": "0",
								"type": "t_uint16"
							},
							{
								"astId": 44,
								"contract": "contracts/3_Ballot.sol:BallotTCN",
								"label": "voted",
								"offset": 4,
								"slot": "0",
								"type": "t_bool"
							},
							{
								"astId": 46,
								"contract": "contracts/3_Ballot.sol:BallotTCN",
								"label": "opinion",
								"offset": 5,
								"slot": "0",
								"type": "t_bool"
							},
							{
								"astId": 48,
								"contract": "contracts/3_Ballot.sol:BallotTCN",
								"label": "delegate",
								"offset": 6,
								"slot": "0",
								"type": "t_address"
							},
							{
								"astId": 50,
								"contract": "contracts/3_Ballot.sol:BallotTCN",
								"label": "votedTime",
								"offset": 0,
								"slot": "1",
								"type": "t_uint256"
							}
						],
						"numberOfBytes": "64"
					},
					"t_uint16": {
						"encoding": "inplace",
						"label": "uint16",
						"numberOfBytes": "2"
					},
					"t_uint256": {
						"encoding": "inplace",
						"label": "uint256",
						"numberOfBytes": "32"
					},
					"t_uint32": {
						"encoding": "inplace",
						"label": "uint32",
						"numberOfBytes": "4"
					},
					"t_uint48": {
						"encoding": "inplace",
						"label": "uint48",
						"numberOfBytes": "6"
					}
				}
			},
			"userdoc": {
				"kind": "user",
				"methods": {},
				"version": 1
			}
		}
	}
}