{
	"contracts/ERC721TokenContractName.sol": {
		"ERC721TokenContractName": {
			"abi": [
				{
					"inputs": [
						{
							"internalType": "bytes20",
							"name": "name_",
							"type": "bytes20"
						},
						{
							"internalType": "bytes10",
							"name": "symbol_",
							"type": "bytes10"
						}
					],
					"stateMutability": "nonpayable",
					"type": "constructor"
				},
				{
					"inputs": [
						{
							"internalType": "address",
							"name": "sender",
							"type": "address"
						},
						{
							"internalType": "uint256",
							"name": "tokenId",
							"type": "uint256"
						},
						{
							"internalType": "address",
							"name": "owner",
							"type": "address"
						}
					],
					"name": "ERC721IncorrectOwner",
					"type": "error"
				},
				{
					"inputs": [
						{
							"internalType": "address",
							"name": "operator",
							"type": "address"
						},
						{
							"internalType": "uint256",
							"name": "tokenId",
							"type": "uint256"
						}
					],
					"name": "ERC721InsufficientApproval",
					"type": "error"
				},
				{
					"inputs": [
						{
							"internalType": "address",
							"name": "approver",
							"type": "address"
						}
					],
					"name": "ERC721InvalidApprover",
					"type": "error"
				},
				{
					"inputs": [
						{
							"internalType": "address",
							"name": "operator",
							"type": "address"
						}
					],
					"name": "ERC721InvalidOperator",
					"type": "error"
				},
				{
					"inputs": [
						{
							"internalType": "address",
							"name": "owner",
							"type": "address"
						}
					],
					"name": "ERC721InvalidOwner",
					"type": "error"
				},
				{
					"inputs": [
						{
							"internalType": "address",
							"name": "receiver",
							"type": "address"
						}
					],
					"name": "ERC721InvalidReceiver",
					"type": "error"
				},
				{
					"inputs": [
						{
							"internalType": "address",
							"name": "sender",
							"type": "address"
						}
					],
					"name": "ERC721InvalidSender",
					"type": "error"
				},
				{
					"inputs": [
						{
							"internalType": "uint256",
							"name": "tokenId",
							"type": "uint256"
						}
					],
					"name": "ERC721NonexistentToken",
					"type": "error"
				},
				{
					"anonymous": false,
					"inputs": [
						{
							"indexed": true,
							"internalType": "address",
							"name": "owner",
							"type": "address"
						},
						{
							"indexed": true,
							"internalType": "address",
							"name": "approved",
							"type": "address"
						},
						{
							"indexed": true,
							"internalType": "uint16",
							"name": "tokenId",
							"type": "uint16"
						}
					],
					"name": "Approval",
					"type": "event"
				},
				{
					"anonymous": false,
					"inputs": [
						{
							"indexed": true,
							"internalType": "address",
							"name": "owner",
							"type": "address"
						},
						{
							"indexed": true,
							"internalType": "address",
							"name": "operator",
							"type": "address"
						},
						{
							"indexed": false,
							"internalType": "bool",
							"name": "approved",
							"type": "bool"
						}
					],
					"name": "ApprovalForAll",
					"type": "event"
				},
				{
					"anonymous": false,
					"inputs": [
						{
							"indexed": true,
							"internalType": "address",
							"name": "from",
							"type": "address"
						},
						{
							"indexed": true,
							"internalType": "address",
							"name": "to",
							"type": "address"
						},
						{
							"indexed": true,
							"internalType": "uint256",
							"name": "tokenId",
							"type": "uint256"
						}
					],
					"name": "Transfer",
					"type": "event"
				},
				{
					"inputs": [
						{
							"internalType": "address",
							"name": "to",
							"type": "address"
						},
						{
							"internalType": "uint16",
							"name": "tokenId",
							"type": "uint16"
						}
					],
					"name": "approve",
					"outputs": [],
					"stateMutability": "nonpayable",
					"type": "function"
				},
				{
					"inputs": [
						{
							"internalType": "address",
							"name": "owner",
							"type": "address"
						}
					],
					"name": "balanceOf",
					"outputs": [
						{
							"internalType": "uint16",
							"name": "",
							"type": "uint16"
						}
					],
					"stateMutability": "view",
					"type": "function"
				},
				{
					"inputs": [
						{
							"internalType": "uint16",
							"name": "tokenId",
							"type": "uint16"
						}
					],
					"name": "getApproved",
					"outputs": [
						{
							"internalType": "address",
							"name": "",
							"type": "address"
						}
					],
					"stateMutability": "view",
					"type": "function"
				},
				{
					"inputs": [
						{
							"internalType": "address",
							"name": "owner",
							"type": "address"
						},
						{
							"internalType": "address",
							"name": "operator",
							"type": "address"
						}
					],
					"name": "isApprovedForAll",
					"outputs": [
						{
							"internalType": "bool",
							"name": "",
							"type": "bool"
						}
					],
					"stateMutability": "view",
					"type": "function"
				},
				{
					"inputs": [],
					"name": "name",
					"outputs": [
						{
							"internalType": "bytes20",
							"name": "",
							"type": "bytes20"
						}
					],
					"stateMutability": "view",
					"type": "function"
				},
				{
					"inputs": [
						{
							"internalType": "uint16",
							"name": "tokenId",
							"type": "uint16"
						}
					],
					"name": "ownerOf",
					"outputs": [
						{
							"internalType": "address",
							"name": "",
							"type": "address"
						}
					],
					"stateMutability": "view",
					"type": "function"
				},
				{
					"inputs": [
						{
							"internalType": "address",
							"name": "operator",
							"type": "address"
						},
						{
							"internalType": "bool",
							"name": "approved",
							"type": "bool"
						}
					],
					"name": "setApprovalForAll",
					"outputs": [],
					"stateMutability": "nonpayable",
					"type": "function"
				},
				{
					"inputs": [],
					"name": "symbol",
					"outputs": [
						{
							"internalType": "bytes10",
							"name": "",
							"type": "bytes10"
						}
					],
					"stateMutability": "view",
					"type": "function"
				},
				{
					"inputs": [
						{
							"internalType": "uint16",
							"name": "tokenId",
							"type": "uint16"
						}
					],
					"name": "tokenURI",
					"outputs": [
						{
							"internalType": "string",
							"name": "",
							"type": "string"
						}
					],
					"stateMutability": "view",
					"type": "function"
				}
			],
			"devdoc": {
				"errors": {
					"ERC721IncorrectOwner(address,uint256,address)": [
						{
							"details": "Indicates an error related to the ownership over a particular token. Used in transfers.",
							"params": {
								"owner": "Address of the current owner of a token.",
								"sender": "Address whose tokens are being transferred.",
								"tokenId": "Identifier number of a token."
							}
						}
					],
					"ERC721InsufficientApproval(address,uint256)": [
						{
							"details": "Indicates a failure with the `operator`’s approval. Used in transfers.",
							"params": {
								"operator": "Address that may be allowed to operate on tokens without being their owner.",
								"tokenId": "Identifier number of a token."
							}
						}
					],
					"ERC721InvalidApprover(address)": [
						{
							"details": "Indicates a failure with the `approver` of a token to be approved. Used in approvals.",
							"params": {
								"approver": "Address initiating an approval operation."
							}
						}
					],
					"ERC721InvalidOperator(address)": [
						{
							"details": "Indicates a failure with the `operator` to be approved. Used in approvals.",
							"params": {
								"operator": "Address that may be allowed to operate on tokens without being their owner."
							}
						}
					],
					"ERC721InvalidOwner(address)": [
						{
							"details": "Indicates that an address can't be an owner. For example, `address(0)` is a forbidden owner in EIP-20. Used in balance queries.",
							"params": {
								"owner": "Address of the current owner of a token."
							}
						}
					],
					"ERC721InvalidReceiver(address)": [
						{
							"details": "Indicates a failure with the token `receiver`. Used in transfers.",
							"params": {
								"receiver": "Address to which tokens are being transferred."
							}
						}
					],
					"ERC721InvalidSender(address)": [
						{
							"details": "Indicates a failure with the token `sender`. Used in transfers.",
							"params": {
								"sender": "Address whose tokens are being transferred."
							}
						}
					],
					"ERC721NonexistentToken(uint256)": [
						{
							"details": "Indicates a `tokenId` whose `owner` is the zero address.",
							"params": {
								"tokenId": "Identifier number of a token."
							}
						}
					]
				},
				"kind": "dev",
				"methods": {},
				"version": 1
			},
			"evm": {
				"assembly": "    /* \"contracts/ERC721TokenContractName.sol\":316:3753  contract ERC721TokenContractName is Context, IERC721Errors {... */\n  mstore(0x40, 0x80)\n    /* \"contracts/ERC721TokenContractName.sol\":1202:1306  constructor(bytes20 name_, bytes10 symbol_) {... */\n  callvalue\n  dup1\n  iszero\n  tag_1\n  jumpi\n  0x00\n  dup1\n  revert\ntag_1:\n  pop\n  mload(0x40)\n  sub(codesize, bytecodeSize)\n  dup1\n  bytecodeSize\n  dup4\n  codecopy\n  dup2\n  dup2\n  add\n  0x40\n  mstore\n  dup2\n  add\n  swap1\n  tag_2\n  swap2\n  swap1\n  tag_3\n  jump\t// in\ntag_2:\n    /* \"contracts/ERC721TokenContractName.sol\":1265:1270  name_ */\n  dup2\n    /* \"contracts/ERC721TokenContractName.sol\":1257:1262  _name */\n  0x00\n  dup1\n    /* \"contracts/ERC721TokenContractName.sol\":1257:1270  _name = name_ */\n  0x0100\n  exp\n  dup2\n  sload\n  dup2\n  0xffffffffffffffffffffffffffffffffffffffff\n  mul\n  not\n  and\n  swap1\n  dup4\n  0x60\n  shr\n  mul\n  or\n  swap1\n  sstore\n  pop\n    /* \"contracts/ERC721TokenContractName.sol\":1291:1298  symbol_ */\n  dup1\n    /* \"contracts/ERC721TokenContractName.sol\":1281:1288  _symbol */\n  0x00\n  0x14\n    /* \"contracts/ERC721TokenContractName.sol\":1281:1298  _symbol = symbol_ */\n  0x0100\n  exp\n  dup2\n  sload\n  dup2\n  0xffffffffffffffffffff\n  mul\n  not\n  and\n  swap1\n  dup4\n  0xb0\n  shr\n  mul\n  or\n  swap1\n  sstore\n  pop\n    /* \"contracts/ERC721TokenContractName.sol\":1202:1306  constructor(bytes20 name_, bytes10 symbol_) {... */\n  pop\n  pop\n    /* \"contracts/ERC721TokenContractName.sol\":316:3753  contract ERC721TokenContractName is Context, IERC721Errors {... */\n  jump(tag_6)\n    /* \"#utility.yul\":88:205   */\ntag_8:\n    /* \"#utility.yul\":197:198   */\n  0x00\n    /* \"#utility.yul\":194:195   */\n  dup1\n    /* \"#utility.yul\":187:199   */\n  revert\n    /* \"#utility.yul\":334:484   */\ntag_10:\n    /* \"#utility.yul\":371:378   */\n  0x00\n    /* \"#utility.yul\":411:477   */\n  0xffffffffffffffffffffffffffffffffffffffff000000000000000000000000\n    /* \"#utility.yul\":404:409   */\n  dup3\n    /* \"#utility.yul\":400:478   */\n  and\n    /* \"#utility.yul\":389:478   */\n  swap1\n  pop\n    /* \"#utility.yul\":334:484   */\n  swap2\n  swap1\n  pop\n  jump\t// out\n    /* \"#utility.yul\":490:612   */\ntag_11:\n    /* \"#utility.yul\":563:587   */\n  tag_22\n    /* \"#utility.yul\":581:586   */\n  dup2\n    /* \"#utility.yul\":563:587   */\n  tag_10\n  jump\t// in\ntag_22:\n    /* \"#utility.yul\":556:561   */\n  dup2\n    /* \"#utility.yul\":553:588   */\n  eq\n    /* \"#utility.yul\":543:606   */\n  tag_23\n  jumpi\n    /* \"#utility.yul\":602:603   */\n  0x00\n    /* \"#utility.yul\":599:600   */\n  dup1\n    /* \"#utility.yul\":592:604   */\n  revert\n    /* \"#utility.yul\":543:606   */\ntag_23:\n    /* \"#utility.yul\":490:612   */\n  pop\n  jump\t// out\n    /* \"#utility.yul\":618:761   */\ntag_12:\n    /* \"#utility.yul\":675:680   */\n  0x00\n    /* \"#utility.yul\":706:712   */\n  dup2\n    /* \"#utility.yul\":700:713   */\n  mload\n    /* \"#utility.yul\":691:713   */\n  swap1\n  pop\n    /* \"#utility.yul\":722:755   */\n  tag_25\n    /* \"#utility.yul\":749:754   */\n  dup2\n    /* \"#utility.yul\":722:755   */\n  tag_11\n  jump\t// in\ntag_25:\n    /* \"#utility.yul\":618:761   */\n  swap3\n  swap2\n  pop\n  pop\n  jump\t// out\n    /* \"#utility.yul\":767:917   */\ntag_13:\n    /* \"#utility.yul\":804:811   */\n  0x00\n    /* \"#utility.yul\":844:910   */\n  0xffffffffffffffffffff00000000000000000000000000000000000000000000\n    /* \"#utility.yul\":837:842   */\n  dup3\n    /* \"#utility.yul\":833:911   */\n  and\n    /* \"#utility.yul\":822:911   */\n  swap1\n  pop\n    /* \"#utility.yul\":767:917   */\n  swap2\n  swap1\n  pop\n  jump\t// out\n    /* \"#utility.yul\":923:1045   */\ntag_14:\n    /* \"#utility.yul\":996:1020   */\n  tag_28\n    /* \"#utility.yul\":1014:1019   */\n  dup2\n    /* \"#utility.yul\":996:1020   */\n  tag_13\n  jump\t// in\ntag_28:\n    /* \"#utility.yul\":989:994   */\n  dup2\n    /* \"#utility.yul\":986:1021   */\n  eq\n    /* \"#utility.yul\":976:1039   */\n  tag_29\n  jumpi\n    /* \"#utility.yul\":1035:1036   */\n  0x00\n    /* \"#utility.yul\":1032:1033   */\n  dup1\n    /* \"#utility.yul\":1025:1037   */\n  revert\n    /* \"#utility.yul\":976:1039   */\ntag_29:\n    /* \"#utility.yul\":923:1045   */\n  pop\n  jump\t// out\n    /* \"#utility.yul\":1051:1194   */\ntag_15:\n    /* \"#utility.yul\":1108:1113   */\n  0x00\n    /* \"#utility.yul\":1139:1145   */\n  dup2\n    /* \"#utility.yul\":1133:1146   */\n  mload\n    /* \"#utility.yul\":1124:1146   */\n  swap1\n  pop\n    /* \"#utility.yul\":1155:1188   */\n  tag_31\n    /* \"#utility.yul\":1182:1187   */\n  dup2\n    /* \"#utility.yul\":1155:1188   */\n  tag_14\n  jump\t// in\ntag_31:\n    /* \"#utility.yul\":1051:1194   */\n  swap3\n  swap2\n  pop\n  pop\n  jump\t// out\n    /* \"#utility.yul\":1200:1707   */\ntag_3:\n    /* \"#utility.yul\":1279:1285   */\n  0x00\n    /* \"#utility.yul\":1287:1293   */\n  dup1\n    /* \"#utility.yul\":1336:1338   */\n  0x40\n    /* \"#utility.yul\":1324:1333   */\n  dup4\n    /* \"#utility.yul\":1315:1322   */\n  dup6\n    /* \"#utility.yul\":1311:1334   */\n  sub\n    /* \"#utility.yul\":1307:1339   */\n  slt\n    /* \"#utility.yul\":1304:1423   */\n  iszero\n  tag_33\n  jumpi\n    /* \"#utility.yul\":1342:1421   */\n  tag_34\n  tag_8\n  jump\t// in\ntag_34:\n    /* \"#utility.yul\":1304:1423   */\ntag_33:\n    /* \"#utility.yul\":1462:1463   */\n  0x00\n    /* \"#utility.yul\":1487:1551   */\n  tag_35\n    /* \"#utility.yul\":1543:1550   */\n  dup6\n    /* \"#utility.yul\":1534:1540   */\n  dup3\n    /* \"#utility.yul\":1523:1532   */\n  dup7\n    /* \"#utility.yul\":1519:1541   */\n  add\n    /* \"#utility.yul\":1487:1551   */\n  tag_12\n  jump\t// in\ntag_35:\n    /* \"#utility.yul\":1477:1551   */\n  swap3\n  pop\n    /* \"#utility.yul\":1433:1561   */\n  pop\n    /* \"#utility.yul\":1600:1602   */\n  0x20\n    /* \"#utility.yul\":1626:1690   */\n  tag_36\n    /* \"#utility.yul\":1682:1689   */\n  dup6\n    /* \"#utility.yul\":1673:1679   */\n  dup3\n    /* \"#utility.yul\":1662:1671   */\n  dup7\n    /* \"#utility.yul\":1658:1680   */\n  add\n    /* \"#utility.yul\":1626:1690   */\n  tag_15\n  jump\t// in\ntag_36:\n    /* \"#utility.yul\":1616:1690   */\n  swap2\n  pop\n    /* \"#utility.yul\":1571:1700   */\n  pop\n    /* \"#utility.yul\":1200:1707   */\n  swap3\n  pop\n  swap3\n  swap1\n  pop\n  jump\t// out\n    /* \"contracts/ERC721TokenContractName.sol\":316:3753  contract ERC721TokenContractName is Context, IERC721Errors {... */\ntag_6:\n  dataSize(sub_0)\n  dup1\n  dataOffset(sub_0)\n  0x00\n  codecopy\n  0x00\n  return\nstop\n\nsub_0: assembly {\n        /* \"contracts/ERC721TokenContractName.sol\":316:3753  contract ERC721TokenContractName is Context, IERC721Errors {... */\n      mstore(0x40, 0x80)\n      callvalue\n      dup1\n      iszero\n      tag_1\n      jumpi\n      0x00\n      dup1\n      revert\n    tag_1:\n      pop\n      jumpi(tag_2, lt(calldatasize, 0x04))\n      shr(0xe0, calldataload(0x00))\n      dup1\n      0x95d89b41\n      gt\n      tag_12\n      jumpi\n      dup1\n      0x95d89b41\n      eq\n      tag_7\n      jumpi\n      dup1\n      0xa22cb465\n      eq\n      tag_8\n      jumpi\n      dup1\n      0xdd7d8440\n      eq\n      tag_9\n      jumpi\n      dup1\n      0xe560ca43\n      eq\n      tag_10\n      jumpi\n      dup1\n      0xe985e9c5\n      eq\n      tag_11\n      jumpi\n      jump(tag_2)\n    tag_12:\n      dup1\n      0x06fdde03\n      eq\n      tag_3\n      jumpi\n      dup1\n      0x70a08231\n      eq\n      tag_4\n      jumpi\n      dup1\n      0x82a7cf1e\n      eq\n      tag_5\n      jumpi\n      dup1\n      0x93b871f2\n      eq\n      tag_6\n      jumpi\n    tag_2:\n      0x00\n      dup1\n      revert\n        /* \"contracts/ERC721TokenContractName.sol\":1316:1393  function name() public view returns (bytes20) {... */\n    tag_3:\n      tag_13\n      tag_14\n      jump\t// in\n    tag_13:\n      mload(0x40)\n      tag_15\n      swap2\n      swap1\n      tag_16\n      jump\t// in\n    tag_15:\n      mload(0x40)\n      dup1\n      swap2\n      sub\n      swap1\n      return\n        /* \"contracts/ERC721TokenContractName.sol\":1494:1683  function balanceOf(address owner) public view returns (uint16) {... */\n    tag_4:\n      tag_17\n      0x04\n      dup1\n      calldatasize\n      sub\n      dup2\n      add\n      swap1\n      tag_18\n      swap2\n      swap1\n      tag_19\n      jump\t// in\n    tag_18:\n      tag_20\n      jump\t// in\n    tag_17:\n      mload(0x40)\n      tag_21\n      swap2\n      swap1\n      tag_22\n      jump\t// in\n    tag_21:\n      mload(0x40)\n      dup1\n      swap2\n      sub\n      swap1\n      return\n        /* \"contracts/ERC721TokenContractName.sol\":1693:1804  function ownerOf(uint16 tokenId) public view returns (address) {... */\n    tag_5:\n      tag_23\n      0x04\n      dup1\n      calldatasize\n      sub\n      dup2\n      add\n      swap1\n      tag_24\n      swap2\n      swap1\n      tag_25\n      jump\t// in\n    tag_24:\n      tag_26\n      jump\t// in\n    tag_23:\n      mload(0x40)\n      tag_27\n      swap2\n      swap1\n      tag_28\n      jump\t// in\n    tag_27:\n      mload(0x40)\n      dup1\n      swap2\n      sub\n      swap1\n      return\n        /* \"contracts/ERC721TokenContractName.sol\":2177:2337  function getApproved(uint16 tokenId) public view virtual returns (address) {... */\n    tag_6:\n      tag_29\n      0x04\n      dup1\n      calldatasize\n      sub\n      dup2\n      add\n      swap1\n      tag_30\n      swap2\n      swap1\n      tag_25\n      jump\t// in\n    tag_30:\n      tag_31\n      jump\t// in\n    tag_29:\n      mload(0x40)\n      tag_32\n      swap2\n      swap1\n      tag_28\n      jump\t// in\n    tag_32:\n      mload(0x40)\n      dup1\n      swap2\n      sub\n      swap1\n      return\n        /* \"contracts/ERC721TokenContractName.sol\":1403:1484  function symbol() public view returns (bytes10) {... */\n    tag_7:\n      tag_33\n      tag_34\n      jump\t// in\n    tag_33:\n      mload(0x40)\n      tag_35\n      swap2\n      swap1\n      tag_36\n      jump\t// in\n    tag_35:\n      mload(0x40)\n      dup1\n      swap2\n      sub\n      swap1\n      return\n        /* \"contracts/ERC721TokenContractName.sol\":2345:2769  function setApprovalForAll(address operator, bool approved) public {... */\n    tag_8:\n      tag_37\n      0x04\n      dup1\n      calldatasize\n      sub\n      dup2\n      add\n      swap1\n      tag_38\n      swap2\n      swap1\n      tag_39\n      jump\t// in\n    tag_38:\n      tag_40\n      jump\t// in\n    tag_37:\n      stop\n        /* \"contracts/ERC721TokenContractName.sol\":1814:2054  function tokenURI(uint16 tokenId) public view returns (string memory) {... */\n    tag_9:\n      tag_41\n      0x04\n      dup1\n      calldatasize\n      sub\n      dup2\n      add\n      swap1\n      tag_42\n      swap2\n      swap1\n      tag_25\n      jump\t// in\n    tag_42:\n      tag_43\n      jump\t// in\n    tag_41:\n      mload(0x40)\n      tag_44\n      swap2\n      swap1\n      tag_45\n      jump\t// in\n    tag_44:\n      mload(0x40)\n      dup1\n      swap2\n      sub\n      swap1\n      return\n        /* \"contracts/ERC721TokenContractName.sol\":2064:2169  function approve(address to, uint16 tokenId) public {... */\n    tag_10:\n      tag_46\n      0x04\n      dup1\n      calldatasize\n      sub\n      dup2\n      add\n      swap1\n      tag_47\n      swap2\n      swap1\n      tag_48\n      jump\t// in\n    tag_47:\n      tag_49\n      jump\t// in\n    tag_46:\n      stop\n        /* \"contracts/ERC721TokenContractName.sol\":2779:2926  function isApprovedForAll(address owner, address operator) public view returns (bool) {... */\n    tag_11:\n      tag_50\n      0x04\n      dup1\n      calldatasize\n      sub\n      dup2\n      add\n      swap1\n      tag_51\n      swap2\n      swap1\n      tag_52\n      jump\t// in\n    tag_51:\n      tag_53\n      jump\t// in\n    tag_50:\n      mload(0x40)\n      tag_54\n      swap2\n      swap1\n      tag_55\n      jump\t// in\n    tag_54:\n      mload(0x40)\n      dup1\n      swap2\n      sub\n      swap1\n      return\n        /* \"contracts/ERC721TokenContractName.sol\":1316:1393  function name() public view returns (bytes20) {... */\n    tag_14:\n        /* \"contracts/ERC721TokenContractName.sol\":1353:1360  bytes20 */\n      0x00\n        /* \"contracts/ERC721TokenContractName.sol\":1380:1385  _name */\n      dup1\n      0x00\n      swap1\n      sload\n      swap1\n      0x0100\n      exp\n      swap1\n      div\n      0x60\n      shl\n        /* \"contracts/ERC721TokenContractName.sol\":1373:1385  return _name */\n      swap1\n      pop\n        /* \"contracts/ERC721TokenContractName.sol\":1316:1393  function name() public view returns (bytes20) {... */\n      swap1\n      jump\t// out\n        /* \"contracts/ERC721TokenContractName.sol\":1494:1683  function balanceOf(address owner) public view returns (uint16) {... */\n    tag_20:\n        /* \"contracts/ERC721TokenContractName.sol\":1549:1555  uint16 */\n      0x00\n        /* \"contracts/ERC721TokenContractName.sol\":1593:1594  0 */\n      dup1\n        /* \"contracts/ERC721TokenContractName.sol\":1576:1595  owner != address(0) */\n      0xffffffffffffffffffffffffffffffffffffffff\n      and\n        /* \"contracts/ERC721TokenContractName.sol\":1576:1581  owner */\n      dup3\n        /* \"contracts/ERC721TokenContractName.sol\":1576:1595  owner != address(0) */\n      0xffffffffffffffffffffffffffffffffffffffff\n      and\n      sub\n        /* \"contracts/ERC721TokenContractName.sol\":1568:1631  require(owner != address(0),\"The input address cannot be zero\") */\n      tag_58\n      jumpi\n      mload(0x40)\n      0x08c379a000000000000000000000000000000000000000000000000000000000\n      dup2\n      mstore\n      0x04\n      add\n      tag_59\n      swap1\n      tag_60\n      jump\t// in\n    tag_59:\n      mload(0x40)\n      dup1\n      swap2\n      sub\n      swap1\n      revert\n    tag_58:\n        /* \"contracts/ERC721TokenContractName.sol\":1649:1665  _balanceAndTokId */\n      0x04b3\n        /* \"contracts/ERC721TokenContractName.sol\":1649:1672  _balanceAndTokId[owner] */\n      0x00\n        /* \"contracts/ERC721TokenContractName.sol\":1666:1671  owner */\n      dup4\n        /* \"contracts/ERC721TokenContractName.sol\":1649:1672  _balanceAndTokId[owner] */\n      0xffffffffffffffffffffffffffffffffffffffff\n      and\n      0xffffffffffffffffffffffffffffffffffffffff\n      and\n      dup2\n      mstore\n      0x20\n      add\n      swap1\n      dup2\n      mstore\n      0x20\n      add\n      0x00\n      keccak256\n        /* \"contracts/ERC721TokenContractName.sol\":1673:1674  0 */\n      0x00\n        /* \"contracts/ERC721TokenContractName.sol\":1649:1675  _balanceAndTokId[owner][0] */\n      0x04b1\n      dup2\n      lt\n      tag_61\n      jumpi\n      tag_62\n      tag_63\n      jump\t// in\n    tag_62:\n    tag_61:\n      0x10\n      swap2\n      dup3\n      dup3\n      div\n      add\n      swap2\n      swap1\n      mod\n      0x02\n      mul\n      swap1\n      sload\n      swap1\n      0x0100\n      exp\n      swap1\n      div\n      0xffff\n      and\n        /* \"contracts/ERC721TokenContractName.sol\":1642:1675  return _balanceAndTokId[owner][0] */\n      swap1\n      pop\n        /* \"contracts/ERC721TokenContractName.sol\":1494:1683  function balanceOf(address owner) public view returns (uint16) {... */\n      swap2\n      swap1\n      pop\n      jump\t// out\n        /* \"contracts/ERC721TokenContractName.sol\":1693:1804  function ownerOf(uint16 tokenId) public view returns (address) {... */\n    tag_26:\n        /* \"contracts/ERC721TokenContractName.sol\":1747:1754  address */\n      0x00\n        /* \"contracts/ERC721TokenContractName.sol\":1774:1796  _requireOwned(tokenId) */\n      tag_66\n        /* \"contracts/ERC721TokenContractName.sol\":1788:1795  tokenId */\n      dup3\n        /* \"contracts/ERC721TokenContractName.sol\":1774:1787  _requireOwned */\n      tag_67\n        /* \"contracts/ERC721TokenContractName.sol\":1774:1796  _requireOwned(tokenId) */\n      jump\t// in\n    tag_66:\n        /* \"contracts/ERC721TokenContractName.sol\":1767:1796  return _requireOwned(tokenId) */\n      swap1\n      pop\n        /* \"contracts/ERC721TokenContractName.sol\":1693:1804  function ownerOf(uint16 tokenId) public view returns (address) {... */\n      swap2\n      swap1\n      pop\n      jump\t// out\n        /* \"contracts/ERC721TokenContractName.sol\":2177:2337  function getApproved(uint16 tokenId) public view virtual returns (address) {... */\n    tag_31:\n        /* \"contracts/ERC721TokenContractName.sol\":2243:2250  address */\n      0x00\n        /* \"contracts/ERC721TokenContractName.sol\":2263:2285  _requireOwned(tokenId) */\n      tag_69\n        /* \"contracts/ERC721TokenContractName.sol\":2277:2284  tokenId */\n      dup3\n        /* \"contracts/ERC721TokenContractName.sol\":2263:2276  _requireOwned */\n      tag_67\n        /* \"contracts/ERC721TokenContractName.sol\":2263:2285  _requireOwned(tokenId) */\n      jump\t// in\n    tag_69:\n      pop\n        /* \"contracts/ERC721TokenContractName.sol\":2305:2320  _tokenApprovals */\n      0x04b4\n        /* \"contracts/ERC721TokenContractName.sol\":2305:2329  _tokenApprovals[tokenId] */\n      0x00\n        /* \"contracts/ERC721TokenContractName.sol\":2321:2328  tokenId */\n      dup4\n        /* \"contracts/ERC721TokenContractName.sol\":2305:2329  _tokenApprovals[tokenId] */\n      0xffff\n      and\n      0xffff\n      and\n      dup2\n      mstore\n      0x20\n      add\n      swap1\n      dup2\n      mstore\n      0x20\n      add\n      0x00\n      keccak256\n      0x00\n      swap1\n      sload\n      swap1\n      0x0100\n      exp\n      swap1\n      div\n      0xffffffffffffffffffffffffffffffffffffffff\n      and\n        /* \"contracts/ERC721TokenContractName.sol\":2298:2329  return _tokenApprovals[tokenId] */\n      swap1\n      pop\n        /* \"contracts/ERC721TokenContractName.sol\":2177:2337  function getApproved(uint16 tokenId) public view virtual returns (address) {... */\n      swap2\n      swap1\n      pop\n      jump\t// out\n        /* \"contracts/ERC721TokenContractName.sol\":1403:1484  function symbol() public view returns (bytes10) {... */\n    tag_34:\n        /* \"contracts/ERC721TokenContractName.sol\":1442:1449  bytes10 */\n      0x00\n        /* \"contracts/ERC721TokenContractName.sol\":1469:1476  _symbol */\n      dup1\n      0x14\n      swap1\n      sload\n      swap1\n      0x0100\n      exp\n      swap1\n      div\n      0xb0\n      shl\n        /* \"contracts/ERC721TokenContractName.sol\":1462:1476  return _symbol */\n      swap1\n      pop\n        /* \"contracts/ERC721TokenContractName.sol\":1403:1484  function symbol() public view returns (bytes10) {... */\n      swap1\n      jump\t// out\n        /* \"contracts/ERC721TokenContractName.sol\":2345:2769  function setApprovalForAll(address operator, bool approved) public {... */\n    tag_40:\n        /* \"contracts/ERC721TokenContractName.sol\":2447:2455  operator */\n      dup2\n        /* \"contracts/ERC721TokenContractName.sol\":2431:2455  _msgSender() != operator */\n      0xffffffffffffffffffffffffffffffffffffffff\n      and\n        /* \"contracts/ERC721TokenContractName.sol\":2431:2443  _msgSender() */\n      tag_72\n        /* \"contracts/ERC721TokenContractName.sol\":2431:2441  _msgSender */\n      tag_73\n        /* \"contracts/ERC721TokenContractName.sol\":2431:2443  _msgSender() */\n      jump\t// in\n    tag_72:\n        /* \"contracts/ERC721TokenContractName.sol\":2431:2455  _msgSender() != operator */\n      0xffffffffffffffffffffffffffffffffffffffff\n      and\n      sub\n        /* \"contracts/ERC721TokenContractName.sol\":2423:2519  require(_msgSender() != operator, \"The address of the owner and the operator must be different\") */\n      tag_74\n      jumpi\n      mload(0x40)\n      0x08c379a000000000000000000000000000000000000000000000000000000000\n      dup2\n      mstore\n      0x04\n      add\n      tag_75\n      swap1\n      tag_76\n      jump\t// in\n    tag_75:\n      mload(0x40)\n      dup1\n      swap2\n      sub\n      swap1\n      revert\n    tag_74:\n        /* \"contracts/ERC721TokenContractName.sol\":2554:2555  0 */\n      0x00\n        /* \"contracts/ERC721TokenContractName.sol\":2534:2556  operator == address(0) */\n      0xffffffffffffffffffffffffffffffffffffffff\n      and\n        /* \"contracts/ERC721TokenContractName.sol\":2534:2542  operator */\n      dup3\n        /* \"contracts/ERC721TokenContractName.sol\":2534:2556  operator == address(0) */\n      0xffffffffffffffffffffffffffffffffffffffff\n      and\n      sub\n        /* \"contracts/ERC721TokenContractName.sol\":2530:2623  if (operator == address(0)) {... */\n      tag_77\n      jumpi\n        /* \"contracts/ERC721TokenContractName.sol\":2602:2610  operator */\n      dup2\n        /* \"contracts/ERC721TokenContractName.sol\":2580:2611  ERC721InvalidOperator(operator) */\n      mload(0x40)\n      0x5b08ba1800000000000000000000000000000000000000000000000000000000\n      dup2\n      mstore\n      0x04\n      add\n      tag_78\n      swap2\n      swap1\n      tag_28\n      jump\t// in\n    tag_78:\n      mload(0x40)\n      dup1\n      swap2\n      sub\n      swap1\n      revert\n        /* \"contracts/ERC721TokenContractName.sol\":2530:2623  if (operator == address(0)) {... */\n    tag_77:\n        /* \"contracts/ERC721TokenContractName.sol\":2688:2696  approved */\n      dup1\n        /* \"contracts/ERC721TokenContractName.sol\":2643:2661  _operatorApprovals */\n      0x04b5\n        /* \"contracts/ERC721TokenContractName.sol\":2643:2675  _operatorApprovals[_msgSender()] */\n      0x00\n        /* \"contracts/ERC721TokenContractName.sol\":2662:2674  _msgSender() */\n      tag_79\n        /* \"contracts/ERC721TokenContractName.sol\":2662:2672  _msgSender */\n      tag_73\n        /* \"contracts/ERC721TokenContractName.sol\":2662:2674  _msgSender() */\n      jump\t// in\n    tag_79:\n        /* \"contracts/ERC721TokenContractName.sol\":2643:2675  _operatorApprovals[_msgSender()] */\n      0xffffffffffffffffffffffffffffffffffffffff\n      and\n      0xffffffffffffffffffffffffffffffffffffffff\n      and\n      dup2\n      mstore\n      0x20\n      add\n      swap1\n      dup2\n      mstore\n      0x20\n      add\n      0x00\n      keccak256\n        /* \"contracts/ERC721TokenContractName.sol\":2643:2685  _operatorApprovals[_msgSender()][operator] */\n      0x00\n        /* \"contracts/ERC721TokenContractName.sol\":2676:2684  operator */\n      dup5\n        /* \"contracts/ERC721TokenContractName.sol\":2643:2685  _operatorApprovals[_msgSender()][operator] */\n      0xffffffffffffffffffffffffffffffffffffffff\n      and\n      0xffffffffffffffffffffffffffffffffffffffff\n      and\n      dup2\n      mstore\n      0x20\n      add\n      swap1\n      dup2\n      mstore\n      0x20\n      add\n      0x00\n      keccak256\n      0x00\n        /* \"contracts/ERC721TokenContractName.sol\":2643:2696  _operatorApprovals[_msgSender()][operator] = approved */\n      0x0100\n      exp\n      dup2\n      sload\n      dup2\n      0xff\n      mul\n      not\n      and\n      swap1\n      dup4\n      iszero\n      iszero\n      mul\n      or\n      swap1\n      sstore\n      pop\n        /* \"contracts/ERC721TokenContractName.sol\":2742:2750  operator */\n      dup2\n        /* \"contracts/ERC721TokenContractName.sol\":2713:2761  ApprovalForAll(_msgSender(), operator, approved) */\n      0xffffffffffffffffffffffffffffffffffffffff\n      and\n        /* \"contracts/ERC721TokenContractName.sol\":2728:2740  _msgSender() */\n      tag_80\n        /* \"contracts/ERC721TokenContractName.sol\":2728:2738  _msgSender */\n      tag_73\n        /* \"contracts/ERC721TokenContractName.sol\":2728:2740  _msgSender() */\n      jump\t// in\n    tag_80:\n        /* \"contracts/ERC721TokenContractName.sol\":2713:2761  ApprovalForAll(_msgSender(), operator, approved) */\n      0xffffffffffffffffffffffffffffffffffffffff\n      and\n      0x17307eab39ab6107e8899845ad3d59bd9653f200f220920489ca2b5937696c31\n        /* \"contracts/ERC721TokenContractName.sol\":2752:2760  approved */\n      dup4\n        /* \"contracts/ERC721TokenContractName.sol\":2713:2761  ApprovalForAll(_msgSender(), operator, approved) */\n      mload(0x40)\n      tag_81\n      swap2\n      swap1\n      tag_55\n      jump\t// in\n    tag_81:\n      mload(0x40)\n      dup1\n      swap2\n      sub\n      swap1\n      log3\n        /* \"contracts/ERC721TokenContractName.sol\":2345:2769  function setApprovalForAll(address operator, bool approved) public {... */\n      pop\n      pop\n      jump\t// out\n        /* \"contracts/ERC721TokenContractName.sol\":1814:2054  function tokenURI(uint16 tokenId) public view returns (string memory) {... */\n    tag_43:\n        /* \"contracts/ERC721TokenContractName.sol\":1869:1882  string memory */\n      0x60\n        /* \"contracts/ERC721TokenContractName.sol\":1895:1917  _requireOwned(tokenId) */\n      tag_83\n        /* \"contracts/ERC721TokenContractName.sol\":1909:1916  tokenId */\n      dup3\n        /* \"contracts/ERC721TokenContractName.sol\":1895:1908  _requireOwned */\n      tag_67\n        /* \"contracts/ERC721TokenContractName.sol\":1895:1917  _requireOwned(tokenId) */\n      jump\t// in\n    tag_83:\n      pop\n        /* \"contracts/ERC721TokenContractName.sol\":1928:1946  string memory base */\n      0x00\n        /* \"contracts/ERC721TokenContractName.sol\":1949:1959  _baseURI() */\n      tag_84\n        /* \"contracts/ERC721TokenContractName.sol\":1949:1957  _baseURI */\n      tag_85\n        /* \"contracts/ERC721TokenContractName.sol\":1949:1959  _baseURI() */\n      jump\t// in\n    tag_84:\n        /* \"contracts/ERC721TokenContractName.sol\":1928:1959  string memory base = _baseURI() */\n      swap1\n      pop\n        /* \"contracts/ERC721TokenContractName.sol\":1998:1999  0 */\n      0x00\n        /* \"contracts/ERC721TokenContractName.sol\":1983:1987  base */\n      dup2\n        /* \"contracts/ERC721TokenContractName.sol\":1977:1995  bytes(base).length */\n      mload\n        /* \"contracts/ERC721TokenContractName.sol\":1977:1999  bytes(base).length > 0 */\n      gt\n        /* \"contracts/ERC721TokenContractName.sol\":1977:2046  bytes(base).length > 0 ? string.concat(base, tokenId.toString()) : \"\" */\n      tag_86\n      jumpi\n      mload(0x40)\n      dup1\n      0x20\n      add\n      0x40\n      mstore\n      dup1\n      0x00\n      dup2\n      mstore\n      pop\n      jump(tag_87)\n    tag_86:\n        /* \"contracts/ERC721TokenContractName.sol\":2016:2020  base */\n      dup1\n        /* \"contracts/ERC721TokenContractName.sol\":2022:2040  tokenId.toString() */\n      tag_88\n        /* \"contracts/ERC721TokenContractName.sol\":2022:2029  tokenId */\n      dup5\n        /* \"contracts/ERC721TokenContractName.sol\":2022:2038  tokenId.toString */\n      0xffff\n      and\n      tag_89\n        /* \"contracts/ERC721TokenContractName.sol\":2022:2040  tokenId.toString() */\n      jump\t// in\n    tag_88:\n        /* \"contracts/ERC721TokenContractName.sol\":2002:2041  string.concat(base, tokenId.toString()) */\n      add(0x20, mload(0x40))\n      tag_90\n      swap3\n      swap2\n      swap1\n      tag_91\n      jump\t// in\n    tag_90:\n      mload(0x40)\n      0x20\n      dup2\n      dup4\n      sub\n      sub\n      dup2\n      mstore\n      swap1\n      0x40\n      mstore\n        /* \"contracts/ERC721TokenContractName.sol\":1977:2046  bytes(base).length > 0 ? string.concat(base, tokenId.toString()) : \"\" */\n    tag_87:\n        /* \"contracts/ERC721TokenContractName.sol\":1970:2046  return bytes(base).length > 0 ? string.concat(base, tokenId.toString()) : \"\" */\n      swap2\n      pop\n      pop\n        /* \"contracts/ERC721TokenContractName.sol\":1814:2054  function tokenURI(uint16 tokenId) public view returns (string memory) {... */\n      swap2\n      swap1\n      pop\n      jump\t// out\n        /* \"contracts/ERC721TokenContractName.sol\":2064:2169  function approve(address to, uint16 tokenId) public {... */\n    tag_49:\n        /* \"contracts/ERC721TokenContractName.sol\":2127:2161  _aprove(to, tokenId, _msgSender()) */\n      tag_93\n        /* \"contracts/ERC721TokenContractName.sol\":2135:2137  to */\n      dup3\n        /* \"contracts/ERC721TokenContractName.sol\":2139:2146  tokenId */\n      dup3\n        /* \"contracts/ERC721TokenContractName.sol\":2148:2160  _msgSender() */\n      tag_94\n        /* \"contracts/ERC721TokenContractName.sol\":2148:2158  _msgSender */\n      tag_73\n        /* \"contracts/ERC721TokenContractName.sol\":2148:2160  _msgSender() */\n      jump\t// in\n    tag_94:\n        /* \"contracts/ERC721TokenContractName.sol\":2127:2134  _aprove */\n      tag_95\n        /* \"contracts/ERC721TokenContractName.sol\":2127:2161  _aprove(to, tokenId, _msgSender()) */\n      jump\t// in\n    tag_93:\n        /* \"contracts/ERC721TokenContractName.sol\":2064:2169  function approve(address to, uint16 tokenId) public {... */\n      pop\n      pop\n      jump\t// out\n        /* \"contracts/ERC721TokenContractName.sol\":2779:2926  function isApprovedForAll(address owner, address operator) public view returns (bool) {... */\n    tag_53:\n        /* \"contracts/ERC721TokenContractName.sol\":2859:2863  bool */\n      0x00\n        /* \"contracts/ERC721TokenContractName.sol\":2883:2901  _operatorApprovals */\n      0x04b5\n        /* \"contracts/ERC721TokenContractName.sol\":2883:2908  _operatorApprovals[owner] */\n      0x00\n        /* \"contracts/ERC721TokenContractName.sol\":2902:2907  owner */\n      dup5\n        /* \"contracts/ERC721TokenContractName.sol\":2883:2908  _operatorApprovals[owner] */\n      0xffffffffffffffffffffffffffffffffffffffff\n      and\n      0xffffffffffffffffffffffffffffffffffffffff\n      and\n      dup2\n      mstore\n      0x20\n      add\n      swap1\n      dup2\n      mstore\n      0x20\n      add\n      0x00\n      keccak256\n        /* \"contracts/ERC721TokenContractName.sol\":2883:2918  _operatorApprovals[owner][operator] */\n      0x00\n        /* \"contracts/ERC721TokenContractName.sol\":2909:2917  operator */\n      dup4\n        /* \"contracts/ERC721TokenContractName.sol\":2883:2918  _operatorApprovals[owner][operator] */\n      0xffffffffffffffffffffffffffffffffffffffff\n      and\n      0xffffffffffffffffffffffffffffffffffffffff\n      and\n      dup2\n      mstore\n      0x20\n      add\n      swap1\n      dup2\n      mstore\n      0x20\n      add\n      0x00\n      keccak256\n      0x00\n      swap1\n      sload\n      swap1\n      0x0100\n      exp\n      swap1\n      div\n      0xff\n      and\n        /* \"contracts/ERC721TokenContractName.sol\":2876:2918  return _operatorApprovals[owner][operator] */\n      swap1\n      pop\n        /* \"contracts/ERC721TokenContractName.sol\":2779:2926  function isApprovedForAll(address owner, address operator) public view returns (bool) {... */\n      swap3\n      swap2\n      pop\n      pop\n      jump\t// out\n        /* \"contracts/ERC721TokenContractName.sol\":3380:3644  function _requireOwned(uint16 tokenId) internal view returns (address) {... */\n    tag_67:\n        /* \"contracts/ERC721TokenContractName.sol\":3442:3449  address */\n      0x00\n        /* \"contracts/ERC721TokenContractName.sol\":3474:3481  tokenId */\n      dup2\n        /* \"contracts/ERC721TokenContractName.sol\":3470:3481  0 < tokenId */\n      0xffff\n      and\n        /* \"contracts/ERC721TokenContractName.sol\":3470:3471  0 */\n      0x00\n        /* \"contracts/ERC721TokenContractName.sol\":3470:3481  0 < tokenId */\n      lt\n        /* \"contracts/ERC721TokenContractName.sol\":3470:3517  0 < tokenId && tokenId <= tokInfo.currentTokens */\n      dup1\n      iszero\n      tag_98\n      jumpi\n      pop\n        /* \"contracts/ERC721TokenContractName.sol\":3496:3503  tokInfo */\n      0x01\n        /* \"contracts/ERC721TokenContractName.sol\":3496:3517  tokInfo.currentTokens */\n      0x00\n      add\n      0x02\n      swap1\n      sload\n      swap1\n      0x0100\n      exp\n      swap1\n      div\n      0xffff\n      and\n        /* \"contracts/ERC721TokenContractName.sol\":3485:3517  tokenId <= tokInfo.currentTokens */\n      0xffff\n      and\n        /* \"contracts/ERC721TokenContractName.sol\":3485:3492  tokenId */\n      dup3\n        /* \"contracts/ERC721TokenContractName.sol\":3485:3517  tokenId <= tokInfo.currentTokens */\n      0xffff\n      and\n      gt\n      iszero\n        /* \"contracts/ERC721TokenContractName.sol\":3470:3517  0 < tokenId && tokenId <= tokInfo.currentTokens */\n    tag_98:\n        /* \"contracts/ERC721TokenContractName.sol\":3462:3601  require(0 < tokenId && tokenId <= tokInfo.currentTokens, \"The ID entered is invalid. It must be in this interval 0 < id <= current tokens\") */\n      tag_99\n      jumpi\n      mload(0x40)\n      0x08c379a000000000000000000000000000000000000000000000000000000000\n      dup2\n      mstore\n      0x04\n      add\n      tag_100\n      swap1\n      tag_101\n      jump\t// in\n    tag_100:\n      mload(0x40)\n      dup1\n      swap2\n      sub\n      swap1\n      revert\n    tag_99:\n        /* \"contracts/ERC721TokenContractName.sol\":3620:3627  _owners */\n      0x02\n        /* \"contracts/ERC721TokenContractName.sol\":3628:3635  tokenId */\n      dup3\n        /* \"contracts/ERC721TokenContractName.sol\":3620:3636  _owners[tokenId] */\n      0xffff\n      and\n      0x04b1\n      dup2\n      lt\n      tag_102\n      jumpi\n      tag_103\n      tag_63\n      jump\t// in\n    tag_103:\n    tag_102:\n      add\n      0x00\n      swap1\n      sload\n      swap1\n      0x0100\n      exp\n      swap1\n      div\n      0xffffffffffffffffffffffffffffffffffffffff\n      and\n        /* \"contracts/ERC721TokenContractName.sol\":3613:3636  return _owners[tokenId] */\n      swap1\n      pop\n        /* \"contracts/ERC721TokenContractName.sol\":3380:3644  function _requireOwned(uint16 tokenId) internal view returns (address) {... */\n      swap2\n      swap1\n      pop\n      jump\t// out\n        /* \"@openzeppelin/contracts/utils/Context.sol\":656:752  function _msgSender() internal view virtual returns (address) {... */\n    tag_73:\n        /* \"@openzeppelin/contracts/utils/Context.sol\":709:716  address */\n      0x00\n        /* \"@openzeppelin/contracts/utils/Context.sol\":735:745  msg.sender */\n      caller\n        /* \"@openzeppelin/contracts/utils/Context.sol\":728:745  return msg.sender */\n      swap1\n      pop\n        /* \"@openzeppelin/contracts/utils/Context.sol\":656:752  function _msgSender() internal view virtual returns (address) {... */\n      swap1\n      jump\t// out\n        /* \"contracts/ERC721TokenContractName.sol\":3654:3740  function _baseURI() internal pure returns (string memory) {... */\n    tag_85:\n        /* \"contracts/ERC721TokenContractName.sol\":3697:3710  string memory */\n      0x60\n        /* \"contracts/ERC721TokenContractName.sol\":3723:3732  return \"\" */\n      mload(0x40)\n      dup1\n      0x20\n      add\n      0x40\n      mstore\n      dup1\n      0x00\n      dup2\n      mstore\n      pop\n      swap1\n      pop\n        /* \"contracts/ERC721TokenContractName.sol\":3654:3740  function _baseURI() internal pure returns (string memory) {... */\n      swap1\n      jump\t// out\n        /* \"@openzeppelin/contracts/utils/Strings.sol\":637:1335  function toString(uint256 value) internal pure returns (string memory) {... */\n    tag_89:\n        /* \"@openzeppelin/contracts/utils/Strings.sol\":693:706  string memory */\n      0x60\n        /* \"@openzeppelin/contracts/utils/Strings.sol\":742:756  uint256 length */\n      0x00\n        /* \"@openzeppelin/contracts/utils/Strings.sol\":779:780  1 */\n      0x01\n        /* \"@openzeppelin/contracts/utils/Strings.sol\":759:776  Math.log10(value) */\n      tag_108\n        /* \"@openzeppelin/contracts/utils/Strings.sol\":770:775  value */\n      dup5\n        /* \"@openzeppelin/contracts/utils/Strings.sol\":759:769  Math.log10 */\n      tag_109\n        /* \"@openzeppelin/contracts/utils/Strings.sol\":759:776  Math.log10(value) */\n      jump\t// in\n    tag_108:\n        /* \"@openzeppelin/contracts/utils/Strings.sol\":759:780  Math.log10(value) + 1 */\n      add\n        /* \"@openzeppelin/contracts/utils/Strings.sol\":742:780  uint256 length = Math.log10(value) + 1 */\n      swap1\n      pop\n        /* \"@openzeppelin/contracts/utils/Strings.sol\":794:814  string memory buffer */\n      0x00\n        /* \"@openzeppelin/contracts/utils/Strings.sol\":828:834  length */\n      dup2\n        /* \"@openzeppelin/contracts/utils/Strings.sol\":817:835  new string(length) */\n      0xffffffffffffffff\n      dup2\n      gt\n      iszero\n      tag_110\n      jumpi\n      tag_111\n      tag_112\n      jump\t// in\n    tag_111:\n    tag_110:\n      mload(0x40)\n      swap1\n      dup1\n      dup3\n      mstore\n      dup1\n      0x1f\n      add\n      not(0x1f)\n      and\n      0x20\n      add\n      dup3\n      add\n      0x40\n      mstore\n      dup1\n      iszero\n      tag_113\n      jumpi\n      dup2\n      0x20\n      add\n      0x01\n      dup3\n      mul\n      dup1\n      calldatasize\n      dup4\n      calldatacopy\n      dup1\n      dup3\n      add\n      swap2\n      pop\n      pop\n      swap1\n      pop\n    tag_113:\n      pop\n        /* \"@openzeppelin/contracts/utils/Strings.sol\":794:835  string memory buffer = new string(length) */\n      swap1\n      pop\n        /* \"@openzeppelin/contracts/utils/Strings.sol\":849:860  uint256 ptr */\n      0x00\n        /* \"@openzeppelin/contracts/utils/Strings.sol\":975:981  length */\n      dup3\n        /* \"@openzeppelin/contracts/utils/Strings.sol\":971:973  32 */\n      0x20\n        /* \"@openzeppelin/contracts/utils/Strings.sol\":967:982  add(32, length) */\n      add\n        /* \"@openzeppelin/contracts/utils/Strings.sol\":959:965  buffer */\n      dup3\n        /* \"@openzeppelin/contracts/utils/Strings.sol\":955:983  add(buffer, add(32, length)) */\n      add\n        /* \"@openzeppelin/contracts/utils/Strings.sol\":948:983  ptr := add(buffer, add(32, length)) */\n      swap1\n      pop\n        /* \"@openzeppelin/contracts/utils/Strings.sol\":1010:1292  while (true) {... */\n    tag_114:\n        /* \"@openzeppelin/contracts/utils/Strings.sol\":1017:1021  true */\n      0x01\n        /* \"@openzeppelin/contracts/utils/Strings.sol\":1010:1292  while (true) {... */\n      iszero\n      tag_115\n      jumpi\n        /* \"@openzeppelin/contracts/utils/Strings.sol\":1041:1046  ptr-- */\n      dup1\n      dup1\n      0x01\n      swap1\n      sub\n      swap2\n      pop\n      pop\n        /* \"@openzeppelin/contracts/utils/Strings.sol\":1180:1190  HEX_DIGITS */\n      0x3031323334353637383961626364656600000000000000000000000000000000\n        /* \"@openzeppelin/contracts/utils/Strings.sol\":1175:1177  10 */\n      0x0a\n        /* \"@openzeppelin/contracts/utils/Strings.sol\":1168:1173  value */\n      dup7\n        /* \"@openzeppelin/contracts/utils/Strings.sol\":1164:1178  mod(value, 10) */\n      mod\n        /* \"@openzeppelin/contracts/utils/Strings.sol\":1159:1191  byte(mod(value, 10), HEX_DIGITS) */\n      byte\n        /* \"@openzeppelin/contracts/utils/Strings.sol\":1154:1157  ptr */\n      dup2\n        /* \"@openzeppelin/contracts/utils/Strings.sol\":1146:1192  mstore8(ptr, byte(mod(value, 10), HEX_DIGITS)) */\n      mstore8\n        /* \"@openzeppelin/contracts/utils/Strings.sol\":1236:1238  10 */\n      0x0a\n        /* \"@openzeppelin/contracts/utils/Strings.sol\":1227:1238  value /= 10 */\n      dup6\n      dup2\n      tag_116\n      jumpi\n      tag_117\n      tag_118\n      jump\t// in\n    tag_117:\n    tag_116:\n      div\n      swap5\n      pop\n        /* \"@openzeppelin/contracts/utils/Strings.sol\":1269:1270  0 */\n      0x00\n        /* \"@openzeppelin/contracts/utils/Strings.sol\":1260:1265  value */\n      dup6\n        /* \"@openzeppelin/contracts/utils/Strings.sol\":1260:1270  value == 0 */\n      sub\n        /* \"@openzeppelin/contracts/utils/Strings.sol\":1010:1292  while (true) {... */\n      tag_114\n        /* \"@openzeppelin/contracts/utils/Strings.sol\":1256:1277  if (value == 0) break */\n      jumpi\n        /* \"@openzeppelin/contracts/utils/Strings.sol\":1010:1292  while (true) {... */\n    tag_115:\n        /* \"@openzeppelin/contracts/utils/Strings.sol\":1312:1318  buffer */\n      dup2\n        /* \"@openzeppelin/contracts/utils/Strings.sol\":1305:1318  return buffer */\n      swap4\n      pop\n      pop\n      pop\n      pop\n        /* \"@openzeppelin/contracts/utils/Strings.sol\":637:1335  function toString(uint256 value) internal pure returns (string memory) {... */\n      swap2\n      swap1\n      pop\n      jump\t// out\n        /* \"contracts/ERC721TokenContractName.sol\":2940:3362  function _aprove(address to, uint16 tokenId, address auth) internal {... */\n    tag_95:\n        /* \"contracts/ERC721TokenContractName.sol\":3019:3032  address owner */\n      0x00\n        /* \"contracts/ERC721TokenContractName.sol\":3035:3057  _requireOwned(tokenId) */\n      tag_121\n        /* \"contracts/ERC721TokenContractName.sol\":3049:3056  tokenId */\n      dup4\n        /* \"contracts/ERC721TokenContractName.sol\":3035:3048  _requireOwned */\n      tag_67\n        /* \"contracts/ERC721TokenContractName.sol\":3035:3057  _requireOwned(tokenId) */\n      jump\t// in\n    tag_121:\n        /* \"contracts/ERC721TokenContractName.sol\":3019:3057  address owner = _requireOwned(tokenId) */\n      swap1\n      pop\n        /* \"contracts/ERC721TokenContractName.sol\":3085:3087  to */\n      dup4\n        /* \"contracts/ERC721TokenContractName.sol\":3076:3087  owner != to */\n      0xffffffffffffffffffffffffffffffffffffffff\n      and\n        /* \"contracts/ERC721TokenContractName.sol\":3076:3081  owner */\n      dup2\n        /* \"contracts/ERC721TokenContractName.sol\":3076:3087  owner != to */\n      0xffffffffffffffffffffffffffffffffffffffff\n      and\n      sub\n        /* \"contracts/ERC721TokenContractName.sol\":3068:3151  require(owner != to, \"The address of the owner and the operator must be different\") */\n      tag_122\n      jumpi\n      mload(0x40)\n      0x08c379a000000000000000000000000000000000000000000000000000000000\n      dup2\n      mstore\n      0x04\n      add\n      tag_123\n      swap1\n      tag_76\n      jump\t// in\n    tag_123:\n      mload(0x40)\n      dup1\n      swap2\n      sub\n      swap1\n      revert\n    tag_122:\n        /* \"contracts/ERC721TokenContractName.sol\":3174:3178  auth */\n      dup2\n        /* \"contracts/ERC721TokenContractName.sol\":3165:3178  owner != auth */\n      0xffffffffffffffffffffffffffffffffffffffff\n      and\n        /* \"contracts/ERC721TokenContractName.sol\":3165:3170  owner */\n      dup2\n        /* \"contracts/ERC721TokenContractName.sol\":3165:3178  owner != auth */\n      0xffffffffffffffffffffffffffffffffffffffff\n      and\n      eq\n      iszero\n        /* \"contracts/ERC721TokenContractName.sol\":3165:3212  owner != auth && !isApprovedForAll(owner, auth) */\n      dup1\n      iszero\n      tag_124\n      jumpi\n      pop\n        /* \"contracts/ERC721TokenContractName.sol\":3183:3212  isApprovedForAll(owner, auth) */\n      tag_125\n        /* \"contracts/ERC721TokenContractName.sol\":3200:3205  owner */\n      dup2\n        /* \"contracts/ERC721TokenContractName.sol\":3207:3211  auth */\n      dup4\n        /* \"contracts/ERC721TokenContractName.sol\":3183:3199  isApprovedForAll */\n      tag_53\n        /* \"contracts/ERC721TokenContractName.sol\":3183:3212  isApprovedForAll(owner, auth) */\n      jump\t// in\n    tag_125:\n        /* \"contracts/ERC721TokenContractName.sol\":3182:3212  !isApprovedForAll(owner, auth) */\n      iszero\n        /* \"contracts/ERC721TokenContractName.sol\":3165:3212  owner != auth && !isApprovedForAll(owner, auth) */\n    tag_124:\n        /* \"contracts/ERC721TokenContractName.sol\":3161:3269  if (owner != auth && !isApprovedForAll(owner, auth)){... */\n      iszero\n      tag_126\n      jumpi\n        /* \"contracts/ERC721TokenContractName.sol\":3253:3257  auth */\n      dup2\n        /* \"contracts/ERC721TokenContractName.sol\":3231:3258  ERC721InvalidApprover(auth) */\n      mload(0x40)\n      0xa9fbf51f00000000000000000000000000000000000000000000000000000000\n      dup2\n      mstore\n      0x04\n      add\n      tag_127\n      swap2\n      swap1\n      tag_28\n      jump\t// in\n    tag_127:\n      mload(0x40)\n      dup1\n      swap2\n      sub\n      swap1\n      revert\n        /* \"contracts/ERC721TokenContractName.sol\":3161:3269  if (owner != auth && !isApprovedForAll(owner, auth)){... */\n    tag_126:\n        /* \"contracts/ERC721TokenContractName.sol\":3308:3310  to */\n      dup4\n        /* \"contracts/ERC721TokenContractName.sol\":3281:3296  _tokenApprovals */\n      0x04b4\n        /* \"contracts/ERC721TokenContractName.sol\":3281:3305  _tokenApprovals[tokenId] */\n      0x00\n        /* \"contracts/ERC721TokenContractName.sol\":3297:3304  tokenId */\n      dup6\n        /* \"contracts/ERC721TokenContractName.sol\":3281:3305  _tokenApprovals[tokenId] */\n      0xffff\n      and\n      0xffff\n      and\n      dup2\n      mstore\n      0x20\n      add\n      swap1\n      dup2\n      mstore\n      0x20\n      add\n      0x00\n      keccak256\n      0x00\n        /* \"contracts/ERC721TokenContractName.sol\":3281:3310  _tokenApprovals[tokenId] = to */\n      0x0100\n      exp\n      dup2\n      sload\n      dup2\n      0xffffffffffffffffffffffffffffffffffffffff\n      mul\n      not\n      and\n      swap1\n      dup4\n      0xffffffffffffffffffffffffffffffffffffffff\n      and\n      mul\n      or\n      swap1\n      sstore\n      pop\n        /* \"contracts/ERC721TokenContractName.sol\":3346:3353  tokenId */\n      dup3\n        /* \"contracts/ERC721TokenContractName.sol\":3326:3354  Approval(owner, to, tokenId) */\n      0xffff\n      and\n        /* \"contracts/ERC721TokenContractName.sol\":3342:3344  to */\n      dup5\n        /* \"contracts/ERC721TokenContractName.sol\":3326:3354  Approval(owner, to, tokenId) */\n      0xffffffffffffffffffffffffffffffffffffffff\n      and\n        /* \"contracts/ERC721TokenContractName.sol\":3335:3340  owner */\n      dup3\n        /* \"contracts/ERC721TokenContractName.sol\":3326:3354  Approval(owner, to, tokenId) */\n      0xffffffffffffffffffffffffffffffffffffffff\n      and\n      0x0a9d294fd4bd42bb30e96cba2b478d149a783fba3c729b1e5c42bec89d95b85a\n      mload(0x40)\n      mload(0x40)\n      dup1\n      swap2\n      sub\n      swap1\n      log4\n        /* \"contracts/ERC721TokenContractName.sol\":3008:3362  {... */\n      pop\n        /* \"contracts/ERC721TokenContractName.sol\":2940:3362  function _aprove(address to, uint16 tokenId, address auth) internal {... */\n      pop\n      pop\n      pop\n      jump\t// out\n        /* \"@openzeppelin/contracts/utils/math/Math.sol\":12214:13130  function log10(uint256 value) internal pure returns (uint256) {... */\n    tag_109:\n        /* \"@openzeppelin/contracts/utils/math/Math.sol\":12267:12274  uint256 */\n      0x00\n        /* \"@openzeppelin/contracts/utils/math/Math.sol\":12286:12300  uint256 result */\n      dup1\n        /* \"@openzeppelin/contracts/utils/math/Math.sol\":12303:12304  0 */\n      0x00\n        /* \"@openzeppelin/contracts/utils/math/Math.sol\":12286:12304  uint256 result = 0 */\n      swap1\n      pop\n        /* \"@openzeppelin/contracts/utils/math/Math.sol\":12351:12359  10 ** 64 */\n      0x184f03e93ff9f4daa797ed6e38ed64bf6a1f010000000000000000\n        /* \"@openzeppelin/contracts/utils/math/Math.sol\":12342:12347  value */\n      dup4\n        /* \"@openzeppelin/contracts/utils/math/Math.sol\":12342:12359  value >= 10 ** 64 */\n      lt\n        /* \"@openzeppelin/contracts/utils/math/Math.sol\":12338:12441  if (value >= 10 ** 64) {... */\n      tag_129\n      jumpi\n        /* \"@openzeppelin/contracts/utils/math/Math.sol\":12388:12396  10 ** 64 */\n      0x184f03e93ff9f4daa797ed6e38ed64bf6a1f010000000000000000\n        /* \"@openzeppelin/contracts/utils/math/Math.sol\":12379:12396  value /= 10 ** 64 */\n      dup4\n      dup2\n      tag_130\n      jumpi\n      tag_131\n      tag_118\n      jump\t// in\n    tag_131:\n    tag_130:\n      div\n      swap3\n      pop\n        /* \"@openzeppelin/contracts/utils/math/Math.sol\":12424:12426  64 */\n      0x40\n        /* \"@openzeppelin/contracts/utils/math/Math.sol\":12414:12426  result += 64 */\n      dup2\n      add\n      swap1\n      pop\n        /* \"@openzeppelin/contracts/utils/math/Math.sol\":12338:12441  if (value >= 10 ** 64) {... */\n    tag_129:\n        /* \"@openzeppelin/contracts/utils/math/Math.sol\":12467:12475  10 ** 32 */\n      0x04ee2d6d415b85acef8100000000\n        /* \"@openzeppelin/contracts/utils/math/Math.sol\":12458:12463  value */\n      dup4\n        /* \"@openzeppelin/contracts/utils/math/Math.sol\":12458:12475  value >= 10 ** 32 */\n      lt\n        /* \"@openzeppelin/contracts/utils/math/Math.sol\":12454:12557  if (value >= 10 ** 32) {... */\n      tag_132\n      jumpi\n        /* \"@openzeppelin/contracts/utils/math/Math.sol\":12504:12512  10 ** 32 */\n      0x04ee2d6d415b85acef8100000000\n        /* \"@openzeppelin/contracts/utils/math/Math.sol\":12495:12512  value /= 10 ** 32 */\n      dup4\n      dup2\n      tag_133\n      jumpi\n      tag_134\n      tag_118\n      jump\t// in\n    tag_134:\n    tag_133:\n      div\n      swap3\n      pop\n        /* \"@openzeppelin/contracts/utils/math/Math.sol\":12540:12542  32 */\n      0x20\n        /* \"@openzeppelin/contracts/utils/math/Math.sol\":12530:12542  result += 32 */\n      dup2\n      add\n      swap1\n      pop\n        /* \"@openzeppelin/contracts/utils/math/Math.sol\":12454:12557  if (value >= 10 ** 32) {... */\n    tag_132:\n        /* \"@openzeppelin/contracts/utils/math/Math.sol\":12583:12591  10 ** 16 */\n      0x2386f26fc10000\n        /* \"@openzeppelin/contracts/utils/math/Math.sol\":12574:12579  value */\n      dup4\n        /* \"@openzeppelin/contracts/utils/math/Math.sol\":12574:12591  value >= 10 ** 16 */\n      lt\n        /* \"@openzeppelin/contracts/utils/math/Math.sol\":12570:12673  if (value >= 10 ** 16) {... */\n      tag_135\n      jumpi\n        /* \"@openzeppelin/contracts/utils/math/Math.sol\":12620:12628  10 ** 16 */\n      0x2386f26fc10000\n        /* \"@openzeppelin/contracts/utils/math/Math.sol\":12611:12628  value /= 10 ** 16 */\n      dup4\n      dup2\n      tag_136\n      jumpi\n      tag_137\n      tag_118\n      jump\t// in\n    tag_137:\n    tag_136:\n      div\n      swap3\n      pop\n        /* \"@openzeppelin/contracts/utils/math/Math.sol\":12656:12658  16 */\n      0x10\n        /* \"@openzeppelin/contracts/utils/math/Math.sol\":12646:12658  result += 16 */\n      dup2\n      add\n      swap1\n      pop\n        /* \"@openzeppelin/contracts/utils/math/Math.sol\":12570:12673  if (value >= 10 ** 16) {... */\n    tag_135:\n        /* \"@openzeppelin/contracts/utils/math/Math.sol\":12699:12706  10 ** 8 */\n      0x05f5e100\n        /* \"@openzeppelin/contracts/utils/math/Math.sol\":12690:12695  value */\n      dup4\n        /* \"@openzeppelin/contracts/utils/math/Math.sol\":12690:12706  value >= 10 ** 8 */\n      lt\n        /* \"@openzeppelin/contracts/utils/math/Math.sol\":12686:12786  if (value >= 10 ** 8) {... */\n      tag_138\n      jumpi\n        /* \"@openzeppelin/contracts/utils/math/Math.sol\":12735:12742  10 ** 8 */\n      0x05f5e100\n        /* \"@openzeppelin/contracts/utils/math/Math.sol\":12726:12742  value /= 10 ** 8 */\n      dup4\n      dup2\n      tag_139\n      jumpi\n      tag_140\n      tag_118\n      jump\t// in\n    tag_140:\n    tag_139:\n      div\n      swap3\n      pop\n        /* \"@openzeppelin/contracts/utils/math/Math.sol\":12770:12771  8 */\n      0x08\n        /* \"@openzeppelin/contracts/utils/math/Math.sol\":12760:12771  result += 8 */\n      dup2\n      add\n      swap1\n      pop\n        /* \"@openzeppelin/contracts/utils/math/Math.sol\":12686:12786  if (value >= 10 ** 8) {... */\n    tag_138:\n        /* \"@openzeppelin/contracts/utils/math/Math.sol\":12812:12819  10 ** 4 */\n      0x2710\n        /* \"@openzeppelin/contracts/utils/math/Math.sol\":12803:12808  value */\n      dup4\n        /* \"@openzeppelin/contracts/utils/math/Math.sol\":12803:12819  value >= 10 ** 4 */\n      lt\n        /* \"@openzeppelin/contracts/utils/math/Math.sol\":12799:12899  if (value >= 10 ** 4) {... */\n      tag_141\n      jumpi\n        /* \"@openzeppelin/contracts/utils/math/Math.sol\":12848:12855  10 ** 4 */\n      0x2710\n        /* \"@openzeppelin/contracts/utils/math/Math.sol\":12839:12855  value /= 10 ** 4 */\n      dup4\n      dup2\n      tag_142\n      jumpi\n      tag_143\n      tag_118\n      jump\t// in\n    tag_143:\n    tag_142:\n      div\n      swap3\n      pop\n        /* \"@openzeppelin/contracts/utils/math/Math.sol\":12883:12884  4 */\n      0x04\n        /* \"@openzeppelin/contracts/utils/math/Math.sol\":12873:12884  result += 4 */\n      dup2\n      add\n      swap1\n      pop\n        /* \"@openzeppelin/contracts/utils/math/Math.sol\":12799:12899  if (value >= 10 ** 4) {... */\n    tag_141:\n        /* \"@openzeppelin/contracts/utils/math/Math.sol\":12925:12932  10 ** 2 */\n      0x64\n        /* \"@openzeppelin/contracts/utils/math/Math.sol\":12916:12921  value */\n      dup4\n        /* \"@openzeppelin/contracts/utils/math/Math.sol\":12916:12932  value >= 10 ** 2 */\n      lt\n        /* \"@openzeppelin/contracts/utils/math/Math.sol\":12912:13012  if (value >= 10 ** 2) {... */\n      tag_144\n      jumpi\n        /* \"@openzeppelin/contracts/utils/math/Math.sol\":12961:12968  10 ** 2 */\n      0x64\n        /* \"@openzeppelin/contracts/utils/math/Math.sol\":12952:12968  value /= 10 ** 2 */\n      dup4\n      dup2\n      tag_145\n      jumpi\n      tag_146\n      tag_118\n      jump\t// in\n    tag_146:\n    tag_145:\n      div\n      swap3\n      pop\n        /* \"@openzeppelin/contracts/utils/math/Math.sol\":12996:12997  2 */\n      0x02\n        /* \"@openzeppelin/contracts/utils/math/Math.sol\":12986:12997  result += 2 */\n      dup2\n      add\n      swap1\n      pop\n        /* \"@openzeppelin/contracts/utils/math/Math.sol\":12912:13012  if (value >= 10 ** 2) {... */\n    tag_144:\n        /* \"@openzeppelin/contracts/utils/math/Math.sol\":13038:13045  10 ** 1 */\n      0x0a\n        /* \"@openzeppelin/contracts/utils/math/Math.sol\":13029:13034  value */\n      dup4\n        /* \"@openzeppelin/contracts/utils/math/Math.sol\":13029:13045  value >= 10 ** 1 */\n      lt\n        /* \"@openzeppelin/contracts/utils/math/Math.sol\":13025:13091  if (value >= 10 ** 1) {... */\n      tag_147\n      jumpi\n        /* \"@openzeppelin/contracts/utils/math/Math.sol\":13075:13076  1 */\n      0x01\n        /* \"@openzeppelin/contracts/utils/math/Math.sol\":13065:13076  result += 1 */\n      dup2\n      add\n      swap1\n      pop\n        /* \"@openzeppelin/contracts/utils/math/Math.sol\":13025:13091  if (value >= 10 ** 1) {... */\n    tag_147:\n        /* \"@openzeppelin/contracts/utils/math/Math.sol\":13117:13123  result */\n      dup1\n        /* \"@openzeppelin/contracts/utils/math/Math.sol\":13110:13123  return result */\n      swap2\n      pop\n      pop\n        /* \"@openzeppelin/contracts/utils/math/Math.sol\":12214:13130  function log10(uint256 value) internal pure returns (uint256) {... */\n      swap2\n      swap1\n      pop\n      jump\t// out\n        /* \"#utility.yul\":7:157   */\n    tag_148:\n        /* \"#utility.yul\":44:51   */\n      0x00\n        /* \"#utility.yul\":84:150   */\n      0xffffffffffffffffffffffffffffffffffffffff000000000000000000000000\n        /* \"#utility.yul\":77:82   */\n      dup3\n        /* \"#utility.yul\":73:151   */\n      and\n        /* \"#utility.yul\":62:151   */\n      swap1\n      pop\n        /* \"#utility.yul\":7:157   */\n      swap2\n      swap1\n      pop\n      jump\t// out\n        /* \"#utility.yul\":163:281   */\n    tag_149:\n        /* \"#utility.yul\":250:274   */\n      tag_184\n        /* \"#utility.yul\":268:273   */\n      dup2\n        /* \"#utility.yul\":250:274   */\n      tag_148\n      jump\t// in\n    tag_184:\n        /* \"#utility.yul\":245:248   */\n      dup3\n        /* \"#utility.yul\":238:275   */\n      mstore\n        /* \"#utility.yul\":163:281   */\n      pop\n      pop\n      jump\t// out\n        /* \"#utility.yul\":287:509   */\n    tag_16:\n        /* \"#utility.yul\":380:384   */\n      0x00\n        /* \"#utility.yul\":418:420   */\n      0x20\n        /* \"#utility.yul\":407:416   */\n      dup3\n        /* \"#utility.yul\":403:421   */\n      add\n        /* \"#utility.yul\":395:421   */\n      swap1\n      pop\n        /* \"#utility.yul\":431:502   */\n      tag_186\n        /* \"#utility.yul\":499:500   */\n      0x00\n        /* \"#utility.yul\":488:497   */\n      dup4\n        /* \"#utility.yul\":484:501   */\n      add\n        /* \"#utility.yul\":475:481   */\n      dup5\n        /* \"#utility.yul\":431:502   */\n      tag_149\n      jump\t// in\n    tag_186:\n        /* \"#utility.yul\":287:509   */\n      swap3\n      swap2\n      pop\n      pop\n      jump\t// out\n        /* \"#utility.yul\":596:713   */\n    tag_151:\n        /* \"#utility.yul\":705:706   */\n      0x00\n        /* \"#utility.yul\":702:703   */\n      dup1\n        /* \"#utility.yul\":695:707   */\n      revert\n        /* \"#utility.yul\":842:968   */\n    tag_153:\n        /* \"#utility.yul\":879:886   */\n      0x00\n        /* \"#utility.yul\":919:961   */\n      0xffffffffffffffffffffffffffffffffffffffff\n        /* \"#utility.yul\":912:917   */\n      dup3\n        /* \"#utility.yul\":908:962   */\n      and\n        /* \"#utility.yul\":897:962   */\n      swap1\n      pop\n        /* \"#utility.yul\":842:968   */\n      swap2\n      swap1\n      pop\n      jump\t// out\n        /* \"#utility.yul\":974:1070   */\n    tag_154:\n        /* \"#utility.yul\":1011:1018   */\n      0x00\n        /* \"#utility.yul\":1040:1064   */\n      tag_192\n        /* \"#utility.yul\":1058:1063   */\n      dup3\n        /* \"#utility.yul\":1040:1064   */\n      tag_153\n      jump\t// in\n    tag_192:\n        /* \"#utility.yul\":1029:1064   */\n      swap1\n      pop\n        /* \"#utility.yul\":974:1070   */\n      swap2\n      swap1\n      pop\n      jump\t// out\n        /* \"#utility.yul\":1076:1198   */\n    tag_155:\n        /* \"#utility.yul\":1149:1173   */\n      tag_194\n        /* \"#utility.yul\":1167:1172   */\n      dup2\n        /* \"#utility.yul\":1149:1173   */\n      tag_154\n      jump\t// in\n    tag_194:\n        /* \"#utility.yul\":1142:1147   */\n      dup2\n        /* \"#utility.yul\":1139:1174   */\n      eq\n        /* \"#utility.yul\":1129:1192   */\n      tag_195\n      jumpi\n        /* \"#utility.yul\":1188:1189   */\n      0x00\n        /* \"#utility.yul\":1185:1186   */\n      dup1\n        /* \"#utility.yul\":1178:1190   */\n      revert\n        /* \"#utility.yul\":1129:1192   */\n    tag_195:\n        /* \"#utility.yul\":1076:1198   */\n      pop\n      jump\t// out\n        /* \"#utility.yul\":1204:1343   */\n    tag_156:\n        /* \"#utility.yul\":1250:1255   */\n      0x00\n        /* \"#utility.yul\":1288:1294   */\n      dup2\n        /* \"#utility.yul\":1275:1295   */\n      calldataload\n        /* \"#utility.yul\":1266:1295   */\n      swap1\n      pop\n        /* \"#utility.yul\":1304:1337   */\n      tag_197\n        /* \"#utility.yul\":1331:1336   */\n      dup2\n        /* \"#utility.yul\":1304:1337   */\n      tag_155\n      jump\t// in\n    tag_197:\n        /* \"#utility.yul\":1204:1343   */\n      swap3\n      swap2\n      pop\n      pop\n      jump\t// out\n        /* \"#utility.yul\":1349:1678   */\n    tag_19:\n        /* \"#utility.yul\":1408:1414   */\n      0x00\n        /* \"#utility.yul\":1457:1459   */\n      0x20\n        /* \"#utility.yul\":1445:1454   */\n      dup3\n        /* \"#utility.yul\":1436:1443   */\n      dup5\n        /* \"#utility.yul\":1432:1455   */\n      sub\n        /* \"#utility.yul\":1428:1460   */\n      slt\n        /* \"#utility.yul\":1425:1544   */\n      iszero\n      tag_199\n      jumpi\n        /* \"#utility.yul\":1463:1542   */\n      tag_200\n      tag_151\n      jump\t// in\n    tag_200:\n        /* \"#utility.yul\":1425:1544   */\n    tag_199:\n        /* \"#utility.yul\":1583:1584   */\n      0x00\n        /* \"#utility.yul\":1608:1661   */\n      tag_201\n        /* \"#utility.yul\":1653:1660   */\n      dup5\n        /* \"#utility.yul\":1644:1650   */\n      dup3\n        /* \"#utility.yul\":1633:1642   */\n      dup6\n        /* \"#utility.yul\":1629:1651   */\n      add\n        /* \"#utility.yul\":1608:1661   */\n      tag_156\n      jump\t// in\n    tag_201:\n        /* \"#utility.yul\":1598:1661   */\n      swap2\n      pop\n        /* \"#utility.yul\":1554:1671   */\n      pop\n        /* \"#utility.yul\":1349:1678   */\n      swap3\n      swap2\n      pop\n      pop\n      jump\t// out\n        /* \"#utility.yul\":1684:1773   */\n    tag_157:\n        /* \"#utility.yul\":1720:1727   */\n      0x00\n        /* \"#utility.yul\":1760:1766   */\n      0xffff\n        /* \"#utility.yul\":1753:1758   */\n      dup3\n        /* \"#utility.yul\":1749:1767   */\n      and\n        /* \"#utility.yul\":1738:1767   */\n      swap1\n      pop\n        /* \"#utility.yul\":1684:1773   */\n      swap2\n      swap1\n      pop\n      jump\t// out\n        /* \"#utility.yul\":1779:1894   */\n    tag_158:\n        /* \"#utility.yul\":1864:1887   */\n      tag_204\n        /* \"#utility.yul\":1881:1886   */\n      dup2\n        /* \"#utility.yul\":1864:1887   */\n      tag_157\n      jump\t// in\n    tag_204:\n        /* \"#utility.yul\":1859:1862   */\n      dup3\n        /* \"#utility.yul\":1852:1888   */\n      mstore\n        /* \"#utility.yul\":1779:1894   */\n      pop\n      pop\n      jump\t// out\n        /* \"#utility.yul\":1900:2118   */\n    tag_22:\n        /* \"#utility.yul\":1991:1995   */\n      0x00\n        /* \"#utility.yul\":2029:2031   */\n      0x20\n        /* \"#utility.yul\":2018:2027   */\n      dup3\n        /* \"#utility.yul\":2014:2032   */\n      add\n        /* \"#utility.yul\":2006:2032   */\n      swap1\n      pop\n        /* \"#utility.yul\":2042:2111   */\n      tag_206\n        /* \"#utility.yul\":2108:2109   */\n      0x00\n        /* \"#utility.yul\":2097:2106   */\n      dup4\n        /* \"#utility.yul\":2093:2110   */\n      add\n        /* \"#utility.yul\":2084:2090   */\n      dup5\n        /* \"#utility.yul\":2042:2111   */\n      tag_158\n      jump\t// in\n    tag_206:\n        /* \"#utility.yul\":1900:2118   */\n      swap3\n      swap2\n      pop\n      pop\n      jump\t// out\n        /* \"#utility.yul\":2124:2244   */\n    tag_159:\n        /* \"#utility.yul\":2196:2219   */\n      tag_208\n        /* \"#utility.yul\":2213:2218   */\n      dup2\n        /* \"#utility.yul\":2196:2219   */\n      tag_157\n      jump\t// in\n    tag_208:\n        /* \"#utility.yul\":2189:2194   */\n      dup2\n        /* \"#utility.yul\":2186:2220   */\n      eq\n        /* \"#utility.yul\":2176:2238   */\n      tag_209\n      jumpi\n        /* \"#utility.yul\":2234:2235   */\n      0x00\n        /* \"#utility.yul\":2231:2232   */\n      dup1\n        /* \"#utility.yul\":2224:2236   */\n      revert\n        /* \"#utility.yul\":2176:2238   */\n    tag_209:\n        /* \"#utility.yul\":2124:2244   */\n      pop\n      jump\t// out\n        /* \"#utility.yul\":2250:2387   */\n    tag_160:\n        /* \"#utility.yul\":2295:2300   */\n      0x00\n        /* \"#utility.yul\":2333:2339   */\n      dup2\n        /* \"#utility.yul\":2320:2340   */\n      calldataload\n        /* \"#utility.yul\":2311:2340   */\n      swap1\n      pop\n        /* \"#utility.yul\":2349:2381   */\n      tag_211\n        /* \"#utility.yul\":2375:2380   */\n      dup2\n        /* \"#utility.yul\":2349:2381   */\n      tag_159\n      jump\t// in\n    tag_211:\n        /* \"#utility.yul\":2250:2387   */\n      swap3\n      swap2\n      pop\n      pop\n      jump\t// out\n        /* \"#utility.yul\":2393:2720   */\n    tag_25:\n        /* \"#utility.yul\":2451:2457   */\n      0x00\n        /* \"#utility.yul\":2500:2502   */\n      0x20\n        /* \"#utility.yul\":2488:2497   */\n      dup3\n        /* \"#utility.yul\":2479:2486   */\n      dup5\n        /* \"#utility.yul\":2475:2498   */\n      sub\n        /* \"#utility.yul\":2471:2503   */\n      slt\n        /* \"#utility.yul\":2468:2587   */\n      iszero\n      tag_213\n      jumpi\n        /* \"#utility.yul\":2506:2585   */\n      tag_214\n      tag_151\n      jump\t// in\n    tag_214:\n        /* \"#utility.yul\":2468:2587   */\n    tag_213:\n        /* \"#utility.yul\":2626:2627   */\n      0x00\n        /* \"#utility.yul\":2651:2703   */\n      tag_215\n        /* \"#utility.yul\":2695:2702   */\n      dup5\n        /* \"#utility.yul\":2686:2692   */\n      dup3\n        /* \"#utility.yul\":2675:2684   */\n      dup6\n        /* \"#utility.yul\":2671:2693   */\n      add\n        /* \"#utility.yul\":2651:2703   */\n      tag_160\n      jump\t// in\n    tag_215:\n        /* \"#utility.yul\":2641:2703   */\n      swap2\n      pop\n        /* \"#utility.yul\":2597:2713   */\n      pop\n        /* \"#utility.yul\":2393:2720   */\n      swap3\n      swap2\n      pop\n      pop\n      jump\t// out\n        /* \"#utility.yul\":2726:2844   */\n    tag_161:\n        /* \"#utility.yul\":2813:2837   */\n      tag_217\n        /* \"#utility.yul\":2831:2836   */\n      dup2\n        /* \"#utility.yul\":2813:2837   */\n      tag_154\n      jump\t// in\n    tag_217:\n        /* \"#utility.yul\":2808:2811   */\n      dup3\n        /* \"#utility.yul\":2801:2838   */\n      mstore\n        /* \"#utility.yul\":2726:2844   */\n      pop\n      pop\n      jump\t// out\n        /* \"#utility.yul\":2850:3072   */\n    tag_28:\n        /* \"#utility.yul\":2943:2947   */\n      0x00\n        /* \"#utility.yul\":2981:2983   */\n      0x20\n        /* \"#utility.yul\":2970:2979   */\n      dup3\n        /* \"#utility.yul\":2966:2984   */\n      add\n        /* \"#utility.yul\":2958:2984   */\n      swap1\n      pop\n        /* \"#utility.yul\":2994:3065   */\n      tag_219\n        /* \"#utility.yul\":3062:3063   */\n      0x00\n        /* \"#utility.yul\":3051:3060   */\n      dup4\n        /* \"#utility.yul\":3047:3064   */\n      add\n        /* \"#utility.yul\":3038:3044   */\n      dup5\n        /* \"#utility.yul\":2994:3065   */\n      tag_161\n      jump\t// in\n    tag_219:\n        /* \"#utility.yul\":2850:3072   */\n      swap3\n      swap2\n      pop\n      pop\n      jump\t// out\n        /* \"#utility.yul\":3078:3228   */\n    tag_162:\n        /* \"#utility.yul\":3115:3122   */\n      0x00\n        /* \"#utility.yul\":3155:3221   */\n      0xffffffffffffffffffff00000000000000000000000000000000000000000000\n        /* \"#utility.yul\":3148:3153   */\n      dup3\n        /* \"#utility.yul\":3144:3222   */\n      and\n        /* \"#utility.yul\":3133:3222   */\n      swap1\n      pop\n        /* \"#utility.yul\":3078:3228   */\n      swap2\n      swap1\n      pop\n      jump\t// out\n        /* \"#utility.yul\":3234:3352   */\n    tag_163:\n        /* \"#utility.yul\":3321:3345   */\n      tag_222\n        /* \"#utility.yul\":3339:3344   */\n      dup2\n        /* \"#utility.yul\":3321:3345   */\n      tag_162\n      jump\t// in\n    tag_222:\n        /* \"#utility.yul\":3316:3319   */\n      dup3\n        /* \"#utility.yul\":3309:3346   */\n      mstore\n        /* \"#utility.yul\":3234:3352   */\n      pop\n      pop\n      jump\t// out\n        /* \"#utility.yul\":3358:3580   */\n    tag_36:\n        /* \"#utility.yul\":3451:3455   */\n      0x00\n        /* \"#utility.yul\":3489:3491   */\n      0x20\n        /* \"#utility.yul\":3478:3487   */\n      dup3\n        /* \"#utility.yul\":3474:3492   */\n      add\n        /* \"#utility.yul\":3466:3492   */\n      swap1\n      pop\n        /* \"#utility.yul\":3502:3573   */\n      tag_224\n        /* \"#utility.yul\":3570:3571   */\n      0x00\n        /* \"#utility.yul\":3559:3568   */\n      dup4\n        /* \"#utility.yul\":3555:3572   */\n      add\n        /* \"#utility.yul\":3546:3552   */\n      dup5\n        /* \"#utility.yul\":3502:3573   */\n      tag_163\n      jump\t// in\n    tag_224:\n        /* \"#utility.yul\":3358:3580   */\n      swap3\n      swap2\n      pop\n      pop\n      jump\t// out\n        /* \"#utility.yul\":3586:3676   */\n    tag_164:\n        /* \"#utility.yul\":3620:3627   */\n      0x00\n        /* \"#utility.yul\":3663:3668   */\n      dup2\n        /* \"#utility.yul\":3656:3669   */\n      iszero\n        /* \"#utility.yul\":3649:3670   */\n      iszero\n        /* \"#utility.yul\":3638:3670   */\n      swap1\n      pop\n        /* \"#utility.yul\":3586:3676   */\n      swap2\n      swap1\n      pop\n      jump\t// out\n        /* \"#utility.yul\":3682:3798   */\n    tag_165:\n        /* \"#utility.yul\":3752:3773   */\n      tag_227\n        /* \"#utility.yul\":3767:3772   */\n      dup2\n        /* \"#utility.yul\":3752:3773   */\n      tag_164\n      jump\t// in\n    tag_227:\n        /* \"#utility.yul\":3745:3750   */\n      dup2\n        /* \"#utility.yul\":3742:3774   */\n      eq\n        /* \"#utility.yul\":3732:3792   */\n      tag_228\n      jumpi\n        /* \"#utility.yul\":3788:3789   */\n      0x00\n        /* \"#utility.yul\":3785:3786   */\n      dup1\n        /* \"#utility.yul\":3778:3790   */\n      revert\n        /* \"#utility.yul\":3732:3792   */\n    tag_228:\n        /* \"#utility.yul\":3682:3798   */\n      pop\n      jump\t// out\n        /* \"#utility.yul\":3804:3937   */\n    tag_166:\n        /* \"#utility.yul\":3847:3852   */\n      0x00\n        /* \"#utility.yul\":3885:3891   */\n      dup2\n        /* \"#utility.yul\":3872:3892   */\n      calldataload\n        /* \"#utility.yul\":3863:3892   */\n      swap1\n      pop\n        /* \"#utility.yul\":3901:3931   */\n      tag_230\n        /* \"#utility.yul\":3925:3930   */\n      dup2\n        /* \"#utility.yul\":3901:3931   */\n      tag_165\n      jump\t// in\n    tag_230:\n        /* \"#utility.yul\":3804:3937   */\n      swap3\n      swap2\n      pop\n      pop\n      jump\t// out\n        /* \"#utility.yul\":3943:4411   */\n    tag_39:\n        /* \"#utility.yul\":4008:4014   */\n      0x00\n        /* \"#utility.yul\":4016:4022   */\n      dup1\n        /* \"#utility.yul\":4065:4067   */\n      0x40\n        /* \"#utility.yul\":4053:4062   */\n      dup4\n        /* \"#utility.yul\":4044:4051   */\n      dup6\n        /* \"#utility.yul\":4040:4063   */\n      sub\n        /* \"#utility.yul\":4036:4068   */\n      slt\n        /* \"#utility.yul\":4033:4152   */\n      iszero\n      tag_232\n      jumpi\n        /* \"#utility.yul\":4071:4150   */\n      tag_233\n      tag_151\n      jump\t// in\n    tag_233:\n        /* \"#utility.yul\":4033:4152   */\n    tag_232:\n        /* \"#utility.yul\":4191:4192   */\n      0x00\n        /* \"#utility.yul\":4216:4269   */\n      tag_234\n        /* \"#utility.yul\":4261:4268   */\n      dup6\n        /* \"#utility.yul\":4252:4258   */\n      dup3\n        /* \"#utility.yul\":4241:4250   */\n      dup7\n        /* \"#utility.yul\":4237:4259   */\n      add\n        /* \"#utility.yul\":4216:4269   */\n      tag_156\n      jump\t// in\n    tag_234:\n        /* \"#utility.yul\":4206:4269   */\n      swap3\n      pop\n        /* \"#utility.yul\":4162:4279   */\n      pop\n        /* \"#utility.yul\":4318:4320   */\n      0x20\n        /* \"#utility.yul\":4344:4394   */\n      tag_235\n        /* \"#utility.yul\":4386:4393   */\n      dup6\n        /* \"#utility.yul\":4377:4383   */\n      dup3\n        /* \"#utility.yul\":4366:4375   */\n      dup7\n        /* \"#utility.yul\":4362:4384   */\n      add\n        /* \"#utility.yul\":4344:4394   */\n      tag_166\n      jump\t// in\n    tag_235:\n        /* \"#utility.yul\":4334:4394   */\n      swap2\n      pop\n        /* \"#utility.yul\":4289:4404   */\n      pop\n        /* \"#utility.yul\":3943:4411   */\n      swap3\n      pop\n      swap3\n      swap1\n      pop\n      jump\t// out\n        /* \"#utility.yul\":4417:4516   */\n    tag_167:\n        /* \"#utility.yul\":4469:4475   */\n      0x00\n        /* \"#utility.yul\":4503:4508   */\n      dup2\n        /* \"#utility.yul\":4497:4509   */\n      mload\n        /* \"#utility.yul\":4487:4509   */\n      swap1\n      pop\n        /* \"#utility.yul\":4417:4516   */\n      swap2\n      swap1\n      pop\n      jump\t// out\n        /* \"#utility.yul\":4522:4691   */\n    tag_168:\n        /* \"#utility.yul\":4606:4617   */\n      0x00\n        /* \"#utility.yul\":4640:4646   */\n      dup3\n        /* \"#utility.yul\":4635:4638   */\n      dup3\n        /* \"#utility.yul\":4628:4647   */\n      mstore\n        /* \"#utility.yul\":4680:4684   */\n      0x20\n        /* \"#utility.yul\":4675:4678   */\n      dup3\n        /* \"#utility.yul\":4671:4685   */\n      add\n        /* \"#utility.yul\":4656:4685   */\n      swap1\n      pop\n        /* \"#utility.yul\":4522:4691   */\n      swap3\n      swap2\n      pop\n      pop\n      jump\t// out\n        /* \"#utility.yul\":4697:4943   */\n    tag_169:\n        /* \"#utility.yul\":4778:4779   */\n      0x00\n        /* \"#utility.yul\":4788:4901   */\n    tag_239:\n        /* \"#utility.yul\":4802:4808   */\n      dup4\n        /* \"#utility.yul\":4799:4800   */\n      dup2\n        /* \"#utility.yul\":4796:4809   */\n      lt\n        /* \"#utility.yul\":4788:4901   */\n      iszero\n      tag_241\n      jumpi\n        /* \"#utility.yul\":4887:4888   */\n      dup1\n        /* \"#utility.yul\":4882:4885   */\n      dup3\n        /* \"#utility.yul\":4878:4889   */\n      add\n        /* \"#utility.yul\":4872:4890   */\n      mload\n        /* \"#utility.yul\":4868:4869   */\n      dup2\n        /* \"#utility.yul\":4863:4866   */\n      dup5\n        /* \"#utility.yul\":4859:4870   */\n      add\n        /* \"#utility.yul\":4852:4891   */\n      mstore\n        /* \"#utility.yul\":4824:4826   */\n      0x20\n        /* \"#utility.yul\":4821:4822   */\n      dup2\n        /* \"#utility.yul\":4817:4827   */\n      add\n        /* \"#utility.yul\":4812:4827   */\n      swap1\n      pop\n        /* \"#utility.yul\":4788:4901   */\n      jump(tag_239)\n    tag_241:\n        /* \"#utility.yul\":4935:4936   */\n      0x00\n        /* \"#utility.yul\":4926:4932   */\n      dup5\n        /* \"#utility.yul\":4921:4924   */\n      dup5\n        /* \"#utility.yul\":4917:4933   */\n      add\n        /* \"#utility.yul\":4910:4937   */\n      mstore\n        /* \"#utility.yul\":4759:4943   */\n      pop\n        /* \"#utility.yul\":4697:4943   */\n      pop\n      pop\n      pop\n      jump\t// out\n        /* \"#utility.yul\":4949:5051   */\n    tag_170:\n        /* \"#utility.yul\":4990:4996   */\n      0x00\n        /* \"#utility.yul\":5041:5043   */\n      0x1f\n        /* \"#utility.yul\":5037:5044   */\n      not\n        /* \"#utility.yul\":5032:5034   */\n      0x1f\n        /* \"#utility.yul\":5025:5030   */\n      dup4\n        /* \"#utility.yul\":5021:5035   */\n      add\n        /* \"#utility.yul\":5017:5045   */\n      and\n        /* \"#utility.yul\":5007:5045   */\n      swap1\n      pop\n        /* \"#utility.yul\":4949:5051   */\n      swap2\n      swap1\n      pop\n      jump\t// out\n        /* \"#utility.yul\":5057:5434   */\n    tag_171:\n        /* \"#utility.yul\":5145:5148   */\n      0x00\n        /* \"#utility.yul\":5173:5212   */\n      tag_244\n        /* \"#utility.yul\":5206:5211   */\n      dup3\n        /* \"#utility.yul\":5173:5212   */\n      tag_167\n      jump\t// in\n    tag_244:\n        /* \"#utility.yul\":5228:5299   */\n      tag_245\n        /* \"#utility.yul\":5292:5298   */\n      dup2\n        /* \"#utility.yul\":5287:5290   */\n      dup6\n        /* \"#utility.yul\":5228:5299   */\n      tag_168\n      jump\t// in\n    tag_245:\n        /* \"#utility.yul\":5221:5299   */\n      swap4\n      pop\n        /* \"#utility.yul\":5308:5373   */\n      tag_246\n        /* \"#utility.yul\":5366:5372   */\n      dup2\n        /* \"#utility.yul\":5361:5364   */\n      dup6\n        /* \"#utility.yul\":5354:5358   */\n      0x20\n        /* \"#utility.yul\":5347:5352   */\n      dup7\n        /* \"#utility.yul\":5343:5359   */\n      add\n        /* \"#utility.yul\":5308:5373   */\n      tag_169\n      jump\t// in\n    tag_246:\n        /* \"#utility.yul\":5398:5427   */\n      tag_247\n        /* \"#utility.yul\":5420:5426   */\n      dup2\n        /* \"#utility.yul\":5398:5427   */\n      tag_170\n      jump\t// in\n    tag_247:\n        /* \"#utility.yul\":5393:5396   */\n      dup5\n        /* \"#utility.yul\":5389:5428   */\n      add\n        /* \"#utility.yul\":5382:5428   */\n      swap2\n      pop\n        /* \"#utility.yul\":5149:5434   */\n      pop\n        /* \"#utility.yul\":5057:5434   */\n      swap3\n      swap2\n      pop\n      pop\n      jump\t// out\n        /* \"#utility.yul\":5440:5753   */\n    tag_45:\n        /* \"#utility.yul\":5553:5557   */\n      0x00\n        /* \"#utility.yul\":5591:5593   */\n      0x20\n        /* \"#utility.yul\":5580:5589   */\n      dup3\n        /* \"#utility.yul\":5576:5594   */\n      add\n        /* \"#utility.yul\":5568:5594   */\n      swap1\n      pop\n        /* \"#utility.yul\":5640:5649   */\n      dup2\n        /* \"#utility.yul\":5634:5638   */\n      dup2\n        /* \"#utility.yul\":5630:5650   */\n      sub\n        /* \"#utility.yul\":5626:5627   */\n      0x00\n        /* \"#utility.yul\":5615:5624   */\n      dup4\n        /* \"#utility.yul\":5611:5628   */\n      add\n        /* \"#utility.yul\":5604:5651   */\n      mstore\n        /* \"#utility.yul\":5668:5746   */\n      tag_249\n        /* \"#utility.yul\":5741:5745   */\n      dup2\n        /* \"#utility.yul\":5732:5738   */\n      dup5\n        /* \"#utility.yul\":5668:5746   */\n      tag_171\n      jump\t// in\n    tag_249:\n        /* \"#utility.yul\":5660:5746   */\n      swap1\n      pop\n        /* \"#utility.yul\":5440:5753   */\n      swap3\n      swap2\n      pop\n      pop\n      jump\t// out\n        /* \"#utility.yul\":5759:6231   */\n    tag_48:\n        /* \"#utility.yul\":5826:5832   */\n      0x00\n        /* \"#utility.yul\":5834:5840   */\n      dup1\n        /* \"#utility.yul\":5883:5885   */\n      0x40\n        /* \"#utility.yul\":5871:5880   */\n      dup4\n        /* \"#utility.yul\":5862:5869   */\n      dup6\n        /* \"#utility.yul\":5858:5881   */\n      sub\n        /* \"#utility.yul\":5854:5886   */\n      slt\n        /* \"#utility.yul\":5851:5970   */\n      iszero\n      tag_251\n      jumpi\n        /* \"#utility.yul\":5889:5968   */\n      tag_252\n      tag_151\n      jump\t// in\n    tag_252:\n        /* \"#utility.yul\":5851:5970   */\n    tag_251:\n        /* \"#utility.yul\":6009:6010   */\n      0x00\n        /* \"#utility.yul\":6034:6087   */\n      tag_253\n        /* \"#utility.yul\":6079:6086   */\n      dup6\n        /* \"#utility.yul\":6070:6076   */\n      dup3\n        /* \"#utility.yul\":6059:6068   */\n      dup7\n        /* \"#utility.yul\":6055:6077   */\n      add\n        /* \"#utility.yul\":6034:6087   */\n      tag_156\n      jump\t// in\n    tag_253:\n        /* \"#utility.yul\":6024:6087   */\n      swap3\n      pop\n        /* \"#utility.yul\":5980:6097   */\n      pop\n        /* \"#utility.yul\":6136:6138   */\n      0x20\n        /* \"#utility.yul\":6162:6214   */\n      tag_254\n        /* \"#utility.yul\":6206:6213   */\n      dup6\n        /* \"#utility.yul\":6197:6203   */\n      dup3\n        /* \"#utility.yul\":6186:6195   */\n      dup7\n        /* \"#utility.yul\":6182:6204   */\n      add\n        /* \"#utility.yul\":6162:6214   */\n      tag_160\n      jump\t// in\n    tag_254:\n        /* \"#utility.yul\":6152:6214   */\n      swap2\n      pop\n        /* \"#utility.yul\":6107:6224   */\n      pop\n        /* \"#utility.yul\":5759:6231   */\n      swap3\n      pop\n      swap3\n      swap1\n      pop\n      jump\t// out\n        /* \"#utility.yul\":6237:6711   */\n    tag_52:\n        /* \"#utility.yul\":6305:6311   */\n      0x00\n        /* \"#utility.yul\":6313:6319   */\n      dup1\n        /* \"#utility.yul\":6362:6364   */\n      0x40\n        /* \"#utility.yul\":6350:6359   */\n      dup4\n        /* \"#utility.yul\":6341:6348   */\n      dup6\n        /* \"#utility.yul\":6337:6360   */\n      sub\n        /* \"#utility.yul\":6333:6365   */\n      slt\n        /* \"#utility.yul\":6330:6449   */\n      iszero\n      tag_256\n      jumpi\n        /* \"#utility.yul\":6368:6447   */\n      tag_257\n      tag_151\n      jump\t// in\n    tag_257:\n        /* \"#utility.yul\":6330:6449   */\n    tag_256:\n        /* \"#utility.yul\":6488:6489   */\n      0x00\n        /* \"#utility.yul\":6513:6566   */\n      tag_258\n        /* \"#utility.yul\":6558:6565   */\n      dup6\n        /* \"#utility.yul\":6549:6555   */\n      dup3\n        /* \"#utility.yul\":6538:6547   */\n      dup7\n        /* \"#utility.yul\":6534:6556   */\n      add\n        /* \"#utility.yul\":6513:6566   */\n      tag_156\n      jump\t// in\n    tag_258:\n        /* \"#utility.yul\":6503:6566   */\n      swap3\n      pop\n        /* \"#utility.yul\":6459:6576   */\n      pop\n        /* \"#utility.yul\":6615:6617   */\n      0x20\n        /* \"#utility.yul\":6641:6694   */\n      tag_259\n        /* \"#utility.yul\":6686:6693   */\n      dup6\n        /* \"#utility.yul\":6677:6683   */\n      dup3\n        /* \"#utility.yul\":6666:6675   */\n      dup7\n        /* \"#utility.yul\":6662:6684   */\n      add\n        /* \"#utility.yul\":6641:6694   */\n      tag_156\n      jump\t// in\n    tag_259:\n        /* \"#utility.yul\":6631:6694   */\n      swap2\n      pop\n        /* \"#utility.yul\":6586:6704   */\n      pop\n        /* \"#utility.yul\":6237:6711   */\n      swap3\n      pop\n      swap3\n      swap1\n      pop\n      jump\t// out\n        /* \"#utility.yul\":6717:6826   */\n    tag_172:\n        /* \"#utility.yul\":6798:6819   */\n      tag_261\n        /* \"#utility.yul\":6813:6818   */\n      dup2\n        /* \"#utility.yul\":6798:6819   */\n      tag_164\n      jump\t// in\n    tag_261:\n        /* \"#utility.yul\":6793:6796   */\n      dup3\n        /* \"#utility.yul\":6786:6820   */\n      mstore\n        /* \"#utility.yul\":6717:6826   */\n      pop\n      pop\n      jump\t// out\n        /* \"#utility.yul\":6832:7042   */\n    tag_55:\n        /* \"#utility.yul\":6919:6923   */\n      0x00\n        /* \"#utility.yul\":6957:6959   */\n      0x20\n        /* \"#utility.yul\":6946:6955   */\n      dup3\n        /* \"#utility.yul\":6942:6960   */\n      add\n        /* \"#utility.yul\":6934:6960   */\n      swap1\n      pop\n        /* \"#utility.yul\":6970:7035   */\n      tag_263\n        /* \"#utility.yul\":7032:7033   */\n      0x00\n        /* \"#utility.yul\":7021:7030   */\n      dup4\n        /* \"#utility.yul\":7017:7034   */\n      add\n        /* \"#utility.yul\":7008:7014   */\n      dup5\n        /* \"#utility.yul\":6970:7035   */\n      tag_172\n      jump\t// in\n    tag_263:\n        /* \"#utility.yul\":6832:7042   */\n      swap3\n      swap2\n      pop\n      pop\n      jump\t// out\n        /* \"#utility.yul\":7048:7230   */\n    tag_173:\n        /* \"#utility.yul\":7188:7222   */\n      0x54686520696e70757420616464726573732063616e6e6f74206265207a65726f\n        /* \"#utility.yul\":7184:7185   */\n      0x00\n        /* \"#utility.yul\":7176:7182   */\n      dup3\n        /* \"#utility.yul\":7172:7186   */\n      add\n        /* \"#utility.yul\":7165:7223   */\n      mstore\n        /* \"#utility.yul\":7048:7230   */\n      pop\n      jump\t// out\n        /* \"#utility.yul\":7236:7602   */\n    tag_174:\n        /* \"#utility.yul\":7378:7381   */\n      0x00\n        /* \"#utility.yul\":7399:7466   */\n      tag_266\n        /* \"#utility.yul\":7463:7465   */\n      0x20\n        /* \"#utility.yul\":7458:7461   */\n      dup4\n        /* \"#utility.yul\":7399:7466   */\n      tag_168\n      jump\t// in\n    tag_266:\n        /* \"#utility.yul\":7392:7466   */\n      swap2\n      pop\n        /* \"#utility.yul\":7475:7568   */\n      tag_267\n        /* \"#utility.yul\":7564:7567   */\n      dup3\n        /* \"#utility.yul\":7475:7568   */\n      tag_173\n      jump\t// in\n    tag_267:\n        /* \"#utility.yul\":7593:7595   */\n      0x20\n        /* \"#utility.yul\":7588:7591   */\n      dup3\n        /* \"#utility.yul\":7584:7596   */\n      add\n        /* \"#utility.yul\":7577:7596   */\n      swap1\n      pop\n        /* \"#utility.yul\":7236:7602   */\n      swap2\n      swap1\n      pop\n      jump\t// out\n        /* \"#utility.yul\":7608:8027   */\n    tag_60:\n        /* \"#utility.yul\":7774:7778   */\n      0x00\n        /* \"#utility.yul\":7812:7814   */\n      0x20\n        /* \"#utility.yul\":7801:7810   */\n      dup3\n        /* \"#utility.yul\":7797:7815   */\n      add\n        /* \"#utility.yul\":7789:7815   */\n      swap1\n      pop\n        /* \"#utility.yul\":7861:7870   */\n      dup2\n        /* \"#utility.yul\":7855:7859   */\n      dup2\n        /* \"#utility.yul\":7851:7871   */\n      sub\n        /* \"#utility.yul\":7847:7848   */\n      0x00\n        /* \"#utility.yul\":7836:7845   */\n      dup4\n        /* \"#utility.yul\":7832:7849   */\n      add\n        /* \"#utility.yul\":7825:7872   */\n      mstore\n        /* \"#utility.yul\":7889:8020   */\n      tag_269\n        /* \"#utility.yul\":8015:8019   */\n      dup2\n        /* \"#utility.yul\":7889:8020   */\n      tag_174\n      jump\t// in\n    tag_269:\n        /* \"#utility.yul\":7881:8020   */\n      swap1\n      pop\n        /* \"#utility.yul\":7608:8027   */\n      swap2\n      swap1\n      pop\n      jump\t// out\n        /* \"#utility.yul\":8033:8213   */\n    tag_63:\n        /* \"#utility.yul\":8081:8158   */\n      0x4e487b7100000000000000000000000000000000000000000000000000000000\n        /* \"#utility.yul\":8078:8079   */\n      0x00\n        /* \"#utility.yul\":8071:8159   */\n      mstore\n        /* \"#utility.yul\":8178:8182   */\n      0x32\n        /* \"#utility.yul\":8175:8176   */\n      0x04\n        /* \"#utility.yul\":8168:8183   */\n      mstore\n        /* \"#utility.yul\":8202:8206   */\n      0x24\n        /* \"#utility.yul\":8199:8200   */\n      0x00\n        /* \"#utility.yul\":8192:8207   */\n      revert\n        /* \"#utility.yul\":8219:8465   */\n    tag_175:\n        /* \"#utility.yul\":8359:8393   */\n      0x5468652061646472657373206f6620746865206f776e657220616e6420746865\n        /* \"#utility.yul\":8355:8356   */\n      0x00\n        /* \"#utility.yul\":8347:8353   */\n      dup3\n        /* \"#utility.yul\":8343:8357   */\n      add\n        /* \"#utility.yul\":8336:8394   */\n      mstore\n        /* \"#utility.yul\":8428:8457   */\n      0x206f70657261746f72206d75737420626520646966666572656e740000000000\n        /* \"#utility.yul\":8423:8425   */\n      0x20\n        /* \"#utility.yul\":8415:8421   */\n      dup3\n        /* \"#utility.yul\":8411:8426   */\n      add\n        /* \"#utility.yul\":8404:8458   */\n      mstore\n        /* \"#utility.yul\":8219:8465   */\n      pop\n      jump\t// out\n        /* \"#utility.yul\":8471:8837   */\n    tag_176:\n        /* \"#utility.yul\":8613:8616   */\n      0x00\n        /* \"#utility.yul\":8634:8701   */\n      tag_273\n        /* \"#utility.yul\":8698:8700   */\n      0x3b\n        /* \"#utility.yul\":8693:8696   */\n      dup4\n        /* \"#utility.yul\":8634:8701   */\n      tag_168\n      jump\t// in\n    tag_273:\n        /* \"#utility.yul\":8627:8701   */\n      swap2\n      pop\n        /* \"#utility.yul\":8710:8803   */\n      tag_274\n        /* \"#utility.yul\":8799:8802   */\n      dup3\n        /* \"#utility.yul\":8710:8803   */\n      tag_175\n      jump\t// in\n    tag_274:\n        /* \"#utility.yul\":8828:8830   */\n      0x40\n        /* \"#utility.yul\":8823:8826   */\n      dup3\n        /* \"#utility.yul\":8819:8831   */\n      add\n        /* \"#utility.yul\":8812:8831   */\n      swap1\n      pop\n        /* \"#utility.yul\":8471:8837   */\n      swap2\n      swap1\n      pop\n      jump\t// out\n        /* \"#utility.yul\":8843:9262   */\n    tag_76:\n        /* \"#utility.yul\":9009:9013   */\n      0x00\n        /* \"#utility.yul\":9047:9049   */\n      0x20\n        /* \"#utility.yul\":9036:9045   */\n      dup3\n        /* \"#utility.yul\":9032:9050   */\n      add\n        /* \"#utility.yul\":9024:9050   */\n      swap1\n      pop\n        /* \"#utility.yul\":9096:9105   */\n      dup2\n        /* \"#utility.yul\":9090:9094   */\n      dup2\n        /* \"#utility.yul\":9086:9106   */\n      sub\n        /* \"#utility.yul\":9082:9083   */\n      0x00\n        /* \"#utility.yul\":9071:9080   */\n      dup4\n        /* \"#utility.yul\":9067:9084   */\n      add\n        /* \"#utility.yul\":9060:9107   */\n      mstore\n        /* \"#utility.yul\":9124:9255   */\n      tag_276\n        /* \"#utility.yul\":9250:9254   */\n      dup2\n        /* \"#utility.yul\":9124:9255   */\n      tag_176\n      jump\t// in\n    tag_276:\n        /* \"#utility.yul\":9116:9255   */\n      swap1\n      pop\n        /* \"#utility.yul\":8843:9262   */\n      swap2\n      swap1\n      pop\n      jump\t// out\n        /* \"#utility.yul\":9268:9416   */\n    tag_177:\n        /* \"#utility.yul\":9370:9381   */\n      0x00\n        /* \"#utility.yul\":9407:9410   */\n      dup2\n        /* \"#utility.yul\":9392:9410   */\n      swap1\n      pop\n        /* \"#utility.yul\":9268:9416   */\n      swap3\n      swap2\n      pop\n      pop\n      jump\t// out\n        /* \"#utility.yul\":9422:9812   */\n    tag_178:\n        /* \"#utility.yul\":9528:9531   */\n      0x00\n        /* \"#utility.yul\":9556:9595   */\n      tag_279\n        /* \"#utility.yul\":9589:9594   */\n      dup3\n        /* \"#utility.yul\":9556:9595   */\n      tag_167\n      jump\t// in\n    tag_279:\n        /* \"#utility.yul\":9611:9700   */\n      tag_280\n        /* \"#utility.yul\":9693:9699   */\n      dup2\n        /* \"#utility.yul\":9688:9691   */\n      dup6\n        /* \"#utility.yul\":9611:9700   */\n      tag_177\n      jump\t// in\n    tag_280:\n        /* \"#utility.yul\":9604:9700   */\n      swap4\n      pop\n        /* \"#utility.yul\":9709:9774   */\n      tag_281\n        /* \"#utility.yul\":9767:9773   */\n      dup2\n        /* \"#utility.yul\":9762:9765   */\n      dup6\n        /* \"#utility.yul\":9755:9759   */\n      0x20\n        /* \"#utility.yul\":9748:9753   */\n      dup7\n        /* \"#utility.yul\":9744:9760   */\n      add\n        /* \"#utility.yul\":9709:9774   */\n      tag_169\n      jump\t// in\n    tag_281:\n        /* \"#utility.yul\":9799:9805   */\n      dup1\n        /* \"#utility.yul\":9794:9797   */\n      dup5\n        /* \"#utility.yul\":9790:9806   */\n      add\n        /* \"#utility.yul\":9783:9806   */\n      swap2\n      pop\n        /* \"#utility.yul\":9532:9812   */\n      pop\n        /* \"#utility.yul\":9422:9812   */\n      swap3\n      swap2\n      pop\n      pop\n      jump\t// out\n        /* \"#utility.yul\":9818:10253   */\n    tag_91:\n        /* \"#utility.yul\":9998:10001   */\n      0x00\n        /* \"#utility.yul\":10020:10115   */\n      tag_283\n        /* \"#utility.yul\":10111:10114   */\n      dup3\n        /* \"#utility.yul\":10102:10108   */\n      dup6\n        /* \"#utility.yul\":10020:10115   */\n      tag_178\n      jump\t// in\n    tag_283:\n        /* \"#utility.yul\":10013:10115   */\n      swap2\n      pop\n        /* \"#utility.yul\":10132:10227   */\n      tag_284\n        /* \"#utility.yul\":10223:10226   */\n      dup3\n        /* \"#utility.yul\":10214:10220   */\n      dup5\n        /* \"#utility.yul\":10132:10227   */\n      tag_178\n      jump\t// in\n    tag_284:\n        /* \"#utility.yul\":10125:10227   */\n      swap2\n      pop\n        /* \"#utility.yul\":10244:10247   */\n      dup2\n        /* \"#utility.yul\":10237:10247   */\n      swap1\n      pop\n        /* \"#utility.yul\":9818:10253   */\n      swap4\n      swap3\n      pop\n      pop\n      pop\n      jump\t// out\n        /* \"#utility.yul\":10259:10562   */\n    tag_179:\n        /* \"#utility.yul\":10399:10433   */\n      0x54686520494420656e746572656420697320696e76616c69642e204974206d75\n        /* \"#utility.yul\":10395:10396   */\n      0x00\n        /* \"#utility.yul\":10387:10393   */\n      dup3\n        /* \"#utility.yul\":10383:10397   */\n      add\n        /* \"#utility.yul\":10376:10434   */\n      mstore\n        /* \"#utility.yul\":10468:10502   */\n      0x737420626520696e207468697320696e74657276616c2030203c206964203c3d\n        /* \"#utility.yul\":10463:10465   */\n      0x20\n        /* \"#utility.yul\":10455:10461   */\n      dup3\n        /* \"#utility.yul\":10451:10466   */\n      add\n        /* \"#utility.yul\":10444:10503   */\n      mstore\n        /* \"#utility.yul\":10537:10554   */\n      0x2063757272656e7420746f6b656e730000000000000000000000000000000000\n        /* \"#utility.yul\":10532:10534   */\n      0x40\n        /* \"#utility.yul\":10524:10530   */\n      dup3\n        /* \"#utility.yul\":10520:10535   */\n      add\n        /* \"#utility.yul\":10513:10555   */\n      mstore\n        /* \"#utility.yul\":10259:10562   */\n      pop\n      jump\t// out\n        /* \"#utility.yul\":10568:10934   */\n    tag_180:\n        /* \"#utility.yul\":10710:10713   */\n      0x00\n        /* \"#utility.yul\":10731:10798   */\n      tag_287\n        /* \"#utility.yul\":10795:10797   */\n      0x4f\n        /* \"#utility.yul\":10790:10793   */\n      dup4\n        /* \"#utility.yul\":10731:10798   */\n      tag_168\n      jump\t// in\n    tag_287:\n        /* \"#utility.yul\":10724:10798   */\n      swap2\n      pop\n        /* \"#utility.yul\":10807:10900   */\n      tag_288\n        /* \"#utility.yul\":10896:10899   */\n      dup3\n        /* \"#utility.yul\":10807:10900   */\n      tag_179\n      jump\t// in\n    tag_288:\n        /* \"#utility.yul\":10925:10927   */\n      0x60\n        /* \"#utility.yul\":10920:10923   */\n      dup3\n        /* \"#utility.yul\":10916:10928   */\n      add\n        /* \"#utility.yul\":10909:10928   */\n      swap1\n      pop\n        /* \"#utility.yul\":10568:10934   */\n      swap2\n      swap1\n      pop\n      jump\t// out\n        /* \"#utility.yul\":10940:11359   */\n    tag_101:\n        /* \"#utility.yul\":11106:11110   */\n      0x00\n        /* \"#utility.yul\":11144:11146   */\n      0x20\n        /* \"#utility.yul\":11133:11142   */\n      dup3\n        /* \"#utility.yul\":11129:11147   */\n      add\n        /* \"#utility.yul\":11121:11147   */\n      swap1\n      pop\n        /* \"#utility.yul\":11193:11202   */\n      dup2\n        /* \"#utility.yul\":11187:11191   */\n      dup2\n        /* \"#utility.yul\":11183:11203   */\n      sub\n        /* \"#utility.yul\":11179:11180   */\n      0x00\n        /* \"#utility.yul\":11168:11177   */\n      dup4\n        /* \"#utility.yul\":11164:11181   */\n      add\n        /* \"#utility.yul\":11157:11204   */\n      mstore\n        /* \"#utility.yul\":11221:11352   */\n      tag_290\n        /* \"#utility.yul\":11347:11351   */\n      dup2\n        /* \"#utility.yul\":11221:11352   */\n      tag_180\n      jump\t// in\n    tag_290:\n        /* \"#utility.yul\":11213:11352   */\n      swap1\n      pop\n        /* \"#utility.yul\":10940:11359   */\n      swap2\n      swap1\n      pop\n      jump\t// out\n        /* \"#utility.yul\":11365:11545   */\n    tag_112:\n        /* \"#utility.yul\":11413:11490   */\n      0x4e487b7100000000000000000000000000000000000000000000000000000000\n        /* \"#utility.yul\":11410:11411   */\n      0x00\n        /* \"#utility.yul\":11403:11491   */\n      mstore\n        /* \"#utility.yul\":11510:11514   */\n      0x41\n        /* \"#utility.yul\":11507:11508   */\n      0x04\n        /* \"#utility.yul\":11500:11515   */\n      mstore\n        /* \"#utility.yul\":11534:11538   */\n      0x24\n        /* \"#utility.yul\":11531:11532   */\n      0x00\n        /* \"#utility.yul\":11524:11539   */\n      revert\n        /* \"#utility.yul\":11551:11731   */\n    tag_118:\n        /* \"#utility.yul\":11599:11676   */\n      0x4e487b7100000000000000000000000000000000000000000000000000000000\n        /* \"#utility.yul\":11596:11597   */\n      0x00\n        /* \"#utility.yul\":11589:11677   */\n      mstore\n        /* \"#utility.yul\":11696:11700   */\n      0x12\n        /* \"#utility.yul\":11693:11694   */\n      0x04\n        /* \"#utility.yul\":11686:11701   */\n      mstore\n        /* \"#utility.yul\":11720:11724   */\n      0x24\n        /* \"#utility.yul\":11717:11718   */\n      0x00\n        /* \"#utility.yul\":11710:11725   */\n      revert\n\n    auxdata: 0xa264697066735822122074227527dc031273894aa7740043449d768f84101047a6454aacb3e2c9c0da8d64736f6c63430008140033\n}\n",
				"bytecode": {
					"linkReferences": {},
					"object": "608060405234801562000010575f80fd5b50604051620012fb380380620012fb833981810160405281019062000036919062000145565b815f806101000a81548173ffffffffffffffffffffffffffffffffffffffff021916908360601c0217905550805f60146101000a81548169ffffffffffffffffffff021916908360b01c021790555050506200018a565b5f80fd5b5f7fffffffffffffffffffffffffffffffffffffffff00000000000000000000000082169050919050565b620000c78162000091565b8114620000d2575f80fd5b50565b5f81519050620000e581620000bc565b92915050565b5f7fffffffffffffffffffff0000000000000000000000000000000000000000000082169050919050565b6200012181620000eb565b81146200012c575f80fd5b50565b5f815190506200013f8162000116565b92915050565b5f80604083850312156200015e576200015d6200008d565b5b5f6200016d85828601620000d5565b925050602062000180858286016200012f565b9150509250929050565b61116380620001985f395ff3fe608060405234801561000f575f80fd5b5060043610610091575f3560e01c806395d89b411161006457806395d89b4114610143578063a22cb46514610161578063dd7d84401461017d578063e560ca43146101ad578063e985e9c5146101c957610091565b806306fdde031461009557806370a08231146100b357806382a7cf1e146100e357806393b871f214610113575b5f80fd5b61009d6101f9565b6040516100aa9190610b37565b60405180910390f35b6100cd60048036038101906100c89190610bae565b61020d565b6040516100da9190610bf5565b60405180910390f35b6100fd60048036038101906100f89190610c38565b6102ee565b60405161010a9190610c72565b60405180910390f35b61012d60048036038101906101289190610c38565b6102ff565b60405161013a9190610c72565b60405180910390f35b61014b61034b565b6040516101589190610cc5565b60405180910390f35b61017b60048036038101906101769190610d13565b610360565b005b61019760048036038101906101929190610c38565b61054c565b6040516101a49190610ddb565b60405180910390f35b6101c760048036038101906101c29190610dfb565b6105b6565b005b6101e360048036038101906101de9190610e39565b6105cc565b6040516101f09190610e86565b60405180910390f35b5f805f9054906101000a900460601b905090565b5f8073ffffffffffffffffffffffffffffffffffffffff168273ffffffffffffffffffffffffffffffffffffffff160361027c576040517f08c379a000000000000000000000000000000000000000000000000000000000815260040161027390610ee9565b60405180910390fd5b6104b35f8373ffffffffffffffffffffffffffffffffffffffff1673ffffffffffffffffffffffffffffffffffffffff1681526020019081526020015f205f6104b181106102cd576102cc610f07565b5b601091828204019190066002029054906101000a900461ffff169050919050565b5f6102f88261065b565b9050919050565b5f6103098261065b565b506104b45f8361ffff1661ffff1681526020019081526020015f205f9054906101000a900473ffffffffffffffffffffffffffffffffffffffff169050919050565b5f8060149054906101000a900460b01b905090565b8173ffffffffffffffffffffffffffffffffffffffff1661037f610709565b73ffffffffffffffffffffffffffffffffffffffff16036103d5576040517f08c379a00000000000000000000000000000000000000000000000000000000081526004016103cc90610fa4565b60405180910390fd5b5f73ffffffffffffffffffffffffffffffffffffffff168273ffffffffffffffffffffffffffffffffffffffff160361044557816040517f5b08ba1800000000000000000000000000000000000000000000000000000000815260040161043c9190610c72565b60405180910390fd5b806104b55f610452610709565b73ffffffffffffffffffffffffffffffffffffffff1673ffffffffffffffffffffffffffffffffffffffff1681526020019081526020015f205f8473ffffffffffffffffffffffffffffffffffffffff1673ffffffffffffffffffffffffffffffffffffffff1681526020019081526020015f205f6101000a81548160ff0219169083151502179055508173ffffffffffffffffffffffffffffffffffffffff166104fb610709565b73ffffffffffffffffffffffffffffffffffffffff167f17307eab39ab6107e8899845ad3d59bd9653f200f220920489ca2b5937696c31836040516105409190610e86565b60405180910390a35050565b60606105578261065b565b505f610561610710565b90505f81511161057f5760405180602001604052805f8152506105ae565b8061058d8461ffff16610726565b60405160200161059e929190610ffc565b6040516020818303038152906040525b915050919050565b6105c882826105c3610709565b6107f0565b5050565b5f6104b55f8473ffffffffffffffffffffffffffffffffffffffff1673ffffffffffffffffffffffffffffffffffffffff1681526020019081526020015f205f8373ffffffffffffffffffffffffffffffffffffffff1673ffffffffffffffffffffffffffffffffffffffff1681526020019081526020015f205f9054906101000a900460ff16905092915050565b5f8161ffff165f108015610689575060015f0160029054906101000a900461ffff1661ffff168261ffff1611155b6106c8576040517f08c379a00000000000000000000000000000000000000000000000000000000081526004016106bf906110b5565b60405180910390fd5b60028261ffff166104b181106106e1576106e0610f07565b5b015f9054906101000a900473ffffffffffffffffffffffffffffffffffffffff169050919050565b5f33905090565b606060405180602001604052805f815250905090565b60605f6001610734846109ac565b0190505f8167ffffffffffffffff811115610752576107516110d3565b5b6040519080825280601f01601f1916602001820160405280156107845781602001600182028036833780820191505090505b5090505f82602001820190505b6001156107e5578080600190039150507f3031323334353637383961626364656600000000000000000000000000000000600a86061a8153600a85816107da576107d9611100565b5b0494505f8503610791575b819350505050919050565b5f6107fa8361065b565b90508373ffffffffffffffffffffffffffffffffffffffff168173ffffffffffffffffffffffffffffffffffffffff160361086a576040517f08c379a000000000000000000000000000000000000000000000000000000000815260040161086190610fa4565b60405180910390fd5b8173ffffffffffffffffffffffffffffffffffffffff168173ffffffffffffffffffffffffffffffffffffffff16141580156108ad57506108ab81836105cc565b155b156108ef57816040517fa9fbf51f0000000000000000000000000000000000000000000000000000000081526004016108e69190610c72565b60405180910390fd5b836104b45f8561ffff1661ffff1681526020019081526020015f205f6101000a81548173ffffffffffffffffffffffffffffffffffffffff021916908373ffffffffffffffffffffffffffffffffffffffff1602179055508261ffff168473ffffffffffffffffffffffffffffffffffffffff168273ffffffffffffffffffffffffffffffffffffffff167f0a9d294fd4bd42bb30e96cba2b478d149a783fba3c729b1e5c42bec89d95b85a60405160405180910390a450505050565b5f805f90507a184f03e93ff9f4daa797ed6e38ed64bf6a1f0100000000000000008310610a08577a184f03e93ff9f4daa797ed6e38ed64bf6a1f01000000000000000083816109fe576109fd611100565b5b0492506040810190505b6d04ee2d6d415b85acef81000000008310610a45576d04ee2d6d415b85acef81000000008381610a3b57610a3a611100565b5b0492506020810190505b662386f26fc100008310610a7457662386f26fc100008381610a6a57610a69611100565b5b0492506010810190505b6305f5e1008310610a9d576305f5e1008381610a9357610a92611100565b5b0492506008810190505b6127108310610ac2576127108381610ab857610ab7611100565b5b0492506004810190505b60648310610ae55760648381610adb57610ada611100565b5b0492506002810190505b600a8310610af4576001810190505b80915050919050565b5f7fffffffffffffffffffffffffffffffffffffffff00000000000000000000000082169050919050565b610b3181610afd565b82525050565b5f602082019050610b4a5f830184610b28565b92915050565b5f80fd5b5f73ffffffffffffffffffffffffffffffffffffffff82169050919050565b5f610b7d82610b54565b9050919050565b610b8d81610b73565b8114610b97575f80fd5b50565b5f81359050610ba881610b84565b92915050565b5f60208284031215610bc357610bc2610b50565b5b5f610bd084828501610b9a565b91505092915050565b5f61ffff82169050919050565b610bef81610bd9565b82525050565b5f602082019050610c085f830184610be6565b92915050565b610c1781610bd9565b8114610c21575f80fd5b50565b5f81359050610c3281610c0e565b92915050565b5f60208284031215610c4d57610c4c610b50565b5b5f610c5a84828501610c24565b91505092915050565b610c6c81610b73565b82525050565b5f602082019050610c855f830184610c63565b92915050565b5f7fffffffffffffffffffff0000000000000000000000000000000000000000000082169050919050565b610cbf81610c8b565b82525050565b5f602082019050610cd85f830184610cb6565b92915050565b5f8115159050919050565b610cf281610cde565b8114610cfc575f80fd5b50565b5f81359050610d0d81610ce9565b92915050565b5f8060408385031215610d2957610d28610b50565b5b5f610d3685828601610b9a565b9250506020610d4785828601610cff565b9150509250929050565b5f81519050919050565b5f82825260208201905092915050565b5f5b83811015610d88578082015181840152602081019050610d6d565b5f8484015250505050565b5f601f19601f8301169050919050565b5f610dad82610d51565b610db78185610d5b565b9350610dc7818560208601610d6b565b610dd081610d93565b840191505092915050565b5f6020820190508181035f830152610df38184610da3565b905092915050565b5f8060408385031215610e1157610e10610b50565b5b5f610e1e85828601610b9a565b9250506020610e2f85828601610c24565b9150509250929050565b5f8060408385031215610e4f57610e4e610b50565b5b5f610e5c85828601610b9a565b9250506020610e6d85828601610b9a565b9150509250929050565b610e8081610cde565b82525050565b5f602082019050610e995f830184610e77565b92915050565b7f54686520696e70757420616464726573732063616e6e6f74206265207a65726f5f82015250565b5f610ed3602083610d5b565b9150610ede82610e9f565b602082019050919050565b5f6020820190508181035f830152610f0081610ec7565b9050919050565b7f4e487b71000000000000000000000000000000000000000000000000000000005f52603260045260245ffd5b7f5468652061646472657373206f6620746865206f776e657220616e64207468655f8201527f206f70657261746f72206d75737420626520646966666572656e740000000000602082015250565b5f610f8e603b83610d5b565b9150610f9982610f34565b604082019050919050565b5f6020820190508181035f830152610fbb81610f82565b9050919050565b5f81905092915050565b5f610fd682610d51565b610fe08185610fc2565b9350610ff0818560208601610d6b565b80840191505092915050565b5f6110078285610fcc565b91506110138284610fcc565b91508190509392505050565b7f54686520494420656e746572656420697320696e76616c69642e204974206d755f8201527f737420626520696e207468697320696e74657276616c2030203c206964203c3d60208201527f2063757272656e7420746f6b656e730000000000000000000000000000000000604082015250565b5f61109f604f83610d5b565b91506110aa8261101f565b606082019050919050565b5f6020820190508181035f8301526110cc81611093565b9050919050565b7f4e487b71000000000000000000000000000000000000000000000000000000005f52604160045260245ffd5b7f4e487b71000000000000000000000000000000000000000000000000000000005f52601260045260245ffdfea264697066735822122074227527dc031273894aa7740043449d768f84101047a6454aacb3e2c9c0da8d64736f6c63430008140033",
					"opcodes": "PUSH1 0x80 PUSH1 0x40 MSTORE CALLVALUE DUP1 ISZERO PUSH3 0x10 JUMPI PUSH0 DUP1 REVERT JUMPDEST POP PUSH1 0x40 MLOAD PUSH3 0x12FB CODESIZE SUB DUP1 PUSH3 0x12FB DUP4 CODECOPY DUP2 DUP2 ADD PUSH1 0x40 MSTORE DUP2 ADD SWAP1 PUSH3 0x36 SWAP2 SWAP1 PUSH3 0x145 JUMP JUMPDEST DUP2 PUSH0 DUP1 PUSH2 0x100 EXP DUP2 SLOAD DUP2 PUSH20 0xFFFFFFFFFFFFFFFFFFFFFFFFFFFFFFFFFFFFFFFF MUL NOT AND SWAP1 DUP4 PUSH1 0x60 SHR MUL OR SWAP1 SSTORE POP DUP1 PUSH0 PUSH1 0x14 PUSH2 0x100 EXP DUP2 SLOAD DUP2 PUSH10 0xFFFFFFFFFFFFFFFFFFFF MUL NOT AND SWAP1 DUP4 PUSH1 0xB0 SHR MUL OR SWAP1 SSTORE POP POP POP PUSH3 0x18A JUMP JUMPDEST PUSH0 DUP1 REVERT JUMPDEST PUSH0 PUSH32 0xFFFFFFFFFFFFFFFFFFFFFFFFFFFFFFFFFFFFFFFF000000000000000000000000 DUP3 AND SWAP1 POP SWAP2 SWAP1 POP JUMP JUMPDEST PUSH3 0xC7 DUP2 PUSH3 0x91 JUMP JUMPDEST DUP2 EQ PUSH3 0xD2 JUMPI PUSH0 DUP1 REVERT JUMPDEST POP JUMP JUMPDEST PUSH0 DUP2 MLOAD SWAP1 POP PUSH3 0xE5 DUP2 PUSH3 0xBC JUMP JUMPDEST SWAP3 SWAP2 POP POP JUMP JUMPDEST PUSH0 PUSH32 0xFFFFFFFFFFFFFFFFFFFF00000000000000000000000000000000000000000000 DUP3 AND SWAP1 POP SWAP2 SWAP1 POP JUMP JUMPDEST PUSH3 0x121 DUP2 PUSH3 0xEB JUMP JUMPDEST DUP2 EQ PUSH3 0x12C JUMPI PUSH0 DUP1 REVERT JUMPDEST POP JUMP JUMPDEST PUSH0 DUP2 MLOAD SWAP1 POP PUSH3 0x13F DUP2 PUSH3 0x116 JUMP JUMPDEST SWAP3 SWAP2 POP POP JUMP JUMPDEST PUSH0 DUP1 PUSH1 0x40 DUP4 DUP6 SUB SLT ISZERO PUSH3 0x15E JUMPI PUSH3 0x15D PUSH3 0x8D JUMP JUMPDEST JUMPDEST PUSH0 PUSH3 0x16D DUP6 DUP3 DUP7 ADD PUSH3 0xD5 JUMP JUMPDEST SWAP3 POP POP PUSH1 0x20 PUSH3 0x180 DUP6 DUP3 DUP7 ADD PUSH3 0x12F JUMP JUMPDEST SWAP2 POP POP SWAP3 POP SWAP3 SWAP1 POP JUMP JUMPDEST PUSH2 0x1163 DUP1 PUSH3 0x198 PUSH0 CODECOPY PUSH0 RETURN INVALID PUSH1 0x80 PUSH1 0x40 MSTORE CALLVALUE DUP1 ISZERO PUSH2 0xF JUMPI PUSH0 DUP1 REVERT JUMPDEST POP PUSH1 0x4 CALLDATASIZE LT PUSH2 0x91 JUMPI PUSH0 CALLDATALOAD PUSH1 0xE0 SHR DUP1 PUSH4 0x95D89B41 GT PUSH2 0x64 JUMPI DUP1 PUSH4 0x95D89B41 EQ PUSH2 0x143 JUMPI DUP1 PUSH4 0xA22CB465 EQ PUSH2 0x161 JUMPI DUP1 PUSH4 0xDD7D8440 EQ PUSH2 0x17D JUMPI DUP1 PUSH4 0xE560CA43 EQ PUSH2 0x1AD JUMPI DUP1 PUSH4 0xE985E9C5 EQ PUSH2 0x1C9 JUMPI PUSH2 0x91 JUMP JUMPDEST DUP1 PUSH4 0x6FDDE03 EQ PUSH2 0x95 JUMPI DUP1 PUSH4 0x70A08231 EQ PUSH2 0xB3 JUMPI DUP1 PUSH4 0x82A7CF1E EQ PUSH2 0xE3 JUMPI DUP1 PUSH4 0x93B871F2 EQ PUSH2 0x113 JUMPI JUMPDEST PUSH0 DUP1 REVERT JUMPDEST PUSH2 0x9D PUSH2 0x1F9 JUMP JUMPDEST PUSH1 0x40 MLOAD PUSH2 0xAA SWAP2 SWAP1 PUSH2 0xB37 JUMP JUMPDEST PUSH1 0x40 MLOAD DUP1 SWAP2 SUB SWAP1 RETURN JUMPDEST PUSH2 0xCD PUSH1 0x4 DUP1 CALLDATASIZE SUB DUP2 ADD SWAP1 PUSH2 0xC8 SWAP2 SWAP1 PUSH2 0xBAE JUMP JUMPDEST PUSH2 0x20D JUMP JUMPDEST PUSH1 0x40 MLOAD PUSH2 0xDA SWAP2 SWAP1 PUSH2 0xBF5 JUMP JUMPDEST PUSH1 0x40 MLOAD DUP1 SWAP2 SUB SWAP1 RETURN JUMPDEST PUSH2 0xFD PUSH1 0x4 DUP1 CALLDATASIZE SUB DUP2 ADD SWAP1 PUSH2 0xF8 SWAP2 SWAP1 PUSH2 0xC38 JUMP JUMPDEST PUSH2 0x2EE JUMP JUMPDEST PUSH1 0x40 MLOAD PUSH2 0x10A SWAP2 SWAP1 PUSH2 0xC72 JUMP JUMPDEST PUSH1 0x40 MLOAD DUP1 SWAP2 SUB SWAP1 RETURN JUMPDEST PUSH2 0x12D PUSH1 0x4 DUP1 CALLDATASIZE SUB DUP2 ADD SWAP1 PUSH2 0x128 SWAP2 SWAP1 PUSH2 0xC38 JUMP JUMPDEST PUSH2 0x2FF JUMP JUMPDEST PUSH1 0x40 MLOAD PUSH2 0x13A SWAP2 SWAP1 PUSH2 0xC72 JUMP JUMPDEST PUSH1 0x40 MLOAD DUP1 SWAP2 SUB SWAP1 RETURN JUMPDEST PUSH2 0x14B PUSH2 0x34B JUMP JUMPDEST PUSH1 0x40 MLOAD PUSH2 0x158 SWAP2 SWAP1 PUSH2 0xCC5 JUMP JUMPDEST PUSH1 0x40 MLOAD DUP1 SWAP2 SUB SWAP1 RETURN JUMPDEST PUSH2 0x17B PUSH1 0x4 DUP1 CALLDATASIZE SUB DUP2 ADD SWAP1 PUSH2 0x176 SWAP2 SWAP1 PUSH2 0xD13 JUMP JUMPDEST PUSH2 0x360 JUMP JUMPDEST STOP JUMPDEST PUSH2 0x197 PUSH1 0x4 DUP1 CALLDATASIZE SUB DUP2 ADD SWAP1 PUSH2 0x192 SWAP2 SWAP1 PUSH2 0xC38 JUMP JUMPDEST PUSH2 0x54C JUMP JUMPDEST PUSH1 0x40 MLOAD PUSH2 0x1A4 SWAP2 SWAP1 PUSH2 0xDDB JUMP JUMPDEST PUSH1 0x40 MLOAD DUP1 SWAP2 SUB SWAP1 RETURN JUMPDEST PUSH2 0x1C7 PUSH1 0x4 DUP1 CALLDATASIZE SUB DUP2 ADD SWAP1 PUSH2 0x1C2 SWAP2 SWAP1 PUSH2 0xDFB JUMP JUMPDEST PUSH2 0x5B6 JUMP JUMPDEST STOP JUMPDEST PUSH2 0x1E3 PUSH1 0x4 DUP1 CALLDATASIZE SUB DUP2 ADD SWAP1 PUSH2 0x1DE SWAP2 SWAP1 PUSH2 0xE39 JUMP JUMPDEST PUSH2 0x5CC JUMP JUMPDEST PUSH1 0x40 MLOAD PUSH2 0x1F0 SWAP2 SWAP1 PUSH2 0xE86 JUMP JUMPDEST PUSH1 0x40 MLOAD DUP1 SWAP2 SUB SWAP1 RETURN JUMPDEST PUSH0 DUP1 PUSH0 SWAP1 SLOAD SWAP1 PUSH2 0x100 EXP SWAP1 DIV PUSH1 0x60 SHL SWAP1 POP SWAP1 JUMP JUMPDEST PUSH0 DUP1 PUSH20 0xFFFFFFFFFFFFFFFFFFFFFFFFFFFFFFFFFFFFFFFF AND DUP3 PUSH20 0xFFFFFFFFFFFFFFFFFFFFFFFFFFFFFFFFFFFFFFFF AND SUB PUSH2 0x27C JUMPI PUSH1 0x40 MLOAD PUSH32 0x8C379A000000000000000000000000000000000000000000000000000000000 DUP2 MSTORE PUSH1 0x4 ADD PUSH2 0x273 SWAP1 PUSH2 0xEE9 JUMP JUMPDEST PUSH1 0x40 MLOAD DUP1 SWAP2 SUB SWAP1 REVERT JUMPDEST PUSH2 0x4B3 PUSH0 DUP4 PUSH20 0xFFFFFFFFFFFFFFFFFFFFFFFFFFFFFFFFFFFFFFFF AND PUSH20 0xFFFFFFFFFFFFFFFFFFFFFFFFFFFFFFFFFFFFFFFF AND DUP2 MSTORE PUSH1 0x20 ADD SWAP1 DUP2 MSTORE PUSH1 0x20 ADD PUSH0 KECCAK256 PUSH0 PUSH2 0x4B1 DUP2 LT PUSH2 0x2CD JUMPI PUSH2 0x2CC PUSH2 0xF07 JUMP JUMPDEST JUMPDEST PUSH1 0x10 SWAP2 DUP3 DUP3 DIV ADD SWAP2 SWAP1 MOD PUSH1 0x2 MUL SWAP1 SLOAD SWAP1 PUSH2 0x100 EXP SWAP1 DIV PUSH2 0xFFFF AND SWAP1 POP SWAP2 SWAP1 POP JUMP JUMPDEST PUSH0 PUSH2 0x2F8 DUP3 PUSH2 0x65B JUMP JUMPDEST SWAP1 POP SWAP2 SWAP1 POP JUMP JUMPDEST PUSH0 PUSH2 0x309 DUP3 PUSH2 0x65B JUMP JUMPDEST POP PUSH2 0x4B4 PUSH0 DUP4 PUSH2 0xFFFF AND PUSH2 0xFFFF AND DUP2 MSTORE PUSH1 0x20 ADD SWAP1 DUP2 MSTORE PUSH1 0x20 ADD PUSH0 KECCAK256 PUSH0 SWAP1 SLOAD SWAP1 PUSH2 0x100 EXP SWAP1 DIV PUSH20 0xFFFFFFFFFFFFFFFFFFFFFFFFFFFFFFFFFFFFFFFF AND SWAP1 POP SWAP2 SWAP1 POP JUMP JUMPDEST PUSH0 DUP1 PUSH1 0x14 SWAP1 SLOAD SWAP1 PUSH2 0x100 EXP SWAP1 DIV PUSH1 0xB0 SHL SWAP1 POP SWAP1 JUMP JUMPDEST DUP2 PUSH20 0xFFFFFFFFFFFFFFFFFFFFFFFFFFFFFFFFFFFFFFFF AND PUSH2 0x37F PUSH2 0x709 JUMP JUMPDEST PUSH20 0xFFFFFFFFFFFFFFFFFFFFFFFFFFFFFFFFFFFFFFFF AND SUB PUSH2 0x3D5 JUMPI PUSH1 0x40 MLOAD PUSH32 0x8C379A000000000000000000000000000000000000000000000000000000000 DUP2 MSTORE PUSH1 0x4 ADD PUSH2 0x3CC SWAP1 PUSH2 0xFA4 JUMP JUMPDEST PUSH1 0x40 MLOAD DUP1 SWAP2 SUB SWAP1 REVERT JUMPDEST PUSH0 PUSH20 0xFFFFFFFFFFFFFFFFFFFFFFFFFFFFFFFFFFFFFFFF AND DUP3 PUSH20 0xFFFFFFFFFFFFFFFFFFFFFFFFFFFFFFFFFFFFFFFF AND SUB PUSH2 0x445 JUMPI DUP2 PUSH1 0x40 MLOAD PUSH32 0x5B08BA1800000000000000000000000000000000000000000000000000000000 DUP2 MSTORE PUSH1 0x4 ADD PUSH2 0x43C SWAP2 SWAP1 PUSH2 0xC72 JUMP JUMPDEST PUSH1 0x40 MLOAD DUP1 SWAP2 SUB SWAP1 REVERT JUMPDEST DUP1 PUSH2 0x4B5 PUSH0 PUSH2 0x452 PUSH2 0x709 JUMP JUMPDEST PUSH20 0xFFFFFFFFFFFFFFFFFFFFFFFFFFFFFFFFFFFFFFFF AND PUSH20 0xFFFFFFFFFFFFFFFFFFFFFFFFFFFFFFFFFFFFFFFF AND DUP2 MSTORE PUSH1 0x20 ADD SWAP1 DUP2 MSTORE PUSH1 0x20 ADD PUSH0 KECCAK256 PUSH0 DUP5 PUSH20 0xFFFFFFFFFFFFFFFFFFFFFFFFFFFFFFFFFFFFFFFF AND PUSH20 0xFFFFFFFFFFFFFFFFFFFFFFFFFFFFFFFFFFFFFFFF AND DUP2 MSTORE PUSH1 0x20 ADD SWAP1 DUP2 MSTORE PUSH1 0x20 ADD PUSH0 KECCAK256 PUSH0 PUSH2 0x100 EXP DUP2 SLOAD DUP2 PUSH1 0xFF MUL NOT AND SWAP1 DUP4 ISZERO ISZERO MUL OR SWAP1 SSTORE POP DUP2 PUSH20 0xFFFFFFFFFFFFFFFFFFFFFFFFFFFFFFFFFFFFFFFF AND PUSH2 0x4FB PUSH2 0x709 JUMP JUMPDEST PUSH20 0xFFFFFFFFFFFFFFFFFFFFFFFFFFFFFFFFFFFFFFFF AND PUSH32 0x17307EAB39AB6107E8899845AD3D59BD9653F200F220920489CA2B5937696C31 DUP4 PUSH1 0x40 MLOAD PUSH2 0x540 SWAP2 SWAP1 PUSH2 0xE86 JUMP JUMPDEST PUSH1 0x40 MLOAD DUP1 SWAP2 SUB SWAP1 LOG3 POP POP JUMP JUMPDEST PUSH1 0x60 PUSH2 0x557 DUP3 PUSH2 0x65B JUMP JUMPDEST POP PUSH0 PUSH2 0x561 PUSH2 0x710 JUMP JUMPDEST SWAP1 POP PUSH0 DUP2 MLOAD GT PUSH2 0x57F JUMPI PUSH1 0x40 MLOAD DUP1 PUSH1 0x20 ADD PUSH1 0x40 MSTORE DUP1 PUSH0 DUP2 MSTORE POP PUSH2 0x5AE JUMP JUMPDEST DUP1 PUSH2 0x58D DUP5 PUSH2 0xFFFF AND PUSH2 0x726 JUMP JUMPDEST PUSH1 0x40 MLOAD PUSH1 0x20 ADD PUSH2 0x59E SWAP3 SWAP2 SWAP1 PUSH2 0xFFC JUMP JUMPDEST PUSH1 0x40 MLOAD PUSH1 0x20 DUP2 DUP4 SUB SUB DUP2 MSTORE SWAP1 PUSH1 0x40 MSTORE JUMPDEST SWAP2 POP POP SWAP2 SWAP1 POP JUMP JUMPDEST PUSH2 0x5C8 DUP3 DUP3 PUSH2 0x5C3 PUSH2 0x709 JUMP JUMPDEST PUSH2 0x7F0 JUMP JUMPDEST POP POP JUMP JUMPDEST PUSH0 PUSH2 0x4B5 PUSH0 DUP5 PUSH20 0xFFFFFFFFFFFFFFFFFFFFFFFFFFFFFFFFFFFFFFFF AND PUSH20 0xFFFFFFFFFFFFFFFFFFFFFFFFFFFFFFFFFFFFFFFF AND DUP2 MSTORE PUSH1 0x20 ADD SWAP1 DUP2 MSTORE PUSH1 0x20 ADD PUSH0 KECCAK256 PUSH0 DUP4 PUSH20 0xFFFFFFFFFFFFFFFFFFFFFFFFFFFFFFFFFFFFFFFF AND PUSH20 0xFFFFFFFFFFFFFFFFFFFFFFFFFFFFFFFFFFFFFFFF AND DUP2 MSTORE PUSH1 0x20 ADD SWAP1 DUP2 MSTORE PUSH1 0x20 ADD PUSH0 KECCAK256 PUSH0 SWAP1 SLOAD SWAP1 PUSH2 0x100 EXP SWAP1 DIV PUSH1 0xFF AND SWAP1 POP SWAP3 SWAP2 POP POP JUMP JUMPDEST PUSH0 DUP2 PUSH2 0xFFFF AND PUSH0 LT DUP1 ISZERO PUSH2 0x689 JUMPI POP PUSH1 0x1 PUSH0 ADD PUSH1 0x2 SWAP1 SLOAD SWAP1 PUSH2 0x100 EXP SWAP1 DIV PUSH2 0xFFFF AND PUSH2 0xFFFF AND DUP3 PUSH2 0xFFFF AND GT ISZERO JUMPDEST PUSH2 0x6C8 JUMPI PUSH1 0x40 MLOAD PUSH32 0x8C379A000000000000000000000000000000000000000000000000000000000 DUP2 MSTORE PUSH1 0x4 ADD PUSH2 0x6BF SWAP1 PUSH2 0x10B5 JUMP JUMPDEST PUSH1 0x40 MLOAD DUP1 SWAP2 SUB SWAP1 REVERT JUMPDEST PUSH1 0x2 DUP3 PUSH2 0xFFFF AND PUSH2 0x4B1 DUP2 LT PUSH2 0x6E1 JUMPI PUSH2 0x6E0 PUSH2 0xF07 JUMP JUMPDEST JUMPDEST ADD PUSH0 SWAP1 SLOAD SWAP1 PUSH2 0x100 EXP SWAP1 DIV PUSH20 0xFFFFFFFFFFFFFFFFFFFFFFFFFFFFFFFFFFFFFFFF AND SWAP1 POP SWAP2 SWAP1 POP JUMP JUMPDEST PUSH0 CALLER SWAP1 POP SWAP1 JUMP JUMPDEST PUSH1 0x60 PUSH1 0x40 MLOAD DUP1 PUSH1 0x20 ADD PUSH1 0x40 MSTORE DUP1 PUSH0 DUP2 MSTORE POP SWAP1 POP SWAP1 JUMP JUMPDEST PUSH1 0x60 PUSH0 PUSH1 0x1 PUSH2 0x734 DUP5 PUSH2 0x9AC JUMP JUMPDEST ADD SWAP1 POP PUSH0 DUP2 PUSH8 0xFFFFFFFFFFFFFFFF DUP2 GT ISZERO PUSH2 0x752 JUMPI PUSH2 0x751 PUSH2 0x10D3 JUMP JUMPDEST JUMPDEST PUSH1 0x40 MLOAD SWAP1 DUP1 DUP3 MSTORE DUP1 PUSH1 0x1F ADD PUSH1 0x1F NOT AND PUSH1 0x20 ADD DUP3 ADD PUSH1 0x40 MSTORE DUP1 ISZERO PUSH2 0x784 JUMPI DUP2 PUSH1 0x20 ADD PUSH1 0x1 DUP3 MUL DUP1 CALLDATASIZE DUP4 CALLDATACOPY DUP1 DUP3 ADD SWAP2 POP POP SWAP1 POP JUMPDEST POP SWAP1 POP PUSH0 DUP3 PUSH1 0x20 ADD DUP3 ADD SWAP1 POP JUMPDEST PUSH1 0x1 ISZERO PUSH2 0x7E5 JUMPI DUP1 DUP1 PUSH1 0x1 SWAP1 SUB SWAP2 POP POP PUSH32 0x3031323334353637383961626364656600000000000000000000000000000000 PUSH1 0xA DUP7 MOD BYTE DUP2 MSTORE8 PUSH1 0xA DUP6 DUP2 PUSH2 0x7DA JUMPI PUSH2 0x7D9 PUSH2 0x1100 JUMP JUMPDEST JUMPDEST DIV SWAP5 POP PUSH0 DUP6 SUB PUSH2 0x791 JUMPI JUMPDEST DUP2 SWAP4 POP POP POP POP SWAP2 SWAP1 POP JUMP JUMPDEST PUSH0 PUSH2 0x7FA DUP4 PUSH2 0x65B JUMP JUMPDEST SWAP1 POP DUP4 PUSH20 0xFFFFFFFFFFFFFFFFFFFFFFFFFFFFFFFFFFFFFFFF AND DUP2 PUSH20 0xFFFFFFFFFFFFFFFFFFFFFFFFFFFFFFFFFFFFFFFF AND SUB PUSH2 0x86A JUMPI PUSH1 0x40 MLOAD PUSH32 0x8C379A000000000000000000000000000000000000000000000000000000000 DUP2 MSTORE PUSH1 0x4 ADD PUSH2 0x861 SWAP1 PUSH2 0xFA4 JUMP JUMPDEST PUSH1 0x40 MLOAD DUP1 SWAP2 SUB SWAP1 REVERT JUMPDEST DUP2 PUSH20 0xFFFFFFFFFFFFFFFFFFFFFFFFFFFFFFFFFFFFFFFF AND DUP2 PUSH20 0xFFFFFFFFFFFFFFFFFFFFFFFFFFFFFFFFFFFFFFFF AND EQ ISZERO DUP1 ISZERO PUSH2 0x8AD JUMPI POP PUSH2 0x8AB DUP2 DUP4 PUSH2 0x5CC JUMP JUMPDEST ISZERO JUMPDEST ISZERO PUSH2 0x8EF JUMPI DUP2 PUSH1 0x40 MLOAD PUSH32 0xA9FBF51F00000000000000000000000000000000000000000000000000000000 DUP2 MSTORE PUSH1 0x4 ADD PUSH2 0x8E6 SWAP2 SWAP1 PUSH2 0xC72 JUMP JUMPDEST PUSH1 0x40 MLOAD DUP1 SWAP2 SUB SWAP1 REVERT JUMPDEST DUP4 PUSH2 0x4B4 PUSH0 DUP6 PUSH2 0xFFFF AND PUSH2 0xFFFF AND DUP2 MSTORE PUSH1 0x20 ADD SWAP1 DUP2 MSTORE PUSH1 0x20 ADD PUSH0 KECCAK256 PUSH0 PUSH2 0x100 EXP DUP2 SLOAD DUP2 PUSH20 0xFFFFFFFFFFFFFFFFFFFFFFFFFFFFFFFFFFFFFFFF MUL NOT AND SWAP1 DUP4 PUSH20 0xFFFFFFFFFFFFFFFFFFFFFFFFFFFFFFFFFFFFFFFF AND MUL OR SWAP1 SSTORE POP DUP3 PUSH2 0xFFFF AND DUP5 PUSH20 0xFFFFFFFFFFFFFFFFFFFFFFFFFFFFFFFFFFFFFFFF AND DUP3 PUSH20 0xFFFFFFFFFFFFFFFFFFFFFFFFFFFFFFFFFFFFFFFF AND PUSH32 0xA9D294FD4BD42BB30E96CBA2B478D149A783FBA3C729B1E5C42BEC89D95B85A PUSH1 0x40 MLOAD PUSH1 0x40 MLOAD DUP1 SWAP2 SUB SWAP1 LOG4 POP POP POP POP JUMP JUMPDEST PUSH0 DUP1 PUSH0 SWAP1 POP PUSH27 0x184F03E93FF9F4DAA797ED6E38ED64BF6A1F010000000000000000 DUP4 LT PUSH2 0xA08 JUMPI PUSH27 0x184F03E93FF9F4DAA797ED6E38ED64BF6A1F010000000000000000 DUP4 DUP2 PUSH2 0x9FE JUMPI PUSH2 0x9FD PUSH2 0x1100 JUMP JUMPDEST JUMPDEST DIV SWAP3 POP PUSH1 0x40 DUP2 ADD SWAP1 POP JUMPDEST PUSH14 0x4EE2D6D415B85ACEF8100000000 DUP4 LT PUSH2 0xA45 JUMPI PUSH14 0x4EE2D6D415B85ACEF8100000000 DUP4 DUP2 PUSH2 0xA3B JUMPI PUSH2 0xA3A PUSH2 0x1100 JUMP JUMPDEST JUMPDEST DIV SWAP3 POP PUSH1 0x20 DUP2 ADD SWAP1 POP JUMPDEST PUSH7 0x2386F26FC10000 DUP4 LT PUSH2 0xA74 JUMPI PUSH7 0x2386F26FC10000 DUP4 DUP2 PUSH2 0xA6A JUMPI PUSH2 0xA69 PUSH2 0x1100 JUMP JUMPDEST JUMPDEST DIV SWAP3 POP PUSH1 0x10 DUP2 ADD SWAP1 POP JUMPDEST PUSH4 0x5F5E100 DUP4 LT PUSH2 0xA9D JUMPI PUSH4 0x5F5E100 DUP4 DUP2 PUSH2 0xA93 JUMPI PUSH2 0xA92 PUSH2 0x1100 JUMP JUMPDEST JUMPDEST DIV SWAP3 POP PUSH1 0x8 DUP2 ADD SWAP1 POP JUMPDEST PUSH2 0x2710 DUP4 LT PUSH2 0xAC2 JUMPI PUSH2 0x2710 DUP4 DUP2 PUSH2 0xAB8 JUMPI PUSH2 0xAB7 PUSH2 0x1100 JUMP JUMPDEST JUMPDEST DIV SWAP3 POP PUSH1 0x4 DUP2 ADD SWAP1 POP JUMPDEST PUSH1 0x64 DUP4 LT PUSH2 0xAE5 JUMPI PUSH1 0x64 DUP4 DUP2 PUSH2 0xADB JUMPI PUSH2 0xADA PUSH2 0x1100 JUMP JUMPDEST JUMPDEST DIV SWAP3 POP PUSH1 0x2 DUP2 ADD SWAP1 POP JUMPDEST PUSH1 0xA DUP4 LT PUSH2 0xAF4 JUMPI PUSH1 0x1 DUP2 ADD SWAP1 POP JUMPDEST DUP1 SWAP2 POP POP SWAP2 SWAP1 POP JUMP JUMPDEST PUSH0 PUSH32 0xFFFFFFFFFFFFFFFFFFFFFFFFFFFFFFFFFFFFFFFF000000000000000000000000 DUP3 AND SWAP1 POP SWAP2 SWAP1 POP JUMP JUMPDEST PUSH2 0xB31 DUP2 PUSH2 0xAFD JUMP JUMPDEST DUP3 MSTORE POP POP JUMP JUMPDEST PUSH0 PUSH1 0x20 DUP3 ADD SWAP1 POP PUSH2 0xB4A PUSH0 DUP4 ADD DUP5 PUSH2 0xB28 JUMP JUMPDEST SWAP3 SWAP2 POP POP JUMP JUMPDEST PUSH0 DUP1 REVERT JUMPDEST PUSH0 PUSH20 0xFFFFFFFFFFFFFFFFFFFFFFFFFFFFFFFFFFFFFFFF DUP3 AND SWAP1 POP SWAP2 SWAP1 POP JUMP JUMPDEST PUSH0 PUSH2 0xB7D DUP3 PUSH2 0xB54 JUMP JUMPDEST SWAP1 POP SWAP2 SWAP1 POP JUMP JUMPDEST PUSH2 0xB8D DUP2 PUSH2 0xB73 JUMP JUMPDEST DUP2 EQ PUSH2 0xB97 JUMPI PUSH0 DUP1 REVERT JUMPDEST POP JUMP JUMPDEST PUSH0 DUP2 CALLDATALOAD SWAP1 POP PUSH2 0xBA8 DUP2 PUSH2 0xB84 JUMP JUMPDEST SWAP3 SWAP2 POP POP JUMP JUMPDEST PUSH0 PUSH1 0x20 DUP3 DUP5 SUB SLT ISZERO PUSH2 0xBC3 JUMPI PUSH2 0xBC2 PUSH2 0xB50 JUMP JUMPDEST JUMPDEST PUSH0 PUSH2 0xBD0 DUP5 DUP3 DUP6 ADD PUSH2 0xB9A JUMP JUMPDEST SWAP2 POP POP SWAP3 SWAP2 POP POP JUMP JUMPDEST PUSH0 PUSH2 0xFFFF DUP3 AND SWAP1 POP SWAP2 SWAP1 POP JUMP JUMPDEST PUSH2 0xBEF DUP2 PUSH2 0xBD9 JUMP JUMPDEST DUP3 MSTORE POP POP JUMP JUMPDEST PUSH0 PUSH1 0x20 DUP3 ADD SWAP1 POP PUSH2 0xC08 PUSH0 DUP4 ADD DUP5 PUSH2 0xBE6 JUMP JUMPDEST SWAP3 SWAP2 POP POP JUMP JUMPDEST PUSH2 0xC17 DUP2 PUSH2 0xBD9 JUMP JUMPDEST DUP2 EQ PUSH2 0xC21 JUMPI PUSH0 DUP1 REVERT JUMPDEST POP JUMP JUMPDEST PUSH0 DUP2 CALLDATALOAD SWAP1 POP PUSH2 0xC32 DUP2 PUSH2 0xC0E JUMP JUMPDEST SWAP3 SWAP2 POP POP JUMP JUMPDEST PUSH0 PUSH1 0x20 DUP3 DUP5 SUB SLT ISZERO PUSH2 0xC4D JUMPI PUSH2 0xC4C PUSH2 0xB50 JUMP JUMPDEST JUMPDEST PUSH0 PUSH2 0xC5A DUP5 DUP3 DUP6 ADD PUSH2 0xC24 JUMP JUMPDEST SWAP2 POP POP SWAP3 SWAP2 POP POP JUMP JUMPDEST PUSH2 0xC6C DUP2 PUSH2 0xB73 JUMP JUMPDEST DUP3 MSTORE POP POP JUMP JUMPDEST PUSH0 PUSH1 0x20 DUP3 ADD SWAP1 POP PUSH2 0xC85 PUSH0 DUP4 ADD DUP5 PUSH2 0xC63 JUMP JUMPDEST SWAP3 SWAP2 POP POP JUMP JUMPDEST PUSH0 PUSH32 0xFFFFFFFFFFFFFFFFFFFF00000000000000000000000000000000000000000000 DUP3 AND SWAP1 POP SWAP2 SWAP1 POP JUMP JUMPDEST PUSH2 0xCBF DUP2 PUSH2 0xC8B JUMP JUMPDEST DUP3 MSTORE POP POP JUMP JUMPDEST PUSH0 PUSH1 0x20 DUP3 ADD SWAP1 POP PUSH2 0xCD8 PUSH0 DUP4 ADD DUP5 PUSH2 0xCB6 JUMP JUMPDEST SWAP3 SWAP2 POP POP JUMP JUMPDEST PUSH0 DUP2 ISZERO ISZERO SWAP1 POP SWAP2 SWAP1 POP JUMP JUMPDEST PUSH2 0xCF2 DUP2 PUSH2 0xCDE JUMP JUMPDEST DUP2 EQ PUSH2 0xCFC JUMPI PUSH0 DUP1 REVERT JUMPDEST POP JUMP JUMPDEST PUSH0 DUP2 CALLDATALOAD SWAP1 POP PUSH2 0xD0D DUP2 PUSH2 0xCE9 JUMP JUMPDEST SWAP3 SWAP2 POP POP JUMP JUMPDEST PUSH0 DUP1 PUSH1 0x40 DUP4 DUP6 SUB SLT ISZERO PUSH2 0xD29 JUMPI PUSH2 0xD28 PUSH2 0xB50 JUMP JUMPDEST JUMPDEST PUSH0 PUSH2 0xD36 DUP6 DUP3 DUP7 ADD PUSH2 0xB9A JUMP JUMPDEST SWAP3 POP POP PUSH1 0x20 PUSH2 0xD47 DUP6 DUP3 DUP7 ADD PUSH2 0xCFF JUMP JUMPDEST SWAP2 POP POP SWAP3 POP SWAP3 SWAP1 POP JUMP JUMPDEST PUSH0 DUP2 MLOAD SWAP1 POP SWAP2 SWAP1 POP JUMP JUMPDEST PUSH0 DUP3 DUP3 MSTORE PUSH1 0x20 DUP3 ADD SWAP1 POP SWAP3 SWAP2 POP POP JUMP JUMPDEST PUSH0 JUMPDEST DUP4 DUP2 LT ISZERO PUSH2 0xD88 JUMPI DUP1 DUP3 ADD MLOAD DUP2 DUP5 ADD MSTORE PUSH1 0x20 DUP2 ADD SWAP1 POP PUSH2 0xD6D JUMP JUMPDEST PUSH0 DUP5 DUP5 ADD MSTORE POP POP POP POP JUMP JUMPDEST PUSH0 PUSH1 0x1F NOT PUSH1 0x1F DUP4 ADD AND SWAP1 POP SWAP2 SWAP1 POP JUMP JUMPDEST PUSH0 PUSH2 0xDAD DUP3 PUSH2 0xD51 JUMP JUMPDEST PUSH2 0xDB7 DUP2 DUP6 PUSH2 0xD5B JUMP JUMPDEST SWAP4 POP PUSH2 0xDC7 DUP2 DUP6 PUSH1 0x20 DUP7 ADD PUSH2 0xD6B JUMP JUMPDEST PUSH2 0xDD0 DUP2 PUSH2 0xD93 JUMP JUMPDEST DUP5 ADD SWAP2 POP POP SWAP3 SWAP2 POP POP JUMP JUMPDEST PUSH0 PUSH1 0x20 DUP3 ADD SWAP1 POP DUP2 DUP2 SUB PUSH0 DUP4 ADD MSTORE PUSH2 0xDF3 DUP2 DUP5 PUSH2 0xDA3 JUMP JUMPDEST SWAP1 POP SWAP3 SWAP2 POP POP JUMP JUMPDEST PUSH0 DUP1 PUSH1 0x40 DUP4 DUP6 SUB SLT ISZERO PUSH2 0xE11 JUMPI PUSH2 0xE10 PUSH2 0xB50 JUMP JUMPDEST JUMPDEST PUSH0 PUSH2 0xE1E DUP6 DUP3 DUP7 ADD PUSH2 0xB9A JUMP JUMPDEST SWAP3 POP POP PUSH1 0x20 PUSH2 0xE2F DUP6 DUP3 DUP7 ADD PUSH2 0xC24 JUMP JUMPDEST SWAP2 POP POP SWAP3 POP SWAP3 SWAP1 POP JUMP JUMPDEST PUSH0 DUP1 PUSH1 0x40 DUP4 DUP6 SUB SLT ISZERO PUSH2 0xE4F JUMPI PUSH2 0xE4E PUSH2 0xB50 JUMP JUMPDEST JUMPDEST PUSH0 PUSH2 0xE5C DUP6 DUP3 DUP7 ADD PUSH2 0xB9A JUMP JUMPDEST SWAP3 POP POP PUSH1 0x20 PUSH2 0xE6D DUP6 DUP3 DUP7 ADD PUSH2 0xB9A JUMP JUMPDEST SWAP2 POP POP SWAP3 POP SWAP3 SWAP1 POP JUMP JUMPDEST PUSH2 0xE80 DUP2 PUSH2 0xCDE JUMP JUMPDEST DUP3 MSTORE POP POP JUMP JUMPDEST PUSH0 PUSH1 0x20 DUP3 ADD SWAP1 POP PUSH2 0xE99 PUSH0 DUP4 ADD DUP5 PUSH2 0xE77 JUMP JUMPDEST SWAP3 SWAP2 POP POP JUMP JUMPDEST PUSH32 0x54686520696E70757420616464726573732063616E6E6F74206265207A65726F PUSH0 DUP3 ADD MSTORE POP JUMP JUMPDEST PUSH0 PUSH2 0xED3 PUSH1 0x20 DUP4 PUSH2 0xD5B JUMP JUMPDEST SWAP2 POP PUSH2 0xEDE DUP3 PUSH2 0xE9F JUMP JUMPDEST PUSH1 0x20 DUP3 ADD SWAP1 POP SWAP2 SWAP1 POP JUMP JUMPDEST PUSH0 PUSH1 0x20 DUP3 ADD SWAP1 POP DUP2 DUP2 SUB PUSH0 DUP4 ADD MSTORE PUSH2 0xF00 DUP2 PUSH2 0xEC7 JUMP JUMPDEST SWAP1 POP SWAP2 SWAP1 POP JUMP JUMPDEST PUSH32 0x4E487B7100000000000000000000000000000000000000000000000000000000 PUSH0 MSTORE PUSH1 0x32 PUSH1 0x4 MSTORE PUSH1 0x24 PUSH0 REVERT JUMPDEST PUSH32 0x5468652061646472657373206F6620746865206F776E657220616E6420746865 PUSH0 DUP3 ADD MSTORE PUSH32 0x206F70657261746F72206D75737420626520646966666572656E740000000000 PUSH1 0x20 DUP3 ADD MSTORE POP JUMP JUMPDEST PUSH0 PUSH2 0xF8E PUSH1 0x3B DUP4 PUSH2 0xD5B JUMP JUMPDEST SWAP2 POP PUSH2 0xF99 DUP3 PUSH2 0xF34 JUMP JUMPDEST PUSH1 0x40 DUP3 ADD SWAP1 POP SWAP2 SWAP1 POP JUMP JUMPDEST PUSH0 PUSH1 0x20 DUP3 ADD SWAP1 POP DUP2 DUP2 SUB PUSH0 DUP4 ADD MSTORE PUSH2 0xFBB DUP2 PUSH2 0xF82 JUMP JUMPDEST SWAP1 POP SWAP2 SWAP1 POP JUMP JUMPDEST PUSH0 DUP2 SWAP1 POP SWAP3 SWAP2 POP POP JUMP JUMPDEST PUSH0 PUSH2 0xFD6 DUP3 PUSH2 0xD51 JUMP JUMPDEST PUSH2 0xFE0 DUP2 DUP6 PUSH2 0xFC2 JUMP JUMPDEST SWAP4 POP PUSH2 0xFF0 DUP2 DUP6 PUSH1 0x20 DUP7 ADD PUSH2 0xD6B JUMP JUMPDEST DUP1 DUP5 ADD SWAP2 POP POP SWAP3 SWAP2 POP POP JUMP JUMPDEST PUSH0 PUSH2 0x1007 DUP3 DUP6 PUSH2 0xFCC JUMP JUMPDEST SWAP2 POP PUSH2 0x1013 DUP3 DUP5 PUSH2 0xFCC JUMP JUMPDEST SWAP2 POP DUP2 SWAP1 POP SWAP4 SWAP3 POP POP POP JUMP JUMPDEST PUSH32 0x54686520494420656E746572656420697320696E76616C69642E204974206D75 PUSH0 DUP3 ADD MSTORE PUSH32 0x737420626520696E207468697320696E74657276616C2030203C206964203C3D PUSH1 0x20 DUP3 ADD MSTORE PUSH32 0x2063757272656E7420746F6B656E730000000000000000000000000000000000 PUSH1 0x40 DUP3 ADD MSTORE POP JUMP JUMPDEST PUSH0 PUSH2 0x109F PUSH1 0x4F DUP4 PUSH2 0xD5B JUMP JUMPDEST SWAP2 POP PUSH2 0x10AA DUP3 PUSH2 0x101F JUMP JUMPDEST PUSH1 0x60 DUP3 ADD SWAP1 POP SWAP2 SWAP1 POP JUMP JUMPDEST PUSH0 PUSH1 0x20 DUP3 ADD SWAP1 POP DUP2 DUP2 SUB PUSH0 DUP4 ADD MSTORE PUSH2 0x10CC DUP2 PUSH2 0x1093 JUMP JUMPDEST SWAP1 POP SWAP2 SWAP1 POP JUMP JUMPDEST PUSH32 0x4E487B7100000000000000000000000000000000000000000000000000000000 PUSH0 MSTORE PUSH1 0x41 PUSH1 0x4 MSTORE PUSH1 0x24 PUSH0 REVERT JUMPDEST PUSH32 0x4E487B7100000000000000000000000000000000000000000000000000000000 PUSH0 MSTORE PUSH1 0x12 PUSH1 0x4 MSTORE PUSH1 0x24 PUSH0 REVERT INVALID LOG2 PUSH5 0x6970667358 0x22 SLT KECCAK256 PUSH21 0x227527DC031273894AA7740043449D768F84101047 0xA6 GASLIMIT 0x4A 0xAC 0xB3 0xE2 0xC9 0xC0 0xDA DUP14 PUSH5 0x736F6C6343 STOP ADDMOD EQ STOP CALLER "
				},
				"gasEstimates": {
					"creation": {
						"codeDepositCost": "890200",
						"executionCost": "infinite",
						"totalCost": "infinite"
					},
					"external": {
						"approve(address,uint16)": "infinite",
						"balanceOf(address)": "2990",
						"getApproved(uint16)": "7419",
						"isApprovedForAll(address,address)": "infinite",
						"name()": "2474",
						"ownerOf(uint16)": "5169",
						"setApprovalForAll(address,bool)": "infinite",
						"symbol()": "2524",
						"tokenURI(uint16)": "5541"
					},
					"internal": {
						"_aprove(address,uint16,address)": "infinite",
						"_baseURI()": "infinite",
						"_requireOwned(uint16)": "infinite"
					}
				},
				"methodIdentifiers": {
					"approve(address,uint16)": "e560ca43",
					"balanceOf(address)": "70a08231",
					"getApproved(uint16)": "93b871f2",
					"isApprovedForAll(address,address)": "e985e9c5",
					"name()": "06fdde03",
					"ownerOf(uint16)": "82a7cf1e",
					"setApprovalForAll(address,bool)": "a22cb465",
					"symbol()": "95d89b41",
					"tokenURI(uint16)": "dd7d8440"
				}
			},
			"storageLayout": {
				"storage": [
					{
						"astId": 1876,
						"contract": "contracts/ERC721TokenContractName.sol:ERC721TokenContractName",
						"label": "_name",
						"offset": 0,
						"slot": "0",
						"type": "t_bytes20"
					},
					{
						"astId": 1878,
						"contract": "contracts/ERC721TokenContractName.sol:ERC721TokenContractName",
						"label": "_symbol",
						"offset": 20,
						"slot": "0",
						"type": "t_bytes10"
					},
					{
						"astId": 1886,
						"contract": "contracts/ERC721TokenContractName.sol:ERC721TokenContractName",
						"label": "tokInfo",
						"offset": 0,
						"slot": "1",
						"type": "t_struct(TokInfo)1883_storage"
					},
					{
						"astId": 1890,
						"contract": "contracts/ERC721TokenContractName.sol:ERC721TokenContractName",
						"label": "_owners",
						"offset": 0,
						"slot": "2",
						"type": "t_array(t_address)1201_storage"
					},
					{
						"astId": 1896,
						"contract": "contracts/ERC721TokenContractName.sol:ERC721TokenContractName",
						"label": "_balanceAndTokId",
						"offset": 0,
						"slot": "1203",
						"type": "t_mapping(t_address,t_array(t_uint16)1201_storage)"
					},
					{
						"astId": 1900,
						"contract": "contracts/ERC721TokenContractName.sol:ERC721TokenContractName",
						"label": "_tokenApprovals",
						"offset": 0,
						"slot": "1204",
						"type": "t_mapping(t_uint16,t_address)"
					},
					{
						"astId": 1906,
						"contract": "contracts/ERC721TokenContractName.sol:ERC721TokenContractName",
						"label": "_operatorApprovals",
						"offset": 0,
						"slot": "1205",
						"type": "t_mapping(t_address,t_mapping(t_address,t_bool))"
					}
				],
				"types": {
					"t_address": {
						"encoding": "inplace",
						"label": "address",
						"numberOfBytes": "20"
					},
					"t_array(t_address)1201_storage": {
						"base": "t_address",
						"encoding": "inplace",
						"label": "address[1201]",
						"numberOfBytes": "38432"
					},
					"t_array(t_uint16)1201_storage": {
						"base": "t_uint16",
						"encoding": "inplace",
						"label": "uint16[1201]",
						"numberOfBytes": "2432"
					},
					"t_bool": {
						"encoding": "inplace",
						"label": "bool",
						"numberOfBytes": "1"
					},
					"t_bytes10": {
						"encoding": "inplace",
						"label": "bytes10",
						"numberOfBytes": "10"
					},
					"t_bytes20": {
						"encoding": "inplace",
						"label": "bytes20",
						"numberOfBytes": "20"
					},
					"t_mapping(t_address,t_array(t_uint16)1201_storage)": {
						"encoding": "mapping",
						"key": "t_address",
						"label": "mapping(address => uint16[1201])",
						"numberOfBytes": "32",
						"value": "t_array(t_uint16)1201_storage"
					},
					"t_mapping(t_address,t_bool)": {
						"encoding": "mapping",
						"key": "t_address",
						"label": "mapping(address => bool)",
						"numberOfBytes": "32",
						"value": "t_bool"
					},
					"t_mapping(t_address,t_mapping(t_address,t_bool))": {
						"encoding": "mapping",
						"key": "t_address",
						"label": "mapping(address => mapping(address => bool))",
						"numberOfBytes": "32",
						"value": "t_mapping(t_address,t_bool)"
					},
					"t_mapping(t_uint16,t_address)": {
						"encoding": "mapping",
						"key": "t_uint16",
						"label": "mapping(uint16 => address)",
						"numberOfBytes": "32",
						"value": "t_address"
					},
					"t_struct(TokInfo)1883_storage": {
						"encoding": "inplace",
						"label": "struct ERC721TokenContractName.TokInfo",
						"members": [
							{
								"astId": 1880,
								"contract": "contracts/ERC721TokenContractName.sol:ERC721TokenContractName",
								"label": "maxMinted",
								"offset": 0,
								"slot": "0",
								"type": "t_uint16"
							},
							{
								"astId": 1882,
								"contract": "contracts/ERC721TokenContractName.sol:ERC721TokenContractName",
								"label": "currentTokens",
								"offset": 2,
								"slot": "0",
								"type": "t_uint16"
							}
						],
						"numberOfBytes": "32"
					},
					"t_uint16": {
						"encoding": "inplace",
						"label": "uint16",
						"numberOfBytes": "2"
					}
				}
			},
			"userdoc": {
				"kind": "user",
				"methods": {},
				"version": 1
			}
		}
	}
}