{
	"contracts/storageTokenContractName.sol": {
		"storageTCN": {
			"abi": [
				{
					"inputs": [
						{
							"internalType": "uint256",
							"name": "proposalState",
							"type": "uint256"
						}
					],
					"name": "stateIsInvalid",
					"type": "error"
				},
				{
					"inputs": [
						{
							"internalType": "uint16",
							"name": "quorumProposal",
							"type": "uint16"
						}
					],
					"name": "isQuorumValid",
					"outputs": [
						{
							"internalType": "bool",
							"name": "",
							"type": "bool"
						}
					],
					"stateMutability": "view",
					"type": "function"
				},
				{
					"inputs": [
						{
							"internalType": "uint256",
							"name": "proposalId",
							"type": "uint256"
						}
					],
					"name": "proposals",
					"outputs": [
						{
							"components": [
								{
									"internalType": "address",
									"name": "proposer",
									"type": "address"
								},
								{
									"internalType": "address",
									"name": "ballotContract",
									"type": "address"
								},
								{
									"internalType": "uint16",
									"name": "quorum",
									"type": "uint16"
								},
								{
									"internalType": "uint32",
									"name": "voteDuration",
									"type": "uint32"
								},
								{
									"internalType": "uint48",
									"name": "voteStart",
									"type": "uint48"
								},
								{
									"internalType": "uint48",
									"name": "etaSeconds",
									"type": "uint48"
								},
								{
									"internalType": "bool",
									"name": "executed",
									"type": "bool"
								},
								{
									"internalType": "bool",
									"name": "canceled",
									"type": "bool"
								},
								{
									"internalType": "bool",
									"name": "Succeeded",
									"type": "bool"
								},
								{
									"internalType": "bool",
									"name": "Defeated",
									"type": "bool"
								}
							],
							"internalType": "struct storageTCN.ProposalCore",
							"name": "",
							"type": "tuple"
						}
					],
					"stateMutability": "view",
					"type": "function"
				},
				{
					"inputs": [
						{
							"internalType": "uint256",
							"name": "time",
							"type": "uint256"
						},
						{
							"internalType": "uint16",
							"name": "tokenId",
							"type": "uint16"
						},
						{
							"internalType": "bytes32",
							"name": "varName",
							"type": "bytes32"
						}
					],
					"name": "setActivityTimeToken",
					"outputs": [],
					"stateMutability": "nonpayable",
					"type": "function"
				},
				{
					"inputs": [
						{
							"internalType": "uint256",
							"name": "proposalState",
							"type": "uint256"
						},
						{
							"internalType": "uint256",
							"name": "proposalId",
							"type": "uint256"
						}
					],
					"name": "setProposalState",
					"outputs": [],
					"stateMutability": "nonpayable",
					"type": "function"
				}
			],
			"devdoc": {
				"kind": "dev",
				"methods": {},
				"version": 1
			},
			"evm": {
				"assembly": "    /* \"contracts/storageTokenContractName.sol\":75:3477  contract storageTCN {... */\n  mstore(0x40, 0x80)\n  callvalue\n  dup1\n  iszero\n  tag_1\n  jumpi\n  0x00\n  dup1\n  revert\ntag_1:\n  pop\n  dataSize(sub_0)\n  dup1\n  dataOffset(sub_0)\n  0x00\n  codecopy\n  0x00\n  return\nstop\n\nsub_0: assembly {\n        /* \"contracts/storageTokenContractName.sol\":75:3477  contract storageTCN {... */\n      mstore(0x40, 0x80)\n      callvalue\n      dup1\n      iszero\n      tag_1\n      jumpi\n      0x00\n      dup1\n      revert\n    tag_1:\n      pop\n      jumpi(tag_2, lt(calldatasize, 0x04))\n      shr(0xe0, calldataload(0x00))\n      dup1\n      0x013cf08b\n      eq\n      tag_3\n      jumpi\n      dup1\n      0x0702718e\n      eq\n      tag_4\n      jumpi\n      dup1\n      0x1e9608a8\n      eq\n      tag_5\n      jumpi\n      dup1\n      0xc5301082\n      eq\n      tag_6\n      jumpi\n    tag_2:\n      0x00\n      dup1\n      revert\n        /* \"contracts/storageTokenContractName.sol\":2765:2894  function proposals(uint256 proposalId) public view returns (ProposalCore memory) {... */\n    tag_3:\n      tag_7\n      0x04\n      dup1\n      calldatasize\n      sub\n      dup2\n      add\n      swap1\n      tag_8\n      swap2\n      swap1\n      tag_9\n      jump\t// in\n    tag_8:\n      tag_10\n      jump\t// in\n    tag_7:\n      mload(0x40)\n      tag_11\n      swap2\n      swap1\n      tag_12\n      jump\t// in\n    tag_11:\n      mload(0x40)\n      dup1\n      swap2\n      sub\n      swap1\n      return\n        /* \"contracts/storageTokenContractName.sol\":2094:2757  function isQuorumValid(uint16 quorumProposal) public view returns (bool) {... */\n    tag_4:\n      tag_13\n      0x04\n      dup1\n      calldatasize\n      sub\n      dup2\n      add\n      swap1\n      tag_14\n      swap2\n      swap1\n      tag_15\n      jump\t// in\n    tag_14:\n      tag_16\n      jump\t// in\n    tag_13:\n      mload(0x40)\n      tag_17\n      swap2\n      swap1\n      tag_18\n      jump\t// in\n    tag_17:\n      mload(0x40)\n      dup1\n      swap2\n      sub\n      swap1\n      return\n        /* \"contracts/storageTokenContractName.sol\":2902:3472  function setProposalState(uint256 proposalState, uint256 proposalId) public {... */\n    tag_5:\n      tag_19\n      0x04\n      dup1\n      calldatasize\n      sub\n      dup2\n      add\n      swap1\n      tag_20\n      swap2\n      swap1\n      tag_21\n      jump\t// in\n    tag_20:\n      tag_22\n      jump\t// in\n    tag_19:\n      stop\n        /* \"contracts/storageTokenContractName.sol\":862:2086  function setActivityTimeToken(uint256 time, uint16 tokenId, bytes32 varName) public {... */\n    tag_6:\n      tag_23\n      0x04\n      dup1\n      calldatasize\n      sub\n      dup2\n      add\n      swap1\n      tag_24\n      swap2\n      swap1\n      tag_25\n      jump\t// in\n    tag_24:\n      tag_26\n      jump\t// in\n    tag_23:\n      stop\n        /* \"contracts/storageTokenContractName.sol\":2765:2894  function proposals(uint256 proposalId) public view returns (ProposalCore memory) {... */\n    tag_10:\n        /* \"contracts/storageTokenContractName.sol\":2825:2844  ProposalCore memory */\n      tag_27\n      tag_28\n      jump\t// in\n    tag_27:\n        /* \"contracts/storageTokenContractName.sol\":2864:2874  _proposals */\n      0x03c4\n        /* \"contracts/storageTokenContractName.sol\":2864:2886  _proposals[proposalId] */\n      0x00\n        /* \"contracts/storageTokenContractName.sol\":2875:2885  proposalId */\n      dup4\n        /* \"contracts/storageTokenContractName.sol\":2864:2886  _proposals[proposalId] */\n      dup2\n      mstore\n      0x20\n      add\n      swap1\n      dup2\n      mstore\n      0x20\n      add\n      0x00\n      keccak256\n        /* \"contracts/storageTokenContractName.sol\":2857:2886  return _proposals[proposalId] */\n      mload(0x40)\n      dup1\n      0x0140\n      add\n      0x40\n      mstore\n      swap1\n      dup2\n      0x00\n      dup3\n      add\n      0x00\n      swap1\n      sload\n      swap1\n      0x0100\n      exp\n      swap1\n      div\n      0xffffffffffffffffffffffffffffffffffffffff\n      and\n      0xffffffffffffffffffffffffffffffffffffffff\n      and\n      0xffffffffffffffffffffffffffffffffffffffff\n      and\n      dup2\n      mstore\n      0x20\n      add\n      0x01\n      dup3\n      add\n      0x00\n      swap1\n      sload\n      swap1\n      0x0100\n      exp\n      swap1\n      div\n      0xffffffffffffffffffffffffffffffffffffffff\n      and\n      0xffffffffffffffffffffffffffffffffffffffff\n      and\n      0xffffffffffffffffffffffffffffffffffffffff\n      and\n      dup2\n      mstore\n      0x20\n      add\n      0x01\n      dup3\n      add\n      0x14\n      swap1\n      sload\n      swap1\n      0x0100\n      exp\n      swap1\n      div\n      0xffff\n      and\n      0xffff\n      and\n      0xffff\n      and\n      dup2\n      mstore\n      0x20\n      add\n      0x01\n      dup3\n      add\n      0x16\n      swap1\n      sload\n      swap1\n      0x0100\n      exp\n      swap1\n      div\n      0xffffffff\n      and\n      0xffffffff\n      and\n      0xffffffff\n      and\n      dup2\n      mstore\n      0x20\n      add\n      0x01\n      dup3\n      add\n      0x1a\n      swap1\n      sload\n      swap1\n      0x0100\n      exp\n      swap1\n      div\n      0xffffffffffff\n      and\n      0xffffffffffff\n      and\n      0xffffffffffff\n      and\n      dup2\n      mstore\n      0x20\n      add\n      0x02\n      dup3\n      add\n      0x00\n      swap1\n      sload\n      swap1\n      0x0100\n      exp\n      swap1\n      div\n      0xffffffffffff\n      and\n      0xffffffffffff\n      and\n      0xffffffffffff\n      and\n      dup2\n      mstore\n      0x20\n      add\n      0x02\n      dup3\n      add\n      0x06\n      swap1\n      sload\n      swap1\n      0x0100\n      exp\n      swap1\n      div\n      0xff\n      and\n      iszero\n      iszero\n      iszero\n      iszero\n      dup2\n      mstore\n      0x20\n      add\n      0x02\n      dup3\n      add\n      0x07\n      swap1\n      sload\n      swap1\n      0x0100\n      exp\n      swap1\n      div\n      0xff\n      and\n      iszero\n      iszero\n      iszero\n      iszero\n      dup2\n      mstore\n      0x20\n      add\n      0x02\n      dup3\n      add\n      0x08\n      swap1\n      sload\n      swap1\n      0x0100\n      exp\n      swap1\n      div\n      0xff\n      and\n      iszero\n      iszero\n      iszero\n      iszero\n      dup2\n      mstore\n      0x20\n      add\n      0x02\n      dup3\n      add\n      0x09\n      swap1\n      sload\n      swap1\n      0x0100\n      exp\n      swap1\n      div\n      0xff\n      and\n      iszero\n      iszero\n      iszero\n      iszero\n      dup2\n      mstore\n      pop\n      pop\n      swap1\n      pop\n        /* \"contracts/storageTokenContractName.sol\":2765:2894  function proposals(uint256 proposalId) public view returns (ProposalCore memory) {... */\n      swap2\n      swap1\n      pop\n      jump\t// out\n        /* \"contracts/storageTokenContractName.sol\":2094:2757  function isQuorumValid(uint16 quorumProposal) public view returns (bool) {... */\n    tag_16:\n        /* \"contracts/storageTokenContractName.sol\":2161:2165  bool */\n      0x00\n        /* \"contracts/storageTokenContractName.sol\":2178:2197  uint256 currentTime */\n      dup1\n        /* \"contracts/storageTokenContractName.sol\":2200:2215  block.timestamp */\n      timestamp\n        /* \"contracts/storageTokenContractName.sol\":2178:2215  uint256 currentTime = block.timestamp */\n      swap1\n      pop\n        /* \"contracts/storageTokenContractName.sol\":2226:2243  uint48 sampleTime */\n      0x00\n        /* \"contracts/storageTokenContractName.sol\":2267:2274  60 days */\n      0x4f1a00\n        /* \"contracts/storageTokenContractName.sol\":2253:2264  currentTime */\n      dup3\n        /* \"contracts/storageTokenContractName.sol\":2253:2274  currentTime - 60 days */\n      tag_31\n      swap2\n      swap1\n      tag_32\n      jump\t// in\n    tag_31:\n        /* \"contracts/storageTokenContractName.sol\":2226:2275  uint48 sampleTime = uint48(currentTime - 60 days) */\n      swap1\n      pop\n        /* \"contracts/storageTokenContractName.sol\":2286:2304  uint16 activeToken */\n      0x00\n        /* \"contracts/storageTokenContractName.sol\":2315:2323  uint16 i */\n      dup1\n        /* \"contracts/storageTokenContractName.sol\":2343:2344  1 */\n      0x01\n        /* \"contracts/storageTokenContractName.sol\":2339:2344  i = 1 */\n      swap1\n      pop\n        /* \"contracts/storageTokenContractName.sol\":2334:2566  for (i = 1; i <= 1200; i++) {... */\n    tag_33:\n        /* \"contracts/storageTokenContractName.sol\":2351:2355  1200 */\n      0x04b0\n        /* \"contracts/storageTokenContractName.sol\":2346:2347  i */\n      dup2\n        /* \"contracts/storageTokenContractName.sol\":2346:2355  i <= 1200 */\n      0xffff\n      and\n      gt\n        /* \"contracts/storageTokenContractName.sol\":2334:2566  for (i = 1; i <= 1200; i++) {... */\n      tag_34\n      jumpi\n        /* \"contracts/storageTokenContractName.sol\":2412:2413  0 */\n      0x00\n        /* \"contracts/storageTokenContractName.sol\":2381:2398  activityTimeToken */\n      dup1\n        /* \"contracts/storageTokenContractName.sol\":2381:2405  activityTimeToken.forAny */\n      0x00\n      add\n        /* \"contracts/storageTokenContractName.sol\":2406:2407  i */\n      dup3\n        /* \"contracts/storageTokenContractName.sol\":2381:2408  activityTimeToken.forAny[i] */\n      0xffff\n      and\n      0x04b1\n      dup2\n      lt\n      tag_36\n      jumpi\n      tag_37\n      tag_38\n      jump\t// in\n    tag_37:\n    tag_36:\n      0x05\n      swap2\n      dup3\n      dup3\n      div\n      add\n      swap2\n      swap1\n      mod\n      0x06\n      mul\n      swap1\n      sload\n      swap1\n      0x0100\n      exp\n      swap1\n      div\n      0xffffffffffff\n      and\n        /* \"contracts/storageTokenContractName.sol\":2381:2413  activityTimeToken.forAny[i] == 0 */\n      0xffffffffffff\n      and\n      sub\n        /* \"contracts/storageTokenContractName.sol\":2377:2555  if (activityTimeToken.forAny[i] == 0) {... */\n      iszero\n        /* \"contracts/storageTokenContractName.sol\":2434:2439  break */\n      tag_34\n        /* \"contracts/storageTokenContractName.sol\":2377:2555  if (activityTimeToken.forAny[i] == 0) {... */\n      jumpi\n        /* \"contracts/storageTokenContractName.sol\":2478:2495  activityTimeToken */\n      0x00\n        /* \"contracts/storageTokenContractName.sol\":2478:2502  activityTimeToken.forAny */\n      dup1\n      add\n        /* \"contracts/storageTokenContractName.sol\":2503:2504  i */\n      dup2\n        /* \"contracts/storageTokenContractName.sol\":2478:2505  activityTimeToken.forAny[i] */\n      0xffff\n      and\n      0x04b1\n      dup2\n      lt\n      tag_42\n      jumpi\n      tag_43\n      tag_38\n      jump\t// in\n    tag_43:\n    tag_42:\n      0x05\n      swap2\n      dup3\n      dup3\n      div\n      add\n      swap2\n      swap1\n      mod\n      0x06\n      mul\n      swap1\n      sload\n      swap1\n      0x0100\n      exp\n      swap1\n      div\n      0xffffffffffff\n      and\n        /* \"contracts/storageTokenContractName.sol\":2465:2505  sampleTime < activityTimeToken.forAny[i] */\n      0xffffffffffff\n      and\n        /* \"contracts/storageTokenContractName.sol\":2465:2475  sampleTime */\n      dup4\n        /* \"contracts/storageTokenContractName.sol\":2465:2505  sampleTime < activityTimeToken.forAny[i] */\n      0xffffffffffff\n      and\n      lt\n        /* \"contracts/storageTokenContractName.sol\":2461:2555  if (sampleTime < activityTimeToken.forAny[i]) {... */\n      iszero\n      tag_45\n      jumpi\n        /* \"contracts/storageTokenContractName.sol\":2526:2539  ++activeToken */\n      dup2\n      tag_46\n      swap1\n      tag_47\n      jump\t// in\n    tag_46:\n      swap2\n      pop\n        /* \"contracts/storageTokenContractName.sol\":2461:2555  if (sampleTime < activityTimeToken.forAny[i]) {... */\n    tag_45:\n        /* \"contracts/storageTokenContractName.sol\":2357:2360  i++ */\n      dup1\n      dup1\n      tag_48\n      swap1\n      tag_47\n      jump\t// in\n    tag_48:\n      swap2\n      pop\n      pop\n        /* \"contracts/storageTokenContractName.sol\":2334:2566  for (i = 1; i <= 1200; i++) {... */\n      jump(tag_33)\n    tag_34:\n        /* \"contracts/storageTokenContractName.sol\":2600:2601  2 */\n      0x02\n        /* \"contracts/storageTokenContractName.sol\":2598:2599  i */\n      dup2\n        /* \"contracts/storageTokenContractName.sol\":2598:2601  i/2 */\n      tag_49\n      swap2\n      swap1\n      tag_50\n      jump\t// in\n    tag_49:\n        /* \"contracts/storageTokenContractName.sol\":2580:2602  quorumProposal > (i/2) */\n      0xffff\n      and\n        /* \"contracts/storageTokenContractName.sol\":2580:2594  quorumProposal */\n      dup7\n        /* \"contracts/storageTokenContractName.sol\":2580:2602  quorumProposal > (i/2) */\n      0xffff\n      and\n      gt\n        /* \"contracts/storageTokenContractName.sol\":2576:2749  if (quorumProposal > (i/2)) {... */\n      iszero\n      tag_51\n      jumpi\n        /* \"contracts/storageTokenContractName.sol\":2626:2630  true */\n      0x01\n        /* \"contracts/storageTokenContractName.sol\":2619:2630  return true */\n      swap5\n      pop\n      pop\n      pop\n      pop\n      pop\n      jump(tag_30)\n        /* \"contracts/storageTokenContractName.sol\":2576:2749  if (quorumProposal > (i/2)) {... */\n    tag_51:\n        /* \"contracts/storageTokenContractName.sol\":2690:2692  70 */\n      0x46\n        /* \"contracts/storageTokenContractName.sol\":2683:2686  100 */\n      0x64\n        /* \"contracts/storageTokenContractName.sol\":2668:2679  activeToken */\n      dup4\n        /* \"contracts/storageTokenContractName.sol\":2653:2667  quorumProposal */\n      dup9\n        /* \"contracts/storageTokenContractName.sol\":2653:2679  quorumProposal/activeToken */\n      tag_53\n      swap2\n      swap1\n      tag_50\n      jump\t// in\n    tag_53:\n        /* \"contracts/storageTokenContractName.sol\":2652:2686  (quorumProposal/activeToken) * 100 */\n      tag_54\n      swap2\n      swap1\n      tag_55\n      jump\t// in\n    tag_54:\n        /* \"contracts/storageTokenContractName.sol\":2651:2692  ((quorumProposal/activeToken) * 100) > 70 */\n      0xffff\n      and\n      gt\n        /* \"contracts/storageTokenContractName.sol\":2647:2749  if (((quorumProposal/activeToken) * 100) > 70) {... */\n      iszero\n      tag_56\n      jumpi\n        /* \"contracts/storageTokenContractName.sol\":2716:2720  true */\n      0x01\n        /* \"contracts/storageTokenContractName.sol\":2709:2720  return true */\n      swap5\n      pop\n      pop\n      pop\n      pop\n      pop\n      jump(tag_30)\n        /* \"contracts/storageTokenContractName.sol\":2647:2749  if (((quorumProposal/activeToken) * 100) > 70) {... */\n    tag_56:\n        /* \"contracts/storageTokenContractName.sol\":2744:2749  false */\n      0x00\n        /* \"contracts/storageTokenContractName.sol\":2737:2749  return false */\n      swap5\n      pop\n      pop\n      pop\n      pop\n      pop\n        /* \"contracts/storageTokenContractName.sol\":2094:2757  function isQuorumValid(uint16 quorumProposal) public view returns (bool) {... */\n    tag_30:\n      swap2\n      swap1\n      pop\n      jump\t// out\n        /* \"contracts/storageTokenContractName.sol\":2902:3472  function setProposalState(uint256 proposalState, uint256 proposalId) public {... */\n    tag_22:\n        /* \"contracts/storageTokenContractName.sol\":2998:3011  proposalState */\n      dup2\n        /* \"contracts/storageTokenContractName.sol\":2993:2994  2 */\n      0x02\n        /* \"contracts/storageTokenContractName.sol\":2993:3011  2 >= proposalState */\n      lt\n      iszero\n        /* \"contracts/storageTokenContractName.sol\":2993:3033  2 >= proposalState || proposalState >= 5 */\n      dup1\n      tag_59\n      jumpi\n      pop\n        /* \"contracts/storageTokenContractName.sol\":3032:3033  5 */\n      0x05\n        /* \"contracts/storageTokenContractName.sol\":3015:3028  proposalState */\n      dup3\n        /* \"contracts/storageTokenContractName.sol\":3015:3033  proposalState >= 5 */\n      lt\n      iszero\n        /* \"contracts/storageTokenContractName.sol\":2993:3033  2 >= proposalState || proposalState >= 5 */\n    tag_59:\n        /* \"contracts/storageTokenContractName.sol\":2989:3098  if (2 >= proposalState || proposalState >= 5) {... */\n      iszero\n      tag_60\n      jumpi\n        /* \"contracts/storageTokenContractName.sol\":3072:3085  proposalState */\n      dup2\n        /* \"contracts/storageTokenContractName.sol\":3057:3086  stateIsInvalid(proposalState) */\n      mload(0x40)\n      0x4961771d00000000000000000000000000000000000000000000000000000000\n      dup2\n      mstore\n      0x04\n      add\n      tag_61\n      swap2\n      swap1\n      tag_62\n      jump\t// in\n    tag_61:\n      mload(0x40)\n      dup1\n      swap2\n      sub\n      swap1\n      revert\n        /* \"contracts/storageTokenContractName.sol\":2989:3098  if (2 >= proposalState || proposalState >= 5) {... */\n    tag_60:\n        /* \"contracts/storageTokenContractName.sol\":3129:3130  4 */\n      0x04\n        /* \"contracts/storageTokenContractName.sol\":3112:3125  proposalState */\n      dup3\n        /* \"contracts/storageTokenContractName.sol\":3112:3130  proposalState == 4 */\n      sub\n        /* \"contracts/storageTokenContractName.sol\":3108:3465  if (proposalState == 4) {... */\n      tag_63\n      jumpi\n        /* \"contracts/storageTokenContractName.sol\":3182:3186  true */\n      0x01\n        /* \"contracts/storageTokenContractName.sol\":3147:3157  _proposals */\n      0x03c4\n        /* \"contracts/storageTokenContractName.sol\":3147:3169  _proposals[proposalId] */\n      0x00\n        /* \"contracts/storageTokenContractName.sol\":3158:3168  proposalId */\n      dup4\n        /* \"contracts/storageTokenContractName.sol\":3147:3169  _proposals[proposalId] */\n      dup2\n      mstore\n      0x20\n      add\n      swap1\n      dup2\n      mstore\n      0x20\n      add\n      0x00\n      keccak256\n        /* \"contracts/storageTokenContractName.sol\":3147:3179  _proposals[proposalId].Succeeded */\n      0x02\n      add\n      0x08\n        /* \"contracts/storageTokenContractName.sol\":3147:3186  _proposals[proposalId].Succeeded = true */\n      0x0100\n      exp\n      dup2\n      sload\n      dup2\n      0xff\n      mul\n      not\n      and\n      swap1\n      dup4\n      iszero\n      iszero\n      mul\n      or\n      swap1\n      sstore\n      pop\n        /* \"contracts/storageTokenContractName.sol\":3108:3465  if (proposalState == 4) {... */\n      jump(tag_64)\n    tag_63:\n        /* \"contracts/storageTokenContractName.sol\":3227:3228  3 */\n      0x03\n        /* \"contracts/storageTokenContractName.sol\":3210:3223  proposalState */\n      dup3\n        /* \"contracts/storageTokenContractName.sol\":3210:3228  proposalState == 3 */\n      sub\n        /* \"contracts/storageTokenContractName.sol\":3206:3465  if (proposalState == 3) {... */\n      tag_65\n      jumpi\n        /* \"contracts/storageTokenContractName.sol\":3279:3283  true */\n      0x01\n        /* \"contracts/storageTokenContractName.sol\":3245:3255  _proposals */\n      0x03c4\n        /* \"contracts/storageTokenContractName.sol\":3245:3267  _proposals[proposalId] */\n      0x00\n        /* \"contracts/storageTokenContractName.sol\":3256:3266  proposalId */\n      dup4\n        /* \"contracts/storageTokenContractName.sol\":3245:3267  _proposals[proposalId] */\n      dup2\n      mstore\n      0x20\n      add\n      swap1\n      dup2\n      mstore\n      0x20\n      add\n      0x00\n      keccak256\n        /* \"contracts/storageTokenContractName.sol\":3245:3276  _proposals[proposalId].Defeated */\n      0x02\n      add\n      0x09\n        /* \"contracts/storageTokenContractName.sol\":3245:3283  _proposals[proposalId].Defeated = true */\n      0x0100\n      exp\n      dup2\n      sload\n      dup2\n      0xff\n      mul\n      not\n      and\n      swap1\n      dup4\n      iszero\n      iszero\n      mul\n      or\n      swap1\n      sstore\n      pop\n        /* \"contracts/storageTokenContractName.sol\":3206:3465  if (proposalState == 3) {... */\n      jump(tag_66)\n    tag_65:\n        /* \"contracts/storageTokenContractName.sol\":3324:3325  5 */\n      0x05\n        /* \"contracts/storageTokenContractName.sol\":3307:3320  proposalState */\n      dup3\n        /* \"contracts/storageTokenContractName.sol\":3307:3325  proposalState == 5 */\n      sub\n        /* \"contracts/storageTokenContractName.sol\":3303:3465  if (proposalState == 5) {... */\n      tag_67\n      jumpi\n        /* \"contracts/storageTokenContractName.sol\":3376:3380  true */\n      0x01\n        /* \"contracts/storageTokenContractName.sol\":3342:3352  _proposals */\n      0x03c4\n        /* \"contracts/storageTokenContractName.sol\":3342:3364  _proposals[proposalId] */\n      0x00\n        /* \"contracts/storageTokenContractName.sol\":3353:3363  proposalId */\n      dup4\n        /* \"contracts/storageTokenContractName.sol\":3342:3364  _proposals[proposalId] */\n      dup2\n      mstore\n      0x20\n      add\n      swap1\n      dup2\n      mstore\n      0x20\n      add\n      0x00\n      keccak256\n        /* \"contracts/storageTokenContractName.sol\":3342:3373  _proposals[proposalId].executed */\n      0x02\n      add\n      0x06\n        /* \"contracts/storageTokenContractName.sol\":3342:3380  _proposals[proposalId].executed = true */\n      0x0100\n      exp\n      dup2\n      sload\n      dup2\n      0xff\n      mul\n      not\n      and\n      swap1\n      dup4\n      iszero\n      iszero\n      mul\n      or\n      swap1\n      sstore\n      pop\n        /* \"contracts/storageTokenContractName.sol\":3303:3465  if (proposalState == 5) {... */\n      jump(tag_68)\n    tag_67:\n        /* \"contracts/storageTokenContractName.sol\":3449:3453  true */\n      0x01\n        /* \"contracts/storageTokenContractName.sol\":3415:3425  _proposals */\n      0x03c4\n        /* \"contracts/storageTokenContractName.sol\":3415:3437  _proposals[proposalId] */\n      0x00\n        /* \"contracts/storageTokenContractName.sol\":3426:3436  proposalId */\n      dup4\n        /* \"contracts/storageTokenContractName.sol\":3415:3437  _proposals[proposalId] */\n      dup2\n      mstore\n      0x20\n      add\n      swap1\n      dup2\n      mstore\n      0x20\n      add\n      0x00\n      keccak256\n        /* \"contracts/storageTokenContractName.sol\":3415:3446  _proposals[proposalId].canceled */\n      0x02\n      add\n      0x07\n        /* \"contracts/storageTokenContractName.sol\":3415:3453  _proposals[proposalId].canceled = true */\n      0x0100\n      exp\n      dup2\n      sload\n      dup2\n      0xff\n      mul\n      not\n      and\n      swap1\n      dup4\n      iszero\n      iszero\n      mul\n      or\n      swap1\n      sstore\n      pop\n        /* \"contracts/storageTokenContractName.sol\":3303:3465  if (proposalState == 5) {... */\n    tag_68:\n        /* \"contracts/storageTokenContractName.sol\":3206:3465  if (proposalState == 3) {... */\n    tag_66:\n        /* \"contracts/storageTokenContractName.sol\":3108:3465  if (proposalState == 4) {... */\n    tag_64:\n        /* \"contracts/storageTokenContractName.sol\":2902:3472  function setProposalState(uint256 proposalState, uint256 proposalId) public {... */\n      pop\n      pop\n      jump\t// out\n        /* \"contracts/storageTokenContractName.sol\":862:2086  function setActivityTimeToken(uint256 time, uint16 tokenId, bytes32 varName) public {... */\n    tag_26:\n        /* \"contracts/storageTokenContractName.sol\":957:973  bytes32 varName_ */\n      0x00\n        /* \"contracts/storageTokenContractName.sol\":1003:1010  varName */\n      dup2\n        /* \"contracts/storageTokenContractName.sol\":986:1011  abi.encodePacked(varName) */\n      add(0x20, mload(0x40))\n      tag_70\n      swap2\n      swap1\n      tag_71\n      jump\t// in\n    tag_70:\n      mload(0x40)\n      0x20\n      dup2\n      dup4\n      sub\n      sub\n      dup2\n      mstore\n      swap1\n      0x40\n      mstore\n        /* \"contracts/storageTokenContractName.sol\":976:1012  keccak256(abi.encodePacked(varName)) */\n      dup1\n      mload\n      swap1\n      0x20\n      add\n      keccak256\n        /* \"contracts/storageTokenContractName.sol\":957:1012  bytes32 varName_ = keccak256(abi.encodePacked(varName)) */\n      swap1\n      pop\n        /* \"contracts/storageTokenContractName.sol\":1023:1035  uint48 time_ */\n      0x00\n        /* \"contracts/storageTokenContractName.sol\":1045:1049  time */\n      dup5\n        /* \"contracts/storageTokenContractName.sol\":1023:1050  uint48 time_ = uint48(time) */\n      swap1\n      pop\n        /* \"contracts/storageTokenContractName.sol\":1105:1113  varName_ */\n      dup2\n        /* \"contracts/storageTokenContractName.sol\":1074:1100  abi.encodePacked(\"forAny\") */\n      add(0x20, mload(0x40))\n      tag_72\n      swap1\n      tag_73\n      jump\t// in\n    tag_72:\n      mload(0x40)\n      0x20\n      dup2\n      dup4\n      sub\n      sub\n      dup2\n      mstore\n      swap1\n      0x40\n      mstore\n        /* \"contracts/storageTokenContractName.sol\":1064:1101  keccak256(abi.encodePacked(\"forAny\")) */\n      dup1\n      mload\n      swap1\n      0x20\n      add\n      keccak256\n        /* \"contracts/storageTokenContractName.sol\":1064:1113  keccak256(abi.encodePacked(\"forAny\")) == varName_ */\n      sub\n        /* \"contracts/storageTokenContractName.sol\":1060:2079  if (keccak256(abi.encodePacked(\"forAny\")) == varName_) {... */\n      tag_74\n      jumpi\n        /* \"contracts/storageTokenContractName.sol\":1162:1167  time_ */\n      dup1\n        /* \"contracts/storageTokenContractName.sol\":1126:1143  activityTimeToken */\n      0x00\n        /* \"contracts/storageTokenContractName.sol\":1126:1150  activityTimeToken.forAny */\n      dup1\n      add\n        /* \"contracts/storageTokenContractName.sol\":1151:1158  tokenId */\n      dup6\n        /* \"contracts/storageTokenContractName.sol\":1126:1159  activityTimeToken.forAny[tokenId] */\n      0xffff\n      and\n      0x04b1\n      dup2\n      lt\n      tag_75\n      jumpi\n      tag_76\n      tag_38\n      jump\t// in\n    tag_76:\n    tag_75:\n      0x05\n      swap2\n      dup3\n      dup3\n      div\n      add\n      swap2\n      swap1\n      mod\n      0x06\n      mul\n        /* \"contracts/storageTokenContractName.sol\":1126:1167  activityTimeToken.forAny[tokenId] = time_ */\n      0x0100\n      exp\n      dup2\n      sload\n      dup2\n      0xffffffffffff\n      mul\n      not\n      and\n      swap1\n      dup4\n      0xffffffffffff\n      and\n      mul\n      or\n      swap1\n      sstore\n      pop\n        /* \"contracts/storageTokenContractName.sol\":1209:1210  1 */\n      0x01\n        /* \"contracts/storageTokenContractName.sol\":1178:1195  activityTimeToken */\n      0x00\n        /* \"contracts/storageTokenContractName.sol\":1178:1202  activityTimeToken.forAny */\n      dup1\n      add\n        /* \"contracts/storageTokenContractName.sol\":1203:1204  0 */\n      0x00\n        /* \"contracts/storageTokenContractName.sol\":1178:1205  activityTimeToken.forAny[0] */\n      0x04b1\n      dup2\n      lt\n      tag_78\n      jumpi\n      tag_79\n      tag_38\n      jump\t// in\n    tag_79:\n    tag_78:\n      0x05\n      swap2\n      dup3\n      dup3\n      div\n      add\n      swap2\n      swap1\n      mod\n      0x06\n      mul\n        /* \"contracts/storageTokenContractName.sol\":1178:1210  activityTimeToken.forAny[0] += 1 */\n      dup3\n      dup3\n      dup3\n      swap1\n      sload\n      swap1\n      0x0100\n      exp\n      swap1\n      div\n      0xffffffffffff\n      and\n      tag_81\n      swap2\n      swap1\n      tag_82\n      jump\t// in\n    tag_81:\n      swap3\n      pop\n      0x0100\n      exp\n      dup2\n      sload\n      dup2\n      0xffffffffffff\n      mul\n      not\n      and\n      swap1\n      dup4\n      0xffffffffffff\n      and\n      mul\n      or\n      swap1\n      sstore\n      pop\n        /* \"contracts/storageTokenContractName.sol\":1060:2079  if (keccak256(abi.encodePacked(\"forAny\")) == varName_) {... */\n      jump(tag_83)\n    tag_74:\n        /* \"contracts/storageTokenContractName.sol\":1282:1290  varName_ */\n      dup2\n        /* \"contracts/storageTokenContractName.sol\":1241:1277  abi.encodePacked(\"lastPartiAuction\") */\n      add(0x20, mload(0x40))\n      tag_84\n      swap1\n      tag_85\n      jump\t// in\n    tag_84:\n      mload(0x40)\n      0x20\n      dup2\n      dup4\n      sub\n      sub\n      dup2\n      mstore\n      swap1\n      0x40\n      mstore\n        /* \"contracts/storageTokenContractName.sol\":1231:1278  keccak256(abi.encodePacked(\"lastPartiAuction\")) */\n      dup1\n      mload\n      swap1\n      0x20\n      add\n      keccak256\n        /* \"contracts/storageTokenContractName.sol\":1231:1290  keccak256(abi.encodePacked(\"lastPartiAuction\")) == varName_ */\n      sub\n        /* \"contracts/storageTokenContractName.sol\":1227:2079  if (keccak256(abi.encodePacked(\"lastPartiAuction\")) == varName_) {... */\n      tag_86\n      jumpi\n        /* \"contracts/storageTokenContractName.sol\":1339:1344  time_ */\n      dup1\n        /* \"contracts/storageTokenContractName.sol\":1303:1320  activityTimeToken */\n      0x00\n        /* \"contracts/storageTokenContractName.sol\":1303:1327  activityTimeToken.forAny */\n      dup1\n      add\n        /* \"contracts/storageTokenContractName.sol\":1328:1335  tokenId */\n      dup6\n        /* \"contracts/storageTokenContractName.sol\":1303:1336  activityTimeToken.forAny[tokenId] */\n      0xffff\n      and\n      0x04b1\n      dup2\n      lt\n      tag_87\n      jumpi\n      tag_88\n      tag_38\n      jump\t// in\n    tag_88:\n    tag_87:\n      0x05\n      swap2\n      dup3\n      dup3\n      div\n      add\n      swap2\n      swap1\n      mod\n      0x06\n      mul\n        /* \"contracts/storageTokenContractName.sol\":1303:1344  activityTimeToken.forAny[tokenId] = time_ */\n      0x0100\n      exp\n      dup2\n      sload\n      dup2\n      0xffffffffffff\n      mul\n      not\n      and\n      swap1\n      dup4\n      0xffffffffffff\n      and\n      mul\n      or\n      swap1\n      sstore\n      pop\n        /* \"contracts/storageTokenContractName.sol\":1386:1387  1 */\n      0x01\n        /* \"contracts/storageTokenContractName.sol\":1355:1372  activityTimeToken */\n      0x00\n        /* \"contracts/storageTokenContractName.sol\":1355:1379  activityTimeToken.forAny */\n      dup1\n      add\n        /* \"contracts/storageTokenContractName.sol\":1380:1381  0 */\n      0x00\n        /* \"contracts/storageTokenContractName.sol\":1355:1382  activityTimeToken.forAny[0] */\n      0x04b1\n      dup2\n      lt\n      tag_90\n      jumpi\n      tag_91\n      tag_38\n      jump\t// in\n    tag_91:\n    tag_90:\n      0x05\n      swap2\n      dup3\n      dup3\n      div\n      add\n      swap2\n      swap1\n      mod\n      0x06\n      mul\n        /* \"contracts/storageTokenContractName.sol\":1355:1387  activityTimeToken.forAny[0] += 1 */\n      dup3\n      dup3\n      dup3\n      swap1\n      sload\n      swap1\n      0x0100\n      exp\n      swap1\n      div\n      0xffffffffffff\n      and\n      tag_93\n      swap2\n      swap1\n      tag_82\n      jump\t// in\n    tag_93:\n      swap3\n      pop\n      0x0100\n      exp\n      dup2\n      sload\n      dup2\n      0xffffffffffff\n      mul\n      not\n      and\n      swap1\n      dup4\n      0xffffffffffff\n      and\n      mul\n      or\n      swap1\n      sstore\n      pop\n        /* \"contracts/storageTokenContractName.sol\":1444:1449  time_ */\n      dup1\n        /* \"contracts/storageTokenContractName.sol\":1398:1415  activityTimeToken */\n      0x00\n        /* \"contracts/storageTokenContractName.sol\":1398:1432  activityTimeToken.lastPartiAuction */\n      0x01e2\n      add\n        /* \"contracts/storageTokenContractName.sol\":1433:1440  tokenId */\n      dup6\n        /* \"contracts/storageTokenContractName.sol\":1398:1441  activityTimeToken.lastPartiAuction[tokenId] */\n      0xffff\n      and\n      0x04b1\n      dup2\n      lt\n      tag_94\n      jumpi\n      tag_95\n      tag_38\n      jump\t// in\n    tag_95:\n    tag_94:\n      0x05\n      swap2\n      dup3\n      dup3\n      div\n      add\n      swap2\n      swap1\n      mod\n      0x06\n      mul\n        /* \"contracts/storageTokenContractName.sol\":1398:1449  activityTimeToken.lastPartiAuction[tokenId] = time_ */\n      0x0100\n      exp\n      dup2\n      sload\n      dup2\n      0xffffffffffff\n      mul\n      not\n      and\n      swap1\n      dup4\n      0xffffffffffff\n      and\n      mul\n      or\n      swap1\n      sstore\n      pop\n        /* \"contracts/storageTokenContractName.sol\":1501:1502  1 */\n      0x01\n        /* \"contracts/storageTokenContractName.sol\":1460:1477  activityTimeToken */\n      0x00\n        /* \"contracts/storageTokenContractName.sol\":1460:1494  activityTimeToken.lastPartiAuction */\n      0x01e2\n      add\n        /* \"contracts/storageTokenContractName.sol\":1495:1496  0 */\n      0x00\n        /* \"contracts/storageTokenContractName.sol\":1460:1497  activityTimeToken.lastPartiAuction[0] */\n      0x04b1\n      dup2\n      lt\n      tag_97\n      jumpi\n      tag_98\n      tag_38\n      jump\t// in\n    tag_98:\n    tag_97:\n      0x05\n      swap2\n      dup3\n      dup3\n      div\n      add\n      swap2\n      swap1\n      mod\n      0x06\n      mul\n        /* \"contracts/storageTokenContractName.sol\":1460:1502  activityTimeToken.lastPartiAuction[0] += 1 */\n      dup3\n      dup3\n      dup3\n      swap1\n      sload\n      swap1\n      0x0100\n      exp\n      swap1\n      div\n      0xffffffffffff\n      and\n      tag_100\n      swap2\n      swap1\n      tag_82\n      jump\t// in\n    tag_100:\n      swap3\n      pop\n      0x0100\n      exp\n      dup2\n      sload\n      dup2\n      0xffffffffffff\n      mul\n      not\n      and\n      swap1\n      dup4\n      0xffffffffffff\n      and\n      mul\n      or\n      swap1\n      sstore\n      pop\n        /* \"contracts/storageTokenContractName.sol\":1227:2079  if (keccak256(abi.encodePacked(\"lastPartiAuction\")) == varName_) {... */\n      jump(tag_101)\n    tag_86:\n        /* \"contracts/storageTokenContractName.sol\":1572:1580  varName_ */\n      dup2\n        /* \"contracts/storageTokenContractName.sol\":1533:1567  abi.encodePacked(\"lastSucAuction\") */\n      add(0x20, mload(0x40))\n      tag_102\n      swap1\n      tag_103\n      jump\t// in\n    tag_102:\n      mload(0x40)\n      0x20\n      dup2\n      dup4\n      sub\n      sub\n      dup2\n      mstore\n      swap1\n      0x40\n      mstore\n        /* \"contracts/storageTokenContractName.sol\":1523:1568  keccak256(abi.encodePacked(\"lastSucAuction\")) */\n      dup1\n      mload\n      swap1\n      0x20\n      add\n      keccak256\n        /* \"contracts/storageTokenContractName.sol\":1523:1580  keccak256(abi.encodePacked(\"lastSucAuction\")) == varName_ */\n      sub\n        /* \"contracts/storageTokenContractName.sol\":1519:2079  if (keccak256(abi.encodePacked(\"lastSucAuction\")) == varName_) {... */\n      tag_104\n      jumpi\n        /* \"contracts/storageTokenContractName.sol\":1629:1634  time_ */\n      dup1\n        /* \"contracts/storageTokenContractName.sol\":1593:1610  activityTimeToken */\n      0x00\n        /* \"contracts/storageTokenContractName.sol\":1593:1617  activityTimeToken.forAny */\n      dup1\n      add\n        /* \"contracts/storageTokenContractName.sol\":1618:1625  tokenId */\n      dup6\n        /* \"contracts/storageTokenContractName.sol\":1593:1626  activityTimeToken.forAny[tokenId] */\n      0xffff\n      and\n      0x04b1\n      dup2\n      lt\n      tag_105\n      jumpi\n      tag_106\n      tag_38\n      jump\t// in\n    tag_106:\n    tag_105:\n      0x05\n      swap2\n      dup3\n      dup3\n      div\n      add\n      swap2\n      swap1\n      mod\n      0x06\n      mul\n        /* \"contracts/storageTokenContractName.sol\":1593:1634  activityTimeToken.forAny[tokenId] = time_ */\n      0x0100\n      exp\n      dup2\n      sload\n      dup2\n      0xffffffffffff\n      mul\n      not\n      and\n      swap1\n      dup4\n      0xffffffffffff\n      and\n      mul\n      or\n      swap1\n      sstore\n      pop\n        /* \"contracts/storageTokenContractName.sol\":1676:1677  1 */\n      0x01\n        /* \"contracts/storageTokenContractName.sol\":1645:1662  activityTimeToken */\n      0x00\n        /* \"contracts/storageTokenContractName.sol\":1645:1669  activityTimeToken.forAny */\n      dup1\n      add\n        /* \"contracts/storageTokenContractName.sol\":1670:1671  0 */\n      0x00\n        /* \"contracts/storageTokenContractName.sol\":1645:1672  activityTimeToken.forAny[0] */\n      0x04b1\n      dup2\n      lt\n      tag_108\n      jumpi\n      tag_109\n      tag_38\n      jump\t// in\n    tag_109:\n    tag_108:\n      0x05\n      swap2\n      dup3\n      dup3\n      div\n      add\n      swap2\n      swap1\n      mod\n      0x06\n      mul\n        /* \"contracts/storageTokenContractName.sol\":1645:1677  activityTimeToken.forAny[0] += 1 */\n      dup3\n      dup3\n      dup3\n      swap1\n      sload\n      swap1\n      0x0100\n      exp\n      swap1\n      div\n      0xffffffffffff\n      and\n      tag_111\n      swap2\n      swap1\n      tag_82\n      jump\t// in\n    tag_111:\n      swap3\n      pop\n      0x0100\n      exp\n      dup2\n      sload\n      dup2\n      0xffffffffffff\n      mul\n      not\n      and\n      swap1\n      dup4\n      0xffffffffffff\n      and\n      mul\n      or\n      swap1\n      sstore\n      pop\n        /* \"contracts/storageTokenContractName.sol\":1732:1737  time_ */\n      dup1\n        /* \"contracts/storageTokenContractName.sol\":1688:1705  activityTimeToken */\n      0x00\n        /* \"contracts/storageTokenContractName.sol\":1688:1720  activityTimeToken.lastSucAuction */\n      0x02d3\n      add\n        /* \"contracts/storageTokenContractName.sol\":1721:1728  tokenId */\n      dup6\n        /* \"contracts/storageTokenContractName.sol\":1688:1729  activityTimeToken.lastSucAuction[tokenId] */\n      0xffff\n      and\n      0x04b1\n      dup2\n      lt\n      tag_112\n      jumpi\n      tag_113\n      tag_38\n      jump\t// in\n    tag_113:\n    tag_112:\n      0x05\n      swap2\n      dup3\n      dup3\n      div\n      add\n      swap2\n      swap1\n      mod\n      0x06\n      mul\n        /* \"contracts/storageTokenContractName.sol\":1688:1737  activityTimeToken.lastSucAuction[tokenId] = time_ */\n      0x0100\n      exp\n      dup2\n      sload\n      dup2\n      0xffffffffffff\n      mul\n      not\n      and\n      swap1\n      dup4\n      0xffffffffffff\n      and\n      mul\n      or\n      swap1\n      sstore\n      pop\n        /* \"contracts/storageTokenContractName.sol\":1787:1788  1 */\n      0x01\n        /* \"contracts/storageTokenContractName.sol\":1748:1765  activityTimeToken */\n      0x00\n        /* \"contracts/storageTokenContractName.sol\":1748:1780  activityTimeToken.lastSucAuction */\n      0x02d3\n      add\n        /* \"contracts/storageTokenContractName.sol\":1781:1782  0 */\n      0x00\n        /* \"contracts/storageTokenContractName.sol\":1748:1783  activityTimeToken.lastSucAuction[0] */\n      0x04b1\n      dup2\n      lt\n      tag_115\n      jumpi\n      tag_116\n      tag_38\n      jump\t// in\n    tag_116:\n    tag_115:\n      0x05\n      swap2\n      dup3\n      dup3\n      div\n      add\n      swap2\n      swap1\n      mod\n      0x06\n      mul\n        /* \"contracts/storageTokenContractName.sol\":1748:1788  activityTimeToken.lastSucAuction[0] += 1 */\n      dup3\n      dup3\n      dup3\n      swap1\n      sload\n      swap1\n      0x0100\n      exp\n      swap1\n      div\n      0xffffffffffff\n      and\n      tag_118\n      swap2\n      swap1\n      tag_82\n      jump\t// in\n    tag_118:\n      swap3\n      pop\n      0x0100\n      exp\n      dup2\n      sload\n      dup2\n      0xffffffffffff\n      mul\n      not\n      and\n      swap1\n      dup4\n      0xffffffffffff\n      and\n      mul\n      or\n      swap1\n      sstore\n      pop\n        /* \"contracts/storageTokenContractName.sol\":1519:2079  if (keccak256(abi.encodePacked(\"lastSucAuction\")) == varName_) {... */\n      jump(tag_119)\n    tag_104:\n        /* \"contracts/storageTokenContractName.sol\":1856:1864  varName_ */\n      dup2\n        /* \"contracts/storageTokenContractName.sol\":1819:1851  abi.encodePacked(\"lastTransfer\") */\n      add(0x20, mload(0x40))\n      tag_120\n      swap1\n      tag_121\n      jump\t// in\n    tag_120:\n      mload(0x40)\n      0x20\n      dup2\n      dup4\n      sub\n      sub\n      dup2\n      mstore\n      swap1\n      0x40\n      mstore\n        /* \"contracts/storageTokenContractName.sol\":1809:1852  keccak256(abi.encodePacked(\"lastTransfer\")) */\n      dup1\n      mload\n      swap1\n      0x20\n      add\n      keccak256\n        /* \"contracts/storageTokenContractName.sol\":1809:1864  keccak256(abi.encodePacked(\"lastTransfer\")) == varName_ */\n      sub\n        /* \"contracts/storageTokenContractName.sol\":1805:2079  if (keccak256(abi.encodePacked(\"lastTransfer\")) == varName_) {... */\n      tag_122\n      jumpi\n        /* \"contracts/storageTokenContractName.sol\":1913:1918  time_ */\n      dup1\n        /* \"contracts/storageTokenContractName.sol\":1877:1894  activityTimeToken */\n      0x00\n        /* \"contracts/storageTokenContractName.sol\":1877:1901  activityTimeToken.forAny */\n      dup1\n      add\n        /* \"contracts/storageTokenContractName.sol\":1902:1909  tokenId */\n      dup6\n        /* \"contracts/storageTokenContractName.sol\":1877:1910  activityTimeToken.forAny[tokenId] */\n      0xffff\n      and\n      0x04b1\n      dup2\n      lt\n      tag_123\n      jumpi\n      tag_124\n      tag_38\n      jump\t// in\n    tag_124:\n    tag_123:\n      0x05\n      swap2\n      dup3\n      dup3\n      div\n      add\n      swap2\n      swap1\n      mod\n      0x06\n      mul\n        /* \"contracts/storageTokenContractName.sol\":1877:1918  activityTimeToken.forAny[tokenId] = time_ */\n      0x0100\n      exp\n      dup2\n      sload\n      dup2\n      0xffffffffffff\n      mul\n      not\n      and\n      swap1\n      dup4\n      0xffffffffffff\n      and\n      mul\n      or\n      swap1\n      sstore\n      pop\n        /* \"contracts/storageTokenContractName.sol\":1960:1961  1 */\n      0x01\n        /* \"contracts/storageTokenContractName.sol\":1929:1946  activityTimeToken */\n      0x00\n        /* \"contracts/storageTokenContractName.sol\":1929:1953  activityTimeToken.forAny */\n      dup1\n      add\n        /* \"contracts/storageTokenContractName.sol\":1954:1955  0 */\n      0x00\n        /* \"contracts/storageTokenContractName.sol\":1929:1956  activityTimeToken.forAny[0] */\n      0x04b1\n      dup2\n      lt\n      tag_126\n      jumpi\n      tag_127\n      tag_38\n      jump\t// in\n    tag_127:\n    tag_126:\n      0x05\n      swap2\n      dup3\n      dup3\n      div\n      add\n      swap2\n      swap1\n      mod\n      0x06\n      mul\n        /* \"contracts/storageTokenContractName.sol\":1929:1961  activityTimeToken.forAny[0] += 1 */\n      dup3\n      dup3\n      dup3\n      swap1\n      sload\n      swap1\n      0x0100\n      exp\n      swap1\n      div\n      0xffffffffffff\n      and\n      tag_129\n      swap2\n      swap1\n      tag_82\n      jump\t// in\n    tag_129:\n      swap3\n      pop\n      0x0100\n      exp\n      dup2\n      sload\n      dup2\n      0xffffffffffff\n      mul\n      not\n      and\n      swap1\n      dup4\n      0xffffffffffff\n      and\n      mul\n      or\n      swap1\n      sstore\n      pop\n        /* \"contracts/storageTokenContractName.sol\":2014:2019  time_ */\n      dup1\n        /* \"contracts/storageTokenContractName.sol\":1972:1989  activityTimeToken */\n      0x00\n        /* \"contracts/storageTokenContractName.sol\":1972:2002  activityTimeToken.lastTransfer */\n      0xf1\n      add\n        /* \"contracts/storageTokenContractName.sol\":2003:2010  tokenId */\n      dup6\n        /* \"contracts/storageTokenContractName.sol\":1972:2011  activityTimeToken.lastTransfer[tokenId] */\n      0xffff\n      and\n      0x04b1\n      dup2\n      lt\n      tag_130\n      jumpi\n      tag_131\n      tag_38\n      jump\t// in\n    tag_131:\n    tag_130:\n      0x05\n      swap2\n      dup3\n      dup3\n      div\n      add\n      swap2\n      swap1\n      mod\n      0x06\n      mul\n        /* \"contracts/storageTokenContractName.sol\":1972:2019  activityTimeToken.lastTransfer[tokenId] = time_ */\n      0x0100\n      exp\n      dup2\n      sload\n      dup2\n      0xffffffffffff\n      mul\n      not\n      and\n      swap1\n      dup4\n      0xffffffffffff\n      and\n      mul\n      or\n      swap1\n      sstore\n      pop\n        /* \"contracts/storageTokenContractName.sol\":2067:2068  1 */\n      0x01\n        /* \"contracts/storageTokenContractName.sol\":2030:2047  activityTimeToken */\n      0x00\n        /* \"contracts/storageTokenContractName.sol\":2030:2060  activityTimeToken.lastTransfer */\n      0xf1\n      add\n        /* \"contracts/storageTokenContractName.sol\":2061:2062  0 */\n      0x00\n        /* \"contracts/storageTokenContractName.sol\":2030:2063  activityTimeToken.lastTransfer[0] */\n      0x04b1\n      dup2\n      lt\n      tag_133\n      jumpi\n      tag_134\n      tag_38\n      jump\t// in\n    tag_134:\n    tag_133:\n      0x05\n      swap2\n      dup3\n      dup3\n      div\n      add\n      swap2\n      swap1\n      mod\n      0x06\n      mul\n        /* \"contracts/storageTokenContractName.sol\":2030:2068  activityTimeToken.lastTransfer[0] += 1 */\n      dup3\n      dup3\n      dup3\n      swap1\n      sload\n      swap1\n      0x0100\n      exp\n      swap1\n      div\n      0xffffffffffff\n      and\n      tag_136\n      swap2\n      swap1\n      tag_82\n      jump\t// in\n    tag_136:\n      swap3\n      pop\n      0x0100\n      exp\n      dup2\n      sload\n      dup2\n      0xffffffffffff\n      mul\n      not\n      and\n      swap1\n      dup4\n      0xffffffffffff\n      and\n      mul\n      or\n      swap1\n      sstore\n      pop\n        /* \"contracts/storageTokenContractName.sol\":1805:2079  if (keccak256(abi.encodePacked(\"lastTransfer\")) == varName_) {... */\n    tag_122:\n        /* \"contracts/storageTokenContractName.sol\":1519:2079  if (keccak256(abi.encodePacked(\"lastSucAuction\")) == varName_) {... */\n    tag_119:\n        /* \"contracts/storageTokenContractName.sol\":1227:2079  if (keccak256(abi.encodePacked(\"lastPartiAuction\")) == varName_) {... */\n    tag_101:\n        /* \"contracts/storageTokenContractName.sol\":1060:2079  if (keccak256(abi.encodePacked(\"forAny\")) == varName_) {... */\n    tag_83:\n        /* \"contracts/storageTokenContractName.sol\":946:2086  {... */\n      pop\n      pop\n        /* \"contracts/storageTokenContractName.sol\":862:2086  function setActivityTimeToken(uint256 time, uint16 tokenId, bytes32 varName) public {... */\n      pop\n      pop\n      pop\n      jump\t// out\n    tag_28:\n      mload(0x40)\n      dup1\n      0x0140\n      add\n      0x40\n      mstore\n      dup1\n      and(0xffffffffffffffffffffffffffffffffffffffff, 0x00)\n      dup2\n      mstore\n      0x20\n      add\n      and(0xffffffffffffffffffffffffffffffffffffffff, 0x00)\n      dup2\n      mstore\n      0x20\n      add\n      and(0xffff, 0x00)\n      dup2\n      mstore\n      0x20\n      add\n      and(0xffffffff, 0x00)\n      dup2\n      mstore\n      0x20\n      add\n      and(0xffffffffffff, 0x00)\n      dup2\n      mstore\n      0x20\n      add\n      and(0xffffffffffff, 0x00)\n      dup2\n      mstore\n      0x20\n      add\n      iszero(iszero(0x00))\n      dup2\n      mstore\n      0x20\n      add\n      iszero(iszero(0x00))\n      dup2\n      mstore\n      0x20\n      add\n      iszero(iszero(0x00))\n      dup2\n      mstore\n      0x20\n      add\n      iszero(iszero(0x00))\n      dup2\n      mstore\n      pop\n      swap1\n      jump\t// out\n        /* \"#utility.yul\":88:205   */\n    tag_138:\n        /* \"#utility.yul\":197:198   */\n      0x00\n        /* \"#utility.yul\":194:195   */\n      dup1\n        /* \"#utility.yul\":187:199   */\n      revert\n        /* \"#utility.yul\":334:411   */\n    tag_140:\n        /* \"#utility.yul\":371:378   */\n      0x00\n        /* \"#utility.yul\":400:405   */\n      dup2\n        /* \"#utility.yul\":389:405   */\n      swap1\n      pop\n        /* \"#utility.yul\":334:411   */\n      swap2\n      swap1\n      pop\n      jump\t// out\n        /* \"#utility.yul\":417:539   */\n    tag_141:\n        /* \"#utility.yul\":490:514   */\n      tag_181\n        /* \"#utility.yul\":508:513   */\n      dup2\n        /* \"#utility.yul\":490:514   */\n      tag_140\n      jump\t// in\n    tag_181:\n        /* \"#utility.yul\":483:488   */\n      dup2\n        /* \"#utility.yul\":480:515   */\n      eq\n        /* \"#utility.yul\":470:533   */\n      tag_182\n      jumpi\n        /* \"#utility.yul\":529:530   */\n      0x00\n        /* \"#utility.yul\":526:527   */\n      dup1\n        /* \"#utility.yul\":519:531   */\n      revert\n        /* \"#utility.yul\":470:533   */\n    tag_182:\n        /* \"#utility.yul\":417:539   */\n      pop\n      jump\t// out\n        /* \"#utility.yul\":545:684   */\n    tag_142:\n        /* \"#utility.yul\":591:596   */\n      0x00\n        /* \"#utility.yul\":629:635   */\n      dup2\n        /* \"#utility.yul\":616:636   */\n      calldataload\n        /* \"#utility.yul\":607:636   */\n      swap1\n      pop\n        /* \"#utility.yul\":645:678   */\n      tag_184\n        /* \"#utility.yul\":672:677   */\n      dup2\n        /* \"#utility.yul\":645:678   */\n      tag_141\n      jump\t// in\n    tag_184:\n        /* \"#utility.yul\":545:684   */\n      swap3\n      swap2\n      pop\n      pop\n      jump\t// out\n        /* \"#utility.yul\":690:1019   */\n    tag_9:\n        /* \"#utility.yul\":749:755   */\n      0x00\n        /* \"#utility.yul\":798:800   */\n      0x20\n        /* \"#utility.yul\":786:795   */\n      dup3\n        /* \"#utility.yul\":777:784   */\n      dup5\n        /* \"#utility.yul\":773:796   */\n      sub\n        /* \"#utility.yul\":769:801   */\n      slt\n        /* \"#utility.yul\":766:885   */\n      iszero\n      tag_186\n      jumpi\n        /* \"#utility.yul\":804:883   */\n      tag_187\n      tag_138\n      jump\t// in\n    tag_187:\n        /* \"#utility.yul\":766:885   */\n    tag_186:\n        /* \"#utility.yul\":924:925   */\n      0x00\n        /* \"#utility.yul\":949:1002   */\n      tag_188\n        /* \"#utility.yul\":994:1001   */\n      dup5\n        /* \"#utility.yul\":985:991   */\n      dup3\n        /* \"#utility.yul\":974:983   */\n      dup6\n        /* \"#utility.yul\":970:992   */\n      add\n        /* \"#utility.yul\":949:1002   */\n      tag_142\n      jump\t// in\n    tag_188:\n        /* \"#utility.yul\":939:1002   */\n      swap2\n      pop\n        /* \"#utility.yul\":895:1012   */\n      pop\n        /* \"#utility.yul\":690:1019   */\n      swap3\n      swap2\n      pop\n      pop\n      jump\t// out\n        /* \"#utility.yul\":1025:1151   */\n    tag_143:\n        /* \"#utility.yul\":1062:1069   */\n      0x00\n        /* \"#utility.yul\":1102:1144   */\n      0xffffffffffffffffffffffffffffffffffffffff\n        /* \"#utility.yul\":1095:1100   */\n      dup3\n        /* \"#utility.yul\":1091:1145   */\n      and\n        /* \"#utility.yul\":1080:1145   */\n      swap1\n      pop\n        /* \"#utility.yul\":1025:1151   */\n      swap2\n      swap1\n      pop\n      jump\t// out\n        /* \"#utility.yul\":1157:1253   */\n    tag_144:\n        /* \"#utility.yul\":1194:1201   */\n      0x00\n        /* \"#utility.yul\":1223:1247   */\n      tag_191\n        /* \"#utility.yul\":1241:1246   */\n      dup3\n        /* \"#utility.yul\":1223:1247   */\n      tag_143\n      jump\t// in\n    tag_191:\n        /* \"#utility.yul\":1212:1247   */\n      swap1\n      pop\n        /* \"#utility.yul\":1157:1253   */\n      swap2\n      swap1\n      pop\n      jump\t// out\n        /* \"#utility.yul\":1259:1367   */\n    tag_145:\n        /* \"#utility.yul\":1336:1360   */\n      tag_193\n        /* \"#utility.yul\":1354:1359   */\n      dup2\n        /* \"#utility.yul\":1336:1360   */\n      tag_144\n      jump\t// in\n    tag_193:\n        /* \"#utility.yul\":1331:1334   */\n      dup3\n        /* \"#utility.yul\":1324:1361   */\n      mstore\n        /* \"#utility.yul\":1259:1367   */\n      pop\n      pop\n      jump\t// out\n        /* \"#utility.yul\":1373:1462   */\n    tag_146:\n        /* \"#utility.yul\":1409:1416   */\n      0x00\n        /* \"#utility.yul\":1449:1455   */\n      0xffff\n        /* \"#utility.yul\":1442:1447   */\n      dup3\n        /* \"#utility.yul\":1438:1456   */\n      and\n        /* \"#utility.yul\":1427:1456   */\n      swap1\n      pop\n        /* \"#utility.yul\":1373:1462   */\n      swap2\n      swap1\n      pop\n      jump\t// out\n        /* \"#utility.yul\":1468:1573   */\n    tag_147:\n        /* \"#utility.yul\":1543:1566   */\n      tag_196\n        /* \"#utility.yul\":1560:1565   */\n      dup2\n        /* \"#utility.yul\":1543:1566   */\n      tag_146\n      jump\t// in\n    tag_196:\n        /* \"#utility.yul\":1538:1541   */\n      dup3\n        /* \"#utility.yul\":1531:1567   */\n      mstore\n        /* \"#utility.yul\":1468:1573   */\n      pop\n      pop\n      jump\t// out\n        /* \"#utility.yul\":1579:1672   */\n    tag_148:\n        /* \"#utility.yul\":1615:1622   */\n      0x00\n        /* \"#utility.yul\":1655:1665   */\n      0xffffffff\n        /* \"#utility.yul\":1648:1653   */\n      dup3\n        /* \"#utility.yul\":1644:1666   */\n      and\n        /* \"#utility.yul\":1633:1666   */\n      swap1\n      pop\n        /* \"#utility.yul\":1579:1672   */\n      swap2\n      swap1\n      pop\n      jump\t// out\n        /* \"#utility.yul\":1678:1783   */\n    tag_149:\n        /* \"#utility.yul\":1753:1776   */\n      tag_199\n        /* \"#utility.yul\":1770:1775   */\n      dup2\n        /* \"#utility.yul\":1753:1776   */\n      tag_148\n      jump\t// in\n    tag_199:\n        /* \"#utility.yul\":1748:1751   */\n      dup3\n        /* \"#utility.yul\":1741:1777   */\n      mstore\n        /* \"#utility.yul\":1678:1783   */\n      pop\n      pop\n      jump\t// out\n        /* \"#utility.yul\":1789:1886   */\n    tag_150:\n        /* \"#utility.yul\":1825:1832   */\n      0x00\n        /* \"#utility.yul\":1865:1879   */\n      0xffffffffffff\n        /* \"#utility.yul\":1858:1863   */\n      dup3\n        /* \"#utility.yul\":1854:1880   */\n      and\n        /* \"#utility.yul\":1843:1880   */\n      swap1\n      pop\n        /* \"#utility.yul\":1789:1886   */\n      swap2\n      swap1\n      pop\n      jump\t// out\n        /* \"#utility.yul\":1892:1997   */\n    tag_151:\n        /* \"#utility.yul\":1967:1990   */\n      tag_202\n        /* \"#utility.yul\":1984:1989   */\n      dup2\n        /* \"#utility.yul\":1967:1990   */\n      tag_150\n      jump\t// in\n    tag_202:\n        /* \"#utility.yul\":1962:1965   */\n      dup3\n        /* \"#utility.yul\":1955:1991   */\n      mstore\n        /* \"#utility.yul\":1892:1997   */\n      pop\n      pop\n      jump\t// out\n        /* \"#utility.yul\":2003:2093   */\n    tag_152:\n        /* \"#utility.yul\":2037:2044   */\n      0x00\n        /* \"#utility.yul\":2080:2085   */\n      dup2\n        /* \"#utility.yul\":2073:2086   */\n      iszero\n        /* \"#utility.yul\":2066:2087   */\n      iszero\n        /* \"#utility.yul\":2055:2087   */\n      swap1\n      pop\n        /* \"#utility.yul\":2003:2093   */\n      swap2\n      swap1\n      pop\n      jump\t// out\n        /* \"#utility.yul\":2099:2198   */\n    tag_153:\n        /* \"#utility.yul\":2170:2191   */\n      tag_205\n        /* \"#utility.yul\":2185:2190   */\n      dup2\n        /* \"#utility.yul\":2170:2191   */\n      tag_152\n      jump\t// in\n    tag_205:\n        /* \"#utility.yul\":2165:2168   */\n      dup3\n        /* \"#utility.yul\":2158:2192   */\n      mstore\n        /* \"#utility.yul\":2099:2198   */\n      pop\n      pop\n      jump\t// out\n        /* \"#utility.yul\":2276:4211   */\n    tag_154:\n        /* \"#utility.yul\":2429:2435   */\n      0x0140\n        /* \"#utility.yul\":2424:2427   */\n      dup3\n        /* \"#utility.yul\":2420:2436   */\n      add\n        /* \"#utility.yul\":2522:2526   */\n      0x00\n        /* \"#utility.yul\":2515:2520   */\n      dup3\n        /* \"#utility.yul\":2511:2527   */\n      add\n        /* \"#utility.yul\":2505:2528   */\n      mload\n        /* \"#utility.yul\":2541:2604   */\n      tag_207\n        /* \"#utility.yul\":2598:2602   */\n      0x00\n        /* \"#utility.yul\":2593:2596   */\n      dup6\n        /* \"#utility.yul\":2589:2603   */\n      add\n        /* \"#utility.yul\":2575:2587   */\n      dup3\n        /* \"#utility.yul\":2541:2604   */\n      tag_145\n      jump\t// in\n    tag_207:\n        /* \"#utility.yul\":2446:2614   */\n      pop\n        /* \"#utility.yul\":2706:2710   */\n      0x20\n        /* \"#utility.yul\":2699:2704   */\n      dup3\n        /* \"#utility.yul\":2695:2711   */\n      add\n        /* \"#utility.yul\":2689:2712   */\n      mload\n        /* \"#utility.yul\":2725:2788   */\n      tag_208\n        /* \"#utility.yul\":2782:2786   */\n      0x20\n        /* \"#utility.yul\":2777:2780   */\n      dup6\n        /* \"#utility.yul\":2773:2787   */\n      add\n        /* \"#utility.yul\":2759:2771   */\n      dup3\n        /* \"#utility.yul\":2725:2788   */\n      tag_145\n      jump\t// in\n    tag_208:\n        /* \"#utility.yul\":2624:2798   */\n      pop\n        /* \"#utility.yul\":2882:2886   */\n      0x40\n        /* \"#utility.yul\":2875:2880   */\n      dup3\n        /* \"#utility.yul\":2871:2887   */\n      add\n        /* \"#utility.yul\":2865:2888   */\n      mload\n        /* \"#utility.yul\":2901:2962   */\n      tag_209\n        /* \"#utility.yul\":2956:2960   */\n      0x40\n        /* \"#utility.yul\":2951:2954   */\n      dup6\n        /* \"#utility.yul\":2947:2961   */\n      add\n        /* \"#utility.yul\":2933:2945   */\n      dup3\n        /* \"#utility.yul\":2901:2962   */\n      tag_147\n      jump\t// in\n    tag_209:\n        /* \"#utility.yul\":2808:2972   */\n      pop\n        /* \"#utility.yul\":3062:3066   */\n      0x60\n        /* \"#utility.yul\":3055:3060   */\n      dup3\n        /* \"#utility.yul\":3051:3067   */\n      add\n        /* \"#utility.yul\":3045:3068   */\n      mload\n        /* \"#utility.yul\":3081:3142   */\n      tag_210\n        /* \"#utility.yul\":3136:3140   */\n      0x60\n        /* \"#utility.yul\":3131:3134   */\n      dup6\n        /* \"#utility.yul\":3127:3141   */\n      add\n        /* \"#utility.yul\":3113:3125   */\n      dup3\n        /* \"#utility.yul\":3081:3142   */\n      tag_149\n      jump\t// in\n    tag_210:\n        /* \"#utility.yul\":2982:3152   */\n      pop\n        /* \"#utility.yul\":3239:3243   */\n      0x80\n        /* \"#utility.yul\":3232:3237   */\n      dup3\n        /* \"#utility.yul\":3228:3244   */\n      add\n        /* \"#utility.yul\":3222:3245   */\n      mload\n        /* \"#utility.yul\":3258:3319   */\n      tag_211\n        /* \"#utility.yul\":3313:3317   */\n      0x80\n        /* \"#utility.yul\":3308:3311   */\n      dup6\n        /* \"#utility.yul\":3304:3318   */\n      add\n        /* \"#utility.yul\":3290:3302   */\n      dup3\n        /* \"#utility.yul\":3258:3319   */\n      tag_151\n      jump\t// in\n    tag_211:\n        /* \"#utility.yul\":3162:3329   */\n      pop\n        /* \"#utility.yul\":3417:3421   */\n      0xa0\n        /* \"#utility.yul\":3410:3415   */\n      dup3\n        /* \"#utility.yul\":3406:3422   */\n      add\n        /* \"#utility.yul\":3400:3423   */\n      mload\n        /* \"#utility.yul\":3436:3497   */\n      tag_212\n        /* \"#utility.yul\":3491:3495   */\n      0xa0\n        /* \"#utility.yul\":3486:3489   */\n      dup6\n        /* \"#utility.yul\":3482:3496   */\n      add\n        /* \"#utility.yul\":3468:3480   */\n      dup3\n        /* \"#utility.yul\":3436:3497   */\n      tag_151\n      jump\t// in\n    tag_212:\n        /* \"#utility.yul\":3339:3507   */\n      pop\n        /* \"#utility.yul\":3593:3597   */\n      0xc0\n        /* \"#utility.yul\":3586:3591   */\n      dup3\n        /* \"#utility.yul\":3582:3598   */\n      add\n        /* \"#utility.yul\":3576:3599   */\n      mload\n        /* \"#utility.yul\":3612:3669   */\n      tag_213\n        /* \"#utility.yul\":3663:3667   */\n      0xc0\n        /* \"#utility.yul\":3658:3661   */\n      dup6\n        /* \"#utility.yul\":3654:3668   */\n      add\n        /* \"#utility.yul\":3640:3652   */\n      dup3\n        /* \"#utility.yul\":3612:3669   */\n      tag_153\n      jump\t// in\n    tag_213:\n        /* \"#utility.yul\":3517:3679   */\n      pop\n        /* \"#utility.yul\":3765:3769   */\n      0xe0\n        /* \"#utility.yul\":3758:3763   */\n      dup3\n        /* \"#utility.yul\":3754:3770   */\n      add\n        /* \"#utility.yul\":3748:3771   */\n      mload\n        /* \"#utility.yul\":3784:3841   */\n      tag_214\n        /* \"#utility.yul\":3835:3839   */\n      0xe0\n        /* \"#utility.yul\":3830:3833   */\n      dup6\n        /* \"#utility.yul\":3826:3840   */\n      add\n        /* \"#utility.yul\":3812:3824   */\n      dup3\n        /* \"#utility.yul\":3784:3841   */\n      tag_153\n      jump\t// in\n    tag_214:\n        /* \"#utility.yul\":3689:3851   */\n      pop\n        /* \"#utility.yul\":3938:3944   */\n      0x0100\n        /* \"#utility.yul\":3931:3936   */\n      dup3\n        /* \"#utility.yul\":3927:3945   */\n      add\n        /* \"#utility.yul\":3921:3946   */\n      mload\n        /* \"#utility.yul\":3959:4018   */\n      tag_215\n        /* \"#utility.yul\":4010:4016   */\n      0x0100\n        /* \"#utility.yul\":4005:4008   */\n      dup6\n        /* \"#utility.yul\":4001:4017   */\n      add\n        /* \"#utility.yul\":3987:3999   */\n      dup3\n        /* \"#utility.yul\":3959:4018   */\n      tag_153\n      jump\t// in\n    tag_215:\n        /* \"#utility.yul\":3861:4028   */\n      pop\n        /* \"#utility.yul\":4114:4120   */\n      0x0120\n        /* \"#utility.yul\":4107:4112   */\n      dup3\n        /* \"#utility.yul\":4103:4121   */\n      add\n        /* \"#utility.yul\":4097:4122   */\n      mload\n        /* \"#utility.yul\":4135:4194   */\n      tag_216\n        /* \"#utility.yul\":4186:4192   */\n      0x0120\n        /* \"#utility.yul\":4181:4184   */\n      dup6\n        /* \"#utility.yul\":4177:4193   */\n      add\n        /* \"#utility.yul\":4163:4175   */\n      dup3\n        /* \"#utility.yul\":4135:4194   */\n      tag_153\n      jump\t// in\n    tag_216:\n        /* \"#utility.yul\":4038:4204   */\n      pop\n        /* \"#utility.yul\":2398:4211   */\n      pop\n        /* \"#utility.yul\":2276:4211   */\n      pop\n      pop\n      jump\t// out\n        /* \"#utility.yul\":4217:4552   */\n    tag_12:\n        /* \"#utility.yul\":4366:4370   */\n      0x00\n        /* \"#utility.yul\":4404:4407   */\n      0x0140\n        /* \"#utility.yul\":4393:4402   */\n      dup3\n        /* \"#utility.yul\":4389:4408   */\n      add\n        /* \"#utility.yul\":4381:4408   */\n      swap1\n      pop\n        /* \"#utility.yul\":4418:4545   */\n      tag_218\n        /* \"#utility.yul\":4542:4543   */\n      0x00\n        /* \"#utility.yul\":4531:4540   */\n      dup4\n        /* \"#utility.yul\":4527:4544   */\n      add\n        /* \"#utility.yul\":4518:4524   */\n      dup5\n        /* \"#utility.yul\":4418:4545   */\n      tag_154\n      jump\t// in\n    tag_218:\n        /* \"#utility.yul\":4217:4552   */\n      swap3\n      swap2\n      pop\n      pop\n      jump\t// out\n        /* \"#utility.yul\":4558:4678   */\n    tag_155:\n        /* \"#utility.yul\":4630:4653   */\n      tag_220\n        /* \"#utility.yul\":4647:4652   */\n      dup2\n        /* \"#utility.yul\":4630:4653   */\n      tag_146\n      jump\t// in\n    tag_220:\n        /* \"#utility.yul\":4623:4628   */\n      dup2\n        /* \"#utility.yul\":4620:4654   */\n      eq\n        /* \"#utility.yul\":4610:4672   */\n      tag_221\n      jumpi\n        /* \"#utility.yul\":4668:4669   */\n      0x00\n        /* \"#utility.yul\":4665:4666   */\n      dup1\n        /* \"#utility.yul\":4658:4670   */\n      revert\n        /* \"#utility.yul\":4610:4672   */\n    tag_221:\n        /* \"#utility.yul\":4558:4678   */\n      pop\n      jump\t// out\n        /* \"#utility.yul\":4684:4821   */\n    tag_156:\n        /* \"#utility.yul\":4729:4734   */\n      0x00\n        /* \"#utility.yul\":4767:4773   */\n      dup2\n        /* \"#utility.yul\":4754:4774   */\n      calldataload\n        /* \"#utility.yul\":4745:4774   */\n      swap1\n      pop\n        /* \"#utility.yul\":4783:4815   */\n      tag_223\n        /* \"#utility.yul\":4809:4814   */\n      dup2\n        /* \"#utility.yul\":4783:4815   */\n      tag_155\n      jump\t// in\n    tag_223:\n        /* \"#utility.yul\":4684:4821   */\n      swap3\n      swap2\n      pop\n      pop\n      jump\t// out\n        /* \"#utility.yul\":4827:5154   */\n    tag_15:\n        /* \"#utility.yul\":4885:4891   */\n      0x00\n        /* \"#utility.yul\":4934:4936   */\n      0x20\n        /* \"#utility.yul\":4922:4931   */\n      dup3\n        /* \"#utility.yul\":4913:4920   */\n      dup5\n        /* \"#utility.yul\":4909:4932   */\n      sub\n        /* \"#utility.yul\":4905:4937   */\n      slt\n        /* \"#utility.yul\":4902:5021   */\n      iszero\n      tag_225\n      jumpi\n        /* \"#utility.yul\":4940:5019   */\n      tag_226\n      tag_138\n      jump\t// in\n    tag_226:\n        /* \"#utility.yul\":4902:5021   */\n    tag_225:\n        /* \"#utility.yul\":5060:5061   */\n      0x00\n        /* \"#utility.yul\":5085:5137   */\n      tag_227\n        /* \"#utility.yul\":5129:5136   */\n      dup5\n        /* \"#utility.yul\":5120:5126   */\n      dup3\n        /* \"#utility.yul\":5109:5118   */\n      dup6\n        /* \"#utility.yul\":5105:5127   */\n      add\n        /* \"#utility.yul\":5085:5137   */\n      tag_156\n      jump\t// in\n    tag_227:\n        /* \"#utility.yul\":5075:5137   */\n      swap2\n      pop\n        /* \"#utility.yul\":5031:5147   */\n      pop\n        /* \"#utility.yul\":4827:5154   */\n      swap3\n      swap2\n      pop\n      pop\n      jump\t// out\n        /* \"#utility.yul\":5160:5269   */\n    tag_157:\n        /* \"#utility.yul\":5241:5262   */\n      tag_229\n        /* \"#utility.yul\":5256:5261   */\n      dup2\n        /* \"#utility.yul\":5241:5262   */\n      tag_152\n      jump\t// in\n    tag_229:\n        /* \"#utility.yul\":5236:5239   */\n      dup3\n        /* \"#utility.yul\":5229:5263   */\n      mstore\n        /* \"#utility.yul\":5160:5269   */\n      pop\n      pop\n      jump\t// out\n        /* \"#utility.yul\":5275:5485   */\n    tag_18:\n        /* \"#utility.yul\":5362:5366   */\n      0x00\n        /* \"#utility.yul\":5400:5402   */\n      0x20\n        /* \"#utility.yul\":5389:5398   */\n      dup3\n        /* \"#utility.yul\":5385:5403   */\n      add\n        /* \"#utility.yul\":5377:5403   */\n      swap1\n      pop\n        /* \"#utility.yul\":5413:5478   */\n      tag_231\n        /* \"#utility.yul\":5475:5476   */\n      0x00\n        /* \"#utility.yul\":5464:5473   */\n      dup4\n        /* \"#utility.yul\":5460:5477   */\n      add\n        /* \"#utility.yul\":5451:5457   */\n      dup5\n        /* \"#utility.yul\":5413:5478   */\n      tag_157\n      jump\t// in\n    tag_231:\n        /* \"#utility.yul\":5275:5485   */\n      swap3\n      swap2\n      pop\n      pop\n      jump\t// out\n        /* \"#utility.yul\":5491:5965   */\n    tag_21:\n        /* \"#utility.yul\":5559:5565   */\n      0x00\n        /* \"#utility.yul\":5567:5573   */\n      dup1\n        /* \"#utility.yul\":5616:5618   */\n      0x40\n        /* \"#utility.yul\":5604:5613   */\n      dup4\n        /* \"#utility.yul\":5595:5602   */\n      dup6\n        /* \"#utility.yul\":5591:5614   */\n      sub\n        /* \"#utility.yul\":5587:5619   */\n      slt\n        /* \"#utility.yul\":5584:5703   */\n      iszero\n      tag_233\n      jumpi\n        /* \"#utility.yul\":5622:5701   */\n      tag_234\n      tag_138\n      jump\t// in\n    tag_234:\n        /* \"#utility.yul\":5584:5703   */\n    tag_233:\n        /* \"#utility.yul\":5742:5743   */\n      0x00\n        /* \"#utility.yul\":5767:5820   */\n      tag_235\n        /* \"#utility.yul\":5812:5819   */\n      dup6\n        /* \"#utility.yul\":5803:5809   */\n      dup3\n        /* \"#utility.yul\":5792:5801   */\n      dup7\n        /* \"#utility.yul\":5788:5810   */\n      add\n        /* \"#utility.yul\":5767:5820   */\n      tag_142\n      jump\t// in\n    tag_235:\n        /* \"#utility.yul\":5757:5820   */\n      swap3\n      pop\n        /* \"#utility.yul\":5713:5830   */\n      pop\n        /* \"#utility.yul\":5869:5871   */\n      0x20\n        /* \"#utility.yul\":5895:5948   */\n      tag_236\n        /* \"#utility.yul\":5940:5947   */\n      dup6\n        /* \"#utility.yul\":5931:5937   */\n      dup3\n        /* \"#utility.yul\":5920:5929   */\n      dup7\n        /* \"#utility.yul\":5916:5938   */\n      add\n        /* \"#utility.yul\":5895:5948   */\n      tag_142\n      jump\t// in\n    tag_236:\n        /* \"#utility.yul\":5885:5948   */\n      swap2\n      pop\n        /* \"#utility.yul\":5840:5958   */\n      pop\n        /* \"#utility.yul\":5491:5965   */\n      swap3\n      pop\n      swap3\n      swap1\n      pop\n      jump\t// out\n        /* \"#utility.yul\":5971:6048   */\n    tag_158:\n        /* \"#utility.yul\":6008:6015   */\n      0x00\n        /* \"#utility.yul\":6037:6042   */\n      dup2\n        /* \"#utility.yul\":6026:6042   */\n      swap1\n      pop\n        /* \"#utility.yul\":5971:6048   */\n      swap2\n      swap1\n      pop\n      jump\t// out\n        /* \"#utility.yul\":6054:6176   */\n    tag_159:\n        /* \"#utility.yul\":6127:6151   */\n      tag_239\n        /* \"#utility.yul\":6145:6150   */\n      dup2\n        /* \"#utility.yul\":6127:6151   */\n      tag_158\n      jump\t// in\n    tag_239:\n        /* \"#utility.yul\":6120:6125   */\n      dup2\n        /* \"#utility.yul\":6117:6152   */\n      eq\n        /* \"#utility.yul\":6107:6170   */\n      tag_240\n      jumpi\n        /* \"#utility.yul\":6166:6167   */\n      0x00\n        /* \"#utility.yul\":6163:6164   */\n      dup1\n        /* \"#utility.yul\":6156:6168   */\n      revert\n        /* \"#utility.yul\":6107:6170   */\n    tag_240:\n        /* \"#utility.yul\":6054:6176   */\n      pop\n      jump\t// out\n        /* \"#utility.yul\":6182:6321   */\n    tag_160:\n        /* \"#utility.yul\":6228:6233   */\n      0x00\n        /* \"#utility.yul\":6266:6272   */\n      dup2\n        /* \"#utility.yul\":6253:6273   */\n      calldataload\n        /* \"#utility.yul\":6244:6273   */\n      swap1\n      pop\n        /* \"#utility.yul\":6282:6315   */\n      tag_242\n        /* \"#utility.yul\":6309:6314   */\n      dup2\n        /* \"#utility.yul\":6282:6315   */\n      tag_159\n      jump\t// in\n    tag_242:\n        /* \"#utility.yul\":6182:6321   */\n      swap3\n      swap2\n      pop\n      pop\n      jump\t// out\n        /* \"#utility.yul\":6327:6944   */\n    tag_25:\n        /* \"#utility.yul\":6403:6409   */\n      0x00\n        /* \"#utility.yul\":6411:6417   */\n      dup1\n        /* \"#utility.yul\":6419:6425   */\n      0x00\n        /* \"#utility.yul\":6468:6470   */\n      0x60\n        /* \"#utility.yul\":6456:6465   */\n      dup5\n        /* \"#utility.yul\":6447:6454   */\n      dup7\n        /* \"#utility.yul\":6443:6466   */\n      sub\n        /* \"#utility.yul\":6439:6471   */\n      slt\n        /* \"#utility.yul\":6436:6555   */\n      iszero\n      tag_244\n      jumpi\n        /* \"#utility.yul\":6474:6553   */\n      tag_245\n      tag_138\n      jump\t// in\n    tag_245:\n        /* \"#utility.yul\":6436:6555   */\n    tag_244:\n        /* \"#utility.yul\":6594:6595   */\n      0x00\n        /* \"#utility.yul\":6619:6672   */\n      tag_246\n        /* \"#utility.yul\":6664:6671   */\n      dup7\n        /* \"#utility.yul\":6655:6661   */\n      dup3\n        /* \"#utility.yul\":6644:6653   */\n      dup8\n        /* \"#utility.yul\":6640:6662   */\n      add\n        /* \"#utility.yul\":6619:6672   */\n      tag_142\n      jump\t// in\n    tag_246:\n        /* \"#utility.yul\":6609:6672   */\n      swap4\n      pop\n        /* \"#utility.yul\":6565:6682   */\n      pop\n        /* \"#utility.yul\":6721:6723   */\n      0x20\n        /* \"#utility.yul\":6747:6799   */\n      tag_247\n        /* \"#utility.yul\":6791:6798   */\n      dup7\n        /* \"#utility.yul\":6782:6788   */\n      dup3\n        /* \"#utility.yul\":6771:6780   */\n      dup8\n        /* \"#utility.yul\":6767:6789   */\n      add\n        /* \"#utility.yul\":6747:6799   */\n      tag_156\n      jump\t// in\n    tag_247:\n        /* \"#utility.yul\":6737:6799   */\n      swap3\n      pop\n        /* \"#utility.yul\":6692:6809   */\n      pop\n        /* \"#utility.yul\":6848:6850   */\n      0x40\n        /* \"#utility.yul\":6874:6927   */\n      tag_248\n        /* \"#utility.yul\":6919:6926   */\n      dup7\n        /* \"#utility.yul\":6910:6916   */\n      dup3\n        /* \"#utility.yul\":6899:6908   */\n      dup8\n        /* \"#utility.yul\":6895:6917   */\n      add\n        /* \"#utility.yul\":6874:6927   */\n      tag_160\n      jump\t// in\n    tag_248:\n        /* \"#utility.yul\":6864:6927   */\n      swap2\n      pop\n        /* \"#utility.yul\":6819:6937   */\n      pop\n        /* \"#utility.yul\":6327:6944   */\n      swap3\n      pop\n      swap3\n      pop\n      swap3\n      jump\t// out\n        /* \"#utility.yul\":6950:7130   */\n    tag_161:\n        /* \"#utility.yul\":6998:7075   */\n      0x4e487b7100000000000000000000000000000000000000000000000000000000\n        /* \"#utility.yul\":6995:6996   */\n      0x00\n        /* \"#utility.yul\":6988:7076   */\n      mstore\n        /* \"#utility.yul\":7095:7099   */\n      0x11\n        /* \"#utility.yul\":7092:7093   */\n      0x04\n        /* \"#utility.yul\":7085:7100   */\n      mstore\n        /* \"#utility.yul\":7119:7123   */\n      0x24\n        /* \"#utility.yul\":7116:7117   */\n      0x00\n        /* \"#utility.yul\":7109:7124   */\n      revert\n        /* \"#utility.yul\":7136:7330   */\n    tag_32:\n        /* \"#utility.yul\":7176:7180   */\n      0x00\n        /* \"#utility.yul\":7196:7216   */\n      tag_251\n        /* \"#utility.yul\":7214:7215   */\n      dup3\n        /* \"#utility.yul\":7196:7216   */\n      tag_140\n      jump\t// in\n    tag_251:\n        /* \"#utility.yul\":7191:7216   */\n      swap2\n      pop\n        /* \"#utility.yul\":7230:7250   */\n      tag_252\n        /* \"#utility.yul\":7248:7249   */\n      dup4\n        /* \"#utility.yul\":7230:7250   */\n      tag_140\n      jump\t// in\n    tag_252:\n        /* \"#utility.yul\":7225:7250   */\n      swap3\n      pop\n        /* \"#utility.yul\":7274:7275   */\n      dup3\n        /* \"#utility.yul\":7271:7272   */\n      dup3\n        /* \"#utility.yul\":7267:7276   */\n      sub\n        /* \"#utility.yul\":7259:7276   */\n      swap1\n      pop\n        /* \"#utility.yul\":7298:7299   */\n      dup2\n        /* \"#utility.yul\":7292:7296   */\n      dup2\n        /* \"#utility.yul\":7289:7300   */\n      gt\n        /* \"#utility.yul\":7286:7323   */\n      iszero\n      tag_253\n      jumpi\n        /* \"#utility.yul\":7303:7321   */\n      tag_254\n      tag_161\n      jump\t// in\n    tag_254:\n        /* \"#utility.yul\":7286:7323   */\n    tag_253:\n        /* \"#utility.yul\":7136:7330   */\n      swap3\n      swap2\n      pop\n      pop\n      jump\t// out\n        /* \"#utility.yul\":7336:7516   */\n    tag_38:\n        /* \"#utility.yul\":7384:7461   */\n      0x4e487b7100000000000000000000000000000000000000000000000000000000\n        /* \"#utility.yul\":7381:7382   */\n      0x00\n        /* \"#utility.yul\":7374:7462   */\n      mstore\n        /* \"#utility.yul\":7481:7485   */\n      0x32\n        /* \"#utility.yul\":7478:7479   */\n      0x04\n        /* \"#utility.yul\":7471:7486   */\n      mstore\n        /* \"#utility.yul\":7505:7509   */\n      0x24\n        /* \"#utility.yul\":7502:7503   */\n      0x00\n        /* \"#utility.yul\":7495:7510   */\n      revert\n        /* \"#utility.yul\":7522:7693   */\n    tag_47:\n        /* \"#utility.yul\":7560:7563   */\n      0x00\n        /* \"#utility.yul\":7583:7606   */\n      tag_257\n        /* \"#utility.yul\":7600:7605   */\n      dup3\n        /* \"#utility.yul\":7583:7606   */\n      tag_146\n      jump\t// in\n    tag_257:\n        /* \"#utility.yul\":7574:7606   */\n      swap2\n      pop\n        /* \"#utility.yul\":7628:7634   */\n      0xffff\n        /* \"#utility.yul\":7621:7626   */\n      dup3\n        /* \"#utility.yul\":7618:7635   */\n      sub\n        /* \"#utility.yul\":7615:7658   */\n      tag_258\n      jumpi\n        /* \"#utility.yul\":7638:7656   */\n      tag_259\n      tag_161\n      jump\t// in\n    tag_259:\n        /* \"#utility.yul\":7615:7658   */\n    tag_258:\n        /* \"#utility.yul\":7685:7686   */\n      0x01\n        /* \"#utility.yul\":7678:7683   */\n      dup3\n        /* \"#utility.yul\":7674:7687   */\n      add\n        /* \"#utility.yul\":7667:7687   */\n      swap1\n      pop\n        /* \"#utility.yul\":7522:7693   */\n      swap2\n      swap1\n      pop\n      jump\t// out\n        /* \"#utility.yul\":7699:7879   */\n    tag_162:\n        /* \"#utility.yul\":7747:7824   */\n      0x4e487b7100000000000000000000000000000000000000000000000000000000\n        /* \"#utility.yul\":7744:7745   */\n      0x00\n        /* \"#utility.yul\":7737:7825   */\n      mstore\n        /* \"#utility.yul\":7844:7848   */\n      0x12\n        /* \"#utility.yul\":7841:7842   */\n      0x04\n        /* \"#utility.yul\":7834:7849   */\n      mstore\n        /* \"#utility.yul\":7868:7872   */\n      0x24\n        /* \"#utility.yul\":7865:7866   */\n      0x00\n        /* \"#utility.yul\":7858:7873   */\n      revert\n        /* \"#utility.yul\":7885:8067   */\n    tag_50:\n        /* \"#utility.yul\":7924:7925   */\n      0x00\n        /* \"#utility.yul\":7941:7960   */\n      tag_262\n        /* \"#utility.yul\":7958:7959   */\n      dup3\n        /* \"#utility.yul\":7941:7960   */\n      tag_146\n      jump\t// in\n    tag_262:\n        /* \"#utility.yul\":7936:7960   */\n      swap2\n      pop\n        /* \"#utility.yul\":7974:7993   */\n      tag_263\n        /* \"#utility.yul\":7991:7992   */\n      dup4\n        /* \"#utility.yul\":7974:7993   */\n      tag_146\n      jump\t// in\n    tag_263:\n        /* \"#utility.yul\":7969:7993   */\n      swap3\n      pop\n        /* \"#utility.yul\":8012:8013   */\n      dup3\n        /* \"#utility.yul\":8002:8037   */\n      tag_264\n      jumpi\n        /* \"#utility.yul\":8017:8035   */\n      tag_265\n      tag_162\n      jump\t// in\n    tag_265:\n        /* \"#utility.yul\":8002:8037   */\n    tag_264:\n        /* \"#utility.yul\":8059:8060   */\n      dup3\n        /* \"#utility.yul\":8056:8057   */\n      dup3\n        /* \"#utility.yul\":8052:8061   */\n      div\n        /* \"#utility.yul\":8047:8061   */\n      swap1\n      pop\n        /* \"#utility.yul\":7885:8067   */\n      swap3\n      swap2\n      pop\n      pop\n      jump\t// out\n        /* \"#utility.yul\":8073:8348   */\n    tag_55:\n        /* \"#utility.yul\":8112:8119   */\n      0x00\n        /* \"#utility.yul\":8135:8154   */\n      tag_267\n        /* \"#utility.yul\":8152:8153   */\n      dup3\n        /* \"#utility.yul\":8135:8154   */\n      tag_146\n      jump\t// in\n    tag_267:\n        /* \"#utility.yul\":8130:8154   */\n      swap2\n      pop\n        /* \"#utility.yul\":8168:8187   */\n      tag_268\n        /* \"#utility.yul\":8185:8186   */\n      dup4\n        /* \"#utility.yul\":8168:8187   */\n      tag_146\n      jump\t// in\n    tag_268:\n        /* \"#utility.yul\":8163:8187   */\n      swap3\n      pop\n        /* \"#utility.yul\":8222:8223   */\n      dup3\n        /* \"#utility.yul\":8219:8220   */\n      dup3\n        /* \"#utility.yul\":8215:8224   */\n      mul\n        /* \"#utility.yul\":8244:8273   */\n      tag_269\n        /* \"#utility.yul\":8261:8272   */\n      dup2\n        /* \"#utility.yul\":8244:8273   */\n      tag_146\n      jump\t// in\n    tag_269:\n        /* \"#utility.yul\":8233:8273   */\n      swap2\n      pop\n        /* \"#utility.yul\":8305:8316   */\n      dup1\n        /* \"#utility.yul\":8296:8303   */\n      dup3\n        /* \"#utility.yul\":8293:8317   */\n      eq\n        /* \"#utility.yul\":8283:8341   */\n      tag_270\n      jumpi\n        /* \"#utility.yul\":8321:8339   */\n      tag_271\n      tag_161\n      jump\t// in\n    tag_271:\n        /* \"#utility.yul\":8283:8341   */\n    tag_270:\n        /* \"#utility.yul\":8120:8348   */\n      pop\n        /* \"#utility.yul\":8073:8348   */\n      swap3\n      swap2\n      pop\n      pop\n      jump\t// out\n        /* \"#utility.yul\":8354:8472   */\n    tag_163:\n        /* \"#utility.yul\":8441:8465   */\n      tag_273\n        /* \"#utility.yul\":8459:8464   */\n      dup2\n        /* \"#utility.yul\":8441:8465   */\n      tag_140\n      jump\t// in\n    tag_273:\n        /* \"#utility.yul\":8436:8439   */\n      dup3\n        /* \"#utility.yul\":8429:8466   */\n      mstore\n        /* \"#utility.yul\":8354:8472   */\n      pop\n      pop\n      jump\t// out\n        /* \"#utility.yul\":8478:8700   */\n    tag_62:\n        /* \"#utility.yul\":8571:8575   */\n      0x00\n        /* \"#utility.yul\":8609:8611   */\n      0x20\n        /* \"#utility.yul\":8598:8607   */\n      dup3\n        /* \"#utility.yul\":8594:8612   */\n      add\n        /* \"#utility.yul\":8586:8612   */\n      swap1\n      pop\n        /* \"#utility.yul\":8622:8693   */\n      tag_275\n        /* \"#utility.yul\":8690:8691   */\n      0x00\n        /* \"#utility.yul\":8679:8688   */\n      dup4\n        /* \"#utility.yul\":8675:8692   */\n      add\n        /* \"#utility.yul\":8666:8672   */\n      dup5\n        /* \"#utility.yul\":8622:8693   */\n      tag_163\n      jump\t// in\n    tag_275:\n        /* \"#utility.yul\":8478:8700   */\n      swap3\n      swap2\n      pop\n      pop\n      jump\t// out\n        /* \"#utility.yul\":8706:8785   */\n    tag_164:\n        /* \"#utility.yul\":8745:8752   */\n      0x00\n        /* \"#utility.yul\":8774:8779   */\n      dup2\n        /* \"#utility.yul\":8763:8779   */\n      swap1\n      pop\n        /* \"#utility.yul\":8706:8785   */\n      swap2\n      swap1\n      pop\n      jump\t// out\n        /* \"#utility.yul\":8791:8948   */\n    tag_165:\n        /* \"#utility.yul\":8896:8941   */\n      tag_278\n        /* \"#utility.yul\":8916:8940   */\n      tag_279\n        /* \"#utility.yul\":8934:8939   */\n      dup3\n        /* \"#utility.yul\":8916:8940   */\n      tag_158\n      jump\t// in\n    tag_279:\n        /* \"#utility.yul\":8896:8941   */\n      tag_164\n      jump\t// in\n    tag_278:\n        /* \"#utility.yul\":8891:8894   */\n      dup3\n        /* \"#utility.yul\":8884:8942   */\n      mstore\n        /* \"#utility.yul\":8791:8948   */\n      pop\n      pop\n      jump\t// out\n        /* \"#utility.yul\":8954:9210   */\n    tag_71:\n        /* \"#utility.yul\":9066:9069   */\n      0x00\n        /* \"#utility.yul\":9081:9156   */\n      tag_281\n        /* \"#utility.yul\":9152:9155   */\n      dup3\n        /* \"#utility.yul\":9143:9149   */\n      dup5\n        /* \"#utility.yul\":9081:9156   */\n      tag_165\n      jump\t// in\n    tag_281:\n        /* \"#utility.yul\":9181:9183   */\n      0x20\n        /* \"#utility.yul\":9176:9179   */\n      dup3\n        /* \"#utility.yul\":9172:9184   */\n      add\n        /* \"#utility.yul\":9165:9184   */\n      swap2\n      pop\n        /* \"#utility.yul\":9201:9204   */\n      dup2\n        /* \"#utility.yul\":9194:9204   */\n      swap1\n      pop\n        /* \"#utility.yul\":8954:9210   */\n      swap3\n      swap2\n      pop\n      pop\n      jump\t// out\n        /* \"#utility.yul\":9216:9364   */\n    tag_166:\n        /* \"#utility.yul\":9318:9329   */\n      0x00\n        /* \"#utility.yul\":9355:9358   */\n      dup2\n        /* \"#utility.yul\":9340:9358   */\n      swap1\n      pop\n        /* \"#utility.yul\":9216:9364   */\n      swap3\n      swap2\n      pop\n      pop\n      jump\t// out\n        /* \"#utility.yul\":9370:9526   */\n    tag_167:\n        /* \"#utility.yul\":9510:9518   */\n      0x666f72416e790000000000000000000000000000000000000000000000000000\n        /* \"#utility.yul\":9506:9507   */\n      0x00\n        /* \"#utility.yul\":9498:9504   */\n      dup3\n        /* \"#utility.yul\":9494:9508   */\n      add\n        /* \"#utility.yul\":9487:9519   */\n      mstore\n        /* \"#utility.yul\":9370:9526   */\n      pop\n      jump\t// out\n        /* \"#utility.yul\":9532:9932   */\n    tag_168:\n        /* \"#utility.yul\":9692:9695   */\n      0x00\n        /* \"#utility.yul\":9713:9797   */\n      tag_285\n        /* \"#utility.yul\":9795:9796   */\n      0x06\n        /* \"#utility.yul\":9790:9793   */\n      dup4\n        /* \"#utility.yul\":9713:9797   */\n      tag_166\n      jump\t// in\n    tag_285:\n        /* \"#utility.yul\":9706:9797   */\n      swap2\n      pop\n        /* \"#utility.yul\":9806:9899   */\n      tag_286\n        /* \"#utility.yul\":9895:9898   */\n      dup3\n        /* \"#utility.yul\":9806:9899   */\n      tag_167\n      jump\t// in\n    tag_286:\n        /* \"#utility.yul\":9924:9925   */\n      0x06\n        /* \"#utility.yul\":9919:9922   */\n      dup3\n        /* \"#utility.yul\":9915:9926   */\n      add\n        /* \"#utility.yul\":9908:9926   */\n      swap1\n      pop\n        /* \"#utility.yul\":9532:9932   */\n      swap2\n      swap1\n      pop\n      jump\t// out\n        /* \"#utility.yul\":9938:10319   */\n    tag_73:\n        /* \"#utility.yul\":10123:10126   */\n      0x00\n        /* \"#utility.yul\":10145:10293   */\n      tag_288\n        /* \"#utility.yul\":10289:10292   */\n      dup3\n        /* \"#utility.yul\":10145:10293   */\n      tag_168\n      jump\t// in\n    tag_288:\n        /* \"#utility.yul\":10138:10293   */\n      swap2\n      pop\n        /* \"#utility.yul\":10310:10313   */\n      dup2\n        /* \"#utility.yul\":10303:10313   */\n      swap1\n      pop\n        /* \"#utility.yul\":9938:10319   */\n      swap2\n      swap1\n      pop\n      jump\t// out\n        /* \"#utility.yul\":10325:10526   */\n    tag_82:\n        /* \"#utility.yul\":10364:10367   */\n      0x00\n        /* \"#utility.yul\":10383:10402   */\n      tag_290\n        /* \"#utility.yul\":10400:10401   */\n      dup3\n        /* \"#utility.yul\":10383:10402   */\n      tag_150\n      jump\t// in\n    tag_290:\n        /* \"#utility.yul\":10378:10402   */\n      swap2\n      pop\n        /* \"#utility.yul\":10416:10435   */\n      tag_291\n        /* \"#utility.yul\":10433:10434   */\n      dup4\n        /* \"#utility.yul\":10416:10435   */\n      tag_150\n      jump\t// in\n    tag_291:\n        /* \"#utility.yul\":10411:10435   */\n      swap3\n      pop\n        /* \"#utility.yul\":10458:10459   */\n      dup3\n        /* \"#utility.yul\":10455:10456   */\n      dup3\n        /* \"#utility.yul\":10451:10460   */\n      add\n        /* \"#utility.yul\":10444:10460   */\n      swap1\n      pop\n        /* \"#utility.yul\":10481:10495   */\n      0xffffffffffff\n        /* \"#utility.yul\":10476:10479   */\n      dup2\n        /* \"#utility.yul\":10473:10496   */\n      gt\n        /* \"#utility.yul\":10470:10519   */\n      iszero\n      tag_292\n      jumpi\n        /* \"#utility.yul\":10499:10517   */\n      tag_293\n      tag_161\n      jump\t// in\n    tag_293:\n        /* \"#utility.yul\":10470:10519   */\n    tag_292:\n        /* \"#utility.yul\":10325:10526   */\n      swap3\n      swap2\n      pop\n      pop\n      jump\t// out\n        /* \"#utility.yul\":10532:10698   */\n    tag_169:\n        /* \"#utility.yul\":10672:10690   */\n      0x6c617374506172746941756374696f6e00000000000000000000000000000000\n        /* \"#utility.yul\":10668:10669   */\n      0x00\n        /* \"#utility.yul\":10660:10666   */\n      dup3\n        /* \"#utility.yul\":10656:10670   */\n      add\n        /* \"#utility.yul\":10649:10691   */\n      mstore\n        /* \"#utility.yul\":10532:10698   */\n      pop\n      jump\t// out\n        /* \"#utility.yul\":10704:11106   */\n    tag_170:\n        /* \"#utility.yul\":10864:10867   */\n      0x00\n        /* \"#utility.yul\":10885:10970   */\n      tag_296\n        /* \"#utility.yul\":10967:10969   */\n      0x10\n        /* \"#utility.yul\":10962:10965   */\n      dup4\n        /* \"#utility.yul\":10885:10970   */\n      tag_166\n      jump\t// in\n    tag_296:\n        /* \"#utility.yul\":10878:10970   */\n      swap2\n      pop\n        /* \"#utility.yul\":10979:11072   */\n      tag_297\n        /* \"#utility.yul\":11068:11071   */\n      dup3\n        /* \"#utility.yul\":10979:11072   */\n      tag_169\n      jump\t// in\n    tag_297:\n        /* \"#utility.yul\":11097:11099   */\n      0x10\n        /* \"#utility.yul\":11092:11095   */\n      dup3\n        /* \"#utility.yul\":11088:11100   */\n      add\n        /* \"#utility.yul\":11081:11100   */\n      swap1\n      pop\n        /* \"#utility.yul\":10704:11106   */\n      swap2\n      swap1\n      pop\n      jump\t// out\n        /* \"#utility.yul\":11112:11493   */\n    tag_85:\n        /* \"#utility.yul\":11297:11300   */\n      0x00\n        /* \"#utility.yul\":11319:11467   */\n      tag_299\n        /* \"#utility.yul\":11463:11466   */\n      dup3\n        /* \"#utility.yul\":11319:11467   */\n      tag_170\n      jump\t// in\n    tag_299:\n        /* \"#utility.yul\":11312:11467   */\n      swap2\n      pop\n        /* \"#utility.yul\":11484:11487   */\n      dup2\n        /* \"#utility.yul\":11477:11487   */\n      swap1\n      pop\n        /* \"#utility.yul\":11112:11493   */\n      swap2\n      swap1\n      pop\n      jump\t// out\n        /* \"#utility.yul\":11499:11663   */\n    tag_171:\n        /* \"#utility.yul\":11639:11655   */\n      0x6c61737453756341756374696f6e000000000000000000000000000000000000\n        /* \"#utility.yul\":11635:11636   */\n      0x00\n        /* \"#utility.yul\":11627:11633   */\n      dup3\n        /* \"#utility.yul\":11623:11637   */\n      add\n        /* \"#utility.yul\":11616:11656   */\n      mstore\n        /* \"#utility.yul\":11499:11663   */\n      pop\n      jump\t// out\n        /* \"#utility.yul\":11669:12071   */\n    tag_172:\n        /* \"#utility.yul\":11829:11832   */\n      0x00\n        /* \"#utility.yul\":11850:11935   */\n      tag_302\n        /* \"#utility.yul\":11932:11934   */\n      0x0e\n        /* \"#utility.yul\":11927:11930   */\n      dup4\n        /* \"#utility.yul\":11850:11935   */\n      tag_166\n      jump\t// in\n    tag_302:\n        /* \"#utility.yul\":11843:11935   */\n      swap2\n      pop\n        /* \"#utility.yul\":11944:12037   */\n      tag_303\n        /* \"#utility.yul\":12033:12036   */\n      dup3\n        /* \"#utility.yul\":11944:12037   */\n      tag_171\n      jump\t// in\n    tag_303:\n        /* \"#utility.yul\":12062:12064   */\n      0x0e\n        /* \"#utility.yul\":12057:12060   */\n      dup3\n        /* \"#utility.yul\":12053:12065   */\n      add\n        /* \"#utility.yul\":12046:12065   */\n      swap1\n      pop\n        /* \"#utility.yul\":11669:12071   */\n      swap2\n      swap1\n      pop\n      jump\t// out\n        /* \"#utility.yul\":12077:12458   */\n    tag_103:\n        /* \"#utility.yul\":12262:12265   */\n      0x00\n        /* \"#utility.yul\":12284:12432   */\n      tag_305\n        /* \"#utility.yul\":12428:12431   */\n      dup3\n        /* \"#utility.yul\":12284:12432   */\n      tag_172\n      jump\t// in\n    tag_305:\n        /* \"#utility.yul\":12277:12432   */\n      swap2\n      pop\n        /* \"#utility.yul\":12449:12452   */\n      dup2\n        /* \"#utility.yul\":12442:12452   */\n      swap1\n      pop\n        /* \"#utility.yul\":12077:12458   */\n      swap2\n      swap1\n      pop\n      jump\t// out\n        /* \"#utility.yul\":12464:12626   */\n    tag_173:\n        /* \"#utility.yul\":12604:12618   */\n      0x6c6173745472616e736665720000000000000000000000000000000000000000\n        /* \"#utility.yul\":12600:12601   */\n      0x00\n        /* \"#utility.yul\":12592:12598   */\n      dup3\n        /* \"#utility.yul\":12588:12602   */\n      add\n        /* \"#utility.yul\":12581:12619   */\n      mstore\n        /* \"#utility.yul\":12464:12626   */\n      pop\n      jump\t// out\n        /* \"#utility.yul\":12632:13034   */\n    tag_174:\n        /* \"#utility.yul\":12792:12795   */\n      0x00\n        /* \"#utility.yul\":12813:12898   */\n      tag_308\n        /* \"#utility.yul\":12895:12897   */\n      0x0c\n        /* \"#utility.yul\":12890:12893   */\n      dup4\n        /* \"#utility.yul\":12813:12898   */\n      tag_166\n      jump\t// in\n    tag_308:\n        /* \"#utility.yul\":12806:12898   */\n      swap2\n      pop\n        /* \"#utility.yul\":12907:13000   */\n      tag_309\n        /* \"#utility.yul\":12996:12999   */\n      dup3\n        /* \"#utility.yul\":12907:13000   */\n      tag_173\n      jump\t// in\n    tag_309:\n        /* \"#utility.yul\":13025:13027   */\n      0x0c\n        /* \"#utility.yul\":13020:13023   */\n      dup3\n        /* \"#utility.yul\":13016:13028   */\n      add\n        /* \"#utility.yul\":13009:13028   */\n      swap1\n      pop\n        /* \"#utility.yul\":12632:13034   */\n      swap2\n      swap1\n      pop\n      jump\t// out\n        /* \"#utility.yul\":13040:13421   */\n    tag_121:\n        /* \"#utility.yul\":13225:13228   */\n      0x00\n        /* \"#utility.yul\":13247:13395   */\n      tag_311\n        /* \"#utility.yul\":13391:13394   */\n      dup3\n        /* \"#utility.yul\":13247:13395   */\n      tag_174\n      jump\t// in\n    tag_311:\n        /* \"#utility.yul\":13240:13395   */\n      swap2\n      pop\n        /* \"#utility.yul\":13412:13415   */\n      dup2\n        /* \"#utility.yul\":13405:13415   */\n      swap1\n      pop\n        /* \"#utility.yul\":13040:13421   */\n      swap2\n      swap1\n      pop\n      jump\t// out\n\n    auxdata: 0xa264697066735822122093d9de56b3b3995d23350a193e3625b863bc7828cd883305c77d3f70b01ac1e364736f6c63430008140033\n}\n",
				"bytecode": {
					"linkReferences": {},
					"object": "608060405234801561000f575f80fd5b5061126f8061001d5f395ff3fe608060405234801561000f575f80fd5b506004361061004a575f3560e01c8063013cf08b1461004e5780630702718e1461007e5780631e9608a8146100ae578063c5301082146100ca575b5f80fd5b61006860048036038101906100639190610bcd565b6100e6565b6040516100759190610d75565b60405180910390f35b61009860048036038101906100939190610db9565b6102c5565b6040516100a59190610df3565b60405180910390f35b6100c860048036038101906100c39190610e0c565b61040d565b005b6100e460048036038101906100df9190610e7d565b610546565b005b6100ee610aff565b6103c45f8381526020019081526020015f20604051806101400160405290815f82015f9054906101000a900473ffffffffffffffffffffffffffffffffffffffff1673ffffffffffffffffffffffffffffffffffffffff1673ffffffffffffffffffffffffffffffffffffffff168152602001600182015f9054906101000a900473ffffffffffffffffffffffffffffffffffffffff1673ffffffffffffffffffffffffffffffffffffffff1673ffffffffffffffffffffffffffffffffffffffff1681526020016001820160149054906101000a900461ffff1661ffff1661ffff1681526020016001820160169054906101000a900463ffffffff1663ffffffff1663ffffffff16815260200160018201601a9054906101000a900465ffffffffffff1665ffffffffffff1665ffffffffffff168152602001600282015f9054906101000a900465ffffffffffff1665ffffffffffff1665ffffffffffff1681526020016002820160069054906101000a900460ff161515151581526020016002820160079054906101000a900460ff161515151581526020016002820160089054906101000a900460ff161515151581526020016002820160099054906101000a900460ff1615151515815250509050919050565b5f804290505f624f1a00826102da9190610efa565b90505f80600190505b6104b08161ffff16116103a6575f805f018261ffff166104b1811061030b5761030a610f2d565b5b600591828204019190066006029054906101000a900465ffffffffffff1665ffffffffffff1603156103a6575f80018161ffff166104b1811061035157610350610f2d565b5b600591828204019190066006029054906101000a900465ffffffffffff1665ffffffffffff168365ffffffffffff161015610393578161039090610f5a565b91505b808061039e90610f5a565b9150506102e3565b6002816103b39190610fb0565b61ffff168661ffff1611156103cf576001945050505050610408565b6046606483886103df9190610fb0565b6103e99190610fe0565b61ffff161115610400576001945050505050610408565b5f9450505050505b919050565b81600210158061041e575060058210155b1561046057816040517f4961771d000000000000000000000000000000000000000000000000000000008152600401610457919061102b565b60405180910390fd5b6004820361049b5760016103c45f8381526020019081526020015f2060020160086101000a81548160ff021916908315150217905550610542565b600382036104d65760016103c45f8381526020019081526020015f2060020160096101000a81548160ff021916908315150217905550610541565b600582036105115760016103c45f8381526020019081526020015f2060020160066101000a81548160ff021916908315150217905550610540565b60016103c45f8381526020019081526020015f2060020160076101000a81548160ff0219169083151502179055505b5b5b5050565b5f816040516020016105589190611064565b6040516020818303038152906040528051906020012090505f84905081604051602001610584906110d2565b604051602081830303815290604052805190602001200361065157805f80018561ffff166104b181106105ba576105b9610f2d565b5b600591828204019190066006026101000a81548165ffffffffffff021916908365ffffffffffff16021790555060015f80015f6104b181106105ff576105fe610f2d565b5b600591828204019190066006028282829054906101000a900465ffffffffffff1661062a91906110e6565b92506101000a81548165ffffffffffff021916908365ffffffffffff160217905550610af8565b8160405160200161066190611169565b60405160208183030381529060405280519060200120036107df57805f80018561ffff166104b1811061069757610696610f2d565b5b600591828204019190066006026101000a81548165ffffffffffff021916908365ffffffffffff16021790555060015f80015f6104b181106106dc576106db610f2d565b5b600591828204019190066006028282829054906101000a900465ffffffffffff1661070791906110e6565b92506101000a81548165ffffffffffff021916908365ffffffffffff160217905550805f6101e2018561ffff166104b1811061074657610745610f2d565b5b600591828204019190066006026101000a81548165ffffffffffff021916908365ffffffffffff16021790555060015f6101e2015f6104b1811061078d5761078c610f2d565b5b600591828204019190066006028282829054906101000a900465ffffffffffff166107b891906110e6565b92506101000a81548165ffffffffffff021916908365ffffffffffff160217905550610af7565b816040516020016107ef906111c7565b604051602081830303815290604052805190602001200361096d57805f80018561ffff166104b1811061082557610824610f2d565b5b600591828204019190066006026101000a81548165ffffffffffff021916908365ffffffffffff16021790555060015f80015f6104b1811061086a57610869610f2d565b5b600591828204019190066006028282829054906101000a900465ffffffffffff1661089591906110e6565b92506101000a81548165ffffffffffff021916908365ffffffffffff160217905550805f6102d3018561ffff166104b181106108d4576108d3610f2d565b5b600591828204019190066006026101000a81548165ffffffffffff021916908365ffffffffffff16021790555060015f6102d3015f6104b1811061091b5761091a610f2d565b5b600591828204019190066006028282829054906101000a900465ffffffffffff1661094691906110e6565b92506101000a81548165ffffffffffff021916908365ffffffffffff160217905550610af6565b8160405160200161097d90611225565b6040516020818303038152906040528051906020012003610af557805f80018561ffff166104b181106109b3576109b2610f2d565b5b600591828204019190066006026101000a81548165ffffffffffff021916908365ffffffffffff16021790555060015f80015f6104b181106109f8576109f7610f2d565b5b600591828204019190066006028282829054906101000a900465ffffffffffff16610a2391906110e6565b92506101000a81548165ffffffffffff021916908365ffffffffffff160217905550805f60f1018561ffff166104b18110610a6157610a60610f2d565b5b600591828204019190066006026101000a81548165ffffffffffff021916908365ffffffffffff16021790555060015f60f1015f6104b18110610aa757610aa6610f2d565b5b600591828204019190066006028282829054906101000a900465ffffffffffff16610ad291906110e6565b92506101000a81548165ffffffffffff021916908365ffffffffffff1602179055505b5b5b5b5050505050565b6040518061014001604052805f73ffffffffffffffffffffffffffffffffffffffff1681526020015f73ffffffffffffffffffffffffffffffffffffffff1681526020015f61ffff1681526020015f63ffffffff1681526020015f65ffffffffffff1681526020015f65ffffffffffff1681526020015f151581526020015f151581526020015f151581526020015f151581525090565b5f80fd5b5f819050919050565b610bac81610b9a565b8114610bb6575f80fd5b50565b5f81359050610bc781610ba3565b92915050565b5f60208284031215610be257610be1610b96565b5b5f610bef84828501610bb9565b91505092915050565b5f73ffffffffffffffffffffffffffffffffffffffff82169050919050565b5f610c2182610bf8565b9050919050565b610c3181610c17565b82525050565b5f61ffff82169050919050565b610c4d81610c37565b82525050565b5f63ffffffff82169050919050565b610c6b81610c53565b82525050565b5f65ffffffffffff82169050919050565b610c8b81610c71565b82525050565b5f8115159050919050565b610ca581610c91565b82525050565b61014082015f820151610cc05f850182610c28565b506020820151610cd36020850182610c28565b506040820151610ce66040850182610c44565b506060820151610cf96060850182610c62565b506080820151610d0c6080850182610c82565b5060a0820151610d1f60a0850182610c82565b5060c0820151610d3260c0850182610c9c565b5060e0820151610d4560e0850182610c9c565b50610100820151610d5a610100850182610c9c565b50610120820151610d6f610120850182610c9c565b50505050565b5f61014082019050610d895f830184610cab565b92915050565b610d9881610c37565b8114610da2575f80fd5b50565b5f81359050610db381610d8f565b92915050565b5f60208284031215610dce57610dcd610b96565b5b5f610ddb84828501610da5565b91505092915050565b610ded81610c91565b82525050565b5f602082019050610e065f830184610de4565b92915050565b5f8060408385031215610e2257610e21610b96565b5b5f610e2f85828601610bb9565b9250506020610e4085828601610bb9565b9150509250929050565b5f819050919050565b610e5c81610e4a565b8114610e66575f80fd5b50565b5f81359050610e7781610e53565b92915050565b5f805f60608486031215610e9457610e93610b96565b5b5f610ea186828701610bb9565b9350506020610eb286828701610da5565b9250506040610ec386828701610e69565b9150509250925092565b7f4e487b71000000000000000000000000000000000000000000000000000000005f52601160045260245ffd5b5f610f0482610b9a565b9150610f0f83610b9a565b9250828203905081811115610f2757610f26610ecd565b5b92915050565b7f4e487b71000000000000000000000000000000000000000000000000000000005f52603260045260245ffd5b5f610f6482610c37565b915061ffff8203610f7857610f77610ecd565b5b600182019050919050565b7f4e487b71000000000000000000000000000000000000000000000000000000005f52601260045260245ffd5b5f610fba82610c37565b9150610fc583610c37565b925082610fd557610fd4610f83565b5b828204905092915050565b5f610fea82610c37565b9150610ff583610c37565b925082820261100381610c37565b915080821461101557611014610ecd565b5b5092915050565b61102581610b9a565b82525050565b5f60208201905061103e5f83018461101c565b92915050565b5f819050919050565b61105e61105982610e4a565b611044565b82525050565b5f61106f828461104d565b60208201915081905092915050565b5f81905092915050565b7f666f72416e7900000000000000000000000000000000000000000000000000005f82015250565b5f6110bc60068361107e565b91506110c782611088565b600682019050919050565b5f6110dc826110b0565b9150819050919050565b5f6110f082610c71565b91506110fb83610c71565b9250828201905065ffffffffffff81111561111957611118610ecd565b5b92915050565b7f6c617374506172746941756374696f6e000000000000000000000000000000005f82015250565b5f61115360108361107e565b915061115e8261111f565b601082019050919050565b5f61117382611147565b9150819050919050565b7f6c61737453756341756374696f6e0000000000000000000000000000000000005f82015250565b5f6111b1600e8361107e565b91506111bc8261117d565b600e82019050919050565b5f6111d1826111a5565b9150819050919050565b7f6c6173745472616e7366657200000000000000000000000000000000000000005f82015250565b5f61120f600c8361107e565b915061121a826111db565b600c82019050919050565b5f61122f82611203565b915081905091905056fea264697066735822122093d9de56b3b3995d23350a193e3625b863bc7828cd883305c77d3f70b01ac1e364736f6c63430008140033",
					"opcodes": "PUSH1 0x80 PUSH1 0x40 MSTORE CALLVALUE DUP1 ISZERO PUSH2 0xF JUMPI PUSH0 DUP1 REVERT JUMPDEST POP PUSH2 0x126F DUP1 PUSH2 0x1D PUSH0 CODECOPY PUSH0 RETURN INVALID PUSH1 0x80 PUSH1 0x40 MSTORE CALLVALUE DUP1 ISZERO PUSH2 0xF JUMPI PUSH0 DUP1 REVERT JUMPDEST POP PUSH1 0x4 CALLDATASIZE LT PUSH2 0x4A JUMPI PUSH0 CALLDATALOAD PUSH1 0xE0 SHR DUP1 PUSH4 0x13CF08B EQ PUSH2 0x4E JUMPI DUP1 PUSH4 0x702718E EQ PUSH2 0x7E JUMPI DUP1 PUSH4 0x1E9608A8 EQ PUSH2 0xAE JUMPI DUP1 PUSH4 0xC5301082 EQ PUSH2 0xCA JUMPI JUMPDEST PUSH0 DUP1 REVERT JUMPDEST PUSH2 0x68 PUSH1 0x4 DUP1 CALLDATASIZE SUB DUP2 ADD SWAP1 PUSH2 0x63 SWAP2 SWAP1 PUSH2 0xBCD JUMP JUMPDEST PUSH2 0xE6 JUMP JUMPDEST PUSH1 0x40 MLOAD PUSH2 0x75 SWAP2 SWAP1 PUSH2 0xD75 JUMP JUMPDEST PUSH1 0x40 MLOAD DUP1 SWAP2 SUB SWAP1 RETURN JUMPDEST PUSH2 0x98 PUSH1 0x4 DUP1 CALLDATASIZE SUB DUP2 ADD SWAP1 PUSH2 0x93 SWAP2 SWAP1 PUSH2 0xDB9 JUMP JUMPDEST PUSH2 0x2C5 JUMP JUMPDEST PUSH1 0x40 MLOAD PUSH2 0xA5 SWAP2 SWAP1 PUSH2 0xDF3 JUMP JUMPDEST PUSH1 0x40 MLOAD DUP1 SWAP2 SUB SWAP1 RETURN JUMPDEST PUSH2 0xC8 PUSH1 0x4 DUP1 CALLDATASIZE SUB DUP2 ADD SWAP1 PUSH2 0xC3 SWAP2 SWAP1 PUSH2 0xE0C JUMP JUMPDEST PUSH2 0x40D JUMP JUMPDEST STOP JUMPDEST PUSH2 0xE4 PUSH1 0x4 DUP1 CALLDATASIZE SUB DUP2 ADD SWAP1 PUSH2 0xDF SWAP2 SWAP1 PUSH2 0xE7D JUMP JUMPDEST PUSH2 0x546 JUMP JUMPDEST STOP JUMPDEST PUSH2 0xEE PUSH2 0xAFF JUMP JUMPDEST PUSH2 0x3C4 PUSH0 DUP4 DUP2 MSTORE PUSH1 0x20 ADD SWAP1 DUP2 MSTORE PUSH1 0x20 ADD PUSH0 KECCAK256 PUSH1 0x40 MLOAD DUP1 PUSH2 0x140 ADD PUSH1 0x40 MSTORE SWAP1 DUP2 PUSH0 DUP3 ADD PUSH0 SWAP1 SLOAD SWAP1 PUSH2 0x100 EXP SWAP1 DIV PUSH20 0xFFFFFFFFFFFFFFFFFFFFFFFFFFFFFFFFFFFFFFFF AND PUSH20 0xFFFFFFFFFFFFFFFFFFFFFFFFFFFFFFFFFFFFFFFF AND PUSH20 0xFFFFFFFFFFFFFFFFFFFFFFFFFFFFFFFFFFFFFFFF AND DUP2 MSTORE PUSH1 0x20 ADD PUSH1 0x1 DUP3 ADD PUSH0 SWAP1 SLOAD SWAP1 PUSH2 0x100 EXP SWAP1 DIV PUSH20 0xFFFFFFFFFFFFFFFFFFFFFFFFFFFFFFFFFFFFFFFF AND PUSH20 0xFFFFFFFFFFFFFFFFFFFFFFFFFFFFFFFFFFFFFFFF AND PUSH20 0xFFFFFFFFFFFFFFFFFFFFFFFFFFFFFFFFFFFFFFFF AND DUP2 MSTORE PUSH1 0x20 ADD PUSH1 0x1 DUP3 ADD PUSH1 0x14 SWAP1 SLOAD SWAP1 PUSH2 0x100 EXP SWAP1 DIV PUSH2 0xFFFF AND PUSH2 0xFFFF AND PUSH2 0xFFFF AND DUP2 MSTORE PUSH1 0x20 ADD PUSH1 0x1 DUP3 ADD PUSH1 0x16 SWAP1 SLOAD SWAP1 PUSH2 0x100 EXP SWAP1 DIV PUSH4 0xFFFFFFFF AND PUSH4 0xFFFFFFFF AND PUSH4 0xFFFFFFFF AND DUP2 MSTORE PUSH1 0x20 ADD PUSH1 0x1 DUP3 ADD PUSH1 0x1A SWAP1 SLOAD SWAP1 PUSH2 0x100 EXP SWAP1 DIV PUSH6 0xFFFFFFFFFFFF AND PUSH6 0xFFFFFFFFFFFF AND PUSH6 0xFFFFFFFFFFFF AND DUP2 MSTORE PUSH1 0x20 ADD PUSH1 0x2 DUP3 ADD PUSH0 SWAP1 SLOAD SWAP1 PUSH2 0x100 EXP SWAP1 DIV PUSH6 0xFFFFFFFFFFFF AND PUSH6 0xFFFFFFFFFFFF AND PUSH6 0xFFFFFFFFFFFF AND DUP2 MSTORE PUSH1 0x20 ADD PUSH1 0x2 DUP3 ADD PUSH1 0x6 SWAP1 SLOAD SWAP1 PUSH2 0x100 EXP SWAP1 DIV PUSH1 0xFF AND ISZERO ISZERO ISZERO ISZERO DUP2 MSTORE PUSH1 0x20 ADD PUSH1 0x2 DUP3 ADD PUSH1 0x7 SWAP1 SLOAD SWAP1 PUSH2 0x100 EXP SWAP1 DIV PUSH1 0xFF AND ISZERO ISZERO ISZERO ISZERO DUP2 MSTORE PUSH1 0x20 ADD PUSH1 0x2 DUP3 ADD PUSH1 0x8 SWAP1 SLOAD SWAP1 PUSH2 0x100 EXP SWAP1 DIV PUSH1 0xFF AND ISZERO ISZERO ISZERO ISZERO DUP2 MSTORE PUSH1 0x20 ADD PUSH1 0x2 DUP3 ADD PUSH1 0x9 SWAP1 SLOAD SWAP1 PUSH2 0x100 EXP SWAP1 DIV PUSH1 0xFF AND ISZERO ISZERO ISZERO ISZERO DUP2 MSTORE POP POP SWAP1 POP SWAP2 SWAP1 POP JUMP JUMPDEST PUSH0 DUP1 TIMESTAMP SWAP1 POP PUSH0 PUSH3 0x4F1A00 DUP3 PUSH2 0x2DA SWAP2 SWAP1 PUSH2 0xEFA JUMP JUMPDEST SWAP1 POP PUSH0 DUP1 PUSH1 0x1 SWAP1 POP JUMPDEST PUSH2 0x4B0 DUP2 PUSH2 0xFFFF AND GT PUSH2 0x3A6 JUMPI PUSH0 DUP1 PUSH0 ADD DUP3 PUSH2 0xFFFF AND PUSH2 0x4B1 DUP2 LT PUSH2 0x30B JUMPI PUSH2 0x30A PUSH2 0xF2D JUMP JUMPDEST JUMPDEST PUSH1 0x5 SWAP2 DUP3 DUP3 DIV ADD SWAP2 SWAP1 MOD PUSH1 0x6 MUL SWAP1 SLOAD SWAP1 PUSH2 0x100 EXP SWAP1 DIV PUSH6 0xFFFFFFFFFFFF AND PUSH6 0xFFFFFFFFFFFF AND SUB ISZERO PUSH2 0x3A6 JUMPI PUSH0 DUP1 ADD DUP2 PUSH2 0xFFFF AND PUSH2 0x4B1 DUP2 LT PUSH2 0x351 JUMPI PUSH2 0x350 PUSH2 0xF2D JUMP JUMPDEST JUMPDEST PUSH1 0x5 SWAP2 DUP3 DUP3 DIV ADD SWAP2 SWAP1 MOD PUSH1 0x6 MUL SWAP1 SLOAD SWAP1 PUSH2 0x100 EXP SWAP1 DIV PUSH6 0xFFFFFFFFFFFF AND PUSH6 0xFFFFFFFFFFFF AND DUP4 PUSH6 0xFFFFFFFFFFFF AND LT ISZERO PUSH2 0x393 JUMPI DUP2 PUSH2 0x390 SWAP1 PUSH2 0xF5A JUMP JUMPDEST SWAP2 POP JUMPDEST DUP1 DUP1 PUSH2 0x39E SWAP1 PUSH2 0xF5A JUMP JUMPDEST SWAP2 POP POP PUSH2 0x2E3 JUMP JUMPDEST PUSH1 0x2 DUP2 PUSH2 0x3B3 SWAP2 SWAP1 PUSH2 0xFB0 JUMP JUMPDEST PUSH2 0xFFFF AND DUP7 PUSH2 0xFFFF AND GT ISZERO PUSH2 0x3CF JUMPI PUSH1 0x1 SWAP5 POP POP POP POP POP PUSH2 0x408 JUMP JUMPDEST PUSH1 0x46 PUSH1 0x64 DUP4 DUP9 PUSH2 0x3DF SWAP2 SWAP1 PUSH2 0xFB0 JUMP JUMPDEST PUSH2 0x3E9 SWAP2 SWAP1 PUSH2 0xFE0 JUMP JUMPDEST PUSH2 0xFFFF AND GT ISZERO PUSH2 0x400 JUMPI PUSH1 0x1 SWAP5 POP POP POP POP POP PUSH2 0x408 JUMP JUMPDEST PUSH0 SWAP5 POP POP POP POP POP JUMPDEST SWAP2 SWAP1 POP JUMP JUMPDEST DUP2 PUSH1 0x2 LT ISZERO DUP1 PUSH2 0x41E JUMPI POP PUSH1 0x5 DUP3 LT ISZERO JUMPDEST ISZERO PUSH2 0x460 JUMPI DUP2 PUSH1 0x40 MLOAD PUSH32 0x4961771D00000000000000000000000000000000000000000000000000000000 DUP2 MSTORE PUSH1 0x4 ADD PUSH2 0x457 SWAP2 SWAP1 PUSH2 0x102B JUMP JUMPDEST PUSH1 0x40 MLOAD DUP1 SWAP2 SUB SWAP1 REVERT JUMPDEST PUSH1 0x4 DUP3 SUB PUSH2 0x49B JUMPI PUSH1 0x1 PUSH2 0x3C4 PUSH0 DUP4 DUP2 MSTORE PUSH1 0x20 ADD SWAP1 DUP2 MSTORE PUSH1 0x20 ADD PUSH0 KECCAK256 PUSH1 0x2 ADD PUSH1 0x8 PUSH2 0x100 EXP DUP2 SLOAD DUP2 PUSH1 0xFF MUL NOT AND SWAP1 DUP4 ISZERO ISZERO MUL OR SWAP1 SSTORE POP PUSH2 0x542 JUMP JUMPDEST PUSH1 0x3 DUP3 SUB PUSH2 0x4D6 JUMPI PUSH1 0x1 PUSH2 0x3C4 PUSH0 DUP4 DUP2 MSTORE PUSH1 0x20 ADD SWAP1 DUP2 MSTORE PUSH1 0x20 ADD PUSH0 KECCAK256 PUSH1 0x2 ADD PUSH1 0x9 PUSH2 0x100 EXP DUP2 SLOAD DUP2 PUSH1 0xFF MUL NOT AND SWAP1 DUP4 ISZERO ISZERO MUL OR SWAP1 SSTORE POP PUSH2 0x541 JUMP JUMPDEST PUSH1 0x5 DUP3 SUB PUSH2 0x511 JUMPI PUSH1 0x1 PUSH2 0x3C4 PUSH0 DUP4 DUP2 MSTORE PUSH1 0x20 ADD SWAP1 DUP2 MSTORE PUSH1 0x20 ADD PUSH0 KECCAK256 PUSH1 0x2 ADD PUSH1 0x6 PUSH2 0x100 EXP DUP2 SLOAD DUP2 PUSH1 0xFF MUL NOT AND SWAP1 DUP4 ISZERO ISZERO MUL OR SWAP1 SSTORE POP PUSH2 0x540 JUMP JUMPDEST PUSH1 0x1 PUSH2 0x3C4 PUSH0 DUP4 DUP2 MSTORE PUSH1 0x20 ADD SWAP1 DUP2 MSTORE PUSH1 0x20 ADD PUSH0 KECCAK256 PUSH1 0x2 ADD PUSH1 0x7 PUSH2 0x100 EXP DUP2 SLOAD DUP2 PUSH1 0xFF MUL NOT AND SWAP1 DUP4 ISZERO ISZERO MUL OR SWAP1 SSTORE POP JUMPDEST JUMPDEST JUMPDEST POP POP JUMP JUMPDEST PUSH0 DUP2 PUSH1 0x40 MLOAD PUSH1 0x20 ADD PUSH2 0x558 SWAP2 SWAP1 PUSH2 0x1064 JUMP JUMPDEST PUSH1 0x40 MLOAD PUSH1 0x20 DUP2 DUP4 SUB SUB DUP2 MSTORE SWAP1 PUSH1 0x40 MSTORE DUP1 MLOAD SWAP1 PUSH1 0x20 ADD KECCAK256 SWAP1 POP PUSH0 DUP5 SWAP1 POP DUP2 PUSH1 0x40 MLOAD PUSH1 0x20 ADD PUSH2 0x584 SWAP1 PUSH2 0x10D2 JUMP JUMPDEST PUSH1 0x40 MLOAD PUSH1 0x20 DUP2 DUP4 SUB SUB DUP2 MSTORE SWAP1 PUSH1 0x40 MSTORE DUP1 MLOAD SWAP1 PUSH1 0x20 ADD KECCAK256 SUB PUSH2 0x651 JUMPI DUP1 PUSH0 DUP1 ADD DUP6 PUSH2 0xFFFF AND PUSH2 0x4B1 DUP2 LT PUSH2 0x5BA JUMPI PUSH2 0x5B9 PUSH2 0xF2D JUMP JUMPDEST JUMPDEST PUSH1 0x5 SWAP2 DUP3 DUP3 DIV ADD SWAP2 SWAP1 MOD PUSH1 0x6 MUL PUSH2 0x100 EXP DUP2 SLOAD DUP2 PUSH6 0xFFFFFFFFFFFF MUL NOT AND SWAP1 DUP4 PUSH6 0xFFFFFFFFFFFF AND MUL OR SWAP1 SSTORE POP PUSH1 0x1 PUSH0 DUP1 ADD PUSH0 PUSH2 0x4B1 DUP2 LT PUSH2 0x5FF JUMPI PUSH2 0x5FE PUSH2 0xF2D JUMP JUMPDEST JUMPDEST PUSH1 0x5 SWAP2 DUP3 DUP3 DIV ADD SWAP2 SWAP1 MOD PUSH1 0x6 MUL DUP3 DUP3 DUP3 SWAP1 SLOAD SWAP1 PUSH2 0x100 EXP SWAP1 DIV PUSH6 0xFFFFFFFFFFFF AND PUSH2 0x62A SWAP2 SWAP1 PUSH2 0x10E6 JUMP JUMPDEST SWAP3 POP PUSH2 0x100 EXP DUP2 SLOAD DUP2 PUSH6 0xFFFFFFFFFFFF MUL NOT AND SWAP1 DUP4 PUSH6 0xFFFFFFFFFFFF AND MUL OR SWAP1 SSTORE POP PUSH2 0xAF8 JUMP JUMPDEST DUP2 PUSH1 0x40 MLOAD PUSH1 0x20 ADD PUSH2 0x661 SWAP1 PUSH2 0x1169 JUMP JUMPDEST PUSH1 0x40 MLOAD PUSH1 0x20 DUP2 DUP4 SUB SUB DUP2 MSTORE SWAP1 PUSH1 0x40 MSTORE DUP1 MLOAD SWAP1 PUSH1 0x20 ADD KECCAK256 SUB PUSH2 0x7DF JUMPI DUP1 PUSH0 DUP1 ADD DUP6 PUSH2 0xFFFF AND PUSH2 0x4B1 DUP2 LT PUSH2 0x697 JUMPI PUSH2 0x696 PUSH2 0xF2D JUMP JUMPDEST JUMPDEST PUSH1 0x5 SWAP2 DUP3 DUP3 DIV ADD SWAP2 SWAP1 MOD PUSH1 0x6 MUL PUSH2 0x100 EXP DUP2 SLOAD DUP2 PUSH6 0xFFFFFFFFFFFF MUL NOT AND SWAP1 DUP4 PUSH6 0xFFFFFFFFFFFF AND MUL OR SWAP1 SSTORE POP PUSH1 0x1 PUSH0 DUP1 ADD PUSH0 PUSH2 0x4B1 DUP2 LT PUSH2 0x6DC JUMPI PUSH2 0x6DB PUSH2 0xF2D JUMP JUMPDEST JUMPDEST PUSH1 0x5 SWAP2 DUP3 DUP3 DIV ADD SWAP2 SWAP1 MOD PUSH1 0x6 MUL DUP3 DUP3 DUP3 SWAP1 SLOAD SWAP1 PUSH2 0x100 EXP SWAP1 DIV PUSH6 0xFFFFFFFFFFFF AND PUSH2 0x707 SWAP2 SWAP1 PUSH2 0x10E6 JUMP JUMPDEST SWAP3 POP PUSH2 0x100 EXP DUP2 SLOAD DUP2 PUSH6 0xFFFFFFFFFFFF MUL NOT AND SWAP1 DUP4 PUSH6 0xFFFFFFFFFFFF AND MUL OR SWAP1 SSTORE POP DUP1 PUSH0 PUSH2 0x1E2 ADD DUP6 PUSH2 0xFFFF AND PUSH2 0x4B1 DUP2 LT PUSH2 0x746 JUMPI PUSH2 0x745 PUSH2 0xF2D JUMP JUMPDEST JUMPDEST PUSH1 0x5 SWAP2 DUP3 DUP3 DIV ADD SWAP2 SWAP1 MOD PUSH1 0x6 MUL PUSH2 0x100 EXP DUP2 SLOAD DUP2 PUSH6 0xFFFFFFFFFFFF MUL NOT AND SWAP1 DUP4 PUSH6 0xFFFFFFFFFFFF AND MUL OR SWAP1 SSTORE POP PUSH1 0x1 PUSH0 PUSH2 0x1E2 ADD PUSH0 PUSH2 0x4B1 DUP2 LT PUSH2 0x78D JUMPI PUSH2 0x78C PUSH2 0xF2D JUMP JUMPDEST JUMPDEST PUSH1 0x5 SWAP2 DUP3 DUP3 DIV ADD SWAP2 SWAP1 MOD PUSH1 0x6 MUL DUP3 DUP3 DUP3 SWAP1 SLOAD SWAP1 PUSH2 0x100 EXP SWAP1 DIV PUSH6 0xFFFFFFFFFFFF AND PUSH2 0x7B8 SWAP2 SWAP1 PUSH2 0x10E6 JUMP JUMPDEST SWAP3 POP PUSH2 0x100 EXP DUP2 SLOAD DUP2 PUSH6 0xFFFFFFFFFFFF MUL NOT AND SWAP1 DUP4 PUSH6 0xFFFFFFFFFFFF AND MUL OR SWAP1 SSTORE POP PUSH2 0xAF7 JUMP JUMPDEST DUP2 PUSH1 0x40 MLOAD PUSH1 0x20 ADD PUSH2 0x7EF SWAP1 PUSH2 0x11C7 JUMP JUMPDEST PUSH1 0x40 MLOAD PUSH1 0x20 DUP2 DUP4 SUB SUB DUP2 MSTORE SWAP1 PUSH1 0x40 MSTORE DUP1 MLOAD SWAP1 PUSH1 0x20 ADD KECCAK256 SUB PUSH2 0x96D JUMPI DUP1 PUSH0 DUP1 ADD DUP6 PUSH2 0xFFFF AND PUSH2 0x4B1 DUP2 LT PUSH2 0x825 JUMPI PUSH2 0x824 PUSH2 0xF2D JUMP JUMPDEST JUMPDEST PUSH1 0x5 SWAP2 DUP3 DUP3 DIV ADD SWAP2 SWAP1 MOD PUSH1 0x6 MUL PUSH2 0x100 EXP DUP2 SLOAD DUP2 PUSH6 0xFFFFFFFFFFFF MUL NOT AND SWAP1 DUP4 PUSH6 0xFFFFFFFFFFFF AND MUL OR SWAP1 SSTORE POP PUSH1 0x1 PUSH0 DUP1 ADD PUSH0 PUSH2 0x4B1 DUP2 LT PUSH2 0x86A JUMPI PUSH2 0x869 PUSH2 0xF2D JUMP JUMPDEST JUMPDEST PUSH1 0x5 SWAP2 DUP3 DUP3 DIV ADD SWAP2 SWAP1 MOD PUSH1 0x6 MUL DUP3 DUP3 DUP3 SWAP1 SLOAD SWAP1 PUSH2 0x100 EXP SWAP1 DIV PUSH6 0xFFFFFFFFFFFF AND PUSH2 0x895 SWAP2 SWAP1 PUSH2 0x10E6 JUMP JUMPDEST SWAP3 POP PUSH2 0x100 EXP DUP2 SLOAD DUP2 PUSH6 0xFFFFFFFFFFFF MUL NOT AND SWAP1 DUP4 PUSH6 0xFFFFFFFFFFFF AND MUL OR SWAP1 SSTORE POP DUP1 PUSH0 PUSH2 0x2D3 ADD DUP6 PUSH2 0xFFFF AND PUSH2 0x4B1 DUP2 LT PUSH2 0x8D4 JUMPI PUSH2 0x8D3 PUSH2 0xF2D JUMP JUMPDEST JUMPDEST PUSH1 0x5 SWAP2 DUP3 DUP3 DIV ADD SWAP2 SWAP1 MOD PUSH1 0x6 MUL PUSH2 0x100 EXP DUP2 SLOAD DUP2 PUSH6 0xFFFFFFFFFFFF MUL NOT AND SWAP1 DUP4 PUSH6 0xFFFFFFFFFFFF AND MUL OR SWAP1 SSTORE POP PUSH1 0x1 PUSH0 PUSH2 0x2D3 ADD PUSH0 PUSH2 0x4B1 DUP2 LT PUSH2 0x91B JUMPI PUSH2 0x91A PUSH2 0xF2D JUMP JUMPDEST JUMPDEST PUSH1 0x5 SWAP2 DUP3 DUP3 DIV ADD SWAP2 SWAP1 MOD PUSH1 0x6 MUL DUP3 DUP3 DUP3 SWAP1 SLOAD SWAP1 PUSH2 0x100 EXP SWAP1 DIV PUSH6 0xFFFFFFFFFFFF AND PUSH2 0x946 SWAP2 SWAP1 PUSH2 0x10E6 JUMP JUMPDEST SWAP3 POP PUSH2 0x100 EXP DUP2 SLOAD DUP2 PUSH6 0xFFFFFFFFFFFF MUL NOT AND SWAP1 DUP4 PUSH6 0xFFFFFFFFFFFF AND MUL OR SWAP1 SSTORE POP PUSH2 0xAF6 JUMP JUMPDEST DUP2 PUSH1 0x40 MLOAD PUSH1 0x20 ADD PUSH2 0x97D SWAP1 PUSH2 0x1225 JUMP JUMPDEST PUSH1 0x40 MLOAD PUSH1 0x20 DUP2 DUP4 SUB SUB DUP2 MSTORE SWAP1 PUSH1 0x40 MSTORE DUP1 MLOAD SWAP1 PUSH1 0x20 ADD KECCAK256 SUB PUSH2 0xAF5 JUMPI DUP1 PUSH0 DUP1 ADD DUP6 PUSH2 0xFFFF AND PUSH2 0x4B1 DUP2 LT PUSH2 0x9B3 JUMPI PUSH2 0x9B2 PUSH2 0xF2D JUMP JUMPDEST JUMPDEST PUSH1 0x5 SWAP2 DUP3 DUP3 DIV ADD SWAP2 SWAP1 MOD PUSH1 0x6 MUL PUSH2 0x100 EXP DUP2 SLOAD DUP2 PUSH6 0xFFFFFFFFFFFF MUL NOT AND SWAP1 DUP4 PUSH6 0xFFFFFFFFFFFF AND MUL OR SWAP1 SSTORE POP PUSH1 0x1 PUSH0 DUP1 ADD PUSH0 PUSH2 0x4B1 DUP2 LT PUSH2 0x9F8 JUMPI PUSH2 0x9F7 PUSH2 0xF2D JUMP JUMPDEST JUMPDEST PUSH1 0x5 SWAP2 DUP3 DUP3 DIV ADD SWAP2 SWAP1 MOD PUSH1 0x6 MUL DUP3 DUP3 DUP3 SWAP1 SLOAD SWAP1 PUSH2 0x100 EXP SWAP1 DIV PUSH6 0xFFFFFFFFFFFF AND PUSH2 0xA23 SWAP2 SWAP1 PUSH2 0x10E6 JUMP JUMPDEST SWAP3 POP PUSH2 0x100 EXP DUP2 SLOAD DUP2 PUSH6 0xFFFFFFFFFFFF MUL NOT AND SWAP1 DUP4 PUSH6 0xFFFFFFFFFFFF AND MUL OR SWAP1 SSTORE POP DUP1 PUSH0 PUSH1 0xF1 ADD DUP6 PUSH2 0xFFFF AND PUSH2 0x4B1 DUP2 LT PUSH2 0xA61 JUMPI PUSH2 0xA60 PUSH2 0xF2D JUMP JUMPDEST JUMPDEST PUSH1 0x5 SWAP2 DUP3 DUP3 DIV ADD SWAP2 SWAP1 MOD PUSH1 0x6 MUL PUSH2 0x100 EXP DUP2 SLOAD DUP2 PUSH6 0xFFFFFFFFFFFF MUL NOT AND SWAP1 DUP4 PUSH6 0xFFFFFFFFFFFF AND MUL OR SWAP1 SSTORE POP PUSH1 0x1 PUSH0 PUSH1 0xF1 ADD PUSH0 PUSH2 0x4B1 DUP2 LT PUSH2 0xAA7 JUMPI PUSH2 0xAA6 PUSH2 0xF2D JUMP JUMPDEST JUMPDEST PUSH1 0x5 SWAP2 DUP3 DUP3 DIV ADD SWAP2 SWAP1 MOD PUSH1 0x6 MUL DUP3 DUP3 DUP3 SWAP1 SLOAD SWAP1 PUSH2 0x100 EXP SWAP1 DIV PUSH6 0xFFFFFFFFFFFF AND PUSH2 0xAD2 SWAP2 SWAP1 PUSH2 0x10E6 JUMP JUMPDEST SWAP3 POP PUSH2 0x100 EXP DUP2 SLOAD DUP2 PUSH6 0xFFFFFFFFFFFF MUL NOT AND SWAP1 DUP4 PUSH6 0xFFFFFFFFFFFF AND MUL OR SWAP1 SSTORE POP JUMPDEST JUMPDEST JUMPDEST JUMPDEST POP POP POP POP POP JUMP JUMPDEST PUSH1 0x40 MLOAD DUP1 PUSH2 0x140 ADD PUSH1 0x40 MSTORE DUP1 PUSH0 PUSH20 0xFFFFFFFFFFFFFFFFFFFFFFFFFFFFFFFFFFFFFFFF AND DUP2 MSTORE PUSH1 0x20 ADD PUSH0 PUSH20 0xFFFFFFFFFFFFFFFFFFFFFFFFFFFFFFFFFFFFFFFF AND DUP2 MSTORE PUSH1 0x20 ADD PUSH0 PUSH2 0xFFFF AND DUP2 MSTORE PUSH1 0x20 ADD PUSH0 PUSH4 0xFFFFFFFF AND DUP2 MSTORE PUSH1 0x20 ADD PUSH0 PUSH6 0xFFFFFFFFFFFF AND DUP2 MSTORE PUSH1 0x20 ADD PUSH0 PUSH6 0xFFFFFFFFFFFF AND DUP2 MSTORE PUSH1 0x20 ADD PUSH0 ISZERO ISZERO DUP2 MSTORE PUSH1 0x20 ADD PUSH0 ISZERO ISZERO DUP2 MSTORE PUSH1 0x20 ADD PUSH0 ISZERO ISZERO DUP2 MSTORE PUSH1 0x20 ADD PUSH0 ISZERO ISZERO DUP2 MSTORE POP SWAP1 JUMP JUMPDEST PUSH0 DUP1 REVERT JUMPDEST PUSH0 DUP2 SWAP1 POP SWAP2 SWAP1 POP JUMP JUMPDEST PUSH2 0xBAC DUP2 PUSH2 0xB9A JUMP JUMPDEST DUP2 EQ PUSH2 0xBB6 JUMPI PUSH0 DUP1 REVERT JUMPDEST POP JUMP JUMPDEST PUSH0 DUP2 CALLDATALOAD SWAP1 POP PUSH2 0xBC7 DUP2 PUSH2 0xBA3 JUMP JUMPDEST SWAP3 SWAP2 POP POP JUMP JUMPDEST PUSH0 PUSH1 0x20 DUP3 DUP5 SUB SLT ISZERO PUSH2 0xBE2 JUMPI PUSH2 0xBE1 PUSH2 0xB96 JUMP JUMPDEST JUMPDEST PUSH0 PUSH2 0xBEF DUP5 DUP3 DUP6 ADD PUSH2 0xBB9 JUMP JUMPDEST SWAP2 POP POP SWAP3 SWAP2 POP POP JUMP JUMPDEST PUSH0 PUSH20 0xFFFFFFFFFFFFFFFFFFFFFFFFFFFFFFFFFFFFFFFF DUP3 AND SWAP1 POP SWAP2 SWAP1 POP JUMP JUMPDEST PUSH0 PUSH2 0xC21 DUP3 PUSH2 0xBF8 JUMP JUMPDEST SWAP1 POP SWAP2 SWAP1 POP JUMP JUMPDEST PUSH2 0xC31 DUP2 PUSH2 0xC17 JUMP JUMPDEST DUP3 MSTORE POP POP JUMP JUMPDEST PUSH0 PUSH2 0xFFFF DUP3 AND SWAP1 POP SWAP2 SWAP1 POP JUMP JUMPDEST PUSH2 0xC4D DUP2 PUSH2 0xC37 JUMP JUMPDEST DUP3 MSTORE POP POP JUMP JUMPDEST PUSH0 PUSH4 0xFFFFFFFF DUP3 AND SWAP1 POP SWAP2 SWAP1 POP JUMP JUMPDEST PUSH2 0xC6B DUP2 PUSH2 0xC53 JUMP JUMPDEST DUP3 MSTORE POP POP JUMP JUMPDEST PUSH0 PUSH6 0xFFFFFFFFFFFF DUP3 AND SWAP1 POP SWAP2 SWAP1 POP JUMP JUMPDEST PUSH2 0xC8B DUP2 PUSH2 0xC71 JUMP JUMPDEST DUP3 MSTORE POP POP JUMP JUMPDEST PUSH0 DUP2 ISZERO ISZERO SWAP1 POP SWAP2 SWAP1 POP JUMP JUMPDEST PUSH2 0xCA5 DUP2 PUSH2 0xC91 JUMP JUMPDEST DUP3 MSTORE POP POP JUMP JUMPDEST PUSH2 0x140 DUP3 ADD PUSH0 DUP3 ADD MLOAD PUSH2 0xCC0 PUSH0 DUP6 ADD DUP3 PUSH2 0xC28 JUMP JUMPDEST POP PUSH1 0x20 DUP3 ADD MLOAD PUSH2 0xCD3 PUSH1 0x20 DUP6 ADD DUP3 PUSH2 0xC28 JUMP JUMPDEST POP PUSH1 0x40 DUP3 ADD MLOAD PUSH2 0xCE6 PUSH1 0x40 DUP6 ADD DUP3 PUSH2 0xC44 JUMP JUMPDEST POP PUSH1 0x60 DUP3 ADD MLOAD PUSH2 0xCF9 PUSH1 0x60 DUP6 ADD DUP3 PUSH2 0xC62 JUMP JUMPDEST POP PUSH1 0x80 DUP3 ADD MLOAD PUSH2 0xD0C PUSH1 0x80 DUP6 ADD DUP3 PUSH2 0xC82 JUMP JUMPDEST POP PUSH1 0xA0 DUP3 ADD MLOAD PUSH2 0xD1F PUSH1 0xA0 DUP6 ADD DUP3 PUSH2 0xC82 JUMP JUMPDEST POP PUSH1 0xC0 DUP3 ADD MLOAD PUSH2 0xD32 PUSH1 0xC0 DUP6 ADD DUP3 PUSH2 0xC9C JUMP JUMPDEST POP PUSH1 0xE0 DUP3 ADD MLOAD PUSH2 0xD45 PUSH1 0xE0 DUP6 ADD DUP3 PUSH2 0xC9C JUMP JUMPDEST POP PUSH2 0x100 DUP3 ADD MLOAD PUSH2 0xD5A PUSH2 0x100 DUP6 ADD DUP3 PUSH2 0xC9C JUMP JUMPDEST POP PUSH2 0x120 DUP3 ADD MLOAD PUSH2 0xD6F PUSH2 0x120 DUP6 ADD DUP3 PUSH2 0xC9C JUMP JUMPDEST POP POP POP POP JUMP JUMPDEST PUSH0 PUSH2 0x140 DUP3 ADD SWAP1 POP PUSH2 0xD89 PUSH0 DUP4 ADD DUP5 PUSH2 0xCAB JUMP JUMPDEST SWAP3 SWAP2 POP POP JUMP JUMPDEST PUSH2 0xD98 DUP2 PUSH2 0xC37 JUMP JUMPDEST DUP2 EQ PUSH2 0xDA2 JUMPI PUSH0 DUP1 REVERT JUMPDEST POP JUMP JUMPDEST PUSH0 DUP2 CALLDATALOAD SWAP1 POP PUSH2 0xDB3 DUP2 PUSH2 0xD8F JUMP JUMPDEST SWAP3 SWAP2 POP POP JUMP JUMPDEST PUSH0 PUSH1 0x20 DUP3 DUP5 SUB SLT ISZERO PUSH2 0xDCE JUMPI PUSH2 0xDCD PUSH2 0xB96 JUMP JUMPDEST JUMPDEST PUSH0 PUSH2 0xDDB DUP5 DUP3 DUP6 ADD PUSH2 0xDA5 JUMP JUMPDEST SWAP2 POP POP SWAP3 SWAP2 POP POP JUMP JUMPDEST PUSH2 0xDED DUP2 PUSH2 0xC91 JUMP JUMPDEST DUP3 MSTORE POP POP JUMP JUMPDEST PUSH0 PUSH1 0x20 DUP3 ADD SWAP1 POP PUSH2 0xE06 PUSH0 DUP4 ADD DUP5 PUSH2 0xDE4 JUMP JUMPDEST SWAP3 SWAP2 POP POP JUMP JUMPDEST PUSH0 DUP1 PUSH1 0x40 DUP4 DUP6 SUB SLT ISZERO PUSH2 0xE22 JUMPI PUSH2 0xE21 PUSH2 0xB96 JUMP JUMPDEST JUMPDEST PUSH0 PUSH2 0xE2F DUP6 DUP3 DUP7 ADD PUSH2 0xBB9 JUMP JUMPDEST SWAP3 POP POP PUSH1 0x20 PUSH2 0xE40 DUP6 DUP3 DUP7 ADD PUSH2 0xBB9 JUMP JUMPDEST SWAP2 POP POP SWAP3 POP SWAP3 SWAP1 POP JUMP JUMPDEST PUSH0 DUP2 SWAP1 POP SWAP2 SWAP1 POP JUMP JUMPDEST PUSH2 0xE5C DUP2 PUSH2 0xE4A JUMP JUMPDEST DUP2 EQ PUSH2 0xE66 JUMPI PUSH0 DUP1 REVERT JUMPDEST POP JUMP JUMPDEST PUSH0 DUP2 CALLDATALOAD SWAP1 POP PUSH2 0xE77 DUP2 PUSH2 0xE53 JUMP JUMPDEST SWAP3 SWAP2 POP POP JUMP JUMPDEST PUSH0 DUP1 PUSH0 PUSH1 0x60 DUP5 DUP7 SUB SLT ISZERO PUSH2 0xE94 JUMPI PUSH2 0xE93 PUSH2 0xB96 JUMP JUMPDEST JUMPDEST PUSH0 PUSH2 0xEA1 DUP7 DUP3 DUP8 ADD PUSH2 0xBB9 JUMP JUMPDEST SWAP4 POP POP PUSH1 0x20 PUSH2 0xEB2 DUP7 DUP3 DUP8 ADD PUSH2 0xDA5 JUMP JUMPDEST SWAP3 POP POP PUSH1 0x40 PUSH2 0xEC3 DUP7 DUP3 DUP8 ADD PUSH2 0xE69 JUMP JUMPDEST SWAP2 POP POP SWAP3 POP SWAP3 POP SWAP3 JUMP JUMPDEST PUSH32 0x4E487B7100000000000000000000000000000000000000000000000000000000 PUSH0 MSTORE PUSH1 0x11 PUSH1 0x4 MSTORE PUSH1 0x24 PUSH0 REVERT JUMPDEST PUSH0 PUSH2 0xF04 DUP3 PUSH2 0xB9A JUMP JUMPDEST SWAP2 POP PUSH2 0xF0F DUP4 PUSH2 0xB9A JUMP JUMPDEST SWAP3 POP DUP3 DUP3 SUB SWAP1 POP DUP2 DUP2 GT ISZERO PUSH2 0xF27 JUMPI PUSH2 0xF26 PUSH2 0xECD JUMP JUMPDEST JUMPDEST SWAP3 SWAP2 POP POP JUMP JUMPDEST PUSH32 0x4E487B7100000000000000000000000000000000000000000000000000000000 PUSH0 MSTORE PUSH1 0x32 PUSH1 0x4 MSTORE PUSH1 0x24 PUSH0 REVERT JUMPDEST PUSH0 PUSH2 0xF64 DUP3 PUSH2 0xC37 JUMP JUMPDEST SWAP2 POP PUSH2 0xFFFF DUP3 SUB PUSH2 0xF78 JUMPI PUSH2 0xF77 PUSH2 0xECD JUMP JUMPDEST JUMPDEST PUSH1 0x1 DUP3 ADD SWAP1 POP SWAP2 SWAP1 POP JUMP JUMPDEST PUSH32 0x4E487B7100000000000000000000000000000000000000000000000000000000 PUSH0 MSTORE PUSH1 0x12 PUSH1 0x4 MSTORE PUSH1 0x24 PUSH0 REVERT JUMPDEST PUSH0 PUSH2 0xFBA DUP3 PUSH2 0xC37 JUMP JUMPDEST SWAP2 POP PUSH2 0xFC5 DUP4 PUSH2 0xC37 JUMP JUMPDEST SWAP3 POP DUP3 PUSH2 0xFD5 JUMPI PUSH2 0xFD4 PUSH2 0xF83 JUMP JUMPDEST JUMPDEST DUP3 DUP3 DIV SWAP1 POP SWAP3 SWAP2 POP POP JUMP JUMPDEST PUSH0 PUSH2 0xFEA DUP3 PUSH2 0xC37 JUMP JUMPDEST SWAP2 POP PUSH2 0xFF5 DUP4 PUSH2 0xC37 JUMP JUMPDEST SWAP3 POP DUP3 DUP3 MUL PUSH2 0x1003 DUP2 PUSH2 0xC37 JUMP JUMPDEST SWAP2 POP DUP1 DUP3 EQ PUSH2 0x1015 JUMPI PUSH2 0x1014 PUSH2 0xECD JUMP JUMPDEST JUMPDEST POP SWAP3 SWAP2 POP POP JUMP JUMPDEST PUSH2 0x1025 DUP2 PUSH2 0xB9A JUMP JUMPDEST DUP3 MSTORE POP POP JUMP JUMPDEST PUSH0 PUSH1 0x20 DUP3 ADD SWAP1 POP PUSH2 0x103E PUSH0 DUP4 ADD DUP5 PUSH2 0x101C JUMP JUMPDEST SWAP3 SWAP2 POP POP JUMP JUMPDEST PUSH0 DUP2 SWAP1 POP SWAP2 SWAP1 POP JUMP JUMPDEST PUSH2 0x105E PUSH2 0x1059 DUP3 PUSH2 0xE4A JUMP JUMPDEST PUSH2 0x1044 JUMP JUMPDEST DUP3 MSTORE POP POP JUMP JUMPDEST PUSH0 PUSH2 0x106F DUP3 DUP5 PUSH2 0x104D JUMP JUMPDEST PUSH1 0x20 DUP3 ADD SWAP2 POP DUP2 SWAP1 POP SWAP3 SWAP2 POP POP JUMP JUMPDEST PUSH0 DUP2 SWAP1 POP SWAP3 SWAP2 POP POP JUMP JUMPDEST PUSH32 0x666F72416E790000000000000000000000000000000000000000000000000000 PUSH0 DUP3 ADD MSTORE POP JUMP JUMPDEST PUSH0 PUSH2 0x10BC PUSH1 0x6 DUP4 PUSH2 0x107E JUMP JUMPDEST SWAP2 POP PUSH2 0x10C7 DUP3 PUSH2 0x1088 JUMP JUMPDEST PUSH1 0x6 DUP3 ADD SWAP1 POP SWAP2 SWAP1 POP JUMP JUMPDEST PUSH0 PUSH2 0x10DC DUP3 PUSH2 0x10B0 JUMP JUMPDEST SWAP2 POP DUP2 SWAP1 POP SWAP2 SWAP1 POP JUMP JUMPDEST PUSH0 PUSH2 0x10F0 DUP3 PUSH2 0xC71 JUMP JUMPDEST SWAP2 POP PUSH2 0x10FB DUP4 PUSH2 0xC71 JUMP JUMPDEST SWAP3 POP DUP3 DUP3 ADD SWAP1 POP PUSH6 0xFFFFFFFFFFFF DUP2 GT ISZERO PUSH2 0x1119 JUMPI PUSH2 0x1118 PUSH2 0xECD JUMP JUMPDEST JUMPDEST SWAP3 SWAP2 POP POP JUMP JUMPDEST PUSH32 0x6C617374506172746941756374696F6E00000000000000000000000000000000 PUSH0 DUP3 ADD MSTORE POP JUMP JUMPDEST PUSH0 PUSH2 0x1153 PUSH1 0x10 DUP4 PUSH2 0x107E JUMP JUMPDEST SWAP2 POP PUSH2 0x115E DUP3 PUSH2 0x111F JUMP JUMPDEST PUSH1 0x10 DUP3 ADD SWAP1 POP SWAP2 SWAP1 POP JUMP JUMPDEST PUSH0 PUSH2 0x1173 DUP3 PUSH2 0x1147 JUMP JUMPDEST SWAP2 POP DUP2 SWAP1 POP SWAP2 SWAP1 POP JUMP JUMPDEST PUSH32 0x6C61737453756341756374696F6E000000000000000000000000000000000000 PUSH0 DUP3 ADD MSTORE POP JUMP JUMPDEST PUSH0 PUSH2 0x11B1 PUSH1 0xE DUP4 PUSH2 0x107E JUMP JUMPDEST SWAP2 POP PUSH2 0x11BC DUP3 PUSH2 0x117D JUMP JUMPDEST PUSH1 0xE DUP3 ADD SWAP1 POP SWAP2 SWAP1 POP JUMP JUMPDEST PUSH0 PUSH2 0x11D1 DUP3 PUSH2 0x11A5 JUMP JUMPDEST SWAP2 POP DUP2 SWAP1 POP SWAP2 SWAP1 POP JUMP JUMPDEST PUSH32 0x6C6173745472616E736665720000000000000000000000000000000000000000 PUSH0 DUP3 ADD MSTORE POP JUMP JUMPDEST PUSH0 PUSH2 0x120F PUSH1 0xC DUP4 PUSH2 0x107E JUMP JUMPDEST SWAP2 POP PUSH2 0x121A DUP3 PUSH2 0x11DB JUMP JUMPDEST PUSH1 0xC DUP3 ADD SWAP1 POP SWAP2 SWAP1 POP JUMP JUMPDEST PUSH0 PUSH2 0x122F DUP3 PUSH2 0x1203 JUMP JUMPDEST SWAP2 POP DUP2 SWAP1 POP SWAP2 SWAP1 POP JUMP INVALID LOG2 PUSH5 0x6970667358 0x22 SLT KECCAK256 SWAP4 0xD9 0xDE JUMP 0xB3 0xB3 SWAP10 0x5D 0x23 CALLDATALOAD EXP NOT RETURNDATACOPY CALLDATASIZE 0x25 0xB8 PUSH4 0xBC7828CD DUP9 CALLER SDIV 0xC7 PUSH30 0x3F70B01AC1E364736F6C6343000814003300000000000000000000000000 "
				},
				"gasEstimates": {
					"creation": {
						"codeDepositCost": "943800",
						"executionCost": "979",
						"totalCost": "944779"
					},
					"external": {
						"isQuorumValid(uint16)": "infinite",
						"proposals(uint256)": "infinite",
						"setActivityTimeToken(uint256,uint16,bytes32)": "infinite",
						"setProposalState(uint256,uint256)": "infinite"
					}
				},
				"methodIdentifiers": {
					"isQuorumValid(uint16)": "0702718e",
					"proposals(uint256)": "013cf08b",
					"setActivityTimeToken(uint256,uint16,bytes32)": "c5301082",
					"setProposalState(uint256,uint256)": "1e9608a8"
				}
			},
			"storageLayout": {
				"storage": [
					{
						"astId": 25,
						"contract": "contracts/storageTokenContractName.sol:storageTCN",
						"label": "activityTimeToken",
						"offset": 0,
						"slot": "0",
						"type": "t_struct(ACTIVITYTIME)22_storage"
					},
					{
						"astId": 51,
						"contract": "contracts/storageTokenContractName.sol:storageTCN",
						"label": "_proposals",
						"offset": 0,
						"slot": "964",
						"type": "t_mapping(t_uint256,t_struct(ProposalCore)46_storage)"
					},
					{
						"astId": 57,
						"contract": "contracts/storageTokenContractName.sol:storageTCN",
						"label": "_votersVote",
						"offset": 0,
						"slot": "965",
						"type": "t_mapping(t_uint256,t_mapping(t_address,t_bytes32))"
					}
				],
				"types": {
					"t_address": {
						"encoding": "inplace",
						"label": "address",
						"numberOfBytes": "20"
					},
					"t_array(t_uint48)1201_storage": {
						"base": "t_uint48",
						"encoding": "inplace",
						"label": "uint48[1201]",
						"numberOfBytes": "7712"
					},
					"t_bool": {
						"encoding": "inplace",
						"label": "bool",
						"numberOfBytes": "1"
					},
					"t_bytes32": {
						"encoding": "inplace",
						"label": "bytes32",
						"numberOfBytes": "32"
					},
					"t_mapping(t_address,t_bytes32)": {
						"encoding": "mapping",
						"key": "t_address",
						"label": "mapping(address => bytes32)",
						"numberOfBytes": "32",
						"value": "t_bytes32"
					},
					"t_mapping(t_uint256,t_mapping(t_address,t_bytes32))": {
						"encoding": "mapping",
						"key": "t_uint256",
						"label": "mapping(uint256 => mapping(address => bytes32))",
						"numberOfBytes": "32",
						"value": "t_mapping(t_address,t_bytes32)"
					},
					"t_mapping(t_uint256,t_struct(ProposalCore)46_storage)": {
						"encoding": "mapping",
						"key": "t_uint256",
						"label": "mapping(uint256 => struct storageTCN.ProposalCore)",
						"numberOfBytes": "32",
						"value": "t_struct(ProposalCore)46_storage"
					},
					"t_struct(ACTIVITYTIME)22_storage": {
						"encoding": "inplace",
						"label": "struct storageTCN.ACTIVITYTIME",
						"members": [
							{
								"astId": 9,
								"contract": "contracts/storageTokenContractName.sol:storageTCN",
								"label": "forAny",
								"offset": 0,
								"slot": "0",
								"type": "t_array(t_uint48)1201_storage"
							},
							{
								"astId": 13,
								"contract": "contracts/storageTokenContractName.sol:storageTCN",
								"label": "lastTransfer",
								"offset": 0,
								"slot": "241",
								"type": "t_array(t_uint48)1201_storage"
							},
							{
								"astId": 17,
								"contract": "contracts/storageTokenContractName.sol:storageTCN",
								"label": "lastPartiAuction",
								"offset": 0,
								"slot": "482",
								"type": "t_array(t_uint48)1201_storage"
							},
							{
								"astId": 21,
								"contract": "contracts/storageTokenContractName.sol:storageTCN",
								"label": "lastSucAuction",
								"offset": 0,
								"slot": "723",
								"type": "t_array(t_uint48)1201_storage"
							}
						],
						"numberOfBytes": "30848"
					},
					"t_struct(ProposalCore)46_storage": {
						"encoding": "inplace",
						"label": "struct storageTCN.ProposalCore",
						"members": [
							{
								"astId": 27,
								"contract": "contracts/storageTokenContractName.sol:storageTCN",
								"label": "proposer",
								"offset": 0,
								"slot": "0",
								"type": "t_address"
							},
							{
								"astId": 29,
								"contract": "contracts/storageTokenContractName.sol:storageTCN",
								"label": "ballotContract",
								"offset": 0,
								"slot": "1",
								"type": "t_address"
							},
							{
								"astId": 31,
								"contract": "contracts/storageTokenContractName.sol:storageTCN",
								"label": "quorum",
								"offset": 20,
								"slot": "1",
								"type": "t_uint16"
							},
							{
								"astId": 33,
								"contract": "contracts/storageTokenContractName.sol:storageTCN",
								"label": "voteDuration",
								"offset": 22,
								"slot": "1",
								"type": "t_uint32"
							},
							{
								"astId": 35,
								"contract": "contracts/storageTokenContractName.sol:storageTCN",
								"label": "voteStart",
								"offset": 26,
								"slot": "1",
								"type": "t_uint48"
							},
							{
								"astId": 37,
								"contract": "contracts/storageTokenContractName.sol:storageTCN",
								"label": "etaSeconds",
								"offset": 0,
								"slot": "2",
								"type": "t_uint48"
							},
							{
								"astId": 39,
								"contract": "contracts/storageTokenContractName.sol:storageTCN",
								"label": "executed",
								"offset": 6,
								"slot": "2",
								"type": "t_bool"
							},
							{
								"astId": 41,
								"contract": "contracts/storageTokenContractName.sol:storageTCN",
								"label": "canceled",
								"offset": 7,
								"slot": "2",
								"type": "t_bool"
							},
							{
								"astId": 43,
								"contract": "contracts/storageTokenContractName.sol:storageTCN",
								"label": "Succeeded",
								"offset": 8,
								"slot": "2",
								"type": "t_bool"
							},
							{
								"astId": 45,
								"contract": "contracts/storageTokenContractName.sol:storageTCN",
								"label": "Defeated",
								"offset": 9,
								"slot": "2",
								"type": "t_bool"
							}
						],
						"numberOfBytes": "96"
					},
					"t_uint16": {
						"encoding": "inplace",
						"label": "uint16",
						"numberOfBytes": "2"
					},
					"t_uint256": {
						"encoding": "inplace",
						"label": "uint256",
						"numberOfBytes": "32"
					},
					"t_uint32": {
						"encoding": "inplace",
						"label": "uint32",
						"numberOfBytes": "4"
					},
					"t_uint48": {
						"encoding": "inplace",
						"label": "uint48",
						"numberOfBytes": "6"
					}
				}
			},
			"userdoc": {
				"kind": "user",
				"methods": {},
				"version": 1
			}
		}
	}
}