{
	"contracts/storageTokenContractName.sol": {
		"storageTCN": {
			"abi": [
				{
					"inputs": [
						{
							"internalType": "uint256",
							"name": "proposalState",
							"type": "uint256"
						}
					],
					"name": "stateIsInvalid",
					"type": "error"
				},
				{
					"inputs": [
						{
							"internalType": "uint256",
							"name": "proposalId",
							"type": "uint256"
						}
					],
					"name": "proposals",
					"outputs": [
						{
							"components": [
								{
									"internalType": "address",
									"name": "proposer",
									"type": "address"
								},
								{
									"internalType": "address",
									"name": "ballotContract",
									"type": "address"
								},
								{
									"internalType": "uint16",
									"name": "quorum",
									"type": "uint16"
								},
								{
									"internalType": "uint32",
									"name": "voteDuration",
									"type": "uint32"
								},
								{
									"internalType": "uint48",
									"name": "voteStart",
									"type": "uint48"
								},
								{
									"internalType": "uint48",
									"name": "etaSeconds",
									"type": "uint48"
								},
								{
									"internalType": "bool",
									"name": "executed",
									"type": "bool"
								},
								{
									"internalType": "bool",
									"name": "canceled",
									"type": "bool"
								},
								{
									"internalType": "bool",
									"name": "Succeeded",
									"type": "bool"
								},
								{
									"internalType": "bool",
									"name": "Defeated",
									"type": "bool"
								}
							],
							"internalType": "struct storageTCN.ProposalCore",
							"name": "",
							"type": "tuple"
						}
					],
					"stateMutability": "view",
					"type": "function"
				},
				{
					"inputs": [
						{
							"internalType": "uint256",
							"name": "proposalState",
							"type": "uint256"
						},
						{
							"internalType": "uint256",
							"name": "proposalId",
							"type": "uint256"
						}
					],
					"name": "setProposalState",
					"outputs": [],
					"stateMutability": "nonpayable",
					"type": "function"
				}
			],
			"devdoc": {
				"kind": "dev",
				"methods": {},
				"version": 1
			},
			"evm": {
				"assembly": "    /* \"contracts/storageTokenContractName.sol\":75:1345  contract storageTCN {... */\n  mstore(0x40, 0x80)\n  callvalue\n  dup1\n  iszero\n  tag_1\n  jumpi\n  0x00\n  dup1\n  revert\ntag_1:\n  pop\n  dataSize(sub_0)\n  dup1\n  dataOffset(sub_0)\n  0x00\n  codecopy\n  0x00\n  return\nstop\n\nsub_0: assembly {\n        /* \"contracts/storageTokenContractName.sol\":75:1345  contract storageTCN {... */\n      mstore(0x40, 0x80)\n      callvalue\n      dup1\n      iszero\n      tag_1\n      jumpi\n      0x00\n      dup1\n      revert\n    tag_1:\n      pop\n      jumpi(tag_2, lt(calldatasize, 0x04))\n      shr(0xe0, calldataload(0x00))\n      dup1\n      0x013cf08b\n      eq\n      tag_3\n      jumpi\n      dup1\n      0x1e9608a8\n      eq\n      tag_4\n      jumpi\n    tag_2:\n      0x00\n      dup1\n      revert\n        /* \"contracts/storageTokenContractName.sol\":633:762  function proposals(uint256 proposalId) public view returns (ProposalCore memory) {... */\n    tag_3:\n      tag_5\n      0x04\n      dup1\n      calldatasize\n      sub\n      dup2\n      add\n      swap1\n      tag_6\n      swap2\n      swap1\n      tag_7\n      jump\t// in\n    tag_6:\n      tag_8\n      jump\t// in\n    tag_5:\n      mload(0x40)\n      tag_9\n      swap2\n      swap1\n      tag_10\n      jump\t// in\n    tag_9:\n      mload(0x40)\n      dup1\n      swap2\n      sub\n      swap1\n      return\n        /* \"contracts/storageTokenContractName.sol\":770:1340  function setProposalState(uint256 proposalState, uint256 proposalId) public {... */\n    tag_4:\n      tag_11\n      0x04\n      dup1\n      calldatasize\n      sub\n      dup2\n      add\n      swap1\n      tag_12\n      swap2\n      swap1\n      tag_13\n      jump\t// in\n    tag_12:\n      tag_14\n      jump\t// in\n    tag_11:\n      stop\n        /* \"contracts/storageTokenContractName.sol\":633:762  function proposals(uint256 proposalId) public view returns (ProposalCore memory) {... */\n    tag_8:\n        /* \"contracts/storageTokenContractName.sol\":693:712  ProposalCore memory */\n      tag_15\n      tag_16\n      jump\t// in\n    tag_15:\n        /* \"contracts/storageTokenContractName.sol\":732:742  _proposals */\n      0x00\n        /* \"contracts/storageTokenContractName.sol\":732:754  _proposals[proposalId] */\n      dup1\n        /* \"contracts/storageTokenContractName.sol\":743:753  proposalId */\n      dup4\n        /* \"contracts/storageTokenContractName.sol\":732:754  _proposals[proposalId] */\n      dup2\n      mstore\n      0x20\n      add\n      swap1\n      dup2\n      mstore\n      0x20\n      add\n      0x00\n      keccak256\n        /* \"contracts/storageTokenContractName.sol\":725:754  return _proposals[proposalId] */\n      mload(0x40)\n      dup1\n      0x0140\n      add\n      0x40\n      mstore\n      swap1\n      dup2\n      0x00\n      dup3\n      add\n      0x00\n      swap1\n      sload\n      swap1\n      0x0100\n      exp\n      swap1\n      div\n      0xffffffffffffffffffffffffffffffffffffffff\n      and\n      0xffffffffffffffffffffffffffffffffffffffff\n      and\n      0xffffffffffffffffffffffffffffffffffffffff\n      and\n      dup2\n      mstore\n      0x20\n      add\n      0x01\n      dup3\n      add\n      0x00\n      swap1\n      sload\n      swap1\n      0x0100\n      exp\n      swap1\n      div\n      0xffffffffffffffffffffffffffffffffffffffff\n      and\n      0xffffffffffffffffffffffffffffffffffffffff\n      and\n      0xffffffffffffffffffffffffffffffffffffffff\n      and\n      dup2\n      mstore\n      0x20\n      add\n      0x01\n      dup3\n      add\n      0x14\n      swap1\n      sload\n      swap1\n      0x0100\n      exp\n      swap1\n      div\n      0xffff\n      and\n      0xffff\n      and\n      0xffff\n      and\n      dup2\n      mstore\n      0x20\n      add\n      0x01\n      dup3\n      add\n      0x16\n      swap1\n      sload\n      swap1\n      0x0100\n      exp\n      swap1\n      div\n      0xffffffff\n      and\n      0xffffffff\n      and\n      0xffffffff\n      and\n      dup2\n      mstore\n      0x20\n      add\n      0x01\n      dup3\n      add\n      0x1a\n      swap1\n      sload\n      swap1\n      0x0100\n      exp\n      swap1\n      div\n      0xffffffffffff\n      and\n      0xffffffffffff\n      and\n      0xffffffffffff\n      and\n      dup2\n      mstore\n      0x20\n      add\n      0x02\n      dup3\n      add\n      0x00\n      swap1\n      sload\n      swap1\n      0x0100\n      exp\n      swap1\n      div\n      0xffffffffffff\n      and\n      0xffffffffffff\n      and\n      0xffffffffffff\n      and\n      dup2\n      mstore\n      0x20\n      add\n      0x02\n      dup3\n      add\n      0x06\n      swap1\n      sload\n      swap1\n      0x0100\n      exp\n      swap1\n      div\n      0xff\n      and\n      iszero\n      iszero\n      iszero\n      iszero\n      dup2\n      mstore\n      0x20\n      add\n      0x02\n      dup3\n      add\n      0x07\n      swap1\n      sload\n      swap1\n      0x0100\n      exp\n      swap1\n      div\n      0xff\n      and\n      iszero\n      iszero\n      iszero\n      iszero\n      dup2\n      mstore\n      0x20\n      add\n      0x02\n      dup3\n      add\n      0x08\n      swap1\n      sload\n      swap1\n      0x0100\n      exp\n      swap1\n      div\n      0xff\n      and\n      iszero\n      iszero\n      iszero\n      iszero\n      dup2\n      mstore\n      0x20\n      add\n      0x02\n      dup3\n      add\n      0x09\n      swap1\n      sload\n      swap1\n      0x0100\n      exp\n      swap1\n      div\n      0xff\n      and\n      iszero\n      iszero\n      iszero\n      iszero\n      dup2\n      mstore\n      pop\n      pop\n      swap1\n      pop\n        /* \"contracts/storageTokenContractName.sol\":633:762  function proposals(uint256 proposalId) public view returns (ProposalCore memory) {... */\n      swap2\n      swap1\n      pop\n      jump\t// out\n        /* \"contracts/storageTokenContractName.sol\":770:1340  function setProposalState(uint256 proposalState, uint256 proposalId) public {... */\n    tag_14:\n        /* \"contracts/storageTokenContractName.sol\":866:879  proposalState */\n      dup2\n        /* \"contracts/storageTokenContractName.sol\":861:862  2 */\n      0x02\n        /* \"contracts/storageTokenContractName.sol\":861:879  2 >= proposalState */\n      lt\n      iszero\n        /* \"contracts/storageTokenContractName.sol\":861:901  2 >= proposalState || proposalState >= 5 */\n      dup1\n      tag_19\n      jumpi\n      pop\n        /* \"contracts/storageTokenContractName.sol\":900:901  5 */\n      0x05\n        /* \"contracts/storageTokenContractName.sol\":883:896  proposalState */\n      dup3\n        /* \"contracts/storageTokenContractName.sol\":883:901  proposalState >= 5 */\n      lt\n      iszero\n        /* \"contracts/storageTokenContractName.sol\":861:901  2 >= proposalState || proposalState >= 5 */\n    tag_19:\n        /* \"contracts/storageTokenContractName.sol\":857:966  if (2 >= proposalState || proposalState >= 5) {... */\n      iszero\n      tag_20\n      jumpi\n        /* \"contracts/storageTokenContractName.sol\":940:953  proposalState */\n      dup2\n        /* \"contracts/storageTokenContractName.sol\":925:954  stateIsInvalid(proposalState) */\n      mload(0x40)\n      0x4961771d00000000000000000000000000000000000000000000000000000000\n      dup2\n      mstore\n      0x04\n      add\n      tag_21\n      swap2\n      swap1\n      tag_22\n      jump\t// in\n    tag_21:\n      mload(0x40)\n      dup1\n      swap2\n      sub\n      swap1\n      revert\n        /* \"contracts/storageTokenContractName.sol\":857:966  if (2 >= proposalState || proposalState >= 5) {... */\n    tag_20:\n        /* \"contracts/storageTokenContractName.sol\":997:998  4 */\n      0x04\n        /* \"contracts/storageTokenContractName.sol\":980:993  proposalState */\n      dup3\n        /* \"contracts/storageTokenContractName.sol\":980:998  proposalState == 4 */\n      sub\n        /* \"contracts/storageTokenContractName.sol\":976:1333  if (proposalState == 4) {... */\n      tag_23\n      jumpi\n        /* \"contracts/storageTokenContractName.sol\":1050:1054  true */\n      0x01\n        /* \"contracts/storageTokenContractName.sol\":1015:1025  _proposals */\n      0x00\n        /* \"contracts/storageTokenContractName.sol\":1015:1037  _proposals[proposalId] */\n      dup1\n        /* \"contracts/storageTokenContractName.sol\":1026:1036  proposalId */\n      dup4\n        /* \"contracts/storageTokenContractName.sol\":1015:1037  _proposals[proposalId] */\n      dup2\n      mstore\n      0x20\n      add\n      swap1\n      dup2\n      mstore\n      0x20\n      add\n      0x00\n      keccak256\n        /* \"contracts/storageTokenContractName.sol\":1015:1047  _proposals[proposalId].Succeeded */\n      0x02\n      add\n      0x08\n        /* \"contracts/storageTokenContractName.sol\":1015:1054  _proposals[proposalId].Succeeded = true */\n      0x0100\n      exp\n      dup2\n      sload\n      dup2\n      0xff\n      mul\n      not\n      and\n      swap1\n      dup4\n      iszero\n      iszero\n      mul\n      or\n      swap1\n      sstore\n      pop\n        /* \"contracts/storageTokenContractName.sol\":976:1333  if (proposalState == 4) {... */\n      jump(tag_24)\n    tag_23:\n        /* \"contracts/storageTokenContractName.sol\":1095:1096  3 */\n      0x03\n        /* \"contracts/storageTokenContractName.sol\":1078:1091  proposalState */\n      dup3\n        /* \"contracts/storageTokenContractName.sol\":1078:1096  proposalState == 3 */\n      sub\n        /* \"contracts/storageTokenContractName.sol\":1074:1333  if (proposalState == 3) {... */\n      tag_25\n      jumpi\n        /* \"contracts/storageTokenContractName.sol\":1147:1151  true */\n      0x01\n        /* \"contracts/storageTokenContractName.sol\":1113:1123  _proposals */\n      0x00\n        /* \"contracts/storageTokenContractName.sol\":1113:1135  _proposals[proposalId] */\n      dup1\n        /* \"contracts/storageTokenContractName.sol\":1124:1134  proposalId */\n      dup4\n        /* \"contracts/storageTokenContractName.sol\":1113:1135  _proposals[proposalId] */\n      dup2\n      mstore\n      0x20\n      add\n      swap1\n      dup2\n      mstore\n      0x20\n      add\n      0x00\n      keccak256\n        /* \"contracts/storageTokenContractName.sol\":1113:1144  _proposals[proposalId].Defeated */\n      0x02\n      add\n      0x09\n        /* \"contracts/storageTokenContractName.sol\":1113:1151  _proposals[proposalId].Defeated = true */\n      0x0100\n      exp\n      dup2\n      sload\n      dup2\n      0xff\n      mul\n      not\n      and\n      swap1\n      dup4\n      iszero\n      iszero\n      mul\n      or\n      swap1\n      sstore\n      pop\n        /* \"contracts/storageTokenContractName.sol\":1074:1333  if (proposalState == 3) {... */\n      jump(tag_26)\n    tag_25:\n        /* \"contracts/storageTokenContractName.sol\":1192:1193  5 */\n      0x05\n        /* \"contracts/storageTokenContractName.sol\":1175:1188  proposalState */\n      dup3\n        /* \"contracts/storageTokenContractName.sol\":1175:1193  proposalState == 5 */\n      sub\n        /* \"contracts/storageTokenContractName.sol\":1171:1333  if (proposalState == 5) {... */\n      tag_27\n      jumpi\n        /* \"contracts/storageTokenContractName.sol\":1244:1248  true */\n      0x01\n        /* \"contracts/storageTokenContractName.sol\":1210:1220  _proposals */\n      0x00\n        /* \"contracts/storageTokenContractName.sol\":1210:1232  _proposals[proposalId] */\n      dup1\n        /* \"contracts/storageTokenContractName.sol\":1221:1231  proposalId */\n      dup4\n        /* \"contracts/storageTokenContractName.sol\":1210:1232  _proposals[proposalId] */\n      dup2\n      mstore\n      0x20\n      add\n      swap1\n      dup2\n      mstore\n      0x20\n      add\n      0x00\n      keccak256\n        /* \"contracts/storageTokenContractName.sol\":1210:1241  _proposals[proposalId].executed */\n      0x02\n      add\n      0x06\n        /* \"contracts/storageTokenContractName.sol\":1210:1248  _proposals[proposalId].executed = true */\n      0x0100\n      exp\n      dup2\n      sload\n      dup2\n      0xff\n      mul\n      not\n      and\n      swap1\n      dup4\n      iszero\n      iszero\n      mul\n      or\n      swap1\n      sstore\n      pop\n        /* \"contracts/storageTokenContractName.sol\":1171:1333  if (proposalState == 5) {... */\n      jump(tag_28)\n    tag_27:\n        /* \"contracts/storageTokenContractName.sol\":1317:1321  true */\n      0x01\n        /* \"contracts/storageTokenContractName.sol\":1283:1293  _proposals */\n      0x00\n        /* \"contracts/storageTokenContractName.sol\":1283:1305  _proposals[proposalId] */\n      dup1\n        /* \"contracts/storageTokenContractName.sol\":1294:1304  proposalId */\n      dup4\n        /* \"contracts/storageTokenContractName.sol\":1283:1305  _proposals[proposalId] */\n      dup2\n      mstore\n      0x20\n      add\n      swap1\n      dup2\n      mstore\n      0x20\n      add\n      0x00\n      keccak256\n        /* \"contracts/storageTokenContractName.sol\":1283:1314  _proposals[proposalId].canceled */\n      0x02\n      add\n      0x07\n        /* \"contracts/storageTokenContractName.sol\":1283:1321  _proposals[proposalId].canceled = true */\n      0x0100\n      exp\n      dup2\n      sload\n      dup2\n      0xff\n      mul\n      not\n      and\n      swap1\n      dup4\n      iszero\n      iszero\n      mul\n      or\n      swap1\n      sstore\n      pop\n        /* \"contracts/storageTokenContractName.sol\":1171:1333  if (proposalState == 5) {... */\n    tag_28:\n        /* \"contracts/storageTokenContractName.sol\":1074:1333  if (proposalState == 3) {... */\n    tag_26:\n        /* \"contracts/storageTokenContractName.sol\":976:1333  if (proposalState == 4) {... */\n    tag_24:\n        /* \"contracts/storageTokenContractName.sol\":770:1340  function setProposalState(uint256 proposalState, uint256 proposalId) public {... */\n      pop\n      pop\n      jump\t// out\n    tag_16:\n      mload(0x40)\n      dup1\n      0x0140\n      add\n      0x40\n      mstore\n      dup1\n      and(0xffffffffffffffffffffffffffffffffffffffff, 0x00)\n      dup2\n      mstore\n      0x20\n      add\n      and(0xffffffffffffffffffffffffffffffffffffffff, 0x00)\n      dup2\n      mstore\n      0x20\n      add\n      and(0xffff, 0x00)\n      dup2\n      mstore\n      0x20\n      add\n      and(0xffffffff, 0x00)\n      dup2\n      mstore\n      0x20\n      add\n      and(0xffffffffffff, 0x00)\n      dup2\n      mstore\n      0x20\n      add\n      and(0xffffffffffff, 0x00)\n      dup2\n      mstore\n      0x20\n      add\n      iszero(iszero(0x00))\n      dup2\n      mstore\n      0x20\n      add\n      iszero(iszero(0x00))\n      dup2\n      mstore\n      0x20\n      add\n      iszero(iszero(0x00))\n      dup2\n      mstore\n      0x20\n      add\n      iszero(iszero(0x00))\n      dup2\n      mstore\n      pop\n      swap1\n      jump\t// out\n        /* \"#utility.yul\":88:205   */\n    tag_30:\n        /* \"#utility.yul\":197:198   */\n      0x00\n        /* \"#utility.yul\":194:195   */\n      dup1\n        /* \"#utility.yul\":187:199   */\n      revert\n        /* \"#utility.yul\":334:411   */\n    tag_32:\n        /* \"#utility.yul\":371:378   */\n      0x00\n        /* \"#utility.yul\":400:405   */\n      dup2\n        /* \"#utility.yul\":389:405   */\n      swap1\n      pop\n        /* \"#utility.yul\":334:411   */\n      swap2\n      swap1\n      pop\n      jump\t// out\n        /* \"#utility.yul\":417:539   */\n    tag_33:\n        /* \"#utility.yul\":490:514   */\n      tag_54\n        /* \"#utility.yul\":508:513   */\n      dup2\n        /* \"#utility.yul\":490:514   */\n      tag_32\n      jump\t// in\n    tag_54:\n        /* \"#utility.yul\":483:488   */\n      dup2\n        /* \"#utility.yul\":480:515   */\n      eq\n        /* \"#utility.yul\":470:533   */\n      tag_55\n      jumpi\n        /* \"#utility.yul\":529:530   */\n      0x00\n        /* \"#utility.yul\":526:527   */\n      dup1\n        /* \"#utility.yul\":519:531   */\n      revert\n        /* \"#utility.yul\":470:533   */\n    tag_55:\n        /* \"#utility.yul\":417:539   */\n      pop\n      jump\t// out\n        /* \"#utility.yul\":545:684   */\n    tag_34:\n        /* \"#utility.yul\":591:596   */\n      0x00\n        /* \"#utility.yul\":629:635   */\n      dup2\n        /* \"#utility.yul\":616:636   */\n      calldataload\n        /* \"#utility.yul\":607:636   */\n      swap1\n      pop\n        /* \"#utility.yul\":645:678   */\n      tag_57\n        /* \"#utility.yul\":672:677   */\n      dup2\n        /* \"#utility.yul\":645:678   */\n      tag_33\n      jump\t// in\n    tag_57:\n        /* \"#utility.yul\":545:684   */\n      swap3\n      swap2\n      pop\n      pop\n      jump\t// out\n        /* \"#utility.yul\":690:1019   */\n    tag_7:\n        /* \"#utility.yul\":749:755   */\n      0x00\n        /* \"#utility.yul\":798:800   */\n      0x20\n        /* \"#utility.yul\":786:795   */\n      dup3\n        /* \"#utility.yul\":777:784   */\n      dup5\n        /* \"#utility.yul\":773:796   */\n      sub\n        /* \"#utility.yul\":769:801   */\n      slt\n        /* \"#utility.yul\":766:885   */\n      iszero\n      tag_59\n      jumpi\n        /* \"#utility.yul\":804:883   */\n      tag_60\n      tag_30\n      jump\t// in\n    tag_60:\n        /* \"#utility.yul\":766:885   */\n    tag_59:\n        /* \"#utility.yul\":924:925   */\n      0x00\n        /* \"#utility.yul\":949:1002   */\n      tag_61\n        /* \"#utility.yul\":994:1001   */\n      dup5\n        /* \"#utility.yul\":985:991   */\n      dup3\n        /* \"#utility.yul\":974:983   */\n      dup6\n        /* \"#utility.yul\":970:992   */\n      add\n        /* \"#utility.yul\":949:1002   */\n      tag_34\n      jump\t// in\n    tag_61:\n        /* \"#utility.yul\":939:1002   */\n      swap2\n      pop\n        /* \"#utility.yul\":895:1012   */\n      pop\n        /* \"#utility.yul\":690:1019   */\n      swap3\n      swap2\n      pop\n      pop\n      jump\t// out\n        /* \"#utility.yul\":1025:1151   */\n    tag_35:\n        /* \"#utility.yul\":1062:1069   */\n      0x00\n        /* \"#utility.yul\":1102:1144   */\n      0xffffffffffffffffffffffffffffffffffffffff\n        /* \"#utility.yul\":1095:1100   */\n      dup3\n        /* \"#utility.yul\":1091:1145   */\n      and\n        /* \"#utility.yul\":1080:1145   */\n      swap1\n      pop\n        /* \"#utility.yul\":1025:1151   */\n      swap2\n      swap1\n      pop\n      jump\t// out\n        /* \"#utility.yul\":1157:1253   */\n    tag_36:\n        /* \"#utility.yul\":1194:1201   */\n      0x00\n        /* \"#utility.yul\":1223:1247   */\n      tag_64\n        /* \"#utility.yul\":1241:1246   */\n      dup3\n        /* \"#utility.yul\":1223:1247   */\n      tag_35\n      jump\t// in\n    tag_64:\n        /* \"#utility.yul\":1212:1247   */\n      swap1\n      pop\n        /* \"#utility.yul\":1157:1253   */\n      swap2\n      swap1\n      pop\n      jump\t// out\n        /* \"#utility.yul\":1259:1367   */\n    tag_37:\n        /* \"#utility.yul\":1336:1360   */\n      tag_66\n        /* \"#utility.yul\":1354:1359   */\n      dup2\n        /* \"#utility.yul\":1336:1360   */\n      tag_36\n      jump\t// in\n    tag_66:\n        /* \"#utility.yul\":1331:1334   */\n      dup3\n        /* \"#utility.yul\":1324:1361   */\n      mstore\n        /* \"#utility.yul\":1259:1367   */\n      pop\n      pop\n      jump\t// out\n        /* \"#utility.yul\":1373:1462   */\n    tag_38:\n        /* \"#utility.yul\":1409:1416   */\n      0x00\n        /* \"#utility.yul\":1449:1455   */\n      0xffff\n        /* \"#utility.yul\":1442:1447   */\n      dup3\n        /* \"#utility.yul\":1438:1456   */\n      and\n        /* \"#utility.yul\":1427:1456   */\n      swap1\n      pop\n        /* \"#utility.yul\":1373:1462   */\n      swap2\n      swap1\n      pop\n      jump\t// out\n        /* \"#utility.yul\":1468:1573   */\n    tag_39:\n        /* \"#utility.yul\":1543:1566   */\n      tag_69\n        /* \"#utility.yul\":1560:1565   */\n      dup2\n        /* \"#utility.yul\":1543:1566   */\n      tag_38\n      jump\t// in\n    tag_69:\n        /* \"#utility.yul\":1538:1541   */\n      dup3\n        /* \"#utility.yul\":1531:1567   */\n      mstore\n        /* \"#utility.yul\":1468:1573   */\n      pop\n      pop\n      jump\t// out\n        /* \"#utility.yul\":1579:1672   */\n    tag_40:\n        /* \"#utility.yul\":1615:1622   */\n      0x00\n        /* \"#utility.yul\":1655:1665   */\n      0xffffffff\n        /* \"#utility.yul\":1648:1653   */\n      dup3\n        /* \"#utility.yul\":1644:1666   */\n      and\n        /* \"#utility.yul\":1633:1666   */\n      swap1\n      pop\n        /* \"#utility.yul\":1579:1672   */\n      swap2\n      swap1\n      pop\n      jump\t// out\n        /* \"#utility.yul\":1678:1783   */\n    tag_41:\n        /* \"#utility.yul\":1753:1776   */\n      tag_72\n        /* \"#utility.yul\":1770:1775   */\n      dup2\n        /* \"#utility.yul\":1753:1776   */\n      tag_40\n      jump\t// in\n    tag_72:\n        /* \"#utility.yul\":1748:1751   */\n      dup3\n        /* \"#utility.yul\":1741:1777   */\n      mstore\n        /* \"#utility.yul\":1678:1783   */\n      pop\n      pop\n      jump\t// out\n        /* \"#utility.yul\":1789:1886   */\n    tag_42:\n        /* \"#utility.yul\":1825:1832   */\n      0x00\n        /* \"#utility.yul\":1865:1879   */\n      0xffffffffffff\n        /* \"#utility.yul\":1858:1863   */\n      dup3\n        /* \"#utility.yul\":1854:1880   */\n      and\n        /* \"#utility.yul\":1843:1880   */\n      swap1\n      pop\n        /* \"#utility.yul\":1789:1886   */\n      swap2\n      swap1\n      pop\n      jump\t// out\n        /* \"#utility.yul\":1892:1997   */\n    tag_43:\n        /* \"#utility.yul\":1967:1990   */\n      tag_75\n        /* \"#utility.yul\":1984:1989   */\n      dup2\n        /* \"#utility.yul\":1967:1990   */\n      tag_42\n      jump\t// in\n    tag_75:\n        /* \"#utility.yul\":1962:1965   */\n      dup3\n        /* \"#utility.yul\":1955:1991   */\n      mstore\n        /* \"#utility.yul\":1892:1997   */\n      pop\n      pop\n      jump\t// out\n        /* \"#utility.yul\":2003:2093   */\n    tag_44:\n        /* \"#utility.yul\":2037:2044   */\n      0x00\n        /* \"#utility.yul\":2080:2085   */\n      dup2\n        /* \"#utility.yul\":2073:2086   */\n      iszero\n        /* \"#utility.yul\":2066:2087   */\n      iszero\n        /* \"#utility.yul\":2055:2087   */\n      swap1\n      pop\n        /* \"#utility.yul\":2003:2093   */\n      swap2\n      swap1\n      pop\n      jump\t// out\n        /* \"#utility.yul\":2099:2198   */\n    tag_45:\n        /* \"#utility.yul\":2170:2191   */\n      tag_78\n        /* \"#utility.yul\":2185:2190   */\n      dup2\n        /* \"#utility.yul\":2170:2191   */\n      tag_44\n      jump\t// in\n    tag_78:\n        /* \"#utility.yul\":2165:2168   */\n      dup3\n        /* \"#utility.yul\":2158:2192   */\n      mstore\n        /* \"#utility.yul\":2099:2198   */\n      pop\n      pop\n      jump\t// out\n        /* \"#utility.yul\":2276:4211   */\n    tag_46:\n        /* \"#utility.yul\":2429:2435   */\n      0x0140\n        /* \"#utility.yul\":2424:2427   */\n      dup3\n        /* \"#utility.yul\":2420:2436   */\n      add\n        /* \"#utility.yul\":2522:2526   */\n      0x00\n        /* \"#utility.yul\":2515:2520   */\n      dup3\n        /* \"#utility.yul\":2511:2527   */\n      add\n        /* \"#utility.yul\":2505:2528   */\n      mload\n        /* \"#utility.yul\":2541:2604   */\n      tag_80\n        /* \"#utility.yul\":2598:2602   */\n      0x00\n        /* \"#utility.yul\":2593:2596   */\n      dup6\n        /* \"#utility.yul\":2589:2603   */\n      add\n        /* \"#utility.yul\":2575:2587   */\n      dup3\n        /* \"#utility.yul\":2541:2604   */\n      tag_37\n      jump\t// in\n    tag_80:\n        /* \"#utility.yul\":2446:2614   */\n      pop\n        /* \"#utility.yul\":2706:2710   */\n      0x20\n        /* \"#utility.yul\":2699:2704   */\n      dup3\n        /* \"#utility.yul\":2695:2711   */\n      add\n        /* \"#utility.yul\":2689:2712   */\n      mload\n        /* \"#utility.yul\":2725:2788   */\n      tag_81\n        /* \"#utility.yul\":2782:2786   */\n      0x20\n        /* \"#utility.yul\":2777:2780   */\n      dup6\n        /* \"#utility.yul\":2773:2787   */\n      add\n        /* \"#utility.yul\":2759:2771   */\n      dup3\n        /* \"#utility.yul\":2725:2788   */\n      tag_37\n      jump\t// in\n    tag_81:\n        /* \"#utility.yul\":2624:2798   */\n      pop\n        /* \"#utility.yul\":2882:2886   */\n      0x40\n        /* \"#utility.yul\":2875:2880   */\n      dup3\n        /* \"#utility.yul\":2871:2887   */\n      add\n        /* \"#utility.yul\":2865:2888   */\n      mload\n        /* \"#utility.yul\":2901:2962   */\n      tag_82\n        /* \"#utility.yul\":2956:2960   */\n      0x40\n        /* \"#utility.yul\":2951:2954   */\n      dup6\n        /* \"#utility.yul\":2947:2961   */\n      add\n        /* \"#utility.yul\":2933:2945   */\n      dup3\n        /* \"#utility.yul\":2901:2962   */\n      tag_39\n      jump\t// in\n    tag_82:\n        /* \"#utility.yul\":2808:2972   */\n      pop\n        /* \"#utility.yul\":3062:3066   */\n      0x60\n        /* \"#utility.yul\":3055:3060   */\n      dup3\n        /* \"#utility.yul\":3051:3067   */\n      add\n        /* \"#utility.yul\":3045:3068   */\n      mload\n        /* \"#utility.yul\":3081:3142   */\n      tag_83\n        /* \"#utility.yul\":3136:3140   */\n      0x60\n        /* \"#utility.yul\":3131:3134   */\n      dup6\n        /* \"#utility.yul\":3127:3141   */\n      add\n        /* \"#utility.yul\":3113:3125   */\n      dup3\n        /* \"#utility.yul\":3081:3142   */\n      tag_41\n      jump\t// in\n    tag_83:\n        /* \"#utility.yul\":2982:3152   */\n      pop\n        /* \"#utility.yul\":3239:3243   */\n      0x80\n        /* \"#utility.yul\":3232:3237   */\n      dup3\n        /* \"#utility.yul\":3228:3244   */\n      add\n        /* \"#utility.yul\":3222:3245   */\n      mload\n        /* \"#utility.yul\":3258:3319   */\n      tag_84\n        /* \"#utility.yul\":3313:3317   */\n      0x80\n        /* \"#utility.yul\":3308:3311   */\n      dup6\n        /* \"#utility.yul\":3304:3318   */\n      add\n        /* \"#utility.yul\":3290:3302   */\n      dup3\n        /* \"#utility.yul\":3258:3319   */\n      tag_43\n      jump\t// in\n    tag_84:\n        /* \"#utility.yul\":3162:3329   */\n      pop\n        /* \"#utility.yul\":3417:3421   */\n      0xa0\n        /* \"#utility.yul\":3410:3415   */\n      dup3\n        /* \"#utility.yul\":3406:3422   */\n      add\n        /* \"#utility.yul\":3400:3423   */\n      mload\n        /* \"#utility.yul\":3436:3497   */\n      tag_85\n        /* \"#utility.yul\":3491:3495   */\n      0xa0\n        /* \"#utility.yul\":3486:3489   */\n      dup6\n        /* \"#utility.yul\":3482:3496   */\n      add\n        /* \"#utility.yul\":3468:3480   */\n      dup3\n        /* \"#utility.yul\":3436:3497   */\n      tag_43\n      jump\t// in\n    tag_85:\n        /* \"#utility.yul\":3339:3507   */\n      pop\n        /* \"#utility.yul\":3593:3597   */\n      0xc0\n        /* \"#utility.yul\":3586:3591   */\n      dup3\n        /* \"#utility.yul\":3582:3598   */\n      add\n        /* \"#utility.yul\":3576:3599   */\n      mload\n        /* \"#utility.yul\":3612:3669   */\n      tag_86\n        /* \"#utility.yul\":3663:3667   */\n      0xc0\n        /* \"#utility.yul\":3658:3661   */\n      dup6\n        /* \"#utility.yul\":3654:3668   */\n      add\n        /* \"#utility.yul\":3640:3652   */\n      dup3\n        /* \"#utility.yul\":3612:3669   */\n      tag_45\n      jump\t// in\n    tag_86:\n        /* \"#utility.yul\":3517:3679   */\n      pop\n        /* \"#utility.yul\":3765:3769   */\n      0xe0\n        /* \"#utility.yul\":3758:3763   */\n      dup3\n        /* \"#utility.yul\":3754:3770   */\n      add\n        /* \"#utility.yul\":3748:3771   */\n      mload\n        /* \"#utility.yul\":3784:3841   */\n      tag_87\n        /* \"#utility.yul\":3835:3839   */\n      0xe0\n        /* \"#utility.yul\":3830:3833   */\n      dup6\n        /* \"#utility.yul\":3826:3840   */\n      add\n        /* \"#utility.yul\":3812:3824   */\n      dup3\n        /* \"#utility.yul\":3784:3841   */\n      tag_45\n      jump\t// in\n    tag_87:\n        /* \"#utility.yul\":3689:3851   */\n      pop\n        /* \"#utility.yul\":3938:3944   */\n      0x0100\n        /* \"#utility.yul\":3931:3936   */\n      dup3\n        /* \"#utility.yul\":3927:3945   */\n      add\n        /* \"#utility.yul\":3921:3946   */\n      mload\n        /* \"#utility.yul\":3959:4018   */\n      tag_88\n        /* \"#utility.yul\":4010:4016   */\n      0x0100\n        /* \"#utility.yul\":4005:4008   */\n      dup6\n        /* \"#utility.yul\":4001:4017   */\n      add\n        /* \"#utility.yul\":3987:3999   */\n      dup3\n        /* \"#utility.yul\":3959:4018   */\n      tag_45\n      jump\t// in\n    tag_88:\n        /* \"#utility.yul\":3861:4028   */\n      pop\n        /* \"#utility.yul\":4114:4120   */\n      0x0120\n        /* \"#utility.yul\":4107:4112   */\n      dup3\n        /* \"#utility.yul\":4103:4121   */\n      add\n        /* \"#utility.yul\":4097:4122   */\n      mload\n        /* \"#utility.yul\":4135:4194   */\n      tag_89\n        /* \"#utility.yul\":4186:4192   */\n      0x0120\n        /* \"#utility.yul\":4181:4184   */\n      dup6\n        /* \"#utility.yul\":4177:4193   */\n      add\n        /* \"#utility.yul\":4163:4175   */\n      dup3\n        /* \"#utility.yul\":4135:4194   */\n      tag_45\n      jump\t// in\n    tag_89:\n        /* \"#utility.yul\":4038:4204   */\n      pop\n        /* \"#utility.yul\":2398:4211   */\n      pop\n        /* \"#utility.yul\":2276:4211   */\n      pop\n      pop\n      jump\t// out\n        /* \"#utility.yul\":4217:4552   */\n    tag_10:\n        /* \"#utility.yul\":4366:4370   */\n      0x00\n        /* \"#utility.yul\":4404:4407   */\n      0x0140\n        /* \"#utility.yul\":4393:4402   */\n      dup3\n        /* \"#utility.yul\":4389:4408   */\n      add\n        /* \"#utility.yul\":4381:4408   */\n      swap1\n      pop\n        /* \"#utility.yul\":4418:4545   */\n      tag_91\n        /* \"#utility.yul\":4542:4543   */\n      0x00\n        /* \"#utility.yul\":4531:4540   */\n      dup4\n        /* \"#utility.yul\":4527:4544   */\n      add\n        /* \"#utility.yul\":4518:4524   */\n      dup5\n        /* \"#utility.yul\":4418:4545   */\n      tag_46\n      jump\t// in\n    tag_91:\n        /* \"#utility.yul\":4217:4552   */\n      swap3\n      swap2\n      pop\n      pop\n      jump\t// out\n        /* \"#utility.yul\":4558:5032   */\n    tag_13:\n        /* \"#utility.yul\":4626:4632   */\n      0x00\n        /* \"#utility.yul\":4634:4640   */\n      dup1\n        /* \"#utility.yul\":4683:4685   */\n      0x40\n        /* \"#utility.yul\":4671:4680   */\n      dup4\n        /* \"#utility.yul\":4662:4669   */\n      dup6\n        /* \"#utility.yul\":4658:4681   */\n      sub\n        /* \"#utility.yul\":4654:4686   */\n      slt\n        /* \"#utility.yul\":4651:4770   */\n      iszero\n      tag_93\n      jumpi\n        /* \"#utility.yul\":4689:4768   */\n      tag_94\n      tag_30\n      jump\t// in\n    tag_94:\n        /* \"#utility.yul\":4651:4770   */\n    tag_93:\n        /* \"#utility.yul\":4809:4810   */\n      0x00\n        /* \"#utility.yul\":4834:4887   */\n      tag_95\n        /* \"#utility.yul\":4879:4886   */\n      dup6\n        /* \"#utility.yul\":4870:4876   */\n      dup3\n        /* \"#utility.yul\":4859:4868   */\n      dup7\n        /* \"#utility.yul\":4855:4877   */\n      add\n        /* \"#utility.yul\":4834:4887   */\n      tag_34\n      jump\t// in\n    tag_95:\n        /* \"#utility.yul\":4824:4887   */\n      swap3\n      pop\n        /* \"#utility.yul\":4780:4897   */\n      pop\n        /* \"#utility.yul\":4936:4938   */\n      0x20\n        /* \"#utility.yul\":4962:5015   */\n      tag_96\n        /* \"#utility.yul\":5007:5014   */\n      dup6\n        /* \"#utility.yul\":4998:5004   */\n      dup3\n        /* \"#utility.yul\":4987:4996   */\n      dup7\n        /* \"#utility.yul\":4983:5005   */\n      add\n        /* \"#utility.yul\":4962:5015   */\n      tag_34\n      jump\t// in\n    tag_96:\n        /* \"#utility.yul\":4952:5015   */\n      swap2\n      pop\n        /* \"#utility.yul\":4907:5025   */\n      pop\n        /* \"#utility.yul\":4558:5032   */\n      swap3\n      pop\n      swap3\n      swap1\n      pop\n      jump\t// out\n        /* \"#utility.yul\":5038:5156   */\n    tag_47:\n        /* \"#utility.yul\":5125:5149   */\n      tag_98\n        /* \"#utility.yul\":5143:5148   */\n      dup2\n        /* \"#utility.yul\":5125:5149   */\n      tag_32\n      jump\t// in\n    tag_98:\n        /* \"#utility.yul\":5120:5123   */\n      dup3\n        /* \"#utility.yul\":5113:5150   */\n      mstore\n        /* \"#utility.yul\":5038:5156   */\n      pop\n      pop\n      jump\t// out\n        /* \"#utility.yul\":5162:5384   */\n    tag_22:\n        /* \"#utility.yul\":5255:5259   */\n      0x00\n        /* \"#utility.yul\":5293:5295   */\n      0x20\n        /* \"#utility.yul\":5282:5291   */\n      dup3\n        /* \"#utility.yul\":5278:5296   */\n      add\n        /* \"#utility.yul\":5270:5296   */\n      swap1\n      pop\n        /* \"#utility.yul\":5306:5377   */\n      tag_100\n        /* \"#utility.yul\":5374:5375   */\n      0x00\n        /* \"#utility.yul\":5363:5372   */\n      dup4\n        /* \"#utility.yul\":5359:5376   */\n      add\n        /* \"#utility.yul\":5350:5356   */\n      dup5\n        /* \"#utility.yul\":5306:5377   */\n      tag_47\n      jump\t// in\n    tag_100:\n        /* \"#utility.yul\":5162:5384   */\n      swap3\n      swap2\n      pop\n      pop\n      jump\t// out\n\n    auxdata: 0xa264697066735822122042c4d3d5c46ca30ef58dc4b70c5866ea5e78ed7b8bfde7515959a173c315527964736f6c63430008140033\n}\n",
				"bytecode": {
					"linkReferences": {},
					"object": "608060405234801561000f575f80fd5b506106be8061001d5f395ff3fe608060405234801561000f575f80fd5b5060043610610034575f3560e01c8063013cf08b146100385780631e9608a814610068575b5f80fd5b610052600480360381019061004d9190610460565b610084565b60405161005f9190610608565b60405180910390f35b610082600480360381019061007d9190610622565b610261565b005b61008c610392565b5f808381526020019081526020015f20604051806101400160405290815f82015f9054906101000a900473ffffffffffffffffffffffffffffffffffffffff1673ffffffffffffffffffffffffffffffffffffffff1673ffffffffffffffffffffffffffffffffffffffff168152602001600182015f9054906101000a900473ffffffffffffffffffffffffffffffffffffffff1673ffffffffffffffffffffffffffffffffffffffff1673ffffffffffffffffffffffffffffffffffffffff1681526020016001820160149054906101000a900461ffff1661ffff1661ffff1681526020016001820160169054906101000a900463ffffffff1663ffffffff1663ffffffff16815260200160018201601a9054906101000a900465ffffffffffff1665ffffffffffff1665ffffffffffff168152602001600282015f9054906101000a900465ffffffffffff1665ffffffffffff1665ffffffffffff1681526020016002820160069054906101000a900460ff161515151581526020016002820160079054906101000a900460ff161515151581526020016002820160089054906101000a900460ff161515151581526020016002820160099054906101000a900460ff1615151515815250509050919050565b816002101580610272575060058210155b156102b457816040517f4961771d0000000000000000000000000000000000000000000000000000000081526004016102ab919061066f565b60405180910390fd5b600482036102ed5760015f808381526020019081526020015f2060020160086101000a81548160ff02191690831515021790555061038e565b600382036103265760015f808381526020019081526020015f2060020160096101000a81548160ff02191690831515021790555061038d565b6005820361035f5760015f808381526020019081526020015f2060020160066101000a81548160ff02191690831515021790555061038c565b60015f808381526020019081526020015f2060020160076101000a81548160ff0219169083151502179055505b5b5b5050565b6040518061014001604052805f73ffffffffffffffffffffffffffffffffffffffff1681526020015f73ffffffffffffffffffffffffffffffffffffffff1681526020015f61ffff1681526020015f63ffffffff1681526020015f65ffffffffffff1681526020015f65ffffffffffff1681526020015f151581526020015f151581526020015f151581526020015f151581525090565b5f80fd5b5f819050919050565b61043f8161042d565b8114610449575f80fd5b50565b5f8135905061045a81610436565b92915050565b5f6020828403121561047557610474610429565b5b5f6104828482850161044c565b91505092915050565b5f73ffffffffffffffffffffffffffffffffffffffff82169050919050565b5f6104b48261048b565b9050919050565b6104c4816104aa565b82525050565b5f61ffff82169050919050565b6104e0816104ca565b82525050565b5f63ffffffff82169050919050565b6104fe816104e6565b82525050565b5f65ffffffffffff82169050919050565b61051e81610504565b82525050565b5f8115159050919050565b61053881610524565b82525050565b61014082015f8201516105535f8501826104bb565b50602082015161056660208501826104bb565b50604082015161057960408501826104d7565b50606082015161058c60608501826104f5565b50608082015161059f6080850182610515565b5060a08201516105b260a0850182610515565b5060c08201516105c560c085018261052f565b5060e08201516105d860e085018261052f565b506101008201516105ed61010085018261052f565b5061012082015161060261012085018261052f565b50505050565b5f6101408201905061061c5f83018461053e565b92915050565b5f806040838503121561063857610637610429565b5b5f6106458582860161044c565b92505060206106568582860161044c565b9150509250929050565b6106698161042d565b82525050565b5f6020820190506106825f830184610660565b9291505056fea264697066735822122042c4d3d5c46ca30ef58dc4b70c5866ea5e78ed7b8bfde7515959a173c315527964736f6c63430008140033",
					"opcodes": "PUSH1 0x80 PUSH1 0x40 MSTORE CALLVALUE DUP1 ISZERO PUSH2 0xF JUMPI PUSH0 DUP1 REVERT JUMPDEST POP PUSH2 0x6BE DUP1 PUSH2 0x1D PUSH0 CODECOPY PUSH0 RETURN INVALID PUSH1 0x80 PUSH1 0x40 MSTORE CALLVALUE DUP1 ISZERO PUSH2 0xF JUMPI PUSH0 DUP1 REVERT JUMPDEST POP PUSH1 0x4 CALLDATASIZE LT PUSH2 0x34 JUMPI PUSH0 CALLDATALOAD PUSH1 0xE0 SHR DUP1 PUSH4 0x13CF08B EQ PUSH2 0x38 JUMPI DUP1 PUSH4 0x1E9608A8 EQ PUSH2 0x68 JUMPI JUMPDEST PUSH0 DUP1 REVERT JUMPDEST PUSH2 0x52 PUSH1 0x4 DUP1 CALLDATASIZE SUB DUP2 ADD SWAP1 PUSH2 0x4D SWAP2 SWAP1 PUSH2 0x460 JUMP JUMPDEST PUSH2 0x84 JUMP JUMPDEST PUSH1 0x40 MLOAD PUSH2 0x5F SWAP2 SWAP1 PUSH2 0x608 JUMP JUMPDEST PUSH1 0x40 MLOAD DUP1 SWAP2 SUB SWAP1 RETURN JUMPDEST PUSH2 0x82 PUSH1 0x4 DUP1 CALLDATASIZE SUB DUP2 ADD SWAP1 PUSH2 0x7D SWAP2 SWAP1 PUSH2 0x622 JUMP JUMPDEST PUSH2 0x261 JUMP JUMPDEST STOP JUMPDEST PUSH2 0x8C PUSH2 0x392 JUMP JUMPDEST PUSH0 DUP1 DUP4 DUP2 MSTORE PUSH1 0x20 ADD SWAP1 DUP2 MSTORE PUSH1 0x20 ADD PUSH0 KECCAK256 PUSH1 0x40 MLOAD DUP1 PUSH2 0x140 ADD PUSH1 0x40 MSTORE SWAP1 DUP2 PUSH0 DUP3 ADD PUSH0 SWAP1 SLOAD SWAP1 PUSH2 0x100 EXP SWAP1 DIV PUSH20 0xFFFFFFFFFFFFFFFFFFFFFFFFFFFFFFFFFFFFFFFF AND PUSH20 0xFFFFFFFFFFFFFFFFFFFFFFFFFFFFFFFFFFFFFFFF AND PUSH20 0xFFFFFFFFFFFFFFFFFFFFFFFFFFFFFFFFFFFFFFFF AND DUP2 MSTORE PUSH1 0x20 ADD PUSH1 0x1 DUP3 ADD PUSH0 SWAP1 SLOAD SWAP1 PUSH2 0x100 EXP SWAP1 DIV PUSH20 0xFFFFFFFFFFFFFFFFFFFFFFFFFFFFFFFFFFFFFFFF AND PUSH20 0xFFFFFFFFFFFFFFFFFFFFFFFFFFFFFFFFFFFFFFFF AND PUSH20 0xFFFFFFFFFFFFFFFFFFFFFFFFFFFFFFFFFFFFFFFF AND DUP2 MSTORE PUSH1 0x20 ADD PUSH1 0x1 DUP3 ADD PUSH1 0x14 SWAP1 SLOAD SWAP1 PUSH2 0x100 EXP SWAP1 DIV PUSH2 0xFFFF AND PUSH2 0xFFFF AND PUSH2 0xFFFF AND DUP2 MSTORE PUSH1 0x20 ADD PUSH1 0x1 DUP3 ADD PUSH1 0x16 SWAP1 SLOAD SWAP1 PUSH2 0x100 EXP SWAP1 DIV PUSH4 0xFFFFFFFF AND PUSH4 0xFFFFFFFF AND PUSH4 0xFFFFFFFF AND DUP2 MSTORE PUSH1 0x20 ADD PUSH1 0x1 DUP3 ADD PUSH1 0x1A SWAP1 SLOAD SWAP1 PUSH2 0x100 EXP SWAP1 DIV PUSH6 0xFFFFFFFFFFFF AND PUSH6 0xFFFFFFFFFFFF AND PUSH6 0xFFFFFFFFFFFF AND DUP2 MSTORE PUSH1 0x20 ADD PUSH1 0x2 DUP3 ADD PUSH0 SWAP1 SLOAD SWAP1 PUSH2 0x100 EXP SWAP1 DIV PUSH6 0xFFFFFFFFFFFF AND PUSH6 0xFFFFFFFFFFFF AND PUSH6 0xFFFFFFFFFFFF AND DUP2 MSTORE PUSH1 0x20 ADD PUSH1 0x2 DUP3 ADD PUSH1 0x6 SWAP1 SLOAD SWAP1 PUSH2 0x100 EXP SWAP1 DIV PUSH1 0xFF AND ISZERO ISZERO ISZERO ISZERO DUP2 MSTORE PUSH1 0x20 ADD PUSH1 0x2 DUP3 ADD PUSH1 0x7 SWAP1 SLOAD SWAP1 PUSH2 0x100 EXP SWAP1 DIV PUSH1 0xFF AND ISZERO ISZERO ISZERO ISZERO DUP2 MSTORE PUSH1 0x20 ADD PUSH1 0x2 DUP3 ADD PUSH1 0x8 SWAP1 SLOAD SWAP1 PUSH2 0x100 EXP SWAP1 DIV PUSH1 0xFF AND ISZERO ISZERO ISZERO ISZERO DUP2 MSTORE PUSH1 0x20 ADD PUSH1 0x2 DUP3 ADD PUSH1 0x9 SWAP1 SLOAD SWAP1 PUSH2 0x100 EXP SWAP1 DIV PUSH1 0xFF AND ISZERO ISZERO ISZERO ISZERO DUP2 MSTORE POP POP SWAP1 POP SWAP2 SWAP1 POP JUMP JUMPDEST DUP2 PUSH1 0x2 LT ISZERO DUP1 PUSH2 0x272 JUMPI POP PUSH1 0x5 DUP3 LT ISZERO JUMPDEST ISZERO PUSH2 0x2B4 JUMPI DUP2 PUSH1 0x40 MLOAD PUSH32 0x4961771D00000000000000000000000000000000000000000000000000000000 DUP2 MSTORE PUSH1 0x4 ADD PUSH2 0x2AB SWAP2 SWAP1 PUSH2 0x66F JUMP JUMPDEST PUSH1 0x40 MLOAD DUP1 SWAP2 SUB SWAP1 REVERT JUMPDEST PUSH1 0x4 DUP3 SUB PUSH2 0x2ED JUMPI PUSH1 0x1 PUSH0 DUP1 DUP4 DUP2 MSTORE PUSH1 0x20 ADD SWAP1 DUP2 MSTORE PUSH1 0x20 ADD PUSH0 KECCAK256 PUSH1 0x2 ADD PUSH1 0x8 PUSH2 0x100 EXP DUP2 SLOAD DUP2 PUSH1 0xFF MUL NOT AND SWAP1 DUP4 ISZERO ISZERO MUL OR SWAP1 SSTORE POP PUSH2 0x38E JUMP JUMPDEST PUSH1 0x3 DUP3 SUB PUSH2 0x326 JUMPI PUSH1 0x1 PUSH0 DUP1 DUP4 DUP2 MSTORE PUSH1 0x20 ADD SWAP1 DUP2 MSTORE PUSH1 0x20 ADD PUSH0 KECCAK256 PUSH1 0x2 ADD PUSH1 0x9 PUSH2 0x100 EXP DUP2 SLOAD DUP2 PUSH1 0xFF MUL NOT AND SWAP1 DUP4 ISZERO ISZERO MUL OR SWAP1 SSTORE POP PUSH2 0x38D JUMP JUMPDEST PUSH1 0x5 DUP3 SUB PUSH2 0x35F JUMPI PUSH1 0x1 PUSH0 DUP1 DUP4 DUP2 MSTORE PUSH1 0x20 ADD SWAP1 DUP2 MSTORE PUSH1 0x20 ADD PUSH0 KECCAK256 PUSH1 0x2 ADD PUSH1 0x6 PUSH2 0x100 EXP DUP2 SLOAD DUP2 PUSH1 0xFF MUL NOT AND SWAP1 DUP4 ISZERO ISZERO MUL OR SWAP1 SSTORE POP PUSH2 0x38C JUMP JUMPDEST PUSH1 0x1 PUSH0 DUP1 DUP4 DUP2 MSTORE PUSH1 0x20 ADD SWAP1 DUP2 MSTORE PUSH1 0x20 ADD PUSH0 KECCAK256 PUSH1 0x2 ADD PUSH1 0x7 PUSH2 0x100 EXP DUP2 SLOAD DUP2 PUSH1 0xFF MUL NOT AND SWAP1 DUP4 ISZERO ISZERO MUL OR SWAP1 SSTORE POP JUMPDEST JUMPDEST JUMPDEST POP POP JUMP JUMPDEST PUSH1 0x40 MLOAD DUP1 PUSH2 0x140 ADD PUSH1 0x40 MSTORE DUP1 PUSH0 PUSH20 0xFFFFFFFFFFFFFFFFFFFFFFFFFFFFFFFFFFFFFFFF AND DUP2 MSTORE PUSH1 0x20 ADD PUSH0 PUSH20 0xFFFFFFFFFFFFFFFFFFFFFFFFFFFFFFFFFFFFFFFF AND DUP2 MSTORE PUSH1 0x20 ADD PUSH0 PUSH2 0xFFFF AND DUP2 MSTORE PUSH1 0x20 ADD PUSH0 PUSH4 0xFFFFFFFF AND DUP2 MSTORE PUSH1 0x20 ADD PUSH0 PUSH6 0xFFFFFFFFFFFF AND DUP2 MSTORE PUSH1 0x20 ADD PUSH0 PUSH6 0xFFFFFFFFFFFF AND DUP2 MSTORE PUSH1 0x20 ADD PUSH0 ISZERO ISZERO DUP2 MSTORE PUSH1 0x20 ADD PUSH0 ISZERO ISZERO DUP2 MSTORE PUSH1 0x20 ADD PUSH0 ISZERO ISZERO DUP2 MSTORE PUSH1 0x20 ADD PUSH0 ISZERO ISZERO DUP2 MSTORE POP SWAP1 JUMP JUMPDEST PUSH0 DUP1 REVERT JUMPDEST PUSH0 DUP2 SWAP1 POP SWAP2 SWAP1 POP JUMP JUMPDEST PUSH2 0x43F DUP2 PUSH2 0x42D JUMP JUMPDEST DUP2 EQ PUSH2 0x449 JUMPI PUSH0 DUP1 REVERT JUMPDEST POP JUMP JUMPDEST PUSH0 DUP2 CALLDATALOAD SWAP1 POP PUSH2 0x45A DUP2 PUSH2 0x436 JUMP JUMPDEST SWAP3 SWAP2 POP POP JUMP JUMPDEST PUSH0 PUSH1 0x20 DUP3 DUP5 SUB SLT ISZERO PUSH2 0x475 JUMPI PUSH2 0x474 PUSH2 0x429 JUMP JUMPDEST JUMPDEST PUSH0 PUSH2 0x482 DUP5 DUP3 DUP6 ADD PUSH2 0x44C JUMP JUMPDEST SWAP2 POP POP SWAP3 SWAP2 POP POP JUMP JUMPDEST PUSH0 PUSH20 0xFFFFFFFFFFFFFFFFFFFFFFFFFFFFFFFFFFFFFFFF DUP3 AND SWAP1 POP SWAP2 SWAP1 POP JUMP JUMPDEST PUSH0 PUSH2 0x4B4 DUP3 PUSH2 0x48B JUMP JUMPDEST SWAP1 POP SWAP2 SWAP1 POP JUMP JUMPDEST PUSH2 0x4C4 DUP2 PUSH2 0x4AA JUMP JUMPDEST DUP3 MSTORE POP POP JUMP JUMPDEST PUSH0 PUSH2 0xFFFF DUP3 AND SWAP1 POP SWAP2 SWAP1 POP JUMP JUMPDEST PUSH2 0x4E0 DUP2 PUSH2 0x4CA JUMP JUMPDEST DUP3 MSTORE POP POP JUMP JUMPDEST PUSH0 PUSH4 0xFFFFFFFF DUP3 AND SWAP1 POP SWAP2 SWAP1 POP JUMP JUMPDEST PUSH2 0x4FE DUP2 PUSH2 0x4E6 JUMP JUMPDEST DUP3 MSTORE POP POP JUMP JUMPDEST PUSH0 PUSH6 0xFFFFFFFFFFFF DUP3 AND SWAP1 POP SWAP2 SWAP1 POP JUMP JUMPDEST PUSH2 0x51E DUP2 PUSH2 0x504 JUMP JUMPDEST DUP3 MSTORE POP POP JUMP JUMPDEST PUSH0 DUP2 ISZERO ISZERO SWAP1 POP SWAP2 SWAP1 POP JUMP JUMPDEST PUSH2 0x538 DUP2 PUSH2 0x524 JUMP JUMPDEST DUP3 MSTORE POP POP JUMP JUMPDEST PUSH2 0x140 DUP3 ADD PUSH0 DUP3 ADD MLOAD PUSH2 0x553 PUSH0 DUP6 ADD DUP3 PUSH2 0x4BB JUMP JUMPDEST POP PUSH1 0x20 DUP3 ADD MLOAD PUSH2 0x566 PUSH1 0x20 DUP6 ADD DUP3 PUSH2 0x4BB JUMP JUMPDEST POP PUSH1 0x40 DUP3 ADD MLOAD PUSH2 0x579 PUSH1 0x40 DUP6 ADD DUP3 PUSH2 0x4D7 JUMP JUMPDEST POP PUSH1 0x60 DUP3 ADD MLOAD PUSH2 0x58C PUSH1 0x60 DUP6 ADD DUP3 PUSH2 0x4F5 JUMP JUMPDEST POP PUSH1 0x80 DUP3 ADD MLOAD PUSH2 0x59F PUSH1 0x80 DUP6 ADD DUP3 PUSH2 0x515 JUMP JUMPDEST POP PUSH1 0xA0 DUP3 ADD MLOAD PUSH2 0x5B2 PUSH1 0xA0 DUP6 ADD DUP3 PUSH2 0x515 JUMP JUMPDEST POP PUSH1 0xC0 DUP3 ADD MLOAD PUSH2 0x5C5 PUSH1 0xC0 DUP6 ADD DUP3 PUSH2 0x52F JUMP JUMPDEST POP PUSH1 0xE0 DUP3 ADD MLOAD PUSH2 0x5D8 PUSH1 0xE0 DUP6 ADD DUP3 PUSH2 0x52F JUMP JUMPDEST POP PUSH2 0x100 DUP3 ADD MLOAD PUSH2 0x5ED PUSH2 0x100 DUP6 ADD DUP3 PUSH2 0x52F JUMP JUMPDEST POP PUSH2 0x120 DUP3 ADD MLOAD PUSH2 0x602 PUSH2 0x120 DUP6 ADD DUP3 PUSH2 0x52F JUMP JUMPDEST POP POP POP POP JUMP JUMPDEST PUSH0 PUSH2 0x140 DUP3 ADD SWAP1 POP PUSH2 0x61C PUSH0 DUP4 ADD DUP5 PUSH2 0x53E JUMP JUMPDEST SWAP3 SWAP2 POP POP JUMP JUMPDEST PUSH0 DUP1 PUSH1 0x40 DUP4 DUP6 SUB SLT ISZERO PUSH2 0x638 JUMPI PUSH2 0x637 PUSH2 0x429 JUMP JUMPDEST JUMPDEST PUSH0 PUSH2 0x645 DUP6 DUP3 DUP7 ADD PUSH2 0x44C JUMP JUMPDEST SWAP3 POP POP PUSH1 0x20 PUSH2 0x656 DUP6 DUP3 DUP7 ADD PUSH2 0x44C JUMP JUMPDEST SWAP2 POP POP SWAP3 POP SWAP3 SWAP1 POP JUMP JUMPDEST PUSH2 0x669 DUP2 PUSH2 0x42D JUMP JUMPDEST DUP3 MSTORE POP POP JUMP JUMPDEST PUSH0 PUSH1 0x20 DUP3 ADD SWAP1 POP PUSH2 0x682 PUSH0 DUP4 ADD DUP5 PUSH2 0x660 JUMP JUMPDEST SWAP3 SWAP2 POP POP JUMP INVALID LOG2 PUSH5 0x6970667358 0x22 SLT KECCAK256 TIMESTAMP 0xC4 0xD3 0xD5 0xC4 PUSH13 0xA30EF58DC4B70C5866EA5E78ED PUSH28 0x8BFDE7515959A173C315527964736F6C634300081400330000000000 "
				},
				"gasEstimates": {
					"creation": {
						"codeDepositCost": "345200",
						"executionCost": "378",
						"totalCost": "345578"
					},
					"external": {
						"proposals(uint256)": "infinite",
						"setProposalState(uint256,uint256)": "infinite"
					}
				},
				"methodIdentifiers": {
					"proposals(uint256)": "013cf08b",
					"setProposalState(uint256,uint256)": "1e9608a8"
				}
			},
			"storageLayout": {
				"storage": [
					{
						"astId": 31,
						"contract": "contracts/storageTokenContractName.sol:storageTCN",
						"label": "_proposals",
						"offset": 0,
						"slot": "0",
						"type": "t_mapping(t_uint256,t_struct(ProposalCore)26_storage)"
					},
					{
						"astId": 37,
						"contract": "contracts/storageTokenContractName.sol:storageTCN",
						"label": "_votersVote",
						"offset": 0,
						"slot": "1",
						"type": "t_mapping(t_uint256,t_mapping(t_address,t_bytes32))"
					}
				],
				"types": {
					"t_address": {
						"encoding": "inplace",
						"label": "address",
						"numberOfBytes": "20"
					},
					"t_bool": {
						"encoding": "inplace",
						"label": "bool",
						"numberOfBytes": "1"
					},
					"t_bytes32": {
						"encoding": "inplace",
						"label": "bytes32",
						"numberOfBytes": "32"
					},
					"t_mapping(t_address,t_bytes32)": {
						"encoding": "mapping",
						"key": "t_address",
						"label": "mapping(address => bytes32)",
						"numberOfBytes": "32",
						"value": "t_bytes32"
					},
					"t_mapping(t_uint256,t_mapping(t_address,t_bytes32))": {
						"encoding": "mapping",
						"key": "t_uint256",
						"label": "mapping(uint256 => mapping(address => bytes32))",
						"numberOfBytes": "32",
						"value": "t_mapping(t_address,t_bytes32)"
					},
					"t_mapping(t_uint256,t_struct(ProposalCore)26_storage)": {
						"encoding": "mapping",
						"key": "t_uint256",
						"label": "mapping(uint256 => struct storageTCN.ProposalCore)",
						"numberOfBytes": "32",
						"value": "t_struct(ProposalCore)26_storage"
					},
					"t_struct(ProposalCore)26_storage": {
						"encoding": "inplace",
						"label": "struct storageTCN.ProposalCore",
						"members": [
							{
								"astId": 7,
								"contract": "contracts/storageTokenContractName.sol:storageTCN",
								"label": "proposer",
								"offset": 0,
								"slot": "0",
								"type": "t_address"
							},
							{
								"astId": 9,
								"contract": "contracts/storageTokenContractName.sol:storageTCN",
								"label": "ballotContract",
								"offset": 0,
								"slot": "1",
								"type": "t_address"
							},
							{
								"astId": 11,
								"contract": "contracts/storageTokenContractName.sol:storageTCN",
								"label": "quorum",
								"offset": 20,
								"slot": "1",
								"type": "t_uint16"
							},
							{
								"astId": 13,
								"contract": "contracts/storageTokenContractName.sol:storageTCN",
								"label": "voteDuration",
								"offset": 22,
								"slot": "1",
								"type": "t_uint32"
							},
							{
								"astId": 15,
								"contract": "contracts/storageTokenContractName.sol:storageTCN",
								"label": "voteStart",
								"offset": 26,
								"slot": "1",
								"type": "t_uint48"
							},
							{
								"astId": 17,
								"contract": "contracts/storageTokenContractName.sol:storageTCN",
								"label": "etaSeconds",
								"offset": 0,
								"slot": "2",
								"type": "t_uint48"
							},
							{
								"astId": 19,
								"contract": "contracts/storageTokenContractName.sol:storageTCN",
								"label": "executed",
								"offset": 6,
								"slot": "2",
								"type": "t_bool"
							},
							{
								"astId": 21,
								"contract": "contracts/storageTokenContractName.sol:storageTCN",
								"label": "canceled",
								"offset": 7,
								"slot": "2",
								"type": "t_bool"
							},
							{
								"astId": 23,
								"contract": "contracts/storageTokenContractName.sol:storageTCN",
								"label": "Succeeded",
								"offset": 8,
								"slot": "2",
								"type": "t_bool"
							},
							{
								"astId": 25,
								"contract": "contracts/storageTokenContractName.sol:storageTCN",
								"label": "Defeated",
								"offset": 9,
								"slot": "2",
								"type": "t_bool"
							}
						],
						"numberOfBytes": "96"
					},
					"t_uint16": {
						"encoding": "inplace",
						"label": "uint16",
						"numberOfBytes": "2"
					},
					"t_uint256": {
						"encoding": "inplace",
						"label": "uint256",
						"numberOfBytes": "32"
					},
					"t_uint32": {
						"encoding": "inplace",
						"label": "uint32",
						"numberOfBytes": "4"
					},
					"t_uint48": {
						"encoding": "inplace",
						"label": "uint48",
						"numberOfBytes": "6"
					}
				}
			},
			"userdoc": {
				"kind": "user",
				"methods": {},
				"version": 1
			}
		}
	}
}