{
	"contracts/ERC721TokenContractName.sol": {
		"ERC721TokenContractName": {
			"abi": [
				{
					"inputs": [
						{
							"internalType": "bytes20",
							"name": "name_",
							"type": "bytes20"
						},
						{
							"internalType": "bytes10",
							"name": "symbol_",
							"type": "bytes10"
						}
					],
					"stateMutability": "nonpayable",
					"type": "constructor"
				},
				{
					"inputs": [
						{
							"internalType": "address",
							"name": "sender",
							"type": "address"
						},
						{
							"internalType": "uint256",
							"name": "tokenId",
							"type": "uint256"
						},
						{
							"internalType": "address",
							"name": "owner",
							"type": "address"
						}
					],
					"name": "ERC721IncorrectOwner",
					"type": "error"
				},
				{
					"inputs": [
						{
							"internalType": "address",
							"name": "operator",
							"type": "address"
						},
						{
							"internalType": "uint256",
							"name": "tokenId",
							"type": "uint256"
						}
					],
					"name": "ERC721InsufficientApproval",
					"type": "error"
				},
				{
					"inputs": [
						{
							"internalType": "address",
							"name": "approver",
							"type": "address"
						}
					],
					"name": "ERC721InvalidApprover",
					"type": "error"
				},
				{
					"inputs": [
						{
							"internalType": "address",
							"name": "operator",
							"type": "address"
						}
					],
					"name": "ERC721InvalidOperator",
					"type": "error"
				},
				{
					"inputs": [
						{
							"internalType": "address",
							"name": "owner",
							"type": "address"
						}
					],
					"name": "ERC721InvalidOwner",
					"type": "error"
				},
				{
					"inputs": [
						{
							"internalType": "address",
							"name": "receiver",
							"type": "address"
						}
					],
					"name": "ERC721InvalidReceiver",
					"type": "error"
				},
				{
					"inputs": [
						{
							"internalType": "address",
							"name": "sender",
							"type": "address"
						}
					],
					"name": "ERC721InvalidSender",
					"type": "error"
				},
				{
					"inputs": [
						{
							"internalType": "uint16",
							"name": "nRegistrants",
							"type": "uint16"
						}
					],
					"name": "ERC721NoNewRegistrants",
					"type": "error"
				},
				{
					"inputs": [
						{
							"internalType": "uint256",
							"name": "tokenId",
							"type": "uint256"
						}
					],
					"name": "ERC721NonexistentToken",
					"type": "error"
				},
				{
					"inputs": [
						{
							"internalType": "uint16",
							"name": "token",
							"type": "uint16"
						}
					],
					"name": "Erc721InvalidTokenInNewTokenId",
					"type": "error"
				},
				{
					"inputs": [
						{
							"internalType": "uint16",
							"name": "total",
							"type": "uint16"
						}
					],
					"name": "Erc721InvalidTotalNewTokenId",
					"type": "error"
				},
				{
					"anonymous": false,
					"inputs": [
						{
							"indexed": true,
							"internalType": "address",
							"name": "owner",
							"type": "address"
						},
						{
							"indexed": true,
							"internalType": "address",
							"name": "approved",
							"type": "address"
						},
						{
							"indexed": true,
							"internalType": "uint16",
							"name": "tokenId",
							"type": "uint16"
						}
					],
					"name": "Approval",
					"type": "event"
				},
				{
					"anonymous": false,
					"inputs": [
						{
							"indexed": true,
							"internalType": "address",
							"name": "owner",
							"type": "address"
						},
						{
							"indexed": true,
							"internalType": "address",
							"name": "operator",
							"type": "address"
						},
						{
							"indexed": false,
							"internalType": "bool",
							"name": "approved",
							"type": "bool"
						}
					],
					"name": "ApprovalForAll",
					"type": "event"
				},
				{
					"anonymous": false,
					"inputs": [
						{
							"indexed": true,
							"internalType": "address",
							"name": "from",
							"type": "address"
						},
						{
							"indexed": true,
							"internalType": "address",
							"name": "to",
							"type": "address"
						},
						{
							"indexed": true,
							"internalType": "uint16",
							"name": "tokenId",
							"type": "uint16"
						}
					],
					"name": "Transfer",
					"type": "event"
				},
				{
					"anonymous": false,
					"inputs": [
						{
							"indexed": true,
							"internalType": "uint16",
							"name": "newmaxMint",
							"type": "uint16"
						},
						{
							"indexed": true,
							"internalType": "uint256",
							"name": "newregistrationStartTime",
							"type": "uint256"
						},
						{
							"indexed": false,
							"internalType": "address",
							"name": "newexecutor",
							"type": "address"
						},
						{
							"indexed": false,
							"internalType": "address",
							"name": "newbankAddress",
							"type": "address"
						},
						{
							"indexed": false,
							"internalType": "uint256",
							"name": "newmintPrice",
							"type": "uint256"
						}
					],
					"name": "updatemintInfo",
					"type": "event"
				},
				{
					"inputs": [
						{
							"internalType": "address",
							"name": "to",
							"type": "address"
						},
						{
							"internalType": "uint16",
							"name": "tokenId",
							"type": "uint16"
						}
					],
					"name": "approve",
					"outputs": [],
					"stateMutability": "nonpayable",
					"type": "function"
				},
				{
					"inputs": [
						{
							"internalType": "address",
							"name": "owner",
							"type": "address"
						}
					],
					"name": "balanceOf",
					"outputs": [
						{
							"internalType": "uint16",
							"name": "",
							"type": "uint16"
						}
					],
					"stateMutability": "view",
					"type": "function"
				},
				{
					"inputs": [
						{
							"internalType": "uint16",
							"name": "tokenId",
							"type": "uint16"
						}
					],
					"name": "getApproved",
					"outputs": [
						{
							"internalType": "address",
							"name": "",
							"type": "address"
						}
					],
					"stateMutability": "view",
					"type": "function"
				},
				{
					"inputs": [
						{
							"internalType": "address",
							"name": "owner",
							"type": "address"
						},
						{
							"internalType": "address",
							"name": "operator",
							"type": "address"
						}
					],
					"name": "isApprovedForAll",
					"outputs": [
						{
							"internalType": "bool",
							"name": "",
							"type": "bool"
						}
					],
					"stateMutability": "view",
					"type": "function"
				},
				{
					"inputs": [],
					"name": "mint",
					"outputs": [],
					"stateMutability": "nonpayable",
					"type": "function"
				},
				{
					"inputs": [],
					"name": "name",
					"outputs": [
						{
							"internalType": "bytes20",
							"name": "",
							"type": "bytes20"
						}
					],
					"stateMutability": "view",
					"type": "function"
				},
				{
					"inputs": [
						{
							"internalType": "address",
							"name": "operator",
							"type": "address"
						},
						{
							"internalType": "address",
							"name": "from",
							"type": "address"
						},
						{
							"internalType": "uint16",
							"name": "tokenId",
							"type": "uint16"
						},
						{
							"internalType": "bytes",
							"name": "data",
							"type": "bytes"
						}
					],
					"name": "onERC721Received",
					"outputs": [
						{
							"internalType": "bytes4",
							"name": "",
							"type": "bytes4"
						}
					],
					"stateMutability": "nonpayable",
					"type": "function"
				},
				{
					"inputs": [
						{
							"internalType": "uint16",
							"name": "tokenId",
							"type": "uint16"
						}
					],
					"name": "ownerOf",
					"outputs": [
						{
							"internalType": "address",
							"name": "",
							"type": "address"
						}
					],
					"stateMutability": "view",
					"type": "function"
				},
				{
					"inputs": [
						{
							"internalType": "address",
							"name": "from",
							"type": "address"
						},
						{
							"internalType": "address",
							"name": "to",
							"type": "address"
						},
						{
							"internalType": "uint16",
							"name": "tokenId",
							"type": "uint16"
						}
					],
					"name": "safeTransferFrom",
					"outputs": [],
					"stateMutability": "nonpayable",
					"type": "function"
				},
				{
					"inputs": [
						{
							"internalType": "address",
							"name": "from",
							"type": "address"
						},
						{
							"internalType": "address",
							"name": "to",
							"type": "address"
						},
						{
							"internalType": "uint16",
							"name": "tokenId",
							"type": "uint16"
						},
						{
							"internalType": "bytes",
							"name": "data",
							"type": "bytes"
						}
					],
					"name": "safeTransferFrom",
					"outputs": [],
					"stateMutability": "nonpayable",
					"type": "function"
				},
				{
					"inputs": [
						{
							"internalType": "address",
							"name": "operator",
							"type": "address"
						},
						{
							"internalType": "bool",
							"name": "approved",
							"type": "bool"
						}
					],
					"name": "setApprovalForAll",
					"outputs": [],
					"stateMutability": "nonpayable",
					"type": "function"
				},
				{
					"inputs": [
						{
							"internalType": "uint48",
							"name": "salt_",
							"type": "uint48"
						}
					],
					"name": "setRegister",
					"outputs": [
						{
							"internalType": "bytes",
							"name": "",
							"type": "bytes"
						}
					],
					"stateMutability": "payable",
					"type": "function"
				},
				{
					"inputs": [],
					"name": "stateVoting",
					"outputs": [
						{
							"internalType": "bytes32",
							"name": "",
							"type": "bytes32"
						}
					],
					"stateMutability": "nonpayable",
					"type": "function"
				},
				{
					"inputs": [],
					"name": "symbol",
					"outputs": [
						{
							"internalType": "bytes10",
							"name": "",
							"type": "bytes10"
						}
					],
					"stateMutability": "view",
					"type": "function"
				},
				{
					"inputs": [
						{
							"internalType": "uint16",
							"name": "tokenId",
							"type": "uint16"
						}
					],
					"name": "tokenURI",
					"outputs": [
						{
							"internalType": "string",
							"name": "",
							"type": "string"
						}
					],
					"stateMutability": "view",
					"type": "function"
				},
				{
					"inputs": [
						{
							"internalType": "address",
							"name": "from",
							"type": "address"
						},
						{
							"internalType": "address",
							"name": "to",
							"type": "address"
						},
						{
							"internalType": "uint16",
							"name": "tokenId",
							"type": "uint16"
						}
					],
					"name": "transferFrom",
					"outputs": [],
					"stateMutability": "nonpayable",
					"type": "function"
				},
				{
					"inputs": [
						{
							"internalType": "uint16",
							"name": "newmaxMint",
							"type": "uint16"
						},
						{
							"internalType": "uint256",
							"name": "newregistrationStartTime",
							"type": "uint256"
						},
						{
							"internalType": "address",
							"name": "newexecutor",
							"type": "address"
						},
						{
							"internalType": "address",
							"name": "newbankAddress",
							"type": "address"
						},
						{
							"internalType": "uint256",
							"name": "newmintPrice",
							"type": "uint256"
						},
						{
							"internalType": "uint16[1201]",
							"name": "newTokenId",
							"type": "uint16[1201]"
						}
					],
					"name": "updateMintInfo",
					"outputs": [],
					"stateMutability": "nonpayable",
					"type": "function"
				}
			],
			"devdoc": {
				"errors": {
					"ERC721IncorrectOwner(address,uint256,address)": [
						{
							"details": "Indicates an error related to the ownership over a particular token. Used in transfers.",
							"params": {
								"owner": "Address of the current owner of a token.",
								"sender": "Address whose tokens are being transferred.",
								"tokenId": "Identifier number of a token."
							}
						}
					],
					"ERC721InsufficientApproval(address,uint256)": [
						{
							"details": "Indicates a failure with the `operator`’s approval. Used in transfers.",
							"params": {
								"operator": "Address that may be allowed to operate on tokens without being their owner.",
								"tokenId": "Identifier number of a token."
							}
						}
					],
					"ERC721InvalidApprover(address)": [
						{
							"details": "Indicates a failure with the `approver` of a token to be approved. Used in approvals.",
							"params": {
								"approver": "Address initiating an approval operation."
							}
						}
					],
					"ERC721InvalidOperator(address)": [
						{
							"details": "Indicates a failure with the `operator` to be approved. Used in approvals.",
							"params": {
								"operator": "Address that may be allowed to operate on tokens without being their owner."
							}
						}
					],
					"ERC721InvalidOwner(address)": [
						{
							"details": "Indicates that an address can't be an owner. For example, `address(0)` is a forbidden owner in EIP-20. Used in balance queries.",
							"params": {
								"owner": "Address of the current owner of a token."
							}
						}
					],
					"ERC721InvalidReceiver(address)": [
						{
							"details": "Indicates a failure with the token `receiver`. Used in transfers.",
							"params": {
								"receiver": "Address to which tokens are being transferred."
							}
						}
					],
					"ERC721InvalidSender(address)": [
						{
							"details": "Indicates a failure with the token `sender`. Used in transfers.",
							"params": {
								"sender": "Address whose tokens are being transferred."
							}
						}
					],
					"ERC721NonexistentToken(uint256)": [
						{
							"details": "Indicates a `tokenId` whose `owner` is the zero address.",
							"params": {
								"tokenId": "Identifier number of a token."
							}
						}
					]
				},
				"kind": "dev",
				"methods": {
					"onERC721Received(address,address,uint16,bytes)": {
						"details": "Whenever an {IERC721} `tokenId` token is transferred to this contract via {IERC721-safeTransferFrom} by `operator` from `from`, this function is called. It must return its Solidity selector to confirm the token transfer. If any other value is returned or the interface is not implemented by the recipient, the transfer will be reverted. The selector can be obtained in Solidity with `IERC721Receiver.onERC721Received.selector`."
					}
				},
				"version": 1
			},
			"evm": {
				"assembly": "    /* \"contracts/ERC721TokenContractName.sol\":400:12245  contract ERC721TokenContractName is Context, IERC721Errors, IERC721TCNReceiver {... */\n  mstore(0x40, 0x80)\n    /* \"contracts/ERC721TokenContractName.sol\":1945:2128  constructor(bytes20 name_, bytes10 symbol_) {... */\n  callvalue\n  dup1\n  iszero\n  tag_1\n  jumpi\n  0x00\n  dup1\n  revert\ntag_1:\n  pop\n  mload(0x40)\n  sub(codesize, bytecodeSize)\n  dup1\n  bytecodeSize\n  dup4\n  codecopy\n  dup2\n  dup2\n  add\n  0x40\n  mstore\n  dup2\n  add\n  swap1\n  tag_2\n  swap2\n  swap1\n  tag_3\n  jump\t// in\ntag_2:\n    /* \"contracts/ERC721TokenContractName.sol\":2008:2013  name_ */\n  dup2\n    /* \"contracts/ERC721TokenContractName.sol\":2000:2005  _name */\n  0x00\n  dup1\n    /* \"contracts/ERC721TokenContractName.sol\":2000:2013  _name = name_ */\n  0x0100\n  exp\n  dup2\n  sload\n  dup2\n  0xffffffffffffffffffffffffffffffffffffffff\n  mul\n  not\n  and\n  swap1\n  dup4\n  0x60\n  shr\n  mul\n  or\n  swap1\n  sstore\n  pop\n    /* \"contracts/ERC721TokenContractName.sol\":2034:2041  symbol_ */\n  dup1\n    /* \"contracts/ERC721TokenContractName.sol\":2024:2031  _symbol */\n  0x00\n  0x14\n    /* \"contracts/ERC721TokenContractName.sol\":2024:2041  _symbol = symbol_ */\n  0x0100\n  exp\n  dup2\n  sload\n  dup2\n  0xffffffffffffffffffff\n  mul\n  not\n  and\n  swap1\n  dup4\n  0xb0\n  shr\n  mul\n  or\n  swap1\n  sstore\n  pop\n    /* \"contracts/ERC721TokenContractName.sol\":2072:2084  _msgSender() */\n  tag_6\n    /* \"contracts/ERC721TokenContractName.sol\":2072:2082  _msgSender */\n  shl(0x20, tag_7)\n    /* \"contracts/ERC721TokenContractName.sol\":2072:2084  _msgSender() */\n  0x20\n  shr\n  jump\t// in\ntag_6:\n    /* \"contracts/ERC721TokenContractName.sol\":2052:2060  mintInfo */\n  0x01\n    /* \"contracts/ERC721TokenContractName.sol\":2052:2069  mintInfo.executor */\n  0x00\n  add\n  0x06\n    /* \"contracts/ERC721TokenContractName.sol\":2052:2084  mintInfo.executor = _msgSender() */\n  0x0100\n  exp\n  dup2\n  sload\n  dup2\n  0xffffffffffffffffffffffffffffffffffffffff\n  mul\n  not\n  and\n  swap1\n  dup4\n  0xffffffffffffffffffffffffffffffffffffffff\n  and\n  mul\n  or\n  swap1\n  sstore\n  pop\n    /* \"contracts/ERC721TokenContractName.sol\":2119:2120  1 */\n  0x01\n    /* \"contracts/ERC721TokenContractName.sol\":2095:2103  mintInfo */\n  dup1\n    /* \"contracts/ERC721TokenContractName.sol\":2095:2116  mintInfo.nRegistrants */\n  0x00\n  add\n  0x04\n    /* \"contracts/ERC721TokenContractName.sol\":2095:2120  mintInfo.nRegistrants = 1 */\n  0x0100\n  exp\n  dup2\n  sload\n  dup2\n  0xffff\n  mul\n  not\n  and\n  swap1\n  dup4\n  0xffff\n  and\n  mul\n  or\n  swap1\n  sstore\n  pop\n    /* \"contracts/ERC721TokenContractName.sol\":1945:2128  constructor(bytes20 name_, bytes10 symbol_) {... */\n  pop\n  pop\n    /* \"contracts/ERC721TokenContractName.sol\":400:12245  contract ERC721TokenContractName is Context, IERC721Errors, IERC721TCNReceiver {... */\n  jump(tag_8)\n    /* \"@openzeppelin/contracts/utils/Context.sol\":656:752  function _msgSender() internal view virtual returns (address) {... */\ntag_7:\n    /* \"@openzeppelin/contracts/utils/Context.sol\":709:716  address */\n  0x00\n    /* \"@openzeppelin/contracts/utils/Context.sol\":735:745  msg.sender */\n  caller\n    /* \"@openzeppelin/contracts/utils/Context.sol\":728:745  return msg.sender */\n  swap1\n  pop\n    /* \"@openzeppelin/contracts/utils/Context.sol\":656:752  function _msgSender() internal view virtual returns (address) {... */\n  swap1\n  jump\t// out\n    /* \"#utility.yul\":88:205   */\ntag_11:\n    /* \"#utility.yul\":197:198   */\n  0x00\n    /* \"#utility.yul\":194:195   */\n  dup1\n    /* \"#utility.yul\":187:199   */\n  revert\n    /* \"#utility.yul\":334:484   */\ntag_13:\n    /* \"#utility.yul\":371:378   */\n  0x00\n    /* \"#utility.yul\":411:477   */\n  0xffffffffffffffffffffffffffffffffffffffff000000000000000000000000\n    /* \"#utility.yul\":404:409   */\n  dup3\n    /* \"#utility.yul\":400:478   */\n  and\n    /* \"#utility.yul\":389:478   */\n  swap1\n  pop\n    /* \"#utility.yul\":334:484   */\n  swap2\n  swap1\n  pop\n  jump\t// out\n    /* \"#utility.yul\":490:612   */\ntag_14:\n    /* \"#utility.yul\":563:587   */\n  tag_25\n    /* \"#utility.yul\":581:586   */\n  dup2\n    /* \"#utility.yul\":563:587   */\n  tag_13\n  jump\t// in\ntag_25:\n    /* \"#utility.yul\":556:561   */\n  dup2\n    /* \"#utility.yul\":553:588   */\n  eq\n    /* \"#utility.yul\":543:606   */\n  tag_26\n  jumpi\n    /* \"#utility.yul\":602:603   */\n  0x00\n    /* \"#utility.yul\":599:600   */\n  dup1\n    /* \"#utility.yul\":592:604   */\n  revert\n    /* \"#utility.yul\":543:606   */\ntag_26:\n    /* \"#utility.yul\":490:612   */\n  pop\n  jump\t// out\n    /* \"#utility.yul\":618:761   */\ntag_15:\n    /* \"#utility.yul\":675:680   */\n  0x00\n    /* \"#utility.yul\":706:712   */\n  dup2\n    /* \"#utility.yul\":700:713   */\n  mload\n    /* \"#utility.yul\":691:713   */\n  swap1\n  pop\n    /* \"#utility.yul\":722:755   */\n  tag_28\n    /* \"#utility.yul\":749:754   */\n  dup2\n    /* \"#utility.yul\":722:755   */\n  tag_14\n  jump\t// in\ntag_28:\n    /* \"#utility.yul\":618:761   */\n  swap3\n  swap2\n  pop\n  pop\n  jump\t// out\n    /* \"#utility.yul\":767:917   */\ntag_16:\n    /* \"#utility.yul\":804:811   */\n  0x00\n    /* \"#utility.yul\":844:910   */\n  0xffffffffffffffffffff00000000000000000000000000000000000000000000\n    /* \"#utility.yul\":837:842   */\n  dup3\n    /* \"#utility.yul\":833:911   */\n  and\n    /* \"#utility.yul\":822:911   */\n  swap1\n  pop\n    /* \"#utility.yul\":767:917   */\n  swap2\n  swap1\n  pop\n  jump\t// out\n    /* \"#utility.yul\":923:1045   */\ntag_17:\n    /* \"#utility.yul\":996:1020   */\n  tag_31\n    /* \"#utility.yul\":1014:1019   */\n  dup2\n    /* \"#utility.yul\":996:1020   */\n  tag_16\n  jump\t// in\ntag_31:\n    /* \"#utility.yul\":989:994   */\n  dup2\n    /* \"#utility.yul\":986:1021   */\n  eq\n    /* \"#utility.yul\":976:1039   */\n  tag_32\n  jumpi\n    /* \"#utility.yul\":1035:1036   */\n  0x00\n    /* \"#utility.yul\":1032:1033   */\n  dup1\n    /* \"#utility.yul\":1025:1037   */\n  revert\n    /* \"#utility.yul\":976:1039   */\ntag_32:\n    /* \"#utility.yul\":923:1045   */\n  pop\n  jump\t// out\n    /* \"#utility.yul\":1051:1194   */\ntag_18:\n    /* \"#utility.yul\":1108:1113   */\n  0x00\n    /* \"#utility.yul\":1139:1145   */\n  dup2\n    /* \"#utility.yul\":1133:1146   */\n  mload\n    /* \"#utility.yul\":1124:1146   */\n  swap1\n  pop\n    /* \"#utility.yul\":1155:1188   */\n  tag_34\n    /* \"#utility.yul\":1182:1187   */\n  dup2\n    /* \"#utility.yul\":1155:1188   */\n  tag_17\n  jump\t// in\ntag_34:\n    /* \"#utility.yul\":1051:1194   */\n  swap3\n  swap2\n  pop\n  pop\n  jump\t// out\n    /* \"#utility.yul\":1200:1707   */\ntag_3:\n    /* \"#utility.yul\":1279:1285   */\n  0x00\n    /* \"#utility.yul\":1287:1293   */\n  dup1\n    /* \"#utility.yul\":1336:1338   */\n  0x40\n    /* \"#utility.yul\":1324:1333   */\n  dup4\n    /* \"#utility.yul\":1315:1322   */\n  dup6\n    /* \"#utility.yul\":1311:1334   */\n  sub\n    /* \"#utility.yul\":1307:1339   */\n  slt\n    /* \"#utility.yul\":1304:1423   */\n  iszero\n  tag_36\n  jumpi\n    /* \"#utility.yul\":1342:1421   */\n  tag_37\n  tag_11\n  jump\t// in\ntag_37:\n    /* \"#utility.yul\":1304:1423   */\ntag_36:\n    /* \"#utility.yul\":1462:1463   */\n  0x00\n    /* \"#utility.yul\":1487:1551   */\n  tag_38\n    /* \"#utility.yul\":1543:1550   */\n  dup6\n    /* \"#utility.yul\":1534:1540   */\n  dup3\n    /* \"#utility.yul\":1523:1532   */\n  dup7\n    /* \"#utility.yul\":1519:1541   */\n  add\n    /* \"#utility.yul\":1487:1551   */\n  tag_15\n  jump\t// in\ntag_38:\n    /* \"#utility.yul\":1477:1551   */\n  swap3\n  pop\n    /* \"#utility.yul\":1433:1561   */\n  pop\n    /* \"#utility.yul\":1600:1602   */\n  0x20\n    /* \"#utility.yul\":1626:1690   */\n  tag_39\n    /* \"#utility.yul\":1682:1689   */\n  dup6\n    /* \"#utility.yul\":1673:1679   */\n  dup3\n    /* \"#utility.yul\":1662:1671   */\n  dup7\n    /* \"#utility.yul\":1658:1680   */\n  add\n    /* \"#utility.yul\":1626:1690   */\n  tag_18\n  jump\t// in\ntag_39:\n    /* \"#utility.yul\":1616:1690   */\n  swap2\n  pop\n    /* \"#utility.yul\":1571:1700   */\n  pop\n    /* \"#utility.yul\":1200:1707   */\n  swap3\n  pop\n  swap3\n  swap1\n  pop\n  jump\t// out\n    /* \"contracts/ERC721TokenContractName.sol\":400:12245  contract ERC721TokenContractName is Context, IERC721Errors, IERC721TCNReceiver {... */\ntag_8:\n  dataSize(sub_0)\n  dup1\n  dataOffset(sub_0)\n  0x00\n  codecopy\n  0x00\n  return\nstop\n\nsub_0: assembly {\n        /* \"contracts/ERC721TokenContractName.sol\":400:12245  contract ERC721TokenContractName is Context, IERC721Errors, IERC721TCNReceiver {... */\n      mstore(0x40, 0x80)\n      jumpi(tag_1, lt(calldatasize, 0x04))\n      shr(0xe0, calldataload(0x00))\n      dup1\n      0x93b871f2\n      gt\n      tag_19\n      jumpi\n      dup1\n      0xb1cff380\n      gt\n      tag_20\n      jumpi\n      dup1\n      0xb1cff380\n      eq\n      tag_14\n      jumpi\n      dup1\n      0xd5ebe3df\n      eq\n      tag_15\n      jumpi\n      dup1\n      0xdd7d8440\n      eq\n      tag_16\n      jumpi\n      dup1\n      0xe560ca43\n      eq\n      tag_17\n      jumpi\n      dup1\n      0xe985e9c5\n      eq\n      tag_18\n      jumpi\n      jump(tag_1)\n    tag_20:\n      dup1\n      0x93b871f2\n      eq\n      tag_10\n      jumpi\n      dup1\n      0x95d89b41\n      eq\n      tag_11\n      jumpi\n      dup1\n      0xa22cb465\n      eq\n      tag_12\n      jumpi\n      dup1\n      0xb145ae31\n      eq\n      tag_13\n      jumpi\n      jump(tag_1)\n    tag_19:\n      dup1\n      0x4ec3dcfe\n      gt\n      tag_21\n      jumpi\n      dup1\n      0x4ec3dcfe\n      eq\n      tag_6\n      jumpi\n      dup1\n      0x6e1514f1\n      eq\n      tag_7\n      jumpi\n      dup1\n      0x70a08231\n      eq\n      tag_8\n      jumpi\n      dup1\n      0x82a7cf1e\n      eq\n      tag_9\n      jumpi\n      jump(tag_1)\n    tag_21:\n      dup1\n      0x06fdde03\n      eq\n      tag_2\n      jumpi\n      dup1\n      0x07394401\n      eq\n      tag_3\n      jumpi\n      dup1\n      0x0ab5b8cd\n      eq\n      tag_4\n      jumpi\n      dup1\n      0x1249c58b\n      eq\n      tag_5\n      jumpi\n    tag_1:\n      0x00\n      dup1\n      revert\n        /* \"contracts/ERC721TokenContractName.sol\":2138:2215  function name() public view returns (bytes20) {... */\n    tag_2:\n      callvalue\n      dup1\n      iszero\n      tag_22\n      jumpi\n      0x00\n      dup1\n      revert\n    tag_22:\n      pop\n      tag_23\n      tag_24\n      jump\t// in\n    tag_23:\n      mload(0x40)\n      tag_25\n      swap2\n      swap1\n      tag_26\n      jump\t// in\n    tag_25:\n      mload(0x40)\n      dup1\n      swap2\n      sub\n      swap1\n      return\n        /* \"contracts/ERC721TokenContractName.sol\":5046:5179  function safeTransferFrom(address from, address to, uint16 tokenId) public {... */\n    tag_3:\n      callvalue\n      dup1\n      iszero\n      tag_27\n      jumpi\n      0x00\n      dup1\n      revert\n    tag_27:\n      pop\n      tag_28\n      0x04\n      dup1\n      calldatasize\n      sub\n      dup2\n      add\n      swap1\n      tag_29\n      swap2\n      swap1\n      tag_30\n      jump\t// in\n    tag_29:\n      tag_31\n      jump\t// in\n    tag_28:\n      stop\n        /* \"contracts/ERC721TokenContractName.sol\":5407:6747  function updateMintInfo(... */\n    tag_4:\n      callvalue\n      dup1\n      iszero\n      tag_32\n      jumpi\n      0x00\n      dup1\n      revert\n    tag_32:\n      pop\n      tag_33\n      0x04\n      dup1\n      calldatasize\n      sub\n      dup2\n      add\n      swap1\n      tag_34\n      swap2\n      swap1\n      tag_35\n      jump\t// in\n    tag_34:\n      tag_36\n      jump\t// in\n    tag_33:\n      stop\n        /* \"contracts/ERC721TokenContractName.sol\":7690:9302  function mint() public {... */\n    tag_5:\n      callvalue\n      dup1\n      iszero\n      tag_37\n      jumpi\n      0x00\n      dup1\n      revert\n    tag_37:\n      pop\n      tag_38\n      tag_39\n      jump\t// in\n    tag_38:\n      stop\n        /* \"contracts/ERC721TokenContractName.sol\":4041:5038  function transferFrom(address from, address to, uint16 tokenId) public virtual {... */\n    tag_6:\n      callvalue\n      dup1\n      iszero\n      tag_40\n      jumpi\n      0x00\n      dup1\n      revert\n    tag_40:\n      pop\n      tag_41\n      0x04\n      dup1\n      calldatasize\n      sub\n      dup2\n      add\n      swap1\n      tag_42\n      swap2\n      swap1\n      tag_30\n      jump\t// in\n    tag_42:\n      tag_43\n      jump\t// in\n    tag_41:\n      stop\n        /* \"contracts/ERC721TokenContractName.sol\":12151:12208  function stateVoting() public returns(bytes32) {... */\n    tag_7:\n      callvalue\n      dup1\n      iszero\n      tag_44\n      jumpi\n      0x00\n      dup1\n      revert\n    tag_44:\n      pop\n      tag_45\n      tag_46\n      jump\t// in\n    tag_45:\n      mload(0x40)\n      tag_47\n      swap2\n      swap1\n      tag_48\n      jump\t// in\n    tag_47:\n      mload(0x40)\n      dup1\n      swap2\n      sub\n      swap1\n      return\n        /* \"contracts/ERC721TokenContractName.sol\":2316:2505  function balanceOf(address owner) public view returns (uint16) {... */\n    tag_8:\n      callvalue\n      dup1\n      iszero\n      tag_49\n      jumpi\n      0x00\n      dup1\n      revert\n    tag_49:\n      pop\n      tag_50\n      0x04\n      dup1\n      calldatasize\n      sub\n      dup2\n      add\n      swap1\n      tag_51\n      swap2\n      swap1\n      tag_52\n      jump\t// in\n    tag_51:\n      tag_53\n      jump\t// in\n    tag_50:\n      mload(0x40)\n      tag_54\n      swap2\n      swap1\n      tag_55\n      jump\t// in\n    tag_54:\n      mload(0x40)\n      dup1\n      swap2\n      sub\n      swap1\n      return\n        /* \"contracts/ERC721TokenContractName.sol\":2515:2626  function ownerOf(uint16 tokenId) public view returns (address) {... */\n    tag_9:\n      callvalue\n      dup1\n      iszero\n      tag_56\n      jumpi\n      0x00\n      dup1\n      revert\n    tag_56:\n      pop\n      tag_57\n      0x04\n      dup1\n      calldatasize\n      sub\n      dup2\n      add\n      swap1\n      tag_58\n      swap2\n      swap1\n      tag_59\n      jump\t// in\n    tag_58:\n      tag_60\n      jump\t// in\n    tag_57:\n      mload(0x40)\n      tag_61\n      swap2\n      swap1\n      tag_62\n      jump\t// in\n    tag_61:\n      mload(0x40)\n      dup1\n      swap2\n      sub\n      swap1\n      return\n        /* \"contracts/ERC721TokenContractName.sol\":3282:3442  function getApproved(uint16 tokenId) public view virtual returns (address) {... */\n    tag_10:\n      callvalue\n      dup1\n      iszero\n      tag_63\n      jumpi\n      0x00\n      dup1\n      revert\n    tag_63:\n      pop\n      tag_64\n      0x04\n      dup1\n      calldatasize\n      sub\n      dup2\n      add\n      swap1\n      tag_65\n      swap2\n      swap1\n      tag_59\n      jump\t// in\n    tag_65:\n      tag_66\n      jump\t// in\n    tag_64:\n      mload(0x40)\n      tag_67\n      swap2\n      swap1\n      tag_62\n      jump\t// in\n    tag_67:\n      mload(0x40)\n      dup1\n      swap2\n      sub\n      swap1\n      return\n        /* \"contracts/ERC721TokenContractName.sol\":2225:2306  function symbol() public view returns (bytes10) {... */\n    tag_11:\n      callvalue\n      dup1\n      iszero\n      tag_68\n      jumpi\n      0x00\n      dup1\n      revert\n    tag_68:\n      pop\n      tag_69\n      tag_70\n      jump\t// in\n    tag_69:\n      mload(0x40)\n      tag_71\n      swap2\n      swap1\n      tag_72\n      jump\t// in\n    tag_71:\n      mload(0x40)\n      dup1\n      swap2\n      sub\n      swap1\n      return\n        /* \"contracts/ERC721TokenContractName.sol\":3450:3876  function setApprovalForAll(address operator, bool approved) public {... */\n    tag_12:\n      callvalue\n      dup1\n      iszero\n      tag_73\n      jumpi\n      0x00\n      dup1\n      revert\n    tag_73:\n      pop\n      tag_74\n      0x04\n      dup1\n      calldatasize\n      sub\n      dup2\n      add\n      swap1\n      tag_75\n      swap2\n      swap1\n      tag_76\n      jump\t// in\n    tag_75:\n      tag_77\n      jump\t// in\n    tag_74:\n      stop\n        /* \"contracts/ERC721TokenContractName.sol\":5187:5397  function safeTransferFrom(address from, address to, uint16 tokenId, bytes memory data) public virtual {... */\n    tag_13:\n      callvalue\n      dup1\n      iszero\n      tag_78\n      jumpi\n      0x00\n      dup1\n      revert\n    tag_78:\n      pop\n      tag_79\n      0x04\n      dup1\n      calldatasize\n      sub\n      dup2\n      add\n      swap1\n      tag_80\n      swap2\n      swap1\n      tag_81\n      jump\t// in\n    tag_80:\n      tag_82\n      jump\t// in\n    tag_79:\n      stop\n        /* \"contracts/ERC721TokenContractName.sol\":11880:12045  function onERC721Received(... */\n    tag_14:\n      callvalue\n      dup1\n      iszero\n      tag_83\n      jumpi\n      0x00\n      dup1\n      revert\n    tag_83:\n      pop\n      tag_84\n      0x04\n      dup1\n      calldatasize\n      sub\n      dup2\n      add\n      swap1\n      tag_85\n      swap2\n      swap1\n      tag_86\n      jump\t// in\n    tag_85:\n      tag_87\n      jump\t// in\n    tag_84:\n      mload(0x40)\n      tag_88\n      swap2\n      swap1\n      tag_89\n      jump\t// in\n    tag_88:\n      mload(0x40)\n      dup1\n      swap2\n      sub\n      swap1\n      return\n        /* \"contracts/ERC721TokenContractName.sol\":6755:7682  function setRegister(uint48 salt_) public payable returns (bytes memory) { // accsesemit barash benevis baraye tasir gozari dar dastresi... */\n    tag_15:\n      tag_90\n      0x04\n      dup1\n      calldatasize\n      sub\n      dup2\n      add\n      swap1\n      tag_91\n      swap2\n      swap1\n      tag_92\n      jump\t// in\n    tag_91:\n      tag_93\n      jump\t// in\n    tag_90:\n      mload(0x40)\n      tag_94\n      swap2\n      swap1\n      tag_95\n      jump\t// in\n    tag_94:\n      mload(0x40)\n      dup1\n      swap2\n      sub\n      swap1\n      return\n        /* \"contracts/ERC721TokenContractName.sol\":2636:2876  function tokenURI(uint16 tokenId) public view returns (string memory) {... */\n    tag_16:\n      callvalue\n      dup1\n      iszero\n      tag_96\n      jumpi\n      0x00\n      dup1\n      revert\n    tag_96:\n      pop\n      tag_97\n      0x04\n      dup1\n      calldatasize\n      sub\n      dup2\n      add\n      swap1\n      tag_98\n      swap2\n      swap1\n      tag_59\n      jump\t// in\n    tag_98:\n      tag_99\n      jump\t// in\n    tag_97:\n      mload(0x40)\n      tag_100\n      swap2\n      swap1\n      tag_101\n      jump\t// in\n    tag_100:\n      mload(0x40)\n      dup1\n      swap2\n      sub\n      swap1\n      return\n        /* \"contracts/ERC721TokenContractName.sol\":2886:3274  function approve(address to, uint16 tokenId) public {... */\n    tag_17:\n      callvalue\n      dup1\n      iszero\n      tag_102\n      jumpi\n      0x00\n      dup1\n      revert\n    tag_102:\n      pop\n      tag_103\n      0x04\n      dup1\n      calldatasize\n      sub\n      dup2\n      add\n      swap1\n      tag_104\n      swap2\n      swap1\n      tag_105\n      jump\t// in\n    tag_104:\n      tag_106\n      jump\t// in\n    tag_103:\n      stop\n        /* \"contracts/ERC721TokenContractName.sol\":3886:4033  function isApprovedForAll(address owner, address operator) public view returns (bool) {... */\n    tag_18:\n      callvalue\n      dup1\n      iszero\n      tag_107\n      jumpi\n      0x00\n      dup1\n      revert\n    tag_107:\n      pop\n      tag_108\n      0x04\n      dup1\n      calldatasize\n      sub\n      dup2\n      add\n      swap1\n      tag_109\n      swap2\n      swap1\n      tag_110\n      jump\t// in\n    tag_109:\n      tag_111\n      jump\t// in\n    tag_108:\n      mload(0x40)\n      tag_112\n      swap2\n      swap1\n      tag_113\n      jump\t// in\n    tag_112:\n      mload(0x40)\n      dup1\n      swap2\n      sub\n      swap1\n      return\n        /* \"contracts/ERC721TokenContractName.sol\":2138:2215  function name() public view returns (bytes20) {... */\n    tag_24:\n        /* \"contracts/ERC721TokenContractName.sol\":2175:2182  bytes20 */\n      0x00\n        /* \"contracts/ERC721TokenContractName.sol\":2202:2207  _name */\n      dup1\n      0x00\n      swap1\n      sload\n      swap1\n      0x0100\n      exp\n      swap1\n      div\n      0x60\n      shl\n        /* \"contracts/ERC721TokenContractName.sol\":2195:2207  return _name */\n      swap1\n      pop\n        /* \"contracts/ERC721TokenContractName.sol\":2138:2215  function name() public view returns (bytes20) {... */\n      swap1\n      jump\t// out\n        /* \"contracts/ERC721TokenContractName.sol\":5046:5179  function safeTransferFrom(address from, address to, uint16 tokenId) public {... */\n    tag_31:\n        /* \"contracts/ERC721TokenContractName.sol\":5132:5171  safeTransferFrom(from, to, tokenId, \"\") */\n      tag_116\n        /* \"contracts/ERC721TokenContractName.sol\":5149:5153  from */\n      dup4\n        /* \"contracts/ERC721TokenContractName.sol\":5155:5157  to */\n      dup4\n        /* \"contracts/ERC721TokenContractName.sol\":5159:5166  tokenId */\n      dup4\n        /* \"contracts/ERC721TokenContractName.sol\":5132:5171  safeTransferFrom(from, to, tokenId, \"\") */\n      mload(0x40)\n      dup1\n      0x20\n      add\n      0x40\n      mstore\n      dup1\n      0x00\n      dup2\n      mstore\n      pop\n        /* \"contracts/ERC721TokenContractName.sol\":5132:5148  safeTransferFrom */\n      tag_82\n        /* \"contracts/ERC721TokenContractName.sol\":5132:5171  safeTransferFrom(from, to, tokenId, \"\") */\n      jump\t// in\n    tag_116:\n        /* \"contracts/ERC721TokenContractName.sol\":5046:5179  function safeTransferFrom(address from, address to, uint16 tokenId) public {... */\n      pop\n      pop\n      pop\n      jump\t// out\n        /* \"contracts/ERC721TokenContractName.sol\":5407:6747  function updateMintInfo(... */\n    tag_36:\n        /* \"contracts/ERC721TokenContractName.sol\":5658:5666  mintInfo */\n      0x01\n        /* \"contracts/ERC721TokenContractName.sol\":5658:5675  mintInfo.executor */\n      0x00\n      add\n      0x06\n      swap1\n      sload\n      swap1\n      0x0100\n      exp\n      swap1\n      div\n      0xffffffffffffffffffffffffffffffffffffffff\n      and\n        /* \"contracts/ERC721TokenContractName.sol\":5642:5675  _msgSender() == mintInfo.executor */\n      0xffffffffffffffffffffffffffffffffffffffff\n      and\n        /* \"contracts/ERC721TokenContractName.sol\":5642:5654  _msgSender() */\n      tag_118\n        /* \"contracts/ERC721TokenContractName.sol\":5642:5652  _msgSender */\n      tag_119\n        /* \"contracts/ERC721TokenContractName.sol\":5642:5654  _msgSender() */\n      jump\t// in\n    tag_118:\n        /* \"contracts/ERC721TokenContractName.sol\":5642:5675  _msgSender() == mintInfo.executor */\n      0xffffffffffffffffffffffffffffffffffffffff\n      and\n      eq\n        /* \"contracts/ERC721TokenContractName.sol\":5634:5719  require(_msgSender() == mintInfo.executor, \"You do not have access to this function\") */\n      tag_120\n      jumpi\n      mload(0x40)\n      0x08c379a000000000000000000000000000000000000000000000000000000000\n      dup2\n      mstore\n      0x04\n      add\n      tag_121\n      swap1\n      tag_122\n      jump\t// in\n    tag_121:\n      mload(0x40)\n      dup1\n      swap2\n      sub\n      swap1\n      revert\n    tag_120:\n        /* \"contracts/ERC721TokenContractName.sol\":5751:5759  mintInfo */\n      0x01\n        /* \"contracts/ERC721TokenContractName.sol\":5751:5772  mintInfo.nRegistrants */\n      0x00\n      add\n      0x04\n      swap1\n      sload\n      swap1\n      0x0100\n      exp\n      swap1\n      div\n      0xffff\n      and\n        /* \"contracts/ERC721TokenContractName.sol\":5738:5772  newmaxMint > mintInfo.nRegistrants */\n      0xffff\n      and\n        /* \"contracts/ERC721TokenContractName.sol\":5738:5748  newmaxMint */\n      dup7\n        /* \"contracts/ERC721TokenContractName.sol\":5738:5772  newmaxMint > mintInfo.nRegistrants */\n      0xffff\n      and\n      gt\n        /* \"contracts/ERC721TokenContractName.sol\":5738:5819  newmaxMint > mintInfo.nRegistrants && newregistrationStartTime >= block.timestamp */\n      dup1\n      iszero\n      tag_123\n      jumpi\n      pop\n        /* \"contracts/ERC721TokenContractName.sol\":5804:5819  block.timestamp */\n      timestamp\n        /* \"contracts/ERC721TokenContractName.sol\":5776:5800  newregistrationStartTime */\n      dup6\n        /* \"contracts/ERC721TokenContractName.sol\":5776:5819  newregistrationStartTime >= block.timestamp */\n      lt\n      iszero\n        /* \"contracts/ERC721TokenContractName.sol\":5738:5819  newmaxMint > mintInfo.nRegistrants && newregistrationStartTime >= block.timestamp */\n    tag_123:\n        /* \"contracts/ERC721TokenContractName.sol\":5730:5865  require(newmaxMint > mintInfo.nRegistrants && newregistrationStartTime >= block.timestamp, \"The entered parameters are not acceptable\") */\n      tag_124\n      jumpi\n      mload(0x40)\n      0x08c379a000000000000000000000000000000000000000000000000000000000\n      dup2\n      mstore\n      0x04\n      add\n      tag_125\n      swap1\n      tag_126\n      jump\t// in\n    tag_125:\n      mload(0x40)\n      dup1\n      swap2\n      sub\n      swap1\n      revert\n    tag_124:\n        /* \"contracts/ERC721TokenContractName.sol\":5921:5931  newTokenId */\n      dup1\n        /* \"contracts/ERC721TokenContractName.sol\":5932:5933  0 */\n      0x00\n        /* \"contracts/ERC721TokenContractName.sol\":5921:5934  newTokenId[0] */\n      0x04b1\n      dup2\n      lt\n      tag_127\n      jumpi\n      tag_128\n      tag_129\n      jump\t// in\n    tag_128:\n    tag_127:\n      0x20\n      mul\n      add\n      mload\n        /* \"contracts/ERC721TokenContractName.sol\":5880:5934  (newmaxMint - mintInfo.currentTokens) != newTokenId[0] */\n      0xffff\n      and\n        /* \"contracts/ERC721TokenContractName.sol\":5894:5902  mintInfo */\n      0x01\n        /* \"contracts/ERC721TokenContractName.sol\":5894:5916  mintInfo.currentTokens */\n      0x00\n      add\n      0x02\n      swap1\n      sload\n      swap1\n      0x0100\n      exp\n      swap1\n      div\n      0xffff\n      and\n        /* \"contracts/ERC721TokenContractName.sol\":5881:5891  newmaxMint */\n      dup8\n        /* \"contracts/ERC721TokenContractName.sol\":5881:5916  newmaxMint - mintInfo.currentTokens */\n      tag_130\n      swap2\n      swap1\n      tag_131\n      jump\t// in\n    tag_130:\n        /* \"contracts/ERC721TokenContractName.sol\":5880:5934  (newmaxMint - mintInfo.currentTokens) != newTokenId[0] */\n      0xffff\n      and\n      eq\n        /* \"contracts/ERC721TokenContractName.sol\":5876:6013  if ((newmaxMint - mintInfo.currentTokens) != newTokenId[0]) {... */\n      tag_132\n      jumpi\n        /* \"contracts/ERC721TokenContractName.sol\":5987:5997  newTokenId */\n      dup1\n        /* \"contracts/ERC721TokenContractName.sol\":5998:5999  0 */\n      0x00\n        /* \"contracts/ERC721TokenContractName.sol\":5987:6000  newTokenId[0] */\n      0x04b1\n      dup2\n      lt\n      tag_133\n      jumpi\n      tag_134\n      tag_129\n      jump\t// in\n    tag_134:\n    tag_133:\n      0x20\n      mul\n      add\n      mload\n        /* \"contracts/ERC721TokenContractName.sol\":5958:6001  Erc721InvalidTotalNewTokenId(newTokenId[0]) */\n      mload(0x40)\n      0xca70e27000000000000000000000000000000000000000000000000000000000\n      dup2\n      mstore\n      0x04\n      add\n      tag_135\n      swap2\n      swap1\n      tag_55\n      jump\t// in\n    tag_135:\n      mload(0x40)\n      dup1\n      swap2\n      sub\n      swap1\n      revert\n        /* \"contracts/ERC721TokenContractName.sol\":5876:6013  if ((newmaxMint - mintInfo.currentTokens) != newTokenId[0]) {... */\n    tag_132:\n        /* \"contracts/ERC721TokenContractName.sol\":6040:6044  1000 */\n      0x03e8\n        /* \"contracts/ERC721TokenContractName.sol\":6027:6037  newmaxMint */\n      dup7\n        /* \"contracts/ERC721TokenContractName.sol\":6027:6044  newmaxMint > 1000 */\n      0xffff\n      and\n      gt\n        /* \"contracts/ERC721TokenContractName.sol\":6023:6323  if (newmaxMint > 1000) {... */\n      iszero\n      tag_136\n      jumpi\n        /* \"contracts/ERC721TokenContractName.sol\":6061:6078  bytes32 sucessded */\n      0x00\n        /* \"contracts/ERC721TokenContractName.sol\":6138:6142  1200 */\n      0x04b0\n        /* \"contracts/ERC721TokenContractName.sol\":6125:6135  newmaxMint */\n      dup8\n        /* \"contracts/ERC721TokenContractName.sol\":6125:6142  newmaxMint < 1200 */\n      0xffff\n      and\n      lt\n        /* \"contracts/ERC721TokenContractName.sol\":6125:6174  newmaxMint < 1200 && (sucessded == stateVoting()) */\n      dup1\n      iszero\n      tag_137\n      jumpi\n      pop\n        /* \"contracts/ERC721TokenContractName.sol\":6160:6173  stateVoting() */\n      tag_138\n        /* \"contracts/ERC721TokenContractName.sol\":6160:6171  stateVoting */\n      tag_46\n        /* \"contracts/ERC721TokenContractName.sol\":6160:6173  stateVoting() */\n      jump\t// in\n    tag_138:\n        /* \"contracts/ERC721TokenContractName.sol\":6147:6156  sucessded */\n      dup2\n        /* \"contracts/ERC721TokenContractName.sol\":6147:6173  sucessded == stateVoting() */\n      eq\n        /* \"contracts/ERC721TokenContractName.sol\":6125:6174  newmaxMint < 1200 && (sucessded == stateVoting()) */\n    tag_137:\n        /* \"contracts/ERC721TokenContractName.sol\":6117:6216  require(newmaxMint < 1200 && (sucessded == stateVoting()), \"You do not have permission to upgrade\") */\n      tag_139\n      jumpi\n      mload(0x40)\n      0x08c379a000000000000000000000000000000000000000000000000000000000\n      dup2\n      mstore\n      0x04\n      add\n      tag_140\n      swap1\n      tag_141\n      jump\t// in\n    tag_140:\n      mload(0x40)\n      dup1\n      swap2\n      sub\n      swap1\n      revert\n    tag_139:\n        /* \"contracts/ERC721TokenContractName.sol\":6231:6247  bytes32 executed */\n      0x00\n        /* \"contracts/ERC721TokenContractName.sol\":6287:6311  setStateVoting(executed) */\n      tag_142\n        /* \"contracts/ERC721TokenContractName.sol\":6302:6310  executed */\n      dup2\n        /* \"contracts/ERC721TokenContractName.sol\":6287:6301  setStateVoting */\n      tag_143\n        /* \"contracts/ERC721TokenContractName.sol\":6287:6311  setStateVoting(executed) */\n      jump\t// in\n    tag_142:\n        /* \"contracts/ERC721TokenContractName.sol\":6046:6323  {... */\n      pop\n      pop\n        /* \"contracts/ERC721TokenContractName.sol\":6023:6323  if (newmaxMint > 1000) {... */\n    tag_136:\n        /* \"contracts/ERC721TokenContractName.sol\":6354:6364  newmaxMint */\n      dup6\n        /* \"contracts/ERC721TokenContractName.sol\":6335:6343  mintInfo */\n      0x01\n        /* \"contracts/ERC721TokenContractName.sol\":6335:6351  mintInfo.maxMint */\n      0x00\n      add\n      0x00\n        /* \"contracts/ERC721TokenContractName.sol\":6335:6364  mintInfo.maxMint = newmaxMint */\n      0x0100\n      exp\n      dup2\n      sload\n      dup2\n      0xffff\n      mul\n      not\n      and\n      swap1\n      dup4\n      0xffff\n      and\n      mul\n      or\n      swap1\n      sstore\n      pop\n        /* \"contracts/ERC721TokenContractName.sol\":6408:6432  newregistrationStartTime */\n      dup5\n        /* \"contracts/ERC721TokenContractName.sol\":6375:6383  mintInfo */\n      0x01\n        /* \"contracts/ERC721TokenContractName.sol\":6375:6405  mintInfo.registrationStartTime */\n      0x02\n      add\n        /* \"contracts/ERC721TokenContractName.sol\":6375:6432  mintInfo.registrationStartTime = newregistrationStartTime */\n      dup2\n      swap1\n      sstore\n      pop\n        /* \"contracts/ERC721TokenContractName.sol\":6463:6474  newexecutor */\n      dup4\n        /* \"contracts/ERC721TokenContractName.sol\":6443:6451  mintInfo */\n      0x01\n        /* \"contracts/ERC721TokenContractName.sol\":6443:6460  mintInfo.executor */\n      0x00\n      add\n      0x06\n        /* \"contracts/ERC721TokenContractName.sol\":6443:6474  mintInfo.executor = newexecutor */\n      0x0100\n      exp\n      dup2\n      sload\n      dup2\n      0xffffffffffffffffffffffffffffffffffffffff\n      mul\n      not\n      and\n      swap1\n      dup4\n      0xffffffffffffffffffffffffffffffffffffffff\n      and\n      mul\n      or\n      swap1\n      sstore\n      pop\n        /* \"contracts/ERC721TokenContractName.sol\":6508:6522  newbankAddress */\n      dup3\n        /* \"contracts/ERC721TokenContractName.sol\":6485:6493  mintInfo */\n      0x01\n        /* \"contracts/ERC721TokenContractName.sol\":6485:6505  mintInfo.bankAddress */\n      dup1\n      add\n      0x00\n        /* \"contracts/ERC721TokenContractName.sol\":6485:6522  mintInfo.bankAddress = newbankAddress */\n      0x0100\n      exp\n      dup2\n      sload\n      dup2\n      0xffffffffffffffffffffffffffffffffffffffff\n      mul\n      not\n      and\n      swap1\n      dup4\n      0xffffffffffffffffffffffffffffffffffffffff\n      and\n      mul\n      or\n      swap1\n      sstore\n      pop\n        /* \"contracts/ERC721TokenContractName.sol\":6554:6566  newmintPrice */\n      dup2\n        /* \"contracts/ERC721TokenContractName.sol\":6533:6541  mintInfo */\n      0x01\n        /* \"contracts/ERC721TokenContractName.sol\":6533:6551  mintInfo.mintPrice */\n      0x03\n      add\n        /* \"contracts/ERC721TokenContractName.sol\":6533:6566  mintInfo.mintPrice = newmintPrice */\n      dup2\n      swap1\n      sstore\n      pop\n        /* \"contracts/ERC721TokenContractName.sol\":6608:6618  newTokenId */\n      dup1\n        /* \"contracts/ERC721TokenContractName.sol\":6577:6593  _balanceAndTokId */\n      0x0a7e\n        /* \"contracts/ERC721TokenContractName.sol\":6577:6605  _balanceAndTokId[address(0)] */\n      0x00\n        /* \"contracts/ERC721TokenContractName.sol\":6602:6603  0 */\n      dup1\n        /* \"contracts/ERC721TokenContractName.sol\":6577:6605  _balanceAndTokId[address(0)] */\n      0xffffffffffffffffffffffffffffffffffffffff\n      and\n      0xffffffffffffffffffffffffffffffffffffffff\n      and\n      dup2\n      mstore\n      0x20\n      add\n      swap1\n      dup2\n      mstore\n      0x20\n      add\n      0x00\n      keccak256\n        /* \"contracts/ERC721TokenContractName.sol\":6577:6618  _balanceAndTokId[address(0)] = newTokenId */\n      swap1\n      0x04b1\n      tag_144\n      swap3\n      swap2\n      swap1\n      tag_145\n      jump\t// in\n    tag_144:\n      pop\n        /* \"contracts/ERC721TokenContractName.sol\":6661:6685  newregistrationStartTime */\n      dup5\n        /* \"contracts/ERC721TokenContractName.sol\":6649:6659  newmaxMint */\n      dup7\n        /* \"contracts/ERC721TokenContractName.sol\":6634:6729  updatemintInfo(newmaxMint, newregistrationStartTime, newexecutor, newbankAddress, newmintPrice) */\n      0xffff\n      and\n      0x7f5da92c8cf80f4a196e12ba4e13abc4fd2645f0248ad338ebd76ebb41898281\n        /* \"contracts/ERC721TokenContractName.sol\":6687:6698  newexecutor */\n      dup7\n        /* \"contracts/ERC721TokenContractName.sol\":6700:6714  newbankAddress */\n      dup7\n        /* \"contracts/ERC721TokenContractName.sol\":6716:6728  newmintPrice */\n      dup7\n        /* \"contracts/ERC721TokenContractName.sol\":6634:6729  updatemintInfo(newmaxMint, newregistrationStartTime, newexecutor, newbankAddress, newmintPrice) */\n      mload(0x40)\n      tag_146\n      swap4\n      swap3\n      swap2\n      swap1\n      tag_147\n      jump\t// in\n    tag_146:\n      mload(0x40)\n      dup1\n      swap2\n      sub\n      swap1\n      log3\n        /* \"contracts/ERC721TokenContractName.sol\":5407:6747  function updateMintInfo(... */\n      pop\n      pop\n      pop\n      pop\n      pop\n      pop\n      jump\t// out\n        /* \"contracts/ERC721TokenContractName.sol\":7690:9302  function mint() public {... */\n    tag_39:\n        /* \"contracts/ERC721TokenContractName.sol\":7749:7757  mintInfo */\n      0x01\n        /* \"contracts/ERC721TokenContractName.sol\":7749:7766  mintInfo.executor */\n      0x00\n      add\n      0x06\n      swap1\n      sload\n      swap1\n      0x0100\n      exp\n      swap1\n      div\n      0xffffffffffffffffffffffffffffffffffffffff\n      and\n        /* \"contracts/ERC721TokenContractName.sol\":7733:7766  _msgSender() == mintInfo.executor */\n      0xffffffffffffffffffffffffffffffffffffffff\n      and\n        /* \"contracts/ERC721TokenContractName.sol\":7733:7745  _msgSender() */\n      tag_149\n        /* \"contracts/ERC721TokenContractName.sol\":7733:7743  _msgSender */\n      tag_119\n        /* \"contracts/ERC721TokenContractName.sol\":7733:7745  _msgSender() */\n      jump\t// in\n    tag_149:\n        /* \"contracts/ERC721TokenContractName.sol\":7733:7766  _msgSender() == mintInfo.executor */\n      0xffffffffffffffffffffffffffffffffffffffff\n      and\n      eq\n        /* \"contracts/ERC721TokenContractName.sol\":7724:7795  require (_msgSender() == mintInfo.executor, \"Access only for executor\") */\n      tag_150\n      jumpi\n      mload(0x40)\n      0x08c379a000000000000000000000000000000000000000000000000000000000\n      dup2\n      mstore\n      0x04\n      add\n      tag_151\n      swap1\n      tag_152\n      jump\t// in\n    tag_151:\n      mload(0x40)\n      dup1\n      swap2\n      sub\n      swap1\n      revert\n    tag_150:\n        /* \"contracts/ERC721TokenContractName.sol\":7836:7844  mintInfo */\n      0x01\n        /* \"contracts/ERC721TokenContractName.sol\":7836:7858  mintInfo.currentTokens */\n      0x00\n      add\n      0x02\n      swap1\n      sload\n      swap1\n      0x0100\n      exp\n      swap1\n      div\n      0xffff\n      and\n        /* \"contracts/ERC721TokenContractName.sol\":7812:7858  mintInfo.nRegistrants > mintInfo.currentTokens */\n      0xffff\n      and\n        /* \"contracts/ERC721TokenContractName.sol\":7812:7820  mintInfo */\n      0x01\n        /* \"contracts/ERC721TokenContractName.sol\":7812:7833  mintInfo.nRegistrants */\n      0x00\n      add\n      0x04\n      swap1\n      sload\n      swap1\n      0x0100\n      exp\n      swap1\n      div\n      0xffff\n      and\n        /* \"contracts/ERC721TokenContractName.sol\":7812:7858  mintInfo.nRegistrants > mintInfo.currentTokens */\n      0xffff\n      and\n      gt\n        /* \"contracts/ERC721TokenContractName.sol\":7808:9295  if (mintInfo.nRegistrants > mintInfo.currentTokens) {... */\n      iszero\n      tag_153\n      jumpi\n        /* \"contracts/ERC721TokenContractName.sol\":7875:7901  uint48[1201] memory salts_ */\n      0x00\n        /* \"contracts/ERC721TokenContractName.sol\":7904:7912  mintInfo */\n      0x01\n        /* \"contracts/ERC721TokenContractName.sol\":7904:7918  mintInfo.salts */\n      0x04\n      add\n        /* \"contracts/ERC721TokenContractName.sol\":7875:7918  uint48[1201] memory salts_ = mintInfo.salts */\n      0x04b1\n      dup1\n      0x20\n      mul\n      mload(0x40)\n      swap1\n      dup2\n      add\n      0x40\n      mstore\n      dup1\n      swap3\n      swap2\n      swap1\n      dup3\n      0x04b1\n      dup1\n      iszero\n      tag_154\n      jumpi\n      0x20\n      mul\n      dup3\n      add\n      swap2\n      0x00\n      swap1\n    tag_155:\n      dup3\n      dup3\n      swap1\n      sload\n      swap1\n      0x0100\n      exp\n      swap1\n      div\n      0xffffffffffff\n      and\n      0xffffffffffff\n      and\n      dup2\n      mstore\n      0x20\n      add\n      swap1\n      0x06\n      add\n      swap1\n      0x20\n      dup3\n      0x05\n      add\n      div\n      swap3\n      dup4\n      add\n      swap3\n      0x01\n      sub\n      dup3\n      mul\n      swap2\n      pop\n      dup1\n      dup5\n      gt\n      tag_155\n      jumpi\n      swap1\n      pop\n    tag_154:\n      pop\n      pop\n      pop\n      pop\n      pop\n      swap1\n      pop\n        /* \"contracts/ERC721TokenContractName.sol\":7933:7966  address[1201] memory registrants_ */\n      0x00\n        /* \"contracts/ERC721TokenContractName.sol\":7969:7977  mintInfo */\n      0x01\n        /* \"contracts/ERC721TokenContractName.sol\":7969:7989  mintInfo.registrants */\n      0xf5\n      add\n        /* \"contracts/ERC721TokenContractName.sol\":7933:7989  address[1201] memory registrants_ = mintInfo.registrants */\n      0x04b1\n      dup1\n      0x20\n      mul\n      mload(0x40)\n      swap1\n      dup2\n      add\n      0x40\n      mstore\n      dup1\n      swap3\n      swap2\n      swap1\n      dup3\n      0x04b1\n      dup1\n      iszero\n      tag_156\n      jumpi\n      0x20\n      mul\n      dup3\n      add\n      swap2\n    tag_157:\n      dup2\n      0x00\n      swap1\n      sload\n      swap1\n      0x0100\n      exp\n      swap1\n      div\n      0xffffffffffffffffffffffffffffffffffffffff\n      and\n      0xffffffffffffffffffffffffffffffffffffffff\n      and\n      dup2\n      mstore\n      0x20\n      add\n      swap1\n      0x01\n      add\n      swap1\n      dup1\n      dup4\n      gt\n      tag_157\n      jumpi\n    tag_156:\n      pop\n      pop\n      pop\n      pop\n      pop\n      swap1\n      pop\n        /* \"contracts/ERC721TokenContractName.sol\":8004:8023  uint16 remainingReg */\n      0x00\n        /* \"contracts/ERC721TokenContractName.sol\":8050:8058  mintInfo */\n      0x01\n        /* \"contracts/ERC721TokenContractName.sol\":8050:8072  mintInfo.currentTokens */\n      0x00\n      add\n      0x02\n      swap1\n      sload\n      swap1\n      0x0100\n      exp\n      swap1\n      div\n      0xffff\n      and\n        /* \"contracts/ERC721TokenContractName.sol\":8026:8034  mintInfo */\n      0x01\n        /* \"contracts/ERC721TokenContractName.sol\":8026:8047  mintInfo.nRegistrants */\n      0x00\n      add\n      0x04\n      swap1\n      sload\n      swap1\n      0x0100\n      exp\n      swap1\n      div\n      0xffff\n      and\n        /* \"contracts/ERC721TokenContractName.sol\":8026:8072  mintInfo.nRegistrants - mintInfo.currentTokens */\n      tag_158\n      swap2\n      swap1\n      tag_131\n      jump\t// in\n    tag_158:\n        /* \"contracts/ERC721TokenContractName.sol\":8004:8072  uint16 remainingReg = mintInfo.nRegistrants - mintInfo.currentTokens */\n      swap1\n      pop\n        /* \"contracts/ERC721TokenContractName.sol\":8087:8106  uint16 remainingTok */\n      0x00\n        /* \"contracts/ERC721TokenContractName.sol\":8129:8137  mintInfo */\n      0x01\n        /* \"contracts/ERC721TokenContractName.sol\":8129:8151  mintInfo.currentTokens */\n      0x00\n      add\n      0x02\n      swap1\n      sload\n      swap1\n      0x0100\n      exp\n      swap1\n      div\n      0xffff\n      and\n        /* \"contracts/ERC721TokenContractName.sol\":8110:8118  mintInfo */\n      0x01\n        /* \"contracts/ERC721TokenContractName.sol\":8110:8126  mintInfo.maxMint */\n      0x00\n      add\n      0x00\n      swap1\n      sload\n      swap1\n      0x0100\n      exp\n      swap1\n      div\n      0xffff\n      and\n        /* \"contracts/ERC721TokenContractName.sol\":8110:8151  mintInfo.maxMint - mintInfo.currentTokens */\n      tag_159\n      swap2\n      swap1\n      tag_131\n      jump\t// in\n    tag_159:\n        /* \"contracts/ERC721TokenContractName.sol\":8087:8152  uint16 remainingTok = (mintInfo.maxMint - mintInfo.currentTokens) */\n      swap1\n      pop\n        /* \"contracts/ERC721TokenContractName.sol\":8167:8175  uint16 i */\n      0x00\n        /* \"contracts/ERC721TokenContractName.sol\":8180:8188  mintInfo */\n      0x01\n        /* \"contracts/ERC721TokenContractName.sol\":8180:8202  mintInfo.currentTokens */\n      0x00\n      add\n      0x02\n        /* \"contracts/ERC721TokenContractName.sol\":8178:8202  ++mintInfo.currentTokens */\n      dup2\n      dup2\n      swap1\n      sload\n      swap1\n      0x0100\n      exp\n      swap1\n      div\n      0xffff\n      and\n      tag_160\n      swap1\n      tag_161\n      jump\t// in\n    tag_160:\n      swap2\n      swap1\n      0x0100\n      exp\n      dup2\n      sload\n      dup2\n      0xffff\n      mul\n      not\n      and\n      swap1\n      dup4\n      0xffff\n      and\n      mul\n      or\n      swap1\n      sstore\n        /* \"contracts/ERC721TokenContractName.sol\":8167:8202  uint16 i = ++mintInfo.currentTokens */\n      swap1\n      pop\n        /* \"contracts/ERC721TokenContractName.sol\":8217:8236  uint16 nRegistrants */\n      0x00\n        /* \"contracts/ERC721TokenContractName.sol\":8239:8247  mintInfo */\n      0x01\n        /* \"contracts/ERC721TokenContractName.sol\":8239:8260  mintInfo.nRegistrants */\n      0x00\n      add\n      0x04\n      swap1\n      sload\n      swap1\n      0x0100\n      exp\n      swap1\n      div\n      0xffff\n      and\n        /* \"contracts/ERC721TokenContractName.sol\":8217:8260  uint16 nRegistrants = mintInfo.nRegistrants */\n      swap1\n      pop\n        /* \"contracts/ERC721TokenContractName.sol\":8275:8295  uint256 mintTimeSalt */\n      0x00\n        /* \"contracts/ERC721TokenContractName.sol\":8298:8313  block.timestamp */\n      timestamp\n        /* \"contracts/ERC721TokenContractName.sol\":8275:8313  uint256 mintTimeSalt = block.timestamp */\n      swap1\n      pop\n        /* \"contracts/ERC721TokenContractName.sol\":8330:9136  for (i; i <= nRegistrants; i++) {... */\n    tag_162:\n        /* \"contracts/ERC721TokenContractName.sol\":8343:8355  nRegistrants */\n      dup2\n        /* \"contracts/ERC721TokenContractName.sol\":8338:8355  i <= nRegistrants */\n      0xffff\n      and\n        /* \"contracts/ERC721TokenContractName.sol\":8338:8339  i */\n      dup4\n        /* \"contracts/ERC721TokenContractName.sol\":8338:8355  i <= nRegistrants */\n      0xffff\n      and\n      gt\n        /* \"contracts/ERC721TokenContractName.sol\":8330:9136  for (i; i <= nRegistrants; i++) {... */\n      tag_163\n      jumpi\n        /* \"contracts/ERC721TokenContractName.sol\":8381:8394  uint16 index1 */\n      0x00\n        /* \"contracts/ERC721TokenContractName.sol\":8444:8445  i */\n      dup4\n        /* \"contracts/ERC721TokenContractName.sol\":8431:8437  salts_ */\n      dup9\n        /* \"contracts/ERC721TokenContractName.sol\":8438:8439  i */\n      dup6\n        /* \"contracts/ERC721TokenContractName.sol\":8431:8440  salts_[i] */\n      0xffff\n      and\n      0x04b1\n      dup2\n      lt\n      tag_165\n      jumpi\n      tag_166\n      tag_129\n      jump\t// in\n    tag_166:\n    tag_165:\n      0x20\n      mul\n      add\n      mload\n        /* \"contracts/ERC721TokenContractName.sol\":8404:8440  salts_[0] + mintTimeSalt + salts_[i] */\n      0xffffffffffff\n      and\n        /* \"contracts/ERC721TokenContractName.sol\":8416:8428  mintTimeSalt */\n      dup4\n        /* \"contracts/ERC721TokenContractName.sol\":8404:8410  salts_ */\n      dup11\n        /* \"contracts/ERC721TokenContractName.sol\":8411:8412  0 */\n      0x00\n        /* \"contracts/ERC721TokenContractName.sol\":8404:8413  salts_[0] */\n      0x04b1\n      dup2\n      lt\n      tag_167\n      jumpi\n      tag_168\n      tag_129\n      jump\t// in\n    tag_168:\n    tag_167:\n      0x20\n      mul\n      add\n      mload\n        /* \"contracts/ERC721TokenContractName.sol\":8404:8428  salts_[0] + mintTimeSalt */\n      0xffffffffffff\n      and\n      tag_169\n      swap2\n      swap1\n      tag_170\n      jump\t// in\n    tag_169:\n        /* \"contracts/ERC721TokenContractName.sol\":8404:8440  salts_[0] + mintTimeSalt + salts_[i] */\n      tag_171\n      swap2\n      swap1\n      tag_170\n      jump\t// in\n    tag_171:\n        /* \"contracts/ERC721TokenContractName.sol\":8397:8445  uint16(salts_[0] + mintTimeSalt + salts_[i]) % i */\n      tag_172\n      swap2\n      swap1\n      tag_173\n      jump\t// in\n    tag_172:\n        /* \"contracts/ERC721TokenContractName.sol\":8381:8445  uint16 index1 = uint16(salts_[0] + mintTimeSalt + salts_[i]) % i */\n      swap1\n      pop\n        /* \"contracts/ERC721TokenContractName.sol\":8464:8477  uint16 index2 */\n      0x00\n        /* \"contracts/ERC721TokenContractName.sol\":8517:8529  nRegistrants */\n      dup4\n        /* \"contracts/ERC721TokenContractName.sol\":8504:8510  salts_ */\n      dup10\n        /* \"contracts/ERC721TokenContractName.sol\":8511:8512  0 */\n      0x00\n        /* \"contracts/ERC721TokenContractName.sol\":8504:8513  salts_[0] */\n      0x04b1\n      dup2\n      lt\n      tag_174\n      jumpi\n      tag_175\n      tag_129\n      jump\t// in\n    tag_175:\n    tag_174:\n      0x20\n      mul\n      add\n      mload\n        /* \"contracts/ERC721TokenContractName.sol\":8487:8493  salts_ */\n      dup11\n        /* \"contracts/ERC721TokenContractName.sol\":8494:8500  index1 */\n      dup5\n        /* \"contracts/ERC721TokenContractName.sol\":8487:8501  salts_[index1] */\n      0xffff\n      and\n      0x04b1\n      dup2\n      lt\n      tag_176\n      jumpi\n      tag_177\n      tag_129\n      jump\t// in\n    tag_177:\n    tag_176:\n      0x20\n      mul\n      add\n      mload\n        /* \"contracts/ERC721TokenContractName.sol\":8487:8513  salts_[index1] + salts_[0] */\n      tag_178\n      swap2\n      swap1\n      tag_179\n      jump\t// in\n    tag_178:\n        /* \"contracts/ERC721TokenContractName.sol\":8480:8529  uint16(salts_[index1] + salts_[0]) % nRegistrants */\n      tag_180\n      swap2\n      swap1\n      tag_173\n      jump\t// in\n    tag_180:\n        /* \"contracts/ERC721TokenContractName.sol\":8464:8529  uint16 index2 = uint16(salts_[index1] + salts_[0]) % nRegistrants */\n      swap1\n      pop\n        /* \"contracts/ERC721TokenContractName.sol\":8548:8565  uint16 indexOwner */\n      0x00\n        /* \"contracts/ERC721TokenContractName.sol\":8626:8627  i */\n      dup6\n        /* \"contracts/ERC721TokenContractName.sol\":8610:8622  remainingReg */\n      dup9\n        /* \"contracts/ERC721TokenContractName.sol\":8592:8598  salts_ */\n      dup12\n        /* \"contracts/ERC721TokenContractName.sol\":8599:8605  index2 */\n      dup5\n        /* \"contracts/ERC721TokenContractName.sol\":8592:8606  salts_[index2] */\n      0xffff\n      and\n      0x04b1\n      dup2\n      lt\n      tag_181\n      jumpi\n      tag_182\n      tag_129\n      jump\t// in\n    tag_182:\n    tag_181:\n      0x20\n      mul\n      add\n      mload\n        /* \"contracts/ERC721TokenContractName.sol\":8575:8581  salts_ */\n      dup13\n        /* \"contracts/ERC721TokenContractName.sol\":8582:8588  index1 */\n      dup7\n        /* \"contracts/ERC721TokenContractName.sol\":8575:8589  salts_[index1] */\n      0xffff\n      and\n      0x04b1\n      dup2\n      lt\n      tag_183\n      jumpi\n      tag_184\n      tag_129\n      jump\t// in\n    tag_184:\n    tag_183:\n      0x20\n      mul\n      add\n      mload\n        /* \"contracts/ERC721TokenContractName.sol\":8575:8606  salts_[index1] + salts_[index2] */\n      tag_185\n      swap2\n      swap1\n      tag_179\n      jump\t// in\n    tag_185:\n        /* \"contracts/ERC721TokenContractName.sol\":8568:8622  uint16(salts_[index1] + salts_[index2]) % remainingReg */\n      tag_186\n      swap2\n      swap1\n      tag_173\n      jump\t// in\n    tag_186:\n        /* \"contracts/ERC721TokenContractName.sol\":8567:8627  (uint16(salts_[index1] + salts_[index2]) % remainingReg) + i */\n      tag_187\n      swap2\n      swap1\n      tag_188\n      jump\t// in\n    tag_187:\n        /* \"contracts/ERC721TokenContractName.sol\":8548:8627  uint16 indexOwner =(uint16(salts_[index1] + salts_[index2]) % remainingReg) + i */\n      swap1\n      pop\n        /* \"contracts/ERC721TokenContractName.sol\":8646:8659  address owner */\n      0x00\n        /* \"contracts/ERC721TokenContractName.sol\":8662:8674  registrants_ */\n      dup10\n        /* \"contracts/ERC721TokenContractName.sol\":8675:8685  indexOwner */\n      dup3\n        /* \"contracts/ERC721TokenContractName.sol\":8662:8686  registrants_[indexOwner] */\n      0xffff\n      and\n      0x04b1\n      dup2\n      lt\n      tag_189\n      jumpi\n      tag_190\n      tag_129\n      jump\t// in\n    tag_190:\n    tag_189:\n      0x20\n      mul\n      add\n      mload\n        /* \"contracts/ERC721TokenContractName.sol\":8646:8686  address owner = registrants_[indexOwner] */\n      swap1\n      pop\n        /* \"contracts/ERC721TokenContractName.sol\":8732:8744  registrants_ */\n      dup10\n        /* \"contracts/ERC721TokenContractName.sol\":8745:8746  i */\n      dup8\n        /* \"contracts/ERC721TokenContractName.sol\":8732:8747  registrants_[i] */\n      0xffff\n      and\n      0x04b1\n      dup2\n      lt\n      tag_191\n      jumpi\n      tag_192\n      tag_129\n      jump\t// in\n    tag_192:\n    tag_191:\n      0x20\n      mul\n      add\n      mload\n        /* \"contracts/ERC721TokenContractName.sol\":8705:8717  registrants_ */\n      dup11\n        /* \"contracts/ERC721TokenContractName.sol\":8718:8728  indexOwner */\n      dup4\n        /* \"contracts/ERC721TokenContractName.sol\":8705:8729  registrants_[indexOwner] */\n      0xffff\n      and\n      0x04b1\n      dup2\n      lt\n      tag_193\n      jumpi\n      tag_194\n      tag_129\n      jump\t// in\n    tag_194:\n    tag_193:\n      0x20\n      mul\n      add\n        /* \"contracts/ERC721TokenContractName.sol\":8705:8747  registrants_[indexOwner] = registrants_[i] */\n      swap1\n      0xffffffffffffffffffffffffffffffffffffffff\n      and\n      swap1\n      dup2\n      0xffffffffffffffffffffffffffffffffffffffff\n      and\n      dup2\n      mstore\n      pop\n      pop\n        /* \"contracts/ERC721TokenContractName.sol\":8784:8789  owner */\n      dup1\n        /* \"contracts/ERC721TokenContractName.sol\":8766:8778  registrants_ */\n      dup11\n        /* \"contracts/ERC721TokenContractName.sol\":8779:8780  i */\n      dup9\n        /* \"contracts/ERC721TokenContractName.sol\":8766:8781  registrants_[i] */\n      0xffff\n      and\n      0x04b1\n      dup2\n      lt\n      tag_195\n      jumpi\n      tag_196\n      tag_129\n      jump\t// in\n    tag_196:\n    tag_195:\n      0x20\n      mul\n      add\n        /* \"contracts/ERC721TokenContractName.sol\":8766:8789  registrants_[i] = owner */\n      swap1\n      0xffffffffffffffffffffffffffffffffffffffff\n      and\n      swap1\n      dup2\n      0xffffffffffffffffffffffffffffffffffffffff\n      and\n      dup2\n      mstore\n      pop\n      pop\n        /* \"contracts/ERC721TokenContractName.sol\":8810:8827  uint16 indextoken */\n      0x00\n        /* \"contracts/ERC721TokenContractName.sol\":8877:8889  remainingTok */\n      dup9\n        /* \"contracts/ERC721TokenContractName.sol\":8855:8861  salts_ */\n      dup13\n        /* \"contracts/ERC721TokenContractName.sol\":8862:8872  indexOwner */\n      dup5\n        /* \"contracts/ERC721TokenContractName.sol\":8855:8873  salts_[indexOwner] */\n      0xffff\n      and\n      0x04b1\n      dup2\n      lt\n      tag_197\n      jumpi\n      tag_198\n      tag_129\n      jump\t// in\n    tag_198:\n    tag_197:\n      0x20\n      mul\n      add\n      mload\n        /* \"contracts/ERC721TokenContractName.sol\":8838:8844  salts_ */\n      dup14\n        /* \"contracts/ERC721TokenContractName.sol\":8845:8851  index1 */\n      dup8\n        /* \"contracts/ERC721TokenContractName.sol\":8838:8852  salts_[index1] */\n      0xffff\n      and\n      0x04b1\n      dup2\n      lt\n      tag_199\n      jumpi\n      tag_200\n      tag_129\n      jump\t// in\n    tag_200:\n    tag_199:\n      0x20\n      mul\n      add\n      mload\n        /* \"contracts/ERC721TokenContractName.sol\":8838:8873  salts_[index1] + salts_[indexOwner] */\n      tag_201\n      swap2\n      swap1\n      tag_179\n      jump\t// in\n    tag_201:\n        /* \"contracts/ERC721TokenContractName.sol\":8831:8889  uint16(salts_[index1] + salts_[indexOwner]) % remainingTok */\n      tag_202\n      swap2\n      swap1\n      tag_173\n      jump\t// in\n    tag_202:\n        /* \"contracts/ERC721TokenContractName.sol\":8810:8890  uint16 indextoken = (uint16(salts_[index1] + salts_[indexOwner]) % remainingTok) */\n      swap1\n      pop\n        /* \"contracts/ERC721TokenContractName.sol\":8927:8928  0 */\n      0x00\n        /* \"contracts/ERC721TokenContractName.sol\":8913:8923  indextoken */\n      dup2\n        /* \"contracts/ERC721TokenContractName.sol\":8913:8928  indextoken == 0 */\n      0xffff\n      and\n      sub\n        /* \"contracts/ERC721TokenContractName.sol\":8909:8998  if (indextoken == 0) {... */\n      tag_203\n      jumpi\n        /* \"contracts/ERC721TokenContractName.sol\":8966:8978  remainingTok */\n      dup9\n        /* \"contracts/ERC721TokenContractName.sol\":8953:8978  indextoken = remainingTok */\n      swap1\n      pop\n        /* \"contracts/ERC721TokenContractName.sol\":8909:8998  if (indextoken == 0) {... */\n    tag_203:\n        /* \"contracts/ERC721TokenContractName.sol\":9016:9054  _update(owner, indextoken, address(0)) */\n      tag_204\n        /* \"contracts/ERC721TokenContractName.sol\":9024:9029  owner */\n      dup3\n        /* \"contracts/ERC721TokenContractName.sol\":9031:9041  indextoken */\n      dup3\n        /* \"contracts/ERC721TokenContractName.sol\":9051:9052  0 */\n      0x00\n        /* \"contracts/ERC721TokenContractName.sol\":9016:9023  _update */\n      tag_205\n        /* \"contracts/ERC721TokenContractName.sol\":9016:9054  _update(owner, indextoken, address(0)) */\n      jump\t// in\n    tag_204:\n        /* \"contracts/ERC721TokenContractName.sol\":9073:9087  --remainingReg */\n      dup10\n      tag_206\n      swap1\n      tag_207\n      jump\t// in\n    tag_206:\n      swap10\n      pop\n        /* \"contracts/ERC721TokenContractName.sol\":9106:9120  --remainingTok */\n      dup9\n      tag_208\n      swap1\n      tag_207\n      jump\t// in\n    tag_208:\n      swap9\n      pop\n        /* \"contracts/ERC721TokenContractName.sol\":8362:9136  {... */\n      pop\n      pop\n      pop\n      pop\n      pop\n        /* \"contracts/ERC721TokenContractName.sol\":8357:8360  i++ */\n      dup3\n      dup1\n      tag_209\n      swap1\n      tag_161\n      jump\t// in\n    tag_209:\n      swap4\n      pop\n      pop\n        /* \"contracts/ERC721TokenContractName.sol\":8330:9136  for (i; i <= nRegistrants; i++) {... */\n      jump(tag_162)\n    tag_163:\n        /* \"contracts/ERC721TokenContractName.sol\":9177:9185  mintInfo */\n      0x01\n        /* \"contracts/ERC721TokenContractName.sol\":9177:9198  mintInfo.nRegistrants */\n      0x00\n      add\n      0x04\n      swap1\n      sload\n      swap1\n      0x0100\n      exp\n      swap1\n      div\n      0xffff\n      and\n        /* \"contracts/ERC721TokenContractName.sol\":9152:9160  mintInfo */\n      0x01\n        /* \"contracts/ERC721TokenContractName.sol\":9152:9174  mintInfo.currentTokens */\n      0x00\n      add\n      0x02\n        /* \"contracts/ERC721TokenContractName.sol\":9152:9198  mintInfo.currentTokens = mintInfo.nRegistrants */\n      0x0100\n      exp\n      dup2\n      sload\n      dup2\n      0xffff\n      mul\n      not\n      and\n      swap1\n      dup4\n      0xffff\n      and\n      mul\n      or\n      swap1\n      sstore\n      pop\n        /* \"contracts/ERC721TokenContractName.sol\":7860:9210  {... */\n      pop\n      pop\n      pop\n      pop\n      pop\n      pop\n      pop\n        /* \"contracts/ERC721TokenContractName.sol\":7808:9295  if (mintInfo.nRegistrants > mintInfo.currentTokens) {... */\n      jump(tag_210)\n    tag_153:\n        /* \"contracts/ERC721TokenContractName.sol\":9261:9269  mintInfo */\n      0x01\n        /* \"contracts/ERC721TokenContractName.sol\":9261:9282  mintInfo.nRegistrants */\n      0x00\n      add\n      0x04\n      swap1\n      sload\n      swap1\n      0x0100\n      exp\n      swap1\n      div\n      0xffff\n      and\n        /* \"contracts/ERC721TokenContractName.sol\":9238:9283  ERC721NoNewRegistrants(mintInfo.nRegistrants) */\n      mload(0x40)\n      0x72864e7c00000000000000000000000000000000000000000000000000000000\n      dup2\n      mstore\n      0x04\n      add\n      tag_211\n      swap2\n      swap1\n      tag_55\n      jump\t// in\n    tag_211:\n      mload(0x40)\n      dup1\n      swap2\n      sub\n      swap1\n      revert\n        /* \"contracts/ERC721TokenContractName.sol\":7808:9295  if (mintInfo.nRegistrants > mintInfo.currentTokens) {... */\n    tag_210:\n        /* \"contracts/ERC721TokenContractName.sol\":7690:9302  function mint() public {... */\n      jump\t// out\n        /* \"contracts/ERC721TokenContractName.sol\":4041:5038  function transferFrom(address from, address to, uint16 tokenId) public virtual {... */\n    tag_43:\n        /* \"contracts/ERC721TokenContractName.sol\":4150:4151  0 */\n      0x00\n        /* \"contracts/ERC721TokenContractName.sol\":4136:4152  to == address(0) */\n      0xffffffffffffffffffffffffffffffffffffffff\n      and\n        /* \"contracts/ERC721TokenContractName.sol\":4136:4138  to */\n      dup3\n        /* \"contracts/ERC721TokenContractName.sol\":4136:4152  to == address(0) */\n      0xffffffffffffffffffffffffffffffffffffffff\n      and\n      sub\n        /* \"contracts/ERC721TokenContractName.sol\":4132:4221  if (to == address(0)) {... */\n      tag_213\n      jumpi\n        /* \"contracts/ERC721TokenContractName.sol\":4206:4207  0 */\n      0x00\n        /* \"contracts/ERC721TokenContractName.sol\":4176:4209  ERC721InvalidReceiver(address(0)) */\n      mload(0x40)\n      0x64a0ae9200000000000000000000000000000000000000000000000000000000\n      dup2\n      mstore\n      0x04\n      add\n      tag_214\n      swap2\n      swap1\n      tag_62\n      jump\t// in\n    tag_214:\n      mload(0x40)\n      dup1\n      swap2\n      sub\n      swap1\n      revert\n        /* \"contracts/ERC721TokenContractName.sol\":4132:4221  if (to == address(0)) {... */\n    tag_213:\n        /* \"contracts/ERC721TokenContractName.sol\":4233:4254  address previousOwner */\n      0x00\n        /* \"contracts/ERC721TokenContractName.sol\":4257:4279  _requireOwned(tokenId) */\n      tag_215\n        /* \"contracts/ERC721TokenContractName.sol\":4271:4278  tokenId */\n      dup3\n        /* \"contracts/ERC721TokenContractName.sol\":4257:4270  _requireOwned */\n      tag_216\n        /* \"contracts/ERC721TokenContractName.sol\":4257:4279  _requireOwned(tokenId) */\n      jump\t// in\n    tag_215:\n        /* \"contracts/ERC721TokenContractName.sol\":4233:4279  address previousOwner = _requireOwned(tokenId) */\n      swap1\n      pop\n        /* \"contracts/ERC721TokenContractName.sol\":4301:4304  ban */\n      0x0a58\n        /* \"contracts/ERC721TokenContractName.sol\":4305:4312  tokenId */\n      dup3\n        /* \"contracts/ERC721TokenContractName.sol\":4301:4313  ban[tokenId] */\n      0xffff\n      and\n      0x04b1\n      dup2\n      lt\n      tag_217\n      jumpi\n      tag_218\n      tag_129\n      jump\t// in\n    tag_218:\n    tag_217:\n      0x20\n      swap2\n      dup3\n      dup3\n      div\n      add\n      swap2\n      swap1\n      mod\n      swap1\n      sload\n      swap1\n      0x0100\n      exp\n      swap1\n      div\n      0xff\n      and\n        /* \"contracts/ERC721TokenContractName.sol\":4300:4313  !ban[tokenId] */\n      iszero\n        /* \"contracts/ERC721TokenContractName.sol\":4292:4364  require(!ban[tokenId], \"The transfer of this token is currently banned\") */\n      tag_220\n      jumpi\n      mload(0x40)\n      0x08c379a000000000000000000000000000000000000000000000000000000000\n      dup2\n      mstore\n      0x04\n      add\n      tag_221\n      swap1\n      tag_222\n      jump\t// in\n    tag_221:\n      mload(0x40)\n      dup1\n      swap2\n      sub\n      swap1\n      revert\n    tag_220:\n        /* \"contracts/ERC721TokenContractName.sol\":4399:4412  previousOwner */\n      dup1\n        /* \"contracts/ERC721TokenContractName.sol\":4383:4412  _msgSender() == previousOwner */\n      0xffffffffffffffffffffffffffffffffffffffff\n      and\n        /* \"contracts/ERC721TokenContractName.sol\":4383:4395  _msgSender() */\n      tag_223\n        /* \"contracts/ERC721TokenContractName.sol\":4383:4393  _msgSender */\n      tag_119\n        /* \"contracts/ERC721TokenContractName.sol\":4383:4395  _msgSender() */\n      jump\t// in\n    tag_223:\n        /* \"contracts/ERC721TokenContractName.sol\":4383:4412  _msgSender() == previousOwner */\n      0xffffffffffffffffffffffffffffffffffffffff\n      and\n      eq\n        /* \"contracts/ERC721TokenContractName.sol\":4383:4461  _msgSender() == previousOwner || isApprovedForAll(previousOwner, _msgSender()) */\n      dup1\n      tag_224\n      jumpi\n      pop\n        /* \"contracts/ERC721TokenContractName.sol\":4416:4461  isApprovedForAll(previousOwner, _msgSender()) */\n      tag_225\n        /* \"contracts/ERC721TokenContractName.sol\":4433:4446  previousOwner */\n      dup2\n        /* \"contracts/ERC721TokenContractName.sol\":4448:4460  _msgSender() */\n      tag_226\n        /* \"contracts/ERC721TokenContractName.sol\":4448:4458  _msgSender */\n      tag_119\n        /* \"contracts/ERC721TokenContractName.sol\":4448:4460  _msgSender() */\n      jump\t// in\n    tag_226:\n        /* \"contracts/ERC721TokenContractName.sol\":4416:4432  isApprovedForAll */\n      tag_111\n        /* \"contracts/ERC721TokenContractName.sol\":4416:4461  isApprovedForAll(previousOwner, _msgSender()) */\n      jump\t// in\n    tag_225:\n        /* \"contracts/ERC721TokenContractName.sol\":4383:4461  _msgSender() == previousOwner || isApprovedForAll(previousOwner, _msgSender()) */\n    tag_224:\n        /* \"contracts/ERC721TokenContractName.sol\":4383:4501  _msgSender() == previousOwner || isApprovedForAll(previousOwner, _msgSender()) || getApproved(tokenId) == _msgSender() */\n      dup1\n      tag_227\n      jumpi\n      pop\n        /* \"contracts/ERC721TokenContractName.sol\":4489:4501  _msgSender() */\n      tag_228\n        /* \"contracts/ERC721TokenContractName.sol\":4489:4499  _msgSender */\n      tag_119\n        /* \"contracts/ERC721TokenContractName.sol\":4489:4501  _msgSender() */\n      jump\t// in\n    tag_228:\n        /* \"contracts/ERC721TokenContractName.sol\":4465:4501  getApproved(tokenId) == _msgSender() */\n      0xffffffffffffffffffffffffffffffffffffffff\n      and\n        /* \"contracts/ERC721TokenContractName.sol\":4465:4485  getApproved(tokenId) */\n      tag_229\n        /* \"contracts/ERC721TokenContractName.sol\":4477:4484  tokenId */\n      dup4\n        /* \"contracts/ERC721TokenContractName.sol\":4465:4476  getApproved */\n      tag_66\n        /* \"contracts/ERC721TokenContractName.sol\":4465:4485  getApproved(tokenId) */\n      jump\t// in\n    tag_229:\n        /* \"contracts/ERC721TokenContractName.sol\":4465:4501  getApproved(tokenId) == _msgSender() */\n      0xffffffffffffffffffffffffffffffffffffffff\n      and\n      eq\n        /* \"contracts/ERC721TokenContractName.sol\":4383:4501  _msgSender() == previousOwner || isApprovedForAll(previousOwner, _msgSender()) || getApproved(tokenId) == _msgSender() */\n    tag_227:\n        /* \"contracts/ERC721TokenContractName.sol\":4377:4587  if (!(_msgSender() == previousOwner || isApprovedForAll(previousOwner, _msgSender()) || getApproved(tokenId) == _msgSender())) {... */\n      tag_230\n      jumpi\n        /* \"contracts/ERC721TokenContractName.sol\":4553:4565  _msgSender() */\n      tag_231\n        /* \"contracts/ERC721TokenContractName.sol\":4553:4563  _msgSender */\n      tag_119\n        /* \"contracts/ERC721TokenContractName.sol\":4553:4565  _msgSender() */\n      jump\t// in\n    tag_231:\n        /* \"contracts/ERC721TokenContractName.sol\":4567:4574  tokenId */\n      dup3\n        /* \"contracts/ERC721TokenContractName.sol\":4526:4575  ERC721InsufficientApproval(_msgSender(), tokenId) */\n      mload(0x40)\n      0x177e802f00000000000000000000000000000000000000000000000000000000\n      dup2\n      mstore\n      0x04\n      add\n      tag_232\n      swap3\n      swap2\n      swap1\n      tag_233\n      jump\t// in\n    tag_232:\n      mload(0x40)\n      dup1\n      swap2\n      sub\n      swap1\n      revert\n        /* \"contracts/ERC721TokenContractName.sol\":4377:4587  if (!(_msgSender() == previousOwner || isApprovedForAll(previousOwner, _msgSender()) || getApproved(tokenId) == _msgSender())) {... */\n    tag_230:\n        /* \"contracts/ERC721TokenContractName.sol\":4628:4632  from */\n      dup4\n        /* \"contracts/ERC721TokenContractName.sol\":4611:4632  previousOwner != from */\n      0xffffffffffffffffffffffffffffffffffffffff\n      and\n        /* \"contracts/ERC721TokenContractName.sol\":4611:4624  previousOwner */\n      dup2\n        /* \"contracts/ERC721TokenContractName.sol\":4611:4632  previousOwner != from */\n      0xffffffffffffffffffffffffffffffffffffffff\n      and\n      eq\n        /* \"contracts/ERC721TokenContractName.sol\":4607:4718  if (previousOwner != from) {... */\n      tag_234\n      jumpi\n        /* \"contracts/ERC721TokenContractName.sol\":4677:4681  from */\n      dup4\n        /* \"contracts/ERC721TokenContractName.sol\":4683:4690  tokenId */\n      dup3\n        /* \"contracts/ERC721TokenContractName.sol\":4692:4705  previousOwner */\n      dup3\n        /* \"contracts/ERC721TokenContractName.sol\":4656:4706  ERC721IncorrectOwner(from, tokenId, previousOwner) */\n      mload(0x40)\n      0x64283d7b00000000000000000000000000000000000000000000000000000000\n      dup2\n      mstore\n      0x04\n      add\n      tag_235\n      swap4\n      swap3\n      swap2\n      swap1\n      tag_236\n      jump\t// in\n    tag_235:\n      mload(0x40)\n      dup1\n      swap2\n      sub\n      swap1\n      revert\n        /* \"contracts/ERC721TokenContractName.sol\":4607:4718  if (previousOwner != from) {... */\n    tag_234:\n        /* \"contracts/ERC721TokenContractName.sol\":4730:4773  _aprove(address(0), tokenId, previousOwner) */\n      tag_237\n        /* \"contracts/ERC721TokenContractName.sol\":4746:4747  0 */\n      0x00\n        /* \"contracts/ERC721TokenContractName.sol\":4750:4757  tokenId */\n      dup4\n        /* \"contracts/ERC721TokenContractName.sol\":4759:4772  previousOwner */\n      dup4\n        /* \"contracts/ERC721TokenContractName.sol\":4730:4737  _aprove */\n      tag_238\n        /* \"contracts/ERC721TokenContractName.sol\":4730:4773  _aprove(address(0), tokenId, previousOwner) */\n      jump\t// in\n    tag_237:\n        /* \"contracts/ERC721TokenContractName.sol\":4995:5030  _update(to, tokenId, previousOwner) */\n      tag_239\n        /* \"contracts/ERC721TokenContractName.sol\":5003:5005  to */\n      dup4\n        /* \"contracts/ERC721TokenContractName.sol\":5007:5014  tokenId */\n      dup4\n        /* \"contracts/ERC721TokenContractName.sol\":5016:5029  previousOwner */\n      dup4\n        /* \"contracts/ERC721TokenContractName.sol\":4995:5002  _update */\n      tag_205\n        /* \"contracts/ERC721TokenContractName.sol\":4995:5030  _update(to, tokenId, previousOwner) */\n      jump\t// in\n    tag_239:\n        /* \"contracts/ERC721TokenContractName.sol\":4120:5038  {... */\n      pop\n        /* \"contracts/ERC721TokenContractName.sol\":4041:5038  function transferFrom(address from, address to, uint16 tokenId) public virtual {... */\n      pop\n      pop\n      pop\n      jump\t// out\n        /* \"contracts/ERC721TokenContractName.sol\":12151:12208  function stateVoting() public returns(bytes32) {... */\n    tag_46:\n        /* \"contracts/ERC721TokenContractName.sol\":12189:12196  bytes32 */\n      0x00\n        /* \"contracts/ERC721TokenContractName.sol\":12151:12208  function stateVoting() public returns(bytes32) {... */\n      swap1\n      jump\t// out\n        /* \"contracts/ERC721TokenContractName.sol\":2316:2505  function balanceOf(address owner) public view returns (uint16) {... */\n    tag_53:\n        /* \"contracts/ERC721TokenContractName.sol\":2371:2377  uint16 */\n      0x00\n        /* \"contracts/ERC721TokenContractName.sol\":2415:2416  0 */\n      dup1\n        /* \"contracts/ERC721TokenContractName.sol\":2398:2417  owner != address(0) */\n      0xffffffffffffffffffffffffffffffffffffffff\n      and\n        /* \"contracts/ERC721TokenContractName.sol\":2398:2403  owner */\n      dup3\n        /* \"contracts/ERC721TokenContractName.sol\":2398:2417  owner != address(0) */\n      0xffffffffffffffffffffffffffffffffffffffff\n      and\n      sub\n        /* \"contracts/ERC721TokenContractName.sol\":2390:2453  require(owner != address(0),\"The input address cannot be zero\") */\n      tag_242\n      jumpi\n      mload(0x40)\n      0x08c379a000000000000000000000000000000000000000000000000000000000\n      dup2\n      mstore\n      0x04\n      add\n      tag_243\n      swap1\n      tag_244\n      jump\t// in\n    tag_243:\n      mload(0x40)\n      dup1\n      swap2\n      sub\n      swap1\n      revert\n    tag_242:\n        /* \"contracts/ERC721TokenContractName.sol\":2471:2487  _balanceAndTokId */\n      0x0a7e\n        /* \"contracts/ERC721TokenContractName.sol\":2471:2494  _balanceAndTokId[owner] */\n      0x00\n        /* \"contracts/ERC721TokenContractName.sol\":2488:2493  owner */\n      dup4\n        /* \"contracts/ERC721TokenContractName.sol\":2471:2494  _balanceAndTokId[owner] */\n      0xffffffffffffffffffffffffffffffffffffffff\n      and\n      0xffffffffffffffffffffffffffffffffffffffff\n      and\n      dup2\n      mstore\n      0x20\n      add\n      swap1\n      dup2\n      mstore\n      0x20\n      add\n      0x00\n      keccak256\n        /* \"contracts/ERC721TokenContractName.sol\":2495:2496  0 */\n      0x00\n        /* \"contracts/ERC721TokenContractName.sol\":2471:2497  _balanceAndTokId[owner][0] */\n      0x04b1\n      dup2\n      lt\n      tag_245\n      jumpi\n      tag_246\n      tag_129\n      jump\t// in\n    tag_246:\n    tag_245:\n      0x10\n      swap2\n      dup3\n      dup3\n      div\n      add\n      swap2\n      swap1\n      mod\n      0x02\n      mul\n      swap1\n      sload\n      swap1\n      0x0100\n      exp\n      swap1\n      div\n      0xffff\n      and\n        /* \"contracts/ERC721TokenContractName.sol\":2464:2497  return _balanceAndTokId[owner][0] */\n      swap1\n      pop\n        /* \"contracts/ERC721TokenContractName.sol\":2316:2505  function balanceOf(address owner) public view returns (uint16) {... */\n      swap2\n      swap1\n      pop\n      jump\t// out\n        /* \"contracts/ERC721TokenContractName.sol\":2515:2626  function ownerOf(uint16 tokenId) public view returns (address) {... */\n    tag_60:\n        /* \"contracts/ERC721TokenContractName.sol\":2569:2576  address */\n      0x00\n        /* \"contracts/ERC721TokenContractName.sol\":2596:2618  _requireOwned(tokenId) */\n      tag_249\n        /* \"contracts/ERC721TokenContractName.sol\":2610:2617  tokenId */\n      dup3\n        /* \"contracts/ERC721TokenContractName.sol\":2596:2609  _requireOwned */\n      tag_216\n        /* \"contracts/ERC721TokenContractName.sol\":2596:2618  _requireOwned(tokenId) */\n      jump\t// in\n    tag_249:\n        /* \"contracts/ERC721TokenContractName.sol\":2589:2618  return _requireOwned(tokenId) */\n      swap1\n      pop\n        /* \"contracts/ERC721TokenContractName.sol\":2515:2626  function ownerOf(uint16 tokenId) public view returns (address) {... */\n      swap2\n      swap1\n      pop\n      jump\t// out\n        /* \"contracts/ERC721TokenContractName.sol\":3282:3442  function getApproved(uint16 tokenId) public view virtual returns (address) {... */\n    tag_66:\n        /* \"contracts/ERC721TokenContractName.sol\":3348:3355  address */\n      0x00\n        /* \"contracts/ERC721TokenContractName.sol\":3368:3390  _requireOwned(tokenId) */\n      tag_251\n        /* \"contracts/ERC721TokenContractName.sol\":3382:3389  tokenId */\n      dup3\n        /* \"contracts/ERC721TokenContractName.sol\":3368:3381  _requireOwned */\n      tag_216\n        /* \"contracts/ERC721TokenContractName.sol\":3368:3390  _requireOwned(tokenId) */\n      jump\t// in\n    tag_251:\n      pop\n        /* \"contracts/ERC721TokenContractName.sol\":3410:3425  _tokenApprovals */\n      0x0a7f\n        /* \"contracts/ERC721TokenContractName.sol\":3410:3434  _tokenApprovals[tokenId] */\n      0x00\n        /* \"contracts/ERC721TokenContractName.sol\":3426:3433  tokenId */\n      dup4\n        /* \"contracts/ERC721TokenContractName.sol\":3410:3434  _tokenApprovals[tokenId] */\n      0xffff\n      and\n      0xffff\n      and\n      dup2\n      mstore\n      0x20\n      add\n      swap1\n      dup2\n      mstore\n      0x20\n      add\n      0x00\n      keccak256\n      0x00\n      swap1\n      sload\n      swap1\n      0x0100\n      exp\n      swap1\n      div\n      0xffffffffffffffffffffffffffffffffffffffff\n      and\n        /* \"contracts/ERC721TokenContractName.sol\":3403:3434  return _tokenApprovals[tokenId] */\n      swap1\n      pop\n        /* \"contracts/ERC721TokenContractName.sol\":3282:3442  function getApproved(uint16 tokenId) public view virtual returns (address) {... */\n      swap2\n      swap1\n      pop\n      jump\t// out\n        /* \"contracts/ERC721TokenContractName.sol\":2225:2306  function symbol() public view returns (bytes10) {... */\n    tag_70:\n        /* \"contracts/ERC721TokenContractName.sol\":2264:2271  bytes10 */\n      0x00\n        /* \"contracts/ERC721TokenContractName.sol\":2291:2298  _symbol */\n      dup1\n      0x14\n      swap1\n      sload\n      swap1\n      0x0100\n      exp\n      swap1\n      div\n      0xb0\n      shl\n        /* \"contracts/ERC721TokenContractName.sol\":2284:2298  return _symbol */\n      swap1\n      pop\n        /* \"contracts/ERC721TokenContractName.sol\":2225:2306  function symbol() public view returns (bytes10) {... */\n      swap1\n      jump\t// out\n        /* \"contracts/ERC721TokenContractName.sol\":3450:3876  function setApprovalForAll(address operator, bool approved) public {... */\n    tag_77:\n        /* \"contracts/ERC721TokenContractName.sol\":3552:3560  operator */\n      dup2\n        /* \"contracts/ERC721TokenContractName.sol\":3536:3560  _msgSender() != operator */\n      0xffffffffffffffffffffffffffffffffffffffff\n      and\n        /* \"contracts/ERC721TokenContractName.sol\":3536:3548  _msgSender() */\n      tag_254\n        /* \"contracts/ERC721TokenContractName.sol\":3536:3546  _msgSender */\n      tag_119\n        /* \"contracts/ERC721TokenContractName.sol\":3536:3548  _msgSender() */\n      jump\t// in\n    tag_254:\n        /* \"contracts/ERC721TokenContractName.sol\":3536:3560  _msgSender() != operator */\n      0xffffffffffffffffffffffffffffffffffffffff\n      and\n      sub\n        /* \"contracts/ERC721TokenContractName.sol\":3528:3624  require(_msgSender() != operator, \"The address of the owner and the operator must be different\") */\n      tag_255\n      jumpi\n      mload(0x40)\n      0x08c379a000000000000000000000000000000000000000000000000000000000\n      dup2\n      mstore\n      0x04\n      add\n      tag_256\n      swap1\n      tag_257\n      jump\t// in\n    tag_256:\n      mload(0x40)\n      dup1\n      swap2\n      sub\n      swap1\n      revert\n    tag_255:\n        /* \"contracts/ERC721TokenContractName.sol\":3661:3662  0 */\n      0x00\n        /* \"contracts/ERC721TokenContractName.sol\":3641:3663  operator == address(0) */\n      0xffffffffffffffffffffffffffffffffffffffff\n      and\n        /* \"contracts/ERC721TokenContractName.sol\":3641:3649  operator */\n      dup3\n        /* \"contracts/ERC721TokenContractName.sol\":3641:3663  operator == address(0) */\n      0xffffffffffffffffffffffffffffffffffffffff\n      and\n      sub\n        /* \"contracts/ERC721TokenContractName.sol\":3637:3730  if (operator == address(0)) {... */\n      tag_258\n      jumpi\n        /* \"contracts/ERC721TokenContractName.sol\":3709:3717  operator */\n      dup2\n        /* \"contracts/ERC721TokenContractName.sol\":3687:3718  ERC721InvalidOperator(operator) */\n      mload(0x40)\n      0x5b08ba1800000000000000000000000000000000000000000000000000000000\n      dup2\n      mstore\n      0x04\n      add\n      tag_259\n      swap2\n      swap1\n      tag_62\n      jump\t// in\n    tag_259:\n      mload(0x40)\n      dup1\n      swap2\n      sub\n      swap1\n      revert\n        /* \"contracts/ERC721TokenContractName.sol\":3637:3730  if (operator == address(0)) {... */\n    tag_258:\n        /* \"contracts/ERC721TokenContractName.sol\":3795:3803  approved */\n      dup1\n        /* \"contracts/ERC721TokenContractName.sol\":3750:3768  _operatorApprovals */\n      0x0a80\n        /* \"contracts/ERC721TokenContractName.sol\":3750:3782  _operatorApprovals[_msgSender()] */\n      0x00\n        /* \"contracts/ERC721TokenContractName.sol\":3769:3781  _msgSender() */\n      tag_260\n        /* \"contracts/ERC721TokenContractName.sol\":3769:3779  _msgSender */\n      tag_119\n        /* \"contracts/ERC721TokenContractName.sol\":3769:3781  _msgSender() */\n      jump\t// in\n    tag_260:\n        /* \"contracts/ERC721TokenContractName.sol\":3750:3782  _operatorApprovals[_msgSender()] */\n      0xffffffffffffffffffffffffffffffffffffffff\n      and\n      0xffffffffffffffffffffffffffffffffffffffff\n      and\n      dup2\n      mstore\n      0x20\n      add\n      swap1\n      dup2\n      mstore\n      0x20\n      add\n      0x00\n      keccak256\n        /* \"contracts/ERC721TokenContractName.sol\":3750:3792  _operatorApprovals[_msgSender()][operator] */\n      0x00\n        /* \"contracts/ERC721TokenContractName.sol\":3783:3791  operator */\n      dup5\n        /* \"contracts/ERC721TokenContractName.sol\":3750:3792  _operatorApprovals[_msgSender()][operator] */\n      0xffffffffffffffffffffffffffffffffffffffff\n      and\n      0xffffffffffffffffffffffffffffffffffffffff\n      and\n      dup2\n      mstore\n      0x20\n      add\n      swap1\n      dup2\n      mstore\n      0x20\n      add\n      0x00\n      keccak256\n      0x00\n        /* \"contracts/ERC721TokenContractName.sol\":3750:3803  _operatorApprovals[_msgSender()][operator] = approved */\n      0x0100\n      exp\n      dup2\n      sload\n      dup2\n      0xff\n      mul\n      not\n      and\n      swap1\n      dup4\n      iszero\n      iszero\n      mul\n      or\n      swap1\n      sstore\n      pop\n        /* \"contracts/ERC721TokenContractName.sol\":3849:3857  operator */\n      dup2\n        /* \"contracts/ERC721TokenContractName.sol\":3820:3868  ApprovalForAll(_msgSender(), operator, approved) */\n      0xffffffffffffffffffffffffffffffffffffffff\n      and\n        /* \"contracts/ERC721TokenContractName.sol\":3835:3847  _msgSender() */\n      tag_261\n        /* \"contracts/ERC721TokenContractName.sol\":3835:3845  _msgSender */\n      tag_119\n        /* \"contracts/ERC721TokenContractName.sol\":3835:3847  _msgSender() */\n      jump\t// in\n    tag_261:\n        /* \"contracts/ERC721TokenContractName.sol\":3820:3868  ApprovalForAll(_msgSender(), operator, approved) */\n      0xffffffffffffffffffffffffffffffffffffffff\n      and\n      0x17307eab39ab6107e8899845ad3d59bd9653f200f220920489ca2b5937696c31\n        /* \"contracts/ERC721TokenContractName.sol\":3859:3867  approved */\n      dup4\n        /* \"contracts/ERC721TokenContractName.sol\":3820:3868  ApprovalForAll(_msgSender(), operator, approved) */\n      mload(0x40)\n      tag_262\n      swap2\n      swap1\n      tag_113\n      jump\t// in\n    tag_262:\n      mload(0x40)\n      dup1\n      swap2\n      sub\n      swap1\n      log3\n        /* \"contracts/ERC721TokenContractName.sol\":3450:3876  function setApprovalForAll(address operator, bool approved) public {... */\n      pop\n      pop\n      jump\t// out\n        /* \"contracts/ERC721TokenContractName.sol\":5187:5397  function safeTransferFrom(address from, address to, uint16 tokenId, bytes memory data) public virtual {... */\n    tag_82:\n        /* \"contracts/ERC721TokenContractName.sol\":5300:5331  transferFrom(from, to, tokenId) */\n      tag_264\n        /* \"contracts/ERC721TokenContractName.sol\":5313:5317  from */\n      dup5\n        /* \"contracts/ERC721TokenContractName.sol\":5319:5321  to */\n      dup5\n        /* \"contracts/ERC721TokenContractName.sol\":5323:5330  tokenId */\n      dup5\n        /* \"contracts/ERC721TokenContractName.sol\":5300:5312  transferFrom */\n      tag_43\n        /* \"contracts/ERC721TokenContractName.sol\":5300:5331  transferFrom(from, to, tokenId) */\n      jump\t// in\n    tag_264:\n        /* \"contracts/ERC721TokenContractName.sol\":5342:5389  _checkOnERC721Received(from, to, tokenId, data) */\n      tag_265\n        /* \"contracts/ERC721TokenContractName.sol\":5365:5369  from */\n      dup5\n        /* \"contracts/ERC721TokenContractName.sol\":5371:5373  to */\n      dup5\n        /* \"contracts/ERC721TokenContractName.sol\":5375:5382  tokenId */\n      dup5\n        /* \"contracts/ERC721TokenContractName.sol\":5384:5388  data */\n      dup5\n        /* \"contracts/ERC721TokenContractName.sol\":5342:5364  _checkOnERC721Received */\n      tag_266\n        /* \"contracts/ERC721TokenContractName.sol\":5342:5389  _checkOnERC721Received(from, to, tokenId, data) */\n      jump\t// in\n    tag_265:\n        /* \"contracts/ERC721TokenContractName.sol\":5187:5397  function safeTransferFrom(address from, address to, uint16 tokenId, bytes memory data) public virtual {... */\n      pop\n      pop\n      pop\n      pop\n      jump\t// out\n        /* \"contracts/ERC721TokenContractName.sol\":11880:12045  function onERC721Received(... */\n    tag_87:\n        /* \"contracts/ERC721TokenContractName.sol\":12036:12042  bytes4 */\n      0x00\n        /* \"contracts/ERC721TokenContractName.sol\":11880:12045  function onERC721Received(... */\n      swap6\n      swap5\n      pop\n      pop\n      pop\n      pop\n      pop\n      jump\t// out\n        /* \"contracts/ERC721TokenContractName.sol\":6755:7682  function setRegister(uint48 salt_) public payable returns (bytes memory) { // accsesemit barash benevis baraye tasir gozari dar dastresi... */\n    tag_93:\n        /* \"contracts/ERC721TokenContractName.sol\":6814:6826  bytes memory */\n      0x60\n        /* \"contracts/ERC721TokenContractName.sol\":6934:6942  mintInfo */\n      0x01\n        /* \"contracts/ERC721TokenContractName.sol\":6934:6950  mintInfo.maxMint */\n      0x00\n      add\n      0x00\n      swap1\n      sload\n      swap1\n      0x0100\n      exp\n      swap1\n      div\n      0xffff\n      and\n        /* \"contracts/ERC721TokenContractName.sol\":6909:6950  mintInfo.nRegistrants <= mintInfo.maxMint */\n      0xffff\n      and\n        /* \"contracts/ERC721TokenContractName.sol\":6909:6917  mintInfo */\n      0x01\n        /* \"contracts/ERC721TokenContractName.sol\":6909:6930  mintInfo.nRegistrants */\n      0x00\n      add\n      0x04\n      swap1\n      sload\n      swap1\n      0x0100\n      exp\n      swap1\n      div\n      0xffff\n      and\n        /* \"contracts/ERC721TokenContractName.sol\":6909:6950  mintInfo.nRegistrants <= mintInfo.maxMint */\n      0xffff\n      and\n      gt\n      iszero\n        /* \"contracts/ERC721TokenContractName.sol\":6909:7003  mintInfo.nRegistrants <= mintInfo.maxMint && mintInfo.registrationStartTime <= block.timestamp */\n      dup1\n      iszero\n      tag_269\n      jumpi\n      pop\n        /* \"contracts/ERC721TokenContractName.sol\":6988:7003  block.timestamp */\n      timestamp\n        /* \"contracts/ERC721TokenContractName.sol\":6954:6962  mintInfo */\n      0x01\n        /* \"contracts/ERC721TokenContractName.sol\":6954:6984  mintInfo.registrationStartTime */\n      0x02\n      add\n      sload\n        /* \"contracts/ERC721TokenContractName.sol\":6954:7003  mintInfo.registrationStartTime <= block.timestamp */\n      gt\n      iszero\n        /* \"contracts/ERC721TokenContractName.sol\":6909:7003  mintInfo.nRegistrants <= mintInfo.maxMint && mintInfo.registrationStartTime <= block.timestamp */\n    tag_269:\n        /* \"contracts/ERC721TokenContractName.sol\":6901:7042  require(mintInfo.nRegistrants <= mintInfo.maxMint && mintInfo.registrationStartTime <= block.timestamp, \"It is not possible to register now\") */\n      tag_270\n      jumpi\n      mload(0x40)\n      0x08c379a000000000000000000000000000000000000000000000000000000000\n      dup2\n      mstore\n      0x04\n      add\n      tag_271\n      swap1\n      tag_272\n      jump\t// in\n    tag_271:\n      mload(0x40)\n      dup1\n      swap2\n      sub\n      swap1\n      revert\n    tag_270:\n        /* \"contracts/ERC721TokenContractName.sol\":7085:7086  0 */\n      0x00\n        /* \"contracts/ERC721TokenContractName.sol\":7061:7087  _msgSender() != address(0) */\n      0xffffffffffffffffffffffffffffffffffffffff\n      and\n        /* \"contracts/ERC721TokenContractName.sol\":7061:7073  _msgSender() */\n      tag_273\n        /* \"contracts/ERC721TokenContractName.sol\":7061:7071  _msgSender */\n      tag_119\n        /* \"contracts/ERC721TokenContractName.sol\":7061:7073  _msgSender() */\n      jump\t// in\n    tag_273:\n        /* \"contracts/ERC721TokenContractName.sol\":7061:7087  _msgSender() != address(0) */\n      0xffffffffffffffffffffffffffffffffffffffff\n      and\n      eq\n      iszero\n        /* \"contracts/ERC721TokenContractName.sol\":7061:7120  _msgSender() != address(0) && _msgSender().code.length == 0 */\n      dup1\n      iszero\n      tag_274\n      jumpi\n      pop\n        /* \"contracts/ERC721TokenContractName.sol\":7119:7120  0 */\n      0x00\n        /* \"contracts/ERC721TokenContractName.sol\":7091:7103  _msgSender() */\n      tag_275\n        /* \"contracts/ERC721TokenContractName.sol\":7091:7101  _msgSender */\n      tag_119\n        /* \"contracts/ERC721TokenContractName.sol\":7091:7103  _msgSender() */\n      jump\t// in\n    tag_275:\n        /* \"contracts/ERC721TokenContractName.sol\":7091:7115  _msgSender().code.length */\n      0xffffffffffffffffffffffffffffffffffffffff\n      and\n      extcodesize\n        /* \"contracts/ERC721TokenContractName.sol\":7091:7120  _msgSender().code.length == 0 */\n      eq\n        /* \"contracts/ERC721TokenContractName.sol\":7061:7120  _msgSender() != address(0) && _msgSender().code.length == 0 */\n    tag_274:\n        /* \"contracts/ERC721TokenContractName.sol\":7053:7196  require(_msgSender() != address(0) && _msgSender().code.length == 0,\"The address of the registrant must not be 0 or the address of a contract\") */\n      tag_276\n      jumpi\n      mload(0x40)\n      0x08c379a000000000000000000000000000000000000000000000000000000000\n      dup2\n      mstore\n      0x04\n      add\n      tag_277\n      swap1\n      tag_278\n      jump\t// in\n    tag_277:\n      mload(0x40)\n      dup1\n      swap2\n      sub\n      swap1\n      revert\n    tag_276:\n        /* \"contracts/ERC721TokenContractName.sol\":7228:7236  mintInfo */\n      0x01\n        /* \"contracts/ERC721TokenContractName.sol\":7228:7246  mintInfo.mintPrice */\n      0x03\n      add\n      sload\n        /* \"contracts/ERC721TokenContractName.sol\":7215:7224  msg.value */\n      callvalue\n        /* \"contracts/ERC721TokenContractName.sol\":7215:7246  msg.value >= mintInfo.mintPrice */\n      lt\n      iszero\n        /* \"contracts/ERC721TokenContractName.sol\":7207:7300  require(msg.value >= mintInfo.mintPrice, \"The amount should not be less than the mint price\") */\n      tag_279\n      jumpi\n      mload(0x40)\n      0x08c379a000000000000000000000000000000000000000000000000000000000\n      dup2\n      mstore\n      0x04\n      add\n      tag_280\n      swap1\n      tag_281\n      jump\t// in\n    tag_280:\n      mload(0x40)\n      dup1\n      swap2\n      sub\n      swap1\n      revert\n    tag_279:\n        /* \"contracts/ERC721TokenContractName.sol\":7314:7323  bool paid */\n      0x00\n        /* \"contracts/ERC721TokenContractName.sol\":7325:7342  bytes memory data */\n      dup1\n        /* \"contracts/ERC721TokenContractName.sol\":7346:7354  mintInfo */\n      0x01\n        /* \"contracts/ERC721TokenContractName.sol\":7346:7366  mintInfo.bankAddress */\n      dup1\n      add\n      0x00\n      swap1\n      sload\n      swap1\n      0x0100\n      exp\n      swap1\n      div\n      0xffffffffffffffffffffffffffffffffffffffff\n      and\n        /* \"contracts/ERC721TokenContractName.sol\":7346:7371  mintInfo.bankAddress.call */\n      0xffffffffffffffffffffffffffffffffffffffff\n      and\n        /* \"contracts/ERC721TokenContractName.sol\":7380:7389  msg.value */\n      callvalue\n        /* \"contracts/ERC721TokenContractName.sol\":7346:7394  mintInfo.bankAddress.call{value : msg.value}(\"\") */\n      mload(0x40)\n      tag_282\n      swap1\n      tag_283\n      jump\t// in\n    tag_282:\n      0x00\n      mload(0x40)\n      dup1\n      dup4\n      sub\n      dup2\n      dup6\n      dup8\n      gas\n      call\n      swap3\n      pop\n      pop\n      pop\n      returndatasize\n      dup1\n      0x00\n      dup2\n      eq\n      tag_286\n      jumpi\n      mload(0x40)\n      swap2\n      pop\n      and(add(returndatasize, 0x3f), not(0x1f))\n      dup3\n      add\n      0x40\n      mstore\n      returndatasize\n      dup3\n      mstore\n      returndatasize\n      0x00\n      0x20\n      dup5\n      add\n      returndatacopy\n      jump(tag_285)\n    tag_286:\n      0x60\n      swap2\n      pop\n    tag_285:\n      pop\n        /* \"contracts/ERC721TokenContractName.sol\":7313:7394  (bool paid, bytes memory data) = mintInfo.bankAddress.call{value : msg.value}(\"\") */\n      swap2\n      pop\n      swap2\n      pop\n        /* \"contracts/ERC721TokenContractName.sol\":7413:7417  paid */\n      dup2\n        /* \"contracts/ERC721TokenContractName.sol\":7405:7445  require(paid, \"The amount was not sent\") */\n      tag_287\n      jumpi\n      mload(0x40)\n      0x08c379a000000000000000000000000000000000000000000000000000000000\n      dup2\n      mstore\n      0x04\n      add\n      tag_288\n      swap1\n      tag_289\n      jump\t// in\n    tag_288:\n      mload(0x40)\n      dup1\n      swap2\n      sub\n      swap1\n      revert\n    tag_287:\n        /* \"contracts/ERC721TokenContractName.sol\":7460:7468  mintInfo */\n      0x01\n        /* \"contracts/ERC721TokenContractName.sol\":7460:7481  mintInfo.nRegistrants */\n      0x00\n      add\n      0x04\n        /* \"contracts/ERC721TokenContractName.sol\":7458:7481  ++mintInfo.nRegistrants */\n      dup2\n      dup2\n      swap1\n      sload\n      swap1\n      0x0100\n      exp\n      swap1\n      div\n      0xffff\n      and\n      tag_290\n      swap1\n      tag_161\n      jump\t// in\n    tag_290:\n      swap2\n      swap1\n      0x0100\n      exp\n      dup2\n      sload\n      dup2\n      0xffff\n      mul\n      not\n      and\n      swap1\n      dup4\n      0xffff\n      and\n      mul\n      or\n      swap1\n      sstore\n      pop\n        /* \"contracts/ERC721TokenContractName.sol\":7532:7537  salt_ */\n      dup4\n        /* \"contracts/ERC721TokenContractName.sol\":7492:7500  mintInfo */\n      0x01\n        /* \"contracts/ERC721TokenContractName.sol\":7492:7506  mintInfo.salts */\n      0x04\n      add\n        /* \"contracts/ERC721TokenContractName.sol\":7507:7515  mintInfo */\n      0x01\n        /* \"contracts/ERC721TokenContractName.sol\":7507:7528  mintInfo.nRegistrants */\n      0x00\n      add\n      0x04\n      swap1\n      sload\n      swap1\n      0x0100\n      exp\n      swap1\n      div\n      0xffff\n      and\n        /* \"contracts/ERC721TokenContractName.sol\":7492:7529  mintInfo.salts[mintInfo.nRegistrants] */\n      0xffff\n      and\n      0x04b1\n      dup2\n      lt\n      tag_291\n      jumpi\n      tag_292\n      tag_129\n      jump\t// in\n    tag_292:\n    tag_291:\n      0x05\n      swap2\n      dup3\n      dup3\n      div\n      add\n      swap2\n      swap1\n      mod\n      0x06\n      mul\n        /* \"contracts/ERC721TokenContractName.sol\":7492:7537  mintInfo.salts[mintInfo.nRegistrants] = salt_ */\n      0x0100\n      exp\n      dup2\n      sload\n      dup2\n      0xffffffffffff\n      mul\n      not\n      and\n      swap1\n      dup4\n      0xffffffffffff\n      and\n      mul\n      or\n      swap1\n      sstore\n      pop\n        /* \"contracts/ERC721TokenContractName.sol\":7569:7574  salt_ */\n      dup4\n        /* \"contracts/ERC721TokenContractName.sol\":7548:7556  mintInfo */\n      0x01\n        /* \"contracts/ERC721TokenContractName.sol\":7548:7562  mintInfo.salts */\n      0x04\n      add\n        /* \"contracts/ERC721TokenContractName.sol\":7563:7564  0 */\n      0x00\n        /* \"contracts/ERC721TokenContractName.sol\":7548:7565  mintInfo.salts[0] */\n      0x04b1\n      dup2\n      lt\n      tag_294\n      jumpi\n      tag_295\n      tag_129\n      jump\t// in\n    tag_295:\n    tag_294:\n      0x05\n      swap2\n      dup3\n      dup3\n      div\n      add\n      swap2\n      swap1\n      mod\n      0x06\n      mul\n        /* \"contracts/ERC721TokenContractName.sol\":7548:7574  mintInfo.salts[0] += salt_ */\n      dup3\n      dup3\n      dup3\n      swap1\n      sload\n      swap1\n      0x0100\n      exp\n      swap1\n      div\n      0xffffffffffff\n      and\n      tag_297\n      swap2\n      swap1\n      tag_179\n      jump\t// in\n    tag_297:\n      swap3\n      pop\n      0x0100\n      exp\n      dup2\n      sload\n      dup2\n      0xffffffffffff\n      mul\n      not\n      and\n      swap1\n      dup4\n      0xffffffffffff\n      and\n      mul\n      or\n      swap1\n      sstore\n      pop\n        /* \"contracts/ERC721TokenContractName.sol\":7630:7642  _msgSender() */\n      tag_298\n        /* \"contracts/ERC721TokenContractName.sol\":7630:7640  _msgSender */\n      tag_119\n        /* \"contracts/ERC721TokenContractName.sol\":7630:7642  _msgSender() */\n      jump\t// in\n    tag_298:\n        /* \"contracts/ERC721TokenContractName.sol\":7585:7593  mintInfo */\n      0x01\n        /* \"contracts/ERC721TokenContractName.sol\":7585:7605  mintInfo.registrants */\n      0xf5\n      add\n        /* \"contracts/ERC721TokenContractName.sol\":7606:7614  mintInfo */\n      0x01\n        /* \"contracts/ERC721TokenContractName.sol\":7606:7627  mintInfo.nRegistrants */\n      0x00\n      add\n      0x04\n      swap1\n      sload\n      swap1\n      0x0100\n      exp\n      swap1\n      div\n      0xffff\n      and\n        /* \"contracts/ERC721TokenContractName.sol\":7585:7628  mintInfo.registrants[mintInfo.nRegistrants] */\n      0xffff\n      and\n      0x04b1\n      dup2\n      lt\n      tag_299\n      jumpi\n      tag_300\n      tag_129\n      jump\t// in\n    tag_300:\n    tag_299:\n      add\n      0x00\n        /* \"contracts/ERC721TokenContractName.sol\":7585:7642  mintInfo.registrants[mintInfo.nRegistrants] =_msgSender() */\n      0x0100\n      exp\n      dup2\n      sload\n      dup2\n      0xffffffffffffffffffffffffffffffffffffffff\n      mul\n      not\n      and\n      swap1\n      dup4\n      0xffffffffffffffffffffffffffffffffffffffff\n      and\n      mul\n      or\n      swap1\n      sstore\n      pop\n        /* \"contracts/ERC721TokenContractName.sol\":7670:7674  data */\n      dup1\n        /* \"contracts/ERC721TokenContractName.sol\":7663:7674  return data */\n      swap3\n      pop\n      pop\n      pop\n        /* \"contracts/ERC721TokenContractName.sol\":6755:7682  function setRegister(uint48 salt_) public payable returns (bytes memory) { // accsesemit barash benevis baraye tasir gozari dar dastresi... */\n      swap2\n      swap1\n      pop\n      jump\t// out\n        /* \"contracts/ERC721TokenContractName.sol\":2636:2876  function tokenURI(uint16 tokenId) public view returns (string memory) {... */\n    tag_99:\n        /* \"contracts/ERC721TokenContractName.sol\":2691:2704  string memory */\n      0x60\n        /* \"contracts/ERC721TokenContractName.sol\":2717:2739  _requireOwned(tokenId) */\n      tag_303\n        /* \"contracts/ERC721TokenContractName.sol\":2731:2738  tokenId */\n      dup3\n        /* \"contracts/ERC721TokenContractName.sol\":2717:2730  _requireOwned */\n      tag_216\n        /* \"contracts/ERC721TokenContractName.sol\":2717:2739  _requireOwned(tokenId) */\n      jump\t// in\n    tag_303:\n      pop\n        /* \"contracts/ERC721TokenContractName.sol\":2750:2768  string memory base */\n      0x00\n        /* \"contracts/ERC721TokenContractName.sol\":2771:2781  _baseURI() */\n      tag_304\n        /* \"contracts/ERC721TokenContractName.sol\":2771:2779  _baseURI */\n      tag_305\n        /* \"contracts/ERC721TokenContractName.sol\":2771:2781  _baseURI() */\n      jump\t// in\n    tag_304:\n        /* \"contracts/ERC721TokenContractName.sol\":2750:2781  string memory base = _baseURI() */\n      swap1\n      pop\n        /* \"contracts/ERC721TokenContractName.sol\":2820:2821  0 */\n      0x00\n        /* \"contracts/ERC721TokenContractName.sol\":2805:2809  base */\n      dup2\n        /* \"contracts/ERC721TokenContractName.sol\":2799:2817  bytes(base).length */\n      mload\n        /* \"contracts/ERC721TokenContractName.sol\":2799:2821  bytes(base).length > 0 */\n      gt\n        /* \"contracts/ERC721TokenContractName.sol\":2799:2868  bytes(base).length > 0 ? string.concat(base, tokenId.toString()) : \"\" */\n      tag_306\n      jumpi\n      mload(0x40)\n      dup1\n      0x20\n      add\n      0x40\n      mstore\n      dup1\n      0x00\n      dup2\n      mstore\n      pop\n      jump(tag_307)\n    tag_306:\n        /* \"contracts/ERC721TokenContractName.sol\":2838:2842  base */\n      dup1\n        /* \"contracts/ERC721TokenContractName.sol\":2844:2862  tokenId.toString() */\n      tag_308\n        /* \"contracts/ERC721TokenContractName.sol\":2844:2851  tokenId */\n      dup5\n        /* \"contracts/ERC721TokenContractName.sol\":2844:2860  tokenId.toString */\n      0xffff\n      and\n      tag_309\n        /* \"contracts/ERC721TokenContractName.sol\":2844:2862  tokenId.toString() */\n      jump\t// in\n    tag_308:\n        /* \"contracts/ERC721TokenContractName.sol\":2824:2863  string.concat(base, tokenId.toString()) */\n      add(0x20, mload(0x40))\n      tag_310\n      swap3\n      swap2\n      swap1\n      tag_311\n      jump\t// in\n    tag_310:\n      mload(0x40)\n      0x20\n      dup2\n      dup4\n      sub\n      sub\n      dup2\n      mstore\n      swap1\n      0x40\n      mstore\n        /* \"contracts/ERC721TokenContractName.sol\":2799:2868  bytes(base).length > 0 ? string.concat(base, tokenId.toString()) : \"\" */\n    tag_307:\n        /* \"contracts/ERC721TokenContractName.sol\":2792:2868  return bytes(base).length > 0 ? string.concat(base, tokenId.toString()) : \"\" */\n      swap2\n      pop\n      pop\n        /* \"contracts/ERC721TokenContractName.sol\":2636:2876  function tokenURI(uint16 tokenId) public view returns (string memory) {... */\n      swap2\n      swap1\n      pop\n      jump\t// out\n        /* \"contracts/ERC721TokenContractName.sol\":2886:3274  function approve(address to, uint16 tokenId) public {... */\n    tag_106:\n        /* \"contracts/ERC721TokenContractName.sol\":2949:2962  address owner */\n      0x00\n        /* \"contracts/ERC721TokenContractName.sol\":2965:2987  _requireOwned(tokenId) */\n      tag_313\n        /* \"contracts/ERC721TokenContractName.sol\":2979:2986  tokenId */\n      dup3\n        /* \"contracts/ERC721TokenContractName.sol\":2965:2978  _requireOwned */\n      tag_216\n        /* \"contracts/ERC721TokenContractName.sol\":2965:2987  _requireOwned(tokenId) */\n      jump\t// in\n    tag_313:\n        /* \"contracts/ERC721TokenContractName.sol\":2949:2987  address owner = _requireOwned(tokenId) */\n      swap1\n      pop\n        /* \"contracts/ERC721TokenContractName.sol\":3017:3019  to */\n      dup3\n        /* \"contracts/ERC721TokenContractName.sol\":3008:3019  owner != to */\n      0xffffffffffffffffffffffffffffffffffffffff\n      and\n        /* \"contracts/ERC721TokenContractName.sol\":3008:3013  owner */\n      dup2\n        /* \"contracts/ERC721TokenContractName.sol\":3008:3019  owner != to */\n      0xffffffffffffffffffffffffffffffffffffffff\n      and\n      sub\n        /* \"contracts/ERC721TokenContractName.sol\":3000:3083  require(owner != to, \"The address of the owner and the operator must be different\") */\n      tag_314\n      jumpi\n      mload(0x40)\n      0x08c379a000000000000000000000000000000000000000000000000000000000\n      dup2\n      mstore\n      0x04\n      add\n      tag_315\n      swap1\n      tag_257\n      jump\t// in\n    tag_315:\n      mload(0x40)\n      dup1\n      swap2\n      sub\n      swap1\n      revert\n    tag_314:\n        /* \"contracts/ERC721TokenContractName.sol\":3108:3120  _msgSender() */\n      tag_316\n        /* \"contracts/ERC721TokenContractName.sol\":3108:3118  _msgSender */\n      tag_119\n        /* \"contracts/ERC721TokenContractName.sol\":3108:3120  _msgSender() */\n      jump\t// in\n    tag_316:\n        /* \"contracts/ERC721TokenContractName.sol\":3099:3120  owner != _msgSender() */\n      0xffffffffffffffffffffffffffffffffffffffff\n      and\n        /* \"contracts/ERC721TokenContractName.sol\":3099:3104  owner */\n      dup2\n        /* \"contracts/ERC721TokenContractName.sol\":3099:3120  owner != _msgSender() */\n      0xffffffffffffffffffffffffffffffffffffffff\n      and\n      eq\n      iszero\n        /* \"contracts/ERC721TokenContractName.sol\":3099:3162  owner != _msgSender() && !isApprovedForAll(owner, _msgSender()) */\n      dup1\n      iszero\n      tag_317\n      jumpi\n      pop\n        /* \"contracts/ERC721TokenContractName.sol\":3125:3162  isApprovedForAll(owner, _msgSender()) */\n      tag_318\n        /* \"contracts/ERC721TokenContractName.sol\":3142:3147  owner */\n      dup2\n        /* \"contracts/ERC721TokenContractName.sol\":3149:3161  _msgSender() */\n      tag_319\n        /* \"contracts/ERC721TokenContractName.sol\":3149:3159  _msgSender */\n      tag_119\n        /* \"contracts/ERC721TokenContractName.sol\":3149:3161  _msgSender() */\n      jump\t// in\n    tag_319:\n        /* \"contracts/ERC721TokenContractName.sol\":3125:3141  isApprovedForAll */\n      tag_111\n        /* \"contracts/ERC721TokenContractName.sol\":3125:3162  isApprovedForAll(owner, _msgSender()) */\n      jump\t// in\n    tag_318:\n        /* \"contracts/ERC721TokenContractName.sol\":3124:3162  !isApprovedForAll(owner, _msgSender()) */\n      iszero\n        /* \"contracts/ERC721TokenContractName.sol\":3099:3162  owner != _msgSender() && !isApprovedForAll(owner, _msgSender()) */\n    tag_317:\n        /* \"contracts/ERC721TokenContractName.sol\":3095:3227  if (owner != _msgSender() && !isApprovedForAll(owner, _msgSender())){... */\n      iszero\n      tag_320\n      jumpi\n        /* \"contracts/ERC721TokenContractName.sol\":3203:3215  _msgSender() */\n      tag_321\n        /* \"contracts/ERC721TokenContractName.sol\":3203:3213  _msgSender */\n      tag_119\n        /* \"contracts/ERC721TokenContractName.sol\":3203:3215  _msgSender() */\n      jump\t// in\n    tag_321:\n        /* \"contracts/ERC721TokenContractName.sol\":3181:3216  ERC721InvalidApprover(_msgSender()) */\n      mload(0x40)\n      0xa9fbf51f00000000000000000000000000000000000000000000000000000000\n      dup2\n      mstore\n      0x04\n      add\n      tag_322\n      swap2\n      swap1\n      tag_62\n      jump\t// in\n    tag_322:\n      mload(0x40)\n      dup1\n      swap2\n      sub\n      swap1\n      revert\n        /* \"contracts/ERC721TokenContractName.sol\":3095:3227  if (owner != _msgSender() && !isApprovedForAll(owner, _msgSender())){... */\n    tag_320:\n        /* \"contracts/ERC721TokenContractName.sol\":3239:3266  _aprove(to, tokenId, owner) */\n      tag_323\n        /* \"contracts/ERC721TokenContractName.sol\":3247:3249  to */\n      dup4\n        /* \"contracts/ERC721TokenContractName.sol\":3251:3258  tokenId */\n      dup4\n        /* \"contracts/ERC721TokenContractName.sol\":3260:3265  owner */\n      dup4\n        /* \"contracts/ERC721TokenContractName.sol\":3239:3246  _aprove */\n      tag_238\n        /* \"contracts/ERC721TokenContractName.sol\":3239:3266  _aprove(to, tokenId, owner) */\n      jump\t// in\n    tag_323:\n        /* \"contracts/ERC721TokenContractName.sol\":2938:3274  {... */\n      pop\n        /* \"contracts/ERC721TokenContractName.sol\":2886:3274  function approve(address to, uint16 tokenId) public {... */\n      pop\n      pop\n      jump\t// out\n        /* \"contracts/ERC721TokenContractName.sol\":3886:4033  function isApprovedForAll(address owner, address operator) public view returns (bool) {... */\n    tag_111:\n        /* \"contracts/ERC721TokenContractName.sol\":3966:3970  bool */\n      0x00\n        /* \"contracts/ERC721TokenContractName.sol\":3990:4008  _operatorApprovals */\n      0x0a80\n        /* \"contracts/ERC721TokenContractName.sol\":3990:4015  _operatorApprovals[owner] */\n      0x00\n        /* \"contracts/ERC721TokenContractName.sol\":4009:4014  owner */\n      dup5\n        /* \"contracts/ERC721TokenContractName.sol\":3990:4015  _operatorApprovals[owner] */\n      0xffffffffffffffffffffffffffffffffffffffff\n      and\n      0xffffffffffffffffffffffffffffffffffffffff\n      and\n      dup2\n      mstore\n      0x20\n      add\n      swap1\n      dup2\n      mstore\n      0x20\n      add\n      0x00\n      keccak256\n        /* \"contracts/ERC721TokenContractName.sol\":3990:4025  _operatorApprovals[owner][operator] */\n      0x00\n        /* \"contracts/ERC721TokenContractName.sol\":4016:4024  operator */\n      dup4\n        /* \"contracts/ERC721TokenContractName.sol\":3990:4025  _operatorApprovals[owner][operator] */\n      0xffffffffffffffffffffffffffffffffffffffff\n      and\n      0xffffffffffffffffffffffffffffffffffffffff\n      and\n      dup2\n      mstore\n      0x20\n      add\n      swap1\n      dup2\n      mstore\n      0x20\n      add\n      0x00\n      keccak256\n      0x00\n      swap1\n      sload\n      swap1\n      0x0100\n      exp\n      swap1\n      div\n      0xff\n      and\n        /* \"contracts/ERC721TokenContractName.sol\":3983:4025  return _operatorApprovals[owner][operator] */\n      swap1\n      pop\n        /* \"contracts/ERC721TokenContractName.sol\":3886:4033  function isApprovedForAll(address owner, address operator) public view returns (bool) {... */\n      swap3\n      swap2\n      pop\n      pop\n      jump\t// out\n        /* \"@openzeppelin/contracts/utils/Context.sol\":656:752  function _msgSender() internal view virtual returns (address) {... */\n    tag_119:\n        /* \"@openzeppelin/contracts/utils/Context.sol\":709:716  address */\n      0x00\n        /* \"@openzeppelin/contracts/utils/Context.sol\":735:745  msg.sender */\n      caller\n        /* \"@openzeppelin/contracts/utils/Context.sol\":728:745  return msg.sender */\n      swap1\n      pop\n        /* \"@openzeppelin/contracts/utils/Context.sol\":656:752  function _msgSender() internal view virtual returns (address) {... */\n      swap1\n      jump\t// out\n        /* \"contracts/ERC721TokenContractName.sol\":12061:12119  function setStateVoting(bytes32 state) internal {... */\n    tag_143:\n      pop\n      jump\t// out\n        /* \"contracts/ERC721TokenContractName.sol\":9312:10379  function _update(address to, uint16 tokenId, address from) private {... */\n    tag_205:\n        /* \"contracts/ERC721TokenContractName.sol\":9390:9411  uint16 preBalanceFrom */\n      0x00\n        /* \"contracts/ERC721TokenContractName.sol\":9414:9430  _balanceAndTokId */\n      0x0a7e\n        /* \"contracts/ERC721TokenContractName.sol\":9414:9436  _balanceAndTokId[from] */\n      0x00\n        /* \"contracts/ERC721TokenContractName.sol\":9431:9435  from */\n      dup4\n        /* \"contracts/ERC721TokenContractName.sol\":9414:9436  _balanceAndTokId[from] */\n      0xffffffffffffffffffffffffffffffffffffffff\n      and\n      0xffffffffffffffffffffffffffffffffffffffff\n      and\n      dup2\n      mstore\n      0x20\n      add\n      swap1\n      dup2\n      mstore\n      0x20\n      add\n      0x00\n      keccak256\n        /* \"contracts/ERC721TokenContractName.sol\":9437:9438  0 */\n      0x00\n        /* \"contracts/ERC721TokenContractName.sol\":9414:9439  _balanceAndTokId[from][0] */\n      0x04b1\n      dup2\n      lt\n      tag_328\n      jumpi\n      tag_329\n      tag_129\n      jump\t// in\n    tag_329:\n    tag_328:\n      0x10\n      swap2\n      dup3\n      dup3\n      div\n      add\n      swap2\n      swap1\n      mod\n      0x02\n      mul\n      swap1\n      sload\n      swap1\n      0x0100\n      exp\n      swap1\n      div\n      0xffff\n      and\n        /* \"contracts/ERC721TokenContractName.sol\":9390:9439  uint16 preBalanceFrom = _balanceAndTokId[from][0] */\n      swap1\n      pop\n        /* \"contracts/ERC721TokenContractName.sol\":9469:9470  0 */\n      0x00\n        /* \"contracts/ERC721TokenContractName.sol\":9453:9471  from != address(0) */\n      0xffffffffffffffffffffffffffffffffffffffff\n      and\n        /* \"contracts/ERC721TokenContractName.sol\":9453:9457  from */\n      dup3\n        /* \"contracts/ERC721TokenContractName.sol\":9453:9471  from != address(0) */\n      0xffffffffffffffffffffffffffffffffffffffff\n      and\n      eq\n        /* \"contracts/ERC721TokenContractName.sol\":9449:10031  if (from != address(0)) {... */\n      tag_331\n      jumpi\n        /* \"contracts/ERC721TokenContractName.sol\":9489:9497  uint16 i */\n      0x00\n        /* \"contracts/ERC721TokenContractName.sol\":9500:9501  1 */\n      0x01\n        /* \"contracts/ERC721TokenContractName.sol\":9489:9501  uint16 i = 1 */\n      swap1\n      pop\n        /* \"contracts/ERC721TokenContractName.sol\":9484:9721  for (uint16 i = 1; i <= preBalanceFrom; i++) {... */\n    tag_332:\n        /* \"contracts/ERC721TokenContractName.sol\":9508:9522  preBalanceFrom */\n      dup2\n        /* \"contracts/ERC721TokenContractName.sol\":9503:9522  i <= preBalanceFrom */\n      0xffff\n      and\n        /* \"contracts/ERC721TokenContractName.sol\":9503:9504  i */\n      dup2\n        /* \"contracts/ERC721TokenContractName.sol\":9503:9522  i <= preBalanceFrom */\n      0xffff\n      and\n      gt\n        /* \"contracts/ERC721TokenContractName.sol\":9484:9721  for (uint16 i = 1; i <= preBalanceFrom; i++) {... */\n      tag_333\n      jumpi\n        /* \"contracts/ERC721TokenContractName.sol\":9577:9584  tokenId */\n      dup4\n        /* \"contracts/ERC721TokenContractName.sol\":9548:9584  _balanceAndTokId[from][i] == tokenId */\n      0xffff\n      and\n        /* \"contracts/ERC721TokenContractName.sol\":9548:9564  _balanceAndTokId */\n      0x0a7e\n        /* \"contracts/ERC721TokenContractName.sol\":9548:9570  _balanceAndTokId[from] */\n      0x00\n        /* \"contracts/ERC721TokenContractName.sol\":9565:9569  from */\n      dup6\n        /* \"contracts/ERC721TokenContractName.sol\":9548:9570  _balanceAndTokId[from] */\n      0xffffffffffffffffffffffffffffffffffffffff\n      and\n      0xffffffffffffffffffffffffffffffffffffffff\n      and\n      dup2\n      mstore\n      0x20\n      add\n      swap1\n      dup2\n      mstore\n      0x20\n      add\n      0x00\n      keccak256\n        /* \"contracts/ERC721TokenContractName.sol\":9571:9572  i */\n      dup3\n        /* \"contracts/ERC721TokenContractName.sol\":9548:9573  _balanceAndTokId[from][i] */\n      0xffff\n      and\n      0x04b1\n      dup2\n      lt\n      tag_335\n      jumpi\n      tag_336\n      tag_129\n      jump\t// in\n    tag_336:\n    tag_335:\n      0x10\n      swap2\n      dup3\n      dup3\n      div\n      add\n      swap2\n      swap1\n      mod\n      0x02\n      mul\n      swap1\n      sload\n      swap1\n      0x0100\n      exp\n      swap1\n      div\n      0xffff\n      and\n        /* \"contracts/ERC721TokenContractName.sol\":9548:9584  _balanceAndTokId[from][i] == tokenId */\n      0xffff\n      and\n      sub\n        /* \"contracts/ERC721TokenContractName.sol\":9544:9710  if (_balanceAndTokId[from][i] == tokenId) {... */\n      tag_338\n      jumpi\n        /* \"contracts/ERC721TokenContractName.sol\":9633:9649  _balanceAndTokId */\n      0x0a7e\n        /* \"contracts/ERC721TokenContractName.sol\":9633:9655  _balanceAndTokId[from] */\n      0x00\n        /* \"contracts/ERC721TokenContractName.sol\":9650:9654  from */\n      dup5\n        /* \"contracts/ERC721TokenContractName.sol\":9633:9655  _balanceAndTokId[from] */\n      0xffffffffffffffffffffffffffffffffffffffff\n      and\n      0xffffffffffffffffffffffffffffffffffffffff\n      and\n      dup2\n      mstore\n      0x20\n      add\n      swap1\n      dup2\n      mstore\n      0x20\n      add\n      0x00\n      keccak256\n        /* \"contracts/ERC721TokenContractName.sol\":9656:9670  preBalanceFrom */\n      dup3\n        /* \"contracts/ERC721TokenContractName.sol\":9633:9671  _balanceAndTokId[from][preBalanceFrom] */\n      0xffff\n      and\n      0x04b1\n      dup2\n      lt\n      tag_339\n      jumpi\n      tag_340\n      tag_129\n      jump\t// in\n    tag_340:\n    tag_339:\n      0x10\n      swap2\n      dup3\n      dup3\n      div\n      add\n      swap2\n      swap1\n      mod\n      0x02\n      mul\n      swap1\n      sload\n      swap1\n      0x0100\n      exp\n      swap1\n      div\n      0xffff\n      and\n        /* \"contracts/ERC721TokenContractName.sol\":9605:9621  _balanceAndTokId */\n      0x0a7e\n        /* \"contracts/ERC721TokenContractName.sol\":9605:9627  _balanceAndTokId[from] */\n      0x00\n        /* \"contracts/ERC721TokenContractName.sol\":9622:9626  from */\n      dup6\n        /* \"contracts/ERC721TokenContractName.sol\":9605:9627  _balanceAndTokId[from] */\n      0xffffffffffffffffffffffffffffffffffffffff\n      and\n      0xffffffffffffffffffffffffffffffffffffffff\n      and\n      dup2\n      mstore\n      0x20\n      add\n      swap1\n      dup2\n      mstore\n      0x20\n      add\n      0x00\n      keccak256\n        /* \"contracts/ERC721TokenContractName.sol\":9628:9629  i */\n      dup3\n        /* \"contracts/ERC721TokenContractName.sol\":9605:9630  _balanceAndTokId[from][i] */\n      0xffff\n      and\n      0x04b1\n      dup2\n      lt\n      tag_342\n      jumpi\n      tag_343\n      tag_129\n      jump\t// in\n    tag_343:\n    tag_342:\n      0x10\n      swap2\n      dup3\n      dup3\n      div\n      add\n      swap2\n      swap1\n      mod\n      0x02\n      mul\n        /* \"contracts/ERC721TokenContractName.sol\":9605:9671  _balanceAndTokId[from][i] = _balanceAndTokId[from][preBalanceFrom] */\n      0x0100\n      exp\n      dup2\n      sload\n      dup2\n      0xffff\n      mul\n      not\n      and\n      swap1\n      dup4\n      0xffff\n      and\n      mul\n      or\n      swap1\n      sstore\n      pop\n        /* \"contracts/ERC721TokenContractName.sol\":9690:9695  break */\n      jump(tag_333)\n        /* \"contracts/ERC721TokenContractName.sol\":9544:9710  if (_balanceAndTokId[from][i] == tokenId) {... */\n    tag_338:\n        /* \"contracts/ERC721TokenContractName.sol\":9524:9527  i++ */\n      dup1\n      dup1\n      tag_345\n      swap1\n      tag_161\n      jump\t// in\n    tag_345:\n      swap2\n      pop\n      pop\n        /* \"contracts/ERC721TokenContractName.sol\":9484:9721  for (uint16 i = 1; i <= preBalanceFrom; i++) {... */\n      jump(tag_332)\n    tag_333:\n      pop\n        /* \"contracts/ERC721TokenContractName.sol\":9449:10031  if (from != address(0)) {... */\n      jump(tag_346)\n    tag_331:\n        /* \"contracts/ERC721TokenContractName.sol\":9750:9762  uint16 index */\n      0x00\n        /* \"contracts/ERC721TokenContractName.sol\":9765:9772  tokenId */\n      dup4\n        /* \"contracts/ERC721TokenContractName.sol\":9750:9772  uint16 index = tokenId */\n      swap1\n      pop\n        /* \"contracts/ERC721TokenContractName.sol\":9793:9809  _balanceAndTokId */\n      0x0a7e\n        /* \"contracts/ERC721TokenContractName.sol\":9793:9815  _balanceAndTokId[from] */\n      0x00\n        /* \"contracts/ERC721TokenContractName.sol\":9810:9814  from */\n      dup5\n        /* \"contracts/ERC721TokenContractName.sol\":9793:9815  _balanceAndTokId[from] */\n      0xffffffffffffffffffffffffffffffffffffffff\n      and\n      0xffffffffffffffffffffffffffffffffffffffff\n      and\n      dup2\n      mstore\n      0x20\n      add\n      swap1\n      dup2\n      mstore\n      0x20\n      add\n      0x00\n      keccak256\n        /* \"contracts/ERC721TokenContractName.sol\":9816:9821  index */\n      dup2\n        /* \"contracts/ERC721TokenContractName.sol\":9793:9822  _balanceAndTokId[from][index] */\n      0xffff\n      and\n      0x04b1\n      dup2\n      lt\n      tag_347\n      jumpi\n      tag_348\n      tag_129\n      jump\t// in\n    tag_348:\n    tag_347:\n      0x10\n      swap2\n      dup3\n      dup3\n      div\n      add\n      swap2\n      swap1\n      mod\n      0x02\n      mul\n      swap1\n      sload\n      swap1\n      0x0100\n      exp\n      swap1\n      div\n      0xffff\n      and\n        /* \"contracts/ERC721TokenContractName.sol\":9783:9822  tokenId = _balanceAndTokId[from][index] */\n      swap4\n      pop\n        /* \"contracts/ERC721TokenContractName.sol\":9865:9866  0 */\n      0x00\n        /* \"contracts/ERC721TokenContractName.sol\":9837:9867  _owners[tokenId] != address(0) */\n      0xffffffffffffffffffffffffffffffffffffffff\n      and\n        /* \"contracts/ERC721TokenContractName.sol\":9837:9844  _owners */\n      0x05a7\n        /* \"contracts/ERC721TokenContractName.sol\":9845:9852  tokenId */\n      dup6\n        /* \"contracts/ERC721TokenContractName.sol\":9837:9853  _owners[tokenId] */\n      0xffff\n      and\n      0x04b1\n      dup2\n      lt\n      tag_350\n      jumpi\n      tag_351\n      tag_129\n      jump\t// in\n    tag_351:\n    tag_350:\n      add\n      0x00\n      swap1\n      sload\n      swap1\n      0x0100\n      exp\n      swap1\n      div\n      0xffffffffffffffffffffffffffffffffffffffff\n      and\n        /* \"contracts/ERC721TokenContractName.sol\":9837:9867  _owners[tokenId] != address(0) */\n      0xffffffffffffffffffffffffffffffffffffffff\n      and\n      eq\n        /* \"contracts/ERC721TokenContractName.sol\":9833:9940  if (_owners[tokenId] != address(0)) {... */\n      tag_353\n      jumpi\n        /* \"contracts/ERC721TokenContractName.sol\":9922:9927  index */\n      dup1\n        /* \"contracts/ERC721TokenContractName.sol\":9891:9928  Erc721InvalidTokenInNewTokenId(index) */\n      mload(0x40)\n      0x71e52b9c00000000000000000000000000000000000000000000000000000000\n      dup2\n      mstore\n      0x04\n      add\n      tag_354\n      swap2\n      swap1\n      tag_55\n      jump\t// in\n    tag_354:\n      mload(0x40)\n      dup1\n      swap2\n      sub\n      swap1\n      revert\n        /* \"contracts/ERC721TokenContractName.sol\":9833:9940  if (_owners[tokenId] != address(0)) {... */\n    tag_353:\n        /* \"contracts/ERC721TokenContractName.sol\":9982:9998  _balanceAndTokId */\n      0x0a7e\n        /* \"contracts/ERC721TokenContractName.sol\":9982:10004  _balanceAndTokId[from] */\n      0x00\n        /* \"contracts/ERC721TokenContractName.sol\":9999:10003  from */\n      dup5\n        /* \"contracts/ERC721TokenContractName.sol\":9982:10004  _balanceAndTokId[from] */\n      0xffffffffffffffffffffffffffffffffffffffff\n      and\n      0xffffffffffffffffffffffffffffffffffffffff\n      and\n      dup2\n      mstore\n      0x20\n      add\n      swap1\n      dup2\n      mstore\n      0x20\n      add\n      0x00\n      keccak256\n        /* \"contracts/ERC721TokenContractName.sol\":10005:10019  preBalanceFrom */\n      dup3\n        /* \"contracts/ERC721TokenContractName.sol\":9982:10020  _balanceAndTokId[from][preBalanceFrom] */\n      0xffff\n      and\n      0x04b1\n      dup2\n      lt\n      tag_355\n      jumpi\n      tag_356\n      tag_129\n      jump\t// in\n    tag_356:\n    tag_355:\n      0x10\n      swap2\n      dup3\n      dup3\n      div\n      add\n      swap2\n      swap1\n      mod\n      0x02\n      mul\n      swap1\n      sload\n      swap1\n      0x0100\n      exp\n      swap1\n      div\n      0xffff\n      and\n        /* \"contracts/ERC721TokenContractName.sol\":9950:9966  _balanceAndTokId */\n      0x0a7e\n        /* \"contracts/ERC721TokenContractName.sol\":9950:9972  _balanceAndTokId[from] */\n      0x00\n        /* \"contracts/ERC721TokenContractName.sol\":9967:9971  from */\n      dup6\n        /* \"contracts/ERC721TokenContractName.sol\":9950:9972  _balanceAndTokId[from] */\n      0xffffffffffffffffffffffffffffffffffffffff\n      and\n      0xffffffffffffffffffffffffffffffffffffffff\n      and\n      dup2\n      mstore\n      0x20\n      add\n      swap1\n      dup2\n      mstore\n      0x20\n      add\n      0x00\n      keccak256\n        /* \"contracts/ERC721TokenContractName.sol\":9973:9978  index */\n      dup3\n        /* \"contracts/ERC721TokenContractName.sol\":9950:9979  _balanceAndTokId[from][index] */\n      0xffff\n      and\n      0x04b1\n      dup2\n      lt\n      tag_358\n      jumpi\n      tag_359\n      tag_129\n      jump\t// in\n    tag_359:\n    tag_358:\n      0x10\n      swap2\n      dup3\n      dup3\n      div\n      add\n      swap2\n      swap1\n      mod\n      0x02\n      mul\n        /* \"contracts/ERC721TokenContractName.sol\":9950:10020  _balanceAndTokId[from][index] = _balanceAndTokId[from][preBalanceFrom] */\n      0x0100\n      exp\n      dup2\n      sload\n      dup2\n      0xffff\n      mul\n      not\n      and\n      swap1\n      dup4\n      0xffff\n      and\n      mul\n      or\n      swap1\n      sstore\n      pop\n        /* \"contracts/ERC721TokenContractName.sol\":9739:10031  {... */\n      pop\n        /* \"contracts/ERC721TokenContractName.sol\":9449:10031  if (from != address(0)) {... */\n    tag_346:\n        /* \"contracts/ERC721TokenContractName.sol\":10084:10085  0 */\n      0x00\n        /* \"contracts/ERC721TokenContractName.sol\":10043:10059  _balanceAndTokId */\n      0x0a7e\n        /* \"contracts/ERC721TokenContractName.sol\":10043:10065  _balanceAndTokId[from] */\n      0x00\n        /* \"contracts/ERC721TokenContractName.sol\":10060:10064  from */\n      dup5\n        /* \"contracts/ERC721TokenContractName.sol\":10043:10065  _balanceAndTokId[from] */\n      0xffffffffffffffffffffffffffffffffffffffff\n      and\n      0xffffffffffffffffffffffffffffffffffffffff\n      and\n      dup2\n      mstore\n      0x20\n      add\n      swap1\n      dup2\n      mstore\n      0x20\n      add\n      0x00\n      keccak256\n        /* \"contracts/ERC721TokenContractName.sol\":10066:10080  preBalanceFrom */\n      dup3\n        /* \"contracts/ERC721TokenContractName.sol\":10043:10081  _balanceAndTokId[from][preBalanceFrom] */\n      0xffff\n      and\n      0x04b1\n      dup2\n      lt\n      tag_361\n      jumpi\n      tag_362\n      tag_129\n      jump\t// in\n    tag_362:\n    tag_361:\n      0x10\n      swap2\n      dup3\n      dup3\n      div\n      add\n      swap2\n      swap1\n      mod\n      0x02\n      mul\n        /* \"contracts/ERC721TokenContractName.sol\":10043:10085  _balanceAndTokId[from][preBalanceFrom] = 0 */\n      0x0100\n      exp\n      dup2\n      sload\n      dup2\n      0xffff\n      mul\n      not\n      and\n      swap1\n      dup4\n      0xffff\n      and\n      mul\n      or\n      swap1\n      sstore\n      pop\n        /* \"contracts/ERC721TokenContractName.sol\":10125:10126  1 */\n      0x01\n        /* \"contracts/ERC721TokenContractName.sol\":10096:10112  _balanceAndTokId */\n      0x0a7e\n        /* \"contracts/ERC721TokenContractName.sol\":10096:10118  _balanceAndTokId[from] */\n      0x00\n        /* \"contracts/ERC721TokenContractName.sol\":10113:10117  from */\n      dup5\n        /* \"contracts/ERC721TokenContractName.sol\":10096:10118  _balanceAndTokId[from] */\n      0xffffffffffffffffffffffffffffffffffffffff\n      and\n      0xffffffffffffffffffffffffffffffffffffffff\n      and\n      dup2\n      mstore\n      0x20\n      add\n      swap1\n      dup2\n      mstore\n      0x20\n      add\n      0x00\n      keccak256\n        /* \"contracts/ERC721TokenContractName.sol\":10119:10120  0 */\n      0x00\n        /* \"contracts/ERC721TokenContractName.sol\":10096:10121  _balanceAndTokId[from][0] */\n      0x04b1\n      dup2\n      lt\n      tag_364\n      jumpi\n      tag_365\n      tag_129\n      jump\t// in\n    tag_365:\n    tag_364:\n      0x10\n      swap2\n      dup3\n      dup3\n      div\n      add\n      swap2\n      swap1\n      mod\n      0x02\n      mul\n        /* \"contracts/ERC721TokenContractName.sol\":10096:10126  _balanceAndTokId[from][0] -= 1 */\n      dup3\n      dup3\n      dup3\n      swap1\n      sload\n      swap1\n      0x0100\n      exp\n      swap1\n      div\n      0xffff\n      and\n      tag_367\n      swap2\n      swap1\n      tag_131\n      jump\t// in\n    tag_367:\n      swap3\n      pop\n      0x0100\n      exp\n      dup2\n      sload\n      dup2\n      0xffff\n      mul\n      not\n      and\n      swap1\n      dup4\n      0xffff\n      and\n      mul\n      or\n      swap1\n      sstore\n      pop\n        /* \"contracts/ERC721TokenContractName.sol\":10139:10158  uint16 newBalanceTo */\n      0x00\n        /* \"contracts/ERC721TokenContractName.sol\":10188:10189  1 */\n      0x01\n        /* \"contracts/ERC721TokenContractName.sol\":10162:10178  _balanceAndTokId */\n      0x0a7e\n        /* \"contracts/ERC721TokenContractName.sol\":10162:10182  _balanceAndTokId[to] */\n      0x00\n        /* \"contracts/ERC721TokenContractName.sol\":10179:10181  to */\n      dup8\n        /* \"contracts/ERC721TokenContractName.sol\":10162:10182  _balanceAndTokId[to] */\n      0xffffffffffffffffffffffffffffffffffffffff\n      and\n      0xffffffffffffffffffffffffffffffffffffffff\n      and\n      dup2\n      mstore\n      0x20\n      add\n      swap1\n      dup2\n      mstore\n      0x20\n      add\n      0x00\n      keccak256\n        /* \"contracts/ERC721TokenContractName.sol\":10183:10184  0 */\n      0x00\n        /* \"contracts/ERC721TokenContractName.sol\":10162:10185  _balanceAndTokId[to][0] */\n      0x04b1\n      dup2\n      lt\n      tag_368\n      jumpi\n      tag_369\n      tag_129\n      jump\t// in\n    tag_369:\n    tag_368:\n      0x10\n      swap2\n      dup3\n      dup3\n      div\n      add\n      swap2\n      swap1\n      mod\n      0x02\n      mul\n      swap1\n      sload\n      swap1\n      0x0100\n      exp\n      swap1\n      div\n      0xffff\n      and\n        /* \"contracts/ERC721TokenContractName.sol\":10162:10189  _balanceAndTokId[to][0] + 1 */\n      tag_371\n      swap2\n      swap1\n      tag_188\n      jump\t// in\n    tag_371:\n        /* \"contracts/ERC721TokenContractName.sol\":10139:10190  uint16 newBalanceTo = (_balanceAndTokId[to][0] + 1) */\n      swap1\n      pop\n        /* \"contracts/ERC721TokenContractName.sol\":10238:10245  tokenId */\n      dup4\n        /* \"contracts/ERC721TokenContractName.sol\":10201:10217  _balanceAndTokId */\n      0x0a7e\n        /* \"contracts/ERC721TokenContractName.sol\":10201:10221  _balanceAndTokId[to] */\n      0x00\n        /* \"contracts/ERC721TokenContractName.sol\":10218:10220  to */\n      dup8\n        /* \"contracts/ERC721TokenContractName.sol\":10201:10221  _balanceAndTokId[to] */\n      0xffffffffffffffffffffffffffffffffffffffff\n      and\n      0xffffffffffffffffffffffffffffffffffffffff\n      and\n      dup2\n      mstore\n      0x20\n      add\n      swap1\n      dup2\n      mstore\n      0x20\n      add\n      0x00\n      keccak256\n        /* \"contracts/ERC721TokenContractName.sol\":10222:10234  newBalanceTo */\n      dup3\n        /* \"contracts/ERC721TokenContractName.sol\":10201:10235  _balanceAndTokId[to][newBalanceTo] */\n      0xffff\n      and\n      0x04b1\n      dup2\n      lt\n      tag_372\n      jumpi\n      tag_373\n      tag_129\n      jump\t// in\n    tag_373:\n    tag_372:\n      0x10\n      swap2\n      dup3\n      dup3\n      div\n      add\n      swap2\n      swap1\n      mod\n      0x02\n      mul\n        /* \"contracts/ERC721TokenContractName.sol\":10201:10245  _balanceAndTokId[to][newBalanceTo] = tokenId */\n      0x0100\n      exp\n      dup2\n      sload\n      dup2\n      0xffff\n      mul\n      not\n      and\n      swap1\n      dup4\n      0xffff\n      and\n      mul\n      or\n      swap1\n      sstore\n      pop\n        /* \"contracts/ERC721TokenContractName.sol\":10282:10294  newBalanceTo */\n      dup1\n        /* \"contracts/ERC721TokenContractName.sol\":10256:10272  _balanceAndTokId */\n      0x0a7e\n        /* \"contracts/ERC721TokenContractName.sol\":10256:10276  _balanceAndTokId[to] */\n      0x00\n        /* \"contracts/ERC721TokenContractName.sol\":10273:10275  to */\n      dup8\n        /* \"contracts/ERC721TokenContractName.sol\":10256:10276  _balanceAndTokId[to] */\n      0xffffffffffffffffffffffffffffffffffffffff\n      and\n      0xffffffffffffffffffffffffffffffffffffffff\n      and\n      dup2\n      mstore\n      0x20\n      add\n      swap1\n      dup2\n      mstore\n      0x20\n      add\n      0x00\n      keccak256\n        /* \"contracts/ERC721TokenContractName.sol\":10277:10278  0 */\n      0x00\n        /* \"contracts/ERC721TokenContractName.sol\":10256:10279  _balanceAndTokId[to][0] */\n      0x04b1\n      dup2\n      lt\n      tag_375\n      jumpi\n      tag_376\n      tag_129\n      jump\t// in\n    tag_376:\n    tag_375:\n      0x10\n      swap2\n      dup3\n      dup3\n      div\n      add\n      swap2\n      swap1\n      mod\n      0x02\n      mul\n        /* \"contracts/ERC721TokenContractName.sol\":10256:10294  _balanceAndTokId[to][0] = newBalanceTo */\n      0x0100\n      exp\n      dup2\n      sload\n      dup2\n      0xffff\n      mul\n      not\n      and\n      swap1\n      dup4\n      0xffff\n      and\n      mul\n      or\n      swap1\n      sstore\n      pop\n        /* \"contracts/ERC721TokenContractName.sol\":10326:10328  to */\n      dup5\n        /* \"contracts/ERC721TokenContractName.sol\":10307:10314  _owners */\n      0x05a7\n        /* \"contracts/ERC721TokenContractName.sol\":10315:10322  tokenId */\n      dup6\n        /* \"contracts/ERC721TokenContractName.sol\":10307:10323  _owners[tokenId] */\n      0xffff\n      and\n      0x04b1\n      dup2\n      lt\n      tag_378\n      jumpi\n      tag_379\n      tag_129\n      jump\t// in\n    tag_379:\n    tag_378:\n      add\n      0x00\n        /* \"contracts/ERC721TokenContractName.sol\":10307:10328  _owners[tokenId] = to */\n      0x0100\n      exp\n      dup2\n      sload\n      dup2\n      0xffffffffffffffffffffffffffffffffffffffff\n      mul\n      not\n      and\n      swap1\n      dup4\n      0xffffffffffffffffffffffffffffffffffffffff\n      and\n      mul\n      or\n      swap1\n      sstore\n      pop\n        /* \"contracts/ERC721TokenContractName.sol\":10363:10370  tokenId */\n      dup4\n        /* \"contracts/ERC721TokenContractName.sol\":10344:10371  Transfer(from, to, tokenId) */\n      0xffff\n      and\n        /* \"contracts/ERC721TokenContractName.sol\":10359:10361  to */\n      dup6\n        /* \"contracts/ERC721TokenContractName.sol\":10344:10371  Transfer(from, to, tokenId) */\n      0xffffffffffffffffffffffffffffffffffffffff\n      and\n        /* \"contracts/ERC721TokenContractName.sol\":10353:10357  from */\n      dup5\n        /* \"contracts/ERC721TokenContractName.sol\":10344:10371  Transfer(from, to, tokenId) */\n      0xffffffffffffffffffffffffffffffffffffffff\n      and\n      0x89896edbd223c9360ce42ddfed7522a2bffb20c056e4c42d42370cb493b65676\n      mload(0x40)\n      mload(0x40)\n      dup1\n      swap2\n      sub\n      swap1\n      log4\n        /* \"contracts/ERC721TokenContractName.sol\":9379:10379  {... */\n      pop\n      pop\n        /* \"contracts/ERC721TokenContractName.sol\":9312:10379  function _update(address to, uint16 tokenId, address from) private {... */\n      pop\n      pop\n      pop\n      jump\t// out\n        /* \"contracts/ERC721TokenContractName.sol\":10567:10965  function _requireOwned(uint16 tokenId) private view returns (address) {... */\n    tag_216:\n        /* \"contracts/ERC721TokenContractName.sol\":10628:10635  address */\n      0x00\n        /* \"contracts/ERC721TokenContractName.sol\":10660:10667  tokenId */\n      dup2\n        /* \"contracts/ERC721TokenContractName.sol\":10656:10667  0 < tokenId */\n      0xffff\n      and\n        /* \"contracts/ERC721TokenContractName.sol\":10656:10657  0 */\n      0x00\n        /* \"contracts/ERC721TokenContractName.sol\":10656:10667  0 < tokenId */\n      lt\n        /* \"contracts/ERC721TokenContractName.sol\":10656:10698  0 < tokenId && tokenId <= mintInfo.maxMint */\n      dup1\n      iszero\n      tag_382\n      jumpi\n      pop\n        /* \"contracts/ERC721TokenContractName.sol\":10682:10690  mintInfo */\n      0x01\n        /* \"contracts/ERC721TokenContractName.sol\":10682:10698  mintInfo.maxMint */\n      0x00\n      add\n      0x00\n      swap1\n      sload\n      swap1\n      0x0100\n      exp\n      swap1\n      div\n      0xffff\n      and\n        /* \"contracts/ERC721TokenContractName.sol\":10671:10698  tokenId <= mintInfo.maxMint */\n      0xffff\n      and\n        /* \"contracts/ERC721TokenContractName.sol\":10671:10678  tokenId */\n      dup3\n        /* \"contracts/ERC721TokenContractName.sol\":10671:10698  tokenId <= mintInfo.maxMint */\n      0xffff\n      and\n      gt\n      iszero\n        /* \"contracts/ERC721TokenContractName.sol\":10656:10698  0 < tokenId && tokenId <= mintInfo.maxMint */\n    tag_382:\n        /* \"contracts/ERC721TokenContractName.sol\":10648:10791  require(0 < tokenId && tokenId <= mintInfo.maxMint, \"The ID entered is invalid. It must be in this interval 0 < id <= maximum mintable tokens\") */\n      tag_383\n      jumpi\n      mload(0x40)\n      0x08c379a000000000000000000000000000000000000000000000000000000000\n      dup2\n      mstore\n      0x04\n      add\n      tag_384\n      swap1\n      tag_385\n      jump\t// in\n    tag_384:\n      mload(0x40)\n      dup1\n      swap2\n      sub\n      swap1\n      revert\n    tag_383:\n        /* \"contracts/ERC721TokenContractName.sol\":10802:10815  address owner */\n      0x00\n        /* \"contracts/ERC721TokenContractName.sol\":10818:10825  _owners */\n      0x05a7\n        /* \"contracts/ERC721TokenContractName.sol\":10826:10833  tokenId */\n      dup4\n        /* \"contracts/ERC721TokenContractName.sol\":10818:10834  _owners[tokenId] */\n      0xffff\n      and\n      0x04b1\n      dup2\n      lt\n      tag_386\n      jumpi\n      tag_387\n      tag_129\n      jump\t// in\n    tag_387:\n    tag_386:\n      add\n      0x00\n      swap1\n      sload\n      swap1\n      0x0100\n      exp\n      swap1\n      div\n      0xffffffffffffffffffffffffffffffffffffffff\n      and\n        /* \"contracts/ERC721TokenContractName.sol\":10802:10834  address owner = _owners[tokenId] */\n      swap1\n      pop\n        /* \"contracts/ERC721TokenContractName.sol\":10866:10867  0 */\n      0x00\n        /* \"contracts/ERC721TokenContractName.sol\":10849:10868  owner == address(0) */\n      0xffffffffffffffffffffffffffffffffffffffff\n      and\n        /* \"contracts/ERC721TokenContractName.sol\":10849:10854  owner */\n      dup2\n        /* \"contracts/ERC721TokenContractName.sol\":10849:10868  owner == address(0) */\n      0xffffffffffffffffffffffffffffffffffffffff\n      and\n      sub\n        /* \"contracts/ERC721TokenContractName.sol\":10845:10935  if (owner == address(0)) {... */\n      tag_389\n      jumpi\n        /* \"contracts/ERC721TokenContractName.sol\":10915:10922  tokenId */\n      dup3\n        /* \"contracts/ERC721TokenContractName.sol\":10892:10923  ERC721NonexistentToken(tokenId) */\n      mload(0x40)\n      0x7e27328900000000000000000000000000000000000000000000000000000000\n      dup2\n      mstore\n      0x04\n      add\n      tag_390\n      swap2\n      swap1\n      tag_391\n      jump\t// in\n    tag_390:\n      mload(0x40)\n      dup1\n      swap2\n      sub\n      swap1\n      revert\n        /* \"contracts/ERC721TokenContractName.sol\":10845:10935  if (owner == address(0)) {... */\n    tag_389:\n        /* \"contracts/ERC721TokenContractName.sol\":10952:10957  owner */\n      dup1\n        /* \"contracts/ERC721TokenContractName.sol\":10945:10957  return owner */\n      swap2\n      pop\n      pop\n        /* \"contracts/ERC721TokenContractName.sol\":10567:10965  function _requireOwned(uint16 tokenId) private view returns (address) {... */\n      swap2\n      swap1\n      pop\n      jump\t// out\n        /* \"contracts/ERC721TokenContractName.sol\":10389:10549  function _aprove(address to, uint16 tokenId, address owner) private {... */\n    tag_238:\n        /* \"contracts/ERC721TokenContractName.sol\":10495:10497  to */\n      dup3\n        /* \"contracts/ERC721TokenContractName.sol\":10468:10483  _tokenApprovals */\n      0x0a7f\n        /* \"contracts/ERC721TokenContractName.sol\":10468:10492  _tokenApprovals[tokenId] */\n      0x00\n        /* \"contracts/ERC721TokenContractName.sol\":10484:10491  tokenId */\n      dup5\n        /* \"contracts/ERC721TokenContractName.sol\":10468:10492  _tokenApprovals[tokenId] */\n      0xffff\n      and\n      0xffff\n      and\n      dup2\n      mstore\n      0x20\n      add\n      swap1\n      dup2\n      mstore\n      0x20\n      add\n      0x00\n      keccak256\n      0x00\n        /* \"contracts/ERC721TokenContractName.sol\":10468:10497  _tokenApprovals[tokenId] = to */\n      0x0100\n      exp\n      dup2\n      sload\n      dup2\n      0xffffffffffffffffffffffffffffffffffffffff\n      mul\n      not\n      and\n      swap1\n      dup4\n      0xffffffffffffffffffffffffffffffffffffffff\n      and\n      mul\n      or\n      swap1\n      sstore\n      pop\n        /* \"contracts/ERC721TokenContractName.sol\":10533:10540  tokenId */\n      dup2\n        /* \"contracts/ERC721TokenContractName.sol\":10513:10541  Approval(owner, to, tokenId) */\n      0xffff\n      and\n        /* \"contracts/ERC721TokenContractName.sol\":10529:10531  to */\n      dup4\n        /* \"contracts/ERC721TokenContractName.sol\":10513:10541  Approval(owner, to, tokenId) */\n      0xffffffffffffffffffffffffffffffffffffffff\n      and\n        /* \"contracts/ERC721TokenContractName.sol\":10522:10527  owner */\n      dup3\n        /* \"contracts/ERC721TokenContractName.sol\":10513:10541  Approval(owner, to, tokenId) */\n      0xffffffffffffffffffffffffffffffffffffffff\n      and\n      0x0a9d294fd4bd42bb30e96cba2b478d149a783fba3c729b1e5c42bec89d95b85a\n      mload(0x40)\n      mload(0x40)\n      dup1\n      swap2\n      sub\n      swap1\n      log4\n        /* \"contracts/ERC721TokenContractName.sol\":10389:10549  function _aprove(address to, uint16 tokenId, address owner) private {... */\n      pop\n      pop\n      pop\n      jump\t// out\n        /* \"contracts/ERC721TokenContractName.sol\":11068:11872  function _checkOnERC721Received(address from, address to, uint16 tokenId, bytes memory data) private {... */\n    tag_266:\n        /* \"contracts/ERC721TokenContractName.sol\":11201:11202  0 */\n      0x00\n        /* \"contracts/ERC721TokenContractName.sol\":11184:11186  to */\n      dup4\n        /* \"contracts/ERC721TokenContractName.sol\":11184:11198  to.code.length */\n      0xffffffffffffffffffffffffffffffffffffffff\n      and\n      extcodesize\n        /* \"contracts/ERC721TokenContractName.sol\":11184:11202  to.code.length > 0 */\n      gt\n        /* \"contracts/ERC721TokenContractName.sol\":11180:11865  if (to.code.length > 0) {... */\n      iszero\n      tag_394\n      jumpi\n        /* \"contracts/ERC721TokenContractName.sol\":11242:11244  to */\n      dup3\n        /* \"contracts/ERC721TokenContractName.sol\":11223:11262  IERC721TCNReceiver(to).onERC721Received */\n      0xffffffffffffffffffffffffffffffffffffffff\n      and\n      0xb1cff380\n        /* \"contracts/ERC721TokenContractName.sol\":11263:11275  _msgSender() */\n      tag_395\n        /* \"contracts/ERC721TokenContractName.sol\":11263:11273  _msgSender */\n      tag_119\n        /* \"contracts/ERC721TokenContractName.sol\":11263:11275  _msgSender() */\n      jump\t// in\n    tag_395:\n        /* \"contracts/ERC721TokenContractName.sol\":11277:11281  from */\n      dup7\n        /* \"contracts/ERC721TokenContractName.sol\":11283:11290  tokenId */\n      dup6\n        /* \"contracts/ERC721TokenContractName.sol\":11292:11296  data */\n      dup6\n        /* \"contracts/ERC721TokenContractName.sol\":11223:11297  IERC721TCNReceiver(to).onERC721Received(_msgSender(), from, tokenId, data) */\n      mload(0x40)\n      dup6\n      0xffffffff\n      and\n      0xe0\n      shl\n      dup2\n      mstore\n      0x04\n      add\n      tag_396\n      swap5\n      swap4\n      swap3\n      swap2\n      swap1\n      tag_397\n      jump\t// in\n    tag_396:\n      0x20\n      mload(0x40)\n      dup1\n      dup4\n      sub\n      dup2\n      0x00\n      dup8\n      gas\n      call\n      swap3\n      pop\n      pop\n      pop\n      dup1\n      iszero\n      tag_398\n      jumpi\n      pop\n      mload(0x40)\n      returndatasize\n      not(0x1f)\n      0x1f\n      dup3\n      add\n      and\n      dup3\n      add\n      dup1\n      0x40\n      mstore\n      pop\n      dup2\n      add\n      swap1\n      tag_399\n      swap2\n      swap1\n      tag_400\n      jump\t// in\n    tag_399:\n      0x01\n    tag_398:\n        /* \"contracts/ERC721TokenContractName.sol\":11219:11854  try IERC721TCNReceiver(to).onERC721Received(_msgSender(), from, tokenId, data) returns (bytes4 retval) {... */\n      tag_401\n      jumpi\n      returndatasize\n      dup1\n      0x00\n      dup2\n      eq\n      tag_406\n      jumpi\n      mload(0x40)\n      swap2\n      pop\n      and(add(returndatasize, 0x3f), not(0x1f))\n      dup3\n      add\n      0x40\n      mstore\n      returndatasize\n      dup3\n      mstore\n      returndatasize\n      0x00\n      0x20\n      dup5\n      add\n      returndatacopy\n      jump(tag_405)\n    tag_406:\n      0x60\n      swap2\n      pop\n    tag_405:\n      pop\n        /* \"contracts/ERC721TokenContractName.sol\":11560:11561  0 */\n      0x00\n        /* \"contracts/ERC721TokenContractName.sol\":11543:11549  reason */\n      dup2\n        /* \"contracts/ERC721TokenContractName.sol\":11543:11556  reason.length */\n      mload\n        /* \"contracts/ERC721TokenContractName.sol\":11543:11561  reason.length == 0 */\n      sub\n        /* \"contracts/ERC721TokenContractName.sol\":11539:11839  if (reason.length == 0) {... */\n      tag_407\n      jumpi\n        /* \"contracts/ERC721TokenContractName.sol\":11615:11617  to */\n      dup4\n        /* \"contracts/ERC721TokenContractName.sol\":11593:11618  ERC721InvalidReceiver(to) */\n      mload(0x40)\n      0x64a0ae9200000000000000000000000000000000000000000000000000000000\n      dup2\n      mstore\n      0x04\n      add\n      tag_408\n      swap2\n      swap1\n      tag_62\n      jump\t// in\n    tag_408:\n      mload(0x40)\n      dup1\n      swap2\n      sub\n      swap1\n      revert\n        /* \"contracts/ERC721TokenContractName.sol\":11539:11839  if (reason.length == 0) {... */\n    tag_407:\n        /* \"contracts/ERC721TokenContractName.sol\":11789:11795  reason */\n      dup1\n        /* \"contracts/ERC721TokenContractName.sol\":11783:11796  mload(reason) */\n      mload\n        /* \"contracts/ERC721TokenContractName.sol\":11774:11780  reason */\n      dup2\n        /* \"contracts/ERC721TokenContractName.sol\":11770:11772  32 */\n      0x20\n        /* \"contracts/ERC721TokenContractName.sol\":11766:11781  add(32, reason) */\n      add\n        /* \"contracts/ERC721TokenContractName.sol\":11759:11797  revert(add(32, reason), mload(reason)) */\n      revert\n        /* \"contracts/ERC721TokenContractName.sol\":11219:11854  try IERC721TCNReceiver(to).onERC721Received(_msgSender(), from, tokenId, data) returns (bytes4 retval) {... */\n    tag_401:\n        /* \"contracts/ERC721TokenContractName.sol\":11355:11399  IERC721TCNReceiver.onERC721Received.selector */\n      shl(0xe0, 0xb1cff380)\n        /* \"contracts/ERC721TokenContractName.sol\":11345:11399  retval != IERC721TCNReceiver.onERC721Received.selector */\n      not(0xffffffffffffffffffffffffffffffffffffffffffffffffffffffff)\n      and\n        /* \"contracts/ERC721TokenContractName.sol\":11345:11351  retval */\n      dup2\n        /* \"contracts/ERC721TokenContractName.sol\":11345:11399  retval != IERC721TCNReceiver.onERC721Received.selector */\n      not(0xffffffffffffffffffffffffffffffffffffffffffffffffffffffff)\n      and\n      eq\n        /* \"contracts/ERC721TokenContractName.sol\":11341:11476  if (retval != IERC721TCNReceiver.onERC721Received.selector) {... */\n      tag_411\n      jumpi\n        /* \"contracts/ERC721TokenContractName.sol\":11453:11455  to */\n      dup4\n        /* \"contracts/ERC721TokenContractName.sol\":11431:11456  ERC721InvalidReceiver(to) */\n      mload(0x40)\n      0x64a0ae9200000000000000000000000000000000000000000000000000000000\n      dup2\n      mstore\n      0x04\n      add\n      tag_412\n      swap2\n      swap1\n      tag_62\n      jump\t// in\n    tag_412:\n      mload(0x40)\n      dup1\n      swap2\n      sub\n      swap1\n      revert\n        /* \"contracts/ERC721TokenContractName.sol\":11341:11476  if (retval != IERC721TCNReceiver.onERC721Received.selector) {... */\n    tag_411:\n        /* \"contracts/ERC721TokenContractName.sol\":11298:11491  returns (bytes4 retval) {... */\n      pop\n        /* \"contracts/ERC721TokenContractName.sol\":11180:11865  if (to.code.length > 0) {... */\n    tag_394:\n        /* \"contracts/ERC721TokenContractName.sol\":11068:11872  function _checkOnERC721Received(address from, address to, uint16 tokenId, bytes memory data) private {... */\n      pop\n      pop\n      pop\n      pop\n      jump\t// out\n        /* \"contracts/ERC721TokenContractName.sol\":10975:11060  function _baseURI() private pure returns (string memory) {... */\n    tag_305:\n        /* \"contracts/ERC721TokenContractName.sol\":11017:11030  string memory */\n      0x60\n        /* \"contracts/ERC721TokenContractName.sol\":11043:11052  return \"\" */\n      mload(0x40)\n      dup1\n      0x20\n      add\n      0x40\n      mstore\n      dup1\n      0x00\n      dup2\n      mstore\n      pop\n      swap1\n      pop\n        /* \"contracts/ERC721TokenContractName.sol\":10975:11060  function _baseURI() private pure returns (string memory) {... */\n      swap1\n      jump\t// out\n        /* \"@openzeppelin/contracts/utils/Strings.sol\":637:1335  function toString(uint256 value) internal pure returns (string memory) {... */\n    tag_309:\n        /* \"@openzeppelin/contracts/utils/Strings.sol\":693:706  string memory */\n      0x60\n        /* \"@openzeppelin/contracts/utils/Strings.sol\":742:756  uint256 length */\n      0x00\n        /* \"@openzeppelin/contracts/utils/Strings.sol\":779:780  1 */\n      0x01\n        /* \"@openzeppelin/contracts/utils/Strings.sol\":759:776  Math.log10(value) */\n      tag_415\n        /* \"@openzeppelin/contracts/utils/Strings.sol\":770:775  value */\n      dup5\n        /* \"@openzeppelin/contracts/utils/Strings.sol\":759:769  Math.log10 */\n      tag_416\n        /* \"@openzeppelin/contracts/utils/Strings.sol\":759:776  Math.log10(value) */\n      jump\t// in\n    tag_415:\n        /* \"@openzeppelin/contracts/utils/Strings.sol\":759:780  Math.log10(value) + 1 */\n      add\n        /* \"@openzeppelin/contracts/utils/Strings.sol\":742:780  uint256 length = Math.log10(value) + 1 */\n      swap1\n      pop\n        /* \"@openzeppelin/contracts/utils/Strings.sol\":794:814  string memory buffer */\n      0x00\n        /* \"@openzeppelin/contracts/utils/Strings.sol\":828:834  length */\n      dup2\n        /* \"@openzeppelin/contracts/utils/Strings.sol\":817:835  new string(length) */\n      0xffffffffffffffff\n      dup2\n      gt\n      iszero\n      tag_417\n      jumpi\n      tag_418\n      tag_419\n      jump\t// in\n    tag_418:\n    tag_417:\n      mload(0x40)\n      swap1\n      dup1\n      dup3\n      mstore\n      dup1\n      0x1f\n      add\n      not(0x1f)\n      and\n      0x20\n      add\n      dup3\n      add\n      0x40\n      mstore\n      dup1\n      iszero\n      tag_420\n      jumpi\n      dup2\n      0x20\n      add\n      0x01\n      dup3\n      mul\n      dup1\n      calldatasize\n      dup4\n      calldatacopy\n      dup1\n      dup3\n      add\n      swap2\n      pop\n      pop\n      swap1\n      pop\n    tag_420:\n      pop\n        /* \"@openzeppelin/contracts/utils/Strings.sol\":794:835  string memory buffer = new string(length) */\n      swap1\n      pop\n        /* \"@openzeppelin/contracts/utils/Strings.sol\":849:860  uint256 ptr */\n      0x00\n        /* \"@openzeppelin/contracts/utils/Strings.sol\":975:981  length */\n      dup3\n        /* \"@openzeppelin/contracts/utils/Strings.sol\":971:973  32 */\n      0x20\n        /* \"@openzeppelin/contracts/utils/Strings.sol\":967:982  add(32, length) */\n      add\n        /* \"@openzeppelin/contracts/utils/Strings.sol\":959:965  buffer */\n      dup3\n        /* \"@openzeppelin/contracts/utils/Strings.sol\":955:983  add(buffer, add(32, length)) */\n      add\n        /* \"@openzeppelin/contracts/utils/Strings.sol\":948:983  ptr := add(buffer, add(32, length)) */\n      swap1\n      pop\n        /* \"@openzeppelin/contracts/utils/Strings.sol\":1010:1292  while (true) {... */\n    tag_421:\n        /* \"@openzeppelin/contracts/utils/Strings.sol\":1017:1021  true */\n      0x01\n        /* \"@openzeppelin/contracts/utils/Strings.sol\":1010:1292  while (true) {... */\n      iszero\n      tag_422\n      jumpi\n        /* \"@openzeppelin/contracts/utils/Strings.sol\":1041:1046  ptr-- */\n      dup1\n      dup1\n      0x01\n      swap1\n      sub\n      swap2\n      pop\n      pop\n        /* \"@openzeppelin/contracts/utils/Strings.sol\":1180:1190  HEX_DIGITS */\n      0x3031323334353637383961626364656600000000000000000000000000000000\n        /* \"@openzeppelin/contracts/utils/Strings.sol\":1175:1177  10 */\n      0x0a\n        /* \"@openzeppelin/contracts/utils/Strings.sol\":1168:1173  value */\n      dup7\n        /* \"@openzeppelin/contracts/utils/Strings.sol\":1164:1178  mod(value, 10) */\n      mod\n        /* \"@openzeppelin/contracts/utils/Strings.sol\":1159:1191  byte(mod(value, 10), HEX_DIGITS) */\n      byte\n        /* \"@openzeppelin/contracts/utils/Strings.sol\":1154:1157  ptr */\n      dup2\n        /* \"@openzeppelin/contracts/utils/Strings.sol\":1146:1192  mstore8(ptr, byte(mod(value, 10), HEX_DIGITS)) */\n      mstore8\n        /* \"@openzeppelin/contracts/utils/Strings.sol\":1236:1238  10 */\n      0x0a\n        /* \"@openzeppelin/contracts/utils/Strings.sol\":1227:1238  value /= 10 */\n      dup6\n      dup2\n      tag_423\n      jumpi\n      tag_424\n      tag_425\n      jump\t// in\n    tag_424:\n    tag_423:\n      div\n      swap5\n      pop\n        /* \"@openzeppelin/contracts/utils/Strings.sol\":1269:1270  0 */\n      0x00\n        /* \"@openzeppelin/contracts/utils/Strings.sol\":1260:1265  value */\n      dup6\n        /* \"@openzeppelin/contracts/utils/Strings.sol\":1260:1270  value == 0 */\n      sub\n        /* \"@openzeppelin/contracts/utils/Strings.sol\":1010:1292  while (true) {... */\n      tag_421\n        /* \"@openzeppelin/contracts/utils/Strings.sol\":1256:1277  if (value == 0) break */\n      jumpi\n        /* \"@openzeppelin/contracts/utils/Strings.sol\":1010:1292  while (true) {... */\n    tag_422:\n        /* \"@openzeppelin/contracts/utils/Strings.sol\":1312:1318  buffer */\n      dup2\n        /* \"@openzeppelin/contracts/utils/Strings.sol\":1305:1318  return buffer */\n      swap4\n      pop\n      pop\n      pop\n      pop\n        /* \"@openzeppelin/contracts/utils/Strings.sol\":637:1335  function toString(uint256 value) internal pure returns (string memory) {... */\n      swap2\n      swap1\n      pop\n      jump\t// out\n        /* \"@openzeppelin/contracts/utils/math/Math.sol\":12214:13130  function log10(uint256 value) internal pure returns (uint256) {... */\n    tag_416:\n        /* \"@openzeppelin/contracts/utils/math/Math.sol\":12267:12274  uint256 */\n      0x00\n        /* \"@openzeppelin/contracts/utils/math/Math.sol\":12286:12300  uint256 result */\n      dup1\n        /* \"@openzeppelin/contracts/utils/math/Math.sol\":12303:12304  0 */\n      0x00\n        /* \"@openzeppelin/contracts/utils/math/Math.sol\":12286:12304  uint256 result = 0 */\n      swap1\n      pop\n        /* \"@openzeppelin/contracts/utils/math/Math.sol\":12351:12359  10 ** 64 */\n      0x184f03e93ff9f4daa797ed6e38ed64bf6a1f010000000000000000\n        /* \"@openzeppelin/contracts/utils/math/Math.sol\":12342:12347  value */\n      dup4\n        /* \"@openzeppelin/contracts/utils/math/Math.sol\":12342:12359  value >= 10 ** 64 */\n      lt\n        /* \"@openzeppelin/contracts/utils/math/Math.sol\":12338:12441  if (value >= 10 ** 64) {... */\n      tag_428\n      jumpi\n        /* \"@openzeppelin/contracts/utils/math/Math.sol\":12388:12396  10 ** 64 */\n      0x184f03e93ff9f4daa797ed6e38ed64bf6a1f010000000000000000\n        /* \"@openzeppelin/contracts/utils/math/Math.sol\":12379:12396  value /= 10 ** 64 */\n      dup4\n      dup2\n      tag_429\n      jumpi\n      tag_430\n      tag_425\n      jump\t// in\n    tag_430:\n    tag_429:\n      div\n      swap3\n      pop\n        /* \"@openzeppelin/contracts/utils/math/Math.sol\":12424:12426  64 */\n      0x40\n        /* \"@openzeppelin/contracts/utils/math/Math.sol\":12414:12426  result += 64 */\n      dup2\n      add\n      swap1\n      pop\n        /* \"@openzeppelin/contracts/utils/math/Math.sol\":12338:12441  if (value >= 10 ** 64) {... */\n    tag_428:\n        /* \"@openzeppelin/contracts/utils/math/Math.sol\":12467:12475  10 ** 32 */\n      0x04ee2d6d415b85acef8100000000\n        /* \"@openzeppelin/contracts/utils/math/Math.sol\":12458:12463  value */\n      dup4\n        /* \"@openzeppelin/contracts/utils/math/Math.sol\":12458:12475  value >= 10 ** 32 */\n      lt\n        /* \"@openzeppelin/contracts/utils/math/Math.sol\":12454:12557  if (value >= 10 ** 32) {... */\n      tag_431\n      jumpi\n        /* \"@openzeppelin/contracts/utils/math/Math.sol\":12504:12512  10 ** 32 */\n      0x04ee2d6d415b85acef8100000000\n        /* \"@openzeppelin/contracts/utils/math/Math.sol\":12495:12512  value /= 10 ** 32 */\n      dup4\n      dup2\n      tag_432\n      jumpi\n      tag_433\n      tag_425\n      jump\t// in\n    tag_433:\n    tag_432:\n      div\n      swap3\n      pop\n        /* \"@openzeppelin/contracts/utils/math/Math.sol\":12540:12542  32 */\n      0x20\n        /* \"@openzeppelin/contracts/utils/math/Math.sol\":12530:12542  result += 32 */\n      dup2\n      add\n      swap1\n      pop\n        /* \"@openzeppelin/contracts/utils/math/Math.sol\":12454:12557  if (value >= 10 ** 32) {... */\n    tag_431:\n        /* \"@openzeppelin/contracts/utils/math/Math.sol\":12583:12591  10 ** 16 */\n      0x2386f26fc10000\n        /* \"@openzeppelin/contracts/utils/math/Math.sol\":12574:12579  value */\n      dup4\n        /* \"@openzeppelin/contracts/utils/math/Math.sol\":12574:12591  value >= 10 ** 16 */\n      lt\n        /* \"@openzeppelin/contracts/utils/math/Math.sol\":12570:12673  if (value >= 10 ** 16) {... */\n      tag_434\n      jumpi\n        /* \"@openzeppelin/contracts/utils/math/Math.sol\":12620:12628  10 ** 16 */\n      0x2386f26fc10000\n        /* \"@openzeppelin/contracts/utils/math/Math.sol\":12611:12628  value /= 10 ** 16 */\n      dup4\n      dup2\n      tag_435\n      jumpi\n      tag_436\n      tag_425\n      jump\t// in\n    tag_436:\n    tag_435:\n      div\n      swap3\n      pop\n        /* \"@openzeppelin/contracts/utils/math/Math.sol\":12656:12658  16 */\n      0x10\n        /* \"@openzeppelin/contracts/utils/math/Math.sol\":12646:12658  result += 16 */\n      dup2\n      add\n      swap1\n      pop\n        /* \"@openzeppelin/contracts/utils/math/Math.sol\":12570:12673  if (value >= 10 ** 16) {... */\n    tag_434:\n        /* \"@openzeppelin/contracts/utils/math/Math.sol\":12699:12706  10 ** 8 */\n      0x05f5e100\n        /* \"@openzeppelin/contracts/utils/math/Math.sol\":12690:12695  value */\n      dup4\n        /* \"@openzeppelin/contracts/utils/math/Math.sol\":12690:12706  value >= 10 ** 8 */\n      lt\n        /* \"@openzeppelin/contracts/utils/math/Math.sol\":12686:12786  if (value >= 10 ** 8) {... */\n      tag_437\n      jumpi\n        /* \"@openzeppelin/contracts/utils/math/Math.sol\":12735:12742  10 ** 8 */\n      0x05f5e100\n        /* \"@openzeppelin/contracts/utils/math/Math.sol\":12726:12742  value /= 10 ** 8 */\n      dup4\n      dup2\n      tag_438\n      jumpi\n      tag_439\n      tag_425\n      jump\t// in\n    tag_439:\n    tag_438:\n      div\n      swap3\n      pop\n        /* \"@openzeppelin/contracts/utils/math/Math.sol\":12770:12771  8 */\n      0x08\n        /* \"@openzeppelin/contracts/utils/math/Math.sol\":12760:12771  result += 8 */\n      dup2\n      add\n      swap1\n      pop\n        /* \"@openzeppelin/contracts/utils/math/Math.sol\":12686:12786  if (value >= 10 ** 8) {... */\n    tag_437:\n        /* \"@openzeppelin/contracts/utils/math/Math.sol\":12812:12819  10 ** 4 */\n      0x2710\n        /* \"@openzeppelin/contracts/utils/math/Math.sol\":12803:12808  value */\n      dup4\n        /* \"@openzeppelin/contracts/utils/math/Math.sol\":12803:12819  value >= 10 ** 4 */\n      lt\n        /* \"@openzeppelin/contracts/utils/math/Math.sol\":12799:12899  if (value >= 10 ** 4) {... */\n      tag_440\n      jumpi\n        /* \"@openzeppelin/contracts/utils/math/Math.sol\":12848:12855  10 ** 4 */\n      0x2710\n        /* \"@openzeppelin/contracts/utils/math/Math.sol\":12839:12855  value /= 10 ** 4 */\n      dup4\n      dup2\n      tag_441\n      jumpi\n      tag_442\n      tag_425\n      jump\t// in\n    tag_442:\n    tag_441:\n      div\n      swap3\n      pop\n        /* \"@openzeppelin/contracts/utils/math/Math.sol\":12883:12884  4 */\n      0x04\n        /* \"@openzeppelin/contracts/utils/math/Math.sol\":12873:12884  result += 4 */\n      dup2\n      add\n      swap1\n      pop\n        /* \"@openzeppelin/contracts/utils/math/Math.sol\":12799:12899  if (value >= 10 ** 4) {... */\n    tag_440:\n        /* \"@openzeppelin/contracts/utils/math/Math.sol\":12925:12932  10 ** 2 */\n      0x64\n        /* \"@openzeppelin/contracts/utils/math/Math.sol\":12916:12921  value */\n      dup4\n        /* \"@openzeppelin/contracts/utils/math/Math.sol\":12916:12932  value >= 10 ** 2 */\n      lt\n        /* \"@openzeppelin/contracts/utils/math/Math.sol\":12912:13012  if (value >= 10 ** 2) {... */\n      tag_443\n      jumpi\n        /* \"@openzeppelin/contracts/utils/math/Math.sol\":12961:12968  10 ** 2 */\n      0x64\n        /* \"@openzeppelin/contracts/utils/math/Math.sol\":12952:12968  value /= 10 ** 2 */\n      dup4\n      dup2\n      tag_444\n      jumpi\n      tag_445\n      tag_425\n      jump\t// in\n    tag_445:\n    tag_444:\n      div\n      swap3\n      pop\n        /* \"@openzeppelin/contracts/utils/math/Math.sol\":12996:12997  2 */\n      0x02\n        /* \"@openzeppelin/contracts/utils/math/Math.sol\":12986:12997  result += 2 */\n      dup2\n      add\n      swap1\n      pop\n        /* \"@openzeppelin/contracts/utils/math/Math.sol\":12912:13012  if (value >= 10 ** 2) {... */\n    tag_443:\n        /* \"@openzeppelin/contracts/utils/math/Math.sol\":13038:13045  10 ** 1 */\n      0x0a\n        /* \"@openzeppelin/contracts/utils/math/Math.sol\":13029:13034  value */\n      dup4\n        /* \"@openzeppelin/contracts/utils/math/Math.sol\":13029:13045  value >= 10 ** 1 */\n      lt\n        /* \"@openzeppelin/contracts/utils/math/Math.sol\":13025:13091  if (value >= 10 ** 1) {... */\n      tag_446\n      jumpi\n        /* \"@openzeppelin/contracts/utils/math/Math.sol\":13075:13076  1 */\n      0x01\n        /* \"@openzeppelin/contracts/utils/math/Math.sol\":13065:13076  result += 1 */\n      dup2\n      add\n      swap1\n      pop\n        /* \"@openzeppelin/contracts/utils/math/Math.sol\":13025:13091  if (value >= 10 ** 1) {... */\n    tag_446:\n        /* \"@openzeppelin/contracts/utils/math/Math.sol\":13117:13123  result */\n      dup1\n        /* \"@openzeppelin/contracts/utils/math/Math.sol\":13110:13123  return result */\n      swap2\n      pop\n      pop\n        /* \"@openzeppelin/contracts/utils/math/Math.sol\":12214:13130  function log10(uint256 value) internal pure returns (uint256) {... */\n      swap2\n      swap1\n      pop\n      jump\t// out\n    tag_145:\n      dup3\n      add(0x0f, 0x04b1)\n      0x10\n      swap1\n      div\n      dup2\n      add\n      swap3\n      dup3\n      iszero\n      tag_447\n      jumpi\n      swap2\n      0x20\n      mul\n      dup3\n      add\n      0x00\n    tag_448:\n      dup4\n      dup3\n      gt\n      iszero\n      tag_449\n      jumpi\n      dup4\n      mload\n      dup4\n      dup3\n      0x0100\n      exp\n      dup2\n      sload\n      dup2\n      0xffff\n      mul\n      not\n      and\n      swap1\n      dup4\n      0xffff\n      and\n      mul\n      or\n      swap1\n      sstore\n      pop\n      swap3\n      0x20\n      add\n      swap3\n      0x02\n      add\n      0x20\n      dup2\n      0x01\n      add\n      div\n      swap3\n      dup4\n      add\n      swap3\n      0x01\n      sub\n      mul\n      jump(tag_448)\n    tag_449:\n      dup1\n      iszero\n      tag_450\n      jumpi\n      dup3\n      dup2\n      0x0100\n      exp\n      dup2\n      sload\n      swap1\n      0xffff\n      mul\n      not\n      and\n      swap1\n      sstore\n      0x02\n      add\n      0x20\n      dup2\n      0x01\n      add\n      div\n      swap3\n      dup4\n      add\n      swap3\n      0x01\n      sub\n      mul\n      jump(tag_449)\n    tag_450:\n      pop\n    tag_447:\n      pop\n      swap1\n      pop\n      tag_451\n      swap2\n      swap1\n      tag_452\n      jump\t// in\n    tag_451:\n      pop\n      swap1\n      jump\t// out\n    tag_452:\n    tag_453:\n      dup1\n      dup3\n      gt\n      iszero\n      tag_454\n      jumpi\n      0x00\n      dup2\n      0x00\n      swap1\n      sstore\n      pop\n      0x01\n      add\n      jump(tag_453)\n    tag_454:\n      pop\n      swap1\n      jump\t// out\n        /* \"#utility.yul\":7:157   */\n    tag_455:\n        /* \"#utility.yul\":44:51   */\n      0x00\n        /* \"#utility.yul\":84:150   */\n      0xffffffffffffffffffffffffffffffffffffffff000000000000000000000000\n        /* \"#utility.yul\":77:82   */\n      dup3\n        /* \"#utility.yul\":73:151   */\n      and\n        /* \"#utility.yul\":62:151   */\n      swap1\n      pop\n        /* \"#utility.yul\":7:157   */\n      swap2\n      swap1\n      pop\n      jump\t// out\n        /* \"#utility.yul\":163:281   */\n    tag_456:\n        /* \"#utility.yul\":250:274   */\n      tag_546\n        /* \"#utility.yul\":268:273   */\n      dup2\n        /* \"#utility.yul\":250:274   */\n      tag_455\n      jump\t// in\n    tag_546:\n        /* \"#utility.yul\":245:248   */\n      dup3\n        /* \"#utility.yul\":238:275   */\n      mstore\n        /* \"#utility.yul\":163:281   */\n      pop\n      pop\n      jump\t// out\n        /* \"#utility.yul\":287:509   */\n    tag_26:\n        /* \"#utility.yul\":380:384   */\n      0x00\n        /* \"#utility.yul\":418:420   */\n      0x20\n        /* \"#utility.yul\":407:416   */\n      dup3\n        /* \"#utility.yul\":403:421   */\n      add\n        /* \"#utility.yul\":395:421   */\n      swap1\n      pop\n        /* \"#utility.yul\":431:502   */\n      tag_548\n        /* \"#utility.yul\":499:500   */\n      0x00\n        /* \"#utility.yul\":488:497   */\n      dup4\n        /* \"#utility.yul\":484:501   */\n      add\n        /* \"#utility.yul\":475:481   */\n      dup5\n        /* \"#utility.yul\":431:502   */\n      tag_456\n      jump\t// in\n    tag_548:\n        /* \"#utility.yul\":287:509   */\n      swap3\n      swap2\n      pop\n      pop\n      jump\t// out\n        /* \"#utility.yul\":515:590   */\n    tag_457:\n        /* \"#utility.yul\":548:554   */\n      0x00\n        /* \"#utility.yul\":581:583   */\n      0x40\n        /* \"#utility.yul\":575:584   */\n      mload\n        /* \"#utility.yul\":565:584   */\n      swap1\n      pop\n        /* \"#utility.yul\":515:590   */\n      swap1\n      jump\t// out\n        /* \"#utility.yul\":596:713   */\n    tag_458:\n        /* \"#utility.yul\":705:706   */\n      0x00\n        /* \"#utility.yul\":702:703   */\n      dup1\n        /* \"#utility.yul\":695:707   */\n      revert\n        /* \"#utility.yul\":719:836   */\n    tag_459:\n        /* \"#utility.yul\":828:829   */\n      0x00\n        /* \"#utility.yul\":825:826   */\n      dup1\n        /* \"#utility.yul\":818:830   */\n      revert\n        /* \"#utility.yul\":842:968   */\n    tag_460:\n        /* \"#utility.yul\":879:886   */\n      0x00\n        /* \"#utility.yul\":919:961   */\n      0xffffffffffffffffffffffffffffffffffffffff\n        /* \"#utility.yul\":912:917   */\n      dup3\n        /* \"#utility.yul\":908:962   */\n      and\n        /* \"#utility.yul\":897:962   */\n      swap1\n      pop\n        /* \"#utility.yul\":842:968   */\n      swap2\n      swap1\n      pop\n      jump\t// out\n        /* \"#utility.yul\":974:1070   */\n    tag_461:\n        /* \"#utility.yul\":1011:1018   */\n      0x00\n        /* \"#utility.yul\":1040:1064   */\n      tag_554\n        /* \"#utility.yul\":1058:1063   */\n      dup3\n        /* \"#utility.yul\":1040:1064   */\n      tag_460\n      jump\t// in\n    tag_554:\n        /* \"#utility.yul\":1029:1064   */\n      swap1\n      pop\n        /* \"#utility.yul\":974:1070   */\n      swap2\n      swap1\n      pop\n      jump\t// out\n        /* \"#utility.yul\":1076:1198   */\n    tag_462:\n        /* \"#utility.yul\":1149:1173   */\n      tag_556\n        /* \"#utility.yul\":1167:1172   */\n      dup2\n        /* \"#utility.yul\":1149:1173   */\n      tag_461\n      jump\t// in\n    tag_556:\n        /* \"#utility.yul\":1142:1147   */\n      dup2\n        /* \"#utility.yul\":1139:1174   */\n      eq\n        /* \"#utility.yul\":1129:1192   */\n      tag_557\n      jumpi\n        /* \"#utility.yul\":1188:1189   */\n      0x00\n        /* \"#utility.yul\":1185:1186   */\n      dup1\n        /* \"#utility.yul\":1178:1190   */\n      revert\n        /* \"#utility.yul\":1129:1192   */\n    tag_557:\n        /* \"#utility.yul\":1076:1198   */\n      pop\n      jump\t// out\n        /* \"#utility.yul\":1204:1343   */\n    tag_463:\n        /* \"#utility.yul\":1250:1255   */\n      0x00\n        /* \"#utility.yul\":1288:1294   */\n      dup2\n        /* \"#utility.yul\":1275:1295   */\n      calldataload\n        /* \"#utility.yul\":1266:1295   */\n      swap1\n      pop\n        /* \"#utility.yul\":1304:1337   */\n      tag_559\n        /* \"#utility.yul\":1331:1336   */\n      dup2\n        /* \"#utility.yul\":1304:1337   */\n      tag_462\n      jump\t// in\n    tag_559:\n        /* \"#utility.yul\":1204:1343   */\n      swap3\n      swap2\n      pop\n      pop\n      jump\t// out\n        /* \"#utility.yul\":1349:1438   */\n    tag_464:\n        /* \"#utility.yul\":1385:1392   */\n      0x00\n        /* \"#utility.yul\":1425:1431   */\n      0xffff\n        /* \"#utility.yul\":1418:1423   */\n      dup3\n        /* \"#utility.yul\":1414:1432   */\n      and\n        /* \"#utility.yul\":1403:1432   */\n      swap1\n      pop\n        /* \"#utility.yul\":1349:1438   */\n      swap2\n      swap1\n      pop\n      jump\t// out\n        /* \"#utility.yul\":1444:1564   */\n    tag_465:\n        /* \"#utility.yul\":1516:1539   */\n      tag_562\n        /* \"#utility.yul\":1533:1538   */\n      dup2\n        /* \"#utility.yul\":1516:1539   */\n      tag_464\n      jump\t// in\n    tag_562:\n        /* \"#utility.yul\":1509:1514   */\n      dup2\n        /* \"#utility.yul\":1506:1540   */\n      eq\n        /* \"#utility.yul\":1496:1558   */\n      tag_563\n      jumpi\n        /* \"#utility.yul\":1554:1555   */\n      0x00\n        /* \"#utility.yul\":1551:1552   */\n      dup1\n        /* \"#utility.yul\":1544:1556   */\n      revert\n        /* \"#utility.yul\":1496:1558   */\n    tag_563:\n        /* \"#utility.yul\":1444:1564   */\n      pop\n      jump\t// out\n        /* \"#utility.yul\":1570:1707   */\n    tag_466:\n        /* \"#utility.yul\":1615:1620   */\n      0x00\n        /* \"#utility.yul\":1653:1659   */\n      dup2\n        /* \"#utility.yul\":1640:1660   */\n      calldataload\n        /* \"#utility.yul\":1631:1660   */\n      swap1\n      pop\n        /* \"#utility.yul\":1669:1701   */\n      tag_565\n        /* \"#utility.yul\":1695:1700   */\n      dup2\n        /* \"#utility.yul\":1669:1701   */\n      tag_465\n      jump\t// in\n    tag_565:\n        /* \"#utility.yul\":1570:1707   */\n      swap3\n      swap2\n      pop\n      pop\n      jump\t// out\n        /* \"#utility.yul\":1713:2330   */\n    tag_30:\n        /* \"#utility.yul\":1789:1795   */\n      0x00\n        /* \"#utility.yul\":1797:1803   */\n      dup1\n        /* \"#utility.yul\":1805:1811   */\n      0x00\n        /* \"#utility.yul\":1854:1856   */\n      0x60\n        /* \"#utility.yul\":1842:1851   */\n      dup5\n        /* \"#utility.yul\":1833:1840   */\n      dup7\n        /* \"#utility.yul\":1829:1852   */\n      sub\n        /* \"#utility.yul\":1825:1857   */\n      slt\n        /* \"#utility.yul\":1822:1941   */\n      iszero\n      tag_567\n      jumpi\n        /* \"#utility.yul\":1860:1939   */\n      tag_568\n      tag_458\n      jump\t// in\n    tag_568:\n        /* \"#utility.yul\":1822:1941   */\n    tag_567:\n        /* \"#utility.yul\":1980:1981   */\n      0x00\n        /* \"#utility.yul\":2005:2058   */\n      tag_569\n        /* \"#utility.yul\":2050:2057   */\n      dup7\n        /* \"#utility.yul\":2041:2047   */\n      dup3\n        /* \"#utility.yul\":2030:2039   */\n      dup8\n        /* \"#utility.yul\":2026:2048   */\n      add\n        /* \"#utility.yul\":2005:2058   */\n      tag_463\n      jump\t// in\n    tag_569:\n        /* \"#utility.yul\":1995:2058   */\n      swap4\n      pop\n        /* \"#utility.yul\":1951:2068   */\n      pop\n        /* \"#utility.yul\":2107:2109   */\n      0x20\n        /* \"#utility.yul\":2133:2186   */\n      tag_570\n        /* \"#utility.yul\":2178:2185   */\n      dup7\n        /* \"#utility.yul\":2169:2175   */\n      dup3\n        /* \"#utility.yul\":2158:2167   */\n      dup8\n        /* \"#utility.yul\":2154:2176   */\n      add\n        /* \"#utility.yul\":2133:2186   */\n      tag_463\n      jump\t// in\n    tag_570:\n        /* \"#utility.yul\":2123:2186   */\n      swap3\n      pop\n        /* \"#utility.yul\":2078:2196   */\n      pop\n        /* \"#utility.yul\":2235:2237   */\n      0x40\n        /* \"#utility.yul\":2261:2313   */\n      tag_571\n        /* \"#utility.yul\":2305:2312   */\n      dup7\n        /* \"#utility.yul\":2296:2302   */\n      dup3\n        /* \"#utility.yul\":2285:2294   */\n      dup8\n        /* \"#utility.yul\":2281:2303   */\n      add\n        /* \"#utility.yul\":2261:2313   */\n      tag_466\n      jump\t// in\n    tag_571:\n        /* \"#utility.yul\":2251:2313   */\n      swap2\n      pop\n        /* \"#utility.yul\":2206:2323   */\n      pop\n        /* \"#utility.yul\":1713:2330   */\n      swap3\n      pop\n      swap3\n      pop\n      swap3\n      jump\t// out\n        /* \"#utility.yul\":2336:2413   */\n    tag_467:\n        /* \"#utility.yul\":2373:2380   */\n      0x00\n        /* \"#utility.yul\":2402:2407   */\n      dup2\n        /* \"#utility.yul\":2391:2407   */\n      swap1\n      pop\n        /* \"#utility.yul\":2336:2413   */\n      swap2\n      swap1\n      pop\n      jump\t// out\n        /* \"#utility.yul\":2419:2541   */\n    tag_468:\n        /* \"#utility.yul\":2492:2516   */\n      tag_574\n        /* \"#utility.yul\":2510:2515   */\n      dup2\n        /* \"#utility.yul\":2492:2516   */\n      tag_467\n      jump\t// in\n    tag_574:\n        /* \"#utility.yul\":2485:2490   */\n      dup2\n        /* \"#utility.yul\":2482:2517   */\n      eq\n        /* \"#utility.yul\":2472:2535   */\n      tag_575\n      jumpi\n        /* \"#utility.yul\":2531:2532   */\n      0x00\n        /* \"#utility.yul\":2528:2529   */\n      dup1\n        /* \"#utility.yul\":2521:2533   */\n      revert\n        /* \"#utility.yul\":2472:2535   */\n    tag_575:\n        /* \"#utility.yul\":2419:2541   */\n      pop\n      jump\t// out\n        /* \"#utility.yul\":2547:2686   */\n    tag_469:\n        /* \"#utility.yul\":2593:2598   */\n      0x00\n        /* \"#utility.yul\":2631:2637   */\n      dup2\n        /* \"#utility.yul\":2618:2638   */\n      calldataload\n        /* \"#utility.yul\":2609:2638   */\n      swap1\n      pop\n        /* \"#utility.yul\":2647:2680   */\n      tag_577\n        /* \"#utility.yul\":2674:2679   */\n      dup2\n        /* \"#utility.yul\":2647:2680   */\n      tag_468\n      jump\t// in\n    tag_577:\n        /* \"#utility.yul\":2547:2686   */\n      swap3\n      swap2\n      pop\n      pop\n      jump\t// out\n        /* \"#utility.yul\":2692:2809   */\n    tag_470:\n        /* \"#utility.yul\":2801:2802   */\n      0x00\n        /* \"#utility.yul\":2798:2799   */\n      dup1\n        /* \"#utility.yul\":2791:2803   */\n      revert\n        /* \"#utility.yul\":2815:2917   */\n    tag_471:\n        /* \"#utility.yul\":2856:2862   */\n      0x00\n        /* \"#utility.yul\":2907:2909   */\n      0x1f\n        /* \"#utility.yul\":2903:2910   */\n      not\n        /* \"#utility.yul\":2898:2900   */\n      0x1f\n        /* \"#utility.yul\":2891:2896   */\n      dup4\n        /* \"#utility.yul\":2887:2901   */\n      add\n        /* \"#utility.yul\":2883:2911   */\n      and\n        /* \"#utility.yul\":2873:2911   */\n      swap1\n      pop\n        /* \"#utility.yul\":2815:2917   */\n      swap2\n      swap1\n      pop\n      jump\t// out\n        /* \"#utility.yul\":2923:3103   */\n    tag_419:\n        /* \"#utility.yul\":2971:3048   */\n      0x4e487b7100000000000000000000000000000000000000000000000000000000\n        /* \"#utility.yul\":2968:2969   */\n      0x00\n        /* \"#utility.yul\":2961:3049   */\n      mstore\n        /* \"#utility.yul\":3068:3072   */\n      0x41\n        /* \"#utility.yul\":3065:3066   */\n      0x04\n        /* \"#utility.yul\":3058:3073   */\n      mstore\n        /* \"#utility.yul\":3092:3096   */\n      0x24\n        /* \"#utility.yul\":3089:3090   */\n      0x00\n        /* \"#utility.yul\":3082:3097   */\n      revert\n        /* \"#utility.yul\":3109:3390   */\n    tag_472:\n        /* \"#utility.yul\":3192:3219   */\n      tag_582\n        /* \"#utility.yul\":3214:3218   */\n      dup3\n        /* \"#utility.yul\":3192:3219   */\n      tag_471\n      jump\t// in\n    tag_582:\n        /* \"#utility.yul\":3184:3190   */\n      dup2\n        /* \"#utility.yul\":3180:3220   */\n      add\n        /* \"#utility.yul\":3322:3328   */\n      dup2\n        /* \"#utility.yul\":3310:3320   */\n      dup2\n        /* \"#utility.yul\":3307:3329   */\n      lt\n        /* \"#utility.yul\":3286:3304   */\n      0xffffffffffffffff\n        /* \"#utility.yul\":3274:3284   */\n      dup3\n        /* \"#utility.yul\":3271:3305   */\n      gt\n        /* \"#utility.yul\":3268:3330   */\n      or\n        /* \"#utility.yul\":3265:3353   */\n      iszero\n      tag_583\n      jumpi\n        /* \"#utility.yul\":3333:3351   */\n      tag_584\n      tag_419\n      jump\t// in\n    tag_584:\n        /* \"#utility.yul\":3265:3353   */\n    tag_583:\n        /* \"#utility.yul\":3373:3383   */\n      dup1\n        /* \"#utility.yul\":3369:3371   */\n      0x40\n        /* \"#utility.yul\":3362:3384   */\n      mstore\n        /* \"#utility.yul\":3152:3390   */\n      pop\n        /* \"#utility.yul\":3109:3390   */\n      pop\n      pop\n      jump\t// out\n        /* \"#utility.yul\":3396:3525   */\n    tag_473:\n        /* \"#utility.yul\":3430:3436   */\n      0x00\n        /* \"#utility.yul\":3457:3477   */\n      tag_586\n      tag_457\n      jump\t// in\n    tag_586:\n        /* \"#utility.yul\":3447:3477   */\n      swap1\n      pop\n        /* \"#utility.yul\":3486:3519   */\n      tag_587\n        /* \"#utility.yul\":3514:3518   */\n      dup3\n        /* \"#utility.yul\":3506:3512   */\n      dup3\n        /* \"#utility.yul\":3486:3519   */\n      tag_472\n      jump\t// in\n    tag_587:\n        /* \"#utility.yul\":3396:3525   */\n      swap2\n      swap1\n      pop\n      jump\t// out\n        /* \"#utility.yul\":3531:3782   */\n    tag_474:\n        /* \"#utility.yul\":3608:3612   */\n      0x00\n        /* \"#utility.yul\":3698:3716   */\n      0xffffffffffffffff\n        /* \"#utility.yul\":3690:3696   */\n      dup3\n        /* \"#utility.yul\":3687:3717   */\n      gt\n        /* \"#utility.yul\":3684:3740   */\n      iszero\n      tag_589\n      jumpi\n        /* \"#utility.yul\":3720:3738   */\n      tag_590\n      tag_419\n      jump\t// in\n    tag_590:\n        /* \"#utility.yul\":3684:3740   */\n    tag_589:\n        /* \"#utility.yul\":3770:3774   */\n      0x20\n        /* \"#utility.yul\":3762:3768   */\n      dup3\n        /* \"#utility.yul\":3758:3775   */\n      mul\n        /* \"#utility.yul\":3750:3775   */\n      swap1\n      pop\n        /* \"#utility.yul\":3531:3782   */\n      swap2\n      swap1\n      pop\n      jump\t// out\n        /* \"#utility.yul\":3788:3905   */\n    tag_475:\n        /* \"#utility.yul\":3897:3898   */\n      0x00\n        /* \"#utility.yul\":3894:3895   */\n      dup1\n        /* \"#utility.yul\":3887:3899   */\n      revert\n        /* \"#utility.yul\":3931:4577   */\n    tag_476:\n        /* \"#utility.yul\":4027:4032   */\n      0x00\n        /* \"#utility.yul\":4052:4133   */\n      tag_593\n        /* \"#utility.yul\":4068:4132   */\n      tag_594\n        /* \"#utility.yul\":4125:4131   */\n      dup5\n        /* \"#utility.yul\":4068:4132   */\n      tag_474\n      jump\t// in\n    tag_594:\n        /* \"#utility.yul\":4052:4133   */\n      tag_473\n      jump\t// in\n    tag_593:\n        /* \"#utility.yul\":4043:4133   */\n      swap1\n      pop\n        /* \"#utility.yul\":4153:4158   */\n      dup1\n        /* \"#utility.yul\":4206:4210   */\n      0x20\n        /* \"#utility.yul\":4198:4204   */\n      dup5\n        /* \"#utility.yul\":4194:4211   */\n      mul\n        /* \"#utility.yul\":4186:4192   */\n      dup4\n        /* \"#utility.yul\":4182:4212   */\n      add\n        /* \"#utility.yul\":4235:4238   */\n      dup6\n        /* \"#utility.yul\":4227:4233   */\n      dup2\n        /* \"#utility.yul\":4224:4239   */\n      gt\n        /* \"#utility.yul\":4221:4343   */\n      iszero\n      tag_595\n      jumpi\n        /* \"#utility.yul\":4254:4333   */\n      tag_596\n      tag_475\n      jump\t// in\n    tag_596:\n        /* \"#utility.yul\":4221:4343   */\n    tag_595:\n        /* \"#utility.yul\":4369:4375   */\n      dup4\n        /* \"#utility.yul\":4352:4571   */\n    tag_597:\n        /* \"#utility.yul\":4386:4392   */\n      dup2\n        /* \"#utility.yul\":4381:4384   */\n      dup2\n        /* \"#utility.yul\":4378:4393   */\n      lt\n        /* \"#utility.yul\":4352:4571   */\n      iszero\n      tag_599\n      jumpi\n        /* \"#utility.yul\":4461:4464   */\n      dup1\n        /* \"#utility.yul\":4490:4526   */\n      tag_600\n        /* \"#utility.yul\":4522:4525   */\n      dup9\n        /* \"#utility.yul\":4510:4520   */\n      dup3\n        /* \"#utility.yul\":4490:4526   */\n      tag_466\n      jump\t// in\n    tag_600:\n        /* \"#utility.yul\":4485:4488   */\n      dup5\n        /* \"#utility.yul\":4478:4527   */\n      mstore\n        /* \"#utility.yul\":4556:4560   */\n      0x20\n        /* \"#utility.yul\":4551:4554   */\n      dup5\n        /* \"#utility.yul\":4547:4561   */\n      add\n        /* \"#utility.yul\":4540:4561   */\n      swap4\n      pop\n        /* \"#utility.yul\":4428:4571   */\n      pop\n        /* \"#utility.yul\":4412:4416   */\n      0x20\n        /* \"#utility.yul\":4407:4410   */\n      dup2\n        /* \"#utility.yul\":4403:4417   */\n      add\n        /* \"#utility.yul\":4396:4417   */\n      swap1\n      pop\n        /* \"#utility.yul\":4352:4571   */\n      jump(tag_597)\n    tag_599:\n        /* \"#utility.yul\":4356:4377   */\n      pop\n        /* \"#utility.yul\":4033:4577   */\n      pop\n      pop\n        /* \"#utility.yul\":3931:4577   */\n      swap4\n      swap3\n      pop\n      pop\n      pop\n      jump\t// out\n        /* \"#utility.yul\":4603:4948   */\n    tag_477:\n        /* \"#utility.yul\":4674:4679   */\n      0x00\n        /* \"#utility.yul\":4723:4726   */\n      dup3\n        /* \"#utility.yul\":4716:4720   */\n      0x1f\n        /* \"#utility.yul\":4708:4714   */\n      dup4\n        /* \"#utility.yul\":4704:4721   */\n      add\n        /* \"#utility.yul\":4700:4727   */\n      slt\n        /* \"#utility.yul\":4690:4812   */\n      tag_602\n      jumpi\n        /* \"#utility.yul\":4731:4810   */\n      tag_603\n      tag_470\n      jump\t// in\n    tag_603:\n        /* \"#utility.yul\":4690:4812   */\n    tag_602:\n        /* \"#utility.yul\":4835:4841   */\n      0x04b1\n        /* \"#utility.yul\":4859:4942   */\n      tag_604\n        /* \"#utility.yul\":4938:4941   */\n      dup5\n        /* \"#utility.yul\":4930:4936   */\n      dup3\n        /* \"#utility.yul\":4922:4928   */\n      dup6\n        /* \"#utility.yul\":4859:4942   */\n      tag_476\n      jump\t// in\n    tag_604:\n        /* \"#utility.yul\":4850:4942   */\n      swap2\n      pop\n        /* \"#utility.yul\":4680:4948   */\n      pop\n        /* \"#utility.yul\":4603:4948   */\n      swap3\n      swap2\n      pop\n      pop\n      jump\t// out\n        /* \"#utility.yul\":4954:6061   */\n    tag_35:\n        /* \"#utility.yul\":5082:5088   */\n      0x00\n        /* \"#utility.yul\":5090:5096   */\n      dup1\n        /* \"#utility.yul\":5098:5104   */\n      0x00\n        /* \"#utility.yul\":5106:5112   */\n      dup1\n        /* \"#utility.yul\":5114:5120   */\n      0x00\n        /* \"#utility.yul\":5122:5128   */\n      dup1\n        /* \"#utility.yul\":5171:5176   */\n      0x96c0\n        /* \"#utility.yul\":5159:5168   */\n      dup8\n        /* \"#utility.yul\":5150:5157   */\n      dup10\n        /* \"#utility.yul\":5146:5169   */\n      sub\n        /* \"#utility.yul\":5142:5177   */\n      slt\n        /* \"#utility.yul\":5139:5261   */\n      iszero\n      tag_606\n      jumpi\n        /* \"#utility.yul\":5180:5259   */\n      tag_607\n      tag_458\n      jump\t// in\n    tag_607:\n        /* \"#utility.yul\":5139:5261   */\n    tag_606:\n        /* \"#utility.yul\":5300:5301   */\n      0x00\n        /* \"#utility.yul\":5325:5377   */\n      tag_608\n        /* \"#utility.yul\":5369:5376   */\n      dup10\n        /* \"#utility.yul\":5360:5366   */\n      dup3\n        /* \"#utility.yul\":5349:5358   */\n      dup11\n        /* \"#utility.yul\":5345:5367   */\n      add\n        /* \"#utility.yul\":5325:5377   */\n      tag_466\n      jump\t// in\n    tag_608:\n        /* \"#utility.yul\":5315:5377   */\n      swap7\n      pop\n        /* \"#utility.yul\":5271:5387   */\n      pop\n        /* \"#utility.yul\":5426:5428   */\n      0x20\n        /* \"#utility.yul\":5452:5505   */\n      tag_609\n        /* \"#utility.yul\":5497:5504   */\n      dup10\n        /* \"#utility.yul\":5488:5494   */\n      dup3\n        /* \"#utility.yul\":5477:5486   */\n      dup11\n        /* \"#utility.yul\":5473:5495   */\n      add\n        /* \"#utility.yul\":5452:5505   */\n      tag_469\n      jump\t// in\n    tag_609:\n        /* \"#utility.yul\":5442:5505   */\n      swap6\n      pop\n        /* \"#utility.yul\":5397:5515   */\n      pop\n        /* \"#utility.yul\":5554:5556   */\n      0x40\n        /* \"#utility.yul\":5580:5633   */\n      tag_610\n        /* \"#utility.yul\":5625:5632   */\n      dup10\n        /* \"#utility.yul\":5616:5622   */\n      dup3\n        /* \"#utility.yul\":5605:5614   */\n      dup11\n        /* \"#utility.yul\":5601:5623   */\n      add\n        /* \"#utility.yul\":5580:5633   */\n      tag_463\n      jump\t// in\n    tag_610:\n        /* \"#utility.yul\":5570:5633   */\n      swap5\n      pop\n        /* \"#utility.yul\":5525:5643   */\n      pop\n        /* \"#utility.yul\":5682:5684   */\n      0x60\n        /* \"#utility.yul\":5708:5761   */\n      tag_611\n        /* \"#utility.yul\":5753:5760   */\n      dup10\n        /* \"#utility.yul\":5744:5750   */\n      dup3\n        /* \"#utility.yul\":5733:5742   */\n      dup11\n        /* \"#utility.yul\":5729:5751   */\n      add\n        /* \"#utility.yul\":5708:5761   */\n      tag_463\n      jump\t// in\n    tag_611:\n        /* \"#utility.yul\":5698:5761   */\n      swap4\n      pop\n        /* \"#utility.yul\":5653:5771   */\n      pop\n        /* \"#utility.yul\":5810:5813   */\n      0x80\n        /* \"#utility.yul\":5837:5890   */\n      tag_612\n        /* \"#utility.yul\":5882:5889   */\n      dup10\n        /* \"#utility.yul\":5873:5879   */\n      dup3\n        /* \"#utility.yul\":5862:5871   */\n      dup11\n        /* \"#utility.yul\":5858:5880   */\n      add\n        /* \"#utility.yul\":5837:5890   */\n      tag_469\n      jump\t// in\n    tag_612:\n        /* \"#utility.yul\":5827:5890   */\n      swap3\n      pop\n        /* \"#utility.yul\":5781:5900   */\n      pop\n        /* \"#utility.yul\":5939:5942   */\n      0xa0\n        /* \"#utility.yul\":5966:6044   */\n      tag_613\n        /* \"#utility.yul\":6036:6043   */\n      dup10\n        /* \"#utility.yul\":6027:6033   */\n      dup3\n        /* \"#utility.yul\":6016:6025   */\n      dup11\n        /* \"#utility.yul\":6012:6034   */\n      add\n        /* \"#utility.yul\":5966:6044   */\n      tag_477\n      jump\t// in\n    tag_613:\n        /* \"#utility.yul\":5956:6044   */\n      swap2\n      pop\n        /* \"#utility.yul\":5910:6054   */\n      pop\n        /* \"#utility.yul\":4954:6061   */\n      swap3\n      swap6\n      pop\n      swap3\n      swap6\n      pop\n      swap3\n      swap6\n      jump\t// out\n        /* \"#utility.yul\":6067:6144   */\n    tag_478:\n        /* \"#utility.yul\":6104:6111   */\n      0x00\n        /* \"#utility.yul\":6133:6138   */\n      dup2\n        /* \"#utility.yul\":6122:6138   */\n      swap1\n      pop\n        /* \"#utility.yul\":6067:6144   */\n      swap2\n      swap1\n      pop\n      jump\t// out\n        /* \"#utility.yul\":6150:6268   */\n    tag_479:\n        /* \"#utility.yul\":6237:6261   */\n      tag_616\n        /* \"#utility.yul\":6255:6260   */\n      dup2\n        /* \"#utility.yul\":6237:6261   */\n      tag_478\n      jump\t// in\n    tag_616:\n        /* \"#utility.yul\":6232:6235   */\n      dup3\n        /* \"#utility.yul\":6225:6262   */\n      mstore\n        /* \"#utility.yul\":6150:6268   */\n      pop\n      pop\n      jump\t// out\n        /* \"#utility.yul\":6274:6496   */\n    tag_48:\n        /* \"#utility.yul\":6367:6371   */\n      0x00\n        /* \"#utility.yul\":6405:6407   */\n      0x20\n        /* \"#utility.yul\":6394:6403   */\n      dup3\n        /* \"#utility.yul\":6390:6408   */\n      add\n        /* \"#utility.yul\":6382:6408   */\n      swap1\n      pop\n        /* \"#utility.yul\":6418:6489   */\n      tag_618\n        /* \"#utility.yul\":6486:6487   */\n      0x00\n        /* \"#utility.yul\":6475:6484   */\n      dup4\n        /* \"#utility.yul\":6471:6488   */\n      add\n        /* \"#utility.yul\":6462:6468   */\n      dup5\n        /* \"#utility.yul\":6418:6489   */\n      tag_479\n      jump\t// in\n    tag_618:\n        /* \"#utility.yul\":6274:6496   */\n      swap3\n      swap2\n      pop\n      pop\n      jump\t// out\n        /* \"#utility.yul\":6502:6831   */\n    tag_52:\n        /* \"#utility.yul\":6561:6567   */\n      0x00\n        /* \"#utility.yul\":6610:6612   */\n      0x20\n        /* \"#utility.yul\":6598:6607   */\n      dup3\n        /* \"#utility.yul\":6589:6596   */\n      dup5\n        /* \"#utility.yul\":6585:6608   */\n      sub\n        /* \"#utility.yul\":6581:6613   */\n      slt\n        /* \"#utility.yul\":6578:6697   */\n      iszero\n      tag_620\n      jumpi\n        /* \"#utility.yul\":6616:6695   */\n      tag_621\n      tag_458\n      jump\t// in\n    tag_621:\n        /* \"#utility.yul\":6578:6697   */\n    tag_620:\n        /* \"#utility.yul\":6736:6737   */\n      0x00\n        /* \"#utility.yul\":6761:6814   */\n      tag_622\n        /* \"#utility.yul\":6806:6813   */\n      dup5\n        /* \"#utility.yul\":6797:6803   */\n      dup3\n        /* \"#utility.yul\":6786:6795   */\n      dup6\n        /* \"#utility.yul\":6782:6804   */\n      add\n        /* \"#utility.yul\":6761:6814   */\n      tag_463\n      jump\t// in\n    tag_622:\n        /* \"#utility.yul\":6751:6814   */\n      swap2\n      pop\n        /* \"#utility.yul\":6707:6824   */\n      pop\n        /* \"#utility.yul\":6502:6831   */\n      swap3\n      swap2\n      pop\n      pop\n      jump\t// out\n        /* \"#utility.yul\":6837:6952   */\n    tag_480:\n        /* \"#utility.yul\":6922:6945   */\n      tag_624\n        /* \"#utility.yul\":6939:6944   */\n      dup2\n        /* \"#utility.yul\":6922:6945   */\n      tag_464\n      jump\t// in\n    tag_624:\n        /* \"#utility.yul\":6917:6920   */\n      dup3\n        /* \"#utility.yul\":6910:6946   */\n      mstore\n        /* \"#utility.yul\":6837:6952   */\n      pop\n      pop\n      jump\t// out\n        /* \"#utility.yul\":6958:7176   */\n    tag_55:\n        /* \"#utility.yul\":7049:7053   */\n      0x00\n        /* \"#utility.yul\":7087:7089   */\n      0x20\n        /* \"#utility.yul\":7076:7085   */\n      dup3\n        /* \"#utility.yul\":7072:7090   */\n      add\n        /* \"#utility.yul\":7064:7090   */\n      swap1\n      pop\n        /* \"#utility.yul\":7100:7169   */\n      tag_626\n        /* \"#utility.yul\":7166:7167   */\n      0x00\n        /* \"#utility.yul\":7155:7164   */\n      dup4\n        /* \"#utility.yul\":7151:7168   */\n      add\n        /* \"#utility.yul\":7142:7148   */\n      dup5\n        /* \"#utility.yul\":7100:7169   */\n      tag_480\n      jump\t// in\n    tag_626:\n        /* \"#utility.yul\":6958:7176   */\n      swap3\n      swap2\n      pop\n      pop\n      jump\t// out\n        /* \"#utility.yul\":7182:7509   */\n    tag_59:\n        /* \"#utility.yul\":7240:7246   */\n      0x00\n        /* \"#utility.yul\":7289:7291   */\n      0x20\n        /* \"#utility.yul\":7277:7286   */\n      dup3\n        /* \"#utility.yul\":7268:7275   */\n      dup5\n        /* \"#utility.yul\":7264:7287   */\n      sub\n        /* \"#utility.yul\":7260:7292   */\n      slt\n        /* \"#utility.yul\":7257:7376   */\n      iszero\n      tag_628\n      jumpi\n        /* \"#utility.yul\":7295:7374   */\n      tag_629\n      tag_458\n      jump\t// in\n    tag_629:\n        /* \"#utility.yul\":7257:7376   */\n    tag_628:\n        /* \"#utility.yul\":7415:7416   */\n      0x00\n        /* \"#utility.yul\":7440:7492   */\n      tag_630\n        /* \"#utility.yul\":7484:7491   */\n      dup5\n        /* \"#utility.yul\":7475:7481   */\n      dup3\n        /* \"#utility.yul\":7464:7473   */\n      dup6\n        /* \"#utility.yul\":7460:7482   */\n      add\n        /* \"#utility.yul\":7440:7492   */\n      tag_466\n      jump\t// in\n    tag_630:\n        /* \"#utility.yul\":7430:7492   */\n      swap2\n      pop\n        /* \"#utility.yul\":7386:7502   */\n      pop\n        /* \"#utility.yul\":7182:7509   */\n      swap3\n      swap2\n      pop\n      pop\n      jump\t// out\n        /* \"#utility.yul\":7515:7633   */\n    tag_481:\n        /* \"#utility.yul\":7602:7626   */\n      tag_632\n        /* \"#utility.yul\":7620:7625   */\n      dup2\n        /* \"#utility.yul\":7602:7626   */\n      tag_461\n      jump\t// in\n    tag_632:\n        /* \"#utility.yul\":7597:7600   */\n      dup3\n        /* \"#utility.yul\":7590:7627   */\n      mstore\n        /* \"#utility.yul\":7515:7633   */\n      pop\n      pop\n      jump\t// out\n        /* \"#utility.yul\":7639:7861   */\n    tag_62:\n        /* \"#utility.yul\":7732:7736   */\n      0x00\n        /* \"#utility.yul\":7770:7772   */\n      0x20\n        /* \"#utility.yul\":7759:7768   */\n      dup3\n        /* \"#utility.yul\":7755:7773   */\n      add\n        /* \"#utility.yul\":7747:7773   */\n      swap1\n      pop\n        /* \"#utility.yul\":7783:7854   */\n      tag_634\n        /* \"#utility.yul\":7851:7852   */\n      0x00\n        /* \"#utility.yul\":7840:7849   */\n      dup4\n        /* \"#utility.yul\":7836:7853   */\n      add\n        /* \"#utility.yul\":7827:7833   */\n      dup5\n        /* \"#utility.yul\":7783:7854   */\n      tag_481\n      jump\t// in\n    tag_634:\n        /* \"#utility.yul\":7639:7861   */\n      swap3\n      swap2\n      pop\n      pop\n      jump\t// out\n        /* \"#utility.yul\":7867:8017   */\n    tag_482:\n        /* \"#utility.yul\":7904:7911   */\n      0x00\n        /* \"#utility.yul\":7944:8010   */\n      0xffffffffffffffffffff00000000000000000000000000000000000000000000\n        /* \"#utility.yul\":7937:7942   */\n      dup3\n        /* \"#utility.yul\":7933:8011   */\n      and\n        /* \"#utility.yul\":7922:8011   */\n      swap1\n      pop\n        /* \"#utility.yul\":7867:8017   */\n      swap2\n      swap1\n      pop\n      jump\t// out\n        /* \"#utility.yul\":8023:8141   */\n    tag_483:\n        /* \"#utility.yul\":8110:8134   */\n      tag_637\n        /* \"#utility.yul\":8128:8133   */\n      dup2\n        /* \"#utility.yul\":8110:8134   */\n      tag_482\n      jump\t// in\n    tag_637:\n        /* \"#utility.yul\":8105:8108   */\n      dup3\n        /* \"#utility.yul\":8098:8135   */\n      mstore\n        /* \"#utility.yul\":8023:8141   */\n      pop\n      pop\n      jump\t// out\n        /* \"#utility.yul\":8147:8369   */\n    tag_72:\n        /* \"#utility.yul\":8240:8244   */\n      0x00\n        /* \"#utility.yul\":8278:8280   */\n      0x20\n        /* \"#utility.yul\":8267:8276   */\n      dup3\n        /* \"#utility.yul\":8263:8281   */\n      add\n        /* \"#utility.yul\":8255:8281   */\n      swap1\n      pop\n        /* \"#utility.yul\":8291:8362   */\n      tag_639\n        /* \"#utility.yul\":8359:8360   */\n      0x00\n        /* \"#utility.yul\":8348:8357   */\n      dup4\n        /* \"#utility.yul\":8344:8361   */\n      add\n        /* \"#utility.yul\":8335:8341   */\n      dup5\n        /* \"#utility.yul\":8291:8362   */\n      tag_483\n      jump\t// in\n    tag_639:\n        /* \"#utility.yul\":8147:8369   */\n      swap3\n      swap2\n      pop\n      pop\n      jump\t// out\n        /* \"#utility.yul\":8375:8465   */\n    tag_484:\n        /* \"#utility.yul\":8409:8416   */\n      0x00\n        /* \"#utility.yul\":8452:8457   */\n      dup2\n        /* \"#utility.yul\":8445:8458   */\n      iszero\n        /* \"#utility.yul\":8438:8459   */\n      iszero\n        /* \"#utility.yul\":8427:8459   */\n      swap1\n      pop\n        /* \"#utility.yul\":8375:8465   */\n      swap2\n      swap1\n      pop\n      jump\t// out\n        /* \"#utility.yul\":8471:8587   */\n    tag_485:\n        /* \"#utility.yul\":8541:8562   */\n      tag_642\n        /* \"#utility.yul\":8556:8561   */\n      dup2\n        /* \"#utility.yul\":8541:8562   */\n      tag_484\n      jump\t// in\n    tag_642:\n        /* \"#utility.yul\":8534:8539   */\n      dup2\n        /* \"#utility.yul\":8531:8563   */\n      eq\n        /* \"#utility.yul\":8521:8581   */\n      tag_643\n      jumpi\n        /* \"#utility.yul\":8577:8578   */\n      0x00\n        /* \"#utility.yul\":8574:8575   */\n      dup1\n        /* \"#utility.yul\":8567:8579   */\n      revert\n        /* \"#utility.yul\":8521:8581   */\n    tag_643:\n        /* \"#utility.yul\":8471:8587   */\n      pop\n      jump\t// out\n        /* \"#utility.yul\":8593:8726   */\n    tag_486:\n        /* \"#utility.yul\":8636:8641   */\n      0x00\n        /* \"#utility.yul\":8674:8680   */\n      dup2\n        /* \"#utility.yul\":8661:8681   */\n      calldataload\n        /* \"#utility.yul\":8652:8681   */\n      swap1\n      pop\n        /* \"#utility.yul\":8690:8720   */\n      tag_645\n        /* \"#utility.yul\":8714:8719   */\n      dup2\n        /* \"#utility.yul\":8690:8720   */\n      tag_485\n      jump\t// in\n    tag_645:\n        /* \"#utility.yul\":8593:8726   */\n      swap3\n      swap2\n      pop\n      pop\n      jump\t// out\n        /* \"#utility.yul\":8732:9200   */\n    tag_76:\n        /* \"#utility.yul\":8797:8803   */\n      0x00\n        /* \"#utility.yul\":8805:8811   */\n      dup1\n        /* \"#utility.yul\":8854:8856   */\n      0x40\n        /* \"#utility.yul\":8842:8851   */\n      dup4\n        /* \"#utility.yul\":8833:8840   */\n      dup6\n        /* \"#utility.yul\":8829:8852   */\n      sub\n        /* \"#utility.yul\":8825:8857   */\n      slt\n        /* \"#utility.yul\":8822:8941   */\n      iszero\n      tag_647\n      jumpi\n        /* \"#utility.yul\":8860:8939   */\n      tag_648\n      tag_458\n      jump\t// in\n    tag_648:\n        /* \"#utility.yul\":8822:8941   */\n    tag_647:\n        /* \"#utility.yul\":8980:8981   */\n      0x00\n        /* \"#utility.yul\":9005:9058   */\n      tag_649\n        /* \"#utility.yul\":9050:9057   */\n      dup6\n        /* \"#utility.yul\":9041:9047   */\n      dup3\n        /* \"#utility.yul\":9030:9039   */\n      dup7\n        /* \"#utility.yul\":9026:9048   */\n      add\n        /* \"#utility.yul\":9005:9058   */\n      tag_463\n      jump\t// in\n    tag_649:\n        /* \"#utility.yul\":8995:9058   */\n      swap3\n      pop\n        /* \"#utility.yul\":8951:9068   */\n      pop\n        /* \"#utility.yul\":9107:9109   */\n      0x20\n        /* \"#utility.yul\":9133:9183   */\n      tag_650\n        /* \"#utility.yul\":9175:9182   */\n      dup6\n        /* \"#utility.yul\":9166:9172   */\n      dup3\n        /* \"#utility.yul\":9155:9164   */\n      dup7\n        /* \"#utility.yul\":9151:9173   */\n      add\n        /* \"#utility.yul\":9133:9183   */\n      tag_486\n      jump\t// in\n    tag_650:\n        /* \"#utility.yul\":9123:9183   */\n      swap2\n      pop\n        /* \"#utility.yul\":9078:9193   */\n      pop\n        /* \"#utility.yul\":8732:9200   */\n      swap3\n      pop\n      swap3\n      swap1\n      pop\n      jump\t// out\n        /* \"#utility.yul\":9206:9323   */\n    tag_487:\n        /* \"#utility.yul\":9315:9316   */\n      0x00\n        /* \"#utility.yul\":9312:9313   */\n      dup1\n        /* \"#utility.yul\":9305:9317   */\n      revert\n        /* \"#utility.yul\":9329:9636   */\n    tag_488:\n        /* \"#utility.yul\":9390:9394   */\n      0x00\n        /* \"#utility.yul\":9480:9498   */\n      0xffffffffffffffff\n        /* \"#utility.yul\":9472:9478   */\n      dup3\n        /* \"#utility.yul\":9469:9499   */\n      gt\n        /* \"#utility.yul\":9466:9522   */\n      iszero\n      tag_653\n      jumpi\n        /* \"#utility.yul\":9502:9520   */\n      tag_654\n      tag_419\n      jump\t// in\n    tag_654:\n        /* \"#utility.yul\":9466:9522   */\n    tag_653:\n        /* \"#utility.yul\":9540:9569   */\n      tag_655\n        /* \"#utility.yul\":9562:9568   */\n      dup3\n        /* \"#utility.yul\":9540:9569   */\n      tag_471\n      jump\t// in\n    tag_655:\n        /* \"#utility.yul\":9532:9569   */\n      swap1\n      pop\n        /* \"#utility.yul\":9624:9628   */\n      0x20\n        /* \"#utility.yul\":9618:9622   */\n      dup2\n        /* \"#utility.yul\":9614:9629   */\n      add\n        /* \"#utility.yul\":9606:9629   */\n      swap1\n      pop\n        /* \"#utility.yul\":9329:9636   */\n      swap2\n      swap1\n      pop\n      jump\t// out\n        /* \"#utility.yul\":9642:9788   */\n    tag_489:\n        /* \"#utility.yul\":9739:9745   */\n      dup3\n        /* \"#utility.yul\":9734:9737   */\n      dup2\n        /* \"#utility.yul\":9729:9732   */\n      dup4\n        /* \"#utility.yul\":9716:9746   */\n      calldatacopy\n        /* \"#utility.yul\":9780:9781   */\n      0x00\n        /* \"#utility.yul\":9771:9777   */\n      dup4\n        /* \"#utility.yul\":9766:9769   */\n      dup4\n        /* \"#utility.yul\":9762:9778   */\n      add\n        /* \"#utility.yul\":9755:9782   */\n      mstore\n        /* \"#utility.yul\":9642:9788   */\n      pop\n      pop\n      pop\n      jump\t// out\n        /* \"#utility.yul\":9794:10217   */\n    tag_490:\n        /* \"#utility.yul\":9871:9876   */\n      0x00\n        /* \"#utility.yul\":9896:9961   */\n      tag_658\n        /* \"#utility.yul\":9912:9960   */\n      tag_659\n        /* \"#utility.yul\":9953:9959   */\n      dup5\n        /* \"#utility.yul\":9912:9960   */\n      tag_488\n      jump\t// in\n    tag_659:\n        /* \"#utility.yul\":9896:9961   */\n      tag_473\n      jump\t// in\n    tag_658:\n        /* \"#utility.yul\":9887:9961   */\n      swap1\n      pop\n        /* \"#utility.yul\":9984:9990   */\n      dup3\n        /* \"#utility.yul\":9977:9982   */\n      dup2\n        /* \"#utility.yul\":9970:9991   */\n      mstore\n        /* \"#utility.yul\":10022:10026   */\n      0x20\n        /* \"#utility.yul\":10015:10020   */\n      dup2\n        /* \"#utility.yul\":10011:10027   */\n      add\n        /* \"#utility.yul\":10060:10063   */\n      dup5\n        /* \"#utility.yul\":10051:10057   */\n      dup5\n        /* \"#utility.yul\":10046:10049   */\n      dup5\n        /* \"#utility.yul\":10042:10058   */\n      add\n        /* \"#utility.yul\":10039:10064   */\n      gt\n        /* \"#utility.yul\":10036:10148   */\n      iszero\n      tag_660\n      jumpi\n        /* \"#utility.yul\":10067:10146   */\n      tag_661\n      tag_487\n      jump\t// in\n    tag_661:\n        /* \"#utility.yul\":10036:10148   */\n    tag_660:\n        /* \"#utility.yul\":10157:10211   */\n      tag_662\n        /* \"#utility.yul\":10204:10210   */\n      dup5\n        /* \"#utility.yul\":10199:10202   */\n      dup3\n        /* \"#utility.yul\":10194:10197   */\n      dup6\n        /* \"#utility.yul\":10157:10211   */\n      tag_489\n      jump\t// in\n    tag_662:\n        /* \"#utility.yul\":9877:10217   */\n      pop\n        /* \"#utility.yul\":9794:10217   */\n      swap4\n      swap3\n      pop\n      pop\n      pop\n      jump\t// out\n        /* \"#utility.yul\":10236:10574   */\n    tag_491:\n        /* \"#utility.yul\":10291:10296   */\n      0x00\n        /* \"#utility.yul\":10340:10343   */\n      dup3\n        /* \"#utility.yul\":10333:10337   */\n      0x1f\n        /* \"#utility.yul\":10325:10331   */\n      dup4\n        /* \"#utility.yul\":10321:10338   */\n      add\n        /* \"#utility.yul\":10317:10344   */\n      slt\n        /* \"#utility.yul\":10307:10429   */\n      tag_664\n      jumpi\n        /* \"#utility.yul\":10348:10427   */\n      tag_665\n      tag_470\n      jump\t// in\n    tag_665:\n        /* \"#utility.yul\":10307:10429   */\n    tag_664:\n        /* \"#utility.yul\":10465:10471   */\n      dup2\n        /* \"#utility.yul\":10452:10472   */\n      calldataload\n        /* \"#utility.yul\":10490:10568   */\n      tag_666\n        /* \"#utility.yul\":10564:10567   */\n      dup5\n        /* \"#utility.yul\":10556:10562   */\n      dup3\n        /* \"#utility.yul\":10549:10553   */\n      0x20\n        /* \"#utility.yul\":10541:10547   */\n      dup7\n        /* \"#utility.yul\":10537:10554   */\n      add\n        /* \"#utility.yul\":10490:10568   */\n      tag_490\n      jump\t// in\n    tag_666:\n        /* \"#utility.yul\":10481:10568   */\n      swap2\n      pop\n        /* \"#utility.yul\":10297:10574   */\n      pop\n        /* \"#utility.yul\":10236:10574   */\n      swap3\n      swap2\n      pop\n      pop\n      jump\t// out\n        /* \"#utility.yul\":10580:11521   */\n    tag_81:\n        /* \"#utility.yul\":10674:10680   */\n      0x00\n        /* \"#utility.yul\":10682:10688   */\n      dup1\n        /* \"#utility.yul\":10690:10696   */\n      0x00\n        /* \"#utility.yul\":10698:10704   */\n      dup1\n        /* \"#utility.yul\":10747:10750   */\n      0x80\n        /* \"#utility.yul\":10735:10744   */\n      dup6\n        /* \"#utility.yul\":10726:10733   */\n      dup8\n        /* \"#utility.yul\":10722:10745   */\n      sub\n        /* \"#utility.yul\":10718:10751   */\n      slt\n        /* \"#utility.yul\":10715:10835   */\n      iszero\n      tag_668\n      jumpi\n        /* \"#utility.yul\":10754:10833   */\n      tag_669\n      tag_458\n      jump\t// in\n    tag_669:\n        /* \"#utility.yul\":10715:10835   */\n    tag_668:\n        /* \"#utility.yul\":10874:10875   */\n      0x00\n        /* \"#utility.yul\":10899:10952   */\n      tag_670\n        /* \"#utility.yul\":10944:10951   */\n      dup8\n        /* \"#utility.yul\":10935:10941   */\n      dup3\n        /* \"#utility.yul\":10924:10933   */\n      dup9\n        /* \"#utility.yul\":10920:10942   */\n      add\n        /* \"#utility.yul\":10899:10952   */\n      tag_463\n      jump\t// in\n    tag_670:\n        /* \"#utility.yul\":10889:10952   */\n      swap5\n      pop\n        /* \"#utility.yul\":10845:10962   */\n      pop\n        /* \"#utility.yul\":11001:11003   */\n      0x20\n        /* \"#utility.yul\":11027:11080   */\n      tag_671\n        /* \"#utility.yul\":11072:11079   */\n      dup8\n        /* \"#utility.yul\":11063:11069   */\n      dup3\n        /* \"#utility.yul\":11052:11061   */\n      dup9\n        /* \"#utility.yul\":11048:11070   */\n      add\n        /* \"#utility.yul\":11027:11080   */\n      tag_463\n      jump\t// in\n    tag_671:\n        /* \"#utility.yul\":11017:11080   */\n      swap4\n      pop\n        /* \"#utility.yul\":10972:11090   */\n      pop\n        /* \"#utility.yul\":11129:11131   */\n      0x40\n        /* \"#utility.yul\":11155:11207   */\n      tag_672\n        /* \"#utility.yul\":11199:11206   */\n      dup8\n        /* \"#utility.yul\":11190:11196   */\n      dup3\n        /* \"#utility.yul\":11179:11188   */\n      dup9\n        /* \"#utility.yul\":11175:11197   */\n      add\n        /* \"#utility.yul\":11155:11207   */\n      tag_466\n      jump\t// in\n    tag_672:\n        /* \"#utility.yul\":11145:11207   */\n      swap3\n      pop\n        /* \"#utility.yul\":11100:11217   */\n      pop\n        /* \"#utility.yul\":11284:11286   */\n      0x60\n        /* \"#utility.yul\":11273:11282   */\n      dup6\n        /* \"#utility.yul\":11269:11287   */\n      add\n        /* \"#utility.yul\":11256:11288   */\n      calldataload\n        /* \"#utility.yul\":11315:11333   */\n      0xffffffffffffffff\n        /* \"#utility.yul\":11307:11313   */\n      dup2\n        /* \"#utility.yul\":11304:11334   */\n      gt\n        /* \"#utility.yul\":11301:11418   */\n      iszero\n      tag_673\n      jumpi\n        /* \"#utility.yul\":11337:11416   */\n      tag_674\n      tag_459\n      jump\t// in\n    tag_674:\n        /* \"#utility.yul\":11301:11418   */\n    tag_673:\n        /* \"#utility.yul\":11442:11504   */\n      tag_675\n        /* \"#utility.yul\":11496:11503   */\n      dup8\n        /* \"#utility.yul\":11487:11493   */\n      dup3\n        /* \"#utility.yul\":11476:11485   */\n      dup9\n        /* \"#utility.yul\":11472:11494   */\n      add\n        /* \"#utility.yul\":11442:11504   */\n      tag_491\n      jump\t// in\n    tag_675:\n        /* \"#utility.yul\":11432:11504   */\n      swap2\n      pop\n        /* \"#utility.yul\":11227:11514   */\n      pop\n        /* \"#utility.yul\":10580:11521   */\n      swap3\n      swap6\n      swap2\n      swap5\n      pop\n      swap3\n      pop\n      jump\t// out\n        /* \"#utility.yul\":11527:11644   */\n    tag_492:\n        /* \"#utility.yul\":11636:11637   */\n      0x00\n        /* \"#utility.yul\":11633:11634   */\n      dup1\n        /* \"#utility.yul\":11626:11638   */\n      revert\n        /* \"#utility.yul\":11663:12215   */\n    tag_493:\n        /* \"#utility.yul\":11720:11728   */\n      0x00\n        /* \"#utility.yul\":11730:11736   */\n      dup1\n        /* \"#utility.yul\":11780:11783   */\n      dup4\n        /* \"#utility.yul\":11773:11777   */\n      0x1f\n        /* \"#utility.yul\":11765:11771   */\n      dup5\n        /* \"#utility.yul\":11761:11778   */\n      add\n        /* \"#utility.yul\":11757:11784   */\n      slt\n        /* \"#utility.yul\":11747:11869   */\n      tag_678\n      jumpi\n        /* \"#utility.yul\":11788:11867   */\n      tag_679\n      tag_470\n      jump\t// in\n    tag_679:\n        /* \"#utility.yul\":11747:11869   */\n    tag_678:\n        /* \"#utility.yul\":11901:11907   */\n      dup3\n        /* \"#utility.yul\":11888:11908   */\n      calldataload\n        /* \"#utility.yul\":11878:11908   */\n      swap1\n      pop\n        /* \"#utility.yul\":11931:11949   */\n      0xffffffffffffffff\n        /* \"#utility.yul\":11923:11929   */\n      dup2\n        /* \"#utility.yul\":11920:11950   */\n      gt\n        /* \"#utility.yul\":11917:12034   */\n      iszero\n      tag_680\n      jumpi\n        /* \"#utility.yul\":11953:12032   */\n      tag_681\n      tag_492\n      jump\t// in\n    tag_681:\n        /* \"#utility.yul\":11917:12034   */\n    tag_680:\n        /* \"#utility.yul\":12067:12071   */\n      0x20\n        /* \"#utility.yul\":12059:12065   */\n      dup4\n        /* \"#utility.yul\":12055:12072   */\n      add\n        /* \"#utility.yul\":12043:12072   */\n      swap2\n      pop\n        /* \"#utility.yul\":12121:12124   */\n      dup4\n        /* \"#utility.yul\":12113:12117   */\n      0x01\n        /* \"#utility.yul\":12105:12111   */\n      dup3\n        /* \"#utility.yul\":12101:12118   */\n      mul\n        /* \"#utility.yul\":12091:12099   */\n      dup4\n        /* \"#utility.yul\":12087:12119   */\n      add\n        /* \"#utility.yul\":12084:12125   */\n      gt\n        /* \"#utility.yul\":12081:12209   */\n      iszero\n      tag_682\n      jumpi\n        /* \"#utility.yul\":12128:12207   */\n      tag_683\n      tag_475\n      jump\t// in\n    tag_683:\n        /* \"#utility.yul\":12081:12209   */\n    tag_682:\n        /* \"#utility.yul\":11663:12215   */\n      swap3\n      pop\n      swap3\n      swap1\n      pop\n      jump\t// out\n        /* \"#utility.yul\":12221:13182   */\n    tag_86:\n        /* \"#utility.yul\":12317:12323   */\n      0x00\n        /* \"#utility.yul\":12325:12331   */\n      dup1\n        /* \"#utility.yul\":12333:12339   */\n      0x00\n        /* \"#utility.yul\":12341:12347   */\n      dup1\n        /* \"#utility.yul\":12349:12355   */\n      0x00\n        /* \"#utility.yul\":12398:12401   */\n      0x80\n        /* \"#utility.yul\":12386:12395   */\n      dup7\n        /* \"#utility.yul\":12377:12384   */\n      dup9\n        /* \"#utility.yul\":12373:12396   */\n      sub\n        /* \"#utility.yul\":12369:12402   */\n      slt\n        /* \"#utility.yul\":12366:12486   */\n      iszero\n      tag_685\n      jumpi\n        /* \"#utility.yul\":12405:12484   */\n      tag_686\n      tag_458\n      jump\t// in\n    tag_686:\n        /* \"#utility.yul\":12366:12486   */\n    tag_685:\n        /* \"#utility.yul\":12525:12526   */\n      0x00\n        /* \"#utility.yul\":12550:12603   */\n      tag_687\n        /* \"#utility.yul\":12595:12602   */\n      dup9\n        /* \"#utility.yul\":12586:12592   */\n      dup3\n        /* \"#utility.yul\":12575:12584   */\n      dup10\n        /* \"#utility.yul\":12571:12593   */\n      add\n        /* \"#utility.yul\":12550:12603   */\n      tag_463\n      jump\t// in\n    tag_687:\n        /* \"#utility.yul\":12540:12603   */\n      swap6\n      pop\n        /* \"#utility.yul\":12496:12613   */\n      pop\n        /* \"#utility.yul\":12652:12654   */\n      0x20\n        /* \"#utility.yul\":12678:12731   */\n      tag_688\n        /* \"#utility.yul\":12723:12730   */\n      dup9\n        /* \"#utility.yul\":12714:12720   */\n      dup3\n        /* \"#utility.yul\":12703:12712   */\n      dup10\n        /* \"#utility.yul\":12699:12721   */\n      add\n        /* \"#utility.yul\":12678:12731   */\n      tag_463\n      jump\t// in\n    tag_688:\n        /* \"#utility.yul\":12668:12731   */\n      swap5\n      pop\n        /* \"#utility.yul\":12623:12741   */\n      pop\n        /* \"#utility.yul\":12780:12782   */\n      0x40\n        /* \"#utility.yul\":12806:12858   */\n      tag_689\n        /* \"#utility.yul\":12850:12857   */\n      dup9\n        /* \"#utility.yul\":12841:12847   */\n      dup3\n        /* \"#utility.yul\":12830:12839   */\n      dup10\n        /* \"#utility.yul\":12826:12848   */\n      add\n        /* \"#utility.yul\":12806:12858   */\n      tag_466\n      jump\t// in\n    tag_689:\n        /* \"#utility.yul\":12796:12858   */\n      swap4\n      pop\n        /* \"#utility.yul\":12751:12868   */\n      pop\n        /* \"#utility.yul\":12935:12937   */\n      0x60\n        /* \"#utility.yul\":12924:12933   */\n      dup7\n        /* \"#utility.yul\":12920:12938   */\n      add\n        /* \"#utility.yul\":12907:12939   */\n      calldataload\n        /* \"#utility.yul\":12966:12984   */\n      0xffffffffffffffff\n        /* \"#utility.yul\":12958:12964   */\n      dup2\n        /* \"#utility.yul\":12955:12985   */\n      gt\n        /* \"#utility.yul\":12952:13069   */\n      iszero\n      tag_690\n      jumpi\n        /* \"#utility.yul\":12988:13067   */\n      tag_691\n      tag_459\n      jump\t// in\n    tag_691:\n        /* \"#utility.yul\":12952:13069   */\n    tag_690:\n        /* \"#utility.yul\":13101:13165   */\n      tag_692\n        /* \"#utility.yul\":13157:13164   */\n      dup9\n        /* \"#utility.yul\":13148:13154   */\n      dup3\n        /* \"#utility.yul\":13137:13146   */\n      dup10\n        /* \"#utility.yul\":13133:13155   */\n      add\n        /* \"#utility.yul\":13101:13165   */\n      tag_493\n      jump\t// in\n    tag_692:\n        /* \"#utility.yul\":13083:13165   */\n      swap3\n      pop\n      swap3\n      pop\n        /* \"#utility.yul\":12878:13175   */\n      pop\n        /* \"#utility.yul\":12221:13182   */\n      swap3\n      swap6\n      pop\n      swap3\n      swap6\n      swap1\n      swap4\n      pop\n      jump\t// out\n        /* \"#utility.yul\":13188:13337   */\n    tag_494:\n        /* \"#utility.yul\":13224:13231   */\n      0x00\n        /* \"#utility.yul\":13264:13330   */\n      0xffffffff00000000000000000000000000000000000000000000000000000000\n        /* \"#utility.yul\":13257:13262   */\n      dup3\n        /* \"#utility.yul\":13253:13331   */\n      and\n        /* \"#utility.yul\":13242:13331   */\n      swap1\n      pop\n        /* \"#utility.yul\":13188:13337   */\n      swap2\n      swap1\n      pop\n      jump\t// out\n        /* \"#utility.yul\":13343:13458   */\n    tag_495:\n        /* \"#utility.yul\":13428:13451   */\n      tag_695\n        /* \"#utility.yul\":13445:13450   */\n      dup2\n        /* \"#utility.yul\":13428:13451   */\n      tag_494\n      jump\t// in\n    tag_695:\n        /* \"#utility.yul\":13423:13426   */\n      dup3\n        /* \"#utility.yul\":13416:13452   */\n      mstore\n        /* \"#utility.yul\":13343:13458   */\n      pop\n      pop\n      jump\t// out\n        /* \"#utility.yul\":13464:13682   */\n    tag_89:\n        /* \"#utility.yul\":13555:13559   */\n      0x00\n        /* \"#utility.yul\":13593:13595   */\n      0x20\n        /* \"#utility.yul\":13582:13591   */\n      dup3\n        /* \"#utility.yul\":13578:13596   */\n      add\n        /* \"#utility.yul\":13570:13596   */\n      swap1\n      pop\n        /* \"#utility.yul\":13606:13675   */\n      tag_697\n        /* \"#utility.yul\":13672:13673   */\n      0x00\n        /* \"#utility.yul\":13661:13670   */\n      dup4\n        /* \"#utility.yul\":13657:13674   */\n      add\n        /* \"#utility.yul\":13648:13654   */\n      dup5\n        /* \"#utility.yul\":13606:13675   */\n      tag_495\n      jump\t// in\n    tag_697:\n        /* \"#utility.yul\":13464:13682   */\n      swap3\n      swap2\n      pop\n      pop\n      jump\t// out\n        /* \"#utility.yul\":13688:13785   */\n    tag_496:\n        /* \"#utility.yul\":13724:13731   */\n      0x00\n        /* \"#utility.yul\":13764:13778   */\n      0xffffffffffff\n        /* \"#utility.yul\":13757:13762   */\n      dup3\n        /* \"#utility.yul\":13753:13779   */\n      and\n        /* \"#utility.yul\":13742:13779   */\n      swap1\n      pop\n        /* \"#utility.yul\":13688:13785   */\n      swap2\n      swap1\n      pop\n      jump\t// out\n        /* \"#utility.yul\":13791:13911   */\n    tag_497:\n        /* \"#utility.yul\":13863:13886   */\n      tag_700\n        /* \"#utility.yul\":13880:13885   */\n      dup2\n        /* \"#utility.yul\":13863:13886   */\n      tag_496\n      jump\t// in\n    tag_700:\n        /* \"#utility.yul\":13856:13861   */\n      dup2\n        /* \"#utility.yul\":13853:13887   */\n      eq\n        /* \"#utility.yul\":13843:13905   */\n      tag_701\n      jumpi\n        /* \"#utility.yul\":13901:13902   */\n      0x00\n        /* \"#utility.yul\":13898:13899   */\n      dup1\n        /* \"#utility.yul\":13891:13903   */\n      revert\n        /* \"#utility.yul\":13843:13905   */\n    tag_701:\n        /* \"#utility.yul\":13791:13911   */\n      pop\n      jump\t// out\n        /* \"#utility.yul\":13917:14054   */\n    tag_498:\n        /* \"#utility.yul\":13962:13967   */\n      0x00\n        /* \"#utility.yul\":14000:14006   */\n      dup2\n        /* \"#utility.yul\":13987:14007   */\n      calldataload\n        /* \"#utility.yul\":13978:14007   */\n      swap1\n      pop\n        /* \"#utility.yul\":14016:14048   */\n      tag_703\n        /* \"#utility.yul\":14042:14047   */\n      dup2\n        /* \"#utility.yul\":14016:14048   */\n      tag_497\n      jump\t// in\n    tag_703:\n        /* \"#utility.yul\":13917:14054   */\n      swap3\n      swap2\n      pop\n      pop\n      jump\t// out\n        /* \"#utility.yul\":14060:14387   */\n    tag_92:\n        /* \"#utility.yul\":14118:14124   */\n      0x00\n        /* \"#utility.yul\":14167:14169   */\n      0x20\n        /* \"#utility.yul\":14155:14164   */\n      dup3\n        /* \"#utility.yul\":14146:14153   */\n      dup5\n        /* \"#utility.yul\":14142:14165   */\n      sub\n        /* \"#utility.yul\":14138:14170   */\n      slt\n        /* \"#utility.yul\":14135:14254   */\n      iszero\n      tag_705\n      jumpi\n        /* \"#utility.yul\":14173:14252   */\n      tag_706\n      tag_458\n      jump\t// in\n    tag_706:\n        /* \"#utility.yul\":14135:14254   */\n    tag_705:\n        /* \"#utility.yul\":14293:14294   */\n      0x00\n        /* \"#utility.yul\":14318:14370   */\n      tag_707\n        /* \"#utility.yul\":14362:14369   */\n      dup5\n        /* \"#utility.yul\":14353:14359   */\n      dup3\n        /* \"#utility.yul\":14342:14351   */\n      dup6\n        /* \"#utility.yul\":14338:14360   */\n      add\n        /* \"#utility.yul\":14318:14370   */\n      tag_498\n      jump\t// in\n    tag_707:\n        /* \"#utility.yul\":14308:14370   */\n      swap2\n      pop\n        /* \"#utility.yul\":14264:14380   */\n      pop\n        /* \"#utility.yul\":14060:14387   */\n      swap3\n      swap2\n      pop\n      pop\n      jump\t// out\n        /* \"#utility.yul\":14393:14491   */\n    tag_499:\n        /* \"#utility.yul\":14444:14450   */\n      0x00\n        /* \"#utility.yul\":14478:14483   */\n      dup2\n        /* \"#utility.yul\":14472:14484   */\n      mload\n        /* \"#utility.yul\":14462:14484   */\n      swap1\n      pop\n        /* \"#utility.yul\":14393:14491   */\n      swap2\n      swap1\n      pop\n      jump\t// out\n        /* \"#utility.yul\":14497:14665   */\n    tag_500:\n        /* \"#utility.yul\":14580:14591   */\n      0x00\n        /* \"#utility.yul\":14614:14620   */\n      dup3\n        /* \"#utility.yul\":14609:14612   */\n      dup3\n        /* \"#utility.yul\":14602:14621   */\n      mstore\n        /* \"#utility.yul\":14654:14658   */\n      0x20\n        /* \"#utility.yul\":14649:14652   */\n      dup3\n        /* \"#utility.yul\":14645:14659   */\n      add\n        /* \"#utility.yul\":14630:14659   */\n      swap1\n      pop\n        /* \"#utility.yul\":14497:14665   */\n      swap3\n      swap2\n      pop\n      pop\n      jump\t// out\n        /* \"#utility.yul\":14671:14917   */\n    tag_501:\n        /* \"#utility.yul\":14752:14753   */\n      0x00\n        /* \"#utility.yul\":14762:14875   */\n    tag_711:\n        /* \"#utility.yul\":14776:14782   */\n      dup4\n        /* \"#utility.yul\":14773:14774   */\n      dup2\n        /* \"#utility.yul\":14770:14783   */\n      lt\n        /* \"#utility.yul\":14762:14875   */\n      iszero\n      tag_713\n      jumpi\n        /* \"#utility.yul\":14861:14862   */\n      dup1\n        /* \"#utility.yul\":14856:14859   */\n      dup3\n        /* \"#utility.yul\":14852:14863   */\n      add\n        /* \"#utility.yul\":14846:14864   */\n      mload\n        /* \"#utility.yul\":14842:14843   */\n      dup2\n        /* \"#utility.yul\":14837:14840   */\n      dup5\n        /* \"#utility.yul\":14833:14844   */\n      add\n        /* \"#utility.yul\":14826:14865   */\n      mstore\n        /* \"#utility.yul\":14798:14800   */\n      0x20\n        /* \"#utility.yul\":14795:14796   */\n      dup2\n        /* \"#utility.yul\":14791:14801   */\n      add\n        /* \"#utility.yul\":14786:14801   */\n      swap1\n      pop\n        /* \"#utility.yul\":14762:14875   */\n      jump(tag_711)\n    tag_713:\n        /* \"#utility.yul\":14909:14910   */\n      0x00\n        /* \"#utility.yul\":14900:14906   */\n      dup5\n        /* \"#utility.yul\":14895:14898   */\n      dup5\n        /* \"#utility.yul\":14891:14907   */\n      add\n        /* \"#utility.yul\":14884:14911   */\n      mstore\n        /* \"#utility.yul\":14733:14917   */\n      pop\n        /* \"#utility.yul\":14671:14917   */\n      pop\n      pop\n      pop\n      jump\t// out\n        /* \"#utility.yul\":14923:15296   */\n    tag_502:\n        /* \"#utility.yul\":15009:15012   */\n      0x00\n        /* \"#utility.yul\":15037:15075   */\n      tag_715\n        /* \"#utility.yul\":15069:15074   */\n      dup3\n        /* \"#utility.yul\":15037:15075   */\n      tag_499\n      jump\t// in\n    tag_715:\n        /* \"#utility.yul\":15091:15161   */\n      tag_716\n        /* \"#utility.yul\":15154:15160   */\n      dup2\n        /* \"#utility.yul\":15149:15152   */\n      dup6\n        /* \"#utility.yul\":15091:15161   */\n      tag_500\n      jump\t// in\n    tag_716:\n        /* \"#utility.yul\":15084:15161   */\n      swap4\n      pop\n        /* \"#utility.yul\":15170:15235   */\n      tag_717\n        /* \"#utility.yul\":15228:15234   */\n      dup2\n        /* \"#utility.yul\":15223:15226   */\n      dup6\n        /* \"#utility.yul\":15216:15220   */\n      0x20\n        /* \"#utility.yul\":15209:15214   */\n      dup7\n        /* \"#utility.yul\":15205:15221   */\n      add\n        /* \"#utility.yul\":15170:15235   */\n      tag_501\n      jump\t// in\n    tag_717:\n        /* \"#utility.yul\":15260:15289   */\n      tag_718\n        /* \"#utility.yul\":15282:15288   */\n      dup2\n        /* \"#utility.yul\":15260:15289   */\n      tag_471\n      jump\t// in\n    tag_718:\n        /* \"#utility.yul\":15255:15258   */\n      dup5\n        /* \"#utility.yul\":15251:15290   */\n      add\n        /* \"#utility.yul\":15244:15290   */\n      swap2\n      pop\n        /* \"#utility.yul\":15013:15296   */\n      pop\n        /* \"#utility.yul\":14923:15296   */\n      swap3\n      swap2\n      pop\n      pop\n      jump\t// out\n        /* \"#utility.yul\":15302:15611   */\n    tag_95:\n        /* \"#utility.yul\":15413:15417   */\n      0x00\n        /* \"#utility.yul\":15451:15453   */\n      0x20\n        /* \"#utility.yul\":15440:15449   */\n      dup3\n        /* \"#utility.yul\":15436:15454   */\n      add\n        /* \"#utility.yul\":15428:15454   */\n      swap1\n      pop\n        /* \"#utility.yul\":15500:15509   */\n      dup2\n        /* \"#utility.yul\":15494:15498   */\n      dup2\n        /* \"#utility.yul\":15490:15510   */\n      sub\n        /* \"#utility.yul\":15486:15487   */\n      0x00\n        /* \"#utility.yul\":15475:15484   */\n      dup4\n        /* \"#utility.yul\":15471:15488   */\n      add\n        /* \"#utility.yul\":15464:15511   */\n      mstore\n        /* \"#utility.yul\":15528:15604   */\n      tag_720\n        /* \"#utility.yul\":15599:15603   */\n      dup2\n        /* \"#utility.yul\":15590:15596   */\n      dup5\n        /* \"#utility.yul\":15528:15604   */\n      tag_502\n      jump\t// in\n    tag_720:\n        /* \"#utility.yul\":15520:15604   */\n      swap1\n      pop\n        /* \"#utility.yul\":15302:15611   */\n      swap3\n      swap2\n      pop\n      pop\n      jump\t// out\n        /* \"#utility.yul\":15617:15716   */\n    tag_503:\n        /* \"#utility.yul\":15669:15675   */\n      0x00\n        /* \"#utility.yul\":15703:15708   */\n      dup2\n        /* \"#utility.yul\":15697:15709   */\n      mload\n        /* \"#utility.yul\":15687:15709   */\n      swap1\n      pop\n        /* \"#utility.yul\":15617:15716   */\n      swap2\n      swap1\n      pop\n      jump\t// out\n        /* \"#utility.yul\":15722:15891   */\n    tag_504:\n        /* \"#utility.yul\":15806:15817   */\n      0x00\n        /* \"#utility.yul\":15840:15846   */\n      dup3\n        /* \"#utility.yul\":15835:15838   */\n      dup3\n        /* \"#utility.yul\":15828:15847   */\n      mstore\n        /* \"#utility.yul\":15880:15884   */\n      0x20\n        /* \"#utility.yul\":15875:15878   */\n      dup3\n        /* \"#utility.yul\":15871:15885   */\n      add\n        /* \"#utility.yul\":15856:15885   */\n      swap1\n      pop\n        /* \"#utility.yul\":15722:15891   */\n      swap3\n      swap2\n      pop\n      pop\n      jump\t// out\n        /* \"#utility.yul\":15897:16274   */\n    tag_505:\n        /* \"#utility.yul\":15985:15988   */\n      0x00\n        /* \"#utility.yul\":16013:16052   */\n      tag_724\n        /* \"#utility.yul\":16046:16051   */\n      dup3\n        /* \"#utility.yul\":16013:16052   */\n      tag_503\n      jump\t// in\n    tag_724:\n        /* \"#utility.yul\":16068:16139   */\n      tag_725\n        /* \"#utility.yul\":16132:16138   */\n      dup2\n        /* \"#utility.yul\":16127:16130   */\n      dup6\n        /* \"#utility.yul\":16068:16139   */\n      tag_504\n      jump\t// in\n    tag_725:\n        /* \"#utility.yul\":16061:16139   */\n      swap4\n      pop\n        /* \"#utility.yul\":16148:16213   */\n      tag_726\n        /* \"#utility.yul\":16206:16212   */\n      dup2\n        /* \"#utility.yul\":16201:16204   */\n      dup6\n        /* \"#utility.yul\":16194:16198   */\n      0x20\n        /* \"#utility.yul\":16187:16192   */\n      dup7\n        /* \"#utility.yul\":16183:16199   */\n      add\n        /* \"#utility.yul\":16148:16213   */\n      tag_501\n      jump\t// in\n    tag_726:\n        /* \"#utility.yul\":16238:16267   */\n      tag_727\n        /* \"#utility.yul\":16260:16266   */\n      dup2\n        /* \"#utility.yul\":16238:16267   */\n      tag_471\n      jump\t// in\n    tag_727:\n        /* \"#utility.yul\":16233:16236   */\n      dup5\n        /* \"#utility.yul\":16229:16268   */\n      add\n        /* \"#utility.yul\":16222:16268   */\n      swap2\n      pop\n        /* \"#utility.yul\":15989:16274   */\n      pop\n        /* \"#utility.yul\":15897:16274   */\n      swap3\n      swap2\n      pop\n      pop\n      jump\t// out\n        /* \"#utility.yul\":16280:16593   */\n    tag_101:\n        /* \"#utility.yul\":16393:16397   */\n      0x00\n        /* \"#utility.yul\":16431:16433   */\n      0x20\n        /* \"#utility.yul\":16420:16429   */\n      dup3\n        /* \"#utility.yul\":16416:16434   */\n      add\n        /* \"#utility.yul\":16408:16434   */\n      swap1\n      pop\n        /* \"#utility.yul\":16480:16489   */\n      dup2\n        /* \"#utility.yul\":16474:16478   */\n      dup2\n        /* \"#utility.yul\":16470:16490   */\n      sub\n        /* \"#utility.yul\":16466:16467   */\n      0x00\n        /* \"#utility.yul\":16455:16464   */\n      dup4\n        /* \"#utility.yul\":16451:16468   */\n      add\n        /* \"#utility.yul\":16444:16491   */\n      mstore\n        /* \"#utility.yul\":16508:16586   */\n      tag_729\n        /* \"#utility.yul\":16581:16585   */\n      dup2\n        /* \"#utility.yul\":16572:16578   */\n      dup5\n        /* \"#utility.yul\":16508:16586   */\n      tag_505\n      jump\t// in\n    tag_729:\n        /* \"#utility.yul\":16500:16586   */\n      swap1\n      pop\n        /* \"#utility.yul\":16280:16593   */\n      swap3\n      swap2\n      pop\n      pop\n      jump\t// out\n        /* \"#utility.yul\":16599:17071   */\n    tag_105:\n        /* \"#utility.yul\":16666:16672   */\n      0x00\n        /* \"#utility.yul\":16674:16680   */\n      dup1\n        /* \"#utility.yul\":16723:16725   */\n      0x40\n        /* \"#utility.yul\":16711:16720   */\n      dup4\n        /* \"#utility.yul\":16702:16709   */\n      dup6\n        /* \"#utility.yul\":16698:16721   */\n      sub\n        /* \"#utility.yul\":16694:16726   */\n      slt\n        /* \"#utility.yul\":16691:16810   */\n      iszero\n      tag_731\n      jumpi\n        /* \"#utility.yul\":16729:16808   */\n      tag_732\n      tag_458\n      jump\t// in\n    tag_732:\n        /* \"#utility.yul\":16691:16810   */\n    tag_731:\n        /* \"#utility.yul\":16849:16850   */\n      0x00\n        /* \"#utility.yul\":16874:16927   */\n      tag_733\n        /* \"#utility.yul\":16919:16926   */\n      dup6\n        /* \"#utility.yul\":16910:16916   */\n      dup3\n        /* \"#utility.yul\":16899:16908   */\n      dup7\n        /* \"#utility.yul\":16895:16917   */\n      add\n        /* \"#utility.yul\":16874:16927   */\n      tag_463\n      jump\t// in\n    tag_733:\n        /* \"#utility.yul\":16864:16927   */\n      swap3\n      pop\n        /* \"#utility.yul\":16820:16937   */\n      pop\n        /* \"#utility.yul\":16976:16978   */\n      0x20\n        /* \"#utility.yul\":17002:17054   */\n      tag_734\n        /* \"#utility.yul\":17046:17053   */\n      dup6\n        /* \"#utility.yul\":17037:17043   */\n      dup3\n        /* \"#utility.yul\":17026:17035   */\n      dup7\n        /* \"#utility.yul\":17022:17044   */\n      add\n        /* \"#utility.yul\":17002:17054   */\n      tag_466\n      jump\t// in\n    tag_734:\n        /* \"#utility.yul\":16992:17054   */\n      swap2\n      pop\n        /* \"#utility.yul\":16947:17064   */\n      pop\n        /* \"#utility.yul\":16599:17071   */\n      swap3\n      pop\n      swap3\n      swap1\n      pop\n      jump\t// out\n        /* \"#utility.yul\":17077:17551   */\n    tag_110:\n        /* \"#utility.yul\":17145:17151   */\n      0x00\n        /* \"#utility.yul\":17153:17159   */\n      dup1\n        /* \"#utility.yul\":17202:17204   */\n      0x40\n        /* \"#utility.yul\":17190:17199   */\n      dup4\n        /* \"#utility.yul\":17181:17188   */\n      dup6\n        /* \"#utility.yul\":17177:17200   */\n      sub\n        /* \"#utility.yul\":17173:17205   */\n      slt\n        /* \"#utility.yul\":17170:17289   */\n      iszero\n      tag_736\n      jumpi\n        /* \"#utility.yul\":17208:17287   */\n      tag_737\n      tag_458\n      jump\t// in\n    tag_737:\n        /* \"#utility.yul\":17170:17289   */\n    tag_736:\n        /* \"#utility.yul\":17328:17329   */\n      0x00\n        /* \"#utility.yul\":17353:17406   */\n      tag_738\n        /* \"#utility.yul\":17398:17405   */\n      dup6\n        /* \"#utility.yul\":17389:17395   */\n      dup3\n        /* \"#utility.yul\":17378:17387   */\n      dup7\n        /* \"#utility.yul\":17374:17396   */\n      add\n        /* \"#utility.yul\":17353:17406   */\n      tag_463\n      jump\t// in\n    tag_738:\n        /* \"#utility.yul\":17343:17406   */\n      swap3\n      pop\n        /* \"#utility.yul\":17299:17416   */\n      pop\n        /* \"#utility.yul\":17455:17457   */\n      0x20\n        /* \"#utility.yul\":17481:17534   */\n      tag_739\n        /* \"#utility.yul\":17526:17533   */\n      dup6\n        /* \"#utility.yul\":17517:17523   */\n      dup3\n        /* \"#utility.yul\":17506:17515   */\n      dup7\n        /* \"#utility.yul\":17502:17524   */\n      add\n        /* \"#utility.yul\":17481:17534   */\n      tag_463\n      jump\t// in\n    tag_739:\n        /* \"#utility.yul\":17471:17534   */\n      swap2\n      pop\n        /* \"#utility.yul\":17426:17544   */\n      pop\n        /* \"#utility.yul\":17077:17551   */\n      swap3\n      pop\n      swap3\n      swap1\n      pop\n      jump\t// out\n        /* \"#utility.yul\":17557:17666   */\n    tag_506:\n        /* \"#utility.yul\":17638:17659   */\n      tag_741\n        /* \"#utility.yul\":17653:17658   */\n      dup2\n        /* \"#utility.yul\":17638:17659   */\n      tag_484\n      jump\t// in\n    tag_741:\n        /* \"#utility.yul\":17633:17636   */\n      dup3\n        /* \"#utility.yul\":17626:17660   */\n      mstore\n        /* \"#utility.yul\":17557:17666   */\n      pop\n      pop\n      jump\t// out\n        /* \"#utility.yul\":17672:17882   */\n    tag_113:\n        /* \"#utility.yul\":17759:17763   */\n      0x00\n        /* \"#utility.yul\":17797:17799   */\n      0x20\n        /* \"#utility.yul\":17786:17795   */\n      dup3\n        /* \"#utility.yul\":17782:17800   */\n      add\n        /* \"#utility.yul\":17774:17800   */\n      swap1\n      pop\n        /* \"#utility.yul\":17810:17875   */\n      tag_743\n        /* \"#utility.yul\":17872:17873   */\n      0x00\n        /* \"#utility.yul\":17861:17870   */\n      dup4\n        /* \"#utility.yul\":17857:17874   */\n      add\n        /* \"#utility.yul\":17848:17854   */\n      dup5\n        /* \"#utility.yul\":17810:17875   */\n      tag_506\n      jump\t// in\n    tag_743:\n        /* \"#utility.yul\":17672:17882   */\n      swap3\n      swap2\n      pop\n      pop\n      jump\t// out\n        /* \"#utility.yul\":17888:18114   */\n    tag_507:\n        /* \"#utility.yul\":18028:18062   */\n      0x596f7520646f206e6f7420686176652061636365737320746f20746869732066\n        /* \"#utility.yul\":18024:18025   */\n      0x00\n        /* \"#utility.yul\":18016:18022   */\n      dup3\n        /* \"#utility.yul\":18012:18026   */\n      add\n        /* \"#utility.yul\":18005:18063   */\n      mstore\n        /* \"#utility.yul\":18097:18106   */\n      0x756e6374696f6e00000000000000000000000000000000000000000000000000\n        /* \"#utility.yul\":18092:18094   */\n      0x20\n        /* \"#utility.yul\":18084:18090   */\n      dup3\n        /* \"#utility.yul\":18080:18095   */\n      add\n        /* \"#utility.yul\":18073:18107   */\n      mstore\n        /* \"#utility.yul\":17888:18114   */\n      pop\n      jump\t// out\n        /* \"#utility.yul\":18120:18486   */\n    tag_508:\n        /* \"#utility.yul\":18262:18265   */\n      0x00\n        /* \"#utility.yul\":18283:18350   */\n      tag_746\n        /* \"#utility.yul\":18347:18349   */\n      0x27\n        /* \"#utility.yul\":18342:18345   */\n      dup4\n        /* \"#utility.yul\":18283:18350   */\n      tag_504\n      jump\t// in\n    tag_746:\n        /* \"#utility.yul\":18276:18350   */\n      swap2\n      pop\n        /* \"#utility.yul\":18359:18452   */\n      tag_747\n        /* \"#utility.yul\":18448:18451   */\n      dup3\n        /* \"#utility.yul\":18359:18452   */\n      tag_507\n      jump\t// in\n    tag_747:\n        /* \"#utility.yul\":18477:18479   */\n      0x40\n        /* \"#utility.yul\":18472:18475   */\n      dup3\n        /* \"#utility.yul\":18468:18480   */\n      add\n        /* \"#utility.yul\":18461:18480   */\n      swap1\n      pop\n        /* \"#utility.yul\":18120:18486   */\n      swap2\n      swap1\n      pop\n      jump\t// out\n        /* \"#utility.yul\":18492:18911   */\n    tag_122:\n        /* \"#utility.yul\":18658:18662   */\n      0x00\n        /* \"#utility.yul\":18696:18698   */\n      0x20\n        /* \"#utility.yul\":18685:18694   */\n      dup3\n        /* \"#utility.yul\":18681:18699   */\n      add\n        /* \"#utility.yul\":18673:18699   */\n      swap1\n      pop\n        /* \"#utility.yul\":18745:18754   */\n      dup2\n        /* \"#utility.yul\":18739:18743   */\n      dup2\n        /* \"#utility.yul\":18735:18755   */\n      sub\n        /* \"#utility.yul\":18731:18732   */\n      0x00\n        /* \"#utility.yul\":18720:18729   */\n      dup4\n        /* \"#utility.yul\":18716:18733   */\n      add\n        /* \"#utility.yul\":18709:18756   */\n      mstore\n        /* \"#utility.yul\":18773:18904   */\n      tag_749\n        /* \"#utility.yul\":18899:18903   */\n      dup2\n        /* \"#utility.yul\":18773:18904   */\n      tag_508\n      jump\t// in\n    tag_749:\n        /* \"#utility.yul\":18765:18904   */\n      swap1\n      pop\n        /* \"#utility.yul\":18492:18911   */\n      swap2\n      swap1\n      pop\n      jump\t// out\n        /* \"#utility.yul\":18917:19145   */\n    tag_509:\n        /* \"#utility.yul\":19057:19091   */\n      0x54686520656e746572656420706172616d657465727320617265206e6f742061\n        /* \"#utility.yul\":19053:19054   */\n      0x00\n        /* \"#utility.yul\":19045:19051   */\n      dup3\n        /* \"#utility.yul\":19041:19055   */\n      add\n        /* \"#utility.yul\":19034:19092   */\n      mstore\n        /* \"#utility.yul\":19126:19137   */\n      0x636365707461626c650000000000000000000000000000000000000000000000\n        /* \"#utility.yul\":19121:19123   */\n      0x20\n        /* \"#utility.yul\":19113:19119   */\n      dup3\n        /* \"#utility.yul\":19109:19124   */\n      add\n        /* \"#utility.yul\":19102:19138   */\n      mstore\n        /* \"#utility.yul\":18917:19145   */\n      pop\n      jump\t// out\n        /* \"#utility.yul\":19151:19517   */\n    tag_510:\n        /* \"#utility.yul\":19293:19296   */\n      0x00\n        /* \"#utility.yul\":19314:19381   */\n      tag_752\n        /* \"#utility.yul\":19378:19380   */\n      0x29\n        /* \"#utility.yul\":19373:19376   */\n      dup4\n        /* \"#utility.yul\":19314:19381   */\n      tag_504\n      jump\t// in\n    tag_752:\n        /* \"#utility.yul\":19307:19381   */\n      swap2\n      pop\n        /* \"#utility.yul\":19390:19483   */\n      tag_753\n        /* \"#utility.yul\":19479:19482   */\n      dup3\n        /* \"#utility.yul\":19390:19483   */\n      tag_509\n      jump\t// in\n    tag_753:\n        /* \"#utility.yul\":19508:19510   */\n      0x40\n        /* \"#utility.yul\":19503:19506   */\n      dup3\n        /* \"#utility.yul\":19499:19511   */\n      add\n        /* \"#utility.yul\":19492:19511   */\n      swap1\n      pop\n        /* \"#utility.yul\":19151:19517   */\n      swap2\n      swap1\n      pop\n      jump\t// out\n        /* \"#utility.yul\":19523:19942   */\n    tag_126:\n        /* \"#utility.yul\":19689:19693   */\n      0x00\n        /* \"#utility.yul\":19727:19729   */\n      0x20\n        /* \"#utility.yul\":19716:19725   */\n      dup3\n        /* \"#utility.yul\":19712:19730   */\n      add\n        /* \"#utility.yul\":19704:19730   */\n      swap1\n      pop\n        /* \"#utility.yul\":19776:19785   */\n      dup2\n        /* \"#utility.yul\":19770:19774   */\n      dup2\n        /* \"#utility.yul\":19766:19786   */\n      sub\n        /* \"#utility.yul\":19762:19763   */\n      0x00\n        /* \"#utility.yul\":19751:19760   */\n      dup4\n        /* \"#utility.yul\":19747:19764   */\n      add\n        /* \"#utility.yul\":19740:19787   */\n      mstore\n        /* \"#utility.yul\":19804:19935   */\n      tag_755\n        /* \"#utility.yul\":19930:19934   */\n      dup2\n        /* \"#utility.yul\":19804:19935   */\n      tag_510\n      jump\t// in\n    tag_755:\n        /* \"#utility.yul\":19796:19935   */\n      swap1\n      pop\n        /* \"#utility.yul\":19523:19942   */\n      swap2\n      swap1\n      pop\n      jump\t// out\n        /* \"#utility.yul\":19948:20128   */\n    tag_129:\n        /* \"#utility.yul\":19996:20073   */\n      0x4e487b7100000000000000000000000000000000000000000000000000000000\n        /* \"#utility.yul\":19993:19994   */\n      0x00\n        /* \"#utility.yul\":19986:20074   */\n      mstore\n        /* \"#utility.yul\":20093:20097   */\n      0x32\n        /* \"#utility.yul\":20090:20091   */\n      0x04\n        /* \"#utility.yul\":20083:20098   */\n      mstore\n        /* \"#utility.yul\":20117:20121   */\n      0x24\n        /* \"#utility.yul\":20114:20115   */\n      0x00\n        /* \"#utility.yul\":20107:20122   */\n      revert\n        /* \"#utility.yul\":20134:20314   */\n    tag_511:\n        /* \"#utility.yul\":20182:20259   */\n      0x4e487b7100000000000000000000000000000000000000000000000000000000\n        /* \"#utility.yul\":20179:20180   */\n      0x00\n        /* \"#utility.yul\":20172:20260   */\n      mstore\n        /* \"#utility.yul\":20279:20283   */\n      0x11\n        /* \"#utility.yul\":20276:20277   */\n      0x04\n        /* \"#utility.yul\":20269:20284   */\n      mstore\n        /* \"#utility.yul\":20303:20307   */\n      0x24\n        /* \"#utility.yul\":20300:20301   */\n      0x00\n        /* \"#utility.yul\":20293:20308   */\n      revert\n        /* \"#utility.yul\":20320:20516   */\n    tag_131:\n        /* \"#utility.yul\":20359:20363   */\n      0x00\n        /* \"#utility.yul\":20379:20398   */\n      tag_759\n        /* \"#utility.yul\":20396:20397   */\n      dup3\n        /* \"#utility.yul\":20379:20398   */\n      tag_464\n      jump\t// in\n    tag_759:\n        /* \"#utility.yul\":20374:20398   */\n      swap2\n      pop\n        /* \"#utility.yul\":20412:20431   */\n      tag_760\n        /* \"#utility.yul\":20429:20430   */\n      dup4\n        /* \"#utility.yul\":20412:20431   */\n      tag_464\n      jump\t// in\n    tag_760:\n        /* \"#utility.yul\":20407:20431   */\n      swap3\n      pop\n        /* \"#utility.yul\":20455:20456   */\n      dup3\n        /* \"#utility.yul\":20452:20453   */\n      dup3\n        /* \"#utility.yul\":20448:20457   */\n      sub\n        /* \"#utility.yul\":20440:20457   */\n      swap1\n      pop\n        /* \"#utility.yul\":20479:20485   */\n      0xffff\n        /* \"#utility.yul\":20473:20477   */\n      dup2\n        /* \"#utility.yul\":20470:20486   */\n      gt\n        /* \"#utility.yul\":20467:20509   */\n      iszero\n      tag_761\n      jumpi\n        /* \"#utility.yul\":20489:20507   */\n      tag_762\n      tag_511\n      jump\t// in\n    tag_762:\n        /* \"#utility.yul\":20467:20509   */\n    tag_761:\n        /* \"#utility.yul\":20320:20516   */\n      swap3\n      swap2\n      pop\n      pop\n      jump\t// out\n        /* \"#utility.yul\":20522:20746   */\n    tag_512:\n        /* \"#utility.yul\":20662:20696   */\n      0x596f7520646f206e6f742068617665207065726d697373696f6e20746f207570\n        /* \"#utility.yul\":20658:20659   */\n      0x00\n        /* \"#utility.yul\":20650:20656   */\n      dup3\n        /* \"#utility.yul\":20646:20660   */\n      add\n        /* \"#utility.yul\":20639:20697   */\n      mstore\n        /* \"#utility.yul\":20731:20738   */\n      0x6772616465000000000000000000000000000000000000000000000000000000\n        /* \"#utility.yul\":20726:20728   */\n      0x20\n        /* \"#utility.yul\":20718:20724   */\n      dup3\n        /* \"#utility.yul\":20714:20729   */\n      add\n        /* \"#utility.yul\":20707:20739   */\n      mstore\n        /* \"#utility.yul\":20522:20746   */\n      pop\n      jump\t// out\n        /* \"#utility.yul\":20752:21118   */\n    tag_513:\n        /* \"#utility.yul\":20894:20897   */\n      0x00\n        /* \"#utility.yul\":20915:20982   */\n      tag_765\n        /* \"#utility.yul\":20979:20981   */\n      0x25\n        /* \"#utility.yul\":20974:20977   */\n      dup4\n        /* \"#utility.yul\":20915:20982   */\n      tag_504\n      jump\t// in\n    tag_765:\n        /* \"#utility.yul\":20908:20982   */\n      swap2\n      pop\n        /* \"#utility.yul\":20991:21084   */\n      tag_766\n        /* \"#utility.yul\":21080:21083   */\n      dup3\n        /* \"#utility.yul\":20991:21084   */\n      tag_512\n      jump\t// in\n    tag_766:\n        /* \"#utility.yul\":21109:21111   */\n      0x40\n        /* \"#utility.yul\":21104:21107   */\n      dup3\n        /* \"#utility.yul\":21100:21112   */\n      add\n        /* \"#utility.yul\":21093:21112   */\n      swap1\n      pop\n        /* \"#utility.yul\":20752:21118   */\n      swap2\n      swap1\n      pop\n      jump\t// out\n        /* \"#utility.yul\":21124:21543   */\n    tag_141:\n        /* \"#utility.yul\":21290:21294   */\n      0x00\n        /* \"#utility.yul\":21328:21330   */\n      0x20\n        /* \"#utility.yul\":21317:21326   */\n      dup3\n        /* \"#utility.yul\":21313:21331   */\n      add\n        /* \"#utility.yul\":21305:21331   */\n      swap1\n      pop\n        /* \"#utility.yul\":21377:21386   */\n      dup2\n        /* \"#utility.yul\":21371:21375   */\n      dup2\n        /* \"#utility.yul\":21367:21387   */\n      sub\n        /* \"#utility.yul\":21363:21364   */\n      0x00\n        /* \"#utility.yul\":21352:21361   */\n      dup4\n        /* \"#utility.yul\":21348:21365   */\n      add\n        /* \"#utility.yul\":21341:21388   */\n      mstore\n        /* \"#utility.yul\":21405:21536   */\n      tag_768\n        /* \"#utility.yul\":21531:21535   */\n      dup2\n        /* \"#utility.yul\":21405:21536   */\n      tag_513\n      jump\t// in\n    tag_768:\n        /* \"#utility.yul\":21397:21536   */\n      swap1\n      pop\n        /* \"#utility.yul\":21124:21543   */\n      swap2\n      swap1\n      pop\n      jump\t// out\n        /* \"#utility.yul\":21549:21667   */\n    tag_514:\n        /* \"#utility.yul\":21636:21660   */\n      tag_770\n        /* \"#utility.yul\":21654:21659   */\n      dup2\n        /* \"#utility.yul\":21636:21660   */\n      tag_467\n      jump\t// in\n    tag_770:\n        /* \"#utility.yul\":21631:21634   */\n      dup3\n        /* \"#utility.yul\":21624:21661   */\n      mstore\n        /* \"#utility.yul\":21549:21667   */\n      pop\n      pop\n      jump\t// out\n        /* \"#utility.yul\":21673:22115   */\n    tag_147:\n        /* \"#utility.yul\":21822:21826   */\n      0x00\n        /* \"#utility.yul\":21860:21862   */\n      0x60\n        /* \"#utility.yul\":21849:21858   */\n      dup3\n        /* \"#utility.yul\":21845:21863   */\n      add\n        /* \"#utility.yul\":21837:21863   */\n      swap1\n      pop\n        /* \"#utility.yul\":21873:21944   */\n      tag_772\n        /* \"#utility.yul\":21941:21942   */\n      0x00\n        /* \"#utility.yul\":21930:21939   */\n      dup4\n        /* \"#utility.yul\":21926:21943   */\n      add\n        /* \"#utility.yul\":21917:21923   */\n      dup7\n        /* \"#utility.yul\":21873:21944   */\n      tag_481\n      jump\t// in\n    tag_772:\n        /* \"#utility.yul\":21954:22026   */\n      tag_773\n        /* \"#utility.yul\":22022:22024   */\n      0x20\n        /* \"#utility.yul\":22011:22020   */\n      dup4\n        /* \"#utility.yul\":22007:22025   */\n      add\n        /* \"#utility.yul\":21998:22004   */\n      dup6\n        /* \"#utility.yul\":21954:22026   */\n      tag_481\n      jump\t// in\n    tag_773:\n        /* \"#utility.yul\":22036:22108   */\n      tag_774\n        /* \"#utility.yul\":22104:22106   */\n      0x40\n        /* \"#utility.yul\":22093:22102   */\n      dup4\n        /* \"#utility.yul\":22089:22107   */\n      add\n        /* \"#utility.yul\":22080:22086   */\n      dup5\n        /* \"#utility.yul\":22036:22108   */\n      tag_514\n      jump\t// in\n    tag_774:\n        /* \"#utility.yul\":21673:22115   */\n      swap5\n      swap4\n      pop\n      pop\n      pop\n      pop\n      jump\t// out\n        /* \"#utility.yul\":22121:22295   */\n    tag_515:\n        /* \"#utility.yul\":22261:22287   */\n      0x416363657373206f6e6c7920666f72206578656375746f720000000000000000\n        /* \"#utility.yul\":22257:22258   */\n      0x00\n        /* \"#utility.yul\":22249:22255   */\n      dup3\n        /* \"#utility.yul\":22245:22259   */\n      add\n        /* \"#utility.yul\":22238:22288   */\n      mstore\n        /* \"#utility.yul\":22121:22295   */\n      pop\n      jump\t// out\n        /* \"#utility.yul\":22301:22667   */\n    tag_516:\n        /* \"#utility.yul\":22443:22446   */\n      0x00\n        /* \"#utility.yul\":22464:22531   */\n      tag_777\n        /* \"#utility.yul\":22528:22530   */\n      0x18\n        /* \"#utility.yul\":22523:22526   */\n      dup4\n        /* \"#utility.yul\":22464:22531   */\n      tag_504\n      jump\t// in\n    tag_777:\n        /* \"#utility.yul\":22457:22531   */\n      swap2\n      pop\n        /* \"#utility.yul\":22540:22633   */\n      tag_778\n        /* \"#utility.yul\":22629:22632   */\n      dup3\n        /* \"#utility.yul\":22540:22633   */\n      tag_515\n      jump\t// in\n    tag_778:\n        /* \"#utility.yul\":22658:22660   */\n      0x20\n        /* \"#utility.yul\":22653:22656   */\n      dup3\n        /* \"#utility.yul\":22649:22661   */\n      add\n        /* \"#utility.yul\":22642:22661   */\n      swap1\n      pop\n        /* \"#utility.yul\":22301:22667   */\n      swap2\n      swap1\n      pop\n      jump\t// out\n        /* \"#utility.yul\":22673:23092   */\n    tag_152:\n        /* \"#utility.yul\":22839:22843   */\n      0x00\n        /* \"#utility.yul\":22877:22879   */\n      0x20\n        /* \"#utility.yul\":22866:22875   */\n      dup3\n        /* \"#utility.yul\":22862:22880   */\n      add\n        /* \"#utility.yul\":22854:22880   */\n      swap1\n      pop\n        /* \"#utility.yul\":22926:22935   */\n      dup2\n        /* \"#utility.yul\":22920:22924   */\n      dup2\n        /* \"#utility.yul\":22916:22936   */\n      sub\n        /* \"#utility.yul\":22912:22913   */\n      0x00\n        /* \"#utility.yul\":22901:22910   */\n      dup4\n        /* \"#utility.yul\":22897:22914   */\n      add\n        /* \"#utility.yul\":22890:22937   */\n      mstore\n        /* \"#utility.yul\":22954:23085   */\n      tag_780\n        /* \"#utility.yul\":23080:23084   */\n      dup2\n        /* \"#utility.yul\":22954:23085   */\n      tag_516\n      jump\t// in\n    tag_780:\n        /* \"#utility.yul\":22946:23085   */\n      swap1\n      pop\n        /* \"#utility.yul\":22673:23092   */\n      swap2\n      swap1\n      pop\n      jump\t// out\n        /* \"#utility.yul\":23098:23269   */\n    tag_161:\n        /* \"#utility.yul\":23136:23139   */\n      0x00\n        /* \"#utility.yul\":23159:23182   */\n      tag_782\n        /* \"#utility.yul\":23176:23181   */\n      dup3\n        /* \"#utility.yul\":23159:23182   */\n      tag_464\n      jump\t// in\n    tag_782:\n        /* \"#utility.yul\":23150:23182   */\n      swap2\n      pop\n        /* \"#utility.yul\":23204:23210   */\n      0xffff\n        /* \"#utility.yul\":23197:23202   */\n      dup3\n        /* \"#utility.yul\":23194:23211   */\n      sub\n        /* \"#utility.yul\":23191:23234   */\n      tag_783\n      jumpi\n        /* \"#utility.yul\":23214:23232   */\n      tag_784\n      tag_511\n      jump\t// in\n    tag_784:\n        /* \"#utility.yul\":23191:23234   */\n    tag_783:\n        /* \"#utility.yul\":23261:23262   */\n      0x01\n        /* \"#utility.yul\":23254:23259   */\n      dup3\n        /* \"#utility.yul\":23250:23263   */\n      add\n        /* \"#utility.yul\":23243:23263   */\n      swap1\n      pop\n        /* \"#utility.yul\":23098:23269   */\n      swap2\n      swap1\n      pop\n      jump\t// out\n        /* \"#utility.yul\":23275:23466   */\n    tag_170:\n        /* \"#utility.yul\":23315:23318   */\n      0x00\n        /* \"#utility.yul\":23334:23354   */\n      tag_786\n        /* \"#utility.yul\":23352:23353   */\n      dup3\n        /* \"#utility.yul\":23334:23354   */\n      tag_467\n      jump\t// in\n    tag_786:\n        /* \"#utility.yul\":23329:23354   */\n      swap2\n      pop\n        /* \"#utility.yul\":23368:23388   */\n      tag_787\n        /* \"#utility.yul\":23386:23387   */\n      dup4\n        /* \"#utility.yul\":23368:23388   */\n      tag_467\n      jump\t// in\n    tag_787:\n        /* \"#utility.yul\":23363:23388   */\n      swap3\n      pop\n        /* \"#utility.yul\":23411:23412   */\n      dup3\n        /* \"#utility.yul\":23408:23409   */\n      dup3\n        /* \"#utility.yul\":23404:23413   */\n      add\n        /* \"#utility.yul\":23397:23413   */\n      swap1\n      pop\n        /* \"#utility.yul\":23432:23435   */\n      dup1\n        /* \"#utility.yul\":23429:23430   */\n      dup3\n        /* \"#utility.yul\":23426:23436   */\n      gt\n        /* \"#utility.yul\":23423:23459   */\n      iszero\n      tag_788\n      jumpi\n        /* \"#utility.yul\":23439:23457   */\n      tag_789\n      tag_511\n      jump\t// in\n    tag_789:\n        /* \"#utility.yul\":23423:23459   */\n    tag_788:\n        /* \"#utility.yul\":23275:23466   */\n      swap3\n      swap2\n      pop\n      pop\n      jump\t// out\n        /* \"#utility.yul\":23472:23652   */\n    tag_425:\n        /* \"#utility.yul\":23520:23597   */\n      0x4e487b7100000000000000000000000000000000000000000000000000000000\n        /* \"#utility.yul\":23517:23518   */\n      0x00\n        /* \"#utility.yul\":23510:23598   */\n      mstore\n        /* \"#utility.yul\":23617:23621   */\n      0x12\n        /* \"#utility.yul\":23614:23615   */\n      0x04\n        /* \"#utility.yul\":23607:23622   */\n      mstore\n        /* \"#utility.yul\":23641:23645   */\n      0x24\n        /* \"#utility.yul\":23638:23639   */\n      0x00\n        /* \"#utility.yul\":23631:23646   */\n      revert\n        /* \"#utility.yul\":23658:23831   */\n    tag_173:\n        /* \"#utility.yul\":23689:23690   */\n      0x00\n        /* \"#utility.yul\":23706:23725   */\n      tag_792\n        /* \"#utility.yul\":23723:23724   */\n      dup3\n        /* \"#utility.yul\":23706:23725   */\n      tag_464\n      jump\t// in\n    tag_792:\n        /* \"#utility.yul\":23701:23725   */\n      swap2\n      pop\n        /* \"#utility.yul\":23739:23758   */\n      tag_793\n        /* \"#utility.yul\":23756:23757   */\n      dup4\n        /* \"#utility.yul\":23739:23758   */\n      tag_464\n      jump\t// in\n    tag_793:\n        /* \"#utility.yul\":23734:23758   */\n      swap3\n      pop\n        /* \"#utility.yul\":23777:23778   */\n      dup3\n        /* \"#utility.yul\":23767:23802   */\n      tag_794\n      jumpi\n        /* \"#utility.yul\":23782:23800   */\n      tag_795\n      tag_425\n      jump\t// in\n    tag_795:\n        /* \"#utility.yul\":23767:23802   */\n    tag_794:\n        /* \"#utility.yul\":23823:23824   */\n      dup3\n        /* \"#utility.yul\":23820:23821   */\n      dup3\n        /* \"#utility.yul\":23816:23825   */\n      mod\n        /* \"#utility.yul\":23811:23825   */\n      swap1\n      pop\n        /* \"#utility.yul\":23658:23831   */\n      swap3\n      swap2\n      pop\n      pop\n      jump\t// out\n        /* \"#utility.yul\":23837:24038   */\n    tag_179:\n        /* \"#utility.yul\":23876:23879   */\n      0x00\n        /* \"#utility.yul\":23895:23914   */\n      tag_797\n        /* \"#utility.yul\":23912:23913   */\n      dup3\n        /* \"#utility.yul\":23895:23914   */\n      tag_496\n      jump\t// in\n    tag_797:\n        /* \"#utility.yul\":23890:23914   */\n      swap2\n      pop\n        /* \"#utility.yul\":23928:23947   */\n      tag_798\n        /* \"#utility.yul\":23945:23946   */\n      dup4\n        /* \"#utility.yul\":23928:23947   */\n      tag_496\n      jump\t// in\n    tag_798:\n        /* \"#utility.yul\":23923:23947   */\n      swap3\n      pop\n        /* \"#utility.yul\":23970:23971   */\n      dup3\n        /* \"#utility.yul\":23967:23968   */\n      dup3\n        /* \"#utility.yul\":23963:23972   */\n      add\n        /* \"#utility.yul\":23956:23972   */\n      swap1\n      pop\n        /* \"#utility.yul\":23993:24007   */\n      0xffffffffffff\n        /* \"#utility.yul\":23988:23991   */\n      dup2\n        /* \"#utility.yul\":23985:24008   */\n      gt\n        /* \"#utility.yul\":23982:24031   */\n      iszero\n      tag_799\n      jumpi\n        /* \"#utility.yul\":24011:24029   */\n      tag_800\n      tag_511\n      jump\t// in\n    tag_800:\n        /* \"#utility.yul\":23982:24031   */\n    tag_799:\n        /* \"#utility.yul\":23837:24038   */\n      swap3\n      swap2\n      pop\n      pop\n      jump\t// out\n        /* \"#utility.yul\":24044:24237   */\n    tag_188:\n        /* \"#utility.yul\":24083:24086   */\n      0x00\n        /* \"#utility.yul\":24102:24121   */\n      tag_802\n        /* \"#utility.yul\":24119:24120   */\n      dup3\n        /* \"#utility.yul\":24102:24121   */\n      tag_464\n      jump\t// in\n    tag_802:\n        /* \"#utility.yul\":24097:24121   */\n      swap2\n      pop\n        /* \"#utility.yul\":24135:24154   */\n      tag_803\n        /* \"#utility.yul\":24152:24153   */\n      dup4\n        /* \"#utility.yul\":24135:24154   */\n      tag_464\n      jump\t// in\n    tag_803:\n        /* \"#utility.yul\":24130:24154   */\n      swap3\n      pop\n        /* \"#utility.yul\":24177:24178   */\n      dup3\n        /* \"#utility.yul\":24174:24175   */\n      dup3\n        /* \"#utility.yul\":24170:24179   */\n      add\n        /* \"#utility.yul\":24163:24179   */\n      swap1\n      pop\n        /* \"#utility.yul\":24200:24206   */\n      0xffff\n        /* \"#utility.yul\":24195:24198   */\n      dup2\n        /* \"#utility.yul\":24192:24207   */\n      gt\n        /* \"#utility.yul\":24189:24230   */\n      iszero\n      tag_804\n      jumpi\n        /* \"#utility.yul\":24210:24228   */\n      tag_805\n      tag_511\n      jump\t// in\n    tag_805:\n        /* \"#utility.yul\":24189:24230   */\n    tag_804:\n        /* \"#utility.yul\":24044:24237   */\n      swap3\n      swap2\n      pop\n      pop\n      jump\t// out\n        /* \"#utility.yul\":24243:24412   */\n    tag_207:\n        /* \"#utility.yul\":24281:24284   */\n      0x00\n        /* \"#utility.yul\":24304:24327   */\n      tag_807\n        /* \"#utility.yul\":24321:24326   */\n      dup3\n        /* \"#utility.yul\":24304:24327   */\n      tag_464\n      jump\t// in\n    tag_807:\n        /* \"#utility.yul\":24295:24327   */\n      swap2\n      pop\n        /* \"#utility.yul\":24349:24353   */\n      0x00\n        /* \"#utility.yul\":24342:24347   */\n      dup3\n        /* \"#utility.yul\":24339:24354   */\n      sub\n        /* \"#utility.yul\":24336:24377   */\n      tag_808\n      jumpi\n        /* \"#utility.yul\":24357:24375   */\n      tag_809\n      tag_511\n      jump\t// in\n    tag_809:\n        /* \"#utility.yul\":24336:24377   */\n    tag_808:\n        /* \"#utility.yul\":24404:24405   */\n      0x01\n        /* \"#utility.yul\":24397:24402   */\n      dup3\n        /* \"#utility.yul\":24393:24406   */\n      sub\n        /* \"#utility.yul\":24386:24406   */\n      swap1\n      pop\n        /* \"#utility.yul\":24243:24412   */\n      swap2\n      swap1\n      pop\n      jump\t// out\n        /* \"#utility.yul\":24418:24651   */\n    tag_517:\n        /* \"#utility.yul\":24558:24592   */\n      0x546865207472616e73666572206f66207468697320746f6b656e206973206375\n        /* \"#utility.yul\":24554:24555   */\n      0x00\n        /* \"#utility.yul\":24546:24552   */\n      dup3\n        /* \"#utility.yul\":24542:24556   */\n      add\n        /* \"#utility.yul\":24535:24593   */\n      mstore\n        /* \"#utility.yul\":24627:24643   */\n      0x7272656e746c792062616e6e6564000000000000000000000000000000000000\n        /* \"#utility.yul\":24622:24624   */\n      0x20\n        /* \"#utility.yul\":24614:24620   */\n      dup3\n        /* \"#utility.yul\":24610:24625   */\n      add\n        /* \"#utility.yul\":24603:24644   */\n      mstore\n        /* \"#utility.yul\":24418:24651   */\n      pop\n      jump\t// out\n        /* \"#utility.yul\":24657:25023   */\n    tag_518:\n        /* \"#utility.yul\":24799:24802   */\n      0x00\n        /* \"#utility.yul\":24820:24887   */\n      tag_812\n        /* \"#utility.yul\":24884:24886   */\n      0x2e\n        /* \"#utility.yul\":24879:24882   */\n      dup4\n        /* \"#utility.yul\":24820:24887   */\n      tag_504\n      jump\t// in\n    tag_812:\n        /* \"#utility.yul\":24813:24887   */\n      swap2\n      pop\n        /* \"#utility.yul\":24896:24989   */\n      tag_813\n        /* \"#utility.yul\":24985:24988   */\n      dup3\n        /* \"#utility.yul\":24896:24989   */\n      tag_517\n      jump\t// in\n    tag_813:\n        /* \"#utility.yul\":25014:25016   */\n      0x40\n        /* \"#utility.yul\":25009:25012   */\n      dup3\n        /* \"#utility.yul\":25005:25017   */\n      add\n        /* \"#utility.yul\":24998:25017   */\n      swap1\n      pop\n        /* \"#utility.yul\":24657:25023   */\n      swap2\n      swap1\n      pop\n      jump\t// out\n        /* \"#utility.yul\":25029:25448   */\n    tag_222:\n        /* \"#utility.yul\":25195:25199   */\n      0x00\n        /* \"#utility.yul\":25233:25235   */\n      0x20\n        /* \"#utility.yul\":25222:25231   */\n      dup3\n        /* \"#utility.yul\":25218:25236   */\n      add\n        /* \"#utility.yul\":25210:25236   */\n      swap1\n      pop\n        /* \"#utility.yul\":25282:25291   */\n      dup2\n        /* \"#utility.yul\":25276:25280   */\n      dup2\n        /* \"#utility.yul\":25272:25292   */\n      sub\n        /* \"#utility.yul\":25268:25269   */\n      0x00\n        /* \"#utility.yul\":25257:25266   */\n      dup4\n        /* \"#utility.yul\":25253:25270   */\n      add\n        /* \"#utility.yul\":25246:25293   */\n      mstore\n        /* \"#utility.yul\":25310:25441   */\n      tag_815\n        /* \"#utility.yul\":25436:25440   */\n      dup2\n        /* \"#utility.yul\":25310:25441   */\n      tag_518\n      jump\t// in\n    tag_815:\n        /* \"#utility.yul\":25302:25441   */\n      swap1\n      pop\n        /* \"#utility.yul\":25029:25448   */\n      swap2\n      swap1\n      pop\n      jump\t// out\n        /* \"#utility.yul\":25454:25514   */\n    tag_519:\n        /* \"#utility.yul\":25482:25485   */\n      0x00\n        /* \"#utility.yul\":25503:25508   */\n      dup2\n        /* \"#utility.yul\":25496:25508   */\n      swap1\n      pop\n        /* \"#utility.yul\":25454:25514   */\n      swap2\n      swap1\n      pop\n      jump\t// out\n        /* \"#utility.yul\":25520:25660   */\n    tag_520:\n        /* \"#utility.yul\":25569:25578   */\n      0x00\n        /* \"#utility.yul\":25602:25654   */\n      tag_818\n        /* \"#utility.yul\":25620:25653   */\n      tag_819\n        /* \"#utility.yul\":25629:25652   */\n      tag_820\n        /* \"#utility.yul\":25646:25651   */\n      dup5\n        /* \"#utility.yul\":25629:25652   */\n      tag_464\n      jump\t// in\n    tag_820:\n        /* \"#utility.yul\":25620:25653   */\n      tag_519\n      jump\t// in\n    tag_819:\n        /* \"#utility.yul\":25602:25654   */\n      tag_467\n      jump\t// in\n    tag_818:\n        /* \"#utility.yul\":25589:25654   */\n      swap1\n      pop\n        /* \"#utility.yul\":25520:25660   */\n      swap2\n      swap1\n      pop\n      jump\t// out\n        /* \"#utility.yul\":25666:25795   */\n    tag_521:\n        /* \"#utility.yul\":25752:25788   */\n      tag_822\n        /* \"#utility.yul\":25782:25787   */\n      dup2\n        /* \"#utility.yul\":25752:25788   */\n      tag_520\n      jump\t// in\n    tag_822:\n        /* \"#utility.yul\":25747:25750   */\n      dup3\n        /* \"#utility.yul\":25740:25789   */\n      mstore\n        /* \"#utility.yul\":25666:25795   */\n      pop\n      pop\n      jump\t// out\n        /* \"#utility.yul\":25801:26131   */\n    tag_233:\n        /* \"#utility.yul\":25921:25925   */\n      0x00\n        /* \"#utility.yul\":25959:25961   */\n      0x40\n        /* \"#utility.yul\":25948:25957   */\n      dup3\n        /* \"#utility.yul\":25944:25962   */\n      add\n        /* \"#utility.yul\":25936:25962   */\n      swap1\n      pop\n        /* \"#utility.yul\":25972:26043   */\n      tag_824\n        /* \"#utility.yul\":26040:26041   */\n      0x00\n        /* \"#utility.yul\":26029:26038   */\n      dup4\n        /* \"#utility.yul\":26025:26042   */\n      add\n        /* \"#utility.yul\":26016:26022   */\n      dup6\n        /* \"#utility.yul\":25972:26043   */\n      tag_481\n      jump\t// in\n    tag_824:\n        /* \"#utility.yul\":26053:26124   */\n      tag_825\n        /* \"#utility.yul\":26120:26122   */\n      0x20\n        /* \"#utility.yul\":26109:26118   */\n      dup4\n        /* \"#utility.yul\":26105:26123   */\n      add\n        /* \"#utility.yul\":26096:26102   */\n      dup5\n        /* \"#utility.yul\":26053:26124   */\n      tag_521\n      jump\t// in\n    tag_825:\n        /* \"#utility.yul\":25801:26131   */\n      swap4\n      swap3\n      pop\n      pop\n      pop\n      jump\t// out\n        /* \"#utility.yul\":26137:26577   */\n    tag_236:\n        /* \"#utility.yul\":26285:26289   */\n      0x00\n        /* \"#utility.yul\":26323:26325   */\n      0x60\n        /* \"#utility.yul\":26312:26321   */\n      dup3\n        /* \"#utility.yul\":26308:26326   */\n      add\n        /* \"#utility.yul\":26300:26326   */\n      swap1\n      pop\n        /* \"#utility.yul\":26336:26407   */\n      tag_827\n        /* \"#utility.yul\":26404:26405   */\n      0x00\n        /* \"#utility.yul\":26393:26402   */\n      dup4\n        /* \"#utility.yul\":26389:26406   */\n      add\n        /* \"#utility.yul\":26380:26386   */\n      dup7\n        /* \"#utility.yul\":26336:26407   */\n      tag_481\n      jump\t// in\n    tag_827:\n        /* \"#utility.yul\":26417:26488   */\n      tag_828\n        /* \"#utility.yul\":26484:26486   */\n      0x20\n        /* \"#utility.yul\":26473:26482   */\n      dup4\n        /* \"#utility.yul\":26469:26487   */\n      add\n        /* \"#utility.yul\":26460:26466   */\n      dup6\n        /* \"#utility.yul\":26417:26488   */\n      tag_521\n      jump\t// in\n    tag_828:\n        /* \"#utility.yul\":26498:26570   */\n      tag_829\n        /* \"#utility.yul\":26566:26568   */\n      0x40\n        /* \"#utility.yul\":26555:26564   */\n      dup4\n        /* \"#utility.yul\":26551:26569   */\n      add\n        /* \"#utility.yul\":26542:26548   */\n      dup5\n        /* \"#utility.yul\":26498:26570   */\n      tag_481\n      jump\t// in\n    tag_829:\n        /* \"#utility.yul\":26137:26577   */\n      swap5\n      swap4\n      pop\n      pop\n      pop\n      pop\n      jump\t// out\n        /* \"#utility.yul\":26583:26765   */\n    tag_522:\n        /* \"#utility.yul\":26723:26757   */\n      0x54686520696e70757420616464726573732063616e6e6f74206265207a65726f\n        /* \"#utility.yul\":26719:26720   */\n      0x00\n        /* \"#utility.yul\":26711:26717   */\n      dup3\n        /* \"#utility.yul\":26707:26721   */\n      add\n        /* \"#utility.yul\":26700:26758   */\n      mstore\n        /* \"#utility.yul\":26583:26765   */\n      pop\n      jump\t// out\n        /* \"#utility.yul\":26771:27137   */\n    tag_523:\n        /* \"#utility.yul\":26913:26916   */\n      0x00\n        /* \"#utility.yul\":26934:27001   */\n      tag_832\n        /* \"#utility.yul\":26998:27000   */\n      0x20\n        /* \"#utility.yul\":26993:26996   */\n      dup4\n        /* \"#utility.yul\":26934:27001   */\n      tag_504\n      jump\t// in\n    tag_832:\n        /* \"#utility.yul\":26927:27001   */\n      swap2\n      pop\n        /* \"#utility.yul\":27010:27103   */\n      tag_833\n        /* \"#utility.yul\":27099:27102   */\n      dup3\n        /* \"#utility.yul\":27010:27103   */\n      tag_522\n      jump\t// in\n    tag_833:\n        /* \"#utility.yul\":27128:27130   */\n      0x20\n        /* \"#utility.yul\":27123:27126   */\n      dup3\n        /* \"#utility.yul\":27119:27131   */\n      add\n        /* \"#utility.yul\":27112:27131   */\n      swap1\n      pop\n        /* \"#utility.yul\":26771:27137   */\n      swap2\n      swap1\n      pop\n      jump\t// out\n        /* \"#utility.yul\":27143:27562   */\n    tag_244:\n        /* \"#utility.yul\":27309:27313   */\n      0x00\n        /* \"#utility.yul\":27347:27349   */\n      0x20\n        /* \"#utility.yul\":27336:27345   */\n      dup3\n        /* \"#utility.yul\":27332:27350   */\n      add\n        /* \"#utility.yul\":27324:27350   */\n      swap1\n      pop\n        /* \"#utility.yul\":27396:27405   */\n      dup2\n        /* \"#utility.yul\":27390:27394   */\n      dup2\n        /* \"#utility.yul\":27386:27406   */\n      sub\n        /* \"#utility.yul\":27382:27383   */\n      0x00\n        /* \"#utility.yul\":27371:27380   */\n      dup4\n        /* \"#utility.yul\":27367:27384   */\n      add\n        /* \"#utility.yul\":27360:27407   */\n      mstore\n        /* \"#utility.yul\":27424:27555   */\n      tag_835\n        /* \"#utility.yul\":27550:27554   */\n      dup2\n        /* \"#utility.yul\":27424:27555   */\n      tag_523\n      jump\t// in\n    tag_835:\n        /* \"#utility.yul\":27416:27555   */\n      swap1\n      pop\n        /* \"#utility.yul\":27143:27562   */\n      swap2\n      swap1\n      pop\n      jump\t// out\n        /* \"#utility.yul\":27568:27814   */\n    tag_524:\n        /* \"#utility.yul\":27708:27742   */\n      0x5468652061646472657373206f6620746865206f776e657220616e6420746865\n        /* \"#utility.yul\":27704:27705   */\n      0x00\n        /* \"#utility.yul\":27696:27702   */\n      dup3\n        /* \"#utility.yul\":27692:27706   */\n      add\n        /* \"#utility.yul\":27685:27743   */\n      mstore\n        /* \"#utility.yul\":27777:27806   */\n      0x206f70657261746f72206d75737420626520646966666572656e740000000000\n        /* \"#utility.yul\":27772:27774   */\n      0x20\n        /* \"#utility.yul\":27764:27770   */\n      dup3\n        /* \"#utility.yul\":27760:27775   */\n      add\n        /* \"#utility.yul\":27753:27807   */\n      mstore\n        /* \"#utility.yul\":27568:27814   */\n      pop\n      jump\t// out\n        /* \"#utility.yul\":27820:28186   */\n    tag_525:\n        /* \"#utility.yul\":27962:27965   */\n      0x00\n        /* \"#utility.yul\":27983:28050   */\n      tag_838\n        /* \"#utility.yul\":28047:28049   */\n      0x3b\n        /* \"#utility.yul\":28042:28045   */\n      dup4\n        /* \"#utility.yul\":27983:28050   */\n      tag_504\n      jump\t// in\n    tag_838:\n        /* \"#utility.yul\":27976:28050   */\n      swap2\n      pop\n        /* \"#utility.yul\":28059:28152   */\n      tag_839\n        /* \"#utility.yul\":28148:28151   */\n      dup3\n        /* \"#utility.yul\":28059:28152   */\n      tag_524\n      jump\t// in\n    tag_839:\n        /* \"#utility.yul\":28177:28179   */\n      0x40\n        /* \"#utility.yul\":28172:28175   */\n      dup3\n        /* \"#utility.yul\":28168:28180   */\n      add\n        /* \"#utility.yul\":28161:28180   */\n      swap1\n      pop\n        /* \"#utility.yul\":27820:28186   */\n      swap2\n      swap1\n      pop\n      jump\t// out\n        /* \"#utility.yul\":28192:28611   */\n    tag_257:\n        /* \"#utility.yul\":28358:28362   */\n      0x00\n        /* \"#utility.yul\":28396:28398   */\n      0x20\n        /* \"#utility.yul\":28385:28394   */\n      dup3\n        /* \"#utility.yul\":28381:28399   */\n      add\n        /* \"#utility.yul\":28373:28399   */\n      swap1\n      pop\n        /* \"#utility.yul\":28445:28454   */\n      dup2\n        /* \"#utility.yul\":28439:28443   */\n      dup2\n        /* \"#utility.yul\":28435:28455   */\n      sub\n        /* \"#utility.yul\":28431:28432   */\n      0x00\n        /* \"#utility.yul\":28420:28429   */\n      dup4\n        /* \"#utility.yul\":28416:28433   */\n      add\n        /* \"#utility.yul\":28409:28456   */\n      mstore\n        /* \"#utility.yul\":28473:28604   */\n      tag_841\n        /* \"#utility.yul\":28599:28603   */\n      dup2\n        /* \"#utility.yul\":28473:28604   */\n      tag_525\n      jump\t// in\n    tag_841:\n        /* \"#utility.yul\":28465:28604   */\n      swap1\n      pop\n        /* \"#utility.yul\":28192:28611   */\n      swap2\n      swap1\n      pop\n      jump\t// out\n        /* \"#utility.yul\":28617:28838   */\n    tag_526:\n        /* \"#utility.yul\":28757:28791   */\n      0x4974206973206e6f7420706f737369626c6520746f207265676973746572206e\n        /* \"#utility.yul\":28753:28754   */\n      0x00\n        /* \"#utility.yul\":28745:28751   */\n      dup3\n        /* \"#utility.yul\":28741:28755   */\n      add\n        /* \"#utility.yul\":28734:28792   */\n      mstore\n        /* \"#utility.yul\":28826:28830   */\n      0x6f77000000000000000000000000000000000000000000000000000000000000\n        /* \"#utility.yul\":28821:28823   */\n      0x20\n        /* \"#utility.yul\":28813:28819   */\n      dup3\n        /* \"#utility.yul\":28809:28824   */\n      add\n        /* \"#utility.yul\":28802:28831   */\n      mstore\n        /* \"#utility.yul\":28617:28838   */\n      pop\n      jump\t// out\n        /* \"#utility.yul\":28844:29210   */\n    tag_527:\n        /* \"#utility.yul\":28986:28989   */\n      0x00\n        /* \"#utility.yul\":29007:29074   */\n      tag_844\n        /* \"#utility.yul\":29071:29073   */\n      0x22\n        /* \"#utility.yul\":29066:29069   */\n      dup4\n        /* \"#utility.yul\":29007:29074   */\n      tag_504\n      jump\t// in\n    tag_844:\n        /* \"#utility.yul\":29000:29074   */\n      swap2\n      pop\n        /* \"#utility.yul\":29083:29176   */\n      tag_845\n        /* \"#utility.yul\":29172:29175   */\n      dup3\n        /* \"#utility.yul\":29083:29176   */\n      tag_526\n      jump\t// in\n    tag_845:\n        /* \"#utility.yul\":29201:29203   */\n      0x40\n        /* \"#utility.yul\":29196:29199   */\n      dup3\n        /* \"#utility.yul\":29192:29204   */\n      add\n        /* \"#utility.yul\":29185:29204   */\n      swap1\n      pop\n        /* \"#utility.yul\":28844:29210   */\n      swap2\n      swap1\n      pop\n      jump\t// out\n        /* \"#utility.yul\":29216:29635   */\n    tag_272:\n        /* \"#utility.yul\":29382:29386   */\n      0x00\n        /* \"#utility.yul\":29420:29422   */\n      0x20\n        /* \"#utility.yul\":29409:29418   */\n      dup3\n        /* \"#utility.yul\":29405:29423   */\n      add\n        /* \"#utility.yul\":29397:29423   */\n      swap1\n      pop\n        /* \"#utility.yul\":29469:29478   */\n      dup2\n        /* \"#utility.yul\":29463:29467   */\n      dup2\n        /* \"#utility.yul\":29459:29479   */\n      sub\n        /* \"#utility.yul\":29455:29456   */\n      0x00\n        /* \"#utility.yul\":29444:29453   */\n      dup4\n        /* \"#utility.yul\":29440:29457   */\n      add\n        /* \"#utility.yul\":29433:29480   */\n      mstore\n        /* \"#utility.yul\":29497:29628   */\n      tag_847\n        /* \"#utility.yul\":29623:29627   */\n      dup2\n        /* \"#utility.yul\":29497:29628   */\n      tag_527\n      jump\t// in\n    tag_847:\n        /* \"#utility.yul\":29489:29628   */\n      swap1\n      pop\n        /* \"#utility.yul\":29216:29635   */\n      swap2\n      swap1\n      pop\n      jump\t// out\n        /* \"#utility.yul\":29641:29937   */\n    tag_528:\n        /* \"#utility.yul\":29781:29815   */\n      0x5468652061646472657373206f66207468652072656769737472616e74206d75\n        /* \"#utility.yul\":29777:29778   */\n      0x00\n        /* \"#utility.yul\":29769:29775   */\n      dup3\n        /* \"#utility.yul\":29765:29779   */\n      add\n        /* \"#utility.yul\":29758:29816   */\n      mstore\n        /* \"#utility.yul\":29850:29884   */\n      0x7374206e6f742062652030206f72207468652061646472657373206f66206120\n        /* \"#utility.yul\":29845:29847   */\n      0x20\n        /* \"#utility.yul\":29837:29843   */\n      dup3\n        /* \"#utility.yul\":29833:29848   */\n      add\n        /* \"#utility.yul\":29826:29885   */\n      mstore\n        /* \"#utility.yul\":29919:29929   */\n      0x636f6e7472616374000000000000000000000000000000000000000000000000\n        /* \"#utility.yul\":29914:29916   */\n      0x40\n        /* \"#utility.yul\":29906:29912   */\n      dup3\n        /* \"#utility.yul\":29902:29917   */\n      add\n        /* \"#utility.yul\":29895:29930   */\n      mstore\n        /* \"#utility.yul\":29641:29937   */\n      pop\n      jump\t// out\n        /* \"#utility.yul\":29943:30309   */\n    tag_529:\n        /* \"#utility.yul\":30085:30088   */\n      0x00\n        /* \"#utility.yul\":30106:30173   */\n      tag_850\n        /* \"#utility.yul\":30170:30172   */\n      0x48\n        /* \"#utility.yul\":30165:30168   */\n      dup4\n        /* \"#utility.yul\":30106:30173   */\n      tag_504\n      jump\t// in\n    tag_850:\n        /* \"#utility.yul\":30099:30173   */\n      swap2\n      pop\n        /* \"#utility.yul\":30182:30275   */\n      tag_851\n        /* \"#utility.yul\":30271:30274   */\n      dup3\n        /* \"#utility.yul\":30182:30275   */\n      tag_528\n      jump\t// in\n    tag_851:\n        /* \"#utility.yul\":30300:30302   */\n      0x60\n        /* \"#utility.yul\":30295:30298   */\n      dup3\n        /* \"#utility.yul\":30291:30303   */\n      add\n        /* \"#utility.yul\":30284:30303   */\n      swap1\n      pop\n        /* \"#utility.yul\":29943:30309   */\n      swap2\n      swap1\n      pop\n      jump\t// out\n        /* \"#utility.yul\":30315:30734   */\n    tag_278:\n        /* \"#utility.yul\":30481:30485   */\n      0x00\n        /* \"#utility.yul\":30519:30521   */\n      0x20\n        /* \"#utility.yul\":30508:30517   */\n      dup3\n        /* \"#utility.yul\":30504:30522   */\n      add\n        /* \"#utility.yul\":30496:30522   */\n      swap1\n      pop\n        /* \"#utility.yul\":30568:30577   */\n      dup2\n        /* \"#utility.yul\":30562:30566   */\n      dup2\n        /* \"#utility.yul\":30558:30578   */\n      sub\n        /* \"#utility.yul\":30554:30555   */\n      0x00\n        /* \"#utility.yul\":30543:30552   */\n      dup4\n        /* \"#utility.yul\":30539:30556   */\n      add\n        /* \"#utility.yul\":30532:30579   */\n      mstore\n        /* \"#utility.yul\":30596:30727   */\n      tag_853\n        /* \"#utility.yul\":30722:30726   */\n      dup2\n        /* \"#utility.yul\":30596:30727   */\n      tag_529\n      jump\t// in\n    tag_853:\n        /* \"#utility.yul\":30588:30727   */\n      swap1\n      pop\n        /* \"#utility.yul\":30315:30734   */\n      swap2\n      swap1\n      pop\n      jump\t// out\n        /* \"#utility.yul\":30740:30976   */\n    tag_530:\n        /* \"#utility.yul\":30880:30914   */\n      0x54686520616d6f756e742073686f756c64206e6f74206265206c657373207468\n        /* \"#utility.yul\":30876:30877   */\n      0x00\n        /* \"#utility.yul\":30868:30874   */\n      dup3\n        /* \"#utility.yul\":30864:30878   */\n      add\n        /* \"#utility.yul\":30857:30915   */\n      mstore\n        /* \"#utility.yul\":30949:30968   */\n      0x616e20746865206d696e74207072696365000000000000000000000000000000\n        /* \"#utility.yul\":30944:30946   */\n      0x20\n        /* \"#utility.yul\":30936:30942   */\n      dup3\n        /* \"#utility.yul\":30932:30947   */\n      add\n        /* \"#utility.yul\":30925:30969   */\n      mstore\n        /* \"#utility.yul\":30740:30976   */\n      pop\n      jump\t// out\n        /* \"#utility.yul\":30982:31348   */\n    tag_531:\n        /* \"#utility.yul\":31124:31127   */\n      0x00\n        /* \"#utility.yul\":31145:31212   */\n      tag_856\n        /* \"#utility.yul\":31209:31211   */\n      0x31\n        /* \"#utility.yul\":31204:31207   */\n      dup4\n        /* \"#utility.yul\":31145:31212   */\n      tag_504\n      jump\t// in\n    tag_856:\n        /* \"#utility.yul\":31138:31212   */\n      swap2\n      pop\n        /* \"#utility.yul\":31221:31314   */\n      tag_857\n        /* \"#utility.yul\":31310:31313   */\n      dup3\n        /* \"#utility.yul\":31221:31314   */\n      tag_530\n      jump\t// in\n    tag_857:\n        /* \"#utility.yul\":31339:31341   */\n      0x40\n        /* \"#utility.yul\":31334:31337   */\n      dup3\n        /* \"#utility.yul\":31330:31342   */\n      add\n        /* \"#utility.yul\":31323:31342   */\n      swap1\n      pop\n        /* \"#utility.yul\":30982:31348   */\n      swap2\n      swap1\n      pop\n      jump\t// out\n        /* \"#utility.yul\":31354:31773   */\n    tag_281:\n        /* \"#utility.yul\":31520:31524   */\n      0x00\n        /* \"#utility.yul\":31558:31560   */\n      0x20\n        /* \"#utility.yul\":31547:31556   */\n      dup3\n        /* \"#utility.yul\":31543:31561   */\n      add\n        /* \"#utility.yul\":31535:31561   */\n      swap1\n      pop\n        /* \"#utility.yul\":31607:31616   */\n      dup2\n        /* \"#utility.yul\":31601:31605   */\n      dup2\n        /* \"#utility.yul\":31597:31617   */\n      sub\n        /* \"#utility.yul\":31593:31594   */\n      0x00\n        /* \"#utility.yul\":31582:31591   */\n      dup4\n        /* \"#utility.yul\":31578:31595   */\n      add\n        /* \"#utility.yul\":31571:31618   */\n      mstore\n        /* \"#utility.yul\":31635:31766   */\n      tag_859\n        /* \"#utility.yul\":31761:31765   */\n      dup2\n        /* \"#utility.yul\":31635:31766   */\n      tag_531\n      jump\t// in\n    tag_859:\n        /* \"#utility.yul\":31627:31766   */\n      swap1\n      pop\n        /* \"#utility.yul\":31354:31773   */\n      swap2\n      swap1\n      pop\n      jump\t// out\n        /* \"#utility.yul\":31779:31926   */\n    tag_532:\n        /* \"#utility.yul\":31880:31891   */\n      0x00\n        /* \"#utility.yul\":31917:31920   */\n      dup2\n        /* \"#utility.yul\":31902:31920   */\n      swap1\n      pop\n        /* \"#utility.yul\":31779:31926   */\n      swap3\n      swap2\n      pop\n      pop\n      jump\t// out\n        /* \"#utility.yul\":31932:32046   */\n    tag_533:\n      pop\n      jump\t// out\n        /* \"#utility.yul\":32052:32450   */\n    tag_534:\n        /* \"#utility.yul\":32211:32214   */\n      0x00\n        /* \"#utility.yul\":32232:32315   */\n      tag_863\n        /* \"#utility.yul\":32313:32314   */\n      0x00\n        /* \"#utility.yul\":32308:32311   */\n      dup4\n        /* \"#utility.yul\":32232:32315   */\n      tag_532\n      jump\t// in\n    tag_863:\n        /* \"#utility.yul\":32225:32315   */\n      swap2\n      pop\n        /* \"#utility.yul\":32324:32417   */\n      tag_864\n        /* \"#utility.yul\":32413:32416   */\n      dup3\n        /* \"#utility.yul\":32324:32417   */\n      tag_533\n      jump\t// in\n    tag_864:\n        /* \"#utility.yul\":32442:32443   */\n      0x00\n        /* \"#utility.yul\":32437:32440   */\n      dup3\n        /* \"#utility.yul\":32433:32444   */\n      add\n        /* \"#utility.yul\":32426:32444   */\n      swap1\n      pop\n        /* \"#utility.yul\":32052:32450   */\n      swap2\n      swap1\n      pop\n      jump\t// out\n        /* \"#utility.yul\":32456:32835   */\n    tag_283:\n        /* \"#utility.yul\":32640:32643   */\n      0x00\n        /* \"#utility.yul\":32662:32809   */\n      tag_866\n        /* \"#utility.yul\":32805:32808   */\n      dup3\n        /* \"#utility.yul\":32662:32809   */\n      tag_534\n      jump\t// in\n    tag_866:\n        /* \"#utility.yul\":32655:32809   */\n      swap2\n      pop\n        /* \"#utility.yul\":32826:32829   */\n      dup2\n        /* \"#utility.yul\":32819:32829   */\n      swap1\n      pop\n        /* \"#utility.yul\":32456:32835   */\n      swap2\n      swap1\n      pop\n      jump\t// out\n        /* \"#utility.yul\":32841:33014   */\n    tag_535:\n        /* \"#utility.yul\":32981:33006   */\n      0x54686520616d6f756e7420776173206e6f742073656e74000000000000000000\n        /* \"#utility.yul\":32977:32978   */\n      0x00\n        /* \"#utility.yul\":32969:32975   */\n      dup3\n        /* \"#utility.yul\":32965:32979   */\n      add\n        /* \"#utility.yul\":32958:33007   */\n      mstore\n        /* \"#utility.yul\":32841:33014   */\n      pop\n      jump\t// out\n        /* \"#utility.yul\":33020:33386   */\n    tag_536:\n        /* \"#utility.yul\":33162:33165   */\n      0x00\n        /* \"#utility.yul\":33183:33250   */\n      tag_869\n        /* \"#utility.yul\":33247:33249   */\n      0x17\n        /* \"#utility.yul\":33242:33245   */\n      dup4\n        /* \"#utility.yul\":33183:33250   */\n      tag_504\n      jump\t// in\n    tag_869:\n        /* \"#utility.yul\":33176:33250   */\n      swap2\n      pop\n        /* \"#utility.yul\":33259:33352   */\n      tag_870\n        /* \"#utility.yul\":33348:33351   */\n      dup3\n        /* \"#utility.yul\":33259:33352   */\n      tag_535\n      jump\t// in\n    tag_870:\n        /* \"#utility.yul\":33377:33379   */\n      0x20\n        /* \"#utility.yul\":33372:33375   */\n      dup3\n        /* \"#utility.yul\":33368:33380   */\n      add\n        /* \"#utility.yul\":33361:33380   */\n      swap1\n      pop\n        /* \"#utility.yul\":33020:33386   */\n      swap2\n      swap1\n      pop\n      jump\t// out\n        /* \"#utility.yul\":33392:33811   */\n    tag_289:\n        /* \"#utility.yul\":33558:33562   */\n      0x00\n        /* \"#utility.yul\":33596:33598   */\n      0x20\n        /* \"#utility.yul\":33585:33594   */\n      dup3\n        /* \"#utility.yul\":33581:33599   */\n      add\n        /* \"#utility.yul\":33573:33599   */\n      swap1\n      pop\n        /* \"#utility.yul\":33645:33654   */\n      dup2\n        /* \"#utility.yul\":33639:33643   */\n      dup2\n        /* \"#utility.yul\":33635:33655   */\n      sub\n        /* \"#utility.yul\":33631:33632   */\n      0x00\n        /* \"#utility.yul\":33620:33629   */\n      dup4\n        /* \"#utility.yul\":33616:33633   */\n      add\n        /* \"#utility.yul\":33609:33656   */\n      mstore\n        /* \"#utility.yul\":33673:33804   */\n      tag_872\n        /* \"#utility.yul\":33799:33803   */\n      dup2\n        /* \"#utility.yul\":33673:33804   */\n      tag_536\n      jump\t// in\n    tag_872:\n        /* \"#utility.yul\":33665:33804   */\n      swap1\n      pop\n        /* \"#utility.yul\":33392:33811   */\n      swap2\n      swap1\n      pop\n      jump\t// out\n        /* \"#utility.yul\":33817:33965   */\n    tag_537:\n        /* \"#utility.yul\":33919:33930   */\n      0x00\n        /* \"#utility.yul\":33956:33959   */\n      dup2\n        /* \"#utility.yul\":33941:33959   */\n      swap1\n      pop\n        /* \"#utility.yul\":33817:33965   */\n      swap3\n      swap2\n      pop\n      pop\n      jump\t// out\n        /* \"#utility.yul\":33971:34361   */\n    tag_538:\n        /* \"#utility.yul\":34077:34080   */\n      0x00\n        /* \"#utility.yul\":34105:34144   */\n      tag_875\n        /* \"#utility.yul\":34138:34143   */\n      dup3\n        /* \"#utility.yul\":34105:34144   */\n      tag_503\n      jump\t// in\n    tag_875:\n        /* \"#utility.yul\":34160:34249   */\n      tag_876\n        /* \"#utility.yul\":34242:34248   */\n      dup2\n        /* \"#utility.yul\":34237:34240   */\n      dup6\n        /* \"#utility.yul\":34160:34249   */\n      tag_537\n      jump\t// in\n    tag_876:\n        /* \"#utility.yul\":34153:34249   */\n      swap4\n      pop\n        /* \"#utility.yul\":34258:34323   */\n      tag_877\n        /* \"#utility.yul\":34316:34322   */\n      dup2\n        /* \"#utility.yul\":34311:34314   */\n      dup6\n        /* \"#utility.yul\":34304:34308   */\n      0x20\n        /* \"#utility.yul\":34297:34302   */\n      dup7\n        /* \"#utility.yul\":34293:34309   */\n      add\n        /* \"#utility.yul\":34258:34323   */\n      tag_501\n      jump\t// in\n    tag_877:\n        /* \"#utility.yul\":34348:34354   */\n      dup1\n        /* \"#utility.yul\":34343:34346   */\n      dup5\n        /* \"#utility.yul\":34339:34355   */\n      add\n        /* \"#utility.yul\":34332:34355   */\n      swap2\n      pop\n        /* \"#utility.yul\":34081:34361   */\n      pop\n        /* \"#utility.yul\":33971:34361   */\n      swap3\n      swap2\n      pop\n      pop\n      jump\t// out\n        /* \"#utility.yul\":34367:34802   */\n    tag_311:\n        /* \"#utility.yul\":34547:34550   */\n      0x00\n        /* \"#utility.yul\":34569:34664   */\n      tag_879\n        /* \"#utility.yul\":34660:34663   */\n      dup3\n        /* \"#utility.yul\":34651:34657   */\n      dup6\n        /* \"#utility.yul\":34569:34664   */\n      tag_538\n      jump\t// in\n    tag_879:\n        /* \"#utility.yul\":34562:34664   */\n      swap2\n      pop\n        /* \"#utility.yul\":34681:34776   */\n      tag_880\n        /* \"#utility.yul\":34772:34775   */\n      dup3\n        /* \"#utility.yul\":34763:34769   */\n      dup5\n        /* \"#utility.yul\":34681:34776   */\n      tag_538\n      jump\t// in\n    tag_880:\n        /* \"#utility.yul\":34674:34776   */\n      swap2\n      pop\n        /* \"#utility.yul\":34793:34796   */\n      dup2\n        /* \"#utility.yul\":34786:34796   */\n      swap1\n      pop\n        /* \"#utility.yul\":34367:34802   */\n      swap4\n      swap3\n      pop\n      pop\n      pop\n      jump\t// out\n        /* \"#utility.yul\":34808:35120   */\n    tag_539:\n        /* \"#utility.yul\":34948:34982   */\n      0x54686520494420656e746572656420697320696e76616c69642e204974206d75\n        /* \"#utility.yul\":34944:34945   */\n      0x00\n        /* \"#utility.yul\":34936:34942   */\n      dup3\n        /* \"#utility.yul\":34932:34946   */\n      add\n        /* \"#utility.yul\":34925:34983   */\n      mstore\n        /* \"#utility.yul\":35017:35051   */\n      0x737420626520696e207468697320696e74657276616c2030203c206964203c3d\n        /* \"#utility.yul\":35012:35014   */\n      0x20\n        /* \"#utility.yul\":35004:35010   */\n      dup3\n        /* \"#utility.yul\":35000:35015   */\n      add\n        /* \"#utility.yul\":34993:35052   */\n      mstore\n        /* \"#utility.yul\":35086:35112   */\n      0x206d6178696d756d206d696e7461626c6520746f6b656e730000000000000000\n        /* \"#utility.yul\":35081:35083   */\n      0x40\n        /* \"#utility.yul\":35073:35079   */\n      dup3\n        /* \"#utility.yul\":35069:35084   */\n      add\n        /* \"#utility.yul\":35062:35113   */\n      mstore\n        /* \"#utility.yul\":34808:35120   */\n      pop\n      jump\t// out\n        /* \"#utility.yul\":35126:35492   */\n    tag_540:\n        /* \"#utility.yul\":35268:35271   */\n      0x00\n        /* \"#utility.yul\":35289:35356   */\n      tag_883\n        /* \"#utility.yul\":35353:35355   */\n      0x58\n        /* \"#utility.yul\":35348:35351   */\n      dup4\n        /* \"#utility.yul\":35289:35356   */\n      tag_504\n      jump\t// in\n    tag_883:\n        /* \"#utility.yul\":35282:35356   */\n      swap2\n      pop\n        /* \"#utility.yul\":35365:35458   */\n      tag_884\n        /* \"#utility.yul\":35454:35457   */\n      dup3\n        /* \"#utility.yul\":35365:35458   */\n      tag_539\n      jump\t// in\n    tag_884:\n        /* \"#utility.yul\":35483:35485   */\n      0x60\n        /* \"#utility.yul\":35478:35481   */\n      dup3\n        /* \"#utility.yul\":35474:35486   */\n      add\n        /* \"#utility.yul\":35467:35486   */\n      swap1\n      pop\n        /* \"#utility.yul\":35126:35492   */\n      swap2\n      swap1\n      pop\n      jump\t// out\n        /* \"#utility.yul\":35498:35917   */\n    tag_385:\n        /* \"#utility.yul\":35664:35668   */\n      0x00\n        /* \"#utility.yul\":35702:35704   */\n      0x20\n        /* \"#utility.yul\":35691:35700   */\n      dup3\n        /* \"#utility.yul\":35687:35705   */\n      add\n        /* \"#utility.yul\":35679:35705   */\n      swap1\n      pop\n        /* \"#utility.yul\":35751:35760   */\n      dup2\n        /* \"#utility.yul\":35745:35749   */\n      dup2\n        /* \"#utility.yul\":35741:35761   */\n      sub\n        /* \"#utility.yul\":35737:35738   */\n      0x00\n        /* \"#utility.yul\":35726:35735   */\n      dup4\n        /* \"#utility.yul\":35722:35739   */\n      add\n        /* \"#utility.yul\":35715:35762   */\n      mstore\n        /* \"#utility.yul\":35779:35910   */\n      tag_886\n        /* \"#utility.yul\":35905:35909   */\n      dup2\n        /* \"#utility.yul\":35779:35910   */\n      tag_540\n      jump\t// in\n    tag_886:\n        /* \"#utility.yul\":35771:35910   */\n      swap1\n      pop\n        /* \"#utility.yul\":35498:35917   */\n      swap2\n      swap1\n      pop\n      jump\t// out\n        /* \"#utility.yul\":35923:36143   */\n    tag_391:\n        /* \"#utility.yul\":36015:36019   */\n      0x00\n        /* \"#utility.yul\":36053:36055   */\n      0x20\n        /* \"#utility.yul\":36042:36051   */\n      dup3\n        /* \"#utility.yul\":36038:36056   */\n      add\n        /* \"#utility.yul\":36030:36056   */\n      swap1\n      pop\n        /* \"#utility.yul\":36066:36136   */\n      tag_888\n        /* \"#utility.yul\":36133:36134   */\n      0x00\n        /* \"#utility.yul\":36122:36131   */\n      dup4\n        /* \"#utility.yul\":36118:36135   */\n      add\n        /* \"#utility.yul\":36109:36115   */\n      dup5\n        /* \"#utility.yul\":36066:36136   */\n      tag_521\n      jump\t// in\n    tag_888:\n        /* \"#utility.yul\":35923:36143   */\n      swap3\n      swap2\n      pop\n      pop\n      jump\t// out\n        /* \"#utility.yul\":36149:36785   */\n    tag_397:\n        /* \"#utility.yul\":36342:36346   */\n      0x00\n        /* \"#utility.yul\":36380:36383   */\n      0x80\n        /* \"#utility.yul\":36369:36378   */\n      dup3\n        /* \"#utility.yul\":36365:36384   */\n      add\n        /* \"#utility.yul\":36357:36384   */\n      swap1\n      pop\n        /* \"#utility.yul\":36394:36465   */\n      tag_890\n        /* \"#utility.yul\":36462:36463   */\n      0x00\n        /* \"#utility.yul\":36451:36460   */\n      dup4\n        /* \"#utility.yul\":36447:36464   */\n      add\n        /* \"#utility.yul\":36438:36444   */\n      dup8\n        /* \"#utility.yul\":36394:36465   */\n      tag_481\n      jump\t// in\n    tag_890:\n        /* \"#utility.yul\":36475:36547   */\n      tag_891\n        /* \"#utility.yul\":36543:36545   */\n      0x20\n        /* \"#utility.yul\":36532:36541   */\n      dup4\n        /* \"#utility.yul\":36528:36546   */\n      add\n        /* \"#utility.yul\":36519:36525   */\n      dup7\n        /* \"#utility.yul\":36475:36547   */\n      tag_481\n      jump\t// in\n    tag_891:\n        /* \"#utility.yul\":36557:36627   */\n      tag_892\n        /* \"#utility.yul\":36623:36625   */\n      0x40\n        /* \"#utility.yul\":36612:36621   */\n      dup4\n        /* \"#utility.yul\":36608:36626   */\n      add\n        /* \"#utility.yul\":36599:36605   */\n      dup6\n        /* \"#utility.yul\":36557:36627   */\n      tag_480\n      jump\t// in\n    tag_892:\n        /* \"#utility.yul\":36674:36683   */\n      dup2\n        /* \"#utility.yul\":36668:36672   */\n      dup2\n        /* \"#utility.yul\":36664:36684   */\n      sub\n        /* \"#utility.yul\":36659:36661   */\n      0x60\n        /* \"#utility.yul\":36648:36657   */\n      dup4\n        /* \"#utility.yul\":36644:36662   */\n      add\n        /* \"#utility.yul\":36637:36685   */\n      mstore\n        /* \"#utility.yul\":36702:36778   */\n      tag_893\n        /* \"#utility.yul\":36773:36777   */\n      dup2\n        /* \"#utility.yul\":36764:36770   */\n      dup5\n        /* \"#utility.yul\":36702:36778   */\n      tag_502\n      jump\t// in\n    tag_893:\n        /* \"#utility.yul\":36694:36778   */\n      swap1\n      pop\n        /* \"#utility.yul\":36149:36785   */\n      swap6\n      swap5\n      pop\n      pop\n      pop\n      pop\n      pop\n      jump\t// out\n        /* \"#utility.yul\":36791:36911   */\n    tag_541:\n        /* \"#utility.yul\":36863:36886   */\n      tag_895\n        /* \"#utility.yul\":36880:36885   */\n      dup2\n        /* \"#utility.yul\":36863:36886   */\n      tag_494\n      jump\t// in\n    tag_895:\n        /* \"#utility.yul\":36856:36861   */\n      dup2\n        /* \"#utility.yul\":36853:36887   */\n      eq\n        /* \"#utility.yul\":36843:36905   */\n      tag_896\n      jumpi\n        /* \"#utility.yul\":36901:36902   */\n      0x00\n        /* \"#utility.yul\":36898:36899   */\n      dup1\n        /* \"#utility.yul\":36891:36903   */\n      revert\n        /* \"#utility.yul\":36843:36905   */\n    tag_896:\n        /* \"#utility.yul\":36791:36911   */\n      pop\n      jump\t// out\n        /* \"#utility.yul\":36917:37058   */\n    tag_542:\n        /* \"#utility.yul\":36973:36978   */\n      0x00\n        /* \"#utility.yul\":37004:37010   */\n      dup2\n        /* \"#utility.yul\":36998:37011   */\n      mload\n        /* \"#utility.yul\":36989:37011   */\n      swap1\n      pop\n        /* \"#utility.yul\":37020:37052   */\n      tag_898\n        /* \"#utility.yul\":37046:37051   */\n      dup2\n        /* \"#utility.yul\":37020:37052   */\n      tag_541\n      jump\t// in\n    tag_898:\n        /* \"#utility.yul\":36917:37058   */\n      swap3\n      swap2\n      pop\n      pop\n      jump\t// out\n        /* \"#utility.yul\":37064:37413   */\n    tag_400:\n        /* \"#utility.yul\":37133:37139   */\n      0x00\n        /* \"#utility.yul\":37182:37184   */\n      0x20\n        /* \"#utility.yul\":37170:37179   */\n      dup3\n        /* \"#utility.yul\":37161:37168   */\n      dup5\n        /* \"#utility.yul\":37157:37180   */\n      sub\n        /* \"#utility.yul\":37153:37185   */\n      slt\n        /* \"#utility.yul\":37150:37269   */\n      iszero\n      tag_900\n      jumpi\n        /* \"#utility.yul\":37188:37267   */\n      tag_901\n      tag_458\n      jump\t// in\n    tag_901:\n        /* \"#utility.yul\":37150:37269   */\n    tag_900:\n        /* \"#utility.yul\":37308:37309   */\n      0x00\n        /* \"#utility.yul\":37333:37396   */\n      tag_902\n        /* \"#utility.yul\":37388:37395   */\n      dup5\n        /* \"#utility.yul\":37379:37385   */\n      dup3\n        /* \"#utility.yul\":37368:37377   */\n      dup6\n        /* \"#utility.yul\":37364:37386   */\n      add\n        /* \"#utility.yul\":37333:37396   */\n      tag_542\n      jump\t// in\n    tag_902:\n        /* \"#utility.yul\":37323:37396   */\n      swap2\n      pop\n        /* \"#utility.yul\":37279:37406   */\n      pop\n        /* \"#utility.yul\":37064:37413   */\n      swap3\n      swap2\n      pop\n      pop\n      jump\t// out\n\n    auxdata: 0xa2646970667358221220995cf0b5e0b67d2ae03ab47e1e69ee19ac0e063cb3f5f337ca6e1610b17770e564736f6c63430008140033\n}\n",
				"bytecode": {
					"linkReferences": {},
					"object": "608060405234801562000010575f80fd5b5060405162003d0638038062003d068339818101604052810190620000369190620001bd565b815f806101000a81548173ffffffffffffffffffffffffffffffffffffffff021916908360601c0217905550805f60146101000a81548169ffffffffffffffffffff021916908360b01c021790555062000095620000fe60201b60201c565b60015f0160066101000a81548173ffffffffffffffffffffffffffffffffffffffff021916908373ffffffffffffffffffffffffffffffffffffffff1602179055506001805f0160046101000a81548161ffff021916908361ffff160217905550505062000202565b5f33905090565b5f80fd5b5f7fffffffffffffffffffffffffffffffffffffffff00000000000000000000000082169050919050565b6200013f8162000109565b81146200014a575f80fd5b50565b5f815190506200015d8162000134565b92915050565b5f7fffffffffffffffffffff0000000000000000000000000000000000000000000082169050919050565b620001998162000163565b8114620001a4575f80fd5b50565b5f81519050620001b7816200018e565b92915050565b5f8060408385031215620001d657620001d562000105565b5b5f620001e5858286016200014d565b9250506020620001f885828601620001a7565b9150509250929050565b613af680620002105f395ff3fe6080604052600436106100fd575f3560e01c806393b871f211610094578063b1cff38011610063578063b1cff38014610311578063d5ebe3df1461034d578063dd7d84401461037d578063e560ca43146103b9578063e985e9c5146103e1576100fd565b806393b871f21461025b57806395d89b4114610297578063a22cb465146102c1578063b145ae31146102e9576100fd565b80634ec3dcfe116100d05780634ec3dcfe146101915780636e1514f1146101b957806370a08231146101e357806382a7cf1e1461021f576100fd565b806306fdde0314610101578063073944011461012b5780630ab5b8cd146101535780631249c58b1461017b575b5f80fd5b34801561010c575f80fd5b5061011561041d565b6040516101229190612718565b60405180910390f35b348015610136575f80fd5b50610151600480360381019061014c91906127d3565b610431565b005b34801561015e575f80fd5b5061017960048036038101906101749190612995565b610450565b005b348015610186575f80fd5b5061018f6107af565b005b34801561019c575f80fd5b506101b760048036038101906101b291906127d3565b610d4f565b005b3480156101c4575f80fd5b506101cd610fa8565b6040516101da9190612a37565b60405180910390f35b3480156101ee575f80fd5b5061020960048036038101906102049190612a50565b610fac565b6040516102169190612a8a565b60405180910390f35b34801561022a575f80fd5b5061024560048036038101906102409190612aa3565b61108d565b6040516102529190612add565b60405180910390f35b348015610266575f80fd5b50610281600480360381019061027c9190612aa3565b61109e565b60405161028e9190612add565b60405180910390f35b3480156102a2575f80fd5b506102ab6110ea565b6040516102b89190612b30565b60405180910390f35b3480156102cc575f80fd5b506102e760048036038101906102e29190612b7e565b6110ff565b005b3480156102f4575f80fd5b5061030f600480360381019061030a9190612c6c565b6112eb565b005b34801561031c575f80fd5b5061033760048036038101906103329190612d45565b611308565b6040516103449190612e03565b60405180910390f35b61036760048036038101906103629190612e57565b611312565b6040516103749190612efc565b60405180910390f35b348015610388575f80fd5b506103a3600480360381019061039e9190612aa3565b6116bf565b6040516103b09190612f6e565b60405180910390f35b3480156103c4575f80fd5b506103df60048036038101906103da9190612f8e565b611729565b005b3480156103ec575f80fd5b5061040760048036038101906104029190612fcc565b61184d565b6040516104149190613019565b60405180910390f35b5f805f9054906101000a900460601b905090565b61044b83838360405180602001604052805f8152506112eb565b505050565b60015f0160069054906101000a900473ffffffffffffffffffffffffffffffffffffffff1673ffffffffffffffffffffffffffffffffffffffff166104936118dc565b73ffffffffffffffffffffffffffffffffffffffff16146104e9576040517f08c379a00000000000000000000000000000000000000000000000000000000081526004016104e0906130a2565b60405180910390fd5b60015f0160049054906101000a900461ffff1661ffff168661ffff161180156105125750428510155b610551576040517f08c379a000000000000000000000000000000000000000000000000000000000815260040161054890613130565b60405180910390fd5b805f6104b181106105655761056461314e565b5b602002015161ffff1660015f0160029054906101000a900461ffff168761058c91906131a8565b61ffff16146105ea57805f6104b181106105a9576105a861314e565b5b60200201516040517fca70e2700000000000000000000000000000000000000000000000000000000081526004016105e19190612a8a565b60405180910390fd5b6103e88661ffff161115610660575f6104b08761ffff161080156106145750610611610fa8565b81145b610653576040517f08c379a000000000000000000000000000000000000000000000000000000000815260040161064a9061324d565b60405180910390fd5b5f61065d816118e3565b50505b8560015f015f6101000a81548161ffff021916908361ffff160217905550846001600201819055508360015f0160066101000a81548173ffffffffffffffffffffffffffffffffffffffff021916908373ffffffffffffffffffffffffffffffffffffffff16021790555082600180015f6101000a81548173ffffffffffffffffffffffffffffffffffffffff021916908373ffffffffffffffffffffffffffffffffffffffff1602179055508160016003018190555080610a7e5f8073ffffffffffffffffffffffffffffffffffffffff1673ffffffffffffffffffffffffffffffffffffffff1681526020019081526020015f20906104b1610765929190612626565b50848661ffff167f7f5da92c8cf80f4a196e12ba4e13abc4fd2645f0248ad338ebd76ebb4189828186868660405161079f9392919061327a565b60405180910390a3505050505050565b60015f0160069054906101000a900473ffffffffffffffffffffffffffffffffffffffff1673ffffffffffffffffffffffffffffffffffffffff166107f26118dc565b73ffffffffffffffffffffffffffffffffffffffff1614610848576040517f08c379a000000000000000000000000000000000000000000000000000000000815260040161083f906132f9565b60405180910390fd5b60015f0160029054906101000a900461ffff1661ffff1660015f0160049054906101000a900461ffff1661ffff161115610cfe575f60016004016104b18060200260405190810160405280929190826104b180156108ea576020028201915f905b82829054906101000a900465ffffffffffff1665ffffffffffff16815260200190600601906020826005010492830192600103820291508084116108a95790505b505050505090505f600160f5016104b18060200260405190810160405280929190826104b18015610965576020028201915b815f9054906101000a900473ffffffffffffffffffffffffffffffffffffffff1673ffffffffffffffffffffffffffffffffffffffff168152602001906001019080831161091c575b505050505090505f60015f0160029054906101000a900461ffff1660015f0160049054906101000a900461ffff1661099d91906131a8565b90505f60015f0160029054906101000a900461ffff1660015f015f9054906101000a900461ffff166109cf91906131a8565b90505f60015f01600281819054906101000a900461ffff166109f090613317565b91906101000a81548161ffff021916908361ffff160217905590505f60015f0160049054906101000a900461ffff1690505f4290505b8161ffff168361ffff1611610cc1575f83888561ffff166104b18110610a4f57610a4e61314e565b5b602002015165ffffffffffff16838a5f6104b18110610a7157610a7061314e565b5b602002015165ffffffffffff16610a889190613340565b610a929190613340565b610a9c91906133a0565b90505f83895f6104b18110610ab457610ab361314e565b5b60200201518a8461ffff166104b18110610ad157610ad061314e565b5b6020020151610ae091906133d0565b610aea91906133a0565b90505f85888b8461ffff166104b18110610b0757610b0661314e565b5b60200201518c8661ffff166104b18110610b2457610b2361314e565b5b6020020151610b3391906133d0565b610b3d91906133a0565b610b479190613409565b90505f898261ffff166104b18110610b6257610b6161314e565b5b60200201519050898761ffff166104b18110610b8157610b8061314e565b5b60200201518a8361ffff166104b18110610b9e57610b9d61314e565b5b602002019073ffffffffffffffffffffffffffffffffffffffff16908173ffffffffffffffffffffffffffffffffffffffff1681525050808a8861ffff166104b18110610bee57610bed61314e565b5b602002019073ffffffffffffffffffffffffffffffffffffffff16908173ffffffffffffffffffffffffffffffffffffffff16815250505f888c8461ffff166104b18110610c3f57610c3e61314e565b5b60200201518d8761ffff166104b18110610c5c57610c5b61314e565b5b6020020151610c6b91906133d0565b610c7591906133a0565b90505f8161ffff1603610c86578890505b610c9182825f6118e6565b89610c9b9061343e565b995088610ca79061343e565b985050505050508280610cb990613317565b935050610a26565b60015f0160049054906101000a900461ffff1660015f0160026101000a81548161ffff021916908361ffff16021790555050505050505050610d4d565b60015f0160049054906101000a900461ffff166040517f72864e7c000000000000000000000000000000000000000000000000000000008152600401610d449190612a8a565b60405180910390fd5b565b5f73ffffffffffffffffffffffffffffffffffffffff168273ffffffffffffffffffffffffffffffffffffffff1603610dbf575f6040517f64a0ae92000000000000000000000000000000000000000000000000000000008152600401610db69190612add565b60405180910390fd5b5f610dc982612064565b9050610a588261ffff166104b18110610de557610de461314e565b5b602091828204019190069054906101000a900460ff1615610e3b576040517f08c379a0000000000000000000000000000000000000000000000000000000008152600401610e32906134d5565b60405180910390fd5b8073ffffffffffffffffffffffffffffffffffffffff16610e5a6118dc565b73ffffffffffffffffffffffffffffffffffffffff161480610e895750610e8881610e836118dc565b61184d565b5b80610ece5750610e976118dc565b73ffffffffffffffffffffffffffffffffffffffff16610eb68361109e565b73ffffffffffffffffffffffffffffffffffffffff16145b610f1857610eda6118dc565b826040517f177e802f000000000000000000000000000000000000000000000000000000008152600401610f0f92919061352c565b60405180910390fd5b8373ffffffffffffffffffffffffffffffffffffffff168173ffffffffffffffffffffffffffffffffffffffff1614610f8c578382826040517f64283d7b000000000000000000000000000000000000000000000000000000008152600401610f8393929190613553565b60405180910390fd5b610f975f8383612187565b610fa28383836118e6565b50505050565b5f90565b5f8073ffffffffffffffffffffffffffffffffffffffff168273ffffffffffffffffffffffffffffffffffffffff160361101b576040517f08c379a0000000000000000000000000000000000000000000000000000000008152600401611012906135d2565b60405180910390fd5b610a7e5f8373ffffffffffffffffffffffffffffffffffffffff1673ffffffffffffffffffffffffffffffffffffffff1681526020019081526020015f205f6104b1811061106c5761106b61314e565b5b601091828204019190066002029054906101000a900461ffff169050919050565b5f61109782612064565b9050919050565b5f6110a882612064565b50610a7f5f8361ffff1661ffff1681526020019081526020015f205f9054906101000a900473ffffffffffffffffffffffffffffffffffffffff169050919050565b5f8060149054906101000a900460b01b905090565b8173ffffffffffffffffffffffffffffffffffffffff1661111e6118dc565b73ffffffffffffffffffffffffffffffffffffffff1603611174576040517f08c379a000000000000000000000000000000000000000000000000000000000815260040161116b90613660565b60405180910390fd5b5f73ffffffffffffffffffffffffffffffffffffffff168273ffffffffffffffffffffffffffffffffffffffff16036111e457816040517f5b08ba180000000000000000000000000000000000000000000000000000000081526004016111db9190612add565b60405180910390fd5b80610a805f6111f16118dc565b73ffffffffffffffffffffffffffffffffffffffff1673ffffffffffffffffffffffffffffffffffffffff1681526020019081526020015f205f8473ffffffffffffffffffffffffffffffffffffffff1673ffffffffffffffffffffffffffffffffffffffff1681526020019081526020015f205f6101000a81548160ff0219169083151502179055508173ffffffffffffffffffffffffffffffffffffffff1661129a6118dc565b73ffffffffffffffffffffffffffffffffffffffff167f17307eab39ab6107e8899845ad3d59bd9653f200f220920489ca2b5937696c31836040516112df9190613019565b60405180910390a35050565b6112f6848484610d4f565b61130284848484612243565b50505050565b5f95945050505050565b606060015f015f9054906101000a900461ffff1661ffff1660015f0160049054906101000a900461ffff1661ffff161115801561135457504260016002015411155b611393576040517f08c379a000000000000000000000000000000000000000000000000000000000815260040161138a906136ee565b60405180910390fd5b5f73ffffffffffffffffffffffffffffffffffffffff166113b26118dc565b73ffffffffffffffffffffffffffffffffffffffff16141580156113f357505f6113da6118dc565b73ffffffffffffffffffffffffffffffffffffffff163b145b611432576040517f08c379a0000000000000000000000000000000000000000000000000000000008152600401611429906137a2565b60405180910390fd5b60016003015434101561147a576040517f08c379a000000000000000000000000000000000000000000000000000000000815260040161147190613830565b60405180910390fd5b5f80600180015f9054906101000a900473ffffffffffffffffffffffffffffffffffffffff1673ffffffffffffffffffffffffffffffffffffffff16346040516114c39061387b565b5f6040518083038185875af1925050503d805f81146114fd576040519150601f19603f3d011682016040523d82523d5f602084013e611502565b606091505b509150915081611547576040517f08c379a000000000000000000000000000000000000000000000000000000000815260040161153e906138d9565b60405180910390fd5b60015f01600481819054906101000a900461ffff1661156590613317565b91906101000a81548161ffff021916908361ffff16021790555083600160040160015f0160049054906101000a900461ffff1661ffff166104b181106115ae576115ad61314e565b5b600591828204019190066006026101000a81548165ffffffffffff021916908365ffffffffffff1602179055508360016004015f6104b181106115f4576115f361314e565b5b600591828204019190066006028282829054906101000a900465ffffffffffff1661161f91906133d0565b92506101000a81548165ffffffffffff021916908365ffffffffffff1602179055506116496118dc565b600160f50160015f0160049054906101000a900461ffff1661ffff166104b181106116775761167661314e565b5b015f6101000a81548173ffffffffffffffffffffffffffffffffffffffff021916908373ffffffffffffffffffffffffffffffffffffffff1602179055508092505050919050565b60606116ca82612064565b505f6116d46123f5565b90505f8151116116f25760405180602001604052805f815250611721565b806117008461ffff1661240b565b604051602001611711929190613931565b6040516020818303038152906040525b915050919050565b5f61173382612064565b90508273ffffffffffffffffffffffffffffffffffffffff168173ffffffffffffffffffffffffffffffffffffffff16036117a3576040517f08c379a000000000000000000000000000000000000000000000000000000000815260040161179a90613660565b60405180910390fd5b6117ab6118dc565b73ffffffffffffffffffffffffffffffffffffffff168173ffffffffffffffffffffffffffffffffffffffff16141580156117f457506117f2816117ed6118dc565b61184d565b155b1561183d576118016118dc565b6040517fa9fbf51f0000000000000000000000000000000000000000000000000000000081526004016118349190612add565b60405180910390fd5b611848838383612187565b505050565b5f610a805f8473ffffffffffffffffffffffffffffffffffffffff1673ffffffffffffffffffffffffffffffffffffffff1681526020019081526020015f205f8373ffffffffffffffffffffffffffffffffffffffff1673ffffffffffffffffffffffffffffffffffffffff1681526020019081526020015f205f9054906101000a900460ff16905092915050565b5f33905090565b50565b5f610a7e5f8373ffffffffffffffffffffffffffffffffffffffff1673ffffffffffffffffffffffffffffffffffffffff1681526020019081526020015f205f6104b181106119385761193761314e565b5b601091828204019190066002029054906101000a900461ffff1690505f73ffffffffffffffffffffffffffffffffffffffff168273ffffffffffffffffffffffffffffffffffffffff1614611b20575f600190505b8161ffff168161ffff1611611b1a578361ffff16610a7e5f8573ffffffffffffffffffffffffffffffffffffffff1673ffffffffffffffffffffffffffffffffffffffff1681526020019081526020015f208261ffff166104b181106119f6576119f561314e565b5b601091828204019190066002029054906101000a900461ffff1661ffff1603611b0757610a7e5f8473ffffffffffffffffffffffffffffffffffffffff1673ffffffffffffffffffffffffffffffffffffffff1681526020019081526020015f208261ffff166104b18110611a6e57611a6d61314e565b5b601091828204019190066002029054906101000a900461ffff16610a7e5f8573ffffffffffffffffffffffffffffffffffffffff1673ffffffffffffffffffffffffffffffffffffffff1681526020019081526020015f208261ffff166104b18110611add57611adc61314e565b5b601091828204019190066002026101000a81548161ffff021916908361ffff160217905550611b1a565b8080611b1290613317565b91505061198d565b50611d2a565b5f839050610a7e5f8473ffffffffffffffffffffffffffffffffffffffff1673ffffffffffffffffffffffffffffffffffffffff1681526020019081526020015f208161ffff166104b18110611b7957611b7861314e565b5b601091828204019190066002029054906101000a900461ffff1693505f73ffffffffffffffffffffffffffffffffffffffff166105a78561ffff166104b18110611bc657611bc561314e565b5b015f9054906101000a900473ffffffffffffffffffffffffffffffffffffffff1673ffffffffffffffffffffffffffffffffffffffff1614611c3f57806040517f71e52b9c000000000000000000000000000000000000000000000000000000008152600401611c369190612a8a565b60405180910390fd5b610a7e5f8473ffffffffffffffffffffffffffffffffffffffff1673ffffffffffffffffffffffffffffffffffffffff1681526020019081526020015f208261ffff166104b18110611c9457611c9361314e565b5b601091828204019190066002029054906101000a900461ffff16610a7e5f8573ffffffffffffffffffffffffffffffffffffffff1673ffffffffffffffffffffffffffffffffffffffff1681526020019081526020015f208261ffff166104b18110611d0357611d0261314e565b5b601091828204019190066002026101000a81548161ffff021916908361ffff160217905550505b5f610a7e5f8473ffffffffffffffffffffffffffffffffffffffff1673ffffffffffffffffffffffffffffffffffffffff1681526020019081526020015f208261ffff166104b18110611d8057611d7f61314e565b5b601091828204019190066002026101000a81548161ffff021916908361ffff1602179055506001610a7e5f8473ffffffffffffffffffffffffffffffffffffffff1673ffffffffffffffffffffffffffffffffffffffff1681526020019081526020015f205f6104b18110611df857611df761314e565b5b601091828204019190066002028282829054906101000a900461ffff16611e1f91906131a8565b92506101000a81548161ffff021916908361ffff1602179055505f6001610a7e5f8773ffffffffffffffffffffffffffffffffffffffff1673ffffffffffffffffffffffffffffffffffffffff1681526020019081526020015f205f6104b18110611e8d57611e8c61314e565b5b601091828204019190066002029054906101000a900461ffff16611eb19190613409565b905083610a7e5f8773ffffffffffffffffffffffffffffffffffffffff1673ffffffffffffffffffffffffffffffffffffffff1681526020019081526020015f208261ffff166104b18110611f0957611f0861314e565b5b601091828204019190066002026101000a81548161ffff021916908361ffff16021790555080610a7e5f8773ffffffffffffffffffffffffffffffffffffffff1673ffffffffffffffffffffffffffffffffffffffff1681526020019081526020015f205f6104b18110611f8057611f7f61314e565b5b601091828204019190066002026101000a81548161ffff021916908361ffff160217905550846105a78561ffff166104b18110611fc057611fbf61314e565b5b015f6101000a81548173ffffffffffffffffffffffffffffffffffffffff021916908373ffffffffffffffffffffffffffffffffffffffff1602179055508361ffff168573ffffffffffffffffffffffffffffffffffffffff168473ffffffffffffffffffffffffffffffffffffffff167f89896edbd223c9360ce42ddfed7522a2bffb20c056e4c42d42370cb493b6567660405160405180910390a45050505050565b5f8161ffff165f108015612091575060015f015f9054906101000a900461ffff1661ffff168261ffff1611155b6120d0576040517f08c379a00000000000000000000000000000000000000000000000000000000081526004016120c7906139ea565b60405180910390fd5b5f6105a78361ffff166104b181106120eb576120ea61314e565b5b015f9054906101000a900473ffffffffffffffffffffffffffffffffffffffff1690505f73ffffffffffffffffffffffffffffffffffffffff168173ffffffffffffffffffffffffffffffffffffffff160361217e57826040517f7e2732890000000000000000000000000000000000000000000000000000000081526004016121759190613a08565b60405180910390fd5b80915050919050565b82610a7f5f8461ffff1661ffff1681526020019081526020015f205f6101000a81548173ffffffffffffffffffffffffffffffffffffffff021916908373ffffffffffffffffffffffffffffffffffffffff1602179055508161ffff168373ffffffffffffffffffffffffffffffffffffffff168273ffffffffffffffffffffffffffffffffffffffff167f0a9d294fd4bd42bb30e96cba2b478d149a783fba3c729b1e5c42bec89d95b85a60405160405180910390a4505050565b5f8373ffffffffffffffffffffffffffffffffffffffff163b11156123ef578273ffffffffffffffffffffffffffffffffffffffff1663b1cff3806122866118dc565b8685856040518563ffffffff1660e01b81526004016122a89493929190613a21565b6020604051808303815f875af19250505080156122e357506040513d601f19601f820116820180604052508101906122e09190613a95565b60015b612364573d805f8114612311576040519150601f19603f3d011682016040523d82523d5f602084013e612316565b606091505b505f81510361235c57836040517f64a0ae920000000000000000000000000000000000000000000000000000000081526004016123539190612add565b60405180910390fd5b805181602001fd5b63b1cff38060e01b7bffffffffffffffffffffffffffffffffffffffffffffffffffffffff1916817bffffffffffffffffffffffffffffffffffffffffffffffffffffffff1916146123ed57836040517f64a0ae920000000000000000000000000000000000000000000000000000000081526004016123e49190612add565b60405180910390fd5b505b50505050565b606060405180602001604052805f815250905090565b60605f6001612419846124d5565b0190505f8167ffffffffffffffff8111156124375761243661286a565b5b6040519080825280601f01601f1916602001820160405280156124695781602001600182028036833780820191505090505b5090505f82602001820190505b6001156124ca578080600190039150507f3031323334353637383961626364656600000000000000000000000000000000600a86061a8153600a85816124bf576124be613373565b5b0494505f8503612476575b819350505050919050565b5f805f90507a184f03e93ff9f4daa797ed6e38ed64bf6a1f0100000000000000008310612531577a184f03e93ff9f4daa797ed6e38ed64bf6a1f010000000000000000838161252757612526613373565b5b0492506040810190505b6d04ee2d6d415b85acef8100000000831061256e576d04ee2d6d415b85acef8100000000838161256457612563613373565b5b0492506020810190505b662386f26fc10000831061259d57662386f26fc10000838161259357612592613373565b5b0492506010810190505b6305f5e10083106125c6576305f5e10083816125bc576125bb613373565b5b0492506008810190505b61271083106125eb5761271083816125e1576125e0613373565b5b0492506004810190505b6064831061260e576064838161260457612603613373565b5b0492506002810190505b600a831061261d576001810190505b80915050919050565b826104b1600f016010900481019282156126b2579160200282015f5b8382111561268257835183826101000a81548161ffff021916908361ffff1602179055509260200192600201602081600101049283019260010302612642565b80156126b05782816101000a81549061ffff0219169055600201602081600101049283019260010302612682565b505b5090506126bf91906126c3565b5090565b5b808211156126da575f815f9055506001016126c4565b5090565b5f7fffffffffffffffffffffffffffffffffffffffff00000000000000000000000082169050919050565b612712816126de565b82525050565b5f60208201905061272b5f830184612709565b92915050565b5f604051905090565b5f80fd5b5f80fd5b5f73ffffffffffffffffffffffffffffffffffffffff82169050919050565b5f61276b82612742565b9050919050565b61277b81612761565b8114612785575f80fd5b50565b5f8135905061279681612772565b92915050565b5f61ffff82169050919050565b6127b28161279c565b81146127bc575f80fd5b50565b5f813590506127cd816127a9565b92915050565b5f805f606084860312156127ea576127e961273a565b5b5f6127f786828701612788565b935050602061280886828701612788565b9250506040612819868287016127bf565b9150509250925092565b5f819050919050565b61283581612823565b811461283f575f80fd5b50565b5f813590506128508161282c565b92915050565b5f80fd5b5f601f19601f8301169050919050565b7f4e487b71000000000000000000000000000000000000000000000000000000005f52604160045260245ffd5b6128a08261285a565b810181811067ffffffffffffffff821117156128bf576128be61286a565b5b80604052505050565b5f6128d1612731565b90506128dd8282612897565b919050565b5f67ffffffffffffffff8211156128fc576128fb61286a565b5b602082029050919050565b5f80fd5b5f61291d612918846128e2565b6128c8565b9050806020840283018581111561293757612936612907565b5b835b81811015612960578061294c88826127bf565b845260208401935050602081019050612939565b5050509392505050565b5f82601f83011261297e5761297d612856565b5b6104b161298c84828561290b565b91505092915050565b5f805f805f806196c087890312156129b0576129af61273a565b5b5f6129bd89828a016127bf565b96505060206129ce89828a01612842565b95505060406129df89828a01612788565b94505060606129f089828a01612788565b9350506080612a0189828a01612842565b92505060a0612a1289828a0161296a565b9150509295509295509295565b5f819050919050565b612a3181612a1f565b82525050565b5f602082019050612a4a5f830184612a28565b92915050565b5f60208284031215612a6557612a6461273a565b5b5f612a7284828501612788565b91505092915050565b612a848161279c565b82525050565b5f602082019050612a9d5f830184612a7b565b92915050565b5f60208284031215612ab857612ab761273a565b5b5f612ac5848285016127bf565b91505092915050565b612ad781612761565b82525050565b5f602082019050612af05f830184612ace565b92915050565b5f7fffffffffffffffffffff0000000000000000000000000000000000000000000082169050919050565b612b2a81612af6565b82525050565b5f602082019050612b435f830184612b21565b92915050565b5f8115159050919050565b612b5d81612b49565b8114612b67575f80fd5b50565b5f81359050612b7881612b54565b92915050565b5f8060408385031215612b9457612b9361273a565b5b5f612ba185828601612788565b9250506020612bb285828601612b6a565b9150509250929050565b5f80fd5b5f67ffffffffffffffff821115612bda57612bd961286a565b5b612be38261285a565b9050602081019050919050565b828183375f83830152505050565b5f612c10612c0b84612bc0565b6128c8565b905082815260208101848484011115612c2c57612c2b612bbc565b5b612c37848285612bf0565b509392505050565b5f82601f830112612c5357612c52612856565b5b8135612c63848260208601612bfe565b91505092915050565b5f805f8060808587031215612c8457612c8361273a565b5b5f612c9187828801612788565b9450506020612ca287828801612788565b9350506040612cb3878288016127bf565b925050606085013567ffffffffffffffff811115612cd457612cd361273e565b5b612ce087828801612c3f565b91505092959194509250565b5f80fd5b5f8083601f840112612d0557612d04612856565b5b8235905067ffffffffffffffff811115612d2257612d21612cec565b5b602083019150836001820283011115612d3e57612d3d612907565b5b9250929050565b5f805f805f60808688031215612d5e57612d5d61273a565b5b5f612d6b88828901612788565b9550506020612d7c88828901612788565b9450506040612d8d888289016127bf565b935050606086013567ffffffffffffffff811115612dae57612dad61273e565b5b612dba88828901612cf0565b92509250509295509295909350565b5f7fffffffff0000000000000000000000000000000000000000000000000000000082169050919050565b612dfd81612dc9565b82525050565b5f602082019050612e165f830184612df4565b92915050565b5f65ffffffffffff82169050919050565b612e3681612e1c565b8114612e40575f80fd5b50565b5f81359050612e5181612e2d565b92915050565b5f60208284031215612e6c57612e6b61273a565b5b5f612e7984828501612e43565b91505092915050565b5f81519050919050565b5f82825260208201905092915050565b5f5b83811015612eb9578082015181840152602081019050612e9e565b5f8484015250505050565b5f612ece82612e82565b612ed88185612e8c565b9350612ee8818560208601612e9c565b612ef18161285a565b840191505092915050565b5f6020820190508181035f830152612f148184612ec4565b905092915050565b5f81519050919050565b5f82825260208201905092915050565b5f612f4082612f1c565b612f4a8185612f26565b9350612f5a818560208601612e9c565b612f638161285a565b840191505092915050565b5f6020820190508181035f830152612f868184612f36565b905092915050565b5f8060408385031215612fa457612fa361273a565b5b5f612fb185828601612788565b9250506020612fc2858286016127bf565b9150509250929050565b5f8060408385031215612fe257612fe161273a565b5b5f612fef85828601612788565b925050602061300085828601612788565b9150509250929050565b61301381612b49565b82525050565b5f60208201905061302c5f83018461300a565b92915050565b7f596f7520646f206e6f7420686176652061636365737320746f207468697320665f8201527f756e6374696f6e00000000000000000000000000000000000000000000000000602082015250565b5f61308c602783612f26565b915061309782613032565b604082019050919050565b5f6020820190508181035f8301526130b981613080565b9050919050565b7f54686520656e746572656420706172616d657465727320617265206e6f7420615f8201527f636365707461626c650000000000000000000000000000000000000000000000602082015250565b5f61311a602983612f26565b9150613125826130c0565b604082019050919050565b5f6020820190508181035f8301526131478161310e565b9050919050565b7f4e487b71000000000000000000000000000000000000000000000000000000005f52603260045260245ffd5b7f4e487b71000000000000000000000000000000000000000000000000000000005f52601160045260245ffd5b5f6131b28261279c565b91506131bd8361279c565b9250828203905061ffff8111156131d7576131d661317b565b5b92915050565b7f596f7520646f206e6f742068617665207065726d697373696f6e20746f2075705f8201527f6772616465000000000000000000000000000000000000000000000000000000602082015250565b5f613237602583612f26565b9150613242826131dd565b604082019050919050565b5f6020820190508181035f8301526132648161322b565b9050919050565b61327481612823565b82525050565b5f60608201905061328d5f830186612ace565b61329a6020830185612ace565b6132a7604083018461326b565b949350505050565b7f416363657373206f6e6c7920666f72206578656375746f7200000000000000005f82015250565b5f6132e3601883612f26565b91506132ee826132af565b602082019050919050565b5f6020820190508181035f830152613310816132d7565b9050919050565b5f6133218261279c565b915061ffff82036133355761333461317b565b5b600182019050919050565b5f61334a82612823565b915061335583612823565b925082820190508082111561336d5761336c61317b565b5b92915050565b7f4e487b71000000000000000000000000000000000000000000000000000000005f52601260045260245ffd5b5f6133aa8261279c565b91506133b58361279c565b9250826133c5576133c4613373565b5b828206905092915050565b5f6133da82612e1c565b91506133e583612e1c565b9250828201905065ffffffffffff8111156134035761340261317b565b5b92915050565b5f6134138261279c565b915061341e8361279c565b9250828201905061ffff8111156134385761343761317b565b5b92915050565b5f6134488261279c565b91505f820361345a5761345961317b565b5b600182039050919050565b7f546865207472616e73666572206f66207468697320746f6b656e2069732063755f8201527f7272656e746c792062616e6e6564000000000000000000000000000000000000602082015250565b5f6134bf602e83612f26565b91506134ca82613465565b604082019050919050565b5f6020820190508181035f8301526134ec816134b3565b9050919050565b5f819050919050565b5f61351661351161350c8461279c565b6134f3565b612823565b9050919050565b613526816134fc565b82525050565b5f60408201905061353f5f830185612ace565b61354c602083018461351d565b9392505050565b5f6060820190506135665f830186612ace565b613573602083018561351d565b6135806040830184612ace565b949350505050565b7f54686520696e70757420616464726573732063616e6e6f74206265207a65726f5f82015250565b5f6135bc602083612f26565b91506135c782613588565b602082019050919050565b5f6020820190508181035f8301526135e9816135b0565b9050919050565b7f5468652061646472657373206f6620746865206f776e657220616e64207468655f8201527f206f70657261746f72206d75737420626520646966666572656e740000000000602082015250565b5f61364a603b83612f26565b9150613655826135f0565b604082019050919050565b5f6020820190508181035f8301526136778161363e565b9050919050565b7f4974206973206e6f7420706f737369626c6520746f207265676973746572206e5f8201527f6f77000000000000000000000000000000000000000000000000000000000000602082015250565b5f6136d8602283612f26565b91506136e38261367e565b604082019050919050565b5f6020820190508181035f830152613705816136cc565b9050919050565b7f5468652061646472657373206f66207468652072656769737472616e74206d755f8201527f7374206e6f742062652030206f72207468652061646472657373206f6620612060208201527f636f6e7472616374000000000000000000000000000000000000000000000000604082015250565b5f61378c604883612f26565b91506137978261370c565b606082019050919050565b5f6020820190508181035f8301526137b981613780565b9050919050565b7f54686520616d6f756e742073686f756c64206e6f74206265206c6573732074685f8201527f616e20746865206d696e74207072696365000000000000000000000000000000602082015250565b5f61381a603183612f26565b9150613825826137c0565b604082019050919050565b5f6020820190508181035f8301526138478161380e565b9050919050565b5f81905092915050565b50565b5f6138665f8361384e565b915061387182613858565b5f82019050919050565b5f6138858261385b565b9150819050919050565b7f54686520616d6f756e7420776173206e6f742073656e740000000000000000005f82015250565b5f6138c3601783612f26565b91506138ce8261388f565b602082019050919050565b5f6020820190508181035f8301526138f0816138b7565b9050919050565b5f81905092915050565b5f61390b82612f1c565b61391581856138f7565b9350613925818560208601612e9c565b80840191505092915050565b5f61393c8285613901565b91506139488284613901565b91508190509392505050565b7f54686520494420656e746572656420697320696e76616c69642e204974206d755f8201527f737420626520696e207468697320696e74657276616c2030203c206964203c3d60208201527f206d6178696d756d206d696e7461626c6520746f6b656e730000000000000000604082015250565b5f6139d4605883612f26565b91506139df82613954565b606082019050919050565b5f6020820190508181035f830152613a01816139c8565b9050919050565b5f602082019050613a1b5f83018461351d565b92915050565b5f608082019050613a345f830187612ace565b613a416020830186612ace565b613a4e6040830185612a7b565b8181036060830152613a608184612ec4565b905095945050505050565b613a7481612dc9565b8114613a7e575f80fd5b50565b5f81519050613a8f81613a6b565b92915050565b5f60208284031215613aaa57613aa961273a565b5b5f613ab784828501613a81565b9150509291505056fea2646970667358221220995cf0b5e0b67d2ae03ab47e1e69ee19ac0e063cb3f5f337ca6e1610b17770e564736f6c63430008140033",
					"opcodes": "PUSH1 0x80 PUSH1 0x40 MSTORE CALLVALUE DUP1 ISZERO PUSH3 0x10 JUMPI PUSH0 DUP1 REVERT JUMPDEST POP PUSH1 0x40 MLOAD PUSH3 0x3D06 CODESIZE SUB DUP1 PUSH3 0x3D06 DUP4 CODECOPY DUP2 DUP2 ADD PUSH1 0x40 MSTORE DUP2 ADD SWAP1 PUSH3 0x36 SWAP2 SWAP1 PUSH3 0x1BD JUMP JUMPDEST DUP2 PUSH0 DUP1 PUSH2 0x100 EXP DUP2 SLOAD DUP2 PUSH20 0xFFFFFFFFFFFFFFFFFFFFFFFFFFFFFFFFFFFFFFFF MUL NOT AND SWAP1 DUP4 PUSH1 0x60 SHR MUL OR SWAP1 SSTORE POP DUP1 PUSH0 PUSH1 0x14 PUSH2 0x100 EXP DUP2 SLOAD DUP2 PUSH10 0xFFFFFFFFFFFFFFFFFFFF MUL NOT AND SWAP1 DUP4 PUSH1 0xB0 SHR MUL OR SWAP1 SSTORE POP PUSH3 0x95 PUSH3 0xFE PUSH1 0x20 SHL PUSH1 0x20 SHR JUMP JUMPDEST PUSH1 0x1 PUSH0 ADD PUSH1 0x6 PUSH2 0x100 EXP DUP2 SLOAD DUP2 PUSH20 0xFFFFFFFFFFFFFFFFFFFFFFFFFFFFFFFFFFFFFFFF MUL NOT AND SWAP1 DUP4 PUSH20 0xFFFFFFFFFFFFFFFFFFFFFFFFFFFFFFFFFFFFFFFF AND MUL OR SWAP1 SSTORE POP PUSH1 0x1 DUP1 PUSH0 ADD PUSH1 0x4 PUSH2 0x100 EXP DUP2 SLOAD DUP2 PUSH2 0xFFFF MUL NOT AND SWAP1 DUP4 PUSH2 0xFFFF AND MUL OR SWAP1 SSTORE POP POP POP PUSH3 0x202 JUMP JUMPDEST PUSH0 CALLER SWAP1 POP SWAP1 JUMP JUMPDEST PUSH0 DUP1 REVERT JUMPDEST PUSH0 PUSH32 0xFFFFFFFFFFFFFFFFFFFFFFFFFFFFFFFFFFFFFFFF000000000000000000000000 DUP3 AND SWAP1 POP SWAP2 SWAP1 POP JUMP JUMPDEST PUSH3 0x13F DUP2 PUSH3 0x109 JUMP JUMPDEST DUP2 EQ PUSH3 0x14A JUMPI PUSH0 DUP1 REVERT JUMPDEST POP JUMP JUMPDEST PUSH0 DUP2 MLOAD SWAP1 POP PUSH3 0x15D DUP2 PUSH3 0x134 JUMP JUMPDEST SWAP3 SWAP2 POP POP JUMP JUMPDEST PUSH0 PUSH32 0xFFFFFFFFFFFFFFFFFFFF00000000000000000000000000000000000000000000 DUP3 AND SWAP1 POP SWAP2 SWAP1 POP JUMP JUMPDEST PUSH3 0x199 DUP2 PUSH3 0x163 JUMP JUMPDEST DUP2 EQ PUSH3 0x1A4 JUMPI PUSH0 DUP1 REVERT JUMPDEST POP JUMP JUMPDEST PUSH0 DUP2 MLOAD SWAP1 POP PUSH3 0x1B7 DUP2 PUSH3 0x18E JUMP JUMPDEST SWAP3 SWAP2 POP POP JUMP JUMPDEST PUSH0 DUP1 PUSH1 0x40 DUP4 DUP6 SUB SLT ISZERO PUSH3 0x1D6 JUMPI PUSH3 0x1D5 PUSH3 0x105 JUMP JUMPDEST JUMPDEST PUSH0 PUSH3 0x1E5 DUP6 DUP3 DUP7 ADD PUSH3 0x14D JUMP JUMPDEST SWAP3 POP POP PUSH1 0x20 PUSH3 0x1F8 DUP6 DUP3 DUP7 ADD PUSH3 0x1A7 JUMP JUMPDEST SWAP2 POP POP SWAP3 POP SWAP3 SWAP1 POP JUMP JUMPDEST PUSH2 0x3AF6 DUP1 PUSH3 0x210 PUSH0 CODECOPY PUSH0 RETURN INVALID PUSH1 0x80 PUSH1 0x40 MSTORE PUSH1 0x4 CALLDATASIZE LT PUSH2 0xFD JUMPI PUSH0 CALLDATALOAD PUSH1 0xE0 SHR DUP1 PUSH4 0x93B871F2 GT PUSH2 0x94 JUMPI DUP1 PUSH4 0xB1CFF380 GT PUSH2 0x63 JUMPI DUP1 PUSH4 0xB1CFF380 EQ PUSH2 0x311 JUMPI DUP1 PUSH4 0xD5EBE3DF EQ PUSH2 0x34D JUMPI DUP1 PUSH4 0xDD7D8440 EQ PUSH2 0x37D JUMPI DUP1 PUSH4 0xE560CA43 EQ PUSH2 0x3B9 JUMPI DUP1 PUSH4 0xE985E9C5 EQ PUSH2 0x3E1 JUMPI PUSH2 0xFD JUMP JUMPDEST DUP1 PUSH4 0x93B871F2 EQ PUSH2 0x25B JUMPI DUP1 PUSH4 0x95D89B41 EQ PUSH2 0x297 JUMPI DUP1 PUSH4 0xA22CB465 EQ PUSH2 0x2C1 JUMPI DUP1 PUSH4 0xB145AE31 EQ PUSH2 0x2E9 JUMPI PUSH2 0xFD JUMP JUMPDEST DUP1 PUSH4 0x4EC3DCFE GT PUSH2 0xD0 JUMPI DUP1 PUSH4 0x4EC3DCFE EQ PUSH2 0x191 JUMPI DUP1 PUSH4 0x6E1514F1 EQ PUSH2 0x1B9 JUMPI DUP1 PUSH4 0x70A08231 EQ PUSH2 0x1E3 JUMPI DUP1 PUSH4 0x82A7CF1E EQ PUSH2 0x21F JUMPI PUSH2 0xFD JUMP JUMPDEST DUP1 PUSH4 0x6FDDE03 EQ PUSH2 0x101 JUMPI DUP1 PUSH4 0x7394401 EQ PUSH2 0x12B JUMPI DUP1 PUSH4 0xAB5B8CD EQ PUSH2 0x153 JUMPI DUP1 PUSH4 0x1249C58B EQ PUSH2 0x17B JUMPI JUMPDEST PUSH0 DUP1 REVERT JUMPDEST CALLVALUE DUP1 ISZERO PUSH2 0x10C JUMPI PUSH0 DUP1 REVERT JUMPDEST POP PUSH2 0x115 PUSH2 0x41D JUMP JUMPDEST PUSH1 0x40 MLOAD PUSH2 0x122 SWAP2 SWAP1 PUSH2 0x2718 JUMP JUMPDEST PUSH1 0x40 MLOAD DUP1 SWAP2 SUB SWAP1 RETURN JUMPDEST CALLVALUE DUP1 ISZERO PUSH2 0x136 JUMPI PUSH0 DUP1 REVERT JUMPDEST POP PUSH2 0x151 PUSH1 0x4 DUP1 CALLDATASIZE SUB DUP2 ADD SWAP1 PUSH2 0x14C SWAP2 SWAP1 PUSH2 0x27D3 JUMP JUMPDEST PUSH2 0x431 JUMP JUMPDEST STOP JUMPDEST CALLVALUE DUP1 ISZERO PUSH2 0x15E JUMPI PUSH0 DUP1 REVERT JUMPDEST POP PUSH2 0x179 PUSH1 0x4 DUP1 CALLDATASIZE SUB DUP2 ADD SWAP1 PUSH2 0x174 SWAP2 SWAP1 PUSH2 0x2995 JUMP JUMPDEST PUSH2 0x450 JUMP JUMPDEST STOP JUMPDEST CALLVALUE DUP1 ISZERO PUSH2 0x186 JUMPI PUSH0 DUP1 REVERT JUMPDEST POP PUSH2 0x18F PUSH2 0x7AF JUMP JUMPDEST STOP JUMPDEST CALLVALUE DUP1 ISZERO PUSH2 0x19C JUMPI PUSH0 DUP1 REVERT JUMPDEST POP PUSH2 0x1B7 PUSH1 0x4 DUP1 CALLDATASIZE SUB DUP2 ADD SWAP1 PUSH2 0x1B2 SWAP2 SWAP1 PUSH2 0x27D3 JUMP JUMPDEST PUSH2 0xD4F JUMP JUMPDEST STOP JUMPDEST CALLVALUE DUP1 ISZERO PUSH2 0x1C4 JUMPI PUSH0 DUP1 REVERT JUMPDEST POP PUSH2 0x1CD PUSH2 0xFA8 JUMP JUMPDEST PUSH1 0x40 MLOAD PUSH2 0x1DA SWAP2 SWAP1 PUSH2 0x2A37 JUMP JUMPDEST PUSH1 0x40 MLOAD DUP1 SWAP2 SUB SWAP1 RETURN JUMPDEST CALLVALUE DUP1 ISZERO PUSH2 0x1EE JUMPI PUSH0 DUP1 REVERT JUMPDEST POP PUSH2 0x209 PUSH1 0x4 DUP1 CALLDATASIZE SUB DUP2 ADD SWAP1 PUSH2 0x204 SWAP2 SWAP1 PUSH2 0x2A50 JUMP JUMPDEST PUSH2 0xFAC JUMP JUMPDEST PUSH1 0x40 MLOAD PUSH2 0x216 SWAP2 SWAP1 PUSH2 0x2A8A JUMP JUMPDEST PUSH1 0x40 MLOAD DUP1 SWAP2 SUB SWAP1 RETURN JUMPDEST CALLVALUE DUP1 ISZERO PUSH2 0x22A JUMPI PUSH0 DUP1 REVERT JUMPDEST POP PUSH2 0x245 PUSH1 0x4 DUP1 CALLDATASIZE SUB DUP2 ADD SWAP1 PUSH2 0x240 SWAP2 SWAP1 PUSH2 0x2AA3 JUMP JUMPDEST PUSH2 0x108D JUMP JUMPDEST PUSH1 0x40 MLOAD PUSH2 0x252 SWAP2 SWAP1 PUSH2 0x2ADD JUMP JUMPDEST PUSH1 0x40 MLOAD DUP1 SWAP2 SUB SWAP1 RETURN JUMPDEST CALLVALUE DUP1 ISZERO PUSH2 0x266 JUMPI PUSH0 DUP1 REVERT JUMPDEST POP PUSH2 0x281 PUSH1 0x4 DUP1 CALLDATASIZE SUB DUP2 ADD SWAP1 PUSH2 0x27C SWAP2 SWAP1 PUSH2 0x2AA3 JUMP JUMPDEST PUSH2 0x109E JUMP JUMPDEST PUSH1 0x40 MLOAD PUSH2 0x28E SWAP2 SWAP1 PUSH2 0x2ADD JUMP JUMPDEST PUSH1 0x40 MLOAD DUP1 SWAP2 SUB SWAP1 RETURN JUMPDEST CALLVALUE DUP1 ISZERO PUSH2 0x2A2 JUMPI PUSH0 DUP1 REVERT JUMPDEST POP PUSH2 0x2AB PUSH2 0x10EA JUMP JUMPDEST PUSH1 0x40 MLOAD PUSH2 0x2B8 SWAP2 SWAP1 PUSH2 0x2B30 JUMP JUMPDEST PUSH1 0x40 MLOAD DUP1 SWAP2 SUB SWAP1 RETURN JUMPDEST CALLVALUE DUP1 ISZERO PUSH2 0x2CC JUMPI PUSH0 DUP1 REVERT JUMPDEST POP PUSH2 0x2E7 PUSH1 0x4 DUP1 CALLDATASIZE SUB DUP2 ADD SWAP1 PUSH2 0x2E2 SWAP2 SWAP1 PUSH2 0x2B7E JUMP JUMPDEST PUSH2 0x10FF JUMP JUMPDEST STOP JUMPDEST CALLVALUE DUP1 ISZERO PUSH2 0x2F4 JUMPI PUSH0 DUP1 REVERT JUMPDEST POP PUSH2 0x30F PUSH1 0x4 DUP1 CALLDATASIZE SUB DUP2 ADD SWAP1 PUSH2 0x30A SWAP2 SWAP1 PUSH2 0x2C6C JUMP JUMPDEST PUSH2 0x12EB JUMP JUMPDEST STOP JUMPDEST CALLVALUE DUP1 ISZERO PUSH2 0x31C JUMPI PUSH0 DUP1 REVERT JUMPDEST POP PUSH2 0x337 PUSH1 0x4 DUP1 CALLDATASIZE SUB DUP2 ADD SWAP1 PUSH2 0x332 SWAP2 SWAP1 PUSH2 0x2D45 JUMP JUMPDEST PUSH2 0x1308 JUMP JUMPDEST PUSH1 0x40 MLOAD PUSH2 0x344 SWAP2 SWAP1 PUSH2 0x2E03 JUMP JUMPDEST PUSH1 0x40 MLOAD DUP1 SWAP2 SUB SWAP1 RETURN JUMPDEST PUSH2 0x367 PUSH1 0x4 DUP1 CALLDATASIZE SUB DUP2 ADD SWAP1 PUSH2 0x362 SWAP2 SWAP1 PUSH2 0x2E57 JUMP JUMPDEST PUSH2 0x1312 JUMP JUMPDEST PUSH1 0x40 MLOAD PUSH2 0x374 SWAP2 SWAP1 PUSH2 0x2EFC JUMP JUMPDEST PUSH1 0x40 MLOAD DUP1 SWAP2 SUB SWAP1 RETURN JUMPDEST CALLVALUE DUP1 ISZERO PUSH2 0x388 JUMPI PUSH0 DUP1 REVERT JUMPDEST POP PUSH2 0x3A3 PUSH1 0x4 DUP1 CALLDATASIZE SUB DUP2 ADD SWAP1 PUSH2 0x39E SWAP2 SWAP1 PUSH2 0x2AA3 JUMP JUMPDEST PUSH2 0x16BF JUMP JUMPDEST PUSH1 0x40 MLOAD PUSH2 0x3B0 SWAP2 SWAP1 PUSH2 0x2F6E JUMP JUMPDEST PUSH1 0x40 MLOAD DUP1 SWAP2 SUB SWAP1 RETURN JUMPDEST CALLVALUE DUP1 ISZERO PUSH2 0x3C4 JUMPI PUSH0 DUP1 REVERT JUMPDEST POP PUSH2 0x3DF PUSH1 0x4 DUP1 CALLDATASIZE SUB DUP2 ADD SWAP1 PUSH2 0x3DA SWAP2 SWAP1 PUSH2 0x2F8E JUMP JUMPDEST PUSH2 0x1729 JUMP JUMPDEST STOP JUMPDEST CALLVALUE DUP1 ISZERO PUSH2 0x3EC JUMPI PUSH0 DUP1 REVERT JUMPDEST POP PUSH2 0x407 PUSH1 0x4 DUP1 CALLDATASIZE SUB DUP2 ADD SWAP1 PUSH2 0x402 SWAP2 SWAP1 PUSH2 0x2FCC JUMP JUMPDEST PUSH2 0x184D JUMP JUMPDEST PUSH1 0x40 MLOAD PUSH2 0x414 SWAP2 SWAP1 PUSH2 0x3019 JUMP JUMPDEST PUSH1 0x40 MLOAD DUP1 SWAP2 SUB SWAP1 RETURN JUMPDEST PUSH0 DUP1 PUSH0 SWAP1 SLOAD SWAP1 PUSH2 0x100 EXP SWAP1 DIV PUSH1 0x60 SHL SWAP1 POP SWAP1 JUMP JUMPDEST PUSH2 0x44B DUP4 DUP4 DUP4 PUSH1 0x40 MLOAD DUP1 PUSH1 0x20 ADD PUSH1 0x40 MSTORE DUP1 PUSH0 DUP2 MSTORE POP PUSH2 0x12EB JUMP JUMPDEST POP POP POP JUMP JUMPDEST PUSH1 0x1 PUSH0 ADD PUSH1 0x6 SWAP1 SLOAD SWAP1 PUSH2 0x100 EXP SWAP1 DIV PUSH20 0xFFFFFFFFFFFFFFFFFFFFFFFFFFFFFFFFFFFFFFFF AND PUSH20 0xFFFFFFFFFFFFFFFFFFFFFFFFFFFFFFFFFFFFFFFF AND PUSH2 0x493 PUSH2 0x18DC JUMP JUMPDEST PUSH20 0xFFFFFFFFFFFFFFFFFFFFFFFFFFFFFFFFFFFFFFFF AND EQ PUSH2 0x4E9 JUMPI PUSH1 0x40 MLOAD PUSH32 0x8C379A000000000000000000000000000000000000000000000000000000000 DUP2 MSTORE PUSH1 0x4 ADD PUSH2 0x4E0 SWAP1 PUSH2 0x30A2 JUMP JUMPDEST PUSH1 0x40 MLOAD DUP1 SWAP2 SUB SWAP1 REVERT JUMPDEST PUSH1 0x1 PUSH0 ADD PUSH1 0x4 SWAP1 SLOAD SWAP1 PUSH2 0x100 EXP SWAP1 DIV PUSH2 0xFFFF AND PUSH2 0xFFFF AND DUP7 PUSH2 0xFFFF AND GT DUP1 ISZERO PUSH2 0x512 JUMPI POP TIMESTAMP DUP6 LT ISZERO JUMPDEST PUSH2 0x551 JUMPI PUSH1 0x40 MLOAD PUSH32 0x8C379A000000000000000000000000000000000000000000000000000000000 DUP2 MSTORE PUSH1 0x4 ADD PUSH2 0x548 SWAP1 PUSH2 0x3130 JUMP JUMPDEST PUSH1 0x40 MLOAD DUP1 SWAP2 SUB SWAP1 REVERT JUMPDEST DUP1 PUSH0 PUSH2 0x4B1 DUP2 LT PUSH2 0x565 JUMPI PUSH2 0x564 PUSH2 0x314E JUMP JUMPDEST JUMPDEST PUSH1 0x20 MUL ADD MLOAD PUSH2 0xFFFF AND PUSH1 0x1 PUSH0 ADD PUSH1 0x2 SWAP1 SLOAD SWAP1 PUSH2 0x100 EXP SWAP1 DIV PUSH2 0xFFFF AND DUP8 PUSH2 0x58C SWAP2 SWAP1 PUSH2 0x31A8 JUMP JUMPDEST PUSH2 0xFFFF AND EQ PUSH2 0x5EA JUMPI DUP1 PUSH0 PUSH2 0x4B1 DUP2 LT PUSH2 0x5A9 JUMPI PUSH2 0x5A8 PUSH2 0x314E JUMP JUMPDEST JUMPDEST PUSH1 0x20 MUL ADD MLOAD PUSH1 0x40 MLOAD PUSH32 0xCA70E27000000000000000000000000000000000000000000000000000000000 DUP2 MSTORE PUSH1 0x4 ADD PUSH2 0x5E1 SWAP2 SWAP1 PUSH2 0x2A8A JUMP JUMPDEST PUSH1 0x40 MLOAD DUP1 SWAP2 SUB SWAP1 REVERT JUMPDEST PUSH2 0x3E8 DUP7 PUSH2 0xFFFF AND GT ISZERO PUSH2 0x660 JUMPI PUSH0 PUSH2 0x4B0 DUP8 PUSH2 0xFFFF AND LT DUP1 ISZERO PUSH2 0x614 JUMPI POP PUSH2 0x611 PUSH2 0xFA8 JUMP JUMPDEST DUP2 EQ JUMPDEST PUSH2 0x653 JUMPI PUSH1 0x40 MLOAD PUSH32 0x8C379A000000000000000000000000000000000000000000000000000000000 DUP2 MSTORE PUSH1 0x4 ADD PUSH2 0x64A SWAP1 PUSH2 0x324D JUMP JUMPDEST PUSH1 0x40 MLOAD DUP1 SWAP2 SUB SWAP1 REVERT JUMPDEST PUSH0 PUSH2 0x65D DUP2 PUSH2 0x18E3 JUMP JUMPDEST POP POP JUMPDEST DUP6 PUSH1 0x1 PUSH0 ADD PUSH0 PUSH2 0x100 EXP DUP2 SLOAD DUP2 PUSH2 0xFFFF MUL NOT AND SWAP1 DUP4 PUSH2 0xFFFF AND MUL OR SWAP1 SSTORE POP DUP5 PUSH1 0x1 PUSH1 0x2 ADD DUP2 SWAP1 SSTORE POP DUP4 PUSH1 0x1 PUSH0 ADD PUSH1 0x6 PUSH2 0x100 EXP DUP2 SLOAD DUP2 PUSH20 0xFFFFFFFFFFFFFFFFFFFFFFFFFFFFFFFFFFFFFFFF MUL NOT AND SWAP1 DUP4 PUSH20 0xFFFFFFFFFFFFFFFFFFFFFFFFFFFFFFFFFFFFFFFF AND MUL OR SWAP1 SSTORE POP DUP3 PUSH1 0x1 DUP1 ADD PUSH0 PUSH2 0x100 EXP DUP2 SLOAD DUP2 PUSH20 0xFFFFFFFFFFFFFFFFFFFFFFFFFFFFFFFFFFFFFFFF MUL NOT AND SWAP1 DUP4 PUSH20 0xFFFFFFFFFFFFFFFFFFFFFFFFFFFFFFFFFFFFFFFF AND MUL OR SWAP1 SSTORE POP DUP2 PUSH1 0x1 PUSH1 0x3 ADD DUP2 SWAP1 SSTORE POP DUP1 PUSH2 0xA7E PUSH0 DUP1 PUSH20 0xFFFFFFFFFFFFFFFFFFFFFFFFFFFFFFFFFFFFFFFF AND PUSH20 0xFFFFFFFFFFFFFFFFFFFFFFFFFFFFFFFFFFFFFFFF AND DUP2 MSTORE PUSH1 0x20 ADD SWAP1 DUP2 MSTORE PUSH1 0x20 ADD PUSH0 KECCAK256 SWAP1 PUSH2 0x4B1 PUSH2 0x765 SWAP3 SWAP2 SWAP1 PUSH2 0x2626 JUMP JUMPDEST POP DUP5 DUP7 PUSH2 0xFFFF AND PUSH32 0x7F5DA92C8CF80F4A196E12BA4E13ABC4FD2645F0248AD338EBD76EBB41898281 DUP7 DUP7 DUP7 PUSH1 0x40 MLOAD PUSH2 0x79F SWAP4 SWAP3 SWAP2 SWAP1 PUSH2 0x327A JUMP JUMPDEST PUSH1 0x40 MLOAD DUP1 SWAP2 SUB SWAP1 LOG3 POP POP POP POP POP POP JUMP JUMPDEST PUSH1 0x1 PUSH0 ADD PUSH1 0x6 SWAP1 SLOAD SWAP1 PUSH2 0x100 EXP SWAP1 DIV PUSH20 0xFFFFFFFFFFFFFFFFFFFFFFFFFFFFFFFFFFFFFFFF AND PUSH20 0xFFFFFFFFFFFFFFFFFFFFFFFFFFFFFFFFFFFFFFFF AND PUSH2 0x7F2 PUSH2 0x18DC JUMP JUMPDEST PUSH20 0xFFFFFFFFFFFFFFFFFFFFFFFFFFFFFFFFFFFFFFFF AND EQ PUSH2 0x848 JUMPI PUSH1 0x40 MLOAD PUSH32 0x8C379A000000000000000000000000000000000000000000000000000000000 DUP2 MSTORE PUSH1 0x4 ADD PUSH2 0x83F SWAP1 PUSH2 0x32F9 JUMP JUMPDEST PUSH1 0x40 MLOAD DUP1 SWAP2 SUB SWAP1 REVERT JUMPDEST PUSH1 0x1 PUSH0 ADD PUSH1 0x2 SWAP1 SLOAD SWAP1 PUSH2 0x100 EXP SWAP1 DIV PUSH2 0xFFFF AND PUSH2 0xFFFF AND PUSH1 0x1 PUSH0 ADD PUSH1 0x4 SWAP1 SLOAD SWAP1 PUSH2 0x100 EXP SWAP1 DIV PUSH2 0xFFFF AND PUSH2 0xFFFF AND GT ISZERO PUSH2 0xCFE JUMPI PUSH0 PUSH1 0x1 PUSH1 0x4 ADD PUSH2 0x4B1 DUP1 PUSH1 0x20 MUL PUSH1 0x40 MLOAD SWAP1 DUP2 ADD PUSH1 0x40 MSTORE DUP1 SWAP3 SWAP2 SWAP1 DUP3 PUSH2 0x4B1 DUP1 ISZERO PUSH2 0x8EA JUMPI PUSH1 0x20 MUL DUP3 ADD SWAP2 PUSH0 SWAP1 JUMPDEST DUP3 DUP3 SWAP1 SLOAD SWAP1 PUSH2 0x100 EXP SWAP1 DIV PUSH6 0xFFFFFFFFFFFF AND PUSH6 0xFFFFFFFFFFFF AND DUP2 MSTORE PUSH1 0x20 ADD SWAP1 PUSH1 0x6 ADD SWAP1 PUSH1 0x20 DUP3 PUSH1 0x5 ADD DIV SWAP3 DUP4 ADD SWAP3 PUSH1 0x1 SUB DUP3 MUL SWAP2 POP DUP1 DUP5 GT PUSH2 0x8A9 JUMPI SWAP1 POP JUMPDEST POP POP POP POP POP SWAP1 POP PUSH0 PUSH1 0x1 PUSH1 0xF5 ADD PUSH2 0x4B1 DUP1 PUSH1 0x20 MUL PUSH1 0x40 MLOAD SWAP1 DUP2 ADD PUSH1 0x40 MSTORE DUP1 SWAP3 SWAP2 SWAP1 DUP3 PUSH2 0x4B1 DUP1 ISZERO PUSH2 0x965 JUMPI PUSH1 0x20 MUL DUP3 ADD SWAP2 JUMPDEST DUP2 PUSH0 SWAP1 SLOAD SWAP1 PUSH2 0x100 EXP SWAP1 DIV PUSH20 0xFFFFFFFFFFFFFFFFFFFFFFFFFFFFFFFFFFFFFFFF AND PUSH20 0xFFFFFFFFFFFFFFFFFFFFFFFFFFFFFFFFFFFFFFFF AND DUP2 MSTORE PUSH1 0x20 ADD SWAP1 PUSH1 0x1 ADD SWAP1 DUP1 DUP4 GT PUSH2 0x91C JUMPI JUMPDEST POP POP POP POP POP SWAP1 POP PUSH0 PUSH1 0x1 PUSH0 ADD PUSH1 0x2 SWAP1 SLOAD SWAP1 PUSH2 0x100 EXP SWAP1 DIV PUSH2 0xFFFF AND PUSH1 0x1 PUSH0 ADD PUSH1 0x4 SWAP1 SLOAD SWAP1 PUSH2 0x100 EXP SWAP1 DIV PUSH2 0xFFFF AND PUSH2 0x99D SWAP2 SWAP1 PUSH2 0x31A8 JUMP JUMPDEST SWAP1 POP PUSH0 PUSH1 0x1 PUSH0 ADD PUSH1 0x2 SWAP1 SLOAD SWAP1 PUSH2 0x100 EXP SWAP1 DIV PUSH2 0xFFFF AND PUSH1 0x1 PUSH0 ADD PUSH0 SWAP1 SLOAD SWAP1 PUSH2 0x100 EXP SWAP1 DIV PUSH2 0xFFFF AND PUSH2 0x9CF SWAP2 SWAP1 PUSH2 0x31A8 JUMP JUMPDEST SWAP1 POP PUSH0 PUSH1 0x1 PUSH0 ADD PUSH1 0x2 DUP2 DUP2 SWAP1 SLOAD SWAP1 PUSH2 0x100 EXP SWAP1 DIV PUSH2 0xFFFF AND PUSH2 0x9F0 SWAP1 PUSH2 0x3317 JUMP JUMPDEST SWAP2 SWAP1 PUSH2 0x100 EXP DUP2 SLOAD DUP2 PUSH2 0xFFFF MUL NOT AND SWAP1 DUP4 PUSH2 0xFFFF AND MUL OR SWAP1 SSTORE SWAP1 POP PUSH0 PUSH1 0x1 PUSH0 ADD PUSH1 0x4 SWAP1 SLOAD SWAP1 PUSH2 0x100 EXP SWAP1 DIV PUSH2 0xFFFF AND SWAP1 POP PUSH0 TIMESTAMP SWAP1 POP JUMPDEST DUP2 PUSH2 0xFFFF AND DUP4 PUSH2 0xFFFF AND GT PUSH2 0xCC1 JUMPI PUSH0 DUP4 DUP9 DUP6 PUSH2 0xFFFF AND PUSH2 0x4B1 DUP2 LT PUSH2 0xA4F JUMPI PUSH2 0xA4E PUSH2 0x314E JUMP JUMPDEST JUMPDEST PUSH1 0x20 MUL ADD MLOAD PUSH6 0xFFFFFFFFFFFF AND DUP4 DUP11 PUSH0 PUSH2 0x4B1 DUP2 LT PUSH2 0xA71 JUMPI PUSH2 0xA70 PUSH2 0x314E JUMP JUMPDEST JUMPDEST PUSH1 0x20 MUL ADD MLOAD PUSH6 0xFFFFFFFFFFFF AND PUSH2 0xA88 SWAP2 SWAP1 PUSH2 0x3340 JUMP JUMPDEST PUSH2 0xA92 SWAP2 SWAP1 PUSH2 0x3340 JUMP JUMPDEST PUSH2 0xA9C SWAP2 SWAP1 PUSH2 0x33A0 JUMP JUMPDEST SWAP1 POP PUSH0 DUP4 DUP10 PUSH0 PUSH2 0x4B1 DUP2 LT PUSH2 0xAB4 JUMPI PUSH2 0xAB3 PUSH2 0x314E JUMP JUMPDEST JUMPDEST PUSH1 0x20 MUL ADD MLOAD DUP11 DUP5 PUSH2 0xFFFF AND PUSH2 0x4B1 DUP2 LT PUSH2 0xAD1 JUMPI PUSH2 0xAD0 PUSH2 0x314E JUMP JUMPDEST JUMPDEST PUSH1 0x20 MUL ADD MLOAD PUSH2 0xAE0 SWAP2 SWAP1 PUSH2 0x33D0 JUMP JUMPDEST PUSH2 0xAEA SWAP2 SWAP1 PUSH2 0x33A0 JUMP JUMPDEST SWAP1 POP PUSH0 DUP6 DUP9 DUP12 DUP5 PUSH2 0xFFFF AND PUSH2 0x4B1 DUP2 LT PUSH2 0xB07 JUMPI PUSH2 0xB06 PUSH2 0x314E JUMP JUMPDEST JUMPDEST PUSH1 0x20 MUL ADD MLOAD DUP13 DUP7 PUSH2 0xFFFF AND PUSH2 0x4B1 DUP2 LT PUSH2 0xB24 JUMPI PUSH2 0xB23 PUSH2 0x314E JUMP JUMPDEST JUMPDEST PUSH1 0x20 MUL ADD MLOAD PUSH2 0xB33 SWAP2 SWAP1 PUSH2 0x33D0 JUMP JUMPDEST PUSH2 0xB3D SWAP2 SWAP1 PUSH2 0x33A0 JUMP JUMPDEST PUSH2 0xB47 SWAP2 SWAP1 PUSH2 0x3409 JUMP JUMPDEST SWAP1 POP PUSH0 DUP10 DUP3 PUSH2 0xFFFF AND PUSH2 0x4B1 DUP2 LT PUSH2 0xB62 JUMPI PUSH2 0xB61 PUSH2 0x314E JUMP JUMPDEST JUMPDEST PUSH1 0x20 MUL ADD MLOAD SWAP1 POP DUP10 DUP8 PUSH2 0xFFFF AND PUSH2 0x4B1 DUP2 LT PUSH2 0xB81 JUMPI PUSH2 0xB80 PUSH2 0x314E JUMP JUMPDEST JUMPDEST PUSH1 0x20 MUL ADD MLOAD DUP11 DUP4 PUSH2 0xFFFF AND PUSH2 0x4B1 DUP2 LT PUSH2 0xB9E JUMPI PUSH2 0xB9D PUSH2 0x314E JUMP JUMPDEST JUMPDEST PUSH1 0x20 MUL ADD SWAP1 PUSH20 0xFFFFFFFFFFFFFFFFFFFFFFFFFFFFFFFFFFFFFFFF AND SWAP1 DUP2 PUSH20 0xFFFFFFFFFFFFFFFFFFFFFFFFFFFFFFFFFFFFFFFF AND DUP2 MSTORE POP POP DUP1 DUP11 DUP9 PUSH2 0xFFFF AND PUSH2 0x4B1 DUP2 LT PUSH2 0xBEE JUMPI PUSH2 0xBED PUSH2 0x314E JUMP JUMPDEST JUMPDEST PUSH1 0x20 MUL ADD SWAP1 PUSH20 0xFFFFFFFFFFFFFFFFFFFFFFFFFFFFFFFFFFFFFFFF AND SWAP1 DUP2 PUSH20 0xFFFFFFFFFFFFFFFFFFFFFFFFFFFFFFFFFFFFFFFF AND DUP2 MSTORE POP POP PUSH0 DUP9 DUP13 DUP5 PUSH2 0xFFFF AND PUSH2 0x4B1 DUP2 LT PUSH2 0xC3F JUMPI PUSH2 0xC3E PUSH2 0x314E JUMP JUMPDEST JUMPDEST PUSH1 0x20 MUL ADD MLOAD DUP14 DUP8 PUSH2 0xFFFF AND PUSH2 0x4B1 DUP2 LT PUSH2 0xC5C JUMPI PUSH2 0xC5B PUSH2 0x314E JUMP JUMPDEST JUMPDEST PUSH1 0x20 MUL ADD MLOAD PUSH2 0xC6B SWAP2 SWAP1 PUSH2 0x33D0 JUMP JUMPDEST PUSH2 0xC75 SWAP2 SWAP1 PUSH2 0x33A0 JUMP JUMPDEST SWAP1 POP PUSH0 DUP2 PUSH2 0xFFFF AND SUB PUSH2 0xC86 JUMPI DUP9 SWAP1 POP JUMPDEST PUSH2 0xC91 DUP3 DUP3 PUSH0 PUSH2 0x18E6 JUMP JUMPDEST DUP10 PUSH2 0xC9B SWAP1 PUSH2 0x343E JUMP JUMPDEST SWAP10 POP DUP9 PUSH2 0xCA7 SWAP1 PUSH2 0x343E JUMP JUMPDEST SWAP9 POP POP POP POP POP POP DUP3 DUP1 PUSH2 0xCB9 SWAP1 PUSH2 0x3317 JUMP JUMPDEST SWAP4 POP POP PUSH2 0xA26 JUMP JUMPDEST PUSH1 0x1 PUSH0 ADD PUSH1 0x4 SWAP1 SLOAD SWAP1 PUSH2 0x100 EXP SWAP1 DIV PUSH2 0xFFFF AND PUSH1 0x1 PUSH0 ADD PUSH1 0x2 PUSH2 0x100 EXP DUP2 SLOAD DUP2 PUSH2 0xFFFF MUL NOT AND SWAP1 DUP4 PUSH2 0xFFFF AND MUL OR SWAP1 SSTORE POP POP POP POP POP POP POP POP PUSH2 0xD4D JUMP JUMPDEST PUSH1 0x1 PUSH0 ADD PUSH1 0x4 SWAP1 SLOAD SWAP1 PUSH2 0x100 EXP SWAP1 DIV PUSH2 0xFFFF AND PUSH1 0x40 MLOAD PUSH32 0x72864E7C00000000000000000000000000000000000000000000000000000000 DUP2 MSTORE PUSH1 0x4 ADD PUSH2 0xD44 SWAP2 SWAP1 PUSH2 0x2A8A JUMP JUMPDEST PUSH1 0x40 MLOAD DUP1 SWAP2 SUB SWAP1 REVERT JUMPDEST JUMP JUMPDEST PUSH0 PUSH20 0xFFFFFFFFFFFFFFFFFFFFFFFFFFFFFFFFFFFFFFFF AND DUP3 PUSH20 0xFFFFFFFFFFFFFFFFFFFFFFFFFFFFFFFFFFFFFFFF AND SUB PUSH2 0xDBF JUMPI PUSH0 PUSH1 0x40 MLOAD PUSH32 0x64A0AE9200000000000000000000000000000000000000000000000000000000 DUP2 MSTORE PUSH1 0x4 ADD PUSH2 0xDB6 SWAP2 SWAP1 PUSH2 0x2ADD JUMP JUMPDEST PUSH1 0x40 MLOAD DUP1 SWAP2 SUB SWAP1 REVERT JUMPDEST PUSH0 PUSH2 0xDC9 DUP3 PUSH2 0x2064 JUMP JUMPDEST SWAP1 POP PUSH2 0xA58 DUP3 PUSH2 0xFFFF AND PUSH2 0x4B1 DUP2 LT PUSH2 0xDE5 JUMPI PUSH2 0xDE4 PUSH2 0x314E JUMP JUMPDEST JUMPDEST PUSH1 0x20 SWAP2 DUP3 DUP3 DIV ADD SWAP2 SWAP1 MOD SWAP1 SLOAD SWAP1 PUSH2 0x100 EXP SWAP1 DIV PUSH1 0xFF AND ISZERO PUSH2 0xE3B JUMPI PUSH1 0x40 MLOAD PUSH32 0x8C379A000000000000000000000000000000000000000000000000000000000 DUP2 MSTORE PUSH1 0x4 ADD PUSH2 0xE32 SWAP1 PUSH2 0x34D5 JUMP JUMPDEST PUSH1 0x40 MLOAD DUP1 SWAP2 SUB SWAP1 REVERT JUMPDEST DUP1 PUSH20 0xFFFFFFFFFFFFFFFFFFFFFFFFFFFFFFFFFFFFFFFF AND PUSH2 0xE5A PUSH2 0x18DC JUMP JUMPDEST PUSH20 0xFFFFFFFFFFFFFFFFFFFFFFFFFFFFFFFFFFFFFFFF AND EQ DUP1 PUSH2 0xE89 JUMPI POP PUSH2 0xE88 DUP2 PUSH2 0xE83 PUSH2 0x18DC JUMP JUMPDEST PUSH2 0x184D JUMP JUMPDEST JUMPDEST DUP1 PUSH2 0xECE JUMPI POP PUSH2 0xE97 PUSH2 0x18DC JUMP JUMPDEST PUSH20 0xFFFFFFFFFFFFFFFFFFFFFFFFFFFFFFFFFFFFFFFF AND PUSH2 0xEB6 DUP4 PUSH2 0x109E JUMP JUMPDEST PUSH20 0xFFFFFFFFFFFFFFFFFFFFFFFFFFFFFFFFFFFFFFFF AND EQ JUMPDEST PUSH2 0xF18 JUMPI PUSH2 0xEDA PUSH2 0x18DC JUMP JUMPDEST DUP3 PUSH1 0x40 MLOAD PUSH32 0x177E802F00000000000000000000000000000000000000000000000000000000 DUP2 MSTORE PUSH1 0x4 ADD PUSH2 0xF0F SWAP3 SWAP2 SWAP1 PUSH2 0x352C JUMP JUMPDEST PUSH1 0x40 MLOAD DUP1 SWAP2 SUB SWAP1 REVERT JUMPDEST DUP4 PUSH20 0xFFFFFFFFFFFFFFFFFFFFFFFFFFFFFFFFFFFFFFFF AND DUP2 PUSH20 0xFFFFFFFFFFFFFFFFFFFFFFFFFFFFFFFFFFFFFFFF AND EQ PUSH2 0xF8C JUMPI DUP4 DUP3 DUP3 PUSH1 0x40 MLOAD PUSH32 0x64283D7B00000000000000000000000000000000000000000000000000000000 DUP2 MSTORE PUSH1 0x4 ADD PUSH2 0xF83 SWAP4 SWAP3 SWAP2 SWAP1 PUSH2 0x3553 JUMP JUMPDEST PUSH1 0x40 MLOAD DUP1 SWAP2 SUB SWAP1 REVERT JUMPDEST PUSH2 0xF97 PUSH0 DUP4 DUP4 PUSH2 0x2187 JUMP JUMPDEST PUSH2 0xFA2 DUP4 DUP4 DUP4 PUSH2 0x18E6 JUMP JUMPDEST POP POP POP POP JUMP JUMPDEST PUSH0 SWAP1 JUMP JUMPDEST PUSH0 DUP1 PUSH20 0xFFFFFFFFFFFFFFFFFFFFFFFFFFFFFFFFFFFFFFFF AND DUP3 PUSH20 0xFFFFFFFFFFFFFFFFFFFFFFFFFFFFFFFFFFFFFFFF AND SUB PUSH2 0x101B JUMPI PUSH1 0x40 MLOAD PUSH32 0x8C379A000000000000000000000000000000000000000000000000000000000 DUP2 MSTORE PUSH1 0x4 ADD PUSH2 0x1012 SWAP1 PUSH2 0x35D2 JUMP JUMPDEST PUSH1 0x40 MLOAD DUP1 SWAP2 SUB SWAP1 REVERT JUMPDEST PUSH2 0xA7E PUSH0 DUP4 PUSH20 0xFFFFFFFFFFFFFFFFFFFFFFFFFFFFFFFFFFFFFFFF AND PUSH20 0xFFFFFFFFFFFFFFFFFFFFFFFFFFFFFFFFFFFFFFFF AND DUP2 MSTORE PUSH1 0x20 ADD SWAP1 DUP2 MSTORE PUSH1 0x20 ADD PUSH0 KECCAK256 PUSH0 PUSH2 0x4B1 DUP2 LT PUSH2 0x106C JUMPI PUSH2 0x106B PUSH2 0x314E JUMP JUMPDEST JUMPDEST PUSH1 0x10 SWAP2 DUP3 DUP3 DIV ADD SWAP2 SWAP1 MOD PUSH1 0x2 MUL SWAP1 SLOAD SWAP1 PUSH2 0x100 EXP SWAP1 DIV PUSH2 0xFFFF AND SWAP1 POP SWAP2 SWAP1 POP JUMP JUMPDEST PUSH0 PUSH2 0x1097 DUP3 PUSH2 0x2064 JUMP JUMPDEST SWAP1 POP SWAP2 SWAP1 POP JUMP JUMPDEST PUSH0 PUSH2 0x10A8 DUP3 PUSH2 0x2064 JUMP JUMPDEST POP PUSH2 0xA7F PUSH0 DUP4 PUSH2 0xFFFF AND PUSH2 0xFFFF AND DUP2 MSTORE PUSH1 0x20 ADD SWAP1 DUP2 MSTORE PUSH1 0x20 ADD PUSH0 KECCAK256 PUSH0 SWAP1 SLOAD SWAP1 PUSH2 0x100 EXP SWAP1 DIV PUSH20 0xFFFFFFFFFFFFFFFFFFFFFFFFFFFFFFFFFFFFFFFF AND SWAP1 POP SWAP2 SWAP1 POP JUMP JUMPDEST PUSH0 DUP1 PUSH1 0x14 SWAP1 SLOAD SWAP1 PUSH2 0x100 EXP SWAP1 DIV PUSH1 0xB0 SHL SWAP1 POP SWAP1 JUMP JUMPDEST DUP2 PUSH20 0xFFFFFFFFFFFFFFFFFFFFFFFFFFFFFFFFFFFFFFFF AND PUSH2 0x111E PUSH2 0x18DC JUMP JUMPDEST PUSH20 0xFFFFFFFFFFFFFFFFFFFFFFFFFFFFFFFFFFFFFFFF AND SUB PUSH2 0x1174 JUMPI PUSH1 0x40 MLOAD PUSH32 0x8C379A000000000000000000000000000000000000000000000000000000000 DUP2 MSTORE PUSH1 0x4 ADD PUSH2 0x116B SWAP1 PUSH2 0x3660 JUMP JUMPDEST PUSH1 0x40 MLOAD DUP1 SWAP2 SUB SWAP1 REVERT JUMPDEST PUSH0 PUSH20 0xFFFFFFFFFFFFFFFFFFFFFFFFFFFFFFFFFFFFFFFF AND DUP3 PUSH20 0xFFFFFFFFFFFFFFFFFFFFFFFFFFFFFFFFFFFFFFFF AND SUB PUSH2 0x11E4 JUMPI DUP2 PUSH1 0x40 MLOAD PUSH32 0x5B08BA1800000000000000000000000000000000000000000000000000000000 DUP2 MSTORE PUSH1 0x4 ADD PUSH2 0x11DB SWAP2 SWAP1 PUSH2 0x2ADD JUMP JUMPDEST PUSH1 0x40 MLOAD DUP1 SWAP2 SUB SWAP1 REVERT JUMPDEST DUP1 PUSH2 0xA80 PUSH0 PUSH2 0x11F1 PUSH2 0x18DC JUMP JUMPDEST PUSH20 0xFFFFFFFFFFFFFFFFFFFFFFFFFFFFFFFFFFFFFFFF AND PUSH20 0xFFFFFFFFFFFFFFFFFFFFFFFFFFFFFFFFFFFFFFFF AND DUP2 MSTORE PUSH1 0x20 ADD SWAP1 DUP2 MSTORE PUSH1 0x20 ADD PUSH0 KECCAK256 PUSH0 DUP5 PUSH20 0xFFFFFFFFFFFFFFFFFFFFFFFFFFFFFFFFFFFFFFFF AND PUSH20 0xFFFFFFFFFFFFFFFFFFFFFFFFFFFFFFFFFFFFFFFF AND DUP2 MSTORE PUSH1 0x20 ADD SWAP1 DUP2 MSTORE PUSH1 0x20 ADD PUSH0 KECCAK256 PUSH0 PUSH2 0x100 EXP DUP2 SLOAD DUP2 PUSH1 0xFF MUL NOT AND SWAP1 DUP4 ISZERO ISZERO MUL OR SWAP1 SSTORE POP DUP2 PUSH20 0xFFFFFFFFFFFFFFFFFFFFFFFFFFFFFFFFFFFFFFFF AND PUSH2 0x129A PUSH2 0x18DC JUMP JUMPDEST PUSH20 0xFFFFFFFFFFFFFFFFFFFFFFFFFFFFFFFFFFFFFFFF AND PUSH32 0x17307EAB39AB6107E8899845AD3D59BD9653F200F220920489CA2B5937696C31 DUP4 PUSH1 0x40 MLOAD PUSH2 0x12DF SWAP2 SWAP1 PUSH2 0x3019 JUMP JUMPDEST PUSH1 0x40 MLOAD DUP1 SWAP2 SUB SWAP1 LOG3 POP POP JUMP JUMPDEST PUSH2 0x12F6 DUP5 DUP5 DUP5 PUSH2 0xD4F JUMP JUMPDEST PUSH2 0x1302 DUP5 DUP5 DUP5 DUP5 PUSH2 0x2243 JUMP JUMPDEST POP POP POP POP JUMP JUMPDEST PUSH0 SWAP6 SWAP5 POP POP POP POP POP JUMP JUMPDEST PUSH1 0x60 PUSH1 0x1 PUSH0 ADD PUSH0 SWAP1 SLOAD SWAP1 PUSH2 0x100 EXP SWAP1 DIV PUSH2 0xFFFF AND PUSH2 0xFFFF AND PUSH1 0x1 PUSH0 ADD PUSH1 0x4 SWAP1 SLOAD SWAP1 PUSH2 0x100 EXP SWAP1 DIV PUSH2 0xFFFF AND PUSH2 0xFFFF AND GT ISZERO DUP1 ISZERO PUSH2 0x1354 JUMPI POP TIMESTAMP PUSH1 0x1 PUSH1 0x2 ADD SLOAD GT ISZERO JUMPDEST PUSH2 0x1393 JUMPI PUSH1 0x40 MLOAD PUSH32 0x8C379A000000000000000000000000000000000000000000000000000000000 DUP2 MSTORE PUSH1 0x4 ADD PUSH2 0x138A SWAP1 PUSH2 0x36EE JUMP JUMPDEST PUSH1 0x40 MLOAD DUP1 SWAP2 SUB SWAP1 REVERT JUMPDEST PUSH0 PUSH20 0xFFFFFFFFFFFFFFFFFFFFFFFFFFFFFFFFFFFFFFFF AND PUSH2 0x13B2 PUSH2 0x18DC JUMP JUMPDEST PUSH20 0xFFFFFFFFFFFFFFFFFFFFFFFFFFFFFFFFFFFFFFFF AND EQ ISZERO DUP1 ISZERO PUSH2 0x13F3 JUMPI POP PUSH0 PUSH2 0x13DA PUSH2 0x18DC JUMP JUMPDEST PUSH20 0xFFFFFFFFFFFFFFFFFFFFFFFFFFFFFFFFFFFFFFFF AND EXTCODESIZE EQ JUMPDEST PUSH2 0x1432 JUMPI PUSH1 0x40 MLOAD PUSH32 0x8C379A000000000000000000000000000000000000000000000000000000000 DUP2 MSTORE PUSH1 0x4 ADD PUSH2 0x1429 SWAP1 PUSH2 0x37A2 JUMP JUMPDEST PUSH1 0x40 MLOAD DUP1 SWAP2 SUB SWAP1 REVERT JUMPDEST PUSH1 0x1 PUSH1 0x3 ADD SLOAD CALLVALUE LT ISZERO PUSH2 0x147A JUMPI PUSH1 0x40 MLOAD PUSH32 0x8C379A000000000000000000000000000000000000000000000000000000000 DUP2 MSTORE PUSH1 0x4 ADD PUSH2 0x1471 SWAP1 PUSH2 0x3830 JUMP JUMPDEST PUSH1 0x40 MLOAD DUP1 SWAP2 SUB SWAP1 REVERT JUMPDEST PUSH0 DUP1 PUSH1 0x1 DUP1 ADD PUSH0 SWAP1 SLOAD SWAP1 PUSH2 0x100 EXP SWAP1 DIV PUSH20 0xFFFFFFFFFFFFFFFFFFFFFFFFFFFFFFFFFFFFFFFF AND PUSH20 0xFFFFFFFFFFFFFFFFFFFFFFFFFFFFFFFFFFFFFFFF AND CALLVALUE PUSH1 0x40 MLOAD PUSH2 0x14C3 SWAP1 PUSH2 0x387B JUMP JUMPDEST PUSH0 PUSH1 0x40 MLOAD DUP1 DUP4 SUB DUP2 DUP6 DUP8 GAS CALL SWAP3 POP POP POP RETURNDATASIZE DUP1 PUSH0 DUP2 EQ PUSH2 0x14FD JUMPI PUSH1 0x40 MLOAD SWAP2 POP PUSH1 0x1F NOT PUSH1 0x3F RETURNDATASIZE ADD AND DUP3 ADD PUSH1 0x40 MSTORE RETURNDATASIZE DUP3 MSTORE RETURNDATASIZE PUSH0 PUSH1 0x20 DUP5 ADD RETURNDATACOPY PUSH2 0x1502 JUMP JUMPDEST PUSH1 0x60 SWAP2 POP JUMPDEST POP SWAP2 POP SWAP2 POP DUP2 PUSH2 0x1547 JUMPI PUSH1 0x40 MLOAD PUSH32 0x8C379A000000000000000000000000000000000000000000000000000000000 DUP2 MSTORE PUSH1 0x4 ADD PUSH2 0x153E SWAP1 PUSH2 0x38D9 JUMP JUMPDEST PUSH1 0x40 MLOAD DUP1 SWAP2 SUB SWAP1 REVERT JUMPDEST PUSH1 0x1 PUSH0 ADD PUSH1 0x4 DUP2 DUP2 SWAP1 SLOAD SWAP1 PUSH2 0x100 EXP SWAP1 DIV PUSH2 0xFFFF AND PUSH2 0x1565 SWAP1 PUSH2 0x3317 JUMP JUMPDEST SWAP2 SWAP1 PUSH2 0x100 EXP DUP2 SLOAD DUP2 PUSH2 0xFFFF MUL NOT AND SWAP1 DUP4 PUSH2 0xFFFF AND MUL OR SWAP1 SSTORE POP DUP4 PUSH1 0x1 PUSH1 0x4 ADD PUSH1 0x1 PUSH0 ADD PUSH1 0x4 SWAP1 SLOAD SWAP1 PUSH2 0x100 EXP SWAP1 DIV PUSH2 0xFFFF AND PUSH2 0xFFFF AND PUSH2 0x4B1 DUP2 LT PUSH2 0x15AE JUMPI PUSH2 0x15AD PUSH2 0x314E JUMP JUMPDEST JUMPDEST PUSH1 0x5 SWAP2 DUP3 DUP3 DIV ADD SWAP2 SWAP1 MOD PUSH1 0x6 MUL PUSH2 0x100 EXP DUP2 SLOAD DUP2 PUSH6 0xFFFFFFFFFFFF MUL NOT AND SWAP1 DUP4 PUSH6 0xFFFFFFFFFFFF AND MUL OR SWAP1 SSTORE POP DUP4 PUSH1 0x1 PUSH1 0x4 ADD PUSH0 PUSH2 0x4B1 DUP2 LT PUSH2 0x15F4 JUMPI PUSH2 0x15F3 PUSH2 0x314E JUMP JUMPDEST JUMPDEST PUSH1 0x5 SWAP2 DUP3 DUP3 DIV ADD SWAP2 SWAP1 MOD PUSH1 0x6 MUL DUP3 DUP3 DUP3 SWAP1 SLOAD SWAP1 PUSH2 0x100 EXP SWAP1 DIV PUSH6 0xFFFFFFFFFFFF AND PUSH2 0x161F SWAP2 SWAP1 PUSH2 0x33D0 JUMP JUMPDEST SWAP3 POP PUSH2 0x100 EXP DUP2 SLOAD DUP2 PUSH6 0xFFFFFFFFFFFF MUL NOT AND SWAP1 DUP4 PUSH6 0xFFFFFFFFFFFF AND MUL OR SWAP1 SSTORE POP PUSH2 0x1649 PUSH2 0x18DC JUMP JUMPDEST PUSH1 0x1 PUSH1 0xF5 ADD PUSH1 0x1 PUSH0 ADD PUSH1 0x4 SWAP1 SLOAD SWAP1 PUSH2 0x100 EXP SWAP1 DIV PUSH2 0xFFFF AND PUSH2 0xFFFF AND PUSH2 0x4B1 DUP2 LT PUSH2 0x1677 JUMPI PUSH2 0x1676 PUSH2 0x314E JUMP JUMPDEST JUMPDEST ADD PUSH0 PUSH2 0x100 EXP DUP2 SLOAD DUP2 PUSH20 0xFFFFFFFFFFFFFFFFFFFFFFFFFFFFFFFFFFFFFFFF MUL NOT AND SWAP1 DUP4 PUSH20 0xFFFFFFFFFFFFFFFFFFFFFFFFFFFFFFFFFFFFFFFF AND MUL OR SWAP1 SSTORE POP DUP1 SWAP3 POP POP POP SWAP2 SWAP1 POP JUMP JUMPDEST PUSH1 0x60 PUSH2 0x16CA DUP3 PUSH2 0x2064 JUMP JUMPDEST POP PUSH0 PUSH2 0x16D4 PUSH2 0x23F5 JUMP JUMPDEST SWAP1 POP PUSH0 DUP2 MLOAD GT PUSH2 0x16F2 JUMPI PUSH1 0x40 MLOAD DUP1 PUSH1 0x20 ADD PUSH1 0x40 MSTORE DUP1 PUSH0 DUP2 MSTORE POP PUSH2 0x1721 JUMP JUMPDEST DUP1 PUSH2 0x1700 DUP5 PUSH2 0xFFFF AND PUSH2 0x240B JUMP JUMPDEST PUSH1 0x40 MLOAD PUSH1 0x20 ADD PUSH2 0x1711 SWAP3 SWAP2 SWAP1 PUSH2 0x3931 JUMP JUMPDEST PUSH1 0x40 MLOAD PUSH1 0x20 DUP2 DUP4 SUB SUB DUP2 MSTORE SWAP1 PUSH1 0x40 MSTORE JUMPDEST SWAP2 POP POP SWAP2 SWAP1 POP JUMP JUMPDEST PUSH0 PUSH2 0x1733 DUP3 PUSH2 0x2064 JUMP JUMPDEST SWAP1 POP DUP3 PUSH20 0xFFFFFFFFFFFFFFFFFFFFFFFFFFFFFFFFFFFFFFFF AND DUP2 PUSH20 0xFFFFFFFFFFFFFFFFFFFFFFFFFFFFFFFFFFFFFFFF AND SUB PUSH2 0x17A3 JUMPI PUSH1 0x40 MLOAD PUSH32 0x8C379A000000000000000000000000000000000000000000000000000000000 DUP2 MSTORE PUSH1 0x4 ADD PUSH2 0x179A SWAP1 PUSH2 0x3660 JUMP JUMPDEST PUSH1 0x40 MLOAD DUP1 SWAP2 SUB SWAP1 REVERT JUMPDEST PUSH2 0x17AB PUSH2 0x18DC JUMP JUMPDEST PUSH20 0xFFFFFFFFFFFFFFFFFFFFFFFFFFFFFFFFFFFFFFFF AND DUP2 PUSH20 0xFFFFFFFFFFFFFFFFFFFFFFFFFFFFFFFFFFFFFFFF AND EQ ISZERO DUP1 ISZERO PUSH2 0x17F4 JUMPI POP PUSH2 0x17F2 DUP2 PUSH2 0x17ED PUSH2 0x18DC JUMP JUMPDEST PUSH2 0x184D JUMP JUMPDEST ISZERO JUMPDEST ISZERO PUSH2 0x183D JUMPI PUSH2 0x1801 PUSH2 0x18DC JUMP JUMPDEST PUSH1 0x40 MLOAD PUSH32 0xA9FBF51F00000000000000000000000000000000000000000000000000000000 DUP2 MSTORE PUSH1 0x4 ADD PUSH2 0x1834 SWAP2 SWAP1 PUSH2 0x2ADD JUMP JUMPDEST PUSH1 0x40 MLOAD DUP1 SWAP2 SUB SWAP1 REVERT JUMPDEST PUSH2 0x1848 DUP4 DUP4 DUP4 PUSH2 0x2187 JUMP JUMPDEST POP POP POP JUMP JUMPDEST PUSH0 PUSH2 0xA80 PUSH0 DUP5 PUSH20 0xFFFFFFFFFFFFFFFFFFFFFFFFFFFFFFFFFFFFFFFF AND PUSH20 0xFFFFFFFFFFFFFFFFFFFFFFFFFFFFFFFFFFFFFFFF AND DUP2 MSTORE PUSH1 0x20 ADD SWAP1 DUP2 MSTORE PUSH1 0x20 ADD PUSH0 KECCAK256 PUSH0 DUP4 PUSH20 0xFFFFFFFFFFFFFFFFFFFFFFFFFFFFFFFFFFFFFFFF AND PUSH20 0xFFFFFFFFFFFFFFFFFFFFFFFFFFFFFFFFFFFFFFFF AND DUP2 MSTORE PUSH1 0x20 ADD SWAP1 DUP2 MSTORE PUSH1 0x20 ADD PUSH0 KECCAK256 PUSH0 SWAP1 SLOAD SWAP1 PUSH2 0x100 EXP SWAP1 DIV PUSH1 0xFF AND SWAP1 POP SWAP3 SWAP2 POP POP JUMP JUMPDEST PUSH0 CALLER SWAP1 POP SWAP1 JUMP JUMPDEST POP JUMP JUMPDEST PUSH0 PUSH2 0xA7E PUSH0 DUP4 PUSH20 0xFFFFFFFFFFFFFFFFFFFFFFFFFFFFFFFFFFFFFFFF AND PUSH20 0xFFFFFFFFFFFFFFFFFFFFFFFFFFFFFFFFFFFFFFFF AND DUP2 MSTORE PUSH1 0x20 ADD SWAP1 DUP2 MSTORE PUSH1 0x20 ADD PUSH0 KECCAK256 PUSH0 PUSH2 0x4B1 DUP2 LT PUSH2 0x1938 JUMPI PUSH2 0x1937 PUSH2 0x314E JUMP JUMPDEST JUMPDEST PUSH1 0x10 SWAP2 DUP3 DUP3 DIV ADD SWAP2 SWAP1 MOD PUSH1 0x2 MUL SWAP1 SLOAD SWAP1 PUSH2 0x100 EXP SWAP1 DIV PUSH2 0xFFFF AND SWAP1 POP PUSH0 PUSH20 0xFFFFFFFFFFFFFFFFFFFFFFFFFFFFFFFFFFFFFFFF AND DUP3 PUSH20 0xFFFFFFFFFFFFFFFFFFFFFFFFFFFFFFFFFFFFFFFF AND EQ PUSH2 0x1B20 JUMPI PUSH0 PUSH1 0x1 SWAP1 POP JUMPDEST DUP2 PUSH2 0xFFFF AND DUP2 PUSH2 0xFFFF AND GT PUSH2 0x1B1A JUMPI DUP4 PUSH2 0xFFFF AND PUSH2 0xA7E PUSH0 DUP6 PUSH20 0xFFFFFFFFFFFFFFFFFFFFFFFFFFFFFFFFFFFFFFFF AND PUSH20 0xFFFFFFFFFFFFFFFFFFFFFFFFFFFFFFFFFFFFFFFF AND DUP2 MSTORE PUSH1 0x20 ADD SWAP1 DUP2 MSTORE PUSH1 0x20 ADD PUSH0 KECCAK256 DUP3 PUSH2 0xFFFF AND PUSH2 0x4B1 DUP2 LT PUSH2 0x19F6 JUMPI PUSH2 0x19F5 PUSH2 0x314E JUMP JUMPDEST JUMPDEST PUSH1 0x10 SWAP2 DUP3 DUP3 DIV ADD SWAP2 SWAP1 MOD PUSH1 0x2 MUL SWAP1 SLOAD SWAP1 PUSH2 0x100 EXP SWAP1 DIV PUSH2 0xFFFF AND PUSH2 0xFFFF AND SUB PUSH2 0x1B07 JUMPI PUSH2 0xA7E PUSH0 DUP5 PUSH20 0xFFFFFFFFFFFFFFFFFFFFFFFFFFFFFFFFFFFFFFFF AND PUSH20 0xFFFFFFFFFFFFFFFFFFFFFFFFFFFFFFFFFFFFFFFF AND DUP2 MSTORE PUSH1 0x20 ADD SWAP1 DUP2 MSTORE PUSH1 0x20 ADD PUSH0 KECCAK256 DUP3 PUSH2 0xFFFF AND PUSH2 0x4B1 DUP2 LT PUSH2 0x1A6E JUMPI PUSH2 0x1A6D PUSH2 0x314E JUMP JUMPDEST JUMPDEST PUSH1 0x10 SWAP2 DUP3 DUP3 DIV ADD SWAP2 SWAP1 MOD PUSH1 0x2 MUL SWAP1 SLOAD SWAP1 PUSH2 0x100 EXP SWAP1 DIV PUSH2 0xFFFF AND PUSH2 0xA7E PUSH0 DUP6 PUSH20 0xFFFFFFFFFFFFFFFFFFFFFFFFFFFFFFFFFFFFFFFF AND PUSH20 0xFFFFFFFFFFFFFFFFFFFFFFFFFFFFFFFFFFFFFFFF AND DUP2 MSTORE PUSH1 0x20 ADD SWAP1 DUP2 MSTORE PUSH1 0x20 ADD PUSH0 KECCAK256 DUP3 PUSH2 0xFFFF AND PUSH2 0x4B1 DUP2 LT PUSH2 0x1ADD JUMPI PUSH2 0x1ADC PUSH2 0x314E JUMP JUMPDEST JUMPDEST PUSH1 0x10 SWAP2 DUP3 DUP3 DIV ADD SWAP2 SWAP1 MOD PUSH1 0x2 MUL PUSH2 0x100 EXP DUP2 SLOAD DUP2 PUSH2 0xFFFF MUL NOT AND SWAP1 DUP4 PUSH2 0xFFFF AND MUL OR SWAP1 SSTORE POP PUSH2 0x1B1A JUMP JUMPDEST DUP1 DUP1 PUSH2 0x1B12 SWAP1 PUSH2 0x3317 JUMP JUMPDEST SWAP2 POP POP PUSH2 0x198D JUMP JUMPDEST POP PUSH2 0x1D2A JUMP JUMPDEST PUSH0 DUP4 SWAP1 POP PUSH2 0xA7E PUSH0 DUP5 PUSH20 0xFFFFFFFFFFFFFFFFFFFFFFFFFFFFFFFFFFFFFFFF AND PUSH20 0xFFFFFFFFFFFFFFFFFFFFFFFFFFFFFFFFFFFFFFFF AND DUP2 MSTORE PUSH1 0x20 ADD SWAP1 DUP2 MSTORE PUSH1 0x20 ADD PUSH0 KECCAK256 DUP2 PUSH2 0xFFFF AND PUSH2 0x4B1 DUP2 LT PUSH2 0x1B79 JUMPI PUSH2 0x1B78 PUSH2 0x314E JUMP JUMPDEST JUMPDEST PUSH1 0x10 SWAP2 DUP3 DUP3 DIV ADD SWAP2 SWAP1 MOD PUSH1 0x2 MUL SWAP1 SLOAD SWAP1 PUSH2 0x100 EXP SWAP1 DIV PUSH2 0xFFFF AND SWAP4 POP PUSH0 PUSH20 0xFFFFFFFFFFFFFFFFFFFFFFFFFFFFFFFFFFFFFFFF AND PUSH2 0x5A7 DUP6 PUSH2 0xFFFF AND PUSH2 0x4B1 DUP2 LT PUSH2 0x1BC6 JUMPI PUSH2 0x1BC5 PUSH2 0x314E JUMP JUMPDEST JUMPDEST ADD PUSH0 SWAP1 SLOAD SWAP1 PUSH2 0x100 EXP SWAP1 DIV PUSH20 0xFFFFFFFFFFFFFFFFFFFFFFFFFFFFFFFFFFFFFFFF AND PUSH20 0xFFFFFFFFFFFFFFFFFFFFFFFFFFFFFFFFFFFFFFFF AND EQ PUSH2 0x1C3F JUMPI DUP1 PUSH1 0x40 MLOAD PUSH32 0x71E52B9C00000000000000000000000000000000000000000000000000000000 DUP2 MSTORE PUSH1 0x4 ADD PUSH2 0x1C36 SWAP2 SWAP1 PUSH2 0x2A8A JUMP JUMPDEST PUSH1 0x40 MLOAD DUP1 SWAP2 SUB SWAP1 REVERT JUMPDEST PUSH2 0xA7E PUSH0 DUP5 PUSH20 0xFFFFFFFFFFFFFFFFFFFFFFFFFFFFFFFFFFFFFFFF AND PUSH20 0xFFFFFFFFFFFFFFFFFFFFFFFFFFFFFFFFFFFFFFFF AND DUP2 MSTORE PUSH1 0x20 ADD SWAP1 DUP2 MSTORE PUSH1 0x20 ADD PUSH0 KECCAK256 DUP3 PUSH2 0xFFFF AND PUSH2 0x4B1 DUP2 LT PUSH2 0x1C94 JUMPI PUSH2 0x1C93 PUSH2 0x314E JUMP JUMPDEST JUMPDEST PUSH1 0x10 SWAP2 DUP3 DUP3 DIV ADD SWAP2 SWAP1 MOD PUSH1 0x2 MUL SWAP1 SLOAD SWAP1 PUSH2 0x100 EXP SWAP1 DIV PUSH2 0xFFFF AND PUSH2 0xA7E PUSH0 DUP6 PUSH20 0xFFFFFFFFFFFFFFFFFFFFFFFFFFFFFFFFFFFFFFFF AND PUSH20 0xFFFFFFFFFFFFFFFFFFFFFFFFFFFFFFFFFFFFFFFF AND DUP2 MSTORE PUSH1 0x20 ADD SWAP1 DUP2 MSTORE PUSH1 0x20 ADD PUSH0 KECCAK256 DUP3 PUSH2 0xFFFF AND PUSH2 0x4B1 DUP2 LT PUSH2 0x1D03 JUMPI PUSH2 0x1D02 PUSH2 0x314E JUMP JUMPDEST JUMPDEST PUSH1 0x10 SWAP2 DUP3 DUP3 DIV ADD SWAP2 SWAP1 MOD PUSH1 0x2 MUL PUSH2 0x100 EXP DUP2 SLOAD DUP2 PUSH2 0xFFFF MUL NOT AND SWAP1 DUP4 PUSH2 0xFFFF AND MUL OR SWAP1 SSTORE POP POP JUMPDEST PUSH0 PUSH2 0xA7E PUSH0 DUP5 PUSH20 0xFFFFFFFFFFFFFFFFFFFFFFFFFFFFFFFFFFFFFFFF AND PUSH20 0xFFFFFFFFFFFFFFFFFFFFFFFFFFFFFFFFFFFFFFFF AND DUP2 MSTORE PUSH1 0x20 ADD SWAP1 DUP2 MSTORE PUSH1 0x20 ADD PUSH0 KECCAK256 DUP3 PUSH2 0xFFFF AND PUSH2 0x4B1 DUP2 LT PUSH2 0x1D80 JUMPI PUSH2 0x1D7F PUSH2 0x314E JUMP JUMPDEST JUMPDEST PUSH1 0x10 SWAP2 DUP3 DUP3 DIV ADD SWAP2 SWAP1 MOD PUSH1 0x2 MUL PUSH2 0x100 EXP DUP2 SLOAD DUP2 PUSH2 0xFFFF MUL NOT AND SWAP1 DUP4 PUSH2 0xFFFF AND MUL OR SWAP1 SSTORE POP PUSH1 0x1 PUSH2 0xA7E PUSH0 DUP5 PUSH20 0xFFFFFFFFFFFFFFFFFFFFFFFFFFFFFFFFFFFFFFFF AND PUSH20 0xFFFFFFFFFFFFFFFFFFFFFFFFFFFFFFFFFFFFFFFF AND DUP2 MSTORE PUSH1 0x20 ADD SWAP1 DUP2 MSTORE PUSH1 0x20 ADD PUSH0 KECCAK256 PUSH0 PUSH2 0x4B1 DUP2 LT PUSH2 0x1DF8 JUMPI PUSH2 0x1DF7 PUSH2 0x314E JUMP JUMPDEST JUMPDEST PUSH1 0x10 SWAP2 DUP3 DUP3 DIV ADD SWAP2 SWAP1 MOD PUSH1 0x2 MUL DUP3 DUP3 DUP3 SWAP1 SLOAD SWAP1 PUSH2 0x100 EXP SWAP1 DIV PUSH2 0xFFFF AND PUSH2 0x1E1F SWAP2 SWAP1 PUSH2 0x31A8 JUMP JUMPDEST SWAP3 POP PUSH2 0x100 EXP DUP2 SLOAD DUP2 PUSH2 0xFFFF MUL NOT AND SWAP1 DUP4 PUSH2 0xFFFF AND MUL OR SWAP1 SSTORE POP PUSH0 PUSH1 0x1 PUSH2 0xA7E PUSH0 DUP8 PUSH20 0xFFFFFFFFFFFFFFFFFFFFFFFFFFFFFFFFFFFFFFFF AND PUSH20 0xFFFFFFFFFFFFFFFFFFFFFFFFFFFFFFFFFFFFFFFF AND DUP2 MSTORE PUSH1 0x20 ADD SWAP1 DUP2 MSTORE PUSH1 0x20 ADD PUSH0 KECCAK256 PUSH0 PUSH2 0x4B1 DUP2 LT PUSH2 0x1E8D JUMPI PUSH2 0x1E8C PUSH2 0x314E JUMP JUMPDEST JUMPDEST PUSH1 0x10 SWAP2 DUP3 DUP3 DIV ADD SWAP2 SWAP1 MOD PUSH1 0x2 MUL SWAP1 SLOAD SWAP1 PUSH2 0x100 EXP SWAP1 DIV PUSH2 0xFFFF AND PUSH2 0x1EB1 SWAP2 SWAP1 PUSH2 0x3409 JUMP JUMPDEST SWAP1 POP DUP4 PUSH2 0xA7E PUSH0 DUP8 PUSH20 0xFFFFFFFFFFFFFFFFFFFFFFFFFFFFFFFFFFFFFFFF AND PUSH20 0xFFFFFFFFFFFFFFFFFFFFFFFFFFFFFFFFFFFFFFFF AND DUP2 MSTORE PUSH1 0x20 ADD SWAP1 DUP2 MSTORE PUSH1 0x20 ADD PUSH0 KECCAK256 DUP3 PUSH2 0xFFFF AND PUSH2 0x4B1 DUP2 LT PUSH2 0x1F09 JUMPI PUSH2 0x1F08 PUSH2 0x314E JUMP JUMPDEST JUMPDEST PUSH1 0x10 SWAP2 DUP3 DUP3 DIV ADD SWAP2 SWAP1 MOD PUSH1 0x2 MUL PUSH2 0x100 EXP DUP2 SLOAD DUP2 PUSH2 0xFFFF MUL NOT AND SWAP1 DUP4 PUSH2 0xFFFF AND MUL OR SWAP1 SSTORE POP DUP1 PUSH2 0xA7E PUSH0 DUP8 PUSH20 0xFFFFFFFFFFFFFFFFFFFFFFFFFFFFFFFFFFFFFFFF AND PUSH20 0xFFFFFFFFFFFFFFFFFFFFFFFFFFFFFFFFFFFFFFFF AND DUP2 MSTORE PUSH1 0x20 ADD SWAP1 DUP2 MSTORE PUSH1 0x20 ADD PUSH0 KECCAK256 PUSH0 PUSH2 0x4B1 DUP2 LT PUSH2 0x1F80 JUMPI PUSH2 0x1F7F PUSH2 0x314E JUMP JUMPDEST JUMPDEST PUSH1 0x10 SWAP2 DUP3 DUP3 DIV ADD SWAP2 SWAP1 MOD PUSH1 0x2 MUL PUSH2 0x100 EXP DUP2 SLOAD DUP2 PUSH2 0xFFFF MUL NOT AND SWAP1 DUP4 PUSH2 0xFFFF AND MUL OR SWAP1 SSTORE POP DUP5 PUSH2 0x5A7 DUP6 PUSH2 0xFFFF AND PUSH2 0x4B1 DUP2 LT PUSH2 0x1FC0 JUMPI PUSH2 0x1FBF PUSH2 0x314E JUMP JUMPDEST JUMPDEST ADD PUSH0 PUSH2 0x100 EXP DUP2 SLOAD DUP2 PUSH20 0xFFFFFFFFFFFFFFFFFFFFFFFFFFFFFFFFFFFFFFFF MUL NOT AND SWAP1 DUP4 PUSH20 0xFFFFFFFFFFFFFFFFFFFFFFFFFFFFFFFFFFFFFFFF AND MUL OR SWAP1 SSTORE POP DUP4 PUSH2 0xFFFF AND DUP6 PUSH20 0xFFFFFFFFFFFFFFFFFFFFFFFFFFFFFFFFFFFFFFFF AND DUP5 PUSH20 0xFFFFFFFFFFFFFFFFFFFFFFFFFFFFFFFFFFFFFFFF AND PUSH32 0x89896EDBD223C9360CE42DDFED7522A2BFFB20C056E4C42D42370CB493B65676 PUSH1 0x40 MLOAD PUSH1 0x40 MLOAD DUP1 SWAP2 SUB SWAP1 LOG4 POP POP POP POP POP JUMP JUMPDEST PUSH0 DUP2 PUSH2 0xFFFF AND PUSH0 LT DUP1 ISZERO PUSH2 0x2091 JUMPI POP PUSH1 0x1 PUSH0 ADD PUSH0 SWAP1 SLOAD SWAP1 PUSH2 0x100 EXP SWAP1 DIV PUSH2 0xFFFF AND PUSH2 0xFFFF AND DUP3 PUSH2 0xFFFF AND GT ISZERO JUMPDEST PUSH2 0x20D0 JUMPI PUSH1 0x40 MLOAD PUSH32 0x8C379A000000000000000000000000000000000000000000000000000000000 DUP2 MSTORE PUSH1 0x4 ADD PUSH2 0x20C7 SWAP1 PUSH2 0x39EA JUMP JUMPDEST PUSH1 0x40 MLOAD DUP1 SWAP2 SUB SWAP1 REVERT JUMPDEST PUSH0 PUSH2 0x5A7 DUP4 PUSH2 0xFFFF AND PUSH2 0x4B1 DUP2 LT PUSH2 0x20EB JUMPI PUSH2 0x20EA PUSH2 0x314E JUMP JUMPDEST JUMPDEST ADD PUSH0 SWAP1 SLOAD SWAP1 PUSH2 0x100 EXP SWAP1 DIV PUSH20 0xFFFFFFFFFFFFFFFFFFFFFFFFFFFFFFFFFFFFFFFF AND SWAP1 POP PUSH0 PUSH20 0xFFFFFFFFFFFFFFFFFFFFFFFFFFFFFFFFFFFFFFFF AND DUP2 PUSH20 0xFFFFFFFFFFFFFFFFFFFFFFFFFFFFFFFFFFFFFFFF AND SUB PUSH2 0x217E JUMPI DUP3 PUSH1 0x40 MLOAD PUSH32 0x7E27328900000000000000000000000000000000000000000000000000000000 DUP2 MSTORE PUSH1 0x4 ADD PUSH2 0x2175 SWAP2 SWAP1 PUSH2 0x3A08 JUMP JUMPDEST PUSH1 0x40 MLOAD DUP1 SWAP2 SUB SWAP1 REVERT JUMPDEST DUP1 SWAP2 POP POP SWAP2 SWAP1 POP JUMP JUMPDEST DUP3 PUSH2 0xA7F PUSH0 DUP5 PUSH2 0xFFFF AND PUSH2 0xFFFF AND DUP2 MSTORE PUSH1 0x20 ADD SWAP1 DUP2 MSTORE PUSH1 0x20 ADD PUSH0 KECCAK256 PUSH0 PUSH2 0x100 EXP DUP2 SLOAD DUP2 PUSH20 0xFFFFFFFFFFFFFFFFFFFFFFFFFFFFFFFFFFFFFFFF MUL NOT AND SWAP1 DUP4 PUSH20 0xFFFFFFFFFFFFFFFFFFFFFFFFFFFFFFFFFFFFFFFF AND MUL OR SWAP1 SSTORE POP DUP2 PUSH2 0xFFFF AND DUP4 PUSH20 0xFFFFFFFFFFFFFFFFFFFFFFFFFFFFFFFFFFFFFFFF AND DUP3 PUSH20 0xFFFFFFFFFFFFFFFFFFFFFFFFFFFFFFFFFFFFFFFF AND PUSH32 0xA9D294FD4BD42BB30E96CBA2B478D149A783FBA3C729B1E5C42BEC89D95B85A PUSH1 0x40 MLOAD PUSH1 0x40 MLOAD DUP1 SWAP2 SUB SWAP1 LOG4 POP POP POP JUMP JUMPDEST PUSH0 DUP4 PUSH20 0xFFFFFFFFFFFFFFFFFFFFFFFFFFFFFFFFFFFFFFFF AND EXTCODESIZE GT ISZERO PUSH2 0x23EF JUMPI DUP3 PUSH20 0xFFFFFFFFFFFFFFFFFFFFFFFFFFFFFFFFFFFFFFFF AND PUSH4 0xB1CFF380 PUSH2 0x2286 PUSH2 0x18DC JUMP JUMPDEST DUP7 DUP6 DUP6 PUSH1 0x40 MLOAD DUP6 PUSH4 0xFFFFFFFF AND PUSH1 0xE0 SHL DUP2 MSTORE PUSH1 0x4 ADD PUSH2 0x22A8 SWAP5 SWAP4 SWAP3 SWAP2 SWAP1 PUSH2 0x3A21 JUMP JUMPDEST PUSH1 0x20 PUSH1 0x40 MLOAD DUP1 DUP4 SUB DUP2 PUSH0 DUP8 GAS CALL SWAP3 POP POP POP DUP1 ISZERO PUSH2 0x22E3 JUMPI POP PUSH1 0x40 MLOAD RETURNDATASIZE PUSH1 0x1F NOT PUSH1 0x1F DUP3 ADD AND DUP3 ADD DUP1 PUSH1 0x40 MSTORE POP DUP2 ADD SWAP1 PUSH2 0x22E0 SWAP2 SWAP1 PUSH2 0x3A95 JUMP JUMPDEST PUSH1 0x1 JUMPDEST PUSH2 0x2364 JUMPI RETURNDATASIZE DUP1 PUSH0 DUP2 EQ PUSH2 0x2311 JUMPI PUSH1 0x40 MLOAD SWAP2 POP PUSH1 0x1F NOT PUSH1 0x3F RETURNDATASIZE ADD AND DUP3 ADD PUSH1 0x40 MSTORE RETURNDATASIZE DUP3 MSTORE RETURNDATASIZE PUSH0 PUSH1 0x20 DUP5 ADD RETURNDATACOPY PUSH2 0x2316 JUMP JUMPDEST PUSH1 0x60 SWAP2 POP JUMPDEST POP PUSH0 DUP2 MLOAD SUB PUSH2 0x235C JUMPI DUP4 PUSH1 0x40 MLOAD PUSH32 0x64A0AE9200000000000000000000000000000000000000000000000000000000 DUP2 MSTORE PUSH1 0x4 ADD PUSH2 0x2353 SWAP2 SWAP1 PUSH2 0x2ADD JUMP JUMPDEST PUSH1 0x40 MLOAD DUP1 SWAP2 SUB SWAP1 REVERT JUMPDEST DUP1 MLOAD DUP2 PUSH1 0x20 ADD REVERT JUMPDEST PUSH4 0xB1CFF380 PUSH1 0xE0 SHL PUSH28 0xFFFFFFFFFFFFFFFFFFFFFFFFFFFFFFFFFFFFFFFFFFFFFFFFFFFFFFFF NOT AND DUP2 PUSH28 0xFFFFFFFFFFFFFFFFFFFFFFFFFFFFFFFFFFFFFFFFFFFFFFFFFFFFFFFF NOT AND EQ PUSH2 0x23ED JUMPI DUP4 PUSH1 0x40 MLOAD PUSH32 0x64A0AE9200000000000000000000000000000000000000000000000000000000 DUP2 MSTORE PUSH1 0x4 ADD PUSH2 0x23E4 SWAP2 SWAP1 PUSH2 0x2ADD JUMP JUMPDEST PUSH1 0x40 MLOAD DUP1 SWAP2 SUB SWAP1 REVERT JUMPDEST POP JUMPDEST POP POP POP POP JUMP JUMPDEST PUSH1 0x60 PUSH1 0x40 MLOAD DUP1 PUSH1 0x20 ADD PUSH1 0x40 MSTORE DUP1 PUSH0 DUP2 MSTORE POP SWAP1 POP SWAP1 JUMP JUMPDEST PUSH1 0x60 PUSH0 PUSH1 0x1 PUSH2 0x2419 DUP5 PUSH2 0x24D5 JUMP JUMPDEST ADD SWAP1 POP PUSH0 DUP2 PUSH8 0xFFFFFFFFFFFFFFFF DUP2 GT ISZERO PUSH2 0x2437 JUMPI PUSH2 0x2436 PUSH2 0x286A JUMP JUMPDEST JUMPDEST PUSH1 0x40 MLOAD SWAP1 DUP1 DUP3 MSTORE DUP1 PUSH1 0x1F ADD PUSH1 0x1F NOT AND PUSH1 0x20 ADD DUP3 ADD PUSH1 0x40 MSTORE DUP1 ISZERO PUSH2 0x2469 JUMPI DUP2 PUSH1 0x20 ADD PUSH1 0x1 DUP3 MUL DUP1 CALLDATASIZE DUP4 CALLDATACOPY DUP1 DUP3 ADD SWAP2 POP POP SWAP1 POP JUMPDEST POP SWAP1 POP PUSH0 DUP3 PUSH1 0x20 ADD DUP3 ADD SWAP1 POP JUMPDEST PUSH1 0x1 ISZERO PUSH2 0x24CA JUMPI DUP1 DUP1 PUSH1 0x1 SWAP1 SUB SWAP2 POP POP PUSH32 0x3031323334353637383961626364656600000000000000000000000000000000 PUSH1 0xA DUP7 MOD BYTE DUP2 MSTORE8 PUSH1 0xA DUP6 DUP2 PUSH2 0x24BF JUMPI PUSH2 0x24BE PUSH2 0x3373 JUMP JUMPDEST JUMPDEST DIV SWAP5 POP PUSH0 DUP6 SUB PUSH2 0x2476 JUMPI JUMPDEST DUP2 SWAP4 POP POP POP POP SWAP2 SWAP1 POP JUMP JUMPDEST PUSH0 DUP1 PUSH0 SWAP1 POP PUSH27 0x184F03E93FF9F4DAA797ED6E38ED64BF6A1F010000000000000000 DUP4 LT PUSH2 0x2531 JUMPI PUSH27 0x184F03E93FF9F4DAA797ED6E38ED64BF6A1F010000000000000000 DUP4 DUP2 PUSH2 0x2527 JUMPI PUSH2 0x2526 PUSH2 0x3373 JUMP JUMPDEST JUMPDEST DIV SWAP3 POP PUSH1 0x40 DUP2 ADD SWAP1 POP JUMPDEST PUSH14 0x4EE2D6D415B85ACEF8100000000 DUP4 LT PUSH2 0x256E JUMPI PUSH14 0x4EE2D6D415B85ACEF8100000000 DUP4 DUP2 PUSH2 0x2564 JUMPI PUSH2 0x2563 PUSH2 0x3373 JUMP JUMPDEST JUMPDEST DIV SWAP3 POP PUSH1 0x20 DUP2 ADD SWAP1 POP JUMPDEST PUSH7 0x2386F26FC10000 DUP4 LT PUSH2 0x259D JUMPI PUSH7 0x2386F26FC10000 DUP4 DUP2 PUSH2 0x2593 JUMPI PUSH2 0x2592 PUSH2 0x3373 JUMP JUMPDEST JUMPDEST DIV SWAP3 POP PUSH1 0x10 DUP2 ADD SWAP1 POP JUMPDEST PUSH4 0x5F5E100 DUP4 LT PUSH2 0x25C6 JUMPI PUSH4 0x5F5E100 DUP4 DUP2 PUSH2 0x25BC JUMPI PUSH2 0x25BB PUSH2 0x3373 JUMP JUMPDEST JUMPDEST DIV SWAP3 POP PUSH1 0x8 DUP2 ADD SWAP1 POP JUMPDEST PUSH2 0x2710 DUP4 LT PUSH2 0x25EB JUMPI PUSH2 0x2710 DUP4 DUP2 PUSH2 0x25E1 JUMPI PUSH2 0x25E0 PUSH2 0x3373 JUMP JUMPDEST JUMPDEST DIV SWAP3 POP PUSH1 0x4 DUP2 ADD SWAP1 POP JUMPDEST PUSH1 0x64 DUP4 LT PUSH2 0x260E JUMPI PUSH1 0x64 DUP4 DUP2 PUSH2 0x2604 JUMPI PUSH2 0x2603 PUSH2 0x3373 JUMP JUMPDEST JUMPDEST DIV SWAP3 POP PUSH1 0x2 DUP2 ADD SWAP1 POP JUMPDEST PUSH1 0xA DUP4 LT PUSH2 0x261D JUMPI PUSH1 0x1 DUP2 ADD SWAP1 POP JUMPDEST DUP1 SWAP2 POP POP SWAP2 SWAP1 POP JUMP JUMPDEST DUP3 PUSH2 0x4B1 PUSH1 0xF ADD PUSH1 0x10 SWAP1 DIV DUP2 ADD SWAP3 DUP3 ISZERO PUSH2 0x26B2 JUMPI SWAP2 PUSH1 0x20 MUL DUP3 ADD PUSH0 JUMPDEST DUP4 DUP3 GT ISZERO PUSH2 0x2682 JUMPI DUP4 MLOAD DUP4 DUP3 PUSH2 0x100 EXP DUP2 SLOAD DUP2 PUSH2 0xFFFF MUL NOT AND SWAP1 DUP4 PUSH2 0xFFFF AND MUL OR SWAP1 SSTORE POP SWAP3 PUSH1 0x20 ADD SWAP3 PUSH1 0x2 ADD PUSH1 0x20 DUP2 PUSH1 0x1 ADD DIV SWAP3 DUP4 ADD SWAP3 PUSH1 0x1 SUB MUL PUSH2 0x2642 JUMP JUMPDEST DUP1 ISZERO PUSH2 0x26B0 JUMPI DUP3 DUP2 PUSH2 0x100 EXP DUP2 SLOAD SWAP1 PUSH2 0xFFFF MUL NOT AND SWAP1 SSTORE PUSH1 0x2 ADD PUSH1 0x20 DUP2 PUSH1 0x1 ADD DIV SWAP3 DUP4 ADD SWAP3 PUSH1 0x1 SUB MUL PUSH2 0x2682 JUMP JUMPDEST POP JUMPDEST POP SWAP1 POP PUSH2 0x26BF SWAP2 SWAP1 PUSH2 0x26C3 JUMP JUMPDEST POP SWAP1 JUMP JUMPDEST JUMPDEST DUP1 DUP3 GT ISZERO PUSH2 0x26DA JUMPI PUSH0 DUP2 PUSH0 SWAP1 SSTORE POP PUSH1 0x1 ADD PUSH2 0x26C4 JUMP JUMPDEST POP SWAP1 JUMP JUMPDEST PUSH0 PUSH32 0xFFFFFFFFFFFFFFFFFFFFFFFFFFFFFFFFFFFFFFFF000000000000000000000000 DUP3 AND SWAP1 POP SWAP2 SWAP1 POP JUMP JUMPDEST PUSH2 0x2712 DUP2 PUSH2 0x26DE JUMP JUMPDEST DUP3 MSTORE POP POP JUMP JUMPDEST PUSH0 PUSH1 0x20 DUP3 ADD SWAP1 POP PUSH2 0x272B PUSH0 DUP4 ADD DUP5 PUSH2 0x2709 JUMP JUMPDEST SWAP3 SWAP2 POP POP JUMP JUMPDEST PUSH0 PUSH1 0x40 MLOAD SWAP1 POP SWAP1 JUMP JUMPDEST PUSH0 DUP1 REVERT JUMPDEST PUSH0 DUP1 REVERT JUMPDEST PUSH0 PUSH20 0xFFFFFFFFFFFFFFFFFFFFFFFFFFFFFFFFFFFFFFFF DUP3 AND SWAP1 POP SWAP2 SWAP1 POP JUMP JUMPDEST PUSH0 PUSH2 0x276B DUP3 PUSH2 0x2742 JUMP JUMPDEST SWAP1 POP SWAP2 SWAP1 POP JUMP JUMPDEST PUSH2 0x277B DUP2 PUSH2 0x2761 JUMP JUMPDEST DUP2 EQ PUSH2 0x2785 JUMPI PUSH0 DUP1 REVERT JUMPDEST POP JUMP JUMPDEST PUSH0 DUP2 CALLDATALOAD SWAP1 POP PUSH2 0x2796 DUP2 PUSH2 0x2772 JUMP JUMPDEST SWAP3 SWAP2 POP POP JUMP JUMPDEST PUSH0 PUSH2 0xFFFF DUP3 AND SWAP1 POP SWAP2 SWAP1 POP JUMP JUMPDEST PUSH2 0x27B2 DUP2 PUSH2 0x279C JUMP JUMPDEST DUP2 EQ PUSH2 0x27BC JUMPI PUSH0 DUP1 REVERT JUMPDEST POP JUMP JUMPDEST PUSH0 DUP2 CALLDATALOAD SWAP1 POP PUSH2 0x27CD DUP2 PUSH2 0x27A9 JUMP JUMPDEST SWAP3 SWAP2 POP POP JUMP JUMPDEST PUSH0 DUP1 PUSH0 PUSH1 0x60 DUP5 DUP7 SUB SLT ISZERO PUSH2 0x27EA JUMPI PUSH2 0x27E9 PUSH2 0x273A JUMP JUMPDEST JUMPDEST PUSH0 PUSH2 0x27F7 DUP7 DUP3 DUP8 ADD PUSH2 0x2788 JUMP JUMPDEST SWAP4 POP POP PUSH1 0x20 PUSH2 0x2808 DUP7 DUP3 DUP8 ADD PUSH2 0x2788 JUMP JUMPDEST SWAP3 POP POP PUSH1 0x40 PUSH2 0x2819 DUP7 DUP3 DUP8 ADD PUSH2 0x27BF JUMP JUMPDEST SWAP2 POP POP SWAP3 POP SWAP3 POP SWAP3 JUMP JUMPDEST PUSH0 DUP2 SWAP1 POP SWAP2 SWAP1 POP JUMP JUMPDEST PUSH2 0x2835 DUP2 PUSH2 0x2823 JUMP JUMPDEST DUP2 EQ PUSH2 0x283F JUMPI PUSH0 DUP1 REVERT JUMPDEST POP JUMP JUMPDEST PUSH0 DUP2 CALLDATALOAD SWAP1 POP PUSH2 0x2850 DUP2 PUSH2 0x282C JUMP JUMPDEST SWAP3 SWAP2 POP POP JUMP JUMPDEST PUSH0 DUP1 REVERT JUMPDEST PUSH0 PUSH1 0x1F NOT PUSH1 0x1F DUP4 ADD AND SWAP1 POP SWAP2 SWAP1 POP JUMP JUMPDEST PUSH32 0x4E487B7100000000000000000000000000000000000000000000000000000000 PUSH0 MSTORE PUSH1 0x41 PUSH1 0x4 MSTORE PUSH1 0x24 PUSH0 REVERT JUMPDEST PUSH2 0x28A0 DUP3 PUSH2 0x285A JUMP JUMPDEST DUP2 ADD DUP2 DUP2 LT PUSH8 0xFFFFFFFFFFFFFFFF DUP3 GT OR ISZERO PUSH2 0x28BF JUMPI PUSH2 0x28BE PUSH2 0x286A JUMP JUMPDEST JUMPDEST DUP1 PUSH1 0x40 MSTORE POP POP POP JUMP JUMPDEST PUSH0 PUSH2 0x28D1 PUSH2 0x2731 JUMP JUMPDEST SWAP1 POP PUSH2 0x28DD DUP3 DUP3 PUSH2 0x2897 JUMP JUMPDEST SWAP2 SWAP1 POP JUMP JUMPDEST PUSH0 PUSH8 0xFFFFFFFFFFFFFFFF DUP3 GT ISZERO PUSH2 0x28FC JUMPI PUSH2 0x28FB PUSH2 0x286A JUMP JUMPDEST JUMPDEST PUSH1 0x20 DUP3 MUL SWAP1 POP SWAP2 SWAP1 POP JUMP JUMPDEST PUSH0 DUP1 REVERT JUMPDEST PUSH0 PUSH2 0x291D PUSH2 0x2918 DUP5 PUSH2 0x28E2 JUMP JUMPDEST PUSH2 0x28C8 JUMP JUMPDEST SWAP1 POP DUP1 PUSH1 0x20 DUP5 MUL DUP4 ADD DUP6 DUP2 GT ISZERO PUSH2 0x2937 JUMPI PUSH2 0x2936 PUSH2 0x2907 JUMP JUMPDEST JUMPDEST DUP4 JUMPDEST DUP2 DUP2 LT ISZERO PUSH2 0x2960 JUMPI DUP1 PUSH2 0x294C DUP9 DUP3 PUSH2 0x27BF JUMP JUMPDEST DUP5 MSTORE PUSH1 0x20 DUP5 ADD SWAP4 POP POP PUSH1 0x20 DUP2 ADD SWAP1 POP PUSH2 0x2939 JUMP JUMPDEST POP POP POP SWAP4 SWAP3 POP POP POP JUMP JUMPDEST PUSH0 DUP3 PUSH1 0x1F DUP4 ADD SLT PUSH2 0x297E JUMPI PUSH2 0x297D PUSH2 0x2856 JUMP JUMPDEST JUMPDEST PUSH2 0x4B1 PUSH2 0x298C DUP5 DUP3 DUP6 PUSH2 0x290B JUMP JUMPDEST SWAP2 POP POP SWAP3 SWAP2 POP POP JUMP JUMPDEST PUSH0 DUP1 PUSH0 DUP1 PUSH0 DUP1 PUSH2 0x96C0 DUP8 DUP10 SUB SLT ISZERO PUSH2 0x29B0 JUMPI PUSH2 0x29AF PUSH2 0x273A JUMP JUMPDEST JUMPDEST PUSH0 PUSH2 0x29BD DUP10 DUP3 DUP11 ADD PUSH2 0x27BF JUMP JUMPDEST SWAP7 POP POP PUSH1 0x20 PUSH2 0x29CE DUP10 DUP3 DUP11 ADD PUSH2 0x2842 JUMP JUMPDEST SWAP6 POP POP PUSH1 0x40 PUSH2 0x29DF DUP10 DUP3 DUP11 ADD PUSH2 0x2788 JUMP JUMPDEST SWAP5 POP POP PUSH1 0x60 PUSH2 0x29F0 DUP10 DUP3 DUP11 ADD PUSH2 0x2788 JUMP JUMPDEST SWAP4 POP POP PUSH1 0x80 PUSH2 0x2A01 DUP10 DUP3 DUP11 ADD PUSH2 0x2842 JUMP JUMPDEST SWAP3 POP POP PUSH1 0xA0 PUSH2 0x2A12 DUP10 DUP3 DUP11 ADD PUSH2 0x296A JUMP JUMPDEST SWAP2 POP POP SWAP3 SWAP6 POP SWAP3 SWAP6 POP SWAP3 SWAP6 JUMP JUMPDEST PUSH0 DUP2 SWAP1 POP SWAP2 SWAP1 POP JUMP JUMPDEST PUSH2 0x2A31 DUP2 PUSH2 0x2A1F JUMP JUMPDEST DUP3 MSTORE POP POP JUMP JUMPDEST PUSH0 PUSH1 0x20 DUP3 ADD SWAP1 POP PUSH2 0x2A4A PUSH0 DUP4 ADD DUP5 PUSH2 0x2A28 JUMP JUMPDEST SWAP3 SWAP2 POP POP JUMP JUMPDEST PUSH0 PUSH1 0x20 DUP3 DUP5 SUB SLT ISZERO PUSH2 0x2A65 JUMPI PUSH2 0x2A64 PUSH2 0x273A JUMP JUMPDEST JUMPDEST PUSH0 PUSH2 0x2A72 DUP5 DUP3 DUP6 ADD PUSH2 0x2788 JUMP JUMPDEST SWAP2 POP POP SWAP3 SWAP2 POP POP JUMP JUMPDEST PUSH2 0x2A84 DUP2 PUSH2 0x279C JUMP JUMPDEST DUP3 MSTORE POP POP JUMP JUMPDEST PUSH0 PUSH1 0x20 DUP3 ADD SWAP1 POP PUSH2 0x2A9D PUSH0 DUP4 ADD DUP5 PUSH2 0x2A7B JUMP JUMPDEST SWAP3 SWAP2 POP POP JUMP JUMPDEST PUSH0 PUSH1 0x20 DUP3 DUP5 SUB SLT ISZERO PUSH2 0x2AB8 JUMPI PUSH2 0x2AB7 PUSH2 0x273A JUMP JUMPDEST JUMPDEST PUSH0 PUSH2 0x2AC5 DUP5 DUP3 DUP6 ADD PUSH2 0x27BF JUMP JUMPDEST SWAP2 POP POP SWAP3 SWAP2 POP POP JUMP JUMPDEST PUSH2 0x2AD7 DUP2 PUSH2 0x2761 JUMP JUMPDEST DUP3 MSTORE POP POP JUMP JUMPDEST PUSH0 PUSH1 0x20 DUP3 ADD SWAP1 POP PUSH2 0x2AF0 PUSH0 DUP4 ADD DUP5 PUSH2 0x2ACE JUMP JUMPDEST SWAP3 SWAP2 POP POP JUMP JUMPDEST PUSH0 PUSH32 0xFFFFFFFFFFFFFFFFFFFF00000000000000000000000000000000000000000000 DUP3 AND SWAP1 POP SWAP2 SWAP1 POP JUMP JUMPDEST PUSH2 0x2B2A DUP2 PUSH2 0x2AF6 JUMP JUMPDEST DUP3 MSTORE POP POP JUMP JUMPDEST PUSH0 PUSH1 0x20 DUP3 ADD SWAP1 POP PUSH2 0x2B43 PUSH0 DUP4 ADD DUP5 PUSH2 0x2B21 JUMP JUMPDEST SWAP3 SWAP2 POP POP JUMP JUMPDEST PUSH0 DUP2 ISZERO ISZERO SWAP1 POP SWAP2 SWAP1 POP JUMP JUMPDEST PUSH2 0x2B5D DUP2 PUSH2 0x2B49 JUMP JUMPDEST DUP2 EQ PUSH2 0x2B67 JUMPI PUSH0 DUP1 REVERT JUMPDEST POP JUMP JUMPDEST PUSH0 DUP2 CALLDATALOAD SWAP1 POP PUSH2 0x2B78 DUP2 PUSH2 0x2B54 JUMP JUMPDEST SWAP3 SWAP2 POP POP JUMP JUMPDEST PUSH0 DUP1 PUSH1 0x40 DUP4 DUP6 SUB SLT ISZERO PUSH2 0x2B94 JUMPI PUSH2 0x2B93 PUSH2 0x273A JUMP JUMPDEST JUMPDEST PUSH0 PUSH2 0x2BA1 DUP6 DUP3 DUP7 ADD PUSH2 0x2788 JUMP JUMPDEST SWAP3 POP POP PUSH1 0x20 PUSH2 0x2BB2 DUP6 DUP3 DUP7 ADD PUSH2 0x2B6A JUMP JUMPDEST SWAP2 POP POP SWAP3 POP SWAP3 SWAP1 POP JUMP JUMPDEST PUSH0 DUP1 REVERT JUMPDEST PUSH0 PUSH8 0xFFFFFFFFFFFFFFFF DUP3 GT ISZERO PUSH2 0x2BDA JUMPI PUSH2 0x2BD9 PUSH2 0x286A JUMP JUMPDEST JUMPDEST PUSH2 0x2BE3 DUP3 PUSH2 0x285A JUMP JUMPDEST SWAP1 POP PUSH1 0x20 DUP2 ADD SWAP1 POP SWAP2 SWAP1 POP JUMP JUMPDEST DUP3 DUP2 DUP4 CALLDATACOPY PUSH0 DUP4 DUP4 ADD MSTORE POP POP POP JUMP JUMPDEST PUSH0 PUSH2 0x2C10 PUSH2 0x2C0B DUP5 PUSH2 0x2BC0 JUMP JUMPDEST PUSH2 0x28C8 JUMP JUMPDEST SWAP1 POP DUP3 DUP2 MSTORE PUSH1 0x20 DUP2 ADD DUP5 DUP5 DUP5 ADD GT ISZERO PUSH2 0x2C2C JUMPI PUSH2 0x2C2B PUSH2 0x2BBC JUMP JUMPDEST JUMPDEST PUSH2 0x2C37 DUP5 DUP3 DUP6 PUSH2 0x2BF0 JUMP JUMPDEST POP SWAP4 SWAP3 POP POP POP JUMP JUMPDEST PUSH0 DUP3 PUSH1 0x1F DUP4 ADD SLT PUSH2 0x2C53 JUMPI PUSH2 0x2C52 PUSH2 0x2856 JUMP JUMPDEST JUMPDEST DUP2 CALLDATALOAD PUSH2 0x2C63 DUP5 DUP3 PUSH1 0x20 DUP7 ADD PUSH2 0x2BFE JUMP JUMPDEST SWAP2 POP POP SWAP3 SWAP2 POP POP JUMP JUMPDEST PUSH0 DUP1 PUSH0 DUP1 PUSH1 0x80 DUP6 DUP8 SUB SLT ISZERO PUSH2 0x2C84 JUMPI PUSH2 0x2C83 PUSH2 0x273A JUMP JUMPDEST JUMPDEST PUSH0 PUSH2 0x2C91 DUP8 DUP3 DUP9 ADD PUSH2 0x2788 JUMP JUMPDEST SWAP5 POP POP PUSH1 0x20 PUSH2 0x2CA2 DUP8 DUP3 DUP9 ADD PUSH2 0x2788 JUMP JUMPDEST SWAP4 POP POP PUSH1 0x40 PUSH2 0x2CB3 DUP8 DUP3 DUP9 ADD PUSH2 0x27BF JUMP JUMPDEST SWAP3 POP POP PUSH1 0x60 DUP6 ADD CALLDATALOAD PUSH8 0xFFFFFFFFFFFFFFFF DUP2 GT ISZERO PUSH2 0x2CD4 JUMPI PUSH2 0x2CD3 PUSH2 0x273E JUMP JUMPDEST JUMPDEST PUSH2 0x2CE0 DUP8 DUP3 DUP9 ADD PUSH2 0x2C3F JUMP JUMPDEST SWAP2 POP POP SWAP3 SWAP6 SWAP2 SWAP5 POP SWAP3 POP JUMP JUMPDEST PUSH0 DUP1 REVERT JUMPDEST PUSH0 DUP1 DUP4 PUSH1 0x1F DUP5 ADD SLT PUSH2 0x2D05 JUMPI PUSH2 0x2D04 PUSH2 0x2856 JUMP JUMPDEST JUMPDEST DUP3 CALLDATALOAD SWAP1 POP PUSH8 0xFFFFFFFFFFFFFFFF DUP2 GT ISZERO PUSH2 0x2D22 JUMPI PUSH2 0x2D21 PUSH2 0x2CEC JUMP JUMPDEST JUMPDEST PUSH1 0x20 DUP4 ADD SWAP2 POP DUP4 PUSH1 0x1 DUP3 MUL DUP4 ADD GT ISZERO PUSH2 0x2D3E JUMPI PUSH2 0x2D3D PUSH2 0x2907 JUMP JUMPDEST JUMPDEST SWAP3 POP SWAP3 SWAP1 POP JUMP JUMPDEST PUSH0 DUP1 PUSH0 DUP1 PUSH0 PUSH1 0x80 DUP7 DUP9 SUB SLT ISZERO PUSH2 0x2D5E JUMPI PUSH2 0x2D5D PUSH2 0x273A JUMP JUMPDEST JUMPDEST PUSH0 PUSH2 0x2D6B DUP9 DUP3 DUP10 ADD PUSH2 0x2788 JUMP JUMPDEST SWAP6 POP POP PUSH1 0x20 PUSH2 0x2D7C DUP9 DUP3 DUP10 ADD PUSH2 0x2788 JUMP JUMPDEST SWAP5 POP POP PUSH1 0x40 PUSH2 0x2D8D DUP9 DUP3 DUP10 ADD PUSH2 0x27BF JUMP JUMPDEST SWAP4 POP POP PUSH1 0x60 DUP7 ADD CALLDATALOAD PUSH8 0xFFFFFFFFFFFFFFFF DUP2 GT ISZERO PUSH2 0x2DAE JUMPI PUSH2 0x2DAD PUSH2 0x273E JUMP JUMPDEST JUMPDEST PUSH2 0x2DBA DUP9 DUP3 DUP10 ADD PUSH2 0x2CF0 JUMP JUMPDEST SWAP3 POP SWAP3 POP POP SWAP3 SWAP6 POP SWAP3 SWAP6 SWAP1 SWAP4 POP JUMP JUMPDEST PUSH0 PUSH32 0xFFFFFFFF00000000000000000000000000000000000000000000000000000000 DUP3 AND SWAP1 POP SWAP2 SWAP1 POP JUMP JUMPDEST PUSH2 0x2DFD DUP2 PUSH2 0x2DC9 JUMP JUMPDEST DUP3 MSTORE POP POP JUMP JUMPDEST PUSH0 PUSH1 0x20 DUP3 ADD SWAP1 POP PUSH2 0x2E16 PUSH0 DUP4 ADD DUP5 PUSH2 0x2DF4 JUMP JUMPDEST SWAP3 SWAP2 POP POP JUMP JUMPDEST PUSH0 PUSH6 0xFFFFFFFFFFFF DUP3 AND SWAP1 POP SWAP2 SWAP1 POP JUMP JUMPDEST PUSH2 0x2E36 DUP2 PUSH2 0x2E1C JUMP JUMPDEST DUP2 EQ PUSH2 0x2E40 JUMPI PUSH0 DUP1 REVERT JUMPDEST POP JUMP JUMPDEST PUSH0 DUP2 CALLDATALOAD SWAP1 POP PUSH2 0x2E51 DUP2 PUSH2 0x2E2D JUMP JUMPDEST SWAP3 SWAP2 POP POP JUMP JUMPDEST PUSH0 PUSH1 0x20 DUP3 DUP5 SUB SLT ISZERO PUSH2 0x2E6C JUMPI PUSH2 0x2E6B PUSH2 0x273A JUMP JUMPDEST JUMPDEST PUSH0 PUSH2 0x2E79 DUP5 DUP3 DUP6 ADD PUSH2 0x2E43 JUMP JUMPDEST SWAP2 POP POP SWAP3 SWAP2 POP POP JUMP JUMPDEST PUSH0 DUP2 MLOAD SWAP1 POP SWAP2 SWAP1 POP JUMP JUMPDEST PUSH0 DUP3 DUP3 MSTORE PUSH1 0x20 DUP3 ADD SWAP1 POP SWAP3 SWAP2 POP POP JUMP JUMPDEST PUSH0 JUMPDEST DUP4 DUP2 LT ISZERO PUSH2 0x2EB9 JUMPI DUP1 DUP3 ADD MLOAD DUP2 DUP5 ADD MSTORE PUSH1 0x20 DUP2 ADD SWAP1 POP PUSH2 0x2E9E JUMP JUMPDEST PUSH0 DUP5 DUP5 ADD MSTORE POP POP POP POP JUMP JUMPDEST PUSH0 PUSH2 0x2ECE DUP3 PUSH2 0x2E82 JUMP JUMPDEST PUSH2 0x2ED8 DUP2 DUP6 PUSH2 0x2E8C JUMP JUMPDEST SWAP4 POP PUSH2 0x2EE8 DUP2 DUP6 PUSH1 0x20 DUP7 ADD PUSH2 0x2E9C JUMP JUMPDEST PUSH2 0x2EF1 DUP2 PUSH2 0x285A JUMP JUMPDEST DUP5 ADD SWAP2 POP POP SWAP3 SWAP2 POP POP JUMP JUMPDEST PUSH0 PUSH1 0x20 DUP3 ADD SWAP1 POP DUP2 DUP2 SUB PUSH0 DUP4 ADD MSTORE PUSH2 0x2F14 DUP2 DUP5 PUSH2 0x2EC4 JUMP JUMPDEST SWAP1 POP SWAP3 SWAP2 POP POP JUMP JUMPDEST PUSH0 DUP2 MLOAD SWAP1 POP SWAP2 SWAP1 POP JUMP JUMPDEST PUSH0 DUP3 DUP3 MSTORE PUSH1 0x20 DUP3 ADD SWAP1 POP SWAP3 SWAP2 POP POP JUMP JUMPDEST PUSH0 PUSH2 0x2F40 DUP3 PUSH2 0x2F1C JUMP JUMPDEST PUSH2 0x2F4A DUP2 DUP6 PUSH2 0x2F26 JUMP JUMPDEST SWAP4 POP PUSH2 0x2F5A DUP2 DUP6 PUSH1 0x20 DUP7 ADD PUSH2 0x2E9C JUMP JUMPDEST PUSH2 0x2F63 DUP2 PUSH2 0x285A JUMP JUMPDEST DUP5 ADD SWAP2 POP POP SWAP3 SWAP2 POP POP JUMP JUMPDEST PUSH0 PUSH1 0x20 DUP3 ADD SWAP1 POP DUP2 DUP2 SUB PUSH0 DUP4 ADD MSTORE PUSH2 0x2F86 DUP2 DUP5 PUSH2 0x2F36 JUMP JUMPDEST SWAP1 POP SWAP3 SWAP2 POP POP JUMP JUMPDEST PUSH0 DUP1 PUSH1 0x40 DUP4 DUP6 SUB SLT ISZERO PUSH2 0x2FA4 JUMPI PUSH2 0x2FA3 PUSH2 0x273A JUMP JUMPDEST JUMPDEST PUSH0 PUSH2 0x2FB1 DUP6 DUP3 DUP7 ADD PUSH2 0x2788 JUMP JUMPDEST SWAP3 POP POP PUSH1 0x20 PUSH2 0x2FC2 DUP6 DUP3 DUP7 ADD PUSH2 0x27BF JUMP JUMPDEST SWAP2 POP POP SWAP3 POP SWAP3 SWAP1 POP JUMP JUMPDEST PUSH0 DUP1 PUSH1 0x40 DUP4 DUP6 SUB SLT ISZERO PUSH2 0x2FE2 JUMPI PUSH2 0x2FE1 PUSH2 0x273A JUMP JUMPDEST JUMPDEST PUSH0 PUSH2 0x2FEF DUP6 DUP3 DUP7 ADD PUSH2 0x2788 JUMP JUMPDEST SWAP3 POP POP PUSH1 0x20 PUSH2 0x3000 DUP6 DUP3 DUP7 ADD PUSH2 0x2788 JUMP JUMPDEST SWAP2 POP POP SWAP3 POP SWAP3 SWAP1 POP JUMP JUMPDEST PUSH2 0x3013 DUP2 PUSH2 0x2B49 JUMP JUMPDEST DUP3 MSTORE POP POP JUMP JUMPDEST PUSH0 PUSH1 0x20 DUP3 ADD SWAP1 POP PUSH2 0x302C PUSH0 DUP4 ADD DUP5 PUSH2 0x300A JUMP JUMPDEST SWAP3 SWAP2 POP POP JUMP JUMPDEST PUSH32 0x596F7520646F206E6F7420686176652061636365737320746F20746869732066 PUSH0 DUP3 ADD MSTORE PUSH32 0x756E6374696F6E00000000000000000000000000000000000000000000000000 PUSH1 0x20 DUP3 ADD MSTORE POP JUMP JUMPDEST PUSH0 PUSH2 0x308C PUSH1 0x27 DUP4 PUSH2 0x2F26 JUMP JUMPDEST SWAP2 POP PUSH2 0x3097 DUP3 PUSH2 0x3032 JUMP JUMPDEST PUSH1 0x40 DUP3 ADD SWAP1 POP SWAP2 SWAP1 POP JUMP JUMPDEST PUSH0 PUSH1 0x20 DUP3 ADD SWAP1 POP DUP2 DUP2 SUB PUSH0 DUP4 ADD MSTORE PUSH2 0x30B9 DUP2 PUSH2 0x3080 JUMP JUMPDEST SWAP1 POP SWAP2 SWAP1 POP JUMP JUMPDEST PUSH32 0x54686520656E746572656420706172616D657465727320617265206E6F742061 PUSH0 DUP3 ADD MSTORE PUSH32 0x636365707461626C650000000000000000000000000000000000000000000000 PUSH1 0x20 DUP3 ADD MSTORE POP JUMP JUMPDEST PUSH0 PUSH2 0x311A PUSH1 0x29 DUP4 PUSH2 0x2F26 JUMP JUMPDEST SWAP2 POP PUSH2 0x3125 DUP3 PUSH2 0x30C0 JUMP JUMPDEST PUSH1 0x40 DUP3 ADD SWAP1 POP SWAP2 SWAP1 POP JUMP JUMPDEST PUSH0 PUSH1 0x20 DUP3 ADD SWAP1 POP DUP2 DUP2 SUB PUSH0 DUP4 ADD MSTORE PUSH2 0x3147 DUP2 PUSH2 0x310E JUMP JUMPDEST SWAP1 POP SWAP2 SWAP1 POP JUMP JUMPDEST PUSH32 0x4E487B7100000000000000000000000000000000000000000000000000000000 PUSH0 MSTORE PUSH1 0x32 PUSH1 0x4 MSTORE PUSH1 0x24 PUSH0 REVERT JUMPDEST PUSH32 0x4E487B7100000000000000000000000000000000000000000000000000000000 PUSH0 MSTORE PUSH1 0x11 PUSH1 0x4 MSTORE PUSH1 0x24 PUSH0 REVERT JUMPDEST PUSH0 PUSH2 0x31B2 DUP3 PUSH2 0x279C JUMP JUMPDEST SWAP2 POP PUSH2 0x31BD DUP4 PUSH2 0x279C JUMP JUMPDEST SWAP3 POP DUP3 DUP3 SUB SWAP1 POP PUSH2 0xFFFF DUP2 GT ISZERO PUSH2 0x31D7 JUMPI PUSH2 0x31D6 PUSH2 0x317B JUMP JUMPDEST JUMPDEST SWAP3 SWAP2 POP POP JUMP JUMPDEST PUSH32 0x596F7520646F206E6F742068617665207065726D697373696F6E20746F207570 PUSH0 DUP3 ADD MSTORE PUSH32 0x6772616465000000000000000000000000000000000000000000000000000000 PUSH1 0x20 DUP3 ADD MSTORE POP JUMP JUMPDEST PUSH0 PUSH2 0x3237 PUSH1 0x25 DUP4 PUSH2 0x2F26 JUMP JUMPDEST SWAP2 POP PUSH2 0x3242 DUP3 PUSH2 0x31DD JUMP JUMPDEST PUSH1 0x40 DUP3 ADD SWAP1 POP SWAP2 SWAP1 POP JUMP JUMPDEST PUSH0 PUSH1 0x20 DUP3 ADD SWAP1 POP DUP2 DUP2 SUB PUSH0 DUP4 ADD MSTORE PUSH2 0x3264 DUP2 PUSH2 0x322B JUMP JUMPDEST SWAP1 POP SWAP2 SWAP1 POP JUMP JUMPDEST PUSH2 0x3274 DUP2 PUSH2 0x2823 JUMP JUMPDEST DUP3 MSTORE POP POP JUMP JUMPDEST PUSH0 PUSH1 0x60 DUP3 ADD SWAP1 POP PUSH2 0x328D PUSH0 DUP4 ADD DUP7 PUSH2 0x2ACE JUMP JUMPDEST PUSH2 0x329A PUSH1 0x20 DUP4 ADD DUP6 PUSH2 0x2ACE JUMP JUMPDEST PUSH2 0x32A7 PUSH1 0x40 DUP4 ADD DUP5 PUSH2 0x326B JUMP JUMPDEST SWAP5 SWAP4 POP POP POP POP JUMP JUMPDEST PUSH32 0x416363657373206F6E6C7920666F72206578656375746F720000000000000000 PUSH0 DUP3 ADD MSTORE POP JUMP JUMPDEST PUSH0 PUSH2 0x32E3 PUSH1 0x18 DUP4 PUSH2 0x2F26 JUMP JUMPDEST SWAP2 POP PUSH2 0x32EE DUP3 PUSH2 0x32AF JUMP JUMPDEST PUSH1 0x20 DUP3 ADD SWAP1 POP SWAP2 SWAP1 POP JUMP JUMPDEST PUSH0 PUSH1 0x20 DUP3 ADD SWAP1 POP DUP2 DUP2 SUB PUSH0 DUP4 ADD MSTORE PUSH2 0x3310 DUP2 PUSH2 0x32D7 JUMP JUMPDEST SWAP1 POP SWAP2 SWAP1 POP JUMP JUMPDEST PUSH0 PUSH2 0x3321 DUP3 PUSH2 0x279C JUMP JUMPDEST SWAP2 POP PUSH2 0xFFFF DUP3 SUB PUSH2 0x3335 JUMPI PUSH2 0x3334 PUSH2 0x317B JUMP JUMPDEST JUMPDEST PUSH1 0x1 DUP3 ADD SWAP1 POP SWAP2 SWAP1 POP JUMP JUMPDEST PUSH0 PUSH2 0x334A DUP3 PUSH2 0x2823 JUMP JUMPDEST SWAP2 POP PUSH2 0x3355 DUP4 PUSH2 0x2823 JUMP JUMPDEST SWAP3 POP DUP3 DUP3 ADD SWAP1 POP DUP1 DUP3 GT ISZERO PUSH2 0x336D JUMPI PUSH2 0x336C PUSH2 0x317B JUMP JUMPDEST JUMPDEST SWAP3 SWAP2 POP POP JUMP JUMPDEST PUSH32 0x4E487B7100000000000000000000000000000000000000000000000000000000 PUSH0 MSTORE PUSH1 0x12 PUSH1 0x4 MSTORE PUSH1 0x24 PUSH0 REVERT JUMPDEST PUSH0 PUSH2 0x33AA DUP3 PUSH2 0x279C JUMP JUMPDEST SWAP2 POP PUSH2 0x33B5 DUP4 PUSH2 0x279C JUMP JUMPDEST SWAP3 POP DUP3 PUSH2 0x33C5 JUMPI PUSH2 0x33C4 PUSH2 0x3373 JUMP JUMPDEST JUMPDEST DUP3 DUP3 MOD SWAP1 POP SWAP3 SWAP2 POP POP JUMP JUMPDEST PUSH0 PUSH2 0x33DA DUP3 PUSH2 0x2E1C JUMP JUMPDEST SWAP2 POP PUSH2 0x33E5 DUP4 PUSH2 0x2E1C JUMP JUMPDEST SWAP3 POP DUP3 DUP3 ADD SWAP1 POP PUSH6 0xFFFFFFFFFFFF DUP2 GT ISZERO PUSH2 0x3403 JUMPI PUSH2 0x3402 PUSH2 0x317B JUMP JUMPDEST JUMPDEST SWAP3 SWAP2 POP POP JUMP JUMPDEST PUSH0 PUSH2 0x3413 DUP3 PUSH2 0x279C JUMP JUMPDEST SWAP2 POP PUSH2 0x341E DUP4 PUSH2 0x279C JUMP JUMPDEST SWAP3 POP DUP3 DUP3 ADD SWAP1 POP PUSH2 0xFFFF DUP2 GT ISZERO PUSH2 0x3438 JUMPI PUSH2 0x3437 PUSH2 0x317B JUMP JUMPDEST JUMPDEST SWAP3 SWAP2 POP POP JUMP JUMPDEST PUSH0 PUSH2 0x3448 DUP3 PUSH2 0x279C JUMP JUMPDEST SWAP2 POP PUSH0 DUP3 SUB PUSH2 0x345A JUMPI PUSH2 0x3459 PUSH2 0x317B JUMP JUMPDEST JUMPDEST PUSH1 0x1 DUP3 SUB SWAP1 POP SWAP2 SWAP1 POP JUMP JUMPDEST PUSH32 0x546865207472616E73666572206F66207468697320746F6B656E206973206375 PUSH0 DUP3 ADD MSTORE PUSH32 0x7272656E746C792062616E6E6564000000000000000000000000000000000000 PUSH1 0x20 DUP3 ADD MSTORE POP JUMP JUMPDEST PUSH0 PUSH2 0x34BF PUSH1 0x2E DUP4 PUSH2 0x2F26 JUMP JUMPDEST SWAP2 POP PUSH2 0x34CA DUP3 PUSH2 0x3465 JUMP JUMPDEST PUSH1 0x40 DUP3 ADD SWAP1 POP SWAP2 SWAP1 POP JUMP JUMPDEST PUSH0 PUSH1 0x20 DUP3 ADD SWAP1 POP DUP2 DUP2 SUB PUSH0 DUP4 ADD MSTORE PUSH2 0x34EC DUP2 PUSH2 0x34B3 JUMP JUMPDEST SWAP1 POP SWAP2 SWAP1 POP JUMP JUMPDEST PUSH0 DUP2 SWAP1 POP SWAP2 SWAP1 POP JUMP JUMPDEST PUSH0 PUSH2 0x3516 PUSH2 0x3511 PUSH2 0x350C DUP5 PUSH2 0x279C JUMP JUMPDEST PUSH2 0x34F3 JUMP JUMPDEST PUSH2 0x2823 JUMP JUMPDEST SWAP1 POP SWAP2 SWAP1 POP JUMP JUMPDEST PUSH2 0x3526 DUP2 PUSH2 0x34FC JUMP JUMPDEST DUP3 MSTORE POP POP JUMP JUMPDEST PUSH0 PUSH1 0x40 DUP3 ADD SWAP1 POP PUSH2 0x353F PUSH0 DUP4 ADD DUP6 PUSH2 0x2ACE JUMP JUMPDEST PUSH2 0x354C PUSH1 0x20 DUP4 ADD DUP5 PUSH2 0x351D JUMP JUMPDEST SWAP4 SWAP3 POP POP POP JUMP JUMPDEST PUSH0 PUSH1 0x60 DUP3 ADD SWAP1 POP PUSH2 0x3566 PUSH0 DUP4 ADD DUP7 PUSH2 0x2ACE JUMP JUMPDEST PUSH2 0x3573 PUSH1 0x20 DUP4 ADD DUP6 PUSH2 0x351D JUMP JUMPDEST PUSH2 0x3580 PUSH1 0x40 DUP4 ADD DUP5 PUSH2 0x2ACE JUMP JUMPDEST SWAP5 SWAP4 POP POP POP POP JUMP JUMPDEST PUSH32 0x54686520696E70757420616464726573732063616E6E6F74206265207A65726F PUSH0 DUP3 ADD MSTORE POP JUMP JUMPDEST PUSH0 PUSH2 0x35BC PUSH1 0x20 DUP4 PUSH2 0x2F26 JUMP JUMPDEST SWAP2 POP PUSH2 0x35C7 DUP3 PUSH2 0x3588 JUMP JUMPDEST PUSH1 0x20 DUP3 ADD SWAP1 POP SWAP2 SWAP1 POP JUMP JUMPDEST PUSH0 PUSH1 0x20 DUP3 ADD SWAP1 POP DUP2 DUP2 SUB PUSH0 DUP4 ADD MSTORE PUSH2 0x35E9 DUP2 PUSH2 0x35B0 JUMP JUMPDEST SWAP1 POP SWAP2 SWAP1 POP JUMP JUMPDEST PUSH32 0x5468652061646472657373206F6620746865206F776E657220616E6420746865 PUSH0 DUP3 ADD MSTORE PUSH32 0x206F70657261746F72206D75737420626520646966666572656E740000000000 PUSH1 0x20 DUP3 ADD MSTORE POP JUMP JUMPDEST PUSH0 PUSH2 0x364A PUSH1 0x3B DUP4 PUSH2 0x2F26 JUMP JUMPDEST SWAP2 POP PUSH2 0x3655 DUP3 PUSH2 0x35F0 JUMP JUMPDEST PUSH1 0x40 DUP3 ADD SWAP1 POP SWAP2 SWAP1 POP JUMP JUMPDEST PUSH0 PUSH1 0x20 DUP3 ADD SWAP1 POP DUP2 DUP2 SUB PUSH0 DUP4 ADD MSTORE PUSH2 0x3677 DUP2 PUSH2 0x363E JUMP JUMPDEST SWAP1 POP SWAP2 SWAP1 POP JUMP JUMPDEST PUSH32 0x4974206973206E6F7420706F737369626C6520746F207265676973746572206E PUSH0 DUP3 ADD MSTORE PUSH32 0x6F77000000000000000000000000000000000000000000000000000000000000 PUSH1 0x20 DUP3 ADD MSTORE POP JUMP JUMPDEST PUSH0 PUSH2 0x36D8 PUSH1 0x22 DUP4 PUSH2 0x2F26 JUMP JUMPDEST SWAP2 POP PUSH2 0x36E3 DUP3 PUSH2 0x367E JUMP JUMPDEST PUSH1 0x40 DUP3 ADD SWAP1 POP SWAP2 SWAP1 POP JUMP JUMPDEST PUSH0 PUSH1 0x20 DUP3 ADD SWAP1 POP DUP2 DUP2 SUB PUSH0 DUP4 ADD MSTORE PUSH2 0x3705 DUP2 PUSH2 0x36CC JUMP JUMPDEST SWAP1 POP SWAP2 SWAP1 POP JUMP JUMPDEST PUSH32 0x5468652061646472657373206F66207468652072656769737472616E74206D75 PUSH0 DUP3 ADD MSTORE PUSH32 0x7374206E6F742062652030206F72207468652061646472657373206F66206120 PUSH1 0x20 DUP3 ADD MSTORE PUSH32 0x636F6E7472616374000000000000000000000000000000000000000000000000 PUSH1 0x40 DUP3 ADD MSTORE POP JUMP JUMPDEST PUSH0 PUSH2 0x378C PUSH1 0x48 DUP4 PUSH2 0x2F26 JUMP JUMPDEST SWAP2 POP PUSH2 0x3797 DUP3 PUSH2 0x370C JUMP JUMPDEST PUSH1 0x60 DUP3 ADD SWAP1 POP SWAP2 SWAP1 POP JUMP JUMPDEST PUSH0 PUSH1 0x20 DUP3 ADD SWAP1 POP DUP2 DUP2 SUB PUSH0 DUP4 ADD MSTORE PUSH2 0x37B9 DUP2 PUSH2 0x3780 JUMP JUMPDEST SWAP1 POP SWAP2 SWAP1 POP JUMP JUMPDEST PUSH32 0x54686520616D6F756E742073686F756C64206E6F74206265206C657373207468 PUSH0 DUP3 ADD MSTORE PUSH32 0x616E20746865206D696E74207072696365000000000000000000000000000000 PUSH1 0x20 DUP3 ADD MSTORE POP JUMP JUMPDEST PUSH0 PUSH2 0x381A PUSH1 0x31 DUP4 PUSH2 0x2F26 JUMP JUMPDEST SWAP2 POP PUSH2 0x3825 DUP3 PUSH2 0x37C0 JUMP JUMPDEST PUSH1 0x40 DUP3 ADD SWAP1 POP SWAP2 SWAP1 POP JUMP JUMPDEST PUSH0 PUSH1 0x20 DUP3 ADD SWAP1 POP DUP2 DUP2 SUB PUSH0 DUP4 ADD MSTORE PUSH2 0x3847 DUP2 PUSH2 0x380E JUMP JUMPDEST SWAP1 POP SWAP2 SWAP1 POP JUMP JUMPDEST PUSH0 DUP2 SWAP1 POP SWAP3 SWAP2 POP POP JUMP JUMPDEST POP JUMP JUMPDEST PUSH0 PUSH2 0x3866 PUSH0 DUP4 PUSH2 0x384E JUMP JUMPDEST SWAP2 POP PUSH2 0x3871 DUP3 PUSH2 0x3858 JUMP JUMPDEST PUSH0 DUP3 ADD SWAP1 POP SWAP2 SWAP1 POP JUMP JUMPDEST PUSH0 PUSH2 0x3885 DUP3 PUSH2 0x385B JUMP JUMPDEST SWAP2 POP DUP2 SWAP1 POP SWAP2 SWAP1 POP JUMP JUMPDEST PUSH32 0x54686520616D6F756E7420776173206E6F742073656E74000000000000000000 PUSH0 DUP3 ADD MSTORE POP JUMP JUMPDEST PUSH0 PUSH2 0x38C3 PUSH1 0x17 DUP4 PUSH2 0x2F26 JUMP JUMPDEST SWAP2 POP PUSH2 0x38CE DUP3 PUSH2 0x388F JUMP JUMPDEST PUSH1 0x20 DUP3 ADD SWAP1 POP SWAP2 SWAP1 POP JUMP JUMPDEST PUSH0 PUSH1 0x20 DUP3 ADD SWAP1 POP DUP2 DUP2 SUB PUSH0 DUP4 ADD MSTORE PUSH2 0x38F0 DUP2 PUSH2 0x38B7 JUMP JUMPDEST SWAP1 POP SWAP2 SWAP1 POP JUMP JUMPDEST PUSH0 DUP2 SWAP1 POP SWAP3 SWAP2 POP POP JUMP JUMPDEST PUSH0 PUSH2 0x390B DUP3 PUSH2 0x2F1C JUMP JUMPDEST PUSH2 0x3915 DUP2 DUP6 PUSH2 0x38F7 JUMP JUMPDEST SWAP4 POP PUSH2 0x3925 DUP2 DUP6 PUSH1 0x20 DUP7 ADD PUSH2 0x2E9C JUMP JUMPDEST DUP1 DUP5 ADD SWAP2 POP POP SWAP3 SWAP2 POP POP JUMP JUMPDEST PUSH0 PUSH2 0x393C DUP3 DUP6 PUSH2 0x3901 JUMP JUMPDEST SWAP2 POP PUSH2 0x3948 DUP3 DUP5 PUSH2 0x3901 JUMP JUMPDEST SWAP2 POP DUP2 SWAP1 POP SWAP4 SWAP3 POP POP POP JUMP JUMPDEST PUSH32 0x54686520494420656E746572656420697320696E76616C69642E204974206D75 PUSH0 DUP3 ADD MSTORE PUSH32 0x737420626520696E207468697320696E74657276616C2030203C206964203C3D PUSH1 0x20 DUP3 ADD MSTORE PUSH32 0x206D6178696D756D206D696E7461626C6520746F6B656E730000000000000000 PUSH1 0x40 DUP3 ADD MSTORE POP JUMP JUMPDEST PUSH0 PUSH2 0x39D4 PUSH1 0x58 DUP4 PUSH2 0x2F26 JUMP JUMPDEST SWAP2 POP PUSH2 0x39DF DUP3 PUSH2 0x3954 JUMP JUMPDEST PUSH1 0x60 DUP3 ADD SWAP1 POP SWAP2 SWAP1 POP JUMP JUMPDEST PUSH0 PUSH1 0x20 DUP3 ADD SWAP1 POP DUP2 DUP2 SUB PUSH0 DUP4 ADD MSTORE PUSH2 0x3A01 DUP2 PUSH2 0x39C8 JUMP JUMPDEST SWAP1 POP SWAP2 SWAP1 POP JUMP JUMPDEST PUSH0 PUSH1 0x20 DUP3 ADD SWAP1 POP PUSH2 0x3A1B PUSH0 DUP4 ADD DUP5 PUSH2 0x351D JUMP JUMPDEST SWAP3 SWAP2 POP POP JUMP JUMPDEST PUSH0 PUSH1 0x80 DUP3 ADD SWAP1 POP PUSH2 0x3A34 PUSH0 DUP4 ADD DUP8 PUSH2 0x2ACE JUMP JUMPDEST PUSH2 0x3A41 PUSH1 0x20 DUP4 ADD DUP7 PUSH2 0x2ACE JUMP JUMPDEST PUSH2 0x3A4E PUSH1 0x40 DUP4 ADD DUP6 PUSH2 0x2A7B JUMP JUMPDEST DUP2 DUP2 SUB PUSH1 0x60 DUP4 ADD MSTORE PUSH2 0x3A60 DUP2 DUP5 PUSH2 0x2EC4 JUMP JUMPDEST SWAP1 POP SWAP6 SWAP5 POP POP POP POP POP JUMP JUMPDEST PUSH2 0x3A74 DUP2 PUSH2 0x2DC9 JUMP JUMPDEST DUP2 EQ PUSH2 0x3A7E JUMPI PUSH0 DUP1 REVERT JUMPDEST POP JUMP JUMPDEST PUSH0 DUP2 MLOAD SWAP1 POP PUSH2 0x3A8F DUP2 PUSH2 0x3A6B JUMP JUMPDEST SWAP3 SWAP2 POP POP JUMP JUMPDEST PUSH0 PUSH1 0x20 DUP3 DUP5 SUB SLT ISZERO PUSH2 0x3AAA JUMPI PUSH2 0x3AA9 PUSH2 0x273A JUMP JUMPDEST JUMPDEST PUSH0 PUSH2 0x3AB7 DUP5 DUP3 DUP6 ADD PUSH2 0x3A81 JUMP JUMPDEST SWAP2 POP POP SWAP3 SWAP2 POP POP JUMP INVALID LOG2 PUSH5 0x6970667358 0x22 SLT KECCAK256 SWAP10 0x5C CREATE 0xB5 0xE0 0xB6 PUSH30 0x2AE03AB47E1E69EE19AC0E063CB3F5F337CA6E1610B17770E564736F6C63 NUMBER STOP ADDMOD EQ STOP CALLER "
				},
				"gasEstimates": {
					"creation": {
						"codeDepositCost": "3018800",
						"executionCost": "infinite",
						"totalCost": "infinite"
					},
					"external": {
						"approve(address,uint16)": "infinite",
						"balanceOf(address)": "3034",
						"getApproved(uint16)": "infinite",
						"isApprovedForAll(address,address)": "infinite",
						"mint()": "infinite",
						"name()": "2497",
						"onERC721Received(address,address,uint16,bytes)": "infinite",
						"ownerOf(uint16)": "infinite",
						"safeTransferFrom(address,address,uint16)": "infinite",
						"safeTransferFrom(address,address,uint16,bytes)": "infinite",
						"setApprovalForAll(address,bool)": "infinite",
						"setRegister(uint48)": "infinite",
						"stateVoting()": "369",
						"symbol()": "2569",
						"tokenURI(uint16)": "infinite",
						"transferFrom(address,address,uint16)": "infinite",
						"updateMintInfo(uint16,uint256,address,address,uint256,uint16[1201])": "infinite"
					},
					"internal": {
						"_aprove(address,uint16,address)": "26307",
						"_baseURI()": "infinite",
						"_checkOnERC721Received(address,address,uint16,bytes memory)": "infinite",
						"_requireOwned(uint16)": "infinite",
						"_update(address,uint16,address)": "infinite",
						"setStateVoting(bytes32)": "11"
					}
				},
				"methodIdentifiers": {
					"approve(address,uint16)": "e560ca43",
					"balanceOf(address)": "70a08231",
					"getApproved(uint16)": "93b871f2",
					"isApprovedForAll(address,address)": "e985e9c5",
					"mint()": "1249c58b",
					"name()": "06fdde03",
					"onERC721Received(address,address,uint16,bytes)": "b1cff380",
					"ownerOf(uint16)": "82a7cf1e",
					"safeTransferFrom(address,address,uint16)": "07394401",
					"safeTransferFrom(address,address,uint16,bytes)": "b145ae31",
					"setApprovalForAll(address,bool)": "a22cb465",
					"setRegister(uint48)": "d5ebe3df",
					"stateVoting()": "6e1514f1",
					"symbol()": "95d89b41",
					"tokenURI(uint16)": "dd7d8440",
					"transferFrom(address,address,uint16)": "4ec3dcfe",
					"updateMintInfo(uint16,uint256,address,address,uint256,uint16[1201])": "0ab5b8cd"
				}
			},
			"storageLayout": {
				"storage": [
					{
						"astId": 1904,
						"contract": "contracts/ERC721TokenContractName.sol:ERC721TokenContractName",
						"label": "_name",
						"offset": 0,
						"slot": "0",
						"type": "t_bytes20"
					},
					{
						"astId": 1906,
						"contract": "contracts/ERC721TokenContractName.sol:ERC721TokenContractName",
						"label": "_symbol",
						"offset": 20,
						"slot": "0",
						"type": "t_bytes10"
					},
					{
						"astId": 1932,
						"contract": "contracts/ERC721TokenContractName.sol:ERC721TokenContractName",
						"label": "mintInfo",
						"offset": 0,
						"slot": "1",
						"type": "t_struct(MintInfo)1929_storage"
					},
					{
						"astId": 1936,
						"contract": "contracts/ERC721TokenContractName.sol:ERC721TokenContractName",
						"label": "_owners",
						"offset": 0,
						"slot": "1447",
						"type": "t_array(t_address)1201_storage"
					},
					{
						"astId": 1940,
						"contract": "contracts/ERC721TokenContractName.sol:ERC721TokenContractName",
						"label": "ban",
						"offset": 0,
						"slot": "2648",
						"type": "t_array(t_bool)1201_storage"
					},
					{
						"astId": 1946,
						"contract": "contracts/ERC721TokenContractName.sol:ERC721TokenContractName",
						"label": "_balanceAndTokId",
						"offset": 0,
						"slot": "2686",
						"type": "t_mapping(t_address,t_array(t_uint16)1201_storage)"
					},
					{
						"astId": 1950,
						"contract": "contracts/ERC721TokenContractName.sol:ERC721TokenContractName",
						"label": "_tokenApprovals",
						"offset": 0,
						"slot": "2687",
						"type": "t_mapping(t_uint16,t_address)"
					},
					{
						"astId": 1956,
						"contract": "contracts/ERC721TokenContractName.sol:ERC721TokenContractName",
						"label": "_operatorApprovals",
						"offset": 0,
						"slot": "2688",
						"type": "t_mapping(t_address,t_mapping(t_address,t_bool))"
					}
				],
				"types": {
					"t_address": {
						"encoding": "inplace",
						"label": "address",
						"numberOfBytes": "20"
					},
					"t_array(t_address)1201_storage": {
						"base": "t_address",
						"encoding": "inplace",
						"label": "address[1201]",
						"numberOfBytes": "38432"
					},
					"t_array(t_bool)1201_storage": {
						"base": "t_bool",
						"encoding": "inplace",
						"label": "bool[1201]",
						"numberOfBytes": "1216"
					},
					"t_array(t_uint16)1201_storage": {
						"base": "t_uint16",
						"encoding": "inplace",
						"label": "uint16[1201]",
						"numberOfBytes": "2432"
					},
					"t_array(t_uint48)1201_storage": {
						"base": "t_uint48",
						"encoding": "inplace",
						"label": "uint48[1201]",
						"numberOfBytes": "7712"
					},
					"t_bool": {
						"encoding": "inplace",
						"label": "bool",
						"numberOfBytes": "1"
					},
					"t_bytes10": {
						"encoding": "inplace",
						"label": "bytes10",
						"numberOfBytes": "10"
					},
					"t_bytes20": {
						"encoding": "inplace",
						"label": "bytes20",
						"numberOfBytes": "20"
					},
					"t_mapping(t_address,t_array(t_uint16)1201_storage)": {
						"encoding": "mapping",
						"key": "t_address",
						"label": "mapping(address => uint16[1201])",
						"numberOfBytes": "32",
						"value": "t_array(t_uint16)1201_storage"
					},
					"t_mapping(t_address,t_bool)": {
						"encoding": "mapping",
						"key": "t_address",
						"label": "mapping(address => bool)",
						"numberOfBytes": "32",
						"value": "t_bool"
					},
					"t_mapping(t_address,t_mapping(t_address,t_bool))": {
						"encoding": "mapping",
						"key": "t_address",
						"label": "mapping(address => mapping(address => bool))",
						"numberOfBytes": "32",
						"value": "t_mapping(t_address,t_bool)"
					},
					"t_mapping(t_uint16,t_address)": {
						"encoding": "mapping",
						"key": "t_uint16",
						"label": "mapping(uint16 => address)",
						"numberOfBytes": "32",
						"value": "t_address"
					},
					"t_struct(MintInfo)1929_storage": {
						"encoding": "inplace",
						"label": "struct ERC721TokenContractName.MintInfo",
						"members": [
							{
								"astId": 1908,
								"contract": "contracts/ERC721TokenContractName.sol:ERC721TokenContractName",
								"label": "maxMint",
								"offset": 0,
								"slot": "0",
								"type": "t_uint16"
							},
							{
								"astId": 1910,
								"contract": "contracts/ERC721TokenContractName.sol:ERC721TokenContractName",
								"label": "currentTokens",
								"offset": 2,
								"slot": "0",
								"type": "t_uint16"
							},
							{
								"astId": 1912,
								"contract": "contracts/ERC721TokenContractName.sol:ERC721TokenContractName",
								"label": "nRegistrants",
								"offset": 4,
								"slot": "0",
								"type": "t_uint16"
							},
							{
								"astId": 1914,
								"contract": "contracts/ERC721TokenContractName.sol:ERC721TokenContractName",
								"label": "executor",
								"offset": 6,
								"slot": "0",
								"type": "t_address"
							},
							{
								"astId": 1916,
								"contract": "contracts/ERC721TokenContractName.sol:ERC721TokenContractName",
								"label": "bankAddress",
								"offset": 0,
								"slot": "1",
								"type": "t_address"
							},
							{
								"astId": 1918,
								"contract": "contracts/ERC721TokenContractName.sol:ERC721TokenContractName",
								"label": "registrationStartTime",
								"offset": 0,
								"slot": "2",
								"type": "t_uint256"
							},
							{
								"astId": 1920,
								"contract": "contracts/ERC721TokenContractName.sol:ERC721TokenContractName",
								"label": "mintPrice",
								"offset": 0,
								"slot": "3",
								"type": "t_uint256"
							},
							{
								"astId": 1924,
								"contract": "contracts/ERC721TokenContractName.sol:ERC721TokenContractName",
								"label": "salts",
								"offset": 0,
								"slot": "4",
								"type": "t_array(t_uint48)1201_storage"
							},
							{
								"astId": 1928,
								"contract": "contracts/ERC721TokenContractName.sol:ERC721TokenContractName",
								"label": "registrants",
								"offset": 0,
								"slot": "245",
								"type": "t_array(t_address)1201_storage"
							}
						],
						"numberOfBytes": "46272"
					},
					"t_uint16": {
						"encoding": "inplace",
						"label": "uint16",
						"numberOfBytes": "2"
					},
					"t_uint256": {
						"encoding": "inplace",
						"label": "uint256",
						"numberOfBytes": "32"
					},
					"t_uint48": {
						"encoding": "inplace",
						"label": "uint48",
						"numberOfBytes": "6"
					}
				}
			},
			"userdoc": {
				"kind": "user",
				"methods": {},
				"version": 1
			}
		}
	}
}