{
	"contracts/ERC721TokenContractName.sol": {
		"ERC721TokenContractName": {
			"abi": [
				{
					"inputs": [
						{
							"internalType": "bytes20",
							"name": "name_",
							"type": "bytes20"
						},
						{
							"internalType": "bytes10",
							"name": "symbol_",
							"type": "bytes10"
						}
					],
					"stateMutability": "nonpayable",
					"type": "constructor"
				},
				{
					"inputs": [
						{
							"internalType": "address",
							"name": "sender",
							"type": "address"
						}
					],
					"name": "ERC721AccessIsNotApproved",
					"type": "error"
				},
				{
					"inputs": [
						{
							"internalType": "address",
							"name": "sender",
							"type": "address"
						},
						{
							"internalType": "uint256",
							"name": "tokenId",
							"type": "uint256"
						},
						{
							"internalType": "address",
							"name": "owner",
							"type": "address"
						}
					],
					"name": "ERC721IncorrectOwner",
					"type": "error"
				},
				{
					"inputs": [
						{
							"internalType": "address",
							"name": "operator",
							"type": "address"
						},
						{
							"internalType": "uint256",
							"name": "tokenId",
							"type": "uint256"
						}
					],
					"name": "ERC721InsufficientApproval",
					"type": "error"
				},
				{
					"inputs": [
						{
							"internalType": "address",
							"name": "approver",
							"type": "address"
						}
					],
					"name": "ERC721InvalidApprover",
					"type": "error"
				},
				{
					"inputs": [
						{
							"internalType": "address",
							"name": "operator",
							"type": "address"
						}
					],
					"name": "ERC721InvalidOperator",
					"type": "error"
				},
				{
					"inputs": [
						{
							"internalType": "address",
							"name": "owner",
							"type": "address"
						}
					],
					"name": "ERC721InvalidOwner",
					"type": "error"
				},
				{
					"inputs": [
						{
							"internalType": "address",
							"name": "receiver",
							"type": "address"
						}
					],
					"name": "ERC721InvalidReceiver",
					"type": "error"
				},
				{
					"inputs": [
						{
							"internalType": "address",
							"name": "sender",
							"type": "address"
						}
					],
					"name": "ERC721InvalidSender",
					"type": "error"
				},
				{
					"inputs": [
						{
							"internalType": "uint16",
							"name": "nRegistrants",
							"type": "uint16"
						}
					],
					"name": "ERC721NoNewRegistrants",
					"type": "error"
				},
				{
					"inputs": [
						{
							"internalType": "uint256",
							"name": "tokenId",
							"type": "uint256"
						}
					],
					"name": "ERC721NonexistentToken",
					"type": "error"
				},
				{
					"inputs": [
						{
							"internalType": "uint16",
							"name": "token",
							"type": "uint16"
						}
					],
					"name": "Erc721InvalidTokenInNewTokenId",
					"type": "error"
				},
				{
					"inputs": [
						{
							"internalType": "uint16",
							"name": "total",
							"type": "uint16"
						}
					],
					"name": "Erc721InvalidTotalNewTokenId",
					"type": "error"
				},
				{
					"anonymous": false,
					"inputs": [
						{
							"indexed": true,
							"internalType": "address",
							"name": "owner",
							"type": "address"
						},
						{
							"indexed": true,
							"internalType": "address",
							"name": "approved",
							"type": "address"
						},
						{
							"indexed": true,
							"internalType": "uint16",
							"name": "tokenId",
							"type": "uint16"
						}
					],
					"name": "Approval",
					"type": "event"
				},
				{
					"anonymous": false,
					"inputs": [
						{
							"indexed": true,
							"internalType": "address",
							"name": "owner",
							"type": "address"
						},
						{
							"indexed": true,
							"internalType": "address",
							"name": "operator",
							"type": "address"
						},
						{
							"indexed": false,
							"internalType": "bool",
							"name": "approved",
							"type": "bool"
						}
					],
					"name": "ApprovalForAll",
					"type": "event"
				},
				{
					"anonymous": false,
					"inputs": [
						{
							"indexed": true,
							"internalType": "address",
							"name": "from",
							"type": "address"
						},
						{
							"indexed": true,
							"internalType": "address",
							"name": "to",
							"type": "address"
						},
						{
							"indexed": true,
							"internalType": "uint16",
							"name": "tokenId",
							"type": "uint16"
						}
					],
					"name": "Transfer",
					"type": "event"
				},
				{
					"anonymous": false,
					"inputs": [
						{
							"indexed": true,
							"internalType": "uint16",
							"name": "newmaxMint",
							"type": "uint16"
						},
						{
							"indexed": true,
							"internalType": "uint256",
							"name": "newregistrationStartTime",
							"type": "uint256"
						},
						{
							"indexed": false,
							"internalType": "address",
							"name": "newexecutor",
							"type": "address"
						},
						{
							"indexed": false,
							"internalType": "address",
							"name": "newbankAddress",
							"type": "address"
						},
						{
							"indexed": false,
							"internalType": "uint256",
							"name": "newmintPrice",
							"type": "uint256"
						}
					],
					"name": "updatemintInfo",
					"type": "event"
				},
				{
					"inputs": [
						{
							"internalType": "address",
							"name": "to",
							"type": "address"
						},
						{
							"internalType": "uint16",
							"name": "tokenId",
							"type": "uint16"
						}
					],
					"name": "approve",
					"outputs": [],
					"stateMutability": "nonpayable",
					"type": "function"
				},
				{
					"inputs": [
						{
							"internalType": "address",
							"name": "owner",
							"type": "address"
						}
					],
					"name": "balanceOf",
					"outputs": [
						{
							"internalType": "uint16",
							"name": "",
							"type": "uint16"
						}
					],
					"stateMutability": "view",
					"type": "function"
				},
				{
					"inputs": [
						{
							"internalType": "uint16",
							"name": "tokenId",
							"type": "uint16"
						}
					],
					"name": "getApproved",
					"outputs": [
						{
							"internalType": "address",
							"name": "",
							"type": "address"
						}
					],
					"stateMutability": "view",
					"type": "function"
				},
				{
					"inputs": [
						{
							"internalType": "address",
							"name": "",
							"type": "address"
						}
					],
					"name": "governoraccess",
					"outputs": [
						{
							"internalType": "bool",
							"name": "",
							"type": "bool"
						}
					],
					"stateMutability": "nonpayable",
					"type": "function"
				},
				{
					"inputs": [
						{
							"internalType": "address",
							"name": "owner",
							"type": "address"
						},
						{
							"internalType": "address",
							"name": "operator",
							"type": "address"
						}
					],
					"name": "isApprovedForAll",
					"outputs": [
						{
							"internalType": "bool",
							"name": "",
							"type": "bool"
						}
					],
					"stateMutability": "view",
					"type": "function"
				},
				{
					"inputs": [],
					"name": "mint",
					"outputs": [],
					"stateMutability": "nonpayable",
					"type": "function"
				},
				{
					"inputs": [],
					"name": "name",
					"outputs": [
						{
							"internalType": "bytes20",
							"name": "",
							"type": "bytes20"
						}
					],
					"stateMutability": "view",
					"type": "function"
				},
				{
					"inputs": [
						{
							"internalType": "address",
							"name": "operator",
							"type": "address"
						},
						{
							"internalType": "address",
							"name": "from",
							"type": "address"
						},
						{
							"internalType": "uint16",
							"name": "tokenId",
							"type": "uint16"
						},
						{
							"internalType": "bytes",
							"name": "data",
							"type": "bytes"
						}
					],
					"name": "onERC721Received",
					"outputs": [
						{
							"internalType": "bytes4",
							"name": "",
							"type": "bytes4"
						}
					],
					"stateMutability": "nonpayable",
					"type": "function"
				},
				{
					"inputs": [
						{
							"internalType": "uint16",
							"name": "tokenId",
							"type": "uint16"
						}
					],
					"name": "ownerOf",
					"outputs": [
						{
							"internalType": "address",
							"name": "",
							"type": "address"
						}
					],
					"stateMutability": "view",
					"type": "function"
				},
				{
					"inputs": [
						{
							"internalType": "address",
							"name": "from",
							"type": "address"
						},
						{
							"internalType": "address",
							"name": "to",
							"type": "address"
						},
						{
							"internalType": "uint16",
							"name": "tokenId",
							"type": "uint16"
						}
					],
					"name": "safeTransferFrom",
					"outputs": [],
					"stateMutability": "nonpayable",
					"type": "function"
				},
				{
					"inputs": [
						{
							"internalType": "address",
							"name": "from",
							"type": "address"
						},
						{
							"internalType": "address",
							"name": "to",
							"type": "address"
						},
						{
							"internalType": "uint16",
							"name": "tokenId",
							"type": "uint16"
						},
						{
							"internalType": "bytes",
							"name": "data",
							"type": "bytes"
						}
					],
					"name": "safeTransferFrom",
					"outputs": [],
					"stateMutability": "nonpayable",
					"type": "function"
				},
				{
					"inputs": [
						{
							"internalType": "address",
							"name": "operator",
							"type": "address"
						},
						{
							"internalType": "bool",
							"name": "approved",
							"type": "bool"
						}
					],
					"name": "setApprovalForAll",
					"outputs": [],
					"stateMutability": "nonpayable",
					"type": "function"
				},
				{
					"inputs": [
						{
							"internalType": "uint16",
							"name": "tokenId",
							"type": "uint16"
						},
						{
							"internalType": "bool",
							"name": "set_",
							"type": "bool"
						}
					],
					"name": "setBan",
					"outputs": [
						{
							"internalType": "bool",
							"name": "",
							"type": "bool"
						}
					],
					"stateMutability": "nonpayable",
					"type": "function"
				},
				{
					"inputs": [
						{
							"internalType": "uint48",
							"name": "salt_",
							"type": "uint48"
						}
					],
					"name": "setRegister",
					"outputs": [
						{
							"internalType": "bytes",
							"name": "",
							"type": "bytes"
						}
					],
					"stateMutability": "payable",
					"type": "function"
				},
				{
					"inputs": [],
					"name": "stateVoting",
					"outputs": [
						{
							"internalType": "bytes32",
							"name": "",
							"type": "bytes32"
						}
					],
					"stateMutability": "nonpayable",
					"type": "function"
				},
				{
					"inputs": [],
					"name": "symbol",
					"outputs": [
						{
							"internalType": "bytes10",
							"name": "",
							"type": "bytes10"
						}
					],
					"stateMutability": "view",
					"type": "function"
				},
				{
					"inputs": [
						{
							"internalType": "uint16",
							"name": "tokenId",
							"type": "uint16"
						}
					],
					"name": "tokenURI",
					"outputs": [
						{
							"internalType": "string",
							"name": "",
							"type": "string"
						}
					],
					"stateMutability": "view",
					"type": "function"
				},
				{
					"inputs": [
						{
							"internalType": "address",
							"name": "from",
							"type": "address"
						},
						{
							"internalType": "address",
							"name": "to",
							"type": "address"
						},
						{
							"internalType": "uint16",
							"name": "tokenId",
							"type": "uint16"
						}
					],
					"name": "transferFrom",
					"outputs": [],
					"stateMutability": "nonpayable",
					"type": "function"
				},
				{
					"inputs": [
						{
							"internalType": "uint16",
							"name": "newmaxMint",
							"type": "uint16"
						},
						{
							"internalType": "uint256",
							"name": "newregistrationStartTime",
							"type": "uint256"
						},
						{
							"internalType": "address",
							"name": "newexecutor",
							"type": "address"
						},
						{
							"internalType": "address",
							"name": "newbankAddress",
							"type": "address"
						},
						{
							"internalType": "uint256",
							"name": "newmintPrice",
							"type": "uint256"
						},
						{
							"internalType": "uint16[1201]",
							"name": "newTokenId",
							"type": "uint16[1201]"
						}
					],
					"name": "updateMintInfo",
					"outputs": [],
					"stateMutability": "nonpayable",
					"type": "function"
				}
			],
			"devdoc": {
				"errors": {
					"ERC721IncorrectOwner(address,uint256,address)": [
						{
							"details": "Indicates an error related to the ownership over a particular token. Used in transfers.",
							"params": {
								"owner": "Address of the current owner of a token.",
								"sender": "Address whose tokens are being transferred.",
								"tokenId": "Identifier number of a token."
							}
						}
					],
					"ERC721InsufficientApproval(address,uint256)": [
						{
							"details": "Indicates a failure with the `operator`’s approval. Used in transfers.",
							"params": {
								"operator": "Address that may be allowed to operate on tokens without being their owner.",
								"tokenId": "Identifier number of a token."
							}
						}
					],
					"ERC721InvalidApprover(address)": [
						{
							"details": "Indicates a failure with the `approver` of a token to be approved. Used in approvals.",
							"params": {
								"approver": "Address initiating an approval operation."
							}
						}
					],
					"ERC721InvalidOperator(address)": [
						{
							"details": "Indicates a failure with the `operator` to be approved. Used in approvals.",
							"params": {
								"operator": "Address that may be allowed to operate on tokens without being their owner."
							}
						}
					],
					"ERC721InvalidOwner(address)": [
						{
							"details": "Indicates that an address can't be an owner. For example, `address(0)` is a forbidden owner in EIP-20. Used in balance queries.",
							"params": {
								"owner": "Address of the current owner of a token."
							}
						}
					],
					"ERC721InvalidReceiver(address)": [
						{
							"details": "Indicates a failure with the token `receiver`. Used in transfers.",
							"params": {
								"receiver": "Address to which tokens are being transferred."
							}
						}
					],
					"ERC721InvalidSender(address)": [
						{
							"details": "Indicates a failure with the token `sender`. Used in transfers.",
							"params": {
								"sender": "Address whose tokens are being transferred."
							}
						}
					],
					"ERC721NonexistentToken(uint256)": [
						{
							"details": "Indicates a `tokenId` whose `owner` is the zero address.",
							"params": {
								"tokenId": "Identifier number of a token."
							}
						}
					]
				},
				"kind": "dev",
				"methods": {
					"onERC721Received(address,address,uint16,bytes)": {
						"details": "Whenever an {IERC721} `tokenId` token is transferred to this contract via {IERC721-safeTransferFrom} by `operator` from `from`, this function is called. It must return its Solidity selector to confirm the token transfer. If any other value is returned or the interface is not implemented by the recipient, the transfer will be reverted. The selector can be obtained in Solidity with `IERC721Receiver.onERC721Received.selector`."
					}
				},
				"version": 1
			},
			"evm": {
				"assembly": "    /* \"contracts/ERC721TokenContractName.sol\":400:12828  contract ERC721TokenContractName is Context, IERC721Errors, IERC721TCNReceiver {... */\n  mstore(0x40, 0x80)\n    /* \"contracts/ERC721TokenContractName.sol\":1999:2146  constructor(bytes20 name_, bytes10 symbol_) {... */\n  callvalue\n  dup1\n  iszero\n  tag_1\n  jumpi\n  0x00\n  dup1\n  revert\ntag_1:\n  pop\n  mload(0x40)\n  sub(codesize, bytecodeSize)\n  dup1\n  bytecodeSize\n  dup4\n  codecopy\n  dup2\n  dup2\n  add\n  0x40\n  mstore\n  dup2\n  add\n  swap1\n  tag_2\n  swap2\n  swap1\n  tag_3\n  jump\t// in\ntag_2:\n    /* \"contracts/ERC721TokenContractName.sol\":2062:2067  name_ */\n  dup2\n    /* \"contracts/ERC721TokenContractName.sol\":2054:2059  _name */\n  0x00\n  dup1\n    /* \"contracts/ERC721TokenContractName.sol\":2054:2067  _name = name_ */\n  0x0100\n  exp\n  dup2\n  sload\n  dup2\n  0xffffffffffffffffffffffffffffffffffffffff\n  mul\n  not\n  and\n  swap1\n  dup4\n  0x60\n  shr\n  mul\n  or\n  swap1\n  sstore\n  pop\n    /* \"contracts/ERC721TokenContractName.sol\":2088:2095  symbol_ */\n  dup1\n    /* \"contracts/ERC721TokenContractName.sol\":2078:2085  _symbol */\n  0x00\n  0x14\n    /* \"contracts/ERC721TokenContractName.sol\":2078:2095  _symbol = symbol_ */\n  0x0100\n  exp\n  dup2\n  sload\n  dup2\n  0xffffffffffffffffffff\n  mul\n  not\n  and\n  swap1\n  dup4\n  0xb0\n  shr\n  mul\n  or\n  swap1\n  sstore\n  pop\n    /* \"contracts/ERC721TokenContractName.sol\":2126:2138  _msgSender() */\n  tag_6\n    /* \"contracts/ERC721TokenContractName.sol\":2126:2136  _msgSender */\n  shl(0x20, tag_7)\n    /* \"contracts/ERC721TokenContractName.sol\":2126:2138  _msgSender() */\n  0x20\n  shr\n  jump\t// in\ntag_6:\n    /* \"contracts/ERC721TokenContractName.sol\":2106:2114  mintInfo */\n  0x01\n    /* \"contracts/ERC721TokenContractName.sol\":2106:2123  mintInfo.executor */\n  0x00\n  add\n  0x06\n    /* \"contracts/ERC721TokenContractName.sol\":2106:2138  mintInfo.executor = _msgSender() */\n  0x0100\n  exp\n  dup2\n  sload\n  dup2\n  0xffffffffffffffffffffffffffffffffffffffff\n  mul\n  not\n  and\n  swap1\n  dup4\n  0xffffffffffffffffffffffffffffffffffffffff\n  and\n  mul\n  or\n  swap1\n  sstore\n  pop\n    /* \"contracts/ERC721TokenContractName.sol\":1999:2146  constructor(bytes20 name_, bytes10 symbol_) {... */\n  pop\n  pop\n    /* \"contracts/ERC721TokenContractName.sol\":400:12828  contract ERC721TokenContractName is Context, IERC721Errors, IERC721TCNReceiver {... */\n  jump(tag_8)\n    /* \"@openzeppelin/contracts/utils/Context.sol\":656:752  function _msgSender() internal view virtual returns (address) {... */\ntag_7:\n    /* \"@openzeppelin/contracts/utils/Context.sol\":709:716  address */\n  0x00\n    /* \"@openzeppelin/contracts/utils/Context.sol\":735:745  msg.sender */\n  caller\n    /* \"@openzeppelin/contracts/utils/Context.sol\":728:745  return msg.sender */\n  swap1\n  pop\n    /* \"@openzeppelin/contracts/utils/Context.sol\":656:752  function _msgSender() internal view virtual returns (address) {... */\n  swap1\n  jump\t// out\n    /* \"#utility.yul\":88:205   */\ntag_11:\n    /* \"#utility.yul\":197:198   */\n  0x00\n    /* \"#utility.yul\":194:195   */\n  dup1\n    /* \"#utility.yul\":187:199   */\n  revert\n    /* \"#utility.yul\":334:484   */\ntag_13:\n    /* \"#utility.yul\":371:378   */\n  0x00\n    /* \"#utility.yul\":411:477   */\n  0xffffffffffffffffffffffffffffffffffffffff000000000000000000000000\n    /* \"#utility.yul\":404:409   */\n  dup3\n    /* \"#utility.yul\":400:478   */\n  and\n    /* \"#utility.yul\":389:478   */\n  swap1\n  pop\n    /* \"#utility.yul\":334:484   */\n  swap2\n  swap1\n  pop\n  jump\t// out\n    /* \"#utility.yul\":490:612   */\ntag_14:\n    /* \"#utility.yul\":563:587   */\n  tag_25\n    /* \"#utility.yul\":581:586   */\n  dup2\n    /* \"#utility.yul\":563:587   */\n  tag_13\n  jump\t// in\ntag_25:\n    /* \"#utility.yul\":556:561   */\n  dup2\n    /* \"#utility.yul\":553:588   */\n  eq\n    /* \"#utility.yul\":543:606   */\n  tag_26\n  jumpi\n    /* \"#utility.yul\":602:603   */\n  0x00\n    /* \"#utility.yul\":599:600   */\n  dup1\n    /* \"#utility.yul\":592:604   */\n  revert\n    /* \"#utility.yul\":543:606   */\ntag_26:\n    /* \"#utility.yul\":490:612   */\n  pop\n  jump\t// out\n    /* \"#utility.yul\":618:761   */\ntag_15:\n    /* \"#utility.yul\":675:680   */\n  0x00\n    /* \"#utility.yul\":706:712   */\n  dup2\n    /* \"#utility.yul\":700:713   */\n  mload\n    /* \"#utility.yul\":691:713   */\n  swap1\n  pop\n    /* \"#utility.yul\":722:755   */\n  tag_28\n    /* \"#utility.yul\":749:754   */\n  dup2\n    /* \"#utility.yul\":722:755   */\n  tag_14\n  jump\t// in\ntag_28:\n    /* \"#utility.yul\":618:761   */\n  swap3\n  swap2\n  pop\n  pop\n  jump\t// out\n    /* \"#utility.yul\":767:917   */\ntag_16:\n    /* \"#utility.yul\":804:811   */\n  0x00\n    /* \"#utility.yul\":844:910   */\n  0xffffffffffffffffffff00000000000000000000000000000000000000000000\n    /* \"#utility.yul\":837:842   */\n  dup3\n    /* \"#utility.yul\":833:911   */\n  and\n    /* \"#utility.yul\":822:911   */\n  swap1\n  pop\n    /* \"#utility.yul\":767:917   */\n  swap2\n  swap1\n  pop\n  jump\t// out\n    /* \"#utility.yul\":923:1045   */\ntag_17:\n    /* \"#utility.yul\":996:1020   */\n  tag_31\n    /* \"#utility.yul\":1014:1019   */\n  dup2\n    /* \"#utility.yul\":996:1020   */\n  tag_16\n  jump\t// in\ntag_31:\n    /* \"#utility.yul\":989:994   */\n  dup2\n    /* \"#utility.yul\":986:1021   */\n  eq\n    /* \"#utility.yul\":976:1039   */\n  tag_32\n  jumpi\n    /* \"#utility.yul\":1035:1036   */\n  0x00\n    /* \"#utility.yul\":1032:1033   */\n  dup1\n    /* \"#utility.yul\":1025:1037   */\n  revert\n    /* \"#utility.yul\":976:1039   */\ntag_32:\n    /* \"#utility.yul\":923:1045   */\n  pop\n  jump\t// out\n    /* \"#utility.yul\":1051:1194   */\ntag_18:\n    /* \"#utility.yul\":1108:1113   */\n  0x00\n    /* \"#utility.yul\":1139:1145   */\n  dup2\n    /* \"#utility.yul\":1133:1146   */\n  mload\n    /* \"#utility.yul\":1124:1146   */\n  swap1\n  pop\n    /* \"#utility.yul\":1155:1188   */\n  tag_34\n    /* \"#utility.yul\":1182:1187   */\n  dup2\n    /* \"#utility.yul\":1155:1188   */\n  tag_17\n  jump\t// in\ntag_34:\n    /* \"#utility.yul\":1051:1194   */\n  swap3\n  swap2\n  pop\n  pop\n  jump\t// out\n    /* \"#utility.yul\":1200:1707   */\ntag_3:\n    /* \"#utility.yul\":1279:1285   */\n  0x00\n    /* \"#utility.yul\":1287:1293   */\n  dup1\n    /* \"#utility.yul\":1336:1338   */\n  0x40\n    /* \"#utility.yul\":1324:1333   */\n  dup4\n    /* \"#utility.yul\":1315:1322   */\n  dup6\n    /* \"#utility.yul\":1311:1334   */\n  sub\n    /* \"#utility.yul\":1307:1339   */\n  slt\n    /* \"#utility.yul\":1304:1423   */\n  iszero\n  tag_36\n  jumpi\n    /* \"#utility.yul\":1342:1421   */\n  tag_37\n  tag_11\n  jump\t// in\ntag_37:\n    /* \"#utility.yul\":1304:1423   */\ntag_36:\n    /* \"#utility.yul\":1462:1463   */\n  0x00\n    /* \"#utility.yul\":1487:1551   */\n  tag_38\n    /* \"#utility.yul\":1543:1550   */\n  dup6\n    /* \"#utility.yul\":1534:1540   */\n  dup3\n    /* \"#utility.yul\":1523:1532   */\n  dup7\n    /* \"#utility.yul\":1519:1541   */\n  add\n    /* \"#utility.yul\":1487:1551   */\n  tag_15\n  jump\t// in\ntag_38:\n    /* \"#utility.yul\":1477:1551   */\n  swap3\n  pop\n    /* \"#utility.yul\":1433:1561   */\n  pop\n    /* \"#utility.yul\":1600:1602   */\n  0x20\n    /* \"#utility.yul\":1626:1690   */\n  tag_39\n    /* \"#utility.yul\":1682:1689   */\n  dup6\n    /* \"#utility.yul\":1673:1679   */\n  dup3\n    /* \"#utility.yul\":1662:1671   */\n  dup7\n    /* \"#utility.yul\":1658:1680   */\n  add\n    /* \"#utility.yul\":1626:1690   */\n  tag_18\n  jump\t// in\ntag_39:\n    /* \"#utility.yul\":1616:1690   */\n  swap2\n  pop\n    /* \"#utility.yul\":1571:1700   */\n  pop\n    /* \"#utility.yul\":1200:1707   */\n  swap3\n  pop\n  swap3\n  swap1\n  pop\n  jump\t// out\n    /* \"contracts/ERC721TokenContractName.sol\":400:12828  contract ERC721TokenContractName is Context, IERC721Errors, IERC721TCNReceiver {... */\ntag_8:\n  dataSize(sub_0)\n  dup1\n  dataOffset(sub_0)\n  0x00\n  codecopy\n  0x00\n  return\nstop\n\nsub_0: assembly {\n        /* \"contracts/ERC721TokenContractName.sol\":400:12828  contract ERC721TokenContractName is Context, IERC721Errors, IERC721TCNReceiver {... */\n      mstore(0x40, 0x80)\n      jumpi(tag_1, lt(calldatasize, 0x04))\n      shr(0xe0, calldataload(0x00))\n      dup1\n      0x93b871f2\n      gt\n      tag_21\n      jumpi\n      dup1\n      0xd5ebe3df\n      gt\n      tag_22\n      jumpi\n      dup1\n      0xd5ebe3df\n      eq\n      tag_16\n      jumpi\n      dup1\n      0xdd7d8440\n      eq\n      tag_17\n      jumpi\n      dup1\n      0xe560ca43\n      eq\n      tag_18\n      jumpi\n      dup1\n      0xe985e9c5\n      eq\n      tag_19\n      jumpi\n      dup1\n      0xf12c2c7a\n      eq\n      tag_20\n      jumpi\n      jump(tag_1)\n    tag_22:\n      dup1\n      0x93b871f2\n      eq\n      tag_11\n      jumpi\n      dup1\n      0x95d89b41\n      eq\n      tag_12\n      jumpi\n      dup1\n      0xa22cb465\n      eq\n      tag_13\n      jumpi\n      dup1\n      0xb145ae31\n      eq\n      tag_14\n      jumpi\n      dup1\n      0xb1cff380\n      eq\n      tag_15\n      jumpi\n      jump(tag_1)\n    tag_21:\n      dup1\n      0x3610feb3\n      gt\n      tag_23\n      jumpi\n      dup1\n      0x3610feb3\n      eq\n      tag_6\n      jumpi\n      dup1\n      0x4ec3dcfe\n      eq\n      tag_7\n      jumpi\n      dup1\n      0x6e1514f1\n      eq\n      tag_8\n      jumpi\n      dup1\n      0x70a08231\n      eq\n      tag_9\n      jumpi\n      dup1\n      0x82a7cf1e\n      eq\n      tag_10\n      jumpi\n      jump(tag_1)\n    tag_23:\n      dup1\n      0x06fdde03\n      eq\n      tag_2\n      jumpi\n      dup1\n      0x07394401\n      eq\n      tag_3\n      jumpi\n      dup1\n      0x0ab5b8cd\n      eq\n      tag_4\n      jumpi\n      dup1\n      0x1249c58b\n      eq\n      tag_5\n      jumpi\n    tag_1:\n      0x00\n      dup1\n      revert\n        /* \"contracts/ERC721TokenContractName.sol\":2156:2233  function name() public view returns (bytes20) {... */\n    tag_2:\n      callvalue\n      dup1\n      iszero\n      tag_24\n      jumpi\n      0x00\n      dup1\n      revert\n    tag_24:\n      pop\n      tag_25\n      tag_26\n      jump\t// in\n    tag_25:\n      mload(0x40)\n      tag_27\n      swap2\n      swap1\n      tag_28\n      jump\t// in\n    tag_27:\n      mload(0x40)\n      dup1\n      swap2\n      sub\n      swap1\n      return\n        /* \"contracts/ERC721TokenContractName.sol\":5064:5197  function safeTransferFrom(address from, address to, uint16 tokenId) public {... */\n    tag_3:\n      callvalue\n      dup1\n      iszero\n      tag_29\n      jumpi\n      0x00\n      dup1\n      revert\n    tag_29:\n      pop\n      tag_30\n      0x04\n      dup1\n      calldatasize\n      sub\n      dup2\n      add\n      swap1\n      tag_31\n      swap2\n      swap1\n      tag_32\n      jump\t// in\n    tag_31:\n      tag_33\n      jump\t// in\n    tag_30:\n      stop\n        /* \"contracts/ERC721TokenContractName.sol\":5425:6765  function updateMintInfo(... */\n    tag_4:\n      callvalue\n      dup1\n      iszero\n      tag_34\n      jumpi\n      0x00\n      dup1\n      revert\n    tag_34:\n      pop\n      tag_35\n      0x04\n      dup1\n      calldatasize\n      sub\n      dup2\n      add\n      swap1\n      tag_36\n      swap2\n      swap1\n      tag_37\n      jump\t// in\n    tag_36:\n      tag_38\n      jump\t// in\n    tag_35:\n      stop\n        /* \"contracts/ERC721TokenContractName.sol\":7708:9320  function mint() public {... */\n    tag_5:\n      callvalue\n      dup1\n      iszero\n      tag_39\n      jumpi\n      0x00\n      dup1\n      revert\n    tag_39:\n      pop\n      tag_40\n      tag_41\n      jump\t// in\n    tag_40:\n      stop\n        /* \"contracts/ERC721TokenContractName.sol\":12725:12791  function governoraccess (address) public returns (bool) {... */\n    tag_6:\n      callvalue\n      dup1\n      iszero\n      tag_42\n      jumpi\n      0x00\n      dup1\n      revert\n    tag_42:\n      pop\n      tag_43\n      0x04\n      dup1\n      calldatasize\n      sub\n      dup2\n      add\n      swap1\n      tag_44\n      swap2\n      swap1\n      tag_45\n      jump\t// in\n    tag_44:\n      tag_46\n      jump\t// in\n    tag_43:\n      mload(0x40)\n      tag_47\n      swap2\n      swap1\n      tag_48\n      jump\t// in\n    tag_47:\n      mload(0x40)\n      dup1\n      swap2\n      sub\n      swap1\n      return\n        /* \"contracts/ERC721TokenContractName.sol\":4059:5056  function transferFrom(address from, address to, uint16 tokenId) public virtual {... */\n    tag_7:\n      callvalue\n      dup1\n      iszero\n      tag_49\n      jumpi\n      0x00\n      dup1\n      revert\n    tag_49:\n      pop\n      tag_50\n      0x04\n      dup1\n      calldatasize\n      sub\n      dup2\n      add\n      swap1\n      tag_51\n      swap2\n      swap1\n      tag_32\n      jump\t// in\n    tag_51:\n      tag_52\n      jump\t// in\n    tag_50:\n      stop\n        /* \"contracts/ERC721TokenContractName.sol\":12636:12693  function stateVoting() public returns(bytes32) {... */\n    tag_8:\n      callvalue\n      dup1\n      iszero\n      tag_53\n      jumpi\n      0x00\n      dup1\n      revert\n    tag_53:\n      pop\n      tag_54\n      tag_55\n      jump\t// in\n    tag_54:\n      mload(0x40)\n      tag_56\n      swap2\n      swap1\n      tag_57\n      jump\t// in\n    tag_56:\n      mload(0x40)\n      dup1\n      swap2\n      sub\n      swap1\n      return\n        /* \"contracts/ERC721TokenContractName.sol\":2334:2523  function balanceOf(address owner) public view returns (uint16) {... */\n    tag_9:\n      callvalue\n      dup1\n      iszero\n      tag_58\n      jumpi\n      0x00\n      dup1\n      revert\n    tag_58:\n      pop\n      tag_59\n      0x04\n      dup1\n      calldatasize\n      sub\n      dup2\n      add\n      swap1\n      tag_60\n      swap2\n      swap1\n      tag_45\n      jump\t// in\n    tag_60:\n      tag_61\n      jump\t// in\n    tag_59:\n      mload(0x40)\n      tag_62\n      swap2\n      swap1\n      tag_63\n      jump\t// in\n    tag_62:\n      mload(0x40)\n      dup1\n      swap2\n      sub\n      swap1\n      return\n        /* \"contracts/ERC721TokenContractName.sol\":2533:2644  function ownerOf(uint16 tokenId) public view returns (address) {... */\n    tag_10:\n      callvalue\n      dup1\n      iszero\n      tag_64\n      jumpi\n      0x00\n      dup1\n      revert\n    tag_64:\n      pop\n      tag_65\n      0x04\n      dup1\n      calldatasize\n      sub\n      dup2\n      add\n      swap1\n      tag_66\n      swap2\n      swap1\n      tag_67\n      jump\t// in\n    tag_66:\n      tag_68\n      jump\t// in\n    tag_65:\n      mload(0x40)\n      tag_69\n      swap2\n      swap1\n      tag_70\n      jump\t// in\n    tag_69:\n      mload(0x40)\n      dup1\n      swap2\n      sub\n      swap1\n      return\n        /* \"contracts/ERC721TokenContractName.sol\":3300:3460  function getApproved(uint16 tokenId) public view virtual returns (address) {... */\n    tag_11:\n      callvalue\n      dup1\n      iszero\n      tag_71\n      jumpi\n      0x00\n      dup1\n      revert\n    tag_71:\n      pop\n      tag_72\n      0x04\n      dup1\n      calldatasize\n      sub\n      dup2\n      add\n      swap1\n      tag_73\n      swap2\n      swap1\n      tag_67\n      jump\t// in\n    tag_73:\n      tag_74\n      jump\t// in\n    tag_72:\n      mload(0x40)\n      tag_75\n      swap2\n      swap1\n      tag_70\n      jump\t// in\n    tag_75:\n      mload(0x40)\n      dup1\n      swap2\n      sub\n      swap1\n      return\n        /* \"contracts/ERC721TokenContractName.sol\":2243:2324  function symbol() public view returns (bytes10) {... */\n    tag_12:\n      callvalue\n      dup1\n      iszero\n      tag_76\n      jumpi\n      0x00\n      dup1\n      revert\n    tag_76:\n      pop\n      tag_77\n      tag_78\n      jump\t// in\n    tag_77:\n      mload(0x40)\n      tag_79\n      swap2\n      swap1\n      tag_80\n      jump\t// in\n    tag_79:\n      mload(0x40)\n      dup1\n      swap2\n      sub\n      swap1\n      return\n        /* \"contracts/ERC721TokenContractName.sol\":3468:3894  function setApprovalForAll(address operator, bool approved) public {... */\n    tag_13:\n      callvalue\n      dup1\n      iszero\n      tag_81\n      jumpi\n      0x00\n      dup1\n      revert\n    tag_81:\n      pop\n      tag_82\n      0x04\n      dup1\n      calldatasize\n      sub\n      dup2\n      add\n      swap1\n      tag_83\n      swap2\n      swap1\n      tag_84\n      jump\t// in\n    tag_83:\n      tag_85\n      jump\t// in\n    tag_82:\n      stop\n        /* \"contracts/ERC721TokenContractName.sol\":5205:5415  function safeTransferFrom(address from, address to, uint16 tokenId, bytes memory data) public virtual {... */\n    tag_14:\n      callvalue\n      dup1\n      iszero\n      tag_86\n      jumpi\n      0x00\n      dup1\n      revert\n    tag_86:\n      pop\n      tag_87\n      0x04\n      dup1\n      calldatasize\n      sub\n      dup2\n      add\n      swap1\n      tag_88\n      swap2\n      swap1\n      tag_89\n      jump\t// in\n    tag_88:\n      tag_90\n      jump\t// in\n    tag_87:\n      stop\n        /* \"contracts/ERC721TokenContractName.sol\":12365:12530  function onERC721Received(... */\n    tag_15:\n      callvalue\n      dup1\n      iszero\n      tag_91\n      jumpi\n      0x00\n      dup1\n      revert\n    tag_91:\n      pop\n      tag_92\n      0x04\n      dup1\n      calldatasize\n      sub\n      dup2\n      add\n      swap1\n      tag_93\n      swap2\n      swap1\n      tag_94\n      jump\t// in\n    tag_93:\n      tag_95\n      jump\t// in\n    tag_92:\n      mload(0x40)\n      tag_96\n      swap2\n      swap1\n      tag_97\n      jump\t// in\n    tag_96:\n      mload(0x40)\n      dup1\n      swap2\n      sub\n      swap1\n      return\n        /* \"contracts/ERC721TokenContractName.sol\":6773:7700  function setRegister(uint48 salt_) public payable returns (bytes memory) { // accsesemit barash benevis baraye tasir gozari dar dastresi... */\n    tag_16:\n      tag_98\n      0x04\n      dup1\n      calldatasize\n      sub\n      dup2\n      add\n      swap1\n      tag_99\n      swap2\n      swap1\n      tag_100\n      jump\t// in\n    tag_99:\n      tag_101\n      jump\t// in\n    tag_98:\n      mload(0x40)\n      tag_102\n      swap2\n      swap1\n      tag_103\n      jump\t// in\n    tag_102:\n      mload(0x40)\n      dup1\n      swap2\n      sub\n      swap1\n      return\n        /* \"contracts/ERC721TokenContractName.sol\":2654:2894  function tokenURI(uint16 tokenId) public view returns (string memory) {... */\n    tag_17:\n      callvalue\n      dup1\n      iszero\n      tag_104\n      jumpi\n      0x00\n      dup1\n      revert\n    tag_104:\n      pop\n      tag_105\n      0x04\n      dup1\n      calldatasize\n      sub\n      dup2\n      add\n      swap1\n      tag_106\n      swap2\n      swap1\n      tag_67\n      jump\t// in\n    tag_106:\n      tag_107\n      jump\t// in\n    tag_105:\n      mload(0x40)\n      tag_108\n      swap2\n      swap1\n      tag_109\n      jump\t// in\n    tag_108:\n      mload(0x40)\n      dup1\n      swap2\n      sub\n      swap1\n      return\n        /* \"contracts/ERC721TokenContractName.sol\":2904:3292  function approve(address to, uint16 tokenId) public {... */\n    tag_18:\n      callvalue\n      dup1\n      iszero\n      tag_110\n      jumpi\n      0x00\n      dup1\n      revert\n    tag_110:\n      pop\n      tag_111\n      0x04\n      dup1\n      calldatasize\n      sub\n      dup2\n      add\n      swap1\n      tag_112\n      swap2\n      swap1\n      tag_113\n      jump\t// in\n    tag_112:\n      tag_114\n      jump\t// in\n    tag_111:\n      stop\n        /* \"contracts/ERC721TokenContractName.sol\":3904:4051  function isApprovedForAll(address owner, address operator) public view returns (bool) {... */\n    tag_19:\n      callvalue\n      dup1\n      iszero\n      tag_115\n      jumpi\n      0x00\n      dup1\n      revert\n    tag_115:\n      pop\n      tag_116\n      0x04\n      dup1\n      calldatasize\n      sub\n      dup2\n      add\n      swap1\n      tag_117\n      swap2\n      swap1\n      tag_118\n      jump\t// in\n    tag_117:\n      tag_119\n      jump\t// in\n    tag_116:\n      mload(0x40)\n      tag_120\n      swap2\n      swap1\n      tag_48\n      jump\t// in\n    tag_120:\n      mload(0x40)\n      dup1\n      swap2\n      sub\n      swap1\n      return\n        /* \"contracts/ERC721TokenContractName.sol\":9328:9787  function setBan(uint16 tokenId, bool set_) public returns (bool) {... */\n    tag_20:\n      callvalue\n      dup1\n      iszero\n      tag_121\n      jumpi\n      0x00\n      dup1\n      revert\n    tag_121:\n      pop\n      tag_122\n      0x04\n      dup1\n      calldatasize\n      sub\n      dup2\n      add\n      swap1\n      tag_123\n      swap2\n      swap1\n      tag_124\n      jump\t// in\n    tag_123:\n      tag_125\n      jump\t// in\n    tag_122:\n      mload(0x40)\n      tag_126\n      swap2\n      swap1\n      tag_48\n      jump\t// in\n    tag_126:\n      mload(0x40)\n      dup1\n      swap2\n      sub\n      swap1\n      return\n        /* \"contracts/ERC721TokenContractName.sol\":2156:2233  function name() public view returns (bytes20) {... */\n    tag_26:\n        /* \"contracts/ERC721TokenContractName.sol\":2193:2200  bytes20 */\n      0x00\n        /* \"contracts/ERC721TokenContractName.sol\":2220:2225  _name */\n      dup1\n      0x00\n      swap1\n      sload\n      swap1\n      0x0100\n      exp\n      swap1\n      div\n      0x60\n      shl\n        /* \"contracts/ERC721TokenContractName.sol\":2213:2225  return _name */\n      swap1\n      pop\n        /* \"contracts/ERC721TokenContractName.sol\":2156:2233  function name() public view returns (bytes20) {... */\n      swap1\n      jump\t// out\n        /* \"contracts/ERC721TokenContractName.sol\":5064:5197  function safeTransferFrom(address from, address to, uint16 tokenId) public {... */\n    tag_33:\n        /* \"contracts/ERC721TokenContractName.sol\":5150:5189  safeTransferFrom(from, to, tokenId, \"\") */\n      tag_129\n        /* \"contracts/ERC721TokenContractName.sol\":5167:5171  from */\n      dup4\n        /* \"contracts/ERC721TokenContractName.sol\":5173:5175  to */\n      dup4\n        /* \"contracts/ERC721TokenContractName.sol\":5177:5184  tokenId */\n      dup4\n        /* \"contracts/ERC721TokenContractName.sol\":5150:5189  safeTransferFrom(from, to, tokenId, \"\") */\n      mload(0x40)\n      dup1\n      0x20\n      add\n      0x40\n      mstore\n      dup1\n      0x00\n      dup2\n      mstore\n      pop\n        /* \"contracts/ERC721TokenContractName.sol\":5150:5166  safeTransferFrom */\n      tag_90\n        /* \"contracts/ERC721TokenContractName.sol\":5150:5189  safeTransferFrom(from, to, tokenId, \"\") */\n      jump\t// in\n    tag_129:\n        /* \"contracts/ERC721TokenContractName.sol\":5064:5197  function safeTransferFrom(address from, address to, uint16 tokenId) public {... */\n      pop\n      pop\n      pop\n      jump\t// out\n        /* \"contracts/ERC721TokenContractName.sol\":5425:6765  function updateMintInfo(... */\n    tag_38:\n        /* \"contracts/ERC721TokenContractName.sol\":5676:5684  mintInfo */\n      0x01\n        /* \"contracts/ERC721TokenContractName.sol\":5676:5693  mintInfo.executor */\n      0x00\n      add\n      0x06\n      swap1\n      sload\n      swap1\n      0x0100\n      exp\n      swap1\n      div\n      0xffffffffffffffffffffffffffffffffffffffff\n      and\n        /* \"contracts/ERC721TokenContractName.sol\":5660:5693  _msgSender() == mintInfo.executor */\n      0xffffffffffffffffffffffffffffffffffffffff\n      and\n        /* \"contracts/ERC721TokenContractName.sol\":5660:5672  _msgSender() */\n      tag_131\n        /* \"contracts/ERC721TokenContractName.sol\":5660:5670  _msgSender */\n      tag_132\n        /* \"contracts/ERC721TokenContractName.sol\":5660:5672  _msgSender() */\n      jump\t// in\n    tag_131:\n        /* \"contracts/ERC721TokenContractName.sol\":5660:5693  _msgSender() == mintInfo.executor */\n      0xffffffffffffffffffffffffffffffffffffffff\n      and\n      eq\n        /* \"contracts/ERC721TokenContractName.sol\":5652:5737  require(_msgSender() == mintInfo.executor, \"You do not have access to this function\") */\n      tag_133\n      jumpi\n      mload(0x40)\n      0x08c379a000000000000000000000000000000000000000000000000000000000\n      dup2\n      mstore\n      0x04\n      add\n      tag_134\n      swap1\n      tag_135\n      jump\t// in\n    tag_134:\n      mload(0x40)\n      dup1\n      swap2\n      sub\n      swap1\n      revert\n    tag_133:\n        /* \"contracts/ERC721TokenContractName.sol\":5769:5777  mintInfo */\n      0x01\n        /* \"contracts/ERC721TokenContractName.sol\":5769:5790  mintInfo.nRegistrants */\n      0x00\n      add\n      0x04\n      swap1\n      sload\n      swap1\n      0x0100\n      exp\n      swap1\n      div\n      0xffff\n      and\n        /* \"contracts/ERC721TokenContractName.sol\":5756:5790  newmaxMint > mintInfo.nRegistrants */\n      0xffff\n      and\n        /* \"contracts/ERC721TokenContractName.sol\":5756:5766  newmaxMint */\n      dup7\n        /* \"contracts/ERC721TokenContractName.sol\":5756:5790  newmaxMint > mintInfo.nRegistrants */\n      0xffff\n      and\n      gt\n        /* \"contracts/ERC721TokenContractName.sol\":5756:5837  newmaxMint > mintInfo.nRegistrants && newregistrationStartTime >= block.timestamp */\n      dup1\n      iszero\n      tag_136\n      jumpi\n      pop\n        /* \"contracts/ERC721TokenContractName.sol\":5822:5837  block.timestamp */\n      timestamp\n        /* \"contracts/ERC721TokenContractName.sol\":5794:5818  newregistrationStartTime */\n      dup6\n        /* \"contracts/ERC721TokenContractName.sol\":5794:5837  newregistrationStartTime >= block.timestamp */\n      lt\n      iszero\n        /* \"contracts/ERC721TokenContractName.sol\":5756:5837  newmaxMint > mintInfo.nRegistrants && newregistrationStartTime >= block.timestamp */\n    tag_136:\n        /* \"contracts/ERC721TokenContractName.sol\":5748:5883  require(newmaxMint > mintInfo.nRegistrants && newregistrationStartTime >= block.timestamp, \"The entered parameters are not acceptable\") */\n      tag_137\n      jumpi\n      mload(0x40)\n      0x08c379a000000000000000000000000000000000000000000000000000000000\n      dup2\n      mstore\n      0x04\n      add\n      tag_138\n      swap1\n      tag_139\n      jump\t// in\n    tag_138:\n      mload(0x40)\n      dup1\n      swap2\n      sub\n      swap1\n      revert\n    tag_137:\n        /* \"contracts/ERC721TokenContractName.sol\":5939:5949  newTokenId */\n      dup1\n        /* \"contracts/ERC721TokenContractName.sol\":5950:5951  0 */\n      0x00\n        /* \"contracts/ERC721TokenContractName.sol\":5939:5952  newTokenId[0] */\n      0x04b1\n      dup2\n      lt\n      tag_140\n      jumpi\n      tag_141\n      tag_142\n      jump\t// in\n    tag_141:\n    tag_140:\n      0x20\n      mul\n      add\n      mload\n        /* \"contracts/ERC721TokenContractName.sol\":5898:5952  (newmaxMint - mintInfo.currentTokens) != newTokenId[0] */\n      0xffff\n      and\n        /* \"contracts/ERC721TokenContractName.sol\":5912:5920  mintInfo */\n      0x01\n        /* \"contracts/ERC721TokenContractName.sol\":5912:5934  mintInfo.currentTokens */\n      0x00\n      add\n      0x02\n      swap1\n      sload\n      swap1\n      0x0100\n      exp\n      swap1\n      div\n      0xffff\n      and\n        /* \"contracts/ERC721TokenContractName.sol\":5899:5909  newmaxMint */\n      dup8\n        /* \"contracts/ERC721TokenContractName.sol\":5899:5934  newmaxMint - mintInfo.currentTokens */\n      tag_143\n      swap2\n      swap1\n      tag_144\n      jump\t// in\n    tag_143:\n        /* \"contracts/ERC721TokenContractName.sol\":5898:5952  (newmaxMint - mintInfo.currentTokens) != newTokenId[0] */\n      0xffff\n      and\n      eq\n        /* \"contracts/ERC721TokenContractName.sol\":5894:6031  if ((newmaxMint - mintInfo.currentTokens) != newTokenId[0]) {... */\n      tag_145\n      jumpi\n        /* \"contracts/ERC721TokenContractName.sol\":6005:6015  newTokenId */\n      dup1\n        /* \"contracts/ERC721TokenContractName.sol\":6016:6017  0 */\n      0x00\n        /* \"contracts/ERC721TokenContractName.sol\":6005:6018  newTokenId[0] */\n      0x04b1\n      dup2\n      lt\n      tag_146\n      jumpi\n      tag_147\n      tag_142\n      jump\t// in\n    tag_147:\n    tag_146:\n      0x20\n      mul\n      add\n      mload\n        /* \"contracts/ERC721TokenContractName.sol\":5976:6019  Erc721InvalidTotalNewTokenId(newTokenId[0]) */\n      mload(0x40)\n      0xca70e27000000000000000000000000000000000000000000000000000000000\n      dup2\n      mstore\n      0x04\n      add\n      tag_148\n      swap2\n      swap1\n      tag_63\n      jump\t// in\n    tag_148:\n      mload(0x40)\n      dup1\n      swap2\n      sub\n      swap1\n      revert\n        /* \"contracts/ERC721TokenContractName.sol\":5894:6031  if ((newmaxMint - mintInfo.currentTokens) != newTokenId[0]) {... */\n    tag_145:\n        /* \"contracts/ERC721TokenContractName.sol\":6058:6062  1000 */\n      0x03e8\n        /* \"contracts/ERC721TokenContractName.sol\":6045:6055  newmaxMint */\n      dup7\n        /* \"contracts/ERC721TokenContractName.sol\":6045:6062  newmaxMint > 1000 */\n      0xffff\n      and\n      gt\n        /* \"contracts/ERC721TokenContractName.sol\":6041:6341  if (newmaxMint > 1000) {... */\n      iszero\n      tag_149\n      jumpi\n        /* \"contracts/ERC721TokenContractName.sol\":6079:6096  bytes32 sucessded */\n      0x00\n        /* \"contracts/ERC721TokenContractName.sol\":6156:6160  1200 */\n      0x04b0\n        /* \"contracts/ERC721TokenContractName.sol\":6143:6153  newmaxMint */\n      dup8\n        /* \"contracts/ERC721TokenContractName.sol\":6143:6160  newmaxMint < 1200 */\n      0xffff\n      and\n      lt\n        /* \"contracts/ERC721TokenContractName.sol\":6143:6192  newmaxMint < 1200 && (sucessded == stateVoting()) */\n      dup1\n      iszero\n      tag_150\n      jumpi\n      pop\n        /* \"contracts/ERC721TokenContractName.sol\":6178:6191  stateVoting() */\n      tag_151\n        /* \"contracts/ERC721TokenContractName.sol\":6178:6189  stateVoting */\n      tag_55\n        /* \"contracts/ERC721TokenContractName.sol\":6178:6191  stateVoting() */\n      jump\t// in\n    tag_151:\n        /* \"contracts/ERC721TokenContractName.sol\":6165:6174  sucessded */\n      dup2\n        /* \"contracts/ERC721TokenContractName.sol\":6165:6191  sucessded == stateVoting() */\n      eq\n        /* \"contracts/ERC721TokenContractName.sol\":6143:6192  newmaxMint < 1200 && (sucessded == stateVoting()) */\n    tag_150:\n        /* \"contracts/ERC721TokenContractName.sol\":6135:6234  require(newmaxMint < 1200 && (sucessded == stateVoting()), \"You do not have permission to upgrade\") */\n      tag_152\n      jumpi\n      mload(0x40)\n      0x08c379a000000000000000000000000000000000000000000000000000000000\n      dup2\n      mstore\n      0x04\n      add\n      tag_153\n      swap1\n      tag_154\n      jump\t// in\n    tag_153:\n      mload(0x40)\n      dup1\n      swap2\n      sub\n      swap1\n      revert\n    tag_152:\n        /* \"contracts/ERC721TokenContractName.sol\":6249:6265  bytes32 executed */\n      0x00\n        /* \"contracts/ERC721TokenContractName.sol\":6305:6329  setStateVoting(executed) */\n      tag_155\n        /* \"contracts/ERC721TokenContractName.sol\":6320:6328  executed */\n      dup2\n        /* \"contracts/ERC721TokenContractName.sol\":6305:6319  setStateVoting */\n      tag_156\n        /* \"contracts/ERC721TokenContractName.sol\":6305:6329  setStateVoting(executed) */\n      jump\t// in\n    tag_155:\n        /* \"contracts/ERC721TokenContractName.sol\":6064:6341  {... */\n      pop\n      pop\n        /* \"contracts/ERC721TokenContractName.sol\":6041:6341  if (newmaxMint > 1000) {... */\n    tag_149:\n        /* \"contracts/ERC721TokenContractName.sol\":6372:6382  newmaxMint */\n      dup6\n        /* \"contracts/ERC721TokenContractName.sol\":6353:6361  mintInfo */\n      0x01\n        /* \"contracts/ERC721TokenContractName.sol\":6353:6369  mintInfo.maxMint */\n      0x00\n      add\n      0x00\n        /* \"contracts/ERC721TokenContractName.sol\":6353:6382  mintInfo.maxMint = newmaxMint */\n      0x0100\n      exp\n      dup2\n      sload\n      dup2\n      0xffff\n      mul\n      not\n      and\n      swap1\n      dup4\n      0xffff\n      and\n      mul\n      or\n      swap1\n      sstore\n      pop\n        /* \"contracts/ERC721TokenContractName.sol\":6426:6450  newregistrationStartTime */\n      dup5\n        /* \"contracts/ERC721TokenContractName.sol\":6393:6401  mintInfo */\n      0x01\n        /* \"contracts/ERC721TokenContractName.sol\":6393:6423  mintInfo.registrationStartTime */\n      0x02\n      add\n        /* \"contracts/ERC721TokenContractName.sol\":6393:6450  mintInfo.registrationStartTime = newregistrationStartTime */\n      dup2\n      swap1\n      sstore\n      pop\n        /* \"contracts/ERC721TokenContractName.sol\":6481:6492  newexecutor */\n      dup4\n        /* \"contracts/ERC721TokenContractName.sol\":6461:6469  mintInfo */\n      0x01\n        /* \"contracts/ERC721TokenContractName.sol\":6461:6478  mintInfo.executor */\n      0x00\n      add\n      0x06\n        /* \"contracts/ERC721TokenContractName.sol\":6461:6492  mintInfo.executor = newexecutor */\n      0x0100\n      exp\n      dup2\n      sload\n      dup2\n      0xffffffffffffffffffffffffffffffffffffffff\n      mul\n      not\n      and\n      swap1\n      dup4\n      0xffffffffffffffffffffffffffffffffffffffff\n      and\n      mul\n      or\n      swap1\n      sstore\n      pop\n        /* \"contracts/ERC721TokenContractName.sol\":6526:6540  newbankAddress */\n      dup3\n        /* \"contracts/ERC721TokenContractName.sol\":6503:6511  mintInfo */\n      0x01\n        /* \"contracts/ERC721TokenContractName.sol\":6503:6523  mintInfo.bankAddress */\n      dup1\n      add\n      0x00\n        /* \"contracts/ERC721TokenContractName.sol\":6503:6540  mintInfo.bankAddress = newbankAddress */\n      0x0100\n      exp\n      dup2\n      sload\n      dup2\n      0xffffffffffffffffffffffffffffffffffffffff\n      mul\n      not\n      and\n      swap1\n      dup4\n      0xffffffffffffffffffffffffffffffffffffffff\n      and\n      mul\n      or\n      swap1\n      sstore\n      pop\n        /* \"contracts/ERC721TokenContractName.sol\":6572:6584  newmintPrice */\n      dup2\n        /* \"contracts/ERC721TokenContractName.sol\":6551:6559  mintInfo */\n      0x01\n        /* \"contracts/ERC721TokenContractName.sol\":6551:6569  mintInfo.mintPrice */\n      0x03\n      add\n        /* \"contracts/ERC721TokenContractName.sol\":6551:6584  mintInfo.mintPrice = newmintPrice */\n      dup2\n      swap1\n      sstore\n      pop\n        /* \"contracts/ERC721TokenContractName.sol\":6626:6636  newTokenId */\n      dup1\n        /* \"contracts/ERC721TokenContractName.sol\":6595:6611  _balanceAndTokId */\n      0x0a7e\n        /* \"contracts/ERC721TokenContractName.sol\":6595:6623  _balanceAndTokId[address(0)] */\n      0x00\n        /* \"contracts/ERC721TokenContractName.sol\":6620:6621  0 */\n      dup1\n        /* \"contracts/ERC721TokenContractName.sol\":6595:6623  _balanceAndTokId[address(0)] */\n      0xffffffffffffffffffffffffffffffffffffffff\n      and\n      0xffffffffffffffffffffffffffffffffffffffff\n      and\n      dup2\n      mstore\n      0x20\n      add\n      swap1\n      dup2\n      mstore\n      0x20\n      add\n      0x00\n      keccak256\n        /* \"contracts/ERC721TokenContractName.sol\":6595:6636  _balanceAndTokId[address(0)] = newTokenId */\n      swap1\n      0x04b1\n      tag_157\n      swap3\n      swap2\n      swap1\n      tag_158\n      jump\t// in\n    tag_157:\n      pop\n        /* \"contracts/ERC721TokenContractName.sol\":6679:6703  newregistrationStartTime */\n      dup5\n        /* \"contracts/ERC721TokenContractName.sol\":6667:6677  newmaxMint */\n      dup7\n        /* \"contracts/ERC721TokenContractName.sol\":6652:6747  updatemintInfo(newmaxMint, newregistrationStartTime, newexecutor, newbankAddress, newmintPrice) */\n      0xffff\n      and\n      0x7f5da92c8cf80f4a196e12ba4e13abc4fd2645f0248ad338ebd76ebb41898281\n        /* \"contracts/ERC721TokenContractName.sol\":6705:6716  newexecutor */\n      dup7\n        /* \"contracts/ERC721TokenContractName.sol\":6718:6732  newbankAddress */\n      dup7\n        /* \"contracts/ERC721TokenContractName.sol\":6734:6746  newmintPrice */\n      dup7\n        /* \"contracts/ERC721TokenContractName.sol\":6652:6747  updatemintInfo(newmaxMint, newregistrationStartTime, newexecutor, newbankAddress, newmintPrice) */\n      mload(0x40)\n      tag_159\n      swap4\n      swap3\n      swap2\n      swap1\n      tag_160\n      jump\t// in\n    tag_159:\n      mload(0x40)\n      dup1\n      swap2\n      sub\n      swap1\n      log3\n        /* \"contracts/ERC721TokenContractName.sol\":5425:6765  function updateMintInfo(... */\n      pop\n      pop\n      pop\n      pop\n      pop\n      pop\n      jump\t// out\n        /* \"contracts/ERC721TokenContractName.sol\":7708:9320  function mint() public {... */\n    tag_41:\n        /* \"contracts/ERC721TokenContractName.sol\":7767:7775  mintInfo */\n      0x01\n        /* \"contracts/ERC721TokenContractName.sol\":7767:7784  mintInfo.executor */\n      0x00\n      add\n      0x06\n      swap1\n      sload\n      swap1\n      0x0100\n      exp\n      swap1\n      div\n      0xffffffffffffffffffffffffffffffffffffffff\n      and\n        /* \"contracts/ERC721TokenContractName.sol\":7751:7784  _msgSender() == mintInfo.executor */\n      0xffffffffffffffffffffffffffffffffffffffff\n      and\n        /* \"contracts/ERC721TokenContractName.sol\":7751:7763  _msgSender() */\n      tag_162\n        /* \"contracts/ERC721TokenContractName.sol\":7751:7761  _msgSender */\n      tag_132\n        /* \"contracts/ERC721TokenContractName.sol\":7751:7763  _msgSender() */\n      jump\t// in\n    tag_162:\n        /* \"contracts/ERC721TokenContractName.sol\":7751:7784  _msgSender() == mintInfo.executor */\n      0xffffffffffffffffffffffffffffffffffffffff\n      and\n      eq\n        /* \"contracts/ERC721TokenContractName.sol\":7742:7813  require (_msgSender() == mintInfo.executor, \"Access only for executor\") */\n      tag_163\n      jumpi\n      mload(0x40)\n      0x08c379a000000000000000000000000000000000000000000000000000000000\n      dup2\n      mstore\n      0x04\n      add\n      tag_164\n      swap1\n      tag_165\n      jump\t// in\n    tag_164:\n      mload(0x40)\n      dup1\n      swap2\n      sub\n      swap1\n      revert\n    tag_163:\n        /* \"contracts/ERC721TokenContractName.sol\":7854:7862  mintInfo */\n      0x01\n        /* \"contracts/ERC721TokenContractName.sol\":7854:7876  mintInfo.currentTokens */\n      0x00\n      add\n      0x02\n      swap1\n      sload\n      swap1\n      0x0100\n      exp\n      swap1\n      div\n      0xffff\n      and\n        /* \"contracts/ERC721TokenContractName.sol\":7830:7876  mintInfo.nRegistrants > mintInfo.currentTokens */\n      0xffff\n      and\n        /* \"contracts/ERC721TokenContractName.sol\":7830:7838  mintInfo */\n      0x01\n        /* \"contracts/ERC721TokenContractName.sol\":7830:7851  mintInfo.nRegistrants */\n      0x00\n      add\n      0x04\n      swap1\n      sload\n      swap1\n      0x0100\n      exp\n      swap1\n      div\n      0xffff\n      and\n        /* \"contracts/ERC721TokenContractName.sol\":7830:7876  mintInfo.nRegistrants > mintInfo.currentTokens */\n      0xffff\n      and\n      gt\n        /* \"contracts/ERC721TokenContractName.sol\":7826:9313  if (mintInfo.nRegistrants > mintInfo.currentTokens) {... */\n      iszero\n      tag_166\n      jumpi\n        /* \"contracts/ERC721TokenContractName.sol\":7893:7919  uint48[1201] memory salts_ */\n      0x00\n        /* \"contracts/ERC721TokenContractName.sol\":7922:7930  mintInfo */\n      0x01\n        /* \"contracts/ERC721TokenContractName.sol\":7922:7936  mintInfo.salts */\n      0x04\n      add\n        /* \"contracts/ERC721TokenContractName.sol\":7893:7936  uint48[1201] memory salts_ = mintInfo.salts */\n      0x04b1\n      dup1\n      0x20\n      mul\n      mload(0x40)\n      swap1\n      dup2\n      add\n      0x40\n      mstore\n      dup1\n      swap3\n      swap2\n      swap1\n      dup3\n      0x04b1\n      dup1\n      iszero\n      tag_167\n      jumpi\n      0x20\n      mul\n      dup3\n      add\n      swap2\n      0x00\n      swap1\n    tag_168:\n      dup3\n      dup3\n      swap1\n      sload\n      swap1\n      0x0100\n      exp\n      swap1\n      div\n      0xffffffffffff\n      and\n      0xffffffffffff\n      and\n      dup2\n      mstore\n      0x20\n      add\n      swap1\n      0x06\n      add\n      swap1\n      0x20\n      dup3\n      0x05\n      add\n      div\n      swap3\n      dup4\n      add\n      swap3\n      0x01\n      sub\n      dup3\n      mul\n      swap2\n      pop\n      dup1\n      dup5\n      gt\n      tag_168\n      jumpi\n      swap1\n      pop\n    tag_167:\n      pop\n      pop\n      pop\n      pop\n      pop\n      swap1\n      pop\n        /* \"contracts/ERC721TokenContractName.sol\":7951:7984  address[1201] memory registrants_ */\n      0x00\n        /* \"contracts/ERC721TokenContractName.sol\":7987:7995  mintInfo */\n      0x01\n        /* \"contracts/ERC721TokenContractName.sol\":7987:8007  mintInfo.registrants */\n      0xf5\n      add\n        /* \"contracts/ERC721TokenContractName.sol\":7951:8007  address[1201] memory registrants_ = mintInfo.registrants */\n      0x04b1\n      dup1\n      0x20\n      mul\n      mload(0x40)\n      swap1\n      dup2\n      add\n      0x40\n      mstore\n      dup1\n      swap3\n      swap2\n      swap1\n      dup3\n      0x04b1\n      dup1\n      iszero\n      tag_169\n      jumpi\n      0x20\n      mul\n      dup3\n      add\n      swap2\n    tag_170:\n      dup2\n      0x00\n      swap1\n      sload\n      swap1\n      0x0100\n      exp\n      swap1\n      div\n      0xffffffffffffffffffffffffffffffffffffffff\n      and\n      0xffffffffffffffffffffffffffffffffffffffff\n      and\n      dup2\n      mstore\n      0x20\n      add\n      swap1\n      0x01\n      add\n      swap1\n      dup1\n      dup4\n      gt\n      tag_170\n      jumpi\n    tag_169:\n      pop\n      pop\n      pop\n      pop\n      pop\n      swap1\n      pop\n        /* \"contracts/ERC721TokenContractName.sol\":8022:8041  uint16 remainingReg */\n      0x00\n        /* \"contracts/ERC721TokenContractName.sol\":8068:8076  mintInfo */\n      0x01\n        /* \"contracts/ERC721TokenContractName.sol\":8068:8090  mintInfo.currentTokens */\n      0x00\n      add\n      0x02\n      swap1\n      sload\n      swap1\n      0x0100\n      exp\n      swap1\n      div\n      0xffff\n      and\n        /* \"contracts/ERC721TokenContractName.sol\":8044:8052  mintInfo */\n      0x01\n        /* \"contracts/ERC721TokenContractName.sol\":8044:8065  mintInfo.nRegistrants */\n      0x00\n      add\n      0x04\n      swap1\n      sload\n      swap1\n      0x0100\n      exp\n      swap1\n      div\n      0xffff\n      and\n        /* \"contracts/ERC721TokenContractName.sol\":8044:8090  mintInfo.nRegistrants - mintInfo.currentTokens */\n      tag_171\n      swap2\n      swap1\n      tag_144\n      jump\t// in\n    tag_171:\n        /* \"contracts/ERC721TokenContractName.sol\":8022:8090  uint16 remainingReg = mintInfo.nRegistrants - mintInfo.currentTokens */\n      swap1\n      pop\n        /* \"contracts/ERC721TokenContractName.sol\":8105:8124  uint16 remainingTok */\n      0x00\n        /* \"contracts/ERC721TokenContractName.sol\":8147:8155  mintInfo */\n      0x01\n        /* \"contracts/ERC721TokenContractName.sol\":8147:8169  mintInfo.currentTokens */\n      0x00\n      add\n      0x02\n      swap1\n      sload\n      swap1\n      0x0100\n      exp\n      swap1\n      div\n      0xffff\n      and\n        /* \"contracts/ERC721TokenContractName.sol\":8128:8136  mintInfo */\n      0x01\n        /* \"contracts/ERC721TokenContractName.sol\":8128:8144  mintInfo.maxMint */\n      0x00\n      add\n      0x00\n      swap1\n      sload\n      swap1\n      0x0100\n      exp\n      swap1\n      div\n      0xffff\n      and\n        /* \"contracts/ERC721TokenContractName.sol\":8128:8169  mintInfo.maxMint - mintInfo.currentTokens */\n      tag_172\n      swap2\n      swap1\n      tag_144\n      jump\t// in\n    tag_172:\n        /* \"contracts/ERC721TokenContractName.sol\":8105:8170  uint16 remainingTok = (mintInfo.maxMint - mintInfo.currentTokens) */\n      swap1\n      pop\n        /* \"contracts/ERC721TokenContractName.sol\":8185:8193  uint16 i */\n      0x00\n        /* \"contracts/ERC721TokenContractName.sol\":8198:8206  mintInfo */\n      0x01\n        /* \"contracts/ERC721TokenContractName.sol\":8198:8220  mintInfo.currentTokens */\n      0x00\n      add\n      0x02\n        /* \"contracts/ERC721TokenContractName.sol\":8196:8220  ++mintInfo.currentTokens */\n      dup2\n      dup2\n      swap1\n      sload\n      swap1\n      0x0100\n      exp\n      swap1\n      div\n      0xffff\n      and\n      tag_173\n      swap1\n      tag_174\n      jump\t// in\n    tag_173:\n      swap2\n      swap1\n      0x0100\n      exp\n      dup2\n      sload\n      dup2\n      0xffff\n      mul\n      not\n      and\n      swap1\n      dup4\n      0xffff\n      and\n      mul\n      or\n      swap1\n      sstore\n        /* \"contracts/ERC721TokenContractName.sol\":8185:8220  uint16 i = ++mintInfo.currentTokens */\n      swap1\n      pop\n        /* \"contracts/ERC721TokenContractName.sol\":8235:8254  uint16 nRegistrants */\n      0x00\n        /* \"contracts/ERC721TokenContractName.sol\":8257:8265  mintInfo */\n      0x01\n        /* \"contracts/ERC721TokenContractName.sol\":8257:8278  mintInfo.nRegistrants */\n      0x00\n      add\n      0x04\n      swap1\n      sload\n      swap1\n      0x0100\n      exp\n      swap1\n      div\n      0xffff\n      and\n        /* \"contracts/ERC721TokenContractName.sol\":8235:8278  uint16 nRegistrants = mintInfo.nRegistrants */\n      swap1\n      pop\n        /* \"contracts/ERC721TokenContractName.sol\":8293:8313  uint256 mintTimeSalt */\n      0x00\n        /* \"contracts/ERC721TokenContractName.sol\":8316:8331  block.timestamp */\n      timestamp\n        /* \"contracts/ERC721TokenContractName.sol\":8293:8331  uint256 mintTimeSalt = block.timestamp */\n      swap1\n      pop\n        /* \"contracts/ERC721TokenContractName.sol\":8348:9154  for (i; i <= nRegistrants; i++) {... */\n    tag_175:\n        /* \"contracts/ERC721TokenContractName.sol\":8361:8373  nRegistrants */\n      dup2\n        /* \"contracts/ERC721TokenContractName.sol\":8356:8373  i <= nRegistrants */\n      0xffff\n      and\n        /* \"contracts/ERC721TokenContractName.sol\":8356:8357  i */\n      dup4\n        /* \"contracts/ERC721TokenContractName.sol\":8356:8373  i <= nRegistrants */\n      0xffff\n      and\n      gt\n        /* \"contracts/ERC721TokenContractName.sol\":8348:9154  for (i; i <= nRegistrants; i++) {... */\n      tag_176\n      jumpi\n        /* \"contracts/ERC721TokenContractName.sol\":8399:8412  uint16 index1 */\n      0x00\n        /* \"contracts/ERC721TokenContractName.sol\":8462:8463  i */\n      dup4\n        /* \"contracts/ERC721TokenContractName.sol\":8449:8455  salts_ */\n      dup9\n        /* \"contracts/ERC721TokenContractName.sol\":8456:8457  i */\n      dup6\n        /* \"contracts/ERC721TokenContractName.sol\":8449:8458  salts_[i] */\n      0xffff\n      and\n      0x04b1\n      dup2\n      lt\n      tag_178\n      jumpi\n      tag_179\n      tag_142\n      jump\t// in\n    tag_179:\n    tag_178:\n      0x20\n      mul\n      add\n      mload\n        /* \"contracts/ERC721TokenContractName.sol\":8422:8458  salts_[0] + mintTimeSalt + salts_[i] */\n      0xffffffffffff\n      and\n        /* \"contracts/ERC721TokenContractName.sol\":8434:8446  mintTimeSalt */\n      dup4\n        /* \"contracts/ERC721TokenContractName.sol\":8422:8428  salts_ */\n      dup11\n        /* \"contracts/ERC721TokenContractName.sol\":8429:8430  0 */\n      0x00\n        /* \"contracts/ERC721TokenContractName.sol\":8422:8431  salts_[0] */\n      0x04b1\n      dup2\n      lt\n      tag_180\n      jumpi\n      tag_181\n      tag_142\n      jump\t// in\n    tag_181:\n    tag_180:\n      0x20\n      mul\n      add\n      mload\n        /* \"contracts/ERC721TokenContractName.sol\":8422:8446  salts_[0] + mintTimeSalt */\n      0xffffffffffff\n      and\n      tag_182\n      swap2\n      swap1\n      tag_183\n      jump\t// in\n    tag_182:\n        /* \"contracts/ERC721TokenContractName.sol\":8422:8458  salts_[0] + mintTimeSalt + salts_[i] */\n      tag_184\n      swap2\n      swap1\n      tag_183\n      jump\t// in\n    tag_184:\n        /* \"contracts/ERC721TokenContractName.sol\":8415:8463  uint16(salts_[0] + mintTimeSalt + salts_[i]) % i */\n      tag_185\n      swap2\n      swap1\n      tag_186\n      jump\t// in\n    tag_185:\n        /* \"contracts/ERC721TokenContractName.sol\":8399:8463  uint16 index1 = uint16(salts_[0] + mintTimeSalt + salts_[i]) % i */\n      swap1\n      pop\n        /* \"contracts/ERC721TokenContractName.sol\":8482:8495  uint16 index2 */\n      0x00\n        /* \"contracts/ERC721TokenContractName.sol\":8535:8547  nRegistrants */\n      dup4\n        /* \"contracts/ERC721TokenContractName.sol\":8522:8528  salts_ */\n      dup10\n        /* \"contracts/ERC721TokenContractName.sol\":8529:8530  0 */\n      0x00\n        /* \"contracts/ERC721TokenContractName.sol\":8522:8531  salts_[0] */\n      0x04b1\n      dup2\n      lt\n      tag_187\n      jumpi\n      tag_188\n      tag_142\n      jump\t// in\n    tag_188:\n    tag_187:\n      0x20\n      mul\n      add\n      mload\n        /* \"contracts/ERC721TokenContractName.sol\":8505:8511  salts_ */\n      dup11\n        /* \"contracts/ERC721TokenContractName.sol\":8512:8518  index1 */\n      dup5\n        /* \"contracts/ERC721TokenContractName.sol\":8505:8519  salts_[index1] */\n      0xffff\n      and\n      0x04b1\n      dup2\n      lt\n      tag_189\n      jumpi\n      tag_190\n      tag_142\n      jump\t// in\n    tag_190:\n    tag_189:\n      0x20\n      mul\n      add\n      mload\n        /* \"contracts/ERC721TokenContractName.sol\":8505:8531  salts_[index1] + salts_[0] */\n      tag_191\n      swap2\n      swap1\n      tag_192\n      jump\t// in\n    tag_191:\n        /* \"contracts/ERC721TokenContractName.sol\":8498:8547  uint16(salts_[index1] + salts_[0]) % nRegistrants */\n      tag_193\n      swap2\n      swap1\n      tag_186\n      jump\t// in\n    tag_193:\n        /* \"contracts/ERC721TokenContractName.sol\":8482:8547  uint16 index2 = uint16(salts_[index1] + salts_[0]) % nRegistrants */\n      swap1\n      pop\n        /* \"contracts/ERC721TokenContractName.sol\":8566:8583  uint16 indexOwner */\n      0x00\n        /* \"contracts/ERC721TokenContractName.sol\":8644:8645  i */\n      dup6\n        /* \"contracts/ERC721TokenContractName.sol\":8628:8640  remainingReg */\n      dup9\n        /* \"contracts/ERC721TokenContractName.sol\":8610:8616  salts_ */\n      dup12\n        /* \"contracts/ERC721TokenContractName.sol\":8617:8623  index2 */\n      dup5\n        /* \"contracts/ERC721TokenContractName.sol\":8610:8624  salts_[index2] */\n      0xffff\n      and\n      0x04b1\n      dup2\n      lt\n      tag_194\n      jumpi\n      tag_195\n      tag_142\n      jump\t// in\n    tag_195:\n    tag_194:\n      0x20\n      mul\n      add\n      mload\n        /* \"contracts/ERC721TokenContractName.sol\":8593:8599  salts_ */\n      dup13\n        /* \"contracts/ERC721TokenContractName.sol\":8600:8606  index1 */\n      dup7\n        /* \"contracts/ERC721TokenContractName.sol\":8593:8607  salts_[index1] */\n      0xffff\n      and\n      0x04b1\n      dup2\n      lt\n      tag_196\n      jumpi\n      tag_197\n      tag_142\n      jump\t// in\n    tag_197:\n    tag_196:\n      0x20\n      mul\n      add\n      mload\n        /* \"contracts/ERC721TokenContractName.sol\":8593:8624  salts_[index1] + salts_[index2] */\n      tag_198\n      swap2\n      swap1\n      tag_192\n      jump\t// in\n    tag_198:\n        /* \"contracts/ERC721TokenContractName.sol\":8586:8640  uint16(salts_[index1] + salts_[index2]) % remainingReg */\n      tag_199\n      swap2\n      swap1\n      tag_186\n      jump\t// in\n    tag_199:\n        /* \"contracts/ERC721TokenContractName.sol\":8585:8645  (uint16(salts_[index1] + salts_[index2]) % remainingReg) + i */\n      tag_200\n      swap2\n      swap1\n      tag_201\n      jump\t// in\n    tag_200:\n        /* \"contracts/ERC721TokenContractName.sol\":8566:8645  uint16 indexOwner =(uint16(salts_[index1] + salts_[index2]) % remainingReg) + i */\n      swap1\n      pop\n        /* \"contracts/ERC721TokenContractName.sol\":8664:8677  address owner */\n      0x00\n        /* \"contracts/ERC721TokenContractName.sol\":8680:8692  registrants_ */\n      dup10\n        /* \"contracts/ERC721TokenContractName.sol\":8693:8703  indexOwner */\n      dup3\n        /* \"contracts/ERC721TokenContractName.sol\":8680:8704  registrants_[indexOwner] */\n      0xffff\n      and\n      0x04b1\n      dup2\n      lt\n      tag_202\n      jumpi\n      tag_203\n      tag_142\n      jump\t// in\n    tag_203:\n    tag_202:\n      0x20\n      mul\n      add\n      mload\n        /* \"contracts/ERC721TokenContractName.sol\":8664:8704  address owner = registrants_[indexOwner] */\n      swap1\n      pop\n        /* \"contracts/ERC721TokenContractName.sol\":8750:8762  registrants_ */\n      dup10\n        /* \"contracts/ERC721TokenContractName.sol\":8763:8764  i */\n      dup8\n        /* \"contracts/ERC721TokenContractName.sol\":8750:8765  registrants_[i] */\n      0xffff\n      and\n      0x04b1\n      dup2\n      lt\n      tag_204\n      jumpi\n      tag_205\n      tag_142\n      jump\t// in\n    tag_205:\n    tag_204:\n      0x20\n      mul\n      add\n      mload\n        /* \"contracts/ERC721TokenContractName.sol\":8723:8735  registrants_ */\n      dup11\n        /* \"contracts/ERC721TokenContractName.sol\":8736:8746  indexOwner */\n      dup4\n        /* \"contracts/ERC721TokenContractName.sol\":8723:8747  registrants_[indexOwner] */\n      0xffff\n      and\n      0x04b1\n      dup2\n      lt\n      tag_206\n      jumpi\n      tag_207\n      tag_142\n      jump\t// in\n    tag_207:\n    tag_206:\n      0x20\n      mul\n      add\n        /* \"contracts/ERC721TokenContractName.sol\":8723:8765  registrants_[indexOwner] = registrants_[i] */\n      swap1\n      0xffffffffffffffffffffffffffffffffffffffff\n      and\n      swap1\n      dup2\n      0xffffffffffffffffffffffffffffffffffffffff\n      and\n      dup2\n      mstore\n      pop\n      pop\n        /* \"contracts/ERC721TokenContractName.sol\":8802:8807  owner */\n      dup1\n        /* \"contracts/ERC721TokenContractName.sol\":8784:8796  registrants_ */\n      dup11\n        /* \"contracts/ERC721TokenContractName.sol\":8797:8798  i */\n      dup9\n        /* \"contracts/ERC721TokenContractName.sol\":8784:8799  registrants_[i] */\n      0xffff\n      and\n      0x04b1\n      dup2\n      lt\n      tag_208\n      jumpi\n      tag_209\n      tag_142\n      jump\t// in\n    tag_209:\n    tag_208:\n      0x20\n      mul\n      add\n        /* \"contracts/ERC721TokenContractName.sol\":8784:8807  registrants_[i] = owner */\n      swap1\n      0xffffffffffffffffffffffffffffffffffffffff\n      and\n      swap1\n      dup2\n      0xffffffffffffffffffffffffffffffffffffffff\n      and\n      dup2\n      mstore\n      pop\n      pop\n        /* \"contracts/ERC721TokenContractName.sol\":8828:8845  uint16 indextoken */\n      0x00\n        /* \"contracts/ERC721TokenContractName.sol\":8895:8907  remainingTok */\n      dup9\n        /* \"contracts/ERC721TokenContractName.sol\":8873:8879  salts_ */\n      dup13\n        /* \"contracts/ERC721TokenContractName.sol\":8880:8890  indexOwner */\n      dup5\n        /* \"contracts/ERC721TokenContractName.sol\":8873:8891  salts_[indexOwner] */\n      0xffff\n      and\n      0x04b1\n      dup2\n      lt\n      tag_210\n      jumpi\n      tag_211\n      tag_142\n      jump\t// in\n    tag_211:\n    tag_210:\n      0x20\n      mul\n      add\n      mload\n        /* \"contracts/ERC721TokenContractName.sol\":8856:8862  salts_ */\n      dup14\n        /* \"contracts/ERC721TokenContractName.sol\":8863:8869  index1 */\n      dup8\n        /* \"contracts/ERC721TokenContractName.sol\":8856:8870  salts_[index1] */\n      0xffff\n      and\n      0x04b1\n      dup2\n      lt\n      tag_212\n      jumpi\n      tag_213\n      tag_142\n      jump\t// in\n    tag_213:\n    tag_212:\n      0x20\n      mul\n      add\n      mload\n        /* \"contracts/ERC721TokenContractName.sol\":8856:8891  salts_[index1] + salts_[indexOwner] */\n      tag_214\n      swap2\n      swap1\n      tag_192\n      jump\t// in\n    tag_214:\n        /* \"contracts/ERC721TokenContractName.sol\":8849:8907  uint16(salts_[index1] + salts_[indexOwner]) % remainingTok */\n      tag_215\n      swap2\n      swap1\n      tag_186\n      jump\t// in\n    tag_215:\n        /* \"contracts/ERC721TokenContractName.sol\":8828:8908  uint16 indextoken = (uint16(salts_[index1] + salts_[indexOwner]) % remainingTok) */\n      swap1\n      pop\n        /* \"contracts/ERC721TokenContractName.sol\":8945:8946  0 */\n      0x00\n        /* \"contracts/ERC721TokenContractName.sol\":8931:8941  indextoken */\n      dup2\n        /* \"contracts/ERC721TokenContractName.sol\":8931:8946  indextoken == 0 */\n      0xffff\n      and\n      sub\n        /* \"contracts/ERC721TokenContractName.sol\":8927:9016  if (indextoken == 0) {... */\n      tag_216\n      jumpi\n        /* \"contracts/ERC721TokenContractName.sol\":8984:8996  remainingTok */\n      dup9\n        /* \"contracts/ERC721TokenContractName.sol\":8971:8996  indextoken = remainingTok */\n      swap1\n      pop\n        /* \"contracts/ERC721TokenContractName.sol\":8927:9016  if (indextoken == 0) {... */\n    tag_216:\n        /* \"contracts/ERC721TokenContractName.sol\":9034:9072  _update(owner, indextoken, address(0)) */\n      tag_217\n        /* \"contracts/ERC721TokenContractName.sol\":9042:9047  owner */\n      dup3\n        /* \"contracts/ERC721TokenContractName.sol\":9049:9059  indextoken */\n      dup3\n        /* \"contracts/ERC721TokenContractName.sol\":9069:9070  0 */\n      0x00\n        /* \"contracts/ERC721TokenContractName.sol\":9034:9041  _update */\n      tag_218\n        /* \"contracts/ERC721TokenContractName.sol\":9034:9072  _update(owner, indextoken, address(0)) */\n      jump\t// in\n    tag_217:\n        /* \"contracts/ERC721TokenContractName.sol\":9091:9105  --remainingReg */\n      dup10\n      tag_219\n      swap1\n      tag_220\n      jump\t// in\n    tag_219:\n      swap10\n      pop\n        /* \"contracts/ERC721TokenContractName.sol\":9124:9138  --remainingTok */\n      dup9\n      tag_221\n      swap1\n      tag_220\n      jump\t// in\n    tag_221:\n      swap9\n      pop\n        /* \"contracts/ERC721TokenContractName.sol\":8380:9154  {... */\n      pop\n      pop\n      pop\n      pop\n      pop\n        /* \"contracts/ERC721TokenContractName.sol\":8375:8378  i++ */\n      dup3\n      dup1\n      tag_222\n      swap1\n      tag_174\n      jump\t// in\n    tag_222:\n      swap4\n      pop\n      pop\n        /* \"contracts/ERC721TokenContractName.sol\":8348:9154  for (i; i <= nRegistrants; i++) {... */\n      jump(tag_175)\n    tag_176:\n        /* \"contracts/ERC721TokenContractName.sol\":9195:9203  mintInfo */\n      0x01\n        /* \"contracts/ERC721TokenContractName.sol\":9195:9216  mintInfo.nRegistrants */\n      0x00\n      add\n      0x04\n      swap1\n      sload\n      swap1\n      0x0100\n      exp\n      swap1\n      div\n      0xffff\n      and\n        /* \"contracts/ERC721TokenContractName.sol\":9170:9178  mintInfo */\n      0x01\n        /* \"contracts/ERC721TokenContractName.sol\":9170:9192  mintInfo.currentTokens */\n      0x00\n      add\n      0x02\n        /* \"contracts/ERC721TokenContractName.sol\":9170:9216  mintInfo.currentTokens = mintInfo.nRegistrants */\n      0x0100\n      exp\n      dup2\n      sload\n      dup2\n      0xffff\n      mul\n      not\n      and\n      swap1\n      dup4\n      0xffff\n      and\n      mul\n      or\n      swap1\n      sstore\n      pop\n        /* \"contracts/ERC721TokenContractName.sol\":7878:9228  {... */\n      pop\n      pop\n      pop\n      pop\n      pop\n      pop\n      pop\n        /* \"contracts/ERC721TokenContractName.sol\":7826:9313  if (mintInfo.nRegistrants > mintInfo.currentTokens) {... */\n      jump(tag_223)\n    tag_166:\n        /* \"contracts/ERC721TokenContractName.sol\":9279:9287  mintInfo */\n      0x01\n        /* \"contracts/ERC721TokenContractName.sol\":9279:9300  mintInfo.nRegistrants */\n      0x00\n      add\n      0x04\n      swap1\n      sload\n      swap1\n      0x0100\n      exp\n      swap1\n      div\n      0xffff\n      and\n        /* \"contracts/ERC721TokenContractName.sol\":9256:9301  ERC721NoNewRegistrants(mintInfo.nRegistrants) */\n      mload(0x40)\n      0x72864e7c00000000000000000000000000000000000000000000000000000000\n      dup2\n      mstore\n      0x04\n      add\n      tag_224\n      swap2\n      swap1\n      tag_63\n      jump\t// in\n    tag_224:\n      mload(0x40)\n      dup1\n      swap2\n      sub\n      swap1\n      revert\n        /* \"contracts/ERC721TokenContractName.sol\":7826:9313  if (mintInfo.nRegistrants > mintInfo.currentTokens) {... */\n    tag_223:\n        /* \"contracts/ERC721TokenContractName.sol\":7708:9320  function mint() public {... */\n      jump\t// out\n        /* \"contracts/ERC721TokenContractName.sol\":12725:12791  function governoraccess (address) public returns (bool) {... */\n    tag_46:\n        /* \"contracts/ERC721TokenContractName.sol\":12775:12779  bool */\n      0x00\n        /* \"contracts/ERC721TokenContractName.sol\":12725:12791  function governoraccess (address) public returns (bool) {... */\n      swap2\n      swap1\n      pop\n      jump\t// out\n        /* \"contracts/ERC721TokenContractName.sol\":4059:5056  function transferFrom(address from, address to, uint16 tokenId) public virtual {... */\n    tag_52:\n        /* \"contracts/ERC721TokenContractName.sol\":4168:4169  0 */\n      0x00\n        /* \"contracts/ERC721TokenContractName.sol\":4154:4170  to == address(0) */\n      0xffffffffffffffffffffffffffffffffffffffff\n      and\n        /* \"contracts/ERC721TokenContractName.sol\":4154:4156  to */\n      dup3\n        /* \"contracts/ERC721TokenContractName.sol\":4154:4170  to == address(0) */\n      0xffffffffffffffffffffffffffffffffffffffff\n      and\n      sub\n        /* \"contracts/ERC721TokenContractName.sol\":4150:4239  if (to == address(0)) {... */\n      tag_227\n      jumpi\n        /* \"contracts/ERC721TokenContractName.sol\":4224:4225  0 */\n      0x00\n        /* \"contracts/ERC721TokenContractName.sol\":4194:4227  ERC721InvalidReceiver(address(0)) */\n      mload(0x40)\n      0x64a0ae9200000000000000000000000000000000000000000000000000000000\n      dup2\n      mstore\n      0x04\n      add\n      tag_228\n      swap2\n      swap1\n      tag_70\n      jump\t// in\n    tag_228:\n      mload(0x40)\n      dup1\n      swap2\n      sub\n      swap1\n      revert\n        /* \"contracts/ERC721TokenContractName.sol\":4150:4239  if (to == address(0)) {... */\n    tag_227:\n        /* \"contracts/ERC721TokenContractName.sol\":4251:4272  address previousOwner */\n      0x00\n        /* \"contracts/ERC721TokenContractName.sol\":4275:4297  _requireOwned(tokenId) */\n      tag_229\n        /* \"contracts/ERC721TokenContractName.sol\":4289:4296  tokenId */\n      dup3\n        /* \"contracts/ERC721TokenContractName.sol\":4275:4288  _requireOwned */\n      tag_230\n        /* \"contracts/ERC721TokenContractName.sol\":4275:4297  _requireOwned(tokenId) */\n      jump\t// in\n    tag_229:\n        /* \"contracts/ERC721TokenContractName.sol\":4251:4297  address previousOwner = _requireOwned(tokenId) */\n      swap1\n      pop\n        /* \"contracts/ERC721TokenContractName.sol\":4319:4322  ban */\n      0x0a58\n        /* \"contracts/ERC721TokenContractName.sol\":4323:4330  tokenId */\n      dup3\n        /* \"contracts/ERC721TokenContractName.sol\":4319:4331  ban[tokenId] */\n      0xffff\n      and\n      0x04b1\n      dup2\n      lt\n      tag_231\n      jumpi\n      tag_232\n      tag_142\n      jump\t// in\n    tag_232:\n    tag_231:\n      0x20\n      swap2\n      dup3\n      dup3\n      div\n      add\n      swap2\n      swap1\n      mod\n      swap1\n      sload\n      swap1\n      0x0100\n      exp\n      swap1\n      div\n      0xff\n      and\n        /* \"contracts/ERC721TokenContractName.sol\":4318:4331  !ban[tokenId] */\n      iszero\n        /* \"contracts/ERC721TokenContractName.sol\":4310:4382  require(!ban[tokenId], \"The transfer of this token is currently banned\") */\n      tag_234\n      jumpi\n      mload(0x40)\n      0x08c379a000000000000000000000000000000000000000000000000000000000\n      dup2\n      mstore\n      0x04\n      add\n      tag_235\n      swap1\n      tag_236\n      jump\t// in\n    tag_235:\n      mload(0x40)\n      dup1\n      swap2\n      sub\n      swap1\n      revert\n    tag_234:\n        /* \"contracts/ERC721TokenContractName.sol\":4417:4430  previousOwner */\n      dup1\n        /* \"contracts/ERC721TokenContractName.sol\":4401:4430  _msgSender() == previousOwner */\n      0xffffffffffffffffffffffffffffffffffffffff\n      and\n        /* \"contracts/ERC721TokenContractName.sol\":4401:4413  _msgSender() */\n      tag_237\n        /* \"contracts/ERC721TokenContractName.sol\":4401:4411  _msgSender */\n      tag_132\n        /* \"contracts/ERC721TokenContractName.sol\":4401:4413  _msgSender() */\n      jump\t// in\n    tag_237:\n        /* \"contracts/ERC721TokenContractName.sol\":4401:4430  _msgSender() == previousOwner */\n      0xffffffffffffffffffffffffffffffffffffffff\n      and\n      eq\n        /* \"contracts/ERC721TokenContractName.sol\":4401:4479  _msgSender() == previousOwner || isApprovedForAll(previousOwner, _msgSender()) */\n      dup1\n      tag_238\n      jumpi\n      pop\n        /* \"contracts/ERC721TokenContractName.sol\":4434:4479  isApprovedForAll(previousOwner, _msgSender()) */\n      tag_239\n        /* \"contracts/ERC721TokenContractName.sol\":4451:4464  previousOwner */\n      dup2\n        /* \"contracts/ERC721TokenContractName.sol\":4466:4478  _msgSender() */\n      tag_240\n        /* \"contracts/ERC721TokenContractName.sol\":4466:4476  _msgSender */\n      tag_132\n        /* \"contracts/ERC721TokenContractName.sol\":4466:4478  _msgSender() */\n      jump\t// in\n    tag_240:\n        /* \"contracts/ERC721TokenContractName.sol\":4434:4450  isApprovedForAll */\n      tag_119\n        /* \"contracts/ERC721TokenContractName.sol\":4434:4479  isApprovedForAll(previousOwner, _msgSender()) */\n      jump\t// in\n    tag_239:\n        /* \"contracts/ERC721TokenContractName.sol\":4401:4479  _msgSender() == previousOwner || isApprovedForAll(previousOwner, _msgSender()) */\n    tag_238:\n        /* \"contracts/ERC721TokenContractName.sol\":4401:4519  _msgSender() == previousOwner || isApprovedForAll(previousOwner, _msgSender()) || getApproved(tokenId) == _msgSender() */\n      dup1\n      tag_241\n      jumpi\n      pop\n        /* \"contracts/ERC721TokenContractName.sol\":4507:4519  _msgSender() */\n      tag_242\n        /* \"contracts/ERC721TokenContractName.sol\":4507:4517  _msgSender */\n      tag_132\n        /* \"contracts/ERC721TokenContractName.sol\":4507:4519  _msgSender() */\n      jump\t// in\n    tag_242:\n        /* \"contracts/ERC721TokenContractName.sol\":4483:4519  getApproved(tokenId) == _msgSender() */\n      0xffffffffffffffffffffffffffffffffffffffff\n      and\n        /* \"contracts/ERC721TokenContractName.sol\":4483:4503  getApproved(tokenId) */\n      tag_243\n        /* \"contracts/ERC721TokenContractName.sol\":4495:4502  tokenId */\n      dup4\n        /* \"contracts/ERC721TokenContractName.sol\":4483:4494  getApproved */\n      tag_74\n        /* \"contracts/ERC721TokenContractName.sol\":4483:4503  getApproved(tokenId) */\n      jump\t// in\n    tag_243:\n        /* \"contracts/ERC721TokenContractName.sol\":4483:4519  getApproved(tokenId) == _msgSender() */\n      0xffffffffffffffffffffffffffffffffffffffff\n      and\n      eq\n        /* \"contracts/ERC721TokenContractName.sol\":4401:4519  _msgSender() == previousOwner || isApprovedForAll(previousOwner, _msgSender()) || getApproved(tokenId) == _msgSender() */\n    tag_241:\n        /* \"contracts/ERC721TokenContractName.sol\":4395:4605  if (!(_msgSender() == previousOwner || isApprovedForAll(previousOwner, _msgSender()) || getApproved(tokenId) == _msgSender())) {... */\n      tag_244\n      jumpi\n        /* \"contracts/ERC721TokenContractName.sol\":4571:4583  _msgSender() */\n      tag_245\n        /* \"contracts/ERC721TokenContractName.sol\":4571:4581  _msgSender */\n      tag_132\n        /* \"contracts/ERC721TokenContractName.sol\":4571:4583  _msgSender() */\n      jump\t// in\n    tag_245:\n        /* \"contracts/ERC721TokenContractName.sol\":4585:4592  tokenId */\n      dup3\n        /* \"contracts/ERC721TokenContractName.sol\":4544:4593  ERC721InsufficientApproval(_msgSender(), tokenId) */\n      mload(0x40)\n      0x177e802f00000000000000000000000000000000000000000000000000000000\n      dup2\n      mstore\n      0x04\n      add\n      tag_246\n      swap3\n      swap2\n      swap1\n      tag_247\n      jump\t// in\n    tag_246:\n      mload(0x40)\n      dup1\n      swap2\n      sub\n      swap1\n      revert\n        /* \"contracts/ERC721TokenContractName.sol\":4395:4605  if (!(_msgSender() == previousOwner || isApprovedForAll(previousOwner, _msgSender()) || getApproved(tokenId) == _msgSender())) {... */\n    tag_244:\n        /* \"contracts/ERC721TokenContractName.sol\":4646:4650  from */\n      dup4\n        /* \"contracts/ERC721TokenContractName.sol\":4629:4650  previousOwner != from */\n      0xffffffffffffffffffffffffffffffffffffffff\n      and\n        /* \"contracts/ERC721TokenContractName.sol\":4629:4642  previousOwner */\n      dup2\n        /* \"contracts/ERC721TokenContractName.sol\":4629:4650  previousOwner != from */\n      0xffffffffffffffffffffffffffffffffffffffff\n      and\n      eq\n        /* \"contracts/ERC721TokenContractName.sol\":4625:4736  if (previousOwner != from) {... */\n      tag_248\n      jumpi\n        /* \"contracts/ERC721TokenContractName.sol\":4695:4699  from */\n      dup4\n        /* \"contracts/ERC721TokenContractName.sol\":4701:4708  tokenId */\n      dup3\n        /* \"contracts/ERC721TokenContractName.sol\":4710:4723  previousOwner */\n      dup3\n        /* \"contracts/ERC721TokenContractName.sol\":4674:4724  ERC721IncorrectOwner(from, tokenId, previousOwner) */\n      mload(0x40)\n      0x64283d7b00000000000000000000000000000000000000000000000000000000\n      dup2\n      mstore\n      0x04\n      add\n      tag_249\n      swap4\n      swap3\n      swap2\n      swap1\n      tag_250\n      jump\t// in\n    tag_249:\n      mload(0x40)\n      dup1\n      swap2\n      sub\n      swap1\n      revert\n        /* \"contracts/ERC721TokenContractName.sol\":4625:4736  if (previousOwner != from) {... */\n    tag_248:\n        /* \"contracts/ERC721TokenContractName.sol\":4748:4791  _aprove(address(0), tokenId, previousOwner) */\n      tag_251\n        /* \"contracts/ERC721TokenContractName.sol\":4764:4765  0 */\n      0x00\n        /* \"contracts/ERC721TokenContractName.sol\":4768:4775  tokenId */\n      dup4\n        /* \"contracts/ERC721TokenContractName.sol\":4777:4790  previousOwner */\n      dup4\n        /* \"contracts/ERC721TokenContractName.sol\":4748:4755  _aprove */\n      tag_252\n        /* \"contracts/ERC721TokenContractName.sol\":4748:4791  _aprove(address(0), tokenId, previousOwner) */\n      jump\t// in\n    tag_251:\n        /* \"contracts/ERC721TokenContractName.sol\":5013:5048  _update(to, tokenId, previousOwner) */\n      tag_253\n        /* \"contracts/ERC721TokenContractName.sol\":5021:5023  to */\n      dup4\n        /* \"contracts/ERC721TokenContractName.sol\":5025:5032  tokenId */\n      dup4\n        /* \"contracts/ERC721TokenContractName.sol\":5034:5047  previousOwner */\n      dup4\n        /* \"contracts/ERC721TokenContractName.sol\":5013:5020  _update */\n      tag_218\n        /* \"contracts/ERC721TokenContractName.sol\":5013:5048  _update(to, tokenId, previousOwner) */\n      jump\t// in\n    tag_253:\n        /* \"contracts/ERC721TokenContractName.sol\":4138:5056  {... */\n      pop\n        /* \"contracts/ERC721TokenContractName.sol\":4059:5056  function transferFrom(address from, address to, uint16 tokenId) public virtual {... */\n      pop\n      pop\n      pop\n      jump\t// out\n        /* \"contracts/ERC721TokenContractName.sol\":12636:12693  function stateVoting() public returns(bytes32) {... */\n    tag_55:\n        /* \"contracts/ERC721TokenContractName.sol\":12674:12681  bytes32 */\n      0x00\n        /* \"contracts/ERC721TokenContractName.sol\":12636:12693  function stateVoting() public returns(bytes32) {... */\n      swap1\n      jump\t// out\n        /* \"contracts/ERC721TokenContractName.sol\":2334:2523  function balanceOf(address owner) public view returns (uint16) {... */\n    tag_61:\n        /* \"contracts/ERC721TokenContractName.sol\":2389:2395  uint16 */\n      0x00\n        /* \"contracts/ERC721TokenContractName.sol\":2433:2434  0 */\n      dup1\n        /* \"contracts/ERC721TokenContractName.sol\":2416:2435  owner != address(0) */\n      0xffffffffffffffffffffffffffffffffffffffff\n      and\n        /* \"contracts/ERC721TokenContractName.sol\":2416:2421  owner */\n      dup3\n        /* \"contracts/ERC721TokenContractName.sol\":2416:2435  owner != address(0) */\n      0xffffffffffffffffffffffffffffffffffffffff\n      and\n      sub\n        /* \"contracts/ERC721TokenContractName.sol\":2408:2471  require(owner != address(0),\"The input address cannot be zero\") */\n      tag_256\n      jumpi\n      mload(0x40)\n      0x08c379a000000000000000000000000000000000000000000000000000000000\n      dup2\n      mstore\n      0x04\n      add\n      tag_257\n      swap1\n      tag_258\n      jump\t// in\n    tag_257:\n      mload(0x40)\n      dup1\n      swap2\n      sub\n      swap1\n      revert\n    tag_256:\n        /* \"contracts/ERC721TokenContractName.sol\":2489:2505  _balanceAndTokId */\n      0x0a7e\n        /* \"contracts/ERC721TokenContractName.sol\":2489:2512  _balanceAndTokId[owner] */\n      0x00\n        /* \"contracts/ERC721TokenContractName.sol\":2506:2511  owner */\n      dup4\n        /* \"contracts/ERC721TokenContractName.sol\":2489:2512  _balanceAndTokId[owner] */\n      0xffffffffffffffffffffffffffffffffffffffff\n      and\n      0xffffffffffffffffffffffffffffffffffffffff\n      and\n      dup2\n      mstore\n      0x20\n      add\n      swap1\n      dup2\n      mstore\n      0x20\n      add\n      0x00\n      keccak256\n        /* \"contracts/ERC721TokenContractName.sol\":2513:2514  0 */\n      0x00\n        /* \"contracts/ERC721TokenContractName.sol\":2489:2515  _balanceAndTokId[owner][0] */\n      0x04b1\n      dup2\n      lt\n      tag_259\n      jumpi\n      tag_260\n      tag_142\n      jump\t// in\n    tag_260:\n    tag_259:\n      0x10\n      swap2\n      dup3\n      dup3\n      div\n      add\n      swap2\n      swap1\n      mod\n      0x02\n      mul\n      swap1\n      sload\n      swap1\n      0x0100\n      exp\n      swap1\n      div\n      0xffff\n      and\n        /* \"contracts/ERC721TokenContractName.sol\":2482:2515  return _balanceAndTokId[owner][0] */\n      swap1\n      pop\n        /* \"contracts/ERC721TokenContractName.sol\":2334:2523  function balanceOf(address owner) public view returns (uint16) {... */\n      swap2\n      swap1\n      pop\n      jump\t// out\n        /* \"contracts/ERC721TokenContractName.sol\":2533:2644  function ownerOf(uint16 tokenId) public view returns (address) {... */\n    tag_68:\n        /* \"contracts/ERC721TokenContractName.sol\":2587:2594  address */\n      0x00\n        /* \"contracts/ERC721TokenContractName.sol\":2614:2636  _requireOwned(tokenId) */\n      tag_263\n        /* \"contracts/ERC721TokenContractName.sol\":2628:2635  tokenId */\n      dup3\n        /* \"contracts/ERC721TokenContractName.sol\":2614:2627  _requireOwned */\n      tag_230\n        /* \"contracts/ERC721TokenContractName.sol\":2614:2636  _requireOwned(tokenId) */\n      jump\t// in\n    tag_263:\n        /* \"contracts/ERC721TokenContractName.sol\":2607:2636  return _requireOwned(tokenId) */\n      swap1\n      pop\n        /* \"contracts/ERC721TokenContractName.sol\":2533:2644  function ownerOf(uint16 tokenId) public view returns (address) {... */\n      swap2\n      swap1\n      pop\n      jump\t// out\n        /* \"contracts/ERC721TokenContractName.sol\":3300:3460  function getApproved(uint16 tokenId) public view virtual returns (address) {... */\n    tag_74:\n        /* \"contracts/ERC721TokenContractName.sol\":3366:3373  address */\n      0x00\n        /* \"contracts/ERC721TokenContractName.sol\":3386:3408  _requireOwned(tokenId) */\n      tag_265\n        /* \"contracts/ERC721TokenContractName.sol\":3400:3407  tokenId */\n      dup3\n        /* \"contracts/ERC721TokenContractName.sol\":3386:3399  _requireOwned */\n      tag_230\n        /* \"contracts/ERC721TokenContractName.sol\":3386:3408  _requireOwned(tokenId) */\n      jump\t// in\n    tag_265:\n      pop\n        /* \"contracts/ERC721TokenContractName.sol\":3428:3443  _tokenApprovals */\n      0x0a7f\n        /* \"contracts/ERC721TokenContractName.sol\":3428:3452  _tokenApprovals[tokenId] */\n      0x00\n        /* \"contracts/ERC721TokenContractName.sol\":3444:3451  tokenId */\n      dup4\n        /* \"contracts/ERC721TokenContractName.sol\":3428:3452  _tokenApprovals[tokenId] */\n      0xffff\n      and\n      0xffff\n      and\n      dup2\n      mstore\n      0x20\n      add\n      swap1\n      dup2\n      mstore\n      0x20\n      add\n      0x00\n      keccak256\n      0x00\n      swap1\n      sload\n      swap1\n      0x0100\n      exp\n      swap1\n      div\n      0xffffffffffffffffffffffffffffffffffffffff\n      and\n        /* \"contracts/ERC721TokenContractName.sol\":3421:3452  return _tokenApprovals[tokenId] */\n      swap1\n      pop\n        /* \"contracts/ERC721TokenContractName.sol\":3300:3460  function getApproved(uint16 tokenId) public view virtual returns (address) {... */\n      swap2\n      swap1\n      pop\n      jump\t// out\n        /* \"contracts/ERC721TokenContractName.sol\":2243:2324  function symbol() public view returns (bytes10) {... */\n    tag_78:\n        /* \"contracts/ERC721TokenContractName.sol\":2282:2289  bytes10 */\n      0x00\n        /* \"contracts/ERC721TokenContractName.sol\":2309:2316  _symbol */\n      dup1\n      0x14\n      swap1\n      sload\n      swap1\n      0x0100\n      exp\n      swap1\n      div\n      0xb0\n      shl\n        /* \"contracts/ERC721TokenContractName.sol\":2302:2316  return _symbol */\n      swap1\n      pop\n        /* \"contracts/ERC721TokenContractName.sol\":2243:2324  function symbol() public view returns (bytes10) {... */\n      swap1\n      jump\t// out\n        /* \"contracts/ERC721TokenContractName.sol\":3468:3894  function setApprovalForAll(address operator, bool approved) public {... */\n    tag_85:\n        /* \"contracts/ERC721TokenContractName.sol\":3570:3578  operator */\n      dup2\n        /* \"contracts/ERC721TokenContractName.sol\":3554:3578  _msgSender() != operator */\n      0xffffffffffffffffffffffffffffffffffffffff\n      and\n        /* \"contracts/ERC721TokenContractName.sol\":3554:3566  _msgSender() */\n      tag_268\n        /* \"contracts/ERC721TokenContractName.sol\":3554:3564  _msgSender */\n      tag_132\n        /* \"contracts/ERC721TokenContractName.sol\":3554:3566  _msgSender() */\n      jump\t// in\n    tag_268:\n        /* \"contracts/ERC721TokenContractName.sol\":3554:3578  _msgSender() != operator */\n      0xffffffffffffffffffffffffffffffffffffffff\n      and\n      sub\n        /* \"contracts/ERC721TokenContractName.sol\":3546:3642  require(_msgSender() != operator, \"The address of the owner and the operator must be different\") */\n      tag_269\n      jumpi\n      mload(0x40)\n      0x08c379a000000000000000000000000000000000000000000000000000000000\n      dup2\n      mstore\n      0x04\n      add\n      tag_270\n      swap1\n      tag_271\n      jump\t// in\n    tag_270:\n      mload(0x40)\n      dup1\n      swap2\n      sub\n      swap1\n      revert\n    tag_269:\n        /* \"contracts/ERC721TokenContractName.sol\":3679:3680  0 */\n      0x00\n        /* \"contracts/ERC721TokenContractName.sol\":3659:3681  operator == address(0) */\n      0xffffffffffffffffffffffffffffffffffffffff\n      and\n        /* \"contracts/ERC721TokenContractName.sol\":3659:3667  operator */\n      dup3\n        /* \"contracts/ERC721TokenContractName.sol\":3659:3681  operator == address(0) */\n      0xffffffffffffffffffffffffffffffffffffffff\n      and\n      sub\n        /* \"contracts/ERC721TokenContractName.sol\":3655:3748  if (operator == address(0)) {... */\n      tag_272\n      jumpi\n        /* \"contracts/ERC721TokenContractName.sol\":3727:3735  operator */\n      dup2\n        /* \"contracts/ERC721TokenContractName.sol\":3705:3736  ERC721InvalidOperator(operator) */\n      mload(0x40)\n      0x5b08ba1800000000000000000000000000000000000000000000000000000000\n      dup2\n      mstore\n      0x04\n      add\n      tag_273\n      swap2\n      swap1\n      tag_70\n      jump\t// in\n    tag_273:\n      mload(0x40)\n      dup1\n      swap2\n      sub\n      swap1\n      revert\n        /* \"contracts/ERC721TokenContractName.sol\":3655:3748  if (operator == address(0)) {... */\n    tag_272:\n        /* \"contracts/ERC721TokenContractName.sol\":3813:3821  approved */\n      dup1\n        /* \"contracts/ERC721TokenContractName.sol\":3768:3786  _operatorApprovals */\n      0x0a80\n        /* \"contracts/ERC721TokenContractName.sol\":3768:3800  _operatorApprovals[_msgSender()] */\n      0x00\n        /* \"contracts/ERC721TokenContractName.sol\":3787:3799  _msgSender() */\n      tag_274\n        /* \"contracts/ERC721TokenContractName.sol\":3787:3797  _msgSender */\n      tag_132\n        /* \"contracts/ERC721TokenContractName.sol\":3787:3799  _msgSender() */\n      jump\t// in\n    tag_274:\n        /* \"contracts/ERC721TokenContractName.sol\":3768:3800  _operatorApprovals[_msgSender()] */\n      0xffffffffffffffffffffffffffffffffffffffff\n      and\n      0xffffffffffffffffffffffffffffffffffffffff\n      and\n      dup2\n      mstore\n      0x20\n      add\n      swap1\n      dup2\n      mstore\n      0x20\n      add\n      0x00\n      keccak256\n        /* \"contracts/ERC721TokenContractName.sol\":3768:3810  _operatorApprovals[_msgSender()][operator] */\n      0x00\n        /* \"contracts/ERC721TokenContractName.sol\":3801:3809  operator */\n      dup5\n        /* \"contracts/ERC721TokenContractName.sol\":3768:3810  _operatorApprovals[_msgSender()][operator] */\n      0xffffffffffffffffffffffffffffffffffffffff\n      and\n      0xffffffffffffffffffffffffffffffffffffffff\n      and\n      dup2\n      mstore\n      0x20\n      add\n      swap1\n      dup2\n      mstore\n      0x20\n      add\n      0x00\n      keccak256\n      0x00\n        /* \"contracts/ERC721TokenContractName.sol\":3768:3821  _operatorApprovals[_msgSender()][operator] = approved */\n      0x0100\n      exp\n      dup2\n      sload\n      dup2\n      0xff\n      mul\n      not\n      and\n      swap1\n      dup4\n      iszero\n      iszero\n      mul\n      or\n      swap1\n      sstore\n      pop\n        /* \"contracts/ERC721TokenContractName.sol\":3867:3875  operator */\n      dup2\n        /* \"contracts/ERC721TokenContractName.sol\":3838:3886  ApprovalForAll(_msgSender(), operator, approved) */\n      0xffffffffffffffffffffffffffffffffffffffff\n      and\n        /* \"contracts/ERC721TokenContractName.sol\":3853:3865  _msgSender() */\n      tag_275\n        /* \"contracts/ERC721TokenContractName.sol\":3853:3863  _msgSender */\n      tag_132\n        /* \"contracts/ERC721TokenContractName.sol\":3853:3865  _msgSender() */\n      jump\t// in\n    tag_275:\n        /* \"contracts/ERC721TokenContractName.sol\":3838:3886  ApprovalForAll(_msgSender(), operator, approved) */\n      0xffffffffffffffffffffffffffffffffffffffff\n      and\n      0x17307eab39ab6107e8899845ad3d59bd9653f200f220920489ca2b5937696c31\n        /* \"contracts/ERC721TokenContractName.sol\":3877:3885  approved */\n      dup4\n        /* \"contracts/ERC721TokenContractName.sol\":3838:3886  ApprovalForAll(_msgSender(), operator, approved) */\n      mload(0x40)\n      tag_276\n      swap2\n      swap1\n      tag_48\n      jump\t// in\n    tag_276:\n      mload(0x40)\n      dup1\n      swap2\n      sub\n      swap1\n      log3\n        /* \"contracts/ERC721TokenContractName.sol\":3468:3894  function setApprovalForAll(address operator, bool approved) public {... */\n      pop\n      pop\n      jump\t// out\n        /* \"contracts/ERC721TokenContractName.sol\":5205:5415  function safeTransferFrom(address from, address to, uint16 tokenId, bytes memory data) public virtual {... */\n    tag_90:\n        /* \"contracts/ERC721TokenContractName.sol\":5318:5349  transferFrom(from, to, tokenId) */\n      tag_278\n        /* \"contracts/ERC721TokenContractName.sol\":5331:5335  from */\n      dup5\n        /* \"contracts/ERC721TokenContractName.sol\":5337:5339  to */\n      dup5\n        /* \"contracts/ERC721TokenContractName.sol\":5341:5348  tokenId */\n      dup5\n        /* \"contracts/ERC721TokenContractName.sol\":5318:5330  transferFrom */\n      tag_52\n        /* \"contracts/ERC721TokenContractName.sol\":5318:5349  transferFrom(from, to, tokenId) */\n      jump\t// in\n    tag_278:\n        /* \"contracts/ERC721TokenContractName.sol\":5360:5407  _checkOnERC721Received(from, to, tokenId, data) */\n      tag_279\n        /* \"contracts/ERC721TokenContractName.sol\":5383:5387  from */\n      dup5\n        /* \"contracts/ERC721TokenContractName.sol\":5389:5391  to */\n      dup5\n        /* \"contracts/ERC721TokenContractName.sol\":5393:5400  tokenId */\n      dup5\n        /* \"contracts/ERC721TokenContractName.sol\":5402:5406  data */\n      dup5\n        /* \"contracts/ERC721TokenContractName.sol\":5360:5382  _checkOnERC721Received */\n      tag_280\n        /* \"contracts/ERC721TokenContractName.sol\":5360:5407  _checkOnERC721Received(from, to, tokenId, data) */\n      jump\t// in\n    tag_279:\n        /* \"contracts/ERC721TokenContractName.sol\":5205:5415  function safeTransferFrom(address from, address to, uint16 tokenId, bytes memory data) public virtual {... */\n      pop\n      pop\n      pop\n      pop\n      jump\t// out\n        /* \"contracts/ERC721TokenContractName.sol\":12365:12530  function onERC721Received(... */\n    tag_95:\n        /* \"contracts/ERC721TokenContractName.sol\":12521:12527  bytes4 */\n      0x00\n        /* \"contracts/ERC721TokenContractName.sol\":12365:12530  function onERC721Received(... */\n      swap6\n      swap5\n      pop\n      pop\n      pop\n      pop\n      pop\n      jump\t// out\n        /* \"contracts/ERC721TokenContractName.sol\":6773:7700  function setRegister(uint48 salt_) public payable returns (bytes memory) { // accsesemit barash benevis baraye tasir gozari dar dastresi... */\n    tag_101:\n        /* \"contracts/ERC721TokenContractName.sol\":6832:6844  bytes memory */\n      0x60\n        /* \"contracts/ERC721TokenContractName.sol\":6952:6960  mintInfo */\n      0x01\n        /* \"contracts/ERC721TokenContractName.sol\":6952:6968  mintInfo.maxMint */\n      0x00\n      add\n      0x00\n      swap1\n      sload\n      swap1\n      0x0100\n      exp\n      swap1\n      div\n      0xffff\n      and\n        /* \"contracts/ERC721TokenContractName.sol\":6927:6968  mintInfo.nRegistrants <= mintInfo.maxMint */\n      0xffff\n      and\n        /* \"contracts/ERC721TokenContractName.sol\":6927:6935  mintInfo */\n      0x01\n        /* \"contracts/ERC721TokenContractName.sol\":6927:6948  mintInfo.nRegistrants */\n      0x00\n      add\n      0x04\n      swap1\n      sload\n      swap1\n      0x0100\n      exp\n      swap1\n      div\n      0xffff\n      and\n        /* \"contracts/ERC721TokenContractName.sol\":6927:6968  mintInfo.nRegistrants <= mintInfo.maxMint */\n      0xffff\n      and\n      gt\n      iszero\n        /* \"contracts/ERC721TokenContractName.sol\":6927:7021  mintInfo.nRegistrants <= mintInfo.maxMint && mintInfo.registrationStartTime <= block.timestamp */\n      dup1\n      iszero\n      tag_283\n      jumpi\n      pop\n        /* \"contracts/ERC721TokenContractName.sol\":7006:7021  block.timestamp */\n      timestamp\n        /* \"contracts/ERC721TokenContractName.sol\":6972:6980  mintInfo */\n      0x01\n        /* \"contracts/ERC721TokenContractName.sol\":6972:7002  mintInfo.registrationStartTime */\n      0x02\n      add\n      sload\n        /* \"contracts/ERC721TokenContractName.sol\":6972:7021  mintInfo.registrationStartTime <= block.timestamp */\n      gt\n      iszero\n        /* \"contracts/ERC721TokenContractName.sol\":6927:7021  mintInfo.nRegistrants <= mintInfo.maxMint && mintInfo.registrationStartTime <= block.timestamp */\n    tag_283:\n        /* \"contracts/ERC721TokenContractName.sol\":6919:7060  require(mintInfo.nRegistrants <= mintInfo.maxMint && mintInfo.registrationStartTime <= block.timestamp, \"It is not possible to register now\") */\n      tag_284\n      jumpi\n      mload(0x40)\n      0x08c379a000000000000000000000000000000000000000000000000000000000\n      dup2\n      mstore\n      0x04\n      add\n      tag_285\n      swap1\n      tag_286\n      jump\t// in\n    tag_285:\n      mload(0x40)\n      dup1\n      swap2\n      sub\n      swap1\n      revert\n    tag_284:\n        /* \"contracts/ERC721TokenContractName.sol\":7103:7104  0 */\n      0x00\n        /* \"contracts/ERC721TokenContractName.sol\":7079:7105  _msgSender() != address(0) */\n      0xffffffffffffffffffffffffffffffffffffffff\n      and\n        /* \"contracts/ERC721TokenContractName.sol\":7079:7091  _msgSender() */\n      tag_287\n        /* \"contracts/ERC721TokenContractName.sol\":7079:7089  _msgSender */\n      tag_132\n        /* \"contracts/ERC721TokenContractName.sol\":7079:7091  _msgSender() */\n      jump\t// in\n    tag_287:\n        /* \"contracts/ERC721TokenContractName.sol\":7079:7105  _msgSender() != address(0) */\n      0xffffffffffffffffffffffffffffffffffffffff\n      and\n      eq\n      iszero\n        /* \"contracts/ERC721TokenContractName.sol\":7079:7138  _msgSender() != address(0) && _msgSender().code.length == 0 */\n      dup1\n      iszero\n      tag_288\n      jumpi\n      pop\n        /* \"contracts/ERC721TokenContractName.sol\":7137:7138  0 */\n      0x00\n        /* \"contracts/ERC721TokenContractName.sol\":7109:7121  _msgSender() */\n      tag_289\n        /* \"contracts/ERC721TokenContractName.sol\":7109:7119  _msgSender */\n      tag_132\n        /* \"contracts/ERC721TokenContractName.sol\":7109:7121  _msgSender() */\n      jump\t// in\n    tag_289:\n        /* \"contracts/ERC721TokenContractName.sol\":7109:7133  _msgSender().code.length */\n      0xffffffffffffffffffffffffffffffffffffffff\n      and\n      extcodesize\n        /* \"contracts/ERC721TokenContractName.sol\":7109:7138  _msgSender().code.length == 0 */\n      eq\n        /* \"contracts/ERC721TokenContractName.sol\":7079:7138  _msgSender() != address(0) && _msgSender().code.length == 0 */\n    tag_288:\n        /* \"contracts/ERC721TokenContractName.sol\":7071:7214  require(_msgSender() != address(0) && _msgSender().code.length == 0,\"The address of the registrant must not be 0 or the address of a contract\") */\n      tag_290\n      jumpi\n      mload(0x40)\n      0x08c379a000000000000000000000000000000000000000000000000000000000\n      dup2\n      mstore\n      0x04\n      add\n      tag_291\n      swap1\n      tag_292\n      jump\t// in\n    tag_291:\n      mload(0x40)\n      dup1\n      swap2\n      sub\n      swap1\n      revert\n    tag_290:\n        /* \"contracts/ERC721TokenContractName.sol\":7246:7254  mintInfo */\n      0x01\n        /* \"contracts/ERC721TokenContractName.sol\":7246:7264  mintInfo.mintPrice */\n      0x03\n      add\n      sload\n        /* \"contracts/ERC721TokenContractName.sol\":7233:7242  msg.value */\n      callvalue\n        /* \"contracts/ERC721TokenContractName.sol\":7233:7264  msg.value >= mintInfo.mintPrice */\n      lt\n      iszero\n        /* \"contracts/ERC721TokenContractName.sol\":7225:7318  require(msg.value >= mintInfo.mintPrice, \"The amount should not be less than the mint price\") */\n      tag_293\n      jumpi\n      mload(0x40)\n      0x08c379a000000000000000000000000000000000000000000000000000000000\n      dup2\n      mstore\n      0x04\n      add\n      tag_294\n      swap1\n      tag_295\n      jump\t// in\n    tag_294:\n      mload(0x40)\n      dup1\n      swap2\n      sub\n      swap1\n      revert\n    tag_293:\n        /* \"contracts/ERC721TokenContractName.sol\":7332:7341  bool paid */\n      0x00\n        /* \"contracts/ERC721TokenContractName.sol\":7343:7360  bytes memory data */\n      dup1\n        /* \"contracts/ERC721TokenContractName.sol\":7364:7372  mintInfo */\n      0x01\n        /* \"contracts/ERC721TokenContractName.sol\":7364:7384  mintInfo.bankAddress */\n      dup1\n      add\n      0x00\n      swap1\n      sload\n      swap1\n      0x0100\n      exp\n      swap1\n      div\n      0xffffffffffffffffffffffffffffffffffffffff\n      and\n        /* \"contracts/ERC721TokenContractName.sol\":7364:7389  mintInfo.bankAddress.call */\n      0xffffffffffffffffffffffffffffffffffffffff\n      and\n        /* \"contracts/ERC721TokenContractName.sol\":7398:7407  msg.value */\n      callvalue\n        /* \"contracts/ERC721TokenContractName.sol\":7364:7412  mintInfo.bankAddress.call{value : msg.value}(\"\") */\n      mload(0x40)\n      tag_296\n      swap1\n      tag_297\n      jump\t// in\n    tag_296:\n      0x00\n      mload(0x40)\n      dup1\n      dup4\n      sub\n      dup2\n      dup6\n      dup8\n      gas\n      call\n      swap3\n      pop\n      pop\n      pop\n      returndatasize\n      dup1\n      0x00\n      dup2\n      eq\n      tag_300\n      jumpi\n      mload(0x40)\n      swap2\n      pop\n      and(add(returndatasize, 0x3f), not(0x1f))\n      dup3\n      add\n      0x40\n      mstore\n      returndatasize\n      dup3\n      mstore\n      returndatasize\n      0x00\n      0x20\n      dup5\n      add\n      returndatacopy\n      jump(tag_299)\n    tag_300:\n      0x60\n      swap2\n      pop\n    tag_299:\n      pop\n        /* \"contracts/ERC721TokenContractName.sol\":7331:7412  (bool paid, bytes memory data) = mintInfo.bankAddress.call{value : msg.value}(\"\") */\n      swap2\n      pop\n      swap2\n      pop\n        /* \"contracts/ERC721TokenContractName.sol\":7431:7435  paid */\n      dup2\n        /* \"contracts/ERC721TokenContractName.sol\":7423:7463  require(paid, \"The amount was not sent\") */\n      tag_301\n      jumpi\n      mload(0x40)\n      0x08c379a000000000000000000000000000000000000000000000000000000000\n      dup2\n      mstore\n      0x04\n      add\n      tag_302\n      swap1\n      tag_303\n      jump\t// in\n    tag_302:\n      mload(0x40)\n      dup1\n      swap2\n      sub\n      swap1\n      revert\n    tag_301:\n        /* \"contracts/ERC721TokenContractName.sol\":7478:7486  mintInfo */\n      0x01\n        /* \"contracts/ERC721TokenContractName.sol\":7478:7499  mintInfo.nRegistrants */\n      0x00\n      add\n      0x04\n        /* \"contracts/ERC721TokenContractName.sol\":7476:7499  ++mintInfo.nRegistrants */\n      dup2\n      dup2\n      swap1\n      sload\n      swap1\n      0x0100\n      exp\n      swap1\n      div\n      0xffff\n      and\n      tag_304\n      swap1\n      tag_174\n      jump\t// in\n    tag_304:\n      swap2\n      swap1\n      0x0100\n      exp\n      dup2\n      sload\n      dup2\n      0xffff\n      mul\n      not\n      and\n      swap1\n      dup4\n      0xffff\n      and\n      mul\n      or\n      swap1\n      sstore\n      pop\n        /* \"contracts/ERC721TokenContractName.sol\":7550:7555  salt_ */\n      dup4\n        /* \"contracts/ERC721TokenContractName.sol\":7510:7518  mintInfo */\n      0x01\n        /* \"contracts/ERC721TokenContractName.sol\":7510:7524  mintInfo.salts */\n      0x04\n      add\n        /* \"contracts/ERC721TokenContractName.sol\":7525:7533  mintInfo */\n      0x01\n        /* \"contracts/ERC721TokenContractName.sol\":7525:7546  mintInfo.nRegistrants */\n      0x00\n      add\n      0x04\n      swap1\n      sload\n      swap1\n      0x0100\n      exp\n      swap1\n      div\n      0xffff\n      and\n        /* \"contracts/ERC721TokenContractName.sol\":7510:7547  mintInfo.salts[mintInfo.nRegistrants] */\n      0xffff\n      and\n      0x04b1\n      dup2\n      lt\n      tag_305\n      jumpi\n      tag_306\n      tag_142\n      jump\t// in\n    tag_306:\n    tag_305:\n      0x05\n      swap2\n      dup3\n      dup3\n      div\n      add\n      swap2\n      swap1\n      mod\n      0x06\n      mul\n        /* \"contracts/ERC721TokenContractName.sol\":7510:7555  mintInfo.salts[mintInfo.nRegistrants] = salt_ */\n      0x0100\n      exp\n      dup2\n      sload\n      dup2\n      0xffffffffffff\n      mul\n      not\n      and\n      swap1\n      dup4\n      0xffffffffffff\n      and\n      mul\n      or\n      swap1\n      sstore\n      pop\n        /* \"contracts/ERC721TokenContractName.sol\":7587:7592  salt_ */\n      dup4\n        /* \"contracts/ERC721TokenContractName.sol\":7566:7574  mintInfo */\n      0x01\n        /* \"contracts/ERC721TokenContractName.sol\":7566:7580  mintInfo.salts */\n      0x04\n      add\n        /* \"contracts/ERC721TokenContractName.sol\":7581:7582  0 */\n      0x00\n        /* \"contracts/ERC721TokenContractName.sol\":7566:7583  mintInfo.salts[0] */\n      0x04b1\n      dup2\n      lt\n      tag_308\n      jumpi\n      tag_309\n      tag_142\n      jump\t// in\n    tag_309:\n    tag_308:\n      0x05\n      swap2\n      dup3\n      dup3\n      div\n      add\n      swap2\n      swap1\n      mod\n      0x06\n      mul\n        /* \"contracts/ERC721TokenContractName.sol\":7566:7592  mintInfo.salts[0] += salt_ */\n      dup3\n      dup3\n      dup3\n      swap1\n      sload\n      swap1\n      0x0100\n      exp\n      swap1\n      div\n      0xffffffffffff\n      and\n      tag_311\n      swap2\n      swap1\n      tag_192\n      jump\t// in\n    tag_311:\n      swap3\n      pop\n      0x0100\n      exp\n      dup2\n      sload\n      dup2\n      0xffffffffffff\n      mul\n      not\n      and\n      swap1\n      dup4\n      0xffffffffffff\n      and\n      mul\n      or\n      swap1\n      sstore\n      pop\n        /* \"contracts/ERC721TokenContractName.sol\":7648:7660  _msgSender() */\n      tag_312\n        /* \"contracts/ERC721TokenContractName.sol\":7648:7658  _msgSender */\n      tag_132\n        /* \"contracts/ERC721TokenContractName.sol\":7648:7660  _msgSender() */\n      jump\t// in\n    tag_312:\n        /* \"contracts/ERC721TokenContractName.sol\":7603:7611  mintInfo */\n      0x01\n        /* \"contracts/ERC721TokenContractName.sol\":7603:7623  mintInfo.registrants */\n      0xf5\n      add\n        /* \"contracts/ERC721TokenContractName.sol\":7624:7632  mintInfo */\n      0x01\n        /* \"contracts/ERC721TokenContractName.sol\":7624:7645  mintInfo.nRegistrants */\n      0x00\n      add\n      0x04\n      swap1\n      sload\n      swap1\n      0x0100\n      exp\n      swap1\n      div\n      0xffff\n      and\n        /* \"contracts/ERC721TokenContractName.sol\":7603:7646  mintInfo.registrants[mintInfo.nRegistrants] */\n      0xffff\n      and\n      0x04b1\n      dup2\n      lt\n      tag_313\n      jumpi\n      tag_314\n      tag_142\n      jump\t// in\n    tag_314:\n    tag_313:\n      add\n      0x00\n        /* \"contracts/ERC721TokenContractName.sol\":7603:7660  mintInfo.registrants[mintInfo.nRegistrants] =_msgSender() */\n      0x0100\n      exp\n      dup2\n      sload\n      dup2\n      0xffffffffffffffffffffffffffffffffffffffff\n      mul\n      not\n      and\n      swap1\n      dup4\n      0xffffffffffffffffffffffffffffffffffffffff\n      and\n      mul\n      or\n      swap1\n      sstore\n      pop\n        /* \"contracts/ERC721TokenContractName.sol\":7688:7692  data */\n      dup1\n        /* \"contracts/ERC721TokenContractName.sol\":7681:7692  return data */\n      swap3\n      pop\n      pop\n      pop\n        /* \"contracts/ERC721TokenContractName.sol\":6773:7700  function setRegister(uint48 salt_) public payable returns (bytes memory) { // accsesemit barash benevis baraye tasir gozari dar dastresi... */\n      swap2\n      swap1\n      pop\n      jump\t// out\n        /* \"contracts/ERC721TokenContractName.sol\":2654:2894  function tokenURI(uint16 tokenId) public view returns (string memory) {... */\n    tag_107:\n        /* \"contracts/ERC721TokenContractName.sol\":2709:2722  string memory */\n      0x60\n        /* \"contracts/ERC721TokenContractName.sol\":2735:2757  _requireOwned(tokenId) */\n      tag_317\n        /* \"contracts/ERC721TokenContractName.sol\":2749:2756  tokenId */\n      dup3\n        /* \"contracts/ERC721TokenContractName.sol\":2735:2748  _requireOwned */\n      tag_230\n        /* \"contracts/ERC721TokenContractName.sol\":2735:2757  _requireOwned(tokenId) */\n      jump\t// in\n    tag_317:\n      pop\n        /* \"contracts/ERC721TokenContractName.sol\":2768:2786  string memory base */\n      0x00\n        /* \"contracts/ERC721TokenContractName.sol\":2789:2799  _baseURI() */\n      tag_318\n        /* \"contracts/ERC721TokenContractName.sol\":2789:2797  _baseURI */\n      tag_319\n        /* \"contracts/ERC721TokenContractName.sol\":2789:2799  _baseURI() */\n      jump\t// in\n    tag_318:\n        /* \"contracts/ERC721TokenContractName.sol\":2768:2799  string memory base = _baseURI() */\n      swap1\n      pop\n        /* \"contracts/ERC721TokenContractName.sol\":2838:2839  0 */\n      0x00\n        /* \"contracts/ERC721TokenContractName.sol\":2823:2827  base */\n      dup2\n        /* \"contracts/ERC721TokenContractName.sol\":2817:2835  bytes(base).length */\n      mload\n        /* \"contracts/ERC721TokenContractName.sol\":2817:2839  bytes(base).length > 0 */\n      gt\n        /* \"contracts/ERC721TokenContractName.sol\":2817:2886  bytes(base).length > 0 ? string.concat(base, tokenId.toString()) : \"\" */\n      tag_320\n      jumpi\n      mload(0x40)\n      dup1\n      0x20\n      add\n      0x40\n      mstore\n      dup1\n      0x00\n      dup2\n      mstore\n      pop\n      jump(tag_321)\n    tag_320:\n        /* \"contracts/ERC721TokenContractName.sol\":2856:2860  base */\n      dup1\n        /* \"contracts/ERC721TokenContractName.sol\":2862:2880  tokenId.toString() */\n      tag_322\n        /* \"contracts/ERC721TokenContractName.sol\":2862:2869  tokenId */\n      dup5\n        /* \"contracts/ERC721TokenContractName.sol\":2862:2878  tokenId.toString */\n      0xffff\n      and\n      tag_323\n        /* \"contracts/ERC721TokenContractName.sol\":2862:2880  tokenId.toString() */\n      jump\t// in\n    tag_322:\n        /* \"contracts/ERC721TokenContractName.sol\":2842:2881  string.concat(base, tokenId.toString()) */\n      add(0x20, mload(0x40))\n      tag_324\n      swap3\n      swap2\n      swap1\n      tag_325\n      jump\t// in\n    tag_324:\n      mload(0x40)\n      0x20\n      dup2\n      dup4\n      sub\n      sub\n      dup2\n      mstore\n      swap1\n      0x40\n      mstore\n        /* \"contracts/ERC721TokenContractName.sol\":2817:2886  bytes(base).length > 0 ? string.concat(base, tokenId.toString()) : \"\" */\n    tag_321:\n        /* \"contracts/ERC721TokenContractName.sol\":2810:2886  return bytes(base).length > 0 ? string.concat(base, tokenId.toString()) : \"\" */\n      swap2\n      pop\n      pop\n        /* \"contracts/ERC721TokenContractName.sol\":2654:2894  function tokenURI(uint16 tokenId) public view returns (string memory) {... */\n      swap2\n      swap1\n      pop\n      jump\t// out\n        /* \"contracts/ERC721TokenContractName.sol\":2904:3292  function approve(address to, uint16 tokenId) public {... */\n    tag_114:\n        /* \"contracts/ERC721TokenContractName.sol\":2967:2980  address owner */\n      0x00\n        /* \"contracts/ERC721TokenContractName.sol\":2983:3005  _requireOwned(tokenId) */\n      tag_327\n        /* \"contracts/ERC721TokenContractName.sol\":2997:3004  tokenId */\n      dup3\n        /* \"contracts/ERC721TokenContractName.sol\":2983:2996  _requireOwned */\n      tag_230\n        /* \"contracts/ERC721TokenContractName.sol\":2983:3005  _requireOwned(tokenId) */\n      jump\t// in\n    tag_327:\n        /* \"contracts/ERC721TokenContractName.sol\":2967:3005  address owner = _requireOwned(tokenId) */\n      swap1\n      pop\n        /* \"contracts/ERC721TokenContractName.sol\":3035:3037  to */\n      dup3\n        /* \"contracts/ERC721TokenContractName.sol\":3026:3037  owner != to */\n      0xffffffffffffffffffffffffffffffffffffffff\n      and\n        /* \"contracts/ERC721TokenContractName.sol\":3026:3031  owner */\n      dup2\n        /* \"contracts/ERC721TokenContractName.sol\":3026:3037  owner != to */\n      0xffffffffffffffffffffffffffffffffffffffff\n      and\n      sub\n        /* \"contracts/ERC721TokenContractName.sol\":3018:3101  require(owner != to, \"The address of the owner and the operator must be different\") */\n      tag_328\n      jumpi\n      mload(0x40)\n      0x08c379a000000000000000000000000000000000000000000000000000000000\n      dup2\n      mstore\n      0x04\n      add\n      tag_329\n      swap1\n      tag_271\n      jump\t// in\n    tag_329:\n      mload(0x40)\n      dup1\n      swap2\n      sub\n      swap1\n      revert\n    tag_328:\n        /* \"contracts/ERC721TokenContractName.sol\":3126:3138  _msgSender() */\n      tag_330\n        /* \"contracts/ERC721TokenContractName.sol\":3126:3136  _msgSender */\n      tag_132\n        /* \"contracts/ERC721TokenContractName.sol\":3126:3138  _msgSender() */\n      jump\t// in\n    tag_330:\n        /* \"contracts/ERC721TokenContractName.sol\":3117:3138  owner != _msgSender() */\n      0xffffffffffffffffffffffffffffffffffffffff\n      and\n        /* \"contracts/ERC721TokenContractName.sol\":3117:3122  owner */\n      dup2\n        /* \"contracts/ERC721TokenContractName.sol\":3117:3138  owner != _msgSender() */\n      0xffffffffffffffffffffffffffffffffffffffff\n      and\n      eq\n      iszero\n        /* \"contracts/ERC721TokenContractName.sol\":3117:3180  owner != _msgSender() && !isApprovedForAll(owner, _msgSender()) */\n      dup1\n      iszero\n      tag_331\n      jumpi\n      pop\n        /* \"contracts/ERC721TokenContractName.sol\":3143:3180  isApprovedForAll(owner, _msgSender()) */\n      tag_332\n        /* \"contracts/ERC721TokenContractName.sol\":3160:3165  owner */\n      dup2\n        /* \"contracts/ERC721TokenContractName.sol\":3167:3179  _msgSender() */\n      tag_333\n        /* \"contracts/ERC721TokenContractName.sol\":3167:3177  _msgSender */\n      tag_132\n        /* \"contracts/ERC721TokenContractName.sol\":3167:3179  _msgSender() */\n      jump\t// in\n    tag_333:\n        /* \"contracts/ERC721TokenContractName.sol\":3143:3159  isApprovedForAll */\n      tag_119\n        /* \"contracts/ERC721TokenContractName.sol\":3143:3180  isApprovedForAll(owner, _msgSender()) */\n      jump\t// in\n    tag_332:\n        /* \"contracts/ERC721TokenContractName.sol\":3142:3180  !isApprovedForAll(owner, _msgSender()) */\n      iszero\n        /* \"contracts/ERC721TokenContractName.sol\":3117:3180  owner != _msgSender() && !isApprovedForAll(owner, _msgSender()) */\n    tag_331:\n        /* \"contracts/ERC721TokenContractName.sol\":3113:3245  if (owner != _msgSender() && !isApprovedForAll(owner, _msgSender())){... */\n      iszero\n      tag_334\n      jumpi\n        /* \"contracts/ERC721TokenContractName.sol\":3221:3233  _msgSender() */\n      tag_335\n        /* \"contracts/ERC721TokenContractName.sol\":3221:3231  _msgSender */\n      tag_132\n        /* \"contracts/ERC721TokenContractName.sol\":3221:3233  _msgSender() */\n      jump\t// in\n    tag_335:\n        /* \"contracts/ERC721TokenContractName.sol\":3199:3234  ERC721InvalidApprover(_msgSender()) */\n      mload(0x40)\n      0xa9fbf51f00000000000000000000000000000000000000000000000000000000\n      dup2\n      mstore\n      0x04\n      add\n      tag_336\n      swap2\n      swap1\n      tag_70\n      jump\t// in\n    tag_336:\n      mload(0x40)\n      dup1\n      swap2\n      sub\n      swap1\n      revert\n        /* \"contracts/ERC721TokenContractName.sol\":3113:3245  if (owner != _msgSender() && !isApprovedForAll(owner, _msgSender())){... */\n    tag_334:\n        /* \"contracts/ERC721TokenContractName.sol\":3257:3284  _aprove(to, tokenId, owner) */\n      tag_337\n        /* \"contracts/ERC721TokenContractName.sol\":3265:3267  to */\n      dup4\n        /* \"contracts/ERC721TokenContractName.sol\":3269:3276  tokenId */\n      dup4\n        /* \"contracts/ERC721TokenContractName.sol\":3278:3283  owner */\n      dup4\n        /* \"contracts/ERC721TokenContractName.sol\":3257:3264  _aprove */\n      tag_252\n        /* \"contracts/ERC721TokenContractName.sol\":3257:3284  _aprove(to, tokenId, owner) */\n      jump\t// in\n    tag_337:\n        /* \"contracts/ERC721TokenContractName.sol\":2956:3292  {... */\n      pop\n        /* \"contracts/ERC721TokenContractName.sol\":2904:3292  function approve(address to, uint16 tokenId) public {... */\n      pop\n      pop\n      jump\t// out\n        /* \"contracts/ERC721TokenContractName.sol\":3904:4051  function isApprovedForAll(address owner, address operator) public view returns (bool) {... */\n    tag_119:\n        /* \"contracts/ERC721TokenContractName.sol\":3984:3988  bool */\n      0x00\n        /* \"contracts/ERC721TokenContractName.sol\":4008:4026  _operatorApprovals */\n      0x0a80\n        /* \"contracts/ERC721TokenContractName.sol\":4008:4033  _operatorApprovals[owner] */\n      0x00\n        /* \"contracts/ERC721TokenContractName.sol\":4027:4032  owner */\n      dup5\n        /* \"contracts/ERC721TokenContractName.sol\":4008:4033  _operatorApprovals[owner] */\n      0xffffffffffffffffffffffffffffffffffffffff\n      and\n      0xffffffffffffffffffffffffffffffffffffffff\n      and\n      dup2\n      mstore\n      0x20\n      add\n      swap1\n      dup2\n      mstore\n      0x20\n      add\n      0x00\n      keccak256\n        /* \"contracts/ERC721TokenContractName.sol\":4008:4043  _operatorApprovals[owner][operator] */\n      0x00\n        /* \"contracts/ERC721TokenContractName.sol\":4034:4042  operator */\n      dup4\n        /* \"contracts/ERC721TokenContractName.sol\":4008:4043  _operatorApprovals[owner][operator] */\n      0xffffffffffffffffffffffffffffffffffffffff\n      and\n      0xffffffffffffffffffffffffffffffffffffffff\n      and\n      dup2\n      mstore\n      0x20\n      add\n      swap1\n      dup2\n      mstore\n      0x20\n      add\n      0x00\n      keccak256\n      0x00\n      swap1\n      sload\n      swap1\n      0x0100\n      exp\n      swap1\n      div\n      0xff\n      and\n        /* \"contracts/ERC721TokenContractName.sol\":4001:4043  return _operatorApprovals[owner][operator] */\n      swap1\n      pop\n        /* \"contracts/ERC721TokenContractName.sol\":3904:4051  function isApprovedForAll(address owner, address operator) public view returns (bool) {... */\n      swap3\n      swap2\n      pop\n      pop\n      jump\t// out\n        /* \"contracts/ERC721TokenContractName.sol\":9328:9787  function setBan(uint16 tokenId, bool set_) public returns (bool) {... */\n    tag_125:\n        /* \"contracts/ERC721TokenContractName.sol\":9387:9391  bool */\n      0x00\n        /* \"contracts/ERC721TokenContractName.sol\":9404:9417  address owner */\n      dup1\n        /* \"contracts/ERC721TokenContractName.sol\":9420:9442  _requireOwned(tokenId) */\n      tag_340\n        /* \"contracts/ERC721TokenContractName.sol\":9434:9441  tokenId */\n      dup5\n        /* \"contracts/ERC721TokenContractName.sol\":9420:9433  _requireOwned */\n      tag_230\n        /* \"contracts/ERC721TokenContractName.sol\":9420:9442  _requireOwned(tokenId) */\n      jump\t// in\n    tag_340:\n        /* \"contracts/ERC721TokenContractName.sol\":9404:9442  address owner = _requireOwned(tokenId) */\n      swap1\n      pop\n        /* \"contracts/ERC721TokenContractName.sol\":9453:9466  bool ownerBan */\n      0x00\n        /* \"contracts/ERC721TokenContractName.sol\":9477:9493  bool governorBan */\n      dup1\n        /* \"contracts/ERC721TokenContractName.sol\":9524:9529  owner */\n      dup3\n        /* \"contracts/ERC721TokenContractName.sol\":9508:9529  _msgSender() == owner */\n      0xffffffffffffffffffffffffffffffffffffffff\n      and\n        /* \"contracts/ERC721TokenContractName.sol\":9508:9520  _msgSender() */\n      tag_341\n        /* \"contracts/ERC721TokenContractName.sol\":9508:9518  _msgSender */\n      tag_132\n        /* \"contracts/ERC721TokenContractName.sol\":9508:9520  _msgSender() */\n      jump\t// in\n    tag_341:\n        /* \"contracts/ERC721TokenContractName.sol\":9508:9529  _msgSender() == owner */\n      0xffffffffffffffffffffffffffffffffffffffff\n      and\n      sub\n        /* \"contracts/ERC721TokenContractName.sol\":9504:9737  if (_msgSender() == owner) {... */\n      tag_342\n      jumpi\n        /* \"contracts/ERC721TokenContractName.sol\":9557:9561  set_ */\n      dup5\n        /* \"contracts/ERC721TokenContractName.sol\":9546:9561  ownerBan = set_ */\n      swap2\n      pop\n        /* \"contracts/ERC721TokenContractName.sol\":9504:9737  if (_msgSender() == owner) {... */\n      jump(tag_343)\n    tag_342:\n        /* \"contracts/ERC721TokenContractName.sol\":9583:9611  governoraccess(_msgSender()) */\n      tag_344\n        /* \"contracts/ERC721TokenContractName.sol\":9598:9610  _msgSender() */\n      tag_345\n        /* \"contracts/ERC721TokenContractName.sol\":9598:9608  _msgSender */\n      tag_132\n        /* \"contracts/ERC721TokenContractName.sol\":9598:9610  _msgSender() */\n      jump\t// in\n    tag_345:\n        /* \"contracts/ERC721TokenContractName.sol\":9583:9597  governoraccess */\n      tag_46\n        /* \"contracts/ERC721TokenContractName.sol\":9583:9611  governoraccess(_msgSender()) */\n      jump\t// in\n    tag_344:\n        /* \"contracts/ERC721TokenContractName.sol\":9579:9737  if (governoraccess(_msgSender())) {... */\n      iszero\n      tag_346\n      jumpi\n        /* \"contracts/ERC721TokenContractName.sol\":9642:9646  set_ */\n      dup5\n        /* \"contracts/ERC721TokenContractName.sol\":9628:9646  governorBan = set_ */\n      swap1\n      pop\n        /* \"contracts/ERC721TokenContractName.sol\":9579:9737  if (governoraccess(_msgSender())) {... */\n      jump(tag_347)\n    tag_346:\n        /* \"contracts/ERC721TokenContractName.sol\":9712:9724  _msgSender() */\n      tag_348\n        /* \"contracts/ERC721TokenContractName.sol\":9712:9722  _msgSender */\n      tag_132\n        /* \"contracts/ERC721TokenContractName.sol\":9712:9724  _msgSender() */\n      jump\t// in\n    tag_348:\n        /* \"contracts/ERC721TokenContractName.sol\":9686:9725  ERC721AccessIsNotApproved(_msgSender()) */\n      mload(0x40)\n      0xf7a3f9f300000000000000000000000000000000000000000000000000000000\n      dup2\n      mstore\n      0x04\n      add\n      tag_349\n      swap2\n      swap1\n      tag_70\n      jump\t// in\n    tag_349:\n      mload(0x40)\n      dup1\n      swap2\n      sub\n      swap1\n      revert\n        /* \"contracts/ERC721TokenContractName.sol\":9579:9737  if (governoraccess(_msgSender())) {... */\n    tag_347:\n        /* \"contracts/ERC721TokenContractName.sol\":9504:9737  if (_msgSender() == owner) {... */\n    tag_343:\n        /* \"contracts/ERC721TokenContractName.sol\":9755:9766  governorBan */\n      dup1\n        /* \"contracts/ERC721TokenContractName.sol\":9755:9778  governorBan || ownerBan */\n      dup1\n      tag_350\n      jumpi\n      pop\n        /* \"contracts/ERC721TokenContractName.sol\":9770:9778  ownerBan */\n      dup2\n        /* \"contracts/ERC721TokenContractName.sol\":9755:9778  governorBan || ownerBan */\n    tag_350:\n        /* \"contracts/ERC721TokenContractName.sol\":9747:9779  return (governorBan || ownerBan) */\n      swap4\n      pop\n      pop\n      pop\n      pop\n        /* \"contracts/ERC721TokenContractName.sol\":9328:9787  function setBan(uint16 tokenId, bool set_) public returns (bool) {... */\n      swap3\n      swap2\n      pop\n      pop\n      jump\t// out\n        /* \"@openzeppelin/contracts/utils/Context.sol\":656:752  function _msgSender() internal view virtual returns (address) {... */\n    tag_132:\n        /* \"@openzeppelin/contracts/utils/Context.sol\":709:716  address */\n      0x00\n        /* \"@openzeppelin/contracts/utils/Context.sol\":735:745  msg.sender */\n      caller\n        /* \"@openzeppelin/contracts/utils/Context.sol\":728:745  return msg.sender */\n      swap1\n      pop\n        /* \"@openzeppelin/contracts/utils/Context.sol\":656:752  function _msgSender() internal view virtual returns (address) {... */\n      swap1\n      jump\t// out\n        /* \"contracts/ERC721TokenContractName.sol\":12546:12604  function setStateVoting(bytes32 state) internal {... */\n    tag_156:\n      pop\n      jump\t// out\n        /* \"contracts/ERC721TokenContractName.sol\":9797:10864  function _update(address to, uint16 tokenId, address from) private {... */\n    tag_218:\n        /* \"contracts/ERC721TokenContractName.sol\":9875:9896  uint16 preBalanceFrom */\n      0x00\n        /* \"contracts/ERC721TokenContractName.sol\":9899:9915  _balanceAndTokId */\n      0x0a7e\n        /* \"contracts/ERC721TokenContractName.sol\":9899:9921  _balanceAndTokId[from] */\n      0x00\n        /* \"contracts/ERC721TokenContractName.sol\":9916:9920  from */\n      dup4\n        /* \"contracts/ERC721TokenContractName.sol\":9899:9921  _balanceAndTokId[from] */\n      0xffffffffffffffffffffffffffffffffffffffff\n      and\n      0xffffffffffffffffffffffffffffffffffffffff\n      and\n      dup2\n      mstore\n      0x20\n      add\n      swap1\n      dup2\n      mstore\n      0x20\n      add\n      0x00\n      keccak256\n        /* \"contracts/ERC721TokenContractName.sol\":9922:9923  0 */\n      0x00\n        /* \"contracts/ERC721TokenContractName.sol\":9899:9924  _balanceAndTokId[from][0] */\n      0x04b1\n      dup2\n      lt\n      tag_354\n      jumpi\n      tag_355\n      tag_142\n      jump\t// in\n    tag_355:\n    tag_354:\n      0x10\n      swap2\n      dup3\n      dup3\n      div\n      add\n      swap2\n      swap1\n      mod\n      0x02\n      mul\n      swap1\n      sload\n      swap1\n      0x0100\n      exp\n      swap1\n      div\n      0xffff\n      and\n        /* \"contracts/ERC721TokenContractName.sol\":9875:9924  uint16 preBalanceFrom = _balanceAndTokId[from][0] */\n      swap1\n      pop\n        /* \"contracts/ERC721TokenContractName.sol\":9954:9955  0 */\n      0x00\n        /* \"contracts/ERC721TokenContractName.sol\":9938:9956  from != address(0) */\n      0xffffffffffffffffffffffffffffffffffffffff\n      and\n        /* \"contracts/ERC721TokenContractName.sol\":9938:9942  from */\n      dup3\n        /* \"contracts/ERC721TokenContractName.sol\":9938:9956  from != address(0) */\n      0xffffffffffffffffffffffffffffffffffffffff\n      and\n      eq\n        /* \"contracts/ERC721TokenContractName.sol\":9934:10516  if (from != address(0)) {... */\n      tag_357\n      jumpi\n        /* \"contracts/ERC721TokenContractName.sol\":9974:9982  uint16 i */\n      0x00\n        /* \"contracts/ERC721TokenContractName.sol\":9985:9986  1 */\n      0x01\n        /* \"contracts/ERC721TokenContractName.sol\":9974:9986  uint16 i = 1 */\n      swap1\n      pop\n        /* \"contracts/ERC721TokenContractName.sol\":9969:10206  for (uint16 i = 1; i <= preBalanceFrom; i++) {... */\n    tag_358:\n        /* \"contracts/ERC721TokenContractName.sol\":9993:10007  preBalanceFrom */\n      dup2\n        /* \"contracts/ERC721TokenContractName.sol\":9988:10007  i <= preBalanceFrom */\n      0xffff\n      and\n        /* \"contracts/ERC721TokenContractName.sol\":9988:9989  i */\n      dup2\n        /* \"contracts/ERC721TokenContractName.sol\":9988:10007  i <= preBalanceFrom */\n      0xffff\n      and\n      gt\n        /* \"contracts/ERC721TokenContractName.sol\":9969:10206  for (uint16 i = 1; i <= preBalanceFrom; i++) {... */\n      tag_359\n      jumpi\n        /* \"contracts/ERC721TokenContractName.sol\":10062:10069  tokenId */\n      dup4\n        /* \"contracts/ERC721TokenContractName.sol\":10033:10069  _balanceAndTokId[from][i] == tokenId */\n      0xffff\n      and\n        /* \"contracts/ERC721TokenContractName.sol\":10033:10049  _balanceAndTokId */\n      0x0a7e\n        /* \"contracts/ERC721TokenContractName.sol\":10033:10055  _balanceAndTokId[from] */\n      0x00\n        /* \"contracts/ERC721TokenContractName.sol\":10050:10054  from */\n      dup6\n        /* \"contracts/ERC721TokenContractName.sol\":10033:10055  _balanceAndTokId[from] */\n      0xffffffffffffffffffffffffffffffffffffffff\n      and\n      0xffffffffffffffffffffffffffffffffffffffff\n      and\n      dup2\n      mstore\n      0x20\n      add\n      swap1\n      dup2\n      mstore\n      0x20\n      add\n      0x00\n      keccak256\n        /* \"contracts/ERC721TokenContractName.sol\":10056:10057  i */\n      dup3\n        /* \"contracts/ERC721TokenContractName.sol\":10033:10058  _balanceAndTokId[from][i] */\n      0xffff\n      and\n      0x04b1\n      dup2\n      lt\n      tag_361\n      jumpi\n      tag_362\n      tag_142\n      jump\t// in\n    tag_362:\n    tag_361:\n      0x10\n      swap2\n      dup3\n      dup3\n      div\n      add\n      swap2\n      swap1\n      mod\n      0x02\n      mul\n      swap1\n      sload\n      swap1\n      0x0100\n      exp\n      swap1\n      div\n      0xffff\n      and\n        /* \"contracts/ERC721TokenContractName.sol\":10033:10069  _balanceAndTokId[from][i] == tokenId */\n      0xffff\n      and\n      sub\n        /* \"contracts/ERC721TokenContractName.sol\":10029:10195  if (_balanceAndTokId[from][i] == tokenId) {... */\n      tag_364\n      jumpi\n        /* \"contracts/ERC721TokenContractName.sol\":10118:10134  _balanceAndTokId */\n      0x0a7e\n        /* \"contracts/ERC721TokenContractName.sol\":10118:10140  _balanceAndTokId[from] */\n      0x00\n        /* \"contracts/ERC721TokenContractName.sol\":10135:10139  from */\n      dup5\n        /* \"contracts/ERC721TokenContractName.sol\":10118:10140  _balanceAndTokId[from] */\n      0xffffffffffffffffffffffffffffffffffffffff\n      and\n      0xffffffffffffffffffffffffffffffffffffffff\n      and\n      dup2\n      mstore\n      0x20\n      add\n      swap1\n      dup2\n      mstore\n      0x20\n      add\n      0x00\n      keccak256\n        /* \"contracts/ERC721TokenContractName.sol\":10141:10155  preBalanceFrom */\n      dup3\n        /* \"contracts/ERC721TokenContractName.sol\":10118:10156  _balanceAndTokId[from][preBalanceFrom] */\n      0xffff\n      and\n      0x04b1\n      dup2\n      lt\n      tag_365\n      jumpi\n      tag_366\n      tag_142\n      jump\t// in\n    tag_366:\n    tag_365:\n      0x10\n      swap2\n      dup3\n      dup3\n      div\n      add\n      swap2\n      swap1\n      mod\n      0x02\n      mul\n      swap1\n      sload\n      swap1\n      0x0100\n      exp\n      swap1\n      div\n      0xffff\n      and\n        /* \"contracts/ERC721TokenContractName.sol\":10090:10106  _balanceAndTokId */\n      0x0a7e\n        /* \"contracts/ERC721TokenContractName.sol\":10090:10112  _balanceAndTokId[from] */\n      0x00\n        /* \"contracts/ERC721TokenContractName.sol\":10107:10111  from */\n      dup6\n        /* \"contracts/ERC721TokenContractName.sol\":10090:10112  _balanceAndTokId[from] */\n      0xffffffffffffffffffffffffffffffffffffffff\n      and\n      0xffffffffffffffffffffffffffffffffffffffff\n      and\n      dup2\n      mstore\n      0x20\n      add\n      swap1\n      dup2\n      mstore\n      0x20\n      add\n      0x00\n      keccak256\n        /* \"contracts/ERC721TokenContractName.sol\":10113:10114  i */\n      dup3\n        /* \"contracts/ERC721TokenContractName.sol\":10090:10115  _balanceAndTokId[from][i] */\n      0xffff\n      and\n      0x04b1\n      dup2\n      lt\n      tag_368\n      jumpi\n      tag_369\n      tag_142\n      jump\t// in\n    tag_369:\n    tag_368:\n      0x10\n      swap2\n      dup3\n      dup3\n      div\n      add\n      swap2\n      swap1\n      mod\n      0x02\n      mul\n        /* \"contracts/ERC721TokenContractName.sol\":10090:10156  _balanceAndTokId[from][i] = _balanceAndTokId[from][preBalanceFrom] */\n      0x0100\n      exp\n      dup2\n      sload\n      dup2\n      0xffff\n      mul\n      not\n      and\n      swap1\n      dup4\n      0xffff\n      and\n      mul\n      or\n      swap1\n      sstore\n      pop\n        /* \"contracts/ERC721TokenContractName.sol\":10175:10180  break */\n      jump(tag_359)\n        /* \"contracts/ERC721TokenContractName.sol\":10029:10195  if (_balanceAndTokId[from][i] == tokenId) {... */\n    tag_364:\n        /* \"contracts/ERC721TokenContractName.sol\":10009:10012  i++ */\n      dup1\n      dup1\n      tag_371\n      swap1\n      tag_174\n      jump\t// in\n    tag_371:\n      swap2\n      pop\n      pop\n        /* \"contracts/ERC721TokenContractName.sol\":9969:10206  for (uint16 i = 1; i <= preBalanceFrom; i++) {... */\n      jump(tag_358)\n    tag_359:\n      pop\n        /* \"contracts/ERC721TokenContractName.sol\":9934:10516  if (from != address(0)) {... */\n      jump(tag_372)\n    tag_357:\n        /* \"contracts/ERC721TokenContractName.sol\":10235:10247  uint16 index */\n      0x00\n        /* \"contracts/ERC721TokenContractName.sol\":10250:10257  tokenId */\n      dup4\n        /* \"contracts/ERC721TokenContractName.sol\":10235:10257  uint16 index = tokenId */\n      swap1\n      pop\n        /* \"contracts/ERC721TokenContractName.sol\":10278:10294  _balanceAndTokId */\n      0x0a7e\n        /* \"contracts/ERC721TokenContractName.sol\":10278:10300  _balanceAndTokId[from] */\n      0x00\n        /* \"contracts/ERC721TokenContractName.sol\":10295:10299  from */\n      dup5\n        /* \"contracts/ERC721TokenContractName.sol\":10278:10300  _balanceAndTokId[from] */\n      0xffffffffffffffffffffffffffffffffffffffff\n      and\n      0xffffffffffffffffffffffffffffffffffffffff\n      and\n      dup2\n      mstore\n      0x20\n      add\n      swap1\n      dup2\n      mstore\n      0x20\n      add\n      0x00\n      keccak256\n        /* \"contracts/ERC721TokenContractName.sol\":10301:10306  index */\n      dup2\n        /* \"contracts/ERC721TokenContractName.sol\":10278:10307  _balanceAndTokId[from][index] */\n      0xffff\n      and\n      0x04b1\n      dup2\n      lt\n      tag_373\n      jumpi\n      tag_374\n      tag_142\n      jump\t// in\n    tag_374:\n    tag_373:\n      0x10\n      swap2\n      dup3\n      dup3\n      div\n      add\n      swap2\n      swap1\n      mod\n      0x02\n      mul\n      swap1\n      sload\n      swap1\n      0x0100\n      exp\n      swap1\n      div\n      0xffff\n      and\n        /* \"contracts/ERC721TokenContractName.sol\":10268:10307  tokenId = _balanceAndTokId[from][index] */\n      swap4\n      pop\n        /* \"contracts/ERC721TokenContractName.sol\":10350:10351  0 */\n      0x00\n        /* \"contracts/ERC721TokenContractName.sol\":10322:10352  _owners[tokenId] != address(0) */\n      0xffffffffffffffffffffffffffffffffffffffff\n      and\n        /* \"contracts/ERC721TokenContractName.sol\":10322:10329  _owners */\n      0x05a7\n        /* \"contracts/ERC721TokenContractName.sol\":10330:10337  tokenId */\n      dup6\n        /* \"contracts/ERC721TokenContractName.sol\":10322:10338  _owners[tokenId] */\n      0xffff\n      and\n      0x04b1\n      dup2\n      lt\n      tag_376\n      jumpi\n      tag_377\n      tag_142\n      jump\t// in\n    tag_377:\n    tag_376:\n      add\n      0x00\n      swap1\n      sload\n      swap1\n      0x0100\n      exp\n      swap1\n      div\n      0xffffffffffffffffffffffffffffffffffffffff\n      and\n        /* \"contracts/ERC721TokenContractName.sol\":10322:10352  _owners[tokenId] != address(0) */\n      0xffffffffffffffffffffffffffffffffffffffff\n      and\n      eq\n        /* \"contracts/ERC721TokenContractName.sol\":10318:10425  if (_owners[tokenId] != address(0)) {... */\n      tag_379\n      jumpi\n        /* \"contracts/ERC721TokenContractName.sol\":10407:10412  index */\n      dup1\n        /* \"contracts/ERC721TokenContractName.sol\":10376:10413  Erc721InvalidTokenInNewTokenId(index) */\n      mload(0x40)\n      0x71e52b9c00000000000000000000000000000000000000000000000000000000\n      dup2\n      mstore\n      0x04\n      add\n      tag_380\n      swap2\n      swap1\n      tag_63\n      jump\t// in\n    tag_380:\n      mload(0x40)\n      dup1\n      swap2\n      sub\n      swap1\n      revert\n        /* \"contracts/ERC721TokenContractName.sol\":10318:10425  if (_owners[tokenId] != address(0)) {... */\n    tag_379:\n        /* \"contracts/ERC721TokenContractName.sol\":10467:10483  _balanceAndTokId */\n      0x0a7e\n        /* \"contracts/ERC721TokenContractName.sol\":10467:10489  _balanceAndTokId[from] */\n      0x00\n        /* \"contracts/ERC721TokenContractName.sol\":10484:10488  from */\n      dup5\n        /* \"contracts/ERC721TokenContractName.sol\":10467:10489  _balanceAndTokId[from] */\n      0xffffffffffffffffffffffffffffffffffffffff\n      and\n      0xffffffffffffffffffffffffffffffffffffffff\n      and\n      dup2\n      mstore\n      0x20\n      add\n      swap1\n      dup2\n      mstore\n      0x20\n      add\n      0x00\n      keccak256\n        /* \"contracts/ERC721TokenContractName.sol\":10490:10504  preBalanceFrom */\n      dup3\n        /* \"contracts/ERC721TokenContractName.sol\":10467:10505  _balanceAndTokId[from][preBalanceFrom] */\n      0xffff\n      and\n      0x04b1\n      dup2\n      lt\n      tag_381\n      jumpi\n      tag_382\n      tag_142\n      jump\t// in\n    tag_382:\n    tag_381:\n      0x10\n      swap2\n      dup3\n      dup3\n      div\n      add\n      swap2\n      swap1\n      mod\n      0x02\n      mul\n      swap1\n      sload\n      swap1\n      0x0100\n      exp\n      swap1\n      div\n      0xffff\n      and\n        /* \"contracts/ERC721TokenContractName.sol\":10435:10451  _balanceAndTokId */\n      0x0a7e\n        /* \"contracts/ERC721TokenContractName.sol\":10435:10457  _balanceAndTokId[from] */\n      0x00\n        /* \"contracts/ERC721TokenContractName.sol\":10452:10456  from */\n      dup6\n        /* \"contracts/ERC721TokenContractName.sol\":10435:10457  _balanceAndTokId[from] */\n      0xffffffffffffffffffffffffffffffffffffffff\n      and\n      0xffffffffffffffffffffffffffffffffffffffff\n      and\n      dup2\n      mstore\n      0x20\n      add\n      swap1\n      dup2\n      mstore\n      0x20\n      add\n      0x00\n      keccak256\n        /* \"contracts/ERC721TokenContractName.sol\":10458:10463  index */\n      dup3\n        /* \"contracts/ERC721TokenContractName.sol\":10435:10464  _balanceAndTokId[from][index] */\n      0xffff\n      and\n      0x04b1\n      dup2\n      lt\n      tag_384\n      jumpi\n      tag_385\n      tag_142\n      jump\t// in\n    tag_385:\n    tag_384:\n      0x10\n      swap2\n      dup3\n      dup3\n      div\n      add\n      swap2\n      swap1\n      mod\n      0x02\n      mul\n        /* \"contracts/ERC721TokenContractName.sol\":10435:10505  _balanceAndTokId[from][index] = _balanceAndTokId[from][preBalanceFrom] */\n      0x0100\n      exp\n      dup2\n      sload\n      dup2\n      0xffff\n      mul\n      not\n      and\n      swap1\n      dup4\n      0xffff\n      and\n      mul\n      or\n      swap1\n      sstore\n      pop\n        /* \"contracts/ERC721TokenContractName.sol\":10224:10516  {... */\n      pop\n        /* \"contracts/ERC721TokenContractName.sol\":9934:10516  if (from != address(0)) {... */\n    tag_372:\n        /* \"contracts/ERC721TokenContractName.sol\":10569:10570  0 */\n      0x00\n        /* \"contracts/ERC721TokenContractName.sol\":10528:10544  _balanceAndTokId */\n      0x0a7e\n        /* \"contracts/ERC721TokenContractName.sol\":10528:10550  _balanceAndTokId[from] */\n      0x00\n        /* \"contracts/ERC721TokenContractName.sol\":10545:10549  from */\n      dup5\n        /* \"contracts/ERC721TokenContractName.sol\":10528:10550  _balanceAndTokId[from] */\n      0xffffffffffffffffffffffffffffffffffffffff\n      and\n      0xffffffffffffffffffffffffffffffffffffffff\n      and\n      dup2\n      mstore\n      0x20\n      add\n      swap1\n      dup2\n      mstore\n      0x20\n      add\n      0x00\n      keccak256\n        /* \"contracts/ERC721TokenContractName.sol\":10551:10565  preBalanceFrom */\n      dup3\n        /* \"contracts/ERC721TokenContractName.sol\":10528:10566  _balanceAndTokId[from][preBalanceFrom] */\n      0xffff\n      and\n      0x04b1\n      dup2\n      lt\n      tag_387\n      jumpi\n      tag_388\n      tag_142\n      jump\t// in\n    tag_388:\n    tag_387:\n      0x10\n      swap2\n      dup3\n      dup3\n      div\n      add\n      swap2\n      swap1\n      mod\n      0x02\n      mul\n        /* \"contracts/ERC721TokenContractName.sol\":10528:10570  _balanceAndTokId[from][preBalanceFrom] = 0 */\n      0x0100\n      exp\n      dup2\n      sload\n      dup2\n      0xffff\n      mul\n      not\n      and\n      swap1\n      dup4\n      0xffff\n      and\n      mul\n      or\n      swap1\n      sstore\n      pop\n        /* \"contracts/ERC721TokenContractName.sol\":10610:10611  1 */\n      0x01\n        /* \"contracts/ERC721TokenContractName.sol\":10581:10597  _balanceAndTokId */\n      0x0a7e\n        /* \"contracts/ERC721TokenContractName.sol\":10581:10603  _balanceAndTokId[from] */\n      0x00\n        /* \"contracts/ERC721TokenContractName.sol\":10598:10602  from */\n      dup5\n        /* \"contracts/ERC721TokenContractName.sol\":10581:10603  _balanceAndTokId[from] */\n      0xffffffffffffffffffffffffffffffffffffffff\n      and\n      0xffffffffffffffffffffffffffffffffffffffff\n      and\n      dup2\n      mstore\n      0x20\n      add\n      swap1\n      dup2\n      mstore\n      0x20\n      add\n      0x00\n      keccak256\n        /* \"contracts/ERC721TokenContractName.sol\":10604:10605  0 */\n      0x00\n        /* \"contracts/ERC721TokenContractName.sol\":10581:10606  _balanceAndTokId[from][0] */\n      0x04b1\n      dup2\n      lt\n      tag_390\n      jumpi\n      tag_391\n      tag_142\n      jump\t// in\n    tag_391:\n    tag_390:\n      0x10\n      swap2\n      dup3\n      dup3\n      div\n      add\n      swap2\n      swap1\n      mod\n      0x02\n      mul\n        /* \"contracts/ERC721TokenContractName.sol\":10581:10611  _balanceAndTokId[from][0] -= 1 */\n      dup3\n      dup3\n      dup3\n      swap1\n      sload\n      swap1\n      0x0100\n      exp\n      swap1\n      div\n      0xffff\n      and\n      tag_393\n      swap2\n      swap1\n      tag_144\n      jump\t// in\n    tag_393:\n      swap3\n      pop\n      0x0100\n      exp\n      dup2\n      sload\n      dup2\n      0xffff\n      mul\n      not\n      and\n      swap1\n      dup4\n      0xffff\n      and\n      mul\n      or\n      swap1\n      sstore\n      pop\n        /* \"contracts/ERC721TokenContractName.sol\":10624:10643  uint16 newBalanceTo */\n      0x00\n        /* \"contracts/ERC721TokenContractName.sol\":10673:10674  1 */\n      0x01\n        /* \"contracts/ERC721TokenContractName.sol\":10647:10663  _balanceAndTokId */\n      0x0a7e\n        /* \"contracts/ERC721TokenContractName.sol\":10647:10667  _balanceAndTokId[to] */\n      0x00\n        /* \"contracts/ERC721TokenContractName.sol\":10664:10666  to */\n      dup8\n        /* \"contracts/ERC721TokenContractName.sol\":10647:10667  _balanceAndTokId[to] */\n      0xffffffffffffffffffffffffffffffffffffffff\n      and\n      0xffffffffffffffffffffffffffffffffffffffff\n      and\n      dup2\n      mstore\n      0x20\n      add\n      swap1\n      dup2\n      mstore\n      0x20\n      add\n      0x00\n      keccak256\n        /* \"contracts/ERC721TokenContractName.sol\":10668:10669  0 */\n      0x00\n        /* \"contracts/ERC721TokenContractName.sol\":10647:10670  _balanceAndTokId[to][0] */\n      0x04b1\n      dup2\n      lt\n      tag_394\n      jumpi\n      tag_395\n      tag_142\n      jump\t// in\n    tag_395:\n    tag_394:\n      0x10\n      swap2\n      dup3\n      dup3\n      div\n      add\n      swap2\n      swap1\n      mod\n      0x02\n      mul\n      swap1\n      sload\n      swap1\n      0x0100\n      exp\n      swap1\n      div\n      0xffff\n      and\n        /* \"contracts/ERC721TokenContractName.sol\":10647:10674  _balanceAndTokId[to][0] + 1 */\n      tag_397\n      swap2\n      swap1\n      tag_201\n      jump\t// in\n    tag_397:\n        /* \"contracts/ERC721TokenContractName.sol\":10624:10675  uint16 newBalanceTo = (_balanceAndTokId[to][0] + 1) */\n      swap1\n      pop\n        /* \"contracts/ERC721TokenContractName.sol\":10723:10730  tokenId */\n      dup4\n        /* \"contracts/ERC721TokenContractName.sol\":10686:10702  _balanceAndTokId */\n      0x0a7e\n        /* \"contracts/ERC721TokenContractName.sol\":10686:10706  _balanceAndTokId[to] */\n      0x00\n        /* \"contracts/ERC721TokenContractName.sol\":10703:10705  to */\n      dup8\n        /* \"contracts/ERC721TokenContractName.sol\":10686:10706  _balanceAndTokId[to] */\n      0xffffffffffffffffffffffffffffffffffffffff\n      and\n      0xffffffffffffffffffffffffffffffffffffffff\n      and\n      dup2\n      mstore\n      0x20\n      add\n      swap1\n      dup2\n      mstore\n      0x20\n      add\n      0x00\n      keccak256\n        /* \"contracts/ERC721TokenContractName.sol\":10707:10719  newBalanceTo */\n      dup3\n        /* \"contracts/ERC721TokenContractName.sol\":10686:10720  _balanceAndTokId[to][newBalanceTo] */\n      0xffff\n      and\n      0x04b1\n      dup2\n      lt\n      tag_398\n      jumpi\n      tag_399\n      tag_142\n      jump\t// in\n    tag_399:\n    tag_398:\n      0x10\n      swap2\n      dup3\n      dup3\n      div\n      add\n      swap2\n      swap1\n      mod\n      0x02\n      mul\n        /* \"contracts/ERC721TokenContractName.sol\":10686:10730  _balanceAndTokId[to][newBalanceTo] = tokenId */\n      0x0100\n      exp\n      dup2\n      sload\n      dup2\n      0xffff\n      mul\n      not\n      and\n      swap1\n      dup4\n      0xffff\n      and\n      mul\n      or\n      swap1\n      sstore\n      pop\n        /* \"contracts/ERC721TokenContractName.sol\":10767:10779  newBalanceTo */\n      dup1\n        /* \"contracts/ERC721TokenContractName.sol\":10741:10757  _balanceAndTokId */\n      0x0a7e\n        /* \"contracts/ERC721TokenContractName.sol\":10741:10761  _balanceAndTokId[to] */\n      0x00\n        /* \"contracts/ERC721TokenContractName.sol\":10758:10760  to */\n      dup8\n        /* \"contracts/ERC721TokenContractName.sol\":10741:10761  _balanceAndTokId[to] */\n      0xffffffffffffffffffffffffffffffffffffffff\n      and\n      0xffffffffffffffffffffffffffffffffffffffff\n      and\n      dup2\n      mstore\n      0x20\n      add\n      swap1\n      dup2\n      mstore\n      0x20\n      add\n      0x00\n      keccak256\n        /* \"contracts/ERC721TokenContractName.sol\":10762:10763  0 */\n      0x00\n        /* \"contracts/ERC721TokenContractName.sol\":10741:10764  _balanceAndTokId[to][0] */\n      0x04b1\n      dup2\n      lt\n      tag_401\n      jumpi\n      tag_402\n      tag_142\n      jump\t// in\n    tag_402:\n    tag_401:\n      0x10\n      swap2\n      dup3\n      dup3\n      div\n      add\n      swap2\n      swap1\n      mod\n      0x02\n      mul\n        /* \"contracts/ERC721TokenContractName.sol\":10741:10779  _balanceAndTokId[to][0] = newBalanceTo */\n      0x0100\n      exp\n      dup2\n      sload\n      dup2\n      0xffff\n      mul\n      not\n      and\n      swap1\n      dup4\n      0xffff\n      and\n      mul\n      or\n      swap1\n      sstore\n      pop\n        /* \"contracts/ERC721TokenContractName.sol\":10811:10813  to */\n      dup5\n        /* \"contracts/ERC721TokenContractName.sol\":10792:10799  _owners */\n      0x05a7\n        /* \"contracts/ERC721TokenContractName.sol\":10800:10807  tokenId */\n      dup6\n        /* \"contracts/ERC721TokenContractName.sol\":10792:10808  _owners[tokenId] */\n      0xffff\n      and\n      0x04b1\n      dup2\n      lt\n      tag_404\n      jumpi\n      tag_405\n      tag_142\n      jump\t// in\n    tag_405:\n    tag_404:\n      add\n      0x00\n        /* \"contracts/ERC721TokenContractName.sol\":10792:10813  _owners[tokenId] = to */\n      0x0100\n      exp\n      dup2\n      sload\n      dup2\n      0xffffffffffffffffffffffffffffffffffffffff\n      mul\n      not\n      and\n      swap1\n      dup4\n      0xffffffffffffffffffffffffffffffffffffffff\n      and\n      mul\n      or\n      swap1\n      sstore\n      pop\n        /* \"contracts/ERC721TokenContractName.sol\":10848:10855  tokenId */\n      dup4\n        /* \"contracts/ERC721TokenContractName.sol\":10829:10856  Transfer(from, to, tokenId) */\n      0xffff\n      and\n        /* \"contracts/ERC721TokenContractName.sol\":10844:10846  to */\n      dup6\n        /* \"contracts/ERC721TokenContractName.sol\":10829:10856  Transfer(from, to, tokenId) */\n      0xffffffffffffffffffffffffffffffffffffffff\n      and\n        /* \"contracts/ERC721TokenContractName.sol\":10838:10842  from */\n      dup5\n        /* \"contracts/ERC721TokenContractName.sol\":10829:10856  Transfer(from, to, tokenId) */\n      0xffffffffffffffffffffffffffffffffffffffff\n      and\n      0x89896edbd223c9360ce42ddfed7522a2bffb20c056e4c42d42370cb493b65676\n      mload(0x40)\n      mload(0x40)\n      dup1\n      swap2\n      sub\n      swap1\n      log4\n        /* \"contracts/ERC721TokenContractName.sol\":9864:10864  {... */\n      pop\n      pop\n        /* \"contracts/ERC721TokenContractName.sol\":9797:10864  function _update(address to, uint16 tokenId, address from) private {... */\n      pop\n      pop\n      pop\n      jump\t// out\n        /* \"contracts/ERC721TokenContractName.sol\":11052:11450  function _requireOwned(uint16 tokenId) private view returns (address) {... */\n    tag_230:\n        /* \"contracts/ERC721TokenContractName.sol\":11113:11120  address */\n      0x00\n        /* \"contracts/ERC721TokenContractName.sol\":11145:11152  tokenId */\n      dup2\n        /* \"contracts/ERC721TokenContractName.sol\":11141:11152  0 < tokenId */\n      0xffff\n      and\n        /* \"contracts/ERC721TokenContractName.sol\":11141:11142  0 */\n      0x00\n        /* \"contracts/ERC721TokenContractName.sol\":11141:11152  0 < tokenId */\n      lt\n        /* \"contracts/ERC721TokenContractName.sol\":11141:11183  0 < tokenId && tokenId <= mintInfo.maxMint */\n      dup1\n      iszero\n      tag_408\n      jumpi\n      pop\n        /* \"contracts/ERC721TokenContractName.sol\":11167:11175  mintInfo */\n      0x01\n        /* \"contracts/ERC721TokenContractName.sol\":11167:11183  mintInfo.maxMint */\n      0x00\n      add\n      0x00\n      swap1\n      sload\n      swap1\n      0x0100\n      exp\n      swap1\n      div\n      0xffff\n      and\n        /* \"contracts/ERC721TokenContractName.sol\":11156:11183  tokenId <= mintInfo.maxMint */\n      0xffff\n      and\n        /* \"contracts/ERC721TokenContractName.sol\":11156:11163  tokenId */\n      dup3\n        /* \"contracts/ERC721TokenContractName.sol\":11156:11183  tokenId <= mintInfo.maxMint */\n      0xffff\n      and\n      gt\n      iszero\n        /* \"contracts/ERC721TokenContractName.sol\":11141:11183  0 < tokenId && tokenId <= mintInfo.maxMint */\n    tag_408:\n        /* \"contracts/ERC721TokenContractName.sol\":11133:11276  require(0 < tokenId && tokenId <= mintInfo.maxMint, \"The ID entered is invalid. It must be in this interval 0 < id <= maximum mintable tokens\") */\n      tag_409\n      jumpi\n      mload(0x40)\n      0x08c379a000000000000000000000000000000000000000000000000000000000\n      dup2\n      mstore\n      0x04\n      add\n      tag_410\n      swap1\n      tag_411\n      jump\t// in\n    tag_410:\n      mload(0x40)\n      dup1\n      swap2\n      sub\n      swap1\n      revert\n    tag_409:\n        /* \"contracts/ERC721TokenContractName.sol\":11287:11300  address owner */\n      0x00\n        /* \"contracts/ERC721TokenContractName.sol\":11303:11310  _owners */\n      0x05a7\n        /* \"contracts/ERC721TokenContractName.sol\":11311:11318  tokenId */\n      dup4\n        /* \"contracts/ERC721TokenContractName.sol\":11303:11319  _owners[tokenId] */\n      0xffff\n      and\n      0x04b1\n      dup2\n      lt\n      tag_412\n      jumpi\n      tag_413\n      tag_142\n      jump\t// in\n    tag_413:\n    tag_412:\n      add\n      0x00\n      swap1\n      sload\n      swap1\n      0x0100\n      exp\n      swap1\n      div\n      0xffffffffffffffffffffffffffffffffffffffff\n      and\n        /* \"contracts/ERC721TokenContractName.sol\":11287:11319  address owner = _owners[tokenId] */\n      swap1\n      pop\n        /* \"contracts/ERC721TokenContractName.sol\":11351:11352  0 */\n      0x00\n        /* \"contracts/ERC721TokenContractName.sol\":11334:11353  owner == address(0) */\n      0xffffffffffffffffffffffffffffffffffffffff\n      and\n        /* \"contracts/ERC721TokenContractName.sol\":11334:11339  owner */\n      dup2\n        /* \"contracts/ERC721TokenContractName.sol\":11334:11353  owner == address(0) */\n      0xffffffffffffffffffffffffffffffffffffffff\n      and\n      sub\n        /* \"contracts/ERC721TokenContractName.sol\":11330:11420  if (owner == address(0)) {... */\n      tag_415\n      jumpi\n        /* \"contracts/ERC721TokenContractName.sol\":11400:11407  tokenId */\n      dup3\n        /* \"contracts/ERC721TokenContractName.sol\":11377:11408  ERC721NonexistentToken(tokenId) */\n      mload(0x40)\n      0x7e27328900000000000000000000000000000000000000000000000000000000\n      dup2\n      mstore\n      0x04\n      add\n      tag_416\n      swap2\n      swap1\n      tag_417\n      jump\t// in\n    tag_416:\n      mload(0x40)\n      dup1\n      swap2\n      sub\n      swap1\n      revert\n        /* \"contracts/ERC721TokenContractName.sol\":11330:11420  if (owner == address(0)) {... */\n    tag_415:\n        /* \"contracts/ERC721TokenContractName.sol\":11437:11442  owner */\n      dup1\n        /* \"contracts/ERC721TokenContractName.sol\":11430:11442  return owner */\n      swap2\n      pop\n      pop\n        /* \"contracts/ERC721TokenContractName.sol\":11052:11450  function _requireOwned(uint16 tokenId) private view returns (address) {... */\n      swap2\n      swap1\n      pop\n      jump\t// out\n        /* \"contracts/ERC721TokenContractName.sol\":10874:11034  function _aprove(address to, uint16 tokenId, address owner) private {... */\n    tag_252:\n        /* \"contracts/ERC721TokenContractName.sol\":10980:10982  to */\n      dup3\n        /* \"contracts/ERC721TokenContractName.sol\":10953:10968  _tokenApprovals */\n      0x0a7f\n        /* \"contracts/ERC721TokenContractName.sol\":10953:10977  _tokenApprovals[tokenId] */\n      0x00\n        /* \"contracts/ERC721TokenContractName.sol\":10969:10976  tokenId */\n      dup5\n        /* \"contracts/ERC721TokenContractName.sol\":10953:10977  _tokenApprovals[tokenId] */\n      0xffff\n      and\n      0xffff\n      and\n      dup2\n      mstore\n      0x20\n      add\n      swap1\n      dup2\n      mstore\n      0x20\n      add\n      0x00\n      keccak256\n      0x00\n        /* \"contracts/ERC721TokenContractName.sol\":10953:10982  _tokenApprovals[tokenId] = to */\n      0x0100\n      exp\n      dup2\n      sload\n      dup2\n      0xffffffffffffffffffffffffffffffffffffffff\n      mul\n      not\n      and\n      swap1\n      dup4\n      0xffffffffffffffffffffffffffffffffffffffff\n      and\n      mul\n      or\n      swap1\n      sstore\n      pop\n        /* \"contracts/ERC721TokenContractName.sol\":11018:11025  tokenId */\n      dup2\n        /* \"contracts/ERC721TokenContractName.sol\":10998:11026  Approval(owner, to, tokenId) */\n      0xffff\n      and\n        /* \"contracts/ERC721TokenContractName.sol\":11014:11016  to */\n      dup4\n        /* \"contracts/ERC721TokenContractName.sol\":10998:11026  Approval(owner, to, tokenId) */\n      0xffffffffffffffffffffffffffffffffffffffff\n      and\n        /* \"contracts/ERC721TokenContractName.sol\":11007:11012  owner */\n      dup3\n        /* \"contracts/ERC721TokenContractName.sol\":10998:11026  Approval(owner, to, tokenId) */\n      0xffffffffffffffffffffffffffffffffffffffff\n      and\n      0x0a9d294fd4bd42bb30e96cba2b478d149a783fba3c729b1e5c42bec89d95b85a\n      mload(0x40)\n      mload(0x40)\n      dup1\n      swap2\n      sub\n      swap1\n      log4\n        /* \"contracts/ERC721TokenContractName.sol\":10874:11034  function _aprove(address to, uint16 tokenId, address owner) private {... */\n      pop\n      pop\n      pop\n      jump\t// out\n        /* \"contracts/ERC721TokenContractName.sol\":11553:12357  function _checkOnERC721Received(address from, address to, uint16 tokenId, bytes memory data) private {... */\n    tag_280:\n        /* \"contracts/ERC721TokenContractName.sol\":11686:11687  0 */\n      0x00\n        /* \"contracts/ERC721TokenContractName.sol\":11669:11671  to */\n      dup4\n        /* \"contracts/ERC721TokenContractName.sol\":11669:11683  to.code.length */\n      0xffffffffffffffffffffffffffffffffffffffff\n      and\n      extcodesize\n        /* \"contracts/ERC721TokenContractName.sol\":11669:11687  to.code.length > 0 */\n      gt\n        /* \"contracts/ERC721TokenContractName.sol\":11665:12350  if (to.code.length > 0) {... */\n      iszero\n      tag_420\n      jumpi\n        /* \"contracts/ERC721TokenContractName.sol\":11727:11729  to */\n      dup3\n        /* \"contracts/ERC721TokenContractName.sol\":11708:11747  IERC721TCNReceiver(to).onERC721Received */\n      0xffffffffffffffffffffffffffffffffffffffff\n      and\n      0xb1cff380\n        /* \"contracts/ERC721TokenContractName.sol\":11748:11760  _msgSender() */\n      tag_421\n        /* \"contracts/ERC721TokenContractName.sol\":11748:11758  _msgSender */\n      tag_132\n        /* \"contracts/ERC721TokenContractName.sol\":11748:11760  _msgSender() */\n      jump\t// in\n    tag_421:\n        /* \"contracts/ERC721TokenContractName.sol\":11762:11766  from */\n      dup7\n        /* \"contracts/ERC721TokenContractName.sol\":11768:11775  tokenId */\n      dup6\n        /* \"contracts/ERC721TokenContractName.sol\":11777:11781  data */\n      dup6\n        /* \"contracts/ERC721TokenContractName.sol\":11708:11782  IERC721TCNReceiver(to).onERC721Received(_msgSender(), from, tokenId, data) */\n      mload(0x40)\n      dup6\n      0xffffffff\n      and\n      0xe0\n      shl\n      dup2\n      mstore\n      0x04\n      add\n      tag_422\n      swap5\n      swap4\n      swap3\n      swap2\n      swap1\n      tag_423\n      jump\t// in\n    tag_422:\n      0x20\n      mload(0x40)\n      dup1\n      dup4\n      sub\n      dup2\n      0x00\n      dup8\n      gas\n      call\n      swap3\n      pop\n      pop\n      pop\n      dup1\n      iszero\n      tag_424\n      jumpi\n      pop\n      mload(0x40)\n      returndatasize\n      not(0x1f)\n      0x1f\n      dup3\n      add\n      and\n      dup3\n      add\n      dup1\n      0x40\n      mstore\n      pop\n      dup2\n      add\n      swap1\n      tag_425\n      swap2\n      swap1\n      tag_426\n      jump\t// in\n    tag_425:\n      0x01\n    tag_424:\n        /* \"contracts/ERC721TokenContractName.sol\":11704:12339  try IERC721TCNReceiver(to).onERC721Received(_msgSender(), from, tokenId, data) returns (bytes4 retval) {... */\n      tag_427\n      jumpi\n      returndatasize\n      dup1\n      0x00\n      dup2\n      eq\n      tag_432\n      jumpi\n      mload(0x40)\n      swap2\n      pop\n      and(add(returndatasize, 0x3f), not(0x1f))\n      dup3\n      add\n      0x40\n      mstore\n      returndatasize\n      dup3\n      mstore\n      returndatasize\n      0x00\n      0x20\n      dup5\n      add\n      returndatacopy\n      jump(tag_431)\n    tag_432:\n      0x60\n      swap2\n      pop\n    tag_431:\n      pop\n        /* \"contracts/ERC721TokenContractName.sol\":12045:12046  0 */\n      0x00\n        /* \"contracts/ERC721TokenContractName.sol\":12028:12034  reason */\n      dup2\n        /* \"contracts/ERC721TokenContractName.sol\":12028:12041  reason.length */\n      mload\n        /* \"contracts/ERC721TokenContractName.sol\":12028:12046  reason.length == 0 */\n      sub\n        /* \"contracts/ERC721TokenContractName.sol\":12024:12324  if (reason.length == 0) {... */\n      tag_433\n      jumpi\n        /* \"contracts/ERC721TokenContractName.sol\":12100:12102  to */\n      dup4\n        /* \"contracts/ERC721TokenContractName.sol\":12078:12103  ERC721InvalidReceiver(to) */\n      mload(0x40)\n      0x64a0ae9200000000000000000000000000000000000000000000000000000000\n      dup2\n      mstore\n      0x04\n      add\n      tag_434\n      swap2\n      swap1\n      tag_70\n      jump\t// in\n    tag_434:\n      mload(0x40)\n      dup1\n      swap2\n      sub\n      swap1\n      revert\n        /* \"contracts/ERC721TokenContractName.sol\":12024:12324  if (reason.length == 0) {... */\n    tag_433:\n        /* \"contracts/ERC721TokenContractName.sol\":12274:12280  reason */\n      dup1\n        /* \"contracts/ERC721TokenContractName.sol\":12268:12281  mload(reason) */\n      mload\n        /* \"contracts/ERC721TokenContractName.sol\":12259:12265  reason */\n      dup2\n        /* \"contracts/ERC721TokenContractName.sol\":12255:12257  32 */\n      0x20\n        /* \"contracts/ERC721TokenContractName.sol\":12251:12266  add(32, reason) */\n      add\n        /* \"contracts/ERC721TokenContractName.sol\":12244:12282  revert(add(32, reason), mload(reason)) */\n      revert\n        /* \"contracts/ERC721TokenContractName.sol\":11704:12339  try IERC721TCNReceiver(to).onERC721Received(_msgSender(), from, tokenId, data) returns (bytes4 retval) {... */\n    tag_427:\n        /* \"contracts/ERC721TokenContractName.sol\":11840:11884  IERC721TCNReceiver.onERC721Received.selector */\n      shl(0xe0, 0xb1cff380)\n        /* \"contracts/ERC721TokenContractName.sol\":11830:11884  retval != IERC721TCNReceiver.onERC721Received.selector */\n      not(0xffffffffffffffffffffffffffffffffffffffffffffffffffffffff)\n      and\n        /* \"contracts/ERC721TokenContractName.sol\":11830:11836  retval */\n      dup2\n        /* \"contracts/ERC721TokenContractName.sol\":11830:11884  retval != IERC721TCNReceiver.onERC721Received.selector */\n      not(0xffffffffffffffffffffffffffffffffffffffffffffffffffffffff)\n      and\n      eq\n        /* \"contracts/ERC721TokenContractName.sol\":11826:11961  if (retval != IERC721TCNReceiver.onERC721Received.selector) {... */\n      tag_437\n      jumpi\n        /* \"contracts/ERC721TokenContractName.sol\":11938:11940  to */\n      dup4\n        /* \"contracts/ERC721TokenContractName.sol\":11916:11941  ERC721InvalidReceiver(to) */\n      mload(0x40)\n      0x64a0ae9200000000000000000000000000000000000000000000000000000000\n      dup2\n      mstore\n      0x04\n      add\n      tag_438\n      swap2\n      swap1\n      tag_70\n      jump\t// in\n    tag_438:\n      mload(0x40)\n      dup1\n      swap2\n      sub\n      swap1\n      revert\n        /* \"contracts/ERC721TokenContractName.sol\":11826:11961  if (retval != IERC721TCNReceiver.onERC721Received.selector) {... */\n    tag_437:\n        /* \"contracts/ERC721TokenContractName.sol\":11783:11976  returns (bytes4 retval) {... */\n      pop\n        /* \"contracts/ERC721TokenContractName.sol\":11665:12350  if (to.code.length > 0) {... */\n    tag_420:\n        /* \"contracts/ERC721TokenContractName.sol\":11553:12357  function _checkOnERC721Received(address from, address to, uint16 tokenId, bytes memory data) private {... */\n      pop\n      pop\n      pop\n      pop\n      jump\t// out\n        /* \"contracts/ERC721TokenContractName.sol\":11460:11545  function _baseURI() private pure returns (string memory) {... */\n    tag_319:\n        /* \"contracts/ERC721TokenContractName.sol\":11502:11515  string memory */\n      0x60\n        /* \"contracts/ERC721TokenContractName.sol\":11528:11537  return \"\" */\n      mload(0x40)\n      dup1\n      0x20\n      add\n      0x40\n      mstore\n      dup1\n      0x00\n      dup2\n      mstore\n      pop\n      swap1\n      pop\n        /* \"contracts/ERC721TokenContractName.sol\":11460:11545  function _baseURI() private pure returns (string memory) {... */\n      swap1\n      jump\t// out\n        /* \"@openzeppelin/contracts/utils/Strings.sol\":637:1335  function toString(uint256 value) internal pure returns (string memory) {... */\n    tag_323:\n        /* \"@openzeppelin/contracts/utils/Strings.sol\":693:706  string memory */\n      0x60\n        /* \"@openzeppelin/contracts/utils/Strings.sol\":742:756  uint256 length */\n      0x00\n        /* \"@openzeppelin/contracts/utils/Strings.sol\":779:780  1 */\n      0x01\n        /* \"@openzeppelin/contracts/utils/Strings.sol\":759:776  Math.log10(value) */\n      tag_441\n        /* \"@openzeppelin/contracts/utils/Strings.sol\":770:775  value */\n      dup5\n        /* \"@openzeppelin/contracts/utils/Strings.sol\":759:769  Math.log10 */\n      tag_442\n        /* \"@openzeppelin/contracts/utils/Strings.sol\":759:776  Math.log10(value) */\n      jump\t// in\n    tag_441:\n        /* \"@openzeppelin/contracts/utils/Strings.sol\":759:780  Math.log10(value) + 1 */\n      add\n        /* \"@openzeppelin/contracts/utils/Strings.sol\":742:780  uint256 length = Math.log10(value) + 1 */\n      swap1\n      pop\n        /* \"@openzeppelin/contracts/utils/Strings.sol\":794:814  string memory buffer */\n      0x00\n        /* \"@openzeppelin/contracts/utils/Strings.sol\":828:834  length */\n      dup2\n        /* \"@openzeppelin/contracts/utils/Strings.sol\":817:835  new string(length) */\n      0xffffffffffffffff\n      dup2\n      gt\n      iszero\n      tag_443\n      jumpi\n      tag_444\n      tag_445\n      jump\t// in\n    tag_444:\n    tag_443:\n      mload(0x40)\n      swap1\n      dup1\n      dup3\n      mstore\n      dup1\n      0x1f\n      add\n      not(0x1f)\n      and\n      0x20\n      add\n      dup3\n      add\n      0x40\n      mstore\n      dup1\n      iszero\n      tag_446\n      jumpi\n      dup2\n      0x20\n      add\n      0x01\n      dup3\n      mul\n      dup1\n      calldatasize\n      dup4\n      calldatacopy\n      dup1\n      dup3\n      add\n      swap2\n      pop\n      pop\n      swap1\n      pop\n    tag_446:\n      pop\n        /* \"@openzeppelin/contracts/utils/Strings.sol\":794:835  string memory buffer = new string(length) */\n      swap1\n      pop\n        /* \"@openzeppelin/contracts/utils/Strings.sol\":849:860  uint256 ptr */\n      0x00\n        /* \"@openzeppelin/contracts/utils/Strings.sol\":975:981  length */\n      dup3\n        /* \"@openzeppelin/contracts/utils/Strings.sol\":971:973  32 */\n      0x20\n        /* \"@openzeppelin/contracts/utils/Strings.sol\":967:982  add(32, length) */\n      add\n        /* \"@openzeppelin/contracts/utils/Strings.sol\":959:965  buffer */\n      dup3\n        /* \"@openzeppelin/contracts/utils/Strings.sol\":955:983  add(buffer, add(32, length)) */\n      add\n        /* \"@openzeppelin/contracts/utils/Strings.sol\":948:983  ptr := add(buffer, add(32, length)) */\n      swap1\n      pop\n        /* \"@openzeppelin/contracts/utils/Strings.sol\":1010:1292  while (true) {... */\n    tag_447:\n        /* \"@openzeppelin/contracts/utils/Strings.sol\":1017:1021  true */\n      0x01\n        /* \"@openzeppelin/contracts/utils/Strings.sol\":1010:1292  while (true) {... */\n      iszero\n      tag_448\n      jumpi\n        /* \"@openzeppelin/contracts/utils/Strings.sol\":1041:1046  ptr-- */\n      dup1\n      dup1\n      0x01\n      swap1\n      sub\n      swap2\n      pop\n      pop\n        /* \"@openzeppelin/contracts/utils/Strings.sol\":1180:1190  HEX_DIGITS */\n      0x3031323334353637383961626364656600000000000000000000000000000000\n        /* \"@openzeppelin/contracts/utils/Strings.sol\":1175:1177  10 */\n      0x0a\n        /* \"@openzeppelin/contracts/utils/Strings.sol\":1168:1173  value */\n      dup7\n        /* \"@openzeppelin/contracts/utils/Strings.sol\":1164:1178  mod(value, 10) */\n      mod\n        /* \"@openzeppelin/contracts/utils/Strings.sol\":1159:1191  byte(mod(value, 10), HEX_DIGITS) */\n      byte\n        /* \"@openzeppelin/contracts/utils/Strings.sol\":1154:1157  ptr */\n      dup2\n        /* \"@openzeppelin/contracts/utils/Strings.sol\":1146:1192  mstore8(ptr, byte(mod(value, 10), HEX_DIGITS)) */\n      mstore8\n        /* \"@openzeppelin/contracts/utils/Strings.sol\":1236:1238  10 */\n      0x0a\n        /* \"@openzeppelin/contracts/utils/Strings.sol\":1227:1238  value /= 10 */\n      dup6\n      dup2\n      tag_449\n      jumpi\n      tag_450\n      tag_451\n      jump\t// in\n    tag_450:\n    tag_449:\n      div\n      swap5\n      pop\n        /* \"@openzeppelin/contracts/utils/Strings.sol\":1269:1270  0 */\n      0x00\n        /* \"@openzeppelin/contracts/utils/Strings.sol\":1260:1265  value */\n      dup6\n        /* \"@openzeppelin/contracts/utils/Strings.sol\":1260:1270  value == 0 */\n      sub\n        /* \"@openzeppelin/contracts/utils/Strings.sol\":1010:1292  while (true) {... */\n      tag_447\n        /* \"@openzeppelin/contracts/utils/Strings.sol\":1256:1277  if (value == 0) break */\n      jumpi\n        /* \"@openzeppelin/contracts/utils/Strings.sol\":1010:1292  while (true) {... */\n    tag_448:\n        /* \"@openzeppelin/contracts/utils/Strings.sol\":1312:1318  buffer */\n      dup2\n        /* \"@openzeppelin/contracts/utils/Strings.sol\":1305:1318  return buffer */\n      swap4\n      pop\n      pop\n      pop\n      pop\n        /* \"@openzeppelin/contracts/utils/Strings.sol\":637:1335  function toString(uint256 value) internal pure returns (string memory) {... */\n      swap2\n      swap1\n      pop\n      jump\t// out\n        /* \"@openzeppelin/contracts/utils/math/Math.sol\":12214:13130  function log10(uint256 value) internal pure returns (uint256) {... */\n    tag_442:\n        /* \"@openzeppelin/contracts/utils/math/Math.sol\":12267:12274  uint256 */\n      0x00\n        /* \"@openzeppelin/contracts/utils/math/Math.sol\":12286:12300  uint256 result */\n      dup1\n        /* \"@openzeppelin/contracts/utils/math/Math.sol\":12303:12304  0 */\n      0x00\n        /* \"@openzeppelin/contracts/utils/math/Math.sol\":12286:12304  uint256 result = 0 */\n      swap1\n      pop\n        /* \"@openzeppelin/contracts/utils/math/Math.sol\":12351:12359  10 ** 64 */\n      0x184f03e93ff9f4daa797ed6e38ed64bf6a1f010000000000000000\n        /* \"@openzeppelin/contracts/utils/math/Math.sol\":12342:12347  value */\n      dup4\n        /* \"@openzeppelin/contracts/utils/math/Math.sol\":12342:12359  value >= 10 ** 64 */\n      lt\n        /* \"@openzeppelin/contracts/utils/math/Math.sol\":12338:12441  if (value >= 10 ** 64) {... */\n      tag_454\n      jumpi\n        /* \"@openzeppelin/contracts/utils/math/Math.sol\":12388:12396  10 ** 64 */\n      0x184f03e93ff9f4daa797ed6e38ed64bf6a1f010000000000000000\n        /* \"@openzeppelin/contracts/utils/math/Math.sol\":12379:12396  value /= 10 ** 64 */\n      dup4\n      dup2\n      tag_455\n      jumpi\n      tag_456\n      tag_451\n      jump\t// in\n    tag_456:\n    tag_455:\n      div\n      swap3\n      pop\n        /* \"@openzeppelin/contracts/utils/math/Math.sol\":12424:12426  64 */\n      0x40\n        /* \"@openzeppelin/contracts/utils/math/Math.sol\":12414:12426  result += 64 */\n      dup2\n      add\n      swap1\n      pop\n        /* \"@openzeppelin/contracts/utils/math/Math.sol\":12338:12441  if (value >= 10 ** 64) {... */\n    tag_454:\n        /* \"@openzeppelin/contracts/utils/math/Math.sol\":12467:12475  10 ** 32 */\n      0x04ee2d6d415b85acef8100000000\n        /* \"@openzeppelin/contracts/utils/math/Math.sol\":12458:12463  value */\n      dup4\n        /* \"@openzeppelin/contracts/utils/math/Math.sol\":12458:12475  value >= 10 ** 32 */\n      lt\n        /* \"@openzeppelin/contracts/utils/math/Math.sol\":12454:12557  if (value >= 10 ** 32) {... */\n      tag_457\n      jumpi\n        /* \"@openzeppelin/contracts/utils/math/Math.sol\":12504:12512  10 ** 32 */\n      0x04ee2d6d415b85acef8100000000\n        /* \"@openzeppelin/contracts/utils/math/Math.sol\":12495:12512  value /= 10 ** 32 */\n      dup4\n      dup2\n      tag_458\n      jumpi\n      tag_459\n      tag_451\n      jump\t// in\n    tag_459:\n    tag_458:\n      div\n      swap3\n      pop\n        /* \"@openzeppelin/contracts/utils/math/Math.sol\":12540:12542  32 */\n      0x20\n        /* \"@openzeppelin/contracts/utils/math/Math.sol\":12530:12542  result += 32 */\n      dup2\n      add\n      swap1\n      pop\n        /* \"@openzeppelin/contracts/utils/math/Math.sol\":12454:12557  if (value >= 10 ** 32) {... */\n    tag_457:\n        /* \"@openzeppelin/contracts/utils/math/Math.sol\":12583:12591  10 ** 16 */\n      0x2386f26fc10000\n        /* \"@openzeppelin/contracts/utils/math/Math.sol\":12574:12579  value */\n      dup4\n        /* \"@openzeppelin/contracts/utils/math/Math.sol\":12574:12591  value >= 10 ** 16 */\n      lt\n        /* \"@openzeppelin/contracts/utils/math/Math.sol\":12570:12673  if (value >= 10 ** 16) {... */\n      tag_460\n      jumpi\n        /* \"@openzeppelin/contracts/utils/math/Math.sol\":12620:12628  10 ** 16 */\n      0x2386f26fc10000\n        /* \"@openzeppelin/contracts/utils/math/Math.sol\":12611:12628  value /= 10 ** 16 */\n      dup4\n      dup2\n      tag_461\n      jumpi\n      tag_462\n      tag_451\n      jump\t// in\n    tag_462:\n    tag_461:\n      div\n      swap3\n      pop\n        /* \"@openzeppelin/contracts/utils/math/Math.sol\":12656:12658  16 */\n      0x10\n        /* \"@openzeppelin/contracts/utils/math/Math.sol\":12646:12658  result += 16 */\n      dup2\n      add\n      swap1\n      pop\n        /* \"@openzeppelin/contracts/utils/math/Math.sol\":12570:12673  if (value >= 10 ** 16) {... */\n    tag_460:\n        /* \"@openzeppelin/contracts/utils/math/Math.sol\":12699:12706  10 ** 8 */\n      0x05f5e100\n        /* \"@openzeppelin/contracts/utils/math/Math.sol\":12690:12695  value */\n      dup4\n        /* \"@openzeppelin/contracts/utils/math/Math.sol\":12690:12706  value >= 10 ** 8 */\n      lt\n        /* \"@openzeppelin/contracts/utils/math/Math.sol\":12686:12786  if (value >= 10 ** 8) {... */\n      tag_463\n      jumpi\n        /* \"@openzeppelin/contracts/utils/math/Math.sol\":12735:12742  10 ** 8 */\n      0x05f5e100\n        /* \"@openzeppelin/contracts/utils/math/Math.sol\":12726:12742  value /= 10 ** 8 */\n      dup4\n      dup2\n      tag_464\n      jumpi\n      tag_465\n      tag_451\n      jump\t// in\n    tag_465:\n    tag_464:\n      div\n      swap3\n      pop\n        /* \"@openzeppelin/contracts/utils/math/Math.sol\":12770:12771  8 */\n      0x08\n        /* \"@openzeppelin/contracts/utils/math/Math.sol\":12760:12771  result += 8 */\n      dup2\n      add\n      swap1\n      pop\n        /* \"@openzeppelin/contracts/utils/math/Math.sol\":12686:12786  if (value >= 10 ** 8) {... */\n    tag_463:\n        /* \"@openzeppelin/contracts/utils/math/Math.sol\":12812:12819  10 ** 4 */\n      0x2710\n        /* \"@openzeppelin/contracts/utils/math/Math.sol\":12803:12808  value */\n      dup4\n        /* \"@openzeppelin/contracts/utils/math/Math.sol\":12803:12819  value >= 10 ** 4 */\n      lt\n        /* \"@openzeppelin/contracts/utils/math/Math.sol\":12799:12899  if (value >= 10 ** 4) {... */\n      tag_466\n      jumpi\n        /* \"@openzeppelin/contracts/utils/math/Math.sol\":12848:12855  10 ** 4 */\n      0x2710\n        /* \"@openzeppelin/contracts/utils/math/Math.sol\":12839:12855  value /= 10 ** 4 */\n      dup4\n      dup2\n      tag_467\n      jumpi\n      tag_468\n      tag_451\n      jump\t// in\n    tag_468:\n    tag_467:\n      div\n      swap3\n      pop\n        /* \"@openzeppelin/contracts/utils/math/Math.sol\":12883:12884  4 */\n      0x04\n        /* \"@openzeppelin/contracts/utils/math/Math.sol\":12873:12884  result += 4 */\n      dup2\n      add\n      swap1\n      pop\n        /* \"@openzeppelin/contracts/utils/math/Math.sol\":12799:12899  if (value >= 10 ** 4) {... */\n    tag_466:\n        /* \"@openzeppelin/contracts/utils/math/Math.sol\":12925:12932  10 ** 2 */\n      0x64\n        /* \"@openzeppelin/contracts/utils/math/Math.sol\":12916:12921  value */\n      dup4\n        /* \"@openzeppelin/contracts/utils/math/Math.sol\":12916:12932  value >= 10 ** 2 */\n      lt\n        /* \"@openzeppelin/contracts/utils/math/Math.sol\":12912:13012  if (value >= 10 ** 2) {... */\n      tag_469\n      jumpi\n        /* \"@openzeppelin/contracts/utils/math/Math.sol\":12961:12968  10 ** 2 */\n      0x64\n        /* \"@openzeppelin/contracts/utils/math/Math.sol\":12952:12968  value /= 10 ** 2 */\n      dup4\n      dup2\n      tag_470\n      jumpi\n      tag_471\n      tag_451\n      jump\t// in\n    tag_471:\n    tag_470:\n      div\n      swap3\n      pop\n        /* \"@openzeppelin/contracts/utils/math/Math.sol\":12996:12997  2 */\n      0x02\n        /* \"@openzeppelin/contracts/utils/math/Math.sol\":12986:12997  result += 2 */\n      dup2\n      add\n      swap1\n      pop\n        /* \"@openzeppelin/contracts/utils/math/Math.sol\":12912:13012  if (value >= 10 ** 2) {... */\n    tag_469:\n        /* \"@openzeppelin/contracts/utils/math/Math.sol\":13038:13045  10 ** 1 */\n      0x0a\n        /* \"@openzeppelin/contracts/utils/math/Math.sol\":13029:13034  value */\n      dup4\n        /* \"@openzeppelin/contracts/utils/math/Math.sol\":13029:13045  value >= 10 ** 1 */\n      lt\n        /* \"@openzeppelin/contracts/utils/math/Math.sol\":13025:13091  if (value >= 10 ** 1) {... */\n      tag_472\n      jumpi\n        /* \"@openzeppelin/contracts/utils/math/Math.sol\":13075:13076  1 */\n      0x01\n        /* \"@openzeppelin/contracts/utils/math/Math.sol\":13065:13076  result += 1 */\n      dup2\n      add\n      swap1\n      pop\n        /* \"@openzeppelin/contracts/utils/math/Math.sol\":13025:13091  if (value >= 10 ** 1) {... */\n    tag_472:\n        /* \"@openzeppelin/contracts/utils/math/Math.sol\":13117:13123  result */\n      dup1\n        /* \"@openzeppelin/contracts/utils/math/Math.sol\":13110:13123  return result */\n      swap2\n      pop\n      pop\n        /* \"@openzeppelin/contracts/utils/math/Math.sol\":12214:13130  function log10(uint256 value) internal pure returns (uint256) {... */\n      swap2\n      swap1\n      pop\n      jump\t// out\n    tag_158:\n      dup3\n      add(0x0f, 0x04b1)\n      0x10\n      swap1\n      div\n      dup2\n      add\n      swap3\n      dup3\n      iszero\n      tag_473\n      jumpi\n      swap2\n      0x20\n      mul\n      dup3\n      add\n      0x00\n    tag_474:\n      dup4\n      dup3\n      gt\n      iszero\n      tag_475\n      jumpi\n      dup4\n      mload\n      dup4\n      dup3\n      0x0100\n      exp\n      dup2\n      sload\n      dup2\n      0xffff\n      mul\n      not\n      and\n      swap1\n      dup4\n      0xffff\n      and\n      mul\n      or\n      swap1\n      sstore\n      pop\n      swap3\n      0x20\n      add\n      swap3\n      0x02\n      add\n      0x20\n      dup2\n      0x01\n      add\n      div\n      swap3\n      dup4\n      add\n      swap3\n      0x01\n      sub\n      mul\n      jump(tag_474)\n    tag_475:\n      dup1\n      iszero\n      tag_476\n      jumpi\n      dup3\n      dup2\n      0x0100\n      exp\n      dup2\n      sload\n      swap1\n      0xffff\n      mul\n      not\n      and\n      swap1\n      sstore\n      0x02\n      add\n      0x20\n      dup2\n      0x01\n      add\n      div\n      swap3\n      dup4\n      add\n      swap3\n      0x01\n      sub\n      mul\n      jump(tag_475)\n    tag_476:\n      pop\n    tag_473:\n      pop\n      swap1\n      pop\n      tag_477\n      swap2\n      swap1\n      tag_478\n      jump\t// in\n    tag_477:\n      pop\n      swap1\n      jump\t// out\n    tag_478:\n    tag_479:\n      dup1\n      dup3\n      gt\n      iszero\n      tag_480\n      jumpi\n      0x00\n      dup2\n      0x00\n      swap1\n      sstore\n      pop\n      0x01\n      add\n      jump(tag_479)\n    tag_480:\n      pop\n      swap1\n      jump\t// out\n        /* \"#utility.yul\":7:157   */\n    tag_481:\n        /* \"#utility.yul\":44:51   */\n      0x00\n        /* \"#utility.yul\":84:150   */\n      0xffffffffffffffffffffffffffffffffffffffff000000000000000000000000\n        /* \"#utility.yul\":77:82   */\n      dup3\n        /* \"#utility.yul\":73:151   */\n      and\n        /* \"#utility.yul\":62:151   */\n      swap1\n      pop\n        /* \"#utility.yul\":7:157   */\n      swap2\n      swap1\n      pop\n      jump\t// out\n        /* \"#utility.yul\":163:281   */\n    tag_482:\n        /* \"#utility.yul\":250:274   */\n      tag_572\n        /* \"#utility.yul\":268:273   */\n      dup2\n        /* \"#utility.yul\":250:274   */\n      tag_481\n      jump\t// in\n    tag_572:\n        /* \"#utility.yul\":245:248   */\n      dup3\n        /* \"#utility.yul\":238:275   */\n      mstore\n        /* \"#utility.yul\":163:281   */\n      pop\n      pop\n      jump\t// out\n        /* \"#utility.yul\":287:509   */\n    tag_28:\n        /* \"#utility.yul\":380:384   */\n      0x00\n        /* \"#utility.yul\":418:420   */\n      0x20\n        /* \"#utility.yul\":407:416   */\n      dup3\n        /* \"#utility.yul\":403:421   */\n      add\n        /* \"#utility.yul\":395:421   */\n      swap1\n      pop\n        /* \"#utility.yul\":431:502   */\n      tag_574\n        /* \"#utility.yul\":499:500   */\n      0x00\n        /* \"#utility.yul\":488:497   */\n      dup4\n        /* \"#utility.yul\":484:501   */\n      add\n        /* \"#utility.yul\":475:481   */\n      dup5\n        /* \"#utility.yul\":431:502   */\n      tag_482\n      jump\t// in\n    tag_574:\n        /* \"#utility.yul\":287:509   */\n      swap3\n      swap2\n      pop\n      pop\n      jump\t// out\n        /* \"#utility.yul\":515:590   */\n    tag_483:\n        /* \"#utility.yul\":548:554   */\n      0x00\n        /* \"#utility.yul\":581:583   */\n      0x40\n        /* \"#utility.yul\":575:584   */\n      mload\n        /* \"#utility.yul\":565:584   */\n      swap1\n      pop\n        /* \"#utility.yul\":515:590   */\n      swap1\n      jump\t// out\n        /* \"#utility.yul\":596:713   */\n    tag_484:\n        /* \"#utility.yul\":705:706   */\n      0x00\n        /* \"#utility.yul\":702:703   */\n      dup1\n        /* \"#utility.yul\":695:707   */\n      revert\n        /* \"#utility.yul\":719:836   */\n    tag_485:\n        /* \"#utility.yul\":828:829   */\n      0x00\n        /* \"#utility.yul\":825:826   */\n      dup1\n        /* \"#utility.yul\":818:830   */\n      revert\n        /* \"#utility.yul\":842:968   */\n    tag_486:\n        /* \"#utility.yul\":879:886   */\n      0x00\n        /* \"#utility.yul\":919:961   */\n      0xffffffffffffffffffffffffffffffffffffffff\n        /* \"#utility.yul\":912:917   */\n      dup3\n        /* \"#utility.yul\":908:962   */\n      and\n        /* \"#utility.yul\":897:962   */\n      swap1\n      pop\n        /* \"#utility.yul\":842:968   */\n      swap2\n      swap1\n      pop\n      jump\t// out\n        /* \"#utility.yul\":974:1070   */\n    tag_487:\n        /* \"#utility.yul\":1011:1018   */\n      0x00\n        /* \"#utility.yul\":1040:1064   */\n      tag_580\n        /* \"#utility.yul\":1058:1063   */\n      dup3\n        /* \"#utility.yul\":1040:1064   */\n      tag_486\n      jump\t// in\n    tag_580:\n        /* \"#utility.yul\":1029:1064   */\n      swap1\n      pop\n        /* \"#utility.yul\":974:1070   */\n      swap2\n      swap1\n      pop\n      jump\t// out\n        /* \"#utility.yul\":1076:1198   */\n    tag_488:\n        /* \"#utility.yul\":1149:1173   */\n      tag_582\n        /* \"#utility.yul\":1167:1172   */\n      dup2\n        /* \"#utility.yul\":1149:1173   */\n      tag_487\n      jump\t// in\n    tag_582:\n        /* \"#utility.yul\":1142:1147   */\n      dup2\n        /* \"#utility.yul\":1139:1174   */\n      eq\n        /* \"#utility.yul\":1129:1192   */\n      tag_583\n      jumpi\n        /* \"#utility.yul\":1188:1189   */\n      0x00\n        /* \"#utility.yul\":1185:1186   */\n      dup1\n        /* \"#utility.yul\":1178:1190   */\n      revert\n        /* \"#utility.yul\":1129:1192   */\n    tag_583:\n        /* \"#utility.yul\":1076:1198   */\n      pop\n      jump\t// out\n        /* \"#utility.yul\":1204:1343   */\n    tag_489:\n        /* \"#utility.yul\":1250:1255   */\n      0x00\n        /* \"#utility.yul\":1288:1294   */\n      dup2\n        /* \"#utility.yul\":1275:1295   */\n      calldataload\n        /* \"#utility.yul\":1266:1295   */\n      swap1\n      pop\n        /* \"#utility.yul\":1304:1337   */\n      tag_585\n        /* \"#utility.yul\":1331:1336   */\n      dup2\n        /* \"#utility.yul\":1304:1337   */\n      tag_488\n      jump\t// in\n    tag_585:\n        /* \"#utility.yul\":1204:1343   */\n      swap3\n      swap2\n      pop\n      pop\n      jump\t// out\n        /* \"#utility.yul\":1349:1438   */\n    tag_490:\n        /* \"#utility.yul\":1385:1392   */\n      0x00\n        /* \"#utility.yul\":1425:1431   */\n      0xffff\n        /* \"#utility.yul\":1418:1423   */\n      dup3\n        /* \"#utility.yul\":1414:1432   */\n      and\n        /* \"#utility.yul\":1403:1432   */\n      swap1\n      pop\n        /* \"#utility.yul\":1349:1438   */\n      swap2\n      swap1\n      pop\n      jump\t// out\n        /* \"#utility.yul\":1444:1564   */\n    tag_491:\n        /* \"#utility.yul\":1516:1539   */\n      tag_588\n        /* \"#utility.yul\":1533:1538   */\n      dup2\n        /* \"#utility.yul\":1516:1539   */\n      tag_490\n      jump\t// in\n    tag_588:\n        /* \"#utility.yul\":1509:1514   */\n      dup2\n        /* \"#utility.yul\":1506:1540   */\n      eq\n        /* \"#utility.yul\":1496:1558   */\n      tag_589\n      jumpi\n        /* \"#utility.yul\":1554:1555   */\n      0x00\n        /* \"#utility.yul\":1551:1552   */\n      dup1\n        /* \"#utility.yul\":1544:1556   */\n      revert\n        /* \"#utility.yul\":1496:1558   */\n    tag_589:\n        /* \"#utility.yul\":1444:1564   */\n      pop\n      jump\t// out\n        /* \"#utility.yul\":1570:1707   */\n    tag_492:\n        /* \"#utility.yul\":1615:1620   */\n      0x00\n        /* \"#utility.yul\":1653:1659   */\n      dup2\n        /* \"#utility.yul\":1640:1660   */\n      calldataload\n        /* \"#utility.yul\":1631:1660   */\n      swap1\n      pop\n        /* \"#utility.yul\":1669:1701   */\n      tag_591\n        /* \"#utility.yul\":1695:1700   */\n      dup2\n        /* \"#utility.yul\":1669:1701   */\n      tag_491\n      jump\t// in\n    tag_591:\n        /* \"#utility.yul\":1570:1707   */\n      swap3\n      swap2\n      pop\n      pop\n      jump\t// out\n        /* \"#utility.yul\":1713:2330   */\n    tag_32:\n        /* \"#utility.yul\":1789:1795   */\n      0x00\n        /* \"#utility.yul\":1797:1803   */\n      dup1\n        /* \"#utility.yul\":1805:1811   */\n      0x00\n        /* \"#utility.yul\":1854:1856   */\n      0x60\n        /* \"#utility.yul\":1842:1851   */\n      dup5\n        /* \"#utility.yul\":1833:1840   */\n      dup7\n        /* \"#utility.yul\":1829:1852   */\n      sub\n        /* \"#utility.yul\":1825:1857   */\n      slt\n        /* \"#utility.yul\":1822:1941   */\n      iszero\n      tag_593\n      jumpi\n        /* \"#utility.yul\":1860:1939   */\n      tag_594\n      tag_484\n      jump\t// in\n    tag_594:\n        /* \"#utility.yul\":1822:1941   */\n    tag_593:\n        /* \"#utility.yul\":1980:1981   */\n      0x00\n        /* \"#utility.yul\":2005:2058   */\n      tag_595\n        /* \"#utility.yul\":2050:2057   */\n      dup7\n        /* \"#utility.yul\":2041:2047   */\n      dup3\n        /* \"#utility.yul\":2030:2039   */\n      dup8\n        /* \"#utility.yul\":2026:2048   */\n      add\n        /* \"#utility.yul\":2005:2058   */\n      tag_489\n      jump\t// in\n    tag_595:\n        /* \"#utility.yul\":1995:2058   */\n      swap4\n      pop\n        /* \"#utility.yul\":1951:2068   */\n      pop\n        /* \"#utility.yul\":2107:2109   */\n      0x20\n        /* \"#utility.yul\":2133:2186   */\n      tag_596\n        /* \"#utility.yul\":2178:2185   */\n      dup7\n        /* \"#utility.yul\":2169:2175   */\n      dup3\n        /* \"#utility.yul\":2158:2167   */\n      dup8\n        /* \"#utility.yul\":2154:2176   */\n      add\n        /* \"#utility.yul\":2133:2186   */\n      tag_489\n      jump\t// in\n    tag_596:\n        /* \"#utility.yul\":2123:2186   */\n      swap3\n      pop\n        /* \"#utility.yul\":2078:2196   */\n      pop\n        /* \"#utility.yul\":2235:2237   */\n      0x40\n        /* \"#utility.yul\":2261:2313   */\n      tag_597\n        /* \"#utility.yul\":2305:2312   */\n      dup7\n        /* \"#utility.yul\":2296:2302   */\n      dup3\n        /* \"#utility.yul\":2285:2294   */\n      dup8\n        /* \"#utility.yul\":2281:2303   */\n      add\n        /* \"#utility.yul\":2261:2313   */\n      tag_492\n      jump\t// in\n    tag_597:\n        /* \"#utility.yul\":2251:2313   */\n      swap2\n      pop\n        /* \"#utility.yul\":2206:2323   */\n      pop\n        /* \"#utility.yul\":1713:2330   */\n      swap3\n      pop\n      swap3\n      pop\n      swap3\n      jump\t// out\n        /* \"#utility.yul\":2336:2413   */\n    tag_493:\n        /* \"#utility.yul\":2373:2380   */\n      0x00\n        /* \"#utility.yul\":2402:2407   */\n      dup2\n        /* \"#utility.yul\":2391:2407   */\n      swap1\n      pop\n        /* \"#utility.yul\":2336:2413   */\n      swap2\n      swap1\n      pop\n      jump\t// out\n        /* \"#utility.yul\":2419:2541   */\n    tag_494:\n        /* \"#utility.yul\":2492:2516   */\n      tag_600\n        /* \"#utility.yul\":2510:2515   */\n      dup2\n        /* \"#utility.yul\":2492:2516   */\n      tag_493\n      jump\t// in\n    tag_600:\n        /* \"#utility.yul\":2485:2490   */\n      dup2\n        /* \"#utility.yul\":2482:2517   */\n      eq\n        /* \"#utility.yul\":2472:2535   */\n      tag_601\n      jumpi\n        /* \"#utility.yul\":2531:2532   */\n      0x00\n        /* \"#utility.yul\":2528:2529   */\n      dup1\n        /* \"#utility.yul\":2521:2533   */\n      revert\n        /* \"#utility.yul\":2472:2535   */\n    tag_601:\n        /* \"#utility.yul\":2419:2541   */\n      pop\n      jump\t// out\n        /* \"#utility.yul\":2547:2686   */\n    tag_495:\n        /* \"#utility.yul\":2593:2598   */\n      0x00\n        /* \"#utility.yul\":2631:2637   */\n      dup2\n        /* \"#utility.yul\":2618:2638   */\n      calldataload\n        /* \"#utility.yul\":2609:2638   */\n      swap1\n      pop\n        /* \"#utility.yul\":2647:2680   */\n      tag_603\n        /* \"#utility.yul\":2674:2679   */\n      dup2\n        /* \"#utility.yul\":2647:2680   */\n      tag_494\n      jump\t// in\n    tag_603:\n        /* \"#utility.yul\":2547:2686   */\n      swap3\n      swap2\n      pop\n      pop\n      jump\t// out\n        /* \"#utility.yul\":2692:2809   */\n    tag_496:\n        /* \"#utility.yul\":2801:2802   */\n      0x00\n        /* \"#utility.yul\":2798:2799   */\n      dup1\n        /* \"#utility.yul\":2791:2803   */\n      revert\n        /* \"#utility.yul\":2815:2917   */\n    tag_497:\n        /* \"#utility.yul\":2856:2862   */\n      0x00\n        /* \"#utility.yul\":2907:2909   */\n      0x1f\n        /* \"#utility.yul\":2903:2910   */\n      not\n        /* \"#utility.yul\":2898:2900   */\n      0x1f\n        /* \"#utility.yul\":2891:2896   */\n      dup4\n        /* \"#utility.yul\":2887:2901   */\n      add\n        /* \"#utility.yul\":2883:2911   */\n      and\n        /* \"#utility.yul\":2873:2911   */\n      swap1\n      pop\n        /* \"#utility.yul\":2815:2917   */\n      swap2\n      swap1\n      pop\n      jump\t// out\n        /* \"#utility.yul\":2923:3103   */\n    tag_445:\n        /* \"#utility.yul\":2971:3048   */\n      0x4e487b7100000000000000000000000000000000000000000000000000000000\n        /* \"#utility.yul\":2968:2969   */\n      0x00\n        /* \"#utility.yul\":2961:3049   */\n      mstore\n        /* \"#utility.yul\":3068:3072   */\n      0x41\n        /* \"#utility.yul\":3065:3066   */\n      0x04\n        /* \"#utility.yul\":3058:3073   */\n      mstore\n        /* \"#utility.yul\":3092:3096   */\n      0x24\n        /* \"#utility.yul\":3089:3090   */\n      0x00\n        /* \"#utility.yul\":3082:3097   */\n      revert\n        /* \"#utility.yul\":3109:3390   */\n    tag_498:\n        /* \"#utility.yul\":3192:3219   */\n      tag_608\n        /* \"#utility.yul\":3214:3218   */\n      dup3\n        /* \"#utility.yul\":3192:3219   */\n      tag_497\n      jump\t// in\n    tag_608:\n        /* \"#utility.yul\":3184:3190   */\n      dup2\n        /* \"#utility.yul\":3180:3220   */\n      add\n        /* \"#utility.yul\":3322:3328   */\n      dup2\n        /* \"#utility.yul\":3310:3320   */\n      dup2\n        /* \"#utility.yul\":3307:3329   */\n      lt\n        /* \"#utility.yul\":3286:3304   */\n      0xffffffffffffffff\n        /* \"#utility.yul\":3274:3284   */\n      dup3\n        /* \"#utility.yul\":3271:3305   */\n      gt\n        /* \"#utility.yul\":3268:3330   */\n      or\n        /* \"#utility.yul\":3265:3353   */\n      iszero\n      tag_609\n      jumpi\n        /* \"#utility.yul\":3333:3351   */\n      tag_610\n      tag_445\n      jump\t// in\n    tag_610:\n        /* \"#utility.yul\":3265:3353   */\n    tag_609:\n        /* \"#utility.yul\":3373:3383   */\n      dup1\n        /* \"#utility.yul\":3369:3371   */\n      0x40\n        /* \"#utility.yul\":3362:3384   */\n      mstore\n        /* \"#utility.yul\":3152:3390   */\n      pop\n        /* \"#utility.yul\":3109:3390   */\n      pop\n      pop\n      jump\t// out\n        /* \"#utility.yul\":3396:3525   */\n    tag_499:\n        /* \"#utility.yul\":3430:3436   */\n      0x00\n        /* \"#utility.yul\":3457:3477   */\n      tag_612\n      tag_483\n      jump\t// in\n    tag_612:\n        /* \"#utility.yul\":3447:3477   */\n      swap1\n      pop\n        /* \"#utility.yul\":3486:3519   */\n      tag_613\n        /* \"#utility.yul\":3514:3518   */\n      dup3\n        /* \"#utility.yul\":3506:3512   */\n      dup3\n        /* \"#utility.yul\":3486:3519   */\n      tag_498\n      jump\t// in\n    tag_613:\n        /* \"#utility.yul\":3396:3525   */\n      swap2\n      swap1\n      pop\n      jump\t// out\n        /* \"#utility.yul\":3531:3782   */\n    tag_500:\n        /* \"#utility.yul\":3608:3612   */\n      0x00\n        /* \"#utility.yul\":3698:3716   */\n      0xffffffffffffffff\n        /* \"#utility.yul\":3690:3696   */\n      dup3\n        /* \"#utility.yul\":3687:3717   */\n      gt\n        /* \"#utility.yul\":3684:3740   */\n      iszero\n      tag_615\n      jumpi\n        /* \"#utility.yul\":3720:3738   */\n      tag_616\n      tag_445\n      jump\t// in\n    tag_616:\n        /* \"#utility.yul\":3684:3740   */\n    tag_615:\n        /* \"#utility.yul\":3770:3774   */\n      0x20\n        /* \"#utility.yul\":3762:3768   */\n      dup3\n        /* \"#utility.yul\":3758:3775   */\n      mul\n        /* \"#utility.yul\":3750:3775   */\n      swap1\n      pop\n        /* \"#utility.yul\":3531:3782   */\n      swap2\n      swap1\n      pop\n      jump\t// out\n        /* \"#utility.yul\":3788:3905   */\n    tag_501:\n        /* \"#utility.yul\":3897:3898   */\n      0x00\n        /* \"#utility.yul\":3894:3895   */\n      dup1\n        /* \"#utility.yul\":3887:3899   */\n      revert\n        /* \"#utility.yul\":3931:4577   */\n    tag_502:\n        /* \"#utility.yul\":4027:4032   */\n      0x00\n        /* \"#utility.yul\":4052:4133   */\n      tag_619\n        /* \"#utility.yul\":4068:4132   */\n      tag_620\n        /* \"#utility.yul\":4125:4131   */\n      dup5\n        /* \"#utility.yul\":4068:4132   */\n      tag_500\n      jump\t// in\n    tag_620:\n        /* \"#utility.yul\":4052:4133   */\n      tag_499\n      jump\t// in\n    tag_619:\n        /* \"#utility.yul\":4043:4133   */\n      swap1\n      pop\n        /* \"#utility.yul\":4153:4158   */\n      dup1\n        /* \"#utility.yul\":4206:4210   */\n      0x20\n        /* \"#utility.yul\":4198:4204   */\n      dup5\n        /* \"#utility.yul\":4194:4211   */\n      mul\n        /* \"#utility.yul\":4186:4192   */\n      dup4\n        /* \"#utility.yul\":4182:4212   */\n      add\n        /* \"#utility.yul\":4235:4238   */\n      dup6\n        /* \"#utility.yul\":4227:4233   */\n      dup2\n        /* \"#utility.yul\":4224:4239   */\n      gt\n        /* \"#utility.yul\":4221:4343   */\n      iszero\n      tag_621\n      jumpi\n        /* \"#utility.yul\":4254:4333   */\n      tag_622\n      tag_501\n      jump\t// in\n    tag_622:\n        /* \"#utility.yul\":4221:4343   */\n    tag_621:\n        /* \"#utility.yul\":4369:4375   */\n      dup4\n        /* \"#utility.yul\":4352:4571   */\n    tag_623:\n        /* \"#utility.yul\":4386:4392   */\n      dup2\n        /* \"#utility.yul\":4381:4384   */\n      dup2\n        /* \"#utility.yul\":4378:4393   */\n      lt\n        /* \"#utility.yul\":4352:4571   */\n      iszero\n      tag_625\n      jumpi\n        /* \"#utility.yul\":4461:4464   */\n      dup1\n        /* \"#utility.yul\":4490:4526   */\n      tag_626\n        /* \"#utility.yul\":4522:4525   */\n      dup9\n        /* \"#utility.yul\":4510:4520   */\n      dup3\n        /* \"#utility.yul\":4490:4526   */\n      tag_492\n      jump\t// in\n    tag_626:\n        /* \"#utility.yul\":4485:4488   */\n      dup5\n        /* \"#utility.yul\":4478:4527   */\n      mstore\n        /* \"#utility.yul\":4556:4560   */\n      0x20\n        /* \"#utility.yul\":4551:4554   */\n      dup5\n        /* \"#utility.yul\":4547:4561   */\n      add\n        /* \"#utility.yul\":4540:4561   */\n      swap4\n      pop\n        /* \"#utility.yul\":4428:4571   */\n      pop\n        /* \"#utility.yul\":4412:4416   */\n      0x20\n        /* \"#utility.yul\":4407:4410   */\n      dup2\n        /* \"#utility.yul\":4403:4417   */\n      add\n        /* \"#utility.yul\":4396:4417   */\n      swap1\n      pop\n        /* \"#utility.yul\":4352:4571   */\n      jump(tag_623)\n    tag_625:\n        /* \"#utility.yul\":4356:4377   */\n      pop\n        /* \"#utility.yul\":4033:4577   */\n      pop\n      pop\n        /* \"#utility.yul\":3931:4577   */\n      swap4\n      swap3\n      pop\n      pop\n      pop\n      jump\t// out\n        /* \"#utility.yul\":4603:4948   */\n    tag_503:\n        /* \"#utility.yul\":4674:4679   */\n      0x00\n        /* \"#utility.yul\":4723:4726   */\n      dup3\n        /* \"#utility.yul\":4716:4720   */\n      0x1f\n        /* \"#utility.yul\":4708:4714   */\n      dup4\n        /* \"#utility.yul\":4704:4721   */\n      add\n        /* \"#utility.yul\":4700:4727   */\n      slt\n        /* \"#utility.yul\":4690:4812   */\n      tag_628\n      jumpi\n        /* \"#utility.yul\":4731:4810   */\n      tag_629\n      tag_496\n      jump\t// in\n    tag_629:\n        /* \"#utility.yul\":4690:4812   */\n    tag_628:\n        /* \"#utility.yul\":4835:4841   */\n      0x04b1\n        /* \"#utility.yul\":4859:4942   */\n      tag_630\n        /* \"#utility.yul\":4938:4941   */\n      dup5\n        /* \"#utility.yul\":4930:4936   */\n      dup3\n        /* \"#utility.yul\":4922:4928   */\n      dup6\n        /* \"#utility.yul\":4859:4942   */\n      tag_502\n      jump\t// in\n    tag_630:\n        /* \"#utility.yul\":4850:4942   */\n      swap2\n      pop\n        /* \"#utility.yul\":4680:4948   */\n      pop\n        /* \"#utility.yul\":4603:4948   */\n      swap3\n      swap2\n      pop\n      pop\n      jump\t// out\n        /* \"#utility.yul\":4954:6061   */\n    tag_37:\n        /* \"#utility.yul\":5082:5088   */\n      0x00\n        /* \"#utility.yul\":5090:5096   */\n      dup1\n        /* \"#utility.yul\":5098:5104   */\n      0x00\n        /* \"#utility.yul\":5106:5112   */\n      dup1\n        /* \"#utility.yul\":5114:5120   */\n      0x00\n        /* \"#utility.yul\":5122:5128   */\n      dup1\n        /* \"#utility.yul\":5171:5176   */\n      0x96c0\n        /* \"#utility.yul\":5159:5168   */\n      dup8\n        /* \"#utility.yul\":5150:5157   */\n      dup10\n        /* \"#utility.yul\":5146:5169   */\n      sub\n        /* \"#utility.yul\":5142:5177   */\n      slt\n        /* \"#utility.yul\":5139:5261   */\n      iszero\n      tag_632\n      jumpi\n        /* \"#utility.yul\":5180:5259   */\n      tag_633\n      tag_484\n      jump\t// in\n    tag_633:\n        /* \"#utility.yul\":5139:5261   */\n    tag_632:\n        /* \"#utility.yul\":5300:5301   */\n      0x00\n        /* \"#utility.yul\":5325:5377   */\n      tag_634\n        /* \"#utility.yul\":5369:5376   */\n      dup10\n        /* \"#utility.yul\":5360:5366   */\n      dup3\n        /* \"#utility.yul\":5349:5358   */\n      dup11\n        /* \"#utility.yul\":5345:5367   */\n      add\n        /* \"#utility.yul\":5325:5377   */\n      tag_492\n      jump\t// in\n    tag_634:\n        /* \"#utility.yul\":5315:5377   */\n      swap7\n      pop\n        /* \"#utility.yul\":5271:5387   */\n      pop\n        /* \"#utility.yul\":5426:5428   */\n      0x20\n        /* \"#utility.yul\":5452:5505   */\n      tag_635\n        /* \"#utility.yul\":5497:5504   */\n      dup10\n        /* \"#utility.yul\":5488:5494   */\n      dup3\n        /* \"#utility.yul\":5477:5486   */\n      dup11\n        /* \"#utility.yul\":5473:5495   */\n      add\n        /* \"#utility.yul\":5452:5505   */\n      tag_495\n      jump\t// in\n    tag_635:\n        /* \"#utility.yul\":5442:5505   */\n      swap6\n      pop\n        /* \"#utility.yul\":5397:5515   */\n      pop\n        /* \"#utility.yul\":5554:5556   */\n      0x40\n        /* \"#utility.yul\":5580:5633   */\n      tag_636\n        /* \"#utility.yul\":5625:5632   */\n      dup10\n        /* \"#utility.yul\":5616:5622   */\n      dup3\n        /* \"#utility.yul\":5605:5614   */\n      dup11\n        /* \"#utility.yul\":5601:5623   */\n      add\n        /* \"#utility.yul\":5580:5633   */\n      tag_489\n      jump\t// in\n    tag_636:\n        /* \"#utility.yul\":5570:5633   */\n      swap5\n      pop\n        /* \"#utility.yul\":5525:5643   */\n      pop\n        /* \"#utility.yul\":5682:5684   */\n      0x60\n        /* \"#utility.yul\":5708:5761   */\n      tag_637\n        /* \"#utility.yul\":5753:5760   */\n      dup10\n        /* \"#utility.yul\":5744:5750   */\n      dup3\n        /* \"#utility.yul\":5733:5742   */\n      dup11\n        /* \"#utility.yul\":5729:5751   */\n      add\n        /* \"#utility.yul\":5708:5761   */\n      tag_489\n      jump\t// in\n    tag_637:\n        /* \"#utility.yul\":5698:5761   */\n      swap4\n      pop\n        /* \"#utility.yul\":5653:5771   */\n      pop\n        /* \"#utility.yul\":5810:5813   */\n      0x80\n        /* \"#utility.yul\":5837:5890   */\n      tag_638\n        /* \"#utility.yul\":5882:5889   */\n      dup10\n        /* \"#utility.yul\":5873:5879   */\n      dup3\n        /* \"#utility.yul\":5862:5871   */\n      dup11\n        /* \"#utility.yul\":5858:5880   */\n      add\n        /* \"#utility.yul\":5837:5890   */\n      tag_495\n      jump\t// in\n    tag_638:\n        /* \"#utility.yul\":5827:5890   */\n      swap3\n      pop\n        /* \"#utility.yul\":5781:5900   */\n      pop\n        /* \"#utility.yul\":5939:5942   */\n      0xa0\n        /* \"#utility.yul\":5966:6044   */\n      tag_639\n        /* \"#utility.yul\":6036:6043   */\n      dup10\n        /* \"#utility.yul\":6027:6033   */\n      dup3\n        /* \"#utility.yul\":6016:6025   */\n      dup11\n        /* \"#utility.yul\":6012:6034   */\n      add\n        /* \"#utility.yul\":5966:6044   */\n      tag_503\n      jump\t// in\n    tag_639:\n        /* \"#utility.yul\":5956:6044   */\n      swap2\n      pop\n        /* \"#utility.yul\":5910:6054   */\n      pop\n        /* \"#utility.yul\":4954:6061   */\n      swap3\n      swap6\n      pop\n      swap3\n      swap6\n      pop\n      swap3\n      swap6\n      jump\t// out\n        /* \"#utility.yul\":6067:6396   */\n    tag_45:\n        /* \"#utility.yul\":6126:6132   */\n      0x00\n        /* \"#utility.yul\":6175:6177   */\n      0x20\n        /* \"#utility.yul\":6163:6172   */\n      dup3\n        /* \"#utility.yul\":6154:6161   */\n      dup5\n        /* \"#utility.yul\":6150:6173   */\n      sub\n        /* \"#utility.yul\":6146:6178   */\n      slt\n        /* \"#utility.yul\":6143:6262   */\n      iszero\n      tag_641\n      jumpi\n        /* \"#utility.yul\":6181:6260   */\n      tag_642\n      tag_484\n      jump\t// in\n    tag_642:\n        /* \"#utility.yul\":6143:6262   */\n    tag_641:\n        /* \"#utility.yul\":6301:6302   */\n      0x00\n        /* \"#utility.yul\":6326:6379   */\n      tag_643\n        /* \"#utility.yul\":6371:6378   */\n      dup5\n        /* \"#utility.yul\":6362:6368   */\n      dup3\n        /* \"#utility.yul\":6351:6360   */\n      dup6\n        /* \"#utility.yul\":6347:6369   */\n      add\n        /* \"#utility.yul\":6326:6379   */\n      tag_489\n      jump\t// in\n    tag_643:\n        /* \"#utility.yul\":6316:6379   */\n      swap2\n      pop\n        /* \"#utility.yul\":6272:6389   */\n      pop\n        /* \"#utility.yul\":6067:6396   */\n      swap3\n      swap2\n      pop\n      pop\n      jump\t// out\n        /* \"#utility.yul\":6402:6492   */\n    tag_504:\n        /* \"#utility.yul\":6436:6443   */\n      0x00\n        /* \"#utility.yul\":6479:6484   */\n      dup2\n        /* \"#utility.yul\":6472:6485   */\n      iszero\n        /* \"#utility.yul\":6465:6486   */\n      iszero\n        /* \"#utility.yul\":6454:6486   */\n      swap1\n      pop\n        /* \"#utility.yul\":6402:6492   */\n      swap2\n      swap1\n      pop\n      jump\t// out\n        /* \"#utility.yul\":6498:6607   */\n    tag_505:\n        /* \"#utility.yul\":6579:6600   */\n      tag_646\n        /* \"#utility.yul\":6594:6599   */\n      dup2\n        /* \"#utility.yul\":6579:6600   */\n      tag_504\n      jump\t// in\n    tag_646:\n        /* \"#utility.yul\":6574:6577   */\n      dup3\n        /* \"#utility.yul\":6567:6601   */\n      mstore\n        /* \"#utility.yul\":6498:6607   */\n      pop\n      pop\n      jump\t// out\n        /* \"#utility.yul\":6613:6823   */\n    tag_48:\n        /* \"#utility.yul\":6700:6704   */\n      0x00\n        /* \"#utility.yul\":6738:6740   */\n      0x20\n        /* \"#utility.yul\":6727:6736   */\n      dup3\n        /* \"#utility.yul\":6723:6741   */\n      add\n        /* \"#utility.yul\":6715:6741   */\n      swap1\n      pop\n        /* \"#utility.yul\":6751:6816   */\n      tag_648\n        /* \"#utility.yul\":6813:6814   */\n      0x00\n        /* \"#utility.yul\":6802:6811   */\n      dup4\n        /* \"#utility.yul\":6798:6815   */\n      add\n        /* \"#utility.yul\":6789:6795   */\n      dup5\n        /* \"#utility.yul\":6751:6816   */\n      tag_505\n      jump\t// in\n    tag_648:\n        /* \"#utility.yul\":6613:6823   */\n      swap3\n      swap2\n      pop\n      pop\n      jump\t// out\n        /* \"#utility.yul\":6829:6906   */\n    tag_506:\n        /* \"#utility.yul\":6866:6873   */\n      0x00\n        /* \"#utility.yul\":6895:6900   */\n      dup2\n        /* \"#utility.yul\":6884:6900   */\n      swap1\n      pop\n        /* \"#utility.yul\":6829:6906   */\n      swap2\n      swap1\n      pop\n      jump\t// out\n        /* \"#utility.yul\":6912:7030   */\n    tag_507:\n        /* \"#utility.yul\":6999:7023   */\n      tag_651\n        /* \"#utility.yul\":7017:7022   */\n      dup2\n        /* \"#utility.yul\":6999:7023   */\n      tag_506\n      jump\t// in\n    tag_651:\n        /* \"#utility.yul\":6994:6997   */\n      dup3\n        /* \"#utility.yul\":6987:7024   */\n      mstore\n        /* \"#utility.yul\":6912:7030   */\n      pop\n      pop\n      jump\t// out\n        /* \"#utility.yul\":7036:7258   */\n    tag_57:\n        /* \"#utility.yul\":7129:7133   */\n      0x00\n        /* \"#utility.yul\":7167:7169   */\n      0x20\n        /* \"#utility.yul\":7156:7165   */\n      dup3\n        /* \"#utility.yul\":7152:7170   */\n      add\n        /* \"#utility.yul\":7144:7170   */\n      swap1\n      pop\n        /* \"#utility.yul\":7180:7251   */\n      tag_653\n        /* \"#utility.yul\":7248:7249   */\n      0x00\n        /* \"#utility.yul\":7237:7246   */\n      dup4\n        /* \"#utility.yul\":7233:7250   */\n      add\n        /* \"#utility.yul\":7224:7230   */\n      dup5\n        /* \"#utility.yul\":7180:7251   */\n      tag_507\n      jump\t// in\n    tag_653:\n        /* \"#utility.yul\":7036:7258   */\n      swap3\n      swap2\n      pop\n      pop\n      jump\t// out\n        /* \"#utility.yul\":7264:7379   */\n    tag_508:\n        /* \"#utility.yul\":7349:7372   */\n      tag_655\n        /* \"#utility.yul\":7366:7371   */\n      dup2\n        /* \"#utility.yul\":7349:7372   */\n      tag_490\n      jump\t// in\n    tag_655:\n        /* \"#utility.yul\":7344:7347   */\n      dup3\n        /* \"#utility.yul\":7337:7373   */\n      mstore\n        /* \"#utility.yul\":7264:7379   */\n      pop\n      pop\n      jump\t// out\n        /* \"#utility.yul\":7385:7603   */\n    tag_63:\n        /* \"#utility.yul\":7476:7480   */\n      0x00\n        /* \"#utility.yul\":7514:7516   */\n      0x20\n        /* \"#utility.yul\":7503:7512   */\n      dup3\n        /* \"#utility.yul\":7499:7517   */\n      add\n        /* \"#utility.yul\":7491:7517   */\n      swap1\n      pop\n        /* \"#utility.yul\":7527:7596   */\n      tag_657\n        /* \"#utility.yul\":7593:7594   */\n      0x00\n        /* \"#utility.yul\":7582:7591   */\n      dup4\n        /* \"#utility.yul\":7578:7595   */\n      add\n        /* \"#utility.yul\":7569:7575   */\n      dup5\n        /* \"#utility.yul\":7527:7596   */\n      tag_508\n      jump\t// in\n    tag_657:\n        /* \"#utility.yul\":7385:7603   */\n      swap3\n      swap2\n      pop\n      pop\n      jump\t// out\n        /* \"#utility.yul\":7609:7936   */\n    tag_67:\n        /* \"#utility.yul\":7667:7673   */\n      0x00\n        /* \"#utility.yul\":7716:7718   */\n      0x20\n        /* \"#utility.yul\":7704:7713   */\n      dup3\n        /* \"#utility.yul\":7695:7702   */\n      dup5\n        /* \"#utility.yul\":7691:7714   */\n      sub\n        /* \"#utility.yul\":7687:7719   */\n      slt\n        /* \"#utility.yul\":7684:7803   */\n      iszero\n      tag_659\n      jumpi\n        /* \"#utility.yul\":7722:7801   */\n      tag_660\n      tag_484\n      jump\t// in\n    tag_660:\n        /* \"#utility.yul\":7684:7803   */\n    tag_659:\n        /* \"#utility.yul\":7842:7843   */\n      0x00\n        /* \"#utility.yul\":7867:7919   */\n      tag_661\n        /* \"#utility.yul\":7911:7918   */\n      dup5\n        /* \"#utility.yul\":7902:7908   */\n      dup3\n        /* \"#utility.yul\":7891:7900   */\n      dup6\n        /* \"#utility.yul\":7887:7909   */\n      add\n        /* \"#utility.yul\":7867:7919   */\n      tag_492\n      jump\t// in\n    tag_661:\n        /* \"#utility.yul\":7857:7919   */\n      swap2\n      pop\n        /* \"#utility.yul\":7813:7929   */\n      pop\n        /* \"#utility.yul\":7609:7936   */\n      swap3\n      swap2\n      pop\n      pop\n      jump\t// out\n        /* \"#utility.yul\":7942:8060   */\n    tag_509:\n        /* \"#utility.yul\":8029:8053   */\n      tag_663\n        /* \"#utility.yul\":8047:8052   */\n      dup2\n        /* \"#utility.yul\":8029:8053   */\n      tag_487\n      jump\t// in\n    tag_663:\n        /* \"#utility.yul\":8024:8027   */\n      dup3\n        /* \"#utility.yul\":8017:8054   */\n      mstore\n        /* \"#utility.yul\":7942:8060   */\n      pop\n      pop\n      jump\t// out\n        /* \"#utility.yul\":8066:8288   */\n    tag_70:\n        /* \"#utility.yul\":8159:8163   */\n      0x00\n        /* \"#utility.yul\":8197:8199   */\n      0x20\n        /* \"#utility.yul\":8186:8195   */\n      dup3\n        /* \"#utility.yul\":8182:8200   */\n      add\n        /* \"#utility.yul\":8174:8200   */\n      swap1\n      pop\n        /* \"#utility.yul\":8210:8281   */\n      tag_665\n        /* \"#utility.yul\":8278:8279   */\n      0x00\n        /* \"#utility.yul\":8267:8276   */\n      dup4\n        /* \"#utility.yul\":8263:8280   */\n      add\n        /* \"#utility.yul\":8254:8260   */\n      dup5\n        /* \"#utility.yul\":8210:8281   */\n      tag_509\n      jump\t// in\n    tag_665:\n        /* \"#utility.yul\":8066:8288   */\n      swap3\n      swap2\n      pop\n      pop\n      jump\t// out\n        /* \"#utility.yul\":8294:8444   */\n    tag_510:\n        /* \"#utility.yul\":8331:8338   */\n      0x00\n        /* \"#utility.yul\":8371:8437   */\n      0xffffffffffffffffffff00000000000000000000000000000000000000000000\n        /* \"#utility.yul\":8364:8369   */\n      dup3\n        /* \"#utility.yul\":8360:8438   */\n      and\n        /* \"#utility.yul\":8349:8438   */\n      swap1\n      pop\n        /* \"#utility.yul\":8294:8444   */\n      swap2\n      swap1\n      pop\n      jump\t// out\n        /* \"#utility.yul\":8450:8568   */\n    tag_511:\n        /* \"#utility.yul\":8537:8561   */\n      tag_668\n        /* \"#utility.yul\":8555:8560   */\n      dup2\n        /* \"#utility.yul\":8537:8561   */\n      tag_510\n      jump\t// in\n    tag_668:\n        /* \"#utility.yul\":8532:8535   */\n      dup3\n        /* \"#utility.yul\":8525:8562   */\n      mstore\n        /* \"#utility.yul\":8450:8568   */\n      pop\n      pop\n      jump\t// out\n        /* \"#utility.yul\":8574:8796   */\n    tag_80:\n        /* \"#utility.yul\":8667:8671   */\n      0x00\n        /* \"#utility.yul\":8705:8707   */\n      0x20\n        /* \"#utility.yul\":8694:8703   */\n      dup3\n        /* \"#utility.yul\":8690:8708   */\n      add\n        /* \"#utility.yul\":8682:8708   */\n      swap1\n      pop\n        /* \"#utility.yul\":8718:8789   */\n      tag_670\n        /* \"#utility.yul\":8786:8787   */\n      0x00\n        /* \"#utility.yul\":8775:8784   */\n      dup4\n        /* \"#utility.yul\":8771:8788   */\n      add\n        /* \"#utility.yul\":8762:8768   */\n      dup5\n        /* \"#utility.yul\":8718:8789   */\n      tag_511\n      jump\t// in\n    tag_670:\n        /* \"#utility.yul\":8574:8796   */\n      swap3\n      swap2\n      pop\n      pop\n      jump\t// out\n        /* \"#utility.yul\":8802:8918   */\n    tag_512:\n        /* \"#utility.yul\":8872:8893   */\n      tag_672\n        /* \"#utility.yul\":8887:8892   */\n      dup2\n        /* \"#utility.yul\":8872:8893   */\n      tag_504\n      jump\t// in\n    tag_672:\n        /* \"#utility.yul\":8865:8870   */\n      dup2\n        /* \"#utility.yul\":8862:8894   */\n      eq\n        /* \"#utility.yul\":8852:8912   */\n      tag_673\n      jumpi\n        /* \"#utility.yul\":8908:8909   */\n      0x00\n        /* \"#utility.yul\":8905:8906   */\n      dup1\n        /* \"#utility.yul\":8898:8910   */\n      revert\n        /* \"#utility.yul\":8852:8912   */\n    tag_673:\n        /* \"#utility.yul\":8802:8918   */\n      pop\n      jump\t// out\n        /* \"#utility.yul\":8924:9057   */\n    tag_513:\n        /* \"#utility.yul\":8967:8972   */\n      0x00\n        /* \"#utility.yul\":9005:9011   */\n      dup2\n        /* \"#utility.yul\":8992:9012   */\n      calldataload\n        /* \"#utility.yul\":8983:9012   */\n      swap1\n      pop\n        /* \"#utility.yul\":9021:9051   */\n      tag_675\n        /* \"#utility.yul\":9045:9050   */\n      dup2\n        /* \"#utility.yul\":9021:9051   */\n      tag_512\n      jump\t// in\n    tag_675:\n        /* \"#utility.yul\":8924:9057   */\n      swap3\n      swap2\n      pop\n      pop\n      jump\t// out\n        /* \"#utility.yul\":9063:9531   */\n    tag_84:\n        /* \"#utility.yul\":9128:9134   */\n      0x00\n        /* \"#utility.yul\":9136:9142   */\n      dup1\n        /* \"#utility.yul\":9185:9187   */\n      0x40\n        /* \"#utility.yul\":9173:9182   */\n      dup4\n        /* \"#utility.yul\":9164:9171   */\n      dup6\n        /* \"#utility.yul\":9160:9183   */\n      sub\n        /* \"#utility.yul\":9156:9188   */\n      slt\n        /* \"#utility.yul\":9153:9272   */\n      iszero\n      tag_677\n      jumpi\n        /* \"#utility.yul\":9191:9270   */\n      tag_678\n      tag_484\n      jump\t// in\n    tag_678:\n        /* \"#utility.yul\":9153:9272   */\n    tag_677:\n        /* \"#utility.yul\":9311:9312   */\n      0x00\n        /* \"#utility.yul\":9336:9389   */\n      tag_679\n        /* \"#utility.yul\":9381:9388   */\n      dup6\n        /* \"#utility.yul\":9372:9378   */\n      dup3\n        /* \"#utility.yul\":9361:9370   */\n      dup7\n        /* \"#utility.yul\":9357:9379   */\n      add\n        /* \"#utility.yul\":9336:9389   */\n      tag_489\n      jump\t// in\n    tag_679:\n        /* \"#utility.yul\":9326:9389   */\n      swap3\n      pop\n        /* \"#utility.yul\":9282:9399   */\n      pop\n        /* \"#utility.yul\":9438:9440   */\n      0x20\n        /* \"#utility.yul\":9464:9514   */\n      tag_680\n        /* \"#utility.yul\":9506:9513   */\n      dup6\n        /* \"#utility.yul\":9497:9503   */\n      dup3\n        /* \"#utility.yul\":9486:9495   */\n      dup7\n        /* \"#utility.yul\":9482:9504   */\n      add\n        /* \"#utility.yul\":9464:9514   */\n      tag_513\n      jump\t// in\n    tag_680:\n        /* \"#utility.yul\":9454:9514   */\n      swap2\n      pop\n        /* \"#utility.yul\":9409:9524   */\n      pop\n        /* \"#utility.yul\":9063:9531   */\n      swap3\n      pop\n      swap3\n      swap1\n      pop\n      jump\t// out\n        /* \"#utility.yul\":9537:9654   */\n    tag_514:\n        /* \"#utility.yul\":9646:9647   */\n      0x00\n        /* \"#utility.yul\":9643:9644   */\n      dup1\n        /* \"#utility.yul\":9636:9648   */\n      revert\n        /* \"#utility.yul\":9660:9967   */\n    tag_515:\n        /* \"#utility.yul\":9721:9725   */\n      0x00\n        /* \"#utility.yul\":9811:9829   */\n      0xffffffffffffffff\n        /* \"#utility.yul\":9803:9809   */\n      dup3\n        /* \"#utility.yul\":9800:9830   */\n      gt\n        /* \"#utility.yul\":9797:9853   */\n      iszero\n      tag_683\n      jumpi\n        /* \"#utility.yul\":9833:9851   */\n      tag_684\n      tag_445\n      jump\t// in\n    tag_684:\n        /* \"#utility.yul\":9797:9853   */\n    tag_683:\n        /* \"#utility.yul\":9871:9900   */\n      tag_685\n        /* \"#utility.yul\":9893:9899   */\n      dup3\n        /* \"#utility.yul\":9871:9900   */\n      tag_497\n      jump\t// in\n    tag_685:\n        /* \"#utility.yul\":9863:9900   */\n      swap1\n      pop\n        /* \"#utility.yul\":9955:9959   */\n      0x20\n        /* \"#utility.yul\":9949:9953   */\n      dup2\n        /* \"#utility.yul\":9945:9960   */\n      add\n        /* \"#utility.yul\":9937:9960   */\n      swap1\n      pop\n        /* \"#utility.yul\":9660:9967   */\n      swap2\n      swap1\n      pop\n      jump\t// out\n        /* \"#utility.yul\":9973:10119   */\n    tag_516:\n        /* \"#utility.yul\":10070:10076   */\n      dup3\n        /* \"#utility.yul\":10065:10068   */\n      dup2\n        /* \"#utility.yul\":10060:10063   */\n      dup4\n        /* \"#utility.yul\":10047:10077   */\n      calldatacopy\n        /* \"#utility.yul\":10111:10112   */\n      0x00\n        /* \"#utility.yul\":10102:10108   */\n      dup4\n        /* \"#utility.yul\":10097:10100   */\n      dup4\n        /* \"#utility.yul\":10093:10109   */\n      add\n        /* \"#utility.yul\":10086:10113   */\n      mstore\n        /* \"#utility.yul\":9973:10119   */\n      pop\n      pop\n      pop\n      jump\t// out\n        /* \"#utility.yul\":10125:10548   */\n    tag_517:\n        /* \"#utility.yul\":10202:10207   */\n      0x00\n        /* \"#utility.yul\":10227:10292   */\n      tag_688\n        /* \"#utility.yul\":10243:10291   */\n      tag_689\n        /* \"#utility.yul\":10284:10290   */\n      dup5\n        /* \"#utility.yul\":10243:10291   */\n      tag_515\n      jump\t// in\n    tag_689:\n        /* \"#utility.yul\":10227:10292   */\n      tag_499\n      jump\t// in\n    tag_688:\n        /* \"#utility.yul\":10218:10292   */\n      swap1\n      pop\n        /* \"#utility.yul\":10315:10321   */\n      dup3\n        /* \"#utility.yul\":10308:10313   */\n      dup2\n        /* \"#utility.yul\":10301:10322   */\n      mstore\n        /* \"#utility.yul\":10353:10357   */\n      0x20\n        /* \"#utility.yul\":10346:10351   */\n      dup2\n        /* \"#utility.yul\":10342:10358   */\n      add\n        /* \"#utility.yul\":10391:10394   */\n      dup5\n        /* \"#utility.yul\":10382:10388   */\n      dup5\n        /* \"#utility.yul\":10377:10380   */\n      dup5\n        /* \"#utility.yul\":10373:10389   */\n      add\n        /* \"#utility.yul\":10370:10395   */\n      gt\n        /* \"#utility.yul\":10367:10479   */\n      iszero\n      tag_690\n      jumpi\n        /* \"#utility.yul\":10398:10477   */\n      tag_691\n      tag_514\n      jump\t// in\n    tag_691:\n        /* \"#utility.yul\":10367:10479   */\n    tag_690:\n        /* \"#utility.yul\":10488:10542   */\n      tag_692\n        /* \"#utility.yul\":10535:10541   */\n      dup5\n        /* \"#utility.yul\":10530:10533   */\n      dup3\n        /* \"#utility.yul\":10525:10528   */\n      dup6\n        /* \"#utility.yul\":10488:10542   */\n      tag_516\n      jump\t// in\n    tag_692:\n        /* \"#utility.yul\":10208:10548   */\n      pop\n        /* \"#utility.yul\":10125:10548   */\n      swap4\n      swap3\n      pop\n      pop\n      pop\n      jump\t// out\n        /* \"#utility.yul\":10567:10905   */\n    tag_518:\n        /* \"#utility.yul\":10622:10627   */\n      0x00\n        /* \"#utility.yul\":10671:10674   */\n      dup3\n        /* \"#utility.yul\":10664:10668   */\n      0x1f\n        /* \"#utility.yul\":10656:10662   */\n      dup4\n        /* \"#utility.yul\":10652:10669   */\n      add\n        /* \"#utility.yul\":10648:10675   */\n      slt\n        /* \"#utility.yul\":10638:10760   */\n      tag_694\n      jumpi\n        /* \"#utility.yul\":10679:10758   */\n      tag_695\n      tag_496\n      jump\t// in\n    tag_695:\n        /* \"#utility.yul\":10638:10760   */\n    tag_694:\n        /* \"#utility.yul\":10796:10802   */\n      dup2\n        /* \"#utility.yul\":10783:10803   */\n      calldataload\n        /* \"#utility.yul\":10821:10899   */\n      tag_696\n        /* \"#utility.yul\":10895:10898   */\n      dup5\n        /* \"#utility.yul\":10887:10893   */\n      dup3\n        /* \"#utility.yul\":10880:10884   */\n      0x20\n        /* \"#utility.yul\":10872:10878   */\n      dup7\n        /* \"#utility.yul\":10868:10885   */\n      add\n        /* \"#utility.yul\":10821:10899   */\n      tag_517\n      jump\t// in\n    tag_696:\n        /* \"#utility.yul\":10812:10899   */\n      swap2\n      pop\n        /* \"#utility.yul\":10628:10905   */\n      pop\n        /* \"#utility.yul\":10567:10905   */\n      swap3\n      swap2\n      pop\n      pop\n      jump\t// out\n        /* \"#utility.yul\":10911:11852   */\n    tag_89:\n        /* \"#utility.yul\":11005:11011   */\n      0x00\n        /* \"#utility.yul\":11013:11019   */\n      dup1\n        /* \"#utility.yul\":11021:11027   */\n      0x00\n        /* \"#utility.yul\":11029:11035   */\n      dup1\n        /* \"#utility.yul\":11078:11081   */\n      0x80\n        /* \"#utility.yul\":11066:11075   */\n      dup6\n        /* \"#utility.yul\":11057:11064   */\n      dup8\n        /* \"#utility.yul\":11053:11076   */\n      sub\n        /* \"#utility.yul\":11049:11082   */\n      slt\n        /* \"#utility.yul\":11046:11166   */\n      iszero\n      tag_698\n      jumpi\n        /* \"#utility.yul\":11085:11164   */\n      tag_699\n      tag_484\n      jump\t// in\n    tag_699:\n        /* \"#utility.yul\":11046:11166   */\n    tag_698:\n        /* \"#utility.yul\":11205:11206   */\n      0x00\n        /* \"#utility.yul\":11230:11283   */\n      tag_700\n        /* \"#utility.yul\":11275:11282   */\n      dup8\n        /* \"#utility.yul\":11266:11272   */\n      dup3\n        /* \"#utility.yul\":11255:11264   */\n      dup9\n        /* \"#utility.yul\":11251:11273   */\n      add\n        /* \"#utility.yul\":11230:11283   */\n      tag_489\n      jump\t// in\n    tag_700:\n        /* \"#utility.yul\":11220:11283   */\n      swap5\n      pop\n        /* \"#utility.yul\":11176:11293   */\n      pop\n        /* \"#utility.yul\":11332:11334   */\n      0x20\n        /* \"#utility.yul\":11358:11411   */\n      tag_701\n        /* \"#utility.yul\":11403:11410   */\n      dup8\n        /* \"#utility.yul\":11394:11400   */\n      dup3\n        /* \"#utility.yul\":11383:11392   */\n      dup9\n        /* \"#utility.yul\":11379:11401   */\n      add\n        /* \"#utility.yul\":11358:11411   */\n      tag_489\n      jump\t// in\n    tag_701:\n        /* \"#utility.yul\":11348:11411   */\n      swap4\n      pop\n        /* \"#utility.yul\":11303:11421   */\n      pop\n        /* \"#utility.yul\":11460:11462   */\n      0x40\n        /* \"#utility.yul\":11486:11538   */\n      tag_702\n        /* \"#utility.yul\":11530:11537   */\n      dup8\n        /* \"#utility.yul\":11521:11527   */\n      dup3\n        /* \"#utility.yul\":11510:11519   */\n      dup9\n        /* \"#utility.yul\":11506:11528   */\n      add\n        /* \"#utility.yul\":11486:11538   */\n      tag_492\n      jump\t// in\n    tag_702:\n        /* \"#utility.yul\":11476:11538   */\n      swap3\n      pop\n        /* \"#utility.yul\":11431:11548   */\n      pop\n        /* \"#utility.yul\":11615:11617   */\n      0x60\n        /* \"#utility.yul\":11604:11613   */\n      dup6\n        /* \"#utility.yul\":11600:11618   */\n      add\n        /* \"#utility.yul\":11587:11619   */\n      calldataload\n        /* \"#utility.yul\":11646:11664   */\n      0xffffffffffffffff\n        /* \"#utility.yul\":11638:11644   */\n      dup2\n        /* \"#utility.yul\":11635:11665   */\n      gt\n        /* \"#utility.yul\":11632:11749   */\n      iszero\n      tag_703\n      jumpi\n        /* \"#utility.yul\":11668:11747   */\n      tag_704\n      tag_485\n      jump\t// in\n    tag_704:\n        /* \"#utility.yul\":11632:11749   */\n    tag_703:\n        /* \"#utility.yul\":11773:11835   */\n      tag_705\n        /* \"#utility.yul\":11827:11834   */\n      dup8\n        /* \"#utility.yul\":11818:11824   */\n      dup3\n        /* \"#utility.yul\":11807:11816   */\n      dup9\n        /* \"#utility.yul\":11803:11825   */\n      add\n        /* \"#utility.yul\":11773:11835   */\n      tag_518\n      jump\t// in\n    tag_705:\n        /* \"#utility.yul\":11763:11835   */\n      swap2\n      pop\n        /* \"#utility.yul\":11558:11845   */\n      pop\n        /* \"#utility.yul\":10911:11852   */\n      swap3\n      swap6\n      swap2\n      swap5\n      pop\n      swap3\n      pop\n      jump\t// out\n        /* \"#utility.yul\":11858:11975   */\n    tag_519:\n        /* \"#utility.yul\":11967:11968   */\n      0x00\n        /* \"#utility.yul\":11964:11965   */\n      dup1\n        /* \"#utility.yul\":11957:11969   */\n      revert\n        /* \"#utility.yul\":11994:12546   */\n    tag_520:\n        /* \"#utility.yul\":12051:12059   */\n      0x00\n        /* \"#utility.yul\":12061:12067   */\n      dup1\n        /* \"#utility.yul\":12111:12114   */\n      dup4\n        /* \"#utility.yul\":12104:12108   */\n      0x1f\n        /* \"#utility.yul\":12096:12102   */\n      dup5\n        /* \"#utility.yul\":12092:12109   */\n      add\n        /* \"#utility.yul\":12088:12115   */\n      slt\n        /* \"#utility.yul\":12078:12200   */\n      tag_708\n      jumpi\n        /* \"#utility.yul\":12119:12198   */\n      tag_709\n      tag_496\n      jump\t// in\n    tag_709:\n        /* \"#utility.yul\":12078:12200   */\n    tag_708:\n        /* \"#utility.yul\":12232:12238   */\n      dup3\n        /* \"#utility.yul\":12219:12239   */\n      calldataload\n        /* \"#utility.yul\":12209:12239   */\n      swap1\n      pop\n        /* \"#utility.yul\":12262:12280   */\n      0xffffffffffffffff\n        /* \"#utility.yul\":12254:12260   */\n      dup2\n        /* \"#utility.yul\":12251:12281   */\n      gt\n        /* \"#utility.yul\":12248:12365   */\n      iszero\n      tag_710\n      jumpi\n        /* \"#utility.yul\":12284:12363   */\n      tag_711\n      tag_519\n      jump\t// in\n    tag_711:\n        /* \"#utility.yul\":12248:12365   */\n    tag_710:\n        /* \"#utility.yul\":12398:12402   */\n      0x20\n        /* \"#utility.yul\":12390:12396   */\n      dup4\n        /* \"#utility.yul\":12386:12403   */\n      add\n        /* \"#utility.yul\":12374:12403   */\n      swap2\n      pop\n        /* \"#utility.yul\":12452:12455   */\n      dup4\n        /* \"#utility.yul\":12444:12448   */\n      0x01\n        /* \"#utility.yul\":12436:12442   */\n      dup3\n        /* \"#utility.yul\":12432:12449   */\n      mul\n        /* \"#utility.yul\":12422:12430   */\n      dup4\n        /* \"#utility.yul\":12418:12450   */\n      add\n        /* \"#utility.yul\":12415:12456   */\n      gt\n        /* \"#utility.yul\":12412:12540   */\n      iszero\n      tag_712\n      jumpi\n        /* \"#utility.yul\":12459:12538   */\n      tag_713\n      tag_501\n      jump\t// in\n    tag_713:\n        /* \"#utility.yul\":12412:12540   */\n    tag_712:\n        /* \"#utility.yul\":11994:12546   */\n      swap3\n      pop\n      swap3\n      swap1\n      pop\n      jump\t// out\n        /* \"#utility.yul\":12552:13513   */\n    tag_94:\n        /* \"#utility.yul\":12648:12654   */\n      0x00\n        /* \"#utility.yul\":12656:12662   */\n      dup1\n        /* \"#utility.yul\":12664:12670   */\n      0x00\n        /* \"#utility.yul\":12672:12678   */\n      dup1\n        /* \"#utility.yul\":12680:12686   */\n      0x00\n        /* \"#utility.yul\":12729:12732   */\n      0x80\n        /* \"#utility.yul\":12717:12726   */\n      dup7\n        /* \"#utility.yul\":12708:12715   */\n      dup9\n        /* \"#utility.yul\":12704:12727   */\n      sub\n        /* \"#utility.yul\":12700:12733   */\n      slt\n        /* \"#utility.yul\":12697:12817   */\n      iszero\n      tag_715\n      jumpi\n        /* \"#utility.yul\":12736:12815   */\n      tag_716\n      tag_484\n      jump\t// in\n    tag_716:\n        /* \"#utility.yul\":12697:12817   */\n    tag_715:\n        /* \"#utility.yul\":12856:12857   */\n      0x00\n        /* \"#utility.yul\":12881:12934   */\n      tag_717\n        /* \"#utility.yul\":12926:12933   */\n      dup9\n        /* \"#utility.yul\":12917:12923   */\n      dup3\n        /* \"#utility.yul\":12906:12915   */\n      dup10\n        /* \"#utility.yul\":12902:12924   */\n      add\n        /* \"#utility.yul\":12881:12934   */\n      tag_489\n      jump\t// in\n    tag_717:\n        /* \"#utility.yul\":12871:12934   */\n      swap6\n      pop\n        /* \"#utility.yul\":12827:12944   */\n      pop\n        /* \"#utility.yul\":12983:12985   */\n      0x20\n        /* \"#utility.yul\":13009:13062   */\n      tag_718\n        /* \"#utility.yul\":13054:13061   */\n      dup9\n        /* \"#utility.yul\":13045:13051   */\n      dup3\n        /* \"#utility.yul\":13034:13043   */\n      dup10\n        /* \"#utility.yul\":13030:13052   */\n      add\n        /* \"#utility.yul\":13009:13062   */\n      tag_489\n      jump\t// in\n    tag_718:\n        /* \"#utility.yul\":12999:13062   */\n      swap5\n      pop\n        /* \"#utility.yul\":12954:13072   */\n      pop\n        /* \"#utility.yul\":13111:13113   */\n      0x40\n        /* \"#utility.yul\":13137:13189   */\n      tag_719\n        /* \"#utility.yul\":13181:13188   */\n      dup9\n        /* \"#utility.yul\":13172:13178   */\n      dup3\n        /* \"#utility.yul\":13161:13170   */\n      dup10\n        /* \"#utility.yul\":13157:13179   */\n      add\n        /* \"#utility.yul\":13137:13189   */\n      tag_492\n      jump\t// in\n    tag_719:\n        /* \"#utility.yul\":13127:13189   */\n      swap4\n      pop\n        /* \"#utility.yul\":13082:13199   */\n      pop\n        /* \"#utility.yul\":13266:13268   */\n      0x60\n        /* \"#utility.yul\":13255:13264   */\n      dup7\n        /* \"#utility.yul\":13251:13269   */\n      add\n        /* \"#utility.yul\":13238:13270   */\n      calldataload\n        /* \"#utility.yul\":13297:13315   */\n      0xffffffffffffffff\n        /* \"#utility.yul\":13289:13295   */\n      dup2\n        /* \"#utility.yul\":13286:13316   */\n      gt\n        /* \"#utility.yul\":13283:13400   */\n      iszero\n      tag_720\n      jumpi\n        /* \"#utility.yul\":13319:13398   */\n      tag_721\n      tag_485\n      jump\t// in\n    tag_721:\n        /* \"#utility.yul\":13283:13400   */\n    tag_720:\n        /* \"#utility.yul\":13432:13496   */\n      tag_722\n        /* \"#utility.yul\":13488:13495   */\n      dup9\n        /* \"#utility.yul\":13479:13485   */\n      dup3\n        /* \"#utility.yul\":13468:13477   */\n      dup10\n        /* \"#utility.yul\":13464:13486   */\n      add\n        /* \"#utility.yul\":13432:13496   */\n      tag_520\n      jump\t// in\n    tag_722:\n        /* \"#utility.yul\":13414:13496   */\n      swap3\n      pop\n      swap3\n      pop\n        /* \"#utility.yul\":13209:13506   */\n      pop\n        /* \"#utility.yul\":12552:13513   */\n      swap3\n      swap6\n      pop\n      swap3\n      swap6\n      swap1\n      swap4\n      pop\n      jump\t// out\n        /* \"#utility.yul\":13519:13668   */\n    tag_521:\n        /* \"#utility.yul\":13555:13562   */\n      0x00\n        /* \"#utility.yul\":13595:13661   */\n      0xffffffff00000000000000000000000000000000000000000000000000000000\n        /* \"#utility.yul\":13588:13593   */\n      dup3\n        /* \"#utility.yul\":13584:13662   */\n      and\n        /* \"#utility.yul\":13573:13662   */\n      swap1\n      pop\n        /* \"#utility.yul\":13519:13668   */\n      swap2\n      swap1\n      pop\n      jump\t// out\n        /* \"#utility.yul\":13674:13789   */\n    tag_522:\n        /* \"#utility.yul\":13759:13782   */\n      tag_725\n        /* \"#utility.yul\":13776:13781   */\n      dup2\n        /* \"#utility.yul\":13759:13782   */\n      tag_521\n      jump\t// in\n    tag_725:\n        /* \"#utility.yul\":13754:13757   */\n      dup3\n        /* \"#utility.yul\":13747:13783   */\n      mstore\n        /* \"#utility.yul\":13674:13789   */\n      pop\n      pop\n      jump\t// out\n        /* \"#utility.yul\":13795:14013   */\n    tag_97:\n        /* \"#utility.yul\":13886:13890   */\n      0x00\n        /* \"#utility.yul\":13924:13926   */\n      0x20\n        /* \"#utility.yul\":13913:13922   */\n      dup3\n        /* \"#utility.yul\":13909:13927   */\n      add\n        /* \"#utility.yul\":13901:13927   */\n      swap1\n      pop\n        /* \"#utility.yul\":13937:14006   */\n      tag_727\n        /* \"#utility.yul\":14003:14004   */\n      0x00\n        /* \"#utility.yul\":13992:14001   */\n      dup4\n        /* \"#utility.yul\":13988:14005   */\n      add\n        /* \"#utility.yul\":13979:13985   */\n      dup5\n        /* \"#utility.yul\":13937:14006   */\n      tag_522\n      jump\t// in\n    tag_727:\n        /* \"#utility.yul\":13795:14013   */\n      swap3\n      swap2\n      pop\n      pop\n      jump\t// out\n        /* \"#utility.yul\":14019:14116   */\n    tag_523:\n        /* \"#utility.yul\":14055:14062   */\n      0x00\n        /* \"#utility.yul\":14095:14109   */\n      0xffffffffffff\n        /* \"#utility.yul\":14088:14093   */\n      dup3\n        /* \"#utility.yul\":14084:14110   */\n      and\n        /* \"#utility.yul\":14073:14110   */\n      swap1\n      pop\n        /* \"#utility.yul\":14019:14116   */\n      swap2\n      swap1\n      pop\n      jump\t// out\n        /* \"#utility.yul\":14122:14242   */\n    tag_524:\n        /* \"#utility.yul\":14194:14217   */\n      tag_730\n        /* \"#utility.yul\":14211:14216   */\n      dup2\n        /* \"#utility.yul\":14194:14217   */\n      tag_523\n      jump\t// in\n    tag_730:\n        /* \"#utility.yul\":14187:14192   */\n      dup2\n        /* \"#utility.yul\":14184:14218   */\n      eq\n        /* \"#utility.yul\":14174:14236   */\n      tag_731\n      jumpi\n        /* \"#utility.yul\":14232:14233   */\n      0x00\n        /* \"#utility.yul\":14229:14230   */\n      dup1\n        /* \"#utility.yul\":14222:14234   */\n      revert\n        /* \"#utility.yul\":14174:14236   */\n    tag_731:\n        /* \"#utility.yul\":14122:14242   */\n      pop\n      jump\t// out\n        /* \"#utility.yul\":14248:14385   */\n    tag_525:\n        /* \"#utility.yul\":14293:14298   */\n      0x00\n        /* \"#utility.yul\":14331:14337   */\n      dup2\n        /* \"#utility.yul\":14318:14338   */\n      calldataload\n        /* \"#utility.yul\":14309:14338   */\n      swap1\n      pop\n        /* \"#utility.yul\":14347:14379   */\n      tag_733\n        /* \"#utility.yul\":14373:14378   */\n      dup2\n        /* \"#utility.yul\":14347:14379   */\n      tag_524\n      jump\t// in\n    tag_733:\n        /* \"#utility.yul\":14248:14385   */\n      swap3\n      swap2\n      pop\n      pop\n      jump\t// out\n        /* \"#utility.yul\":14391:14718   */\n    tag_100:\n        /* \"#utility.yul\":14449:14455   */\n      0x00\n        /* \"#utility.yul\":14498:14500   */\n      0x20\n        /* \"#utility.yul\":14486:14495   */\n      dup3\n        /* \"#utility.yul\":14477:14484   */\n      dup5\n        /* \"#utility.yul\":14473:14496   */\n      sub\n        /* \"#utility.yul\":14469:14501   */\n      slt\n        /* \"#utility.yul\":14466:14585   */\n      iszero\n      tag_735\n      jumpi\n        /* \"#utility.yul\":14504:14583   */\n      tag_736\n      tag_484\n      jump\t// in\n    tag_736:\n        /* \"#utility.yul\":14466:14585   */\n    tag_735:\n        /* \"#utility.yul\":14624:14625   */\n      0x00\n        /* \"#utility.yul\":14649:14701   */\n      tag_737\n        /* \"#utility.yul\":14693:14700   */\n      dup5\n        /* \"#utility.yul\":14684:14690   */\n      dup3\n        /* \"#utility.yul\":14673:14682   */\n      dup6\n        /* \"#utility.yul\":14669:14691   */\n      add\n        /* \"#utility.yul\":14649:14701   */\n      tag_525\n      jump\t// in\n    tag_737:\n        /* \"#utility.yul\":14639:14701   */\n      swap2\n      pop\n        /* \"#utility.yul\":14595:14711   */\n      pop\n        /* \"#utility.yul\":14391:14718   */\n      swap3\n      swap2\n      pop\n      pop\n      jump\t// out\n        /* \"#utility.yul\":14724:14822   */\n    tag_526:\n        /* \"#utility.yul\":14775:14781   */\n      0x00\n        /* \"#utility.yul\":14809:14814   */\n      dup2\n        /* \"#utility.yul\":14803:14815   */\n      mload\n        /* \"#utility.yul\":14793:14815   */\n      swap1\n      pop\n        /* \"#utility.yul\":14724:14822   */\n      swap2\n      swap1\n      pop\n      jump\t// out\n        /* \"#utility.yul\":14828:14996   */\n    tag_527:\n        /* \"#utility.yul\":14911:14922   */\n      0x00\n        /* \"#utility.yul\":14945:14951   */\n      dup3\n        /* \"#utility.yul\":14940:14943   */\n      dup3\n        /* \"#utility.yul\":14933:14952   */\n      mstore\n        /* \"#utility.yul\":14985:14989   */\n      0x20\n        /* \"#utility.yul\":14980:14983   */\n      dup3\n        /* \"#utility.yul\":14976:14990   */\n      add\n        /* \"#utility.yul\":14961:14990   */\n      swap1\n      pop\n        /* \"#utility.yul\":14828:14996   */\n      swap3\n      swap2\n      pop\n      pop\n      jump\t// out\n        /* \"#utility.yul\":15002:15248   */\n    tag_528:\n        /* \"#utility.yul\":15083:15084   */\n      0x00\n        /* \"#utility.yul\":15093:15206   */\n    tag_741:\n        /* \"#utility.yul\":15107:15113   */\n      dup4\n        /* \"#utility.yul\":15104:15105   */\n      dup2\n        /* \"#utility.yul\":15101:15114   */\n      lt\n        /* \"#utility.yul\":15093:15206   */\n      iszero\n      tag_743\n      jumpi\n        /* \"#utility.yul\":15192:15193   */\n      dup1\n        /* \"#utility.yul\":15187:15190   */\n      dup3\n        /* \"#utility.yul\":15183:15194   */\n      add\n        /* \"#utility.yul\":15177:15195   */\n      mload\n        /* \"#utility.yul\":15173:15174   */\n      dup2\n        /* \"#utility.yul\":15168:15171   */\n      dup5\n        /* \"#utility.yul\":15164:15175   */\n      add\n        /* \"#utility.yul\":15157:15196   */\n      mstore\n        /* \"#utility.yul\":15129:15131   */\n      0x20\n        /* \"#utility.yul\":15126:15127   */\n      dup2\n        /* \"#utility.yul\":15122:15132   */\n      add\n        /* \"#utility.yul\":15117:15132   */\n      swap1\n      pop\n        /* \"#utility.yul\":15093:15206   */\n      jump(tag_741)\n    tag_743:\n        /* \"#utility.yul\":15240:15241   */\n      0x00\n        /* \"#utility.yul\":15231:15237   */\n      dup5\n        /* \"#utility.yul\":15226:15229   */\n      dup5\n        /* \"#utility.yul\":15222:15238   */\n      add\n        /* \"#utility.yul\":15215:15242   */\n      mstore\n        /* \"#utility.yul\":15064:15248   */\n      pop\n        /* \"#utility.yul\":15002:15248   */\n      pop\n      pop\n      pop\n      jump\t// out\n        /* \"#utility.yul\":15254:15627   */\n    tag_529:\n        /* \"#utility.yul\":15340:15343   */\n      0x00\n        /* \"#utility.yul\":15368:15406   */\n      tag_745\n        /* \"#utility.yul\":15400:15405   */\n      dup3\n        /* \"#utility.yul\":15368:15406   */\n      tag_526\n      jump\t// in\n    tag_745:\n        /* \"#utility.yul\":15422:15492   */\n      tag_746\n        /* \"#utility.yul\":15485:15491   */\n      dup2\n        /* \"#utility.yul\":15480:15483   */\n      dup6\n        /* \"#utility.yul\":15422:15492   */\n      tag_527\n      jump\t// in\n    tag_746:\n        /* \"#utility.yul\":15415:15492   */\n      swap4\n      pop\n        /* \"#utility.yul\":15501:15566   */\n      tag_747\n        /* \"#utility.yul\":15559:15565   */\n      dup2\n        /* \"#utility.yul\":15554:15557   */\n      dup6\n        /* \"#utility.yul\":15547:15551   */\n      0x20\n        /* \"#utility.yul\":15540:15545   */\n      dup7\n        /* \"#utility.yul\":15536:15552   */\n      add\n        /* \"#utility.yul\":15501:15566   */\n      tag_528\n      jump\t// in\n    tag_747:\n        /* \"#utility.yul\":15591:15620   */\n      tag_748\n        /* \"#utility.yul\":15613:15619   */\n      dup2\n        /* \"#utility.yul\":15591:15620   */\n      tag_497\n      jump\t// in\n    tag_748:\n        /* \"#utility.yul\":15586:15589   */\n      dup5\n        /* \"#utility.yul\":15582:15621   */\n      add\n        /* \"#utility.yul\":15575:15621   */\n      swap2\n      pop\n        /* \"#utility.yul\":15344:15627   */\n      pop\n        /* \"#utility.yul\":15254:15627   */\n      swap3\n      swap2\n      pop\n      pop\n      jump\t// out\n        /* \"#utility.yul\":15633:15942   */\n    tag_103:\n        /* \"#utility.yul\":15744:15748   */\n      0x00\n        /* \"#utility.yul\":15782:15784   */\n      0x20\n        /* \"#utility.yul\":15771:15780   */\n      dup3\n        /* \"#utility.yul\":15767:15785   */\n      add\n        /* \"#utility.yul\":15759:15785   */\n      swap1\n      pop\n        /* \"#utility.yul\":15831:15840   */\n      dup2\n        /* \"#utility.yul\":15825:15829   */\n      dup2\n        /* \"#utility.yul\":15821:15841   */\n      sub\n        /* \"#utility.yul\":15817:15818   */\n      0x00\n        /* \"#utility.yul\":15806:15815   */\n      dup4\n        /* \"#utility.yul\":15802:15819   */\n      add\n        /* \"#utility.yul\":15795:15842   */\n      mstore\n        /* \"#utility.yul\":15859:15935   */\n      tag_750\n        /* \"#utility.yul\":15930:15934   */\n      dup2\n        /* \"#utility.yul\":15921:15927   */\n      dup5\n        /* \"#utility.yul\":15859:15935   */\n      tag_529\n      jump\t// in\n    tag_750:\n        /* \"#utility.yul\":15851:15935   */\n      swap1\n      pop\n        /* \"#utility.yul\":15633:15942   */\n      swap3\n      swap2\n      pop\n      pop\n      jump\t// out\n        /* \"#utility.yul\":15948:16047   */\n    tag_530:\n        /* \"#utility.yul\":16000:16006   */\n      0x00\n        /* \"#utility.yul\":16034:16039   */\n      dup2\n        /* \"#utility.yul\":16028:16040   */\n      mload\n        /* \"#utility.yul\":16018:16040   */\n      swap1\n      pop\n        /* \"#utility.yul\":15948:16047   */\n      swap2\n      swap1\n      pop\n      jump\t// out\n        /* \"#utility.yul\":16053:16222   */\n    tag_531:\n        /* \"#utility.yul\":16137:16148   */\n      0x00\n        /* \"#utility.yul\":16171:16177   */\n      dup3\n        /* \"#utility.yul\":16166:16169   */\n      dup3\n        /* \"#utility.yul\":16159:16178   */\n      mstore\n        /* \"#utility.yul\":16211:16215   */\n      0x20\n        /* \"#utility.yul\":16206:16209   */\n      dup3\n        /* \"#utility.yul\":16202:16216   */\n      add\n        /* \"#utility.yul\":16187:16216   */\n      swap1\n      pop\n        /* \"#utility.yul\":16053:16222   */\n      swap3\n      swap2\n      pop\n      pop\n      jump\t// out\n        /* \"#utility.yul\":16228:16605   */\n    tag_532:\n        /* \"#utility.yul\":16316:16319   */\n      0x00\n        /* \"#utility.yul\":16344:16383   */\n      tag_754\n        /* \"#utility.yul\":16377:16382   */\n      dup3\n        /* \"#utility.yul\":16344:16383   */\n      tag_530\n      jump\t// in\n    tag_754:\n        /* \"#utility.yul\":16399:16470   */\n      tag_755\n        /* \"#utility.yul\":16463:16469   */\n      dup2\n        /* \"#utility.yul\":16458:16461   */\n      dup6\n        /* \"#utility.yul\":16399:16470   */\n      tag_531\n      jump\t// in\n    tag_755:\n        /* \"#utility.yul\":16392:16470   */\n      swap4\n      pop\n        /* \"#utility.yul\":16479:16544   */\n      tag_756\n        /* \"#utility.yul\":16537:16543   */\n      dup2\n        /* \"#utility.yul\":16532:16535   */\n      dup6\n        /* \"#utility.yul\":16525:16529   */\n      0x20\n        /* \"#utility.yul\":16518:16523   */\n      dup7\n        /* \"#utility.yul\":16514:16530   */\n      add\n        /* \"#utility.yul\":16479:16544   */\n      tag_528\n      jump\t// in\n    tag_756:\n        /* \"#utility.yul\":16569:16598   */\n      tag_757\n        /* \"#utility.yul\":16591:16597   */\n      dup2\n        /* \"#utility.yul\":16569:16598   */\n      tag_497\n      jump\t// in\n    tag_757:\n        /* \"#utility.yul\":16564:16567   */\n      dup5\n        /* \"#utility.yul\":16560:16599   */\n      add\n        /* \"#utility.yul\":16553:16599   */\n      swap2\n      pop\n        /* \"#utility.yul\":16320:16605   */\n      pop\n        /* \"#utility.yul\":16228:16605   */\n      swap3\n      swap2\n      pop\n      pop\n      jump\t// out\n        /* \"#utility.yul\":16611:16924   */\n    tag_109:\n        /* \"#utility.yul\":16724:16728   */\n      0x00\n        /* \"#utility.yul\":16762:16764   */\n      0x20\n        /* \"#utility.yul\":16751:16760   */\n      dup3\n        /* \"#utility.yul\":16747:16765   */\n      add\n        /* \"#utility.yul\":16739:16765   */\n      swap1\n      pop\n        /* \"#utility.yul\":16811:16820   */\n      dup2\n        /* \"#utility.yul\":16805:16809   */\n      dup2\n        /* \"#utility.yul\":16801:16821   */\n      sub\n        /* \"#utility.yul\":16797:16798   */\n      0x00\n        /* \"#utility.yul\":16786:16795   */\n      dup4\n        /* \"#utility.yul\":16782:16799   */\n      add\n        /* \"#utility.yul\":16775:16822   */\n      mstore\n        /* \"#utility.yul\":16839:16917   */\n      tag_759\n        /* \"#utility.yul\":16912:16916   */\n      dup2\n        /* \"#utility.yul\":16903:16909   */\n      dup5\n        /* \"#utility.yul\":16839:16917   */\n      tag_532\n      jump\t// in\n    tag_759:\n        /* \"#utility.yul\":16831:16917   */\n      swap1\n      pop\n        /* \"#utility.yul\":16611:16924   */\n      swap3\n      swap2\n      pop\n      pop\n      jump\t// out\n        /* \"#utility.yul\":16930:17402   */\n    tag_113:\n        /* \"#utility.yul\":16997:17003   */\n      0x00\n        /* \"#utility.yul\":17005:17011   */\n      dup1\n        /* \"#utility.yul\":17054:17056   */\n      0x40\n        /* \"#utility.yul\":17042:17051   */\n      dup4\n        /* \"#utility.yul\":17033:17040   */\n      dup6\n        /* \"#utility.yul\":17029:17052   */\n      sub\n        /* \"#utility.yul\":17025:17057   */\n      slt\n        /* \"#utility.yul\":17022:17141   */\n      iszero\n      tag_761\n      jumpi\n        /* \"#utility.yul\":17060:17139   */\n      tag_762\n      tag_484\n      jump\t// in\n    tag_762:\n        /* \"#utility.yul\":17022:17141   */\n    tag_761:\n        /* \"#utility.yul\":17180:17181   */\n      0x00\n        /* \"#utility.yul\":17205:17258   */\n      tag_763\n        /* \"#utility.yul\":17250:17257   */\n      dup6\n        /* \"#utility.yul\":17241:17247   */\n      dup3\n        /* \"#utility.yul\":17230:17239   */\n      dup7\n        /* \"#utility.yul\":17226:17248   */\n      add\n        /* \"#utility.yul\":17205:17258   */\n      tag_489\n      jump\t// in\n    tag_763:\n        /* \"#utility.yul\":17195:17258   */\n      swap3\n      pop\n        /* \"#utility.yul\":17151:17268   */\n      pop\n        /* \"#utility.yul\":17307:17309   */\n      0x20\n        /* \"#utility.yul\":17333:17385   */\n      tag_764\n        /* \"#utility.yul\":17377:17384   */\n      dup6\n        /* \"#utility.yul\":17368:17374   */\n      dup3\n        /* \"#utility.yul\":17357:17366   */\n      dup7\n        /* \"#utility.yul\":17353:17375   */\n      add\n        /* \"#utility.yul\":17333:17385   */\n      tag_492\n      jump\t// in\n    tag_764:\n        /* \"#utility.yul\":17323:17385   */\n      swap2\n      pop\n        /* \"#utility.yul\":17278:17395   */\n      pop\n        /* \"#utility.yul\":16930:17402   */\n      swap3\n      pop\n      swap3\n      swap1\n      pop\n      jump\t// out\n        /* \"#utility.yul\":17408:17882   */\n    tag_118:\n        /* \"#utility.yul\":17476:17482   */\n      0x00\n        /* \"#utility.yul\":17484:17490   */\n      dup1\n        /* \"#utility.yul\":17533:17535   */\n      0x40\n        /* \"#utility.yul\":17521:17530   */\n      dup4\n        /* \"#utility.yul\":17512:17519   */\n      dup6\n        /* \"#utility.yul\":17508:17531   */\n      sub\n        /* \"#utility.yul\":17504:17536   */\n      slt\n        /* \"#utility.yul\":17501:17620   */\n      iszero\n      tag_766\n      jumpi\n        /* \"#utility.yul\":17539:17618   */\n      tag_767\n      tag_484\n      jump\t// in\n    tag_767:\n        /* \"#utility.yul\":17501:17620   */\n    tag_766:\n        /* \"#utility.yul\":17659:17660   */\n      0x00\n        /* \"#utility.yul\":17684:17737   */\n      tag_768\n        /* \"#utility.yul\":17729:17736   */\n      dup6\n        /* \"#utility.yul\":17720:17726   */\n      dup3\n        /* \"#utility.yul\":17709:17718   */\n      dup7\n        /* \"#utility.yul\":17705:17727   */\n      add\n        /* \"#utility.yul\":17684:17737   */\n      tag_489\n      jump\t// in\n    tag_768:\n        /* \"#utility.yul\":17674:17737   */\n      swap3\n      pop\n        /* \"#utility.yul\":17630:17747   */\n      pop\n        /* \"#utility.yul\":17786:17788   */\n      0x20\n        /* \"#utility.yul\":17812:17865   */\n      tag_769\n        /* \"#utility.yul\":17857:17864   */\n      dup6\n        /* \"#utility.yul\":17848:17854   */\n      dup3\n        /* \"#utility.yul\":17837:17846   */\n      dup7\n        /* \"#utility.yul\":17833:17855   */\n      add\n        /* \"#utility.yul\":17812:17865   */\n      tag_489\n      jump\t// in\n    tag_769:\n        /* \"#utility.yul\":17802:17865   */\n      swap2\n      pop\n        /* \"#utility.yul\":17757:17875   */\n      pop\n        /* \"#utility.yul\":17408:17882   */\n      swap3\n      pop\n      swap3\n      swap1\n      pop\n      jump\t// out\n        /* \"#utility.yul\":17888:18354   */\n    tag_124:\n        /* \"#utility.yul\":17952:17958   */\n      0x00\n        /* \"#utility.yul\":17960:17966   */\n      dup1\n        /* \"#utility.yul\":18009:18011   */\n      0x40\n        /* \"#utility.yul\":17997:18006   */\n      dup4\n        /* \"#utility.yul\":17988:17995   */\n      dup6\n        /* \"#utility.yul\":17984:18007   */\n      sub\n        /* \"#utility.yul\":17980:18012   */\n      slt\n        /* \"#utility.yul\":17977:18096   */\n      iszero\n      tag_771\n      jumpi\n        /* \"#utility.yul\":18015:18094   */\n      tag_772\n      tag_484\n      jump\t// in\n    tag_772:\n        /* \"#utility.yul\":17977:18096   */\n    tag_771:\n        /* \"#utility.yul\":18135:18136   */\n      0x00\n        /* \"#utility.yul\":18160:18212   */\n      tag_773\n        /* \"#utility.yul\":18204:18211   */\n      dup6\n        /* \"#utility.yul\":18195:18201   */\n      dup3\n        /* \"#utility.yul\":18184:18193   */\n      dup7\n        /* \"#utility.yul\":18180:18202   */\n      add\n        /* \"#utility.yul\":18160:18212   */\n      tag_492\n      jump\t// in\n    tag_773:\n        /* \"#utility.yul\":18150:18212   */\n      swap3\n      pop\n        /* \"#utility.yul\":18106:18222   */\n      pop\n        /* \"#utility.yul\":18261:18263   */\n      0x20\n        /* \"#utility.yul\":18287:18337   */\n      tag_774\n        /* \"#utility.yul\":18329:18336   */\n      dup6\n        /* \"#utility.yul\":18320:18326   */\n      dup3\n        /* \"#utility.yul\":18309:18318   */\n      dup7\n        /* \"#utility.yul\":18305:18327   */\n      add\n        /* \"#utility.yul\":18287:18337   */\n      tag_513\n      jump\t// in\n    tag_774:\n        /* \"#utility.yul\":18277:18337   */\n      swap2\n      pop\n        /* \"#utility.yul\":18232:18347   */\n      pop\n        /* \"#utility.yul\":17888:18354   */\n      swap3\n      pop\n      swap3\n      swap1\n      pop\n      jump\t// out\n        /* \"#utility.yul\":18360:18586   */\n    tag_533:\n        /* \"#utility.yul\":18500:18534   */\n      0x596f7520646f206e6f7420686176652061636365737320746f20746869732066\n        /* \"#utility.yul\":18496:18497   */\n      0x00\n        /* \"#utility.yul\":18488:18494   */\n      dup3\n        /* \"#utility.yul\":18484:18498   */\n      add\n        /* \"#utility.yul\":18477:18535   */\n      mstore\n        /* \"#utility.yul\":18569:18578   */\n      0x756e6374696f6e00000000000000000000000000000000000000000000000000\n        /* \"#utility.yul\":18564:18566   */\n      0x20\n        /* \"#utility.yul\":18556:18562   */\n      dup3\n        /* \"#utility.yul\":18552:18567   */\n      add\n        /* \"#utility.yul\":18545:18579   */\n      mstore\n        /* \"#utility.yul\":18360:18586   */\n      pop\n      jump\t// out\n        /* \"#utility.yul\":18592:18958   */\n    tag_534:\n        /* \"#utility.yul\":18734:18737   */\n      0x00\n        /* \"#utility.yul\":18755:18822   */\n      tag_777\n        /* \"#utility.yul\":18819:18821   */\n      0x27\n        /* \"#utility.yul\":18814:18817   */\n      dup4\n        /* \"#utility.yul\":18755:18822   */\n      tag_531\n      jump\t// in\n    tag_777:\n        /* \"#utility.yul\":18748:18822   */\n      swap2\n      pop\n        /* \"#utility.yul\":18831:18924   */\n      tag_778\n        /* \"#utility.yul\":18920:18923   */\n      dup3\n        /* \"#utility.yul\":18831:18924   */\n      tag_533\n      jump\t// in\n    tag_778:\n        /* \"#utility.yul\":18949:18951   */\n      0x40\n        /* \"#utility.yul\":18944:18947   */\n      dup3\n        /* \"#utility.yul\":18940:18952   */\n      add\n        /* \"#utility.yul\":18933:18952   */\n      swap1\n      pop\n        /* \"#utility.yul\":18592:18958   */\n      swap2\n      swap1\n      pop\n      jump\t// out\n        /* \"#utility.yul\":18964:19383   */\n    tag_135:\n        /* \"#utility.yul\":19130:19134   */\n      0x00\n        /* \"#utility.yul\":19168:19170   */\n      0x20\n        /* \"#utility.yul\":19157:19166   */\n      dup3\n        /* \"#utility.yul\":19153:19171   */\n      add\n        /* \"#utility.yul\":19145:19171   */\n      swap1\n      pop\n        /* \"#utility.yul\":19217:19226   */\n      dup2\n        /* \"#utility.yul\":19211:19215   */\n      dup2\n        /* \"#utility.yul\":19207:19227   */\n      sub\n        /* \"#utility.yul\":19203:19204   */\n      0x00\n        /* \"#utility.yul\":19192:19201   */\n      dup4\n        /* \"#utility.yul\":19188:19205   */\n      add\n        /* \"#utility.yul\":19181:19228   */\n      mstore\n        /* \"#utility.yul\":19245:19376   */\n      tag_780\n        /* \"#utility.yul\":19371:19375   */\n      dup2\n        /* \"#utility.yul\":19245:19376   */\n      tag_534\n      jump\t// in\n    tag_780:\n        /* \"#utility.yul\":19237:19376   */\n      swap1\n      pop\n        /* \"#utility.yul\":18964:19383   */\n      swap2\n      swap1\n      pop\n      jump\t// out\n        /* \"#utility.yul\":19389:19617   */\n    tag_535:\n        /* \"#utility.yul\":19529:19563   */\n      0x54686520656e746572656420706172616d657465727320617265206e6f742061\n        /* \"#utility.yul\":19525:19526   */\n      0x00\n        /* \"#utility.yul\":19517:19523   */\n      dup3\n        /* \"#utility.yul\":19513:19527   */\n      add\n        /* \"#utility.yul\":19506:19564   */\n      mstore\n        /* \"#utility.yul\":19598:19609   */\n      0x636365707461626c650000000000000000000000000000000000000000000000\n        /* \"#utility.yul\":19593:19595   */\n      0x20\n        /* \"#utility.yul\":19585:19591   */\n      dup3\n        /* \"#utility.yul\":19581:19596   */\n      add\n        /* \"#utility.yul\":19574:19610   */\n      mstore\n        /* \"#utility.yul\":19389:19617   */\n      pop\n      jump\t// out\n        /* \"#utility.yul\":19623:19989   */\n    tag_536:\n        /* \"#utility.yul\":19765:19768   */\n      0x00\n        /* \"#utility.yul\":19786:19853   */\n      tag_783\n        /* \"#utility.yul\":19850:19852   */\n      0x29\n        /* \"#utility.yul\":19845:19848   */\n      dup4\n        /* \"#utility.yul\":19786:19853   */\n      tag_531\n      jump\t// in\n    tag_783:\n        /* \"#utility.yul\":19779:19853   */\n      swap2\n      pop\n        /* \"#utility.yul\":19862:19955   */\n      tag_784\n        /* \"#utility.yul\":19951:19954   */\n      dup3\n        /* \"#utility.yul\":19862:19955   */\n      tag_535\n      jump\t// in\n    tag_784:\n        /* \"#utility.yul\":19980:19982   */\n      0x40\n        /* \"#utility.yul\":19975:19978   */\n      dup3\n        /* \"#utility.yul\":19971:19983   */\n      add\n        /* \"#utility.yul\":19964:19983   */\n      swap1\n      pop\n        /* \"#utility.yul\":19623:19989   */\n      swap2\n      swap1\n      pop\n      jump\t// out\n        /* \"#utility.yul\":19995:20414   */\n    tag_139:\n        /* \"#utility.yul\":20161:20165   */\n      0x00\n        /* \"#utility.yul\":20199:20201   */\n      0x20\n        /* \"#utility.yul\":20188:20197   */\n      dup3\n        /* \"#utility.yul\":20184:20202   */\n      add\n        /* \"#utility.yul\":20176:20202   */\n      swap1\n      pop\n        /* \"#utility.yul\":20248:20257   */\n      dup2\n        /* \"#utility.yul\":20242:20246   */\n      dup2\n        /* \"#utility.yul\":20238:20258   */\n      sub\n        /* \"#utility.yul\":20234:20235   */\n      0x00\n        /* \"#utility.yul\":20223:20232   */\n      dup4\n        /* \"#utility.yul\":20219:20236   */\n      add\n        /* \"#utility.yul\":20212:20259   */\n      mstore\n        /* \"#utility.yul\":20276:20407   */\n      tag_786\n        /* \"#utility.yul\":20402:20406   */\n      dup2\n        /* \"#utility.yul\":20276:20407   */\n      tag_536\n      jump\t// in\n    tag_786:\n        /* \"#utility.yul\":20268:20407   */\n      swap1\n      pop\n        /* \"#utility.yul\":19995:20414   */\n      swap2\n      swap1\n      pop\n      jump\t// out\n        /* \"#utility.yul\":20420:20600   */\n    tag_142:\n        /* \"#utility.yul\":20468:20545   */\n      0x4e487b7100000000000000000000000000000000000000000000000000000000\n        /* \"#utility.yul\":20465:20466   */\n      0x00\n        /* \"#utility.yul\":20458:20546   */\n      mstore\n        /* \"#utility.yul\":20565:20569   */\n      0x32\n        /* \"#utility.yul\":20562:20563   */\n      0x04\n        /* \"#utility.yul\":20555:20570   */\n      mstore\n        /* \"#utility.yul\":20589:20593   */\n      0x24\n        /* \"#utility.yul\":20586:20587   */\n      0x00\n        /* \"#utility.yul\":20579:20594   */\n      revert\n        /* \"#utility.yul\":20606:20786   */\n    tag_537:\n        /* \"#utility.yul\":20654:20731   */\n      0x4e487b7100000000000000000000000000000000000000000000000000000000\n        /* \"#utility.yul\":20651:20652   */\n      0x00\n        /* \"#utility.yul\":20644:20732   */\n      mstore\n        /* \"#utility.yul\":20751:20755   */\n      0x11\n        /* \"#utility.yul\":20748:20749   */\n      0x04\n        /* \"#utility.yul\":20741:20756   */\n      mstore\n        /* \"#utility.yul\":20775:20779   */\n      0x24\n        /* \"#utility.yul\":20772:20773   */\n      0x00\n        /* \"#utility.yul\":20765:20780   */\n      revert\n        /* \"#utility.yul\":20792:20988   */\n    tag_144:\n        /* \"#utility.yul\":20831:20835   */\n      0x00\n        /* \"#utility.yul\":20851:20870   */\n      tag_790\n        /* \"#utility.yul\":20868:20869   */\n      dup3\n        /* \"#utility.yul\":20851:20870   */\n      tag_490\n      jump\t// in\n    tag_790:\n        /* \"#utility.yul\":20846:20870   */\n      swap2\n      pop\n        /* \"#utility.yul\":20884:20903   */\n      tag_791\n        /* \"#utility.yul\":20901:20902   */\n      dup4\n        /* \"#utility.yul\":20884:20903   */\n      tag_490\n      jump\t// in\n    tag_791:\n        /* \"#utility.yul\":20879:20903   */\n      swap3\n      pop\n        /* \"#utility.yul\":20927:20928   */\n      dup3\n        /* \"#utility.yul\":20924:20925   */\n      dup3\n        /* \"#utility.yul\":20920:20929   */\n      sub\n        /* \"#utility.yul\":20912:20929   */\n      swap1\n      pop\n        /* \"#utility.yul\":20951:20957   */\n      0xffff\n        /* \"#utility.yul\":20945:20949   */\n      dup2\n        /* \"#utility.yul\":20942:20958   */\n      gt\n        /* \"#utility.yul\":20939:20981   */\n      iszero\n      tag_792\n      jumpi\n        /* \"#utility.yul\":20961:20979   */\n      tag_793\n      tag_537\n      jump\t// in\n    tag_793:\n        /* \"#utility.yul\":20939:20981   */\n    tag_792:\n        /* \"#utility.yul\":20792:20988   */\n      swap3\n      swap2\n      pop\n      pop\n      jump\t// out\n        /* \"#utility.yul\":20994:21218   */\n    tag_538:\n        /* \"#utility.yul\":21134:21168   */\n      0x596f7520646f206e6f742068617665207065726d697373696f6e20746f207570\n        /* \"#utility.yul\":21130:21131   */\n      0x00\n        /* \"#utility.yul\":21122:21128   */\n      dup3\n        /* \"#utility.yul\":21118:21132   */\n      add\n        /* \"#utility.yul\":21111:21169   */\n      mstore\n        /* \"#utility.yul\":21203:21210   */\n      0x6772616465000000000000000000000000000000000000000000000000000000\n        /* \"#utility.yul\":21198:21200   */\n      0x20\n        /* \"#utility.yul\":21190:21196   */\n      dup3\n        /* \"#utility.yul\":21186:21201   */\n      add\n        /* \"#utility.yul\":21179:21211   */\n      mstore\n        /* \"#utility.yul\":20994:21218   */\n      pop\n      jump\t// out\n        /* \"#utility.yul\":21224:21590   */\n    tag_539:\n        /* \"#utility.yul\":21366:21369   */\n      0x00\n        /* \"#utility.yul\":21387:21454   */\n      tag_796\n        /* \"#utility.yul\":21451:21453   */\n      0x25\n        /* \"#utility.yul\":21446:21449   */\n      dup4\n        /* \"#utility.yul\":21387:21454   */\n      tag_531\n      jump\t// in\n    tag_796:\n        /* \"#utility.yul\":21380:21454   */\n      swap2\n      pop\n        /* \"#utility.yul\":21463:21556   */\n      tag_797\n        /* \"#utility.yul\":21552:21555   */\n      dup3\n        /* \"#utility.yul\":21463:21556   */\n      tag_538\n      jump\t// in\n    tag_797:\n        /* \"#utility.yul\":21581:21583   */\n      0x40\n        /* \"#utility.yul\":21576:21579   */\n      dup3\n        /* \"#utility.yul\":21572:21584   */\n      add\n        /* \"#utility.yul\":21565:21584   */\n      swap1\n      pop\n        /* \"#utility.yul\":21224:21590   */\n      swap2\n      swap1\n      pop\n      jump\t// out\n        /* \"#utility.yul\":21596:22015   */\n    tag_154:\n        /* \"#utility.yul\":21762:21766   */\n      0x00\n        /* \"#utility.yul\":21800:21802   */\n      0x20\n        /* \"#utility.yul\":21789:21798   */\n      dup3\n        /* \"#utility.yul\":21785:21803   */\n      add\n        /* \"#utility.yul\":21777:21803   */\n      swap1\n      pop\n        /* \"#utility.yul\":21849:21858   */\n      dup2\n        /* \"#utility.yul\":21843:21847   */\n      dup2\n        /* \"#utility.yul\":21839:21859   */\n      sub\n        /* \"#utility.yul\":21835:21836   */\n      0x00\n        /* \"#utility.yul\":21824:21833   */\n      dup4\n        /* \"#utility.yul\":21820:21837   */\n      add\n        /* \"#utility.yul\":21813:21860   */\n      mstore\n        /* \"#utility.yul\":21877:22008   */\n      tag_799\n        /* \"#utility.yul\":22003:22007   */\n      dup2\n        /* \"#utility.yul\":21877:22008   */\n      tag_539\n      jump\t// in\n    tag_799:\n        /* \"#utility.yul\":21869:22008   */\n      swap1\n      pop\n        /* \"#utility.yul\":21596:22015   */\n      swap2\n      swap1\n      pop\n      jump\t// out\n        /* \"#utility.yul\":22021:22139   */\n    tag_540:\n        /* \"#utility.yul\":22108:22132   */\n      tag_801\n        /* \"#utility.yul\":22126:22131   */\n      dup2\n        /* \"#utility.yul\":22108:22132   */\n      tag_493\n      jump\t// in\n    tag_801:\n        /* \"#utility.yul\":22103:22106   */\n      dup3\n        /* \"#utility.yul\":22096:22133   */\n      mstore\n        /* \"#utility.yul\":22021:22139   */\n      pop\n      pop\n      jump\t// out\n        /* \"#utility.yul\":22145:22587   */\n    tag_160:\n        /* \"#utility.yul\":22294:22298   */\n      0x00\n        /* \"#utility.yul\":22332:22334   */\n      0x60\n        /* \"#utility.yul\":22321:22330   */\n      dup3\n        /* \"#utility.yul\":22317:22335   */\n      add\n        /* \"#utility.yul\":22309:22335   */\n      swap1\n      pop\n        /* \"#utility.yul\":22345:22416   */\n      tag_803\n        /* \"#utility.yul\":22413:22414   */\n      0x00\n        /* \"#utility.yul\":22402:22411   */\n      dup4\n        /* \"#utility.yul\":22398:22415   */\n      add\n        /* \"#utility.yul\":22389:22395   */\n      dup7\n        /* \"#utility.yul\":22345:22416   */\n      tag_509\n      jump\t// in\n    tag_803:\n        /* \"#utility.yul\":22426:22498   */\n      tag_804\n        /* \"#utility.yul\":22494:22496   */\n      0x20\n        /* \"#utility.yul\":22483:22492   */\n      dup4\n        /* \"#utility.yul\":22479:22497   */\n      add\n        /* \"#utility.yul\":22470:22476   */\n      dup6\n        /* \"#utility.yul\":22426:22498   */\n      tag_509\n      jump\t// in\n    tag_804:\n        /* \"#utility.yul\":22508:22580   */\n      tag_805\n        /* \"#utility.yul\":22576:22578   */\n      0x40\n        /* \"#utility.yul\":22565:22574   */\n      dup4\n        /* \"#utility.yul\":22561:22579   */\n      add\n        /* \"#utility.yul\":22552:22558   */\n      dup5\n        /* \"#utility.yul\":22508:22580   */\n      tag_540\n      jump\t// in\n    tag_805:\n        /* \"#utility.yul\":22145:22587   */\n      swap5\n      swap4\n      pop\n      pop\n      pop\n      pop\n      jump\t// out\n        /* \"#utility.yul\":22593:22767   */\n    tag_541:\n        /* \"#utility.yul\":22733:22759   */\n      0x416363657373206f6e6c7920666f72206578656375746f720000000000000000\n        /* \"#utility.yul\":22729:22730   */\n      0x00\n        /* \"#utility.yul\":22721:22727   */\n      dup3\n        /* \"#utility.yul\":22717:22731   */\n      add\n        /* \"#utility.yul\":22710:22760   */\n      mstore\n        /* \"#utility.yul\":22593:22767   */\n      pop\n      jump\t// out\n        /* \"#utility.yul\":22773:23139   */\n    tag_542:\n        /* \"#utility.yul\":22915:22918   */\n      0x00\n        /* \"#utility.yul\":22936:23003   */\n      tag_808\n        /* \"#utility.yul\":23000:23002   */\n      0x18\n        /* \"#utility.yul\":22995:22998   */\n      dup4\n        /* \"#utility.yul\":22936:23003   */\n      tag_531\n      jump\t// in\n    tag_808:\n        /* \"#utility.yul\":22929:23003   */\n      swap2\n      pop\n        /* \"#utility.yul\":23012:23105   */\n      tag_809\n        /* \"#utility.yul\":23101:23104   */\n      dup3\n        /* \"#utility.yul\":23012:23105   */\n      tag_541\n      jump\t// in\n    tag_809:\n        /* \"#utility.yul\":23130:23132   */\n      0x20\n        /* \"#utility.yul\":23125:23128   */\n      dup3\n        /* \"#utility.yul\":23121:23133   */\n      add\n        /* \"#utility.yul\":23114:23133   */\n      swap1\n      pop\n        /* \"#utility.yul\":22773:23139   */\n      swap2\n      swap1\n      pop\n      jump\t// out\n        /* \"#utility.yul\":23145:23564   */\n    tag_165:\n        /* \"#utility.yul\":23311:23315   */\n      0x00\n        /* \"#utility.yul\":23349:23351   */\n      0x20\n        /* \"#utility.yul\":23338:23347   */\n      dup3\n        /* \"#utility.yul\":23334:23352   */\n      add\n        /* \"#utility.yul\":23326:23352   */\n      swap1\n      pop\n        /* \"#utility.yul\":23398:23407   */\n      dup2\n        /* \"#utility.yul\":23392:23396   */\n      dup2\n        /* \"#utility.yul\":23388:23408   */\n      sub\n        /* \"#utility.yul\":23384:23385   */\n      0x00\n        /* \"#utility.yul\":23373:23382   */\n      dup4\n        /* \"#utility.yul\":23369:23386   */\n      add\n        /* \"#utility.yul\":23362:23409   */\n      mstore\n        /* \"#utility.yul\":23426:23557   */\n      tag_811\n        /* \"#utility.yul\":23552:23556   */\n      dup2\n        /* \"#utility.yul\":23426:23557   */\n      tag_542\n      jump\t// in\n    tag_811:\n        /* \"#utility.yul\":23418:23557   */\n      swap1\n      pop\n        /* \"#utility.yul\":23145:23564   */\n      swap2\n      swap1\n      pop\n      jump\t// out\n        /* \"#utility.yul\":23570:23741   */\n    tag_174:\n        /* \"#utility.yul\":23608:23611   */\n      0x00\n        /* \"#utility.yul\":23631:23654   */\n      tag_813\n        /* \"#utility.yul\":23648:23653   */\n      dup3\n        /* \"#utility.yul\":23631:23654   */\n      tag_490\n      jump\t// in\n    tag_813:\n        /* \"#utility.yul\":23622:23654   */\n      swap2\n      pop\n        /* \"#utility.yul\":23676:23682   */\n      0xffff\n        /* \"#utility.yul\":23669:23674   */\n      dup3\n        /* \"#utility.yul\":23666:23683   */\n      sub\n        /* \"#utility.yul\":23663:23706   */\n      tag_814\n      jumpi\n        /* \"#utility.yul\":23686:23704   */\n      tag_815\n      tag_537\n      jump\t// in\n    tag_815:\n        /* \"#utility.yul\":23663:23706   */\n    tag_814:\n        /* \"#utility.yul\":23733:23734   */\n      0x01\n        /* \"#utility.yul\":23726:23731   */\n      dup3\n        /* \"#utility.yul\":23722:23735   */\n      add\n        /* \"#utility.yul\":23715:23735   */\n      swap1\n      pop\n        /* \"#utility.yul\":23570:23741   */\n      swap2\n      swap1\n      pop\n      jump\t// out\n        /* \"#utility.yul\":23747:23938   */\n    tag_183:\n        /* \"#utility.yul\":23787:23790   */\n      0x00\n        /* \"#utility.yul\":23806:23826   */\n      tag_817\n        /* \"#utility.yul\":23824:23825   */\n      dup3\n        /* \"#utility.yul\":23806:23826   */\n      tag_493\n      jump\t// in\n    tag_817:\n        /* \"#utility.yul\":23801:23826   */\n      swap2\n      pop\n        /* \"#utility.yul\":23840:23860   */\n      tag_818\n        /* \"#utility.yul\":23858:23859   */\n      dup4\n        /* \"#utility.yul\":23840:23860   */\n      tag_493\n      jump\t// in\n    tag_818:\n        /* \"#utility.yul\":23835:23860   */\n      swap3\n      pop\n        /* \"#utility.yul\":23883:23884   */\n      dup3\n        /* \"#utility.yul\":23880:23881   */\n      dup3\n        /* \"#utility.yul\":23876:23885   */\n      add\n        /* \"#utility.yul\":23869:23885   */\n      swap1\n      pop\n        /* \"#utility.yul\":23904:23907   */\n      dup1\n        /* \"#utility.yul\":23901:23902   */\n      dup3\n        /* \"#utility.yul\":23898:23908   */\n      gt\n        /* \"#utility.yul\":23895:23931   */\n      iszero\n      tag_819\n      jumpi\n        /* \"#utility.yul\":23911:23929   */\n      tag_820\n      tag_537\n      jump\t// in\n    tag_820:\n        /* \"#utility.yul\":23895:23931   */\n    tag_819:\n        /* \"#utility.yul\":23747:23938   */\n      swap3\n      swap2\n      pop\n      pop\n      jump\t// out\n        /* \"#utility.yul\":23944:24124   */\n    tag_451:\n        /* \"#utility.yul\":23992:24069   */\n      0x4e487b7100000000000000000000000000000000000000000000000000000000\n        /* \"#utility.yul\":23989:23990   */\n      0x00\n        /* \"#utility.yul\":23982:24070   */\n      mstore\n        /* \"#utility.yul\":24089:24093   */\n      0x12\n        /* \"#utility.yul\":24086:24087   */\n      0x04\n        /* \"#utility.yul\":24079:24094   */\n      mstore\n        /* \"#utility.yul\":24113:24117   */\n      0x24\n        /* \"#utility.yul\":24110:24111   */\n      0x00\n        /* \"#utility.yul\":24103:24118   */\n      revert\n        /* \"#utility.yul\":24130:24303   */\n    tag_186:\n        /* \"#utility.yul\":24161:24162   */\n      0x00\n        /* \"#utility.yul\":24178:24197   */\n      tag_823\n        /* \"#utility.yul\":24195:24196   */\n      dup3\n        /* \"#utility.yul\":24178:24197   */\n      tag_490\n      jump\t// in\n    tag_823:\n        /* \"#utility.yul\":24173:24197   */\n      swap2\n      pop\n        /* \"#utility.yul\":24211:24230   */\n      tag_824\n        /* \"#utility.yul\":24228:24229   */\n      dup4\n        /* \"#utility.yul\":24211:24230   */\n      tag_490\n      jump\t// in\n    tag_824:\n        /* \"#utility.yul\":24206:24230   */\n      swap3\n      pop\n        /* \"#utility.yul\":24249:24250   */\n      dup3\n        /* \"#utility.yul\":24239:24274   */\n      tag_825\n      jumpi\n        /* \"#utility.yul\":24254:24272   */\n      tag_826\n      tag_451\n      jump\t// in\n    tag_826:\n        /* \"#utility.yul\":24239:24274   */\n    tag_825:\n        /* \"#utility.yul\":24295:24296   */\n      dup3\n        /* \"#utility.yul\":24292:24293   */\n      dup3\n        /* \"#utility.yul\":24288:24297   */\n      mod\n        /* \"#utility.yul\":24283:24297   */\n      swap1\n      pop\n        /* \"#utility.yul\":24130:24303   */\n      swap3\n      swap2\n      pop\n      pop\n      jump\t// out\n        /* \"#utility.yul\":24309:24510   */\n    tag_192:\n        /* \"#utility.yul\":24348:24351   */\n      0x00\n        /* \"#utility.yul\":24367:24386   */\n      tag_828\n        /* \"#utility.yul\":24384:24385   */\n      dup3\n        /* \"#utility.yul\":24367:24386   */\n      tag_523\n      jump\t// in\n    tag_828:\n        /* \"#utility.yul\":24362:24386   */\n      swap2\n      pop\n        /* \"#utility.yul\":24400:24419   */\n      tag_829\n        /* \"#utility.yul\":24417:24418   */\n      dup4\n        /* \"#utility.yul\":24400:24419   */\n      tag_523\n      jump\t// in\n    tag_829:\n        /* \"#utility.yul\":24395:24419   */\n      swap3\n      pop\n        /* \"#utility.yul\":24442:24443   */\n      dup3\n        /* \"#utility.yul\":24439:24440   */\n      dup3\n        /* \"#utility.yul\":24435:24444   */\n      add\n        /* \"#utility.yul\":24428:24444   */\n      swap1\n      pop\n        /* \"#utility.yul\":24465:24479   */\n      0xffffffffffff\n        /* \"#utility.yul\":24460:24463   */\n      dup2\n        /* \"#utility.yul\":24457:24480   */\n      gt\n        /* \"#utility.yul\":24454:24503   */\n      iszero\n      tag_830\n      jumpi\n        /* \"#utility.yul\":24483:24501   */\n      tag_831\n      tag_537\n      jump\t// in\n    tag_831:\n        /* \"#utility.yul\":24454:24503   */\n    tag_830:\n        /* \"#utility.yul\":24309:24510   */\n      swap3\n      swap2\n      pop\n      pop\n      jump\t// out\n        /* \"#utility.yul\":24516:24709   */\n    tag_201:\n        /* \"#utility.yul\":24555:24558   */\n      0x00\n        /* \"#utility.yul\":24574:24593   */\n      tag_833\n        /* \"#utility.yul\":24591:24592   */\n      dup3\n        /* \"#utility.yul\":24574:24593   */\n      tag_490\n      jump\t// in\n    tag_833:\n        /* \"#utility.yul\":24569:24593   */\n      swap2\n      pop\n        /* \"#utility.yul\":24607:24626   */\n      tag_834\n        /* \"#utility.yul\":24624:24625   */\n      dup4\n        /* \"#utility.yul\":24607:24626   */\n      tag_490\n      jump\t// in\n    tag_834:\n        /* \"#utility.yul\":24602:24626   */\n      swap3\n      pop\n        /* \"#utility.yul\":24649:24650   */\n      dup3\n        /* \"#utility.yul\":24646:24647   */\n      dup3\n        /* \"#utility.yul\":24642:24651   */\n      add\n        /* \"#utility.yul\":24635:24651   */\n      swap1\n      pop\n        /* \"#utility.yul\":24672:24678   */\n      0xffff\n        /* \"#utility.yul\":24667:24670   */\n      dup2\n        /* \"#utility.yul\":24664:24679   */\n      gt\n        /* \"#utility.yul\":24661:24702   */\n      iszero\n      tag_835\n      jumpi\n        /* \"#utility.yul\":24682:24700   */\n      tag_836\n      tag_537\n      jump\t// in\n    tag_836:\n        /* \"#utility.yul\":24661:24702   */\n    tag_835:\n        /* \"#utility.yul\":24516:24709   */\n      swap3\n      swap2\n      pop\n      pop\n      jump\t// out\n        /* \"#utility.yul\":24715:24884   */\n    tag_220:\n        /* \"#utility.yul\":24753:24756   */\n      0x00\n        /* \"#utility.yul\":24776:24799   */\n      tag_838\n        /* \"#utility.yul\":24793:24798   */\n      dup3\n        /* \"#utility.yul\":24776:24799   */\n      tag_490\n      jump\t// in\n    tag_838:\n        /* \"#utility.yul\":24767:24799   */\n      swap2\n      pop\n        /* \"#utility.yul\":24821:24825   */\n      0x00\n        /* \"#utility.yul\":24814:24819   */\n      dup3\n        /* \"#utility.yul\":24811:24826   */\n      sub\n        /* \"#utility.yul\":24808:24849   */\n      tag_839\n      jumpi\n        /* \"#utility.yul\":24829:24847   */\n      tag_840\n      tag_537\n      jump\t// in\n    tag_840:\n        /* \"#utility.yul\":24808:24849   */\n    tag_839:\n        /* \"#utility.yul\":24876:24877   */\n      0x01\n        /* \"#utility.yul\":24869:24874   */\n      dup3\n        /* \"#utility.yul\":24865:24878   */\n      sub\n        /* \"#utility.yul\":24858:24878   */\n      swap1\n      pop\n        /* \"#utility.yul\":24715:24884   */\n      swap2\n      swap1\n      pop\n      jump\t// out\n        /* \"#utility.yul\":24890:25123   */\n    tag_543:\n        /* \"#utility.yul\":25030:25064   */\n      0x546865207472616e73666572206f66207468697320746f6b656e206973206375\n        /* \"#utility.yul\":25026:25027   */\n      0x00\n        /* \"#utility.yul\":25018:25024   */\n      dup3\n        /* \"#utility.yul\":25014:25028   */\n      add\n        /* \"#utility.yul\":25007:25065   */\n      mstore\n        /* \"#utility.yul\":25099:25115   */\n      0x7272656e746c792062616e6e6564000000000000000000000000000000000000\n        /* \"#utility.yul\":25094:25096   */\n      0x20\n        /* \"#utility.yul\":25086:25092   */\n      dup3\n        /* \"#utility.yul\":25082:25097   */\n      add\n        /* \"#utility.yul\":25075:25116   */\n      mstore\n        /* \"#utility.yul\":24890:25123   */\n      pop\n      jump\t// out\n        /* \"#utility.yul\":25129:25495   */\n    tag_544:\n        /* \"#utility.yul\":25271:25274   */\n      0x00\n        /* \"#utility.yul\":25292:25359   */\n      tag_843\n        /* \"#utility.yul\":25356:25358   */\n      0x2e\n        /* \"#utility.yul\":25351:25354   */\n      dup4\n        /* \"#utility.yul\":25292:25359   */\n      tag_531\n      jump\t// in\n    tag_843:\n        /* \"#utility.yul\":25285:25359   */\n      swap2\n      pop\n        /* \"#utility.yul\":25368:25461   */\n      tag_844\n        /* \"#utility.yul\":25457:25460   */\n      dup3\n        /* \"#utility.yul\":25368:25461   */\n      tag_543\n      jump\t// in\n    tag_844:\n        /* \"#utility.yul\":25486:25488   */\n      0x40\n        /* \"#utility.yul\":25481:25484   */\n      dup3\n        /* \"#utility.yul\":25477:25489   */\n      add\n        /* \"#utility.yul\":25470:25489   */\n      swap1\n      pop\n        /* \"#utility.yul\":25129:25495   */\n      swap2\n      swap1\n      pop\n      jump\t// out\n        /* \"#utility.yul\":25501:25920   */\n    tag_236:\n        /* \"#utility.yul\":25667:25671   */\n      0x00\n        /* \"#utility.yul\":25705:25707   */\n      0x20\n        /* \"#utility.yul\":25694:25703   */\n      dup3\n        /* \"#utility.yul\":25690:25708   */\n      add\n        /* \"#utility.yul\":25682:25708   */\n      swap1\n      pop\n        /* \"#utility.yul\":25754:25763   */\n      dup2\n        /* \"#utility.yul\":25748:25752   */\n      dup2\n        /* \"#utility.yul\":25744:25764   */\n      sub\n        /* \"#utility.yul\":25740:25741   */\n      0x00\n        /* \"#utility.yul\":25729:25738   */\n      dup4\n        /* \"#utility.yul\":25725:25742   */\n      add\n        /* \"#utility.yul\":25718:25765   */\n      mstore\n        /* \"#utility.yul\":25782:25913   */\n      tag_846\n        /* \"#utility.yul\":25908:25912   */\n      dup2\n        /* \"#utility.yul\":25782:25913   */\n      tag_544\n      jump\t// in\n    tag_846:\n        /* \"#utility.yul\":25774:25913   */\n      swap1\n      pop\n        /* \"#utility.yul\":25501:25920   */\n      swap2\n      swap1\n      pop\n      jump\t// out\n        /* \"#utility.yul\":25926:25986   */\n    tag_545:\n        /* \"#utility.yul\":25954:25957   */\n      0x00\n        /* \"#utility.yul\":25975:25980   */\n      dup2\n        /* \"#utility.yul\":25968:25980   */\n      swap1\n      pop\n        /* \"#utility.yul\":25926:25986   */\n      swap2\n      swap1\n      pop\n      jump\t// out\n        /* \"#utility.yul\":25992:26132   */\n    tag_546:\n        /* \"#utility.yul\":26041:26050   */\n      0x00\n        /* \"#utility.yul\":26074:26126   */\n      tag_849\n        /* \"#utility.yul\":26092:26125   */\n      tag_850\n        /* \"#utility.yul\":26101:26124   */\n      tag_851\n        /* \"#utility.yul\":26118:26123   */\n      dup5\n        /* \"#utility.yul\":26101:26124   */\n      tag_490\n      jump\t// in\n    tag_851:\n        /* \"#utility.yul\":26092:26125   */\n      tag_545\n      jump\t// in\n    tag_850:\n        /* \"#utility.yul\":26074:26126   */\n      tag_493\n      jump\t// in\n    tag_849:\n        /* \"#utility.yul\":26061:26126   */\n      swap1\n      pop\n        /* \"#utility.yul\":25992:26132   */\n      swap2\n      swap1\n      pop\n      jump\t// out\n        /* \"#utility.yul\":26138:26267   */\n    tag_547:\n        /* \"#utility.yul\":26224:26260   */\n      tag_853\n        /* \"#utility.yul\":26254:26259   */\n      dup2\n        /* \"#utility.yul\":26224:26260   */\n      tag_546\n      jump\t// in\n    tag_853:\n        /* \"#utility.yul\":26219:26222   */\n      dup3\n        /* \"#utility.yul\":26212:26261   */\n      mstore\n        /* \"#utility.yul\":26138:26267   */\n      pop\n      pop\n      jump\t// out\n        /* \"#utility.yul\":26273:26603   */\n    tag_247:\n        /* \"#utility.yul\":26393:26397   */\n      0x00\n        /* \"#utility.yul\":26431:26433   */\n      0x40\n        /* \"#utility.yul\":26420:26429   */\n      dup3\n        /* \"#utility.yul\":26416:26434   */\n      add\n        /* \"#utility.yul\":26408:26434   */\n      swap1\n      pop\n        /* \"#utility.yul\":26444:26515   */\n      tag_855\n        /* \"#utility.yul\":26512:26513   */\n      0x00\n        /* \"#utility.yul\":26501:26510   */\n      dup4\n        /* \"#utility.yul\":26497:26514   */\n      add\n        /* \"#utility.yul\":26488:26494   */\n      dup6\n        /* \"#utility.yul\":26444:26515   */\n      tag_509\n      jump\t// in\n    tag_855:\n        /* \"#utility.yul\":26525:26596   */\n      tag_856\n        /* \"#utility.yul\":26592:26594   */\n      0x20\n        /* \"#utility.yul\":26581:26590   */\n      dup4\n        /* \"#utility.yul\":26577:26595   */\n      add\n        /* \"#utility.yul\":26568:26574   */\n      dup5\n        /* \"#utility.yul\":26525:26596   */\n      tag_547\n      jump\t// in\n    tag_856:\n        /* \"#utility.yul\":26273:26603   */\n      swap4\n      swap3\n      pop\n      pop\n      pop\n      jump\t// out\n        /* \"#utility.yul\":26609:27049   */\n    tag_250:\n        /* \"#utility.yul\":26757:26761   */\n      0x00\n        /* \"#utility.yul\":26795:26797   */\n      0x60\n        /* \"#utility.yul\":26784:26793   */\n      dup3\n        /* \"#utility.yul\":26780:26798   */\n      add\n        /* \"#utility.yul\":26772:26798   */\n      swap1\n      pop\n        /* \"#utility.yul\":26808:26879   */\n      tag_858\n        /* \"#utility.yul\":26876:26877   */\n      0x00\n        /* \"#utility.yul\":26865:26874   */\n      dup4\n        /* \"#utility.yul\":26861:26878   */\n      add\n        /* \"#utility.yul\":26852:26858   */\n      dup7\n        /* \"#utility.yul\":26808:26879   */\n      tag_509\n      jump\t// in\n    tag_858:\n        /* \"#utility.yul\":26889:26960   */\n      tag_859\n        /* \"#utility.yul\":26956:26958   */\n      0x20\n        /* \"#utility.yul\":26945:26954   */\n      dup4\n        /* \"#utility.yul\":26941:26959   */\n      add\n        /* \"#utility.yul\":26932:26938   */\n      dup6\n        /* \"#utility.yul\":26889:26960   */\n      tag_547\n      jump\t// in\n    tag_859:\n        /* \"#utility.yul\":26970:27042   */\n      tag_860\n        /* \"#utility.yul\":27038:27040   */\n      0x40\n        /* \"#utility.yul\":27027:27036   */\n      dup4\n        /* \"#utility.yul\":27023:27041   */\n      add\n        /* \"#utility.yul\":27014:27020   */\n      dup5\n        /* \"#utility.yul\":26970:27042   */\n      tag_509\n      jump\t// in\n    tag_860:\n        /* \"#utility.yul\":26609:27049   */\n      swap5\n      swap4\n      pop\n      pop\n      pop\n      pop\n      jump\t// out\n        /* \"#utility.yul\":27055:27237   */\n    tag_548:\n        /* \"#utility.yul\":27195:27229   */\n      0x54686520696e70757420616464726573732063616e6e6f74206265207a65726f\n        /* \"#utility.yul\":27191:27192   */\n      0x00\n        /* \"#utility.yul\":27183:27189   */\n      dup3\n        /* \"#utility.yul\":27179:27193   */\n      add\n        /* \"#utility.yul\":27172:27230   */\n      mstore\n        /* \"#utility.yul\":27055:27237   */\n      pop\n      jump\t// out\n        /* \"#utility.yul\":27243:27609   */\n    tag_549:\n        /* \"#utility.yul\":27385:27388   */\n      0x00\n        /* \"#utility.yul\":27406:27473   */\n      tag_863\n        /* \"#utility.yul\":27470:27472   */\n      0x20\n        /* \"#utility.yul\":27465:27468   */\n      dup4\n        /* \"#utility.yul\":27406:27473   */\n      tag_531\n      jump\t// in\n    tag_863:\n        /* \"#utility.yul\":27399:27473   */\n      swap2\n      pop\n        /* \"#utility.yul\":27482:27575   */\n      tag_864\n        /* \"#utility.yul\":27571:27574   */\n      dup3\n        /* \"#utility.yul\":27482:27575   */\n      tag_548\n      jump\t// in\n    tag_864:\n        /* \"#utility.yul\":27600:27602   */\n      0x20\n        /* \"#utility.yul\":27595:27598   */\n      dup3\n        /* \"#utility.yul\":27591:27603   */\n      add\n        /* \"#utility.yul\":27584:27603   */\n      swap1\n      pop\n        /* \"#utility.yul\":27243:27609   */\n      swap2\n      swap1\n      pop\n      jump\t// out\n        /* \"#utility.yul\":27615:28034   */\n    tag_258:\n        /* \"#utility.yul\":27781:27785   */\n      0x00\n        /* \"#utility.yul\":27819:27821   */\n      0x20\n        /* \"#utility.yul\":27808:27817   */\n      dup3\n        /* \"#utility.yul\":27804:27822   */\n      add\n        /* \"#utility.yul\":27796:27822   */\n      swap1\n      pop\n        /* \"#utility.yul\":27868:27877   */\n      dup2\n        /* \"#utility.yul\":27862:27866   */\n      dup2\n        /* \"#utility.yul\":27858:27878   */\n      sub\n        /* \"#utility.yul\":27854:27855   */\n      0x00\n        /* \"#utility.yul\":27843:27852   */\n      dup4\n        /* \"#utility.yul\":27839:27856   */\n      add\n        /* \"#utility.yul\":27832:27879   */\n      mstore\n        /* \"#utility.yul\":27896:28027   */\n      tag_866\n        /* \"#utility.yul\":28022:28026   */\n      dup2\n        /* \"#utility.yul\":27896:28027   */\n      tag_549\n      jump\t// in\n    tag_866:\n        /* \"#utility.yul\":27888:28027   */\n      swap1\n      pop\n        /* \"#utility.yul\":27615:28034   */\n      swap2\n      swap1\n      pop\n      jump\t// out\n        /* \"#utility.yul\":28040:28286   */\n    tag_550:\n        /* \"#utility.yul\":28180:28214   */\n      0x5468652061646472657373206f6620746865206f776e657220616e6420746865\n        /* \"#utility.yul\":28176:28177   */\n      0x00\n        /* \"#utility.yul\":28168:28174   */\n      dup3\n        /* \"#utility.yul\":28164:28178   */\n      add\n        /* \"#utility.yul\":28157:28215   */\n      mstore\n        /* \"#utility.yul\":28249:28278   */\n      0x206f70657261746f72206d75737420626520646966666572656e740000000000\n        /* \"#utility.yul\":28244:28246   */\n      0x20\n        /* \"#utility.yul\":28236:28242   */\n      dup3\n        /* \"#utility.yul\":28232:28247   */\n      add\n        /* \"#utility.yul\":28225:28279   */\n      mstore\n        /* \"#utility.yul\":28040:28286   */\n      pop\n      jump\t// out\n        /* \"#utility.yul\":28292:28658   */\n    tag_551:\n        /* \"#utility.yul\":28434:28437   */\n      0x00\n        /* \"#utility.yul\":28455:28522   */\n      tag_869\n        /* \"#utility.yul\":28519:28521   */\n      0x3b\n        /* \"#utility.yul\":28514:28517   */\n      dup4\n        /* \"#utility.yul\":28455:28522   */\n      tag_531\n      jump\t// in\n    tag_869:\n        /* \"#utility.yul\":28448:28522   */\n      swap2\n      pop\n        /* \"#utility.yul\":28531:28624   */\n      tag_870\n        /* \"#utility.yul\":28620:28623   */\n      dup3\n        /* \"#utility.yul\":28531:28624   */\n      tag_550\n      jump\t// in\n    tag_870:\n        /* \"#utility.yul\":28649:28651   */\n      0x40\n        /* \"#utility.yul\":28644:28647   */\n      dup3\n        /* \"#utility.yul\":28640:28652   */\n      add\n        /* \"#utility.yul\":28633:28652   */\n      swap1\n      pop\n        /* \"#utility.yul\":28292:28658   */\n      swap2\n      swap1\n      pop\n      jump\t// out\n        /* \"#utility.yul\":28664:29083   */\n    tag_271:\n        /* \"#utility.yul\":28830:28834   */\n      0x00\n        /* \"#utility.yul\":28868:28870   */\n      0x20\n        /* \"#utility.yul\":28857:28866   */\n      dup3\n        /* \"#utility.yul\":28853:28871   */\n      add\n        /* \"#utility.yul\":28845:28871   */\n      swap1\n      pop\n        /* \"#utility.yul\":28917:28926   */\n      dup2\n        /* \"#utility.yul\":28911:28915   */\n      dup2\n        /* \"#utility.yul\":28907:28927   */\n      sub\n        /* \"#utility.yul\":28903:28904   */\n      0x00\n        /* \"#utility.yul\":28892:28901   */\n      dup4\n        /* \"#utility.yul\":28888:28905   */\n      add\n        /* \"#utility.yul\":28881:28928   */\n      mstore\n        /* \"#utility.yul\":28945:29076   */\n      tag_872\n        /* \"#utility.yul\":29071:29075   */\n      dup2\n        /* \"#utility.yul\":28945:29076   */\n      tag_551\n      jump\t// in\n    tag_872:\n        /* \"#utility.yul\":28937:29076   */\n      swap1\n      pop\n        /* \"#utility.yul\":28664:29083   */\n      swap2\n      swap1\n      pop\n      jump\t// out\n        /* \"#utility.yul\":29089:29310   */\n    tag_552:\n        /* \"#utility.yul\":29229:29263   */\n      0x4974206973206e6f7420706f737369626c6520746f207265676973746572206e\n        /* \"#utility.yul\":29225:29226   */\n      0x00\n        /* \"#utility.yul\":29217:29223   */\n      dup3\n        /* \"#utility.yul\":29213:29227   */\n      add\n        /* \"#utility.yul\":29206:29264   */\n      mstore\n        /* \"#utility.yul\":29298:29302   */\n      0x6f77000000000000000000000000000000000000000000000000000000000000\n        /* \"#utility.yul\":29293:29295   */\n      0x20\n        /* \"#utility.yul\":29285:29291   */\n      dup3\n        /* \"#utility.yul\":29281:29296   */\n      add\n        /* \"#utility.yul\":29274:29303   */\n      mstore\n        /* \"#utility.yul\":29089:29310   */\n      pop\n      jump\t// out\n        /* \"#utility.yul\":29316:29682   */\n    tag_553:\n        /* \"#utility.yul\":29458:29461   */\n      0x00\n        /* \"#utility.yul\":29479:29546   */\n      tag_875\n        /* \"#utility.yul\":29543:29545   */\n      0x22\n        /* \"#utility.yul\":29538:29541   */\n      dup4\n        /* \"#utility.yul\":29479:29546   */\n      tag_531\n      jump\t// in\n    tag_875:\n        /* \"#utility.yul\":29472:29546   */\n      swap2\n      pop\n        /* \"#utility.yul\":29555:29648   */\n      tag_876\n        /* \"#utility.yul\":29644:29647   */\n      dup3\n        /* \"#utility.yul\":29555:29648   */\n      tag_552\n      jump\t// in\n    tag_876:\n        /* \"#utility.yul\":29673:29675   */\n      0x40\n        /* \"#utility.yul\":29668:29671   */\n      dup3\n        /* \"#utility.yul\":29664:29676   */\n      add\n        /* \"#utility.yul\":29657:29676   */\n      swap1\n      pop\n        /* \"#utility.yul\":29316:29682   */\n      swap2\n      swap1\n      pop\n      jump\t// out\n        /* \"#utility.yul\":29688:30107   */\n    tag_286:\n        /* \"#utility.yul\":29854:29858   */\n      0x00\n        /* \"#utility.yul\":29892:29894   */\n      0x20\n        /* \"#utility.yul\":29881:29890   */\n      dup3\n        /* \"#utility.yul\":29877:29895   */\n      add\n        /* \"#utility.yul\":29869:29895   */\n      swap1\n      pop\n        /* \"#utility.yul\":29941:29950   */\n      dup2\n        /* \"#utility.yul\":29935:29939   */\n      dup2\n        /* \"#utility.yul\":29931:29951   */\n      sub\n        /* \"#utility.yul\":29927:29928   */\n      0x00\n        /* \"#utility.yul\":29916:29925   */\n      dup4\n        /* \"#utility.yul\":29912:29929   */\n      add\n        /* \"#utility.yul\":29905:29952   */\n      mstore\n        /* \"#utility.yul\":29969:30100   */\n      tag_878\n        /* \"#utility.yul\":30095:30099   */\n      dup2\n        /* \"#utility.yul\":29969:30100   */\n      tag_553\n      jump\t// in\n    tag_878:\n        /* \"#utility.yul\":29961:30100   */\n      swap1\n      pop\n        /* \"#utility.yul\":29688:30107   */\n      swap2\n      swap1\n      pop\n      jump\t// out\n        /* \"#utility.yul\":30113:30409   */\n    tag_554:\n        /* \"#utility.yul\":30253:30287   */\n      0x5468652061646472657373206f66207468652072656769737472616e74206d75\n        /* \"#utility.yul\":30249:30250   */\n      0x00\n        /* \"#utility.yul\":30241:30247   */\n      dup3\n        /* \"#utility.yul\":30237:30251   */\n      add\n        /* \"#utility.yul\":30230:30288   */\n      mstore\n        /* \"#utility.yul\":30322:30356   */\n      0x7374206e6f742062652030206f72207468652061646472657373206f66206120\n        /* \"#utility.yul\":30317:30319   */\n      0x20\n        /* \"#utility.yul\":30309:30315   */\n      dup3\n        /* \"#utility.yul\":30305:30320   */\n      add\n        /* \"#utility.yul\":30298:30357   */\n      mstore\n        /* \"#utility.yul\":30391:30401   */\n      0x636f6e7472616374000000000000000000000000000000000000000000000000\n        /* \"#utility.yul\":30386:30388   */\n      0x40\n        /* \"#utility.yul\":30378:30384   */\n      dup3\n        /* \"#utility.yul\":30374:30389   */\n      add\n        /* \"#utility.yul\":30367:30402   */\n      mstore\n        /* \"#utility.yul\":30113:30409   */\n      pop\n      jump\t// out\n        /* \"#utility.yul\":30415:30781   */\n    tag_555:\n        /* \"#utility.yul\":30557:30560   */\n      0x00\n        /* \"#utility.yul\":30578:30645   */\n      tag_881\n        /* \"#utility.yul\":30642:30644   */\n      0x48\n        /* \"#utility.yul\":30637:30640   */\n      dup4\n        /* \"#utility.yul\":30578:30645   */\n      tag_531\n      jump\t// in\n    tag_881:\n        /* \"#utility.yul\":30571:30645   */\n      swap2\n      pop\n        /* \"#utility.yul\":30654:30747   */\n      tag_882\n        /* \"#utility.yul\":30743:30746   */\n      dup3\n        /* \"#utility.yul\":30654:30747   */\n      tag_554\n      jump\t// in\n    tag_882:\n        /* \"#utility.yul\":30772:30774   */\n      0x60\n        /* \"#utility.yul\":30767:30770   */\n      dup3\n        /* \"#utility.yul\":30763:30775   */\n      add\n        /* \"#utility.yul\":30756:30775   */\n      swap1\n      pop\n        /* \"#utility.yul\":30415:30781   */\n      swap2\n      swap1\n      pop\n      jump\t// out\n        /* \"#utility.yul\":30787:31206   */\n    tag_292:\n        /* \"#utility.yul\":30953:30957   */\n      0x00\n        /* \"#utility.yul\":30991:30993   */\n      0x20\n        /* \"#utility.yul\":30980:30989   */\n      dup3\n        /* \"#utility.yul\":30976:30994   */\n      add\n        /* \"#utility.yul\":30968:30994   */\n      swap1\n      pop\n        /* \"#utility.yul\":31040:31049   */\n      dup2\n        /* \"#utility.yul\":31034:31038   */\n      dup2\n        /* \"#utility.yul\":31030:31050   */\n      sub\n        /* \"#utility.yul\":31026:31027   */\n      0x00\n        /* \"#utility.yul\":31015:31024   */\n      dup4\n        /* \"#utility.yul\":31011:31028   */\n      add\n        /* \"#utility.yul\":31004:31051   */\n      mstore\n        /* \"#utility.yul\":31068:31199   */\n      tag_884\n        /* \"#utility.yul\":31194:31198   */\n      dup2\n        /* \"#utility.yul\":31068:31199   */\n      tag_555\n      jump\t// in\n    tag_884:\n        /* \"#utility.yul\":31060:31199   */\n      swap1\n      pop\n        /* \"#utility.yul\":30787:31206   */\n      swap2\n      swap1\n      pop\n      jump\t// out\n        /* \"#utility.yul\":31212:31448   */\n    tag_556:\n        /* \"#utility.yul\":31352:31386   */\n      0x54686520616d6f756e742073686f756c64206e6f74206265206c657373207468\n        /* \"#utility.yul\":31348:31349   */\n      0x00\n        /* \"#utility.yul\":31340:31346   */\n      dup3\n        /* \"#utility.yul\":31336:31350   */\n      add\n        /* \"#utility.yul\":31329:31387   */\n      mstore\n        /* \"#utility.yul\":31421:31440   */\n      0x616e20746865206d696e74207072696365000000000000000000000000000000\n        /* \"#utility.yul\":31416:31418   */\n      0x20\n        /* \"#utility.yul\":31408:31414   */\n      dup3\n        /* \"#utility.yul\":31404:31419   */\n      add\n        /* \"#utility.yul\":31397:31441   */\n      mstore\n        /* \"#utility.yul\":31212:31448   */\n      pop\n      jump\t// out\n        /* \"#utility.yul\":31454:31820   */\n    tag_557:\n        /* \"#utility.yul\":31596:31599   */\n      0x00\n        /* \"#utility.yul\":31617:31684   */\n      tag_887\n        /* \"#utility.yul\":31681:31683   */\n      0x31\n        /* \"#utility.yul\":31676:31679   */\n      dup4\n        /* \"#utility.yul\":31617:31684   */\n      tag_531\n      jump\t// in\n    tag_887:\n        /* \"#utility.yul\":31610:31684   */\n      swap2\n      pop\n        /* \"#utility.yul\":31693:31786   */\n      tag_888\n        /* \"#utility.yul\":31782:31785   */\n      dup3\n        /* \"#utility.yul\":31693:31786   */\n      tag_556\n      jump\t// in\n    tag_888:\n        /* \"#utility.yul\":31811:31813   */\n      0x40\n        /* \"#utility.yul\":31806:31809   */\n      dup3\n        /* \"#utility.yul\":31802:31814   */\n      add\n        /* \"#utility.yul\":31795:31814   */\n      swap1\n      pop\n        /* \"#utility.yul\":31454:31820   */\n      swap2\n      swap1\n      pop\n      jump\t// out\n        /* \"#utility.yul\":31826:32245   */\n    tag_295:\n        /* \"#utility.yul\":31992:31996   */\n      0x00\n        /* \"#utility.yul\":32030:32032   */\n      0x20\n        /* \"#utility.yul\":32019:32028   */\n      dup3\n        /* \"#utility.yul\":32015:32033   */\n      add\n        /* \"#utility.yul\":32007:32033   */\n      swap1\n      pop\n        /* \"#utility.yul\":32079:32088   */\n      dup2\n        /* \"#utility.yul\":32073:32077   */\n      dup2\n        /* \"#utility.yul\":32069:32089   */\n      sub\n        /* \"#utility.yul\":32065:32066   */\n      0x00\n        /* \"#utility.yul\":32054:32063   */\n      dup4\n        /* \"#utility.yul\":32050:32067   */\n      add\n        /* \"#utility.yul\":32043:32090   */\n      mstore\n        /* \"#utility.yul\":32107:32238   */\n      tag_890\n        /* \"#utility.yul\":32233:32237   */\n      dup2\n        /* \"#utility.yul\":32107:32238   */\n      tag_557\n      jump\t// in\n    tag_890:\n        /* \"#utility.yul\":32099:32238   */\n      swap1\n      pop\n        /* \"#utility.yul\":31826:32245   */\n      swap2\n      swap1\n      pop\n      jump\t// out\n        /* \"#utility.yul\":32251:32398   */\n    tag_558:\n        /* \"#utility.yul\":32352:32363   */\n      0x00\n        /* \"#utility.yul\":32389:32392   */\n      dup2\n        /* \"#utility.yul\":32374:32392   */\n      swap1\n      pop\n        /* \"#utility.yul\":32251:32398   */\n      swap3\n      swap2\n      pop\n      pop\n      jump\t// out\n        /* \"#utility.yul\":32404:32518   */\n    tag_559:\n      pop\n      jump\t// out\n        /* \"#utility.yul\":32524:32922   */\n    tag_560:\n        /* \"#utility.yul\":32683:32686   */\n      0x00\n        /* \"#utility.yul\":32704:32787   */\n      tag_894\n        /* \"#utility.yul\":32785:32786   */\n      0x00\n        /* \"#utility.yul\":32780:32783   */\n      dup4\n        /* \"#utility.yul\":32704:32787   */\n      tag_558\n      jump\t// in\n    tag_894:\n        /* \"#utility.yul\":32697:32787   */\n      swap2\n      pop\n        /* \"#utility.yul\":32796:32889   */\n      tag_895\n        /* \"#utility.yul\":32885:32888   */\n      dup3\n        /* \"#utility.yul\":32796:32889   */\n      tag_559\n      jump\t// in\n    tag_895:\n        /* \"#utility.yul\":32914:32915   */\n      0x00\n        /* \"#utility.yul\":32909:32912   */\n      dup3\n        /* \"#utility.yul\":32905:32916   */\n      add\n        /* \"#utility.yul\":32898:32916   */\n      swap1\n      pop\n        /* \"#utility.yul\":32524:32922   */\n      swap2\n      swap1\n      pop\n      jump\t// out\n        /* \"#utility.yul\":32928:33307   */\n    tag_297:\n        /* \"#utility.yul\":33112:33115   */\n      0x00\n        /* \"#utility.yul\":33134:33281   */\n      tag_897\n        /* \"#utility.yul\":33277:33280   */\n      dup3\n        /* \"#utility.yul\":33134:33281   */\n      tag_560\n      jump\t// in\n    tag_897:\n        /* \"#utility.yul\":33127:33281   */\n      swap2\n      pop\n        /* \"#utility.yul\":33298:33301   */\n      dup2\n        /* \"#utility.yul\":33291:33301   */\n      swap1\n      pop\n        /* \"#utility.yul\":32928:33307   */\n      swap2\n      swap1\n      pop\n      jump\t// out\n        /* \"#utility.yul\":33313:33486   */\n    tag_561:\n        /* \"#utility.yul\":33453:33478   */\n      0x54686520616d6f756e7420776173206e6f742073656e74000000000000000000\n        /* \"#utility.yul\":33449:33450   */\n      0x00\n        /* \"#utility.yul\":33441:33447   */\n      dup3\n        /* \"#utility.yul\":33437:33451   */\n      add\n        /* \"#utility.yul\":33430:33479   */\n      mstore\n        /* \"#utility.yul\":33313:33486   */\n      pop\n      jump\t// out\n        /* \"#utility.yul\":33492:33858   */\n    tag_562:\n        /* \"#utility.yul\":33634:33637   */\n      0x00\n        /* \"#utility.yul\":33655:33722   */\n      tag_900\n        /* \"#utility.yul\":33719:33721   */\n      0x17\n        /* \"#utility.yul\":33714:33717   */\n      dup4\n        /* \"#utility.yul\":33655:33722   */\n      tag_531\n      jump\t// in\n    tag_900:\n        /* \"#utility.yul\":33648:33722   */\n      swap2\n      pop\n        /* \"#utility.yul\":33731:33824   */\n      tag_901\n        /* \"#utility.yul\":33820:33823   */\n      dup3\n        /* \"#utility.yul\":33731:33824   */\n      tag_561\n      jump\t// in\n    tag_901:\n        /* \"#utility.yul\":33849:33851   */\n      0x20\n        /* \"#utility.yul\":33844:33847   */\n      dup3\n        /* \"#utility.yul\":33840:33852   */\n      add\n        /* \"#utility.yul\":33833:33852   */\n      swap1\n      pop\n        /* \"#utility.yul\":33492:33858   */\n      swap2\n      swap1\n      pop\n      jump\t// out\n        /* \"#utility.yul\":33864:34283   */\n    tag_303:\n        /* \"#utility.yul\":34030:34034   */\n      0x00\n        /* \"#utility.yul\":34068:34070   */\n      0x20\n        /* \"#utility.yul\":34057:34066   */\n      dup3\n        /* \"#utility.yul\":34053:34071   */\n      add\n        /* \"#utility.yul\":34045:34071   */\n      swap1\n      pop\n        /* \"#utility.yul\":34117:34126   */\n      dup2\n        /* \"#utility.yul\":34111:34115   */\n      dup2\n        /* \"#utility.yul\":34107:34127   */\n      sub\n        /* \"#utility.yul\":34103:34104   */\n      0x00\n        /* \"#utility.yul\":34092:34101   */\n      dup4\n        /* \"#utility.yul\":34088:34105   */\n      add\n        /* \"#utility.yul\":34081:34128   */\n      mstore\n        /* \"#utility.yul\":34145:34276   */\n      tag_903\n        /* \"#utility.yul\":34271:34275   */\n      dup2\n        /* \"#utility.yul\":34145:34276   */\n      tag_562\n      jump\t// in\n    tag_903:\n        /* \"#utility.yul\":34137:34276   */\n      swap1\n      pop\n        /* \"#utility.yul\":33864:34283   */\n      swap2\n      swap1\n      pop\n      jump\t// out\n        /* \"#utility.yul\":34289:34437   */\n    tag_563:\n        /* \"#utility.yul\":34391:34402   */\n      0x00\n        /* \"#utility.yul\":34428:34431   */\n      dup2\n        /* \"#utility.yul\":34413:34431   */\n      swap1\n      pop\n        /* \"#utility.yul\":34289:34437   */\n      swap3\n      swap2\n      pop\n      pop\n      jump\t// out\n        /* \"#utility.yul\":34443:34833   */\n    tag_564:\n        /* \"#utility.yul\":34549:34552   */\n      0x00\n        /* \"#utility.yul\":34577:34616   */\n      tag_906\n        /* \"#utility.yul\":34610:34615   */\n      dup3\n        /* \"#utility.yul\":34577:34616   */\n      tag_530\n      jump\t// in\n    tag_906:\n        /* \"#utility.yul\":34632:34721   */\n      tag_907\n        /* \"#utility.yul\":34714:34720   */\n      dup2\n        /* \"#utility.yul\":34709:34712   */\n      dup6\n        /* \"#utility.yul\":34632:34721   */\n      tag_563\n      jump\t// in\n    tag_907:\n        /* \"#utility.yul\":34625:34721   */\n      swap4\n      pop\n        /* \"#utility.yul\":34730:34795   */\n      tag_908\n        /* \"#utility.yul\":34788:34794   */\n      dup2\n        /* \"#utility.yul\":34783:34786   */\n      dup6\n        /* \"#utility.yul\":34776:34780   */\n      0x20\n        /* \"#utility.yul\":34769:34774   */\n      dup7\n        /* \"#utility.yul\":34765:34781   */\n      add\n        /* \"#utility.yul\":34730:34795   */\n      tag_528\n      jump\t// in\n    tag_908:\n        /* \"#utility.yul\":34820:34826   */\n      dup1\n        /* \"#utility.yul\":34815:34818   */\n      dup5\n        /* \"#utility.yul\":34811:34827   */\n      add\n        /* \"#utility.yul\":34804:34827   */\n      swap2\n      pop\n        /* \"#utility.yul\":34553:34833   */\n      pop\n        /* \"#utility.yul\":34443:34833   */\n      swap3\n      swap2\n      pop\n      pop\n      jump\t// out\n        /* \"#utility.yul\":34839:35274   */\n    tag_325:\n        /* \"#utility.yul\":35019:35022   */\n      0x00\n        /* \"#utility.yul\":35041:35136   */\n      tag_910\n        /* \"#utility.yul\":35132:35135   */\n      dup3\n        /* \"#utility.yul\":35123:35129   */\n      dup6\n        /* \"#utility.yul\":35041:35136   */\n      tag_564\n      jump\t// in\n    tag_910:\n        /* \"#utility.yul\":35034:35136   */\n      swap2\n      pop\n        /* \"#utility.yul\":35153:35248   */\n      tag_911\n        /* \"#utility.yul\":35244:35247   */\n      dup3\n        /* \"#utility.yul\":35235:35241   */\n      dup5\n        /* \"#utility.yul\":35153:35248   */\n      tag_564\n      jump\t// in\n    tag_911:\n        /* \"#utility.yul\":35146:35248   */\n      swap2\n      pop\n        /* \"#utility.yul\":35265:35268   */\n      dup2\n        /* \"#utility.yul\":35258:35268   */\n      swap1\n      pop\n        /* \"#utility.yul\":34839:35274   */\n      swap4\n      swap3\n      pop\n      pop\n      pop\n      jump\t// out\n        /* \"#utility.yul\":35280:35592   */\n    tag_565:\n        /* \"#utility.yul\":35420:35454   */\n      0x54686520494420656e746572656420697320696e76616c69642e204974206d75\n        /* \"#utility.yul\":35416:35417   */\n      0x00\n        /* \"#utility.yul\":35408:35414   */\n      dup3\n        /* \"#utility.yul\":35404:35418   */\n      add\n        /* \"#utility.yul\":35397:35455   */\n      mstore\n        /* \"#utility.yul\":35489:35523   */\n      0x737420626520696e207468697320696e74657276616c2030203c206964203c3d\n        /* \"#utility.yul\":35484:35486   */\n      0x20\n        /* \"#utility.yul\":35476:35482   */\n      dup3\n        /* \"#utility.yul\":35472:35487   */\n      add\n        /* \"#utility.yul\":35465:35524   */\n      mstore\n        /* \"#utility.yul\":35558:35584   */\n      0x206d6178696d756d206d696e7461626c6520746f6b656e730000000000000000\n        /* \"#utility.yul\":35553:35555   */\n      0x40\n        /* \"#utility.yul\":35545:35551   */\n      dup3\n        /* \"#utility.yul\":35541:35556   */\n      add\n        /* \"#utility.yul\":35534:35585   */\n      mstore\n        /* \"#utility.yul\":35280:35592   */\n      pop\n      jump\t// out\n        /* \"#utility.yul\":35598:35964   */\n    tag_566:\n        /* \"#utility.yul\":35740:35743   */\n      0x00\n        /* \"#utility.yul\":35761:35828   */\n      tag_914\n        /* \"#utility.yul\":35825:35827   */\n      0x58\n        /* \"#utility.yul\":35820:35823   */\n      dup4\n        /* \"#utility.yul\":35761:35828   */\n      tag_531\n      jump\t// in\n    tag_914:\n        /* \"#utility.yul\":35754:35828   */\n      swap2\n      pop\n        /* \"#utility.yul\":35837:35930   */\n      tag_915\n        /* \"#utility.yul\":35926:35929   */\n      dup3\n        /* \"#utility.yul\":35837:35930   */\n      tag_565\n      jump\t// in\n    tag_915:\n        /* \"#utility.yul\":35955:35957   */\n      0x60\n        /* \"#utility.yul\":35950:35953   */\n      dup3\n        /* \"#utility.yul\":35946:35958   */\n      add\n        /* \"#utility.yul\":35939:35958   */\n      swap1\n      pop\n        /* \"#utility.yul\":35598:35964   */\n      swap2\n      swap1\n      pop\n      jump\t// out\n        /* \"#utility.yul\":35970:36389   */\n    tag_411:\n        /* \"#utility.yul\":36136:36140   */\n      0x00\n        /* \"#utility.yul\":36174:36176   */\n      0x20\n        /* \"#utility.yul\":36163:36172   */\n      dup3\n        /* \"#utility.yul\":36159:36177   */\n      add\n        /* \"#utility.yul\":36151:36177   */\n      swap1\n      pop\n        /* \"#utility.yul\":36223:36232   */\n      dup2\n        /* \"#utility.yul\":36217:36221   */\n      dup2\n        /* \"#utility.yul\":36213:36233   */\n      sub\n        /* \"#utility.yul\":36209:36210   */\n      0x00\n        /* \"#utility.yul\":36198:36207   */\n      dup4\n        /* \"#utility.yul\":36194:36211   */\n      add\n        /* \"#utility.yul\":36187:36234   */\n      mstore\n        /* \"#utility.yul\":36251:36382   */\n      tag_917\n        /* \"#utility.yul\":36377:36381   */\n      dup2\n        /* \"#utility.yul\":36251:36382   */\n      tag_566\n      jump\t// in\n    tag_917:\n        /* \"#utility.yul\":36243:36382   */\n      swap1\n      pop\n        /* \"#utility.yul\":35970:36389   */\n      swap2\n      swap1\n      pop\n      jump\t// out\n        /* \"#utility.yul\":36395:36615   */\n    tag_417:\n        /* \"#utility.yul\":36487:36491   */\n      0x00\n        /* \"#utility.yul\":36525:36527   */\n      0x20\n        /* \"#utility.yul\":36514:36523   */\n      dup3\n        /* \"#utility.yul\":36510:36528   */\n      add\n        /* \"#utility.yul\":36502:36528   */\n      swap1\n      pop\n        /* \"#utility.yul\":36538:36608   */\n      tag_919\n        /* \"#utility.yul\":36605:36606   */\n      0x00\n        /* \"#utility.yul\":36594:36603   */\n      dup4\n        /* \"#utility.yul\":36590:36607   */\n      add\n        /* \"#utility.yul\":36581:36587   */\n      dup5\n        /* \"#utility.yul\":36538:36608   */\n      tag_547\n      jump\t// in\n    tag_919:\n        /* \"#utility.yul\":36395:36615   */\n      swap3\n      swap2\n      pop\n      pop\n      jump\t// out\n        /* \"#utility.yul\":36621:37257   */\n    tag_423:\n        /* \"#utility.yul\":36814:36818   */\n      0x00\n        /* \"#utility.yul\":36852:36855   */\n      0x80\n        /* \"#utility.yul\":36841:36850   */\n      dup3\n        /* \"#utility.yul\":36837:36856   */\n      add\n        /* \"#utility.yul\":36829:36856   */\n      swap1\n      pop\n        /* \"#utility.yul\":36866:36937   */\n      tag_921\n        /* \"#utility.yul\":36934:36935   */\n      0x00\n        /* \"#utility.yul\":36923:36932   */\n      dup4\n        /* \"#utility.yul\":36919:36936   */\n      add\n        /* \"#utility.yul\":36910:36916   */\n      dup8\n        /* \"#utility.yul\":36866:36937   */\n      tag_509\n      jump\t// in\n    tag_921:\n        /* \"#utility.yul\":36947:37019   */\n      tag_922\n        /* \"#utility.yul\":37015:37017   */\n      0x20\n        /* \"#utility.yul\":37004:37013   */\n      dup4\n        /* \"#utility.yul\":37000:37018   */\n      add\n        /* \"#utility.yul\":36991:36997   */\n      dup7\n        /* \"#utility.yul\":36947:37019   */\n      tag_509\n      jump\t// in\n    tag_922:\n        /* \"#utility.yul\":37029:37099   */\n      tag_923\n        /* \"#utility.yul\":37095:37097   */\n      0x40\n        /* \"#utility.yul\":37084:37093   */\n      dup4\n        /* \"#utility.yul\":37080:37098   */\n      add\n        /* \"#utility.yul\":37071:37077   */\n      dup6\n        /* \"#utility.yul\":37029:37099   */\n      tag_508\n      jump\t// in\n    tag_923:\n        /* \"#utility.yul\":37146:37155   */\n      dup2\n        /* \"#utility.yul\":37140:37144   */\n      dup2\n        /* \"#utility.yul\":37136:37156   */\n      sub\n        /* \"#utility.yul\":37131:37133   */\n      0x60\n        /* \"#utility.yul\":37120:37129   */\n      dup4\n        /* \"#utility.yul\":37116:37134   */\n      add\n        /* \"#utility.yul\":37109:37157   */\n      mstore\n        /* \"#utility.yul\":37174:37250   */\n      tag_924\n        /* \"#utility.yul\":37245:37249   */\n      dup2\n        /* \"#utility.yul\":37236:37242   */\n      dup5\n        /* \"#utility.yul\":37174:37250   */\n      tag_529\n      jump\t// in\n    tag_924:\n        /* \"#utility.yul\":37166:37250   */\n      swap1\n      pop\n        /* \"#utility.yul\":36621:37257   */\n      swap6\n      swap5\n      pop\n      pop\n      pop\n      pop\n      pop\n      jump\t// out\n        /* \"#utility.yul\":37263:37383   */\n    tag_567:\n        /* \"#utility.yul\":37335:37358   */\n      tag_926\n        /* \"#utility.yul\":37352:37357   */\n      dup2\n        /* \"#utility.yul\":37335:37358   */\n      tag_521\n      jump\t// in\n    tag_926:\n        /* \"#utility.yul\":37328:37333   */\n      dup2\n        /* \"#utility.yul\":37325:37359   */\n      eq\n        /* \"#utility.yul\":37315:37377   */\n      tag_927\n      jumpi\n        /* \"#utility.yul\":37373:37374   */\n      0x00\n        /* \"#utility.yul\":37370:37371   */\n      dup1\n        /* \"#utility.yul\":37363:37375   */\n      revert\n        /* \"#utility.yul\":37315:37377   */\n    tag_927:\n        /* \"#utility.yul\":37263:37383   */\n      pop\n      jump\t// out\n        /* \"#utility.yul\":37389:37530   */\n    tag_568:\n        /* \"#utility.yul\":37445:37450   */\n      0x00\n        /* \"#utility.yul\":37476:37482   */\n      dup2\n        /* \"#utility.yul\":37470:37483   */\n      mload\n        /* \"#utility.yul\":37461:37483   */\n      swap1\n      pop\n        /* \"#utility.yul\":37492:37524   */\n      tag_929\n        /* \"#utility.yul\":37518:37523   */\n      dup2\n        /* \"#utility.yul\":37492:37524   */\n      tag_567\n      jump\t// in\n    tag_929:\n        /* \"#utility.yul\":37389:37530   */\n      swap3\n      swap2\n      pop\n      pop\n      jump\t// out\n        /* \"#utility.yul\":37536:37885   */\n    tag_426:\n        /* \"#utility.yul\":37605:37611   */\n      0x00\n        /* \"#utility.yul\":37654:37656   */\n      0x20\n        /* \"#utility.yul\":37642:37651   */\n      dup3\n        /* \"#utility.yul\":37633:37640   */\n      dup5\n        /* \"#utility.yul\":37629:37652   */\n      sub\n        /* \"#utility.yul\":37625:37657   */\n      slt\n        /* \"#utility.yul\":37622:37741   */\n      iszero\n      tag_931\n      jumpi\n        /* \"#utility.yul\":37660:37739   */\n      tag_932\n      tag_484\n      jump\t// in\n    tag_932:\n        /* \"#utility.yul\":37622:37741   */\n    tag_931:\n        /* \"#utility.yul\":37780:37781   */\n      0x00\n        /* \"#utility.yul\":37805:37868   */\n      tag_933\n        /* \"#utility.yul\":37860:37867   */\n      dup5\n        /* \"#utility.yul\":37851:37857   */\n      dup3\n        /* \"#utility.yul\":37840:37849   */\n      dup6\n        /* \"#utility.yul\":37836:37858   */\n      add\n        /* \"#utility.yul\":37805:37868   */\n      tag_568\n      jump\t// in\n    tag_933:\n        /* \"#utility.yul\":37795:37868   */\n      swap2\n      pop\n        /* \"#utility.yul\":37751:37878   */\n      pop\n        /* \"#utility.yul\":37536:37885   */\n      swap3\n      swap2\n      pop\n      pop\n      jump\t// out\n\n    auxdata: 0xa2646970667358221220b9f059470b98d1a80a2f079113437d4dae8602fa1f822821fcea6f92856b268864736f6c63430008140033\n}\n",
				"bytecode": {
					"linkReferences": {},
					"object": "608060405234801562000010575f80fd5b5060405162003e8038038062003e8083398181016040528101906200003691906200019e565b815f806101000a81548173ffffffffffffffffffffffffffffffffffffffff021916908360601c0217905550805f60146101000a81548169ffffffffffffffffffff021916908360b01c021790555062000095620000df60201b60201c565b60015f0160066101000a81548173ffffffffffffffffffffffffffffffffffffffff021916908373ffffffffffffffffffffffffffffffffffffffff1602179055505050620001e3565b5f33905090565b5f80fd5b5f7fffffffffffffffffffffffffffffffffffffffff00000000000000000000000082169050919050565b6200012081620000ea565b81146200012b575f80fd5b50565b5f815190506200013e8162000115565b92915050565b5f7fffffffffffffffffffff0000000000000000000000000000000000000000000082169050919050565b6200017a8162000144565b811462000185575f80fd5b50565b5f8151905062000198816200016f565b92915050565b5f8060408385031215620001b757620001b6620000e6565b5b5f620001c6858286016200012e565b9250506020620001d98582860162000188565b9150509250929050565b613c8f80620001f15f395ff3fe608060405260043610610113575f3560e01c806393b871f21161009f578063d5ebe3df11610063578063d5ebe3df1461039f578063dd7d8440146103cf578063e560ca431461040b578063e985e9c514610433578063f12c2c7a1461046f57610113565b806393b871f2146102ad57806395d89b41146102e9578063a22cb46514610313578063b145ae311461033b578063b1cff3801461036357610113565b80633610feb3116100e65780633610feb3146101a75780634ec3dcfe146101e35780636e1514f11461020b57806370a082311461023557806382a7cf1e1461027157610113565b806306fdde031461011757806307394401146101415780630ab5b8cd146101695780631249c58b14610191575b5f80fd5b348015610122575f80fd5b5061012b6104ab565b6040516101389190612873565b60405180910390f35b34801561014c575f80fd5b506101676004803603810190610162919061292e565b6104bf565b005b348015610174575f80fd5b5061018f600480360381019061018a9190612af0565b6104de565b005b34801561019c575f80fd5b506101a561083d565b005b3480156101b2575f80fd5b506101cd60048036038101906101c89190612b7a565b610ddd565b6040516101da9190612bbf565b60405180910390f35b3480156101ee575f80fd5b506102096004803603810190610204919061292e565b610de3565b005b348015610216575f80fd5b5061021f61103c565b60405161022c9190612bf0565b60405180910390f35b348015610240575f80fd5b5061025b60048036038101906102569190612b7a565b611040565b6040516102689190612c18565b60405180910390f35b34801561027c575f80fd5b5061029760048036038101906102929190612c31565b611121565b6040516102a49190612c6b565b60405180910390f35b3480156102b8575f80fd5b506102d360048036038101906102ce9190612c31565b611132565b6040516102e09190612c6b565b60405180910390f35b3480156102f4575f80fd5b506102fd61117e565b60405161030a9190612cbe565b60405180910390f35b34801561031e575f80fd5b5061033960048036038101906103349190612d01565b611193565b005b348015610346575f80fd5b50610361600480360381019061035c9190612def565b61137f565b005b34801561036e575f80fd5b5061038960048036038101906103849190612ec8565b61139c565b6040516103969190612f86565b60405180910390f35b6103b960048036038101906103b49190612fda565b6113a6565b6040516103c6919061307f565b60405180910390f35b3480156103da575f80fd5b506103f560048036038101906103f09190612c31565b611753565b60405161040291906130f1565b60405180910390f35b348015610416575f80fd5b50610431600480360381019061042c9190613111565b6117bd565b005b34801561043e575f80fd5b506104596004803603810190610454919061314f565b6118e1565b6040516104669190612bbf565b60405180910390f35b34801561047a575f80fd5b506104956004803603810190610490919061318d565b611970565b6040516104a29190612bbf565b60405180910390f35b5f805f9054906101000a900460601b905090565b6104d983838360405180602001604052805f81525061137f565b505050565b60015f0160069054906101000a900473ffffffffffffffffffffffffffffffffffffffff1673ffffffffffffffffffffffffffffffffffffffff16610521611a37565b73ffffffffffffffffffffffffffffffffffffffff1614610577576040517f08c379a000000000000000000000000000000000000000000000000000000000815260040161056e9061323b565b60405180910390fd5b60015f0160049054906101000a900461ffff1661ffff168661ffff161180156105a05750428510155b6105df576040517f08c379a00000000000000000000000000000000000000000000000000000000081526004016105d6906132c9565b60405180910390fd5b805f6104b181106105f3576105f26132e7565b5b602002015161ffff1660015f0160029054906101000a900461ffff168761061a9190613341565b61ffff161461067857805f6104b18110610637576106366132e7565b5b60200201516040517fca70e27000000000000000000000000000000000000000000000000000000000815260040161066f9190612c18565b60405180910390fd5b6103e88661ffff1611156106ee575f6104b08761ffff161080156106a2575061069f61103c565b81145b6106e1576040517f08c379a00000000000000000000000000000000000000000000000000000000081526004016106d8906133e6565b60405180910390fd5b5f6106eb81611a3e565b50505b8560015f015f6101000a81548161ffff021916908361ffff160217905550846001600201819055508360015f0160066101000a81548173ffffffffffffffffffffffffffffffffffffffff021916908373ffffffffffffffffffffffffffffffffffffffff16021790555082600180015f6101000a81548173ffffffffffffffffffffffffffffffffffffffff021916908373ffffffffffffffffffffffffffffffffffffffff1602179055508160016003018190555080610a7e5f8073ffffffffffffffffffffffffffffffffffffffff1673ffffffffffffffffffffffffffffffffffffffff1681526020019081526020015f20906104b16107f3929190612781565b50848661ffff167f7f5da92c8cf80f4a196e12ba4e13abc4fd2645f0248ad338ebd76ebb4189828186868660405161082d93929190613413565b60405180910390a3505050505050565b60015f0160069054906101000a900473ffffffffffffffffffffffffffffffffffffffff1673ffffffffffffffffffffffffffffffffffffffff16610880611a37565b73ffffffffffffffffffffffffffffffffffffffff16146108d6576040517f08c379a00000000000000000000000000000000000000000000000000000000081526004016108cd90613492565b60405180910390fd5b60015f0160029054906101000a900461ffff1661ffff1660015f0160049054906101000a900461ffff1661ffff161115610d8c575f60016004016104b18060200260405190810160405280929190826104b18015610978576020028201915f905b82829054906101000a900465ffffffffffff1665ffffffffffff16815260200190600601906020826005010492830192600103820291508084116109375790505b505050505090505f600160f5016104b18060200260405190810160405280929190826104b180156109f3576020028201915b815f9054906101000a900473ffffffffffffffffffffffffffffffffffffffff1673ffffffffffffffffffffffffffffffffffffffff16815260200190600101908083116109aa575b505050505090505f60015f0160029054906101000a900461ffff1660015f0160049054906101000a900461ffff16610a2b9190613341565b90505f60015f0160029054906101000a900461ffff1660015f015f9054906101000a900461ffff16610a5d9190613341565b90505f60015f01600281819054906101000a900461ffff16610a7e906134b0565b91906101000a81548161ffff021916908361ffff160217905590505f60015f0160049054906101000a900461ffff1690505f4290505b8161ffff168361ffff1611610d4f575f83888561ffff166104b18110610add57610adc6132e7565b5b602002015165ffffffffffff16838a5f6104b18110610aff57610afe6132e7565b5b602002015165ffffffffffff16610b1691906134d9565b610b2091906134d9565b610b2a9190613539565b90505f83895f6104b18110610b4257610b416132e7565b5b60200201518a8461ffff166104b18110610b5f57610b5e6132e7565b5b6020020151610b6e9190613569565b610b789190613539565b90505f85888b8461ffff166104b18110610b9557610b946132e7565b5b60200201518c8661ffff166104b18110610bb257610bb16132e7565b5b6020020151610bc19190613569565b610bcb9190613539565b610bd591906135a2565b90505f898261ffff166104b18110610bf057610bef6132e7565b5b60200201519050898761ffff166104b18110610c0f57610c0e6132e7565b5b60200201518a8361ffff166104b18110610c2c57610c2b6132e7565b5b602002019073ffffffffffffffffffffffffffffffffffffffff16908173ffffffffffffffffffffffffffffffffffffffff1681525050808a8861ffff166104b18110610c7c57610c7b6132e7565b5b602002019073ffffffffffffffffffffffffffffffffffffffff16908173ffffffffffffffffffffffffffffffffffffffff16815250505f888c8461ffff166104b18110610ccd57610ccc6132e7565b5b60200201518d8761ffff166104b18110610cea57610ce96132e7565b5b6020020151610cf99190613569565b610d039190613539565b90505f8161ffff1603610d14578890505b610d1f82825f611a41565b89610d29906135d7565b995088610d35906135d7565b985050505050508280610d47906134b0565b935050610ab4565b60015f0160049054906101000a900461ffff1660015f0160026101000a81548161ffff021916908361ffff16021790555050505050505050610ddb565b60015f0160049054906101000a900461ffff166040517f72864e7c000000000000000000000000000000000000000000000000000000008152600401610dd29190612c18565b60405180910390fd5b565b5f919050565b5f73ffffffffffffffffffffffffffffffffffffffff168273ffffffffffffffffffffffffffffffffffffffff1603610e53575f6040517f64a0ae92000000000000000000000000000000000000000000000000000000008152600401610e4a9190612c6b565b60405180910390fd5b5f610e5d826121bf565b9050610a588261ffff166104b18110610e7957610e786132e7565b5b602091828204019190069054906101000a900460ff1615610ecf576040517f08c379a0000000000000000000000000000000000000000000000000000000008152600401610ec69061366e565b60405180910390fd5b8073ffffffffffffffffffffffffffffffffffffffff16610eee611a37565b73ffffffffffffffffffffffffffffffffffffffff161480610f1d5750610f1c81610f17611a37565b6118e1565b5b80610f625750610f2b611a37565b73ffffffffffffffffffffffffffffffffffffffff16610f4a83611132565b73ffffffffffffffffffffffffffffffffffffffff16145b610fac57610f6e611a37565b826040517f177e802f000000000000000000000000000000000000000000000000000000008152600401610fa39291906136c5565b60405180910390fd5b8373ffffffffffffffffffffffffffffffffffffffff168173ffffffffffffffffffffffffffffffffffffffff1614611020578382826040517f64283d7b000000000000000000000000000000000000000000000000000000008152600401611017939291906136ec565b60405180910390fd5b61102b5f83836122e2565b611036838383611a41565b50505050565b5f90565b5f8073ffffffffffffffffffffffffffffffffffffffff168273ffffffffffffffffffffffffffffffffffffffff16036110af576040517f08c379a00000000000000000000000000000000000000000000000000000000081526004016110a69061376b565b60405180910390fd5b610a7e5f8373ffffffffffffffffffffffffffffffffffffffff1673ffffffffffffffffffffffffffffffffffffffff1681526020019081526020015f205f6104b18110611100576110ff6132e7565b5b601091828204019190066002029054906101000a900461ffff169050919050565b5f61112b826121bf565b9050919050565b5f61113c826121bf565b50610a7f5f8361ffff1661ffff1681526020019081526020015f205f9054906101000a900473ffffffffffffffffffffffffffffffffffffffff169050919050565b5f8060149054906101000a900460b01b905090565b8173ffffffffffffffffffffffffffffffffffffffff166111b2611a37565b73ffffffffffffffffffffffffffffffffffffffff1603611208576040517f08c379a00000000000000000000000000000000000000000000000000000000081526004016111ff906137f9565b60405180910390fd5b5f73ffffffffffffffffffffffffffffffffffffffff168273ffffffffffffffffffffffffffffffffffffffff160361127857816040517f5b08ba1800000000000000000000000000000000000000000000000000000000815260040161126f9190612c6b565b60405180910390fd5b80610a805f611285611a37565b73ffffffffffffffffffffffffffffffffffffffff1673ffffffffffffffffffffffffffffffffffffffff1681526020019081526020015f205f8473ffffffffffffffffffffffffffffffffffffffff1673ffffffffffffffffffffffffffffffffffffffff1681526020019081526020015f205f6101000a81548160ff0219169083151502179055508173ffffffffffffffffffffffffffffffffffffffff1661132e611a37565b73ffffffffffffffffffffffffffffffffffffffff167f17307eab39ab6107e8899845ad3d59bd9653f200f220920489ca2b5937696c31836040516113739190612bbf565b60405180910390a35050565b61138a848484610de3565b6113968484848461239e565b50505050565b5f95945050505050565b606060015f015f9054906101000a900461ffff1661ffff1660015f0160049054906101000a900461ffff1661ffff16111580156113e857504260016002015411155b611427576040517f08c379a000000000000000000000000000000000000000000000000000000000815260040161141e90613887565b60405180910390fd5b5f73ffffffffffffffffffffffffffffffffffffffff16611446611a37565b73ffffffffffffffffffffffffffffffffffffffff161415801561148757505f61146e611a37565b73ffffffffffffffffffffffffffffffffffffffff163b145b6114c6576040517f08c379a00000000000000000000000000000000000000000000000000000000081526004016114bd9061393b565b60405180910390fd5b60016003015434101561150e576040517f08c379a0000000000000000000000000000000000000000000000000000000008152600401611505906139c9565b60405180910390fd5b5f80600180015f9054906101000a900473ffffffffffffffffffffffffffffffffffffffff1673ffffffffffffffffffffffffffffffffffffffff163460405161155790613a14565b5f6040518083038185875af1925050503d805f8114611591576040519150601f19603f3d011682016040523d82523d5f602084013e611596565b606091505b5091509150816115db576040517f08c379a00000000000000000000000000000000000000000000000000000000081526004016115d290613a72565b60405180910390fd5b60015f01600481819054906101000a900461ffff166115f9906134b0565b91906101000a81548161ffff021916908361ffff16021790555083600160040160015f0160049054906101000a900461ffff1661ffff166104b18110611642576116416132e7565b5b600591828204019190066006026101000a81548165ffffffffffff021916908365ffffffffffff1602179055508360016004015f6104b18110611688576116876132e7565b5b600591828204019190066006028282829054906101000a900465ffffffffffff166116b39190613569565b92506101000a81548165ffffffffffff021916908365ffffffffffff1602179055506116dd611a37565b600160f50160015f0160049054906101000a900461ffff1661ffff166104b1811061170b5761170a6132e7565b5b015f6101000a81548173ffffffffffffffffffffffffffffffffffffffff021916908373ffffffffffffffffffffffffffffffffffffffff1602179055508092505050919050565b606061175e826121bf565b505f611768612550565b90505f8151116117865760405180602001604052805f8152506117b5565b806117948461ffff16612566565b6040516020016117a5929190613aca565b6040516020818303038152906040525b915050919050565b5f6117c7826121bf565b90508273ffffffffffffffffffffffffffffffffffffffff168173ffffffffffffffffffffffffffffffffffffffff1603611837576040517f08c379a000000000000000000000000000000000000000000000000000000000815260040161182e906137f9565b60405180910390fd5b61183f611a37565b73ffffffffffffffffffffffffffffffffffffffff168173ffffffffffffffffffffffffffffffffffffffff1614158015611888575061188681611881611a37565b6118e1565b155b156118d157611895611a37565b6040517fa9fbf51f0000000000000000000000000000000000000000000000000000000081526004016118c89190612c6b565b60405180910390fd5b6118dc8383836122e2565b505050565b5f610a805f8473ffffffffffffffffffffffffffffffffffffffff1673ffffffffffffffffffffffffffffffffffffffff1681526020019081526020015f205f8373ffffffffffffffffffffffffffffffffffffffff1673ffffffffffffffffffffffffffffffffffffffff1681526020019081526020015f205f9054906101000a900460ff16905092915050565b5f8061197b846121bf565b90505f808273ffffffffffffffffffffffffffffffffffffffff1661199e611a37565b73ffffffffffffffffffffffffffffffffffffffff16036119c157849150611a23565b6119d16119cc611a37565b610ddd565b156119de57849050611a22565b6119e6611a37565b6040517ff7a3f9f3000000000000000000000000000000000000000000000000000000008152600401611a199190612c6b565b60405180910390fd5b5b8080611a2c5750815b935050505092915050565b5f33905090565b50565b5f610a7e5f8373ffffffffffffffffffffffffffffffffffffffff1673ffffffffffffffffffffffffffffffffffffffff1681526020019081526020015f205f6104b18110611a9357611a926132e7565b5b601091828204019190066002029054906101000a900461ffff1690505f73ffffffffffffffffffffffffffffffffffffffff168273ffffffffffffffffffffffffffffffffffffffff1614611c7b575f600190505b8161ffff168161ffff1611611c75578361ffff16610a7e5f8573ffffffffffffffffffffffffffffffffffffffff1673ffffffffffffffffffffffffffffffffffffffff1681526020019081526020015f208261ffff166104b18110611b5157611b506132e7565b5b601091828204019190066002029054906101000a900461ffff1661ffff1603611c6257610a7e5f8473ffffffffffffffffffffffffffffffffffffffff1673ffffffffffffffffffffffffffffffffffffffff1681526020019081526020015f208261ffff166104b18110611bc957611bc86132e7565b5b601091828204019190066002029054906101000a900461ffff16610a7e5f8573ffffffffffffffffffffffffffffffffffffffff1673ffffffffffffffffffffffffffffffffffffffff1681526020019081526020015f208261ffff166104b18110611c3857611c376132e7565b5b601091828204019190066002026101000a81548161ffff021916908361ffff160217905550611c75565b8080611c6d906134b0565b915050611ae8565b50611e85565b5f839050610a7e5f8473ffffffffffffffffffffffffffffffffffffffff1673ffffffffffffffffffffffffffffffffffffffff1681526020019081526020015f208161ffff166104b18110611cd457611cd36132e7565b5b601091828204019190066002029054906101000a900461ffff1693505f73ffffffffffffffffffffffffffffffffffffffff166105a78561ffff166104b18110611d2157611d206132e7565b5b015f9054906101000a900473ffffffffffffffffffffffffffffffffffffffff1673ffffffffffffffffffffffffffffffffffffffff1614611d9a57806040517f71e52b9c000000000000000000000000000000000000000000000000000000008152600401611d919190612c18565b60405180910390fd5b610a7e5f8473ffffffffffffffffffffffffffffffffffffffff1673ffffffffffffffffffffffffffffffffffffffff1681526020019081526020015f208261ffff166104b18110611def57611dee6132e7565b5b601091828204019190066002029054906101000a900461ffff16610a7e5f8573ffffffffffffffffffffffffffffffffffffffff1673ffffffffffffffffffffffffffffffffffffffff1681526020019081526020015f208261ffff166104b18110611e5e57611e5d6132e7565b5b601091828204019190066002026101000a81548161ffff021916908361ffff160217905550505b5f610a7e5f8473ffffffffffffffffffffffffffffffffffffffff1673ffffffffffffffffffffffffffffffffffffffff1681526020019081526020015f208261ffff166104b18110611edb57611eda6132e7565b5b601091828204019190066002026101000a81548161ffff021916908361ffff1602179055506001610a7e5f8473ffffffffffffffffffffffffffffffffffffffff1673ffffffffffffffffffffffffffffffffffffffff1681526020019081526020015f205f6104b18110611f5357611f526132e7565b5b601091828204019190066002028282829054906101000a900461ffff16611f7a9190613341565b92506101000a81548161ffff021916908361ffff1602179055505f6001610a7e5f8773ffffffffffffffffffffffffffffffffffffffff1673ffffffffffffffffffffffffffffffffffffffff1681526020019081526020015f205f6104b18110611fe857611fe76132e7565b5b601091828204019190066002029054906101000a900461ffff1661200c91906135a2565b905083610a7e5f8773ffffffffffffffffffffffffffffffffffffffff1673ffffffffffffffffffffffffffffffffffffffff1681526020019081526020015f208261ffff166104b18110612064576120636132e7565b5b601091828204019190066002026101000a81548161ffff021916908361ffff16021790555080610a7e5f8773ffffffffffffffffffffffffffffffffffffffff1673ffffffffffffffffffffffffffffffffffffffff1681526020019081526020015f205f6104b181106120db576120da6132e7565b5b601091828204019190066002026101000a81548161ffff021916908361ffff160217905550846105a78561ffff166104b1811061211b5761211a6132e7565b5b015f6101000a81548173ffffffffffffffffffffffffffffffffffffffff021916908373ffffffffffffffffffffffffffffffffffffffff1602179055508361ffff168573ffffffffffffffffffffffffffffffffffffffff168473ffffffffffffffffffffffffffffffffffffffff167f89896edbd223c9360ce42ddfed7522a2bffb20c056e4c42d42370cb493b6567660405160405180910390a45050505050565b5f8161ffff165f1080156121ec575060015f015f9054906101000a900461ffff1661ffff168261ffff1611155b61222b576040517f08c379a000000000000000000000000000000000000000000000000000000000815260040161222290613b83565b60405180910390fd5b5f6105a78361ffff166104b18110612246576122456132e7565b5b015f9054906101000a900473ffffffffffffffffffffffffffffffffffffffff1690505f73ffffffffffffffffffffffffffffffffffffffff168173ffffffffffffffffffffffffffffffffffffffff16036122d957826040517f7e2732890000000000000000000000000000000000000000000000000000000081526004016122d09190613ba1565b60405180910390fd5b80915050919050565b82610a7f5f8461ffff1661ffff1681526020019081526020015f205f6101000a81548173ffffffffffffffffffffffffffffffffffffffff021916908373ffffffffffffffffffffffffffffffffffffffff1602179055508161ffff168373ffffffffffffffffffffffffffffffffffffffff168273ffffffffffffffffffffffffffffffffffffffff167f0a9d294fd4bd42bb30e96cba2b478d149a783fba3c729b1e5c42bec89d95b85a60405160405180910390a4505050565b5f8373ffffffffffffffffffffffffffffffffffffffff163b111561254a578273ffffffffffffffffffffffffffffffffffffffff1663b1cff3806123e1611a37565b8685856040518563ffffffff1660e01b81526004016124039493929190613bba565b6020604051808303815f875af192505050801561243e57506040513d601f19601f8201168201806040525081019061243b9190613c2e565b60015b6124bf573d805f811461246c576040519150601f19603f3d011682016040523d82523d5f602084013e612471565b606091505b505f8151036124b757836040517f64a0ae920000000000000000000000000000000000000000000000000000000081526004016124ae9190612c6b565b60405180910390fd5b805181602001fd5b63b1cff38060e01b7bffffffffffffffffffffffffffffffffffffffffffffffffffffffff1916817bffffffffffffffffffffffffffffffffffffffffffffffffffffffff19161461254857836040517f64a0ae9200000000000000000000000000000000000000000000000000000000815260040161253f9190612c6b565b60405180910390fd5b505b50505050565b606060405180602001604052805f815250905090565b60605f600161257484612630565b0190505f8167ffffffffffffffff811115612592576125916129c5565b5b6040519080825280601f01601f1916602001820160405280156125c45781602001600182028036833780820191505090505b5090505f82602001820190505b600115612625578080600190039150507f3031323334353637383961626364656600000000000000000000000000000000600a86061a8153600a858161261a5761261961350c565b5b0494505f85036125d1575b819350505050919050565b5f805f90507a184f03e93ff9f4daa797ed6e38ed64bf6a1f010000000000000000831061268c577a184f03e93ff9f4daa797ed6e38ed64bf6a1f01000000000000000083816126825761268161350c565b5b0492506040810190505b6d04ee2d6d415b85acef810000000083106126c9576d04ee2d6d415b85acef810000000083816126bf576126be61350c565b5b0492506020810190505b662386f26fc1000083106126f857662386f26fc1000083816126ee576126ed61350c565b5b0492506010810190505b6305f5e1008310612721576305f5e10083816127175761271661350c565b5b0492506008810190505b612710831061274657612710838161273c5761273b61350c565b5b0492506004810190505b60648310612769576064838161275f5761275e61350c565b5b0492506002810190505b600a8310612778576001810190505b80915050919050565b826104b1600f0160109004810192821561280d579160200282015f5b838211156127dd57835183826101000a81548161ffff021916908361ffff160217905550926020019260020160208160010104928301926001030261279d565b801561280b5782816101000a81549061ffff02191690556002016020816001010492830192600103026127dd565b505b50905061281a919061281e565b5090565b5b80821115612835575f815f90555060010161281f565b5090565b5f7fffffffffffffffffffffffffffffffffffffffff00000000000000000000000082169050919050565b61286d81612839565b82525050565b5f6020820190506128865f830184612864565b92915050565b5f604051905090565b5f80fd5b5f80fd5b5f73ffffffffffffffffffffffffffffffffffffffff82169050919050565b5f6128c68261289d565b9050919050565b6128d6816128bc565b81146128e0575f80fd5b50565b5f813590506128f1816128cd565b92915050565b5f61ffff82169050919050565b61290d816128f7565b8114612917575f80fd5b50565b5f8135905061292881612904565b92915050565b5f805f6060848603121561294557612944612895565b5b5f612952868287016128e3565b9350506020612963868287016128e3565b92505060406129748682870161291a565b9150509250925092565b5f819050919050565b6129908161297e565b811461299a575f80fd5b50565b5f813590506129ab81612987565b92915050565b5f80fd5b5f601f19601f8301169050919050565b7f4e487b71000000000000000000000000000000000000000000000000000000005f52604160045260245ffd5b6129fb826129b5565b810181811067ffffffffffffffff82111715612a1a57612a196129c5565b5b80604052505050565b5f612a2c61288c565b9050612a3882826129f2565b919050565b5f67ffffffffffffffff821115612a5757612a566129c5565b5b602082029050919050565b5f80fd5b5f612a78612a7384612a3d565b612a23565b90508060208402830185811115612a9257612a91612a62565b5b835b81811015612abb5780612aa7888261291a565b845260208401935050602081019050612a94565b5050509392505050565b5f82601f830112612ad957612ad86129b1565b5b6104b1612ae7848285612a66565b91505092915050565b5f805f805f806196c08789031215612b0b57612b0a612895565b5b5f612b1889828a0161291a565b9650506020612b2989828a0161299d565b9550506040612b3a89828a016128e3565b9450506060612b4b89828a016128e3565b9350506080612b5c89828a0161299d565b92505060a0612b6d89828a01612ac5565b9150509295509295509295565b5f60208284031215612b8f57612b8e612895565b5b5f612b9c848285016128e3565b91505092915050565b5f8115159050919050565b612bb981612ba5565b82525050565b5f602082019050612bd25f830184612bb0565b92915050565b5f819050919050565b612bea81612bd8565b82525050565b5f602082019050612c035f830184612be1565b92915050565b612c12816128f7565b82525050565b5f602082019050612c2b5f830184612c09565b92915050565b5f60208284031215612c4657612c45612895565b5b5f612c538482850161291a565b91505092915050565b612c65816128bc565b82525050565b5f602082019050612c7e5f830184612c5c565b92915050565b5f7fffffffffffffffffffff0000000000000000000000000000000000000000000082169050919050565b612cb881612c84565b82525050565b5f602082019050612cd15f830184612caf565b92915050565b612ce081612ba5565b8114612cea575f80fd5b50565b5f81359050612cfb81612cd7565b92915050565b5f8060408385031215612d1757612d16612895565b5b5f612d24858286016128e3565b9250506020612d3585828601612ced565b9150509250929050565b5f80fd5b5f67ffffffffffffffff821115612d5d57612d5c6129c5565b5b612d66826129b5565b9050602081019050919050565b828183375f83830152505050565b5f612d93612d8e84612d43565b612a23565b905082815260208101848484011115612daf57612dae612d3f565b5b612dba848285612d73565b509392505050565b5f82601f830112612dd657612dd56129b1565b5b8135612de6848260208601612d81565b91505092915050565b5f805f8060808587031215612e0757612e06612895565b5b5f612e14878288016128e3565b9450506020612e25878288016128e3565b9350506040612e368782880161291a565b925050606085013567ffffffffffffffff811115612e5757612e56612899565b5b612e6387828801612dc2565b91505092959194509250565b5f80fd5b5f8083601f840112612e8857612e876129b1565b5b8235905067ffffffffffffffff811115612ea557612ea4612e6f565b5b602083019150836001820283011115612ec157612ec0612a62565b5b9250929050565b5f805f805f60808688031215612ee157612ee0612895565b5b5f612eee888289016128e3565b9550506020612eff888289016128e3565b9450506040612f108882890161291a565b935050606086013567ffffffffffffffff811115612f3157612f30612899565b5b612f3d88828901612e73565b92509250509295509295909350565b5f7fffffffff0000000000000000000000000000000000000000000000000000000082169050919050565b612f8081612f4c565b82525050565b5f602082019050612f995f830184612f77565b92915050565b5f65ffffffffffff82169050919050565b612fb981612f9f565b8114612fc3575f80fd5b50565b5f81359050612fd481612fb0565b92915050565b5f60208284031215612fef57612fee612895565b5b5f612ffc84828501612fc6565b91505092915050565b5f81519050919050565b5f82825260208201905092915050565b5f5b8381101561303c578082015181840152602081019050613021565b5f8484015250505050565b5f61305182613005565b61305b818561300f565b935061306b81856020860161301f565b613074816129b5565b840191505092915050565b5f6020820190508181035f8301526130978184613047565b905092915050565b5f81519050919050565b5f82825260208201905092915050565b5f6130c38261309f565b6130cd81856130a9565b93506130dd81856020860161301f565b6130e6816129b5565b840191505092915050565b5f6020820190508181035f83015261310981846130b9565b905092915050565b5f806040838503121561312757613126612895565b5b5f613134858286016128e3565b92505060206131458582860161291a565b9150509250929050565b5f806040838503121561316557613164612895565b5b5f613172858286016128e3565b9250506020613183858286016128e3565b9150509250929050565b5f80604083850312156131a3576131a2612895565b5b5f6131b08582860161291a565b92505060206131c185828601612ced565b9150509250929050565b7f596f7520646f206e6f7420686176652061636365737320746f207468697320665f8201527f756e6374696f6e00000000000000000000000000000000000000000000000000602082015250565b5f6132256027836130a9565b9150613230826131cb565b604082019050919050565b5f6020820190508181035f83015261325281613219565b9050919050565b7f54686520656e746572656420706172616d657465727320617265206e6f7420615f8201527f636365707461626c650000000000000000000000000000000000000000000000602082015250565b5f6132b36029836130a9565b91506132be82613259565b604082019050919050565b5f6020820190508181035f8301526132e0816132a7565b9050919050565b7f4e487b71000000000000000000000000000000000000000000000000000000005f52603260045260245ffd5b7f4e487b71000000000000000000000000000000000000000000000000000000005f52601160045260245ffd5b5f61334b826128f7565b9150613356836128f7565b9250828203905061ffff8111156133705761336f613314565b5b92915050565b7f596f7520646f206e6f742068617665207065726d697373696f6e20746f2075705f8201527f6772616465000000000000000000000000000000000000000000000000000000602082015250565b5f6133d06025836130a9565b91506133db82613376565b604082019050919050565b5f6020820190508181035f8301526133fd816133c4565b9050919050565b61340d8161297e565b82525050565b5f6060820190506134265f830186612c5c565b6134336020830185612c5c565b6134406040830184613404565b949350505050565b7f416363657373206f6e6c7920666f72206578656375746f7200000000000000005f82015250565b5f61347c6018836130a9565b915061348782613448565b602082019050919050565b5f6020820190508181035f8301526134a981613470565b9050919050565b5f6134ba826128f7565b915061ffff82036134ce576134cd613314565b5b600182019050919050565b5f6134e38261297e565b91506134ee8361297e565b925082820190508082111561350657613505613314565b5b92915050565b7f4e487b71000000000000000000000000000000000000000000000000000000005f52601260045260245ffd5b5f613543826128f7565b915061354e836128f7565b92508261355e5761355d61350c565b5b828206905092915050565b5f61357382612f9f565b915061357e83612f9f565b9250828201905065ffffffffffff81111561359c5761359b613314565b5b92915050565b5f6135ac826128f7565b91506135b7836128f7565b9250828201905061ffff8111156135d1576135d0613314565b5b92915050565b5f6135e1826128f7565b91505f82036135f3576135f2613314565b5b600182039050919050565b7f546865207472616e73666572206f66207468697320746f6b656e2069732063755f8201527f7272656e746c792062616e6e6564000000000000000000000000000000000000602082015250565b5f613658602e836130a9565b9150613663826135fe565b604082019050919050565b5f6020820190508181035f8301526136858161364c565b9050919050565b5f819050919050565b5f6136af6136aa6136a5846128f7565b61368c565b61297e565b9050919050565b6136bf81613695565b82525050565b5f6040820190506136d85f830185612c5c565b6136e560208301846136b6565b9392505050565b5f6060820190506136ff5f830186612c5c565b61370c60208301856136b6565b6137196040830184612c5c565b949350505050565b7f54686520696e70757420616464726573732063616e6e6f74206265207a65726f5f82015250565b5f6137556020836130a9565b915061376082613721565b602082019050919050565b5f6020820190508181035f83015261378281613749565b9050919050565b7f5468652061646472657373206f6620746865206f776e657220616e64207468655f8201527f206f70657261746f72206d75737420626520646966666572656e740000000000602082015250565b5f6137e3603b836130a9565b91506137ee82613789565b604082019050919050565b5f6020820190508181035f830152613810816137d7565b9050919050565b7f4974206973206e6f7420706f737369626c6520746f207265676973746572206e5f8201527f6f77000000000000000000000000000000000000000000000000000000000000602082015250565b5f6138716022836130a9565b915061387c82613817565b604082019050919050565b5f6020820190508181035f83015261389e81613865565b9050919050565b7f5468652061646472657373206f66207468652072656769737472616e74206d755f8201527f7374206e6f742062652030206f72207468652061646472657373206f6620612060208201527f636f6e7472616374000000000000000000000000000000000000000000000000604082015250565b5f6139256048836130a9565b9150613930826138a5565b606082019050919050565b5f6020820190508181035f83015261395281613919565b9050919050565b7f54686520616d6f756e742073686f756c64206e6f74206265206c6573732074685f8201527f616e20746865206d696e74207072696365000000000000000000000000000000602082015250565b5f6139b36031836130a9565b91506139be82613959565b604082019050919050565b5f6020820190508181035f8301526139e0816139a7565b9050919050565b5f81905092915050565b50565b5f6139ff5f836139e7565b9150613a0a826139f1565b5f82019050919050565b5f613a1e826139f4565b9150819050919050565b7f54686520616d6f756e7420776173206e6f742073656e740000000000000000005f82015250565b5f613a5c6017836130a9565b9150613a6782613a28565b602082019050919050565b5f6020820190508181035f830152613a8981613a50565b9050919050565b5f81905092915050565b5f613aa48261309f565b613aae8185613a90565b9350613abe81856020860161301f565b80840191505092915050565b5f613ad58285613a9a565b9150613ae18284613a9a565b91508190509392505050565b7f54686520494420656e746572656420697320696e76616c69642e204974206d755f8201527f737420626520696e207468697320696e74657276616c2030203c206964203c3d60208201527f206d6178696d756d206d696e7461626c6520746f6b656e730000000000000000604082015250565b5f613b6d6058836130a9565b9150613b7882613aed565b606082019050919050565b5f6020820190508181035f830152613b9a81613b61565b9050919050565b5f602082019050613bb45f8301846136b6565b92915050565b5f608082019050613bcd5f830187612c5c565b613bda6020830186612c5c565b613be76040830185612c09565b8181036060830152613bf98184613047565b905095945050505050565b613c0d81612f4c565b8114613c17575f80fd5b50565b5f81519050613c2881613c04565b92915050565b5f60208284031215613c4357613c42612895565b5b5f613c5084828501613c1a565b9150509291505056fea2646970667358221220b9f059470b98d1a80a2f079113437d4dae8602fa1f822821fcea6f92856b268864736f6c63430008140033",
					"opcodes": "PUSH1 0x80 PUSH1 0x40 MSTORE CALLVALUE DUP1 ISZERO PUSH3 0x10 JUMPI PUSH0 DUP1 REVERT JUMPDEST POP PUSH1 0x40 MLOAD PUSH3 0x3E80 CODESIZE SUB DUP1 PUSH3 0x3E80 DUP4 CODECOPY DUP2 DUP2 ADD PUSH1 0x40 MSTORE DUP2 ADD SWAP1 PUSH3 0x36 SWAP2 SWAP1 PUSH3 0x19E JUMP JUMPDEST DUP2 PUSH0 DUP1 PUSH2 0x100 EXP DUP2 SLOAD DUP2 PUSH20 0xFFFFFFFFFFFFFFFFFFFFFFFFFFFFFFFFFFFFFFFF MUL NOT AND SWAP1 DUP4 PUSH1 0x60 SHR MUL OR SWAP1 SSTORE POP DUP1 PUSH0 PUSH1 0x14 PUSH2 0x100 EXP DUP2 SLOAD DUP2 PUSH10 0xFFFFFFFFFFFFFFFFFFFF MUL NOT AND SWAP1 DUP4 PUSH1 0xB0 SHR MUL OR SWAP1 SSTORE POP PUSH3 0x95 PUSH3 0xDF PUSH1 0x20 SHL PUSH1 0x20 SHR JUMP JUMPDEST PUSH1 0x1 PUSH0 ADD PUSH1 0x6 PUSH2 0x100 EXP DUP2 SLOAD DUP2 PUSH20 0xFFFFFFFFFFFFFFFFFFFFFFFFFFFFFFFFFFFFFFFF MUL NOT AND SWAP1 DUP4 PUSH20 0xFFFFFFFFFFFFFFFFFFFFFFFFFFFFFFFFFFFFFFFF AND MUL OR SWAP1 SSTORE POP POP POP PUSH3 0x1E3 JUMP JUMPDEST PUSH0 CALLER SWAP1 POP SWAP1 JUMP JUMPDEST PUSH0 DUP1 REVERT JUMPDEST PUSH0 PUSH32 0xFFFFFFFFFFFFFFFFFFFFFFFFFFFFFFFFFFFFFFFF000000000000000000000000 DUP3 AND SWAP1 POP SWAP2 SWAP1 POP JUMP JUMPDEST PUSH3 0x120 DUP2 PUSH3 0xEA JUMP JUMPDEST DUP2 EQ PUSH3 0x12B JUMPI PUSH0 DUP1 REVERT JUMPDEST POP JUMP JUMPDEST PUSH0 DUP2 MLOAD SWAP1 POP PUSH3 0x13E DUP2 PUSH3 0x115 JUMP JUMPDEST SWAP3 SWAP2 POP POP JUMP JUMPDEST PUSH0 PUSH32 0xFFFFFFFFFFFFFFFFFFFF00000000000000000000000000000000000000000000 DUP3 AND SWAP1 POP SWAP2 SWAP1 POP JUMP JUMPDEST PUSH3 0x17A DUP2 PUSH3 0x144 JUMP JUMPDEST DUP2 EQ PUSH3 0x185 JUMPI PUSH0 DUP1 REVERT JUMPDEST POP JUMP JUMPDEST PUSH0 DUP2 MLOAD SWAP1 POP PUSH3 0x198 DUP2 PUSH3 0x16F JUMP JUMPDEST SWAP3 SWAP2 POP POP JUMP JUMPDEST PUSH0 DUP1 PUSH1 0x40 DUP4 DUP6 SUB SLT ISZERO PUSH3 0x1B7 JUMPI PUSH3 0x1B6 PUSH3 0xE6 JUMP JUMPDEST JUMPDEST PUSH0 PUSH3 0x1C6 DUP6 DUP3 DUP7 ADD PUSH3 0x12E JUMP JUMPDEST SWAP3 POP POP PUSH1 0x20 PUSH3 0x1D9 DUP6 DUP3 DUP7 ADD PUSH3 0x188 JUMP JUMPDEST SWAP2 POP POP SWAP3 POP SWAP3 SWAP1 POP JUMP JUMPDEST PUSH2 0x3C8F DUP1 PUSH3 0x1F1 PUSH0 CODECOPY PUSH0 RETURN INVALID PUSH1 0x80 PUSH1 0x40 MSTORE PUSH1 0x4 CALLDATASIZE LT PUSH2 0x113 JUMPI PUSH0 CALLDATALOAD PUSH1 0xE0 SHR DUP1 PUSH4 0x93B871F2 GT PUSH2 0x9F JUMPI DUP1 PUSH4 0xD5EBE3DF GT PUSH2 0x63 JUMPI DUP1 PUSH4 0xD5EBE3DF EQ PUSH2 0x39F JUMPI DUP1 PUSH4 0xDD7D8440 EQ PUSH2 0x3CF JUMPI DUP1 PUSH4 0xE560CA43 EQ PUSH2 0x40B JUMPI DUP1 PUSH4 0xE985E9C5 EQ PUSH2 0x433 JUMPI DUP1 PUSH4 0xF12C2C7A EQ PUSH2 0x46F JUMPI PUSH2 0x113 JUMP JUMPDEST DUP1 PUSH4 0x93B871F2 EQ PUSH2 0x2AD JUMPI DUP1 PUSH4 0x95D89B41 EQ PUSH2 0x2E9 JUMPI DUP1 PUSH4 0xA22CB465 EQ PUSH2 0x313 JUMPI DUP1 PUSH4 0xB145AE31 EQ PUSH2 0x33B JUMPI DUP1 PUSH4 0xB1CFF380 EQ PUSH2 0x363 JUMPI PUSH2 0x113 JUMP JUMPDEST DUP1 PUSH4 0x3610FEB3 GT PUSH2 0xE6 JUMPI DUP1 PUSH4 0x3610FEB3 EQ PUSH2 0x1A7 JUMPI DUP1 PUSH4 0x4EC3DCFE EQ PUSH2 0x1E3 JUMPI DUP1 PUSH4 0x6E1514F1 EQ PUSH2 0x20B JUMPI DUP1 PUSH4 0x70A08231 EQ PUSH2 0x235 JUMPI DUP1 PUSH4 0x82A7CF1E EQ PUSH2 0x271 JUMPI PUSH2 0x113 JUMP JUMPDEST DUP1 PUSH4 0x6FDDE03 EQ PUSH2 0x117 JUMPI DUP1 PUSH4 0x7394401 EQ PUSH2 0x141 JUMPI DUP1 PUSH4 0xAB5B8CD EQ PUSH2 0x169 JUMPI DUP1 PUSH4 0x1249C58B EQ PUSH2 0x191 JUMPI JUMPDEST PUSH0 DUP1 REVERT JUMPDEST CALLVALUE DUP1 ISZERO PUSH2 0x122 JUMPI PUSH0 DUP1 REVERT JUMPDEST POP PUSH2 0x12B PUSH2 0x4AB JUMP JUMPDEST PUSH1 0x40 MLOAD PUSH2 0x138 SWAP2 SWAP1 PUSH2 0x2873 JUMP JUMPDEST PUSH1 0x40 MLOAD DUP1 SWAP2 SUB SWAP1 RETURN JUMPDEST CALLVALUE DUP1 ISZERO PUSH2 0x14C JUMPI PUSH0 DUP1 REVERT JUMPDEST POP PUSH2 0x167 PUSH1 0x4 DUP1 CALLDATASIZE SUB DUP2 ADD SWAP1 PUSH2 0x162 SWAP2 SWAP1 PUSH2 0x292E JUMP JUMPDEST PUSH2 0x4BF JUMP JUMPDEST STOP JUMPDEST CALLVALUE DUP1 ISZERO PUSH2 0x174 JUMPI PUSH0 DUP1 REVERT JUMPDEST POP PUSH2 0x18F PUSH1 0x4 DUP1 CALLDATASIZE SUB DUP2 ADD SWAP1 PUSH2 0x18A SWAP2 SWAP1 PUSH2 0x2AF0 JUMP JUMPDEST PUSH2 0x4DE JUMP JUMPDEST STOP JUMPDEST CALLVALUE DUP1 ISZERO PUSH2 0x19C JUMPI PUSH0 DUP1 REVERT JUMPDEST POP PUSH2 0x1A5 PUSH2 0x83D JUMP JUMPDEST STOP JUMPDEST CALLVALUE DUP1 ISZERO PUSH2 0x1B2 JUMPI PUSH0 DUP1 REVERT JUMPDEST POP PUSH2 0x1CD PUSH1 0x4 DUP1 CALLDATASIZE SUB DUP2 ADD SWAP1 PUSH2 0x1C8 SWAP2 SWAP1 PUSH2 0x2B7A JUMP JUMPDEST PUSH2 0xDDD JUMP JUMPDEST PUSH1 0x40 MLOAD PUSH2 0x1DA SWAP2 SWAP1 PUSH2 0x2BBF JUMP JUMPDEST PUSH1 0x40 MLOAD DUP1 SWAP2 SUB SWAP1 RETURN JUMPDEST CALLVALUE DUP1 ISZERO PUSH2 0x1EE JUMPI PUSH0 DUP1 REVERT JUMPDEST POP PUSH2 0x209 PUSH1 0x4 DUP1 CALLDATASIZE SUB DUP2 ADD SWAP1 PUSH2 0x204 SWAP2 SWAP1 PUSH2 0x292E JUMP JUMPDEST PUSH2 0xDE3 JUMP JUMPDEST STOP JUMPDEST CALLVALUE DUP1 ISZERO PUSH2 0x216 JUMPI PUSH0 DUP1 REVERT JUMPDEST POP PUSH2 0x21F PUSH2 0x103C JUMP JUMPDEST PUSH1 0x40 MLOAD PUSH2 0x22C SWAP2 SWAP1 PUSH2 0x2BF0 JUMP JUMPDEST PUSH1 0x40 MLOAD DUP1 SWAP2 SUB SWAP1 RETURN JUMPDEST CALLVALUE DUP1 ISZERO PUSH2 0x240 JUMPI PUSH0 DUP1 REVERT JUMPDEST POP PUSH2 0x25B PUSH1 0x4 DUP1 CALLDATASIZE SUB DUP2 ADD SWAP1 PUSH2 0x256 SWAP2 SWAP1 PUSH2 0x2B7A JUMP JUMPDEST PUSH2 0x1040 JUMP JUMPDEST PUSH1 0x40 MLOAD PUSH2 0x268 SWAP2 SWAP1 PUSH2 0x2C18 JUMP JUMPDEST PUSH1 0x40 MLOAD DUP1 SWAP2 SUB SWAP1 RETURN JUMPDEST CALLVALUE DUP1 ISZERO PUSH2 0x27C JUMPI PUSH0 DUP1 REVERT JUMPDEST POP PUSH2 0x297 PUSH1 0x4 DUP1 CALLDATASIZE SUB DUP2 ADD SWAP1 PUSH2 0x292 SWAP2 SWAP1 PUSH2 0x2C31 JUMP JUMPDEST PUSH2 0x1121 JUMP JUMPDEST PUSH1 0x40 MLOAD PUSH2 0x2A4 SWAP2 SWAP1 PUSH2 0x2C6B JUMP JUMPDEST PUSH1 0x40 MLOAD DUP1 SWAP2 SUB SWAP1 RETURN JUMPDEST CALLVALUE DUP1 ISZERO PUSH2 0x2B8 JUMPI PUSH0 DUP1 REVERT JUMPDEST POP PUSH2 0x2D3 PUSH1 0x4 DUP1 CALLDATASIZE SUB DUP2 ADD SWAP1 PUSH2 0x2CE SWAP2 SWAP1 PUSH2 0x2C31 JUMP JUMPDEST PUSH2 0x1132 JUMP JUMPDEST PUSH1 0x40 MLOAD PUSH2 0x2E0 SWAP2 SWAP1 PUSH2 0x2C6B JUMP JUMPDEST PUSH1 0x40 MLOAD DUP1 SWAP2 SUB SWAP1 RETURN JUMPDEST CALLVALUE DUP1 ISZERO PUSH2 0x2F4 JUMPI PUSH0 DUP1 REVERT JUMPDEST POP PUSH2 0x2FD PUSH2 0x117E JUMP JUMPDEST PUSH1 0x40 MLOAD PUSH2 0x30A SWAP2 SWAP1 PUSH2 0x2CBE JUMP JUMPDEST PUSH1 0x40 MLOAD DUP1 SWAP2 SUB SWAP1 RETURN JUMPDEST CALLVALUE DUP1 ISZERO PUSH2 0x31E JUMPI PUSH0 DUP1 REVERT JUMPDEST POP PUSH2 0x339 PUSH1 0x4 DUP1 CALLDATASIZE SUB DUP2 ADD SWAP1 PUSH2 0x334 SWAP2 SWAP1 PUSH2 0x2D01 JUMP JUMPDEST PUSH2 0x1193 JUMP JUMPDEST STOP JUMPDEST CALLVALUE DUP1 ISZERO PUSH2 0x346 JUMPI PUSH0 DUP1 REVERT JUMPDEST POP PUSH2 0x361 PUSH1 0x4 DUP1 CALLDATASIZE SUB DUP2 ADD SWAP1 PUSH2 0x35C SWAP2 SWAP1 PUSH2 0x2DEF JUMP JUMPDEST PUSH2 0x137F JUMP JUMPDEST STOP JUMPDEST CALLVALUE DUP1 ISZERO PUSH2 0x36E JUMPI PUSH0 DUP1 REVERT JUMPDEST POP PUSH2 0x389 PUSH1 0x4 DUP1 CALLDATASIZE SUB DUP2 ADD SWAP1 PUSH2 0x384 SWAP2 SWAP1 PUSH2 0x2EC8 JUMP JUMPDEST PUSH2 0x139C JUMP JUMPDEST PUSH1 0x40 MLOAD PUSH2 0x396 SWAP2 SWAP1 PUSH2 0x2F86 JUMP JUMPDEST PUSH1 0x40 MLOAD DUP1 SWAP2 SUB SWAP1 RETURN JUMPDEST PUSH2 0x3B9 PUSH1 0x4 DUP1 CALLDATASIZE SUB DUP2 ADD SWAP1 PUSH2 0x3B4 SWAP2 SWAP1 PUSH2 0x2FDA JUMP JUMPDEST PUSH2 0x13A6 JUMP JUMPDEST PUSH1 0x40 MLOAD PUSH2 0x3C6 SWAP2 SWAP1 PUSH2 0x307F JUMP JUMPDEST PUSH1 0x40 MLOAD DUP1 SWAP2 SUB SWAP1 RETURN JUMPDEST CALLVALUE DUP1 ISZERO PUSH2 0x3DA JUMPI PUSH0 DUP1 REVERT JUMPDEST POP PUSH2 0x3F5 PUSH1 0x4 DUP1 CALLDATASIZE SUB DUP2 ADD SWAP1 PUSH2 0x3F0 SWAP2 SWAP1 PUSH2 0x2C31 JUMP JUMPDEST PUSH2 0x1753 JUMP JUMPDEST PUSH1 0x40 MLOAD PUSH2 0x402 SWAP2 SWAP1 PUSH2 0x30F1 JUMP JUMPDEST PUSH1 0x40 MLOAD DUP1 SWAP2 SUB SWAP1 RETURN JUMPDEST CALLVALUE DUP1 ISZERO PUSH2 0x416 JUMPI PUSH0 DUP1 REVERT JUMPDEST POP PUSH2 0x431 PUSH1 0x4 DUP1 CALLDATASIZE SUB DUP2 ADD SWAP1 PUSH2 0x42C SWAP2 SWAP1 PUSH2 0x3111 JUMP JUMPDEST PUSH2 0x17BD JUMP JUMPDEST STOP JUMPDEST CALLVALUE DUP1 ISZERO PUSH2 0x43E JUMPI PUSH0 DUP1 REVERT JUMPDEST POP PUSH2 0x459 PUSH1 0x4 DUP1 CALLDATASIZE SUB DUP2 ADD SWAP1 PUSH2 0x454 SWAP2 SWAP1 PUSH2 0x314F JUMP JUMPDEST PUSH2 0x18E1 JUMP JUMPDEST PUSH1 0x40 MLOAD PUSH2 0x466 SWAP2 SWAP1 PUSH2 0x2BBF JUMP JUMPDEST PUSH1 0x40 MLOAD DUP1 SWAP2 SUB SWAP1 RETURN JUMPDEST CALLVALUE DUP1 ISZERO PUSH2 0x47A JUMPI PUSH0 DUP1 REVERT JUMPDEST POP PUSH2 0x495 PUSH1 0x4 DUP1 CALLDATASIZE SUB DUP2 ADD SWAP1 PUSH2 0x490 SWAP2 SWAP1 PUSH2 0x318D JUMP JUMPDEST PUSH2 0x1970 JUMP JUMPDEST PUSH1 0x40 MLOAD PUSH2 0x4A2 SWAP2 SWAP1 PUSH2 0x2BBF JUMP JUMPDEST PUSH1 0x40 MLOAD DUP1 SWAP2 SUB SWAP1 RETURN JUMPDEST PUSH0 DUP1 PUSH0 SWAP1 SLOAD SWAP1 PUSH2 0x100 EXP SWAP1 DIV PUSH1 0x60 SHL SWAP1 POP SWAP1 JUMP JUMPDEST PUSH2 0x4D9 DUP4 DUP4 DUP4 PUSH1 0x40 MLOAD DUP1 PUSH1 0x20 ADD PUSH1 0x40 MSTORE DUP1 PUSH0 DUP2 MSTORE POP PUSH2 0x137F JUMP JUMPDEST POP POP POP JUMP JUMPDEST PUSH1 0x1 PUSH0 ADD PUSH1 0x6 SWAP1 SLOAD SWAP1 PUSH2 0x100 EXP SWAP1 DIV PUSH20 0xFFFFFFFFFFFFFFFFFFFFFFFFFFFFFFFFFFFFFFFF AND PUSH20 0xFFFFFFFFFFFFFFFFFFFFFFFFFFFFFFFFFFFFFFFF AND PUSH2 0x521 PUSH2 0x1A37 JUMP JUMPDEST PUSH20 0xFFFFFFFFFFFFFFFFFFFFFFFFFFFFFFFFFFFFFFFF AND EQ PUSH2 0x577 JUMPI PUSH1 0x40 MLOAD PUSH32 0x8C379A000000000000000000000000000000000000000000000000000000000 DUP2 MSTORE PUSH1 0x4 ADD PUSH2 0x56E SWAP1 PUSH2 0x323B JUMP JUMPDEST PUSH1 0x40 MLOAD DUP1 SWAP2 SUB SWAP1 REVERT JUMPDEST PUSH1 0x1 PUSH0 ADD PUSH1 0x4 SWAP1 SLOAD SWAP1 PUSH2 0x100 EXP SWAP1 DIV PUSH2 0xFFFF AND PUSH2 0xFFFF AND DUP7 PUSH2 0xFFFF AND GT DUP1 ISZERO PUSH2 0x5A0 JUMPI POP TIMESTAMP DUP6 LT ISZERO JUMPDEST PUSH2 0x5DF JUMPI PUSH1 0x40 MLOAD PUSH32 0x8C379A000000000000000000000000000000000000000000000000000000000 DUP2 MSTORE PUSH1 0x4 ADD PUSH2 0x5D6 SWAP1 PUSH2 0x32C9 JUMP JUMPDEST PUSH1 0x40 MLOAD DUP1 SWAP2 SUB SWAP1 REVERT JUMPDEST DUP1 PUSH0 PUSH2 0x4B1 DUP2 LT PUSH2 0x5F3 JUMPI PUSH2 0x5F2 PUSH2 0x32E7 JUMP JUMPDEST JUMPDEST PUSH1 0x20 MUL ADD MLOAD PUSH2 0xFFFF AND PUSH1 0x1 PUSH0 ADD PUSH1 0x2 SWAP1 SLOAD SWAP1 PUSH2 0x100 EXP SWAP1 DIV PUSH2 0xFFFF AND DUP8 PUSH2 0x61A SWAP2 SWAP1 PUSH2 0x3341 JUMP JUMPDEST PUSH2 0xFFFF AND EQ PUSH2 0x678 JUMPI DUP1 PUSH0 PUSH2 0x4B1 DUP2 LT PUSH2 0x637 JUMPI PUSH2 0x636 PUSH2 0x32E7 JUMP JUMPDEST JUMPDEST PUSH1 0x20 MUL ADD MLOAD PUSH1 0x40 MLOAD PUSH32 0xCA70E27000000000000000000000000000000000000000000000000000000000 DUP2 MSTORE PUSH1 0x4 ADD PUSH2 0x66F SWAP2 SWAP1 PUSH2 0x2C18 JUMP JUMPDEST PUSH1 0x40 MLOAD DUP1 SWAP2 SUB SWAP1 REVERT JUMPDEST PUSH2 0x3E8 DUP7 PUSH2 0xFFFF AND GT ISZERO PUSH2 0x6EE JUMPI PUSH0 PUSH2 0x4B0 DUP8 PUSH2 0xFFFF AND LT DUP1 ISZERO PUSH2 0x6A2 JUMPI POP PUSH2 0x69F PUSH2 0x103C JUMP JUMPDEST DUP2 EQ JUMPDEST PUSH2 0x6E1 JUMPI PUSH1 0x40 MLOAD PUSH32 0x8C379A000000000000000000000000000000000000000000000000000000000 DUP2 MSTORE PUSH1 0x4 ADD PUSH2 0x6D8 SWAP1 PUSH2 0x33E6 JUMP JUMPDEST PUSH1 0x40 MLOAD DUP1 SWAP2 SUB SWAP1 REVERT JUMPDEST PUSH0 PUSH2 0x6EB DUP2 PUSH2 0x1A3E JUMP JUMPDEST POP POP JUMPDEST DUP6 PUSH1 0x1 PUSH0 ADD PUSH0 PUSH2 0x100 EXP DUP2 SLOAD DUP2 PUSH2 0xFFFF MUL NOT AND SWAP1 DUP4 PUSH2 0xFFFF AND MUL OR SWAP1 SSTORE POP DUP5 PUSH1 0x1 PUSH1 0x2 ADD DUP2 SWAP1 SSTORE POP DUP4 PUSH1 0x1 PUSH0 ADD PUSH1 0x6 PUSH2 0x100 EXP DUP2 SLOAD DUP2 PUSH20 0xFFFFFFFFFFFFFFFFFFFFFFFFFFFFFFFFFFFFFFFF MUL NOT AND SWAP1 DUP4 PUSH20 0xFFFFFFFFFFFFFFFFFFFFFFFFFFFFFFFFFFFFFFFF AND MUL OR SWAP1 SSTORE POP DUP3 PUSH1 0x1 DUP1 ADD PUSH0 PUSH2 0x100 EXP DUP2 SLOAD DUP2 PUSH20 0xFFFFFFFFFFFFFFFFFFFFFFFFFFFFFFFFFFFFFFFF MUL NOT AND SWAP1 DUP4 PUSH20 0xFFFFFFFFFFFFFFFFFFFFFFFFFFFFFFFFFFFFFFFF AND MUL OR SWAP1 SSTORE POP DUP2 PUSH1 0x1 PUSH1 0x3 ADD DUP2 SWAP1 SSTORE POP DUP1 PUSH2 0xA7E PUSH0 DUP1 PUSH20 0xFFFFFFFFFFFFFFFFFFFFFFFFFFFFFFFFFFFFFFFF AND PUSH20 0xFFFFFFFFFFFFFFFFFFFFFFFFFFFFFFFFFFFFFFFF AND DUP2 MSTORE PUSH1 0x20 ADD SWAP1 DUP2 MSTORE PUSH1 0x20 ADD PUSH0 KECCAK256 SWAP1 PUSH2 0x4B1 PUSH2 0x7F3 SWAP3 SWAP2 SWAP1 PUSH2 0x2781 JUMP JUMPDEST POP DUP5 DUP7 PUSH2 0xFFFF AND PUSH32 0x7F5DA92C8CF80F4A196E12BA4E13ABC4FD2645F0248AD338EBD76EBB41898281 DUP7 DUP7 DUP7 PUSH1 0x40 MLOAD PUSH2 0x82D SWAP4 SWAP3 SWAP2 SWAP1 PUSH2 0x3413 JUMP JUMPDEST PUSH1 0x40 MLOAD DUP1 SWAP2 SUB SWAP1 LOG3 POP POP POP POP POP POP JUMP JUMPDEST PUSH1 0x1 PUSH0 ADD PUSH1 0x6 SWAP1 SLOAD SWAP1 PUSH2 0x100 EXP SWAP1 DIV PUSH20 0xFFFFFFFFFFFFFFFFFFFFFFFFFFFFFFFFFFFFFFFF AND PUSH20 0xFFFFFFFFFFFFFFFFFFFFFFFFFFFFFFFFFFFFFFFF AND PUSH2 0x880 PUSH2 0x1A37 JUMP JUMPDEST PUSH20 0xFFFFFFFFFFFFFFFFFFFFFFFFFFFFFFFFFFFFFFFF AND EQ PUSH2 0x8D6 JUMPI PUSH1 0x40 MLOAD PUSH32 0x8C379A000000000000000000000000000000000000000000000000000000000 DUP2 MSTORE PUSH1 0x4 ADD PUSH2 0x8CD SWAP1 PUSH2 0x3492 JUMP JUMPDEST PUSH1 0x40 MLOAD DUP1 SWAP2 SUB SWAP1 REVERT JUMPDEST PUSH1 0x1 PUSH0 ADD PUSH1 0x2 SWAP1 SLOAD SWAP1 PUSH2 0x100 EXP SWAP1 DIV PUSH2 0xFFFF AND PUSH2 0xFFFF AND PUSH1 0x1 PUSH0 ADD PUSH1 0x4 SWAP1 SLOAD SWAP1 PUSH2 0x100 EXP SWAP1 DIV PUSH2 0xFFFF AND PUSH2 0xFFFF AND GT ISZERO PUSH2 0xD8C JUMPI PUSH0 PUSH1 0x1 PUSH1 0x4 ADD PUSH2 0x4B1 DUP1 PUSH1 0x20 MUL PUSH1 0x40 MLOAD SWAP1 DUP2 ADD PUSH1 0x40 MSTORE DUP1 SWAP3 SWAP2 SWAP1 DUP3 PUSH2 0x4B1 DUP1 ISZERO PUSH2 0x978 JUMPI PUSH1 0x20 MUL DUP3 ADD SWAP2 PUSH0 SWAP1 JUMPDEST DUP3 DUP3 SWAP1 SLOAD SWAP1 PUSH2 0x100 EXP SWAP1 DIV PUSH6 0xFFFFFFFFFFFF AND PUSH6 0xFFFFFFFFFFFF AND DUP2 MSTORE PUSH1 0x20 ADD SWAP1 PUSH1 0x6 ADD SWAP1 PUSH1 0x20 DUP3 PUSH1 0x5 ADD DIV SWAP3 DUP4 ADD SWAP3 PUSH1 0x1 SUB DUP3 MUL SWAP2 POP DUP1 DUP5 GT PUSH2 0x937 JUMPI SWAP1 POP JUMPDEST POP POP POP POP POP SWAP1 POP PUSH0 PUSH1 0x1 PUSH1 0xF5 ADD PUSH2 0x4B1 DUP1 PUSH1 0x20 MUL PUSH1 0x40 MLOAD SWAP1 DUP2 ADD PUSH1 0x40 MSTORE DUP1 SWAP3 SWAP2 SWAP1 DUP3 PUSH2 0x4B1 DUP1 ISZERO PUSH2 0x9F3 JUMPI PUSH1 0x20 MUL DUP3 ADD SWAP2 JUMPDEST DUP2 PUSH0 SWAP1 SLOAD SWAP1 PUSH2 0x100 EXP SWAP1 DIV PUSH20 0xFFFFFFFFFFFFFFFFFFFFFFFFFFFFFFFFFFFFFFFF AND PUSH20 0xFFFFFFFFFFFFFFFFFFFFFFFFFFFFFFFFFFFFFFFF AND DUP2 MSTORE PUSH1 0x20 ADD SWAP1 PUSH1 0x1 ADD SWAP1 DUP1 DUP4 GT PUSH2 0x9AA JUMPI JUMPDEST POP POP POP POP POP SWAP1 POP PUSH0 PUSH1 0x1 PUSH0 ADD PUSH1 0x2 SWAP1 SLOAD SWAP1 PUSH2 0x100 EXP SWAP1 DIV PUSH2 0xFFFF AND PUSH1 0x1 PUSH0 ADD PUSH1 0x4 SWAP1 SLOAD SWAP1 PUSH2 0x100 EXP SWAP1 DIV PUSH2 0xFFFF AND PUSH2 0xA2B SWAP2 SWAP1 PUSH2 0x3341 JUMP JUMPDEST SWAP1 POP PUSH0 PUSH1 0x1 PUSH0 ADD PUSH1 0x2 SWAP1 SLOAD SWAP1 PUSH2 0x100 EXP SWAP1 DIV PUSH2 0xFFFF AND PUSH1 0x1 PUSH0 ADD PUSH0 SWAP1 SLOAD SWAP1 PUSH2 0x100 EXP SWAP1 DIV PUSH2 0xFFFF AND PUSH2 0xA5D SWAP2 SWAP1 PUSH2 0x3341 JUMP JUMPDEST SWAP1 POP PUSH0 PUSH1 0x1 PUSH0 ADD PUSH1 0x2 DUP2 DUP2 SWAP1 SLOAD SWAP1 PUSH2 0x100 EXP SWAP1 DIV PUSH2 0xFFFF AND PUSH2 0xA7E SWAP1 PUSH2 0x34B0 JUMP JUMPDEST SWAP2 SWAP1 PUSH2 0x100 EXP DUP2 SLOAD DUP2 PUSH2 0xFFFF MUL NOT AND SWAP1 DUP4 PUSH2 0xFFFF AND MUL OR SWAP1 SSTORE SWAP1 POP PUSH0 PUSH1 0x1 PUSH0 ADD PUSH1 0x4 SWAP1 SLOAD SWAP1 PUSH2 0x100 EXP SWAP1 DIV PUSH2 0xFFFF AND SWAP1 POP PUSH0 TIMESTAMP SWAP1 POP JUMPDEST DUP2 PUSH2 0xFFFF AND DUP4 PUSH2 0xFFFF AND GT PUSH2 0xD4F JUMPI PUSH0 DUP4 DUP9 DUP6 PUSH2 0xFFFF AND PUSH2 0x4B1 DUP2 LT PUSH2 0xADD JUMPI PUSH2 0xADC PUSH2 0x32E7 JUMP JUMPDEST JUMPDEST PUSH1 0x20 MUL ADD MLOAD PUSH6 0xFFFFFFFFFFFF AND DUP4 DUP11 PUSH0 PUSH2 0x4B1 DUP2 LT PUSH2 0xAFF JUMPI PUSH2 0xAFE PUSH2 0x32E7 JUMP JUMPDEST JUMPDEST PUSH1 0x20 MUL ADD MLOAD PUSH6 0xFFFFFFFFFFFF AND PUSH2 0xB16 SWAP2 SWAP1 PUSH2 0x34D9 JUMP JUMPDEST PUSH2 0xB20 SWAP2 SWAP1 PUSH2 0x34D9 JUMP JUMPDEST PUSH2 0xB2A SWAP2 SWAP1 PUSH2 0x3539 JUMP JUMPDEST SWAP1 POP PUSH0 DUP4 DUP10 PUSH0 PUSH2 0x4B1 DUP2 LT PUSH2 0xB42 JUMPI PUSH2 0xB41 PUSH2 0x32E7 JUMP JUMPDEST JUMPDEST PUSH1 0x20 MUL ADD MLOAD DUP11 DUP5 PUSH2 0xFFFF AND PUSH2 0x4B1 DUP2 LT PUSH2 0xB5F JUMPI PUSH2 0xB5E PUSH2 0x32E7 JUMP JUMPDEST JUMPDEST PUSH1 0x20 MUL ADD MLOAD PUSH2 0xB6E SWAP2 SWAP1 PUSH2 0x3569 JUMP JUMPDEST PUSH2 0xB78 SWAP2 SWAP1 PUSH2 0x3539 JUMP JUMPDEST SWAP1 POP PUSH0 DUP6 DUP9 DUP12 DUP5 PUSH2 0xFFFF AND PUSH2 0x4B1 DUP2 LT PUSH2 0xB95 JUMPI PUSH2 0xB94 PUSH2 0x32E7 JUMP JUMPDEST JUMPDEST PUSH1 0x20 MUL ADD MLOAD DUP13 DUP7 PUSH2 0xFFFF AND PUSH2 0x4B1 DUP2 LT PUSH2 0xBB2 JUMPI PUSH2 0xBB1 PUSH2 0x32E7 JUMP JUMPDEST JUMPDEST PUSH1 0x20 MUL ADD MLOAD PUSH2 0xBC1 SWAP2 SWAP1 PUSH2 0x3569 JUMP JUMPDEST PUSH2 0xBCB SWAP2 SWAP1 PUSH2 0x3539 JUMP JUMPDEST PUSH2 0xBD5 SWAP2 SWAP1 PUSH2 0x35A2 JUMP JUMPDEST SWAP1 POP PUSH0 DUP10 DUP3 PUSH2 0xFFFF AND PUSH2 0x4B1 DUP2 LT PUSH2 0xBF0 JUMPI PUSH2 0xBEF PUSH2 0x32E7 JUMP JUMPDEST JUMPDEST PUSH1 0x20 MUL ADD MLOAD SWAP1 POP DUP10 DUP8 PUSH2 0xFFFF AND PUSH2 0x4B1 DUP2 LT PUSH2 0xC0F JUMPI PUSH2 0xC0E PUSH2 0x32E7 JUMP JUMPDEST JUMPDEST PUSH1 0x20 MUL ADD MLOAD DUP11 DUP4 PUSH2 0xFFFF AND PUSH2 0x4B1 DUP2 LT PUSH2 0xC2C JUMPI PUSH2 0xC2B PUSH2 0x32E7 JUMP JUMPDEST JUMPDEST PUSH1 0x20 MUL ADD SWAP1 PUSH20 0xFFFFFFFFFFFFFFFFFFFFFFFFFFFFFFFFFFFFFFFF AND SWAP1 DUP2 PUSH20 0xFFFFFFFFFFFFFFFFFFFFFFFFFFFFFFFFFFFFFFFF AND DUP2 MSTORE POP POP DUP1 DUP11 DUP9 PUSH2 0xFFFF AND PUSH2 0x4B1 DUP2 LT PUSH2 0xC7C JUMPI PUSH2 0xC7B PUSH2 0x32E7 JUMP JUMPDEST JUMPDEST PUSH1 0x20 MUL ADD SWAP1 PUSH20 0xFFFFFFFFFFFFFFFFFFFFFFFFFFFFFFFFFFFFFFFF AND SWAP1 DUP2 PUSH20 0xFFFFFFFFFFFFFFFFFFFFFFFFFFFFFFFFFFFFFFFF AND DUP2 MSTORE POP POP PUSH0 DUP9 DUP13 DUP5 PUSH2 0xFFFF AND PUSH2 0x4B1 DUP2 LT PUSH2 0xCCD JUMPI PUSH2 0xCCC PUSH2 0x32E7 JUMP JUMPDEST JUMPDEST PUSH1 0x20 MUL ADD MLOAD DUP14 DUP8 PUSH2 0xFFFF AND PUSH2 0x4B1 DUP2 LT PUSH2 0xCEA JUMPI PUSH2 0xCE9 PUSH2 0x32E7 JUMP JUMPDEST JUMPDEST PUSH1 0x20 MUL ADD MLOAD PUSH2 0xCF9 SWAP2 SWAP1 PUSH2 0x3569 JUMP JUMPDEST PUSH2 0xD03 SWAP2 SWAP1 PUSH2 0x3539 JUMP JUMPDEST SWAP1 POP PUSH0 DUP2 PUSH2 0xFFFF AND SUB PUSH2 0xD14 JUMPI DUP9 SWAP1 POP JUMPDEST PUSH2 0xD1F DUP3 DUP3 PUSH0 PUSH2 0x1A41 JUMP JUMPDEST DUP10 PUSH2 0xD29 SWAP1 PUSH2 0x35D7 JUMP JUMPDEST SWAP10 POP DUP9 PUSH2 0xD35 SWAP1 PUSH2 0x35D7 JUMP JUMPDEST SWAP9 POP POP POP POP POP POP DUP3 DUP1 PUSH2 0xD47 SWAP1 PUSH2 0x34B0 JUMP JUMPDEST SWAP4 POP POP PUSH2 0xAB4 JUMP JUMPDEST PUSH1 0x1 PUSH0 ADD PUSH1 0x4 SWAP1 SLOAD SWAP1 PUSH2 0x100 EXP SWAP1 DIV PUSH2 0xFFFF AND PUSH1 0x1 PUSH0 ADD PUSH1 0x2 PUSH2 0x100 EXP DUP2 SLOAD DUP2 PUSH2 0xFFFF MUL NOT AND SWAP1 DUP4 PUSH2 0xFFFF AND MUL OR SWAP1 SSTORE POP POP POP POP POP POP POP POP PUSH2 0xDDB JUMP JUMPDEST PUSH1 0x1 PUSH0 ADD PUSH1 0x4 SWAP1 SLOAD SWAP1 PUSH2 0x100 EXP SWAP1 DIV PUSH2 0xFFFF AND PUSH1 0x40 MLOAD PUSH32 0x72864E7C00000000000000000000000000000000000000000000000000000000 DUP2 MSTORE PUSH1 0x4 ADD PUSH2 0xDD2 SWAP2 SWAP1 PUSH2 0x2C18 JUMP JUMPDEST PUSH1 0x40 MLOAD DUP1 SWAP2 SUB SWAP1 REVERT JUMPDEST JUMP JUMPDEST PUSH0 SWAP2 SWAP1 POP JUMP JUMPDEST PUSH0 PUSH20 0xFFFFFFFFFFFFFFFFFFFFFFFFFFFFFFFFFFFFFFFF AND DUP3 PUSH20 0xFFFFFFFFFFFFFFFFFFFFFFFFFFFFFFFFFFFFFFFF AND SUB PUSH2 0xE53 JUMPI PUSH0 PUSH1 0x40 MLOAD PUSH32 0x64A0AE9200000000000000000000000000000000000000000000000000000000 DUP2 MSTORE PUSH1 0x4 ADD PUSH2 0xE4A SWAP2 SWAP1 PUSH2 0x2C6B JUMP JUMPDEST PUSH1 0x40 MLOAD DUP1 SWAP2 SUB SWAP1 REVERT JUMPDEST PUSH0 PUSH2 0xE5D DUP3 PUSH2 0x21BF JUMP JUMPDEST SWAP1 POP PUSH2 0xA58 DUP3 PUSH2 0xFFFF AND PUSH2 0x4B1 DUP2 LT PUSH2 0xE79 JUMPI PUSH2 0xE78 PUSH2 0x32E7 JUMP JUMPDEST JUMPDEST PUSH1 0x20 SWAP2 DUP3 DUP3 DIV ADD SWAP2 SWAP1 MOD SWAP1 SLOAD SWAP1 PUSH2 0x100 EXP SWAP1 DIV PUSH1 0xFF AND ISZERO PUSH2 0xECF JUMPI PUSH1 0x40 MLOAD PUSH32 0x8C379A000000000000000000000000000000000000000000000000000000000 DUP2 MSTORE PUSH1 0x4 ADD PUSH2 0xEC6 SWAP1 PUSH2 0x366E JUMP JUMPDEST PUSH1 0x40 MLOAD DUP1 SWAP2 SUB SWAP1 REVERT JUMPDEST DUP1 PUSH20 0xFFFFFFFFFFFFFFFFFFFFFFFFFFFFFFFFFFFFFFFF AND PUSH2 0xEEE PUSH2 0x1A37 JUMP JUMPDEST PUSH20 0xFFFFFFFFFFFFFFFFFFFFFFFFFFFFFFFFFFFFFFFF AND EQ DUP1 PUSH2 0xF1D JUMPI POP PUSH2 0xF1C DUP2 PUSH2 0xF17 PUSH2 0x1A37 JUMP JUMPDEST PUSH2 0x18E1 JUMP JUMPDEST JUMPDEST DUP1 PUSH2 0xF62 JUMPI POP PUSH2 0xF2B PUSH2 0x1A37 JUMP JUMPDEST PUSH20 0xFFFFFFFFFFFFFFFFFFFFFFFFFFFFFFFFFFFFFFFF AND PUSH2 0xF4A DUP4 PUSH2 0x1132 JUMP JUMPDEST PUSH20 0xFFFFFFFFFFFFFFFFFFFFFFFFFFFFFFFFFFFFFFFF AND EQ JUMPDEST PUSH2 0xFAC JUMPI PUSH2 0xF6E PUSH2 0x1A37 JUMP JUMPDEST DUP3 PUSH1 0x40 MLOAD PUSH32 0x177E802F00000000000000000000000000000000000000000000000000000000 DUP2 MSTORE PUSH1 0x4 ADD PUSH2 0xFA3 SWAP3 SWAP2 SWAP1 PUSH2 0x36C5 JUMP JUMPDEST PUSH1 0x40 MLOAD DUP1 SWAP2 SUB SWAP1 REVERT JUMPDEST DUP4 PUSH20 0xFFFFFFFFFFFFFFFFFFFFFFFFFFFFFFFFFFFFFFFF AND DUP2 PUSH20 0xFFFFFFFFFFFFFFFFFFFFFFFFFFFFFFFFFFFFFFFF AND EQ PUSH2 0x1020 JUMPI DUP4 DUP3 DUP3 PUSH1 0x40 MLOAD PUSH32 0x64283D7B00000000000000000000000000000000000000000000000000000000 DUP2 MSTORE PUSH1 0x4 ADD PUSH2 0x1017 SWAP4 SWAP3 SWAP2 SWAP1 PUSH2 0x36EC JUMP JUMPDEST PUSH1 0x40 MLOAD DUP1 SWAP2 SUB SWAP1 REVERT JUMPDEST PUSH2 0x102B PUSH0 DUP4 DUP4 PUSH2 0x22E2 JUMP JUMPDEST PUSH2 0x1036 DUP4 DUP4 DUP4 PUSH2 0x1A41 JUMP JUMPDEST POP POP POP POP JUMP JUMPDEST PUSH0 SWAP1 JUMP JUMPDEST PUSH0 DUP1 PUSH20 0xFFFFFFFFFFFFFFFFFFFFFFFFFFFFFFFFFFFFFFFF AND DUP3 PUSH20 0xFFFFFFFFFFFFFFFFFFFFFFFFFFFFFFFFFFFFFFFF AND SUB PUSH2 0x10AF JUMPI PUSH1 0x40 MLOAD PUSH32 0x8C379A000000000000000000000000000000000000000000000000000000000 DUP2 MSTORE PUSH1 0x4 ADD PUSH2 0x10A6 SWAP1 PUSH2 0x376B JUMP JUMPDEST PUSH1 0x40 MLOAD DUP1 SWAP2 SUB SWAP1 REVERT JUMPDEST PUSH2 0xA7E PUSH0 DUP4 PUSH20 0xFFFFFFFFFFFFFFFFFFFFFFFFFFFFFFFFFFFFFFFF AND PUSH20 0xFFFFFFFFFFFFFFFFFFFFFFFFFFFFFFFFFFFFFFFF AND DUP2 MSTORE PUSH1 0x20 ADD SWAP1 DUP2 MSTORE PUSH1 0x20 ADD PUSH0 KECCAK256 PUSH0 PUSH2 0x4B1 DUP2 LT PUSH2 0x1100 JUMPI PUSH2 0x10FF PUSH2 0x32E7 JUMP JUMPDEST JUMPDEST PUSH1 0x10 SWAP2 DUP3 DUP3 DIV ADD SWAP2 SWAP1 MOD PUSH1 0x2 MUL SWAP1 SLOAD SWAP1 PUSH2 0x100 EXP SWAP1 DIV PUSH2 0xFFFF AND SWAP1 POP SWAP2 SWAP1 POP JUMP JUMPDEST PUSH0 PUSH2 0x112B DUP3 PUSH2 0x21BF JUMP JUMPDEST SWAP1 POP SWAP2 SWAP1 POP JUMP JUMPDEST PUSH0 PUSH2 0x113C DUP3 PUSH2 0x21BF JUMP JUMPDEST POP PUSH2 0xA7F PUSH0 DUP4 PUSH2 0xFFFF AND PUSH2 0xFFFF AND DUP2 MSTORE PUSH1 0x20 ADD SWAP1 DUP2 MSTORE PUSH1 0x20 ADD PUSH0 KECCAK256 PUSH0 SWAP1 SLOAD SWAP1 PUSH2 0x100 EXP SWAP1 DIV PUSH20 0xFFFFFFFFFFFFFFFFFFFFFFFFFFFFFFFFFFFFFFFF AND SWAP1 POP SWAP2 SWAP1 POP JUMP JUMPDEST PUSH0 DUP1 PUSH1 0x14 SWAP1 SLOAD SWAP1 PUSH2 0x100 EXP SWAP1 DIV PUSH1 0xB0 SHL SWAP1 POP SWAP1 JUMP JUMPDEST DUP2 PUSH20 0xFFFFFFFFFFFFFFFFFFFFFFFFFFFFFFFFFFFFFFFF AND PUSH2 0x11B2 PUSH2 0x1A37 JUMP JUMPDEST PUSH20 0xFFFFFFFFFFFFFFFFFFFFFFFFFFFFFFFFFFFFFFFF AND SUB PUSH2 0x1208 JUMPI PUSH1 0x40 MLOAD PUSH32 0x8C379A000000000000000000000000000000000000000000000000000000000 DUP2 MSTORE PUSH1 0x4 ADD PUSH2 0x11FF SWAP1 PUSH2 0x37F9 JUMP JUMPDEST PUSH1 0x40 MLOAD DUP1 SWAP2 SUB SWAP1 REVERT JUMPDEST PUSH0 PUSH20 0xFFFFFFFFFFFFFFFFFFFFFFFFFFFFFFFFFFFFFFFF AND DUP3 PUSH20 0xFFFFFFFFFFFFFFFFFFFFFFFFFFFFFFFFFFFFFFFF AND SUB PUSH2 0x1278 JUMPI DUP2 PUSH1 0x40 MLOAD PUSH32 0x5B08BA1800000000000000000000000000000000000000000000000000000000 DUP2 MSTORE PUSH1 0x4 ADD PUSH2 0x126F SWAP2 SWAP1 PUSH2 0x2C6B JUMP JUMPDEST PUSH1 0x40 MLOAD DUP1 SWAP2 SUB SWAP1 REVERT JUMPDEST DUP1 PUSH2 0xA80 PUSH0 PUSH2 0x1285 PUSH2 0x1A37 JUMP JUMPDEST PUSH20 0xFFFFFFFFFFFFFFFFFFFFFFFFFFFFFFFFFFFFFFFF AND PUSH20 0xFFFFFFFFFFFFFFFFFFFFFFFFFFFFFFFFFFFFFFFF AND DUP2 MSTORE PUSH1 0x20 ADD SWAP1 DUP2 MSTORE PUSH1 0x20 ADD PUSH0 KECCAK256 PUSH0 DUP5 PUSH20 0xFFFFFFFFFFFFFFFFFFFFFFFFFFFFFFFFFFFFFFFF AND PUSH20 0xFFFFFFFFFFFFFFFFFFFFFFFFFFFFFFFFFFFFFFFF AND DUP2 MSTORE PUSH1 0x20 ADD SWAP1 DUP2 MSTORE PUSH1 0x20 ADD PUSH0 KECCAK256 PUSH0 PUSH2 0x100 EXP DUP2 SLOAD DUP2 PUSH1 0xFF MUL NOT AND SWAP1 DUP4 ISZERO ISZERO MUL OR SWAP1 SSTORE POP DUP2 PUSH20 0xFFFFFFFFFFFFFFFFFFFFFFFFFFFFFFFFFFFFFFFF AND PUSH2 0x132E PUSH2 0x1A37 JUMP JUMPDEST PUSH20 0xFFFFFFFFFFFFFFFFFFFFFFFFFFFFFFFFFFFFFFFF AND PUSH32 0x17307EAB39AB6107E8899845AD3D59BD9653F200F220920489CA2B5937696C31 DUP4 PUSH1 0x40 MLOAD PUSH2 0x1373 SWAP2 SWAP1 PUSH2 0x2BBF JUMP JUMPDEST PUSH1 0x40 MLOAD DUP1 SWAP2 SUB SWAP1 LOG3 POP POP JUMP JUMPDEST PUSH2 0x138A DUP5 DUP5 DUP5 PUSH2 0xDE3 JUMP JUMPDEST PUSH2 0x1396 DUP5 DUP5 DUP5 DUP5 PUSH2 0x239E JUMP JUMPDEST POP POP POP POP JUMP JUMPDEST PUSH0 SWAP6 SWAP5 POP POP POP POP POP JUMP JUMPDEST PUSH1 0x60 PUSH1 0x1 PUSH0 ADD PUSH0 SWAP1 SLOAD SWAP1 PUSH2 0x100 EXP SWAP1 DIV PUSH2 0xFFFF AND PUSH2 0xFFFF AND PUSH1 0x1 PUSH0 ADD PUSH1 0x4 SWAP1 SLOAD SWAP1 PUSH2 0x100 EXP SWAP1 DIV PUSH2 0xFFFF AND PUSH2 0xFFFF AND GT ISZERO DUP1 ISZERO PUSH2 0x13E8 JUMPI POP TIMESTAMP PUSH1 0x1 PUSH1 0x2 ADD SLOAD GT ISZERO JUMPDEST PUSH2 0x1427 JUMPI PUSH1 0x40 MLOAD PUSH32 0x8C379A000000000000000000000000000000000000000000000000000000000 DUP2 MSTORE PUSH1 0x4 ADD PUSH2 0x141E SWAP1 PUSH2 0x3887 JUMP JUMPDEST PUSH1 0x40 MLOAD DUP1 SWAP2 SUB SWAP1 REVERT JUMPDEST PUSH0 PUSH20 0xFFFFFFFFFFFFFFFFFFFFFFFFFFFFFFFFFFFFFFFF AND PUSH2 0x1446 PUSH2 0x1A37 JUMP JUMPDEST PUSH20 0xFFFFFFFFFFFFFFFFFFFFFFFFFFFFFFFFFFFFFFFF AND EQ ISZERO DUP1 ISZERO PUSH2 0x1487 JUMPI POP PUSH0 PUSH2 0x146E PUSH2 0x1A37 JUMP JUMPDEST PUSH20 0xFFFFFFFFFFFFFFFFFFFFFFFFFFFFFFFFFFFFFFFF AND EXTCODESIZE EQ JUMPDEST PUSH2 0x14C6 JUMPI PUSH1 0x40 MLOAD PUSH32 0x8C379A000000000000000000000000000000000000000000000000000000000 DUP2 MSTORE PUSH1 0x4 ADD PUSH2 0x14BD SWAP1 PUSH2 0x393B JUMP JUMPDEST PUSH1 0x40 MLOAD DUP1 SWAP2 SUB SWAP1 REVERT JUMPDEST PUSH1 0x1 PUSH1 0x3 ADD SLOAD CALLVALUE LT ISZERO PUSH2 0x150E JUMPI PUSH1 0x40 MLOAD PUSH32 0x8C379A000000000000000000000000000000000000000000000000000000000 DUP2 MSTORE PUSH1 0x4 ADD PUSH2 0x1505 SWAP1 PUSH2 0x39C9 JUMP JUMPDEST PUSH1 0x40 MLOAD DUP1 SWAP2 SUB SWAP1 REVERT JUMPDEST PUSH0 DUP1 PUSH1 0x1 DUP1 ADD PUSH0 SWAP1 SLOAD SWAP1 PUSH2 0x100 EXP SWAP1 DIV PUSH20 0xFFFFFFFFFFFFFFFFFFFFFFFFFFFFFFFFFFFFFFFF AND PUSH20 0xFFFFFFFFFFFFFFFFFFFFFFFFFFFFFFFFFFFFFFFF AND CALLVALUE PUSH1 0x40 MLOAD PUSH2 0x1557 SWAP1 PUSH2 0x3A14 JUMP JUMPDEST PUSH0 PUSH1 0x40 MLOAD DUP1 DUP4 SUB DUP2 DUP6 DUP8 GAS CALL SWAP3 POP POP POP RETURNDATASIZE DUP1 PUSH0 DUP2 EQ PUSH2 0x1591 JUMPI PUSH1 0x40 MLOAD SWAP2 POP PUSH1 0x1F NOT PUSH1 0x3F RETURNDATASIZE ADD AND DUP3 ADD PUSH1 0x40 MSTORE RETURNDATASIZE DUP3 MSTORE RETURNDATASIZE PUSH0 PUSH1 0x20 DUP5 ADD RETURNDATACOPY PUSH2 0x1596 JUMP JUMPDEST PUSH1 0x60 SWAP2 POP JUMPDEST POP SWAP2 POP SWAP2 POP DUP2 PUSH2 0x15DB JUMPI PUSH1 0x40 MLOAD PUSH32 0x8C379A000000000000000000000000000000000000000000000000000000000 DUP2 MSTORE PUSH1 0x4 ADD PUSH2 0x15D2 SWAP1 PUSH2 0x3A72 JUMP JUMPDEST PUSH1 0x40 MLOAD DUP1 SWAP2 SUB SWAP1 REVERT JUMPDEST PUSH1 0x1 PUSH0 ADD PUSH1 0x4 DUP2 DUP2 SWAP1 SLOAD SWAP1 PUSH2 0x100 EXP SWAP1 DIV PUSH2 0xFFFF AND PUSH2 0x15F9 SWAP1 PUSH2 0x34B0 JUMP JUMPDEST SWAP2 SWAP1 PUSH2 0x100 EXP DUP2 SLOAD DUP2 PUSH2 0xFFFF MUL NOT AND SWAP1 DUP4 PUSH2 0xFFFF AND MUL OR SWAP1 SSTORE POP DUP4 PUSH1 0x1 PUSH1 0x4 ADD PUSH1 0x1 PUSH0 ADD PUSH1 0x4 SWAP1 SLOAD SWAP1 PUSH2 0x100 EXP SWAP1 DIV PUSH2 0xFFFF AND PUSH2 0xFFFF AND PUSH2 0x4B1 DUP2 LT PUSH2 0x1642 JUMPI PUSH2 0x1641 PUSH2 0x32E7 JUMP JUMPDEST JUMPDEST PUSH1 0x5 SWAP2 DUP3 DUP3 DIV ADD SWAP2 SWAP1 MOD PUSH1 0x6 MUL PUSH2 0x100 EXP DUP2 SLOAD DUP2 PUSH6 0xFFFFFFFFFFFF MUL NOT AND SWAP1 DUP4 PUSH6 0xFFFFFFFFFFFF AND MUL OR SWAP1 SSTORE POP DUP4 PUSH1 0x1 PUSH1 0x4 ADD PUSH0 PUSH2 0x4B1 DUP2 LT PUSH2 0x1688 JUMPI PUSH2 0x1687 PUSH2 0x32E7 JUMP JUMPDEST JUMPDEST PUSH1 0x5 SWAP2 DUP3 DUP3 DIV ADD SWAP2 SWAP1 MOD PUSH1 0x6 MUL DUP3 DUP3 DUP3 SWAP1 SLOAD SWAP1 PUSH2 0x100 EXP SWAP1 DIV PUSH6 0xFFFFFFFFFFFF AND PUSH2 0x16B3 SWAP2 SWAP1 PUSH2 0x3569 JUMP JUMPDEST SWAP3 POP PUSH2 0x100 EXP DUP2 SLOAD DUP2 PUSH6 0xFFFFFFFFFFFF MUL NOT AND SWAP1 DUP4 PUSH6 0xFFFFFFFFFFFF AND MUL OR SWAP1 SSTORE POP PUSH2 0x16DD PUSH2 0x1A37 JUMP JUMPDEST PUSH1 0x1 PUSH1 0xF5 ADD PUSH1 0x1 PUSH0 ADD PUSH1 0x4 SWAP1 SLOAD SWAP1 PUSH2 0x100 EXP SWAP1 DIV PUSH2 0xFFFF AND PUSH2 0xFFFF AND PUSH2 0x4B1 DUP2 LT PUSH2 0x170B JUMPI PUSH2 0x170A PUSH2 0x32E7 JUMP JUMPDEST JUMPDEST ADD PUSH0 PUSH2 0x100 EXP DUP2 SLOAD DUP2 PUSH20 0xFFFFFFFFFFFFFFFFFFFFFFFFFFFFFFFFFFFFFFFF MUL NOT AND SWAP1 DUP4 PUSH20 0xFFFFFFFFFFFFFFFFFFFFFFFFFFFFFFFFFFFFFFFF AND MUL OR SWAP1 SSTORE POP DUP1 SWAP3 POP POP POP SWAP2 SWAP1 POP JUMP JUMPDEST PUSH1 0x60 PUSH2 0x175E DUP3 PUSH2 0x21BF JUMP JUMPDEST POP PUSH0 PUSH2 0x1768 PUSH2 0x2550 JUMP JUMPDEST SWAP1 POP PUSH0 DUP2 MLOAD GT PUSH2 0x1786 JUMPI PUSH1 0x40 MLOAD DUP1 PUSH1 0x20 ADD PUSH1 0x40 MSTORE DUP1 PUSH0 DUP2 MSTORE POP PUSH2 0x17B5 JUMP JUMPDEST DUP1 PUSH2 0x1794 DUP5 PUSH2 0xFFFF AND PUSH2 0x2566 JUMP JUMPDEST PUSH1 0x40 MLOAD PUSH1 0x20 ADD PUSH2 0x17A5 SWAP3 SWAP2 SWAP1 PUSH2 0x3ACA JUMP JUMPDEST PUSH1 0x40 MLOAD PUSH1 0x20 DUP2 DUP4 SUB SUB DUP2 MSTORE SWAP1 PUSH1 0x40 MSTORE JUMPDEST SWAP2 POP POP SWAP2 SWAP1 POP JUMP JUMPDEST PUSH0 PUSH2 0x17C7 DUP3 PUSH2 0x21BF JUMP JUMPDEST SWAP1 POP DUP3 PUSH20 0xFFFFFFFFFFFFFFFFFFFFFFFFFFFFFFFFFFFFFFFF AND DUP2 PUSH20 0xFFFFFFFFFFFFFFFFFFFFFFFFFFFFFFFFFFFFFFFF AND SUB PUSH2 0x1837 JUMPI PUSH1 0x40 MLOAD PUSH32 0x8C379A000000000000000000000000000000000000000000000000000000000 DUP2 MSTORE PUSH1 0x4 ADD PUSH2 0x182E SWAP1 PUSH2 0x37F9 JUMP JUMPDEST PUSH1 0x40 MLOAD DUP1 SWAP2 SUB SWAP1 REVERT JUMPDEST PUSH2 0x183F PUSH2 0x1A37 JUMP JUMPDEST PUSH20 0xFFFFFFFFFFFFFFFFFFFFFFFFFFFFFFFFFFFFFFFF AND DUP2 PUSH20 0xFFFFFFFFFFFFFFFFFFFFFFFFFFFFFFFFFFFFFFFF AND EQ ISZERO DUP1 ISZERO PUSH2 0x1888 JUMPI POP PUSH2 0x1886 DUP2 PUSH2 0x1881 PUSH2 0x1A37 JUMP JUMPDEST PUSH2 0x18E1 JUMP JUMPDEST ISZERO JUMPDEST ISZERO PUSH2 0x18D1 JUMPI PUSH2 0x1895 PUSH2 0x1A37 JUMP JUMPDEST PUSH1 0x40 MLOAD PUSH32 0xA9FBF51F00000000000000000000000000000000000000000000000000000000 DUP2 MSTORE PUSH1 0x4 ADD PUSH2 0x18C8 SWAP2 SWAP1 PUSH2 0x2C6B JUMP JUMPDEST PUSH1 0x40 MLOAD DUP1 SWAP2 SUB SWAP1 REVERT JUMPDEST PUSH2 0x18DC DUP4 DUP4 DUP4 PUSH2 0x22E2 JUMP JUMPDEST POP POP POP JUMP JUMPDEST PUSH0 PUSH2 0xA80 PUSH0 DUP5 PUSH20 0xFFFFFFFFFFFFFFFFFFFFFFFFFFFFFFFFFFFFFFFF AND PUSH20 0xFFFFFFFFFFFFFFFFFFFFFFFFFFFFFFFFFFFFFFFF AND DUP2 MSTORE PUSH1 0x20 ADD SWAP1 DUP2 MSTORE PUSH1 0x20 ADD PUSH0 KECCAK256 PUSH0 DUP4 PUSH20 0xFFFFFFFFFFFFFFFFFFFFFFFFFFFFFFFFFFFFFFFF AND PUSH20 0xFFFFFFFFFFFFFFFFFFFFFFFFFFFFFFFFFFFFFFFF AND DUP2 MSTORE PUSH1 0x20 ADD SWAP1 DUP2 MSTORE PUSH1 0x20 ADD PUSH0 KECCAK256 PUSH0 SWAP1 SLOAD SWAP1 PUSH2 0x100 EXP SWAP1 DIV PUSH1 0xFF AND SWAP1 POP SWAP3 SWAP2 POP POP JUMP JUMPDEST PUSH0 DUP1 PUSH2 0x197B DUP5 PUSH2 0x21BF JUMP JUMPDEST SWAP1 POP PUSH0 DUP1 DUP3 PUSH20 0xFFFFFFFFFFFFFFFFFFFFFFFFFFFFFFFFFFFFFFFF AND PUSH2 0x199E PUSH2 0x1A37 JUMP JUMPDEST PUSH20 0xFFFFFFFFFFFFFFFFFFFFFFFFFFFFFFFFFFFFFFFF AND SUB PUSH2 0x19C1 JUMPI DUP5 SWAP2 POP PUSH2 0x1A23 JUMP JUMPDEST PUSH2 0x19D1 PUSH2 0x19CC PUSH2 0x1A37 JUMP JUMPDEST PUSH2 0xDDD JUMP JUMPDEST ISZERO PUSH2 0x19DE JUMPI DUP5 SWAP1 POP PUSH2 0x1A22 JUMP JUMPDEST PUSH2 0x19E6 PUSH2 0x1A37 JUMP JUMPDEST PUSH1 0x40 MLOAD PUSH32 0xF7A3F9F300000000000000000000000000000000000000000000000000000000 DUP2 MSTORE PUSH1 0x4 ADD PUSH2 0x1A19 SWAP2 SWAP1 PUSH2 0x2C6B JUMP JUMPDEST PUSH1 0x40 MLOAD DUP1 SWAP2 SUB SWAP1 REVERT JUMPDEST JUMPDEST DUP1 DUP1 PUSH2 0x1A2C JUMPI POP DUP2 JUMPDEST SWAP4 POP POP POP POP SWAP3 SWAP2 POP POP JUMP JUMPDEST PUSH0 CALLER SWAP1 POP SWAP1 JUMP JUMPDEST POP JUMP JUMPDEST PUSH0 PUSH2 0xA7E PUSH0 DUP4 PUSH20 0xFFFFFFFFFFFFFFFFFFFFFFFFFFFFFFFFFFFFFFFF AND PUSH20 0xFFFFFFFFFFFFFFFFFFFFFFFFFFFFFFFFFFFFFFFF AND DUP2 MSTORE PUSH1 0x20 ADD SWAP1 DUP2 MSTORE PUSH1 0x20 ADD PUSH0 KECCAK256 PUSH0 PUSH2 0x4B1 DUP2 LT PUSH2 0x1A93 JUMPI PUSH2 0x1A92 PUSH2 0x32E7 JUMP JUMPDEST JUMPDEST PUSH1 0x10 SWAP2 DUP3 DUP3 DIV ADD SWAP2 SWAP1 MOD PUSH1 0x2 MUL SWAP1 SLOAD SWAP1 PUSH2 0x100 EXP SWAP1 DIV PUSH2 0xFFFF AND SWAP1 POP PUSH0 PUSH20 0xFFFFFFFFFFFFFFFFFFFFFFFFFFFFFFFFFFFFFFFF AND DUP3 PUSH20 0xFFFFFFFFFFFFFFFFFFFFFFFFFFFFFFFFFFFFFFFF AND EQ PUSH2 0x1C7B JUMPI PUSH0 PUSH1 0x1 SWAP1 POP JUMPDEST DUP2 PUSH2 0xFFFF AND DUP2 PUSH2 0xFFFF AND GT PUSH2 0x1C75 JUMPI DUP4 PUSH2 0xFFFF AND PUSH2 0xA7E PUSH0 DUP6 PUSH20 0xFFFFFFFFFFFFFFFFFFFFFFFFFFFFFFFFFFFFFFFF AND PUSH20 0xFFFFFFFFFFFFFFFFFFFFFFFFFFFFFFFFFFFFFFFF AND DUP2 MSTORE PUSH1 0x20 ADD SWAP1 DUP2 MSTORE PUSH1 0x20 ADD PUSH0 KECCAK256 DUP3 PUSH2 0xFFFF AND PUSH2 0x4B1 DUP2 LT PUSH2 0x1B51 JUMPI PUSH2 0x1B50 PUSH2 0x32E7 JUMP JUMPDEST JUMPDEST PUSH1 0x10 SWAP2 DUP3 DUP3 DIV ADD SWAP2 SWAP1 MOD PUSH1 0x2 MUL SWAP1 SLOAD SWAP1 PUSH2 0x100 EXP SWAP1 DIV PUSH2 0xFFFF AND PUSH2 0xFFFF AND SUB PUSH2 0x1C62 JUMPI PUSH2 0xA7E PUSH0 DUP5 PUSH20 0xFFFFFFFFFFFFFFFFFFFFFFFFFFFFFFFFFFFFFFFF AND PUSH20 0xFFFFFFFFFFFFFFFFFFFFFFFFFFFFFFFFFFFFFFFF AND DUP2 MSTORE PUSH1 0x20 ADD SWAP1 DUP2 MSTORE PUSH1 0x20 ADD PUSH0 KECCAK256 DUP3 PUSH2 0xFFFF AND PUSH2 0x4B1 DUP2 LT PUSH2 0x1BC9 JUMPI PUSH2 0x1BC8 PUSH2 0x32E7 JUMP JUMPDEST JUMPDEST PUSH1 0x10 SWAP2 DUP3 DUP3 DIV ADD SWAP2 SWAP1 MOD PUSH1 0x2 MUL SWAP1 SLOAD SWAP1 PUSH2 0x100 EXP SWAP1 DIV PUSH2 0xFFFF AND PUSH2 0xA7E PUSH0 DUP6 PUSH20 0xFFFFFFFFFFFFFFFFFFFFFFFFFFFFFFFFFFFFFFFF AND PUSH20 0xFFFFFFFFFFFFFFFFFFFFFFFFFFFFFFFFFFFFFFFF AND DUP2 MSTORE PUSH1 0x20 ADD SWAP1 DUP2 MSTORE PUSH1 0x20 ADD PUSH0 KECCAK256 DUP3 PUSH2 0xFFFF AND PUSH2 0x4B1 DUP2 LT PUSH2 0x1C38 JUMPI PUSH2 0x1C37 PUSH2 0x32E7 JUMP JUMPDEST JUMPDEST PUSH1 0x10 SWAP2 DUP3 DUP3 DIV ADD SWAP2 SWAP1 MOD PUSH1 0x2 MUL PUSH2 0x100 EXP DUP2 SLOAD DUP2 PUSH2 0xFFFF MUL NOT AND SWAP1 DUP4 PUSH2 0xFFFF AND MUL OR SWAP1 SSTORE POP PUSH2 0x1C75 JUMP JUMPDEST DUP1 DUP1 PUSH2 0x1C6D SWAP1 PUSH2 0x34B0 JUMP JUMPDEST SWAP2 POP POP PUSH2 0x1AE8 JUMP JUMPDEST POP PUSH2 0x1E85 JUMP JUMPDEST PUSH0 DUP4 SWAP1 POP PUSH2 0xA7E PUSH0 DUP5 PUSH20 0xFFFFFFFFFFFFFFFFFFFFFFFFFFFFFFFFFFFFFFFF AND PUSH20 0xFFFFFFFFFFFFFFFFFFFFFFFFFFFFFFFFFFFFFFFF AND DUP2 MSTORE PUSH1 0x20 ADD SWAP1 DUP2 MSTORE PUSH1 0x20 ADD PUSH0 KECCAK256 DUP2 PUSH2 0xFFFF AND PUSH2 0x4B1 DUP2 LT PUSH2 0x1CD4 JUMPI PUSH2 0x1CD3 PUSH2 0x32E7 JUMP JUMPDEST JUMPDEST PUSH1 0x10 SWAP2 DUP3 DUP3 DIV ADD SWAP2 SWAP1 MOD PUSH1 0x2 MUL SWAP1 SLOAD SWAP1 PUSH2 0x100 EXP SWAP1 DIV PUSH2 0xFFFF AND SWAP4 POP PUSH0 PUSH20 0xFFFFFFFFFFFFFFFFFFFFFFFFFFFFFFFFFFFFFFFF AND PUSH2 0x5A7 DUP6 PUSH2 0xFFFF AND PUSH2 0x4B1 DUP2 LT PUSH2 0x1D21 JUMPI PUSH2 0x1D20 PUSH2 0x32E7 JUMP JUMPDEST JUMPDEST ADD PUSH0 SWAP1 SLOAD SWAP1 PUSH2 0x100 EXP SWAP1 DIV PUSH20 0xFFFFFFFFFFFFFFFFFFFFFFFFFFFFFFFFFFFFFFFF AND PUSH20 0xFFFFFFFFFFFFFFFFFFFFFFFFFFFFFFFFFFFFFFFF AND EQ PUSH2 0x1D9A JUMPI DUP1 PUSH1 0x40 MLOAD PUSH32 0x71E52B9C00000000000000000000000000000000000000000000000000000000 DUP2 MSTORE PUSH1 0x4 ADD PUSH2 0x1D91 SWAP2 SWAP1 PUSH2 0x2C18 JUMP JUMPDEST PUSH1 0x40 MLOAD DUP1 SWAP2 SUB SWAP1 REVERT JUMPDEST PUSH2 0xA7E PUSH0 DUP5 PUSH20 0xFFFFFFFFFFFFFFFFFFFFFFFFFFFFFFFFFFFFFFFF AND PUSH20 0xFFFFFFFFFFFFFFFFFFFFFFFFFFFFFFFFFFFFFFFF AND DUP2 MSTORE PUSH1 0x20 ADD SWAP1 DUP2 MSTORE PUSH1 0x20 ADD PUSH0 KECCAK256 DUP3 PUSH2 0xFFFF AND PUSH2 0x4B1 DUP2 LT PUSH2 0x1DEF JUMPI PUSH2 0x1DEE PUSH2 0x32E7 JUMP JUMPDEST JUMPDEST PUSH1 0x10 SWAP2 DUP3 DUP3 DIV ADD SWAP2 SWAP1 MOD PUSH1 0x2 MUL SWAP1 SLOAD SWAP1 PUSH2 0x100 EXP SWAP1 DIV PUSH2 0xFFFF AND PUSH2 0xA7E PUSH0 DUP6 PUSH20 0xFFFFFFFFFFFFFFFFFFFFFFFFFFFFFFFFFFFFFFFF AND PUSH20 0xFFFFFFFFFFFFFFFFFFFFFFFFFFFFFFFFFFFFFFFF AND DUP2 MSTORE PUSH1 0x20 ADD SWAP1 DUP2 MSTORE PUSH1 0x20 ADD PUSH0 KECCAK256 DUP3 PUSH2 0xFFFF AND PUSH2 0x4B1 DUP2 LT PUSH2 0x1E5E JUMPI PUSH2 0x1E5D PUSH2 0x32E7 JUMP JUMPDEST JUMPDEST PUSH1 0x10 SWAP2 DUP3 DUP3 DIV ADD SWAP2 SWAP1 MOD PUSH1 0x2 MUL PUSH2 0x100 EXP DUP2 SLOAD DUP2 PUSH2 0xFFFF MUL NOT AND SWAP1 DUP4 PUSH2 0xFFFF AND MUL OR SWAP1 SSTORE POP POP JUMPDEST PUSH0 PUSH2 0xA7E PUSH0 DUP5 PUSH20 0xFFFFFFFFFFFFFFFFFFFFFFFFFFFFFFFFFFFFFFFF AND PUSH20 0xFFFFFFFFFFFFFFFFFFFFFFFFFFFFFFFFFFFFFFFF AND DUP2 MSTORE PUSH1 0x20 ADD SWAP1 DUP2 MSTORE PUSH1 0x20 ADD PUSH0 KECCAK256 DUP3 PUSH2 0xFFFF AND PUSH2 0x4B1 DUP2 LT PUSH2 0x1EDB JUMPI PUSH2 0x1EDA PUSH2 0x32E7 JUMP JUMPDEST JUMPDEST PUSH1 0x10 SWAP2 DUP3 DUP3 DIV ADD SWAP2 SWAP1 MOD PUSH1 0x2 MUL PUSH2 0x100 EXP DUP2 SLOAD DUP2 PUSH2 0xFFFF MUL NOT AND SWAP1 DUP4 PUSH2 0xFFFF AND MUL OR SWAP1 SSTORE POP PUSH1 0x1 PUSH2 0xA7E PUSH0 DUP5 PUSH20 0xFFFFFFFFFFFFFFFFFFFFFFFFFFFFFFFFFFFFFFFF AND PUSH20 0xFFFFFFFFFFFFFFFFFFFFFFFFFFFFFFFFFFFFFFFF AND DUP2 MSTORE PUSH1 0x20 ADD SWAP1 DUP2 MSTORE PUSH1 0x20 ADD PUSH0 KECCAK256 PUSH0 PUSH2 0x4B1 DUP2 LT PUSH2 0x1F53 JUMPI PUSH2 0x1F52 PUSH2 0x32E7 JUMP JUMPDEST JUMPDEST PUSH1 0x10 SWAP2 DUP3 DUP3 DIV ADD SWAP2 SWAP1 MOD PUSH1 0x2 MUL DUP3 DUP3 DUP3 SWAP1 SLOAD SWAP1 PUSH2 0x100 EXP SWAP1 DIV PUSH2 0xFFFF AND PUSH2 0x1F7A SWAP2 SWAP1 PUSH2 0x3341 JUMP JUMPDEST SWAP3 POP PUSH2 0x100 EXP DUP2 SLOAD DUP2 PUSH2 0xFFFF MUL NOT AND SWAP1 DUP4 PUSH2 0xFFFF AND MUL OR SWAP1 SSTORE POP PUSH0 PUSH1 0x1 PUSH2 0xA7E PUSH0 DUP8 PUSH20 0xFFFFFFFFFFFFFFFFFFFFFFFFFFFFFFFFFFFFFFFF AND PUSH20 0xFFFFFFFFFFFFFFFFFFFFFFFFFFFFFFFFFFFFFFFF AND DUP2 MSTORE PUSH1 0x20 ADD SWAP1 DUP2 MSTORE PUSH1 0x20 ADD PUSH0 KECCAK256 PUSH0 PUSH2 0x4B1 DUP2 LT PUSH2 0x1FE8 JUMPI PUSH2 0x1FE7 PUSH2 0x32E7 JUMP JUMPDEST JUMPDEST PUSH1 0x10 SWAP2 DUP3 DUP3 DIV ADD SWAP2 SWAP1 MOD PUSH1 0x2 MUL SWAP1 SLOAD SWAP1 PUSH2 0x100 EXP SWAP1 DIV PUSH2 0xFFFF AND PUSH2 0x200C SWAP2 SWAP1 PUSH2 0x35A2 JUMP JUMPDEST SWAP1 POP DUP4 PUSH2 0xA7E PUSH0 DUP8 PUSH20 0xFFFFFFFFFFFFFFFFFFFFFFFFFFFFFFFFFFFFFFFF AND PUSH20 0xFFFFFFFFFFFFFFFFFFFFFFFFFFFFFFFFFFFFFFFF AND DUP2 MSTORE PUSH1 0x20 ADD SWAP1 DUP2 MSTORE PUSH1 0x20 ADD PUSH0 KECCAK256 DUP3 PUSH2 0xFFFF AND PUSH2 0x4B1 DUP2 LT PUSH2 0x2064 JUMPI PUSH2 0x2063 PUSH2 0x32E7 JUMP JUMPDEST JUMPDEST PUSH1 0x10 SWAP2 DUP3 DUP3 DIV ADD SWAP2 SWAP1 MOD PUSH1 0x2 MUL PUSH2 0x100 EXP DUP2 SLOAD DUP2 PUSH2 0xFFFF MUL NOT AND SWAP1 DUP4 PUSH2 0xFFFF AND MUL OR SWAP1 SSTORE POP DUP1 PUSH2 0xA7E PUSH0 DUP8 PUSH20 0xFFFFFFFFFFFFFFFFFFFFFFFFFFFFFFFFFFFFFFFF AND PUSH20 0xFFFFFFFFFFFFFFFFFFFFFFFFFFFFFFFFFFFFFFFF AND DUP2 MSTORE PUSH1 0x20 ADD SWAP1 DUP2 MSTORE PUSH1 0x20 ADD PUSH0 KECCAK256 PUSH0 PUSH2 0x4B1 DUP2 LT PUSH2 0x20DB JUMPI PUSH2 0x20DA PUSH2 0x32E7 JUMP JUMPDEST JUMPDEST PUSH1 0x10 SWAP2 DUP3 DUP3 DIV ADD SWAP2 SWAP1 MOD PUSH1 0x2 MUL PUSH2 0x100 EXP DUP2 SLOAD DUP2 PUSH2 0xFFFF MUL NOT AND SWAP1 DUP4 PUSH2 0xFFFF AND MUL OR SWAP1 SSTORE POP DUP5 PUSH2 0x5A7 DUP6 PUSH2 0xFFFF AND PUSH2 0x4B1 DUP2 LT PUSH2 0x211B JUMPI PUSH2 0x211A PUSH2 0x32E7 JUMP JUMPDEST JUMPDEST ADD PUSH0 PUSH2 0x100 EXP DUP2 SLOAD DUP2 PUSH20 0xFFFFFFFFFFFFFFFFFFFFFFFFFFFFFFFFFFFFFFFF MUL NOT AND SWAP1 DUP4 PUSH20 0xFFFFFFFFFFFFFFFFFFFFFFFFFFFFFFFFFFFFFFFF AND MUL OR SWAP1 SSTORE POP DUP4 PUSH2 0xFFFF AND DUP6 PUSH20 0xFFFFFFFFFFFFFFFFFFFFFFFFFFFFFFFFFFFFFFFF AND DUP5 PUSH20 0xFFFFFFFFFFFFFFFFFFFFFFFFFFFFFFFFFFFFFFFF AND PUSH32 0x89896EDBD223C9360CE42DDFED7522A2BFFB20C056E4C42D42370CB493B65676 PUSH1 0x40 MLOAD PUSH1 0x40 MLOAD DUP1 SWAP2 SUB SWAP1 LOG4 POP POP POP POP POP JUMP JUMPDEST PUSH0 DUP2 PUSH2 0xFFFF AND PUSH0 LT DUP1 ISZERO PUSH2 0x21EC JUMPI POP PUSH1 0x1 PUSH0 ADD PUSH0 SWAP1 SLOAD SWAP1 PUSH2 0x100 EXP SWAP1 DIV PUSH2 0xFFFF AND PUSH2 0xFFFF AND DUP3 PUSH2 0xFFFF AND GT ISZERO JUMPDEST PUSH2 0x222B JUMPI PUSH1 0x40 MLOAD PUSH32 0x8C379A000000000000000000000000000000000000000000000000000000000 DUP2 MSTORE PUSH1 0x4 ADD PUSH2 0x2222 SWAP1 PUSH2 0x3B83 JUMP JUMPDEST PUSH1 0x40 MLOAD DUP1 SWAP2 SUB SWAP1 REVERT JUMPDEST PUSH0 PUSH2 0x5A7 DUP4 PUSH2 0xFFFF AND PUSH2 0x4B1 DUP2 LT PUSH2 0x2246 JUMPI PUSH2 0x2245 PUSH2 0x32E7 JUMP JUMPDEST JUMPDEST ADD PUSH0 SWAP1 SLOAD SWAP1 PUSH2 0x100 EXP SWAP1 DIV PUSH20 0xFFFFFFFFFFFFFFFFFFFFFFFFFFFFFFFFFFFFFFFF AND SWAP1 POP PUSH0 PUSH20 0xFFFFFFFFFFFFFFFFFFFFFFFFFFFFFFFFFFFFFFFF AND DUP2 PUSH20 0xFFFFFFFFFFFFFFFFFFFFFFFFFFFFFFFFFFFFFFFF AND SUB PUSH2 0x22D9 JUMPI DUP3 PUSH1 0x40 MLOAD PUSH32 0x7E27328900000000000000000000000000000000000000000000000000000000 DUP2 MSTORE PUSH1 0x4 ADD PUSH2 0x22D0 SWAP2 SWAP1 PUSH2 0x3BA1 JUMP JUMPDEST PUSH1 0x40 MLOAD DUP1 SWAP2 SUB SWAP1 REVERT JUMPDEST DUP1 SWAP2 POP POP SWAP2 SWAP1 POP JUMP JUMPDEST DUP3 PUSH2 0xA7F PUSH0 DUP5 PUSH2 0xFFFF AND PUSH2 0xFFFF AND DUP2 MSTORE PUSH1 0x20 ADD SWAP1 DUP2 MSTORE PUSH1 0x20 ADD PUSH0 KECCAK256 PUSH0 PUSH2 0x100 EXP DUP2 SLOAD DUP2 PUSH20 0xFFFFFFFFFFFFFFFFFFFFFFFFFFFFFFFFFFFFFFFF MUL NOT AND SWAP1 DUP4 PUSH20 0xFFFFFFFFFFFFFFFFFFFFFFFFFFFFFFFFFFFFFFFF AND MUL OR SWAP1 SSTORE POP DUP2 PUSH2 0xFFFF AND DUP4 PUSH20 0xFFFFFFFFFFFFFFFFFFFFFFFFFFFFFFFFFFFFFFFF AND DUP3 PUSH20 0xFFFFFFFFFFFFFFFFFFFFFFFFFFFFFFFFFFFFFFFF AND PUSH32 0xA9D294FD4BD42BB30E96CBA2B478D149A783FBA3C729B1E5C42BEC89D95B85A PUSH1 0x40 MLOAD PUSH1 0x40 MLOAD DUP1 SWAP2 SUB SWAP1 LOG4 POP POP POP JUMP JUMPDEST PUSH0 DUP4 PUSH20 0xFFFFFFFFFFFFFFFFFFFFFFFFFFFFFFFFFFFFFFFF AND EXTCODESIZE GT ISZERO PUSH2 0x254A JUMPI DUP3 PUSH20 0xFFFFFFFFFFFFFFFFFFFFFFFFFFFFFFFFFFFFFFFF AND PUSH4 0xB1CFF380 PUSH2 0x23E1 PUSH2 0x1A37 JUMP JUMPDEST DUP7 DUP6 DUP6 PUSH1 0x40 MLOAD DUP6 PUSH4 0xFFFFFFFF AND PUSH1 0xE0 SHL DUP2 MSTORE PUSH1 0x4 ADD PUSH2 0x2403 SWAP5 SWAP4 SWAP3 SWAP2 SWAP1 PUSH2 0x3BBA JUMP JUMPDEST PUSH1 0x20 PUSH1 0x40 MLOAD DUP1 DUP4 SUB DUP2 PUSH0 DUP8 GAS CALL SWAP3 POP POP POP DUP1 ISZERO PUSH2 0x243E JUMPI POP PUSH1 0x40 MLOAD RETURNDATASIZE PUSH1 0x1F NOT PUSH1 0x1F DUP3 ADD AND DUP3 ADD DUP1 PUSH1 0x40 MSTORE POP DUP2 ADD SWAP1 PUSH2 0x243B SWAP2 SWAP1 PUSH2 0x3C2E JUMP JUMPDEST PUSH1 0x1 JUMPDEST PUSH2 0x24BF JUMPI RETURNDATASIZE DUP1 PUSH0 DUP2 EQ PUSH2 0x246C JUMPI PUSH1 0x40 MLOAD SWAP2 POP PUSH1 0x1F NOT PUSH1 0x3F RETURNDATASIZE ADD AND DUP3 ADD PUSH1 0x40 MSTORE RETURNDATASIZE DUP3 MSTORE RETURNDATASIZE PUSH0 PUSH1 0x20 DUP5 ADD RETURNDATACOPY PUSH2 0x2471 JUMP JUMPDEST PUSH1 0x60 SWAP2 POP JUMPDEST POP PUSH0 DUP2 MLOAD SUB PUSH2 0x24B7 JUMPI DUP4 PUSH1 0x40 MLOAD PUSH32 0x64A0AE9200000000000000000000000000000000000000000000000000000000 DUP2 MSTORE PUSH1 0x4 ADD PUSH2 0x24AE SWAP2 SWAP1 PUSH2 0x2C6B JUMP JUMPDEST PUSH1 0x40 MLOAD DUP1 SWAP2 SUB SWAP1 REVERT JUMPDEST DUP1 MLOAD DUP2 PUSH1 0x20 ADD REVERT JUMPDEST PUSH4 0xB1CFF380 PUSH1 0xE0 SHL PUSH28 0xFFFFFFFFFFFFFFFFFFFFFFFFFFFFFFFFFFFFFFFFFFFFFFFFFFFFFFFF NOT AND DUP2 PUSH28 0xFFFFFFFFFFFFFFFFFFFFFFFFFFFFFFFFFFFFFFFFFFFFFFFFFFFFFFFF NOT AND EQ PUSH2 0x2548 JUMPI DUP4 PUSH1 0x40 MLOAD PUSH32 0x64A0AE9200000000000000000000000000000000000000000000000000000000 DUP2 MSTORE PUSH1 0x4 ADD PUSH2 0x253F SWAP2 SWAP1 PUSH2 0x2C6B JUMP JUMPDEST PUSH1 0x40 MLOAD DUP1 SWAP2 SUB SWAP1 REVERT JUMPDEST POP JUMPDEST POP POP POP POP JUMP JUMPDEST PUSH1 0x60 PUSH1 0x40 MLOAD DUP1 PUSH1 0x20 ADD PUSH1 0x40 MSTORE DUP1 PUSH0 DUP2 MSTORE POP SWAP1 POP SWAP1 JUMP JUMPDEST PUSH1 0x60 PUSH0 PUSH1 0x1 PUSH2 0x2574 DUP5 PUSH2 0x2630 JUMP JUMPDEST ADD SWAP1 POP PUSH0 DUP2 PUSH8 0xFFFFFFFFFFFFFFFF DUP2 GT ISZERO PUSH2 0x2592 JUMPI PUSH2 0x2591 PUSH2 0x29C5 JUMP JUMPDEST JUMPDEST PUSH1 0x40 MLOAD SWAP1 DUP1 DUP3 MSTORE DUP1 PUSH1 0x1F ADD PUSH1 0x1F NOT AND PUSH1 0x20 ADD DUP3 ADD PUSH1 0x40 MSTORE DUP1 ISZERO PUSH2 0x25C4 JUMPI DUP2 PUSH1 0x20 ADD PUSH1 0x1 DUP3 MUL DUP1 CALLDATASIZE DUP4 CALLDATACOPY DUP1 DUP3 ADD SWAP2 POP POP SWAP1 POP JUMPDEST POP SWAP1 POP PUSH0 DUP3 PUSH1 0x20 ADD DUP3 ADD SWAP1 POP JUMPDEST PUSH1 0x1 ISZERO PUSH2 0x2625 JUMPI DUP1 DUP1 PUSH1 0x1 SWAP1 SUB SWAP2 POP POP PUSH32 0x3031323334353637383961626364656600000000000000000000000000000000 PUSH1 0xA DUP7 MOD BYTE DUP2 MSTORE8 PUSH1 0xA DUP6 DUP2 PUSH2 0x261A JUMPI PUSH2 0x2619 PUSH2 0x350C JUMP JUMPDEST JUMPDEST DIV SWAP5 POP PUSH0 DUP6 SUB PUSH2 0x25D1 JUMPI JUMPDEST DUP2 SWAP4 POP POP POP POP SWAP2 SWAP1 POP JUMP JUMPDEST PUSH0 DUP1 PUSH0 SWAP1 POP PUSH27 0x184F03E93FF9F4DAA797ED6E38ED64BF6A1F010000000000000000 DUP4 LT PUSH2 0x268C JUMPI PUSH27 0x184F03E93FF9F4DAA797ED6E38ED64BF6A1F010000000000000000 DUP4 DUP2 PUSH2 0x2682 JUMPI PUSH2 0x2681 PUSH2 0x350C JUMP JUMPDEST JUMPDEST DIV SWAP3 POP PUSH1 0x40 DUP2 ADD SWAP1 POP JUMPDEST PUSH14 0x4EE2D6D415B85ACEF8100000000 DUP4 LT PUSH2 0x26C9 JUMPI PUSH14 0x4EE2D6D415B85ACEF8100000000 DUP4 DUP2 PUSH2 0x26BF JUMPI PUSH2 0x26BE PUSH2 0x350C JUMP JUMPDEST JUMPDEST DIV SWAP3 POP PUSH1 0x20 DUP2 ADD SWAP1 POP JUMPDEST PUSH7 0x2386F26FC10000 DUP4 LT PUSH2 0x26F8 JUMPI PUSH7 0x2386F26FC10000 DUP4 DUP2 PUSH2 0x26EE JUMPI PUSH2 0x26ED PUSH2 0x350C JUMP JUMPDEST JUMPDEST DIV SWAP3 POP PUSH1 0x10 DUP2 ADD SWAP1 POP JUMPDEST PUSH4 0x5F5E100 DUP4 LT PUSH2 0x2721 JUMPI PUSH4 0x5F5E100 DUP4 DUP2 PUSH2 0x2717 JUMPI PUSH2 0x2716 PUSH2 0x350C JUMP JUMPDEST JUMPDEST DIV SWAP3 POP PUSH1 0x8 DUP2 ADD SWAP1 POP JUMPDEST PUSH2 0x2710 DUP4 LT PUSH2 0x2746 JUMPI PUSH2 0x2710 DUP4 DUP2 PUSH2 0x273C JUMPI PUSH2 0x273B PUSH2 0x350C JUMP JUMPDEST JUMPDEST DIV SWAP3 POP PUSH1 0x4 DUP2 ADD SWAP1 POP JUMPDEST PUSH1 0x64 DUP4 LT PUSH2 0x2769 JUMPI PUSH1 0x64 DUP4 DUP2 PUSH2 0x275F JUMPI PUSH2 0x275E PUSH2 0x350C JUMP JUMPDEST JUMPDEST DIV SWAP3 POP PUSH1 0x2 DUP2 ADD SWAP1 POP JUMPDEST PUSH1 0xA DUP4 LT PUSH2 0x2778 JUMPI PUSH1 0x1 DUP2 ADD SWAP1 POP JUMPDEST DUP1 SWAP2 POP POP SWAP2 SWAP1 POP JUMP JUMPDEST DUP3 PUSH2 0x4B1 PUSH1 0xF ADD PUSH1 0x10 SWAP1 DIV DUP2 ADD SWAP3 DUP3 ISZERO PUSH2 0x280D JUMPI SWAP2 PUSH1 0x20 MUL DUP3 ADD PUSH0 JUMPDEST DUP4 DUP3 GT ISZERO PUSH2 0x27DD JUMPI DUP4 MLOAD DUP4 DUP3 PUSH2 0x100 EXP DUP2 SLOAD DUP2 PUSH2 0xFFFF MUL NOT AND SWAP1 DUP4 PUSH2 0xFFFF AND MUL OR SWAP1 SSTORE POP SWAP3 PUSH1 0x20 ADD SWAP3 PUSH1 0x2 ADD PUSH1 0x20 DUP2 PUSH1 0x1 ADD DIV SWAP3 DUP4 ADD SWAP3 PUSH1 0x1 SUB MUL PUSH2 0x279D JUMP JUMPDEST DUP1 ISZERO PUSH2 0x280B JUMPI DUP3 DUP2 PUSH2 0x100 EXP DUP2 SLOAD SWAP1 PUSH2 0xFFFF MUL NOT AND SWAP1 SSTORE PUSH1 0x2 ADD PUSH1 0x20 DUP2 PUSH1 0x1 ADD DIV SWAP3 DUP4 ADD SWAP3 PUSH1 0x1 SUB MUL PUSH2 0x27DD JUMP JUMPDEST POP JUMPDEST POP SWAP1 POP PUSH2 0x281A SWAP2 SWAP1 PUSH2 0x281E JUMP JUMPDEST POP SWAP1 JUMP JUMPDEST JUMPDEST DUP1 DUP3 GT ISZERO PUSH2 0x2835 JUMPI PUSH0 DUP2 PUSH0 SWAP1 SSTORE POP PUSH1 0x1 ADD PUSH2 0x281F JUMP JUMPDEST POP SWAP1 JUMP JUMPDEST PUSH0 PUSH32 0xFFFFFFFFFFFFFFFFFFFFFFFFFFFFFFFFFFFFFFFF000000000000000000000000 DUP3 AND SWAP1 POP SWAP2 SWAP1 POP JUMP JUMPDEST PUSH2 0x286D DUP2 PUSH2 0x2839 JUMP JUMPDEST DUP3 MSTORE POP POP JUMP JUMPDEST PUSH0 PUSH1 0x20 DUP3 ADD SWAP1 POP PUSH2 0x2886 PUSH0 DUP4 ADD DUP5 PUSH2 0x2864 JUMP JUMPDEST SWAP3 SWAP2 POP POP JUMP JUMPDEST PUSH0 PUSH1 0x40 MLOAD SWAP1 POP SWAP1 JUMP JUMPDEST PUSH0 DUP1 REVERT JUMPDEST PUSH0 DUP1 REVERT JUMPDEST PUSH0 PUSH20 0xFFFFFFFFFFFFFFFFFFFFFFFFFFFFFFFFFFFFFFFF DUP3 AND SWAP1 POP SWAP2 SWAP1 POP JUMP JUMPDEST PUSH0 PUSH2 0x28C6 DUP3 PUSH2 0x289D JUMP JUMPDEST SWAP1 POP SWAP2 SWAP1 POP JUMP JUMPDEST PUSH2 0x28D6 DUP2 PUSH2 0x28BC JUMP JUMPDEST DUP2 EQ PUSH2 0x28E0 JUMPI PUSH0 DUP1 REVERT JUMPDEST POP JUMP JUMPDEST PUSH0 DUP2 CALLDATALOAD SWAP1 POP PUSH2 0x28F1 DUP2 PUSH2 0x28CD JUMP JUMPDEST SWAP3 SWAP2 POP POP JUMP JUMPDEST PUSH0 PUSH2 0xFFFF DUP3 AND SWAP1 POP SWAP2 SWAP1 POP JUMP JUMPDEST PUSH2 0x290D DUP2 PUSH2 0x28F7 JUMP JUMPDEST DUP2 EQ PUSH2 0x2917 JUMPI PUSH0 DUP1 REVERT JUMPDEST POP JUMP JUMPDEST PUSH0 DUP2 CALLDATALOAD SWAP1 POP PUSH2 0x2928 DUP2 PUSH2 0x2904 JUMP JUMPDEST SWAP3 SWAP2 POP POP JUMP JUMPDEST PUSH0 DUP1 PUSH0 PUSH1 0x60 DUP5 DUP7 SUB SLT ISZERO PUSH2 0x2945 JUMPI PUSH2 0x2944 PUSH2 0x2895 JUMP JUMPDEST JUMPDEST PUSH0 PUSH2 0x2952 DUP7 DUP3 DUP8 ADD PUSH2 0x28E3 JUMP JUMPDEST SWAP4 POP POP PUSH1 0x20 PUSH2 0x2963 DUP7 DUP3 DUP8 ADD PUSH2 0x28E3 JUMP JUMPDEST SWAP3 POP POP PUSH1 0x40 PUSH2 0x2974 DUP7 DUP3 DUP8 ADD PUSH2 0x291A JUMP JUMPDEST SWAP2 POP POP SWAP3 POP SWAP3 POP SWAP3 JUMP JUMPDEST PUSH0 DUP2 SWAP1 POP SWAP2 SWAP1 POP JUMP JUMPDEST PUSH2 0x2990 DUP2 PUSH2 0x297E JUMP JUMPDEST DUP2 EQ PUSH2 0x299A JUMPI PUSH0 DUP1 REVERT JUMPDEST POP JUMP JUMPDEST PUSH0 DUP2 CALLDATALOAD SWAP1 POP PUSH2 0x29AB DUP2 PUSH2 0x2987 JUMP JUMPDEST SWAP3 SWAP2 POP POP JUMP JUMPDEST PUSH0 DUP1 REVERT JUMPDEST PUSH0 PUSH1 0x1F NOT PUSH1 0x1F DUP4 ADD AND SWAP1 POP SWAP2 SWAP1 POP JUMP JUMPDEST PUSH32 0x4E487B7100000000000000000000000000000000000000000000000000000000 PUSH0 MSTORE PUSH1 0x41 PUSH1 0x4 MSTORE PUSH1 0x24 PUSH0 REVERT JUMPDEST PUSH2 0x29FB DUP3 PUSH2 0x29B5 JUMP JUMPDEST DUP2 ADD DUP2 DUP2 LT PUSH8 0xFFFFFFFFFFFFFFFF DUP3 GT OR ISZERO PUSH2 0x2A1A JUMPI PUSH2 0x2A19 PUSH2 0x29C5 JUMP JUMPDEST JUMPDEST DUP1 PUSH1 0x40 MSTORE POP POP POP JUMP JUMPDEST PUSH0 PUSH2 0x2A2C PUSH2 0x288C JUMP JUMPDEST SWAP1 POP PUSH2 0x2A38 DUP3 DUP3 PUSH2 0x29F2 JUMP JUMPDEST SWAP2 SWAP1 POP JUMP JUMPDEST PUSH0 PUSH8 0xFFFFFFFFFFFFFFFF DUP3 GT ISZERO PUSH2 0x2A57 JUMPI PUSH2 0x2A56 PUSH2 0x29C5 JUMP JUMPDEST JUMPDEST PUSH1 0x20 DUP3 MUL SWAP1 POP SWAP2 SWAP1 POP JUMP JUMPDEST PUSH0 DUP1 REVERT JUMPDEST PUSH0 PUSH2 0x2A78 PUSH2 0x2A73 DUP5 PUSH2 0x2A3D JUMP JUMPDEST PUSH2 0x2A23 JUMP JUMPDEST SWAP1 POP DUP1 PUSH1 0x20 DUP5 MUL DUP4 ADD DUP6 DUP2 GT ISZERO PUSH2 0x2A92 JUMPI PUSH2 0x2A91 PUSH2 0x2A62 JUMP JUMPDEST JUMPDEST DUP4 JUMPDEST DUP2 DUP2 LT ISZERO PUSH2 0x2ABB JUMPI DUP1 PUSH2 0x2AA7 DUP9 DUP3 PUSH2 0x291A JUMP JUMPDEST DUP5 MSTORE PUSH1 0x20 DUP5 ADD SWAP4 POP POP PUSH1 0x20 DUP2 ADD SWAP1 POP PUSH2 0x2A94 JUMP JUMPDEST POP POP POP SWAP4 SWAP3 POP POP POP JUMP JUMPDEST PUSH0 DUP3 PUSH1 0x1F DUP4 ADD SLT PUSH2 0x2AD9 JUMPI PUSH2 0x2AD8 PUSH2 0x29B1 JUMP JUMPDEST JUMPDEST PUSH2 0x4B1 PUSH2 0x2AE7 DUP5 DUP3 DUP6 PUSH2 0x2A66 JUMP JUMPDEST SWAP2 POP POP SWAP3 SWAP2 POP POP JUMP JUMPDEST PUSH0 DUP1 PUSH0 DUP1 PUSH0 DUP1 PUSH2 0x96C0 DUP8 DUP10 SUB SLT ISZERO PUSH2 0x2B0B JUMPI PUSH2 0x2B0A PUSH2 0x2895 JUMP JUMPDEST JUMPDEST PUSH0 PUSH2 0x2B18 DUP10 DUP3 DUP11 ADD PUSH2 0x291A JUMP JUMPDEST SWAP7 POP POP PUSH1 0x20 PUSH2 0x2B29 DUP10 DUP3 DUP11 ADD PUSH2 0x299D JUMP JUMPDEST SWAP6 POP POP PUSH1 0x40 PUSH2 0x2B3A DUP10 DUP3 DUP11 ADD PUSH2 0x28E3 JUMP JUMPDEST SWAP5 POP POP PUSH1 0x60 PUSH2 0x2B4B DUP10 DUP3 DUP11 ADD PUSH2 0x28E3 JUMP JUMPDEST SWAP4 POP POP PUSH1 0x80 PUSH2 0x2B5C DUP10 DUP3 DUP11 ADD PUSH2 0x299D JUMP JUMPDEST SWAP3 POP POP PUSH1 0xA0 PUSH2 0x2B6D DUP10 DUP3 DUP11 ADD PUSH2 0x2AC5 JUMP JUMPDEST SWAP2 POP POP SWAP3 SWAP6 POP SWAP3 SWAP6 POP SWAP3 SWAP6 JUMP JUMPDEST PUSH0 PUSH1 0x20 DUP3 DUP5 SUB SLT ISZERO PUSH2 0x2B8F JUMPI PUSH2 0x2B8E PUSH2 0x2895 JUMP JUMPDEST JUMPDEST PUSH0 PUSH2 0x2B9C DUP5 DUP3 DUP6 ADD PUSH2 0x28E3 JUMP JUMPDEST SWAP2 POP POP SWAP3 SWAP2 POP POP JUMP JUMPDEST PUSH0 DUP2 ISZERO ISZERO SWAP1 POP SWAP2 SWAP1 POP JUMP JUMPDEST PUSH2 0x2BB9 DUP2 PUSH2 0x2BA5 JUMP JUMPDEST DUP3 MSTORE POP POP JUMP JUMPDEST PUSH0 PUSH1 0x20 DUP3 ADD SWAP1 POP PUSH2 0x2BD2 PUSH0 DUP4 ADD DUP5 PUSH2 0x2BB0 JUMP JUMPDEST SWAP3 SWAP2 POP POP JUMP JUMPDEST PUSH0 DUP2 SWAP1 POP SWAP2 SWAP1 POP JUMP JUMPDEST PUSH2 0x2BEA DUP2 PUSH2 0x2BD8 JUMP JUMPDEST DUP3 MSTORE POP POP JUMP JUMPDEST PUSH0 PUSH1 0x20 DUP3 ADD SWAP1 POP PUSH2 0x2C03 PUSH0 DUP4 ADD DUP5 PUSH2 0x2BE1 JUMP JUMPDEST SWAP3 SWAP2 POP POP JUMP JUMPDEST PUSH2 0x2C12 DUP2 PUSH2 0x28F7 JUMP JUMPDEST DUP3 MSTORE POP POP JUMP JUMPDEST PUSH0 PUSH1 0x20 DUP3 ADD SWAP1 POP PUSH2 0x2C2B PUSH0 DUP4 ADD DUP5 PUSH2 0x2C09 JUMP JUMPDEST SWAP3 SWAP2 POP POP JUMP JUMPDEST PUSH0 PUSH1 0x20 DUP3 DUP5 SUB SLT ISZERO PUSH2 0x2C46 JUMPI PUSH2 0x2C45 PUSH2 0x2895 JUMP JUMPDEST JUMPDEST PUSH0 PUSH2 0x2C53 DUP5 DUP3 DUP6 ADD PUSH2 0x291A JUMP JUMPDEST SWAP2 POP POP SWAP3 SWAP2 POP POP JUMP JUMPDEST PUSH2 0x2C65 DUP2 PUSH2 0x28BC JUMP JUMPDEST DUP3 MSTORE POP POP JUMP JUMPDEST PUSH0 PUSH1 0x20 DUP3 ADD SWAP1 POP PUSH2 0x2C7E PUSH0 DUP4 ADD DUP5 PUSH2 0x2C5C JUMP JUMPDEST SWAP3 SWAP2 POP POP JUMP JUMPDEST PUSH0 PUSH32 0xFFFFFFFFFFFFFFFFFFFF00000000000000000000000000000000000000000000 DUP3 AND SWAP1 POP SWAP2 SWAP1 POP JUMP JUMPDEST PUSH2 0x2CB8 DUP2 PUSH2 0x2C84 JUMP JUMPDEST DUP3 MSTORE POP POP JUMP JUMPDEST PUSH0 PUSH1 0x20 DUP3 ADD SWAP1 POP PUSH2 0x2CD1 PUSH0 DUP4 ADD DUP5 PUSH2 0x2CAF JUMP JUMPDEST SWAP3 SWAP2 POP POP JUMP JUMPDEST PUSH2 0x2CE0 DUP2 PUSH2 0x2BA5 JUMP JUMPDEST DUP2 EQ PUSH2 0x2CEA JUMPI PUSH0 DUP1 REVERT JUMPDEST POP JUMP JUMPDEST PUSH0 DUP2 CALLDATALOAD SWAP1 POP PUSH2 0x2CFB DUP2 PUSH2 0x2CD7 JUMP JUMPDEST SWAP3 SWAP2 POP POP JUMP JUMPDEST PUSH0 DUP1 PUSH1 0x40 DUP4 DUP6 SUB SLT ISZERO PUSH2 0x2D17 JUMPI PUSH2 0x2D16 PUSH2 0x2895 JUMP JUMPDEST JUMPDEST PUSH0 PUSH2 0x2D24 DUP6 DUP3 DUP7 ADD PUSH2 0x28E3 JUMP JUMPDEST SWAP3 POP POP PUSH1 0x20 PUSH2 0x2D35 DUP6 DUP3 DUP7 ADD PUSH2 0x2CED JUMP JUMPDEST SWAP2 POP POP SWAP3 POP SWAP3 SWAP1 POP JUMP JUMPDEST PUSH0 DUP1 REVERT JUMPDEST PUSH0 PUSH8 0xFFFFFFFFFFFFFFFF DUP3 GT ISZERO PUSH2 0x2D5D JUMPI PUSH2 0x2D5C PUSH2 0x29C5 JUMP JUMPDEST JUMPDEST PUSH2 0x2D66 DUP3 PUSH2 0x29B5 JUMP JUMPDEST SWAP1 POP PUSH1 0x20 DUP2 ADD SWAP1 POP SWAP2 SWAP1 POP JUMP JUMPDEST DUP3 DUP2 DUP4 CALLDATACOPY PUSH0 DUP4 DUP4 ADD MSTORE POP POP POP JUMP JUMPDEST PUSH0 PUSH2 0x2D93 PUSH2 0x2D8E DUP5 PUSH2 0x2D43 JUMP JUMPDEST PUSH2 0x2A23 JUMP JUMPDEST SWAP1 POP DUP3 DUP2 MSTORE PUSH1 0x20 DUP2 ADD DUP5 DUP5 DUP5 ADD GT ISZERO PUSH2 0x2DAF JUMPI PUSH2 0x2DAE PUSH2 0x2D3F JUMP JUMPDEST JUMPDEST PUSH2 0x2DBA DUP5 DUP3 DUP6 PUSH2 0x2D73 JUMP JUMPDEST POP SWAP4 SWAP3 POP POP POP JUMP JUMPDEST PUSH0 DUP3 PUSH1 0x1F DUP4 ADD SLT PUSH2 0x2DD6 JUMPI PUSH2 0x2DD5 PUSH2 0x29B1 JUMP JUMPDEST JUMPDEST DUP2 CALLDATALOAD PUSH2 0x2DE6 DUP5 DUP3 PUSH1 0x20 DUP7 ADD PUSH2 0x2D81 JUMP JUMPDEST SWAP2 POP POP SWAP3 SWAP2 POP POP JUMP JUMPDEST PUSH0 DUP1 PUSH0 DUP1 PUSH1 0x80 DUP6 DUP8 SUB SLT ISZERO PUSH2 0x2E07 JUMPI PUSH2 0x2E06 PUSH2 0x2895 JUMP JUMPDEST JUMPDEST PUSH0 PUSH2 0x2E14 DUP8 DUP3 DUP9 ADD PUSH2 0x28E3 JUMP JUMPDEST SWAP5 POP POP PUSH1 0x20 PUSH2 0x2E25 DUP8 DUP3 DUP9 ADD PUSH2 0x28E3 JUMP JUMPDEST SWAP4 POP POP PUSH1 0x40 PUSH2 0x2E36 DUP8 DUP3 DUP9 ADD PUSH2 0x291A JUMP JUMPDEST SWAP3 POP POP PUSH1 0x60 DUP6 ADD CALLDATALOAD PUSH8 0xFFFFFFFFFFFFFFFF DUP2 GT ISZERO PUSH2 0x2E57 JUMPI PUSH2 0x2E56 PUSH2 0x2899 JUMP JUMPDEST JUMPDEST PUSH2 0x2E63 DUP8 DUP3 DUP9 ADD PUSH2 0x2DC2 JUMP JUMPDEST SWAP2 POP POP SWAP3 SWAP6 SWAP2 SWAP5 POP SWAP3 POP JUMP JUMPDEST PUSH0 DUP1 REVERT JUMPDEST PUSH0 DUP1 DUP4 PUSH1 0x1F DUP5 ADD SLT PUSH2 0x2E88 JUMPI PUSH2 0x2E87 PUSH2 0x29B1 JUMP JUMPDEST JUMPDEST DUP3 CALLDATALOAD SWAP1 POP PUSH8 0xFFFFFFFFFFFFFFFF DUP2 GT ISZERO PUSH2 0x2EA5 JUMPI PUSH2 0x2EA4 PUSH2 0x2E6F JUMP JUMPDEST JUMPDEST PUSH1 0x20 DUP4 ADD SWAP2 POP DUP4 PUSH1 0x1 DUP3 MUL DUP4 ADD GT ISZERO PUSH2 0x2EC1 JUMPI PUSH2 0x2EC0 PUSH2 0x2A62 JUMP JUMPDEST JUMPDEST SWAP3 POP SWAP3 SWAP1 POP JUMP JUMPDEST PUSH0 DUP1 PUSH0 DUP1 PUSH0 PUSH1 0x80 DUP7 DUP9 SUB SLT ISZERO PUSH2 0x2EE1 JUMPI PUSH2 0x2EE0 PUSH2 0x2895 JUMP JUMPDEST JUMPDEST PUSH0 PUSH2 0x2EEE DUP9 DUP3 DUP10 ADD PUSH2 0x28E3 JUMP JUMPDEST SWAP6 POP POP PUSH1 0x20 PUSH2 0x2EFF DUP9 DUP3 DUP10 ADD PUSH2 0x28E3 JUMP JUMPDEST SWAP5 POP POP PUSH1 0x40 PUSH2 0x2F10 DUP9 DUP3 DUP10 ADD PUSH2 0x291A JUMP JUMPDEST SWAP4 POP POP PUSH1 0x60 DUP7 ADD CALLDATALOAD PUSH8 0xFFFFFFFFFFFFFFFF DUP2 GT ISZERO PUSH2 0x2F31 JUMPI PUSH2 0x2F30 PUSH2 0x2899 JUMP JUMPDEST JUMPDEST PUSH2 0x2F3D DUP9 DUP3 DUP10 ADD PUSH2 0x2E73 JUMP JUMPDEST SWAP3 POP SWAP3 POP POP SWAP3 SWAP6 POP SWAP3 SWAP6 SWAP1 SWAP4 POP JUMP JUMPDEST PUSH0 PUSH32 0xFFFFFFFF00000000000000000000000000000000000000000000000000000000 DUP3 AND SWAP1 POP SWAP2 SWAP1 POP JUMP JUMPDEST PUSH2 0x2F80 DUP2 PUSH2 0x2F4C JUMP JUMPDEST DUP3 MSTORE POP POP JUMP JUMPDEST PUSH0 PUSH1 0x20 DUP3 ADD SWAP1 POP PUSH2 0x2F99 PUSH0 DUP4 ADD DUP5 PUSH2 0x2F77 JUMP JUMPDEST SWAP3 SWAP2 POP POP JUMP JUMPDEST PUSH0 PUSH6 0xFFFFFFFFFFFF DUP3 AND SWAP1 POP SWAP2 SWAP1 POP JUMP JUMPDEST PUSH2 0x2FB9 DUP2 PUSH2 0x2F9F JUMP JUMPDEST DUP2 EQ PUSH2 0x2FC3 JUMPI PUSH0 DUP1 REVERT JUMPDEST POP JUMP JUMPDEST PUSH0 DUP2 CALLDATALOAD SWAP1 POP PUSH2 0x2FD4 DUP2 PUSH2 0x2FB0 JUMP JUMPDEST SWAP3 SWAP2 POP POP JUMP JUMPDEST PUSH0 PUSH1 0x20 DUP3 DUP5 SUB SLT ISZERO PUSH2 0x2FEF JUMPI PUSH2 0x2FEE PUSH2 0x2895 JUMP JUMPDEST JUMPDEST PUSH0 PUSH2 0x2FFC DUP5 DUP3 DUP6 ADD PUSH2 0x2FC6 JUMP JUMPDEST SWAP2 POP POP SWAP3 SWAP2 POP POP JUMP JUMPDEST PUSH0 DUP2 MLOAD SWAP1 POP SWAP2 SWAP1 POP JUMP JUMPDEST PUSH0 DUP3 DUP3 MSTORE PUSH1 0x20 DUP3 ADD SWAP1 POP SWAP3 SWAP2 POP POP JUMP JUMPDEST PUSH0 JUMPDEST DUP4 DUP2 LT ISZERO PUSH2 0x303C JUMPI DUP1 DUP3 ADD MLOAD DUP2 DUP5 ADD MSTORE PUSH1 0x20 DUP2 ADD SWAP1 POP PUSH2 0x3021 JUMP JUMPDEST PUSH0 DUP5 DUP5 ADD MSTORE POP POP POP POP JUMP JUMPDEST PUSH0 PUSH2 0x3051 DUP3 PUSH2 0x3005 JUMP JUMPDEST PUSH2 0x305B DUP2 DUP6 PUSH2 0x300F JUMP JUMPDEST SWAP4 POP PUSH2 0x306B DUP2 DUP6 PUSH1 0x20 DUP7 ADD PUSH2 0x301F JUMP JUMPDEST PUSH2 0x3074 DUP2 PUSH2 0x29B5 JUMP JUMPDEST DUP5 ADD SWAP2 POP POP SWAP3 SWAP2 POP POP JUMP JUMPDEST PUSH0 PUSH1 0x20 DUP3 ADD SWAP1 POP DUP2 DUP2 SUB PUSH0 DUP4 ADD MSTORE PUSH2 0x3097 DUP2 DUP5 PUSH2 0x3047 JUMP JUMPDEST SWAP1 POP SWAP3 SWAP2 POP POP JUMP JUMPDEST PUSH0 DUP2 MLOAD SWAP1 POP SWAP2 SWAP1 POP JUMP JUMPDEST PUSH0 DUP3 DUP3 MSTORE PUSH1 0x20 DUP3 ADD SWAP1 POP SWAP3 SWAP2 POP POP JUMP JUMPDEST PUSH0 PUSH2 0x30C3 DUP3 PUSH2 0x309F JUMP JUMPDEST PUSH2 0x30CD DUP2 DUP6 PUSH2 0x30A9 JUMP JUMPDEST SWAP4 POP PUSH2 0x30DD DUP2 DUP6 PUSH1 0x20 DUP7 ADD PUSH2 0x301F JUMP JUMPDEST PUSH2 0x30E6 DUP2 PUSH2 0x29B5 JUMP JUMPDEST DUP5 ADD SWAP2 POP POP SWAP3 SWAP2 POP POP JUMP JUMPDEST PUSH0 PUSH1 0x20 DUP3 ADD SWAP1 POP DUP2 DUP2 SUB PUSH0 DUP4 ADD MSTORE PUSH2 0x3109 DUP2 DUP5 PUSH2 0x30B9 JUMP JUMPDEST SWAP1 POP SWAP3 SWAP2 POP POP JUMP JUMPDEST PUSH0 DUP1 PUSH1 0x40 DUP4 DUP6 SUB SLT ISZERO PUSH2 0x3127 JUMPI PUSH2 0x3126 PUSH2 0x2895 JUMP JUMPDEST JUMPDEST PUSH0 PUSH2 0x3134 DUP6 DUP3 DUP7 ADD PUSH2 0x28E3 JUMP JUMPDEST SWAP3 POP POP PUSH1 0x20 PUSH2 0x3145 DUP6 DUP3 DUP7 ADD PUSH2 0x291A JUMP JUMPDEST SWAP2 POP POP SWAP3 POP SWAP3 SWAP1 POP JUMP JUMPDEST PUSH0 DUP1 PUSH1 0x40 DUP4 DUP6 SUB SLT ISZERO PUSH2 0x3165 JUMPI PUSH2 0x3164 PUSH2 0x2895 JUMP JUMPDEST JUMPDEST PUSH0 PUSH2 0x3172 DUP6 DUP3 DUP7 ADD PUSH2 0x28E3 JUMP JUMPDEST SWAP3 POP POP PUSH1 0x20 PUSH2 0x3183 DUP6 DUP3 DUP7 ADD PUSH2 0x28E3 JUMP JUMPDEST SWAP2 POP POP SWAP3 POP SWAP3 SWAP1 POP JUMP JUMPDEST PUSH0 DUP1 PUSH1 0x40 DUP4 DUP6 SUB SLT ISZERO PUSH2 0x31A3 JUMPI PUSH2 0x31A2 PUSH2 0x2895 JUMP JUMPDEST JUMPDEST PUSH0 PUSH2 0x31B0 DUP6 DUP3 DUP7 ADD PUSH2 0x291A JUMP JUMPDEST SWAP3 POP POP PUSH1 0x20 PUSH2 0x31C1 DUP6 DUP3 DUP7 ADD PUSH2 0x2CED JUMP JUMPDEST SWAP2 POP POP SWAP3 POP SWAP3 SWAP1 POP JUMP JUMPDEST PUSH32 0x596F7520646F206E6F7420686176652061636365737320746F20746869732066 PUSH0 DUP3 ADD MSTORE PUSH32 0x756E6374696F6E00000000000000000000000000000000000000000000000000 PUSH1 0x20 DUP3 ADD MSTORE POP JUMP JUMPDEST PUSH0 PUSH2 0x3225 PUSH1 0x27 DUP4 PUSH2 0x30A9 JUMP JUMPDEST SWAP2 POP PUSH2 0x3230 DUP3 PUSH2 0x31CB JUMP JUMPDEST PUSH1 0x40 DUP3 ADD SWAP1 POP SWAP2 SWAP1 POP JUMP JUMPDEST PUSH0 PUSH1 0x20 DUP3 ADD SWAP1 POP DUP2 DUP2 SUB PUSH0 DUP4 ADD MSTORE PUSH2 0x3252 DUP2 PUSH2 0x3219 JUMP JUMPDEST SWAP1 POP SWAP2 SWAP1 POP JUMP JUMPDEST PUSH32 0x54686520656E746572656420706172616D657465727320617265206E6F742061 PUSH0 DUP3 ADD MSTORE PUSH32 0x636365707461626C650000000000000000000000000000000000000000000000 PUSH1 0x20 DUP3 ADD MSTORE POP JUMP JUMPDEST PUSH0 PUSH2 0x32B3 PUSH1 0x29 DUP4 PUSH2 0x30A9 JUMP JUMPDEST SWAP2 POP PUSH2 0x32BE DUP3 PUSH2 0x3259 JUMP JUMPDEST PUSH1 0x40 DUP3 ADD SWAP1 POP SWAP2 SWAP1 POP JUMP JUMPDEST PUSH0 PUSH1 0x20 DUP3 ADD SWAP1 POP DUP2 DUP2 SUB PUSH0 DUP4 ADD MSTORE PUSH2 0x32E0 DUP2 PUSH2 0x32A7 JUMP JUMPDEST SWAP1 POP SWAP2 SWAP1 POP JUMP JUMPDEST PUSH32 0x4E487B7100000000000000000000000000000000000000000000000000000000 PUSH0 MSTORE PUSH1 0x32 PUSH1 0x4 MSTORE PUSH1 0x24 PUSH0 REVERT JUMPDEST PUSH32 0x4E487B7100000000000000000000000000000000000000000000000000000000 PUSH0 MSTORE PUSH1 0x11 PUSH1 0x4 MSTORE PUSH1 0x24 PUSH0 REVERT JUMPDEST PUSH0 PUSH2 0x334B DUP3 PUSH2 0x28F7 JUMP JUMPDEST SWAP2 POP PUSH2 0x3356 DUP4 PUSH2 0x28F7 JUMP JUMPDEST SWAP3 POP DUP3 DUP3 SUB SWAP1 POP PUSH2 0xFFFF DUP2 GT ISZERO PUSH2 0x3370 JUMPI PUSH2 0x336F PUSH2 0x3314 JUMP JUMPDEST JUMPDEST SWAP3 SWAP2 POP POP JUMP JUMPDEST PUSH32 0x596F7520646F206E6F742068617665207065726D697373696F6E20746F207570 PUSH0 DUP3 ADD MSTORE PUSH32 0x6772616465000000000000000000000000000000000000000000000000000000 PUSH1 0x20 DUP3 ADD MSTORE POP JUMP JUMPDEST PUSH0 PUSH2 0x33D0 PUSH1 0x25 DUP4 PUSH2 0x30A9 JUMP JUMPDEST SWAP2 POP PUSH2 0x33DB DUP3 PUSH2 0x3376 JUMP JUMPDEST PUSH1 0x40 DUP3 ADD SWAP1 POP SWAP2 SWAP1 POP JUMP JUMPDEST PUSH0 PUSH1 0x20 DUP3 ADD SWAP1 POP DUP2 DUP2 SUB PUSH0 DUP4 ADD MSTORE PUSH2 0x33FD DUP2 PUSH2 0x33C4 JUMP JUMPDEST SWAP1 POP SWAP2 SWAP1 POP JUMP JUMPDEST PUSH2 0x340D DUP2 PUSH2 0x297E JUMP JUMPDEST DUP3 MSTORE POP POP JUMP JUMPDEST PUSH0 PUSH1 0x60 DUP3 ADD SWAP1 POP PUSH2 0x3426 PUSH0 DUP4 ADD DUP7 PUSH2 0x2C5C JUMP JUMPDEST PUSH2 0x3433 PUSH1 0x20 DUP4 ADD DUP6 PUSH2 0x2C5C JUMP JUMPDEST PUSH2 0x3440 PUSH1 0x40 DUP4 ADD DUP5 PUSH2 0x3404 JUMP JUMPDEST SWAP5 SWAP4 POP POP POP POP JUMP JUMPDEST PUSH32 0x416363657373206F6E6C7920666F72206578656375746F720000000000000000 PUSH0 DUP3 ADD MSTORE POP JUMP JUMPDEST PUSH0 PUSH2 0x347C PUSH1 0x18 DUP4 PUSH2 0x30A9 JUMP JUMPDEST SWAP2 POP PUSH2 0x3487 DUP3 PUSH2 0x3448 JUMP JUMPDEST PUSH1 0x20 DUP3 ADD SWAP1 POP SWAP2 SWAP1 POP JUMP JUMPDEST PUSH0 PUSH1 0x20 DUP3 ADD SWAP1 POP DUP2 DUP2 SUB PUSH0 DUP4 ADD MSTORE PUSH2 0x34A9 DUP2 PUSH2 0x3470 JUMP JUMPDEST SWAP1 POP SWAP2 SWAP1 POP JUMP JUMPDEST PUSH0 PUSH2 0x34BA DUP3 PUSH2 0x28F7 JUMP JUMPDEST SWAP2 POP PUSH2 0xFFFF DUP3 SUB PUSH2 0x34CE JUMPI PUSH2 0x34CD PUSH2 0x3314 JUMP JUMPDEST JUMPDEST PUSH1 0x1 DUP3 ADD SWAP1 POP SWAP2 SWAP1 POP JUMP JUMPDEST PUSH0 PUSH2 0x34E3 DUP3 PUSH2 0x297E JUMP JUMPDEST SWAP2 POP PUSH2 0x34EE DUP4 PUSH2 0x297E JUMP JUMPDEST SWAP3 POP DUP3 DUP3 ADD SWAP1 POP DUP1 DUP3 GT ISZERO PUSH2 0x3506 JUMPI PUSH2 0x3505 PUSH2 0x3314 JUMP JUMPDEST JUMPDEST SWAP3 SWAP2 POP POP JUMP JUMPDEST PUSH32 0x4E487B7100000000000000000000000000000000000000000000000000000000 PUSH0 MSTORE PUSH1 0x12 PUSH1 0x4 MSTORE PUSH1 0x24 PUSH0 REVERT JUMPDEST PUSH0 PUSH2 0x3543 DUP3 PUSH2 0x28F7 JUMP JUMPDEST SWAP2 POP PUSH2 0x354E DUP4 PUSH2 0x28F7 JUMP JUMPDEST SWAP3 POP DUP3 PUSH2 0x355E JUMPI PUSH2 0x355D PUSH2 0x350C JUMP JUMPDEST JUMPDEST DUP3 DUP3 MOD SWAP1 POP SWAP3 SWAP2 POP POP JUMP JUMPDEST PUSH0 PUSH2 0x3573 DUP3 PUSH2 0x2F9F JUMP JUMPDEST SWAP2 POP PUSH2 0x357E DUP4 PUSH2 0x2F9F JUMP JUMPDEST SWAP3 POP DUP3 DUP3 ADD SWAP1 POP PUSH6 0xFFFFFFFFFFFF DUP2 GT ISZERO PUSH2 0x359C JUMPI PUSH2 0x359B PUSH2 0x3314 JUMP JUMPDEST JUMPDEST SWAP3 SWAP2 POP POP JUMP JUMPDEST PUSH0 PUSH2 0x35AC DUP3 PUSH2 0x28F7 JUMP JUMPDEST SWAP2 POP PUSH2 0x35B7 DUP4 PUSH2 0x28F7 JUMP JUMPDEST SWAP3 POP DUP3 DUP3 ADD SWAP1 POP PUSH2 0xFFFF DUP2 GT ISZERO PUSH2 0x35D1 JUMPI PUSH2 0x35D0 PUSH2 0x3314 JUMP JUMPDEST JUMPDEST SWAP3 SWAP2 POP POP JUMP JUMPDEST PUSH0 PUSH2 0x35E1 DUP3 PUSH2 0x28F7 JUMP JUMPDEST SWAP2 POP PUSH0 DUP3 SUB PUSH2 0x35F3 JUMPI PUSH2 0x35F2 PUSH2 0x3314 JUMP JUMPDEST JUMPDEST PUSH1 0x1 DUP3 SUB SWAP1 POP SWAP2 SWAP1 POP JUMP JUMPDEST PUSH32 0x546865207472616E73666572206F66207468697320746F6B656E206973206375 PUSH0 DUP3 ADD MSTORE PUSH32 0x7272656E746C792062616E6E6564000000000000000000000000000000000000 PUSH1 0x20 DUP3 ADD MSTORE POP JUMP JUMPDEST PUSH0 PUSH2 0x3658 PUSH1 0x2E DUP4 PUSH2 0x30A9 JUMP JUMPDEST SWAP2 POP PUSH2 0x3663 DUP3 PUSH2 0x35FE JUMP JUMPDEST PUSH1 0x40 DUP3 ADD SWAP1 POP SWAP2 SWAP1 POP JUMP JUMPDEST PUSH0 PUSH1 0x20 DUP3 ADD SWAP1 POP DUP2 DUP2 SUB PUSH0 DUP4 ADD MSTORE PUSH2 0x3685 DUP2 PUSH2 0x364C JUMP JUMPDEST SWAP1 POP SWAP2 SWAP1 POP JUMP JUMPDEST PUSH0 DUP2 SWAP1 POP SWAP2 SWAP1 POP JUMP JUMPDEST PUSH0 PUSH2 0x36AF PUSH2 0x36AA PUSH2 0x36A5 DUP5 PUSH2 0x28F7 JUMP JUMPDEST PUSH2 0x368C JUMP JUMPDEST PUSH2 0x297E JUMP JUMPDEST SWAP1 POP SWAP2 SWAP1 POP JUMP JUMPDEST PUSH2 0x36BF DUP2 PUSH2 0x3695 JUMP JUMPDEST DUP3 MSTORE POP POP JUMP JUMPDEST PUSH0 PUSH1 0x40 DUP3 ADD SWAP1 POP PUSH2 0x36D8 PUSH0 DUP4 ADD DUP6 PUSH2 0x2C5C JUMP JUMPDEST PUSH2 0x36E5 PUSH1 0x20 DUP4 ADD DUP5 PUSH2 0x36B6 JUMP JUMPDEST SWAP4 SWAP3 POP POP POP JUMP JUMPDEST PUSH0 PUSH1 0x60 DUP3 ADD SWAP1 POP PUSH2 0x36FF PUSH0 DUP4 ADD DUP7 PUSH2 0x2C5C JUMP JUMPDEST PUSH2 0x370C PUSH1 0x20 DUP4 ADD DUP6 PUSH2 0x36B6 JUMP JUMPDEST PUSH2 0x3719 PUSH1 0x40 DUP4 ADD DUP5 PUSH2 0x2C5C JUMP JUMPDEST SWAP5 SWAP4 POP POP POP POP JUMP JUMPDEST PUSH32 0x54686520696E70757420616464726573732063616E6E6F74206265207A65726F PUSH0 DUP3 ADD MSTORE POP JUMP JUMPDEST PUSH0 PUSH2 0x3755 PUSH1 0x20 DUP4 PUSH2 0x30A9 JUMP JUMPDEST SWAP2 POP PUSH2 0x3760 DUP3 PUSH2 0x3721 JUMP JUMPDEST PUSH1 0x20 DUP3 ADD SWAP1 POP SWAP2 SWAP1 POP JUMP JUMPDEST PUSH0 PUSH1 0x20 DUP3 ADD SWAP1 POP DUP2 DUP2 SUB PUSH0 DUP4 ADD MSTORE PUSH2 0x3782 DUP2 PUSH2 0x3749 JUMP JUMPDEST SWAP1 POP SWAP2 SWAP1 POP JUMP JUMPDEST PUSH32 0x5468652061646472657373206F6620746865206F776E657220616E6420746865 PUSH0 DUP3 ADD MSTORE PUSH32 0x206F70657261746F72206D75737420626520646966666572656E740000000000 PUSH1 0x20 DUP3 ADD MSTORE POP JUMP JUMPDEST PUSH0 PUSH2 0x37E3 PUSH1 0x3B DUP4 PUSH2 0x30A9 JUMP JUMPDEST SWAP2 POP PUSH2 0x37EE DUP3 PUSH2 0x3789 JUMP JUMPDEST PUSH1 0x40 DUP3 ADD SWAP1 POP SWAP2 SWAP1 POP JUMP JUMPDEST PUSH0 PUSH1 0x20 DUP3 ADD SWAP1 POP DUP2 DUP2 SUB PUSH0 DUP4 ADD MSTORE PUSH2 0x3810 DUP2 PUSH2 0x37D7 JUMP JUMPDEST SWAP1 POP SWAP2 SWAP1 POP JUMP JUMPDEST PUSH32 0x4974206973206E6F7420706F737369626C6520746F207265676973746572206E PUSH0 DUP3 ADD MSTORE PUSH32 0x6F77000000000000000000000000000000000000000000000000000000000000 PUSH1 0x20 DUP3 ADD MSTORE POP JUMP JUMPDEST PUSH0 PUSH2 0x3871 PUSH1 0x22 DUP4 PUSH2 0x30A9 JUMP JUMPDEST SWAP2 POP PUSH2 0x387C DUP3 PUSH2 0x3817 JUMP JUMPDEST PUSH1 0x40 DUP3 ADD SWAP1 POP SWAP2 SWAP1 POP JUMP JUMPDEST PUSH0 PUSH1 0x20 DUP3 ADD SWAP1 POP DUP2 DUP2 SUB PUSH0 DUP4 ADD MSTORE PUSH2 0x389E DUP2 PUSH2 0x3865 JUMP JUMPDEST SWAP1 POP SWAP2 SWAP1 POP JUMP JUMPDEST PUSH32 0x5468652061646472657373206F66207468652072656769737472616E74206D75 PUSH0 DUP3 ADD MSTORE PUSH32 0x7374206E6F742062652030206F72207468652061646472657373206F66206120 PUSH1 0x20 DUP3 ADD MSTORE PUSH32 0x636F6E7472616374000000000000000000000000000000000000000000000000 PUSH1 0x40 DUP3 ADD MSTORE POP JUMP JUMPDEST PUSH0 PUSH2 0x3925 PUSH1 0x48 DUP4 PUSH2 0x30A9 JUMP JUMPDEST SWAP2 POP PUSH2 0x3930 DUP3 PUSH2 0x38A5 JUMP JUMPDEST PUSH1 0x60 DUP3 ADD SWAP1 POP SWAP2 SWAP1 POP JUMP JUMPDEST PUSH0 PUSH1 0x20 DUP3 ADD SWAP1 POP DUP2 DUP2 SUB PUSH0 DUP4 ADD MSTORE PUSH2 0x3952 DUP2 PUSH2 0x3919 JUMP JUMPDEST SWAP1 POP SWAP2 SWAP1 POP JUMP JUMPDEST PUSH32 0x54686520616D6F756E742073686F756C64206E6F74206265206C657373207468 PUSH0 DUP3 ADD MSTORE PUSH32 0x616E20746865206D696E74207072696365000000000000000000000000000000 PUSH1 0x20 DUP3 ADD MSTORE POP JUMP JUMPDEST PUSH0 PUSH2 0x39B3 PUSH1 0x31 DUP4 PUSH2 0x30A9 JUMP JUMPDEST SWAP2 POP PUSH2 0x39BE DUP3 PUSH2 0x3959 JUMP JUMPDEST PUSH1 0x40 DUP3 ADD SWAP1 POP SWAP2 SWAP1 POP JUMP JUMPDEST PUSH0 PUSH1 0x20 DUP3 ADD SWAP1 POP DUP2 DUP2 SUB PUSH0 DUP4 ADD MSTORE PUSH2 0x39E0 DUP2 PUSH2 0x39A7 JUMP JUMPDEST SWAP1 POP SWAP2 SWAP1 POP JUMP JUMPDEST PUSH0 DUP2 SWAP1 POP SWAP3 SWAP2 POP POP JUMP JUMPDEST POP JUMP JUMPDEST PUSH0 PUSH2 0x39FF PUSH0 DUP4 PUSH2 0x39E7 JUMP JUMPDEST SWAP2 POP PUSH2 0x3A0A DUP3 PUSH2 0x39F1 JUMP JUMPDEST PUSH0 DUP3 ADD SWAP1 POP SWAP2 SWAP1 POP JUMP JUMPDEST PUSH0 PUSH2 0x3A1E DUP3 PUSH2 0x39F4 JUMP JUMPDEST SWAP2 POP DUP2 SWAP1 POP SWAP2 SWAP1 POP JUMP JUMPDEST PUSH32 0x54686520616D6F756E7420776173206E6F742073656E74000000000000000000 PUSH0 DUP3 ADD MSTORE POP JUMP JUMPDEST PUSH0 PUSH2 0x3A5C PUSH1 0x17 DUP4 PUSH2 0x30A9 JUMP JUMPDEST SWAP2 POP PUSH2 0x3A67 DUP3 PUSH2 0x3A28 JUMP JUMPDEST PUSH1 0x20 DUP3 ADD SWAP1 POP SWAP2 SWAP1 POP JUMP JUMPDEST PUSH0 PUSH1 0x20 DUP3 ADD SWAP1 POP DUP2 DUP2 SUB PUSH0 DUP4 ADD MSTORE PUSH2 0x3A89 DUP2 PUSH2 0x3A50 JUMP JUMPDEST SWAP1 POP SWAP2 SWAP1 POP JUMP JUMPDEST PUSH0 DUP2 SWAP1 POP SWAP3 SWAP2 POP POP JUMP JUMPDEST PUSH0 PUSH2 0x3AA4 DUP3 PUSH2 0x309F JUMP JUMPDEST PUSH2 0x3AAE DUP2 DUP6 PUSH2 0x3A90 JUMP JUMPDEST SWAP4 POP PUSH2 0x3ABE DUP2 DUP6 PUSH1 0x20 DUP7 ADD PUSH2 0x301F JUMP JUMPDEST DUP1 DUP5 ADD SWAP2 POP POP SWAP3 SWAP2 POP POP JUMP JUMPDEST PUSH0 PUSH2 0x3AD5 DUP3 DUP6 PUSH2 0x3A9A JUMP JUMPDEST SWAP2 POP PUSH2 0x3AE1 DUP3 DUP5 PUSH2 0x3A9A JUMP JUMPDEST SWAP2 POP DUP2 SWAP1 POP SWAP4 SWAP3 POP POP POP JUMP JUMPDEST PUSH32 0x54686520494420656E746572656420697320696E76616C69642E204974206D75 PUSH0 DUP3 ADD MSTORE PUSH32 0x737420626520696E207468697320696E74657276616C2030203C206964203C3D PUSH1 0x20 DUP3 ADD MSTORE PUSH32 0x206D6178696D756D206D696E7461626C6520746F6B656E730000000000000000 PUSH1 0x40 DUP3 ADD MSTORE POP JUMP JUMPDEST PUSH0 PUSH2 0x3B6D PUSH1 0x58 DUP4 PUSH2 0x30A9 JUMP JUMPDEST SWAP2 POP PUSH2 0x3B78 DUP3 PUSH2 0x3AED JUMP JUMPDEST PUSH1 0x60 DUP3 ADD SWAP1 POP SWAP2 SWAP1 POP JUMP JUMPDEST PUSH0 PUSH1 0x20 DUP3 ADD SWAP1 POP DUP2 DUP2 SUB PUSH0 DUP4 ADD MSTORE PUSH2 0x3B9A DUP2 PUSH2 0x3B61 JUMP JUMPDEST SWAP1 POP SWAP2 SWAP1 POP JUMP JUMPDEST PUSH0 PUSH1 0x20 DUP3 ADD SWAP1 POP PUSH2 0x3BB4 PUSH0 DUP4 ADD DUP5 PUSH2 0x36B6 JUMP JUMPDEST SWAP3 SWAP2 POP POP JUMP JUMPDEST PUSH0 PUSH1 0x80 DUP3 ADD SWAP1 POP PUSH2 0x3BCD PUSH0 DUP4 ADD DUP8 PUSH2 0x2C5C JUMP JUMPDEST PUSH2 0x3BDA PUSH1 0x20 DUP4 ADD DUP7 PUSH2 0x2C5C JUMP JUMPDEST PUSH2 0x3BE7 PUSH1 0x40 DUP4 ADD DUP6 PUSH2 0x2C09 JUMP JUMPDEST DUP2 DUP2 SUB PUSH1 0x60 DUP4 ADD MSTORE PUSH2 0x3BF9 DUP2 DUP5 PUSH2 0x3047 JUMP JUMPDEST SWAP1 POP SWAP6 SWAP5 POP POP POP POP POP JUMP JUMPDEST PUSH2 0x3C0D DUP2 PUSH2 0x2F4C JUMP JUMPDEST DUP2 EQ PUSH2 0x3C17 JUMPI PUSH0 DUP1 REVERT JUMPDEST POP JUMP JUMPDEST PUSH0 DUP2 MLOAD SWAP1 POP PUSH2 0x3C28 DUP2 PUSH2 0x3C04 JUMP JUMPDEST SWAP3 SWAP2 POP POP JUMP JUMPDEST PUSH0 PUSH1 0x20 DUP3 DUP5 SUB SLT ISZERO PUSH2 0x3C43 JUMPI PUSH2 0x3C42 PUSH2 0x2895 JUMP JUMPDEST JUMPDEST PUSH0 PUSH2 0x3C50 DUP5 DUP3 DUP6 ADD PUSH2 0x3C1A JUMP JUMPDEST SWAP2 POP POP SWAP3 SWAP2 POP POP JUMP INVALID LOG2 PUSH5 0x6970667358 0x22 SLT KECCAK256 0xB9 CREATE MSIZE SELFBALANCE SIGNEXTEND SWAP9 0xD1 0xA8 EXP 0x2F SMOD SWAP2 SGT NUMBER PUSH30 0x4DAE8602FA1F822821FCEA6F92856B268864736F6C634300081400330000 "
				},
				"gasEstimates": {
					"creation": {
						"codeDepositCost": "3100600",
						"executionCost": "infinite",
						"totalCost": "infinite"
					},
					"external": {
						"approve(address,uint16)": "infinite",
						"balanceOf(address)": "3056",
						"getApproved(uint16)": "infinite",
						"governoraccess(address)": "662",
						"isApprovedForAll(address,address)": "infinite",
						"mint()": "infinite",
						"name()": "2497",
						"onERC721Received(address,address,uint16,bytes)": "infinite",
						"ownerOf(uint16)": "infinite",
						"safeTransferFrom(address,address,uint16)": "infinite",
						"safeTransferFrom(address,address,uint16,bytes)": "infinite",
						"setApprovalForAll(address,bool)": "infinite",
						"setBan(uint16,bool)": "infinite",
						"setRegister(uint48)": "infinite",
						"stateVoting()": "391",
						"symbol()": "2569",
						"tokenURI(uint16)": "infinite",
						"transferFrom(address,address,uint16)": "infinite",
						"updateMintInfo(uint16,uint256,address,address,uint256,uint16[1201])": "infinite"
					},
					"internal": {
						"_aprove(address,uint16,address)": "26307",
						"_baseURI()": "infinite",
						"_checkOnERC721Received(address,address,uint16,bytes memory)": "infinite",
						"_requireOwned(uint16)": "infinite",
						"_update(address,uint16,address)": "infinite",
						"setStateVoting(bytes32)": "11"
					}
				},
				"methodIdentifiers": {
					"approve(address,uint16)": "e560ca43",
					"balanceOf(address)": "70a08231",
					"getApproved(uint16)": "93b871f2",
					"governoraccess(address)": "3610feb3",
					"isApprovedForAll(address,address)": "e985e9c5",
					"mint()": "1249c58b",
					"name()": "06fdde03",
					"onERC721Received(address,address,uint16,bytes)": "b1cff380",
					"ownerOf(uint16)": "82a7cf1e",
					"safeTransferFrom(address,address,uint16)": "07394401",
					"safeTransferFrom(address,address,uint16,bytes)": "b145ae31",
					"setApprovalForAll(address,bool)": "a22cb465",
					"setBan(uint16,bool)": "f12c2c7a",
					"setRegister(uint48)": "d5ebe3df",
					"stateVoting()": "6e1514f1",
					"symbol()": "95d89b41",
					"tokenURI(uint16)": "dd7d8440",
					"transferFrom(address,address,uint16)": "4ec3dcfe",
					"updateMintInfo(uint16,uint256,address,address,uint256,uint16[1201])": "0ab5b8cd"
				}
			},
			"storageLayout": {
				"storage": [
					{
						"astId": 1908,
						"contract": "contracts/ERC721TokenContractName.sol:ERC721TokenContractName",
						"label": "_name",
						"offset": 0,
						"slot": "0",
						"type": "t_bytes20"
					},
					{
						"astId": 1910,
						"contract": "contracts/ERC721TokenContractName.sol:ERC721TokenContractName",
						"label": "_symbol",
						"offset": 20,
						"slot": "0",
						"type": "t_bytes10"
					},
					{
						"astId": 1936,
						"contract": "contracts/ERC721TokenContractName.sol:ERC721TokenContractName",
						"label": "mintInfo",
						"offset": 0,
						"slot": "1",
						"type": "t_struct(MintInfo)1933_storage"
					},
					{
						"astId": 1940,
						"contract": "contracts/ERC721TokenContractName.sol:ERC721TokenContractName",
						"label": "_owners",
						"offset": 0,
						"slot": "1447",
						"type": "t_array(t_address)1201_storage"
					},
					{
						"astId": 1944,
						"contract": "contracts/ERC721TokenContractName.sol:ERC721TokenContractName",
						"label": "ban",
						"offset": 0,
						"slot": "2648",
						"type": "t_array(t_bool)1201_storage"
					},
					{
						"astId": 1950,
						"contract": "contracts/ERC721TokenContractName.sol:ERC721TokenContractName",
						"label": "_balanceAndTokId",
						"offset": 0,
						"slot": "2686",
						"type": "t_mapping(t_address,t_array(t_uint16)1201_storage)"
					},
					{
						"astId": 1954,
						"contract": "contracts/ERC721TokenContractName.sol:ERC721TokenContractName",
						"label": "_tokenApprovals",
						"offset": 0,
						"slot": "2687",
						"type": "t_mapping(t_uint16,t_address)"
					},
					{
						"astId": 1960,
						"contract": "contracts/ERC721TokenContractName.sol:ERC721TokenContractName",
						"label": "_operatorApprovals",
						"offset": 0,
						"slot": "2688",
						"type": "t_mapping(t_address,t_mapping(t_address,t_bool))"
					}
				],
				"types": {
					"t_address": {
						"encoding": "inplace",
						"label": "address",
						"numberOfBytes": "20"
					},
					"t_array(t_address)1201_storage": {
						"base": "t_address",
						"encoding": "inplace",
						"label": "address[1201]",
						"numberOfBytes": "38432"
					},
					"t_array(t_bool)1201_storage": {
						"base": "t_bool",
						"encoding": "inplace",
						"label": "bool[1201]",
						"numberOfBytes": "1216"
					},
					"t_array(t_uint16)1201_storage": {
						"base": "t_uint16",
						"encoding": "inplace",
						"label": "uint16[1201]",
						"numberOfBytes": "2432"
					},
					"t_array(t_uint48)1201_storage": {
						"base": "t_uint48",
						"encoding": "inplace",
						"label": "uint48[1201]",
						"numberOfBytes": "7712"
					},
					"t_bool": {
						"encoding": "inplace",
						"label": "bool",
						"numberOfBytes": "1"
					},
					"t_bytes10": {
						"encoding": "inplace",
						"label": "bytes10",
						"numberOfBytes": "10"
					},
					"t_bytes20": {
						"encoding": "inplace",
						"label": "bytes20",
						"numberOfBytes": "20"
					},
					"t_mapping(t_address,t_array(t_uint16)1201_storage)": {
						"encoding": "mapping",
						"key": "t_address",
						"label": "mapping(address => uint16[1201])",
						"numberOfBytes": "32",
						"value": "t_array(t_uint16)1201_storage"
					},
					"t_mapping(t_address,t_bool)": {
						"encoding": "mapping",
						"key": "t_address",
						"label": "mapping(address => bool)",
						"numberOfBytes": "32",
						"value": "t_bool"
					},
					"t_mapping(t_address,t_mapping(t_address,t_bool))": {
						"encoding": "mapping",
						"key": "t_address",
						"label": "mapping(address => mapping(address => bool))",
						"numberOfBytes": "32",
						"value": "t_mapping(t_address,t_bool)"
					},
					"t_mapping(t_uint16,t_address)": {
						"encoding": "mapping",
						"key": "t_uint16",
						"label": "mapping(uint16 => address)",
						"numberOfBytes": "32",
						"value": "t_address"
					},
					"t_struct(MintInfo)1933_storage": {
						"encoding": "inplace",
						"label": "struct ERC721TokenContractName.MintInfo",
						"members": [
							{
								"astId": 1912,
								"contract": "contracts/ERC721TokenContractName.sol:ERC721TokenContractName",
								"label": "maxMint",
								"offset": 0,
								"slot": "0",
								"type": "t_uint16"
							},
							{
								"astId": 1914,
								"contract": "contracts/ERC721TokenContractName.sol:ERC721TokenContractName",
								"label": "currentTokens",
								"offset": 2,
								"slot": "0",
								"type": "t_uint16"
							},
							{
								"astId": 1916,
								"contract": "contracts/ERC721TokenContractName.sol:ERC721TokenContractName",
								"label": "nRegistrants",
								"offset": 4,
								"slot": "0",
								"type": "t_uint16"
							},
							{
								"astId": 1918,
								"contract": "contracts/ERC721TokenContractName.sol:ERC721TokenContractName",
								"label": "executor",
								"offset": 6,
								"slot": "0",
								"type": "t_address"
							},
							{
								"astId": 1920,
								"contract": "contracts/ERC721TokenContractName.sol:ERC721TokenContractName",
								"label": "bankAddress",
								"offset": 0,
								"slot": "1",
								"type": "t_address"
							},
							{
								"astId": 1922,
								"contract": "contracts/ERC721TokenContractName.sol:ERC721TokenContractName",
								"label": "registrationStartTime",
								"offset": 0,
								"slot": "2",
								"type": "t_uint256"
							},
							{
								"astId": 1924,
								"contract": "contracts/ERC721TokenContractName.sol:ERC721TokenContractName",
								"label": "mintPrice",
								"offset": 0,
								"slot": "3",
								"type": "t_uint256"
							},
							{
								"astId": 1928,
								"contract": "contracts/ERC721TokenContractName.sol:ERC721TokenContractName",
								"label": "salts",
								"offset": 0,
								"slot": "4",
								"type": "t_array(t_uint48)1201_storage"
							},
							{
								"astId": 1932,
								"contract": "contracts/ERC721TokenContractName.sol:ERC721TokenContractName",
								"label": "registrants",
								"offset": 0,
								"slot": "245",
								"type": "t_array(t_address)1201_storage"
							}
						],
						"numberOfBytes": "46272"
					},
					"t_uint16": {
						"encoding": "inplace",
						"label": "uint16",
						"numberOfBytes": "2"
					},
					"t_uint256": {
						"encoding": "inplace",
						"label": "uint256",
						"numberOfBytes": "32"
					},
					"t_uint48": {
						"encoding": "inplace",
						"label": "uint48",
						"numberOfBytes": "6"
					}
				}
			},
			"userdoc": {
				"kind": "user",
				"methods": {},
				"version": 1
			}
		}
	}
}