{
	"data": {
		"bytecode": {
			"linkReferences": {},
			"object": "60a060405234801562000010575f80fd5b506316a8c80042620000239190620000fd565b65ffffffffffff1660808165ffffffffffff16815250503360035f015f6101000a81548173ffffffffffffffffffffffffffffffffffffffff021916908373ffffffffffffffffffffffffffffffffffffffff16021790555060035f01601581819054906101000a900463ffffffff1680929190620000a29062000146565b91906101000a81548163ffffffff021916908363ffffffff1602179055505062000176565b5f819050919050565b7f4e487b71000000000000000000000000000000000000000000000000000000005f52601160045260245ffd5b5f6200010982620000c7565b91506200011683620000c7565b9250828201905080821115620001315762000130620000d0565b5b92915050565b5f63ffffffff82169050919050565b5f620001528262000137565b915063ffffffff82036200016b576200016a620000d0565b5b600182019050919050565b608051611a2d620001b25f395f8181610271015281816105ff015281816108d701528181610b5d01528181610e4a0152610fcb0152611a2d5ff3fe608060405234801561000f575f80fd5b50600436106100e8575f3560e01c80639c20fe711161008a578063c5a1c5c111610064578063c5a1c5c1146101fa578063ca4cce6814610218578063e47a9d4614610234578063ee7126c314610252576100e8565b80639c20fe71146101a4578063b5c09c68146101c0578063c387b49c146101dc576100e8565b8063289b3c0d116100c6578063289b3c0d1461012e57806352e305de1461014c57806366410997146101685780636cf106d714610186576100e8565b8063054203bd146100ec5780630df4c390146101085780631f72783a14610112575b5f80fd5b610106600480360381019061010191906116c0565b61026e565b005b610110610424565b005b61012c600480360381019061012791906116c0565b6105fc565b005b6101366108aa565b60405161014391906116fa565b60405180910390f35b610166600480360381019061016191906116c0565b6108d4565b005b610170610b18565b60405161017d91906116fa565b60405180910390f35b61018e610b42565b60405161019b919061172d565b60405180910390f35b6101be60048036038101906101b991906116c0565b610b5a565b005b6101da60048036038101906101d59190611770565b610e47565b005b6101e4610f83565b6040516101f191906117b9565b60405180910390f35b610202610f9e565b60405161020f91906116fa565b60405180910390f35b610232600480360381019061022d91906116c0565b610fc8565b005b61023c6111df565b60405161024991906116fa565b60405180910390f35b61026c600480360381019061026791906116c0565b6111e6565b005b427f000000000000000000000000000000000000000000000000000000000000000065ffffffffffff161015610318576102a6610f9e565b73ffffffffffffffffffffffffffffffffffffffff163373ffffffffffffffffffffffffffffffffffffffff1614610313576040517f08c379a000000000000000000000000000000000000000000000000000000000815260040161030a9061182c565b60405180910390fd5b61039e565b610320610b18565b73ffffffffffffffffffffffffffffffffffffffff163373ffffffffffffffffffffffffffffffffffffffff1614801561035e575061035d610b42565b5b61039d576040517f08c379a00000000000000000000000000000000000000000000000000000000081526004016103949061182c565b60405180910390fd5b5b8060025f6101000a81548173ffffffffffffffffffffffffffffffffffffffff021916908373ffffffffffffffffffffffffffffffffffffffff1602179055508073ffffffffffffffffffffffffffffffffffffffff167f3553f1f7ef0242113266a8d183b621bb87468c99237f36b1150b6ab3d688b68660405160405180910390a250565b3373ffffffffffffffffffffffffffffffffffffffff1660025f9054906101000a900473ffffffffffffffffffffffffffffffffffffffff1673ffffffffffffffffffffffffffffffffffffffff16036105c85760025f6101000a81549073ffffffffffffffffffffffffffffffffffffffff02191690553360035f015f6101000a81548173ffffffffffffffffffffffffffffffffffffffff021916908373ffffffffffffffffffffffffffffffffffffffff16021790555060035f01601581819054906101000a900463ffffffff168092919061050290611877565b91906101000a81548163ffffffff021916908363ffffffff1602179055505060035f0160149054906101000a900460ff1615610542576105415f61142e565b5b60035f0160159054906101000a900463ffffffff1663ffffffff1660035f015f9054906101000a900473ffffffffffffffffffffffffffffffffffffffff1673ffffffffffffffffffffffffffffffffffffffff167f05ad9b3688012cd825c1bfb941e4f5afb2558af6af3deaddf01dbb5e85abdaf960405160405180910390a36105fa565b6040517fb513955100000000000000000000000000000000000000000000000000000000815260040160405180910390fd5b565b427f000000000000000000000000000000000000000000000000000000000000000065ffffffffffff1610156106a657610634610f9e565b73ffffffffffffffffffffffffffffffffffffffff163373ffffffffffffffffffffffffffffffffffffffff16146106a1576040517f08c379a00000000000000000000000000000000000000000000000000000000081526004016106989061182c565b60405180910390fd5b61072c565b6106ae610b18565b73ffffffffffffffffffffffffffffffffffffffff163373ffffffffffffffffffffffffffffffffffffffff161480156106ec57506106eb610b42565b5b61072b576040517f08c379a00000000000000000000000000000000000000000000000000000000081526004016107229061182c565b60405180910390fd5b5b5f8173ffffffffffffffffffffffffffffffffffffffff163b111561086a573373ffffffffffffffffffffffffffffffffffffffff1660035f015f9054906101000a900473ffffffffffffffffffffffffffffffffffffffff1673ffffffffffffffffffffffffffffffffffffffff16036107af576107aa81611559565b610865565b6213c680426107be91906118ab565b600260146101000a81548165ffffffffffff021916908365ffffffffffff160217905550805f806101000a81548173ffffffffffffffffffffffffffffffffffffffff021916908373ffffffffffffffffffffffffffffffffffffffff1602179055508073ffffffffffffffffffffffffffffffffffffffff167f675b770e821ba4aad20be77c58f912d689226272e805637f42f838a6035eed8660405160405180910390a25b6108a7565b806040517fc632231500000000000000000000000000000000000000000000000000000000815260040161089e91906116fa565b60405180910390fd5b50565b5f60045f015f9054906101000a900473ffffffffffffffffffffffffffffffffffffffff16905090565b427f000000000000000000000000000000000000000000000000000000000000000065ffffffffffff16101561097e5761090c610f9e565b73ffffffffffffffffffffffffffffffffffffffff163373ffffffffffffffffffffffffffffffffffffffff1614610979576040517f08c379a00000000000000000000000000000000000000000000000000000000081526004016109709061182c565b60405180910390fd5b610a04565b610986610b18565b73ffffffffffffffffffffffffffffffffffffffff163373ffffffffffffffffffffffffffffffffffffffff161480156109c457506109c3610b42565b5b610a03576040517f08c379a00000000000000000000000000000000000000000000000000000000081526004016109fa9061182c565b60405180910390fd5b5b8073ffffffffffffffffffffffffffffffffffffffff165f8054906101000a900473ffffffffffffffffffffffffffffffffffffffff1673ffffffffffffffffffffffffffffffffffffffff1603610ad857600260146101000a81549065ffffffffffff02191690555f806101000a81549073ffffffffffffffffffffffffffffffffffffffff02191690558073ffffffffffffffffffffffffffffffffffffffff167ff299f61c7e493f99b20cb36c587ca903d085d5206bfe4452d295711e372da02960405160405180910390a2610b15565b806040517fc6322315000000000000000000000000000000000000000000000000000000008152600401610b0c91906116fa565b60405180910390fd5b50565b5f60035f015f9054906101000a900473ffffffffffffffffffffffffffffffffffffffff16905090565b5f60035f0160149054906101000a900460ff16905090565b427f000000000000000000000000000000000000000000000000000000000000000065ffffffffffff161015610c0457610b92610f9e565b73ffffffffffffffffffffffffffffffffffffffff163373ffffffffffffffffffffffffffffffffffffffff1614610bff576040517f08c379a0000000000000000000000000000000000000000000000000000000008152600401610bf69061182c565b60405180910390fd5b610c8a565b610c0c610b18565b73ffffffffffffffffffffffffffffffffffffffff163373ffffffffffffffffffffffffffffffffffffffff16148015610c4a5750610c49610b42565b5b610c89576040517f08c379a0000000000000000000000000000000000000000000000000000000008152600401610c809061182c565b60405180910390fd5b5b42600260149054906101000a900465ffffffffffff1665ffffffffffff161015610de8575f600260149054906101000a900465ffffffffffff1665ffffffffffff1603610d0c576040517f08c379a0000000000000000000000000000000000000000000000000000000008152600401610d0390611928565b60405180910390fd5b8073ffffffffffffffffffffffffffffffffffffffff165f8054906101000a900473ffffffffffffffffffffffffffffffffffffffff1673ffffffffffffffffffffffffffffffffffffffff1603610da657600260146101000a81549065ffffffffffff02191690555f806101000a81549073ffffffffffffffffffffffffffffffffffffffff0219169055610da181611559565b610de3565b806040517fc6322315000000000000000000000000000000000000000000000000000000008152600401610dda91906116fa565b60405180910390fd5b610e44565b42600260149054906101000a900465ffffffffffff16610e089190611957565b6040517f223a6cbb000000000000000000000000000000000000000000000000000000008152600401610e3b919061199f565b60405180910390fd5b50565b427f000000000000000000000000000000000000000000000000000000000000000065ffffffffffff161015610ef157610e7f610f9e565b73ffffffffffffffffffffffffffffffffffffffff163373ffffffffffffffffffffffffffffffffffffffff1614610eec576040517f08c379a0000000000000000000000000000000000000000000000000000000008152600401610ee39061182c565b60405180910390fd5b610f77565b610ef9610b18565b73ffffffffffffffffffffffffffffffffffffffff163373ffffffffffffffffffffffffffffffffffffffff16148015610f375750610f36610b42565b5b610f76576040517f08c379a0000000000000000000000000000000000000000000000000000000008152600401610f6d9061182c565b60405180910390fd5b5b610f808161142e565b50565b5f60045f0160159054906101000a900463ffffffff16905090565b5f60055f015f9054906101000a900473ffffffffffffffffffffffffffffffffffffffff16905090565b427f000000000000000000000000000000000000000000000000000000000000000065ffffffffffff16101561107257611000610f9e565b73ffffffffffffffffffffffffffffffffffffffff163373ffffffffffffffffffffffffffffffffffffffff161461106d576040517f08c379a00000000000000000000000000000000000000000000000000000000081526004016110649061182c565b60405180910390fd5b6110f8565b61107a610b18565b73ffffffffffffffffffffffffffffffffffffffff163373ffffffffffffffffffffffffffffffffffffffff161480156110b857506110b7610b42565b5b6110f7576040517f08c379a00000000000000000000000000000000000000000000000000000000081526004016110ee9061182c565b60405180910390fd5b5b5f8173ffffffffffffffffffffffffffffffffffffffff163b111561119f578060015f6101000a81548173ffffffffffffffffffffffffffffffffffffffff021916908373ffffffffffffffffffffffffffffffffffffffff1602179055508073ffffffffffffffffffffffffffffffffffffffff167fe8d8e3c7c3ebec0c177d0fe22d223f8b5071db39155104808d45027e368ba77a60405160405180910390a26111dc565b806040517f84dbc6cb0000000000000000000000000000000000000000000000000000000081526004016111d391906116fa565b60405180910390fd5b50565b5f30905090565b6111ee610b18565b73ffffffffffffffffffffffffffffffffffffffff163373ffffffffffffffffffffffffffffffffffffffff1614801561122c575061122b610b42565b5b61126b576040517f08c379a00000000000000000000000000000000000000000000000000000000081526004016112629061182c565b60405180910390fd5b8073ffffffffffffffffffffffffffffffffffffffff1660015f9054906101000a900473ffffffffffffffffffffffffffffffffffffffff1673ffffffffffffffffffffffffffffffffffffffff16036113ee5760015f6101000a81549073ffffffffffffffffffffffffffffffffffffffff02191690558060045f015f6101000a81548173ffffffffffffffffffffffffffffffffffffffff021916908373ffffffffffffffffffffffffffffffffffffffff16021790555060045f01601581819054906101000a900463ffffffff168092919061134990611877565b91906101000a81548163ffffffff021916908363ffffffff1602179055505060045f0160159054906101000a900463ffffffff1663ffffffff1660045f015f9054906101000a900473ffffffffffffffffffffffffffffffffffffffff1673ffffffffffffffffffffffffffffffffffffffff167f5e86008a8467d1efccfe6cb6bd49ba7278d6af2745a1e6994e443322a423709360405160405180910390a361142b565b806040517f84dbc6cb00000000000000000000000000000000000000000000000000000000815260040161142291906116fa565b60405180910390fd5b50565b8060035f0160146101000a81548160ff02191690831515021790555060045f015f9054906101000a900473ffffffffffffffffffffffffffffffffffffffff1673ffffffffffffffffffffffffffffffffffffffff1663f4e25380826040518263ffffffff1660e01b81526004016114a6919061172d565b6020604051808303815f875af11580156114c2573d5f803e3d5ffd5b505050506040513d601f19601f820116820180604052508101906114e691906119cc565b1561152357600115158115157f067d0bd9a6167d98b43392618557d3cba4aa9b3c54791c0b96f1a20a05eb8b8460405160405180910390a3611556565b5f15158115157f067d0bd9a6167d98b43392618557d3cba4aa9b3c54791c0b96f1a20a05eb8b8460405160405180910390a35b50565b8060055f015f6101000a81548173ffffffffffffffffffffffffffffffffffffffff021916908373ffffffffffffffffffffffffffffffffffffffff16021790555060055f01601581819054906101000a900463ffffffff16809291906115bf90611877565b91906101000a81548163ffffffff021916908363ffffffff1602179055505060055f0160159054906101000a900463ffffffff1663ffffffff1660055f015f9054906101000a900473ffffffffffffffffffffffffffffffffffffffff1673ffffffffffffffffffffffffffffffffffffffff167ff7f7c26682668c39fd8c6dbca125bd9466e743b9e38acc3240867c139cd93c3060405160405180910390a350565b5f80fd5b5f73ffffffffffffffffffffffffffffffffffffffff82169050919050565b5f61168f82611666565b9050919050565b61169f81611685565b81146116a9575f80fd5b50565b5f813590506116ba81611696565b92915050565b5f602082840312156116d5576116d4611662565b5b5f6116e2848285016116ac565b91505092915050565b6116f481611685565b82525050565b5f60208201905061170d5f8301846116eb565b92915050565b5f8115159050919050565b61172781611713565b82525050565b5f6020820190506117405f83018461171e565b92915050565b61174f81611713565b8114611759575f80fd5b50565b5f8135905061176a81611746565b92915050565b5f6020828403121561178557611784611662565b5b5f6117928482850161175c565b91505092915050565b5f63ffffffff82169050919050565b6117b38161179b565b82525050565b5f6020820190506117cc5f8301846117aa565b92915050565b5f82825260208201905092915050565b7f416363657373206973206e6f742076616c6964000000000000000000000000005f82015250565b5f6118166013836117d2565b9150611821826117e2565b602082019050919050565b5f6020820190508181035f8301526118438161180a565b9050919050565b7f4e487b71000000000000000000000000000000000000000000000000000000005f52601160045260245ffd5b5f6118818261179b565b915063ffffffff82036118975761189661184a565b5b600182019050919050565b5f819050919050565b5f6118b5826118a2565b91506118c0836118a2565b92508282019050808211156118d8576118d761184a565b5b92915050565b7f546865207265717565737420697320696e76616c6964000000000000000000005f82015250565b5f6119126016836117d2565b915061191d826118de565b602082019050919050565b5f6020820190508181035f83015261193f81611906565b9050919050565b5f65ffffffffffff82169050919050565b5f61196182611946565b915061196c83611946565b9250828203905065ffffffffffff81111561198a5761198961184a565b5b92915050565b61199981611946565b82525050565b5f6020820190506119b25f830184611990565b92915050565b5f815190506119c681611746565b92915050565b5f602082840312156119e1576119e0611662565b5b5f6119ee848285016119b8565b9150509291505056fea26469706673582212209c74fac356d48570f5af0255f2ef02d5eaecf0fa601fcd8490530eca60f627b164736f6c63430008140033",
			"opcodes": "PUSH1 0xA0 PUSH1 0x40 MSTORE CALLVALUE DUP1 ISZERO PUSH3 0x10 JUMPI PUSH0 DUP1 REVERT JUMPDEST POP PUSH4 0x16A8C800 TIMESTAMP PUSH3 0x23 SWAP2 SWAP1 PUSH3 0xFD JUMP JUMPDEST PUSH6 0xFFFFFFFFFFFF AND PUSH1 0x80 DUP2 PUSH6 0xFFFFFFFFFFFF AND DUP2 MSTORE POP POP CALLER PUSH1 0x3 PUSH0 ADD PUSH0 PUSH2 0x100 EXP DUP2 SLOAD DUP2 PUSH20 0xFFFFFFFFFFFFFFFFFFFFFFFFFFFFFFFFFFFFFFFF MUL NOT AND SWAP1 DUP4 PUSH20 0xFFFFFFFFFFFFFFFFFFFFFFFFFFFFFFFFFFFFFFFF AND MUL OR SWAP1 SSTORE POP PUSH1 0x3 PUSH0 ADD PUSH1 0x15 DUP2 DUP2 SWAP1 SLOAD SWAP1 PUSH2 0x100 EXP SWAP1 DIV PUSH4 0xFFFFFFFF AND DUP1 SWAP3 SWAP2 SWAP1 PUSH3 0xA2 SWAP1 PUSH3 0x146 JUMP JUMPDEST SWAP2 SWAP1 PUSH2 0x100 EXP DUP2 SLOAD DUP2 PUSH4 0xFFFFFFFF MUL NOT AND SWAP1 DUP4 PUSH4 0xFFFFFFFF AND MUL OR SWAP1 SSTORE POP POP PUSH3 0x176 JUMP JUMPDEST PUSH0 DUP2 SWAP1 POP SWAP2 SWAP1 POP JUMP JUMPDEST PUSH32 0x4E487B7100000000000000000000000000000000000000000000000000000000 PUSH0 MSTORE PUSH1 0x11 PUSH1 0x4 MSTORE PUSH1 0x24 PUSH0 REVERT JUMPDEST PUSH0 PUSH3 0x109 DUP3 PUSH3 0xC7 JUMP JUMPDEST SWAP2 POP PUSH3 0x116 DUP4 PUSH3 0xC7 JUMP JUMPDEST SWAP3 POP DUP3 DUP3 ADD SWAP1 POP DUP1 DUP3 GT ISZERO PUSH3 0x131 JUMPI PUSH3 0x130 PUSH3 0xD0 JUMP JUMPDEST JUMPDEST SWAP3 SWAP2 POP POP JUMP JUMPDEST PUSH0 PUSH4 0xFFFFFFFF DUP3 AND SWAP1 POP SWAP2 SWAP1 POP JUMP JUMPDEST PUSH0 PUSH3 0x152 DUP3 PUSH3 0x137 JUMP JUMPDEST SWAP2 POP PUSH4 0xFFFFFFFF DUP3 SUB PUSH3 0x16B JUMPI PUSH3 0x16A PUSH3 0xD0 JUMP JUMPDEST JUMPDEST PUSH1 0x1 DUP3 ADD SWAP1 POP SWAP2 SWAP1 POP JUMP JUMPDEST PUSH1 0x80 MLOAD PUSH2 0x1A2D PUSH3 0x1B2 PUSH0 CODECOPY PUSH0 DUP2 DUP2 PUSH2 0x271 ADD MSTORE DUP2 DUP2 PUSH2 0x5FF ADD MSTORE DUP2 DUP2 PUSH2 0x8D7 ADD MSTORE DUP2 DUP2 PUSH2 0xB5D ADD MSTORE DUP2 DUP2 PUSH2 0xE4A ADD MSTORE PUSH2 0xFCB ADD MSTORE PUSH2 0x1A2D PUSH0 RETURN INVALID PUSH1 0x80 PUSH1 0x40 MSTORE CALLVALUE DUP1 ISZERO PUSH2 0xF JUMPI PUSH0 DUP1 REVERT JUMPDEST POP PUSH1 0x4 CALLDATASIZE LT PUSH2 0xE8 JUMPI PUSH0 CALLDATALOAD PUSH1 0xE0 SHR DUP1 PUSH4 0x9C20FE71 GT PUSH2 0x8A JUMPI DUP1 PUSH4 0xC5A1C5C1 GT PUSH2 0x64 JUMPI DUP1 PUSH4 0xC5A1C5C1 EQ PUSH2 0x1FA JUMPI DUP1 PUSH4 0xCA4CCE68 EQ PUSH2 0x218 JUMPI DUP1 PUSH4 0xE47A9D46 EQ PUSH2 0x234 JUMPI DUP1 PUSH4 0xEE7126C3 EQ PUSH2 0x252 JUMPI PUSH2 0xE8 JUMP JUMPDEST DUP1 PUSH4 0x9C20FE71 EQ PUSH2 0x1A4 JUMPI DUP1 PUSH4 0xB5C09C68 EQ PUSH2 0x1C0 JUMPI DUP1 PUSH4 0xC387B49C EQ PUSH2 0x1DC JUMPI PUSH2 0xE8 JUMP JUMPDEST DUP1 PUSH4 0x289B3C0D GT PUSH2 0xC6 JUMPI DUP1 PUSH4 0x289B3C0D EQ PUSH2 0x12E JUMPI DUP1 PUSH4 0x52E305DE EQ PUSH2 0x14C JUMPI DUP1 PUSH4 0x66410997 EQ PUSH2 0x168 JUMPI DUP1 PUSH4 0x6CF106D7 EQ PUSH2 0x186 JUMPI PUSH2 0xE8 JUMP JUMPDEST DUP1 PUSH4 0x54203BD EQ PUSH2 0xEC JUMPI DUP1 PUSH4 0xDF4C390 EQ PUSH2 0x108 JUMPI DUP1 PUSH4 0x1F72783A EQ PUSH2 0x112 JUMPI JUMPDEST PUSH0 DUP1 REVERT JUMPDEST PUSH2 0x106 PUSH1 0x4 DUP1 CALLDATASIZE SUB DUP2 ADD SWAP1 PUSH2 0x101 SWAP2 SWAP1 PUSH2 0x16C0 JUMP JUMPDEST PUSH2 0x26E JUMP JUMPDEST STOP JUMPDEST PUSH2 0x110 PUSH2 0x424 JUMP JUMPDEST STOP JUMPDEST PUSH2 0x12C PUSH1 0x4 DUP1 CALLDATASIZE SUB DUP2 ADD SWAP1 PUSH2 0x127 SWAP2 SWAP1 PUSH2 0x16C0 JUMP JUMPDEST PUSH2 0x5FC JUMP JUMPDEST STOP JUMPDEST PUSH2 0x136 PUSH2 0x8AA JUMP JUMPDEST PUSH1 0x40 MLOAD PUSH2 0x143 SWAP2 SWAP1 PUSH2 0x16FA JUMP JUMPDEST PUSH1 0x40 MLOAD DUP1 SWAP2 SUB SWAP1 RETURN JUMPDEST PUSH2 0x166 PUSH1 0x4 DUP1 CALLDATASIZE SUB DUP2 ADD SWAP1 PUSH2 0x161 SWAP2 SWAP1 PUSH2 0x16C0 JUMP JUMPDEST PUSH2 0x8D4 JUMP JUMPDEST STOP JUMPDEST PUSH2 0x170 PUSH2 0xB18 JUMP JUMPDEST PUSH1 0x40 MLOAD PUSH2 0x17D SWAP2 SWAP1 PUSH2 0x16FA JUMP JUMPDEST PUSH1 0x40 MLOAD DUP1 SWAP2 SUB SWAP1 RETURN JUMPDEST PUSH2 0x18E PUSH2 0xB42 JUMP JUMPDEST PUSH1 0x40 MLOAD PUSH2 0x19B SWAP2 SWAP1 PUSH2 0x172D JUMP JUMPDEST PUSH1 0x40 MLOAD DUP1 SWAP2 SUB SWAP1 RETURN JUMPDEST PUSH2 0x1BE PUSH1 0x4 DUP1 CALLDATASIZE SUB DUP2 ADD SWAP1 PUSH2 0x1B9 SWAP2 SWAP1 PUSH2 0x16C0 JUMP JUMPDEST PUSH2 0xB5A JUMP JUMPDEST STOP JUMPDEST PUSH2 0x1DA PUSH1 0x4 DUP1 CALLDATASIZE SUB DUP2 ADD SWAP1 PUSH2 0x1D5 SWAP2 SWAP1 PUSH2 0x1770 JUMP JUMPDEST PUSH2 0xE47 JUMP JUMPDEST STOP JUMPDEST PUSH2 0x1E4 PUSH2 0xF83 JUMP JUMPDEST PUSH1 0x40 MLOAD PUSH2 0x1F1 SWAP2 SWAP1 PUSH2 0x17B9 JUMP JUMPDEST PUSH1 0x40 MLOAD DUP1 SWAP2 SUB SWAP1 RETURN JUMPDEST PUSH2 0x202 PUSH2 0xF9E JUMP JUMPDEST PUSH1 0x40 MLOAD PUSH2 0x20F SWAP2 SWAP1 PUSH2 0x16FA JUMP JUMPDEST PUSH1 0x40 MLOAD DUP1 SWAP2 SUB SWAP1 RETURN JUMPDEST PUSH2 0x232 PUSH1 0x4 DUP1 CALLDATASIZE SUB DUP2 ADD SWAP1 PUSH2 0x22D SWAP2 SWAP1 PUSH2 0x16C0 JUMP JUMPDEST PUSH2 0xFC8 JUMP JUMPDEST STOP JUMPDEST PUSH2 0x23C PUSH2 0x11DF JUMP JUMPDEST PUSH1 0x40 MLOAD PUSH2 0x249 SWAP2 SWAP1 PUSH2 0x16FA JUMP JUMPDEST PUSH1 0x40 MLOAD DUP1 SWAP2 SUB SWAP1 RETURN JUMPDEST PUSH2 0x26C PUSH1 0x4 DUP1 CALLDATASIZE SUB DUP2 ADD SWAP1 PUSH2 0x267 SWAP2 SWAP1 PUSH2 0x16C0 JUMP JUMPDEST PUSH2 0x11E6 JUMP JUMPDEST STOP JUMPDEST TIMESTAMP PUSH32 0x0 PUSH6 0xFFFFFFFFFFFF AND LT ISZERO PUSH2 0x318 JUMPI PUSH2 0x2A6 PUSH2 0xF9E JUMP JUMPDEST PUSH20 0xFFFFFFFFFFFFFFFFFFFFFFFFFFFFFFFFFFFFFFFF AND CALLER PUSH20 0xFFFFFFFFFFFFFFFFFFFFFFFFFFFFFFFFFFFFFFFF AND EQ PUSH2 0x313 JUMPI PUSH1 0x40 MLOAD PUSH32 0x8C379A000000000000000000000000000000000000000000000000000000000 DUP2 MSTORE PUSH1 0x4 ADD PUSH2 0x30A SWAP1 PUSH2 0x182C JUMP JUMPDEST PUSH1 0x40 MLOAD DUP1 SWAP2 SUB SWAP1 REVERT JUMPDEST PUSH2 0x39E JUMP JUMPDEST PUSH2 0x320 PUSH2 0xB18 JUMP JUMPDEST PUSH20 0xFFFFFFFFFFFFFFFFFFFFFFFFFFFFFFFFFFFFFFFF AND CALLER PUSH20 0xFFFFFFFFFFFFFFFFFFFFFFFFFFFFFFFFFFFFFFFF AND EQ DUP1 ISZERO PUSH2 0x35E JUMPI POP PUSH2 0x35D PUSH2 0xB42 JUMP JUMPDEST JUMPDEST PUSH2 0x39D JUMPI PUSH1 0x40 MLOAD PUSH32 0x8C379A000000000000000000000000000000000000000000000000000000000 DUP2 MSTORE PUSH1 0x4 ADD PUSH2 0x394 SWAP1 PUSH2 0x182C JUMP JUMPDEST PUSH1 0x40 MLOAD DUP1 SWAP2 SUB SWAP1 REVERT JUMPDEST JUMPDEST DUP1 PUSH1 0x2 PUSH0 PUSH2 0x100 EXP DUP2 SLOAD DUP2 PUSH20 0xFFFFFFFFFFFFFFFFFFFFFFFFFFFFFFFFFFFFFFFF MUL NOT AND SWAP1 DUP4 PUSH20 0xFFFFFFFFFFFFFFFFFFFFFFFFFFFFFFFFFFFFFFFF AND MUL OR SWAP1 SSTORE POP DUP1 PUSH20 0xFFFFFFFFFFFFFFFFFFFFFFFFFFFFFFFFFFFFFFFF AND PUSH32 0x3553F1F7EF0242113266A8D183B621BB87468C99237F36B1150B6AB3D688B686 PUSH1 0x40 MLOAD PUSH1 0x40 MLOAD DUP1 SWAP2 SUB SWAP1 LOG2 POP JUMP JUMPDEST CALLER PUSH20 0xFFFFFFFFFFFFFFFFFFFFFFFFFFFFFFFFFFFFFFFF AND PUSH1 0x2 PUSH0 SWAP1 SLOAD SWAP1 PUSH2 0x100 EXP SWAP1 DIV PUSH20 0xFFFFFFFFFFFFFFFFFFFFFFFFFFFFFFFFFFFFFFFF AND PUSH20 0xFFFFFFFFFFFFFFFFFFFFFFFFFFFFFFFFFFFFFFFF AND SUB PUSH2 0x5C8 JUMPI PUSH1 0x2 PUSH0 PUSH2 0x100 EXP DUP2 SLOAD SWAP1 PUSH20 0xFFFFFFFFFFFFFFFFFFFFFFFFFFFFFFFFFFFFFFFF MUL NOT AND SWAP1 SSTORE CALLER PUSH1 0x3 PUSH0 ADD PUSH0 PUSH2 0x100 EXP DUP2 SLOAD DUP2 PUSH20 0xFFFFFFFFFFFFFFFFFFFFFFFFFFFFFFFFFFFFFFFF MUL NOT AND SWAP1 DUP4 PUSH20 0xFFFFFFFFFFFFFFFFFFFFFFFFFFFFFFFFFFFFFFFF AND MUL OR SWAP1 SSTORE POP PUSH1 0x3 PUSH0 ADD PUSH1 0x15 DUP2 DUP2 SWAP1 SLOAD SWAP1 PUSH2 0x100 EXP SWAP1 DIV PUSH4 0xFFFFFFFF AND DUP1 SWAP3 SWAP2 SWAP1 PUSH2 0x502 SWAP1 PUSH2 0x1877 JUMP JUMPDEST SWAP2 SWAP1 PUSH2 0x100 EXP DUP2 SLOAD DUP2 PUSH4 0xFFFFFFFF MUL NOT AND SWAP1 DUP4 PUSH4 0xFFFFFFFF AND MUL OR SWAP1 SSTORE POP POP PUSH1 0x3 PUSH0 ADD PUSH1 0x14 SWAP1 SLOAD SWAP1 PUSH2 0x100 EXP SWAP1 DIV PUSH1 0xFF AND ISZERO PUSH2 0x542 JUMPI PUSH2 0x541 PUSH0 PUSH2 0x142E JUMP JUMPDEST JUMPDEST PUSH1 0x3 PUSH0 ADD PUSH1 0x15 SWAP1 SLOAD SWAP1 PUSH2 0x100 EXP SWAP1 DIV PUSH4 0xFFFFFFFF AND PUSH4 0xFFFFFFFF AND PUSH1 0x3 PUSH0 ADD PUSH0 SWAP1 SLOAD SWAP1 PUSH2 0x100 EXP SWAP1 DIV PUSH20 0xFFFFFFFFFFFFFFFFFFFFFFFFFFFFFFFFFFFFFFFF AND PUSH20 0xFFFFFFFFFFFFFFFFFFFFFFFFFFFFFFFFFFFFFFFF AND PUSH32 0x5AD9B3688012CD825C1BFB941E4F5AFB2558AF6AF3DEADDF01DBB5E85ABDAF9 PUSH1 0x40 MLOAD PUSH1 0x40 MLOAD DUP1 SWAP2 SUB SWAP1 LOG3 PUSH2 0x5FA JUMP JUMPDEST PUSH1 0x40 MLOAD PUSH32 0xB513955100000000000000000000000000000000000000000000000000000000 DUP2 MSTORE PUSH1 0x4 ADD PUSH1 0x40 MLOAD DUP1 SWAP2 SUB SWAP1 REVERT JUMPDEST JUMP JUMPDEST TIMESTAMP PUSH32 0x0 PUSH6 0xFFFFFFFFFFFF AND LT ISZERO PUSH2 0x6A6 JUMPI PUSH2 0x634 PUSH2 0xF9E JUMP JUMPDEST PUSH20 0xFFFFFFFFFFFFFFFFFFFFFFFFFFFFFFFFFFFFFFFF AND CALLER PUSH20 0xFFFFFFFFFFFFFFFFFFFFFFFFFFFFFFFFFFFFFFFF AND EQ PUSH2 0x6A1 JUMPI PUSH1 0x40 MLOAD PUSH32 0x8C379A000000000000000000000000000000000000000000000000000000000 DUP2 MSTORE PUSH1 0x4 ADD PUSH2 0x698 SWAP1 PUSH2 0x182C JUMP JUMPDEST PUSH1 0x40 MLOAD DUP1 SWAP2 SUB SWAP1 REVERT JUMPDEST PUSH2 0x72C JUMP JUMPDEST PUSH2 0x6AE PUSH2 0xB18 JUMP JUMPDEST PUSH20 0xFFFFFFFFFFFFFFFFFFFFFFFFFFFFFFFFFFFFFFFF AND CALLER PUSH20 0xFFFFFFFFFFFFFFFFFFFFFFFFFFFFFFFFFFFFFFFF AND EQ DUP1 ISZERO PUSH2 0x6EC JUMPI POP PUSH2 0x6EB PUSH2 0xB42 JUMP JUMPDEST JUMPDEST PUSH2 0x72B JUMPI PUSH1 0x40 MLOAD PUSH32 0x8C379A000000000000000000000000000000000000000000000000000000000 DUP2 MSTORE PUSH1 0x4 ADD PUSH2 0x722 SWAP1 PUSH2 0x182C JUMP JUMPDEST PUSH1 0x40 MLOAD DUP1 SWAP2 SUB SWAP1 REVERT JUMPDEST JUMPDEST PUSH0 DUP2 PUSH20 0xFFFFFFFFFFFFFFFFFFFFFFFFFFFFFFFFFFFFFFFF AND EXTCODESIZE GT ISZERO PUSH2 0x86A JUMPI CALLER PUSH20 0xFFFFFFFFFFFFFFFFFFFFFFFFFFFFFFFFFFFFFFFF AND PUSH1 0x3 PUSH0 ADD PUSH0 SWAP1 SLOAD SWAP1 PUSH2 0x100 EXP SWAP1 DIV PUSH20 0xFFFFFFFFFFFFFFFFFFFFFFFFFFFFFFFFFFFFFFFF AND PUSH20 0xFFFFFFFFFFFFFFFFFFFFFFFFFFFFFFFFFFFFFFFF AND SUB PUSH2 0x7AF JUMPI PUSH2 0x7AA DUP2 PUSH2 0x1559 JUMP JUMPDEST PUSH2 0x865 JUMP JUMPDEST PUSH3 0x13C680 TIMESTAMP PUSH2 0x7BE SWAP2 SWAP1 PUSH2 0x18AB JUMP JUMPDEST PUSH1 0x2 PUSH1 0x14 PUSH2 0x100 EXP DUP2 SLOAD DUP2 PUSH6 0xFFFFFFFFFFFF MUL NOT AND SWAP1 DUP4 PUSH6 0xFFFFFFFFFFFF AND MUL OR SWAP1 SSTORE POP DUP1 PUSH0 DUP1 PUSH2 0x100 EXP DUP2 SLOAD DUP2 PUSH20 0xFFFFFFFFFFFFFFFFFFFFFFFFFFFFFFFFFFFFFFFF MUL NOT AND SWAP1 DUP4 PUSH20 0xFFFFFFFFFFFFFFFFFFFFFFFFFFFFFFFFFFFFFFFF AND MUL OR SWAP1 SSTORE POP DUP1 PUSH20 0xFFFFFFFFFFFFFFFFFFFFFFFFFFFFFFFFFFFFFFFF AND PUSH32 0x675B770E821BA4AAD20BE77C58F912D689226272E805637F42F838A6035EED86 PUSH1 0x40 MLOAD PUSH1 0x40 MLOAD DUP1 SWAP2 SUB SWAP1 LOG2 JUMPDEST PUSH2 0x8A7 JUMP JUMPDEST DUP1 PUSH1 0x40 MLOAD PUSH32 0xC632231500000000000000000000000000000000000000000000000000000000 DUP2 MSTORE PUSH1 0x4 ADD PUSH2 0x89E SWAP2 SWAP1 PUSH2 0x16FA JUMP JUMPDEST PUSH1 0x40 MLOAD DUP1 SWAP2 SUB SWAP1 REVERT JUMPDEST POP JUMP JUMPDEST PUSH0 PUSH1 0x4 PUSH0 ADD PUSH0 SWAP1 SLOAD SWAP1 PUSH2 0x100 EXP SWAP1 DIV PUSH20 0xFFFFFFFFFFFFFFFFFFFFFFFFFFFFFFFFFFFFFFFF AND SWAP1 POP SWAP1 JUMP JUMPDEST TIMESTAMP PUSH32 0x0 PUSH6 0xFFFFFFFFFFFF AND LT ISZERO PUSH2 0x97E JUMPI PUSH2 0x90C PUSH2 0xF9E JUMP JUMPDEST PUSH20 0xFFFFFFFFFFFFFFFFFFFFFFFFFFFFFFFFFFFFFFFF AND CALLER PUSH20 0xFFFFFFFFFFFFFFFFFFFFFFFFFFFFFFFFFFFFFFFF AND EQ PUSH2 0x979 JUMPI PUSH1 0x40 MLOAD PUSH32 0x8C379A000000000000000000000000000000000000000000000000000000000 DUP2 MSTORE PUSH1 0x4 ADD PUSH2 0x970 SWAP1 PUSH2 0x182C JUMP JUMPDEST PUSH1 0x40 MLOAD DUP1 SWAP2 SUB SWAP1 REVERT JUMPDEST PUSH2 0xA04 JUMP JUMPDEST PUSH2 0x986 PUSH2 0xB18 JUMP JUMPDEST PUSH20 0xFFFFFFFFFFFFFFFFFFFFFFFFFFFFFFFFFFFFFFFF AND CALLER PUSH20 0xFFFFFFFFFFFFFFFFFFFFFFFFFFFFFFFFFFFFFFFF AND EQ DUP1 ISZERO PUSH2 0x9C4 JUMPI POP PUSH2 0x9C3 PUSH2 0xB42 JUMP JUMPDEST JUMPDEST PUSH2 0xA03 JUMPI PUSH1 0x40 MLOAD PUSH32 0x8C379A000000000000000000000000000000000000000000000000000000000 DUP2 MSTORE PUSH1 0x4 ADD PUSH2 0x9FA SWAP1 PUSH2 0x182C JUMP JUMPDEST PUSH1 0x40 MLOAD DUP1 SWAP2 SUB SWAP1 REVERT JUMPDEST JUMPDEST DUP1 PUSH20 0xFFFFFFFFFFFFFFFFFFFFFFFFFFFFFFFFFFFFFFFF AND PUSH0 DUP1 SLOAD SWAP1 PUSH2 0x100 EXP SWAP1 DIV PUSH20 0xFFFFFFFFFFFFFFFFFFFFFFFFFFFFFFFFFFFFFFFF AND PUSH20 0xFFFFFFFFFFFFFFFFFFFFFFFFFFFFFFFFFFFFFFFF AND SUB PUSH2 0xAD8 JUMPI PUSH1 0x2 PUSH1 0x14 PUSH2 0x100 EXP DUP2 SLOAD SWAP1 PUSH6 0xFFFFFFFFFFFF MUL NOT AND SWAP1 SSTORE PUSH0 DUP1 PUSH2 0x100 EXP DUP2 SLOAD SWAP1 PUSH20 0xFFFFFFFFFFFFFFFFFFFFFFFFFFFFFFFFFFFFFFFF MUL NOT AND SWAP1 SSTORE DUP1 PUSH20 0xFFFFFFFFFFFFFFFFFFFFFFFFFFFFFFFFFFFFFFFF AND PUSH32 0xF299F61C7E493F99B20CB36C587CA903D085D5206BFE4452D295711E372DA029 PUSH1 0x40 MLOAD PUSH1 0x40 MLOAD DUP1 SWAP2 SUB SWAP1 LOG2 PUSH2 0xB15 JUMP JUMPDEST DUP1 PUSH1 0x40 MLOAD PUSH32 0xC632231500000000000000000000000000000000000000000000000000000000 DUP2 MSTORE PUSH1 0x4 ADD PUSH2 0xB0C SWAP2 SWAP1 PUSH2 0x16FA JUMP JUMPDEST PUSH1 0x40 MLOAD DUP1 SWAP2 SUB SWAP1 REVERT JUMPDEST POP JUMP JUMPDEST PUSH0 PUSH1 0x3 PUSH0 ADD PUSH0 SWAP1 SLOAD SWAP1 PUSH2 0x100 EXP SWAP1 DIV PUSH20 0xFFFFFFFFFFFFFFFFFFFFFFFFFFFFFFFFFFFFFFFF AND SWAP1 POP SWAP1 JUMP JUMPDEST PUSH0 PUSH1 0x3 PUSH0 ADD PUSH1 0x14 SWAP1 SLOAD SWAP1 PUSH2 0x100 EXP SWAP1 DIV PUSH1 0xFF AND SWAP1 POP SWAP1 JUMP JUMPDEST TIMESTAMP PUSH32 0x0 PUSH6 0xFFFFFFFFFFFF AND LT ISZERO PUSH2 0xC04 JUMPI PUSH2 0xB92 PUSH2 0xF9E JUMP JUMPDEST PUSH20 0xFFFFFFFFFFFFFFFFFFFFFFFFFFFFFFFFFFFFFFFF AND CALLER PUSH20 0xFFFFFFFFFFFFFFFFFFFFFFFFFFFFFFFFFFFFFFFF AND EQ PUSH2 0xBFF JUMPI PUSH1 0x40 MLOAD PUSH32 0x8C379A000000000000000000000000000000000000000000000000000000000 DUP2 MSTORE PUSH1 0x4 ADD PUSH2 0xBF6 SWAP1 PUSH2 0x182C JUMP JUMPDEST PUSH1 0x40 MLOAD DUP1 SWAP2 SUB SWAP1 REVERT JUMPDEST PUSH2 0xC8A JUMP JUMPDEST PUSH2 0xC0C PUSH2 0xB18 JUMP JUMPDEST PUSH20 0xFFFFFFFFFFFFFFFFFFFFFFFFFFFFFFFFFFFFFFFF AND CALLER PUSH20 0xFFFFFFFFFFFFFFFFFFFFFFFFFFFFFFFFFFFFFFFF AND EQ DUP1 ISZERO PUSH2 0xC4A JUMPI POP PUSH2 0xC49 PUSH2 0xB42 JUMP JUMPDEST JUMPDEST PUSH2 0xC89 JUMPI PUSH1 0x40 MLOAD PUSH32 0x8C379A000000000000000000000000000000000000000000000000000000000 DUP2 MSTORE PUSH1 0x4 ADD PUSH2 0xC80 SWAP1 PUSH2 0x182C JUMP JUMPDEST PUSH1 0x40 MLOAD DUP1 SWAP2 SUB SWAP1 REVERT JUMPDEST JUMPDEST TIMESTAMP PUSH1 0x2 PUSH1 0x14 SWAP1 SLOAD SWAP1 PUSH2 0x100 EXP SWAP1 DIV PUSH6 0xFFFFFFFFFFFF AND PUSH6 0xFFFFFFFFFFFF AND LT ISZERO PUSH2 0xDE8 JUMPI PUSH0 PUSH1 0x2 PUSH1 0x14 SWAP1 SLOAD SWAP1 PUSH2 0x100 EXP SWAP1 DIV PUSH6 0xFFFFFFFFFFFF AND PUSH6 0xFFFFFFFFFFFF AND SUB PUSH2 0xD0C JUMPI PUSH1 0x40 MLOAD PUSH32 0x8C379A000000000000000000000000000000000000000000000000000000000 DUP2 MSTORE PUSH1 0x4 ADD PUSH2 0xD03 SWAP1 PUSH2 0x1928 JUMP JUMPDEST PUSH1 0x40 MLOAD DUP1 SWAP2 SUB SWAP1 REVERT JUMPDEST DUP1 PUSH20 0xFFFFFFFFFFFFFFFFFFFFFFFFFFFFFFFFFFFFFFFF AND PUSH0 DUP1 SLOAD SWAP1 PUSH2 0x100 EXP SWAP1 DIV PUSH20 0xFFFFFFFFFFFFFFFFFFFFFFFFFFFFFFFFFFFFFFFF AND PUSH20 0xFFFFFFFFFFFFFFFFFFFFFFFFFFFFFFFFFFFFFFFF AND SUB PUSH2 0xDA6 JUMPI PUSH1 0x2 PUSH1 0x14 PUSH2 0x100 EXP DUP2 SLOAD SWAP1 PUSH6 0xFFFFFFFFFFFF MUL NOT AND SWAP1 SSTORE PUSH0 DUP1 PUSH2 0x100 EXP DUP2 SLOAD SWAP1 PUSH20 0xFFFFFFFFFFFFFFFFFFFFFFFFFFFFFFFFFFFFFFFF MUL NOT AND SWAP1 SSTORE PUSH2 0xDA1 DUP2 PUSH2 0x1559 JUMP JUMPDEST PUSH2 0xDE3 JUMP JUMPDEST DUP1 PUSH1 0x40 MLOAD PUSH32 0xC632231500000000000000000000000000000000000000000000000000000000 DUP2 MSTORE PUSH1 0x4 ADD PUSH2 0xDDA SWAP2 SWAP1 PUSH2 0x16FA JUMP JUMPDEST PUSH1 0x40 MLOAD DUP1 SWAP2 SUB SWAP1 REVERT JUMPDEST PUSH2 0xE44 JUMP JUMPDEST TIMESTAMP PUSH1 0x2 PUSH1 0x14 SWAP1 SLOAD SWAP1 PUSH2 0x100 EXP SWAP1 DIV PUSH6 0xFFFFFFFFFFFF AND PUSH2 0xE08 SWAP2 SWAP1 PUSH2 0x1957 JUMP JUMPDEST PUSH1 0x40 MLOAD PUSH32 0x223A6CBB00000000000000000000000000000000000000000000000000000000 DUP2 MSTORE PUSH1 0x4 ADD PUSH2 0xE3B SWAP2 SWAP1 PUSH2 0x199F JUMP JUMPDEST PUSH1 0x40 MLOAD DUP1 SWAP2 SUB SWAP1 REVERT JUMPDEST POP JUMP JUMPDEST TIMESTAMP PUSH32 0x0 PUSH6 0xFFFFFFFFFFFF AND LT ISZERO PUSH2 0xEF1 JUMPI PUSH2 0xE7F PUSH2 0xF9E JUMP JUMPDEST PUSH20 0xFFFFFFFFFFFFFFFFFFFFFFFFFFFFFFFFFFFFFFFF AND CALLER PUSH20 0xFFFFFFFFFFFFFFFFFFFFFFFFFFFFFFFFFFFFFFFF AND EQ PUSH2 0xEEC JUMPI PUSH1 0x40 MLOAD PUSH32 0x8C379A000000000000000000000000000000000000000000000000000000000 DUP2 MSTORE PUSH1 0x4 ADD PUSH2 0xEE3 SWAP1 PUSH2 0x182C JUMP JUMPDEST PUSH1 0x40 MLOAD DUP1 SWAP2 SUB SWAP1 REVERT JUMPDEST PUSH2 0xF77 JUMP JUMPDEST PUSH2 0xEF9 PUSH2 0xB18 JUMP JUMPDEST PUSH20 0xFFFFFFFFFFFFFFFFFFFFFFFFFFFFFFFFFFFFFFFF AND CALLER PUSH20 0xFFFFFFFFFFFFFFFFFFFFFFFFFFFFFFFFFFFFFFFF AND EQ DUP1 ISZERO PUSH2 0xF37 JUMPI POP PUSH2 0xF36 PUSH2 0xB42 JUMP JUMPDEST JUMPDEST PUSH2 0xF76 JUMPI PUSH1 0x40 MLOAD PUSH32 0x8C379A000000000000000000000000000000000000000000000000000000000 DUP2 MSTORE PUSH1 0x4 ADD PUSH2 0xF6D SWAP1 PUSH2 0x182C JUMP JUMPDEST PUSH1 0x40 MLOAD DUP1 SWAP2 SUB SWAP1 REVERT JUMPDEST JUMPDEST PUSH2 0xF80 DUP2 PUSH2 0x142E JUMP JUMPDEST POP JUMP JUMPDEST PUSH0 PUSH1 0x4 PUSH0 ADD PUSH1 0x15 SWAP1 SLOAD SWAP1 PUSH2 0x100 EXP SWAP1 DIV PUSH4 0xFFFFFFFF AND SWAP1 POP SWAP1 JUMP JUMPDEST PUSH0 PUSH1 0x5 PUSH0 ADD PUSH0 SWAP1 SLOAD SWAP1 PUSH2 0x100 EXP SWAP1 DIV PUSH20 0xFFFFFFFFFFFFFFFFFFFFFFFFFFFFFFFFFFFFFFFF AND SWAP1 POP SWAP1 JUMP JUMPDEST TIMESTAMP PUSH32 0x0 PUSH6 0xFFFFFFFFFFFF AND LT ISZERO PUSH2 0x1072 JUMPI PUSH2 0x1000 PUSH2 0xF9E JUMP JUMPDEST PUSH20 0xFFFFFFFFFFFFFFFFFFFFFFFFFFFFFFFFFFFFFFFF AND CALLER PUSH20 0xFFFFFFFFFFFFFFFFFFFFFFFFFFFFFFFFFFFFFFFF AND EQ PUSH2 0x106D JUMPI PUSH1 0x40 MLOAD PUSH32 0x8C379A000000000000000000000000000000000000000000000000000000000 DUP2 MSTORE PUSH1 0x4 ADD PUSH2 0x1064 SWAP1 PUSH2 0x182C JUMP JUMPDEST PUSH1 0x40 MLOAD DUP1 SWAP2 SUB SWAP1 REVERT JUMPDEST PUSH2 0x10F8 JUMP JUMPDEST PUSH2 0x107A PUSH2 0xB18 JUMP JUMPDEST PUSH20 0xFFFFFFFFFFFFFFFFFFFFFFFFFFFFFFFFFFFFFFFF AND CALLER PUSH20 0xFFFFFFFFFFFFFFFFFFFFFFFFFFFFFFFFFFFFFFFF AND EQ DUP1 ISZERO PUSH2 0x10B8 JUMPI POP PUSH2 0x10B7 PUSH2 0xB42 JUMP JUMPDEST JUMPDEST PUSH2 0x10F7 JUMPI PUSH1 0x40 MLOAD PUSH32 0x8C379A000000000000000000000000000000000000000000000000000000000 DUP2 MSTORE PUSH1 0x4 ADD PUSH2 0x10EE SWAP1 PUSH2 0x182C JUMP JUMPDEST PUSH1 0x40 MLOAD DUP1 SWAP2 SUB SWAP1 REVERT JUMPDEST JUMPDEST PUSH0 DUP2 PUSH20 0xFFFFFFFFFFFFFFFFFFFFFFFFFFFFFFFFFFFFFFFF AND EXTCODESIZE GT ISZERO PUSH2 0x119F JUMPI DUP1 PUSH1 0x1 PUSH0 PUSH2 0x100 EXP DUP2 SLOAD DUP2 PUSH20 0xFFFFFFFFFFFFFFFFFFFFFFFFFFFFFFFFFFFFFFFF MUL NOT AND SWAP1 DUP4 PUSH20 0xFFFFFFFFFFFFFFFFFFFFFFFFFFFFFFFFFFFFFFFF AND MUL OR SWAP1 SSTORE POP DUP1 PUSH20 0xFFFFFFFFFFFFFFFFFFFFFFFFFFFFFFFFFFFFFFFF AND PUSH32 0xE8D8E3C7C3EBEC0C177D0FE22D223F8B5071DB39155104808D45027E368BA77A PUSH1 0x40 MLOAD PUSH1 0x40 MLOAD DUP1 SWAP2 SUB SWAP1 LOG2 PUSH2 0x11DC JUMP JUMPDEST DUP1 PUSH1 0x40 MLOAD PUSH32 0x84DBC6CB00000000000000000000000000000000000000000000000000000000 DUP2 MSTORE PUSH1 0x4 ADD PUSH2 0x11D3 SWAP2 SWAP1 PUSH2 0x16FA JUMP JUMPDEST PUSH1 0x40 MLOAD DUP1 SWAP2 SUB SWAP1 REVERT JUMPDEST POP JUMP JUMPDEST PUSH0 ADDRESS SWAP1 POP SWAP1 JUMP JUMPDEST PUSH2 0x11EE PUSH2 0xB18 JUMP JUMPDEST PUSH20 0xFFFFFFFFFFFFFFFFFFFFFFFFFFFFFFFFFFFFFFFF AND CALLER PUSH20 0xFFFFFFFFFFFFFFFFFFFFFFFFFFFFFFFFFFFFFFFF AND EQ DUP1 ISZERO PUSH2 0x122C JUMPI POP PUSH2 0x122B PUSH2 0xB42 JUMP JUMPDEST JUMPDEST PUSH2 0x126B JUMPI PUSH1 0x40 MLOAD PUSH32 0x8C379A000000000000000000000000000000000000000000000000000000000 DUP2 MSTORE PUSH1 0x4 ADD PUSH2 0x1262 SWAP1 PUSH2 0x182C JUMP JUMPDEST PUSH1 0x40 MLOAD DUP1 SWAP2 SUB SWAP1 REVERT JUMPDEST DUP1 PUSH20 0xFFFFFFFFFFFFFFFFFFFFFFFFFFFFFFFFFFFFFFFF AND PUSH1 0x1 PUSH0 SWAP1 SLOAD SWAP1 PUSH2 0x100 EXP SWAP1 DIV PUSH20 0xFFFFFFFFFFFFFFFFFFFFFFFFFFFFFFFFFFFFFFFF AND PUSH20 0xFFFFFFFFFFFFFFFFFFFFFFFFFFFFFFFFFFFFFFFF AND SUB PUSH2 0x13EE JUMPI PUSH1 0x1 PUSH0 PUSH2 0x100 EXP DUP2 SLOAD SWAP1 PUSH20 0xFFFFFFFFFFFFFFFFFFFFFFFFFFFFFFFFFFFFFFFF MUL NOT AND SWAP1 SSTORE DUP1 PUSH1 0x4 PUSH0 ADD PUSH0 PUSH2 0x100 EXP DUP2 SLOAD DUP2 PUSH20 0xFFFFFFFFFFFFFFFFFFFFFFFFFFFFFFFFFFFFFFFF MUL NOT AND SWAP1 DUP4 PUSH20 0xFFFFFFFFFFFFFFFFFFFFFFFFFFFFFFFFFFFFFFFF AND MUL OR SWAP1 SSTORE POP PUSH1 0x4 PUSH0 ADD PUSH1 0x15 DUP2 DUP2 SWAP1 SLOAD SWAP1 PUSH2 0x100 EXP SWAP1 DIV PUSH4 0xFFFFFFFF AND DUP1 SWAP3 SWAP2 SWAP1 PUSH2 0x1349 SWAP1 PUSH2 0x1877 JUMP JUMPDEST SWAP2 SWAP1 PUSH2 0x100 EXP DUP2 SLOAD DUP2 PUSH4 0xFFFFFFFF MUL NOT AND SWAP1 DUP4 PUSH4 0xFFFFFFFF AND MUL OR SWAP1 SSTORE POP POP PUSH1 0x4 PUSH0 ADD PUSH1 0x15 SWAP1 SLOAD SWAP1 PUSH2 0x100 EXP SWAP1 DIV PUSH4 0xFFFFFFFF AND PUSH4 0xFFFFFFFF AND PUSH1 0x4 PUSH0 ADD PUSH0 SWAP1 SLOAD SWAP1 PUSH2 0x100 EXP SWAP1 DIV PUSH20 0xFFFFFFFFFFFFFFFFFFFFFFFFFFFFFFFFFFFFFFFF AND PUSH20 0xFFFFFFFFFFFFFFFFFFFFFFFFFFFFFFFFFFFFFFFF AND PUSH32 0x5E86008A8467D1EFCCFE6CB6BD49BA7278D6AF2745A1E6994E443322A4237093 PUSH1 0x40 MLOAD PUSH1 0x40 MLOAD DUP1 SWAP2 SUB SWAP1 LOG3 PUSH2 0x142B JUMP JUMPDEST DUP1 PUSH1 0x40 MLOAD PUSH32 0x84DBC6CB00000000000000000000000000000000000000000000000000000000 DUP2 MSTORE PUSH1 0x4 ADD PUSH2 0x1422 SWAP2 SWAP1 PUSH2 0x16FA JUMP JUMPDEST PUSH1 0x40 MLOAD DUP1 SWAP2 SUB SWAP1 REVERT JUMPDEST POP JUMP JUMPDEST DUP1 PUSH1 0x3 PUSH0 ADD PUSH1 0x14 PUSH2 0x100 EXP DUP2 SLOAD DUP2 PUSH1 0xFF MUL NOT AND SWAP1 DUP4 ISZERO ISZERO MUL OR SWAP1 SSTORE POP PUSH1 0x4 PUSH0 ADD PUSH0 SWAP1 SLOAD SWAP1 PUSH2 0x100 EXP SWAP1 DIV PUSH20 0xFFFFFFFFFFFFFFFFFFFFFFFFFFFFFFFFFFFFFFFF AND PUSH20 0xFFFFFFFFFFFFFFFFFFFFFFFFFFFFFFFFFFFFFFFF AND PUSH4 0xF4E25380 DUP3 PUSH1 0x40 MLOAD DUP3 PUSH4 0xFFFFFFFF AND PUSH1 0xE0 SHL DUP2 MSTORE PUSH1 0x4 ADD PUSH2 0x14A6 SWAP2 SWAP1 PUSH2 0x172D JUMP JUMPDEST PUSH1 0x20 PUSH1 0x40 MLOAD DUP1 DUP4 SUB DUP2 PUSH0 DUP8 GAS CALL ISZERO DUP1 ISZERO PUSH2 0x14C2 JUMPI RETURNDATASIZE PUSH0 DUP1 RETURNDATACOPY RETURNDATASIZE PUSH0 REVERT JUMPDEST POP POP POP POP PUSH1 0x40 MLOAD RETURNDATASIZE PUSH1 0x1F NOT PUSH1 0x1F DUP3 ADD AND DUP3 ADD DUP1 PUSH1 0x40 MSTORE POP DUP2 ADD SWAP1 PUSH2 0x14E6 SWAP2 SWAP1 PUSH2 0x19CC JUMP JUMPDEST ISZERO PUSH2 0x1523 JUMPI PUSH1 0x1 ISZERO ISZERO DUP2 ISZERO ISZERO PUSH32 0x67D0BD9A6167D98B43392618557D3CBA4AA9B3C54791C0B96F1A20A05EB8B84 PUSH1 0x40 MLOAD PUSH1 0x40 MLOAD DUP1 SWAP2 SUB SWAP1 LOG3 PUSH2 0x1556 JUMP JUMPDEST PUSH0 ISZERO ISZERO DUP2 ISZERO ISZERO PUSH32 0x67D0BD9A6167D98B43392618557D3CBA4AA9B3C54791C0B96F1A20A05EB8B84 PUSH1 0x40 MLOAD PUSH1 0x40 MLOAD DUP1 SWAP2 SUB SWAP1 LOG3 JUMPDEST POP JUMP JUMPDEST DUP1 PUSH1 0x5 PUSH0 ADD PUSH0 PUSH2 0x100 EXP DUP2 SLOAD DUP2 PUSH20 0xFFFFFFFFFFFFFFFFFFFFFFFFFFFFFFFFFFFFFFFF MUL NOT AND SWAP1 DUP4 PUSH20 0xFFFFFFFFFFFFFFFFFFFFFFFFFFFFFFFFFFFFFFFF AND MUL OR SWAP1 SSTORE POP PUSH1 0x5 PUSH0 ADD PUSH1 0x15 DUP2 DUP2 SWAP1 SLOAD SWAP1 PUSH2 0x100 EXP SWAP1 DIV PUSH4 0xFFFFFFFF AND DUP1 SWAP3 SWAP2 SWAP1 PUSH2 0x15BF SWAP1 PUSH2 0x1877 JUMP JUMPDEST SWAP2 SWAP1 PUSH2 0x100 EXP DUP2 SLOAD DUP2 PUSH4 0xFFFFFFFF MUL NOT AND SWAP1 DUP4 PUSH4 0xFFFFFFFF AND MUL OR SWAP1 SSTORE POP POP PUSH1 0x5 PUSH0 ADD PUSH1 0x15 SWAP1 SLOAD SWAP1 PUSH2 0x100 EXP SWAP1 DIV PUSH4 0xFFFFFFFF AND PUSH4 0xFFFFFFFF AND PUSH1 0x5 PUSH0 ADD PUSH0 SWAP1 SLOAD SWAP1 PUSH2 0x100 EXP SWAP1 DIV PUSH20 0xFFFFFFFFFFFFFFFFFFFFFFFFFFFFFFFFFFFFFFFF AND PUSH20 0xFFFFFFFFFFFFFFFFFFFFFFFFFFFFFFFFFFFFFFFF AND PUSH32 0xF7F7C26682668C39FD8C6DBCA125BD9466E743B9E38ACC3240867C139CD93C30 PUSH1 0x40 MLOAD PUSH1 0x40 MLOAD DUP1 SWAP2 SUB SWAP1 LOG3 POP JUMP JUMPDEST PUSH0 DUP1 REVERT JUMPDEST PUSH0 PUSH20 0xFFFFFFFFFFFFFFFFFFFFFFFFFFFFFFFFFFFFFFFF DUP3 AND SWAP1 POP SWAP2 SWAP1 POP JUMP JUMPDEST PUSH0 PUSH2 0x168F DUP3 PUSH2 0x1666 JUMP JUMPDEST SWAP1 POP SWAP2 SWAP1 POP JUMP JUMPDEST PUSH2 0x169F DUP2 PUSH2 0x1685 JUMP JUMPDEST DUP2 EQ PUSH2 0x16A9 JUMPI PUSH0 DUP1 REVERT JUMPDEST POP JUMP JUMPDEST PUSH0 DUP2 CALLDATALOAD SWAP1 POP PUSH2 0x16BA DUP2 PUSH2 0x1696 JUMP JUMPDEST SWAP3 SWAP2 POP POP JUMP JUMPDEST PUSH0 PUSH1 0x20 DUP3 DUP5 SUB SLT ISZERO PUSH2 0x16D5 JUMPI PUSH2 0x16D4 PUSH2 0x1662 JUMP JUMPDEST JUMPDEST PUSH0 PUSH2 0x16E2 DUP5 DUP3 DUP6 ADD PUSH2 0x16AC JUMP JUMPDEST SWAP2 POP POP SWAP3 SWAP2 POP POP JUMP JUMPDEST PUSH2 0x16F4 DUP2 PUSH2 0x1685 JUMP JUMPDEST DUP3 MSTORE POP POP JUMP JUMPDEST PUSH0 PUSH1 0x20 DUP3 ADD SWAP1 POP PUSH2 0x170D PUSH0 DUP4 ADD DUP5 PUSH2 0x16EB JUMP JUMPDEST SWAP3 SWAP2 POP POP JUMP JUMPDEST PUSH0 DUP2 ISZERO ISZERO SWAP1 POP SWAP2 SWAP1 POP JUMP JUMPDEST PUSH2 0x1727 DUP2 PUSH2 0x1713 JUMP JUMPDEST DUP3 MSTORE POP POP JUMP JUMPDEST PUSH0 PUSH1 0x20 DUP3 ADD SWAP1 POP PUSH2 0x1740 PUSH0 DUP4 ADD DUP5 PUSH2 0x171E JUMP JUMPDEST SWAP3 SWAP2 POP POP JUMP JUMPDEST PUSH2 0x174F DUP2 PUSH2 0x1713 JUMP JUMPDEST DUP2 EQ PUSH2 0x1759 JUMPI PUSH0 DUP1 REVERT JUMPDEST POP JUMP JUMPDEST PUSH0 DUP2 CALLDATALOAD SWAP1 POP PUSH2 0x176A DUP2 PUSH2 0x1746 JUMP JUMPDEST SWAP3 SWAP2 POP POP JUMP JUMPDEST PUSH0 PUSH1 0x20 DUP3 DUP5 SUB SLT ISZERO PUSH2 0x1785 JUMPI PUSH2 0x1784 PUSH2 0x1662 JUMP JUMPDEST JUMPDEST PUSH0 PUSH2 0x1792 DUP5 DUP3 DUP6 ADD PUSH2 0x175C JUMP JUMPDEST SWAP2 POP POP SWAP3 SWAP2 POP POP JUMP JUMPDEST PUSH0 PUSH4 0xFFFFFFFF DUP3 AND SWAP1 POP SWAP2 SWAP1 POP JUMP JUMPDEST PUSH2 0x17B3 DUP2 PUSH2 0x179B JUMP JUMPDEST DUP3 MSTORE POP POP JUMP JUMPDEST PUSH0 PUSH1 0x20 DUP3 ADD SWAP1 POP PUSH2 0x17CC PUSH0 DUP4 ADD DUP5 PUSH2 0x17AA JUMP JUMPDEST SWAP3 SWAP2 POP POP JUMP JUMPDEST PUSH0 DUP3 DUP3 MSTORE PUSH1 0x20 DUP3 ADD SWAP1 POP SWAP3 SWAP2 POP POP JUMP JUMPDEST PUSH32 0x416363657373206973206E6F742076616C696400000000000000000000000000 PUSH0 DUP3 ADD MSTORE POP JUMP JUMPDEST PUSH0 PUSH2 0x1816 PUSH1 0x13 DUP4 PUSH2 0x17D2 JUMP JUMPDEST SWAP2 POP PUSH2 0x1821 DUP3 PUSH2 0x17E2 JUMP JUMPDEST PUSH1 0x20 DUP3 ADD SWAP1 POP SWAP2 SWAP1 POP JUMP JUMPDEST PUSH0 PUSH1 0x20 DUP3 ADD SWAP1 POP DUP2 DUP2 SUB PUSH0 DUP4 ADD MSTORE PUSH2 0x1843 DUP2 PUSH2 0x180A JUMP JUMPDEST SWAP1 POP SWAP2 SWAP1 POP JUMP JUMPDEST PUSH32 0x4E487B7100000000000000000000000000000000000000000000000000000000 PUSH0 MSTORE PUSH1 0x11 PUSH1 0x4 MSTORE PUSH1 0x24 PUSH0 REVERT JUMPDEST PUSH0 PUSH2 0x1881 DUP3 PUSH2 0x179B JUMP JUMPDEST SWAP2 POP PUSH4 0xFFFFFFFF DUP3 SUB PUSH2 0x1897 JUMPI PUSH2 0x1896 PUSH2 0x184A JUMP JUMPDEST JUMPDEST PUSH1 0x1 DUP3 ADD SWAP1 POP SWAP2 SWAP1 POP JUMP JUMPDEST PUSH0 DUP2 SWAP1 POP SWAP2 SWAP1 POP JUMP JUMPDEST PUSH0 PUSH2 0x18B5 DUP3 PUSH2 0x18A2 JUMP JUMPDEST SWAP2 POP PUSH2 0x18C0 DUP4 PUSH2 0x18A2 JUMP JUMPDEST SWAP3 POP DUP3 DUP3 ADD SWAP1 POP DUP1 DUP3 GT ISZERO PUSH2 0x18D8 JUMPI PUSH2 0x18D7 PUSH2 0x184A JUMP JUMPDEST JUMPDEST SWAP3 SWAP2 POP POP JUMP JUMPDEST PUSH32 0x546865207265717565737420697320696E76616C696400000000000000000000 PUSH0 DUP3 ADD MSTORE POP JUMP JUMPDEST PUSH0 PUSH2 0x1912 PUSH1 0x16 DUP4 PUSH2 0x17D2 JUMP JUMPDEST SWAP2 POP PUSH2 0x191D DUP3 PUSH2 0x18DE JUMP JUMPDEST PUSH1 0x20 DUP3 ADD SWAP1 POP SWAP2 SWAP1 POP JUMP JUMPDEST PUSH0 PUSH1 0x20 DUP3 ADD SWAP1 POP DUP2 DUP2 SUB PUSH0 DUP4 ADD MSTORE PUSH2 0x193F DUP2 PUSH2 0x1906 JUMP JUMPDEST SWAP1 POP SWAP2 SWAP1 POP JUMP JUMPDEST PUSH0 PUSH6 0xFFFFFFFFFFFF DUP3 AND SWAP1 POP SWAP2 SWAP1 POP JUMP JUMPDEST PUSH0 PUSH2 0x1961 DUP3 PUSH2 0x1946 JUMP JUMPDEST SWAP2 POP PUSH2 0x196C DUP4 PUSH2 0x1946 JUMP JUMPDEST SWAP3 POP DUP3 DUP3 SUB SWAP1 POP PUSH6 0xFFFFFFFFFFFF DUP2 GT ISZERO PUSH2 0x198A JUMPI PUSH2 0x1989 PUSH2 0x184A JUMP JUMPDEST JUMPDEST SWAP3 SWAP2 POP POP JUMP JUMPDEST PUSH2 0x1999 DUP2 PUSH2 0x1946 JUMP JUMPDEST DUP3 MSTORE POP POP JUMP JUMPDEST PUSH0 PUSH1 0x20 DUP3 ADD SWAP1 POP PUSH2 0x19B2 PUSH0 DUP4 ADD DUP5 PUSH2 0x1990 JUMP JUMPDEST SWAP3 SWAP2 POP POP JUMP JUMPDEST PUSH0 DUP2 MLOAD SWAP1 POP PUSH2 0x19C6 DUP2 PUSH2 0x1746 JUMP JUMPDEST SWAP3 SWAP2 POP POP JUMP JUMPDEST PUSH0 PUSH1 0x20 DUP3 DUP5 SUB SLT ISZERO PUSH2 0x19E1 JUMPI PUSH2 0x19E0 PUSH2 0x1662 JUMP JUMPDEST JUMPDEST PUSH0 PUSH2 0x19EE DUP5 DUP3 DUP6 ADD PUSH2 0x19B8 JUMP JUMPDEST SWAP2 POP POP SWAP3 SWAP2 POP POP JUMP INVALID LOG2 PUSH5 0x6970667358 0x22 SLT KECCAK256 SWAP13 PUSH21 0xFAC356D48570F5AF0255F2EF02D5EAECF0FA601FCD DUP5 SWAP1 MSTORE8 0xE 0xCA PUSH1 0xF6 0x27 0xB1 PUSH5 0x736F6C6343 STOP ADDMOD EQ STOP CALLER "
		},
		"gasEstimates": {
			"creation": {
				"codeDepositCost": "1340200",
				"executionCost": "infinite",
				"totalCost": "infinite"
			},
			"external": {
				"cancelPendingRepublicAddress(address)": "infinite",
				"getAuthorityAddress()": "445",
				"getGovernance()": "2543",
				"getPresidentAdd()": "2587",
				"getPresidentBan()": "2618",
				"getRepublicAddress()": "2542",
				"getgovernanceVersion()": "2596",
				"setPendigPresident(address)": "infinite",
				"setPendingGovernanceContractAddress(address)": "infinite",
				"setPendingRepublicAddress(address)": "infinite",
				"setPresidentBaned(bool)": "infinite",
				"transferGovernanceContractAddress(address)": "infinite",
				"transferPresident()": "infinite",
				"transferRepublicAddress(address)": "infinite"
			},
			"internal": {
				"_setPresidentBaned(bool)": "infinite",
				"_transferRepublicAddress(address)": "56825"
			}
		},
		"methodIdentifiers": {
			"cancelPendingRepublicAddress(address)": "52e305de",
			"getAuthorityAddress()": "e47a9d46",
			"getGovernance()": "289b3c0d",
			"getPresidentAdd()": "66410997",
			"getPresidentBan()": "6cf106d7",
			"getRepublicAddress()": "c5a1c5c1",
			"getgovernanceVersion()": "c387b49c",
			"setPendigPresident(address)": "054203bd",
			"setPendingGovernanceContractAddress(address)": "ca4cce68",
			"setPendingRepublicAddress(address)": "1f72783a",
			"setPresidentBaned(bool)": "b5c09c68",
			"transferGovernanceContractAddress(address)": "ee7126c3",
			"transferPresident()": "0df4c390",
			"transferRepublicAddress(address)": "9c20fe71"
		}
	},
	"abi": [
		{
			"inputs": [],
			"stateMutability": "nonpayable",
			"type": "constructor"
		},
		{
			"inputs": [],
			"name": "AccessOnlyForThePendigPresident",
			"type": "error"
		},
		{
			"inputs": [
				{
					"internalType": "uint48",
					"name": "reminingTime",
					"type": "uint48"
				}
			],
			"name": "RemainingTimeUntilTheConfirmationDeadline",
			"type": "error"
		},
		{
			"inputs": [
				{
					"internalType": "address",
					"name": "NewGCAddress",
					"type": "address"
				}
			],
			"name": "TheAddressIsNotValidForGC",
			"type": "error"
		},
		{
			"inputs": [
				{
					"internalType": "address",
					"name": "newRAddress",
					"type": "address"
				}
			],
			"name": "TheAddressIsNotValidForRAddress",
			"type": "error"
		},
		{
			"anonymous": false,
			"inputs": [
				{
					"indexed": true,
					"internalType": "address",
					"name": "GCAddress",
					"type": "address"
				},
				{
					"indexed": true,
					"internalType": "uint32",
					"name": "version",
					"type": "uint32"
				}
			],
			"name": "TheNewGCAddressWasConfirmed",
			"type": "event"
		},
		{
			"anonymous": false,
			"inputs": [
				{
					"indexed": true,
					"internalType": "address",
					"name": "presidentAdd",
					"type": "address"
				},
				{
					"indexed": true,
					"internalType": "uint32",
					"name": "nonce",
					"type": "uint32"
				}
			],
			"name": "TheNewPresidentWasConfirmed",
			"type": "event"
		},
		{
			"anonymous": false,
			"inputs": [
				{
					"indexed": true,
					"internalType": "address",
					"name": "RepublicAddress",
					"type": "address"
				},
				{
					"indexed": true,
					"internalType": "uint32",
					"name": "version",
					"type": "uint32"
				}
			],
			"name": "TheNewRepublicAddressWasConfirmed",
			"type": "event"
		},
		{
			"anonymous": false,
			"inputs": [
				{
					"indexed": true,
					"internalType": "address",
					"name": "newGCAddress",
					"type": "address"
				}
			],
			"name": "TheNextGCAddressWasElected",
			"type": "event"
		},
		{
			"anonymous": false,
			"inputs": [
				{
					"indexed": true,
					"internalType": "address",
					"name": "newPresidentAdd",
					"type": "address"
				}
			],
			"name": "TheNextPresidentWasElected",
			"type": "event"
		},
		{
			"anonymous": false,
			"inputs": [
				{
					"indexed": true,
					"internalType": "address",
					"name": "PRAddress",
					"type": "address"
				}
			],
			"name": "TheNextRepublicAddressWasCancelled",
			"type": "event"
		},
		{
			"anonymous": false,
			"inputs": [
				{
					"indexed": true,
					"internalType": "address",
					"name": "newRepublicAddress",
					"type": "address"
				}
			],
			"name": "TheNextRepublicAddressWasElected",
			"type": "event"
		},
		{
			"anonymous": false,
			"inputs": [
				{
					"indexed": true,
					"internalType": "bool",
					"name": "baned",
					"type": "bool"
				},
				{
					"indexed": true,
					"internalType": "bool",
					"name": "done",
					"type": "bool"
				}
			],
			"name": "TheStatusOfBanningAllActivitiesAndDone",
			"type": "event"
		},
		{
			"inputs": [
				{
					"internalType": "address",
					"name": "PRAdress",
					"type": "address"
				}
			],
			"name": "cancelPendingRepublicAddress",
			"outputs": [],
			"stateMutability": "nonpayable",
			"type": "function"
		},
		{
			"inputs": [],
			"name": "getAuthorityAddress",
			"outputs": [
				{
					"internalType": "address",
					"name": "",
					"type": "address"
				}
			],
			"stateMutability": "view",
			"type": "function"
		},
		{
			"inputs": [],
			"name": "getGovernance",
			"outputs": [
				{
					"internalType": "address",
					"name": "",
					"type": "address"
				}
			],
			"stateMutability": "view",
			"type": "function"
		},
		{
			"inputs": [],
			"name": "getPresidentAdd",
			"outputs": [
				{
					"internalType": "address",
					"name": "",
					"type": "address"
				}
			],
			"stateMutability": "view",
			"type": "function"
		},
		{
			"inputs": [],
			"name": "getPresidentBan",
			"outputs": [
				{
					"internalType": "bool",
					"name": "",
					"type": "bool"
				}
			],
			"stateMutability": "view",
			"type": "function"
		},
		{
			"inputs": [],
			"name": "getRepublicAddress",
			"outputs": [
				{
					"internalType": "address",
					"name": "RG",
					"type": "address"
				}
			],
			"stateMutability": "view",
			"type": "function"
		},
		{
			"inputs": [],
			"name": "getgovernanceVersion",
			"outputs": [
				{
					"internalType": "uint32",
					"name": "",
					"type": "uint32"
				}
			],
			"stateMutability": "view",
			"type": "function"
		},
		{
			"inputs": [
				{
					"internalType": "address",
					"name": "newPresident",
					"type": "address"
				}
			],
			"name": "setPendigPresident",
			"outputs": [],
			"stateMutability": "nonpayable",
			"type": "function"
		},
		{
			"inputs": [
				{
					"internalType": "address",
					"name": "newGCAddress",
					"type": "address"
				}
			],
			"name": "setPendingGovernanceContractAddress",
			"outputs": [],
			"stateMutability": "nonpayable",
			"type": "function"
		},
		{
			"inputs": [
				{
					"internalType": "address",
					"name": "newRAddress",
					"type": "address"
				}
			],
			"name": "setPendingRepublicAddress",
			"outputs": [],
			"stateMutability": "nonpayable",
			"type": "function"
		},
		{
			"inputs": [
				{
					"internalType": "bool",
					"name": "baned",
					"type": "bool"
				}
			],
			"name": "setPresidentBaned",
			"outputs": [],
			"stateMutability": "nonpayable",
			"type": "function"
		},
		{
			"inputs": [
				{
					"internalType": "address",
					"name": "pendingGCAdd",
					"type": "address"
				}
			],
			"name": "transferGovernanceContractAddress",
			"outputs": [],
			"stateMutability": "nonpayable",
			"type": "function"
		},
		{
			"inputs": [],
			"name": "transferPresident",
			"outputs": [],
			"stateMutability": "nonpayable",
			"type": "function"
		},
		{
			"inputs": [
				{
					"internalType": "address",
					"name": "RAddress",
					"type": "address"
				}
			],
			"name": "transferRepublicAddress",
			"outputs": [],
			"stateMutability": "nonpayable",
			"type": "function"
		}
	]
}