{
	"data": {
		"bytecode": {
			"linkReferences": {},
			"object": "60c06040525f73ffffffffffffffffffffffffffffffffffffffff1660809073ffffffffffffffffffffffffffffffffffffffff1681525034801562000043575f80fd5b506316a8c8004262000056919062000130565b65ffffffffffff1660a08165ffffffffffff16815250503360045f015f6101000a81548173ffffffffffffffffffffffffffffffffffffffff021916908373ffffffffffffffffffffffffffffffffffffffff16021790555060045f01601581819054906101000a900463ffffffff1680929190620000d59062000179565b91906101000a81548163ffffffff021916908363ffffffff16021790555050620001a9565b5f819050919050565b7f4e487b71000000000000000000000000000000000000000000000000000000005f52601160045260245ffd5b5f6200013c82620000fa565b91506200014983620000fa565b925082820190508082111562000164576200016362000103565b5b92915050565b5f63ffffffff82169050919050565b5f62000185826200016a565b915063ffffffff82036200019e576200019d62000103565b5b600182019050919050565b60805160a051611dca620001ee5f395f818161034f015281816108b201528181610bf401528181610f870152818161126001526113e801525f6113c10152611dca5ff3fe608060405234801561000f575f80fd5b506004361061012a575f3560e01c8063861a179d116100ab578063ca4cce681161006f578063ca4cce68146102bc578063e47a9d46146102d8578063e4f3e947146102f6578063ee7126c314610314578063f5f9cdd4146103305761012a565b8063861a179d1461022a578063a53da00b14610246578063b5c09c6814610264578063c387b49c14610280578063c5a1c5c11461029e5761012a565b806337676f79116100f257806337676f79146101985780634494acd9146101b6578063544fa93e146101d257806366410997146101ee5780636cf106d71461020c5761012a565b8063054203bd1461012e5780630df4c3901461014a57806318074eee146101545780631f86aa2a1461015e578063289b3c0d1461017a575b5f80fd5b61014860048036038101906101439190611a9c565b61034c565b005b610152610517565b005b61015c6106d7565b005b61017860048036038101906101739190611a9c565b6108af565b005b610182610b9d565b60405161018f9190611ad6565b60405180910390f35b6101a0610bc7565b6040516101ad9190611ad6565b60405180910390f35b6101d060048036038101906101cb9190611a9c565b610bf1565b005b6101ec60048036038101906101e79190611a9c565b610e36565b005b6101f6610f42565b6040516102039190611ad6565b60405180910390f35b610214610f6c565b6040516102219190611b09565b60405180910390f35b610244600480360381019061023f9190611a9c565b610f84565b005b61024e611233565b60405161025b9190611ad6565b60405180910390f35b61027e60048036038101906102799190611b4c565b61125d565b005b6102886113a3565b6040516102959190611b95565b60405180910390f35b6102a66113be565b6040516102b39190611ad6565b60405180910390f35b6102d660048036038101906102d19190611a9c565b6113e5565b005b6102e06115fd565b6040516102ed9190611ad6565b60405180910390f35b6102fe611604565b60405161030b9190611b09565b60405180910390f35b61032e60048036038101906103299190611a9c565b61161c565b005b61034a60048036038101906103459190611b4c565b611865565b005b427f000000000000000000000000000000000000000000000000000000000000000065ffffffffffff1610156103f6576103846113be565b73ffffffffffffffffffffffffffffffffffffffff163373ffffffffffffffffffffffffffffffffffffffff16146103f1576040517f08c379a00000000000000000000000000000000000000000000000000000000081526004016103e890611c08565b60405180910390fd5b61047d565b6103fe610f42565b73ffffffffffffffffffffffffffffffffffffffff163373ffffffffffffffffffffffffffffffffffffffff1614801561043d575061043b610f6c565b155b61047c576040517f08c379a000000000000000000000000000000000000000000000000000000000815260040161047390611c08565b60405180910390fd5b5b8060025f6101000a81548173ffffffffffffffffffffffffffffffffffffffff021916908373ffffffffffffffffffffffffffffffffffffffff1602179055506104c760016118f7565b6104d16001611916565b8073ffffffffffffffffffffffffffffffffffffffff167f3553f1f7ef0242113266a8d183b621bb87468c99237f36b1150b6ab3d688b68660405160405180910390a250565b3373ffffffffffffffffffffffffffffffffffffffff1660025f9054906101000a900473ffffffffffffffffffffffffffffffffffffffff1673ffffffffffffffffffffffffffffffffffffffff16036106a35760025f6101000a81549073ffffffffffffffffffffffffffffffffffffffff02191690553360045f015f6101000a81548173ffffffffffffffffffffffffffffffffffffffff021916908373ffffffffffffffffffffffffffffffffffffffff16021790555060045f01601581819054906101000a900463ffffffff16809291906105f590611c53565b91906101000a81548163ffffffff021916908363ffffffff1602179055505061061d5f6118f7565b60045f0160159054906101000a900463ffffffff1663ffffffff1660045f015f9054906101000a900473ffffffffffffffffffffffffffffffffffffffff1673ffffffffffffffffffffffffffffffffffffffff167f05ad9b3688012cd825c1bfb941e4f5afb2558af6af3deaddf01dbb5e85abdaf960405160405180910390a36106d5565b6040517f6c4360f000000000000000000000000000000000000000000000000000000000815260040160405180910390fd5b565b3373ffffffffffffffffffffffffffffffffffffffff1660035f9054906101000a900473ffffffffffffffffffffffffffffffffffffffff1673ffffffffffffffffffffffffffffffffffffffff160361087b5760035f6101000a81549073ffffffffffffffffffffffffffffffffffffffff02191690553360055f015f6101000a81548173ffffffffffffffffffffffffffffffffffffffff021916908373ffffffffffffffffffffffffffffffffffffffff16021790555060055f01601581819054906101000a900463ffffffff16809291906107b590611c53565b91906101000a81548163ffffffff021916908363ffffffff1602179055505060055f0160149054906101000a900460ff16156107f5576107f45f611916565b5b60055f0160159054906101000a900463ffffffff1663ffffffff1660055f015f9054906101000a900473ffffffffffffffffffffffffffffffffffffffff1673ffffffffffffffffffffffffffffffffffffffff167f11e1b985c07e1bf3fec9bfd0bdb8c4a8e870ba2b26aa89fe50a6a19132ca10fd60405160405180910390a36108ad565b6040517f6c4360f000000000000000000000000000000000000000000000000000000000815260040160405180910390fd5b565b427f000000000000000000000000000000000000000000000000000000000000000065ffffffffffff161015610959576108e76113be565b73ffffffffffffffffffffffffffffffffffffffff163373ffffffffffffffffffffffffffffffffffffffff1614610954576040517f08c379a000000000000000000000000000000000000000000000000000000000815260040161094b90611c08565b60405180910390fd5b6109e0565b610961610f42565b73ffffffffffffffffffffffffffffffffffffffff163373ffffffffffffffffffffffffffffffffffffffff161480156109a0575061099e610f6c565b155b6109df576040517f08c379a00000000000000000000000000000000000000000000000000000000081526004016109d690611c08565b60405180910390fd5b5b42600360149054906101000a900465ffffffffffff1665ffffffffffff161015610b3e575f600360149054906101000a900465ffffffffffff1665ffffffffffff1603610a62576040517f08c379a0000000000000000000000000000000000000000000000000000000008152600401610a5990611cc8565b60405180910390fd5b8073ffffffffffffffffffffffffffffffffffffffff165f8054906101000a900473ffffffffffffffffffffffffffffffffffffffff1673ffffffffffffffffffffffffffffffffffffffff1603610afc57600360146101000a81549065ffffffffffff02191690555f806101000a81549073ffffffffffffffffffffffffffffffffffffffff0219169055610af781611935565b610b39565b806040517fc6322315000000000000000000000000000000000000000000000000000000008152600401610b309190611ad6565b60405180910390fd5b610b9a565b42600360149054906101000a900465ffffffffffff16610b5e9190611cf7565b6040517f223a6cbb000000000000000000000000000000000000000000000000000000008152600401610b919190611d3f565b60405180910390fd5b50565b5f60065f015f9054906101000a900473ffffffffffffffffffffffffffffffffffffffff16905090565b5f60075f015f9054906101000a900473ffffffffffffffffffffffffffffffffffffffff16905090565b427f000000000000000000000000000000000000000000000000000000000000000065ffffffffffff161015610c9b57610c296113be565b73ffffffffffffffffffffffffffffffffffffffff163373ffffffffffffffffffffffffffffffffffffffff1614610c96576040517f08c379a0000000000000000000000000000000000000000000000000000000008152600401610c8d90611c08565b60405180910390fd5b610d22565b610ca3610f42565b73ffffffffffffffffffffffffffffffffffffffff163373ffffffffffffffffffffffffffffffffffffffff16148015610ce25750610ce0610f6c565b155b610d21576040517f08c379a0000000000000000000000000000000000000000000000000000000008152600401610d1890611c08565b60405180910390fd5b5b8073ffffffffffffffffffffffffffffffffffffffff165f8054906101000a900473ffffffffffffffffffffffffffffffffffffffff1673ffffffffffffffffffffffffffffffffffffffff1603610df657600360146101000a81549065ffffffffffff02191690555f806101000a81549073ffffffffffffffffffffffffffffffffffffffff02191690558073ffffffffffffffffffffffffffffffffffffffff167f62125dd3d531106ff055aac7090ccec5e1edec1d0db6b0f1355f2ca15475469560405160405180910390a2610e33565b806040517fc6322315000000000000000000000000000000000000000000000000000000008152600401610e2a9190611ad6565b60405180910390fd5b50565b610e3e610f42565b73ffffffffffffffffffffffffffffffffffffffff163373ffffffffffffffffffffffffffffffffffffffff16148015610e7d5750610e7b610f6c565b155b610ebc576040517f08c379a0000000000000000000000000000000000000000000000000000000008152600401610eb390611c08565b60405180910390fd5b8060035f6101000a81548173ffffffffffffffffffffffffffffffffffffffff021916908373ffffffffffffffffffffffffffffffffffffffff1602179055508073ffffffffffffffffffffffffffffffffffffffff167fff3cad3ee28c342ad5f3d7c8ff8559ee4d21eb48494092b82a1652e443b3420b60405160405180910390a250565b5f60045f015f9054906101000a900473ffffffffffffffffffffffffffffffffffffffff16905090565b5f60045f0160149054906101000a900460ff16905090565b427f000000000000000000000000000000000000000000000000000000000000000065ffffffffffff16101561102e57610fbc6113be565b73ffffffffffffffffffffffffffffffffffffffff163373ffffffffffffffffffffffffffffffffffffffff1614611029576040517f08c379a000000000000000000000000000000000000000000000000000000000815260040161102090611c08565b60405180910390fd5b6110b5565b611036610f42565b73ffffffffffffffffffffffffffffffffffffffff163373ffffffffffffffffffffffffffffffffffffffff161480156110755750611073610f6c565b155b6110b4576040517f08c379a00000000000000000000000000000000000000000000000000000000081526004016110ab90611c08565b60405180910390fd5b5b5f8173ffffffffffffffffffffffffffffffffffffffff163b11156111f3573373ffffffffffffffffffffffffffffffffffffffff1660045f015f9054906101000a900473ffffffffffffffffffffffffffffffffffffffff1673ffffffffffffffffffffffffffffffffffffffff16036111385761113381611935565b6111ee565b6213c680426111479190611d61565b600360146101000a81548165ffffffffffff021916908365ffffffffffff160217905550805f806101000a81548173ffffffffffffffffffffffffffffffffffffffff021916908373ffffffffffffffffffffffffffffffffffffffff1602179055508073ffffffffffffffffffffffffffffffffffffffff167f30b8fe69c9b4c23cc01223881227c0cc8cba5cc56d59263f51711df1a8f2c66760405160405180910390a25b611230565b806040517fc63223150000000000000000000000000000000000000000000000000000000081526004016112279190611ad6565b60405180910390fd5b50565b5f60055f015f9054906101000a900473ffffffffffffffffffffffffffffffffffffffff16905090565b427f000000000000000000000000000000000000000000000000000000000000000065ffffffffffff161015611307576112956113be565b73ffffffffffffffffffffffffffffffffffffffff163373ffffffffffffffffffffffffffffffffffffffff1614611302576040517f08c379a00000000000000000000000000000000000000000000000000000000081526004016112f990611c08565b60405180910390fd5b61138e565b61130f610f42565b73ffffffffffffffffffffffffffffffffffffffff163373ffffffffffffffffffffffffffffffffffffffff1614801561134e575061134c610f6c565b155b61138d576040517f08c379a000000000000000000000000000000000000000000000000000000000815260040161138490611c08565b60405180910390fd5b5b611397816118f7565b6113a081611916565b50565b5f60065f0160159054906101000a900463ffffffff16905090565b5f7f0000000000000000000000000000000000000000000000000000000000000000905090565b427f000000000000000000000000000000000000000000000000000000000000000065ffffffffffff16101561148f5761141d6113be565b73ffffffffffffffffffffffffffffffffffffffff163373ffffffffffffffffffffffffffffffffffffffff161461148a576040517f08c379a000000000000000000000000000000000000000000000000000000000815260040161148190611c08565b60405180910390fd5b611516565b611497610f42565b73ffffffffffffffffffffffffffffffffffffffff163373ffffffffffffffffffffffffffffffffffffffff161480156114d657506114d4610f6c565b155b611515576040517f08c379a000000000000000000000000000000000000000000000000000000000815260040161150c90611c08565b60405180910390fd5b5b5f8173ffffffffffffffffffffffffffffffffffffffff163b11156115bd578060015f6101000a81548173ffffffffffffffffffffffffffffffffffffffff021916908373ffffffffffffffffffffffffffffffffffffffff1602179055508073ffffffffffffffffffffffffffffffffffffffff167fe8d8e3c7c3ebec0c177d0fe22d223f8b5071db39155104808d45027e368ba77a60405160405180910390a26115fa565b806040517f84dbc6cb0000000000000000000000000000000000000000000000000000000081526004016115f19190611ad6565b60405180910390fd5b50565b5f30905090565b5f60055f0160149054906101000a900460ff16905090565b611624610f42565b73ffffffffffffffffffffffffffffffffffffffff163373ffffffffffffffffffffffffffffffffffffffff161480156116635750611661610f6c565b155b6116a2576040517f08c379a000000000000000000000000000000000000000000000000000000000815260040161169990611c08565b60405180910390fd5b8073ffffffffffffffffffffffffffffffffffffffff1660015f9054906101000a900473ffffffffffffffffffffffffffffffffffffffff1673ffffffffffffffffffffffffffffffffffffffff16036118255760015f6101000a81549073ffffffffffffffffffffffffffffffffffffffff02191690558060065f015f6101000a81548173ffffffffffffffffffffffffffffffffffffffff021916908373ffffffffffffffffffffffffffffffffffffffff16021790555060065f01601581819054906101000a900463ffffffff168092919061178090611c53565b91906101000a81548163ffffffff021916908363ffffffff1602179055505060065f0160159054906101000a900463ffffffff1663ffffffff1660065f015f9054906101000a900473ffffffffffffffffffffffffffffffffffffffff1673ffffffffffffffffffffffffffffffffffffffff167f5e86008a8467d1efccfe6cb6bd49ba7278d6af2745a1e6994e443322a423709360405160405180910390a3611862565b806040517f84dbc6cb0000000000000000000000000000000000000000000000000000000081526004016118599190611ad6565b60405180910390fd5b50565b61186d610f42565b73ffffffffffffffffffffffffffffffffffffffff163373ffffffffffffffffffffffffffffffffffffffff161480156118ac57506118aa610f6c565b155b6118eb576040517f08c379a00000000000000000000000000000000000000000000000000000000081526004016118e290611c08565b60405180910390fd5b6118f481611916565b50565b8060045f0160146101000a81548160ff02191690831515021790555050565b8060055f0160146101000a81548160ff02191690831515021790555050565b8060075f015f6101000a81548173ffffffffffffffffffffffffffffffffffffffff021916908373ffffffffffffffffffffffffffffffffffffffff16021790555060075f01601581819054906101000a900463ffffffff168092919061199b90611c53565b91906101000a81548163ffffffff021916908363ffffffff1602179055505060075f0160159054906101000a900463ffffffff1663ffffffff1660075f015f9054906101000a900473ffffffffffffffffffffffffffffffffffffffff1673ffffffffffffffffffffffffffffffffffffffff167fb88ef4c2b55163ed88bcf28dadfee0092169b7a9a712ceb09ff75e6d2d4ba63b60405160405180910390a350565b5f80fd5b5f73ffffffffffffffffffffffffffffffffffffffff82169050919050565b5f611a6b82611a42565b9050919050565b611a7b81611a61565b8114611a85575f80fd5b50565b5f81359050611a9681611a72565b92915050565b5f60208284031215611ab157611ab0611a3e565b5b5f611abe84828501611a88565b91505092915050565b611ad081611a61565b82525050565b5f602082019050611ae95f830184611ac7565b92915050565b5f8115159050919050565b611b0381611aef565b82525050565b5f602082019050611b1c5f830184611afa565b92915050565b611b2b81611aef565b8114611b35575f80fd5b50565b5f81359050611b4681611b22565b92915050565b5f60208284031215611b6157611b60611a3e565b5b5f611b6e84828501611b38565b91505092915050565b5f63ffffffff82169050919050565b611b8f81611b77565b82525050565b5f602082019050611ba85f830184611b86565b92915050565b5f82825260208201905092915050565b7f416363657373206973206e6f742076616c6964000000000000000000000000005f82015250565b5f611bf2601383611bae565b9150611bfd82611bbe565b602082019050919050565b5f6020820190508181035f830152611c1f81611be6565b9050919050565b7f4e487b71000000000000000000000000000000000000000000000000000000005f52601160045260245ffd5b5f611c5d82611b77565b915063ffffffff8203611c7357611c72611c26565b5b600182019050919050565b7f546865207265717565737420697320696e76616c6964000000000000000000005f82015250565b5f611cb2601683611bae565b9150611cbd82611c7e565b602082019050919050565b5f6020820190508181035f830152611cdf81611ca6565b9050919050565b5f65ffffffffffff82169050919050565b5f611d0182611ce6565b9150611d0c83611ce6565b9250828203905065ffffffffffff811115611d2a57611d29611c26565b5b92915050565b611d3981611ce6565b82525050565b5f602082019050611d525f830184611d30565b92915050565b5f819050919050565b5f611d6b82611d58565b9150611d7683611d58565b9250828201905080821115611d8e57611d8d611c26565b5b9291505056fea2646970667358221220d37178467f45cb86c49952ff3a5494ba2e0a748f22e96dd0639654944738974164736f6c63430008140033",
			"opcodes": "PUSH1 0xC0 PUSH1 0x40 MSTORE PUSH0 PUSH20 0xFFFFFFFFFFFFFFFFFFFFFFFFFFFFFFFFFFFFFFFF AND PUSH1 0x80 SWAP1 PUSH20 0xFFFFFFFFFFFFFFFFFFFFFFFFFFFFFFFFFFFFFFFF AND DUP2 MSTORE POP CALLVALUE DUP1 ISZERO PUSH3 0x43 JUMPI PUSH0 DUP1 REVERT JUMPDEST POP PUSH4 0x16A8C800 TIMESTAMP PUSH3 0x56 SWAP2 SWAP1 PUSH3 0x130 JUMP JUMPDEST PUSH6 0xFFFFFFFFFFFF AND PUSH1 0xA0 DUP2 PUSH6 0xFFFFFFFFFFFF AND DUP2 MSTORE POP POP CALLER PUSH1 0x4 PUSH0 ADD PUSH0 PUSH2 0x100 EXP DUP2 SLOAD DUP2 PUSH20 0xFFFFFFFFFFFFFFFFFFFFFFFFFFFFFFFFFFFFFFFF MUL NOT AND SWAP1 DUP4 PUSH20 0xFFFFFFFFFFFFFFFFFFFFFFFFFFFFFFFFFFFFFFFF AND MUL OR SWAP1 SSTORE POP PUSH1 0x4 PUSH0 ADD PUSH1 0x15 DUP2 DUP2 SWAP1 SLOAD SWAP1 PUSH2 0x100 EXP SWAP1 DIV PUSH4 0xFFFFFFFF AND DUP1 SWAP3 SWAP2 SWAP1 PUSH3 0xD5 SWAP1 PUSH3 0x179 JUMP JUMPDEST SWAP2 SWAP1 PUSH2 0x100 EXP DUP2 SLOAD DUP2 PUSH4 0xFFFFFFFF MUL NOT AND SWAP1 DUP4 PUSH4 0xFFFFFFFF AND MUL OR SWAP1 SSTORE POP POP PUSH3 0x1A9 JUMP JUMPDEST PUSH0 DUP2 SWAP1 POP SWAP2 SWAP1 POP JUMP JUMPDEST PUSH32 0x4E487B7100000000000000000000000000000000000000000000000000000000 PUSH0 MSTORE PUSH1 0x11 PUSH1 0x4 MSTORE PUSH1 0x24 PUSH0 REVERT JUMPDEST PUSH0 PUSH3 0x13C DUP3 PUSH3 0xFA JUMP JUMPDEST SWAP2 POP PUSH3 0x149 DUP4 PUSH3 0xFA JUMP JUMPDEST SWAP3 POP DUP3 DUP3 ADD SWAP1 POP DUP1 DUP3 GT ISZERO PUSH3 0x164 JUMPI PUSH3 0x163 PUSH3 0x103 JUMP JUMPDEST JUMPDEST SWAP3 SWAP2 POP POP JUMP JUMPDEST PUSH0 PUSH4 0xFFFFFFFF DUP3 AND SWAP1 POP SWAP2 SWAP1 POP JUMP JUMPDEST PUSH0 PUSH3 0x185 DUP3 PUSH3 0x16A JUMP JUMPDEST SWAP2 POP PUSH4 0xFFFFFFFF DUP3 SUB PUSH3 0x19E JUMPI PUSH3 0x19D PUSH3 0x103 JUMP JUMPDEST JUMPDEST PUSH1 0x1 DUP3 ADD SWAP1 POP SWAP2 SWAP1 POP JUMP JUMPDEST PUSH1 0x80 MLOAD PUSH1 0xA0 MLOAD PUSH2 0x1DCA PUSH3 0x1EE PUSH0 CODECOPY PUSH0 DUP2 DUP2 PUSH2 0x34F ADD MSTORE DUP2 DUP2 PUSH2 0x8B2 ADD MSTORE DUP2 DUP2 PUSH2 0xBF4 ADD MSTORE DUP2 DUP2 PUSH2 0xF87 ADD MSTORE DUP2 DUP2 PUSH2 0x1260 ADD MSTORE PUSH2 0x13E8 ADD MSTORE PUSH0 PUSH2 0x13C1 ADD MSTORE PUSH2 0x1DCA PUSH0 RETURN INVALID PUSH1 0x80 PUSH1 0x40 MSTORE CALLVALUE DUP1 ISZERO PUSH2 0xF JUMPI PUSH0 DUP1 REVERT JUMPDEST POP PUSH1 0x4 CALLDATASIZE LT PUSH2 0x12A JUMPI PUSH0 CALLDATALOAD PUSH1 0xE0 SHR DUP1 PUSH4 0x861A179D GT PUSH2 0xAB JUMPI DUP1 PUSH4 0xCA4CCE68 GT PUSH2 0x6F JUMPI DUP1 PUSH4 0xCA4CCE68 EQ PUSH2 0x2BC JUMPI DUP1 PUSH4 0xE47A9D46 EQ PUSH2 0x2D8 JUMPI DUP1 PUSH4 0xE4F3E947 EQ PUSH2 0x2F6 JUMPI DUP1 PUSH4 0xEE7126C3 EQ PUSH2 0x314 JUMPI DUP1 PUSH4 0xF5F9CDD4 EQ PUSH2 0x330 JUMPI PUSH2 0x12A JUMP JUMPDEST DUP1 PUSH4 0x861A179D EQ PUSH2 0x22A JUMPI DUP1 PUSH4 0xA53DA00B EQ PUSH2 0x246 JUMPI DUP1 PUSH4 0xB5C09C68 EQ PUSH2 0x264 JUMPI DUP1 PUSH4 0xC387B49C EQ PUSH2 0x280 JUMPI DUP1 PUSH4 0xC5A1C5C1 EQ PUSH2 0x29E JUMPI PUSH2 0x12A JUMP JUMPDEST DUP1 PUSH4 0x37676F79 GT PUSH2 0xF2 JUMPI DUP1 PUSH4 0x37676F79 EQ PUSH2 0x198 JUMPI DUP1 PUSH4 0x4494ACD9 EQ PUSH2 0x1B6 JUMPI DUP1 PUSH4 0x544FA93E EQ PUSH2 0x1D2 JUMPI DUP1 PUSH4 0x66410997 EQ PUSH2 0x1EE JUMPI DUP1 PUSH4 0x6CF106D7 EQ PUSH2 0x20C JUMPI PUSH2 0x12A JUMP JUMPDEST DUP1 PUSH4 0x54203BD EQ PUSH2 0x12E JUMPI DUP1 PUSH4 0xDF4C390 EQ PUSH2 0x14A JUMPI DUP1 PUSH4 0x18074EEE EQ PUSH2 0x154 JUMPI DUP1 PUSH4 0x1F86AA2A EQ PUSH2 0x15E JUMPI DUP1 PUSH4 0x289B3C0D EQ PUSH2 0x17A JUMPI JUMPDEST PUSH0 DUP1 REVERT JUMPDEST PUSH2 0x148 PUSH1 0x4 DUP1 CALLDATASIZE SUB DUP2 ADD SWAP1 PUSH2 0x143 SWAP2 SWAP1 PUSH2 0x1A9C JUMP JUMPDEST PUSH2 0x34C JUMP JUMPDEST STOP JUMPDEST PUSH2 0x152 PUSH2 0x517 JUMP JUMPDEST STOP JUMPDEST PUSH2 0x15C PUSH2 0x6D7 JUMP JUMPDEST STOP JUMPDEST PUSH2 0x178 PUSH1 0x4 DUP1 CALLDATASIZE SUB DUP2 ADD SWAP1 PUSH2 0x173 SWAP2 SWAP1 PUSH2 0x1A9C JUMP JUMPDEST PUSH2 0x8AF JUMP JUMPDEST STOP JUMPDEST PUSH2 0x182 PUSH2 0xB9D JUMP JUMPDEST PUSH1 0x40 MLOAD PUSH2 0x18F SWAP2 SWAP1 PUSH2 0x1AD6 JUMP JUMPDEST PUSH1 0x40 MLOAD DUP1 SWAP2 SUB SWAP1 RETURN JUMPDEST PUSH2 0x1A0 PUSH2 0xBC7 JUMP JUMPDEST PUSH1 0x40 MLOAD PUSH2 0x1AD SWAP2 SWAP1 PUSH2 0x1AD6 JUMP JUMPDEST PUSH1 0x40 MLOAD DUP1 SWAP2 SUB SWAP1 RETURN JUMPDEST PUSH2 0x1D0 PUSH1 0x4 DUP1 CALLDATASIZE SUB DUP2 ADD SWAP1 PUSH2 0x1CB SWAP2 SWAP1 PUSH2 0x1A9C JUMP JUMPDEST PUSH2 0xBF1 JUMP JUMPDEST STOP JUMPDEST PUSH2 0x1EC PUSH1 0x4 DUP1 CALLDATASIZE SUB DUP2 ADD SWAP1 PUSH2 0x1E7 SWAP2 SWAP1 PUSH2 0x1A9C JUMP JUMPDEST PUSH2 0xE36 JUMP JUMPDEST STOP JUMPDEST PUSH2 0x1F6 PUSH2 0xF42 JUMP JUMPDEST PUSH1 0x40 MLOAD PUSH2 0x203 SWAP2 SWAP1 PUSH2 0x1AD6 JUMP JUMPDEST PUSH1 0x40 MLOAD DUP1 SWAP2 SUB SWAP1 RETURN JUMPDEST PUSH2 0x214 PUSH2 0xF6C JUMP JUMPDEST PUSH1 0x40 MLOAD PUSH2 0x221 SWAP2 SWAP1 PUSH2 0x1B09 JUMP JUMPDEST PUSH1 0x40 MLOAD DUP1 SWAP2 SUB SWAP1 RETURN JUMPDEST PUSH2 0x244 PUSH1 0x4 DUP1 CALLDATASIZE SUB DUP2 ADD SWAP1 PUSH2 0x23F SWAP2 SWAP1 PUSH2 0x1A9C JUMP JUMPDEST PUSH2 0xF84 JUMP JUMPDEST STOP JUMPDEST PUSH2 0x24E PUSH2 0x1233 JUMP JUMPDEST PUSH1 0x40 MLOAD PUSH2 0x25B SWAP2 SWAP1 PUSH2 0x1AD6 JUMP JUMPDEST PUSH1 0x40 MLOAD DUP1 SWAP2 SUB SWAP1 RETURN JUMPDEST PUSH2 0x27E PUSH1 0x4 DUP1 CALLDATASIZE SUB DUP2 ADD SWAP1 PUSH2 0x279 SWAP2 SWAP1 PUSH2 0x1B4C JUMP JUMPDEST PUSH2 0x125D JUMP JUMPDEST STOP JUMPDEST PUSH2 0x288 PUSH2 0x13A3 JUMP JUMPDEST PUSH1 0x40 MLOAD PUSH2 0x295 SWAP2 SWAP1 PUSH2 0x1B95 JUMP JUMPDEST PUSH1 0x40 MLOAD DUP1 SWAP2 SUB SWAP1 RETURN JUMPDEST PUSH2 0x2A6 PUSH2 0x13BE JUMP JUMPDEST PUSH1 0x40 MLOAD PUSH2 0x2B3 SWAP2 SWAP1 PUSH2 0x1AD6 JUMP JUMPDEST PUSH1 0x40 MLOAD DUP1 SWAP2 SUB SWAP1 RETURN JUMPDEST PUSH2 0x2D6 PUSH1 0x4 DUP1 CALLDATASIZE SUB DUP2 ADD SWAP1 PUSH2 0x2D1 SWAP2 SWAP1 PUSH2 0x1A9C JUMP JUMPDEST PUSH2 0x13E5 JUMP JUMPDEST STOP JUMPDEST PUSH2 0x2E0 PUSH2 0x15FD JUMP JUMPDEST PUSH1 0x40 MLOAD PUSH2 0x2ED SWAP2 SWAP1 PUSH2 0x1AD6 JUMP JUMPDEST PUSH1 0x40 MLOAD DUP1 SWAP2 SUB SWAP1 RETURN JUMPDEST PUSH2 0x2FE PUSH2 0x1604 JUMP JUMPDEST PUSH1 0x40 MLOAD PUSH2 0x30B SWAP2 SWAP1 PUSH2 0x1B09 JUMP JUMPDEST PUSH1 0x40 MLOAD DUP1 SWAP2 SUB SWAP1 RETURN JUMPDEST PUSH2 0x32E PUSH1 0x4 DUP1 CALLDATASIZE SUB DUP2 ADD SWAP1 PUSH2 0x329 SWAP2 SWAP1 PUSH2 0x1A9C JUMP JUMPDEST PUSH2 0x161C JUMP JUMPDEST STOP JUMPDEST PUSH2 0x34A PUSH1 0x4 DUP1 CALLDATASIZE SUB DUP2 ADD SWAP1 PUSH2 0x345 SWAP2 SWAP1 PUSH2 0x1B4C JUMP JUMPDEST PUSH2 0x1865 JUMP JUMPDEST STOP JUMPDEST TIMESTAMP PUSH32 0x0 PUSH6 0xFFFFFFFFFFFF AND LT ISZERO PUSH2 0x3F6 JUMPI PUSH2 0x384 PUSH2 0x13BE JUMP JUMPDEST PUSH20 0xFFFFFFFFFFFFFFFFFFFFFFFFFFFFFFFFFFFFFFFF AND CALLER PUSH20 0xFFFFFFFFFFFFFFFFFFFFFFFFFFFFFFFFFFFFFFFF AND EQ PUSH2 0x3F1 JUMPI PUSH1 0x40 MLOAD PUSH32 0x8C379A000000000000000000000000000000000000000000000000000000000 DUP2 MSTORE PUSH1 0x4 ADD PUSH2 0x3E8 SWAP1 PUSH2 0x1C08 JUMP JUMPDEST PUSH1 0x40 MLOAD DUP1 SWAP2 SUB SWAP1 REVERT JUMPDEST PUSH2 0x47D JUMP JUMPDEST PUSH2 0x3FE PUSH2 0xF42 JUMP JUMPDEST PUSH20 0xFFFFFFFFFFFFFFFFFFFFFFFFFFFFFFFFFFFFFFFF AND CALLER PUSH20 0xFFFFFFFFFFFFFFFFFFFFFFFFFFFFFFFFFFFFFFFF AND EQ DUP1 ISZERO PUSH2 0x43D JUMPI POP PUSH2 0x43B PUSH2 0xF6C JUMP JUMPDEST ISZERO JUMPDEST PUSH2 0x47C JUMPI PUSH1 0x40 MLOAD PUSH32 0x8C379A000000000000000000000000000000000000000000000000000000000 DUP2 MSTORE PUSH1 0x4 ADD PUSH2 0x473 SWAP1 PUSH2 0x1C08 JUMP JUMPDEST PUSH1 0x40 MLOAD DUP1 SWAP2 SUB SWAP1 REVERT JUMPDEST JUMPDEST DUP1 PUSH1 0x2 PUSH0 PUSH2 0x100 EXP DUP2 SLOAD DUP2 PUSH20 0xFFFFFFFFFFFFFFFFFFFFFFFFFFFFFFFFFFFFFFFF MUL NOT AND SWAP1 DUP4 PUSH20 0xFFFFFFFFFFFFFFFFFFFFFFFFFFFFFFFFFFFFFFFF AND MUL OR SWAP1 SSTORE POP PUSH2 0x4C7 PUSH1 0x1 PUSH2 0x18F7 JUMP JUMPDEST PUSH2 0x4D1 PUSH1 0x1 PUSH2 0x1916 JUMP JUMPDEST DUP1 PUSH20 0xFFFFFFFFFFFFFFFFFFFFFFFFFFFFFFFFFFFFFFFF AND PUSH32 0x3553F1F7EF0242113266A8D183B621BB87468C99237F36B1150B6AB3D688B686 PUSH1 0x40 MLOAD PUSH1 0x40 MLOAD DUP1 SWAP2 SUB SWAP1 LOG2 POP JUMP JUMPDEST CALLER PUSH20 0xFFFFFFFFFFFFFFFFFFFFFFFFFFFFFFFFFFFFFFFF AND PUSH1 0x2 PUSH0 SWAP1 SLOAD SWAP1 PUSH2 0x100 EXP SWAP1 DIV PUSH20 0xFFFFFFFFFFFFFFFFFFFFFFFFFFFFFFFFFFFFFFFF AND PUSH20 0xFFFFFFFFFFFFFFFFFFFFFFFFFFFFFFFFFFFFFFFF AND SUB PUSH2 0x6A3 JUMPI PUSH1 0x2 PUSH0 PUSH2 0x100 EXP DUP2 SLOAD SWAP1 PUSH20 0xFFFFFFFFFFFFFFFFFFFFFFFFFFFFFFFFFFFFFFFF MUL NOT AND SWAP1 SSTORE CALLER PUSH1 0x4 PUSH0 ADD PUSH0 PUSH2 0x100 EXP DUP2 SLOAD DUP2 PUSH20 0xFFFFFFFFFFFFFFFFFFFFFFFFFFFFFFFFFFFFFFFF MUL NOT AND SWAP1 DUP4 PUSH20 0xFFFFFFFFFFFFFFFFFFFFFFFFFFFFFFFFFFFFFFFF AND MUL OR SWAP1 SSTORE POP PUSH1 0x4 PUSH0 ADD PUSH1 0x15 DUP2 DUP2 SWAP1 SLOAD SWAP1 PUSH2 0x100 EXP SWAP1 DIV PUSH4 0xFFFFFFFF AND DUP1 SWAP3 SWAP2 SWAP1 PUSH2 0x5F5 SWAP1 PUSH2 0x1C53 JUMP JUMPDEST SWAP2 SWAP1 PUSH2 0x100 EXP DUP2 SLOAD DUP2 PUSH4 0xFFFFFFFF MUL NOT AND SWAP1 DUP4 PUSH4 0xFFFFFFFF AND MUL OR SWAP1 SSTORE POP POP PUSH2 0x61D PUSH0 PUSH2 0x18F7 JUMP JUMPDEST PUSH1 0x4 PUSH0 ADD PUSH1 0x15 SWAP1 SLOAD SWAP1 PUSH2 0x100 EXP SWAP1 DIV PUSH4 0xFFFFFFFF AND PUSH4 0xFFFFFFFF AND PUSH1 0x4 PUSH0 ADD PUSH0 SWAP1 SLOAD SWAP1 PUSH2 0x100 EXP SWAP1 DIV PUSH20 0xFFFFFFFFFFFFFFFFFFFFFFFFFFFFFFFFFFFFFFFF AND PUSH20 0xFFFFFFFFFFFFFFFFFFFFFFFFFFFFFFFFFFFFFFFF AND PUSH32 0x5AD9B3688012CD825C1BFB941E4F5AFB2558AF6AF3DEADDF01DBB5E85ABDAF9 PUSH1 0x40 MLOAD PUSH1 0x40 MLOAD DUP1 SWAP2 SUB SWAP1 LOG3 PUSH2 0x6D5 JUMP JUMPDEST PUSH1 0x40 MLOAD PUSH32 0x6C4360F000000000000000000000000000000000000000000000000000000000 DUP2 MSTORE PUSH1 0x4 ADD PUSH1 0x40 MLOAD DUP1 SWAP2 SUB SWAP1 REVERT JUMPDEST JUMP JUMPDEST CALLER PUSH20 0xFFFFFFFFFFFFFFFFFFFFFFFFFFFFFFFFFFFFFFFF AND PUSH1 0x3 PUSH0 SWAP1 SLOAD SWAP1 PUSH2 0x100 EXP SWAP1 DIV PUSH20 0xFFFFFFFFFFFFFFFFFFFFFFFFFFFFFFFFFFFFFFFF AND PUSH20 0xFFFFFFFFFFFFFFFFFFFFFFFFFFFFFFFFFFFFFFFF AND SUB PUSH2 0x87B JUMPI PUSH1 0x3 PUSH0 PUSH2 0x100 EXP DUP2 SLOAD SWAP1 PUSH20 0xFFFFFFFFFFFFFFFFFFFFFFFFFFFFFFFFFFFFFFFF MUL NOT AND SWAP1 SSTORE CALLER PUSH1 0x5 PUSH0 ADD PUSH0 PUSH2 0x100 EXP DUP2 SLOAD DUP2 PUSH20 0xFFFFFFFFFFFFFFFFFFFFFFFFFFFFFFFFFFFFFFFF MUL NOT AND SWAP1 DUP4 PUSH20 0xFFFFFFFFFFFFFFFFFFFFFFFFFFFFFFFFFFFFFFFF AND MUL OR SWAP1 SSTORE POP PUSH1 0x5 PUSH0 ADD PUSH1 0x15 DUP2 DUP2 SWAP1 SLOAD SWAP1 PUSH2 0x100 EXP SWAP1 DIV PUSH4 0xFFFFFFFF AND DUP1 SWAP3 SWAP2 SWAP1 PUSH2 0x7B5 SWAP1 PUSH2 0x1C53 JUMP JUMPDEST SWAP2 SWAP1 PUSH2 0x100 EXP DUP2 SLOAD DUP2 PUSH4 0xFFFFFFFF MUL NOT AND SWAP1 DUP4 PUSH4 0xFFFFFFFF AND MUL OR SWAP1 SSTORE POP POP PUSH1 0x5 PUSH0 ADD PUSH1 0x14 SWAP1 SLOAD SWAP1 PUSH2 0x100 EXP SWAP1 DIV PUSH1 0xFF AND ISZERO PUSH2 0x7F5 JUMPI PUSH2 0x7F4 PUSH0 PUSH2 0x1916 JUMP JUMPDEST JUMPDEST PUSH1 0x5 PUSH0 ADD PUSH1 0x15 SWAP1 SLOAD SWAP1 PUSH2 0x100 EXP SWAP1 DIV PUSH4 0xFFFFFFFF AND PUSH4 0xFFFFFFFF AND PUSH1 0x5 PUSH0 ADD PUSH0 SWAP1 SLOAD SWAP1 PUSH2 0x100 EXP SWAP1 DIV PUSH20 0xFFFFFFFFFFFFFFFFFFFFFFFFFFFFFFFFFFFFFFFF AND PUSH20 0xFFFFFFFFFFFFFFFFFFFFFFFFFFFFFFFFFFFFFFFF AND PUSH32 0x11E1B985C07E1BF3FEC9BFD0BDB8C4A8E870BA2B26AA89FE50A6A19132CA10FD PUSH1 0x40 MLOAD PUSH1 0x40 MLOAD DUP1 SWAP2 SUB SWAP1 LOG3 PUSH2 0x8AD JUMP JUMPDEST PUSH1 0x40 MLOAD PUSH32 0x6C4360F000000000000000000000000000000000000000000000000000000000 DUP2 MSTORE PUSH1 0x4 ADD PUSH1 0x40 MLOAD DUP1 SWAP2 SUB SWAP1 REVERT JUMPDEST JUMP JUMPDEST TIMESTAMP PUSH32 0x0 PUSH6 0xFFFFFFFFFFFF AND LT ISZERO PUSH2 0x959 JUMPI PUSH2 0x8E7 PUSH2 0x13BE JUMP JUMPDEST PUSH20 0xFFFFFFFFFFFFFFFFFFFFFFFFFFFFFFFFFFFFFFFF AND CALLER PUSH20 0xFFFFFFFFFFFFFFFFFFFFFFFFFFFFFFFFFFFFFFFF AND EQ PUSH2 0x954 JUMPI PUSH1 0x40 MLOAD PUSH32 0x8C379A000000000000000000000000000000000000000000000000000000000 DUP2 MSTORE PUSH1 0x4 ADD PUSH2 0x94B SWAP1 PUSH2 0x1C08 JUMP JUMPDEST PUSH1 0x40 MLOAD DUP1 SWAP2 SUB SWAP1 REVERT JUMPDEST PUSH2 0x9E0 JUMP JUMPDEST PUSH2 0x961 PUSH2 0xF42 JUMP JUMPDEST PUSH20 0xFFFFFFFFFFFFFFFFFFFFFFFFFFFFFFFFFFFFFFFF AND CALLER PUSH20 0xFFFFFFFFFFFFFFFFFFFFFFFFFFFFFFFFFFFFFFFF AND EQ DUP1 ISZERO PUSH2 0x9A0 JUMPI POP PUSH2 0x99E PUSH2 0xF6C JUMP JUMPDEST ISZERO JUMPDEST PUSH2 0x9DF JUMPI PUSH1 0x40 MLOAD PUSH32 0x8C379A000000000000000000000000000000000000000000000000000000000 DUP2 MSTORE PUSH1 0x4 ADD PUSH2 0x9D6 SWAP1 PUSH2 0x1C08 JUMP JUMPDEST PUSH1 0x40 MLOAD DUP1 SWAP2 SUB SWAP1 REVERT JUMPDEST JUMPDEST TIMESTAMP PUSH1 0x3 PUSH1 0x14 SWAP1 SLOAD SWAP1 PUSH2 0x100 EXP SWAP1 DIV PUSH6 0xFFFFFFFFFFFF AND PUSH6 0xFFFFFFFFFFFF AND LT ISZERO PUSH2 0xB3E JUMPI PUSH0 PUSH1 0x3 PUSH1 0x14 SWAP1 SLOAD SWAP1 PUSH2 0x100 EXP SWAP1 DIV PUSH6 0xFFFFFFFFFFFF AND PUSH6 0xFFFFFFFFFFFF AND SUB PUSH2 0xA62 JUMPI PUSH1 0x40 MLOAD PUSH32 0x8C379A000000000000000000000000000000000000000000000000000000000 DUP2 MSTORE PUSH1 0x4 ADD PUSH2 0xA59 SWAP1 PUSH2 0x1CC8 JUMP JUMPDEST PUSH1 0x40 MLOAD DUP1 SWAP2 SUB SWAP1 REVERT JUMPDEST DUP1 PUSH20 0xFFFFFFFFFFFFFFFFFFFFFFFFFFFFFFFFFFFFFFFF AND PUSH0 DUP1 SLOAD SWAP1 PUSH2 0x100 EXP SWAP1 DIV PUSH20 0xFFFFFFFFFFFFFFFFFFFFFFFFFFFFFFFFFFFFFFFF AND PUSH20 0xFFFFFFFFFFFFFFFFFFFFFFFFFFFFFFFFFFFFFFFF AND SUB PUSH2 0xAFC JUMPI PUSH1 0x3 PUSH1 0x14 PUSH2 0x100 EXP DUP2 SLOAD SWAP1 PUSH6 0xFFFFFFFFFFFF MUL NOT AND SWAP1 SSTORE PUSH0 DUP1 PUSH2 0x100 EXP DUP2 SLOAD SWAP1 PUSH20 0xFFFFFFFFFFFFFFFFFFFFFFFFFFFFFFFFFFFFFFFF MUL NOT AND SWAP1 SSTORE PUSH2 0xAF7 DUP2 PUSH2 0x1935 JUMP JUMPDEST PUSH2 0xB39 JUMP JUMPDEST DUP1 PUSH1 0x40 MLOAD PUSH32 0xC632231500000000000000000000000000000000000000000000000000000000 DUP2 MSTORE PUSH1 0x4 ADD PUSH2 0xB30 SWAP2 SWAP1 PUSH2 0x1AD6 JUMP JUMPDEST PUSH1 0x40 MLOAD DUP1 SWAP2 SUB SWAP1 REVERT JUMPDEST PUSH2 0xB9A JUMP JUMPDEST TIMESTAMP PUSH1 0x3 PUSH1 0x14 SWAP1 SLOAD SWAP1 PUSH2 0x100 EXP SWAP1 DIV PUSH6 0xFFFFFFFFFFFF AND PUSH2 0xB5E SWAP2 SWAP1 PUSH2 0x1CF7 JUMP JUMPDEST PUSH1 0x40 MLOAD PUSH32 0x223A6CBB00000000000000000000000000000000000000000000000000000000 DUP2 MSTORE PUSH1 0x4 ADD PUSH2 0xB91 SWAP2 SWAP1 PUSH2 0x1D3F JUMP JUMPDEST PUSH1 0x40 MLOAD DUP1 SWAP2 SUB SWAP1 REVERT JUMPDEST POP JUMP JUMPDEST PUSH0 PUSH1 0x6 PUSH0 ADD PUSH0 SWAP1 SLOAD SWAP1 PUSH2 0x100 EXP SWAP1 DIV PUSH20 0xFFFFFFFFFFFFFFFFFFFFFFFFFFFFFFFFFFFFFFFF AND SWAP1 POP SWAP1 JUMP JUMPDEST PUSH0 PUSH1 0x7 PUSH0 ADD PUSH0 SWAP1 SLOAD SWAP1 PUSH2 0x100 EXP SWAP1 DIV PUSH20 0xFFFFFFFFFFFFFFFFFFFFFFFFFFFFFFFFFFFFFFFF AND SWAP1 POP SWAP1 JUMP JUMPDEST TIMESTAMP PUSH32 0x0 PUSH6 0xFFFFFFFFFFFF AND LT ISZERO PUSH2 0xC9B JUMPI PUSH2 0xC29 PUSH2 0x13BE JUMP JUMPDEST PUSH20 0xFFFFFFFFFFFFFFFFFFFFFFFFFFFFFFFFFFFFFFFF AND CALLER PUSH20 0xFFFFFFFFFFFFFFFFFFFFFFFFFFFFFFFFFFFFFFFF AND EQ PUSH2 0xC96 JUMPI PUSH1 0x40 MLOAD PUSH32 0x8C379A000000000000000000000000000000000000000000000000000000000 DUP2 MSTORE PUSH1 0x4 ADD PUSH2 0xC8D SWAP1 PUSH2 0x1C08 JUMP JUMPDEST PUSH1 0x40 MLOAD DUP1 SWAP2 SUB SWAP1 REVERT JUMPDEST PUSH2 0xD22 JUMP JUMPDEST PUSH2 0xCA3 PUSH2 0xF42 JUMP JUMPDEST PUSH20 0xFFFFFFFFFFFFFFFFFFFFFFFFFFFFFFFFFFFFFFFF AND CALLER PUSH20 0xFFFFFFFFFFFFFFFFFFFFFFFFFFFFFFFFFFFFFFFF AND EQ DUP1 ISZERO PUSH2 0xCE2 JUMPI POP PUSH2 0xCE0 PUSH2 0xF6C JUMP JUMPDEST ISZERO JUMPDEST PUSH2 0xD21 JUMPI PUSH1 0x40 MLOAD PUSH32 0x8C379A000000000000000000000000000000000000000000000000000000000 DUP2 MSTORE PUSH1 0x4 ADD PUSH2 0xD18 SWAP1 PUSH2 0x1C08 JUMP JUMPDEST PUSH1 0x40 MLOAD DUP1 SWAP2 SUB SWAP1 REVERT JUMPDEST JUMPDEST DUP1 PUSH20 0xFFFFFFFFFFFFFFFFFFFFFFFFFFFFFFFFFFFFFFFF AND PUSH0 DUP1 SLOAD SWAP1 PUSH2 0x100 EXP SWAP1 DIV PUSH20 0xFFFFFFFFFFFFFFFFFFFFFFFFFFFFFFFFFFFFFFFF AND PUSH20 0xFFFFFFFFFFFFFFFFFFFFFFFFFFFFFFFFFFFFFFFF AND SUB PUSH2 0xDF6 JUMPI PUSH1 0x3 PUSH1 0x14 PUSH2 0x100 EXP DUP2 SLOAD SWAP1 PUSH6 0xFFFFFFFFFFFF MUL NOT AND SWAP1 SSTORE PUSH0 DUP1 PUSH2 0x100 EXP DUP2 SLOAD SWAP1 PUSH20 0xFFFFFFFFFFFFFFFFFFFFFFFFFFFFFFFFFFFFFFFF MUL NOT AND SWAP1 SSTORE DUP1 PUSH20 0xFFFFFFFFFFFFFFFFFFFFFFFFFFFFFFFFFFFFFFFF AND PUSH32 0x62125DD3D531106FF055AAC7090CCEC5E1EDEC1D0DB6B0F1355F2CA154754695 PUSH1 0x40 MLOAD PUSH1 0x40 MLOAD DUP1 SWAP2 SUB SWAP1 LOG2 PUSH2 0xE33 JUMP JUMPDEST DUP1 PUSH1 0x40 MLOAD PUSH32 0xC632231500000000000000000000000000000000000000000000000000000000 DUP2 MSTORE PUSH1 0x4 ADD PUSH2 0xE2A SWAP2 SWAP1 PUSH2 0x1AD6 JUMP JUMPDEST PUSH1 0x40 MLOAD DUP1 SWAP2 SUB SWAP1 REVERT JUMPDEST POP JUMP JUMPDEST PUSH2 0xE3E PUSH2 0xF42 JUMP JUMPDEST PUSH20 0xFFFFFFFFFFFFFFFFFFFFFFFFFFFFFFFFFFFFFFFF AND CALLER PUSH20 0xFFFFFFFFFFFFFFFFFFFFFFFFFFFFFFFFFFFFFFFF AND EQ DUP1 ISZERO PUSH2 0xE7D JUMPI POP PUSH2 0xE7B PUSH2 0xF6C JUMP JUMPDEST ISZERO JUMPDEST PUSH2 0xEBC JUMPI PUSH1 0x40 MLOAD PUSH32 0x8C379A000000000000000000000000000000000000000000000000000000000 DUP2 MSTORE PUSH1 0x4 ADD PUSH2 0xEB3 SWAP1 PUSH2 0x1C08 JUMP JUMPDEST PUSH1 0x40 MLOAD DUP1 SWAP2 SUB SWAP1 REVERT JUMPDEST DUP1 PUSH1 0x3 PUSH0 PUSH2 0x100 EXP DUP2 SLOAD DUP2 PUSH20 0xFFFFFFFFFFFFFFFFFFFFFFFFFFFFFFFFFFFFFFFF MUL NOT AND SWAP1 DUP4 PUSH20 0xFFFFFFFFFFFFFFFFFFFFFFFFFFFFFFFFFFFFFFFF AND MUL OR SWAP1 SSTORE POP DUP1 PUSH20 0xFFFFFFFFFFFFFFFFFFFFFFFFFFFFFFFFFFFFFFFF AND PUSH32 0xFF3CAD3EE28C342AD5F3D7C8FF8559EE4D21EB48494092B82A1652E443B3420B PUSH1 0x40 MLOAD PUSH1 0x40 MLOAD DUP1 SWAP2 SUB SWAP1 LOG2 POP JUMP JUMPDEST PUSH0 PUSH1 0x4 PUSH0 ADD PUSH0 SWAP1 SLOAD SWAP1 PUSH2 0x100 EXP SWAP1 DIV PUSH20 0xFFFFFFFFFFFFFFFFFFFFFFFFFFFFFFFFFFFFFFFF AND SWAP1 POP SWAP1 JUMP JUMPDEST PUSH0 PUSH1 0x4 PUSH0 ADD PUSH1 0x14 SWAP1 SLOAD SWAP1 PUSH2 0x100 EXP SWAP1 DIV PUSH1 0xFF AND SWAP1 POP SWAP1 JUMP JUMPDEST TIMESTAMP PUSH32 0x0 PUSH6 0xFFFFFFFFFFFF AND LT ISZERO PUSH2 0x102E JUMPI PUSH2 0xFBC PUSH2 0x13BE JUMP JUMPDEST PUSH20 0xFFFFFFFFFFFFFFFFFFFFFFFFFFFFFFFFFFFFFFFF AND CALLER PUSH20 0xFFFFFFFFFFFFFFFFFFFFFFFFFFFFFFFFFFFFFFFF AND EQ PUSH2 0x1029 JUMPI PUSH1 0x40 MLOAD PUSH32 0x8C379A000000000000000000000000000000000000000000000000000000000 DUP2 MSTORE PUSH1 0x4 ADD PUSH2 0x1020 SWAP1 PUSH2 0x1C08 JUMP JUMPDEST PUSH1 0x40 MLOAD DUP1 SWAP2 SUB SWAP1 REVERT JUMPDEST PUSH2 0x10B5 JUMP JUMPDEST PUSH2 0x1036 PUSH2 0xF42 JUMP JUMPDEST PUSH20 0xFFFFFFFFFFFFFFFFFFFFFFFFFFFFFFFFFFFFFFFF AND CALLER PUSH20 0xFFFFFFFFFFFFFFFFFFFFFFFFFFFFFFFFFFFFFFFF AND EQ DUP1 ISZERO PUSH2 0x1075 JUMPI POP PUSH2 0x1073 PUSH2 0xF6C JUMP JUMPDEST ISZERO JUMPDEST PUSH2 0x10B4 JUMPI PUSH1 0x40 MLOAD PUSH32 0x8C379A000000000000000000000000000000000000000000000000000000000 DUP2 MSTORE PUSH1 0x4 ADD PUSH2 0x10AB SWAP1 PUSH2 0x1C08 JUMP JUMPDEST PUSH1 0x40 MLOAD DUP1 SWAP2 SUB SWAP1 REVERT JUMPDEST JUMPDEST PUSH0 DUP2 PUSH20 0xFFFFFFFFFFFFFFFFFFFFFFFFFFFFFFFFFFFFFFFF AND EXTCODESIZE GT ISZERO PUSH2 0x11F3 JUMPI CALLER PUSH20 0xFFFFFFFFFFFFFFFFFFFFFFFFFFFFFFFFFFFFFFFF AND PUSH1 0x4 PUSH0 ADD PUSH0 SWAP1 SLOAD SWAP1 PUSH2 0x100 EXP SWAP1 DIV PUSH20 0xFFFFFFFFFFFFFFFFFFFFFFFFFFFFFFFFFFFFFFFF AND PUSH20 0xFFFFFFFFFFFFFFFFFFFFFFFFFFFFFFFFFFFFFFFF AND SUB PUSH2 0x1138 JUMPI PUSH2 0x1133 DUP2 PUSH2 0x1935 JUMP JUMPDEST PUSH2 0x11EE JUMP JUMPDEST PUSH3 0x13C680 TIMESTAMP PUSH2 0x1147 SWAP2 SWAP1 PUSH2 0x1D61 JUMP JUMPDEST PUSH1 0x3 PUSH1 0x14 PUSH2 0x100 EXP DUP2 SLOAD DUP2 PUSH6 0xFFFFFFFFFFFF MUL NOT AND SWAP1 DUP4 PUSH6 0xFFFFFFFFFFFF AND MUL OR SWAP1 SSTORE POP DUP1 PUSH0 DUP1 PUSH2 0x100 EXP DUP2 SLOAD DUP2 PUSH20 0xFFFFFFFFFFFFFFFFFFFFFFFFFFFFFFFFFFFFFFFF MUL NOT AND SWAP1 DUP4 PUSH20 0xFFFFFFFFFFFFFFFFFFFFFFFFFFFFFFFFFFFFFFFF AND MUL OR SWAP1 SSTORE POP DUP1 PUSH20 0xFFFFFFFFFFFFFFFFFFFFFFFFFFFFFFFFFFFFFFFF AND PUSH32 0x30B8FE69C9B4C23CC01223881227C0CC8CBA5CC56D59263F51711DF1A8F2C667 PUSH1 0x40 MLOAD PUSH1 0x40 MLOAD DUP1 SWAP2 SUB SWAP1 LOG2 JUMPDEST PUSH2 0x1230 JUMP JUMPDEST DUP1 PUSH1 0x40 MLOAD PUSH32 0xC632231500000000000000000000000000000000000000000000000000000000 DUP2 MSTORE PUSH1 0x4 ADD PUSH2 0x1227 SWAP2 SWAP1 PUSH2 0x1AD6 JUMP JUMPDEST PUSH1 0x40 MLOAD DUP1 SWAP2 SUB SWAP1 REVERT JUMPDEST POP JUMP JUMPDEST PUSH0 PUSH1 0x5 PUSH0 ADD PUSH0 SWAP1 SLOAD SWAP1 PUSH2 0x100 EXP SWAP1 DIV PUSH20 0xFFFFFFFFFFFFFFFFFFFFFFFFFFFFFFFFFFFFFFFF AND SWAP1 POP SWAP1 JUMP JUMPDEST TIMESTAMP PUSH32 0x0 PUSH6 0xFFFFFFFFFFFF AND LT ISZERO PUSH2 0x1307 JUMPI PUSH2 0x1295 PUSH2 0x13BE JUMP JUMPDEST PUSH20 0xFFFFFFFFFFFFFFFFFFFFFFFFFFFFFFFFFFFFFFFF AND CALLER PUSH20 0xFFFFFFFFFFFFFFFFFFFFFFFFFFFFFFFFFFFFFFFF AND EQ PUSH2 0x1302 JUMPI PUSH1 0x40 MLOAD PUSH32 0x8C379A000000000000000000000000000000000000000000000000000000000 DUP2 MSTORE PUSH1 0x4 ADD PUSH2 0x12F9 SWAP1 PUSH2 0x1C08 JUMP JUMPDEST PUSH1 0x40 MLOAD DUP1 SWAP2 SUB SWAP1 REVERT JUMPDEST PUSH2 0x138E JUMP JUMPDEST PUSH2 0x130F PUSH2 0xF42 JUMP JUMPDEST PUSH20 0xFFFFFFFFFFFFFFFFFFFFFFFFFFFFFFFFFFFFFFFF AND CALLER PUSH20 0xFFFFFFFFFFFFFFFFFFFFFFFFFFFFFFFFFFFFFFFF AND EQ DUP1 ISZERO PUSH2 0x134E JUMPI POP PUSH2 0x134C PUSH2 0xF6C JUMP JUMPDEST ISZERO JUMPDEST PUSH2 0x138D JUMPI PUSH1 0x40 MLOAD PUSH32 0x8C379A000000000000000000000000000000000000000000000000000000000 DUP2 MSTORE PUSH1 0x4 ADD PUSH2 0x1384 SWAP1 PUSH2 0x1C08 JUMP JUMPDEST PUSH1 0x40 MLOAD DUP1 SWAP2 SUB SWAP1 REVERT JUMPDEST JUMPDEST PUSH2 0x1397 DUP2 PUSH2 0x18F7 JUMP JUMPDEST PUSH2 0x13A0 DUP2 PUSH2 0x1916 JUMP JUMPDEST POP JUMP JUMPDEST PUSH0 PUSH1 0x6 PUSH0 ADD PUSH1 0x15 SWAP1 SLOAD SWAP1 PUSH2 0x100 EXP SWAP1 DIV PUSH4 0xFFFFFFFF AND SWAP1 POP SWAP1 JUMP JUMPDEST PUSH0 PUSH32 0x0 SWAP1 POP SWAP1 JUMP JUMPDEST TIMESTAMP PUSH32 0x0 PUSH6 0xFFFFFFFFFFFF AND LT ISZERO PUSH2 0x148F JUMPI PUSH2 0x141D PUSH2 0x13BE JUMP JUMPDEST PUSH20 0xFFFFFFFFFFFFFFFFFFFFFFFFFFFFFFFFFFFFFFFF AND CALLER PUSH20 0xFFFFFFFFFFFFFFFFFFFFFFFFFFFFFFFFFFFFFFFF AND EQ PUSH2 0x148A JUMPI PUSH1 0x40 MLOAD PUSH32 0x8C379A000000000000000000000000000000000000000000000000000000000 DUP2 MSTORE PUSH1 0x4 ADD PUSH2 0x1481 SWAP1 PUSH2 0x1C08 JUMP JUMPDEST PUSH1 0x40 MLOAD DUP1 SWAP2 SUB SWAP1 REVERT JUMPDEST PUSH2 0x1516 JUMP JUMPDEST PUSH2 0x1497 PUSH2 0xF42 JUMP JUMPDEST PUSH20 0xFFFFFFFFFFFFFFFFFFFFFFFFFFFFFFFFFFFFFFFF AND CALLER PUSH20 0xFFFFFFFFFFFFFFFFFFFFFFFFFFFFFFFFFFFFFFFF AND EQ DUP1 ISZERO PUSH2 0x14D6 JUMPI POP PUSH2 0x14D4 PUSH2 0xF6C JUMP JUMPDEST ISZERO JUMPDEST PUSH2 0x1515 JUMPI PUSH1 0x40 MLOAD PUSH32 0x8C379A000000000000000000000000000000000000000000000000000000000 DUP2 MSTORE PUSH1 0x4 ADD PUSH2 0x150C SWAP1 PUSH2 0x1C08 JUMP JUMPDEST PUSH1 0x40 MLOAD DUP1 SWAP2 SUB SWAP1 REVERT JUMPDEST JUMPDEST PUSH0 DUP2 PUSH20 0xFFFFFFFFFFFFFFFFFFFFFFFFFFFFFFFFFFFFFFFF AND EXTCODESIZE GT ISZERO PUSH2 0x15BD JUMPI DUP1 PUSH1 0x1 PUSH0 PUSH2 0x100 EXP DUP2 SLOAD DUP2 PUSH20 0xFFFFFFFFFFFFFFFFFFFFFFFFFFFFFFFFFFFFFFFF MUL NOT AND SWAP1 DUP4 PUSH20 0xFFFFFFFFFFFFFFFFFFFFFFFFFFFFFFFFFFFFFFFF AND MUL OR SWAP1 SSTORE POP DUP1 PUSH20 0xFFFFFFFFFFFFFFFFFFFFFFFFFFFFFFFFFFFFFFFF AND PUSH32 0xE8D8E3C7C3EBEC0C177D0FE22D223F8B5071DB39155104808D45027E368BA77A PUSH1 0x40 MLOAD PUSH1 0x40 MLOAD DUP1 SWAP2 SUB SWAP1 LOG2 PUSH2 0x15FA JUMP JUMPDEST DUP1 PUSH1 0x40 MLOAD PUSH32 0x84DBC6CB00000000000000000000000000000000000000000000000000000000 DUP2 MSTORE PUSH1 0x4 ADD PUSH2 0x15F1 SWAP2 SWAP1 PUSH2 0x1AD6 JUMP JUMPDEST PUSH1 0x40 MLOAD DUP1 SWAP2 SUB SWAP1 REVERT JUMPDEST POP JUMP JUMPDEST PUSH0 ADDRESS SWAP1 POP SWAP1 JUMP JUMPDEST PUSH0 PUSH1 0x5 PUSH0 ADD PUSH1 0x14 SWAP1 SLOAD SWAP1 PUSH2 0x100 EXP SWAP1 DIV PUSH1 0xFF AND SWAP1 POP SWAP1 JUMP JUMPDEST PUSH2 0x1624 PUSH2 0xF42 JUMP JUMPDEST PUSH20 0xFFFFFFFFFFFFFFFFFFFFFFFFFFFFFFFFFFFFFFFF AND CALLER PUSH20 0xFFFFFFFFFFFFFFFFFFFFFFFFFFFFFFFFFFFFFFFF AND EQ DUP1 ISZERO PUSH2 0x1663 JUMPI POP PUSH2 0x1661 PUSH2 0xF6C JUMP JUMPDEST ISZERO JUMPDEST PUSH2 0x16A2 JUMPI PUSH1 0x40 MLOAD PUSH32 0x8C379A000000000000000000000000000000000000000000000000000000000 DUP2 MSTORE PUSH1 0x4 ADD PUSH2 0x1699 SWAP1 PUSH2 0x1C08 JUMP JUMPDEST PUSH1 0x40 MLOAD DUP1 SWAP2 SUB SWAP1 REVERT JUMPDEST DUP1 PUSH20 0xFFFFFFFFFFFFFFFFFFFFFFFFFFFFFFFFFFFFFFFF AND PUSH1 0x1 PUSH0 SWAP1 SLOAD SWAP1 PUSH2 0x100 EXP SWAP1 DIV PUSH20 0xFFFFFFFFFFFFFFFFFFFFFFFFFFFFFFFFFFFFFFFF AND PUSH20 0xFFFFFFFFFFFFFFFFFFFFFFFFFFFFFFFFFFFFFFFF AND SUB PUSH2 0x1825 JUMPI PUSH1 0x1 PUSH0 PUSH2 0x100 EXP DUP2 SLOAD SWAP1 PUSH20 0xFFFFFFFFFFFFFFFFFFFFFFFFFFFFFFFFFFFFFFFF MUL NOT AND SWAP1 SSTORE DUP1 PUSH1 0x6 PUSH0 ADD PUSH0 PUSH2 0x100 EXP DUP2 SLOAD DUP2 PUSH20 0xFFFFFFFFFFFFFFFFFFFFFFFFFFFFFFFFFFFFFFFF MUL NOT AND SWAP1 DUP4 PUSH20 0xFFFFFFFFFFFFFFFFFFFFFFFFFFFFFFFFFFFFFFFF AND MUL OR SWAP1 SSTORE POP PUSH1 0x6 PUSH0 ADD PUSH1 0x15 DUP2 DUP2 SWAP1 SLOAD SWAP1 PUSH2 0x100 EXP SWAP1 DIV PUSH4 0xFFFFFFFF AND DUP1 SWAP3 SWAP2 SWAP1 PUSH2 0x1780 SWAP1 PUSH2 0x1C53 JUMP JUMPDEST SWAP2 SWAP1 PUSH2 0x100 EXP DUP2 SLOAD DUP2 PUSH4 0xFFFFFFFF MUL NOT AND SWAP1 DUP4 PUSH4 0xFFFFFFFF AND MUL OR SWAP1 SSTORE POP POP PUSH1 0x6 PUSH0 ADD PUSH1 0x15 SWAP1 SLOAD SWAP1 PUSH2 0x100 EXP SWAP1 DIV PUSH4 0xFFFFFFFF AND PUSH4 0xFFFFFFFF AND PUSH1 0x6 PUSH0 ADD PUSH0 SWAP1 SLOAD SWAP1 PUSH2 0x100 EXP SWAP1 DIV PUSH20 0xFFFFFFFFFFFFFFFFFFFFFFFFFFFFFFFFFFFFFFFF AND PUSH20 0xFFFFFFFFFFFFFFFFFFFFFFFFFFFFFFFFFFFFFFFF AND PUSH32 0x5E86008A8467D1EFCCFE6CB6BD49BA7278D6AF2745A1E6994E443322A4237093 PUSH1 0x40 MLOAD PUSH1 0x40 MLOAD DUP1 SWAP2 SUB SWAP1 LOG3 PUSH2 0x1862 JUMP JUMPDEST DUP1 PUSH1 0x40 MLOAD PUSH32 0x84DBC6CB00000000000000000000000000000000000000000000000000000000 DUP2 MSTORE PUSH1 0x4 ADD PUSH2 0x1859 SWAP2 SWAP1 PUSH2 0x1AD6 JUMP JUMPDEST PUSH1 0x40 MLOAD DUP1 SWAP2 SUB SWAP1 REVERT JUMPDEST POP JUMP JUMPDEST PUSH2 0x186D PUSH2 0xF42 JUMP JUMPDEST PUSH20 0xFFFFFFFFFFFFFFFFFFFFFFFFFFFFFFFFFFFFFFFF AND CALLER PUSH20 0xFFFFFFFFFFFFFFFFFFFFFFFFFFFFFFFFFFFFFFFF AND EQ DUP1 ISZERO PUSH2 0x18AC JUMPI POP PUSH2 0x18AA PUSH2 0xF6C JUMP JUMPDEST ISZERO JUMPDEST PUSH2 0x18EB JUMPI PUSH1 0x40 MLOAD PUSH32 0x8C379A000000000000000000000000000000000000000000000000000000000 DUP2 MSTORE PUSH1 0x4 ADD PUSH2 0x18E2 SWAP1 PUSH2 0x1C08 JUMP JUMPDEST PUSH1 0x40 MLOAD DUP1 SWAP2 SUB SWAP1 REVERT JUMPDEST PUSH2 0x18F4 DUP2 PUSH2 0x1916 JUMP JUMPDEST POP JUMP JUMPDEST DUP1 PUSH1 0x4 PUSH0 ADD PUSH1 0x14 PUSH2 0x100 EXP DUP2 SLOAD DUP2 PUSH1 0xFF MUL NOT AND SWAP1 DUP4 ISZERO ISZERO MUL OR SWAP1 SSTORE POP POP JUMP JUMPDEST DUP1 PUSH1 0x5 PUSH0 ADD PUSH1 0x14 PUSH2 0x100 EXP DUP2 SLOAD DUP2 PUSH1 0xFF MUL NOT AND SWAP1 DUP4 ISZERO ISZERO MUL OR SWAP1 SSTORE POP POP JUMP JUMPDEST DUP1 PUSH1 0x7 PUSH0 ADD PUSH0 PUSH2 0x100 EXP DUP2 SLOAD DUP2 PUSH20 0xFFFFFFFFFFFFFFFFFFFFFFFFFFFFFFFFFFFFFFFF MUL NOT AND SWAP1 DUP4 PUSH20 0xFFFFFFFFFFFFFFFFFFFFFFFFFFFFFFFFFFFFFFFF AND MUL OR SWAP1 SSTORE POP PUSH1 0x7 PUSH0 ADD PUSH1 0x15 DUP2 DUP2 SWAP1 SLOAD SWAP1 PUSH2 0x100 EXP SWAP1 DIV PUSH4 0xFFFFFFFF AND DUP1 SWAP3 SWAP2 SWAP1 PUSH2 0x199B SWAP1 PUSH2 0x1C53 JUMP JUMPDEST SWAP2 SWAP1 PUSH2 0x100 EXP DUP2 SLOAD DUP2 PUSH4 0xFFFFFFFF MUL NOT AND SWAP1 DUP4 PUSH4 0xFFFFFFFF AND MUL OR SWAP1 SSTORE POP POP PUSH1 0x7 PUSH0 ADD PUSH1 0x15 SWAP1 SLOAD SWAP1 PUSH2 0x100 EXP SWAP1 DIV PUSH4 0xFFFFFFFF AND PUSH4 0xFFFFFFFF AND PUSH1 0x7 PUSH0 ADD PUSH0 SWAP1 SLOAD SWAP1 PUSH2 0x100 EXP SWAP1 DIV PUSH20 0xFFFFFFFFFFFFFFFFFFFFFFFFFFFFFFFFFFFFFFFF AND PUSH20 0xFFFFFFFFFFFFFFFFFFFFFFFFFFFFFFFFFFFFFFFF AND PUSH32 0xB88EF4C2B55163ED88BCF28DADFEE0092169B7A9A712CEB09FF75E6D2D4BA63B PUSH1 0x40 MLOAD PUSH1 0x40 MLOAD DUP1 SWAP2 SUB SWAP1 LOG3 POP JUMP JUMPDEST PUSH0 DUP1 REVERT JUMPDEST PUSH0 PUSH20 0xFFFFFFFFFFFFFFFFFFFFFFFFFFFFFFFFFFFFFFFF DUP3 AND SWAP1 POP SWAP2 SWAP1 POP JUMP JUMPDEST PUSH0 PUSH2 0x1A6B DUP3 PUSH2 0x1A42 JUMP JUMPDEST SWAP1 POP SWAP2 SWAP1 POP JUMP JUMPDEST PUSH2 0x1A7B DUP2 PUSH2 0x1A61 JUMP JUMPDEST DUP2 EQ PUSH2 0x1A85 JUMPI PUSH0 DUP1 REVERT JUMPDEST POP JUMP JUMPDEST PUSH0 DUP2 CALLDATALOAD SWAP1 POP PUSH2 0x1A96 DUP2 PUSH2 0x1A72 JUMP JUMPDEST SWAP3 SWAP2 POP POP JUMP JUMPDEST PUSH0 PUSH1 0x20 DUP3 DUP5 SUB SLT ISZERO PUSH2 0x1AB1 JUMPI PUSH2 0x1AB0 PUSH2 0x1A3E JUMP JUMPDEST JUMPDEST PUSH0 PUSH2 0x1ABE DUP5 DUP3 DUP6 ADD PUSH2 0x1A88 JUMP JUMPDEST SWAP2 POP POP SWAP3 SWAP2 POP POP JUMP JUMPDEST PUSH2 0x1AD0 DUP2 PUSH2 0x1A61 JUMP JUMPDEST DUP3 MSTORE POP POP JUMP JUMPDEST PUSH0 PUSH1 0x20 DUP3 ADD SWAP1 POP PUSH2 0x1AE9 PUSH0 DUP4 ADD DUP5 PUSH2 0x1AC7 JUMP JUMPDEST SWAP3 SWAP2 POP POP JUMP JUMPDEST PUSH0 DUP2 ISZERO ISZERO SWAP1 POP SWAP2 SWAP1 POP JUMP JUMPDEST PUSH2 0x1B03 DUP2 PUSH2 0x1AEF JUMP JUMPDEST DUP3 MSTORE POP POP JUMP JUMPDEST PUSH0 PUSH1 0x20 DUP3 ADD SWAP1 POP PUSH2 0x1B1C PUSH0 DUP4 ADD DUP5 PUSH2 0x1AFA JUMP JUMPDEST SWAP3 SWAP2 POP POP JUMP JUMPDEST PUSH2 0x1B2B DUP2 PUSH2 0x1AEF JUMP JUMPDEST DUP2 EQ PUSH2 0x1B35 JUMPI PUSH0 DUP1 REVERT JUMPDEST POP JUMP JUMPDEST PUSH0 DUP2 CALLDATALOAD SWAP1 POP PUSH2 0x1B46 DUP2 PUSH2 0x1B22 JUMP JUMPDEST SWAP3 SWAP2 POP POP JUMP JUMPDEST PUSH0 PUSH1 0x20 DUP3 DUP5 SUB SLT ISZERO PUSH2 0x1B61 JUMPI PUSH2 0x1B60 PUSH2 0x1A3E JUMP JUMPDEST JUMPDEST PUSH0 PUSH2 0x1B6E DUP5 DUP3 DUP6 ADD PUSH2 0x1B38 JUMP JUMPDEST SWAP2 POP POP SWAP3 SWAP2 POP POP JUMP JUMPDEST PUSH0 PUSH4 0xFFFFFFFF DUP3 AND SWAP1 POP SWAP2 SWAP1 POP JUMP JUMPDEST PUSH2 0x1B8F DUP2 PUSH2 0x1B77 JUMP JUMPDEST DUP3 MSTORE POP POP JUMP JUMPDEST PUSH0 PUSH1 0x20 DUP3 ADD SWAP1 POP PUSH2 0x1BA8 PUSH0 DUP4 ADD DUP5 PUSH2 0x1B86 JUMP JUMPDEST SWAP3 SWAP2 POP POP JUMP JUMPDEST PUSH0 DUP3 DUP3 MSTORE PUSH1 0x20 DUP3 ADD SWAP1 POP SWAP3 SWAP2 POP POP JUMP JUMPDEST PUSH32 0x416363657373206973206E6F742076616C696400000000000000000000000000 PUSH0 DUP3 ADD MSTORE POP JUMP JUMPDEST PUSH0 PUSH2 0x1BF2 PUSH1 0x13 DUP4 PUSH2 0x1BAE JUMP JUMPDEST SWAP2 POP PUSH2 0x1BFD DUP3 PUSH2 0x1BBE JUMP JUMPDEST PUSH1 0x20 DUP3 ADD SWAP1 POP SWAP2 SWAP1 POP JUMP JUMPDEST PUSH0 PUSH1 0x20 DUP3 ADD SWAP1 POP DUP2 DUP2 SUB PUSH0 DUP4 ADD MSTORE PUSH2 0x1C1F DUP2 PUSH2 0x1BE6 JUMP JUMPDEST SWAP1 POP SWAP2 SWAP1 POP JUMP JUMPDEST PUSH32 0x4E487B7100000000000000000000000000000000000000000000000000000000 PUSH0 MSTORE PUSH1 0x11 PUSH1 0x4 MSTORE PUSH1 0x24 PUSH0 REVERT JUMPDEST PUSH0 PUSH2 0x1C5D DUP3 PUSH2 0x1B77 JUMP JUMPDEST SWAP2 POP PUSH4 0xFFFFFFFF DUP3 SUB PUSH2 0x1C73 JUMPI PUSH2 0x1C72 PUSH2 0x1C26 JUMP JUMPDEST JUMPDEST PUSH1 0x1 DUP3 ADD SWAP1 POP SWAP2 SWAP1 POP JUMP JUMPDEST PUSH32 0x546865207265717565737420697320696E76616C696400000000000000000000 PUSH0 DUP3 ADD MSTORE POP JUMP JUMPDEST PUSH0 PUSH2 0x1CB2 PUSH1 0x16 DUP4 PUSH2 0x1BAE JUMP JUMPDEST SWAP2 POP PUSH2 0x1CBD DUP3 PUSH2 0x1C7E JUMP JUMPDEST PUSH1 0x20 DUP3 ADD SWAP1 POP SWAP2 SWAP1 POP JUMP JUMPDEST PUSH0 PUSH1 0x20 DUP3 ADD SWAP1 POP DUP2 DUP2 SUB PUSH0 DUP4 ADD MSTORE PUSH2 0x1CDF DUP2 PUSH2 0x1CA6 JUMP JUMPDEST SWAP1 POP SWAP2 SWAP1 POP JUMP JUMPDEST PUSH0 PUSH6 0xFFFFFFFFFFFF DUP3 AND SWAP1 POP SWAP2 SWAP1 POP JUMP JUMPDEST PUSH0 PUSH2 0x1D01 DUP3 PUSH2 0x1CE6 JUMP JUMPDEST SWAP2 POP PUSH2 0x1D0C DUP4 PUSH2 0x1CE6 JUMP JUMPDEST SWAP3 POP DUP3 DUP3 SUB SWAP1 POP PUSH6 0xFFFFFFFFFFFF DUP2 GT ISZERO PUSH2 0x1D2A JUMPI PUSH2 0x1D29 PUSH2 0x1C26 JUMP JUMPDEST JUMPDEST SWAP3 SWAP2 POP POP JUMP JUMPDEST PUSH2 0x1D39 DUP2 PUSH2 0x1CE6 JUMP JUMPDEST DUP3 MSTORE POP POP JUMP JUMPDEST PUSH0 PUSH1 0x20 DUP3 ADD SWAP1 POP PUSH2 0x1D52 PUSH0 DUP4 ADD DUP5 PUSH2 0x1D30 JUMP JUMPDEST SWAP3 SWAP2 POP POP JUMP JUMPDEST PUSH0 DUP2 SWAP1 POP SWAP2 SWAP1 POP JUMP JUMPDEST PUSH0 PUSH2 0x1D6B DUP3 PUSH2 0x1D58 JUMP JUMPDEST SWAP2 POP PUSH2 0x1D76 DUP4 PUSH2 0x1D58 JUMP JUMPDEST SWAP3 POP DUP3 DUP3 ADD SWAP1 POP DUP1 DUP3 GT ISZERO PUSH2 0x1D8E JUMPI PUSH2 0x1D8D PUSH2 0x1C26 JUMP JUMPDEST JUMPDEST SWAP3 SWAP2 POP POP JUMP INVALID LOG2 PUSH5 0x6970667358 0x22 SLT KECCAK256 0xD3 PUSH18 0x78467F45CB86C49952FF3A5494BA2E0A748F 0x22 0xE9 PUSH14 0xD0639654944738974164736F6C63 NUMBER STOP ADDMOD EQ STOP CALLER "
		},
		"gasEstimates": {
			"creation": {
				"codeDepositCost": "1525200",
				"executionCost": "infinite",
				"totalCost": "infinite"
			},
			"external": {
				"cancelPendingRepublicGAddress(address)": "infinite",
				"getAuthorityAddress()": "423",
				"getGovernance()": "2632",
				"getPresidentAdd()": "2609",
				"getPresidentBan()": "2640",
				"getPrimeMinisterAdd()": "2565",
				"getPrimeMinisterBan()": "2595",
				"getRepublicAddress()": "infinite",
				"getRepublicGAddress()": "2543",
				"getgovernanceVersion()": "2618",
				"setPendigPresident(address)": "infinite",
				"setPendingGovernanceContractAddress(address)": "infinite",
				"setPendingPrimeMinister(address)": "30404",
				"setPendingRepublicGAddress(address)": "infinite",
				"setPresidentBaned(bool)": "infinite",
				"setPrimeMinisterBaned(bool)": "29329",
				"transferGovernanceContractAddress(address)": "infinite",
				"transferPresident()": "107764",
				"transferPrimeMinister()": "109997",
				"transferRepublicGAddress(address)": "infinite"
			},
			"internal": {
				"_setPresidentBaned(bool)": "24333",
				"_setPrimeMinisterBaned(bool)": "24333",
				"_transferRepublicGAddress(address)": "56825"
			}
		},
		"methodIdentifiers": {
			"cancelPendingRepublicGAddress(address)": "4494acd9",
			"getAuthorityAddress()": "e47a9d46",
			"getGovernance()": "289b3c0d",
			"getPresidentAdd()": "66410997",
			"getPresidentBan()": "6cf106d7",
			"getPrimeMinisterAdd()": "a53da00b",
			"getPrimeMinisterBan()": "e4f3e947",
			"getRepublicAddress()": "c5a1c5c1",
			"getRepublicGAddress()": "37676f79",
			"getgovernanceVersion()": "c387b49c",
			"setPendigPresident(address)": "054203bd",
			"setPendingGovernanceContractAddress(address)": "ca4cce68",
			"setPendingPrimeMinister(address)": "544fa93e",
			"setPendingRepublicGAddress(address)": "861a179d",
			"setPresidentBaned(bool)": "b5c09c68",
			"setPrimeMinisterBaned(bool)": "f5f9cdd4",
			"transferGovernanceContractAddress(address)": "ee7126c3",
			"transferPresident()": "0df4c390",
			"transferPrimeMinister()": "18074eee",
			"transferRepublicGAddress(address)": "1f86aa2a"
		}
	},
	"abi": [
		{
			"inputs": [],
			"stateMutability": "nonpayable",
			"type": "constructor"
		},
		{
			"inputs": [],
			"name": "AccessOnlyForThePendig",
			"type": "error"
		},
		{
			"inputs": [
				{
					"internalType": "uint48",
					"name": "reminingTime",
					"type": "uint48"
				}
			],
			"name": "RemainingTimeUntilTheConfirmationDeadline",
			"type": "error"
		},
		{
			"inputs": [
				{
					"internalType": "address",
					"name": "NewGCAddress",
					"type": "address"
				}
			],
			"name": "TheAddressIsNotValidForGC",
			"type": "error"
		},
		{
			"inputs": [
				{
					"internalType": "address",
					"name": "newRGAddress",
					"type": "address"
				}
			],
			"name": "TheAddressIsNotValidForRAddress",
			"type": "error"
		},
		{
			"anonymous": false,
			"inputs": [
				{
					"indexed": true,
					"internalType": "address",
					"name": "GCAddress",
					"type": "address"
				},
				{
					"indexed": true,
					"internalType": "uint32",
					"name": "version",
					"type": "uint32"
				}
			],
			"name": "TheNewGCAddressWasConfirmed",
			"type": "event"
		},
		{
			"anonymous": false,
			"inputs": [
				{
					"indexed": true,
					"internalType": "address",
					"name": "presidentAdd",
					"type": "address"
				},
				{
					"indexed": true,
					"internalType": "uint32",
					"name": "nonce",
					"type": "uint32"
				}
			],
			"name": "TheNewPresidentWasConfirmed",
			"type": "event"
		},
		{
			"anonymous": false,
			"inputs": [
				{
					"indexed": true,
					"internalType": "address",
					"name": "primeMinisterAdd",
					"type": "address"
				},
				{
					"indexed": true,
					"internalType": "uint32",
					"name": "nonce",
					"type": "uint32"
				}
			],
			"name": "TheNewPrimeMinisterWasConfirmed",
			"type": "event"
		},
		{
			"anonymous": false,
			"inputs": [
				{
					"indexed": true,
					"internalType": "address",
					"name": "RepublicGAddress",
					"type": "address"
				},
				{
					"indexed": true,
					"internalType": "uint32",
					"name": "version",
					"type": "uint32"
				}
			],
			"name": "TheNewRepublicGAddressWasConfirmed",
			"type": "event"
		},
		{
			"anonymous": false,
			"inputs": [
				{
					"indexed": true,
					"internalType": "address",
					"name": "newGCAddress",
					"type": "address"
				}
			],
			"name": "TheNextGCAddressWasElected",
			"type": "event"
		},
		{
			"anonymous": false,
			"inputs": [
				{
					"indexed": true,
					"internalType": "address",
					"name": "newPresidentAdd",
					"type": "address"
				}
			],
			"name": "TheNextPresidentWasElected",
			"type": "event"
		},
		{
			"anonymous": false,
			"inputs": [
				{
					"indexed": true,
					"internalType": "address",
					"name": "newPrimeMinister",
					"type": "address"
				}
			],
			"name": "TheNextPrimeMinisterWasElected",
			"type": "event"
		},
		{
			"anonymous": false,
			"inputs": [
				{
					"indexed": true,
					"internalType": "address",
					"name": "PRGAddress",
					"type": "address"
				}
			],
			"name": "TheNextRepublicGAddressWasCancelled",
			"type": "event"
		},
		{
			"anonymous": false,
			"inputs": [
				{
					"indexed": true,
					"internalType": "address",
					"name": "newRepublicGAddress",
					"type": "address"
				}
			],
			"name": "TheNextRepublicGAddressWasElected",
			"type": "event"
		},
		{
			"anonymous": false,
			"inputs": [
				{
					"indexed": true,
					"internalType": "bool",
					"name": "baned",
					"type": "bool"
				},
				{
					"indexed": true,
					"internalType": "bool",
					"name": "done",
					"type": "bool"
				}
			],
			"name": "TheStatusOfBanningAllActivitiesAndDone",
			"type": "event"
		},
		{
			"inputs": [
				{
					"internalType": "address",
					"name": "PRGAdress",
					"type": "address"
				}
			],
			"name": "cancelPendingRepublicGAddress",
			"outputs": [],
			"stateMutability": "nonpayable",
			"type": "function"
		},
		{
			"inputs": [],
			"name": "getAuthorityAddress",
			"outputs": [
				{
					"internalType": "address",
					"name": "",
					"type": "address"
				}
			],
			"stateMutability": "view",
			"type": "function"
		},
		{
			"inputs": [],
			"name": "getGovernance",
			"outputs": [
				{
					"internalType": "address",
					"name": "",
					"type": "address"
				}
			],
			"stateMutability": "view",
			"type": "function"
		},
		{
			"inputs": [],
			"name": "getPresidentAdd",
			"outputs": [
				{
					"internalType": "address",
					"name": "",
					"type": "address"
				}
			],
			"stateMutability": "view",
			"type": "function"
		},
		{
			"inputs": [],
			"name": "getPresidentBan",
			"outputs": [
				{
					"internalType": "bool",
					"name": "",
					"type": "bool"
				}
			],
			"stateMutability": "view",
			"type": "function"
		},
		{
			"inputs": [],
			"name": "getPrimeMinisterAdd",
			"outputs": [
				{
					"internalType": "address",
					"name": "",
					"type": "address"
				}
			],
			"stateMutability": "view",
			"type": "function"
		},
		{
			"inputs": [],
			"name": "getPrimeMinisterBan",
			"outputs": [
				{
					"internalType": "bool",
					"name": "",
					"type": "bool"
				}
			],
			"stateMutability": "view",
			"type": "function"
		},
		{
			"inputs": [],
			"name": "getRepublicAddress",
			"outputs": [
				{
					"internalType": "address",
					"name": "R",
					"type": "address"
				}
			],
			"stateMutability": "view",
			"type": "function"
		},
		{
			"inputs": [],
			"name": "getRepublicGAddress",
			"outputs": [
				{
					"internalType": "address",
					"name": "RG",
					"type": "address"
				}
			],
			"stateMutability": "view",
			"type": "function"
		},
		{
			"inputs": [],
			"name": "getgovernanceVersion",
			"outputs": [
				{
					"internalType": "uint32",
					"name": "",
					"type": "uint32"
				}
			],
			"stateMutability": "view",
			"type": "function"
		},
		{
			"inputs": [
				{
					"internalType": "address",
					"name": "newPresident",
					"type": "address"
				}
			],
			"name": "setPendigPresident",
			"outputs": [],
			"stateMutability": "nonpayable",
			"type": "function"
		},
		{
			"inputs": [
				{
					"internalType": "address",
					"name": "newGCAddress",
					"type": "address"
				}
			],
			"name": "setPendingGovernanceContractAddress",
			"outputs": [],
			"stateMutability": "nonpayable",
			"type": "function"
		},
		{
			"inputs": [
				{
					"internalType": "address",
					"name": "newPM",
					"type": "address"
				}
			],
			"name": "setPendingPrimeMinister",
			"outputs": [],
			"stateMutability": "nonpayable",
			"type": "function"
		},
		{
			"inputs": [
				{
					"internalType": "address",
					"name": "newRGAddress",
					"type": "address"
				}
			],
			"name": "setPendingRepublicGAddress",
			"outputs": [],
			"stateMutability": "nonpayable",
			"type": "function"
		},
		{
			"inputs": [
				{
					"internalType": "bool",
					"name": "baned",
					"type": "bool"
				}
			],
			"name": "setPresidentBaned",
			"outputs": [],
			"stateMutability": "nonpayable",
			"type": "function"
		},
		{
			"inputs": [
				{
					"internalType": "bool",
					"name": "baned",
					"type": "bool"
				}
			],
			"name": "setPrimeMinisterBaned",
			"outputs": [],
			"stateMutability": "nonpayable",
			"type": "function"
		},
		{
			"inputs": [
				{
					"internalType": "address",
					"name": "pendingGCAdd",
					"type": "address"
				}
			],
			"name": "transferGovernanceContractAddress",
			"outputs": [],
			"stateMutability": "nonpayable",
			"type": "function"
		},
		{
			"inputs": [],
			"name": "transferPresident",
			"outputs": [],
			"stateMutability": "nonpayable",
			"type": "function"
		},
		{
			"inputs": [],
			"name": "transferPrimeMinister",
			"outputs": [],
			"stateMutability": "nonpayable",
			"type": "function"
		},
		{
			"inputs": [
				{
					"internalType": "address",
					"name": "RGAddress",
					"type": "address"
				}
			],
			"name": "transferRepublicGAddress",
			"outputs": [],
			"stateMutability": "nonpayable",
			"type": "function"
		}
	]
}