{
	"data": {
		"bytecode": {
			"linkReferences": {},
			"object": "60a060405234801561000f575f80fd5b506316a8c8004261002091906100b2565b65ffffffffffff1660808165ffffffffffff16815250503360015f6101000a81548173ffffffffffffffffffffffffffffffffffffffff021916908373ffffffffffffffffffffffffffffffffffffffff1602179055506100e5565b5f819050919050565b7f4e487b71000000000000000000000000000000000000000000000000000000005f52601160045260245ffd5b5f6100bc8261007c565b91506100c78361007c565b92508282019050808211156100df576100de610085565b5b92915050565b6080516101836100fa5f395f50506101835ff3fe608060405234801561000f575f80fd5b5060043610610034575f3560e01c80634c7ac83514610038578063b9424b4314610056575b5f80fd5b610040610072565b60405161004d91906100db565b60405180910390f35b610070600480360381019061006b9190610122565b610099565b005b5f805f9054906101000a900473ffffffffffffffffffffffffffffffffffffffff16905090565b50565b5f73ffffffffffffffffffffffffffffffffffffffff82169050919050565b5f6100c58261009c565b9050919050565b6100d5816100bb565b82525050565b5f6020820190506100ee5f8301846100cc565b92915050565b5f80fd5b610101816100bb565b811461010b575f80fd5b50565b5f8135905061011c816100f8565b92915050565b5f60208284031215610137576101366100f4565b5b5f6101448482850161010e565b9150509291505056fea2646970667358221220f1a1e7b8fd3dba3df303c505084ea5c578c25b071605d639a7ded08acfed139564736f6c63430008140033",
			"opcodes": "PUSH1 0xA0 PUSH1 0x40 MSTORE CALLVALUE DUP1 ISZERO PUSH2 0xF JUMPI PUSH0 DUP1 REVERT JUMPDEST POP PUSH4 0x16A8C800 TIMESTAMP PUSH2 0x20 SWAP2 SWAP1 PUSH2 0xB2 JUMP JUMPDEST PUSH6 0xFFFFFFFFFFFF AND PUSH1 0x80 DUP2 PUSH6 0xFFFFFFFFFFFF AND DUP2 MSTORE POP POP CALLER PUSH1 0x1 PUSH0 PUSH2 0x100 EXP DUP2 SLOAD DUP2 PUSH20 0xFFFFFFFFFFFFFFFFFFFFFFFFFFFFFFFFFFFFFFFF MUL NOT AND SWAP1 DUP4 PUSH20 0xFFFFFFFFFFFFFFFFFFFFFFFFFFFFFFFFFFFFFFFF AND MUL OR SWAP1 SSTORE POP PUSH2 0xE5 JUMP JUMPDEST PUSH0 DUP2 SWAP1 POP SWAP2 SWAP1 POP JUMP JUMPDEST PUSH32 0x4E487B7100000000000000000000000000000000000000000000000000000000 PUSH0 MSTORE PUSH1 0x11 PUSH1 0x4 MSTORE PUSH1 0x24 PUSH0 REVERT JUMPDEST PUSH0 PUSH2 0xBC DUP3 PUSH2 0x7C JUMP JUMPDEST SWAP2 POP PUSH2 0xC7 DUP4 PUSH2 0x7C JUMP JUMPDEST SWAP3 POP DUP3 DUP3 ADD SWAP1 POP DUP1 DUP3 GT ISZERO PUSH2 0xDF JUMPI PUSH2 0xDE PUSH2 0x85 JUMP JUMPDEST JUMPDEST SWAP3 SWAP2 POP POP JUMP JUMPDEST PUSH1 0x80 MLOAD PUSH2 0x183 PUSH2 0xFA PUSH0 CODECOPY PUSH0 POP POP PUSH2 0x183 PUSH0 RETURN INVALID PUSH1 0x80 PUSH1 0x40 MSTORE CALLVALUE DUP1 ISZERO PUSH2 0xF JUMPI PUSH0 DUP1 REVERT JUMPDEST POP PUSH1 0x4 CALLDATASIZE LT PUSH2 0x34 JUMPI PUSH0 CALLDATALOAD PUSH1 0xE0 SHR DUP1 PUSH4 0x4C7AC835 EQ PUSH2 0x38 JUMPI DUP1 PUSH4 0xB9424B43 EQ PUSH2 0x56 JUMPI JUMPDEST PUSH0 DUP1 REVERT JUMPDEST PUSH2 0x40 PUSH2 0x72 JUMP JUMPDEST PUSH1 0x40 MLOAD PUSH2 0x4D SWAP2 SWAP1 PUSH2 0xDB JUMP JUMPDEST PUSH1 0x40 MLOAD DUP1 SWAP2 SUB SWAP1 RETURN JUMPDEST PUSH2 0x70 PUSH1 0x4 DUP1 CALLDATASIZE SUB DUP2 ADD SWAP1 PUSH2 0x6B SWAP2 SWAP1 PUSH2 0x122 JUMP JUMPDEST PUSH2 0x99 JUMP JUMPDEST STOP JUMPDEST PUSH0 DUP1 PUSH0 SWAP1 SLOAD SWAP1 PUSH2 0x100 EXP SWAP1 DIV PUSH20 0xFFFFFFFFFFFFFFFFFFFFFFFFFFFFFFFFFFFFFFFF AND SWAP1 POP SWAP1 JUMP JUMPDEST POP JUMP JUMPDEST PUSH0 PUSH20 0xFFFFFFFFFFFFFFFFFFFFFFFFFFFFFFFFFFFFFFFF DUP3 AND SWAP1 POP SWAP2 SWAP1 POP JUMP JUMPDEST PUSH0 PUSH2 0xC5 DUP3 PUSH2 0x9C JUMP JUMPDEST SWAP1 POP SWAP2 SWAP1 POP JUMP JUMPDEST PUSH2 0xD5 DUP2 PUSH2 0xBB JUMP JUMPDEST DUP3 MSTORE POP POP JUMP JUMPDEST PUSH0 PUSH1 0x20 DUP3 ADD SWAP1 POP PUSH2 0xEE PUSH0 DUP4 ADD DUP5 PUSH2 0xCC JUMP JUMPDEST SWAP3 SWAP2 POP POP JUMP JUMPDEST PUSH0 DUP1 REVERT JUMPDEST PUSH2 0x101 DUP2 PUSH2 0xBB JUMP JUMPDEST DUP2 EQ PUSH2 0x10B JUMPI PUSH0 DUP1 REVERT JUMPDEST POP JUMP JUMPDEST PUSH0 DUP2 CALLDATALOAD SWAP1 POP PUSH2 0x11C DUP2 PUSH2 0xF8 JUMP JUMPDEST SWAP3 SWAP2 POP POP JUMP JUMPDEST PUSH0 PUSH1 0x20 DUP3 DUP5 SUB SLT ISZERO PUSH2 0x137 JUMPI PUSH2 0x136 PUSH2 0xF4 JUMP JUMPDEST JUMPDEST PUSH0 PUSH2 0x144 DUP5 DUP3 DUP6 ADD PUSH2 0x10E JUMP JUMPDEST SWAP2 POP POP SWAP3 SWAP2 POP POP JUMP INVALID LOG2 PUSH5 0x6970667358 0x22 SLT KECCAK256 CALL LOG1 0xE7 0xB8 REVERT RETURNDATASIZE 0xBA RETURNDATASIZE RETURN SUB 0xC5 SDIV ADDMOD 0x4E 0xA5 0xC5 PUSH25 0xC25B071605D639A7DED08ACFED139564736F6C634300081400 CALLER "
		},
		"gasEstimates": {
			"creation": {
				"codeDepositCost": "77400",
				"executionCost": "infinite",
				"totalCost": "infinite"
			},
			"external": {
				"getRepublic_GAddress()": "2493",
				"setPresident(address)": "449"
			}
		},
		"methodIdentifiers": {
			"getRepublic_GAddress()": "4c7ac835",
			"setPresident(address)": "b9424b43"
		}
	},
	"abi": [
		{
			"inputs": [],
			"stateMutability": "nonpayable",
			"type": "constructor"
		},
		{
			"inputs": [],
			"name": "getRepublic_GAddress",
			"outputs": [
				{
					"internalType": "address",
					"name": "RG",
					"type": "address"
				}
			],
			"stateMutability": "view",
			"type": "function"
		},
		{
			"inputs": [
				{
					"internalType": "address",
					"name": "newPresident",
					"type": "address"
				}
			],
			"name": "setPresident",
			"outputs": [],
			"stateMutability": "nonpayable",
			"type": "function"
		}
	]
}