{
	"data": {
		"bytecode": {
			"linkReferences": {},
			"object": "608060405234801562000010575f80fd5b50604051620045ca380380620045ca83398181016040528101906200003691906200019e565b815f806101000a81548173ffffffffffffffffffffffffffffffffffffffff021916908360601c0217905550805f60146101000a81548169ffffffffffffffffffff021916908360b01c021790555062000095620000df60201b60201c565b60015f0160066101000a81548173ffffffffffffffffffffffffffffffffffffffff021916908373ffffffffffffffffffffffffffffffffffffffff1602179055505050620001e3565b5f33905090565b5f80fd5b5f7fffffffffffffffffffffffffffffffffffffffff00000000000000000000000082169050919050565b6200012081620000ea565b81146200012b575f80fd5b50565b5f815190506200013e8162000115565b92915050565b5f7fffffffffffffffffffff0000000000000000000000000000000000000000000082169050919050565b6200017a8162000144565b811462000185575f80fd5b50565b5f8151905062000198816200016f565b92915050565b5f8060408385031215620001b757620001b6620000e6565b5b5f620001c6858286016200012e565b9250506020620001d98582860162000188565b9150509250929050565b6143d980620001f15f395ff3fe608060405260043610610113575f3560e01c806393b871f21161009f578063d5ebe3df11610063578063d5ebe3df14610391578063dd7d8440146103c1578063e560ca43146103fd578063e985e9c514610425578063f12c2c7a1461046157610113565b806393b871f21461029f57806395d89b41146102db578063a22cb46514610305578063b145ae311461032d578063b1cff3801461035557610113565b80633610feb3116100e65780633610feb3146101a75780634ec3dcfe146101e357806370a082311461020b5780637e0dad881461024757806382a7cf1e1461026357610113565b806306fdde031461011757806307394401146101415780631249c58b146101695780631c2767961461017f575b5f80fd5b348015610122575f80fd5b5061012b61049d565b6040516101389190612c12565b60405180910390f35b34801561014c575f80fd5b5061016760048036038101906101629190612ccd565b6104b1565b005b348015610174575f80fd5b5061017d6104d0565b005b34801561018a575f80fd5b506101a560048036038101906101a09190612ec2565b610a70565b005b3480156101b2575f80fd5b506101cd60048036038101906101c89190612fb1565b610c65565b6040516101da9190612ff6565b60405180910390f35b3480156101ee575f80fd5b5061020960048036038101906102049190612ccd565b610c6b565b005b348015610216575f80fd5b50610231600480360381019061022c9190612fb1565b610ec4565b60405161023e919061301e565b60405180910390f35b610261600480360381019061025c9190613037565b610fa5565b005b34801561026e575f80fd5b50610289600480360381019061028491906130ea565b6114c3565b6040516102969190613124565b60405180910390f35b3480156102aa575f80fd5b506102c560048036038101906102c091906130ea565b6114d4565b6040516102d29190613124565b60405180910390f35b3480156102e6575f80fd5b506102ef611520565b6040516102fc9190613177565b60405180910390f35b348015610310575f80fd5b5061032b600480360381019061032691906131ba565b611535565b005b348015610338575f80fd5b50610353600480360381019061034e91906132a8565b611721565b005b348015610360575f80fd5b5061037b60048036038101906103769190613381565b61173e565b604051610388919061343f565b60405180910390f35b6103ab60048036038101906103a69190613493565b611748565b6040516103b89190613538565b60405180910390f35b3480156103cc575f80fd5b506103e760048036038101906103e291906130ea565b611af5565b6040516103f491906135aa565b60405180910390f35b348015610408575f80fd5b50610423600480360381019061041e91906135ca565b611b5f565b005b348015610430575f80fd5b5061044b60048036038101906104469190613608565b611c83565b6040516104589190612ff6565b60405180910390f35b34801561046c575f80fd5b5061048760048036038101906104829190613646565b611d12565b6040516104949190612ff6565b60405180910390f35b5f805f9054906101000a900460601b905090565b6104cb83838360405180602001604052805f815250611721565b505050565b60015f0160069054906101000a900473ffffffffffffffffffffffffffffffffffffffff1673ffffffffffffffffffffffffffffffffffffffff16610513611dd9565b73ffffffffffffffffffffffffffffffffffffffff1614610569576040517f08c379a0000000000000000000000000000000000000000000000000000000008152600401610560906136ce565b60405180910390fd5b60015f0160029054906101000a900461ffff1661ffff1660015f0160049054906101000a900461ffff1661ffff161115610a1f575f60016004016104b18060200260405190810160405280929190826104b1801561060b576020028201915f905b82829054906101000a900465ffffffffffff1665ffffffffffff16815260200190600601906020826005010492830192600103820291508084116105ca5790505b505050505090505f600160f5016104b18060200260405190810160405280929190826104b18015610686576020028201915b815f9054906101000a900473ffffffffffffffffffffffffffffffffffffffff1673ffffffffffffffffffffffffffffffffffffffff168152602001906001019080831161063d575b505050505090505f60015f0160029054906101000a900461ffff1660015f0160049054906101000a900461ffff166106be9190613719565b90505f60015f0160029054906101000a900461ffff1660015f015f9054906101000a900461ffff166106f09190613719565b90505f60015f01600281819054906101000a900461ffff166107119061374e565b91906101000a81548161ffff021916908361ffff160217905590505f60015f0160049054906101000a900461ffff1690505f4290505b8161ffff168361ffff16116109e2575f83888561ffff166104b181106107705761076f613777565b5b602002015165ffffffffffff16838a5f6104b1811061079257610791613777565b5b602002015165ffffffffffff166107a991906137a4565b6107b391906137a4565b6107bd9190613804565b90505f83895f6104b181106107d5576107d4613777565b5b60200201518a8461ffff166104b181106107f2576107f1613777565b5b60200201516108019190613834565b61080b9190613804565b90505f85888b8461ffff166104b1811061082857610827613777565b5b60200201518c8661ffff166104b1811061084557610844613777565b5b60200201516108549190613834565b61085e9190613804565b610868919061386d565b90505f898261ffff166104b1811061088357610882613777565b5b60200201519050898761ffff166104b181106108a2576108a1613777565b5b60200201518a8361ffff166104b181106108bf576108be613777565b5b602002019073ffffffffffffffffffffffffffffffffffffffff16908173ffffffffffffffffffffffffffffffffffffffff1681525050808a8861ffff166104b1811061090f5761090e613777565b5b602002019073ffffffffffffffffffffffffffffffffffffffff16908173ffffffffffffffffffffffffffffffffffffffff16815250505f888c8461ffff166104b181106109605761095f613777565b5b60200201518d8761ffff166104b1811061097d5761097c613777565b5b602002015161098c9190613834565b6109969190613804565b90505f8161ffff16036109a7578890505b6109b282825f611de0565b896109bc906138a2565b9950886109c8906138a2565b9850505050505082806109da9061374e565b935050610747565b60015f0160049054906101000a900461ffff1660015f0160026101000a81548161ffff021916908361ffff16021790555050505050505050610a6e565b60015f0160049054906101000a900461ffff166040517f72864e7c000000000000000000000000000000000000000000000000000000008152600401610a65919061301e565b60405180910390fd5b565b6104b08b61ffff1610610ab8576040517f08c379a0000000000000000000000000000000000000000000000000000000008152600401610aaf90613913565b60405180910390fd5b5f8b8b8b8b8b8b8b8b604051602401610ad89897969594939291906139f5565b6040516020818303038152906040527f4897596d000000000000000000000000000000000000000000000000000000007bffffffffffffffffffffffffffffffffffffffffffffffffffffffff19166020820180517bffffffffffffffffffffffffffffffffffffffffffffffffffffffff838183161783525050505090505f8573ffffffffffffffffffffffffffffffffffffffff163086848a8888604051602401610b8a96959493929190613a73565b6040516020818303038152906040527fccd0befd000000000000000000000000000000000000000000000000000000007bffffffffffffffffffffffffffffffffffffffffffffffffffffffff19166020820180517bffffffffffffffffffffffffffffffffffffffffffffffffffffffff8381831617835250505050604051610c149190613b13565b5f604051808303815f865af19150503d805f8114610c4d576040519150601f19603f3d011682016040523d82523d5f602084013e610c52565b606091505b5050905050505050505050505050505050565b5f919050565b5f73ffffffffffffffffffffffffffffffffffffffff168273ffffffffffffffffffffffffffffffffffffffff1603610cdb575f6040517f64a0ae92000000000000000000000000000000000000000000000000000000008152600401610cd29190613124565b60405180910390fd5b5f610ce58261255e565b9050610a588261ffff166104b18110610d0157610d00613777565b5b602091828204019190069054906101000a900460ff1615610d57576040517f08c379a0000000000000000000000000000000000000000000000000000000008152600401610d4e90613b99565b60405180910390fd5b8073ffffffffffffffffffffffffffffffffffffffff16610d76611dd9565b73ffffffffffffffffffffffffffffffffffffffff161480610da55750610da481610d9f611dd9565b611c83565b5b80610dea5750610db3611dd9565b73ffffffffffffffffffffffffffffffffffffffff16610dd2836114d4565b73ffffffffffffffffffffffffffffffffffffffff16145b610e3457610df6611dd9565b826040517f177e802f000000000000000000000000000000000000000000000000000000008152600401610e2b929190613bf0565b60405180910390fd5b8373ffffffffffffffffffffffffffffffffffffffff168173ffffffffffffffffffffffffffffffffffffffff1614610ea8578382826040517f64283d7b000000000000000000000000000000000000000000000000000000008152600401610e9f93929190613c17565b60405180910390fd5b610eb35f8383612681565b610ebe838383611de0565b50505050565b5f8073ffffffffffffffffffffffffffffffffffffffff168273ffffffffffffffffffffffffffffffffffffffff1603610f33576040517f08c379a0000000000000000000000000000000000000000000000000000000008152600401610f2a90613c96565b60405180910390fd5b610a7e5f8373ffffffffffffffffffffffffffffffffffffffff1673ffffffffffffffffffffffffffffffffffffffff1681526020019081526020015f205f6104b18110610f8457610f83613777565b5b601091828204019190066002029054906101000a900461ffff169050919050565b60015f0160069054906101000a900473ffffffffffffffffffffffffffffffffffffffff1673ffffffffffffffffffffffffffffffffffffffff16610fe8611dd9565b73ffffffffffffffffffffffffffffffffffffffff161461103e576040517f08c379a000000000000000000000000000000000000000000000000000000000815260040161103590613d24565b60405180910390fd5b60015f0160049054906101000a900461ffff1661ffff168861ffff161180156110675750428710155b6110a6576040517f08c379a000000000000000000000000000000000000000000000000000000000815260040161109d90613db2565b60405180910390fd5b825f6104b181106110ba576110b9613777565b5b602002015161ffff1660015f0160029054906101000a900461ffff16896110e19190613719565b61ffff161461113f57825f6104b181106110fe576110fd613777565b5b60200201516040517fca70e270000000000000000000000000000000000000000000000000000000008152600401611136919061301e565b60405180910390fd5b6103e88861ffff161115611372576104b08861ffff1610611195576040517f08c379a000000000000000000000000000000000000000000000000000000000815260040161118c90613913565b60405180910390fd5b5f88888888888888886040516024016111b59897969594939291906139f5565b6040516020818303038152906040527f4897596d000000000000000000000000000000000000000000000000000000007bffffffffffffffffffffffffffffffffffffffffffffffffffffffff19166020820180517bffffffffffffffffffffffffffffffffffffffffffffffffffffffff838183161783525050505090505f8273ffffffffffffffffffffffffffffffffffffffff16303484876040516024016112639493929190613dd0565b6040516020818303038152906040527f88aa4c12000000000000000000000000000000000000000000000000000000007bffffffffffffffffffffffffffffffffffffffffffffffffffffffff19166020820180517bffffffffffffffffffffffffffffffffffffffffffffffffffffffff83818316178352505050506040516112ed9190613b13565b5f604051808303815f865af19150503d805f8114611326576040519150601f19603f3d011682016040523d82523d5f602084013e61132b565b606091505b505090508061136f576040517f08c379a000000000000000000000000000000000000000000000000000000000815260040161136690613e8a565b60405180910390fd5b50505b8760015f015f6101000a81548161ffff021916908361ffff160217905550866001600201819055508560015f0160066101000a81548173ffffffffffffffffffffffffffffffffffffffff021916908373ffffffffffffffffffffffffffffffffffffffff16021790555084600180015f6101000a81548173ffffffffffffffffffffffffffffffffffffffff021916908373ffffffffffffffffffffffffffffffffffffffff1602179055508360016003018190555082610a7e5f8073ffffffffffffffffffffffffffffffffffffffff1673ffffffffffffffffffffffffffffffffffffffff1681526020019081526020015f20906104b1611477929190612b20565b50868861ffff167f7f5da92c8cf80f4a196e12ba4e13abc4fd2645f0248ad338ebd76ebb418982818888886040516114b193929190613ea8565b60405180910390a35050505050505050565b5f6114cd8261255e565b9050919050565b5f6114de8261255e565b50610a7f5f8361ffff1661ffff1681526020019081526020015f205f9054906101000a900473ffffffffffffffffffffffffffffffffffffffff169050919050565b5f8060149054906101000a900460b01b905090565b8173ffffffffffffffffffffffffffffffffffffffff16611554611dd9565b73ffffffffffffffffffffffffffffffffffffffff16036115aa576040517f08c379a00000000000000000000000000000000000000000000000000000000081526004016115a190613f4d565b60405180910390fd5b5f73ffffffffffffffffffffffffffffffffffffffff168273ffffffffffffffffffffffffffffffffffffffff160361161a57816040517f5b08ba180000000000000000000000000000000000000000000000000000000081526004016116119190613124565b60405180910390fd5b80610a805f611627611dd9565b73ffffffffffffffffffffffffffffffffffffffff1673ffffffffffffffffffffffffffffffffffffffff1681526020019081526020015f205f8473ffffffffffffffffffffffffffffffffffffffff1673ffffffffffffffffffffffffffffffffffffffff1681526020019081526020015f205f6101000a81548160ff0219169083151502179055508173ffffffffffffffffffffffffffffffffffffffff166116d0611dd9565b73ffffffffffffffffffffffffffffffffffffffff167f17307eab39ab6107e8899845ad3d59bd9653f200f220920489ca2b5937696c31836040516117159190612ff6565b60405180910390a35050565b61172c848484610c6b565b6117388484848461273d565b50505050565b5f95945050505050565b606060015f015f9054906101000a900461ffff1661ffff1660015f0160049054906101000a900461ffff1661ffff161115801561178a57504260016002015411155b6117c9576040517f08c379a00000000000000000000000000000000000000000000000000000000081526004016117c090613fdb565b60405180910390fd5b5f73ffffffffffffffffffffffffffffffffffffffff166117e8611dd9565b73ffffffffffffffffffffffffffffffffffffffff161415801561182957505f611810611dd9565b73ffffffffffffffffffffffffffffffffffffffff163b145b611868576040517f08c379a000000000000000000000000000000000000000000000000000000000815260040161185f9061408f565b60405180910390fd5b6001600301543410156118b0576040517f08c379a00000000000000000000000000000000000000000000000000000000081526004016118a79061411d565b60405180910390fd5b5f80600180015f9054906101000a900473ffffffffffffffffffffffffffffffffffffffff1673ffffffffffffffffffffffffffffffffffffffff16346040516118f99061415e565b5f6040518083038185875af1925050503d805f8114611933576040519150601f19603f3d011682016040523d82523d5f602084013e611938565b606091505b50915091508161197d576040517f08c379a0000000000000000000000000000000000000000000000000000000008152600401611974906141bc565b60405180910390fd5b60015f01600481819054906101000a900461ffff1661199b9061374e565b91906101000a81548161ffff021916908361ffff16021790555083600160040160015f0160049054906101000a900461ffff1661ffff166104b181106119e4576119e3613777565b5b600591828204019190066006026101000a81548165ffffffffffff021916908365ffffffffffff1602179055508360016004015f6104b18110611a2a57611a29613777565b5b600591828204019190066006028282829054906101000a900465ffffffffffff16611a559190613834565b92506101000a81548165ffffffffffff021916908365ffffffffffff160217905550611a7f611dd9565b600160f50160015f0160049054906101000a900461ffff1661ffff166104b18110611aad57611aac613777565b5b015f6101000a81548173ffffffffffffffffffffffffffffffffffffffff021916908373ffffffffffffffffffffffffffffffffffffffff1602179055508092505050919050565b6060611b008261255e565b505f611b0a6128ef565b90505f815111611b285760405180602001604052805f815250611b57565b80611b368461ffff16612905565b604051602001611b47929190614214565b6040516020818303038152906040525b915050919050565b5f611b698261255e565b90508273ffffffffffffffffffffffffffffffffffffffff168173ffffffffffffffffffffffffffffffffffffffff1603611bd9576040517f08c379a0000000000000000000000000000000000000000000000000000000008152600401611bd090613f4d565b60405180910390fd5b611be1611dd9565b73ffffffffffffffffffffffffffffffffffffffff168173ffffffffffffffffffffffffffffffffffffffff1614158015611c2a5750611c2881611c23611dd9565b611c83565b155b15611c7357611c37611dd9565b6040517fa9fbf51f000000000000000000000000000000000000000000000000000000008152600401611c6a9190613124565b60405180910390fd5b611c7e838383612681565b505050565b5f610a805f8473ffffffffffffffffffffffffffffffffffffffff1673ffffffffffffffffffffffffffffffffffffffff1681526020019081526020015f205f8373ffffffffffffffffffffffffffffffffffffffff1673ffffffffffffffffffffffffffffffffffffffff1681526020019081526020015f205f9054906101000a900460ff16905092915050565b5f80611d1d8461255e565b90505f808273ffffffffffffffffffffffffffffffffffffffff16611d40611dd9565b73ffffffffffffffffffffffffffffffffffffffff1603611d6357849150611dc5565b611d73611d6e611dd9565b610c65565b15611d8057849050611dc4565b611d88611dd9565b6040517ff7a3f9f3000000000000000000000000000000000000000000000000000000008152600401611dbb9190613124565b60405180910390fd5b5b8080611dce5750815b935050505092915050565b5f33905090565b5f610a7e5f8373ffffffffffffffffffffffffffffffffffffffff1673ffffffffffffffffffffffffffffffffffffffff1681526020019081526020015f205f6104b18110611e3257611e31613777565b5b601091828204019190066002029054906101000a900461ffff1690505f73ffffffffffffffffffffffffffffffffffffffff168273ffffffffffffffffffffffffffffffffffffffff161461201a575f600190505b8161ffff168161ffff1611612014578361ffff16610a7e5f8573ffffffffffffffffffffffffffffffffffffffff1673ffffffffffffffffffffffffffffffffffffffff1681526020019081526020015f208261ffff166104b18110611ef057611eef613777565b5b601091828204019190066002029054906101000a900461ffff1661ffff160361200157610a7e5f8473ffffffffffffffffffffffffffffffffffffffff1673ffffffffffffffffffffffffffffffffffffffff1681526020019081526020015f208261ffff166104b18110611f6857611f67613777565b5b601091828204019190066002029054906101000a900461ffff16610a7e5f8573ffffffffffffffffffffffffffffffffffffffff1673ffffffffffffffffffffffffffffffffffffffff1681526020019081526020015f208261ffff166104b18110611fd757611fd6613777565b5b601091828204019190066002026101000a81548161ffff021916908361ffff160217905550612014565b808061200c9061374e565b915050611e87565b50612224565b5f839050610a7e5f8473ffffffffffffffffffffffffffffffffffffffff1673ffffffffffffffffffffffffffffffffffffffff1681526020019081526020015f208161ffff166104b1811061207357612072613777565b5b601091828204019190066002029054906101000a900461ffff1693505f73ffffffffffffffffffffffffffffffffffffffff166105a78561ffff166104b181106120c0576120bf613777565b5b015f9054906101000a900473ffffffffffffffffffffffffffffffffffffffff1673ffffffffffffffffffffffffffffffffffffffff161461213957806040517f71e52b9c000000000000000000000000000000000000000000000000000000008152600401612130919061301e565b60405180910390fd5b610a7e5f8473ffffffffffffffffffffffffffffffffffffffff1673ffffffffffffffffffffffffffffffffffffffff1681526020019081526020015f208261ffff166104b1811061218e5761218d613777565b5b601091828204019190066002029054906101000a900461ffff16610a7e5f8573ffffffffffffffffffffffffffffffffffffffff1673ffffffffffffffffffffffffffffffffffffffff1681526020019081526020015f208261ffff166104b181106121fd576121fc613777565b5b601091828204019190066002026101000a81548161ffff021916908361ffff160217905550505b5f610a7e5f8473ffffffffffffffffffffffffffffffffffffffff1673ffffffffffffffffffffffffffffffffffffffff1681526020019081526020015f208261ffff166104b1811061227a57612279613777565b5b601091828204019190066002026101000a81548161ffff021916908361ffff1602179055506001610a7e5f8473ffffffffffffffffffffffffffffffffffffffff1673ffffffffffffffffffffffffffffffffffffffff1681526020019081526020015f205f6104b181106122f2576122f1613777565b5b601091828204019190066002028282829054906101000a900461ffff166123199190613719565b92506101000a81548161ffff021916908361ffff1602179055505f6001610a7e5f8773ffffffffffffffffffffffffffffffffffffffff1673ffffffffffffffffffffffffffffffffffffffff1681526020019081526020015f205f6104b1811061238757612386613777565b5b601091828204019190066002029054906101000a900461ffff166123ab919061386d565b905083610a7e5f8773ffffffffffffffffffffffffffffffffffffffff1673ffffffffffffffffffffffffffffffffffffffff1681526020019081526020015f208261ffff166104b1811061240357612402613777565b5b601091828204019190066002026101000a81548161ffff021916908361ffff16021790555080610a7e5f8773ffffffffffffffffffffffffffffffffffffffff1673ffffffffffffffffffffffffffffffffffffffff1681526020019081526020015f205f6104b1811061247a57612479613777565b5b601091828204019190066002026101000a81548161ffff021916908361ffff160217905550846105a78561ffff166104b181106124ba576124b9613777565b5b015f6101000a81548173ffffffffffffffffffffffffffffffffffffffff021916908373ffffffffffffffffffffffffffffffffffffffff1602179055508361ffff168573ffffffffffffffffffffffffffffffffffffffff168473ffffffffffffffffffffffffffffffffffffffff167f89896edbd223c9360ce42ddfed7522a2bffb20c056e4c42d42370cb493b6567660405160405180910390a45050505050565b5f8161ffff165f10801561258b575060015f015f9054906101000a900461ffff1661ffff168261ffff1611155b6125ca576040517f08c379a00000000000000000000000000000000000000000000000000000000081526004016125c1906142cd565b60405180910390fd5b5f6105a78361ffff166104b181106125e5576125e4613777565b5b015f9054906101000a900473ffffffffffffffffffffffffffffffffffffffff1690505f73ffffffffffffffffffffffffffffffffffffffff168173ffffffffffffffffffffffffffffffffffffffff160361267857826040517f7e27328900000000000000000000000000000000000000000000000000000000815260040161266f91906142eb565b60405180910390fd5b80915050919050565b82610a7f5f8461ffff1661ffff1681526020019081526020015f205f6101000a81548173ffffffffffffffffffffffffffffffffffffffff021916908373ffffffffffffffffffffffffffffffffffffffff1602179055508161ffff168373ffffffffffffffffffffffffffffffffffffffff168273ffffffffffffffffffffffffffffffffffffffff167f0a9d294fd4bd42bb30e96cba2b478d149a783fba3c729b1e5c42bec89d95b85a60405160405180910390a4505050565b5f8373ffffffffffffffffffffffffffffffffffffffff163b11156128e9578273ffffffffffffffffffffffffffffffffffffffff1663b1cff380612780611dd9565b8685856040518563ffffffff1660e01b81526004016127a29493929190614304565b6020604051808303815f875af19250505080156127dd57506040513d601f19601f820116820180604052508101906127da9190614378565b60015b61285e573d805f811461280b576040519150601f19603f3d011682016040523d82523d5f602084013e612810565b606091505b505f81510361285657836040517f64a0ae9200000000000000000000000000000000000000000000000000000000815260040161284d9190613124565b60405180910390fd5b805181602001fd5b63b1cff38060e01b7bffffffffffffffffffffffffffffffffffffffffffffffffffffffff1916817bffffffffffffffffffffffffffffffffffffffffffffffffffffffff1916146128e757836040517f64a0ae920000000000000000000000000000000000000000000000000000000081526004016128de9190613124565b60405180910390fd5b505b50505050565b606060405180602001604052805f815250905090565b60605f6001612913846129cf565b0190505f8167ffffffffffffffff81111561293157612930612d64565b5b6040519080825280601f01601f1916602001820160405280156129635781602001600182028036833780820191505090505b5090505f82602001820190505b6001156129c4578080600190039150507f3031323334353637383961626364656600000000000000000000000000000000600a86061a8153600a85816129b9576129b86137d7565b5b0494505f8503612970575b819350505050919050565b5f805f90507a184f03e93ff9f4daa797ed6e38ed64bf6a1f0100000000000000008310612a2b577a184f03e93ff9f4daa797ed6e38ed64bf6a1f0100000000000000008381612a2157612a206137d7565b5b0492506040810190505b6d04ee2d6d415b85acef81000000008310612a68576d04ee2d6d415b85acef81000000008381612a5e57612a5d6137d7565b5b0492506020810190505b662386f26fc100008310612a9757662386f26fc100008381612a8d57612a8c6137d7565b5b0492506010810190505b6305f5e1008310612ac0576305f5e1008381612ab657612ab56137d7565b5b0492506008810190505b6127108310612ae5576127108381612adb57612ada6137d7565b5b0492506004810190505b60648310612b085760648381612afe57612afd6137d7565b5b0492506002810190505b600a8310612b17576001810190505b80915050919050565b826104b1600f01601090048101928215612bac579160200282015f5b83821115612b7c57835183826101000a81548161ffff021916908361ffff1602179055509260200192600201602081600101049283019260010302612b3c565b8015612baa5782816101000a81549061ffff0219169055600201602081600101049283019260010302612b7c565b505b509050612bb99190612bbd565b5090565b5b80821115612bd4575f815f905550600101612bbe565b5090565b5f7fffffffffffffffffffffffffffffffffffffffff00000000000000000000000082169050919050565b612c0c81612bd8565b82525050565b5f602082019050612c255f830184612c03565b92915050565b5f604051905090565b5f80fd5b5f80fd5b5f73ffffffffffffffffffffffffffffffffffffffff82169050919050565b5f612c6582612c3c565b9050919050565b612c7581612c5b565b8114612c7f575f80fd5b50565b5f81359050612c9081612c6c565b92915050565b5f61ffff82169050919050565b612cac81612c96565b8114612cb6575f80fd5b50565b5f81359050612cc781612ca3565b92915050565b5f805f60608486031215612ce457612ce3612c34565b5b5f612cf186828701612c82565b9350506020612d0286828701612c82565b9250506040612d1386828701612cb9565b9150509250925092565b5f819050919050565b612d2f81612d1d565b8114612d39575f80fd5b50565b5f81359050612d4a81612d26565b92915050565b5f80fd5b5f601f19601f8301169050919050565b7f4e487b71000000000000000000000000000000000000000000000000000000005f52604160045260245ffd5b612d9a82612d54565b810181811067ffffffffffffffff82111715612db957612db8612d64565b5b80604052505050565b5f612dcb612c2b565b9050612dd78282612d91565b919050565b5f67ffffffffffffffff821115612df657612df5612d64565b5b602082029050919050565b5f80fd5b5f612e17612e1284612ddc565b612dc2565b90508060208402830185811115612e3157612e30612e01565b5b835b81811015612e5a5780612e468882612cb9565b845260208401935050602081019050612e33565b5050509392505050565b5f82601f830112612e7857612e77612d50565b5b6104b1612e86848285612e05565b91505092915050565b5f819050919050565b612ea181612e8f565b8114612eab575f80fd5b50565b5f81359050612ebc81612e98565b92915050565b5f805f805f805f805f805f6197608c8e031215612ee257612ee1612c34565b5b5f612eef8e828f01612cb9565b9b50506020612f008e828f01612d3c565b9a50506040612f118e828f01612c82565b9950506060612f228e828f01612c82565b9850506080612f338e828f01612d3c565b97505060a0612f448e828f01612e64565b9650506196c0612f568e828f01612eae565b9550506196e0612f688e828f01612c82565b945050619700612f7a8e828f01612d3c565b935050619720612f8c8e828f01612c82565b925050619740612f9e8e828f01612c82565b9150509295989b509295989b9093969950565b5f60208284031215612fc657612fc5612c34565b5b5f612fd384828501612c82565b91505092915050565b5f8115159050919050565b612ff081612fdc565b82525050565b5f6020820190506130095f830184612fe7565b92915050565b61301881612c96565b82525050565b5f6020820190506130315f83018461300f565b92915050565b5f805f805f805f80619700898b03121561305457613053612c34565b5b5f6130618b828c01612cb9565b98505060206130728b828c01612d3c565b97505060406130838b828c01612c82565b96505060606130948b828c01612c82565b95505060806130a58b828c01612d3c565b94505060a06130b68b828c01612e64565b9350506196c06130c88b828c01612eae565b9250506196e06130da8b828c01612c82565b9150509295985092959890939650565b5f602082840312156130ff576130fe612c34565b5b5f61310c84828501612cb9565b91505092915050565b61311e81612c5b565b82525050565b5f6020820190506131375f830184613115565b92915050565b5f7fffffffffffffffffffff0000000000000000000000000000000000000000000082169050919050565b6131718161313d565b82525050565b5f60208201905061318a5f830184613168565b92915050565b61319981612fdc565b81146131a3575f80fd5b50565b5f813590506131b481613190565b92915050565b5f80604083850312156131d0576131cf612c34565b5b5f6131dd85828601612c82565b92505060206131ee858286016131a6565b9150509250929050565b5f80fd5b5f67ffffffffffffffff82111561321657613215612d64565b5b61321f82612d54565b9050602081019050919050565b828183375f83830152505050565b5f61324c613247846131fc565b612dc2565b905082815260208101848484011115613268576132676131f8565b5b61327384828561322c565b509392505050565b5f82601f83011261328f5761328e612d50565b5b813561329f84826020860161323a565b91505092915050565b5f805f80608085870312156132c0576132bf612c34565b5b5f6132cd87828801612c82565b94505060206132de87828801612c82565b93505060406132ef87828801612cb9565b925050606085013567ffffffffffffffff8111156133105761330f612c38565b5b61331c8782880161327b565b91505092959194509250565b5f80fd5b5f8083601f84011261334157613340612d50565b5b8235905067ffffffffffffffff81111561335e5761335d613328565b5b60208301915083600182028301111561337a57613379612e01565b5b9250929050565b5f805f805f6080868803121561339a57613399612c34565b5b5f6133a788828901612c82565b95505060206133b888828901612c82565b94505060406133c988828901612cb9565b935050606086013567ffffffffffffffff8111156133ea576133e9612c38565b5b6133f68882890161332c565b92509250509295509295909350565b5f7fffffffff0000000000000000000000000000000000000000000000000000000082169050919050565b61343981613405565b82525050565b5f6020820190506134525f830184613430565b92915050565b5f65ffffffffffff82169050919050565b61347281613458565b811461347c575f80fd5b50565b5f8135905061348d81613469565b92915050565b5f602082840312156134a8576134a7612c34565b5b5f6134b58482850161347f565b91505092915050565b5f81519050919050565b5f82825260208201905092915050565b5f5b838110156134f55780820151818401526020810190506134da565b5f8484015250505050565b5f61350a826134be565b61351481856134c8565b93506135248185602086016134d8565b61352d81612d54565b840191505092915050565b5f6020820190508181035f8301526135508184613500565b905092915050565b5f81519050919050565b5f82825260208201905092915050565b5f61357c82613558565b6135868185613562565b93506135968185602086016134d8565b61359f81612d54565b840191505092915050565b5f6020820190508181035f8301526135c28184613572565b905092915050565b5f80604083850312156135e0576135df612c34565b5b5f6135ed85828601612c82565b92505060206135fe85828601612cb9565b9150509250929050565b5f806040838503121561361e5761361d612c34565b5b5f61362b85828601612c82565b925050602061363c85828601612c82565b9150509250929050565b5f806040838503121561365c5761365b612c34565b5b5f61366985828601612cb9565b925050602061367a858286016131a6565b9150509250929050565b7f416363657373206f6e6c7920666f72206578656375746f7200000000000000005f82015250565b5f6136b8601883613562565b91506136c382613684565b602082019050919050565b5f6020820190508181035f8301526136e5816136ac565b9050919050565b7f4e487b71000000000000000000000000000000000000000000000000000000005f52601160045260245ffd5b5f61372382612c96565b915061372e83612c96565b9250828203905061ffff811115613748576137476136ec565b5b92915050565b5f61375882612c96565b915061ffff820361376c5761376b6136ec565b5b600182019050919050565b7f4e487b71000000000000000000000000000000000000000000000000000000005f52603260045260245ffd5b5f6137ae82612d1d565b91506137b983612d1d565b92508282019050808211156137d1576137d06136ec565b5b92915050565b7f4e487b71000000000000000000000000000000000000000000000000000000005f52601260045260245ffd5b5f61380e82612c96565b915061381983612c96565b925082613829576138286137d7565b5b828206905092915050565b5f61383e82613458565b915061384983613458565b9250828201905065ffffffffffff811115613867576138666136ec565b5b92915050565b5f61387782612c96565b915061388283612c96565b9250828201905061ffff81111561389c5761389b6136ec565b5b92915050565b5f6138ac82612c96565b91505f82036138be576138bd6136ec565b5b600182039050919050565b7f4d696e742063616e6e6f74206265206d6f7265207468616e20313230300000005f82015250565b5f6138fd601d83613562565b9150613908826138c9565b602082019050919050565b5f6020820190508181035f83015261392a816138f1565b9050919050565b61393a81612d1d565b82525050565b5f6104b19050919050565b5f81905092915050565b5f819050919050565b61396781612c96565b82525050565b5f613978838361395e565b60208301905092915050565b5f602082019050919050565b61399981613940565b6139a3818461394b565b92506139ae82613955565b805f5b838110156139de5781516139c5878261396d565b96506139d083613984565b9250506001810190506139b1565b505050505050565b6139ef81612e8f565b82525050565b5f61970082019050613a095f83018b61300f565b613a16602083018a613931565b613a236040830189613115565b613a306060830188613115565b613a3d6080830187613931565b613a4a60a0830186613990565b613a586196c08301856139e6565b613a666196e0830184613115565b9998505050505050505050565b5f60c082019050613a865f830189613115565b613a936020830188613931565b8181036040830152613aa58187613500565b9050613ab460608301866139e6565b613ac16080830185613115565b613ace60a0830184613115565b979650505050505050565b5f81905092915050565b5f613aed826134be565b613af78185613ad9565b9350613b078185602086016134d8565b80840191505092915050565b5f613b1e8284613ae3565b915081905092915050565b7f546865207472616e73666572206f66207468697320746f6b656e2069732063755f8201527f7272656e746c792062616e6e6564000000000000000000000000000000000000602082015250565b5f613b83602e83613562565b9150613b8e82613b29565b604082019050919050565b5f6020820190508181035f830152613bb081613b77565b9050919050565b5f819050919050565b5f613bda613bd5613bd084612c96565b613bb7565b612d1d565b9050919050565b613bea81613bc0565b82525050565b5f604082019050613c035f830185613115565b613c106020830184613be1565b9392505050565b5f606082019050613c2a5f830186613115565b613c376020830185613be1565b613c446040830184613115565b949350505050565b7f54686520696e70757420616464726573732063616e6e6f74206265207a65726f5f82015250565b5f613c80602083613562565b9150613c8b82613c4c565b602082019050919050565b5f6020820190508181035f830152613cad81613c74565b9050919050565b7f596f7520646f206e6f7420686176652061636365737320746f207468697320665f8201527f756e6374696f6e00000000000000000000000000000000000000000000000000602082015250565b5f613d0e602783613562565b9150613d1982613cb4565b604082019050919050565b5f6020820190508181035f830152613d3b81613d02565b9050919050565b7f54686520656e746572656420706172616d657465727320617265206e6f7420615f8201527f636365707461626c650000000000000000000000000000000000000000000000602082015250565b5f613d9c602983613562565b9150613da782613d42565b604082019050919050565b5f6020820190508181035f830152613dc981613d90565b9050919050565b5f608082019050613de35f830187613115565b613df06020830186613931565b8181036040830152613e028185613500565b9050613e1160608301846139e6565b95945050505050565b7f65786563757465207065726d697373696f6e2066756e6374696f6e206661696c5f8201527f6564000000000000000000000000000000000000000000000000000000000000602082015250565b5f613e74602283613562565b9150613e7f82613e1a565b604082019050919050565b5f6020820190508181035f830152613ea181613e68565b9050919050565b5f606082019050613ebb5f830186613115565b613ec86020830185613115565b613ed56040830184613931565b949350505050565b7f5468652061646472657373206f6620746865206f776e657220616e64207468655f8201527f206f70657261746f72206d75737420626520646966666572656e740000000000602082015250565b5f613f37603b83613562565b9150613f4282613edd565b604082019050919050565b5f6020820190508181035f830152613f6481613f2b565b9050919050565b7f4974206973206e6f7420706f737369626c6520746f207265676973746572206e5f8201527f6f77000000000000000000000000000000000000000000000000000000000000602082015250565b5f613fc5602283613562565b9150613fd082613f6b565b604082019050919050565b5f6020820190508181035f830152613ff281613fb9565b9050919050565b7f5468652061646472657373206f66207468652072656769737472616e74206d755f8201527f7374206e6f742062652030206f72207468652061646472657373206f6620612060208201527f636f6e7472616374000000000000000000000000000000000000000000000000604082015250565b5f614079604883613562565b915061408482613ff9565b606082019050919050565b5f6020820190508181035f8301526140a68161406d565b9050919050565b7f54686520616d6f756e742073686f756c64206e6f74206265206c6573732074685f8201527f616e20746865206d696e74207072696365000000000000000000000000000000602082015250565b5f614107603183613562565b9150614112826140ad565b604082019050919050565b5f6020820190508181035f830152614134816140fb565b9050919050565b50565b5f6141495f83613ad9565b91506141548261413b565b5f82019050919050565b5f6141688261413e565b9150819050919050565b7f54686520616d6f756e7420776173206e6f742073656e740000000000000000005f82015250565b5f6141a6601783613562565b91506141b182614172565b602082019050919050565b5f6020820190508181035f8301526141d38161419a565b9050919050565b5f81905092915050565b5f6141ee82613558565b6141f881856141da565b93506142088185602086016134d8565b80840191505092915050565b5f61421f82856141e4565b915061422b82846141e4565b91508190509392505050565b7f54686520494420656e746572656420697320696e76616c69642e204974206d755f8201527f737420626520696e207468697320696e74657276616c2030203c206964203c3d60208201527f206d6178696d756d206d696e7461626c6520746f6b656e730000000000000000604082015250565b5f6142b7605883613562565b91506142c282614237565b606082019050919050565b5f6020820190508181035f8301526142e4816142ab565b9050919050565b5f6020820190506142fe5f830184613be1565b92915050565b5f6080820190506143175f830187613115565b6143246020830186613115565b614331604083018561300f565b81810360608301526143438184613500565b905095945050505050565b61435781613405565b8114614361575f80fd5b50565b5f815190506143728161434e565b92915050565b5f6020828403121561438d5761438c612c34565b5b5f61439a84828501614364565b9150509291505056fea26469706673582212200e273cb2236d603c0080a5c0ad6ca6cc48ddf846d1691e8a1c65c00a2c56cbb064736f6c63430008140033",
			"opcodes": "PUSH1 0x80 PUSH1 0x40 MSTORE CALLVALUE DUP1 ISZERO PUSH3 0x10 JUMPI PUSH0 DUP1 REVERT JUMPDEST POP PUSH1 0x40 MLOAD PUSH3 0x45CA CODESIZE SUB DUP1 PUSH3 0x45CA DUP4 CODECOPY DUP2 DUP2 ADD PUSH1 0x40 MSTORE DUP2 ADD SWAP1 PUSH3 0x36 SWAP2 SWAP1 PUSH3 0x19E JUMP JUMPDEST DUP2 PUSH0 DUP1 PUSH2 0x100 EXP DUP2 SLOAD DUP2 PUSH20 0xFFFFFFFFFFFFFFFFFFFFFFFFFFFFFFFFFFFFFFFF MUL NOT AND SWAP1 DUP4 PUSH1 0x60 SHR MUL OR SWAP1 SSTORE POP DUP1 PUSH0 PUSH1 0x14 PUSH2 0x100 EXP DUP2 SLOAD DUP2 PUSH10 0xFFFFFFFFFFFFFFFFFFFF MUL NOT AND SWAP1 DUP4 PUSH1 0xB0 SHR MUL OR SWAP1 SSTORE POP PUSH3 0x95 PUSH3 0xDF PUSH1 0x20 SHL PUSH1 0x20 SHR JUMP JUMPDEST PUSH1 0x1 PUSH0 ADD PUSH1 0x6 PUSH2 0x100 EXP DUP2 SLOAD DUP2 PUSH20 0xFFFFFFFFFFFFFFFFFFFFFFFFFFFFFFFFFFFFFFFF MUL NOT AND SWAP1 DUP4 PUSH20 0xFFFFFFFFFFFFFFFFFFFFFFFFFFFFFFFFFFFFFFFF AND MUL OR SWAP1 SSTORE POP POP POP PUSH3 0x1E3 JUMP JUMPDEST PUSH0 CALLER SWAP1 POP SWAP1 JUMP JUMPDEST PUSH0 DUP1 REVERT JUMPDEST PUSH0 PUSH32 0xFFFFFFFFFFFFFFFFFFFFFFFFFFFFFFFFFFFFFFFF000000000000000000000000 DUP3 AND SWAP1 POP SWAP2 SWAP1 POP JUMP JUMPDEST PUSH3 0x120 DUP2 PUSH3 0xEA JUMP JUMPDEST DUP2 EQ PUSH3 0x12B JUMPI PUSH0 DUP1 REVERT JUMPDEST POP JUMP JUMPDEST PUSH0 DUP2 MLOAD SWAP1 POP PUSH3 0x13E DUP2 PUSH3 0x115 JUMP JUMPDEST SWAP3 SWAP2 POP POP JUMP JUMPDEST PUSH0 PUSH32 0xFFFFFFFFFFFFFFFFFFFF00000000000000000000000000000000000000000000 DUP3 AND SWAP1 POP SWAP2 SWAP1 POP JUMP JUMPDEST PUSH3 0x17A DUP2 PUSH3 0x144 JUMP JUMPDEST DUP2 EQ PUSH3 0x185 JUMPI PUSH0 DUP1 REVERT JUMPDEST POP JUMP JUMPDEST PUSH0 DUP2 MLOAD SWAP1 POP PUSH3 0x198 DUP2 PUSH3 0x16F JUMP JUMPDEST SWAP3 SWAP2 POP POP JUMP JUMPDEST PUSH0 DUP1 PUSH1 0x40 DUP4 DUP6 SUB SLT ISZERO PUSH3 0x1B7 JUMPI PUSH3 0x1B6 PUSH3 0xE6 JUMP JUMPDEST JUMPDEST PUSH0 PUSH3 0x1C6 DUP6 DUP3 DUP7 ADD PUSH3 0x12E JUMP JUMPDEST SWAP3 POP POP PUSH1 0x20 PUSH3 0x1D9 DUP6 DUP3 DUP7 ADD PUSH3 0x188 JUMP JUMPDEST SWAP2 POP POP SWAP3 POP SWAP3 SWAP1 POP JUMP JUMPDEST PUSH2 0x43D9 DUP1 PUSH3 0x1F1 PUSH0 CODECOPY PUSH0 RETURN INVALID PUSH1 0x80 PUSH1 0x40 MSTORE PUSH1 0x4 CALLDATASIZE LT PUSH2 0x113 JUMPI PUSH0 CALLDATALOAD PUSH1 0xE0 SHR DUP1 PUSH4 0x93B871F2 GT PUSH2 0x9F JUMPI DUP1 PUSH4 0xD5EBE3DF GT PUSH2 0x63 JUMPI DUP1 PUSH4 0xD5EBE3DF EQ PUSH2 0x391 JUMPI DUP1 PUSH4 0xDD7D8440 EQ PUSH2 0x3C1 JUMPI DUP1 PUSH4 0xE560CA43 EQ PUSH2 0x3FD JUMPI DUP1 PUSH4 0xE985E9C5 EQ PUSH2 0x425 JUMPI DUP1 PUSH4 0xF12C2C7A EQ PUSH2 0x461 JUMPI PUSH2 0x113 JUMP JUMPDEST DUP1 PUSH4 0x93B871F2 EQ PUSH2 0x29F JUMPI DUP1 PUSH4 0x95D89B41 EQ PUSH2 0x2DB JUMPI DUP1 PUSH4 0xA22CB465 EQ PUSH2 0x305 JUMPI DUP1 PUSH4 0xB145AE31 EQ PUSH2 0x32D JUMPI DUP1 PUSH4 0xB1CFF380 EQ PUSH2 0x355 JUMPI PUSH2 0x113 JUMP JUMPDEST DUP1 PUSH4 0x3610FEB3 GT PUSH2 0xE6 JUMPI DUP1 PUSH4 0x3610FEB3 EQ PUSH2 0x1A7 JUMPI DUP1 PUSH4 0x4EC3DCFE EQ PUSH2 0x1E3 JUMPI DUP1 PUSH4 0x70A08231 EQ PUSH2 0x20B JUMPI DUP1 PUSH4 0x7E0DAD88 EQ PUSH2 0x247 JUMPI DUP1 PUSH4 0x82A7CF1E EQ PUSH2 0x263 JUMPI PUSH2 0x113 JUMP JUMPDEST DUP1 PUSH4 0x6FDDE03 EQ PUSH2 0x117 JUMPI DUP1 PUSH4 0x7394401 EQ PUSH2 0x141 JUMPI DUP1 PUSH4 0x1249C58B EQ PUSH2 0x169 JUMPI DUP1 PUSH4 0x1C276796 EQ PUSH2 0x17F JUMPI JUMPDEST PUSH0 DUP1 REVERT JUMPDEST CALLVALUE DUP1 ISZERO PUSH2 0x122 JUMPI PUSH0 DUP1 REVERT JUMPDEST POP PUSH2 0x12B PUSH2 0x49D JUMP JUMPDEST PUSH1 0x40 MLOAD PUSH2 0x138 SWAP2 SWAP1 PUSH2 0x2C12 JUMP JUMPDEST PUSH1 0x40 MLOAD DUP1 SWAP2 SUB SWAP1 RETURN JUMPDEST CALLVALUE DUP1 ISZERO PUSH2 0x14C JUMPI PUSH0 DUP1 REVERT JUMPDEST POP PUSH2 0x167 PUSH1 0x4 DUP1 CALLDATASIZE SUB DUP2 ADD SWAP1 PUSH2 0x162 SWAP2 SWAP1 PUSH2 0x2CCD JUMP JUMPDEST PUSH2 0x4B1 JUMP JUMPDEST STOP JUMPDEST CALLVALUE DUP1 ISZERO PUSH2 0x174 JUMPI PUSH0 DUP1 REVERT JUMPDEST POP PUSH2 0x17D PUSH2 0x4D0 JUMP JUMPDEST STOP JUMPDEST CALLVALUE DUP1 ISZERO PUSH2 0x18A JUMPI PUSH0 DUP1 REVERT JUMPDEST POP PUSH2 0x1A5 PUSH1 0x4 DUP1 CALLDATASIZE SUB DUP2 ADD SWAP1 PUSH2 0x1A0 SWAP2 SWAP1 PUSH2 0x2EC2 JUMP JUMPDEST PUSH2 0xA70 JUMP JUMPDEST STOP JUMPDEST CALLVALUE DUP1 ISZERO PUSH2 0x1B2 JUMPI PUSH0 DUP1 REVERT JUMPDEST POP PUSH2 0x1CD PUSH1 0x4 DUP1 CALLDATASIZE SUB DUP2 ADD SWAP1 PUSH2 0x1C8 SWAP2 SWAP1 PUSH2 0x2FB1 JUMP JUMPDEST PUSH2 0xC65 JUMP JUMPDEST PUSH1 0x40 MLOAD PUSH2 0x1DA SWAP2 SWAP1 PUSH2 0x2FF6 JUMP JUMPDEST PUSH1 0x40 MLOAD DUP1 SWAP2 SUB SWAP1 RETURN JUMPDEST CALLVALUE DUP1 ISZERO PUSH2 0x1EE JUMPI PUSH0 DUP1 REVERT JUMPDEST POP PUSH2 0x209 PUSH1 0x4 DUP1 CALLDATASIZE SUB DUP2 ADD SWAP1 PUSH2 0x204 SWAP2 SWAP1 PUSH2 0x2CCD JUMP JUMPDEST PUSH2 0xC6B JUMP JUMPDEST STOP JUMPDEST CALLVALUE DUP1 ISZERO PUSH2 0x216 JUMPI PUSH0 DUP1 REVERT JUMPDEST POP PUSH2 0x231 PUSH1 0x4 DUP1 CALLDATASIZE SUB DUP2 ADD SWAP1 PUSH2 0x22C SWAP2 SWAP1 PUSH2 0x2FB1 JUMP JUMPDEST PUSH2 0xEC4 JUMP JUMPDEST PUSH1 0x40 MLOAD PUSH2 0x23E SWAP2 SWAP1 PUSH2 0x301E JUMP JUMPDEST PUSH1 0x40 MLOAD DUP1 SWAP2 SUB SWAP1 RETURN JUMPDEST PUSH2 0x261 PUSH1 0x4 DUP1 CALLDATASIZE SUB DUP2 ADD SWAP1 PUSH2 0x25C SWAP2 SWAP1 PUSH2 0x3037 JUMP JUMPDEST PUSH2 0xFA5 JUMP JUMPDEST STOP JUMPDEST CALLVALUE DUP1 ISZERO PUSH2 0x26E JUMPI PUSH0 DUP1 REVERT JUMPDEST POP PUSH2 0x289 PUSH1 0x4 DUP1 CALLDATASIZE SUB DUP2 ADD SWAP1 PUSH2 0x284 SWAP2 SWAP1 PUSH2 0x30EA JUMP JUMPDEST PUSH2 0x14C3 JUMP JUMPDEST PUSH1 0x40 MLOAD PUSH2 0x296 SWAP2 SWAP1 PUSH2 0x3124 JUMP JUMPDEST PUSH1 0x40 MLOAD DUP1 SWAP2 SUB SWAP1 RETURN JUMPDEST CALLVALUE DUP1 ISZERO PUSH2 0x2AA JUMPI PUSH0 DUP1 REVERT JUMPDEST POP PUSH2 0x2C5 PUSH1 0x4 DUP1 CALLDATASIZE SUB DUP2 ADD SWAP1 PUSH2 0x2C0 SWAP2 SWAP1 PUSH2 0x30EA JUMP JUMPDEST PUSH2 0x14D4 JUMP JUMPDEST PUSH1 0x40 MLOAD PUSH2 0x2D2 SWAP2 SWAP1 PUSH2 0x3124 JUMP JUMPDEST PUSH1 0x40 MLOAD DUP1 SWAP2 SUB SWAP1 RETURN JUMPDEST CALLVALUE DUP1 ISZERO PUSH2 0x2E6 JUMPI PUSH0 DUP1 REVERT JUMPDEST POP PUSH2 0x2EF PUSH2 0x1520 JUMP JUMPDEST PUSH1 0x40 MLOAD PUSH2 0x2FC SWAP2 SWAP1 PUSH2 0x3177 JUMP JUMPDEST PUSH1 0x40 MLOAD DUP1 SWAP2 SUB SWAP1 RETURN JUMPDEST CALLVALUE DUP1 ISZERO PUSH2 0x310 JUMPI PUSH0 DUP1 REVERT JUMPDEST POP PUSH2 0x32B PUSH1 0x4 DUP1 CALLDATASIZE SUB DUP2 ADD SWAP1 PUSH2 0x326 SWAP2 SWAP1 PUSH2 0x31BA JUMP JUMPDEST PUSH2 0x1535 JUMP JUMPDEST STOP JUMPDEST CALLVALUE DUP1 ISZERO PUSH2 0x338 JUMPI PUSH0 DUP1 REVERT JUMPDEST POP PUSH2 0x353 PUSH1 0x4 DUP1 CALLDATASIZE SUB DUP2 ADD SWAP1 PUSH2 0x34E SWAP2 SWAP1 PUSH2 0x32A8 JUMP JUMPDEST PUSH2 0x1721 JUMP JUMPDEST STOP JUMPDEST CALLVALUE DUP1 ISZERO PUSH2 0x360 JUMPI PUSH0 DUP1 REVERT JUMPDEST POP PUSH2 0x37B PUSH1 0x4 DUP1 CALLDATASIZE SUB DUP2 ADD SWAP1 PUSH2 0x376 SWAP2 SWAP1 PUSH2 0x3381 JUMP JUMPDEST PUSH2 0x173E JUMP JUMPDEST PUSH1 0x40 MLOAD PUSH2 0x388 SWAP2 SWAP1 PUSH2 0x343F JUMP JUMPDEST PUSH1 0x40 MLOAD DUP1 SWAP2 SUB SWAP1 RETURN JUMPDEST PUSH2 0x3AB PUSH1 0x4 DUP1 CALLDATASIZE SUB DUP2 ADD SWAP1 PUSH2 0x3A6 SWAP2 SWAP1 PUSH2 0x3493 JUMP JUMPDEST PUSH2 0x1748 JUMP JUMPDEST PUSH1 0x40 MLOAD PUSH2 0x3B8 SWAP2 SWAP1 PUSH2 0x3538 JUMP JUMPDEST PUSH1 0x40 MLOAD DUP1 SWAP2 SUB SWAP1 RETURN JUMPDEST CALLVALUE DUP1 ISZERO PUSH2 0x3CC JUMPI PUSH0 DUP1 REVERT JUMPDEST POP PUSH2 0x3E7 PUSH1 0x4 DUP1 CALLDATASIZE SUB DUP2 ADD SWAP1 PUSH2 0x3E2 SWAP2 SWAP1 PUSH2 0x30EA JUMP JUMPDEST PUSH2 0x1AF5 JUMP JUMPDEST PUSH1 0x40 MLOAD PUSH2 0x3F4 SWAP2 SWAP1 PUSH2 0x35AA JUMP JUMPDEST PUSH1 0x40 MLOAD DUP1 SWAP2 SUB SWAP1 RETURN JUMPDEST CALLVALUE DUP1 ISZERO PUSH2 0x408 JUMPI PUSH0 DUP1 REVERT JUMPDEST POP PUSH2 0x423 PUSH1 0x4 DUP1 CALLDATASIZE SUB DUP2 ADD SWAP1 PUSH2 0x41E SWAP2 SWAP1 PUSH2 0x35CA JUMP JUMPDEST PUSH2 0x1B5F JUMP JUMPDEST STOP JUMPDEST CALLVALUE DUP1 ISZERO PUSH2 0x430 JUMPI PUSH0 DUP1 REVERT JUMPDEST POP PUSH2 0x44B PUSH1 0x4 DUP1 CALLDATASIZE SUB DUP2 ADD SWAP1 PUSH2 0x446 SWAP2 SWAP1 PUSH2 0x3608 JUMP JUMPDEST PUSH2 0x1C83 JUMP JUMPDEST PUSH1 0x40 MLOAD PUSH2 0x458 SWAP2 SWAP1 PUSH2 0x2FF6 JUMP JUMPDEST PUSH1 0x40 MLOAD DUP1 SWAP2 SUB SWAP1 RETURN JUMPDEST CALLVALUE DUP1 ISZERO PUSH2 0x46C JUMPI PUSH0 DUP1 REVERT JUMPDEST POP PUSH2 0x487 PUSH1 0x4 DUP1 CALLDATASIZE SUB DUP2 ADD SWAP1 PUSH2 0x482 SWAP2 SWAP1 PUSH2 0x3646 JUMP JUMPDEST PUSH2 0x1D12 JUMP JUMPDEST PUSH1 0x40 MLOAD PUSH2 0x494 SWAP2 SWAP1 PUSH2 0x2FF6 JUMP JUMPDEST PUSH1 0x40 MLOAD DUP1 SWAP2 SUB SWAP1 RETURN JUMPDEST PUSH0 DUP1 PUSH0 SWAP1 SLOAD SWAP1 PUSH2 0x100 EXP SWAP1 DIV PUSH1 0x60 SHL SWAP1 POP SWAP1 JUMP JUMPDEST PUSH2 0x4CB DUP4 DUP4 DUP4 PUSH1 0x40 MLOAD DUP1 PUSH1 0x20 ADD PUSH1 0x40 MSTORE DUP1 PUSH0 DUP2 MSTORE POP PUSH2 0x1721 JUMP JUMPDEST POP POP POP JUMP JUMPDEST PUSH1 0x1 PUSH0 ADD PUSH1 0x6 SWAP1 SLOAD SWAP1 PUSH2 0x100 EXP SWAP1 DIV PUSH20 0xFFFFFFFFFFFFFFFFFFFFFFFFFFFFFFFFFFFFFFFF AND PUSH20 0xFFFFFFFFFFFFFFFFFFFFFFFFFFFFFFFFFFFFFFFF AND PUSH2 0x513 PUSH2 0x1DD9 JUMP JUMPDEST PUSH20 0xFFFFFFFFFFFFFFFFFFFFFFFFFFFFFFFFFFFFFFFF AND EQ PUSH2 0x569 JUMPI PUSH1 0x40 MLOAD PUSH32 0x8C379A000000000000000000000000000000000000000000000000000000000 DUP2 MSTORE PUSH1 0x4 ADD PUSH2 0x560 SWAP1 PUSH2 0x36CE JUMP JUMPDEST PUSH1 0x40 MLOAD DUP1 SWAP2 SUB SWAP1 REVERT JUMPDEST PUSH1 0x1 PUSH0 ADD PUSH1 0x2 SWAP1 SLOAD SWAP1 PUSH2 0x100 EXP SWAP1 DIV PUSH2 0xFFFF AND PUSH2 0xFFFF AND PUSH1 0x1 PUSH0 ADD PUSH1 0x4 SWAP1 SLOAD SWAP1 PUSH2 0x100 EXP SWAP1 DIV PUSH2 0xFFFF AND PUSH2 0xFFFF AND GT ISZERO PUSH2 0xA1F JUMPI PUSH0 PUSH1 0x1 PUSH1 0x4 ADD PUSH2 0x4B1 DUP1 PUSH1 0x20 MUL PUSH1 0x40 MLOAD SWAP1 DUP2 ADD PUSH1 0x40 MSTORE DUP1 SWAP3 SWAP2 SWAP1 DUP3 PUSH2 0x4B1 DUP1 ISZERO PUSH2 0x60B JUMPI PUSH1 0x20 MUL DUP3 ADD SWAP2 PUSH0 SWAP1 JUMPDEST DUP3 DUP3 SWAP1 SLOAD SWAP1 PUSH2 0x100 EXP SWAP1 DIV PUSH6 0xFFFFFFFFFFFF AND PUSH6 0xFFFFFFFFFFFF AND DUP2 MSTORE PUSH1 0x20 ADD SWAP1 PUSH1 0x6 ADD SWAP1 PUSH1 0x20 DUP3 PUSH1 0x5 ADD DIV SWAP3 DUP4 ADD SWAP3 PUSH1 0x1 SUB DUP3 MUL SWAP2 POP DUP1 DUP5 GT PUSH2 0x5CA JUMPI SWAP1 POP JUMPDEST POP POP POP POP POP SWAP1 POP PUSH0 PUSH1 0x1 PUSH1 0xF5 ADD PUSH2 0x4B1 DUP1 PUSH1 0x20 MUL PUSH1 0x40 MLOAD SWAP1 DUP2 ADD PUSH1 0x40 MSTORE DUP1 SWAP3 SWAP2 SWAP1 DUP3 PUSH2 0x4B1 DUP1 ISZERO PUSH2 0x686 JUMPI PUSH1 0x20 MUL DUP3 ADD SWAP2 JUMPDEST DUP2 PUSH0 SWAP1 SLOAD SWAP1 PUSH2 0x100 EXP SWAP1 DIV PUSH20 0xFFFFFFFFFFFFFFFFFFFFFFFFFFFFFFFFFFFFFFFF AND PUSH20 0xFFFFFFFFFFFFFFFFFFFFFFFFFFFFFFFFFFFFFFFF AND DUP2 MSTORE PUSH1 0x20 ADD SWAP1 PUSH1 0x1 ADD SWAP1 DUP1 DUP4 GT PUSH2 0x63D JUMPI JUMPDEST POP POP POP POP POP SWAP1 POP PUSH0 PUSH1 0x1 PUSH0 ADD PUSH1 0x2 SWAP1 SLOAD SWAP1 PUSH2 0x100 EXP SWAP1 DIV PUSH2 0xFFFF AND PUSH1 0x1 PUSH0 ADD PUSH1 0x4 SWAP1 SLOAD SWAP1 PUSH2 0x100 EXP SWAP1 DIV PUSH2 0xFFFF AND PUSH2 0x6BE SWAP2 SWAP1 PUSH2 0x3719 JUMP JUMPDEST SWAP1 POP PUSH0 PUSH1 0x1 PUSH0 ADD PUSH1 0x2 SWAP1 SLOAD SWAP1 PUSH2 0x100 EXP SWAP1 DIV PUSH2 0xFFFF AND PUSH1 0x1 PUSH0 ADD PUSH0 SWAP1 SLOAD SWAP1 PUSH2 0x100 EXP SWAP1 DIV PUSH2 0xFFFF AND PUSH2 0x6F0 SWAP2 SWAP1 PUSH2 0x3719 JUMP JUMPDEST SWAP1 POP PUSH0 PUSH1 0x1 PUSH0 ADD PUSH1 0x2 DUP2 DUP2 SWAP1 SLOAD SWAP1 PUSH2 0x100 EXP SWAP1 DIV PUSH2 0xFFFF AND PUSH2 0x711 SWAP1 PUSH2 0x374E JUMP JUMPDEST SWAP2 SWAP1 PUSH2 0x100 EXP DUP2 SLOAD DUP2 PUSH2 0xFFFF MUL NOT AND SWAP1 DUP4 PUSH2 0xFFFF AND MUL OR SWAP1 SSTORE SWAP1 POP PUSH0 PUSH1 0x1 PUSH0 ADD PUSH1 0x4 SWAP1 SLOAD SWAP1 PUSH2 0x100 EXP SWAP1 DIV PUSH2 0xFFFF AND SWAP1 POP PUSH0 TIMESTAMP SWAP1 POP JUMPDEST DUP2 PUSH2 0xFFFF AND DUP4 PUSH2 0xFFFF AND GT PUSH2 0x9E2 JUMPI PUSH0 DUP4 DUP9 DUP6 PUSH2 0xFFFF AND PUSH2 0x4B1 DUP2 LT PUSH2 0x770 JUMPI PUSH2 0x76F PUSH2 0x3777 JUMP JUMPDEST JUMPDEST PUSH1 0x20 MUL ADD MLOAD PUSH6 0xFFFFFFFFFFFF AND DUP4 DUP11 PUSH0 PUSH2 0x4B1 DUP2 LT PUSH2 0x792 JUMPI PUSH2 0x791 PUSH2 0x3777 JUMP JUMPDEST JUMPDEST PUSH1 0x20 MUL ADD MLOAD PUSH6 0xFFFFFFFFFFFF AND PUSH2 0x7A9 SWAP2 SWAP1 PUSH2 0x37A4 JUMP JUMPDEST PUSH2 0x7B3 SWAP2 SWAP1 PUSH2 0x37A4 JUMP JUMPDEST PUSH2 0x7BD SWAP2 SWAP1 PUSH2 0x3804 JUMP JUMPDEST SWAP1 POP PUSH0 DUP4 DUP10 PUSH0 PUSH2 0x4B1 DUP2 LT PUSH2 0x7D5 JUMPI PUSH2 0x7D4 PUSH2 0x3777 JUMP JUMPDEST JUMPDEST PUSH1 0x20 MUL ADD MLOAD DUP11 DUP5 PUSH2 0xFFFF AND PUSH2 0x4B1 DUP2 LT PUSH2 0x7F2 JUMPI PUSH2 0x7F1 PUSH2 0x3777 JUMP JUMPDEST JUMPDEST PUSH1 0x20 MUL ADD MLOAD PUSH2 0x801 SWAP2 SWAP1 PUSH2 0x3834 JUMP JUMPDEST PUSH2 0x80B SWAP2 SWAP1 PUSH2 0x3804 JUMP JUMPDEST SWAP1 POP PUSH0 DUP6 DUP9 DUP12 DUP5 PUSH2 0xFFFF AND PUSH2 0x4B1 DUP2 LT PUSH2 0x828 JUMPI PUSH2 0x827 PUSH2 0x3777 JUMP JUMPDEST JUMPDEST PUSH1 0x20 MUL ADD MLOAD DUP13 DUP7 PUSH2 0xFFFF AND PUSH2 0x4B1 DUP2 LT PUSH2 0x845 JUMPI PUSH2 0x844 PUSH2 0x3777 JUMP JUMPDEST JUMPDEST PUSH1 0x20 MUL ADD MLOAD PUSH2 0x854 SWAP2 SWAP1 PUSH2 0x3834 JUMP JUMPDEST PUSH2 0x85E SWAP2 SWAP1 PUSH2 0x3804 JUMP JUMPDEST PUSH2 0x868 SWAP2 SWAP1 PUSH2 0x386D JUMP JUMPDEST SWAP1 POP PUSH0 DUP10 DUP3 PUSH2 0xFFFF AND PUSH2 0x4B1 DUP2 LT PUSH2 0x883 JUMPI PUSH2 0x882 PUSH2 0x3777 JUMP JUMPDEST JUMPDEST PUSH1 0x20 MUL ADD MLOAD SWAP1 POP DUP10 DUP8 PUSH2 0xFFFF AND PUSH2 0x4B1 DUP2 LT PUSH2 0x8A2 JUMPI PUSH2 0x8A1 PUSH2 0x3777 JUMP JUMPDEST JUMPDEST PUSH1 0x20 MUL ADD MLOAD DUP11 DUP4 PUSH2 0xFFFF AND PUSH2 0x4B1 DUP2 LT PUSH2 0x8BF JUMPI PUSH2 0x8BE PUSH2 0x3777 JUMP JUMPDEST JUMPDEST PUSH1 0x20 MUL ADD SWAP1 PUSH20 0xFFFFFFFFFFFFFFFFFFFFFFFFFFFFFFFFFFFFFFFF AND SWAP1 DUP2 PUSH20 0xFFFFFFFFFFFFFFFFFFFFFFFFFFFFFFFFFFFFFFFF AND DUP2 MSTORE POP POP DUP1 DUP11 DUP9 PUSH2 0xFFFF AND PUSH2 0x4B1 DUP2 LT PUSH2 0x90F JUMPI PUSH2 0x90E PUSH2 0x3777 JUMP JUMPDEST JUMPDEST PUSH1 0x20 MUL ADD SWAP1 PUSH20 0xFFFFFFFFFFFFFFFFFFFFFFFFFFFFFFFFFFFFFFFF AND SWAP1 DUP2 PUSH20 0xFFFFFFFFFFFFFFFFFFFFFFFFFFFFFFFFFFFFFFFF AND DUP2 MSTORE POP POP PUSH0 DUP9 DUP13 DUP5 PUSH2 0xFFFF AND PUSH2 0x4B1 DUP2 LT PUSH2 0x960 JUMPI PUSH2 0x95F PUSH2 0x3777 JUMP JUMPDEST JUMPDEST PUSH1 0x20 MUL ADD MLOAD DUP14 DUP8 PUSH2 0xFFFF AND PUSH2 0x4B1 DUP2 LT PUSH2 0x97D JUMPI PUSH2 0x97C PUSH2 0x3777 JUMP JUMPDEST JUMPDEST PUSH1 0x20 MUL ADD MLOAD PUSH2 0x98C SWAP2 SWAP1 PUSH2 0x3834 JUMP JUMPDEST PUSH2 0x996 SWAP2 SWAP1 PUSH2 0x3804 JUMP JUMPDEST SWAP1 POP PUSH0 DUP2 PUSH2 0xFFFF AND SUB PUSH2 0x9A7 JUMPI DUP9 SWAP1 POP JUMPDEST PUSH2 0x9B2 DUP3 DUP3 PUSH0 PUSH2 0x1DE0 JUMP JUMPDEST DUP10 PUSH2 0x9BC SWAP1 PUSH2 0x38A2 JUMP JUMPDEST SWAP10 POP DUP9 PUSH2 0x9C8 SWAP1 PUSH2 0x38A2 JUMP JUMPDEST SWAP9 POP POP POP POP POP POP DUP3 DUP1 PUSH2 0x9DA SWAP1 PUSH2 0x374E JUMP JUMPDEST SWAP4 POP POP PUSH2 0x747 JUMP JUMPDEST PUSH1 0x1 PUSH0 ADD PUSH1 0x4 SWAP1 SLOAD SWAP1 PUSH2 0x100 EXP SWAP1 DIV PUSH2 0xFFFF AND PUSH1 0x1 PUSH0 ADD PUSH1 0x2 PUSH2 0x100 EXP DUP2 SLOAD DUP2 PUSH2 0xFFFF MUL NOT AND SWAP1 DUP4 PUSH2 0xFFFF AND MUL OR SWAP1 SSTORE POP POP POP POP POP POP POP POP PUSH2 0xA6E JUMP JUMPDEST PUSH1 0x1 PUSH0 ADD PUSH1 0x4 SWAP1 SLOAD SWAP1 PUSH2 0x100 EXP SWAP1 DIV PUSH2 0xFFFF AND PUSH1 0x40 MLOAD PUSH32 0x72864E7C00000000000000000000000000000000000000000000000000000000 DUP2 MSTORE PUSH1 0x4 ADD PUSH2 0xA65 SWAP2 SWAP1 PUSH2 0x301E JUMP JUMPDEST PUSH1 0x40 MLOAD DUP1 SWAP2 SUB SWAP1 REVERT JUMPDEST JUMP JUMPDEST PUSH2 0x4B0 DUP12 PUSH2 0xFFFF AND LT PUSH2 0xAB8 JUMPI PUSH1 0x40 MLOAD PUSH32 0x8C379A000000000000000000000000000000000000000000000000000000000 DUP2 MSTORE PUSH1 0x4 ADD PUSH2 0xAAF SWAP1 PUSH2 0x3913 JUMP JUMPDEST PUSH1 0x40 MLOAD DUP1 SWAP2 SUB SWAP1 REVERT JUMPDEST PUSH0 DUP12 DUP12 DUP12 DUP12 DUP12 DUP12 DUP12 DUP12 PUSH1 0x40 MLOAD PUSH1 0x24 ADD PUSH2 0xAD8 SWAP9 SWAP8 SWAP7 SWAP6 SWAP5 SWAP4 SWAP3 SWAP2 SWAP1 PUSH2 0x39F5 JUMP JUMPDEST PUSH1 0x40 MLOAD PUSH1 0x20 DUP2 DUP4 SUB SUB DUP2 MSTORE SWAP1 PUSH1 0x40 MSTORE PUSH32 0x4897596D00000000000000000000000000000000000000000000000000000000 PUSH28 0xFFFFFFFFFFFFFFFFFFFFFFFFFFFFFFFFFFFFFFFFFFFFFFFFFFFFFFFF NOT AND PUSH1 0x20 DUP3 ADD DUP1 MLOAD PUSH28 0xFFFFFFFFFFFFFFFFFFFFFFFFFFFFFFFFFFFFFFFFFFFFFFFFFFFFFFFF DUP4 DUP2 DUP4 AND OR DUP4 MSTORE POP POP POP POP SWAP1 POP PUSH0 DUP6 PUSH20 0xFFFFFFFFFFFFFFFFFFFFFFFFFFFFFFFFFFFFFFFF AND ADDRESS DUP7 DUP5 DUP11 DUP9 DUP9 PUSH1 0x40 MLOAD PUSH1 0x24 ADD PUSH2 0xB8A SWAP7 SWAP6 SWAP5 SWAP4 SWAP3 SWAP2 SWAP1 PUSH2 0x3A73 JUMP JUMPDEST PUSH1 0x40 MLOAD PUSH1 0x20 DUP2 DUP4 SUB SUB DUP2 MSTORE SWAP1 PUSH1 0x40 MSTORE PUSH32 0xCCD0BEFD00000000000000000000000000000000000000000000000000000000 PUSH28 0xFFFFFFFFFFFFFFFFFFFFFFFFFFFFFFFFFFFFFFFFFFFFFFFFFFFFFFFF NOT AND PUSH1 0x20 DUP3 ADD DUP1 MLOAD PUSH28 0xFFFFFFFFFFFFFFFFFFFFFFFFFFFFFFFFFFFFFFFFFFFFFFFFFFFFFFFF DUP4 DUP2 DUP4 AND OR DUP4 MSTORE POP POP POP POP PUSH1 0x40 MLOAD PUSH2 0xC14 SWAP2 SWAP1 PUSH2 0x3B13 JUMP JUMPDEST PUSH0 PUSH1 0x40 MLOAD DUP1 DUP4 SUB DUP2 PUSH0 DUP7 GAS CALL SWAP2 POP POP RETURNDATASIZE DUP1 PUSH0 DUP2 EQ PUSH2 0xC4D JUMPI PUSH1 0x40 MLOAD SWAP2 POP PUSH1 0x1F NOT PUSH1 0x3F RETURNDATASIZE ADD AND DUP3 ADD PUSH1 0x40 MSTORE RETURNDATASIZE DUP3 MSTORE RETURNDATASIZE PUSH0 PUSH1 0x20 DUP5 ADD RETURNDATACOPY PUSH2 0xC52 JUMP JUMPDEST PUSH1 0x60 SWAP2 POP JUMPDEST POP POP SWAP1 POP POP POP POP POP POP POP POP POP POP POP POP POP POP JUMP JUMPDEST PUSH0 SWAP2 SWAP1 POP JUMP JUMPDEST PUSH0 PUSH20 0xFFFFFFFFFFFFFFFFFFFFFFFFFFFFFFFFFFFFFFFF AND DUP3 PUSH20 0xFFFFFFFFFFFFFFFFFFFFFFFFFFFFFFFFFFFFFFFF AND SUB PUSH2 0xCDB JUMPI PUSH0 PUSH1 0x40 MLOAD PUSH32 0x64A0AE9200000000000000000000000000000000000000000000000000000000 DUP2 MSTORE PUSH1 0x4 ADD PUSH2 0xCD2 SWAP2 SWAP1 PUSH2 0x3124 JUMP JUMPDEST PUSH1 0x40 MLOAD DUP1 SWAP2 SUB SWAP1 REVERT JUMPDEST PUSH0 PUSH2 0xCE5 DUP3 PUSH2 0x255E JUMP JUMPDEST SWAP1 POP PUSH2 0xA58 DUP3 PUSH2 0xFFFF AND PUSH2 0x4B1 DUP2 LT PUSH2 0xD01 JUMPI PUSH2 0xD00 PUSH2 0x3777 JUMP JUMPDEST JUMPDEST PUSH1 0x20 SWAP2 DUP3 DUP3 DIV ADD SWAP2 SWAP1 MOD SWAP1 SLOAD SWAP1 PUSH2 0x100 EXP SWAP1 DIV PUSH1 0xFF AND ISZERO PUSH2 0xD57 JUMPI PUSH1 0x40 MLOAD PUSH32 0x8C379A000000000000000000000000000000000000000000000000000000000 DUP2 MSTORE PUSH1 0x4 ADD PUSH2 0xD4E SWAP1 PUSH2 0x3B99 JUMP JUMPDEST PUSH1 0x40 MLOAD DUP1 SWAP2 SUB SWAP1 REVERT JUMPDEST DUP1 PUSH20 0xFFFFFFFFFFFFFFFFFFFFFFFFFFFFFFFFFFFFFFFF AND PUSH2 0xD76 PUSH2 0x1DD9 JUMP JUMPDEST PUSH20 0xFFFFFFFFFFFFFFFFFFFFFFFFFFFFFFFFFFFFFFFF AND EQ DUP1 PUSH2 0xDA5 JUMPI POP PUSH2 0xDA4 DUP2 PUSH2 0xD9F PUSH2 0x1DD9 JUMP JUMPDEST PUSH2 0x1C83 JUMP JUMPDEST JUMPDEST DUP1 PUSH2 0xDEA JUMPI POP PUSH2 0xDB3 PUSH2 0x1DD9 JUMP JUMPDEST PUSH20 0xFFFFFFFFFFFFFFFFFFFFFFFFFFFFFFFFFFFFFFFF AND PUSH2 0xDD2 DUP4 PUSH2 0x14D4 JUMP JUMPDEST PUSH20 0xFFFFFFFFFFFFFFFFFFFFFFFFFFFFFFFFFFFFFFFF AND EQ JUMPDEST PUSH2 0xE34 JUMPI PUSH2 0xDF6 PUSH2 0x1DD9 JUMP JUMPDEST DUP3 PUSH1 0x40 MLOAD PUSH32 0x177E802F00000000000000000000000000000000000000000000000000000000 DUP2 MSTORE PUSH1 0x4 ADD PUSH2 0xE2B SWAP3 SWAP2 SWAP1 PUSH2 0x3BF0 JUMP JUMPDEST PUSH1 0x40 MLOAD DUP1 SWAP2 SUB SWAP1 REVERT JUMPDEST DUP4 PUSH20 0xFFFFFFFFFFFFFFFFFFFFFFFFFFFFFFFFFFFFFFFF AND DUP2 PUSH20 0xFFFFFFFFFFFFFFFFFFFFFFFFFFFFFFFFFFFFFFFF AND EQ PUSH2 0xEA8 JUMPI DUP4 DUP3 DUP3 PUSH1 0x40 MLOAD PUSH32 0x64283D7B00000000000000000000000000000000000000000000000000000000 DUP2 MSTORE PUSH1 0x4 ADD PUSH2 0xE9F SWAP4 SWAP3 SWAP2 SWAP1 PUSH2 0x3C17 JUMP JUMPDEST PUSH1 0x40 MLOAD DUP1 SWAP2 SUB SWAP1 REVERT JUMPDEST PUSH2 0xEB3 PUSH0 DUP4 DUP4 PUSH2 0x2681 JUMP JUMPDEST PUSH2 0xEBE DUP4 DUP4 DUP4 PUSH2 0x1DE0 JUMP JUMPDEST POP POP POP POP JUMP JUMPDEST PUSH0 DUP1 PUSH20 0xFFFFFFFFFFFFFFFFFFFFFFFFFFFFFFFFFFFFFFFF AND DUP3 PUSH20 0xFFFFFFFFFFFFFFFFFFFFFFFFFFFFFFFFFFFFFFFF AND SUB PUSH2 0xF33 JUMPI PUSH1 0x40 MLOAD PUSH32 0x8C379A000000000000000000000000000000000000000000000000000000000 DUP2 MSTORE PUSH1 0x4 ADD PUSH2 0xF2A SWAP1 PUSH2 0x3C96 JUMP JUMPDEST PUSH1 0x40 MLOAD DUP1 SWAP2 SUB SWAP1 REVERT JUMPDEST PUSH2 0xA7E PUSH0 DUP4 PUSH20 0xFFFFFFFFFFFFFFFFFFFFFFFFFFFFFFFFFFFFFFFF AND PUSH20 0xFFFFFFFFFFFFFFFFFFFFFFFFFFFFFFFFFFFFFFFF AND DUP2 MSTORE PUSH1 0x20 ADD SWAP1 DUP2 MSTORE PUSH1 0x20 ADD PUSH0 KECCAK256 PUSH0 PUSH2 0x4B1 DUP2 LT PUSH2 0xF84 JUMPI PUSH2 0xF83 PUSH2 0x3777 JUMP JUMPDEST JUMPDEST PUSH1 0x10 SWAP2 DUP3 DUP3 DIV ADD SWAP2 SWAP1 MOD PUSH1 0x2 MUL SWAP1 SLOAD SWAP1 PUSH2 0x100 EXP SWAP1 DIV PUSH2 0xFFFF AND SWAP1 POP SWAP2 SWAP1 POP JUMP JUMPDEST PUSH1 0x1 PUSH0 ADD PUSH1 0x6 SWAP1 SLOAD SWAP1 PUSH2 0x100 EXP SWAP1 DIV PUSH20 0xFFFFFFFFFFFFFFFFFFFFFFFFFFFFFFFFFFFFFFFF AND PUSH20 0xFFFFFFFFFFFFFFFFFFFFFFFFFFFFFFFFFFFFFFFF AND PUSH2 0xFE8 PUSH2 0x1DD9 JUMP JUMPDEST PUSH20 0xFFFFFFFFFFFFFFFFFFFFFFFFFFFFFFFFFFFFFFFF AND EQ PUSH2 0x103E JUMPI PUSH1 0x40 MLOAD PUSH32 0x8C379A000000000000000000000000000000000000000000000000000000000 DUP2 MSTORE PUSH1 0x4 ADD PUSH2 0x1035 SWAP1 PUSH2 0x3D24 JUMP JUMPDEST PUSH1 0x40 MLOAD DUP1 SWAP2 SUB SWAP1 REVERT JUMPDEST PUSH1 0x1 PUSH0 ADD PUSH1 0x4 SWAP1 SLOAD SWAP1 PUSH2 0x100 EXP SWAP1 DIV PUSH2 0xFFFF AND PUSH2 0xFFFF AND DUP9 PUSH2 0xFFFF AND GT DUP1 ISZERO PUSH2 0x1067 JUMPI POP TIMESTAMP DUP8 LT ISZERO JUMPDEST PUSH2 0x10A6 JUMPI PUSH1 0x40 MLOAD PUSH32 0x8C379A000000000000000000000000000000000000000000000000000000000 DUP2 MSTORE PUSH1 0x4 ADD PUSH2 0x109D SWAP1 PUSH2 0x3DB2 JUMP JUMPDEST PUSH1 0x40 MLOAD DUP1 SWAP2 SUB SWAP1 REVERT JUMPDEST DUP3 PUSH0 PUSH2 0x4B1 DUP2 LT PUSH2 0x10BA JUMPI PUSH2 0x10B9 PUSH2 0x3777 JUMP JUMPDEST JUMPDEST PUSH1 0x20 MUL ADD MLOAD PUSH2 0xFFFF AND PUSH1 0x1 PUSH0 ADD PUSH1 0x2 SWAP1 SLOAD SWAP1 PUSH2 0x100 EXP SWAP1 DIV PUSH2 0xFFFF AND DUP10 PUSH2 0x10E1 SWAP2 SWAP1 PUSH2 0x3719 JUMP JUMPDEST PUSH2 0xFFFF AND EQ PUSH2 0x113F JUMPI DUP3 PUSH0 PUSH2 0x4B1 DUP2 LT PUSH2 0x10FE JUMPI PUSH2 0x10FD PUSH2 0x3777 JUMP JUMPDEST JUMPDEST PUSH1 0x20 MUL ADD MLOAD PUSH1 0x40 MLOAD PUSH32 0xCA70E27000000000000000000000000000000000000000000000000000000000 DUP2 MSTORE PUSH1 0x4 ADD PUSH2 0x1136 SWAP2 SWAP1 PUSH2 0x301E JUMP JUMPDEST PUSH1 0x40 MLOAD DUP1 SWAP2 SUB SWAP1 REVERT JUMPDEST PUSH2 0x3E8 DUP9 PUSH2 0xFFFF AND GT ISZERO PUSH2 0x1372 JUMPI PUSH2 0x4B0 DUP9 PUSH2 0xFFFF AND LT PUSH2 0x1195 JUMPI PUSH1 0x40 MLOAD PUSH32 0x8C379A000000000000000000000000000000000000000000000000000000000 DUP2 MSTORE PUSH1 0x4 ADD PUSH2 0x118C SWAP1 PUSH2 0x3913 JUMP JUMPDEST PUSH1 0x40 MLOAD DUP1 SWAP2 SUB SWAP1 REVERT JUMPDEST PUSH0 DUP9 DUP9 DUP9 DUP9 DUP9 DUP9 DUP9 DUP9 PUSH1 0x40 MLOAD PUSH1 0x24 ADD PUSH2 0x11B5 SWAP9 SWAP8 SWAP7 SWAP6 SWAP5 SWAP4 SWAP3 SWAP2 SWAP1 PUSH2 0x39F5 JUMP JUMPDEST PUSH1 0x40 MLOAD PUSH1 0x20 DUP2 DUP4 SUB SUB DUP2 MSTORE SWAP1 PUSH1 0x40 MSTORE PUSH32 0x4897596D00000000000000000000000000000000000000000000000000000000 PUSH28 0xFFFFFFFFFFFFFFFFFFFFFFFFFFFFFFFFFFFFFFFFFFFFFFFFFFFFFFFF NOT AND PUSH1 0x20 DUP3 ADD DUP1 MLOAD PUSH28 0xFFFFFFFFFFFFFFFFFFFFFFFFFFFFFFFFFFFFFFFFFFFFFFFFFFFFFFFF DUP4 DUP2 DUP4 AND OR DUP4 MSTORE POP POP POP POP SWAP1 POP PUSH0 DUP3 PUSH20 0xFFFFFFFFFFFFFFFFFFFFFFFFFFFFFFFFFFFFFFFF AND ADDRESS CALLVALUE DUP5 DUP8 PUSH1 0x40 MLOAD PUSH1 0x24 ADD PUSH2 0x1263 SWAP5 SWAP4 SWAP3 SWAP2 SWAP1 PUSH2 0x3DD0 JUMP JUMPDEST PUSH1 0x40 MLOAD PUSH1 0x20 DUP2 DUP4 SUB SUB DUP2 MSTORE SWAP1 PUSH1 0x40 MSTORE PUSH32 0x88AA4C1200000000000000000000000000000000000000000000000000000000 PUSH28 0xFFFFFFFFFFFFFFFFFFFFFFFFFFFFFFFFFFFFFFFFFFFFFFFFFFFFFFFF NOT AND PUSH1 0x20 DUP3 ADD DUP1 MLOAD PUSH28 0xFFFFFFFFFFFFFFFFFFFFFFFFFFFFFFFFFFFFFFFFFFFFFFFFFFFFFFFF DUP4 DUP2 DUP4 AND OR DUP4 MSTORE POP POP POP POP PUSH1 0x40 MLOAD PUSH2 0x12ED SWAP2 SWAP1 PUSH2 0x3B13 JUMP JUMPDEST PUSH0 PUSH1 0x40 MLOAD DUP1 DUP4 SUB DUP2 PUSH0 DUP7 GAS CALL SWAP2 POP POP RETURNDATASIZE DUP1 PUSH0 DUP2 EQ PUSH2 0x1326 JUMPI PUSH1 0x40 MLOAD SWAP2 POP PUSH1 0x1F NOT PUSH1 0x3F RETURNDATASIZE ADD AND DUP3 ADD PUSH1 0x40 MSTORE RETURNDATASIZE DUP3 MSTORE RETURNDATASIZE PUSH0 PUSH1 0x20 DUP5 ADD RETURNDATACOPY PUSH2 0x132B JUMP JUMPDEST PUSH1 0x60 SWAP2 POP JUMPDEST POP POP SWAP1 POP DUP1 PUSH2 0x136F JUMPI PUSH1 0x40 MLOAD PUSH32 0x8C379A000000000000000000000000000000000000000000000000000000000 DUP2 MSTORE PUSH1 0x4 ADD PUSH2 0x1366 SWAP1 PUSH2 0x3E8A JUMP JUMPDEST PUSH1 0x40 MLOAD DUP1 SWAP2 SUB SWAP1 REVERT JUMPDEST POP POP JUMPDEST DUP8 PUSH1 0x1 PUSH0 ADD PUSH0 PUSH2 0x100 EXP DUP2 SLOAD DUP2 PUSH2 0xFFFF MUL NOT AND SWAP1 DUP4 PUSH2 0xFFFF AND MUL OR SWAP1 SSTORE POP DUP7 PUSH1 0x1 PUSH1 0x2 ADD DUP2 SWAP1 SSTORE POP DUP6 PUSH1 0x1 PUSH0 ADD PUSH1 0x6 PUSH2 0x100 EXP DUP2 SLOAD DUP2 PUSH20 0xFFFFFFFFFFFFFFFFFFFFFFFFFFFFFFFFFFFFFFFF MUL NOT AND SWAP1 DUP4 PUSH20 0xFFFFFFFFFFFFFFFFFFFFFFFFFFFFFFFFFFFFFFFF AND MUL OR SWAP1 SSTORE POP DUP5 PUSH1 0x1 DUP1 ADD PUSH0 PUSH2 0x100 EXP DUP2 SLOAD DUP2 PUSH20 0xFFFFFFFFFFFFFFFFFFFFFFFFFFFFFFFFFFFFFFFF MUL NOT AND SWAP1 DUP4 PUSH20 0xFFFFFFFFFFFFFFFFFFFFFFFFFFFFFFFFFFFFFFFF AND MUL OR SWAP1 SSTORE POP DUP4 PUSH1 0x1 PUSH1 0x3 ADD DUP2 SWAP1 SSTORE POP DUP3 PUSH2 0xA7E PUSH0 DUP1 PUSH20 0xFFFFFFFFFFFFFFFFFFFFFFFFFFFFFFFFFFFFFFFF AND PUSH20 0xFFFFFFFFFFFFFFFFFFFFFFFFFFFFFFFFFFFFFFFF AND DUP2 MSTORE PUSH1 0x20 ADD SWAP1 DUP2 MSTORE PUSH1 0x20 ADD PUSH0 KECCAK256 SWAP1 PUSH2 0x4B1 PUSH2 0x1477 SWAP3 SWAP2 SWAP1 PUSH2 0x2B20 JUMP JUMPDEST POP DUP7 DUP9 PUSH2 0xFFFF AND PUSH32 0x7F5DA92C8CF80F4A196E12BA4E13ABC4FD2645F0248AD338EBD76EBB41898281 DUP9 DUP9 DUP9 PUSH1 0x40 MLOAD PUSH2 0x14B1 SWAP4 SWAP3 SWAP2 SWAP1 PUSH2 0x3EA8 JUMP JUMPDEST PUSH1 0x40 MLOAD DUP1 SWAP2 SUB SWAP1 LOG3 POP POP POP POP POP POP POP POP JUMP JUMPDEST PUSH0 PUSH2 0x14CD DUP3 PUSH2 0x255E JUMP JUMPDEST SWAP1 POP SWAP2 SWAP1 POP JUMP JUMPDEST PUSH0 PUSH2 0x14DE DUP3 PUSH2 0x255E JUMP JUMPDEST POP PUSH2 0xA7F PUSH0 DUP4 PUSH2 0xFFFF AND PUSH2 0xFFFF AND DUP2 MSTORE PUSH1 0x20 ADD SWAP1 DUP2 MSTORE PUSH1 0x20 ADD PUSH0 KECCAK256 PUSH0 SWAP1 SLOAD SWAP1 PUSH2 0x100 EXP SWAP1 DIV PUSH20 0xFFFFFFFFFFFFFFFFFFFFFFFFFFFFFFFFFFFFFFFF AND SWAP1 POP SWAP2 SWAP1 POP JUMP JUMPDEST PUSH0 DUP1 PUSH1 0x14 SWAP1 SLOAD SWAP1 PUSH2 0x100 EXP SWAP1 DIV PUSH1 0xB0 SHL SWAP1 POP SWAP1 JUMP JUMPDEST DUP2 PUSH20 0xFFFFFFFFFFFFFFFFFFFFFFFFFFFFFFFFFFFFFFFF AND PUSH2 0x1554 PUSH2 0x1DD9 JUMP JUMPDEST PUSH20 0xFFFFFFFFFFFFFFFFFFFFFFFFFFFFFFFFFFFFFFFF AND SUB PUSH2 0x15AA JUMPI PUSH1 0x40 MLOAD PUSH32 0x8C379A000000000000000000000000000000000000000000000000000000000 DUP2 MSTORE PUSH1 0x4 ADD PUSH2 0x15A1 SWAP1 PUSH2 0x3F4D JUMP JUMPDEST PUSH1 0x40 MLOAD DUP1 SWAP2 SUB SWAP1 REVERT JUMPDEST PUSH0 PUSH20 0xFFFFFFFFFFFFFFFFFFFFFFFFFFFFFFFFFFFFFFFF AND DUP3 PUSH20 0xFFFFFFFFFFFFFFFFFFFFFFFFFFFFFFFFFFFFFFFF AND SUB PUSH2 0x161A JUMPI DUP2 PUSH1 0x40 MLOAD PUSH32 0x5B08BA1800000000000000000000000000000000000000000000000000000000 DUP2 MSTORE PUSH1 0x4 ADD PUSH2 0x1611 SWAP2 SWAP1 PUSH2 0x3124 JUMP JUMPDEST PUSH1 0x40 MLOAD DUP1 SWAP2 SUB SWAP1 REVERT JUMPDEST DUP1 PUSH2 0xA80 PUSH0 PUSH2 0x1627 PUSH2 0x1DD9 JUMP JUMPDEST PUSH20 0xFFFFFFFFFFFFFFFFFFFFFFFFFFFFFFFFFFFFFFFF AND PUSH20 0xFFFFFFFFFFFFFFFFFFFFFFFFFFFFFFFFFFFFFFFF AND DUP2 MSTORE PUSH1 0x20 ADD SWAP1 DUP2 MSTORE PUSH1 0x20 ADD PUSH0 KECCAK256 PUSH0 DUP5 PUSH20 0xFFFFFFFFFFFFFFFFFFFFFFFFFFFFFFFFFFFFFFFF AND PUSH20 0xFFFFFFFFFFFFFFFFFFFFFFFFFFFFFFFFFFFFFFFF AND DUP2 MSTORE PUSH1 0x20 ADD SWAP1 DUP2 MSTORE PUSH1 0x20 ADD PUSH0 KECCAK256 PUSH0 PUSH2 0x100 EXP DUP2 SLOAD DUP2 PUSH1 0xFF MUL NOT AND SWAP1 DUP4 ISZERO ISZERO MUL OR SWAP1 SSTORE POP DUP2 PUSH20 0xFFFFFFFFFFFFFFFFFFFFFFFFFFFFFFFFFFFFFFFF AND PUSH2 0x16D0 PUSH2 0x1DD9 JUMP JUMPDEST PUSH20 0xFFFFFFFFFFFFFFFFFFFFFFFFFFFFFFFFFFFFFFFF AND PUSH32 0x17307EAB39AB6107E8899845AD3D59BD9653F200F220920489CA2B5937696C31 DUP4 PUSH1 0x40 MLOAD PUSH2 0x1715 SWAP2 SWAP1 PUSH2 0x2FF6 JUMP JUMPDEST PUSH1 0x40 MLOAD DUP1 SWAP2 SUB SWAP1 LOG3 POP POP JUMP JUMPDEST PUSH2 0x172C DUP5 DUP5 DUP5 PUSH2 0xC6B JUMP JUMPDEST PUSH2 0x1738 DUP5 DUP5 DUP5 DUP5 PUSH2 0x273D JUMP JUMPDEST POP POP POP POP JUMP JUMPDEST PUSH0 SWAP6 SWAP5 POP POP POP POP POP JUMP JUMPDEST PUSH1 0x60 PUSH1 0x1 PUSH0 ADD PUSH0 SWAP1 SLOAD SWAP1 PUSH2 0x100 EXP SWAP1 DIV PUSH2 0xFFFF AND PUSH2 0xFFFF AND PUSH1 0x1 PUSH0 ADD PUSH1 0x4 SWAP1 SLOAD SWAP1 PUSH2 0x100 EXP SWAP1 DIV PUSH2 0xFFFF AND PUSH2 0xFFFF AND GT ISZERO DUP1 ISZERO PUSH2 0x178A JUMPI POP TIMESTAMP PUSH1 0x1 PUSH1 0x2 ADD SLOAD GT ISZERO JUMPDEST PUSH2 0x17C9 JUMPI PUSH1 0x40 MLOAD PUSH32 0x8C379A000000000000000000000000000000000000000000000000000000000 DUP2 MSTORE PUSH1 0x4 ADD PUSH2 0x17C0 SWAP1 PUSH2 0x3FDB JUMP JUMPDEST PUSH1 0x40 MLOAD DUP1 SWAP2 SUB SWAP1 REVERT JUMPDEST PUSH0 PUSH20 0xFFFFFFFFFFFFFFFFFFFFFFFFFFFFFFFFFFFFFFFF AND PUSH2 0x17E8 PUSH2 0x1DD9 JUMP JUMPDEST PUSH20 0xFFFFFFFFFFFFFFFFFFFFFFFFFFFFFFFFFFFFFFFF AND EQ ISZERO DUP1 ISZERO PUSH2 0x1829 JUMPI POP PUSH0 PUSH2 0x1810 PUSH2 0x1DD9 JUMP JUMPDEST PUSH20 0xFFFFFFFFFFFFFFFFFFFFFFFFFFFFFFFFFFFFFFFF AND EXTCODESIZE EQ JUMPDEST PUSH2 0x1868 JUMPI PUSH1 0x40 MLOAD PUSH32 0x8C379A000000000000000000000000000000000000000000000000000000000 DUP2 MSTORE PUSH1 0x4 ADD PUSH2 0x185F SWAP1 PUSH2 0x408F JUMP JUMPDEST PUSH1 0x40 MLOAD DUP1 SWAP2 SUB SWAP1 REVERT JUMPDEST PUSH1 0x1 PUSH1 0x3 ADD SLOAD CALLVALUE LT ISZERO PUSH2 0x18B0 JUMPI PUSH1 0x40 MLOAD PUSH32 0x8C379A000000000000000000000000000000000000000000000000000000000 DUP2 MSTORE PUSH1 0x4 ADD PUSH2 0x18A7 SWAP1 PUSH2 0x411D JUMP JUMPDEST PUSH1 0x40 MLOAD DUP1 SWAP2 SUB SWAP1 REVERT JUMPDEST PUSH0 DUP1 PUSH1 0x1 DUP1 ADD PUSH0 SWAP1 SLOAD SWAP1 PUSH2 0x100 EXP SWAP1 DIV PUSH20 0xFFFFFFFFFFFFFFFFFFFFFFFFFFFFFFFFFFFFFFFF AND PUSH20 0xFFFFFFFFFFFFFFFFFFFFFFFFFFFFFFFFFFFFFFFF AND CALLVALUE PUSH1 0x40 MLOAD PUSH2 0x18F9 SWAP1 PUSH2 0x415E JUMP JUMPDEST PUSH0 PUSH1 0x40 MLOAD DUP1 DUP4 SUB DUP2 DUP6 DUP8 GAS CALL SWAP3 POP POP POP RETURNDATASIZE DUP1 PUSH0 DUP2 EQ PUSH2 0x1933 JUMPI PUSH1 0x40 MLOAD SWAP2 POP PUSH1 0x1F NOT PUSH1 0x3F RETURNDATASIZE ADD AND DUP3 ADD PUSH1 0x40 MSTORE RETURNDATASIZE DUP3 MSTORE RETURNDATASIZE PUSH0 PUSH1 0x20 DUP5 ADD RETURNDATACOPY PUSH2 0x1938 JUMP JUMPDEST PUSH1 0x60 SWAP2 POP JUMPDEST POP SWAP2 POP SWAP2 POP DUP2 PUSH2 0x197D JUMPI PUSH1 0x40 MLOAD PUSH32 0x8C379A000000000000000000000000000000000000000000000000000000000 DUP2 MSTORE PUSH1 0x4 ADD PUSH2 0x1974 SWAP1 PUSH2 0x41BC JUMP JUMPDEST PUSH1 0x40 MLOAD DUP1 SWAP2 SUB SWAP1 REVERT JUMPDEST PUSH1 0x1 PUSH0 ADD PUSH1 0x4 DUP2 DUP2 SWAP1 SLOAD SWAP1 PUSH2 0x100 EXP SWAP1 DIV PUSH2 0xFFFF AND PUSH2 0x199B SWAP1 PUSH2 0x374E JUMP JUMPDEST SWAP2 SWAP1 PUSH2 0x100 EXP DUP2 SLOAD DUP2 PUSH2 0xFFFF MUL NOT AND SWAP1 DUP4 PUSH2 0xFFFF AND MUL OR SWAP1 SSTORE POP DUP4 PUSH1 0x1 PUSH1 0x4 ADD PUSH1 0x1 PUSH0 ADD PUSH1 0x4 SWAP1 SLOAD SWAP1 PUSH2 0x100 EXP SWAP1 DIV PUSH2 0xFFFF AND PUSH2 0xFFFF AND PUSH2 0x4B1 DUP2 LT PUSH2 0x19E4 JUMPI PUSH2 0x19E3 PUSH2 0x3777 JUMP JUMPDEST JUMPDEST PUSH1 0x5 SWAP2 DUP3 DUP3 DIV ADD SWAP2 SWAP1 MOD PUSH1 0x6 MUL PUSH2 0x100 EXP DUP2 SLOAD DUP2 PUSH6 0xFFFFFFFFFFFF MUL NOT AND SWAP1 DUP4 PUSH6 0xFFFFFFFFFFFF AND MUL OR SWAP1 SSTORE POP DUP4 PUSH1 0x1 PUSH1 0x4 ADD PUSH0 PUSH2 0x4B1 DUP2 LT PUSH2 0x1A2A JUMPI PUSH2 0x1A29 PUSH2 0x3777 JUMP JUMPDEST JUMPDEST PUSH1 0x5 SWAP2 DUP3 DUP3 DIV ADD SWAP2 SWAP1 MOD PUSH1 0x6 MUL DUP3 DUP3 DUP3 SWAP1 SLOAD SWAP1 PUSH2 0x100 EXP SWAP1 DIV PUSH6 0xFFFFFFFFFFFF AND PUSH2 0x1A55 SWAP2 SWAP1 PUSH2 0x3834 JUMP JUMPDEST SWAP3 POP PUSH2 0x100 EXP DUP2 SLOAD DUP2 PUSH6 0xFFFFFFFFFFFF MUL NOT AND SWAP1 DUP4 PUSH6 0xFFFFFFFFFFFF AND MUL OR SWAP1 SSTORE POP PUSH2 0x1A7F PUSH2 0x1DD9 JUMP JUMPDEST PUSH1 0x1 PUSH1 0xF5 ADD PUSH1 0x1 PUSH0 ADD PUSH1 0x4 SWAP1 SLOAD SWAP1 PUSH2 0x100 EXP SWAP1 DIV PUSH2 0xFFFF AND PUSH2 0xFFFF AND PUSH2 0x4B1 DUP2 LT PUSH2 0x1AAD JUMPI PUSH2 0x1AAC PUSH2 0x3777 JUMP JUMPDEST JUMPDEST ADD PUSH0 PUSH2 0x100 EXP DUP2 SLOAD DUP2 PUSH20 0xFFFFFFFFFFFFFFFFFFFFFFFFFFFFFFFFFFFFFFFF MUL NOT AND SWAP1 DUP4 PUSH20 0xFFFFFFFFFFFFFFFFFFFFFFFFFFFFFFFFFFFFFFFF AND MUL OR SWAP1 SSTORE POP DUP1 SWAP3 POP POP POP SWAP2 SWAP1 POP JUMP JUMPDEST PUSH1 0x60 PUSH2 0x1B00 DUP3 PUSH2 0x255E JUMP JUMPDEST POP PUSH0 PUSH2 0x1B0A PUSH2 0x28EF JUMP JUMPDEST SWAP1 POP PUSH0 DUP2 MLOAD GT PUSH2 0x1B28 JUMPI PUSH1 0x40 MLOAD DUP1 PUSH1 0x20 ADD PUSH1 0x40 MSTORE DUP1 PUSH0 DUP2 MSTORE POP PUSH2 0x1B57 JUMP JUMPDEST DUP1 PUSH2 0x1B36 DUP5 PUSH2 0xFFFF AND PUSH2 0x2905 JUMP JUMPDEST PUSH1 0x40 MLOAD PUSH1 0x20 ADD PUSH2 0x1B47 SWAP3 SWAP2 SWAP1 PUSH2 0x4214 JUMP JUMPDEST PUSH1 0x40 MLOAD PUSH1 0x20 DUP2 DUP4 SUB SUB DUP2 MSTORE SWAP1 PUSH1 0x40 MSTORE JUMPDEST SWAP2 POP POP SWAP2 SWAP1 POP JUMP JUMPDEST PUSH0 PUSH2 0x1B69 DUP3 PUSH2 0x255E JUMP JUMPDEST SWAP1 POP DUP3 PUSH20 0xFFFFFFFFFFFFFFFFFFFFFFFFFFFFFFFFFFFFFFFF AND DUP2 PUSH20 0xFFFFFFFFFFFFFFFFFFFFFFFFFFFFFFFFFFFFFFFF AND SUB PUSH2 0x1BD9 JUMPI PUSH1 0x40 MLOAD PUSH32 0x8C379A000000000000000000000000000000000000000000000000000000000 DUP2 MSTORE PUSH1 0x4 ADD PUSH2 0x1BD0 SWAP1 PUSH2 0x3F4D JUMP JUMPDEST PUSH1 0x40 MLOAD DUP1 SWAP2 SUB SWAP1 REVERT JUMPDEST PUSH2 0x1BE1 PUSH2 0x1DD9 JUMP JUMPDEST PUSH20 0xFFFFFFFFFFFFFFFFFFFFFFFFFFFFFFFFFFFFFFFF AND DUP2 PUSH20 0xFFFFFFFFFFFFFFFFFFFFFFFFFFFFFFFFFFFFFFFF AND EQ ISZERO DUP1 ISZERO PUSH2 0x1C2A JUMPI POP PUSH2 0x1C28 DUP2 PUSH2 0x1C23 PUSH2 0x1DD9 JUMP JUMPDEST PUSH2 0x1C83 JUMP JUMPDEST ISZERO JUMPDEST ISZERO PUSH2 0x1C73 JUMPI PUSH2 0x1C37 PUSH2 0x1DD9 JUMP JUMPDEST PUSH1 0x40 MLOAD PUSH32 0xA9FBF51F00000000000000000000000000000000000000000000000000000000 DUP2 MSTORE PUSH1 0x4 ADD PUSH2 0x1C6A SWAP2 SWAP1 PUSH2 0x3124 JUMP JUMPDEST PUSH1 0x40 MLOAD DUP1 SWAP2 SUB SWAP1 REVERT JUMPDEST PUSH2 0x1C7E DUP4 DUP4 DUP4 PUSH2 0x2681 JUMP JUMPDEST POP POP POP JUMP JUMPDEST PUSH0 PUSH2 0xA80 PUSH0 DUP5 PUSH20 0xFFFFFFFFFFFFFFFFFFFFFFFFFFFFFFFFFFFFFFFF AND PUSH20 0xFFFFFFFFFFFFFFFFFFFFFFFFFFFFFFFFFFFFFFFF AND DUP2 MSTORE PUSH1 0x20 ADD SWAP1 DUP2 MSTORE PUSH1 0x20 ADD PUSH0 KECCAK256 PUSH0 DUP4 PUSH20 0xFFFFFFFFFFFFFFFFFFFFFFFFFFFFFFFFFFFFFFFF AND PUSH20 0xFFFFFFFFFFFFFFFFFFFFFFFFFFFFFFFFFFFFFFFF AND DUP2 MSTORE PUSH1 0x20 ADD SWAP1 DUP2 MSTORE PUSH1 0x20 ADD PUSH0 KECCAK256 PUSH0 SWAP1 SLOAD SWAP1 PUSH2 0x100 EXP SWAP1 DIV PUSH1 0xFF AND SWAP1 POP SWAP3 SWAP2 POP POP JUMP JUMPDEST PUSH0 DUP1 PUSH2 0x1D1D DUP5 PUSH2 0x255E JUMP JUMPDEST SWAP1 POP PUSH0 DUP1 DUP3 PUSH20 0xFFFFFFFFFFFFFFFFFFFFFFFFFFFFFFFFFFFFFFFF AND PUSH2 0x1D40 PUSH2 0x1DD9 JUMP JUMPDEST PUSH20 0xFFFFFFFFFFFFFFFFFFFFFFFFFFFFFFFFFFFFFFFF AND SUB PUSH2 0x1D63 JUMPI DUP5 SWAP2 POP PUSH2 0x1DC5 JUMP JUMPDEST PUSH2 0x1D73 PUSH2 0x1D6E PUSH2 0x1DD9 JUMP JUMPDEST PUSH2 0xC65 JUMP JUMPDEST ISZERO PUSH2 0x1D80 JUMPI DUP5 SWAP1 POP PUSH2 0x1DC4 JUMP JUMPDEST PUSH2 0x1D88 PUSH2 0x1DD9 JUMP JUMPDEST PUSH1 0x40 MLOAD PUSH32 0xF7A3F9F300000000000000000000000000000000000000000000000000000000 DUP2 MSTORE PUSH1 0x4 ADD PUSH2 0x1DBB SWAP2 SWAP1 PUSH2 0x3124 JUMP JUMPDEST PUSH1 0x40 MLOAD DUP1 SWAP2 SUB SWAP1 REVERT JUMPDEST JUMPDEST DUP1 DUP1 PUSH2 0x1DCE JUMPI POP DUP2 JUMPDEST SWAP4 POP POP POP POP SWAP3 SWAP2 POP POP JUMP JUMPDEST PUSH0 CALLER SWAP1 POP SWAP1 JUMP JUMPDEST PUSH0 PUSH2 0xA7E PUSH0 DUP4 PUSH20 0xFFFFFFFFFFFFFFFFFFFFFFFFFFFFFFFFFFFFFFFF AND PUSH20 0xFFFFFFFFFFFFFFFFFFFFFFFFFFFFFFFFFFFFFFFF AND DUP2 MSTORE PUSH1 0x20 ADD SWAP1 DUP2 MSTORE PUSH1 0x20 ADD PUSH0 KECCAK256 PUSH0 PUSH2 0x4B1 DUP2 LT PUSH2 0x1E32 JUMPI PUSH2 0x1E31 PUSH2 0x3777 JUMP JUMPDEST JUMPDEST PUSH1 0x10 SWAP2 DUP3 DUP3 DIV ADD SWAP2 SWAP1 MOD PUSH1 0x2 MUL SWAP1 SLOAD SWAP1 PUSH2 0x100 EXP SWAP1 DIV PUSH2 0xFFFF AND SWAP1 POP PUSH0 PUSH20 0xFFFFFFFFFFFFFFFFFFFFFFFFFFFFFFFFFFFFFFFF AND DUP3 PUSH20 0xFFFFFFFFFFFFFFFFFFFFFFFFFFFFFFFFFFFFFFFF AND EQ PUSH2 0x201A JUMPI PUSH0 PUSH1 0x1 SWAP1 POP JUMPDEST DUP2 PUSH2 0xFFFF AND DUP2 PUSH2 0xFFFF AND GT PUSH2 0x2014 JUMPI DUP4 PUSH2 0xFFFF AND PUSH2 0xA7E PUSH0 DUP6 PUSH20 0xFFFFFFFFFFFFFFFFFFFFFFFFFFFFFFFFFFFFFFFF AND PUSH20 0xFFFFFFFFFFFFFFFFFFFFFFFFFFFFFFFFFFFFFFFF AND DUP2 MSTORE PUSH1 0x20 ADD SWAP1 DUP2 MSTORE PUSH1 0x20 ADD PUSH0 KECCAK256 DUP3 PUSH2 0xFFFF AND PUSH2 0x4B1 DUP2 LT PUSH2 0x1EF0 JUMPI PUSH2 0x1EEF PUSH2 0x3777 JUMP JUMPDEST JUMPDEST PUSH1 0x10 SWAP2 DUP3 DUP3 DIV ADD SWAP2 SWAP1 MOD PUSH1 0x2 MUL SWAP1 SLOAD SWAP1 PUSH2 0x100 EXP SWAP1 DIV PUSH2 0xFFFF AND PUSH2 0xFFFF AND SUB PUSH2 0x2001 JUMPI PUSH2 0xA7E PUSH0 DUP5 PUSH20 0xFFFFFFFFFFFFFFFFFFFFFFFFFFFFFFFFFFFFFFFF AND PUSH20 0xFFFFFFFFFFFFFFFFFFFFFFFFFFFFFFFFFFFFFFFF AND DUP2 MSTORE PUSH1 0x20 ADD SWAP1 DUP2 MSTORE PUSH1 0x20 ADD PUSH0 KECCAK256 DUP3 PUSH2 0xFFFF AND PUSH2 0x4B1 DUP2 LT PUSH2 0x1F68 JUMPI PUSH2 0x1F67 PUSH2 0x3777 JUMP JUMPDEST JUMPDEST PUSH1 0x10 SWAP2 DUP3 DUP3 DIV ADD SWAP2 SWAP1 MOD PUSH1 0x2 MUL SWAP1 SLOAD SWAP1 PUSH2 0x100 EXP SWAP1 DIV PUSH2 0xFFFF AND PUSH2 0xA7E PUSH0 DUP6 PUSH20 0xFFFFFFFFFFFFFFFFFFFFFFFFFFFFFFFFFFFFFFFF AND PUSH20 0xFFFFFFFFFFFFFFFFFFFFFFFFFFFFFFFFFFFFFFFF AND DUP2 MSTORE PUSH1 0x20 ADD SWAP1 DUP2 MSTORE PUSH1 0x20 ADD PUSH0 KECCAK256 DUP3 PUSH2 0xFFFF AND PUSH2 0x4B1 DUP2 LT PUSH2 0x1FD7 JUMPI PUSH2 0x1FD6 PUSH2 0x3777 JUMP JUMPDEST JUMPDEST PUSH1 0x10 SWAP2 DUP3 DUP3 DIV ADD SWAP2 SWAP1 MOD PUSH1 0x2 MUL PUSH2 0x100 EXP DUP2 SLOAD DUP2 PUSH2 0xFFFF MUL NOT AND SWAP1 DUP4 PUSH2 0xFFFF AND MUL OR SWAP1 SSTORE POP PUSH2 0x2014 JUMP JUMPDEST DUP1 DUP1 PUSH2 0x200C SWAP1 PUSH2 0x374E JUMP JUMPDEST SWAP2 POP POP PUSH2 0x1E87 JUMP JUMPDEST POP PUSH2 0x2224 JUMP JUMPDEST PUSH0 DUP4 SWAP1 POP PUSH2 0xA7E PUSH0 DUP5 PUSH20 0xFFFFFFFFFFFFFFFFFFFFFFFFFFFFFFFFFFFFFFFF AND PUSH20 0xFFFFFFFFFFFFFFFFFFFFFFFFFFFFFFFFFFFFFFFF AND DUP2 MSTORE PUSH1 0x20 ADD SWAP1 DUP2 MSTORE PUSH1 0x20 ADD PUSH0 KECCAK256 DUP2 PUSH2 0xFFFF AND PUSH2 0x4B1 DUP2 LT PUSH2 0x2073 JUMPI PUSH2 0x2072 PUSH2 0x3777 JUMP JUMPDEST JUMPDEST PUSH1 0x10 SWAP2 DUP3 DUP3 DIV ADD SWAP2 SWAP1 MOD PUSH1 0x2 MUL SWAP1 SLOAD SWAP1 PUSH2 0x100 EXP SWAP1 DIV PUSH2 0xFFFF AND SWAP4 POP PUSH0 PUSH20 0xFFFFFFFFFFFFFFFFFFFFFFFFFFFFFFFFFFFFFFFF AND PUSH2 0x5A7 DUP6 PUSH2 0xFFFF AND PUSH2 0x4B1 DUP2 LT PUSH2 0x20C0 JUMPI PUSH2 0x20BF PUSH2 0x3777 JUMP JUMPDEST JUMPDEST ADD PUSH0 SWAP1 SLOAD SWAP1 PUSH2 0x100 EXP SWAP1 DIV PUSH20 0xFFFFFFFFFFFFFFFFFFFFFFFFFFFFFFFFFFFFFFFF AND PUSH20 0xFFFFFFFFFFFFFFFFFFFFFFFFFFFFFFFFFFFFFFFF AND EQ PUSH2 0x2139 JUMPI DUP1 PUSH1 0x40 MLOAD PUSH32 0x71E52B9C00000000000000000000000000000000000000000000000000000000 DUP2 MSTORE PUSH1 0x4 ADD PUSH2 0x2130 SWAP2 SWAP1 PUSH2 0x301E JUMP JUMPDEST PUSH1 0x40 MLOAD DUP1 SWAP2 SUB SWAP1 REVERT JUMPDEST PUSH2 0xA7E PUSH0 DUP5 PUSH20 0xFFFFFFFFFFFFFFFFFFFFFFFFFFFFFFFFFFFFFFFF AND PUSH20 0xFFFFFFFFFFFFFFFFFFFFFFFFFFFFFFFFFFFFFFFF AND DUP2 MSTORE PUSH1 0x20 ADD SWAP1 DUP2 MSTORE PUSH1 0x20 ADD PUSH0 KECCAK256 DUP3 PUSH2 0xFFFF AND PUSH2 0x4B1 DUP2 LT PUSH2 0x218E JUMPI PUSH2 0x218D PUSH2 0x3777 JUMP JUMPDEST JUMPDEST PUSH1 0x10 SWAP2 DUP3 DUP3 DIV ADD SWAP2 SWAP1 MOD PUSH1 0x2 MUL SWAP1 SLOAD SWAP1 PUSH2 0x100 EXP SWAP1 DIV PUSH2 0xFFFF AND PUSH2 0xA7E PUSH0 DUP6 PUSH20 0xFFFFFFFFFFFFFFFFFFFFFFFFFFFFFFFFFFFFFFFF AND PUSH20 0xFFFFFFFFFFFFFFFFFFFFFFFFFFFFFFFFFFFFFFFF AND DUP2 MSTORE PUSH1 0x20 ADD SWAP1 DUP2 MSTORE PUSH1 0x20 ADD PUSH0 KECCAK256 DUP3 PUSH2 0xFFFF AND PUSH2 0x4B1 DUP2 LT PUSH2 0x21FD JUMPI PUSH2 0x21FC PUSH2 0x3777 JUMP JUMPDEST JUMPDEST PUSH1 0x10 SWAP2 DUP3 DUP3 DIV ADD SWAP2 SWAP1 MOD PUSH1 0x2 MUL PUSH2 0x100 EXP DUP2 SLOAD DUP2 PUSH2 0xFFFF MUL NOT AND SWAP1 DUP4 PUSH2 0xFFFF AND MUL OR SWAP1 SSTORE POP POP JUMPDEST PUSH0 PUSH2 0xA7E PUSH0 DUP5 PUSH20 0xFFFFFFFFFFFFFFFFFFFFFFFFFFFFFFFFFFFFFFFF AND PUSH20 0xFFFFFFFFFFFFFFFFFFFFFFFFFFFFFFFFFFFFFFFF AND DUP2 MSTORE PUSH1 0x20 ADD SWAP1 DUP2 MSTORE PUSH1 0x20 ADD PUSH0 KECCAK256 DUP3 PUSH2 0xFFFF AND PUSH2 0x4B1 DUP2 LT PUSH2 0x227A JUMPI PUSH2 0x2279 PUSH2 0x3777 JUMP JUMPDEST JUMPDEST PUSH1 0x10 SWAP2 DUP3 DUP3 DIV ADD SWAP2 SWAP1 MOD PUSH1 0x2 MUL PUSH2 0x100 EXP DUP2 SLOAD DUP2 PUSH2 0xFFFF MUL NOT AND SWAP1 DUP4 PUSH2 0xFFFF AND MUL OR SWAP1 SSTORE POP PUSH1 0x1 PUSH2 0xA7E PUSH0 DUP5 PUSH20 0xFFFFFFFFFFFFFFFFFFFFFFFFFFFFFFFFFFFFFFFF AND PUSH20 0xFFFFFFFFFFFFFFFFFFFFFFFFFFFFFFFFFFFFFFFF AND DUP2 MSTORE PUSH1 0x20 ADD SWAP1 DUP2 MSTORE PUSH1 0x20 ADD PUSH0 KECCAK256 PUSH0 PUSH2 0x4B1 DUP2 LT PUSH2 0x22F2 JUMPI PUSH2 0x22F1 PUSH2 0x3777 JUMP JUMPDEST JUMPDEST PUSH1 0x10 SWAP2 DUP3 DUP3 DIV ADD SWAP2 SWAP1 MOD PUSH1 0x2 MUL DUP3 DUP3 DUP3 SWAP1 SLOAD SWAP1 PUSH2 0x100 EXP SWAP1 DIV PUSH2 0xFFFF AND PUSH2 0x2319 SWAP2 SWAP1 PUSH2 0x3719 JUMP JUMPDEST SWAP3 POP PUSH2 0x100 EXP DUP2 SLOAD DUP2 PUSH2 0xFFFF MUL NOT AND SWAP1 DUP4 PUSH2 0xFFFF AND MUL OR SWAP1 SSTORE POP PUSH0 PUSH1 0x1 PUSH2 0xA7E PUSH0 DUP8 PUSH20 0xFFFFFFFFFFFFFFFFFFFFFFFFFFFFFFFFFFFFFFFF AND PUSH20 0xFFFFFFFFFFFFFFFFFFFFFFFFFFFFFFFFFFFFFFFF AND DUP2 MSTORE PUSH1 0x20 ADD SWAP1 DUP2 MSTORE PUSH1 0x20 ADD PUSH0 KECCAK256 PUSH0 PUSH2 0x4B1 DUP2 LT PUSH2 0x2387 JUMPI PUSH2 0x2386 PUSH2 0x3777 JUMP JUMPDEST JUMPDEST PUSH1 0x10 SWAP2 DUP3 DUP3 DIV ADD SWAP2 SWAP1 MOD PUSH1 0x2 MUL SWAP1 SLOAD SWAP1 PUSH2 0x100 EXP SWAP1 DIV PUSH2 0xFFFF AND PUSH2 0x23AB SWAP2 SWAP1 PUSH2 0x386D JUMP JUMPDEST SWAP1 POP DUP4 PUSH2 0xA7E PUSH0 DUP8 PUSH20 0xFFFFFFFFFFFFFFFFFFFFFFFFFFFFFFFFFFFFFFFF AND PUSH20 0xFFFFFFFFFFFFFFFFFFFFFFFFFFFFFFFFFFFFFFFF AND DUP2 MSTORE PUSH1 0x20 ADD SWAP1 DUP2 MSTORE PUSH1 0x20 ADD PUSH0 KECCAK256 DUP3 PUSH2 0xFFFF AND PUSH2 0x4B1 DUP2 LT PUSH2 0x2403 JUMPI PUSH2 0x2402 PUSH2 0x3777 JUMP JUMPDEST JUMPDEST PUSH1 0x10 SWAP2 DUP3 DUP3 DIV ADD SWAP2 SWAP1 MOD PUSH1 0x2 MUL PUSH2 0x100 EXP DUP2 SLOAD DUP2 PUSH2 0xFFFF MUL NOT AND SWAP1 DUP4 PUSH2 0xFFFF AND MUL OR SWAP1 SSTORE POP DUP1 PUSH2 0xA7E PUSH0 DUP8 PUSH20 0xFFFFFFFFFFFFFFFFFFFFFFFFFFFFFFFFFFFFFFFF AND PUSH20 0xFFFFFFFFFFFFFFFFFFFFFFFFFFFFFFFFFFFFFFFF AND DUP2 MSTORE PUSH1 0x20 ADD SWAP1 DUP2 MSTORE PUSH1 0x20 ADD PUSH0 KECCAK256 PUSH0 PUSH2 0x4B1 DUP2 LT PUSH2 0x247A JUMPI PUSH2 0x2479 PUSH2 0x3777 JUMP JUMPDEST JUMPDEST PUSH1 0x10 SWAP2 DUP3 DUP3 DIV ADD SWAP2 SWAP1 MOD PUSH1 0x2 MUL PUSH2 0x100 EXP DUP2 SLOAD DUP2 PUSH2 0xFFFF MUL NOT AND SWAP1 DUP4 PUSH2 0xFFFF AND MUL OR SWAP1 SSTORE POP DUP5 PUSH2 0x5A7 DUP6 PUSH2 0xFFFF AND PUSH2 0x4B1 DUP2 LT PUSH2 0x24BA JUMPI PUSH2 0x24B9 PUSH2 0x3777 JUMP JUMPDEST JUMPDEST ADD PUSH0 PUSH2 0x100 EXP DUP2 SLOAD DUP2 PUSH20 0xFFFFFFFFFFFFFFFFFFFFFFFFFFFFFFFFFFFFFFFF MUL NOT AND SWAP1 DUP4 PUSH20 0xFFFFFFFFFFFFFFFFFFFFFFFFFFFFFFFFFFFFFFFF AND MUL OR SWAP1 SSTORE POP DUP4 PUSH2 0xFFFF AND DUP6 PUSH20 0xFFFFFFFFFFFFFFFFFFFFFFFFFFFFFFFFFFFFFFFF AND DUP5 PUSH20 0xFFFFFFFFFFFFFFFFFFFFFFFFFFFFFFFFFFFFFFFF AND PUSH32 0x89896EDBD223C9360CE42DDFED7522A2BFFB20C056E4C42D42370CB493B65676 PUSH1 0x40 MLOAD PUSH1 0x40 MLOAD DUP1 SWAP2 SUB SWAP1 LOG4 POP POP POP POP POP JUMP JUMPDEST PUSH0 DUP2 PUSH2 0xFFFF AND PUSH0 LT DUP1 ISZERO PUSH2 0x258B JUMPI POP PUSH1 0x1 PUSH0 ADD PUSH0 SWAP1 SLOAD SWAP1 PUSH2 0x100 EXP SWAP1 DIV PUSH2 0xFFFF AND PUSH2 0xFFFF AND DUP3 PUSH2 0xFFFF AND GT ISZERO JUMPDEST PUSH2 0x25CA JUMPI PUSH1 0x40 MLOAD PUSH32 0x8C379A000000000000000000000000000000000000000000000000000000000 DUP2 MSTORE PUSH1 0x4 ADD PUSH2 0x25C1 SWAP1 PUSH2 0x42CD JUMP JUMPDEST PUSH1 0x40 MLOAD DUP1 SWAP2 SUB SWAP1 REVERT JUMPDEST PUSH0 PUSH2 0x5A7 DUP4 PUSH2 0xFFFF AND PUSH2 0x4B1 DUP2 LT PUSH2 0x25E5 JUMPI PUSH2 0x25E4 PUSH2 0x3777 JUMP JUMPDEST JUMPDEST ADD PUSH0 SWAP1 SLOAD SWAP1 PUSH2 0x100 EXP SWAP1 DIV PUSH20 0xFFFFFFFFFFFFFFFFFFFFFFFFFFFFFFFFFFFFFFFF AND SWAP1 POP PUSH0 PUSH20 0xFFFFFFFFFFFFFFFFFFFFFFFFFFFFFFFFFFFFFFFF AND DUP2 PUSH20 0xFFFFFFFFFFFFFFFFFFFFFFFFFFFFFFFFFFFFFFFF AND SUB PUSH2 0x2678 JUMPI DUP3 PUSH1 0x40 MLOAD PUSH32 0x7E27328900000000000000000000000000000000000000000000000000000000 DUP2 MSTORE PUSH1 0x4 ADD PUSH2 0x266F SWAP2 SWAP1 PUSH2 0x42EB JUMP JUMPDEST PUSH1 0x40 MLOAD DUP1 SWAP2 SUB SWAP1 REVERT JUMPDEST DUP1 SWAP2 POP POP SWAP2 SWAP1 POP JUMP JUMPDEST DUP3 PUSH2 0xA7F PUSH0 DUP5 PUSH2 0xFFFF AND PUSH2 0xFFFF AND DUP2 MSTORE PUSH1 0x20 ADD SWAP1 DUP2 MSTORE PUSH1 0x20 ADD PUSH0 KECCAK256 PUSH0 PUSH2 0x100 EXP DUP2 SLOAD DUP2 PUSH20 0xFFFFFFFFFFFFFFFFFFFFFFFFFFFFFFFFFFFFFFFF MUL NOT AND SWAP1 DUP4 PUSH20 0xFFFFFFFFFFFFFFFFFFFFFFFFFFFFFFFFFFFFFFFF AND MUL OR SWAP1 SSTORE POP DUP2 PUSH2 0xFFFF AND DUP4 PUSH20 0xFFFFFFFFFFFFFFFFFFFFFFFFFFFFFFFFFFFFFFFF AND DUP3 PUSH20 0xFFFFFFFFFFFFFFFFFFFFFFFFFFFFFFFFFFFFFFFF AND PUSH32 0xA9D294FD4BD42BB30E96CBA2B478D149A783FBA3C729B1E5C42BEC89D95B85A PUSH1 0x40 MLOAD PUSH1 0x40 MLOAD DUP1 SWAP2 SUB SWAP1 LOG4 POP POP POP JUMP JUMPDEST PUSH0 DUP4 PUSH20 0xFFFFFFFFFFFFFFFFFFFFFFFFFFFFFFFFFFFFFFFF AND EXTCODESIZE GT ISZERO PUSH2 0x28E9 JUMPI DUP3 PUSH20 0xFFFFFFFFFFFFFFFFFFFFFFFFFFFFFFFFFFFFFFFF AND PUSH4 0xB1CFF380 PUSH2 0x2780 PUSH2 0x1DD9 JUMP JUMPDEST DUP7 DUP6 DUP6 PUSH1 0x40 MLOAD DUP6 PUSH4 0xFFFFFFFF AND PUSH1 0xE0 SHL DUP2 MSTORE PUSH1 0x4 ADD PUSH2 0x27A2 SWAP5 SWAP4 SWAP3 SWAP2 SWAP1 PUSH2 0x4304 JUMP JUMPDEST PUSH1 0x20 PUSH1 0x40 MLOAD DUP1 DUP4 SUB DUP2 PUSH0 DUP8 GAS CALL SWAP3 POP POP POP DUP1 ISZERO PUSH2 0x27DD JUMPI POP PUSH1 0x40 MLOAD RETURNDATASIZE PUSH1 0x1F NOT PUSH1 0x1F DUP3 ADD AND DUP3 ADD DUP1 PUSH1 0x40 MSTORE POP DUP2 ADD SWAP1 PUSH2 0x27DA SWAP2 SWAP1 PUSH2 0x4378 JUMP JUMPDEST PUSH1 0x1 JUMPDEST PUSH2 0x285E JUMPI RETURNDATASIZE DUP1 PUSH0 DUP2 EQ PUSH2 0x280B JUMPI PUSH1 0x40 MLOAD SWAP2 POP PUSH1 0x1F NOT PUSH1 0x3F RETURNDATASIZE ADD AND DUP3 ADD PUSH1 0x40 MSTORE RETURNDATASIZE DUP3 MSTORE RETURNDATASIZE PUSH0 PUSH1 0x20 DUP5 ADD RETURNDATACOPY PUSH2 0x2810 JUMP JUMPDEST PUSH1 0x60 SWAP2 POP JUMPDEST POP PUSH0 DUP2 MLOAD SUB PUSH2 0x2856 JUMPI DUP4 PUSH1 0x40 MLOAD PUSH32 0x64A0AE9200000000000000000000000000000000000000000000000000000000 DUP2 MSTORE PUSH1 0x4 ADD PUSH2 0x284D SWAP2 SWAP1 PUSH2 0x3124 JUMP JUMPDEST PUSH1 0x40 MLOAD DUP1 SWAP2 SUB SWAP1 REVERT JUMPDEST DUP1 MLOAD DUP2 PUSH1 0x20 ADD REVERT JUMPDEST PUSH4 0xB1CFF380 PUSH1 0xE0 SHL PUSH28 0xFFFFFFFFFFFFFFFFFFFFFFFFFFFFFFFFFFFFFFFFFFFFFFFFFFFFFFFF NOT AND DUP2 PUSH28 0xFFFFFFFFFFFFFFFFFFFFFFFFFFFFFFFFFFFFFFFFFFFFFFFFFFFFFFFF NOT AND EQ PUSH2 0x28E7 JUMPI DUP4 PUSH1 0x40 MLOAD PUSH32 0x64A0AE9200000000000000000000000000000000000000000000000000000000 DUP2 MSTORE PUSH1 0x4 ADD PUSH2 0x28DE SWAP2 SWAP1 PUSH2 0x3124 JUMP JUMPDEST PUSH1 0x40 MLOAD DUP1 SWAP2 SUB SWAP1 REVERT JUMPDEST POP JUMPDEST POP POP POP POP JUMP JUMPDEST PUSH1 0x60 PUSH1 0x40 MLOAD DUP1 PUSH1 0x20 ADD PUSH1 0x40 MSTORE DUP1 PUSH0 DUP2 MSTORE POP SWAP1 POP SWAP1 JUMP JUMPDEST PUSH1 0x60 PUSH0 PUSH1 0x1 PUSH2 0x2913 DUP5 PUSH2 0x29CF JUMP JUMPDEST ADD SWAP1 POP PUSH0 DUP2 PUSH8 0xFFFFFFFFFFFFFFFF DUP2 GT ISZERO PUSH2 0x2931 JUMPI PUSH2 0x2930 PUSH2 0x2D64 JUMP JUMPDEST JUMPDEST PUSH1 0x40 MLOAD SWAP1 DUP1 DUP3 MSTORE DUP1 PUSH1 0x1F ADD PUSH1 0x1F NOT AND PUSH1 0x20 ADD DUP3 ADD PUSH1 0x40 MSTORE DUP1 ISZERO PUSH2 0x2963 JUMPI DUP2 PUSH1 0x20 ADD PUSH1 0x1 DUP3 MUL DUP1 CALLDATASIZE DUP4 CALLDATACOPY DUP1 DUP3 ADD SWAP2 POP POP SWAP1 POP JUMPDEST POP SWAP1 POP PUSH0 DUP3 PUSH1 0x20 ADD DUP3 ADD SWAP1 POP JUMPDEST PUSH1 0x1 ISZERO PUSH2 0x29C4 JUMPI DUP1 DUP1 PUSH1 0x1 SWAP1 SUB SWAP2 POP POP PUSH32 0x3031323334353637383961626364656600000000000000000000000000000000 PUSH1 0xA DUP7 MOD BYTE DUP2 MSTORE8 PUSH1 0xA DUP6 DUP2 PUSH2 0x29B9 JUMPI PUSH2 0x29B8 PUSH2 0x37D7 JUMP JUMPDEST JUMPDEST DIV SWAP5 POP PUSH0 DUP6 SUB PUSH2 0x2970 JUMPI JUMPDEST DUP2 SWAP4 POP POP POP POP SWAP2 SWAP1 POP JUMP JUMPDEST PUSH0 DUP1 PUSH0 SWAP1 POP PUSH27 0x184F03E93FF9F4DAA797ED6E38ED64BF6A1F010000000000000000 DUP4 LT PUSH2 0x2A2B JUMPI PUSH27 0x184F03E93FF9F4DAA797ED6E38ED64BF6A1F010000000000000000 DUP4 DUP2 PUSH2 0x2A21 JUMPI PUSH2 0x2A20 PUSH2 0x37D7 JUMP JUMPDEST JUMPDEST DIV SWAP3 POP PUSH1 0x40 DUP2 ADD SWAP1 POP JUMPDEST PUSH14 0x4EE2D6D415B85ACEF8100000000 DUP4 LT PUSH2 0x2A68 JUMPI PUSH14 0x4EE2D6D415B85ACEF8100000000 DUP4 DUP2 PUSH2 0x2A5E JUMPI PUSH2 0x2A5D PUSH2 0x37D7 JUMP JUMPDEST JUMPDEST DIV SWAP3 POP PUSH1 0x20 DUP2 ADD SWAP1 POP JUMPDEST PUSH7 0x2386F26FC10000 DUP4 LT PUSH2 0x2A97 JUMPI PUSH7 0x2386F26FC10000 DUP4 DUP2 PUSH2 0x2A8D JUMPI PUSH2 0x2A8C PUSH2 0x37D7 JUMP JUMPDEST JUMPDEST DIV SWAP3 POP PUSH1 0x10 DUP2 ADD SWAP1 POP JUMPDEST PUSH4 0x5F5E100 DUP4 LT PUSH2 0x2AC0 JUMPI PUSH4 0x5F5E100 DUP4 DUP2 PUSH2 0x2AB6 JUMPI PUSH2 0x2AB5 PUSH2 0x37D7 JUMP JUMPDEST JUMPDEST DIV SWAP3 POP PUSH1 0x8 DUP2 ADD SWAP1 POP JUMPDEST PUSH2 0x2710 DUP4 LT PUSH2 0x2AE5 JUMPI PUSH2 0x2710 DUP4 DUP2 PUSH2 0x2ADB JUMPI PUSH2 0x2ADA PUSH2 0x37D7 JUMP JUMPDEST JUMPDEST DIV SWAP3 POP PUSH1 0x4 DUP2 ADD SWAP1 POP JUMPDEST PUSH1 0x64 DUP4 LT PUSH2 0x2B08 JUMPI PUSH1 0x64 DUP4 DUP2 PUSH2 0x2AFE JUMPI PUSH2 0x2AFD PUSH2 0x37D7 JUMP JUMPDEST JUMPDEST DIV SWAP3 POP PUSH1 0x2 DUP2 ADD SWAP1 POP JUMPDEST PUSH1 0xA DUP4 LT PUSH2 0x2B17 JUMPI PUSH1 0x1 DUP2 ADD SWAP1 POP JUMPDEST DUP1 SWAP2 POP POP SWAP2 SWAP1 POP JUMP JUMPDEST DUP3 PUSH2 0x4B1 PUSH1 0xF ADD PUSH1 0x10 SWAP1 DIV DUP2 ADD SWAP3 DUP3 ISZERO PUSH2 0x2BAC JUMPI SWAP2 PUSH1 0x20 MUL DUP3 ADD PUSH0 JUMPDEST DUP4 DUP3 GT ISZERO PUSH2 0x2B7C JUMPI DUP4 MLOAD DUP4 DUP3 PUSH2 0x100 EXP DUP2 SLOAD DUP2 PUSH2 0xFFFF MUL NOT AND SWAP1 DUP4 PUSH2 0xFFFF AND MUL OR SWAP1 SSTORE POP SWAP3 PUSH1 0x20 ADD SWAP3 PUSH1 0x2 ADD PUSH1 0x20 DUP2 PUSH1 0x1 ADD DIV SWAP3 DUP4 ADD SWAP3 PUSH1 0x1 SUB MUL PUSH2 0x2B3C JUMP JUMPDEST DUP1 ISZERO PUSH2 0x2BAA JUMPI DUP3 DUP2 PUSH2 0x100 EXP DUP2 SLOAD SWAP1 PUSH2 0xFFFF MUL NOT AND SWAP1 SSTORE PUSH1 0x2 ADD PUSH1 0x20 DUP2 PUSH1 0x1 ADD DIV SWAP3 DUP4 ADD SWAP3 PUSH1 0x1 SUB MUL PUSH2 0x2B7C JUMP JUMPDEST POP JUMPDEST POP SWAP1 POP PUSH2 0x2BB9 SWAP2 SWAP1 PUSH2 0x2BBD JUMP JUMPDEST POP SWAP1 JUMP JUMPDEST JUMPDEST DUP1 DUP3 GT ISZERO PUSH2 0x2BD4 JUMPI PUSH0 DUP2 PUSH0 SWAP1 SSTORE POP PUSH1 0x1 ADD PUSH2 0x2BBE JUMP JUMPDEST POP SWAP1 JUMP JUMPDEST PUSH0 PUSH32 0xFFFFFFFFFFFFFFFFFFFFFFFFFFFFFFFFFFFFFFFF000000000000000000000000 DUP3 AND SWAP1 POP SWAP2 SWAP1 POP JUMP JUMPDEST PUSH2 0x2C0C DUP2 PUSH2 0x2BD8 JUMP JUMPDEST DUP3 MSTORE POP POP JUMP JUMPDEST PUSH0 PUSH1 0x20 DUP3 ADD SWAP1 POP PUSH2 0x2C25 PUSH0 DUP4 ADD DUP5 PUSH2 0x2C03 JUMP JUMPDEST SWAP3 SWAP2 POP POP JUMP JUMPDEST PUSH0 PUSH1 0x40 MLOAD SWAP1 POP SWAP1 JUMP JUMPDEST PUSH0 DUP1 REVERT JUMPDEST PUSH0 DUP1 REVERT JUMPDEST PUSH0 PUSH20 0xFFFFFFFFFFFFFFFFFFFFFFFFFFFFFFFFFFFFFFFF DUP3 AND SWAP1 POP SWAP2 SWAP1 POP JUMP JUMPDEST PUSH0 PUSH2 0x2C65 DUP3 PUSH2 0x2C3C JUMP JUMPDEST SWAP1 POP SWAP2 SWAP1 POP JUMP JUMPDEST PUSH2 0x2C75 DUP2 PUSH2 0x2C5B JUMP JUMPDEST DUP2 EQ PUSH2 0x2C7F JUMPI PUSH0 DUP1 REVERT JUMPDEST POP JUMP JUMPDEST PUSH0 DUP2 CALLDATALOAD SWAP1 POP PUSH2 0x2C90 DUP2 PUSH2 0x2C6C JUMP JUMPDEST SWAP3 SWAP2 POP POP JUMP JUMPDEST PUSH0 PUSH2 0xFFFF DUP3 AND SWAP1 POP SWAP2 SWAP1 POP JUMP JUMPDEST PUSH2 0x2CAC DUP2 PUSH2 0x2C96 JUMP JUMPDEST DUP2 EQ PUSH2 0x2CB6 JUMPI PUSH0 DUP1 REVERT JUMPDEST POP JUMP JUMPDEST PUSH0 DUP2 CALLDATALOAD SWAP1 POP PUSH2 0x2CC7 DUP2 PUSH2 0x2CA3 JUMP JUMPDEST SWAP3 SWAP2 POP POP JUMP JUMPDEST PUSH0 DUP1 PUSH0 PUSH1 0x60 DUP5 DUP7 SUB SLT ISZERO PUSH2 0x2CE4 JUMPI PUSH2 0x2CE3 PUSH2 0x2C34 JUMP JUMPDEST JUMPDEST PUSH0 PUSH2 0x2CF1 DUP7 DUP3 DUP8 ADD PUSH2 0x2C82 JUMP JUMPDEST SWAP4 POP POP PUSH1 0x20 PUSH2 0x2D02 DUP7 DUP3 DUP8 ADD PUSH2 0x2C82 JUMP JUMPDEST SWAP3 POP POP PUSH1 0x40 PUSH2 0x2D13 DUP7 DUP3 DUP8 ADD PUSH2 0x2CB9 JUMP JUMPDEST SWAP2 POP POP SWAP3 POP SWAP3 POP SWAP3 JUMP JUMPDEST PUSH0 DUP2 SWAP1 POP SWAP2 SWAP1 POP JUMP JUMPDEST PUSH2 0x2D2F DUP2 PUSH2 0x2D1D JUMP JUMPDEST DUP2 EQ PUSH2 0x2D39 JUMPI PUSH0 DUP1 REVERT JUMPDEST POP JUMP JUMPDEST PUSH0 DUP2 CALLDATALOAD SWAP1 POP PUSH2 0x2D4A DUP2 PUSH2 0x2D26 JUMP JUMPDEST SWAP3 SWAP2 POP POP JUMP JUMPDEST PUSH0 DUP1 REVERT JUMPDEST PUSH0 PUSH1 0x1F NOT PUSH1 0x1F DUP4 ADD AND SWAP1 POP SWAP2 SWAP1 POP JUMP JUMPDEST PUSH32 0x4E487B7100000000000000000000000000000000000000000000000000000000 PUSH0 MSTORE PUSH1 0x41 PUSH1 0x4 MSTORE PUSH1 0x24 PUSH0 REVERT JUMPDEST PUSH2 0x2D9A DUP3 PUSH2 0x2D54 JUMP JUMPDEST DUP2 ADD DUP2 DUP2 LT PUSH8 0xFFFFFFFFFFFFFFFF DUP3 GT OR ISZERO PUSH2 0x2DB9 JUMPI PUSH2 0x2DB8 PUSH2 0x2D64 JUMP JUMPDEST JUMPDEST DUP1 PUSH1 0x40 MSTORE POP POP POP JUMP JUMPDEST PUSH0 PUSH2 0x2DCB PUSH2 0x2C2B JUMP JUMPDEST SWAP1 POP PUSH2 0x2DD7 DUP3 DUP3 PUSH2 0x2D91 JUMP JUMPDEST SWAP2 SWAP1 POP JUMP JUMPDEST PUSH0 PUSH8 0xFFFFFFFFFFFFFFFF DUP3 GT ISZERO PUSH2 0x2DF6 JUMPI PUSH2 0x2DF5 PUSH2 0x2D64 JUMP JUMPDEST JUMPDEST PUSH1 0x20 DUP3 MUL SWAP1 POP SWAP2 SWAP1 POP JUMP JUMPDEST PUSH0 DUP1 REVERT JUMPDEST PUSH0 PUSH2 0x2E17 PUSH2 0x2E12 DUP5 PUSH2 0x2DDC JUMP JUMPDEST PUSH2 0x2DC2 JUMP JUMPDEST SWAP1 POP DUP1 PUSH1 0x20 DUP5 MUL DUP4 ADD DUP6 DUP2 GT ISZERO PUSH2 0x2E31 JUMPI PUSH2 0x2E30 PUSH2 0x2E01 JUMP JUMPDEST JUMPDEST DUP4 JUMPDEST DUP2 DUP2 LT ISZERO PUSH2 0x2E5A JUMPI DUP1 PUSH2 0x2E46 DUP9 DUP3 PUSH2 0x2CB9 JUMP JUMPDEST DUP5 MSTORE PUSH1 0x20 DUP5 ADD SWAP4 POP POP PUSH1 0x20 DUP2 ADD SWAP1 POP PUSH2 0x2E33 JUMP JUMPDEST POP POP POP SWAP4 SWAP3 POP POP POP JUMP JUMPDEST PUSH0 DUP3 PUSH1 0x1F DUP4 ADD SLT PUSH2 0x2E78 JUMPI PUSH2 0x2E77 PUSH2 0x2D50 JUMP JUMPDEST JUMPDEST PUSH2 0x4B1 PUSH2 0x2E86 DUP5 DUP3 DUP6 PUSH2 0x2E05 JUMP JUMPDEST SWAP2 POP POP SWAP3 SWAP2 POP POP JUMP JUMPDEST PUSH0 DUP2 SWAP1 POP SWAP2 SWAP1 POP JUMP JUMPDEST PUSH2 0x2EA1 DUP2 PUSH2 0x2E8F JUMP JUMPDEST DUP2 EQ PUSH2 0x2EAB JUMPI PUSH0 DUP1 REVERT JUMPDEST POP JUMP JUMPDEST PUSH0 DUP2 CALLDATALOAD SWAP1 POP PUSH2 0x2EBC DUP2 PUSH2 0x2E98 JUMP JUMPDEST SWAP3 SWAP2 POP POP JUMP JUMPDEST PUSH0 DUP1 PUSH0 DUP1 PUSH0 DUP1 PUSH0 DUP1 PUSH0 DUP1 PUSH0 PUSH2 0x9760 DUP13 DUP15 SUB SLT ISZERO PUSH2 0x2EE2 JUMPI PUSH2 0x2EE1 PUSH2 0x2C34 JUMP JUMPDEST JUMPDEST PUSH0 PUSH2 0x2EEF DUP15 DUP3 DUP16 ADD PUSH2 0x2CB9 JUMP JUMPDEST SWAP12 POP POP PUSH1 0x20 PUSH2 0x2F00 DUP15 DUP3 DUP16 ADD PUSH2 0x2D3C JUMP JUMPDEST SWAP11 POP POP PUSH1 0x40 PUSH2 0x2F11 DUP15 DUP3 DUP16 ADD PUSH2 0x2C82 JUMP JUMPDEST SWAP10 POP POP PUSH1 0x60 PUSH2 0x2F22 DUP15 DUP3 DUP16 ADD PUSH2 0x2C82 JUMP JUMPDEST SWAP9 POP POP PUSH1 0x80 PUSH2 0x2F33 DUP15 DUP3 DUP16 ADD PUSH2 0x2D3C JUMP JUMPDEST SWAP8 POP POP PUSH1 0xA0 PUSH2 0x2F44 DUP15 DUP3 DUP16 ADD PUSH2 0x2E64 JUMP JUMPDEST SWAP7 POP POP PUSH2 0x96C0 PUSH2 0x2F56 DUP15 DUP3 DUP16 ADD PUSH2 0x2EAE JUMP JUMPDEST SWAP6 POP POP PUSH2 0x96E0 PUSH2 0x2F68 DUP15 DUP3 DUP16 ADD PUSH2 0x2C82 JUMP JUMPDEST SWAP5 POP POP PUSH2 0x9700 PUSH2 0x2F7A DUP15 DUP3 DUP16 ADD PUSH2 0x2D3C JUMP JUMPDEST SWAP4 POP POP PUSH2 0x9720 PUSH2 0x2F8C DUP15 DUP3 DUP16 ADD PUSH2 0x2C82 JUMP JUMPDEST SWAP3 POP POP PUSH2 0x9740 PUSH2 0x2F9E DUP15 DUP3 DUP16 ADD PUSH2 0x2C82 JUMP JUMPDEST SWAP2 POP POP SWAP3 SWAP6 SWAP9 SWAP12 POP SWAP3 SWAP6 SWAP9 SWAP12 SWAP1 SWAP4 SWAP7 SWAP10 POP JUMP JUMPDEST PUSH0 PUSH1 0x20 DUP3 DUP5 SUB SLT ISZERO PUSH2 0x2FC6 JUMPI PUSH2 0x2FC5 PUSH2 0x2C34 JUMP JUMPDEST JUMPDEST PUSH0 PUSH2 0x2FD3 DUP5 DUP3 DUP6 ADD PUSH2 0x2C82 JUMP JUMPDEST SWAP2 POP POP SWAP3 SWAP2 POP POP JUMP JUMPDEST PUSH0 DUP2 ISZERO ISZERO SWAP1 POP SWAP2 SWAP1 POP JUMP JUMPDEST PUSH2 0x2FF0 DUP2 PUSH2 0x2FDC JUMP JUMPDEST DUP3 MSTORE POP POP JUMP JUMPDEST PUSH0 PUSH1 0x20 DUP3 ADD SWAP1 POP PUSH2 0x3009 PUSH0 DUP4 ADD DUP5 PUSH2 0x2FE7 JUMP JUMPDEST SWAP3 SWAP2 POP POP JUMP JUMPDEST PUSH2 0x3018 DUP2 PUSH2 0x2C96 JUMP JUMPDEST DUP3 MSTORE POP POP JUMP JUMPDEST PUSH0 PUSH1 0x20 DUP3 ADD SWAP1 POP PUSH2 0x3031 PUSH0 DUP4 ADD DUP5 PUSH2 0x300F JUMP JUMPDEST SWAP3 SWAP2 POP POP JUMP JUMPDEST PUSH0 DUP1 PUSH0 DUP1 PUSH0 DUP1 PUSH0 DUP1 PUSH2 0x9700 DUP10 DUP12 SUB SLT ISZERO PUSH2 0x3054 JUMPI PUSH2 0x3053 PUSH2 0x2C34 JUMP JUMPDEST JUMPDEST PUSH0 PUSH2 0x3061 DUP12 DUP3 DUP13 ADD PUSH2 0x2CB9 JUMP JUMPDEST SWAP9 POP POP PUSH1 0x20 PUSH2 0x3072 DUP12 DUP3 DUP13 ADD PUSH2 0x2D3C JUMP JUMPDEST SWAP8 POP POP PUSH1 0x40 PUSH2 0x3083 DUP12 DUP3 DUP13 ADD PUSH2 0x2C82 JUMP JUMPDEST SWAP7 POP POP PUSH1 0x60 PUSH2 0x3094 DUP12 DUP3 DUP13 ADD PUSH2 0x2C82 JUMP JUMPDEST SWAP6 POP POP PUSH1 0x80 PUSH2 0x30A5 DUP12 DUP3 DUP13 ADD PUSH2 0x2D3C JUMP JUMPDEST SWAP5 POP POP PUSH1 0xA0 PUSH2 0x30B6 DUP12 DUP3 DUP13 ADD PUSH2 0x2E64 JUMP JUMPDEST SWAP4 POP POP PUSH2 0x96C0 PUSH2 0x30C8 DUP12 DUP3 DUP13 ADD PUSH2 0x2EAE JUMP JUMPDEST SWAP3 POP POP PUSH2 0x96E0 PUSH2 0x30DA DUP12 DUP3 DUP13 ADD PUSH2 0x2C82 JUMP JUMPDEST SWAP2 POP POP SWAP3 SWAP6 SWAP9 POP SWAP3 SWAP6 SWAP9 SWAP1 SWAP4 SWAP7 POP JUMP JUMPDEST PUSH0 PUSH1 0x20 DUP3 DUP5 SUB SLT ISZERO PUSH2 0x30FF JUMPI PUSH2 0x30FE PUSH2 0x2C34 JUMP JUMPDEST JUMPDEST PUSH0 PUSH2 0x310C DUP5 DUP3 DUP6 ADD PUSH2 0x2CB9 JUMP JUMPDEST SWAP2 POP POP SWAP3 SWAP2 POP POP JUMP JUMPDEST PUSH2 0x311E DUP2 PUSH2 0x2C5B JUMP JUMPDEST DUP3 MSTORE POP POP JUMP JUMPDEST PUSH0 PUSH1 0x20 DUP3 ADD SWAP1 POP PUSH2 0x3137 PUSH0 DUP4 ADD DUP5 PUSH2 0x3115 JUMP JUMPDEST SWAP3 SWAP2 POP POP JUMP JUMPDEST PUSH0 PUSH32 0xFFFFFFFFFFFFFFFFFFFF00000000000000000000000000000000000000000000 DUP3 AND SWAP1 POP SWAP2 SWAP1 POP JUMP JUMPDEST PUSH2 0x3171 DUP2 PUSH2 0x313D JUMP JUMPDEST DUP3 MSTORE POP POP JUMP JUMPDEST PUSH0 PUSH1 0x20 DUP3 ADD SWAP1 POP PUSH2 0x318A PUSH0 DUP4 ADD DUP5 PUSH2 0x3168 JUMP JUMPDEST SWAP3 SWAP2 POP POP JUMP JUMPDEST PUSH2 0x3199 DUP2 PUSH2 0x2FDC JUMP JUMPDEST DUP2 EQ PUSH2 0x31A3 JUMPI PUSH0 DUP1 REVERT JUMPDEST POP JUMP JUMPDEST PUSH0 DUP2 CALLDATALOAD SWAP1 POP PUSH2 0x31B4 DUP2 PUSH2 0x3190 JUMP JUMPDEST SWAP3 SWAP2 POP POP JUMP JUMPDEST PUSH0 DUP1 PUSH1 0x40 DUP4 DUP6 SUB SLT ISZERO PUSH2 0x31D0 JUMPI PUSH2 0x31CF PUSH2 0x2C34 JUMP JUMPDEST JUMPDEST PUSH0 PUSH2 0x31DD DUP6 DUP3 DUP7 ADD PUSH2 0x2C82 JUMP JUMPDEST SWAP3 POP POP PUSH1 0x20 PUSH2 0x31EE DUP6 DUP3 DUP7 ADD PUSH2 0x31A6 JUMP JUMPDEST SWAP2 POP POP SWAP3 POP SWAP3 SWAP1 POP JUMP JUMPDEST PUSH0 DUP1 REVERT JUMPDEST PUSH0 PUSH8 0xFFFFFFFFFFFFFFFF DUP3 GT ISZERO PUSH2 0x3216 JUMPI PUSH2 0x3215 PUSH2 0x2D64 JUMP JUMPDEST JUMPDEST PUSH2 0x321F DUP3 PUSH2 0x2D54 JUMP JUMPDEST SWAP1 POP PUSH1 0x20 DUP2 ADD SWAP1 POP SWAP2 SWAP1 POP JUMP JUMPDEST DUP3 DUP2 DUP4 CALLDATACOPY PUSH0 DUP4 DUP4 ADD MSTORE POP POP POP JUMP JUMPDEST PUSH0 PUSH2 0x324C PUSH2 0x3247 DUP5 PUSH2 0x31FC JUMP JUMPDEST PUSH2 0x2DC2 JUMP JUMPDEST SWAP1 POP DUP3 DUP2 MSTORE PUSH1 0x20 DUP2 ADD DUP5 DUP5 DUP5 ADD GT ISZERO PUSH2 0x3268 JUMPI PUSH2 0x3267 PUSH2 0x31F8 JUMP JUMPDEST JUMPDEST PUSH2 0x3273 DUP5 DUP3 DUP6 PUSH2 0x322C JUMP JUMPDEST POP SWAP4 SWAP3 POP POP POP JUMP JUMPDEST PUSH0 DUP3 PUSH1 0x1F DUP4 ADD SLT PUSH2 0x328F JUMPI PUSH2 0x328E PUSH2 0x2D50 JUMP JUMPDEST JUMPDEST DUP2 CALLDATALOAD PUSH2 0x329F DUP5 DUP3 PUSH1 0x20 DUP7 ADD PUSH2 0x323A JUMP JUMPDEST SWAP2 POP POP SWAP3 SWAP2 POP POP JUMP JUMPDEST PUSH0 DUP1 PUSH0 DUP1 PUSH1 0x80 DUP6 DUP8 SUB SLT ISZERO PUSH2 0x32C0 JUMPI PUSH2 0x32BF PUSH2 0x2C34 JUMP JUMPDEST JUMPDEST PUSH0 PUSH2 0x32CD DUP8 DUP3 DUP9 ADD PUSH2 0x2C82 JUMP JUMPDEST SWAP5 POP POP PUSH1 0x20 PUSH2 0x32DE DUP8 DUP3 DUP9 ADD PUSH2 0x2C82 JUMP JUMPDEST SWAP4 POP POP PUSH1 0x40 PUSH2 0x32EF DUP8 DUP3 DUP9 ADD PUSH2 0x2CB9 JUMP JUMPDEST SWAP3 POP POP PUSH1 0x60 DUP6 ADD CALLDATALOAD PUSH8 0xFFFFFFFFFFFFFFFF DUP2 GT ISZERO PUSH2 0x3310 JUMPI PUSH2 0x330F PUSH2 0x2C38 JUMP JUMPDEST JUMPDEST PUSH2 0x331C DUP8 DUP3 DUP9 ADD PUSH2 0x327B JUMP JUMPDEST SWAP2 POP POP SWAP3 SWAP6 SWAP2 SWAP5 POP SWAP3 POP JUMP JUMPDEST PUSH0 DUP1 REVERT JUMPDEST PUSH0 DUP1 DUP4 PUSH1 0x1F DUP5 ADD SLT PUSH2 0x3341 JUMPI PUSH2 0x3340 PUSH2 0x2D50 JUMP JUMPDEST JUMPDEST DUP3 CALLDATALOAD SWAP1 POP PUSH8 0xFFFFFFFFFFFFFFFF DUP2 GT ISZERO PUSH2 0x335E JUMPI PUSH2 0x335D PUSH2 0x3328 JUMP JUMPDEST JUMPDEST PUSH1 0x20 DUP4 ADD SWAP2 POP DUP4 PUSH1 0x1 DUP3 MUL DUP4 ADD GT ISZERO PUSH2 0x337A JUMPI PUSH2 0x3379 PUSH2 0x2E01 JUMP JUMPDEST JUMPDEST SWAP3 POP SWAP3 SWAP1 POP JUMP JUMPDEST PUSH0 DUP1 PUSH0 DUP1 PUSH0 PUSH1 0x80 DUP7 DUP9 SUB SLT ISZERO PUSH2 0x339A JUMPI PUSH2 0x3399 PUSH2 0x2C34 JUMP JUMPDEST JUMPDEST PUSH0 PUSH2 0x33A7 DUP9 DUP3 DUP10 ADD PUSH2 0x2C82 JUMP JUMPDEST SWAP6 POP POP PUSH1 0x20 PUSH2 0x33B8 DUP9 DUP3 DUP10 ADD PUSH2 0x2C82 JUMP JUMPDEST SWAP5 POP POP PUSH1 0x40 PUSH2 0x33C9 DUP9 DUP3 DUP10 ADD PUSH2 0x2CB9 JUMP JUMPDEST SWAP4 POP POP PUSH1 0x60 DUP7 ADD CALLDATALOAD PUSH8 0xFFFFFFFFFFFFFFFF DUP2 GT ISZERO PUSH2 0x33EA JUMPI PUSH2 0x33E9 PUSH2 0x2C38 JUMP JUMPDEST JUMPDEST PUSH2 0x33F6 DUP9 DUP3 DUP10 ADD PUSH2 0x332C JUMP JUMPDEST SWAP3 POP SWAP3 POP POP SWAP3 SWAP6 POP SWAP3 SWAP6 SWAP1 SWAP4 POP JUMP JUMPDEST PUSH0 PUSH32 0xFFFFFFFF00000000000000000000000000000000000000000000000000000000 DUP3 AND SWAP1 POP SWAP2 SWAP1 POP JUMP JUMPDEST PUSH2 0x3439 DUP2 PUSH2 0x3405 JUMP JUMPDEST DUP3 MSTORE POP POP JUMP JUMPDEST PUSH0 PUSH1 0x20 DUP3 ADD SWAP1 POP PUSH2 0x3452 PUSH0 DUP4 ADD DUP5 PUSH2 0x3430 JUMP JUMPDEST SWAP3 SWAP2 POP POP JUMP JUMPDEST PUSH0 PUSH6 0xFFFFFFFFFFFF DUP3 AND SWAP1 POP SWAP2 SWAP1 POP JUMP JUMPDEST PUSH2 0x3472 DUP2 PUSH2 0x3458 JUMP JUMPDEST DUP2 EQ PUSH2 0x347C JUMPI PUSH0 DUP1 REVERT JUMPDEST POP JUMP JUMPDEST PUSH0 DUP2 CALLDATALOAD SWAP1 POP PUSH2 0x348D DUP2 PUSH2 0x3469 JUMP JUMPDEST SWAP3 SWAP2 POP POP JUMP JUMPDEST PUSH0 PUSH1 0x20 DUP3 DUP5 SUB SLT ISZERO PUSH2 0x34A8 JUMPI PUSH2 0x34A7 PUSH2 0x2C34 JUMP JUMPDEST JUMPDEST PUSH0 PUSH2 0x34B5 DUP5 DUP3 DUP6 ADD PUSH2 0x347F JUMP JUMPDEST SWAP2 POP POP SWAP3 SWAP2 POP POP JUMP JUMPDEST PUSH0 DUP2 MLOAD SWAP1 POP SWAP2 SWAP1 POP JUMP JUMPDEST PUSH0 DUP3 DUP3 MSTORE PUSH1 0x20 DUP3 ADD SWAP1 POP SWAP3 SWAP2 POP POP JUMP JUMPDEST PUSH0 JUMPDEST DUP4 DUP2 LT ISZERO PUSH2 0x34F5 JUMPI DUP1 DUP3 ADD MLOAD DUP2 DUP5 ADD MSTORE PUSH1 0x20 DUP2 ADD SWAP1 POP PUSH2 0x34DA JUMP JUMPDEST PUSH0 DUP5 DUP5 ADD MSTORE POP POP POP POP JUMP JUMPDEST PUSH0 PUSH2 0x350A DUP3 PUSH2 0x34BE JUMP JUMPDEST PUSH2 0x3514 DUP2 DUP6 PUSH2 0x34C8 JUMP JUMPDEST SWAP4 POP PUSH2 0x3524 DUP2 DUP6 PUSH1 0x20 DUP7 ADD PUSH2 0x34D8 JUMP JUMPDEST PUSH2 0x352D DUP2 PUSH2 0x2D54 JUMP JUMPDEST DUP5 ADD SWAP2 POP POP SWAP3 SWAP2 POP POP JUMP JUMPDEST PUSH0 PUSH1 0x20 DUP3 ADD SWAP1 POP DUP2 DUP2 SUB PUSH0 DUP4 ADD MSTORE PUSH2 0x3550 DUP2 DUP5 PUSH2 0x3500 JUMP JUMPDEST SWAP1 POP SWAP3 SWAP2 POP POP JUMP JUMPDEST PUSH0 DUP2 MLOAD SWAP1 POP SWAP2 SWAP1 POP JUMP JUMPDEST PUSH0 DUP3 DUP3 MSTORE PUSH1 0x20 DUP3 ADD SWAP1 POP SWAP3 SWAP2 POP POP JUMP JUMPDEST PUSH0 PUSH2 0x357C DUP3 PUSH2 0x3558 JUMP JUMPDEST PUSH2 0x3586 DUP2 DUP6 PUSH2 0x3562 JUMP JUMPDEST SWAP4 POP PUSH2 0x3596 DUP2 DUP6 PUSH1 0x20 DUP7 ADD PUSH2 0x34D8 JUMP JUMPDEST PUSH2 0x359F DUP2 PUSH2 0x2D54 JUMP JUMPDEST DUP5 ADD SWAP2 POP POP SWAP3 SWAP2 POP POP JUMP JUMPDEST PUSH0 PUSH1 0x20 DUP3 ADD SWAP1 POP DUP2 DUP2 SUB PUSH0 DUP4 ADD MSTORE PUSH2 0x35C2 DUP2 DUP5 PUSH2 0x3572 JUMP JUMPDEST SWAP1 POP SWAP3 SWAP2 POP POP JUMP JUMPDEST PUSH0 DUP1 PUSH1 0x40 DUP4 DUP6 SUB SLT ISZERO PUSH2 0x35E0 JUMPI PUSH2 0x35DF PUSH2 0x2C34 JUMP JUMPDEST JUMPDEST PUSH0 PUSH2 0x35ED DUP6 DUP3 DUP7 ADD PUSH2 0x2C82 JUMP JUMPDEST SWAP3 POP POP PUSH1 0x20 PUSH2 0x35FE DUP6 DUP3 DUP7 ADD PUSH2 0x2CB9 JUMP JUMPDEST SWAP2 POP POP SWAP3 POP SWAP3 SWAP1 POP JUMP JUMPDEST PUSH0 DUP1 PUSH1 0x40 DUP4 DUP6 SUB SLT ISZERO PUSH2 0x361E JUMPI PUSH2 0x361D PUSH2 0x2C34 JUMP JUMPDEST JUMPDEST PUSH0 PUSH2 0x362B DUP6 DUP3 DUP7 ADD PUSH2 0x2C82 JUMP JUMPDEST SWAP3 POP POP PUSH1 0x20 PUSH2 0x363C DUP6 DUP3 DUP7 ADD PUSH2 0x2C82 JUMP JUMPDEST SWAP2 POP POP SWAP3 POP SWAP3 SWAP1 POP JUMP JUMPDEST PUSH0 DUP1 PUSH1 0x40 DUP4 DUP6 SUB SLT ISZERO PUSH2 0x365C JUMPI PUSH2 0x365B PUSH2 0x2C34 JUMP JUMPDEST JUMPDEST PUSH0 PUSH2 0x3669 DUP6 DUP3 DUP7 ADD PUSH2 0x2CB9 JUMP JUMPDEST SWAP3 POP POP PUSH1 0x20 PUSH2 0x367A DUP6 DUP3 DUP7 ADD PUSH2 0x31A6 JUMP JUMPDEST SWAP2 POP POP SWAP3 POP SWAP3 SWAP1 POP JUMP JUMPDEST PUSH32 0x416363657373206F6E6C7920666F72206578656375746F720000000000000000 PUSH0 DUP3 ADD MSTORE POP JUMP JUMPDEST PUSH0 PUSH2 0x36B8 PUSH1 0x18 DUP4 PUSH2 0x3562 JUMP JUMPDEST SWAP2 POP PUSH2 0x36C3 DUP3 PUSH2 0x3684 JUMP JUMPDEST PUSH1 0x20 DUP3 ADD SWAP1 POP SWAP2 SWAP1 POP JUMP JUMPDEST PUSH0 PUSH1 0x20 DUP3 ADD SWAP1 POP DUP2 DUP2 SUB PUSH0 DUP4 ADD MSTORE PUSH2 0x36E5 DUP2 PUSH2 0x36AC JUMP JUMPDEST SWAP1 POP SWAP2 SWAP1 POP JUMP JUMPDEST PUSH32 0x4E487B7100000000000000000000000000000000000000000000000000000000 PUSH0 MSTORE PUSH1 0x11 PUSH1 0x4 MSTORE PUSH1 0x24 PUSH0 REVERT JUMPDEST PUSH0 PUSH2 0x3723 DUP3 PUSH2 0x2C96 JUMP JUMPDEST SWAP2 POP PUSH2 0x372E DUP4 PUSH2 0x2C96 JUMP JUMPDEST SWAP3 POP DUP3 DUP3 SUB SWAP1 POP PUSH2 0xFFFF DUP2 GT ISZERO PUSH2 0x3748 JUMPI PUSH2 0x3747 PUSH2 0x36EC JUMP JUMPDEST JUMPDEST SWAP3 SWAP2 POP POP JUMP JUMPDEST PUSH0 PUSH2 0x3758 DUP3 PUSH2 0x2C96 JUMP JUMPDEST SWAP2 POP PUSH2 0xFFFF DUP3 SUB PUSH2 0x376C JUMPI PUSH2 0x376B PUSH2 0x36EC JUMP JUMPDEST JUMPDEST PUSH1 0x1 DUP3 ADD SWAP1 POP SWAP2 SWAP1 POP JUMP JUMPDEST PUSH32 0x4E487B7100000000000000000000000000000000000000000000000000000000 PUSH0 MSTORE PUSH1 0x32 PUSH1 0x4 MSTORE PUSH1 0x24 PUSH0 REVERT JUMPDEST PUSH0 PUSH2 0x37AE DUP3 PUSH2 0x2D1D JUMP JUMPDEST SWAP2 POP PUSH2 0x37B9 DUP4 PUSH2 0x2D1D JUMP JUMPDEST SWAP3 POP DUP3 DUP3 ADD SWAP1 POP DUP1 DUP3 GT ISZERO PUSH2 0x37D1 JUMPI PUSH2 0x37D0 PUSH2 0x36EC JUMP JUMPDEST JUMPDEST SWAP3 SWAP2 POP POP JUMP JUMPDEST PUSH32 0x4E487B7100000000000000000000000000000000000000000000000000000000 PUSH0 MSTORE PUSH1 0x12 PUSH1 0x4 MSTORE PUSH1 0x24 PUSH0 REVERT JUMPDEST PUSH0 PUSH2 0x380E DUP3 PUSH2 0x2C96 JUMP JUMPDEST SWAP2 POP PUSH2 0x3819 DUP4 PUSH2 0x2C96 JUMP JUMPDEST SWAP3 POP DUP3 PUSH2 0x3829 JUMPI PUSH2 0x3828 PUSH2 0x37D7 JUMP JUMPDEST JUMPDEST DUP3 DUP3 MOD SWAP1 POP SWAP3 SWAP2 POP POP JUMP JUMPDEST PUSH0 PUSH2 0x383E DUP3 PUSH2 0x3458 JUMP JUMPDEST SWAP2 POP PUSH2 0x3849 DUP4 PUSH2 0x3458 JUMP JUMPDEST SWAP3 POP DUP3 DUP3 ADD SWAP1 POP PUSH6 0xFFFFFFFFFFFF DUP2 GT ISZERO PUSH2 0x3867 JUMPI PUSH2 0x3866 PUSH2 0x36EC JUMP JUMPDEST JUMPDEST SWAP3 SWAP2 POP POP JUMP JUMPDEST PUSH0 PUSH2 0x3877 DUP3 PUSH2 0x2C96 JUMP JUMPDEST SWAP2 POP PUSH2 0x3882 DUP4 PUSH2 0x2C96 JUMP JUMPDEST SWAP3 POP DUP3 DUP3 ADD SWAP1 POP PUSH2 0xFFFF DUP2 GT ISZERO PUSH2 0x389C JUMPI PUSH2 0x389B PUSH2 0x36EC JUMP JUMPDEST JUMPDEST SWAP3 SWAP2 POP POP JUMP JUMPDEST PUSH0 PUSH2 0x38AC DUP3 PUSH2 0x2C96 JUMP JUMPDEST SWAP2 POP PUSH0 DUP3 SUB PUSH2 0x38BE JUMPI PUSH2 0x38BD PUSH2 0x36EC JUMP JUMPDEST JUMPDEST PUSH1 0x1 DUP3 SUB SWAP1 POP SWAP2 SWAP1 POP JUMP JUMPDEST PUSH32 0x4D696E742063616E6E6F74206265206D6F7265207468616E2031323030000000 PUSH0 DUP3 ADD MSTORE POP JUMP JUMPDEST PUSH0 PUSH2 0x38FD PUSH1 0x1D DUP4 PUSH2 0x3562 JUMP JUMPDEST SWAP2 POP PUSH2 0x3908 DUP3 PUSH2 0x38C9 JUMP JUMPDEST PUSH1 0x20 DUP3 ADD SWAP1 POP SWAP2 SWAP1 POP JUMP JUMPDEST PUSH0 PUSH1 0x20 DUP3 ADD SWAP1 POP DUP2 DUP2 SUB PUSH0 DUP4 ADD MSTORE PUSH2 0x392A DUP2 PUSH2 0x38F1 JUMP JUMPDEST SWAP1 POP SWAP2 SWAP1 POP JUMP JUMPDEST PUSH2 0x393A DUP2 PUSH2 0x2D1D JUMP JUMPDEST DUP3 MSTORE POP POP JUMP JUMPDEST PUSH0 PUSH2 0x4B1 SWAP1 POP SWAP2 SWAP1 POP JUMP JUMPDEST PUSH0 DUP2 SWAP1 POP SWAP3 SWAP2 POP POP JUMP JUMPDEST PUSH0 DUP2 SWAP1 POP SWAP2 SWAP1 POP JUMP JUMPDEST PUSH2 0x3967 DUP2 PUSH2 0x2C96 JUMP JUMPDEST DUP3 MSTORE POP POP JUMP JUMPDEST PUSH0 PUSH2 0x3978 DUP4 DUP4 PUSH2 0x395E JUMP JUMPDEST PUSH1 0x20 DUP4 ADD SWAP1 POP SWAP3 SWAP2 POP POP JUMP JUMPDEST PUSH0 PUSH1 0x20 DUP3 ADD SWAP1 POP SWAP2 SWAP1 POP JUMP JUMPDEST PUSH2 0x3999 DUP2 PUSH2 0x3940 JUMP JUMPDEST PUSH2 0x39A3 DUP2 DUP5 PUSH2 0x394B JUMP JUMPDEST SWAP3 POP PUSH2 0x39AE DUP3 PUSH2 0x3955 JUMP JUMPDEST DUP1 PUSH0 JUMPDEST DUP4 DUP2 LT ISZERO PUSH2 0x39DE JUMPI DUP2 MLOAD PUSH2 0x39C5 DUP8 DUP3 PUSH2 0x396D JUMP JUMPDEST SWAP7 POP PUSH2 0x39D0 DUP4 PUSH2 0x3984 JUMP JUMPDEST SWAP3 POP POP PUSH1 0x1 DUP2 ADD SWAP1 POP PUSH2 0x39B1 JUMP JUMPDEST POP POP POP POP POP POP JUMP JUMPDEST PUSH2 0x39EF DUP2 PUSH2 0x2E8F JUMP JUMPDEST DUP3 MSTORE POP POP JUMP JUMPDEST PUSH0 PUSH2 0x9700 DUP3 ADD SWAP1 POP PUSH2 0x3A09 PUSH0 DUP4 ADD DUP12 PUSH2 0x300F JUMP JUMPDEST PUSH2 0x3A16 PUSH1 0x20 DUP4 ADD DUP11 PUSH2 0x3931 JUMP JUMPDEST PUSH2 0x3A23 PUSH1 0x40 DUP4 ADD DUP10 PUSH2 0x3115 JUMP JUMPDEST PUSH2 0x3A30 PUSH1 0x60 DUP4 ADD DUP9 PUSH2 0x3115 JUMP JUMPDEST PUSH2 0x3A3D PUSH1 0x80 DUP4 ADD DUP8 PUSH2 0x3931 JUMP JUMPDEST PUSH2 0x3A4A PUSH1 0xA0 DUP4 ADD DUP7 PUSH2 0x3990 JUMP JUMPDEST PUSH2 0x3A58 PUSH2 0x96C0 DUP4 ADD DUP6 PUSH2 0x39E6 JUMP JUMPDEST PUSH2 0x3A66 PUSH2 0x96E0 DUP4 ADD DUP5 PUSH2 0x3115 JUMP JUMPDEST SWAP10 SWAP9 POP POP POP POP POP POP POP POP POP JUMP JUMPDEST PUSH0 PUSH1 0xC0 DUP3 ADD SWAP1 POP PUSH2 0x3A86 PUSH0 DUP4 ADD DUP10 PUSH2 0x3115 JUMP JUMPDEST PUSH2 0x3A93 PUSH1 0x20 DUP4 ADD DUP9 PUSH2 0x3931 JUMP JUMPDEST DUP2 DUP2 SUB PUSH1 0x40 DUP4 ADD MSTORE PUSH2 0x3AA5 DUP2 DUP8 PUSH2 0x3500 JUMP JUMPDEST SWAP1 POP PUSH2 0x3AB4 PUSH1 0x60 DUP4 ADD DUP7 PUSH2 0x39E6 JUMP JUMPDEST PUSH2 0x3AC1 PUSH1 0x80 DUP4 ADD DUP6 PUSH2 0x3115 JUMP JUMPDEST PUSH2 0x3ACE PUSH1 0xA0 DUP4 ADD DUP5 PUSH2 0x3115 JUMP JUMPDEST SWAP8 SWAP7 POP POP POP POP POP POP POP JUMP JUMPDEST PUSH0 DUP2 SWAP1 POP SWAP3 SWAP2 POP POP JUMP JUMPDEST PUSH0 PUSH2 0x3AED DUP3 PUSH2 0x34BE JUMP JUMPDEST PUSH2 0x3AF7 DUP2 DUP6 PUSH2 0x3AD9 JUMP JUMPDEST SWAP4 POP PUSH2 0x3B07 DUP2 DUP6 PUSH1 0x20 DUP7 ADD PUSH2 0x34D8 JUMP JUMPDEST DUP1 DUP5 ADD SWAP2 POP POP SWAP3 SWAP2 POP POP JUMP JUMPDEST PUSH0 PUSH2 0x3B1E DUP3 DUP5 PUSH2 0x3AE3 JUMP JUMPDEST SWAP2 POP DUP2 SWAP1 POP SWAP3 SWAP2 POP POP JUMP JUMPDEST PUSH32 0x546865207472616E73666572206F66207468697320746F6B656E206973206375 PUSH0 DUP3 ADD MSTORE PUSH32 0x7272656E746C792062616E6E6564000000000000000000000000000000000000 PUSH1 0x20 DUP3 ADD MSTORE POP JUMP JUMPDEST PUSH0 PUSH2 0x3B83 PUSH1 0x2E DUP4 PUSH2 0x3562 JUMP JUMPDEST SWAP2 POP PUSH2 0x3B8E DUP3 PUSH2 0x3B29 JUMP JUMPDEST PUSH1 0x40 DUP3 ADD SWAP1 POP SWAP2 SWAP1 POP JUMP JUMPDEST PUSH0 PUSH1 0x20 DUP3 ADD SWAP1 POP DUP2 DUP2 SUB PUSH0 DUP4 ADD MSTORE PUSH2 0x3BB0 DUP2 PUSH2 0x3B77 JUMP JUMPDEST SWAP1 POP SWAP2 SWAP1 POP JUMP JUMPDEST PUSH0 DUP2 SWAP1 POP SWAP2 SWAP1 POP JUMP JUMPDEST PUSH0 PUSH2 0x3BDA PUSH2 0x3BD5 PUSH2 0x3BD0 DUP5 PUSH2 0x2C96 JUMP JUMPDEST PUSH2 0x3BB7 JUMP JUMPDEST PUSH2 0x2D1D JUMP JUMPDEST SWAP1 POP SWAP2 SWAP1 POP JUMP JUMPDEST PUSH2 0x3BEA DUP2 PUSH2 0x3BC0 JUMP JUMPDEST DUP3 MSTORE POP POP JUMP JUMPDEST PUSH0 PUSH1 0x40 DUP3 ADD SWAP1 POP PUSH2 0x3C03 PUSH0 DUP4 ADD DUP6 PUSH2 0x3115 JUMP JUMPDEST PUSH2 0x3C10 PUSH1 0x20 DUP4 ADD DUP5 PUSH2 0x3BE1 JUMP JUMPDEST SWAP4 SWAP3 POP POP POP JUMP JUMPDEST PUSH0 PUSH1 0x60 DUP3 ADD SWAP1 POP PUSH2 0x3C2A PUSH0 DUP4 ADD DUP7 PUSH2 0x3115 JUMP JUMPDEST PUSH2 0x3C37 PUSH1 0x20 DUP4 ADD DUP6 PUSH2 0x3BE1 JUMP JUMPDEST PUSH2 0x3C44 PUSH1 0x40 DUP4 ADD DUP5 PUSH2 0x3115 JUMP JUMPDEST SWAP5 SWAP4 POP POP POP POP JUMP JUMPDEST PUSH32 0x54686520696E70757420616464726573732063616E6E6F74206265207A65726F PUSH0 DUP3 ADD MSTORE POP JUMP JUMPDEST PUSH0 PUSH2 0x3C80 PUSH1 0x20 DUP4 PUSH2 0x3562 JUMP JUMPDEST SWAP2 POP PUSH2 0x3C8B DUP3 PUSH2 0x3C4C JUMP JUMPDEST PUSH1 0x20 DUP3 ADD SWAP1 POP SWAP2 SWAP1 POP JUMP JUMPDEST PUSH0 PUSH1 0x20 DUP3 ADD SWAP1 POP DUP2 DUP2 SUB PUSH0 DUP4 ADD MSTORE PUSH2 0x3CAD DUP2 PUSH2 0x3C74 JUMP JUMPDEST SWAP1 POP SWAP2 SWAP1 POP JUMP JUMPDEST PUSH32 0x596F7520646F206E6F7420686176652061636365737320746F20746869732066 PUSH0 DUP3 ADD MSTORE PUSH32 0x756E6374696F6E00000000000000000000000000000000000000000000000000 PUSH1 0x20 DUP3 ADD MSTORE POP JUMP JUMPDEST PUSH0 PUSH2 0x3D0E PUSH1 0x27 DUP4 PUSH2 0x3562 JUMP JUMPDEST SWAP2 POP PUSH2 0x3D19 DUP3 PUSH2 0x3CB4 JUMP JUMPDEST PUSH1 0x40 DUP3 ADD SWAP1 POP SWAP2 SWAP1 POP JUMP JUMPDEST PUSH0 PUSH1 0x20 DUP3 ADD SWAP1 POP DUP2 DUP2 SUB PUSH0 DUP4 ADD MSTORE PUSH2 0x3D3B DUP2 PUSH2 0x3D02 JUMP JUMPDEST SWAP1 POP SWAP2 SWAP1 POP JUMP JUMPDEST PUSH32 0x54686520656E746572656420706172616D657465727320617265206E6F742061 PUSH0 DUP3 ADD MSTORE PUSH32 0x636365707461626C650000000000000000000000000000000000000000000000 PUSH1 0x20 DUP3 ADD MSTORE POP JUMP JUMPDEST PUSH0 PUSH2 0x3D9C PUSH1 0x29 DUP4 PUSH2 0x3562 JUMP JUMPDEST SWAP2 POP PUSH2 0x3DA7 DUP3 PUSH2 0x3D42 JUMP JUMPDEST PUSH1 0x40 DUP3 ADD SWAP1 POP SWAP2 SWAP1 POP JUMP JUMPDEST PUSH0 PUSH1 0x20 DUP3 ADD SWAP1 POP DUP2 DUP2 SUB PUSH0 DUP4 ADD MSTORE PUSH2 0x3DC9 DUP2 PUSH2 0x3D90 JUMP JUMPDEST SWAP1 POP SWAP2 SWAP1 POP JUMP JUMPDEST PUSH0 PUSH1 0x80 DUP3 ADD SWAP1 POP PUSH2 0x3DE3 PUSH0 DUP4 ADD DUP8 PUSH2 0x3115 JUMP JUMPDEST PUSH2 0x3DF0 PUSH1 0x20 DUP4 ADD DUP7 PUSH2 0x3931 JUMP JUMPDEST DUP2 DUP2 SUB PUSH1 0x40 DUP4 ADD MSTORE PUSH2 0x3E02 DUP2 DUP6 PUSH2 0x3500 JUMP JUMPDEST SWAP1 POP PUSH2 0x3E11 PUSH1 0x60 DUP4 ADD DUP5 PUSH2 0x39E6 JUMP JUMPDEST SWAP6 SWAP5 POP POP POP POP POP JUMP JUMPDEST PUSH32 0x65786563757465207065726D697373696F6E2066756E6374696F6E206661696C PUSH0 DUP3 ADD MSTORE PUSH32 0x6564000000000000000000000000000000000000000000000000000000000000 PUSH1 0x20 DUP3 ADD MSTORE POP JUMP JUMPDEST PUSH0 PUSH2 0x3E74 PUSH1 0x22 DUP4 PUSH2 0x3562 JUMP JUMPDEST SWAP2 POP PUSH2 0x3E7F DUP3 PUSH2 0x3E1A JUMP JUMPDEST PUSH1 0x40 DUP3 ADD SWAP1 POP SWAP2 SWAP1 POP JUMP JUMPDEST PUSH0 PUSH1 0x20 DUP3 ADD SWAP1 POP DUP2 DUP2 SUB PUSH0 DUP4 ADD MSTORE PUSH2 0x3EA1 DUP2 PUSH2 0x3E68 JUMP JUMPDEST SWAP1 POP SWAP2 SWAP1 POP JUMP JUMPDEST PUSH0 PUSH1 0x60 DUP3 ADD SWAP1 POP PUSH2 0x3EBB PUSH0 DUP4 ADD DUP7 PUSH2 0x3115 JUMP JUMPDEST PUSH2 0x3EC8 PUSH1 0x20 DUP4 ADD DUP6 PUSH2 0x3115 JUMP JUMPDEST PUSH2 0x3ED5 PUSH1 0x40 DUP4 ADD DUP5 PUSH2 0x3931 JUMP JUMPDEST SWAP5 SWAP4 POP POP POP POP JUMP JUMPDEST PUSH32 0x5468652061646472657373206F6620746865206F776E657220616E6420746865 PUSH0 DUP3 ADD MSTORE PUSH32 0x206F70657261746F72206D75737420626520646966666572656E740000000000 PUSH1 0x20 DUP3 ADD MSTORE POP JUMP JUMPDEST PUSH0 PUSH2 0x3F37 PUSH1 0x3B DUP4 PUSH2 0x3562 JUMP JUMPDEST SWAP2 POP PUSH2 0x3F42 DUP3 PUSH2 0x3EDD JUMP JUMPDEST PUSH1 0x40 DUP3 ADD SWAP1 POP SWAP2 SWAP1 POP JUMP JUMPDEST PUSH0 PUSH1 0x20 DUP3 ADD SWAP1 POP DUP2 DUP2 SUB PUSH0 DUP4 ADD MSTORE PUSH2 0x3F64 DUP2 PUSH2 0x3F2B JUMP JUMPDEST SWAP1 POP SWAP2 SWAP1 POP JUMP JUMPDEST PUSH32 0x4974206973206E6F7420706F737369626C6520746F207265676973746572206E PUSH0 DUP3 ADD MSTORE PUSH32 0x6F77000000000000000000000000000000000000000000000000000000000000 PUSH1 0x20 DUP3 ADD MSTORE POP JUMP JUMPDEST PUSH0 PUSH2 0x3FC5 PUSH1 0x22 DUP4 PUSH2 0x3562 JUMP JUMPDEST SWAP2 POP PUSH2 0x3FD0 DUP3 PUSH2 0x3F6B JUMP JUMPDEST PUSH1 0x40 DUP3 ADD SWAP1 POP SWAP2 SWAP1 POP JUMP JUMPDEST PUSH0 PUSH1 0x20 DUP3 ADD SWAP1 POP DUP2 DUP2 SUB PUSH0 DUP4 ADD MSTORE PUSH2 0x3FF2 DUP2 PUSH2 0x3FB9 JUMP JUMPDEST SWAP1 POP SWAP2 SWAP1 POP JUMP JUMPDEST PUSH32 0x5468652061646472657373206F66207468652072656769737472616E74206D75 PUSH0 DUP3 ADD MSTORE PUSH32 0x7374206E6F742062652030206F72207468652061646472657373206F66206120 PUSH1 0x20 DUP3 ADD MSTORE PUSH32 0x636F6E7472616374000000000000000000000000000000000000000000000000 PUSH1 0x40 DUP3 ADD MSTORE POP JUMP JUMPDEST PUSH0 PUSH2 0x4079 PUSH1 0x48 DUP4 PUSH2 0x3562 JUMP JUMPDEST SWAP2 POP PUSH2 0x4084 DUP3 PUSH2 0x3FF9 JUMP JUMPDEST PUSH1 0x60 DUP3 ADD SWAP1 POP SWAP2 SWAP1 POP JUMP JUMPDEST PUSH0 PUSH1 0x20 DUP3 ADD SWAP1 POP DUP2 DUP2 SUB PUSH0 DUP4 ADD MSTORE PUSH2 0x40A6 DUP2 PUSH2 0x406D JUMP JUMPDEST SWAP1 POP SWAP2 SWAP1 POP JUMP JUMPDEST PUSH32 0x54686520616D6F756E742073686F756C64206E6F74206265206C657373207468 PUSH0 DUP3 ADD MSTORE PUSH32 0x616E20746865206D696E74207072696365000000000000000000000000000000 PUSH1 0x20 DUP3 ADD MSTORE POP JUMP JUMPDEST PUSH0 PUSH2 0x4107 PUSH1 0x31 DUP4 PUSH2 0x3562 JUMP JUMPDEST SWAP2 POP PUSH2 0x4112 DUP3 PUSH2 0x40AD JUMP JUMPDEST PUSH1 0x40 DUP3 ADD SWAP1 POP SWAP2 SWAP1 POP JUMP JUMPDEST PUSH0 PUSH1 0x20 DUP3 ADD SWAP1 POP DUP2 DUP2 SUB PUSH0 DUP4 ADD MSTORE PUSH2 0x4134 DUP2 PUSH2 0x40FB JUMP JUMPDEST SWAP1 POP SWAP2 SWAP1 POP JUMP JUMPDEST POP JUMP JUMPDEST PUSH0 PUSH2 0x4149 PUSH0 DUP4 PUSH2 0x3AD9 JUMP JUMPDEST SWAP2 POP PUSH2 0x4154 DUP3 PUSH2 0x413B JUMP JUMPDEST PUSH0 DUP3 ADD SWAP1 POP SWAP2 SWAP1 POP JUMP JUMPDEST PUSH0 PUSH2 0x4168 DUP3 PUSH2 0x413E JUMP JUMPDEST SWAP2 POP DUP2 SWAP1 POP SWAP2 SWAP1 POP JUMP JUMPDEST PUSH32 0x54686520616D6F756E7420776173206E6F742073656E74000000000000000000 PUSH0 DUP3 ADD MSTORE POP JUMP JUMPDEST PUSH0 PUSH2 0x41A6 PUSH1 0x17 DUP4 PUSH2 0x3562 JUMP JUMPDEST SWAP2 POP PUSH2 0x41B1 DUP3 PUSH2 0x4172 JUMP JUMPDEST PUSH1 0x20 DUP3 ADD SWAP1 POP SWAP2 SWAP1 POP JUMP JUMPDEST PUSH0 PUSH1 0x20 DUP3 ADD SWAP1 POP DUP2 DUP2 SUB PUSH0 DUP4 ADD MSTORE PUSH2 0x41D3 DUP2 PUSH2 0x419A JUMP JUMPDEST SWAP1 POP SWAP2 SWAP1 POP JUMP JUMPDEST PUSH0 DUP2 SWAP1 POP SWAP3 SWAP2 POP POP JUMP JUMPDEST PUSH0 PUSH2 0x41EE DUP3 PUSH2 0x3558 JUMP JUMPDEST PUSH2 0x41F8 DUP2 DUP6 PUSH2 0x41DA JUMP JUMPDEST SWAP4 POP PUSH2 0x4208 DUP2 DUP6 PUSH1 0x20 DUP7 ADD PUSH2 0x34D8 JUMP JUMPDEST DUP1 DUP5 ADD SWAP2 POP POP SWAP3 SWAP2 POP POP JUMP JUMPDEST PUSH0 PUSH2 0x421F DUP3 DUP6 PUSH2 0x41E4 JUMP JUMPDEST SWAP2 POP PUSH2 0x422B DUP3 DUP5 PUSH2 0x41E4 JUMP JUMPDEST SWAP2 POP DUP2 SWAP1 POP SWAP4 SWAP3 POP POP POP JUMP JUMPDEST PUSH32 0x54686520494420656E746572656420697320696E76616C69642E204974206D75 PUSH0 DUP3 ADD MSTORE PUSH32 0x737420626520696E207468697320696E74657276616C2030203C206964203C3D PUSH1 0x20 DUP3 ADD MSTORE PUSH32 0x206D6178696D756D206D696E7461626C6520746F6B656E730000000000000000 PUSH1 0x40 DUP3 ADD MSTORE POP JUMP JUMPDEST PUSH0 PUSH2 0x42B7 PUSH1 0x58 DUP4 PUSH2 0x3562 JUMP JUMPDEST SWAP2 POP PUSH2 0x42C2 DUP3 PUSH2 0x4237 JUMP JUMPDEST PUSH1 0x60 DUP3 ADD SWAP1 POP SWAP2 SWAP1 POP JUMP JUMPDEST PUSH0 PUSH1 0x20 DUP3 ADD SWAP1 POP DUP2 DUP2 SUB PUSH0 DUP4 ADD MSTORE PUSH2 0x42E4 DUP2 PUSH2 0x42AB JUMP JUMPDEST SWAP1 POP SWAP2 SWAP1 POP JUMP JUMPDEST PUSH0 PUSH1 0x20 DUP3 ADD SWAP1 POP PUSH2 0x42FE PUSH0 DUP4 ADD DUP5 PUSH2 0x3BE1 JUMP JUMPDEST SWAP3 SWAP2 POP POP JUMP JUMPDEST PUSH0 PUSH1 0x80 DUP3 ADD SWAP1 POP PUSH2 0x4317 PUSH0 DUP4 ADD DUP8 PUSH2 0x3115 JUMP JUMPDEST PUSH2 0x4324 PUSH1 0x20 DUP4 ADD DUP7 PUSH2 0x3115 JUMP JUMPDEST PUSH2 0x4331 PUSH1 0x40 DUP4 ADD DUP6 PUSH2 0x300F JUMP JUMPDEST DUP2 DUP2 SUB PUSH1 0x60 DUP4 ADD MSTORE PUSH2 0x4343 DUP2 DUP5 PUSH2 0x3500 JUMP JUMPDEST SWAP1 POP SWAP6 SWAP5 POP POP POP POP POP JUMP JUMPDEST PUSH2 0x4357 DUP2 PUSH2 0x3405 JUMP JUMPDEST DUP2 EQ PUSH2 0x4361 JUMPI PUSH0 DUP1 REVERT JUMPDEST POP JUMP JUMPDEST PUSH0 DUP2 MLOAD SWAP1 POP PUSH2 0x4372 DUP2 PUSH2 0x434E JUMP JUMPDEST SWAP3 SWAP2 POP POP JUMP JUMPDEST PUSH0 PUSH1 0x20 DUP3 DUP5 SUB SLT ISZERO PUSH2 0x438D JUMPI PUSH2 0x438C PUSH2 0x2C34 JUMP JUMPDEST JUMPDEST PUSH0 PUSH2 0x439A DUP5 DUP3 DUP6 ADD PUSH2 0x4364 JUMP JUMPDEST SWAP2 POP POP SWAP3 SWAP2 POP POP JUMP INVALID LOG2 PUSH5 0x6970667358 0x22 SLT KECCAK256 0xE 0x27 EXTCODECOPY 0xB2 0x23 PUSH14 0x603C0080A5C0AD6CA6CC48DDF846 0xD1 PUSH10 0x1E8A1C65C00A2C56CBB0 PUSH5 0x736F6C6343 STOP ADDMOD EQ STOP CALLER "
		},
		"gasEstimates": {
			"creation": {
				"codeDepositCost": "3473800",
				"executionCost": "infinite",
				"totalCost": "infinite"
			},
			"external": {
				"approve(address,uint16)": "infinite",
				"balanceOf(address)": "3034",
				"getApproved(uint16)": "infinite",
				"governoraccess(address)": "662",
				"isApprovedForAll(address,address)": "infinite",
				"mint()": "infinite",
				"name()": "2497",
				"onERC721Received(address,address,uint16,bytes)": "infinite",
				"ownerOf(uint16)": "infinite",
				"safeTransferFrom(address,address,uint16)": "infinite",
				"safeTransferFrom(address,address,uint16,bytes)": "infinite",
				"setApprovalForAll(address,bool)": "infinite",
				"setBallotForupdateMintInfo(uint16,uint256,address,address,uint256,uint16[1201],bytes32,address,uint256,address,address)": "infinite",
				"setBan(uint16,bool)": "infinite",
				"setRegister(uint48)": "infinite",
				"symbol()": "2569",
				"tokenURI(uint16)": "infinite",
				"transferFrom(address,address,uint16)": "infinite",
				"updateMintInfo(uint16,uint256,address,address,uint256,uint16[1201],bytes32,address)": "infinite"
			},
			"internal": {
				"_aprove(address,uint16,address)": "26307",
				"_baseURI()": "infinite",
				"_checkOnERC721Received(address,address,uint16,bytes memory)": "infinite",
				"_requireOwned(uint16)": "infinite",
				"_update(address,uint16,address)": "infinite"
			}
		},
		"methodIdentifiers": {
			"approve(address,uint16)": "e560ca43",
			"balanceOf(address)": "70a08231",
			"getApproved(uint16)": "93b871f2",
			"governoraccess(address)": "3610feb3",
			"isApprovedForAll(address,address)": "e985e9c5",
			"mint()": "1249c58b",
			"name()": "06fdde03",
			"onERC721Received(address,address,uint16,bytes)": "b1cff380",
			"ownerOf(uint16)": "82a7cf1e",
			"safeTransferFrom(address,address,uint16)": "07394401",
			"safeTransferFrom(address,address,uint16,bytes)": "b145ae31",
			"setApprovalForAll(address,bool)": "a22cb465",
			"setBallotForupdateMintInfo(uint16,uint256,address,address,uint256,uint16[1201],bytes32,address,uint256,address,address)": "1c276796",
			"setBan(uint16,bool)": "f12c2c7a",
			"setRegister(uint48)": "d5ebe3df",
			"symbol()": "95d89b41",
			"tokenURI(uint16)": "dd7d8440",
			"transferFrom(address,address,uint16)": "4ec3dcfe",
			"updateMintInfo(uint16,uint256,address,address,uint256,uint16[1201],bytes32,address)": "7e0dad88"
		}
	},
	"abi": [
		{
			"inputs": [
				{
					"internalType": "bytes20",
					"name": "name_",
					"type": "bytes20"
				},
				{
					"internalType": "bytes10",
					"name": "symbol_",
					"type": "bytes10"
				}
			],
			"stateMutability": "nonpayable",
			"type": "constructor"
		},
		{
			"inputs": [
				{
					"internalType": "address",
					"name": "sender",
					"type": "address"
				}
			],
			"name": "ERC721AccessIsNotApproved",
			"type": "error"
		},
		{
			"inputs": [
				{
					"internalType": "address",
					"name": "sender",
					"type": "address"
				},
				{
					"internalType": "uint256",
					"name": "tokenId",
					"type": "uint256"
				},
				{
					"internalType": "address",
					"name": "owner",
					"type": "address"
				}
			],
			"name": "ERC721IncorrectOwner",
			"type": "error"
		},
		{
			"inputs": [
				{
					"internalType": "address",
					"name": "operator",
					"type": "address"
				},
				{
					"internalType": "uint256",
					"name": "tokenId",
					"type": "uint256"
				}
			],
			"name": "ERC721InsufficientApproval",
			"type": "error"
		},
		{
			"inputs": [
				{
					"internalType": "address",
					"name": "approver",
					"type": "address"
				}
			],
			"name": "ERC721InvalidApprover",
			"type": "error"
		},
		{
			"inputs": [
				{
					"internalType": "address",
					"name": "operator",
					"type": "address"
				}
			],
			"name": "ERC721InvalidOperator",
			"type": "error"
		},
		{
			"inputs": [
				{
					"internalType": "address",
					"name": "owner",
					"type": "address"
				}
			],
			"name": "ERC721InvalidOwner",
			"type": "error"
		},
		{
			"inputs": [
				{
					"internalType": "address",
					"name": "receiver",
					"type": "address"
				}
			],
			"name": "ERC721InvalidReceiver",
			"type": "error"
		},
		{
			"inputs": [
				{
					"internalType": "address",
					"name": "sender",
					"type": "address"
				}
			],
			"name": "ERC721InvalidSender",
			"type": "error"
		},
		{
			"inputs": [
				{
					"internalType": "uint16",
					"name": "nRegistrants",
					"type": "uint16"
				}
			],
			"name": "ERC721NoNewRegistrants",
			"type": "error"
		},
		{
			"inputs": [
				{
					"internalType": "uint256",
					"name": "tokenId",
					"type": "uint256"
				}
			],
			"name": "ERC721NonexistentToken",
			"type": "error"
		},
		{
			"inputs": [
				{
					"internalType": "uint16",
					"name": "token",
					"type": "uint16"
				}
			],
			"name": "Erc721InvalidTokenInNewTokenId",
			"type": "error"
		},
		{
			"inputs": [
				{
					"internalType": "uint16",
					"name": "total",
					"type": "uint16"
				}
			],
			"name": "Erc721InvalidTotalNewTokenId",
			"type": "error"
		},
		{
			"anonymous": false,
			"inputs": [
				{
					"indexed": true,
					"internalType": "address",
					"name": "owner",
					"type": "address"
				},
				{
					"indexed": true,
					"internalType": "address",
					"name": "approved",
					"type": "address"
				},
				{
					"indexed": true,
					"internalType": "uint16",
					"name": "tokenId",
					"type": "uint16"
				}
			],
			"name": "Approval",
			"type": "event"
		},
		{
			"anonymous": false,
			"inputs": [
				{
					"indexed": true,
					"internalType": "address",
					"name": "owner",
					"type": "address"
				},
				{
					"indexed": true,
					"internalType": "address",
					"name": "operator",
					"type": "address"
				},
				{
					"indexed": false,
					"internalType": "bool",
					"name": "approved",
					"type": "bool"
				}
			],
			"name": "ApprovalForAll",
			"type": "event"
		},
		{
			"anonymous": false,
			"inputs": [
				{
					"indexed": true,
					"internalType": "address",
					"name": "from",
					"type": "address"
				},
				{
					"indexed": true,
					"internalType": "address",
					"name": "to",
					"type": "address"
				},
				{
					"indexed": true,
					"internalType": "uint16",
					"name": "tokenId",
					"type": "uint16"
				}
			],
			"name": "Transfer",
			"type": "event"
		},
		{
			"anonymous": false,
			"inputs": [
				{
					"indexed": true,
					"internalType": "uint16",
					"name": "newmaxMint",
					"type": "uint16"
				},
				{
					"indexed": true,
					"internalType": "uint256",
					"name": "newregistrationStartTime",
					"type": "uint256"
				},
				{
					"indexed": false,
					"internalType": "address",
					"name": "newexecutor",
					"type": "address"
				},
				{
					"indexed": false,
					"internalType": "address",
					"name": "newbankAddress",
					"type": "address"
				},
				{
					"indexed": false,
					"internalType": "uint256",
					"name": "newmintPrice",
					"type": "uint256"
				}
			],
			"name": "updatemintInfo",
			"type": "event"
		},
		{
			"inputs": [
				{
					"internalType": "address",
					"name": "to",
					"type": "address"
				},
				{
					"internalType": "uint16",
					"name": "tokenId",
					"type": "uint16"
				}
			],
			"name": "approve",
			"outputs": [],
			"stateMutability": "nonpayable",
			"type": "function"
		},
		{
			"inputs": [
				{
					"internalType": "address",
					"name": "owner",
					"type": "address"
				}
			],
			"name": "balanceOf",
			"outputs": [
				{
					"internalType": "uint16",
					"name": "",
					"type": "uint16"
				}
			],
			"stateMutability": "view",
			"type": "function"
		},
		{
			"inputs": [
				{
					"internalType": "uint16",
					"name": "tokenId",
					"type": "uint16"
				}
			],
			"name": "getApproved",
			"outputs": [
				{
					"internalType": "address",
					"name": "",
					"type": "address"
				}
			],
			"stateMutability": "view",
			"type": "function"
		},
		{
			"inputs": [
				{
					"internalType": "address",
					"name": "",
					"type": "address"
				}
			],
			"name": "governoraccess",
			"outputs": [
				{
					"internalType": "bool",
					"name": "",
					"type": "bool"
				}
			],
			"stateMutability": "nonpayable",
			"type": "function"
		},
		{
			"inputs": [
				{
					"internalType": "address",
					"name": "owner",
					"type": "address"
				},
				{
					"internalType": "address",
					"name": "operator",
					"type": "address"
				}
			],
			"name": "isApprovedForAll",
			"outputs": [
				{
					"internalType": "bool",
					"name": "",
					"type": "bool"
				}
			],
			"stateMutability": "view",
			"type": "function"
		},
		{
			"inputs": [],
			"name": "mint",
			"outputs": [],
			"stateMutability": "nonpayable",
			"type": "function"
		},
		{
			"inputs": [],
			"name": "name",
			"outputs": [
				{
					"internalType": "bytes20",
					"name": "",
					"type": "bytes20"
				}
			],
			"stateMutability": "view",
			"type": "function"
		},
		{
			"inputs": [
				{
					"internalType": "address",
					"name": "operator",
					"type": "address"
				},
				{
					"internalType": "address",
					"name": "from",
					"type": "address"
				},
				{
					"internalType": "uint16",
					"name": "tokenId",
					"type": "uint16"
				},
				{
					"internalType": "bytes",
					"name": "data",
					"type": "bytes"
				}
			],
			"name": "onERC721Received",
			"outputs": [
				{
					"internalType": "bytes4",
					"name": "",
					"type": "bytes4"
				}
			],
			"stateMutability": "nonpayable",
			"type": "function"
		},
		{
			"inputs": [
				{
					"internalType": "uint16",
					"name": "tokenId",
					"type": "uint16"
				}
			],
			"name": "ownerOf",
			"outputs": [
				{
					"internalType": "address",
					"name": "",
					"type": "address"
				}
			],
			"stateMutability": "view",
			"type": "function"
		},
		{
			"inputs": [
				{
					"internalType": "address",
					"name": "from",
					"type": "address"
				},
				{
					"internalType": "address",
					"name": "to",
					"type": "address"
				},
				{
					"internalType": "uint16",
					"name": "tokenId",
					"type": "uint16"
				}
			],
			"name": "safeTransferFrom",
			"outputs": [],
			"stateMutability": "nonpayable",
			"type": "function"
		},
		{
			"inputs": [
				{
					"internalType": "address",
					"name": "from",
					"type": "address"
				},
				{
					"internalType": "address",
					"name": "to",
					"type": "address"
				},
				{
					"internalType": "uint16",
					"name": "tokenId",
					"type": "uint16"
				},
				{
					"internalType": "bytes",
					"name": "data",
					"type": "bytes"
				}
			],
			"name": "safeTransferFrom",
			"outputs": [],
			"stateMutability": "nonpayable",
			"type": "function"
		},
		{
			"inputs": [
				{
					"internalType": "address",
					"name": "operator",
					"type": "address"
				},
				{
					"internalType": "bool",
					"name": "approved",
					"type": "bool"
				}
			],
			"name": "setApprovalForAll",
			"outputs": [],
			"stateMutability": "nonpayable",
			"type": "function"
		},
		{
			"inputs": [
				{
					"internalType": "uint16",
					"name": "newmaxMint",
					"type": "uint16"
				},
				{
					"internalType": "uint256",
					"name": "newregistrationStartTime",
					"type": "uint256"
				},
				{
					"internalType": "address",
					"name": "newexecutor",
					"type": "address"
				},
				{
					"internalType": "address",
					"name": "newbankAddress",
					"type": "address"
				},
				{
					"internalType": "uint256",
					"name": "newmintPrice",
					"type": "uint256"
				},
				{
					"internalType": "uint16[1201]",
					"name": "newTokenId",
					"type": "uint16[1201]"
				},
				{
					"internalType": "bytes32",
					"name": "descriptionHash",
					"type": "bytes32"
				},
				{
					"internalType": "address",
					"name": "governance",
					"type": "address"
				},
				{
					"internalType": "uint256",
					"name": "value",
					"type": "uint256"
				},
				{
					"internalType": "address",
					"name": "proposer",
					"type": "address"
				},
				{
					"internalType": "address",
					"name": "ballotAddress",
					"type": "address"
				}
			],
			"name": "setBallotForupdateMintInfo",
			"outputs": [],
			"stateMutability": "nonpayable",
			"type": "function"
		},
		{
			"inputs": [
				{
					"internalType": "uint16",
					"name": "tokenId",
					"type": "uint16"
				},
				{
					"internalType": "bool",
					"name": "set_",
					"type": "bool"
				}
			],
			"name": "setBan",
			"outputs": [
				{
					"internalType": "bool",
					"name": "",
					"type": "bool"
				}
			],
			"stateMutability": "nonpayable",
			"type": "function"
		},
		{
			"inputs": [
				{
					"internalType": "uint48",
					"name": "salt_",
					"type": "uint48"
				}
			],
			"name": "setRegister",
			"outputs": [
				{
					"internalType": "bytes",
					"name": "",
					"type": "bytes"
				}
			],
			"stateMutability": "payable",
			"type": "function"
		},
		{
			"inputs": [],
			"name": "symbol",
			"outputs": [
				{
					"internalType": "bytes10",
					"name": "",
					"type": "bytes10"
				}
			],
			"stateMutability": "view",
			"type": "function"
		},
		{
			"inputs": [
				{
					"internalType": "uint16",
					"name": "tokenId",
					"type": "uint16"
				}
			],
			"name": "tokenURI",
			"outputs": [
				{
					"internalType": "string",
					"name": "",
					"type": "string"
				}
			],
			"stateMutability": "view",
			"type": "function"
		},
		{
			"inputs": [
				{
					"internalType": "address",
					"name": "from",
					"type": "address"
				},
				{
					"internalType": "address",
					"name": "to",
					"type": "address"
				},
				{
					"internalType": "uint16",
					"name": "tokenId",
					"type": "uint16"
				}
			],
			"name": "transferFrom",
			"outputs": [],
			"stateMutability": "nonpayable",
			"type": "function"
		},
		{
			"inputs": [
				{
					"internalType": "uint16",
					"name": "newmaxMint",
					"type": "uint16"
				},
				{
					"internalType": "uint256",
					"name": "newregistrationStartTime",
					"type": "uint256"
				},
				{
					"internalType": "address",
					"name": "newexecutor",
					"type": "address"
				},
				{
					"internalType": "address",
					"name": "newbankAddress",
					"type": "address"
				},
				{
					"internalType": "uint256",
					"name": "newmintPrice",
					"type": "uint256"
				},
				{
					"internalType": "uint16[1201]",
					"name": "newTokenId",
					"type": "uint16[1201]"
				},
				{
					"internalType": "bytes32",
					"name": "descriptionHash",
					"type": "bytes32"
				},
				{
					"internalType": "address",
					"name": "governance",
					"type": "address"
				}
			],
			"name": "updateMintInfo",
			"outputs": [],
			"stateMutability": "payable",
			"type": "function"
		}
	]
}