{
	"data": {
		"bytecode": {
			"linkReferences": {},
			"object": "608060405234801562000010575f80fd5b5060405162003e8038038062003e8083398181016040528101906200003691906200019e565b815f806101000a81548173ffffffffffffffffffffffffffffffffffffffff021916908360601c0217905550805f60146101000a81548169ffffffffffffffffffff021916908360b01c021790555062000095620000df60201b60201c565b60015f0160066101000a81548173ffffffffffffffffffffffffffffffffffffffff021916908373ffffffffffffffffffffffffffffffffffffffff1602179055505050620001e3565b5f33905090565b5f80fd5b5f7fffffffffffffffffffffffffffffffffffffffff00000000000000000000000082169050919050565b6200012081620000ea565b81146200012b575f80fd5b50565b5f815190506200013e8162000115565b92915050565b5f7fffffffffffffffffffff0000000000000000000000000000000000000000000082169050919050565b6200017a8162000144565b811462000185575f80fd5b50565b5f8151905062000198816200016f565b92915050565b5f8060408385031215620001b757620001b6620000e6565b5b5f620001c6858286016200012e565b9250506020620001d98582860162000188565b9150509250929050565b613c8f80620001f15f395ff3fe608060405260043610610113575f3560e01c806393b871f21161009f578063d5ebe3df11610063578063d5ebe3df1461039f578063dd7d8440146103cf578063e560ca431461040b578063e985e9c514610433578063f12c2c7a1461046f57610113565b806393b871f2146102ad57806395d89b41146102e9578063a22cb46514610313578063b145ae311461033b578063b1cff3801461036357610113565b80633610feb3116100e65780633610feb3146101a75780634ec3dcfe146101e35780636e1514f11461020b57806370a082311461023557806382a7cf1e1461027157610113565b806306fdde031461011757806307394401146101415780630ab5b8cd146101695780631249c58b14610191575b5f80fd5b348015610122575f80fd5b5061012b6104ab565b6040516101389190612873565b60405180910390f35b34801561014c575f80fd5b506101676004803603810190610162919061292e565b6104bf565b005b348015610174575f80fd5b5061018f600480360381019061018a9190612af0565b6104de565b005b34801561019c575f80fd5b506101a561083d565b005b3480156101b2575f80fd5b506101cd60048036038101906101c89190612b7a565b610ddd565b6040516101da9190612bbf565b60405180910390f35b3480156101ee575f80fd5b506102096004803603810190610204919061292e565b610de3565b005b348015610216575f80fd5b5061021f61103c565b60405161022c9190612bf0565b60405180910390f35b348015610240575f80fd5b5061025b60048036038101906102569190612b7a565b611040565b6040516102689190612c18565b60405180910390f35b34801561027c575f80fd5b5061029760048036038101906102929190612c31565b611121565b6040516102a49190612c6b565b60405180910390f35b3480156102b8575f80fd5b506102d360048036038101906102ce9190612c31565b611132565b6040516102e09190612c6b565b60405180910390f35b3480156102f4575f80fd5b506102fd61117e565b60405161030a9190612cbe565b60405180910390f35b34801561031e575f80fd5b5061033960048036038101906103349190612d01565b611193565b005b348015610346575f80fd5b50610361600480360381019061035c9190612def565b61137f565b005b34801561036e575f80fd5b5061038960048036038101906103849190612ec8565b61139c565b6040516103969190612f86565b60405180910390f35b6103b960048036038101906103b49190612fda565b6113a6565b6040516103c6919061307f565b60405180910390f35b3480156103da575f80fd5b506103f560048036038101906103f09190612c31565b611753565b60405161040291906130f1565b60405180910390f35b348015610416575f80fd5b50610431600480360381019061042c9190613111565b6117bd565b005b34801561043e575f80fd5b506104596004803603810190610454919061314f565b6118e1565b6040516104669190612bbf565b60405180910390f35b34801561047a575f80fd5b506104956004803603810190610490919061318d565b611970565b6040516104a29190612bbf565b60405180910390f35b5f805f9054906101000a900460601b905090565b6104d983838360405180602001604052805f81525061137f565b505050565b60015f0160069054906101000a900473ffffffffffffffffffffffffffffffffffffffff1673ffffffffffffffffffffffffffffffffffffffff16610521611a37565b73ffffffffffffffffffffffffffffffffffffffff1614610577576040517f08c379a000000000000000000000000000000000000000000000000000000000815260040161056e9061323b565b60405180910390fd5b60015f0160049054906101000a900461ffff1661ffff168661ffff161180156105a05750428510155b6105df576040517f08c379a00000000000000000000000000000000000000000000000000000000081526004016105d6906132c9565b60405180910390fd5b805f6104b181106105f3576105f26132e7565b5b602002015161ffff1660015f0160029054906101000a900461ffff168761061a9190613341565b61ffff161461067857805f6104b18110610637576106366132e7565b5b60200201516040517fca70e27000000000000000000000000000000000000000000000000000000000815260040161066f9190612c18565b60405180910390fd5b6103e88661ffff1611156106ee575f6104b08761ffff161080156106a2575061069f61103c565b81145b6106e1576040517f08c379a00000000000000000000000000000000000000000000000000000000081526004016106d8906133e6565b60405180910390fd5b5f6106eb81611a3e565b50505b8560015f015f6101000a81548161ffff021916908361ffff160217905550846001600201819055508360015f0160066101000a81548173ffffffffffffffffffffffffffffffffffffffff021916908373ffffffffffffffffffffffffffffffffffffffff16021790555082600180015f6101000a81548173ffffffffffffffffffffffffffffffffffffffff021916908373ffffffffffffffffffffffffffffffffffffffff1602179055508160016003018190555080610a7e5f8073ffffffffffffffffffffffffffffffffffffffff1673ffffffffffffffffffffffffffffffffffffffff1681526020019081526020015f20906104b16107f3929190612781565b50848661ffff167f7f5da92c8cf80f4a196e12ba4e13abc4fd2645f0248ad338ebd76ebb4189828186868660405161082d93929190613413565b60405180910390a3505050505050565b60015f0160069054906101000a900473ffffffffffffffffffffffffffffffffffffffff1673ffffffffffffffffffffffffffffffffffffffff16610880611a37565b73ffffffffffffffffffffffffffffffffffffffff16146108d6576040517f08c379a00000000000000000000000000000000000000000000000000000000081526004016108cd90613492565b60405180910390fd5b60015f0160029054906101000a900461ffff1661ffff1660015f0160049054906101000a900461ffff1661ffff161115610d8c575f60016004016104b18060200260405190810160405280929190826104b18015610978576020028201915f905b82829054906101000a900465ffffffffffff1665ffffffffffff16815260200190600601906020826005010492830192600103820291508084116109375790505b505050505090505f600160f5016104b18060200260405190810160405280929190826104b180156109f3576020028201915b815f9054906101000a900473ffffffffffffffffffffffffffffffffffffffff1673ffffffffffffffffffffffffffffffffffffffff16815260200190600101908083116109aa575b505050505090505f60015f0160029054906101000a900461ffff1660015f0160049054906101000a900461ffff16610a2b9190613341565b90505f60015f0160029054906101000a900461ffff1660015f015f9054906101000a900461ffff16610a5d9190613341565b90505f60015f01600281819054906101000a900461ffff16610a7e906134b0565b91906101000a81548161ffff021916908361ffff160217905590505f60015f0160049054906101000a900461ffff1690505f4290505b8161ffff168361ffff1611610d4f575f83888561ffff166104b18110610add57610adc6132e7565b5b602002015165ffffffffffff16838a5f6104b18110610aff57610afe6132e7565b5b602002015165ffffffffffff16610b1691906134d9565b610b2091906134d9565b610b2a9190613539565b90505f83895f6104b18110610b4257610b416132e7565b5b60200201518a8461ffff166104b18110610b5f57610b5e6132e7565b5b6020020151610b6e9190613569565b610b789190613539565b90505f85888b8461ffff166104b18110610b9557610b946132e7565b5b60200201518c8661ffff166104b18110610bb257610bb16132e7565b5b6020020151610bc19190613569565b610bcb9190613539565b610bd591906135a2565b90505f898261ffff166104b18110610bf057610bef6132e7565b5b60200201519050898761ffff166104b18110610c0f57610c0e6132e7565b5b60200201518a8361ffff166104b18110610c2c57610c2b6132e7565b5b602002019073ffffffffffffffffffffffffffffffffffffffff16908173ffffffffffffffffffffffffffffffffffffffff1681525050808a8861ffff166104b18110610c7c57610c7b6132e7565b5b602002019073ffffffffffffffffffffffffffffffffffffffff16908173ffffffffffffffffffffffffffffffffffffffff16815250505f888c8461ffff166104b18110610ccd57610ccc6132e7565b5b60200201518d8761ffff166104b18110610cea57610ce96132e7565b5b6020020151610cf99190613569565b610d039190613539565b90505f8161ffff1603610d14578890505b610d1f82825f611a41565b89610d29906135d7565b995088610d35906135d7565b985050505050508280610d47906134b0565b935050610ab4565b60015f0160049054906101000a900461ffff1660015f0160026101000a81548161ffff021916908361ffff16021790555050505050505050610ddb565b60015f0160049054906101000a900461ffff166040517f72864e7c000000000000000000000000000000000000000000000000000000008152600401610dd29190612c18565b60405180910390fd5b565b5f919050565b5f73ffffffffffffffffffffffffffffffffffffffff168273ffffffffffffffffffffffffffffffffffffffff1603610e53575f6040517f64a0ae92000000000000000000000000000000000000000000000000000000008152600401610e4a9190612c6b565b60405180910390fd5b5f610e5d826121bf565b9050610a588261ffff166104b18110610e7957610e786132e7565b5b602091828204019190069054906101000a900460ff1615610ecf576040517f08c379a0000000000000000000000000000000000000000000000000000000008152600401610ec69061366e565b60405180910390fd5b8073ffffffffffffffffffffffffffffffffffffffff16610eee611a37565b73ffffffffffffffffffffffffffffffffffffffff161480610f1d5750610f1c81610f17611a37565b6118e1565b5b80610f625750610f2b611a37565b73ffffffffffffffffffffffffffffffffffffffff16610f4a83611132565b73ffffffffffffffffffffffffffffffffffffffff16145b610fac57610f6e611a37565b826040517f177e802f000000000000000000000000000000000000000000000000000000008152600401610fa39291906136c5565b60405180910390fd5b8373ffffffffffffffffffffffffffffffffffffffff168173ffffffffffffffffffffffffffffffffffffffff1614611020578382826040517f64283d7b000000000000000000000000000000000000000000000000000000008152600401611017939291906136ec565b60405180910390fd5b61102b5f83836122e2565b611036838383611a41565b50505050565b5f90565b5f8073ffffffffffffffffffffffffffffffffffffffff168273ffffffffffffffffffffffffffffffffffffffff16036110af576040517f08c379a00000000000000000000000000000000000000000000000000000000081526004016110a69061376b565b60405180910390fd5b610a7e5f8373ffffffffffffffffffffffffffffffffffffffff1673ffffffffffffffffffffffffffffffffffffffff1681526020019081526020015f205f6104b18110611100576110ff6132e7565b5b601091828204019190066002029054906101000a900461ffff169050919050565b5f61112b826121bf565b9050919050565b5f61113c826121bf565b50610a7f5f8361ffff1661ffff1681526020019081526020015f205f9054906101000a900473ffffffffffffffffffffffffffffffffffffffff169050919050565b5f8060149054906101000a900460b01b905090565b8173ffffffffffffffffffffffffffffffffffffffff166111b2611a37565b73ffffffffffffffffffffffffffffffffffffffff1603611208576040517f08c379a00000000000000000000000000000000000000000000000000000000081526004016111ff906137f9565b60405180910390fd5b5f73ffffffffffffffffffffffffffffffffffffffff168273ffffffffffffffffffffffffffffffffffffffff160361127857816040517f5b08ba1800000000000000000000000000000000000000000000000000000000815260040161126f9190612c6b565b60405180910390fd5b80610a805f611285611a37565b73ffffffffffffffffffffffffffffffffffffffff1673ffffffffffffffffffffffffffffffffffffffff1681526020019081526020015f205f8473ffffffffffffffffffffffffffffffffffffffff1673ffffffffffffffffffffffffffffffffffffffff1681526020019081526020015f205f6101000a81548160ff0219169083151502179055508173ffffffffffffffffffffffffffffffffffffffff1661132e611a37565b73ffffffffffffffffffffffffffffffffffffffff167f17307eab39ab6107e8899845ad3d59bd9653f200f220920489ca2b5937696c31836040516113739190612bbf565b60405180910390a35050565b61138a848484610de3565b6113968484848461239e565b50505050565b5f95945050505050565b606060015f015f9054906101000a900461ffff1661ffff1660015f0160049054906101000a900461ffff1661ffff16111580156113e857504260016002015411155b611427576040517f08c379a000000000000000000000000000000000000000000000000000000000815260040161141e90613887565b60405180910390fd5b5f73ffffffffffffffffffffffffffffffffffffffff16611446611a37565b73ffffffffffffffffffffffffffffffffffffffff161415801561148757505f61146e611a37565b73ffffffffffffffffffffffffffffffffffffffff163b145b6114c6576040517f08c379a00000000000000000000000000000000000000000000000000000000081526004016114bd9061393b565b60405180910390fd5b60016003015434101561150e576040517f08c379a0000000000000000000000000000000000000000000000000000000008152600401611505906139c9565b60405180910390fd5b5f80600180015f9054906101000a900473ffffffffffffffffffffffffffffffffffffffff1673ffffffffffffffffffffffffffffffffffffffff163460405161155790613a14565b5f6040518083038185875af1925050503d805f8114611591576040519150601f19603f3d011682016040523d82523d5f602084013e611596565b606091505b5091509150816115db576040517f08c379a00000000000000000000000000000000000000000000000000000000081526004016115d290613a72565b60405180910390fd5b60015f01600481819054906101000a900461ffff166115f9906134b0565b91906101000a81548161ffff021916908361ffff16021790555083600160040160015f0160049054906101000a900461ffff1661ffff166104b18110611642576116416132e7565b5b600591828204019190066006026101000a81548165ffffffffffff021916908365ffffffffffff1602179055508360016004015f6104b18110611688576116876132e7565b5b600591828204019190066006028282829054906101000a900465ffffffffffff166116b39190613569565b92506101000a81548165ffffffffffff021916908365ffffffffffff1602179055506116dd611a37565b600160f50160015f0160049054906101000a900461ffff1661ffff166104b1811061170b5761170a6132e7565b5b015f6101000a81548173ffffffffffffffffffffffffffffffffffffffff021916908373ffffffffffffffffffffffffffffffffffffffff1602179055508092505050919050565b606061175e826121bf565b505f611768612550565b90505f8151116117865760405180602001604052805f8152506117b5565b806117948461ffff16612566565b6040516020016117a5929190613aca565b6040516020818303038152906040525b915050919050565b5f6117c7826121bf565b90508273ffffffffffffffffffffffffffffffffffffffff168173ffffffffffffffffffffffffffffffffffffffff1603611837576040517f08c379a000000000000000000000000000000000000000000000000000000000815260040161182e906137f9565b60405180910390fd5b61183f611a37565b73ffffffffffffffffffffffffffffffffffffffff168173ffffffffffffffffffffffffffffffffffffffff1614158015611888575061188681611881611a37565b6118e1565b155b156118d157611895611a37565b6040517fa9fbf51f0000000000000000000000000000000000000000000000000000000081526004016118c89190612c6b565b60405180910390fd5b6118dc8383836122e2565b505050565b5f610a805f8473ffffffffffffffffffffffffffffffffffffffff1673ffffffffffffffffffffffffffffffffffffffff1681526020019081526020015f205f8373ffffffffffffffffffffffffffffffffffffffff1673ffffffffffffffffffffffffffffffffffffffff1681526020019081526020015f205f9054906101000a900460ff16905092915050565b5f8061197b846121bf565b90505f808273ffffffffffffffffffffffffffffffffffffffff1661199e611a37565b73ffffffffffffffffffffffffffffffffffffffff16036119c157849150611a23565b6119d16119cc611a37565b610ddd565b156119de57849050611a22565b6119e6611a37565b6040517ff7a3f9f3000000000000000000000000000000000000000000000000000000008152600401611a199190612c6b565b60405180910390fd5b5b8080611a2c5750815b935050505092915050565b5f33905090565b50565b5f610a7e5f8373ffffffffffffffffffffffffffffffffffffffff1673ffffffffffffffffffffffffffffffffffffffff1681526020019081526020015f205f6104b18110611a9357611a926132e7565b5b601091828204019190066002029054906101000a900461ffff1690505f73ffffffffffffffffffffffffffffffffffffffff168273ffffffffffffffffffffffffffffffffffffffff1614611c7b575f600190505b8161ffff168161ffff1611611c75578361ffff16610a7e5f8573ffffffffffffffffffffffffffffffffffffffff1673ffffffffffffffffffffffffffffffffffffffff1681526020019081526020015f208261ffff166104b18110611b5157611b506132e7565b5b601091828204019190066002029054906101000a900461ffff1661ffff1603611c6257610a7e5f8473ffffffffffffffffffffffffffffffffffffffff1673ffffffffffffffffffffffffffffffffffffffff1681526020019081526020015f208261ffff166104b18110611bc957611bc86132e7565b5b601091828204019190066002029054906101000a900461ffff16610a7e5f8573ffffffffffffffffffffffffffffffffffffffff1673ffffffffffffffffffffffffffffffffffffffff1681526020019081526020015f208261ffff166104b18110611c3857611c376132e7565b5b601091828204019190066002026101000a81548161ffff021916908361ffff160217905550611c75565b8080611c6d906134b0565b915050611ae8565b50611e85565b5f839050610a7e5f8473ffffffffffffffffffffffffffffffffffffffff1673ffffffffffffffffffffffffffffffffffffffff1681526020019081526020015f208161ffff166104b18110611cd457611cd36132e7565b5b601091828204019190066002029054906101000a900461ffff1693505f73ffffffffffffffffffffffffffffffffffffffff166105a78561ffff166104b18110611d2157611d206132e7565b5b015f9054906101000a900473ffffffffffffffffffffffffffffffffffffffff1673ffffffffffffffffffffffffffffffffffffffff1614611d9a57806040517f71e52b9c000000000000000000000000000000000000000000000000000000008152600401611d919190612c18565b60405180910390fd5b610a7e5f8473ffffffffffffffffffffffffffffffffffffffff1673ffffffffffffffffffffffffffffffffffffffff1681526020019081526020015f208261ffff166104b18110611def57611dee6132e7565b5b601091828204019190066002029054906101000a900461ffff16610a7e5f8573ffffffffffffffffffffffffffffffffffffffff1673ffffffffffffffffffffffffffffffffffffffff1681526020019081526020015f208261ffff166104b18110611e5e57611e5d6132e7565b5b601091828204019190066002026101000a81548161ffff021916908361ffff160217905550505b5f610a7e5f8473ffffffffffffffffffffffffffffffffffffffff1673ffffffffffffffffffffffffffffffffffffffff1681526020019081526020015f208261ffff166104b18110611edb57611eda6132e7565b5b601091828204019190066002026101000a81548161ffff021916908361ffff1602179055506001610a7e5f8473ffffffffffffffffffffffffffffffffffffffff1673ffffffffffffffffffffffffffffffffffffffff1681526020019081526020015f205f6104b18110611f5357611f526132e7565b5b601091828204019190066002028282829054906101000a900461ffff16611f7a9190613341565b92506101000a81548161ffff021916908361ffff1602179055505f6001610a7e5f8773ffffffffffffffffffffffffffffffffffffffff1673ffffffffffffffffffffffffffffffffffffffff1681526020019081526020015f205f6104b18110611fe857611fe76132e7565b5b601091828204019190066002029054906101000a900461ffff1661200c91906135a2565b905083610a7e5f8773ffffffffffffffffffffffffffffffffffffffff1673ffffffffffffffffffffffffffffffffffffffff1681526020019081526020015f208261ffff166104b18110612064576120636132e7565b5b601091828204019190066002026101000a81548161ffff021916908361ffff16021790555080610a7e5f8773ffffffffffffffffffffffffffffffffffffffff1673ffffffffffffffffffffffffffffffffffffffff1681526020019081526020015f205f6104b181106120db576120da6132e7565b5b601091828204019190066002026101000a81548161ffff021916908361ffff160217905550846105a78561ffff166104b1811061211b5761211a6132e7565b5b015f6101000a81548173ffffffffffffffffffffffffffffffffffffffff021916908373ffffffffffffffffffffffffffffffffffffffff1602179055508361ffff168573ffffffffffffffffffffffffffffffffffffffff168473ffffffffffffffffffffffffffffffffffffffff167f89896edbd223c9360ce42ddfed7522a2bffb20c056e4c42d42370cb493b6567660405160405180910390a45050505050565b5f8161ffff165f1080156121ec575060015f015f9054906101000a900461ffff1661ffff168261ffff1611155b61222b576040517f08c379a000000000000000000000000000000000000000000000000000000000815260040161222290613b83565b60405180910390fd5b5f6105a78361ffff166104b18110612246576122456132e7565b5b015f9054906101000a900473ffffffffffffffffffffffffffffffffffffffff1690505f73ffffffffffffffffffffffffffffffffffffffff168173ffffffffffffffffffffffffffffffffffffffff16036122d957826040517f7e2732890000000000000000000000000000000000000000000000000000000081526004016122d09190613ba1565b60405180910390fd5b80915050919050565b82610a7f5f8461ffff1661ffff1681526020019081526020015f205f6101000a81548173ffffffffffffffffffffffffffffffffffffffff021916908373ffffffffffffffffffffffffffffffffffffffff1602179055508161ffff168373ffffffffffffffffffffffffffffffffffffffff168273ffffffffffffffffffffffffffffffffffffffff167f0a9d294fd4bd42bb30e96cba2b478d149a783fba3c729b1e5c42bec89d95b85a60405160405180910390a4505050565b5f8373ffffffffffffffffffffffffffffffffffffffff163b111561254a578273ffffffffffffffffffffffffffffffffffffffff1663b1cff3806123e1611a37565b8685856040518563ffffffff1660e01b81526004016124039493929190613bba565b6020604051808303815f875af192505050801561243e57506040513d601f19601f8201168201806040525081019061243b9190613c2e565b60015b6124bf573d805f811461246c576040519150601f19603f3d011682016040523d82523d5f602084013e612471565b606091505b505f8151036124b757836040517f64a0ae920000000000000000000000000000000000000000000000000000000081526004016124ae9190612c6b565b60405180910390fd5b805181602001fd5b63b1cff38060e01b7bffffffffffffffffffffffffffffffffffffffffffffffffffffffff1916817bffffffffffffffffffffffffffffffffffffffffffffffffffffffff19161461254857836040517f64a0ae9200000000000000000000000000000000000000000000000000000000815260040161253f9190612c6b565b60405180910390fd5b505b50505050565b606060405180602001604052805f815250905090565b60605f600161257484612630565b0190505f8167ffffffffffffffff811115612592576125916129c5565b5b6040519080825280601f01601f1916602001820160405280156125c45781602001600182028036833780820191505090505b5090505f82602001820190505b600115612625578080600190039150507f3031323334353637383961626364656600000000000000000000000000000000600a86061a8153600a858161261a5761261961350c565b5b0494505f85036125d1575b819350505050919050565b5f805f90507a184f03e93ff9f4daa797ed6e38ed64bf6a1f010000000000000000831061268c577a184f03e93ff9f4daa797ed6e38ed64bf6a1f01000000000000000083816126825761268161350c565b5b0492506040810190505b6d04ee2d6d415b85acef810000000083106126c9576d04ee2d6d415b85acef810000000083816126bf576126be61350c565b5b0492506020810190505b662386f26fc1000083106126f857662386f26fc1000083816126ee576126ed61350c565b5b0492506010810190505b6305f5e1008310612721576305f5e10083816127175761271661350c565b5b0492506008810190505b612710831061274657612710838161273c5761273b61350c565b5b0492506004810190505b60648310612769576064838161275f5761275e61350c565b5b0492506002810190505b600a8310612778576001810190505b80915050919050565b826104b1600f0160109004810192821561280d579160200282015f5b838211156127dd57835183826101000a81548161ffff021916908361ffff160217905550926020019260020160208160010104928301926001030261279d565b801561280b5782816101000a81549061ffff02191690556002016020816001010492830192600103026127dd565b505b50905061281a919061281e565b5090565b5b80821115612835575f815f90555060010161281f565b5090565b5f7fffffffffffffffffffffffffffffffffffffffff00000000000000000000000082169050919050565b61286d81612839565b82525050565b5f6020820190506128865f830184612864565b92915050565b5f604051905090565b5f80fd5b5f80fd5b5f73ffffffffffffffffffffffffffffffffffffffff82169050919050565b5f6128c68261289d565b9050919050565b6128d6816128bc565b81146128e0575f80fd5b50565b5f813590506128f1816128cd565b92915050565b5f61ffff82169050919050565b61290d816128f7565b8114612917575f80fd5b50565b5f8135905061292881612904565b92915050565b5f805f6060848603121561294557612944612895565b5b5f612952868287016128e3565b9350506020612963868287016128e3565b92505060406129748682870161291a565b9150509250925092565b5f819050919050565b6129908161297e565b811461299a575f80fd5b50565b5f813590506129ab81612987565b92915050565b5f80fd5b5f601f19601f8301169050919050565b7f4e487b71000000000000000000000000000000000000000000000000000000005f52604160045260245ffd5b6129fb826129b5565b810181811067ffffffffffffffff82111715612a1a57612a196129c5565b5b80604052505050565b5f612a2c61288c565b9050612a3882826129f2565b919050565b5f67ffffffffffffffff821115612a5757612a566129c5565b5b602082029050919050565b5f80fd5b5f612a78612a7384612a3d565b612a23565b90508060208402830185811115612a9257612a91612a62565b5b835b81811015612abb5780612aa7888261291a565b845260208401935050602081019050612a94565b5050509392505050565b5f82601f830112612ad957612ad86129b1565b5b6104b1612ae7848285612a66565b91505092915050565b5f805f805f806196c08789031215612b0b57612b0a612895565b5b5f612b1889828a0161291a565b9650506020612b2989828a0161299d565b9550506040612b3a89828a016128e3565b9450506060612b4b89828a016128e3565b9350506080612b5c89828a0161299d565b92505060a0612b6d89828a01612ac5565b9150509295509295509295565b5f60208284031215612b8f57612b8e612895565b5b5f612b9c848285016128e3565b91505092915050565b5f8115159050919050565b612bb981612ba5565b82525050565b5f602082019050612bd25f830184612bb0565b92915050565b5f819050919050565b612bea81612bd8565b82525050565b5f602082019050612c035f830184612be1565b92915050565b612c12816128f7565b82525050565b5f602082019050612c2b5f830184612c09565b92915050565b5f60208284031215612c4657612c45612895565b5b5f612c538482850161291a565b91505092915050565b612c65816128bc565b82525050565b5f602082019050612c7e5f830184612c5c565b92915050565b5f7fffffffffffffffffffff0000000000000000000000000000000000000000000082169050919050565b612cb881612c84565b82525050565b5f602082019050612cd15f830184612caf565b92915050565b612ce081612ba5565b8114612cea575f80fd5b50565b5f81359050612cfb81612cd7565b92915050565b5f8060408385031215612d1757612d16612895565b5b5f612d24858286016128e3565b9250506020612d3585828601612ced565b9150509250929050565b5f80fd5b5f67ffffffffffffffff821115612d5d57612d5c6129c5565b5b612d66826129b5565b9050602081019050919050565b828183375f83830152505050565b5f612d93612d8e84612d43565b612a23565b905082815260208101848484011115612daf57612dae612d3f565b5b612dba848285612d73565b509392505050565b5f82601f830112612dd657612dd56129b1565b5b8135612de6848260208601612d81565b91505092915050565b5f805f8060808587031215612e0757612e06612895565b5b5f612e14878288016128e3565b9450506020612e25878288016128e3565b9350506040612e368782880161291a565b925050606085013567ffffffffffffffff811115612e5757612e56612899565b5b612e6387828801612dc2565b91505092959194509250565b5f80fd5b5f8083601f840112612e8857612e876129b1565b5b8235905067ffffffffffffffff811115612ea557612ea4612e6f565b5b602083019150836001820283011115612ec157612ec0612a62565b5b9250929050565b5f805f805f60808688031215612ee157612ee0612895565b5b5f612eee888289016128e3565b9550506020612eff888289016128e3565b9450506040612f108882890161291a565b935050606086013567ffffffffffffffff811115612f3157612f30612899565b5b612f3d88828901612e73565b92509250509295509295909350565b5f7fffffffff0000000000000000000000000000000000000000000000000000000082169050919050565b612f8081612f4c565b82525050565b5f602082019050612f995f830184612f77565b92915050565b5f65ffffffffffff82169050919050565b612fb981612f9f565b8114612fc3575f80fd5b50565b5f81359050612fd481612fb0565b92915050565b5f60208284031215612fef57612fee612895565b5b5f612ffc84828501612fc6565b91505092915050565b5f81519050919050565b5f82825260208201905092915050565b5f5b8381101561303c578082015181840152602081019050613021565b5f8484015250505050565b5f61305182613005565b61305b818561300f565b935061306b81856020860161301f565b613074816129b5565b840191505092915050565b5f6020820190508181035f8301526130978184613047565b905092915050565b5f81519050919050565b5f82825260208201905092915050565b5f6130c38261309f565b6130cd81856130a9565b93506130dd81856020860161301f565b6130e6816129b5565b840191505092915050565b5f6020820190508181035f83015261310981846130b9565b905092915050565b5f806040838503121561312757613126612895565b5b5f613134858286016128e3565b92505060206131458582860161291a565b9150509250929050565b5f806040838503121561316557613164612895565b5b5f613172858286016128e3565b9250506020613183858286016128e3565b9150509250929050565b5f80604083850312156131a3576131a2612895565b5b5f6131b08582860161291a565b92505060206131c185828601612ced565b9150509250929050565b7f596f7520646f206e6f7420686176652061636365737320746f207468697320665f8201527f756e6374696f6e00000000000000000000000000000000000000000000000000602082015250565b5f6132256027836130a9565b9150613230826131cb565b604082019050919050565b5f6020820190508181035f83015261325281613219565b9050919050565b7f54686520656e746572656420706172616d657465727320617265206e6f7420615f8201527f636365707461626c650000000000000000000000000000000000000000000000602082015250565b5f6132b36029836130a9565b91506132be82613259565b604082019050919050565b5f6020820190508181035f8301526132e0816132a7565b9050919050565b7f4e487b71000000000000000000000000000000000000000000000000000000005f52603260045260245ffd5b7f4e487b71000000000000000000000000000000000000000000000000000000005f52601160045260245ffd5b5f61334b826128f7565b9150613356836128f7565b9250828203905061ffff8111156133705761336f613314565b5b92915050565b7f596f7520646f206e6f742068617665207065726d697373696f6e20746f2075705f8201527f6772616465000000000000000000000000000000000000000000000000000000602082015250565b5f6133d06025836130a9565b91506133db82613376565b604082019050919050565b5f6020820190508181035f8301526133fd816133c4565b9050919050565b61340d8161297e565b82525050565b5f6060820190506134265f830186612c5c565b6134336020830185612c5c565b6134406040830184613404565b949350505050565b7f416363657373206f6e6c7920666f72206578656375746f7200000000000000005f82015250565b5f61347c6018836130a9565b915061348782613448565b602082019050919050565b5f6020820190508181035f8301526134a981613470565b9050919050565b5f6134ba826128f7565b915061ffff82036134ce576134cd613314565b5b600182019050919050565b5f6134e38261297e565b91506134ee8361297e565b925082820190508082111561350657613505613314565b5b92915050565b7f4e487b71000000000000000000000000000000000000000000000000000000005f52601260045260245ffd5b5f613543826128f7565b915061354e836128f7565b92508261355e5761355d61350c565b5b828206905092915050565b5f61357382612f9f565b915061357e83612f9f565b9250828201905065ffffffffffff81111561359c5761359b613314565b5b92915050565b5f6135ac826128f7565b91506135b7836128f7565b9250828201905061ffff8111156135d1576135d0613314565b5b92915050565b5f6135e1826128f7565b91505f82036135f3576135f2613314565b5b600182039050919050565b7f546865207472616e73666572206f66207468697320746f6b656e2069732063755f8201527f7272656e746c792062616e6e6564000000000000000000000000000000000000602082015250565b5f613658602e836130a9565b9150613663826135fe565b604082019050919050565b5f6020820190508181035f8301526136858161364c565b9050919050565b5f819050919050565b5f6136af6136aa6136a5846128f7565b61368c565b61297e565b9050919050565b6136bf81613695565b82525050565b5f6040820190506136d85f830185612c5c565b6136e560208301846136b6565b9392505050565b5f6060820190506136ff5f830186612c5c565b61370c60208301856136b6565b6137196040830184612c5c565b949350505050565b7f54686520696e70757420616464726573732063616e6e6f74206265207a65726f5f82015250565b5f6137556020836130a9565b915061376082613721565b602082019050919050565b5f6020820190508181035f83015261378281613749565b9050919050565b7f5468652061646472657373206f6620746865206f776e657220616e64207468655f8201527f206f70657261746f72206d75737420626520646966666572656e740000000000602082015250565b5f6137e3603b836130a9565b91506137ee82613789565b604082019050919050565b5f6020820190508181035f830152613810816137d7565b9050919050565b7f4974206973206e6f7420706f737369626c6520746f207265676973746572206e5f8201527f6f77000000000000000000000000000000000000000000000000000000000000602082015250565b5f6138716022836130a9565b915061387c82613817565b604082019050919050565b5f6020820190508181035f83015261389e81613865565b9050919050565b7f5468652061646472657373206f66207468652072656769737472616e74206d755f8201527f7374206e6f742062652030206f72207468652061646472657373206f6620612060208201527f636f6e7472616374000000000000000000000000000000000000000000000000604082015250565b5f6139256048836130a9565b9150613930826138a5565b606082019050919050565b5f6020820190508181035f83015261395281613919565b9050919050565b7f54686520616d6f756e742073686f756c64206e6f74206265206c6573732074685f8201527f616e20746865206d696e74207072696365000000000000000000000000000000602082015250565b5f6139b36031836130a9565b91506139be82613959565b604082019050919050565b5f6020820190508181035f8301526139e0816139a7565b9050919050565b5f81905092915050565b50565b5f6139ff5f836139e7565b9150613a0a826139f1565b5f82019050919050565b5f613a1e826139f4565b9150819050919050565b7f54686520616d6f756e7420776173206e6f742073656e740000000000000000005f82015250565b5f613a5c6017836130a9565b9150613a6782613a28565b602082019050919050565b5f6020820190508181035f830152613a8981613a50565b9050919050565b5f81905092915050565b5f613aa48261309f565b613aae8185613a90565b9350613abe81856020860161301f565b80840191505092915050565b5f613ad58285613a9a565b9150613ae18284613a9a565b91508190509392505050565b7f54686520494420656e746572656420697320696e76616c69642e204974206d755f8201527f737420626520696e207468697320696e74657276616c2030203c206964203c3d60208201527f206d6178696d756d206d696e7461626c6520746f6b656e730000000000000000604082015250565b5f613b6d6058836130a9565b9150613b7882613aed565b606082019050919050565b5f6020820190508181035f830152613b9a81613b61565b9050919050565b5f602082019050613bb45f8301846136b6565b92915050565b5f608082019050613bcd5f830187612c5c565b613bda6020830186612c5c565b613be76040830185612c09565b8181036060830152613bf98184613047565b905095945050505050565b613c0d81612f4c565b8114613c17575f80fd5b50565b5f81519050613c2881613c04565b92915050565b5f60208284031215613c4357613c42612895565b5b5f613c5084828501613c1a565b9150509291505056fea2646970667358221220b9f059470b98d1a80a2f079113437d4dae8602fa1f822821fcea6f92856b268864736f6c63430008140033",
			"opcodes": "PUSH1 0x80 PUSH1 0x40 MSTORE CALLVALUE DUP1 ISZERO PUSH3 0x10 JUMPI PUSH0 DUP1 REVERT JUMPDEST POP PUSH1 0x40 MLOAD PUSH3 0x3E80 CODESIZE SUB DUP1 PUSH3 0x3E80 DUP4 CODECOPY DUP2 DUP2 ADD PUSH1 0x40 MSTORE DUP2 ADD SWAP1 PUSH3 0x36 SWAP2 SWAP1 PUSH3 0x19E JUMP JUMPDEST DUP2 PUSH0 DUP1 PUSH2 0x100 EXP DUP2 SLOAD DUP2 PUSH20 0xFFFFFFFFFFFFFFFFFFFFFFFFFFFFFFFFFFFFFFFF MUL NOT AND SWAP1 DUP4 PUSH1 0x60 SHR MUL OR SWAP1 SSTORE POP DUP1 PUSH0 PUSH1 0x14 PUSH2 0x100 EXP DUP2 SLOAD DUP2 PUSH10 0xFFFFFFFFFFFFFFFFFFFF MUL NOT AND SWAP1 DUP4 PUSH1 0xB0 SHR MUL OR SWAP1 SSTORE POP PUSH3 0x95 PUSH3 0xDF PUSH1 0x20 SHL PUSH1 0x20 SHR JUMP JUMPDEST PUSH1 0x1 PUSH0 ADD PUSH1 0x6 PUSH2 0x100 EXP DUP2 SLOAD DUP2 PUSH20 0xFFFFFFFFFFFFFFFFFFFFFFFFFFFFFFFFFFFFFFFF MUL NOT AND SWAP1 DUP4 PUSH20 0xFFFFFFFFFFFFFFFFFFFFFFFFFFFFFFFFFFFFFFFF AND MUL OR SWAP1 SSTORE POP POP POP PUSH3 0x1E3 JUMP JUMPDEST PUSH0 CALLER SWAP1 POP SWAP1 JUMP JUMPDEST PUSH0 DUP1 REVERT JUMPDEST PUSH0 PUSH32 0xFFFFFFFFFFFFFFFFFFFFFFFFFFFFFFFFFFFFFFFF000000000000000000000000 DUP3 AND SWAP1 POP SWAP2 SWAP1 POP JUMP JUMPDEST PUSH3 0x120 DUP2 PUSH3 0xEA JUMP JUMPDEST DUP2 EQ PUSH3 0x12B JUMPI PUSH0 DUP1 REVERT JUMPDEST POP JUMP JUMPDEST PUSH0 DUP2 MLOAD SWAP1 POP PUSH3 0x13E DUP2 PUSH3 0x115 JUMP JUMPDEST SWAP3 SWAP2 POP POP JUMP JUMPDEST PUSH0 PUSH32 0xFFFFFFFFFFFFFFFFFFFF00000000000000000000000000000000000000000000 DUP3 AND SWAP1 POP SWAP2 SWAP1 POP JUMP JUMPDEST PUSH3 0x17A DUP2 PUSH3 0x144 JUMP JUMPDEST DUP2 EQ PUSH3 0x185 JUMPI PUSH0 DUP1 REVERT JUMPDEST POP JUMP JUMPDEST PUSH0 DUP2 MLOAD SWAP1 POP PUSH3 0x198 DUP2 PUSH3 0x16F JUMP JUMPDEST SWAP3 SWAP2 POP POP JUMP JUMPDEST PUSH0 DUP1 PUSH1 0x40 DUP4 DUP6 SUB SLT ISZERO PUSH3 0x1B7 JUMPI PUSH3 0x1B6 PUSH3 0xE6 JUMP JUMPDEST JUMPDEST PUSH0 PUSH3 0x1C6 DUP6 DUP3 DUP7 ADD PUSH3 0x12E JUMP JUMPDEST SWAP3 POP POP PUSH1 0x20 PUSH3 0x1D9 DUP6 DUP3 DUP7 ADD PUSH3 0x188 JUMP JUMPDEST SWAP2 POP POP SWAP3 POP SWAP3 SWAP1 POP JUMP JUMPDEST PUSH2 0x3C8F DUP1 PUSH3 0x1F1 PUSH0 CODECOPY PUSH0 RETURN INVALID PUSH1 0x80 PUSH1 0x40 MSTORE PUSH1 0x4 CALLDATASIZE LT PUSH2 0x113 JUMPI PUSH0 CALLDATALOAD PUSH1 0xE0 SHR DUP1 PUSH4 0x93B871F2 GT PUSH2 0x9F JUMPI DUP1 PUSH4 0xD5EBE3DF GT PUSH2 0x63 JUMPI DUP1 PUSH4 0xD5EBE3DF EQ PUSH2 0x39F JUMPI DUP1 PUSH4 0xDD7D8440 EQ PUSH2 0x3CF JUMPI DUP1 PUSH4 0xE560CA43 EQ PUSH2 0x40B JUMPI DUP1 PUSH4 0xE985E9C5 EQ PUSH2 0x433 JUMPI DUP1 PUSH4 0xF12C2C7A EQ PUSH2 0x46F JUMPI PUSH2 0x113 JUMP JUMPDEST DUP1 PUSH4 0x93B871F2 EQ PUSH2 0x2AD JUMPI DUP1 PUSH4 0x95D89B41 EQ PUSH2 0x2E9 JUMPI DUP1 PUSH4 0xA22CB465 EQ PUSH2 0x313 JUMPI DUP1 PUSH4 0xB145AE31 EQ PUSH2 0x33B JUMPI DUP1 PUSH4 0xB1CFF380 EQ PUSH2 0x363 JUMPI PUSH2 0x113 JUMP JUMPDEST DUP1 PUSH4 0x3610FEB3 GT PUSH2 0xE6 JUMPI DUP1 PUSH4 0x3610FEB3 EQ PUSH2 0x1A7 JUMPI DUP1 PUSH4 0x4EC3DCFE EQ PUSH2 0x1E3 JUMPI DUP1 PUSH4 0x6E1514F1 EQ PUSH2 0x20B JUMPI DUP1 PUSH4 0x70A08231 EQ PUSH2 0x235 JUMPI DUP1 PUSH4 0x82A7CF1E EQ PUSH2 0x271 JUMPI PUSH2 0x113 JUMP JUMPDEST DUP1 PUSH4 0x6FDDE03 EQ PUSH2 0x117 JUMPI DUP1 PUSH4 0x7394401 EQ PUSH2 0x141 JUMPI DUP1 PUSH4 0xAB5B8CD EQ PUSH2 0x169 JUMPI DUP1 PUSH4 0x1249C58B EQ PUSH2 0x191 JUMPI JUMPDEST PUSH0 DUP1 REVERT JUMPDEST CALLVALUE DUP1 ISZERO PUSH2 0x122 JUMPI PUSH0 DUP1 REVERT JUMPDEST POP PUSH2 0x12B PUSH2 0x4AB JUMP JUMPDEST PUSH1 0x40 MLOAD PUSH2 0x138 SWAP2 SWAP1 PUSH2 0x2873 JUMP JUMPDEST PUSH1 0x40 MLOAD DUP1 SWAP2 SUB SWAP1 RETURN JUMPDEST CALLVALUE DUP1 ISZERO PUSH2 0x14C JUMPI PUSH0 DUP1 REVERT JUMPDEST POP PUSH2 0x167 PUSH1 0x4 DUP1 CALLDATASIZE SUB DUP2 ADD SWAP1 PUSH2 0x162 SWAP2 SWAP1 PUSH2 0x292E JUMP JUMPDEST PUSH2 0x4BF JUMP JUMPDEST STOP JUMPDEST CALLVALUE DUP1 ISZERO PUSH2 0x174 JUMPI PUSH0 DUP1 REVERT JUMPDEST POP PUSH2 0x18F PUSH1 0x4 DUP1 CALLDATASIZE SUB DUP2 ADD SWAP1 PUSH2 0x18A SWAP2 SWAP1 PUSH2 0x2AF0 JUMP JUMPDEST PUSH2 0x4DE JUMP JUMPDEST STOP JUMPDEST CALLVALUE DUP1 ISZERO PUSH2 0x19C JUMPI PUSH0 DUP1 REVERT JUMPDEST POP PUSH2 0x1A5 PUSH2 0x83D JUMP JUMPDEST STOP JUMPDEST CALLVALUE DUP1 ISZERO PUSH2 0x1B2 JUMPI PUSH0 DUP1 REVERT JUMPDEST POP PUSH2 0x1CD PUSH1 0x4 DUP1 CALLDATASIZE SUB DUP2 ADD SWAP1 PUSH2 0x1C8 SWAP2 SWAP1 PUSH2 0x2B7A JUMP JUMPDEST PUSH2 0xDDD JUMP JUMPDEST PUSH1 0x40 MLOAD PUSH2 0x1DA SWAP2 SWAP1 PUSH2 0x2BBF JUMP JUMPDEST PUSH1 0x40 MLOAD DUP1 SWAP2 SUB SWAP1 RETURN JUMPDEST CALLVALUE DUP1 ISZERO PUSH2 0x1EE JUMPI PUSH0 DUP1 REVERT JUMPDEST POP PUSH2 0x209 PUSH1 0x4 DUP1 CALLDATASIZE SUB DUP2 ADD SWAP1 PUSH2 0x204 SWAP2 SWAP1 PUSH2 0x292E JUMP JUMPDEST PUSH2 0xDE3 JUMP JUMPDEST STOP JUMPDEST CALLVALUE DUP1 ISZERO PUSH2 0x216 JUMPI PUSH0 DUP1 REVERT JUMPDEST POP PUSH2 0x21F PUSH2 0x103C JUMP JUMPDEST PUSH1 0x40 MLOAD PUSH2 0x22C SWAP2 SWAP1 PUSH2 0x2BF0 JUMP JUMPDEST PUSH1 0x40 MLOAD DUP1 SWAP2 SUB SWAP1 RETURN JUMPDEST CALLVALUE DUP1 ISZERO PUSH2 0x240 JUMPI PUSH0 DUP1 REVERT JUMPDEST POP PUSH2 0x25B PUSH1 0x4 DUP1 CALLDATASIZE SUB DUP2 ADD SWAP1 PUSH2 0x256 SWAP2 SWAP1 PUSH2 0x2B7A JUMP JUMPDEST PUSH2 0x1040 JUMP JUMPDEST PUSH1 0x40 MLOAD PUSH2 0x268 SWAP2 SWAP1 PUSH2 0x2C18 JUMP JUMPDEST PUSH1 0x40 MLOAD DUP1 SWAP2 SUB SWAP1 RETURN JUMPDEST CALLVALUE DUP1 ISZERO PUSH2 0x27C JUMPI PUSH0 DUP1 REVERT JUMPDEST POP PUSH2 0x297 PUSH1 0x4 DUP1 CALLDATASIZE SUB DUP2 ADD SWAP1 PUSH2 0x292 SWAP2 SWAP1 PUSH2 0x2C31 JUMP JUMPDEST PUSH2 0x1121 JUMP JUMPDEST PUSH1 0x40 MLOAD PUSH2 0x2A4 SWAP2 SWAP1 PUSH2 0x2C6B JUMP JUMPDEST PUSH1 0x40 MLOAD DUP1 SWAP2 SUB SWAP1 RETURN JUMPDEST CALLVALUE DUP1 ISZERO PUSH2 0x2B8 JUMPI PUSH0 DUP1 REVERT JUMPDEST POP PUSH2 0x2D3 PUSH1 0x4 DUP1 CALLDATASIZE SUB DUP2 ADD SWAP1 PUSH2 0x2CE SWAP2 SWAP1 PUSH2 0x2C31 JUMP JUMPDEST PUSH2 0x1132 JUMP JUMPDEST PUSH1 0x40 MLOAD PUSH2 0x2E0 SWAP2 SWAP1 PUSH2 0x2C6B JUMP JUMPDEST PUSH1 0x40 MLOAD DUP1 SWAP2 SUB SWAP1 RETURN JUMPDEST CALLVALUE DUP1 ISZERO PUSH2 0x2F4 JUMPI PUSH0 DUP1 REVERT JUMPDEST POP PUSH2 0x2FD PUSH2 0x117E JUMP JUMPDEST PUSH1 0x40 MLOAD PUSH2 0x30A SWAP2 SWAP1 PUSH2 0x2CBE JUMP JUMPDEST PUSH1 0x40 MLOAD DUP1 SWAP2 SUB SWAP1 RETURN JUMPDEST CALLVALUE DUP1 ISZERO PUSH2 0x31E JUMPI PUSH0 DUP1 REVERT JUMPDEST POP PUSH2 0x339 PUSH1 0x4 DUP1 CALLDATASIZE SUB DUP2 ADD SWAP1 PUSH2 0x334 SWAP2 SWAP1 PUSH2 0x2D01 JUMP JUMPDEST PUSH2 0x1193 JUMP JUMPDEST STOP JUMPDEST CALLVALUE DUP1 ISZERO PUSH2 0x346 JUMPI PUSH0 DUP1 REVERT JUMPDEST POP PUSH2 0x361 PUSH1 0x4 DUP1 CALLDATASIZE SUB DUP2 ADD SWAP1 PUSH2 0x35C SWAP2 SWAP1 PUSH2 0x2DEF JUMP JUMPDEST PUSH2 0x137F JUMP JUMPDEST STOP JUMPDEST CALLVALUE DUP1 ISZERO PUSH2 0x36E JUMPI PUSH0 DUP1 REVERT JUMPDEST POP PUSH2 0x389 PUSH1 0x4 DUP1 CALLDATASIZE SUB DUP2 ADD SWAP1 PUSH2 0x384 SWAP2 SWAP1 PUSH2 0x2EC8 JUMP JUMPDEST PUSH2 0x139C JUMP JUMPDEST PUSH1 0x40 MLOAD PUSH2 0x396 SWAP2 SWAP1 PUSH2 0x2F86 JUMP JUMPDEST PUSH1 0x40 MLOAD DUP1 SWAP2 SUB SWAP1 RETURN JUMPDEST PUSH2 0x3B9 PUSH1 0x4 DUP1 CALLDATASIZE SUB DUP2 ADD SWAP1 PUSH2 0x3B4 SWAP2 SWAP1 PUSH2 0x2FDA JUMP JUMPDEST PUSH2 0x13A6 JUMP JUMPDEST PUSH1 0x40 MLOAD PUSH2 0x3C6 SWAP2 SWAP1 PUSH2 0x307F JUMP JUMPDEST PUSH1 0x40 MLOAD DUP1 SWAP2 SUB SWAP1 RETURN JUMPDEST CALLVALUE DUP1 ISZERO PUSH2 0x3DA JUMPI PUSH0 DUP1 REVERT JUMPDEST POP PUSH2 0x3F5 PUSH1 0x4 DUP1 CALLDATASIZE SUB DUP2 ADD SWAP1 PUSH2 0x3F0 SWAP2 SWAP1 PUSH2 0x2C31 JUMP JUMPDEST PUSH2 0x1753 JUMP JUMPDEST PUSH1 0x40 MLOAD PUSH2 0x402 SWAP2 SWAP1 PUSH2 0x30F1 JUMP JUMPDEST PUSH1 0x40 MLOAD DUP1 SWAP2 SUB SWAP1 RETURN JUMPDEST CALLVALUE DUP1 ISZERO PUSH2 0x416 JUMPI PUSH0 DUP1 REVERT JUMPDEST POP PUSH2 0x431 PUSH1 0x4 DUP1 CALLDATASIZE SUB DUP2 ADD SWAP1 PUSH2 0x42C SWAP2 SWAP1 PUSH2 0x3111 JUMP JUMPDEST PUSH2 0x17BD JUMP JUMPDEST STOP JUMPDEST CALLVALUE DUP1 ISZERO PUSH2 0x43E JUMPI PUSH0 DUP1 REVERT JUMPDEST POP PUSH2 0x459 PUSH1 0x4 DUP1 CALLDATASIZE SUB DUP2 ADD SWAP1 PUSH2 0x454 SWAP2 SWAP1 PUSH2 0x314F JUMP JUMPDEST PUSH2 0x18E1 JUMP JUMPDEST PUSH1 0x40 MLOAD PUSH2 0x466 SWAP2 SWAP1 PUSH2 0x2BBF JUMP JUMPDEST PUSH1 0x40 MLOAD DUP1 SWAP2 SUB SWAP1 RETURN JUMPDEST CALLVALUE DUP1 ISZERO PUSH2 0x47A JUMPI PUSH0 DUP1 REVERT JUMPDEST POP PUSH2 0x495 PUSH1 0x4 DUP1 CALLDATASIZE SUB DUP2 ADD SWAP1 PUSH2 0x490 SWAP2 SWAP1 PUSH2 0x318D JUMP JUMPDEST PUSH2 0x1970 JUMP JUMPDEST PUSH1 0x40 MLOAD PUSH2 0x4A2 SWAP2 SWAP1 PUSH2 0x2BBF JUMP JUMPDEST PUSH1 0x40 MLOAD DUP1 SWAP2 SUB SWAP1 RETURN JUMPDEST PUSH0 DUP1 PUSH0 SWAP1 SLOAD SWAP1 PUSH2 0x100 EXP SWAP1 DIV PUSH1 0x60 SHL SWAP1 POP SWAP1 JUMP JUMPDEST PUSH2 0x4D9 DUP4 DUP4 DUP4 PUSH1 0x40 MLOAD DUP1 PUSH1 0x20 ADD PUSH1 0x40 MSTORE DUP1 PUSH0 DUP2 MSTORE POP PUSH2 0x137F JUMP JUMPDEST POP POP POP JUMP JUMPDEST PUSH1 0x1 PUSH0 ADD PUSH1 0x6 SWAP1 SLOAD SWAP1 PUSH2 0x100 EXP SWAP1 DIV PUSH20 0xFFFFFFFFFFFFFFFFFFFFFFFFFFFFFFFFFFFFFFFF AND PUSH20 0xFFFFFFFFFFFFFFFFFFFFFFFFFFFFFFFFFFFFFFFF AND PUSH2 0x521 PUSH2 0x1A37 JUMP JUMPDEST PUSH20 0xFFFFFFFFFFFFFFFFFFFFFFFFFFFFFFFFFFFFFFFF AND EQ PUSH2 0x577 JUMPI PUSH1 0x40 MLOAD PUSH32 0x8C379A000000000000000000000000000000000000000000000000000000000 DUP2 MSTORE PUSH1 0x4 ADD PUSH2 0x56E SWAP1 PUSH2 0x323B JUMP JUMPDEST PUSH1 0x40 MLOAD DUP1 SWAP2 SUB SWAP1 REVERT JUMPDEST PUSH1 0x1 PUSH0 ADD PUSH1 0x4 SWAP1 SLOAD SWAP1 PUSH2 0x100 EXP SWAP1 DIV PUSH2 0xFFFF AND PUSH2 0xFFFF AND DUP7 PUSH2 0xFFFF AND GT DUP1 ISZERO PUSH2 0x5A0 JUMPI POP TIMESTAMP DUP6 LT ISZERO JUMPDEST PUSH2 0x5DF JUMPI PUSH1 0x40 MLOAD PUSH32 0x8C379A000000000000000000000000000000000000000000000000000000000 DUP2 MSTORE PUSH1 0x4 ADD PUSH2 0x5D6 SWAP1 PUSH2 0x32C9 JUMP JUMPDEST PUSH1 0x40 MLOAD DUP1 SWAP2 SUB SWAP1 REVERT JUMPDEST DUP1 PUSH0 PUSH2 0x4B1 DUP2 LT PUSH2 0x5F3 JUMPI PUSH2 0x5F2 PUSH2 0x32E7 JUMP JUMPDEST JUMPDEST PUSH1 0x20 MUL ADD MLOAD PUSH2 0xFFFF AND PUSH1 0x1 PUSH0 ADD PUSH1 0x2 SWAP1 SLOAD SWAP1 PUSH2 0x100 EXP SWAP1 DIV PUSH2 0xFFFF AND DUP8 PUSH2 0x61A SWAP2 SWAP1 PUSH2 0x3341 JUMP JUMPDEST PUSH2 0xFFFF AND EQ PUSH2 0x678 JUMPI DUP1 PUSH0 PUSH2 0x4B1 DUP2 LT PUSH2 0x637 JUMPI PUSH2 0x636 PUSH2 0x32E7 JUMP JUMPDEST JUMPDEST PUSH1 0x20 MUL ADD MLOAD PUSH1 0x40 MLOAD PUSH32 0xCA70E27000000000000000000000000000000000000000000000000000000000 DUP2 MSTORE PUSH1 0x4 ADD PUSH2 0x66F SWAP2 SWAP1 PUSH2 0x2C18 JUMP JUMPDEST PUSH1 0x40 MLOAD DUP1 SWAP2 SUB SWAP1 REVERT JUMPDEST PUSH2 0x3E8 DUP7 PUSH2 0xFFFF AND GT ISZERO PUSH2 0x6EE JUMPI PUSH0 PUSH2 0x4B0 DUP8 PUSH2 0xFFFF AND LT DUP1 ISZERO PUSH2 0x6A2 JUMPI POP PUSH2 0x69F PUSH2 0x103C JUMP JUMPDEST DUP2 EQ JUMPDEST PUSH2 0x6E1 JUMPI PUSH1 0x40 MLOAD PUSH32 0x8C379A000000000000000000000000000000000000000000000000000000000 DUP2 MSTORE PUSH1 0x4 ADD PUSH2 0x6D8 SWAP1 PUSH2 0x33E6 JUMP JUMPDEST PUSH1 0x40 MLOAD DUP1 SWAP2 SUB SWAP1 REVERT JUMPDEST PUSH0 PUSH2 0x6EB DUP2 PUSH2 0x1A3E JUMP JUMPDEST POP POP JUMPDEST DUP6 PUSH1 0x1 PUSH0 ADD PUSH0 PUSH2 0x100 EXP DUP2 SLOAD DUP2 PUSH2 0xFFFF MUL NOT AND SWAP1 DUP4 PUSH2 0xFFFF AND MUL OR SWAP1 SSTORE POP DUP5 PUSH1 0x1 PUSH1 0x2 ADD DUP2 SWAP1 SSTORE POP DUP4 PUSH1 0x1 PUSH0 ADD PUSH1 0x6 PUSH2 0x100 EXP DUP2 SLOAD DUP2 PUSH20 0xFFFFFFFFFFFFFFFFFFFFFFFFFFFFFFFFFFFFFFFF MUL NOT AND SWAP1 DUP4 PUSH20 0xFFFFFFFFFFFFFFFFFFFFFFFFFFFFFFFFFFFFFFFF AND MUL OR SWAP1 SSTORE POP DUP3 PUSH1 0x1 DUP1 ADD PUSH0 PUSH2 0x100 EXP DUP2 SLOAD DUP2 PUSH20 0xFFFFFFFFFFFFFFFFFFFFFFFFFFFFFFFFFFFFFFFF MUL NOT AND SWAP1 DUP4 PUSH20 0xFFFFFFFFFFFFFFFFFFFFFFFFFFFFFFFFFFFFFFFF AND MUL OR SWAP1 SSTORE POP DUP2 PUSH1 0x1 PUSH1 0x3 ADD DUP2 SWAP1 SSTORE POP DUP1 PUSH2 0xA7E PUSH0 DUP1 PUSH20 0xFFFFFFFFFFFFFFFFFFFFFFFFFFFFFFFFFFFFFFFF AND PUSH20 0xFFFFFFFFFFFFFFFFFFFFFFFFFFFFFFFFFFFFFFFF AND DUP2 MSTORE PUSH1 0x20 ADD SWAP1 DUP2 MSTORE PUSH1 0x20 ADD PUSH0 KECCAK256 SWAP1 PUSH2 0x4B1 PUSH2 0x7F3 SWAP3 SWAP2 SWAP1 PUSH2 0x2781 JUMP JUMPDEST POP DUP5 DUP7 PUSH2 0xFFFF AND PUSH32 0x7F5DA92C8CF80F4A196E12BA4E13ABC4FD2645F0248AD338EBD76EBB41898281 DUP7 DUP7 DUP7 PUSH1 0x40 MLOAD PUSH2 0x82D SWAP4 SWAP3 SWAP2 SWAP1 PUSH2 0x3413 JUMP JUMPDEST PUSH1 0x40 MLOAD DUP1 SWAP2 SUB SWAP1 LOG3 POP POP POP POP POP POP JUMP JUMPDEST PUSH1 0x1 PUSH0 ADD PUSH1 0x6 SWAP1 SLOAD SWAP1 PUSH2 0x100 EXP SWAP1 DIV PUSH20 0xFFFFFFFFFFFFFFFFFFFFFFFFFFFFFFFFFFFFFFFF AND PUSH20 0xFFFFFFFFFFFFFFFFFFFFFFFFFFFFFFFFFFFFFFFF AND PUSH2 0x880 PUSH2 0x1A37 JUMP JUMPDEST PUSH20 0xFFFFFFFFFFFFFFFFFFFFFFFFFFFFFFFFFFFFFFFF AND EQ PUSH2 0x8D6 JUMPI PUSH1 0x40 MLOAD PUSH32 0x8C379A000000000000000000000000000000000000000000000000000000000 DUP2 MSTORE PUSH1 0x4 ADD PUSH2 0x8CD SWAP1 PUSH2 0x3492 JUMP JUMPDEST PUSH1 0x40 MLOAD DUP1 SWAP2 SUB SWAP1 REVERT JUMPDEST PUSH1 0x1 PUSH0 ADD PUSH1 0x2 SWAP1 SLOAD SWAP1 PUSH2 0x100 EXP SWAP1 DIV PUSH2 0xFFFF AND PUSH2 0xFFFF AND PUSH1 0x1 PUSH0 ADD PUSH1 0x4 SWAP1 SLOAD SWAP1 PUSH2 0x100 EXP SWAP1 DIV PUSH2 0xFFFF AND PUSH2 0xFFFF AND GT ISZERO PUSH2 0xD8C JUMPI PUSH0 PUSH1 0x1 PUSH1 0x4 ADD PUSH2 0x4B1 DUP1 PUSH1 0x20 MUL PUSH1 0x40 MLOAD SWAP1 DUP2 ADD PUSH1 0x40 MSTORE DUP1 SWAP3 SWAP2 SWAP1 DUP3 PUSH2 0x4B1 DUP1 ISZERO PUSH2 0x978 JUMPI PUSH1 0x20 MUL DUP3 ADD SWAP2 PUSH0 SWAP1 JUMPDEST DUP3 DUP3 SWAP1 SLOAD SWAP1 PUSH2 0x100 EXP SWAP1 DIV PUSH6 0xFFFFFFFFFFFF AND PUSH6 0xFFFFFFFFFFFF AND DUP2 MSTORE PUSH1 0x20 ADD SWAP1 PUSH1 0x6 ADD SWAP1 PUSH1 0x20 DUP3 PUSH1 0x5 ADD DIV SWAP3 DUP4 ADD SWAP3 PUSH1 0x1 SUB DUP3 MUL SWAP2 POP DUP1 DUP5 GT PUSH2 0x937 JUMPI SWAP1 POP JUMPDEST POP POP POP POP POP SWAP1 POP PUSH0 PUSH1 0x1 PUSH1 0xF5 ADD PUSH2 0x4B1 DUP1 PUSH1 0x20 MUL PUSH1 0x40 MLOAD SWAP1 DUP2 ADD PUSH1 0x40 MSTORE DUP1 SWAP3 SWAP2 SWAP1 DUP3 PUSH2 0x4B1 DUP1 ISZERO PUSH2 0x9F3 JUMPI PUSH1 0x20 MUL DUP3 ADD SWAP2 JUMPDEST DUP2 PUSH0 SWAP1 SLOAD SWAP1 PUSH2 0x100 EXP SWAP1 DIV PUSH20 0xFFFFFFFFFFFFFFFFFFFFFFFFFFFFFFFFFFFFFFFF AND PUSH20 0xFFFFFFFFFFFFFFFFFFFFFFFFFFFFFFFFFFFFFFFF AND DUP2 MSTORE PUSH1 0x20 ADD SWAP1 PUSH1 0x1 ADD SWAP1 DUP1 DUP4 GT PUSH2 0x9AA JUMPI JUMPDEST POP POP POP POP POP SWAP1 POP PUSH0 PUSH1 0x1 PUSH0 ADD PUSH1 0x2 SWAP1 SLOAD SWAP1 PUSH2 0x100 EXP SWAP1 DIV PUSH2 0xFFFF AND PUSH1 0x1 PUSH0 ADD PUSH1 0x4 SWAP1 SLOAD SWAP1 PUSH2 0x100 EXP SWAP1 DIV PUSH2 0xFFFF AND PUSH2 0xA2B SWAP2 SWAP1 PUSH2 0x3341 JUMP JUMPDEST SWAP1 POP PUSH0 PUSH1 0x1 PUSH0 ADD PUSH1 0x2 SWAP1 SLOAD SWAP1 PUSH2 0x100 EXP SWAP1 DIV PUSH2 0xFFFF AND PUSH1 0x1 PUSH0 ADD PUSH0 SWAP1 SLOAD SWAP1 PUSH2 0x100 EXP SWAP1 DIV PUSH2 0xFFFF AND PUSH2 0xA5D SWAP2 SWAP1 PUSH2 0x3341 JUMP JUMPDEST SWAP1 POP PUSH0 PUSH1 0x1 PUSH0 ADD PUSH1 0x2 DUP2 DUP2 SWAP1 SLOAD SWAP1 PUSH2 0x100 EXP SWAP1 DIV PUSH2 0xFFFF AND PUSH2 0xA7E SWAP1 PUSH2 0x34B0 JUMP JUMPDEST SWAP2 SWAP1 PUSH2 0x100 EXP DUP2 SLOAD DUP2 PUSH2 0xFFFF MUL NOT AND SWAP1 DUP4 PUSH2 0xFFFF AND MUL OR SWAP1 SSTORE SWAP1 POP PUSH0 PUSH1 0x1 PUSH0 ADD PUSH1 0x4 SWAP1 SLOAD SWAP1 PUSH2 0x100 EXP SWAP1 DIV PUSH2 0xFFFF AND SWAP1 POP PUSH0 TIMESTAMP SWAP1 POP JUMPDEST DUP2 PUSH2 0xFFFF AND DUP4 PUSH2 0xFFFF AND GT PUSH2 0xD4F JUMPI PUSH0 DUP4 DUP9 DUP6 PUSH2 0xFFFF AND PUSH2 0x4B1 DUP2 LT PUSH2 0xADD JUMPI PUSH2 0xADC PUSH2 0x32E7 JUMP JUMPDEST JUMPDEST PUSH1 0x20 MUL ADD MLOAD PUSH6 0xFFFFFFFFFFFF AND DUP4 DUP11 PUSH0 PUSH2 0x4B1 DUP2 LT PUSH2 0xAFF JUMPI PUSH2 0xAFE PUSH2 0x32E7 JUMP JUMPDEST JUMPDEST PUSH1 0x20 MUL ADD MLOAD PUSH6 0xFFFFFFFFFFFF AND PUSH2 0xB16 SWAP2 SWAP1 PUSH2 0x34D9 JUMP JUMPDEST PUSH2 0xB20 SWAP2 SWAP1 PUSH2 0x34D9 JUMP JUMPDEST PUSH2 0xB2A SWAP2 SWAP1 PUSH2 0x3539 JUMP JUMPDEST SWAP1 POP PUSH0 DUP4 DUP10 PUSH0 PUSH2 0x4B1 DUP2 LT PUSH2 0xB42 JUMPI PUSH2 0xB41 PUSH2 0x32E7 JUMP JUMPDEST JUMPDEST PUSH1 0x20 MUL ADD MLOAD DUP11 DUP5 PUSH2 0xFFFF AND PUSH2 0x4B1 DUP2 LT PUSH2 0xB5F JUMPI PUSH2 0xB5E PUSH2 0x32E7 JUMP JUMPDEST JUMPDEST PUSH1 0x20 MUL ADD MLOAD PUSH2 0xB6E SWAP2 SWAP1 PUSH2 0x3569 JUMP JUMPDEST PUSH2 0xB78 SWAP2 SWAP1 PUSH2 0x3539 JUMP JUMPDEST SWAP1 POP PUSH0 DUP6 DUP9 DUP12 DUP5 PUSH2 0xFFFF AND PUSH2 0x4B1 DUP2 LT PUSH2 0xB95 JUMPI PUSH2 0xB94 PUSH2 0x32E7 JUMP JUMPDEST JUMPDEST PUSH1 0x20 MUL ADD MLOAD DUP13 DUP7 PUSH2 0xFFFF AND PUSH2 0x4B1 DUP2 LT PUSH2 0xBB2 JUMPI PUSH2 0xBB1 PUSH2 0x32E7 JUMP JUMPDEST JUMPDEST PUSH1 0x20 MUL ADD MLOAD PUSH2 0xBC1 SWAP2 SWAP1 PUSH2 0x3569 JUMP JUMPDEST PUSH2 0xBCB SWAP2 SWAP1 PUSH2 0x3539 JUMP JUMPDEST PUSH2 0xBD5 SWAP2 SWAP1 PUSH2 0x35A2 JUMP JUMPDEST SWAP1 POP PUSH0 DUP10 DUP3 PUSH2 0xFFFF AND PUSH2 0x4B1 DUP2 LT PUSH2 0xBF0 JUMPI PUSH2 0xBEF PUSH2 0x32E7 JUMP JUMPDEST JUMPDEST PUSH1 0x20 MUL ADD MLOAD SWAP1 POP DUP10 DUP8 PUSH2 0xFFFF AND PUSH2 0x4B1 DUP2 LT PUSH2 0xC0F JUMPI PUSH2 0xC0E PUSH2 0x32E7 JUMP JUMPDEST JUMPDEST PUSH1 0x20 MUL ADD MLOAD DUP11 DUP4 PUSH2 0xFFFF AND PUSH2 0x4B1 DUP2 LT PUSH2 0xC2C JUMPI PUSH2 0xC2B PUSH2 0x32E7 JUMP JUMPDEST JUMPDEST PUSH1 0x20 MUL ADD SWAP1 PUSH20 0xFFFFFFFFFFFFFFFFFFFFFFFFFFFFFFFFFFFFFFFF AND SWAP1 DUP2 PUSH20 0xFFFFFFFFFFFFFFFFFFFFFFFFFFFFFFFFFFFFFFFF AND DUP2 MSTORE POP POP DUP1 DUP11 DUP9 PUSH2 0xFFFF AND PUSH2 0x4B1 DUP2 LT PUSH2 0xC7C JUMPI PUSH2 0xC7B PUSH2 0x32E7 JUMP JUMPDEST JUMPDEST PUSH1 0x20 MUL ADD SWAP1 PUSH20 0xFFFFFFFFFFFFFFFFFFFFFFFFFFFFFFFFFFFFFFFF AND SWAP1 DUP2 PUSH20 0xFFFFFFFFFFFFFFFFFFFFFFFFFFFFFFFFFFFFFFFF AND DUP2 MSTORE POP POP PUSH0 DUP9 DUP13 DUP5 PUSH2 0xFFFF AND PUSH2 0x4B1 DUP2 LT PUSH2 0xCCD JUMPI PUSH2 0xCCC PUSH2 0x32E7 JUMP JUMPDEST JUMPDEST PUSH1 0x20 MUL ADD MLOAD DUP14 DUP8 PUSH2 0xFFFF AND PUSH2 0x4B1 DUP2 LT PUSH2 0xCEA JUMPI PUSH2 0xCE9 PUSH2 0x32E7 JUMP JUMPDEST JUMPDEST PUSH1 0x20 MUL ADD MLOAD PUSH2 0xCF9 SWAP2 SWAP1 PUSH2 0x3569 JUMP JUMPDEST PUSH2 0xD03 SWAP2 SWAP1 PUSH2 0x3539 JUMP JUMPDEST SWAP1 POP PUSH0 DUP2 PUSH2 0xFFFF AND SUB PUSH2 0xD14 JUMPI DUP9 SWAP1 POP JUMPDEST PUSH2 0xD1F DUP3 DUP3 PUSH0 PUSH2 0x1A41 JUMP JUMPDEST DUP10 PUSH2 0xD29 SWAP1 PUSH2 0x35D7 JUMP JUMPDEST SWAP10 POP DUP9 PUSH2 0xD35 SWAP1 PUSH2 0x35D7 JUMP JUMPDEST SWAP9 POP POP POP POP POP POP DUP3 DUP1 PUSH2 0xD47 SWAP1 PUSH2 0x34B0 JUMP JUMPDEST SWAP4 POP POP PUSH2 0xAB4 JUMP JUMPDEST PUSH1 0x1 PUSH0 ADD PUSH1 0x4 SWAP1 SLOAD SWAP1 PUSH2 0x100 EXP SWAP1 DIV PUSH2 0xFFFF AND PUSH1 0x1 PUSH0 ADD PUSH1 0x2 PUSH2 0x100 EXP DUP2 SLOAD DUP2 PUSH2 0xFFFF MUL NOT AND SWAP1 DUP4 PUSH2 0xFFFF AND MUL OR SWAP1 SSTORE POP POP POP POP POP POP POP POP PUSH2 0xDDB JUMP JUMPDEST PUSH1 0x1 PUSH0 ADD PUSH1 0x4 SWAP1 SLOAD SWAP1 PUSH2 0x100 EXP SWAP1 DIV PUSH2 0xFFFF AND PUSH1 0x40 MLOAD PUSH32 0x72864E7C00000000000000000000000000000000000000000000000000000000 DUP2 MSTORE PUSH1 0x4 ADD PUSH2 0xDD2 SWAP2 SWAP1 PUSH2 0x2C18 JUMP JUMPDEST PUSH1 0x40 MLOAD DUP1 SWAP2 SUB SWAP1 REVERT JUMPDEST JUMP JUMPDEST PUSH0 SWAP2 SWAP1 POP JUMP JUMPDEST PUSH0 PUSH20 0xFFFFFFFFFFFFFFFFFFFFFFFFFFFFFFFFFFFFFFFF AND DUP3 PUSH20 0xFFFFFFFFFFFFFFFFFFFFFFFFFFFFFFFFFFFFFFFF AND SUB PUSH2 0xE53 JUMPI PUSH0 PUSH1 0x40 MLOAD PUSH32 0x64A0AE9200000000000000000000000000000000000000000000000000000000 DUP2 MSTORE PUSH1 0x4 ADD PUSH2 0xE4A SWAP2 SWAP1 PUSH2 0x2C6B JUMP JUMPDEST PUSH1 0x40 MLOAD DUP1 SWAP2 SUB SWAP1 REVERT JUMPDEST PUSH0 PUSH2 0xE5D DUP3 PUSH2 0x21BF JUMP JUMPDEST SWAP1 POP PUSH2 0xA58 DUP3 PUSH2 0xFFFF AND PUSH2 0x4B1 DUP2 LT PUSH2 0xE79 JUMPI PUSH2 0xE78 PUSH2 0x32E7 JUMP JUMPDEST JUMPDEST PUSH1 0x20 SWAP2 DUP3 DUP3 DIV ADD SWAP2 SWAP1 MOD SWAP1 SLOAD SWAP1 PUSH2 0x100 EXP SWAP1 DIV PUSH1 0xFF AND ISZERO PUSH2 0xECF JUMPI PUSH1 0x40 MLOAD PUSH32 0x8C379A000000000000000000000000000000000000000000000000000000000 DUP2 MSTORE PUSH1 0x4 ADD PUSH2 0xEC6 SWAP1 PUSH2 0x366E JUMP JUMPDEST PUSH1 0x40 MLOAD DUP1 SWAP2 SUB SWAP1 REVERT JUMPDEST DUP1 PUSH20 0xFFFFFFFFFFFFFFFFFFFFFFFFFFFFFFFFFFFFFFFF AND PUSH2 0xEEE PUSH2 0x1A37 JUMP JUMPDEST PUSH20 0xFFFFFFFFFFFFFFFFFFFFFFFFFFFFFFFFFFFFFFFF AND EQ DUP1 PUSH2 0xF1D JUMPI POP PUSH2 0xF1C DUP2 PUSH2 0xF17 PUSH2 0x1A37 JUMP JUMPDEST PUSH2 0x18E1 JUMP JUMPDEST JUMPDEST DUP1 PUSH2 0xF62 JUMPI POP PUSH2 0xF2B PUSH2 0x1A37 JUMP JUMPDEST PUSH20 0xFFFFFFFFFFFFFFFFFFFFFFFFFFFFFFFFFFFFFFFF AND PUSH2 0xF4A DUP4 PUSH2 0x1132 JUMP JUMPDEST PUSH20 0xFFFFFFFFFFFFFFFFFFFFFFFFFFFFFFFFFFFFFFFF AND EQ JUMPDEST PUSH2 0xFAC JUMPI PUSH2 0xF6E PUSH2 0x1A37 JUMP JUMPDEST DUP3 PUSH1 0x40 MLOAD PUSH32 0x177E802F00000000000000000000000000000000000000000000000000000000 DUP2 MSTORE PUSH1 0x4 ADD PUSH2 0xFA3 SWAP3 SWAP2 SWAP1 PUSH2 0x36C5 JUMP JUMPDEST PUSH1 0x40 MLOAD DUP1 SWAP2 SUB SWAP1 REVERT JUMPDEST DUP4 PUSH20 0xFFFFFFFFFFFFFFFFFFFFFFFFFFFFFFFFFFFFFFFF AND DUP2 PUSH20 0xFFFFFFFFFFFFFFFFFFFFFFFFFFFFFFFFFFFFFFFF AND EQ PUSH2 0x1020 JUMPI DUP4 DUP3 DUP3 PUSH1 0x40 MLOAD PUSH32 0x64283D7B00000000000000000000000000000000000000000000000000000000 DUP2 MSTORE PUSH1 0x4 ADD PUSH2 0x1017 SWAP4 SWAP3 SWAP2 SWAP1 PUSH2 0x36EC JUMP JUMPDEST PUSH1 0x40 MLOAD DUP1 SWAP2 SUB SWAP1 REVERT JUMPDEST PUSH2 0x102B PUSH0 DUP4 DUP4 PUSH2 0x22E2 JUMP JUMPDEST PUSH2 0x1036 DUP4 DUP4 DUP4 PUSH2 0x1A41 JUMP JUMPDEST POP POP POP POP JUMP JUMPDEST PUSH0 SWAP1 JUMP JUMPDEST PUSH0 DUP1 PUSH20 0xFFFFFFFFFFFFFFFFFFFFFFFFFFFFFFFFFFFFFFFF AND DUP3 PUSH20 0xFFFFFFFFFFFFFFFFFFFFFFFFFFFFFFFFFFFFFFFF AND SUB PUSH2 0x10AF JUMPI PUSH1 0x40 MLOAD PUSH32 0x8C379A000000000000000000000000000000000000000000000000000000000 DUP2 MSTORE PUSH1 0x4 ADD PUSH2 0x10A6 SWAP1 PUSH2 0x376B JUMP JUMPDEST PUSH1 0x40 MLOAD DUP1 SWAP2 SUB SWAP1 REVERT JUMPDEST PUSH2 0xA7E PUSH0 DUP4 PUSH20 0xFFFFFFFFFFFFFFFFFFFFFFFFFFFFFFFFFFFFFFFF AND PUSH20 0xFFFFFFFFFFFFFFFFFFFFFFFFFFFFFFFFFFFFFFFF AND DUP2 MSTORE PUSH1 0x20 ADD SWAP1 DUP2 MSTORE PUSH1 0x20 ADD PUSH0 KECCAK256 PUSH0 PUSH2 0x4B1 DUP2 LT PUSH2 0x1100 JUMPI PUSH2 0x10FF PUSH2 0x32E7 JUMP JUMPDEST JUMPDEST PUSH1 0x10 SWAP2 DUP3 DUP3 DIV ADD SWAP2 SWAP1 MOD PUSH1 0x2 MUL SWAP1 SLOAD SWAP1 PUSH2 0x100 EXP SWAP1 DIV PUSH2 0xFFFF AND SWAP1 POP SWAP2 SWAP1 POP JUMP JUMPDEST PUSH0 PUSH2 0x112B DUP3 PUSH2 0x21BF JUMP JUMPDEST SWAP1 POP SWAP2 SWAP1 POP JUMP JUMPDEST PUSH0 PUSH2 0x113C DUP3 PUSH2 0x21BF JUMP JUMPDEST POP PUSH2 0xA7F PUSH0 DUP4 PUSH2 0xFFFF AND PUSH2 0xFFFF AND DUP2 MSTORE PUSH1 0x20 ADD SWAP1 DUP2 MSTORE PUSH1 0x20 ADD PUSH0 KECCAK256 PUSH0 SWAP1 SLOAD SWAP1 PUSH2 0x100 EXP SWAP1 DIV PUSH20 0xFFFFFFFFFFFFFFFFFFFFFFFFFFFFFFFFFFFFFFFF AND SWAP1 POP SWAP2 SWAP1 POP JUMP JUMPDEST PUSH0 DUP1 PUSH1 0x14 SWAP1 SLOAD SWAP1 PUSH2 0x100 EXP SWAP1 DIV PUSH1 0xB0 SHL SWAP1 POP SWAP1 JUMP JUMPDEST DUP2 PUSH20 0xFFFFFFFFFFFFFFFFFFFFFFFFFFFFFFFFFFFFFFFF AND PUSH2 0x11B2 PUSH2 0x1A37 JUMP JUMPDEST PUSH20 0xFFFFFFFFFFFFFFFFFFFFFFFFFFFFFFFFFFFFFFFF AND SUB PUSH2 0x1208 JUMPI PUSH1 0x40 MLOAD PUSH32 0x8C379A000000000000000000000000000000000000000000000000000000000 DUP2 MSTORE PUSH1 0x4 ADD PUSH2 0x11FF SWAP1 PUSH2 0x37F9 JUMP JUMPDEST PUSH1 0x40 MLOAD DUP1 SWAP2 SUB SWAP1 REVERT JUMPDEST PUSH0 PUSH20 0xFFFFFFFFFFFFFFFFFFFFFFFFFFFFFFFFFFFFFFFF AND DUP3 PUSH20 0xFFFFFFFFFFFFFFFFFFFFFFFFFFFFFFFFFFFFFFFF AND SUB PUSH2 0x1278 JUMPI DUP2 PUSH1 0x40 MLOAD PUSH32 0x5B08BA1800000000000000000000000000000000000000000000000000000000 DUP2 MSTORE PUSH1 0x4 ADD PUSH2 0x126F SWAP2 SWAP1 PUSH2 0x2C6B JUMP JUMPDEST PUSH1 0x40 MLOAD DUP1 SWAP2 SUB SWAP1 REVERT JUMPDEST DUP1 PUSH2 0xA80 PUSH0 PUSH2 0x1285 PUSH2 0x1A37 JUMP JUMPDEST PUSH20 0xFFFFFFFFFFFFFFFFFFFFFFFFFFFFFFFFFFFFFFFF AND PUSH20 0xFFFFFFFFFFFFFFFFFFFFFFFFFFFFFFFFFFFFFFFF AND DUP2 MSTORE PUSH1 0x20 ADD SWAP1 DUP2 MSTORE PUSH1 0x20 ADD PUSH0 KECCAK256 PUSH0 DUP5 PUSH20 0xFFFFFFFFFFFFFFFFFFFFFFFFFFFFFFFFFFFFFFFF AND PUSH20 0xFFFFFFFFFFFFFFFFFFFFFFFFFFFFFFFFFFFFFFFF AND DUP2 MSTORE PUSH1 0x20 ADD SWAP1 DUP2 MSTORE PUSH1 0x20 ADD PUSH0 KECCAK256 PUSH0 PUSH2 0x100 EXP DUP2 SLOAD DUP2 PUSH1 0xFF MUL NOT AND SWAP1 DUP4 ISZERO ISZERO MUL OR SWAP1 SSTORE POP DUP2 PUSH20 0xFFFFFFFFFFFFFFFFFFFFFFFFFFFFFFFFFFFFFFFF AND PUSH2 0x132E PUSH2 0x1A37 JUMP JUMPDEST PUSH20 0xFFFFFFFFFFFFFFFFFFFFFFFFFFFFFFFFFFFFFFFF AND PUSH32 0x17307EAB39AB6107E8899845AD3D59BD9653F200F220920489CA2B5937696C31 DUP4 PUSH1 0x40 MLOAD PUSH2 0x1373 SWAP2 SWAP1 PUSH2 0x2BBF JUMP JUMPDEST PUSH1 0x40 MLOAD DUP1 SWAP2 SUB SWAP1 LOG3 POP POP JUMP JUMPDEST PUSH2 0x138A DUP5 DUP5 DUP5 PUSH2 0xDE3 JUMP JUMPDEST PUSH2 0x1396 DUP5 DUP5 DUP5 DUP5 PUSH2 0x239E JUMP JUMPDEST POP POP POP POP JUMP JUMPDEST PUSH0 SWAP6 SWAP5 POP POP POP POP POP JUMP JUMPDEST PUSH1 0x60 PUSH1 0x1 PUSH0 ADD PUSH0 SWAP1 SLOAD SWAP1 PUSH2 0x100 EXP SWAP1 DIV PUSH2 0xFFFF AND PUSH2 0xFFFF AND PUSH1 0x1 PUSH0 ADD PUSH1 0x4 SWAP1 SLOAD SWAP1 PUSH2 0x100 EXP SWAP1 DIV PUSH2 0xFFFF AND PUSH2 0xFFFF AND GT ISZERO DUP1 ISZERO PUSH2 0x13E8 JUMPI POP TIMESTAMP PUSH1 0x1 PUSH1 0x2 ADD SLOAD GT ISZERO JUMPDEST PUSH2 0x1427 JUMPI PUSH1 0x40 MLOAD PUSH32 0x8C379A000000000000000000000000000000000000000000000000000000000 DUP2 MSTORE PUSH1 0x4 ADD PUSH2 0x141E SWAP1 PUSH2 0x3887 JUMP JUMPDEST PUSH1 0x40 MLOAD DUP1 SWAP2 SUB SWAP1 REVERT JUMPDEST PUSH0 PUSH20 0xFFFFFFFFFFFFFFFFFFFFFFFFFFFFFFFFFFFFFFFF AND PUSH2 0x1446 PUSH2 0x1A37 JUMP JUMPDEST PUSH20 0xFFFFFFFFFFFFFFFFFFFFFFFFFFFFFFFFFFFFFFFF AND EQ ISZERO DUP1 ISZERO PUSH2 0x1487 JUMPI POP PUSH0 PUSH2 0x146E PUSH2 0x1A37 JUMP JUMPDEST PUSH20 0xFFFFFFFFFFFFFFFFFFFFFFFFFFFFFFFFFFFFFFFF AND EXTCODESIZE EQ JUMPDEST PUSH2 0x14C6 JUMPI PUSH1 0x40 MLOAD PUSH32 0x8C379A000000000000000000000000000000000000000000000000000000000 DUP2 MSTORE PUSH1 0x4 ADD PUSH2 0x14BD SWAP1 PUSH2 0x393B JUMP JUMPDEST PUSH1 0x40 MLOAD DUP1 SWAP2 SUB SWAP1 REVERT JUMPDEST PUSH1 0x1 PUSH1 0x3 ADD SLOAD CALLVALUE LT ISZERO PUSH2 0x150E JUMPI PUSH1 0x40 MLOAD PUSH32 0x8C379A000000000000000000000000000000000000000000000000000000000 DUP2 MSTORE PUSH1 0x4 ADD PUSH2 0x1505 SWAP1 PUSH2 0x39C9 JUMP JUMPDEST PUSH1 0x40 MLOAD DUP1 SWAP2 SUB SWAP1 REVERT JUMPDEST PUSH0 DUP1 PUSH1 0x1 DUP1 ADD PUSH0 SWAP1 SLOAD SWAP1 PUSH2 0x100 EXP SWAP1 DIV PUSH20 0xFFFFFFFFFFFFFFFFFFFFFFFFFFFFFFFFFFFFFFFF AND PUSH20 0xFFFFFFFFFFFFFFFFFFFFFFFFFFFFFFFFFFFFFFFF AND CALLVALUE PUSH1 0x40 MLOAD PUSH2 0x1557 SWAP1 PUSH2 0x3A14 JUMP JUMPDEST PUSH0 PUSH1 0x40 MLOAD DUP1 DUP4 SUB DUP2 DUP6 DUP8 GAS CALL SWAP3 POP POP POP RETURNDATASIZE DUP1 PUSH0 DUP2 EQ PUSH2 0x1591 JUMPI PUSH1 0x40 MLOAD SWAP2 POP PUSH1 0x1F NOT PUSH1 0x3F RETURNDATASIZE ADD AND DUP3 ADD PUSH1 0x40 MSTORE RETURNDATASIZE DUP3 MSTORE RETURNDATASIZE PUSH0 PUSH1 0x20 DUP5 ADD RETURNDATACOPY PUSH2 0x1596 JUMP JUMPDEST PUSH1 0x60 SWAP2 POP JUMPDEST POP SWAP2 POP SWAP2 POP DUP2 PUSH2 0x15DB JUMPI PUSH1 0x40 MLOAD PUSH32 0x8C379A000000000000000000000000000000000000000000000000000000000 DUP2 MSTORE PUSH1 0x4 ADD PUSH2 0x15D2 SWAP1 PUSH2 0x3A72 JUMP JUMPDEST PUSH1 0x40 MLOAD DUP1 SWAP2 SUB SWAP1 REVERT JUMPDEST PUSH1 0x1 PUSH0 ADD PUSH1 0x4 DUP2 DUP2 SWAP1 SLOAD SWAP1 PUSH2 0x100 EXP SWAP1 DIV PUSH2 0xFFFF AND PUSH2 0x15F9 SWAP1 PUSH2 0x34B0 JUMP JUMPDEST SWAP2 SWAP1 PUSH2 0x100 EXP DUP2 SLOAD DUP2 PUSH2 0xFFFF MUL NOT AND SWAP1 DUP4 PUSH2 0xFFFF AND MUL OR SWAP1 SSTORE POP DUP4 PUSH1 0x1 PUSH1 0x4 ADD PUSH1 0x1 PUSH0 ADD PUSH1 0x4 SWAP1 SLOAD SWAP1 PUSH2 0x100 EXP SWAP1 DIV PUSH2 0xFFFF AND PUSH2 0xFFFF AND PUSH2 0x4B1 DUP2 LT PUSH2 0x1642 JUMPI PUSH2 0x1641 PUSH2 0x32E7 JUMP JUMPDEST JUMPDEST PUSH1 0x5 SWAP2 DUP3 DUP3 DIV ADD SWAP2 SWAP1 MOD PUSH1 0x6 MUL PUSH2 0x100 EXP DUP2 SLOAD DUP2 PUSH6 0xFFFFFFFFFFFF MUL NOT AND SWAP1 DUP4 PUSH6 0xFFFFFFFFFFFF AND MUL OR SWAP1 SSTORE POP DUP4 PUSH1 0x1 PUSH1 0x4 ADD PUSH0 PUSH2 0x4B1 DUP2 LT PUSH2 0x1688 JUMPI PUSH2 0x1687 PUSH2 0x32E7 JUMP JUMPDEST JUMPDEST PUSH1 0x5 SWAP2 DUP3 DUP3 DIV ADD SWAP2 SWAP1 MOD PUSH1 0x6 MUL DUP3 DUP3 DUP3 SWAP1 SLOAD SWAP1 PUSH2 0x100 EXP SWAP1 DIV PUSH6 0xFFFFFFFFFFFF AND PUSH2 0x16B3 SWAP2 SWAP1 PUSH2 0x3569 JUMP JUMPDEST SWAP3 POP PUSH2 0x100 EXP DUP2 SLOAD DUP2 PUSH6 0xFFFFFFFFFFFF MUL NOT AND SWAP1 DUP4 PUSH6 0xFFFFFFFFFFFF AND MUL OR SWAP1 SSTORE POP PUSH2 0x16DD PUSH2 0x1A37 JUMP JUMPDEST PUSH1 0x1 PUSH1 0xF5 ADD PUSH1 0x1 PUSH0 ADD PUSH1 0x4 SWAP1 SLOAD SWAP1 PUSH2 0x100 EXP SWAP1 DIV PUSH2 0xFFFF AND PUSH2 0xFFFF AND PUSH2 0x4B1 DUP2 LT PUSH2 0x170B JUMPI PUSH2 0x170A PUSH2 0x32E7 JUMP JUMPDEST JUMPDEST ADD PUSH0 PUSH2 0x100 EXP DUP2 SLOAD DUP2 PUSH20 0xFFFFFFFFFFFFFFFFFFFFFFFFFFFFFFFFFFFFFFFF MUL NOT AND SWAP1 DUP4 PUSH20 0xFFFFFFFFFFFFFFFFFFFFFFFFFFFFFFFFFFFFFFFF AND MUL OR SWAP1 SSTORE POP DUP1 SWAP3 POP POP POP SWAP2 SWAP1 POP JUMP JUMPDEST PUSH1 0x60 PUSH2 0x175E DUP3 PUSH2 0x21BF JUMP JUMPDEST POP PUSH0 PUSH2 0x1768 PUSH2 0x2550 JUMP JUMPDEST SWAP1 POP PUSH0 DUP2 MLOAD GT PUSH2 0x1786 JUMPI PUSH1 0x40 MLOAD DUP1 PUSH1 0x20 ADD PUSH1 0x40 MSTORE DUP1 PUSH0 DUP2 MSTORE POP PUSH2 0x17B5 JUMP JUMPDEST DUP1 PUSH2 0x1794 DUP5 PUSH2 0xFFFF AND PUSH2 0x2566 JUMP JUMPDEST PUSH1 0x40 MLOAD PUSH1 0x20 ADD PUSH2 0x17A5 SWAP3 SWAP2 SWAP1 PUSH2 0x3ACA JUMP JUMPDEST PUSH1 0x40 MLOAD PUSH1 0x20 DUP2 DUP4 SUB SUB DUP2 MSTORE SWAP1 PUSH1 0x40 MSTORE JUMPDEST SWAP2 POP POP SWAP2 SWAP1 POP JUMP JUMPDEST PUSH0 PUSH2 0x17C7 DUP3 PUSH2 0x21BF JUMP JUMPDEST SWAP1 POP DUP3 PUSH20 0xFFFFFFFFFFFFFFFFFFFFFFFFFFFFFFFFFFFFFFFF AND DUP2 PUSH20 0xFFFFFFFFFFFFFFFFFFFFFFFFFFFFFFFFFFFFFFFF AND SUB PUSH2 0x1837 JUMPI PUSH1 0x40 MLOAD PUSH32 0x8C379A000000000000000000000000000000000000000000000000000000000 DUP2 MSTORE PUSH1 0x4 ADD PUSH2 0x182E SWAP1 PUSH2 0x37F9 JUMP JUMPDEST PUSH1 0x40 MLOAD DUP1 SWAP2 SUB SWAP1 REVERT JUMPDEST PUSH2 0x183F PUSH2 0x1A37 JUMP JUMPDEST PUSH20 0xFFFFFFFFFFFFFFFFFFFFFFFFFFFFFFFFFFFFFFFF AND DUP2 PUSH20 0xFFFFFFFFFFFFFFFFFFFFFFFFFFFFFFFFFFFFFFFF AND EQ ISZERO DUP1 ISZERO PUSH2 0x1888 JUMPI POP PUSH2 0x1886 DUP2 PUSH2 0x1881 PUSH2 0x1A37 JUMP JUMPDEST PUSH2 0x18E1 JUMP JUMPDEST ISZERO JUMPDEST ISZERO PUSH2 0x18D1 JUMPI PUSH2 0x1895 PUSH2 0x1A37 JUMP JUMPDEST PUSH1 0x40 MLOAD PUSH32 0xA9FBF51F00000000000000000000000000000000000000000000000000000000 DUP2 MSTORE PUSH1 0x4 ADD PUSH2 0x18C8 SWAP2 SWAP1 PUSH2 0x2C6B JUMP JUMPDEST PUSH1 0x40 MLOAD DUP1 SWAP2 SUB SWAP1 REVERT JUMPDEST PUSH2 0x18DC DUP4 DUP4 DUP4 PUSH2 0x22E2 JUMP JUMPDEST POP POP POP JUMP JUMPDEST PUSH0 PUSH2 0xA80 PUSH0 DUP5 PUSH20 0xFFFFFFFFFFFFFFFFFFFFFFFFFFFFFFFFFFFFFFFF AND PUSH20 0xFFFFFFFFFFFFFFFFFFFFFFFFFFFFFFFFFFFFFFFF AND DUP2 MSTORE PUSH1 0x20 ADD SWAP1 DUP2 MSTORE PUSH1 0x20 ADD PUSH0 KECCAK256 PUSH0 DUP4 PUSH20 0xFFFFFFFFFFFFFFFFFFFFFFFFFFFFFFFFFFFFFFFF AND PUSH20 0xFFFFFFFFFFFFFFFFFFFFFFFFFFFFFFFFFFFFFFFF AND DUP2 MSTORE PUSH1 0x20 ADD SWAP1 DUP2 MSTORE PUSH1 0x20 ADD PUSH0 KECCAK256 PUSH0 SWAP1 SLOAD SWAP1 PUSH2 0x100 EXP SWAP1 DIV PUSH1 0xFF AND SWAP1 POP SWAP3 SWAP2 POP POP JUMP JUMPDEST PUSH0 DUP1 PUSH2 0x197B DUP5 PUSH2 0x21BF JUMP JUMPDEST SWAP1 POP PUSH0 DUP1 DUP3 PUSH20 0xFFFFFFFFFFFFFFFFFFFFFFFFFFFFFFFFFFFFFFFF AND PUSH2 0x199E PUSH2 0x1A37 JUMP JUMPDEST PUSH20 0xFFFFFFFFFFFFFFFFFFFFFFFFFFFFFFFFFFFFFFFF AND SUB PUSH2 0x19C1 JUMPI DUP5 SWAP2 POP PUSH2 0x1A23 JUMP JUMPDEST PUSH2 0x19D1 PUSH2 0x19CC PUSH2 0x1A37 JUMP JUMPDEST PUSH2 0xDDD JUMP JUMPDEST ISZERO PUSH2 0x19DE JUMPI DUP5 SWAP1 POP PUSH2 0x1A22 JUMP JUMPDEST PUSH2 0x19E6 PUSH2 0x1A37 JUMP JUMPDEST PUSH1 0x40 MLOAD PUSH32 0xF7A3F9F300000000000000000000000000000000000000000000000000000000 DUP2 MSTORE PUSH1 0x4 ADD PUSH2 0x1A19 SWAP2 SWAP1 PUSH2 0x2C6B JUMP JUMPDEST PUSH1 0x40 MLOAD DUP1 SWAP2 SUB SWAP1 REVERT JUMPDEST JUMPDEST DUP1 DUP1 PUSH2 0x1A2C JUMPI POP DUP2 JUMPDEST SWAP4 POP POP POP POP SWAP3 SWAP2 POP POP JUMP JUMPDEST PUSH0 CALLER SWAP1 POP SWAP1 JUMP JUMPDEST POP JUMP JUMPDEST PUSH0 PUSH2 0xA7E PUSH0 DUP4 PUSH20 0xFFFFFFFFFFFFFFFFFFFFFFFFFFFFFFFFFFFFFFFF AND PUSH20 0xFFFFFFFFFFFFFFFFFFFFFFFFFFFFFFFFFFFFFFFF AND DUP2 MSTORE PUSH1 0x20 ADD SWAP1 DUP2 MSTORE PUSH1 0x20 ADD PUSH0 KECCAK256 PUSH0 PUSH2 0x4B1 DUP2 LT PUSH2 0x1A93 JUMPI PUSH2 0x1A92 PUSH2 0x32E7 JUMP JUMPDEST JUMPDEST PUSH1 0x10 SWAP2 DUP3 DUP3 DIV ADD SWAP2 SWAP1 MOD PUSH1 0x2 MUL SWAP1 SLOAD SWAP1 PUSH2 0x100 EXP SWAP1 DIV PUSH2 0xFFFF AND SWAP1 POP PUSH0 PUSH20 0xFFFFFFFFFFFFFFFFFFFFFFFFFFFFFFFFFFFFFFFF AND DUP3 PUSH20 0xFFFFFFFFFFFFFFFFFFFFFFFFFFFFFFFFFFFFFFFF AND EQ PUSH2 0x1C7B JUMPI PUSH0 PUSH1 0x1 SWAP1 POP JUMPDEST DUP2 PUSH2 0xFFFF AND DUP2 PUSH2 0xFFFF AND GT PUSH2 0x1C75 JUMPI DUP4 PUSH2 0xFFFF AND PUSH2 0xA7E PUSH0 DUP6 PUSH20 0xFFFFFFFFFFFFFFFFFFFFFFFFFFFFFFFFFFFFFFFF AND PUSH20 0xFFFFFFFFFFFFFFFFFFFFFFFFFFFFFFFFFFFFFFFF AND DUP2 MSTORE PUSH1 0x20 ADD SWAP1 DUP2 MSTORE PUSH1 0x20 ADD PUSH0 KECCAK256 DUP3 PUSH2 0xFFFF AND PUSH2 0x4B1 DUP2 LT PUSH2 0x1B51 JUMPI PUSH2 0x1B50 PUSH2 0x32E7 JUMP JUMPDEST JUMPDEST PUSH1 0x10 SWAP2 DUP3 DUP3 DIV ADD SWAP2 SWAP1 MOD PUSH1 0x2 MUL SWAP1 SLOAD SWAP1 PUSH2 0x100 EXP SWAP1 DIV PUSH2 0xFFFF AND PUSH2 0xFFFF AND SUB PUSH2 0x1C62 JUMPI PUSH2 0xA7E PUSH0 DUP5 PUSH20 0xFFFFFFFFFFFFFFFFFFFFFFFFFFFFFFFFFFFFFFFF AND PUSH20 0xFFFFFFFFFFFFFFFFFFFFFFFFFFFFFFFFFFFFFFFF AND DUP2 MSTORE PUSH1 0x20 ADD SWAP1 DUP2 MSTORE PUSH1 0x20 ADD PUSH0 KECCAK256 DUP3 PUSH2 0xFFFF AND PUSH2 0x4B1 DUP2 LT PUSH2 0x1BC9 JUMPI PUSH2 0x1BC8 PUSH2 0x32E7 JUMP JUMPDEST JUMPDEST PUSH1 0x10 SWAP2 DUP3 DUP3 DIV ADD SWAP2 SWAP1 MOD PUSH1 0x2 MUL SWAP1 SLOAD SWAP1 PUSH2 0x100 EXP SWAP1 DIV PUSH2 0xFFFF AND PUSH2 0xA7E PUSH0 DUP6 PUSH20 0xFFFFFFFFFFFFFFFFFFFFFFFFFFFFFFFFFFFFFFFF AND PUSH20 0xFFFFFFFFFFFFFFFFFFFFFFFFFFFFFFFFFFFFFFFF AND DUP2 MSTORE PUSH1 0x20 ADD SWAP1 DUP2 MSTORE PUSH1 0x20 ADD PUSH0 KECCAK256 DUP3 PUSH2 0xFFFF AND PUSH2 0x4B1 DUP2 LT PUSH2 0x1C38 JUMPI PUSH2 0x1C37 PUSH2 0x32E7 JUMP JUMPDEST JUMPDEST PUSH1 0x10 SWAP2 DUP3 DUP3 DIV ADD SWAP2 SWAP1 MOD PUSH1 0x2 MUL PUSH2 0x100 EXP DUP2 SLOAD DUP2 PUSH2 0xFFFF MUL NOT AND SWAP1 DUP4 PUSH2 0xFFFF AND MUL OR SWAP1 SSTORE POP PUSH2 0x1C75 JUMP JUMPDEST DUP1 DUP1 PUSH2 0x1C6D SWAP1 PUSH2 0x34B0 JUMP JUMPDEST SWAP2 POP POP PUSH2 0x1AE8 JUMP JUMPDEST POP PUSH2 0x1E85 JUMP JUMPDEST PUSH0 DUP4 SWAP1 POP PUSH2 0xA7E PUSH0 DUP5 PUSH20 0xFFFFFFFFFFFFFFFFFFFFFFFFFFFFFFFFFFFFFFFF AND PUSH20 0xFFFFFFFFFFFFFFFFFFFFFFFFFFFFFFFFFFFFFFFF AND DUP2 MSTORE PUSH1 0x20 ADD SWAP1 DUP2 MSTORE PUSH1 0x20 ADD PUSH0 KECCAK256 DUP2 PUSH2 0xFFFF AND PUSH2 0x4B1 DUP2 LT PUSH2 0x1CD4 JUMPI PUSH2 0x1CD3 PUSH2 0x32E7 JUMP JUMPDEST JUMPDEST PUSH1 0x10 SWAP2 DUP3 DUP3 DIV ADD SWAP2 SWAP1 MOD PUSH1 0x2 MUL SWAP1 SLOAD SWAP1 PUSH2 0x100 EXP SWAP1 DIV PUSH2 0xFFFF AND SWAP4 POP PUSH0 PUSH20 0xFFFFFFFFFFFFFFFFFFFFFFFFFFFFFFFFFFFFFFFF AND PUSH2 0x5A7 DUP6 PUSH2 0xFFFF AND PUSH2 0x4B1 DUP2 LT PUSH2 0x1D21 JUMPI PUSH2 0x1D20 PUSH2 0x32E7 JUMP JUMPDEST JUMPDEST ADD PUSH0 SWAP1 SLOAD SWAP1 PUSH2 0x100 EXP SWAP1 DIV PUSH20 0xFFFFFFFFFFFFFFFFFFFFFFFFFFFFFFFFFFFFFFFF AND PUSH20 0xFFFFFFFFFFFFFFFFFFFFFFFFFFFFFFFFFFFFFFFF AND EQ PUSH2 0x1D9A JUMPI DUP1 PUSH1 0x40 MLOAD PUSH32 0x71E52B9C00000000000000000000000000000000000000000000000000000000 DUP2 MSTORE PUSH1 0x4 ADD PUSH2 0x1D91 SWAP2 SWAP1 PUSH2 0x2C18 JUMP JUMPDEST PUSH1 0x40 MLOAD DUP1 SWAP2 SUB SWAP1 REVERT JUMPDEST PUSH2 0xA7E PUSH0 DUP5 PUSH20 0xFFFFFFFFFFFFFFFFFFFFFFFFFFFFFFFFFFFFFFFF AND PUSH20 0xFFFFFFFFFFFFFFFFFFFFFFFFFFFFFFFFFFFFFFFF AND DUP2 MSTORE PUSH1 0x20 ADD SWAP1 DUP2 MSTORE PUSH1 0x20 ADD PUSH0 KECCAK256 DUP3 PUSH2 0xFFFF AND PUSH2 0x4B1 DUP2 LT PUSH2 0x1DEF JUMPI PUSH2 0x1DEE PUSH2 0x32E7 JUMP JUMPDEST JUMPDEST PUSH1 0x10 SWAP2 DUP3 DUP3 DIV ADD SWAP2 SWAP1 MOD PUSH1 0x2 MUL SWAP1 SLOAD SWAP1 PUSH2 0x100 EXP SWAP1 DIV PUSH2 0xFFFF AND PUSH2 0xA7E PUSH0 DUP6 PUSH20 0xFFFFFFFFFFFFFFFFFFFFFFFFFFFFFFFFFFFFFFFF AND PUSH20 0xFFFFFFFFFFFFFFFFFFFFFFFFFFFFFFFFFFFFFFFF AND DUP2 MSTORE PUSH1 0x20 ADD SWAP1 DUP2 MSTORE PUSH1 0x20 ADD PUSH0 KECCAK256 DUP3 PUSH2 0xFFFF AND PUSH2 0x4B1 DUP2 LT PUSH2 0x1E5E JUMPI PUSH2 0x1E5D PUSH2 0x32E7 JUMP JUMPDEST JUMPDEST PUSH1 0x10 SWAP2 DUP3 DUP3 DIV ADD SWAP2 SWAP1 MOD PUSH1 0x2 MUL PUSH2 0x100 EXP DUP2 SLOAD DUP2 PUSH2 0xFFFF MUL NOT AND SWAP1 DUP4 PUSH2 0xFFFF AND MUL OR SWAP1 SSTORE POP POP JUMPDEST PUSH0 PUSH2 0xA7E PUSH0 DUP5 PUSH20 0xFFFFFFFFFFFFFFFFFFFFFFFFFFFFFFFFFFFFFFFF AND PUSH20 0xFFFFFFFFFFFFFFFFFFFFFFFFFFFFFFFFFFFFFFFF AND DUP2 MSTORE PUSH1 0x20 ADD SWAP1 DUP2 MSTORE PUSH1 0x20 ADD PUSH0 KECCAK256 DUP3 PUSH2 0xFFFF AND PUSH2 0x4B1 DUP2 LT PUSH2 0x1EDB JUMPI PUSH2 0x1EDA PUSH2 0x32E7 JUMP JUMPDEST JUMPDEST PUSH1 0x10 SWAP2 DUP3 DUP3 DIV ADD SWAP2 SWAP1 MOD PUSH1 0x2 MUL PUSH2 0x100 EXP DUP2 SLOAD DUP2 PUSH2 0xFFFF MUL NOT AND SWAP1 DUP4 PUSH2 0xFFFF AND MUL OR SWAP1 SSTORE POP PUSH1 0x1 PUSH2 0xA7E PUSH0 DUP5 PUSH20 0xFFFFFFFFFFFFFFFFFFFFFFFFFFFFFFFFFFFFFFFF AND PUSH20 0xFFFFFFFFFFFFFFFFFFFFFFFFFFFFFFFFFFFFFFFF AND DUP2 MSTORE PUSH1 0x20 ADD SWAP1 DUP2 MSTORE PUSH1 0x20 ADD PUSH0 KECCAK256 PUSH0 PUSH2 0x4B1 DUP2 LT PUSH2 0x1F53 JUMPI PUSH2 0x1F52 PUSH2 0x32E7 JUMP JUMPDEST JUMPDEST PUSH1 0x10 SWAP2 DUP3 DUP3 DIV ADD SWAP2 SWAP1 MOD PUSH1 0x2 MUL DUP3 DUP3 DUP3 SWAP1 SLOAD SWAP1 PUSH2 0x100 EXP SWAP1 DIV PUSH2 0xFFFF AND PUSH2 0x1F7A SWAP2 SWAP1 PUSH2 0x3341 JUMP JUMPDEST SWAP3 POP PUSH2 0x100 EXP DUP2 SLOAD DUP2 PUSH2 0xFFFF MUL NOT AND SWAP1 DUP4 PUSH2 0xFFFF AND MUL OR SWAP1 SSTORE POP PUSH0 PUSH1 0x1 PUSH2 0xA7E PUSH0 DUP8 PUSH20 0xFFFFFFFFFFFFFFFFFFFFFFFFFFFFFFFFFFFFFFFF AND PUSH20 0xFFFFFFFFFFFFFFFFFFFFFFFFFFFFFFFFFFFFFFFF AND DUP2 MSTORE PUSH1 0x20 ADD SWAP1 DUP2 MSTORE PUSH1 0x20 ADD PUSH0 KECCAK256 PUSH0 PUSH2 0x4B1 DUP2 LT PUSH2 0x1FE8 JUMPI PUSH2 0x1FE7 PUSH2 0x32E7 JUMP JUMPDEST JUMPDEST PUSH1 0x10 SWAP2 DUP3 DUP3 DIV ADD SWAP2 SWAP1 MOD PUSH1 0x2 MUL SWAP1 SLOAD SWAP1 PUSH2 0x100 EXP SWAP1 DIV PUSH2 0xFFFF AND PUSH2 0x200C SWAP2 SWAP1 PUSH2 0x35A2 JUMP JUMPDEST SWAP1 POP DUP4 PUSH2 0xA7E PUSH0 DUP8 PUSH20 0xFFFFFFFFFFFFFFFFFFFFFFFFFFFFFFFFFFFFFFFF AND PUSH20 0xFFFFFFFFFFFFFFFFFFFFFFFFFFFFFFFFFFFFFFFF AND DUP2 MSTORE PUSH1 0x20 ADD SWAP1 DUP2 MSTORE PUSH1 0x20 ADD PUSH0 KECCAK256 DUP3 PUSH2 0xFFFF AND PUSH2 0x4B1 DUP2 LT PUSH2 0x2064 JUMPI PUSH2 0x2063 PUSH2 0x32E7 JUMP JUMPDEST JUMPDEST PUSH1 0x10 SWAP2 DUP3 DUP3 DIV ADD SWAP2 SWAP1 MOD PUSH1 0x2 MUL PUSH2 0x100 EXP DUP2 SLOAD DUP2 PUSH2 0xFFFF MUL NOT AND SWAP1 DUP4 PUSH2 0xFFFF AND MUL OR SWAP1 SSTORE POP DUP1 PUSH2 0xA7E PUSH0 DUP8 PUSH20 0xFFFFFFFFFFFFFFFFFFFFFFFFFFFFFFFFFFFFFFFF AND PUSH20 0xFFFFFFFFFFFFFFFFFFFFFFFFFFFFFFFFFFFFFFFF AND DUP2 MSTORE PUSH1 0x20 ADD SWAP1 DUP2 MSTORE PUSH1 0x20 ADD PUSH0 KECCAK256 PUSH0 PUSH2 0x4B1 DUP2 LT PUSH2 0x20DB JUMPI PUSH2 0x20DA PUSH2 0x32E7 JUMP JUMPDEST JUMPDEST PUSH1 0x10 SWAP2 DUP3 DUP3 DIV ADD SWAP2 SWAP1 MOD PUSH1 0x2 MUL PUSH2 0x100 EXP DUP2 SLOAD DUP2 PUSH2 0xFFFF MUL NOT AND SWAP1 DUP4 PUSH2 0xFFFF AND MUL OR SWAP1 SSTORE POP DUP5 PUSH2 0x5A7 DUP6 PUSH2 0xFFFF AND PUSH2 0x4B1 DUP2 LT PUSH2 0x211B JUMPI PUSH2 0x211A PUSH2 0x32E7 JUMP JUMPDEST JUMPDEST ADD PUSH0 PUSH2 0x100 EXP DUP2 SLOAD DUP2 PUSH20 0xFFFFFFFFFFFFFFFFFFFFFFFFFFFFFFFFFFFFFFFF MUL NOT AND SWAP1 DUP4 PUSH20 0xFFFFFFFFFFFFFFFFFFFFFFFFFFFFFFFFFFFFFFFF AND MUL OR SWAP1 SSTORE POP DUP4 PUSH2 0xFFFF AND DUP6 PUSH20 0xFFFFFFFFFFFFFFFFFFFFFFFFFFFFFFFFFFFFFFFF AND DUP5 PUSH20 0xFFFFFFFFFFFFFFFFFFFFFFFFFFFFFFFFFFFFFFFF AND PUSH32 0x89896EDBD223C9360CE42DDFED7522A2BFFB20C056E4C42D42370CB493B65676 PUSH1 0x40 MLOAD PUSH1 0x40 MLOAD DUP1 SWAP2 SUB SWAP1 LOG4 POP POP POP POP POP JUMP JUMPDEST PUSH0 DUP2 PUSH2 0xFFFF AND PUSH0 LT DUP1 ISZERO PUSH2 0x21EC JUMPI POP PUSH1 0x1 PUSH0 ADD PUSH0 SWAP1 SLOAD SWAP1 PUSH2 0x100 EXP SWAP1 DIV PUSH2 0xFFFF AND PUSH2 0xFFFF AND DUP3 PUSH2 0xFFFF AND GT ISZERO JUMPDEST PUSH2 0x222B JUMPI PUSH1 0x40 MLOAD PUSH32 0x8C379A000000000000000000000000000000000000000000000000000000000 DUP2 MSTORE PUSH1 0x4 ADD PUSH2 0x2222 SWAP1 PUSH2 0x3B83 JUMP JUMPDEST PUSH1 0x40 MLOAD DUP1 SWAP2 SUB SWAP1 REVERT JUMPDEST PUSH0 PUSH2 0x5A7 DUP4 PUSH2 0xFFFF AND PUSH2 0x4B1 DUP2 LT PUSH2 0x2246 JUMPI PUSH2 0x2245 PUSH2 0x32E7 JUMP JUMPDEST JUMPDEST ADD PUSH0 SWAP1 SLOAD SWAP1 PUSH2 0x100 EXP SWAP1 DIV PUSH20 0xFFFFFFFFFFFFFFFFFFFFFFFFFFFFFFFFFFFFFFFF AND SWAP1 POP PUSH0 PUSH20 0xFFFFFFFFFFFFFFFFFFFFFFFFFFFFFFFFFFFFFFFF AND DUP2 PUSH20 0xFFFFFFFFFFFFFFFFFFFFFFFFFFFFFFFFFFFFFFFF AND SUB PUSH2 0x22D9 JUMPI DUP3 PUSH1 0x40 MLOAD PUSH32 0x7E27328900000000000000000000000000000000000000000000000000000000 DUP2 MSTORE PUSH1 0x4 ADD PUSH2 0x22D0 SWAP2 SWAP1 PUSH2 0x3BA1 JUMP JUMPDEST PUSH1 0x40 MLOAD DUP1 SWAP2 SUB SWAP1 REVERT JUMPDEST DUP1 SWAP2 POP POP SWAP2 SWAP1 POP JUMP JUMPDEST DUP3 PUSH2 0xA7F PUSH0 DUP5 PUSH2 0xFFFF AND PUSH2 0xFFFF AND DUP2 MSTORE PUSH1 0x20 ADD SWAP1 DUP2 MSTORE PUSH1 0x20 ADD PUSH0 KECCAK256 PUSH0 PUSH2 0x100 EXP DUP2 SLOAD DUP2 PUSH20 0xFFFFFFFFFFFFFFFFFFFFFFFFFFFFFFFFFFFFFFFF MUL NOT AND SWAP1 DUP4 PUSH20 0xFFFFFFFFFFFFFFFFFFFFFFFFFFFFFFFFFFFFFFFF AND MUL OR SWAP1 SSTORE POP DUP2 PUSH2 0xFFFF AND DUP4 PUSH20 0xFFFFFFFFFFFFFFFFFFFFFFFFFFFFFFFFFFFFFFFF AND DUP3 PUSH20 0xFFFFFFFFFFFFFFFFFFFFFFFFFFFFFFFFFFFFFFFF AND PUSH32 0xA9D294FD4BD42BB30E96CBA2B478D149A783FBA3C729B1E5C42BEC89D95B85A PUSH1 0x40 MLOAD PUSH1 0x40 MLOAD DUP1 SWAP2 SUB SWAP1 LOG4 POP POP POP JUMP JUMPDEST PUSH0 DUP4 PUSH20 0xFFFFFFFFFFFFFFFFFFFFFFFFFFFFFFFFFFFFFFFF AND EXTCODESIZE GT ISZERO PUSH2 0x254A JUMPI DUP3 PUSH20 0xFFFFFFFFFFFFFFFFFFFFFFFFFFFFFFFFFFFFFFFF AND PUSH4 0xB1CFF380 PUSH2 0x23E1 PUSH2 0x1A37 JUMP JUMPDEST DUP7 DUP6 DUP6 PUSH1 0x40 MLOAD DUP6 PUSH4 0xFFFFFFFF AND PUSH1 0xE0 SHL DUP2 MSTORE PUSH1 0x4 ADD PUSH2 0x2403 SWAP5 SWAP4 SWAP3 SWAP2 SWAP1 PUSH2 0x3BBA JUMP JUMPDEST PUSH1 0x20 PUSH1 0x40 MLOAD DUP1 DUP4 SUB DUP2 PUSH0 DUP8 GAS CALL SWAP3 POP POP POP DUP1 ISZERO PUSH2 0x243E JUMPI POP PUSH1 0x40 MLOAD RETURNDATASIZE PUSH1 0x1F NOT PUSH1 0x1F DUP3 ADD AND DUP3 ADD DUP1 PUSH1 0x40 MSTORE POP DUP2 ADD SWAP1 PUSH2 0x243B SWAP2 SWAP1 PUSH2 0x3C2E JUMP JUMPDEST PUSH1 0x1 JUMPDEST PUSH2 0x24BF JUMPI RETURNDATASIZE DUP1 PUSH0 DUP2 EQ PUSH2 0x246C JUMPI PUSH1 0x40 MLOAD SWAP2 POP PUSH1 0x1F NOT PUSH1 0x3F RETURNDATASIZE ADD AND DUP3 ADD PUSH1 0x40 MSTORE RETURNDATASIZE DUP3 MSTORE RETURNDATASIZE PUSH0 PUSH1 0x20 DUP5 ADD RETURNDATACOPY PUSH2 0x2471 JUMP JUMPDEST PUSH1 0x60 SWAP2 POP JUMPDEST POP PUSH0 DUP2 MLOAD SUB PUSH2 0x24B7 JUMPI DUP4 PUSH1 0x40 MLOAD PUSH32 0x64A0AE9200000000000000000000000000000000000000000000000000000000 DUP2 MSTORE PUSH1 0x4 ADD PUSH2 0x24AE SWAP2 SWAP1 PUSH2 0x2C6B JUMP JUMPDEST PUSH1 0x40 MLOAD DUP1 SWAP2 SUB SWAP1 REVERT JUMPDEST DUP1 MLOAD DUP2 PUSH1 0x20 ADD REVERT JUMPDEST PUSH4 0xB1CFF380 PUSH1 0xE0 SHL PUSH28 0xFFFFFFFFFFFFFFFFFFFFFFFFFFFFFFFFFFFFFFFFFFFFFFFFFFFFFFFF NOT AND DUP2 PUSH28 0xFFFFFFFFFFFFFFFFFFFFFFFFFFFFFFFFFFFFFFFFFFFFFFFFFFFFFFFF NOT AND EQ PUSH2 0x2548 JUMPI DUP4 PUSH1 0x40 MLOAD PUSH32 0x64A0AE9200000000000000000000000000000000000000000000000000000000 DUP2 MSTORE PUSH1 0x4 ADD PUSH2 0x253F SWAP2 SWAP1 PUSH2 0x2C6B JUMP JUMPDEST PUSH1 0x40 MLOAD DUP1 SWAP2 SUB SWAP1 REVERT JUMPDEST POP JUMPDEST POP POP POP POP JUMP JUMPDEST PUSH1 0x60 PUSH1 0x40 MLOAD DUP1 PUSH1 0x20 ADD PUSH1 0x40 MSTORE DUP1 PUSH0 DUP2 MSTORE POP SWAP1 POP SWAP1 JUMP JUMPDEST PUSH1 0x60 PUSH0 PUSH1 0x1 PUSH2 0x2574 DUP5 PUSH2 0x2630 JUMP JUMPDEST ADD SWAP1 POP PUSH0 DUP2 PUSH8 0xFFFFFFFFFFFFFFFF DUP2 GT ISZERO PUSH2 0x2592 JUMPI PUSH2 0x2591 PUSH2 0x29C5 JUMP JUMPDEST JUMPDEST PUSH1 0x40 MLOAD SWAP1 DUP1 DUP3 MSTORE DUP1 PUSH1 0x1F ADD PUSH1 0x1F NOT AND PUSH1 0x20 ADD DUP3 ADD PUSH1 0x40 MSTORE DUP1 ISZERO PUSH2 0x25C4 JUMPI DUP2 PUSH1 0x20 ADD PUSH1 0x1 DUP3 MUL DUP1 CALLDATASIZE DUP4 CALLDATACOPY DUP1 DUP3 ADD SWAP2 POP POP SWAP1 POP JUMPDEST POP SWAP1 POP PUSH0 DUP3 PUSH1 0x20 ADD DUP3 ADD SWAP1 POP JUMPDEST PUSH1 0x1 ISZERO PUSH2 0x2625 JUMPI DUP1 DUP1 PUSH1 0x1 SWAP1 SUB SWAP2 POP POP PUSH32 0x3031323334353637383961626364656600000000000000000000000000000000 PUSH1 0xA DUP7 MOD BYTE DUP2 MSTORE8 PUSH1 0xA DUP6 DUP2 PUSH2 0x261A JUMPI PUSH2 0x2619 PUSH2 0x350C JUMP JUMPDEST JUMPDEST DIV SWAP5 POP PUSH0 DUP6 SUB PUSH2 0x25D1 JUMPI JUMPDEST DUP2 SWAP4 POP POP POP POP SWAP2 SWAP1 POP JUMP JUMPDEST PUSH0 DUP1 PUSH0 SWAP1 POP PUSH27 0x184F03E93FF9F4DAA797ED6E38ED64BF6A1F010000000000000000 DUP4 LT PUSH2 0x268C JUMPI PUSH27 0x184F03E93FF9F4DAA797ED6E38ED64BF6A1F010000000000000000 DUP4 DUP2 PUSH2 0x2682 JUMPI PUSH2 0x2681 PUSH2 0x350C JUMP JUMPDEST JUMPDEST DIV SWAP3 POP PUSH1 0x40 DUP2 ADD SWAP1 POP JUMPDEST PUSH14 0x4EE2D6D415B85ACEF8100000000 DUP4 LT PUSH2 0x26C9 JUMPI PUSH14 0x4EE2D6D415B85ACEF8100000000 DUP4 DUP2 PUSH2 0x26BF JUMPI PUSH2 0x26BE PUSH2 0x350C JUMP JUMPDEST JUMPDEST DIV SWAP3 POP PUSH1 0x20 DUP2 ADD SWAP1 POP JUMPDEST PUSH7 0x2386F26FC10000 DUP4 LT PUSH2 0x26F8 JUMPI PUSH7 0x2386F26FC10000 DUP4 DUP2 PUSH2 0x26EE JUMPI PUSH2 0x26ED PUSH2 0x350C JUMP JUMPDEST JUMPDEST DIV SWAP3 POP PUSH1 0x10 DUP2 ADD SWAP1 POP JUMPDEST PUSH4 0x5F5E100 DUP4 LT PUSH2 0x2721 JUMPI PUSH4 0x5F5E100 DUP4 DUP2 PUSH2 0x2717 JUMPI PUSH2 0x2716 PUSH2 0x350C JUMP JUMPDEST JUMPDEST DIV SWAP3 POP PUSH1 0x8 DUP2 ADD SWAP1 POP JUMPDEST PUSH2 0x2710 DUP4 LT PUSH2 0x2746 JUMPI PUSH2 0x2710 DUP4 DUP2 PUSH2 0x273C JUMPI PUSH2 0x273B PUSH2 0x350C JUMP JUMPDEST JUMPDEST DIV SWAP3 POP PUSH1 0x4 DUP2 ADD SWAP1 POP JUMPDEST PUSH1 0x64 DUP4 LT PUSH2 0x2769 JUMPI PUSH1 0x64 DUP4 DUP2 PUSH2 0x275F JUMPI PUSH2 0x275E PUSH2 0x350C JUMP JUMPDEST JUMPDEST DIV SWAP3 POP PUSH1 0x2 DUP2 ADD SWAP1 POP JUMPDEST PUSH1 0xA DUP4 LT PUSH2 0x2778 JUMPI PUSH1 0x1 DUP2 ADD SWAP1 POP JUMPDEST DUP1 SWAP2 POP POP SWAP2 SWAP1 POP JUMP JUMPDEST DUP3 PUSH2 0x4B1 PUSH1 0xF ADD PUSH1 0x10 SWAP1 DIV DUP2 ADD SWAP3 DUP3 ISZERO PUSH2 0x280D JUMPI SWAP2 PUSH1 0x20 MUL DUP3 ADD PUSH0 JUMPDEST DUP4 DUP3 GT ISZERO PUSH2 0x27DD JUMPI DUP4 MLOAD DUP4 DUP3 PUSH2 0x100 EXP DUP2 SLOAD DUP2 PUSH2 0xFFFF MUL NOT AND SWAP1 DUP4 PUSH2 0xFFFF AND MUL OR SWAP1 SSTORE POP SWAP3 PUSH1 0x20 ADD SWAP3 PUSH1 0x2 ADD PUSH1 0x20 DUP2 PUSH1 0x1 ADD DIV SWAP3 DUP4 ADD SWAP3 PUSH1 0x1 SUB MUL PUSH2 0x279D JUMP JUMPDEST DUP1 ISZERO PUSH2 0x280B JUMPI DUP3 DUP2 PUSH2 0x100 EXP DUP2 SLOAD SWAP1 PUSH2 0xFFFF MUL NOT AND SWAP1 SSTORE PUSH1 0x2 ADD PUSH1 0x20 DUP2 PUSH1 0x1 ADD DIV SWAP3 DUP4 ADD SWAP3 PUSH1 0x1 SUB MUL PUSH2 0x27DD JUMP JUMPDEST POP JUMPDEST POP SWAP1 POP PUSH2 0x281A SWAP2 SWAP1 PUSH2 0x281E JUMP JUMPDEST POP SWAP1 JUMP JUMPDEST JUMPDEST DUP1 DUP3 GT ISZERO PUSH2 0x2835 JUMPI PUSH0 DUP2 PUSH0 SWAP1 SSTORE POP PUSH1 0x1 ADD PUSH2 0x281F JUMP JUMPDEST POP SWAP1 JUMP JUMPDEST PUSH0 PUSH32 0xFFFFFFFFFFFFFFFFFFFFFFFFFFFFFFFFFFFFFFFF000000000000000000000000 DUP3 AND SWAP1 POP SWAP2 SWAP1 POP JUMP JUMPDEST PUSH2 0x286D DUP2 PUSH2 0x2839 JUMP JUMPDEST DUP3 MSTORE POP POP JUMP JUMPDEST PUSH0 PUSH1 0x20 DUP3 ADD SWAP1 POP PUSH2 0x2886 PUSH0 DUP4 ADD DUP5 PUSH2 0x2864 JUMP JUMPDEST SWAP3 SWAP2 POP POP JUMP JUMPDEST PUSH0 PUSH1 0x40 MLOAD SWAP1 POP SWAP1 JUMP JUMPDEST PUSH0 DUP1 REVERT JUMPDEST PUSH0 DUP1 REVERT JUMPDEST PUSH0 PUSH20 0xFFFFFFFFFFFFFFFFFFFFFFFFFFFFFFFFFFFFFFFF DUP3 AND SWAP1 POP SWAP2 SWAP1 POP JUMP JUMPDEST PUSH0 PUSH2 0x28C6 DUP3 PUSH2 0x289D JUMP JUMPDEST SWAP1 POP SWAP2 SWAP1 POP JUMP JUMPDEST PUSH2 0x28D6 DUP2 PUSH2 0x28BC JUMP JUMPDEST DUP2 EQ PUSH2 0x28E0 JUMPI PUSH0 DUP1 REVERT JUMPDEST POP JUMP JUMPDEST PUSH0 DUP2 CALLDATALOAD SWAP1 POP PUSH2 0x28F1 DUP2 PUSH2 0x28CD JUMP JUMPDEST SWAP3 SWAP2 POP POP JUMP JUMPDEST PUSH0 PUSH2 0xFFFF DUP3 AND SWAP1 POP SWAP2 SWAP1 POP JUMP JUMPDEST PUSH2 0x290D DUP2 PUSH2 0x28F7 JUMP JUMPDEST DUP2 EQ PUSH2 0x2917 JUMPI PUSH0 DUP1 REVERT JUMPDEST POP JUMP JUMPDEST PUSH0 DUP2 CALLDATALOAD SWAP1 POP PUSH2 0x2928 DUP2 PUSH2 0x2904 JUMP JUMPDEST SWAP3 SWAP2 POP POP JUMP JUMPDEST PUSH0 DUP1 PUSH0 PUSH1 0x60 DUP5 DUP7 SUB SLT ISZERO PUSH2 0x2945 JUMPI PUSH2 0x2944 PUSH2 0x2895 JUMP JUMPDEST JUMPDEST PUSH0 PUSH2 0x2952 DUP7 DUP3 DUP8 ADD PUSH2 0x28E3 JUMP JUMPDEST SWAP4 POP POP PUSH1 0x20 PUSH2 0x2963 DUP7 DUP3 DUP8 ADD PUSH2 0x28E3 JUMP JUMPDEST SWAP3 POP POP PUSH1 0x40 PUSH2 0x2974 DUP7 DUP3 DUP8 ADD PUSH2 0x291A JUMP JUMPDEST SWAP2 POP POP SWAP3 POP SWAP3 POP SWAP3 JUMP JUMPDEST PUSH0 DUP2 SWAP1 POP SWAP2 SWAP1 POP JUMP JUMPDEST PUSH2 0x2990 DUP2 PUSH2 0x297E JUMP JUMPDEST DUP2 EQ PUSH2 0x299A JUMPI PUSH0 DUP1 REVERT JUMPDEST POP JUMP JUMPDEST PUSH0 DUP2 CALLDATALOAD SWAP1 POP PUSH2 0x29AB DUP2 PUSH2 0x2987 JUMP JUMPDEST SWAP3 SWAP2 POP POP JUMP JUMPDEST PUSH0 DUP1 REVERT JUMPDEST PUSH0 PUSH1 0x1F NOT PUSH1 0x1F DUP4 ADD AND SWAP1 POP SWAP2 SWAP1 POP JUMP JUMPDEST PUSH32 0x4E487B7100000000000000000000000000000000000000000000000000000000 PUSH0 MSTORE PUSH1 0x41 PUSH1 0x4 MSTORE PUSH1 0x24 PUSH0 REVERT JUMPDEST PUSH2 0x29FB DUP3 PUSH2 0x29B5 JUMP JUMPDEST DUP2 ADD DUP2 DUP2 LT PUSH8 0xFFFFFFFFFFFFFFFF DUP3 GT OR ISZERO PUSH2 0x2A1A JUMPI PUSH2 0x2A19 PUSH2 0x29C5 JUMP JUMPDEST JUMPDEST DUP1 PUSH1 0x40 MSTORE POP POP POP JUMP JUMPDEST PUSH0 PUSH2 0x2A2C PUSH2 0x288C JUMP JUMPDEST SWAP1 POP PUSH2 0x2A38 DUP3 DUP3 PUSH2 0x29F2 JUMP JUMPDEST SWAP2 SWAP1 POP JUMP JUMPDEST PUSH0 PUSH8 0xFFFFFFFFFFFFFFFF DUP3 GT ISZERO PUSH2 0x2A57 JUMPI PUSH2 0x2A56 PUSH2 0x29C5 JUMP JUMPDEST JUMPDEST PUSH1 0x20 DUP3 MUL SWAP1 POP SWAP2 SWAP1 POP JUMP JUMPDEST PUSH0 DUP1 REVERT JUMPDEST PUSH0 PUSH2 0x2A78 PUSH2 0x2A73 DUP5 PUSH2 0x2A3D JUMP JUMPDEST PUSH2 0x2A23 JUMP JUMPDEST SWAP1 POP DUP1 PUSH1 0x20 DUP5 MUL DUP4 ADD DUP6 DUP2 GT ISZERO PUSH2 0x2A92 JUMPI PUSH2 0x2A91 PUSH2 0x2A62 JUMP JUMPDEST JUMPDEST DUP4 JUMPDEST DUP2 DUP2 LT ISZERO PUSH2 0x2ABB JUMPI DUP1 PUSH2 0x2AA7 DUP9 DUP3 PUSH2 0x291A JUMP JUMPDEST DUP5 MSTORE PUSH1 0x20 DUP5 ADD SWAP4 POP POP PUSH1 0x20 DUP2 ADD SWAP1 POP PUSH2 0x2A94 JUMP JUMPDEST POP POP POP SWAP4 SWAP3 POP POP POP JUMP JUMPDEST PUSH0 DUP3 PUSH1 0x1F DUP4 ADD SLT PUSH2 0x2AD9 JUMPI PUSH2 0x2AD8 PUSH2 0x29B1 JUMP JUMPDEST JUMPDEST PUSH2 0x4B1 PUSH2 0x2AE7 DUP5 DUP3 DUP6 PUSH2 0x2A66 JUMP JUMPDEST SWAP2 POP POP SWAP3 SWAP2 POP POP JUMP JUMPDEST PUSH0 DUP1 PUSH0 DUP1 PUSH0 DUP1 PUSH2 0x96C0 DUP8 DUP10 SUB SLT ISZERO PUSH2 0x2B0B JUMPI PUSH2 0x2B0A PUSH2 0x2895 JUMP JUMPDEST JUMPDEST PUSH0 PUSH2 0x2B18 DUP10 DUP3 DUP11 ADD PUSH2 0x291A JUMP JUMPDEST SWAP7 POP POP PUSH1 0x20 PUSH2 0x2B29 DUP10 DUP3 DUP11 ADD PUSH2 0x299D JUMP JUMPDEST SWAP6 POP POP PUSH1 0x40 PUSH2 0x2B3A DUP10 DUP3 DUP11 ADD PUSH2 0x28E3 JUMP JUMPDEST SWAP5 POP POP PUSH1 0x60 PUSH2 0x2B4B DUP10 DUP3 DUP11 ADD PUSH2 0x28E3 JUMP JUMPDEST SWAP4 POP POP PUSH1 0x80 PUSH2 0x2B5C DUP10 DUP3 DUP11 ADD PUSH2 0x299D JUMP JUMPDEST SWAP3 POP POP PUSH1 0xA0 PUSH2 0x2B6D DUP10 DUP3 DUP11 ADD PUSH2 0x2AC5 JUMP JUMPDEST SWAP2 POP POP SWAP3 SWAP6 POP SWAP3 SWAP6 POP SWAP3 SWAP6 JUMP JUMPDEST PUSH0 PUSH1 0x20 DUP3 DUP5 SUB SLT ISZERO PUSH2 0x2B8F JUMPI PUSH2 0x2B8E PUSH2 0x2895 JUMP JUMPDEST JUMPDEST PUSH0 PUSH2 0x2B9C DUP5 DUP3 DUP6 ADD PUSH2 0x28E3 JUMP JUMPDEST SWAP2 POP POP SWAP3 SWAP2 POP POP JUMP JUMPDEST PUSH0 DUP2 ISZERO ISZERO SWAP1 POP SWAP2 SWAP1 POP JUMP JUMPDEST PUSH2 0x2BB9 DUP2 PUSH2 0x2BA5 JUMP JUMPDEST DUP3 MSTORE POP POP JUMP JUMPDEST PUSH0 PUSH1 0x20 DUP3 ADD SWAP1 POP PUSH2 0x2BD2 PUSH0 DUP4 ADD DUP5 PUSH2 0x2BB0 JUMP JUMPDEST SWAP3 SWAP2 POP POP JUMP JUMPDEST PUSH0 DUP2 SWAP1 POP SWAP2 SWAP1 POP JUMP JUMPDEST PUSH2 0x2BEA DUP2 PUSH2 0x2BD8 JUMP JUMPDEST DUP3 MSTORE POP POP JUMP JUMPDEST PUSH0 PUSH1 0x20 DUP3 ADD SWAP1 POP PUSH2 0x2C03 PUSH0 DUP4 ADD DUP5 PUSH2 0x2BE1 JUMP JUMPDEST SWAP3 SWAP2 POP POP JUMP JUMPDEST PUSH2 0x2C12 DUP2 PUSH2 0x28F7 JUMP JUMPDEST DUP3 MSTORE POP POP JUMP JUMPDEST PUSH0 PUSH1 0x20 DUP3 ADD SWAP1 POP PUSH2 0x2C2B PUSH0 DUP4 ADD DUP5 PUSH2 0x2C09 JUMP JUMPDEST SWAP3 SWAP2 POP POP JUMP JUMPDEST PUSH0 PUSH1 0x20 DUP3 DUP5 SUB SLT ISZERO PUSH2 0x2C46 JUMPI PUSH2 0x2C45 PUSH2 0x2895 JUMP JUMPDEST JUMPDEST PUSH0 PUSH2 0x2C53 DUP5 DUP3 DUP6 ADD PUSH2 0x291A JUMP JUMPDEST SWAP2 POP POP SWAP3 SWAP2 POP POP JUMP JUMPDEST PUSH2 0x2C65 DUP2 PUSH2 0x28BC JUMP JUMPDEST DUP3 MSTORE POP POP JUMP JUMPDEST PUSH0 PUSH1 0x20 DUP3 ADD SWAP1 POP PUSH2 0x2C7E PUSH0 DUP4 ADD DUP5 PUSH2 0x2C5C JUMP JUMPDEST SWAP3 SWAP2 POP POP JUMP JUMPDEST PUSH0 PUSH32 0xFFFFFFFFFFFFFFFFFFFF00000000000000000000000000000000000000000000 DUP3 AND SWAP1 POP SWAP2 SWAP1 POP JUMP JUMPDEST PUSH2 0x2CB8 DUP2 PUSH2 0x2C84 JUMP JUMPDEST DUP3 MSTORE POP POP JUMP JUMPDEST PUSH0 PUSH1 0x20 DUP3 ADD SWAP1 POP PUSH2 0x2CD1 PUSH0 DUP4 ADD DUP5 PUSH2 0x2CAF JUMP JUMPDEST SWAP3 SWAP2 POP POP JUMP JUMPDEST PUSH2 0x2CE0 DUP2 PUSH2 0x2BA5 JUMP JUMPDEST DUP2 EQ PUSH2 0x2CEA JUMPI PUSH0 DUP1 REVERT JUMPDEST POP JUMP JUMPDEST PUSH0 DUP2 CALLDATALOAD SWAP1 POP PUSH2 0x2CFB DUP2 PUSH2 0x2CD7 JUMP JUMPDEST SWAP3 SWAP2 POP POP JUMP JUMPDEST PUSH0 DUP1 PUSH1 0x40 DUP4 DUP6 SUB SLT ISZERO PUSH2 0x2D17 JUMPI PUSH2 0x2D16 PUSH2 0x2895 JUMP JUMPDEST JUMPDEST PUSH0 PUSH2 0x2D24 DUP6 DUP3 DUP7 ADD PUSH2 0x28E3 JUMP JUMPDEST SWAP3 POP POP PUSH1 0x20 PUSH2 0x2D35 DUP6 DUP3 DUP7 ADD PUSH2 0x2CED JUMP JUMPDEST SWAP2 POP POP SWAP3 POP SWAP3 SWAP1 POP JUMP JUMPDEST PUSH0 DUP1 REVERT JUMPDEST PUSH0 PUSH8 0xFFFFFFFFFFFFFFFF DUP3 GT ISZERO PUSH2 0x2D5D JUMPI PUSH2 0x2D5C PUSH2 0x29C5 JUMP JUMPDEST JUMPDEST PUSH2 0x2D66 DUP3 PUSH2 0x29B5 JUMP JUMPDEST SWAP1 POP PUSH1 0x20 DUP2 ADD SWAP1 POP SWAP2 SWAP1 POP JUMP JUMPDEST DUP3 DUP2 DUP4 CALLDATACOPY PUSH0 DUP4 DUP4 ADD MSTORE POP POP POP JUMP JUMPDEST PUSH0 PUSH2 0x2D93 PUSH2 0x2D8E DUP5 PUSH2 0x2D43 JUMP JUMPDEST PUSH2 0x2A23 JUMP JUMPDEST SWAP1 POP DUP3 DUP2 MSTORE PUSH1 0x20 DUP2 ADD DUP5 DUP5 DUP5 ADD GT ISZERO PUSH2 0x2DAF JUMPI PUSH2 0x2DAE PUSH2 0x2D3F JUMP JUMPDEST JUMPDEST PUSH2 0x2DBA DUP5 DUP3 DUP6 PUSH2 0x2D73 JUMP JUMPDEST POP SWAP4 SWAP3 POP POP POP JUMP JUMPDEST PUSH0 DUP3 PUSH1 0x1F DUP4 ADD SLT PUSH2 0x2DD6 JUMPI PUSH2 0x2DD5 PUSH2 0x29B1 JUMP JUMPDEST JUMPDEST DUP2 CALLDATALOAD PUSH2 0x2DE6 DUP5 DUP3 PUSH1 0x20 DUP7 ADD PUSH2 0x2D81 JUMP JUMPDEST SWAP2 POP POP SWAP3 SWAP2 POP POP JUMP JUMPDEST PUSH0 DUP1 PUSH0 DUP1 PUSH1 0x80 DUP6 DUP8 SUB SLT ISZERO PUSH2 0x2E07 JUMPI PUSH2 0x2E06 PUSH2 0x2895 JUMP JUMPDEST JUMPDEST PUSH0 PUSH2 0x2E14 DUP8 DUP3 DUP9 ADD PUSH2 0x28E3 JUMP JUMPDEST SWAP5 POP POP PUSH1 0x20 PUSH2 0x2E25 DUP8 DUP3 DUP9 ADD PUSH2 0x28E3 JUMP JUMPDEST SWAP4 POP POP PUSH1 0x40 PUSH2 0x2E36 DUP8 DUP3 DUP9 ADD PUSH2 0x291A JUMP JUMPDEST SWAP3 POP POP PUSH1 0x60 DUP6 ADD CALLDATALOAD PUSH8 0xFFFFFFFFFFFFFFFF DUP2 GT ISZERO PUSH2 0x2E57 JUMPI PUSH2 0x2E56 PUSH2 0x2899 JUMP JUMPDEST JUMPDEST PUSH2 0x2E63 DUP8 DUP3 DUP9 ADD PUSH2 0x2DC2 JUMP JUMPDEST SWAP2 POP POP SWAP3 SWAP6 SWAP2 SWAP5 POP SWAP3 POP JUMP JUMPDEST PUSH0 DUP1 REVERT JUMPDEST PUSH0 DUP1 DUP4 PUSH1 0x1F DUP5 ADD SLT PUSH2 0x2E88 JUMPI PUSH2 0x2E87 PUSH2 0x29B1 JUMP JUMPDEST JUMPDEST DUP3 CALLDATALOAD SWAP1 POP PUSH8 0xFFFFFFFFFFFFFFFF DUP2 GT ISZERO PUSH2 0x2EA5 JUMPI PUSH2 0x2EA4 PUSH2 0x2E6F JUMP JUMPDEST JUMPDEST PUSH1 0x20 DUP4 ADD SWAP2 POP DUP4 PUSH1 0x1 DUP3 MUL DUP4 ADD GT ISZERO PUSH2 0x2EC1 JUMPI PUSH2 0x2EC0 PUSH2 0x2A62 JUMP JUMPDEST JUMPDEST SWAP3 POP SWAP3 SWAP1 POP JUMP JUMPDEST PUSH0 DUP1 PUSH0 DUP1 PUSH0 PUSH1 0x80 DUP7 DUP9 SUB SLT ISZERO PUSH2 0x2EE1 JUMPI PUSH2 0x2EE0 PUSH2 0x2895 JUMP JUMPDEST JUMPDEST PUSH0 PUSH2 0x2EEE DUP9 DUP3 DUP10 ADD PUSH2 0x28E3 JUMP JUMPDEST SWAP6 POP POP PUSH1 0x20 PUSH2 0x2EFF DUP9 DUP3 DUP10 ADD PUSH2 0x28E3 JUMP JUMPDEST SWAP5 POP POP PUSH1 0x40 PUSH2 0x2F10 DUP9 DUP3 DUP10 ADD PUSH2 0x291A JUMP JUMPDEST SWAP4 POP POP PUSH1 0x60 DUP7 ADD CALLDATALOAD PUSH8 0xFFFFFFFFFFFFFFFF DUP2 GT ISZERO PUSH2 0x2F31 JUMPI PUSH2 0x2F30 PUSH2 0x2899 JUMP JUMPDEST JUMPDEST PUSH2 0x2F3D DUP9 DUP3 DUP10 ADD PUSH2 0x2E73 JUMP JUMPDEST SWAP3 POP SWAP3 POP POP SWAP3 SWAP6 POP SWAP3 SWAP6 SWAP1 SWAP4 POP JUMP JUMPDEST PUSH0 PUSH32 0xFFFFFFFF00000000000000000000000000000000000000000000000000000000 DUP3 AND SWAP1 POP SWAP2 SWAP1 POP JUMP JUMPDEST PUSH2 0x2F80 DUP2 PUSH2 0x2F4C JUMP JUMPDEST DUP3 MSTORE POP POP JUMP JUMPDEST PUSH0 PUSH1 0x20 DUP3 ADD SWAP1 POP PUSH2 0x2F99 PUSH0 DUP4 ADD DUP5 PUSH2 0x2F77 JUMP JUMPDEST SWAP3 SWAP2 POP POP JUMP JUMPDEST PUSH0 PUSH6 0xFFFFFFFFFFFF DUP3 AND SWAP1 POP SWAP2 SWAP1 POP JUMP JUMPDEST PUSH2 0x2FB9 DUP2 PUSH2 0x2F9F JUMP JUMPDEST DUP2 EQ PUSH2 0x2FC3 JUMPI PUSH0 DUP1 REVERT JUMPDEST POP JUMP JUMPDEST PUSH0 DUP2 CALLDATALOAD SWAP1 POP PUSH2 0x2FD4 DUP2 PUSH2 0x2FB0 JUMP JUMPDEST SWAP3 SWAP2 POP POP JUMP JUMPDEST PUSH0 PUSH1 0x20 DUP3 DUP5 SUB SLT ISZERO PUSH2 0x2FEF JUMPI PUSH2 0x2FEE PUSH2 0x2895 JUMP JUMPDEST JUMPDEST PUSH0 PUSH2 0x2FFC DUP5 DUP3 DUP6 ADD PUSH2 0x2FC6 JUMP JUMPDEST SWAP2 POP POP SWAP3 SWAP2 POP POP JUMP JUMPDEST PUSH0 DUP2 MLOAD SWAP1 POP SWAP2 SWAP1 POP JUMP JUMPDEST PUSH0 DUP3 DUP3 MSTORE PUSH1 0x20 DUP3 ADD SWAP1 POP SWAP3 SWAP2 POP POP JUMP JUMPDEST PUSH0 JUMPDEST DUP4 DUP2 LT ISZERO PUSH2 0x303C JUMPI DUP1 DUP3 ADD MLOAD DUP2 DUP5 ADD MSTORE PUSH1 0x20 DUP2 ADD SWAP1 POP PUSH2 0x3021 JUMP JUMPDEST PUSH0 DUP5 DUP5 ADD MSTORE POP POP POP POP JUMP JUMPDEST PUSH0 PUSH2 0x3051 DUP3 PUSH2 0x3005 JUMP JUMPDEST PUSH2 0x305B DUP2 DUP6 PUSH2 0x300F JUMP JUMPDEST SWAP4 POP PUSH2 0x306B DUP2 DUP6 PUSH1 0x20 DUP7 ADD PUSH2 0x301F JUMP JUMPDEST PUSH2 0x3074 DUP2 PUSH2 0x29B5 JUMP JUMPDEST DUP5 ADD SWAP2 POP POP SWAP3 SWAP2 POP POP JUMP JUMPDEST PUSH0 PUSH1 0x20 DUP3 ADD SWAP1 POP DUP2 DUP2 SUB PUSH0 DUP4 ADD MSTORE PUSH2 0x3097 DUP2 DUP5 PUSH2 0x3047 JUMP JUMPDEST SWAP1 POP SWAP3 SWAP2 POP POP JUMP JUMPDEST PUSH0 DUP2 MLOAD SWAP1 POP SWAP2 SWAP1 POP JUMP JUMPDEST PUSH0 DUP3 DUP3 MSTORE PUSH1 0x20 DUP3 ADD SWAP1 POP SWAP3 SWAP2 POP POP JUMP JUMPDEST PUSH0 PUSH2 0x30C3 DUP3 PUSH2 0x309F JUMP JUMPDEST PUSH2 0x30CD DUP2 DUP6 PUSH2 0x30A9 JUMP JUMPDEST SWAP4 POP PUSH2 0x30DD DUP2 DUP6 PUSH1 0x20 DUP7 ADD PUSH2 0x301F JUMP JUMPDEST PUSH2 0x30E6 DUP2 PUSH2 0x29B5 JUMP JUMPDEST DUP5 ADD SWAP2 POP POP SWAP3 SWAP2 POP POP JUMP JUMPDEST PUSH0 PUSH1 0x20 DUP3 ADD SWAP1 POP DUP2 DUP2 SUB PUSH0 DUP4 ADD MSTORE PUSH2 0x3109 DUP2 DUP5 PUSH2 0x30B9 JUMP JUMPDEST SWAP1 POP SWAP3 SWAP2 POP POP JUMP JUMPDEST PUSH0 DUP1 PUSH1 0x40 DUP4 DUP6 SUB SLT ISZERO PUSH2 0x3127 JUMPI PUSH2 0x3126 PUSH2 0x2895 JUMP JUMPDEST JUMPDEST PUSH0 PUSH2 0x3134 DUP6 DUP3 DUP7 ADD PUSH2 0x28E3 JUMP JUMPDEST SWAP3 POP POP PUSH1 0x20 PUSH2 0x3145 DUP6 DUP3 DUP7 ADD PUSH2 0x291A JUMP JUMPDEST SWAP2 POP POP SWAP3 POP SWAP3 SWAP1 POP JUMP JUMPDEST PUSH0 DUP1 PUSH1 0x40 DUP4 DUP6 SUB SLT ISZERO PUSH2 0x3165 JUMPI PUSH2 0x3164 PUSH2 0x2895 JUMP JUMPDEST JUMPDEST PUSH0 PUSH2 0x3172 DUP6 DUP3 DUP7 ADD PUSH2 0x28E3 JUMP JUMPDEST SWAP3 POP POP PUSH1 0x20 PUSH2 0x3183 DUP6 DUP3 DUP7 ADD PUSH2 0x28E3 JUMP JUMPDEST SWAP2 POP POP SWAP3 POP SWAP3 SWAP1 POP JUMP JUMPDEST PUSH0 DUP1 PUSH1 0x40 DUP4 DUP6 SUB SLT ISZERO PUSH2 0x31A3 JUMPI PUSH2 0x31A2 PUSH2 0x2895 JUMP JUMPDEST JUMPDEST PUSH0 PUSH2 0x31B0 DUP6 DUP3 DUP7 ADD PUSH2 0x291A JUMP JUMPDEST SWAP3 POP POP PUSH1 0x20 PUSH2 0x31C1 DUP6 DUP3 DUP7 ADD PUSH2 0x2CED JUMP JUMPDEST SWAP2 POP POP SWAP3 POP SWAP3 SWAP1 POP JUMP JUMPDEST PUSH32 0x596F7520646F206E6F7420686176652061636365737320746F20746869732066 PUSH0 DUP3 ADD MSTORE PUSH32 0x756E6374696F6E00000000000000000000000000000000000000000000000000 PUSH1 0x20 DUP3 ADD MSTORE POP JUMP JUMPDEST PUSH0 PUSH2 0x3225 PUSH1 0x27 DUP4 PUSH2 0x30A9 JUMP JUMPDEST SWAP2 POP PUSH2 0x3230 DUP3 PUSH2 0x31CB JUMP JUMPDEST PUSH1 0x40 DUP3 ADD SWAP1 POP SWAP2 SWAP1 POP JUMP JUMPDEST PUSH0 PUSH1 0x20 DUP3 ADD SWAP1 POP DUP2 DUP2 SUB PUSH0 DUP4 ADD MSTORE PUSH2 0x3252 DUP2 PUSH2 0x3219 JUMP JUMPDEST SWAP1 POP SWAP2 SWAP1 POP JUMP JUMPDEST PUSH32 0x54686520656E746572656420706172616D657465727320617265206E6F742061 PUSH0 DUP3 ADD MSTORE PUSH32 0x636365707461626C650000000000000000000000000000000000000000000000 PUSH1 0x20 DUP3 ADD MSTORE POP JUMP JUMPDEST PUSH0 PUSH2 0x32B3 PUSH1 0x29 DUP4 PUSH2 0x30A9 JUMP JUMPDEST SWAP2 POP PUSH2 0x32BE DUP3 PUSH2 0x3259 JUMP JUMPDEST PUSH1 0x40 DUP3 ADD SWAP1 POP SWAP2 SWAP1 POP JUMP JUMPDEST PUSH0 PUSH1 0x20 DUP3 ADD SWAP1 POP DUP2 DUP2 SUB PUSH0 DUP4 ADD MSTORE PUSH2 0x32E0 DUP2 PUSH2 0x32A7 JUMP JUMPDEST SWAP1 POP SWAP2 SWAP1 POP JUMP JUMPDEST PUSH32 0x4E487B7100000000000000000000000000000000000000000000000000000000 PUSH0 MSTORE PUSH1 0x32 PUSH1 0x4 MSTORE PUSH1 0x24 PUSH0 REVERT JUMPDEST PUSH32 0x4E487B7100000000000000000000000000000000000000000000000000000000 PUSH0 MSTORE PUSH1 0x11 PUSH1 0x4 MSTORE PUSH1 0x24 PUSH0 REVERT JUMPDEST PUSH0 PUSH2 0x334B DUP3 PUSH2 0x28F7 JUMP JUMPDEST SWAP2 POP PUSH2 0x3356 DUP4 PUSH2 0x28F7 JUMP JUMPDEST SWAP3 POP DUP3 DUP3 SUB SWAP1 POP PUSH2 0xFFFF DUP2 GT ISZERO PUSH2 0x3370 JUMPI PUSH2 0x336F PUSH2 0x3314 JUMP JUMPDEST JUMPDEST SWAP3 SWAP2 POP POP JUMP JUMPDEST PUSH32 0x596F7520646F206E6F742068617665207065726D697373696F6E20746F207570 PUSH0 DUP3 ADD MSTORE PUSH32 0x6772616465000000000000000000000000000000000000000000000000000000 PUSH1 0x20 DUP3 ADD MSTORE POP JUMP JUMPDEST PUSH0 PUSH2 0x33D0 PUSH1 0x25 DUP4 PUSH2 0x30A9 JUMP JUMPDEST SWAP2 POP PUSH2 0x33DB DUP3 PUSH2 0x3376 JUMP JUMPDEST PUSH1 0x40 DUP3 ADD SWAP1 POP SWAP2 SWAP1 POP JUMP JUMPDEST PUSH0 PUSH1 0x20 DUP3 ADD SWAP1 POP DUP2 DUP2 SUB PUSH0 DUP4 ADD MSTORE PUSH2 0x33FD DUP2 PUSH2 0x33C4 JUMP JUMPDEST SWAP1 POP SWAP2 SWAP1 POP JUMP JUMPDEST PUSH2 0x340D DUP2 PUSH2 0x297E JUMP JUMPDEST DUP3 MSTORE POP POP JUMP JUMPDEST PUSH0 PUSH1 0x60 DUP3 ADD SWAP1 POP PUSH2 0x3426 PUSH0 DUP4 ADD DUP7 PUSH2 0x2C5C JUMP JUMPDEST PUSH2 0x3433 PUSH1 0x20 DUP4 ADD DUP6 PUSH2 0x2C5C JUMP JUMPDEST PUSH2 0x3440 PUSH1 0x40 DUP4 ADD DUP5 PUSH2 0x3404 JUMP JUMPDEST SWAP5 SWAP4 POP POP POP POP JUMP JUMPDEST PUSH32 0x416363657373206F6E6C7920666F72206578656375746F720000000000000000 PUSH0 DUP3 ADD MSTORE POP JUMP JUMPDEST PUSH0 PUSH2 0x347C PUSH1 0x18 DUP4 PUSH2 0x30A9 JUMP JUMPDEST SWAP2 POP PUSH2 0x3487 DUP3 PUSH2 0x3448 JUMP JUMPDEST PUSH1 0x20 DUP3 ADD SWAP1 POP SWAP2 SWAP1 POP JUMP JUMPDEST PUSH0 PUSH1 0x20 DUP3 ADD SWAP1 POP DUP2 DUP2 SUB PUSH0 DUP4 ADD MSTORE PUSH2 0x34A9 DUP2 PUSH2 0x3470 JUMP JUMPDEST SWAP1 POP SWAP2 SWAP1 POP JUMP JUMPDEST PUSH0 PUSH2 0x34BA DUP3 PUSH2 0x28F7 JUMP JUMPDEST SWAP2 POP PUSH2 0xFFFF DUP3 SUB PUSH2 0x34CE JUMPI PUSH2 0x34CD PUSH2 0x3314 JUMP JUMPDEST JUMPDEST PUSH1 0x1 DUP3 ADD SWAP1 POP SWAP2 SWAP1 POP JUMP JUMPDEST PUSH0 PUSH2 0x34E3 DUP3 PUSH2 0x297E JUMP JUMPDEST SWAP2 POP PUSH2 0x34EE DUP4 PUSH2 0x297E JUMP JUMPDEST SWAP3 POP DUP3 DUP3 ADD SWAP1 POP DUP1 DUP3 GT ISZERO PUSH2 0x3506 JUMPI PUSH2 0x3505 PUSH2 0x3314 JUMP JUMPDEST JUMPDEST SWAP3 SWAP2 POP POP JUMP JUMPDEST PUSH32 0x4E487B7100000000000000000000000000000000000000000000000000000000 PUSH0 MSTORE PUSH1 0x12 PUSH1 0x4 MSTORE PUSH1 0x24 PUSH0 REVERT JUMPDEST PUSH0 PUSH2 0x3543 DUP3 PUSH2 0x28F7 JUMP JUMPDEST SWAP2 POP PUSH2 0x354E DUP4 PUSH2 0x28F7 JUMP JUMPDEST SWAP3 POP DUP3 PUSH2 0x355E JUMPI PUSH2 0x355D PUSH2 0x350C JUMP JUMPDEST JUMPDEST DUP3 DUP3 MOD SWAP1 POP SWAP3 SWAP2 POP POP JUMP JUMPDEST PUSH0 PUSH2 0x3573 DUP3 PUSH2 0x2F9F JUMP JUMPDEST SWAP2 POP PUSH2 0x357E DUP4 PUSH2 0x2F9F JUMP JUMPDEST SWAP3 POP DUP3 DUP3 ADD SWAP1 POP PUSH6 0xFFFFFFFFFFFF DUP2 GT ISZERO PUSH2 0x359C JUMPI PUSH2 0x359B PUSH2 0x3314 JUMP JUMPDEST JUMPDEST SWAP3 SWAP2 POP POP JUMP JUMPDEST PUSH0 PUSH2 0x35AC DUP3 PUSH2 0x28F7 JUMP JUMPDEST SWAP2 POP PUSH2 0x35B7 DUP4 PUSH2 0x28F7 JUMP JUMPDEST SWAP3 POP DUP3 DUP3 ADD SWAP1 POP PUSH2 0xFFFF DUP2 GT ISZERO PUSH2 0x35D1 JUMPI PUSH2 0x35D0 PUSH2 0x3314 JUMP JUMPDEST JUMPDEST SWAP3 SWAP2 POP POP JUMP JUMPDEST PUSH0 PUSH2 0x35E1 DUP3 PUSH2 0x28F7 JUMP JUMPDEST SWAP2 POP PUSH0 DUP3 SUB PUSH2 0x35F3 JUMPI PUSH2 0x35F2 PUSH2 0x3314 JUMP JUMPDEST JUMPDEST PUSH1 0x1 DUP3 SUB SWAP1 POP SWAP2 SWAP1 POP JUMP JUMPDEST PUSH32 0x546865207472616E73666572206F66207468697320746F6B656E206973206375 PUSH0 DUP3 ADD MSTORE PUSH32 0x7272656E746C792062616E6E6564000000000000000000000000000000000000 PUSH1 0x20 DUP3 ADD MSTORE POP JUMP JUMPDEST PUSH0 PUSH2 0x3658 PUSH1 0x2E DUP4 PUSH2 0x30A9 JUMP JUMPDEST SWAP2 POP PUSH2 0x3663 DUP3 PUSH2 0x35FE JUMP JUMPDEST PUSH1 0x40 DUP3 ADD SWAP1 POP SWAP2 SWAP1 POP JUMP JUMPDEST PUSH0 PUSH1 0x20 DUP3 ADD SWAP1 POP DUP2 DUP2 SUB PUSH0 DUP4 ADD MSTORE PUSH2 0x3685 DUP2 PUSH2 0x364C JUMP JUMPDEST SWAP1 POP SWAP2 SWAP1 POP JUMP JUMPDEST PUSH0 DUP2 SWAP1 POP SWAP2 SWAP1 POP JUMP JUMPDEST PUSH0 PUSH2 0x36AF PUSH2 0x36AA PUSH2 0x36A5 DUP5 PUSH2 0x28F7 JUMP JUMPDEST PUSH2 0x368C JUMP JUMPDEST PUSH2 0x297E JUMP JUMPDEST SWAP1 POP SWAP2 SWAP1 POP JUMP JUMPDEST PUSH2 0x36BF DUP2 PUSH2 0x3695 JUMP JUMPDEST DUP3 MSTORE POP POP JUMP JUMPDEST PUSH0 PUSH1 0x40 DUP3 ADD SWAP1 POP PUSH2 0x36D8 PUSH0 DUP4 ADD DUP6 PUSH2 0x2C5C JUMP JUMPDEST PUSH2 0x36E5 PUSH1 0x20 DUP4 ADD DUP5 PUSH2 0x36B6 JUMP JUMPDEST SWAP4 SWAP3 POP POP POP JUMP JUMPDEST PUSH0 PUSH1 0x60 DUP3 ADD SWAP1 POP PUSH2 0x36FF PUSH0 DUP4 ADD DUP7 PUSH2 0x2C5C JUMP JUMPDEST PUSH2 0x370C PUSH1 0x20 DUP4 ADD DUP6 PUSH2 0x36B6 JUMP JUMPDEST PUSH2 0x3719 PUSH1 0x40 DUP4 ADD DUP5 PUSH2 0x2C5C JUMP JUMPDEST SWAP5 SWAP4 POP POP POP POP JUMP JUMPDEST PUSH32 0x54686520696E70757420616464726573732063616E6E6F74206265207A65726F PUSH0 DUP3 ADD MSTORE POP JUMP JUMPDEST PUSH0 PUSH2 0x3755 PUSH1 0x20 DUP4 PUSH2 0x30A9 JUMP JUMPDEST SWAP2 POP PUSH2 0x3760 DUP3 PUSH2 0x3721 JUMP JUMPDEST PUSH1 0x20 DUP3 ADD SWAP1 POP SWAP2 SWAP1 POP JUMP JUMPDEST PUSH0 PUSH1 0x20 DUP3 ADD SWAP1 POP DUP2 DUP2 SUB PUSH0 DUP4 ADD MSTORE PUSH2 0x3782 DUP2 PUSH2 0x3749 JUMP JUMPDEST SWAP1 POP SWAP2 SWAP1 POP JUMP JUMPDEST PUSH32 0x5468652061646472657373206F6620746865206F776E657220616E6420746865 PUSH0 DUP3 ADD MSTORE PUSH32 0x206F70657261746F72206D75737420626520646966666572656E740000000000 PUSH1 0x20 DUP3 ADD MSTORE POP JUMP JUMPDEST PUSH0 PUSH2 0x37E3 PUSH1 0x3B DUP4 PUSH2 0x30A9 JUMP JUMPDEST SWAP2 POP PUSH2 0x37EE DUP3 PUSH2 0x3789 JUMP JUMPDEST PUSH1 0x40 DUP3 ADD SWAP1 POP SWAP2 SWAP1 POP JUMP JUMPDEST PUSH0 PUSH1 0x20 DUP3 ADD SWAP1 POP DUP2 DUP2 SUB PUSH0 DUP4 ADD MSTORE PUSH2 0x3810 DUP2 PUSH2 0x37D7 JUMP JUMPDEST SWAP1 POP SWAP2 SWAP1 POP JUMP JUMPDEST PUSH32 0x4974206973206E6F7420706F737369626C6520746F207265676973746572206E PUSH0 DUP3 ADD MSTORE PUSH32 0x6F77000000000000000000000000000000000000000000000000000000000000 PUSH1 0x20 DUP3 ADD MSTORE POP JUMP JUMPDEST PUSH0 PUSH2 0x3871 PUSH1 0x22 DUP4 PUSH2 0x30A9 JUMP JUMPDEST SWAP2 POP PUSH2 0x387C DUP3 PUSH2 0x3817 JUMP JUMPDEST PUSH1 0x40 DUP3 ADD SWAP1 POP SWAP2 SWAP1 POP JUMP JUMPDEST PUSH0 PUSH1 0x20 DUP3 ADD SWAP1 POP DUP2 DUP2 SUB PUSH0 DUP4 ADD MSTORE PUSH2 0x389E DUP2 PUSH2 0x3865 JUMP JUMPDEST SWAP1 POP SWAP2 SWAP1 POP JUMP JUMPDEST PUSH32 0x5468652061646472657373206F66207468652072656769737472616E74206D75 PUSH0 DUP3 ADD MSTORE PUSH32 0x7374206E6F742062652030206F72207468652061646472657373206F66206120 PUSH1 0x20 DUP3 ADD MSTORE PUSH32 0x636F6E7472616374000000000000000000000000000000000000000000000000 PUSH1 0x40 DUP3 ADD MSTORE POP JUMP JUMPDEST PUSH0 PUSH2 0x3925 PUSH1 0x48 DUP4 PUSH2 0x30A9 JUMP JUMPDEST SWAP2 POP PUSH2 0x3930 DUP3 PUSH2 0x38A5 JUMP JUMPDEST PUSH1 0x60 DUP3 ADD SWAP1 POP SWAP2 SWAP1 POP JUMP JUMPDEST PUSH0 PUSH1 0x20 DUP3 ADD SWAP1 POP DUP2 DUP2 SUB PUSH0 DUP4 ADD MSTORE PUSH2 0x3952 DUP2 PUSH2 0x3919 JUMP JUMPDEST SWAP1 POP SWAP2 SWAP1 POP JUMP JUMPDEST PUSH32 0x54686520616D6F756E742073686F756C64206E6F74206265206C657373207468 PUSH0 DUP3 ADD MSTORE PUSH32 0x616E20746865206D696E74207072696365000000000000000000000000000000 PUSH1 0x20 DUP3 ADD MSTORE POP JUMP JUMPDEST PUSH0 PUSH2 0x39B3 PUSH1 0x31 DUP4 PUSH2 0x30A9 JUMP JUMPDEST SWAP2 POP PUSH2 0x39BE DUP3 PUSH2 0x3959 JUMP JUMPDEST PUSH1 0x40 DUP3 ADD SWAP1 POP SWAP2 SWAP1 POP JUMP JUMPDEST PUSH0 PUSH1 0x20 DUP3 ADD SWAP1 POP DUP2 DUP2 SUB PUSH0 DUP4 ADD MSTORE PUSH2 0x39E0 DUP2 PUSH2 0x39A7 JUMP JUMPDEST SWAP1 POP SWAP2 SWAP1 POP JUMP JUMPDEST PUSH0 DUP2 SWAP1 POP SWAP3 SWAP2 POP POP JUMP JUMPDEST POP JUMP JUMPDEST PUSH0 PUSH2 0x39FF PUSH0 DUP4 PUSH2 0x39E7 JUMP JUMPDEST SWAP2 POP PUSH2 0x3A0A DUP3 PUSH2 0x39F1 JUMP JUMPDEST PUSH0 DUP3 ADD SWAP1 POP SWAP2 SWAP1 POP JUMP JUMPDEST PUSH0 PUSH2 0x3A1E DUP3 PUSH2 0x39F4 JUMP JUMPDEST SWAP2 POP DUP2 SWAP1 POP SWAP2 SWAP1 POP JUMP JUMPDEST PUSH32 0x54686520616D6F756E7420776173206E6F742073656E74000000000000000000 PUSH0 DUP3 ADD MSTORE POP JUMP JUMPDEST PUSH0 PUSH2 0x3A5C PUSH1 0x17 DUP4 PUSH2 0x30A9 JUMP JUMPDEST SWAP2 POP PUSH2 0x3A67 DUP3 PUSH2 0x3A28 JUMP JUMPDEST PUSH1 0x20 DUP3 ADD SWAP1 POP SWAP2 SWAP1 POP JUMP JUMPDEST PUSH0 PUSH1 0x20 DUP3 ADD SWAP1 POP DUP2 DUP2 SUB PUSH0 DUP4 ADD MSTORE PUSH2 0x3A89 DUP2 PUSH2 0x3A50 JUMP JUMPDEST SWAP1 POP SWAP2 SWAP1 POP JUMP JUMPDEST PUSH0 DUP2 SWAP1 POP SWAP3 SWAP2 POP POP JUMP JUMPDEST PUSH0 PUSH2 0x3AA4 DUP3 PUSH2 0x309F JUMP JUMPDEST PUSH2 0x3AAE DUP2 DUP6 PUSH2 0x3A90 JUMP JUMPDEST SWAP4 POP PUSH2 0x3ABE DUP2 DUP6 PUSH1 0x20 DUP7 ADD PUSH2 0x301F JUMP JUMPDEST DUP1 DUP5 ADD SWAP2 POP POP SWAP3 SWAP2 POP POP JUMP JUMPDEST PUSH0 PUSH2 0x3AD5 DUP3 DUP6 PUSH2 0x3A9A JUMP JUMPDEST SWAP2 POP PUSH2 0x3AE1 DUP3 DUP5 PUSH2 0x3A9A JUMP JUMPDEST SWAP2 POP DUP2 SWAP1 POP SWAP4 SWAP3 POP POP POP JUMP JUMPDEST PUSH32 0x54686520494420656E746572656420697320696E76616C69642E204974206D75 PUSH0 DUP3 ADD MSTORE PUSH32 0x737420626520696E207468697320696E74657276616C2030203C206964203C3D PUSH1 0x20 DUP3 ADD MSTORE PUSH32 0x206D6178696D756D206D696E7461626C6520746F6B656E730000000000000000 PUSH1 0x40 DUP3 ADD MSTORE POP JUMP JUMPDEST PUSH0 PUSH2 0x3B6D PUSH1 0x58 DUP4 PUSH2 0x30A9 JUMP JUMPDEST SWAP2 POP PUSH2 0x3B78 DUP3 PUSH2 0x3AED JUMP JUMPDEST PUSH1 0x60 DUP3 ADD SWAP1 POP SWAP2 SWAP1 POP JUMP JUMPDEST PUSH0 PUSH1 0x20 DUP3 ADD SWAP1 POP DUP2 DUP2 SUB PUSH0 DUP4 ADD MSTORE PUSH2 0x3B9A DUP2 PUSH2 0x3B61 JUMP JUMPDEST SWAP1 POP SWAP2 SWAP1 POP JUMP JUMPDEST PUSH0 PUSH1 0x20 DUP3 ADD SWAP1 POP PUSH2 0x3BB4 PUSH0 DUP4 ADD DUP5 PUSH2 0x36B6 JUMP JUMPDEST SWAP3 SWAP2 POP POP JUMP JUMPDEST PUSH0 PUSH1 0x80 DUP3 ADD SWAP1 POP PUSH2 0x3BCD PUSH0 DUP4 ADD DUP8 PUSH2 0x2C5C JUMP JUMPDEST PUSH2 0x3BDA PUSH1 0x20 DUP4 ADD DUP7 PUSH2 0x2C5C JUMP JUMPDEST PUSH2 0x3BE7 PUSH1 0x40 DUP4 ADD DUP6 PUSH2 0x2C09 JUMP JUMPDEST DUP2 DUP2 SUB PUSH1 0x60 DUP4 ADD MSTORE PUSH2 0x3BF9 DUP2 DUP5 PUSH2 0x3047 JUMP JUMPDEST SWAP1 POP SWAP6 SWAP5 POP POP POP POP POP JUMP JUMPDEST PUSH2 0x3C0D DUP2 PUSH2 0x2F4C JUMP JUMPDEST DUP2 EQ PUSH2 0x3C17 JUMPI PUSH0 DUP1 REVERT JUMPDEST POP JUMP JUMPDEST PUSH0 DUP2 MLOAD SWAP1 POP PUSH2 0x3C28 DUP2 PUSH2 0x3C04 JUMP JUMPDEST SWAP3 SWAP2 POP POP JUMP JUMPDEST PUSH0 PUSH1 0x20 DUP3 DUP5 SUB SLT ISZERO PUSH2 0x3C43 JUMPI PUSH2 0x3C42 PUSH2 0x2895 JUMP JUMPDEST JUMPDEST PUSH0 PUSH2 0x3C50 DUP5 DUP3 DUP6 ADD PUSH2 0x3C1A JUMP JUMPDEST SWAP2 POP POP SWAP3 SWAP2 POP POP JUMP INVALID LOG2 PUSH5 0x6970667358 0x22 SLT KECCAK256 0xB9 CREATE MSIZE SELFBALANCE SIGNEXTEND SWAP9 0xD1 0xA8 EXP 0x2F SMOD SWAP2 SGT NUMBER PUSH30 0x4DAE8602FA1F822821FCEA6F92856B268864736F6C634300081400330000 "
		},
		"gasEstimates": {
			"creation": {
				"codeDepositCost": "3100600",
				"executionCost": "infinite",
				"totalCost": "infinite"
			},
			"external": {
				"approve(address,uint16)": "infinite",
				"balanceOf(address)": "3056",
				"getApproved(uint16)": "infinite",
				"governoraccess(address)": "662",
				"isApprovedForAll(address,address)": "infinite",
				"mint()": "infinite",
				"name()": "2497",
				"onERC721Received(address,address,uint16,bytes)": "infinite",
				"ownerOf(uint16)": "infinite",
				"safeTransferFrom(address,address,uint16)": "infinite",
				"safeTransferFrom(address,address,uint16,bytes)": "infinite",
				"setApprovalForAll(address,bool)": "infinite",
				"setBan(uint16,bool)": "infinite",
				"setRegister(uint48)": "infinite",
				"stateVoting()": "391",
				"symbol()": "2569",
				"tokenURI(uint16)": "infinite",
				"transferFrom(address,address,uint16)": "infinite",
				"updateMintInfo(uint16,uint256,address,address,uint256,uint16[1201])": "infinite"
			},
			"internal": {
				"_aprove(address,uint16,address)": "26307",
				"_baseURI()": "infinite",
				"_checkOnERC721Received(address,address,uint16,bytes memory)": "infinite",
				"_requireOwned(uint16)": "infinite",
				"_update(address,uint16,address)": "infinite",
				"setStateVoting(bytes32)": "11"
			}
		},
		"methodIdentifiers": {
			"approve(address,uint16)": "e560ca43",
			"balanceOf(address)": "70a08231",
			"getApproved(uint16)": "93b871f2",
			"governoraccess(address)": "3610feb3",
			"isApprovedForAll(address,address)": "e985e9c5",
			"mint()": "1249c58b",
			"name()": "06fdde03",
			"onERC721Received(address,address,uint16,bytes)": "b1cff380",
			"ownerOf(uint16)": "82a7cf1e",
			"safeTransferFrom(address,address,uint16)": "07394401",
			"safeTransferFrom(address,address,uint16,bytes)": "b145ae31",
			"setApprovalForAll(address,bool)": "a22cb465",
			"setBan(uint16,bool)": "f12c2c7a",
			"setRegister(uint48)": "d5ebe3df",
			"stateVoting()": "6e1514f1",
			"symbol()": "95d89b41",
			"tokenURI(uint16)": "dd7d8440",
			"transferFrom(address,address,uint16)": "4ec3dcfe",
			"updateMintInfo(uint16,uint256,address,address,uint256,uint16[1201])": "0ab5b8cd"
		}
	},
	"abi": [
		{
			"inputs": [
				{
					"internalType": "bytes20",
					"name": "name_",
					"type": "bytes20"
				},
				{
					"internalType": "bytes10",
					"name": "symbol_",
					"type": "bytes10"
				}
			],
			"stateMutability": "nonpayable",
			"type": "constructor"
		},
		{
			"inputs": [
				{
					"internalType": "address",
					"name": "sender",
					"type": "address"
				}
			],
			"name": "ERC721AccessIsNotApproved",
			"type": "error"
		},
		{
			"inputs": [
				{
					"internalType": "address",
					"name": "sender",
					"type": "address"
				},
				{
					"internalType": "uint256",
					"name": "tokenId",
					"type": "uint256"
				},
				{
					"internalType": "address",
					"name": "owner",
					"type": "address"
				}
			],
			"name": "ERC721IncorrectOwner",
			"type": "error"
		},
		{
			"inputs": [
				{
					"internalType": "address",
					"name": "operator",
					"type": "address"
				},
				{
					"internalType": "uint256",
					"name": "tokenId",
					"type": "uint256"
				}
			],
			"name": "ERC721InsufficientApproval",
			"type": "error"
		},
		{
			"inputs": [
				{
					"internalType": "address",
					"name": "approver",
					"type": "address"
				}
			],
			"name": "ERC721InvalidApprover",
			"type": "error"
		},
		{
			"inputs": [
				{
					"internalType": "address",
					"name": "operator",
					"type": "address"
				}
			],
			"name": "ERC721InvalidOperator",
			"type": "error"
		},
		{
			"inputs": [
				{
					"internalType": "address",
					"name": "owner",
					"type": "address"
				}
			],
			"name": "ERC721InvalidOwner",
			"type": "error"
		},
		{
			"inputs": [
				{
					"internalType": "address",
					"name": "receiver",
					"type": "address"
				}
			],
			"name": "ERC721InvalidReceiver",
			"type": "error"
		},
		{
			"inputs": [
				{
					"internalType": "address",
					"name": "sender",
					"type": "address"
				}
			],
			"name": "ERC721InvalidSender",
			"type": "error"
		},
		{
			"inputs": [
				{
					"internalType": "uint16",
					"name": "nRegistrants",
					"type": "uint16"
				}
			],
			"name": "ERC721NoNewRegistrants",
			"type": "error"
		},
		{
			"inputs": [
				{
					"internalType": "uint256",
					"name": "tokenId",
					"type": "uint256"
				}
			],
			"name": "ERC721NonexistentToken",
			"type": "error"
		},
		{
			"inputs": [
				{
					"internalType": "uint16",
					"name": "token",
					"type": "uint16"
				}
			],
			"name": "Erc721InvalidTokenInNewTokenId",
			"type": "error"
		},
		{
			"inputs": [
				{
					"internalType": "uint16",
					"name": "total",
					"type": "uint16"
				}
			],
			"name": "Erc721InvalidTotalNewTokenId",
			"type": "error"
		},
		{
			"anonymous": false,
			"inputs": [
				{
					"indexed": true,
					"internalType": "address",
					"name": "owner",
					"type": "address"
				},
				{
					"indexed": true,
					"internalType": "address",
					"name": "approved",
					"type": "address"
				},
				{
					"indexed": true,
					"internalType": "uint16",
					"name": "tokenId",
					"type": "uint16"
				}
			],
			"name": "Approval",
			"type": "event"
		},
		{
			"anonymous": false,
			"inputs": [
				{
					"indexed": true,
					"internalType": "address",
					"name": "owner",
					"type": "address"
				},
				{
					"indexed": true,
					"internalType": "address",
					"name": "operator",
					"type": "address"
				},
				{
					"indexed": false,
					"internalType": "bool",
					"name": "approved",
					"type": "bool"
				}
			],
			"name": "ApprovalForAll",
			"type": "event"
		},
		{
			"anonymous": false,
			"inputs": [
				{
					"indexed": true,
					"internalType": "address",
					"name": "from",
					"type": "address"
				},
				{
					"indexed": true,
					"internalType": "address",
					"name": "to",
					"type": "address"
				},
				{
					"indexed": true,
					"internalType": "uint16",
					"name": "tokenId",
					"type": "uint16"
				}
			],
			"name": "Transfer",
			"type": "event"
		},
		{
			"anonymous": false,
			"inputs": [
				{
					"indexed": true,
					"internalType": "uint16",
					"name": "newmaxMint",
					"type": "uint16"
				},
				{
					"indexed": true,
					"internalType": "uint256",
					"name": "newregistrationStartTime",
					"type": "uint256"
				},
				{
					"indexed": false,
					"internalType": "address",
					"name": "newexecutor",
					"type": "address"
				},
				{
					"indexed": false,
					"internalType": "address",
					"name": "newbankAddress",
					"type": "address"
				},
				{
					"indexed": false,
					"internalType": "uint256",
					"name": "newmintPrice",
					"type": "uint256"
				}
			],
			"name": "updatemintInfo",
			"type": "event"
		},
		{
			"inputs": [
				{
					"internalType": "address",
					"name": "to",
					"type": "address"
				},
				{
					"internalType": "uint16",
					"name": "tokenId",
					"type": "uint16"
				}
			],
			"name": "approve",
			"outputs": [],
			"stateMutability": "nonpayable",
			"type": "function"
		},
		{
			"inputs": [
				{
					"internalType": "address",
					"name": "owner",
					"type": "address"
				}
			],
			"name": "balanceOf",
			"outputs": [
				{
					"internalType": "uint16",
					"name": "",
					"type": "uint16"
				}
			],
			"stateMutability": "view",
			"type": "function"
		},
		{
			"inputs": [
				{
					"internalType": "uint16",
					"name": "tokenId",
					"type": "uint16"
				}
			],
			"name": "getApproved",
			"outputs": [
				{
					"internalType": "address",
					"name": "",
					"type": "address"
				}
			],
			"stateMutability": "view",
			"type": "function"
		},
		{
			"inputs": [
				{
					"internalType": "address",
					"name": "",
					"type": "address"
				}
			],
			"name": "governoraccess",
			"outputs": [
				{
					"internalType": "bool",
					"name": "",
					"type": "bool"
				}
			],
			"stateMutability": "nonpayable",
			"type": "function"
		},
		{
			"inputs": [
				{
					"internalType": "address",
					"name": "owner",
					"type": "address"
				},
				{
					"internalType": "address",
					"name": "operator",
					"type": "address"
				}
			],
			"name": "isApprovedForAll",
			"outputs": [
				{
					"internalType": "bool",
					"name": "",
					"type": "bool"
				}
			],
			"stateMutability": "view",
			"type": "function"
		},
		{
			"inputs": [],
			"name": "mint",
			"outputs": [],
			"stateMutability": "nonpayable",
			"type": "function"
		},
		{
			"inputs": [],
			"name": "name",
			"outputs": [
				{
					"internalType": "bytes20",
					"name": "",
					"type": "bytes20"
				}
			],
			"stateMutability": "view",
			"type": "function"
		},
		{
			"inputs": [
				{
					"internalType": "address",
					"name": "operator",
					"type": "address"
				},
				{
					"internalType": "address",
					"name": "from",
					"type": "address"
				},
				{
					"internalType": "uint16",
					"name": "tokenId",
					"type": "uint16"
				},
				{
					"internalType": "bytes",
					"name": "data",
					"type": "bytes"
				}
			],
			"name": "onERC721Received",
			"outputs": [
				{
					"internalType": "bytes4",
					"name": "",
					"type": "bytes4"
				}
			],
			"stateMutability": "nonpayable",
			"type": "function"
		},
		{
			"inputs": [
				{
					"internalType": "uint16",
					"name": "tokenId",
					"type": "uint16"
				}
			],
			"name": "ownerOf",
			"outputs": [
				{
					"internalType": "address",
					"name": "",
					"type": "address"
				}
			],
			"stateMutability": "view",
			"type": "function"
		},
		{
			"inputs": [
				{
					"internalType": "address",
					"name": "from",
					"type": "address"
				},
				{
					"internalType": "address",
					"name": "to",
					"type": "address"
				},
				{
					"internalType": "uint16",
					"name": "tokenId",
					"type": "uint16"
				}
			],
			"name": "safeTransferFrom",
			"outputs": [],
			"stateMutability": "nonpayable",
			"type": "function"
		},
		{
			"inputs": [
				{
					"internalType": "address",
					"name": "from",
					"type": "address"
				},
				{
					"internalType": "address",
					"name": "to",
					"type": "address"
				},
				{
					"internalType": "uint16",
					"name": "tokenId",
					"type": "uint16"
				},
				{
					"internalType": "bytes",
					"name": "data",
					"type": "bytes"
				}
			],
			"name": "safeTransferFrom",
			"outputs": [],
			"stateMutability": "nonpayable",
			"type": "function"
		},
		{
			"inputs": [
				{
					"internalType": "address",
					"name": "operator",
					"type": "address"
				},
				{
					"internalType": "bool",
					"name": "approved",
					"type": "bool"
				}
			],
			"name": "setApprovalForAll",
			"outputs": [],
			"stateMutability": "nonpayable",
			"type": "function"
		},
		{
			"inputs": [
				{
					"internalType": "uint16",
					"name": "tokenId",
					"type": "uint16"
				},
				{
					"internalType": "bool",
					"name": "set_",
					"type": "bool"
				}
			],
			"name": "setBan",
			"outputs": [
				{
					"internalType": "bool",
					"name": "",
					"type": "bool"
				}
			],
			"stateMutability": "nonpayable",
			"type": "function"
		},
		{
			"inputs": [
				{
					"internalType": "uint48",
					"name": "salt_",
					"type": "uint48"
				}
			],
			"name": "setRegister",
			"outputs": [
				{
					"internalType": "bytes",
					"name": "",
					"type": "bytes"
				}
			],
			"stateMutability": "payable",
			"type": "function"
		},
		{
			"inputs": [],
			"name": "stateVoting",
			"outputs": [
				{
					"internalType": "bytes32",
					"name": "",
					"type": "bytes32"
				}
			],
			"stateMutability": "nonpayable",
			"type": "function"
		},
		{
			"inputs": [],
			"name": "symbol",
			"outputs": [
				{
					"internalType": "bytes10",
					"name": "",
					"type": "bytes10"
				}
			],
			"stateMutability": "view",
			"type": "function"
		},
		{
			"inputs": [
				{
					"internalType": "uint16",
					"name": "tokenId",
					"type": "uint16"
				}
			],
			"name": "tokenURI",
			"outputs": [
				{
					"internalType": "string",
					"name": "",
					"type": "string"
				}
			],
			"stateMutability": "view",
			"type": "function"
		},
		{
			"inputs": [
				{
					"internalType": "address",
					"name": "from",
					"type": "address"
				},
				{
					"internalType": "address",
					"name": "to",
					"type": "address"
				},
				{
					"internalType": "uint16",
					"name": "tokenId",
					"type": "uint16"
				}
			],
			"name": "transferFrom",
			"outputs": [],
			"stateMutability": "nonpayable",
			"type": "function"
		},
		{
			"inputs": [
				{
					"internalType": "uint16",
					"name": "newmaxMint",
					"type": "uint16"
				},
				{
					"internalType": "uint256",
					"name": "newregistrationStartTime",
					"type": "uint256"
				},
				{
					"internalType": "address",
					"name": "newexecutor",
					"type": "address"
				},
				{
					"internalType": "address",
					"name": "newbankAddress",
					"type": "address"
				},
				{
					"internalType": "uint256",
					"name": "newmintPrice",
					"type": "uint256"
				},
				{
					"internalType": "uint16[1201]",
					"name": "newTokenId",
					"type": "uint16[1201]"
				}
			],
			"name": "updateMintInfo",
			"outputs": [],
			"stateMutability": "nonpayable",
			"type": "function"
		}
	]
}