{
	"data": {
		"bytecode": {
			"linkReferences": {},
			"object": "608060405234801562000010575f80fd5b5060405162004c5138038062004c51833981810160405281019062000036919062000283565b835f806101000a81548173ffffffffffffffffffffffffffffffffffffffff021916908360601c0217905550825f60146101000a81548169ffffffffffffffffffff021916908360b01c0217905550620000956200016360201b60201c565b60015f0160066101000a81548173ffffffffffffffffffffffffffffffffffffffff021916908373ffffffffffffffffffffffffffffffffffffffff16021790555081610a815f6101000a81548173ffffffffffffffffffffffffffffffffffffffff021916908373ffffffffffffffffffffffffffffffffffffffff16021790555080610a825f6101000a81548173ffffffffffffffffffffffffffffffffffffffff021916908373ffffffffffffffffffffffffffffffffffffffff16021790555050505050620002f2565b5f33905090565b5f80fd5b5f7fffffffffffffffffffffffffffffffffffffffff00000000000000000000000082169050919050565b620001a4816200016e565b8114620001af575f80fd5b50565b5f81519050620001c28162000199565b92915050565b5f7fffffffffffffffffffff0000000000000000000000000000000000000000000082169050919050565b620001fe81620001c8565b811462000209575f80fd5b50565b5f815190506200021c81620001f3565b92915050565b5f73ffffffffffffffffffffffffffffffffffffffff82169050919050565b5f6200024d8262000222565b9050919050565b6200025f8162000241565b81146200026a575f80fd5b50565b5f815190506200027d8162000254565b92915050565b5f805f80608085870312156200029e576200029d6200016a565b5b5f620002ad87828801620001b2565b9450506020620002c0878288016200020c565b9350506040620002d3878288016200026d565b9250506060620002e6878288016200026d565b91505092959194509250565b61495180620003005f395ff3fe60806040526004361061011e575f3560e01c806393b871f21161009f578063d5ebe3df11610063578063d5ebe3df146103d8578063dd7d844014610408578063e560ca4314610444578063e985e9c51461046c578063f12c2c7a146104a85761011e565b806393b871f2146102e657806395d89b4114610322578063a22cb4651461034c578063b145ae3114610374578063b1cff3801461039c5761011e565b80633610feb3116100e65780633610feb3146101ee5780634ec3dcfe1461022a57806370a08231146102525780637e0dad881461028e57806382a7cf1e146102aa5761011e565b806306fdde0314610122578063073944011461014c5780631249c58b1461017457806318964eff1461018a57806322b7b951146101b2575b5f80fd5b34801561012d575f80fd5b506101366104d0565b6040516101439190613057565b60405180910390f35b348015610157575f80fd5b50610172600480360381019061016d9190613112565b6104e4565b005b34801561017f575f80fd5b50610188610503565b005b348015610195575f80fd5b506101b060048036038101906101ab9190613195565b610aa3565b005b3480156101bd575f80fd5b506101d860048036038101906101d39190613206565b610c74565b6040516101e59190613253565b60405180910390f35b3480156101f9575f80fd5b50610214600480360381019061020f919061326c565b610e48565b60405161022191906132b1565b60405180910390f35b348015610235575f80fd5b50610250600480360381019061024b9190613112565b610e4e565b005b34801561025d575f80fd5b506102786004803603810190610273919061326c565b6110a7565b60405161028591906132d9565b60405180910390f35b6102a860048036038101906102a39190613431565b611188565b005b3480156102b5575f80fd5b506102d060048036038101906102cb91906134e4565b611759565b6040516102dd919061351e565b60405180910390f35b3480156102f1575f80fd5b5061030c600480360381019061030791906134e4565b61176a565b604051610319919061351e565b60405180910390f35b34801561032d575f80fd5b506103366117b6565b6040516103439190613571565b60405180910390f35b348015610357575f80fd5b50610372600480360381019061036d91906135b4565b6117cb565b005b34801561037f575f80fd5b5061039a600480360381019061039591906136a2565b6119b7565b005b3480156103a7575f80fd5b506103c260048036038101906103bd919061377b565b6119d4565b6040516103cf9190613839565b60405180910390f35b6103f260048036038101906103ed919061388d565b6119de565b6040516103ff9190613932565b60405180910390f35b348015610413575f80fd5b5061042e600480360381019061042991906134e4565b611d8b565b60405161043b91906139a4565b60405180910390f35b34801561044f575f80fd5b5061046a600480360381019061046591906139c4565b611df5565b005b348015610477575f80fd5b50610492600480360381019061048d9190613a02565b611f19565b60405161049f91906132b1565b60405180910390f35b3480156104b3575f80fd5b506104ce60048036038101906104c99190613a40565b611fa8565b005b5f805f9054906101000a900460601b905090565b6104fe83838360405180602001604052805f8152506119b7565b505050565b60015f0160069054906101000a900473ffffffffffffffffffffffffffffffffffffffff1673ffffffffffffffffffffffffffffffffffffffff166105466120cb565b73ffffffffffffffffffffffffffffffffffffffff161461059c576040517f08c379a000000000000000000000000000000000000000000000000000000000815260040161059390613ac8565b60405180910390fd5b60015f0160029054906101000a900461ffff1661ffff1660015f0160049054906101000a900461ffff1661ffff161115610a52575f60016004016104b18060200260405190810160405280929190826104b1801561063e576020028201915f905b82829054906101000a900465ffffffffffff1665ffffffffffff16815260200190600601906020826005010492830192600103820291508084116105fd5790505b505050505090505f600160f5016104b18060200260405190810160405280929190826104b180156106b9576020028201915b815f9054906101000a900473ffffffffffffffffffffffffffffffffffffffff1673ffffffffffffffffffffffffffffffffffffffff1681526020019060010190808311610670575b505050505090505f60015f0160029054906101000a900461ffff1660015f0160049054906101000a900461ffff166106f19190613b13565b90505f60015f0160029054906101000a900461ffff1660015f015f9054906101000a900461ffff166107239190613b13565b90505f60015f01600281819054906101000a900461ffff1661074490613b48565b91906101000a81548161ffff021916908361ffff160217905590505f60015f0160049054906101000a900461ffff1690505f4290505b8161ffff168361ffff1611610a15575f83888561ffff166104b181106107a3576107a2613b71565b5b602002015165ffffffffffff16838a5f6104b181106107c5576107c4613b71565b5b602002015165ffffffffffff166107dc9190613b9e565b6107e69190613b9e565b6107f09190613bfe565b90505f83895f6104b1811061080857610807613b71565b5b60200201518a8461ffff166104b1811061082557610824613b71565b5b60200201516108349190613c2e565b61083e9190613bfe565b90505f85888b8461ffff166104b1811061085b5761085a613b71565b5b60200201518c8661ffff166104b1811061087857610877613b71565b5b60200201516108879190613c2e565b6108919190613bfe565b61089b9190613c67565b90505f898261ffff166104b181106108b6576108b5613b71565b5b60200201519050898761ffff166104b181106108d5576108d4613b71565b5b60200201518a8361ffff166104b181106108f2576108f1613b71565b5b602002019073ffffffffffffffffffffffffffffffffffffffff16908173ffffffffffffffffffffffffffffffffffffffff1681525050808a8861ffff166104b1811061094257610941613b71565b5b602002019073ffffffffffffffffffffffffffffffffffffffff16908173ffffffffffffffffffffffffffffffffffffffff16815250505f888c8461ffff166104b1811061099357610992613b71565b5b60200201518d8761ffff166104b181106109b0576109af613b71565b5b60200201516109bf9190613c2e565b6109c99190613bfe565b90505f8161ffff16036109da578890505b6109e582825f6120d2565b896109ef90613c9c565b9950886109fb90613c9c565b985050505050508280610a0d90613b48565b93505061077a565b60015f0160049054906101000a900461ffff1660015f0160026101000a81548161ffff021916908361ffff16021790555050505050505050610aa1565b60015f0160049054906101000a900461ffff166040517f72864e7c000000000000000000000000000000000000000000000000000000008152600401610a9891906132d9565b60405180910390fd5b565b610ab3610aae6120cb565b610e48565b610af2576040517f08c379a0000000000000000000000000000000000000000000000000000000008152600401610ae990613d0d565b60405180910390fd5b5f81604051602001610b049190613d4b565b60405160208183030381529060405280519060200120905080604051602001610b2c90613db9565b6040516020818303038152906040528051906020012003610b8f578260015f0160066101000a81548173ffffffffffffffffffffffffffffffffffffffff021916908373ffffffffffffffffffffffffffffffffffffffff160217905550610c6f565b80604051602001610b9f90613e17565b6040516020818303038152906040528051906020012003610c005782610a815f6101000a81548173ffffffffffffffffffffffffffffffffffffffff021916908373ffffffffffffffffffffffffffffffffffffffff160217905550610c6e565b80604051602001610c1090613e75565b6040516020818303038152906040528051906020012003610c6d5782610a825f6101000a81548173ffffffffffffffffffffffffffffffffffffffff021916908373ffffffffffffffffffffffffffffffffffffffff1602179055505b5b5b505050565b5f60015f0160069054906101000a900473ffffffffffffffffffffffffffffffffffffffff1673ffffffffffffffffffffffffffffffffffffffff16610cb86120cb565b73ffffffffffffffffffffffffffffffffffffffff1614610d0e576040517f08c379a0000000000000000000000000000000000000000000000000000000008152600401610d0590613ef9565b60405180910390fd5b5f610a815f9054906101000a900473ffffffffffffffffffffffffffffffffffffffff1673ffffffffffffffffffffffffffffffffffffffff1684303386604051602401610d5f9493929190613f17565b6040516020818303038152906040527f56be5631000000000000000000000000000000000000000000000000000000007bffffffffffffffffffffffffffffffffffffffffffffffffffffffff19166020820180517bffffffffffffffffffffffffffffffffffffffffffffffffffffffff8381831617835250505050604051610de99190613f94565b5f604051808303815f865af19150503d805f8114610e22576040519150601f19603f3d011682016040523d82523d5f602084013e610e27565b606091505b5091505080806020019051810190610e3f9190613fbe565b91505092915050565b5f919050565b5f73ffffffffffffffffffffffffffffffffffffffff168273ffffffffffffffffffffffffffffffffffffffff1603610ebe575f6040517f64a0ae92000000000000000000000000000000000000000000000000000000008152600401610eb5919061351e565b60405180910390fd5b5f610ec8826129a3565b9050610a588261ffff166104b18110610ee457610ee3613b71565b5b602091828204019190069054906101000a900460ff1615610f3a576040517f08c379a0000000000000000000000000000000000000000000000000000000008152600401610f3190614059565b60405180910390fd5b8073ffffffffffffffffffffffffffffffffffffffff16610f596120cb565b73ffffffffffffffffffffffffffffffffffffffff161480610f885750610f8781610f826120cb565b611f19565b5b80610fcd5750610f966120cb565b73ffffffffffffffffffffffffffffffffffffffff16610fb58361176a565b73ffffffffffffffffffffffffffffffffffffffff16145b61101757610fd96120cb565b826040517f177e802f00000000000000000000000000000000000000000000000000000000815260040161100e9291906140b0565b60405180910390fd5b8373ffffffffffffffffffffffffffffffffffffffff168173ffffffffffffffffffffffffffffffffffffffff161461108b578382826040517f64283d7b000000000000000000000000000000000000000000000000000000008152600401611082939291906140d7565b60405180910390fd5b6110965f8383612ac6565b6110a18383836120d2565b50505050565b5f8073ffffffffffffffffffffffffffffffffffffffff168273ffffffffffffffffffffffffffffffffffffffff1603611116576040517f08c379a000000000000000000000000000000000000000000000000000000000815260040161110d90614156565b60405180910390fd5b610a7e5f8373ffffffffffffffffffffffffffffffffffffffff1673ffffffffffffffffffffffffffffffffffffffff1681526020019081526020015f205f6104b1811061116757611166613b71565b5b601091828204019190066002029054906101000a900461ffff169050919050565b60015f0160069054906101000a900473ffffffffffffffffffffffffffffffffffffffff1673ffffffffffffffffffffffffffffffffffffffff166111cb6120cb565b73ffffffffffffffffffffffffffffffffffffffff1614611221576040517f08c379a000000000000000000000000000000000000000000000000000000000815260040161121890613ef9565b60405180910390fd5b8761ffff165f10801561123a57506103e88861ffff1611155b1561134a5760015f0160049054906101000a900461ffff1661ffff168861ffff161180156112685750428710155b156112ac5787876040517f2db85d4f0000000000000000000000000000000000000000000000000000000081526004016112a3929190614174565b60405180910390fd5b825f6104b181106112c0576112bf613b71565b5b602002015161ffff1660015f0160029054906101000a900461ffff16896112e79190613b13565b61ffff161461134557825f6104b1811061130457611303613b71565b5b60200201516040517fca70e27000000000000000000000000000000000000000000000000000000000815260040161133c91906132d9565b60405180910390fd5b611608565b6104b08861ffff16116115ca57610a815f9054906101000a900473ffffffffffffffffffffffffffffffffffffffff1673ffffffffffffffffffffffffffffffffffffffff168173ffffffffffffffffffffffffffffffffffffffff16146113e957806040517f2af568f70000000000000000000000000000000000000000000000000000000081526004016113e0919061351e565b60405180910390fd5b5f8888888888888888604051602401611409989796959493929190614250565b6040516020818303038152906040527f4897596d000000000000000000000000000000000000000000000000000000007bffffffffffffffffffffffffffffffffffffffffffffffffffffffff19166020820180517bffffffffffffffffffffffffffffffffffffffffffffffffffffffff838183161783525050505090505f8273ffffffffffffffffffffffffffffffffffffffff16303484876040516024016114b794939291906142ce565b6040516020818303038152906040527f88aa4c12000000000000000000000000000000000000000000000000000000007bffffffffffffffffffffffffffffffffffffffffffffffffffffffff19166020820180517bffffffffffffffffffffffffffffffffffffffffffffffffffffffff83818316178352505050506040516115419190613f94565b5f604051808303815f865af19150503d805f811461157a576040519150601f19603f3d011682016040523d82523d5f602084013e61157f565b606091505b50509050806115c3576040517f08c379a00000000000000000000000000000000000000000000000000000000081526004016115ba90614388565b60405180910390fd5b5050611607565b876040517f8dd92fb00000000000000000000000000000000000000000000000000000000081526004016115fe91906132d9565b60405180910390fd5b5b8760015f015f6101000a81548161ffff021916908361ffff160217905550866001600201819055508560015f0160066101000a81548173ffffffffffffffffffffffffffffffffffffffff021916908373ffffffffffffffffffffffffffffffffffffffff16021790555084600180015f6101000a81548173ffffffffffffffffffffffffffffffffffffffff021916908373ffffffffffffffffffffffffffffffffffffffff1602179055508360016003018190555082610a7e5f8073ffffffffffffffffffffffffffffffffffffffff1673ffffffffffffffffffffffffffffffffffffffff1681526020019081526020015f20906104b161170d929190612f65565b50868861ffff167f7f5da92c8cf80f4a196e12ba4e13abc4fd2645f0248ad338ebd76ebb41898281888888604051611747939291906143a6565b60405180910390a35050505050505050565b5f611763826129a3565b9050919050565b5f611774826129a3565b50610a7f5f8361ffff1661ffff1681526020019081526020015f205f9054906101000a900473ffffffffffffffffffffffffffffffffffffffff169050919050565b5f8060149054906101000a900460b01b905090565b8173ffffffffffffffffffffffffffffffffffffffff166117ea6120cb565b73ffffffffffffffffffffffffffffffffffffffff1603611840576040517f08c379a00000000000000000000000000000000000000000000000000000000081526004016118379061444b565b60405180910390fd5b5f73ffffffffffffffffffffffffffffffffffffffff168273ffffffffffffffffffffffffffffffffffffffff16036118b057816040517f5b08ba180000000000000000000000000000000000000000000000000000000081526004016118a7919061351e565b60405180910390fd5b80610a805f6118bd6120cb565b73ffffffffffffffffffffffffffffffffffffffff1673ffffffffffffffffffffffffffffffffffffffff1681526020019081526020015f205f8473ffffffffffffffffffffffffffffffffffffffff1673ffffffffffffffffffffffffffffffffffffffff1681526020019081526020015f205f6101000a81548160ff0219169083151502179055508173ffffffffffffffffffffffffffffffffffffffff166119666120cb565b73ffffffffffffffffffffffffffffffffffffffff167f17307eab39ab6107e8899845ad3d59bd9653f200f220920489ca2b5937696c31836040516119ab91906132b1565b60405180910390a35050565b6119c2848484610e4e565b6119ce84848484612b82565b50505050565b5f95945050505050565b606060015f015f9054906101000a900461ffff1661ffff1660015f0160049054906101000a900461ffff1661ffff1611158015611a2057504260016002015411155b611a5f576040517f08c379a0000000000000000000000000000000000000000000000000000000008152600401611a56906144d9565b60405180910390fd5b5f73ffffffffffffffffffffffffffffffffffffffff16611a7e6120cb565b73ffffffffffffffffffffffffffffffffffffffff1614158015611abf57505f611aa66120cb565b73ffffffffffffffffffffffffffffffffffffffff163b145b611afe576040517f08c379a0000000000000000000000000000000000000000000000000000000008152600401611af59061458d565b60405180910390fd5b600160030154341015611b46576040517f08c379a0000000000000000000000000000000000000000000000000000000008152600401611b3d9061461b565b60405180910390fd5b5f80600180015f9054906101000a900473ffffffffffffffffffffffffffffffffffffffff1673ffffffffffffffffffffffffffffffffffffffff1634604051611b8f9061465c565b5f6040518083038185875af1925050503d805f8114611bc9576040519150601f19603f3d011682016040523d82523d5f602084013e611bce565b606091505b509150915081611c13576040517f08c379a0000000000000000000000000000000000000000000000000000000008152600401611c0a906146ba565b60405180910390fd5b60015f01600481819054906101000a900461ffff16611c3190613b48565b91906101000a81548161ffff021916908361ffff16021790555083600160040160015f0160049054906101000a900461ffff1661ffff166104b18110611c7a57611c79613b71565b5b600591828204019190066006026101000a81548165ffffffffffff021916908365ffffffffffff1602179055508360016004015f6104b18110611cc057611cbf613b71565b5b600591828204019190066006028282829054906101000a900465ffffffffffff16611ceb9190613c2e565b92506101000a81548165ffffffffffff021916908365ffffffffffff160217905550611d156120cb565b600160f50160015f0160049054906101000a900461ffff1661ffff166104b18110611d4357611d42613b71565b5b015f6101000a81548173ffffffffffffffffffffffffffffffffffffffff021916908373ffffffffffffffffffffffffffffffffffffffff1602179055508092505050919050565b6060611d96826129a3565b505f611da0612d34565b90505f815111611dbe5760405180602001604052805f815250611ded565b80611dcc8461ffff16612d4a565b604051602001611ddd929190614708565b6040516020818303038152906040525b915050919050565b5f611dff826129a3565b90508273ffffffffffffffffffffffffffffffffffffffff168173ffffffffffffffffffffffffffffffffffffffff1603611e6f576040517f08c379a0000000000000000000000000000000000000000000000000000000008152600401611e669061444b565b60405180910390fd5b611e776120cb565b73ffffffffffffffffffffffffffffffffffffffff168173ffffffffffffffffffffffffffffffffffffffff1614158015611ec05750611ebe81611eb96120cb565b611f19565b155b15611f0957611ecd6120cb565b6040517fa9fbf51f000000000000000000000000000000000000000000000000000000008152600401611f00919061351e565b60405180910390fd5b611f14838383612ac6565b505050565b5f610a805f8473ffffffffffffffffffffffffffffffffffffffff1673ffffffffffffffffffffffffffffffffffffffff1681526020019081526020015f205f8373ffffffffffffffffffffffffffffffffffffffff1673ffffffffffffffffffffffffffffffffffffffff1681526020019081526020015f205f9054906101000a900460ff16905092915050565b5f611fb2836129a3565b90508073ffffffffffffffffffffffffffffffffffffffff16611fd36120cb565b73ffffffffffffffffffffffffffffffffffffffff160361202d5781610a588461ffff166104b1811061200957612008613b71565b5b602091828204019190066101000a81548160ff0219169083151502179055506120c6565b61203d6120386120cb565b610e48565b156120815781610a588461ffff166104b1811061205d5761205c613b71565b5b602091828204019190066101000a81548160ff0219169083151502179055506120c5565b6120896120cb565b6040517ff7a3f9f30000000000000000000000000000000000000000000000000000000081526004016120bc919061351e565b60405180910390fd5b5b505050565b5f33905090565b5f610a7e5f8373ffffffffffffffffffffffffffffffffffffffff1673ffffffffffffffffffffffffffffffffffffffff1681526020019081526020015f205f6104b1811061212457612123613b71565b5b601091828204019190066002029054906101000a900461ffff1690505f73ffffffffffffffffffffffffffffffffffffffff168273ffffffffffffffffffffffffffffffffffffffff161461230c575f600190505b8161ffff168161ffff1611612306578361ffff16610a7e5f8573ffffffffffffffffffffffffffffffffffffffff1673ffffffffffffffffffffffffffffffffffffffff1681526020019081526020015f208261ffff166104b181106121e2576121e1613b71565b5b601091828204019190066002029054906101000a900461ffff1661ffff16036122f357610a7e5f8473ffffffffffffffffffffffffffffffffffffffff1673ffffffffffffffffffffffffffffffffffffffff1681526020019081526020015f208261ffff166104b1811061225a57612259613b71565b5b601091828204019190066002029054906101000a900461ffff16610a7e5f8573ffffffffffffffffffffffffffffffffffffffff1673ffffffffffffffffffffffffffffffffffffffff1681526020019081526020015f208261ffff166104b181106122c9576122c8613b71565b5b601091828204019190066002026101000a81548161ffff021916908361ffff160217905550612306565b80806122fe90613b48565b915050612179565b50612516565b5f839050610a7e5f8473ffffffffffffffffffffffffffffffffffffffff1673ffffffffffffffffffffffffffffffffffffffff1681526020019081526020015f208161ffff166104b1811061236557612364613b71565b5b601091828204019190066002029054906101000a900461ffff1693505f73ffffffffffffffffffffffffffffffffffffffff166105a78561ffff166104b181106123b2576123b1613b71565b5b015f9054906101000a900473ffffffffffffffffffffffffffffffffffffffff1673ffffffffffffffffffffffffffffffffffffffff161461242b57806040517f71e52b9c00000000000000000000000000000000000000000000000000000000815260040161242291906132d9565b60405180910390fd5b610a7e5f8473ffffffffffffffffffffffffffffffffffffffff1673ffffffffffffffffffffffffffffffffffffffff1681526020019081526020015f208261ffff166104b181106124805761247f613b71565b5b601091828204019190066002029054906101000a900461ffff16610a7e5f8573ffffffffffffffffffffffffffffffffffffffff1673ffffffffffffffffffffffffffffffffffffffff1681526020019081526020015f208261ffff166104b181106124ef576124ee613b71565b5b601091828204019190066002026101000a81548161ffff021916908361ffff160217905550505b5f610a7e5f8473ffffffffffffffffffffffffffffffffffffffff1673ffffffffffffffffffffffffffffffffffffffff1681526020019081526020015f208261ffff166104b1811061256c5761256b613b71565b5b601091828204019190066002026101000a81548161ffff021916908361ffff1602179055506001610a7e5f8473ffffffffffffffffffffffffffffffffffffffff1673ffffffffffffffffffffffffffffffffffffffff1681526020019081526020015f205f6104b181106125e4576125e3613b71565b5b601091828204019190066002028282829054906101000a900461ffff1661260b9190613b13565b92506101000a81548161ffff021916908361ffff1602179055505f6001610a7e5f8773ffffffffffffffffffffffffffffffffffffffff1673ffffffffffffffffffffffffffffffffffffffff1681526020019081526020015f205f6104b1811061267957612678613b71565b5b601091828204019190066002029054906101000a900461ffff1661269d9190613c67565b905083610a7e5f8773ffffffffffffffffffffffffffffffffffffffff1673ffffffffffffffffffffffffffffffffffffffff1681526020019081526020015f208261ffff166104b181106126f5576126f4613b71565b5b601091828204019190066002026101000a81548161ffff021916908361ffff16021790555080610a7e5f8773ffffffffffffffffffffffffffffffffffffffff1673ffffffffffffffffffffffffffffffffffffffff1681526020019081526020015f205f6104b1811061276c5761276b613b71565b5b601091828204019190066002026101000a81548161ffff021916908361ffff160217905550846105a78561ffff166104b181106127ac576127ab613b71565b5b015f6101000a81548173ffffffffffffffffffffffffffffffffffffffff021916908373ffffffffffffffffffffffffffffffffffffffff1602179055505f610a825f9054906101000a900473ffffffffffffffffffffffffffffffffffffffff1673ffffffffffffffffffffffffffffffffffffffff164286604051602401612837929190614775565b6040516020818303038152906040527f990492f5000000000000000000000000000000000000000000000000000000007bffffffffffffffffffffffffffffffffffffffffffffffffffffffff19166020820180517bffffffffffffffffffffffffffffffffffffffffffffffffffffffff83818316178352505050506040516128c19190613f94565b5f604051808303815f865af19150503d805f81146128fa576040519150601f19603f3d011682016040523d82523d5f602084013e6128ff565b606091505b50509050801561293c57428561ffff167f0ee86a467f20d83fa45097d80378cd63c924484e76275c2b01b959086b3f9b7360405160405180910390a35b8461ffff168673ffffffffffffffffffffffffffffffffffffffff168573ffffffffffffffffffffffffffffffffffffffff167f89896edbd223c9360ce42ddfed7522a2bffb20c056e4c42d42370cb493b6567660405160405180910390a4505050505050565b5f8161ffff165f1080156129d0575060015f015f9054906101000a900461ffff1661ffff168261ffff1611155b612a0f576040517f08c379a0000000000000000000000000000000000000000000000000000000008152600401612a0690614845565b60405180910390fd5b5f6105a78361ffff166104b18110612a2a57612a29613b71565b5b015f9054906101000a900473ffffffffffffffffffffffffffffffffffffffff1690505f73ffffffffffffffffffffffffffffffffffffffff168173ffffffffffffffffffffffffffffffffffffffff1603612abd57826040517f7e273289000000000000000000000000000000000000000000000000000000008152600401612ab49190614863565b60405180910390fd5b80915050919050565b82610a7f5f8461ffff1661ffff1681526020019081526020015f205f6101000a81548173ffffffffffffffffffffffffffffffffffffffff021916908373ffffffffffffffffffffffffffffffffffffffff1602179055508161ffff168373ffffffffffffffffffffffffffffffffffffffff168273ffffffffffffffffffffffffffffffffffffffff167f0a9d294fd4bd42bb30e96cba2b478d149a783fba3c729b1e5c42bec89d95b85a60405160405180910390a4505050565b5f8373ffffffffffffffffffffffffffffffffffffffff163b1115612d2e578273ffffffffffffffffffffffffffffffffffffffff1663b1cff380612bc56120cb565b8685856040518563ffffffff1660e01b8152600401612be7949392919061487c565b6020604051808303815f875af1925050508015612c2257506040513d601f19601f82011682018060405250810190612c1f91906148f0565b60015b612ca3573d805f8114612c50576040519150601f19603f3d011682016040523d82523d5f602084013e612c55565b606091505b505f815103612c9b57836040517f64a0ae92000000000000000000000000000000000000000000000000000000008152600401612c92919061351e565b60405180910390fd5b805181602001fd5b63b1cff38060e01b7bffffffffffffffffffffffffffffffffffffffffffffffffffffffff1916817bffffffffffffffffffffffffffffffffffffffffffffffffffffffff191614612d2c57836040517f64a0ae92000000000000000000000000000000000000000000000000000000008152600401612d23919061351e565b60405180910390fd5b505b50505050565b606060405180602001604052805f815250905090565b60605f6001612d5884612e14565b0190505f8167ffffffffffffffff811115612d7657612d75613306565b5b6040519080825280601f01601f191660200182016040528015612da85781602001600182028036833780820191505090505b5090505f82602001820190505b600115612e09578080600190039150507f3031323334353637383961626364656600000000000000000000000000000000600a86061a8153600a8581612dfe57612dfd613bd1565b5b0494505f8503612db5575b819350505050919050565b5f805f90507a184f03e93ff9f4daa797ed6e38ed64bf6a1f0100000000000000008310612e70577a184f03e93ff9f4daa797ed6e38ed64bf6a1f0100000000000000008381612e6657612e65613bd1565b5b0492506040810190505b6d04ee2d6d415b85acef81000000008310612ead576d04ee2d6d415b85acef81000000008381612ea357612ea2613bd1565b5b0492506020810190505b662386f26fc100008310612edc57662386f26fc100008381612ed257612ed1613bd1565b5b0492506010810190505b6305f5e1008310612f05576305f5e1008381612efb57612efa613bd1565b5b0492506008810190505b6127108310612f2a576127108381612f2057612f1f613bd1565b5b0492506004810190505b60648310612f4d5760648381612f4357612f42613bd1565b5b0492506002810190505b600a8310612f5c576001810190505b80915050919050565b826104b1600f01601090048101928215612ff1579160200282015f5b83821115612fc157835183826101000a81548161ffff021916908361ffff1602179055509260200192600201602081600101049283019260010302612f81565b8015612fef5782816101000a81549061ffff0219169055600201602081600101049283019260010302612fc1565b505b509050612ffe9190613002565b5090565b5b80821115613019575f815f905550600101613003565b5090565b5f7fffffffffffffffffffffffffffffffffffffffff00000000000000000000000082169050919050565b6130518161301d565b82525050565b5f60208201905061306a5f830184613048565b92915050565b5f604051905090565b5f80fd5b5f80fd5b5f73ffffffffffffffffffffffffffffffffffffffff82169050919050565b5f6130aa82613081565b9050919050565b6130ba816130a0565b81146130c4575f80fd5b50565b5f813590506130d5816130b1565b92915050565b5f61ffff82169050919050565b6130f1816130db565b81146130fb575f80fd5b50565b5f8135905061310c816130e8565b92915050565b5f805f6060848603121561312957613128613079565b5b5f613136868287016130c7565b9350506020613147868287016130c7565b9250506040613158868287016130fe565b9150509250925092565b5f819050919050565b61317481613162565b811461317e575f80fd5b50565b5f8135905061318f8161316b565b92915050565b5f80604083850312156131ab576131aa613079565b5b5f6131b8858286016130c7565b92505060206131c985828601613181565b9150509250929050565b5f819050919050565b6131e5816131d3565b81146131ef575f80fd5b50565b5f81359050613200816131dc565b92915050565b5f806040838503121561321c5761321b613079565b5b5f613229858286016131f2565b925050602061323a858286016130c7565b9150509250929050565b61324d816131d3565b82525050565b5f6020820190506132665f830184613244565b92915050565b5f6020828403121561328157613280613079565b5b5f61328e848285016130c7565b91505092915050565b5f8115159050919050565b6132ab81613297565b82525050565b5f6020820190506132c45f8301846132a2565b92915050565b6132d3816130db565b82525050565b5f6020820190506132ec5f8301846132ca565b92915050565b5f80fd5b5f601f19601f8301169050919050565b7f4e487b71000000000000000000000000000000000000000000000000000000005f52604160045260245ffd5b61333c826132f6565b810181811067ffffffffffffffff8211171561335b5761335a613306565b5b80604052505050565b5f61336d613070565b90506133798282613333565b919050565b5f67ffffffffffffffff82111561339857613397613306565b5b602082029050919050565b5f80fd5b5f6133b96133b48461337e565b613364565b905080602084028301858111156133d3576133d26133a3565b5b835b818110156133fc57806133e888826130fe565b8452602084019350506020810190506133d5565b5050509392505050565b5f82601f83011261341a576134196132f2565b5b6104b16134288482856133a7565b91505092915050565b5f805f805f805f80619700898b03121561344e5761344d613079565b5b5f61345b8b828c016130fe565b985050602061346c8b828c016131f2565b975050604061347d8b828c016130c7565b965050606061348e8b828c016130c7565b955050608061349f8b828c016131f2565b94505060a06134b08b828c01613406565b9350506196c06134c28b828c01613181565b9250506196e06134d48b828c016130c7565b9150509295985092959890939650565b5f602082840312156134f9576134f8613079565b5b5f613506848285016130fe565b91505092915050565b613518816130a0565b82525050565b5f6020820190506135315f83018461350f565b92915050565b5f7fffffffffffffffffffff0000000000000000000000000000000000000000000082169050919050565b61356b81613537565b82525050565b5f6020820190506135845f830184613562565b92915050565b61359381613297565b811461359d575f80fd5b50565b5f813590506135ae8161358a565b92915050565b5f80604083850312156135ca576135c9613079565b5b5f6135d7858286016130c7565b92505060206135e8858286016135a0565b9150509250929050565b5f80fd5b5f67ffffffffffffffff8211156136105761360f613306565b5b613619826132f6565b9050602081019050919050565b828183375f83830152505050565b5f613646613641846135f6565b613364565b905082815260208101848484011115613662576136616135f2565b5b61366d848285613626565b509392505050565b5f82601f830112613689576136886132f2565b5b8135613699848260208601613634565b91505092915050565b5f805f80608085870312156136ba576136b9613079565b5b5f6136c7878288016130c7565b94505060206136d8878288016130c7565b93505060406136e9878288016130fe565b925050606085013567ffffffffffffffff81111561370a5761370961307d565b5b61371687828801613675565b91505092959194509250565b5f80fd5b5f8083601f84011261373b5761373a6132f2565b5b8235905067ffffffffffffffff81111561375857613757613722565b5b602083019150836001820283011115613774576137736133a3565b5b9250929050565b5f805f805f6080868803121561379457613793613079565b5b5f6137a1888289016130c7565b95505060206137b2888289016130c7565b94505060406137c3888289016130fe565b935050606086013567ffffffffffffffff8111156137e4576137e361307d565b5b6137f088828901613726565b92509250509295509295909350565b5f7fffffffff0000000000000000000000000000000000000000000000000000000082169050919050565b613833816137ff565b82525050565b5f60208201905061384c5f83018461382a565b92915050565b5f65ffffffffffff82169050919050565b61386c81613852565b8114613876575f80fd5b50565b5f8135905061388781613863565b92915050565b5f602082840312156138a2576138a1613079565b5b5f6138af84828501613879565b91505092915050565b5f81519050919050565b5f82825260208201905092915050565b5f5b838110156138ef5780820151818401526020810190506138d4565b5f8484015250505050565b5f613904826138b8565b61390e81856138c2565b935061391e8185602086016138d2565b613927816132f6565b840191505092915050565b5f6020820190508181035f83015261394a81846138fa565b905092915050565b5f81519050919050565b5f82825260208201905092915050565b5f61397682613952565b613980818561395c565b93506139908185602086016138d2565b613999816132f6565b840191505092915050565b5f6020820190508181035f8301526139bc818461396c565b905092915050565b5f80604083850312156139da576139d9613079565b5b5f6139e7858286016130c7565b92505060206139f8858286016130fe565b9150509250929050565b5f8060408385031215613a1857613a17613079565b5b5f613a25858286016130c7565b9250506020613a36858286016130c7565b9150509250929050565b5f8060408385031215613a5657613a55613079565b5b5f613a63858286016130fe565b9250506020613a74858286016135a0565b9150509250929050565b7f416363657373206f6e6c7920666f72206578656375746f7200000000000000005f82015250565b5f613ab260188361395c565b9150613abd82613a7e565b602082019050919050565b5f6020820190508181035f830152613adf81613aa6565b9050919050565b7f4e487b71000000000000000000000000000000000000000000000000000000005f52601160045260245ffd5b5f613b1d826130db565b9150613b28836130db565b9250828203905061ffff811115613b4257613b41613ae6565b5b92915050565b5f613b52826130db565b915061ffff8203613b6657613b65613ae6565b5b600182019050919050565b7f4e487b71000000000000000000000000000000000000000000000000000000005f52603260045260245ffd5b5f613ba8826131d3565b9150613bb3836131d3565b9250828201905080821115613bcb57613bca613ae6565b5b92915050565b7f4e487b71000000000000000000000000000000000000000000000000000000005f52601260045260245ffd5b5f613c08826130db565b9150613c13836130db565b925082613c2357613c22613bd1565b5b828206905092915050565b5f613c3882613852565b9150613c4383613852565b9250828201905065ffffffffffff811115613c6157613c60613ae6565b5b92915050565b5f613c71826130db565b9150613c7c836130db565b9250828201905061ffff811115613c9657613c95613ae6565b5b92915050565b5f613ca6826130db565b91505f8203613cb857613cb7613ae6565b5b600182039050919050565b7f696e76616c6964206163636573730000000000000000000000000000000000005f82015250565b5f613cf7600e8361395c565b9150613d0282613cc3565b602082019050919050565b5f6020820190508181035f830152613d2481613ceb565b9050919050565b5f819050919050565b613d45613d4082613162565b613d2b565b82525050565b5f613d568284613d34565b60208201915081905092915050565b5f81905092915050565b7f6578656375746f720000000000000000000000000000000000000000000000005f82015250565b5f613da3600883613d65565b9150613dae82613d6f565b600882019050919050565b5f613dc382613d97565b9150819050919050565b7f676f7665726e616e6365000000000000000000000000000000000000000000005f82015250565b5f613e01600a83613d65565b9150613e0c82613dcd565b600a82019050919050565b5f613e2182613df5565b9150819050919050565b7f73746f72616765000000000000000000000000000000000000000000000000005f82015250565b5f613e5f600783613d65565b9150613e6a82613e2b565b600782019050919050565b5f613e7f82613e53565b9150819050919050565b7f596f7520646f206e6f7420686176652061636365737320746f207468697320665f8201527f756e6374696f6e00000000000000000000000000000000000000000000000000602082015250565b5f613ee360278361395c565b9150613eee82613e89565b604082019050919050565b5f6020820190508181035f830152613f1081613ed7565b9050919050565b5f608082019050613f2a5f830187613244565b613f37602083018661350f565b613f44604083018561350f565b613f51606083018461350f565b95945050505050565b5f81905092915050565b5f613f6e826138b8565b613f788185613f5a565b9350613f888185602086016138d2565b80840191505092915050565b5f613f9f8284613f64565b915081905092915050565b5f81519050613fb8816131dc565b92915050565b5f60208284031215613fd357613fd2613079565b5b5f613fe084828501613faa565b91505092915050565b7f546865207472616e73666572206f66207468697320746f6b656e2069732063755f8201527f7272656e746c792062616e6e6564000000000000000000000000000000000000602082015250565b5f614043602e8361395c565b915061404e82613fe9565b604082019050919050565b5f6020820190508181035f83015261407081614037565b9050919050565b5f819050919050565b5f61409a614095614090846130db565b614077565b6131d3565b9050919050565b6140aa81614080565b82525050565b5f6040820190506140c35f83018561350f565b6140d060208301846140a1565b9392505050565b5f6060820190506140ea5f83018661350f565b6140f760208301856140a1565b614104604083018461350f565b949350505050565b7f54686520696e70757420616464726573732063616e6e6f74206265207a65726f5f82015250565b5f61414060208361395c565b915061414b8261410c565b602082019050919050565b5f6020820190508181035f83015261416d81614134565b9050919050565b5f6040820190506141875f8301856132ca565b6141946020830184613244565b9392505050565b5f6104b19050919050565b5f81905092915050565b5f819050919050565b6141c2816130db565b82525050565b5f6141d383836141b9565b60208301905092915050565b5f602082019050919050565b6141f48161419b565b6141fe81846141a6565b9250614209826141b0565b805f5b8381101561423957815161422087826141c8565b965061422b836141df565b92505060018101905061420c565b505050505050565b61424a81613162565b82525050565b5f619700820190506142645f83018b6132ca565b614271602083018a613244565b61427e604083018961350f565b61428b606083018861350f565b6142986080830187613244565b6142a560a08301866141eb565b6142b36196c0830185614241565b6142c16196e083018461350f565b9998505050505050505050565b5f6080820190506142e15f83018761350f565b6142ee6020830186613244565b818103604083015261430081856138fa565b905061430f6060830184614241565b95945050505050565b7f65786563757465207065726d697373696f6e2066756e6374696f6e206661696c5f8201527f6564000000000000000000000000000000000000000000000000000000000000602082015250565b5f61437260228361395c565b915061437d82614318565b604082019050919050565b5f6020820190508181035f83015261439f81614366565b9050919050565b5f6060820190506143b95f83018661350f565b6143c6602083018561350f565b6143d36040830184613244565b949350505050565b7f5468652061646472657373206f6620746865206f776e657220616e64207468655f8201527f206f70657261746f72206d75737420626520646966666572656e740000000000602082015250565b5f614435603b8361395c565b9150614440826143db565b604082019050919050565b5f6020820190508181035f83015261446281614429565b9050919050565b7f4974206973206e6f7420706f737369626c6520746f207265676973746572206e5f8201527f6f77000000000000000000000000000000000000000000000000000000000000602082015250565b5f6144c360228361395c565b91506144ce82614469565b604082019050919050565b5f6020820190508181035f8301526144f0816144b7565b9050919050565b7f5468652061646472657373206f66207468652072656769737472616e74206d755f8201527f7374206e6f742062652030206f72207468652061646472657373206f6620612060208201527f636f6e7472616374000000000000000000000000000000000000000000000000604082015250565b5f61457760488361395c565b9150614582826144f7565b606082019050919050565b5f6020820190508181035f8301526145a48161456b565b9050919050565b7f54686520616d6f756e742073686f756c64206e6f74206265206c6573732074685f8201527f616e20746865206d696e74207072696365000000000000000000000000000000602082015250565b5f61460560318361395c565b9150614610826145ab565b604082019050919050565b5f6020820190508181035f830152614632816145f9565b9050919050565b50565b5f6146475f83613f5a565b915061465282614639565b5f82019050919050565b5f6146668261463c565b9150819050919050565b7f54686520616d6f756e7420776173206e6f742073656e740000000000000000005f82015250565b5f6146a460178361395c565b91506146af82614670565b602082019050919050565b5f6020820190508181035f8301526146d181614698565b9050919050565b5f6146e282613952565b6146ec8185613d65565b93506146fc8185602086016138d2565b80840191505092915050565b5f61471382856146d8565b915061471f82846146d8565b91508190509392505050565b7f6c6173745472616e7366657200000000000000000000000000000000000000005f82015250565b5f61475f600c8361395c565b915061476a8261472b565b602082019050919050565b5f6060820190506147885f830185613244565b61479560208301846132ca565b81810360408301526147a681614753565b90509392505050565b7f54686520494420656e746572656420697320696e76616c69642e204974206d755f8201527f737420626520696e207468697320696e74657276616c2030203c206964203c3d60208201527f206d6178696d756d206d696e7461626c6520746f6b656e730000000000000000604082015250565b5f61482f60588361395c565b915061483a826147af565b606082019050919050565b5f6020820190508181035f83015261485c81614823565b9050919050565b5f6020820190506148765f8301846140a1565b92915050565b5f60808201905061488f5f83018761350f565b61489c602083018661350f565b6148a960408301856132ca565b81810360608301526148bb81846138fa565b905095945050505050565b6148cf816137ff565b81146148d9575f80fd5b50565b5f815190506148ea816148c6565b92915050565b5f6020828403121561490557614904613079565b5b5f614912848285016148dc565b9150509291505056fea2646970667358221220adcc7fe2f3ff9463cbe73ca06e3fc80f0a3b0cd02a3cd7aea1060475530497e064736f6c63430008140033",
			"opcodes": "PUSH1 0x80 PUSH1 0x40 MSTORE CALLVALUE DUP1 ISZERO PUSH3 0x10 JUMPI PUSH0 DUP1 REVERT JUMPDEST POP PUSH1 0x40 MLOAD PUSH3 0x4C51 CODESIZE SUB DUP1 PUSH3 0x4C51 DUP4 CODECOPY DUP2 DUP2 ADD PUSH1 0x40 MSTORE DUP2 ADD SWAP1 PUSH3 0x36 SWAP2 SWAP1 PUSH3 0x283 JUMP JUMPDEST DUP4 PUSH0 DUP1 PUSH2 0x100 EXP DUP2 SLOAD DUP2 PUSH20 0xFFFFFFFFFFFFFFFFFFFFFFFFFFFFFFFFFFFFFFFF MUL NOT AND SWAP1 DUP4 PUSH1 0x60 SHR MUL OR SWAP1 SSTORE POP DUP3 PUSH0 PUSH1 0x14 PUSH2 0x100 EXP DUP2 SLOAD DUP2 PUSH10 0xFFFFFFFFFFFFFFFFFFFF MUL NOT AND SWAP1 DUP4 PUSH1 0xB0 SHR MUL OR SWAP1 SSTORE POP PUSH3 0x95 PUSH3 0x163 PUSH1 0x20 SHL PUSH1 0x20 SHR JUMP JUMPDEST PUSH1 0x1 PUSH0 ADD PUSH1 0x6 PUSH2 0x100 EXP DUP2 SLOAD DUP2 PUSH20 0xFFFFFFFFFFFFFFFFFFFFFFFFFFFFFFFFFFFFFFFF MUL NOT AND SWAP1 DUP4 PUSH20 0xFFFFFFFFFFFFFFFFFFFFFFFFFFFFFFFFFFFFFFFF AND MUL OR SWAP1 SSTORE POP DUP2 PUSH2 0xA81 PUSH0 PUSH2 0x100 EXP DUP2 SLOAD DUP2 PUSH20 0xFFFFFFFFFFFFFFFFFFFFFFFFFFFFFFFFFFFFFFFF MUL NOT AND SWAP1 DUP4 PUSH20 0xFFFFFFFFFFFFFFFFFFFFFFFFFFFFFFFFFFFFFFFF AND MUL OR SWAP1 SSTORE POP DUP1 PUSH2 0xA82 PUSH0 PUSH2 0x100 EXP DUP2 SLOAD DUP2 PUSH20 0xFFFFFFFFFFFFFFFFFFFFFFFFFFFFFFFFFFFFFFFF MUL NOT AND SWAP1 DUP4 PUSH20 0xFFFFFFFFFFFFFFFFFFFFFFFFFFFFFFFFFFFFFFFF AND MUL OR SWAP1 SSTORE POP POP POP POP POP PUSH3 0x2F2 JUMP JUMPDEST PUSH0 CALLER SWAP1 POP SWAP1 JUMP JUMPDEST PUSH0 DUP1 REVERT JUMPDEST PUSH0 PUSH32 0xFFFFFFFFFFFFFFFFFFFFFFFFFFFFFFFFFFFFFFFF000000000000000000000000 DUP3 AND SWAP1 POP SWAP2 SWAP1 POP JUMP JUMPDEST PUSH3 0x1A4 DUP2 PUSH3 0x16E JUMP JUMPDEST DUP2 EQ PUSH3 0x1AF JUMPI PUSH0 DUP1 REVERT JUMPDEST POP JUMP JUMPDEST PUSH0 DUP2 MLOAD SWAP1 POP PUSH3 0x1C2 DUP2 PUSH3 0x199 JUMP JUMPDEST SWAP3 SWAP2 POP POP JUMP JUMPDEST PUSH0 PUSH32 0xFFFFFFFFFFFFFFFFFFFF00000000000000000000000000000000000000000000 DUP3 AND SWAP1 POP SWAP2 SWAP1 POP JUMP JUMPDEST PUSH3 0x1FE DUP2 PUSH3 0x1C8 JUMP JUMPDEST DUP2 EQ PUSH3 0x209 JUMPI PUSH0 DUP1 REVERT JUMPDEST POP JUMP JUMPDEST PUSH0 DUP2 MLOAD SWAP1 POP PUSH3 0x21C DUP2 PUSH3 0x1F3 JUMP JUMPDEST SWAP3 SWAP2 POP POP JUMP JUMPDEST PUSH0 PUSH20 0xFFFFFFFFFFFFFFFFFFFFFFFFFFFFFFFFFFFFFFFF DUP3 AND SWAP1 POP SWAP2 SWAP1 POP JUMP JUMPDEST PUSH0 PUSH3 0x24D DUP3 PUSH3 0x222 JUMP JUMPDEST SWAP1 POP SWAP2 SWAP1 POP JUMP JUMPDEST PUSH3 0x25F DUP2 PUSH3 0x241 JUMP JUMPDEST DUP2 EQ PUSH3 0x26A JUMPI PUSH0 DUP1 REVERT JUMPDEST POP JUMP JUMPDEST PUSH0 DUP2 MLOAD SWAP1 POP PUSH3 0x27D DUP2 PUSH3 0x254 JUMP JUMPDEST SWAP3 SWAP2 POP POP JUMP JUMPDEST PUSH0 DUP1 PUSH0 DUP1 PUSH1 0x80 DUP6 DUP8 SUB SLT ISZERO PUSH3 0x29E JUMPI PUSH3 0x29D PUSH3 0x16A JUMP JUMPDEST JUMPDEST PUSH0 PUSH3 0x2AD DUP8 DUP3 DUP9 ADD PUSH3 0x1B2 JUMP JUMPDEST SWAP5 POP POP PUSH1 0x20 PUSH3 0x2C0 DUP8 DUP3 DUP9 ADD PUSH3 0x20C JUMP JUMPDEST SWAP4 POP POP PUSH1 0x40 PUSH3 0x2D3 DUP8 DUP3 DUP9 ADD PUSH3 0x26D JUMP JUMPDEST SWAP3 POP POP PUSH1 0x60 PUSH3 0x2E6 DUP8 DUP3 DUP9 ADD PUSH3 0x26D JUMP JUMPDEST SWAP2 POP POP SWAP3 SWAP6 SWAP2 SWAP5 POP SWAP3 POP JUMP JUMPDEST PUSH2 0x4951 DUP1 PUSH3 0x300 PUSH0 CODECOPY PUSH0 RETURN INVALID PUSH1 0x80 PUSH1 0x40 MSTORE PUSH1 0x4 CALLDATASIZE LT PUSH2 0x11E JUMPI PUSH0 CALLDATALOAD PUSH1 0xE0 SHR DUP1 PUSH4 0x93B871F2 GT PUSH2 0x9F JUMPI DUP1 PUSH4 0xD5EBE3DF GT PUSH2 0x63 JUMPI DUP1 PUSH4 0xD5EBE3DF EQ PUSH2 0x3D8 JUMPI DUP1 PUSH4 0xDD7D8440 EQ PUSH2 0x408 JUMPI DUP1 PUSH4 0xE560CA43 EQ PUSH2 0x444 JUMPI DUP1 PUSH4 0xE985E9C5 EQ PUSH2 0x46C JUMPI DUP1 PUSH4 0xF12C2C7A EQ PUSH2 0x4A8 JUMPI PUSH2 0x11E JUMP JUMPDEST DUP1 PUSH4 0x93B871F2 EQ PUSH2 0x2E6 JUMPI DUP1 PUSH4 0x95D89B41 EQ PUSH2 0x322 JUMPI DUP1 PUSH4 0xA22CB465 EQ PUSH2 0x34C JUMPI DUP1 PUSH4 0xB145AE31 EQ PUSH2 0x374 JUMPI DUP1 PUSH4 0xB1CFF380 EQ PUSH2 0x39C JUMPI PUSH2 0x11E JUMP JUMPDEST DUP1 PUSH4 0x3610FEB3 GT PUSH2 0xE6 JUMPI DUP1 PUSH4 0x3610FEB3 EQ PUSH2 0x1EE JUMPI DUP1 PUSH4 0x4EC3DCFE EQ PUSH2 0x22A JUMPI DUP1 PUSH4 0x70A08231 EQ PUSH2 0x252 JUMPI DUP1 PUSH4 0x7E0DAD88 EQ PUSH2 0x28E JUMPI DUP1 PUSH4 0x82A7CF1E EQ PUSH2 0x2AA JUMPI PUSH2 0x11E JUMP JUMPDEST DUP1 PUSH4 0x6FDDE03 EQ PUSH2 0x122 JUMPI DUP1 PUSH4 0x7394401 EQ PUSH2 0x14C JUMPI DUP1 PUSH4 0x1249C58B EQ PUSH2 0x174 JUMPI DUP1 PUSH4 0x18964EFF EQ PUSH2 0x18A JUMPI DUP1 PUSH4 0x22B7B951 EQ PUSH2 0x1B2 JUMPI JUMPDEST PUSH0 DUP1 REVERT JUMPDEST CALLVALUE DUP1 ISZERO PUSH2 0x12D JUMPI PUSH0 DUP1 REVERT JUMPDEST POP PUSH2 0x136 PUSH2 0x4D0 JUMP JUMPDEST PUSH1 0x40 MLOAD PUSH2 0x143 SWAP2 SWAP1 PUSH2 0x3057 JUMP JUMPDEST PUSH1 0x40 MLOAD DUP1 SWAP2 SUB SWAP1 RETURN JUMPDEST CALLVALUE DUP1 ISZERO PUSH2 0x157 JUMPI PUSH0 DUP1 REVERT JUMPDEST POP PUSH2 0x172 PUSH1 0x4 DUP1 CALLDATASIZE SUB DUP2 ADD SWAP1 PUSH2 0x16D SWAP2 SWAP1 PUSH2 0x3112 JUMP JUMPDEST PUSH2 0x4E4 JUMP JUMPDEST STOP JUMPDEST CALLVALUE DUP1 ISZERO PUSH2 0x17F JUMPI PUSH0 DUP1 REVERT JUMPDEST POP PUSH2 0x188 PUSH2 0x503 JUMP JUMPDEST STOP JUMPDEST CALLVALUE DUP1 ISZERO PUSH2 0x195 JUMPI PUSH0 DUP1 REVERT JUMPDEST POP PUSH2 0x1B0 PUSH1 0x4 DUP1 CALLDATASIZE SUB DUP2 ADD SWAP1 PUSH2 0x1AB SWAP2 SWAP1 PUSH2 0x3195 JUMP JUMPDEST PUSH2 0xAA3 JUMP JUMPDEST STOP JUMPDEST CALLVALUE DUP1 ISZERO PUSH2 0x1BD JUMPI PUSH0 DUP1 REVERT JUMPDEST POP PUSH2 0x1D8 PUSH1 0x4 DUP1 CALLDATASIZE SUB DUP2 ADD SWAP1 PUSH2 0x1D3 SWAP2 SWAP1 PUSH2 0x3206 JUMP JUMPDEST PUSH2 0xC74 JUMP JUMPDEST PUSH1 0x40 MLOAD PUSH2 0x1E5 SWAP2 SWAP1 PUSH2 0x3253 JUMP JUMPDEST PUSH1 0x40 MLOAD DUP1 SWAP2 SUB SWAP1 RETURN JUMPDEST CALLVALUE DUP1 ISZERO PUSH2 0x1F9 JUMPI PUSH0 DUP1 REVERT JUMPDEST POP PUSH2 0x214 PUSH1 0x4 DUP1 CALLDATASIZE SUB DUP2 ADD SWAP1 PUSH2 0x20F SWAP2 SWAP1 PUSH2 0x326C JUMP JUMPDEST PUSH2 0xE48 JUMP JUMPDEST PUSH1 0x40 MLOAD PUSH2 0x221 SWAP2 SWAP1 PUSH2 0x32B1 JUMP JUMPDEST PUSH1 0x40 MLOAD DUP1 SWAP2 SUB SWAP1 RETURN JUMPDEST CALLVALUE DUP1 ISZERO PUSH2 0x235 JUMPI PUSH0 DUP1 REVERT JUMPDEST POP PUSH2 0x250 PUSH1 0x4 DUP1 CALLDATASIZE SUB DUP2 ADD SWAP1 PUSH2 0x24B SWAP2 SWAP1 PUSH2 0x3112 JUMP JUMPDEST PUSH2 0xE4E JUMP JUMPDEST STOP JUMPDEST CALLVALUE DUP1 ISZERO PUSH2 0x25D JUMPI PUSH0 DUP1 REVERT JUMPDEST POP PUSH2 0x278 PUSH1 0x4 DUP1 CALLDATASIZE SUB DUP2 ADD SWAP1 PUSH2 0x273 SWAP2 SWAP1 PUSH2 0x326C JUMP JUMPDEST PUSH2 0x10A7 JUMP JUMPDEST PUSH1 0x40 MLOAD PUSH2 0x285 SWAP2 SWAP1 PUSH2 0x32D9 JUMP JUMPDEST PUSH1 0x40 MLOAD DUP1 SWAP2 SUB SWAP1 RETURN JUMPDEST PUSH2 0x2A8 PUSH1 0x4 DUP1 CALLDATASIZE SUB DUP2 ADD SWAP1 PUSH2 0x2A3 SWAP2 SWAP1 PUSH2 0x3431 JUMP JUMPDEST PUSH2 0x1188 JUMP JUMPDEST STOP JUMPDEST CALLVALUE DUP1 ISZERO PUSH2 0x2B5 JUMPI PUSH0 DUP1 REVERT JUMPDEST POP PUSH2 0x2D0 PUSH1 0x4 DUP1 CALLDATASIZE SUB DUP2 ADD SWAP1 PUSH2 0x2CB SWAP2 SWAP1 PUSH2 0x34E4 JUMP JUMPDEST PUSH2 0x1759 JUMP JUMPDEST PUSH1 0x40 MLOAD PUSH2 0x2DD SWAP2 SWAP1 PUSH2 0x351E JUMP JUMPDEST PUSH1 0x40 MLOAD DUP1 SWAP2 SUB SWAP1 RETURN JUMPDEST CALLVALUE DUP1 ISZERO PUSH2 0x2F1 JUMPI PUSH0 DUP1 REVERT JUMPDEST POP PUSH2 0x30C PUSH1 0x4 DUP1 CALLDATASIZE SUB DUP2 ADD SWAP1 PUSH2 0x307 SWAP2 SWAP1 PUSH2 0x34E4 JUMP JUMPDEST PUSH2 0x176A JUMP JUMPDEST PUSH1 0x40 MLOAD PUSH2 0x319 SWAP2 SWAP1 PUSH2 0x351E JUMP JUMPDEST PUSH1 0x40 MLOAD DUP1 SWAP2 SUB SWAP1 RETURN JUMPDEST CALLVALUE DUP1 ISZERO PUSH2 0x32D JUMPI PUSH0 DUP1 REVERT JUMPDEST POP PUSH2 0x336 PUSH2 0x17B6 JUMP JUMPDEST PUSH1 0x40 MLOAD PUSH2 0x343 SWAP2 SWAP1 PUSH2 0x3571 JUMP JUMPDEST PUSH1 0x40 MLOAD DUP1 SWAP2 SUB SWAP1 RETURN JUMPDEST CALLVALUE DUP1 ISZERO PUSH2 0x357 JUMPI PUSH0 DUP1 REVERT JUMPDEST POP PUSH2 0x372 PUSH1 0x4 DUP1 CALLDATASIZE SUB DUP2 ADD SWAP1 PUSH2 0x36D SWAP2 SWAP1 PUSH2 0x35B4 JUMP JUMPDEST PUSH2 0x17CB JUMP JUMPDEST STOP JUMPDEST CALLVALUE DUP1 ISZERO PUSH2 0x37F JUMPI PUSH0 DUP1 REVERT JUMPDEST POP PUSH2 0x39A PUSH1 0x4 DUP1 CALLDATASIZE SUB DUP2 ADD SWAP1 PUSH2 0x395 SWAP2 SWAP1 PUSH2 0x36A2 JUMP JUMPDEST PUSH2 0x19B7 JUMP JUMPDEST STOP JUMPDEST CALLVALUE DUP1 ISZERO PUSH2 0x3A7 JUMPI PUSH0 DUP1 REVERT JUMPDEST POP PUSH2 0x3C2 PUSH1 0x4 DUP1 CALLDATASIZE SUB DUP2 ADD SWAP1 PUSH2 0x3BD SWAP2 SWAP1 PUSH2 0x377B JUMP JUMPDEST PUSH2 0x19D4 JUMP JUMPDEST PUSH1 0x40 MLOAD PUSH2 0x3CF SWAP2 SWAP1 PUSH2 0x3839 JUMP JUMPDEST PUSH1 0x40 MLOAD DUP1 SWAP2 SUB SWAP1 RETURN JUMPDEST PUSH2 0x3F2 PUSH1 0x4 DUP1 CALLDATASIZE SUB DUP2 ADD SWAP1 PUSH2 0x3ED SWAP2 SWAP1 PUSH2 0x388D JUMP JUMPDEST PUSH2 0x19DE JUMP JUMPDEST PUSH1 0x40 MLOAD PUSH2 0x3FF SWAP2 SWAP1 PUSH2 0x3932 JUMP JUMPDEST PUSH1 0x40 MLOAD DUP1 SWAP2 SUB SWAP1 RETURN JUMPDEST CALLVALUE DUP1 ISZERO PUSH2 0x413 JUMPI PUSH0 DUP1 REVERT JUMPDEST POP PUSH2 0x42E PUSH1 0x4 DUP1 CALLDATASIZE SUB DUP2 ADD SWAP1 PUSH2 0x429 SWAP2 SWAP1 PUSH2 0x34E4 JUMP JUMPDEST PUSH2 0x1D8B JUMP JUMPDEST PUSH1 0x40 MLOAD PUSH2 0x43B SWAP2 SWAP1 PUSH2 0x39A4 JUMP JUMPDEST PUSH1 0x40 MLOAD DUP1 SWAP2 SUB SWAP1 RETURN JUMPDEST CALLVALUE DUP1 ISZERO PUSH2 0x44F JUMPI PUSH0 DUP1 REVERT JUMPDEST POP PUSH2 0x46A PUSH1 0x4 DUP1 CALLDATASIZE SUB DUP2 ADD SWAP1 PUSH2 0x465 SWAP2 SWAP1 PUSH2 0x39C4 JUMP JUMPDEST PUSH2 0x1DF5 JUMP JUMPDEST STOP JUMPDEST CALLVALUE DUP1 ISZERO PUSH2 0x477 JUMPI PUSH0 DUP1 REVERT JUMPDEST POP PUSH2 0x492 PUSH1 0x4 DUP1 CALLDATASIZE SUB DUP2 ADD SWAP1 PUSH2 0x48D SWAP2 SWAP1 PUSH2 0x3A02 JUMP JUMPDEST PUSH2 0x1F19 JUMP JUMPDEST PUSH1 0x40 MLOAD PUSH2 0x49F SWAP2 SWAP1 PUSH2 0x32B1 JUMP JUMPDEST PUSH1 0x40 MLOAD DUP1 SWAP2 SUB SWAP1 RETURN JUMPDEST CALLVALUE DUP1 ISZERO PUSH2 0x4B3 JUMPI PUSH0 DUP1 REVERT JUMPDEST POP PUSH2 0x4CE PUSH1 0x4 DUP1 CALLDATASIZE SUB DUP2 ADD SWAP1 PUSH2 0x4C9 SWAP2 SWAP1 PUSH2 0x3A40 JUMP JUMPDEST PUSH2 0x1FA8 JUMP JUMPDEST STOP JUMPDEST PUSH0 DUP1 PUSH0 SWAP1 SLOAD SWAP1 PUSH2 0x100 EXP SWAP1 DIV PUSH1 0x60 SHL SWAP1 POP SWAP1 JUMP JUMPDEST PUSH2 0x4FE DUP4 DUP4 DUP4 PUSH1 0x40 MLOAD DUP1 PUSH1 0x20 ADD PUSH1 0x40 MSTORE DUP1 PUSH0 DUP2 MSTORE POP PUSH2 0x19B7 JUMP JUMPDEST POP POP POP JUMP JUMPDEST PUSH1 0x1 PUSH0 ADD PUSH1 0x6 SWAP1 SLOAD SWAP1 PUSH2 0x100 EXP SWAP1 DIV PUSH20 0xFFFFFFFFFFFFFFFFFFFFFFFFFFFFFFFFFFFFFFFF AND PUSH20 0xFFFFFFFFFFFFFFFFFFFFFFFFFFFFFFFFFFFFFFFF AND PUSH2 0x546 PUSH2 0x20CB JUMP JUMPDEST PUSH20 0xFFFFFFFFFFFFFFFFFFFFFFFFFFFFFFFFFFFFFFFF AND EQ PUSH2 0x59C JUMPI PUSH1 0x40 MLOAD PUSH32 0x8C379A000000000000000000000000000000000000000000000000000000000 DUP2 MSTORE PUSH1 0x4 ADD PUSH2 0x593 SWAP1 PUSH2 0x3AC8 JUMP JUMPDEST PUSH1 0x40 MLOAD DUP1 SWAP2 SUB SWAP1 REVERT JUMPDEST PUSH1 0x1 PUSH0 ADD PUSH1 0x2 SWAP1 SLOAD SWAP1 PUSH2 0x100 EXP SWAP1 DIV PUSH2 0xFFFF AND PUSH2 0xFFFF AND PUSH1 0x1 PUSH0 ADD PUSH1 0x4 SWAP1 SLOAD SWAP1 PUSH2 0x100 EXP SWAP1 DIV PUSH2 0xFFFF AND PUSH2 0xFFFF AND GT ISZERO PUSH2 0xA52 JUMPI PUSH0 PUSH1 0x1 PUSH1 0x4 ADD PUSH2 0x4B1 DUP1 PUSH1 0x20 MUL PUSH1 0x40 MLOAD SWAP1 DUP2 ADD PUSH1 0x40 MSTORE DUP1 SWAP3 SWAP2 SWAP1 DUP3 PUSH2 0x4B1 DUP1 ISZERO PUSH2 0x63E JUMPI PUSH1 0x20 MUL DUP3 ADD SWAP2 PUSH0 SWAP1 JUMPDEST DUP3 DUP3 SWAP1 SLOAD SWAP1 PUSH2 0x100 EXP SWAP1 DIV PUSH6 0xFFFFFFFFFFFF AND PUSH6 0xFFFFFFFFFFFF AND DUP2 MSTORE PUSH1 0x20 ADD SWAP1 PUSH1 0x6 ADD SWAP1 PUSH1 0x20 DUP3 PUSH1 0x5 ADD DIV SWAP3 DUP4 ADD SWAP3 PUSH1 0x1 SUB DUP3 MUL SWAP2 POP DUP1 DUP5 GT PUSH2 0x5FD JUMPI SWAP1 POP JUMPDEST POP POP POP POP POP SWAP1 POP PUSH0 PUSH1 0x1 PUSH1 0xF5 ADD PUSH2 0x4B1 DUP1 PUSH1 0x20 MUL PUSH1 0x40 MLOAD SWAP1 DUP2 ADD PUSH1 0x40 MSTORE DUP1 SWAP3 SWAP2 SWAP1 DUP3 PUSH2 0x4B1 DUP1 ISZERO PUSH2 0x6B9 JUMPI PUSH1 0x20 MUL DUP3 ADD SWAP2 JUMPDEST DUP2 PUSH0 SWAP1 SLOAD SWAP1 PUSH2 0x100 EXP SWAP1 DIV PUSH20 0xFFFFFFFFFFFFFFFFFFFFFFFFFFFFFFFFFFFFFFFF AND PUSH20 0xFFFFFFFFFFFFFFFFFFFFFFFFFFFFFFFFFFFFFFFF AND DUP2 MSTORE PUSH1 0x20 ADD SWAP1 PUSH1 0x1 ADD SWAP1 DUP1 DUP4 GT PUSH2 0x670 JUMPI JUMPDEST POP POP POP POP POP SWAP1 POP PUSH0 PUSH1 0x1 PUSH0 ADD PUSH1 0x2 SWAP1 SLOAD SWAP1 PUSH2 0x100 EXP SWAP1 DIV PUSH2 0xFFFF AND PUSH1 0x1 PUSH0 ADD PUSH1 0x4 SWAP1 SLOAD SWAP1 PUSH2 0x100 EXP SWAP1 DIV PUSH2 0xFFFF AND PUSH2 0x6F1 SWAP2 SWAP1 PUSH2 0x3B13 JUMP JUMPDEST SWAP1 POP PUSH0 PUSH1 0x1 PUSH0 ADD PUSH1 0x2 SWAP1 SLOAD SWAP1 PUSH2 0x100 EXP SWAP1 DIV PUSH2 0xFFFF AND PUSH1 0x1 PUSH0 ADD PUSH0 SWAP1 SLOAD SWAP1 PUSH2 0x100 EXP SWAP1 DIV PUSH2 0xFFFF AND PUSH2 0x723 SWAP2 SWAP1 PUSH2 0x3B13 JUMP JUMPDEST SWAP1 POP PUSH0 PUSH1 0x1 PUSH0 ADD PUSH1 0x2 DUP2 DUP2 SWAP1 SLOAD SWAP1 PUSH2 0x100 EXP SWAP1 DIV PUSH2 0xFFFF AND PUSH2 0x744 SWAP1 PUSH2 0x3B48 JUMP JUMPDEST SWAP2 SWAP1 PUSH2 0x100 EXP DUP2 SLOAD DUP2 PUSH2 0xFFFF MUL NOT AND SWAP1 DUP4 PUSH2 0xFFFF AND MUL OR SWAP1 SSTORE SWAP1 POP PUSH0 PUSH1 0x1 PUSH0 ADD PUSH1 0x4 SWAP1 SLOAD SWAP1 PUSH2 0x100 EXP SWAP1 DIV PUSH2 0xFFFF AND SWAP1 POP PUSH0 TIMESTAMP SWAP1 POP JUMPDEST DUP2 PUSH2 0xFFFF AND DUP4 PUSH2 0xFFFF AND GT PUSH2 0xA15 JUMPI PUSH0 DUP4 DUP9 DUP6 PUSH2 0xFFFF AND PUSH2 0x4B1 DUP2 LT PUSH2 0x7A3 JUMPI PUSH2 0x7A2 PUSH2 0x3B71 JUMP JUMPDEST JUMPDEST PUSH1 0x20 MUL ADD MLOAD PUSH6 0xFFFFFFFFFFFF AND DUP4 DUP11 PUSH0 PUSH2 0x4B1 DUP2 LT PUSH2 0x7C5 JUMPI PUSH2 0x7C4 PUSH2 0x3B71 JUMP JUMPDEST JUMPDEST PUSH1 0x20 MUL ADD MLOAD PUSH6 0xFFFFFFFFFFFF AND PUSH2 0x7DC SWAP2 SWAP1 PUSH2 0x3B9E JUMP JUMPDEST PUSH2 0x7E6 SWAP2 SWAP1 PUSH2 0x3B9E JUMP JUMPDEST PUSH2 0x7F0 SWAP2 SWAP1 PUSH2 0x3BFE JUMP JUMPDEST SWAP1 POP PUSH0 DUP4 DUP10 PUSH0 PUSH2 0x4B1 DUP2 LT PUSH2 0x808 JUMPI PUSH2 0x807 PUSH2 0x3B71 JUMP JUMPDEST JUMPDEST PUSH1 0x20 MUL ADD MLOAD DUP11 DUP5 PUSH2 0xFFFF AND PUSH2 0x4B1 DUP2 LT PUSH2 0x825 JUMPI PUSH2 0x824 PUSH2 0x3B71 JUMP JUMPDEST JUMPDEST PUSH1 0x20 MUL ADD MLOAD PUSH2 0x834 SWAP2 SWAP1 PUSH2 0x3C2E JUMP JUMPDEST PUSH2 0x83E SWAP2 SWAP1 PUSH2 0x3BFE JUMP JUMPDEST SWAP1 POP PUSH0 DUP6 DUP9 DUP12 DUP5 PUSH2 0xFFFF AND PUSH2 0x4B1 DUP2 LT PUSH2 0x85B JUMPI PUSH2 0x85A PUSH2 0x3B71 JUMP JUMPDEST JUMPDEST PUSH1 0x20 MUL ADD MLOAD DUP13 DUP7 PUSH2 0xFFFF AND PUSH2 0x4B1 DUP2 LT PUSH2 0x878 JUMPI PUSH2 0x877 PUSH2 0x3B71 JUMP JUMPDEST JUMPDEST PUSH1 0x20 MUL ADD MLOAD PUSH2 0x887 SWAP2 SWAP1 PUSH2 0x3C2E JUMP JUMPDEST PUSH2 0x891 SWAP2 SWAP1 PUSH2 0x3BFE JUMP JUMPDEST PUSH2 0x89B SWAP2 SWAP1 PUSH2 0x3C67 JUMP JUMPDEST SWAP1 POP PUSH0 DUP10 DUP3 PUSH2 0xFFFF AND PUSH2 0x4B1 DUP2 LT PUSH2 0x8B6 JUMPI PUSH2 0x8B5 PUSH2 0x3B71 JUMP JUMPDEST JUMPDEST PUSH1 0x20 MUL ADD MLOAD SWAP1 POP DUP10 DUP8 PUSH2 0xFFFF AND PUSH2 0x4B1 DUP2 LT PUSH2 0x8D5 JUMPI PUSH2 0x8D4 PUSH2 0x3B71 JUMP JUMPDEST JUMPDEST PUSH1 0x20 MUL ADD MLOAD DUP11 DUP4 PUSH2 0xFFFF AND PUSH2 0x4B1 DUP2 LT PUSH2 0x8F2 JUMPI PUSH2 0x8F1 PUSH2 0x3B71 JUMP JUMPDEST JUMPDEST PUSH1 0x20 MUL ADD SWAP1 PUSH20 0xFFFFFFFFFFFFFFFFFFFFFFFFFFFFFFFFFFFFFFFF AND SWAP1 DUP2 PUSH20 0xFFFFFFFFFFFFFFFFFFFFFFFFFFFFFFFFFFFFFFFF AND DUP2 MSTORE POP POP DUP1 DUP11 DUP9 PUSH2 0xFFFF AND PUSH2 0x4B1 DUP2 LT PUSH2 0x942 JUMPI PUSH2 0x941 PUSH2 0x3B71 JUMP JUMPDEST JUMPDEST PUSH1 0x20 MUL ADD SWAP1 PUSH20 0xFFFFFFFFFFFFFFFFFFFFFFFFFFFFFFFFFFFFFFFF AND SWAP1 DUP2 PUSH20 0xFFFFFFFFFFFFFFFFFFFFFFFFFFFFFFFFFFFFFFFF AND DUP2 MSTORE POP POP PUSH0 DUP9 DUP13 DUP5 PUSH2 0xFFFF AND PUSH2 0x4B1 DUP2 LT PUSH2 0x993 JUMPI PUSH2 0x992 PUSH2 0x3B71 JUMP JUMPDEST JUMPDEST PUSH1 0x20 MUL ADD MLOAD DUP14 DUP8 PUSH2 0xFFFF AND PUSH2 0x4B1 DUP2 LT PUSH2 0x9B0 JUMPI PUSH2 0x9AF PUSH2 0x3B71 JUMP JUMPDEST JUMPDEST PUSH1 0x20 MUL ADD MLOAD PUSH2 0x9BF SWAP2 SWAP1 PUSH2 0x3C2E JUMP JUMPDEST PUSH2 0x9C9 SWAP2 SWAP1 PUSH2 0x3BFE JUMP JUMPDEST SWAP1 POP PUSH0 DUP2 PUSH2 0xFFFF AND SUB PUSH2 0x9DA JUMPI DUP9 SWAP1 POP JUMPDEST PUSH2 0x9E5 DUP3 DUP3 PUSH0 PUSH2 0x20D2 JUMP JUMPDEST DUP10 PUSH2 0x9EF SWAP1 PUSH2 0x3C9C JUMP JUMPDEST SWAP10 POP DUP9 PUSH2 0x9FB SWAP1 PUSH2 0x3C9C JUMP JUMPDEST SWAP9 POP POP POP POP POP POP DUP3 DUP1 PUSH2 0xA0D SWAP1 PUSH2 0x3B48 JUMP JUMPDEST SWAP4 POP POP PUSH2 0x77A JUMP JUMPDEST PUSH1 0x1 PUSH0 ADD PUSH1 0x4 SWAP1 SLOAD SWAP1 PUSH2 0x100 EXP SWAP1 DIV PUSH2 0xFFFF AND PUSH1 0x1 PUSH0 ADD PUSH1 0x2 PUSH2 0x100 EXP DUP2 SLOAD DUP2 PUSH2 0xFFFF MUL NOT AND SWAP1 DUP4 PUSH2 0xFFFF AND MUL OR SWAP1 SSTORE POP POP POP POP POP POP POP POP PUSH2 0xAA1 JUMP JUMPDEST PUSH1 0x1 PUSH0 ADD PUSH1 0x4 SWAP1 SLOAD SWAP1 PUSH2 0x100 EXP SWAP1 DIV PUSH2 0xFFFF AND PUSH1 0x40 MLOAD PUSH32 0x72864E7C00000000000000000000000000000000000000000000000000000000 DUP2 MSTORE PUSH1 0x4 ADD PUSH2 0xA98 SWAP2 SWAP1 PUSH2 0x32D9 JUMP JUMPDEST PUSH1 0x40 MLOAD DUP1 SWAP2 SUB SWAP1 REVERT JUMPDEST JUMP JUMPDEST PUSH2 0xAB3 PUSH2 0xAAE PUSH2 0x20CB JUMP JUMPDEST PUSH2 0xE48 JUMP JUMPDEST PUSH2 0xAF2 JUMPI PUSH1 0x40 MLOAD PUSH32 0x8C379A000000000000000000000000000000000000000000000000000000000 DUP2 MSTORE PUSH1 0x4 ADD PUSH2 0xAE9 SWAP1 PUSH2 0x3D0D JUMP JUMPDEST PUSH1 0x40 MLOAD DUP1 SWAP2 SUB SWAP1 REVERT JUMPDEST PUSH0 DUP2 PUSH1 0x40 MLOAD PUSH1 0x20 ADD PUSH2 0xB04 SWAP2 SWAP1 PUSH2 0x3D4B JUMP JUMPDEST PUSH1 0x40 MLOAD PUSH1 0x20 DUP2 DUP4 SUB SUB DUP2 MSTORE SWAP1 PUSH1 0x40 MSTORE DUP1 MLOAD SWAP1 PUSH1 0x20 ADD KECCAK256 SWAP1 POP DUP1 PUSH1 0x40 MLOAD PUSH1 0x20 ADD PUSH2 0xB2C SWAP1 PUSH2 0x3DB9 JUMP JUMPDEST PUSH1 0x40 MLOAD PUSH1 0x20 DUP2 DUP4 SUB SUB DUP2 MSTORE SWAP1 PUSH1 0x40 MSTORE DUP1 MLOAD SWAP1 PUSH1 0x20 ADD KECCAK256 SUB PUSH2 0xB8F JUMPI DUP3 PUSH1 0x1 PUSH0 ADD PUSH1 0x6 PUSH2 0x100 EXP DUP2 SLOAD DUP2 PUSH20 0xFFFFFFFFFFFFFFFFFFFFFFFFFFFFFFFFFFFFFFFF MUL NOT AND SWAP1 DUP4 PUSH20 0xFFFFFFFFFFFFFFFFFFFFFFFFFFFFFFFFFFFFFFFF AND MUL OR SWAP1 SSTORE POP PUSH2 0xC6F JUMP JUMPDEST DUP1 PUSH1 0x40 MLOAD PUSH1 0x20 ADD PUSH2 0xB9F SWAP1 PUSH2 0x3E17 JUMP JUMPDEST PUSH1 0x40 MLOAD PUSH1 0x20 DUP2 DUP4 SUB SUB DUP2 MSTORE SWAP1 PUSH1 0x40 MSTORE DUP1 MLOAD SWAP1 PUSH1 0x20 ADD KECCAK256 SUB PUSH2 0xC00 JUMPI DUP3 PUSH2 0xA81 PUSH0 PUSH2 0x100 EXP DUP2 SLOAD DUP2 PUSH20 0xFFFFFFFFFFFFFFFFFFFFFFFFFFFFFFFFFFFFFFFF MUL NOT AND SWAP1 DUP4 PUSH20 0xFFFFFFFFFFFFFFFFFFFFFFFFFFFFFFFFFFFFFFFF AND MUL OR SWAP1 SSTORE POP PUSH2 0xC6E JUMP JUMPDEST DUP1 PUSH1 0x40 MLOAD PUSH1 0x20 ADD PUSH2 0xC10 SWAP1 PUSH2 0x3E75 JUMP JUMPDEST PUSH1 0x40 MLOAD PUSH1 0x20 DUP2 DUP4 SUB SUB DUP2 MSTORE SWAP1 PUSH1 0x40 MSTORE DUP1 MLOAD SWAP1 PUSH1 0x20 ADD KECCAK256 SUB PUSH2 0xC6D JUMPI DUP3 PUSH2 0xA82 PUSH0 PUSH2 0x100 EXP DUP2 SLOAD DUP2 PUSH20 0xFFFFFFFFFFFFFFFFFFFFFFFFFFFFFFFFFFFFFFFF MUL NOT AND SWAP1 DUP4 PUSH20 0xFFFFFFFFFFFFFFFFFFFFFFFFFFFFFFFFFFFFFFFF AND MUL OR SWAP1 SSTORE POP JUMPDEST JUMPDEST JUMPDEST POP POP POP JUMP JUMPDEST PUSH0 PUSH1 0x1 PUSH0 ADD PUSH1 0x6 SWAP1 SLOAD SWAP1 PUSH2 0x100 EXP SWAP1 DIV PUSH20 0xFFFFFFFFFFFFFFFFFFFFFFFFFFFFFFFFFFFFFFFF AND PUSH20 0xFFFFFFFFFFFFFFFFFFFFFFFFFFFFFFFFFFFFFFFF AND PUSH2 0xCB8 PUSH2 0x20CB JUMP JUMPDEST PUSH20 0xFFFFFFFFFFFFFFFFFFFFFFFFFFFFFFFFFFFFFFFF AND EQ PUSH2 0xD0E JUMPI PUSH1 0x40 MLOAD PUSH32 0x8C379A000000000000000000000000000000000000000000000000000000000 DUP2 MSTORE PUSH1 0x4 ADD PUSH2 0xD05 SWAP1 PUSH2 0x3EF9 JUMP JUMPDEST PUSH1 0x40 MLOAD DUP1 SWAP2 SUB SWAP1 REVERT JUMPDEST PUSH0 PUSH2 0xA81 PUSH0 SWAP1 SLOAD SWAP1 PUSH2 0x100 EXP SWAP1 DIV PUSH20 0xFFFFFFFFFFFFFFFFFFFFFFFFFFFFFFFFFFFFFFFF AND PUSH20 0xFFFFFFFFFFFFFFFFFFFFFFFFFFFFFFFFFFFFFFFF AND DUP5 ADDRESS CALLER DUP7 PUSH1 0x40 MLOAD PUSH1 0x24 ADD PUSH2 0xD5F SWAP5 SWAP4 SWAP3 SWAP2 SWAP1 PUSH2 0x3F17 JUMP JUMPDEST PUSH1 0x40 MLOAD PUSH1 0x20 DUP2 DUP4 SUB SUB DUP2 MSTORE SWAP1 PUSH1 0x40 MSTORE PUSH32 0x56BE563100000000000000000000000000000000000000000000000000000000 PUSH28 0xFFFFFFFFFFFFFFFFFFFFFFFFFFFFFFFFFFFFFFFFFFFFFFFFFFFFFFFF NOT AND PUSH1 0x20 DUP3 ADD DUP1 MLOAD PUSH28 0xFFFFFFFFFFFFFFFFFFFFFFFFFFFFFFFFFFFFFFFFFFFFFFFFFFFFFFFF DUP4 DUP2 DUP4 AND OR DUP4 MSTORE POP POP POP POP PUSH1 0x40 MLOAD PUSH2 0xDE9 SWAP2 SWAP1 PUSH2 0x3F94 JUMP JUMPDEST PUSH0 PUSH1 0x40 MLOAD DUP1 DUP4 SUB DUP2 PUSH0 DUP7 GAS CALL SWAP2 POP POP RETURNDATASIZE DUP1 PUSH0 DUP2 EQ PUSH2 0xE22 JUMPI PUSH1 0x40 MLOAD SWAP2 POP PUSH1 0x1F NOT PUSH1 0x3F RETURNDATASIZE ADD AND DUP3 ADD PUSH1 0x40 MSTORE RETURNDATASIZE DUP3 MSTORE RETURNDATASIZE PUSH0 PUSH1 0x20 DUP5 ADD RETURNDATACOPY PUSH2 0xE27 JUMP JUMPDEST PUSH1 0x60 SWAP2 POP JUMPDEST POP SWAP2 POP POP DUP1 DUP1 PUSH1 0x20 ADD SWAP1 MLOAD DUP2 ADD SWAP1 PUSH2 0xE3F SWAP2 SWAP1 PUSH2 0x3FBE JUMP JUMPDEST SWAP2 POP POP SWAP3 SWAP2 POP POP JUMP JUMPDEST PUSH0 SWAP2 SWAP1 POP JUMP JUMPDEST PUSH0 PUSH20 0xFFFFFFFFFFFFFFFFFFFFFFFFFFFFFFFFFFFFFFFF AND DUP3 PUSH20 0xFFFFFFFFFFFFFFFFFFFFFFFFFFFFFFFFFFFFFFFF AND SUB PUSH2 0xEBE JUMPI PUSH0 PUSH1 0x40 MLOAD PUSH32 0x64A0AE9200000000000000000000000000000000000000000000000000000000 DUP2 MSTORE PUSH1 0x4 ADD PUSH2 0xEB5 SWAP2 SWAP1 PUSH2 0x351E JUMP JUMPDEST PUSH1 0x40 MLOAD DUP1 SWAP2 SUB SWAP1 REVERT JUMPDEST PUSH0 PUSH2 0xEC8 DUP3 PUSH2 0x29A3 JUMP JUMPDEST SWAP1 POP PUSH2 0xA58 DUP3 PUSH2 0xFFFF AND PUSH2 0x4B1 DUP2 LT PUSH2 0xEE4 JUMPI PUSH2 0xEE3 PUSH2 0x3B71 JUMP JUMPDEST JUMPDEST PUSH1 0x20 SWAP2 DUP3 DUP3 DIV ADD SWAP2 SWAP1 MOD SWAP1 SLOAD SWAP1 PUSH2 0x100 EXP SWAP1 DIV PUSH1 0xFF AND ISZERO PUSH2 0xF3A JUMPI PUSH1 0x40 MLOAD PUSH32 0x8C379A000000000000000000000000000000000000000000000000000000000 DUP2 MSTORE PUSH1 0x4 ADD PUSH2 0xF31 SWAP1 PUSH2 0x4059 JUMP JUMPDEST PUSH1 0x40 MLOAD DUP1 SWAP2 SUB SWAP1 REVERT JUMPDEST DUP1 PUSH20 0xFFFFFFFFFFFFFFFFFFFFFFFFFFFFFFFFFFFFFFFF AND PUSH2 0xF59 PUSH2 0x20CB JUMP JUMPDEST PUSH20 0xFFFFFFFFFFFFFFFFFFFFFFFFFFFFFFFFFFFFFFFF AND EQ DUP1 PUSH2 0xF88 JUMPI POP PUSH2 0xF87 DUP2 PUSH2 0xF82 PUSH2 0x20CB JUMP JUMPDEST PUSH2 0x1F19 JUMP JUMPDEST JUMPDEST DUP1 PUSH2 0xFCD JUMPI POP PUSH2 0xF96 PUSH2 0x20CB JUMP JUMPDEST PUSH20 0xFFFFFFFFFFFFFFFFFFFFFFFFFFFFFFFFFFFFFFFF AND PUSH2 0xFB5 DUP4 PUSH2 0x176A JUMP JUMPDEST PUSH20 0xFFFFFFFFFFFFFFFFFFFFFFFFFFFFFFFFFFFFFFFF AND EQ JUMPDEST PUSH2 0x1017 JUMPI PUSH2 0xFD9 PUSH2 0x20CB JUMP JUMPDEST DUP3 PUSH1 0x40 MLOAD PUSH32 0x177E802F00000000000000000000000000000000000000000000000000000000 DUP2 MSTORE PUSH1 0x4 ADD PUSH2 0x100E SWAP3 SWAP2 SWAP1 PUSH2 0x40B0 JUMP JUMPDEST PUSH1 0x40 MLOAD DUP1 SWAP2 SUB SWAP1 REVERT JUMPDEST DUP4 PUSH20 0xFFFFFFFFFFFFFFFFFFFFFFFFFFFFFFFFFFFFFFFF AND DUP2 PUSH20 0xFFFFFFFFFFFFFFFFFFFFFFFFFFFFFFFFFFFFFFFF AND EQ PUSH2 0x108B JUMPI DUP4 DUP3 DUP3 PUSH1 0x40 MLOAD PUSH32 0x64283D7B00000000000000000000000000000000000000000000000000000000 DUP2 MSTORE PUSH1 0x4 ADD PUSH2 0x1082 SWAP4 SWAP3 SWAP2 SWAP1 PUSH2 0x40D7 JUMP JUMPDEST PUSH1 0x40 MLOAD DUP1 SWAP2 SUB SWAP1 REVERT JUMPDEST PUSH2 0x1096 PUSH0 DUP4 DUP4 PUSH2 0x2AC6 JUMP JUMPDEST PUSH2 0x10A1 DUP4 DUP4 DUP4 PUSH2 0x20D2 JUMP JUMPDEST POP POP POP POP JUMP JUMPDEST PUSH0 DUP1 PUSH20 0xFFFFFFFFFFFFFFFFFFFFFFFFFFFFFFFFFFFFFFFF AND DUP3 PUSH20 0xFFFFFFFFFFFFFFFFFFFFFFFFFFFFFFFFFFFFFFFF AND SUB PUSH2 0x1116 JUMPI PUSH1 0x40 MLOAD PUSH32 0x8C379A000000000000000000000000000000000000000000000000000000000 DUP2 MSTORE PUSH1 0x4 ADD PUSH2 0x110D SWAP1 PUSH2 0x4156 JUMP JUMPDEST PUSH1 0x40 MLOAD DUP1 SWAP2 SUB SWAP1 REVERT JUMPDEST PUSH2 0xA7E PUSH0 DUP4 PUSH20 0xFFFFFFFFFFFFFFFFFFFFFFFFFFFFFFFFFFFFFFFF AND PUSH20 0xFFFFFFFFFFFFFFFFFFFFFFFFFFFFFFFFFFFFFFFF AND DUP2 MSTORE PUSH1 0x20 ADD SWAP1 DUP2 MSTORE PUSH1 0x20 ADD PUSH0 KECCAK256 PUSH0 PUSH2 0x4B1 DUP2 LT PUSH2 0x1167 JUMPI PUSH2 0x1166 PUSH2 0x3B71 JUMP JUMPDEST JUMPDEST PUSH1 0x10 SWAP2 DUP3 DUP3 DIV ADD SWAP2 SWAP1 MOD PUSH1 0x2 MUL SWAP1 SLOAD SWAP1 PUSH2 0x100 EXP SWAP1 DIV PUSH2 0xFFFF AND SWAP1 POP SWAP2 SWAP1 POP JUMP JUMPDEST PUSH1 0x1 PUSH0 ADD PUSH1 0x6 SWAP1 SLOAD SWAP1 PUSH2 0x100 EXP SWAP1 DIV PUSH20 0xFFFFFFFFFFFFFFFFFFFFFFFFFFFFFFFFFFFFFFFF AND PUSH20 0xFFFFFFFFFFFFFFFFFFFFFFFFFFFFFFFFFFFFFFFF AND PUSH2 0x11CB PUSH2 0x20CB JUMP JUMPDEST PUSH20 0xFFFFFFFFFFFFFFFFFFFFFFFFFFFFFFFFFFFFFFFF AND EQ PUSH2 0x1221 JUMPI PUSH1 0x40 MLOAD PUSH32 0x8C379A000000000000000000000000000000000000000000000000000000000 DUP2 MSTORE PUSH1 0x4 ADD PUSH2 0x1218 SWAP1 PUSH2 0x3EF9 JUMP JUMPDEST PUSH1 0x40 MLOAD DUP1 SWAP2 SUB SWAP1 REVERT JUMPDEST DUP8 PUSH2 0xFFFF AND PUSH0 LT DUP1 ISZERO PUSH2 0x123A JUMPI POP PUSH2 0x3E8 DUP9 PUSH2 0xFFFF AND GT ISZERO JUMPDEST ISZERO PUSH2 0x134A JUMPI PUSH1 0x1 PUSH0 ADD PUSH1 0x4 SWAP1 SLOAD SWAP1 PUSH2 0x100 EXP SWAP1 DIV PUSH2 0xFFFF AND PUSH2 0xFFFF AND DUP9 PUSH2 0xFFFF AND GT DUP1 ISZERO PUSH2 0x1268 JUMPI POP TIMESTAMP DUP8 LT ISZERO JUMPDEST ISZERO PUSH2 0x12AC JUMPI DUP8 DUP8 PUSH1 0x40 MLOAD PUSH32 0x2DB85D4F00000000000000000000000000000000000000000000000000000000 DUP2 MSTORE PUSH1 0x4 ADD PUSH2 0x12A3 SWAP3 SWAP2 SWAP1 PUSH2 0x4174 JUMP JUMPDEST PUSH1 0x40 MLOAD DUP1 SWAP2 SUB SWAP1 REVERT JUMPDEST DUP3 PUSH0 PUSH2 0x4B1 DUP2 LT PUSH2 0x12C0 JUMPI PUSH2 0x12BF PUSH2 0x3B71 JUMP JUMPDEST JUMPDEST PUSH1 0x20 MUL ADD MLOAD PUSH2 0xFFFF AND PUSH1 0x1 PUSH0 ADD PUSH1 0x2 SWAP1 SLOAD SWAP1 PUSH2 0x100 EXP SWAP1 DIV PUSH2 0xFFFF AND DUP10 PUSH2 0x12E7 SWAP2 SWAP1 PUSH2 0x3B13 JUMP JUMPDEST PUSH2 0xFFFF AND EQ PUSH2 0x1345 JUMPI DUP3 PUSH0 PUSH2 0x4B1 DUP2 LT PUSH2 0x1304 JUMPI PUSH2 0x1303 PUSH2 0x3B71 JUMP JUMPDEST JUMPDEST PUSH1 0x20 MUL ADD MLOAD PUSH1 0x40 MLOAD PUSH32 0xCA70E27000000000000000000000000000000000000000000000000000000000 DUP2 MSTORE PUSH1 0x4 ADD PUSH2 0x133C SWAP2 SWAP1 PUSH2 0x32D9 JUMP JUMPDEST PUSH1 0x40 MLOAD DUP1 SWAP2 SUB SWAP1 REVERT JUMPDEST PUSH2 0x1608 JUMP JUMPDEST PUSH2 0x4B0 DUP9 PUSH2 0xFFFF AND GT PUSH2 0x15CA JUMPI PUSH2 0xA81 PUSH0 SWAP1 SLOAD SWAP1 PUSH2 0x100 EXP SWAP1 DIV PUSH20 0xFFFFFFFFFFFFFFFFFFFFFFFFFFFFFFFFFFFFFFFF AND PUSH20 0xFFFFFFFFFFFFFFFFFFFFFFFFFFFFFFFFFFFFFFFF AND DUP2 PUSH20 0xFFFFFFFFFFFFFFFFFFFFFFFFFFFFFFFFFFFFFFFF AND EQ PUSH2 0x13E9 JUMPI DUP1 PUSH1 0x40 MLOAD PUSH32 0x2AF568F700000000000000000000000000000000000000000000000000000000 DUP2 MSTORE PUSH1 0x4 ADD PUSH2 0x13E0 SWAP2 SWAP1 PUSH2 0x351E JUMP JUMPDEST PUSH1 0x40 MLOAD DUP1 SWAP2 SUB SWAP1 REVERT JUMPDEST PUSH0 DUP9 DUP9 DUP9 DUP9 DUP9 DUP9 DUP9 DUP9 PUSH1 0x40 MLOAD PUSH1 0x24 ADD PUSH2 0x1409 SWAP9 SWAP8 SWAP7 SWAP6 SWAP5 SWAP4 SWAP3 SWAP2 SWAP1 PUSH2 0x4250 JUMP JUMPDEST PUSH1 0x40 MLOAD PUSH1 0x20 DUP2 DUP4 SUB SUB DUP2 MSTORE SWAP1 PUSH1 0x40 MSTORE PUSH32 0x4897596D00000000000000000000000000000000000000000000000000000000 PUSH28 0xFFFFFFFFFFFFFFFFFFFFFFFFFFFFFFFFFFFFFFFFFFFFFFFFFFFFFFFF NOT AND PUSH1 0x20 DUP3 ADD DUP1 MLOAD PUSH28 0xFFFFFFFFFFFFFFFFFFFFFFFFFFFFFFFFFFFFFFFFFFFFFFFFFFFFFFFF DUP4 DUP2 DUP4 AND OR DUP4 MSTORE POP POP POP POP SWAP1 POP PUSH0 DUP3 PUSH20 0xFFFFFFFFFFFFFFFFFFFFFFFFFFFFFFFFFFFFFFFF AND ADDRESS CALLVALUE DUP5 DUP8 PUSH1 0x40 MLOAD PUSH1 0x24 ADD PUSH2 0x14B7 SWAP5 SWAP4 SWAP3 SWAP2 SWAP1 PUSH2 0x42CE JUMP JUMPDEST PUSH1 0x40 MLOAD PUSH1 0x20 DUP2 DUP4 SUB SUB DUP2 MSTORE SWAP1 PUSH1 0x40 MSTORE PUSH32 0x88AA4C1200000000000000000000000000000000000000000000000000000000 PUSH28 0xFFFFFFFFFFFFFFFFFFFFFFFFFFFFFFFFFFFFFFFFFFFFFFFFFFFFFFFF NOT AND PUSH1 0x20 DUP3 ADD DUP1 MLOAD PUSH28 0xFFFFFFFFFFFFFFFFFFFFFFFFFFFFFFFFFFFFFFFFFFFFFFFFFFFFFFFF DUP4 DUP2 DUP4 AND OR DUP4 MSTORE POP POP POP POP PUSH1 0x40 MLOAD PUSH2 0x1541 SWAP2 SWAP1 PUSH2 0x3F94 JUMP JUMPDEST PUSH0 PUSH1 0x40 MLOAD DUP1 DUP4 SUB DUP2 PUSH0 DUP7 GAS CALL SWAP2 POP POP RETURNDATASIZE DUP1 PUSH0 DUP2 EQ PUSH2 0x157A JUMPI PUSH1 0x40 MLOAD SWAP2 POP PUSH1 0x1F NOT PUSH1 0x3F RETURNDATASIZE ADD AND DUP3 ADD PUSH1 0x40 MSTORE RETURNDATASIZE DUP3 MSTORE RETURNDATASIZE PUSH0 PUSH1 0x20 DUP5 ADD RETURNDATACOPY PUSH2 0x157F JUMP JUMPDEST PUSH1 0x60 SWAP2 POP JUMPDEST POP POP SWAP1 POP DUP1 PUSH2 0x15C3 JUMPI PUSH1 0x40 MLOAD PUSH32 0x8C379A000000000000000000000000000000000000000000000000000000000 DUP2 MSTORE PUSH1 0x4 ADD PUSH2 0x15BA SWAP1 PUSH2 0x4388 JUMP JUMPDEST PUSH1 0x40 MLOAD DUP1 SWAP2 SUB SWAP1 REVERT JUMPDEST POP POP PUSH2 0x1607 JUMP JUMPDEST DUP8 PUSH1 0x40 MLOAD PUSH32 0x8DD92FB000000000000000000000000000000000000000000000000000000000 DUP2 MSTORE PUSH1 0x4 ADD PUSH2 0x15FE SWAP2 SWAP1 PUSH2 0x32D9 JUMP JUMPDEST PUSH1 0x40 MLOAD DUP1 SWAP2 SUB SWAP1 REVERT JUMPDEST JUMPDEST DUP8 PUSH1 0x1 PUSH0 ADD PUSH0 PUSH2 0x100 EXP DUP2 SLOAD DUP2 PUSH2 0xFFFF MUL NOT AND SWAP1 DUP4 PUSH2 0xFFFF AND MUL OR SWAP1 SSTORE POP DUP7 PUSH1 0x1 PUSH1 0x2 ADD DUP2 SWAP1 SSTORE POP DUP6 PUSH1 0x1 PUSH0 ADD PUSH1 0x6 PUSH2 0x100 EXP DUP2 SLOAD DUP2 PUSH20 0xFFFFFFFFFFFFFFFFFFFFFFFFFFFFFFFFFFFFFFFF MUL NOT AND SWAP1 DUP4 PUSH20 0xFFFFFFFFFFFFFFFFFFFFFFFFFFFFFFFFFFFFFFFF AND MUL OR SWAP1 SSTORE POP DUP5 PUSH1 0x1 DUP1 ADD PUSH0 PUSH2 0x100 EXP DUP2 SLOAD DUP2 PUSH20 0xFFFFFFFFFFFFFFFFFFFFFFFFFFFFFFFFFFFFFFFF MUL NOT AND SWAP1 DUP4 PUSH20 0xFFFFFFFFFFFFFFFFFFFFFFFFFFFFFFFFFFFFFFFF AND MUL OR SWAP1 SSTORE POP DUP4 PUSH1 0x1 PUSH1 0x3 ADD DUP2 SWAP1 SSTORE POP DUP3 PUSH2 0xA7E PUSH0 DUP1 PUSH20 0xFFFFFFFFFFFFFFFFFFFFFFFFFFFFFFFFFFFFFFFF AND PUSH20 0xFFFFFFFFFFFFFFFFFFFFFFFFFFFFFFFFFFFFFFFF AND DUP2 MSTORE PUSH1 0x20 ADD SWAP1 DUP2 MSTORE PUSH1 0x20 ADD PUSH0 KECCAK256 SWAP1 PUSH2 0x4B1 PUSH2 0x170D SWAP3 SWAP2 SWAP1 PUSH2 0x2F65 JUMP JUMPDEST POP DUP7 DUP9 PUSH2 0xFFFF AND PUSH32 0x7F5DA92C8CF80F4A196E12BA4E13ABC4FD2645F0248AD338EBD76EBB41898281 DUP9 DUP9 DUP9 PUSH1 0x40 MLOAD PUSH2 0x1747 SWAP4 SWAP3 SWAP2 SWAP1 PUSH2 0x43A6 JUMP JUMPDEST PUSH1 0x40 MLOAD DUP1 SWAP2 SUB SWAP1 LOG3 POP POP POP POP POP POP POP POP JUMP JUMPDEST PUSH0 PUSH2 0x1763 DUP3 PUSH2 0x29A3 JUMP JUMPDEST SWAP1 POP SWAP2 SWAP1 POP JUMP JUMPDEST PUSH0 PUSH2 0x1774 DUP3 PUSH2 0x29A3 JUMP JUMPDEST POP PUSH2 0xA7F PUSH0 DUP4 PUSH2 0xFFFF AND PUSH2 0xFFFF AND DUP2 MSTORE PUSH1 0x20 ADD SWAP1 DUP2 MSTORE PUSH1 0x20 ADD PUSH0 KECCAK256 PUSH0 SWAP1 SLOAD SWAP1 PUSH2 0x100 EXP SWAP1 DIV PUSH20 0xFFFFFFFFFFFFFFFFFFFFFFFFFFFFFFFFFFFFFFFF AND SWAP1 POP SWAP2 SWAP1 POP JUMP JUMPDEST PUSH0 DUP1 PUSH1 0x14 SWAP1 SLOAD SWAP1 PUSH2 0x100 EXP SWAP1 DIV PUSH1 0xB0 SHL SWAP1 POP SWAP1 JUMP JUMPDEST DUP2 PUSH20 0xFFFFFFFFFFFFFFFFFFFFFFFFFFFFFFFFFFFFFFFF AND PUSH2 0x17EA PUSH2 0x20CB JUMP JUMPDEST PUSH20 0xFFFFFFFFFFFFFFFFFFFFFFFFFFFFFFFFFFFFFFFF AND SUB PUSH2 0x1840 JUMPI PUSH1 0x40 MLOAD PUSH32 0x8C379A000000000000000000000000000000000000000000000000000000000 DUP2 MSTORE PUSH1 0x4 ADD PUSH2 0x1837 SWAP1 PUSH2 0x444B JUMP JUMPDEST PUSH1 0x40 MLOAD DUP1 SWAP2 SUB SWAP1 REVERT JUMPDEST PUSH0 PUSH20 0xFFFFFFFFFFFFFFFFFFFFFFFFFFFFFFFFFFFFFFFF AND DUP3 PUSH20 0xFFFFFFFFFFFFFFFFFFFFFFFFFFFFFFFFFFFFFFFF AND SUB PUSH2 0x18B0 JUMPI DUP2 PUSH1 0x40 MLOAD PUSH32 0x5B08BA1800000000000000000000000000000000000000000000000000000000 DUP2 MSTORE PUSH1 0x4 ADD PUSH2 0x18A7 SWAP2 SWAP1 PUSH2 0x351E JUMP JUMPDEST PUSH1 0x40 MLOAD DUP1 SWAP2 SUB SWAP1 REVERT JUMPDEST DUP1 PUSH2 0xA80 PUSH0 PUSH2 0x18BD PUSH2 0x20CB JUMP JUMPDEST PUSH20 0xFFFFFFFFFFFFFFFFFFFFFFFFFFFFFFFFFFFFFFFF AND PUSH20 0xFFFFFFFFFFFFFFFFFFFFFFFFFFFFFFFFFFFFFFFF AND DUP2 MSTORE PUSH1 0x20 ADD SWAP1 DUP2 MSTORE PUSH1 0x20 ADD PUSH0 KECCAK256 PUSH0 DUP5 PUSH20 0xFFFFFFFFFFFFFFFFFFFFFFFFFFFFFFFFFFFFFFFF AND PUSH20 0xFFFFFFFFFFFFFFFFFFFFFFFFFFFFFFFFFFFFFFFF AND DUP2 MSTORE PUSH1 0x20 ADD SWAP1 DUP2 MSTORE PUSH1 0x20 ADD PUSH0 KECCAK256 PUSH0 PUSH2 0x100 EXP DUP2 SLOAD DUP2 PUSH1 0xFF MUL NOT AND SWAP1 DUP4 ISZERO ISZERO MUL OR SWAP1 SSTORE POP DUP2 PUSH20 0xFFFFFFFFFFFFFFFFFFFFFFFFFFFFFFFFFFFFFFFF AND PUSH2 0x1966 PUSH2 0x20CB JUMP JUMPDEST PUSH20 0xFFFFFFFFFFFFFFFFFFFFFFFFFFFFFFFFFFFFFFFF AND PUSH32 0x17307EAB39AB6107E8899845AD3D59BD9653F200F220920489CA2B5937696C31 DUP4 PUSH1 0x40 MLOAD PUSH2 0x19AB SWAP2 SWAP1 PUSH2 0x32B1 JUMP JUMPDEST PUSH1 0x40 MLOAD DUP1 SWAP2 SUB SWAP1 LOG3 POP POP JUMP JUMPDEST PUSH2 0x19C2 DUP5 DUP5 DUP5 PUSH2 0xE4E JUMP JUMPDEST PUSH2 0x19CE DUP5 DUP5 DUP5 DUP5 PUSH2 0x2B82 JUMP JUMPDEST POP POP POP POP JUMP JUMPDEST PUSH0 SWAP6 SWAP5 POP POP POP POP POP JUMP JUMPDEST PUSH1 0x60 PUSH1 0x1 PUSH0 ADD PUSH0 SWAP1 SLOAD SWAP1 PUSH2 0x100 EXP SWAP1 DIV PUSH2 0xFFFF AND PUSH2 0xFFFF AND PUSH1 0x1 PUSH0 ADD PUSH1 0x4 SWAP1 SLOAD SWAP1 PUSH2 0x100 EXP SWAP1 DIV PUSH2 0xFFFF AND PUSH2 0xFFFF AND GT ISZERO DUP1 ISZERO PUSH2 0x1A20 JUMPI POP TIMESTAMP PUSH1 0x1 PUSH1 0x2 ADD SLOAD GT ISZERO JUMPDEST PUSH2 0x1A5F JUMPI PUSH1 0x40 MLOAD PUSH32 0x8C379A000000000000000000000000000000000000000000000000000000000 DUP2 MSTORE PUSH1 0x4 ADD PUSH2 0x1A56 SWAP1 PUSH2 0x44D9 JUMP JUMPDEST PUSH1 0x40 MLOAD DUP1 SWAP2 SUB SWAP1 REVERT JUMPDEST PUSH0 PUSH20 0xFFFFFFFFFFFFFFFFFFFFFFFFFFFFFFFFFFFFFFFF AND PUSH2 0x1A7E PUSH2 0x20CB JUMP JUMPDEST PUSH20 0xFFFFFFFFFFFFFFFFFFFFFFFFFFFFFFFFFFFFFFFF AND EQ ISZERO DUP1 ISZERO PUSH2 0x1ABF JUMPI POP PUSH0 PUSH2 0x1AA6 PUSH2 0x20CB JUMP JUMPDEST PUSH20 0xFFFFFFFFFFFFFFFFFFFFFFFFFFFFFFFFFFFFFFFF AND EXTCODESIZE EQ JUMPDEST PUSH2 0x1AFE JUMPI PUSH1 0x40 MLOAD PUSH32 0x8C379A000000000000000000000000000000000000000000000000000000000 DUP2 MSTORE PUSH1 0x4 ADD PUSH2 0x1AF5 SWAP1 PUSH2 0x458D JUMP JUMPDEST PUSH1 0x40 MLOAD DUP1 SWAP2 SUB SWAP1 REVERT JUMPDEST PUSH1 0x1 PUSH1 0x3 ADD SLOAD CALLVALUE LT ISZERO PUSH2 0x1B46 JUMPI PUSH1 0x40 MLOAD PUSH32 0x8C379A000000000000000000000000000000000000000000000000000000000 DUP2 MSTORE PUSH1 0x4 ADD PUSH2 0x1B3D SWAP1 PUSH2 0x461B JUMP JUMPDEST PUSH1 0x40 MLOAD DUP1 SWAP2 SUB SWAP1 REVERT JUMPDEST PUSH0 DUP1 PUSH1 0x1 DUP1 ADD PUSH0 SWAP1 SLOAD SWAP1 PUSH2 0x100 EXP SWAP1 DIV PUSH20 0xFFFFFFFFFFFFFFFFFFFFFFFFFFFFFFFFFFFFFFFF AND PUSH20 0xFFFFFFFFFFFFFFFFFFFFFFFFFFFFFFFFFFFFFFFF AND CALLVALUE PUSH1 0x40 MLOAD PUSH2 0x1B8F SWAP1 PUSH2 0x465C JUMP JUMPDEST PUSH0 PUSH1 0x40 MLOAD DUP1 DUP4 SUB DUP2 DUP6 DUP8 GAS CALL SWAP3 POP POP POP RETURNDATASIZE DUP1 PUSH0 DUP2 EQ PUSH2 0x1BC9 JUMPI PUSH1 0x40 MLOAD SWAP2 POP PUSH1 0x1F NOT PUSH1 0x3F RETURNDATASIZE ADD AND DUP3 ADD PUSH1 0x40 MSTORE RETURNDATASIZE DUP3 MSTORE RETURNDATASIZE PUSH0 PUSH1 0x20 DUP5 ADD RETURNDATACOPY PUSH2 0x1BCE JUMP JUMPDEST PUSH1 0x60 SWAP2 POP JUMPDEST POP SWAP2 POP SWAP2 POP DUP2 PUSH2 0x1C13 JUMPI PUSH1 0x40 MLOAD PUSH32 0x8C379A000000000000000000000000000000000000000000000000000000000 DUP2 MSTORE PUSH1 0x4 ADD PUSH2 0x1C0A SWAP1 PUSH2 0x46BA JUMP JUMPDEST PUSH1 0x40 MLOAD DUP1 SWAP2 SUB SWAP1 REVERT JUMPDEST PUSH1 0x1 PUSH0 ADD PUSH1 0x4 DUP2 DUP2 SWAP1 SLOAD SWAP1 PUSH2 0x100 EXP SWAP1 DIV PUSH2 0xFFFF AND PUSH2 0x1C31 SWAP1 PUSH2 0x3B48 JUMP JUMPDEST SWAP2 SWAP1 PUSH2 0x100 EXP DUP2 SLOAD DUP2 PUSH2 0xFFFF MUL NOT AND SWAP1 DUP4 PUSH2 0xFFFF AND MUL OR SWAP1 SSTORE POP DUP4 PUSH1 0x1 PUSH1 0x4 ADD PUSH1 0x1 PUSH0 ADD PUSH1 0x4 SWAP1 SLOAD SWAP1 PUSH2 0x100 EXP SWAP1 DIV PUSH2 0xFFFF AND PUSH2 0xFFFF AND PUSH2 0x4B1 DUP2 LT PUSH2 0x1C7A JUMPI PUSH2 0x1C79 PUSH2 0x3B71 JUMP JUMPDEST JUMPDEST PUSH1 0x5 SWAP2 DUP3 DUP3 DIV ADD SWAP2 SWAP1 MOD PUSH1 0x6 MUL PUSH2 0x100 EXP DUP2 SLOAD DUP2 PUSH6 0xFFFFFFFFFFFF MUL NOT AND SWAP1 DUP4 PUSH6 0xFFFFFFFFFFFF AND MUL OR SWAP1 SSTORE POP DUP4 PUSH1 0x1 PUSH1 0x4 ADD PUSH0 PUSH2 0x4B1 DUP2 LT PUSH2 0x1CC0 JUMPI PUSH2 0x1CBF PUSH2 0x3B71 JUMP JUMPDEST JUMPDEST PUSH1 0x5 SWAP2 DUP3 DUP3 DIV ADD SWAP2 SWAP1 MOD PUSH1 0x6 MUL DUP3 DUP3 DUP3 SWAP1 SLOAD SWAP1 PUSH2 0x100 EXP SWAP1 DIV PUSH6 0xFFFFFFFFFFFF AND PUSH2 0x1CEB SWAP2 SWAP1 PUSH2 0x3C2E JUMP JUMPDEST SWAP3 POP PUSH2 0x100 EXP DUP2 SLOAD DUP2 PUSH6 0xFFFFFFFFFFFF MUL NOT AND SWAP1 DUP4 PUSH6 0xFFFFFFFFFFFF AND MUL OR SWAP1 SSTORE POP PUSH2 0x1D15 PUSH2 0x20CB JUMP JUMPDEST PUSH1 0x1 PUSH1 0xF5 ADD PUSH1 0x1 PUSH0 ADD PUSH1 0x4 SWAP1 SLOAD SWAP1 PUSH2 0x100 EXP SWAP1 DIV PUSH2 0xFFFF AND PUSH2 0xFFFF AND PUSH2 0x4B1 DUP2 LT PUSH2 0x1D43 JUMPI PUSH2 0x1D42 PUSH2 0x3B71 JUMP JUMPDEST JUMPDEST ADD PUSH0 PUSH2 0x100 EXP DUP2 SLOAD DUP2 PUSH20 0xFFFFFFFFFFFFFFFFFFFFFFFFFFFFFFFFFFFFFFFF MUL NOT AND SWAP1 DUP4 PUSH20 0xFFFFFFFFFFFFFFFFFFFFFFFFFFFFFFFFFFFFFFFF AND MUL OR SWAP1 SSTORE POP DUP1 SWAP3 POP POP POP SWAP2 SWAP1 POP JUMP JUMPDEST PUSH1 0x60 PUSH2 0x1D96 DUP3 PUSH2 0x29A3 JUMP JUMPDEST POP PUSH0 PUSH2 0x1DA0 PUSH2 0x2D34 JUMP JUMPDEST SWAP1 POP PUSH0 DUP2 MLOAD GT PUSH2 0x1DBE JUMPI PUSH1 0x40 MLOAD DUP1 PUSH1 0x20 ADD PUSH1 0x40 MSTORE DUP1 PUSH0 DUP2 MSTORE POP PUSH2 0x1DED JUMP JUMPDEST DUP1 PUSH2 0x1DCC DUP5 PUSH2 0xFFFF AND PUSH2 0x2D4A JUMP JUMPDEST PUSH1 0x40 MLOAD PUSH1 0x20 ADD PUSH2 0x1DDD SWAP3 SWAP2 SWAP1 PUSH2 0x4708 JUMP JUMPDEST PUSH1 0x40 MLOAD PUSH1 0x20 DUP2 DUP4 SUB SUB DUP2 MSTORE SWAP1 PUSH1 0x40 MSTORE JUMPDEST SWAP2 POP POP SWAP2 SWAP1 POP JUMP JUMPDEST PUSH0 PUSH2 0x1DFF DUP3 PUSH2 0x29A3 JUMP JUMPDEST SWAP1 POP DUP3 PUSH20 0xFFFFFFFFFFFFFFFFFFFFFFFFFFFFFFFFFFFFFFFF AND DUP2 PUSH20 0xFFFFFFFFFFFFFFFFFFFFFFFFFFFFFFFFFFFFFFFF AND SUB PUSH2 0x1E6F JUMPI PUSH1 0x40 MLOAD PUSH32 0x8C379A000000000000000000000000000000000000000000000000000000000 DUP2 MSTORE PUSH1 0x4 ADD PUSH2 0x1E66 SWAP1 PUSH2 0x444B JUMP JUMPDEST PUSH1 0x40 MLOAD DUP1 SWAP2 SUB SWAP1 REVERT JUMPDEST PUSH2 0x1E77 PUSH2 0x20CB JUMP JUMPDEST PUSH20 0xFFFFFFFFFFFFFFFFFFFFFFFFFFFFFFFFFFFFFFFF AND DUP2 PUSH20 0xFFFFFFFFFFFFFFFFFFFFFFFFFFFFFFFFFFFFFFFF AND EQ ISZERO DUP1 ISZERO PUSH2 0x1EC0 JUMPI POP PUSH2 0x1EBE DUP2 PUSH2 0x1EB9 PUSH2 0x20CB JUMP JUMPDEST PUSH2 0x1F19 JUMP JUMPDEST ISZERO JUMPDEST ISZERO PUSH2 0x1F09 JUMPI PUSH2 0x1ECD PUSH2 0x20CB JUMP JUMPDEST PUSH1 0x40 MLOAD PUSH32 0xA9FBF51F00000000000000000000000000000000000000000000000000000000 DUP2 MSTORE PUSH1 0x4 ADD PUSH2 0x1F00 SWAP2 SWAP1 PUSH2 0x351E JUMP JUMPDEST PUSH1 0x40 MLOAD DUP1 SWAP2 SUB SWAP1 REVERT JUMPDEST PUSH2 0x1F14 DUP4 DUP4 DUP4 PUSH2 0x2AC6 JUMP JUMPDEST POP POP POP JUMP JUMPDEST PUSH0 PUSH2 0xA80 PUSH0 DUP5 PUSH20 0xFFFFFFFFFFFFFFFFFFFFFFFFFFFFFFFFFFFFFFFF AND PUSH20 0xFFFFFFFFFFFFFFFFFFFFFFFFFFFFFFFFFFFFFFFF AND DUP2 MSTORE PUSH1 0x20 ADD SWAP1 DUP2 MSTORE PUSH1 0x20 ADD PUSH0 KECCAK256 PUSH0 DUP4 PUSH20 0xFFFFFFFFFFFFFFFFFFFFFFFFFFFFFFFFFFFFFFFF AND PUSH20 0xFFFFFFFFFFFFFFFFFFFFFFFFFFFFFFFFFFFFFFFF AND DUP2 MSTORE PUSH1 0x20 ADD SWAP1 DUP2 MSTORE PUSH1 0x20 ADD PUSH0 KECCAK256 PUSH0 SWAP1 SLOAD SWAP1 PUSH2 0x100 EXP SWAP1 DIV PUSH1 0xFF AND SWAP1 POP SWAP3 SWAP2 POP POP JUMP JUMPDEST PUSH0 PUSH2 0x1FB2 DUP4 PUSH2 0x29A3 JUMP JUMPDEST SWAP1 POP DUP1 PUSH20 0xFFFFFFFFFFFFFFFFFFFFFFFFFFFFFFFFFFFFFFFF AND PUSH2 0x1FD3 PUSH2 0x20CB JUMP JUMPDEST PUSH20 0xFFFFFFFFFFFFFFFFFFFFFFFFFFFFFFFFFFFFFFFF AND SUB PUSH2 0x202D JUMPI DUP2 PUSH2 0xA58 DUP5 PUSH2 0xFFFF AND PUSH2 0x4B1 DUP2 LT PUSH2 0x2009 JUMPI PUSH2 0x2008 PUSH2 0x3B71 JUMP JUMPDEST JUMPDEST PUSH1 0x20 SWAP2 DUP3 DUP3 DIV ADD SWAP2 SWAP1 MOD PUSH2 0x100 EXP DUP2 SLOAD DUP2 PUSH1 0xFF MUL NOT AND SWAP1 DUP4 ISZERO ISZERO MUL OR SWAP1 SSTORE POP PUSH2 0x20C6 JUMP JUMPDEST PUSH2 0x203D PUSH2 0x2038 PUSH2 0x20CB JUMP JUMPDEST PUSH2 0xE48 JUMP JUMPDEST ISZERO PUSH2 0x2081 JUMPI DUP2 PUSH2 0xA58 DUP5 PUSH2 0xFFFF AND PUSH2 0x4B1 DUP2 LT PUSH2 0x205D JUMPI PUSH2 0x205C PUSH2 0x3B71 JUMP JUMPDEST JUMPDEST PUSH1 0x20 SWAP2 DUP3 DUP3 DIV ADD SWAP2 SWAP1 MOD PUSH2 0x100 EXP DUP2 SLOAD DUP2 PUSH1 0xFF MUL NOT AND SWAP1 DUP4 ISZERO ISZERO MUL OR SWAP1 SSTORE POP PUSH2 0x20C5 JUMP JUMPDEST PUSH2 0x2089 PUSH2 0x20CB JUMP JUMPDEST PUSH1 0x40 MLOAD PUSH32 0xF7A3F9F300000000000000000000000000000000000000000000000000000000 DUP2 MSTORE PUSH1 0x4 ADD PUSH2 0x20BC SWAP2 SWAP1 PUSH2 0x351E JUMP JUMPDEST PUSH1 0x40 MLOAD DUP1 SWAP2 SUB SWAP1 REVERT JUMPDEST JUMPDEST POP POP POP JUMP JUMPDEST PUSH0 CALLER SWAP1 POP SWAP1 JUMP JUMPDEST PUSH0 PUSH2 0xA7E PUSH0 DUP4 PUSH20 0xFFFFFFFFFFFFFFFFFFFFFFFFFFFFFFFFFFFFFFFF AND PUSH20 0xFFFFFFFFFFFFFFFFFFFFFFFFFFFFFFFFFFFFFFFF AND DUP2 MSTORE PUSH1 0x20 ADD SWAP1 DUP2 MSTORE PUSH1 0x20 ADD PUSH0 KECCAK256 PUSH0 PUSH2 0x4B1 DUP2 LT PUSH2 0x2124 JUMPI PUSH2 0x2123 PUSH2 0x3B71 JUMP JUMPDEST JUMPDEST PUSH1 0x10 SWAP2 DUP3 DUP3 DIV ADD SWAP2 SWAP1 MOD PUSH1 0x2 MUL SWAP1 SLOAD SWAP1 PUSH2 0x100 EXP SWAP1 DIV PUSH2 0xFFFF AND SWAP1 POP PUSH0 PUSH20 0xFFFFFFFFFFFFFFFFFFFFFFFFFFFFFFFFFFFFFFFF AND DUP3 PUSH20 0xFFFFFFFFFFFFFFFFFFFFFFFFFFFFFFFFFFFFFFFF AND EQ PUSH2 0x230C JUMPI PUSH0 PUSH1 0x1 SWAP1 POP JUMPDEST DUP2 PUSH2 0xFFFF AND DUP2 PUSH2 0xFFFF AND GT PUSH2 0x2306 JUMPI DUP4 PUSH2 0xFFFF AND PUSH2 0xA7E PUSH0 DUP6 PUSH20 0xFFFFFFFFFFFFFFFFFFFFFFFFFFFFFFFFFFFFFFFF AND PUSH20 0xFFFFFFFFFFFFFFFFFFFFFFFFFFFFFFFFFFFFFFFF AND DUP2 MSTORE PUSH1 0x20 ADD SWAP1 DUP2 MSTORE PUSH1 0x20 ADD PUSH0 KECCAK256 DUP3 PUSH2 0xFFFF AND PUSH2 0x4B1 DUP2 LT PUSH2 0x21E2 JUMPI PUSH2 0x21E1 PUSH2 0x3B71 JUMP JUMPDEST JUMPDEST PUSH1 0x10 SWAP2 DUP3 DUP3 DIV ADD SWAP2 SWAP1 MOD PUSH1 0x2 MUL SWAP1 SLOAD SWAP1 PUSH2 0x100 EXP SWAP1 DIV PUSH2 0xFFFF AND PUSH2 0xFFFF AND SUB PUSH2 0x22F3 JUMPI PUSH2 0xA7E PUSH0 DUP5 PUSH20 0xFFFFFFFFFFFFFFFFFFFFFFFFFFFFFFFFFFFFFFFF AND PUSH20 0xFFFFFFFFFFFFFFFFFFFFFFFFFFFFFFFFFFFFFFFF AND DUP2 MSTORE PUSH1 0x20 ADD SWAP1 DUP2 MSTORE PUSH1 0x20 ADD PUSH0 KECCAK256 DUP3 PUSH2 0xFFFF AND PUSH2 0x4B1 DUP2 LT PUSH2 0x225A JUMPI PUSH2 0x2259 PUSH2 0x3B71 JUMP JUMPDEST JUMPDEST PUSH1 0x10 SWAP2 DUP3 DUP3 DIV ADD SWAP2 SWAP1 MOD PUSH1 0x2 MUL SWAP1 SLOAD SWAP1 PUSH2 0x100 EXP SWAP1 DIV PUSH2 0xFFFF AND PUSH2 0xA7E PUSH0 DUP6 PUSH20 0xFFFFFFFFFFFFFFFFFFFFFFFFFFFFFFFFFFFFFFFF AND PUSH20 0xFFFFFFFFFFFFFFFFFFFFFFFFFFFFFFFFFFFFFFFF AND DUP2 MSTORE PUSH1 0x20 ADD SWAP1 DUP2 MSTORE PUSH1 0x20 ADD PUSH0 KECCAK256 DUP3 PUSH2 0xFFFF AND PUSH2 0x4B1 DUP2 LT PUSH2 0x22C9 JUMPI PUSH2 0x22C8 PUSH2 0x3B71 JUMP JUMPDEST JUMPDEST PUSH1 0x10 SWAP2 DUP3 DUP3 DIV ADD SWAP2 SWAP1 MOD PUSH1 0x2 MUL PUSH2 0x100 EXP DUP2 SLOAD DUP2 PUSH2 0xFFFF MUL NOT AND SWAP1 DUP4 PUSH2 0xFFFF AND MUL OR SWAP1 SSTORE POP PUSH2 0x2306 JUMP JUMPDEST DUP1 DUP1 PUSH2 0x22FE SWAP1 PUSH2 0x3B48 JUMP JUMPDEST SWAP2 POP POP PUSH2 0x2179 JUMP JUMPDEST POP PUSH2 0x2516 JUMP JUMPDEST PUSH0 DUP4 SWAP1 POP PUSH2 0xA7E PUSH0 DUP5 PUSH20 0xFFFFFFFFFFFFFFFFFFFFFFFFFFFFFFFFFFFFFFFF AND PUSH20 0xFFFFFFFFFFFFFFFFFFFFFFFFFFFFFFFFFFFFFFFF AND DUP2 MSTORE PUSH1 0x20 ADD SWAP1 DUP2 MSTORE PUSH1 0x20 ADD PUSH0 KECCAK256 DUP2 PUSH2 0xFFFF AND PUSH2 0x4B1 DUP2 LT PUSH2 0x2365 JUMPI PUSH2 0x2364 PUSH2 0x3B71 JUMP JUMPDEST JUMPDEST PUSH1 0x10 SWAP2 DUP3 DUP3 DIV ADD SWAP2 SWAP1 MOD PUSH1 0x2 MUL SWAP1 SLOAD SWAP1 PUSH2 0x100 EXP SWAP1 DIV PUSH2 0xFFFF AND SWAP4 POP PUSH0 PUSH20 0xFFFFFFFFFFFFFFFFFFFFFFFFFFFFFFFFFFFFFFFF AND PUSH2 0x5A7 DUP6 PUSH2 0xFFFF AND PUSH2 0x4B1 DUP2 LT PUSH2 0x23B2 JUMPI PUSH2 0x23B1 PUSH2 0x3B71 JUMP JUMPDEST JUMPDEST ADD PUSH0 SWAP1 SLOAD SWAP1 PUSH2 0x100 EXP SWAP1 DIV PUSH20 0xFFFFFFFFFFFFFFFFFFFFFFFFFFFFFFFFFFFFFFFF AND PUSH20 0xFFFFFFFFFFFFFFFFFFFFFFFFFFFFFFFFFFFFFFFF AND EQ PUSH2 0x242B JUMPI DUP1 PUSH1 0x40 MLOAD PUSH32 0x71E52B9C00000000000000000000000000000000000000000000000000000000 DUP2 MSTORE PUSH1 0x4 ADD PUSH2 0x2422 SWAP2 SWAP1 PUSH2 0x32D9 JUMP JUMPDEST PUSH1 0x40 MLOAD DUP1 SWAP2 SUB SWAP1 REVERT JUMPDEST PUSH2 0xA7E PUSH0 DUP5 PUSH20 0xFFFFFFFFFFFFFFFFFFFFFFFFFFFFFFFFFFFFFFFF AND PUSH20 0xFFFFFFFFFFFFFFFFFFFFFFFFFFFFFFFFFFFFFFFF AND DUP2 MSTORE PUSH1 0x20 ADD SWAP1 DUP2 MSTORE PUSH1 0x20 ADD PUSH0 KECCAK256 DUP3 PUSH2 0xFFFF AND PUSH2 0x4B1 DUP2 LT PUSH2 0x2480 JUMPI PUSH2 0x247F PUSH2 0x3B71 JUMP JUMPDEST JUMPDEST PUSH1 0x10 SWAP2 DUP3 DUP3 DIV ADD SWAP2 SWAP1 MOD PUSH1 0x2 MUL SWAP1 SLOAD SWAP1 PUSH2 0x100 EXP SWAP1 DIV PUSH2 0xFFFF AND PUSH2 0xA7E PUSH0 DUP6 PUSH20 0xFFFFFFFFFFFFFFFFFFFFFFFFFFFFFFFFFFFFFFFF AND PUSH20 0xFFFFFFFFFFFFFFFFFFFFFFFFFFFFFFFFFFFFFFFF AND DUP2 MSTORE PUSH1 0x20 ADD SWAP1 DUP2 MSTORE PUSH1 0x20 ADD PUSH0 KECCAK256 DUP3 PUSH2 0xFFFF AND PUSH2 0x4B1 DUP2 LT PUSH2 0x24EF JUMPI PUSH2 0x24EE PUSH2 0x3B71 JUMP JUMPDEST JUMPDEST PUSH1 0x10 SWAP2 DUP3 DUP3 DIV ADD SWAP2 SWAP1 MOD PUSH1 0x2 MUL PUSH2 0x100 EXP DUP2 SLOAD DUP2 PUSH2 0xFFFF MUL NOT AND SWAP1 DUP4 PUSH2 0xFFFF AND MUL OR SWAP1 SSTORE POP POP JUMPDEST PUSH0 PUSH2 0xA7E PUSH0 DUP5 PUSH20 0xFFFFFFFFFFFFFFFFFFFFFFFFFFFFFFFFFFFFFFFF AND PUSH20 0xFFFFFFFFFFFFFFFFFFFFFFFFFFFFFFFFFFFFFFFF AND DUP2 MSTORE PUSH1 0x20 ADD SWAP1 DUP2 MSTORE PUSH1 0x20 ADD PUSH0 KECCAK256 DUP3 PUSH2 0xFFFF AND PUSH2 0x4B1 DUP2 LT PUSH2 0x256C JUMPI PUSH2 0x256B PUSH2 0x3B71 JUMP JUMPDEST JUMPDEST PUSH1 0x10 SWAP2 DUP3 DUP3 DIV ADD SWAP2 SWAP1 MOD PUSH1 0x2 MUL PUSH2 0x100 EXP DUP2 SLOAD DUP2 PUSH2 0xFFFF MUL NOT AND SWAP1 DUP4 PUSH2 0xFFFF AND MUL OR SWAP1 SSTORE POP PUSH1 0x1 PUSH2 0xA7E PUSH0 DUP5 PUSH20 0xFFFFFFFFFFFFFFFFFFFFFFFFFFFFFFFFFFFFFFFF AND PUSH20 0xFFFFFFFFFFFFFFFFFFFFFFFFFFFFFFFFFFFFFFFF AND DUP2 MSTORE PUSH1 0x20 ADD SWAP1 DUP2 MSTORE PUSH1 0x20 ADD PUSH0 KECCAK256 PUSH0 PUSH2 0x4B1 DUP2 LT PUSH2 0x25E4 JUMPI PUSH2 0x25E3 PUSH2 0x3B71 JUMP JUMPDEST JUMPDEST PUSH1 0x10 SWAP2 DUP3 DUP3 DIV ADD SWAP2 SWAP1 MOD PUSH1 0x2 MUL DUP3 DUP3 DUP3 SWAP1 SLOAD SWAP1 PUSH2 0x100 EXP SWAP1 DIV PUSH2 0xFFFF AND PUSH2 0x260B SWAP2 SWAP1 PUSH2 0x3B13 JUMP JUMPDEST SWAP3 POP PUSH2 0x100 EXP DUP2 SLOAD DUP2 PUSH2 0xFFFF MUL NOT AND SWAP1 DUP4 PUSH2 0xFFFF AND MUL OR SWAP1 SSTORE POP PUSH0 PUSH1 0x1 PUSH2 0xA7E PUSH0 DUP8 PUSH20 0xFFFFFFFFFFFFFFFFFFFFFFFFFFFFFFFFFFFFFFFF AND PUSH20 0xFFFFFFFFFFFFFFFFFFFFFFFFFFFFFFFFFFFFFFFF AND DUP2 MSTORE PUSH1 0x20 ADD SWAP1 DUP2 MSTORE PUSH1 0x20 ADD PUSH0 KECCAK256 PUSH0 PUSH2 0x4B1 DUP2 LT PUSH2 0x2679 JUMPI PUSH2 0x2678 PUSH2 0x3B71 JUMP JUMPDEST JUMPDEST PUSH1 0x10 SWAP2 DUP3 DUP3 DIV ADD SWAP2 SWAP1 MOD PUSH1 0x2 MUL SWAP1 SLOAD SWAP1 PUSH2 0x100 EXP SWAP1 DIV PUSH2 0xFFFF AND PUSH2 0x269D SWAP2 SWAP1 PUSH2 0x3C67 JUMP JUMPDEST SWAP1 POP DUP4 PUSH2 0xA7E PUSH0 DUP8 PUSH20 0xFFFFFFFFFFFFFFFFFFFFFFFFFFFFFFFFFFFFFFFF AND PUSH20 0xFFFFFFFFFFFFFFFFFFFFFFFFFFFFFFFFFFFFFFFF AND DUP2 MSTORE PUSH1 0x20 ADD SWAP1 DUP2 MSTORE PUSH1 0x20 ADD PUSH0 KECCAK256 DUP3 PUSH2 0xFFFF AND PUSH2 0x4B1 DUP2 LT PUSH2 0x26F5 JUMPI PUSH2 0x26F4 PUSH2 0x3B71 JUMP JUMPDEST JUMPDEST PUSH1 0x10 SWAP2 DUP3 DUP3 DIV ADD SWAP2 SWAP1 MOD PUSH1 0x2 MUL PUSH2 0x100 EXP DUP2 SLOAD DUP2 PUSH2 0xFFFF MUL NOT AND SWAP1 DUP4 PUSH2 0xFFFF AND MUL OR SWAP1 SSTORE POP DUP1 PUSH2 0xA7E PUSH0 DUP8 PUSH20 0xFFFFFFFFFFFFFFFFFFFFFFFFFFFFFFFFFFFFFFFF AND PUSH20 0xFFFFFFFFFFFFFFFFFFFFFFFFFFFFFFFFFFFFFFFF AND DUP2 MSTORE PUSH1 0x20 ADD SWAP1 DUP2 MSTORE PUSH1 0x20 ADD PUSH0 KECCAK256 PUSH0 PUSH2 0x4B1 DUP2 LT PUSH2 0x276C JUMPI PUSH2 0x276B PUSH2 0x3B71 JUMP JUMPDEST JUMPDEST PUSH1 0x10 SWAP2 DUP3 DUP3 DIV ADD SWAP2 SWAP1 MOD PUSH1 0x2 MUL PUSH2 0x100 EXP DUP2 SLOAD DUP2 PUSH2 0xFFFF MUL NOT AND SWAP1 DUP4 PUSH2 0xFFFF AND MUL OR SWAP1 SSTORE POP DUP5 PUSH2 0x5A7 DUP6 PUSH2 0xFFFF AND PUSH2 0x4B1 DUP2 LT PUSH2 0x27AC JUMPI PUSH2 0x27AB PUSH2 0x3B71 JUMP JUMPDEST JUMPDEST ADD PUSH0 PUSH2 0x100 EXP DUP2 SLOAD DUP2 PUSH20 0xFFFFFFFFFFFFFFFFFFFFFFFFFFFFFFFFFFFFFFFF MUL NOT AND SWAP1 DUP4 PUSH20 0xFFFFFFFFFFFFFFFFFFFFFFFFFFFFFFFFFFFFFFFF AND MUL OR SWAP1 SSTORE POP PUSH0 PUSH2 0xA82 PUSH0 SWAP1 SLOAD SWAP1 PUSH2 0x100 EXP SWAP1 DIV PUSH20 0xFFFFFFFFFFFFFFFFFFFFFFFFFFFFFFFFFFFFFFFF AND PUSH20 0xFFFFFFFFFFFFFFFFFFFFFFFFFFFFFFFFFFFFFFFF AND TIMESTAMP DUP7 PUSH1 0x40 MLOAD PUSH1 0x24 ADD PUSH2 0x2837 SWAP3 SWAP2 SWAP1 PUSH2 0x4775 JUMP JUMPDEST PUSH1 0x40 MLOAD PUSH1 0x20 DUP2 DUP4 SUB SUB DUP2 MSTORE SWAP1 PUSH1 0x40 MSTORE PUSH32 0x990492F500000000000000000000000000000000000000000000000000000000 PUSH28 0xFFFFFFFFFFFFFFFFFFFFFFFFFFFFFFFFFFFFFFFFFFFFFFFFFFFFFFFF NOT AND PUSH1 0x20 DUP3 ADD DUP1 MLOAD PUSH28 0xFFFFFFFFFFFFFFFFFFFFFFFFFFFFFFFFFFFFFFFFFFFFFFFFFFFFFFFF DUP4 DUP2 DUP4 AND OR DUP4 MSTORE POP POP POP POP PUSH1 0x40 MLOAD PUSH2 0x28C1 SWAP2 SWAP1 PUSH2 0x3F94 JUMP JUMPDEST PUSH0 PUSH1 0x40 MLOAD DUP1 DUP4 SUB DUP2 PUSH0 DUP7 GAS CALL SWAP2 POP POP RETURNDATASIZE DUP1 PUSH0 DUP2 EQ PUSH2 0x28FA JUMPI PUSH1 0x40 MLOAD SWAP2 POP PUSH1 0x1F NOT PUSH1 0x3F RETURNDATASIZE ADD AND DUP3 ADD PUSH1 0x40 MSTORE RETURNDATASIZE DUP3 MSTORE RETURNDATASIZE PUSH0 PUSH1 0x20 DUP5 ADD RETURNDATACOPY PUSH2 0x28FF JUMP JUMPDEST PUSH1 0x60 SWAP2 POP JUMPDEST POP POP SWAP1 POP DUP1 ISZERO PUSH2 0x293C JUMPI TIMESTAMP DUP6 PUSH2 0xFFFF AND PUSH32 0xEE86A467F20D83FA45097D80378CD63C924484E76275C2B01B959086B3F9B73 PUSH1 0x40 MLOAD PUSH1 0x40 MLOAD DUP1 SWAP2 SUB SWAP1 LOG3 JUMPDEST DUP5 PUSH2 0xFFFF AND DUP7 PUSH20 0xFFFFFFFFFFFFFFFFFFFFFFFFFFFFFFFFFFFFFFFF AND DUP6 PUSH20 0xFFFFFFFFFFFFFFFFFFFFFFFFFFFFFFFFFFFFFFFF AND PUSH32 0x89896EDBD223C9360CE42DDFED7522A2BFFB20C056E4C42D42370CB493B65676 PUSH1 0x40 MLOAD PUSH1 0x40 MLOAD DUP1 SWAP2 SUB SWAP1 LOG4 POP POP POP POP POP POP JUMP JUMPDEST PUSH0 DUP2 PUSH2 0xFFFF AND PUSH0 LT DUP1 ISZERO PUSH2 0x29D0 JUMPI POP PUSH1 0x1 PUSH0 ADD PUSH0 SWAP1 SLOAD SWAP1 PUSH2 0x100 EXP SWAP1 DIV PUSH2 0xFFFF AND PUSH2 0xFFFF AND DUP3 PUSH2 0xFFFF AND GT ISZERO JUMPDEST PUSH2 0x2A0F JUMPI PUSH1 0x40 MLOAD PUSH32 0x8C379A000000000000000000000000000000000000000000000000000000000 DUP2 MSTORE PUSH1 0x4 ADD PUSH2 0x2A06 SWAP1 PUSH2 0x4845 JUMP JUMPDEST PUSH1 0x40 MLOAD DUP1 SWAP2 SUB SWAP1 REVERT JUMPDEST PUSH0 PUSH2 0x5A7 DUP4 PUSH2 0xFFFF AND PUSH2 0x4B1 DUP2 LT PUSH2 0x2A2A JUMPI PUSH2 0x2A29 PUSH2 0x3B71 JUMP JUMPDEST JUMPDEST ADD PUSH0 SWAP1 SLOAD SWAP1 PUSH2 0x100 EXP SWAP1 DIV PUSH20 0xFFFFFFFFFFFFFFFFFFFFFFFFFFFFFFFFFFFFFFFF AND SWAP1 POP PUSH0 PUSH20 0xFFFFFFFFFFFFFFFFFFFFFFFFFFFFFFFFFFFFFFFF AND DUP2 PUSH20 0xFFFFFFFFFFFFFFFFFFFFFFFFFFFFFFFFFFFFFFFF AND SUB PUSH2 0x2ABD JUMPI DUP3 PUSH1 0x40 MLOAD PUSH32 0x7E27328900000000000000000000000000000000000000000000000000000000 DUP2 MSTORE PUSH1 0x4 ADD PUSH2 0x2AB4 SWAP2 SWAP1 PUSH2 0x4863 JUMP JUMPDEST PUSH1 0x40 MLOAD DUP1 SWAP2 SUB SWAP1 REVERT JUMPDEST DUP1 SWAP2 POP POP SWAP2 SWAP1 POP JUMP JUMPDEST DUP3 PUSH2 0xA7F PUSH0 DUP5 PUSH2 0xFFFF AND PUSH2 0xFFFF AND DUP2 MSTORE PUSH1 0x20 ADD SWAP1 DUP2 MSTORE PUSH1 0x20 ADD PUSH0 KECCAK256 PUSH0 PUSH2 0x100 EXP DUP2 SLOAD DUP2 PUSH20 0xFFFFFFFFFFFFFFFFFFFFFFFFFFFFFFFFFFFFFFFF MUL NOT AND SWAP1 DUP4 PUSH20 0xFFFFFFFFFFFFFFFFFFFFFFFFFFFFFFFFFFFFFFFF AND MUL OR SWAP1 SSTORE POP DUP2 PUSH2 0xFFFF AND DUP4 PUSH20 0xFFFFFFFFFFFFFFFFFFFFFFFFFFFFFFFFFFFFFFFF AND DUP3 PUSH20 0xFFFFFFFFFFFFFFFFFFFFFFFFFFFFFFFFFFFFFFFF AND PUSH32 0xA9D294FD4BD42BB30E96CBA2B478D149A783FBA3C729B1E5C42BEC89D95B85A PUSH1 0x40 MLOAD PUSH1 0x40 MLOAD DUP1 SWAP2 SUB SWAP1 LOG4 POP POP POP JUMP JUMPDEST PUSH0 DUP4 PUSH20 0xFFFFFFFFFFFFFFFFFFFFFFFFFFFFFFFFFFFFFFFF AND EXTCODESIZE GT ISZERO PUSH2 0x2D2E JUMPI DUP3 PUSH20 0xFFFFFFFFFFFFFFFFFFFFFFFFFFFFFFFFFFFFFFFF AND PUSH4 0xB1CFF380 PUSH2 0x2BC5 PUSH2 0x20CB JUMP JUMPDEST DUP7 DUP6 DUP6 PUSH1 0x40 MLOAD DUP6 PUSH4 0xFFFFFFFF AND PUSH1 0xE0 SHL DUP2 MSTORE PUSH1 0x4 ADD PUSH2 0x2BE7 SWAP5 SWAP4 SWAP3 SWAP2 SWAP1 PUSH2 0x487C JUMP JUMPDEST PUSH1 0x20 PUSH1 0x40 MLOAD DUP1 DUP4 SUB DUP2 PUSH0 DUP8 GAS CALL SWAP3 POP POP POP DUP1 ISZERO PUSH2 0x2C22 JUMPI POP PUSH1 0x40 MLOAD RETURNDATASIZE PUSH1 0x1F NOT PUSH1 0x1F DUP3 ADD AND DUP3 ADD DUP1 PUSH1 0x40 MSTORE POP DUP2 ADD SWAP1 PUSH2 0x2C1F SWAP2 SWAP1 PUSH2 0x48F0 JUMP JUMPDEST PUSH1 0x1 JUMPDEST PUSH2 0x2CA3 JUMPI RETURNDATASIZE DUP1 PUSH0 DUP2 EQ PUSH2 0x2C50 JUMPI PUSH1 0x40 MLOAD SWAP2 POP PUSH1 0x1F NOT PUSH1 0x3F RETURNDATASIZE ADD AND DUP3 ADD PUSH1 0x40 MSTORE RETURNDATASIZE DUP3 MSTORE RETURNDATASIZE PUSH0 PUSH1 0x20 DUP5 ADD RETURNDATACOPY PUSH2 0x2C55 JUMP JUMPDEST PUSH1 0x60 SWAP2 POP JUMPDEST POP PUSH0 DUP2 MLOAD SUB PUSH2 0x2C9B JUMPI DUP4 PUSH1 0x40 MLOAD PUSH32 0x64A0AE9200000000000000000000000000000000000000000000000000000000 DUP2 MSTORE PUSH1 0x4 ADD PUSH2 0x2C92 SWAP2 SWAP1 PUSH2 0x351E JUMP JUMPDEST PUSH1 0x40 MLOAD DUP1 SWAP2 SUB SWAP1 REVERT JUMPDEST DUP1 MLOAD DUP2 PUSH1 0x20 ADD REVERT JUMPDEST PUSH4 0xB1CFF380 PUSH1 0xE0 SHL PUSH28 0xFFFFFFFFFFFFFFFFFFFFFFFFFFFFFFFFFFFFFFFFFFFFFFFFFFFFFFFF NOT AND DUP2 PUSH28 0xFFFFFFFFFFFFFFFFFFFFFFFFFFFFFFFFFFFFFFFFFFFFFFFFFFFFFFFF NOT AND EQ PUSH2 0x2D2C JUMPI DUP4 PUSH1 0x40 MLOAD PUSH32 0x64A0AE9200000000000000000000000000000000000000000000000000000000 DUP2 MSTORE PUSH1 0x4 ADD PUSH2 0x2D23 SWAP2 SWAP1 PUSH2 0x351E JUMP JUMPDEST PUSH1 0x40 MLOAD DUP1 SWAP2 SUB SWAP1 REVERT JUMPDEST POP JUMPDEST POP POP POP POP JUMP JUMPDEST PUSH1 0x60 PUSH1 0x40 MLOAD DUP1 PUSH1 0x20 ADD PUSH1 0x40 MSTORE DUP1 PUSH0 DUP2 MSTORE POP SWAP1 POP SWAP1 JUMP JUMPDEST PUSH1 0x60 PUSH0 PUSH1 0x1 PUSH2 0x2D58 DUP5 PUSH2 0x2E14 JUMP JUMPDEST ADD SWAP1 POP PUSH0 DUP2 PUSH8 0xFFFFFFFFFFFFFFFF DUP2 GT ISZERO PUSH2 0x2D76 JUMPI PUSH2 0x2D75 PUSH2 0x3306 JUMP JUMPDEST JUMPDEST PUSH1 0x40 MLOAD SWAP1 DUP1 DUP3 MSTORE DUP1 PUSH1 0x1F ADD PUSH1 0x1F NOT AND PUSH1 0x20 ADD DUP3 ADD PUSH1 0x40 MSTORE DUP1 ISZERO PUSH2 0x2DA8 JUMPI DUP2 PUSH1 0x20 ADD PUSH1 0x1 DUP3 MUL DUP1 CALLDATASIZE DUP4 CALLDATACOPY DUP1 DUP3 ADD SWAP2 POP POP SWAP1 POP JUMPDEST POP SWAP1 POP PUSH0 DUP3 PUSH1 0x20 ADD DUP3 ADD SWAP1 POP JUMPDEST PUSH1 0x1 ISZERO PUSH2 0x2E09 JUMPI DUP1 DUP1 PUSH1 0x1 SWAP1 SUB SWAP2 POP POP PUSH32 0x3031323334353637383961626364656600000000000000000000000000000000 PUSH1 0xA DUP7 MOD BYTE DUP2 MSTORE8 PUSH1 0xA DUP6 DUP2 PUSH2 0x2DFE JUMPI PUSH2 0x2DFD PUSH2 0x3BD1 JUMP JUMPDEST JUMPDEST DIV SWAP5 POP PUSH0 DUP6 SUB PUSH2 0x2DB5 JUMPI JUMPDEST DUP2 SWAP4 POP POP POP POP SWAP2 SWAP1 POP JUMP JUMPDEST PUSH0 DUP1 PUSH0 SWAP1 POP PUSH27 0x184F03E93FF9F4DAA797ED6E38ED64BF6A1F010000000000000000 DUP4 LT PUSH2 0x2E70 JUMPI PUSH27 0x184F03E93FF9F4DAA797ED6E38ED64BF6A1F010000000000000000 DUP4 DUP2 PUSH2 0x2E66 JUMPI PUSH2 0x2E65 PUSH2 0x3BD1 JUMP JUMPDEST JUMPDEST DIV SWAP3 POP PUSH1 0x40 DUP2 ADD SWAP1 POP JUMPDEST PUSH14 0x4EE2D6D415B85ACEF8100000000 DUP4 LT PUSH2 0x2EAD JUMPI PUSH14 0x4EE2D6D415B85ACEF8100000000 DUP4 DUP2 PUSH2 0x2EA3 JUMPI PUSH2 0x2EA2 PUSH2 0x3BD1 JUMP JUMPDEST JUMPDEST DIV SWAP3 POP PUSH1 0x20 DUP2 ADD SWAP1 POP JUMPDEST PUSH7 0x2386F26FC10000 DUP4 LT PUSH2 0x2EDC JUMPI PUSH7 0x2386F26FC10000 DUP4 DUP2 PUSH2 0x2ED2 JUMPI PUSH2 0x2ED1 PUSH2 0x3BD1 JUMP JUMPDEST JUMPDEST DIV SWAP3 POP PUSH1 0x10 DUP2 ADD SWAP1 POP JUMPDEST PUSH4 0x5F5E100 DUP4 LT PUSH2 0x2F05 JUMPI PUSH4 0x5F5E100 DUP4 DUP2 PUSH2 0x2EFB JUMPI PUSH2 0x2EFA PUSH2 0x3BD1 JUMP JUMPDEST JUMPDEST DIV SWAP3 POP PUSH1 0x8 DUP2 ADD SWAP1 POP JUMPDEST PUSH2 0x2710 DUP4 LT PUSH2 0x2F2A JUMPI PUSH2 0x2710 DUP4 DUP2 PUSH2 0x2F20 JUMPI PUSH2 0x2F1F PUSH2 0x3BD1 JUMP JUMPDEST JUMPDEST DIV SWAP3 POP PUSH1 0x4 DUP2 ADD SWAP1 POP JUMPDEST PUSH1 0x64 DUP4 LT PUSH2 0x2F4D JUMPI PUSH1 0x64 DUP4 DUP2 PUSH2 0x2F43 JUMPI PUSH2 0x2F42 PUSH2 0x3BD1 JUMP JUMPDEST JUMPDEST DIV SWAP3 POP PUSH1 0x2 DUP2 ADD SWAP1 POP JUMPDEST PUSH1 0xA DUP4 LT PUSH2 0x2F5C JUMPI PUSH1 0x1 DUP2 ADD SWAP1 POP JUMPDEST DUP1 SWAP2 POP POP SWAP2 SWAP1 POP JUMP JUMPDEST DUP3 PUSH2 0x4B1 PUSH1 0xF ADD PUSH1 0x10 SWAP1 DIV DUP2 ADD SWAP3 DUP3 ISZERO PUSH2 0x2FF1 JUMPI SWAP2 PUSH1 0x20 MUL DUP3 ADD PUSH0 JUMPDEST DUP4 DUP3 GT ISZERO PUSH2 0x2FC1 JUMPI DUP4 MLOAD DUP4 DUP3 PUSH2 0x100 EXP DUP2 SLOAD DUP2 PUSH2 0xFFFF MUL NOT AND SWAP1 DUP4 PUSH2 0xFFFF AND MUL OR SWAP1 SSTORE POP SWAP3 PUSH1 0x20 ADD SWAP3 PUSH1 0x2 ADD PUSH1 0x20 DUP2 PUSH1 0x1 ADD DIV SWAP3 DUP4 ADD SWAP3 PUSH1 0x1 SUB MUL PUSH2 0x2F81 JUMP JUMPDEST DUP1 ISZERO PUSH2 0x2FEF JUMPI DUP3 DUP2 PUSH2 0x100 EXP DUP2 SLOAD SWAP1 PUSH2 0xFFFF MUL NOT AND SWAP1 SSTORE PUSH1 0x2 ADD PUSH1 0x20 DUP2 PUSH1 0x1 ADD DIV SWAP3 DUP4 ADD SWAP3 PUSH1 0x1 SUB MUL PUSH2 0x2FC1 JUMP JUMPDEST POP JUMPDEST POP SWAP1 POP PUSH2 0x2FFE SWAP2 SWAP1 PUSH2 0x3002 JUMP JUMPDEST POP SWAP1 JUMP JUMPDEST JUMPDEST DUP1 DUP3 GT ISZERO PUSH2 0x3019 JUMPI PUSH0 DUP2 PUSH0 SWAP1 SSTORE POP PUSH1 0x1 ADD PUSH2 0x3003 JUMP JUMPDEST POP SWAP1 JUMP JUMPDEST PUSH0 PUSH32 0xFFFFFFFFFFFFFFFFFFFFFFFFFFFFFFFFFFFFFFFF000000000000000000000000 DUP3 AND SWAP1 POP SWAP2 SWAP1 POP JUMP JUMPDEST PUSH2 0x3051 DUP2 PUSH2 0x301D JUMP JUMPDEST DUP3 MSTORE POP POP JUMP JUMPDEST PUSH0 PUSH1 0x20 DUP3 ADD SWAP1 POP PUSH2 0x306A PUSH0 DUP4 ADD DUP5 PUSH2 0x3048 JUMP JUMPDEST SWAP3 SWAP2 POP POP JUMP JUMPDEST PUSH0 PUSH1 0x40 MLOAD SWAP1 POP SWAP1 JUMP JUMPDEST PUSH0 DUP1 REVERT JUMPDEST PUSH0 DUP1 REVERT JUMPDEST PUSH0 PUSH20 0xFFFFFFFFFFFFFFFFFFFFFFFFFFFFFFFFFFFFFFFF DUP3 AND SWAP1 POP SWAP2 SWAP1 POP JUMP JUMPDEST PUSH0 PUSH2 0x30AA DUP3 PUSH2 0x3081 JUMP JUMPDEST SWAP1 POP SWAP2 SWAP1 POP JUMP JUMPDEST PUSH2 0x30BA DUP2 PUSH2 0x30A0 JUMP JUMPDEST DUP2 EQ PUSH2 0x30C4 JUMPI PUSH0 DUP1 REVERT JUMPDEST POP JUMP JUMPDEST PUSH0 DUP2 CALLDATALOAD SWAP1 POP PUSH2 0x30D5 DUP2 PUSH2 0x30B1 JUMP JUMPDEST SWAP3 SWAP2 POP POP JUMP JUMPDEST PUSH0 PUSH2 0xFFFF DUP3 AND SWAP1 POP SWAP2 SWAP1 POP JUMP JUMPDEST PUSH2 0x30F1 DUP2 PUSH2 0x30DB JUMP JUMPDEST DUP2 EQ PUSH2 0x30FB JUMPI PUSH0 DUP1 REVERT JUMPDEST POP JUMP JUMPDEST PUSH0 DUP2 CALLDATALOAD SWAP1 POP PUSH2 0x310C DUP2 PUSH2 0x30E8 JUMP JUMPDEST SWAP3 SWAP2 POP POP JUMP JUMPDEST PUSH0 DUP1 PUSH0 PUSH1 0x60 DUP5 DUP7 SUB SLT ISZERO PUSH2 0x3129 JUMPI PUSH2 0x3128 PUSH2 0x3079 JUMP JUMPDEST JUMPDEST PUSH0 PUSH2 0x3136 DUP7 DUP3 DUP8 ADD PUSH2 0x30C7 JUMP JUMPDEST SWAP4 POP POP PUSH1 0x20 PUSH2 0x3147 DUP7 DUP3 DUP8 ADD PUSH2 0x30C7 JUMP JUMPDEST SWAP3 POP POP PUSH1 0x40 PUSH2 0x3158 DUP7 DUP3 DUP8 ADD PUSH2 0x30FE JUMP JUMPDEST SWAP2 POP POP SWAP3 POP SWAP3 POP SWAP3 JUMP JUMPDEST PUSH0 DUP2 SWAP1 POP SWAP2 SWAP1 POP JUMP JUMPDEST PUSH2 0x3174 DUP2 PUSH2 0x3162 JUMP JUMPDEST DUP2 EQ PUSH2 0x317E JUMPI PUSH0 DUP1 REVERT JUMPDEST POP JUMP JUMPDEST PUSH0 DUP2 CALLDATALOAD SWAP1 POP PUSH2 0x318F DUP2 PUSH2 0x316B JUMP JUMPDEST SWAP3 SWAP2 POP POP JUMP JUMPDEST PUSH0 DUP1 PUSH1 0x40 DUP4 DUP6 SUB SLT ISZERO PUSH2 0x31AB JUMPI PUSH2 0x31AA PUSH2 0x3079 JUMP JUMPDEST JUMPDEST PUSH0 PUSH2 0x31B8 DUP6 DUP3 DUP7 ADD PUSH2 0x30C7 JUMP JUMPDEST SWAP3 POP POP PUSH1 0x20 PUSH2 0x31C9 DUP6 DUP3 DUP7 ADD PUSH2 0x3181 JUMP JUMPDEST SWAP2 POP POP SWAP3 POP SWAP3 SWAP1 POP JUMP JUMPDEST PUSH0 DUP2 SWAP1 POP SWAP2 SWAP1 POP JUMP JUMPDEST PUSH2 0x31E5 DUP2 PUSH2 0x31D3 JUMP JUMPDEST DUP2 EQ PUSH2 0x31EF JUMPI PUSH0 DUP1 REVERT JUMPDEST POP JUMP JUMPDEST PUSH0 DUP2 CALLDATALOAD SWAP1 POP PUSH2 0x3200 DUP2 PUSH2 0x31DC JUMP JUMPDEST SWAP3 SWAP2 POP POP JUMP JUMPDEST PUSH0 DUP1 PUSH1 0x40 DUP4 DUP6 SUB SLT ISZERO PUSH2 0x321C JUMPI PUSH2 0x321B PUSH2 0x3079 JUMP JUMPDEST JUMPDEST PUSH0 PUSH2 0x3229 DUP6 DUP3 DUP7 ADD PUSH2 0x31F2 JUMP JUMPDEST SWAP3 POP POP PUSH1 0x20 PUSH2 0x323A DUP6 DUP3 DUP7 ADD PUSH2 0x30C7 JUMP JUMPDEST SWAP2 POP POP SWAP3 POP SWAP3 SWAP1 POP JUMP JUMPDEST PUSH2 0x324D DUP2 PUSH2 0x31D3 JUMP JUMPDEST DUP3 MSTORE POP POP JUMP JUMPDEST PUSH0 PUSH1 0x20 DUP3 ADD SWAP1 POP PUSH2 0x3266 PUSH0 DUP4 ADD DUP5 PUSH2 0x3244 JUMP JUMPDEST SWAP3 SWAP2 POP POP JUMP JUMPDEST PUSH0 PUSH1 0x20 DUP3 DUP5 SUB SLT ISZERO PUSH2 0x3281 JUMPI PUSH2 0x3280 PUSH2 0x3079 JUMP JUMPDEST JUMPDEST PUSH0 PUSH2 0x328E DUP5 DUP3 DUP6 ADD PUSH2 0x30C7 JUMP JUMPDEST SWAP2 POP POP SWAP3 SWAP2 POP POP JUMP JUMPDEST PUSH0 DUP2 ISZERO ISZERO SWAP1 POP SWAP2 SWAP1 POP JUMP JUMPDEST PUSH2 0x32AB DUP2 PUSH2 0x3297 JUMP JUMPDEST DUP3 MSTORE POP POP JUMP JUMPDEST PUSH0 PUSH1 0x20 DUP3 ADD SWAP1 POP PUSH2 0x32C4 PUSH0 DUP4 ADD DUP5 PUSH2 0x32A2 JUMP JUMPDEST SWAP3 SWAP2 POP POP JUMP JUMPDEST PUSH2 0x32D3 DUP2 PUSH2 0x30DB JUMP JUMPDEST DUP3 MSTORE POP POP JUMP JUMPDEST PUSH0 PUSH1 0x20 DUP3 ADD SWAP1 POP PUSH2 0x32EC PUSH0 DUP4 ADD DUP5 PUSH2 0x32CA JUMP JUMPDEST SWAP3 SWAP2 POP POP JUMP JUMPDEST PUSH0 DUP1 REVERT JUMPDEST PUSH0 PUSH1 0x1F NOT PUSH1 0x1F DUP4 ADD AND SWAP1 POP SWAP2 SWAP1 POP JUMP JUMPDEST PUSH32 0x4E487B7100000000000000000000000000000000000000000000000000000000 PUSH0 MSTORE PUSH1 0x41 PUSH1 0x4 MSTORE PUSH1 0x24 PUSH0 REVERT JUMPDEST PUSH2 0x333C DUP3 PUSH2 0x32F6 JUMP JUMPDEST DUP2 ADD DUP2 DUP2 LT PUSH8 0xFFFFFFFFFFFFFFFF DUP3 GT OR ISZERO PUSH2 0x335B JUMPI PUSH2 0x335A PUSH2 0x3306 JUMP JUMPDEST JUMPDEST DUP1 PUSH1 0x40 MSTORE POP POP POP JUMP JUMPDEST PUSH0 PUSH2 0x336D PUSH2 0x3070 JUMP JUMPDEST SWAP1 POP PUSH2 0x3379 DUP3 DUP3 PUSH2 0x3333 JUMP JUMPDEST SWAP2 SWAP1 POP JUMP JUMPDEST PUSH0 PUSH8 0xFFFFFFFFFFFFFFFF DUP3 GT ISZERO PUSH2 0x3398 JUMPI PUSH2 0x3397 PUSH2 0x3306 JUMP JUMPDEST JUMPDEST PUSH1 0x20 DUP3 MUL SWAP1 POP SWAP2 SWAP1 POP JUMP JUMPDEST PUSH0 DUP1 REVERT JUMPDEST PUSH0 PUSH2 0x33B9 PUSH2 0x33B4 DUP5 PUSH2 0x337E JUMP JUMPDEST PUSH2 0x3364 JUMP JUMPDEST SWAP1 POP DUP1 PUSH1 0x20 DUP5 MUL DUP4 ADD DUP6 DUP2 GT ISZERO PUSH2 0x33D3 JUMPI PUSH2 0x33D2 PUSH2 0x33A3 JUMP JUMPDEST JUMPDEST DUP4 JUMPDEST DUP2 DUP2 LT ISZERO PUSH2 0x33FC JUMPI DUP1 PUSH2 0x33E8 DUP9 DUP3 PUSH2 0x30FE JUMP JUMPDEST DUP5 MSTORE PUSH1 0x20 DUP5 ADD SWAP4 POP POP PUSH1 0x20 DUP2 ADD SWAP1 POP PUSH2 0x33D5 JUMP JUMPDEST POP POP POP SWAP4 SWAP3 POP POP POP JUMP JUMPDEST PUSH0 DUP3 PUSH1 0x1F DUP4 ADD SLT PUSH2 0x341A JUMPI PUSH2 0x3419 PUSH2 0x32F2 JUMP JUMPDEST JUMPDEST PUSH2 0x4B1 PUSH2 0x3428 DUP5 DUP3 DUP6 PUSH2 0x33A7 JUMP JUMPDEST SWAP2 POP POP SWAP3 SWAP2 POP POP JUMP JUMPDEST PUSH0 DUP1 PUSH0 DUP1 PUSH0 DUP1 PUSH0 DUP1 PUSH2 0x9700 DUP10 DUP12 SUB SLT ISZERO PUSH2 0x344E JUMPI PUSH2 0x344D PUSH2 0x3079 JUMP JUMPDEST JUMPDEST PUSH0 PUSH2 0x345B DUP12 DUP3 DUP13 ADD PUSH2 0x30FE JUMP JUMPDEST SWAP9 POP POP PUSH1 0x20 PUSH2 0x346C DUP12 DUP3 DUP13 ADD PUSH2 0x31F2 JUMP JUMPDEST SWAP8 POP POP PUSH1 0x40 PUSH2 0x347D DUP12 DUP3 DUP13 ADD PUSH2 0x30C7 JUMP JUMPDEST SWAP7 POP POP PUSH1 0x60 PUSH2 0x348E DUP12 DUP3 DUP13 ADD PUSH2 0x30C7 JUMP JUMPDEST SWAP6 POP POP PUSH1 0x80 PUSH2 0x349F DUP12 DUP3 DUP13 ADD PUSH2 0x31F2 JUMP JUMPDEST SWAP5 POP POP PUSH1 0xA0 PUSH2 0x34B0 DUP12 DUP3 DUP13 ADD PUSH2 0x3406 JUMP JUMPDEST SWAP4 POP POP PUSH2 0x96C0 PUSH2 0x34C2 DUP12 DUP3 DUP13 ADD PUSH2 0x3181 JUMP JUMPDEST SWAP3 POP POP PUSH2 0x96E0 PUSH2 0x34D4 DUP12 DUP3 DUP13 ADD PUSH2 0x30C7 JUMP JUMPDEST SWAP2 POP POP SWAP3 SWAP6 SWAP9 POP SWAP3 SWAP6 SWAP9 SWAP1 SWAP4 SWAP7 POP JUMP JUMPDEST PUSH0 PUSH1 0x20 DUP3 DUP5 SUB SLT ISZERO PUSH2 0x34F9 JUMPI PUSH2 0x34F8 PUSH2 0x3079 JUMP JUMPDEST JUMPDEST PUSH0 PUSH2 0x3506 DUP5 DUP3 DUP6 ADD PUSH2 0x30FE JUMP JUMPDEST SWAP2 POP POP SWAP3 SWAP2 POP POP JUMP JUMPDEST PUSH2 0x3518 DUP2 PUSH2 0x30A0 JUMP JUMPDEST DUP3 MSTORE POP POP JUMP JUMPDEST PUSH0 PUSH1 0x20 DUP3 ADD SWAP1 POP PUSH2 0x3531 PUSH0 DUP4 ADD DUP5 PUSH2 0x350F JUMP JUMPDEST SWAP3 SWAP2 POP POP JUMP JUMPDEST PUSH0 PUSH32 0xFFFFFFFFFFFFFFFFFFFF00000000000000000000000000000000000000000000 DUP3 AND SWAP1 POP SWAP2 SWAP1 POP JUMP JUMPDEST PUSH2 0x356B DUP2 PUSH2 0x3537 JUMP JUMPDEST DUP3 MSTORE POP POP JUMP JUMPDEST PUSH0 PUSH1 0x20 DUP3 ADD SWAP1 POP PUSH2 0x3584 PUSH0 DUP4 ADD DUP5 PUSH2 0x3562 JUMP JUMPDEST SWAP3 SWAP2 POP POP JUMP JUMPDEST PUSH2 0x3593 DUP2 PUSH2 0x3297 JUMP JUMPDEST DUP2 EQ PUSH2 0x359D JUMPI PUSH0 DUP1 REVERT JUMPDEST POP JUMP JUMPDEST PUSH0 DUP2 CALLDATALOAD SWAP1 POP PUSH2 0x35AE DUP2 PUSH2 0x358A JUMP JUMPDEST SWAP3 SWAP2 POP POP JUMP JUMPDEST PUSH0 DUP1 PUSH1 0x40 DUP4 DUP6 SUB SLT ISZERO PUSH2 0x35CA JUMPI PUSH2 0x35C9 PUSH2 0x3079 JUMP JUMPDEST JUMPDEST PUSH0 PUSH2 0x35D7 DUP6 DUP3 DUP7 ADD PUSH2 0x30C7 JUMP JUMPDEST SWAP3 POP POP PUSH1 0x20 PUSH2 0x35E8 DUP6 DUP3 DUP7 ADD PUSH2 0x35A0 JUMP JUMPDEST SWAP2 POP POP SWAP3 POP SWAP3 SWAP1 POP JUMP JUMPDEST PUSH0 DUP1 REVERT JUMPDEST PUSH0 PUSH8 0xFFFFFFFFFFFFFFFF DUP3 GT ISZERO PUSH2 0x3610 JUMPI PUSH2 0x360F PUSH2 0x3306 JUMP JUMPDEST JUMPDEST PUSH2 0x3619 DUP3 PUSH2 0x32F6 JUMP JUMPDEST SWAP1 POP PUSH1 0x20 DUP2 ADD SWAP1 POP SWAP2 SWAP1 POP JUMP JUMPDEST DUP3 DUP2 DUP4 CALLDATACOPY PUSH0 DUP4 DUP4 ADD MSTORE POP POP POP JUMP JUMPDEST PUSH0 PUSH2 0x3646 PUSH2 0x3641 DUP5 PUSH2 0x35F6 JUMP JUMPDEST PUSH2 0x3364 JUMP JUMPDEST SWAP1 POP DUP3 DUP2 MSTORE PUSH1 0x20 DUP2 ADD DUP5 DUP5 DUP5 ADD GT ISZERO PUSH2 0x3662 JUMPI PUSH2 0x3661 PUSH2 0x35F2 JUMP JUMPDEST JUMPDEST PUSH2 0x366D DUP5 DUP3 DUP6 PUSH2 0x3626 JUMP JUMPDEST POP SWAP4 SWAP3 POP POP POP JUMP JUMPDEST PUSH0 DUP3 PUSH1 0x1F DUP4 ADD SLT PUSH2 0x3689 JUMPI PUSH2 0x3688 PUSH2 0x32F2 JUMP JUMPDEST JUMPDEST DUP2 CALLDATALOAD PUSH2 0x3699 DUP5 DUP3 PUSH1 0x20 DUP7 ADD PUSH2 0x3634 JUMP JUMPDEST SWAP2 POP POP SWAP3 SWAP2 POP POP JUMP JUMPDEST PUSH0 DUP1 PUSH0 DUP1 PUSH1 0x80 DUP6 DUP8 SUB SLT ISZERO PUSH2 0x36BA JUMPI PUSH2 0x36B9 PUSH2 0x3079 JUMP JUMPDEST JUMPDEST PUSH0 PUSH2 0x36C7 DUP8 DUP3 DUP9 ADD PUSH2 0x30C7 JUMP JUMPDEST SWAP5 POP POP PUSH1 0x20 PUSH2 0x36D8 DUP8 DUP3 DUP9 ADD PUSH2 0x30C7 JUMP JUMPDEST SWAP4 POP POP PUSH1 0x40 PUSH2 0x36E9 DUP8 DUP3 DUP9 ADD PUSH2 0x30FE JUMP JUMPDEST SWAP3 POP POP PUSH1 0x60 DUP6 ADD CALLDATALOAD PUSH8 0xFFFFFFFFFFFFFFFF DUP2 GT ISZERO PUSH2 0x370A JUMPI PUSH2 0x3709 PUSH2 0x307D JUMP JUMPDEST JUMPDEST PUSH2 0x3716 DUP8 DUP3 DUP9 ADD PUSH2 0x3675 JUMP JUMPDEST SWAP2 POP POP SWAP3 SWAP6 SWAP2 SWAP5 POP SWAP3 POP JUMP JUMPDEST PUSH0 DUP1 REVERT JUMPDEST PUSH0 DUP1 DUP4 PUSH1 0x1F DUP5 ADD SLT PUSH2 0x373B JUMPI PUSH2 0x373A PUSH2 0x32F2 JUMP JUMPDEST JUMPDEST DUP3 CALLDATALOAD SWAP1 POP PUSH8 0xFFFFFFFFFFFFFFFF DUP2 GT ISZERO PUSH2 0x3758 JUMPI PUSH2 0x3757 PUSH2 0x3722 JUMP JUMPDEST JUMPDEST PUSH1 0x20 DUP4 ADD SWAP2 POP DUP4 PUSH1 0x1 DUP3 MUL DUP4 ADD GT ISZERO PUSH2 0x3774 JUMPI PUSH2 0x3773 PUSH2 0x33A3 JUMP JUMPDEST JUMPDEST SWAP3 POP SWAP3 SWAP1 POP JUMP JUMPDEST PUSH0 DUP1 PUSH0 DUP1 PUSH0 PUSH1 0x80 DUP7 DUP9 SUB SLT ISZERO PUSH2 0x3794 JUMPI PUSH2 0x3793 PUSH2 0x3079 JUMP JUMPDEST JUMPDEST PUSH0 PUSH2 0x37A1 DUP9 DUP3 DUP10 ADD PUSH2 0x30C7 JUMP JUMPDEST SWAP6 POP POP PUSH1 0x20 PUSH2 0x37B2 DUP9 DUP3 DUP10 ADD PUSH2 0x30C7 JUMP JUMPDEST SWAP5 POP POP PUSH1 0x40 PUSH2 0x37C3 DUP9 DUP3 DUP10 ADD PUSH2 0x30FE JUMP JUMPDEST SWAP4 POP POP PUSH1 0x60 DUP7 ADD CALLDATALOAD PUSH8 0xFFFFFFFFFFFFFFFF DUP2 GT ISZERO PUSH2 0x37E4 JUMPI PUSH2 0x37E3 PUSH2 0x307D JUMP JUMPDEST JUMPDEST PUSH2 0x37F0 DUP9 DUP3 DUP10 ADD PUSH2 0x3726 JUMP JUMPDEST SWAP3 POP SWAP3 POP POP SWAP3 SWAP6 POP SWAP3 SWAP6 SWAP1 SWAP4 POP JUMP JUMPDEST PUSH0 PUSH32 0xFFFFFFFF00000000000000000000000000000000000000000000000000000000 DUP3 AND SWAP1 POP SWAP2 SWAP1 POP JUMP JUMPDEST PUSH2 0x3833 DUP2 PUSH2 0x37FF JUMP JUMPDEST DUP3 MSTORE POP POP JUMP JUMPDEST PUSH0 PUSH1 0x20 DUP3 ADD SWAP1 POP PUSH2 0x384C PUSH0 DUP4 ADD DUP5 PUSH2 0x382A JUMP JUMPDEST SWAP3 SWAP2 POP POP JUMP JUMPDEST PUSH0 PUSH6 0xFFFFFFFFFFFF DUP3 AND SWAP1 POP SWAP2 SWAP1 POP JUMP JUMPDEST PUSH2 0x386C DUP2 PUSH2 0x3852 JUMP JUMPDEST DUP2 EQ PUSH2 0x3876 JUMPI PUSH0 DUP1 REVERT JUMPDEST POP JUMP JUMPDEST PUSH0 DUP2 CALLDATALOAD SWAP1 POP PUSH2 0x3887 DUP2 PUSH2 0x3863 JUMP JUMPDEST SWAP3 SWAP2 POP POP JUMP JUMPDEST PUSH0 PUSH1 0x20 DUP3 DUP5 SUB SLT ISZERO PUSH2 0x38A2 JUMPI PUSH2 0x38A1 PUSH2 0x3079 JUMP JUMPDEST JUMPDEST PUSH0 PUSH2 0x38AF DUP5 DUP3 DUP6 ADD PUSH2 0x3879 JUMP JUMPDEST SWAP2 POP POP SWAP3 SWAP2 POP POP JUMP JUMPDEST PUSH0 DUP2 MLOAD SWAP1 POP SWAP2 SWAP1 POP JUMP JUMPDEST PUSH0 DUP3 DUP3 MSTORE PUSH1 0x20 DUP3 ADD SWAP1 POP SWAP3 SWAP2 POP POP JUMP JUMPDEST PUSH0 JUMPDEST DUP4 DUP2 LT ISZERO PUSH2 0x38EF JUMPI DUP1 DUP3 ADD MLOAD DUP2 DUP5 ADD MSTORE PUSH1 0x20 DUP2 ADD SWAP1 POP PUSH2 0x38D4 JUMP JUMPDEST PUSH0 DUP5 DUP5 ADD MSTORE POP POP POP POP JUMP JUMPDEST PUSH0 PUSH2 0x3904 DUP3 PUSH2 0x38B8 JUMP JUMPDEST PUSH2 0x390E DUP2 DUP6 PUSH2 0x38C2 JUMP JUMPDEST SWAP4 POP PUSH2 0x391E DUP2 DUP6 PUSH1 0x20 DUP7 ADD PUSH2 0x38D2 JUMP JUMPDEST PUSH2 0x3927 DUP2 PUSH2 0x32F6 JUMP JUMPDEST DUP5 ADD SWAP2 POP POP SWAP3 SWAP2 POP POP JUMP JUMPDEST PUSH0 PUSH1 0x20 DUP3 ADD SWAP1 POP DUP2 DUP2 SUB PUSH0 DUP4 ADD MSTORE PUSH2 0x394A DUP2 DUP5 PUSH2 0x38FA JUMP JUMPDEST SWAP1 POP SWAP3 SWAP2 POP POP JUMP JUMPDEST PUSH0 DUP2 MLOAD SWAP1 POP SWAP2 SWAP1 POP JUMP JUMPDEST PUSH0 DUP3 DUP3 MSTORE PUSH1 0x20 DUP3 ADD SWAP1 POP SWAP3 SWAP2 POP POP JUMP JUMPDEST PUSH0 PUSH2 0x3976 DUP3 PUSH2 0x3952 JUMP JUMPDEST PUSH2 0x3980 DUP2 DUP6 PUSH2 0x395C JUMP JUMPDEST SWAP4 POP PUSH2 0x3990 DUP2 DUP6 PUSH1 0x20 DUP7 ADD PUSH2 0x38D2 JUMP JUMPDEST PUSH2 0x3999 DUP2 PUSH2 0x32F6 JUMP JUMPDEST DUP5 ADD SWAP2 POP POP SWAP3 SWAP2 POP POP JUMP JUMPDEST PUSH0 PUSH1 0x20 DUP3 ADD SWAP1 POP DUP2 DUP2 SUB PUSH0 DUP4 ADD MSTORE PUSH2 0x39BC DUP2 DUP5 PUSH2 0x396C JUMP JUMPDEST SWAP1 POP SWAP3 SWAP2 POP POP JUMP JUMPDEST PUSH0 DUP1 PUSH1 0x40 DUP4 DUP6 SUB SLT ISZERO PUSH2 0x39DA JUMPI PUSH2 0x39D9 PUSH2 0x3079 JUMP JUMPDEST JUMPDEST PUSH0 PUSH2 0x39E7 DUP6 DUP3 DUP7 ADD PUSH2 0x30C7 JUMP JUMPDEST SWAP3 POP POP PUSH1 0x20 PUSH2 0x39F8 DUP6 DUP3 DUP7 ADD PUSH2 0x30FE JUMP JUMPDEST SWAP2 POP POP SWAP3 POP SWAP3 SWAP1 POP JUMP JUMPDEST PUSH0 DUP1 PUSH1 0x40 DUP4 DUP6 SUB SLT ISZERO PUSH2 0x3A18 JUMPI PUSH2 0x3A17 PUSH2 0x3079 JUMP JUMPDEST JUMPDEST PUSH0 PUSH2 0x3A25 DUP6 DUP3 DUP7 ADD PUSH2 0x30C7 JUMP JUMPDEST SWAP3 POP POP PUSH1 0x20 PUSH2 0x3A36 DUP6 DUP3 DUP7 ADD PUSH2 0x30C7 JUMP JUMPDEST SWAP2 POP POP SWAP3 POP SWAP3 SWAP1 POP JUMP JUMPDEST PUSH0 DUP1 PUSH1 0x40 DUP4 DUP6 SUB SLT ISZERO PUSH2 0x3A56 JUMPI PUSH2 0x3A55 PUSH2 0x3079 JUMP JUMPDEST JUMPDEST PUSH0 PUSH2 0x3A63 DUP6 DUP3 DUP7 ADD PUSH2 0x30FE JUMP JUMPDEST SWAP3 POP POP PUSH1 0x20 PUSH2 0x3A74 DUP6 DUP3 DUP7 ADD PUSH2 0x35A0 JUMP JUMPDEST SWAP2 POP POP SWAP3 POP SWAP3 SWAP1 POP JUMP JUMPDEST PUSH32 0x416363657373206F6E6C7920666F72206578656375746F720000000000000000 PUSH0 DUP3 ADD MSTORE POP JUMP JUMPDEST PUSH0 PUSH2 0x3AB2 PUSH1 0x18 DUP4 PUSH2 0x395C JUMP JUMPDEST SWAP2 POP PUSH2 0x3ABD DUP3 PUSH2 0x3A7E JUMP JUMPDEST PUSH1 0x20 DUP3 ADD SWAP1 POP SWAP2 SWAP1 POP JUMP JUMPDEST PUSH0 PUSH1 0x20 DUP3 ADD SWAP1 POP DUP2 DUP2 SUB PUSH0 DUP4 ADD MSTORE PUSH2 0x3ADF DUP2 PUSH2 0x3AA6 JUMP JUMPDEST SWAP1 POP SWAP2 SWAP1 POP JUMP JUMPDEST PUSH32 0x4E487B7100000000000000000000000000000000000000000000000000000000 PUSH0 MSTORE PUSH1 0x11 PUSH1 0x4 MSTORE PUSH1 0x24 PUSH0 REVERT JUMPDEST PUSH0 PUSH2 0x3B1D DUP3 PUSH2 0x30DB JUMP JUMPDEST SWAP2 POP PUSH2 0x3B28 DUP4 PUSH2 0x30DB JUMP JUMPDEST SWAP3 POP DUP3 DUP3 SUB SWAP1 POP PUSH2 0xFFFF DUP2 GT ISZERO PUSH2 0x3B42 JUMPI PUSH2 0x3B41 PUSH2 0x3AE6 JUMP JUMPDEST JUMPDEST SWAP3 SWAP2 POP POP JUMP JUMPDEST PUSH0 PUSH2 0x3B52 DUP3 PUSH2 0x30DB JUMP JUMPDEST SWAP2 POP PUSH2 0xFFFF DUP3 SUB PUSH2 0x3B66 JUMPI PUSH2 0x3B65 PUSH2 0x3AE6 JUMP JUMPDEST JUMPDEST PUSH1 0x1 DUP3 ADD SWAP1 POP SWAP2 SWAP1 POP JUMP JUMPDEST PUSH32 0x4E487B7100000000000000000000000000000000000000000000000000000000 PUSH0 MSTORE PUSH1 0x32 PUSH1 0x4 MSTORE PUSH1 0x24 PUSH0 REVERT JUMPDEST PUSH0 PUSH2 0x3BA8 DUP3 PUSH2 0x31D3 JUMP JUMPDEST SWAP2 POP PUSH2 0x3BB3 DUP4 PUSH2 0x31D3 JUMP JUMPDEST SWAP3 POP DUP3 DUP3 ADD SWAP1 POP DUP1 DUP3 GT ISZERO PUSH2 0x3BCB JUMPI PUSH2 0x3BCA PUSH2 0x3AE6 JUMP JUMPDEST JUMPDEST SWAP3 SWAP2 POP POP JUMP JUMPDEST PUSH32 0x4E487B7100000000000000000000000000000000000000000000000000000000 PUSH0 MSTORE PUSH1 0x12 PUSH1 0x4 MSTORE PUSH1 0x24 PUSH0 REVERT JUMPDEST PUSH0 PUSH2 0x3C08 DUP3 PUSH2 0x30DB JUMP JUMPDEST SWAP2 POP PUSH2 0x3C13 DUP4 PUSH2 0x30DB JUMP JUMPDEST SWAP3 POP DUP3 PUSH2 0x3C23 JUMPI PUSH2 0x3C22 PUSH2 0x3BD1 JUMP JUMPDEST JUMPDEST DUP3 DUP3 MOD SWAP1 POP SWAP3 SWAP2 POP POP JUMP JUMPDEST PUSH0 PUSH2 0x3C38 DUP3 PUSH2 0x3852 JUMP JUMPDEST SWAP2 POP PUSH2 0x3C43 DUP4 PUSH2 0x3852 JUMP JUMPDEST SWAP3 POP DUP3 DUP3 ADD SWAP1 POP PUSH6 0xFFFFFFFFFFFF DUP2 GT ISZERO PUSH2 0x3C61 JUMPI PUSH2 0x3C60 PUSH2 0x3AE6 JUMP JUMPDEST JUMPDEST SWAP3 SWAP2 POP POP JUMP JUMPDEST PUSH0 PUSH2 0x3C71 DUP3 PUSH2 0x30DB JUMP JUMPDEST SWAP2 POP PUSH2 0x3C7C DUP4 PUSH2 0x30DB JUMP JUMPDEST SWAP3 POP DUP3 DUP3 ADD SWAP1 POP PUSH2 0xFFFF DUP2 GT ISZERO PUSH2 0x3C96 JUMPI PUSH2 0x3C95 PUSH2 0x3AE6 JUMP JUMPDEST JUMPDEST SWAP3 SWAP2 POP POP JUMP JUMPDEST PUSH0 PUSH2 0x3CA6 DUP3 PUSH2 0x30DB JUMP JUMPDEST SWAP2 POP PUSH0 DUP3 SUB PUSH2 0x3CB8 JUMPI PUSH2 0x3CB7 PUSH2 0x3AE6 JUMP JUMPDEST JUMPDEST PUSH1 0x1 DUP3 SUB SWAP1 POP SWAP2 SWAP1 POP JUMP JUMPDEST PUSH32 0x696E76616C696420616363657373000000000000000000000000000000000000 PUSH0 DUP3 ADD MSTORE POP JUMP JUMPDEST PUSH0 PUSH2 0x3CF7 PUSH1 0xE DUP4 PUSH2 0x395C JUMP JUMPDEST SWAP2 POP PUSH2 0x3D02 DUP3 PUSH2 0x3CC3 JUMP JUMPDEST PUSH1 0x20 DUP3 ADD SWAP1 POP SWAP2 SWAP1 POP JUMP JUMPDEST PUSH0 PUSH1 0x20 DUP3 ADD SWAP1 POP DUP2 DUP2 SUB PUSH0 DUP4 ADD MSTORE PUSH2 0x3D24 DUP2 PUSH2 0x3CEB JUMP JUMPDEST SWAP1 POP SWAP2 SWAP1 POP JUMP JUMPDEST PUSH0 DUP2 SWAP1 POP SWAP2 SWAP1 POP JUMP JUMPDEST PUSH2 0x3D45 PUSH2 0x3D40 DUP3 PUSH2 0x3162 JUMP JUMPDEST PUSH2 0x3D2B JUMP JUMPDEST DUP3 MSTORE POP POP JUMP JUMPDEST PUSH0 PUSH2 0x3D56 DUP3 DUP5 PUSH2 0x3D34 JUMP JUMPDEST PUSH1 0x20 DUP3 ADD SWAP2 POP DUP2 SWAP1 POP SWAP3 SWAP2 POP POP JUMP JUMPDEST PUSH0 DUP2 SWAP1 POP SWAP3 SWAP2 POP POP JUMP JUMPDEST PUSH32 0x6578656375746F72000000000000000000000000000000000000000000000000 PUSH0 DUP3 ADD MSTORE POP JUMP JUMPDEST PUSH0 PUSH2 0x3DA3 PUSH1 0x8 DUP4 PUSH2 0x3D65 JUMP JUMPDEST SWAP2 POP PUSH2 0x3DAE DUP3 PUSH2 0x3D6F JUMP JUMPDEST PUSH1 0x8 DUP3 ADD SWAP1 POP SWAP2 SWAP1 POP JUMP JUMPDEST PUSH0 PUSH2 0x3DC3 DUP3 PUSH2 0x3D97 JUMP JUMPDEST SWAP2 POP DUP2 SWAP1 POP SWAP2 SWAP1 POP JUMP JUMPDEST PUSH32 0x676F7665726E616E636500000000000000000000000000000000000000000000 PUSH0 DUP3 ADD MSTORE POP JUMP JUMPDEST PUSH0 PUSH2 0x3E01 PUSH1 0xA DUP4 PUSH2 0x3D65 JUMP JUMPDEST SWAP2 POP PUSH2 0x3E0C DUP3 PUSH2 0x3DCD JUMP JUMPDEST PUSH1 0xA DUP3 ADD SWAP1 POP SWAP2 SWAP1 POP JUMP JUMPDEST PUSH0 PUSH2 0x3E21 DUP3 PUSH2 0x3DF5 JUMP JUMPDEST SWAP2 POP DUP2 SWAP1 POP SWAP2 SWAP1 POP JUMP JUMPDEST PUSH32 0x73746F7261676500000000000000000000000000000000000000000000000000 PUSH0 DUP3 ADD MSTORE POP JUMP JUMPDEST PUSH0 PUSH2 0x3E5F PUSH1 0x7 DUP4 PUSH2 0x3D65 JUMP JUMPDEST SWAP2 POP PUSH2 0x3E6A DUP3 PUSH2 0x3E2B JUMP JUMPDEST PUSH1 0x7 DUP3 ADD SWAP1 POP SWAP2 SWAP1 POP JUMP JUMPDEST PUSH0 PUSH2 0x3E7F DUP3 PUSH2 0x3E53 JUMP JUMPDEST SWAP2 POP DUP2 SWAP1 POP SWAP2 SWAP1 POP JUMP JUMPDEST PUSH32 0x596F7520646F206E6F7420686176652061636365737320746F20746869732066 PUSH0 DUP3 ADD MSTORE PUSH32 0x756E6374696F6E00000000000000000000000000000000000000000000000000 PUSH1 0x20 DUP3 ADD MSTORE POP JUMP JUMPDEST PUSH0 PUSH2 0x3EE3 PUSH1 0x27 DUP4 PUSH2 0x395C JUMP JUMPDEST SWAP2 POP PUSH2 0x3EEE DUP3 PUSH2 0x3E89 JUMP JUMPDEST PUSH1 0x40 DUP3 ADD SWAP1 POP SWAP2 SWAP1 POP JUMP JUMPDEST PUSH0 PUSH1 0x20 DUP3 ADD SWAP1 POP DUP2 DUP2 SUB PUSH0 DUP4 ADD MSTORE PUSH2 0x3F10 DUP2 PUSH2 0x3ED7 JUMP JUMPDEST SWAP1 POP SWAP2 SWAP1 POP JUMP JUMPDEST PUSH0 PUSH1 0x80 DUP3 ADD SWAP1 POP PUSH2 0x3F2A PUSH0 DUP4 ADD DUP8 PUSH2 0x3244 JUMP JUMPDEST PUSH2 0x3F37 PUSH1 0x20 DUP4 ADD DUP7 PUSH2 0x350F JUMP JUMPDEST PUSH2 0x3F44 PUSH1 0x40 DUP4 ADD DUP6 PUSH2 0x350F JUMP JUMPDEST PUSH2 0x3F51 PUSH1 0x60 DUP4 ADD DUP5 PUSH2 0x350F JUMP JUMPDEST SWAP6 SWAP5 POP POP POP POP POP JUMP JUMPDEST PUSH0 DUP2 SWAP1 POP SWAP3 SWAP2 POP POP JUMP JUMPDEST PUSH0 PUSH2 0x3F6E DUP3 PUSH2 0x38B8 JUMP JUMPDEST PUSH2 0x3F78 DUP2 DUP6 PUSH2 0x3F5A JUMP JUMPDEST SWAP4 POP PUSH2 0x3F88 DUP2 DUP6 PUSH1 0x20 DUP7 ADD PUSH2 0x38D2 JUMP JUMPDEST DUP1 DUP5 ADD SWAP2 POP POP SWAP3 SWAP2 POP POP JUMP JUMPDEST PUSH0 PUSH2 0x3F9F DUP3 DUP5 PUSH2 0x3F64 JUMP JUMPDEST SWAP2 POP DUP2 SWAP1 POP SWAP3 SWAP2 POP POP JUMP JUMPDEST PUSH0 DUP2 MLOAD SWAP1 POP PUSH2 0x3FB8 DUP2 PUSH2 0x31DC JUMP JUMPDEST SWAP3 SWAP2 POP POP JUMP JUMPDEST PUSH0 PUSH1 0x20 DUP3 DUP5 SUB SLT ISZERO PUSH2 0x3FD3 JUMPI PUSH2 0x3FD2 PUSH2 0x3079 JUMP JUMPDEST JUMPDEST PUSH0 PUSH2 0x3FE0 DUP5 DUP3 DUP6 ADD PUSH2 0x3FAA JUMP JUMPDEST SWAP2 POP POP SWAP3 SWAP2 POP POP JUMP JUMPDEST PUSH32 0x546865207472616E73666572206F66207468697320746F6B656E206973206375 PUSH0 DUP3 ADD MSTORE PUSH32 0x7272656E746C792062616E6E6564000000000000000000000000000000000000 PUSH1 0x20 DUP3 ADD MSTORE POP JUMP JUMPDEST PUSH0 PUSH2 0x4043 PUSH1 0x2E DUP4 PUSH2 0x395C JUMP JUMPDEST SWAP2 POP PUSH2 0x404E DUP3 PUSH2 0x3FE9 JUMP JUMPDEST PUSH1 0x40 DUP3 ADD SWAP1 POP SWAP2 SWAP1 POP JUMP JUMPDEST PUSH0 PUSH1 0x20 DUP3 ADD SWAP1 POP DUP2 DUP2 SUB PUSH0 DUP4 ADD MSTORE PUSH2 0x4070 DUP2 PUSH2 0x4037 JUMP JUMPDEST SWAP1 POP SWAP2 SWAP1 POP JUMP JUMPDEST PUSH0 DUP2 SWAP1 POP SWAP2 SWAP1 POP JUMP JUMPDEST PUSH0 PUSH2 0x409A PUSH2 0x4095 PUSH2 0x4090 DUP5 PUSH2 0x30DB JUMP JUMPDEST PUSH2 0x4077 JUMP JUMPDEST PUSH2 0x31D3 JUMP JUMPDEST SWAP1 POP SWAP2 SWAP1 POP JUMP JUMPDEST PUSH2 0x40AA DUP2 PUSH2 0x4080 JUMP JUMPDEST DUP3 MSTORE POP POP JUMP JUMPDEST PUSH0 PUSH1 0x40 DUP3 ADD SWAP1 POP PUSH2 0x40C3 PUSH0 DUP4 ADD DUP6 PUSH2 0x350F JUMP JUMPDEST PUSH2 0x40D0 PUSH1 0x20 DUP4 ADD DUP5 PUSH2 0x40A1 JUMP JUMPDEST SWAP4 SWAP3 POP POP POP JUMP JUMPDEST PUSH0 PUSH1 0x60 DUP3 ADD SWAP1 POP PUSH2 0x40EA PUSH0 DUP4 ADD DUP7 PUSH2 0x350F JUMP JUMPDEST PUSH2 0x40F7 PUSH1 0x20 DUP4 ADD DUP6 PUSH2 0x40A1 JUMP JUMPDEST PUSH2 0x4104 PUSH1 0x40 DUP4 ADD DUP5 PUSH2 0x350F JUMP JUMPDEST SWAP5 SWAP4 POP POP POP POP JUMP JUMPDEST PUSH32 0x54686520696E70757420616464726573732063616E6E6F74206265207A65726F PUSH0 DUP3 ADD MSTORE POP JUMP JUMPDEST PUSH0 PUSH2 0x4140 PUSH1 0x20 DUP4 PUSH2 0x395C JUMP JUMPDEST SWAP2 POP PUSH2 0x414B DUP3 PUSH2 0x410C JUMP JUMPDEST PUSH1 0x20 DUP3 ADD SWAP1 POP SWAP2 SWAP1 POP JUMP JUMPDEST PUSH0 PUSH1 0x20 DUP3 ADD SWAP1 POP DUP2 DUP2 SUB PUSH0 DUP4 ADD MSTORE PUSH2 0x416D DUP2 PUSH2 0x4134 JUMP JUMPDEST SWAP1 POP SWAP2 SWAP1 POP JUMP JUMPDEST PUSH0 PUSH1 0x40 DUP3 ADD SWAP1 POP PUSH2 0x4187 PUSH0 DUP4 ADD DUP6 PUSH2 0x32CA JUMP JUMPDEST PUSH2 0x4194 PUSH1 0x20 DUP4 ADD DUP5 PUSH2 0x3244 JUMP JUMPDEST SWAP4 SWAP3 POP POP POP JUMP JUMPDEST PUSH0 PUSH2 0x4B1 SWAP1 POP SWAP2 SWAP1 POP JUMP JUMPDEST PUSH0 DUP2 SWAP1 POP SWAP3 SWAP2 POP POP JUMP JUMPDEST PUSH0 DUP2 SWAP1 POP SWAP2 SWAP1 POP JUMP JUMPDEST PUSH2 0x41C2 DUP2 PUSH2 0x30DB JUMP JUMPDEST DUP3 MSTORE POP POP JUMP JUMPDEST PUSH0 PUSH2 0x41D3 DUP4 DUP4 PUSH2 0x41B9 JUMP JUMPDEST PUSH1 0x20 DUP4 ADD SWAP1 POP SWAP3 SWAP2 POP POP JUMP JUMPDEST PUSH0 PUSH1 0x20 DUP3 ADD SWAP1 POP SWAP2 SWAP1 POP JUMP JUMPDEST PUSH2 0x41F4 DUP2 PUSH2 0x419B JUMP JUMPDEST PUSH2 0x41FE DUP2 DUP5 PUSH2 0x41A6 JUMP JUMPDEST SWAP3 POP PUSH2 0x4209 DUP3 PUSH2 0x41B0 JUMP JUMPDEST DUP1 PUSH0 JUMPDEST DUP4 DUP2 LT ISZERO PUSH2 0x4239 JUMPI DUP2 MLOAD PUSH2 0x4220 DUP8 DUP3 PUSH2 0x41C8 JUMP JUMPDEST SWAP7 POP PUSH2 0x422B DUP4 PUSH2 0x41DF JUMP JUMPDEST SWAP3 POP POP PUSH1 0x1 DUP2 ADD SWAP1 POP PUSH2 0x420C JUMP JUMPDEST POP POP POP POP POP POP JUMP JUMPDEST PUSH2 0x424A DUP2 PUSH2 0x3162 JUMP JUMPDEST DUP3 MSTORE POP POP JUMP JUMPDEST PUSH0 PUSH2 0x9700 DUP3 ADD SWAP1 POP PUSH2 0x4264 PUSH0 DUP4 ADD DUP12 PUSH2 0x32CA JUMP JUMPDEST PUSH2 0x4271 PUSH1 0x20 DUP4 ADD DUP11 PUSH2 0x3244 JUMP JUMPDEST PUSH2 0x427E PUSH1 0x40 DUP4 ADD DUP10 PUSH2 0x350F JUMP JUMPDEST PUSH2 0x428B PUSH1 0x60 DUP4 ADD DUP9 PUSH2 0x350F JUMP JUMPDEST PUSH2 0x4298 PUSH1 0x80 DUP4 ADD DUP8 PUSH2 0x3244 JUMP JUMPDEST PUSH2 0x42A5 PUSH1 0xA0 DUP4 ADD DUP7 PUSH2 0x41EB JUMP JUMPDEST PUSH2 0x42B3 PUSH2 0x96C0 DUP4 ADD DUP6 PUSH2 0x4241 JUMP JUMPDEST PUSH2 0x42C1 PUSH2 0x96E0 DUP4 ADD DUP5 PUSH2 0x350F JUMP JUMPDEST SWAP10 SWAP9 POP POP POP POP POP POP POP POP POP JUMP JUMPDEST PUSH0 PUSH1 0x80 DUP3 ADD SWAP1 POP PUSH2 0x42E1 PUSH0 DUP4 ADD DUP8 PUSH2 0x350F JUMP JUMPDEST PUSH2 0x42EE PUSH1 0x20 DUP4 ADD DUP7 PUSH2 0x3244 JUMP JUMPDEST DUP2 DUP2 SUB PUSH1 0x40 DUP4 ADD MSTORE PUSH2 0x4300 DUP2 DUP6 PUSH2 0x38FA JUMP JUMPDEST SWAP1 POP PUSH2 0x430F PUSH1 0x60 DUP4 ADD DUP5 PUSH2 0x4241 JUMP JUMPDEST SWAP6 SWAP5 POP POP POP POP POP JUMP JUMPDEST PUSH32 0x65786563757465207065726D697373696F6E2066756E6374696F6E206661696C PUSH0 DUP3 ADD MSTORE PUSH32 0x6564000000000000000000000000000000000000000000000000000000000000 PUSH1 0x20 DUP3 ADD MSTORE POP JUMP JUMPDEST PUSH0 PUSH2 0x4372 PUSH1 0x22 DUP4 PUSH2 0x395C JUMP JUMPDEST SWAP2 POP PUSH2 0x437D DUP3 PUSH2 0x4318 JUMP JUMPDEST PUSH1 0x40 DUP3 ADD SWAP1 POP SWAP2 SWAP1 POP JUMP JUMPDEST PUSH0 PUSH1 0x20 DUP3 ADD SWAP1 POP DUP2 DUP2 SUB PUSH0 DUP4 ADD MSTORE PUSH2 0x439F DUP2 PUSH2 0x4366 JUMP JUMPDEST SWAP1 POP SWAP2 SWAP1 POP JUMP JUMPDEST PUSH0 PUSH1 0x60 DUP3 ADD SWAP1 POP PUSH2 0x43B9 PUSH0 DUP4 ADD DUP7 PUSH2 0x350F JUMP JUMPDEST PUSH2 0x43C6 PUSH1 0x20 DUP4 ADD DUP6 PUSH2 0x350F JUMP JUMPDEST PUSH2 0x43D3 PUSH1 0x40 DUP4 ADD DUP5 PUSH2 0x3244 JUMP JUMPDEST SWAP5 SWAP4 POP POP POP POP JUMP JUMPDEST PUSH32 0x5468652061646472657373206F6620746865206F776E657220616E6420746865 PUSH0 DUP3 ADD MSTORE PUSH32 0x206F70657261746F72206D75737420626520646966666572656E740000000000 PUSH1 0x20 DUP3 ADD MSTORE POP JUMP JUMPDEST PUSH0 PUSH2 0x4435 PUSH1 0x3B DUP4 PUSH2 0x395C JUMP JUMPDEST SWAP2 POP PUSH2 0x4440 DUP3 PUSH2 0x43DB JUMP JUMPDEST PUSH1 0x40 DUP3 ADD SWAP1 POP SWAP2 SWAP1 POP JUMP JUMPDEST PUSH0 PUSH1 0x20 DUP3 ADD SWAP1 POP DUP2 DUP2 SUB PUSH0 DUP4 ADD MSTORE PUSH2 0x4462 DUP2 PUSH2 0x4429 JUMP JUMPDEST SWAP1 POP SWAP2 SWAP1 POP JUMP JUMPDEST PUSH32 0x4974206973206E6F7420706F737369626C6520746F207265676973746572206E PUSH0 DUP3 ADD MSTORE PUSH32 0x6F77000000000000000000000000000000000000000000000000000000000000 PUSH1 0x20 DUP3 ADD MSTORE POP JUMP JUMPDEST PUSH0 PUSH2 0x44C3 PUSH1 0x22 DUP4 PUSH2 0x395C JUMP JUMPDEST SWAP2 POP PUSH2 0x44CE DUP3 PUSH2 0x4469 JUMP JUMPDEST PUSH1 0x40 DUP3 ADD SWAP1 POP SWAP2 SWAP1 POP JUMP JUMPDEST PUSH0 PUSH1 0x20 DUP3 ADD SWAP1 POP DUP2 DUP2 SUB PUSH0 DUP4 ADD MSTORE PUSH2 0x44F0 DUP2 PUSH2 0x44B7 JUMP JUMPDEST SWAP1 POP SWAP2 SWAP1 POP JUMP JUMPDEST PUSH32 0x5468652061646472657373206F66207468652072656769737472616E74206D75 PUSH0 DUP3 ADD MSTORE PUSH32 0x7374206E6F742062652030206F72207468652061646472657373206F66206120 PUSH1 0x20 DUP3 ADD MSTORE PUSH32 0x636F6E7472616374000000000000000000000000000000000000000000000000 PUSH1 0x40 DUP3 ADD MSTORE POP JUMP JUMPDEST PUSH0 PUSH2 0x4577 PUSH1 0x48 DUP4 PUSH2 0x395C JUMP JUMPDEST SWAP2 POP PUSH2 0x4582 DUP3 PUSH2 0x44F7 JUMP JUMPDEST PUSH1 0x60 DUP3 ADD SWAP1 POP SWAP2 SWAP1 POP JUMP JUMPDEST PUSH0 PUSH1 0x20 DUP3 ADD SWAP1 POP DUP2 DUP2 SUB PUSH0 DUP4 ADD MSTORE PUSH2 0x45A4 DUP2 PUSH2 0x456B JUMP JUMPDEST SWAP1 POP SWAP2 SWAP1 POP JUMP JUMPDEST PUSH32 0x54686520616D6F756E742073686F756C64206E6F74206265206C657373207468 PUSH0 DUP3 ADD MSTORE PUSH32 0x616E20746865206D696E74207072696365000000000000000000000000000000 PUSH1 0x20 DUP3 ADD MSTORE POP JUMP JUMPDEST PUSH0 PUSH2 0x4605 PUSH1 0x31 DUP4 PUSH2 0x395C JUMP JUMPDEST SWAP2 POP PUSH2 0x4610 DUP3 PUSH2 0x45AB JUMP JUMPDEST PUSH1 0x40 DUP3 ADD SWAP1 POP SWAP2 SWAP1 POP JUMP JUMPDEST PUSH0 PUSH1 0x20 DUP3 ADD SWAP1 POP DUP2 DUP2 SUB PUSH0 DUP4 ADD MSTORE PUSH2 0x4632 DUP2 PUSH2 0x45F9 JUMP JUMPDEST SWAP1 POP SWAP2 SWAP1 POP JUMP JUMPDEST POP JUMP JUMPDEST PUSH0 PUSH2 0x4647 PUSH0 DUP4 PUSH2 0x3F5A JUMP JUMPDEST SWAP2 POP PUSH2 0x4652 DUP3 PUSH2 0x4639 JUMP JUMPDEST PUSH0 DUP3 ADD SWAP1 POP SWAP2 SWAP1 POP JUMP JUMPDEST PUSH0 PUSH2 0x4666 DUP3 PUSH2 0x463C JUMP JUMPDEST SWAP2 POP DUP2 SWAP1 POP SWAP2 SWAP1 POP JUMP JUMPDEST PUSH32 0x54686520616D6F756E7420776173206E6F742073656E74000000000000000000 PUSH0 DUP3 ADD MSTORE POP JUMP JUMPDEST PUSH0 PUSH2 0x46A4 PUSH1 0x17 DUP4 PUSH2 0x395C JUMP JUMPDEST SWAP2 POP PUSH2 0x46AF DUP3 PUSH2 0x4670 JUMP JUMPDEST PUSH1 0x20 DUP3 ADD SWAP1 POP SWAP2 SWAP1 POP JUMP JUMPDEST PUSH0 PUSH1 0x20 DUP3 ADD SWAP1 POP DUP2 DUP2 SUB PUSH0 DUP4 ADD MSTORE PUSH2 0x46D1 DUP2 PUSH2 0x4698 JUMP JUMPDEST SWAP1 POP SWAP2 SWAP1 POP JUMP JUMPDEST PUSH0 PUSH2 0x46E2 DUP3 PUSH2 0x3952 JUMP JUMPDEST PUSH2 0x46EC DUP2 DUP6 PUSH2 0x3D65 JUMP JUMPDEST SWAP4 POP PUSH2 0x46FC DUP2 DUP6 PUSH1 0x20 DUP7 ADD PUSH2 0x38D2 JUMP JUMPDEST DUP1 DUP5 ADD SWAP2 POP POP SWAP3 SWAP2 POP POP JUMP JUMPDEST PUSH0 PUSH2 0x4713 DUP3 DUP6 PUSH2 0x46D8 JUMP JUMPDEST SWAP2 POP PUSH2 0x471F DUP3 DUP5 PUSH2 0x46D8 JUMP JUMPDEST SWAP2 POP DUP2 SWAP1 POP SWAP4 SWAP3 POP POP POP JUMP JUMPDEST PUSH32 0x6C6173745472616E736665720000000000000000000000000000000000000000 PUSH0 DUP3 ADD MSTORE POP JUMP JUMPDEST PUSH0 PUSH2 0x475F PUSH1 0xC DUP4 PUSH2 0x395C JUMP JUMPDEST SWAP2 POP PUSH2 0x476A DUP3 PUSH2 0x472B JUMP JUMPDEST PUSH1 0x20 DUP3 ADD SWAP1 POP SWAP2 SWAP1 POP JUMP JUMPDEST PUSH0 PUSH1 0x60 DUP3 ADD SWAP1 POP PUSH2 0x4788 PUSH0 DUP4 ADD DUP6 PUSH2 0x3244 JUMP JUMPDEST PUSH2 0x4795 PUSH1 0x20 DUP4 ADD DUP5 PUSH2 0x32CA JUMP JUMPDEST DUP2 DUP2 SUB PUSH1 0x40 DUP4 ADD MSTORE PUSH2 0x47A6 DUP2 PUSH2 0x4753 JUMP JUMPDEST SWAP1 POP SWAP4 SWAP3 POP POP POP JUMP JUMPDEST PUSH32 0x54686520494420656E746572656420697320696E76616C69642E204974206D75 PUSH0 DUP3 ADD MSTORE PUSH32 0x737420626520696E207468697320696E74657276616C2030203C206964203C3D PUSH1 0x20 DUP3 ADD MSTORE PUSH32 0x206D6178696D756D206D696E7461626C6520746F6B656E730000000000000000 PUSH1 0x40 DUP3 ADD MSTORE POP JUMP JUMPDEST PUSH0 PUSH2 0x482F PUSH1 0x58 DUP4 PUSH2 0x395C JUMP JUMPDEST SWAP2 POP PUSH2 0x483A DUP3 PUSH2 0x47AF JUMP JUMPDEST PUSH1 0x60 DUP3 ADD SWAP1 POP SWAP2 SWAP1 POP JUMP JUMPDEST PUSH0 PUSH1 0x20 DUP3 ADD SWAP1 POP DUP2 DUP2 SUB PUSH0 DUP4 ADD MSTORE PUSH2 0x485C DUP2 PUSH2 0x4823 JUMP JUMPDEST SWAP1 POP SWAP2 SWAP1 POP JUMP JUMPDEST PUSH0 PUSH1 0x20 DUP3 ADD SWAP1 POP PUSH2 0x4876 PUSH0 DUP4 ADD DUP5 PUSH2 0x40A1 JUMP JUMPDEST SWAP3 SWAP2 POP POP JUMP JUMPDEST PUSH0 PUSH1 0x80 DUP3 ADD SWAP1 POP PUSH2 0x488F PUSH0 DUP4 ADD DUP8 PUSH2 0x350F JUMP JUMPDEST PUSH2 0x489C PUSH1 0x20 DUP4 ADD DUP7 PUSH2 0x350F JUMP JUMPDEST PUSH2 0x48A9 PUSH1 0x40 DUP4 ADD DUP6 PUSH2 0x32CA JUMP JUMPDEST DUP2 DUP2 SUB PUSH1 0x60 DUP4 ADD MSTORE PUSH2 0x48BB DUP2 DUP5 PUSH2 0x38FA JUMP JUMPDEST SWAP1 POP SWAP6 SWAP5 POP POP POP POP POP JUMP JUMPDEST PUSH2 0x48CF DUP2 PUSH2 0x37FF JUMP JUMPDEST DUP2 EQ PUSH2 0x48D9 JUMPI PUSH0 DUP1 REVERT JUMPDEST POP JUMP JUMPDEST PUSH0 DUP2 MLOAD SWAP1 POP PUSH2 0x48EA DUP2 PUSH2 0x48C6 JUMP JUMPDEST SWAP3 SWAP2 POP POP JUMP JUMPDEST PUSH0 PUSH1 0x20 DUP3 DUP5 SUB SLT ISZERO PUSH2 0x4905 JUMPI PUSH2 0x4904 PUSH2 0x3079 JUMP JUMPDEST JUMPDEST PUSH0 PUSH2 0x4912 DUP5 DUP3 DUP6 ADD PUSH2 0x48DC JUMP JUMPDEST SWAP2 POP POP SWAP3 SWAP2 POP POP JUMP INVALID LOG2 PUSH5 0x6970667358 0x22 SLT KECCAK256 0xAD 0xCC PUSH32 0xE2F3FF9463CBE73CA06E3FC80F0A3B0CD02A3CD7AEA1060475530497E064736F PUSH13 0x63430008140033000000000000 "
		},
		"gasEstimates": {
			"creation": {
				"codeDepositCost": "3753800",
				"executionCost": "infinite",
				"totalCost": "infinite"
			},
			"external": {
				"approve(address,uint16)": "infinite",
				"balanceOf(address)": "3034",
				"getApproved(uint16)": "infinite",
				"governoraccess(address)": "662",
				"isApprovedForAll(address,address)": "infinite",
				"mint()": "infinite",
				"name()": "2497",
				"onERC721Received(address,address,uint16,bytes)": "infinite",
				"ownerOf(uint16)": "infinite",
				"safeTransferFrom(address,address,uint16)": "infinite",
				"safeTransferFrom(address,address,uint16,bytes)": "infinite",
				"setAccessAddress(address,bytes32)": "1074",
				"setApprovalForAll(address,bool)": "infinite",
				"setBallotForupdateMintInfo(uint256,address)": "infinite",
				"setBan(uint16,bool)": "infinite",
				"setRegister(uint48)": "infinite",
				"symbol()": "2569",
				"tokenURI(uint16)": "infinite",
				"transferFrom(address,address,uint16)": "infinite",
				"updateMintInfo(uint16,uint256,address,address,uint256,uint16[1201],bytes32,address)": "infinite"
			},
			"internal": {
				"_aprove(address,uint16,address)": "26307",
				"_baseURI()": "infinite",
				"_checkOnERC721Received(address,address,uint16,bytes memory)": "infinite",
				"_requireOwned(uint16)": "infinite",
				"_update(address,uint16,address)": "infinite"
			}
		},
		"methodIdentifiers": {
			"approve(address,uint16)": "e560ca43",
			"balanceOf(address)": "70a08231",
			"getApproved(uint16)": "93b871f2",
			"governoraccess(address)": "3610feb3",
			"isApprovedForAll(address,address)": "e985e9c5",
			"mint()": "1249c58b",
			"name()": "06fdde03",
			"onERC721Received(address,address,uint16,bytes)": "b1cff380",
			"ownerOf(uint16)": "82a7cf1e",
			"safeTransferFrom(address,address,uint16)": "07394401",
			"safeTransferFrom(address,address,uint16,bytes)": "b145ae31",
			"setAccessAddress(address,bytes32)": "18964eff",
			"setApprovalForAll(address,bool)": "a22cb465",
			"setBallotForupdateMintInfo(uint256,address)": "22b7b951",
			"setBan(uint16,bool)": "f12c2c7a",
			"setRegister(uint48)": "d5ebe3df",
			"symbol()": "95d89b41",
			"tokenURI(uint16)": "dd7d8440",
			"transferFrom(address,address,uint16)": "4ec3dcfe",
			"updateMintInfo(uint16,uint256,address,address,uint256,uint16[1201],bytes32,address)": "7e0dad88"
		}
	},
	"abi": [
		{
			"inputs": [
				{
					"internalType": "bytes20",
					"name": "name_",
					"type": "bytes20"
				},
				{
					"internalType": "bytes10",
					"name": "symbol_",
					"type": "bytes10"
				},
				{
					"internalType": "address",
					"name": "governance_",
					"type": "address"
				},
				{
					"internalType": "address",
					"name": "storageContract_",
					"type": "address"
				}
			],
			"stateMutability": "nonpayable",
			"type": "constructor"
		},
		{
			"inputs": [
				{
					"internalType": "address",
					"name": "sender",
					"type": "address"
				}
			],
			"name": "ERC721AccessIsNotApproved",
			"type": "error"
		},
		{
			"inputs": [
				{
					"internalType": "uint16",
					"name": "newMaxMint",
					"type": "uint16"
				}
			],
			"name": "ERC721CantMoreThan1200",
			"type": "error"
		},
		{
			"inputs": [
				{
					"internalType": "address",
					"name": "sender",
					"type": "address"
				},
				{
					"internalType": "uint256",
					"name": "tokenId",
					"type": "uint256"
				},
				{
					"internalType": "address",
					"name": "owner",
					"type": "address"
				}
			],
			"name": "ERC721IncorrectOwner",
			"type": "error"
		},
		{
			"inputs": [
				{
					"internalType": "address",
					"name": "operator",
					"type": "address"
				},
				{
					"internalType": "uint256",
					"name": "tokenId",
					"type": "uint256"
				}
			],
			"name": "ERC721InsufficientApproval",
			"type": "error"
		},
		{
			"inputs": [
				{
					"internalType": "address",
					"name": "approver",
					"type": "address"
				}
			],
			"name": "ERC721InvalidApprover",
			"type": "error"
		},
		{
			"inputs": [
				{
					"internalType": "address",
					"name": "governance",
					"type": "address"
				}
			],
			"name": "ERC721InvalidGovernanceAddress",
			"type": "error"
		},
		{
			"inputs": [
				{
					"internalType": "address",
					"name": "operator",
					"type": "address"
				}
			],
			"name": "ERC721InvalidOperator",
			"type": "error"
		},
		{
			"inputs": [
				{
					"internalType": "address",
					"name": "owner",
					"type": "address"
				}
			],
			"name": "ERC721InvalidOwner",
			"type": "error"
		},
		{
			"inputs": [
				{
					"internalType": "address",
					"name": "receiver",
					"type": "address"
				}
			],
			"name": "ERC721InvalidReceiver",
			"type": "error"
		},
		{
			"inputs": [
				{
					"internalType": "address",
					"name": "sender",
					"type": "address"
				}
			],
			"name": "ERC721InvalidSender",
			"type": "error"
		},
		{
			"inputs": [
				{
					"internalType": "uint16",
					"name": "nRegistrants",
					"type": "uint16"
				}
			],
			"name": "ERC721NoNewRegistrants",
			"type": "error"
		},
		{
			"inputs": [
				{
					"internalType": "uint256",
					"name": "tokenId",
					"type": "uint256"
				}
			],
			"name": "ERC721NonexistentToken",
			"type": "error"
		},
		{
			"inputs": [
				{
					"internalType": "uint16",
					"name": "newmaxMint",
					"type": "uint16"
				},
				{
					"internalType": "uint256",
					"name": "newregistrationStartTime",
					"type": "uint256"
				}
			],
			"name": "ERC721ParamArentAcceptable",
			"type": "error"
		},
		{
			"inputs": [
				{
					"internalType": "uint16",
					"name": "token",
					"type": "uint16"
				}
			],
			"name": "Erc721InvalidTokenInNewTokenId",
			"type": "error"
		},
		{
			"inputs": [
				{
					"internalType": "uint16",
					"name": "total",
					"type": "uint16"
				}
			],
			"name": "Erc721InvalidTotalNewTokenId",
			"type": "error"
		},
		{
			"anonymous": false,
			"inputs": [
				{
					"indexed": true,
					"internalType": "address",
					"name": "owner",
					"type": "address"
				},
				{
					"indexed": true,
					"internalType": "address",
					"name": "approved",
					"type": "address"
				},
				{
					"indexed": true,
					"internalType": "uint16",
					"name": "tokenId",
					"type": "uint16"
				}
			],
			"name": "Approval",
			"type": "event"
		},
		{
			"anonymous": false,
			"inputs": [
				{
					"indexed": true,
					"internalType": "address",
					"name": "owner",
					"type": "address"
				},
				{
					"indexed": true,
					"internalType": "address",
					"name": "operator",
					"type": "address"
				},
				{
					"indexed": false,
					"internalType": "bool",
					"name": "approved",
					"type": "bool"
				}
			],
			"name": "ApprovalForAll",
			"type": "event"
		},
		{
			"anonymous": false,
			"inputs": [
				{
					"indexed": true,
					"internalType": "address",
					"name": "from",
					"type": "address"
				},
				{
					"indexed": true,
					"internalType": "address",
					"name": "to",
					"type": "address"
				},
				{
					"indexed": true,
					"internalType": "uint16",
					"name": "tokenId",
					"type": "uint16"
				}
			],
			"name": "Transfer",
			"type": "event"
		},
		{
			"anonymous": false,
			"inputs": [
				{
					"indexed": true,
					"internalType": "uint16",
					"name": "tokenId",
					"type": "uint16"
				},
				{
					"indexed": true,
					"internalType": "uint256",
					"name": "time",
					"type": "uint256"
				}
			],
			"name": "updateActivityTimeTransfer",
			"type": "event"
		},
		{
			"anonymous": false,
			"inputs": [
				{
					"indexed": true,
					"internalType": "uint16",
					"name": "newmaxMint",
					"type": "uint16"
				},
				{
					"indexed": true,
					"internalType": "uint256",
					"name": "newregistrationStartTime",
					"type": "uint256"
				},
				{
					"indexed": false,
					"internalType": "address",
					"name": "newexecutor",
					"type": "address"
				},
				{
					"indexed": false,
					"internalType": "address",
					"name": "newbankAddress",
					"type": "address"
				},
				{
					"indexed": false,
					"internalType": "uint256",
					"name": "newmintPrice",
					"type": "uint256"
				}
			],
			"name": "updatemintInfo",
			"type": "event"
		},
		{
			"inputs": [
				{
					"internalType": "address",
					"name": "to",
					"type": "address"
				},
				{
					"internalType": "uint16",
					"name": "tokenId",
					"type": "uint16"
				}
			],
			"name": "approve",
			"outputs": [],
			"stateMutability": "nonpayable",
			"type": "function"
		},
		{
			"inputs": [
				{
					"internalType": "address",
					"name": "owner",
					"type": "address"
				}
			],
			"name": "balanceOf",
			"outputs": [
				{
					"internalType": "uint16",
					"name": "",
					"type": "uint16"
				}
			],
			"stateMutability": "view",
			"type": "function"
		},
		{
			"inputs": [
				{
					"internalType": "uint16",
					"name": "tokenId",
					"type": "uint16"
				}
			],
			"name": "getApproved",
			"outputs": [
				{
					"internalType": "address",
					"name": "",
					"type": "address"
				}
			],
			"stateMutability": "view",
			"type": "function"
		},
		{
			"inputs": [
				{
					"internalType": "address",
					"name": "",
					"type": "address"
				}
			],
			"name": "governoraccess",
			"outputs": [
				{
					"internalType": "bool",
					"name": "",
					"type": "bool"
				}
			],
			"stateMutability": "nonpayable",
			"type": "function"
		},
		{
			"inputs": [
				{
					"internalType": "address",
					"name": "owner",
					"type": "address"
				},
				{
					"internalType": "address",
					"name": "operator",
					"type": "address"
				}
			],
			"name": "isApprovedForAll",
			"outputs": [
				{
					"internalType": "bool",
					"name": "",
					"type": "bool"
				}
			],
			"stateMutability": "view",
			"type": "function"
		},
		{
			"inputs": [],
			"name": "mint",
			"outputs": [],
			"stateMutability": "nonpayable",
			"type": "function"
		},
		{
			"inputs": [],
			"name": "name",
			"outputs": [
				{
					"internalType": "bytes20",
					"name": "",
					"type": "bytes20"
				}
			],
			"stateMutability": "view",
			"type": "function"
		},
		{
			"inputs": [
				{
					"internalType": "address",
					"name": "operator",
					"type": "address"
				},
				{
					"internalType": "address",
					"name": "from",
					"type": "address"
				},
				{
					"internalType": "uint16",
					"name": "tokenId",
					"type": "uint16"
				},
				{
					"internalType": "bytes",
					"name": "data",
					"type": "bytes"
				}
			],
			"name": "onERC721Received",
			"outputs": [
				{
					"internalType": "bytes4",
					"name": "",
					"type": "bytes4"
				}
			],
			"stateMutability": "nonpayable",
			"type": "function"
		},
		{
			"inputs": [
				{
					"internalType": "uint16",
					"name": "tokenId",
					"type": "uint16"
				}
			],
			"name": "ownerOf",
			"outputs": [
				{
					"internalType": "address",
					"name": "",
					"type": "address"
				}
			],
			"stateMutability": "view",
			"type": "function"
		},
		{
			"inputs": [
				{
					"internalType": "address",
					"name": "from",
					"type": "address"
				},
				{
					"internalType": "address",
					"name": "to",
					"type": "address"
				},
				{
					"internalType": "uint16",
					"name": "tokenId",
					"type": "uint16"
				}
			],
			"name": "safeTransferFrom",
			"outputs": [],
			"stateMutability": "nonpayable",
			"type": "function"
		},
		{
			"inputs": [
				{
					"internalType": "address",
					"name": "from",
					"type": "address"
				},
				{
					"internalType": "address",
					"name": "to",
					"type": "address"
				},
				{
					"internalType": "uint16",
					"name": "tokenId",
					"type": "uint16"
				},
				{
					"internalType": "bytes",
					"name": "data",
					"type": "bytes"
				}
			],
			"name": "safeTransferFrom",
			"outputs": [],
			"stateMutability": "nonpayable",
			"type": "function"
		},
		{
			"inputs": [
				{
					"internalType": "address",
					"name": "address_",
					"type": "address"
				},
				{
					"internalType": "bytes32",
					"name": "varName",
					"type": "bytes32"
				}
			],
			"name": "setAccessAddress",
			"outputs": [],
			"stateMutability": "nonpayable",
			"type": "function"
		},
		{
			"inputs": [
				{
					"internalType": "address",
					"name": "operator",
					"type": "address"
				},
				{
					"internalType": "bool",
					"name": "approved",
					"type": "bool"
				}
			],
			"name": "setApprovalForAll",
			"outputs": [],
			"stateMutability": "nonpayable",
			"type": "function"
		},
		{
			"inputs": [
				{
					"internalType": "uint256",
					"name": "value",
					"type": "uint256"
				},
				{
					"internalType": "address",
					"name": "ballotAddress",
					"type": "address"
				}
			],
			"name": "setBallotForupdateMintInfo",
			"outputs": [
				{
					"internalType": "uint256",
					"name": "proposalId",
					"type": "uint256"
				}
			],
			"stateMutability": "nonpayable",
			"type": "function"
		},
		{
			"inputs": [
				{
					"internalType": "uint16",
					"name": "tokenId",
					"type": "uint16"
				},
				{
					"internalType": "bool",
					"name": "set_",
					"type": "bool"
				}
			],
			"name": "setBan",
			"outputs": [],
			"stateMutability": "nonpayable",
			"type": "function"
		},
		{
			"inputs": [
				{
					"internalType": "uint48",
					"name": "salt_",
					"type": "uint48"
				}
			],
			"name": "setRegister",
			"outputs": [
				{
					"internalType": "bytes",
					"name": "",
					"type": "bytes"
				}
			],
			"stateMutability": "payable",
			"type": "function"
		},
		{
			"inputs": [],
			"name": "symbol",
			"outputs": [
				{
					"internalType": "bytes10",
					"name": "",
					"type": "bytes10"
				}
			],
			"stateMutability": "view",
			"type": "function"
		},
		{
			"inputs": [
				{
					"internalType": "uint16",
					"name": "tokenId",
					"type": "uint16"
				}
			],
			"name": "tokenURI",
			"outputs": [
				{
					"internalType": "string",
					"name": "",
					"type": "string"
				}
			],
			"stateMutability": "view",
			"type": "function"
		},
		{
			"inputs": [
				{
					"internalType": "address",
					"name": "from",
					"type": "address"
				},
				{
					"internalType": "address",
					"name": "to",
					"type": "address"
				},
				{
					"internalType": "uint16",
					"name": "tokenId",
					"type": "uint16"
				}
			],
			"name": "transferFrom",
			"outputs": [],
			"stateMutability": "nonpayable",
			"type": "function"
		},
		{
			"inputs": [
				{
					"internalType": "uint16",
					"name": "newmaxMint",
					"type": "uint16"
				},
				{
					"internalType": "uint256",
					"name": "newregistrationStartTime",
					"type": "uint256"
				},
				{
					"internalType": "address",
					"name": "newexecutor",
					"type": "address"
				},
				{
					"internalType": "address",
					"name": "newbankAddress",
					"type": "address"
				},
				{
					"internalType": "uint256",
					"name": "newmintPrice",
					"type": "uint256"
				},
				{
					"internalType": "uint16[1201]",
					"name": "newTokenId",
					"type": "uint16[1201]"
				},
				{
					"internalType": "bytes32",
					"name": "descriptionHash",
					"type": "bytes32"
				},
				{
					"internalType": "address",
					"name": "governance",
					"type": "address"
				}
			],
			"name": "updateMintInfo",
			"outputs": [],
			"stateMutability": "payable",
			"type": "function"
		}
	]
}