{
	"data": {
		"bytecode": {
			"linkReferences": {},
			"object": "608060405234801562000010575f80fd5b50604051620012fb380380620012fb833981810160405281019062000036919062000145565b815f806101000a81548173ffffffffffffffffffffffffffffffffffffffff021916908360601c0217905550805f60146101000a81548169ffffffffffffffffffff021916908360b01c021790555050506200018a565b5f80fd5b5f7fffffffffffffffffffffffffffffffffffffffff00000000000000000000000082169050919050565b620000c78162000091565b8114620000d2575f80fd5b50565b5f81519050620000e581620000bc565b92915050565b5f7fffffffffffffffffffff0000000000000000000000000000000000000000000082169050919050565b6200012181620000eb565b81146200012c575f80fd5b50565b5f815190506200013f8162000116565b92915050565b5f80604083850312156200015e576200015d6200008d565b5b5f6200016d85828601620000d5565b925050602062000180858286016200012f565b9150509250929050565b61116380620001985f395ff3fe608060405234801561000f575f80fd5b5060043610610091575f3560e01c806395d89b411161006457806395d89b4114610143578063a22cb46514610161578063dd7d84401461017d578063e560ca43146101ad578063e985e9c5146101c957610091565b806306fdde031461009557806370a08231146100b357806382a7cf1e146100e357806393b871f214610113575b5f80fd5b61009d6101f9565b6040516100aa9190610b37565b60405180910390f35b6100cd60048036038101906100c89190610bae565b61020d565b6040516100da9190610bf5565b60405180910390f35b6100fd60048036038101906100f89190610c38565b6102ee565b60405161010a9190610c72565b60405180910390f35b61012d60048036038101906101289190610c38565b6102ff565b60405161013a9190610c72565b60405180910390f35b61014b61034b565b6040516101589190610cc5565b60405180910390f35b61017b60048036038101906101769190610d13565b610360565b005b61019760048036038101906101929190610c38565b61054c565b6040516101a49190610ddb565b60405180910390f35b6101c760048036038101906101c29190610dfb565b6105b6565b005b6101e360048036038101906101de9190610e39565b6105cc565b6040516101f09190610e86565b60405180910390f35b5f805f9054906101000a900460601b905090565b5f8073ffffffffffffffffffffffffffffffffffffffff168273ffffffffffffffffffffffffffffffffffffffff160361027c576040517f08c379a000000000000000000000000000000000000000000000000000000000815260040161027390610ee9565b60405180910390fd5b6104b35f8373ffffffffffffffffffffffffffffffffffffffff1673ffffffffffffffffffffffffffffffffffffffff1681526020019081526020015f205f6104b181106102cd576102cc610f07565b5b601091828204019190066002029054906101000a900461ffff169050919050565b5f6102f88261065b565b9050919050565b5f6103098261065b565b506104b45f8361ffff1661ffff1681526020019081526020015f205f9054906101000a900473ffffffffffffffffffffffffffffffffffffffff169050919050565b5f8060149054906101000a900460b01b905090565b8173ffffffffffffffffffffffffffffffffffffffff1661037f610709565b73ffffffffffffffffffffffffffffffffffffffff16036103d5576040517f08c379a00000000000000000000000000000000000000000000000000000000081526004016103cc90610fa4565b60405180910390fd5b5f73ffffffffffffffffffffffffffffffffffffffff168273ffffffffffffffffffffffffffffffffffffffff160361044557816040517f5b08ba1800000000000000000000000000000000000000000000000000000000815260040161043c9190610c72565b60405180910390fd5b806104b55f610452610709565b73ffffffffffffffffffffffffffffffffffffffff1673ffffffffffffffffffffffffffffffffffffffff1681526020019081526020015f205f8473ffffffffffffffffffffffffffffffffffffffff1673ffffffffffffffffffffffffffffffffffffffff1681526020019081526020015f205f6101000a81548160ff0219169083151502179055508173ffffffffffffffffffffffffffffffffffffffff166104fb610709565b73ffffffffffffffffffffffffffffffffffffffff167f17307eab39ab6107e8899845ad3d59bd9653f200f220920489ca2b5937696c31836040516105409190610e86565b60405180910390a35050565b60606105578261065b565b505f610561610710565b90505f81511161057f5760405180602001604052805f8152506105ae565b8061058d8461ffff16610726565b60405160200161059e929190610ffc565b6040516020818303038152906040525b915050919050565b6105c882826105c3610709565b6107f0565b5050565b5f6104b55f8473ffffffffffffffffffffffffffffffffffffffff1673ffffffffffffffffffffffffffffffffffffffff1681526020019081526020015f205f8373ffffffffffffffffffffffffffffffffffffffff1673ffffffffffffffffffffffffffffffffffffffff1681526020019081526020015f205f9054906101000a900460ff16905092915050565b5f8161ffff165f108015610689575060015f0160029054906101000a900461ffff1661ffff168261ffff1611155b6106c8576040517f08c379a00000000000000000000000000000000000000000000000000000000081526004016106bf906110b5565b60405180910390fd5b60028261ffff166104b181106106e1576106e0610f07565b5b015f9054906101000a900473ffffffffffffffffffffffffffffffffffffffff169050919050565b5f33905090565b606060405180602001604052805f815250905090565b60605f6001610734846109ac565b0190505f8167ffffffffffffffff811115610752576107516110d3565b5b6040519080825280601f01601f1916602001820160405280156107845781602001600182028036833780820191505090505b5090505f82602001820190505b6001156107e5578080600190039150507f3031323334353637383961626364656600000000000000000000000000000000600a86061a8153600a85816107da576107d9611100565b5b0494505f8503610791575b819350505050919050565b5f6107fa8361065b565b90508373ffffffffffffffffffffffffffffffffffffffff168173ffffffffffffffffffffffffffffffffffffffff160361086a576040517f08c379a000000000000000000000000000000000000000000000000000000000815260040161086190610fa4565b60405180910390fd5b8173ffffffffffffffffffffffffffffffffffffffff168173ffffffffffffffffffffffffffffffffffffffff16141580156108ad57506108ab81836105cc565b155b156108ef57816040517fa9fbf51f0000000000000000000000000000000000000000000000000000000081526004016108e69190610c72565b60405180910390fd5b836104b45f8561ffff1661ffff1681526020019081526020015f205f6101000a81548173ffffffffffffffffffffffffffffffffffffffff021916908373ffffffffffffffffffffffffffffffffffffffff1602179055508261ffff168473ffffffffffffffffffffffffffffffffffffffff168273ffffffffffffffffffffffffffffffffffffffff167f0a9d294fd4bd42bb30e96cba2b478d149a783fba3c729b1e5c42bec89d95b85a60405160405180910390a450505050565b5f805f90507a184f03e93ff9f4daa797ed6e38ed64bf6a1f0100000000000000008310610a08577a184f03e93ff9f4daa797ed6e38ed64bf6a1f01000000000000000083816109fe576109fd611100565b5b0492506040810190505b6d04ee2d6d415b85acef81000000008310610a45576d04ee2d6d415b85acef81000000008381610a3b57610a3a611100565b5b0492506020810190505b662386f26fc100008310610a7457662386f26fc100008381610a6a57610a69611100565b5b0492506010810190505b6305f5e1008310610a9d576305f5e1008381610a9357610a92611100565b5b0492506008810190505b6127108310610ac2576127108381610ab857610ab7611100565b5b0492506004810190505b60648310610ae55760648381610adb57610ada611100565b5b0492506002810190505b600a8310610af4576001810190505b80915050919050565b5f7fffffffffffffffffffffffffffffffffffffffff00000000000000000000000082169050919050565b610b3181610afd565b82525050565b5f602082019050610b4a5f830184610b28565b92915050565b5f80fd5b5f73ffffffffffffffffffffffffffffffffffffffff82169050919050565b5f610b7d82610b54565b9050919050565b610b8d81610b73565b8114610b97575f80fd5b50565b5f81359050610ba881610b84565b92915050565b5f60208284031215610bc357610bc2610b50565b5b5f610bd084828501610b9a565b91505092915050565b5f61ffff82169050919050565b610bef81610bd9565b82525050565b5f602082019050610c085f830184610be6565b92915050565b610c1781610bd9565b8114610c21575f80fd5b50565b5f81359050610c3281610c0e565b92915050565b5f60208284031215610c4d57610c4c610b50565b5b5f610c5a84828501610c24565b91505092915050565b610c6c81610b73565b82525050565b5f602082019050610c855f830184610c63565b92915050565b5f7fffffffffffffffffffff0000000000000000000000000000000000000000000082169050919050565b610cbf81610c8b565b82525050565b5f602082019050610cd85f830184610cb6565b92915050565b5f8115159050919050565b610cf281610cde565b8114610cfc575f80fd5b50565b5f81359050610d0d81610ce9565b92915050565b5f8060408385031215610d2957610d28610b50565b5b5f610d3685828601610b9a565b9250506020610d4785828601610cff565b9150509250929050565b5f81519050919050565b5f82825260208201905092915050565b5f5b83811015610d88578082015181840152602081019050610d6d565b5f8484015250505050565b5f601f19601f8301169050919050565b5f610dad82610d51565b610db78185610d5b565b9350610dc7818560208601610d6b565b610dd081610d93565b840191505092915050565b5f6020820190508181035f830152610df38184610da3565b905092915050565b5f8060408385031215610e1157610e10610b50565b5b5f610e1e85828601610b9a565b9250506020610e2f85828601610c24565b9150509250929050565b5f8060408385031215610e4f57610e4e610b50565b5b5f610e5c85828601610b9a565b9250506020610e6d85828601610b9a565b9150509250929050565b610e8081610cde565b82525050565b5f602082019050610e995f830184610e77565b92915050565b7f54686520696e70757420616464726573732063616e6e6f74206265207a65726f5f82015250565b5f610ed3602083610d5b565b9150610ede82610e9f565b602082019050919050565b5f6020820190508181035f830152610f0081610ec7565b9050919050565b7f4e487b71000000000000000000000000000000000000000000000000000000005f52603260045260245ffd5b7f5468652061646472657373206f6620746865206f776e657220616e64207468655f8201527f206f70657261746f72206d75737420626520646966666572656e740000000000602082015250565b5f610f8e603b83610d5b565b9150610f9982610f34565b604082019050919050565b5f6020820190508181035f830152610fbb81610f82565b9050919050565b5f81905092915050565b5f610fd682610d51565b610fe08185610fc2565b9350610ff0818560208601610d6b565b80840191505092915050565b5f6110078285610fcc565b91506110138284610fcc565b91508190509392505050565b7f54686520494420656e746572656420697320696e76616c69642e204974206d755f8201527f737420626520696e207468697320696e74657276616c2030203c206964203c3d60208201527f2063757272656e7420746f6b656e730000000000000000000000000000000000604082015250565b5f61109f604f83610d5b565b91506110aa8261101f565b606082019050919050565b5f6020820190508181035f8301526110cc81611093565b9050919050565b7f4e487b71000000000000000000000000000000000000000000000000000000005f52604160045260245ffd5b7f4e487b71000000000000000000000000000000000000000000000000000000005f52601260045260245ffdfea264697066735822122074227527dc031273894aa7740043449d768f84101047a6454aacb3e2c9c0da8d64736f6c63430008140033",
			"opcodes": "PUSH1 0x80 PUSH1 0x40 MSTORE CALLVALUE DUP1 ISZERO PUSH3 0x10 JUMPI PUSH0 DUP1 REVERT JUMPDEST POP PUSH1 0x40 MLOAD PUSH3 0x12FB CODESIZE SUB DUP1 PUSH3 0x12FB DUP4 CODECOPY DUP2 DUP2 ADD PUSH1 0x40 MSTORE DUP2 ADD SWAP1 PUSH3 0x36 SWAP2 SWAP1 PUSH3 0x145 JUMP JUMPDEST DUP2 PUSH0 DUP1 PUSH2 0x100 EXP DUP2 SLOAD DUP2 PUSH20 0xFFFFFFFFFFFFFFFFFFFFFFFFFFFFFFFFFFFFFFFF MUL NOT AND SWAP1 DUP4 PUSH1 0x60 SHR MUL OR SWAP1 SSTORE POP DUP1 PUSH0 PUSH1 0x14 PUSH2 0x100 EXP DUP2 SLOAD DUP2 PUSH10 0xFFFFFFFFFFFFFFFFFFFF MUL NOT AND SWAP1 DUP4 PUSH1 0xB0 SHR MUL OR SWAP1 SSTORE POP POP POP PUSH3 0x18A JUMP JUMPDEST PUSH0 DUP1 REVERT JUMPDEST PUSH0 PUSH32 0xFFFFFFFFFFFFFFFFFFFFFFFFFFFFFFFFFFFFFFFF000000000000000000000000 DUP3 AND SWAP1 POP SWAP2 SWAP1 POP JUMP JUMPDEST PUSH3 0xC7 DUP2 PUSH3 0x91 JUMP JUMPDEST DUP2 EQ PUSH3 0xD2 JUMPI PUSH0 DUP1 REVERT JUMPDEST POP JUMP JUMPDEST PUSH0 DUP2 MLOAD SWAP1 POP PUSH3 0xE5 DUP2 PUSH3 0xBC JUMP JUMPDEST SWAP3 SWAP2 POP POP JUMP JUMPDEST PUSH0 PUSH32 0xFFFFFFFFFFFFFFFFFFFF00000000000000000000000000000000000000000000 DUP3 AND SWAP1 POP SWAP2 SWAP1 POP JUMP JUMPDEST PUSH3 0x121 DUP2 PUSH3 0xEB JUMP JUMPDEST DUP2 EQ PUSH3 0x12C JUMPI PUSH0 DUP1 REVERT JUMPDEST POP JUMP JUMPDEST PUSH0 DUP2 MLOAD SWAP1 POP PUSH3 0x13F DUP2 PUSH3 0x116 JUMP JUMPDEST SWAP3 SWAP2 POP POP JUMP JUMPDEST PUSH0 DUP1 PUSH1 0x40 DUP4 DUP6 SUB SLT ISZERO PUSH3 0x15E JUMPI PUSH3 0x15D PUSH3 0x8D JUMP JUMPDEST JUMPDEST PUSH0 PUSH3 0x16D DUP6 DUP3 DUP7 ADD PUSH3 0xD5 JUMP JUMPDEST SWAP3 POP POP PUSH1 0x20 PUSH3 0x180 DUP6 DUP3 DUP7 ADD PUSH3 0x12F JUMP JUMPDEST SWAP2 POP POP SWAP3 POP SWAP3 SWAP1 POP JUMP JUMPDEST PUSH2 0x1163 DUP1 PUSH3 0x198 PUSH0 CODECOPY PUSH0 RETURN INVALID PUSH1 0x80 PUSH1 0x40 MSTORE CALLVALUE DUP1 ISZERO PUSH2 0xF JUMPI PUSH0 DUP1 REVERT JUMPDEST POP PUSH1 0x4 CALLDATASIZE LT PUSH2 0x91 JUMPI PUSH0 CALLDATALOAD PUSH1 0xE0 SHR DUP1 PUSH4 0x95D89B41 GT PUSH2 0x64 JUMPI DUP1 PUSH4 0x95D89B41 EQ PUSH2 0x143 JUMPI DUP1 PUSH4 0xA22CB465 EQ PUSH2 0x161 JUMPI DUP1 PUSH4 0xDD7D8440 EQ PUSH2 0x17D JUMPI DUP1 PUSH4 0xE560CA43 EQ PUSH2 0x1AD JUMPI DUP1 PUSH4 0xE985E9C5 EQ PUSH2 0x1C9 JUMPI PUSH2 0x91 JUMP JUMPDEST DUP1 PUSH4 0x6FDDE03 EQ PUSH2 0x95 JUMPI DUP1 PUSH4 0x70A08231 EQ PUSH2 0xB3 JUMPI DUP1 PUSH4 0x82A7CF1E EQ PUSH2 0xE3 JUMPI DUP1 PUSH4 0x93B871F2 EQ PUSH2 0x113 JUMPI JUMPDEST PUSH0 DUP1 REVERT JUMPDEST PUSH2 0x9D PUSH2 0x1F9 JUMP JUMPDEST PUSH1 0x40 MLOAD PUSH2 0xAA SWAP2 SWAP1 PUSH2 0xB37 JUMP JUMPDEST PUSH1 0x40 MLOAD DUP1 SWAP2 SUB SWAP1 RETURN JUMPDEST PUSH2 0xCD PUSH1 0x4 DUP1 CALLDATASIZE SUB DUP2 ADD SWAP1 PUSH2 0xC8 SWAP2 SWAP1 PUSH2 0xBAE JUMP JUMPDEST PUSH2 0x20D JUMP JUMPDEST PUSH1 0x40 MLOAD PUSH2 0xDA SWAP2 SWAP1 PUSH2 0xBF5 JUMP JUMPDEST PUSH1 0x40 MLOAD DUP1 SWAP2 SUB SWAP1 RETURN JUMPDEST PUSH2 0xFD PUSH1 0x4 DUP1 CALLDATASIZE SUB DUP2 ADD SWAP1 PUSH2 0xF8 SWAP2 SWAP1 PUSH2 0xC38 JUMP JUMPDEST PUSH2 0x2EE JUMP JUMPDEST PUSH1 0x40 MLOAD PUSH2 0x10A SWAP2 SWAP1 PUSH2 0xC72 JUMP JUMPDEST PUSH1 0x40 MLOAD DUP1 SWAP2 SUB SWAP1 RETURN JUMPDEST PUSH2 0x12D PUSH1 0x4 DUP1 CALLDATASIZE SUB DUP2 ADD SWAP1 PUSH2 0x128 SWAP2 SWAP1 PUSH2 0xC38 JUMP JUMPDEST PUSH2 0x2FF JUMP JUMPDEST PUSH1 0x40 MLOAD PUSH2 0x13A SWAP2 SWAP1 PUSH2 0xC72 JUMP JUMPDEST PUSH1 0x40 MLOAD DUP1 SWAP2 SUB SWAP1 RETURN JUMPDEST PUSH2 0x14B PUSH2 0x34B JUMP JUMPDEST PUSH1 0x40 MLOAD PUSH2 0x158 SWAP2 SWAP1 PUSH2 0xCC5 JUMP JUMPDEST PUSH1 0x40 MLOAD DUP1 SWAP2 SUB SWAP1 RETURN JUMPDEST PUSH2 0x17B PUSH1 0x4 DUP1 CALLDATASIZE SUB DUP2 ADD SWAP1 PUSH2 0x176 SWAP2 SWAP1 PUSH2 0xD13 JUMP JUMPDEST PUSH2 0x360 JUMP JUMPDEST STOP JUMPDEST PUSH2 0x197 PUSH1 0x4 DUP1 CALLDATASIZE SUB DUP2 ADD SWAP1 PUSH2 0x192 SWAP2 SWAP1 PUSH2 0xC38 JUMP JUMPDEST PUSH2 0x54C JUMP JUMPDEST PUSH1 0x40 MLOAD PUSH2 0x1A4 SWAP2 SWAP1 PUSH2 0xDDB JUMP JUMPDEST PUSH1 0x40 MLOAD DUP1 SWAP2 SUB SWAP1 RETURN JUMPDEST PUSH2 0x1C7 PUSH1 0x4 DUP1 CALLDATASIZE SUB DUP2 ADD SWAP1 PUSH2 0x1C2 SWAP2 SWAP1 PUSH2 0xDFB JUMP JUMPDEST PUSH2 0x5B6 JUMP JUMPDEST STOP JUMPDEST PUSH2 0x1E3 PUSH1 0x4 DUP1 CALLDATASIZE SUB DUP2 ADD SWAP1 PUSH2 0x1DE SWAP2 SWAP1 PUSH2 0xE39 JUMP JUMPDEST PUSH2 0x5CC JUMP JUMPDEST PUSH1 0x40 MLOAD PUSH2 0x1F0 SWAP2 SWAP1 PUSH2 0xE86 JUMP JUMPDEST PUSH1 0x40 MLOAD DUP1 SWAP2 SUB SWAP1 RETURN JUMPDEST PUSH0 DUP1 PUSH0 SWAP1 SLOAD SWAP1 PUSH2 0x100 EXP SWAP1 DIV PUSH1 0x60 SHL SWAP1 POP SWAP1 JUMP JUMPDEST PUSH0 DUP1 PUSH20 0xFFFFFFFFFFFFFFFFFFFFFFFFFFFFFFFFFFFFFFFF AND DUP3 PUSH20 0xFFFFFFFFFFFFFFFFFFFFFFFFFFFFFFFFFFFFFFFF AND SUB PUSH2 0x27C JUMPI PUSH1 0x40 MLOAD PUSH32 0x8C379A000000000000000000000000000000000000000000000000000000000 DUP2 MSTORE PUSH1 0x4 ADD PUSH2 0x273 SWAP1 PUSH2 0xEE9 JUMP JUMPDEST PUSH1 0x40 MLOAD DUP1 SWAP2 SUB SWAP1 REVERT JUMPDEST PUSH2 0x4B3 PUSH0 DUP4 PUSH20 0xFFFFFFFFFFFFFFFFFFFFFFFFFFFFFFFFFFFFFFFF AND PUSH20 0xFFFFFFFFFFFFFFFFFFFFFFFFFFFFFFFFFFFFFFFF AND DUP2 MSTORE PUSH1 0x20 ADD SWAP1 DUP2 MSTORE PUSH1 0x20 ADD PUSH0 KECCAK256 PUSH0 PUSH2 0x4B1 DUP2 LT PUSH2 0x2CD JUMPI PUSH2 0x2CC PUSH2 0xF07 JUMP JUMPDEST JUMPDEST PUSH1 0x10 SWAP2 DUP3 DUP3 DIV ADD SWAP2 SWAP1 MOD PUSH1 0x2 MUL SWAP1 SLOAD SWAP1 PUSH2 0x100 EXP SWAP1 DIV PUSH2 0xFFFF AND SWAP1 POP SWAP2 SWAP1 POP JUMP JUMPDEST PUSH0 PUSH2 0x2F8 DUP3 PUSH2 0x65B JUMP JUMPDEST SWAP1 POP SWAP2 SWAP1 POP JUMP JUMPDEST PUSH0 PUSH2 0x309 DUP3 PUSH2 0x65B JUMP JUMPDEST POP PUSH2 0x4B4 PUSH0 DUP4 PUSH2 0xFFFF AND PUSH2 0xFFFF AND DUP2 MSTORE PUSH1 0x20 ADD SWAP1 DUP2 MSTORE PUSH1 0x20 ADD PUSH0 KECCAK256 PUSH0 SWAP1 SLOAD SWAP1 PUSH2 0x100 EXP SWAP1 DIV PUSH20 0xFFFFFFFFFFFFFFFFFFFFFFFFFFFFFFFFFFFFFFFF AND SWAP1 POP SWAP2 SWAP1 POP JUMP JUMPDEST PUSH0 DUP1 PUSH1 0x14 SWAP1 SLOAD SWAP1 PUSH2 0x100 EXP SWAP1 DIV PUSH1 0xB0 SHL SWAP1 POP SWAP1 JUMP JUMPDEST DUP2 PUSH20 0xFFFFFFFFFFFFFFFFFFFFFFFFFFFFFFFFFFFFFFFF AND PUSH2 0x37F PUSH2 0x709 JUMP JUMPDEST PUSH20 0xFFFFFFFFFFFFFFFFFFFFFFFFFFFFFFFFFFFFFFFF AND SUB PUSH2 0x3D5 JUMPI PUSH1 0x40 MLOAD PUSH32 0x8C379A000000000000000000000000000000000000000000000000000000000 DUP2 MSTORE PUSH1 0x4 ADD PUSH2 0x3CC SWAP1 PUSH2 0xFA4 JUMP JUMPDEST PUSH1 0x40 MLOAD DUP1 SWAP2 SUB SWAP1 REVERT JUMPDEST PUSH0 PUSH20 0xFFFFFFFFFFFFFFFFFFFFFFFFFFFFFFFFFFFFFFFF AND DUP3 PUSH20 0xFFFFFFFFFFFFFFFFFFFFFFFFFFFFFFFFFFFFFFFF AND SUB PUSH2 0x445 JUMPI DUP2 PUSH1 0x40 MLOAD PUSH32 0x5B08BA1800000000000000000000000000000000000000000000000000000000 DUP2 MSTORE PUSH1 0x4 ADD PUSH2 0x43C SWAP2 SWAP1 PUSH2 0xC72 JUMP JUMPDEST PUSH1 0x40 MLOAD DUP1 SWAP2 SUB SWAP1 REVERT JUMPDEST DUP1 PUSH2 0x4B5 PUSH0 PUSH2 0x452 PUSH2 0x709 JUMP JUMPDEST PUSH20 0xFFFFFFFFFFFFFFFFFFFFFFFFFFFFFFFFFFFFFFFF AND PUSH20 0xFFFFFFFFFFFFFFFFFFFFFFFFFFFFFFFFFFFFFFFF AND DUP2 MSTORE PUSH1 0x20 ADD SWAP1 DUP2 MSTORE PUSH1 0x20 ADD PUSH0 KECCAK256 PUSH0 DUP5 PUSH20 0xFFFFFFFFFFFFFFFFFFFFFFFFFFFFFFFFFFFFFFFF AND PUSH20 0xFFFFFFFFFFFFFFFFFFFFFFFFFFFFFFFFFFFFFFFF AND DUP2 MSTORE PUSH1 0x20 ADD SWAP1 DUP2 MSTORE PUSH1 0x20 ADD PUSH0 KECCAK256 PUSH0 PUSH2 0x100 EXP DUP2 SLOAD DUP2 PUSH1 0xFF MUL NOT AND SWAP1 DUP4 ISZERO ISZERO MUL OR SWAP1 SSTORE POP DUP2 PUSH20 0xFFFFFFFFFFFFFFFFFFFFFFFFFFFFFFFFFFFFFFFF AND PUSH2 0x4FB PUSH2 0x709 JUMP JUMPDEST PUSH20 0xFFFFFFFFFFFFFFFFFFFFFFFFFFFFFFFFFFFFFFFF AND PUSH32 0x17307EAB39AB6107E8899845AD3D59BD9653F200F220920489CA2B5937696C31 DUP4 PUSH1 0x40 MLOAD PUSH2 0x540 SWAP2 SWAP1 PUSH2 0xE86 JUMP JUMPDEST PUSH1 0x40 MLOAD DUP1 SWAP2 SUB SWAP1 LOG3 POP POP JUMP JUMPDEST PUSH1 0x60 PUSH2 0x557 DUP3 PUSH2 0x65B JUMP JUMPDEST POP PUSH0 PUSH2 0x561 PUSH2 0x710 JUMP JUMPDEST SWAP1 POP PUSH0 DUP2 MLOAD GT PUSH2 0x57F JUMPI PUSH1 0x40 MLOAD DUP1 PUSH1 0x20 ADD PUSH1 0x40 MSTORE DUP1 PUSH0 DUP2 MSTORE POP PUSH2 0x5AE JUMP JUMPDEST DUP1 PUSH2 0x58D DUP5 PUSH2 0xFFFF AND PUSH2 0x726 JUMP JUMPDEST PUSH1 0x40 MLOAD PUSH1 0x20 ADD PUSH2 0x59E SWAP3 SWAP2 SWAP1 PUSH2 0xFFC JUMP JUMPDEST PUSH1 0x40 MLOAD PUSH1 0x20 DUP2 DUP4 SUB SUB DUP2 MSTORE SWAP1 PUSH1 0x40 MSTORE JUMPDEST SWAP2 POP POP SWAP2 SWAP1 POP JUMP JUMPDEST PUSH2 0x5C8 DUP3 DUP3 PUSH2 0x5C3 PUSH2 0x709 JUMP JUMPDEST PUSH2 0x7F0 JUMP JUMPDEST POP POP JUMP JUMPDEST PUSH0 PUSH2 0x4B5 PUSH0 DUP5 PUSH20 0xFFFFFFFFFFFFFFFFFFFFFFFFFFFFFFFFFFFFFFFF AND PUSH20 0xFFFFFFFFFFFFFFFFFFFFFFFFFFFFFFFFFFFFFFFF AND DUP2 MSTORE PUSH1 0x20 ADD SWAP1 DUP2 MSTORE PUSH1 0x20 ADD PUSH0 KECCAK256 PUSH0 DUP4 PUSH20 0xFFFFFFFFFFFFFFFFFFFFFFFFFFFFFFFFFFFFFFFF AND PUSH20 0xFFFFFFFFFFFFFFFFFFFFFFFFFFFFFFFFFFFFFFFF AND DUP2 MSTORE PUSH1 0x20 ADD SWAP1 DUP2 MSTORE PUSH1 0x20 ADD PUSH0 KECCAK256 PUSH0 SWAP1 SLOAD SWAP1 PUSH2 0x100 EXP SWAP1 DIV PUSH1 0xFF AND SWAP1 POP SWAP3 SWAP2 POP POP JUMP JUMPDEST PUSH0 DUP2 PUSH2 0xFFFF AND PUSH0 LT DUP1 ISZERO PUSH2 0x689 JUMPI POP PUSH1 0x1 PUSH0 ADD PUSH1 0x2 SWAP1 SLOAD SWAP1 PUSH2 0x100 EXP SWAP1 DIV PUSH2 0xFFFF AND PUSH2 0xFFFF AND DUP3 PUSH2 0xFFFF AND GT ISZERO JUMPDEST PUSH2 0x6C8 JUMPI PUSH1 0x40 MLOAD PUSH32 0x8C379A000000000000000000000000000000000000000000000000000000000 DUP2 MSTORE PUSH1 0x4 ADD PUSH2 0x6BF SWAP1 PUSH2 0x10B5 JUMP JUMPDEST PUSH1 0x40 MLOAD DUP1 SWAP2 SUB SWAP1 REVERT JUMPDEST PUSH1 0x2 DUP3 PUSH2 0xFFFF AND PUSH2 0x4B1 DUP2 LT PUSH2 0x6E1 JUMPI PUSH2 0x6E0 PUSH2 0xF07 JUMP JUMPDEST JUMPDEST ADD PUSH0 SWAP1 SLOAD SWAP1 PUSH2 0x100 EXP SWAP1 DIV PUSH20 0xFFFFFFFFFFFFFFFFFFFFFFFFFFFFFFFFFFFFFFFF AND SWAP1 POP SWAP2 SWAP1 POP JUMP JUMPDEST PUSH0 CALLER SWAP1 POP SWAP1 JUMP JUMPDEST PUSH1 0x60 PUSH1 0x40 MLOAD DUP1 PUSH1 0x20 ADD PUSH1 0x40 MSTORE DUP1 PUSH0 DUP2 MSTORE POP SWAP1 POP SWAP1 JUMP JUMPDEST PUSH1 0x60 PUSH0 PUSH1 0x1 PUSH2 0x734 DUP5 PUSH2 0x9AC JUMP JUMPDEST ADD SWAP1 POP PUSH0 DUP2 PUSH8 0xFFFFFFFFFFFFFFFF DUP2 GT ISZERO PUSH2 0x752 JUMPI PUSH2 0x751 PUSH2 0x10D3 JUMP JUMPDEST JUMPDEST PUSH1 0x40 MLOAD SWAP1 DUP1 DUP3 MSTORE DUP1 PUSH1 0x1F ADD PUSH1 0x1F NOT AND PUSH1 0x20 ADD DUP3 ADD PUSH1 0x40 MSTORE DUP1 ISZERO PUSH2 0x784 JUMPI DUP2 PUSH1 0x20 ADD PUSH1 0x1 DUP3 MUL DUP1 CALLDATASIZE DUP4 CALLDATACOPY DUP1 DUP3 ADD SWAP2 POP POP SWAP1 POP JUMPDEST POP SWAP1 POP PUSH0 DUP3 PUSH1 0x20 ADD DUP3 ADD SWAP1 POP JUMPDEST PUSH1 0x1 ISZERO PUSH2 0x7E5 JUMPI DUP1 DUP1 PUSH1 0x1 SWAP1 SUB SWAP2 POP POP PUSH32 0x3031323334353637383961626364656600000000000000000000000000000000 PUSH1 0xA DUP7 MOD BYTE DUP2 MSTORE8 PUSH1 0xA DUP6 DUP2 PUSH2 0x7DA JUMPI PUSH2 0x7D9 PUSH2 0x1100 JUMP JUMPDEST JUMPDEST DIV SWAP5 POP PUSH0 DUP6 SUB PUSH2 0x791 JUMPI JUMPDEST DUP2 SWAP4 POP POP POP POP SWAP2 SWAP1 POP JUMP JUMPDEST PUSH0 PUSH2 0x7FA DUP4 PUSH2 0x65B JUMP JUMPDEST SWAP1 POP DUP4 PUSH20 0xFFFFFFFFFFFFFFFFFFFFFFFFFFFFFFFFFFFFFFFF AND DUP2 PUSH20 0xFFFFFFFFFFFFFFFFFFFFFFFFFFFFFFFFFFFFFFFF AND SUB PUSH2 0x86A JUMPI PUSH1 0x40 MLOAD PUSH32 0x8C379A000000000000000000000000000000000000000000000000000000000 DUP2 MSTORE PUSH1 0x4 ADD PUSH2 0x861 SWAP1 PUSH2 0xFA4 JUMP JUMPDEST PUSH1 0x40 MLOAD DUP1 SWAP2 SUB SWAP1 REVERT JUMPDEST DUP2 PUSH20 0xFFFFFFFFFFFFFFFFFFFFFFFFFFFFFFFFFFFFFFFF AND DUP2 PUSH20 0xFFFFFFFFFFFFFFFFFFFFFFFFFFFFFFFFFFFFFFFF AND EQ ISZERO DUP1 ISZERO PUSH2 0x8AD JUMPI POP PUSH2 0x8AB DUP2 DUP4 PUSH2 0x5CC JUMP JUMPDEST ISZERO JUMPDEST ISZERO PUSH2 0x8EF JUMPI DUP2 PUSH1 0x40 MLOAD PUSH32 0xA9FBF51F00000000000000000000000000000000000000000000000000000000 DUP2 MSTORE PUSH1 0x4 ADD PUSH2 0x8E6 SWAP2 SWAP1 PUSH2 0xC72 JUMP JUMPDEST PUSH1 0x40 MLOAD DUP1 SWAP2 SUB SWAP1 REVERT JUMPDEST DUP4 PUSH2 0x4B4 PUSH0 DUP6 PUSH2 0xFFFF AND PUSH2 0xFFFF AND DUP2 MSTORE PUSH1 0x20 ADD SWAP1 DUP2 MSTORE PUSH1 0x20 ADD PUSH0 KECCAK256 PUSH0 PUSH2 0x100 EXP DUP2 SLOAD DUP2 PUSH20 0xFFFFFFFFFFFFFFFFFFFFFFFFFFFFFFFFFFFFFFFF MUL NOT AND SWAP1 DUP4 PUSH20 0xFFFFFFFFFFFFFFFFFFFFFFFFFFFFFFFFFFFFFFFF AND MUL OR SWAP1 SSTORE POP DUP3 PUSH2 0xFFFF AND DUP5 PUSH20 0xFFFFFFFFFFFFFFFFFFFFFFFFFFFFFFFFFFFFFFFF AND DUP3 PUSH20 0xFFFFFFFFFFFFFFFFFFFFFFFFFFFFFFFFFFFFFFFF AND PUSH32 0xA9D294FD4BD42BB30E96CBA2B478D149A783FBA3C729B1E5C42BEC89D95B85A PUSH1 0x40 MLOAD PUSH1 0x40 MLOAD DUP1 SWAP2 SUB SWAP1 LOG4 POP POP POP POP JUMP JUMPDEST PUSH0 DUP1 PUSH0 SWAP1 POP PUSH27 0x184F03E93FF9F4DAA797ED6E38ED64BF6A1F010000000000000000 DUP4 LT PUSH2 0xA08 JUMPI PUSH27 0x184F03E93FF9F4DAA797ED6E38ED64BF6A1F010000000000000000 DUP4 DUP2 PUSH2 0x9FE JUMPI PUSH2 0x9FD PUSH2 0x1100 JUMP JUMPDEST JUMPDEST DIV SWAP3 POP PUSH1 0x40 DUP2 ADD SWAP1 POP JUMPDEST PUSH14 0x4EE2D6D415B85ACEF8100000000 DUP4 LT PUSH2 0xA45 JUMPI PUSH14 0x4EE2D6D415B85ACEF8100000000 DUP4 DUP2 PUSH2 0xA3B JUMPI PUSH2 0xA3A PUSH2 0x1100 JUMP JUMPDEST JUMPDEST DIV SWAP3 POP PUSH1 0x20 DUP2 ADD SWAP1 POP JUMPDEST PUSH7 0x2386F26FC10000 DUP4 LT PUSH2 0xA74 JUMPI PUSH7 0x2386F26FC10000 DUP4 DUP2 PUSH2 0xA6A JUMPI PUSH2 0xA69 PUSH2 0x1100 JUMP JUMPDEST JUMPDEST DIV SWAP3 POP PUSH1 0x10 DUP2 ADD SWAP1 POP JUMPDEST PUSH4 0x5F5E100 DUP4 LT PUSH2 0xA9D JUMPI PUSH4 0x5F5E100 DUP4 DUP2 PUSH2 0xA93 JUMPI PUSH2 0xA92 PUSH2 0x1100 JUMP JUMPDEST JUMPDEST DIV SWAP3 POP PUSH1 0x8 DUP2 ADD SWAP1 POP JUMPDEST PUSH2 0x2710 DUP4 LT PUSH2 0xAC2 JUMPI PUSH2 0x2710 DUP4 DUP2 PUSH2 0xAB8 JUMPI PUSH2 0xAB7 PUSH2 0x1100 JUMP JUMPDEST JUMPDEST DIV SWAP3 POP PUSH1 0x4 DUP2 ADD SWAP1 POP JUMPDEST PUSH1 0x64 DUP4 LT PUSH2 0xAE5 JUMPI PUSH1 0x64 DUP4 DUP2 PUSH2 0xADB JUMPI PUSH2 0xADA PUSH2 0x1100 JUMP JUMPDEST JUMPDEST DIV SWAP3 POP PUSH1 0x2 DUP2 ADD SWAP1 POP JUMPDEST PUSH1 0xA DUP4 LT PUSH2 0xAF4 JUMPI PUSH1 0x1 DUP2 ADD SWAP1 POP JUMPDEST DUP1 SWAP2 POP POP SWAP2 SWAP1 POP JUMP JUMPDEST PUSH0 PUSH32 0xFFFFFFFFFFFFFFFFFFFFFFFFFFFFFFFFFFFFFFFF000000000000000000000000 DUP3 AND SWAP1 POP SWAP2 SWAP1 POP JUMP JUMPDEST PUSH2 0xB31 DUP2 PUSH2 0xAFD JUMP JUMPDEST DUP3 MSTORE POP POP JUMP JUMPDEST PUSH0 PUSH1 0x20 DUP3 ADD SWAP1 POP PUSH2 0xB4A PUSH0 DUP4 ADD DUP5 PUSH2 0xB28 JUMP JUMPDEST SWAP3 SWAP2 POP POP JUMP JUMPDEST PUSH0 DUP1 REVERT JUMPDEST PUSH0 PUSH20 0xFFFFFFFFFFFFFFFFFFFFFFFFFFFFFFFFFFFFFFFF DUP3 AND SWAP1 POP SWAP2 SWAP1 POP JUMP JUMPDEST PUSH0 PUSH2 0xB7D DUP3 PUSH2 0xB54 JUMP JUMPDEST SWAP1 POP SWAP2 SWAP1 POP JUMP JUMPDEST PUSH2 0xB8D DUP2 PUSH2 0xB73 JUMP JUMPDEST DUP2 EQ PUSH2 0xB97 JUMPI PUSH0 DUP1 REVERT JUMPDEST POP JUMP JUMPDEST PUSH0 DUP2 CALLDATALOAD SWAP1 POP PUSH2 0xBA8 DUP2 PUSH2 0xB84 JUMP JUMPDEST SWAP3 SWAP2 POP POP JUMP JUMPDEST PUSH0 PUSH1 0x20 DUP3 DUP5 SUB SLT ISZERO PUSH2 0xBC3 JUMPI PUSH2 0xBC2 PUSH2 0xB50 JUMP JUMPDEST JUMPDEST PUSH0 PUSH2 0xBD0 DUP5 DUP3 DUP6 ADD PUSH2 0xB9A JUMP JUMPDEST SWAP2 POP POP SWAP3 SWAP2 POP POP JUMP JUMPDEST PUSH0 PUSH2 0xFFFF DUP3 AND SWAP1 POP SWAP2 SWAP1 POP JUMP JUMPDEST PUSH2 0xBEF DUP2 PUSH2 0xBD9 JUMP JUMPDEST DUP3 MSTORE POP POP JUMP JUMPDEST PUSH0 PUSH1 0x20 DUP3 ADD SWAP1 POP PUSH2 0xC08 PUSH0 DUP4 ADD DUP5 PUSH2 0xBE6 JUMP JUMPDEST SWAP3 SWAP2 POP POP JUMP JUMPDEST PUSH2 0xC17 DUP2 PUSH2 0xBD9 JUMP JUMPDEST DUP2 EQ PUSH2 0xC21 JUMPI PUSH0 DUP1 REVERT JUMPDEST POP JUMP JUMPDEST PUSH0 DUP2 CALLDATALOAD SWAP1 POP PUSH2 0xC32 DUP2 PUSH2 0xC0E JUMP JUMPDEST SWAP3 SWAP2 POP POP JUMP JUMPDEST PUSH0 PUSH1 0x20 DUP3 DUP5 SUB SLT ISZERO PUSH2 0xC4D JUMPI PUSH2 0xC4C PUSH2 0xB50 JUMP JUMPDEST JUMPDEST PUSH0 PUSH2 0xC5A DUP5 DUP3 DUP6 ADD PUSH2 0xC24 JUMP JUMPDEST SWAP2 POP POP SWAP3 SWAP2 POP POP JUMP JUMPDEST PUSH2 0xC6C DUP2 PUSH2 0xB73 JUMP JUMPDEST DUP3 MSTORE POP POP JUMP JUMPDEST PUSH0 PUSH1 0x20 DUP3 ADD SWAP1 POP PUSH2 0xC85 PUSH0 DUP4 ADD DUP5 PUSH2 0xC63 JUMP JUMPDEST SWAP3 SWAP2 POP POP JUMP JUMPDEST PUSH0 PUSH32 0xFFFFFFFFFFFFFFFFFFFF00000000000000000000000000000000000000000000 DUP3 AND SWAP1 POP SWAP2 SWAP1 POP JUMP JUMPDEST PUSH2 0xCBF DUP2 PUSH2 0xC8B JUMP JUMPDEST DUP3 MSTORE POP POP JUMP JUMPDEST PUSH0 PUSH1 0x20 DUP3 ADD SWAP1 POP PUSH2 0xCD8 PUSH0 DUP4 ADD DUP5 PUSH2 0xCB6 JUMP JUMPDEST SWAP3 SWAP2 POP POP JUMP JUMPDEST PUSH0 DUP2 ISZERO ISZERO SWAP1 POP SWAP2 SWAP1 POP JUMP JUMPDEST PUSH2 0xCF2 DUP2 PUSH2 0xCDE JUMP JUMPDEST DUP2 EQ PUSH2 0xCFC JUMPI PUSH0 DUP1 REVERT JUMPDEST POP JUMP JUMPDEST PUSH0 DUP2 CALLDATALOAD SWAP1 POP PUSH2 0xD0D DUP2 PUSH2 0xCE9 JUMP JUMPDEST SWAP3 SWAP2 POP POP JUMP JUMPDEST PUSH0 DUP1 PUSH1 0x40 DUP4 DUP6 SUB SLT ISZERO PUSH2 0xD29 JUMPI PUSH2 0xD28 PUSH2 0xB50 JUMP JUMPDEST JUMPDEST PUSH0 PUSH2 0xD36 DUP6 DUP3 DUP7 ADD PUSH2 0xB9A JUMP JUMPDEST SWAP3 POP POP PUSH1 0x20 PUSH2 0xD47 DUP6 DUP3 DUP7 ADD PUSH2 0xCFF JUMP JUMPDEST SWAP2 POP POP SWAP3 POP SWAP3 SWAP1 POP JUMP JUMPDEST PUSH0 DUP2 MLOAD SWAP1 POP SWAP2 SWAP1 POP JUMP JUMPDEST PUSH0 DUP3 DUP3 MSTORE PUSH1 0x20 DUP3 ADD SWAP1 POP SWAP3 SWAP2 POP POP JUMP JUMPDEST PUSH0 JUMPDEST DUP4 DUP2 LT ISZERO PUSH2 0xD88 JUMPI DUP1 DUP3 ADD MLOAD DUP2 DUP5 ADD MSTORE PUSH1 0x20 DUP2 ADD SWAP1 POP PUSH2 0xD6D JUMP JUMPDEST PUSH0 DUP5 DUP5 ADD MSTORE POP POP POP POP JUMP JUMPDEST PUSH0 PUSH1 0x1F NOT PUSH1 0x1F DUP4 ADD AND SWAP1 POP SWAP2 SWAP1 POP JUMP JUMPDEST PUSH0 PUSH2 0xDAD DUP3 PUSH2 0xD51 JUMP JUMPDEST PUSH2 0xDB7 DUP2 DUP6 PUSH2 0xD5B JUMP JUMPDEST SWAP4 POP PUSH2 0xDC7 DUP2 DUP6 PUSH1 0x20 DUP7 ADD PUSH2 0xD6B JUMP JUMPDEST PUSH2 0xDD0 DUP2 PUSH2 0xD93 JUMP JUMPDEST DUP5 ADD SWAP2 POP POP SWAP3 SWAP2 POP POP JUMP JUMPDEST PUSH0 PUSH1 0x20 DUP3 ADD SWAP1 POP DUP2 DUP2 SUB PUSH0 DUP4 ADD MSTORE PUSH2 0xDF3 DUP2 DUP5 PUSH2 0xDA3 JUMP JUMPDEST SWAP1 POP SWAP3 SWAP2 POP POP JUMP JUMPDEST PUSH0 DUP1 PUSH1 0x40 DUP4 DUP6 SUB SLT ISZERO PUSH2 0xE11 JUMPI PUSH2 0xE10 PUSH2 0xB50 JUMP JUMPDEST JUMPDEST PUSH0 PUSH2 0xE1E DUP6 DUP3 DUP7 ADD PUSH2 0xB9A JUMP JUMPDEST SWAP3 POP POP PUSH1 0x20 PUSH2 0xE2F DUP6 DUP3 DUP7 ADD PUSH2 0xC24 JUMP JUMPDEST SWAP2 POP POP SWAP3 POP SWAP3 SWAP1 POP JUMP JUMPDEST PUSH0 DUP1 PUSH1 0x40 DUP4 DUP6 SUB SLT ISZERO PUSH2 0xE4F JUMPI PUSH2 0xE4E PUSH2 0xB50 JUMP JUMPDEST JUMPDEST PUSH0 PUSH2 0xE5C DUP6 DUP3 DUP7 ADD PUSH2 0xB9A JUMP JUMPDEST SWAP3 POP POP PUSH1 0x20 PUSH2 0xE6D DUP6 DUP3 DUP7 ADD PUSH2 0xB9A JUMP JUMPDEST SWAP2 POP POP SWAP3 POP SWAP3 SWAP1 POP JUMP JUMPDEST PUSH2 0xE80 DUP2 PUSH2 0xCDE JUMP JUMPDEST DUP3 MSTORE POP POP JUMP JUMPDEST PUSH0 PUSH1 0x20 DUP3 ADD SWAP1 POP PUSH2 0xE99 PUSH0 DUP4 ADD DUP5 PUSH2 0xE77 JUMP JUMPDEST SWAP3 SWAP2 POP POP JUMP JUMPDEST PUSH32 0x54686520696E70757420616464726573732063616E6E6F74206265207A65726F PUSH0 DUP3 ADD MSTORE POP JUMP JUMPDEST PUSH0 PUSH2 0xED3 PUSH1 0x20 DUP4 PUSH2 0xD5B JUMP JUMPDEST SWAP2 POP PUSH2 0xEDE DUP3 PUSH2 0xE9F JUMP JUMPDEST PUSH1 0x20 DUP3 ADD SWAP1 POP SWAP2 SWAP1 POP JUMP JUMPDEST PUSH0 PUSH1 0x20 DUP3 ADD SWAP1 POP DUP2 DUP2 SUB PUSH0 DUP4 ADD MSTORE PUSH2 0xF00 DUP2 PUSH2 0xEC7 JUMP JUMPDEST SWAP1 POP SWAP2 SWAP1 POP JUMP JUMPDEST PUSH32 0x4E487B7100000000000000000000000000000000000000000000000000000000 PUSH0 MSTORE PUSH1 0x32 PUSH1 0x4 MSTORE PUSH1 0x24 PUSH0 REVERT JUMPDEST PUSH32 0x5468652061646472657373206F6620746865206F776E657220616E6420746865 PUSH0 DUP3 ADD MSTORE PUSH32 0x206F70657261746F72206D75737420626520646966666572656E740000000000 PUSH1 0x20 DUP3 ADD MSTORE POP JUMP JUMPDEST PUSH0 PUSH2 0xF8E PUSH1 0x3B DUP4 PUSH2 0xD5B JUMP JUMPDEST SWAP2 POP PUSH2 0xF99 DUP3 PUSH2 0xF34 JUMP JUMPDEST PUSH1 0x40 DUP3 ADD SWAP1 POP SWAP2 SWAP1 POP JUMP JUMPDEST PUSH0 PUSH1 0x20 DUP3 ADD SWAP1 POP DUP2 DUP2 SUB PUSH0 DUP4 ADD MSTORE PUSH2 0xFBB DUP2 PUSH2 0xF82 JUMP JUMPDEST SWAP1 POP SWAP2 SWAP1 POP JUMP JUMPDEST PUSH0 DUP2 SWAP1 POP SWAP3 SWAP2 POP POP JUMP JUMPDEST PUSH0 PUSH2 0xFD6 DUP3 PUSH2 0xD51 JUMP JUMPDEST PUSH2 0xFE0 DUP2 DUP6 PUSH2 0xFC2 JUMP JUMPDEST SWAP4 POP PUSH2 0xFF0 DUP2 DUP6 PUSH1 0x20 DUP7 ADD PUSH2 0xD6B JUMP JUMPDEST DUP1 DUP5 ADD SWAP2 POP POP SWAP3 SWAP2 POP POP JUMP JUMPDEST PUSH0 PUSH2 0x1007 DUP3 DUP6 PUSH2 0xFCC JUMP JUMPDEST SWAP2 POP PUSH2 0x1013 DUP3 DUP5 PUSH2 0xFCC JUMP JUMPDEST SWAP2 POP DUP2 SWAP1 POP SWAP4 SWAP3 POP POP POP JUMP JUMPDEST PUSH32 0x54686520494420656E746572656420697320696E76616C69642E204974206D75 PUSH0 DUP3 ADD MSTORE PUSH32 0x737420626520696E207468697320696E74657276616C2030203C206964203C3D PUSH1 0x20 DUP3 ADD MSTORE PUSH32 0x2063757272656E7420746F6B656E730000000000000000000000000000000000 PUSH1 0x40 DUP3 ADD MSTORE POP JUMP JUMPDEST PUSH0 PUSH2 0x109F PUSH1 0x4F DUP4 PUSH2 0xD5B JUMP JUMPDEST SWAP2 POP PUSH2 0x10AA DUP3 PUSH2 0x101F JUMP JUMPDEST PUSH1 0x60 DUP3 ADD SWAP1 POP SWAP2 SWAP1 POP JUMP JUMPDEST PUSH0 PUSH1 0x20 DUP3 ADD SWAP1 POP DUP2 DUP2 SUB PUSH0 DUP4 ADD MSTORE PUSH2 0x10CC DUP2 PUSH2 0x1093 JUMP JUMPDEST SWAP1 POP SWAP2 SWAP1 POP JUMP JUMPDEST PUSH32 0x4E487B7100000000000000000000000000000000000000000000000000000000 PUSH0 MSTORE PUSH1 0x41 PUSH1 0x4 MSTORE PUSH1 0x24 PUSH0 REVERT JUMPDEST PUSH32 0x4E487B7100000000000000000000000000000000000000000000000000000000 PUSH0 MSTORE PUSH1 0x12 PUSH1 0x4 MSTORE PUSH1 0x24 PUSH0 REVERT INVALID LOG2 PUSH5 0x6970667358 0x22 SLT KECCAK256 PUSH21 0x227527DC031273894AA7740043449D768F84101047 0xA6 GASLIMIT 0x4A 0xAC 0xB3 0xE2 0xC9 0xC0 0xDA DUP14 PUSH5 0x736F6C6343 STOP ADDMOD EQ STOP CALLER "
		},
		"gasEstimates": {
			"creation": {
				"codeDepositCost": "890200",
				"executionCost": "infinite",
				"totalCost": "infinite"
			},
			"external": {
				"approve(address,uint16)": "infinite",
				"balanceOf(address)": "2990",
				"getApproved(uint16)": "7419",
				"isApprovedForAll(address,address)": "infinite",
				"name()": "2474",
				"ownerOf(uint16)": "5169",
				"setApprovalForAll(address,bool)": "infinite",
				"symbol()": "2524",
				"tokenURI(uint16)": "5541"
			},
			"internal": {
				"_aprove(address,uint16,address)": "infinite",
				"_baseURI()": "infinite",
				"_requireOwned(uint16)": "infinite"
			}
		},
		"methodIdentifiers": {
			"approve(address,uint16)": "e560ca43",
			"balanceOf(address)": "70a08231",
			"getApproved(uint16)": "93b871f2",
			"isApprovedForAll(address,address)": "e985e9c5",
			"name()": "06fdde03",
			"ownerOf(uint16)": "82a7cf1e",
			"setApprovalForAll(address,bool)": "a22cb465",
			"symbol()": "95d89b41",
			"tokenURI(uint16)": "dd7d8440"
		}
	},
	"abi": [
		{
			"inputs": [
				{
					"internalType": "bytes20",
					"name": "name_",
					"type": "bytes20"
				},
				{
					"internalType": "bytes10",
					"name": "symbol_",
					"type": "bytes10"
				}
			],
			"stateMutability": "nonpayable",
			"type": "constructor"
		},
		{
			"inputs": [
				{
					"internalType": "address",
					"name": "sender",
					"type": "address"
				},
				{
					"internalType": "uint256",
					"name": "tokenId",
					"type": "uint256"
				},
				{
					"internalType": "address",
					"name": "owner",
					"type": "address"
				}
			],
			"name": "ERC721IncorrectOwner",
			"type": "error"
		},
		{
			"inputs": [
				{
					"internalType": "address",
					"name": "operator",
					"type": "address"
				},
				{
					"internalType": "uint256",
					"name": "tokenId",
					"type": "uint256"
				}
			],
			"name": "ERC721InsufficientApproval",
			"type": "error"
		},
		{
			"inputs": [
				{
					"internalType": "address",
					"name": "approver",
					"type": "address"
				}
			],
			"name": "ERC721InvalidApprover",
			"type": "error"
		},
		{
			"inputs": [
				{
					"internalType": "address",
					"name": "operator",
					"type": "address"
				}
			],
			"name": "ERC721InvalidOperator",
			"type": "error"
		},
		{
			"inputs": [
				{
					"internalType": "address",
					"name": "owner",
					"type": "address"
				}
			],
			"name": "ERC721InvalidOwner",
			"type": "error"
		},
		{
			"inputs": [
				{
					"internalType": "address",
					"name": "receiver",
					"type": "address"
				}
			],
			"name": "ERC721InvalidReceiver",
			"type": "error"
		},
		{
			"inputs": [
				{
					"internalType": "address",
					"name": "sender",
					"type": "address"
				}
			],
			"name": "ERC721InvalidSender",
			"type": "error"
		},
		{
			"inputs": [
				{
					"internalType": "uint256",
					"name": "tokenId",
					"type": "uint256"
				}
			],
			"name": "ERC721NonexistentToken",
			"type": "error"
		},
		{
			"anonymous": false,
			"inputs": [
				{
					"indexed": true,
					"internalType": "address",
					"name": "owner",
					"type": "address"
				},
				{
					"indexed": true,
					"internalType": "address",
					"name": "approved",
					"type": "address"
				},
				{
					"indexed": true,
					"internalType": "uint16",
					"name": "tokenId",
					"type": "uint16"
				}
			],
			"name": "Approval",
			"type": "event"
		},
		{
			"anonymous": false,
			"inputs": [
				{
					"indexed": true,
					"internalType": "address",
					"name": "owner",
					"type": "address"
				},
				{
					"indexed": true,
					"internalType": "address",
					"name": "operator",
					"type": "address"
				},
				{
					"indexed": false,
					"internalType": "bool",
					"name": "approved",
					"type": "bool"
				}
			],
			"name": "ApprovalForAll",
			"type": "event"
		},
		{
			"anonymous": false,
			"inputs": [
				{
					"indexed": true,
					"internalType": "address",
					"name": "from",
					"type": "address"
				},
				{
					"indexed": true,
					"internalType": "address",
					"name": "to",
					"type": "address"
				},
				{
					"indexed": true,
					"internalType": "uint256",
					"name": "tokenId",
					"type": "uint256"
				}
			],
			"name": "Transfer",
			"type": "event"
		},
		{
			"inputs": [
				{
					"internalType": "address",
					"name": "to",
					"type": "address"
				},
				{
					"internalType": "uint16",
					"name": "tokenId",
					"type": "uint16"
				}
			],
			"name": "approve",
			"outputs": [],
			"stateMutability": "nonpayable",
			"type": "function"
		},
		{
			"inputs": [
				{
					"internalType": "address",
					"name": "owner",
					"type": "address"
				}
			],
			"name": "balanceOf",
			"outputs": [
				{
					"internalType": "uint16",
					"name": "",
					"type": "uint16"
				}
			],
			"stateMutability": "view",
			"type": "function"
		},
		{
			"inputs": [
				{
					"internalType": "uint16",
					"name": "tokenId",
					"type": "uint16"
				}
			],
			"name": "getApproved",
			"outputs": [
				{
					"internalType": "address",
					"name": "",
					"type": "address"
				}
			],
			"stateMutability": "view",
			"type": "function"
		},
		{
			"inputs": [
				{
					"internalType": "address",
					"name": "owner",
					"type": "address"
				},
				{
					"internalType": "address",
					"name": "operator",
					"type": "address"
				}
			],
			"name": "isApprovedForAll",
			"outputs": [
				{
					"internalType": "bool",
					"name": "",
					"type": "bool"
				}
			],
			"stateMutability": "view",
			"type": "function"
		},
		{
			"inputs": [],
			"name": "name",
			"outputs": [
				{
					"internalType": "bytes20",
					"name": "",
					"type": "bytes20"
				}
			],
			"stateMutability": "view",
			"type": "function"
		},
		{
			"inputs": [
				{
					"internalType": "uint16",
					"name": "tokenId",
					"type": "uint16"
				}
			],
			"name": "ownerOf",
			"outputs": [
				{
					"internalType": "address",
					"name": "",
					"type": "address"
				}
			],
			"stateMutability": "view",
			"type": "function"
		},
		{
			"inputs": [
				{
					"internalType": "address",
					"name": "operator",
					"type": "address"
				},
				{
					"internalType": "bool",
					"name": "approved",
					"type": "bool"
				}
			],
			"name": "setApprovalForAll",
			"outputs": [],
			"stateMutability": "nonpayable",
			"type": "function"
		},
		{
			"inputs": [],
			"name": "symbol",
			"outputs": [
				{
					"internalType": "bytes10",
					"name": "",
					"type": "bytes10"
				}
			],
			"stateMutability": "view",
			"type": "function"
		},
		{
			"inputs": [
				{
					"internalType": "uint16",
					"name": "tokenId",
					"type": "uint16"
				}
			],
			"name": "tokenURI",
			"outputs": [
				{
					"internalType": "string",
					"name": "",
					"type": "string"
				}
			],
			"stateMutability": "view",
			"type": "function"
		}
	]
}