{
	"data": {
		"bytecode": {
			"linkReferences": {},
			"object": "60a060405234801562000010575f80fd5b506316a8c80042620000239190620000fd565b65ffffffffffff1660808165ffffffffffff16815250503360045f015f6101000a81548173ffffffffffffffffffffffffffffffffffffffff021916908373ffffffffffffffffffffffffffffffffffffffff16021790555060045f01601581819054906101000a900463ffffffff1680929190620000a29062000146565b91906101000a81548163ffffffff021916908363ffffffff1602179055505062000176565b5f819050919050565b7f4e487b71000000000000000000000000000000000000000000000000000000005f52601160045260245ffd5b5f6200010982620000c7565b91506200011683620000c7565b9250828201905080821115620001315762000130620000d0565b5b92915050565b5f63ffffffff82169050919050565b5f620001528262000137565b915063ffffffff82036200016b576200016a620000d0565b5b600182019050919050565b6080516124de620001b95f395f81816103620152818161077f01528181610d6f01528181611048015281816113db015281816116f3015261187e01526124de5ff3fe608060405234801561000f575f80fd5b5060043610610135575f3560e01c80636cf106d7116100b6578063c5a1c5c11161007a578063c5a1c5c1146102c3578063ca4cce68146102e1578063cd01cc28146102fd578063e47a9d4614610307578063e4f3e94714610325578063ee7126c31461034357610135565b80636cf106d7146102315780639c20fe711461024f578063a53da00b1461026b578063b5c09c6814610289578063c387b49c146102a557610135565b80631f72783a116100fd5780631f72783a146101a1578063289b3c0d146101bd57806352e305de146101db578063544fa93e146101f7578063664109971461021357610135565b8063054203bd1461013957806306e99d93146101555780630df4c3901461017157806314c58b511461017b57806318074eee14610197575b5f80fd5b610153600480360381019061014e91906120b2565b61035f565b005b61016f600480360381019061016a9190612112565b61052a565b005b6101796105bc565b005b610195600480360381019061019091906121e4565b61077c565b005b61019f610b94565b005b6101bb60048036038101906101b691906120b2565b610d6c565b005b6101c561101b565b6040516101d2919061226a565b60405180910390f35b6101f560048036038101906101f091906120b2565b611045565b005b610211600480360381019061020c91906120b2565b61128a565b005b61021b611396565b604051610228919061226a565b60405180910390f35b6102396113c0565b6040516102469190612292565b60405180910390f35b610269600480360381019061026491906120b2565b6113d8565b005b6102736116c6565b604051610280919061226a565b60405180910390f35b6102a3600480360381019061029e9190612112565b6116f0565b005b6102ad611836565b6040516102ba91906122ba565b60405180910390f35b6102cb611851565b6040516102d8919061226a565b60405180910390f35b6102fb60048036038101906102f691906120b2565b61187b565b005b610305611a93565b005b61030f611ca5565b60405161031c919061226a565b60405180910390f35b61032d611cac565b60405161033a9190612292565b60405180910390f35b61035d600480360381019061035891906120b2565b611cc4565b005b427f000000000000000000000000000000000000000000000000000000000000000065ffffffffffff16101561040957610397611851565b73ffffffffffffffffffffffffffffffffffffffff163373ffffffffffffffffffffffffffffffffffffffff1614610404576040517f08c379a00000000000000000000000000000000000000000000000000000000081526004016103fb9061232d565b60405180910390fd5b610490565b610411611396565b73ffffffffffffffffffffffffffffffffffffffff163373ffffffffffffffffffffffffffffffffffffffff16148015610450575061044e6113c0565b155b61048f576040517f08c379a00000000000000000000000000000000000000000000000000000000081526004016104869061232d565b60405180910390fd5b5b8060025f6101000a81548173ffffffffffffffffffffffffffffffffffffffff021916908373ffffffffffffffffffffffffffffffffffffffff1602179055506104da6001611f0d565b6104e46001611f2c565b8073ffffffffffffffffffffffffffffffffffffffff167f3553f1f7ef0242113266a8d183b621bb87468c99237f36b1150b6ab3d688b68660405160405180910390a250565b610532611396565b73ffffffffffffffffffffffffffffffffffffffff163373ffffffffffffffffffffffffffffffffffffffff16148015610571575061056f6113c0565b155b6105b0576040517f08c379a00000000000000000000000000000000000000000000000000000000081526004016105a79061232d565b60405180910390fd5b6105b981611f2c565b50565b3373ffffffffffffffffffffffffffffffffffffffff1660025f9054906101000a900473ffffffffffffffffffffffffffffffffffffffff1673ffffffffffffffffffffffffffffffffffffffff16036107485760025f6101000a81549073ffffffffffffffffffffffffffffffffffffffff02191690553360045f015f6101000a81548173ffffffffffffffffffffffffffffffffffffffff021916908373ffffffffffffffffffffffffffffffffffffffff16021790555060045f01601581819054906101000a900463ffffffff168092919061069a90612378565b91906101000a81548163ffffffff021916908363ffffffff160217905550506106c25f611f0d565b60045f0160159054906101000a900463ffffffff1663ffffffff1660045f015f9054906101000a900473ffffffffffffffffffffffffffffffffffffffff1673ffffffffffffffffffffffffffffffffffffffff167f05ad9b3688012cd825c1bfb941e4f5afb2558af6af3deaddf01dbb5e85abdaf960405160405180910390a361077a565b6040517f6c4360f000000000000000000000000000000000000000000000000000000000815260040160405180910390fd5b565b427f000000000000000000000000000000000000000000000000000000000000000065ffffffffffff161015610826576107b4611851565b73ffffffffffffffffffffffffffffffffffffffff163373ffffffffffffffffffffffffffffffffffffffff1614610821576040517f08c379a00000000000000000000000000000000000000000000000000000000081526004016108189061232d565b60405180910390fd5b6108ad565b61082e6116c6565b73ffffffffffffffffffffffffffffffffffffffff163373ffffffffffffffffffffffffffffffffffffffff1614801561086d575061086b611cac565b155b6108ac576040517f08c379a00000000000000000000000000000000000000000000000000000000081526004016108a39061232d565b60405180910390fd5b5b5f73ffffffffffffffffffffffffffffffffffffffff168573ffffffffffffffffffffffffffffffffffffffff16146109885760085f8673ffffffffffffffffffffffffffffffffffffffff1673ffffffffffffffffffffffffffffffffffffffff1681526020019081526020015f205f8082015f9055600182015f6101000a81549063ffffffff02191690556001820160046101000a81549065ffffffffffff021916905560018201600a6101000a81549065ffffffffffff02191690556001820160106101000a81549065ffffffffffff021916905550505b8260085f8673ffffffffffffffffffffffffffffffffffffffff1673ffffffffffffffffffffffffffffffffffffffff1681526020019081526020015f205f015414158015610a3257508163ffffffff1660085f8673ffffffffffffffffffffffffffffffffffffffff1673ffffffffffffffffffffffffffffffffffffffff1681526020019081526020015f206001015f9054906101000a900463ffffffff1663ffffffff1614155b15610b8c578260085f8673ffffffffffffffffffffffffffffffffffffffff1673ffffffffffffffffffffffffffffffffffffffff1681526020019081526020015f205f01819055508160085f8673ffffffffffffffffffffffffffffffffffffffff1673ffffffffffffffffffffffffffffffffffffffff1681526020019081526020015f206001015f6101000a81548163ffffffff021916908363ffffffff1602179055508060085f8673ffffffffffffffffffffffffffffffffffffffff1673ffffffffffffffffffffffffffffffffffffffff1681526020019081526020015f2060010160106101000a81548165ffffffffffff021916908365ffffffffffff1602179055508163ffffffff16838573ffffffffffffffffffffffffffffffffffffffff167f5c43a67d451cacaddc8309af64192a4ebee009b9cab5eeb59ec1fb77dd3abcbc60405160405180910390a4610b8d565b5b5050505050565b3373ffffffffffffffffffffffffffffffffffffffff1660035f9054906101000a900473ffffffffffffffffffffffffffffffffffffffff1673ffffffffffffffffffffffffffffffffffffffff1603610d385760035f6101000a81549073ffffffffffffffffffffffffffffffffffffffff02191690553360055f015f6101000a81548173ffffffffffffffffffffffffffffffffffffffff021916908373ffffffffffffffffffffffffffffffffffffffff16021790555060055f01601581819054906101000a900463ffffffff1680929190610c7290612378565b91906101000a81548163ffffffff021916908363ffffffff1602179055505060055f0160149054906101000a900460ff1615610cb257610cb15f611f2c565b5b60055f0160159054906101000a900463ffffffff1663ffffffff1660055f015f9054906101000a900473ffffffffffffffffffffffffffffffffffffffff1673ffffffffffffffffffffffffffffffffffffffff167f11e1b985c07e1bf3fec9bfd0bdb8c4a8e870ba2b26aa89fe50a6a19132ca10fd60405160405180910390a3610d6a565b6040517f6c4360f000000000000000000000000000000000000000000000000000000000815260040160405180910390fd5b565b427f000000000000000000000000000000000000000000000000000000000000000065ffffffffffff161015610e1657610da4611851565b73ffffffffffffffffffffffffffffffffffffffff163373ffffffffffffffffffffffffffffffffffffffff1614610e11576040517f08c379a0000000000000000000000000000000000000000000000000000000008152600401610e089061232d565b60405180910390fd5b610e9d565b610e1e611396565b73ffffffffffffffffffffffffffffffffffffffff163373ffffffffffffffffffffffffffffffffffffffff16148015610e5d5750610e5b6113c0565b155b610e9c576040517f08c379a0000000000000000000000000000000000000000000000000000000008152600401610e939061232d565b60405180910390fd5b5b5f8173ffffffffffffffffffffffffffffffffffffffff163b1115610fdb573373ffffffffffffffffffffffffffffffffffffffff1660045f015f9054906101000a900473ffffffffffffffffffffffffffffffffffffffff1673ffffffffffffffffffffffffffffffffffffffff1603610f2057610f1b81611f4b565b610fd6565b6213c68042610f2f91906123ac565b600360146101000a81548165ffffffffffff021916908365ffffffffffff160217905550805f806101000a81548173ffffffffffffffffffffffffffffffffffffffff021916908373ffffffffffffffffffffffffffffffffffffffff1602179055508073ffffffffffffffffffffffffffffffffffffffff167f675b770e821ba4aad20be77c58f912d689226272e805637f42f838a6035eed8660405160405180910390a25b611018565b806040517fc632231500000000000000000000000000000000000000000000000000000000815260040161100f919061226a565b60405180910390fd5b50565b5f60065f015f9054906101000a900473ffffffffffffffffffffffffffffffffffffffff16905090565b427f000000000000000000000000000000000000000000000000000000000000000065ffffffffffff1610156110ef5761107d611851565b73ffffffffffffffffffffffffffffffffffffffff163373ffffffffffffffffffffffffffffffffffffffff16146110ea576040517f08c379a00000000000000000000000000000000000000000000000000000000081526004016110e19061232d565b60405180910390fd5b611176565b6110f7611396565b73ffffffffffffffffffffffffffffffffffffffff163373ffffffffffffffffffffffffffffffffffffffff1614801561113657506111346113c0565b155b611175576040517f08c379a000000000000000000000000000000000000000000000000000000000815260040161116c9061232d565b60405180910390fd5b5b8073ffffffffffffffffffffffffffffffffffffffff165f8054906101000a900473ffffffffffffffffffffffffffffffffffffffff1673ffffffffffffffffffffffffffffffffffffffff160361124a57600360146101000a81549065ffffffffffff02191690555f806101000a81549073ffffffffffffffffffffffffffffffffffffffff02191690558073ffffffffffffffffffffffffffffffffffffffff167ff299f61c7e493f99b20cb36c587ca903d085d5206bfe4452d295711e372da02960405160405180910390a2611287565b806040517fc632231500000000000000000000000000000000000000000000000000000000815260040161127e919061226a565b60405180910390fd5b50565b611292611396565b73ffffffffffffffffffffffffffffffffffffffff163373ffffffffffffffffffffffffffffffffffffffff161480156112d157506112cf6113c0565b155b611310576040517f08c379a00000000000000000000000000000000000000000000000000000000081526004016113079061232d565b60405180910390fd5b8060035f6101000a81548173ffffffffffffffffffffffffffffffffffffffff021916908373ffffffffffffffffffffffffffffffffffffffff1602179055508073ffffffffffffffffffffffffffffffffffffffff167fff3cad3ee28c342ad5f3d7c8ff8559ee4d21eb48494092b82a1652e443b3420b60405160405180910390a250565b5f60045f015f9054906101000a900473ffffffffffffffffffffffffffffffffffffffff16905090565b5f60045f0160149054906101000a900460ff16905090565b427f000000000000000000000000000000000000000000000000000000000000000065ffffffffffff16101561148257611410611851565b73ffffffffffffffffffffffffffffffffffffffff163373ffffffffffffffffffffffffffffffffffffffff161461147d576040517f08c379a00000000000000000000000000000000000000000000000000000000081526004016114749061232d565b60405180910390fd5b611509565b61148a611396565b73ffffffffffffffffffffffffffffffffffffffff163373ffffffffffffffffffffffffffffffffffffffff161480156114c957506114c76113c0565b155b611508576040517f08c379a00000000000000000000000000000000000000000000000000000000081526004016114ff9061232d565b60405180910390fd5b5b42600360149054906101000a900465ffffffffffff1665ffffffffffff161015611667575f600360149054906101000a900465ffffffffffff1665ffffffffffff160361158b576040517f08c379a000000000000000000000000000000000000000000000000000000000815260040161158290612429565b60405180910390fd5b8073ffffffffffffffffffffffffffffffffffffffff165f8054906101000a900473ffffffffffffffffffffffffffffffffffffffff1673ffffffffffffffffffffffffffffffffffffffff160361162557600360146101000a81549065ffffffffffff02191690555f806101000a81549073ffffffffffffffffffffffffffffffffffffffff021916905561162081611f4b565b611662565b806040517fc6322315000000000000000000000000000000000000000000000000000000008152600401611659919061226a565b60405180910390fd5b6116c3565b42600360149054906101000a900465ffffffffffff166116879190612447565b6040517f223a6cbb0000000000000000000000000000000000000000000000000000000081526004016116ba919061248f565b60405180910390fd5b50565b5f60055f015f9054906101000a900473ffffffffffffffffffffffffffffffffffffffff16905090565b427f000000000000000000000000000000000000000000000000000000000000000065ffffffffffff16101561179a57611728611851565b73ffffffffffffffffffffffffffffffffffffffff163373ffffffffffffffffffffffffffffffffffffffff1614611795576040517f08c379a000000000000000000000000000000000000000000000000000000000815260040161178c9061232d565b60405180910390fd5b611821565b6117a2611396565b73ffffffffffffffffffffffffffffffffffffffff163373ffffffffffffffffffffffffffffffffffffffff161480156117e157506117df6113c0565b155b611820576040517f08c379a00000000000000000000000000000000000000000000000000000000081526004016118179061232d565b60405180910390fd5b5b61182a81611f0d565b61183381611f2c565b50565b5f60065f0160159054906101000a900463ffffffff16905090565b5f60075f015f9054906101000a900473ffffffffffffffffffffffffffffffffffffffff16905090565b427f000000000000000000000000000000000000000000000000000000000000000065ffffffffffff161015611925576118b3611851565b73ffffffffffffffffffffffffffffffffffffffff163373ffffffffffffffffffffffffffffffffffffffff1614611920576040517f08c379a00000000000000000000000000000000000000000000000000000000081526004016119179061232d565b60405180910390fd5b6119ac565b61192d611396565b73ffffffffffffffffffffffffffffffffffffffff163373ffffffffffffffffffffffffffffffffffffffff1614801561196c575061196a6113c0565b155b6119ab576040517f08c379a00000000000000000000000000000000000000000000000000000000081526004016119a29061232d565b60405180910390fd5b5b5f8173ffffffffffffffffffffffffffffffffffffffff163b1115611a53578060015f6101000a81548173ffffffffffffffffffffffffffffffffffffffff021916908373ffffffffffffffffffffffffffffffffffffffff1602179055508073ffffffffffffffffffffffffffffffffffffffff167fe8d8e3c7c3ebec0c177d0fe22d223f8b5071db39155104808d45027e368ba77a60405160405180910390a2611a90565b806040517f84dbc6cb000000000000000000000000000000000000000000000000000000008152600401611a87919061226a565b60405180910390fd5b50565b5f60085f3373ffffffffffffffffffffffffffffffffffffffff1673ffffffffffffffffffffffffffffffffffffffff1681526020019081526020015f206001015f9054906101000a900463ffffffff1663ffffffff16118015611b5057505f60085f3373ffffffffffffffffffffffffffffffffffffffff1673ffffffffffffffffffffffffffffffffffffffff1681526020019081526020015f2060010160049054906101000a900465ffffffffffff1665ffffffffffff16145b15611c715760085f3373ffffffffffffffffffffffffffffffffffffffff1673ffffffffffffffffffffffffffffffffffffffff1681526020019081526020015f205060085f3373ffffffffffffffffffffffffffffffffffffffff1673ffffffffffffffffffffffffffffffffffffffff1681526020019081526020015f206001015f9054906101000a900463ffffffff1663ffffffff1660085f3373ffffffffffffffffffffffffffffffffffffffff1673ffffffffffffffffffffffffffffffffffffffff1681526020019081526020015f205f01543373ffffffffffffffffffffffffffffffffffffffff167f04a5552f2d245eb6039b03d3a4f2aeeae275c3d6dc08931b837b5715fbbe519960405160405180910390a4611ca3565b6040517f6c4360f000000000000000000000000000000000000000000000000000000000815260040160405180910390fd5b565b5f30905090565b5f60055f0160149054906101000a900460ff16905090565b611ccc611396565b73ffffffffffffffffffffffffffffffffffffffff163373ffffffffffffffffffffffffffffffffffffffff16148015611d0b5750611d096113c0565b155b611d4a576040517f08c379a0000000000000000000000000000000000000000000000000000000008152600401611d419061232d565b60405180910390fd5b8073ffffffffffffffffffffffffffffffffffffffff1660015f9054906101000a900473ffffffffffffffffffffffffffffffffffffffff1673ffffffffffffffffffffffffffffffffffffffff1603611ecd5760015f6101000a81549073ffffffffffffffffffffffffffffffffffffffff02191690558060065f015f6101000a81548173ffffffffffffffffffffffffffffffffffffffff021916908373ffffffffffffffffffffffffffffffffffffffff16021790555060065f01601581819054906101000a900463ffffffff1680929190611e2890612378565b91906101000a81548163ffffffff021916908363ffffffff1602179055505060065f0160159054906101000a900463ffffffff1663ffffffff1660065f015f9054906101000a900473ffffffffffffffffffffffffffffffffffffffff1673ffffffffffffffffffffffffffffffffffffffff167f5e86008a8467d1efccfe6cb6bd49ba7278d6af2745a1e6994e443322a423709360405160405180910390a3611f0a565b806040517f84dbc6cb000000000000000000000000000000000000000000000000000000008152600401611f01919061226a565b60405180910390fd5b50565b8060045f0160146101000a81548160ff02191690831515021790555050565b8060055f0160146101000a81548160ff02191690831515021790555050565b8060075f015f6101000a81548173ffffffffffffffffffffffffffffffffffffffff021916908373ffffffffffffffffffffffffffffffffffffffff16021790555060075f01601581819054906101000a900463ffffffff1680929190611fb190612378565b91906101000a81548163ffffffff021916908363ffffffff1602179055505060075f0160159054906101000a900463ffffffff1663ffffffff1660075f015f9054906101000a900473ffffffffffffffffffffffffffffffffffffffff1673ffffffffffffffffffffffffffffffffffffffff167ff7f7c26682668c39fd8c6dbca125bd9466e743b9e38acc3240867c139cd93c3060405160405180910390a350565b5f80fd5b5f73ffffffffffffffffffffffffffffffffffffffff82169050919050565b5f61208182612058565b9050919050565b61209181612077565b811461209b575f80fd5b50565b5f813590506120ac81612088565b92915050565b5f602082840312156120c7576120c6612054565b5b5f6120d48482850161209e565b91505092915050565b5f8115159050919050565b6120f1816120dd565b81146120fb575f80fd5b50565b5f8135905061210c816120e8565b92915050565b5f6020828403121561212757612126612054565b5b5f612134848285016120fe565b91505092915050565b5f819050919050565b61214f8161213d565b8114612159575f80fd5b50565b5f8135905061216a81612146565b92915050565b5f63ffffffff82169050919050565b61218881612170565b8114612192575f80fd5b50565b5f813590506121a38161217f565b92915050565b5f65ffffffffffff82169050919050565b6121c3816121a9565b81146121cd575f80fd5b50565b5f813590506121de816121ba565b92915050565b5f805f805f60a086880312156121fd576121fc612054565b5b5f61220a8882890161209e565b955050602061221b8882890161209e565b945050604061222c8882890161215c565b935050606061223d88828901612195565b925050608061224e888289016121d0565b9150509295509295909350565b61226481612077565b82525050565b5f60208201905061227d5f83018461225b565b92915050565b61228c816120dd565b82525050565b5f6020820190506122a55f830184612283565b92915050565b6122b481612170565b82525050565b5f6020820190506122cd5f8301846122ab565b92915050565b5f82825260208201905092915050565b7f416363657373206973206e6f742076616c6964000000000000000000000000005f82015250565b5f6123176013836122d3565b9150612322826122e3565b602082019050919050565b5f6020820190508181035f8301526123448161230b565b9050919050565b7f4e487b71000000000000000000000000000000000000000000000000000000005f52601160045260245ffd5b5f61238282612170565b915063ffffffff82036123985761239761234b565b5b600182019050919050565b5f819050919050565b5f6123b6826123a3565b91506123c1836123a3565b92508282019050808211156123d9576123d861234b565b5b92915050565b7f546865207265717565737420697320696e76616c6964000000000000000000005f82015250565b5f6124136016836122d3565b915061241e826123df565b602082019050919050565b5f6020820190508181035f83015261244081612407565b9050919050565b5f612451826121a9565b915061245c836121a9565b9250828203905065ffffffffffff81111561247a5761247961234b565b5b92915050565b612489816121a9565b82525050565b5f6020820190506124a25f830184612480565b9291505056fea2646970667358221220df3fc02980fe8842fb4ebb052a2071a101a4d19b2ea7e4a013015f4a6a8d29dd64736f6c63430008140033",
			"opcodes": "PUSH1 0xA0 PUSH1 0x40 MSTORE CALLVALUE DUP1 ISZERO PUSH3 0x10 JUMPI PUSH0 DUP1 REVERT JUMPDEST POP PUSH4 0x16A8C800 TIMESTAMP PUSH3 0x23 SWAP2 SWAP1 PUSH3 0xFD JUMP JUMPDEST PUSH6 0xFFFFFFFFFFFF AND PUSH1 0x80 DUP2 PUSH6 0xFFFFFFFFFFFF AND DUP2 MSTORE POP POP CALLER PUSH1 0x4 PUSH0 ADD PUSH0 PUSH2 0x100 EXP DUP2 SLOAD DUP2 PUSH20 0xFFFFFFFFFFFFFFFFFFFFFFFFFFFFFFFFFFFFFFFF MUL NOT AND SWAP1 DUP4 PUSH20 0xFFFFFFFFFFFFFFFFFFFFFFFFFFFFFFFFFFFFFFFF AND MUL OR SWAP1 SSTORE POP PUSH1 0x4 PUSH0 ADD PUSH1 0x15 DUP2 DUP2 SWAP1 SLOAD SWAP1 PUSH2 0x100 EXP SWAP1 DIV PUSH4 0xFFFFFFFF AND DUP1 SWAP3 SWAP2 SWAP1 PUSH3 0xA2 SWAP1 PUSH3 0x146 JUMP JUMPDEST SWAP2 SWAP1 PUSH2 0x100 EXP DUP2 SLOAD DUP2 PUSH4 0xFFFFFFFF MUL NOT AND SWAP1 DUP4 PUSH4 0xFFFFFFFF AND MUL OR SWAP1 SSTORE POP POP PUSH3 0x176 JUMP JUMPDEST PUSH0 DUP2 SWAP1 POP SWAP2 SWAP1 POP JUMP JUMPDEST PUSH32 0x4E487B7100000000000000000000000000000000000000000000000000000000 PUSH0 MSTORE PUSH1 0x11 PUSH1 0x4 MSTORE PUSH1 0x24 PUSH0 REVERT JUMPDEST PUSH0 PUSH3 0x109 DUP3 PUSH3 0xC7 JUMP JUMPDEST SWAP2 POP PUSH3 0x116 DUP4 PUSH3 0xC7 JUMP JUMPDEST SWAP3 POP DUP3 DUP3 ADD SWAP1 POP DUP1 DUP3 GT ISZERO PUSH3 0x131 JUMPI PUSH3 0x130 PUSH3 0xD0 JUMP JUMPDEST JUMPDEST SWAP3 SWAP2 POP POP JUMP JUMPDEST PUSH0 PUSH4 0xFFFFFFFF DUP3 AND SWAP1 POP SWAP2 SWAP1 POP JUMP JUMPDEST PUSH0 PUSH3 0x152 DUP3 PUSH3 0x137 JUMP JUMPDEST SWAP2 POP PUSH4 0xFFFFFFFF DUP3 SUB PUSH3 0x16B JUMPI PUSH3 0x16A PUSH3 0xD0 JUMP JUMPDEST JUMPDEST PUSH1 0x1 DUP3 ADD SWAP1 POP SWAP2 SWAP1 POP JUMP JUMPDEST PUSH1 0x80 MLOAD PUSH2 0x24DE PUSH3 0x1B9 PUSH0 CODECOPY PUSH0 DUP2 DUP2 PUSH2 0x362 ADD MSTORE DUP2 DUP2 PUSH2 0x77F ADD MSTORE DUP2 DUP2 PUSH2 0xD6F ADD MSTORE DUP2 DUP2 PUSH2 0x1048 ADD MSTORE DUP2 DUP2 PUSH2 0x13DB ADD MSTORE DUP2 DUP2 PUSH2 0x16F3 ADD MSTORE PUSH2 0x187E ADD MSTORE PUSH2 0x24DE PUSH0 RETURN INVALID PUSH1 0x80 PUSH1 0x40 MSTORE CALLVALUE DUP1 ISZERO PUSH2 0xF JUMPI PUSH0 DUP1 REVERT JUMPDEST POP PUSH1 0x4 CALLDATASIZE LT PUSH2 0x135 JUMPI PUSH0 CALLDATALOAD PUSH1 0xE0 SHR DUP1 PUSH4 0x6CF106D7 GT PUSH2 0xB6 JUMPI DUP1 PUSH4 0xC5A1C5C1 GT PUSH2 0x7A JUMPI DUP1 PUSH4 0xC5A1C5C1 EQ PUSH2 0x2C3 JUMPI DUP1 PUSH4 0xCA4CCE68 EQ PUSH2 0x2E1 JUMPI DUP1 PUSH4 0xCD01CC28 EQ PUSH2 0x2FD JUMPI DUP1 PUSH4 0xE47A9D46 EQ PUSH2 0x307 JUMPI DUP1 PUSH4 0xE4F3E947 EQ PUSH2 0x325 JUMPI DUP1 PUSH4 0xEE7126C3 EQ PUSH2 0x343 JUMPI PUSH2 0x135 JUMP JUMPDEST DUP1 PUSH4 0x6CF106D7 EQ PUSH2 0x231 JUMPI DUP1 PUSH4 0x9C20FE71 EQ PUSH2 0x24F JUMPI DUP1 PUSH4 0xA53DA00B EQ PUSH2 0x26B JUMPI DUP1 PUSH4 0xB5C09C68 EQ PUSH2 0x289 JUMPI DUP1 PUSH4 0xC387B49C EQ PUSH2 0x2A5 JUMPI PUSH2 0x135 JUMP JUMPDEST DUP1 PUSH4 0x1F72783A GT PUSH2 0xFD JUMPI DUP1 PUSH4 0x1F72783A EQ PUSH2 0x1A1 JUMPI DUP1 PUSH4 0x289B3C0D EQ PUSH2 0x1BD JUMPI DUP1 PUSH4 0x52E305DE EQ PUSH2 0x1DB JUMPI DUP1 PUSH4 0x544FA93E EQ PUSH2 0x1F7 JUMPI DUP1 PUSH4 0x66410997 EQ PUSH2 0x213 JUMPI PUSH2 0x135 JUMP JUMPDEST DUP1 PUSH4 0x54203BD EQ PUSH2 0x139 JUMPI DUP1 PUSH4 0x6E99D93 EQ PUSH2 0x155 JUMPI DUP1 PUSH4 0xDF4C390 EQ PUSH2 0x171 JUMPI DUP1 PUSH4 0x14C58B51 EQ PUSH2 0x17B JUMPI DUP1 PUSH4 0x18074EEE EQ PUSH2 0x197 JUMPI JUMPDEST PUSH0 DUP1 REVERT JUMPDEST PUSH2 0x153 PUSH1 0x4 DUP1 CALLDATASIZE SUB DUP2 ADD SWAP1 PUSH2 0x14E SWAP2 SWAP1 PUSH2 0x20B2 JUMP JUMPDEST PUSH2 0x35F JUMP JUMPDEST STOP JUMPDEST PUSH2 0x16F PUSH1 0x4 DUP1 CALLDATASIZE SUB DUP2 ADD SWAP1 PUSH2 0x16A SWAP2 SWAP1 PUSH2 0x2112 JUMP JUMPDEST PUSH2 0x52A JUMP JUMPDEST STOP JUMPDEST PUSH2 0x179 PUSH2 0x5BC JUMP JUMPDEST STOP JUMPDEST PUSH2 0x195 PUSH1 0x4 DUP1 CALLDATASIZE SUB DUP2 ADD SWAP1 PUSH2 0x190 SWAP2 SWAP1 PUSH2 0x21E4 JUMP JUMPDEST PUSH2 0x77C JUMP JUMPDEST STOP JUMPDEST PUSH2 0x19F PUSH2 0xB94 JUMP JUMPDEST STOP JUMPDEST PUSH2 0x1BB PUSH1 0x4 DUP1 CALLDATASIZE SUB DUP2 ADD SWAP1 PUSH2 0x1B6 SWAP2 SWAP1 PUSH2 0x20B2 JUMP JUMPDEST PUSH2 0xD6C JUMP JUMPDEST STOP JUMPDEST PUSH2 0x1C5 PUSH2 0x101B JUMP JUMPDEST PUSH1 0x40 MLOAD PUSH2 0x1D2 SWAP2 SWAP1 PUSH2 0x226A JUMP JUMPDEST PUSH1 0x40 MLOAD DUP1 SWAP2 SUB SWAP1 RETURN JUMPDEST PUSH2 0x1F5 PUSH1 0x4 DUP1 CALLDATASIZE SUB DUP2 ADD SWAP1 PUSH2 0x1F0 SWAP2 SWAP1 PUSH2 0x20B2 JUMP JUMPDEST PUSH2 0x1045 JUMP JUMPDEST STOP JUMPDEST PUSH2 0x211 PUSH1 0x4 DUP1 CALLDATASIZE SUB DUP2 ADD SWAP1 PUSH2 0x20C SWAP2 SWAP1 PUSH2 0x20B2 JUMP JUMPDEST PUSH2 0x128A JUMP JUMPDEST STOP JUMPDEST PUSH2 0x21B PUSH2 0x1396 JUMP JUMPDEST PUSH1 0x40 MLOAD PUSH2 0x228 SWAP2 SWAP1 PUSH2 0x226A JUMP JUMPDEST PUSH1 0x40 MLOAD DUP1 SWAP2 SUB SWAP1 RETURN JUMPDEST PUSH2 0x239 PUSH2 0x13C0 JUMP JUMPDEST PUSH1 0x40 MLOAD PUSH2 0x246 SWAP2 SWAP1 PUSH2 0x2292 JUMP JUMPDEST PUSH1 0x40 MLOAD DUP1 SWAP2 SUB SWAP1 RETURN JUMPDEST PUSH2 0x269 PUSH1 0x4 DUP1 CALLDATASIZE SUB DUP2 ADD SWAP1 PUSH2 0x264 SWAP2 SWAP1 PUSH2 0x20B2 JUMP JUMPDEST PUSH2 0x13D8 JUMP JUMPDEST STOP JUMPDEST PUSH2 0x273 PUSH2 0x16C6 JUMP JUMPDEST PUSH1 0x40 MLOAD PUSH2 0x280 SWAP2 SWAP1 PUSH2 0x226A JUMP JUMPDEST PUSH1 0x40 MLOAD DUP1 SWAP2 SUB SWAP1 RETURN JUMPDEST PUSH2 0x2A3 PUSH1 0x4 DUP1 CALLDATASIZE SUB DUP2 ADD SWAP1 PUSH2 0x29E SWAP2 SWAP1 PUSH2 0x2112 JUMP JUMPDEST PUSH2 0x16F0 JUMP JUMPDEST STOP JUMPDEST PUSH2 0x2AD PUSH2 0x1836 JUMP JUMPDEST PUSH1 0x40 MLOAD PUSH2 0x2BA SWAP2 SWAP1 PUSH2 0x22BA JUMP JUMPDEST PUSH1 0x40 MLOAD DUP1 SWAP2 SUB SWAP1 RETURN JUMPDEST PUSH2 0x2CB PUSH2 0x1851 JUMP JUMPDEST PUSH1 0x40 MLOAD PUSH2 0x2D8 SWAP2 SWAP1 PUSH2 0x226A JUMP JUMPDEST PUSH1 0x40 MLOAD DUP1 SWAP2 SUB SWAP1 RETURN JUMPDEST PUSH2 0x2FB PUSH1 0x4 DUP1 CALLDATASIZE SUB DUP2 ADD SWAP1 PUSH2 0x2F6 SWAP2 SWAP1 PUSH2 0x20B2 JUMP JUMPDEST PUSH2 0x187B JUMP JUMPDEST STOP JUMPDEST PUSH2 0x305 PUSH2 0x1A93 JUMP JUMPDEST STOP JUMPDEST PUSH2 0x30F PUSH2 0x1CA5 JUMP JUMPDEST PUSH1 0x40 MLOAD PUSH2 0x31C SWAP2 SWAP1 PUSH2 0x226A JUMP JUMPDEST PUSH1 0x40 MLOAD DUP1 SWAP2 SUB SWAP1 RETURN JUMPDEST PUSH2 0x32D PUSH2 0x1CAC JUMP JUMPDEST PUSH1 0x40 MLOAD PUSH2 0x33A SWAP2 SWAP1 PUSH2 0x2292 JUMP JUMPDEST PUSH1 0x40 MLOAD DUP1 SWAP2 SUB SWAP1 RETURN JUMPDEST PUSH2 0x35D PUSH1 0x4 DUP1 CALLDATASIZE SUB DUP2 ADD SWAP1 PUSH2 0x358 SWAP2 SWAP1 PUSH2 0x20B2 JUMP JUMPDEST PUSH2 0x1CC4 JUMP JUMPDEST STOP JUMPDEST TIMESTAMP PUSH32 0x0 PUSH6 0xFFFFFFFFFFFF AND LT ISZERO PUSH2 0x409 JUMPI PUSH2 0x397 PUSH2 0x1851 JUMP JUMPDEST PUSH20 0xFFFFFFFFFFFFFFFFFFFFFFFFFFFFFFFFFFFFFFFF AND CALLER PUSH20 0xFFFFFFFFFFFFFFFFFFFFFFFFFFFFFFFFFFFFFFFF AND EQ PUSH2 0x404 JUMPI PUSH1 0x40 MLOAD PUSH32 0x8C379A000000000000000000000000000000000000000000000000000000000 DUP2 MSTORE PUSH1 0x4 ADD PUSH2 0x3FB SWAP1 PUSH2 0x232D JUMP JUMPDEST PUSH1 0x40 MLOAD DUP1 SWAP2 SUB SWAP1 REVERT JUMPDEST PUSH2 0x490 JUMP JUMPDEST PUSH2 0x411 PUSH2 0x1396 JUMP JUMPDEST PUSH20 0xFFFFFFFFFFFFFFFFFFFFFFFFFFFFFFFFFFFFFFFF AND CALLER PUSH20 0xFFFFFFFFFFFFFFFFFFFFFFFFFFFFFFFFFFFFFFFF AND EQ DUP1 ISZERO PUSH2 0x450 JUMPI POP PUSH2 0x44E PUSH2 0x13C0 JUMP JUMPDEST ISZERO JUMPDEST PUSH2 0x48F JUMPI PUSH1 0x40 MLOAD PUSH32 0x8C379A000000000000000000000000000000000000000000000000000000000 DUP2 MSTORE PUSH1 0x4 ADD PUSH2 0x486 SWAP1 PUSH2 0x232D JUMP JUMPDEST PUSH1 0x40 MLOAD DUP1 SWAP2 SUB SWAP1 REVERT JUMPDEST JUMPDEST DUP1 PUSH1 0x2 PUSH0 PUSH2 0x100 EXP DUP2 SLOAD DUP2 PUSH20 0xFFFFFFFFFFFFFFFFFFFFFFFFFFFFFFFFFFFFFFFF MUL NOT AND SWAP1 DUP4 PUSH20 0xFFFFFFFFFFFFFFFFFFFFFFFFFFFFFFFFFFFFFFFF AND MUL OR SWAP1 SSTORE POP PUSH2 0x4DA PUSH1 0x1 PUSH2 0x1F0D JUMP JUMPDEST PUSH2 0x4E4 PUSH1 0x1 PUSH2 0x1F2C JUMP JUMPDEST DUP1 PUSH20 0xFFFFFFFFFFFFFFFFFFFFFFFFFFFFFFFFFFFFFFFF AND PUSH32 0x3553F1F7EF0242113266A8D183B621BB87468C99237F36B1150B6AB3D688B686 PUSH1 0x40 MLOAD PUSH1 0x40 MLOAD DUP1 SWAP2 SUB SWAP1 LOG2 POP JUMP JUMPDEST PUSH2 0x532 PUSH2 0x1396 JUMP JUMPDEST PUSH20 0xFFFFFFFFFFFFFFFFFFFFFFFFFFFFFFFFFFFFFFFF AND CALLER PUSH20 0xFFFFFFFFFFFFFFFFFFFFFFFFFFFFFFFFFFFFFFFF AND EQ DUP1 ISZERO PUSH2 0x571 JUMPI POP PUSH2 0x56F PUSH2 0x13C0 JUMP JUMPDEST ISZERO JUMPDEST PUSH2 0x5B0 JUMPI PUSH1 0x40 MLOAD PUSH32 0x8C379A000000000000000000000000000000000000000000000000000000000 DUP2 MSTORE PUSH1 0x4 ADD PUSH2 0x5A7 SWAP1 PUSH2 0x232D JUMP JUMPDEST PUSH1 0x40 MLOAD DUP1 SWAP2 SUB SWAP1 REVERT JUMPDEST PUSH2 0x5B9 DUP2 PUSH2 0x1F2C JUMP JUMPDEST POP JUMP JUMPDEST CALLER PUSH20 0xFFFFFFFFFFFFFFFFFFFFFFFFFFFFFFFFFFFFFFFF AND PUSH1 0x2 PUSH0 SWAP1 SLOAD SWAP1 PUSH2 0x100 EXP SWAP1 DIV PUSH20 0xFFFFFFFFFFFFFFFFFFFFFFFFFFFFFFFFFFFFFFFF AND PUSH20 0xFFFFFFFFFFFFFFFFFFFFFFFFFFFFFFFFFFFFFFFF AND SUB PUSH2 0x748 JUMPI PUSH1 0x2 PUSH0 PUSH2 0x100 EXP DUP2 SLOAD SWAP1 PUSH20 0xFFFFFFFFFFFFFFFFFFFFFFFFFFFFFFFFFFFFFFFF MUL NOT AND SWAP1 SSTORE CALLER PUSH1 0x4 PUSH0 ADD PUSH0 PUSH2 0x100 EXP DUP2 SLOAD DUP2 PUSH20 0xFFFFFFFFFFFFFFFFFFFFFFFFFFFFFFFFFFFFFFFF MUL NOT AND SWAP1 DUP4 PUSH20 0xFFFFFFFFFFFFFFFFFFFFFFFFFFFFFFFFFFFFFFFF AND MUL OR SWAP1 SSTORE POP PUSH1 0x4 PUSH0 ADD PUSH1 0x15 DUP2 DUP2 SWAP1 SLOAD SWAP1 PUSH2 0x100 EXP SWAP1 DIV PUSH4 0xFFFFFFFF AND DUP1 SWAP3 SWAP2 SWAP1 PUSH2 0x69A SWAP1 PUSH2 0x2378 JUMP JUMPDEST SWAP2 SWAP1 PUSH2 0x100 EXP DUP2 SLOAD DUP2 PUSH4 0xFFFFFFFF MUL NOT AND SWAP1 DUP4 PUSH4 0xFFFFFFFF AND MUL OR SWAP1 SSTORE POP POP PUSH2 0x6C2 PUSH0 PUSH2 0x1F0D JUMP JUMPDEST PUSH1 0x4 PUSH0 ADD PUSH1 0x15 SWAP1 SLOAD SWAP1 PUSH2 0x100 EXP SWAP1 DIV PUSH4 0xFFFFFFFF AND PUSH4 0xFFFFFFFF AND PUSH1 0x4 PUSH0 ADD PUSH0 SWAP1 SLOAD SWAP1 PUSH2 0x100 EXP SWAP1 DIV PUSH20 0xFFFFFFFFFFFFFFFFFFFFFFFFFFFFFFFFFFFFFFFF AND PUSH20 0xFFFFFFFFFFFFFFFFFFFFFFFFFFFFFFFFFFFFFFFF AND PUSH32 0x5AD9B3688012CD825C1BFB941E4F5AFB2558AF6AF3DEADDF01DBB5E85ABDAF9 PUSH1 0x40 MLOAD PUSH1 0x40 MLOAD DUP1 SWAP2 SUB SWAP1 LOG3 PUSH2 0x77A JUMP JUMPDEST PUSH1 0x40 MLOAD PUSH32 0x6C4360F000000000000000000000000000000000000000000000000000000000 DUP2 MSTORE PUSH1 0x4 ADD PUSH1 0x40 MLOAD DUP1 SWAP2 SUB SWAP1 REVERT JUMPDEST JUMP JUMPDEST TIMESTAMP PUSH32 0x0 PUSH6 0xFFFFFFFFFFFF AND LT ISZERO PUSH2 0x826 JUMPI PUSH2 0x7B4 PUSH2 0x1851 JUMP JUMPDEST PUSH20 0xFFFFFFFFFFFFFFFFFFFFFFFFFFFFFFFFFFFFFFFF AND CALLER PUSH20 0xFFFFFFFFFFFFFFFFFFFFFFFFFFFFFFFFFFFFFFFF AND EQ PUSH2 0x821 JUMPI PUSH1 0x40 MLOAD PUSH32 0x8C379A000000000000000000000000000000000000000000000000000000000 DUP2 MSTORE PUSH1 0x4 ADD PUSH2 0x818 SWAP1 PUSH2 0x232D JUMP JUMPDEST PUSH1 0x40 MLOAD DUP1 SWAP2 SUB SWAP1 REVERT JUMPDEST PUSH2 0x8AD JUMP JUMPDEST PUSH2 0x82E PUSH2 0x16C6 JUMP JUMPDEST PUSH20 0xFFFFFFFFFFFFFFFFFFFFFFFFFFFFFFFFFFFFFFFF AND CALLER PUSH20 0xFFFFFFFFFFFFFFFFFFFFFFFFFFFFFFFFFFFFFFFF AND EQ DUP1 ISZERO PUSH2 0x86D JUMPI POP PUSH2 0x86B PUSH2 0x1CAC JUMP JUMPDEST ISZERO JUMPDEST PUSH2 0x8AC JUMPI PUSH1 0x40 MLOAD PUSH32 0x8C379A000000000000000000000000000000000000000000000000000000000 DUP2 MSTORE PUSH1 0x4 ADD PUSH2 0x8A3 SWAP1 PUSH2 0x232D JUMP JUMPDEST PUSH1 0x40 MLOAD DUP1 SWAP2 SUB SWAP1 REVERT JUMPDEST JUMPDEST PUSH0 PUSH20 0xFFFFFFFFFFFFFFFFFFFFFFFFFFFFFFFFFFFFFFFF AND DUP6 PUSH20 0xFFFFFFFFFFFFFFFFFFFFFFFFFFFFFFFFFFFFFFFF AND EQ PUSH2 0x988 JUMPI PUSH1 0x8 PUSH0 DUP7 PUSH20 0xFFFFFFFFFFFFFFFFFFFFFFFFFFFFFFFFFFFFFFFF AND PUSH20 0xFFFFFFFFFFFFFFFFFFFFFFFFFFFFFFFFFFFFFFFF AND DUP2 MSTORE PUSH1 0x20 ADD SWAP1 DUP2 MSTORE PUSH1 0x20 ADD PUSH0 KECCAK256 PUSH0 DUP1 DUP3 ADD PUSH0 SWAP1 SSTORE PUSH1 0x1 DUP3 ADD PUSH0 PUSH2 0x100 EXP DUP2 SLOAD SWAP1 PUSH4 0xFFFFFFFF MUL NOT AND SWAP1 SSTORE PUSH1 0x1 DUP3 ADD PUSH1 0x4 PUSH2 0x100 EXP DUP2 SLOAD SWAP1 PUSH6 0xFFFFFFFFFFFF MUL NOT AND SWAP1 SSTORE PUSH1 0x1 DUP3 ADD PUSH1 0xA PUSH2 0x100 EXP DUP2 SLOAD SWAP1 PUSH6 0xFFFFFFFFFFFF MUL NOT AND SWAP1 SSTORE PUSH1 0x1 DUP3 ADD PUSH1 0x10 PUSH2 0x100 EXP DUP2 SLOAD SWAP1 PUSH6 0xFFFFFFFFFFFF MUL NOT AND SWAP1 SSTORE POP POP JUMPDEST DUP3 PUSH1 0x8 PUSH0 DUP7 PUSH20 0xFFFFFFFFFFFFFFFFFFFFFFFFFFFFFFFFFFFFFFFF AND PUSH20 0xFFFFFFFFFFFFFFFFFFFFFFFFFFFFFFFFFFFFFFFF AND DUP2 MSTORE PUSH1 0x20 ADD SWAP1 DUP2 MSTORE PUSH1 0x20 ADD PUSH0 KECCAK256 PUSH0 ADD SLOAD EQ ISZERO DUP1 ISZERO PUSH2 0xA32 JUMPI POP DUP2 PUSH4 0xFFFFFFFF AND PUSH1 0x8 PUSH0 DUP7 PUSH20 0xFFFFFFFFFFFFFFFFFFFFFFFFFFFFFFFFFFFFFFFF AND PUSH20 0xFFFFFFFFFFFFFFFFFFFFFFFFFFFFFFFFFFFFFFFF AND DUP2 MSTORE PUSH1 0x20 ADD SWAP1 DUP2 MSTORE PUSH1 0x20 ADD PUSH0 KECCAK256 PUSH1 0x1 ADD PUSH0 SWAP1 SLOAD SWAP1 PUSH2 0x100 EXP SWAP1 DIV PUSH4 0xFFFFFFFF AND PUSH4 0xFFFFFFFF AND EQ ISZERO JUMPDEST ISZERO PUSH2 0xB8C JUMPI DUP3 PUSH1 0x8 PUSH0 DUP7 PUSH20 0xFFFFFFFFFFFFFFFFFFFFFFFFFFFFFFFFFFFFFFFF AND PUSH20 0xFFFFFFFFFFFFFFFFFFFFFFFFFFFFFFFFFFFFFFFF AND DUP2 MSTORE PUSH1 0x20 ADD SWAP1 DUP2 MSTORE PUSH1 0x20 ADD PUSH0 KECCAK256 PUSH0 ADD DUP2 SWAP1 SSTORE POP DUP2 PUSH1 0x8 PUSH0 DUP7 PUSH20 0xFFFFFFFFFFFFFFFFFFFFFFFFFFFFFFFFFFFFFFFF AND PUSH20 0xFFFFFFFFFFFFFFFFFFFFFFFFFFFFFFFFFFFFFFFF AND DUP2 MSTORE PUSH1 0x20 ADD SWAP1 DUP2 MSTORE PUSH1 0x20 ADD PUSH0 KECCAK256 PUSH1 0x1 ADD PUSH0 PUSH2 0x100 EXP DUP2 SLOAD DUP2 PUSH4 0xFFFFFFFF MUL NOT AND SWAP1 DUP4 PUSH4 0xFFFFFFFF AND MUL OR SWAP1 SSTORE POP DUP1 PUSH1 0x8 PUSH0 DUP7 PUSH20 0xFFFFFFFFFFFFFFFFFFFFFFFFFFFFFFFFFFFFFFFF AND PUSH20 0xFFFFFFFFFFFFFFFFFFFFFFFFFFFFFFFFFFFFFFFF AND DUP2 MSTORE PUSH1 0x20 ADD SWAP1 DUP2 MSTORE PUSH1 0x20 ADD PUSH0 KECCAK256 PUSH1 0x1 ADD PUSH1 0x10 PUSH2 0x100 EXP DUP2 SLOAD DUP2 PUSH6 0xFFFFFFFFFFFF MUL NOT AND SWAP1 DUP4 PUSH6 0xFFFFFFFFFFFF AND MUL OR SWAP1 SSTORE POP DUP2 PUSH4 0xFFFFFFFF AND DUP4 DUP6 PUSH20 0xFFFFFFFFFFFFFFFFFFFFFFFFFFFFFFFFFFFFFFFF AND PUSH32 0x5C43A67D451CACADDC8309AF64192A4EBEE009B9CAB5EEB59EC1FB77DD3ABCBC PUSH1 0x40 MLOAD PUSH1 0x40 MLOAD DUP1 SWAP2 SUB SWAP1 LOG4 PUSH2 0xB8D JUMP JUMPDEST JUMPDEST POP POP POP POP POP JUMP JUMPDEST CALLER PUSH20 0xFFFFFFFFFFFFFFFFFFFFFFFFFFFFFFFFFFFFFFFF AND PUSH1 0x3 PUSH0 SWAP1 SLOAD SWAP1 PUSH2 0x100 EXP SWAP1 DIV PUSH20 0xFFFFFFFFFFFFFFFFFFFFFFFFFFFFFFFFFFFFFFFF AND PUSH20 0xFFFFFFFFFFFFFFFFFFFFFFFFFFFFFFFFFFFFFFFF AND SUB PUSH2 0xD38 JUMPI PUSH1 0x3 PUSH0 PUSH2 0x100 EXP DUP2 SLOAD SWAP1 PUSH20 0xFFFFFFFFFFFFFFFFFFFFFFFFFFFFFFFFFFFFFFFF MUL NOT AND SWAP1 SSTORE CALLER PUSH1 0x5 PUSH0 ADD PUSH0 PUSH2 0x100 EXP DUP2 SLOAD DUP2 PUSH20 0xFFFFFFFFFFFFFFFFFFFFFFFFFFFFFFFFFFFFFFFF MUL NOT AND SWAP1 DUP4 PUSH20 0xFFFFFFFFFFFFFFFFFFFFFFFFFFFFFFFFFFFFFFFF AND MUL OR SWAP1 SSTORE POP PUSH1 0x5 PUSH0 ADD PUSH1 0x15 DUP2 DUP2 SWAP1 SLOAD SWAP1 PUSH2 0x100 EXP SWAP1 DIV PUSH4 0xFFFFFFFF AND DUP1 SWAP3 SWAP2 SWAP1 PUSH2 0xC72 SWAP1 PUSH2 0x2378 JUMP JUMPDEST SWAP2 SWAP1 PUSH2 0x100 EXP DUP2 SLOAD DUP2 PUSH4 0xFFFFFFFF MUL NOT AND SWAP1 DUP4 PUSH4 0xFFFFFFFF AND MUL OR SWAP1 SSTORE POP POP PUSH1 0x5 PUSH0 ADD PUSH1 0x14 SWAP1 SLOAD SWAP1 PUSH2 0x100 EXP SWAP1 DIV PUSH1 0xFF AND ISZERO PUSH2 0xCB2 JUMPI PUSH2 0xCB1 PUSH0 PUSH2 0x1F2C JUMP JUMPDEST JUMPDEST PUSH1 0x5 PUSH0 ADD PUSH1 0x15 SWAP1 SLOAD SWAP1 PUSH2 0x100 EXP SWAP1 DIV PUSH4 0xFFFFFFFF AND PUSH4 0xFFFFFFFF AND PUSH1 0x5 PUSH0 ADD PUSH0 SWAP1 SLOAD SWAP1 PUSH2 0x100 EXP SWAP1 DIV PUSH20 0xFFFFFFFFFFFFFFFFFFFFFFFFFFFFFFFFFFFFFFFF AND PUSH20 0xFFFFFFFFFFFFFFFFFFFFFFFFFFFFFFFFFFFFFFFF AND PUSH32 0x11E1B985C07E1BF3FEC9BFD0BDB8C4A8E870BA2B26AA89FE50A6A19132CA10FD PUSH1 0x40 MLOAD PUSH1 0x40 MLOAD DUP1 SWAP2 SUB SWAP1 LOG3 PUSH2 0xD6A JUMP JUMPDEST PUSH1 0x40 MLOAD PUSH32 0x6C4360F000000000000000000000000000000000000000000000000000000000 DUP2 MSTORE PUSH1 0x4 ADD PUSH1 0x40 MLOAD DUP1 SWAP2 SUB SWAP1 REVERT JUMPDEST JUMP JUMPDEST TIMESTAMP PUSH32 0x0 PUSH6 0xFFFFFFFFFFFF AND LT ISZERO PUSH2 0xE16 JUMPI PUSH2 0xDA4 PUSH2 0x1851 JUMP JUMPDEST PUSH20 0xFFFFFFFFFFFFFFFFFFFFFFFFFFFFFFFFFFFFFFFF AND CALLER PUSH20 0xFFFFFFFFFFFFFFFFFFFFFFFFFFFFFFFFFFFFFFFF AND EQ PUSH2 0xE11 JUMPI PUSH1 0x40 MLOAD PUSH32 0x8C379A000000000000000000000000000000000000000000000000000000000 DUP2 MSTORE PUSH1 0x4 ADD PUSH2 0xE08 SWAP1 PUSH2 0x232D JUMP JUMPDEST PUSH1 0x40 MLOAD DUP1 SWAP2 SUB SWAP1 REVERT JUMPDEST PUSH2 0xE9D JUMP JUMPDEST PUSH2 0xE1E PUSH2 0x1396 JUMP JUMPDEST PUSH20 0xFFFFFFFFFFFFFFFFFFFFFFFFFFFFFFFFFFFFFFFF AND CALLER PUSH20 0xFFFFFFFFFFFFFFFFFFFFFFFFFFFFFFFFFFFFFFFF AND EQ DUP1 ISZERO PUSH2 0xE5D JUMPI POP PUSH2 0xE5B PUSH2 0x13C0 JUMP JUMPDEST ISZERO JUMPDEST PUSH2 0xE9C JUMPI PUSH1 0x40 MLOAD PUSH32 0x8C379A000000000000000000000000000000000000000000000000000000000 DUP2 MSTORE PUSH1 0x4 ADD PUSH2 0xE93 SWAP1 PUSH2 0x232D JUMP JUMPDEST PUSH1 0x40 MLOAD DUP1 SWAP2 SUB SWAP1 REVERT JUMPDEST JUMPDEST PUSH0 DUP2 PUSH20 0xFFFFFFFFFFFFFFFFFFFFFFFFFFFFFFFFFFFFFFFF AND EXTCODESIZE GT ISZERO PUSH2 0xFDB JUMPI CALLER PUSH20 0xFFFFFFFFFFFFFFFFFFFFFFFFFFFFFFFFFFFFFFFF AND PUSH1 0x4 PUSH0 ADD PUSH0 SWAP1 SLOAD SWAP1 PUSH2 0x100 EXP SWAP1 DIV PUSH20 0xFFFFFFFFFFFFFFFFFFFFFFFFFFFFFFFFFFFFFFFF AND PUSH20 0xFFFFFFFFFFFFFFFFFFFFFFFFFFFFFFFFFFFFFFFF AND SUB PUSH2 0xF20 JUMPI PUSH2 0xF1B DUP2 PUSH2 0x1F4B JUMP JUMPDEST PUSH2 0xFD6 JUMP JUMPDEST PUSH3 0x13C680 TIMESTAMP PUSH2 0xF2F SWAP2 SWAP1 PUSH2 0x23AC JUMP JUMPDEST PUSH1 0x3 PUSH1 0x14 PUSH2 0x100 EXP DUP2 SLOAD DUP2 PUSH6 0xFFFFFFFFFFFF MUL NOT AND SWAP1 DUP4 PUSH6 0xFFFFFFFFFFFF AND MUL OR SWAP1 SSTORE POP DUP1 PUSH0 DUP1 PUSH2 0x100 EXP DUP2 SLOAD DUP2 PUSH20 0xFFFFFFFFFFFFFFFFFFFFFFFFFFFFFFFFFFFFFFFF MUL NOT AND SWAP1 DUP4 PUSH20 0xFFFFFFFFFFFFFFFFFFFFFFFFFFFFFFFFFFFFFFFF AND MUL OR SWAP1 SSTORE POP DUP1 PUSH20 0xFFFFFFFFFFFFFFFFFFFFFFFFFFFFFFFFFFFFFFFF AND PUSH32 0x675B770E821BA4AAD20BE77C58F912D689226272E805637F42F838A6035EED86 PUSH1 0x40 MLOAD PUSH1 0x40 MLOAD DUP1 SWAP2 SUB SWAP1 LOG2 JUMPDEST PUSH2 0x1018 JUMP JUMPDEST DUP1 PUSH1 0x40 MLOAD PUSH32 0xC632231500000000000000000000000000000000000000000000000000000000 DUP2 MSTORE PUSH1 0x4 ADD PUSH2 0x100F SWAP2 SWAP1 PUSH2 0x226A JUMP JUMPDEST PUSH1 0x40 MLOAD DUP1 SWAP2 SUB SWAP1 REVERT JUMPDEST POP JUMP JUMPDEST PUSH0 PUSH1 0x6 PUSH0 ADD PUSH0 SWAP1 SLOAD SWAP1 PUSH2 0x100 EXP SWAP1 DIV PUSH20 0xFFFFFFFFFFFFFFFFFFFFFFFFFFFFFFFFFFFFFFFF AND SWAP1 POP SWAP1 JUMP JUMPDEST TIMESTAMP PUSH32 0x0 PUSH6 0xFFFFFFFFFFFF AND LT ISZERO PUSH2 0x10EF JUMPI PUSH2 0x107D PUSH2 0x1851 JUMP JUMPDEST PUSH20 0xFFFFFFFFFFFFFFFFFFFFFFFFFFFFFFFFFFFFFFFF AND CALLER PUSH20 0xFFFFFFFFFFFFFFFFFFFFFFFFFFFFFFFFFFFFFFFF AND EQ PUSH2 0x10EA JUMPI PUSH1 0x40 MLOAD PUSH32 0x8C379A000000000000000000000000000000000000000000000000000000000 DUP2 MSTORE PUSH1 0x4 ADD PUSH2 0x10E1 SWAP1 PUSH2 0x232D JUMP JUMPDEST PUSH1 0x40 MLOAD DUP1 SWAP2 SUB SWAP1 REVERT JUMPDEST PUSH2 0x1176 JUMP JUMPDEST PUSH2 0x10F7 PUSH2 0x1396 JUMP JUMPDEST PUSH20 0xFFFFFFFFFFFFFFFFFFFFFFFFFFFFFFFFFFFFFFFF AND CALLER PUSH20 0xFFFFFFFFFFFFFFFFFFFFFFFFFFFFFFFFFFFFFFFF AND EQ DUP1 ISZERO PUSH2 0x1136 JUMPI POP PUSH2 0x1134 PUSH2 0x13C0 JUMP JUMPDEST ISZERO JUMPDEST PUSH2 0x1175 JUMPI PUSH1 0x40 MLOAD PUSH32 0x8C379A000000000000000000000000000000000000000000000000000000000 DUP2 MSTORE PUSH1 0x4 ADD PUSH2 0x116C SWAP1 PUSH2 0x232D JUMP JUMPDEST PUSH1 0x40 MLOAD DUP1 SWAP2 SUB SWAP1 REVERT JUMPDEST JUMPDEST DUP1 PUSH20 0xFFFFFFFFFFFFFFFFFFFFFFFFFFFFFFFFFFFFFFFF AND PUSH0 DUP1 SLOAD SWAP1 PUSH2 0x100 EXP SWAP1 DIV PUSH20 0xFFFFFFFFFFFFFFFFFFFFFFFFFFFFFFFFFFFFFFFF AND PUSH20 0xFFFFFFFFFFFFFFFFFFFFFFFFFFFFFFFFFFFFFFFF AND SUB PUSH2 0x124A JUMPI PUSH1 0x3 PUSH1 0x14 PUSH2 0x100 EXP DUP2 SLOAD SWAP1 PUSH6 0xFFFFFFFFFFFF MUL NOT AND SWAP1 SSTORE PUSH0 DUP1 PUSH2 0x100 EXP DUP2 SLOAD SWAP1 PUSH20 0xFFFFFFFFFFFFFFFFFFFFFFFFFFFFFFFFFFFFFFFF MUL NOT AND SWAP1 SSTORE DUP1 PUSH20 0xFFFFFFFFFFFFFFFFFFFFFFFFFFFFFFFFFFFFFFFF AND PUSH32 0xF299F61C7E493F99B20CB36C587CA903D085D5206BFE4452D295711E372DA029 PUSH1 0x40 MLOAD PUSH1 0x40 MLOAD DUP1 SWAP2 SUB SWAP1 LOG2 PUSH2 0x1287 JUMP JUMPDEST DUP1 PUSH1 0x40 MLOAD PUSH32 0xC632231500000000000000000000000000000000000000000000000000000000 DUP2 MSTORE PUSH1 0x4 ADD PUSH2 0x127E SWAP2 SWAP1 PUSH2 0x226A JUMP JUMPDEST PUSH1 0x40 MLOAD DUP1 SWAP2 SUB SWAP1 REVERT JUMPDEST POP JUMP JUMPDEST PUSH2 0x1292 PUSH2 0x1396 JUMP JUMPDEST PUSH20 0xFFFFFFFFFFFFFFFFFFFFFFFFFFFFFFFFFFFFFFFF AND CALLER PUSH20 0xFFFFFFFFFFFFFFFFFFFFFFFFFFFFFFFFFFFFFFFF AND EQ DUP1 ISZERO PUSH2 0x12D1 JUMPI POP PUSH2 0x12CF PUSH2 0x13C0 JUMP JUMPDEST ISZERO JUMPDEST PUSH2 0x1310 JUMPI PUSH1 0x40 MLOAD PUSH32 0x8C379A000000000000000000000000000000000000000000000000000000000 DUP2 MSTORE PUSH1 0x4 ADD PUSH2 0x1307 SWAP1 PUSH2 0x232D JUMP JUMPDEST PUSH1 0x40 MLOAD DUP1 SWAP2 SUB SWAP1 REVERT JUMPDEST DUP1 PUSH1 0x3 PUSH0 PUSH2 0x100 EXP DUP2 SLOAD DUP2 PUSH20 0xFFFFFFFFFFFFFFFFFFFFFFFFFFFFFFFFFFFFFFFF MUL NOT AND SWAP1 DUP4 PUSH20 0xFFFFFFFFFFFFFFFFFFFFFFFFFFFFFFFFFFFFFFFF AND MUL OR SWAP1 SSTORE POP DUP1 PUSH20 0xFFFFFFFFFFFFFFFFFFFFFFFFFFFFFFFFFFFFFFFF AND PUSH32 0xFF3CAD3EE28C342AD5F3D7C8FF8559EE4D21EB48494092B82A1652E443B3420B PUSH1 0x40 MLOAD PUSH1 0x40 MLOAD DUP1 SWAP2 SUB SWAP1 LOG2 POP JUMP JUMPDEST PUSH0 PUSH1 0x4 PUSH0 ADD PUSH0 SWAP1 SLOAD SWAP1 PUSH2 0x100 EXP SWAP1 DIV PUSH20 0xFFFFFFFFFFFFFFFFFFFFFFFFFFFFFFFFFFFFFFFF AND SWAP1 POP SWAP1 JUMP JUMPDEST PUSH0 PUSH1 0x4 PUSH0 ADD PUSH1 0x14 SWAP1 SLOAD SWAP1 PUSH2 0x100 EXP SWAP1 DIV PUSH1 0xFF AND SWAP1 POP SWAP1 JUMP JUMPDEST TIMESTAMP PUSH32 0x0 PUSH6 0xFFFFFFFFFFFF AND LT ISZERO PUSH2 0x1482 JUMPI PUSH2 0x1410 PUSH2 0x1851 JUMP JUMPDEST PUSH20 0xFFFFFFFFFFFFFFFFFFFFFFFFFFFFFFFFFFFFFFFF AND CALLER PUSH20 0xFFFFFFFFFFFFFFFFFFFFFFFFFFFFFFFFFFFFFFFF AND EQ PUSH2 0x147D JUMPI PUSH1 0x40 MLOAD PUSH32 0x8C379A000000000000000000000000000000000000000000000000000000000 DUP2 MSTORE PUSH1 0x4 ADD PUSH2 0x1474 SWAP1 PUSH2 0x232D JUMP JUMPDEST PUSH1 0x40 MLOAD DUP1 SWAP2 SUB SWAP1 REVERT JUMPDEST PUSH2 0x1509 JUMP JUMPDEST PUSH2 0x148A PUSH2 0x1396 JUMP JUMPDEST PUSH20 0xFFFFFFFFFFFFFFFFFFFFFFFFFFFFFFFFFFFFFFFF AND CALLER PUSH20 0xFFFFFFFFFFFFFFFFFFFFFFFFFFFFFFFFFFFFFFFF AND EQ DUP1 ISZERO PUSH2 0x14C9 JUMPI POP PUSH2 0x14C7 PUSH2 0x13C0 JUMP JUMPDEST ISZERO JUMPDEST PUSH2 0x1508 JUMPI PUSH1 0x40 MLOAD PUSH32 0x8C379A000000000000000000000000000000000000000000000000000000000 DUP2 MSTORE PUSH1 0x4 ADD PUSH2 0x14FF SWAP1 PUSH2 0x232D JUMP JUMPDEST PUSH1 0x40 MLOAD DUP1 SWAP2 SUB SWAP1 REVERT JUMPDEST JUMPDEST TIMESTAMP PUSH1 0x3 PUSH1 0x14 SWAP1 SLOAD SWAP1 PUSH2 0x100 EXP SWAP1 DIV PUSH6 0xFFFFFFFFFFFF AND PUSH6 0xFFFFFFFFFFFF AND LT ISZERO PUSH2 0x1667 JUMPI PUSH0 PUSH1 0x3 PUSH1 0x14 SWAP1 SLOAD SWAP1 PUSH2 0x100 EXP SWAP1 DIV PUSH6 0xFFFFFFFFFFFF AND PUSH6 0xFFFFFFFFFFFF AND SUB PUSH2 0x158B JUMPI PUSH1 0x40 MLOAD PUSH32 0x8C379A000000000000000000000000000000000000000000000000000000000 DUP2 MSTORE PUSH1 0x4 ADD PUSH2 0x1582 SWAP1 PUSH2 0x2429 JUMP JUMPDEST PUSH1 0x40 MLOAD DUP1 SWAP2 SUB SWAP1 REVERT JUMPDEST DUP1 PUSH20 0xFFFFFFFFFFFFFFFFFFFFFFFFFFFFFFFFFFFFFFFF AND PUSH0 DUP1 SLOAD SWAP1 PUSH2 0x100 EXP SWAP1 DIV PUSH20 0xFFFFFFFFFFFFFFFFFFFFFFFFFFFFFFFFFFFFFFFF AND PUSH20 0xFFFFFFFFFFFFFFFFFFFFFFFFFFFFFFFFFFFFFFFF AND SUB PUSH2 0x1625 JUMPI PUSH1 0x3 PUSH1 0x14 PUSH2 0x100 EXP DUP2 SLOAD SWAP1 PUSH6 0xFFFFFFFFFFFF MUL NOT AND SWAP1 SSTORE PUSH0 DUP1 PUSH2 0x100 EXP DUP2 SLOAD SWAP1 PUSH20 0xFFFFFFFFFFFFFFFFFFFFFFFFFFFFFFFFFFFFFFFF MUL NOT AND SWAP1 SSTORE PUSH2 0x1620 DUP2 PUSH2 0x1F4B JUMP JUMPDEST PUSH2 0x1662 JUMP JUMPDEST DUP1 PUSH1 0x40 MLOAD PUSH32 0xC632231500000000000000000000000000000000000000000000000000000000 DUP2 MSTORE PUSH1 0x4 ADD PUSH2 0x1659 SWAP2 SWAP1 PUSH2 0x226A JUMP JUMPDEST PUSH1 0x40 MLOAD DUP1 SWAP2 SUB SWAP1 REVERT JUMPDEST PUSH2 0x16C3 JUMP JUMPDEST TIMESTAMP PUSH1 0x3 PUSH1 0x14 SWAP1 SLOAD SWAP1 PUSH2 0x100 EXP SWAP1 DIV PUSH6 0xFFFFFFFFFFFF AND PUSH2 0x1687 SWAP2 SWAP1 PUSH2 0x2447 JUMP JUMPDEST PUSH1 0x40 MLOAD PUSH32 0x223A6CBB00000000000000000000000000000000000000000000000000000000 DUP2 MSTORE PUSH1 0x4 ADD PUSH2 0x16BA SWAP2 SWAP1 PUSH2 0x248F JUMP JUMPDEST PUSH1 0x40 MLOAD DUP1 SWAP2 SUB SWAP1 REVERT JUMPDEST POP JUMP JUMPDEST PUSH0 PUSH1 0x5 PUSH0 ADD PUSH0 SWAP1 SLOAD SWAP1 PUSH2 0x100 EXP SWAP1 DIV PUSH20 0xFFFFFFFFFFFFFFFFFFFFFFFFFFFFFFFFFFFFFFFF AND SWAP1 POP SWAP1 JUMP JUMPDEST TIMESTAMP PUSH32 0x0 PUSH6 0xFFFFFFFFFFFF AND LT ISZERO PUSH2 0x179A JUMPI PUSH2 0x1728 PUSH2 0x1851 JUMP JUMPDEST PUSH20 0xFFFFFFFFFFFFFFFFFFFFFFFFFFFFFFFFFFFFFFFF AND CALLER PUSH20 0xFFFFFFFFFFFFFFFFFFFFFFFFFFFFFFFFFFFFFFFF AND EQ PUSH2 0x1795 JUMPI PUSH1 0x40 MLOAD PUSH32 0x8C379A000000000000000000000000000000000000000000000000000000000 DUP2 MSTORE PUSH1 0x4 ADD PUSH2 0x178C SWAP1 PUSH2 0x232D JUMP JUMPDEST PUSH1 0x40 MLOAD DUP1 SWAP2 SUB SWAP1 REVERT JUMPDEST PUSH2 0x1821 JUMP JUMPDEST PUSH2 0x17A2 PUSH2 0x1396 JUMP JUMPDEST PUSH20 0xFFFFFFFFFFFFFFFFFFFFFFFFFFFFFFFFFFFFFFFF AND CALLER PUSH20 0xFFFFFFFFFFFFFFFFFFFFFFFFFFFFFFFFFFFFFFFF AND EQ DUP1 ISZERO PUSH2 0x17E1 JUMPI POP PUSH2 0x17DF PUSH2 0x13C0 JUMP JUMPDEST ISZERO JUMPDEST PUSH2 0x1820 JUMPI PUSH1 0x40 MLOAD PUSH32 0x8C379A000000000000000000000000000000000000000000000000000000000 DUP2 MSTORE PUSH1 0x4 ADD PUSH2 0x1817 SWAP1 PUSH2 0x232D JUMP JUMPDEST PUSH1 0x40 MLOAD DUP1 SWAP2 SUB SWAP1 REVERT JUMPDEST JUMPDEST PUSH2 0x182A DUP2 PUSH2 0x1F0D JUMP JUMPDEST PUSH2 0x1833 DUP2 PUSH2 0x1F2C JUMP JUMPDEST POP JUMP JUMPDEST PUSH0 PUSH1 0x6 PUSH0 ADD PUSH1 0x15 SWAP1 SLOAD SWAP1 PUSH2 0x100 EXP SWAP1 DIV PUSH4 0xFFFFFFFF AND SWAP1 POP SWAP1 JUMP JUMPDEST PUSH0 PUSH1 0x7 PUSH0 ADD PUSH0 SWAP1 SLOAD SWAP1 PUSH2 0x100 EXP SWAP1 DIV PUSH20 0xFFFFFFFFFFFFFFFFFFFFFFFFFFFFFFFFFFFFFFFF AND SWAP1 POP SWAP1 JUMP JUMPDEST TIMESTAMP PUSH32 0x0 PUSH6 0xFFFFFFFFFFFF AND LT ISZERO PUSH2 0x1925 JUMPI PUSH2 0x18B3 PUSH2 0x1851 JUMP JUMPDEST PUSH20 0xFFFFFFFFFFFFFFFFFFFFFFFFFFFFFFFFFFFFFFFF AND CALLER PUSH20 0xFFFFFFFFFFFFFFFFFFFFFFFFFFFFFFFFFFFFFFFF AND EQ PUSH2 0x1920 JUMPI PUSH1 0x40 MLOAD PUSH32 0x8C379A000000000000000000000000000000000000000000000000000000000 DUP2 MSTORE PUSH1 0x4 ADD PUSH2 0x1917 SWAP1 PUSH2 0x232D JUMP JUMPDEST PUSH1 0x40 MLOAD DUP1 SWAP2 SUB SWAP1 REVERT JUMPDEST PUSH2 0x19AC JUMP JUMPDEST PUSH2 0x192D PUSH2 0x1396 JUMP JUMPDEST PUSH20 0xFFFFFFFFFFFFFFFFFFFFFFFFFFFFFFFFFFFFFFFF AND CALLER PUSH20 0xFFFFFFFFFFFFFFFFFFFFFFFFFFFFFFFFFFFFFFFF AND EQ DUP1 ISZERO PUSH2 0x196C JUMPI POP PUSH2 0x196A PUSH2 0x13C0 JUMP JUMPDEST ISZERO JUMPDEST PUSH2 0x19AB JUMPI PUSH1 0x40 MLOAD PUSH32 0x8C379A000000000000000000000000000000000000000000000000000000000 DUP2 MSTORE PUSH1 0x4 ADD PUSH2 0x19A2 SWAP1 PUSH2 0x232D JUMP JUMPDEST PUSH1 0x40 MLOAD DUP1 SWAP2 SUB SWAP1 REVERT JUMPDEST JUMPDEST PUSH0 DUP2 PUSH20 0xFFFFFFFFFFFFFFFFFFFFFFFFFFFFFFFFFFFFFFFF AND EXTCODESIZE GT ISZERO PUSH2 0x1A53 JUMPI DUP1 PUSH1 0x1 PUSH0 PUSH2 0x100 EXP DUP2 SLOAD DUP2 PUSH20 0xFFFFFFFFFFFFFFFFFFFFFFFFFFFFFFFFFFFFFFFF MUL NOT AND SWAP1 DUP4 PUSH20 0xFFFFFFFFFFFFFFFFFFFFFFFFFFFFFFFFFFFFFFFF AND MUL OR SWAP1 SSTORE POP DUP1 PUSH20 0xFFFFFFFFFFFFFFFFFFFFFFFFFFFFFFFFFFFFFFFF AND PUSH32 0xE8D8E3C7C3EBEC0C177D0FE22D223F8B5071DB39155104808D45027E368BA77A PUSH1 0x40 MLOAD PUSH1 0x40 MLOAD DUP1 SWAP2 SUB SWAP1 LOG2 PUSH2 0x1A90 JUMP JUMPDEST DUP1 PUSH1 0x40 MLOAD PUSH32 0x84DBC6CB00000000000000000000000000000000000000000000000000000000 DUP2 MSTORE PUSH1 0x4 ADD PUSH2 0x1A87 SWAP2 SWAP1 PUSH2 0x226A JUMP JUMPDEST PUSH1 0x40 MLOAD DUP1 SWAP2 SUB SWAP1 REVERT JUMPDEST POP JUMP JUMPDEST PUSH0 PUSH1 0x8 PUSH0 CALLER PUSH20 0xFFFFFFFFFFFFFFFFFFFFFFFFFFFFFFFFFFFFFFFF AND PUSH20 0xFFFFFFFFFFFFFFFFFFFFFFFFFFFFFFFFFFFFFFFF AND DUP2 MSTORE PUSH1 0x20 ADD SWAP1 DUP2 MSTORE PUSH1 0x20 ADD PUSH0 KECCAK256 PUSH1 0x1 ADD PUSH0 SWAP1 SLOAD SWAP1 PUSH2 0x100 EXP SWAP1 DIV PUSH4 0xFFFFFFFF AND PUSH4 0xFFFFFFFF AND GT DUP1 ISZERO PUSH2 0x1B50 JUMPI POP PUSH0 PUSH1 0x8 PUSH0 CALLER PUSH20 0xFFFFFFFFFFFFFFFFFFFFFFFFFFFFFFFFFFFFFFFF AND PUSH20 0xFFFFFFFFFFFFFFFFFFFFFFFFFFFFFFFFFFFFFFFF AND DUP2 MSTORE PUSH1 0x20 ADD SWAP1 DUP2 MSTORE PUSH1 0x20 ADD PUSH0 KECCAK256 PUSH1 0x1 ADD PUSH1 0x4 SWAP1 SLOAD SWAP1 PUSH2 0x100 EXP SWAP1 DIV PUSH6 0xFFFFFFFFFFFF AND PUSH6 0xFFFFFFFFFFFF AND EQ JUMPDEST ISZERO PUSH2 0x1C71 JUMPI PUSH1 0x8 PUSH0 CALLER PUSH20 0xFFFFFFFFFFFFFFFFFFFFFFFFFFFFFFFFFFFFFFFF AND PUSH20 0xFFFFFFFFFFFFFFFFFFFFFFFFFFFFFFFFFFFFFFFF AND DUP2 MSTORE PUSH1 0x20 ADD SWAP1 DUP2 MSTORE PUSH1 0x20 ADD PUSH0 KECCAK256 POP PUSH1 0x8 PUSH0 CALLER PUSH20 0xFFFFFFFFFFFFFFFFFFFFFFFFFFFFFFFFFFFFFFFF AND PUSH20 0xFFFFFFFFFFFFFFFFFFFFFFFFFFFFFFFFFFFFFFFF AND DUP2 MSTORE PUSH1 0x20 ADD SWAP1 DUP2 MSTORE PUSH1 0x20 ADD PUSH0 KECCAK256 PUSH1 0x1 ADD PUSH0 SWAP1 SLOAD SWAP1 PUSH2 0x100 EXP SWAP1 DIV PUSH4 0xFFFFFFFF AND PUSH4 0xFFFFFFFF AND PUSH1 0x8 PUSH0 CALLER PUSH20 0xFFFFFFFFFFFFFFFFFFFFFFFFFFFFFFFFFFFFFFFF AND PUSH20 0xFFFFFFFFFFFFFFFFFFFFFFFFFFFFFFFFFFFFFFFF AND DUP2 MSTORE PUSH1 0x20 ADD SWAP1 DUP2 MSTORE PUSH1 0x20 ADD PUSH0 KECCAK256 PUSH0 ADD SLOAD CALLER PUSH20 0xFFFFFFFFFFFFFFFFFFFFFFFFFFFFFFFFFFFFFFFF AND PUSH32 0x4A5552F2D245EB6039B03D3A4F2AEEAE275C3D6DC08931B837B5715FBBE5199 PUSH1 0x40 MLOAD PUSH1 0x40 MLOAD DUP1 SWAP2 SUB SWAP1 LOG4 PUSH2 0x1CA3 JUMP JUMPDEST PUSH1 0x40 MLOAD PUSH32 0x6C4360F000000000000000000000000000000000000000000000000000000000 DUP2 MSTORE PUSH1 0x4 ADD PUSH1 0x40 MLOAD DUP1 SWAP2 SUB SWAP1 REVERT JUMPDEST JUMP JUMPDEST PUSH0 ADDRESS SWAP1 POP SWAP1 JUMP JUMPDEST PUSH0 PUSH1 0x5 PUSH0 ADD PUSH1 0x14 SWAP1 SLOAD SWAP1 PUSH2 0x100 EXP SWAP1 DIV PUSH1 0xFF AND SWAP1 POP SWAP1 JUMP JUMPDEST PUSH2 0x1CCC PUSH2 0x1396 JUMP JUMPDEST PUSH20 0xFFFFFFFFFFFFFFFFFFFFFFFFFFFFFFFFFFFFFFFF AND CALLER PUSH20 0xFFFFFFFFFFFFFFFFFFFFFFFFFFFFFFFFFFFFFFFF AND EQ DUP1 ISZERO PUSH2 0x1D0B JUMPI POP PUSH2 0x1D09 PUSH2 0x13C0 JUMP JUMPDEST ISZERO JUMPDEST PUSH2 0x1D4A JUMPI PUSH1 0x40 MLOAD PUSH32 0x8C379A000000000000000000000000000000000000000000000000000000000 DUP2 MSTORE PUSH1 0x4 ADD PUSH2 0x1D41 SWAP1 PUSH2 0x232D JUMP JUMPDEST PUSH1 0x40 MLOAD DUP1 SWAP2 SUB SWAP1 REVERT JUMPDEST DUP1 PUSH20 0xFFFFFFFFFFFFFFFFFFFFFFFFFFFFFFFFFFFFFFFF AND PUSH1 0x1 PUSH0 SWAP1 SLOAD SWAP1 PUSH2 0x100 EXP SWAP1 DIV PUSH20 0xFFFFFFFFFFFFFFFFFFFFFFFFFFFFFFFFFFFFFFFF AND PUSH20 0xFFFFFFFFFFFFFFFFFFFFFFFFFFFFFFFFFFFFFFFF AND SUB PUSH2 0x1ECD JUMPI PUSH1 0x1 PUSH0 PUSH2 0x100 EXP DUP2 SLOAD SWAP1 PUSH20 0xFFFFFFFFFFFFFFFFFFFFFFFFFFFFFFFFFFFFFFFF MUL NOT AND SWAP1 SSTORE DUP1 PUSH1 0x6 PUSH0 ADD PUSH0 PUSH2 0x100 EXP DUP2 SLOAD DUP2 PUSH20 0xFFFFFFFFFFFFFFFFFFFFFFFFFFFFFFFFFFFFFFFF MUL NOT AND SWAP1 DUP4 PUSH20 0xFFFFFFFFFFFFFFFFFFFFFFFFFFFFFFFFFFFFFFFF AND MUL OR SWAP1 SSTORE POP PUSH1 0x6 PUSH0 ADD PUSH1 0x15 DUP2 DUP2 SWAP1 SLOAD SWAP1 PUSH2 0x100 EXP SWAP1 DIV PUSH4 0xFFFFFFFF AND DUP1 SWAP3 SWAP2 SWAP1 PUSH2 0x1E28 SWAP1 PUSH2 0x2378 JUMP JUMPDEST SWAP2 SWAP1 PUSH2 0x100 EXP DUP2 SLOAD DUP2 PUSH4 0xFFFFFFFF MUL NOT AND SWAP1 DUP4 PUSH4 0xFFFFFFFF AND MUL OR SWAP1 SSTORE POP POP PUSH1 0x6 PUSH0 ADD PUSH1 0x15 SWAP1 SLOAD SWAP1 PUSH2 0x100 EXP SWAP1 DIV PUSH4 0xFFFFFFFF AND PUSH4 0xFFFFFFFF AND PUSH1 0x6 PUSH0 ADD PUSH0 SWAP1 SLOAD SWAP1 PUSH2 0x100 EXP SWAP1 DIV PUSH20 0xFFFFFFFFFFFFFFFFFFFFFFFFFFFFFFFFFFFFFFFF AND PUSH20 0xFFFFFFFFFFFFFFFFFFFFFFFFFFFFFFFFFFFFFFFF AND PUSH32 0x5E86008A8467D1EFCCFE6CB6BD49BA7278D6AF2745A1E6994E443322A4237093 PUSH1 0x40 MLOAD PUSH1 0x40 MLOAD DUP1 SWAP2 SUB SWAP1 LOG3 PUSH2 0x1F0A JUMP JUMPDEST DUP1 PUSH1 0x40 MLOAD PUSH32 0x84DBC6CB00000000000000000000000000000000000000000000000000000000 DUP2 MSTORE PUSH1 0x4 ADD PUSH2 0x1F01 SWAP2 SWAP1 PUSH2 0x226A JUMP JUMPDEST PUSH1 0x40 MLOAD DUP1 SWAP2 SUB SWAP1 REVERT JUMPDEST POP JUMP JUMPDEST DUP1 PUSH1 0x4 PUSH0 ADD PUSH1 0x14 PUSH2 0x100 EXP DUP2 SLOAD DUP2 PUSH1 0xFF MUL NOT AND SWAP1 DUP4 ISZERO ISZERO MUL OR SWAP1 SSTORE POP POP JUMP JUMPDEST DUP1 PUSH1 0x5 PUSH0 ADD PUSH1 0x14 PUSH2 0x100 EXP DUP2 SLOAD DUP2 PUSH1 0xFF MUL NOT AND SWAP1 DUP4 ISZERO ISZERO MUL OR SWAP1 SSTORE POP POP JUMP JUMPDEST DUP1 PUSH1 0x7 PUSH0 ADD PUSH0 PUSH2 0x100 EXP DUP2 SLOAD DUP2 PUSH20 0xFFFFFFFFFFFFFFFFFFFFFFFFFFFFFFFFFFFFFFFF MUL NOT AND SWAP1 DUP4 PUSH20 0xFFFFFFFFFFFFFFFFFFFFFFFFFFFFFFFFFFFFFFFF AND MUL OR SWAP1 SSTORE POP PUSH1 0x7 PUSH0 ADD PUSH1 0x15 DUP2 DUP2 SWAP1 SLOAD SWAP1 PUSH2 0x100 EXP SWAP1 DIV PUSH4 0xFFFFFFFF AND DUP1 SWAP3 SWAP2 SWAP1 PUSH2 0x1FB1 SWAP1 PUSH2 0x2378 JUMP JUMPDEST SWAP2 SWAP1 PUSH2 0x100 EXP DUP2 SLOAD DUP2 PUSH4 0xFFFFFFFF MUL NOT AND SWAP1 DUP4 PUSH4 0xFFFFFFFF AND MUL OR SWAP1 SSTORE POP POP PUSH1 0x7 PUSH0 ADD PUSH1 0x15 SWAP1 SLOAD SWAP1 PUSH2 0x100 EXP SWAP1 DIV PUSH4 0xFFFFFFFF AND PUSH4 0xFFFFFFFF AND PUSH1 0x7 PUSH0 ADD PUSH0 SWAP1 SLOAD SWAP1 PUSH2 0x100 EXP SWAP1 DIV PUSH20 0xFFFFFFFFFFFFFFFFFFFFFFFFFFFFFFFFFFFFFFFF AND PUSH20 0xFFFFFFFFFFFFFFFFFFFFFFFFFFFFFFFFFFFFFFFF AND PUSH32 0xF7F7C26682668C39FD8C6DBCA125BD9466E743B9E38ACC3240867C139CD93C30 PUSH1 0x40 MLOAD PUSH1 0x40 MLOAD DUP1 SWAP2 SUB SWAP1 LOG3 POP JUMP JUMPDEST PUSH0 DUP1 REVERT JUMPDEST PUSH0 PUSH20 0xFFFFFFFFFFFFFFFFFFFFFFFFFFFFFFFFFFFFFFFF DUP3 AND SWAP1 POP SWAP2 SWAP1 POP JUMP JUMPDEST PUSH0 PUSH2 0x2081 DUP3 PUSH2 0x2058 JUMP JUMPDEST SWAP1 POP SWAP2 SWAP1 POP JUMP JUMPDEST PUSH2 0x2091 DUP2 PUSH2 0x2077 JUMP JUMPDEST DUP2 EQ PUSH2 0x209B JUMPI PUSH0 DUP1 REVERT JUMPDEST POP JUMP JUMPDEST PUSH0 DUP2 CALLDATALOAD SWAP1 POP PUSH2 0x20AC DUP2 PUSH2 0x2088 JUMP JUMPDEST SWAP3 SWAP2 POP POP JUMP JUMPDEST PUSH0 PUSH1 0x20 DUP3 DUP5 SUB SLT ISZERO PUSH2 0x20C7 JUMPI PUSH2 0x20C6 PUSH2 0x2054 JUMP JUMPDEST JUMPDEST PUSH0 PUSH2 0x20D4 DUP5 DUP3 DUP6 ADD PUSH2 0x209E JUMP JUMPDEST SWAP2 POP POP SWAP3 SWAP2 POP POP JUMP JUMPDEST PUSH0 DUP2 ISZERO ISZERO SWAP1 POP SWAP2 SWAP1 POP JUMP JUMPDEST PUSH2 0x20F1 DUP2 PUSH2 0x20DD JUMP JUMPDEST DUP2 EQ PUSH2 0x20FB JUMPI PUSH0 DUP1 REVERT JUMPDEST POP JUMP JUMPDEST PUSH0 DUP2 CALLDATALOAD SWAP1 POP PUSH2 0x210C DUP2 PUSH2 0x20E8 JUMP JUMPDEST SWAP3 SWAP2 POP POP JUMP JUMPDEST PUSH0 PUSH1 0x20 DUP3 DUP5 SUB SLT ISZERO PUSH2 0x2127 JUMPI PUSH2 0x2126 PUSH2 0x2054 JUMP JUMPDEST JUMPDEST PUSH0 PUSH2 0x2134 DUP5 DUP3 DUP6 ADD PUSH2 0x20FE JUMP JUMPDEST SWAP2 POP POP SWAP3 SWAP2 POP POP JUMP JUMPDEST PUSH0 DUP2 SWAP1 POP SWAP2 SWAP1 POP JUMP JUMPDEST PUSH2 0x214F DUP2 PUSH2 0x213D JUMP JUMPDEST DUP2 EQ PUSH2 0x2159 JUMPI PUSH0 DUP1 REVERT JUMPDEST POP JUMP JUMPDEST PUSH0 DUP2 CALLDATALOAD SWAP1 POP PUSH2 0x216A DUP2 PUSH2 0x2146 JUMP JUMPDEST SWAP3 SWAP2 POP POP JUMP JUMPDEST PUSH0 PUSH4 0xFFFFFFFF DUP3 AND SWAP1 POP SWAP2 SWAP1 POP JUMP JUMPDEST PUSH2 0x2188 DUP2 PUSH2 0x2170 JUMP JUMPDEST DUP2 EQ PUSH2 0x2192 JUMPI PUSH0 DUP1 REVERT JUMPDEST POP JUMP JUMPDEST PUSH0 DUP2 CALLDATALOAD SWAP1 POP PUSH2 0x21A3 DUP2 PUSH2 0x217F JUMP JUMPDEST SWAP3 SWAP2 POP POP JUMP JUMPDEST PUSH0 PUSH6 0xFFFFFFFFFFFF DUP3 AND SWAP1 POP SWAP2 SWAP1 POP JUMP JUMPDEST PUSH2 0x21C3 DUP2 PUSH2 0x21A9 JUMP JUMPDEST DUP2 EQ PUSH2 0x21CD JUMPI PUSH0 DUP1 REVERT JUMPDEST POP JUMP JUMPDEST PUSH0 DUP2 CALLDATALOAD SWAP1 POP PUSH2 0x21DE DUP2 PUSH2 0x21BA JUMP JUMPDEST SWAP3 SWAP2 POP POP JUMP JUMPDEST PUSH0 DUP1 PUSH0 DUP1 PUSH0 PUSH1 0xA0 DUP7 DUP9 SUB SLT ISZERO PUSH2 0x21FD JUMPI PUSH2 0x21FC PUSH2 0x2054 JUMP JUMPDEST JUMPDEST PUSH0 PUSH2 0x220A DUP9 DUP3 DUP10 ADD PUSH2 0x209E JUMP JUMPDEST SWAP6 POP POP PUSH1 0x20 PUSH2 0x221B DUP9 DUP3 DUP10 ADD PUSH2 0x209E JUMP JUMPDEST SWAP5 POP POP PUSH1 0x40 PUSH2 0x222C DUP9 DUP3 DUP10 ADD PUSH2 0x215C JUMP JUMPDEST SWAP4 POP POP PUSH1 0x60 PUSH2 0x223D DUP9 DUP3 DUP10 ADD PUSH2 0x2195 JUMP JUMPDEST SWAP3 POP POP PUSH1 0x80 PUSH2 0x224E DUP9 DUP3 DUP10 ADD PUSH2 0x21D0 JUMP JUMPDEST SWAP2 POP POP SWAP3 SWAP6 POP SWAP3 SWAP6 SWAP1 SWAP4 POP JUMP JUMPDEST PUSH2 0x2264 DUP2 PUSH2 0x2077 JUMP JUMPDEST DUP3 MSTORE POP POP JUMP JUMPDEST PUSH0 PUSH1 0x20 DUP3 ADD SWAP1 POP PUSH2 0x227D PUSH0 DUP4 ADD DUP5 PUSH2 0x225B JUMP JUMPDEST SWAP3 SWAP2 POP POP JUMP JUMPDEST PUSH2 0x228C DUP2 PUSH2 0x20DD JUMP JUMPDEST DUP3 MSTORE POP POP JUMP JUMPDEST PUSH0 PUSH1 0x20 DUP3 ADD SWAP1 POP PUSH2 0x22A5 PUSH0 DUP4 ADD DUP5 PUSH2 0x2283 JUMP JUMPDEST SWAP3 SWAP2 POP POP JUMP JUMPDEST PUSH2 0x22B4 DUP2 PUSH2 0x2170 JUMP JUMPDEST DUP3 MSTORE POP POP JUMP JUMPDEST PUSH0 PUSH1 0x20 DUP3 ADD SWAP1 POP PUSH2 0x22CD PUSH0 DUP4 ADD DUP5 PUSH2 0x22AB JUMP JUMPDEST SWAP3 SWAP2 POP POP JUMP JUMPDEST PUSH0 DUP3 DUP3 MSTORE PUSH1 0x20 DUP3 ADD SWAP1 POP SWAP3 SWAP2 POP POP JUMP JUMPDEST PUSH32 0x416363657373206973206E6F742076616C696400000000000000000000000000 PUSH0 DUP3 ADD MSTORE POP JUMP JUMPDEST PUSH0 PUSH2 0x2317 PUSH1 0x13 DUP4 PUSH2 0x22D3 JUMP JUMPDEST SWAP2 POP PUSH2 0x2322 DUP3 PUSH2 0x22E3 JUMP JUMPDEST PUSH1 0x20 DUP3 ADD SWAP1 POP SWAP2 SWAP1 POP JUMP JUMPDEST PUSH0 PUSH1 0x20 DUP3 ADD SWAP1 POP DUP2 DUP2 SUB PUSH0 DUP4 ADD MSTORE PUSH2 0x2344 DUP2 PUSH2 0x230B JUMP JUMPDEST SWAP1 POP SWAP2 SWAP1 POP JUMP JUMPDEST PUSH32 0x4E487B7100000000000000000000000000000000000000000000000000000000 PUSH0 MSTORE PUSH1 0x11 PUSH1 0x4 MSTORE PUSH1 0x24 PUSH0 REVERT JUMPDEST PUSH0 PUSH2 0x2382 DUP3 PUSH2 0x2170 JUMP JUMPDEST SWAP2 POP PUSH4 0xFFFFFFFF DUP3 SUB PUSH2 0x2398 JUMPI PUSH2 0x2397 PUSH2 0x234B JUMP JUMPDEST JUMPDEST PUSH1 0x1 DUP3 ADD SWAP1 POP SWAP2 SWAP1 POP JUMP JUMPDEST PUSH0 DUP2 SWAP1 POP SWAP2 SWAP1 POP JUMP JUMPDEST PUSH0 PUSH2 0x23B6 DUP3 PUSH2 0x23A3 JUMP JUMPDEST SWAP2 POP PUSH2 0x23C1 DUP4 PUSH2 0x23A3 JUMP JUMPDEST SWAP3 POP DUP3 DUP3 ADD SWAP1 POP DUP1 DUP3 GT ISZERO PUSH2 0x23D9 JUMPI PUSH2 0x23D8 PUSH2 0x234B JUMP JUMPDEST JUMPDEST SWAP3 SWAP2 POP POP JUMP JUMPDEST PUSH32 0x546865207265717565737420697320696E76616C696400000000000000000000 PUSH0 DUP3 ADD MSTORE POP JUMP JUMPDEST PUSH0 PUSH2 0x2413 PUSH1 0x16 DUP4 PUSH2 0x22D3 JUMP JUMPDEST SWAP2 POP PUSH2 0x241E DUP3 PUSH2 0x23DF JUMP JUMPDEST PUSH1 0x20 DUP3 ADD SWAP1 POP SWAP2 SWAP1 POP JUMP JUMPDEST PUSH0 PUSH1 0x20 DUP3 ADD SWAP1 POP DUP2 DUP2 SUB PUSH0 DUP4 ADD MSTORE PUSH2 0x2440 DUP2 PUSH2 0x2407 JUMP JUMPDEST SWAP1 POP SWAP2 SWAP1 POP JUMP JUMPDEST PUSH0 PUSH2 0x2451 DUP3 PUSH2 0x21A9 JUMP JUMPDEST SWAP2 POP PUSH2 0x245C DUP4 PUSH2 0x21A9 JUMP JUMPDEST SWAP3 POP DUP3 DUP3 SUB SWAP1 POP PUSH6 0xFFFFFFFFFFFF DUP2 GT ISZERO PUSH2 0x247A JUMPI PUSH2 0x2479 PUSH2 0x234B JUMP JUMPDEST JUMPDEST SWAP3 SWAP2 POP POP JUMP JUMPDEST PUSH2 0x2489 DUP2 PUSH2 0x21A9 JUMP JUMPDEST DUP3 MSTORE POP POP JUMP JUMPDEST PUSH0 PUSH1 0x20 DUP3 ADD SWAP1 POP PUSH2 0x24A2 PUSH0 DUP4 ADD DUP5 PUSH2 0x2480 JUMP JUMPDEST SWAP3 SWAP2 POP POP JUMP INVALID LOG2 PUSH5 0x6970667358 0x22 SLT KECCAK256 0xDF EXTCODEHASH 0xC0 0x29 DUP1 INVALID DUP9 TIMESTAMP 0xFB 0x4E 0xBB SDIV 0x2A KECCAK256 PUSH18 0xA101A4D19B2EA7E4A013015F4A6A8D29DD64 PUSH20 0x6F6C634300081400330000000000000000000000 "
		},
		"gasEstimates": {
			"creation": {
				"codeDepositCost": "1887600",
				"executionCost": "infinite",
				"totalCost": "infinite"
			},
			"external": {
				"cancelPendingRepublicAddress(address)": "infinite",
				"getAuthorityAddress()": "467",
				"getGovernance()": "2565",
				"getPresidentAdd()": "2631",
				"getPresidentBan()": "2552",
				"getPrimeMinisterAdd()": "2587",
				"getPrimeMinisterBan()": "2639",
				"getRepublicAddress()": "2542",
				"getgovernanceVersion()": "2640",
				"setCallerInfo(address,address,bytes32,uint32,uint48)": "infinite",
				"setPendigPresident(address)": "infinite",
				"setPendingGovernanceContractAddress(address)": "infinite",
				"setPendingPrimeMinister(address)": "30426",
				"setPendingRepublicAddress(address)": "infinite",
				"setPresidentBaned(bool)": "infinite",
				"setPrimeMinister(bool)": "29265",
				"transferCallerInfo()": "11228",
				"transferGovernanceContractAddress(address)": "infinite",
				"transferPresident()": "107786",
				"transferPrimeMinister()": "110041",
				"transferRepublicAddress(address)": "infinite"
			}
		},
		"methodIdentifiers": {
			"cancelPendingRepublicAddress(address)": "52e305de",
			"getAuthorityAddress()": "e47a9d46",
			"getGovernance()": "289b3c0d",
			"getPresidentAdd()": "66410997",
			"getPresidentBan()": "6cf106d7",
			"getPrimeMinisterAdd()": "a53da00b",
			"getPrimeMinisterBan()": "e4f3e947",
			"getRepublicAddress()": "c5a1c5c1",
			"getgovernanceVersion()": "c387b49c",
			"setCallerInfo(address,address,bytes32,uint32,uint48)": "14c58b51",
			"setPendigPresident(address)": "054203bd",
			"setPendingGovernanceContractAddress(address)": "ca4cce68",
			"setPendingPrimeMinister(address)": "544fa93e",
			"setPendingRepublicAddress(address)": "1f72783a",
			"setPresidentBaned(bool)": "b5c09c68",
			"setPrimeMinister(bool)": "06e99d93",
			"transferCallerInfo()": "cd01cc28",
			"transferGovernanceContractAddress(address)": "ee7126c3",
			"transferPresident()": "0df4c390",
			"transferPrimeMinister()": "18074eee",
			"transferRepublicAddress(address)": "9c20fe71"
		}
	},
	"abi": [
		{
			"inputs": [],
			"name": "AccessOnlyForThePendig",
			"type": "error"
		},
		{
			"inputs": [
				{
					"internalType": "uint48",
					"name": "reminingTime",
					"type": "uint48"
				}
			],
			"name": "RemainingTimeUntilTheConfirmationDeadline",
			"type": "error"
		},
		{
			"inputs": [
				{
					"internalType": "address",
					"name": "NewGCAddress",
					"type": "address"
				}
			],
			"name": "TheAddressIsNotValidForGC",
			"type": "error"
		},
		{
			"inputs": [
				{
					"internalType": "address",
					"name": "newRAddress",
					"type": "address"
				}
			],
			"name": "TheAddressIsNotValidForRAddress",
			"type": "error"
		},
		{
			"anonymous": false,
			"inputs": [
				{
					"indexed": true,
					"internalType": "address",
					"name": "newCaller",
					"type": "address"
				},
				{
					"indexed": true,
					"internalType": "bytes32",
					"name": "peopleName_satrap",
					"type": "bytes32"
				},
				{
					"indexed": true,
					"internalType": "uint32",
					"name": "roleId",
					"type": "uint32"
				}
			],
			"name": "AnOfficialWasConfirmed",
			"type": "event"
		},
		{
			"anonymous": false,
			"inputs": [
				{
					"indexed": true,
					"internalType": "address",
					"name": "newCaller",
					"type": "address"
				},
				{
					"indexed": true,
					"internalType": "bytes32",
					"name": "peopleName_satrap",
					"type": "bytes32"
				},
				{
					"indexed": true,
					"internalType": "uint32",
					"name": "roleId",
					"type": "uint32"
				}
			],
			"name": "AnOfficialWasElected",
			"type": "event"
		},
		{
			"anonymous": false,
			"inputs": [
				{
					"indexed": true,
					"internalType": "address",
					"name": "GCAddress",
					"type": "address"
				},
				{
					"indexed": true,
					"internalType": "uint32",
					"name": "version",
					"type": "uint32"
				}
			],
			"name": "TheNewGCAddressWasConfirmed",
			"type": "event"
		},
		{
			"anonymous": false,
			"inputs": [
				{
					"indexed": true,
					"internalType": "address",
					"name": "presidentAdd",
					"type": "address"
				},
				{
					"indexed": true,
					"internalType": "uint32",
					"name": "nonce",
					"type": "uint32"
				}
			],
			"name": "TheNewPresidentWasConfirmed",
			"type": "event"
		},
		{
			"anonymous": false,
			"inputs": [
				{
					"indexed": true,
					"internalType": "address",
					"name": "primeMinisterAdd",
					"type": "address"
				},
				{
					"indexed": true,
					"internalType": "uint32",
					"name": "nonce",
					"type": "uint32"
				}
			],
			"name": "TheNewPrimeMinisterWasConfirmed",
			"type": "event"
		},
		{
			"anonymous": false,
			"inputs": [
				{
					"indexed": true,
					"internalType": "address",
					"name": "RepublicAddress",
					"type": "address"
				},
				{
					"indexed": true,
					"internalType": "uint32",
					"name": "version",
					"type": "uint32"
				}
			],
			"name": "TheNewRepublicAddressWasConfirmed",
			"type": "event"
		},
		{
			"anonymous": false,
			"inputs": [
				{
					"indexed": true,
					"internalType": "address",
					"name": "newGCAddress",
					"type": "address"
				}
			],
			"name": "TheNextGCAddressWasElected",
			"type": "event"
		},
		{
			"anonymous": false,
			"inputs": [
				{
					"indexed": true,
					"internalType": "address",
					"name": "newPresidentAdd",
					"type": "address"
				}
			],
			"name": "TheNextPresidentWasElected",
			"type": "event"
		},
		{
			"anonymous": false,
			"inputs": [
				{
					"indexed": true,
					"internalType": "address",
					"name": "newPrimeMinister",
					"type": "address"
				}
			],
			"name": "TheNextPrimeMinisterWasElected",
			"type": "event"
		},
		{
			"anonymous": false,
			"inputs": [
				{
					"indexed": true,
					"internalType": "address",
					"name": "PRAddress",
					"type": "address"
				}
			],
			"name": "TheNextRepublicAddressWasCancelled",
			"type": "event"
		},
		{
			"anonymous": false,
			"inputs": [
				{
					"indexed": true,
					"internalType": "address",
					"name": "newRepublicAddress",
					"type": "address"
				}
			],
			"name": "TheNextRepublicAddressWasElected",
			"type": "event"
		},
		{
			"anonymous": false,
			"inputs": [
				{
					"indexed": true,
					"internalType": "bool",
					"name": "baned",
					"type": "bool"
				},
				{
					"indexed": true,
					"internalType": "bool",
					"name": "done",
					"type": "bool"
				}
			],
			"name": "TheStatusOfBanningAllActivitiesAndDone",
			"type": "event"
		},
		{
			"inputs": [
				{
					"internalType": "address",
					"name": "PRAdress",
					"type": "address"
				}
			],
			"name": "cancelPendingRepublicAddress",
			"outputs": [],
			"stateMutability": "nonpayable",
			"type": "function"
		},
		{
			"inputs": [],
			"name": "getAuthorityAddress",
			"outputs": [
				{
					"internalType": "address",
					"name": "",
					"type": "address"
				}
			],
			"stateMutability": "view",
			"type": "function"
		},
		{
			"inputs": [],
			"name": "getGovernance",
			"outputs": [
				{
					"internalType": "address",
					"name": "",
					"type": "address"
				}
			],
			"stateMutability": "view",
			"type": "function"
		},
		{
			"inputs": [],
			"name": "getPresidentAdd",
			"outputs": [
				{
					"internalType": "address",
					"name": "",
					"type": "address"
				}
			],
			"stateMutability": "view",
			"type": "function"
		},
		{
			"inputs": [],
			"name": "getPresidentBan",
			"outputs": [
				{
					"internalType": "bool",
					"name": "",
					"type": "bool"
				}
			],
			"stateMutability": "view",
			"type": "function"
		},
		{
			"inputs": [],
			"name": "getPrimeMinisterAdd",
			"outputs": [
				{
					"internalType": "address",
					"name": "",
					"type": "address"
				}
			],
			"stateMutability": "view",
			"type": "function"
		},
		{
			"inputs": [],
			"name": "getPrimeMinisterBan",
			"outputs": [
				{
					"internalType": "bool",
					"name": "",
					"type": "bool"
				}
			],
			"stateMutability": "view",
			"type": "function"
		},
		{
			"inputs": [],
			"name": "getRepublicAddress",
			"outputs": [
				{
					"internalType": "address",
					"name": "RG",
					"type": "address"
				}
			],
			"stateMutability": "view",
			"type": "function"
		},
		{
			"inputs": [],
			"name": "getgovernanceVersion",
			"outputs": [
				{
					"internalType": "uint32",
					"name": "",
					"type": "uint32"
				}
			],
			"stateMutability": "view",
			"type": "function"
		},
		{
			"inputs": [
				{
					"internalType": "address",
					"name": "oldCaller",
					"type": "address"
				},
				{
					"internalType": "address",
					"name": "newCaller",
					"type": "address"
				},
				{
					"internalType": "bytes32",
					"name": "peopleName_satrap",
					"type": "bytes32"
				},
				{
					"internalType": "uint32",
					"name": "roleId",
					"type": "uint32"
				},
				{
					"internalType": "uint48",
					"name": "delay",
					"type": "uint48"
				}
			],
			"name": "setCallerInfo",
			"outputs": [],
			"stateMutability": "nonpayable",
			"type": "function"
		},
		{
			"inputs": [
				{
					"internalType": "address",
					"name": "newPresident",
					"type": "address"
				}
			],
			"name": "setPendigPresident",
			"outputs": [],
			"stateMutability": "nonpayable",
			"type": "function"
		},
		{
			"inputs": [
				{
					"internalType": "address",
					"name": "newGCAddress",
					"type": "address"
				}
			],
			"name": "setPendingGovernanceContractAddress",
			"outputs": [],
			"stateMutability": "nonpayable",
			"type": "function"
		},
		{
			"inputs": [
				{
					"internalType": "address",
					"name": "newPM",
					"type": "address"
				}
			],
			"name": "setPendingPrimeMinister",
			"outputs": [],
			"stateMutability": "nonpayable",
			"type": "function"
		},
		{
			"inputs": [
				{
					"internalType": "address",
					"name": "newRAddress",
					"type": "address"
				}
			],
			"name": "setPendingRepublicAddress",
			"outputs": [],
			"stateMutability": "nonpayable",
			"type": "function"
		},
		{
			"inputs": [
				{
					"internalType": "bool",
					"name": "baned",
					"type": "bool"
				}
			],
			"name": "setPresidentBaned",
			"outputs": [],
			"stateMutability": "nonpayable",
			"type": "function"
		},
		{
			"inputs": [
				{
					"internalType": "bool",
					"name": "baned",
					"type": "bool"
				}
			],
			"name": "setPrimeMinister",
			"outputs": [],
			"stateMutability": "nonpayable",
			"type": "function"
		},
		{
			"inputs": [],
			"name": "transferCallerInfo",
			"outputs": [],
			"stateMutability": "nonpayable",
			"type": "function"
		},
		{
			"inputs": [
				{
					"internalType": "address",
					"name": "pendingGCAdd",
					"type": "address"
				}
			],
			"name": "transferGovernanceContractAddress",
			"outputs": [],
			"stateMutability": "nonpayable",
			"type": "function"
		},
		{
			"inputs": [],
			"name": "transferPresident",
			"outputs": [],
			"stateMutability": "nonpayable",
			"type": "function"
		},
		{
			"inputs": [],
			"name": "transferPrimeMinister",
			"outputs": [],
			"stateMutability": "nonpayable",
			"type": "function"
		},
		{
			"inputs": [
				{
					"internalType": "address",
					"name": "RAddress",
					"type": "address"
				}
			],
			"name": "transferRepublicAddress",
			"outputs": [],
			"stateMutability": "nonpayable",
			"type": "function"
		}
	]
}