{
	"data": {
		"bytecode": {
			"linkReferences": {},
			"object": "60c06040525f73ffffffffffffffffffffffffffffffffffffffff1660809073ffffffffffffffffffffffffffffffffffffffff1681525034801562000043575f80fd5b506316a8c8004262000056919062000130565b65ffffffffffff1660a08165ffffffffffff16815250503360045f015f6101000a81548173ffffffffffffffffffffffffffffffffffffffff021916908373ffffffffffffffffffffffffffffffffffffffff16021790555060045f01601581819054906101000a900463ffffffff1680929190620000d59062000179565b91906101000a81548163ffffffff021916908363ffffffff16021790555050620001a9565b5f819050919050565b7f4e487b71000000000000000000000000000000000000000000000000000000005f52601160045260245ffd5b5f6200013c82620000fa565b91506200014983620000fa565b925082820190508082111562000164576200016362000103565b5b92915050565b5f63ffffffff82169050919050565b5f62000185826200016a565b915063ffffffff82036200019e576200019d62000103565b5b600182019050919050565b60805160a0516138ce620001fc5f395f818161051a015281816106e501528181610cb901528181610ffb015281816114cb01528181611af001528181611d73015261287c01525f611ed401526138ce5ff3fe608060405234801561000f575f80fd5b50600436106101cd575f3560e01c8063861a179d11610102578063c5a1c5c1116100a0578063e4f3e9471161006f578063e4f3e947146104b7578063e4f71773146104d5578063ee7126c3146104df578063f5f9cdd4146104fb576101cd565b8063c5a1c5c114610443578063c92a788c14610461578063ca4cce681461047d578063e47a9d4614610499576101cd565b8063a9aa588b116100dc578063a9aa588b146103bd578063b2b3facb146103d9578063b5c09c6814610409578063c387b49c14610425576101cd565b8063861a179d14610367578063863ad59514610383578063a53da00b1461039f576101cd565b8063289b3c0d1161016f57806345b263a71161014957806345b263a7146102df578063544fa93e1461030f578063664109971461032b5780636cf106d714610349576101cd565b8063289b3c0d1461028757806337676f79146102a55780634494acd9146102c3576101cd565b806312967c81116101ab57806312967c811461021357806318074eee14610231578063195a824c1461023b5780631f86aa2a1461026b576101cd565b8063054203bd146101d15780630dd5414d146101ed5780630df4c39014610209575b5f80fd5b6101eb60048036038101906101e69190613244565b610517565b005b610207600480360381019061020291906132aa565b6106e2565b005b6102116108be565b005b61021b610a7e565b60405161022891906132e4565b60405180910390f35b610239610a98565b005b61025560048036038101906102509190613369565b610c70565b60405161026291906133c1565b60405180910390f35b61028560048036038101906102809190613244565b610cb6565b005b61028f610fa4565b60405161029c91906133e9565b60405180910390f35b6102ad610fce565b6040516102ba91906133e9565b60405180910390f35b6102dd60048036038101906102d89190613244565b610ff8565b005b6102f960048036038101906102f49190613402565b61123d565b60405161030691906133e9565b60405180910390f35b61032960048036038101906103249190613244565b61137a565b005b610333611486565b60405161034091906133e9565b60405180910390f35b6103516114b0565b60405161035e91906133c1565b60405180910390f35b610381600480360381019061037c9190613244565b6114c8565b005b61039d6004803603810190610398919061346a565b611777565b005b6103a7611ac3565b6040516103b491906133e9565b60405180910390f35b6103d760048036038101906103d291906134ba565b611aed565b005b6103f360048036038101906103ee919061350a565b611d27565b60405161040091906133e9565b60405180910390f35b610423600480360381019061041e9190613548565b611d70565b005b61042d611eb6565b60405161043a9190613582565b60405180910390f35b61044b611ed1565b60405161045891906133e9565b60405180910390f35b61047b6004803603810190610476919061359b565b611ef8565b005b61049760048036038101906104929190613244565b612879565b005b6104a1612a91565b6040516104ae91906133e9565b60405180910390f35b6104bf612a98565b6040516104cc91906133c1565b60405180910390f35b6104dd612ab0565b005b6104f960048036038101906104f49190613244565b612dc4565b005b61051560048036038101906105109190613548565b61300d565b005b427f000000000000000000000000000000000000000000000000000000000000000065ffffffffffff1610156105c15761054f611ed1565b73ffffffffffffffffffffffffffffffffffffffff163373ffffffffffffffffffffffffffffffffffffffff16146105bc576040517f08c379a00000000000000000000000000000000000000000000000000000000081526004016105b39061367e565b60405180910390fd5b610648565b6105c9611486565b73ffffffffffffffffffffffffffffffffffffffff163373ffffffffffffffffffffffffffffffffffffffff1614801561060857506106066114b0565b155b610647576040517f08c379a000000000000000000000000000000000000000000000000000000000815260040161063e9061367e565b60405180910390fd5b5b8060025f6101000a81548173ffffffffffffffffffffffffffffffffffffffff021916908373ffffffffffffffffffffffffffffffffffffffff160217905550610692600161309f565b61069c60016130be565b8073ffffffffffffffffffffffffffffffffffffffff167f3553f1f7ef0242113266a8d183b621bb87468c99237f36b1150b6ab3d688b68660405160405180910390a250565b427f000000000000000000000000000000000000000000000000000000000000000065ffffffffffff16101561078c5761071a610fce565b73ffffffffffffffffffffffffffffffffffffffff163373ffffffffffffffffffffffffffffffffffffffff1614610787576040517f08c379a000000000000000000000000000000000000000000000000000000000815260040161077e9061367e565b60405180910390fd5b610813565b610794611ac3565b73ffffffffffffffffffffffffffffffffffffffff163373ffffffffffffffffffffffffffffffffffffffff161480156107d357506107d1612a98565b155b610812576040517f08c379a00000000000000000000000000000000000000000000000000000000081526004016108099061367e565b60405180910390fd5b5b6301e133808165ffffffffffff161015610862576040517f08c379a00000000000000000000000000000000000000000000000000000000081526004016108599061370c565b60405180910390fd5b8060085f6101000a81548165ffffffffffff021916908365ffffffffffff1602179055508065ffffffffffff167f07770585b4168a068ece1ef82e1b2308bffd7d3fb280c81ba145a072054e78cc60405160405180910390a250565b3373ffffffffffffffffffffffffffffffffffffffff1660025f9054906101000a900473ffffffffffffffffffffffffffffffffffffffff1673ffffffffffffffffffffffffffffffffffffffff1603610a4a5760025f6101000a81549073ffffffffffffffffffffffffffffffffffffffff02191690553360045f015f6101000a81548173ffffffffffffffffffffffffffffffffffffffff021916908373ffffffffffffffffffffffffffffffffffffffff16021790555060045f01601581819054906101000a900463ffffffff168092919061099c90613757565b91906101000a81548163ffffffff021916908363ffffffff160217905550506109c45f61309f565b60045f0160159054906101000a900463ffffffff1663ffffffff1660045f015f9054906101000a900473ffffffffffffffffffffffffffffffffffffffff1673ffffffffffffffffffffffffffffffffffffffff167f05ad9b3688012cd825c1bfb941e4f5afb2558af6af3deaddf01dbb5e85abdaf960405160405180910390a3610a7c565b6040517f6c4360f000000000000000000000000000000000000000000000000000000000815260040160405180910390fd5b565b5f60085f9054906101000a900465ffffffffffff16905090565b3373ffffffffffffffffffffffffffffffffffffffff1660035f9054906101000a900473ffffffffffffffffffffffffffffffffffffffff1673ffffffffffffffffffffffffffffffffffffffff1603610c3c5760035f6101000a81549073ffffffffffffffffffffffffffffffffffffffff02191690553360055f015f6101000a81548173ffffffffffffffffffffffffffffffffffffffff021916908373ffffffffffffffffffffffffffffffffffffffff16021790555060055f01601581819054906101000a900463ffffffff1680929190610b7690613757565b91906101000a81548163ffffffff021916908363ffffffff1602179055505060055f0160149054906101000a900460ff1615610bb657610bb55f6130be565b5b60055f0160159054906101000a900463ffffffff1663ffffffff1660055f015f9054906101000a900473ffffffffffffffffffffffffffffffffffffffff1673ffffffffffffffffffffffffffffffffffffffff167f11e1b985c07e1bf3fec9bfd0bdb8c4a8e870ba2b26aa89fe50a6a19132ca10fd60405160405180910390a3610c6e565b6040517f6c4360f000000000000000000000000000000000000000000000000000000000815260040160405180910390fd5b565b5f600b5f8463ffffffff1663ffffffff1681526020019081526020015f205f8381526020019081526020015f2060010160089054906101000a900460ff16905092915050565b427f000000000000000000000000000000000000000000000000000000000000000065ffffffffffff161015610d6057610cee611ed1565b73ffffffffffffffffffffffffffffffffffffffff163373ffffffffffffffffffffffffffffffffffffffff1614610d5b576040517f08c379a0000000000000000000000000000000000000000000000000000000008152600401610d529061367e565b60405180910390fd5b610de7565b610d68611486565b73ffffffffffffffffffffffffffffffffffffffff163373ffffffffffffffffffffffffffffffffffffffff16148015610da75750610da56114b0565b155b610de6576040517f08c379a0000000000000000000000000000000000000000000000000000000008152600401610ddd9061367e565b60405180910390fd5b5b42600360149054906101000a900465ffffffffffff1665ffffffffffff161015610f45575f600360149054906101000a900465ffffffffffff1665ffffffffffff1603610e69576040517f08c379a0000000000000000000000000000000000000000000000000000000008152600401610e60906137cc565b60405180910390fd5b8073ffffffffffffffffffffffffffffffffffffffff165f8054906101000a900473ffffffffffffffffffffffffffffffffffffffff1673ffffffffffffffffffffffffffffffffffffffff1603610f0357600360146101000a81549065ffffffffffff02191690555f806101000a81549073ffffffffffffffffffffffffffffffffffffffff0219169055610efe816130dd565b610f40565b806040517fc6322315000000000000000000000000000000000000000000000000000000008152600401610f3791906133e9565b60405180910390fd5b610fa1565b42600360149054906101000a900465ffffffffffff16610f6591906137ea565b6040517f223a6cbb000000000000000000000000000000000000000000000000000000008152600401610f9891906132e4565b60405180910390fd5b50565b5f60065f015f9054906101000a900473ffffffffffffffffffffffffffffffffffffffff16905090565b5f60075f015f9054906101000a900473ffffffffffffffffffffffffffffffffffffffff16905090565b427f000000000000000000000000000000000000000000000000000000000000000065ffffffffffff1610156110a257611030611ed1565b73ffffffffffffffffffffffffffffffffffffffff163373ffffffffffffffffffffffffffffffffffffffff161461109d576040517f08c379a00000000000000000000000000000000000000000000000000000000081526004016110949061367e565b60405180910390fd5b611129565b6110aa611486565b73ffffffffffffffffffffffffffffffffffffffff163373ffffffffffffffffffffffffffffffffffffffff161480156110e957506110e76114b0565b155b611128576040517f08c379a000000000000000000000000000000000000000000000000000000000815260040161111f9061367e565b60405180910390fd5b5b8073ffffffffffffffffffffffffffffffffffffffff165f8054906101000a900473ffffffffffffffffffffffffffffffffffffffff1673ffffffffffffffffffffffffffffffffffffffff16036111fd57600360146101000a81549065ffffffffffff02191690555f806101000a81549073ffffffffffffffffffffffffffffffffffffffff02191690558073ffffffffffffffffffffffffffffffffffffffff167f62125dd3d531106ff055aac7090ccec5e1edec1d0db6b0f1355f2ca15475469560405160405180910390a261123a565b806040517fc632231500000000000000000000000000000000000000000000000000000000815260040161123191906133e9565b60405180910390fd5b50565b5f8060095f8573ffffffffffffffffffffffffffffffffffffffff1673ffffffffffffffffffffffffffffffffffffffff1681526020019081526020015f206040518060a00160405290815f8201548152602001600182015f9054906101000a900463ffffffff1663ffffffff1663ffffffff1681526020016001820160049054906101000a900465ffffffffffff1665ffffffffffff1665ffffffffffff16815260200160018201600a9054906101000a900465ffffffffffff1665ffffffffffff1665ffffffffffff168152602001600282015f9054906101000a900473ffffffffffffffffffffffffffffffffffffffff1673ffffffffffffffffffffffffffffffffffffffff1673ffffffffffffffffffffffffffffffffffffffff1681525050905061137183825f0151611d27565b91505092915050565b611382611486565b73ffffffffffffffffffffffffffffffffffffffff163373ffffffffffffffffffffffffffffffffffffffff161480156113c157506113bf6114b0565b155b611400576040517f08c379a00000000000000000000000000000000000000000000000000000000081526004016113f79061367e565b60405180910390fd5b8060035f6101000a81548173ffffffffffffffffffffffffffffffffffffffff021916908373ffffffffffffffffffffffffffffffffffffffff1602179055508073ffffffffffffffffffffffffffffffffffffffff167fff3cad3ee28c342ad5f3d7c8ff8559ee4d21eb48494092b82a1652e443b3420b60405160405180910390a250565b5f60045f015f9054906101000a900473ffffffffffffffffffffffffffffffffffffffff16905090565b5f60045f0160149054906101000a900460ff16905090565b427f000000000000000000000000000000000000000000000000000000000000000065ffffffffffff16101561157257611500611ed1565b73ffffffffffffffffffffffffffffffffffffffff163373ffffffffffffffffffffffffffffffffffffffff161461156d576040517f08c379a00000000000000000000000000000000000000000000000000000000081526004016115649061367e565b60405180910390fd5b6115f9565b61157a611486565b73ffffffffffffffffffffffffffffffffffffffff163373ffffffffffffffffffffffffffffffffffffffff161480156115b957506115b76114b0565b155b6115f8576040517f08c379a00000000000000000000000000000000000000000000000000000000081526004016115ef9061367e565b60405180910390fd5b5b5f8173ffffffffffffffffffffffffffffffffffffffff163b1115611737573373ffffffffffffffffffffffffffffffffffffffff1660045f015f9054906101000a900473ffffffffffffffffffffffffffffffffffffffff1673ffffffffffffffffffffffffffffffffffffffff160361167c57611677816130dd565b611732565b6213c6804261168b919061382c565b600360146101000a81548165ffffffffffff021916908365ffffffffffff160217905550805f806101000a81548173ffffffffffffffffffffffffffffffffffffffff021916908373ffffffffffffffffffffffffffffffffffffffff1602179055508073ffffffffffffffffffffffffffffffffffffffff167f30b8fe69c9b4c23cc01223881227c0cc8cba5cc56d59263f51711df1a8f2c66760405160405180910390a25b611774565b806040517fc632231500000000000000000000000000000000000000000000000000000000815260040161176b91906133e9565b60405180910390fd5b50565b600282825f60095f3373ffffffffffffffffffffffffffffffffffffffff1673ffffffffffffffffffffffffffffffffffffffff1681526020019081526020015f206040518060a00160405290815f8201548152602001600182015f9054906101000a900463ffffffff1663ffffffff1663ffffffff1681526020016001820160049054906101000a900465ffffffffffff1665ffffffffffff1665ffffffffffff16815260200160018201600a9054906101000a900465ffffffffffff1665ffffffffffff1665ffffffffffff168152602001600282015f9054906101000a900473ffffffffffffffffffffffffffffffffffffffff1673ffffffffffffffffffffffffffffffffffffffff1673ffffffffffffffffffffffffffffffffffffffff1681525050905060018460ff160361194157600b5f8463ffffffff1663ffffffff1681526020019081526020015f205f8381526020019081526020015f206001015f9054906101000a900463ffffffff1663ffffffff16816020015163ffffffff161461193c576040517f08c379a00000000000000000000000000000000000000000000000000000000081526004016119339061367e565b60405180910390fd5b6119d3565b600b5f8463ffffffff1663ffffffff1681526020019081526020015f205f8381526020019081526020015f2060010160049054906101000a900463ffffffff1663ffffffff16816020015163ffffffff16146119d2576040517f08c379a00000000000000000000000000000000000000000000000000000000081526004016119c99061367e565b60405180910390fd5b5b6119dd8383610c70565b1580156119f5575042816060015165ffffffffffff16115b611a34576040517f08c379a0000000000000000000000000000000000000000000000000000000008152600401611a2b9061367e565b60405180910390fd5b86600b5f8863ffffffff1663ffffffff1681526020019081526020015f205f8781526020019081526020015f2060010160086101000a81548160ff021916908315150217905550848663ffffffff167f0afca247090720e986ba0ef5baad4cd1e0ba020345caff5ac0beaf2083fe9c7d89604051611ab291906133c1565b60405180910390a350505050505050565b5f60055f015f9054906101000a900473ffffffffffffffffffffffffffffffffffffffff16905090565b427f000000000000000000000000000000000000000000000000000000000000000065ffffffffffff161015611b9757611b25610fce565b73ffffffffffffffffffffffffffffffffffffffff163373ffffffffffffffffffffffffffffffffffffffff1614611b92576040517f08c379a0000000000000000000000000000000000000000000000000000000008152600401611b899061367e565b60405180910390fd5b611c1e565b611b9f611ac3565b73ffffffffffffffffffffffffffffffffffffffff163373ffffffffffffffffffffffffffffffffffffffff16148015611bde5750611bdc612a98565b155b611c1d576040517f08c379a0000000000000000000000000000000000000000000000000000000008152600401611c149061367e565b60405180910390fd5b5b5f8173ffffffffffffffffffffffffffffffffffffffff163b1115611ce55780600a5f8581526020019081526020015f205f8481526020019081526020015f205f6101000a81548173ffffffffffffffffffffffffffffffffffffffff021916908373ffffffffffffffffffffffffffffffffffffffff1602179055508073ffffffffffffffffffffffffffffffffffffffff1682847fc4ff0e42df9ea0a20d27ec6d51305d1cc1c1b489c098720e79a5caed842f007360405160405180910390a4611d22565b806040517febccc014000000000000000000000000000000000000000000000000000000008152600401611d1991906133e9565b60405180910390fd5b505050565b5f600a5f8481526020019081526020015f205f8381526020019081526020015f205f9054906101000a900473ffffffffffffffffffffffffffffffffffffffff16905092915050565b427f000000000000000000000000000000000000000000000000000000000000000065ffffffffffff161015611e1a57611da8611ed1565b73ffffffffffffffffffffffffffffffffffffffff163373ffffffffffffffffffffffffffffffffffffffff1614611e15576040517f08c379a0000000000000000000000000000000000000000000000000000000008152600401611e0c9061367e565b60405180910390fd5b611ea1565b611e22611486565b73ffffffffffffffffffffffffffffffffffffffff163373ffffffffffffffffffffffffffffffffffffffff16148015611e615750611e5f6114b0565b155b611ea0576040517f08c379a0000000000000000000000000000000000000000000000000000000008152600401611e979061367e565b60405180910390fd5b5b611eaa8161309f565b611eb3816130be565b50565b5f60065f0160159054906101000a900463ffffffff16905090565b5f7f0000000000000000000000000000000000000000000000000000000000000000905090565b600182845f60095f3373ffffffffffffffffffffffffffffffffffffffff1673ffffffffffffffffffffffffffffffffffffffff1681526020019081526020015f206040518060a00160405290815f8201548152602001600182015f9054906101000a900463ffffffff1663ffffffff1663ffffffff1681526020016001820160049054906101000a900465ffffffffffff1665ffffffffffff1665ffffffffffff16815260200160018201600a9054906101000a900465ffffffffffff1665ffffffffffff1665ffffffffffff168152602001600282015f9054906101000a900473ffffffffffffffffffffffffffffffffffffffff1673ffffffffffffffffffffffffffffffffffffffff1673ffffffffffffffffffffffffffffffffffffffff1681525050905060018460ff16036120c257600b5f8463ffffffff1663ffffffff1681526020019081526020015f205f8381526020019081526020015f206001015f9054906101000a900463ffffffff1663ffffffff16816020015163ffffffff16146120bd576040517f08c379a00000000000000000000000000000000000000000000000000000000081526004016120b49061367e565b60405180910390fd5b612154565b600b5f8463ffffffff1663ffffffff1681526020019081526020015f205f8381526020019081526020015f2060010160049054906101000a900463ffffffff1663ffffffff16816020015163ffffffff1614612153576040517f08c379a000000000000000000000000000000000000000000000000000000000815260040161214a9061367e565b60405180910390fd5b5b61215e8383610c70565b158015612176575042816060015165ffffffffffff16115b6121b5576040517f08c379a00000000000000000000000000000000000000000000000000000000081526004016121ac9061367e565b60405180910390fd5b8773ffffffffffffffffffffffffffffffffffffffff168973ffffffffffffffffffffffffffffffffffffffff16036122c7578460095f8a73ffffffffffffffffffffffffffffffffffffffff1673ffffffffffffffffffffffffffffffffffffffff1681526020019081526020015f20600101600a8282829054906101000a900465ffffffffffff16612249919061385f565b92506101000a81548165ffffffffffff021916908365ffffffffffff1602179055506122758688610c70565b156122c2575f600b5f8863ffffffff1663ffffffff1681526020019081526020015f205f8981526020019081526020015f2060010160086101000a81548160ff0219169083151502179055505b612780565b8915612500578460095f8b73ffffffffffffffffffffffffffffffffffffffff1673ffffffffffffffffffffffffffffffffffffffff1681526020019081526020015f20600101600a9054906101000a900465ffffffffffff1661232b919061385f565b60095f8a73ffffffffffffffffffffffffffffffffffffffff1673ffffffffffffffffffffffffffffffffffffffff1681526020019081526020015f20600101600a6101000a81548165ffffffffffff021916908365ffffffffffff1602179055504260095f8a73ffffffffffffffffffffffffffffffffffffffff1673ffffffffffffffffffffffffffffffffffffffff1681526020019081526020015f2060010160046101000a81548165ffffffffffff021916908365ffffffffffff16021790555060095f8a73ffffffffffffffffffffffffffffffffffffffff1673ffffffffffffffffffffffffffffffffffffffff1681526020019081526020015f205f8082015f9055600182015f6101000a81549063ffffffff02191690556001820160046101000a81549065ffffffffffff021916905560018201600a6101000a81549065ffffffffffff0219169055600282015f6101000a81549073ffffffffffffffffffffffffffffffffffffffff021916905550506124ae8688610c70565b156124fb575f600b5f8863ffffffff1663ffffffff1681526020019081526020015f205f8981526020019081526020015f2060010160086101000a81548160ff0219169083151502179055505b61277f565b5f60095f8b73ffffffffffffffffffffffffffffffffffffffff1673ffffffffffffffffffffffffffffffffffffffff1681526020019081526020015f2060010160049054906101000a900465ffffffffffff1665ffffffffffff160361264a574260095f8a73ffffffffffffffffffffffffffffffffffffffff1673ffffffffffffffffffffffffffffffffffffffff1681526020019081526020015f2060010160046101000a81548165ffffffffffff021916908365ffffffffffff16021790555060085f9054906101000a900465ffffffffffff16426125e3919061385f565b60095f8a73ffffffffffffffffffffffffffffffffffffffff1673ffffffffffffffffffffffffffffffffffffffff1681526020019081526020015f20600101600a6101000a81548165ffffffffffff021916908365ffffffffffff16021790555061277e565b60095f8a73ffffffffffffffffffffffffffffffffffffffff1673ffffffffffffffffffffffffffffffffffffffff1681526020019081526020015f20600101600a9054906101000a900465ffffffffffff1660095f8a73ffffffffffffffffffffffffffffffffffffffff1673ffffffffffffffffffffffffffffffffffffffff1681526020019081526020015f2060010160046101000a81548165ffffffffffff021916908365ffffffffffff1602179055508860095f8a73ffffffffffffffffffffffffffffffffffffffff1673ffffffffffffffffffffffffffffffffffffffff1681526020019081526020015f206002015f6101000a81548173ffffffffffffffffffffffffffffffffffffffff021916908373ffffffffffffffffffffffffffffffffffffffff1602179055505b5b5b8660095f8a73ffffffffffffffffffffffffffffffffffffffff1673ffffffffffffffffffffffffffffffffffffffff1681526020019081526020015f205f01819055508560095f8a73ffffffffffffffffffffffffffffffffffffffff1673ffffffffffffffffffffffffffffffffffffffff1681526020019081526020015f206001015f6101000a81548163ffffffff021916908363ffffffff1602179055508563ffffffff16878973ffffffffffffffffffffffffffffffffffffffff167f5c43a67d451cacaddc8309af64192a4ebee009b9cab5eeb59ec1fb77dd3abcbc60405160405180910390a450505050505050505050565b427f000000000000000000000000000000000000000000000000000000000000000065ffffffffffff161015612923576128b1611ed1565b73ffffffffffffffffffffffffffffffffffffffff163373ffffffffffffffffffffffffffffffffffffffff161461291e576040517f08c379a00000000000000000000000000000000000000000000000000000000081526004016129159061367e565b60405180910390fd5b6129aa565b61292b611486565b73ffffffffffffffffffffffffffffffffffffffff163373ffffffffffffffffffffffffffffffffffffffff1614801561296a57506129686114b0565b155b6129a9576040517f08c379a00000000000000000000000000000000000000000000000000000000081526004016129a09061367e565b60405180910390fd5b5b5f8173ffffffffffffffffffffffffffffffffffffffff163b1115612a51578060015f6101000a81548173ffffffffffffffffffffffffffffffffffffffff021916908373ffffffffffffffffffffffffffffffffffffffff1602179055508073ffffffffffffffffffffffffffffffffffffffff167fe8d8e3c7c3ebec0c177d0fe22d223f8b5071db39155104808d45027e368ba77a60405160405180910390a2612a8e565b806040517f84dbc6cb000000000000000000000000000000000000000000000000000000008152600401612a8591906133e9565b60405180910390fd5b50565b5f30905090565b5f60055f0160149054906101000a900460ff16905090565b5f60095f3373ffffffffffffffffffffffffffffffffffffffff1673ffffffffffffffffffffffffffffffffffffffff1681526020019081526020015f206040518060a00160405290815f8201548152602001600182015f9054906101000a900463ffffffff1663ffffffff1663ffffffff1681526020016001820160049054906101000a900465ffffffffffff1665ffffffffffff1665ffffffffffff16815260200160018201600a9054906101000a900465ffffffffffff1665ffffffffffff1665ffffffffffff168152602001600282015f9054906101000a900473ffffffffffffffffffffffffffffffffffffffff1673ffffffffffffffffffffffffffffffffffffffff1673ffffffffffffffffffffffffffffffffffffffff168152505090505f816020015163ffffffff16118015612bfa575042816040015165ffffffffffff16105b8015612c1157505f816060015165ffffffffffff16145b15612d8f57612c1e610a7e565b60095f3373ffffffffffffffffffffffffffffffffffffffff1673ffffffffffffffffffffffffffffffffffffffff1681526020019081526020015f20600101600a6101000a81548165ffffffffffff021916908365ffffffffffff16021790555060095f826080015173ffffffffffffffffffffffffffffffffffffffff1673ffffffffffffffffffffffffffffffffffffffff1681526020019081526020015f205f8082015f9055600182015f6101000a81549063ffffffff02191690556001820160046101000a81549065ffffffffffff021916905560018201600a6101000a81549065ffffffffffff0219169055600282015f6101000a81549073ffffffffffffffffffffffffffffffffffffffff02191690555050806020015163ffffffff16815f01513373ffffffffffffffffffffffffffffffffffffffff167f04a5552f2d245eb6039b03d3a4f2aeeae275c3d6dc08931b837b5715fbbe519960405160405180910390a4612dc1565b6040517f6c4360f000000000000000000000000000000000000000000000000000000000815260040160405180910390fd5b50565b612dcc611486565b73ffffffffffffffffffffffffffffffffffffffff163373ffffffffffffffffffffffffffffffffffffffff16148015612e0b5750612e096114b0565b155b612e4a576040517f08c379a0000000000000000000000000000000000000000000000000000000008152600401612e419061367e565b60405180910390fd5b8073ffffffffffffffffffffffffffffffffffffffff1660015f9054906101000a900473ffffffffffffffffffffffffffffffffffffffff1673ffffffffffffffffffffffffffffffffffffffff1603612fcd5760015f6101000a81549073ffffffffffffffffffffffffffffffffffffffff02191690558060065f015f6101000a81548173ffffffffffffffffffffffffffffffffffffffff021916908373ffffffffffffffffffffffffffffffffffffffff16021790555060065f01601581819054906101000a900463ffffffff1680929190612f2890613757565b91906101000a81548163ffffffff021916908363ffffffff1602179055505060065f0160159054906101000a900463ffffffff1663ffffffff1660065f015f9054906101000a900473ffffffffffffffffffffffffffffffffffffffff1673ffffffffffffffffffffffffffffffffffffffff167f5e86008a8467d1efccfe6cb6bd49ba7278d6af2745a1e6994e443322a423709360405160405180910390a361300a565b806040517f84dbc6cb00000000000000000000000000000000000000000000000000000000815260040161300191906133e9565b60405180910390fd5b50565b613015611486565b73ffffffffffffffffffffffffffffffffffffffff163373ffffffffffffffffffffffffffffffffffffffff1614801561305457506130526114b0565b155b613093576040517f08c379a000000000000000000000000000000000000000000000000000000000815260040161308a9061367e565b60405180910390fd5b61309c816130be565b50565b8060045f0160146101000a81548160ff02191690831515021790555050565b8060055f0160146101000a81548160ff02191690831515021790555050565b8060075f015f6101000a81548173ffffffffffffffffffffffffffffffffffffffff021916908373ffffffffffffffffffffffffffffffffffffffff16021790555060075f01601581819054906101000a900463ffffffff168092919061314390613757565b91906101000a81548163ffffffff021916908363ffffffff1602179055505060075f0160159054906101000a900463ffffffff1663ffffffff1660075f015f9054906101000a900473ffffffffffffffffffffffffffffffffffffffff1673ffffffffffffffffffffffffffffffffffffffff167fb88ef4c2b55163ed88bcf28dadfee0092169b7a9a712ceb09ff75e6d2d4ba63b60405160405180910390a350565b5f80fd5b5f73ffffffffffffffffffffffffffffffffffffffff82169050919050565b5f613213826131ea565b9050919050565b61322381613209565b811461322d575f80fd5b50565b5f8135905061323e8161321a565b92915050565b5f60208284031215613259576132586131e6565b5b5f61326684828501613230565b91505092915050565b5f65ffffffffffff82169050919050565b6132898161326f565b8114613293575f80fd5b50565b5f813590506132a481613280565b92915050565b5f602082840312156132bf576132be6131e6565b5b5f6132cc84828501613296565b91505092915050565b6132de8161326f565b82525050565b5f6020820190506132f75f8301846132d5565b92915050565b5f63ffffffff82169050919050565b613315816132fd565b811461331f575f80fd5b50565b5f813590506133308161330c565b92915050565b5f819050919050565b61334881613336565b8114613352575f80fd5b50565b5f813590506133638161333f565b92915050565b5f806040838503121561337f5761337e6131e6565b5b5f61338c85828601613322565b925050602061339d85828601613355565b9150509250929050565b5f8115159050919050565b6133bb816133a7565b82525050565b5f6020820190506133d45f8301846133b2565b92915050565b6133e381613209565b82525050565b5f6020820190506133fc5f8301846133da565b92915050565b5f8060408385031215613418576134176131e6565b5b5f61342585828601613230565b925050602061343685828601613355565b9150509250929050565b613449816133a7565b8114613453575f80fd5b50565b5f8135905061346481613440565b92915050565b5f805f60608486031215613481576134806131e6565b5b5f61348e86828701613456565b935050602061349f86828701613322565b92505060406134b086828701613355565b9150509250925092565b5f805f606084860312156134d1576134d06131e6565b5b5f6134de86828701613355565b93505060206134ef86828701613355565b925050604061350086828701613230565b9150509250925092565b5f80604083850312156135205761351f6131e6565b5b5f61352d85828601613355565b925050602061353e85828601613355565b9150509250929050565b5f6020828403121561355d5761355c6131e6565b5b5f61356a84828501613456565b91505092915050565b61357c816132fd565b82525050565b5f6020820190506135955f830184613573565b92915050565b5f805f805f8060c087890312156135b5576135b46131e6565b5b5f6135c289828a01613456565b96505060206135d389828a01613230565b95505060406135e489828a01613230565b94505060606135f589828a01613355565b935050608061360689828a01613322565b92505060a061361789828a01613296565b9150509295509295509295565b5f82825260208201905092915050565b7f416363657373206973206e6f742076616c6964000000000000000000000000005f82015250565b5f613668601383613624565b915061367382613634565b602082019050919050565b5f6020820190508181035f8301526136958161365c565b9050919050565b7f54686520616d6f756e74206d757374206265206174206c65617374206f6e65205f8201527f7965617200000000000000000000000000000000000000000000000000000000602082015250565b5f6136f6602483613624565b91506137018261369c565b604082019050919050565b5f6020820190508181035f830152613723816136ea565b9050919050565b7f4e487b71000000000000000000000000000000000000000000000000000000005f52601160045260245ffd5b5f613761826132fd565b915063ffffffff82036137775761377661372a565b5b600182019050919050565b7f546865207265717565737420697320696e76616c6964000000000000000000005f82015250565b5f6137b6601683613624565b91506137c182613782565b602082019050919050565b5f6020820190508181035f8301526137e3816137aa565b9050919050565b5f6137f48261326f565b91506137ff8361326f565b9250828203905065ffffffffffff81111561381d5761381c61372a565b5b92915050565b5f819050919050565b5f61383682613823565b915061384183613823565b92508282019050808211156138595761385861372a565b5b92915050565b5f6138698261326f565b91506138748361326f565b9250828201905065ffffffffffff8111156138925761389161372a565b5b9291505056fea26469706673582212209f7c0d0552f197733da289d432b0fedb8c1bd864098d4d921baecd9f97a2d2f464736f6c63430008140033",
			"opcodes": "PUSH1 0xC0 PUSH1 0x40 MSTORE PUSH0 PUSH20 0xFFFFFFFFFFFFFFFFFFFFFFFFFFFFFFFFFFFFFFFF AND PUSH1 0x80 SWAP1 PUSH20 0xFFFFFFFFFFFFFFFFFFFFFFFFFFFFFFFFFFFFFFFF AND DUP2 MSTORE POP CALLVALUE DUP1 ISZERO PUSH3 0x43 JUMPI PUSH0 DUP1 REVERT JUMPDEST POP PUSH4 0x16A8C800 TIMESTAMP PUSH3 0x56 SWAP2 SWAP1 PUSH3 0x130 JUMP JUMPDEST PUSH6 0xFFFFFFFFFFFF AND PUSH1 0xA0 DUP2 PUSH6 0xFFFFFFFFFFFF AND DUP2 MSTORE POP POP CALLER PUSH1 0x4 PUSH0 ADD PUSH0 PUSH2 0x100 EXP DUP2 SLOAD DUP2 PUSH20 0xFFFFFFFFFFFFFFFFFFFFFFFFFFFFFFFFFFFFFFFF MUL NOT AND SWAP1 DUP4 PUSH20 0xFFFFFFFFFFFFFFFFFFFFFFFFFFFFFFFFFFFFFFFF AND MUL OR SWAP1 SSTORE POP PUSH1 0x4 PUSH0 ADD PUSH1 0x15 DUP2 DUP2 SWAP1 SLOAD SWAP1 PUSH2 0x100 EXP SWAP1 DIV PUSH4 0xFFFFFFFF AND DUP1 SWAP3 SWAP2 SWAP1 PUSH3 0xD5 SWAP1 PUSH3 0x179 JUMP JUMPDEST SWAP2 SWAP1 PUSH2 0x100 EXP DUP2 SLOAD DUP2 PUSH4 0xFFFFFFFF MUL NOT AND SWAP1 DUP4 PUSH4 0xFFFFFFFF AND MUL OR SWAP1 SSTORE POP POP PUSH3 0x1A9 JUMP JUMPDEST PUSH0 DUP2 SWAP1 POP SWAP2 SWAP1 POP JUMP JUMPDEST PUSH32 0x4E487B7100000000000000000000000000000000000000000000000000000000 PUSH0 MSTORE PUSH1 0x11 PUSH1 0x4 MSTORE PUSH1 0x24 PUSH0 REVERT JUMPDEST PUSH0 PUSH3 0x13C DUP3 PUSH3 0xFA JUMP JUMPDEST SWAP2 POP PUSH3 0x149 DUP4 PUSH3 0xFA JUMP JUMPDEST SWAP3 POP DUP3 DUP3 ADD SWAP1 POP DUP1 DUP3 GT ISZERO PUSH3 0x164 JUMPI PUSH3 0x163 PUSH3 0x103 JUMP JUMPDEST JUMPDEST SWAP3 SWAP2 POP POP JUMP JUMPDEST PUSH0 PUSH4 0xFFFFFFFF DUP3 AND SWAP1 POP SWAP2 SWAP1 POP JUMP JUMPDEST PUSH0 PUSH3 0x185 DUP3 PUSH3 0x16A JUMP JUMPDEST SWAP2 POP PUSH4 0xFFFFFFFF DUP3 SUB PUSH3 0x19E JUMPI PUSH3 0x19D PUSH3 0x103 JUMP JUMPDEST JUMPDEST PUSH1 0x1 DUP3 ADD SWAP1 POP SWAP2 SWAP1 POP JUMP JUMPDEST PUSH1 0x80 MLOAD PUSH1 0xA0 MLOAD PUSH2 0x38CE PUSH3 0x1FC PUSH0 CODECOPY PUSH0 DUP2 DUP2 PUSH2 0x51A ADD MSTORE DUP2 DUP2 PUSH2 0x6E5 ADD MSTORE DUP2 DUP2 PUSH2 0xCB9 ADD MSTORE DUP2 DUP2 PUSH2 0xFFB ADD MSTORE DUP2 DUP2 PUSH2 0x14CB ADD MSTORE DUP2 DUP2 PUSH2 0x1AF0 ADD MSTORE DUP2 DUP2 PUSH2 0x1D73 ADD MSTORE PUSH2 0x287C ADD MSTORE PUSH0 PUSH2 0x1ED4 ADD MSTORE PUSH2 0x38CE PUSH0 RETURN INVALID PUSH1 0x80 PUSH1 0x40 MSTORE CALLVALUE DUP1 ISZERO PUSH2 0xF JUMPI PUSH0 DUP1 REVERT JUMPDEST POP PUSH1 0x4 CALLDATASIZE LT PUSH2 0x1CD JUMPI PUSH0 CALLDATALOAD PUSH1 0xE0 SHR DUP1 PUSH4 0x861A179D GT PUSH2 0x102 JUMPI DUP1 PUSH4 0xC5A1C5C1 GT PUSH2 0xA0 JUMPI DUP1 PUSH4 0xE4F3E947 GT PUSH2 0x6F JUMPI DUP1 PUSH4 0xE4F3E947 EQ PUSH2 0x4B7 JUMPI DUP1 PUSH4 0xE4F71773 EQ PUSH2 0x4D5 JUMPI DUP1 PUSH4 0xEE7126C3 EQ PUSH2 0x4DF JUMPI DUP1 PUSH4 0xF5F9CDD4 EQ PUSH2 0x4FB JUMPI PUSH2 0x1CD JUMP JUMPDEST DUP1 PUSH4 0xC5A1C5C1 EQ PUSH2 0x443 JUMPI DUP1 PUSH4 0xC92A788C EQ PUSH2 0x461 JUMPI DUP1 PUSH4 0xCA4CCE68 EQ PUSH2 0x47D JUMPI DUP1 PUSH4 0xE47A9D46 EQ PUSH2 0x499 JUMPI PUSH2 0x1CD JUMP JUMPDEST DUP1 PUSH4 0xA9AA588B GT PUSH2 0xDC JUMPI DUP1 PUSH4 0xA9AA588B EQ PUSH2 0x3BD JUMPI DUP1 PUSH4 0xB2B3FACB EQ PUSH2 0x3D9 JUMPI DUP1 PUSH4 0xB5C09C68 EQ PUSH2 0x409 JUMPI DUP1 PUSH4 0xC387B49C EQ PUSH2 0x425 JUMPI PUSH2 0x1CD JUMP JUMPDEST DUP1 PUSH4 0x861A179D EQ PUSH2 0x367 JUMPI DUP1 PUSH4 0x863AD595 EQ PUSH2 0x383 JUMPI DUP1 PUSH4 0xA53DA00B EQ PUSH2 0x39F JUMPI PUSH2 0x1CD JUMP JUMPDEST DUP1 PUSH4 0x289B3C0D GT PUSH2 0x16F JUMPI DUP1 PUSH4 0x45B263A7 GT PUSH2 0x149 JUMPI DUP1 PUSH4 0x45B263A7 EQ PUSH2 0x2DF JUMPI DUP1 PUSH4 0x544FA93E EQ PUSH2 0x30F JUMPI DUP1 PUSH4 0x66410997 EQ PUSH2 0x32B JUMPI DUP1 PUSH4 0x6CF106D7 EQ PUSH2 0x349 JUMPI PUSH2 0x1CD JUMP JUMPDEST DUP1 PUSH4 0x289B3C0D EQ PUSH2 0x287 JUMPI DUP1 PUSH4 0x37676F79 EQ PUSH2 0x2A5 JUMPI DUP1 PUSH4 0x4494ACD9 EQ PUSH2 0x2C3 JUMPI PUSH2 0x1CD JUMP JUMPDEST DUP1 PUSH4 0x12967C81 GT PUSH2 0x1AB JUMPI DUP1 PUSH4 0x12967C81 EQ PUSH2 0x213 JUMPI DUP1 PUSH4 0x18074EEE EQ PUSH2 0x231 JUMPI DUP1 PUSH4 0x195A824C EQ PUSH2 0x23B JUMPI DUP1 PUSH4 0x1F86AA2A EQ PUSH2 0x26B JUMPI PUSH2 0x1CD JUMP JUMPDEST DUP1 PUSH4 0x54203BD EQ PUSH2 0x1D1 JUMPI DUP1 PUSH4 0xDD5414D EQ PUSH2 0x1ED JUMPI DUP1 PUSH4 0xDF4C390 EQ PUSH2 0x209 JUMPI JUMPDEST PUSH0 DUP1 REVERT JUMPDEST PUSH2 0x1EB PUSH1 0x4 DUP1 CALLDATASIZE SUB DUP2 ADD SWAP1 PUSH2 0x1E6 SWAP2 SWAP1 PUSH2 0x3244 JUMP JUMPDEST PUSH2 0x517 JUMP JUMPDEST STOP JUMPDEST PUSH2 0x207 PUSH1 0x4 DUP1 CALLDATASIZE SUB DUP2 ADD SWAP1 PUSH2 0x202 SWAP2 SWAP1 PUSH2 0x32AA JUMP JUMPDEST PUSH2 0x6E2 JUMP JUMPDEST STOP JUMPDEST PUSH2 0x211 PUSH2 0x8BE JUMP JUMPDEST STOP JUMPDEST PUSH2 0x21B PUSH2 0xA7E JUMP JUMPDEST PUSH1 0x40 MLOAD PUSH2 0x228 SWAP2 SWAP1 PUSH2 0x32E4 JUMP JUMPDEST PUSH1 0x40 MLOAD DUP1 SWAP2 SUB SWAP1 RETURN JUMPDEST PUSH2 0x239 PUSH2 0xA98 JUMP JUMPDEST STOP JUMPDEST PUSH2 0x255 PUSH1 0x4 DUP1 CALLDATASIZE SUB DUP2 ADD SWAP1 PUSH2 0x250 SWAP2 SWAP1 PUSH2 0x3369 JUMP JUMPDEST PUSH2 0xC70 JUMP JUMPDEST PUSH1 0x40 MLOAD PUSH2 0x262 SWAP2 SWAP1 PUSH2 0x33C1 JUMP JUMPDEST PUSH1 0x40 MLOAD DUP1 SWAP2 SUB SWAP1 RETURN JUMPDEST PUSH2 0x285 PUSH1 0x4 DUP1 CALLDATASIZE SUB DUP2 ADD SWAP1 PUSH2 0x280 SWAP2 SWAP1 PUSH2 0x3244 JUMP JUMPDEST PUSH2 0xCB6 JUMP JUMPDEST STOP JUMPDEST PUSH2 0x28F PUSH2 0xFA4 JUMP JUMPDEST PUSH1 0x40 MLOAD PUSH2 0x29C SWAP2 SWAP1 PUSH2 0x33E9 JUMP JUMPDEST PUSH1 0x40 MLOAD DUP1 SWAP2 SUB SWAP1 RETURN JUMPDEST PUSH2 0x2AD PUSH2 0xFCE JUMP JUMPDEST PUSH1 0x40 MLOAD PUSH2 0x2BA SWAP2 SWAP1 PUSH2 0x33E9 JUMP JUMPDEST PUSH1 0x40 MLOAD DUP1 SWAP2 SUB SWAP1 RETURN JUMPDEST PUSH2 0x2DD PUSH1 0x4 DUP1 CALLDATASIZE SUB DUP2 ADD SWAP1 PUSH2 0x2D8 SWAP2 SWAP1 PUSH2 0x3244 JUMP JUMPDEST PUSH2 0xFF8 JUMP JUMPDEST STOP JUMPDEST PUSH2 0x2F9 PUSH1 0x4 DUP1 CALLDATASIZE SUB DUP2 ADD SWAP1 PUSH2 0x2F4 SWAP2 SWAP1 PUSH2 0x3402 JUMP JUMPDEST PUSH2 0x123D JUMP JUMPDEST PUSH1 0x40 MLOAD PUSH2 0x306 SWAP2 SWAP1 PUSH2 0x33E9 JUMP JUMPDEST PUSH1 0x40 MLOAD DUP1 SWAP2 SUB SWAP1 RETURN JUMPDEST PUSH2 0x329 PUSH1 0x4 DUP1 CALLDATASIZE SUB DUP2 ADD SWAP1 PUSH2 0x324 SWAP2 SWAP1 PUSH2 0x3244 JUMP JUMPDEST PUSH2 0x137A JUMP JUMPDEST STOP JUMPDEST PUSH2 0x333 PUSH2 0x1486 JUMP JUMPDEST PUSH1 0x40 MLOAD PUSH2 0x340 SWAP2 SWAP1 PUSH2 0x33E9 JUMP JUMPDEST PUSH1 0x40 MLOAD DUP1 SWAP2 SUB SWAP1 RETURN JUMPDEST PUSH2 0x351 PUSH2 0x14B0 JUMP JUMPDEST PUSH1 0x40 MLOAD PUSH2 0x35E SWAP2 SWAP1 PUSH2 0x33C1 JUMP JUMPDEST PUSH1 0x40 MLOAD DUP1 SWAP2 SUB SWAP1 RETURN JUMPDEST PUSH2 0x381 PUSH1 0x4 DUP1 CALLDATASIZE SUB DUP2 ADD SWAP1 PUSH2 0x37C SWAP2 SWAP1 PUSH2 0x3244 JUMP JUMPDEST PUSH2 0x14C8 JUMP JUMPDEST STOP JUMPDEST PUSH2 0x39D PUSH1 0x4 DUP1 CALLDATASIZE SUB DUP2 ADD SWAP1 PUSH2 0x398 SWAP2 SWAP1 PUSH2 0x346A JUMP JUMPDEST PUSH2 0x1777 JUMP JUMPDEST STOP JUMPDEST PUSH2 0x3A7 PUSH2 0x1AC3 JUMP JUMPDEST PUSH1 0x40 MLOAD PUSH2 0x3B4 SWAP2 SWAP1 PUSH2 0x33E9 JUMP JUMPDEST PUSH1 0x40 MLOAD DUP1 SWAP2 SUB SWAP1 RETURN JUMPDEST PUSH2 0x3D7 PUSH1 0x4 DUP1 CALLDATASIZE SUB DUP2 ADD SWAP1 PUSH2 0x3D2 SWAP2 SWAP1 PUSH2 0x34BA JUMP JUMPDEST PUSH2 0x1AED JUMP JUMPDEST STOP JUMPDEST PUSH2 0x3F3 PUSH1 0x4 DUP1 CALLDATASIZE SUB DUP2 ADD SWAP1 PUSH2 0x3EE SWAP2 SWAP1 PUSH2 0x350A JUMP JUMPDEST PUSH2 0x1D27 JUMP JUMPDEST PUSH1 0x40 MLOAD PUSH2 0x400 SWAP2 SWAP1 PUSH2 0x33E9 JUMP JUMPDEST PUSH1 0x40 MLOAD DUP1 SWAP2 SUB SWAP1 RETURN JUMPDEST PUSH2 0x423 PUSH1 0x4 DUP1 CALLDATASIZE SUB DUP2 ADD SWAP1 PUSH2 0x41E SWAP2 SWAP1 PUSH2 0x3548 JUMP JUMPDEST PUSH2 0x1D70 JUMP JUMPDEST STOP JUMPDEST PUSH2 0x42D PUSH2 0x1EB6 JUMP JUMPDEST PUSH1 0x40 MLOAD PUSH2 0x43A SWAP2 SWAP1 PUSH2 0x3582 JUMP JUMPDEST PUSH1 0x40 MLOAD DUP1 SWAP2 SUB SWAP1 RETURN JUMPDEST PUSH2 0x44B PUSH2 0x1ED1 JUMP JUMPDEST PUSH1 0x40 MLOAD PUSH2 0x458 SWAP2 SWAP1 PUSH2 0x33E9 JUMP JUMPDEST PUSH1 0x40 MLOAD DUP1 SWAP2 SUB SWAP1 RETURN JUMPDEST PUSH2 0x47B PUSH1 0x4 DUP1 CALLDATASIZE SUB DUP2 ADD SWAP1 PUSH2 0x476 SWAP2 SWAP1 PUSH2 0x359B JUMP JUMPDEST PUSH2 0x1EF8 JUMP JUMPDEST STOP JUMPDEST PUSH2 0x497 PUSH1 0x4 DUP1 CALLDATASIZE SUB DUP2 ADD SWAP1 PUSH2 0x492 SWAP2 SWAP1 PUSH2 0x3244 JUMP JUMPDEST PUSH2 0x2879 JUMP JUMPDEST STOP JUMPDEST PUSH2 0x4A1 PUSH2 0x2A91 JUMP JUMPDEST PUSH1 0x40 MLOAD PUSH2 0x4AE SWAP2 SWAP1 PUSH2 0x33E9 JUMP JUMPDEST PUSH1 0x40 MLOAD DUP1 SWAP2 SUB SWAP1 RETURN JUMPDEST PUSH2 0x4BF PUSH2 0x2A98 JUMP JUMPDEST PUSH1 0x40 MLOAD PUSH2 0x4CC SWAP2 SWAP1 PUSH2 0x33C1 JUMP JUMPDEST PUSH1 0x40 MLOAD DUP1 SWAP2 SUB SWAP1 RETURN JUMPDEST PUSH2 0x4DD PUSH2 0x2AB0 JUMP JUMPDEST STOP JUMPDEST PUSH2 0x4F9 PUSH1 0x4 DUP1 CALLDATASIZE SUB DUP2 ADD SWAP1 PUSH2 0x4F4 SWAP2 SWAP1 PUSH2 0x3244 JUMP JUMPDEST PUSH2 0x2DC4 JUMP JUMPDEST STOP JUMPDEST PUSH2 0x515 PUSH1 0x4 DUP1 CALLDATASIZE SUB DUP2 ADD SWAP1 PUSH2 0x510 SWAP2 SWAP1 PUSH2 0x3548 JUMP JUMPDEST PUSH2 0x300D JUMP JUMPDEST STOP JUMPDEST TIMESTAMP PUSH32 0x0 PUSH6 0xFFFFFFFFFFFF AND LT ISZERO PUSH2 0x5C1 JUMPI PUSH2 0x54F PUSH2 0x1ED1 JUMP JUMPDEST PUSH20 0xFFFFFFFFFFFFFFFFFFFFFFFFFFFFFFFFFFFFFFFF AND CALLER PUSH20 0xFFFFFFFFFFFFFFFFFFFFFFFFFFFFFFFFFFFFFFFF AND EQ PUSH2 0x5BC JUMPI PUSH1 0x40 MLOAD PUSH32 0x8C379A000000000000000000000000000000000000000000000000000000000 DUP2 MSTORE PUSH1 0x4 ADD PUSH2 0x5B3 SWAP1 PUSH2 0x367E JUMP JUMPDEST PUSH1 0x40 MLOAD DUP1 SWAP2 SUB SWAP1 REVERT JUMPDEST PUSH2 0x648 JUMP JUMPDEST PUSH2 0x5C9 PUSH2 0x1486 JUMP JUMPDEST PUSH20 0xFFFFFFFFFFFFFFFFFFFFFFFFFFFFFFFFFFFFFFFF AND CALLER PUSH20 0xFFFFFFFFFFFFFFFFFFFFFFFFFFFFFFFFFFFFFFFF AND EQ DUP1 ISZERO PUSH2 0x608 JUMPI POP PUSH2 0x606 PUSH2 0x14B0 JUMP JUMPDEST ISZERO JUMPDEST PUSH2 0x647 JUMPI PUSH1 0x40 MLOAD PUSH32 0x8C379A000000000000000000000000000000000000000000000000000000000 DUP2 MSTORE PUSH1 0x4 ADD PUSH2 0x63E SWAP1 PUSH2 0x367E JUMP JUMPDEST PUSH1 0x40 MLOAD DUP1 SWAP2 SUB SWAP1 REVERT JUMPDEST JUMPDEST DUP1 PUSH1 0x2 PUSH0 PUSH2 0x100 EXP DUP2 SLOAD DUP2 PUSH20 0xFFFFFFFFFFFFFFFFFFFFFFFFFFFFFFFFFFFFFFFF MUL NOT AND SWAP1 DUP4 PUSH20 0xFFFFFFFFFFFFFFFFFFFFFFFFFFFFFFFFFFFFFFFF AND MUL OR SWAP1 SSTORE POP PUSH2 0x692 PUSH1 0x1 PUSH2 0x309F JUMP JUMPDEST PUSH2 0x69C PUSH1 0x1 PUSH2 0x30BE JUMP JUMPDEST DUP1 PUSH20 0xFFFFFFFFFFFFFFFFFFFFFFFFFFFFFFFFFFFFFFFF AND PUSH32 0x3553F1F7EF0242113266A8D183B621BB87468C99237F36B1150B6AB3D688B686 PUSH1 0x40 MLOAD PUSH1 0x40 MLOAD DUP1 SWAP2 SUB SWAP1 LOG2 POP JUMP JUMPDEST TIMESTAMP PUSH32 0x0 PUSH6 0xFFFFFFFFFFFF AND LT ISZERO PUSH2 0x78C JUMPI PUSH2 0x71A PUSH2 0xFCE JUMP JUMPDEST PUSH20 0xFFFFFFFFFFFFFFFFFFFFFFFFFFFFFFFFFFFFFFFF AND CALLER PUSH20 0xFFFFFFFFFFFFFFFFFFFFFFFFFFFFFFFFFFFFFFFF AND EQ PUSH2 0x787 JUMPI PUSH1 0x40 MLOAD PUSH32 0x8C379A000000000000000000000000000000000000000000000000000000000 DUP2 MSTORE PUSH1 0x4 ADD PUSH2 0x77E SWAP1 PUSH2 0x367E JUMP JUMPDEST PUSH1 0x40 MLOAD DUP1 SWAP2 SUB SWAP1 REVERT JUMPDEST PUSH2 0x813 JUMP JUMPDEST PUSH2 0x794 PUSH2 0x1AC3 JUMP JUMPDEST PUSH20 0xFFFFFFFFFFFFFFFFFFFFFFFFFFFFFFFFFFFFFFFF AND CALLER PUSH20 0xFFFFFFFFFFFFFFFFFFFFFFFFFFFFFFFFFFFFFFFF AND EQ DUP1 ISZERO PUSH2 0x7D3 JUMPI POP PUSH2 0x7D1 PUSH2 0x2A98 JUMP JUMPDEST ISZERO JUMPDEST PUSH2 0x812 JUMPI PUSH1 0x40 MLOAD PUSH32 0x8C379A000000000000000000000000000000000000000000000000000000000 DUP2 MSTORE PUSH1 0x4 ADD PUSH2 0x809 SWAP1 PUSH2 0x367E JUMP JUMPDEST PUSH1 0x40 MLOAD DUP1 SWAP2 SUB SWAP1 REVERT JUMPDEST JUMPDEST PUSH4 0x1E13380 DUP2 PUSH6 0xFFFFFFFFFFFF AND LT ISZERO PUSH2 0x862 JUMPI PUSH1 0x40 MLOAD PUSH32 0x8C379A000000000000000000000000000000000000000000000000000000000 DUP2 MSTORE PUSH1 0x4 ADD PUSH2 0x859 SWAP1 PUSH2 0x370C JUMP JUMPDEST PUSH1 0x40 MLOAD DUP1 SWAP2 SUB SWAP1 REVERT JUMPDEST DUP1 PUSH1 0x8 PUSH0 PUSH2 0x100 EXP DUP2 SLOAD DUP2 PUSH6 0xFFFFFFFFFFFF MUL NOT AND SWAP1 DUP4 PUSH6 0xFFFFFFFFFFFF AND MUL OR SWAP1 SSTORE POP DUP1 PUSH6 0xFFFFFFFFFFFF AND PUSH32 0x7770585B4168A068ECE1EF82E1B2308BFFD7D3FB280C81BA145A072054E78CC PUSH1 0x40 MLOAD PUSH1 0x40 MLOAD DUP1 SWAP2 SUB SWAP1 LOG2 POP JUMP JUMPDEST CALLER PUSH20 0xFFFFFFFFFFFFFFFFFFFFFFFFFFFFFFFFFFFFFFFF AND PUSH1 0x2 PUSH0 SWAP1 SLOAD SWAP1 PUSH2 0x100 EXP SWAP1 DIV PUSH20 0xFFFFFFFFFFFFFFFFFFFFFFFFFFFFFFFFFFFFFFFF AND PUSH20 0xFFFFFFFFFFFFFFFFFFFFFFFFFFFFFFFFFFFFFFFF AND SUB PUSH2 0xA4A JUMPI PUSH1 0x2 PUSH0 PUSH2 0x100 EXP DUP2 SLOAD SWAP1 PUSH20 0xFFFFFFFFFFFFFFFFFFFFFFFFFFFFFFFFFFFFFFFF MUL NOT AND SWAP1 SSTORE CALLER PUSH1 0x4 PUSH0 ADD PUSH0 PUSH2 0x100 EXP DUP2 SLOAD DUP2 PUSH20 0xFFFFFFFFFFFFFFFFFFFFFFFFFFFFFFFFFFFFFFFF MUL NOT AND SWAP1 DUP4 PUSH20 0xFFFFFFFFFFFFFFFFFFFFFFFFFFFFFFFFFFFFFFFF AND MUL OR SWAP1 SSTORE POP PUSH1 0x4 PUSH0 ADD PUSH1 0x15 DUP2 DUP2 SWAP1 SLOAD SWAP1 PUSH2 0x100 EXP SWAP1 DIV PUSH4 0xFFFFFFFF AND DUP1 SWAP3 SWAP2 SWAP1 PUSH2 0x99C SWAP1 PUSH2 0x3757 JUMP JUMPDEST SWAP2 SWAP1 PUSH2 0x100 EXP DUP2 SLOAD DUP2 PUSH4 0xFFFFFFFF MUL NOT AND SWAP1 DUP4 PUSH4 0xFFFFFFFF AND MUL OR SWAP1 SSTORE POP POP PUSH2 0x9C4 PUSH0 PUSH2 0x309F JUMP JUMPDEST PUSH1 0x4 PUSH0 ADD PUSH1 0x15 SWAP1 SLOAD SWAP1 PUSH2 0x100 EXP SWAP1 DIV PUSH4 0xFFFFFFFF AND PUSH4 0xFFFFFFFF AND PUSH1 0x4 PUSH0 ADD PUSH0 SWAP1 SLOAD SWAP1 PUSH2 0x100 EXP SWAP1 DIV PUSH20 0xFFFFFFFFFFFFFFFFFFFFFFFFFFFFFFFFFFFFFFFF AND PUSH20 0xFFFFFFFFFFFFFFFFFFFFFFFFFFFFFFFFFFFFFFFF AND PUSH32 0x5AD9B3688012CD825C1BFB941E4F5AFB2558AF6AF3DEADDF01DBB5E85ABDAF9 PUSH1 0x40 MLOAD PUSH1 0x40 MLOAD DUP1 SWAP2 SUB SWAP1 LOG3 PUSH2 0xA7C JUMP JUMPDEST PUSH1 0x40 MLOAD PUSH32 0x6C4360F000000000000000000000000000000000000000000000000000000000 DUP2 MSTORE PUSH1 0x4 ADD PUSH1 0x40 MLOAD DUP1 SWAP2 SUB SWAP1 REVERT JUMPDEST JUMP JUMPDEST PUSH0 PUSH1 0x8 PUSH0 SWAP1 SLOAD SWAP1 PUSH2 0x100 EXP SWAP1 DIV PUSH6 0xFFFFFFFFFFFF AND SWAP1 POP SWAP1 JUMP JUMPDEST CALLER PUSH20 0xFFFFFFFFFFFFFFFFFFFFFFFFFFFFFFFFFFFFFFFF AND PUSH1 0x3 PUSH0 SWAP1 SLOAD SWAP1 PUSH2 0x100 EXP SWAP1 DIV PUSH20 0xFFFFFFFFFFFFFFFFFFFFFFFFFFFFFFFFFFFFFFFF AND PUSH20 0xFFFFFFFFFFFFFFFFFFFFFFFFFFFFFFFFFFFFFFFF AND SUB PUSH2 0xC3C JUMPI PUSH1 0x3 PUSH0 PUSH2 0x100 EXP DUP2 SLOAD SWAP1 PUSH20 0xFFFFFFFFFFFFFFFFFFFFFFFFFFFFFFFFFFFFFFFF MUL NOT AND SWAP1 SSTORE CALLER PUSH1 0x5 PUSH0 ADD PUSH0 PUSH2 0x100 EXP DUP2 SLOAD DUP2 PUSH20 0xFFFFFFFFFFFFFFFFFFFFFFFFFFFFFFFFFFFFFFFF MUL NOT AND SWAP1 DUP4 PUSH20 0xFFFFFFFFFFFFFFFFFFFFFFFFFFFFFFFFFFFFFFFF AND MUL OR SWAP1 SSTORE POP PUSH1 0x5 PUSH0 ADD PUSH1 0x15 DUP2 DUP2 SWAP1 SLOAD SWAP1 PUSH2 0x100 EXP SWAP1 DIV PUSH4 0xFFFFFFFF AND DUP1 SWAP3 SWAP2 SWAP1 PUSH2 0xB76 SWAP1 PUSH2 0x3757 JUMP JUMPDEST SWAP2 SWAP1 PUSH2 0x100 EXP DUP2 SLOAD DUP2 PUSH4 0xFFFFFFFF MUL NOT AND SWAP1 DUP4 PUSH4 0xFFFFFFFF AND MUL OR SWAP1 SSTORE POP POP PUSH1 0x5 PUSH0 ADD PUSH1 0x14 SWAP1 SLOAD SWAP1 PUSH2 0x100 EXP SWAP1 DIV PUSH1 0xFF AND ISZERO PUSH2 0xBB6 JUMPI PUSH2 0xBB5 PUSH0 PUSH2 0x30BE JUMP JUMPDEST JUMPDEST PUSH1 0x5 PUSH0 ADD PUSH1 0x15 SWAP1 SLOAD SWAP1 PUSH2 0x100 EXP SWAP1 DIV PUSH4 0xFFFFFFFF AND PUSH4 0xFFFFFFFF AND PUSH1 0x5 PUSH0 ADD PUSH0 SWAP1 SLOAD SWAP1 PUSH2 0x100 EXP SWAP1 DIV PUSH20 0xFFFFFFFFFFFFFFFFFFFFFFFFFFFFFFFFFFFFFFFF AND PUSH20 0xFFFFFFFFFFFFFFFFFFFFFFFFFFFFFFFFFFFFFFFF AND PUSH32 0x11E1B985C07E1BF3FEC9BFD0BDB8C4A8E870BA2B26AA89FE50A6A19132CA10FD PUSH1 0x40 MLOAD PUSH1 0x40 MLOAD DUP1 SWAP2 SUB SWAP1 LOG3 PUSH2 0xC6E JUMP JUMPDEST PUSH1 0x40 MLOAD PUSH32 0x6C4360F000000000000000000000000000000000000000000000000000000000 DUP2 MSTORE PUSH1 0x4 ADD PUSH1 0x40 MLOAD DUP1 SWAP2 SUB SWAP1 REVERT JUMPDEST JUMP JUMPDEST PUSH0 PUSH1 0xB PUSH0 DUP5 PUSH4 0xFFFFFFFF AND PUSH4 0xFFFFFFFF AND DUP2 MSTORE PUSH1 0x20 ADD SWAP1 DUP2 MSTORE PUSH1 0x20 ADD PUSH0 KECCAK256 PUSH0 DUP4 DUP2 MSTORE PUSH1 0x20 ADD SWAP1 DUP2 MSTORE PUSH1 0x20 ADD PUSH0 KECCAK256 PUSH1 0x1 ADD PUSH1 0x8 SWAP1 SLOAD SWAP1 PUSH2 0x100 EXP SWAP1 DIV PUSH1 0xFF AND SWAP1 POP SWAP3 SWAP2 POP POP JUMP JUMPDEST TIMESTAMP PUSH32 0x0 PUSH6 0xFFFFFFFFFFFF AND LT ISZERO PUSH2 0xD60 JUMPI PUSH2 0xCEE PUSH2 0x1ED1 JUMP JUMPDEST PUSH20 0xFFFFFFFFFFFFFFFFFFFFFFFFFFFFFFFFFFFFFFFF AND CALLER PUSH20 0xFFFFFFFFFFFFFFFFFFFFFFFFFFFFFFFFFFFFFFFF AND EQ PUSH2 0xD5B JUMPI PUSH1 0x40 MLOAD PUSH32 0x8C379A000000000000000000000000000000000000000000000000000000000 DUP2 MSTORE PUSH1 0x4 ADD PUSH2 0xD52 SWAP1 PUSH2 0x367E JUMP JUMPDEST PUSH1 0x40 MLOAD DUP1 SWAP2 SUB SWAP1 REVERT JUMPDEST PUSH2 0xDE7 JUMP JUMPDEST PUSH2 0xD68 PUSH2 0x1486 JUMP JUMPDEST PUSH20 0xFFFFFFFFFFFFFFFFFFFFFFFFFFFFFFFFFFFFFFFF AND CALLER PUSH20 0xFFFFFFFFFFFFFFFFFFFFFFFFFFFFFFFFFFFFFFFF AND EQ DUP1 ISZERO PUSH2 0xDA7 JUMPI POP PUSH2 0xDA5 PUSH2 0x14B0 JUMP JUMPDEST ISZERO JUMPDEST PUSH2 0xDE6 JUMPI PUSH1 0x40 MLOAD PUSH32 0x8C379A000000000000000000000000000000000000000000000000000000000 DUP2 MSTORE PUSH1 0x4 ADD PUSH2 0xDDD SWAP1 PUSH2 0x367E JUMP JUMPDEST PUSH1 0x40 MLOAD DUP1 SWAP2 SUB SWAP1 REVERT JUMPDEST JUMPDEST TIMESTAMP PUSH1 0x3 PUSH1 0x14 SWAP1 SLOAD SWAP1 PUSH2 0x100 EXP SWAP1 DIV PUSH6 0xFFFFFFFFFFFF AND PUSH6 0xFFFFFFFFFFFF AND LT ISZERO PUSH2 0xF45 JUMPI PUSH0 PUSH1 0x3 PUSH1 0x14 SWAP1 SLOAD SWAP1 PUSH2 0x100 EXP SWAP1 DIV PUSH6 0xFFFFFFFFFFFF AND PUSH6 0xFFFFFFFFFFFF AND SUB PUSH2 0xE69 JUMPI PUSH1 0x40 MLOAD PUSH32 0x8C379A000000000000000000000000000000000000000000000000000000000 DUP2 MSTORE PUSH1 0x4 ADD PUSH2 0xE60 SWAP1 PUSH2 0x37CC JUMP JUMPDEST PUSH1 0x40 MLOAD DUP1 SWAP2 SUB SWAP1 REVERT JUMPDEST DUP1 PUSH20 0xFFFFFFFFFFFFFFFFFFFFFFFFFFFFFFFFFFFFFFFF AND PUSH0 DUP1 SLOAD SWAP1 PUSH2 0x100 EXP SWAP1 DIV PUSH20 0xFFFFFFFFFFFFFFFFFFFFFFFFFFFFFFFFFFFFFFFF AND PUSH20 0xFFFFFFFFFFFFFFFFFFFFFFFFFFFFFFFFFFFFFFFF AND SUB PUSH2 0xF03 JUMPI PUSH1 0x3 PUSH1 0x14 PUSH2 0x100 EXP DUP2 SLOAD SWAP1 PUSH6 0xFFFFFFFFFFFF MUL NOT AND SWAP1 SSTORE PUSH0 DUP1 PUSH2 0x100 EXP DUP2 SLOAD SWAP1 PUSH20 0xFFFFFFFFFFFFFFFFFFFFFFFFFFFFFFFFFFFFFFFF MUL NOT AND SWAP1 SSTORE PUSH2 0xEFE DUP2 PUSH2 0x30DD JUMP JUMPDEST PUSH2 0xF40 JUMP JUMPDEST DUP1 PUSH1 0x40 MLOAD PUSH32 0xC632231500000000000000000000000000000000000000000000000000000000 DUP2 MSTORE PUSH1 0x4 ADD PUSH2 0xF37 SWAP2 SWAP1 PUSH2 0x33E9 JUMP JUMPDEST PUSH1 0x40 MLOAD DUP1 SWAP2 SUB SWAP1 REVERT JUMPDEST PUSH2 0xFA1 JUMP JUMPDEST TIMESTAMP PUSH1 0x3 PUSH1 0x14 SWAP1 SLOAD SWAP1 PUSH2 0x100 EXP SWAP1 DIV PUSH6 0xFFFFFFFFFFFF AND PUSH2 0xF65 SWAP2 SWAP1 PUSH2 0x37EA JUMP JUMPDEST PUSH1 0x40 MLOAD PUSH32 0x223A6CBB00000000000000000000000000000000000000000000000000000000 DUP2 MSTORE PUSH1 0x4 ADD PUSH2 0xF98 SWAP2 SWAP1 PUSH2 0x32E4 JUMP JUMPDEST PUSH1 0x40 MLOAD DUP1 SWAP2 SUB SWAP1 REVERT JUMPDEST POP JUMP JUMPDEST PUSH0 PUSH1 0x6 PUSH0 ADD PUSH0 SWAP1 SLOAD SWAP1 PUSH2 0x100 EXP SWAP1 DIV PUSH20 0xFFFFFFFFFFFFFFFFFFFFFFFFFFFFFFFFFFFFFFFF AND SWAP1 POP SWAP1 JUMP JUMPDEST PUSH0 PUSH1 0x7 PUSH0 ADD PUSH0 SWAP1 SLOAD SWAP1 PUSH2 0x100 EXP SWAP1 DIV PUSH20 0xFFFFFFFFFFFFFFFFFFFFFFFFFFFFFFFFFFFFFFFF AND SWAP1 POP SWAP1 JUMP JUMPDEST TIMESTAMP PUSH32 0x0 PUSH6 0xFFFFFFFFFFFF AND LT ISZERO PUSH2 0x10A2 JUMPI PUSH2 0x1030 PUSH2 0x1ED1 JUMP JUMPDEST PUSH20 0xFFFFFFFFFFFFFFFFFFFFFFFFFFFFFFFFFFFFFFFF AND CALLER PUSH20 0xFFFFFFFFFFFFFFFFFFFFFFFFFFFFFFFFFFFFFFFF AND EQ PUSH2 0x109D JUMPI PUSH1 0x40 MLOAD PUSH32 0x8C379A000000000000000000000000000000000000000000000000000000000 DUP2 MSTORE PUSH1 0x4 ADD PUSH2 0x1094 SWAP1 PUSH2 0x367E JUMP JUMPDEST PUSH1 0x40 MLOAD DUP1 SWAP2 SUB SWAP1 REVERT JUMPDEST PUSH2 0x1129 JUMP JUMPDEST PUSH2 0x10AA PUSH2 0x1486 JUMP JUMPDEST PUSH20 0xFFFFFFFFFFFFFFFFFFFFFFFFFFFFFFFFFFFFFFFF AND CALLER PUSH20 0xFFFFFFFFFFFFFFFFFFFFFFFFFFFFFFFFFFFFFFFF AND EQ DUP1 ISZERO PUSH2 0x10E9 JUMPI POP PUSH2 0x10E7 PUSH2 0x14B0 JUMP JUMPDEST ISZERO JUMPDEST PUSH2 0x1128 JUMPI PUSH1 0x40 MLOAD PUSH32 0x8C379A000000000000000000000000000000000000000000000000000000000 DUP2 MSTORE PUSH1 0x4 ADD PUSH2 0x111F SWAP1 PUSH2 0x367E JUMP JUMPDEST PUSH1 0x40 MLOAD DUP1 SWAP2 SUB SWAP1 REVERT JUMPDEST JUMPDEST DUP1 PUSH20 0xFFFFFFFFFFFFFFFFFFFFFFFFFFFFFFFFFFFFFFFF AND PUSH0 DUP1 SLOAD SWAP1 PUSH2 0x100 EXP SWAP1 DIV PUSH20 0xFFFFFFFFFFFFFFFFFFFFFFFFFFFFFFFFFFFFFFFF AND PUSH20 0xFFFFFFFFFFFFFFFFFFFFFFFFFFFFFFFFFFFFFFFF AND SUB PUSH2 0x11FD JUMPI PUSH1 0x3 PUSH1 0x14 PUSH2 0x100 EXP DUP2 SLOAD SWAP1 PUSH6 0xFFFFFFFFFFFF MUL NOT AND SWAP1 SSTORE PUSH0 DUP1 PUSH2 0x100 EXP DUP2 SLOAD SWAP1 PUSH20 0xFFFFFFFFFFFFFFFFFFFFFFFFFFFFFFFFFFFFFFFF MUL NOT AND SWAP1 SSTORE DUP1 PUSH20 0xFFFFFFFFFFFFFFFFFFFFFFFFFFFFFFFFFFFFFFFF AND PUSH32 0x62125DD3D531106FF055AAC7090CCEC5E1EDEC1D0DB6B0F1355F2CA154754695 PUSH1 0x40 MLOAD PUSH1 0x40 MLOAD DUP1 SWAP2 SUB SWAP1 LOG2 PUSH2 0x123A JUMP JUMPDEST DUP1 PUSH1 0x40 MLOAD PUSH32 0xC632231500000000000000000000000000000000000000000000000000000000 DUP2 MSTORE PUSH1 0x4 ADD PUSH2 0x1231 SWAP2 SWAP1 PUSH2 0x33E9 JUMP JUMPDEST PUSH1 0x40 MLOAD DUP1 SWAP2 SUB SWAP1 REVERT JUMPDEST POP JUMP JUMPDEST PUSH0 DUP1 PUSH1 0x9 PUSH0 DUP6 PUSH20 0xFFFFFFFFFFFFFFFFFFFFFFFFFFFFFFFFFFFFFFFF AND PUSH20 0xFFFFFFFFFFFFFFFFFFFFFFFFFFFFFFFFFFFFFFFF AND DUP2 MSTORE PUSH1 0x20 ADD SWAP1 DUP2 MSTORE PUSH1 0x20 ADD PUSH0 KECCAK256 PUSH1 0x40 MLOAD DUP1 PUSH1 0xA0 ADD PUSH1 0x40 MSTORE SWAP1 DUP2 PUSH0 DUP3 ADD SLOAD DUP2 MSTORE PUSH1 0x20 ADD PUSH1 0x1 DUP3 ADD PUSH0 SWAP1 SLOAD SWAP1 PUSH2 0x100 EXP SWAP1 DIV PUSH4 0xFFFFFFFF AND PUSH4 0xFFFFFFFF AND PUSH4 0xFFFFFFFF AND DUP2 MSTORE PUSH1 0x20 ADD PUSH1 0x1 DUP3 ADD PUSH1 0x4 SWAP1 SLOAD SWAP1 PUSH2 0x100 EXP SWAP1 DIV PUSH6 0xFFFFFFFFFFFF AND PUSH6 0xFFFFFFFFFFFF AND PUSH6 0xFFFFFFFFFFFF AND DUP2 MSTORE PUSH1 0x20 ADD PUSH1 0x1 DUP3 ADD PUSH1 0xA SWAP1 SLOAD SWAP1 PUSH2 0x100 EXP SWAP1 DIV PUSH6 0xFFFFFFFFFFFF AND PUSH6 0xFFFFFFFFFFFF AND PUSH6 0xFFFFFFFFFFFF AND DUP2 MSTORE PUSH1 0x20 ADD PUSH1 0x2 DUP3 ADD PUSH0 SWAP1 SLOAD SWAP1 PUSH2 0x100 EXP SWAP1 DIV PUSH20 0xFFFFFFFFFFFFFFFFFFFFFFFFFFFFFFFFFFFFFFFF AND PUSH20 0xFFFFFFFFFFFFFFFFFFFFFFFFFFFFFFFFFFFFFFFF AND PUSH20 0xFFFFFFFFFFFFFFFFFFFFFFFFFFFFFFFFFFFFFFFF AND DUP2 MSTORE POP POP SWAP1 POP PUSH2 0x1371 DUP4 DUP3 PUSH0 ADD MLOAD PUSH2 0x1D27 JUMP JUMPDEST SWAP2 POP POP SWAP3 SWAP2 POP POP JUMP JUMPDEST PUSH2 0x1382 PUSH2 0x1486 JUMP JUMPDEST PUSH20 0xFFFFFFFFFFFFFFFFFFFFFFFFFFFFFFFFFFFFFFFF AND CALLER PUSH20 0xFFFFFFFFFFFFFFFFFFFFFFFFFFFFFFFFFFFFFFFF AND EQ DUP1 ISZERO PUSH2 0x13C1 JUMPI POP PUSH2 0x13BF PUSH2 0x14B0 JUMP JUMPDEST ISZERO JUMPDEST PUSH2 0x1400 JUMPI PUSH1 0x40 MLOAD PUSH32 0x8C379A000000000000000000000000000000000000000000000000000000000 DUP2 MSTORE PUSH1 0x4 ADD PUSH2 0x13F7 SWAP1 PUSH2 0x367E JUMP JUMPDEST PUSH1 0x40 MLOAD DUP1 SWAP2 SUB SWAP1 REVERT JUMPDEST DUP1 PUSH1 0x3 PUSH0 PUSH2 0x100 EXP DUP2 SLOAD DUP2 PUSH20 0xFFFFFFFFFFFFFFFFFFFFFFFFFFFFFFFFFFFFFFFF MUL NOT AND SWAP1 DUP4 PUSH20 0xFFFFFFFFFFFFFFFFFFFFFFFFFFFFFFFFFFFFFFFF AND MUL OR SWAP1 SSTORE POP DUP1 PUSH20 0xFFFFFFFFFFFFFFFFFFFFFFFFFFFFFFFFFFFFFFFF AND PUSH32 0xFF3CAD3EE28C342AD5F3D7C8FF8559EE4D21EB48494092B82A1652E443B3420B PUSH1 0x40 MLOAD PUSH1 0x40 MLOAD DUP1 SWAP2 SUB SWAP1 LOG2 POP JUMP JUMPDEST PUSH0 PUSH1 0x4 PUSH0 ADD PUSH0 SWAP1 SLOAD SWAP1 PUSH2 0x100 EXP SWAP1 DIV PUSH20 0xFFFFFFFFFFFFFFFFFFFFFFFFFFFFFFFFFFFFFFFF AND SWAP1 POP SWAP1 JUMP JUMPDEST PUSH0 PUSH1 0x4 PUSH0 ADD PUSH1 0x14 SWAP1 SLOAD SWAP1 PUSH2 0x100 EXP SWAP1 DIV PUSH1 0xFF AND SWAP1 POP SWAP1 JUMP JUMPDEST TIMESTAMP PUSH32 0x0 PUSH6 0xFFFFFFFFFFFF AND LT ISZERO PUSH2 0x1572 JUMPI PUSH2 0x1500 PUSH2 0x1ED1 JUMP JUMPDEST PUSH20 0xFFFFFFFFFFFFFFFFFFFFFFFFFFFFFFFFFFFFFFFF AND CALLER PUSH20 0xFFFFFFFFFFFFFFFFFFFFFFFFFFFFFFFFFFFFFFFF AND EQ PUSH2 0x156D JUMPI PUSH1 0x40 MLOAD PUSH32 0x8C379A000000000000000000000000000000000000000000000000000000000 DUP2 MSTORE PUSH1 0x4 ADD PUSH2 0x1564 SWAP1 PUSH2 0x367E JUMP JUMPDEST PUSH1 0x40 MLOAD DUP1 SWAP2 SUB SWAP1 REVERT JUMPDEST PUSH2 0x15F9 JUMP JUMPDEST PUSH2 0x157A PUSH2 0x1486 JUMP JUMPDEST PUSH20 0xFFFFFFFFFFFFFFFFFFFFFFFFFFFFFFFFFFFFFFFF AND CALLER PUSH20 0xFFFFFFFFFFFFFFFFFFFFFFFFFFFFFFFFFFFFFFFF AND EQ DUP1 ISZERO PUSH2 0x15B9 JUMPI POP PUSH2 0x15B7 PUSH2 0x14B0 JUMP JUMPDEST ISZERO JUMPDEST PUSH2 0x15F8 JUMPI PUSH1 0x40 MLOAD PUSH32 0x8C379A000000000000000000000000000000000000000000000000000000000 DUP2 MSTORE PUSH1 0x4 ADD PUSH2 0x15EF SWAP1 PUSH2 0x367E JUMP JUMPDEST PUSH1 0x40 MLOAD DUP1 SWAP2 SUB SWAP1 REVERT JUMPDEST JUMPDEST PUSH0 DUP2 PUSH20 0xFFFFFFFFFFFFFFFFFFFFFFFFFFFFFFFFFFFFFFFF AND EXTCODESIZE GT ISZERO PUSH2 0x1737 JUMPI CALLER PUSH20 0xFFFFFFFFFFFFFFFFFFFFFFFFFFFFFFFFFFFFFFFF AND PUSH1 0x4 PUSH0 ADD PUSH0 SWAP1 SLOAD SWAP1 PUSH2 0x100 EXP SWAP1 DIV PUSH20 0xFFFFFFFFFFFFFFFFFFFFFFFFFFFFFFFFFFFFFFFF AND PUSH20 0xFFFFFFFFFFFFFFFFFFFFFFFFFFFFFFFFFFFFFFFF AND SUB PUSH2 0x167C JUMPI PUSH2 0x1677 DUP2 PUSH2 0x30DD JUMP JUMPDEST PUSH2 0x1732 JUMP JUMPDEST PUSH3 0x13C680 TIMESTAMP PUSH2 0x168B SWAP2 SWAP1 PUSH2 0x382C JUMP JUMPDEST PUSH1 0x3 PUSH1 0x14 PUSH2 0x100 EXP DUP2 SLOAD DUP2 PUSH6 0xFFFFFFFFFFFF MUL NOT AND SWAP1 DUP4 PUSH6 0xFFFFFFFFFFFF AND MUL OR SWAP1 SSTORE POP DUP1 PUSH0 DUP1 PUSH2 0x100 EXP DUP2 SLOAD DUP2 PUSH20 0xFFFFFFFFFFFFFFFFFFFFFFFFFFFFFFFFFFFFFFFF MUL NOT AND SWAP1 DUP4 PUSH20 0xFFFFFFFFFFFFFFFFFFFFFFFFFFFFFFFFFFFFFFFF AND MUL OR SWAP1 SSTORE POP DUP1 PUSH20 0xFFFFFFFFFFFFFFFFFFFFFFFFFFFFFFFFFFFFFFFF AND PUSH32 0x30B8FE69C9B4C23CC01223881227C0CC8CBA5CC56D59263F51711DF1A8F2C667 PUSH1 0x40 MLOAD PUSH1 0x40 MLOAD DUP1 SWAP2 SUB SWAP1 LOG2 JUMPDEST PUSH2 0x1774 JUMP JUMPDEST DUP1 PUSH1 0x40 MLOAD PUSH32 0xC632231500000000000000000000000000000000000000000000000000000000 DUP2 MSTORE PUSH1 0x4 ADD PUSH2 0x176B SWAP2 SWAP1 PUSH2 0x33E9 JUMP JUMPDEST PUSH1 0x40 MLOAD DUP1 SWAP2 SUB SWAP1 REVERT JUMPDEST POP JUMP JUMPDEST PUSH1 0x2 DUP3 DUP3 PUSH0 PUSH1 0x9 PUSH0 CALLER PUSH20 0xFFFFFFFFFFFFFFFFFFFFFFFFFFFFFFFFFFFFFFFF AND PUSH20 0xFFFFFFFFFFFFFFFFFFFFFFFFFFFFFFFFFFFFFFFF AND DUP2 MSTORE PUSH1 0x20 ADD SWAP1 DUP2 MSTORE PUSH1 0x20 ADD PUSH0 KECCAK256 PUSH1 0x40 MLOAD DUP1 PUSH1 0xA0 ADD PUSH1 0x40 MSTORE SWAP1 DUP2 PUSH0 DUP3 ADD SLOAD DUP2 MSTORE PUSH1 0x20 ADD PUSH1 0x1 DUP3 ADD PUSH0 SWAP1 SLOAD SWAP1 PUSH2 0x100 EXP SWAP1 DIV PUSH4 0xFFFFFFFF AND PUSH4 0xFFFFFFFF AND PUSH4 0xFFFFFFFF AND DUP2 MSTORE PUSH1 0x20 ADD PUSH1 0x1 DUP3 ADD PUSH1 0x4 SWAP1 SLOAD SWAP1 PUSH2 0x100 EXP SWAP1 DIV PUSH6 0xFFFFFFFFFFFF AND PUSH6 0xFFFFFFFFFFFF AND PUSH6 0xFFFFFFFFFFFF AND DUP2 MSTORE PUSH1 0x20 ADD PUSH1 0x1 DUP3 ADD PUSH1 0xA SWAP1 SLOAD SWAP1 PUSH2 0x100 EXP SWAP1 DIV PUSH6 0xFFFFFFFFFFFF AND PUSH6 0xFFFFFFFFFFFF AND PUSH6 0xFFFFFFFFFFFF AND DUP2 MSTORE PUSH1 0x20 ADD PUSH1 0x2 DUP3 ADD PUSH0 SWAP1 SLOAD SWAP1 PUSH2 0x100 EXP SWAP1 DIV PUSH20 0xFFFFFFFFFFFFFFFFFFFFFFFFFFFFFFFFFFFFFFFF AND PUSH20 0xFFFFFFFFFFFFFFFFFFFFFFFFFFFFFFFFFFFFFFFF AND PUSH20 0xFFFFFFFFFFFFFFFFFFFFFFFFFFFFFFFFFFFFFFFF AND DUP2 MSTORE POP POP SWAP1 POP PUSH1 0x1 DUP5 PUSH1 0xFF AND SUB PUSH2 0x1941 JUMPI PUSH1 0xB PUSH0 DUP5 PUSH4 0xFFFFFFFF AND PUSH4 0xFFFFFFFF AND DUP2 MSTORE PUSH1 0x20 ADD SWAP1 DUP2 MSTORE PUSH1 0x20 ADD PUSH0 KECCAK256 PUSH0 DUP4 DUP2 MSTORE PUSH1 0x20 ADD SWAP1 DUP2 MSTORE PUSH1 0x20 ADD PUSH0 KECCAK256 PUSH1 0x1 ADD PUSH0 SWAP1 SLOAD SWAP1 PUSH2 0x100 EXP SWAP1 DIV PUSH4 0xFFFFFFFF AND PUSH4 0xFFFFFFFF AND DUP2 PUSH1 0x20 ADD MLOAD PUSH4 0xFFFFFFFF AND EQ PUSH2 0x193C JUMPI PUSH1 0x40 MLOAD PUSH32 0x8C379A000000000000000000000000000000000000000000000000000000000 DUP2 MSTORE PUSH1 0x4 ADD PUSH2 0x1933 SWAP1 PUSH2 0x367E JUMP JUMPDEST PUSH1 0x40 MLOAD DUP1 SWAP2 SUB SWAP1 REVERT JUMPDEST PUSH2 0x19D3 JUMP JUMPDEST PUSH1 0xB PUSH0 DUP5 PUSH4 0xFFFFFFFF AND PUSH4 0xFFFFFFFF AND DUP2 MSTORE PUSH1 0x20 ADD SWAP1 DUP2 MSTORE PUSH1 0x20 ADD PUSH0 KECCAK256 PUSH0 DUP4 DUP2 MSTORE PUSH1 0x20 ADD SWAP1 DUP2 MSTORE PUSH1 0x20 ADD PUSH0 KECCAK256 PUSH1 0x1 ADD PUSH1 0x4 SWAP1 SLOAD SWAP1 PUSH2 0x100 EXP SWAP1 DIV PUSH4 0xFFFFFFFF AND PUSH4 0xFFFFFFFF AND DUP2 PUSH1 0x20 ADD MLOAD PUSH4 0xFFFFFFFF AND EQ PUSH2 0x19D2 JUMPI PUSH1 0x40 MLOAD PUSH32 0x8C379A000000000000000000000000000000000000000000000000000000000 DUP2 MSTORE PUSH1 0x4 ADD PUSH2 0x19C9 SWAP1 PUSH2 0x367E JUMP JUMPDEST PUSH1 0x40 MLOAD DUP1 SWAP2 SUB SWAP1 REVERT JUMPDEST JUMPDEST PUSH2 0x19DD DUP4 DUP4 PUSH2 0xC70 JUMP JUMPDEST ISZERO DUP1 ISZERO PUSH2 0x19F5 JUMPI POP TIMESTAMP DUP2 PUSH1 0x60 ADD MLOAD PUSH6 0xFFFFFFFFFFFF AND GT JUMPDEST PUSH2 0x1A34 JUMPI PUSH1 0x40 MLOAD PUSH32 0x8C379A000000000000000000000000000000000000000000000000000000000 DUP2 MSTORE PUSH1 0x4 ADD PUSH2 0x1A2B SWAP1 PUSH2 0x367E JUMP JUMPDEST PUSH1 0x40 MLOAD DUP1 SWAP2 SUB SWAP1 REVERT JUMPDEST DUP7 PUSH1 0xB PUSH0 DUP9 PUSH4 0xFFFFFFFF AND PUSH4 0xFFFFFFFF AND DUP2 MSTORE PUSH1 0x20 ADD SWAP1 DUP2 MSTORE PUSH1 0x20 ADD PUSH0 KECCAK256 PUSH0 DUP8 DUP2 MSTORE PUSH1 0x20 ADD SWAP1 DUP2 MSTORE PUSH1 0x20 ADD PUSH0 KECCAK256 PUSH1 0x1 ADD PUSH1 0x8 PUSH2 0x100 EXP DUP2 SLOAD DUP2 PUSH1 0xFF MUL NOT AND SWAP1 DUP4 ISZERO ISZERO MUL OR SWAP1 SSTORE POP DUP5 DUP7 PUSH4 0xFFFFFFFF AND PUSH32 0xAFCA247090720E986BA0EF5BAAD4CD1E0BA020345CAFF5AC0BEAF2083FE9C7D DUP10 PUSH1 0x40 MLOAD PUSH2 0x1AB2 SWAP2 SWAP1 PUSH2 0x33C1 JUMP JUMPDEST PUSH1 0x40 MLOAD DUP1 SWAP2 SUB SWAP1 LOG3 POP POP POP POP POP POP POP JUMP JUMPDEST PUSH0 PUSH1 0x5 PUSH0 ADD PUSH0 SWAP1 SLOAD SWAP1 PUSH2 0x100 EXP SWAP1 DIV PUSH20 0xFFFFFFFFFFFFFFFFFFFFFFFFFFFFFFFFFFFFFFFF AND SWAP1 POP SWAP1 JUMP JUMPDEST TIMESTAMP PUSH32 0x0 PUSH6 0xFFFFFFFFFFFF AND LT ISZERO PUSH2 0x1B97 JUMPI PUSH2 0x1B25 PUSH2 0xFCE JUMP JUMPDEST PUSH20 0xFFFFFFFFFFFFFFFFFFFFFFFFFFFFFFFFFFFFFFFF AND CALLER PUSH20 0xFFFFFFFFFFFFFFFFFFFFFFFFFFFFFFFFFFFFFFFF AND EQ PUSH2 0x1B92 JUMPI PUSH1 0x40 MLOAD PUSH32 0x8C379A000000000000000000000000000000000000000000000000000000000 DUP2 MSTORE PUSH1 0x4 ADD PUSH2 0x1B89 SWAP1 PUSH2 0x367E JUMP JUMPDEST PUSH1 0x40 MLOAD DUP1 SWAP2 SUB SWAP1 REVERT JUMPDEST PUSH2 0x1C1E JUMP JUMPDEST PUSH2 0x1B9F PUSH2 0x1AC3 JUMP JUMPDEST PUSH20 0xFFFFFFFFFFFFFFFFFFFFFFFFFFFFFFFFFFFFFFFF AND CALLER PUSH20 0xFFFFFFFFFFFFFFFFFFFFFFFFFFFFFFFFFFFFFFFF AND EQ DUP1 ISZERO PUSH2 0x1BDE JUMPI POP PUSH2 0x1BDC PUSH2 0x2A98 JUMP JUMPDEST ISZERO JUMPDEST PUSH2 0x1C1D JUMPI PUSH1 0x40 MLOAD PUSH32 0x8C379A000000000000000000000000000000000000000000000000000000000 DUP2 MSTORE PUSH1 0x4 ADD PUSH2 0x1C14 SWAP1 PUSH2 0x367E JUMP JUMPDEST PUSH1 0x40 MLOAD DUP1 SWAP2 SUB SWAP1 REVERT JUMPDEST JUMPDEST PUSH0 DUP2 PUSH20 0xFFFFFFFFFFFFFFFFFFFFFFFFFFFFFFFFFFFFFFFF AND EXTCODESIZE GT ISZERO PUSH2 0x1CE5 JUMPI DUP1 PUSH1 0xA PUSH0 DUP6 DUP2 MSTORE PUSH1 0x20 ADD SWAP1 DUP2 MSTORE PUSH1 0x20 ADD PUSH0 KECCAK256 PUSH0 DUP5 DUP2 MSTORE PUSH1 0x20 ADD SWAP1 DUP2 MSTORE PUSH1 0x20 ADD PUSH0 KECCAK256 PUSH0 PUSH2 0x100 EXP DUP2 SLOAD DUP2 PUSH20 0xFFFFFFFFFFFFFFFFFFFFFFFFFFFFFFFFFFFFFFFF MUL NOT AND SWAP1 DUP4 PUSH20 0xFFFFFFFFFFFFFFFFFFFFFFFFFFFFFFFFFFFFFFFF AND MUL OR SWAP1 SSTORE POP DUP1 PUSH20 0xFFFFFFFFFFFFFFFFFFFFFFFFFFFFFFFFFFFFFFFF AND DUP3 DUP5 PUSH32 0xC4FF0E42DF9EA0A20D27EC6D51305D1CC1C1B489C098720E79A5CAED842F0073 PUSH1 0x40 MLOAD PUSH1 0x40 MLOAD DUP1 SWAP2 SUB SWAP1 LOG4 PUSH2 0x1D22 JUMP JUMPDEST DUP1 PUSH1 0x40 MLOAD PUSH32 0xEBCCC01400000000000000000000000000000000000000000000000000000000 DUP2 MSTORE PUSH1 0x4 ADD PUSH2 0x1D19 SWAP2 SWAP1 PUSH2 0x33E9 JUMP JUMPDEST PUSH1 0x40 MLOAD DUP1 SWAP2 SUB SWAP1 REVERT JUMPDEST POP POP POP JUMP JUMPDEST PUSH0 PUSH1 0xA PUSH0 DUP5 DUP2 MSTORE PUSH1 0x20 ADD SWAP1 DUP2 MSTORE PUSH1 0x20 ADD PUSH0 KECCAK256 PUSH0 DUP4 DUP2 MSTORE PUSH1 0x20 ADD SWAP1 DUP2 MSTORE PUSH1 0x20 ADD PUSH0 KECCAK256 PUSH0 SWAP1 SLOAD SWAP1 PUSH2 0x100 EXP SWAP1 DIV PUSH20 0xFFFFFFFFFFFFFFFFFFFFFFFFFFFFFFFFFFFFFFFF AND SWAP1 POP SWAP3 SWAP2 POP POP JUMP JUMPDEST TIMESTAMP PUSH32 0x0 PUSH6 0xFFFFFFFFFFFF AND LT ISZERO PUSH2 0x1E1A JUMPI PUSH2 0x1DA8 PUSH2 0x1ED1 JUMP JUMPDEST PUSH20 0xFFFFFFFFFFFFFFFFFFFFFFFFFFFFFFFFFFFFFFFF AND CALLER PUSH20 0xFFFFFFFFFFFFFFFFFFFFFFFFFFFFFFFFFFFFFFFF AND EQ PUSH2 0x1E15 JUMPI PUSH1 0x40 MLOAD PUSH32 0x8C379A000000000000000000000000000000000000000000000000000000000 DUP2 MSTORE PUSH1 0x4 ADD PUSH2 0x1E0C SWAP1 PUSH2 0x367E JUMP JUMPDEST PUSH1 0x40 MLOAD DUP1 SWAP2 SUB SWAP1 REVERT JUMPDEST PUSH2 0x1EA1 JUMP JUMPDEST PUSH2 0x1E22 PUSH2 0x1486 JUMP JUMPDEST PUSH20 0xFFFFFFFFFFFFFFFFFFFFFFFFFFFFFFFFFFFFFFFF AND CALLER PUSH20 0xFFFFFFFFFFFFFFFFFFFFFFFFFFFFFFFFFFFFFFFF AND EQ DUP1 ISZERO PUSH2 0x1E61 JUMPI POP PUSH2 0x1E5F PUSH2 0x14B0 JUMP JUMPDEST ISZERO JUMPDEST PUSH2 0x1EA0 JUMPI PUSH1 0x40 MLOAD PUSH32 0x8C379A000000000000000000000000000000000000000000000000000000000 DUP2 MSTORE PUSH1 0x4 ADD PUSH2 0x1E97 SWAP1 PUSH2 0x367E JUMP JUMPDEST PUSH1 0x40 MLOAD DUP1 SWAP2 SUB SWAP1 REVERT JUMPDEST JUMPDEST PUSH2 0x1EAA DUP2 PUSH2 0x309F JUMP JUMPDEST PUSH2 0x1EB3 DUP2 PUSH2 0x30BE JUMP JUMPDEST POP JUMP JUMPDEST PUSH0 PUSH1 0x6 PUSH0 ADD PUSH1 0x15 SWAP1 SLOAD SWAP1 PUSH2 0x100 EXP SWAP1 DIV PUSH4 0xFFFFFFFF AND SWAP1 POP SWAP1 JUMP JUMPDEST PUSH0 PUSH32 0x0 SWAP1 POP SWAP1 JUMP JUMPDEST PUSH1 0x1 DUP3 DUP5 PUSH0 PUSH1 0x9 PUSH0 CALLER PUSH20 0xFFFFFFFFFFFFFFFFFFFFFFFFFFFFFFFFFFFFFFFF AND PUSH20 0xFFFFFFFFFFFFFFFFFFFFFFFFFFFFFFFFFFFFFFFF AND DUP2 MSTORE PUSH1 0x20 ADD SWAP1 DUP2 MSTORE PUSH1 0x20 ADD PUSH0 KECCAK256 PUSH1 0x40 MLOAD DUP1 PUSH1 0xA0 ADD PUSH1 0x40 MSTORE SWAP1 DUP2 PUSH0 DUP3 ADD SLOAD DUP2 MSTORE PUSH1 0x20 ADD PUSH1 0x1 DUP3 ADD PUSH0 SWAP1 SLOAD SWAP1 PUSH2 0x100 EXP SWAP1 DIV PUSH4 0xFFFFFFFF AND PUSH4 0xFFFFFFFF AND PUSH4 0xFFFFFFFF AND DUP2 MSTORE PUSH1 0x20 ADD PUSH1 0x1 DUP3 ADD PUSH1 0x4 SWAP1 SLOAD SWAP1 PUSH2 0x100 EXP SWAP1 DIV PUSH6 0xFFFFFFFFFFFF AND PUSH6 0xFFFFFFFFFFFF AND PUSH6 0xFFFFFFFFFFFF AND DUP2 MSTORE PUSH1 0x20 ADD PUSH1 0x1 DUP3 ADD PUSH1 0xA SWAP1 SLOAD SWAP1 PUSH2 0x100 EXP SWAP1 DIV PUSH6 0xFFFFFFFFFFFF AND PUSH6 0xFFFFFFFFFFFF AND PUSH6 0xFFFFFFFFFFFF AND DUP2 MSTORE PUSH1 0x20 ADD PUSH1 0x2 DUP3 ADD PUSH0 SWAP1 SLOAD SWAP1 PUSH2 0x100 EXP SWAP1 DIV PUSH20 0xFFFFFFFFFFFFFFFFFFFFFFFFFFFFFFFFFFFFFFFF AND PUSH20 0xFFFFFFFFFFFFFFFFFFFFFFFFFFFFFFFFFFFFFFFF AND PUSH20 0xFFFFFFFFFFFFFFFFFFFFFFFFFFFFFFFFFFFFFFFF AND DUP2 MSTORE POP POP SWAP1 POP PUSH1 0x1 DUP5 PUSH1 0xFF AND SUB PUSH2 0x20C2 JUMPI PUSH1 0xB PUSH0 DUP5 PUSH4 0xFFFFFFFF AND PUSH4 0xFFFFFFFF AND DUP2 MSTORE PUSH1 0x20 ADD SWAP1 DUP2 MSTORE PUSH1 0x20 ADD PUSH0 KECCAK256 PUSH0 DUP4 DUP2 MSTORE PUSH1 0x20 ADD SWAP1 DUP2 MSTORE PUSH1 0x20 ADD PUSH0 KECCAK256 PUSH1 0x1 ADD PUSH0 SWAP1 SLOAD SWAP1 PUSH2 0x100 EXP SWAP1 DIV PUSH4 0xFFFFFFFF AND PUSH4 0xFFFFFFFF AND DUP2 PUSH1 0x20 ADD MLOAD PUSH4 0xFFFFFFFF AND EQ PUSH2 0x20BD JUMPI PUSH1 0x40 MLOAD PUSH32 0x8C379A000000000000000000000000000000000000000000000000000000000 DUP2 MSTORE PUSH1 0x4 ADD PUSH2 0x20B4 SWAP1 PUSH2 0x367E JUMP JUMPDEST PUSH1 0x40 MLOAD DUP1 SWAP2 SUB SWAP1 REVERT JUMPDEST PUSH2 0x2154 JUMP JUMPDEST PUSH1 0xB PUSH0 DUP5 PUSH4 0xFFFFFFFF AND PUSH4 0xFFFFFFFF AND DUP2 MSTORE PUSH1 0x20 ADD SWAP1 DUP2 MSTORE PUSH1 0x20 ADD PUSH0 KECCAK256 PUSH0 DUP4 DUP2 MSTORE PUSH1 0x20 ADD SWAP1 DUP2 MSTORE PUSH1 0x20 ADD PUSH0 KECCAK256 PUSH1 0x1 ADD PUSH1 0x4 SWAP1 SLOAD SWAP1 PUSH2 0x100 EXP SWAP1 DIV PUSH4 0xFFFFFFFF AND PUSH4 0xFFFFFFFF AND DUP2 PUSH1 0x20 ADD MLOAD PUSH4 0xFFFFFFFF AND EQ PUSH2 0x2153 JUMPI PUSH1 0x40 MLOAD PUSH32 0x8C379A000000000000000000000000000000000000000000000000000000000 DUP2 MSTORE PUSH1 0x4 ADD PUSH2 0x214A SWAP1 PUSH2 0x367E JUMP JUMPDEST PUSH1 0x40 MLOAD DUP1 SWAP2 SUB SWAP1 REVERT JUMPDEST JUMPDEST PUSH2 0x215E DUP4 DUP4 PUSH2 0xC70 JUMP JUMPDEST ISZERO DUP1 ISZERO PUSH2 0x2176 JUMPI POP TIMESTAMP DUP2 PUSH1 0x60 ADD MLOAD PUSH6 0xFFFFFFFFFFFF AND GT JUMPDEST PUSH2 0x21B5 JUMPI PUSH1 0x40 MLOAD PUSH32 0x8C379A000000000000000000000000000000000000000000000000000000000 DUP2 MSTORE PUSH1 0x4 ADD PUSH2 0x21AC SWAP1 PUSH2 0x367E JUMP JUMPDEST PUSH1 0x40 MLOAD DUP1 SWAP2 SUB SWAP1 REVERT JUMPDEST DUP8 PUSH20 0xFFFFFFFFFFFFFFFFFFFFFFFFFFFFFFFFFFFFFFFF AND DUP10 PUSH20 0xFFFFFFFFFFFFFFFFFFFFFFFFFFFFFFFFFFFFFFFF AND SUB PUSH2 0x22C7 JUMPI DUP5 PUSH1 0x9 PUSH0 DUP11 PUSH20 0xFFFFFFFFFFFFFFFFFFFFFFFFFFFFFFFFFFFFFFFF AND PUSH20 0xFFFFFFFFFFFFFFFFFFFFFFFFFFFFFFFFFFFFFFFF AND DUP2 MSTORE PUSH1 0x20 ADD SWAP1 DUP2 MSTORE PUSH1 0x20 ADD PUSH0 KECCAK256 PUSH1 0x1 ADD PUSH1 0xA DUP3 DUP3 DUP3 SWAP1 SLOAD SWAP1 PUSH2 0x100 EXP SWAP1 DIV PUSH6 0xFFFFFFFFFFFF AND PUSH2 0x2249 SWAP2 SWAP1 PUSH2 0x385F JUMP JUMPDEST SWAP3 POP PUSH2 0x100 EXP DUP2 SLOAD DUP2 PUSH6 0xFFFFFFFFFFFF MUL NOT AND SWAP1 DUP4 PUSH6 0xFFFFFFFFFFFF AND MUL OR SWAP1 SSTORE POP PUSH2 0x2275 DUP7 DUP9 PUSH2 0xC70 JUMP JUMPDEST ISZERO PUSH2 0x22C2 JUMPI PUSH0 PUSH1 0xB PUSH0 DUP9 PUSH4 0xFFFFFFFF AND PUSH4 0xFFFFFFFF AND DUP2 MSTORE PUSH1 0x20 ADD SWAP1 DUP2 MSTORE PUSH1 0x20 ADD PUSH0 KECCAK256 PUSH0 DUP10 DUP2 MSTORE PUSH1 0x20 ADD SWAP1 DUP2 MSTORE PUSH1 0x20 ADD PUSH0 KECCAK256 PUSH1 0x1 ADD PUSH1 0x8 PUSH2 0x100 EXP DUP2 SLOAD DUP2 PUSH1 0xFF MUL NOT AND SWAP1 DUP4 ISZERO ISZERO MUL OR SWAP1 SSTORE POP JUMPDEST PUSH2 0x2780 JUMP JUMPDEST DUP10 ISZERO PUSH2 0x2500 JUMPI DUP5 PUSH1 0x9 PUSH0 DUP12 PUSH20 0xFFFFFFFFFFFFFFFFFFFFFFFFFFFFFFFFFFFFFFFF AND PUSH20 0xFFFFFFFFFFFFFFFFFFFFFFFFFFFFFFFFFFFFFFFF AND DUP2 MSTORE PUSH1 0x20 ADD SWAP1 DUP2 MSTORE PUSH1 0x20 ADD PUSH0 KECCAK256 PUSH1 0x1 ADD PUSH1 0xA SWAP1 SLOAD SWAP1 PUSH2 0x100 EXP SWAP1 DIV PUSH6 0xFFFFFFFFFFFF AND PUSH2 0x232B SWAP2 SWAP1 PUSH2 0x385F JUMP JUMPDEST PUSH1 0x9 PUSH0 DUP11 PUSH20 0xFFFFFFFFFFFFFFFFFFFFFFFFFFFFFFFFFFFFFFFF AND PUSH20 0xFFFFFFFFFFFFFFFFFFFFFFFFFFFFFFFFFFFFFFFF AND DUP2 MSTORE PUSH1 0x20 ADD SWAP1 DUP2 MSTORE PUSH1 0x20 ADD PUSH0 KECCAK256 PUSH1 0x1 ADD PUSH1 0xA PUSH2 0x100 EXP DUP2 SLOAD DUP2 PUSH6 0xFFFFFFFFFFFF MUL NOT AND SWAP1 DUP4 PUSH6 0xFFFFFFFFFFFF AND MUL OR SWAP1 SSTORE POP TIMESTAMP PUSH1 0x9 PUSH0 DUP11 PUSH20 0xFFFFFFFFFFFFFFFFFFFFFFFFFFFFFFFFFFFFFFFF AND PUSH20 0xFFFFFFFFFFFFFFFFFFFFFFFFFFFFFFFFFFFFFFFF AND DUP2 MSTORE PUSH1 0x20 ADD SWAP1 DUP2 MSTORE PUSH1 0x20 ADD PUSH0 KECCAK256 PUSH1 0x1 ADD PUSH1 0x4 PUSH2 0x100 EXP DUP2 SLOAD DUP2 PUSH6 0xFFFFFFFFFFFF MUL NOT AND SWAP1 DUP4 PUSH6 0xFFFFFFFFFFFF AND MUL OR SWAP1 SSTORE POP PUSH1 0x9 PUSH0 DUP11 PUSH20 0xFFFFFFFFFFFFFFFFFFFFFFFFFFFFFFFFFFFFFFFF AND PUSH20 0xFFFFFFFFFFFFFFFFFFFFFFFFFFFFFFFFFFFFFFFF AND DUP2 MSTORE PUSH1 0x20 ADD SWAP1 DUP2 MSTORE PUSH1 0x20 ADD PUSH0 KECCAK256 PUSH0 DUP1 DUP3 ADD PUSH0 SWAP1 SSTORE PUSH1 0x1 DUP3 ADD PUSH0 PUSH2 0x100 EXP DUP2 SLOAD SWAP1 PUSH4 0xFFFFFFFF MUL NOT AND SWAP1 SSTORE PUSH1 0x1 DUP3 ADD PUSH1 0x4 PUSH2 0x100 EXP DUP2 SLOAD SWAP1 PUSH6 0xFFFFFFFFFFFF MUL NOT AND SWAP1 SSTORE PUSH1 0x1 DUP3 ADD PUSH1 0xA PUSH2 0x100 EXP DUP2 SLOAD SWAP1 PUSH6 0xFFFFFFFFFFFF MUL NOT AND SWAP1 SSTORE PUSH1 0x2 DUP3 ADD PUSH0 PUSH2 0x100 EXP DUP2 SLOAD SWAP1 PUSH20 0xFFFFFFFFFFFFFFFFFFFFFFFFFFFFFFFFFFFFFFFF MUL NOT AND SWAP1 SSTORE POP POP PUSH2 0x24AE DUP7 DUP9 PUSH2 0xC70 JUMP JUMPDEST ISZERO PUSH2 0x24FB JUMPI PUSH0 PUSH1 0xB PUSH0 DUP9 PUSH4 0xFFFFFFFF AND PUSH4 0xFFFFFFFF AND DUP2 MSTORE PUSH1 0x20 ADD SWAP1 DUP2 MSTORE PUSH1 0x20 ADD PUSH0 KECCAK256 PUSH0 DUP10 DUP2 MSTORE PUSH1 0x20 ADD SWAP1 DUP2 MSTORE PUSH1 0x20 ADD PUSH0 KECCAK256 PUSH1 0x1 ADD PUSH1 0x8 PUSH2 0x100 EXP DUP2 SLOAD DUP2 PUSH1 0xFF MUL NOT AND SWAP1 DUP4 ISZERO ISZERO MUL OR SWAP1 SSTORE POP JUMPDEST PUSH2 0x277F JUMP JUMPDEST PUSH0 PUSH1 0x9 PUSH0 DUP12 PUSH20 0xFFFFFFFFFFFFFFFFFFFFFFFFFFFFFFFFFFFFFFFF AND PUSH20 0xFFFFFFFFFFFFFFFFFFFFFFFFFFFFFFFFFFFFFFFF AND DUP2 MSTORE PUSH1 0x20 ADD SWAP1 DUP2 MSTORE PUSH1 0x20 ADD PUSH0 KECCAK256 PUSH1 0x1 ADD PUSH1 0x4 SWAP1 SLOAD SWAP1 PUSH2 0x100 EXP SWAP1 DIV PUSH6 0xFFFFFFFFFFFF AND PUSH6 0xFFFFFFFFFFFF AND SUB PUSH2 0x264A JUMPI TIMESTAMP PUSH1 0x9 PUSH0 DUP11 PUSH20 0xFFFFFFFFFFFFFFFFFFFFFFFFFFFFFFFFFFFFFFFF AND PUSH20 0xFFFFFFFFFFFFFFFFFFFFFFFFFFFFFFFFFFFFFFFF AND DUP2 MSTORE PUSH1 0x20 ADD SWAP1 DUP2 MSTORE PUSH1 0x20 ADD PUSH0 KECCAK256 PUSH1 0x1 ADD PUSH1 0x4 PUSH2 0x100 EXP DUP2 SLOAD DUP2 PUSH6 0xFFFFFFFFFFFF MUL NOT AND SWAP1 DUP4 PUSH6 0xFFFFFFFFFFFF AND MUL OR SWAP1 SSTORE POP PUSH1 0x8 PUSH0 SWAP1 SLOAD SWAP1 PUSH2 0x100 EXP SWAP1 DIV PUSH6 0xFFFFFFFFFFFF AND TIMESTAMP PUSH2 0x25E3 SWAP2 SWAP1 PUSH2 0x385F JUMP JUMPDEST PUSH1 0x9 PUSH0 DUP11 PUSH20 0xFFFFFFFFFFFFFFFFFFFFFFFFFFFFFFFFFFFFFFFF AND PUSH20 0xFFFFFFFFFFFFFFFFFFFFFFFFFFFFFFFFFFFFFFFF AND DUP2 MSTORE PUSH1 0x20 ADD SWAP1 DUP2 MSTORE PUSH1 0x20 ADD PUSH0 KECCAK256 PUSH1 0x1 ADD PUSH1 0xA PUSH2 0x100 EXP DUP2 SLOAD DUP2 PUSH6 0xFFFFFFFFFFFF MUL NOT AND SWAP1 DUP4 PUSH6 0xFFFFFFFFFFFF AND MUL OR SWAP1 SSTORE POP PUSH2 0x277E JUMP JUMPDEST PUSH1 0x9 PUSH0 DUP11 PUSH20 0xFFFFFFFFFFFFFFFFFFFFFFFFFFFFFFFFFFFFFFFF AND PUSH20 0xFFFFFFFFFFFFFFFFFFFFFFFFFFFFFFFFFFFFFFFF AND DUP2 MSTORE PUSH1 0x20 ADD SWAP1 DUP2 MSTORE PUSH1 0x20 ADD PUSH0 KECCAK256 PUSH1 0x1 ADD PUSH1 0xA SWAP1 SLOAD SWAP1 PUSH2 0x100 EXP SWAP1 DIV PUSH6 0xFFFFFFFFFFFF AND PUSH1 0x9 PUSH0 DUP11 PUSH20 0xFFFFFFFFFFFFFFFFFFFFFFFFFFFFFFFFFFFFFFFF AND PUSH20 0xFFFFFFFFFFFFFFFFFFFFFFFFFFFFFFFFFFFFFFFF AND DUP2 MSTORE PUSH1 0x20 ADD SWAP1 DUP2 MSTORE PUSH1 0x20 ADD PUSH0 KECCAK256 PUSH1 0x1 ADD PUSH1 0x4 PUSH2 0x100 EXP DUP2 SLOAD DUP2 PUSH6 0xFFFFFFFFFFFF MUL NOT AND SWAP1 DUP4 PUSH6 0xFFFFFFFFFFFF AND MUL OR SWAP1 SSTORE POP DUP9 PUSH1 0x9 PUSH0 DUP11 PUSH20 0xFFFFFFFFFFFFFFFFFFFFFFFFFFFFFFFFFFFFFFFF AND PUSH20 0xFFFFFFFFFFFFFFFFFFFFFFFFFFFFFFFFFFFFFFFF AND DUP2 MSTORE PUSH1 0x20 ADD SWAP1 DUP2 MSTORE PUSH1 0x20 ADD PUSH0 KECCAK256 PUSH1 0x2 ADD PUSH0 PUSH2 0x100 EXP DUP2 SLOAD DUP2 PUSH20 0xFFFFFFFFFFFFFFFFFFFFFFFFFFFFFFFFFFFFFFFF MUL NOT AND SWAP1 DUP4 PUSH20 0xFFFFFFFFFFFFFFFFFFFFFFFFFFFFFFFFFFFFFFFF AND MUL OR SWAP1 SSTORE POP JUMPDEST JUMPDEST JUMPDEST DUP7 PUSH1 0x9 PUSH0 DUP11 PUSH20 0xFFFFFFFFFFFFFFFFFFFFFFFFFFFFFFFFFFFFFFFF AND PUSH20 0xFFFFFFFFFFFFFFFFFFFFFFFFFFFFFFFFFFFFFFFF AND DUP2 MSTORE PUSH1 0x20 ADD SWAP1 DUP2 MSTORE PUSH1 0x20 ADD PUSH0 KECCAK256 PUSH0 ADD DUP2 SWAP1 SSTORE POP DUP6 PUSH1 0x9 PUSH0 DUP11 PUSH20 0xFFFFFFFFFFFFFFFFFFFFFFFFFFFFFFFFFFFFFFFF AND PUSH20 0xFFFFFFFFFFFFFFFFFFFFFFFFFFFFFFFFFFFFFFFF AND DUP2 MSTORE PUSH1 0x20 ADD SWAP1 DUP2 MSTORE PUSH1 0x20 ADD PUSH0 KECCAK256 PUSH1 0x1 ADD PUSH0 PUSH2 0x100 EXP DUP2 SLOAD DUP2 PUSH4 0xFFFFFFFF MUL NOT AND SWAP1 DUP4 PUSH4 0xFFFFFFFF AND MUL OR SWAP1 SSTORE POP DUP6 PUSH4 0xFFFFFFFF AND DUP8 DUP10 PUSH20 0xFFFFFFFFFFFFFFFFFFFFFFFFFFFFFFFFFFFFFFFF AND PUSH32 0x5C43A67D451CACADDC8309AF64192A4EBEE009B9CAB5EEB59EC1FB77DD3ABCBC PUSH1 0x40 MLOAD PUSH1 0x40 MLOAD DUP1 SWAP2 SUB SWAP1 LOG4 POP POP POP POP POP POP POP POP POP POP JUMP JUMPDEST TIMESTAMP PUSH32 0x0 PUSH6 0xFFFFFFFFFFFF AND LT ISZERO PUSH2 0x2923 JUMPI PUSH2 0x28B1 PUSH2 0x1ED1 JUMP JUMPDEST PUSH20 0xFFFFFFFFFFFFFFFFFFFFFFFFFFFFFFFFFFFFFFFF AND CALLER PUSH20 0xFFFFFFFFFFFFFFFFFFFFFFFFFFFFFFFFFFFFFFFF AND EQ PUSH2 0x291E JUMPI PUSH1 0x40 MLOAD PUSH32 0x8C379A000000000000000000000000000000000000000000000000000000000 DUP2 MSTORE PUSH1 0x4 ADD PUSH2 0x2915 SWAP1 PUSH2 0x367E JUMP JUMPDEST PUSH1 0x40 MLOAD DUP1 SWAP2 SUB SWAP1 REVERT JUMPDEST PUSH2 0x29AA JUMP JUMPDEST PUSH2 0x292B PUSH2 0x1486 JUMP JUMPDEST PUSH20 0xFFFFFFFFFFFFFFFFFFFFFFFFFFFFFFFFFFFFFFFF AND CALLER PUSH20 0xFFFFFFFFFFFFFFFFFFFFFFFFFFFFFFFFFFFFFFFF AND EQ DUP1 ISZERO PUSH2 0x296A JUMPI POP PUSH2 0x2968 PUSH2 0x14B0 JUMP JUMPDEST ISZERO JUMPDEST PUSH2 0x29A9 JUMPI PUSH1 0x40 MLOAD PUSH32 0x8C379A000000000000000000000000000000000000000000000000000000000 DUP2 MSTORE PUSH1 0x4 ADD PUSH2 0x29A0 SWAP1 PUSH2 0x367E JUMP JUMPDEST PUSH1 0x40 MLOAD DUP1 SWAP2 SUB SWAP1 REVERT JUMPDEST JUMPDEST PUSH0 DUP2 PUSH20 0xFFFFFFFFFFFFFFFFFFFFFFFFFFFFFFFFFFFFFFFF AND EXTCODESIZE GT ISZERO PUSH2 0x2A51 JUMPI DUP1 PUSH1 0x1 PUSH0 PUSH2 0x100 EXP DUP2 SLOAD DUP2 PUSH20 0xFFFFFFFFFFFFFFFFFFFFFFFFFFFFFFFFFFFFFFFF MUL NOT AND SWAP1 DUP4 PUSH20 0xFFFFFFFFFFFFFFFFFFFFFFFFFFFFFFFFFFFFFFFF AND MUL OR SWAP1 SSTORE POP DUP1 PUSH20 0xFFFFFFFFFFFFFFFFFFFFFFFFFFFFFFFFFFFFFFFF AND PUSH32 0xE8D8E3C7C3EBEC0C177D0FE22D223F8B5071DB39155104808D45027E368BA77A PUSH1 0x40 MLOAD PUSH1 0x40 MLOAD DUP1 SWAP2 SUB SWAP1 LOG2 PUSH2 0x2A8E JUMP JUMPDEST DUP1 PUSH1 0x40 MLOAD PUSH32 0x84DBC6CB00000000000000000000000000000000000000000000000000000000 DUP2 MSTORE PUSH1 0x4 ADD PUSH2 0x2A85 SWAP2 SWAP1 PUSH2 0x33E9 JUMP JUMPDEST PUSH1 0x40 MLOAD DUP1 SWAP2 SUB SWAP1 REVERT JUMPDEST POP JUMP JUMPDEST PUSH0 ADDRESS SWAP1 POP SWAP1 JUMP JUMPDEST PUSH0 PUSH1 0x5 PUSH0 ADD PUSH1 0x14 SWAP1 SLOAD SWAP1 PUSH2 0x100 EXP SWAP1 DIV PUSH1 0xFF AND SWAP1 POP SWAP1 JUMP JUMPDEST PUSH0 PUSH1 0x9 PUSH0 CALLER PUSH20 0xFFFFFFFFFFFFFFFFFFFFFFFFFFFFFFFFFFFFFFFF AND PUSH20 0xFFFFFFFFFFFFFFFFFFFFFFFFFFFFFFFFFFFFFFFF AND DUP2 MSTORE PUSH1 0x20 ADD SWAP1 DUP2 MSTORE PUSH1 0x20 ADD PUSH0 KECCAK256 PUSH1 0x40 MLOAD DUP1 PUSH1 0xA0 ADD PUSH1 0x40 MSTORE SWAP1 DUP2 PUSH0 DUP3 ADD SLOAD DUP2 MSTORE PUSH1 0x20 ADD PUSH1 0x1 DUP3 ADD PUSH0 SWAP1 SLOAD SWAP1 PUSH2 0x100 EXP SWAP1 DIV PUSH4 0xFFFFFFFF AND PUSH4 0xFFFFFFFF AND PUSH4 0xFFFFFFFF AND DUP2 MSTORE PUSH1 0x20 ADD PUSH1 0x1 DUP3 ADD PUSH1 0x4 SWAP1 SLOAD SWAP1 PUSH2 0x100 EXP SWAP1 DIV PUSH6 0xFFFFFFFFFFFF AND PUSH6 0xFFFFFFFFFFFF AND PUSH6 0xFFFFFFFFFFFF AND DUP2 MSTORE PUSH1 0x20 ADD PUSH1 0x1 DUP3 ADD PUSH1 0xA SWAP1 SLOAD SWAP1 PUSH2 0x100 EXP SWAP1 DIV PUSH6 0xFFFFFFFFFFFF AND PUSH6 0xFFFFFFFFFFFF AND PUSH6 0xFFFFFFFFFFFF AND DUP2 MSTORE PUSH1 0x20 ADD PUSH1 0x2 DUP3 ADD PUSH0 SWAP1 SLOAD SWAP1 PUSH2 0x100 EXP SWAP1 DIV PUSH20 0xFFFFFFFFFFFFFFFFFFFFFFFFFFFFFFFFFFFFFFFF AND PUSH20 0xFFFFFFFFFFFFFFFFFFFFFFFFFFFFFFFFFFFFFFFF AND PUSH20 0xFFFFFFFFFFFFFFFFFFFFFFFFFFFFFFFFFFFFFFFF AND DUP2 MSTORE POP POP SWAP1 POP PUSH0 DUP2 PUSH1 0x20 ADD MLOAD PUSH4 0xFFFFFFFF AND GT DUP1 ISZERO PUSH2 0x2BFA JUMPI POP TIMESTAMP DUP2 PUSH1 0x40 ADD MLOAD PUSH6 0xFFFFFFFFFFFF AND LT JUMPDEST DUP1 ISZERO PUSH2 0x2C11 JUMPI POP PUSH0 DUP2 PUSH1 0x60 ADD MLOAD PUSH6 0xFFFFFFFFFFFF AND EQ JUMPDEST ISZERO PUSH2 0x2D8F JUMPI PUSH2 0x2C1E PUSH2 0xA7E JUMP JUMPDEST PUSH1 0x9 PUSH0 CALLER PUSH20 0xFFFFFFFFFFFFFFFFFFFFFFFFFFFFFFFFFFFFFFFF AND PUSH20 0xFFFFFFFFFFFFFFFFFFFFFFFFFFFFFFFFFFFFFFFF AND DUP2 MSTORE PUSH1 0x20 ADD SWAP1 DUP2 MSTORE PUSH1 0x20 ADD PUSH0 KECCAK256 PUSH1 0x1 ADD PUSH1 0xA PUSH2 0x100 EXP DUP2 SLOAD DUP2 PUSH6 0xFFFFFFFFFFFF MUL NOT AND SWAP1 DUP4 PUSH6 0xFFFFFFFFFFFF AND MUL OR SWAP1 SSTORE POP PUSH1 0x9 PUSH0 DUP3 PUSH1 0x80 ADD MLOAD PUSH20 0xFFFFFFFFFFFFFFFFFFFFFFFFFFFFFFFFFFFFFFFF AND PUSH20 0xFFFFFFFFFFFFFFFFFFFFFFFFFFFFFFFFFFFFFFFF AND DUP2 MSTORE PUSH1 0x20 ADD SWAP1 DUP2 MSTORE PUSH1 0x20 ADD PUSH0 KECCAK256 PUSH0 DUP1 DUP3 ADD PUSH0 SWAP1 SSTORE PUSH1 0x1 DUP3 ADD PUSH0 PUSH2 0x100 EXP DUP2 SLOAD SWAP1 PUSH4 0xFFFFFFFF MUL NOT AND SWAP1 SSTORE PUSH1 0x1 DUP3 ADD PUSH1 0x4 PUSH2 0x100 EXP DUP2 SLOAD SWAP1 PUSH6 0xFFFFFFFFFFFF MUL NOT AND SWAP1 SSTORE PUSH1 0x1 DUP3 ADD PUSH1 0xA PUSH2 0x100 EXP DUP2 SLOAD SWAP1 PUSH6 0xFFFFFFFFFFFF MUL NOT AND SWAP1 SSTORE PUSH1 0x2 DUP3 ADD PUSH0 PUSH2 0x100 EXP DUP2 SLOAD SWAP1 PUSH20 0xFFFFFFFFFFFFFFFFFFFFFFFFFFFFFFFFFFFFFFFF MUL NOT AND SWAP1 SSTORE POP POP DUP1 PUSH1 0x20 ADD MLOAD PUSH4 0xFFFFFFFF AND DUP2 PUSH0 ADD MLOAD CALLER PUSH20 0xFFFFFFFFFFFFFFFFFFFFFFFFFFFFFFFFFFFFFFFF AND PUSH32 0x4A5552F2D245EB6039B03D3A4F2AEEAE275C3D6DC08931B837B5715FBBE5199 PUSH1 0x40 MLOAD PUSH1 0x40 MLOAD DUP1 SWAP2 SUB SWAP1 LOG4 PUSH2 0x2DC1 JUMP JUMPDEST PUSH1 0x40 MLOAD PUSH32 0x6C4360F000000000000000000000000000000000000000000000000000000000 DUP2 MSTORE PUSH1 0x4 ADD PUSH1 0x40 MLOAD DUP1 SWAP2 SUB SWAP1 REVERT JUMPDEST POP JUMP JUMPDEST PUSH2 0x2DCC PUSH2 0x1486 JUMP JUMPDEST PUSH20 0xFFFFFFFFFFFFFFFFFFFFFFFFFFFFFFFFFFFFFFFF AND CALLER PUSH20 0xFFFFFFFFFFFFFFFFFFFFFFFFFFFFFFFFFFFFFFFF AND EQ DUP1 ISZERO PUSH2 0x2E0B JUMPI POP PUSH2 0x2E09 PUSH2 0x14B0 JUMP JUMPDEST ISZERO JUMPDEST PUSH2 0x2E4A JUMPI PUSH1 0x40 MLOAD PUSH32 0x8C379A000000000000000000000000000000000000000000000000000000000 DUP2 MSTORE PUSH1 0x4 ADD PUSH2 0x2E41 SWAP1 PUSH2 0x367E JUMP JUMPDEST PUSH1 0x40 MLOAD DUP1 SWAP2 SUB SWAP1 REVERT JUMPDEST DUP1 PUSH20 0xFFFFFFFFFFFFFFFFFFFFFFFFFFFFFFFFFFFFFFFF AND PUSH1 0x1 PUSH0 SWAP1 SLOAD SWAP1 PUSH2 0x100 EXP SWAP1 DIV PUSH20 0xFFFFFFFFFFFFFFFFFFFFFFFFFFFFFFFFFFFFFFFF AND PUSH20 0xFFFFFFFFFFFFFFFFFFFFFFFFFFFFFFFFFFFFFFFF AND SUB PUSH2 0x2FCD JUMPI PUSH1 0x1 PUSH0 PUSH2 0x100 EXP DUP2 SLOAD SWAP1 PUSH20 0xFFFFFFFFFFFFFFFFFFFFFFFFFFFFFFFFFFFFFFFF MUL NOT AND SWAP1 SSTORE DUP1 PUSH1 0x6 PUSH0 ADD PUSH0 PUSH2 0x100 EXP DUP2 SLOAD DUP2 PUSH20 0xFFFFFFFFFFFFFFFFFFFFFFFFFFFFFFFFFFFFFFFF MUL NOT AND SWAP1 DUP4 PUSH20 0xFFFFFFFFFFFFFFFFFFFFFFFFFFFFFFFFFFFFFFFF AND MUL OR SWAP1 SSTORE POP PUSH1 0x6 PUSH0 ADD PUSH1 0x15 DUP2 DUP2 SWAP1 SLOAD SWAP1 PUSH2 0x100 EXP SWAP1 DIV PUSH4 0xFFFFFFFF AND DUP1 SWAP3 SWAP2 SWAP1 PUSH2 0x2F28 SWAP1 PUSH2 0x3757 JUMP JUMPDEST SWAP2 SWAP1 PUSH2 0x100 EXP DUP2 SLOAD DUP2 PUSH4 0xFFFFFFFF MUL NOT AND SWAP1 DUP4 PUSH4 0xFFFFFFFF AND MUL OR SWAP1 SSTORE POP POP PUSH1 0x6 PUSH0 ADD PUSH1 0x15 SWAP1 SLOAD SWAP1 PUSH2 0x100 EXP SWAP1 DIV PUSH4 0xFFFFFFFF AND PUSH4 0xFFFFFFFF AND PUSH1 0x6 PUSH0 ADD PUSH0 SWAP1 SLOAD SWAP1 PUSH2 0x100 EXP SWAP1 DIV PUSH20 0xFFFFFFFFFFFFFFFFFFFFFFFFFFFFFFFFFFFFFFFF AND PUSH20 0xFFFFFFFFFFFFFFFFFFFFFFFFFFFFFFFFFFFFFFFF AND PUSH32 0x5E86008A8467D1EFCCFE6CB6BD49BA7278D6AF2745A1E6994E443322A4237093 PUSH1 0x40 MLOAD PUSH1 0x40 MLOAD DUP1 SWAP2 SUB SWAP1 LOG3 PUSH2 0x300A JUMP JUMPDEST DUP1 PUSH1 0x40 MLOAD PUSH32 0x84DBC6CB00000000000000000000000000000000000000000000000000000000 DUP2 MSTORE PUSH1 0x4 ADD PUSH2 0x3001 SWAP2 SWAP1 PUSH2 0x33E9 JUMP JUMPDEST PUSH1 0x40 MLOAD DUP1 SWAP2 SUB SWAP1 REVERT JUMPDEST POP JUMP JUMPDEST PUSH2 0x3015 PUSH2 0x1486 JUMP JUMPDEST PUSH20 0xFFFFFFFFFFFFFFFFFFFFFFFFFFFFFFFFFFFFFFFF AND CALLER PUSH20 0xFFFFFFFFFFFFFFFFFFFFFFFFFFFFFFFFFFFFFFFF AND EQ DUP1 ISZERO PUSH2 0x3054 JUMPI POP PUSH2 0x3052 PUSH2 0x14B0 JUMP JUMPDEST ISZERO JUMPDEST PUSH2 0x3093 JUMPI PUSH1 0x40 MLOAD PUSH32 0x8C379A000000000000000000000000000000000000000000000000000000000 DUP2 MSTORE PUSH1 0x4 ADD PUSH2 0x308A SWAP1 PUSH2 0x367E JUMP JUMPDEST PUSH1 0x40 MLOAD DUP1 SWAP2 SUB SWAP1 REVERT JUMPDEST PUSH2 0x309C DUP2 PUSH2 0x30BE JUMP JUMPDEST POP JUMP JUMPDEST DUP1 PUSH1 0x4 PUSH0 ADD PUSH1 0x14 PUSH2 0x100 EXP DUP2 SLOAD DUP2 PUSH1 0xFF MUL NOT AND SWAP1 DUP4 ISZERO ISZERO MUL OR SWAP1 SSTORE POP POP JUMP JUMPDEST DUP1 PUSH1 0x5 PUSH0 ADD PUSH1 0x14 PUSH2 0x100 EXP DUP2 SLOAD DUP2 PUSH1 0xFF MUL NOT AND SWAP1 DUP4 ISZERO ISZERO MUL OR SWAP1 SSTORE POP POP JUMP JUMPDEST DUP1 PUSH1 0x7 PUSH0 ADD PUSH0 PUSH2 0x100 EXP DUP2 SLOAD DUP2 PUSH20 0xFFFFFFFFFFFFFFFFFFFFFFFFFFFFFFFFFFFFFFFF MUL NOT AND SWAP1 DUP4 PUSH20 0xFFFFFFFFFFFFFFFFFFFFFFFFFFFFFFFFFFFFFFFF AND MUL OR SWAP1 SSTORE POP PUSH1 0x7 PUSH0 ADD PUSH1 0x15 DUP2 DUP2 SWAP1 SLOAD SWAP1 PUSH2 0x100 EXP SWAP1 DIV PUSH4 0xFFFFFFFF AND DUP1 SWAP3 SWAP2 SWAP1 PUSH2 0x3143 SWAP1 PUSH2 0x3757 JUMP JUMPDEST SWAP2 SWAP1 PUSH2 0x100 EXP DUP2 SLOAD DUP2 PUSH4 0xFFFFFFFF MUL NOT AND SWAP1 DUP4 PUSH4 0xFFFFFFFF AND MUL OR SWAP1 SSTORE POP POP PUSH1 0x7 PUSH0 ADD PUSH1 0x15 SWAP1 SLOAD SWAP1 PUSH2 0x100 EXP SWAP1 DIV PUSH4 0xFFFFFFFF AND PUSH4 0xFFFFFFFF AND PUSH1 0x7 PUSH0 ADD PUSH0 SWAP1 SLOAD SWAP1 PUSH2 0x100 EXP SWAP1 DIV PUSH20 0xFFFFFFFFFFFFFFFFFFFFFFFFFFFFFFFFFFFFFFFF AND PUSH20 0xFFFFFFFFFFFFFFFFFFFFFFFFFFFFFFFFFFFFFFFF AND PUSH32 0xB88EF4C2B55163ED88BCF28DADFEE0092169B7A9A712CEB09FF75E6D2D4BA63B PUSH1 0x40 MLOAD PUSH1 0x40 MLOAD DUP1 SWAP2 SUB SWAP1 LOG3 POP JUMP JUMPDEST PUSH0 DUP1 REVERT JUMPDEST PUSH0 PUSH20 0xFFFFFFFFFFFFFFFFFFFFFFFFFFFFFFFFFFFFFFFF DUP3 AND SWAP1 POP SWAP2 SWAP1 POP JUMP JUMPDEST PUSH0 PUSH2 0x3213 DUP3 PUSH2 0x31EA JUMP JUMPDEST SWAP1 POP SWAP2 SWAP1 POP JUMP JUMPDEST PUSH2 0x3223 DUP2 PUSH2 0x3209 JUMP JUMPDEST DUP2 EQ PUSH2 0x322D JUMPI PUSH0 DUP1 REVERT JUMPDEST POP JUMP JUMPDEST PUSH0 DUP2 CALLDATALOAD SWAP1 POP PUSH2 0x323E DUP2 PUSH2 0x321A JUMP JUMPDEST SWAP3 SWAP2 POP POP JUMP JUMPDEST PUSH0 PUSH1 0x20 DUP3 DUP5 SUB SLT ISZERO PUSH2 0x3259 JUMPI PUSH2 0x3258 PUSH2 0x31E6 JUMP JUMPDEST JUMPDEST PUSH0 PUSH2 0x3266 DUP5 DUP3 DUP6 ADD PUSH2 0x3230 JUMP JUMPDEST SWAP2 POP POP SWAP3 SWAP2 POP POP JUMP JUMPDEST PUSH0 PUSH6 0xFFFFFFFFFFFF DUP3 AND SWAP1 POP SWAP2 SWAP1 POP JUMP JUMPDEST PUSH2 0x3289 DUP2 PUSH2 0x326F JUMP JUMPDEST DUP2 EQ PUSH2 0x3293 JUMPI PUSH0 DUP1 REVERT JUMPDEST POP JUMP JUMPDEST PUSH0 DUP2 CALLDATALOAD SWAP1 POP PUSH2 0x32A4 DUP2 PUSH2 0x3280 JUMP JUMPDEST SWAP3 SWAP2 POP POP JUMP JUMPDEST PUSH0 PUSH1 0x20 DUP3 DUP5 SUB SLT ISZERO PUSH2 0x32BF JUMPI PUSH2 0x32BE PUSH2 0x31E6 JUMP JUMPDEST JUMPDEST PUSH0 PUSH2 0x32CC DUP5 DUP3 DUP6 ADD PUSH2 0x3296 JUMP JUMPDEST SWAP2 POP POP SWAP3 SWAP2 POP POP JUMP JUMPDEST PUSH2 0x32DE DUP2 PUSH2 0x326F JUMP JUMPDEST DUP3 MSTORE POP POP JUMP JUMPDEST PUSH0 PUSH1 0x20 DUP3 ADD SWAP1 POP PUSH2 0x32F7 PUSH0 DUP4 ADD DUP5 PUSH2 0x32D5 JUMP JUMPDEST SWAP3 SWAP2 POP POP JUMP JUMPDEST PUSH0 PUSH4 0xFFFFFFFF DUP3 AND SWAP1 POP SWAP2 SWAP1 POP JUMP JUMPDEST PUSH2 0x3315 DUP2 PUSH2 0x32FD JUMP JUMPDEST DUP2 EQ PUSH2 0x331F JUMPI PUSH0 DUP1 REVERT JUMPDEST POP JUMP JUMPDEST PUSH0 DUP2 CALLDATALOAD SWAP1 POP PUSH2 0x3330 DUP2 PUSH2 0x330C JUMP JUMPDEST SWAP3 SWAP2 POP POP JUMP JUMPDEST PUSH0 DUP2 SWAP1 POP SWAP2 SWAP1 POP JUMP JUMPDEST PUSH2 0x3348 DUP2 PUSH2 0x3336 JUMP JUMPDEST DUP2 EQ PUSH2 0x3352 JUMPI PUSH0 DUP1 REVERT JUMPDEST POP JUMP JUMPDEST PUSH0 DUP2 CALLDATALOAD SWAP1 POP PUSH2 0x3363 DUP2 PUSH2 0x333F JUMP JUMPDEST SWAP3 SWAP2 POP POP JUMP JUMPDEST PUSH0 DUP1 PUSH1 0x40 DUP4 DUP6 SUB SLT ISZERO PUSH2 0x337F JUMPI PUSH2 0x337E PUSH2 0x31E6 JUMP JUMPDEST JUMPDEST PUSH0 PUSH2 0x338C DUP6 DUP3 DUP7 ADD PUSH2 0x3322 JUMP JUMPDEST SWAP3 POP POP PUSH1 0x20 PUSH2 0x339D DUP6 DUP3 DUP7 ADD PUSH2 0x3355 JUMP JUMPDEST SWAP2 POP POP SWAP3 POP SWAP3 SWAP1 POP JUMP JUMPDEST PUSH0 DUP2 ISZERO ISZERO SWAP1 POP SWAP2 SWAP1 POP JUMP JUMPDEST PUSH2 0x33BB DUP2 PUSH2 0x33A7 JUMP JUMPDEST DUP3 MSTORE POP POP JUMP JUMPDEST PUSH0 PUSH1 0x20 DUP3 ADD SWAP1 POP PUSH2 0x33D4 PUSH0 DUP4 ADD DUP5 PUSH2 0x33B2 JUMP JUMPDEST SWAP3 SWAP2 POP POP JUMP JUMPDEST PUSH2 0x33E3 DUP2 PUSH2 0x3209 JUMP JUMPDEST DUP3 MSTORE POP POP JUMP JUMPDEST PUSH0 PUSH1 0x20 DUP3 ADD SWAP1 POP PUSH2 0x33FC PUSH0 DUP4 ADD DUP5 PUSH2 0x33DA JUMP JUMPDEST SWAP3 SWAP2 POP POP JUMP JUMPDEST PUSH0 DUP1 PUSH1 0x40 DUP4 DUP6 SUB SLT ISZERO PUSH2 0x3418 JUMPI PUSH2 0x3417 PUSH2 0x31E6 JUMP JUMPDEST JUMPDEST PUSH0 PUSH2 0x3425 DUP6 DUP3 DUP7 ADD PUSH2 0x3230 JUMP JUMPDEST SWAP3 POP POP PUSH1 0x20 PUSH2 0x3436 DUP6 DUP3 DUP7 ADD PUSH2 0x3355 JUMP JUMPDEST SWAP2 POP POP SWAP3 POP SWAP3 SWAP1 POP JUMP JUMPDEST PUSH2 0x3449 DUP2 PUSH2 0x33A7 JUMP JUMPDEST DUP2 EQ PUSH2 0x3453 JUMPI PUSH0 DUP1 REVERT JUMPDEST POP JUMP JUMPDEST PUSH0 DUP2 CALLDATALOAD SWAP1 POP PUSH2 0x3464 DUP2 PUSH2 0x3440 JUMP JUMPDEST SWAP3 SWAP2 POP POP JUMP JUMPDEST PUSH0 DUP1 PUSH0 PUSH1 0x60 DUP5 DUP7 SUB SLT ISZERO PUSH2 0x3481 JUMPI PUSH2 0x3480 PUSH2 0x31E6 JUMP JUMPDEST JUMPDEST PUSH0 PUSH2 0x348E DUP7 DUP3 DUP8 ADD PUSH2 0x3456 JUMP JUMPDEST SWAP4 POP POP PUSH1 0x20 PUSH2 0x349F DUP7 DUP3 DUP8 ADD PUSH2 0x3322 JUMP JUMPDEST SWAP3 POP POP PUSH1 0x40 PUSH2 0x34B0 DUP7 DUP3 DUP8 ADD PUSH2 0x3355 JUMP JUMPDEST SWAP2 POP POP SWAP3 POP SWAP3 POP SWAP3 JUMP JUMPDEST PUSH0 DUP1 PUSH0 PUSH1 0x60 DUP5 DUP7 SUB SLT ISZERO PUSH2 0x34D1 JUMPI PUSH2 0x34D0 PUSH2 0x31E6 JUMP JUMPDEST JUMPDEST PUSH0 PUSH2 0x34DE DUP7 DUP3 DUP8 ADD PUSH2 0x3355 JUMP JUMPDEST SWAP4 POP POP PUSH1 0x20 PUSH2 0x34EF DUP7 DUP3 DUP8 ADD PUSH2 0x3355 JUMP JUMPDEST SWAP3 POP POP PUSH1 0x40 PUSH2 0x3500 DUP7 DUP3 DUP8 ADD PUSH2 0x3230 JUMP JUMPDEST SWAP2 POP POP SWAP3 POP SWAP3 POP SWAP3 JUMP JUMPDEST PUSH0 DUP1 PUSH1 0x40 DUP4 DUP6 SUB SLT ISZERO PUSH2 0x3520 JUMPI PUSH2 0x351F PUSH2 0x31E6 JUMP JUMPDEST JUMPDEST PUSH0 PUSH2 0x352D DUP6 DUP3 DUP7 ADD PUSH2 0x3355 JUMP JUMPDEST SWAP3 POP POP PUSH1 0x20 PUSH2 0x353E DUP6 DUP3 DUP7 ADD PUSH2 0x3355 JUMP JUMPDEST SWAP2 POP POP SWAP3 POP SWAP3 SWAP1 POP JUMP JUMPDEST PUSH0 PUSH1 0x20 DUP3 DUP5 SUB SLT ISZERO PUSH2 0x355D JUMPI PUSH2 0x355C PUSH2 0x31E6 JUMP JUMPDEST JUMPDEST PUSH0 PUSH2 0x356A DUP5 DUP3 DUP6 ADD PUSH2 0x3456 JUMP JUMPDEST SWAP2 POP POP SWAP3 SWAP2 POP POP JUMP JUMPDEST PUSH2 0x357C DUP2 PUSH2 0x32FD JUMP JUMPDEST DUP3 MSTORE POP POP JUMP JUMPDEST PUSH0 PUSH1 0x20 DUP3 ADD SWAP1 POP PUSH2 0x3595 PUSH0 DUP4 ADD DUP5 PUSH2 0x3573 JUMP JUMPDEST SWAP3 SWAP2 POP POP JUMP JUMPDEST PUSH0 DUP1 PUSH0 DUP1 PUSH0 DUP1 PUSH1 0xC0 DUP8 DUP10 SUB SLT ISZERO PUSH2 0x35B5 JUMPI PUSH2 0x35B4 PUSH2 0x31E6 JUMP JUMPDEST JUMPDEST PUSH0 PUSH2 0x35C2 DUP10 DUP3 DUP11 ADD PUSH2 0x3456 JUMP JUMPDEST SWAP7 POP POP PUSH1 0x20 PUSH2 0x35D3 DUP10 DUP3 DUP11 ADD PUSH2 0x3230 JUMP JUMPDEST SWAP6 POP POP PUSH1 0x40 PUSH2 0x35E4 DUP10 DUP3 DUP11 ADD PUSH2 0x3230 JUMP JUMPDEST SWAP5 POP POP PUSH1 0x60 PUSH2 0x35F5 DUP10 DUP3 DUP11 ADD PUSH2 0x3355 JUMP JUMPDEST SWAP4 POP POP PUSH1 0x80 PUSH2 0x3606 DUP10 DUP3 DUP11 ADD PUSH2 0x3322 JUMP JUMPDEST SWAP3 POP POP PUSH1 0xA0 PUSH2 0x3617 DUP10 DUP3 DUP11 ADD PUSH2 0x3296 JUMP JUMPDEST SWAP2 POP POP SWAP3 SWAP6 POP SWAP3 SWAP6 POP SWAP3 SWAP6 JUMP JUMPDEST PUSH0 DUP3 DUP3 MSTORE PUSH1 0x20 DUP3 ADD SWAP1 POP SWAP3 SWAP2 POP POP JUMP JUMPDEST PUSH32 0x416363657373206973206E6F742076616C696400000000000000000000000000 PUSH0 DUP3 ADD MSTORE POP JUMP JUMPDEST PUSH0 PUSH2 0x3668 PUSH1 0x13 DUP4 PUSH2 0x3624 JUMP JUMPDEST SWAP2 POP PUSH2 0x3673 DUP3 PUSH2 0x3634 JUMP JUMPDEST PUSH1 0x20 DUP3 ADD SWAP1 POP SWAP2 SWAP1 POP JUMP JUMPDEST PUSH0 PUSH1 0x20 DUP3 ADD SWAP1 POP DUP2 DUP2 SUB PUSH0 DUP4 ADD MSTORE PUSH2 0x3695 DUP2 PUSH2 0x365C JUMP JUMPDEST SWAP1 POP SWAP2 SWAP1 POP JUMP JUMPDEST PUSH32 0x54686520616D6F756E74206D757374206265206174206C65617374206F6E6520 PUSH0 DUP3 ADD MSTORE PUSH32 0x7965617200000000000000000000000000000000000000000000000000000000 PUSH1 0x20 DUP3 ADD MSTORE POP JUMP JUMPDEST PUSH0 PUSH2 0x36F6 PUSH1 0x24 DUP4 PUSH2 0x3624 JUMP JUMPDEST SWAP2 POP PUSH2 0x3701 DUP3 PUSH2 0x369C JUMP JUMPDEST PUSH1 0x40 DUP3 ADD SWAP1 POP SWAP2 SWAP1 POP JUMP JUMPDEST PUSH0 PUSH1 0x20 DUP3 ADD SWAP1 POP DUP2 DUP2 SUB PUSH0 DUP4 ADD MSTORE PUSH2 0x3723 DUP2 PUSH2 0x36EA JUMP JUMPDEST SWAP1 POP SWAP2 SWAP1 POP JUMP JUMPDEST PUSH32 0x4E487B7100000000000000000000000000000000000000000000000000000000 PUSH0 MSTORE PUSH1 0x11 PUSH1 0x4 MSTORE PUSH1 0x24 PUSH0 REVERT JUMPDEST PUSH0 PUSH2 0x3761 DUP3 PUSH2 0x32FD JUMP JUMPDEST SWAP2 POP PUSH4 0xFFFFFFFF DUP3 SUB PUSH2 0x3777 JUMPI PUSH2 0x3776 PUSH2 0x372A JUMP JUMPDEST JUMPDEST PUSH1 0x1 DUP3 ADD SWAP1 POP SWAP2 SWAP1 POP JUMP JUMPDEST PUSH32 0x546865207265717565737420697320696E76616C696400000000000000000000 PUSH0 DUP3 ADD MSTORE POP JUMP JUMPDEST PUSH0 PUSH2 0x37B6 PUSH1 0x16 DUP4 PUSH2 0x3624 JUMP JUMPDEST SWAP2 POP PUSH2 0x37C1 DUP3 PUSH2 0x3782 JUMP JUMPDEST PUSH1 0x20 DUP3 ADD SWAP1 POP SWAP2 SWAP1 POP JUMP JUMPDEST PUSH0 PUSH1 0x20 DUP3 ADD SWAP1 POP DUP2 DUP2 SUB PUSH0 DUP4 ADD MSTORE PUSH2 0x37E3 DUP2 PUSH2 0x37AA JUMP JUMPDEST SWAP1 POP SWAP2 SWAP1 POP JUMP JUMPDEST PUSH0 PUSH2 0x37F4 DUP3 PUSH2 0x326F JUMP JUMPDEST SWAP2 POP PUSH2 0x37FF DUP4 PUSH2 0x326F JUMP JUMPDEST SWAP3 POP DUP3 DUP3 SUB SWAP1 POP PUSH6 0xFFFFFFFFFFFF DUP2 GT ISZERO PUSH2 0x381D JUMPI PUSH2 0x381C PUSH2 0x372A JUMP JUMPDEST JUMPDEST SWAP3 SWAP2 POP POP JUMP JUMPDEST PUSH0 DUP2 SWAP1 POP SWAP2 SWAP1 POP JUMP JUMPDEST PUSH0 PUSH2 0x3836 DUP3 PUSH2 0x3823 JUMP JUMPDEST SWAP2 POP PUSH2 0x3841 DUP4 PUSH2 0x3823 JUMP JUMPDEST SWAP3 POP DUP3 DUP3 ADD SWAP1 POP DUP1 DUP3 GT ISZERO PUSH2 0x3859 JUMPI PUSH2 0x3858 PUSH2 0x372A JUMP JUMPDEST JUMPDEST SWAP3 SWAP2 POP POP JUMP JUMPDEST PUSH0 PUSH2 0x3869 DUP3 PUSH2 0x326F JUMP JUMPDEST SWAP2 POP PUSH2 0x3874 DUP4 PUSH2 0x326F JUMP JUMPDEST SWAP3 POP DUP3 DUP3 ADD SWAP1 POP PUSH6 0xFFFFFFFFFFFF DUP2 GT ISZERO PUSH2 0x3892 JUMPI PUSH2 0x3891 PUSH2 0x372A JUMP JUMPDEST JUMPDEST SWAP3 SWAP2 POP POP JUMP INVALID LOG2 PUSH5 0x6970667358 0x22 SLT KECCAK256 SWAP16 PUSH29 0xD0552F197733DA289D432B0FEDB8C1BD864098D4D921BAECD9F97A2D2 DELEGATECALL PUSH5 0x736F6C6343 STOP ADDMOD EQ STOP CALLER "
		},
		"gasEstimates": {
			"creation": {
				"codeDepositCost": "2908400",
				"executionCost": "infinite",
				"totalCost": "infinite"
			},
			"external": {
				"cancelPendingRepublicGAddress(address)": "infinite",
				"getAuthorityAddress()": "490",
				"getBaned(uint32,bytes32)": "3222",
				"getCMWitthCallerAddress(address,bytes32)": "infinite",
				"getConnectorMapping(bytes32,bytes32)": "infinite",
				"getDefaultPeriodTime()": "2519",
				"getGovernance()": "2566",
				"getPresidentAdd()": "2609",
				"getPresidentBan()": "2640",
				"getPrimeMinisterAdd()": "2610",
				"getPrimeMinisterBan()": "2573",
				"getRepublicAddress()": "infinite",
				"getRepublicGAddress()": "2588",
				"getgovernanceVersion()": "2640",
				"setBaned(bool,uint32,bytes32)": "infinite",
				"setCaller(bool,address,address,bytes32,uint32,uint48)": "infinite",
				"setConnectorMapping(bytes32,bytes32,address)": "infinite",
				"setDefaultPeriodTime(uint48)": "infinite",
				"setPendigPresident(address)": "infinite",
				"setPendingGovernanceContractAddress(address)": "infinite",
				"setPendingPrimeMinister(address)": "30404",
				"setPendingRepublicGAddress(address)": "infinite",
				"setPresidentBaned(bool)": "infinite",
				"setPrimeMinisterBaned(bool)": "29329",
				"transferCaller()": "142114",
				"transferGovernanceContractAddress(address)": "infinite",
				"transferPresident()": "107809",
				"transferPrimeMinister()": "109997",
				"transferRepublicGAddress(address)": "infinite"
			}
		},
		"methodIdentifiers": {
			"cancelPendingRepublicGAddress(address)": "4494acd9",
			"getAuthorityAddress()": "e47a9d46",
			"getBaned(uint32,bytes32)": "195a824c",
			"getCMWitthCallerAddress(address,bytes32)": "45b263a7",
			"getConnectorMapping(bytes32,bytes32)": "b2b3facb",
			"getDefaultPeriodTime()": "12967c81",
			"getGovernance()": "289b3c0d",
			"getPresidentAdd()": "66410997",
			"getPresidentBan()": "6cf106d7",
			"getPrimeMinisterAdd()": "a53da00b",
			"getPrimeMinisterBan()": "e4f3e947",
			"getRepublicAddress()": "c5a1c5c1",
			"getRepublicGAddress()": "37676f79",
			"getgovernanceVersion()": "c387b49c",
			"setBaned(bool,uint32,bytes32)": "863ad595",
			"setCaller(bool,address,address,bytes32,uint32,uint48)": "c92a788c",
			"setConnectorMapping(bytes32,bytes32,address)": "a9aa588b",
			"setDefaultPeriodTime(uint48)": "0dd5414d",
			"setPendigPresident(address)": "054203bd",
			"setPendingGovernanceContractAddress(address)": "ca4cce68",
			"setPendingPrimeMinister(address)": "544fa93e",
			"setPendingRepublicGAddress(address)": "861a179d",
			"setPresidentBaned(bool)": "b5c09c68",
			"setPrimeMinisterBaned(bool)": "f5f9cdd4",
			"transferCaller()": "e4f71773",
			"transferGovernanceContractAddress(address)": "ee7126c3",
			"transferPresident()": "0df4c390",
			"transferPrimeMinister()": "18074eee",
			"transferRepublicGAddress(address)": "1f86aa2a"
		}
	},
	"abi": [
		{
			"inputs": [],
			"name": "AccessOnlyForThePendig",
			"type": "error"
		},
		{
			"inputs": [
				{
					"internalType": "uint48",
					"name": "reminingTime",
					"type": "uint48"
				}
			],
			"name": "RemainingTimeUntilTheConfirmationDeadline",
			"type": "error"
		},
		{
			"inputs": [
				{
					"internalType": "address",
					"name": "addContract",
					"type": "address"
				}
			],
			"name": "TheAddressIsInvalid",
			"type": "error"
		},
		{
			"inputs": [
				{
					"internalType": "address",
					"name": "NewGCAddress",
					"type": "address"
				}
			],
			"name": "TheAddressIsNotValidForGC",
			"type": "error"
		},
		{
			"inputs": [
				{
					"internalType": "address",
					"name": "newRGAddress",
					"type": "address"
				}
			],
			"name": "TheAddressIsNotValidForRAddress",
			"type": "error"
		},
		{
			"anonymous": false,
			"inputs": [
				{
					"indexed": true,
					"internalType": "bytes32",
					"name": "contractTypeName",
					"type": "bytes32"
				},
				{
					"indexed": true,
					"internalType": "bytes32",
					"name": "peopleName_satrap",
					"type": "bytes32"
				},
				{
					"indexed": true,
					"internalType": "address",
					"name": "addContract",
					"type": "address"
				}
			],
			"name": "AddressConnectedToConnector",
			"type": "event"
		},
		{
			"anonymous": false,
			"inputs": [
				{
					"indexed": true,
					"internalType": "address",
					"name": "newCaller",
					"type": "address"
				},
				{
					"indexed": true,
					"internalType": "bytes32",
					"name": "peopleName_satrap",
					"type": "bytes32"
				},
				{
					"indexed": true,
					"internalType": "uint32",
					"name": "roleId",
					"type": "uint32"
				}
			],
			"name": "AnOfficialWasConfirmed",
			"type": "event"
		},
		{
			"anonymous": false,
			"inputs": [
				{
					"indexed": true,
					"internalType": "address",
					"name": "newCaller",
					"type": "address"
				},
				{
					"indexed": true,
					"internalType": "bytes32",
					"name": "peopleName_satrap",
					"type": "bytes32"
				},
				{
					"indexed": true,
					"internalType": "uint32",
					"name": "roleId",
					"type": "uint32"
				}
			],
			"name": "AnOfficialWasElected",
			"type": "event"
		},
		{
			"anonymous": false,
			"inputs": [
				{
					"indexed": false,
					"internalType": "bool",
					"name": "baned",
					"type": "bool"
				},
				{
					"indexed": true,
					"internalType": "uint32",
					"name": "roleId",
					"type": "uint32"
				},
				{
					"indexed": true,
					"internalType": "bytes32",
					"name": "peopleName_satrap",
					"type": "bytes32"
				}
			],
			"name": "ChangeBanedOfThisRole",
			"type": "event"
		},
		{
			"anonymous": false,
			"inputs": [
				{
					"indexed": true,
					"internalType": "uint48",
					"name": "newPeriodTime",
					"type": "uint48"
				}
			],
			"name": "NewValueForTheDefaultTimePeriod",
			"type": "event"
		},
		{
			"anonymous": false,
			"inputs": [
				{
					"indexed": true,
					"internalType": "address",
					"name": "GCAddress",
					"type": "address"
				},
				{
					"indexed": true,
					"internalType": "uint32",
					"name": "version",
					"type": "uint32"
				}
			],
			"name": "TheNewGCAddressWasConfirmed",
			"type": "event"
		},
		{
			"anonymous": false,
			"inputs": [
				{
					"indexed": true,
					"internalType": "address",
					"name": "presidentAdd",
					"type": "address"
				},
				{
					"indexed": true,
					"internalType": "uint32",
					"name": "nonce",
					"type": "uint32"
				}
			],
			"name": "TheNewPresidentWasConfirmed",
			"type": "event"
		},
		{
			"anonymous": false,
			"inputs": [
				{
					"indexed": true,
					"internalType": "address",
					"name": "primeMinisterAdd",
					"type": "address"
				},
				{
					"indexed": true,
					"internalType": "uint32",
					"name": "nonce",
					"type": "uint32"
				}
			],
			"name": "TheNewPrimeMinisterWasConfirmed",
			"type": "event"
		},
		{
			"anonymous": false,
			"inputs": [
				{
					"indexed": true,
					"internalType": "address",
					"name": "RepublicGAddress",
					"type": "address"
				},
				{
					"indexed": true,
					"internalType": "uint32",
					"name": "version",
					"type": "uint32"
				}
			],
			"name": "TheNewRepublicGAddressWasConfirmed",
			"type": "event"
		},
		{
			"anonymous": false,
			"inputs": [
				{
					"indexed": true,
					"internalType": "address",
					"name": "newGCAddress",
					"type": "address"
				}
			],
			"name": "TheNextGCAddressWasElected",
			"type": "event"
		},
		{
			"anonymous": false,
			"inputs": [
				{
					"indexed": true,
					"internalType": "address",
					"name": "newPresidentAdd",
					"type": "address"
				}
			],
			"name": "TheNextPresidentWasElected",
			"type": "event"
		},
		{
			"anonymous": false,
			"inputs": [
				{
					"indexed": true,
					"internalType": "address",
					"name": "newPrimeMinister",
					"type": "address"
				}
			],
			"name": "TheNextPrimeMinisterWasElected",
			"type": "event"
		},
		{
			"anonymous": false,
			"inputs": [
				{
					"indexed": true,
					"internalType": "address",
					"name": "PRGAddress",
					"type": "address"
				}
			],
			"name": "TheNextRepublicGAddressWasCancelled",
			"type": "event"
		},
		{
			"anonymous": false,
			"inputs": [
				{
					"indexed": true,
					"internalType": "address",
					"name": "newRepublicGAddress",
					"type": "address"
				}
			],
			"name": "TheNextRepublicGAddressWasElected",
			"type": "event"
		},
		{
			"anonymous": false,
			"inputs": [
				{
					"indexed": true,
					"internalType": "bool",
					"name": "baned",
					"type": "bool"
				},
				{
					"indexed": true,
					"internalType": "bool",
					"name": "done",
					"type": "bool"
				}
			],
			"name": "TheStatusOfBanningAllActivitiesAndDone",
			"type": "event"
		},
		{
			"inputs": [
				{
					"internalType": "address",
					"name": "PRGAdress",
					"type": "address"
				}
			],
			"name": "cancelPendingRepublicGAddress",
			"outputs": [],
			"stateMutability": "nonpayable",
			"type": "function"
		},
		{
			"inputs": [],
			"name": "getAuthorityAddress",
			"outputs": [
				{
					"internalType": "address",
					"name": "",
					"type": "address"
				}
			],
			"stateMutability": "view",
			"type": "function"
		},
		{
			"inputs": [
				{
					"internalType": "uint32",
					"name": "roleId",
					"type": "uint32"
				},
				{
					"internalType": "bytes32",
					"name": "peopleName_satrap",
					"type": "bytes32"
				}
			],
			"name": "getBaned",
			"outputs": [
				{
					"internalType": "bool",
					"name": "",
					"type": "bool"
				}
			],
			"stateMutability": "view",
			"type": "function"
		},
		{
			"inputs": [
				{
					"internalType": "address",
					"name": "caller",
					"type": "address"
				},
				{
					"internalType": "bytes32",
					"name": "contractTypeName",
					"type": "bytes32"
				}
			],
			"name": "getCMWitthCallerAddress",
			"outputs": [
				{
					"internalType": "address",
					"name": "",
					"type": "address"
				}
			],
			"stateMutability": "view",
			"type": "function"
		},
		{
			"inputs": [
				{
					"internalType": "bytes32",
					"name": "contractTypeName",
					"type": "bytes32"
				},
				{
					"internalType": "bytes32",
					"name": "peopleName_satrap",
					"type": "bytes32"
				}
			],
			"name": "getConnectorMapping",
			"outputs": [
				{
					"internalType": "address",
					"name": "",
					"type": "address"
				}
			],
			"stateMutability": "view",
			"type": "function"
		},
		{
			"inputs": [],
			"name": "getDefaultPeriodTime",
			"outputs": [
				{
					"internalType": "uint48",
					"name": "",
					"type": "uint48"
				}
			],
			"stateMutability": "view",
			"type": "function"
		},
		{
			"inputs": [],
			"name": "getGovernance",
			"outputs": [
				{
					"internalType": "address",
					"name": "",
					"type": "address"
				}
			],
			"stateMutability": "view",
			"type": "function"
		},
		{
			"inputs": [],
			"name": "getPresidentAdd",
			"outputs": [
				{
					"internalType": "address",
					"name": "",
					"type": "address"
				}
			],
			"stateMutability": "view",
			"type": "function"
		},
		{
			"inputs": [],
			"name": "getPresidentBan",
			"outputs": [
				{
					"internalType": "bool",
					"name": "",
					"type": "bool"
				}
			],
			"stateMutability": "view",
			"type": "function"
		},
		{
			"inputs": [],
			"name": "getPrimeMinisterAdd",
			"outputs": [
				{
					"internalType": "address",
					"name": "",
					"type": "address"
				}
			],
			"stateMutability": "view",
			"type": "function"
		},
		{
			"inputs": [],
			"name": "getPrimeMinisterBan",
			"outputs": [
				{
					"internalType": "bool",
					"name": "",
					"type": "bool"
				}
			],
			"stateMutability": "view",
			"type": "function"
		},
		{
			"inputs": [],
			"name": "getRepublicAddress",
			"outputs": [
				{
					"internalType": "address",
					"name": "R",
					"type": "address"
				}
			],
			"stateMutability": "view",
			"type": "function"
		},
		{
			"inputs": [],
			"name": "getRepublicGAddress",
			"outputs": [
				{
					"internalType": "address",
					"name": "RG",
					"type": "address"
				}
			],
			"stateMutability": "view",
			"type": "function"
		},
		{
			"inputs": [],
			"name": "getgovernanceVersion",
			"outputs": [
				{
					"internalType": "uint32",
					"name": "",
					"type": "uint32"
				}
			],
			"stateMutability": "view",
			"type": "function"
		},
		{
			"inputs": [
				{
					"internalType": "bool",
					"name": "baned",
					"type": "bool"
				},
				{
					"internalType": "uint32",
					"name": "roleId",
					"type": "uint32"
				},
				{
					"internalType": "bytes32",
					"name": "peopleName_satrap",
					"type": "bytes32"
				}
			],
			"name": "setBaned",
			"outputs": [],
			"stateMutability": "nonpayable",
			"type": "function"
		},
		{
			"inputs": [
				{
					"internalType": "bool",
					"name": "deletedOldCaller",
					"type": "bool"
				},
				{
					"internalType": "address",
					"name": "oldCaller",
					"type": "address"
				},
				{
					"internalType": "address",
					"name": "newCaller",
					"type": "address"
				},
				{
					"internalType": "bytes32",
					"name": "peopleName_satrap",
					"type": "bytes32"
				},
				{
					"internalType": "uint32",
					"name": "roleId",
					"type": "uint32"
				},
				{
					"internalType": "uint48",
					"name": "periodTime",
					"type": "uint48"
				}
			],
			"name": "setCaller",
			"outputs": [],
			"stateMutability": "nonpayable",
			"type": "function"
		},
		{
			"inputs": [
				{
					"internalType": "bytes32",
					"name": "contractTypeName",
					"type": "bytes32"
				},
				{
					"internalType": "bytes32",
					"name": "peopleName_satrap",
					"type": "bytes32"
				},
				{
					"internalType": "address",
					"name": "addContract",
					"type": "address"
				}
			],
			"name": "setConnectorMapping",
			"outputs": [],
			"stateMutability": "nonpayable",
			"type": "function"
		},
		{
			"inputs": [
				{
					"internalType": "uint48",
					"name": "newPeriodTime",
					"type": "uint48"
				}
			],
			"name": "setDefaultPeriodTime",
			"outputs": [],
			"stateMutability": "nonpayable",
			"type": "function"
		},
		{
			"inputs": [
				{
					"internalType": "address",
					"name": "newPresident",
					"type": "address"
				}
			],
			"name": "setPendigPresident",
			"outputs": [],
			"stateMutability": "nonpayable",
			"type": "function"
		},
		{
			"inputs": [
				{
					"internalType": "address",
					"name": "newGCAddress",
					"type": "address"
				}
			],
			"name": "setPendingGovernanceContractAddress",
			"outputs": [],
			"stateMutability": "nonpayable",
			"type": "function"
		},
		{
			"inputs": [
				{
					"internalType": "address",
					"name": "newPM",
					"type": "address"
				}
			],
			"name": "setPendingPrimeMinister",
			"outputs": [],
			"stateMutability": "nonpayable",
			"type": "function"
		},
		{
			"inputs": [
				{
					"internalType": "address",
					"name": "newRGAddress",
					"type": "address"
				}
			],
			"name": "setPendingRepublicGAddress",
			"outputs": [],
			"stateMutability": "nonpayable",
			"type": "function"
		},
		{
			"inputs": [
				{
					"internalType": "bool",
					"name": "baned",
					"type": "bool"
				}
			],
			"name": "setPresidentBaned",
			"outputs": [],
			"stateMutability": "nonpayable",
			"type": "function"
		},
		{
			"inputs": [
				{
					"internalType": "bool",
					"name": "baned",
					"type": "bool"
				}
			],
			"name": "setPrimeMinisterBaned",
			"outputs": [],
			"stateMutability": "nonpayable",
			"type": "function"
		},
		{
			"inputs": [],
			"name": "transferCaller",
			"outputs": [],
			"stateMutability": "nonpayable",
			"type": "function"
		},
		{
			"inputs": [
				{
					"internalType": "address",
					"name": "pendingGCAdd",
					"type": "address"
				}
			],
			"name": "transferGovernanceContractAddress",
			"outputs": [],
			"stateMutability": "nonpayable",
			"type": "function"
		},
		{
			"inputs": [],
			"name": "transferPresident",
			"outputs": [],
			"stateMutability": "nonpayable",
			"type": "function"
		},
		{
			"inputs": [],
			"name": "transferPrimeMinister",
			"outputs": [],
			"stateMutability": "nonpayable",
			"type": "function"
		},
		{
			"inputs": [
				{
					"internalType": "address",
					"name": "RGAddress",
					"type": "address"
				}
			],
			"name": "transferRepublicGAddress",
			"outputs": [],
			"stateMutability": "nonpayable",
			"type": "function"
		}
	]
}