{
	"data": {
		"bytecode": {
			"linkReferences": {},
			"object": "61018060405262015180600a5f6101000a81548163ffffffff021916908363ffffffff16021790555062015180600a60046101000a81548163ffffffff021916908363ffffffff16021790555062093a80600a60086101000a81548163ffffffff021916908363ffffffff1602179055503480156200007c575f80fd5b506040516200500b3803806200500b8339818101604052810190620000a2919062000512565b80620000b36200022c60201b60201c565b620000c85f836200026960201b90919060201c565b6101208181525050620000e66001826200026960201b90919060201c565b6101408181525050818051906020012060e08181525050808051906020012061010081815250504660a0818152505062000125620002be60201b60201c565b608081815250503073ffffffffffffffffffffffffffffffffffffffff1660c08173ffffffffffffffffffffffffffffffffffffffff168152505050506316a8c8004262000174919062000597565b65ffffffffffff166101608165ffffffffffff16815250503360055f015f6101000a81548173ffffffffffffffffffffffffffffffffffffffff021916908373ffffffffffffffffffffffffffffffffffffffff16021790555060055f01601581819054906101000a900463ffffffff1680929190620001f490620005e0565b91906101000a81548163ffffffff021916908363ffffffff1602179055505080600990816200022491906200083e565b505062000afb565b60606040518060400160405280600181526020017f3100000000000000000000000000000000000000000000000000000000000000815250905090565b5f6020835110156200028e5762000286836200031a60201b60201c565b9050620002b8565b82620002a0836200038460201b60201c565b5f019081620002b091906200083e565b5060ff5f1b90505b92915050565b5f7f8b73c3c69bb8fe3d512ecc4cf759cc79239f7b179b0ffacaa9a75d522b39400f60e051610100514630604051602001620002ff95949392919062000990565b60405160208183030381529060405280519060200120905090565b5f80829050601f815111156200036957826040517f305a27a900000000000000000000000000000000000000000000000000000000815260040162000360919062000a3b565b60405180910390fd5b805181620003779062000a8c565b5f1c175f1b915050919050565b5f819050919050565b5f604051905090565b5f80fd5b5f80fd5b5f80fd5b5f80fd5b5f601f19601f8301169050919050565b7f4e487b71000000000000000000000000000000000000000000000000000000005f52604160045260245ffd5b620003ee82620003a6565b810181811067ffffffffffffffff8211171562000410576200040f620003b6565b5b80604052505050565b5f620004246200038d565b9050620004328282620003e3565b919050565b5f67ffffffffffffffff821115620004545762000453620003b6565b5b6200045f82620003a6565b9050602081019050919050565b5f5b838110156200048b5780820151818401526020810190506200046e565b5f8484015250505050565b5f620004ac620004a68462000437565b62000419565b905082815260208101848484011115620004cb57620004ca620003a2565b5b620004d88482856200046c565b509392505050565b5f82601f830112620004f757620004f66200039e565b5b81516200050984826020860162000496565b91505092915050565b5f602082840312156200052a576200052962000396565b5b5f82015167ffffffffffffffff8111156200054a57620005496200039a565b5b6200055884828501620004e0565b91505092915050565b5f819050919050565b7f4e487b71000000000000000000000000000000000000000000000000000000005f52601160045260245ffd5b5f620005a38262000561565b9150620005b08362000561565b9250828201905080821115620005cb57620005ca6200056a565b5b92915050565b5f63ffffffff82169050919050565b5f620005ec82620005d1565b915063ffffffff82036200060557620006046200056a565b5b600182019050919050565b5f81519050919050565b7f4e487b71000000000000000000000000000000000000000000000000000000005f52602260045260245ffd5b5f60028204905060018216806200065f57607f821691505b6020821081036200067557620006746200061a565b5b50919050565b5f819050815f5260205f209050919050565b5f6020601f8301049050919050565b5f82821b905092915050565b5f60088302620006d97fffffffffffffffffffffffffffffffffffffffffffffffffffffffffffffffff826200069c565b620006e586836200069c565b95508019841693508086168417925050509392505050565b5f819050919050565b5f62000726620007206200071a8462000561565b620006fd565b62000561565b9050919050565b5f819050919050565b620007418362000706565b6200075962000750826200072d565b848454620006a8565b825550505050565b5f90565b6200076f62000761565b6200077c81848462000736565b505050565b5b81811015620007a357620007975f8262000765565b60018101905062000782565b5050565b601f821115620007f257620007bc816200067b565b620007c7846200068d565b81016020851015620007d7578190505b620007ef620007e6856200068d565b83018262000781565b50505b505050565b5f82821c905092915050565b5f620008145f1984600802620007f7565b1980831691505092915050565b5f6200082e838362000803565b9150826002028217905092915050565b620008498262000610565b67ffffffffffffffff811115620008655762000864620003b6565b5b62000871825462000647565b6200087e828285620007a7565b5f60209050601f831160018114620008b4575f84156200089f578287015190505b620008ab858262000821565b8655506200091a565b601f198416620008c4866200067b565b5f5b82811015620008ed57848901518255600182019150602085019450602081019050620008c6565b868310156200090d578489015162000909601f89168262000803565b8355505b6001600288020188555050505b505050505050565b5f819050919050565b620009368162000922565b82525050565b620009478162000561565b82525050565b5f73ffffffffffffffffffffffffffffffffffffffff82169050919050565b5f62000978826200094d565b9050919050565b6200098a816200096c565b82525050565b5f60a082019050620009a55f8301886200092b565b620009b460208301876200092b565b620009c360408301866200092b565b620009d260608301856200093c565b620009e160808301846200097f565b9695505050505050565b5f82825260208201905092915050565b5f62000a078262000610565b62000a138185620009eb565b935062000a258185602086016200046c565b62000a3081620003a6565b840191505092915050565b5f6020820190508181035f83015262000a558184620009fb565b905092915050565b5f81519050919050565b5f819050602082019050919050565b5f62000a83825162000922565b80915050919050565b5f62000a988262000a5d565b8262000aa48462000a67565b905062000ab18162000a76565b9250602082101562000af45762000aef7fffffffffffffffffffffffffffffffffffffffffffffffffffffffffffffffff836020036008026200069c565b831692505b5050919050565b60805160a05160c05160e051610100516101205161014051610160516144a062000b6b5f395f8181610547015281816109660152818161100901528181611a5801528181611d49015261256f01525f612be401525f612ba901525f50505f50505f50505f50505f50506144a05ff3fe608060405234801561000f575f80fd5b50600436106101c2575f3560e01c8063667d639b116100f7578063c387b49c11610095578063ca4cce681161006f578063ca4cce68146104be578063e35b31b7146104da578063e47a9d461461050a578063ee7126c314610528576101c2565b8063c387b49c14610452578063c5a1c5c114610470578063c8021c2e1461048e576101c2565b806385488408116100d157806385488408146103e257806388aa4c12146103fe5780639c20fe711461041a578063b5c09c6814610436576101c2565b8063667d639b146103845780636cf106d7146103a057806384b0196e146103be576101c2565b80633a8512b41161016457806352e305de1161013e57806352e305de1461030e57806354fd4d501461032a5780635dad85c2146103485780636641099714610366576101c2565b80633a8512b4146102a45780633e4f49e6146102c05780634bf5d7e9146102f0576101c2565b80631f72783a116101a05780631f72783a1461020a578063289b3c0d1461022657806331d133c2146102445780633610feb314610274576101c2565b8063054203bd146101c657806306fdde03146101e25780630df4c39014610200575b5f80fd5b6101e060048036038101906101db9190612fe0565b610544565b005b6101ea6106fb565b6040516101f79190613095565b60405180910390f35b61020861078b565b005b610224600480360381019061021f9190612fe0565b610963565b005b61022e610c13565b60405161023b91906130c4565b60405180910390f35b61025e6004803603810190610259919061326f565b610c3d565b60405161026b91906132fe565b60405180910390f35b61028e60048036038101906102899190612fe0565b610c77565b60405161029b9190613331565b60405180910390f35b6102be60048036038101906102b9919061334a565b610c7d565b005b6102da60048036038101906102d59190613388565b610cfc565b6040516102e79190613426565b60405180910390f35b6102f8610fc9565b6040516103059190613095565b60405180910390f35b61032860048036038101906103239190612fe0565b611006565b005b61033261124e565b60405161033f9190613095565b60405180910390f35b61035061128b565b60405161035d91906132fe565b60405180910390f35b61036e611292565b60405161037b91906130c4565b60405180910390f35b61039e60048036038101906103999190613478565b6112bc565b005b6103a8611479565b6040516103b59190613331565b60405180910390f35b6103c6611491565b6040516103d997969594939291906135b6565b60405180910390f35b6103fc60048036038101906103f7919061326f565b611536565b005b6104186004803603810190610413919061326f565b611787565b005b610434600480360381019061042f9190612fe0565b611a55565b005b610450600480360381019061044b9190613662565b611d46565b005b61045a611e83565b604051610467919061369c565b60405180910390f35b610478611e9e565b60405161048591906130c4565b60405180910390f35b6104a860048036038101906104a391906136b5565b611ec8565b6040516104b591906132fe565b60405180910390f35b6104d860048036038101906104d39190612fe0565b61256c565b005b6104f460048036038101906104ef919061376e565b612784565b6040516105019190613331565b60405180910390f35b61051261278c565b60405161051f91906130c4565b60405180910390f35b610542600480360381019061053d9190612fe0565b612793565b005b427f000000000000000000000000000000000000000000000000000000000000000065ffffffffffff1610156105ee5761057c611e9e565b73ffffffffffffffffffffffffffffffffffffffff163373ffffffffffffffffffffffffffffffffffffffff16146105e9576040517f08c379a00000000000000000000000000000000000000000000000000000000081526004016105e090613808565b60405180910390fd5b610675565b6105f6611292565b73ffffffffffffffffffffffffffffffffffffffff163373ffffffffffffffffffffffffffffffffffffffff161480156106355750610633611479565b155b610674576040517f08c379a000000000000000000000000000000000000000000000000000000000815260040161066b90613808565b60405180910390fd5b5b8060045f6101000a81548173ffffffffffffffffffffffffffffffffffffffff021916908373ffffffffffffffffffffffffffffffffffffffff1602179055508073ffffffffffffffffffffffffffffffffffffffff167f3553f1f7ef0242113266a8d183b621bb87468c99237f36b1150b6ab3d688b68660405160405180910390a250565b60606009805461070a90613853565b80601f016020809104026020016040519081016040528092919081815260200182805461073690613853565b80156107815780601f1061075857610100808354040283529160200191610781565b820191905f5260205f20905b81548152906001019060200180831161076457829003601f168201915b5050505050905090565b3373ffffffffffffffffffffffffffffffffffffffff1660045f9054906101000a900473ffffffffffffffffffffffffffffffffffffffff1673ffffffffffffffffffffffffffffffffffffffff160361092f5760045f6101000a81549073ffffffffffffffffffffffffffffffffffffffff02191690553360055f015f6101000a81548173ffffffffffffffffffffffffffffffffffffffff021916908373ffffffffffffffffffffffffffffffffffffffff16021790555060055f01601581819054906101000a900463ffffffff1680929190610869906138b0565b91906101000a81548163ffffffff021916908363ffffffff1602179055505060055f0160149054906101000a900460ff16156108a9576108a85f6129dc565b5b60055f0160159054906101000a900463ffffffff1663ffffffff1660055f015f9054906101000a900473ffffffffffffffffffffffffffffffffffffffff1673ffffffffffffffffffffffffffffffffffffffff167f05ad9b3688012cd825c1bfb941e4f5afb2558af6af3deaddf01dbb5e85abdaf960405160405180910390a3610961565b6040517fb513955100000000000000000000000000000000000000000000000000000000815260040160405180910390fd5b565b427f000000000000000000000000000000000000000000000000000000000000000065ffffffffffff161015610a0d5761099b611e9e565b73ffffffffffffffffffffffffffffffffffffffff163373ffffffffffffffffffffffffffffffffffffffff1614610a08576040517f08c379a00000000000000000000000000000000000000000000000000000000081526004016109ff90613808565b60405180910390fd5b610a94565b610a15611292565b73ffffffffffffffffffffffffffffffffffffffff163373ffffffffffffffffffffffffffffffffffffffff16148015610a545750610a52611479565b155b610a93576040517f08c379a0000000000000000000000000000000000000000000000000000000008152600401610a8a90613808565b60405180910390fd5b5b5f8173ffffffffffffffffffffffffffffffffffffffff163b1115610bd3573373ffffffffffffffffffffffffffffffffffffffff1660055f015f9054906101000a900473ffffffffffffffffffffffffffffffffffffffff1673ffffffffffffffffffffffffffffffffffffffff1603610b1757610b12816129fb565b610bce565b6213c68042610b2691906138db565b600460146101000a81548165ffffffffffff021916908365ffffffffffff1602179055508060025f6101000a81548173ffffffffffffffffffffffffffffffffffffffff021916908373ffffffffffffffffffffffffffffffffffffffff1602179055508073ffffffffffffffffffffffffffffffffffffffff167f675b770e821ba4aad20be77c58f912d689226272e805637f42f838a6035eed8660405160405180910390a25b610c10565b806040517fc6322315000000000000000000000000000000000000000000000000000000008152600401610c0791906130c4565b60405180910390fd5b50565b5f60065f015f9054906101000a900473ffffffffffffffffffffffffffffffffffffffff16905090565b5f84848484604051602001610c559493929190613960565b604051602081830303815290604052805190602001205f1c9050949350505050565b5f919050565b8060085f8473ffffffffffffffffffffffffffffffffffffffff1673ffffffffffffffffffffffffffffffffffffffff1681526020019081526020015f205f6101000a81548173ffffffffffffffffffffffffffffffffffffffff021916908373ffffffffffffffffffffffffffffffffffffffff1602179055505050565b5f8060085f3373ffffffffffffffffffffffffffffffffffffffff1673ffffffffffffffffffffffffffffffffffffffff1681526020019081526020015f205f9054906101000a900473ffffffffffffffffffffffffffffffffffffffff1690505f8173ffffffffffffffffffffffffffffffffffffffff1663013cf08b856040518263ffffffff1660e01b8152600401610d9791906132fe565b61014060405180830381865afa158015610db3573d5f803e3d5ffd5b505050506040513d601f19601f82011682018060405250810190610dd79190613b4f565b90508060c0015115610dee57600592505050610fc4565b8060e0015115610e0357600292505050610fc4565b80610120015115610e1957600392505050610fc4565b80610100015115610e2f57600492505050610fc4565b5f816080015165ffffffffffff1690505f8103610e8357846040517f6ad06075000000000000000000000000000000000000000000000000000000008152600401610e7a91906132fe565b60405180910390fd5b5f429050818111610e9a575f945050505050610fc4565b5f836020015190505f8190505f8173ffffffffffffffffffffffffffffffffffffffff16635f8d96de6040518163ffffffff1660e01b8152600401602060405180830381865afa158015610ef0573d5f803e3d5ffd5b505050506040513d601f19601f82011682018060405250810190610f149190613b8f565b9050808411610f2d576001975050505050505050610fc4565b5f610f3787612b04565b90505f816005811115610f4d57610f4c6133b3565b5b90508873ffffffffffffffffffffffffffffffffffffffff16631e9608a8828d6040518363ffffffff1660e01b8152600401610f8a929190613bba565b5f604051808303815f87803b158015610fa1575f80fd5b505af1158015610fb3573d5f803e3d5ffd5b505050508199505050505050505050505b919050565b60606040518060400160405280600a81526020017f54696d65207374616d7000000000000000000000000000000000000000000000815250905090565b427f000000000000000000000000000000000000000000000000000000000000000065ffffffffffff1610156110b05761103e611e9e565b73ffffffffffffffffffffffffffffffffffffffff163373ffffffffffffffffffffffffffffffffffffffff16146110ab576040517f08c379a00000000000000000000000000000000000000000000000000000000081526004016110a290613808565b60405180910390fd5b611137565b6110b8611292565b73ffffffffffffffffffffffffffffffffffffffff163373ffffffffffffffffffffffffffffffffffffffff161480156110f757506110f5611479565b155b611136576040517f08c379a000000000000000000000000000000000000000000000000000000000815260040161112d90613808565b60405180910390fd5b5b8073ffffffffffffffffffffffffffffffffffffffff1660025f9054906101000a900473ffffffffffffffffffffffffffffffffffffffff1673ffffffffffffffffffffffffffffffffffffffff160361120e57600460146101000a81549065ffffffffffff021916905560025f6101000a81549073ffffffffffffffffffffffffffffffffffffffff02191690558073ffffffffffffffffffffffffffffffffffffffff167ff299f61c7e493f99b20cb36c587ca903d085d5206bfe4452d295711e372da02960405160405180910390a261124b565b806040517fc632231500000000000000000000000000000000000000000000000000000000815260040161124291906130c4565b60405180910390fd5b50565b60606040518060400160405280600181526020017f3100000000000000000000000000000000000000000000000000000000000000815250905090565b5f42905090565b5f60055f015f9054906101000a900473ffffffffffffffffffffffffffffffffffffffff16905090565b5f816040516020016112ce9190613c01565b6040516020818303038152906040528051906020012090505f839050816040516020016112fa90613c6f565b604051602081830303815290604052805190602001200361136d5780600a5f6101000a81548163ffffffff021916908363ffffffff1602179055508063ffffffff167fceccf714bc39bde68a069ae4149980bd5382cb4e6723fbdb6e7723728e4885ce60405160405180910390a2611473565b8160405160200161137d90613ccd565b60405160208183030381529060405280519060200120036113f15780600a60046101000a81548163ffffffff021916908363ffffffff1602179055508063ffffffff167fdf149c5d5960b920ba24706165b5dcb67e2ac13ec5c3aa0909fa229bdd328d9760405160405180910390a2611472565b8160405160200161140190613d2b565b60405160208183030381529060405280519060200120036114715780600a60086101000a81548163ffffffff021916908363ffffffff1602179055508063ffffffff167fc6213165f7e768a76a2092906d1174e3b00c99567acc7e4211898fae0ae2c33c60405160405180910390a25b5b5b50505050565b5f60055f0160149054906101000a900460ff16905090565b5f6060805f805f60606114a2612ba1565b6114aa612bdb565b46305f801b5f67ffffffffffffffff8111156114c9576114c8613118565b5b6040519080825280602002602001820160405280156114f75781602001602082028036833780820191505090505b507f0f00000000000000000000000000000000000000000000000000000000000000959493929190965096509650965096509650965090919293949596565b5f61154385858585610c3d565b90505f60085f3373ffffffffffffffffffffffffffffffffffffffff1673ffffffffffffffffffffffffffffffffffffffff1681526020019081526020015f205f9054906101000a900473ffffffffffffffffffffffffffffffffffffffff1690505f73ffffffffffffffffffffffffffffffffffffffff168173ffffffffffffffffffffffffffffffffffffffff1614611742575f6115e283610cfc565b90506005808111156115f7576115f66133b3565b5b81600581111561160a576116096133b3565b5b148061163a575060026005811115611625576116246133b3565b5b816005811115611638576116376133b3565b5b145b1561167c57826040517fdf7fe1cd00000000000000000000000000000000000000000000000000000000815260040161167391906132fe565b60405180910390fd5b5f8290505f8173ffffffffffffffffffffffffffffffffffffffff1663013cf08b866040518263ffffffff1660e01b81526004016116ba91906132fe565b61014060405180830381865afa1580156116d6573d5f803e3d5ffd5b505050506040513d601f19601f820116820180604052508101906116fa9190613b4f565b905060018160e0019015159081151581525050847f789cf55be980739dad1d0699b93b58e806b51c9d96619bfa8fe0a28abaa7b30c60405160405180910390a250505061177f565b336040517fda75b54a00000000000000000000000000000000000000000000000000000000815260040161177691906130c4565b60405180910390fd5b505050505050565b3373ffffffffffffffffffffffffffffffffffffffff168473ffffffffffffffffffffffffffffffffffffffff1603611a12575f6117c785858585610c3d565b90505f6117d382610cfc565b9050600460058111156117e9576117e86133b3565b5b8160058111156117fc576117fb6133b3565b5b03611970575f60085f3373ffffffffffffffffffffffffffffffffffffffff1673ffffffffffffffffffffffffffffffffffffffff1681526020019081526020015f205f9054906101000a900473ffffffffffffffffffffffffffffffffffffffff1690508073ffffffffffffffffffffffffffffffffffffffff16631e9608a86005856040518363ffffffff1660e01b815260040161189d929190613d81565b5f604051808303815f87803b1580156118b4575f80fd5b505af11580156118c6573d5f803e3d5ffd5b505050508260085f3373ffffffffffffffffffffffffffffffffffffffff1673ffffffffffffffffffffffffffffffffffffffff1681526020019081526020015f205f9054906101000a900473ffffffffffffffffffffffffffffffffffffffff1673ffffffffffffffffffffffffffffffffffffffff167f63d1cc08aaae6e4c1e85034d4067073ea84d1113b6281a146a76156a7b3a9a3160405160405180910390a350611a0b565b60085f3373ffffffffffffffffffffffffffffffffffffffff1673ffffffffffffffffffffffffffffffffffffffff1681526020019081526020015f205f9054906101000a900473ffffffffffffffffffffffffffffffffffffffff16826040517f5f1e5ab6000000000000000000000000000000000000000000000000000000008152600401611a02929190613da8565b60405180910390fd5b5050611a4f565b336040517fda75b54a000000000000000000000000000000000000000000000000000000008152600401611a4691906130c4565b60405180910390fd5b50505050565b427f000000000000000000000000000000000000000000000000000000000000000065ffffffffffff161015611aff57611a8d611e9e565b73ffffffffffffffffffffffffffffffffffffffff163373ffffffffffffffffffffffffffffffffffffffff1614611afa576040517f08c379a0000000000000000000000000000000000000000000000000000000008152600401611af190613808565b60405180910390fd5b611b86565b611b07611292565b73ffffffffffffffffffffffffffffffffffffffff163373ffffffffffffffffffffffffffffffffffffffff16148015611b465750611b44611479565b155b611b85576040517f08c379a0000000000000000000000000000000000000000000000000000000008152600401611b7c90613808565b60405180910390fd5b5b42600460149054906101000a900465ffffffffffff1665ffffffffffff161015611ce7575f600460149054906101000a900465ffffffffffff1665ffffffffffff1603611c08576040517f08c379a0000000000000000000000000000000000000000000000000000000008152600401611bff90613e19565b60405180910390fd5b8073ffffffffffffffffffffffffffffffffffffffff1660025f9054906101000a900473ffffffffffffffffffffffffffffffffffffffff1673ffffffffffffffffffffffffffffffffffffffff1603611ca557600460146101000a81549065ffffffffffff021916905560025f6101000a81549073ffffffffffffffffffffffffffffffffffffffff0219169055611ca0816129fb565b611ce2565b806040517fc6322315000000000000000000000000000000000000000000000000000000008152600401611cd991906130c4565b60405180910390fd5b611d43565b42600460149054906101000a900465ffffffffffff16611d079190613e37565b6040517f223a6cbb000000000000000000000000000000000000000000000000000000008152600401611d3a9190613e7f565b60405180910390fd5b50565b427f000000000000000000000000000000000000000000000000000000000000000065ffffffffffff161015611df057611d7e611e9e565b73ffffffffffffffffffffffffffffffffffffffff163373ffffffffffffffffffffffffffffffffffffffff1614611deb576040517f08c379a0000000000000000000000000000000000000000000000000000000008152600401611de290613808565b60405180910390fd5b611e77565b611df8611292565b73ffffffffffffffffffffffffffffffffffffffff163373ffffffffffffffffffffffffffffffffffffffff16148015611e375750611e35611479565b155b611e76576040517f08c379a0000000000000000000000000000000000000000000000000000000008152600401611e6d90613808565b60405180910390fd5b5b611e80816129dc565b50565b5f60065f0160159054906101000a900463ffffffff16905090565b5f60075f015f9054906101000a900473ffffffffffffffffffffffffffffffffffffffff16905090565b5f3373ffffffffffffffffffffffffffffffffffffffff168473ffffffffffffffffffffffffffffffffffffffff1614611f37576040517f08c379a0000000000000000000000000000000000000000000000000000000008152600401611f2e90613ee2565b60405180910390fd5b5f60085f8673ffffffffffffffffffffffffffffffffffffffff1673ffffffffffffffffffffffffffffffffffffffff1681526020019081526020015f205f9054906101000a900473ffffffffffffffffffffffffffffffffffffffff1690505f8390508073ffffffffffffffffffffffffffffffffffffffff1663ec5bf07b6040518163ffffffff1660e01b8152600401602060405180830381865afa158015611fe4573d5f803e3d5ffd5b505050506040513d601f19601f820116820180604052508101906120089190613b8f565b92505f8273ffffffffffffffffffffffffffffffffffffffff1663013cf08b856040518263ffffffff1660e01b815260040161204491906132fe565b61014060405180830381865afa158015612060573d5f803e3d5ffd5b505050506040513d601f19601f820116820180604052508101906120849190613b4f565b90505f816080015165ffffffffffff16146120d657836040517f4ace25250000000000000000000000000000000000000000000000000000000081526004016120cd91906132fe565b60405180910390fd5b5f8273ffffffffffffffffffffffffffffffffffffffff1663bc33c7d76040518163ffffffff1660e01b81526004015f60405180830381865afa15801561211f573d5f803e3d5ffd5b505050506040513d5f823e3d601f19601f820116820180604052508101906121479190613fb2565b93505050503073ffffffffffffffffffffffffffffffffffffffff168173ffffffffffffffffffffffffffffffffffffffff16146121bc57806040517f4e5c69dd0000000000000000000000000000000000000000000000000000000081526004016121b391906130c4565b60405180910390fd5b5f805f8573ffffffffffffffffffffffffffffffffffffffff16634731ca2b6040518163ffffffff1660e01b8152600401606060405180830381865afa158015612208573d5f803e3d5ffd5b505050506040513d601f19601f8201168201806040525081019061222c919061404e565b9250925092508273ffffffffffffffffffffffffffffffffffffffff168b73ffffffffffffffffffffffffffffffffffffffff1614158061229957508173ffffffffffffffffffffffffffffffffffffffff168a73ffffffffffffffffffffffffffffffffffffffff1614155b806122a45750808c14155b156122ea578282826040517fcb57cbf90000000000000000000000000000000000000000000000000000000081526004016122e19392919061409e565b60405180910390fd5b5f805f808973ffffffffffffffffffffffffffffffffffffffff1663b3a052466040518163ffffffff1660e01b8152600401608060405180830381865afa158015612337573d5f803e3d5ffd5b505050506040513d601f19601f8201168201806040525081019061235b91906140d3565b935093509350935061236c84612c16565b6123ad57836040517f95ff727f0000000000000000000000000000000000000000000000000000000081526004016123a49190614146565b60405180910390fd5b600a5f9054906101000a900463ffffffff1663ffffffff168363ffffffff1610806124025750600a60089054906101000a900463ffffffff1663ffffffff16426123f791906138db565b8265ffffffffffff16105b8061242c5750600a60049054906101000a900463ffffffff1663ffffffff168165ffffffffffff16105b15612472578282826040517f5b93d0dc0000000000000000000000000000000000000000000000000000000081526004016124699392919061415f565b60405180910390fd5b5f8d90508073ffffffffffffffffffffffffffffffffffffffff167f0ab14f904fb707b2337015c668e6429ca3170390b1c36260d7739566b9c822a560405160405180910390a28b73ffffffffffffffffffffffffffffffffffffffff16634a9c7caa8e878787878d886040518863ffffffff1660e01b81526004016124fe9796959493929190614194565b5f604051808303815f87803b158015612515575f80fd5b505af1158015612527573d5f803e3d5ffd5b505050508c7fabf79943a752fab9ef8890892a82188e44e66a2cd2d8e411ae3ef82475ae49c860405160405180910390a2505050505050505050505050949350505050565b427f000000000000000000000000000000000000000000000000000000000000000065ffffffffffff161015612616576125a4611e9e565b73ffffffffffffffffffffffffffffffffffffffff163373ffffffffffffffffffffffffffffffffffffffff1614612611576040517f08c379a000000000000000000000000000000000000000000000000000000000815260040161260890613808565b60405180910390fd5b61269d565b61261e611292565b73ffffffffffffffffffffffffffffffffffffffff163373ffffffffffffffffffffffffffffffffffffffff1614801561265d575061265b611479565b155b61269c576040517f08c379a000000000000000000000000000000000000000000000000000000000815260040161269390613808565b60405180910390fd5b5b5f8173ffffffffffffffffffffffffffffffffffffffff163b1115612744578060035f6101000a81548173ffffffffffffffffffffffffffffffffffffffff021916908373ffffffffffffffffffffffffffffffffffffffff1602179055508073ffffffffffffffffffffffffffffffffffffffff167fe8d8e3c7c3ebec0c177d0fe22d223f8b5071db39155104808d45027e368ba77a60405160405180910390a2612781565b806040517f84dbc6cb00000000000000000000000000000000000000000000000000000000815260040161277891906130c4565b60405180910390fd5b50565b5f9392505050565b5f30905090565b61279b611292565b73ffffffffffffffffffffffffffffffffffffffff163373ffffffffffffffffffffffffffffffffffffffff161480156127da57506127d8611479565b155b612819576040517f08c379a000000000000000000000000000000000000000000000000000000000815260040161281090613808565b60405180910390fd5b8073ffffffffffffffffffffffffffffffffffffffff1660035f9054906101000a900473ffffffffffffffffffffffffffffffffffffffff1673ffffffffffffffffffffffffffffffffffffffff160361299c5760035f6101000a81549073ffffffffffffffffffffffffffffffffffffffff02191690558060065f015f6101000a81548173ffffffffffffffffffffffffffffffffffffffff021916908373ffffffffffffffffffffffffffffffffffffffff16021790555060065f01601581819054906101000a900463ffffffff16809291906128f7906138b0565b91906101000a81548163ffffffff021916908363ffffffff1602179055505060065f0160159054906101000a900463ffffffff1663ffffffff1660065f015f9054906101000a900473ffffffffffffffffffffffffffffffffffffffff1673ffffffffffffffffffffffffffffffffffffffff167f5e86008a8467d1efccfe6cb6bd49ba7278d6af2745a1e6994e443322a423709360405160405180910390a36129d9565b806040517f84dbc6cb0000000000000000000000000000000000000000000000000000000081526004016129d091906130c4565b60405180910390fd5b50565b8060055f0160146101000a81548160ff02191690831515021790555050565b8060075f015f6101000a81548173ffffffffffffffffffffffffffffffffffffffff021916908373ffffffffffffffffffffffffffffffffffffffff16021790555060075f01601581819054906101000a900463ffffffff1680929190612a61906138b0565b91906101000a81548163ffffffff021916908363ffffffff1602179055505060075f0160159054906101000a900463ffffffff1663ffffffff1660075f015f9054906101000a900473ffffffffffffffffffffffffffffffffffffffff1673ffffffffffffffffffffffffffffffffffffffff167ff7f7c26682668c39fd8c6dbca125bd9466e743b9e38acc3240867c139cd93c3060405160405180910390a350565b5f80826020015190505f8190505f8173ffffffffffffffffffffffffffffffffffffffff1663cfb62dee6040518163ffffffff1660e01b81526004016020604051808303815f875af1158015612b5c573d5f803e3d5ffd5b505050506040513d601f19601f82011682018060405250810190612b809190614201565b90508015612b945760049350505050612b9c565b600393505050505b919050565b6060612bd65f7f0000000000000000000000000000000000000000000000000000000000000000612e0890919063ffffffff16565b905090565b6060612c1160017f0000000000000000000000000000000000000000000000000000000000000000612e0890919063ffffffff16565b905090565b5f8060085f3373ffffffffffffffffffffffffffffffffffffffff1673ffffffffffffffffffffffffffffffffffffffff1681526020019081526020015f205f9054906101000a900473ffffffffffffffffffffffffffffffffffffffff1690505f8173ffffffffffffffffffffffffffffffffffffffff1663c34fe7036040518163ffffffff1660e01b8152600401612caf90614252565b61962060405180830381865afa158015612ccb573d5f803e3d5ffd5b505050506040513d601f19601f82011682018060405250810190612cef919061431c565b90505f4290505f624f1a0082612d059190614348565b90505f80600190505b6104b08161ffff1611612d9b575f858261ffff166104b18110612d3457612d3361437b565b5b602002015165ffffffffffff160315612d9b57848161ffff166104b18110612d5f57612d5e61437b565b5b602002015165ffffffffffff168365ffffffffffff161015612d885781612d85906143a8565b91505b8080612d93906143a8565b915050612d0e565b600281612da891906143fe565b61ffff168861ffff161115612dc65760019650505050505050612e03565b60466064838a612dd691906143fe565b612de0919061442e565b61ffff161115612df95760019650505050505050612e03565b5f96505050505050505b919050565b606060ff5f1b8314612e2457612e1d83612eb5565b9050612eaf565b818054612e3090613853565b80601f0160208091040260200160405190810160405280929190818152602001828054612e5c90613853565b8015612ea75780601f10612e7e57610100808354040283529160200191612ea7565b820191905f5260205f20905b815481529060010190602001808311612e8a57829003601f168201915b505050505090505b92915050565b60605f612ec183612f27565b90505f602067ffffffffffffffff811115612edf57612ede613118565b5b6040519080825280601f01601f191660200182016040528015612f115781602001600182028036833780820191505090505b5090508181528360208201528092505050919050565b5f8060ff835f1c169050601f811115612f6c576040517fb3512b0c00000000000000000000000000000000000000000000000000000000815260040160405180910390fd5b80915050919050565b5f604051905090565b5f80fd5b5f80fd5b5f73ffffffffffffffffffffffffffffffffffffffff82169050919050565b5f612faf82612f86565b9050919050565b612fbf81612fa5565b8114612fc9575f80fd5b50565b5f81359050612fda81612fb6565b92915050565b5f60208284031215612ff557612ff4612f7e565b5b5f61300284828501612fcc565b91505092915050565b5f81519050919050565b5f82825260208201905092915050565b5f5b83811015613042578082015181840152602081019050613027565b5f8484015250505050565b5f601f19601f8301169050919050565b5f6130678261300b565b6130718185613015565b9350613081818560208601613025565b61308a8161304d565b840191505092915050565b5f6020820190508181035f8301526130ad818461305d565b905092915050565b6130be81612fa5565b82525050565b5f6020820190506130d75f8301846130b5565b92915050565b5f819050919050565b6130ef816130dd565b81146130f9575f80fd5b50565b5f8135905061310a816130e6565b92915050565b5f80fd5b5f80fd5b7f4e487b71000000000000000000000000000000000000000000000000000000005f52604160045260245ffd5b61314e8261304d565b810181811067ffffffffffffffff8211171561316d5761316c613118565b5b80604052505050565b5f61317f612f75565b905061318b8282613145565b919050565b5f67ffffffffffffffff8211156131aa576131a9613118565b5b6131b38261304d565b9050602081019050919050565b828183375f83830152505050565b5f6131e06131db84613190565b613176565b9050828152602081018484840111156131fc576131fb613114565b5b6132078482856131c0565b509392505050565b5f82601f83011261322357613222613110565b5b81356132338482602086016131ce565b91505092915050565b5f819050919050565b61324e8161323c565b8114613258575f80fd5b50565b5f8135905061326981613245565b92915050565b5f805f806080858703121561328757613286612f7e565b5b5f61329487828801612fcc565b94505060206132a5878288016130fc565b935050604085013567ffffffffffffffff8111156132c6576132c5612f82565b5b6132d28782880161320f565b92505060606132e38782880161325b565b91505092959194509250565b6132f8816130dd565b82525050565b5f6020820190506133115f8301846132ef565b92915050565b5f8115159050919050565b61332b81613317565b82525050565b5f6020820190506133445f830184613322565b92915050565b5f80604083850312156133605761335f612f7e565b5b5f61336d85828601612fcc565b925050602061337e85828601612fcc565b9150509250929050565b5f6020828403121561339d5761339c612f7e565b5b5f6133aa848285016130fc565b91505092915050565b7f4e487b71000000000000000000000000000000000000000000000000000000005f52602160045260245ffd5b600681106133f1576133f06133b3565b5b50565b5f819050613401826133e0565b919050565b5f613410826133f4565b9050919050565b61342081613406565b82525050565b5f6020820190506134395f830184613417565b92915050565b5f63ffffffff82169050919050565b6134578161343f565b8114613461575f80fd5b50565b5f813590506134728161344e565b92915050565b5f806040838503121561348e5761348d612f7e565b5b5f61349b85828601613464565b92505060206134ac8582860161325b565b9150509250929050565b5f7fff0000000000000000000000000000000000000000000000000000000000000082169050919050565b6134ea816134b6565b82525050565b6134f98161323c565b82525050565b5f81519050919050565b5f82825260208201905092915050565b5f819050602082019050919050565b613531816130dd565b82525050565b5f6135428383613528565b60208301905092915050565b5f602082019050919050565b5f613564826134ff565b61356e8185613509565b935061357983613519565b805f5b838110156135a95781516135908882613537565b975061359b8361354e565b92505060018101905061357c565b5085935050505092915050565b5f60e0820190506135c95f83018a6134e1565b81810360208301526135db818961305d565b905081810360408301526135ef818861305d565b90506135fe60608301876132ef565b61360b60808301866130b5565b61361860a08301856134f0565b81810360c083015261362a818461355a565b905098975050505050505050565b61364181613317565b811461364b575f80fd5b50565b5f8135905061365c81613638565b92915050565b5f6020828403121561367757613676612f7e565b5b5f6136848482850161364e565b91505092915050565b6136968161343f565b82525050565b5f6020820190506136af5f83018461368d565b92915050565b5f805f80608085870312156136cd576136cc612f7e565b5b5f6136da878288016130fc565b94505060206136eb87828801612fcc565b93505060406136fc87828801612fcc565b925050606061370d87828801612fcc565b91505092959194509250565b5f7fffffffff0000000000000000000000000000000000000000000000000000000082169050919050565b61374d81613719565b8114613757575f80fd5b50565b5f8135905061376881613744565b92915050565b5f805f6060848603121561378557613784612f7e565b5b5f61379286828701612fcc565b93505060206137a386828701612fcc565b92505060406137b48682870161375a565b9150509250925092565b7f416363657373206973206e6f742076616c6964000000000000000000000000005f82015250565b5f6137f2601383613015565b91506137fd826137be565b602082019050919050565b5f6020820190508181035f83015261381f816137e6565b9050919050565b7f4e487b71000000000000000000000000000000000000000000000000000000005f52602260045260245ffd5b5f600282049050600182168061386a57607f821691505b60208210810361387d5761387c613826565b5b50919050565b7f4e487b71000000000000000000000000000000000000000000000000000000005f52601160045260245ffd5b5f6138ba8261343f565b915063ffffffff82036138d0576138cf613883565b5b600182019050919050565b5f6138e5826130dd565b91506138f0836130dd565b925082820190508082111561390857613907613883565b5b92915050565b5f81519050919050565b5f82825260208201905092915050565b5f6139328261390e565b61393c8185613918565b935061394c818560208601613025565b6139558161304d565b840191505092915050565b5f6080820190506139735f8301876130b5565b61398060208301866132ef565b81810360408301526139928185613928565b90506139a160608301846134f0565b95945050505050565b5f80fd5b5f815190506139bc81612fb6565b92915050565b5f61ffff82169050919050565b6139d8816139c2565b81146139e2575f80fd5b50565b5f815190506139f3816139cf565b92915050565b5f81519050613a078161344e565b92915050565b5f65ffffffffffff82169050919050565b613a2781613a0d565b8114613a31575f80fd5b50565b5f81519050613a4281613a1e565b92915050565b5f81519050613a5681613638565b92915050565b5f6101408284031215613a7257613a716139aa565b5b613a7d610140613176565b90505f613a8c848285016139ae565b5f830152506020613a9f848285016139ae565b6020830152506040613ab3848285016139e5565b6040830152506060613ac7848285016139f9565b6060830152506080613adb84828501613a34565b60808301525060a0613aef84828501613a34565b60a08301525060c0613b0384828501613a48565b60c08301525060e0613b1784828501613a48565b60e083015250610100613b2c84828501613a48565b61010083015250610120613b4284828501613a48565b6101208301525092915050565b5f6101408284031215613b6557613b64612f7e565b5b5f613b7284828501613a5c565b91505092915050565b5f81519050613b89816130e6565b92915050565b5f60208284031215613ba457613ba3612f7e565b5b5f613bb184828501613b7b565b91505092915050565b5f604082019050613bcd5f8301856132ef565b613bda60208301846132ef565b9392505050565b5f819050919050565b613bfb613bf68261323c565b613be1565b82525050565b5f613c0c8284613bea565b60208201915081905092915050565b5f81905092915050565b7f5f766f74654475726174696f6e000000000000000000000000000000000000005f82015250565b5f613c59600d83613c1b565b9150613c6482613c25565b600d82019050919050565b5f613c7982613c4d565b9150819050919050565b7f5f6574615365636f6e64730000000000000000000000000000000000000000005f82015250565b5f613cb7600b83613c1b565b9150613cc282613c83565b600b82019050919050565b5f613cd782613cab565b9150819050919050565b7f5f766f746564656c6179000000000000000000000000000000000000000000005f82015250565b5f613d15600a83613c1b565b9150613d2082613ce1565b600a82019050919050565b5f613d3582613d09565b9150819050919050565b5f819050919050565b5f819050919050565b5f613d6b613d66613d6184613d3f565b613d48565b6130dd565b9050919050565b613d7b81613d51565b82525050565b5f604082019050613d945f830185613d72565b613da160208301846132ef565b9392505050565b5f604082019050613dbb5f8301856130b5565b613dc860208301846132ef565b9392505050565b7f546865207265717565737420697320696e76616c6964000000000000000000005f82015250565b5f613e03601683613015565b9150613e0e82613dcf565b602082019050919050565b5f6020820190508181035f830152613e3081613df7565b9050919050565b5f613e4182613a0d565b9150613e4c83613a0d565b9250828203905065ffffffffffff811115613e6a57613e69613883565b5b92915050565b613e7981613a0d565b82525050565b5f602082019050613e925f830184613e70565b92915050565b7f696e76616c6964206163636573730000000000000000000000000000000000005f82015250565b5f613ecc600e83613015565b9150613ed782613e98565b602082019050919050565b5f6020820190508181035f830152613ef981613ec0565b9050919050565b5f67ffffffffffffffff821115613f1a57613f19613118565b5b613f238261304d565b9050602081019050919050565b5f613f42613f3d84613f00565b613176565b905082815260208101848484011115613f5e57613f5d613114565b5b613f69848285613025565b509392505050565b5f82601f830112613f8557613f84613110565b5b8151613f95848260208601613f30565b91505092915050565b5f81519050613fac81613245565b92915050565b5f805f8060808587031215613fca57613fc9612f7e565b5b5f85015167ffffffffffffffff811115613fe757613fe6612f82565b5b613ff387828801613f71565b945050602085015167ffffffffffffffff81111561401457614013612f82565b5b61402087828801613f71565b935050604061403187828801613f9e565b9250506060614042878288016139ae565b91505092959194509250565b5f805f6060848603121561406557614064612f7e565b5b5f614072868287016139ae565b9350506020614083868287016139ae565b925050604061409486828701613b7b565b9150509250925092565b5f6060820190506140b15f8301866130b5565b6140be60208301856130b5565b6140cb60408301846132ef565b949350505050565b5f805f80608085870312156140eb576140ea612f7e565b5b5f6140f8878288016139e5565b9450506020614109878288016139f9565b935050604061411a87828801613a34565b925050606061412b87828801613a34565b91505092959194509250565b614140816139c2565b82525050565b5f6020820190506141595f830184614137565b92915050565b5f6060820190506141725f83018661368d565b61417f6020830185613e70565b61418c6040830184613e70565b949350505050565b5f60e0820190506141a75f83018a6132ef565b6141b46020830189614137565b6141c1604083018861368d565b6141ce6060830187613e70565b6141db6080830186613e70565b6141e860a08301856130b5565b6141f560c08301846130b5565b98975050505050505050565b5f6020828403121561421657614215612f7e565b5b5f61422384828501613a48565b91505092915050565b7f666f72416e790000000000000000000000000000000000000000000000000000815250565b5f6020820190506142645f830161422c565b919050565b5f67ffffffffffffffff82111561428357614282613118565b5b602082029050919050565b5f80fd5b5f6142a461429f84614269565b613176565b905080602084028301858111156142be576142bd61428e565b5b835b818110156142e757806142d38882613a34565b8452602084019350506020810190506142c0565b5050509392505050565b5f82601f83011261430557614304613110565b5b6104b1614313848285614292565b91505092915050565b5f619620828403121561433257614331612f7e565b5b5f61433f848285016142f1565b91505092915050565b5f614352826130dd565b915061435d836130dd565b925082820390508181111561437557614374613883565b5b92915050565b7f4e487b71000000000000000000000000000000000000000000000000000000005f52603260045260245ffd5b5f6143b2826139c2565b915061ffff82036143c6576143c5613883565b5b600182019050919050565b7f4e487b71000000000000000000000000000000000000000000000000000000005f52601260045260245ffd5b5f614408826139c2565b9150614413836139c2565b925082614423576144226143d1565b5b828204905092915050565b5f614438826139c2565b9150614443836139c2565b9250828202614451816139c2565b915080821461446357614462613883565b5b509291505056fea264697066735822122043aa43063fcb160a424a90f25ddb76e882d30ff4bad9bc3c6004efa282ec703c64736f6c63430008140033",
			"opcodes": "PUSH2 0x180 PUSH1 0x40 MSTORE PUSH3 0x15180 PUSH1 0xA PUSH0 PUSH2 0x100 EXP DUP2 SLOAD DUP2 PUSH4 0xFFFFFFFF MUL NOT AND SWAP1 DUP4 PUSH4 0xFFFFFFFF AND MUL OR SWAP1 SSTORE POP PUSH3 0x15180 PUSH1 0xA PUSH1 0x4 PUSH2 0x100 EXP DUP2 SLOAD DUP2 PUSH4 0xFFFFFFFF MUL NOT AND SWAP1 DUP4 PUSH4 0xFFFFFFFF AND MUL OR SWAP1 SSTORE POP PUSH3 0x93A80 PUSH1 0xA PUSH1 0x8 PUSH2 0x100 EXP DUP2 SLOAD DUP2 PUSH4 0xFFFFFFFF MUL NOT AND SWAP1 DUP4 PUSH4 0xFFFFFFFF AND MUL OR SWAP1 SSTORE POP CALLVALUE DUP1 ISZERO PUSH3 0x7C JUMPI PUSH0 DUP1 REVERT JUMPDEST POP PUSH1 0x40 MLOAD PUSH3 0x500B CODESIZE SUB DUP1 PUSH3 0x500B DUP4 CODECOPY DUP2 DUP2 ADD PUSH1 0x40 MSTORE DUP2 ADD SWAP1 PUSH3 0xA2 SWAP2 SWAP1 PUSH3 0x512 JUMP JUMPDEST DUP1 PUSH3 0xB3 PUSH3 0x22C PUSH1 0x20 SHL PUSH1 0x20 SHR JUMP JUMPDEST PUSH3 0xC8 PUSH0 DUP4 PUSH3 0x269 PUSH1 0x20 SHL SWAP1 SWAP2 SWAP1 PUSH1 0x20 SHR JUMP JUMPDEST PUSH2 0x120 DUP2 DUP2 MSTORE POP POP PUSH3 0xE6 PUSH1 0x1 DUP3 PUSH3 0x269 PUSH1 0x20 SHL SWAP1 SWAP2 SWAP1 PUSH1 0x20 SHR JUMP JUMPDEST PUSH2 0x140 DUP2 DUP2 MSTORE POP POP DUP2 DUP1 MLOAD SWAP1 PUSH1 0x20 ADD KECCAK256 PUSH1 0xE0 DUP2 DUP2 MSTORE POP POP DUP1 DUP1 MLOAD SWAP1 PUSH1 0x20 ADD KECCAK256 PUSH2 0x100 DUP2 DUP2 MSTORE POP POP CHAINID PUSH1 0xA0 DUP2 DUP2 MSTORE POP POP PUSH3 0x125 PUSH3 0x2BE PUSH1 0x20 SHL PUSH1 0x20 SHR JUMP JUMPDEST PUSH1 0x80 DUP2 DUP2 MSTORE POP POP ADDRESS PUSH20 0xFFFFFFFFFFFFFFFFFFFFFFFFFFFFFFFFFFFFFFFF AND PUSH1 0xC0 DUP2 PUSH20 0xFFFFFFFFFFFFFFFFFFFFFFFFFFFFFFFFFFFFFFFF AND DUP2 MSTORE POP POP POP POP PUSH4 0x16A8C800 TIMESTAMP PUSH3 0x174 SWAP2 SWAP1 PUSH3 0x597 JUMP JUMPDEST PUSH6 0xFFFFFFFFFFFF AND PUSH2 0x160 DUP2 PUSH6 0xFFFFFFFFFFFF AND DUP2 MSTORE POP POP CALLER PUSH1 0x5 PUSH0 ADD PUSH0 PUSH2 0x100 EXP DUP2 SLOAD DUP2 PUSH20 0xFFFFFFFFFFFFFFFFFFFFFFFFFFFFFFFFFFFFFFFF MUL NOT AND SWAP1 DUP4 PUSH20 0xFFFFFFFFFFFFFFFFFFFFFFFFFFFFFFFFFFFFFFFF AND MUL OR SWAP1 SSTORE POP PUSH1 0x5 PUSH0 ADD PUSH1 0x15 DUP2 DUP2 SWAP1 SLOAD SWAP1 PUSH2 0x100 EXP SWAP1 DIV PUSH4 0xFFFFFFFF AND DUP1 SWAP3 SWAP2 SWAP1 PUSH3 0x1F4 SWAP1 PUSH3 0x5E0 JUMP JUMPDEST SWAP2 SWAP1 PUSH2 0x100 EXP DUP2 SLOAD DUP2 PUSH4 0xFFFFFFFF MUL NOT AND SWAP1 DUP4 PUSH4 0xFFFFFFFF AND MUL OR SWAP1 SSTORE POP POP DUP1 PUSH1 0x9 SWAP1 DUP2 PUSH3 0x224 SWAP2 SWAP1 PUSH3 0x83E JUMP JUMPDEST POP POP PUSH3 0xAFB JUMP JUMPDEST PUSH1 0x60 PUSH1 0x40 MLOAD DUP1 PUSH1 0x40 ADD PUSH1 0x40 MSTORE DUP1 PUSH1 0x1 DUP2 MSTORE PUSH1 0x20 ADD PUSH32 0x3100000000000000000000000000000000000000000000000000000000000000 DUP2 MSTORE POP SWAP1 POP SWAP1 JUMP JUMPDEST PUSH0 PUSH1 0x20 DUP4 MLOAD LT ISZERO PUSH3 0x28E JUMPI PUSH3 0x286 DUP4 PUSH3 0x31A PUSH1 0x20 SHL PUSH1 0x20 SHR JUMP JUMPDEST SWAP1 POP PUSH3 0x2B8 JUMP JUMPDEST DUP3 PUSH3 0x2A0 DUP4 PUSH3 0x384 PUSH1 0x20 SHL PUSH1 0x20 SHR JUMP JUMPDEST PUSH0 ADD SWAP1 DUP2 PUSH3 0x2B0 SWAP2 SWAP1 PUSH3 0x83E JUMP JUMPDEST POP PUSH1 0xFF PUSH0 SHL SWAP1 POP JUMPDEST SWAP3 SWAP2 POP POP JUMP JUMPDEST PUSH0 PUSH32 0x8B73C3C69BB8FE3D512ECC4CF759CC79239F7B179B0FFACAA9A75D522B39400F PUSH1 0xE0 MLOAD PUSH2 0x100 MLOAD CHAINID ADDRESS PUSH1 0x40 MLOAD PUSH1 0x20 ADD PUSH3 0x2FF SWAP6 SWAP5 SWAP4 SWAP3 SWAP2 SWAP1 PUSH3 0x990 JUMP JUMPDEST PUSH1 0x40 MLOAD PUSH1 0x20 DUP2 DUP4 SUB SUB DUP2 MSTORE SWAP1 PUSH1 0x40 MSTORE DUP1 MLOAD SWAP1 PUSH1 0x20 ADD KECCAK256 SWAP1 POP SWAP1 JUMP JUMPDEST PUSH0 DUP1 DUP3 SWAP1 POP PUSH1 0x1F DUP2 MLOAD GT ISZERO PUSH3 0x369 JUMPI DUP3 PUSH1 0x40 MLOAD PUSH32 0x305A27A900000000000000000000000000000000000000000000000000000000 DUP2 MSTORE PUSH1 0x4 ADD PUSH3 0x360 SWAP2 SWAP1 PUSH3 0xA3B JUMP JUMPDEST PUSH1 0x40 MLOAD DUP1 SWAP2 SUB SWAP1 REVERT JUMPDEST DUP1 MLOAD DUP2 PUSH3 0x377 SWAP1 PUSH3 0xA8C JUMP JUMPDEST PUSH0 SHR OR PUSH0 SHL SWAP2 POP POP SWAP2 SWAP1 POP JUMP JUMPDEST PUSH0 DUP2 SWAP1 POP SWAP2 SWAP1 POP JUMP JUMPDEST PUSH0 PUSH1 0x40 MLOAD SWAP1 POP SWAP1 JUMP JUMPDEST PUSH0 DUP1 REVERT JUMPDEST PUSH0 DUP1 REVERT JUMPDEST PUSH0 DUP1 REVERT JUMPDEST PUSH0 DUP1 REVERT JUMPDEST PUSH0 PUSH1 0x1F NOT PUSH1 0x1F DUP4 ADD AND SWAP1 POP SWAP2 SWAP1 POP JUMP JUMPDEST PUSH32 0x4E487B7100000000000000000000000000000000000000000000000000000000 PUSH0 MSTORE PUSH1 0x41 PUSH1 0x4 MSTORE PUSH1 0x24 PUSH0 REVERT JUMPDEST PUSH3 0x3EE DUP3 PUSH3 0x3A6 JUMP JUMPDEST DUP2 ADD DUP2 DUP2 LT PUSH8 0xFFFFFFFFFFFFFFFF DUP3 GT OR ISZERO PUSH3 0x410 JUMPI PUSH3 0x40F PUSH3 0x3B6 JUMP JUMPDEST JUMPDEST DUP1 PUSH1 0x40 MSTORE POP POP POP JUMP JUMPDEST PUSH0 PUSH3 0x424 PUSH3 0x38D JUMP JUMPDEST SWAP1 POP PUSH3 0x432 DUP3 DUP3 PUSH3 0x3E3 JUMP JUMPDEST SWAP2 SWAP1 POP JUMP JUMPDEST PUSH0 PUSH8 0xFFFFFFFFFFFFFFFF DUP3 GT ISZERO PUSH3 0x454 JUMPI PUSH3 0x453 PUSH3 0x3B6 JUMP JUMPDEST JUMPDEST PUSH3 0x45F DUP3 PUSH3 0x3A6 JUMP JUMPDEST SWAP1 POP PUSH1 0x20 DUP2 ADD SWAP1 POP SWAP2 SWAP1 POP JUMP JUMPDEST PUSH0 JUMPDEST DUP4 DUP2 LT ISZERO PUSH3 0x48B JUMPI DUP1 DUP3 ADD MLOAD DUP2 DUP5 ADD MSTORE PUSH1 0x20 DUP2 ADD SWAP1 POP PUSH3 0x46E JUMP JUMPDEST PUSH0 DUP5 DUP5 ADD MSTORE POP POP POP POP JUMP JUMPDEST PUSH0 PUSH3 0x4AC PUSH3 0x4A6 DUP5 PUSH3 0x437 JUMP JUMPDEST PUSH3 0x419 JUMP JUMPDEST SWAP1 POP DUP3 DUP2 MSTORE PUSH1 0x20 DUP2 ADD DUP5 DUP5 DUP5 ADD GT ISZERO PUSH3 0x4CB JUMPI PUSH3 0x4CA PUSH3 0x3A2 JUMP JUMPDEST JUMPDEST PUSH3 0x4D8 DUP5 DUP3 DUP6 PUSH3 0x46C JUMP JUMPDEST POP SWAP4 SWAP3 POP POP POP JUMP JUMPDEST PUSH0 DUP3 PUSH1 0x1F DUP4 ADD SLT PUSH3 0x4F7 JUMPI PUSH3 0x4F6 PUSH3 0x39E JUMP JUMPDEST JUMPDEST DUP2 MLOAD PUSH3 0x509 DUP5 DUP3 PUSH1 0x20 DUP7 ADD PUSH3 0x496 JUMP JUMPDEST SWAP2 POP POP SWAP3 SWAP2 POP POP JUMP JUMPDEST PUSH0 PUSH1 0x20 DUP3 DUP5 SUB SLT ISZERO PUSH3 0x52A JUMPI PUSH3 0x529 PUSH3 0x396 JUMP JUMPDEST JUMPDEST PUSH0 DUP3 ADD MLOAD PUSH8 0xFFFFFFFFFFFFFFFF DUP2 GT ISZERO PUSH3 0x54A JUMPI PUSH3 0x549 PUSH3 0x39A JUMP JUMPDEST JUMPDEST PUSH3 0x558 DUP5 DUP3 DUP6 ADD PUSH3 0x4E0 JUMP JUMPDEST SWAP2 POP POP SWAP3 SWAP2 POP POP JUMP JUMPDEST PUSH0 DUP2 SWAP1 POP SWAP2 SWAP1 POP JUMP JUMPDEST PUSH32 0x4E487B7100000000000000000000000000000000000000000000000000000000 PUSH0 MSTORE PUSH1 0x11 PUSH1 0x4 MSTORE PUSH1 0x24 PUSH0 REVERT JUMPDEST PUSH0 PUSH3 0x5A3 DUP3 PUSH3 0x561 JUMP JUMPDEST SWAP2 POP PUSH3 0x5B0 DUP4 PUSH3 0x561 JUMP JUMPDEST SWAP3 POP DUP3 DUP3 ADD SWAP1 POP DUP1 DUP3 GT ISZERO PUSH3 0x5CB JUMPI PUSH3 0x5CA PUSH3 0x56A JUMP JUMPDEST JUMPDEST SWAP3 SWAP2 POP POP JUMP JUMPDEST PUSH0 PUSH4 0xFFFFFFFF DUP3 AND SWAP1 POP SWAP2 SWAP1 POP JUMP JUMPDEST PUSH0 PUSH3 0x5EC DUP3 PUSH3 0x5D1 JUMP JUMPDEST SWAP2 POP PUSH4 0xFFFFFFFF DUP3 SUB PUSH3 0x605 JUMPI PUSH3 0x604 PUSH3 0x56A JUMP JUMPDEST JUMPDEST PUSH1 0x1 DUP3 ADD SWAP1 POP SWAP2 SWAP1 POP JUMP JUMPDEST PUSH0 DUP2 MLOAD SWAP1 POP SWAP2 SWAP1 POP JUMP JUMPDEST PUSH32 0x4E487B7100000000000000000000000000000000000000000000000000000000 PUSH0 MSTORE PUSH1 0x22 PUSH1 0x4 MSTORE PUSH1 0x24 PUSH0 REVERT JUMPDEST PUSH0 PUSH1 0x2 DUP3 DIV SWAP1 POP PUSH1 0x1 DUP3 AND DUP1 PUSH3 0x65F JUMPI PUSH1 0x7F DUP3 AND SWAP2 POP JUMPDEST PUSH1 0x20 DUP3 LT DUP2 SUB PUSH3 0x675 JUMPI PUSH3 0x674 PUSH3 0x61A JUMP JUMPDEST JUMPDEST POP SWAP2 SWAP1 POP JUMP JUMPDEST PUSH0 DUP2 SWAP1 POP DUP2 PUSH0 MSTORE PUSH1 0x20 PUSH0 KECCAK256 SWAP1 POP SWAP2 SWAP1 POP JUMP JUMPDEST PUSH0 PUSH1 0x20 PUSH1 0x1F DUP4 ADD DIV SWAP1 POP SWAP2 SWAP1 POP JUMP JUMPDEST PUSH0 DUP3 DUP3 SHL SWAP1 POP SWAP3 SWAP2 POP POP JUMP JUMPDEST PUSH0 PUSH1 0x8 DUP4 MUL PUSH3 0x6D9 PUSH32 0xFFFFFFFFFFFFFFFFFFFFFFFFFFFFFFFFFFFFFFFFFFFFFFFFFFFFFFFFFFFFFFFF DUP3 PUSH3 0x69C JUMP JUMPDEST PUSH3 0x6E5 DUP7 DUP4 PUSH3 0x69C JUMP JUMPDEST SWAP6 POP DUP1 NOT DUP5 AND SWAP4 POP DUP1 DUP7 AND DUP5 OR SWAP3 POP POP POP SWAP4 SWAP3 POP POP POP JUMP JUMPDEST PUSH0 DUP2 SWAP1 POP SWAP2 SWAP1 POP JUMP JUMPDEST PUSH0 PUSH3 0x726 PUSH3 0x720 PUSH3 0x71A DUP5 PUSH3 0x561 JUMP JUMPDEST PUSH3 0x6FD JUMP JUMPDEST PUSH3 0x561 JUMP JUMPDEST SWAP1 POP SWAP2 SWAP1 POP JUMP JUMPDEST PUSH0 DUP2 SWAP1 POP SWAP2 SWAP1 POP JUMP JUMPDEST PUSH3 0x741 DUP4 PUSH3 0x706 JUMP JUMPDEST PUSH3 0x759 PUSH3 0x750 DUP3 PUSH3 0x72D JUMP JUMPDEST DUP5 DUP5 SLOAD PUSH3 0x6A8 JUMP JUMPDEST DUP3 SSTORE POP POP POP POP JUMP JUMPDEST PUSH0 SWAP1 JUMP JUMPDEST PUSH3 0x76F PUSH3 0x761 JUMP JUMPDEST PUSH3 0x77C DUP2 DUP5 DUP5 PUSH3 0x736 JUMP JUMPDEST POP POP POP JUMP JUMPDEST JUMPDEST DUP2 DUP2 LT ISZERO PUSH3 0x7A3 JUMPI PUSH3 0x797 PUSH0 DUP3 PUSH3 0x765 JUMP JUMPDEST PUSH1 0x1 DUP2 ADD SWAP1 POP PUSH3 0x782 JUMP JUMPDEST POP POP JUMP JUMPDEST PUSH1 0x1F DUP3 GT ISZERO PUSH3 0x7F2 JUMPI PUSH3 0x7BC DUP2 PUSH3 0x67B JUMP JUMPDEST PUSH3 0x7C7 DUP5 PUSH3 0x68D JUMP JUMPDEST DUP2 ADD PUSH1 0x20 DUP6 LT ISZERO PUSH3 0x7D7 JUMPI DUP2 SWAP1 POP JUMPDEST PUSH3 0x7EF PUSH3 0x7E6 DUP6 PUSH3 0x68D JUMP JUMPDEST DUP4 ADD DUP3 PUSH3 0x781 JUMP JUMPDEST POP POP JUMPDEST POP POP POP JUMP JUMPDEST PUSH0 DUP3 DUP3 SHR SWAP1 POP SWAP3 SWAP2 POP POP JUMP JUMPDEST PUSH0 PUSH3 0x814 PUSH0 NOT DUP5 PUSH1 0x8 MUL PUSH3 0x7F7 JUMP JUMPDEST NOT DUP1 DUP4 AND SWAP2 POP POP SWAP3 SWAP2 POP POP JUMP JUMPDEST PUSH0 PUSH3 0x82E DUP4 DUP4 PUSH3 0x803 JUMP JUMPDEST SWAP2 POP DUP3 PUSH1 0x2 MUL DUP3 OR SWAP1 POP SWAP3 SWAP2 POP POP JUMP JUMPDEST PUSH3 0x849 DUP3 PUSH3 0x610 JUMP JUMPDEST PUSH8 0xFFFFFFFFFFFFFFFF DUP2 GT ISZERO PUSH3 0x865 JUMPI PUSH3 0x864 PUSH3 0x3B6 JUMP JUMPDEST JUMPDEST PUSH3 0x871 DUP3 SLOAD PUSH3 0x647 JUMP JUMPDEST PUSH3 0x87E DUP3 DUP3 DUP6 PUSH3 0x7A7 JUMP JUMPDEST PUSH0 PUSH1 0x20 SWAP1 POP PUSH1 0x1F DUP4 GT PUSH1 0x1 DUP2 EQ PUSH3 0x8B4 JUMPI PUSH0 DUP5 ISZERO PUSH3 0x89F JUMPI DUP3 DUP8 ADD MLOAD SWAP1 POP JUMPDEST PUSH3 0x8AB DUP6 DUP3 PUSH3 0x821 JUMP JUMPDEST DUP7 SSTORE POP PUSH3 0x91A JUMP JUMPDEST PUSH1 0x1F NOT DUP5 AND PUSH3 0x8C4 DUP7 PUSH3 0x67B JUMP JUMPDEST PUSH0 JUMPDEST DUP3 DUP2 LT ISZERO PUSH3 0x8ED JUMPI DUP5 DUP10 ADD MLOAD DUP3 SSTORE PUSH1 0x1 DUP3 ADD SWAP2 POP PUSH1 0x20 DUP6 ADD SWAP5 POP PUSH1 0x20 DUP2 ADD SWAP1 POP PUSH3 0x8C6 JUMP JUMPDEST DUP7 DUP4 LT ISZERO PUSH3 0x90D JUMPI DUP5 DUP10 ADD MLOAD PUSH3 0x909 PUSH1 0x1F DUP10 AND DUP3 PUSH3 0x803 JUMP JUMPDEST DUP4 SSTORE POP JUMPDEST PUSH1 0x1 PUSH1 0x2 DUP9 MUL ADD DUP9 SSTORE POP POP POP JUMPDEST POP POP POP POP POP POP JUMP JUMPDEST PUSH0 DUP2 SWAP1 POP SWAP2 SWAP1 POP JUMP JUMPDEST PUSH3 0x936 DUP2 PUSH3 0x922 JUMP JUMPDEST DUP3 MSTORE POP POP JUMP JUMPDEST PUSH3 0x947 DUP2 PUSH3 0x561 JUMP JUMPDEST DUP3 MSTORE POP POP JUMP JUMPDEST PUSH0 PUSH20 0xFFFFFFFFFFFFFFFFFFFFFFFFFFFFFFFFFFFFFFFF DUP3 AND SWAP1 POP SWAP2 SWAP1 POP JUMP JUMPDEST PUSH0 PUSH3 0x978 DUP3 PUSH3 0x94D JUMP JUMPDEST SWAP1 POP SWAP2 SWAP1 POP JUMP JUMPDEST PUSH3 0x98A DUP2 PUSH3 0x96C JUMP JUMPDEST DUP3 MSTORE POP POP JUMP JUMPDEST PUSH0 PUSH1 0xA0 DUP3 ADD SWAP1 POP PUSH3 0x9A5 PUSH0 DUP4 ADD DUP9 PUSH3 0x92B JUMP JUMPDEST PUSH3 0x9B4 PUSH1 0x20 DUP4 ADD DUP8 PUSH3 0x92B JUMP JUMPDEST PUSH3 0x9C3 PUSH1 0x40 DUP4 ADD DUP7 PUSH3 0x92B JUMP JUMPDEST PUSH3 0x9D2 PUSH1 0x60 DUP4 ADD DUP6 PUSH3 0x93C JUMP JUMPDEST PUSH3 0x9E1 PUSH1 0x80 DUP4 ADD DUP5 PUSH3 0x97F JUMP JUMPDEST SWAP7 SWAP6 POP POP POP POP POP POP JUMP JUMPDEST PUSH0 DUP3 DUP3 MSTORE PUSH1 0x20 DUP3 ADD SWAP1 POP SWAP3 SWAP2 POP POP JUMP JUMPDEST PUSH0 PUSH3 0xA07 DUP3 PUSH3 0x610 JUMP JUMPDEST PUSH3 0xA13 DUP2 DUP6 PUSH3 0x9EB JUMP JUMPDEST SWAP4 POP PUSH3 0xA25 DUP2 DUP6 PUSH1 0x20 DUP7 ADD PUSH3 0x46C JUMP JUMPDEST PUSH3 0xA30 DUP2 PUSH3 0x3A6 JUMP JUMPDEST DUP5 ADD SWAP2 POP POP SWAP3 SWAP2 POP POP JUMP JUMPDEST PUSH0 PUSH1 0x20 DUP3 ADD SWAP1 POP DUP2 DUP2 SUB PUSH0 DUP4 ADD MSTORE PUSH3 0xA55 DUP2 DUP5 PUSH3 0x9FB JUMP JUMPDEST SWAP1 POP SWAP3 SWAP2 POP POP JUMP JUMPDEST PUSH0 DUP2 MLOAD SWAP1 POP SWAP2 SWAP1 POP JUMP JUMPDEST PUSH0 DUP2 SWAP1 POP PUSH1 0x20 DUP3 ADD SWAP1 POP SWAP2 SWAP1 POP JUMP JUMPDEST PUSH0 PUSH3 0xA83 DUP3 MLOAD PUSH3 0x922 JUMP JUMPDEST DUP1 SWAP2 POP POP SWAP2 SWAP1 POP JUMP JUMPDEST PUSH0 PUSH3 0xA98 DUP3 PUSH3 0xA5D JUMP JUMPDEST DUP3 PUSH3 0xAA4 DUP5 PUSH3 0xA67 JUMP JUMPDEST SWAP1 POP PUSH3 0xAB1 DUP2 PUSH3 0xA76 JUMP JUMPDEST SWAP3 POP PUSH1 0x20 DUP3 LT ISZERO PUSH3 0xAF4 JUMPI PUSH3 0xAEF PUSH32 0xFFFFFFFFFFFFFFFFFFFFFFFFFFFFFFFFFFFFFFFFFFFFFFFFFFFFFFFFFFFFFFFF DUP4 PUSH1 0x20 SUB PUSH1 0x8 MUL PUSH3 0x69C JUMP JUMPDEST DUP4 AND SWAP3 POP JUMPDEST POP POP SWAP2 SWAP1 POP JUMP JUMPDEST PUSH1 0x80 MLOAD PUSH1 0xA0 MLOAD PUSH1 0xC0 MLOAD PUSH1 0xE0 MLOAD PUSH2 0x100 MLOAD PUSH2 0x120 MLOAD PUSH2 0x140 MLOAD PUSH2 0x160 MLOAD PUSH2 0x44A0 PUSH3 0xB6B PUSH0 CODECOPY PUSH0 DUP2 DUP2 PUSH2 0x547 ADD MSTORE DUP2 DUP2 PUSH2 0x966 ADD MSTORE DUP2 DUP2 PUSH2 0x1009 ADD MSTORE DUP2 DUP2 PUSH2 0x1A58 ADD MSTORE DUP2 DUP2 PUSH2 0x1D49 ADD MSTORE PUSH2 0x256F ADD MSTORE PUSH0 PUSH2 0x2BE4 ADD MSTORE PUSH0 PUSH2 0x2BA9 ADD MSTORE PUSH0 POP POP PUSH0 POP POP PUSH0 POP POP PUSH0 POP POP PUSH0 POP POP PUSH2 0x44A0 PUSH0 RETURN INVALID PUSH1 0x80 PUSH1 0x40 MSTORE CALLVALUE DUP1 ISZERO PUSH2 0xF JUMPI PUSH0 DUP1 REVERT JUMPDEST POP PUSH1 0x4 CALLDATASIZE LT PUSH2 0x1C2 JUMPI PUSH0 CALLDATALOAD PUSH1 0xE0 SHR DUP1 PUSH4 0x667D639B GT PUSH2 0xF7 JUMPI DUP1 PUSH4 0xC387B49C GT PUSH2 0x95 JUMPI DUP1 PUSH4 0xCA4CCE68 GT PUSH2 0x6F JUMPI DUP1 PUSH4 0xCA4CCE68 EQ PUSH2 0x4BE JUMPI DUP1 PUSH4 0xE35B31B7 EQ PUSH2 0x4DA JUMPI DUP1 PUSH4 0xE47A9D46 EQ PUSH2 0x50A JUMPI DUP1 PUSH4 0xEE7126C3 EQ PUSH2 0x528 JUMPI PUSH2 0x1C2 JUMP JUMPDEST DUP1 PUSH4 0xC387B49C EQ PUSH2 0x452 JUMPI DUP1 PUSH4 0xC5A1C5C1 EQ PUSH2 0x470 JUMPI DUP1 PUSH4 0xC8021C2E EQ PUSH2 0x48E JUMPI PUSH2 0x1C2 JUMP JUMPDEST DUP1 PUSH4 0x85488408 GT PUSH2 0xD1 JUMPI DUP1 PUSH4 0x85488408 EQ PUSH2 0x3E2 JUMPI DUP1 PUSH4 0x88AA4C12 EQ PUSH2 0x3FE JUMPI DUP1 PUSH4 0x9C20FE71 EQ PUSH2 0x41A JUMPI DUP1 PUSH4 0xB5C09C68 EQ PUSH2 0x436 JUMPI PUSH2 0x1C2 JUMP JUMPDEST DUP1 PUSH4 0x667D639B EQ PUSH2 0x384 JUMPI DUP1 PUSH4 0x6CF106D7 EQ PUSH2 0x3A0 JUMPI DUP1 PUSH4 0x84B0196E EQ PUSH2 0x3BE JUMPI PUSH2 0x1C2 JUMP JUMPDEST DUP1 PUSH4 0x3A8512B4 GT PUSH2 0x164 JUMPI DUP1 PUSH4 0x52E305DE GT PUSH2 0x13E JUMPI DUP1 PUSH4 0x52E305DE EQ PUSH2 0x30E JUMPI DUP1 PUSH4 0x54FD4D50 EQ PUSH2 0x32A JUMPI DUP1 PUSH4 0x5DAD85C2 EQ PUSH2 0x348 JUMPI DUP1 PUSH4 0x66410997 EQ PUSH2 0x366 JUMPI PUSH2 0x1C2 JUMP JUMPDEST DUP1 PUSH4 0x3A8512B4 EQ PUSH2 0x2A4 JUMPI DUP1 PUSH4 0x3E4F49E6 EQ PUSH2 0x2C0 JUMPI DUP1 PUSH4 0x4BF5D7E9 EQ PUSH2 0x2F0 JUMPI PUSH2 0x1C2 JUMP JUMPDEST DUP1 PUSH4 0x1F72783A GT PUSH2 0x1A0 JUMPI DUP1 PUSH4 0x1F72783A EQ PUSH2 0x20A JUMPI DUP1 PUSH4 0x289B3C0D EQ PUSH2 0x226 JUMPI DUP1 PUSH4 0x31D133C2 EQ PUSH2 0x244 JUMPI DUP1 PUSH4 0x3610FEB3 EQ PUSH2 0x274 JUMPI PUSH2 0x1C2 JUMP JUMPDEST DUP1 PUSH4 0x54203BD EQ PUSH2 0x1C6 JUMPI DUP1 PUSH4 0x6FDDE03 EQ PUSH2 0x1E2 JUMPI DUP1 PUSH4 0xDF4C390 EQ PUSH2 0x200 JUMPI JUMPDEST PUSH0 DUP1 REVERT JUMPDEST PUSH2 0x1E0 PUSH1 0x4 DUP1 CALLDATASIZE SUB DUP2 ADD SWAP1 PUSH2 0x1DB SWAP2 SWAP1 PUSH2 0x2FE0 JUMP JUMPDEST PUSH2 0x544 JUMP JUMPDEST STOP JUMPDEST PUSH2 0x1EA PUSH2 0x6FB JUMP JUMPDEST PUSH1 0x40 MLOAD PUSH2 0x1F7 SWAP2 SWAP1 PUSH2 0x3095 JUMP JUMPDEST PUSH1 0x40 MLOAD DUP1 SWAP2 SUB SWAP1 RETURN JUMPDEST PUSH2 0x208 PUSH2 0x78B JUMP JUMPDEST STOP JUMPDEST PUSH2 0x224 PUSH1 0x4 DUP1 CALLDATASIZE SUB DUP2 ADD SWAP1 PUSH2 0x21F SWAP2 SWAP1 PUSH2 0x2FE0 JUMP JUMPDEST PUSH2 0x963 JUMP JUMPDEST STOP JUMPDEST PUSH2 0x22E PUSH2 0xC13 JUMP JUMPDEST PUSH1 0x40 MLOAD PUSH2 0x23B SWAP2 SWAP1 PUSH2 0x30C4 JUMP JUMPDEST PUSH1 0x40 MLOAD DUP1 SWAP2 SUB SWAP1 RETURN JUMPDEST PUSH2 0x25E PUSH1 0x4 DUP1 CALLDATASIZE SUB DUP2 ADD SWAP1 PUSH2 0x259 SWAP2 SWAP1 PUSH2 0x326F JUMP JUMPDEST PUSH2 0xC3D JUMP JUMPDEST PUSH1 0x40 MLOAD PUSH2 0x26B SWAP2 SWAP1 PUSH2 0x32FE JUMP JUMPDEST PUSH1 0x40 MLOAD DUP1 SWAP2 SUB SWAP1 RETURN JUMPDEST PUSH2 0x28E PUSH1 0x4 DUP1 CALLDATASIZE SUB DUP2 ADD SWAP1 PUSH2 0x289 SWAP2 SWAP1 PUSH2 0x2FE0 JUMP JUMPDEST PUSH2 0xC77 JUMP JUMPDEST PUSH1 0x40 MLOAD PUSH2 0x29B SWAP2 SWAP1 PUSH2 0x3331 JUMP JUMPDEST PUSH1 0x40 MLOAD DUP1 SWAP2 SUB SWAP1 RETURN JUMPDEST PUSH2 0x2BE PUSH1 0x4 DUP1 CALLDATASIZE SUB DUP2 ADD SWAP1 PUSH2 0x2B9 SWAP2 SWAP1 PUSH2 0x334A JUMP JUMPDEST PUSH2 0xC7D JUMP JUMPDEST STOP JUMPDEST PUSH2 0x2DA PUSH1 0x4 DUP1 CALLDATASIZE SUB DUP2 ADD SWAP1 PUSH2 0x2D5 SWAP2 SWAP1 PUSH2 0x3388 JUMP JUMPDEST PUSH2 0xCFC JUMP JUMPDEST PUSH1 0x40 MLOAD PUSH2 0x2E7 SWAP2 SWAP1 PUSH2 0x3426 JUMP JUMPDEST PUSH1 0x40 MLOAD DUP1 SWAP2 SUB SWAP1 RETURN JUMPDEST PUSH2 0x2F8 PUSH2 0xFC9 JUMP JUMPDEST PUSH1 0x40 MLOAD PUSH2 0x305 SWAP2 SWAP1 PUSH2 0x3095 JUMP JUMPDEST PUSH1 0x40 MLOAD DUP1 SWAP2 SUB SWAP1 RETURN JUMPDEST PUSH2 0x328 PUSH1 0x4 DUP1 CALLDATASIZE SUB DUP2 ADD SWAP1 PUSH2 0x323 SWAP2 SWAP1 PUSH2 0x2FE0 JUMP JUMPDEST PUSH2 0x1006 JUMP JUMPDEST STOP JUMPDEST PUSH2 0x332 PUSH2 0x124E JUMP JUMPDEST PUSH1 0x40 MLOAD PUSH2 0x33F SWAP2 SWAP1 PUSH2 0x3095 JUMP JUMPDEST PUSH1 0x40 MLOAD DUP1 SWAP2 SUB SWAP1 RETURN JUMPDEST PUSH2 0x350 PUSH2 0x128B JUMP JUMPDEST PUSH1 0x40 MLOAD PUSH2 0x35D SWAP2 SWAP1 PUSH2 0x32FE JUMP JUMPDEST PUSH1 0x40 MLOAD DUP1 SWAP2 SUB SWAP1 RETURN JUMPDEST PUSH2 0x36E PUSH2 0x1292 JUMP JUMPDEST PUSH1 0x40 MLOAD PUSH2 0x37B SWAP2 SWAP1 PUSH2 0x30C4 JUMP JUMPDEST PUSH1 0x40 MLOAD DUP1 SWAP2 SUB SWAP1 RETURN JUMPDEST PUSH2 0x39E PUSH1 0x4 DUP1 CALLDATASIZE SUB DUP2 ADD SWAP1 PUSH2 0x399 SWAP2 SWAP1 PUSH2 0x3478 JUMP JUMPDEST PUSH2 0x12BC JUMP JUMPDEST STOP JUMPDEST PUSH2 0x3A8 PUSH2 0x1479 JUMP JUMPDEST PUSH1 0x40 MLOAD PUSH2 0x3B5 SWAP2 SWAP1 PUSH2 0x3331 JUMP JUMPDEST PUSH1 0x40 MLOAD DUP1 SWAP2 SUB SWAP1 RETURN JUMPDEST PUSH2 0x3C6 PUSH2 0x1491 JUMP JUMPDEST PUSH1 0x40 MLOAD PUSH2 0x3D9 SWAP8 SWAP7 SWAP6 SWAP5 SWAP4 SWAP3 SWAP2 SWAP1 PUSH2 0x35B6 JUMP JUMPDEST PUSH1 0x40 MLOAD DUP1 SWAP2 SUB SWAP1 RETURN JUMPDEST PUSH2 0x3FC PUSH1 0x4 DUP1 CALLDATASIZE SUB DUP2 ADD SWAP1 PUSH2 0x3F7 SWAP2 SWAP1 PUSH2 0x326F JUMP JUMPDEST PUSH2 0x1536 JUMP JUMPDEST STOP JUMPDEST PUSH2 0x418 PUSH1 0x4 DUP1 CALLDATASIZE SUB DUP2 ADD SWAP1 PUSH2 0x413 SWAP2 SWAP1 PUSH2 0x326F JUMP JUMPDEST PUSH2 0x1787 JUMP JUMPDEST STOP JUMPDEST PUSH2 0x434 PUSH1 0x4 DUP1 CALLDATASIZE SUB DUP2 ADD SWAP1 PUSH2 0x42F SWAP2 SWAP1 PUSH2 0x2FE0 JUMP JUMPDEST PUSH2 0x1A55 JUMP JUMPDEST STOP JUMPDEST PUSH2 0x450 PUSH1 0x4 DUP1 CALLDATASIZE SUB DUP2 ADD SWAP1 PUSH2 0x44B SWAP2 SWAP1 PUSH2 0x3662 JUMP JUMPDEST PUSH2 0x1D46 JUMP JUMPDEST STOP JUMPDEST PUSH2 0x45A PUSH2 0x1E83 JUMP JUMPDEST PUSH1 0x40 MLOAD PUSH2 0x467 SWAP2 SWAP1 PUSH2 0x369C JUMP JUMPDEST PUSH1 0x40 MLOAD DUP1 SWAP2 SUB SWAP1 RETURN JUMPDEST PUSH2 0x478 PUSH2 0x1E9E JUMP JUMPDEST PUSH1 0x40 MLOAD PUSH2 0x485 SWAP2 SWAP1 PUSH2 0x30C4 JUMP JUMPDEST PUSH1 0x40 MLOAD DUP1 SWAP2 SUB SWAP1 RETURN JUMPDEST PUSH2 0x4A8 PUSH1 0x4 DUP1 CALLDATASIZE SUB DUP2 ADD SWAP1 PUSH2 0x4A3 SWAP2 SWAP1 PUSH2 0x36B5 JUMP JUMPDEST PUSH2 0x1EC8 JUMP JUMPDEST PUSH1 0x40 MLOAD PUSH2 0x4B5 SWAP2 SWAP1 PUSH2 0x32FE JUMP JUMPDEST PUSH1 0x40 MLOAD DUP1 SWAP2 SUB SWAP1 RETURN JUMPDEST PUSH2 0x4D8 PUSH1 0x4 DUP1 CALLDATASIZE SUB DUP2 ADD SWAP1 PUSH2 0x4D3 SWAP2 SWAP1 PUSH2 0x2FE0 JUMP JUMPDEST PUSH2 0x256C JUMP JUMPDEST STOP JUMPDEST PUSH2 0x4F4 PUSH1 0x4 DUP1 CALLDATASIZE SUB DUP2 ADD SWAP1 PUSH2 0x4EF SWAP2 SWAP1 PUSH2 0x376E JUMP JUMPDEST PUSH2 0x2784 JUMP JUMPDEST PUSH1 0x40 MLOAD PUSH2 0x501 SWAP2 SWAP1 PUSH2 0x3331 JUMP JUMPDEST PUSH1 0x40 MLOAD DUP1 SWAP2 SUB SWAP1 RETURN JUMPDEST PUSH2 0x512 PUSH2 0x278C JUMP JUMPDEST PUSH1 0x40 MLOAD PUSH2 0x51F SWAP2 SWAP1 PUSH2 0x30C4 JUMP JUMPDEST PUSH1 0x40 MLOAD DUP1 SWAP2 SUB SWAP1 RETURN JUMPDEST PUSH2 0x542 PUSH1 0x4 DUP1 CALLDATASIZE SUB DUP2 ADD SWAP1 PUSH2 0x53D SWAP2 SWAP1 PUSH2 0x2FE0 JUMP JUMPDEST PUSH2 0x2793 JUMP JUMPDEST STOP JUMPDEST TIMESTAMP PUSH32 0x0 PUSH6 0xFFFFFFFFFFFF AND LT ISZERO PUSH2 0x5EE JUMPI PUSH2 0x57C PUSH2 0x1E9E JUMP JUMPDEST PUSH20 0xFFFFFFFFFFFFFFFFFFFFFFFFFFFFFFFFFFFFFFFF AND CALLER PUSH20 0xFFFFFFFFFFFFFFFFFFFFFFFFFFFFFFFFFFFFFFFF AND EQ PUSH2 0x5E9 JUMPI PUSH1 0x40 MLOAD PUSH32 0x8C379A000000000000000000000000000000000000000000000000000000000 DUP2 MSTORE PUSH1 0x4 ADD PUSH2 0x5E0 SWAP1 PUSH2 0x3808 JUMP JUMPDEST PUSH1 0x40 MLOAD DUP1 SWAP2 SUB SWAP1 REVERT JUMPDEST PUSH2 0x675 JUMP JUMPDEST PUSH2 0x5F6 PUSH2 0x1292 JUMP JUMPDEST PUSH20 0xFFFFFFFFFFFFFFFFFFFFFFFFFFFFFFFFFFFFFFFF AND CALLER PUSH20 0xFFFFFFFFFFFFFFFFFFFFFFFFFFFFFFFFFFFFFFFF AND EQ DUP1 ISZERO PUSH2 0x635 JUMPI POP PUSH2 0x633 PUSH2 0x1479 JUMP JUMPDEST ISZERO JUMPDEST PUSH2 0x674 JUMPI PUSH1 0x40 MLOAD PUSH32 0x8C379A000000000000000000000000000000000000000000000000000000000 DUP2 MSTORE PUSH1 0x4 ADD PUSH2 0x66B SWAP1 PUSH2 0x3808 JUMP JUMPDEST PUSH1 0x40 MLOAD DUP1 SWAP2 SUB SWAP1 REVERT JUMPDEST JUMPDEST DUP1 PUSH1 0x4 PUSH0 PUSH2 0x100 EXP DUP2 SLOAD DUP2 PUSH20 0xFFFFFFFFFFFFFFFFFFFFFFFFFFFFFFFFFFFFFFFF MUL NOT AND SWAP1 DUP4 PUSH20 0xFFFFFFFFFFFFFFFFFFFFFFFFFFFFFFFFFFFFFFFF AND MUL OR SWAP1 SSTORE POP DUP1 PUSH20 0xFFFFFFFFFFFFFFFFFFFFFFFFFFFFFFFFFFFFFFFF AND PUSH32 0x3553F1F7EF0242113266A8D183B621BB87468C99237F36B1150B6AB3D688B686 PUSH1 0x40 MLOAD PUSH1 0x40 MLOAD DUP1 SWAP2 SUB SWAP1 LOG2 POP JUMP JUMPDEST PUSH1 0x60 PUSH1 0x9 DUP1 SLOAD PUSH2 0x70A SWAP1 PUSH2 0x3853 JUMP JUMPDEST DUP1 PUSH1 0x1F ADD PUSH1 0x20 DUP1 SWAP2 DIV MUL PUSH1 0x20 ADD PUSH1 0x40 MLOAD SWAP1 DUP2 ADD PUSH1 0x40 MSTORE DUP1 SWAP3 SWAP2 SWAP1 DUP2 DUP2 MSTORE PUSH1 0x20 ADD DUP3 DUP1 SLOAD PUSH2 0x736 SWAP1 PUSH2 0x3853 JUMP JUMPDEST DUP1 ISZERO PUSH2 0x781 JUMPI DUP1 PUSH1 0x1F LT PUSH2 0x758 JUMPI PUSH2 0x100 DUP1 DUP4 SLOAD DIV MUL DUP4 MSTORE SWAP2 PUSH1 0x20 ADD SWAP2 PUSH2 0x781 JUMP JUMPDEST DUP3 ADD SWAP2 SWAP1 PUSH0 MSTORE PUSH1 0x20 PUSH0 KECCAK256 SWAP1 JUMPDEST DUP2 SLOAD DUP2 MSTORE SWAP1 PUSH1 0x1 ADD SWAP1 PUSH1 0x20 ADD DUP1 DUP4 GT PUSH2 0x764 JUMPI DUP3 SWAP1 SUB PUSH1 0x1F AND DUP3 ADD SWAP2 JUMPDEST POP POP POP POP POP SWAP1 POP SWAP1 JUMP JUMPDEST CALLER PUSH20 0xFFFFFFFFFFFFFFFFFFFFFFFFFFFFFFFFFFFFFFFF AND PUSH1 0x4 PUSH0 SWAP1 SLOAD SWAP1 PUSH2 0x100 EXP SWAP1 DIV PUSH20 0xFFFFFFFFFFFFFFFFFFFFFFFFFFFFFFFFFFFFFFFF AND PUSH20 0xFFFFFFFFFFFFFFFFFFFFFFFFFFFFFFFFFFFFFFFF AND SUB PUSH2 0x92F JUMPI PUSH1 0x4 PUSH0 PUSH2 0x100 EXP DUP2 SLOAD SWAP1 PUSH20 0xFFFFFFFFFFFFFFFFFFFFFFFFFFFFFFFFFFFFFFFF MUL NOT AND SWAP1 SSTORE CALLER PUSH1 0x5 PUSH0 ADD PUSH0 PUSH2 0x100 EXP DUP2 SLOAD DUP2 PUSH20 0xFFFFFFFFFFFFFFFFFFFFFFFFFFFFFFFFFFFFFFFF MUL NOT AND SWAP1 DUP4 PUSH20 0xFFFFFFFFFFFFFFFFFFFFFFFFFFFFFFFFFFFFFFFF AND MUL OR SWAP1 SSTORE POP PUSH1 0x5 PUSH0 ADD PUSH1 0x15 DUP2 DUP2 SWAP1 SLOAD SWAP1 PUSH2 0x100 EXP SWAP1 DIV PUSH4 0xFFFFFFFF AND DUP1 SWAP3 SWAP2 SWAP1 PUSH2 0x869 SWAP1 PUSH2 0x38B0 JUMP JUMPDEST SWAP2 SWAP1 PUSH2 0x100 EXP DUP2 SLOAD DUP2 PUSH4 0xFFFFFFFF MUL NOT AND SWAP1 DUP4 PUSH4 0xFFFFFFFF AND MUL OR SWAP1 SSTORE POP POP PUSH1 0x5 PUSH0 ADD PUSH1 0x14 SWAP1 SLOAD SWAP1 PUSH2 0x100 EXP SWAP1 DIV PUSH1 0xFF AND ISZERO PUSH2 0x8A9 JUMPI PUSH2 0x8A8 PUSH0 PUSH2 0x29DC JUMP JUMPDEST JUMPDEST PUSH1 0x5 PUSH0 ADD PUSH1 0x15 SWAP1 SLOAD SWAP1 PUSH2 0x100 EXP SWAP1 DIV PUSH4 0xFFFFFFFF AND PUSH4 0xFFFFFFFF AND PUSH1 0x5 PUSH0 ADD PUSH0 SWAP1 SLOAD SWAP1 PUSH2 0x100 EXP SWAP1 DIV PUSH20 0xFFFFFFFFFFFFFFFFFFFFFFFFFFFFFFFFFFFFFFFF AND PUSH20 0xFFFFFFFFFFFFFFFFFFFFFFFFFFFFFFFFFFFFFFFF AND PUSH32 0x5AD9B3688012CD825C1BFB941E4F5AFB2558AF6AF3DEADDF01DBB5E85ABDAF9 PUSH1 0x40 MLOAD PUSH1 0x40 MLOAD DUP1 SWAP2 SUB SWAP1 LOG3 PUSH2 0x961 JUMP JUMPDEST PUSH1 0x40 MLOAD PUSH32 0xB513955100000000000000000000000000000000000000000000000000000000 DUP2 MSTORE PUSH1 0x4 ADD PUSH1 0x40 MLOAD DUP1 SWAP2 SUB SWAP1 REVERT JUMPDEST JUMP JUMPDEST TIMESTAMP PUSH32 0x0 PUSH6 0xFFFFFFFFFFFF AND LT ISZERO PUSH2 0xA0D JUMPI PUSH2 0x99B PUSH2 0x1E9E JUMP JUMPDEST PUSH20 0xFFFFFFFFFFFFFFFFFFFFFFFFFFFFFFFFFFFFFFFF AND CALLER PUSH20 0xFFFFFFFFFFFFFFFFFFFFFFFFFFFFFFFFFFFFFFFF AND EQ PUSH2 0xA08 JUMPI PUSH1 0x40 MLOAD PUSH32 0x8C379A000000000000000000000000000000000000000000000000000000000 DUP2 MSTORE PUSH1 0x4 ADD PUSH2 0x9FF SWAP1 PUSH2 0x3808 JUMP JUMPDEST PUSH1 0x40 MLOAD DUP1 SWAP2 SUB SWAP1 REVERT JUMPDEST PUSH2 0xA94 JUMP JUMPDEST PUSH2 0xA15 PUSH2 0x1292 JUMP JUMPDEST PUSH20 0xFFFFFFFFFFFFFFFFFFFFFFFFFFFFFFFFFFFFFFFF AND CALLER PUSH20 0xFFFFFFFFFFFFFFFFFFFFFFFFFFFFFFFFFFFFFFFF AND EQ DUP1 ISZERO PUSH2 0xA54 JUMPI POP PUSH2 0xA52 PUSH2 0x1479 JUMP JUMPDEST ISZERO JUMPDEST PUSH2 0xA93 JUMPI PUSH1 0x40 MLOAD PUSH32 0x8C379A000000000000000000000000000000000000000000000000000000000 DUP2 MSTORE PUSH1 0x4 ADD PUSH2 0xA8A SWAP1 PUSH2 0x3808 JUMP JUMPDEST PUSH1 0x40 MLOAD DUP1 SWAP2 SUB SWAP1 REVERT JUMPDEST JUMPDEST PUSH0 DUP2 PUSH20 0xFFFFFFFFFFFFFFFFFFFFFFFFFFFFFFFFFFFFFFFF AND EXTCODESIZE GT ISZERO PUSH2 0xBD3 JUMPI CALLER PUSH20 0xFFFFFFFFFFFFFFFFFFFFFFFFFFFFFFFFFFFFFFFF AND PUSH1 0x5 PUSH0 ADD PUSH0 SWAP1 SLOAD SWAP1 PUSH2 0x100 EXP SWAP1 DIV PUSH20 0xFFFFFFFFFFFFFFFFFFFFFFFFFFFFFFFFFFFFFFFF AND PUSH20 0xFFFFFFFFFFFFFFFFFFFFFFFFFFFFFFFFFFFFFFFF AND SUB PUSH2 0xB17 JUMPI PUSH2 0xB12 DUP2 PUSH2 0x29FB JUMP JUMPDEST PUSH2 0xBCE JUMP JUMPDEST PUSH3 0x13C680 TIMESTAMP PUSH2 0xB26 SWAP2 SWAP1 PUSH2 0x38DB JUMP JUMPDEST PUSH1 0x4 PUSH1 0x14 PUSH2 0x100 EXP DUP2 SLOAD DUP2 PUSH6 0xFFFFFFFFFFFF MUL NOT AND SWAP1 DUP4 PUSH6 0xFFFFFFFFFFFF AND MUL OR SWAP1 SSTORE POP DUP1 PUSH1 0x2 PUSH0 PUSH2 0x100 EXP DUP2 SLOAD DUP2 PUSH20 0xFFFFFFFFFFFFFFFFFFFFFFFFFFFFFFFFFFFFFFFF MUL NOT AND SWAP1 DUP4 PUSH20 0xFFFFFFFFFFFFFFFFFFFFFFFFFFFFFFFFFFFFFFFF AND MUL OR SWAP1 SSTORE POP DUP1 PUSH20 0xFFFFFFFFFFFFFFFFFFFFFFFFFFFFFFFFFFFFFFFF AND PUSH32 0x675B770E821BA4AAD20BE77C58F912D689226272E805637F42F838A6035EED86 PUSH1 0x40 MLOAD PUSH1 0x40 MLOAD DUP1 SWAP2 SUB SWAP1 LOG2 JUMPDEST PUSH2 0xC10 JUMP JUMPDEST DUP1 PUSH1 0x40 MLOAD PUSH32 0xC632231500000000000000000000000000000000000000000000000000000000 DUP2 MSTORE PUSH1 0x4 ADD PUSH2 0xC07 SWAP2 SWAP1 PUSH2 0x30C4 JUMP JUMPDEST PUSH1 0x40 MLOAD DUP1 SWAP2 SUB SWAP1 REVERT JUMPDEST POP JUMP JUMPDEST PUSH0 PUSH1 0x6 PUSH0 ADD PUSH0 SWAP1 SLOAD SWAP1 PUSH2 0x100 EXP SWAP1 DIV PUSH20 0xFFFFFFFFFFFFFFFFFFFFFFFFFFFFFFFFFFFFFFFF AND SWAP1 POP SWAP1 JUMP JUMPDEST PUSH0 DUP5 DUP5 DUP5 DUP5 PUSH1 0x40 MLOAD PUSH1 0x20 ADD PUSH2 0xC55 SWAP5 SWAP4 SWAP3 SWAP2 SWAP1 PUSH2 0x3960 JUMP JUMPDEST PUSH1 0x40 MLOAD PUSH1 0x20 DUP2 DUP4 SUB SUB DUP2 MSTORE SWAP1 PUSH1 0x40 MSTORE DUP1 MLOAD SWAP1 PUSH1 0x20 ADD KECCAK256 PUSH0 SHR SWAP1 POP SWAP5 SWAP4 POP POP POP POP JUMP JUMPDEST PUSH0 SWAP2 SWAP1 POP JUMP JUMPDEST DUP1 PUSH1 0x8 PUSH0 DUP5 PUSH20 0xFFFFFFFFFFFFFFFFFFFFFFFFFFFFFFFFFFFFFFFF AND PUSH20 0xFFFFFFFFFFFFFFFFFFFFFFFFFFFFFFFFFFFFFFFF AND DUP2 MSTORE PUSH1 0x20 ADD SWAP1 DUP2 MSTORE PUSH1 0x20 ADD PUSH0 KECCAK256 PUSH0 PUSH2 0x100 EXP DUP2 SLOAD DUP2 PUSH20 0xFFFFFFFFFFFFFFFFFFFFFFFFFFFFFFFFFFFFFFFF MUL NOT AND SWAP1 DUP4 PUSH20 0xFFFFFFFFFFFFFFFFFFFFFFFFFFFFFFFFFFFFFFFF AND MUL OR SWAP1 SSTORE POP POP POP JUMP JUMPDEST PUSH0 DUP1 PUSH1 0x8 PUSH0 CALLER PUSH20 0xFFFFFFFFFFFFFFFFFFFFFFFFFFFFFFFFFFFFFFFF AND PUSH20 0xFFFFFFFFFFFFFFFFFFFFFFFFFFFFFFFFFFFFFFFF AND DUP2 MSTORE PUSH1 0x20 ADD SWAP1 DUP2 MSTORE PUSH1 0x20 ADD PUSH0 KECCAK256 PUSH0 SWAP1 SLOAD SWAP1 PUSH2 0x100 EXP SWAP1 DIV PUSH20 0xFFFFFFFFFFFFFFFFFFFFFFFFFFFFFFFFFFFFFFFF AND SWAP1 POP PUSH0 DUP2 PUSH20 0xFFFFFFFFFFFFFFFFFFFFFFFFFFFFFFFFFFFFFFFF AND PUSH4 0x13CF08B DUP6 PUSH1 0x40 MLOAD DUP3 PUSH4 0xFFFFFFFF AND PUSH1 0xE0 SHL DUP2 MSTORE PUSH1 0x4 ADD PUSH2 0xD97 SWAP2 SWAP1 PUSH2 0x32FE JUMP JUMPDEST PUSH2 0x140 PUSH1 0x40 MLOAD DUP1 DUP4 SUB DUP2 DUP7 GAS STATICCALL ISZERO DUP1 ISZERO PUSH2 0xDB3 JUMPI RETURNDATASIZE PUSH0 DUP1 RETURNDATACOPY RETURNDATASIZE PUSH0 REVERT JUMPDEST POP POP POP POP PUSH1 0x40 MLOAD RETURNDATASIZE PUSH1 0x1F NOT PUSH1 0x1F DUP3 ADD AND DUP3 ADD DUP1 PUSH1 0x40 MSTORE POP DUP2 ADD SWAP1 PUSH2 0xDD7 SWAP2 SWAP1 PUSH2 0x3B4F JUMP JUMPDEST SWAP1 POP DUP1 PUSH1 0xC0 ADD MLOAD ISZERO PUSH2 0xDEE JUMPI PUSH1 0x5 SWAP3 POP POP POP PUSH2 0xFC4 JUMP JUMPDEST DUP1 PUSH1 0xE0 ADD MLOAD ISZERO PUSH2 0xE03 JUMPI PUSH1 0x2 SWAP3 POP POP POP PUSH2 0xFC4 JUMP JUMPDEST DUP1 PUSH2 0x120 ADD MLOAD ISZERO PUSH2 0xE19 JUMPI PUSH1 0x3 SWAP3 POP POP POP PUSH2 0xFC4 JUMP JUMPDEST DUP1 PUSH2 0x100 ADD MLOAD ISZERO PUSH2 0xE2F JUMPI PUSH1 0x4 SWAP3 POP POP POP PUSH2 0xFC4 JUMP JUMPDEST PUSH0 DUP2 PUSH1 0x80 ADD MLOAD PUSH6 0xFFFFFFFFFFFF AND SWAP1 POP PUSH0 DUP2 SUB PUSH2 0xE83 JUMPI DUP5 PUSH1 0x40 MLOAD PUSH32 0x6AD0607500000000000000000000000000000000000000000000000000000000 DUP2 MSTORE PUSH1 0x4 ADD PUSH2 0xE7A SWAP2 SWAP1 PUSH2 0x32FE JUMP JUMPDEST PUSH1 0x40 MLOAD DUP1 SWAP2 SUB SWAP1 REVERT JUMPDEST PUSH0 TIMESTAMP SWAP1 POP DUP2 DUP2 GT PUSH2 0xE9A JUMPI PUSH0 SWAP5 POP POP POP POP POP PUSH2 0xFC4 JUMP JUMPDEST PUSH0 DUP4 PUSH1 0x20 ADD MLOAD SWAP1 POP PUSH0 DUP2 SWAP1 POP PUSH0 DUP2 PUSH20 0xFFFFFFFFFFFFFFFFFFFFFFFFFFFFFFFFFFFFFFFF AND PUSH4 0x5F8D96DE PUSH1 0x40 MLOAD DUP2 PUSH4 0xFFFFFFFF AND PUSH1 0xE0 SHL DUP2 MSTORE PUSH1 0x4 ADD PUSH1 0x20 PUSH1 0x40 MLOAD DUP1 DUP4 SUB DUP2 DUP7 GAS STATICCALL ISZERO DUP1 ISZERO PUSH2 0xEF0 JUMPI RETURNDATASIZE PUSH0 DUP1 RETURNDATACOPY RETURNDATASIZE PUSH0 REVERT JUMPDEST POP POP POP POP PUSH1 0x40 MLOAD RETURNDATASIZE PUSH1 0x1F NOT PUSH1 0x1F DUP3 ADD AND DUP3 ADD DUP1 PUSH1 0x40 MSTORE POP DUP2 ADD SWAP1 PUSH2 0xF14 SWAP2 SWAP1 PUSH2 0x3B8F JUMP JUMPDEST SWAP1 POP DUP1 DUP5 GT PUSH2 0xF2D JUMPI PUSH1 0x1 SWAP8 POP POP POP POP POP POP POP POP PUSH2 0xFC4 JUMP JUMPDEST PUSH0 PUSH2 0xF37 DUP8 PUSH2 0x2B04 JUMP JUMPDEST SWAP1 POP PUSH0 DUP2 PUSH1 0x5 DUP2 GT ISZERO PUSH2 0xF4D JUMPI PUSH2 0xF4C PUSH2 0x33B3 JUMP JUMPDEST JUMPDEST SWAP1 POP DUP9 PUSH20 0xFFFFFFFFFFFFFFFFFFFFFFFFFFFFFFFFFFFFFFFF AND PUSH4 0x1E9608A8 DUP3 DUP14 PUSH1 0x40 MLOAD DUP4 PUSH4 0xFFFFFFFF AND PUSH1 0xE0 SHL DUP2 MSTORE PUSH1 0x4 ADD PUSH2 0xF8A SWAP3 SWAP2 SWAP1 PUSH2 0x3BBA JUMP JUMPDEST PUSH0 PUSH1 0x40 MLOAD DUP1 DUP4 SUB DUP2 PUSH0 DUP8 DUP1 EXTCODESIZE ISZERO DUP1 ISZERO PUSH2 0xFA1 JUMPI PUSH0 DUP1 REVERT JUMPDEST POP GAS CALL ISZERO DUP1 ISZERO PUSH2 0xFB3 JUMPI RETURNDATASIZE PUSH0 DUP1 RETURNDATACOPY RETURNDATASIZE PUSH0 REVERT JUMPDEST POP POP POP POP DUP2 SWAP10 POP POP POP POP POP POP POP POP POP POP JUMPDEST SWAP2 SWAP1 POP JUMP JUMPDEST PUSH1 0x60 PUSH1 0x40 MLOAD DUP1 PUSH1 0x40 ADD PUSH1 0x40 MSTORE DUP1 PUSH1 0xA DUP2 MSTORE PUSH1 0x20 ADD PUSH32 0x54696D65207374616D7000000000000000000000000000000000000000000000 DUP2 MSTORE POP SWAP1 POP SWAP1 JUMP JUMPDEST TIMESTAMP PUSH32 0x0 PUSH6 0xFFFFFFFFFFFF AND LT ISZERO PUSH2 0x10B0 JUMPI PUSH2 0x103E PUSH2 0x1E9E JUMP JUMPDEST PUSH20 0xFFFFFFFFFFFFFFFFFFFFFFFFFFFFFFFFFFFFFFFF AND CALLER PUSH20 0xFFFFFFFFFFFFFFFFFFFFFFFFFFFFFFFFFFFFFFFF AND EQ PUSH2 0x10AB JUMPI PUSH1 0x40 MLOAD PUSH32 0x8C379A000000000000000000000000000000000000000000000000000000000 DUP2 MSTORE PUSH1 0x4 ADD PUSH2 0x10A2 SWAP1 PUSH2 0x3808 JUMP JUMPDEST PUSH1 0x40 MLOAD DUP1 SWAP2 SUB SWAP1 REVERT JUMPDEST PUSH2 0x1137 JUMP JUMPDEST PUSH2 0x10B8 PUSH2 0x1292 JUMP JUMPDEST PUSH20 0xFFFFFFFFFFFFFFFFFFFFFFFFFFFFFFFFFFFFFFFF AND CALLER PUSH20 0xFFFFFFFFFFFFFFFFFFFFFFFFFFFFFFFFFFFFFFFF AND EQ DUP1 ISZERO PUSH2 0x10F7 JUMPI POP PUSH2 0x10F5 PUSH2 0x1479 JUMP JUMPDEST ISZERO JUMPDEST PUSH2 0x1136 JUMPI PUSH1 0x40 MLOAD PUSH32 0x8C379A000000000000000000000000000000000000000000000000000000000 DUP2 MSTORE PUSH1 0x4 ADD PUSH2 0x112D SWAP1 PUSH2 0x3808 JUMP JUMPDEST PUSH1 0x40 MLOAD DUP1 SWAP2 SUB SWAP1 REVERT JUMPDEST JUMPDEST DUP1 PUSH20 0xFFFFFFFFFFFFFFFFFFFFFFFFFFFFFFFFFFFFFFFF AND PUSH1 0x2 PUSH0 SWAP1 SLOAD SWAP1 PUSH2 0x100 EXP SWAP1 DIV PUSH20 0xFFFFFFFFFFFFFFFFFFFFFFFFFFFFFFFFFFFFFFFF AND PUSH20 0xFFFFFFFFFFFFFFFFFFFFFFFFFFFFFFFFFFFFFFFF AND SUB PUSH2 0x120E JUMPI PUSH1 0x4 PUSH1 0x14 PUSH2 0x100 EXP DUP2 SLOAD SWAP1 PUSH6 0xFFFFFFFFFFFF MUL NOT AND SWAP1 SSTORE PUSH1 0x2 PUSH0 PUSH2 0x100 EXP DUP2 SLOAD SWAP1 PUSH20 0xFFFFFFFFFFFFFFFFFFFFFFFFFFFFFFFFFFFFFFFF MUL NOT AND SWAP1 SSTORE DUP1 PUSH20 0xFFFFFFFFFFFFFFFFFFFFFFFFFFFFFFFFFFFFFFFF AND PUSH32 0xF299F61C7E493F99B20CB36C587CA903D085D5206BFE4452D295711E372DA029 PUSH1 0x40 MLOAD PUSH1 0x40 MLOAD DUP1 SWAP2 SUB SWAP1 LOG2 PUSH2 0x124B JUMP JUMPDEST DUP1 PUSH1 0x40 MLOAD PUSH32 0xC632231500000000000000000000000000000000000000000000000000000000 DUP2 MSTORE PUSH1 0x4 ADD PUSH2 0x1242 SWAP2 SWAP1 PUSH2 0x30C4 JUMP JUMPDEST PUSH1 0x40 MLOAD DUP1 SWAP2 SUB SWAP1 REVERT JUMPDEST POP JUMP JUMPDEST PUSH1 0x60 PUSH1 0x40 MLOAD DUP1 PUSH1 0x40 ADD PUSH1 0x40 MSTORE DUP1 PUSH1 0x1 DUP2 MSTORE PUSH1 0x20 ADD PUSH32 0x3100000000000000000000000000000000000000000000000000000000000000 DUP2 MSTORE POP SWAP1 POP SWAP1 JUMP JUMPDEST PUSH0 TIMESTAMP SWAP1 POP SWAP1 JUMP JUMPDEST PUSH0 PUSH1 0x5 PUSH0 ADD PUSH0 SWAP1 SLOAD SWAP1 PUSH2 0x100 EXP SWAP1 DIV PUSH20 0xFFFFFFFFFFFFFFFFFFFFFFFFFFFFFFFFFFFFFFFF AND SWAP1 POP SWAP1 JUMP JUMPDEST PUSH0 DUP2 PUSH1 0x40 MLOAD PUSH1 0x20 ADD PUSH2 0x12CE SWAP2 SWAP1 PUSH2 0x3C01 JUMP JUMPDEST PUSH1 0x40 MLOAD PUSH1 0x20 DUP2 DUP4 SUB SUB DUP2 MSTORE SWAP1 PUSH1 0x40 MSTORE DUP1 MLOAD SWAP1 PUSH1 0x20 ADD KECCAK256 SWAP1 POP PUSH0 DUP4 SWAP1 POP DUP2 PUSH1 0x40 MLOAD PUSH1 0x20 ADD PUSH2 0x12FA SWAP1 PUSH2 0x3C6F JUMP JUMPDEST PUSH1 0x40 MLOAD PUSH1 0x20 DUP2 DUP4 SUB SUB DUP2 MSTORE SWAP1 PUSH1 0x40 MSTORE DUP1 MLOAD SWAP1 PUSH1 0x20 ADD KECCAK256 SUB PUSH2 0x136D JUMPI DUP1 PUSH1 0xA PUSH0 PUSH2 0x100 EXP DUP2 SLOAD DUP2 PUSH4 0xFFFFFFFF MUL NOT AND SWAP1 DUP4 PUSH4 0xFFFFFFFF AND MUL OR SWAP1 SSTORE POP DUP1 PUSH4 0xFFFFFFFF AND PUSH32 0xCECCF714BC39BDE68A069AE4149980BD5382CB4E6723FBDB6E7723728E4885CE PUSH1 0x40 MLOAD PUSH1 0x40 MLOAD DUP1 SWAP2 SUB SWAP1 LOG2 PUSH2 0x1473 JUMP JUMPDEST DUP2 PUSH1 0x40 MLOAD PUSH1 0x20 ADD PUSH2 0x137D SWAP1 PUSH2 0x3CCD JUMP JUMPDEST PUSH1 0x40 MLOAD PUSH1 0x20 DUP2 DUP4 SUB SUB DUP2 MSTORE SWAP1 PUSH1 0x40 MSTORE DUP1 MLOAD SWAP1 PUSH1 0x20 ADD KECCAK256 SUB PUSH2 0x13F1 JUMPI DUP1 PUSH1 0xA PUSH1 0x4 PUSH2 0x100 EXP DUP2 SLOAD DUP2 PUSH4 0xFFFFFFFF MUL NOT AND SWAP1 DUP4 PUSH4 0xFFFFFFFF AND MUL OR SWAP1 SSTORE POP DUP1 PUSH4 0xFFFFFFFF AND PUSH32 0xDF149C5D5960B920BA24706165B5DCB67E2AC13EC5C3AA0909FA229BDD328D97 PUSH1 0x40 MLOAD PUSH1 0x40 MLOAD DUP1 SWAP2 SUB SWAP1 LOG2 PUSH2 0x1472 JUMP JUMPDEST DUP2 PUSH1 0x40 MLOAD PUSH1 0x20 ADD PUSH2 0x1401 SWAP1 PUSH2 0x3D2B JUMP JUMPDEST PUSH1 0x40 MLOAD PUSH1 0x20 DUP2 DUP4 SUB SUB DUP2 MSTORE SWAP1 PUSH1 0x40 MSTORE DUP1 MLOAD SWAP1 PUSH1 0x20 ADD KECCAK256 SUB PUSH2 0x1471 JUMPI DUP1 PUSH1 0xA PUSH1 0x8 PUSH2 0x100 EXP DUP2 SLOAD DUP2 PUSH4 0xFFFFFFFF MUL NOT AND SWAP1 DUP4 PUSH4 0xFFFFFFFF AND MUL OR SWAP1 SSTORE POP DUP1 PUSH4 0xFFFFFFFF AND PUSH32 0xC6213165F7E768A76A2092906D1174E3B00C99567ACC7E4211898FAE0AE2C33C PUSH1 0x40 MLOAD PUSH1 0x40 MLOAD DUP1 SWAP2 SUB SWAP1 LOG2 JUMPDEST JUMPDEST JUMPDEST POP POP POP POP JUMP JUMPDEST PUSH0 PUSH1 0x5 PUSH0 ADD PUSH1 0x14 SWAP1 SLOAD SWAP1 PUSH2 0x100 EXP SWAP1 DIV PUSH1 0xFF AND SWAP1 POP SWAP1 JUMP JUMPDEST PUSH0 PUSH1 0x60 DUP1 PUSH0 DUP1 PUSH0 PUSH1 0x60 PUSH2 0x14A2 PUSH2 0x2BA1 JUMP JUMPDEST PUSH2 0x14AA PUSH2 0x2BDB JUMP JUMPDEST CHAINID ADDRESS PUSH0 DUP1 SHL PUSH0 PUSH8 0xFFFFFFFFFFFFFFFF DUP2 GT ISZERO PUSH2 0x14C9 JUMPI PUSH2 0x14C8 PUSH2 0x3118 JUMP JUMPDEST JUMPDEST PUSH1 0x40 MLOAD SWAP1 DUP1 DUP3 MSTORE DUP1 PUSH1 0x20 MUL PUSH1 0x20 ADD DUP3 ADD PUSH1 0x40 MSTORE DUP1 ISZERO PUSH2 0x14F7 JUMPI DUP2 PUSH1 0x20 ADD PUSH1 0x20 DUP3 MUL DUP1 CALLDATASIZE DUP4 CALLDATACOPY DUP1 DUP3 ADD SWAP2 POP POP SWAP1 POP JUMPDEST POP PUSH32 0xF00000000000000000000000000000000000000000000000000000000000000 SWAP6 SWAP5 SWAP4 SWAP3 SWAP2 SWAP1 SWAP7 POP SWAP7 POP SWAP7 POP SWAP7 POP SWAP7 POP SWAP7 POP SWAP7 POP SWAP1 SWAP2 SWAP3 SWAP4 SWAP5 SWAP6 SWAP7 JUMP JUMPDEST PUSH0 PUSH2 0x1543 DUP6 DUP6 DUP6 DUP6 PUSH2 0xC3D JUMP JUMPDEST SWAP1 POP PUSH0 PUSH1 0x8 PUSH0 CALLER PUSH20 0xFFFFFFFFFFFFFFFFFFFFFFFFFFFFFFFFFFFFFFFF AND PUSH20 0xFFFFFFFFFFFFFFFFFFFFFFFFFFFFFFFFFFFFFFFF AND DUP2 MSTORE PUSH1 0x20 ADD SWAP1 DUP2 MSTORE PUSH1 0x20 ADD PUSH0 KECCAK256 PUSH0 SWAP1 SLOAD SWAP1 PUSH2 0x100 EXP SWAP1 DIV PUSH20 0xFFFFFFFFFFFFFFFFFFFFFFFFFFFFFFFFFFFFFFFF AND SWAP1 POP PUSH0 PUSH20 0xFFFFFFFFFFFFFFFFFFFFFFFFFFFFFFFFFFFFFFFF AND DUP2 PUSH20 0xFFFFFFFFFFFFFFFFFFFFFFFFFFFFFFFFFFFFFFFF AND EQ PUSH2 0x1742 JUMPI PUSH0 PUSH2 0x15E2 DUP4 PUSH2 0xCFC JUMP JUMPDEST SWAP1 POP PUSH1 0x5 DUP1 DUP2 GT ISZERO PUSH2 0x15F7 JUMPI PUSH2 0x15F6 PUSH2 0x33B3 JUMP JUMPDEST JUMPDEST DUP2 PUSH1 0x5 DUP2 GT ISZERO PUSH2 0x160A JUMPI PUSH2 0x1609 PUSH2 0x33B3 JUMP JUMPDEST JUMPDEST EQ DUP1 PUSH2 0x163A JUMPI POP PUSH1 0x2 PUSH1 0x5 DUP2 GT ISZERO PUSH2 0x1625 JUMPI PUSH2 0x1624 PUSH2 0x33B3 JUMP JUMPDEST JUMPDEST DUP2 PUSH1 0x5 DUP2 GT ISZERO PUSH2 0x1638 JUMPI PUSH2 0x1637 PUSH2 0x33B3 JUMP JUMPDEST JUMPDEST EQ JUMPDEST ISZERO PUSH2 0x167C JUMPI DUP3 PUSH1 0x40 MLOAD PUSH32 0xDF7FE1CD00000000000000000000000000000000000000000000000000000000 DUP2 MSTORE PUSH1 0x4 ADD PUSH2 0x1673 SWAP2 SWAP1 PUSH2 0x32FE JUMP JUMPDEST PUSH1 0x40 MLOAD DUP1 SWAP2 SUB SWAP1 REVERT JUMPDEST PUSH0 DUP3 SWAP1 POP PUSH0 DUP2 PUSH20 0xFFFFFFFFFFFFFFFFFFFFFFFFFFFFFFFFFFFFFFFF AND PUSH4 0x13CF08B DUP7 PUSH1 0x40 MLOAD DUP3 PUSH4 0xFFFFFFFF AND PUSH1 0xE0 SHL DUP2 MSTORE PUSH1 0x4 ADD PUSH2 0x16BA SWAP2 SWAP1 PUSH2 0x32FE JUMP JUMPDEST PUSH2 0x140 PUSH1 0x40 MLOAD DUP1 DUP4 SUB DUP2 DUP7 GAS STATICCALL ISZERO DUP1 ISZERO PUSH2 0x16D6 JUMPI RETURNDATASIZE PUSH0 DUP1 RETURNDATACOPY RETURNDATASIZE PUSH0 REVERT JUMPDEST POP POP POP POP PUSH1 0x40 MLOAD RETURNDATASIZE PUSH1 0x1F NOT PUSH1 0x1F DUP3 ADD AND DUP3 ADD DUP1 PUSH1 0x40 MSTORE POP DUP2 ADD SWAP1 PUSH2 0x16FA SWAP2 SWAP1 PUSH2 0x3B4F JUMP JUMPDEST SWAP1 POP PUSH1 0x1 DUP2 PUSH1 0xE0 ADD SWAP1 ISZERO ISZERO SWAP1 DUP2 ISZERO ISZERO DUP2 MSTORE POP POP DUP5 PUSH32 0x789CF55BE980739DAD1D0699B93B58E806B51C9D96619BFA8FE0A28ABAA7B30C PUSH1 0x40 MLOAD PUSH1 0x40 MLOAD DUP1 SWAP2 SUB SWAP1 LOG2 POP POP POP PUSH2 0x177F JUMP JUMPDEST CALLER PUSH1 0x40 MLOAD PUSH32 0xDA75B54A00000000000000000000000000000000000000000000000000000000 DUP2 MSTORE PUSH1 0x4 ADD PUSH2 0x1776 SWAP2 SWAP1 PUSH2 0x30C4 JUMP JUMPDEST PUSH1 0x40 MLOAD DUP1 SWAP2 SUB SWAP1 REVERT JUMPDEST POP POP POP POP POP POP JUMP JUMPDEST CALLER PUSH20 0xFFFFFFFFFFFFFFFFFFFFFFFFFFFFFFFFFFFFFFFF AND DUP5 PUSH20 0xFFFFFFFFFFFFFFFFFFFFFFFFFFFFFFFFFFFFFFFF AND SUB PUSH2 0x1A12 JUMPI PUSH0 PUSH2 0x17C7 DUP6 DUP6 DUP6 DUP6 PUSH2 0xC3D JUMP JUMPDEST SWAP1 POP PUSH0 PUSH2 0x17D3 DUP3 PUSH2 0xCFC JUMP JUMPDEST SWAP1 POP PUSH1 0x4 PUSH1 0x5 DUP2 GT ISZERO PUSH2 0x17E9 JUMPI PUSH2 0x17E8 PUSH2 0x33B3 JUMP JUMPDEST JUMPDEST DUP2 PUSH1 0x5 DUP2 GT ISZERO PUSH2 0x17FC JUMPI PUSH2 0x17FB PUSH2 0x33B3 JUMP JUMPDEST JUMPDEST SUB PUSH2 0x1970 JUMPI PUSH0 PUSH1 0x8 PUSH0 CALLER PUSH20 0xFFFFFFFFFFFFFFFFFFFFFFFFFFFFFFFFFFFFFFFF AND PUSH20 0xFFFFFFFFFFFFFFFFFFFFFFFFFFFFFFFFFFFFFFFF AND DUP2 MSTORE PUSH1 0x20 ADD SWAP1 DUP2 MSTORE PUSH1 0x20 ADD PUSH0 KECCAK256 PUSH0 SWAP1 SLOAD SWAP1 PUSH2 0x100 EXP SWAP1 DIV PUSH20 0xFFFFFFFFFFFFFFFFFFFFFFFFFFFFFFFFFFFFFFFF AND SWAP1 POP DUP1 PUSH20 0xFFFFFFFFFFFFFFFFFFFFFFFFFFFFFFFFFFFFFFFF AND PUSH4 0x1E9608A8 PUSH1 0x5 DUP6 PUSH1 0x40 MLOAD DUP4 PUSH4 0xFFFFFFFF AND PUSH1 0xE0 SHL DUP2 MSTORE PUSH1 0x4 ADD PUSH2 0x189D SWAP3 SWAP2 SWAP1 PUSH2 0x3D81 JUMP JUMPDEST PUSH0 PUSH1 0x40 MLOAD DUP1 DUP4 SUB DUP2 PUSH0 DUP8 DUP1 EXTCODESIZE ISZERO DUP1 ISZERO PUSH2 0x18B4 JUMPI PUSH0 DUP1 REVERT JUMPDEST POP GAS CALL ISZERO DUP1 ISZERO PUSH2 0x18C6 JUMPI RETURNDATASIZE PUSH0 DUP1 RETURNDATACOPY RETURNDATASIZE PUSH0 REVERT JUMPDEST POP POP POP POP DUP3 PUSH1 0x8 PUSH0 CALLER PUSH20 0xFFFFFFFFFFFFFFFFFFFFFFFFFFFFFFFFFFFFFFFF AND PUSH20 0xFFFFFFFFFFFFFFFFFFFFFFFFFFFFFFFFFFFFFFFF AND DUP2 MSTORE PUSH1 0x20 ADD SWAP1 DUP2 MSTORE PUSH1 0x20 ADD PUSH0 KECCAK256 PUSH0 SWAP1 SLOAD SWAP1 PUSH2 0x100 EXP SWAP1 DIV PUSH20 0xFFFFFFFFFFFFFFFFFFFFFFFFFFFFFFFFFFFFFFFF AND PUSH20 0xFFFFFFFFFFFFFFFFFFFFFFFFFFFFFFFFFFFFFFFF AND PUSH32 0x63D1CC08AAAE6E4C1E85034D4067073EA84D1113B6281A146A76156A7B3A9A31 PUSH1 0x40 MLOAD PUSH1 0x40 MLOAD DUP1 SWAP2 SUB SWAP1 LOG3 POP PUSH2 0x1A0B JUMP JUMPDEST PUSH1 0x8 PUSH0 CALLER PUSH20 0xFFFFFFFFFFFFFFFFFFFFFFFFFFFFFFFFFFFFFFFF AND PUSH20 0xFFFFFFFFFFFFFFFFFFFFFFFFFFFFFFFFFFFFFFFF AND DUP2 MSTORE PUSH1 0x20 ADD SWAP1 DUP2 MSTORE PUSH1 0x20 ADD PUSH0 KECCAK256 PUSH0 SWAP1 SLOAD SWAP1 PUSH2 0x100 EXP SWAP1 DIV PUSH20 0xFFFFFFFFFFFFFFFFFFFFFFFFFFFFFFFFFFFFFFFF AND DUP3 PUSH1 0x40 MLOAD PUSH32 0x5F1E5AB600000000000000000000000000000000000000000000000000000000 DUP2 MSTORE PUSH1 0x4 ADD PUSH2 0x1A02 SWAP3 SWAP2 SWAP1 PUSH2 0x3DA8 JUMP JUMPDEST PUSH1 0x40 MLOAD DUP1 SWAP2 SUB SWAP1 REVERT JUMPDEST POP POP PUSH2 0x1A4F JUMP JUMPDEST CALLER PUSH1 0x40 MLOAD PUSH32 0xDA75B54A00000000000000000000000000000000000000000000000000000000 DUP2 MSTORE PUSH1 0x4 ADD PUSH2 0x1A46 SWAP2 SWAP1 PUSH2 0x30C4 JUMP JUMPDEST PUSH1 0x40 MLOAD DUP1 SWAP2 SUB SWAP1 REVERT JUMPDEST POP POP POP POP JUMP JUMPDEST TIMESTAMP PUSH32 0x0 PUSH6 0xFFFFFFFFFFFF AND LT ISZERO PUSH2 0x1AFF JUMPI PUSH2 0x1A8D PUSH2 0x1E9E JUMP JUMPDEST PUSH20 0xFFFFFFFFFFFFFFFFFFFFFFFFFFFFFFFFFFFFFFFF AND CALLER PUSH20 0xFFFFFFFFFFFFFFFFFFFFFFFFFFFFFFFFFFFFFFFF AND EQ PUSH2 0x1AFA JUMPI PUSH1 0x40 MLOAD PUSH32 0x8C379A000000000000000000000000000000000000000000000000000000000 DUP2 MSTORE PUSH1 0x4 ADD PUSH2 0x1AF1 SWAP1 PUSH2 0x3808 JUMP JUMPDEST PUSH1 0x40 MLOAD DUP1 SWAP2 SUB SWAP1 REVERT JUMPDEST PUSH2 0x1B86 JUMP JUMPDEST PUSH2 0x1B07 PUSH2 0x1292 JUMP JUMPDEST PUSH20 0xFFFFFFFFFFFFFFFFFFFFFFFFFFFFFFFFFFFFFFFF AND CALLER PUSH20 0xFFFFFFFFFFFFFFFFFFFFFFFFFFFFFFFFFFFFFFFF AND EQ DUP1 ISZERO PUSH2 0x1B46 JUMPI POP PUSH2 0x1B44 PUSH2 0x1479 JUMP JUMPDEST ISZERO JUMPDEST PUSH2 0x1B85 JUMPI PUSH1 0x40 MLOAD PUSH32 0x8C379A000000000000000000000000000000000000000000000000000000000 DUP2 MSTORE PUSH1 0x4 ADD PUSH2 0x1B7C SWAP1 PUSH2 0x3808 JUMP JUMPDEST PUSH1 0x40 MLOAD DUP1 SWAP2 SUB SWAP1 REVERT JUMPDEST JUMPDEST TIMESTAMP PUSH1 0x4 PUSH1 0x14 SWAP1 SLOAD SWAP1 PUSH2 0x100 EXP SWAP1 DIV PUSH6 0xFFFFFFFFFFFF AND PUSH6 0xFFFFFFFFFFFF AND LT ISZERO PUSH2 0x1CE7 JUMPI PUSH0 PUSH1 0x4 PUSH1 0x14 SWAP1 SLOAD SWAP1 PUSH2 0x100 EXP SWAP1 DIV PUSH6 0xFFFFFFFFFFFF AND PUSH6 0xFFFFFFFFFFFF AND SUB PUSH2 0x1C08 JUMPI PUSH1 0x40 MLOAD PUSH32 0x8C379A000000000000000000000000000000000000000000000000000000000 DUP2 MSTORE PUSH1 0x4 ADD PUSH2 0x1BFF SWAP1 PUSH2 0x3E19 JUMP JUMPDEST PUSH1 0x40 MLOAD DUP1 SWAP2 SUB SWAP1 REVERT JUMPDEST DUP1 PUSH20 0xFFFFFFFFFFFFFFFFFFFFFFFFFFFFFFFFFFFFFFFF AND PUSH1 0x2 PUSH0 SWAP1 SLOAD SWAP1 PUSH2 0x100 EXP SWAP1 DIV PUSH20 0xFFFFFFFFFFFFFFFFFFFFFFFFFFFFFFFFFFFFFFFF AND PUSH20 0xFFFFFFFFFFFFFFFFFFFFFFFFFFFFFFFFFFFFFFFF AND SUB PUSH2 0x1CA5 JUMPI PUSH1 0x4 PUSH1 0x14 PUSH2 0x100 EXP DUP2 SLOAD SWAP1 PUSH6 0xFFFFFFFFFFFF MUL NOT AND SWAP1 SSTORE PUSH1 0x2 PUSH0 PUSH2 0x100 EXP DUP2 SLOAD SWAP1 PUSH20 0xFFFFFFFFFFFFFFFFFFFFFFFFFFFFFFFFFFFFFFFF MUL NOT AND SWAP1 SSTORE PUSH2 0x1CA0 DUP2 PUSH2 0x29FB JUMP JUMPDEST PUSH2 0x1CE2 JUMP JUMPDEST DUP1 PUSH1 0x40 MLOAD PUSH32 0xC632231500000000000000000000000000000000000000000000000000000000 DUP2 MSTORE PUSH1 0x4 ADD PUSH2 0x1CD9 SWAP2 SWAP1 PUSH2 0x30C4 JUMP JUMPDEST PUSH1 0x40 MLOAD DUP1 SWAP2 SUB SWAP1 REVERT JUMPDEST PUSH2 0x1D43 JUMP JUMPDEST TIMESTAMP PUSH1 0x4 PUSH1 0x14 SWAP1 SLOAD SWAP1 PUSH2 0x100 EXP SWAP1 DIV PUSH6 0xFFFFFFFFFFFF AND PUSH2 0x1D07 SWAP2 SWAP1 PUSH2 0x3E37 JUMP JUMPDEST PUSH1 0x40 MLOAD PUSH32 0x223A6CBB00000000000000000000000000000000000000000000000000000000 DUP2 MSTORE PUSH1 0x4 ADD PUSH2 0x1D3A SWAP2 SWAP1 PUSH2 0x3E7F JUMP JUMPDEST PUSH1 0x40 MLOAD DUP1 SWAP2 SUB SWAP1 REVERT JUMPDEST POP JUMP JUMPDEST TIMESTAMP PUSH32 0x0 PUSH6 0xFFFFFFFFFFFF AND LT ISZERO PUSH2 0x1DF0 JUMPI PUSH2 0x1D7E PUSH2 0x1E9E JUMP JUMPDEST PUSH20 0xFFFFFFFFFFFFFFFFFFFFFFFFFFFFFFFFFFFFFFFF AND CALLER PUSH20 0xFFFFFFFFFFFFFFFFFFFFFFFFFFFFFFFFFFFFFFFF AND EQ PUSH2 0x1DEB JUMPI PUSH1 0x40 MLOAD PUSH32 0x8C379A000000000000000000000000000000000000000000000000000000000 DUP2 MSTORE PUSH1 0x4 ADD PUSH2 0x1DE2 SWAP1 PUSH2 0x3808 JUMP JUMPDEST PUSH1 0x40 MLOAD DUP1 SWAP2 SUB SWAP1 REVERT JUMPDEST PUSH2 0x1E77 JUMP JUMPDEST PUSH2 0x1DF8 PUSH2 0x1292 JUMP JUMPDEST PUSH20 0xFFFFFFFFFFFFFFFFFFFFFFFFFFFFFFFFFFFFFFFF AND CALLER PUSH20 0xFFFFFFFFFFFFFFFFFFFFFFFFFFFFFFFFFFFFFFFF AND EQ DUP1 ISZERO PUSH2 0x1E37 JUMPI POP PUSH2 0x1E35 PUSH2 0x1479 JUMP JUMPDEST ISZERO JUMPDEST PUSH2 0x1E76 JUMPI PUSH1 0x40 MLOAD PUSH32 0x8C379A000000000000000000000000000000000000000000000000000000000 DUP2 MSTORE PUSH1 0x4 ADD PUSH2 0x1E6D SWAP1 PUSH2 0x3808 JUMP JUMPDEST PUSH1 0x40 MLOAD DUP1 SWAP2 SUB SWAP1 REVERT JUMPDEST JUMPDEST PUSH2 0x1E80 DUP2 PUSH2 0x29DC JUMP JUMPDEST POP JUMP JUMPDEST PUSH0 PUSH1 0x6 PUSH0 ADD PUSH1 0x15 SWAP1 SLOAD SWAP1 PUSH2 0x100 EXP SWAP1 DIV PUSH4 0xFFFFFFFF AND SWAP1 POP SWAP1 JUMP JUMPDEST PUSH0 PUSH1 0x7 PUSH0 ADD PUSH0 SWAP1 SLOAD SWAP1 PUSH2 0x100 EXP SWAP1 DIV PUSH20 0xFFFFFFFFFFFFFFFFFFFFFFFFFFFFFFFFFFFFFFFF AND SWAP1 POP SWAP1 JUMP JUMPDEST PUSH0 CALLER PUSH20 0xFFFFFFFFFFFFFFFFFFFFFFFFFFFFFFFFFFFFFFFF AND DUP5 PUSH20 0xFFFFFFFFFFFFFFFFFFFFFFFFFFFFFFFFFFFFFFFF AND EQ PUSH2 0x1F37 JUMPI PUSH1 0x40 MLOAD PUSH32 0x8C379A000000000000000000000000000000000000000000000000000000000 DUP2 MSTORE PUSH1 0x4 ADD PUSH2 0x1F2E SWAP1 PUSH2 0x3EE2 JUMP JUMPDEST PUSH1 0x40 MLOAD DUP1 SWAP2 SUB SWAP1 REVERT JUMPDEST PUSH0 PUSH1 0x8 PUSH0 DUP7 PUSH20 0xFFFFFFFFFFFFFFFFFFFFFFFFFFFFFFFFFFFFFFFF AND PUSH20 0xFFFFFFFFFFFFFFFFFFFFFFFFFFFFFFFFFFFFFFFF AND DUP2 MSTORE PUSH1 0x20 ADD SWAP1 DUP2 MSTORE PUSH1 0x20 ADD PUSH0 KECCAK256 PUSH0 SWAP1 SLOAD SWAP1 PUSH2 0x100 EXP SWAP1 DIV PUSH20 0xFFFFFFFFFFFFFFFFFFFFFFFFFFFFFFFFFFFFFFFF AND SWAP1 POP PUSH0 DUP4 SWAP1 POP DUP1 PUSH20 0xFFFFFFFFFFFFFFFFFFFFFFFFFFFFFFFFFFFFFFFF AND PUSH4 0xEC5BF07B PUSH1 0x40 MLOAD DUP2 PUSH4 0xFFFFFFFF AND PUSH1 0xE0 SHL DUP2 MSTORE PUSH1 0x4 ADD PUSH1 0x20 PUSH1 0x40 MLOAD DUP1 DUP4 SUB DUP2 DUP7 GAS STATICCALL ISZERO DUP1 ISZERO PUSH2 0x1FE4 JUMPI RETURNDATASIZE PUSH0 DUP1 RETURNDATACOPY RETURNDATASIZE PUSH0 REVERT JUMPDEST POP POP POP POP PUSH1 0x40 MLOAD RETURNDATASIZE PUSH1 0x1F NOT PUSH1 0x1F DUP3 ADD AND DUP3 ADD DUP1 PUSH1 0x40 MSTORE POP DUP2 ADD SWAP1 PUSH2 0x2008 SWAP2 SWAP1 PUSH2 0x3B8F JUMP JUMPDEST SWAP3 POP PUSH0 DUP3 PUSH20 0xFFFFFFFFFFFFFFFFFFFFFFFFFFFFFFFFFFFFFFFF AND PUSH4 0x13CF08B DUP6 PUSH1 0x40 MLOAD DUP3 PUSH4 0xFFFFFFFF AND PUSH1 0xE0 SHL DUP2 MSTORE PUSH1 0x4 ADD PUSH2 0x2044 SWAP2 SWAP1 PUSH2 0x32FE JUMP JUMPDEST PUSH2 0x140 PUSH1 0x40 MLOAD DUP1 DUP4 SUB DUP2 DUP7 GAS STATICCALL ISZERO DUP1 ISZERO PUSH2 0x2060 JUMPI RETURNDATASIZE PUSH0 DUP1 RETURNDATACOPY RETURNDATASIZE PUSH0 REVERT JUMPDEST POP POP POP POP PUSH1 0x40 MLOAD RETURNDATASIZE PUSH1 0x1F NOT PUSH1 0x1F DUP3 ADD AND DUP3 ADD DUP1 PUSH1 0x40 MSTORE POP DUP2 ADD SWAP1 PUSH2 0x2084 SWAP2 SWAP1 PUSH2 0x3B4F JUMP JUMPDEST SWAP1 POP PUSH0 DUP2 PUSH1 0x80 ADD MLOAD PUSH6 0xFFFFFFFFFFFF AND EQ PUSH2 0x20D6 JUMPI DUP4 PUSH1 0x40 MLOAD PUSH32 0x4ACE252500000000000000000000000000000000000000000000000000000000 DUP2 MSTORE PUSH1 0x4 ADD PUSH2 0x20CD SWAP2 SWAP1 PUSH2 0x32FE JUMP JUMPDEST PUSH1 0x40 MLOAD DUP1 SWAP2 SUB SWAP1 REVERT JUMPDEST PUSH0 DUP3 PUSH20 0xFFFFFFFFFFFFFFFFFFFFFFFFFFFFFFFFFFFFFFFF AND PUSH4 0xBC33C7D7 PUSH1 0x40 MLOAD DUP2 PUSH4 0xFFFFFFFF AND PUSH1 0xE0 SHL DUP2 MSTORE PUSH1 0x4 ADD PUSH0 PUSH1 0x40 MLOAD DUP1 DUP4 SUB DUP2 DUP7 GAS STATICCALL ISZERO DUP1 ISZERO PUSH2 0x211F JUMPI RETURNDATASIZE PUSH0 DUP1 RETURNDATACOPY RETURNDATASIZE PUSH0 REVERT JUMPDEST POP POP POP POP PUSH1 0x40 MLOAD RETURNDATASIZE PUSH0 DUP3 RETURNDATACOPY RETURNDATASIZE PUSH1 0x1F NOT PUSH1 0x1F DUP3 ADD AND DUP3 ADD DUP1 PUSH1 0x40 MSTORE POP DUP2 ADD SWAP1 PUSH2 0x2147 SWAP2 SWAP1 PUSH2 0x3FB2 JUMP JUMPDEST SWAP4 POP POP POP POP ADDRESS PUSH20 0xFFFFFFFFFFFFFFFFFFFFFFFFFFFFFFFFFFFFFFFF AND DUP2 PUSH20 0xFFFFFFFFFFFFFFFFFFFFFFFFFFFFFFFFFFFFFFFF AND EQ PUSH2 0x21BC JUMPI DUP1 PUSH1 0x40 MLOAD PUSH32 0x4E5C69DD00000000000000000000000000000000000000000000000000000000 DUP2 MSTORE PUSH1 0x4 ADD PUSH2 0x21B3 SWAP2 SWAP1 PUSH2 0x30C4 JUMP JUMPDEST PUSH1 0x40 MLOAD DUP1 SWAP2 SUB SWAP1 REVERT JUMPDEST PUSH0 DUP1 PUSH0 DUP6 PUSH20 0xFFFFFFFFFFFFFFFFFFFFFFFFFFFFFFFFFFFFFFFF AND PUSH4 0x4731CA2B PUSH1 0x40 MLOAD DUP2 PUSH4 0xFFFFFFFF AND PUSH1 0xE0 SHL DUP2 MSTORE PUSH1 0x4 ADD PUSH1 0x60 PUSH1 0x40 MLOAD DUP1 DUP4 SUB DUP2 DUP7 GAS STATICCALL ISZERO DUP1 ISZERO PUSH2 0x2208 JUMPI RETURNDATASIZE PUSH0 DUP1 RETURNDATACOPY RETURNDATASIZE PUSH0 REVERT JUMPDEST POP POP POP POP PUSH1 0x40 MLOAD RETURNDATASIZE PUSH1 0x1F NOT PUSH1 0x1F DUP3 ADD AND DUP3 ADD DUP1 PUSH1 0x40 MSTORE POP DUP2 ADD SWAP1 PUSH2 0x222C SWAP2 SWAP1 PUSH2 0x404E JUMP JUMPDEST SWAP3 POP SWAP3 POP SWAP3 POP DUP3 PUSH20 0xFFFFFFFFFFFFFFFFFFFFFFFFFFFFFFFFFFFFFFFF AND DUP12 PUSH20 0xFFFFFFFFFFFFFFFFFFFFFFFFFFFFFFFFFFFFFFFF AND EQ ISZERO DUP1 PUSH2 0x2299 JUMPI POP DUP2 PUSH20 0xFFFFFFFFFFFFFFFFFFFFFFFFFFFFFFFFFFFFFFFF AND DUP11 PUSH20 0xFFFFFFFFFFFFFFFFFFFFFFFFFFFFFFFFFFFFFFFF AND EQ ISZERO JUMPDEST DUP1 PUSH2 0x22A4 JUMPI POP DUP1 DUP13 EQ ISZERO JUMPDEST ISZERO PUSH2 0x22EA JUMPI DUP3 DUP3 DUP3 PUSH1 0x40 MLOAD PUSH32 0xCB57CBF900000000000000000000000000000000000000000000000000000000 DUP2 MSTORE PUSH1 0x4 ADD PUSH2 0x22E1 SWAP4 SWAP3 SWAP2 SWAP1 PUSH2 0x409E JUMP JUMPDEST PUSH1 0x40 MLOAD DUP1 SWAP2 SUB SWAP1 REVERT JUMPDEST PUSH0 DUP1 PUSH0 DUP1 DUP10 PUSH20 0xFFFFFFFFFFFFFFFFFFFFFFFFFFFFFFFFFFFFFFFF AND PUSH4 0xB3A05246 PUSH1 0x40 MLOAD DUP2 PUSH4 0xFFFFFFFF AND PUSH1 0xE0 SHL DUP2 MSTORE PUSH1 0x4 ADD PUSH1 0x80 PUSH1 0x40 MLOAD DUP1 DUP4 SUB DUP2 DUP7 GAS STATICCALL ISZERO DUP1 ISZERO PUSH2 0x2337 JUMPI RETURNDATASIZE PUSH0 DUP1 RETURNDATACOPY RETURNDATASIZE PUSH0 REVERT JUMPDEST POP POP POP POP PUSH1 0x40 MLOAD RETURNDATASIZE PUSH1 0x1F NOT PUSH1 0x1F DUP3 ADD AND DUP3 ADD DUP1 PUSH1 0x40 MSTORE POP DUP2 ADD SWAP1 PUSH2 0x235B SWAP2 SWAP1 PUSH2 0x40D3 JUMP JUMPDEST SWAP4 POP SWAP4 POP SWAP4 POP SWAP4 POP PUSH2 0x236C DUP5 PUSH2 0x2C16 JUMP JUMPDEST PUSH2 0x23AD JUMPI DUP4 PUSH1 0x40 MLOAD PUSH32 0x95FF727F00000000000000000000000000000000000000000000000000000000 DUP2 MSTORE PUSH1 0x4 ADD PUSH2 0x23A4 SWAP2 SWAP1 PUSH2 0x4146 JUMP JUMPDEST PUSH1 0x40 MLOAD DUP1 SWAP2 SUB SWAP1 REVERT JUMPDEST PUSH1 0xA PUSH0 SWAP1 SLOAD SWAP1 PUSH2 0x100 EXP SWAP1 DIV PUSH4 0xFFFFFFFF AND PUSH4 0xFFFFFFFF AND DUP4 PUSH4 0xFFFFFFFF AND LT DUP1 PUSH2 0x2402 JUMPI POP PUSH1 0xA PUSH1 0x8 SWAP1 SLOAD SWAP1 PUSH2 0x100 EXP SWAP1 DIV PUSH4 0xFFFFFFFF AND PUSH4 0xFFFFFFFF AND TIMESTAMP PUSH2 0x23F7 SWAP2 SWAP1 PUSH2 0x38DB JUMP JUMPDEST DUP3 PUSH6 0xFFFFFFFFFFFF AND LT JUMPDEST DUP1 PUSH2 0x242C JUMPI POP PUSH1 0xA PUSH1 0x4 SWAP1 SLOAD SWAP1 PUSH2 0x100 EXP SWAP1 DIV PUSH4 0xFFFFFFFF AND PUSH4 0xFFFFFFFF AND DUP2 PUSH6 0xFFFFFFFFFFFF AND LT JUMPDEST ISZERO PUSH2 0x2472 JUMPI DUP3 DUP3 DUP3 PUSH1 0x40 MLOAD PUSH32 0x5B93D0DC00000000000000000000000000000000000000000000000000000000 DUP2 MSTORE PUSH1 0x4 ADD PUSH2 0x2469 SWAP4 SWAP3 SWAP2 SWAP1 PUSH2 0x415F JUMP JUMPDEST PUSH1 0x40 MLOAD DUP1 SWAP2 SUB SWAP1 REVERT JUMPDEST PUSH0 DUP14 SWAP1 POP DUP1 PUSH20 0xFFFFFFFFFFFFFFFFFFFFFFFFFFFFFFFFFFFFFFFF AND PUSH32 0xAB14F904FB707B2337015C668E6429CA3170390B1C36260D7739566B9C822A5 PUSH1 0x40 MLOAD PUSH1 0x40 MLOAD DUP1 SWAP2 SUB SWAP1 LOG2 DUP12 PUSH20 0xFFFFFFFFFFFFFFFFFFFFFFFFFFFFFFFFFFFFFFFF AND PUSH4 0x4A9C7CAA DUP15 DUP8 DUP8 DUP8 DUP8 DUP14 DUP9 PUSH1 0x40 MLOAD DUP9 PUSH4 0xFFFFFFFF AND PUSH1 0xE0 SHL DUP2 MSTORE PUSH1 0x4 ADD PUSH2 0x24FE SWAP8 SWAP7 SWAP6 SWAP5 SWAP4 SWAP3 SWAP2 SWAP1 PUSH2 0x4194 JUMP JUMPDEST PUSH0 PUSH1 0x40 MLOAD DUP1 DUP4 SUB DUP2 PUSH0 DUP8 DUP1 EXTCODESIZE ISZERO DUP1 ISZERO PUSH2 0x2515 JUMPI PUSH0 DUP1 REVERT JUMPDEST POP GAS CALL ISZERO DUP1 ISZERO PUSH2 0x2527 JUMPI RETURNDATASIZE PUSH0 DUP1 RETURNDATACOPY RETURNDATASIZE PUSH0 REVERT JUMPDEST POP POP POP POP DUP13 PUSH32 0xABF79943A752FAB9EF8890892A82188E44E66A2CD2D8E411AE3EF82475AE49C8 PUSH1 0x40 MLOAD PUSH1 0x40 MLOAD DUP1 SWAP2 SUB SWAP1 LOG2 POP POP POP POP POP POP POP POP POP POP POP POP SWAP5 SWAP4 POP POP POP POP JUMP JUMPDEST TIMESTAMP PUSH32 0x0 PUSH6 0xFFFFFFFFFFFF AND LT ISZERO PUSH2 0x2616 JUMPI PUSH2 0x25A4 PUSH2 0x1E9E JUMP JUMPDEST PUSH20 0xFFFFFFFFFFFFFFFFFFFFFFFFFFFFFFFFFFFFFFFF AND CALLER PUSH20 0xFFFFFFFFFFFFFFFFFFFFFFFFFFFFFFFFFFFFFFFF AND EQ PUSH2 0x2611 JUMPI PUSH1 0x40 MLOAD PUSH32 0x8C379A000000000000000000000000000000000000000000000000000000000 DUP2 MSTORE PUSH1 0x4 ADD PUSH2 0x2608 SWAP1 PUSH2 0x3808 JUMP JUMPDEST PUSH1 0x40 MLOAD DUP1 SWAP2 SUB SWAP1 REVERT JUMPDEST PUSH2 0x269D JUMP JUMPDEST PUSH2 0x261E PUSH2 0x1292 JUMP JUMPDEST PUSH20 0xFFFFFFFFFFFFFFFFFFFFFFFFFFFFFFFFFFFFFFFF AND CALLER PUSH20 0xFFFFFFFFFFFFFFFFFFFFFFFFFFFFFFFFFFFFFFFF AND EQ DUP1 ISZERO PUSH2 0x265D JUMPI POP PUSH2 0x265B PUSH2 0x1479 JUMP JUMPDEST ISZERO JUMPDEST PUSH2 0x269C JUMPI PUSH1 0x40 MLOAD PUSH32 0x8C379A000000000000000000000000000000000000000000000000000000000 DUP2 MSTORE PUSH1 0x4 ADD PUSH2 0x2693 SWAP1 PUSH2 0x3808 JUMP JUMPDEST PUSH1 0x40 MLOAD DUP1 SWAP2 SUB SWAP1 REVERT JUMPDEST JUMPDEST PUSH0 DUP2 PUSH20 0xFFFFFFFFFFFFFFFFFFFFFFFFFFFFFFFFFFFFFFFF AND EXTCODESIZE GT ISZERO PUSH2 0x2744 JUMPI DUP1 PUSH1 0x3 PUSH0 PUSH2 0x100 EXP DUP2 SLOAD DUP2 PUSH20 0xFFFFFFFFFFFFFFFFFFFFFFFFFFFFFFFFFFFFFFFF MUL NOT AND SWAP1 DUP4 PUSH20 0xFFFFFFFFFFFFFFFFFFFFFFFFFFFFFFFFFFFFFFFF AND MUL OR SWAP1 SSTORE POP DUP1 PUSH20 0xFFFFFFFFFFFFFFFFFFFFFFFFFFFFFFFFFFFFFFFF AND PUSH32 0xE8D8E3C7C3EBEC0C177D0FE22D223F8B5071DB39155104808D45027E368BA77A PUSH1 0x40 MLOAD PUSH1 0x40 MLOAD DUP1 SWAP2 SUB SWAP1 LOG2 PUSH2 0x2781 JUMP JUMPDEST DUP1 PUSH1 0x40 MLOAD PUSH32 0x84DBC6CB00000000000000000000000000000000000000000000000000000000 DUP2 MSTORE PUSH1 0x4 ADD PUSH2 0x2778 SWAP2 SWAP1 PUSH2 0x30C4 JUMP JUMPDEST PUSH1 0x40 MLOAD DUP1 SWAP2 SUB SWAP1 REVERT JUMPDEST POP JUMP JUMPDEST PUSH0 SWAP4 SWAP3 POP POP POP JUMP JUMPDEST PUSH0 ADDRESS SWAP1 POP SWAP1 JUMP JUMPDEST PUSH2 0x279B PUSH2 0x1292 JUMP JUMPDEST PUSH20 0xFFFFFFFFFFFFFFFFFFFFFFFFFFFFFFFFFFFFFFFF AND CALLER PUSH20 0xFFFFFFFFFFFFFFFFFFFFFFFFFFFFFFFFFFFFFFFF AND EQ DUP1 ISZERO PUSH2 0x27DA JUMPI POP PUSH2 0x27D8 PUSH2 0x1479 JUMP JUMPDEST ISZERO JUMPDEST PUSH2 0x2819 JUMPI PUSH1 0x40 MLOAD PUSH32 0x8C379A000000000000000000000000000000000000000000000000000000000 DUP2 MSTORE PUSH1 0x4 ADD PUSH2 0x2810 SWAP1 PUSH2 0x3808 JUMP JUMPDEST PUSH1 0x40 MLOAD DUP1 SWAP2 SUB SWAP1 REVERT JUMPDEST DUP1 PUSH20 0xFFFFFFFFFFFFFFFFFFFFFFFFFFFFFFFFFFFFFFFF AND PUSH1 0x3 PUSH0 SWAP1 SLOAD SWAP1 PUSH2 0x100 EXP SWAP1 DIV PUSH20 0xFFFFFFFFFFFFFFFFFFFFFFFFFFFFFFFFFFFFFFFF AND PUSH20 0xFFFFFFFFFFFFFFFFFFFFFFFFFFFFFFFFFFFFFFFF AND SUB PUSH2 0x299C JUMPI PUSH1 0x3 PUSH0 PUSH2 0x100 EXP DUP2 SLOAD SWAP1 PUSH20 0xFFFFFFFFFFFFFFFFFFFFFFFFFFFFFFFFFFFFFFFF MUL NOT AND SWAP1 SSTORE DUP1 PUSH1 0x6 PUSH0 ADD PUSH0 PUSH2 0x100 EXP DUP2 SLOAD DUP2 PUSH20 0xFFFFFFFFFFFFFFFFFFFFFFFFFFFFFFFFFFFFFFFF MUL NOT AND SWAP1 DUP4 PUSH20 0xFFFFFFFFFFFFFFFFFFFFFFFFFFFFFFFFFFFFFFFF AND MUL OR SWAP1 SSTORE POP PUSH1 0x6 PUSH0 ADD PUSH1 0x15 DUP2 DUP2 SWAP1 SLOAD SWAP1 PUSH2 0x100 EXP SWAP1 DIV PUSH4 0xFFFFFFFF AND DUP1 SWAP3 SWAP2 SWAP1 PUSH2 0x28F7 SWAP1 PUSH2 0x38B0 JUMP JUMPDEST SWAP2 SWAP1 PUSH2 0x100 EXP DUP2 SLOAD DUP2 PUSH4 0xFFFFFFFF MUL NOT AND SWAP1 DUP4 PUSH4 0xFFFFFFFF AND MUL OR SWAP1 SSTORE POP POP PUSH1 0x6 PUSH0 ADD PUSH1 0x15 SWAP1 SLOAD SWAP1 PUSH2 0x100 EXP SWAP1 DIV PUSH4 0xFFFFFFFF AND PUSH4 0xFFFFFFFF AND PUSH1 0x6 PUSH0 ADD PUSH0 SWAP1 SLOAD SWAP1 PUSH2 0x100 EXP SWAP1 DIV PUSH20 0xFFFFFFFFFFFFFFFFFFFFFFFFFFFFFFFFFFFFFFFF AND PUSH20 0xFFFFFFFFFFFFFFFFFFFFFFFFFFFFFFFFFFFFFFFF AND PUSH32 0x5E86008A8467D1EFCCFE6CB6BD49BA7278D6AF2745A1E6994E443322A4237093 PUSH1 0x40 MLOAD PUSH1 0x40 MLOAD DUP1 SWAP2 SUB SWAP1 LOG3 PUSH2 0x29D9 JUMP JUMPDEST DUP1 PUSH1 0x40 MLOAD PUSH32 0x84DBC6CB00000000000000000000000000000000000000000000000000000000 DUP2 MSTORE PUSH1 0x4 ADD PUSH2 0x29D0 SWAP2 SWAP1 PUSH2 0x30C4 JUMP JUMPDEST PUSH1 0x40 MLOAD DUP1 SWAP2 SUB SWAP1 REVERT JUMPDEST POP JUMP JUMPDEST DUP1 PUSH1 0x5 PUSH0 ADD PUSH1 0x14 PUSH2 0x100 EXP DUP2 SLOAD DUP2 PUSH1 0xFF MUL NOT AND SWAP1 DUP4 ISZERO ISZERO MUL OR SWAP1 SSTORE POP POP JUMP JUMPDEST DUP1 PUSH1 0x7 PUSH0 ADD PUSH0 PUSH2 0x100 EXP DUP2 SLOAD DUP2 PUSH20 0xFFFFFFFFFFFFFFFFFFFFFFFFFFFFFFFFFFFFFFFF MUL NOT AND SWAP1 DUP4 PUSH20 0xFFFFFFFFFFFFFFFFFFFFFFFFFFFFFFFFFFFFFFFF AND MUL OR SWAP1 SSTORE POP PUSH1 0x7 PUSH0 ADD PUSH1 0x15 DUP2 DUP2 SWAP1 SLOAD SWAP1 PUSH2 0x100 EXP SWAP1 DIV PUSH4 0xFFFFFFFF AND DUP1 SWAP3 SWAP2 SWAP1 PUSH2 0x2A61 SWAP1 PUSH2 0x38B0 JUMP JUMPDEST SWAP2 SWAP1 PUSH2 0x100 EXP DUP2 SLOAD DUP2 PUSH4 0xFFFFFFFF MUL NOT AND SWAP1 DUP4 PUSH4 0xFFFFFFFF AND MUL OR SWAP1 SSTORE POP POP PUSH1 0x7 PUSH0 ADD PUSH1 0x15 SWAP1 SLOAD SWAP1 PUSH2 0x100 EXP SWAP1 DIV PUSH4 0xFFFFFFFF AND PUSH4 0xFFFFFFFF AND PUSH1 0x7 PUSH0 ADD PUSH0 SWAP1 SLOAD SWAP1 PUSH2 0x100 EXP SWAP1 DIV PUSH20 0xFFFFFFFFFFFFFFFFFFFFFFFFFFFFFFFFFFFFFFFF AND PUSH20 0xFFFFFFFFFFFFFFFFFFFFFFFFFFFFFFFFFFFFFFFF AND PUSH32 0xF7F7C26682668C39FD8C6DBCA125BD9466E743B9E38ACC3240867C139CD93C30 PUSH1 0x40 MLOAD PUSH1 0x40 MLOAD DUP1 SWAP2 SUB SWAP1 LOG3 POP JUMP JUMPDEST PUSH0 DUP1 DUP3 PUSH1 0x20 ADD MLOAD SWAP1 POP PUSH0 DUP2 SWAP1 POP PUSH0 DUP2 PUSH20 0xFFFFFFFFFFFFFFFFFFFFFFFFFFFFFFFFFFFFFFFF AND PUSH4 0xCFB62DEE PUSH1 0x40 MLOAD DUP2 PUSH4 0xFFFFFFFF AND PUSH1 0xE0 SHL DUP2 MSTORE PUSH1 0x4 ADD PUSH1 0x20 PUSH1 0x40 MLOAD DUP1 DUP4 SUB DUP2 PUSH0 DUP8 GAS CALL ISZERO DUP1 ISZERO PUSH2 0x2B5C JUMPI RETURNDATASIZE PUSH0 DUP1 RETURNDATACOPY RETURNDATASIZE PUSH0 REVERT JUMPDEST POP POP POP POP PUSH1 0x40 MLOAD RETURNDATASIZE PUSH1 0x1F NOT PUSH1 0x1F DUP3 ADD AND DUP3 ADD DUP1 PUSH1 0x40 MSTORE POP DUP2 ADD SWAP1 PUSH2 0x2B80 SWAP2 SWAP1 PUSH2 0x4201 JUMP JUMPDEST SWAP1 POP DUP1 ISZERO PUSH2 0x2B94 JUMPI PUSH1 0x4 SWAP4 POP POP POP POP PUSH2 0x2B9C JUMP JUMPDEST PUSH1 0x3 SWAP4 POP POP POP POP JUMPDEST SWAP2 SWAP1 POP JUMP JUMPDEST PUSH1 0x60 PUSH2 0x2BD6 PUSH0 PUSH32 0x0 PUSH2 0x2E08 SWAP1 SWAP2 SWAP1 PUSH4 0xFFFFFFFF AND JUMP JUMPDEST SWAP1 POP SWAP1 JUMP JUMPDEST PUSH1 0x60 PUSH2 0x2C11 PUSH1 0x1 PUSH32 0x0 PUSH2 0x2E08 SWAP1 SWAP2 SWAP1 PUSH4 0xFFFFFFFF AND JUMP JUMPDEST SWAP1 POP SWAP1 JUMP JUMPDEST PUSH0 DUP1 PUSH1 0x8 PUSH0 CALLER PUSH20 0xFFFFFFFFFFFFFFFFFFFFFFFFFFFFFFFFFFFFFFFF AND PUSH20 0xFFFFFFFFFFFFFFFFFFFFFFFFFFFFFFFFFFFFFFFF AND DUP2 MSTORE PUSH1 0x20 ADD SWAP1 DUP2 MSTORE PUSH1 0x20 ADD PUSH0 KECCAK256 PUSH0 SWAP1 SLOAD SWAP1 PUSH2 0x100 EXP SWAP1 DIV PUSH20 0xFFFFFFFFFFFFFFFFFFFFFFFFFFFFFFFFFFFFFFFF AND SWAP1 POP PUSH0 DUP2 PUSH20 0xFFFFFFFFFFFFFFFFFFFFFFFFFFFFFFFFFFFFFFFF AND PUSH4 0xC34FE703 PUSH1 0x40 MLOAD DUP2 PUSH4 0xFFFFFFFF AND PUSH1 0xE0 SHL DUP2 MSTORE PUSH1 0x4 ADD PUSH2 0x2CAF SWAP1 PUSH2 0x4252 JUMP JUMPDEST PUSH2 0x9620 PUSH1 0x40 MLOAD DUP1 DUP4 SUB DUP2 DUP7 GAS STATICCALL ISZERO DUP1 ISZERO PUSH2 0x2CCB JUMPI RETURNDATASIZE PUSH0 DUP1 RETURNDATACOPY RETURNDATASIZE PUSH0 REVERT JUMPDEST POP POP POP POP PUSH1 0x40 MLOAD RETURNDATASIZE PUSH1 0x1F NOT PUSH1 0x1F DUP3 ADD AND DUP3 ADD DUP1 PUSH1 0x40 MSTORE POP DUP2 ADD SWAP1 PUSH2 0x2CEF SWAP2 SWAP1 PUSH2 0x431C JUMP JUMPDEST SWAP1 POP PUSH0 TIMESTAMP SWAP1 POP PUSH0 PUSH3 0x4F1A00 DUP3 PUSH2 0x2D05 SWAP2 SWAP1 PUSH2 0x4348 JUMP JUMPDEST SWAP1 POP PUSH0 DUP1 PUSH1 0x1 SWAP1 POP JUMPDEST PUSH2 0x4B0 DUP2 PUSH2 0xFFFF AND GT PUSH2 0x2D9B JUMPI PUSH0 DUP6 DUP3 PUSH2 0xFFFF AND PUSH2 0x4B1 DUP2 LT PUSH2 0x2D34 JUMPI PUSH2 0x2D33 PUSH2 0x437B JUMP JUMPDEST JUMPDEST PUSH1 0x20 MUL ADD MLOAD PUSH6 0xFFFFFFFFFFFF AND SUB ISZERO PUSH2 0x2D9B JUMPI DUP5 DUP2 PUSH2 0xFFFF AND PUSH2 0x4B1 DUP2 LT PUSH2 0x2D5F JUMPI PUSH2 0x2D5E PUSH2 0x437B JUMP JUMPDEST JUMPDEST PUSH1 0x20 MUL ADD MLOAD PUSH6 0xFFFFFFFFFFFF AND DUP4 PUSH6 0xFFFFFFFFFFFF AND LT ISZERO PUSH2 0x2D88 JUMPI DUP2 PUSH2 0x2D85 SWAP1 PUSH2 0x43A8 JUMP JUMPDEST SWAP2 POP JUMPDEST DUP1 DUP1 PUSH2 0x2D93 SWAP1 PUSH2 0x43A8 JUMP JUMPDEST SWAP2 POP POP PUSH2 0x2D0E JUMP JUMPDEST PUSH1 0x2 DUP2 PUSH2 0x2DA8 SWAP2 SWAP1 PUSH2 0x43FE JUMP JUMPDEST PUSH2 0xFFFF AND DUP9 PUSH2 0xFFFF AND GT ISZERO PUSH2 0x2DC6 JUMPI PUSH1 0x1 SWAP7 POP POP POP POP POP POP POP PUSH2 0x2E03 JUMP JUMPDEST PUSH1 0x46 PUSH1 0x64 DUP4 DUP11 PUSH2 0x2DD6 SWAP2 SWAP1 PUSH2 0x43FE JUMP JUMPDEST PUSH2 0x2DE0 SWAP2 SWAP1 PUSH2 0x442E JUMP JUMPDEST PUSH2 0xFFFF AND GT ISZERO PUSH2 0x2DF9 JUMPI PUSH1 0x1 SWAP7 POP POP POP POP POP POP POP PUSH2 0x2E03 JUMP JUMPDEST PUSH0 SWAP7 POP POP POP POP POP POP POP JUMPDEST SWAP2 SWAP1 POP JUMP JUMPDEST PUSH1 0x60 PUSH1 0xFF PUSH0 SHL DUP4 EQ PUSH2 0x2E24 JUMPI PUSH2 0x2E1D DUP4 PUSH2 0x2EB5 JUMP JUMPDEST SWAP1 POP PUSH2 0x2EAF JUMP JUMPDEST DUP2 DUP1 SLOAD PUSH2 0x2E30 SWAP1 PUSH2 0x3853 JUMP JUMPDEST DUP1 PUSH1 0x1F ADD PUSH1 0x20 DUP1 SWAP2 DIV MUL PUSH1 0x20 ADD PUSH1 0x40 MLOAD SWAP1 DUP2 ADD PUSH1 0x40 MSTORE DUP1 SWAP3 SWAP2 SWAP1 DUP2 DUP2 MSTORE PUSH1 0x20 ADD DUP3 DUP1 SLOAD PUSH2 0x2E5C SWAP1 PUSH2 0x3853 JUMP JUMPDEST DUP1 ISZERO PUSH2 0x2EA7 JUMPI DUP1 PUSH1 0x1F LT PUSH2 0x2E7E JUMPI PUSH2 0x100 DUP1 DUP4 SLOAD DIV MUL DUP4 MSTORE SWAP2 PUSH1 0x20 ADD SWAP2 PUSH2 0x2EA7 JUMP JUMPDEST DUP3 ADD SWAP2 SWAP1 PUSH0 MSTORE PUSH1 0x20 PUSH0 KECCAK256 SWAP1 JUMPDEST DUP2 SLOAD DUP2 MSTORE SWAP1 PUSH1 0x1 ADD SWAP1 PUSH1 0x20 ADD DUP1 DUP4 GT PUSH2 0x2E8A JUMPI DUP3 SWAP1 SUB PUSH1 0x1F AND DUP3 ADD SWAP2 JUMPDEST POP POP POP POP POP SWAP1 POP JUMPDEST SWAP3 SWAP2 POP POP JUMP JUMPDEST PUSH1 0x60 PUSH0 PUSH2 0x2EC1 DUP4 PUSH2 0x2F27 JUMP JUMPDEST SWAP1 POP PUSH0 PUSH1 0x20 PUSH8 0xFFFFFFFFFFFFFFFF DUP2 GT ISZERO PUSH2 0x2EDF JUMPI PUSH2 0x2EDE PUSH2 0x3118 JUMP JUMPDEST JUMPDEST PUSH1 0x40 MLOAD SWAP1 DUP1 DUP3 MSTORE DUP1 PUSH1 0x1F ADD PUSH1 0x1F NOT AND PUSH1 0x20 ADD DUP3 ADD PUSH1 0x40 MSTORE DUP1 ISZERO PUSH2 0x2F11 JUMPI DUP2 PUSH1 0x20 ADD PUSH1 0x1 DUP3 MUL DUP1 CALLDATASIZE DUP4 CALLDATACOPY DUP1 DUP3 ADD SWAP2 POP POP SWAP1 POP JUMPDEST POP SWAP1 POP DUP2 DUP2 MSTORE DUP4 PUSH1 0x20 DUP3 ADD MSTORE DUP1 SWAP3 POP POP POP SWAP2 SWAP1 POP JUMP JUMPDEST PUSH0 DUP1 PUSH1 0xFF DUP4 PUSH0 SHR AND SWAP1 POP PUSH1 0x1F DUP2 GT ISZERO PUSH2 0x2F6C JUMPI PUSH1 0x40 MLOAD PUSH32 0xB3512B0C00000000000000000000000000000000000000000000000000000000 DUP2 MSTORE PUSH1 0x4 ADD PUSH1 0x40 MLOAD DUP1 SWAP2 SUB SWAP1 REVERT JUMPDEST DUP1 SWAP2 POP POP SWAP2 SWAP1 POP JUMP JUMPDEST PUSH0 PUSH1 0x40 MLOAD SWAP1 POP SWAP1 JUMP JUMPDEST PUSH0 DUP1 REVERT JUMPDEST PUSH0 DUP1 REVERT JUMPDEST PUSH0 PUSH20 0xFFFFFFFFFFFFFFFFFFFFFFFFFFFFFFFFFFFFFFFF DUP3 AND SWAP1 POP SWAP2 SWAP1 POP JUMP JUMPDEST PUSH0 PUSH2 0x2FAF DUP3 PUSH2 0x2F86 JUMP JUMPDEST SWAP1 POP SWAP2 SWAP1 POP JUMP JUMPDEST PUSH2 0x2FBF DUP2 PUSH2 0x2FA5 JUMP JUMPDEST DUP2 EQ PUSH2 0x2FC9 JUMPI PUSH0 DUP1 REVERT JUMPDEST POP JUMP JUMPDEST PUSH0 DUP2 CALLDATALOAD SWAP1 POP PUSH2 0x2FDA DUP2 PUSH2 0x2FB6 JUMP JUMPDEST SWAP3 SWAP2 POP POP JUMP JUMPDEST PUSH0 PUSH1 0x20 DUP3 DUP5 SUB SLT ISZERO PUSH2 0x2FF5 JUMPI PUSH2 0x2FF4 PUSH2 0x2F7E JUMP JUMPDEST JUMPDEST PUSH0 PUSH2 0x3002 DUP5 DUP3 DUP6 ADD PUSH2 0x2FCC JUMP JUMPDEST SWAP2 POP POP SWAP3 SWAP2 POP POP JUMP JUMPDEST PUSH0 DUP2 MLOAD SWAP1 POP SWAP2 SWAP1 POP JUMP JUMPDEST PUSH0 DUP3 DUP3 MSTORE PUSH1 0x20 DUP3 ADD SWAP1 POP SWAP3 SWAP2 POP POP JUMP JUMPDEST PUSH0 JUMPDEST DUP4 DUP2 LT ISZERO PUSH2 0x3042 JUMPI DUP1 DUP3 ADD MLOAD DUP2 DUP5 ADD MSTORE PUSH1 0x20 DUP2 ADD SWAP1 POP PUSH2 0x3027 JUMP JUMPDEST PUSH0 DUP5 DUP5 ADD MSTORE POP POP POP POP JUMP JUMPDEST PUSH0 PUSH1 0x1F NOT PUSH1 0x1F DUP4 ADD AND SWAP1 POP SWAP2 SWAP1 POP JUMP JUMPDEST PUSH0 PUSH2 0x3067 DUP3 PUSH2 0x300B JUMP JUMPDEST PUSH2 0x3071 DUP2 DUP6 PUSH2 0x3015 JUMP JUMPDEST SWAP4 POP PUSH2 0x3081 DUP2 DUP6 PUSH1 0x20 DUP7 ADD PUSH2 0x3025 JUMP JUMPDEST PUSH2 0x308A DUP2 PUSH2 0x304D JUMP JUMPDEST DUP5 ADD SWAP2 POP POP SWAP3 SWAP2 POP POP JUMP JUMPDEST PUSH0 PUSH1 0x20 DUP3 ADD SWAP1 POP DUP2 DUP2 SUB PUSH0 DUP4 ADD MSTORE PUSH2 0x30AD DUP2 DUP5 PUSH2 0x305D JUMP JUMPDEST SWAP1 POP SWAP3 SWAP2 POP POP JUMP JUMPDEST PUSH2 0x30BE DUP2 PUSH2 0x2FA5 JUMP JUMPDEST DUP3 MSTORE POP POP JUMP JUMPDEST PUSH0 PUSH1 0x20 DUP3 ADD SWAP1 POP PUSH2 0x30D7 PUSH0 DUP4 ADD DUP5 PUSH2 0x30B5 JUMP JUMPDEST SWAP3 SWAP2 POP POP JUMP JUMPDEST PUSH0 DUP2 SWAP1 POP SWAP2 SWAP1 POP JUMP JUMPDEST PUSH2 0x30EF DUP2 PUSH2 0x30DD JUMP JUMPDEST DUP2 EQ PUSH2 0x30F9 JUMPI PUSH0 DUP1 REVERT JUMPDEST POP JUMP JUMPDEST PUSH0 DUP2 CALLDATALOAD SWAP1 POP PUSH2 0x310A DUP2 PUSH2 0x30E6 JUMP JUMPDEST SWAP3 SWAP2 POP POP JUMP JUMPDEST PUSH0 DUP1 REVERT JUMPDEST PUSH0 DUP1 REVERT JUMPDEST PUSH32 0x4E487B7100000000000000000000000000000000000000000000000000000000 PUSH0 MSTORE PUSH1 0x41 PUSH1 0x4 MSTORE PUSH1 0x24 PUSH0 REVERT JUMPDEST PUSH2 0x314E DUP3 PUSH2 0x304D JUMP JUMPDEST DUP2 ADD DUP2 DUP2 LT PUSH8 0xFFFFFFFFFFFFFFFF DUP3 GT OR ISZERO PUSH2 0x316D JUMPI PUSH2 0x316C PUSH2 0x3118 JUMP JUMPDEST JUMPDEST DUP1 PUSH1 0x40 MSTORE POP POP POP JUMP JUMPDEST PUSH0 PUSH2 0x317F PUSH2 0x2F75 JUMP JUMPDEST SWAP1 POP PUSH2 0x318B DUP3 DUP3 PUSH2 0x3145 JUMP JUMPDEST SWAP2 SWAP1 POP JUMP JUMPDEST PUSH0 PUSH8 0xFFFFFFFFFFFFFFFF DUP3 GT ISZERO PUSH2 0x31AA JUMPI PUSH2 0x31A9 PUSH2 0x3118 JUMP JUMPDEST JUMPDEST PUSH2 0x31B3 DUP3 PUSH2 0x304D JUMP JUMPDEST SWAP1 POP PUSH1 0x20 DUP2 ADD SWAP1 POP SWAP2 SWAP1 POP JUMP JUMPDEST DUP3 DUP2 DUP4 CALLDATACOPY PUSH0 DUP4 DUP4 ADD MSTORE POP POP POP JUMP JUMPDEST PUSH0 PUSH2 0x31E0 PUSH2 0x31DB DUP5 PUSH2 0x3190 JUMP JUMPDEST PUSH2 0x3176 JUMP JUMPDEST SWAP1 POP DUP3 DUP2 MSTORE PUSH1 0x20 DUP2 ADD DUP5 DUP5 DUP5 ADD GT ISZERO PUSH2 0x31FC JUMPI PUSH2 0x31FB PUSH2 0x3114 JUMP JUMPDEST JUMPDEST PUSH2 0x3207 DUP5 DUP3 DUP6 PUSH2 0x31C0 JUMP JUMPDEST POP SWAP4 SWAP3 POP POP POP JUMP JUMPDEST PUSH0 DUP3 PUSH1 0x1F DUP4 ADD SLT PUSH2 0x3223 JUMPI PUSH2 0x3222 PUSH2 0x3110 JUMP JUMPDEST JUMPDEST DUP2 CALLDATALOAD PUSH2 0x3233 DUP5 DUP3 PUSH1 0x20 DUP7 ADD PUSH2 0x31CE JUMP JUMPDEST SWAP2 POP POP SWAP3 SWAP2 POP POP JUMP JUMPDEST PUSH0 DUP2 SWAP1 POP SWAP2 SWAP1 POP JUMP JUMPDEST PUSH2 0x324E DUP2 PUSH2 0x323C JUMP JUMPDEST DUP2 EQ PUSH2 0x3258 JUMPI PUSH0 DUP1 REVERT JUMPDEST POP JUMP JUMPDEST PUSH0 DUP2 CALLDATALOAD SWAP1 POP PUSH2 0x3269 DUP2 PUSH2 0x3245 JUMP JUMPDEST SWAP3 SWAP2 POP POP JUMP JUMPDEST PUSH0 DUP1 PUSH0 DUP1 PUSH1 0x80 DUP6 DUP8 SUB SLT ISZERO PUSH2 0x3287 JUMPI PUSH2 0x3286 PUSH2 0x2F7E JUMP JUMPDEST JUMPDEST PUSH0 PUSH2 0x3294 DUP8 DUP3 DUP9 ADD PUSH2 0x2FCC JUMP JUMPDEST SWAP5 POP POP PUSH1 0x20 PUSH2 0x32A5 DUP8 DUP3 DUP9 ADD PUSH2 0x30FC JUMP JUMPDEST SWAP4 POP POP PUSH1 0x40 DUP6 ADD CALLDATALOAD PUSH8 0xFFFFFFFFFFFFFFFF DUP2 GT ISZERO PUSH2 0x32C6 JUMPI PUSH2 0x32C5 PUSH2 0x2F82 JUMP JUMPDEST JUMPDEST PUSH2 0x32D2 DUP8 DUP3 DUP9 ADD PUSH2 0x320F JUMP JUMPDEST SWAP3 POP POP PUSH1 0x60 PUSH2 0x32E3 DUP8 DUP3 DUP9 ADD PUSH2 0x325B JUMP JUMPDEST SWAP2 POP POP SWAP3 SWAP6 SWAP2 SWAP5 POP SWAP3 POP JUMP JUMPDEST PUSH2 0x32F8 DUP2 PUSH2 0x30DD JUMP JUMPDEST DUP3 MSTORE POP POP JUMP JUMPDEST PUSH0 PUSH1 0x20 DUP3 ADD SWAP1 POP PUSH2 0x3311 PUSH0 DUP4 ADD DUP5 PUSH2 0x32EF JUMP JUMPDEST SWAP3 SWAP2 POP POP JUMP JUMPDEST PUSH0 DUP2 ISZERO ISZERO SWAP1 POP SWAP2 SWAP1 POP JUMP JUMPDEST PUSH2 0x332B DUP2 PUSH2 0x3317 JUMP JUMPDEST DUP3 MSTORE POP POP JUMP JUMPDEST PUSH0 PUSH1 0x20 DUP3 ADD SWAP1 POP PUSH2 0x3344 PUSH0 DUP4 ADD DUP5 PUSH2 0x3322 JUMP JUMPDEST SWAP3 SWAP2 POP POP JUMP JUMPDEST PUSH0 DUP1 PUSH1 0x40 DUP4 DUP6 SUB SLT ISZERO PUSH2 0x3360 JUMPI PUSH2 0x335F PUSH2 0x2F7E JUMP JUMPDEST JUMPDEST PUSH0 PUSH2 0x336D DUP6 DUP3 DUP7 ADD PUSH2 0x2FCC JUMP JUMPDEST SWAP3 POP POP PUSH1 0x20 PUSH2 0x337E DUP6 DUP3 DUP7 ADD PUSH2 0x2FCC JUMP JUMPDEST SWAP2 POP POP SWAP3 POP SWAP3 SWAP1 POP JUMP JUMPDEST PUSH0 PUSH1 0x20 DUP3 DUP5 SUB SLT ISZERO PUSH2 0x339D JUMPI PUSH2 0x339C PUSH2 0x2F7E JUMP JUMPDEST JUMPDEST PUSH0 PUSH2 0x33AA DUP5 DUP3 DUP6 ADD PUSH2 0x30FC JUMP JUMPDEST SWAP2 POP POP SWAP3 SWAP2 POP POP JUMP JUMPDEST PUSH32 0x4E487B7100000000000000000000000000000000000000000000000000000000 PUSH0 MSTORE PUSH1 0x21 PUSH1 0x4 MSTORE PUSH1 0x24 PUSH0 REVERT JUMPDEST PUSH1 0x6 DUP2 LT PUSH2 0x33F1 JUMPI PUSH2 0x33F0 PUSH2 0x33B3 JUMP JUMPDEST JUMPDEST POP JUMP JUMPDEST PUSH0 DUP2 SWAP1 POP PUSH2 0x3401 DUP3 PUSH2 0x33E0 JUMP JUMPDEST SWAP2 SWAP1 POP JUMP JUMPDEST PUSH0 PUSH2 0x3410 DUP3 PUSH2 0x33F4 JUMP JUMPDEST SWAP1 POP SWAP2 SWAP1 POP JUMP JUMPDEST PUSH2 0x3420 DUP2 PUSH2 0x3406 JUMP JUMPDEST DUP3 MSTORE POP POP JUMP JUMPDEST PUSH0 PUSH1 0x20 DUP3 ADD SWAP1 POP PUSH2 0x3439 PUSH0 DUP4 ADD DUP5 PUSH2 0x3417 JUMP JUMPDEST SWAP3 SWAP2 POP POP JUMP JUMPDEST PUSH0 PUSH4 0xFFFFFFFF DUP3 AND SWAP1 POP SWAP2 SWAP1 POP JUMP JUMPDEST PUSH2 0x3457 DUP2 PUSH2 0x343F JUMP JUMPDEST DUP2 EQ PUSH2 0x3461 JUMPI PUSH0 DUP1 REVERT JUMPDEST POP JUMP JUMPDEST PUSH0 DUP2 CALLDATALOAD SWAP1 POP PUSH2 0x3472 DUP2 PUSH2 0x344E JUMP JUMPDEST SWAP3 SWAP2 POP POP JUMP JUMPDEST PUSH0 DUP1 PUSH1 0x40 DUP4 DUP6 SUB SLT ISZERO PUSH2 0x348E JUMPI PUSH2 0x348D PUSH2 0x2F7E JUMP JUMPDEST JUMPDEST PUSH0 PUSH2 0x349B DUP6 DUP3 DUP7 ADD PUSH2 0x3464 JUMP JUMPDEST SWAP3 POP POP PUSH1 0x20 PUSH2 0x34AC DUP6 DUP3 DUP7 ADD PUSH2 0x325B JUMP JUMPDEST SWAP2 POP POP SWAP3 POP SWAP3 SWAP1 POP JUMP JUMPDEST PUSH0 PUSH32 0xFF00000000000000000000000000000000000000000000000000000000000000 DUP3 AND SWAP1 POP SWAP2 SWAP1 POP JUMP JUMPDEST PUSH2 0x34EA DUP2 PUSH2 0x34B6 JUMP JUMPDEST DUP3 MSTORE POP POP JUMP JUMPDEST PUSH2 0x34F9 DUP2 PUSH2 0x323C JUMP JUMPDEST DUP3 MSTORE POP POP JUMP JUMPDEST PUSH0 DUP2 MLOAD SWAP1 POP SWAP2 SWAP1 POP JUMP JUMPDEST PUSH0 DUP3 DUP3 MSTORE PUSH1 0x20 DUP3 ADD SWAP1 POP SWAP3 SWAP2 POP POP JUMP JUMPDEST PUSH0 DUP2 SWAP1 POP PUSH1 0x20 DUP3 ADD SWAP1 POP SWAP2 SWAP1 POP JUMP JUMPDEST PUSH2 0x3531 DUP2 PUSH2 0x30DD JUMP JUMPDEST DUP3 MSTORE POP POP JUMP JUMPDEST PUSH0 PUSH2 0x3542 DUP4 DUP4 PUSH2 0x3528 JUMP JUMPDEST PUSH1 0x20 DUP4 ADD SWAP1 POP SWAP3 SWAP2 POP POP JUMP JUMPDEST PUSH0 PUSH1 0x20 DUP3 ADD SWAP1 POP SWAP2 SWAP1 POP JUMP JUMPDEST PUSH0 PUSH2 0x3564 DUP3 PUSH2 0x34FF JUMP JUMPDEST PUSH2 0x356E DUP2 DUP6 PUSH2 0x3509 JUMP JUMPDEST SWAP4 POP PUSH2 0x3579 DUP4 PUSH2 0x3519 JUMP JUMPDEST DUP1 PUSH0 JUMPDEST DUP4 DUP2 LT ISZERO PUSH2 0x35A9 JUMPI DUP2 MLOAD PUSH2 0x3590 DUP9 DUP3 PUSH2 0x3537 JUMP JUMPDEST SWAP8 POP PUSH2 0x359B DUP4 PUSH2 0x354E JUMP JUMPDEST SWAP3 POP POP PUSH1 0x1 DUP2 ADD SWAP1 POP PUSH2 0x357C JUMP JUMPDEST POP DUP6 SWAP4 POP POP POP POP SWAP3 SWAP2 POP POP JUMP JUMPDEST PUSH0 PUSH1 0xE0 DUP3 ADD SWAP1 POP PUSH2 0x35C9 PUSH0 DUP4 ADD DUP11 PUSH2 0x34E1 JUMP JUMPDEST DUP2 DUP2 SUB PUSH1 0x20 DUP4 ADD MSTORE PUSH2 0x35DB DUP2 DUP10 PUSH2 0x305D JUMP JUMPDEST SWAP1 POP DUP2 DUP2 SUB PUSH1 0x40 DUP4 ADD MSTORE PUSH2 0x35EF DUP2 DUP9 PUSH2 0x305D JUMP JUMPDEST SWAP1 POP PUSH2 0x35FE PUSH1 0x60 DUP4 ADD DUP8 PUSH2 0x32EF JUMP JUMPDEST PUSH2 0x360B PUSH1 0x80 DUP4 ADD DUP7 PUSH2 0x30B5 JUMP JUMPDEST PUSH2 0x3618 PUSH1 0xA0 DUP4 ADD DUP6 PUSH2 0x34F0 JUMP JUMPDEST DUP2 DUP2 SUB PUSH1 0xC0 DUP4 ADD MSTORE PUSH2 0x362A DUP2 DUP5 PUSH2 0x355A JUMP JUMPDEST SWAP1 POP SWAP9 SWAP8 POP POP POP POP POP POP POP POP JUMP JUMPDEST PUSH2 0x3641 DUP2 PUSH2 0x3317 JUMP JUMPDEST DUP2 EQ PUSH2 0x364B JUMPI PUSH0 DUP1 REVERT JUMPDEST POP JUMP JUMPDEST PUSH0 DUP2 CALLDATALOAD SWAP1 POP PUSH2 0x365C DUP2 PUSH2 0x3638 JUMP JUMPDEST SWAP3 SWAP2 POP POP JUMP JUMPDEST PUSH0 PUSH1 0x20 DUP3 DUP5 SUB SLT ISZERO PUSH2 0x3677 JUMPI PUSH2 0x3676 PUSH2 0x2F7E JUMP JUMPDEST JUMPDEST PUSH0 PUSH2 0x3684 DUP5 DUP3 DUP6 ADD PUSH2 0x364E JUMP JUMPDEST SWAP2 POP POP SWAP3 SWAP2 POP POP JUMP JUMPDEST PUSH2 0x3696 DUP2 PUSH2 0x343F JUMP JUMPDEST DUP3 MSTORE POP POP JUMP JUMPDEST PUSH0 PUSH1 0x20 DUP3 ADD SWAP1 POP PUSH2 0x36AF PUSH0 DUP4 ADD DUP5 PUSH2 0x368D JUMP JUMPDEST SWAP3 SWAP2 POP POP JUMP JUMPDEST PUSH0 DUP1 PUSH0 DUP1 PUSH1 0x80 DUP6 DUP8 SUB SLT ISZERO PUSH2 0x36CD JUMPI PUSH2 0x36CC PUSH2 0x2F7E JUMP JUMPDEST JUMPDEST PUSH0 PUSH2 0x36DA DUP8 DUP3 DUP9 ADD PUSH2 0x30FC JUMP JUMPDEST SWAP5 POP POP PUSH1 0x20 PUSH2 0x36EB DUP8 DUP3 DUP9 ADD PUSH2 0x2FCC JUMP JUMPDEST SWAP4 POP POP PUSH1 0x40 PUSH2 0x36FC DUP8 DUP3 DUP9 ADD PUSH2 0x2FCC JUMP JUMPDEST SWAP3 POP POP PUSH1 0x60 PUSH2 0x370D DUP8 DUP3 DUP9 ADD PUSH2 0x2FCC JUMP JUMPDEST SWAP2 POP POP SWAP3 SWAP6 SWAP2 SWAP5 POP SWAP3 POP JUMP JUMPDEST PUSH0 PUSH32 0xFFFFFFFF00000000000000000000000000000000000000000000000000000000 DUP3 AND SWAP1 POP SWAP2 SWAP1 POP JUMP JUMPDEST PUSH2 0x374D DUP2 PUSH2 0x3719 JUMP JUMPDEST DUP2 EQ PUSH2 0x3757 JUMPI PUSH0 DUP1 REVERT JUMPDEST POP JUMP JUMPDEST PUSH0 DUP2 CALLDATALOAD SWAP1 POP PUSH2 0x3768 DUP2 PUSH2 0x3744 JUMP JUMPDEST SWAP3 SWAP2 POP POP JUMP JUMPDEST PUSH0 DUP1 PUSH0 PUSH1 0x60 DUP5 DUP7 SUB SLT ISZERO PUSH2 0x3785 JUMPI PUSH2 0x3784 PUSH2 0x2F7E JUMP JUMPDEST JUMPDEST PUSH0 PUSH2 0x3792 DUP7 DUP3 DUP8 ADD PUSH2 0x2FCC JUMP JUMPDEST SWAP4 POP POP PUSH1 0x20 PUSH2 0x37A3 DUP7 DUP3 DUP8 ADD PUSH2 0x2FCC JUMP JUMPDEST SWAP3 POP POP PUSH1 0x40 PUSH2 0x37B4 DUP7 DUP3 DUP8 ADD PUSH2 0x375A JUMP JUMPDEST SWAP2 POP POP SWAP3 POP SWAP3 POP SWAP3 JUMP JUMPDEST PUSH32 0x416363657373206973206E6F742076616C696400000000000000000000000000 PUSH0 DUP3 ADD MSTORE POP JUMP JUMPDEST PUSH0 PUSH2 0x37F2 PUSH1 0x13 DUP4 PUSH2 0x3015 JUMP JUMPDEST SWAP2 POP PUSH2 0x37FD DUP3 PUSH2 0x37BE JUMP JUMPDEST PUSH1 0x20 DUP3 ADD SWAP1 POP SWAP2 SWAP1 POP JUMP JUMPDEST PUSH0 PUSH1 0x20 DUP3 ADD SWAP1 POP DUP2 DUP2 SUB PUSH0 DUP4 ADD MSTORE PUSH2 0x381F DUP2 PUSH2 0x37E6 JUMP JUMPDEST SWAP1 POP SWAP2 SWAP1 POP JUMP JUMPDEST PUSH32 0x4E487B7100000000000000000000000000000000000000000000000000000000 PUSH0 MSTORE PUSH1 0x22 PUSH1 0x4 MSTORE PUSH1 0x24 PUSH0 REVERT JUMPDEST PUSH0 PUSH1 0x2 DUP3 DIV SWAP1 POP PUSH1 0x1 DUP3 AND DUP1 PUSH2 0x386A JUMPI PUSH1 0x7F DUP3 AND SWAP2 POP JUMPDEST PUSH1 0x20 DUP3 LT DUP2 SUB PUSH2 0x387D JUMPI PUSH2 0x387C PUSH2 0x3826 JUMP JUMPDEST JUMPDEST POP SWAP2 SWAP1 POP JUMP JUMPDEST PUSH32 0x4E487B7100000000000000000000000000000000000000000000000000000000 PUSH0 MSTORE PUSH1 0x11 PUSH1 0x4 MSTORE PUSH1 0x24 PUSH0 REVERT JUMPDEST PUSH0 PUSH2 0x38BA DUP3 PUSH2 0x343F JUMP JUMPDEST SWAP2 POP PUSH4 0xFFFFFFFF DUP3 SUB PUSH2 0x38D0 JUMPI PUSH2 0x38CF PUSH2 0x3883 JUMP JUMPDEST JUMPDEST PUSH1 0x1 DUP3 ADD SWAP1 POP SWAP2 SWAP1 POP JUMP JUMPDEST PUSH0 PUSH2 0x38E5 DUP3 PUSH2 0x30DD JUMP JUMPDEST SWAP2 POP PUSH2 0x38F0 DUP4 PUSH2 0x30DD JUMP JUMPDEST SWAP3 POP DUP3 DUP3 ADD SWAP1 POP DUP1 DUP3 GT ISZERO PUSH2 0x3908 JUMPI PUSH2 0x3907 PUSH2 0x3883 JUMP JUMPDEST JUMPDEST SWAP3 SWAP2 POP POP JUMP JUMPDEST PUSH0 DUP2 MLOAD SWAP1 POP SWAP2 SWAP1 POP JUMP JUMPDEST PUSH0 DUP3 DUP3 MSTORE PUSH1 0x20 DUP3 ADD SWAP1 POP SWAP3 SWAP2 POP POP JUMP JUMPDEST PUSH0 PUSH2 0x3932 DUP3 PUSH2 0x390E JUMP JUMPDEST PUSH2 0x393C DUP2 DUP6 PUSH2 0x3918 JUMP JUMPDEST SWAP4 POP PUSH2 0x394C DUP2 DUP6 PUSH1 0x20 DUP7 ADD PUSH2 0x3025 JUMP JUMPDEST PUSH2 0x3955 DUP2 PUSH2 0x304D JUMP JUMPDEST DUP5 ADD SWAP2 POP POP SWAP3 SWAP2 POP POP JUMP JUMPDEST PUSH0 PUSH1 0x80 DUP3 ADD SWAP1 POP PUSH2 0x3973 PUSH0 DUP4 ADD DUP8 PUSH2 0x30B5 JUMP JUMPDEST PUSH2 0x3980 PUSH1 0x20 DUP4 ADD DUP7 PUSH2 0x32EF JUMP JUMPDEST DUP2 DUP2 SUB PUSH1 0x40 DUP4 ADD MSTORE PUSH2 0x3992 DUP2 DUP6 PUSH2 0x3928 JUMP JUMPDEST SWAP1 POP PUSH2 0x39A1 PUSH1 0x60 DUP4 ADD DUP5 PUSH2 0x34F0 JUMP JUMPDEST SWAP6 SWAP5 POP POP POP POP POP JUMP JUMPDEST PUSH0 DUP1 REVERT JUMPDEST PUSH0 DUP2 MLOAD SWAP1 POP PUSH2 0x39BC DUP2 PUSH2 0x2FB6 JUMP JUMPDEST SWAP3 SWAP2 POP POP JUMP JUMPDEST PUSH0 PUSH2 0xFFFF DUP3 AND SWAP1 POP SWAP2 SWAP1 POP JUMP JUMPDEST PUSH2 0x39D8 DUP2 PUSH2 0x39C2 JUMP JUMPDEST DUP2 EQ PUSH2 0x39E2 JUMPI PUSH0 DUP1 REVERT JUMPDEST POP JUMP JUMPDEST PUSH0 DUP2 MLOAD SWAP1 POP PUSH2 0x39F3 DUP2 PUSH2 0x39CF JUMP JUMPDEST SWAP3 SWAP2 POP POP JUMP JUMPDEST PUSH0 DUP2 MLOAD SWAP1 POP PUSH2 0x3A07 DUP2 PUSH2 0x344E JUMP JUMPDEST SWAP3 SWAP2 POP POP JUMP JUMPDEST PUSH0 PUSH6 0xFFFFFFFFFFFF DUP3 AND SWAP1 POP SWAP2 SWAP1 POP JUMP JUMPDEST PUSH2 0x3A27 DUP2 PUSH2 0x3A0D JUMP JUMPDEST DUP2 EQ PUSH2 0x3A31 JUMPI PUSH0 DUP1 REVERT JUMPDEST POP JUMP JUMPDEST PUSH0 DUP2 MLOAD SWAP1 POP PUSH2 0x3A42 DUP2 PUSH2 0x3A1E JUMP JUMPDEST SWAP3 SWAP2 POP POP JUMP JUMPDEST PUSH0 DUP2 MLOAD SWAP1 POP PUSH2 0x3A56 DUP2 PUSH2 0x3638 JUMP JUMPDEST SWAP3 SWAP2 POP POP JUMP JUMPDEST PUSH0 PUSH2 0x140 DUP3 DUP5 SUB SLT ISZERO PUSH2 0x3A72 JUMPI PUSH2 0x3A71 PUSH2 0x39AA JUMP JUMPDEST JUMPDEST PUSH2 0x3A7D PUSH2 0x140 PUSH2 0x3176 JUMP JUMPDEST SWAP1 POP PUSH0 PUSH2 0x3A8C DUP5 DUP3 DUP6 ADD PUSH2 0x39AE JUMP JUMPDEST PUSH0 DUP4 ADD MSTORE POP PUSH1 0x20 PUSH2 0x3A9F DUP5 DUP3 DUP6 ADD PUSH2 0x39AE JUMP JUMPDEST PUSH1 0x20 DUP4 ADD MSTORE POP PUSH1 0x40 PUSH2 0x3AB3 DUP5 DUP3 DUP6 ADD PUSH2 0x39E5 JUMP JUMPDEST PUSH1 0x40 DUP4 ADD MSTORE POP PUSH1 0x60 PUSH2 0x3AC7 DUP5 DUP3 DUP6 ADD PUSH2 0x39F9 JUMP JUMPDEST PUSH1 0x60 DUP4 ADD MSTORE POP PUSH1 0x80 PUSH2 0x3ADB DUP5 DUP3 DUP6 ADD PUSH2 0x3A34 JUMP JUMPDEST PUSH1 0x80 DUP4 ADD MSTORE POP PUSH1 0xA0 PUSH2 0x3AEF DUP5 DUP3 DUP6 ADD PUSH2 0x3A34 JUMP JUMPDEST PUSH1 0xA0 DUP4 ADD MSTORE POP PUSH1 0xC0 PUSH2 0x3B03 DUP5 DUP3 DUP6 ADD PUSH2 0x3A48 JUMP JUMPDEST PUSH1 0xC0 DUP4 ADD MSTORE POP PUSH1 0xE0 PUSH2 0x3B17 DUP5 DUP3 DUP6 ADD PUSH2 0x3A48 JUMP JUMPDEST PUSH1 0xE0 DUP4 ADD MSTORE POP PUSH2 0x100 PUSH2 0x3B2C DUP5 DUP3 DUP6 ADD PUSH2 0x3A48 JUMP JUMPDEST PUSH2 0x100 DUP4 ADD MSTORE POP PUSH2 0x120 PUSH2 0x3B42 DUP5 DUP3 DUP6 ADD PUSH2 0x3A48 JUMP JUMPDEST PUSH2 0x120 DUP4 ADD MSTORE POP SWAP3 SWAP2 POP POP JUMP JUMPDEST PUSH0 PUSH2 0x140 DUP3 DUP5 SUB SLT ISZERO PUSH2 0x3B65 JUMPI PUSH2 0x3B64 PUSH2 0x2F7E JUMP JUMPDEST JUMPDEST PUSH0 PUSH2 0x3B72 DUP5 DUP3 DUP6 ADD PUSH2 0x3A5C JUMP JUMPDEST SWAP2 POP POP SWAP3 SWAP2 POP POP JUMP JUMPDEST PUSH0 DUP2 MLOAD SWAP1 POP PUSH2 0x3B89 DUP2 PUSH2 0x30E6 JUMP JUMPDEST SWAP3 SWAP2 POP POP JUMP JUMPDEST PUSH0 PUSH1 0x20 DUP3 DUP5 SUB SLT ISZERO PUSH2 0x3BA4 JUMPI PUSH2 0x3BA3 PUSH2 0x2F7E JUMP JUMPDEST JUMPDEST PUSH0 PUSH2 0x3BB1 DUP5 DUP3 DUP6 ADD PUSH2 0x3B7B JUMP JUMPDEST SWAP2 POP POP SWAP3 SWAP2 POP POP JUMP JUMPDEST PUSH0 PUSH1 0x40 DUP3 ADD SWAP1 POP PUSH2 0x3BCD PUSH0 DUP4 ADD DUP6 PUSH2 0x32EF JUMP JUMPDEST PUSH2 0x3BDA PUSH1 0x20 DUP4 ADD DUP5 PUSH2 0x32EF JUMP JUMPDEST SWAP4 SWAP3 POP POP POP JUMP JUMPDEST PUSH0 DUP2 SWAP1 POP SWAP2 SWAP1 POP JUMP JUMPDEST PUSH2 0x3BFB PUSH2 0x3BF6 DUP3 PUSH2 0x323C JUMP JUMPDEST PUSH2 0x3BE1 JUMP JUMPDEST DUP3 MSTORE POP POP JUMP JUMPDEST PUSH0 PUSH2 0x3C0C DUP3 DUP5 PUSH2 0x3BEA JUMP JUMPDEST PUSH1 0x20 DUP3 ADD SWAP2 POP DUP2 SWAP1 POP SWAP3 SWAP2 POP POP JUMP JUMPDEST PUSH0 DUP2 SWAP1 POP SWAP3 SWAP2 POP POP JUMP JUMPDEST PUSH32 0x5F766F74654475726174696F6E00000000000000000000000000000000000000 PUSH0 DUP3 ADD MSTORE POP JUMP JUMPDEST PUSH0 PUSH2 0x3C59 PUSH1 0xD DUP4 PUSH2 0x3C1B JUMP JUMPDEST SWAP2 POP PUSH2 0x3C64 DUP3 PUSH2 0x3C25 JUMP JUMPDEST PUSH1 0xD DUP3 ADD SWAP1 POP SWAP2 SWAP1 POP JUMP JUMPDEST PUSH0 PUSH2 0x3C79 DUP3 PUSH2 0x3C4D JUMP JUMPDEST SWAP2 POP DUP2 SWAP1 POP SWAP2 SWAP1 POP JUMP JUMPDEST PUSH32 0x5F6574615365636F6E6473000000000000000000000000000000000000000000 PUSH0 DUP3 ADD MSTORE POP JUMP JUMPDEST PUSH0 PUSH2 0x3CB7 PUSH1 0xB DUP4 PUSH2 0x3C1B JUMP JUMPDEST SWAP2 POP PUSH2 0x3CC2 DUP3 PUSH2 0x3C83 JUMP JUMPDEST PUSH1 0xB DUP3 ADD SWAP1 POP SWAP2 SWAP1 POP JUMP JUMPDEST PUSH0 PUSH2 0x3CD7 DUP3 PUSH2 0x3CAB JUMP JUMPDEST SWAP2 POP DUP2 SWAP1 POP SWAP2 SWAP1 POP JUMP JUMPDEST PUSH32 0x5F766F746564656C617900000000000000000000000000000000000000000000 PUSH0 DUP3 ADD MSTORE POP JUMP JUMPDEST PUSH0 PUSH2 0x3D15 PUSH1 0xA DUP4 PUSH2 0x3C1B JUMP JUMPDEST SWAP2 POP PUSH2 0x3D20 DUP3 PUSH2 0x3CE1 JUMP JUMPDEST PUSH1 0xA DUP3 ADD SWAP1 POP SWAP2 SWAP1 POP JUMP JUMPDEST PUSH0 PUSH2 0x3D35 DUP3 PUSH2 0x3D09 JUMP JUMPDEST SWAP2 POP DUP2 SWAP1 POP SWAP2 SWAP1 POP JUMP JUMPDEST PUSH0 DUP2 SWAP1 POP SWAP2 SWAP1 POP JUMP JUMPDEST PUSH0 DUP2 SWAP1 POP SWAP2 SWAP1 POP JUMP JUMPDEST PUSH0 PUSH2 0x3D6B PUSH2 0x3D66 PUSH2 0x3D61 DUP5 PUSH2 0x3D3F JUMP JUMPDEST PUSH2 0x3D48 JUMP JUMPDEST PUSH2 0x30DD JUMP JUMPDEST SWAP1 POP SWAP2 SWAP1 POP JUMP JUMPDEST PUSH2 0x3D7B DUP2 PUSH2 0x3D51 JUMP JUMPDEST DUP3 MSTORE POP POP JUMP JUMPDEST PUSH0 PUSH1 0x40 DUP3 ADD SWAP1 POP PUSH2 0x3D94 PUSH0 DUP4 ADD DUP6 PUSH2 0x3D72 JUMP JUMPDEST PUSH2 0x3DA1 PUSH1 0x20 DUP4 ADD DUP5 PUSH2 0x32EF JUMP JUMPDEST SWAP4 SWAP3 POP POP POP JUMP JUMPDEST PUSH0 PUSH1 0x40 DUP3 ADD SWAP1 POP PUSH2 0x3DBB PUSH0 DUP4 ADD DUP6 PUSH2 0x30B5 JUMP JUMPDEST PUSH2 0x3DC8 PUSH1 0x20 DUP4 ADD DUP5 PUSH2 0x32EF JUMP JUMPDEST SWAP4 SWAP3 POP POP POP JUMP JUMPDEST PUSH32 0x546865207265717565737420697320696E76616C696400000000000000000000 PUSH0 DUP3 ADD MSTORE POP JUMP JUMPDEST PUSH0 PUSH2 0x3E03 PUSH1 0x16 DUP4 PUSH2 0x3015 JUMP JUMPDEST SWAP2 POP PUSH2 0x3E0E DUP3 PUSH2 0x3DCF JUMP JUMPDEST PUSH1 0x20 DUP3 ADD SWAP1 POP SWAP2 SWAP1 POP JUMP JUMPDEST PUSH0 PUSH1 0x20 DUP3 ADD SWAP1 POP DUP2 DUP2 SUB PUSH0 DUP4 ADD MSTORE PUSH2 0x3E30 DUP2 PUSH2 0x3DF7 JUMP JUMPDEST SWAP1 POP SWAP2 SWAP1 POP JUMP JUMPDEST PUSH0 PUSH2 0x3E41 DUP3 PUSH2 0x3A0D JUMP JUMPDEST SWAP2 POP PUSH2 0x3E4C DUP4 PUSH2 0x3A0D JUMP JUMPDEST SWAP3 POP DUP3 DUP3 SUB SWAP1 POP PUSH6 0xFFFFFFFFFFFF DUP2 GT ISZERO PUSH2 0x3E6A JUMPI PUSH2 0x3E69 PUSH2 0x3883 JUMP JUMPDEST JUMPDEST SWAP3 SWAP2 POP POP JUMP JUMPDEST PUSH2 0x3E79 DUP2 PUSH2 0x3A0D JUMP JUMPDEST DUP3 MSTORE POP POP JUMP JUMPDEST PUSH0 PUSH1 0x20 DUP3 ADD SWAP1 POP PUSH2 0x3E92 PUSH0 DUP4 ADD DUP5 PUSH2 0x3E70 JUMP JUMPDEST SWAP3 SWAP2 POP POP JUMP JUMPDEST PUSH32 0x696E76616C696420616363657373000000000000000000000000000000000000 PUSH0 DUP3 ADD MSTORE POP JUMP JUMPDEST PUSH0 PUSH2 0x3ECC PUSH1 0xE DUP4 PUSH2 0x3015 JUMP JUMPDEST SWAP2 POP PUSH2 0x3ED7 DUP3 PUSH2 0x3E98 JUMP JUMPDEST PUSH1 0x20 DUP3 ADD SWAP1 POP SWAP2 SWAP1 POP JUMP JUMPDEST PUSH0 PUSH1 0x20 DUP3 ADD SWAP1 POP DUP2 DUP2 SUB PUSH0 DUP4 ADD MSTORE PUSH2 0x3EF9 DUP2 PUSH2 0x3EC0 JUMP JUMPDEST SWAP1 POP SWAP2 SWAP1 POP JUMP JUMPDEST PUSH0 PUSH8 0xFFFFFFFFFFFFFFFF DUP3 GT ISZERO PUSH2 0x3F1A JUMPI PUSH2 0x3F19 PUSH2 0x3118 JUMP JUMPDEST JUMPDEST PUSH2 0x3F23 DUP3 PUSH2 0x304D JUMP JUMPDEST SWAP1 POP PUSH1 0x20 DUP2 ADD SWAP1 POP SWAP2 SWAP1 POP JUMP JUMPDEST PUSH0 PUSH2 0x3F42 PUSH2 0x3F3D DUP5 PUSH2 0x3F00 JUMP JUMPDEST PUSH2 0x3176 JUMP JUMPDEST SWAP1 POP DUP3 DUP2 MSTORE PUSH1 0x20 DUP2 ADD DUP5 DUP5 DUP5 ADD GT ISZERO PUSH2 0x3F5E JUMPI PUSH2 0x3F5D PUSH2 0x3114 JUMP JUMPDEST JUMPDEST PUSH2 0x3F69 DUP5 DUP3 DUP6 PUSH2 0x3025 JUMP JUMPDEST POP SWAP4 SWAP3 POP POP POP JUMP JUMPDEST PUSH0 DUP3 PUSH1 0x1F DUP4 ADD SLT PUSH2 0x3F85 JUMPI PUSH2 0x3F84 PUSH2 0x3110 JUMP JUMPDEST JUMPDEST DUP2 MLOAD PUSH2 0x3F95 DUP5 DUP3 PUSH1 0x20 DUP7 ADD PUSH2 0x3F30 JUMP JUMPDEST SWAP2 POP POP SWAP3 SWAP2 POP POP JUMP JUMPDEST PUSH0 DUP2 MLOAD SWAP1 POP PUSH2 0x3FAC DUP2 PUSH2 0x3245 JUMP JUMPDEST SWAP3 SWAP2 POP POP JUMP JUMPDEST PUSH0 DUP1 PUSH0 DUP1 PUSH1 0x80 DUP6 DUP8 SUB SLT ISZERO PUSH2 0x3FCA JUMPI PUSH2 0x3FC9 PUSH2 0x2F7E JUMP JUMPDEST JUMPDEST PUSH0 DUP6 ADD MLOAD PUSH8 0xFFFFFFFFFFFFFFFF DUP2 GT ISZERO PUSH2 0x3FE7 JUMPI PUSH2 0x3FE6 PUSH2 0x2F82 JUMP JUMPDEST JUMPDEST PUSH2 0x3FF3 DUP8 DUP3 DUP9 ADD PUSH2 0x3F71 JUMP JUMPDEST SWAP5 POP POP PUSH1 0x20 DUP6 ADD MLOAD PUSH8 0xFFFFFFFFFFFFFFFF DUP2 GT ISZERO PUSH2 0x4014 JUMPI PUSH2 0x4013 PUSH2 0x2F82 JUMP JUMPDEST JUMPDEST PUSH2 0x4020 DUP8 DUP3 DUP9 ADD PUSH2 0x3F71 JUMP JUMPDEST SWAP4 POP POP PUSH1 0x40 PUSH2 0x4031 DUP8 DUP3 DUP9 ADD PUSH2 0x3F9E JUMP JUMPDEST SWAP3 POP POP PUSH1 0x60 PUSH2 0x4042 DUP8 DUP3 DUP9 ADD PUSH2 0x39AE JUMP JUMPDEST SWAP2 POP POP SWAP3 SWAP6 SWAP2 SWAP5 POP SWAP3 POP JUMP JUMPDEST PUSH0 DUP1 PUSH0 PUSH1 0x60 DUP5 DUP7 SUB SLT ISZERO PUSH2 0x4065 JUMPI PUSH2 0x4064 PUSH2 0x2F7E JUMP JUMPDEST JUMPDEST PUSH0 PUSH2 0x4072 DUP7 DUP3 DUP8 ADD PUSH2 0x39AE JUMP JUMPDEST SWAP4 POP POP PUSH1 0x20 PUSH2 0x4083 DUP7 DUP3 DUP8 ADD PUSH2 0x39AE JUMP JUMPDEST SWAP3 POP POP PUSH1 0x40 PUSH2 0x4094 DUP7 DUP3 DUP8 ADD PUSH2 0x3B7B JUMP JUMPDEST SWAP2 POP POP SWAP3 POP SWAP3 POP SWAP3 JUMP JUMPDEST PUSH0 PUSH1 0x60 DUP3 ADD SWAP1 POP PUSH2 0x40B1 PUSH0 DUP4 ADD DUP7 PUSH2 0x30B5 JUMP JUMPDEST PUSH2 0x40BE PUSH1 0x20 DUP4 ADD DUP6 PUSH2 0x30B5 JUMP JUMPDEST PUSH2 0x40CB PUSH1 0x40 DUP4 ADD DUP5 PUSH2 0x32EF JUMP JUMPDEST SWAP5 SWAP4 POP POP POP POP JUMP JUMPDEST PUSH0 DUP1 PUSH0 DUP1 PUSH1 0x80 DUP6 DUP8 SUB SLT ISZERO PUSH2 0x40EB JUMPI PUSH2 0x40EA PUSH2 0x2F7E JUMP JUMPDEST JUMPDEST PUSH0 PUSH2 0x40F8 DUP8 DUP3 DUP9 ADD PUSH2 0x39E5 JUMP JUMPDEST SWAP5 POP POP PUSH1 0x20 PUSH2 0x4109 DUP8 DUP3 DUP9 ADD PUSH2 0x39F9 JUMP JUMPDEST SWAP4 POP POP PUSH1 0x40 PUSH2 0x411A DUP8 DUP3 DUP9 ADD PUSH2 0x3A34 JUMP JUMPDEST SWAP3 POP POP PUSH1 0x60 PUSH2 0x412B DUP8 DUP3 DUP9 ADD PUSH2 0x3A34 JUMP JUMPDEST SWAP2 POP POP SWAP3 SWAP6 SWAP2 SWAP5 POP SWAP3 POP JUMP JUMPDEST PUSH2 0x4140 DUP2 PUSH2 0x39C2 JUMP JUMPDEST DUP3 MSTORE POP POP JUMP JUMPDEST PUSH0 PUSH1 0x20 DUP3 ADD SWAP1 POP PUSH2 0x4159 PUSH0 DUP4 ADD DUP5 PUSH2 0x4137 JUMP JUMPDEST SWAP3 SWAP2 POP POP JUMP JUMPDEST PUSH0 PUSH1 0x60 DUP3 ADD SWAP1 POP PUSH2 0x4172 PUSH0 DUP4 ADD DUP7 PUSH2 0x368D JUMP JUMPDEST PUSH2 0x417F PUSH1 0x20 DUP4 ADD DUP6 PUSH2 0x3E70 JUMP JUMPDEST PUSH2 0x418C PUSH1 0x40 DUP4 ADD DUP5 PUSH2 0x3E70 JUMP JUMPDEST SWAP5 SWAP4 POP POP POP POP JUMP JUMPDEST PUSH0 PUSH1 0xE0 DUP3 ADD SWAP1 POP PUSH2 0x41A7 PUSH0 DUP4 ADD DUP11 PUSH2 0x32EF JUMP JUMPDEST PUSH2 0x41B4 PUSH1 0x20 DUP4 ADD DUP10 PUSH2 0x4137 JUMP JUMPDEST PUSH2 0x41C1 PUSH1 0x40 DUP4 ADD DUP9 PUSH2 0x368D JUMP JUMPDEST PUSH2 0x41CE PUSH1 0x60 DUP4 ADD DUP8 PUSH2 0x3E70 JUMP JUMPDEST PUSH2 0x41DB PUSH1 0x80 DUP4 ADD DUP7 PUSH2 0x3E70 JUMP JUMPDEST PUSH2 0x41E8 PUSH1 0xA0 DUP4 ADD DUP6 PUSH2 0x30B5 JUMP JUMPDEST PUSH2 0x41F5 PUSH1 0xC0 DUP4 ADD DUP5 PUSH2 0x30B5 JUMP JUMPDEST SWAP9 SWAP8 POP POP POP POP POP POP POP POP JUMP JUMPDEST PUSH0 PUSH1 0x20 DUP3 DUP5 SUB SLT ISZERO PUSH2 0x4216 JUMPI PUSH2 0x4215 PUSH2 0x2F7E JUMP JUMPDEST JUMPDEST PUSH0 PUSH2 0x4223 DUP5 DUP3 DUP6 ADD PUSH2 0x3A48 JUMP JUMPDEST SWAP2 POP POP SWAP3 SWAP2 POP POP JUMP JUMPDEST PUSH32 0x666F72416E790000000000000000000000000000000000000000000000000000 DUP2 MSTORE POP JUMP JUMPDEST PUSH0 PUSH1 0x20 DUP3 ADD SWAP1 POP PUSH2 0x4264 PUSH0 DUP4 ADD PUSH2 0x422C JUMP JUMPDEST SWAP2 SWAP1 POP JUMP JUMPDEST PUSH0 PUSH8 0xFFFFFFFFFFFFFFFF DUP3 GT ISZERO PUSH2 0x4283 JUMPI PUSH2 0x4282 PUSH2 0x3118 JUMP JUMPDEST JUMPDEST PUSH1 0x20 DUP3 MUL SWAP1 POP SWAP2 SWAP1 POP JUMP JUMPDEST PUSH0 DUP1 REVERT JUMPDEST PUSH0 PUSH2 0x42A4 PUSH2 0x429F DUP5 PUSH2 0x4269 JUMP JUMPDEST PUSH2 0x3176 JUMP JUMPDEST SWAP1 POP DUP1 PUSH1 0x20 DUP5 MUL DUP4 ADD DUP6 DUP2 GT ISZERO PUSH2 0x42BE JUMPI PUSH2 0x42BD PUSH2 0x428E JUMP JUMPDEST JUMPDEST DUP4 JUMPDEST DUP2 DUP2 LT ISZERO PUSH2 0x42E7 JUMPI DUP1 PUSH2 0x42D3 DUP9 DUP3 PUSH2 0x3A34 JUMP JUMPDEST DUP5 MSTORE PUSH1 0x20 DUP5 ADD SWAP4 POP POP PUSH1 0x20 DUP2 ADD SWAP1 POP PUSH2 0x42C0 JUMP JUMPDEST POP POP POP SWAP4 SWAP3 POP POP POP JUMP JUMPDEST PUSH0 DUP3 PUSH1 0x1F DUP4 ADD SLT PUSH2 0x4305 JUMPI PUSH2 0x4304 PUSH2 0x3110 JUMP JUMPDEST JUMPDEST PUSH2 0x4B1 PUSH2 0x4313 DUP5 DUP3 DUP6 PUSH2 0x4292 JUMP JUMPDEST SWAP2 POP POP SWAP3 SWAP2 POP POP JUMP JUMPDEST PUSH0 PUSH2 0x9620 DUP3 DUP5 SUB SLT ISZERO PUSH2 0x4332 JUMPI PUSH2 0x4331 PUSH2 0x2F7E JUMP JUMPDEST JUMPDEST PUSH0 PUSH2 0x433F DUP5 DUP3 DUP6 ADD PUSH2 0x42F1 JUMP JUMPDEST SWAP2 POP POP SWAP3 SWAP2 POP POP JUMP JUMPDEST PUSH0 PUSH2 0x4352 DUP3 PUSH2 0x30DD JUMP JUMPDEST SWAP2 POP PUSH2 0x435D DUP4 PUSH2 0x30DD JUMP JUMPDEST SWAP3 POP DUP3 DUP3 SUB SWAP1 POP DUP2 DUP2 GT ISZERO PUSH2 0x4375 JUMPI PUSH2 0x4374 PUSH2 0x3883 JUMP JUMPDEST JUMPDEST SWAP3 SWAP2 POP POP JUMP JUMPDEST PUSH32 0x4E487B7100000000000000000000000000000000000000000000000000000000 PUSH0 MSTORE PUSH1 0x32 PUSH1 0x4 MSTORE PUSH1 0x24 PUSH0 REVERT JUMPDEST PUSH0 PUSH2 0x43B2 DUP3 PUSH2 0x39C2 JUMP JUMPDEST SWAP2 POP PUSH2 0xFFFF DUP3 SUB PUSH2 0x43C6 JUMPI PUSH2 0x43C5 PUSH2 0x3883 JUMP JUMPDEST JUMPDEST PUSH1 0x1 DUP3 ADD SWAP1 POP SWAP2 SWAP1 POP JUMP JUMPDEST PUSH32 0x4E487B7100000000000000000000000000000000000000000000000000000000 PUSH0 MSTORE PUSH1 0x12 PUSH1 0x4 MSTORE PUSH1 0x24 PUSH0 REVERT JUMPDEST PUSH0 PUSH2 0x4408 DUP3 PUSH2 0x39C2 JUMP JUMPDEST SWAP2 POP PUSH2 0x4413 DUP4 PUSH2 0x39C2 JUMP JUMPDEST SWAP3 POP DUP3 PUSH2 0x4423 JUMPI PUSH2 0x4422 PUSH2 0x43D1 JUMP JUMPDEST JUMPDEST DUP3 DUP3 DIV SWAP1 POP SWAP3 SWAP2 POP POP JUMP JUMPDEST PUSH0 PUSH2 0x4438 DUP3 PUSH2 0x39C2 JUMP JUMPDEST SWAP2 POP PUSH2 0x4443 DUP4 PUSH2 0x39C2 JUMP JUMPDEST SWAP3 POP DUP3 DUP3 MUL PUSH2 0x4451 DUP2 PUSH2 0x39C2 JUMP JUMPDEST SWAP2 POP DUP1 DUP3 EQ PUSH2 0x4463 JUMPI PUSH2 0x4462 PUSH2 0x3883 JUMP JUMPDEST JUMPDEST POP SWAP3 SWAP2 POP POP JUMP INVALID LOG2 PUSH5 0x6970667358 0x22 SLT KECCAK256 NUMBER 0xAA NUMBER MOD EXTCODEHASH 0xCB AND EXP TIMESTAMP 0x4A SWAP1 CALLCODE 0x5D 0xDB PUSH23 0xE882D30FF4BAD9BC3C6004EFA282EC703C64736F6C6343 STOP ADDMOD EQ STOP CALLER "
		},
		"gasEstimates": {
			"creation": {
				"codeDepositCost": "3513600",
				"executionCost": "infinite",
				"totalCost": "infinite"
			},
			"external": {
				"AccessControl(address,address,bytes4)": "infinite",
				"CLOCK_MODE()": "infinite",
				"Clock()": "420",
				"cancel(address,uint256,bytes,bytes32)": "infinite",
				"cancelPendingRepublicAddress(address)": "infinite",
				"eip712Domain()": "infinite",
				"execute(address,uint256,bytes,bytes32)": "infinite",
				"getAuthorityAddress()": "467",
				"getGovernance()": "2588",
				"getPresidentAdd()": "2631",
				"getPresidentBan()": "2597",
				"getRepublicAddress()": "2587",
				"getgovernanceVersion()": "2574",
				"governoraccess(address)": "751",
				"hashProposal(address,uint256,bytes,bytes32)": "infinite",
				"name()": "infinite",
				"proposal(uint256,address,address,address)": "infinite",
				"setConnectors(address,address)": "infinite",
				"setPendigPresident(address)": "infinite",
				"setPendingGovernanceContractAddress(address)": "infinite",
				"setPendingRepublicAddress(address)": "infinite",
				"setPresidentBaned(bool)": "infinite",
				"setvoteTiming(uint32,bytes32)": "infinite",
				"state(uint256)": "infinite",
				"transferGovernanceContractAddress(address)": "infinite",
				"transferPresident()": "110020",
				"transferRepublicAddress(address)": "infinite",
				"version()": "infinite"
			},
			"internal": {
				"_voteResult(struct storageTCN.ProposalCore memory)": "infinite",
				"isQuorumValid(uint16)": "infinite"
			}
		},
		"methodIdentifiers": {
			"AccessControl(address,address,bytes4)": "e35b31b7",
			"CLOCK_MODE()": "4bf5d7e9",
			"Clock()": "5dad85c2",
			"cancel(address,uint256,bytes,bytes32)": "85488408",
			"cancelPendingRepublicAddress(address)": "52e305de",
			"eip712Domain()": "84b0196e",
			"execute(address,uint256,bytes,bytes32)": "88aa4c12",
			"getAuthorityAddress()": "e47a9d46",
			"getGovernance()": "289b3c0d",
			"getPresidentAdd()": "66410997",
			"getPresidentBan()": "6cf106d7",
			"getRepublicAddress()": "c5a1c5c1",
			"getgovernanceVersion()": "c387b49c",
			"governoraccess(address)": "3610feb3",
			"hashProposal(address,uint256,bytes,bytes32)": "31d133c2",
			"name()": "06fdde03",
			"proposal(uint256,address,address,address)": "c8021c2e",
			"setConnectors(address,address)": "3a8512b4",
			"setPendigPresident(address)": "054203bd",
			"setPendingGovernanceContractAddress(address)": "ca4cce68",
			"setPendingRepublicAddress(address)": "1f72783a",
			"setPresidentBaned(bool)": "b5c09c68",
			"setvoteTiming(uint32,bytes32)": "667d639b",
			"state(uint256)": "3e4f49e6",
			"transferGovernanceContractAddress(address)": "ee7126c3",
			"transferPresident()": "0df4c390",
			"transferRepublicAddress(address)": "9c20fe71",
			"version()": "54fd4d50"
		}
	},
	"abi": [
		{
			"inputs": [
				{
					"internalType": "string",
					"name": "name_",
					"type": "string"
				}
			],
			"stateMutability": "nonpayable",
			"type": "constructor"
		},
		{
			"inputs": [],
			"name": "AccessOnlyForThePendigPresident",
			"type": "error"
		},
		{
			"inputs": [
				{
					"internalType": "address",
					"name": "ballot",
					"type": "address"
				}
			],
			"name": "AddressNotReturnVoteCount",
			"type": "error"
		},
		{
			"inputs": [
				{
					"internalType": "address",
					"name": "governances_",
					"type": "address"
				}
			],
			"name": "GovernanceContractNotMatch",
			"type": "error"
		},
		{
			"inputs": [
				{
					"internalType": "uint256",
					"name": "proposalId",
					"type": "uint256"
				}
			],
			"name": "GovernorNonexistentProposal",
			"type": "error"
		},
		{
			"inputs": [
				{
					"internalType": "address",
					"name": "target_",
					"type": "address"
				},
				{
					"internalType": "address",
					"name": "proposer_",
					"type": "address"
				},
				{
					"internalType": "uint256",
					"name": "value_",
					"type": "uint256"
				}
			],
			"name": "InavlidProposalParams",
			"type": "error"
		},
		{
			"inputs": [
				{
					"internalType": "uint16",
					"name": "quorum",
					"type": "uint16"
				}
			],
			"name": "InvalidQuorum",
			"type": "error"
		},
		{
			"inputs": [],
			"name": "InvalidShortString",
			"type": "error"
		},
		{
			"inputs": [
				{
					"internalType": "uint32",
					"name": "voteDuration_",
					"type": "uint32"
				},
				{
					"internalType": "uint48",
					"name": "voteStart_",
					"type": "uint48"
				},
				{
					"internalType": "uint48",
					"name": "etaSeconds_",
					"type": "uint48"
				}
			],
			"name": "InvalidVotingTImeParams",
			"type": "error"
		},
		{
			"inputs": [
				{
					"internalType": "uint48",
					"name": "reminingTime",
					"type": "uint48"
				}
			],
			"name": "RemainingTimeUntilTheConfirmationDeadline",
			"type": "error"
		},
		{
			"inputs": [
				{
					"internalType": "uint256",
					"name": "proposalId",
					"type": "uint256"
				}
			],
			"name": "StateProposalIsSpecified",
			"type": "error"
		},
		{
			"inputs": [
				{
					"internalType": "address",
					"name": "Applicant",
					"type": "address"
				}
			],
			"name": "StorageContractS_invalidAccess",
			"type": "error"
		},
		{
			"inputs": [
				{
					"internalType": "address",
					"name": "storageContract",
					"type": "address"
				},
				{
					"internalType": "uint256",
					"name": "proposalId",
					"type": "uint256"
				}
			],
			"name": "StorageContractS_invalidState",
			"type": "error"
		},
		{
			"inputs": [
				{
					"internalType": "string",
					"name": "str",
					"type": "string"
				}
			],
			"name": "StringTooLong",
			"type": "error"
		},
		{
			"inputs": [
				{
					"internalType": "address",
					"name": "NewGCAddress",
					"type": "address"
				}
			],
			"name": "TheAddressIsNotValidForGC",
			"type": "error"
		},
		{
			"inputs": [
				{
					"internalType": "address",
					"name": "newRAddress",
					"type": "address"
				}
			],
			"name": "TheAddressIsNotValidForRAddress",
			"type": "error"
		},
		{
			"inputs": [
				{
					"internalType": "uint256",
					"name": "proposalId_",
					"type": "uint256"
				}
			],
			"name": "ThisProposalExists",
			"type": "error"
		},
		{
			"anonymous": false,
			"inputs": [
				{
					"indexed": true,
					"internalType": "address",
					"name": "storageContract",
					"type": "address"
				},
				{
					"indexed": true,
					"internalType": "uint256",
					"name": "proposalId",
					"type": "uint256"
				}
			],
			"name": "ChangeStateToExecutedAndContinue",
			"type": "event"
		},
		{
			"anonymous": false,
			"inputs": [],
			"name": "EIP712DomainChanged",
			"type": "event"
		},
		{
			"anonymous": false,
			"inputs": [
				{
					"indexed": true,
					"internalType": "uint256",
					"name": "proposalId",
					"type": "uint256"
				}
			],
			"name": "ProposalCanceled",
			"type": "event"
		},
		{
			"anonymous": false,
			"inputs": [
				{
					"indexed": true,
					"internalType": "uint256",
					"name": "proposalId",
					"type": "uint256"
				}
			],
			"name": "SetProposal",
			"type": "event"
		},
		{
			"anonymous": false,
			"inputs": [
				{
					"indexed": true,
					"internalType": "address",
					"name": "GCAddress",
					"type": "address"
				},
				{
					"indexed": true,
					"internalType": "uint32",
					"name": "version",
					"type": "uint32"
				}
			],
			"name": "TheNewGCAddressWasConfirmed",
			"type": "event"
		},
		{
			"anonymous": false,
			"inputs": [
				{
					"indexed": true,
					"internalType": "address",
					"name": "presidentAdd",
					"type": "address"
				},
				{
					"indexed": true,
					"internalType": "uint32",
					"name": "nonce",
					"type": "uint32"
				}
			],
			"name": "TheNewPresidentWasConfirmed",
			"type": "event"
		},
		{
			"anonymous": false,
			"inputs": [
				{
					"indexed": true,
					"internalType": "address",
					"name": "RepublicAddress",
					"type": "address"
				},
				{
					"indexed": true,
					"internalType": "uint32",
					"name": "version",
					"type": "uint32"
				}
			],
			"name": "TheNewRepublicAddressWasConfirmed",
			"type": "event"
		},
		{
			"anonymous": false,
			"inputs": [
				{
					"indexed": true,
					"internalType": "address",
					"name": "newGCAddress",
					"type": "address"
				}
			],
			"name": "TheNextGCAddressWasElected",
			"type": "event"
		},
		{
			"anonymous": false,
			"inputs": [
				{
					"indexed": true,
					"internalType": "address",
					"name": "newPresidentAdd",
					"type": "address"
				}
			],
			"name": "TheNextPresidentWasElected",
			"type": "event"
		},
		{
			"anonymous": false,
			"inputs": [
				{
					"indexed": true,
					"internalType": "address",
					"name": "PRAddress",
					"type": "address"
				}
			],
			"name": "TheNextRepublicAddressWasCancelled",
			"type": "event"
		},
		{
			"anonymous": false,
			"inputs": [
				{
					"indexed": true,
					"internalType": "address",
					"name": "newRepublicAddress",
					"type": "address"
				}
			],
			"name": "TheNextRepublicAddressWasElected",
			"type": "event"
		},
		{
			"anonymous": false,
			"inputs": [
				{
					"indexed": true,
					"internalType": "bool",
					"name": "baned",
					"type": "bool"
				},
				{
					"indexed": true,
					"internalType": "bool",
					"name": "done",
					"type": "bool"
				}
			],
			"name": "TheStatusOfBanningAllActivitiesAndDone",
			"type": "event"
		},
		{
			"anonymous": false,
			"inputs": [
				{
					"indexed": true,
					"internalType": "address",
					"name": "ballotAddress",
					"type": "address"
				}
			],
			"name": "ValidBallotcontract",
			"type": "event"
		},
		{
			"anonymous": false,
			"inputs": [
				{
					"indexed": true,
					"internalType": "uint32",
					"name": "time",
					"type": "uint32"
				}
			],
			"name": "changeEtaSeconds",
			"type": "event"
		},
		{
			"anonymous": false,
			"inputs": [
				{
					"indexed": true,
					"internalType": "uint32",
					"name": "time",
					"type": "uint32"
				}
			],
			"name": "changeVoteDelay",
			"type": "event"
		},
		{
			"anonymous": false,
			"inputs": [
				{
					"indexed": true,
					"internalType": "uint32",
					"name": "time",
					"type": "uint32"
				}
			],
			"name": "changeVoteDuration",
			"type": "event"
		},
		{
			"inputs": [
				{
					"internalType": "address",
					"name": "caller",
					"type": "address"
				},
				{
					"internalType": "address",
					"name": "target",
					"type": "address"
				},
				{
					"internalType": "bytes4",
					"name": "Fselector",
					"type": "bytes4"
				}
			],
			"name": "AccessControl",
			"outputs": [
				{
					"internalType": "bool",
					"name": "accessed",
					"type": "bool"
				}
			],
			"stateMutability": "nonpayable",
			"type": "function"
		},
		{
			"inputs": [],
			"name": "CLOCK_MODE",
			"outputs": [
				{
					"internalType": "string",
					"name": "",
					"type": "string"
				}
			],
			"stateMutability": "pure",
			"type": "function"
		},
		{
			"inputs": [],
			"name": "Clock",
			"outputs": [
				{
					"internalType": "uint256",
					"name": "",
					"type": "uint256"
				}
			],
			"stateMutability": "view",
			"type": "function"
		},
		{
			"inputs": [
				{
					"internalType": "address",
					"name": "target",
					"type": "address"
				},
				{
					"internalType": "uint256",
					"name": "value",
					"type": "uint256"
				},
				{
					"internalType": "bytes",
					"name": "callData",
					"type": "bytes"
				},
				{
					"internalType": "bytes32",
					"name": "descriptionHash",
					"type": "bytes32"
				}
			],
			"name": "cancel",
			"outputs": [],
			"stateMutability": "nonpayable",
			"type": "function"
		},
		{
			"inputs": [
				{
					"internalType": "address",
					"name": "PRAdress",
					"type": "address"
				}
			],
			"name": "cancelPendingRepublicAddress",
			"outputs": [],
			"stateMutability": "nonpayable",
			"type": "function"
		},
		{
			"inputs": [],
			"name": "eip712Domain",
			"outputs": [
				{
					"internalType": "bytes1",
					"name": "fields",
					"type": "bytes1"
				},
				{
					"internalType": "string",
					"name": "name",
					"type": "string"
				},
				{
					"internalType": "string",
					"name": "version",
					"type": "string"
				},
				{
					"internalType": "uint256",
					"name": "chainId",
					"type": "uint256"
				},
				{
					"internalType": "address",
					"name": "verifyingContract",
					"type": "address"
				},
				{
					"internalType": "bytes32",
					"name": "salt",
					"type": "bytes32"
				},
				{
					"internalType": "uint256[]",
					"name": "extensions",
					"type": "uint256[]"
				}
			],
			"stateMutability": "view",
			"type": "function"
		},
		{
			"inputs": [
				{
					"internalType": "address",
					"name": "target",
					"type": "address"
				},
				{
					"internalType": "uint256",
					"name": "value",
					"type": "uint256"
				},
				{
					"internalType": "bytes",
					"name": "callData",
					"type": "bytes"
				},
				{
					"internalType": "bytes32",
					"name": "descriptionHash",
					"type": "bytes32"
				}
			],
			"name": "execute",
			"outputs": [],
			"stateMutability": "nonpayable",
			"type": "function"
		},
		{
			"inputs": [],
			"name": "getAuthorityAddress",
			"outputs": [
				{
					"internalType": "address",
					"name": "",
					"type": "address"
				}
			],
			"stateMutability": "view",
			"type": "function"
		},
		{
			"inputs": [],
			"name": "getGovernance",
			"outputs": [
				{
					"internalType": "address",
					"name": "",
					"type": "address"
				}
			],
			"stateMutability": "view",
			"type": "function"
		},
		{
			"inputs": [],
			"name": "getPresidentAdd",
			"outputs": [
				{
					"internalType": "address",
					"name": "",
					"type": "address"
				}
			],
			"stateMutability": "view",
			"type": "function"
		},
		{
			"inputs": [],
			"name": "getPresidentBan",
			"outputs": [
				{
					"internalType": "bool",
					"name": "",
					"type": "bool"
				}
			],
			"stateMutability": "view",
			"type": "function"
		},
		{
			"inputs": [],
			"name": "getRepublicAddress",
			"outputs": [
				{
					"internalType": "address",
					"name": "RG",
					"type": "address"
				}
			],
			"stateMutability": "view",
			"type": "function"
		},
		{
			"inputs": [],
			"name": "getgovernanceVersion",
			"outputs": [
				{
					"internalType": "uint32",
					"name": "",
					"type": "uint32"
				}
			],
			"stateMutability": "view",
			"type": "function"
		},
		{
			"inputs": [
				{
					"internalType": "address",
					"name": "",
					"type": "address"
				}
			],
			"name": "governoraccess",
			"outputs": [
				{
					"internalType": "bool",
					"name": "",
					"type": "bool"
				}
			],
			"stateMutability": "nonpayable",
			"type": "function"
		},
		{
			"inputs": [
				{
					"internalType": "address",
					"name": "target",
					"type": "address"
				},
				{
					"internalType": "uint256",
					"name": "value",
					"type": "uint256"
				},
				{
					"internalType": "bytes",
					"name": "callData",
					"type": "bytes"
				},
				{
					"internalType": "bytes32",
					"name": "descriptionHash",
					"type": "bytes32"
				}
			],
			"name": "hashProposal",
			"outputs": [
				{
					"internalType": "uint256",
					"name": "",
					"type": "uint256"
				}
			],
			"stateMutability": "pure",
			"type": "function"
		},
		{
			"inputs": [],
			"name": "name",
			"outputs": [
				{
					"internalType": "string",
					"name": "",
					"type": "string"
				}
			],
			"stateMutability": "view",
			"type": "function"
		},
		{
			"inputs": [
				{
					"internalType": "uint256",
					"name": "value",
					"type": "uint256"
				},
				{
					"internalType": "address",
					"name": "target",
					"type": "address"
				},
				{
					"internalType": "address",
					"name": "proposer",
					"type": "address"
				},
				{
					"internalType": "address",
					"name": "ballotAddress",
					"type": "address"
				}
			],
			"name": "proposal",
			"outputs": [
				{
					"internalType": "uint256",
					"name": "proposalId",
					"type": "uint256"
				}
			],
			"stateMutability": "nonpayable",
			"type": "function"
		},
		{
			"inputs": [
				{
					"internalType": "address",
					"name": "applicantAdd_",
					"type": "address"
				},
				{
					"internalType": "address",
					"name": "storageAdd_",
					"type": "address"
				}
			],
			"name": "setConnectors",
			"outputs": [],
			"stateMutability": "nonpayable",
			"type": "function"
		},
		{
			"inputs": [
				{
					"internalType": "address",
					"name": "newPresident",
					"type": "address"
				}
			],
			"name": "setPendigPresident",
			"outputs": [],
			"stateMutability": "nonpayable",
			"type": "function"
		},
		{
			"inputs": [
				{
					"internalType": "address",
					"name": "newGCAddress",
					"type": "address"
				}
			],
			"name": "setPendingGovernanceContractAddress",
			"outputs": [],
			"stateMutability": "nonpayable",
			"type": "function"
		},
		{
			"inputs": [
				{
					"internalType": "address",
					"name": "newRAddress",
					"type": "address"
				}
			],
			"name": "setPendingRepublicAddress",
			"outputs": [],
			"stateMutability": "nonpayable",
			"type": "function"
		},
		{
			"inputs": [
				{
					"internalType": "bool",
					"name": "baned",
					"type": "bool"
				}
			],
			"name": "setPresidentBaned",
			"outputs": [],
			"stateMutability": "nonpayable",
			"type": "function"
		},
		{
			"inputs": [
				{
					"internalType": "uint32",
					"name": "time",
					"type": "uint32"
				},
				{
					"internalType": "bytes32",
					"name": "varName",
					"type": "bytes32"
				}
			],
			"name": "setvoteTiming",
			"outputs": [],
			"stateMutability": "nonpayable",
			"type": "function"
		},
		{
			"inputs": [
				{
					"internalType": "uint256",
					"name": "proposalId",
					"type": "uint256"
				}
			],
			"name": "state",
			"outputs": [
				{
					"internalType": "enum TokenNamGovernor.ProposalState",
					"name": "",
					"type": "uint8"
				}
			],
			"stateMutability": "nonpayable",
			"type": "function"
		},
		{
			"inputs": [
				{
					"internalType": "address",
					"name": "pendingGCAdd",
					"type": "address"
				}
			],
			"name": "transferGovernanceContractAddress",
			"outputs": [],
			"stateMutability": "nonpayable",
			"type": "function"
		},
		{
			"inputs": [],
			"name": "transferPresident",
			"outputs": [],
			"stateMutability": "nonpayable",
			"type": "function"
		},
		{
			"inputs": [
				{
					"internalType": "address",
					"name": "RAddress",
					"type": "address"
				}
			],
			"name": "transferRepublicAddress",
			"outputs": [],
			"stateMutability": "nonpayable",
			"type": "function"
		},
		{
			"inputs": [],
			"name": "version",
			"outputs": [
				{
					"internalType": "string",
					"name": "",
					"type": "string"
				}
			],
			"stateMutability": "pure",
			"type": "function"
		}
	]
}