{
	"data": {
		"bytecode": {
			"linkReferences": {},
			"object": "61018060405262015180600c5f6101000a81548163ffffffff021916908363ffffffff16021790555062015180600c60046101000a81548163ffffffff021916908363ffffffff16021790555062093a80600c60086101000a81548163ffffffff021916908363ffffffff1602179055503480156200007c575f80fd5b506040516200549c3803806200549c8339818101604052810190620000a2919062000512565b80620000b36200022c60201b60201c565b620000c85f836200026960201b90919060201c565b6101208181525050620000e66001826200026960201b90919060201c565b6101408181525050818051906020012060e08181525050808051906020012061010081815250504660a0818152505062000125620002be60201b60201c565b608081815250503073ffffffffffffffffffffffffffffffffffffffff1660c08173ffffffffffffffffffffffffffffffffffffffff168152505050506316a8c8004262000174919062000597565b65ffffffffffff166101608165ffffffffffff16815250503360065f015f6101000a81548173ffffffffffffffffffffffffffffffffffffffff021916908373ffffffffffffffffffffffffffffffffffffffff16021790555060065f01601581819054906101000a900463ffffffff1680929190620001f490620005e0565b91906101000a81548163ffffffff021916908363ffffffff1602179055505080600b90816200022491906200083e565b505062000afb565b60606040518060400160405280600181526020017f3100000000000000000000000000000000000000000000000000000000000000815250905090565b5f6020835110156200028e5762000286836200031a60201b60201c565b9050620002b8565b82620002a0836200038460201b60201c565b5f019081620002b091906200083e565b5060ff5f1b90505b92915050565b5f7f8b73c3c69bb8fe3d512ecc4cf759cc79239f7b179b0ffacaa9a75d522b39400f60e051610100514630604051602001620002ff95949392919062000990565b60405160208183030381529060405280519060200120905090565b5f80829050601f815111156200036957826040517f305a27a900000000000000000000000000000000000000000000000000000000815260040162000360919062000a3b565b60405180910390fd5b805181620003779062000a8c565b5f1c175f1b915050919050565b5f819050919050565b5f604051905090565b5f80fd5b5f80fd5b5f80fd5b5f80fd5b5f601f19601f8301169050919050565b7f4e487b71000000000000000000000000000000000000000000000000000000005f52604160045260245ffd5b620003ee82620003a6565b810181811067ffffffffffffffff8211171562000410576200040f620003b6565b5b80604052505050565b5f620004246200038d565b9050620004328282620003e3565b919050565b5f67ffffffffffffffff821115620004545762000453620003b6565b5b6200045f82620003a6565b9050602081019050919050565b5f5b838110156200048b5780820151818401526020810190506200046e565b5f8484015250505050565b5f620004ac620004a68462000437565b62000419565b905082815260208101848484011115620004cb57620004ca620003a2565b5b620004d88482856200046c565b509392505050565b5f82601f830112620004f757620004f66200039e565b5b81516200050984826020860162000496565b91505092915050565b5f602082840312156200052a576200052962000396565b5b5f82015167ffffffffffffffff8111156200054a57620005496200039a565b5b6200055884828501620004e0565b91505092915050565b5f819050919050565b7f4e487b71000000000000000000000000000000000000000000000000000000005f52601160045260245ffd5b5f620005a38262000561565b9150620005b08362000561565b9250828201905080821115620005cb57620005ca6200056a565b5b92915050565b5f63ffffffff82169050919050565b5f620005ec82620005d1565b915063ffffffff82036200060557620006046200056a565b5b600182019050919050565b5f81519050919050565b7f4e487b71000000000000000000000000000000000000000000000000000000005f52602260045260245ffd5b5f60028204905060018216806200065f57607f821691505b6020821081036200067557620006746200061a565b5b50919050565b5f819050815f5260205f209050919050565b5f6020601f8301049050919050565b5f82821b905092915050565b5f60088302620006d97fffffffffffffffffffffffffffffffffffffffffffffffffffffffffffffffff826200069c565b620006e586836200069c565b95508019841693508086168417925050509392505050565b5f819050919050565b5f62000726620007206200071a8462000561565b620006fd565b62000561565b9050919050565b5f819050919050565b620007418362000706565b6200075962000750826200072d565b848454620006a8565b825550505050565b5f90565b6200076f62000761565b6200077c81848462000736565b505050565b5b81811015620007a357620007975f8262000765565b60018101905062000782565b5050565b601f821115620007f257620007bc816200067b565b620007c7846200068d565b81016020851015620007d7578190505b620007ef620007e6856200068d565b83018262000781565b50505b505050565b5f82821c905092915050565b5f620008145f1984600802620007f7565b1980831691505092915050565b5f6200082e838362000803565b9150826002028217905092915050565b620008498262000610565b67ffffffffffffffff811115620008655762000864620003b6565b5b62000871825462000647565b6200087e828285620007a7565b5f60209050601f831160018114620008b4575f84156200089f578287015190505b620008ab858262000821565b8655506200091a565b601f198416620008c4866200067b565b5f5b82811015620008ed57848901518255600182019150602085019450602081019050620008c6565b868310156200090d578489015162000909601f89168262000803565b8355505b6001600288020188555050505b505050505050565b5f819050919050565b620009368162000922565b82525050565b620009478162000561565b82525050565b5f73ffffffffffffffffffffffffffffffffffffffff82169050919050565b5f62000978826200094d565b9050919050565b6200098a816200096c565b82525050565b5f60a082019050620009a55f8301886200092b565b620009b460208301876200092b565b620009c360408301866200092b565b620009d260608301856200093c565b620009e160808301846200097f565b9695505050505050565b5f82825260208201905092915050565b5f62000a078262000610565b62000a138185620009eb565b935062000a258185602086016200046c565b62000a3081620003a6565b840191505092915050565b5f6020820190508181035f83015262000a558184620009fb565b905092915050565b5f81519050919050565b5f819050602082019050919050565b5f62000a83825162000922565b80915050919050565b5f62000a988262000a5d565b8262000aa48462000a67565b905062000ab18162000a76565b9250602082101562000af45762000aef7fffffffffffffffffffffffffffffffffffffffffffffffffffffffffffffffff836020036008026200069c565b831692505b5050919050565b60805160a05160c05160e0516101005161012051610140516101605161493162000b6b5f395f81816105fc01528181610c810152818161132401528181611e7f0152818161219a01526129c901525f61307501525f61303a01525f50505f50505f50505f50505f50506149315ff3fe608060405234801561000f575f80fd5b50600436106101f9575f3560e01c80636641099711610118578063b5c09c68116100ab578063ca4cce681161007a578063ca4cce6814610555578063e35b31b714610571578063e47a9d46146105a1578063e4f3e947146105bf578063ee7126c3146105dd576101f9565b8063b5c09c68146104cd578063c387b49c146104e9578063c5a1c5c114610507578063c8021c2e14610525576101f9565b806385488408116100e7578063854884081461045b57806388aa4c12146104775780639c20fe7114610493578063a53da00b146104af576101f9565b806366410997146103df578063667d639b146103fd5780636cf106d71461041957806384b0196e14610437576101f9565b80633610feb31161019057806352e305de1161015f57806352e305de1461036b578063544fa93e1461038757806354fd4d50146103a35780635dad85c2146103c1576101f9565b80633610feb3146102d15780633a8512b4146103015780633e4f49e61461031d5780634bf5d7e91461034d576101f9565b806318074eee116101cc57806318074eee1461025d5780631f72783a14610267578063289b3c0d1461028357806331d133c2146102a1576101f9565b8063054203bd146101fd57806306e99d931461021957806306fdde03146102355780630df4c39014610253575b5f80fd5b61021760048036038101906102129190613471565b6105f9565b005b610233600480360381019061022e91906134d1565b6107c4565b005b61023d610856565b60405161024a9190613586565b60405180910390f35b61025b6108e6565b005b610265610aa6565b005b610281600480360381019061027c9190613471565b610c7e565b005b61028b610f2e565b60405161029891906135b5565b60405180910390f35b6102bb60048036038101906102b69190613760565b610f58565b6040516102c891906137ef565b60405180910390f35b6102eb60048036038101906102e69190613471565b610f92565b6040516102f89190613817565b60405180910390f35b61031b60048036038101906103169190613830565b610f98565b005b6103376004803603810190610332919061386e565b611017565b604051610344919061390c565b60405180910390f35b6103556112e4565b6040516103629190613586565b60405180910390f35b61038560048036038101906103809190613471565b611321565b005b6103a1600480360381019061039c9190613471565b611569565b005b6103ab611675565b6040516103b89190613586565b60405180910390f35b6103c96116b2565b6040516103d691906137ef565b60405180910390f35b6103e76116b9565b6040516103f491906135b5565b60405180910390f35b6104176004803603810190610412919061395e565b6116e3565b005b6104216118a0565b60405161042e9190613817565b60405180910390f35b61043f6118b8565b6040516104529796959493929190613a9c565b60405180910390f35b61047560048036038101906104709190613760565b61195d565b005b610491600480360381019061048c9190613760565b611bae565b005b6104ad60048036038101906104a89190613471565b611e7c565b005b6104b761216d565b6040516104c491906135b5565b60405180910390f35b6104e760048036038101906104e291906134d1565b612197565b005b6104f16122dd565b6040516104fe9190613b2d565b60405180910390f35b61050f6122f8565b60405161051c91906135b5565b60405180910390f35b61053f600480360381019061053a9190613b46565b612322565b60405161054c91906137ef565b60405180910390f35b61056f600480360381019061056a9190613471565b6129c6565b005b61058b60048036038101906105869190613bff565b612bde565b6040516105989190613817565b60405180910390f35b6105a9612be6565b6040516105b691906135b5565b60405180910390f35b6105c7612bed565b6040516105d49190613817565b60405180910390f35b6105f760048036038101906105f29190613471565b612c05565b005b427f000000000000000000000000000000000000000000000000000000000000000065ffffffffffff1610156106a3576106316122f8565b73ffffffffffffffffffffffffffffffffffffffff163373ffffffffffffffffffffffffffffffffffffffff161461069e576040517f08c379a000000000000000000000000000000000000000000000000000000000815260040161069590613c99565b60405180910390fd5b61072a565b6106ab6116b9565b73ffffffffffffffffffffffffffffffffffffffff163373ffffffffffffffffffffffffffffffffffffffff161480156106ea57506106e86118a0565b155b610729576040517f08c379a000000000000000000000000000000000000000000000000000000000815260040161072090613c99565b60405180910390fd5b5b8060045f6101000a81548173ffffffffffffffffffffffffffffffffffffffff021916908373ffffffffffffffffffffffffffffffffffffffff1602179055506107746001612e4e565b61077e6001612e6d565b8073ffffffffffffffffffffffffffffffffffffffff167f3553f1f7ef0242113266a8d183b621bb87468c99237f36b1150b6ab3d688b68660405160405180910390a250565b6107cc6116b9565b73ffffffffffffffffffffffffffffffffffffffff163373ffffffffffffffffffffffffffffffffffffffff1614801561080b57506108096118a0565b155b61084a576040517f08c379a000000000000000000000000000000000000000000000000000000000815260040161084190613c99565b60405180910390fd5b61085381612e6d565b50565b6060600b805461086590613ce4565b80601f016020809104026020016040519081016040528092919081815260200182805461089190613ce4565b80156108dc5780601f106108b3576101008083540402835291602001916108dc565b820191905f5260205f20905b8154815290600101906020018083116108bf57829003601f168201915b5050505050905090565b3373ffffffffffffffffffffffffffffffffffffffff1660045f9054906101000a900473ffffffffffffffffffffffffffffffffffffffff1673ffffffffffffffffffffffffffffffffffffffff1603610a725760045f6101000a81549073ffffffffffffffffffffffffffffffffffffffff02191690553360065f015f6101000a81548173ffffffffffffffffffffffffffffffffffffffff021916908373ffffffffffffffffffffffffffffffffffffffff16021790555060065f01601581819054906101000a900463ffffffff16809291906109c490613d41565b91906101000a81548163ffffffff021916908363ffffffff160217905550506109ec5f612e4e565b60065f0160159054906101000a900463ffffffff1663ffffffff1660065f015f9054906101000a900473ffffffffffffffffffffffffffffffffffffffff1673ffffffffffffffffffffffffffffffffffffffff167f05ad9b3688012cd825c1bfb941e4f5afb2558af6af3deaddf01dbb5e85abdaf960405160405180910390a3610aa4565b6040517f6c4360f000000000000000000000000000000000000000000000000000000000815260040160405180910390fd5b565b3373ffffffffffffffffffffffffffffffffffffffff1660055f9054906101000a900473ffffffffffffffffffffffffffffffffffffffff1673ffffffffffffffffffffffffffffffffffffffff1603610c4a5760055f6101000a81549073ffffffffffffffffffffffffffffffffffffffff02191690553360075f015f6101000a81548173ffffffffffffffffffffffffffffffffffffffff021916908373ffffffffffffffffffffffffffffffffffffffff16021790555060075f01601581819054906101000a900463ffffffff1680929190610b8490613d41565b91906101000a81548163ffffffff021916908363ffffffff1602179055505060075f0160149054906101000a900460ff1615610bc457610bc35f612e6d565b5b60075f0160159054906101000a900463ffffffff1663ffffffff1660075f015f9054906101000a900473ffffffffffffffffffffffffffffffffffffffff1673ffffffffffffffffffffffffffffffffffffffff167f11e1b985c07e1bf3fec9bfd0bdb8c4a8e870ba2b26aa89fe50a6a19132ca10fd60405160405180910390a3610c7c565b6040517f6c4360f000000000000000000000000000000000000000000000000000000000815260040160405180910390fd5b565b427f000000000000000000000000000000000000000000000000000000000000000065ffffffffffff161015610d2857610cb66122f8565b73ffffffffffffffffffffffffffffffffffffffff163373ffffffffffffffffffffffffffffffffffffffff1614610d23576040517f08c379a0000000000000000000000000000000000000000000000000000000008152600401610d1a90613c99565b60405180910390fd5b610daf565b610d306116b9565b73ffffffffffffffffffffffffffffffffffffffff163373ffffffffffffffffffffffffffffffffffffffff16148015610d6f5750610d6d6118a0565b155b610dae576040517f08c379a0000000000000000000000000000000000000000000000000000000008152600401610da590613c99565b60405180910390fd5b5b5f8173ffffffffffffffffffffffffffffffffffffffff163b1115610eee573373ffffffffffffffffffffffffffffffffffffffff1660065f015f9054906101000a900473ffffffffffffffffffffffffffffffffffffffff1673ffffffffffffffffffffffffffffffffffffffff1603610e3257610e2d81612e8c565b610ee9565b6213c68042610e419190613d6c565b600560146101000a81548165ffffffffffff021916908365ffffffffffff1602179055508060025f6101000a81548173ffffffffffffffffffffffffffffffffffffffff021916908373ffffffffffffffffffffffffffffffffffffffff1602179055508073ffffffffffffffffffffffffffffffffffffffff167f675b770e821ba4aad20be77c58f912d689226272e805637f42f838a6035eed8660405160405180910390a25b610f2b565b806040517fc6322315000000000000000000000000000000000000000000000000000000008152600401610f2291906135b5565b60405180910390fd5b50565b5f60085f015f9054906101000a900473ffffffffffffffffffffffffffffffffffffffff16905090565b5f84848484604051602001610f709493929190613df1565b604051602081830303815290604052805190602001205f1c9050949350505050565b5f919050565b80600a5f8473ffffffffffffffffffffffffffffffffffffffff1673ffffffffffffffffffffffffffffffffffffffff1681526020019081526020015f205f6101000a81548173ffffffffffffffffffffffffffffffffffffffff021916908373ffffffffffffffffffffffffffffffffffffffff1602179055505050565b5f80600a5f3373ffffffffffffffffffffffffffffffffffffffff1673ffffffffffffffffffffffffffffffffffffffff1681526020019081526020015f205f9054906101000a900473ffffffffffffffffffffffffffffffffffffffff1690505f8173ffffffffffffffffffffffffffffffffffffffff1663013cf08b856040518263ffffffff1660e01b81526004016110b291906137ef565b61014060405180830381865afa1580156110ce573d5f803e3d5ffd5b505050506040513d601f19601f820116820180604052508101906110f29190613fe0565b90508060c0015115611109576005925050506112df565b8060e001511561111e576002925050506112df565b80610120015115611134576003925050506112df565b8061010001511561114a576004925050506112df565b5f816080015165ffffffffffff1690505f810361119e57846040517f6ad0607500000000000000000000000000000000000000000000000000000000815260040161119591906137ef565b60405180910390fd5b5f4290508181116111b5575f9450505050506112df565b5f836020015190505f8190505f8173ffffffffffffffffffffffffffffffffffffffff16635f8d96de6040518163ffffffff1660e01b8152600401602060405180830381865afa15801561120b573d5f803e3d5ffd5b505050506040513d601f19601f8201168201806040525081019061122f9190614020565b90508084116112485760019750505050505050506112df565b5f61125287612f95565b90505f81600581111561126857611267613899565b5b90508873ffffffffffffffffffffffffffffffffffffffff16631e9608a8828d6040518363ffffffff1660e01b81526004016112a592919061404b565b5f604051808303815f87803b1580156112bc575f80fd5b505af11580156112ce573d5f803e3d5ffd5b505050508199505050505050505050505b919050565b60606040518060400160405280600a81526020017f54696d65207374616d7000000000000000000000000000000000000000000000815250905090565b427f000000000000000000000000000000000000000000000000000000000000000065ffffffffffff1610156113cb576113596122f8565b73ffffffffffffffffffffffffffffffffffffffff163373ffffffffffffffffffffffffffffffffffffffff16146113c6576040517f08c379a00000000000000000000000000000000000000000000000000000000081526004016113bd90613c99565b60405180910390fd5b611452565b6113d36116b9565b73ffffffffffffffffffffffffffffffffffffffff163373ffffffffffffffffffffffffffffffffffffffff1614801561141257506114106118a0565b155b611451576040517f08c379a000000000000000000000000000000000000000000000000000000000815260040161144890613c99565b60405180910390fd5b5b8073ffffffffffffffffffffffffffffffffffffffff1660025f9054906101000a900473ffffffffffffffffffffffffffffffffffffffff1673ffffffffffffffffffffffffffffffffffffffff160361152957600560146101000a81549065ffffffffffff021916905560025f6101000a81549073ffffffffffffffffffffffffffffffffffffffff02191690558073ffffffffffffffffffffffffffffffffffffffff167ff299f61c7e493f99b20cb36c587ca903d085d5206bfe4452d295711e372da02960405160405180910390a2611566565b806040517fc632231500000000000000000000000000000000000000000000000000000000815260040161155d91906135b5565b60405180910390fd5b50565b6115716116b9565b73ffffffffffffffffffffffffffffffffffffffff163373ffffffffffffffffffffffffffffffffffffffff161480156115b057506115ae6118a0565b155b6115ef576040517f08c379a00000000000000000000000000000000000000000000000000000000081526004016115e690613c99565b60405180910390fd5b8060055f6101000a81548173ffffffffffffffffffffffffffffffffffffffff021916908373ffffffffffffffffffffffffffffffffffffffff1602179055508073ffffffffffffffffffffffffffffffffffffffff167fff3cad3ee28c342ad5f3d7c8ff8559ee4d21eb48494092b82a1652e443b3420b60405160405180910390a250565b60606040518060400160405280600181526020017f3100000000000000000000000000000000000000000000000000000000000000815250905090565b5f42905090565b5f60065f015f9054906101000a900473ffffffffffffffffffffffffffffffffffffffff16905090565b5f816040516020016116f59190614092565b6040516020818303038152906040528051906020012090505f8390508160405160200161172190614100565b60405160208183030381529060405280519060200120036117945780600c5f6101000a81548163ffffffff021916908363ffffffff1602179055508063ffffffff167fceccf714bc39bde68a069ae4149980bd5382cb4e6723fbdb6e7723728e4885ce60405160405180910390a261189a565b816040516020016117a49061415e565b60405160208183030381529060405280519060200120036118185780600c60046101000a81548163ffffffff021916908363ffffffff1602179055508063ffffffff167fdf149c5d5960b920ba24706165b5dcb67e2ac13ec5c3aa0909fa229bdd328d9760405160405180910390a2611899565b81604051602001611828906141bc565b60405160208183030381529060405280519060200120036118985780600c60086101000a81548163ffffffff021916908363ffffffff1602179055508063ffffffff167fc6213165f7e768a76a2092906d1174e3b00c99567acc7e4211898fae0ae2c33c60405160405180910390a25b5b5b50505050565b5f60065f0160149054906101000a900460ff16905090565b5f6060805f805f60606118c9613032565b6118d161306c565b46305f801b5f67ffffffffffffffff8111156118f0576118ef613609565b5b60405190808252806020026020018201604052801561191e5781602001602082028036833780820191505090505b507f0f00000000000000000000000000000000000000000000000000000000000000959493929190965096509650965096509650965090919293949596565b5f61196a85858585610f58565b90505f600a5f3373ffffffffffffffffffffffffffffffffffffffff1673ffffffffffffffffffffffffffffffffffffffff1681526020019081526020015f205f9054906101000a900473ffffffffffffffffffffffffffffffffffffffff1690505f73ffffffffffffffffffffffffffffffffffffffff168173ffffffffffffffffffffffffffffffffffffffff1614611b69575f611a0983611017565b9050600580811115611a1e57611a1d613899565b5b816005811115611a3157611a30613899565b5b1480611a61575060026005811115611a4c57611a4b613899565b5b816005811115611a5f57611a5e613899565b5b145b15611aa357826040517fdf7fe1cd000000000000000000000000000000000000000000000000000000008152600401611a9a91906137ef565b60405180910390fd5b5f8290505f8173ffffffffffffffffffffffffffffffffffffffff1663013cf08b866040518263ffffffff1660e01b8152600401611ae191906137ef565b61014060405180830381865afa158015611afd573d5f803e3d5ffd5b505050506040513d601f19601f82011682018060405250810190611b219190613fe0565b905060018160e0019015159081151581525050847f789cf55be980739dad1d0699b93b58e806b51c9d96619bfa8fe0a28abaa7b30c60405160405180910390a2505050611ba6565b336040517fda75b54a000000000000000000000000000000000000000000000000000000008152600401611b9d91906135b5565b60405180910390fd5b505050505050565b3373ffffffffffffffffffffffffffffffffffffffff168473ffffffffffffffffffffffffffffffffffffffff1603611e39575f611bee85858585610f58565b90505f611bfa82611017565b905060046005811115611c1057611c0f613899565b5b816005811115611c2357611c22613899565b5b03611d97575f600a5f3373ffffffffffffffffffffffffffffffffffffffff1673ffffffffffffffffffffffffffffffffffffffff1681526020019081526020015f205f9054906101000a900473ffffffffffffffffffffffffffffffffffffffff1690508073ffffffffffffffffffffffffffffffffffffffff16631e9608a86005856040518363ffffffff1660e01b8152600401611cc4929190614212565b5f604051808303815f87803b158015611cdb575f80fd5b505af1158015611ced573d5f803e3d5ffd5b5050505082600a5f3373ffffffffffffffffffffffffffffffffffffffff1673ffffffffffffffffffffffffffffffffffffffff1681526020019081526020015f205f9054906101000a900473ffffffffffffffffffffffffffffffffffffffff1673ffffffffffffffffffffffffffffffffffffffff167f63d1cc08aaae6e4c1e85034d4067073ea84d1113b6281a146a76156a7b3a9a3160405160405180910390a350611e32565b600a5f3373ffffffffffffffffffffffffffffffffffffffff1673ffffffffffffffffffffffffffffffffffffffff1681526020019081526020015f205f9054906101000a900473ffffffffffffffffffffffffffffffffffffffff16826040517f5f1e5ab6000000000000000000000000000000000000000000000000000000008152600401611e29929190614239565b60405180910390fd5b5050611e76565b336040517fda75b54a000000000000000000000000000000000000000000000000000000008152600401611e6d91906135b5565b60405180910390fd5b50505050565b427f000000000000000000000000000000000000000000000000000000000000000065ffffffffffff161015611f2657611eb46122f8565b73ffffffffffffffffffffffffffffffffffffffff163373ffffffffffffffffffffffffffffffffffffffff1614611f21576040517f08c379a0000000000000000000000000000000000000000000000000000000008152600401611f1890613c99565b60405180910390fd5b611fad565b611f2e6116b9565b73ffffffffffffffffffffffffffffffffffffffff163373ffffffffffffffffffffffffffffffffffffffff16148015611f6d5750611f6b6118a0565b155b611fac576040517f08c379a0000000000000000000000000000000000000000000000000000000008152600401611fa390613c99565b60405180910390fd5b5b42600560149054906101000a900465ffffffffffff1665ffffffffffff16101561210e575f600560149054906101000a900465ffffffffffff1665ffffffffffff160361202f576040517f08c379a0000000000000000000000000000000000000000000000000000000008152600401612026906142aa565b60405180910390fd5b8073ffffffffffffffffffffffffffffffffffffffff1660025f9054906101000a900473ffffffffffffffffffffffffffffffffffffffff1673ffffffffffffffffffffffffffffffffffffffff16036120cc57600560146101000a81549065ffffffffffff021916905560025f6101000a81549073ffffffffffffffffffffffffffffffffffffffff02191690556120c781612e8c565b612109565b806040517fc632231500000000000000000000000000000000000000000000000000000000815260040161210091906135b5565b60405180910390fd5b61216a565b42600560149054906101000a900465ffffffffffff1661212e91906142c8565b6040517f223a6cbb0000000000000000000000000000000000000000000000000000000081526004016121619190614310565b60405180910390fd5b50565b5f60075f015f9054906101000a900473ffffffffffffffffffffffffffffffffffffffff16905090565b427f000000000000000000000000000000000000000000000000000000000000000065ffffffffffff161015612241576121cf6122f8565b73ffffffffffffffffffffffffffffffffffffffff163373ffffffffffffffffffffffffffffffffffffffff161461223c576040517f08c379a000000000000000000000000000000000000000000000000000000000815260040161223390613c99565b60405180910390fd5b6122c8565b6122496116b9565b73ffffffffffffffffffffffffffffffffffffffff163373ffffffffffffffffffffffffffffffffffffffff1614801561228857506122866118a0565b155b6122c7576040517f08c379a00000000000000000000000000000000000000000000000000000000081526004016122be90613c99565b60405180910390fd5b5b6122d181612e4e565b6122da81612e6d565b50565b5f60085f0160159054906101000a900463ffffffff16905090565b5f60095f015f9054906101000a900473ffffffffffffffffffffffffffffffffffffffff16905090565b5f3373ffffffffffffffffffffffffffffffffffffffff168473ffffffffffffffffffffffffffffffffffffffff1614612391576040517f08c379a000000000000000000000000000000000000000000000000000000000815260040161238890614373565b60405180910390fd5b5f600a5f8673ffffffffffffffffffffffffffffffffffffffff1673ffffffffffffffffffffffffffffffffffffffff1681526020019081526020015f205f9054906101000a900473ffffffffffffffffffffffffffffffffffffffff1690505f8390508073ffffffffffffffffffffffffffffffffffffffff1663ec5bf07b6040518163ffffffff1660e01b8152600401602060405180830381865afa15801561243e573d5f803e3d5ffd5b505050506040513d601f19601f820116820180604052508101906124629190614020565b92505f8273ffffffffffffffffffffffffffffffffffffffff1663013cf08b856040518263ffffffff1660e01b815260040161249e91906137ef565b61014060405180830381865afa1580156124ba573d5f803e3d5ffd5b505050506040513d601f19601f820116820180604052508101906124de9190613fe0565b90505f816080015165ffffffffffff161461253057836040517f4ace252500000000000000000000000000000000000000000000000000000000815260040161252791906137ef565b60405180910390fd5b5f8273ffffffffffffffffffffffffffffffffffffffff1663bc33c7d76040518163ffffffff1660e01b81526004015f60405180830381865afa158015612579573d5f803e3d5ffd5b505050506040513d5f823e3d601f19601f820116820180604052508101906125a19190614443565b93505050503073ffffffffffffffffffffffffffffffffffffffff168173ffffffffffffffffffffffffffffffffffffffff161461261657806040517f4e5c69dd00000000000000000000000000000000000000000000000000000000815260040161260d91906135b5565b60405180910390fd5b5f805f8573ffffffffffffffffffffffffffffffffffffffff16634731ca2b6040518163ffffffff1660e01b8152600401606060405180830381865afa158015612662573d5f803e3d5ffd5b505050506040513d601f19601f8201168201806040525081019061268691906144df565b9250925092508273ffffffffffffffffffffffffffffffffffffffff168b73ffffffffffffffffffffffffffffffffffffffff161415806126f357508173ffffffffffffffffffffffffffffffffffffffff168a73ffffffffffffffffffffffffffffffffffffffff1614155b806126fe5750808c14155b15612744578282826040517fcb57cbf900000000000000000000000000000000000000000000000000000000815260040161273b9392919061452f565b60405180910390fd5b5f805f808973ffffffffffffffffffffffffffffffffffffffff1663b3a052466040518163ffffffff1660e01b8152600401608060405180830381865afa158015612791573d5f803e3d5ffd5b505050506040513d601f19601f820116820180604052508101906127b59190614564565b93509350935093506127c6846130a7565b61280757836040517f95ff727f0000000000000000000000000000000000000000000000000000000081526004016127fe91906145d7565b60405180910390fd5b600c5f9054906101000a900463ffffffff1663ffffffff168363ffffffff16108061285c5750600c60089054906101000a900463ffffffff1663ffffffff16426128519190613d6c565b8265ffffffffffff16105b806128865750600c60049054906101000a900463ffffffff1663ffffffff168165ffffffffffff16105b156128cc578282826040517f5b93d0dc0000000000000000000000000000000000000000000000000000000081526004016128c3939291906145f0565b60405180910390fd5b5f8d90508073ffffffffffffffffffffffffffffffffffffffff167f0ab14f904fb707b2337015c668e6429ca3170390b1c36260d7739566b9c822a560405160405180910390a28b73ffffffffffffffffffffffffffffffffffffffff16634a9c7caa8e878787878d886040518863ffffffff1660e01b81526004016129589796959493929190614625565b5f604051808303815f87803b15801561296f575f80fd5b505af1158015612981573d5f803e3d5ffd5b505050508c7fabf79943a752fab9ef8890892a82188e44e66a2cd2d8e411ae3ef82475ae49c860405160405180910390a2505050505050505050505050949350505050565b427f000000000000000000000000000000000000000000000000000000000000000065ffffffffffff161015612a70576129fe6122f8565b73ffffffffffffffffffffffffffffffffffffffff163373ffffffffffffffffffffffffffffffffffffffff1614612a6b576040517f08c379a0000000000000000000000000000000000000000000000000000000008152600401612a6290613c99565b60405180910390fd5b612af7565b612a786116b9565b73ffffffffffffffffffffffffffffffffffffffff163373ffffffffffffffffffffffffffffffffffffffff16148015612ab75750612ab56118a0565b155b612af6576040517f08c379a0000000000000000000000000000000000000000000000000000000008152600401612aed90613c99565b60405180910390fd5b5b5f8173ffffffffffffffffffffffffffffffffffffffff163b1115612b9e578060035f6101000a81548173ffffffffffffffffffffffffffffffffffffffff021916908373ffffffffffffffffffffffffffffffffffffffff1602179055508073ffffffffffffffffffffffffffffffffffffffff167fe8d8e3c7c3ebec0c177d0fe22d223f8b5071db39155104808d45027e368ba77a60405160405180910390a2612bdb565b806040517f84dbc6cb000000000000000000000000000000000000000000000000000000008152600401612bd291906135b5565b60405180910390fd5b50565b5f9392505050565b5f30905090565b5f60075f0160149054906101000a900460ff16905090565b612c0d6116b9565b73ffffffffffffffffffffffffffffffffffffffff163373ffffffffffffffffffffffffffffffffffffffff16148015612c4c5750612c4a6118a0565b155b612c8b576040517f08c379a0000000000000000000000000000000000000000000000000000000008152600401612c8290613c99565b60405180910390fd5b8073ffffffffffffffffffffffffffffffffffffffff1660035f9054906101000a900473ffffffffffffffffffffffffffffffffffffffff1673ffffffffffffffffffffffffffffffffffffffff1603612e0e5760035f6101000a81549073ffffffffffffffffffffffffffffffffffffffff02191690558060085f015f6101000a81548173ffffffffffffffffffffffffffffffffffffffff021916908373ffffffffffffffffffffffffffffffffffffffff16021790555060085f01601581819054906101000a900463ffffffff1680929190612d6990613d41565b91906101000a81548163ffffffff021916908363ffffffff1602179055505060085f0160159054906101000a900463ffffffff1663ffffffff1660085f015f9054906101000a900473ffffffffffffffffffffffffffffffffffffffff1673ffffffffffffffffffffffffffffffffffffffff167f5e86008a8467d1efccfe6cb6bd49ba7278d6af2745a1e6994e443322a423709360405160405180910390a3612e4b565b806040517f84dbc6cb000000000000000000000000000000000000000000000000000000008152600401612e4291906135b5565b60405180910390fd5b50565b8060065f0160146101000a81548160ff02191690831515021790555050565b8060075f0160146101000a81548160ff02191690831515021790555050565b8060095f015f6101000a81548173ffffffffffffffffffffffffffffffffffffffff021916908373ffffffffffffffffffffffffffffffffffffffff16021790555060095f01601581819054906101000a900463ffffffff1680929190612ef290613d41565b91906101000a81548163ffffffff021916908363ffffffff1602179055505060095f0160159054906101000a900463ffffffff1663ffffffff1660095f015f9054906101000a900473ffffffffffffffffffffffffffffffffffffffff1673ffffffffffffffffffffffffffffffffffffffff167ff7f7c26682668c39fd8c6dbca125bd9466e743b9e38acc3240867c139cd93c3060405160405180910390a350565b5f80826020015190505f8190505f8173ffffffffffffffffffffffffffffffffffffffff1663cfb62dee6040518163ffffffff1660e01b81526004016020604051808303815f875af1158015612fed573d5f803e3d5ffd5b505050506040513d601f19601f820116820180604052508101906130119190614692565b90508015613025576004935050505061302d565b600393505050505b919050565b60606130675f7f000000000000000000000000000000000000000000000000000000000000000061329990919063ffffffff16565b905090565b60606130a260017f000000000000000000000000000000000000000000000000000000000000000061329990919063ffffffff16565b905090565b5f80600a5f3373ffffffffffffffffffffffffffffffffffffffff1673ffffffffffffffffffffffffffffffffffffffff1681526020019081526020015f205f9054906101000a900473ffffffffffffffffffffffffffffffffffffffff1690505f8173ffffffffffffffffffffffffffffffffffffffff1663c34fe7036040518163ffffffff1660e01b8152600401613140906146e3565b61962060405180830381865afa15801561315c573d5f803e3d5ffd5b505050506040513d601f19601f8201168201806040525081019061318091906147ad565b90505f4290505f624f1a008261319691906147d9565b90505f80600190505b6104b08161ffff161161322c575f858261ffff166104b181106131c5576131c461480c565b5b602002015165ffffffffffff16031561322c57848161ffff166104b181106131f0576131ef61480c565b5b602002015165ffffffffffff168365ffffffffffff161015613219578161321690614839565b91505b808061322490614839565b91505061319f565b600281613239919061488f565b61ffff168861ffff1611156132575760019650505050505050613294565b60466064838a613267919061488f565b61327191906148bf565b61ffff16111561328a5760019650505050505050613294565b5f96505050505050505b919050565b606060ff5f1b83146132b5576132ae83613346565b9050613340565b8180546132c190613ce4565b80601f01602080910402602001604051908101604052809291908181526020018280546132ed90613ce4565b80156133385780601f1061330f57610100808354040283529160200191613338565b820191905f5260205f20905b81548152906001019060200180831161331b57829003601f168201915b505050505090505b92915050565b60605f613352836133b8565b90505f602067ffffffffffffffff8111156133705761336f613609565b5b6040519080825280601f01601f1916602001820160405280156133a25781602001600182028036833780820191505090505b5090508181528360208201528092505050919050565b5f8060ff835f1c169050601f8111156133fd576040517fb3512b0c00000000000000000000000000000000000000000000000000000000815260040160405180910390fd5b80915050919050565b5f604051905090565b5f80fd5b5f80fd5b5f73ffffffffffffffffffffffffffffffffffffffff82169050919050565b5f61344082613417565b9050919050565b61345081613436565b811461345a575f80fd5b50565b5f8135905061346b81613447565b92915050565b5f602082840312156134865761348561340f565b5b5f6134938482850161345d565b91505092915050565b5f8115159050919050565b6134b08161349c565b81146134ba575f80fd5b50565b5f813590506134cb816134a7565b92915050565b5f602082840312156134e6576134e561340f565b5b5f6134f3848285016134bd565b91505092915050565b5f81519050919050565b5f82825260208201905092915050565b5f5b83811015613533578082015181840152602081019050613518565b5f8484015250505050565b5f601f19601f8301169050919050565b5f613558826134fc565b6135628185613506565b9350613572818560208601613516565b61357b8161353e565b840191505092915050565b5f6020820190508181035f83015261359e818461354e565b905092915050565b6135af81613436565b82525050565b5f6020820190506135c85f8301846135a6565b92915050565b5f819050919050565b6135e0816135ce565b81146135ea575f80fd5b50565b5f813590506135fb816135d7565b92915050565b5f80fd5b5f80fd5b7f4e487b71000000000000000000000000000000000000000000000000000000005f52604160045260245ffd5b61363f8261353e565b810181811067ffffffffffffffff8211171561365e5761365d613609565b5b80604052505050565b5f613670613406565b905061367c8282613636565b919050565b5f67ffffffffffffffff82111561369b5761369a613609565b5b6136a48261353e565b9050602081019050919050565b828183375f83830152505050565b5f6136d16136cc84613681565b613667565b9050828152602081018484840111156136ed576136ec613605565b5b6136f88482856136b1565b509392505050565b5f82601f83011261371457613713613601565b5b81356137248482602086016136bf565b91505092915050565b5f819050919050565b61373f8161372d565b8114613749575f80fd5b50565b5f8135905061375a81613736565b92915050565b5f805f80608085870312156137785761377761340f565b5b5f6137858782880161345d565b9450506020613796878288016135ed565b935050604085013567ffffffffffffffff8111156137b7576137b6613413565b5b6137c387828801613700565b92505060606137d48782880161374c565b91505092959194509250565b6137e9816135ce565b82525050565b5f6020820190506138025f8301846137e0565b92915050565b6138118161349c565b82525050565b5f60208201905061382a5f830184613808565b92915050565b5f80604083850312156138465761384561340f565b5b5f6138538582860161345d565b92505060206138648582860161345d565b9150509250929050565b5f602082840312156138835761388261340f565b5b5f613890848285016135ed565b91505092915050565b7f4e487b71000000000000000000000000000000000000000000000000000000005f52602160045260245ffd5b600681106138d7576138d6613899565b5b50565b5f8190506138e7826138c6565b919050565b5f6138f6826138da565b9050919050565b613906816138ec565b82525050565b5f60208201905061391f5f8301846138fd565b92915050565b5f63ffffffff82169050919050565b61393d81613925565b8114613947575f80fd5b50565b5f8135905061395881613934565b92915050565b5f80604083850312156139745761397361340f565b5b5f6139818582860161394a565b92505060206139928582860161374c565b9150509250929050565b5f7fff0000000000000000000000000000000000000000000000000000000000000082169050919050565b6139d08161399c565b82525050565b6139df8161372d565b82525050565b5f81519050919050565b5f82825260208201905092915050565b5f819050602082019050919050565b613a17816135ce565b82525050565b5f613a288383613a0e565b60208301905092915050565b5f602082019050919050565b5f613a4a826139e5565b613a5481856139ef565b9350613a5f836139ff565b805f5b83811015613a8f578151613a768882613a1d565b9750613a8183613a34565b925050600181019050613a62565b5085935050505092915050565b5f60e082019050613aaf5f83018a6139c7565b8181036020830152613ac1818961354e565b90508181036040830152613ad5818861354e565b9050613ae460608301876137e0565b613af160808301866135a6565b613afe60a08301856139d6565b81810360c0830152613b108184613a40565b905098975050505050505050565b613b2781613925565b82525050565b5f602082019050613b405f830184613b1e565b92915050565b5f805f8060808587031215613b5e57613b5d61340f565b5b5f613b6b878288016135ed565b9450506020613b7c8782880161345d565b9350506040613b8d8782880161345d565b9250506060613b9e8782880161345d565b91505092959194509250565b5f7fffffffff0000000000000000000000000000000000000000000000000000000082169050919050565b613bde81613baa565b8114613be8575f80fd5b50565b5f81359050613bf981613bd5565b92915050565b5f805f60608486031215613c1657613c1561340f565b5b5f613c238682870161345d565b9350506020613c348682870161345d565b9250506040613c4586828701613beb565b9150509250925092565b7f416363657373206973206e6f742076616c6964000000000000000000000000005f82015250565b5f613c83601383613506565b9150613c8e82613c4f565b602082019050919050565b5f6020820190508181035f830152613cb081613c77565b9050919050565b7f4e487b71000000000000000000000000000000000000000000000000000000005f52602260045260245ffd5b5f6002820490506001821680613cfb57607f821691505b602082108103613d0e57613d0d613cb7565b5b50919050565b7f4e487b71000000000000000000000000000000000000000000000000000000005f52601160045260245ffd5b5f613d4b82613925565b915063ffffffff8203613d6157613d60613d14565b5b600182019050919050565b5f613d76826135ce565b9150613d81836135ce565b9250828201905080821115613d9957613d98613d14565b5b92915050565b5f81519050919050565b5f82825260208201905092915050565b5f613dc382613d9f565b613dcd8185613da9565b9350613ddd818560208601613516565b613de68161353e565b840191505092915050565b5f608082019050613e045f8301876135a6565b613e1160208301866137e0565b8181036040830152613e238185613db9565b9050613e3260608301846139d6565b95945050505050565b5f80fd5b5f81519050613e4d81613447565b92915050565b5f61ffff82169050919050565b613e6981613e53565b8114613e73575f80fd5b50565b5f81519050613e8481613e60565b92915050565b5f81519050613e9881613934565b92915050565b5f65ffffffffffff82169050919050565b613eb881613e9e565b8114613ec2575f80fd5b50565b5f81519050613ed381613eaf565b92915050565b5f81519050613ee7816134a7565b92915050565b5f6101408284031215613f0357613f02613e3b565b5b613f0e610140613667565b90505f613f1d84828501613e3f565b5f830152506020613f3084828501613e3f565b6020830152506040613f4484828501613e76565b6040830152506060613f5884828501613e8a565b6060830152506080613f6c84828501613ec5565b60808301525060a0613f8084828501613ec5565b60a08301525060c0613f9484828501613ed9565b60c08301525060e0613fa884828501613ed9565b60e083015250610100613fbd84828501613ed9565b61010083015250610120613fd384828501613ed9565b6101208301525092915050565b5f6101408284031215613ff657613ff561340f565b5b5f61400384828501613eed565b91505092915050565b5f8151905061401a816135d7565b92915050565b5f602082840312156140355761403461340f565b5b5f6140428482850161400c565b91505092915050565b5f60408201905061405e5f8301856137e0565b61406b60208301846137e0565b9392505050565b5f819050919050565b61408c6140878261372d565b614072565b82525050565b5f61409d828461407b565b60208201915081905092915050565b5f81905092915050565b7f5f766f74654475726174696f6e000000000000000000000000000000000000005f82015250565b5f6140ea600d836140ac565b91506140f5826140b6565b600d82019050919050565b5f61410a826140de565b9150819050919050565b7f5f6574615365636f6e64730000000000000000000000000000000000000000005f82015250565b5f614148600b836140ac565b915061415382614114565b600b82019050919050565b5f6141688261413c565b9150819050919050565b7f5f766f746564656c6179000000000000000000000000000000000000000000005f82015250565b5f6141a6600a836140ac565b91506141b182614172565b600a82019050919050565b5f6141c68261419a565b9150819050919050565b5f819050919050565b5f819050919050565b5f6141fc6141f76141f2846141d0565b6141d9565b6135ce565b9050919050565b61420c816141e2565b82525050565b5f6040820190506142255f830185614203565b61423260208301846137e0565b9392505050565b5f60408201905061424c5f8301856135a6565b61425960208301846137e0565b9392505050565b7f546865207265717565737420697320696e76616c6964000000000000000000005f82015250565b5f614294601683613506565b915061429f82614260565b602082019050919050565b5f6020820190508181035f8301526142c181614288565b9050919050565b5f6142d282613e9e565b91506142dd83613e9e565b9250828203905065ffffffffffff8111156142fb576142fa613d14565b5b92915050565b61430a81613e9e565b82525050565b5f6020820190506143235f830184614301565b92915050565b7f696e76616c6964206163636573730000000000000000000000000000000000005f82015250565b5f61435d600e83613506565b915061436882614329565b602082019050919050565b5f6020820190508181035f83015261438a81614351565b9050919050565b5f67ffffffffffffffff8211156143ab576143aa613609565b5b6143b48261353e565b9050602081019050919050565b5f6143d36143ce84614391565b613667565b9050828152602081018484840111156143ef576143ee613605565b5b6143fa848285613516565b509392505050565b5f82601f83011261441657614415613601565b5b81516144268482602086016143c1565b91505092915050565b5f8151905061443d81613736565b92915050565b5f805f806080858703121561445b5761445a61340f565b5b5f85015167ffffffffffffffff81111561447857614477613413565b5b61448487828801614402565b945050602085015167ffffffffffffffff8111156144a5576144a4613413565b5b6144b187828801614402565b93505060406144c28782880161442f565b92505060606144d387828801613e3f565b91505092959194509250565b5f805f606084860312156144f6576144f561340f565b5b5f61450386828701613e3f565b935050602061451486828701613e3f565b92505060406145258682870161400c565b9150509250925092565b5f6060820190506145425f8301866135a6565b61454f60208301856135a6565b61455c60408301846137e0565b949350505050565b5f805f806080858703121561457c5761457b61340f565b5b5f61458987828801613e76565b945050602061459a87828801613e8a565b93505060406145ab87828801613ec5565b92505060606145bc87828801613ec5565b91505092959194509250565b6145d181613e53565b82525050565b5f6020820190506145ea5f8301846145c8565b92915050565b5f6060820190506146035f830186613b1e565b6146106020830185614301565b61461d6040830184614301565b949350505050565b5f60e0820190506146385f83018a6137e0565b61464560208301896145c8565b6146526040830188613b1e565b61465f6060830187614301565b61466c6080830186614301565b61467960a08301856135a6565b61468660c08301846135a6565b98975050505050505050565b5f602082840312156146a7576146a661340f565b5b5f6146b484828501613ed9565b91505092915050565b7f666f72416e790000000000000000000000000000000000000000000000000000815250565b5f6020820190506146f55f83016146bd565b919050565b5f67ffffffffffffffff82111561471457614713613609565b5b602082029050919050565b5f80fd5b5f614735614730846146fa565b613667565b9050806020840283018581111561474f5761474e61471f565b5b835b8181101561477857806147648882613ec5565b845260208401935050602081019050614751565b5050509392505050565b5f82601f83011261479657614795613601565b5b6104b16147a4848285614723565b91505092915050565b5f61962082840312156147c3576147c261340f565b5b5f6147d084828501614782565b91505092915050565b5f6147e3826135ce565b91506147ee836135ce565b925082820390508181111561480657614805613d14565b5b92915050565b7f4e487b71000000000000000000000000000000000000000000000000000000005f52603260045260245ffd5b5f61484382613e53565b915061ffff820361485757614856613d14565b5b600182019050919050565b7f4e487b71000000000000000000000000000000000000000000000000000000005f52601260045260245ffd5b5f61489982613e53565b91506148a483613e53565b9250826148b4576148b3614862565b5b828204905092915050565b5f6148c982613e53565b91506148d483613e53565b92508282026148e281613e53565b91508082146148f4576148f3613d14565b5b509291505056fea2646970667358221220f61926d89bc29525ba58cabb1e2f7d22c1a408efece5653b96f178c25dff671864736f6c63430008140033",
			"opcodes": "PUSH2 0x180 PUSH1 0x40 MSTORE PUSH3 0x15180 PUSH1 0xC PUSH0 PUSH2 0x100 EXP DUP2 SLOAD DUP2 PUSH4 0xFFFFFFFF MUL NOT AND SWAP1 DUP4 PUSH4 0xFFFFFFFF AND MUL OR SWAP1 SSTORE POP PUSH3 0x15180 PUSH1 0xC PUSH1 0x4 PUSH2 0x100 EXP DUP2 SLOAD DUP2 PUSH4 0xFFFFFFFF MUL NOT AND SWAP1 DUP4 PUSH4 0xFFFFFFFF AND MUL OR SWAP1 SSTORE POP PUSH3 0x93A80 PUSH1 0xC PUSH1 0x8 PUSH2 0x100 EXP DUP2 SLOAD DUP2 PUSH4 0xFFFFFFFF MUL NOT AND SWAP1 DUP4 PUSH4 0xFFFFFFFF AND MUL OR SWAP1 SSTORE POP CALLVALUE DUP1 ISZERO PUSH3 0x7C JUMPI PUSH0 DUP1 REVERT JUMPDEST POP PUSH1 0x40 MLOAD PUSH3 0x549C CODESIZE SUB DUP1 PUSH3 0x549C DUP4 CODECOPY DUP2 DUP2 ADD PUSH1 0x40 MSTORE DUP2 ADD SWAP1 PUSH3 0xA2 SWAP2 SWAP1 PUSH3 0x512 JUMP JUMPDEST DUP1 PUSH3 0xB3 PUSH3 0x22C PUSH1 0x20 SHL PUSH1 0x20 SHR JUMP JUMPDEST PUSH3 0xC8 PUSH0 DUP4 PUSH3 0x269 PUSH1 0x20 SHL SWAP1 SWAP2 SWAP1 PUSH1 0x20 SHR JUMP JUMPDEST PUSH2 0x120 DUP2 DUP2 MSTORE POP POP PUSH3 0xE6 PUSH1 0x1 DUP3 PUSH3 0x269 PUSH1 0x20 SHL SWAP1 SWAP2 SWAP1 PUSH1 0x20 SHR JUMP JUMPDEST PUSH2 0x140 DUP2 DUP2 MSTORE POP POP DUP2 DUP1 MLOAD SWAP1 PUSH1 0x20 ADD KECCAK256 PUSH1 0xE0 DUP2 DUP2 MSTORE POP POP DUP1 DUP1 MLOAD SWAP1 PUSH1 0x20 ADD KECCAK256 PUSH2 0x100 DUP2 DUP2 MSTORE POP POP CHAINID PUSH1 0xA0 DUP2 DUP2 MSTORE POP POP PUSH3 0x125 PUSH3 0x2BE PUSH1 0x20 SHL PUSH1 0x20 SHR JUMP JUMPDEST PUSH1 0x80 DUP2 DUP2 MSTORE POP POP ADDRESS PUSH20 0xFFFFFFFFFFFFFFFFFFFFFFFFFFFFFFFFFFFFFFFF AND PUSH1 0xC0 DUP2 PUSH20 0xFFFFFFFFFFFFFFFFFFFFFFFFFFFFFFFFFFFFFFFF AND DUP2 MSTORE POP POP POP POP PUSH4 0x16A8C800 TIMESTAMP PUSH3 0x174 SWAP2 SWAP1 PUSH3 0x597 JUMP JUMPDEST PUSH6 0xFFFFFFFFFFFF AND PUSH2 0x160 DUP2 PUSH6 0xFFFFFFFFFFFF AND DUP2 MSTORE POP POP CALLER PUSH1 0x6 PUSH0 ADD PUSH0 PUSH2 0x100 EXP DUP2 SLOAD DUP2 PUSH20 0xFFFFFFFFFFFFFFFFFFFFFFFFFFFFFFFFFFFFFFFF MUL NOT AND SWAP1 DUP4 PUSH20 0xFFFFFFFFFFFFFFFFFFFFFFFFFFFFFFFFFFFFFFFF AND MUL OR SWAP1 SSTORE POP PUSH1 0x6 PUSH0 ADD PUSH1 0x15 DUP2 DUP2 SWAP1 SLOAD SWAP1 PUSH2 0x100 EXP SWAP1 DIV PUSH4 0xFFFFFFFF AND DUP1 SWAP3 SWAP2 SWAP1 PUSH3 0x1F4 SWAP1 PUSH3 0x5E0 JUMP JUMPDEST SWAP2 SWAP1 PUSH2 0x100 EXP DUP2 SLOAD DUP2 PUSH4 0xFFFFFFFF MUL NOT AND SWAP1 DUP4 PUSH4 0xFFFFFFFF AND MUL OR SWAP1 SSTORE POP POP DUP1 PUSH1 0xB SWAP1 DUP2 PUSH3 0x224 SWAP2 SWAP1 PUSH3 0x83E JUMP JUMPDEST POP POP PUSH3 0xAFB JUMP JUMPDEST PUSH1 0x60 PUSH1 0x40 MLOAD DUP1 PUSH1 0x40 ADD PUSH1 0x40 MSTORE DUP1 PUSH1 0x1 DUP2 MSTORE PUSH1 0x20 ADD PUSH32 0x3100000000000000000000000000000000000000000000000000000000000000 DUP2 MSTORE POP SWAP1 POP SWAP1 JUMP JUMPDEST PUSH0 PUSH1 0x20 DUP4 MLOAD LT ISZERO PUSH3 0x28E JUMPI PUSH3 0x286 DUP4 PUSH3 0x31A PUSH1 0x20 SHL PUSH1 0x20 SHR JUMP JUMPDEST SWAP1 POP PUSH3 0x2B8 JUMP JUMPDEST DUP3 PUSH3 0x2A0 DUP4 PUSH3 0x384 PUSH1 0x20 SHL PUSH1 0x20 SHR JUMP JUMPDEST PUSH0 ADD SWAP1 DUP2 PUSH3 0x2B0 SWAP2 SWAP1 PUSH3 0x83E JUMP JUMPDEST POP PUSH1 0xFF PUSH0 SHL SWAP1 POP JUMPDEST SWAP3 SWAP2 POP POP JUMP JUMPDEST PUSH0 PUSH32 0x8B73C3C69BB8FE3D512ECC4CF759CC79239F7B179B0FFACAA9A75D522B39400F PUSH1 0xE0 MLOAD PUSH2 0x100 MLOAD CHAINID ADDRESS PUSH1 0x40 MLOAD PUSH1 0x20 ADD PUSH3 0x2FF SWAP6 SWAP5 SWAP4 SWAP3 SWAP2 SWAP1 PUSH3 0x990 JUMP JUMPDEST PUSH1 0x40 MLOAD PUSH1 0x20 DUP2 DUP4 SUB SUB DUP2 MSTORE SWAP1 PUSH1 0x40 MSTORE DUP1 MLOAD SWAP1 PUSH1 0x20 ADD KECCAK256 SWAP1 POP SWAP1 JUMP JUMPDEST PUSH0 DUP1 DUP3 SWAP1 POP PUSH1 0x1F DUP2 MLOAD GT ISZERO PUSH3 0x369 JUMPI DUP3 PUSH1 0x40 MLOAD PUSH32 0x305A27A900000000000000000000000000000000000000000000000000000000 DUP2 MSTORE PUSH1 0x4 ADD PUSH3 0x360 SWAP2 SWAP1 PUSH3 0xA3B JUMP JUMPDEST PUSH1 0x40 MLOAD DUP1 SWAP2 SUB SWAP1 REVERT JUMPDEST DUP1 MLOAD DUP2 PUSH3 0x377 SWAP1 PUSH3 0xA8C JUMP JUMPDEST PUSH0 SHR OR PUSH0 SHL SWAP2 POP POP SWAP2 SWAP1 POP JUMP JUMPDEST PUSH0 DUP2 SWAP1 POP SWAP2 SWAP1 POP JUMP JUMPDEST PUSH0 PUSH1 0x40 MLOAD SWAP1 POP SWAP1 JUMP JUMPDEST PUSH0 DUP1 REVERT JUMPDEST PUSH0 DUP1 REVERT JUMPDEST PUSH0 DUP1 REVERT JUMPDEST PUSH0 DUP1 REVERT JUMPDEST PUSH0 PUSH1 0x1F NOT PUSH1 0x1F DUP4 ADD AND SWAP1 POP SWAP2 SWAP1 POP JUMP JUMPDEST PUSH32 0x4E487B7100000000000000000000000000000000000000000000000000000000 PUSH0 MSTORE PUSH1 0x41 PUSH1 0x4 MSTORE PUSH1 0x24 PUSH0 REVERT JUMPDEST PUSH3 0x3EE DUP3 PUSH3 0x3A6 JUMP JUMPDEST DUP2 ADD DUP2 DUP2 LT PUSH8 0xFFFFFFFFFFFFFFFF DUP3 GT OR ISZERO PUSH3 0x410 JUMPI PUSH3 0x40F PUSH3 0x3B6 JUMP JUMPDEST JUMPDEST DUP1 PUSH1 0x40 MSTORE POP POP POP JUMP JUMPDEST PUSH0 PUSH3 0x424 PUSH3 0x38D JUMP JUMPDEST SWAP1 POP PUSH3 0x432 DUP3 DUP3 PUSH3 0x3E3 JUMP JUMPDEST SWAP2 SWAP1 POP JUMP JUMPDEST PUSH0 PUSH8 0xFFFFFFFFFFFFFFFF DUP3 GT ISZERO PUSH3 0x454 JUMPI PUSH3 0x453 PUSH3 0x3B6 JUMP JUMPDEST JUMPDEST PUSH3 0x45F DUP3 PUSH3 0x3A6 JUMP JUMPDEST SWAP1 POP PUSH1 0x20 DUP2 ADD SWAP1 POP SWAP2 SWAP1 POP JUMP JUMPDEST PUSH0 JUMPDEST DUP4 DUP2 LT ISZERO PUSH3 0x48B JUMPI DUP1 DUP3 ADD MLOAD DUP2 DUP5 ADD MSTORE PUSH1 0x20 DUP2 ADD SWAP1 POP PUSH3 0x46E JUMP JUMPDEST PUSH0 DUP5 DUP5 ADD MSTORE POP POP POP POP JUMP JUMPDEST PUSH0 PUSH3 0x4AC PUSH3 0x4A6 DUP5 PUSH3 0x437 JUMP JUMPDEST PUSH3 0x419 JUMP JUMPDEST SWAP1 POP DUP3 DUP2 MSTORE PUSH1 0x20 DUP2 ADD DUP5 DUP5 DUP5 ADD GT ISZERO PUSH3 0x4CB JUMPI PUSH3 0x4CA PUSH3 0x3A2 JUMP JUMPDEST JUMPDEST PUSH3 0x4D8 DUP5 DUP3 DUP6 PUSH3 0x46C JUMP JUMPDEST POP SWAP4 SWAP3 POP POP POP JUMP JUMPDEST PUSH0 DUP3 PUSH1 0x1F DUP4 ADD SLT PUSH3 0x4F7 JUMPI PUSH3 0x4F6 PUSH3 0x39E JUMP JUMPDEST JUMPDEST DUP2 MLOAD PUSH3 0x509 DUP5 DUP3 PUSH1 0x20 DUP7 ADD PUSH3 0x496 JUMP JUMPDEST SWAP2 POP POP SWAP3 SWAP2 POP POP JUMP JUMPDEST PUSH0 PUSH1 0x20 DUP3 DUP5 SUB SLT ISZERO PUSH3 0x52A JUMPI PUSH3 0x529 PUSH3 0x396 JUMP JUMPDEST JUMPDEST PUSH0 DUP3 ADD MLOAD PUSH8 0xFFFFFFFFFFFFFFFF DUP2 GT ISZERO PUSH3 0x54A JUMPI PUSH3 0x549 PUSH3 0x39A JUMP JUMPDEST JUMPDEST PUSH3 0x558 DUP5 DUP3 DUP6 ADD PUSH3 0x4E0 JUMP JUMPDEST SWAP2 POP POP SWAP3 SWAP2 POP POP JUMP JUMPDEST PUSH0 DUP2 SWAP1 POP SWAP2 SWAP1 POP JUMP JUMPDEST PUSH32 0x4E487B7100000000000000000000000000000000000000000000000000000000 PUSH0 MSTORE PUSH1 0x11 PUSH1 0x4 MSTORE PUSH1 0x24 PUSH0 REVERT JUMPDEST PUSH0 PUSH3 0x5A3 DUP3 PUSH3 0x561 JUMP JUMPDEST SWAP2 POP PUSH3 0x5B0 DUP4 PUSH3 0x561 JUMP JUMPDEST SWAP3 POP DUP3 DUP3 ADD SWAP1 POP DUP1 DUP3 GT ISZERO PUSH3 0x5CB JUMPI PUSH3 0x5CA PUSH3 0x56A JUMP JUMPDEST JUMPDEST SWAP3 SWAP2 POP POP JUMP JUMPDEST PUSH0 PUSH4 0xFFFFFFFF DUP3 AND SWAP1 POP SWAP2 SWAP1 POP JUMP JUMPDEST PUSH0 PUSH3 0x5EC DUP3 PUSH3 0x5D1 JUMP JUMPDEST SWAP2 POP PUSH4 0xFFFFFFFF DUP3 SUB PUSH3 0x605 JUMPI PUSH3 0x604 PUSH3 0x56A JUMP JUMPDEST JUMPDEST PUSH1 0x1 DUP3 ADD SWAP1 POP SWAP2 SWAP1 POP JUMP JUMPDEST PUSH0 DUP2 MLOAD SWAP1 POP SWAP2 SWAP1 POP JUMP JUMPDEST PUSH32 0x4E487B7100000000000000000000000000000000000000000000000000000000 PUSH0 MSTORE PUSH1 0x22 PUSH1 0x4 MSTORE PUSH1 0x24 PUSH0 REVERT JUMPDEST PUSH0 PUSH1 0x2 DUP3 DIV SWAP1 POP PUSH1 0x1 DUP3 AND DUP1 PUSH3 0x65F JUMPI PUSH1 0x7F DUP3 AND SWAP2 POP JUMPDEST PUSH1 0x20 DUP3 LT DUP2 SUB PUSH3 0x675 JUMPI PUSH3 0x674 PUSH3 0x61A JUMP JUMPDEST JUMPDEST POP SWAP2 SWAP1 POP JUMP JUMPDEST PUSH0 DUP2 SWAP1 POP DUP2 PUSH0 MSTORE PUSH1 0x20 PUSH0 KECCAK256 SWAP1 POP SWAP2 SWAP1 POP JUMP JUMPDEST PUSH0 PUSH1 0x20 PUSH1 0x1F DUP4 ADD DIV SWAP1 POP SWAP2 SWAP1 POP JUMP JUMPDEST PUSH0 DUP3 DUP3 SHL SWAP1 POP SWAP3 SWAP2 POP POP JUMP JUMPDEST PUSH0 PUSH1 0x8 DUP4 MUL PUSH3 0x6D9 PUSH32 0xFFFFFFFFFFFFFFFFFFFFFFFFFFFFFFFFFFFFFFFFFFFFFFFFFFFFFFFFFFFFFFFF DUP3 PUSH3 0x69C JUMP JUMPDEST PUSH3 0x6E5 DUP7 DUP4 PUSH3 0x69C JUMP JUMPDEST SWAP6 POP DUP1 NOT DUP5 AND SWAP4 POP DUP1 DUP7 AND DUP5 OR SWAP3 POP POP POP SWAP4 SWAP3 POP POP POP JUMP JUMPDEST PUSH0 DUP2 SWAP1 POP SWAP2 SWAP1 POP JUMP JUMPDEST PUSH0 PUSH3 0x726 PUSH3 0x720 PUSH3 0x71A DUP5 PUSH3 0x561 JUMP JUMPDEST PUSH3 0x6FD JUMP JUMPDEST PUSH3 0x561 JUMP JUMPDEST SWAP1 POP SWAP2 SWAP1 POP JUMP JUMPDEST PUSH0 DUP2 SWAP1 POP SWAP2 SWAP1 POP JUMP JUMPDEST PUSH3 0x741 DUP4 PUSH3 0x706 JUMP JUMPDEST PUSH3 0x759 PUSH3 0x750 DUP3 PUSH3 0x72D JUMP JUMPDEST DUP5 DUP5 SLOAD PUSH3 0x6A8 JUMP JUMPDEST DUP3 SSTORE POP POP POP POP JUMP JUMPDEST PUSH0 SWAP1 JUMP JUMPDEST PUSH3 0x76F PUSH3 0x761 JUMP JUMPDEST PUSH3 0x77C DUP2 DUP5 DUP5 PUSH3 0x736 JUMP JUMPDEST POP POP POP JUMP JUMPDEST JUMPDEST DUP2 DUP2 LT ISZERO PUSH3 0x7A3 JUMPI PUSH3 0x797 PUSH0 DUP3 PUSH3 0x765 JUMP JUMPDEST PUSH1 0x1 DUP2 ADD SWAP1 POP PUSH3 0x782 JUMP JUMPDEST POP POP JUMP JUMPDEST PUSH1 0x1F DUP3 GT ISZERO PUSH3 0x7F2 JUMPI PUSH3 0x7BC DUP2 PUSH3 0x67B JUMP JUMPDEST PUSH3 0x7C7 DUP5 PUSH3 0x68D JUMP JUMPDEST DUP2 ADD PUSH1 0x20 DUP6 LT ISZERO PUSH3 0x7D7 JUMPI DUP2 SWAP1 POP JUMPDEST PUSH3 0x7EF PUSH3 0x7E6 DUP6 PUSH3 0x68D JUMP JUMPDEST DUP4 ADD DUP3 PUSH3 0x781 JUMP JUMPDEST POP POP JUMPDEST POP POP POP JUMP JUMPDEST PUSH0 DUP3 DUP3 SHR SWAP1 POP SWAP3 SWAP2 POP POP JUMP JUMPDEST PUSH0 PUSH3 0x814 PUSH0 NOT DUP5 PUSH1 0x8 MUL PUSH3 0x7F7 JUMP JUMPDEST NOT DUP1 DUP4 AND SWAP2 POP POP SWAP3 SWAP2 POP POP JUMP JUMPDEST PUSH0 PUSH3 0x82E DUP4 DUP4 PUSH3 0x803 JUMP JUMPDEST SWAP2 POP DUP3 PUSH1 0x2 MUL DUP3 OR SWAP1 POP SWAP3 SWAP2 POP POP JUMP JUMPDEST PUSH3 0x849 DUP3 PUSH3 0x610 JUMP JUMPDEST PUSH8 0xFFFFFFFFFFFFFFFF DUP2 GT ISZERO PUSH3 0x865 JUMPI PUSH3 0x864 PUSH3 0x3B6 JUMP JUMPDEST JUMPDEST PUSH3 0x871 DUP3 SLOAD PUSH3 0x647 JUMP JUMPDEST PUSH3 0x87E DUP3 DUP3 DUP6 PUSH3 0x7A7 JUMP JUMPDEST PUSH0 PUSH1 0x20 SWAP1 POP PUSH1 0x1F DUP4 GT PUSH1 0x1 DUP2 EQ PUSH3 0x8B4 JUMPI PUSH0 DUP5 ISZERO PUSH3 0x89F JUMPI DUP3 DUP8 ADD MLOAD SWAP1 POP JUMPDEST PUSH3 0x8AB DUP6 DUP3 PUSH3 0x821 JUMP JUMPDEST DUP7 SSTORE POP PUSH3 0x91A JUMP JUMPDEST PUSH1 0x1F NOT DUP5 AND PUSH3 0x8C4 DUP7 PUSH3 0x67B JUMP JUMPDEST PUSH0 JUMPDEST DUP3 DUP2 LT ISZERO PUSH3 0x8ED JUMPI DUP5 DUP10 ADD MLOAD DUP3 SSTORE PUSH1 0x1 DUP3 ADD SWAP2 POP PUSH1 0x20 DUP6 ADD SWAP5 POP PUSH1 0x20 DUP2 ADD SWAP1 POP PUSH3 0x8C6 JUMP JUMPDEST DUP7 DUP4 LT ISZERO PUSH3 0x90D JUMPI DUP5 DUP10 ADD MLOAD PUSH3 0x909 PUSH1 0x1F DUP10 AND DUP3 PUSH3 0x803 JUMP JUMPDEST DUP4 SSTORE POP JUMPDEST PUSH1 0x1 PUSH1 0x2 DUP9 MUL ADD DUP9 SSTORE POP POP POP JUMPDEST POP POP POP POP POP POP JUMP JUMPDEST PUSH0 DUP2 SWAP1 POP SWAP2 SWAP1 POP JUMP JUMPDEST PUSH3 0x936 DUP2 PUSH3 0x922 JUMP JUMPDEST DUP3 MSTORE POP POP JUMP JUMPDEST PUSH3 0x947 DUP2 PUSH3 0x561 JUMP JUMPDEST DUP3 MSTORE POP POP JUMP JUMPDEST PUSH0 PUSH20 0xFFFFFFFFFFFFFFFFFFFFFFFFFFFFFFFFFFFFFFFF DUP3 AND SWAP1 POP SWAP2 SWAP1 POP JUMP JUMPDEST PUSH0 PUSH3 0x978 DUP3 PUSH3 0x94D JUMP JUMPDEST SWAP1 POP SWAP2 SWAP1 POP JUMP JUMPDEST PUSH3 0x98A DUP2 PUSH3 0x96C JUMP JUMPDEST DUP3 MSTORE POP POP JUMP JUMPDEST PUSH0 PUSH1 0xA0 DUP3 ADD SWAP1 POP PUSH3 0x9A5 PUSH0 DUP4 ADD DUP9 PUSH3 0x92B JUMP JUMPDEST PUSH3 0x9B4 PUSH1 0x20 DUP4 ADD DUP8 PUSH3 0x92B JUMP JUMPDEST PUSH3 0x9C3 PUSH1 0x40 DUP4 ADD DUP7 PUSH3 0x92B JUMP JUMPDEST PUSH3 0x9D2 PUSH1 0x60 DUP4 ADD DUP6 PUSH3 0x93C JUMP JUMPDEST PUSH3 0x9E1 PUSH1 0x80 DUP4 ADD DUP5 PUSH3 0x97F JUMP JUMPDEST SWAP7 SWAP6 POP POP POP POP POP POP JUMP JUMPDEST PUSH0 DUP3 DUP3 MSTORE PUSH1 0x20 DUP3 ADD SWAP1 POP SWAP3 SWAP2 POP POP JUMP JUMPDEST PUSH0 PUSH3 0xA07 DUP3 PUSH3 0x610 JUMP JUMPDEST PUSH3 0xA13 DUP2 DUP6 PUSH3 0x9EB JUMP JUMPDEST SWAP4 POP PUSH3 0xA25 DUP2 DUP6 PUSH1 0x20 DUP7 ADD PUSH3 0x46C JUMP JUMPDEST PUSH3 0xA30 DUP2 PUSH3 0x3A6 JUMP JUMPDEST DUP5 ADD SWAP2 POP POP SWAP3 SWAP2 POP POP JUMP JUMPDEST PUSH0 PUSH1 0x20 DUP3 ADD SWAP1 POP DUP2 DUP2 SUB PUSH0 DUP4 ADD MSTORE PUSH3 0xA55 DUP2 DUP5 PUSH3 0x9FB JUMP JUMPDEST SWAP1 POP SWAP3 SWAP2 POP POP JUMP JUMPDEST PUSH0 DUP2 MLOAD SWAP1 POP SWAP2 SWAP1 POP JUMP JUMPDEST PUSH0 DUP2 SWAP1 POP PUSH1 0x20 DUP3 ADD SWAP1 POP SWAP2 SWAP1 POP JUMP JUMPDEST PUSH0 PUSH3 0xA83 DUP3 MLOAD PUSH3 0x922 JUMP JUMPDEST DUP1 SWAP2 POP POP SWAP2 SWAP1 POP JUMP JUMPDEST PUSH0 PUSH3 0xA98 DUP3 PUSH3 0xA5D JUMP JUMPDEST DUP3 PUSH3 0xAA4 DUP5 PUSH3 0xA67 JUMP JUMPDEST SWAP1 POP PUSH3 0xAB1 DUP2 PUSH3 0xA76 JUMP JUMPDEST SWAP3 POP PUSH1 0x20 DUP3 LT ISZERO PUSH3 0xAF4 JUMPI PUSH3 0xAEF PUSH32 0xFFFFFFFFFFFFFFFFFFFFFFFFFFFFFFFFFFFFFFFFFFFFFFFFFFFFFFFFFFFFFFFF DUP4 PUSH1 0x20 SUB PUSH1 0x8 MUL PUSH3 0x69C JUMP JUMPDEST DUP4 AND SWAP3 POP JUMPDEST POP POP SWAP2 SWAP1 POP JUMP JUMPDEST PUSH1 0x80 MLOAD PUSH1 0xA0 MLOAD PUSH1 0xC0 MLOAD PUSH1 0xE0 MLOAD PUSH2 0x100 MLOAD PUSH2 0x120 MLOAD PUSH2 0x140 MLOAD PUSH2 0x160 MLOAD PUSH2 0x4931 PUSH3 0xB6B PUSH0 CODECOPY PUSH0 DUP2 DUP2 PUSH2 0x5FC ADD MSTORE DUP2 DUP2 PUSH2 0xC81 ADD MSTORE DUP2 DUP2 PUSH2 0x1324 ADD MSTORE DUP2 DUP2 PUSH2 0x1E7F ADD MSTORE DUP2 DUP2 PUSH2 0x219A ADD MSTORE PUSH2 0x29C9 ADD MSTORE PUSH0 PUSH2 0x3075 ADD MSTORE PUSH0 PUSH2 0x303A ADD MSTORE PUSH0 POP POP PUSH0 POP POP PUSH0 POP POP PUSH0 POP POP PUSH0 POP POP PUSH2 0x4931 PUSH0 RETURN INVALID PUSH1 0x80 PUSH1 0x40 MSTORE CALLVALUE DUP1 ISZERO PUSH2 0xF JUMPI PUSH0 DUP1 REVERT JUMPDEST POP PUSH1 0x4 CALLDATASIZE LT PUSH2 0x1F9 JUMPI PUSH0 CALLDATALOAD PUSH1 0xE0 SHR DUP1 PUSH4 0x66410997 GT PUSH2 0x118 JUMPI DUP1 PUSH4 0xB5C09C68 GT PUSH2 0xAB JUMPI DUP1 PUSH4 0xCA4CCE68 GT PUSH2 0x7A JUMPI DUP1 PUSH4 0xCA4CCE68 EQ PUSH2 0x555 JUMPI DUP1 PUSH4 0xE35B31B7 EQ PUSH2 0x571 JUMPI DUP1 PUSH4 0xE47A9D46 EQ PUSH2 0x5A1 JUMPI DUP1 PUSH4 0xE4F3E947 EQ PUSH2 0x5BF JUMPI DUP1 PUSH4 0xEE7126C3 EQ PUSH2 0x5DD JUMPI PUSH2 0x1F9 JUMP JUMPDEST DUP1 PUSH4 0xB5C09C68 EQ PUSH2 0x4CD JUMPI DUP1 PUSH4 0xC387B49C EQ PUSH2 0x4E9 JUMPI DUP1 PUSH4 0xC5A1C5C1 EQ PUSH2 0x507 JUMPI DUP1 PUSH4 0xC8021C2E EQ PUSH2 0x525 JUMPI PUSH2 0x1F9 JUMP JUMPDEST DUP1 PUSH4 0x85488408 GT PUSH2 0xE7 JUMPI DUP1 PUSH4 0x85488408 EQ PUSH2 0x45B JUMPI DUP1 PUSH4 0x88AA4C12 EQ PUSH2 0x477 JUMPI DUP1 PUSH4 0x9C20FE71 EQ PUSH2 0x493 JUMPI DUP1 PUSH4 0xA53DA00B EQ PUSH2 0x4AF JUMPI PUSH2 0x1F9 JUMP JUMPDEST DUP1 PUSH4 0x66410997 EQ PUSH2 0x3DF JUMPI DUP1 PUSH4 0x667D639B EQ PUSH2 0x3FD JUMPI DUP1 PUSH4 0x6CF106D7 EQ PUSH2 0x419 JUMPI DUP1 PUSH4 0x84B0196E EQ PUSH2 0x437 JUMPI PUSH2 0x1F9 JUMP JUMPDEST DUP1 PUSH4 0x3610FEB3 GT PUSH2 0x190 JUMPI DUP1 PUSH4 0x52E305DE GT PUSH2 0x15F JUMPI DUP1 PUSH4 0x52E305DE EQ PUSH2 0x36B JUMPI DUP1 PUSH4 0x544FA93E EQ PUSH2 0x387 JUMPI DUP1 PUSH4 0x54FD4D50 EQ PUSH2 0x3A3 JUMPI DUP1 PUSH4 0x5DAD85C2 EQ PUSH2 0x3C1 JUMPI PUSH2 0x1F9 JUMP JUMPDEST DUP1 PUSH4 0x3610FEB3 EQ PUSH2 0x2D1 JUMPI DUP1 PUSH4 0x3A8512B4 EQ PUSH2 0x301 JUMPI DUP1 PUSH4 0x3E4F49E6 EQ PUSH2 0x31D JUMPI DUP1 PUSH4 0x4BF5D7E9 EQ PUSH2 0x34D JUMPI PUSH2 0x1F9 JUMP JUMPDEST DUP1 PUSH4 0x18074EEE GT PUSH2 0x1CC JUMPI DUP1 PUSH4 0x18074EEE EQ PUSH2 0x25D JUMPI DUP1 PUSH4 0x1F72783A EQ PUSH2 0x267 JUMPI DUP1 PUSH4 0x289B3C0D EQ PUSH2 0x283 JUMPI DUP1 PUSH4 0x31D133C2 EQ PUSH2 0x2A1 JUMPI PUSH2 0x1F9 JUMP JUMPDEST DUP1 PUSH4 0x54203BD EQ PUSH2 0x1FD JUMPI DUP1 PUSH4 0x6E99D93 EQ PUSH2 0x219 JUMPI DUP1 PUSH4 0x6FDDE03 EQ PUSH2 0x235 JUMPI DUP1 PUSH4 0xDF4C390 EQ PUSH2 0x253 JUMPI JUMPDEST PUSH0 DUP1 REVERT JUMPDEST PUSH2 0x217 PUSH1 0x4 DUP1 CALLDATASIZE SUB DUP2 ADD SWAP1 PUSH2 0x212 SWAP2 SWAP1 PUSH2 0x3471 JUMP JUMPDEST PUSH2 0x5F9 JUMP JUMPDEST STOP JUMPDEST PUSH2 0x233 PUSH1 0x4 DUP1 CALLDATASIZE SUB DUP2 ADD SWAP1 PUSH2 0x22E SWAP2 SWAP1 PUSH2 0x34D1 JUMP JUMPDEST PUSH2 0x7C4 JUMP JUMPDEST STOP JUMPDEST PUSH2 0x23D PUSH2 0x856 JUMP JUMPDEST PUSH1 0x40 MLOAD PUSH2 0x24A SWAP2 SWAP1 PUSH2 0x3586 JUMP JUMPDEST PUSH1 0x40 MLOAD DUP1 SWAP2 SUB SWAP1 RETURN JUMPDEST PUSH2 0x25B PUSH2 0x8E6 JUMP JUMPDEST STOP JUMPDEST PUSH2 0x265 PUSH2 0xAA6 JUMP JUMPDEST STOP JUMPDEST PUSH2 0x281 PUSH1 0x4 DUP1 CALLDATASIZE SUB DUP2 ADD SWAP1 PUSH2 0x27C SWAP2 SWAP1 PUSH2 0x3471 JUMP JUMPDEST PUSH2 0xC7E JUMP JUMPDEST STOP JUMPDEST PUSH2 0x28B PUSH2 0xF2E JUMP JUMPDEST PUSH1 0x40 MLOAD PUSH2 0x298 SWAP2 SWAP1 PUSH2 0x35B5 JUMP JUMPDEST PUSH1 0x40 MLOAD DUP1 SWAP2 SUB SWAP1 RETURN JUMPDEST PUSH2 0x2BB PUSH1 0x4 DUP1 CALLDATASIZE SUB DUP2 ADD SWAP1 PUSH2 0x2B6 SWAP2 SWAP1 PUSH2 0x3760 JUMP JUMPDEST PUSH2 0xF58 JUMP JUMPDEST PUSH1 0x40 MLOAD PUSH2 0x2C8 SWAP2 SWAP1 PUSH2 0x37EF JUMP JUMPDEST PUSH1 0x40 MLOAD DUP1 SWAP2 SUB SWAP1 RETURN JUMPDEST PUSH2 0x2EB PUSH1 0x4 DUP1 CALLDATASIZE SUB DUP2 ADD SWAP1 PUSH2 0x2E6 SWAP2 SWAP1 PUSH2 0x3471 JUMP JUMPDEST PUSH2 0xF92 JUMP JUMPDEST PUSH1 0x40 MLOAD PUSH2 0x2F8 SWAP2 SWAP1 PUSH2 0x3817 JUMP JUMPDEST PUSH1 0x40 MLOAD DUP1 SWAP2 SUB SWAP1 RETURN JUMPDEST PUSH2 0x31B PUSH1 0x4 DUP1 CALLDATASIZE SUB DUP2 ADD SWAP1 PUSH2 0x316 SWAP2 SWAP1 PUSH2 0x3830 JUMP JUMPDEST PUSH2 0xF98 JUMP JUMPDEST STOP JUMPDEST PUSH2 0x337 PUSH1 0x4 DUP1 CALLDATASIZE SUB DUP2 ADD SWAP1 PUSH2 0x332 SWAP2 SWAP1 PUSH2 0x386E JUMP JUMPDEST PUSH2 0x1017 JUMP JUMPDEST PUSH1 0x40 MLOAD PUSH2 0x344 SWAP2 SWAP1 PUSH2 0x390C JUMP JUMPDEST PUSH1 0x40 MLOAD DUP1 SWAP2 SUB SWAP1 RETURN JUMPDEST PUSH2 0x355 PUSH2 0x12E4 JUMP JUMPDEST PUSH1 0x40 MLOAD PUSH2 0x362 SWAP2 SWAP1 PUSH2 0x3586 JUMP JUMPDEST PUSH1 0x40 MLOAD DUP1 SWAP2 SUB SWAP1 RETURN JUMPDEST PUSH2 0x385 PUSH1 0x4 DUP1 CALLDATASIZE SUB DUP2 ADD SWAP1 PUSH2 0x380 SWAP2 SWAP1 PUSH2 0x3471 JUMP JUMPDEST PUSH2 0x1321 JUMP JUMPDEST STOP JUMPDEST PUSH2 0x3A1 PUSH1 0x4 DUP1 CALLDATASIZE SUB DUP2 ADD SWAP1 PUSH2 0x39C SWAP2 SWAP1 PUSH2 0x3471 JUMP JUMPDEST PUSH2 0x1569 JUMP JUMPDEST STOP JUMPDEST PUSH2 0x3AB PUSH2 0x1675 JUMP JUMPDEST PUSH1 0x40 MLOAD PUSH2 0x3B8 SWAP2 SWAP1 PUSH2 0x3586 JUMP JUMPDEST PUSH1 0x40 MLOAD DUP1 SWAP2 SUB SWAP1 RETURN JUMPDEST PUSH2 0x3C9 PUSH2 0x16B2 JUMP JUMPDEST PUSH1 0x40 MLOAD PUSH2 0x3D6 SWAP2 SWAP1 PUSH2 0x37EF JUMP JUMPDEST PUSH1 0x40 MLOAD DUP1 SWAP2 SUB SWAP1 RETURN JUMPDEST PUSH2 0x3E7 PUSH2 0x16B9 JUMP JUMPDEST PUSH1 0x40 MLOAD PUSH2 0x3F4 SWAP2 SWAP1 PUSH2 0x35B5 JUMP JUMPDEST PUSH1 0x40 MLOAD DUP1 SWAP2 SUB SWAP1 RETURN JUMPDEST PUSH2 0x417 PUSH1 0x4 DUP1 CALLDATASIZE SUB DUP2 ADD SWAP1 PUSH2 0x412 SWAP2 SWAP1 PUSH2 0x395E JUMP JUMPDEST PUSH2 0x16E3 JUMP JUMPDEST STOP JUMPDEST PUSH2 0x421 PUSH2 0x18A0 JUMP JUMPDEST PUSH1 0x40 MLOAD PUSH2 0x42E SWAP2 SWAP1 PUSH2 0x3817 JUMP JUMPDEST PUSH1 0x40 MLOAD DUP1 SWAP2 SUB SWAP1 RETURN JUMPDEST PUSH2 0x43F PUSH2 0x18B8 JUMP JUMPDEST PUSH1 0x40 MLOAD PUSH2 0x452 SWAP8 SWAP7 SWAP6 SWAP5 SWAP4 SWAP3 SWAP2 SWAP1 PUSH2 0x3A9C JUMP JUMPDEST PUSH1 0x40 MLOAD DUP1 SWAP2 SUB SWAP1 RETURN JUMPDEST PUSH2 0x475 PUSH1 0x4 DUP1 CALLDATASIZE SUB DUP2 ADD SWAP1 PUSH2 0x470 SWAP2 SWAP1 PUSH2 0x3760 JUMP JUMPDEST PUSH2 0x195D JUMP JUMPDEST STOP JUMPDEST PUSH2 0x491 PUSH1 0x4 DUP1 CALLDATASIZE SUB DUP2 ADD SWAP1 PUSH2 0x48C SWAP2 SWAP1 PUSH2 0x3760 JUMP JUMPDEST PUSH2 0x1BAE JUMP JUMPDEST STOP JUMPDEST PUSH2 0x4AD PUSH1 0x4 DUP1 CALLDATASIZE SUB DUP2 ADD SWAP1 PUSH2 0x4A8 SWAP2 SWAP1 PUSH2 0x3471 JUMP JUMPDEST PUSH2 0x1E7C JUMP JUMPDEST STOP JUMPDEST PUSH2 0x4B7 PUSH2 0x216D JUMP JUMPDEST PUSH1 0x40 MLOAD PUSH2 0x4C4 SWAP2 SWAP1 PUSH2 0x35B5 JUMP JUMPDEST PUSH1 0x40 MLOAD DUP1 SWAP2 SUB SWAP1 RETURN JUMPDEST PUSH2 0x4E7 PUSH1 0x4 DUP1 CALLDATASIZE SUB DUP2 ADD SWAP1 PUSH2 0x4E2 SWAP2 SWAP1 PUSH2 0x34D1 JUMP JUMPDEST PUSH2 0x2197 JUMP JUMPDEST STOP JUMPDEST PUSH2 0x4F1 PUSH2 0x22DD JUMP JUMPDEST PUSH1 0x40 MLOAD PUSH2 0x4FE SWAP2 SWAP1 PUSH2 0x3B2D JUMP JUMPDEST PUSH1 0x40 MLOAD DUP1 SWAP2 SUB SWAP1 RETURN JUMPDEST PUSH2 0x50F PUSH2 0x22F8 JUMP JUMPDEST PUSH1 0x40 MLOAD PUSH2 0x51C SWAP2 SWAP1 PUSH2 0x35B5 JUMP JUMPDEST PUSH1 0x40 MLOAD DUP1 SWAP2 SUB SWAP1 RETURN JUMPDEST PUSH2 0x53F PUSH1 0x4 DUP1 CALLDATASIZE SUB DUP2 ADD SWAP1 PUSH2 0x53A SWAP2 SWAP1 PUSH2 0x3B46 JUMP JUMPDEST PUSH2 0x2322 JUMP JUMPDEST PUSH1 0x40 MLOAD PUSH2 0x54C SWAP2 SWAP1 PUSH2 0x37EF JUMP JUMPDEST PUSH1 0x40 MLOAD DUP1 SWAP2 SUB SWAP1 RETURN JUMPDEST PUSH2 0x56F PUSH1 0x4 DUP1 CALLDATASIZE SUB DUP2 ADD SWAP1 PUSH2 0x56A SWAP2 SWAP1 PUSH2 0x3471 JUMP JUMPDEST PUSH2 0x29C6 JUMP JUMPDEST STOP JUMPDEST PUSH2 0x58B PUSH1 0x4 DUP1 CALLDATASIZE SUB DUP2 ADD SWAP1 PUSH2 0x586 SWAP2 SWAP1 PUSH2 0x3BFF JUMP JUMPDEST PUSH2 0x2BDE JUMP JUMPDEST PUSH1 0x40 MLOAD PUSH2 0x598 SWAP2 SWAP1 PUSH2 0x3817 JUMP JUMPDEST PUSH1 0x40 MLOAD DUP1 SWAP2 SUB SWAP1 RETURN JUMPDEST PUSH2 0x5A9 PUSH2 0x2BE6 JUMP JUMPDEST PUSH1 0x40 MLOAD PUSH2 0x5B6 SWAP2 SWAP1 PUSH2 0x35B5 JUMP JUMPDEST PUSH1 0x40 MLOAD DUP1 SWAP2 SUB SWAP1 RETURN JUMPDEST PUSH2 0x5C7 PUSH2 0x2BED JUMP JUMPDEST PUSH1 0x40 MLOAD PUSH2 0x5D4 SWAP2 SWAP1 PUSH2 0x3817 JUMP JUMPDEST PUSH1 0x40 MLOAD DUP1 SWAP2 SUB SWAP1 RETURN JUMPDEST PUSH2 0x5F7 PUSH1 0x4 DUP1 CALLDATASIZE SUB DUP2 ADD SWAP1 PUSH2 0x5F2 SWAP2 SWAP1 PUSH2 0x3471 JUMP JUMPDEST PUSH2 0x2C05 JUMP JUMPDEST STOP JUMPDEST TIMESTAMP PUSH32 0x0 PUSH6 0xFFFFFFFFFFFF AND LT ISZERO PUSH2 0x6A3 JUMPI PUSH2 0x631 PUSH2 0x22F8 JUMP JUMPDEST PUSH20 0xFFFFFFFFFFFFFFFFFFFFFFFFFFFFFFFFFFFFFFFF AND CALLER PUSH20 0xFFFFFFFFFFFFFFFFFFFFFFFFFFFFFFFFFFFFFFFF AND EQ PUSH2 0x69E JUMPI PUSH1 0x40 MLOAD PUSH32 0x8C379A000000000000000000000000000000000000000000000000000000000 DUP2 MSTORE PUSH1 0x4 ADD PUSH2 0x695 SWAP1 PUSH2 0x3C99 JUMP JUMPDEST PUSH1 0x40 MLOAD DUP1 SWAP2 SUB SWAP1 REVERT JUMPDEST PUSH2 0x72A JUMP JUMPDEST PUSH2 0x6AB PUSH2 0x16B9 JUMP JUMPDEST PUSH20 0xFFFFFFFFFFFFFFFFFFFFFFFFFFFFFFFFFFFFFFFF AND CALLER PUSH20 0xFFFFFFFFFFFFFFFFFFFFFFFFFFFFFFFFFFFFFFFF AND EQ DUP1 ISZERO PUSH2 0x6EA JUMPI POP PUSH2 0x6E8 PUSH2 0x18A0 JUMP JUMPDEST ISZERO JUMPDEST PUSH2 0x729 JUMPI PUSH1 0x40 MLOAD PUSH32 0x8C379A000000000000000000000000000000000000000000000000000000000 DUP2 MSTORE PUSH1 0x4 ADD PUSH2 0x720 SWAP1 PUSH2 0x3C99 JUMP JUMPDEST PUSH1 0x40 MLOAD DUP1 SWAP2 SUB SWAP1 REVERT JUMPDEST JUMPDEST DUP1 PUSH1 0x4 PUSH0 PUSH2 0x100 EXP DUP2 SLOAD DUP2 PUSH20 0xFFFFFFFFFFFFFFFFFFFFFFFFFFFFFFFFFFFFFFFF MUL NOT AND SWAP1 DUP4 PUSH20 0xFFFFFFFFFFFFFFFFFFFFFFFFFFFFFFFFFFFFFFFF AND MUL OR SWAP1 SSTORE POP PUSH2 0x774 PUSH1 0x1 PUSH2 0x2E4E JUMP JUMPDEST PUSH2 0x77E PUSH1 0x1 PUSH2 0x2E6D JUMP JUMPDEST DUP1 PUSH20 0xFFFFFFFFFFFFFFFFFFFFFFFFFFFFFFFFFFFFFFFF AND PUSH32 0x3553F1F7EF0242113266A8D183B621BB87468C99237F36B1150B6AB3D688B686 PUSH1 0x40 MLOAD PUSH1 0x40 MLOAD DUP1 SWAP2 SUB SWAP1 LOG2 POP JUMP JUMPDEST PUSH2 0x7CC PUSH2 0x16B9 JUMP JUMPDEST PUSH20 0xFFFFFFFFFFFFFFFFFFFFFFFFFFFFFFFFFFFFFFFF AND CALLER PUSH20 0xFFFFFFFFFFFFFFFFFFFFFFFFFFFFFFFFFFFFFFFF AND EQ DUP1 ISZERO PUSH2 0x80B JUMPI POP PUSH2 0x809 PUSH2 0x18A0 JUMP JUMPDEST ISZERO JUMPDEST PUSH2 0x84A JUMPI PUSH1 0x40 MLOAD PUSH32 0x8C379A000000000000000000000000000000000000000000000000000000000 DUP2 MSTORE PUSH1 0x4 ADD PUSH2 0x841 SWAP1 PUSH2 0x3C99 JUMP JUMPDEST PUSH1 0x40 MLOAD DUP1 SWAP2 SUB SWAP1 REVERT JUMPDEST PUSH2 0x853 DUP2 PUSH2 0x2E6D JUMP JUMPDEST POP JUMP JUMPDEST PUSH1 0x60 PUSH1 0xB DUP1 SLOAD PUSH2 0x865 SWAP1 PUSH2 0x3CE4 JUMP JUMPDEST DUP1 PUSH1 0x1F ADD PUSH1 0x20 DUP1 SWAP2 DIV MUL PUSH1 0x20 ADD PUSH1 0x40 MLOAD SWAP1 DUP2 ADD PUSH1 0x40 MSTORE DUP1 SWAP3 SWAP2 SWAP1 DUP2 DUP2 MSTORE PUSH1 0x20 ADD DUP3 DUP1 SLOAD PUSH2 0x891 SWAP1 PUSH2 0x3CE4 JUMP JUMPDEST DUP1 ISZERO PUSH2 0x8DC JUMPI DUP1 PUSH1 0x1F LT PUSH2 0x8B3 JUMPI PUSH2 0x100 DUP1 DUP4 SLOAD DIV MUL DUP4 MSTORE SWAP2 PUSH1 0x20 ADD SWAP2 PUSH2 0x8DC JUMP JUMPDEST DUP3 ADD SWAP2 SWAP1 PUSH0 MSTORE PUSH1 0x20 PUSH0 KECCAK256 SWAP1 JUMPDEST DUP2 SLOAD DUP2 MSTORE SWAP1 PUSH1 0x1 ADD SWAP1 PUSH1 0x20 ADD DUP1 DUP4 GT PUSH2 0x8BF JUMPI DUP3 SWAP1 SUB PUSH1 0x1F AND DUP3 ADD SWAP2 JUMPDEST POP POP POP POP POP SWAP1 POP SWAP1 JUMP JUMPDEST CALLER PUSH20 0xFFFFFFFFFFFFFFFFFFFFFFFFFFFFFFFFFFFFFFFF AND PUSH1 0x4 PUSH0 SWAP1 SLOAD SWAP1 PUSH2 0x100 EXP SWAP1 DIV PUSH20 0xFFFFFFFFFFFFFFFFFFFFFFFFFFFFFFFFFFFFFFFF AND PUSH20 0xFFFFFFFFFFFFFFFFFFFFFFFFFFFFFFFFFFFFFFFF AND SUB PUSH2 0xA72 JUMPI PUSH1 0x4 PUSH0 PUSH2 0x100 EXP DUP2 SLOAD SWAP1 PUSH20 0xFFFFFFFFFFFFFFFFFFFFFFFFFFFFFFFFFFFFFFFF MUL NOT AND SWAP1 SSTORE CALLER PUSH1 0x6 PUSH0 ADD PUSH0 PUSH2 0x100 EXP DUP2 SLOAD DUP2 PUSH20 0xFFFFFFFFFFFFFFFFFFFFFFFFFFFFFFFFFFFFFFFF MUL NOT AND SWAP1 DUP4 PUSH20 0xFFFFFFFFFFFFFFFFFFFFFFFFFFFFFFFFFFFFFFFF AND MUL OR SWAP1 SSTORE POP PUSH1 0x6 PUSH0 ADD PUSH1 0x15 DUP2 DUP2 SWAP1 SLOAD SWAP1 PUSH2 0x100 EXP SWAP1 DIV PUSH4 0xFFFFFFFF AND DUP1 SWAP3 SWAP2 SWAP1 PUSH2 0x9C4 SWAP1 PUSH2 0x3D41 JUMP JUMPDEST SWAP2 SWAP1 PUSH2 0x100 EXP DUP2 SLOAD DUP2 PUSH4 0xFFFFFFFF MUL NOT AND SWAP1 DUP4 PUSH4 0xFFFFFFFF AND MUL OR SWAP1 SSTORE POP POP PUSH2 0x9EC PUSH0 PUSH2 0x2E4E JUMP JUMPDEST PUSH1 0x6 PUSH0 ADD PUSH1 0x15 SWAP1 SLOAD SWAP1 PUSH2 0x100 EXP SWAP1 DIV PUSH4 0xFFFFFFFF AND PUSH4 0xFFFFFFFF AND PUSH1 0x6 PUSH0 ADD PUSH0 SWAP1 SLOAD SWAP1 PUSH2 0x100 EXP SWAP1 DIV PUSH20 0xFFFFFFFFFFFFFFFFFFFFFFFFFFFFFFFFFFFFFFFF AND PUSH20 0xFFFFFFFFFFFFFFFFFFFFFFFFFFFFFFFFFFFFFFFF AND PUSH32 0x5AD9B3688012CD825C1BFB941E4F5AFB2558AF6AF3DEADDF01DBB5E85ABDAF9 PUSH1 0x40 MLOAD PUSH1 0x40 MLOAD DUP1 SWAP2 SUB SWAP1 LOG3 PUSH2 0xAA4 JUMP JUMPDEST PUSH1 0x40 MLOAD PUSH32 0x6C4360F000000000000000000000000000000000000000000000000000000000 DUP2 MSTORE PUSH1 0x4 ADD PUSH1 0x40 MLOAD DUP1 SWAP2 SUB SWAP1 REVERT JUMPDEST JUMP JUMPDEST CALLER PUSH20 0xFFFFFFFFFFFFFFFFFFFFFFFFFFFFFFFFFFFFFFFF AND PUSH1 0x5 PUSH0 SWAP1 SLOAD SWAP1 PUSH2 0x100 EXP SWAP1 DIV PUSH20 0xFFFFFFFFFFFFFFFFFFFFFFFFFFFFFFFFFFFFFFFF AND PUSH20 0xFFFFFFFFFFFFFFFFFFFFFFFFFFFFFFFFFFFFFFFF AND SUB PUSH2 0xC4A JUMPI PUSH1 0x5 PUSH0 PUSH2 0x100 EXP DUP2 SLOAD SWAP1 PUSH20 0xFFFFFFFFFFFFFFFFFFFFFFFFFFFFFFFFFFFFFFFF MUL NOT AND SWAP1 SSTORE CALLER PUSH1 0x7 PUSH0 ADD PUSH0 PUSH2 0x100 EXP DUP2 SLOAD DUP2 PUSH20 0xFFFFFFFFFFFFFFFFFFFFFFFFFFFFFFFFFFFFFFFF MUL NOT AND SWAP1 DUP4 PUSH20 0xFFFFFFFFFFFFFFFFFFFFFFFFFFFFFFFFFFFFFFFF AND MUL OR SWAP1 SSTORE POP PUSH1 0x7 PUSH0 ADD PUSH1 0x15 DUP2 DUP2 SWAP1 SLOAD SWAP1 PUSH2 0x100 EXP SWAP1 DIV PUSH4 0xFFFFFFFF AND DUP1 SWAP3 SWAP2 SWAP1 PUSH2 0xB84 SWAP1 PUSH2 0x3D41 JUMP JUMPDEST SWAP2 SWAP1 PUSH2 0x100 EXP DUP2 SLOAD DUP2 PUSH4 0xFFFFFFFF MUL NOT AND SWAP1 DUP4 PUSH4 0xFFFFFFFF AND MUL OR SWAP1 SSTORE POP POP PUSH1 0x7 PUSH0 ADD PUSH1 0x14 SWAP1 SLOAD SWAP1 PUSH2 0x100 EXP SWAP1 DIV PUSH1 0xFF AND ISZERO PUSH2 0xBC4 JUMPI PUSH2 0xBC3 PUSH0 PUSH2 0x2E6D JUMP JUMPDEST JUMPDEST PUSH1 0x7 PUSH0 ADD PUSH1 0x15 SWAP1 SLOAD SWAP1 PUSH2 0x100 EXP SWAP1 DIV PUSH4 0xFFFFFFFF AND PUSH4 0xFFFFFFFF AND PUSH1 0x7 PUSH0 ADD PUSH0 SWAP1 SLOAD SWAP1 PUSH2 0x100 EXP SWAP1 DIV PUSH20 0xFFFFFFFFFFFFFFFFFFFFFFFFFFFFFFFFFFFFFFFF AND PUSH20 0xFFFFFFFFFFFFFFFFFFFFFFFFFFFFFFFFFFFFFFFF AND PUSH32 0x11E1B985C07E1BF3FEC9BFD0BDB8C4A8E870BA2B26AA89FE50A6A19132CA10FD PUSH1 0x40 MLOAD PUSH1 0x40 MLOAD DUP1 SWAP2 SUB SWAP1 LOG3 PUSH2 0xC7C JUMP JUMPDEST PUSH1 0x40 MLOAD PUSH32 0x6C4360F000000000000000000000000000000000000000000000000000000000 DUP2 MSTORE PUSH1 0x4 ADD PUSH1 0x40 MLOAD DUP1 SWAP2 SUB SWAP1 REVERT JUMPDEST JUMP JUMPDEST TIMESTAMP PUSH32 0x0 PUSH6 0xFFFFFFFFFFFF AND LT ISZERO PUSH2 0xD28 JUMPI PUSH2 0xCB6 PUSH2 0x22F8 JUMP JUMPDEST PUSH20 0xFFFFFFFFFFFFFFFFFFFFFFFFFFFFFFFFFFFFFFFF AND CALLER PUSH20 0xFFFFFFFFFFFFFFFFFFFFFFFFFFFFFFFFFFFFFFFF AND EQ PUSH2 0xD23 JUMPI PUSH1 0x40 MLOAD PUSH32 0x8C379A000000000000000000000000000000000000000000000000000000000 DUP2 MSTORE PUSH1 0x4 ADD PUSH2 0xD1A SWAP1 PUSH2 0x3C99 JUMP JUMPDEST PUSH1 0x40 MLOAD DUP1 SWAP2 SUB SWAP1 REVERT JUMPDEST PUSH2 0xDAF JUMP JUMPDEST PUSH2 0xD30 PUSH2 0x16B9 JUMP JUMPDEST PUSH20 0xFFFFFFFFFFFFFFFFFFFFFFFFFFFFFFFFFFFFFFFF AND CALLER PUSH20 0xFFFFFFFFFFFFFFFFFFFFFFFFFFFFFFFFFFFFFFFF AND EQ DUP1 ISZERO PUSH2 0xD6F JUMPI POP PUSH2 0xD6D PUSH2 0x18A0 JUMP JUMPDEST ISZERO JUMPDEST PUSH2 0xDAE JUMPI PUSH1 0x40 MLOAD PUSH32 0x8C379A000000000000000000000000000000000000000000000000000000000 DUP2 MSTORE PUSH1 0x4 ADD PUSH2 0xDA5 SWAP1 PUSH2 0x3C99 JUMP JUMPDEST PUSH1 0x40 MLOAD DUP1 SWAP2 SUB SWAP1 REVERT JUMPDEST JUMPDEST PUSH0 DUP2 PUSH20 0xFFFFFFFFFFFFFFFFFFFFFFFFFFFFFFFFFFFFFFFF AND EXTCODESIZE GT ISZERO PUSH2 0xEEE JUMPI CALLER PUSH20 0xFFFFFFFFFFFFFFFFFFFFFFFFFFFFFFFFFFFFFFFF AND PUSH1 0x6 PUSH0 ADD PUSH0 SWAP1 SLOAD SWAP1 PUSH2 0x100 EXP SWAP1 DIV PUSH20 0xFFFFFFFFFFFFFFFFFFFFFFFFFFFFFFFFFFFFFFFF AND PUSH20 0xFFFFFFFFFFFFFFFFFFFFFFFFFFFFFFFFFFFFFFFF AND SUB PUSH2 0xE32 JUMPI PUSH2 0xE2D DUP2 PUSH2 0x2E8C JUMP JUMPDEST PUSH2 0xEE9 JUMP JUMPDEST PUSH3 0x13C680 TIMESTAMP PUSH2 0xE41 SWAP2 SWAP1 PUSH2 0x3D6C JUMP JUMPDEST PUSH1 0x5 PUSH1 0x14 PUSH2 0x100 EXP DUP2 SLOAD DUP2 PUSH6 0xFFFFFFFFFFFF MUL NOT AND SWAP1 DUP4 PUSH6 0xFFFFFFFFFFFF AND MUL OR SWAP1 SSTORE POP DUP1 PUSH1 0x2 PUSH0 PUSH2 0x100 EXP DUP2 SLOAD DUP2 PUSH20 0xFFFFFFFFFFFFFFFFFFFFFFFFFFFFFFFFFFFFFFFF MUL NOT AND SWAP1 DUP4 PUSH20 0xFFFFFFFFFFFFFFFFFFFFFFFFFFFFFFFFFFFFFFFF AND MUL OR SWAP1 SSTORE POP DUP1 PUSH20 0xFFFFFFFFFFFFFFFFFFFFFFFFFFFFFFFFFFFFFFFF AND PUSH32 0x675B770E821BA4AAD20BE77C58F912D689226272E805637F42F838A6035EED86 PUSH1 0x40 MLOAD PUSH1 0x40 MLOAD DUP1 SWAP2 SUB SWAP1 LOG2 JUMPDEST PUSH2 0xF2B JUMP JUMPDEST DUP1 PUSH1 0x40 MLOAD PUSH32 0xC632231500000000000000000000000000000000000000000000000000000000 DUP2 MSTORE PUSH1 0x4 ADD PUSH2 0xF22 SWAP2 SWAP1 PUSH2 0x35B5 JUMP JUMPDEST PUSH1 0x40 MLOAD DUP1 SWAP2 SUB SWAP1 REVERT JUMPDEST POP JUMP JUMPDEST PUSH0 PUSH1 0x8 PUSH0 ADD PUSH0 SWAP1 SLOAD SWAP1 PUSH2 0x100 EXP SWAP1 DIV PUSH20 0xFFFFFFFFFFFFFFFFFFFFFFFFFFFFFFFFFFFFFFFF AND SWAP1 POP SWAP1 JUMP JUMPDEST PUSH0 DUP5 DUP5 DUP5 DUP5 PUSH1 0x40 MLOAD PUSH1 0x20 ADD PUSH2 0xF70 SWAP5 SWAP4 SWAP3 SWAP2 SWAP1 PUSH2 0x3DF1 JUMP JUMPDEST PUSH1 0x40 MLOAD PUSH1 0x20 DUP2 DUP4 SUB SUB DUP2 MSTORE SWAP1 PUSH1 0x40 MSTORE DUP1 MLOAD SWAP1 PUSH1 0x20 ADD KECCAK256 PUSH0 SHR SWAP1 POP SWAP5 SWAP4 POP POP POP POP JUMP JUMPDEST PUSH0 SWAP2 SWAP1 POP JUMP JUMPDEST DUP1 PUSH1 0xA PUSH0 DUP5 PUSH20 0xFFFFFFFFFFFFFFFFFFFFFFFFFFFFFFFFFFFFFFFF AND PUSH20 0xFFFFFFFFFFFFFFFFFFFFFFFFFFFFFFFFFFFFFFFF AND DUP2 MSTORE PUSH1 0x20 ADD SWAP1 DUP2 MSTORE PUSH1 0x20 ADD PUSH0 KECCAK256 PUSH0 PUSH2 0x100 EXP DUP2 SLOAD DUP2 PUSH20 0xFFFFFFFFFFFFFFFFFFFFFFFFFFFFFFFFFFFFFFFF MUL NOT AND SWAP1 DUP4 PUSH20 0xFFFFFFFFFFFFFFFFFFFFFFFFFFFFFFFFFFFFFFFF AND MUL OR SWAP1 SSTORE POP POP POP JUMP JUMPDEST PUSH0 DUP1 PUSH1 0xA PUSH0 CALLER PUSH20 0xFFFFFFFFFFFFFFFFFFFFFFFFFFFFFFFFFFFFFFFF AND PUSH20 0xFFFFFFFFFFFFFFFFFFFFFFFFFFFFFFFFFFFFFFFF AND DUP2 MSTORE PUSH1 0x20 ADD SWAP1 DUP2 MSTORE PUSH1 0x20 ADD PUSH0 KECCAK256 PUSH0 SWAP1 SLOAD SWAP1 PUSH2 0x100 EXP SWAP1 DIV PUSH20 0xFFFFFFFFFFFFFFFFFFFFFFFFFFFFFFFFFFFFFFFF AND SWAP1 POP PUSH0 DUP2 PUSH20 0xFFFFFFFFFFFFFFFFFFFFFFFFFFFFFFFFFFFFFFFF AND PUSH4 0x13CF08B DUP6 PUSH1 0x40 MLOAD DUP3 PUSH4 0xFFFFFFFF AND PUSH1 0xE0 SHL DUP2 MSTORE PUSH1 0x4 ADD PUSH2 0x10B2 SWAP2 SWAP1 PUSH2 0x37EF JUMP JUMPDEST PUSH2 0x140 PUSH1 0x40 MLOAD DUP1 DUP4 SUB DUP2 DUP7 GAS STATICCALL ISZERO DUP1 ISZERO PUSH2 0x10CE JUMPI RETURNDATASIZE PUSH0 DUP1 RETURNDATACOPY RETURNDATASIZE PUSH0 REVERT JUMPDEST POP POP POP POP PUSH1 0x40 MLOAD RETURNDATASIZE PUSH1 0x1F NOT PUSH1 0x1F DUP3 ADD AND DUP3 ADD DUP1 PUSH1 0x40 MSTORE POP DUP2 ADD SWAP1 PUSH2 0x10F2 SWAP2 SWAP1 PUSH2 0x3FE0 JUMP JUMPDEST SWAP1 POP DUP1 PUSH1 0xC0 ADD MLOAD ISZERO PUSH2 0x1109 JUMPI PUSH1 0x5 SWAP3 POP POP POP PUSH2 0x12DF JUMP JUMPDEST DUP1 PUSH1 0xE0 ADD MLOAD ISZERO PUSH2 0x111E JUMPI PUSH1 0x2 SWAP3 POP POP POP PUSH2 0x12DF JUMP JUMPDEST DUP1 PUSH2 0x120 ADD MLOAD ISZERO PUSH2 0x1134 JUMPI PUSH1 0x3 SWAP3 POP POP POP PUSH2 0x12DF JUMP JUMPDEST DUP1 PUSH2 0x100 ADD MLOAD ISZERO PUSH2 0x114A JUMPI PUSH1 0x4 SWAP3 POP POP POP PUSH2 0x12DF JUMP JUMPDEST PUSH0 DUP2 PUSH1 0x80 ADD MLOAD PUSH6 0xFFFFFFFFFFFF AND SWAP1 POP PUSH0 DUP2 SUB PUSH2 0x119E JUMPI DUP5 PUSH1 0x40 MLOAD PUSH32 0x6AD0607500000000000000000000000000000000000000000000000000000000 DUP2 MSTORE PUSH1 0x4 ADD PUSH2 0x1195 SWAP2 SWAP1 PUSH2 0x37EF JUMP JUMPDEST PUSH1 0x40 MLOAD DUP1 SWAP2 SUB SWAP1 REVERT JUMPDEST PUSH0 TIMESTAMP SWAP1 POP DUP2 DUP2 GT PUSH2 0x11B5 JUMPI PUSH0 SWAP5 POP POP POP POP POP PUSH2 0x12DF JUMP JUMPDEST PUSH0 DUP4 PUSH1 0x20 ADD MLOAD SWAP1 POP PUSH0 DUP2 SWAP1 POP PUSH0 DUP2 PUSH20 0xFFFFFFFFFFFFFFFFFFFFFFFFFFFFFFFFFFFFFFFF AND PUSH4 0x5F8D96DE PUSH1 0x40 MLOAD DUP2 PUSH4 0xFFFFFFFF AND PUSH1 0xE0 SHL DUP2 MSTORE PUSH1 0x4 ADD PUSH1 0x20 PUSH1 0x40 MLOAD DUP1 DUP4 SUB DUP2 DUP7 GAS STATICCALL ISZERO DUP1 ISZERO PUSH2 0x120B JUMPI RETURNDATASIZE PUSH0 DUP1 RETURNDATACOPY RETURNDATASIZE PUSH0 REVERT JUMPDEST POP POP POP POP PUSH1 0x40 MLOAD RETURNDATASIZE PUSH1 0x1F NOT PUSH1 0x1F DUP3 ADD AND DUP3 ADD DUP1 PUSH1 0x40 MSTORE POP DUP2 ADD SWAP1 PUSH2 0x122F SWAP2 SWAP1 PUSH2 0x4020 JUMP JUMPDEST SWAP1 POP DUP1 DUP5 GT PUSH2 0x1248 JUMPI PUSH1 0x1 SWAP8 POP POP POP POP POP POP POP POP PUSH2 0x12DF JUMP JUMPDEST PUSH0 PUSH2 0x1252 DUP8 PUSH2 0x2F95 JUMP JUMPDEST SWAP1 POP PUSH0 DUP2 PUSH1 0x5 DUP2 GT ISZERO PUSH2 0x1268 JUMPI PUSH2 0x1267 PUSH2 0x3899 JUMP JUMPDEST JUMPDEST SWAP1 POP DUP9 PUSH20 0xFFFFFFFFFFFFFFFFFFFFFFFFFFFFFFFFFFFFFFFF AND PUSH4 0x1E9608A8 DUP3 DUP14 PUSH1 0x40 MLOAD DUP4 PUSH4 0xFFFFFFFF AND PUSH1 0xE0 SHL DUP2 MSTORE PUSH1 0x4 ADD PUSH2 0x12A5 SWAP3 SWAP2 SWAP1 PUSH2 0x404B JUMP JUMPDEST PUSH0 PUSH1 0x40 MLOAD DUP1 DUP4 SUB DUP2 PUSH0 DUP8 DUP1 EXTCODESIZE ISZERO DUP1 ISZERO PUSH2 0x12BC JUMPI PUSH0 DUP1 REVERT JUMPDEST POP GAS CALL ISZERO DUP1 ISZERO PUSH2 0x12CE JUMPI RETURNDATASIZE PUSH0 DUP1 RETURNDATACOPY RETURNDATASIZE PUSH0 REVERT JUMPDEST POP POP POP POP DUP2 SWAP10 POP POP POP POP POP POP POP POP POP POP JUMPDEST SWAP2 SWAP1 POP JUMP JUMPDEST PUSH1 0x60 PUSH1 0x40 MLOAD DUP1 PUSH1 0x40 ADD PUSH1 0x40 MSTORE DUP1 PUSH1 0xA DUP2 MSTORE PUSH1 0x20 ADD PUSH32 0x54696D65207374616D7000000000000000000000000000000000000000000000 DUP2 MSTORE POP SWAP1 POP SWAP1 JUMP JUMPDEST TIMESTAMP PUSH32 0x0 PUSH6 0xFFFFFFFFFFFF AND LT ISZERO PUSH2 0x13CB JUMPI PUSH2 0x1359 PUSH2 0x22F8 JUMP JUMPDEST PUSH20 0xFFFFFFFFFFFFFFFFFFFFFFFFFFFFFFFFFFFFFFFF AND CALLER PUSH20 0xFFFFFFFFFFFFFFFFFFFFFFFFFFFFFFFFFFFFFFFF AND EQ PUSH2 0x13C6 JUMPI PUSH1 0x40 MLOAD PUSH32 0x8C379A000000000000000000000000000000000000000000000000000000000 DUP2 MSTORE PUSH1 0x4 ADD PUSH2 0x13BD SWAP1 PUSH2 0x3C99 JUMP JUMPDEST PUSH1 0x40 MLOAD DUP1 SWAP2 SUB SWAP1 REVERT JUMPDEST PUSH2 0x1452 JUMP JUMPDEST PUSH2 0x13D3 PUSH2 0x16B9 JUMP JUMPDEST PUSH20 0xFFFFFFFFFFFFFFFFFFFFFFFFFFFFFFFFFFFFFFFF AND CALLER PUSH20 0xFFFFFFFFFFFFFFFFFFFFFFFFFFFFFFFFFFFFFFFF AND EQ DUP1 ISZERO PUSH2 0x1412 JUMPI POP PUSH2 0x1410 PUSH2 0x18A0 JUMP JUMPDEST ISZERO JUMPDEST PUSH2 0x1451 JUMPI PUSH1 0x40 MLOAD PUSH32 0x8C379A000000000000000000000000000000000000000000000000000000000 DUP2 MSTORE PUSH1 0x4 ADD PUSH2 0x1448 SWAP1 PUSH2 0x3C99 JUMP JUMPDEST PUSH1 0x40 MLOAD DUP1 SWAP2 SUB SWAP1 REVERT JUMPDEST JUMPDEST DUP1 PUSH20 0xFFFFFFFFFFFFFFFFFFFFFFFFFFFFFFFFFFFFFFFF AND PUSH1 0x2 PUSH0 SWAP1 SLOAD SWAP1 PUSH2 0x100 EXP SWAP1 DIV PUSH20 0xFFFFFFFFFFFFFFFFFFFFFFFFFFFFFFFFFFFFFFFF AND PUSH20 0xFFFFFFFFFFFFFFFFFFFFFFFFFFFFFFFFFFFFFFFF AND SUB PUSH2 0x1529 JUMPI PUSH1 0x5 PUSH1 0x14 PUSH2 0x100 EXP DUP2 SLOAD SWAP1 PUSH6 0xFFFFFFFFFFFF MUL NOT AND SWAP1 SSTORE PUSH1 0x2 PUSH0 PUSH2 0x100 EXP DUP2 SLOAD SWAP1 PUSH20 0xFFFFFFFFFFFFFFFFFFFFFFFFFFFFFFFFFFFFFFFF MUL NOT AND SWAP1 SSTORE DUP1 PUSH20 0xFFFFFFFFFFFFFFFFFFFFFFFFFFFFFFFFFFFFFFFF AND PUSH32 0xF299F61C7E493F99B20CB36C587CA903D085D5206BFE4452D295711E372DA029 PUSH1 0x40 MLOAD PUSH1 0x40 MLOAD DUP1 SWAP2 SUB SWAP1 LOG2 PUSH2 0x1566 JUMP JUMPDEST DUP1 PUSH1 0x40 MLOAD PUSH32 0xC632231500000000000000000000000000000000000000000000000000000000 DUP2 MSTORE PUSH1 0x4 ADD PUSH2 0x155D SWAP2 SWAP1 PUSH2 0x35B5 JUMP JUMPDEST PUSH1 0x40 MLOAD DUP1 SWAP2 SUB SWAP1 REVERT JUMPDEST POP JUMP JUMPDEST PUSH2 0x1571 PUSH2 0x16B9 JUMP JUMPDEST PUSH20 0xFFFFFFFFFFFFFFFFFFFFFFFFFFFFFFFFFFFFFFFF AND CALLER PUSH20 0xFFFFFFFFFFFFFFFFFFFFFFFFFFFFFFFFFFFFFFFF AND EQ DUP1 ISZERO PUSH2 0x15B0 JUMPI POP PUSH2 0x15AE PUSH2 0x18A0 JUMP JUMPDEST ISZERO JUMPDEST PUSH2 0x15EF JUMPI PUSH1 0x40 MLOAD PUSH32 0x8C379A000000000000000000000000000000000000000000000000000000000 DUP2 MSTORE PUSH1 0x4 ADD PUSH2 0x15E6 SWAP1 PUSH2 0x3C99 JUMP JUMPDEST PUSH1 0x40 MLOAD DUP1 SWAP2 SUB SWAP1 REVERT JUMPDEST DUP1 PUSH1 0x5 PUSH0 PUSH2 0x100 EXP DUP2 SLOAD DUP2 PUSH20 0xFFFFFFFFFFFFFFFFFFFFFFFFFFFFFFFFFFFFFFFF MUL NOT AND SWAP1 DUP4 PUSH20 0xFFFFFFFFFFFFFFFFFFFFFFFFFFFFFFFFFFFFFFFF AND MUL OR SWAP1 SSTORE POP DUP1 PUSH20 0xFFFFFFFFFFFFFFFFFFFFFFFFFFFFFFFFFFFFFFFF AND PUSH32 0xFF3CAD3EE28C342AD5F3D7C8FF8559EE4D21EB48494092B82A1652E443B3420B PUSH1 0x40 MLOAD PUSH1 0x40 MLOAD DUP1 SWAP2 SUB SWAP1 LOG2 POP JUMP JUMPDEST PUSH1 0x60 PUSH1 0x40 MLOAD DUP1 PUSH1 0x40 ADD PUSH1 0x40 MSTORE DUP1 PUSH1 0x1 DUP2 MSTORE PUSH1 0x20 ADD PUSH32 0x3100000000000000000000000000000000000000000000000000000000000000 DUP2 MSTORE POP SWAP1 POP SWAP1 JUMP JUMPDEST PUSH0 TIMESTAMP SWAP1 POP SWAP1 JUMP JUMPDEST PUSH0 PUSH1 0x6 PUSH0 ADD PUSH0 SWAP1 SLOAD SWAP1 PUSH2 0x100 EXP SWAP1 DIV PUSH20 0xFFFFFFFFFFFFFFFFFFFFFFFFFFFFFFFFFFFFFFFF AND SWAP1 POP SWAP1 JUMP JUMPDEST PUSH0 DUP2 PUSH1 0x40 MLOAD PUSH1 0x20 ADD PUSH2 0x16F5 SWAP2 SWAP1 PUSH2 0x4092 JUMP JUMPDEST PUSH1 0x40 MLOAD PUSH1 0x20 DUP2 DUP4 SUB SUB DUP2 MSTORE SWAP1 PUSH1 0x40 MSTORE DUP1 MLOAD SWAP1 PUSH1 0x20 ADD KECCAK256 SWAP1 POP PUSH0 DUP4 SWAP1 POP DUP2 PUSH1 0x40 MLOAD PUSH1 0x20 ADD PUSH2 0x1721 SWAP1 PUSH2 0x4100 JUMP JUMPDEST PUSH1 0x40 MLOAD PUSH1 0x20 DUP2 DUP4 SUB SUB DUP2 MSTORE SWAP1 PUSH1 0x40 MSTORE DUP1 MLOAD SWAP1 PUSH1 0x20 ADD KECCAK256 SUB PUSH2 0x1794 JUMPI DUP1 PUSH1 0xC PUSH0 PUSH2 0x100 EXP DUP2 SLOAD DUP2 PUSH4 0xFFFFFFFF MUL NOT AND SWAP1 DUP4 PUSH4 0xFFFFFFFF AND MUL OR SWAP1 SSTORE POP DUP1 PUSH4 0xFFFFFFFF AND PUSH32 0xCECCF714BC39BDE68A069AE4149980BD5382CB4E6723FBDB6E7723728E4885CE PUSH1 0x40 MLOAD PUSH1 0x40 MLOAD DUP1 SWAP2 SUB SWAP1 LOG2 PUSH2 0x189A JUMP JUMPDEST DUP2 PUSH1 0x40 MLOAD PUSH1 0x20 ADD PUSH2 0x17A4 SWAP1 PUSH2 0x415E JUMP JUMPDEST PUSH1 0x40 MLOAD PUSH1 0x20 DUP2 DUP4 SUB SUB DUP2 MSTORE SWAP1 PUSH1 0x40 MSTORE DUP1 MLOAD SWAP1 PUSH1 0x20 ADD KECCAK256 SUB PUSH2 0x1818 JUMPI DUP1 PUSH1 0xC PUSH1 0x4 PUSH2 0x100 EXP DUP2 SLOAD DUP2 PUSH4 0xFFFFFFFF MUL NOT AND SWAP1 DUP4 PUSH4 0xFFFFFFFF AND MUL OR SWAP1 SSTORE POP DUP1 PUSH4 0xFFFFFFFF AND PUSH32 0xDF149C5D5960B920BA24706165B5DCB67E2AC13EC5C3AA0909FA229BDD328D97 PUSH1 0x40 MLOAD PUSH1 0x40 MLOAD DUP1 SWAP2 SUB SWAP1 LOG2 PUSH2 0x1899 JUMP JUMPDEST DUP2 PUSH1 0x40 MLOAD PUSH1 0x20 ADD PUSH2 0x1828 SWAP1 PUSH2 0x41BC JUMP JUMPDEST PUSH1 0x40 MLOAD PUSH1 0x20 DUP2 DUP4 SUB SUB DUP2 MSTORE SWAP1 PUSH1 0x40 MSTORE DUP1 MLOAD SWAP1 PUSH1 0x20 ADD KECCAK256 SUB PUSH2 0x1898 JUMPI DUP1 PUSH1 0xC PUSH1 0x8 PUSH2 0x100 EXP DUP2 SLOAD DUP2 PUSH4 0xFFFFFFFF MUL NOT AND SWAP1 DUP4 PUSH4 0xFFFFFFFF AND MUL OR SWAP1 SSTORE POP DUP1 PUSH4 0xFFFFFFFF AND PUSH32 0xC6213165F7E768A76A2092906D1174E3B00C99567ACC7E4211898FAE0AE2C33C PUSH1 0x40 MLOAD PUSH1 0x40 MLOAD DUP1 SWAP2 SUB SWAP1 LOG2 JUMPDEST JUMPDEST JUMPDEST POP POP POP POP JUMP JUMPDEST PUSH0 PUSH1 0x6 PUSH0 ADD PUSH1 0x14 SWAP1 SLOAD SWAP1 PUSH2 0x100 EXP SWAP1 DIV PUSH1 0xFF AND SWAP1 POP SWAP1 JUMP JUMPDEST PUSH0 PUSH1 0x60 DUP1 PUSH0 DUP1 PUSH0 PUSH1 0x60 PUSH2 0x18C9 PUSH2 0x3032 JUMP JUMPDEST PUSH2 0x18D1 PUSH2 0x306C JUMP JUMPDEST CHAINID ADDRESS PUSH0 DUP1 SHL PUSH0 PUSH8 0xFFFFFFFFFFFFFFFF DUP2 GT ISZERO PUSH2 0x18F0 JUMPI PUSH2 0x18EF PUSH2 0x3609 JUMP JUMPDEST JUMPDEST PUSH1 0x40 MLOAD SWAP1 DUP1 DUP3 MSTORE DUP1 PUSH1 0x20 MUL PUSH1 0x20 ADD DUP3 ADD PUSH1 0x40 MSTORE DUP1 ISZERO PUSH2 0x191E JUMPI DUP2 PUSH1 0x20 ADD PUSH1 0x20 DUP3 MUL DUP1 CALLDATASIZE DUP4 CALLDATACOPY DUP1 DUP3 ADD SWAP2 POP POP SWAP1 POP JUMPDEST POP PUSH32 0xF00000000000000000000000000000000000000000000000000000000000000 SWAP6 SWAP5 SWAP4 SWAP3 SWAP2 SWAP1 SWAP7 POP SWAP7 POP SWAP7 POP SWAP7 POP SWAP7 POP SWAP7 POP SWAP7 POP SWAP1 SWAP2 SWAP3 SWAP4 SWAP5 SWAP6 SWAP7 JUMP JUMPDEST PUSH0 PUSH2 0x196A DUP6 DUP6 DUP6 DUP6 PUSH2 0xF58 JUMP JUMPDEST SWAP1 POP PUSH0 PUSH1 0xA PUSH0 CALLER PUSH20 0xFFFFFFFFFFFFFFFFFFFFFFFFFFFFFFFFFFFFFFFF AND PUSH20 0xFFFFFFFFFFFFFFFFFFFFFFFFFFFFFFFFFFFFFFFF AND DUP2 MSTORE PUSH1 0x20 ADD SWAP1 DUP2 MSTORE PUSH1 0x20 ADD PUSH0 KECCAK256 PUSH0 SWAP1 SLOAD SWAP1 PUSH2 0x100 EXP SWAP1 DIV PUSH20 0xFFFFFFFFFFFFFFFFFFFFFFFFFFFFFFFFFFFFFFFF AND SWAP1 POP PUSH0 PUSH20 0xFFFFFFFFFFFFFFFFFFFFFFFFFFFFFFFFFFFFFFFF AND DUP2 PUSH20 0xFFFFFFFFFFFFFFFFFFFFFFFFFFFFFFFFFFFFFFFF AND EQ PUSH2 0x1B69 JUMPI PUSH0 PUSH2 0x1A09 DUP4 PUSH2 0x1017 JUMP JUMPDEST SWAP1 POP PUSH1 0x5 DUP1 DUP2 GT ISZERO PUSH2 0x1A1E JUMPI PUSH2 0x1A1D PUSH2 0x3899 JUMP JUMPDEST JUMPDEST DUP2 PUSH1 0x5 DUP2 GT ISZERO PUSH2 0x1A31 JUMPI PUSH2 0x1A30 PUSH2 0x3899 JUMP JUMPDEST JUMPDEST EQ DUP1 PUSH2 0x1A61 JUMPI POP PUSH1 0x2 PUSH1 0x5 DUP2 GT ISZERO PUSH2 0x1A4C JUMPI PUSH2 0x1A4B PUSH2 0x3899 JUMP JUMPDEST JUMPDEST DUP2 PUSH1 0x5 DUP2 GT ISZERO PUSH2 0x1A5F JUMPI PUSH2 0x1A5E PUSH2 0x3899 JUMP JUMPDEST JUMPDEST EQ JUMPDEST ISZERO PUSH2 0x1AA3 JUMPI DUP3 PUSH1 0x40 MLOAD PUSH32 0xDF7FE1CD00000000000000000000000000000000000000000000000000000000 DUP2 MSTORE PUSH1 0x4 ADD PUSH2 0x1A9A SWAP2 SWAP1 PUSH2 0x37EF JUMP JUMPDEST PUSH1 0x40 MLOAD DUP1 SWAP2 SUB SWAP1 REVERT JUMPDEST PUSH0 DUP3 SWAP1 POP PUSH0 DUP2 PUSH20 0xFFFFFFFFFFFFFFFFFFFFFFFFFFFFFFFFFFFFFFFF AND PUSH4 0x13CF08B DUP7 PUSH1 0x40 MLOAD DUP3 PUSH4 0xFFFFFFFF AND PUSH1 0xE0 SHL DUP2 MSTORE PUSH1 0x4 ADD PUSH2 0x1AE1 SWAP2 SWAP1 PUSH2 0x37EF JUMP JUMPDEST PUSH2 0x140 PUSH1 0x40 MLOAD DUP1 DUP4 SUB DUP2 DUP7 GAS STATICCALL ISZERO DUP1 ISZERO PUSH2 0x1AFD JUMPI RETURNDATASIZE PUSH0 DUP1 RETURNDATACOPY RETURNDATASIZE PUSH0 REVERT JUMPDEST POP POP POP POP PUSH1 0x40 MLOAD RETURNDATASIZE PUSH1 0x1F NOT PUSH1 0x1F DUP3 ADD AND DUP3 ADD DUP1 PUSH1 0x40 MSTORE POP DUP2 ADD SWAP1 PUSH2 0x1B21 SWAP2 SWAP1 PUSH2 0x3FE0 JUMP JUMPDEST SWAP1 POP PUSH1 0x1 DUP2 PUSH1 0xE0 ADD SWAP1 ISZERO ISZERO SWAP1 DUP2 ISZERO ISZERO DUP2 MSTORE POP POP DUP5 PUSH32 0x789CF55BE980739DAD1D0699B93B58E806B51C9D96619BFA8FE0A28ABAA7B30C PUSH1 0x40 MLOAD PUSH1 0x40 MLOAD DUP1 SWAP2 SUB SWAP1 LOG2 POP POP POP PUSH2 0x1BA6 JUMP JUMPDEST CALLER PUSH1 0x40 MLOAD PUSH32 0xDA75B54A00000000000000000000000000000000000000000000000000000000 DUP2 MSTORE PUSH1 0x4 ADD PUSH2 0x1B9D SWAP2 SWAP1 PUSH2 0x35B5 JUMP JUMPDEST PUSH1 0x40 MLOAD DUP1 SWAP2 SUB SWAP1 REVERT JUMPDEST POP POP POP POP POP POP JUMP JUMPDEST CALLER PUSH20 0xFFFFFFFFFFFFFFFFFFFFFFFFFFFFFFFFFFFFFFFF AND DUP5 PUSH20 0xFFFFFFFFFFFFFFFFFFFFFFFFFFFFFFFFFFFFFFFF AND SUB PUSH2 0x1E39 JUMPI PUSH0 PUSH2 0x1BEE DUP6 DUP6 DUP6 DUP6 PUSH2 0xF58 JUMP JUMPDEST SWAP1 POP PUSH0 PUSH2 0x1BFA DUP3 PUSH2 0x1017 JUMP JUMPDEST SWAP1 POP PUSH1 0x4 PUSH1 0x5 DUP2 GT ISZERO PUSH2 0x1C10 JUMPI PUSH2 0x1C0F PUSH2 0x3899 JUMP JUMPDEST JUMPDEST DUP2 PUSH1 0x5 DUP2 GT ISZERO PUSH2 0x1C23 JUMPI PUSH2 0x1C22 PUSH2 0x3899 JUMP JUMPDEST JUMPDEST SUB PUSH2 0x1D97 JUMPI PUSH0 PUSH1 0xA PUSH0 CALLER PUSH20 0xFFFFFFFFFFFFFFFFFFFFFFFFFFFFFFFFFFFFFFFF AND PUSH20 0xFFFFFFFFFFFFFFFFFFFFFFFFFFFFFFFFFFFFFFFF AND DUP2 MSTORE PUSH1 0x20 ADD SWAP1 DUP2 MSTORE PUSH1 0x20 ADD PUSH0 KECCAK256 PUSH0 SWAP1 SLOAD SWAP1 PUSH2 0x100 EXP SWAP1 DIV PUSH20 0xFFFFFFFFFFFFFFFFFFFFFFFFFFFFFFFFFFFFFFFF AND SWAP1 POP DUP1 PUSH20 0xFFFFFFFFFFFFFFFFFFFFFFFFFFFFFFFFFFFFFFFF AND PUSH4 0x1E9608A8 PUSH1 0x5 DUP6 PUSH1 0x40 MLOAD DUP4 PUSH4 0xFFFFFFFF AND PUSH1 0xE0 SHL DUP2 MSTORE PUSH1 0x4 ADD PUSH2 0x1CC4 SWAP3 SWAP2 SWAP1 PUSH2 0x4212 JUMP JUMPDEST PUSH0 PUSH1 0x40 MLOAD DUP1 DUP4 SUB DUP2 PUSH0 DUP8 DUP1 EXTCODESIZE ISZERO DUP1 ISZERO PUSH2 0x1CDB JUMPI PUSH0 DUP1 REVERT JUMPDEST POP GAS CALL ISZERO DUP1 ISZERO PUSH2 0x1CED JUMPI RETURNDATASIZE PUSH0 DUP1 RETURNDATACOPY RETURNDATASIZE PUSH0 REVERT JUMPDEST POP POP POP POP DUP3 PUSH1 0xA PUSH0 CALLER PUSH20 0xFFFFFFFFFFFFFFFFFFFFFFFFFFFFFFFFFFFFFFFF AND PUSH20 0xFFFFFFFFFFFFFFFFFFFFFFFFFFFFFFFFFFFFFFFF AND DUP2 MSTORE PUSH1 0x20 ADD SWAP1 DUP2 MSTORE PUSH1 0x20 ADD PUSH0 KECCAK256 PUSH0 SWAP1 SLOAD SWAP1 PUSH2 0x100 EXP SWAP1 DIV PUSH20 0xFFFFFFFFFFFFFFFFFFFFFFFFFFFFFFFFFFFFFFFF AND PUSH20 0xFFFFFFFFFFFFFFFFFFFFFFFFFFFFFFFFFFFFFFFF AND PUSH32 0x63D1CC08AAAE6E4C1E85034D4067073EA84D1113B6281A146A76156A7B3A9A31 PUSH1 0x40 MLOAD PUSH1 0x40 MLOAD DUP1 SWAP2 SUB SWAP1 LOG3 POP PUSH2 0x1E32 JUMP JUMPDEST PUSH1 0xA PUSH0 CALLER PUSH20 0xFFFFFFFFFFFFFFFFFFFFFFFFFFFFFFFFFFFFFFFF AND PUSH20 0xFFFFFFFFFFFFFFFFFFFFFFFFFFFFFFFFFFFFFFFF AND DUP2 MSTORE PUSH1 0x20 ADD SWAP1 DUP2 MSTORE PUSH1 0x20 ADD PUSH0 KECCAK256 PUSH0 SWAP1 SLOAD SWAP1 PUSH2 0x100 EXP SWAP1 DIV PUSH20 0xFFFFFFFFFFFFFFFFFFFFFFFFFFFFFFFFFFFFFFFF AND DUP3 PUSH1 0x40 MLOAD PUSH32 0x5F1E5AB600000000000000000000000000000000000000000000000000000000 DUP2 MSTORE PUSH1 0x4 ADD PUSH2 0x1E29 SWAP3 SWAP2 SWAP1 PUSH2 0x4239 JUMP JUMPDEST PUSH1 0x40 MLOAD DUP1 SWAP2 SUB SWAP1 REVERT JUMPDEST POP POP PUSH2 0x1E76 JUMP JUMPDEST CALLER PUSH1 0x40 MLOAD PUSH32 0xDA75B54A00000000000000000000000000000000000000000000000000000000 DUP2 MSTORE PUSH1 0x4 ADD PUSH2 0x1E6D SWAP2 SWAP1 PUSH2 0x35B5 JUMP JUMPDEST PUSH1 0x40 MLOAD DUP1 SWAP2 SUB SWAP1 REVERT JUMPDEST POP POP POP POP JUMP JUMPDEST TIMESTAMP PUSH32 0x0 PUSH6 0xFFFFFFFFFFFF AND LT ISZERO PUSH2 0x1F26 JUMPI PUSH2 0x1EB4 PUSH2 0x22F8 JUMP JUMPDEST PUSH20 0xFFFFFFFFFFFFFFFFFFFFFFFFFFFFFFFFFFFFFFFF AND CALLER PUSH20 0xFFFFFFFFFFFFFFFFFFFFFFFFFFFFFFFFFFFFFFFF AND EQ PUSH2 0x1F21 JUMPI PUSH1 0x40 MLOAD PUSH32 0x8C379A000000000000000000000000000000000000000000000000000000000 DUP2 MSTORE PUSH1 0x4 ADD PUSH2 0x1F18 SWAP1 PUSH2 0x3C99 JUMP JUMPDEST PUSH1 0x40 MLOAD DUP1 SWAP2 SUB SWAP1 REVERT JUMPDEST PUSH2 0x1FAD JUMP JUMPDEST PUSH2 0x1F2E PUSH2 0x16B9 JUMP JUMPDEST PUSH20 0xFFFFFFFFFFFFFFFFFFFFFFFFFFFFFFFFFFFFFFFF AND CALLER PUSH20 0xFFFFFFFFFFFFFFFFFFFFFFFFFFFFFFFFFFFFFFFF AND EQ DUP1 ISZERO PUSH2 0x1F6D JUMPI POP PUSH2 0x1F6B PUSH2 0x18A0 JUMP JUMPDEST ISZERO JUMPDEST PUSH2 0x1FAC JUMPI PUSH1 0x40 MLOAD PUSH32 0x8C379A000000000000000000000000000000000000000000000000000000000 DUP2 MSTORE PUSH1 0x4 ADD PUSH2 0x1FA3 SWAP1 PUSH2 0x3C99 JUMP JUMPDEST PUSH1 0x40 MLOAD DUP1 SWAP2 SUB SWAP1 REVERT JUMPDEST JUMPDEST TIMESTAMP PUSH1 0x5 PUSH1 0x14 SWAP1 SLOAD SWAP1 PUSH2 0x100 EXP SWAP1 DIV PUSH6 0xFFFFFFFFFFFF AND PUSH6 0xFFFFFFFFFFFF AND LT ISZERO PUSH2 0x210E JUMPI PUSH0 PUSH1 0x5 PUSH1 0x14 SWAP1 SLOAD SWAP1 PUSH2 0x100 EXP SWAP1 DIV PUSH6 0xFFFFFFFFFFFF AND PUSH6 0xFFFFFFFFFFFF AND SUB PUSH2 0x202F JUMPI PUSH1 0x40 MLOAD PUSH32 0x8C379A000000000000000000000000000000000000000000000000000000000 DUP2 MSTORE PUSH1 0x4 ADD PUSH2 0x2026 SWAP1 PUSH2 0x42AA JUMP JUMPDEST PUSH1 0x40 MLOAD DUP1 SWAP2 SUB SWAP1 REVERT JUMPDEST DUP1 PUSH20 0xFFFFFFFFFFFFFFFFFFFFFFFFFFFFFFFFFFFFFFFF AND PUSH1 0x2 PUSH0 SWAP1 SLOAD SWAP1 PUSH2 0x100 EXP SWAP1 DIV PUSH20 0xFFFFFFFFFFFFFFFFFFFFFFFFFFFFFFFFFFFFFFFF AND PUSH20 0xFFFFFFFFFFFFFFFFFFFFFFFFFFFFFFFFFFFFFFFF AND SUB PUSH2 0x20CC JUMPI PUSH1 0x5 PUSH1 0x14 PUSH2 0x100 EXP DUP2 SLOAD SWAP1 PUSH6 0xFFFFFFFFFFFF MUL NOT AND SWAP1 SSTORE PUSH1 0x2 PUSH0 PUSH2 0x100 EXP DUP2 SLOAD SWAP1 PUSH20 0xFFFFFFFFFFFFFFFFFFFFFFFFFFFFFFFFFFFFFFFF MUL NOT AND SWAP1 SSTORE PUSH2 0x20C7 DUP2 PUSH2 0x2E8C JUMP JUMPDEST PUSH2 0x2109 JUMP JUMPDEST DUP1 PUSH1 0x40 MLOAD PUSH32 0xC632231500000000000000000000000000000000000000000000000000000000 DUP2 MSTORE PUSH1 0x4 ADD PUSH2 0x2100 SWAP2 SWAP1 PUSH2 0x35B5 JUMP JUMPDEST PUSH1 0x40 MLOAD DUP1 SWAP2 SUB SWAP1 REVERT JUMPDEST PUSH2 0x216A JUMP JUMPDEST TIMESTAMP PUSH1 0x5 PUSH1 0x14 SWAP1 SLOAD SWAP1 PUSH2 0x100 EXP SWAP1 DIV PUSH6 0xFFFFFFFFFFFF AND PUSH2 0x212E SWAP2 SWAP1 PUSH2 0x42C8 JUMP JUMPDEST PUSH1 0x40 MLOAD PUSH32 0x223A6CBB00000000000000000000000000000000000000000000000000000000 DUP2 MSTORE PUSH1 0x4 ADD PUSH2 0x2161 SWAP2 SWAP1 PUSH2 0x4310 JUMP JUMPDEST PUSH1 0x40 MLOAD DUP1 SWAP2 SUB SWAP1 REVERT JUMPDEST POP JUMP JUMPDEST PUSH0 PUSH1 0x7 PUSH0 ADD PUSH0 SWAP1 SLOAD SWAP1 PUSH2 0x100 EXP SWAP1 DIV PUSH20 0xFFFFFFFFFFFFFFFFFFFFFFFFFFFFFFFFFFFFFFFF AND SWAP1 POP SWAP1 JUMP JUMPDEST TIMESTAMP PUSH32 0x0 PUSH6 0xFFFFFFFFFFFF AND LT ISZERO PUSH2 0x2241 JUMPI PUSH2 0x21CF PUSH2 0x22F8 JUMP JUMPDEST PUSH20 0xFFFFFFFFFFFFFFFFFFFFFFFFFFFFFFFFFFFFFFFF AND CALLER PUSH20 0xFFFFFFFFFFFFFFFFFFFFFFFFFFFFFFFFFFFFFFFF AND EQ PUSH2 0x223C JUMPI PUSH1 0x40 MLOAD PUSH32 0x8C379A000000000000000000000000000000000000000000000000000000000 DUP2 MSTORE PUSH1 0x4 ADD PUSH2 0x2233 SWAP1 PUSH2 0x3C99 JUMP JUMPDEST PUSH1 0x40 MLOAD DUP1 SWAP2 SUB SWAP1 REVERT JUMPDEST PUSH2 0x22C8 JUMP JUMPDEST PUSH2 0x2249 PUSH2 0x16B9 JUMP JUMPDEST PUSH20 0xFFFFFFFFFFFFFFFFFFFFFFFFFFFFFFFFFFFFFFFF AND CALLER PUSH20 0xFFFFFFFFFFFFFFFFFFFFFFFFFFFFFFFFFFFFFFFF AND EQ DUP1 ISZERO PUSH2 0x2288 JUMPI POP PUSH2 0x2286 PUSH2 0x18A0 JUMP JUMPDEST ISZERO JUMPDEST PUSH2 0x22C7 JUMPI PUSH1 0x40 MLOAD PUSH32 0x8C379A000000000000000000000000000000000000000000000000000000000 DUP2 MSTORE PUSH1 0x4 ADD PUSH2 0x22BE SWAP1 PUSH2 0x3C99 JUMP JUMPDEST PUSH1 0x40 MLOAD DUP1 SWAP2 SUB SWAP1 REVERT JUMPDEST JUMPDEST PUSH2 0x22D1 DUP2 PUSH2 0x2E4E JUMP JUMPDEST PUSH2 0x22DA DUP2 PUSH2 0x2E6D JUMP JUMPDEST POP JUMP JUMPDEST PUSH0 PUSH1 0x8 PUSH0 ADD PUSH1 0x15 SWAP1 SLOAD SWAP1 PUSH2 0x100 EXP SWAP1 DIV PUSH4 0xFFFFFFFF AND SWAP1 POP SWAP1 JUMP JUMPDEST PUSH0 PUSH1 0x9 PUSH0 ADD PUSH0 SWAP1 SLOAD SWAP1 PUSH2 0x100 EXP SWAP1 DIV PUSH20 0xFFFFFFFFFFFFFFFFFFFFFFFFFFFFFFFFFFFFFFFF AND SWAP1 POP SWAP1 JUMP JUMPDEST PUSH0 CALLER PUSH20 0xFFFFFFFFFFFFFFFFFFFFFFFFFFFFFFFFFFFFFFFF AND DUP5 PUSH20 0xFFFFFFFFFFFFFFFFFFFFFFFFFFFFFFFFFFFFFFFF AND EQ PUSH2 0x2391 JUMPI PUSH1 0x40 MLOAD PUSH32 0x8C379A000000000000000000000000000000000000000000000000000000000 DUP2 MSTORE PUSH1 0x4 ADD PUSH2 0x2388 SWAP1 PUSH2 0x4373 JUMP JUMPDEST PUSH1 0x40 MLOAD DUP1 SWAP2 SUB SWAP1 REVERT JUMPDEST PUSH0 PUSH1 0xA PUSH0 DUP7 PUSH20 0xFFFFFFFFFFFFFFFFFFFFFFFFFFFFFFFFFFFFFFFF AND PUSH20 0xFFFFFFFFFFFFFFFFFFFFFFFFFFFFFFFFFFFFFFFF AND DUP2 MSTORE PUSH1 0x20 ADD SWAP1 DUP2 MSTORE PUSH1 0x20 ADD PUSH0 KECCAK256 PUSH0 SWAP1 SLOAD SWAP1 PUSH2 0x100 EXP SWAP1 DIV PUSH20 0xFFFFFFFFFFFFFFFFFFFFFFFFFFFFFFFFFFFFFFFF AND SWAP1 POP PUSH0 DUP4 SWAP1 POP DUP1 PUSH20 0xFFFFFFFFFFFFFFFFFFFFFFFFFFFFFFFFFFFFFFFF AND PUSH4 0xEC5BF07B PUSH1 0x40 MLOAD DUP2 PUSH4 0xFFFFFFFF AND PUSH1 0xE0 SHL DUP2 MSTORE PUSH1 0x4 ADD PUSH1 0x20 PUSH1 0x40 MLOAD DUP1 DUP4 SUB DUP2 DUP7 GAS STATICCALL ISZERO DUP1 ISZERO PUSH2 0x243E JUMPI RETURNDATASIZE PUSH0 DUP1 RETURNDATACOPY RETURNDATASIZE PUSH0 REVERT JUMPDEST POP POP POP POP PUSH1 0x40 MLOAD RETURNDATASIZE PUSH1 0x1F NOT PUSH1 0x1F DUP3 ADD AND DUP3 ADD DUP1 PUSH1 0x40 MSTORE POP DUP2 ADD SWAP1 PUSH2 0x2462 SWAP2 SWAP1 PUSH2 0x4020 JUMP JUMPDEST SWAP3 POP PUSH0 DUP3 PUSH20 0xFFFFFFFFFFFFFFFFFFFFFFFFFFFFFFFFFFFFFFFF AND PUSH4 0x13CF08B DUP6 PUSH1 0x40 MLOAD DUP3 PUSH4 0xFFFFFFFF AND PUSH1 0xE0 SHL DUP2 MSTORE PUSH1 0x4 ADD PUSH2 0x249E SWAP2 SWAP1 PUSH2 0x37EF JUMP JUMPDEST PUSH2 0x140 PUSH1 0x40 MLOAD DUP1 DUP4 SUB DUP2 DUP7 GAS STATICCALL ISZERO DUP1 ISZERO PUSH2 0x24BA JUMPI RETURNDATASIZE PUSH0 DUP1 RETURNDATACOPY RETURNDATASIZE PUSH0 REVERT JUMPDEST POP POP POP POP PUSH1 0x40 MLOAD RETURNDATASIZE PUSH1 0x1F NOT PUSH1 0x1F DUP3 ADD AND DUP3 ADD DUP1 PUSH1 0x40 MSTORE POP DUP2 ADD SWAP1 PUSH2 0x24DE SWAP2 SWAP1 PUSH2 0x3FE0 JUMP JUMPDEST SWAP1 POP PUSH0 DUP2 PUSH1 0x80 ADD MLOAD PUSH6 0xFFFFFFFFFFFF AND EQ PUSH2 0x2530 JUMPI DUP4 PUSH1 0x40 MLOAD PUSH32 0x4ACE252500000000000000000000000000000000000000000000000000000000 DUP2 MSTORE PUSH1 0x4 ADD PUSH2 0x2527 SWAP2 SWAP1 PUSH2 0x37EF JUMP JUMPDEST PUSH1 0x40 MLOAD DUP1 SWAP2 SUB SWAP1 REVERT JUMPDEST PUSH0 DUP3 PUSH20 0xFFFFFFFFFFFFFFFFFFFFFFFFFFFFFFFFFFFFFFFF AND PUSH4 0xBC33C7D7 PUSH1 0x40 MLOAD DUP2 PUSH4 0xFFFFFFFF AND PUSH1 0xE0 SHL DUP2 MSTORE PUSH1 0x4 ADD PUSH0 PUSH1 0x40 MLOAD DUP1 DUP4 SUB DUP2 DUP7 GAS STATICCALL ISZERO DUP1 ISZERO PUSH2 0x2579 JUMPI RETURNDATASIZE PUSH0 DUP1 RETURNDATACOPY RETURNDATASIZE PUSH0 REVERT JUMPDEST POP POP POP POP PUSH1 0x40 MLOAD RETURNDATASIZE PUSH0 DUP3 RETURNDATACOPY RETURNDATASIZE PUSH1 0x1F NOT PUSH1 0x1F DUP3 ADD AND DUP3 ADD DUP1 PUSH1 0x40 MSTORE POP DUP2 ADD SWAP1 PUSH2 0x25A1 SWAP2 SWAP1 PUSH2 0x4443 JUMP JUMPDEST SWAP4 POP POP POP POP ADDRESS PUSH20 0xFFFFFFFFFFFFFFFFFFFFFFFFFFFFFFFFFFFFFFFF AND DUP2 PUSH20 0xFFFFFFFFFFFFFFFFFFFFFFFFFFFFFFFFFFFFFFFF AND EQ PUSH2 0x2616 JUMPI DUP1 PUSH1 0x40 MLOAD PUSH32 0x4E5C69DD00000000000000000000000000000000000000000000000000000000 DUP2 MSTORE PUSH1 0x4 ADD PUSH2 0x260D SWAP2 SWAP1 PUSH2 0x35B5 JUMP JUMPDEST PUSH1 0x40 MLOAD DUP1 SWAP2 SUB SWAP1 REVERT JUMPDEST PUSH0 DUP1 PUSH0 DUP6 PUSH20 0xFFFFFFFFFFFFFFFFFFFFFFFFFFFFFFFFFFFFFFFF AND PUSH4 0x4731CA2B PUSH1 0x40 MLOAD DUP2 PUSH4 0xFFFFFFFF AND PUSH1 0xE0 SHL DUP2 MSTORE PUSH1 0x4 ADD PUSH1 0x60 PUSH1 0x40 MLOAD DUP1 DUP4 SUB DUP2 DUP7 GAS STATICCALL ISZERO DUP1 ISZERO PUSH2 0x2662 JUMPI RETURNDATASIZE PUSH0 DUP1 RETURNDATACOPY RETURNDATASIZE PUSH0 REVERT JUMPDEST POP POP POP POP PUSH1 0x40 MLOAD RETURNDATASIZE PUSH1 0x1F NOT PUSH1 0x1F DUP3 ADD AND DUP3 ADD DUP1 PUSH1 0x40 MSTORE POP DUP2 ADD SWAP1 PUSH2 0x2686 SWAP2 SWAP1 PUSH2 0x44DF JUMP JUMPDEST SWAP3 POP SWAP3 POP SWAP3 POP DUP3 PUSH20 0xFFFFFFFFFFFFFFFFFFFFFFFFFFFFFFFFFFFFFFFF AND DUP12 PUSH20 0xFFFFFFFFFFFFFFFFFFFFFFFFFFFFFFFFFFFFFFFF AND EQ ISZERO DUP1 PUSH2 0x26F3 JUMPI POP DUP2 PUSH20 0xFFFFFFFFFFFFFFFFFFFFFFFFFFFFFFFFFFFFFFFF AND DUP11 PUSH20 0xFFFFFFFFFFFFFFFFFFFFFFFFFFFFFFFFFFFFFFFF AND EQ ISZERO JUMPDEST DUP1 PUSH2 0x26FE JUMPI POP DUP1 DUP13 EQ ISZERO JUMPDEST ISZERO PUSH2 0x2744 JUMPI DUP3 DUP3 DUP3 PUSH1 0x40 MLOAD PUSH32 0xCB57CBF900000000000000000000000000000000000000000000000000000000 DUP2 MSTORE PUSH1 0x4 ADD PUSH2 0x273B SWAP4 SWAP3 SWAP2 SWAP1 PUSH2 0x452F JUMP JUMPDEST PUSH1 0x40 MLOAD DUP1 SWAP2 SUB SWAP1 REVERT JUMPDEST PUSH0 DUP1 PUSH0 DUP1 DUP10 PUSH20 0xFFFFFFFFFFFFFFFFFFFFFFFFFFFFFFFFFFFFFFFF AND PUSH4 0xB3A05246 PUSH1 0x40 MLOAD DUP2 PUSH4 0xFFFFFFFF AND PUSH1 0xE0 SHL DUP2 MSTORE PUSH1 0x4 ADD PUSH1 0x80 PUSH1 0x40 MLOAD DUP1 DUP4 SUB DUP2 DUP7 GAS STATICCALL ISZERO DUP1 ISZERO PUSH2 0x2791 JUMPI RETURNDATASIZE PUSH0 DUP1 RETURNDATACOPY RETURNDATASIZE PUSH0 REVERT JUMPDEST POP POP POP POP PUSH1 0x40 MLOAD RETURNDATASIZE PUSH1 0x1F NOT PUSH1 0x1F DUP3 ADD AND DUP3 ADD DUP1 PUSH1 0x40 MSTORE POP DUP2 ADD SWAP1 PUSH2 0x27B5 SWAP2 SWAP1 PUSH2 0x4564 JUMP JUMPDEST SWAP4 POP SWAP4 POP SWAP4 POP SWAP4 POP PUSH2 0x27C6 DUP5 PUSH2 0x30A7 JUMP JUMPDEST PUSH2 0x2807 JUMPI DUP4 PUSH1 0x40 MLOAD PUSH32 0x95FF727F00000000000000000000000000000000000000000000000000000000 DUP2 MSTORE PUSH1 0x4 ADD PUSH2 0x27FE SWAP2 SWAP1 PUSH2 0x45D7 JUMP JUMPDEST PUSH1 0x40 MLOAD DUP1 SWAP2 SUB SWAP1 REVERT JUMPDEST PUSH1 0xC PUSH0 SWAP1 SLOAD SWAP1 PUSH2 0x100 EXP SWAP1 DIV PUSH4 0xFFFFFFFF AND PUSH4 0xFFFFFFFF AND DUP4 PUSH4 0xFFFFFFFF AND LT DUP1 PUSH2 0x285C JUMPI POP PUSH1 0xC PUSH1 0x8 SWAP1 SLOAD SWAP1 PUSH2 0x100 EXP SWAP1 DIV PUSH4 0xFFFFFFFF AND PUSH4 0xFFFFFFFF AND TIMESTAMP PUSH2 0x2851 SWAP2 SWAP1 PUSH2 0x3D6C JUMP JUMPDEST DUP3 PUSH6 0xFFFFFFFFFFFF AND LT JUMPDEST DUP1 PUSH2 0x2886 JUMPI POP PUSH1 0xC PUSH1 0x4 SWAP1 SLOAD SWAP1 PUSH2 0x100 EXP SWAP1 DIV PUSH4 0xFFFFFFFF AND PUSH4 0xFFFFFFFF AND DUP2 PUSH6 0xFFFFFFFFFFFF AND LT JUMPDEST ISZERO PUSH2 0x28CC JUMPI DUP3 DUP3 DUP3 PUSH1 0x40 MLOAD PUSH32 0x5B93D0DC00000000000000000000000000000000000000000000000000000000 DUP2 MSTORE PUSH1 0x4 ADD PUSH2 0x28C3 SWAP4 SWAP3 SWAP2 SWAP1 PUSH2 0x45F0 JUMP JUMPDEST PUSH1 0x40 MLOAD DUP1 SWAP2 SUB SWAP1 REVERT JUMPDEST PUSH0 DUP14 SWAP1 POP DUP1 PUSH20 0xFFFFFFFFFFFFFFFFFFFFFFFFFFFFFFFFFFFFFFFF AND PUSH32 0xAB14F904FB707B2337015C668E6429CA3170390B1C36260D7739566B9C822A5 PUSH1 0x40 MLOAD PUSH1 0x40 MLOAD DUP1 SWAP2 SUB SWAP1 LOG2 DUP12 PUSH20 0xFFFFFFFFFFFFFFFFFFFFFFFFFFFFFFFFFFFFFFFF AND PUSH4 0x4A9C7CAA DUP15 DUP8 DUP8 DUP8 DUP8 DUP14 DUP9 PUSH1 0x40 MLOAD DUP9 PUSH4 0xFFFFFFFF AND PUSH1 0xE0 SHL DUP2 MSTORE PUSH1 0x4 ADD PUSH2 0x2958 SWAP8 SWAP7 SWAP6 SWAP5 SWAP4 SWAP3 SWAP2 SWAP1 PUSH2 0x4625 JUMP JUMPDEST PUSH0 PUSH1 0x40 MLOAD DUP1 DUP4 SUB DUP2 PUSH0 DUP8 DUP1 EXTCODESIZE ISZERO DUP1 ISZERO PUSH2 0x296F JUMPI PUSH0 DUP1 REVERT JUMPDEST POP GAS CALL ISZERO DUP1 ISZERO PUSH2 0x2981 JUMPI RETURNDATASIZE PUSH0 DUP1 RETURNDATACOPY RETURNDATASIZE PUSH0 REVERT JUMPDEST POP POP POP POP DUP13 PUSH32 0xABF79943A752FAB9EF8890892A82188E44E66A2CD2D8E411AE3EF82475AE49C8 PUSH1 0x40 MLOAD PUSH1 0x40 MLOAD DUP1 SWAP2 SUB SWAP1 LOG2 POP POP POP POP POP POP POP POP POP POP POP POP SWAP5 SWAP4 POP POP POP POP JUMP JUMPDEST TIMESTAMP PUSH32 0x0 PUSH6 0xFFFFFFFFFFFF AND LT ISZERO PUSH2 0x2A70 JUMPI PUSH2 0x29FE PUSH2 0x22F8 JUMP JUMPDEST PUSH20 0xFFFFFFFFFFFFFFFFFFFFFFFFFFFFFFFFFFFFFFFF AND CALLER PUSH20 0xFFFFFFFFFFFFFFFFFFFFFFFFFFFFFFFFFFFFFFFF AND EQ PUSH2 0x2A6B JUMPI PUSH1 0x40 MLOAD PUSH32 0x8C379A000000000000000000000000000000000000000000000000000000000 DUP2 MSTORE PUSH1 0x4 ADD PUSH2 0x2A62 SWAP1 PUSH2 0x3C99 JUMP JUMPDEST PUSH1 0x40 MLOAD DUP1 SWAP2 SUB SWAP1 REVERT JUMPDEST PUSH2 0x2AF7 JUMP JUMPDEST PUSH2 0x2A78 PUSH2 0x16B9 JUMP JUMPDEST PUSH20 0xFFFFFFFFFFFFFFFFFFFFFFFFFFFFFFFFFFFFFFFF AND CALLER PUSH20 0xFFFFFFFFFFFFFFFFFFFFFFFFFFFFFFFFFFFFFFFF AND EQ DUP1 ISZERO PUSH2 0x2AB7 JUMPI POP PUSH2 0x2AB5 PUSH2 0x18A0 JUMP JUMPDEST ISZERO JUMPDEST PUSH2 0x2AF6 JUMPI PUSH1 0x40 MLOAD PUSH32 0x8C379A000000000000000000000000000000000000000000000000000000000 DUP2 MSTORE PUSH1 0x4 ADD PUSH2 0x2AED SWAP1 PUSH2 0x3C99 JUMP JUMPDEST PUSH1 0x40 MLOAD DUP1 SWAP2 SUB SWAP1 REVERT JUMPDEST JUMPDEST PUSH0 DUP2 PUSH20 0xFFFFFFFFFFFFFFFFFFFFFFFFFFFFFFFFFFFFFFFF AND EXTCODESIZE GT ISZERO PUSH2 0x2B9E JUMPI DUP1 PUSH1 0x3 PUSH0 PUSH2 0x100 EXP DUP2 SLOAD DUP2 PUSH20 0xFFFFFFFFFFFFFFFFFFFFFFFFFFFFFFFFFFFFFFFF MUL NOT AND SWAP1 DUP4 PUSH20 0xFFFFFFFFFFFFFFFFFFFFFFFFFFFFFFFFFFFFFFFF AND MUL OR SWAP1 SSTORE POP DUP1 PUSH20 0xFFFFFFFFFFFFFFFFFFFFFFFFFFFFFFFFFFFFFFFF AND PUSH32 0xE8D8E3C7C3EBEC0C177D0FE22D223F8B5071DB39155104808D45027E368BA77A PUSH1 0x40 MLOAD PUSH1 0x40 MLOAD DUP1 SWAP2 SUB SWAP1 LOG2 PUSH2 0x2BDB JUMP JUMPDEST DUP1 PUSH1 0x40 MLOAD PUSH32 0x84DBC6CB00000000000000000000000000000000000000000000000000000000 DUP2 MSTORE PUSH1 0x4 ADD PUSH2 0x2BD2 SWAP2 SWAP1 PUSH2 0x35B5 JUMP JUMPDEST PUSH1 0x40 MLOAD DUP1 SWAP2 SUB SWAP1 REVERT JUMPDEST POP JUMP JUMPDEST PUSH0 SWAP4 SWAP3 POP POP POP JUMP JUMPDEST PUSH0 ADDRESS SWAP1 POP SWAP1 JUMP JUMPDEST PUSH0 PUSH1 0x7 PUSH0 ADD PUSH1 0x14 SWAP1 SLOAD SWAP1 PUSH2 0x100 EXP SWAP1 DIV PUSH1 0xFF AND SWAP1 POP SWAP1 JUMP JUMPDEST PUSH2 0x2C0D PUSH2 0x16B9 JUMP JUMPDEST PUSH20 0xFFFFFFFFFFFFFFFFFFFFFFFFFFFFFFFFFFFFFFFF AND CALLER PUSH20 0xFFFFFFFFFFFFFFFFFFFFFFFFFFFFFFFFFFFFFFFF AND EQ DUP1 ISZERO PUSH2 0x2C4C JUMPI POP PUSH2 0x2C4A PUSH2 0x18A0 JUMP JUMPDEST ISZERO JUMPDEST PUSH2 0x2C8B JUMPI PUSH1 0x40 MLOAD PUSH32 0x8C379A000000000000000000000000000000000000000000000000000000000 DUP2 MSTORE PUSH1 0x4 ADD PUSH2 0x2C82 SWAP1 PUSH2 0x3C99 JUMP JUMPDEST PUSH1 0x40 MLOAD DUP1 SWAP2 SUB SWAP1 REVERT JUMPDEST DUP1 PUSH20 0xFFFFFFFFFFFFFFFFFFFFFFFFFFFFFFFFFFFFFFFF AND PUSH1 0x3 PUSH0 SWAP1 SLOAD SWAP1 PUSH2 0x100 EXP SWAP1 DIV PUSH20 0xFFFFFFFFFFFFFFFFFFFFFFFFFFFFFFFFFFFFFFFF AND PUSH20 0xFFFFFFFFFFFFFFFFFFFFFFFFFFFFFFFFFFFFFFFF AND SUB PUSH2 0x2E0E JUMPI PUSH1 0x3 PUSH0 PUSH2 0x100 EXP DUP2 SLOAD SWAP1 PUSH20 0xFFFFFFFFFFFFFFFFFFFFFFFFFFFFFFFFFFFFFFFF MUL NOT AND SWAP1 SSTORE DUP1 PUSH1 0x8 PUSH0 ADD PUSH0 PUSH2 0x100 EXP DUP2 SLOAD DUP2 PUSH20 0xFFFFFFFFFFFFFFFFFFFFFFFFFFFFFFFFFFFFFFFF MUL NOT AND SWAP1 DUP4 PUSH20 0xFFFFFFFFFFFFFFFFFFFFFFFFFFFFFFFFFFFFFFFF AND MUL OR SWAP1 SSTORE POP PUSH1 0x8 PUSH0 ADD PUSH1 0x15 DUP2 DUP2 SWAP1 SLOAD SWAP1 PUSH2 0x100 EXP SWAP1 DIV PUSH4 0xFFFFFFFF AND DUP1 SWAP3 SWAP2 SWAP1 PUSH2 0x2D69 SWAP1 PUSH2 0x3D41 JUMP JUMPDEST SWAP2 SWAP1 PUSH2 0x100 EXP DUP2 SLOAD DUP2 PUSH4 0xFFFFFFFF MUL NOT AND SWAP1 DUP4 PUSH4 0xFFFFFFFF AND MUL OR SWAP1 SSTORE POP POP PUSH1 0x8 PUSH0 ADD PUSH1 0x15 SWAP1 SLOAD SWAP1 PUSH2 0x100 EXP SWAP1 DIV PUSH4 0xFFFFFFFF AND PUSH4 0xFFFFFFFF AND PUSH1 0x8 PUSH0 ADD PUSH0 SWAP1 SLOAD SWAP1 PUSH2 0x100 EXP SWAP1 DIV PUSH20 0xFFFFFFFFFFFFFFFFFFFFFFFFFFFFFFFFFFFFFFFF AND PUSH20 0xFFFFFFFFFFFFFFFFFFFFFFFFFFFFFFFFFFFFFFFF AND PUSH32 0x5E86008A8467D1EFCCFE6CB6BD49BA7278D6AF2745A1E6994E443322A4237093 PUSH1 0x40 MLOAD PUSH1 0x40 MLOAD DUP1 SWAP2 SUB SWAP1 LOG3 PUSH2 0x2E4B JUMP JUMPDEST DUP1 PUSH1 0x40 MLOAD PUSH32 0x84DBC6CB00000000000000000000000000000000000000000000000000000000 DUP2 MSTORE PUSH1 0x4 ADD PUSH2 0x2E42 SWAP2 SWAP1 PUSH2 0x35B5 JUMP JUMPDEST PUSH1 0x40 MLOAD DUP1 SWAP2 SUB SWAP1 REVERT JUMPDEST POP JUMP JUMPDEST DUP1 PUSH1 0x6 PUSH0 ADD PUSH1 0x14 PUSH2 0x100 EXP DUP2 SLOAD DUP2 PUSH1 0xFF MUL NOT AND SWAP1 DUP4 ISZERO ISZERO MUL OR SWAP1 SSTORE POP POP JUMP JUMPDEST DUP1 PUSH1 0x7 PUSH0 ADD PUSH1 0x14 PUSH2 0x100 EXP DUP2 SLOAD DUP2 PUSH1 0xFF MUL NOT AND SWAP1 DUP4 ISZERO ISZERO MUL OR SWAP1 SSTORE POP POP JUMP JUMPDEST DUP1 PUSH1 0x9 PUSH0 ADD PUSH0 PUSH2 0x100 EXP DUP2 SLOAD DUP2 PUSH20 0xFFFFFFFFFFFFFFFFFFFFFFFFFFFFFFFFFFFFFFFF MUL NOT AND SWAP1 DUP4 PUSH20 0xFFFFFFFFFFFFFFFFFFFFFFFFFFFFFFFFFFFFFFFF AND MUL OR SWAP1 SSTORE POP PUSH1 0x9 PUSH0 ADD PUSH1 0x15 DUP2 DUP2 SWAP1 SLOAD SWAP1 PUSH2 0x100 EXP SWAP1 DIV PUSH4 0xFFFFFFFF AND DUP1 SWAP3 SWAP2 SWAP1 PUSH2 0x2EF2 SWAP1 PUSH2 0x3D41 JUMP JUMPDEST SWAP2 SWAP1 PUSH2 0x100 EXP DUP2 SLOAD DUP2 PUSH4 0xFFFFFFFF MUL NOT AND SWAP1 DUP4 PUSH4 0xFFFFFFFF AND MUL OR SWAP1 SSTORE POP POP PUSH1 0x9 PUSH0 ADD PUSH1 0x15 SWAP1 SLOAD SWAP1 PUSH2 0x100 EXP SWAP1 DIV PUSH4 0xFFFFFFFF AND PUSH4 0xFFFFFFFF AND PUSH1 0x9 PUSH0 ADD PUSH0 SWAP1 SLOAD SWAP1 PUSH2 0x100 EXP SWAP1 DIV PUSH20 0xFFFFFFFFFFFFFFFFFFFFFFFFFFFFFFFFFFFFFFFF AND PUSH20 0xFFFFFFFFFFFFFFFFFFFFFFFFFFFFFFFFFFFFFFFF AND PUSH32 0xF7F7C26682668C39FD8C6DBCA125BD9466E743B9E38ACC3240867C139CD93C30 PUSH1 0x40 MLOAD PUSH1 0x40 MLOAD DUP1 SWAP2 SUB SWAP1 LOG3 POP JUMP JUMPDEST PUSH0 DUP1 DUP3 PUSH1 0x20 ADD MLOAD SWAP1 POP PUSH0 DUP2 SWAP1 POP PUSH0 DUP2 PUSH20 0xFFFFFFFFFFFFFFFFFFFFFFFFFFFFFFFFFFFFFFFF AND PUSH4 0xCFB62DEE PUSH1 0x40 MLOAD DUP2 PUSH4 0xFFFFFFFF AND PUSH1 0xE0 SHL DUP2 MSTORE PUSH1 0x4 ADD PUSH1 0x20 PUSH1 0x40 MLOAD DUP1 DUP4 SUB DUP2 PUSH0 DUP8 GAS CALL ISZERO DUP1 ISZERO PUSH2 0x2FED JUMPI RETURNDATASIZE PUSH0 DUP1 RETURNDATACOPY RETURNDATASIZE PUSH0 REVERT JUMPDEST POP POP POP POP PUSH1 0x40 MLOAD RETURNDATASIZE PUSH1 0x1F NOT PUSH1 0x1F DUP3 ADD AND DUP3 ADD DUP1 PUSH1 0x40 MSTORE POP DUP2 ADD SWAP1 PUSH2 0x3011 SWAP2 SWAP1 PUSH2 0x4692 JUMP JUMPDEST SWAP1 POP DUP1 ISZERO PUSH2 0x3025 JUMPI PUSH1 0x4 SWAP4 POP POP POP POP PUSH2 0x302D JUMP JUMPDEST PUSH1 0x3 SWAP4 POP POP POP POP JUMPDEST SWAP2 SWAP1 POP JUMP JUMPDEST PUSH1 0x60 PUSH2 0x3067 PUSH0 PUSH32 0x0 PUSH2 0x3299 SWAP1 SWAP2 SWAP1 PUSH4 0xFFFFFFFF AND JUMP JUMPDEST SWAP1 POP SWAP1 JUMP JUMPDEST PUSH1 0x60 PUSH2 0x30A2 PUSH1 0x1 PUSH32 0x0 PUSH2 0x3299 SWAP1 SWAP2 SWAP1 PUSH4 0xFFFFFFFF AND JUMP JUMPDEST SWAP1 POP SWAP1 JUMP JUMPDEST PUSH0 DUP1 PUSH1 0xA PUSH0 CALLER PUSH20 0xFFFFFFFFFFFFFFFFFFFFFFFFFFFFFFFFFFFFFFFF AND PUSH20 0xFFFFFFFFFFFFFFFFFFFFFFFFFFFFFFFFFFFFFFFF AND DUP2 MSTORE PUSH1 0x20 ADD SWAP1 DUP2 MSTORE PUSH1 0x20 ADD PUSH0 KECCAK256 PUSH0 SWAP1 SLOAD SWAP1 PUSH2 0x100 EXP SWAP1 DIV PUSH20 0xFFFFFFFFFFFFFFFFFFFFFFFFFFFFFFFFFFFFFFFF AND SWAP1 POP PUSH0 DUP2 PUSH20 0xFFFFFFFFFFFFFFFFFFFFFFFFFFFFFFFFFFFFFFFF AND PUSH4 0xC34FE703 PUSH1 0x40 MLOAD DUP2 PUSH4 0xFFFFFFFF AND PUSH1 0xE0 SHL DUP2 MSTORE PUSH1 0x4 ADD PUSH2 0x3140 SWAP1 PUSH2 0x46E3 JUMP JUMPDEST PUSH2 0x9620 PUSH1 0x40 MLOAD DUP1 DUP4 SUB DUP2 DUP7 GAS STATICCALL ISZERO DUP1 ISZERO PUSH2 0x315C JUMPI RETURNDATASIZE PUSH0 DUP1 RETURNDATACOPY RETURNDATASIZE PUSH0 REVERT JUMPDEST POP POP POP POP PUSH1 0x40 MLOAD RETURNDATASIZE PUSH1 0x1F NOT PUSH1 0x1F DUP3 ADD AND DUP3 ADD DUP1 PUSH1 0x40 MSTORE POP DUP2 ADD SWAP1 PUSH2 0x3180 SWAP2 SWAP1 PUSH2 0x47AD JUMP JUMPDEST SWAP1 POP PUSH0 TIMESTAMP SWAP1 POP PUSH0 PUSH3 0x4F1A00 DUP3 PUSH2 0x3196 SWAP2 SWAP1 PUSH2 0x47D9 JUMP JUMPDEST SWAP1 POP PUSH0 DUP1 PUSH1 0x1 SWAP1 POP JUMPDEST PUSH2 0x4B0 DUP2 PUSH2 0xFFFF AND GT PUSH2 0x322C JUMPI PUSH0 DUP6 DUP3 PUSH2 0xFFFF AND PUSH2 0x4B1 DUP2 LT PUSH2 0x31C5 JUMPI PUSH2 0x31C4 PUSH2 0x480C JUMP JUMPDEST JUMPDEST PUSH1 0x20 MUL ADD MLOAD PUSH6 0xFFFFFFFFFFFF AND SUB ISZERO PUSH2 0x322C JUMPI DUP5 DUP2 PUSH2 0xFFFF AND PUSH2 0x4B1 DUP2 LT PUSH2 0x31F0 JUMPI PUSH2 0x31EF PUSH2 0x480C JUMP JUMPDEST JUMPDEST PUSH1 0x20 MUL ADD MLOAD PUSH6 0xFFFFFFFFFFFF AND DUP4 PUSH6 0xFFFFFFFFFFFF AND LT ISZERO PUSH2 0x3219 JUMPI DUP2 PUSH2 0x3216 SWAP1 PUSH2 0x4839 JUMP JUMPDEST SWAP2 POP JUMPDEST DUP1 DUP1 PUSH2 0x3224 SWAP1 PUSH2 0x4839 JUMP JUMPDEST SWAP2 POP POP PUSH2 0x319F JUMP JUMPDEST PUSH1 0x2 DUP2 PUSH2 0x3239 SWAP2 SWAP1 PUSH2 0x488F JUMP JUMPDEST PUSH2 0xFFFF AND DUP9 PUSH2 0xFFFF AND GT ISZERO PUSH2 0x3257 JUMPI PUSH1 0x1 SWAP7 POP POP POP POP POP POP POP PUSH2 0x3294 JUMP JUMPDEST PUSH1 0x46 PUSH1 0x64 DUP4 DUP11 PUSH2 0x3267 SWAP2 SWAP1 PUSH2 0x488F JUMP JUMPDEST PUSH2 0x3271 SWAP2 SWAP1 PUSH2 0x48BF JUMP JUMPDEST PUSH2 0xFFFF AND GT ISZERO PUSH2 0x328A JUMPI PUSH1 0x1 SWAP7 POP POP POP POP POP POP POP PUSH2 0x3294 JUMP JUMPDEST PUSH0 SWAP7 POP POP POP POP POP POP POP JUMPDEST SWAP2 SWAP1 POP JUMP JUMPDEST PUSH1 0x60 PUSH1 0xFF PUSH0 SHL DUP4 EQ PUSH2 0x32B5 JUMPI PUSH2 0x32AE DUP4 PUSH2 0x3346 JUMP JUMPDEST SWAP1 POP PUSH2 0x3340 JUMP JUMPDEST DUP2 DUP1 SLOAD PUSH2 0x32C1 SWAP1 PUSH2 0x3CE4 JUMP JUMPDEST DUP1 PUSH1 0x1F ADD PUSH1 0x20 DUP1 SWAP2 DIV MUL PUSH1 0x20 ADD PUSH1 0x40 MLOAD SWAP1 DUP2 ADD PUSH1 0x40 MSTORE DUP1 SWAP3 SWAP2 SWAP1 DUP2 DUP2 MSTORE PUSH1 0x20 ADD DUP3 DUP1 SLOAD PUSH2 0x32ED SWAP1 PUSH2 0x3CE4 JUMP JUMPDEST DUP1 ISZERO PUSH2 0x3338 JUMPI DUP1 PUSH1 0x1F LT PUSH2 0x330F JUMPI PUSH2 0x100 DUP1 DUP4 SLOAD DIV MUL DUP4 MSTORE SWAP2 PUSH1 0x20 ADD SWAP2 PUSH2 0x3338 JUMP JUMPDEST DUP3 ADD SWAP2 SWAP1 PUSH0 MSTORE PUSH1 0x20 PUSH0 KECCAK256 SWAP1 JUMPDEST DUP2 SLOAD DUP2 MSTORE SWAP1 PUSH1 0x1 ADD SWAP1 PUSH1 0x20 ADD DUP1 DUP4 GT PUSH2 0x331B JUMPI DUP3 SWAP1 SUB PUSH1 0x1F AND DUP3 ADD SWAP2 JUMPDEST POP POP POP POP POP SWAP1 POP JUMPDEST SWAP3 SWAP2 POP POP JUMP JUMPDEST PUSH1 0x60 PUSH0 PUSH2 0x3352 DUP4 PUSH2 0x33B8 JUMP JUMPDEST SWAP1 POP PUSH0 PUSH1 0x20 PUSH8 0xFFFFFFFFFFFFFFFF DUP2 GT ISZERO PUSH2 0x3370 JUMPI PUSH2 0x336F PUSH2 0x3609 JUMP JUMPDEST JUMPDEST PUSH1 0x40 MLOAD SWAP1 DUP1 DUP3 MSTORE DUP1 PUSH1 0x1F ADD PUSH1 0x1F NOT AND PUSH1 0x20 ADD DUP3 ADD PUSH1 0x40 MSTORE DUP1 ISZERO PUSH2 0x33A2 JUMPI DUP2 PUSH1 0x20 ADD PUSH1 0x1 DUP3 MUL DUP1 CALLDATASIZE DUP4 CALLDATACOPY DUP1 DUP3 ADD SWAP2 POP POP SWAP1 POP JUMPDEST POP SWAP1 POP DUP2 DUP2 MSTORE DUP4 PUSH1 0x20 DUP3 ADD MSTORE DUP1 SWAP3 POP POP POP SWAP2 SWAP1 POP JUMP JUMPDEST PUSH0 DUP1 PUSH1 0xFF DUP4 PUSH0 SHR AND SWAP1 POP PUSH1 0x1F DUP2 GT ISZERO PUSH2 0x33FD JUMPI PUSH1 0x40 MLOAD PUSH32 0xB3512B0C00000000000000000000000000000000000000000000000000000000 DUP2 MSTORE PUSH1 0x4 ADD PUSH1 0x40 MLOAD DUP1 SWAP2 SUB SWAP1 REVERT JUMPDEST DUP1 SWAP2 POP POP SWAP2 SWAP1 POP JUMP JUMPDEST PUSH0 PUSH1 0x40 MLOAD SWAP1 POP SWAP1 JUMP JUMPDEST PUSH0 DUP1 REVERT JUMPDEST PUSH0 DUP1 REVERT JUMPDEST PUSH0 PUSH20 0xFFFFFFFFFFFFFFFFFFFFFFFFFFFFFFFFFFFFFFFF DUP3 AND SWAP1 POP SWAP2 SWAP1 POP JUMP JUMPDEST PUSH0 PUSH2 0x3440 DUP3 PUSH2 0x3417 JUMP JUMPDEST SWAP1 POP SWAP2 SWAP1 POP JUMP JUMPDEST PUSH2 0x3450 DUP2 PUSH2 0x3436 JUMP JUMPDEST DUP2 EQ PUSH2 0x345A JUMPI PUSH0 DUP1 REVERT JUMPDEST POP JUMP JUMPDEST PUSH0 DUP2 CALLDATALOAD SWAP1 POP PUSH2 0x346B DUP2 PUSH2 0x3447 JUMP JUMPDEST SWAP3 SWAP2 POP POP JUMP JUMPDEST PUSH0 PUSH1 0x20 DUP3 DUP5 SUB SLT ISZERO PUSH2 0x3486 JUMPI PUSH2 0x3485 PUSH2 0x340F JUMP JUMPDEST JUMPDEST PUSH0 PUSH2 0x3493 DUP5 DUP3 DUP6 ADD PUSH2 0x345D JUMP JUMPDEST SWAP2 POP POP SWAP3 SWAP2 POP POP JUMP JUMPDEST PUSH0 DUP2 ISZERO ISZERO SWAP1 POP SWAP2 SWAP1 POP JUMP JUMPDEST PUSH2 0x34B0 DUP2 PUSH2 0x349C JUMP JUMPDEST DUP2 EQ PUSH2 0x34BA JUMPI PUSH0 DUP1 REVERT JUMPDEST POP JUMP JUMPDEST PUSH0 DUP2 CALLDATALOAD SWAP1 POP PUSH2 0x34CB DUP2 PUSH2 0x34A7 JUMP JUMPDEST SWAP3 SWAP2 POP POP JUMP JUMPDEST PUSH0 PUSH1 0x20 DUP3 DUP5 SUB SLT ISZERO PUSH2 0x34E6 JUMPI PUSH2 0x34E5 PUSH2 0x340F JUMP JUMPDEST JUMPDEST PUSH0 PUSH2 0x34F3 DUP5 DUP3 DUP6 ADD PUSH2 0x34BD JUMP JUMPDEST SWAP2 POP POP SWAP3 SWAP2 POP POP JUMP JUMPDEST PUSH0 DUP2 MLOAD SWAP1 POP SWAP2 SWAP1 POP JUMP JUMPDEST PUSH0 DUP3 DUP3 MSTORE PUSH1 0x20 DUP3 ADD SWAP1 POP SWAP3 SWAP2 POP POP JUMP JUMPDEST PUSH0 JUMPDEST DUP4 DUP2 LT ISZERO PUSH2 0x3533 JUMPI DUP1 DUP3 ADD MLOAD DUP2 DUP5 ADD MSTORE PUSH1 0x20 DUP2 ADD SWAP1 POP PUSH2 0x3518 JUMP JUMPDEST PUSH0 DUP5 DUP5 ADD MSTORE POP POP POP POP JUMP JUMPDEST PUSH0 PUSH1 0x1F NOT PUSH1 0x1F DUP4 ADD AND SWAP1 POP SWAP2 SWAP1 POP JUMP JUMPDEST PUSH0 PUSH2 0x3558 DUP3 PUSH2 0x34FC JUMP JUMPDEST PUSH2 0x3562 DUP2 DUP6 PUSH2 0x3506 JUMP JUMPDEST SWAP4 POP PUSH2 0x3572 DUP2 DUP6 PUSH1 0x20 DUP7 ADD PUSH2 0x3516 JUMP JUMPDEST PUSH2 0x357B DUP2 PUSH2 0x353E JUMP JUMPDEST DUP5 ADD SWAP2 POP POP SWAP3 SWAP2 POP POP JUMP JUMPDEST PUSH0 PUSH1 0x20 DUP3 ADD SWAP1 POP DUP2 DUP2 SUB PUSH0 DUP4 ADD MSTORE PUSH2 0x359E DUP2 DUP5 PUSH2 0x354E JUMP JUMPDEST SWAP1 POP SWAP3 SWAP2 POP POP JUMP JUMPDEST PUSH2 0x35AF DUP2 PUSH2 0x3436 JUMP JUMPDEST DUP3 MSTORE POP POP JUMP JUMPDEST PUSH0 PUSH1 0x20 DUP3 ADD SWAP1 POP PUSH2 0x35C8 PUSH0 DUP4 ADD DUP5 PUSH2 0x35A6 JUMP JUMPDEST SWAP3 SWAP2 POP POP JUMP JUMPDEST PUSH0 DUP2 SWAP1 POP SWAP2 SWAP1 POP JUMP JUMPDEST PUSH2 0x35E0 DUP2 PUSH2 0x35CE JUMP JUMPDEST DUP2 EQ PUSH2 0x35EA JUMPI PUSH0 DUP1 REVERT JUMPDEST POP JUMP JUMPDEST PUSH0 DUP2 CALLDATALOAD SWAP1 POP PUSH2 0x35FB DUP2 PUSH2 0x35D7 JUMP JUMPDEST SWAP3 SWAP2 POP POP JUMP JUMPDEST PUSH0 DUP1 REVERT JUMPDEST PUSH0 DUP1 REVERT JUMPDEST PUSH32 0x4E487B7100000000000000000000000000000000000000000000000000000000 PUSH0 MSTORE PUSH1 0x41 PUSH1 0x4 MSTORE PUSH1 0x24 PUSH0 REVERT JUMPDEST PUSH2 0x363F DUP3 PUSH2 0x353E JUMP JUMPDEST DUP2 ADD DUP2 DUP2 LT PUSH8 0xFFFFFFFFFFFFFFFF DUP3 GT OR ISZERO PUSH2 0x365E JUMPI PUSH2 0x365D PUSH2 0x3609 JUMP JUMPDEST JUMPDEST DUP1 PUSH1 0x40 MSTORE POP POP POP JUMP JUMPDEST PUSH0 PUSH2 0x3670 PUSH2 0x3406 JUMP JUMPDEST SWAP1 POP PUSH2 0x367C DUP3 DUP3 PUSH2 0x3636 JUMP JUMPDEST SWAP2 SWAP1 POP JUMP JUMPDEST PUSH0 PUSH8 0xFFFFFFFFFFFFFFFF DUP3 GT ISZERO PUSH2 0x369B JUMPI PUSH2 0x369A PUSH2 0x3609 JUMP JUMPDEST JUMPDEST PUSH2 0x36A4 DUP3 PUSH2 0x353E JUMP JUMPDEST SWAP1 POP PUSH1 0x20 DUP2 ADD SWAP1 POP SWAP2 SWAP1 POP JUMP JUMPDEST DUP3 DUP2 DUP4 CALLDATACOPY PUSH0 DUP4 DUP4 ADD MSTORE POP POP POP JUMP JUMPDEST PUSH0 PUSH2 0x36D1 PUSH2 0x36CC DUP5 PUSH2 0x3681 JUMP JUMPDEST PUSH2 0x3667 JUMP JUMPDEST SWAP1 POP DUP3 DUP2 MSTORE PUSH1 0x20 DUP2 ADD DUP5 DUP5 DUP5 ADD GT ISZERO PUSH2 0x36ED JUMPI PUSH2 0x36EC PUSH2 0x3605 JUMP JUMPDEST JUMPDEST PUSH2 0x36F8 DUP5 DUP3 DUP6 PUSH2 0x36B1 JUMP JUMPDEST POP SWAP4 SWAP3 POP POP POP JUMP JUMPDEST PUSH0 DUP3 PUSH1 0x1F DUP4 ADD SLT PUSH2 0x3714 JUMPI PUSH2 0x3713 PUSH2 0x3601 JUMP JUMPDEST JUMPDEST DUP2 CALLDATALOAD PUSH2 0x3724 DUP5 DUP3 PUSH1 0x20 DUP7 ADD PUSH2 0x36BF JUMP JUMPDEST SWAP2 POP POP SWAP3 SWAP2 POP POP JUMP JUMPDEST PUSH0 DUP2 SWAP1 POP SWAP2 SWAP1 POP JUMP JUMPDEST PUSH2 0x373F DUP2 PUSH2 0x372D JUMP JUMPDEST DUP2 EQ PUSH2 0x3749 JUMPI PUSH0 DUP1 REVERT JUMPDEST POP JUMP JUMPDEST PUSH0 DUP2 CALLDATALOAD SWAP1 POP PUSH2 0x375A DUP2 PUSH2 0x3736 JUMP JUMPDEST SWAP3 SWAP2 POP POP JUMP JUMPDEST PUSH0 DUP1 PUSH0 DUP1 PUSH1 0x80 DUP6 DUP8 SUB SLT ISZERO PUSH2 0x3778 JUMPI PUSH2 0x3777 PUSH2 0x340F JUMP JUMPDEST JUMPDEST PUSH0 PUSH2 0x3785 DUP8 DUP3 DUP9 ADD PUSH2 0x345D JUMP JUMPDEST SWAP5 POP POP PUSH1 0x20 PUSH2 0x3796 DUP8 DUP3 DUP9 ADD PUSH2 0x35ED JUMP JUMPDEST SWAP4 POP POP PUSH1 0x40 DUP6 ADD CALLDATALOAD PUSH8 0xFFFFFFFFFFFFFFFF DUP2 GT ISZERO PUSH2 0x37B7 JUMPI PUSH2 0x37B6 PUSH2 0x3413 JUMP JUMPDEST JUMPDEST PUSH2 0x37C3 DUP8 DUP3 DUP9 ADD PUSH2 0x3700 JUMP JUMPDEST SWAP3 POP POP PUSH1 0x60 PUSH2 0x37D4 DUP8 DUP3 DUP9 ADD PUSH2 0x374C JUMP JUMPDEST SWAP2 POP POP SWAP3 SWAP6 SWAP2 SWAP5 POP SWAP3 POP JUMP JUMPDEST PUSH2 0x37E9 DUP2 PUSH2 0x35CE JUMP JUMPDEST DUP3 MSTORE POP POP JUMP JUMPDEST PUSH0 PUSH1 0x20 DUP3 ADD SWAP1 POP PUSH2 0x3802 PUSH0 DUP4 ADD DUP5 PUSH2 0x37E0 JUMP JUMPDEST SWAP3 SWAP2 POP POP JUMP JUMPDEST PUSH2 0x3811 DUP2 PUSH2 0x349C JUMP JUMPDEST DUP3 MSTORE POP POP JUMP JUMPDEST PUSH0 PUSH1 0x20 DUP3 ADD SWAP1 POP PUSH2 0x382A PUSH0 DUP4 ADD DUP5 PUSH2 0x3808 JUMP JUMPDEST SWAP3 SWAP2 POP POP JUMP JUMPDEST PUSH0 DUP1 PUSH1 0x40 DUP4 DUP6 SUB SLT ISZERO PUSH2 0x3846 JUMPI PUSH2 0x3845 PUSH2 0x340F JUMP JUMPDEST JUMPDEST PUSH0 PUSH2 0x3853 DUP6 DUP3 DUP7 ADD PUSH2 0x345D JUMP JUMPDEST SWAP3 POP POP PUSH1 0x20 PUSH2 0x3864 DUP6 DUP3 DUP7 ADD PUSH2 0x345D JUMP JUMPDEST SWAP2 POP POP SWAP3 POP SWAP3 SWAP1 POP JUMP JUMPDEST PUSH0 PUSH1 0x20 DUP3 DUP5 SUB SLT ISZERO PUSH2 0x3883 JUMPI PUSH2 0x3882 PUSH2 0x340F JUMP JUMPDEST JUMPDEST PUSH0 PUSH2 0x3890 DUP5 DUP3 DUP6 ADD PUSH2 0x35ED JUMP JUMPDEST SWAP2 POP POP SWAP3 SWAP2 POP POP JUMP JUMPDEST PUSH32 0x4E487B7100000000000000000000000000000000000000000000000000000000 PUSH0 MSTORE PUSH1 0x21 PUSH1 0x4 MSTORE PUSH1 0x24 PUSH0 REVERT JUMPDEST PUSH1 0x6 DUP2 LT PUSH2 0x38D7 JUMPI PUSH2 0x38D6 PUSH2 0x3899 JUMP JUMPDEST JUMPDEST POP JUMP JUMPDEST PUSH0 DUP2 SWAP1 POP PUSH2 0x38E7 DUP3 PUSH2 0x38C6 JUMP JUMPDEST SWAP2 SWAP1 POP JUMP JUMPDEST PUSH0 PUSH2 0x38F6 DUP3 PUSH2 0x38DA JUMP JUMPDEST SWAP1 POP SWAP2 SWAP1 POP JUMP JUMPDEST PUSH2 0x3906 DUP2 PUSH2 0x38EC JUMP JUMPDEST DUP3 MSTORE POP POP JUMP JUMPDEST PUSH0 PUSH1 0x20 DUP3 ADD SWAP1 POP PUSH2 0x391F PUSH0 DUP4 ADD DUP5 PUSH2 0x38FD JUMP JUMPDEST SWAP3 SWAP2 POP POP JUMP JUMPDEST PUSH0 PUSH4 0xFFFFFFFF DUP3 AND SWAP1 POP SWAP2 SWAP1 POP JUMP JUMPDEST PUSH2 0x393D DUP2 PUSH2 0x3925 JUMP JUMPDEST DUP2 EQ PUSH2 0x3947 JUMPI PUSH0 DUP1 REVERT JUMPDEST POP JUMP JUMPDEST PUSH0 DUP2 CALLDATALOAD SWAP1 POP PUSH2 0x3958 DUP2 PUSH2 0x3934 JUMP JUMPDEST SWAP3 SWAP2 POP POP JUMP JUMPDEST PUSH0 DUP1 PUSH1 0x40 DUP4 DUP6 SUB SLT ISZERO PUSH2 0x3974 JUMPI PUSH2 0x3973 PUSH2 0x340F JUMP JUMPDEST JUMPDEST PUSH0 PUSH2 0x3981 DUP6 DUP3 DUP7 ADD PUSH2 0x394A JUMP JUMPDEST SWAP3 POP POP PUSH1 0x20 PUSH2 0x3992 DUP6 DUP3 DUP7 ADD PUSH2 0x374C JUMP JUMPDEST SWAP2 POP POP SWAP3 POP SWAP3 SWAP1 POP JUMP JUMPDEST PUSH0 PUSH32 0xFF00000000000000000000000000000000000000000000000000000000000000 DUP3 AND SWAP1 POP SWAP2 SWAP1 POP JUMP JUMPDEST PUSH2 0x39D0 DUP2 PUSH2 0x399C JUMP JUMPDEST DUP3 MSTORE POP POP JUMP JUMPDEST PUSH2 0x39DF DUP2 PUSH2 0x372D JUMP JUMPDEST DUP3 MSTORE POP POP JUMP JUMPDEST PUSH0 DUP2 MLOAD SWAP1 POP SWAP2 SWAP1 POP JUMP JUMPDEST PUSH0 DUP3 DUP3 MSTORE PUSH1 0x20 DUP3 ADD SWAP1 POP SWAP3 SWAP2 POP POP JUMP JUMPDEST PUSH0 DUP2 SWAP1 POP PUSH1 0x20 DUP3 ADD SWAP1 POP SWAP2 SWAP1 POP JUMP JUMPDEST PUSH2 0x3A17 DUP2 PUSH2 0x35CE JUMP JUMPDEST DUP3 MSTORE POP POP JUMP JUMPDEST PUSH0 PUSH2 0x3A28 DUP4 DUP4 PUSH2 0x3A0E JUMP JUMPDEST PUSH1 0x20 DUP4 ADD SWAP1 POP SWAP3 SWAP2 POP POP JUMP JUMPDEST PUSH0 PUSH1 0x20 DUP3 ADD SWAP1 POP SWAP2 SWAP1 POP JUMP JUMPDEST PUSH0 PUSH2 0x3A4A DUP3 PUSH2 0x39E5 JUMP JUMPDEST PUSH2 0x3A54 DUP2 DUP6 PUSH2 0x39EF JUMP JUMPDEST SWAP4 POP PUSH2 0x3A5F DUP4 PUSH2 0x39FF JUMP JUMPDEST DUP1 PUSH0 JUMPDEST DUP4 DUP2 LT ISZERO PUSH2 0x3A8F JUMPI DUP2 MLOAD PUSH2 0x3A76 DUP9 DUP3 PUSH2 0x3A1D JUMP JUMPDEST SWAP8 POP PUSH2 0x3A81 DUP4 PUSH2 0x3A34 JUMP JUMPDEST SWAP3 POP POP PUSH1 0x1 DUP2 ADD SWAP1 POP PUSH2 0x3A62 JUMP JUMPDEST POP DUP6 SWAP4 POP POP POP POP SWAP3 SWAP2 POP POP JUMP JUMPDEST PUSH0 PUSH1 0xE0 DUP3 ADD SWAP1 POP PUSH2 0x3AAF PUSH0 DUP4 ADD DUP11 PUSH2 0x39C7 JUMP JUMPDEST DUP2 DUP2 SUB PUSH1 0x20 DUP4 ADD MSTORE PUSH2 0x3AC1 DUP2 DUP10 PUSH2 0x354E JUMP JUMPDEST SWAP1 POP DUP2 DUP2 SUB PUSH1 0x40 DUP4 ADD MSTORE PUSH2 0x3AD5 DUP2 DUP9 PUSH2 0x354E JUMP JUMPDEST SWAP1 POP PUSH2 0x3AE4 PUSH1 0x60 DUP4 ADD DUP8 PUSH2 0x37E0 JUMP JUMPDEST PUSH2 0x3AF1 PUSH1 0x80 DUP4 ADD DUP7 PUSH2 0x35A6 JUMP JUMPDEST PUSH2 0x3AFE PUSH1 0xA0 DUP4 ADD DUP6 PUSH2 0x39D6 JUMP JUMPDEST DUP2 DUP2 SUB PUSH1 0xC0 DUP4 ADD MSTORE PUSH2 0x3B10 DUP2 DUP5 PUSH2 0x3A40 JUMP JUMPDEST SWAP1 POP SWAP9 SWAP8 POP POP POP POP POP POP POP POP JUMP JUMPDEST PUSH2 0x3B27 DUP2 PUSH2 0x3925 JUMP JUMPDEST DUP3 MSTORE POP POP JUMP JUMPDEST PUSH0 PUSH1 0x20 DUP3 ADD SWAP1 POP PUSH2 0x3B40 PUSH0 DUP4 ADD DUP5 PUSH2 0x3B1E JUMP JUMPDEST SWAP3 SWAP2 POP POP JUMP JUMPDEST PUSH0 DUP1 PUSH0 DUP1 PUSH1 0x80 DUP6 DUP8 SUB SLT ISZERO PUSH2 0x3B5E JUMPI PUSH2 0x3B5D PUSH2 0x340F JUMP JUMPDEST JUMPDEST PUSH0 PUSH2 0x3B6B DUP8 DUP3 DUP9 ADD PUSH2 0x35ED JUMP JUMPDEST SWAP5 POP POP PUSH1 0x20 PUSH2 0x3B7C DUP8 DUP3 DUP9 ADD PUSH2 0x345D JUMP JUMPDEST SWAP4 POP POP PUSH1 0x40 PUSH2 0x3B8D DUP8 DUP3 DUP9 ADD PUSH2 0x345D JUMP JUMPDEST SWAP3 POP POP PUSH1 0x60 PUSH2 0x3B9E DUP8 DUP3 DUP9 ADD PUSH2 0x345D JUMP JUMPDEST SWAP2 POP POP SWAP3 SWAP6 SWAP2 SWAP5 POP SWAP3 POP JUMP JUMPDEST PUSH0 PUSH32 0xFFFFFFFF00000000000000000000000000000000000000000000000000000000 DUP3 AND SWAP1 POP SWAP2 SWAP1 POP JUMP JUMPDEST PUSH2 0x3BDE DUP2 PUSH2 0x3BAA JUMP JUMPDEST DUP2 EQ PUSH2 0x3BE8 JUMPI PUSH0 DUP1 REVERT JUMPDEST POP JUMP JUMPDEST PUSH0 DUP2 CALLDATALOAD SWAP1 POP PUSH2 0x3BF9 DUP2 PUSH2 0x3BD5 JUMP JUMPDEST SWAP3 SWAP2 POP POP JUMP JUMPDEST PUSH0 DUP1 PUSH0 PUSH1 0x60 DUP5 DUP7 SUB SLT ISZERO PUSH2 0x3C16 JUMPI PUSH2 0x3C15 PUSH2 0x340F JUMP JUMPDEST JUMPDEST PUSH0 PUSH2 0x3C23 DUP7 DUP3 DUP8 ADD PUSH2 0x345D JUMP JUMPDEST SWAP4 POP POP PUSH1 0x20 PUSH2 0x3C34 DUP7 DUP3 DUP8 ADD PUSH2 0x345D JUMP JUMPDEST SWAP3 POP POP PUSH1 0x40 PUSH2 0x3C45 DUP7 DUP3 DUP8 ADD PUSH2 0x3BEB JUMP JUMPDEST SWAP2 POP POP SWAP3 POP SWAP3 POP SWAP3 JUMP JUMPDEST PUSH32 0x416363657373206973206E6F742076616C696400000000000000000000000000 PUSH0 DUP3 ADD MSTORE POP JUMP JUMPDEST PUSH0 PUSH2 0x3C83 PUSH1 0x13 DUP4 PUSH2 0x3506 JUMP JUMPDEST SWAP2 POP PUSH2 0x3C8E DUP3 PUSH2 0x3C4F JUMP JUMPDEST PUSH1 0x20 DUP3 ADD SWAP1 POP SWAP2 SWAP1 POP JUMP JUMPDEST PUSH0 PUSH1 0x20 DUP3 ADD SWAP1 POP DUP2 DUP2 SUB PUSH0 DUP4 ADD MSTORE PUSH2 0x3CB0 DUP2 PUSH2 0x3C77 JUMP JUMPDEST SWAP1 POP SWAP2 SWAP1 POP JUMP JUMPDEST PUSH32 0x4E487B7100000000000000000000000000000000000000000000000000000000 PUSH0 MSTORE PUSH1 0x22 PUSH1 0x4 MSTORE PUSH1 0x24 PUSH0 REVERT JUMPDEST PUSH0 PUSH1 0x2 DUP3 DIV SWAP1 POP PUSH1 0x1 DUP3 AND DUP1 PUSH2 0x3CFB JUMPI PUSH1 0x7F DUP3 AND SWAP2 POP JUMPDEST PUSH1 0x20 DUP3 LT DUP2 SUB PUSH2 0x3D0E JUMPI PUSH2 0x3D0D PUSH2 0x3CB7 JUMP JUMPDEST JUMPDEST POP SWAP2 SWAP1 POP JUMP JUMPDEST PUSH32 0x4E487B7100000000000000000000000000000000000000000000000000000000 PUSH0 MSTORE PUSH1 0x11 PUSH1 0x4 MSTORE PUSH1 0x24 PUSH0 REVERT JUMPDEST PUSH0 PUSH2 0x3D4B DUP3 PUSH2 0x3925 JUMP JUMPDEST SWAP2 POP PUSH4 0xFFFFFFFF DUP3 SUB PUSH2 0x3D61 JUMPI PUSH2 0x3D60 PUSH2 0x3D14 JUMP JUMPDEST JUMPDEST PUSH1 0x1 DUP3 ADD SWAP1 POP SWAP2 SWAP1 POP JUMP JUMPDEST PUSH0 PUSH2 0x3D76 DUP3 PUSH2 0x35CE JUMP JUMPDEST SWAP2 POP PUSH2 0x3D81 DUP4 PUSH2 0x35CE JUMP JUMPDEST SWAP3 POP DUP3 DUP3 ADD SWAP1 POP DUP1 DUP3 GT ISZERO PUSH2 0x3D99 JUMPI PUSH2 0x3D98 PUSH2 0x3D14 JUMP JUMPDEST JUMPDEST SWAP3 SWAP2 POP POP JUMP JUMPDEST PUSH0 DUP2 MLOAD SWAP1 POP SWAP2 SWAP1 POP JUMP JUMPDEST PUSH0 DUP3 DUP3 MSTORE PUSH1 0x20 DUP3 ADD SWAP1 POP SWAP3 SWAP2 POP POP JUMP JUMPDEST PUSH0 PUSH2 0x3DC3 DUP3 PUSH2 0x3D9F JUMP JUMPDEST PUSH2 0x3DCD DUP2 DUP6 PUSH2 0x3DA9 JUMP JUMPDEST SWAP4 POP PUSH2 0x3DDD DUP2 DUP6 PUSH1 0x20 DUP7 ADD PUSH2 0x3516 JUMP JUMPDEST PUSH2 0x3DE6 DUP2 PUSH2 0x353E JUMP JUMPDEST DUP5 ADD SWAP2 POP POP SWAP3 SWAP2 POP POP JUMP JUMPDEST PUSH0 PUSH1 0x80 DUP3 ADD SWAP1 POP PUSH2 0x3E04 PUSH0 DUP4 ADD DUP8 PUSH2 0x35A6 JUMP JUMPDEST PUSH2 0x3E11 PUSH1 0x20 DUP4 ADD DUP7 PUSH2 0x37E0 JUMP JUMPDEST DUP2 DUP2 SUB PUSH1 0x40 DUP4 ADD MSTORE PUSH2 0x3E23 DUP2 DUP6 PUSH2 0x3DB9 JUMP JUMPDEST SWAP1 POP PUSH2 0x3E32 PUSH1 0x60 DUP4 ADD DUP5 PUSH2 0x39D6 JUMP JUMPDEST SWAP6 SWAP5 POP POP POP POP POP JUMP JUMPDEST PUSH0 DUP1 REVERT JUMPDEST PUSH0 DUP2 MLOAD SWAP1 POP PUSH2 0x3E4D DUP2 PUSH2 0x3447 JUMP JUMPDEST SWAP3 SWAP2 POP POP JUMP JUMPDEST PUSH0 PUSH2 0xFFFF DUP3 AND SWAP1 POP SWAP2 SWAP1 POP JUMP JUMPDEST PUSH2 0x3E69 DUP2 PUSH2 0x3E53 JUMP JUMPDEST DUP2 EQ PUSH2 0x3E73 JUMPI PUSH0 DUP1 REVERT JUMPDEST POP JUMP JUMPDEST PUSH0 DUP2 MLOAD SWAP1 POP PUSH2 0x3E84 DUP2 PUSH2 0x3E60 JUMP JUMPDEST SWAP3 SWAP2 POP POP JUMP JUMPDEST PUSH0 DUP2 MLOAD SWAP1 POP PUSH2 0x3E98 DUP2 PUSH2 0x3934 JUMP JUMPDEST SWAP3 SWAP2 POP POP JUMP JUMPDEST PUSH0 PUSH6 0xFFFFFFFFFFFF DUP3 AND SWAP1 POP SWAP2 SWAP1 POP JUMP JUMPDEST PUSH2 0x3EB8 DUP2 PUSH2 0x3E9E JUMP JUMPDEST DUP2 EQ PUSH2 0x3EC2 JUMPI PUSH0 DUP1 REVERT JUMPDEST POP JUMP JUMPDEST PUSH0 DUP2 MLOAD SWAP1 POP PUSH2 0x3ED3 DUP2 PUSH2 0x3EAF JUMP JUMPDEST SWAP3 SWAP2 POP POP JUMP JUMPDEST PUSH0 DUP2 MLOAD SWAP1 POP PUSH2 0x3EE7 DUP2 PUSH2 0x34A7 JUMP JUMPDEST SWAP3 SWAP2 POP POP JUMP JUMPDEST PUSH0 PUSH2 0x140 DUP3 DUP5 SUB SLT ISZERO PUSH2 0x3F03 JUMPI PUSH2 0x3F02 PUSH2 0x3E3B JUMP JUMPDEST JUMPDEST PUSH2 0x3F0E PUSH2 0x140 PUSH2 0x3667 JUMP JUMPDEST SWAP1 POP PUSH0 PUSH2 0x3F1D DUP5 DUP3 DUP6 ADD PUSH2 0x3E3F JUMP JUMPDEST PUSH0 DUP4 ADD MSTORE POP PUSH1 0x20 PUSH2 0x3F30 DUP5 DUP3 DUP6 ADD PUSH2 0x3E3F JUMP JUMPDEST PUSH1 0x20 DUP4 ADD MSTORE POP PUSH1 0x40 PUSH2 0x3F44 DUP5 DUP3 DUP6 ADD PUSH2 0x3E76 JUMP JUMPDEST PUSH1 0x40 DUP4 ADD MSTORE POP PUSH1 0x60 PUSH2 0x3F58 DUP5 DUP3 DUP6 ADD PUSH2 0x3E8A JUMP JUMPDEST PUSH1 0x60 DUP4 ADD MSTORE POP PUSH1 0x80 PUSH2 0x3F6C DUP5 DUP3 DUP6 ADD PUSH2 0x3EC5 JUMP JUMPDEST PUSH1 0x80 DUP4 ADD MSTORE POP PUSH1 0xA0 PUSH2 0x3F80 DUP5 DUP3 DUP6 ADD PUSH2 0x3EC5 JUMP JUMPDEST PUSH1 0xA0 DUP4 ADD MSTORE POP PUSH1 0xC0 PUSH2 0x3F94 DUP5 DUP3 DUP6 ADD PUSH2 0x3ED9 JUMP JUMPDEST PUSH1 0xC0 DUP4 ADD MSTORE POP PUSH1 0xE0 PUSH2 0x3FA8 DUP5 DUP3 DUP6 ADD PUSH2 0x3ED9 JUMP JUMPDEST PUSH1 0xE0 DUP4 ADD MSTORE POP PUSH2 0x100 PUSH2 0x3FBD DUP5 DUP3 DUP6 ADD PUSH2 0x3ED9 JUMP JUMPDEST PUSH2 0x100 DUP4 ADD MSTORE POP PUSH2 0x120 PUSH2 0x3FD3 DUP5 DUP3 DUP6 ADD PUSH2 0x3ED9 JUMP JUMPDEST PUSH2 0x120 DUP4 ADD MSTORE POP SWAP3 SWAP2 POP POP JUMP JUMPDEST PUSH0 PUSH2 0x140 DUP3 DUP5 SUB SLT ISZERO PUSH2 0x3FF6 JUMPI PUSH2 0x3FF5 PUSH2 0x340F JUMP JUMPDEST JUMPDEST PUSH0 PUSH2 0x4003 DUP5 DUP3 DUP6 ADD PUSH2 0x3EED JUMP JUMPDEST SWAP2 POP POP SWAP3 SWAP2 POP POP JUMP JUMPDEST PUSH0 DUP2 MLOAD SWAP1 POP PUSH2 0x401A DUP2 PUSH2 0x35D7 JUMP JUMPDEST SWAP3 SWAP2 POP POP JUMP JUMPDEST PUSH0 PUSH1 0x20 DUP3 DUP5 SUB SLT ISZERO PUSH2 0x4035 JUMPI PUSH2 0x4034 PUSH2 0x340F JUMP JUMPDEST JUMPDEST PUSH0 PUSH2 0x4042 DUP5 DUP3 DUP6 ADD PUSH2 0x400C JUMP JUMPDEST SWAP2 POP POP SWAP3 SWAP2 POP POP JUMP JUMPDEST PUSH0 PUSH1 0x40 DUP3 ADD SWAP1 POP PUSH2 0x405E PUSH0 DUP4 ADD DUP6 PUSH2 0x37E0 JUMP JUMPDEST PUSH2 0x406B PUSH1 0x20 DUP4 ADD DUP5 PUSH2 0x37E0 JUMP JUMPDEST SWAP4 SWAP3 POP POP POP JUMP JUMPDEST PUSH0 DUP2 SWAP1 POP SWAP2 SWAP1 POP JUMP JUMPDEST PUSH2 0x408C PUSH2 0x4087 DUP3 PUSH2 0x372D JUMP JUMPDEST PUSH2 0x4072 JUMP JUMPDEST DUP3 MSTORE POP POP JUMP JUMPDEST PUSH0 PUSH2 0x409D DUP3 DUP5 PUSH2 0x407B JUMP JUMPDEST PUSH1 0x20 DUP3 ADD SWAP2 POP DUP2 SWAP1 POP SWAP3 SWAP2 POP POP JUMP JUMPDEST PUSH0 DUP2 SWAP1 POP SWAP3 SWAP2 POP POP JUMP JUMPDEST PUSH32 0x5F766F74654475726174696F6E00000000000000000000000000000000000000 PUSH0 DUP3 ADD MSTORE POP JUMP JUMPDEST PUSH0 PUSH2 0x40EA PUSH1 0xD DUP4 PUSH2 0x40AC JUMP JUMPDEST SWAP2 POP PUSH2 0x40F5 DUP3 PUSH2 0x40B6 JUMP JUMPDEST PUSH1 0xD DUP3 ADD SWAP1 POP SWAP2 SWAP1 POP JUMP JUMPDEST PUSH0 PUSH2 0x410A DUP3 PUSH2 0x40DE JUMP JUMPDEST SWAP2 POP DUP2 SWAP1 POP SWAP2 SWAP1 POP JUMP JUMPDEST PUSH32 0x5F6574615365636F6E6473000000000000000000000000000000000000000000 PUSH0 DUP3 ADD MSTORE POP JUMP JUMPDEST PUSH0 PUSH2 0x4148 PUSH1 0xB DUP4 PUSH2 0x40AC JUMP JUMPDEST SWAP2 POP PUSH2 0x4153 DUP3 PUSH2 0x4114 JUMP JUMPDEST PUSH1 0xB DUP3 ADD SWAP1 POP SWAP2 SWAP1 POP JUMP JUMPDEST PUSH0 PUSH2 0x4168 DUP3 PUSH2 0x413C JUMP JUMPDEST SWAP2 POP DUP2 SWAP1 POP SWAP2 SWAP1 POP JUMP JUMPDEST PUSH32 0x5F766F746564656C617900000000000000000000000000000000000000000000 PUSH0 DUP3 ADD MSTORE POP JUMP JUMPDEST PUSH0 PUSH2 0x41A6 PUSH1 0xA DUP4 PUSH2 0x40AC JUMP JUMPDEST SWAP2 POP PUSH2 0x41B1 DUP3 PUSH2 0x4172 JUMP JUMPDEST PUSH1 0xA DUP3 ADD SWAP1 POP SWAP2 SWAP1 POP JUMP JUMPDEST PUSH0 PUSH2 0x41C6 DUP3 PUSH2 0x419A JUMP JUMPDEST SWAP2 POP DUP2 SWAP1 POP SWAP2 SWAP1 POP JUMP JUMPDEST PUSH0 DUP2 SWAP1 POP SWAP2 SWAP1 POP JUMP JUMPDEST PUSH0 DUP2 SWAP1 POP SWAP2 SWAP1 POP JUMP JUMPDEST PUSH0 PUSH2 0x41FC PUSH2 0x41F7 PUSH2 0x41F2 DUP5 PUSH2 0x41D0 JUMP JUMPDEST PUSH2 0x41D9 JUMP JUMPDEST PUSH2 0x35CE JUMP JUMPDEST SWAP1 POP SWAP2 SWAP1 POP JUMP JUMPDEST PUSH2 0x420C DUP2 PUSH2 0x41E2 JUMP JUMPDEST DUP3 MSTORE POP POP JUMP JUMPDEST PUSH0 PUSH1 0x40 DUP3 ADD SWAP1 POP PUSH2 0x4225 PUSH0 DUP4 ADD DUP6 PUSH2 0x4203 JUMP JUMPDEST PUSH2 0x4232 PUSH1 0x20 DUP4 ADD DUP5 PUSH2 0x37E0 JUMP JUMPDEST SWAP4 SWAP3 POP POP POP JUMP JUMPDEST PUSH0 PUSH1 0x40 DUP3 ADD SWAP1 POP PUSH2 0x424C PUSH0 DUP4 ADD DUP6 PUSH2 0x35A6 JUMP JUMPDEST PUSH2 0x4259 PUSH1 0x20 DUP4 ADD DUP5 PUSH2 0x37E0 JUMP JUMPDEST SWAP4 SWAP3 POP POP POP JUMP JUMPDEST PUSH32 0x546865207265717565737420697320696E76616C696400000000000000000000 PUSH0 DUP3 ADD MSTORE POP JUMP JUMPDEST PUSH0 PUSH2 0x4294 PUSH1 0x16 DUP4 PUSH2 0x3506 JUMP JUMPDEST SWAP2 POP PUSH2 0x429F DUP3 PUSH2 0x4260 JUMP JUMPDEST PUSH1 0x20 DUP3 ADD SWAP1 POP SWAP2 SWAP1 POP JUMP JUMPDEST PUSH0 PUSH1 0x20 DUP3 ADD SWAP1 POP DUP2 DUP2 SUB PUSH0 DUP4 ADD MSTORE PUSH2 0x42C1 DUP2 PUSH2 0x4288 JUMP JUMPDEST SWAP1 POP SWAP2 SWAP1 POP JUMP JUMPDEST PUSH0 PUSH2 0x42D2 DUP3 PUSH2 0x3E9E JUMP JUMPDEST SWAP2 POP PUSH2 0x42DD DUP4 PUSH2 0x3E9E JUMP JUMPDEST SWAP3 POP DUP3 DUP3 SUB SWAP1 POP PUSH6 0xFFFFFFFFFFFF DUP2 GT ISZERO PUSH2 0x42FB JUMPI PUSH2 0x42FA PUSH2 0x3D14 JUMP JUMPDEST JUMPDEST SWAP3 SWAP2 POP POP JUMP JUMPDEST PUSH2 0x430A DUP2 PUSH2 0x3E9E JUMP JUMPDEST DUP3 MSTORE POP POP JUMP JUMPDEST PUSH0 PUSH1 0x20 DUP3 ADD SWAP1 POP PUSH2 0x4323 PUSH0 DUP4 ADD DUP5 PUSH2 0x4301 JUMP JUMPDEST SWAP3 SWAP2 POP POP JUMP JUMPDEST PUSH32 0x696E76616C696420616363657373000000000000000000000000000000000000 PUSH0 DUP3 ADD MSTORE POP JUMP JUMPDEST PUSH0 PUSH2 0x435D PUSH1 0xE DUP4 PUSH2 0x3506 JUMP JUMPDEST SWAP2 POP PUSH2 0x4368 DUP3 PUSH2 0x4329 JUMP JUMPDEST PUSH1 0x20 DUP3 ADD SWAP1 POP SWAP2 SWAP1 POP JUMP JUMPDEST PUSH0 PUSH1 0x20 DUP3 ADD SWAP1 POP DUP2 DUP2 SUB PUSH0 DUP4 ADD MSTORE PUSH2 0x438A DUP2 PUSH2 0x4351 JUMP JUMPDEST SWAP1 POP SWAP2 SWAP1 POP JUMP JUMPDEST PUSH0 PUSH8 0xFFFFFFFFFFFFFFFF DUP3 GT ISZERO PUSH2 0x43AB JUMPI PUSH2 0x43AA PUSH2 0x3609 JUMP JUMPDEST JUMPDEST PUSH2 0x43B4 DUP3 PUSH2 0x353E JUMP JUMPDEST SWAP1 POP PUSH1 0x20 DUP2 ADD SWAP1 POP SWAP2 SWAP1 POP JUMP JUMPDEST PUSH0 PUSH2 0x43D3 PUSH2 0x43CE DUP5 PUSH2 0x4391 JUMP JUMPDEST PUSH2 0x3667 JUMP JUMPDEST SWAP1 POP DUP3 DUP2 MSTORE PUSH1 0x20 DUP2 ADD DUP5 DUP5 DUP5 ADD GT ISZERO PUSH2 0x43EF JUMPI PUSH2 0x43EE PUSH2 0x3605 JUMP JUMPDEST JUMPDEST PUSH2 0x43FA DUP5 DUP3 DUP6 PUSH2 0x3516 JUMP JUMPDEST POP SWAP4 SWAP3 POP POP POP JUMP JUMPDEST PUSH0 DUP3 PUSH1 0x1F DUP4 ADD SLT PUSH2 0x4416 JUMPI PUSH2 0x4415 PUSH2 0x3601 JUMP JUMPDEST JUMPDEST DUP2 MLOAD PUSH2 0x4426 DUP5 DUP3 PUSH1 0x20 DUP7 ADD PUSH2 0x43C1 JUMP JUMPDEST SWAP2 POP POP SWAP3 SWAP2 POP POP JUMP JUMPDEST PUSH0 DUP2 MLOAD SWAP1 POP PUSH2 0x443D DUP2 PUSH2 0x3736 JUMP JUMPDEST SWAP3 SWAP2 POP POP JUMP JUMPDEST PUSH0 DUP1 PUSH0 DUP1 PUSH1 0x80 DUP6 DUP8 SUB SLT ISZERO PUSH2 0x445B JUMPI PUSH2 0x445A PUSH2 0x340F JUMP JUMPDEST JUMPDEST PUSH0 DUP6 ADD MLOAD PUSH8 0xFFFFFFFFFFFFFFFF DUP2 GT ISZERO PUSH2 0x4478 JUMPI PUSH2 0x4477 PUSH2 0x3413 JUMP JUMPDEST JUMPDEST PUSH2 0x4484 DUP8 DUP3 DUP9 ADD PUSH2 0x4402 JUMP JUMPDEST SWAP5 POP POP PUSH1 0x20 DUP6 ADD MLOAD PUSH8 0xFFFFFFFFFFFFFFFF DUP2 GT ISZERO PUSH2 0x44A5 JUMPI PUSH2 0x44A4 PUSH2 0x3413 JUMP JUMPDEST JUMPDEST PUSH2 0x44B1 DUP8 DUP3 DUP9 ADD PUSH2 0x4402 JUMP JUMPDEST SWAP4 POP POP PUSH1 0x40 PUSH2 0x44C2 DUP8 DUP3 DUP9 ADD PUSH2 0x442F JUMP JUMPDEST SWAP3 POP POP PUSH1 0x60 PUSH2 0x44D3 DUP8 DUP3 DUP9 ADD PUSH2 0x3E3F JUMP JUMPDEST SWAP2 POP POP SWAP3 SWAP6 SWAP2 SWAP5 POP SWAP3 POP JUMP JUMPDEST PUSH0 DUP1 PUSH0 PUSH1 0x60 DUP5 DUP7 SUB SLT ISZERO PUSH2 0x44F6 JUMPI PUSH2 0x44F5 PUSH2 0x340F JUMP JUMPDEST JUMPDEST PUSH0 PUSH2 0x4503 DUP7 DUP3 DUP8 ADD PUSH2 0x3E3F JUMP JUMPDEST SWAP4 POP POP PUSH1 0x20 PUSH2 0x4514 DUP7 DUP3 DUP8 ADD PUSH2 0x3E3F JUMP JUMPDEST SWAP3 POP POP PUSH1 0x40 PUSH2 0x4525 DUP7 DUP3 DUP8 ADD PUSH2 0x400C JUMP JUMPDEST SWAP2 POP POP SWAP3 POP SWAP3 POP SWAP3 JUMP JUMPDEST PUSH0 PUSH1 0x60 DUP3 ADD SWAP1 POP PUSH2 0x4542 PUSH0 DUP4 ADD DUP7 PUSH2 0x35A6 JUMP JUMPDEST PUSH2 0x454F PUSH1 0x20 DUP4 ADD DUP6 PUSH2 0x35A6 JUMP JUMPDEST PUSH2 0x455C PUSH1 0x40 DUP4 ADD DUP5 PUSH2 0x37E0 JUMP JUMPDEST SWAP5 SWAP4 POP POP POP POP JUMP JUMPDEST PUSH0 DUP1 PUSH0 DUP1 PUSH1 0x80 DUP6 DUP8 SUB SLT ISZERO PUSH2 0x457C JUMPI PUSH2 0x457B PUSH2 0x340F JUMP JUMPDEST JUMPDEST PUSH0 PUSH2 0x4589 DUP8 DUP3 DUP9 ADD PUSH2 0x3E76 JUMP JUMPDEST SWAP5 POP POP PUSH1 0x20 PUSH2 0x459A DUP8 DUP3 DUP9 ADD PUSH2 0x3E8A JUMP JUMPDEST SWAP4 POP POP PUSH1 0x40 PUSH2 0x45AB DUP8 DUP3 DUP9 ADD PUSH2 0x3EC5 JUMP JUMPDEST SWAP3 POP POP PUSH1 0x60 PUSH2 0x45BC DUP8 DUP3 DUP9 ADD PUSH2 0x3EC5 JUMP JUMPDEST SWAP2 POP POP SWAP3 SWAP6 SWAP2 SWAP5 POP SWAP3 POP JUMP JUMPDEST PUSH2 0x45D1 DUP2 PUSH2 0x3E53 JUMP JUMPDEST DUP3 MSTORE POP POP JUMP JUMPDEST PUSH0 PUSH1 0x20 DUP3 ADD SWAP1 POP PUSH2 0x45EA PUSH0 DUP4 ADD DUP5 PUSH2 0x45C8 JUMP JUMPDEST SWAP3 SWAP2 POP POP JUMP JUMPDEST PUSH0 PUSH1 0x60 DUP3 ADD SWAP1 POP PUSH2 0x4603 PUSH0 DUP4 ADD DUP7 PUSH2 0x3B1E JUMP JUMPDEST PUSH2 0x4610 PUSH1 0x20 DUP4 ADD DUP6 PUSH2 0x4301 JUMP JUMPDEST PUSH2 0x461D PUSH1 0x40 DUP4 ADD DUP5 PUSH2 0x4301 JUMP JUMPDEST SWAP5 SWAP4 POP POP POP POP JUMP JUMPDEST PUSH0 PUSH1 0xE0 DUP3 ADD SWAP1 POP PUSH2 0x4638 PUSH0 DUP4 ADD DUP11 PUSH2 0x37E0 JUMP JUMPDEST PUSH2 0x4645 PUSH1 0x20 DUP4 ADD DUP10 PUSH2 0x45C8 JUMP JUMPDEST PUSH2 0x4652 PUSH1 0x40 DUP4 ADD DUP9 PUSH2 0x3B1E JUMP JUMPDEST PUSH2 0x465F PUSH1 0x60 DUP4 ADD DUP8 PUSH2 0x4301 JUMP JUMPDEST PUSH2 0x466C PUSH1 0x80 DUP4 ADD DUP7 PUSH2 0x4301 JUMP JUMPDEST PUSH2 0x4679 PUSH1 0xA0 DUP4 ADD DUP6 PUSH2 0x35A6 JUMP JUMPDEST PUSH2 0x4686 PUSH1 0xC0 DUP4 ADD DUP5 PUSH2 0x35A6 JUMP JUMPDEST SWAP9 SWAP8 POP POP POP POP POP POP POP POP JUMP JUMPDEST PUSH0 PUSH1 0x20 DUP3 DUP5 SUB SLT ISZERO PUSH2 0x46A7 JUMPI PUSH2 0x46A6 PUSH2 0x340F JUMP JUMPDEST JUMPDEST PUSH0 PUSH2 0x46B4 DUP5 DUP3 DUP6 ADD PUSH2 0x3ED9 JUMP JUMPDEST SWAP2 POP POP SWAP3 SWAP2 POP POP JUMP JUMPDEST PUSH32 0x666F72416E790000000000000000000000000000000000000000000000000000 DUP2 MSTORE POP JUMP JUMPDEST PUSH0 PUSH1 0x20 DUP3 ADD SWAP1 POP PUSH2 0x46F5 PUSH0 DUP4 ADD PUSH2 0x46BD JUMP JUMPDEST SWAP2 SWAP1 POP JUMP JUMPDEST PUSH0 PUSH8 0xFFFFFFFFFFFFFFFF DUP3 GT ISZERO PUSH2 0x4714 JUMPI PUSH2 0x4713 PUSH2 0x3609 JUMP JUMPDEST JUMPDEST PUSH1 0x20 DUP3 MUL SWAP1 POP SWAP2 SWAP1 POP JUMP JUMPDEST PUSH0 DUP1 REVERT JUMPDEST PUSH0 PUSH2 0x4735 PUSH2 0x4730 DUP5 PUSH2 0x46FA JUMP JUMPDEST PUSH2 0x3667 JUMP JUMPDEST SWAP1 POP DUP1 PUSH1 0x20 DUP5 MUL DUP4 ADD DUP6 DUP2 GT ISZERO PUSH2 0x474F JUMPI PUSH2 0x474E PUSH2 0x471F JUMP JUMPDEST JUMPDEST DUP4 JUMPDEST DUP2 DUP2 LT ISZERO PUSH2 0x4778 JUMPI DUP1 PUSH2 0x4764 DUP9 DUP3 PUSH2 0x3EC5 JUMP JUMPDEST DUP5 MSTORE PUSH1 0x20 DUP5 ADD SWAP4 POP POP PUSH1 0x20 DUP2 ADD SWAP1 POP PUSH2 0x4751 JUMP JUMPDEST POP POP POP SWAP4 SWAP3 POP POP POP JUMP JUMPDEST PUSH0 DUP3 PUSH1 0x1F DUP4 ADD SLT PUSH2 0x4796 JUMPI PUSH2 0x4795 PUSH2 0x3601 JUMP JUMPDEST JUMPDEST PUSH2 0x4B1 PUSH2 0x47A4 DUP5 DUP3 DUP6 PUSH2 0x4723 JUMP JUMPDEST SWAP2 POP POP SWAP3 SWAP2 POP POP JUMP JUMPDEST PUSH0 PUSH2 0x9620 DUP3 DUP5 SUB SLT ISZERO PUSH2 0x47C3 JUMPI PUSH2 0x47C2 PUSH2 0x340F JUMP JUMPDEST JUMPDEST PUSH0 PUSH2 0x47D0 DUP5 DUP3 DUP6 ADD PUSH2 0x4782 JUMP JUMPDEST SWAP2 POP POP SWAP3 SWAP2 POP POP JUMP JUMPDEST PUSH0 PUSH2 0x47E3 DUP3 PUSH2 0x35CE JUMP JUMPDEST SWAP2 POP PUSH2 0x47EE DUP4 PUSH2 0x35CE JUMP JUMPDEST SWAP3 POP DUP3 DUP3 SUB SWAP1 POP DUP2 DUP2 GT ISZERO PUSH2 0x4806 JUMPI PUSH2 0x4805 PUSH2 0x3D14 JUMP JUMPDEST JUMPDEST SWAP3 SWAP2 POP POP JUMP JUMPDEST PUSH32 0x4E487B7100000000000000000000000000000000000000000000000000000000 PUSH0 MSTORE PUSH1 0x32 PUSH1 0x4 MSTORE PUSH1 0x24 PUSH0 REVERT JUMPDEST PUSH0 PUSH2 0x4843 DUP3 PUSH2 0x3E53 JUMP JUMPDEST SWAP2 POP PUSH2 0xFFFF DUP3 SUB PUSH2 0x4857 JUMPI PUSH2 0x4856 PUSH2 0x3D14 JUMP JUMPDEST JUMPDEST PUSH1 0x1 DUP3 ADD SWAP1 POP SWAP2 SWAP1 POP JUMP JUMPDEST PUSH32 0x4E487B7100000000000000000000000000000000000000000000000000000000 PUSH0 MSTORE PUSH1 0x12 PUSH1 0x4 MSTORE PUSH1 0x24 PUSH0 REVERT JUMPDEST PUSH0 PUSH2 0x4899 DUP3 PUSH2 0x3E53 JUMP JUMPDEST SWAP2 POP PUSH2 0x48A4 DUP4 PUSH2 0x3E53 JUMP JUMPDEST SWAP3 POP DUP3 PUSH2 0x48B4 JUMPI PUSH2 0x48B3 PUSH2 0x4862 JUMP JUMPDEST JUMPDEST DUP3 DUP3 DIV SWAP1 POP SWAP3 SWAP2 POP POP JUMP JUMPDEST PUSH0 PUSH2 0x48C9 DUP3 PUSH2 0x3E53 JUMP JUMPDEST SWAP2 POP PUSH2 0x48D4 DUP4 PUSH2 0x3E53 JUMP JUMPDEST SWAP3 POP DUP3 DUP3 MUL PUSH2 0x48E2 DUP2 PUSH2 0x3E53 JUMP JUMPDEST SWAP2 POP DUP1 DUP3 EQ PUSH2 0x48F4 JUMPI PUSH2 0x48F3 PUSH2 0x3D14 JUMP JUMPDEST JUMPDEST POP SWAP3 SWAP2 POP POP JUMP INVALID LOG2 PUSH5 0x6970667358 0x22 SLT KECCAK256 0xF6 NOT 0x26 0xD8 SWAP12 0xC2 SWAP6 0x25 0xBA PC 0xCA 0xBB 0x1E 0x2F PUSH30 0x22C1A408EFECE5653B96F178C25DFF671864736F6C634300081400330000 "
		},
		"gasEstimates": {
			"creation": {
				"codeDepositCost": "3747400",
				"executionCost": "infinite",
				"totalCost": "infinite"
			},
			"external": {
				"AccessControl(address,address,bytes4)": "infinite",
				"CLOCK_MODE()": "infinite",
				"Clock()": "442",
				"cancel(address,uint256,bytes,bytes32)": "infinite",
				"cancelPendingRepublicAddress(address)": "infinite",
				"eip712Domain()": "infinite",
				"execute(address,uint256,bytes,bytes32)": "infinite",
				"getAuthorityAddress()": "467",
				"getGovernance()": "2610",
				"getPresidentAdd()": "2566",
				"getPresidentBan()": "2619",
				"getPrimeMinisterAdd()": "2631",
				"getPrimeMinisterBan()": "2639",
				"getRepublicAddress()": "2609",
				"getgovernanceVersion()": "2596",
				"governoraccess(address)": "685",
				"hashProposal(address,uint256,bytes,bytes32)": "infinite",
				"name()": "infinite",
				"proposal(uint256,address,address,address)": "infinite",
				"setConnectors(address,address)": "infinite",
				"setPendigPresident(address)": "infinite",
				"setPendingGovernanceContractAddress(address)": "infinite",
				"setPendingPrimeMinister(address)": "30404",
				"setPendingRepublicAddress(address)": "infinite",
				"setPresidentBaned(bool)": "infinite",
				"setPrimeMinister(bool)": "29288",
				"setvoteTiming(uint32,bytes32)": "infinite",
				"state(uint256)": "infinite",
				"transferGovernanceContractAddress(address)": "infinite",
				"transferPresident()": "107831",
				"transferPrimeMinister()": "109975",
				"transferRepublicAddress(address)": "infinite",
				"version()": "infinite"
			},
			"internal": {
				"_voteResult(struct storageTCN.ProposalCore memory)": "infinite",
				"isQuorumValid(uint16)": "infinite"
			}
		},
		"methodIdentifiers": {
			"AccessControl(address,address,bytes4)": "e35b31b7",
			"CLOCK_MODE()": "4bf5d7e9",
			"Clock()": "5dad85c2",
			"cancel(address,uint256,bytes,bytes32)": "85488408",
			"cancelPendingRepublicAddress(address)": "52e305de",
			"eip712Domain()": "84b0196e",
			"execute(address,uint256,bytes,bytes32)": "88aa4c12",
			"getAuthorityAddress()": "e47a9d46",
			"getGovernance()": "289b3c0d",
			"getPresidentAdd()": "66410997",
			"getPresidentBan()": "6cf106d7",
			"getPrimeMinisterAdd()": "a53da00b",
			"getPrimeMinisterBan()": "e4f3e947",
			"getRepublicAddress()": "c5a1c5c1",
			"getgovernanceVersion()": "c387b49c",
			"governoraccess(address)": "3610feb3",
			"hashProposal(address,uint256,bytes,bytes32)": "31d133c2",
			"name()": "06fdde03",
			"proposal(uint256,address,address,address)": "c8021c2e",
			"setConnectors(address,address)": "3a8512b4",
			"setPendigPresident(address)": "054203bd",
			"setPendingGovernanceContractAddress(address)": "ca4cce68",
			"setPendingPrimeMinister(address)": "544fa93e",
			"setPendingRepublicAddress(address)": "1f72783a",
			"setPresidentBaned(bool)": "b5c09c68",
			"setPrimeMinister(bool)": "06e99d93",
			"setvoteTiming(uint32,bytes32)": "667d639b",
			"state(uint256)": "3e4f49e6",
			"transferGovernanceContractAddress(address)": "ee7126c3",
			"transferPresident()": "0df4c390",
			"transferPrimeMinister()": "18074eee",
			"transferRepublicAddress(address)": "9c20fe71",
			"version()": "54fd4d50"
		}
	},
	"abi": [
		{
			"inputs": [
				{
					"internalType": "string",
					"name": "name_",
					"type": "string"
				}
			],
			"stateMutability": "nonpayable",
			"type": "constructor"
		},
		{
			"inputs": [],
			"name": "AccessOnlyForThePendig",
			"type": "error"
		},
		{
			"inputs": [
				{
					"internalType": "address",
					"name": "ballot",
					"type": "address"
				}
			],
			"name": "AddressNotReturnVoteCount",
			"type": "error"
		},
		{
			"inputs": [
				{
					"internalType": "address",
					"name": "governances_",
					"type": "address"
				}
			],
			"name": "GovernanceContractNotMatch",
			"type": "error"
		},
		{
			"inputs": [
				{
					"internalType": "uint256",
					"name": "proposalId",
					"type": "uint256"
				}
			],
			"name": "GovernorNonexistentProposal",
			"type": "error"
		},
		{
			"inputs": [
				{
					"internalType": "address",
					"name": "target_",
					"type": "address"
				},
				{
					"internalType": "address",
					"name": "proposer_",
					"type": "address"
				},
				{
					"internalType": "uint256",
					"name": "value_",
					"type": "uint256"
				}
			],
			"name": "InavlidProposalParams",
			"type": "error"
		},
		{
			"inputs": [
				{
					"internalType": "uint16",
					"name": "quorum",
					"type": "uint16"
				}
			],
			"name": "InvalidQuorum",
			"type": "error"
		},
		{
			"inputs": [],
			"name": "InvalidShortString",
			"type": "error"
		},
		{
			"inputs": [
				{
					"internalType": "uint32",
					"name": "voteDuration_",
					"type": "uint32"
				},
				{
					"internalType": "uint48",
					"name": "voteStart_",
					"type": "uint48"
				},
				{
					"internalType": "uint48",
					"name": "etaSeconds_",
					"type": "uint48"
				}
			],
			"name": "InvalidVotingTImeParams",
			"type": "error"
		},
		{
			"inputs": [
				{
					"internalType": "uint48",
					"name": "reminingTime",
					"type": "uint48"
				}
			],
			"name": "RemainingTimeUntilTheConfirmationDeadline",
			"type": "error"
		},
		{
			"inputs": [
				{
					"internalType": "uint256",
					"name": "proposalId",
					"type": "uint256"
				}
			],
			"name": "StateProposalIsSpecified",
			"type": "error"
		},
		{
			"inputs": [
				{
					"internalType": "address",
					"name": "Applicant",
					"type": "address"
				}
			],
			"name": "StorageContractS_invalidAccess",
			"type": "error"
		},
		{
			"inputs": [
				{
					"internalType": "address",
					"name": "storageContract",
					"type": "address"
				},
				{
					"internalType": "uint256",
					"name": "proposalId",
					"type": "uint256"
				}
			],
			"name": "StorageContractS_invalidState",
			"type": "error"
		},
		{
			"inputs": [
				{
					"internalType": "string",
					"name": "str",
					"type": "string"
				}
			],
			"name": "StringTooLong",
			"type": "error"
		},
		{
			"inputs": [
				{
					"internalType": "address",
					"name": "NewGCAddress",
					"type": "address"
				}
			],
			"name": "TheAddressIsNotValidForGC",
			"type": "error"
		},
		{
			"inputs": [
				{
					"internalType": "address",
					"name": "newRAddress",
					"type": "address"
				}
			],
			"name": "TheAddressIsNotValidForRAddress",
			"type": "error"
		},
		{
			"inputs": [
				{
					"internalType": "uint256",
					"name": "proposalId_",
					"type": "uint256"
				}
			],
			"name": "ThisProposalExists",
			"type": "error"
		},
		{
			"anonymous": false,
			"inputs": [
				{
					"indexed": true,
					"internalType": "address",
					"name": "storageContract",
					"type": "address"
				},
				{
					"indexed": true,
					"internalType": "uint256",
					"name": "proposalId",
					"type": "uint256"
				}
			],
			"name": "ChangeStateToExecutedAndContinue",
			"type": "event"
		},
		{
			"anonymous": false,
			"inputs": [],
			"name": "EIP712DomainChanged",
			"type": "event"
		},
		{
			"anonymous": false,
			"inputs": [
				{
					"indexed": true,
					"internalType": "uint256",
					"name": "proposalId",
					"type": "uint256"
				}
			],
			"name": "ProposalCanceled",
			"type": "event"
		},
		{
			"anonymous": false,
			"inputs": [
				{
					"indexed": true,
					"internalType": "uint256",
					"name": "proposalId",
					"type": "uint256"
				}
			],
			"name": "SetProposal",
			"type": "event"
		},
		{
			"anonymous": false,
			"inputs": [
				{
					"indexed": true,
					"internalType": "address",
					"name": "GCAddress",
					"type": "address"
				},
				{
					"indexed": true,
					"internalType": "uint32",
					"name": "version",
					"type": "uint32"
				}
			],
			"name": "TheNewGCAddressWasConfirmed",
			"type": "event"
		},
		{
			"anonymous": false,
			"inputs": [
				{
					"indexed": true,
					"internalType": "address",
					"name": "presidentAdd",
					"type": "address"
				},
				{
					"indexed": true,
					"internalType": "uint32",
					"name": "nonce",
					"type": "uint32"
				}
			],
			"name": "TheNewPresidentWasConfirmed",
			"type": "event"
		},
		{
			"anonymous": false,
			"inputs": [
				{
					"indexed": true,
					"internalType": "address",
					"name": "primeMinisterAdd",
					"type": "address"
				},
				{
					"indexed": true,
					"internalType": "uint32",
					"name": "nonce",
					"type": "uint32"
				}
			],
			"name": "TheNewPrimeMinisterWasConfirmed",
			"type": "event"
		},
		{
			"anonymous": false,
			"inputs": [
				{
					"indexed": true,
					"internalType": "address",
					"name": "RepublicAddress",
					"type": "address"
				},
				{
					"indexed": true,
					"internalType": "uint32",
					"name": "version",
					"type": "uint32"
				}
			],
			"name": "TheNewRepublicAddressWasConfirmed",
			"type": "event"
		},
		{
			"anonymous": false,
			"inputs": [
				{
					"indexed": true,
					"internalType": "address",
					"name": "newGCAddress",
					"type": "address"
				}
			],
			"name": "TheNextGCAddressWasElected",
			"type": "event"
		},
		{
			"anonymous": false,
			"inputs": [
				{
					"indexed": true,
					"internalType": "address",
					"name": "newPresidentAdd",
					"type": "address"
				}
			],
			"name": "TheNextPresidentWasElected",
			"type": "event"
		},
		{
			"anonymous": false,
			"inputs": [
				{
					"indexed": true,
					"internalType": "address",
					"name": "newPrimeMinister",
					"type": "address"
				}
			],
			"name": "TheNextPrimeMinisterWasElected",
			"type": "event"
		},
		{
			"anonymous": false,
			"inputs": [
				{
					"indexed": true,
					"internalType": "address",
					"name": "PRAddress",
					"type": "address"
				}
			],
			"name": "TheNextRepublicAddressWasCancelled",
			"type": "event"
		},
		{
			"anonymous": false,
			"inputs": [
				{
					"indexed": true,
					"internalType": "address",
					"name": "newRepublicAddress",
					"type": "address"
				}
			],
			"name": "TheNextRepublicAddressWasElected",
			"type": "event"
		},
		{
			"anonymous": false,
			"inputs": [
				{
					"indexed": true,
					"internalType": "bool",
					"name": "baned",
					"type": "bool"
				},
				{
					"indexed": true,
					"internalType": "bool",
					"name": "done",
					"type": "bool"
				}
			],
			"name": "TheStatusOfBanningAllActivitiesAndDone",
			"type": "event"
		},
		{
			"anonymous": false,
			"inputs": [
				{
					"indexed": true,
					"internalType": "address",
					"name": "ballotAddress",
					"type": "address"
				}
			],
			"name": "ValidBallotcontract",
			"type": "event"
		},
		{
			"anonymous": false,
			"inputs": [
				{
					"indexed": true,
					"internalType": "uint32",
					"name": "time",
					"type": "uint32"
				}
			],
			"name": "changeEtaSeconds",
			"type": "event"
		},
		{
			"anonymous": false,
			"inputs": [
				{
					"indexed": true,
					"internalType": "uint32",
					"name": "time",
					"type": "uint32"
				}
			],
			"name": "changeVoteDelay",
			"type": "event"
		},
		{
			"anonymous": false,
			"inputs": [
				{
					"indexed": true,
					"internalType": "uint32",
					"name": "time",
					"type": "uint32"
				}
			],
			"name": "changeVoteDuration",
			"type": "event"
		},
		{
			"inputs": [
				{
					"internalType": "address",
					"name": "caller",
					"type": "address"
				},
				{
					"internalType": "address",
					"name": "target",
					"type": "address"
				},
				{
					"internalType": "bytes4",
					"name": "Fselector",
					"type": "bytes4"
				}
			],
			"name": "AccessControl",
			"outputs": [
				{
					"internalType": "bool",
					"name": "accessed",
					"type": "bool"
				}
			],
			"stateMutability": "nonpayable",
			"type": "function"
		},
		{
			"inputs": [],
			"name": "CLOCK_MODE",
			"outputs": [
				{
					"internalType": "string",
					"name": "",
					"type": "string"
				}
			],
			"stateMutability": "pure",
			"type": "function"
		},
		{
			"inputs": [],
			"name": "Clock",
			"outputs": [
				{
					"internalType": "uint256",
					"name": "",
					"type": "uint256"
				}
			],
			"stateMutability": "view",
			"type": "function"
		},
		{
			"inputs": [
				{
					"internalType": "address",
					"name": "target",
					"type": "address"
				},
				{
					"internalType": "uint256",
					"name": "value",
					"type": "uint256"
				},
				{
					"internalType": "bytes",
					"name": "callData",
					"type": "bytes"
				},
				{
					"internalType": "bytes32",
					"name": "descriptionHash",
					"type": "bytes32"
				}
			],
			"name": "cancel",
			"outputs": [],
			"stateMutability": "nonpayable",
			"type": "function"
		},
		{
			"inputs": [
				{
					"internalType": "address",
					"name": "PRAdress",
					"type": "address"
				}
			],
			"name": "cancelPendingRepublicAddress",
			"outputs": [],
			"stateMutability": "nonpayable",
			"type": "function"
		},
		{
			"inputs": [],
			"name": "eip712Domain",
			"outputs": [
				{
					"internalType": "bytes1",
					"name": "fields",
					"type": "bytes1"
				},
				{
					"internalType": "string",
					"name": "name",
					"type": "string"
				},
				{
					"internalType": "string",
					"name": "version",
					"type": "string"
				},
				{
					"internalType": "uint256",
					"name": "chainId",
					"type": "uint256"
				},
				{
					"internalType": "address",
					"name": "verifyingContract",
					"type": "address"
				},
				{
					"internalType": "bytes32",
					"name": "salt",
					"type": "bytes32"
				},
				{
					"internalType": "uint256[]",
					"name": "extensions",
					"type": "uint256[]"
				}
			],
			"stateMutability": "view",
			"type": "function"
		},
		{
			"inputs": [
				{
					"internalType": "address",
					"name": "target",
					"type": "address"
				},
				{
					"internalType": "uint256",
					"name": "value",
					"type": "uint256"
				},
				{
					"internalType": "bytes",
					"name": "callData",
					"type": "bytes"
				},
				{
					"internalType": "bytes32",
					"name": "descriptionHash",
					"type": "bytes32"
				}
			],
			"name": "execute",
			"outputs": [],
			"stateMutability": "nonpayable",
			"type": "function"
		},
		{
			"inputs": [],
			"name": "getAuthorityAddress",
			"outputs": [
				{
					"internalType": "address",
					"name": "",
					"type": "address"
				}
			],
			"stateMutability": "view",
			"type": "function"
		},
		{
			"inputs": [],
			"name": "getGovernance",
			"outputs": [
				{
					"internalType": "address",
					"name": "",
					"type": "address"
				}
			],
			"stateMutability": "view",
			"type": "function"
		},
		{
			"inputs": [],
			"name": "getPresidentAdd",
			"outputs": [
				{
					"internalType": "address",
					"name": "",
					"type": "address"
				}
			],
			"stateMutability": "view",
			"type": "function"
		},
		{
			"inputs": [],
			"name": "getPresidentBan",
			"outputs": [
				{
					"internalType": "bool",
					"name": "",
					"type": "bool"
				}
			],
			"stateMutability": "view",
			"type": "function"
		},
		{
			"inputs": [],
			"name": "getPrimeMinisterAdd",
			"outputs": [
				{
					"internalType": "address",
					"name": "",
					"type": "address"
				}
			],
			"stateMutability": "view",
			"type": "function"
		},
		{
			"inputs": [],
			"name": "getPrimeMinisterBan",
			"outputs": [
				{
					"internalType": "bool",
					"name": "",
					"type": "bool"
				}
			],
			"stateMutability": "view",
			"type": "function"
		},
		{
			"inputs": [],
			"name": "getRepublicAddress",
			"outputs": [
				{
					"internalType": "address",
					"name": "RG",
					"type": "address"
				}
			],
			"stateMutability": "view",
			"type": "function"
		},
		{
			"inputs": [],
			"name": "getgovernanceVersion",
			"outputs": [
				{
					"internalType": "uint32",
					"name": "",
					"type": "uint32"
				}
			],
			"stateMutability": "view",
			"type": "function"
		},
		{
			"inputs": [
				{
					"internalType": "address",
					"name": "",
					"type": "address"
				}
			],
			"name": "governoraccess",
			"outputs": [
				{
					"internalType": "bool",
					"name": "",
					"type": "bool"
				}
			],
			"stateMutability": "nonpayable",
			"type": "function"
		},
		{
			"inputs": [
				{
					"internalType": "address",
					"name": "target",
					"type": "address"
				},
				{
					"internalType": "uint256",
					"name": "value",
					"type": "uint256"
				},
				{
					"internalType": "bytes",
					"name": "callData",
					"type": "bytes"
				},
				{
					"internalType": "bytes32",
					"name": "descriptionHash",
					"type": "bytes32"
				}
			],
			"name": "hashProposal",
			"outputs": [
				{
					"internalType": "uint256",
					"name": "",
					"type": "uint256"
				}
			],
			"stateMutability": "pure",
			"type": "function"
		},
		{
			"inputs": [],
			"name": "name",
			"outputs": [
				{
					"internalType": "string",
					"name": "",
					"type": "string"
				}
			],
			"stateMutability": "view",
			"type": "function"
		},
		{
			"inputs": [
				{
					"internalType": "uint256",
					"name": "value",
					"type": "uint256"
				},
				{
					"internalType": "address",
					"name": "target",
					"type": "address"
				},
				{
					"internalType": "address",
					"name": "proposer",
					"type": "address"
				},
				{
					"internalType": "address",
					"name": "ballotAddress",
					"type": "address"
				}
			],
			"name": "proposal",
			"outputs": [
				{
					"internalType": "uint256",
					"name": "proposalId",
					"type": "uint256"
				}
			],
			"stateMutability": "nonpayable",
			"type": "function"
		},
		{
			"inputs": [
				{
					"internalType": "address",
					"name": "applicantAdd_",
					"type": "address"
				},
				{
					"internalType": "address",
					"name": "storageAdd_",
					"type": "address"
				}
			],
			"name": "setConnectors",
			"outputs": [],
			"stateMutability": "nonpayable",
			"type": "function"
		},
		{
			"inputs": [
				{
					"internalType": "address",
					"name": "newPresident",
					"type": "address"
				}
			],
			"name": "setPendigPresident",
			"outputs": [],
			"stateMutability": "nonpayable",
			"type": "function"
		},
		{
			"inputs": [
				{
					"internalType": "address",
					"name": "newGCAddress",
					"type": "address"
				}
			],
			"name": "setPendingGovernanceContractAddress",
			"outputs": [],
			"stateMutability": "nonpayable",
			"type": "function"
		},
		{
			"inputs": [
				{
					"internalType": "address",
					"name": "newPM",
					"type": "address"
				}
			],
			"name": "setPendingPrimeMinister",
			"outputs": [],
			"stateMutability": "nonpayable",
			"type": "function"
		},
		{
			"inputs": [
				{
					"internalType": "address",
					"name": "newRAddress",
					"type": "address"
				}
			],
			"name": "setPendingRepublicAddress",
			"outputs": [],
			"stateMutability": "nonpayable",
			"type": "function"
		},
		{
			"inputs": [
				{
					"internalType": "bool",
					"name": "baned",
					"type": "bool"
				}
			],
			"name": "setPresidentBaned",
			"outputs": [],
			"stateMutability": "nonpayable",
			"type": "function"
		},
		{
			"inputs": [
				{
					"internalType": "bool",
					"name": "baned",
					"type": "bool"
				}
			],
			"name": "setPrimeMinister",
			"outputs": [],
			"stateMutability": "nonpayable",
			"type": "function"
		},
		{
			"inputs": [
				{
					"internalType": "uint32",
					"name": "time",
					"type": "uint32"
				},
				{
					"internalType": "bytes32",
					"name": "varName",
					"type": "bytes32"
				}
			],
			"name": "setvoteTiming",
			"outputs": [],
			"stateMutability": "nonpayable",
			"type": "function"
		},
		{
			"inputs": [
				{
					"internalType": "uint256",
					"name": "proposalId",
					"type": "uint256"
				}
			],
			"name": "state",
			"outputs": [
				{
					"internalType": "enum TokenNamGovernor.ProposalState",
					"name": "",
					"type": "uint8"
				}
			],
			"stateMutability": "nonpayable",
			"type": "function"
		},
		{
			"inputs": [
				{
					"internalType": "address",
					"name": "pendingGCAdd",
					"type": "address"
				}
			],
			"name": "transferGovernanceContractAddress",
			"outputs": [],
			"stateMutability": "nonpayable",
			"type": "function"
		},
		{
			"inputs": [],
			"name": "transferPresident",
			"outputs": [],
			"stateMutability": "nonpayable",
			"type": "function"
		},
		{
			"inputs": [],
			"name": "transferPrimeMinister",
			"outputs": [],
			"stateMutability": "nonpayable",
			"type": "function"
		},
		{
			"inputs": [
				{
					"internalType": "address",
					"name": "RAddress",
					"type": "address"
				}
			],
			"name": "transferRepublicAddress",
			"outputs": [],
			"stateMutability": "nonpayable",
			"type": "function"
		},
		{
			"inputs": [],
			"name": "version",
			"outputs": [
				{
					"internalType": "string",
					"name": "",
					"type": "string"
				}
			],
			"stateMutability": "pure",
			"type": "function"
		}
	]
}