{
	"data": {
		"bytecode": {
			"linkReferences": {},
			"object": "6101a06040525f73ffffffffffffffffffffffffffffffffffffffff166101609073ffffffffffffffffffffffffffffffffffffffff1681525062015180600c5f6101000a81548163ffffffff021916908363ffffffff16021790555062015180600c60046101000a81548163ffffffff021916908363ffffffff16021790555062093a80600c60086101000a81548163ffffffff021916908363ffffffff160217905550348015620000b0575f80fd5b506040516200552a3803806200552a8339818101604052810190620000d6919062000546565b80620000e76200026060201b60201c565b620000fc5f836200029d60201b90919060201c565b61012081815250506200011a6001826200029d60201b90919060201c565b6101408181525050818051906020012060e08181525050808051906020012061010081815250504660a0818152505062000159620002f260201b60201c565b608081815250503073ffffffffffffffffffffffffffffffffffffffff1660c08173ffffffffffffffffffffffffffffffffffffffff168152505050506316a8c80042620001a89190620005cb565b65ffffffffffff166101808165ffffffffffff16815250503360065f015f6101000a81548173ffffffffffffffffffffffffffffffffffffffff021916908373ffffffffffffffffffffffffffffffffffffffff16021790555060065f01601581819054906101000a900463ffffffff1680929190620002289062000614565b91906101000a81548163ffffffff021916908363ffffffff1602179055505080600b908162000258919062000872565b505062000b2f565b60606040518060400160405280600181526020017f3100000000000000000000000000000000000000000000000000000000000000815250905090565b5f602083511015620002c257620002ba836200034e60201b60201c565b9050620002ec565b82620002d483620003b860201b60201c565b5f019081620002e4919062000872565b5060ff5f1b90505b92915050565b5f7f8b73c3c69bb8fe3d512ecc4cf759cc79239f7b179b0ffacaa9a75d522b39400f60e05161010051463060405160200162000333959493929190620009c4565b60405160208183030381529060405280519060200120905090565b5f80829050601f815111156200039d57826040517f305a27a900000000000000000000000000000000000000000000000000000000815260040162000394919062000a6f565b60405180910390fd5b805181620003ab9062000ac0565b5f1c175f1b915050919050565b5f819050919050565b5f604051905090565b5f80fd5b5f80fd5b5f80fd5b5f80fd5b5f601f19601f8301169050919050565b7f4e487b71000000000000000000000000000000000000000000000000000000005f52604160045260245ffd5b6200042282620003da565b810181811067ffffffffffffffff82111715620004445762000443620003ea565b5b80604052505050565b5f62000458620003c1565b905062000466828262000417565b919050565b5f67ffffffffffffffff821115620004885762000487620003ea565b5b6200049382620003da565b9050602081019050919050565b5f5b83811015620004bf578082015181840152602081019050620004a2565b5f8484015250505050565b5f620004e0620004da846200046b565b6200044d565b905082815260208101848484011115620004ff57620004fe620003d6565b5b6200050c848285620004a0565b509392505050565b5f82601f8301126200052b576200052a620003d2565b5b81516200053d848260208601620004ca565b91505092915050565b5f602082840312156200055e576200055d620003ca565b5b5f82015167ffffffffffffffff8111156200057e576200057d620003ce565b5b6200058c8482850162000514565b91505092915050565b5f819050919050565b7f4e487b71000000000000000000000000000000000000000000000000000000005f52601160045260245ffd5b5f620005d78262000595565b9150620005e48362000595565b9250828201905080821115620005ff57620005fe6200059e565b5b92915050565b5f63ffffffff82169050919050565b5f620006208262000605565b915063ffffffff82036200063957620006386200059e565b5b600182019050919050565b5f81519050919050565b7f4e487b71000000000000000000000000000000000000000000000000000000005f52602260045260245ffd5b5f60028204905060018216806200069357607f821691505b602082108103620006a957620006a86200064e565b5b50919050565b5f819050815f5260205f209050919050565b5f6020601f8301049050919050565b5f82821b905092915050565b5f600883026200070d7fffffffffffffffffffffffffffffffffffffffffffffffffffffffffffffffff82620006d0565b620007198683620006d0565b95508019841693508086168417925050509392505050565b5f819050919050565b5f6200075a620007546200074e8462000595565b62000731565b62000595565b9050919050565b5f819050919050565b62000775836200073a565b6200078d620007848262000761565b848454620006dc565b825550505050565b5f90565b620007a362000795565b620007b08184846200076a565b505050565b5b81811015620007d757620007cb5f8262000799565b600181019050620007b6565b5050565b601f8211156200082657620007f081620006af565b620007fb84620006c1565b810160208510156200080b578190505b620008236200081a85620006c1565b830182620007b5565b50505b505050565b5f82821c905092915050565b5f620008485f19846008026200082b565b1980831691505092915050565b5f62000862838362000837565b9150826002028217905092915050565b6200087d8262000644565b67ffffffffffffffff811115620008995762000898620003ea565b5b620008a582546200067b565b620008b2828285620007db565b5f60209050601f831160018114620008e8575f8415620008d3578287015190505b620008df858262000855565b8655506200094e565b601f198416620008f886620006af565b5f5b828110156200092157848901518255600182019150602085019450602081019050620008fa565b868310156200094157848901516200093d601f89168262000837565b8355505b6001600288020188555050505b505050505050565b5f819050919050565b6200096a8162000956565b82525050565b6200097b8162000595565b82525050565b5f73ffffffffffffffffffffffffffffffffffffffff82169050919050565b5f620009ac8262000981565b9050919050565b620009be81620009a0565b82525050565b5f60a082019050620009d95f8301886200095f565b620009e860208301876200095f565b620009f760408301866200095f565b62000a06606083018562000970565b62000a156080830184620009b3565b9695505050505050565b5f82825260208201905092915050565b5f62000a3b8262000644565b62000a47818562000a1f565b935062000a59818560208601620004a0565b62000a6481620003da565b840191505092915050565b5f6020820190508181035f83015262000a89818462000a2f565b905092915050565b5f81519050919050565b5f819050602082019050919050565b5f62000ab7825162000956565b80915050919050565b5f62000acc8262000a91565b8262000ad88462000a9b565b905062000ae58162000aaa565b9250602082101562000b285762000b237fffffffffffffffffffffffffffffffffffffffffffffffffffffffffffffffff83602003600802620006d0565b831692505b5050919050565b60805160a05160c05160e051610100516101205161014051610160516101805161498162000ba95f395f818161062501528181610c18015281816112e901528181611bb30152818161215b015261298701525f6122bc01525f6130c501525f61308a01525f50505f50505f50505f50505f50506149815ff3fe608060405234801561000f575f80fd5b5060043610610204575f3560e01c8063667d639b11610118578063c387b49c116100ab578063e35b31b71161007a578063e35b31b71461057e578063e47a9d46146105ae578063e4f3e947146105cc578063ee7126c3146105ea578063f5f9cdd41461060657610204565b8063c387b49c146104f6578063c5a1c5c114610514578063c8021c2e14610532578063ca4cce681461056257610204565b8063861a179d116100e7578063861a179d1461048457806388aa4c12146104a0578063a53da00b146104bc578063b5c09c68146104da57610204565b8063667d639b1461040a5780636cf106d71461042657806384b0196e14610444578063854884081461046857610204565b806337676f791161019b5780634bf5d7e91161016a5780634bf5d7e914610376578063544fa93e1461039457806354fd4d50146103b05780635dad85c2146103ce57806366410997146103ec57610204565b806337676f79146102f05780633a8512b41461030e5780633e4f49e61461032a5780634494acd91461035a57610204565b80631f86aa2a116101d75780631f86aa2a14610256578063289b3c0d1461027257806331d133c2146102905780633610feb3146102c057610204565b8063054203bd1461020857806306fdde03146102245780630df4c3901461024257806318074eee1461024c575b5f80fd5b610222600480360381019061021d91906134c1565b610622565b005b61022c6107ed565b6040516102399190613576565b60405180910390f35b61024a61087d565b005b610254610a3d565b005b610270600480360381019061026b91906134c1565b610c15565b005b61027a610f06565b60405161028791906135a5565b60405180910390f35b6102aa60048036038101906102a59190613750565b610f30565b6040516102b791906137df565b60405180910390f35b6102da60048036038101906102d591906134c1565b610f6a565b6040516102e79190613812565b60405180910390f35b6102f8610f70565b60405161030591906135a5565b60405180910390f35b6103286004803603810190610323919061382b565b610f9a565b005b610344600480360381019061033f9190613869565b611019565b6040516103519190613907565b60405180910390f35b610374600480360381019061036f91906134c1565b6112e6565b005b61037e61152e565b60405161038b9190613576565b60405180910390f35b6103ae60048036038101906103a991906134c1565b61156b565b005b6103b8611677565b6040516103c59190613576565b60405180910390f35b6103d66116b4565b6040516103e391906137df565b60405180910390f35b6103f46116bb565b60405161040191906135a5565b60405180910390f35b610424600480360381019061041f9190613959565b6116e5565b005b61042e6118a2565b60405161043b9190613812565b60405180910390f35b61044c6118ba565b60405161045f9796959493929190613a97565b60405180910390f35b610482600480360381019061047d9190613750565b61195f565b005b61049e600480360381019061049991906134c1565b611bb0565b005b6104ba60048036038101906104b59190613750565b611e60565b005b6104c461212e565b6040516104d191906135a5565b60405180910390f35b6104f460048036038101906104ef9190613b43565b612158565b005b6104fe61229e565b60405161050b9190613b7d565b60405180910390f35b61051c6122b9565b60405161052991906135a5565b60405180910390f35b61054c60048036038101906105479190613b96565b6122e0565b60405161055991906137df565b60405180910390f35b61057c600480360381019061057791906134c1565b612984565b005b61059860048036038101906105939190613c4f565b612b9c565b6040516105a59190613812565b60405180910390f35b6105b6612ba4565b6040516105c391906135a5565b60405180910390f35b6105d4612bab565b6040516105e19190613812565b60405180910390f35b61060460048036038101906105ff91906134c1565b612bc3565b005b610620600480360381019061061b9190613b43565b612e0c565b005b427f000000000000000000000000000000000000000000000000000000000000000065ffffffffffff1610156106cc5761065a6122b9565b73ffffffffffffffffffffffffffffffffffffffff163373ffffffffffffffffffffffffffffffffffffffff16146106c7576040517f08c379a00000000000000000000000000000000000000000000000000000000081526004016106be90613ce9565b60405180910390fd5b610753565b6106d46116bb565b73ffffffffffffffffffffffffffffffffffffffff163373ffffffffffffffffffffffffffffffffffffffff1614801561071357506107116118a2565b155b610752576040517f08c379a000000000000000000000000000000000000000000000000000000000815260040161074990613ce9565b60405180910390fd5b5b8060045f6101000a81548173ffffffffffffffffffffffffffffffffffffffff021916908373ffffffffffffffffffffffffffffffffffffffff16021790555061079d6001612e9e565b6107a76001612ebd565b8073ffffffffffffffffffffffffffffffffffffffff167f3553f1f7ef0242113266a8d183b621bb87468c99237f36b1150b6ab3d688b68660405160405180910390a250565b6060600b80546107fc90613d34565b80601f016020809104026020016040519081016040528092919081815260200182805461082890613d34565b80156108735780601f1061084a57610100808354040283529160200191610873565b820191905f5260205f20905b81548152906001019060200180831161085657829003601f168201915b5050505050905090565b3373ffffffffffffffffffffffffffffffffffffffff1660045f9054906101000a900473ffffffffffffffffffffffffffffffffffffffff1673ffffffffffffffffffffffffffffffffffffffff1603610a095760045f6101000a81549073ffffffffffffffffffffffffffffffffffffffff02191690553360065f015f6101000a81548173ffffffffffffffffffffffffffffffffffffffff021916908373ffffffffffffffffffffffffffffffffffffffff16021790555060065f01601581819054906101000a900463ffffffff168092919061095b90613d91565b91906101000a81548163ffffffff021916908363ffffffff160217905550506109835f612e9e565b60065f0160159054906101000a900463ffffffff1663ffffffff1660065f015f9054906101000a900473ffffffffffffffffffffffffffffffffffffffff1673ffffffffffffffffffffffffffffffffffffffff167f05ad9b3688012cd825c1bfb941e4f5afb2558af6af3deaddf01dbb5e85abdaf960405160405180910390a3610a3b565b6040517f6c4360f000000000000000000000000000000000000000000000000000000000815260040160405180910390fd5b565b3373ffffffffffffffffffffffffffffffffffffffff1660055f9054906101000a900473ffffffffffffffffffffffffffffffffffffffff1673ffffffffffffffffffffffffffffffffffffffff1603610be15760055f6101000a81549073ffffffffffffffffffffffffffffffffffffffff02191690553360075f015f6101000a81548173ffffffffffffffffffffffffffffffffffffffff021916908373ffffffffffffffffffffffffffffffffffffffff16021790555060075f01601581819054906101000a900463ffffffff1680929190610b1b90613d91565b91906101000a81548163ffffffff021916908363ffffffff1602179055505060075f0160149054906101000a900460ff1615610b5b57610b5a5f612ebd565b5b60075f0160159054906101000a900463ffffffff1663ffffffff1660075f015f9054906101000a900473ffffffffffffffffffffffffffffffffffffffff1673ffffffffffffffffffffffffffffffffffffffff167f11e1b985c07e1bf3fec9bfd0bdb8c4a8e870ba2b26aa89fe50a6a19132ca10fd60405160405180910390a3610c13565b6040517f6c4360f000000000000000000000000000000000000000000000000000000000815260040160405180910390fd5b565b427f000000000000000000000000000000000000000000000000000000000000000065ffffffffffff161015610cbf57610c4d6122b9565b73ffffffffffffffffffffffffffffffffffffffff163373ffffffffffffffffffffffffffffffffffffffff1614610cba576040517f08c379a0000000000000000000000000000000000000000000000000000000008152600401610cb190613ce9565b60405180910390fd5b610d46565b610cc76116bb565b73ffffffffffffffffffffffffffffffffffffffff163373ffffffffffffffffffffffffffffffffffffffff16148015610d065750610d046118a2565b155b610d45576040517f08c379a0000000000000000000000000000000000000000000000000000000008152600401610d3c90613ce9565b60405180910390fd5b5b42600560149054906101000a900465ffffffffffff1665ffffffffffff161015610ea7575f600560149054906101000a900465ffffffffffff1665ffffffffffff1603610dc8576040517f08c379a0000000000000000000000000000000000000000000000000000000008152600401610dbf90613e06565b60405180910390fd5b8073ffffffffffffffffffffffffffffffffffffffff1660025f9054906101000a900473ffffffffffffffffffffffffffffffffffffffff1673ffffffffffffffffffffffffffffffffffffffff1603610e6557600560146101000a81549065ffffffffffff021916905560025f6101000a81549073ffffffffffffffffffffffffffffffffffffffff0219169055610e6081612edc565b610ea2565b806040517fc6322315000000000000000000000000000000000000000000000000000000008152600401610e9991906135a5565b60405180910390fd5b610f03565b42600560149054906101000a900465ffffffffffff16610ec79190613e35565b6040517f223a6cbb000000000000000000000000000000000000000000000000000000008152600401610efa9190613e7d565b60405180910390fd5b50565b5f60085f015f9054906101000a900473ffffffffffffffffffffffffffffffffffffffff16905090565b5f84848484604051602001610f489493929190613ee8565b604051602081830303815290604052805190602001205f1c9050949350505050565b5f919050565b5f60095f015f9054906101000a900473ffffffffffffffffffffffffffffffffffffffff16905090565b80600a5f8473ffffffffffffffffffffffffffffffffffffffff1673ffffffffffffffffffffffffffffffffffffffff1681526020019081526020015f205f6101000a81548173ffffffffffffffffffffffffffffffffffffffff021916908373ffffffffffffffffffffffffffffffffffffffff1602179055505050565b5f80600a5f3373ffffffffffffffffffffffffffffffffffffffff1673ffffffffffffffffffffffffffffffffffffffff1681526020019081526020015f205f9054906101000a900473ffffffffffffffffffffffffffffffffffffffff1690505f8173ffffffffffffffffffffffffffffffffffffffff1663013cf08b856040518263ffffffff1660e01b81526004016110b491906137df565b61014060405180830381865afa1580156110d0573d5f803e3d5ffd5b505050506040513d601f19601f820116820180604052508101906110f491906140c6565b90508060c001511561110b576005925050506112e1565b8060e0015115611120576002925050506112e1565b80610120015115611136576003925050506112e1565b8061010001511561114c576004925050506112e1565b5f816080015165ffffffffffff1690505f81036111a057846040517f6ad0607500000000000000000000000000000000000000000000000000000000815260040161119791906137df565b60405180910390fd5b5f4290508181116111b7575f9450505050506112e1565b5f836020015190505f8190505f8173ffffffffffffffffffffffffffffffffffffffff16635f8d96de6040518163ffffffff1660e01b8152600401602060405180830381865afa15801561120d573d5f803e3d5ffd5b505050506040513d601f19601f820116820180604052508101906112319190614106565b905080841161124a5760019750505050505050506112e1565b5f61125487612fe5565b90505f81600581111561126a57611269613894565b5b90508873ffffffffffffffffffffffffffffffffffffffff16631e9608a8828d6040518363ffffffff1660e01b81526004016112a7929190614131565b5f604051808303815f87803b1580156112be575f80fd5b505af11580156112d0573d5f803e3d5ffd5b505050508199505050505050505050505b919050565b427f000000000000000000000000000000000000000000000000000000000000000065ffffffffffff1610156113905761131e6122b9565b73ffffffffffffffffffffffffffffffffffffffff163373ffffffffffffffffffffffffffffffffffffffff161461138b576040517f08c379a000000000000000000000000000000000000000000000000000000000815260040161138290613ce9565b60405180910390fd5b611417565b6113986116bb565b73ffffffffffffffffffffffffffffffffffffffff163373ffffffffffffffffffffffffffffffffffffffff161480156113d757506113d56118a2565b155b611416576040517f08c379a000000000000000000000000000000000000000000000000000000000815260040161140d90613ce9565b60405180910390fd5b5b8073ffffffffffffffffffffffffffffffffffffffff1660025f9054906101000a900473ffffffffffffffffffffffffffffffffffffffff1673ffffffffffffffffffffffffffffffffffffffff16036114ee57600560146101000a81549065ffffffffffff021916905560025f6101000a81549073ffffffffffffffffffffffffffffffffffffffff02191690558073ffffffffffffffffffffffffffffffffffffffff167f62125dd3d531106ff055aac7090ccec5e1edec1d0db6b0f1355f2ca15475469560405160405180910390a261152b565b806040517fc632231500000000000000000000000000000000000000000000000000000000815260040161152291906135a5565b60405180910390fd5b50565b60606040518060400160405280600a81526020017f54696d65207374616d7000000000000000000000000000000000000000000000815250905090565b6115736116bb565b73ffffffffffffffffffffffffffffffffffffffff163373ffffffffffffffffffffffffffffffffffffffff161480156115b257506115b06118a2565b155b6115f1576040517f08c379a00000000000000000000000000000000000000000000000000000000081526004016115e890613ce9565b60405180910390fd5b8060055f6101000a81548173ffffffffffffffffffffffffffffffffffffffff021916908373ffffffffffffffffffffffffffffffffffffffff1602179055508073ffffffffffffffffffffffffffffffffffffffff167fff3cad3ee28c342ad5f3d7c8ff8559ee4d21eb48494092b82a1652e443b3420b60405160405180910390a250565b60606040518060400160405280600181526020017f3100000000000000000000000000000000000000000000000000000000000000815250905090565b5f42905090565b5f60065f015f9054906101000a900473ffffffffffffffffffffffffffffffffffffffff16905090565b5f816040516020016116f79190614178565b6040516020818303038152906040528051906020012090505f83905081604051602001611723906141e6565b60405160208183030381529060405280519060200120036117965780600c5f6101000a81548163ffffffff021916908363ffffffff1602179055508063ffffffff167fceccf714bc39bde68a069ae4149980bd5382cb4e6723fbdb6e7723728e4885ce60405160405180910390a261189c565b816040516020016117a690614244565b604051602081830303815290604052805190602001200361181a5780600c60046101000a81548163ffffffff021916908363ffffffff1602179055508063ffffffff167fdf149c5d5960b920ba24706165b5dcb67e2ac13ec5c3aa0909fa229bdd328d9760405160405180910390a261189b565b8160405160200161182a906142a2565b604051602081830303815290604052805190602001200361189a5780600c60086101000a81548163ffffffff021916908363ffffffff1602179055508063ffffffff167fc6213165f7e768a76a2092906d1174e3b00c99567acc7e4211898fae0ae2c33c60405160405180910390a25b5b5b50505050565b5f60065f0160149054906101000a900460ff16905090565b5f6060805f805f60606118cb613082565b6118d36130bc565b46305f801b5f67ffffffffffffffff8111156118f2576118f16135f9565b5b6040519080825280602002602001820160405280156119205781602001602082028036833780820191505090505b507f0f00000000000000000000000000000000000000000000000000000000000000959493929190965096509650965096509650965090919293949596565b5f61196c85858585610f30565b90505f600a5f3373ffffffffffffffffffffffffffffffffffffffff1673ffffffffffffffffffffffffffffffffffffffff1681526020019081526020015f205f9054906101000a900473ffffffffffffffffffffffffffffffffffffffff1690505f73ffffffffffffffffffffffffffffffffffffffff168173ffffffffffffffffffffffffffffffffffffffff1614611b6b575f611a0b83611019565b9050600580811115611a2057611a1f613894565b5b816005811115611a3357611a32613894565b5b1480611a63575060026005811115611a4e57611a4d613894565b5b816005811115611a6157611a60613894565b5b145b15611aa557826040517fdf7fe1cd000000000000000000000000000000000000000000000000000000008152600401611a9c91906137df565b60405180910390fd5b5f8290505f8173ffffffffffffffffffffffffffffffffffffffff1663013cf08b866040518263ffffffff1660e01b8152600401611ae391906137df565b61014060405180830381865afa158015611aff573d5f803e3d5ffd5b505050506040513d601f19601f82011682018060405250810190611b2391906140c6565b905060018160e0019015159081151581525050847f789cf55be980739dad1d0699b93b58e806b51c9d96619bfa8fe0a28abaa7b30c60405160405180910390a2505050611ba8565b336040517fda75b54a000000000000000000000000000000000000000000000000000000008152600401611b9f91906135a5565b60405180910390fd5b505050505050565b427f000000000000000000000000000000000000000000000000000000000000000065ffffffffffff161015611c5a57611be86122b9565b73ffffffffffffffffffffffffffffffffffffffff163373ffffffffffffffffffffffffffffffffffffffff1614611c55576040517f08c379a0000000000000000000000000000000000000000000000000000000008152600401611c4c90613ce9565b60405180910390fd5b611ce1565b611c626116bb565b73ffffffffffffffffffffffffffffffffffffffff163373ffffffffffffffffffffffffffffffffffffffff16148015611ca15750611c9f6118a2565b155b611ce0576040517f08c379a0000000000000000000000000000000000000000000000000000000008152600401611cd790613ce9565b60405180910390fd5b5b5f8173ffffffffffffffffffffffffffffffffffffffff163b1115611e20573373ffffffffffffffffffffffffffffffffffffffff1660065f015f9054906101000a900473ffffffffffffffffffffffffffffffffffffffff1673ffffffffffffffffffffffffffffffffffffffff1603611d6457611d5f81612edc565b611e1b565b6213c68042611d7391906142b6565b600560146101000a81548165ffffffffffff021916908365ffffffffffff1602179055508060025f6101000a81548173ffffffffffffffffffffffffffffffffffffffff021916908373ffffffffffffffffffffffffffffffffffffffff1602179055508073ffffffffffffffffffffffffffffffffffffffff167f30b8fe69c9b4c23cc01223881227c0cc8cba5cc56d59263f51711df1a8f2c66760405160405180910390a25b611e5d565b806040517fc6322315000000000000000000000000000000000000000000000000000000008152600401611e5491906135a5565b60405180910390fd5b50565b3373ffffffffffffffffffffffffffffffffffffffff168473ffffffffffffffffffffffffffffffffffffffff16036120eb575f611ea085858585610f30565b90505f611eac82611019565b905060046005811115611ec257611ec1613894565b5b816005811115611ed557611ed4613894565b5b03612049575f600a5f3373ffffffffffffffffffffffffffffffffffffffff1673ffffffffffffffffffffffffffffffffffffffff1681526020019081526020015f205f9054906101000a900473ffffffffffffffffffffffffffffffffffffffff1690508073ffffffffffffffffffffffffffffffffffffffff16631e9608a86005856040518363ffffffff1660e01b8152600401611f7692919061432b565b5f604051808303815f87803b158015611f8d575f80fd5b505af1158015611f9f573d5f803e3d5ffd5b5050505082600a5f3373ffffffffffffffffffffffffffffffffffffffff1673ffffffffffffffffffffffffffffffffffffffff1681526020019081526020015f205f9054906101000a900473ffffffffffffffffffffffffffffffffffffffff1673ffffffffffffffffffffffffffffffffffffffff167f63d1cc08aaae6e4c1e85034d4067073ea84d1113b6281a146a76156a7b3a9a3160405160405180910390a3506120e4565b600a5f3373ffffffffffffffffffffffffffffffffffffffff1673ffffffffffffffffffffffffffffffffffffffff1681526020019081526020015f205f9054906101000a900473ffffffffffffffffffffffffffffffffffffffff16826040517f5f1e5ab60000000000000000000000000000000000000000000000000000000081526004016120db929190614352565b60405180910390fd5b5050612128565b336040517fda75b54a00000000000000000000000000000000000000000000000000000000815260040161211f91906135a5565b60405180910390fd5b50505050565b5f60075f015f9054906101000a900473ffffffffffffffffffffffffffffffffffffffff16905090565b427f000000000000000000000000000000000000000000000000000000000000000065ffffffffffff161015612202576121906122b9565b73ffffffffffffffffffffffffffffffffffffffff163373ffffffffffffffffffffffffffffffffffffffff16146121fd576040517f08c379a00000000000000000000000000000000000000000000000000000000081526004016121f490613ce9565b60405180910390fd5b612289565b61220a6116bb565b73ffffffffffffffffffffffffffffffffffffffff163373ffffffffffffffffffffffffffffffffffffffff1614801561224957506122476118a2565b155b612288576040517f08c379a000000000000000000000000000000000000000000000000000000000815260040161227f90613ce9565b60405180910390fd5b5b61229281612e9e565b61229b81612ebd565b50565b5f60085f0160159054906101000a900463ffffffff16905090565b5f7f0000000000000000000000000000000000000000000000000000000000000000905090565b5f3373ffffffffffffffffffffffffffffffffffffffff168473ffffffffffffffffffffffffffffffffffffffff161461234f576040517f08c379a0000000000000000000000000000000000000000000000000000000008152600401612346906143c3565b60405180910390fd5b5f600a5f8673ffffffffffffffffffffffffffffffffffffffff1673ffffffffffffffffffffffffffffffffffffffff1681526020019081526020015f205f9054906101000a900473ffffffffffffffffffffffffffffffffffffffff1690505f8390508073ffffffffffffffffffffffffffffffffffffffff1663ec5bf07b6040518163ffffffff1660e01b8152600401602060405180830381865afa1580156123fc573d5f803e3d5ffd5b505050506040513d601f19601f820116820180604052508101906124209190614106565b92505f8273ffffffffffffffffffffffffffffffffffffffff1663013cf08b856040518263ffffffff1660e01b815260040161245c91906137df565b61014060405180830381865afa158015612478573d5f803e3d5ffd5b505050506040513d601f19601f8201168201806040525081019061249c91906140c6565b90505f816080015165ffffffffffff16146124ee57836040517f4ace25250000000000000000000000000000000000000000000000000000000081526004016124e591906137df565b60405180910390fd5b5f8273ffffffffffffffffffffffffffffffffffffffff1663bc33c7d76040518163ffffffff1660e01b81526004015f60405180830381865afa158015612537573d5f803e3d5ffd5b505050506040513d5f823e3d601f19601f8201168201806040525081019061255f9190614493565b93505050503073ffffffffffffffffffffffffffffffffffffffff168173ffffffffffffffffffffffffffffffffffffffff16146125d457806040517f4e5c69dd0000000000000000000000000000000000000000000000000000000081526004016125cb91906135a5565b60405180910390fd5b5f805f8573ffffffffffffffffffffffffffffffffffffffff16634731ca2b6040518163ffffffff1660e01b8152600401606060405180830381865afa158015612620573d5f803e3d5ffd5b505050506040513d601f19601f82011682018060405250810190612644919061452f565b9250925092508273ffffffffffffffffffffffffffffffffffffffff168b73ffffffffffffffffffffffffffffffffffffffff161415806126b157508173ffffffffffffffffffffffffffffffffffffffff168a73ffffffffffffffffffffffffffffffffffffffff1614155b806126bc5750808c14155b15612702578282826040517fcb57cbf90000000000000000000000000000000000000000000000000000000081526004016126f99392919061457f565b60405180910390fd5b5f805f808973ffffffffffffffffffffffffffffffffffffffff1663b3a052466040518163ffffffff1660e01b8152600401608060405180830381865afa15801561274f573d5f803e3d5ffd5b505050506040513d601f19601f8201168201806040525081019061277391906145b4565b9350935093509350612784846130f7565b6127c557836040517f95ff727f0000000000000000000000000000000000000000000000000000000081526004016127bc9190614627565b60405180910390fd5b600c5f9054906101000a900463ffffffff1663ffffffff168363ffffffff16108061281a5750600c60089054906101000a900463ffffffff1663ffffffff164261280f91906142b6565b8265ffffffffffff16105b806128445750600c60049054906101000a900463ffffffff1663ffffffff168165ffffffffffff16105b1561288a578282826040517f5b93d0dc00000000000000000000000000000000000000000000000000000000815260040161288193929190614640565b60405180910390fd5b5f8d90508073ffffffffffffffffffffffffffffffffffffffff167f0ab14f904fb707b2337015c668e6429ca3170390b1c36260d7739566b9c822a560405160405180910390a28b73ffffffffffffffffffffffffffffffffffffffff16634a9c7caa8e878787878d886040518863ffffffff1660e01b81526004016129169796959493929190614675565b5f604051808303815f87803b15801561292d575f80fd5b505af115801561293f573d5f803e3d5ffd5b505050508c7fabf79943a752fab9ef8890892a82188e44e66a2cd2d8e411ae3ef82475ae49c860405160405180910390a2505050505050505050505050949350505050565b427f000000000000000000000000000000000000000000000000000000000000000065ffffffffffff161015612a2e576129bc6122b9565b73ffffffffffffffffffffffffffffffffffffffff163373ffffffffffffffffffffffffffffffffffffffff1614612a29576040517f08c379a0000000000000000000000000000000000000000000000000000000008152600401612a2090613ce9565b60405180910390fd5b612ab5565b612a366116bb565b73ffffffffffffffffffffffffffffffffffffffff163373ffffffffffffffffffffffffffffffffffffffff16148015612a755750612a736118a2565b155b612ab4576040517f08c379a0000000000000000000000000000000000000000000000000000000008152600401612aab90613ce9565b60405180910390fd5b5b5f8173ffffffffffffffffffffffffffffffffffffffff163b1115612b5c578060035f6101000a81548173ffffffffffffffffffffffffffffffffffffffff021916908373ffffffffffffffffffffffffffffffffffffffff1602179055508073ffffffffffffffffffffffffffffffffffffffff167fe8d8e3c7c3ebec0c177d0fe22d223f8b5071db39155104808d45027e368ba77a60405160405180910390a2612b99565b806040517f84dbc6cb000000000000000000000000000000000000000000000000000000008152600401612b9091906135a5565b60405180910390fd5b50565b5f9392505050565b5f30905090565b5f60075f0160149054906101000a900460ff16905090565b612bcb6116bb565b73ffffffffffffffffffffffffffffffffffffffff163373ffffffffffffffffffffffffffffffffffffffff16148015612c0a5750612c086118a2565b155b612c49576040517f08c379a0000000000000000000000000000000000000000000000000000000008152600401612c4090613ce9565b60405180910390fd5b8073ffffffffffffffffffffffffffffffffffffffff1660035f9054906101000a900473ffffffffffffffffffffffffffffffffffffffff1673ffffffffffffffffffffffffffffffffffffffff1603612dcc5760035f6101000a81549073ffffffffffffffffffffffffffffffffffffffff02191690558060085f015f6101000a81548173ffffffffffffffffffffffffffffffffffffffff021916908373ffffffffffffffffffffffffffffffffffffffff16021790555060085f01601581819054906101000a900463ffffffff1680929190612d2790613d91565b91906101000a81548163ffffffff021916908363ffffffff1602179055505060085f0160159054906101000a900463ffffffff1663ffffffff1660085f015f9054906101000a900473ffffffffffffffffffffffffffffffffffffffff1673ffffffffffffffffffffffffffffffffffffffff167f5e86008a8467d1efccfe6cb6bd49ba7278d6af2745a1e6994e443322a423709360405160405180910390a3612e09565b806040517f84dbc6cb000000000000000000000000000000000000000000000000000000008152600401612e0091906135a5565b60405180910390fd5b50565b612e146116bb565b73ffffffffffffffffffffffffffffffffffffffff163373ffffffffffffffffffffffffffffffffffffffff16148015612e535750612e516118a2565b155b612e92576040517f08c379a0000000000000000000000000000000000000000000000000000000008152600401612e8990613ce9565b60405180910390fd5b612e9b81612ebd565b50565b8060065f0160146101000a81548160ff02191690831515021790555050565b8060075f0160146101000a81548160ff02191690831515021790555050565b8060095f015f6101000a81548173ffffffffffffffffffffffffffffffffffffffff021916908373ffffffffffffffffffffffffffffffffffffffff16021790555060095f01601581819054906101000a900463ffffffff1680929190612f4290613d91565b91906101000a81548163ffffffff021916908363ffffffff1602179055505060095f0160159054906101000a900463ffffffff1663ffffffff1660095f015f9054906101000a900473ffffffffffffffffffffffffffffffffffffffff1673ffffffffffffffffffffffffffffffffffffffff167fb88ef4c2b55163ed88bcf28dadfee0092169b7a9a712ceb09ff75e6d2d4ba63b60405160405180910390a350565b5f80826020015190505f8190505f8173ffffffffffffffffffffffffffffffffffffffff1663cfb62dee6040518163ffffffff1660e01b81526004016020604051808303815f875af115801561303d573d5f803e3d5ffd5b505050506040513d601f19601f8201168201806040525081019061306191906146e2565b90508015613075576004935050505061307d565b600393505050505b919050565b60606130b75f7f00000000000000000000000000000000000000000000000000000000000000006132e990919063ffffffff16565b905090565b60606130f260017f00000000000000000000000000000000000000000000000000000000000000006132e990919063ffffffff16565b905090565b5f80600a5f3373ffffffffffffffffffffffffffffffffffffffff1673ffffffffffffffffffffffffffffffffffffffff1681526020019081526020015f205f9054906101000a900473ffffffffffffffffffffffffffffffffffffffff1690505f8173ffffffffffffffffffffffffffffffffffffffff1663c34fe7036040518163ffffffff1660e01b815260040161319090614733565b61962060405180830381865afa1580156131ac573d5f803e3d5ffd5b505050506040513d601f19601f820116820180604052508101906131d091906147fd565b90505f4290505f624f1a00826131e69190614829565b90505f80600190505b6104b08161ffff161161327c575f858261ffff166104b181106132155761321461485c565b5b602002015165ffffffffffff16031561327c57848161ffff166104b181106132405761323f61485c565b5b602002015165ffffffffffff168365ffffffffffff161015613269578161326690614889565b91505b808061327490614889565b9150506131ef565b60028161328991906148df565b61ffff168861ffff1611156132a757600196505050505050506132e4565b60466064838a6132b791906148df565b6132c1919061490f565b61ffff1611156132da57600196505050505050506132e4565b5f96505050505050505b919050565b606060ff5f1b8314613305576132fe83613396565b9050613390565b81805461331190613d34565b80601f016020809104026020016040519081016040528092919081815260200182805461333d90613d34565b80156133885780601f1061335f57610100808354040283529160200191613388565b820191905f5260205f20905b81548152906001019060200180831161336b57829003601f168201915b505050505090505b92915050565b60605f6133a283613408565b90505f602067ffffffffffffffff8111156133c0576133bf6135f9565b5b6040519080825280601f01601f1916602001820160405280156133f25781602001600182028036833780820191505090505b5090508181528360208201528092505050919050565b5f8060ff835f1c169050601f81111561344d576040517fb3512b0c00000000000000000000000000000000000000000000000000000000815260040160405180910390fd5b80915050919050565b5f604051905090565b5f80fd5b5f80fd5b5f73ffffffffffffffffffffffffffffffffffffffff82169050919050565b5f61349082613467565b9050919050565b6134a081613486565b81146134aa575f80fd5b50565b5f813590506134bb81613497565b92915050565b5f602082840312156134d6576134d561345f565b5b5f6134e3848285016134ad565b91505092915050565b5f81519050919050565b5f82825260208201905092915050565b5f5b83811015613523578082015181840152602081019050613508565b5f8484015250505050565b5f601f19601f8301169050919050565b5f613548826134ec565b61355281856134f6565b9350613562818560208601613506565b61356b8161352e565b840191505092915050565b5f6020820190508181035f83015261358e818461353e565b905092915050565b61359f81613486565b82525050565b5f6020820190506135b85f830184613596565b92915050565b5f819050919050565b6135d0816135be565b81146135da575f80fd5b50565b5f813590506135eb816135c7565b92915050565b5f80fd5b5f80fd5b7f4e487b71000000000000000000000000000000000000000000000000000000005f52604160045260245ffd5b61362f8261352e565b810181811067ffffffffffffffff8211171561364e5761364d6135f9565b5b80604052505050565b5f613660613456565b905061366c8282613626565b919050565b5f67ffffffffffffffff82111561368b5761368a6135f9565b5b6136948261352e565b9050602081019050919050565b828183375f83830152505050565b5f6136c16136bc84613671565b613657565b9050828152602081018484840111156136dd576136dc6135f5565b5b6136e88482856136a1565b509392505050565b5f82601f830112613704576137036135f1565b5b81356137148482602086016136af565b91505092915050565b5f819050919050565b61372f8161371d565b8114613739575f80fd5b50565b5f8135905061374a81613726565b92915050565b5f805f80608085870312156137685761376761345f565b5b5f613775878288016134ad565b9450506020613786878288016135dd565b935050604085013567ffffffffffffffff8111156137a7576137a6613463565b5b6137b3878288016136f0565b92505060606137c48782880161373c565b91505092959194509250565b6137d9816135be565b82525050565b5f6020820190506137f25f8301846137d0565b92915050565b5f8115159050919050565b61380c816137f8565b82525050565b5f6020820190506138255f830184613803565b92915050565b5f80604083850312156138415761384061345f565b5b5f61384e858286016134ad565b925050602061385f858286016134ad565b9150509250929050565b5f6020828403121561387e5761387d61345f565b5b5f61388b848285016135dd565b91505092915050565b7f4e487b71000000000000000000000000000000000000000000000000000000005f52602160045260245ffd5b600681106138d2576138d1613894565b5b50565b5f8190506138e2826138c1565b919050565b5f6138f1826138d5565b9050919050565b613901816138e7565b82525050565b5f60208201905061391a5f8301846138f8565b92915050565b5f63ffffffff82169050919050565b61393881613920565b8114613942575f80fd5b50565b5f813590506139538161392f565b92915050565b5f806040838503121561396f5761396e61345f565b5b5f61397c85828601613945565b925050602061398d8582860161373c565b9150509250929050565b5f7fff0000000000000000000000000000000000000000000000000000000000000082169050919050565b6139cb81613997565b82525050565b6139da8161371d565b82525050565b5f81519050919050565b5f82825260208201905092915050565b5f819050602082019050919050565b613a12816135be565b82525050565b5f613a238383613a09565b60208301905092915050565b5f602082019050919050565b5f613a45826139e0565b613a4f81856139ea565b9350613a5a836139fa565b805f5b83811015613a8a578151613a718882613a18565b9750613a7c83613a2f565b925050600181019050613a5d565b5085935050505092915050565b5f60e082019050613aaa5f83018a6139c2565b8181036020830152613abc818961353e565b90508181036040830152613ad0818861353e565b9050613adf60608301876137d0565b613aec6080830186613596565b613af960a08301856139d1565b81810360c0830152613b0b8184613a3b565b905098975050505050505050565b613b22816137f8565b8114613b2c575f80fd5b50565b5f81359050613b3d81613b19565b92915050565b5f60208284031215613b5857613b5761345f565b5b5f613b6584828501613b2f565b91505092915050565b613b7781613920565b82525050565b5f602082019050613b905f830184613b6e565b92915050565b5f805f8060808587031215613bae57613bad61345f565b5b5f613bbb878288016135dd565b9450506020613bcc878288016134ad565b9350506040613bdd878288016134ad565b9250506060613bee878288016134ad565b91505092959194509250565b5f7fffffffff0000000000000000000000000000000000000000000000000000000082169050919050565b613c2e81613bfa565b8114613c38575f80fd5b50565b5f81359050613c4981613c25565b92915050565b5f805f60608486031215613c6657613c6561345f565b5b5f613c73868287016134ad565b9350506020613c84868287016134ad565b9250506040613c9586828701613c3b565b9150509250925092565b7f416363657373206973206e6f742076616c6964000000000000000000000000005f82015250565b5f613cd36013836134f6565b9150613cde82613c9f565b602082019050919050565b5f6020820190508181035f830152613d0081613cc7565b9050919050565b7f4e487b71000000000000000000000000000000000000000000000000000000005f52602260045260245ffd5b5f6002820490506001821680613d4b57607f821691505b602082108103613d5e57613d5d613d07565b5b50919050565b7f4e487b71000000000000000000000000000000000000000000000000000000005f52601160045260245ffd5b5f613d9b82613920565b915063ffffffff8203613db157613db0613d64565b5b600182019050919050565b7f546865207265717565737420697320696e76616c6964000000000000000000005f82015250565b5f613df06016836134f6565b9150613dfb82613dbc565b602082019050919050565b5f6020820190508181035f830152613e1d81613de4565b9050919050565b5f65ffffffffffff82169050919050565b5f613e3f82613e24565b9150613e4a83613e24565b9250828203905065ffffffffffff811115613e6857613e67613d64565b5b92915050565b613e7781613e24565b82525050565b5f602082019050613e905f830184613e6e565b92915050565b5f81519050919050565b5f82825260208201905092915050565b5f613eba82613e96565b613ec48185613ea0565b9350613ed4818560208601613506565b613edd8161352e565b840191505092915050565b5f608082019050613efb5f830187613596565b613f0860208301866137d0565b8181036040830152613f1a8185613eb0565b9050613f2960608301846139d1565b95945050505050565b5f80fd5b5f81519050613f4481613497565b92915050565b5f61ffff82169050919050565b613f6081613f4a565b8114613f6a575f80fd5b50565b5f81519050613f7b81613f57565b92915050565b5f81519050613f8f8161392f565b92915050565b613f9e81613e24565b8114613fa8575f80fd5b50565b5f81519050613fb981613f95565b92915050565b5f81519050613fcd81613b19565b92915050565b5f6101408284031215613fe957613fe8613f32565b5b613ff4610140613657565b90505f61400384828501613f36565b5f83015250602061401684828501613f36565b602083015250604061402a84828501613f6d565b604083015250606061403e84828501613f81565b606083015250608061405284828501613fab565b60808301525060a061406684828501613fab565b60a08301525060c061407a84828501613fbf565b60c08301525060e061408e84828501613fbf565b60e0830152506101006140a384828501613fbf565b610100830152506101206140b984828501613fbf565b6101208301525092915050565b5f61014082840312156140dc576140db61345f565b5b5f6140e984828501613fd3565b91505092915050565b5f81519050614100816135c7565b92915050565b5f6020828403121561411b5761411a61345f565b5b5f614128848285016140f2565b91505092915050565b5f6040820190506141445f8301856137d0565b61415160208301846137d0565b9392505050565b5f819050919050565b61417261416d8261371d565b614158565b82525050565b5f6141838284614161565b60208201915081905092915050565b5f81905092915050565b7f5f766f74654475726174696f6e000000000000000000000000000000000000005f82015250565b5f6141d0600d83614192565b91506141db8261419c565b600d82019050919050565b5f6141f0826141c4565b9150819050919050565b7f5f6574615365636f6e64730000000000000000000000000000000000000000005f82015250565b5f61422e600b83614192565b9150614239826141fa565b600b82019050919050565b5f61424e82614222565b9150819050919050565b7f5f766f746564656c6179000000000000000000000000000000000000000000005f82015250565b5f61428c600a83614192565b915061429782614258565b600a82019050919050565b5f6142ac82614280565b9150819050919050565b5f6142c0826135be565b91506142cb836135be565b92508282019050808211156142e3576142e2613d64565b5b92915050565b5f819050919050565b5f819050919050565b5f61431561431061430b846142e9565b6142f2565b6135be565b9050919050565b614325816142fb565b82525050565b5f60408201905061433e5f83018561431c565b61434b60208301846137d0565b9392505050565b5f6040820190506143655f830185613596565b61437260208301846137d0565b9392505050565b7f696e76616c6964206163636573730000000000000000000000000000000000005f82015250565b5f6143ad600e836134f6565b91506143b882614379565b602082019050919050565b5f6020820190508181035f8301526143da816143a1565b9050919050565b5f67ffffffffffffffff8211156143fb576143fa6135f9565b5b6144048261352e565b9050602081019050919050565b5f61442361441e846143e1565b613657565b90508281526020810184848401111561443f5761443e6135f5565b5b61444a848285613506565b509392505050565b5f82601f830112614466576144656135f1565b5b8151614476848260208601614411565b91505092915050565b5f8151905061448d81613726565b92915050565b5f805f80608085870312156144ab576144aa61345f565b5b5f85015167ffffffffffffffff8111156144c8576144c7613463565b5b6144d487828801614452565b945050602085015167ffffffffffffffff8111156144f5576144f4613463565b5b61450187828801614452565b93505060406145128782880161447f565b925050606061452387828801613f36565b91505092959194509250565b5f805f606084860312156145465761454561345f565b5b5f61455386828701613f36565b935050602061456486828701613f36565b9250506040614575868287016140f2565b9150509250925092565b5f6060820190506145925f830186613596565b61459f6020830185613596565b6145ac60408301846137d0565b949350505050565b5f805f80608085870312156145cc576145cb61345f565b5b5f6145d987828801613f6d565b94505060206145ea87828801613f81565b93505060406145fb87828801613fab565b925050606061460c87828801613fab565b91505092959194509250565b61462181613f4a565b82525050565b5f60208201905061463a5f830184614618565b92915050565b5f6060820190506146535f830186613b6e565b6146606020830185613e6e565b61466d6040830184613e6e565b949350505050565b5f60e0820190506146885f83018a6137d0565b6146956020830189614618565b6146a26040830188613b6e565b6146af6060830187613e6e565b6146bc6080830186613e6e565b6146c960a0830185613596565b6146d660c0830184613596565b98975050505050505050565b5f602082840312156146f7576146f661345f565b5b5f61470484828501613fbf565b91505092915050565b7f666f72416e790000000000000000000000000000000000000000000000000000815250565b5f6020820190506147455f830161470d565b919050565b5f67ffffffffffffffff821115614764576147636135f9565b5b602082029050919050565b5f80fd5b5f6147856147808461474a565b613657565b9050806020840283018581111561479f5761479e61476f565b5b835b818110156147c857806147b48882613fab565b8452602084019350506020810190506147a1565b5050509392505050565b5f82601f8301126147e6576147e56135f1565b5b6104b16147f4848285614773565b91505092915050565b5f61962082840312156148135761481261345f565b5b5f614820848285016147d2565b91505092915050565b5f614833826135be565b915061483e836135be565b925082820390508181111561485657614855613d64565b5b92915050565b7f4e487b71000000000000000000000000000000000000000000000000000000005f52603260045260245ffd5b5f61489382613f4a565b915061ffff82036148a7576148a6613d64565b5b600182019050919050565b7f4e487b71000000000000000000000000000000000000000000000000000000005f52601260045260245ffd5b5f6148e982613f4a565b91506148f483613f4a565b925082614904576149036148b2565b5b828204905092915050565b5f61491982613f4a565b915061492483613f4a565b925082820261493281613f4a565b915080821461494457614943613d64565b5b509291505056fea26469706673582212207e287466b56dc4fc246594a14bf57cf6770ab0eae66a9c7cb036a783f82c60ed64736f6c63430008140033",
			"opcodes": "PUSH2 0x1A0 PUSH1 0x40 MSTORE PUSH0 PUSH20 0xFFFFFFFFFFFFFFFFFFFFFFFFFFFFFFFFFFFFFFFF AND PUSH2 0x160 SWAP1 PUSH20 0xFFFFFFFFFFFFFFFFFFFFFFFFFFFFFFFFFFFFFFFF AND DUP2 MSTORE POP PUSH3 0x15180 PUSH1 0xC PUSH0 PUSH2 0x100 EXP DUP2 SLOAD DUP2 PUSH4 0xFFFFFFFF MUL NOT AND SWAP1 DUP4 PUSH4 0xFFFFFFFF AND MUL OR SWAP1 SSTORE POP PUSH3 0x15180 PUSH1 0xC PUSH1 0x4 PUSH2 0x100 EXP DUP2 SLOAD DUP2 PUSH4 0xFFFFFFFF MUL NOT AND SWAP1 DUP4 PUSH4 0xFFFFFFFF AND MUL OR SWAP1 SSTORE POP PUSH3 0x93A80 PUSH1 0xC PUSH1 0x8 PUSH2 0x100 EXP DUP2 SLOAD DUP2 PUSH4 0xFFFFFFFF MUL NOT AND SWAP1 DUP4 PUSH4 0xFFFFFFFF AND MUL OR SWAP1 SSTORE POP CALLVALUE DUP1 ISZERO PUSH3 0xB0 JUMPI PUSH0 DUP1 REVERT JUMPDEST POP PUSH1 0x40 MLOAD PUSH3 0x552A CODESIZE SUB DUP1 PUSH3 0x552A DUP4 CODECOPY DUP2 DUP2 ADD PUSH1 0x40 MSTORE DUP2 ADD SWAP1 PUSH3 0xD6 SWAP2 SWAP1 PUSH3 0x546 JUMP JUMPDEST DUP1 PUSH3 0xE7 PUSH3 0x260 PUSH1 0x20 SHL PUSH1 0x20 SHR JUMP JUMPDEST PUSH3 0xFC PUSH0 DUP4 PUSH3 0x29D PUSH1 0x20 SHL SWAP1 SWAP2 SWAP1 PUSH1 0x20 SHR JUMP JUMPDEST PUSH2 0x120 DUP2 DUP2 MSTORE POP POP PUSH3 0x11A PUSH1 0x1 DUP3 PUSH3 0x29D PUSH1 0x20 SHL SWAP1 SWAP2 SWAP1 PUSH1 0x20 SHR JUMP JUMPDEST PUSH2 0x140 DUP2 DUP2 MSTORE POP POP DUP2 DUP1 MLOAD SWAP1 PUSH1 0x20 ADD KECCAK256 PUSH1 0xE0 DUP2 DUP2 MSTORE POP POP DUP1 DUP1 MLOAD SWAP1 PUSH1 0x20 ADD KECCAK256 PUSH2 0x100 DUP2 DUP2 MSTORE POP POP CHAINID PUSH1 0xA0 DUP2 DUP2 MSTORE POP POP PUSH3 0x159 PUSH3 0x2F2 PUSH1 0x20 SHL PUSH1 0x20 SHR JUMP JUMPDEST PUSH1 0x80 DUP2 DUP2 MSTORE POP POP ADDRESS PUSH20 0xFFFFFFFFFFFFFFFFFFFFFFFFFFFFFFFFFFFFFFFF AND PUSH1 0xC0 DUP2 PUSH20 0xFFFFFFFFFFFFFFFFFFFFFFFFFFFFFFFFFFFFFFFF AND DUP2 MSTORE POP POP POP POP PUSH4 0x16A8C800 TIMESTAMP PUSH3 0x1A8 SWAP2 SWAP1 PUSH3 0x5CB JUMP JUMPDEST PUSH6 0xFFFFFFFFFFFF AND PUSH2 0x180 DUP2 PUSH6 0xFFFFFFFFFFFF AND DUP2 MSTORE POP POP CALLER PUSH1 0x6 PUSH0 ADD PUSH0 PUSH2 0x100 EXP DUP2 SLOAD DUP2 PUSH20 0xFFFFFFFFFFFFFFFFFFFFFFFFFFFFFFFFFFFFFFFF MUL NOT AND SWAP1 DUP4 PUSH20 0xFFFFFFFFFFFFFFFFFFFFFFFFFFFFFFFFFFFFFFFF AND MUL OR SWAP1 SSTORE POP PUSH1 0x6 PUSH0 ADD PUSH1 0x15 DUP2 DUP2 SWAP1 SLOAD SWAP1 PUSH2 0x100 EXP SWAP1 DIV PUSH4 0xFFFFFFFF AND DUP1 SWAP3 SWAP2 SWAP1 PUSH3 0x228 SWAP1 PUSH3 0x614 JUMP JUMPDEST SWAP2 SWAP1 PUSH2 0x100 EXP DUP2 SLOAD DUP2 PUSH4 0xFFFFFFFF MUL NOT AND SWAP1 DUP4 PUSH4 0xFFFFFFFF AND MUL OR SWAP1 SSTORE POP POP DUP1 PUSH1 0xB SWAP1 DUP2 PUSH3 0x258 SWAP2 SWAP1 PUSH3 0x872 JUMP JUMPDEST POP POP PUSH3 0xB2F JUMP JUMPDEST PUSH1 0x60 PUSH1 0x40 MLOAD DUP1 PUSH1 0x40 ADD PUSH1 0x40 MSTORE DUP1 PUSH1 0x1 DUP2 MSTORE PUSH1 0x20 ADD PUSH32 0x3100000000000000000000000000000000000000000000000000000000000000 DUP2 MSTORE POP SWAP1 POP SWAP1 JUMP JUMPDEST PUSH0 PUSH1 0x20 DUP4 MLOAD LT ISZERO PUSH3 0x2C2 JUMPI PUSH3 0x2BA DUP4 PUSH3 0x34E PUSH1 0x20 SHL PUSH1 0x20 SHR JUMP JUMPDEST SWAP1 POP PUSH3 0x2EC JUMP JUMPDEST DUP3 PUSH3 0x2D4 DUP4 PUSH3 0x3B8 PUSH1 0x20 SHL PUSH1 0x20 SHR JUMP JUMPDEST PUSH0 ADD SWAP1 DUP2 PUSH3 0x2E4 SWAP2 SWAP1 PUSH3 0x872 JUMP JUMPDEST POP PUSH1 0xFF PUSH0 SHL SWAP1 POP JUMPDEST SWAP3 SWAP2 POP POP JUMP JUMPDEST PUSH0 PUSH32 0x8B73C3C69BB8FE3D512ECC4CF759CC79239F7B179B0FFACAA9A75D522B39400F PUSH1 0xE0 MLOAD PUSH2 0x100 MLOAD CHAINID ADDRESS PUSH1 0x40 MLOAD PUSH1 0x20 ADD PUSH3 0x333 SWAP6 SWAP5 SWAP4 SWAP3 SWAP2 SWAP1 PUSH3 0x9C4 JUMP JUMPDEST PUSH1 0x40 MLOAD PUSH1 0x20 DUP2 DUP4 SUB SUB DUP2 MSTORE SWAP1 PUSH1 0x40 MSTORE DUP1 MLOAD SWAP1 PUSH1 0x20 ADD KECCAK256 SWAP1 POP SWAP1 JUMP JUMPDEST PUSH0 DUP1 DUP3 SWAP1 POP PUSH1 0x1F DUP2 MLOAD GT ISZERO PUSH3 0x39D JUMPI DUP3 PUSH1 0x40 MLOAD PUSH32 0x305A27A900000000000000000000000000000000000000000000000000000000 DUP2 MSTORE PUSH1 0x4 ADD PUSH3 0x394 SWAP2 SWAP1 PUSH3 0xA6F JUMP JUMPDEST PUSH1 0x40 MLOAD DUP1 SWAP2 SUB SWAP1 REVERT JUMPDEST DUP1 MLOAD DUP2 PUSH3 0x3AB SWAP1 PUSH3 0xAC0 JUMP JUMPDEST PUSH0 SHR OR PUSH0 SHL SWAP2 POP POP SWAP2 SWAP1 POP JUMP JUMPDEST PUSH0 DUP2 SWAP1 POP SWAP2 SWAP1 POP JUMP JUMPDEST PUSH0 PUSH1 0x40 MLOAD SWAP1 POP SWAP1 JUMP JUMPDEST PUSH0 DUP1 REVERT JUMPDEST PUSH0 DUP1 REVERT JUMPDEST PUSH0 DUP1 REVERT JUMPDEST PUSH0 DUP1 REVERT JUMPDEST PUSH0 PUSH1 0x1F NOT PUSH1 0x1F DUP4 ADD AND SWAP1 POP SWAP2 SWAP1 POP JUMP JUMPDEST PUSH32 0x4E487B7100000000000000000000000000000000000000000000000000000000 PUSH0 MSTORE PUSH1 0x41 PUSH1 0x4 MSTORE PUSH1 0x24 PUSH0 REVERT JUMPDEST PUSH3 0x422 DUP3 PUSH3 0x3DA JUMP JUMPDEST DUP2 ADD DUP2 DUP2 LT PUSH8 0xFFFFFFFFFFFFFFFF DUP3 GT OR ISZERO PUSH3 0x444 JUMPI PUSH3 0x443 PUSH3 0x3EA JUMP JUMPDEST JUMPDEST DUP1 PUSH1 0x40 MSTORE POP POP POP JUMP JUMPDEST PUSH0 PUSH3 0x458 PUSH3 0x3C1 JUMP JUMPDEST SWAP1 POP PUSH3 0x466 DUP3 DUP3 PUSH3 0x417 JUMP JUMPDEST SWAP2 SWAP1 POP JUMP JUMPDEST PUSH0 PUSH8 0xFFFFFFFFFFFFFFFF DUP3 GT ISZERO PUSH3 0x488 JUMPI PUSH3 0x487 PUSH3 0x3EA JUMP JUMPDEST JUMPDEST PUSH3 0x493 DUP3 PUSH3 0x3DA JUMP JUMPDEST SWAP1 POP PUSH1 0x20 DUP2 ADD SWAP1 POP SWAP2 SWAP1 POP JUMP JUMPDEST PUSH0 JUMPDEST DUP4 DUP2 LT ISZERO PUSH3 0x4BF JUMPI DUP1 DUP3 ADD MLOAD DUP2 DUP5 ADD MSTORE PUSH1 0x20 DUP2 ADD SWAP1 POP PUSH3 0x4A2 JUMP JUMPDEST PUSH0 DUP5 DUP5 ADD MSTORE POP POP POP POP JUMP JUMPDEST PUSH0 PUSH3 0x4E0 PUSH3 0x4DA DUP5 PUSH3 0x46B JUMP JUMPDEST PUSH3 0x44D JUMP JUMPDEST SWAP1 POP DUP3 DUP2 MSTORE PUSH1 0x20 DUP2 ADD DUP5 DUP5 DUP5 ADD GT ISZERO PUSH3 0x4FF JUMPI PUSH3 0x4FE PUSH3 0x3D6 JUMP JUMPDEST JUMPDEST PUSH3 0x50C DUP5 DUP3 DUP6 PUSH3 0x4A0 JUMP JUMPDEST POP SWAP4 SWAP3 POP POP POP JUMP JUMPDEST PUSH0 DUP3 PUSH1 0x1F DUP4 ADD SLT PUSH3 0x52B JUMPI PUSH3 0x52A PUSH3 0x3D2 JUMP JUMPDEST JUMPDEST DUP2 MLOAD PUSH3 0x53D DUP5 DUP3 PUSH1 0x20 DUP7 ADD PUSH3 0x4CA JUMP JUMPDEST SWAP2 POP POP SWAP3 SWAP2 POP POP JUMP JUMPDEST PUSH0 PUSH1 0x20 DUP3 DUP5 SUB SLT ISZERO PUSH3 0x55E JUMPI PUSH3 0x55D PUSH3 0x3CA JUMP JUMPDEST JUMPDEST PUSH0 DUP3 ADD MLOAD PUSH8 0xFFFFFFFFFFFFFFFF DUP2 GT ISZERO PUSH3 0x57E JUMPI PUSH3 0x57D PUSH3 0x3CE JUMP JUMPDEST JUMPDEST PUSH3 0x58C DUP5 DUP3 DUP6 ADD PUSH3 0x514 JUMP JUMPDEST SWAP2 POP POP SWAP3 SWAP2 POP POP JUMP JUMPDEST PUSH0 DUP2 SWAP1 POP SWAP2 SWAP1 POP JUMP JUMPDEST PUSH32 0x4E487B7100000000000000000000000000000000000000000000000000000000 PUSH0 MSTORE PUSH1 0x11 PUSH1 0x4 MSTORE PUSH1 0x24 PUSH0 REVERT JUMPDEST PUSH0 PUSH3 0x5D7 DUP3 PUSH3 0x595 JUMP JUMPDEST SWAP2 POP PUSH3 0x5E4 DUP4 PUSH3 0x595 JUMP JUMPDEST SWAP3 POP DUP3 DUP3 ADD SWAP1 POP DUP1 DUP3 GT ISZERO PUSH3 0x5FF JUMPI PUSH3 0x5FE PUSH3 0x59E JUMP JUMPDEST JUMPDEST SWAP3 SWAP2 POP POP JUMP JUMPDEST PUSH0 PUSH4 0xFFFFFFFF DUP3 AND SWAP1 POP SWAP2 SWAP1 POP JUMP JUMPDEST PUSH0 PUSH3 0x620 DUP3 PUSH3 0x605 JUMP JUMPDEST SWAP2 POP PUSH4 0xFFFFFFFF DUP3 SUB PUSH3 0x639 JUMPI PUSH3 0x638 PUSH3 0x59E JUMP JUMPDEST JUMPDEST PUSH1 0x1 DUP3 ADD SWAP1 POP SWAP2 SWAP1 POP JUMP JUMPDEST PUSH0 DUP2 MLOAD SWAP1 POP SWAP2 SWAP1 POP JUMP JUMPDEST PUSH32 0x4E487B7100000000000000000000000000000000000000000000000000000000 PUSH0 MSTORE PUSH1 0x22 PUSH1 0x4 MSTORE PUSH1 0x24 PUSH0 REVERT JUMPDEST PUSH0 PUSH1 0x2 DUP3 DIV SWAP1 POP PUSH1 0x1 DUP3 AND DUP1 PUSH3 0x693 JUMPI PUSH1 0x7F DUP3 AND SWAP2 POP JUMPDEST PUSH1 0x20 DUP3 LT DUP2 SUB PUSH3 0x6A9 JUMPI PUSH3 0x6A8 PUSH3 0x64E JUMP JUMPDEST JUMPDEST POP SWAP2 SWAP1 POP JUMP JUMPDEST PUSH0 DUP2 SWAP1 POP DUP2 PUSH0 MSTORE PUSH1 0x20 PUSH0 KECCAK256 SWAP1 POP SWAP2 SWAP1 POP JUMP JUMPDEST PUSH0 PUSH1 0x20 PUSH1 0x1F DUP4 ADD DIV SWAP1 POP SWAP2 SWAP1 POP JUMP JUMPDEST PUSH0 DUP3 DUP3 SHL SWAP1 POP SWAP3 SWAP2 POP POP JUMP JUMPDEST PUSH0 PUSH1 0x8 DUP4 MUL PUSH3 0x70D PUSH32 0xFFFFFFFFFFFFFFFFFFFFFFFFFFFFFFFFFFFFFFFFFFFFFFFFFFFFFFFFFFFFFFFF DUP3 PUSH3 0x6D0 JUMP JUMPDEST PUSH3 0x719 DUP7 DUP4 PUSH3 0x6D0 JUMP JUMPDEST SWAP6 POP DUP1 NOT DUP5 AND SWAP4 POP DUP1 DUP7 AND DUP5 OR SWAP3 POP POP POP SWAP4 SWAP3 POP POP POP JUMP JUMPDEST PUSH0 DUP2 SWAP1 POP SWAP2 SWAP1 POP JUMP JUMPDEST PUSH0 PUSH3 0x75A PUSH3 0x754 PUSH3 0x74E DUP5 PUSH3 0x595 JUMP JUMPDEST PUSH3 0x731 JUMP JUMPDEST PUSH3 0x595 JUMP JUMPDEST SWAP1 POP SWAP2 SWAP1 POP JUMP JUMPDEST PUSH0 DUP2 SWAP1 POP SWAP2 SWAP1 POP JUMP JUMPDEST PUSH3 0x775 DUP4 PUSH3 0x73A JUMP JUMPDEST PUSH3 0x78D PUSH3 0x784 DUP3 PUSH3 0x761 JUMP JUMPDEST DUP5 DUP5 SLOAD PUSH3 0x6DC JUMP JUMPDEST DUP3 SSTORE POP POP POP POP JUMP JUMPDEST PUSH0 SWAP1 JUMP JUMPDEST PUSH3 0x7A3 PUSH3 0x795 JUMP JUMPDEST PUSH3 0x7B0 DUP2 DUP5 DUP5 PUSH3 0x76A JUMP JUMPDEST POP POP POP JUMP JUMPDEST JUMPDEST DUP2 DUP2 LT ISZERO PUSH3 0x7D7 JUMPI PUSH3 0x7CB PUSH0 DUP3 PUSH3 0x799 JUMP JUMPDEST PUSH1 0x1 DUP2 ADD SWAP1 POP PUSH3 0x7B6 JUMP JUMPDEST POP POP JUMP JUMPDEST PUSH1 0x1F DUP3 GT ISZERO PUSH3 0x826 JUMPI PUSH3 0x7F0 DUP2 PUSH3 0x6AF JUMP JUMPDEST PUSH3 0x7FB DUP5 PUSH3 0x6C1 JUMP JUMPDEST DUP2 ADD PUSH1 0x20 DUP6 LT ISZERO PUSH3 0x80B JUMPI DUP2 SWAP1 POP JUMPDEST PUSH3 0x823 PUSH3 0x81A DUP6 PUSH3 0x6C1 JUMP JUMPDEST DUP4 ADD DUP3 PUSH3 0x7B5 JUMP JUMPDEST POP POP JUMPDEST POP POP POP JUMP JUMPDEST PUSH0 DUP3 DUP3 SHR SWAP1 POP SWAP3 SWAP2 POP POP JUMP JUMPDEST PUSH0 PUSH3 0x848 PUSH0 NOT DUP5 PUSH1 0x8 MUL PUSH3 0x82B JUMP JUMPDEST NOT DUP1 DUP4 AND SWAP2 POP POP SWAP3 SWAP2 POP POP JUMP JUMPDEST PUSH0 PUSH3 0x862 DUP4 DUP4 PUSH3 0x837 JUMP JUMPDEST SWAP2 POP DUP3 PUSH1 0x2 MUL DUP3 OR SWAP1 POP SWAP3 SWAP2 POP POP JUMP JUMPDEST PUSH3 0x87D DUP3 PUSH3 0x644 JUMP JUMPDEST PUSH8 0xFFFFFFFFFFFFFFFF DUP2 GT ISZERO PUSH3 0x899 JUMPI PUSH3 0x898 PUSH3 0x3EA JUMP JUMPDEST JUMPDEST PUSH3 0x8A5 DUP3 SLOAD PUSH3 0x67B JUMP JUMPDEST PUSH3 0x8B2 DUP3 DUP3 DUP6 PUSH3 0x7DB JUMP JUMPDEST PUSH0 PUSH1 0x20 SWAP1 POP PUSH1 0x1F DUP4 GT PUSH1 0x1 DUP2 EQ PUSH3 0x8E8 JUMPI PUSH0 DUP5 ISZERO PUSH3 0x8D3 JUMPI DUP3 DUP8 ADD MLOAD SWAP1 POP JUMPDEST PUSH3 0x8DF DUP6 DUP3 PUSH3 0x855 JUMP JUMPDEST DUP7 SSTORE POP PUSH3 0x94E JUMP JUMPDEST PUSH1 0x1F NOT DUP5 AND PUSH3 0x8F8 DUP7 PUSH3 0x6AF JUMP JUMPDEST PUSH0 JUMPDEST DUP3 DUP2 LT ISZERO PUSH3 0x921 JUMPI DUP5 DUP10 ADD MLOAD DUP3 SSTORE PUSH1 0x1 DUP3 ADD SWAP2 POP PUSH1 0x20 DUP6 ADD SWAP5 POP PUSH1 0x20 DUP2 ADD SWAP1 POP PUSH3 0x8FA JUMP JUMPDEST DUP7 DUP4 LT ISZERO PUSH3 0x941 JUMPI DUP5 DUP10 ADD MLOAD PUSH3 0x93D PUSH1 0x1F DUP10 AND DUP3 PUSH3 0x837 JUMP JUMPDEST DUP4 SSTORE POP JUMPDEST PUSH1 0x1 PUSH1 0x2 DUP9 MUL ADD DUP9 SSTORE POP POP POP JUMPDEST POP POP POP POP POP POP JUMP JUMPDEST PUSH0 DUP2 SWAP1 POP SWAP2 SWAP1 POP JUMP JUMPDEST PUSH3 0x96A DUP2 PUSH3 0x956 JUMP JUMPDEST DUP3 MSTORE POP POP JUMP JUMPDEST PUSH3 0x97B DUP2 PUSH3 0x595 JUMP JUMPDEST DUP3 MSTORE POP POP JUMP JUMPDEST PUSH0 PUSH20 0xFFFFFFFFFFFFFFFFFFFFFFFFFFFFFFFFFFFFFFFF DUP3 AND SWAP1 POP SWAP2 SWAP1 POP JUMP JUMPDEST PUSH0 PUSH3 0x9AC DUP3 PUSH3 0x981 JUMP JUMPDEST SWAP1 POP SWAP2 SWAP1 POP JUMP JUMPDEST PUSH3 0x9BE DUP2 PUSH3 0x9A0 JUMP JUMPDEST DUP3 MSTORE POP POP JUMP JUMPDEST PUSH0 PUSH1 0xA0 DUP3 ADD SWAP1 POP PUSH3 0x9D9 PUSH0 DUP4 ADD DUP9 PUSH3 0x95F JUMP JUMPDEST PUSH3 0x9E8 PUSH1 0x20 DUP4 ADD DUP8 PUSH3 0x95F JUMP JUMPDEST PUSH3 0x9F7 PUSH1 0x40 DUP4 ADD DUP7 PUSH3 0x95F JUMP JUMPDEST PUSH3 0xA06 PUSH1 0x60 DUP4 ADD DUP6 PUSH3 0x970 JUMP JUMPDEST PUSH3 0xA15 PUSH1 0x80 DUP4 ADD DUP5 PUSH3 0x9B3 JUMP JUMPDEST SWAP7 SWAP6 POP POP POP POP POP POP JUMP JUMPDEST PUSH0 DUP3 DUP3 MSTORE PUSH1 0x20 DUP3 ADD SWAP1 POP SWAP3 SWAP2 POP POP JUMP JUMPDEST PUSH0 PUSH3 0xA3B DUP3 PUSH3 0x644 JUMP JUMPDEST PUSH3 0xA47 DUP2 DUP6 PUSH3 0xA1F JUMP JUMPDEST SWAP4 POP PUSH3 0xA59 DUP2 DUP6 PUSH1 0x20 DUP7 ADD PUSH3 0x4A0 JUMP JUMPDEST PUSH3 0xA64 DUP2 PUSH3 0x3DA JUMP JUMPDEST DUP5 ADD SWAP2 POP POP SWAP3 SWAP2 POP POP JUMP JUMPDEST PUSH0 PUSH1 0x20 DUP3 ADD SWAP1 POP DUP2 DUP2 SUB PUSH0 DUP4 ADD MSTORE PUSH3 0xA89 DUP2 DUP5 PUSH3 0xA2F JUMP JUMPDEST SWAP1 POP SWAP3 SWAP2 POP POP JUMP JUMPDEST PUSH0 DUP2 MLOAD SWAP1 POP SWAP2 SWAP1 POP JUMP JUMPDEST PUSH0 DUP2 SWAP1 POP PUSH1 0x20 DUP3 ADD SWAP1 POP SWAP2 SWAP1 POP JUMP JUMPDEST PUSH0 PUSH3 0xAB7 DUP3 MLOAD PUSH3 0x956 JUMP JUMPDEST DUP1 SWAP2 POP POP SWAP2 SWAP1 POP JUMP JUMPDEST PUSH0 PUSH3 0xACC DUP3 PUSH3 0xA91 JUMP JUMPDEST DUP3 PUSH3 0xAD8 DUP5 PUSH3 0xA9B JUMP JUMPDEST SWAP1 POP PUSH3 0xAE5 DUP2 PUSH3 0xAAA JUMP JUMPDEST SWAP3 POP PUSH1 0x20 DUP3 LT ISZERO PUSH3 0xB28 JUMPI PUSH3 0xB23 PUSH32 0xFFFFFFFFFFFFFFFFFFFFFFFFFFFFFFFFFFFFFFFFFFFFFFFFFFFFFFFFFFFFFFFF DUP4 PUSH1 0x20 SUB PUSH1 0x8 MUL PUSH3 0x6D0 JUMP JUMPDEST DUP4 AND SWAP3 POP JUMPDEST POP POP SWAP2 SWAP1 POP JUMP JUMPDEST PUSH1 0x80 MLOAD PUSH1 0xA0 MLOAD PUSH1 0xC0 MLOAD PUSH1 0xE0 MLOAD PUSH2 0x100 MLOAD PUSH2 0x120 MLOAD PUSH2 0x140 MLOAD PUSH2 0x160 MLOAD PUSH2 0x180 MLOAD PUSH2 0x4981 PUSH3 0xBA9 PUSH0 CODECOPY PUSH0 DUP2 DUP2 PUSH2 0x625 ADD MSTORE DUP2 DUP2 PUSH2 0xC18 ADD MSTORE DUP2 DUP2 PUSH2 0x12E9 ADD MSTORE DUP2 DUP2 PUSH2 0x1BB3 ADD MSTORE DUP2 DUP2 PUSH2 0x215B ADD MSTORE PUSH2 0x2987 ADD MSTORE PUSH0 PUSH2 0x22BC ADD MSTORE PUSH0 PUSH2 0x30C5 ADD MSTORE PUSH0 PUSH2 0x308A ADD MSTORE PUSH0 POP POP PUSH0 POP POP PUSH0 POP POP PUSH0 POP POP PUSH0 POP POP PUSH2 0x4981 PUSH0 RETURN INVALID PUSH1 0x80 PUSH1 0x40 MSTORE CALLVALUE DUP1 ISZERO PUSH2 0xF JUMPI PUSH0 DUP1 REVERT JUMPDEST POP PUSH1 0x4 CALLDATASIZE LT PUSH2 0x204 JUMPI PUSH0 CALLDATALOAD PUSH1 0xE0 SHR DUP1 PUSH4 0x667D639B GT PUSH2 0x118 JUMPI DUP1 PUSH4 0xC387B49C GT PUSH2 0xAB JUMPI DUP1 PUSH4 0xE35B31B7 GT PUSH2 0x7A JUMPI DUP1 PUSH4 0xE35B31B7 EQ PUSH2 0x57E JUMPI DUP1 PUSH4 0xE47A9D46 EQ PUSH2 0x5AE JUMPI DUP1 PUSH4 0xE4F3E947 EQ PUSH2 0x5CC JUMPI DUP1 PUSH4 0xEE7126C3 EQ PUSH2 0x5EA JUMPI DUP1 PUSH4 0xF5F9CDD4 EQ PUSH2 0x606 JUMPI PUSH2 0x204 JUMP JUMPDEST DUP1 PUSH4 0xC387B49C EQ PUSH2 0x4F6 JUMPI DUP1 PUSH4 0xC5A1C5C1 EQ PUSH2 0x514 JUMPI DUP1 PUSH4 0xC8021C2E EQ PUSH2 0x532 JUMPI DUP1 PUSH4 0xCA4CCE68 EQ PUSH2 0x562 JUMPI PUSH2 0x204 JUMP JUMPDEST DUP1 PUSH4 0x861A179D GT PUSH2 0xE7 JUMPI DUP1 PUSH4 0x861A179D EQ PUSH2 0x484 JUMPI DUP1 PUSH4 0x88AA4C12 EQ PUSH2 0x4A0 JUMPI DUP1 PUSH4 0xA53DA00B EQ PUSH2 0x4BC JUMPI DUP1 PUSH4 0xB5C09C68 EQ PUSH2 0x4DA JUMPI PUSH2 0x204 JUMP JUMPDEST DUP1 PUSH4 0x667D639B EQ PUSH2 0x40A JUMPI DUP1 PUSH4 0x6CF106D7 EQ PUSH2 0x426 JUMPI DUP1 PUSH4 0x84B0196E EQ PUSH2 0x444 JUMPI DUP1 PUSH4 0x85488408 EQ PUSH2 0x468 JUMPI PUSH2 0x204 JUMP JUMPDEST DUP1 PUSH4 0x37676F79 GT PUSH2 0x19B JUMPI DUP1 PUSH4 0x4BF5D7E9 GT PUSH2 0x16A JUMPI DUP1 PUSH4 0x4BF5D7E9 EQ PUSH2 0x376 JUMPI DUP1 PUSH4 0x544FA93E EQ PUSH2 0x394 JUMPI DUP1 PUSH4 0x54FD4D50 EQ PUSH2 0x3B0 JUMPI DUP1 PUSH4 0x5DAD85C2 EQ PUSH2 0x3CE JUMPI DUP1 PUSH4 0x66410997 EQ PUSH2 0x3EC JUMPI PUSH2 0x204 JUMP JUMPDEST DUP1 PUSH4 0x37676F79 EQ PUSH2 0x2F0 JUMPI DUP1 PUSH4 0x3A8512B4 EQ PUSH2 0x30E JUMPI DUP1 PUSH4 0x3E4F49E6 EQ PUSH2 0x32A JUMPI DUP1 PUSH4 0x4494ACD9 EQ PUSH2 0x35A JUMPI PUSH2 0x204 JUMP JUMPDEST DUP1 PUSH4 0x1F86AA2A GT PUSH2 0x1D7 JUMPI DUP1 PUSH4 0x1F86AA2A EQ PUSH2 0x256 JUMPI DUP1 PUSH4 0x289B3C0D EQ PUSH2 0x272 JUMPI DUP1 PUSH4 0x31D133C2 EQ PUSH2 0x290 JUMPI DUP1 PUSH4 0x3610FEB3 EQ PUSH2 0x2C0 JUMPI PUSH2 0x204 JUMP JUMPDEST DUP1 PUSH4 0x54203BD EQ PUSH2 0x208 JUMPI DUP1 PUSH4 0x6FDDE03 EQ PUSH2 0x224 JUMPI DUP1 PUSH4 0xDF4C390 EQ PUSH2 0x242 JUMPI DUP1 PUSH4 0x18074EEE EQ PUSH2 0x24C JUMPI JUMPDEST PUSH0 DUP1 REVERT JUMPDEST PUSH2 0x222 PUSH1 0x4 DUP1 CALLDATASIZE SUB DUP2 ADD SWAP1 PUSH2 0x21D SWAP2 SWAP1 PUSH2 0x34C1 JUMP JUMPDEST PUSH2 0x622 JUMP JUMPDEST STOP JUMPDEST PUSH2 0x22C PUSH2 0x7ED JUMP JUMPDEST PUSH1 0x40 MLOAD PUSH2 0x239 SWAP2 SWAP1 PUSH2 0x3576 JUMP JUMPDEST PUSH1 0x40 MLOAD DUP1 SWAP2 SUB SWAP1 RETURN JUMPDEST PUSH2 0x24A PUSH2 0x87D JUMP JUMPDEST STOP JUMPDEST PUSH2 0x254 PUSH2 0xA3D JUMP JUMPDEST STOP JUMPDEST PUSH2 0x270 PUSH1 0x4 DUP1 CALLDATASIZE SUB DUP2 ADD SWAP1 PUSH2 0x26B SWAP2 SWAP1 PUSH2 0x34C1 JUMP JUMPDEST PUSH2 0xC15 JUMP JUMPDEST STOP JUMPDEST PUSH2 0x27A PUSH2 0xF06 JUMP JUMPDEST PUSH1 0x40 MLOAD PUSH2 0x287 SWAP2 SWAP1 PUSH2 0x35A5 JUMP JUMPDEST PUSH1 0x40 MLOAD DUP1 SWAP2 SUB SWAP1 RETURN JUMPDEST PUSH2 0x2AA PUSH1 0x4 DUP1 CALLDATASIZE SUB DUP2 ADD SWAP1 PUSH2 0x2A5 SWAP2 SWAP1 PUSH2 0x3750 JUMP JUMPDEST PUSH2 0xF30 JUMP JUMPDEST PUSH1 0x40 MLOAD PUSH2 0x2B7 SWAP2 SWAP1 PUSH2 0x37DF JUMP JUMPDEST PUSH1 0x40 MLOAD DUP1 SWAP2 SUB SWAP1 RETURN JUMPDEST PUSH2 0x2DA PUSH1 0x4 DUP1 CALLDATASIZE SUB DUP2 ADD SWAP1 PUSH2 0x2D5 SWAP2 SWAP1 PUSH2 0x34C1 JUMP JUMPDEST PUSH2 0xF6A JUMP JUMPDEST PUSH1 0x40 MLOAD PUSH2 0x2E7 SWAP2 SWAP1 PUSH2 0x3812 JUMP JUMPDEST PUSH1 0x40 MLOAD DUP1 SWAP2 SUB SWAP1 RETURN JUMPDEST PUSH2 0x2F8 PUSH2 0xF70 JUMP JUMPDEST PUSH1 0x40 MLOAD PUSH2 0x305 SWAP2 SWAP1 PUSH2 0x35A5 JUMP JUMPDEST PUSH1 0x40 MLOAD DUP1 SWAP2 SUB SWAP1 RETURN JUMPDEST PUSH2 0x328 PUSH1 0x4 DUP1 CALLDATASIZE SUB DUP2 ADD SWAP1 PUSH2 0x323 SWAP2 SWAP1 PUSH2 0x382B JUMP JUMPDEST PUSH2 0xF9A JUMP JUMPDEST STOP JUMPDEST PUSH2 0x344 PUSH1 0x4 DUP1 CALLDATASIZE SUB DUP2 ADD SWAP1 PUSH2 0x33F SWAP2 SWAP1 PUSH2 0x3869 JUMP JUMPDEST PUSH2 0x1019 JUMP JUMPDEST PUSH1 0x40 MLOAD PUSH2 0x351 SWAP2 SWAP1 PUSH2 0x3907 JUMP JUMPDEST PUSH1 0x40 MLOAD DUP1 SWAP2 SUB SWAP1 RETURN JUMPDEST PUSH2 0x374 PUSH1 0x4 DUP1 CALLDATASIZE SUB DUP2 ADD SWAP1 PUSH2 0x36F SWAP2 SWAP1 PUSH2 0x34C1 JUMP JUMPDEST PUSH2 0x12E6 JUMP JUMPDEST STOP JUMPDEST PUSH2 0x37E PUSH2 0x152E JUMP JUMPDEST PUSH1 0x40 MLOAD PUSH2 0x38B SWAP2 SWAP1 PUSH2 0x3576 JUMP JUMPDEST PUSH1 0x40 MLOAD DUP1 SWAP2 SUB SWAP1 RETURN JUMPDEST PUSH2 0x3AE PUSH1 0x4 DUP1 CALLDATASIZE SUB DUP2 ADD SWAP1 PUSH2 0x3A9 SWAP2 SWAP1 PUSH2 0x34C1 JUMP JUMPDEST PUSH2 0x156B JUMP JUMPDEST STOP JUMPDEST PUSH2 0x3B8 PUSH2 0x1677 JUMP JUMPDEST PUSH1 0x40 MLOAD PUSH2 0x3C5 SWAP2 SWAP1 PUSH2 0x3576 JUMP JUMPDEST PUSH1 0x40 MLOAD DUP1 SWAP2 SUB SWAP1 RETURN JUMPDEST PUSH2 0x3D6 PUSH2 0x16B4 JUMP JUMPDEST PUSH1 0x40 MLOAD PUSH2 0x3E3 SWAP2 SWAP1 PUSH2 0x37DF JUMP JUMPDEST PUSH1 0x40 MLOAD DUP1 SWAP2 SUB SWAP1 RETURN JUMPDEST PUSH2 0x3F4 PUSH2 0x16BB JUMP JUMPDEST PUSH1 0x40 MLOAD PUSH2 0x401 SWAP2 SWAP1 PUSH2 0x35A5 JUMP JUMPDEST PUSH1 0x40 MLOAD DUP1 SWAP2 SUB SWAP1 RETURN JUMPDEST PUSH2 0x424 PUSH1 0x4 DUP1 CALLDATASIZE SUB DUP2 ADD SWAP1 PUSH2 0x41F SWAP2 SWAP1 PUSH2 0x3959 JUMP JUMPDEST PUSH2 0x16E5 JUMP JUMPDEST STOP JUMPDEST PUSH2 0x42E PUSH2 0x18A2 JUMP JUMPDEST PUSH1 0x40 MLOAD PUSH2 0x43B SWAP2 SWAP1 PUSH2 0x3812 JUMP JUMPDEST PUSH1 0x40 MLOAD DUP1 SWAP2 SUB SWAP1 RETURN JUMPDEST PUSH2 0x44C PUSH2 0x18BA JUMP JUMPDEST PUSH1 0x40 MLOAD PUSH2 0x45F SWAP8 SWAP7 SWAP6 SWAP5 SWAP4 SWAP3 SWAP2 SWAP1 PUSH2 0x3A97 JUMP JUMPDEST PUSH1 0x40 MLOAD DUP1 SWAP2 SUB SWAP1 RETURN JUMPDEST PUSH2 0x482 PUSH1 0x4 DUP1 CALLDATASIZE SUB DUP2 ADD SWAP1 PUSH2 0x47D SWAP2 SWAP1 PUSH2 0x3750 JUMP JUMPDEST PUSH2 0x195F JUMP JUMPDEST STOP JUMPDEST PUSH2 0x49E PUSH1 0x4 DUP1 CALLDATASIZE SUB DUP2 ADD SWAP1 PUSH2 0x499 SWAP2 SWAP1 PUSH2 0x34C1 JUMP JUMPDEST PUSH2 0x1BB0 JUMP JUMPDEST STOP JUMPDEST PUSH2 0x4BA PUSH1 0x4 DUP1 CALLDATASIZE SUB DUP2 ADD SWAP1 PUSH2 0x4B5 SWAP2 SWAP1 PUSH2 0x3750 JUMP JUMPDEST PUSH2 0x1E60 JUMP JUMPDEST STOP JUMPDEST PUSH2 0x4C4 PUSH2 0x212E JUMP JUMPDEST PUSH1 0x40 MLOAD PUSH2 0x4D1 SWAP2 SWAP1 PUSH2 0x35A5 JUMP JUMPDEST PUSH1 0x40 MLOAD DUP1 SWAP2 SUB SWAP1 RETURN JUMPDEST PUSH2 0x4F4 PUSH1 0x4 DUP1 CALLDATASIZE SUB DUP2 ADD SWAP1 PUSH2 0x4EF SWAP2 SWAP1 PUSH2 0x3B43 JUMP JUMPDEST PUSH2 0x2158 JUMP JUMPDEST STOP JUMPDEST PUSH2 0x4FE PUSH2 0x229E JUMP JUMPDEST PUSH1 0x40 MLOAD PUSH2 0x50B SWAP2 SWAP1 PUSH2 0x3B7D JUMP JUMPDEST PUSH1 0x40 MLOAD DUP1 SWAP2 SUB SWAP1 RETURN JUMPDEST PUSH2 0x51C PUSH2 0x22B9 JUMP JUMPDEST PUSH1 0x40 MLOAD PUSH2 0x529 SWAP2 SWAP1 PUSH2 0x35A5 JUMP JUMPDEST PUSH1 0x40 MLOAD DUP1 SWAP2 SUB SWAP1 RETURN JUMPDEST PUSH2 0x54C PUSH1 0x4 DUP1 CALLDATASIZE SUB DUP2 ADD SWAP1 PUSH2 0x547 SWAP2 SWAP1 PUSH2 0x3B96 JUMP JUMPDEST PUSH2 0x22E0 JUMP JUMPDEST PUSH1 0x40 MLOAD PUSH2 0x559 SWAP2 SWAP1 PUSH2 0x37DF JUMP JUMPDEST PUSH1 0x40 MLOAD DUP1 SWAP2 SUB SWAP1 RETURN JUMPDEST PUSH2 0x57C PUSH1 0x4 DUP1 CALLDATASIZE SUB DUP2 ADD SWAP1 PUSH2 0x577 SWAP2 SWAP1 PUSH2 0x34C1 JUMP JUMPDEST PUSH2 0x2984 JUMP JUMPDEST STOP JUMPDEST PUSH2 0x598 PUSH1 0x4 DUP1 CALLDATASIZE SUB DUP2 ADD SWAP1 PUSH2 0x593 SWAP2 SWAP1 PUSH2 0x3C4F JUMP JUMPDEST PUSH2 0x2B9C JUMP JUMPDEST PUSH1 0x40 MLOAD PUSH2 0x5A5 SWAP2 SWAP1 PUSH2 0x3812 JUMP JUMPDEST PUSH1 0x40 MLOAD DUP1 SWAP2 SUB SWAP1 RETURN JUMPDEST PUSH2 0x5B6 PUSH2 0x2BA4 JUMP JUMPDEST PUSH1 0x40 MLOAD PUSH2 0x5C3 SWAP2 SWAP1 PUSH2 0x35A5 JUMP JUMPDEST PUSH1 0x40 MLOAD DUP1 SWAP2 SUB SWAP1 RETURN JUMPDEST PUSH2 0x5D4 PUSH2 0x2BAB JUMP JUMPDEST PUSH1 0x40 MLOAD PUSH2 0x5E1 SWAP2 SWAP1 PUSH2 0x3812 JUMP JUMPDEST PUSH1 0x40 MLOAD DUP1 SWAP2 SUB SWAP1 RETURN JUMPDEST PUSH2 0x604 PUSH1 0x4 DUP1 CALLDATASIZE SUB DUP2 ADD SWAP1 PUSH2 0x5FF SWAP2 SWAP1 PUSH2 0x34C1 JUMP JUMPDEST PUSH2 0x2BC3 JUMP JUMPDEST STOP JUMPDEST PUSH2 0x620 PUSH1 0x4 DUP1 CALLDATASIZE SUB DUP2 ADD SWAP1 PUSH2 0x61B SWAP2 SWAP1 PUSH2 0x3B43 JUMP JUMPDEST PUSH2 0x2E0C JUMP JUMPDEST STOP JUMPDEST TIMESTAMP PUSH32 0x0 PUSH6 0xFFFFFFFFFFFF AND LT ISZERO PUSH2 0x6CC JUMPI PUSH2 0x65A PUSH2 0x22B9 JUMP JUMPDEST PUSH20 0xFFFFFFFFFFFFFFFFFFFFFFFFFFFFFFFFFFFFFFFF AND CALLER PUSH20 0xFFFFFFFFFFFFFFFFFFFFFFFFFFFFFFFFFFFFFFFF AND EQ PUSH2 0x6C7 JUMPI PUSH1 0x40 MLOAD PUSH32 0x8C379A000000000000000000000000000000000000000000000000000000000 DUP2 MSTORE PUSH1 0x4 ADD PUSH2 0x6BE SWAP1 PUSH2 0x3CE9 JUMP JUMPDEST PUSH1 0x40 MLOAD DUP1 SWAP2 SUB SWAP1 REVERT JUMPDEST PUSH2 0x753 JUMP JUMPDEST PUSH2 0x6D4 PUSH2 0x16BB JUMP JUMPDEST PUSH20 0xFFFFFFFFFFFFFFFFFFFFFFFFFFFFFFFFFFFFFFFF AND CALLER PUSH20 0xFFFFFFFFFFFFFFFFFFFFFFFFFFFFFFFFFFFFFFFF AND EQ DUP1 ISZERO PUSH2 0x713 JUMPI POP PUSH2 0x711 PUSH2 0x18A2 JUMP JUMPDEST ISZERO JUMPDEST PUSH2 0x752 JUMPI PUSH1 0x40 MLOAD PUSH32 0x8C379A000000000000000000000000000000000000000000000000000000000 DUP2 MSTORE PUSH1 0x4 ADD PUSH2 0x749 SWAP1 PUSH2 0x3CE9 JUMP JUMPDEST PUSH1 0x40 MLOAD DUP1 SWAP2 SUB SWAP1 REVERT JUMPDEST JUMPDEST DUP1 PUSH1 0x4 PUSH0 PUSH2 0x100 EXP DUP2 SLOAD DUP2 PUSH20 0xFFFFFFFFFFFFFFFFFFFFFFFFFFFFFFFFFFFFFFFF MUL NOT AND SWAP1 DUP4 PUSH20 0xFFFFFFFFFFFFFFFFFFFFFFFFFFFFFFFFFFFFFFFF AND MUL OR SWAP1 SSTORE POP PUSH2 0x79D PUSH1 0x1 PUSH2 0x2E9E JUMP JUMPDEST PUSH2 0x7A7 PUSH1 0x1 PUSH2 0x2EBD JUMP JUMPDEST DUP1 PUSH20 0xFFFFFFFFFFFFFFFFFFFFFFFFFFFFFFFFFFFFFFFF AND PUSH32 0x3553F1F7EF0242113266A8D183B621BB87468C99237F36B1150B6AB3D688B686 PUSH1 0x40 MLOAD PUSH1 0x40 MLOAD DUP1 SWAP2 SUB SWAP1 LOG2 POP JUMP JUMPDEST PUSH1 0x60 PUSH1 0xB DUP1 SLOAD PUSH2 0x7FC SWAP1 PUSH2 0x3D34 JUMP JUMPDEST DUP1 PUSH1 0x1F ADD PUSH1 0x20 DUP1 SWAP2 DIV MUL PUSH1 0x20 ADD PUSH1 0x40 MLOAD SWAP1 DUP2 ADD PUSH1 0x40 MSTORE DUP1 SWAP3 SWAP2 SWAP1 DUP2 DUP2 MSTORE PUSH1 0x20 ADD DUP3 DUP1 SLOAD PUSH2 0x828 SWAP1 PUSH2 0x3D34 JUMP JUMPDEST DUP1 ISZERO PUSH2 0x873 JUMPI DUP1 PUSH1 0x1F LT PUSH2 0x84A JUMPI PUSH2 0x100 DUP1 DUP4 SLOAD DIV MUL DUP4 MSTORE SWAP2 PUSH1 0x20 ADD SWAP2 PUSH2 0x873 JUMP JUMPDEST DUP3 ADD SWAP2 SWAP1 PUSH0 MSTORE PUSH1 0x20 PUSH0 KECCAK256 SWAP1 JUMPDEST DUP2 SLOAD DUP2 MSTORE SWAP1 PUSH1 0x1 ADD SWAP1 PUSH1 0x20 ADD DUP1 DUP4 GT PUSH2 0x856 JUMPI DUP3 SWAP1 SUB PUSH1 0x1F AND DUP3 ADD SWAP2 JUMPDEST POP POP POP POP POP SWAP1 POP SWAP1 JUMP JUMPDEST CALLER PUSH20 0xFFFFFFFFFFFFFFFFFFFFFFFFFFFFFFFFFFFFFFFF AND PUSH1 0x4 PUSH0 SWAP1 SLOAD SWAP1 PUSH2 0x100 EXP SWAP1 DIV PUSH20 0xFFFFFFFFFFFFFFFFFFFFFFFFFFFFFFFFFFFFFFFF AND PUSH20 0xFFFFFFFFFFFFFFFFFFFFFFFFFFFFFFFFFFFFFFFF AND SUB PUSH2 0xA09 JUMPI PUSH1 0x4 PUSH0 PUSH2 0x100 EXP DUP2 SLOAD SWAP1 PUSH20 0xFFFFFFFFFFFFFFFFFFFFFFFFFFFFFFFFFFFFFFFF MUL NOT AND SWAP1 SSTORE CALLER PUSH1 0x6 PUSH0 ADD PUSH0 PUSH2 0x100 EXP DUP2 SLOAD DUP2 PUSH20 0xFFFFFFFFFFFFFFFFFFFFFFFFFFFFFFFFFFFFFFFF MUL NOT AND SWAP1 DUP4 PUSH20 0xFFFFFFFFFFFFFFFFFFFFFFFFFFFFFFFFFFFFFFFF AND MUL OR SWAP1 SSTORE POP PUSH1 0x6 PUSH0 ADD PUSH1 0x15 DUP2 DUP2 SWAP1 SLOAD SWAP1 PUSH2 0x100 EXP SWAP1 DIV PUSH4 0xFFFFFFFF AND DUP1 SWAP3 SWAP2 SWAP1 PUSH2 0x95B SWAP1 PUSH2 0x3D91 JUMP JUMPDEST SWAP2 SWAP1 PUSH2 0x100 EXP DUP2 SLOAD DUP2 PUSH4 0xFFFFFFFF MUL NOT AND SWAP1 DUP4 PUSH4 0xFFFFFFFF AND MUL OR SWAP1 SSTORE POP POP PUSH2 0x983 PUSH0 PUSH2 0x2E9E JUMP JUMPDEST PUSH1 0x6 PUSH0 ADD PUSH1 0x15 SWAP1 SLOAD SWAP1 PUSH2 0x100 EXP SWAP1 DIV PUSH4 0xFFFFFFFF AND PUSH4 0xFFFFFFFF AND PUSH1 0x6 PUSH0 ADD PUSH0 SWAP1 SLOAD SWAP1 PUSH2 0x100 EXP SWAP1 DIV PUSH20 0xFFFFFFFFFFFFFFFFFFFFFFFFFFFFFFFFFFFFFFFF AND PUSH20 0xFFFFFFFFFFFFFFFFFFFFFFFFFFFFFFFFFFFFFFFF AND PUSH32 0x5AD9B3688012CD825C1BFB941E4F5AFB2558AF6AF3DEADDF01DBB5E85ABDAF9 PUSH1 0x40 MLOAD PUSH1 0x40 MLOAD DUP1 SWAP2 SUB SWAP1 LOG3 PUSH2 0xA3B JUMP JUMPDEST PUSH1 0x40 MLOAD PUSH32 0x6C4360F000000000000000000000000000000000000000000000000000000000 DUP2 MSTORE PUSH1 0x4 ADD PUSH1 0x40 MLOAD DUP1 SWAP2 SUB SWAP1 REVERT JUMPDEST JUMP JUMPDEST CALLER PUSH20 0xFFFFFFFFFFFFFFFFFFFFFFFFFFFFFFFFFFFFFFFF AND PUSH1 0x5 PUSH0 SWAP1 SLOAD SWAP1 PUSH2 0x100 EXP SWAP1 DIV PUSH20 0xFFFFFFFFFFFFFFFFFFFFFFFFFFFFFFFFFFFFFFFF AND PUSH20 0xFFFFFFFFFFFFFFFFFFFFFFFFFFFFFFFFFFFFFFFF AND SUB PUSH2 0xBE1 JUMPI PUSH1 0x5 PUSH0 PUSH2 0x100 EXP DUP2 SLOAD SWAP1 PUSH20 0xFFFFFFFFFFFFFFFFFFFFFFFFFFFFFFFFFFFFFFFF MUL NOT AND SWAP1 SSTORE CALLER PUSH1 0x7 PUSH0 ADD PUSH0 PUSH2 0x100 EXP DUP2 SLOAD DUP2 PUSH20 0xFFFFFFFFFFFFFFFFFFFFFFFFFFFFFFFFFFFFFFFF MUL NOT AND SWAP1 DUP4 PUSH20 0xFFFFFFFFFFFFFFFFFFFFFFFFFFFFFFFFFFFFFFFF AND MUL OR SWAP1 SSTORE POP PUSH1 0x7 PUSH0 ADD PUSH1 0x15 DUP2 DUP2 SWAP1 SLOAD SWAP1 PUSH2 0x100 EXP SWAP1 DIV PUSH4 0xFFFFFFFF AND DUP1 SWAP3 SWAP2 SWAP1 PUSH2 0xB1B SWAP1 PUSH2 0x3D91 JUMP JUMPDEST SWAP2 SWAP1 PUSH2 0x100 EXP DUP2 SLOAD DUP2 PUSH4 0xFFFFFFFF MUL NOT AND SWAP1 DUP4 PUSH4 0xFFFFFFFF AND MUL OR SWAP1 SSTORE POP POP PUSH1 0x7 PUSH0 ADD PUSH1 0x14 SWAP1 SLOAD SWAP1 PUSH2 0x100 EXP SWAP1 DIV PUSH1 0xFF AND ISZERO PUSH2 0xB5B JUMPI PUSH2 0xB5A PUSH0 PUSH2 0x2EBD JUMP JUMPDEST JUMPDEST PUSH1 0x7 PUSH0 ADD PUSH1 0x15 SWAP1 SLOAD SWAP1 PUSH2 0x100 EXP SWAP1 DIV PUSH4 0xFFFFFFFF AND PUSH4 0xFFFFFFFF AND PUSH1 0x7 PUSH0 ADD PUSH0 SWAP1 SLOAD SWAP1 PUSH2 0x100 EXP SWAP1 DIV PUSH20 0xFFFFFFFFFFFFFFFFFFFFFFFFFFFFFFFFFFFFFFFF AND PUSH20 0xFFFFFFFFFFFFFFFFFFFFFFFFFFFFFFFFFFFFFFFF AND PUSH32 0x11E1B985C07E1BF3FEC9BFD0BDB8C4A8E870BA2B26AA89FE50A6A19132CA10FD PUSH1 0x40 MLOAD PUSH1 0x40 MLOAD DUP1 SWAP2 SUB SWAP1 LOG3 PUSH2 0xC13 JUMP JUMPDEST PUSH1 0x40 MLOAD PUSH32 0x6C4360F000000000000000000000000000000000000000000000000000000000 DUP2 MSTORE PUSH1 0x4 ADD PUSH1 0x40 MLOAD DUP1 SWAP2 SUB SWAP1 REVERT JUMPDEST JUMP JUMPDEST TIMESTAMP PUSH32 0x0 PUSH6 0xFFFFFFFFFFFF AND LT ISZERO PUSH2 0xCBF JUMPI PUSH2 0xC4D PUSH2 0x22B9 JUMP JUMPDEST PUSH20 0xFFFFFFFFFFFFFFFFFFFFFFFFFFFFFFFFFFFFFFFF AND CALLER PUSH20 0xFFFFFFFFFFFFFFFFFFFFFFFFFFFFFFFFFFFFFFFF AND EQ PUSH2 0xCBA JUMPI PUSH1 0x40 MLOAD PUSH32 0x8C379A000000000000000000000000000000000000000000000000000000000 DUP2 MSTORE PUSH1 0x4 ADD PUSH2 0xCB1 SWAP1 PUSH2 0x3CE9 JUMP JUMPDEST PUSH1 0x40 MLOAD DUP1 SWAP2 SUB SWAP1 REVERT JUMPDEST PUSH2 0xD46 JUMP JUMPDEST PUSH2 0xCC7 PUSH2 0x16BB JUMP JUMPDEST PUSH20 0xFFFFFFFFFFFFFFFFFFFFFFFFFFFFFFFFFFFFFFFF AND CALLER PUSH20 0xFFFFFFFFFFFFFFFFFFFFFFFFFFFFFFFFFFFFFFFF AND EQ DUP1 ISZERO PUSH2 0xD06 JUMPI POP PUSH2 0xD04 PUSH2 0x18A2 JUMP JUMPDEST ISZERO JUMPDEST PUSH2 0xD45 JUMPI PUSH1 0x40 MLOAD PUSH32 0x8C379A000000000000000000000000000000000000000000000000000000000 DUP2 MSTORE PUSH1 0x4 ADD PUSH2 0xD3C SWAP1 PUSH2 0x3CE9 JUMP JUMPDEST PUSH1 0x40 MLOAD DUP1 SWAP2 SUB SWAP1 REVERT JUMPDEST JUMPDEST TIMESTAMP PUSH1 0x5 PUSH1 0x14 SWAP1 SLOAD SWAP1 PUSH2 0x100 EXP SWAP1 DIV PUSH6 0xFFFFFFFFFFFF AND PUSH6 0xFFFFFFFFFFFF AND LT ISZERO PUSH2 0xEA7 JUMPI PUSH0 PUSH1 0x5 PUSH1 0x14 SWAP1 SLOAD SWAP1 PUSH2 0x100 EXP SWAP1 DIV PUSH6 0xFFFFFFFFFFFF AND PUSH6 0xFFFFFFFFFFFF AND SUB PUSH2 0xDC8 JUMPI PUSH1 0x40 MLOAD PUSH32 0x8C379A000000000000000000000000000000000000000000000000000000000 DUP2 MSTORE PUSH1 0x4 ADD PUSH2 0xDBF SWAP1 PUSH2 0x3E06 JUMP JUMPDEST PUSH1 0x40 MLOAD DUP1 SWAP2 SUB SWAP1 REVERT JUMPDEST DUP1 PUSH20 0xFFFFFFFFFFFFFFFFFFFFFFFFFFFFFFFFFFFFFFFF AND PUSH1 0x2 PUSH0 SWAP1 SLOAD SWAP1 PUSH2 0x100 EXP SWAP1 DIV PUSH20 0xFFFFFFFFFFFFFFFFFFFFFFFFFFFFFFFFFFFFFFFF AND PUSH20 0xFFFFFFFFFFFFFFFFFFFFFFFFFFFFFFFFFFFFFFFF AND SUB PUSH2 0xE65 JUMPI PUSH1 0x5 PUSH1 0x14 PUSH2 0x100 EXP DUP2 SLOAD SWAP1 PUSH6 0xFFFFFFFFFFFF MUL NOT AND SWAP1 SSTORE PUSH1 0x2 PUSH0 PUSH2 0x100 EXP DUP2 SLOAD SWAP1 PUSH20 0xFFFFFFFFFFFFFFFFFFFFFFFFFFFFFFFFFFFFFFFF MUL NOT AND SWAP1 SSTORE PUSH2 0xE60 DUP2 PUSH2 0x2EDC JUMP JUMPDEST PUSH2 0xEA2 JUMP JUMPDEST DUP1 PUSH1 0x40 MLOAD PUSH32 0xC632231500000000000000000000000000000000000000000000000000000000 DUP2 MSTORE PUSH1 0x4 ADD PUSH2 0xE99 SWAP2 SWAP1 PUSH2 0x35A5 JUMP JUMPDEST PUSH1 0x40 MLOAD DUP1 SWAP2 SUB SWAP1 REVERT JUMPDEST PUSH2 0xF03 JUMP JUMPDEST TIMESTAMP PUSH1 0x5 PUSH1 0x14 SWAP1 SLOAD SWAP1 PUSH2 0x100 EXP SWAP1 DIV PUSH6 0xFFFFFFFFFFFF AND PUSH2 0xEC7 SWAP2 SWAP1 PUSH2 0x3E35 JUMP JUMPDEST PUSH1 0x40 MLOAD PUSH32 0x223A6CBB00000000000000000000000000000000000000000000000000000000 DUP2 MSTORE PUSH1 0x4 ADD PUSH2 0xEFA SWAP2 SWAP1 PUSH2 0x3E7D JUMP JUMPDEST PUSH1 0x40 MLOAD DUP1 SWAP2 SUB SWAP1 REVERT JUMPDEST POP JUMP JUMPDEST PUSH0 PUSH1 0x8 PUSH0 ADD PUSH0 SWAP1 SLOAD SWAP1 PUSH2 0x100 EXP SWAP1 DIV PUSH20 0xFFFFFFFFFFFFFFFFFFFFFFFFFFFFFFFFFFFFFFFF AND SWAP1 POP SWAP1 JUMP JUMPDEST PUSH0 DUP5 DUP5 DUP5 DUP5 PUSH1 0x40 MLOAD PUSH1 0x20 ADD PUSH2 0xF48 SWAP5 SWAP4 SWAP3 SWAP2 SWAP1 PUSH2 0x3EE8 JUMP JUMPDEST PUSH1 0x40 MLOAD PUSH1 0x20 DUP2 DUP4 SUB SUB DUP2 MSTORE SWAP1 PUSH1 0x40 MSTORE DUP1 MLOAD SWAP1 PUSH1 0x20 ADD KECCAK256 PUSH0 SHR SWAP1 POP SWAP5 SWAP4 POP POP POP POP JUMP JUMPDEST PUSH0 SWAP2 SWAP1 POP JUMP JUMPDEST PUSH0 PUSH1 0x9 PUSH0 ADD PUSH0 SWAP1 SLOAD SWAP1 PUSH2 0x100 EXP SWAP1 DIV PUSH20 0xFFFFFFFFFFFFFFFFFFFFFFFFFFFFFFFFFFFFFFFF AND SWAP1 POP SWAP1 JUMP JUMPDEST DUP1 PUSH1 0xA PUSH0 DUP5 PUSH20 0xFFFFFFFFFFFFFFFFFFFFFFFFFFFFFFFFFFFFFFFF AND PUSH20 0xFFFFFFFFFFFFFFFFFFFFFFFFFFFFFFFFFFFFFFFF AND DUP2 MSTORE PUSH1 0x20 ADD SWAP1 DUP2 MSTORE PUSH1 0x20 ADD PUSH0 KECCAK256 PUSH0 PUSH2 0x100 EXP DUP2 SLOAD DUP2 PUSH20 0xFFFFFFFFFFFFFFFFFFFFFFFFFFFFFFFFFFFFFFFF MUL NOT AND SWAP1 DUP4 PUSH20 0xFFFFFFFFFFFFFFFFFFFFFFFFFFFFFFFFFFFFFFFF AND MUL OR SWAP1 SSTORE POP POP POP JUMP JUMPDEST PUSH0 DUP1 PUSH1 0xA PUSH0 CALLER PUSH20 0xFFFFFFFFFFFFFFFFFFFFFFFFFFFFFFFFFFFFFFFF AND PUSH20 0xFFFFFFFFFFFFFFFFFFFFFFFFFFFFFFFFFFFFFFFF AND DUP2 MSTORE PUSH1 0x20 ADD SWAP1 DUP2 MSTORE PUSH1 0x20 ADD PUSH0 KECCAK256 PUSH0 SWAP1 SLOAD SWAP1 PUSH2 0x100 EXP SWAP1 DIV PUSH20 0xFFFFFFFFFFFFFFFFFFFFFFFFFFFFFFFFFFFFFFFF AND SWAP1 POP PUSH0 DUP2 PUSH20 0xFFFFFFFFFFFFFFFFFFFFFFFFFFFFFFFFFFFFFFFF AND PUSH4 0x13CF08B DUP6 PUSH1 0x40 MLOAD DUP3 PUSH4 0xFFFFFFFF AND PUSH1 0xE0 SHL DUP2 MSTORE PUSH1 0x4 ADD PUSH2 0x10B4 SWAP2 SWAP1 PUSH2 0x37DF JUMP JUMPDEST PUSH2 0x140 PUSH1 0x40 MLOAD DUP1 DUP4 SUB DUP2 DUP7 GAS STATICCALL ISZERO DUP1 ISZERO PUSH2 0x10D0 JUMPI RETURNDATASIZE PUSH0 DUP1 RETURNDATACOPY RETURNDATASIZE PUSH0 REVERT JUMPDEST POP POP POP POP PUSH1 0x40 MLOAD RETURNDATASIZE PUSH1 0x1F NOT PUSH1 0x1F DUP3 ADD AND DUP3 ADD DUP1 PUSH1 0x40 MSTORE POP DUP2 ADD SWAP1 PUSH2 0x10F4 SWAP2 SWAP1 PUSH2 0x40C6 JUMP JUMPDEST SWAP1 POP DUP1 PUSH1 0xC0 ADD MLOAD ISZERO PUSH2 0x110B JUMPI PUSH1 0x5 SWAP3 POP POP POP PUSH2 0x12E1 JUMP JUMPDEST DUP1 PUSH1 0xE0 ADD MLOAD ISZERO PUSH2 0x1120 JUMPI PUSH1 0x2 SWAP3 POP POP POP PUSH2 0x12E1 JUMP JUMPDEST DUP1 PUSH2 0x120 ADD MLOAD ISZERO PUSH2 0x1136 JUMPI PUSH1 0x3 SWAP3 POP POP POP PUSH2 0x12E1 JUMP JUMPDEST DUP1 PUSH2 0x100 ADD MLOAD ISZERO PUSH2 0x114C JUMPI PUSH1 0x4 SWAP3 POP POP POP PUSH2 0x12E1 JUMP JUMPDEST PUSH0 DUP2 PUSH1 0x80 ADD MLOAD PUSH6 0xFFFFFFFFFFFF AND SWAP1 POP PUSH0 DUP2 SUB PUSH2 0x11A0 JUMPI DUP5 PUSH1 0x40 MLOAD PUSH32 0x6AD0607500000000000000000000000000000000000000000000000000000000 DUP2 MSTORE PUSH1 0x4 ADD PUSH2 0x1197 SWAP2 SWAP1 PUSH2 0x37DF JUMP JUMPDEST PUSH1 0x40 MLOAD DUP1 SWAP2 SUB SWAP1 REVERT JUMPDEST PUSH0 TIMESTAMP SWAP1 POP DUP2 DUP2 GT PUSH2 0x11B7 JUMPI PUSH0 SWAP5 POP POP POP POP POP PUSH2 0x12E1 JUMP JUMPDEST PUSH0 DUP4 PUSH1 0x20 ADD MLOAD SWAP1 POP PUSH0 DUP2 SWAP1 POP PUSH0 DUP2 PUSH20 0xFFFFFFFFFFFFFFFFFFFFFFFFFFFFFFFFFFFFFFFF AND PUSH4 0x5F8D96DE PUSH1 0x40 MLOAD DUP2 PUSH4 0xFFFFFFFF AND PUSH1 0xE0 SHL DUP2 MSTORE PUSH1 0x4 ADD PUSH1 0x20 PUSH1 0x40 MLOAD DUP1 DUP4 SUB DUP2 DUP7 GAS STATICCALL ISZERO DUP1 ISZERO PUSH2 0x120D JUMPI RETURNDATASIZE PUSH0 DUP1 RETURNDATACOPY RETURNDATASIZE PUSH0 REVERT JUMPDEST POP POP POP POP PUSH1 0x40 MLOAD RETURNDATASIZE PUSH1 0x1F NOT PUSH1 0x1F DUP3 ADD AND DUP3 ADD DUP1 PUSH1 0x40 MSTORE POP DUP2 ADD SWAP1 PUSH2 0x1231 SWAP2 SWAP1 PUSH2 0x4106 JUMP JUMPDEST SWAP1 POP DUP1 DUP5 GT PUSH2 0x124A JUMPI PUSH1 0x1 SWAP8 POP POP POP POP POP POP POP POP PUSH2 0x12E1 JUMP JUMPDEST PUSH0 PUSH2 0x1254 DUP8 PUSH2 0x2FE5 JUMP JUMPDEST SWAP1 POP PUSH0 DUP2 PUSH1 0x5 DUP2 GT ISZERO PUSH2 0x126A JUMPI PUSH2 0x1269 PUSH2 0x3894 JUMP JUMPDEST JUMPDEST SWAP1 POP DUP9 PUSH20 0xFFFFFFFFFFFFFFFFFFFFFFFFFFFFFFFFFFFFFFFF AND PUSH4 0x1E9608A8 DUP3 DUP14 PUSH1 0x40 MLOAD DUP4 PUSH4 0xFFFFFFFF AND PUSH1 0xE0 SHL DUP2 MSTORE PUSH1 0x4 ADD PUSH2 0x12A7 SWAP3 SWAP2 SWAP1 PUSH2 0x4131 JUMP JUMPDEST PUSH0 PUSH1 0x40 MLOAD DUP1 DUP4 SUB DUP2 PUSH0 DUP8 DUP1 EXTCODESIZE ISZERO DUP1 ISZERO PUSH2 0x12BE JUMPI PUSH0 DUP1 REVERT JUMPDEST POP GAS CALL ISZERO DUP1 ISZERO PUSH2 0x12D0 JUMPI RETURNDATASIZE PUSH0 DUP1 RETURNDATACOPY RETURNDATASIZE PUSH0 REVERT JUMPDEST POP POP POP POP DUP2 SWAP10 POP POP POP POP POP POP POP POP POP POP JUMPDEST SWAP2 SWAP1 POP JUMP JUMPDEST TIMESTAMP PUSH32 0x0 PUSH6 0xFFFFFFFFFFFF AND LT ISZERO PUSH2 0x1390 JUMPI PUSH2 0x131E PUSH2 0x22B9 JUMP JUMPDEST PUSH20 0xFFFFFFFFFFFFFFFFFFFFFFFFFFFFFFFFFFFFFFFF AND CALLER PUSH20 0xFFFFFFFFFFFFFFFFFFFFFFFFFFFFFFFFFFFFFFFF AND EQ PUSH2 0x138B JUMPI PUSH1 0x40 MLOAD PUSH32 0x8C379A000000000000000000000000000000000000000000000000000000000 DUP2 MSTORE PUSH1 0x4 ADD PUSH2 0x1382 SWAP1 PUSH2 0x3CE9 JUMP JUMPDEST PUSH1 0x40 MLOAD DUP1 SWAP2 SUB SWAP1 REVERT JUMPDEST PUSH2 0x1417 JUMP JUMPDEST PUSH2 0x1398 PUSH2 0x16BB JUMP JUMPDEST PUSH20 0xFFFFFFFFFFFFFFFFFFFFFFFFFFFFFFFFFFFFFFFF AND CALLER PUSH20 0xFFFFFFFFFFFFFFFFFFFFFFFFFFFFFFFFFFFFFFFF AND EQ DUP1 ISZERO PUSH2 0x13D7 JUMPI POP PUSH2 0x13D5 PUSH2 0x18A2 JUMP JUMPDEST ISZERO JUMPDEST PUSH2 0x1416 JUMPI PUSH1 0x40 MLOAD PUSH32 0x8C379A000000000000000000000000000000000000000000000000000000000 DUP2 MSTORE PUSH1 0x4 ADD PUSH2 0x140D SWAP1 PUSH2 0x3CE9 JUMP JUMPDEST PUSH1 0x40 MLOAD DUP1 SWAP2 SUB SWAP1 REVERT JUMPDEST JUMPDEST DUP1 PUSH20 0xFFFFFFFFFFFFFFFFFFFFFFFFFFFFFFFFFFFFFFFF AND PUSH1 0x2 PUSH0 SWAP1 SLOAD SWAP1 PUSH2 0x100 EXP SWAP1 DIV PUSH20 0xFFFFFFFFFFFFFFFFFFFFFFFFFFFFFFFFFFFFFFFF AND PUSH20 0xFFFFFFFFFFFFFFFFFFFFFFFFFFFFFFFFFFFFFFFF AND SUB PUSH2 0x14EE JUMPI PUSH1 0x5 PUSH1 0x14 PUSH2 0x100 EXP DUP2 SLOAD SWAP1 PUSH6 0xFFFFFFFFFFFF MUL NOT AND SWAP1 SSTORE PUSH1 0x2 PUSH0 PUSH2 0x100 EXP DUP2 SLOAD SWAP1 PUSH20 0xFFFFFFFFFFFFFFFFFFFFFFFFFFFFFFFFFFFFFFFF MUL NOT AND SWAP1 SSTORE DUP1 PUSH20 0xFFFFFFFFFFFFFFFFFFFFFFFFFFFFFFFFFFFFFFFF AND PUSH32 0x62125DD3D531106FF055AAC7090CCEC5E1EDEC1D0DB6B0F1355F2CA154754695 PUSH1 0x40 MLOAD PUSH1 0x40 MLOAD DUP1 SWAP2 SUB SWAP1 LOG2 PUSH2 0x152B JUMP JUMPDEST DUP1 PUSH1 0x40 MLOAD PUSH32 0xC632231500000000000000000000000000000000000000000000000000000000 DUP2 MSTORE PUSH1 0x4 ADD PUSH2 0x1522 SWAP2 SWAP1 PUSH2 0x35A5 JUMP JUMPDEST PUSH1 0x40 MLOAD DUP1 SWAP2 SUB SWAP1 REVERT JUMPDEST POP JUMP JUMPDEST PUSH1 0x60 PUSH1 0x40 MLOAD DUP1 PUSH1 0x40 ADD PUSH1 0x40 MSTORE DUP1 PUSH1 0xA DUP2 MSTORE PUSH1 0x20 ADD PUSH32 0x54696D65207374616D7000000000000000000000000000000000000000000000 DUP2 MSTORE POP SWAP1 POP SWAP1 JUMP JUMPDEST PUSH2 0x1573 PUSH2 0x16BB JUMP JUMPDEST PUSH20 0xFFFFFFFFFFFFFFFFFFFFFFFFFFFFFFFFFFFFFFFF AND CALLER PUSH20 0xFFFFFFFFFFFFFFFFFFFFFFFFFFFFFFFFFFFFFFFF AND EQ DUP1 ISZERO PUSH2 0x15B2 JUMPI POP PUSH2 0x15B0 PUSH2 0x18A2 JUMP JUMPDEST ISZERO JUMPDEST PUSH2 0x15F1 JUMPI PUSH1 0x40 MLOAD PUSH32 0x8C379A000000000000000000000000000000000000000000000000000000000 DUP2 MSTORE PUSH1 0x4 ADD PUSH2 0x15E8 SWAP1 PUSH2 0x3CE9 JUMP JUMPDEST PUSH1 0x40 MLOAD DUP1 SWAP2 SUB SWAP1 REVERT JUMPDEST DUP1 PUSH1 0x5 PUSH0 PUSH2 0x100 EXP DUP2 SLOAD DUP2 PUSH20 0xFFFFFFFFFFFFFFFFFFFFFFFFFFFFFFFFFFFFFFFF MUL NOT AND SWAP1 DUP4 PUSH20 0xFFFFFFFFFFFFFFFFFFFFFFFFFFFFFFFFFFFFFFFF AND MUL OR SWAP1 SSTORE POP DUP1 PUSH20 0xFFFFFFFFFFFFFFFFFFFFFFFFFFFFFFFFFFFFFFFF AND PUSH32 0xFF3CAD3EE28C342AD5F3D7C8FF8559EE4D21EB48494092B82A1652E443B3420B PUSH1 0x40 MLOAD PUSH1 0x40 MLOAD DUP1 SWAP2 SUB SWAP1 LOG2 POP JUMP JUMPDEST PUSH1 0x60 PUSH1 0x40 MLOAD DUP1 PUSH1 0x40 ADD PUSH1 0x40 MSTORE DUP1 PUSH1 0x1 DUP2 MSTORE PUSH1 0x20 ADD PUSH32 0x3100000000000000000000000000000000000000000000000000000000000000 DUP2 MSTORE POP SWAP1 POP SWAP1 JUMP JUMPDEST PUSH0 TIMESTAMP SWAP1 POP SWAP1 JUMP JUMPDEST PUSH0 PUSH1 0x6 PUSH0 ADD PUSH0 SWAP1 SLOAD SWAP1 PUSH2 0x100 EXP SWAP1 DIV PUSH20 0xFFFFFFFFFFFFFFFFFFFFFFFFFFFFFFFFFFFFFFFF AND SWAP1 POP SWAP1 JUMP JUMPDEST PUSH0 DUP2 PUSH1 0x40 MLOAD PUSH1 0x20 ADD PUSH2 0x16F7 SWAP2 SWAP1 PUSH2 0x4178 JUMP JUMPDEST PUSH1 0x40 MLOAD PUSH1 0x20 DUP2 DUP4 SUB SUB DUP2 MSTORE SWAP1 PUSH1 0x40 MSTORE DUP1 MLOAD SWAP1 PUSH1 0x20 ADD KECCAK256 SWAP1 POP PUSH0 DUP4 SWAP1 POP DUP2 PUSH1 0x40 MLOAD PUSH1 0x20 ADD PUSH2 0x1723 SWAP1 PUSH2 0x41E6 JUMP JUMPDEST PUSH1 0x40 MLOAD PUSH1 0x20 DUP2 DUP4 SUB SUB DUP2 MSTORE SWAP1 PUSH1 0x40 MSTORE DUP1 MLOAD SWAP1 PUSH1 0x20 ADD KECCAK256 SUB PUSH2 0x1796 JUMPI DUP1 PUSH1 0xC PUSH0 PUSH2 0x100 EXP DUP2 SLOAD DUP2 PUSH4 0xFFFFFFFF MUL NOT AND SWAP1 DUP4 PUSH4 0xFFFFFFFF AND MUL OR SWAP1 SSTORE POP DUP1 PUSH4 0xFFFFFFFF AND PUSH32 0xCECCF714BC39BDE68A069AE4149980BD5382CB4E6723FBDB6E7723728E4885CE PUSH1 0x40 MLOAD PUSH1 0x40 MLOAD DUP1 SWAP2 SUB SWAP1 LOG2 PUSH2 0x189C JUMP JUMPDEST DUP2 PUSH1 0x40 MLOAD PUSH1 0x20 ADD PUSH2 0x17A6 SWAP1 PUSH2 0x4244 JUMP JUMPDEST PUSH1 0x40 MLOAD PUSH1 0x20 DUP2 DUP4 SUB SUB DUP2 MSTORE SWAP1 PUSH1 0x40 MSTORE DUP1 MLOAD SWAP1 PUSH1 0x20 ADD KECCAK256 SUB PUSH2 0x181A JUMPI DUP1 PUSH1 0xC PUSH1 0x4 PUSH2 0x100 EXP DUP2 SLOAD DUP2 PUSH4 0xFFFFFFFF MUL NOT AND SWAP1 DUP4 PUSH4 0xFFFFFFFF AND MUL OR SWAP1 SSTORE POP DUP1 PUSH4 0xFFFFFFFF AND PUSH32 0xDF149C5D5960B920BA24706165B5DCB67E2AC13EC5C3AA0909FA229BDD328D97 PUSH1 0x40 MLOAD PUSH1 0x40 MLOAD DUP1 SWAP2 SUB SWAP1 LOG2 PUSH2 0x189B JUMP JUMPDEST DUP2 PUSH1 0x40 MLOAD PUSH1 0x20 ADD PUSH2 0x182A SWAP1 PUSH2 0x42A2 JUMP JUMPDEST PUSH1 0x40 MLOAD PUSH1 0x20 DUP2 DUP4 SUB SUB DUP2 MSTORE SWAP1 PUSH1 0x40 MSTORE DUP1 MLOAD SWAP1 PUSH1 0x20 ADD KECCAK256 SUB PUSH2 0x189A JUMPI DUP1 PUSH1 0xC PUSH1 0x8 PUSH2 0x100 EXP DUP2 SLOAD DUP2 PUSH4 0xFFFFFFFF MUL NOT AND SWAP1 DUP4 PUSH4 0xFFFFFFFF AND MUL OR SWAP1 SSTORE POP DUP1 PUSH4 0xFFFFFFFF AND PUSH32 0xC6213165F7E768A76A2092906D1174E3B00C99567ACC7E4211898FAE0AE2C33C PUSH1 0x40 MLOAD PUSH1 0x40 MLOAD DUP1 SWAP2 SUB SWAP1 LOG2 JUMPDEST JUMPDEST JUMPDEST POP POP POP POP JUMP JUMPDEST PUSH0 PUSH1 0x6 PUSH0 ADD PUSH1 0x14 SWAP1 SLOAD SWAP1 PUSH2 0x100 EXP SWAP1 DIV PUSH1 0xFF AND SWAP1 POP SWAP1 JUMP JUMPDEST PUSH0 PUSH1 0x60 DUP1 PUSH0 DUP1 PUSH0 PUSH1 0x60 PUSH2 0x18CB PUSH2 0x3082 JUMP JUMPDEST PUSH2 0x18D3 PUSH2 0x30BC JUMP JUMPDEST CHAINID ADDRESS PUSH0 DUP1 SHL PUSH0 PUSH8 0xFFFFFFFFFFFFFFFF DUP2 GT ISZERO PUSH2 0x18F2 JUMPI PUSH2 0x18F1 PUSH2 0x35F9 JUMP JUMPDEST JUMPDEST PUSH1 0x40 MLOAD SWAP1 DUP1 DUP3 MSTORE DUP1 PUSH1 0x20 MUL PUSH1 0x20 ADD DUP3 ADD PUSH1 0x40 MSTORE DUP1 ISZERO PUSH2 0x1920 JUMPI DUP2 PUSH1 0x20 ADD PUSH1 0x20 DUP3 MUL DUP1 CALLDATASIZE DUP4 CALLDATACOPY DUP1 DUP3 ADD SWAP2 POP POP SWAP1 POP JUMPDEST POP PUSH32 0xF00000000000000000000000000000000000000000000000000000000000000 SWAP6 SWAP5 SWAP4 SWAP3 SWAP2 SWAP1 SWAP7 POP SWAP7 POP SWAP7 POP SWAP7 POP SWAP7 POP SWAP7 POP SWAP7 POP SWAP1 SWAP2 SWAP3 SWAP4 SWAP5 SWAP6 SWAP7 JUMP JUMPDEST PUSH0 PUSH2 0x196C DUP6 DUP6 DUP6 DUP6 PUSH2 0xF30 JUMP JUMPDEST SWAP1 POP PUSH0 PUSH1 0xA PUSH0 CALLER PUSH20 0xFFFFFFFFFFFFFFFFFFFFFFFFFFFFFFFFFFFFFFFF AND PUSH20 0xFFFFFFFFFFFFFFFFFFFFFFFFFFFFFFFFFFFFFFFF AND DUP2 MSTORE PUSH1 0x20 ADD SWAP1 DUP2 MSTORE PUSH1 0x20 ADD PUSH0 KECCAK256 PUSH0 SWAP1 SLOAD SWAP1 PUSH2 0x100 EXP SWAP1 DIV PUSH20 0xFFFFFFFFFFFFFFFFFFFFFFFFFFFFFFFFFFFFFFFF AND SWAP1 POP PUSH0 PUSH20 0xFFFFFFFFFFFFFFFFFFFFFFFFFFFFFFFFFFFFFFFF AND DUP2 PUSH20 0xFFFFFFFFFFFFFFFFFFFFFFFFFFFFFFFFFFFFFFFF AND EQ PUSH2 0x1B6B JUMPI PUSH0 PUSH2 0x1A0B DUP4 PUSH2 0x1019 JUMP JUMPDEST SWAP1 POP PUSH1 0x5 DUP1 DUP2 GT ISZERO PUSH2 0x1A20 JUMPI PUSH2 0x1A1F PUSH2 0x3894 JUMP JUMPDEST JUMPDEST DUP2 PUSH1 0x5 DUP2 GT ISZERO PUSH2 0x1A33 JUMPI PUSH2 0x1A32 PUSH2 0x3894 JUMP JUMPDEST JUMPDEST EQ DUP1 PUSH2 0x1A63 JUMPI POP PUSH1 0x2 PUSH1 0x5 DUP2 GT ISZERO PUSH2 0x1A4E JUMPI PUSH2 0x1A4D PUSH2 0x3894 JUMP JUMPDEST JUMPDEST DUP2 PUSH1 0x5 DUP2 GT ISZERO PUSH2 0x1A61 JUMPI PUSH2 0x1A60 PUSH2 0x3894 JUMP JUMPDEST JUMPDEST EQ JUMPDEST ISZERO PUSH2 0x1AA5 JUMPI DUP3 PUSH1 0x40 MLOAD PUSH32 0xDF7FE1CD00000000000000000000000000000000000000000000000000000000 DUP2 MSTORE PUSH1 0x4 ADD PUSH2 0x1A9C SWAP2 SWAP1 PUSH2 0x37DF JUMP JUMPDEST PUSH1 0x40 MLOAD DUP1 SWAP2 SUB SWAP1 REVERT JUMPDEST PUSH0 DUP3 SWAP1 POP PUSH0 DUP2 PUSH20 0xFFFFFFFFFFFFFFFFFFFFFFFFFFFFFFFFFFFFFFFF AND PUSH4 0x13CF08B DUP7 PUSH1 0x40 MLOAD DUP3 PUSH4 0xFFFFFFFF AND PUSH1 0xE0 SHL DUP2 MSTORE PUSH1 0x4 ADD PUSH2 0x1AE3 SWAP2 SWAP1 PUSH2 0x37DF JUMP JUMPDEST PUSH2 0x140 PUSH1 0x40 MLOAD DUP1 DUP4 SUB DUP2 DUP7 GAS STATICCALL ISZERO DUP1 ISZERO PUSH2 0x1AFF JUMPI RETURNDATASIZE PUSH0 DUP1 RETURNDATACOPY RETURNDATASIZE PUSH0 REVERT JUMPDEST POP POP POP POP PUSH1 0x40 MLOAD RETURNDATASIZE PUSH1 0x1F NOT PUSH1 0x1F DUP3 ADD AND DUP3 ADD DUP1 PUSH1 0x40 MSTORE POP DUP2 ADD SWAP1 PUSH2 0x1B23 SWAP2 SWAP1 PUSH2 0x40C6 JUMP JUMPDEST SWAP1 POP PUSH1 0x1 DUP2 PUSH1 0xE0 ADD SWAP1 ISZERO ISZERO SWAP1 DUP2 ISZERO ISZERO DUP2 MSTORE POP POP DUP5 PUSH32 0x789CF55BE980739DAD1D0699B93B58E806B51C9D96619BFA8FE0A28ABAA7B30C PUSH1 0x40 MLOAD PUSH1 0x40 MLOAD DUP1 SWAP2 SUB SWAP1 LOG2 POP POP POP PUSH2 0x1BA8 JUMP JUMPDEST CALLER PUSH1 0x40 MLOAD PUSH32 0xDA75B54A00000000000000000000000000000000000000000000000000000000 DUP2 MSTORE PUSH1 0x4 ADD PUSH2 0x1B9F SWAP2 SWAP1 PUSH2 0x35A5 JUMP JUMPDEST PUSH1 0x40 MLOAD DUP1 SWAP2 SUB SWAP1 REVERT JUMPDEST POP POP POP POP POP POP JUMP JUMPDEST TIMESTAMP PUSH32 0x0 PUSH6 0xFFFFFFFFFFFF AND LT ISZERO PUSH2 0x1C5A JUMPI PUSH2 0x1BE8 PUSH2 0x22B9 JUMP JUMPDEST PUSH20 0xFFFFFFFFFFFFFFFFFFFFFFFFFFFFFFFFFFFFFFFF AND CALLER PUSH20 0xFFFFFFFFFFFFFFFFFFFFFFFFFFFFFFFFFFFFFFFF AND EQ PUSH2 0x1C55 JUMPI PUSH1 0x40 MLOAD PUSH32 0x8C379A000000000000000000000000000000000000000000000000000000000 DUP2 MSTORE PUSH1 0x4 ADD PUSH2 0x1C4C SWAP1 PUSH2 0x3CE9 JUMP JUMPDEST PUSH1 0x40 MLOAD DUP1 SWAP2 SUB SWAP1 REVERT JUMPDEST PUSH2 0x1CE1 JUMP JUMPDEST PUSH2 0x1C62 PUSH2 0x16BB JUMP JUMPDEST PUSH20 0xFFFFFFFFFFFFFFFFFFFFFFFFFFFFFFFFFFFFFFFF AND CALLER PUSH20 0xFFFFFFFFFFFFFFFFFFFFFFFFFFFFFFFFFFFFFFFF AND EQ DUP1 ISZERO PUSH2 0x1CA1 JUMPI POP PUSH2 0x1C9F PUSH2 0x18A2 JUMP JUMPDEST ISZERO JUMPDEST PUSH2 0x1CE0 JUMPI PUSH1 0x40 MLOAD PUSH32 0x8C379A000000000000000000000000000000000000000000000000000000000 DUP2 MSTORE PUSH1 0x4 ADD PUSH2 0x1CD7 SWAP1 PUSH2 0x3CE9 JUMP JUMPDEST PUSH1 0x40 MLOAD DUP1 SWAP2 SUB SWAP1 REVERT JUMPDEST JUMPDEST PUSH0 DUP2 PUSH20 0xFFFFFFFFFFFFFFFFFFFFFFFFFFFFFFFFFFFFFFFF AND EXTCODESIZE GT ISZERO PUSH2 0x1E20 JUMPI CALLER PUSH20 0xFFFFFFFFFFFFFFFFFFFFFFFFFFFFFFFFFFFFFFFF AND PUSH1 0x6 PUSH0 ADD PUSH0 SWAP1 SLOAD SWAP1 PUSH2 0x100 EXP SWAP1 DIV PUSH20 0xFFFFFFFFFFFFFFFFFFFFFFFFFFFFFFFFFFFFFFFF AND PUSH20 0xFFFFFFFFFFFFFFFFFFFFFFFFFFFFFFFFFFFFFFFF AND SUB PUSH2 0x1D64 JUMPI PUSH2 0x1D5F DUP2 PUSH2 0x2EDC JUMP JUMPDEST PUSH2 0x1E1B JUMP JUMPDEST PUSH3 0x13C680 TIMESTAMP PUSH2 0x1D73 SWAP2 SWAP1 PUSH2 0x42B6 JUMP JUMPDEST PUSH1 0x5 PUSH1 0x14 PUSH2 0x100 EXP DUP2 SLOAD DUP2 PUSH6 0xFFFFFFFFFFFF MUL NOT AND SWAP1 DUP4 PUSH6 0xFFFFFFFFFFFF AND MUL OR SWAP1 SSTORE POP DUP1 PUSH1 0x2 PUSH0 PUSH2 0x100 EXP DUP2 SLOAD DUP2 PUSH20 0xFFFFFFFFFFFFFFFFFFFFFFFFFFFFFFFFFFFFFFFF MUL NOT AND SWAP1 DUP4 PUSH20 0xFFFFFFFFFFFFFFFFFFFFFFFFFFFFFFFFFFFFFFFF AND MUL OR SWAP1 SSTORE POP DUP1 PUSH20 0xFFFFFFFFFFFFFFFFFFFFFFFFFFFFFFFFFFFFFFFF AND PUSH32 0x30B8FE69C9B4C23CC01223881227C0CC8CBA5CC56D59263F51711DF1A8F2C667 PUSH1 0x40 MLOAD PUSH1 0x40 MLOAD DUP1 SWAP2 SUB SWAP1 LOG2 JUMPDEST PUSH2 0x1E5D JUMP JUMPDEST DUP1 PUSH1 0x40 MLOAD PUSH32 0xC632231500000000000000000000000000000000000000000000000000000000 DUP2 MSTORE PUSH1 0x4 ADD PUSH2 0x1E54 SWAP2 SWAP1 PUSH2 0x35A5 JUMP JUMPDEST PUSH1 0x40 MLOAD DUP1 SWAP2 SUB SWAP1 REVERT JUMPDEST POP JUMP JUMPDEST CALLER PUSH20 0xFFFFFFFFFFFFFFFFFFFFFFFFFFFFFFFFFFFFFFFF AND DUP5 PUSH20 0xFFFFFFFFFFFFFFFFFFFFFFFFFFFFFFFFFFFFFFFF AND SUB PUSH2 0x20EB JUMPI PUSH0 PUSH2 0x1EA0 DUP6 DUP6 DUP6 DUP6 PUSH2 0xF30 JUMP JUMPDEST SWAP1 POP PUSH0 PUSH2 0x1EAC DUP3 PUSH2 0x1019 JUMP JUMPDEST SWAP1 POP PUSH1 0x4 PUSH1 0x5 DUP2 GT ISZERO PUSH2 0x1EC2 JUMPI PUSH2 0x1EC1 PUSH2 0x3894 JUMP JUMPDEST JUMPDEST DUP2 PUSH1 0x5 DUP2 GT ISZERO PUSH2 0x1ED5 JUMPI PUSH2 0x1ED4 PUSH2 0x3894 JUMP JUMPDEST JUMPDEST SUB PUSH2 0x2049 JUMPI PUSH0 PUSH1 0xA PUSH0 CALLER PUSH20 0xFFFFFFFFFFFFFFFFFFFFFFFFFFFFFFFFFFFFFFFF AND PUSH20 0xFFFFFFFFFFFFFFFFFFFFFFFFFFFFFFFFFFFFFFFF AND DUP2 MSTORE PUSH1 0x20 ADD SWAP1 DUP2 MSTORE PUSH1 0x20 ADD PUSH0 KECCAK256 PUSH0 SWAP1 SLOAD SWAP1 PUSH2 0x100 EXP SWAP1 DIV PUSH20 0xFFFFFFFFFFFFFFFFFFFFFFFFFFFFFFFFFFFFFFFF AND SWAP1 POP DUP1 PUSH20 0xFFFFFFFFFFFFFFFFFFFFFFFFFFFFFFFFFFFFFFFF AND PUSH4 0x1E9608A8 PUSH1 0x5 DUP6 PUSH1 0x40 MLOAD DUP4 PUSH4 0xFFFFFFFF AND PUSH1 0xE0 SHL DUP2 MSTORE PUSH1 0x4 ADD PUSH2 0x1F76 SWAP3 SWAP2 SWAP1 PUSH2 0x432B JUMP JUMPDEST PUSH0 PUSH1 0x40 MLOAD DUP1 DUP4 SUB DUP2 PUSH0 DUP8 DUP1 EXTCODESIZE ISZERO DUP1 ISZERO PUSH2 0x1F8D JUMPI PUSH0 DUP1 REVERT JUMPDEST POP GAS CALL ISZERO DUP1 ISZERO PUSH2 0x1F9F JUMPI RETURNDATASIZE PUSH0 DUP1 RETURNDATACOPY RETURNDATASIZE PUSH0 REVERT JUMPDEST POP POP POP POP DUP3 PUSH1 0xA PUSH0 CALLER PUSH20 0xFFFFFFFFFFFFFFFFFFFFFFFFFFFFFFFFFFFFFFFF AND PUSH20 0xFFFFFFFFFFFFFFFFFFFFFFFFFFFFFFFFFFFFFFFF AND DUP2 MSTORE PUSH1 0x20 ADD SWAP1 DUP2 MSTORE PUSH1 0x20 ADD PUSH0 KECCAK256 PUSH0 SWAP1 SLOAD SWAP1 PUSH2 0x100 EXP SWAP1 DIV PUSH20 0xFFFFFFFFFFFFFFFFFFFFFFFFFFFFFFFFFFFFFFFF AND PUSH20 0xFFFFFFFFFFFFFFFFFFFFFFFFFFFFFFFFFFFFFFFF AND PUSH32 0x63D1CC08AAAE6E4C1E85034D4067073EA84D1113B6281A146A76156A7B3A9A31 PUSH1 0x40 MLOAD PUSH1 0x40 MLOAD DUP1 SWAP2 SUB SWAP1 LOG3 POP PUSH2 0x20E4 JUMP JUMPDEST PUSH1 0xA PUSH0 CALLER PUSH20 0xFFFFFFFFFFFFFFFFFFFFFFFFFFFFFFFFFFFFFFFF AND PUSH20 0xFFFFFFFFFFFFFFFFFFFFFFFFFFFFFFFFFFFFFFFF AND DUP2 MSTORE PUSH1 0x20 ADD SWAP1 DUP2 MSTORE PUSH1 0x20 ADD PUSH0 KECCAK256 PUSH0 SWAP1 SLOAD SWAP1 PUSH2 0x100 EXP SWAP1 DIV PUSH20 0xFFFFFFFFFFFFFFFFFFFFFFFFFFFFFFFFFFFFFFFF AND DUP3 PUSH1 0x40 MLOAD PUSH32 0x5F1E5AB600000000000000000000000000000000000000000000000000000000 DUP2 MSTORE PUSH1 0x4 ADD PUSH2 0x20DB SWAP3 SWAP2 SWAP1 PUSH2 0x4352 JUMP JUMPDEST PUSH1 0x40 MLOAD DUP1 SWAP2 SUB SWAP1 REVERT JUMPDEST POP POP PUSH2 0x2128 JUMP JUMPDEST CALLER PUSH1 0x40 MLOAD PUSH32 0xDA75B54A00000000000000000000000000000000000000000000000000000000 DUP2 MSTORE PUSH1 0x4 ADD PUSH2 0x211F SWAP2 SWAP1 PUSH2 0x35A5 JUMP JUMPDEST PUSH1 0x40 MLOAD DUP1 SWAP2 SUB SWAP1 REVERT JUMPDEST POP POP POP POP JUMP JUMPDEST PUSH0 PUSH1 0x7 PUSH0 ADD PUSH0 SWAP1 SLOAD SWAP1 PUSH2 0x100 EXP SWAP1 DIV PUSH20 0xFFFFFFFFFFFFFFFFFFFFFFFFFFFFFFFFFFFFFFFF AND SWAP1 POP SWAP1 JUMP JUMPDEST TIMESTAMP PUSH32 0x0 PUSH6 0xFFFFFFFFFFFF AND LT ISZERO PUSH2 0x2202 JUMPI PUSH2 0x2190 PUSH2 0x22B9 JUMP JUMPDEST PUSH20 0xFFFFFFFFFFFFFFFFFFFFFFFFFFFFFFFFFFFFFFFF AND CALLER PUSH20 0xFFFFFFFFFFFFFFFFFFFFFFFFFFFFFFFFFFFFFFFF AND EQ PUSH2 0x21FD JUMPI PUSH1 0x40 MLOAD PUSH32 0x8C379A000000000000000000000000000000000000000000000000000000000 DUP2 MSTORE PUSH1 0x4 ADD PUSH2 0x21F4 SWAP1 PUSH2 0x3CE9 JUMP JUMPDEST PUSH1 0x40 MLOAD DUP1 SWAP2 SUB SWAP1 REVERT JUMPDEST PUSH2 0x2289 JUMP JUMPDEST PUSH2 0x220A PUSH2 0x16BB JUMP JUMPDEST PUSH20 0xFFFFFFFFFFFFFFFFFFFFFFFFFFFFFFFFFFFFFFFF AND CALLER PUSH20 0xFFFFFFFFFFFFFFFFFFFFFFFFFFFFFFFFFFFFFFFF AND EQ DUP1 ISZERO PUSH2 0x2249 JUMPI POP PUSH2 0x2247 PUSH2 0x18A2 JUMP JUMPDEST ISZERO JUMPDEST PUSH2 0x2288 JUMPI PUSH1 0x40 MLOAD PUSH32 0x8C379A000000000000000000000000000000000000000000000000000000000 DUP2 MSTORE PUSH1 0x4 ADD PUSH2 0x227F SWAP1 PUSH2 0x3CE9 JUMP JUMPDEST PUSH1 0x40 MLOAD DUP1 SWAP2 SUB SWAP1 REVERT JUMPDEST JUMPDEST PUSH2 0x2292 DUP2 PUSH2 0x2E9E JUMP JUMPDEST PUSH2 0x229B DUP2 PUSH2 0x2EBD JUMP JUMPDEST POP JUMP JUMPDEST PUSH0 PUSH1 0x8 PUSH0 ADD PUSH1 0x15 SWAP1 SLOAD SWAP1 PUSH2 0x100 EXP SWAP1 DIV PUSH4 0xFFFFFFFF AND SWAP1 POP SWAP1 JUMP JUMPDEST PUSH0 PUSH32 0x0 SWAP1 POP SWAP1 JUMP JUMPDEST PUSH0 CALLER PUSH20 0xFFFFFFFFFFFFFFFFFFFFFFFFFFFFFFFFFFFFFFFF AND DUP5 PUSH20 0xFFFFFFFFFFFFFFFFFFFFFFFFFFFFFFFFFFFFFFFF AND EQ PUSH2 0x234F JUMPI PUSH1 0x40 MLOAD PUSH32 0x8C379A000000000000000000000000000000000000000000000000000000000 DUP2 MSTORE PUSH1 0x4 ADD PUSH2 0x2346 SWAP1 PUSH2 0x43C3 JUMP JUMPDEST PUSH1 0x40 MLOAD DUP1 SWAP2 SUB SWAP1 REVERT JUMPDEST PUSH0 PUSH1 0xA PUSH0 DUP7 PUSH20 0xFFFFFFFFFFFFFFFFFFFFFFFFFFFFFFFFFFFFFFFF AND PUSH20 0xFFFFFFFFFFFFFFFFFFFFFFFFFFFFFFFFFFFFFFFF AND DUP2 MSTORE PUSH1 0x20 ADD SWAP1 DUP2 MSTORE PUSH1 0x20 ADD PUSH0 KECCAK256 PUSH0 SWAP1 SLOAD SWAP1 PUSH2 0x100 EXP SWAP1 DIV PUSH20 0xFFFFFFFFFFFFFFFFFFFFFFFFFFFFFFFFFFFFFFFF AND SWAP1 POP PUSH0 DUP4 SWAP1 POP DUP1 PUSH20 0xFFFFFFFFFFFFFFFFFFFFFFFFFFFFFFFFFFFFFFFF AND PUSH4 0xEC5BF07B PUSH1 0x40 MLOAD DUP2 PUSH4 0xFFFFFFFF AND PUSH1 0xE0 SHL DUP2 MSTORE PUSH1 0x4 ADD PUSH1 0x20 PUSH1 0x40 MLOAD DUP1 DUP4 SUB DUP2 DUP7 GAS STATICCALL ISZERO DUP1 ISZERO PUSH2 0x23FC JUMPI RETURNDATASIZE PUSH0 DUP1 RETURNDATACOPY RETURNDATASIZE PUSH0 REVERT JUMPDEST POP POP POP POP PUSH1 0x40 MLOAD RETURNDATASIZE PUSH1 0x1F NOT PUSH1 0x1F DUP3 ADD AND DUP3 ADD DUP1 PUSH1 0x40 MSTORE POP DUP2 ADD SWAP1 PUSH2 0x2420 SWAP2 SWAP1 PUSH2 0x4106 JUMP JUMPDEST SWAP3 POP PUSH0 DUP3 PUSH20 0xFFFFFFFFFFFFFFFFFFFFFFFFFFFFFFFFFFFFFFFF AND PUSH4 0x13CF08B DUP6 PUSH1 0x40 MLOAD DUP3 PUSH4 0xFFFFFFFF AND PUSH1 0xE0 SHL DUP2 MSTORE PUSH1 0x4 ADD PUSH2 0x245C SWAP2 SWAP1 PUSH2 0x37DF JUMP JUMPDEST PUSH2 0x140 PUSH1 0x40 MLOAD DUP1 DUP4 SUB DUP2 DUP7 GAS STATICCALL ISZERO DUP1 ISZERO PUSH2 0x2478 JUMPI RETURNDATASIZE PUSH0 DUP1 RETURNDATACOPY RETURNDATASIZE PUSH0 REVERT JUMPDEST POP POP POP POP PUSH1 0x40 MLOAD RETURNDATASIZE PUSH1 0x1F NOT PUSH1 0x1F DUP3 ADD AND DUP3 ADD DUP1 PUSH1 0x40 MSTORE POP DUP2 ADD SWAP1 PUSH2 0x249C SWAP2 SWAP1 PUSH2 0x40C6 JUMP JUMPDEST SWAP1 POP PUSH0 DUP2 PUSH1 0x80 ADD MLOAD PUSH6 0xFFFFFFFFFFFF AND EQ PUSH2 0x24EE JUMPI DUP4 PUSH1 0x40 MLOAD PUSH32 0x4ACE252500000000000000000000000000000000000000000000000000000000 DUP2 MSTORE PUSH1 0x4 ADD PUSH2 0x24E5 SWAP2 SWAP1 PUSH2 0x37DF JUMP JUMPDEST PUSH1 0x40 MLOAD DUP1 SWAP2 SUB SWAP1 REVERT JUMPDEST PUSH0 DUP3 PUSH20 0xFFFFFFFFFFFFFFFFFFFFFFFFFFFFFFFFFFFFFFFF AND PUSH4 0xBC33C7D7 PUSH1 0x40 MLOAD DUP2 PUSH4 0xFFFFFFFF AND PUSH1 0xE0 SHL DUP2 MSTORE PUSH1 0x4 ADD PUSH0 PUSH1 0x40 MLOAD DUP1 DUP4 SUB DUP2 DUP7 GAS STATICCALL ISZERO DUP1 ISZERO PUSH2 0x2537 JUMPI RETURNDATASIZE PUSH0 DUP1 RETURNDATACOPY RETURNDATASIZE PUSH0 REVERT JUMPDEST POP POP POP POP PUSH1 0x40 MLOAD RETURNDATASIZE PUSH0 DUP3 RETURNDATACOPY RETURNDATASIZE PUSH1 0x1F NOT PUSH1 0x1F DUP3 ADD AND DUP3 ADD DUP1 PUSH1 0x40 MSTORE POP DUP2 ADD SWAP1 PUSH2 0x255F SWAP2 SWAP1 PUSH2 0x4493 JUMP JUMPDEST SWAP4 POP POP POP POP ADDRESS PUSH20 0xFFFFFFFFFFFFFFFFFFFFFFFFFFFFFFFFFFFFFFFF AND DUP2 PUSH20 0xFFFFFFFFFFFFFFFFFFFFFFFFFFFFFFFFFFFFFFFF AND EQ PUSH2 0x25D4 JUMPI DUP1 PUSH1 0x40 MLOAD PUSH32 0x4E5C69DD00000000000000000000000000000000000000000000000000000000 DUP2 MSTORE PUSH1 0x4 ADD PUSH2 0x25CB SWAP2 SWAP1 PUSH2 0x35A5 JUMP JUMPDEST PUSH1 0x40 MLOAD DUP1 SWAP2 SUB SWAP1 REVERT JUMPDEST PUSH0 DUP1 PUSH0 DUP6 PUSH20 0xFFFFFFFFFFFFFFFFFFFFFFFFFFFFFFFFFFFFFFFF AND PUSH4 0x4731CA2B PUSH1 0x40 MLOAD DUP2 PUSH4 0xFFFFFFFF AND PUSH1 0xE0 SHL DUP2 MSTORE PUSH1 0x4 ADD PUSH1 0x60 PUSH1 0x40 MLOAD DUP1 DUP4 SUB DUP2 DUP7 GAS STATICCALL ISZERO DUP1 ISZERO PUSH2 0x2620 JUMPI RETURNDATASIZE PUSH0 DUP1 RETURNDATACOPY RETURNDATASIZE PUSH0 REVERT JUMPDEST POP POP POP POP PUSH1 0x40 MLOAD RETURNDATASIZE PUSH1 0x1F NOT PUSH1 0x1F DUP3 ADD AND DUP3 ADD DUP1 PUSH1 0x40 MSTORE POP DUP2 ADD SWAP1 PUSH2 0x2644 SWAP2 SWAP1 PUSH2 0x452F JUMP JUMPDEST SWAP3 POP SWAP3 POP SWAP3 POP DUP3 PUSH20 0xFFFFFFFFFFFFFFFFFFFFFFFFFFFFFFFFFFFFFFFF AND DUP12 PUSH20 0xFFFFFFFFFFFFFFFFFFFFFFFFFFFFFFFFFFFFFFFF AND EQ ISZERO DUP1 PUSH2 0x26B1 JUMPI POP DUP2 PUSH20 0xFFFFFFFFFFFFFFFFFFFFFFFFFFFFFFFFFFFFFFFF AND DUP11 PUSH20 0xFFFFFFFFFFFFFFFFFFFFFFFFFFFFFFFFFFFFFFFF AND EQ ISZERO JUMPDEST DUP1 PUSH2 0x26BC JUMPI POP DUP1 DUP13 EQ ISZERO JUMPDEST ISZERO PUSH2 0x2702 JUMPI DUP3 DUP3 DUP3 PUSH1 0x40 MLOAD PUSH32 0xCB57CBF900000000000000000000000000000000000000000000000000000000 DUP2 MSTORE PUSH1 0x4 ADD PUSH2 0x26F9 SWAP4 SWAP3 SWAP2 SWAP1 PUSH2 0x457F JUMP JUMPDEST PUSH1 0x40 MLOAD DUP1 SWAP2 SUB SWAP1 REVERT JUMPDEST PUSH0 DUP1 PUSH0 DUP1 DUP10 PUSH20 0xFFFFFFFFFFFFFFFFFFFFFFFFFFFFFFFFFFFFFFFF AND PUSH4 0xB3A05246 PUSH1 0x40 MLOAD DUP2 PUSH4 0xFFFFFFFF AND PUSH1 0xE0 SHL DUP2 MSTORE PUSH1 0x4 ADD PUSH1 0x80 PUSH1 0x40 MLOAD DUP1 DUP4 SUB DUP2 DUP7 GAS STATICCALL ISZERO DUP1 ISZERO PUSH2 0x274F JUMPI RETURNDATASIZE PUSH0 DUP1 RETURNDATACOPY RETURNDATASIZE PUSH0 REVERT JUMPDEST POP POP POP POP PUSH1 0x40 MLOAD RETURNDATASIZE PUSH1 0x1F NOT PUSH1 0x1F DUP3 ADD AND DUP3 ADD DUP1 PUSH1 0x40 MSTORE POP DUP2 ADD SWAP1 PUSH2 0x2773 SWAP2 SWAP1 PUSH2 0x45B4 JUMP JUMPDEST SWAP4 POP SWAP4 POP SWAP4 POP SWAP4 POP PUSH2 0x2784 DUP5 PUSH2 0x30F7 JUMP JUMPDEST PUSH2 0x27C5 JUMPI DUP4 PUSH1 0x40 MLOAD PUSH32 0x95FF727F00000000000000000000000000000000000000000000000000000000 DUP2 MSTORE PUSH1 0x4 ADD PUSH2 0x27BC SWAP2 SWAP1 PUSH2 0x4627 JUMP JUMPDEST PUSH1 0x40 MLOAD DUP1 SWAP2 SUB SWAP1 REVERT JUMPDEST PUSH1 0xC PUSH0 SWAP1 SLOAD SWAP1 PUSH2 0x100 EXP SWAP1 DIV PUSH4 0xFFFFFFFF AND PUSH4 0xFFFFFFFF AND DUP4 PUSH4 0xFFFFFFFF AND LT DUP1 PUSH2 0x281A JUMPI POP PUSH1 0xC PUSH1 0x8 SWAP1 SLOAD SWAP1 PUSH2 0x100 EXP SWAP1 DIV PUSH4 0xFFFFFFFF AND PUSH4 0xFFFFFFFF AND TIMESTAMP PUSH2 0x280F SWAP2 SWAP1 PUSH2 0x42B6 JUMP JUMPDEST DUP3 PUSH6 0xFFFFFFFFFFFF AND LT JUMPDEST DUP1 PUSH2 0x2844 JUMPI POP PUSH1 0xC PUSH1 0x4 SWAP1 SLOAD SWAP1 PUSH2 0x100 EXP SWAP1 DIV PUSH4 0xFFFFFFFF AND PUSH4 0xFFFFFFFF AND DUP2 PUSH6 0xFFFFFFFFFFFF AND LT JUMPDEST ISZERO PUSH2 0x288A JUMPI DUP3 DUP3 DUP3 PUSH1 0x40 MLOAD PUSH32 0x5B93D0DC00000000000000000000000000000000000000000000000000000000 DUP2 MSTORE PUSH1 0x4 ADD PUSH2 0x2881 SWAP4 SWAP3 SWAP2 SWAP1 PUSH2 0x4640 JUMP JUMPDEST PUSH1 0x40 MLOAD DUP1 SWAP2 SUB SWAP1 REVERT JUMPDEST PUSH0 DUP14 SWAP1 POP DUP1 PUSH20 0xFFFFFFFFFFFFFFFFFFFFFFFFFFFFFFFFFFFFFFFF AND PUSH32 0xAB14F904FB707B2337015C668E6429CA3170390B1C36260D7739566B9C822A5 PUSH1 0x40 MLOAD PUSH1 0x40 MLOAD DUP1 SWAP2 SUB SWAP1 LOG2 DUP12 PUSH20 0xFFFFFFFFFFFFFFFFFFFFFFFFFFFFFFFFFFFFFFFF AND PUSH4 0x4A9C7CAA DUP15 DUP8 DUP8 DUP8 DUP8 DUP14 DUP9 PUSH1 0x40 MLOAD DUP9 PUSH4 0xFFFFFFFF AND PUSH1 0xE0 SHL DUP2 MSTORE PUSH1 0x4 ADD PUSH2 0x2916 SWAP8 SWAP7 SWAP6 SWAP5 SWAP4 SWAP3 SWAP2 SWAP1 PUSH2 0x4675 JUMP JUMPDEST PUSH0 PUSH1 0x40 MLOAD DUP1 DUP4 SUB DUP2 PUSH0 DUP8 DUP1 EXTCODESIZE ISZERO DUP1 ISZERO PUSH2 0x292D JUMPI PUSH0 DUP1 REVERT JUMPDEST POP GAS CALL ISZERO DUP1 ISZERO PUSH2 0x293F JUMPI RETURNDATASIZE PUSH0 DUP1 RETURNDATACOPY RETURNDATASIZE PUSH0 REVERT JUMPDEST POP POP POP POP DUP13 PUSH32 0xABF79943A752FAB9EF8890892A82188E44E66A2CD2D8E411AE3EF82475AE49C8 PUSH1 0x40 MLOAD PUSH1 0x40 MLOAD DUP1 SWAP2 SUB SWAP1 LOG2 POP POP POP POP POP POP POP POP POP POP POP POP SWAP5 SWAP4 POP POP POP POP JUMP JUMPDEST TIMESTAMP PUSH32 0x0 PUSH6 0xFFFFFFFFFFFF AND LT ISZERO PUSH2 0x2A2E JUMPI PUSH2 0x29BC PUSH2 0x22B9 JUMP JUMPDEST PUSH20 0xFFFFFFFFFFFFFFFFFFFFFFFFFFFFFFFFFFFFFFFF AND CALLER PUSH20 0xFFFFFFFFFFFFFFFFFFFFFFFFFFFFFFFFFFFFFFFF AND EQ PUSH2 0x2A29 JUMPI PUSH1 0x40 MLOAD PUSH32 0x8C379A000000000000000000000000000000000000000000000000000000000 DUP2 MSTORE PUSH1 0x4 ADD PUSH2 0x2A20 SWAP1 PUSH2 0x3CE9 JUMP JUMPDEST PUSH1 0x40 MLOAD DUP1 SWAP2 SUB SWAP1 REVERT JUMPDEST PUSH2 0x2AB5 JUMP JUMPDEST PUSH2 0x2A36 PUSH2 0x16BB JUMP JUMPDEST PUSH20 0xFFFFFFFFFFFFFFFFFFFFFFFFFFFFFFFFFFFFFFFF AND CALLER PUSH20 0xFFFFFFFFFFFFFFFFFFFFFFFFFFFFFFFFFFFFFFFF AND EQ DUP1 ISZERO PUSH2 0x2A75 JUMPI POP PUSH2 0x2A73 PUSH2 0x18A2 JUMP JUMPDEST ISZERO JUMPDEST PUSH2 0x2AB4 JUMPI PUSH1 0x40 MLOAD PUSH32 0x8C379A000000000000000000000000000000000000000000000000000000000 DUP2 MSTORE PUSH1 0x4 ADD PUSH2 0x2AAB SWAP1 PUSH2 0x3CE9 JUMP JUMPDEST PUSH1 0x40 MLOAD DUP1 SWAP2 SUB SWAP1 REVERT JUMPDEST JUMPDEST PUSH0 DUP2 PUSH20 0xFFFFFFFFFFFFFFFFFFFFFFFFFFFFFFFFFFFFFFFF AND EXTCODESIZE GT ISZERO PUSH2 0x2B5C JUMPI DUP1 PUSH1 0x3 PUSH0 PUSH2 0x100 EXP DUP2 SLOAD DUP2 PUSH20 0xFFFFFFFFFFFFFFFFFFFFFFFFFFFFFFFFFFFFFFFF MUL NOT AND SWAP1 DUP4 PUSH20 0xFFFFFFFFFFFFFFFFFFFFFFFFFFFFFFFFFFFFFFFF AND MUL OR SWAP1 SSTORE POP DUP1 PUSH20 0xFFFFFFFFFFFFFFFFFFFFFFFFFFFFFFFFFFFFFFFF AND PUSH32 0xE8D8E3C7C3EBEC0C177D0FE22D223F8B5071DB39155104808D45027E368BA77A PUSH1 0x40 MLOAD PUSH1 0x40 MLOAD DUP1 SWAP2 SUB SWAP1 LOG2 PUSH2 0x2B99 JUMP JUMPDEST DUP1 PUSH1 0x40 MLOAD PUSH32 0x84DBC6CB00000000000000000000000000000000000000000000000000000000 DUP2 MSTORE PUSH1 0x4 ADD PUSH2 0x2B90 SWAP2 SWAP1 PUSH2 0x35A5 JUMP JUMPDEST PUSH1 0x40 MLOAD DUP1 SWAP2 SUB SWAP1 REVERT JUMPDEST POP JUMP JUMPDEST PUSH0 SWAP4 SWAP3 POP POP POP JUMP JUMPDEST PUSH0 ADDRESS SWAP1 POP SWAP1 JUMP JUMPDEST PUSH0 PUSH1 0x7 PUSH0 ADD PUSH1 0x14 SWAP1 SLOAD SWAP1 PUSH2 0x100 EXP SWAP1 DIV PUSH1 0xFF AND SWAP1 POP SWAP1 JUMP JUMPDEST PUSH2 0x2BCB PUSH2 0x16BB JUMP JUMPDEST PUSH20 0xFFFFFFFFFFFFFFFFFFFFFFFFFFFFFFFFFFFFFFFF AND CALLER PUSH20 0xFFFFFFFFFFFFFFFFFFFFFFFFFFFFFFFFFFFFFFFF AND EQ DUP1 ISZERO PUSH2 0x2C0A JUMPI POP PUSH2 0x2C08 PUSH2 0x18A2 JUMP JUMPDEST ISZERO JUMPDEST PUSH2 0x2C49 JUMPI PUSH1 0x40 MLOAD PUSH32 0x8C379A000000000000000000000000000000000000000000000000000000000 DUP2 MSTORE PUSH1 0x4 ADD PUSH2 0x2C40 SWAP1 PUSH2 0x3CE9 JUMP JUMPDEST PUSH1 0x40 MLOAD DUP1 SWAP2 SUB SWAP1 REVERT JUMPDEST DUP1 PUSH20 0xFFFFFFFFFFFFFFFFFFFFFFFFFFFFFFFFFFFFFFFF AND PUSH1 0x3 PUSH0 SWAP1 SLOAD SWAP1 PUSH2 0x100 EXP SWAP1 DIV PUSH20 0xFFFFFFFFFFFFFFFFFFFFFFFFFFFFFFFFFFFFFFFF AND PUSH20 0xFFFFFFFFFFFFFFFFFFFFFFFFFFFFFFFFFFFFFFFF AND SUB PUSH2 0x2DCC JUMPI PUSH1 0x3 PUSH0 PUSH2 0x100 EXP DUP2 SLOAD SWAP1 PUSH20 0xFFFFFFFFFFFFFFFFFFFFFFFFFFFFFFFFFFFFFFFF MUL NOT AND SWAP1 SSTORE DUP1 PUSH1 0x8 PUSH0 ADD PUSH0 PUSH2 0x100 EXP DUP2 SLOAD DUP2 PUSH20 0xFFFFFFFFFFFFFFFFFFFFFFFFFFFFFFFFFFFFFFFF MUL NOT AND SWAP1 DUP4 PUSH20 0xFFFFFFFFFFFFFFFFFFFFFFFFFFFFFFFFFFFFFFFF AND MUL OR SWAP1 SSTORE POP PUSH1 0x8 PUSH0 ADD PUSH1 0x15 DUP2 DUP2 SWAP1 SLOAD SWAP1 PUSH2 0x100 EXP SWAP1 DIV PUSH4 0xFFFFFFFF AND DUP1 SWAP3 SWAP2 SWAP1 PUSH2 0x2D27 SWAP1 PUSH2 0x3D91 JUMP JUMPDEST SWAP2 SWAP1 PUSH2 0x100 EXP DUP2 SLOAD DUP2 PUSH4 0xFFFFFFFF MUL NOT AND SWAP1 DUP4 PUSH4 0xFFFFFFFF AND MUL OR SWAP1 SSTORE POP POP PUSH1 0x8 PUSH0 ADD PUSH1 0x15 SWAP1 SLOAD SWAP1 PUSH2 0x100 EXP SWAP1 DIV PUSH4 0xFFFFFFFF AND PUSH4 0xFFFFFFFF AND PUSH1 0x8 PUSH0 ADD PUSH0 SWAP1 SLOAD SWAP1 PUSH2 0x100 EXP SWAP1 DIV PUSH20 0xFFFFFFFFFFFFFFFFFFFFFFFFFFFFFFFFFFFFFFFF AND PUSH20 0xFFFFFFFFFFFFFFFFFFFFFFFFFFFFFFFFFFFFFFFF AND PUSH32 0x5E86008A8467D1EFCCFE6CB6BD49BA7278D6AF2745A1E6994E443322A4237093 PUSH1 0x40 MLOAD PUSH1 0x40 MLOAD DUP1 SWAP2 SUB SWAP1 LOG3 PUSH2 0x2E09 JUMP JUMPDEST DUP1 PUSH1 0x40 MLOAD PUSH32 0x84DBC6CB00000000000000000000000000000000000000000000000000000000 DUP2 MSTORE PUSH1 0x4 ADD PUSH2 0x2E00 SWAP2 SWAP1 PUSH2 0x35A5 JUMP JUMPDEST PUSH1 0x40 MLOAD DUP1 SWAP2 SUB SWAP1 REVERT JUMPDEST POP JUMP JUMPDEST PUSH2 0x2E14 PUSH2 0x16BB JUMP JUMPDEST PUSH20 0xFFFFFFFFFFFFFFFFFFFFFFFFFFFFFFFFFFFFFFFF AND CALLER PUSH20 0xFFFFFFFFFFFFFFFFFFFFFFFFFFFFFFFFFFFFFFFF AND EQ DUP1 ISZERO PUSH2 0x2E53 JUMPI POP PUSH2 0x2E51 PUSH2 0x18A2 JUMP JUMPDEST ISZERO JUMPDEST PUSH2 0x2E92 JUMPI PUSH1 0x40 MLOAD PUSH32 0x8C379A000000000000000000000000000000000000000000000000000000000 DUP2 MSTORE PUSH1 0x4 ADD PUSH2 0x2E89 SWAP1 PUSH2 0x3CE9 JUMP JUMPDEST PUSH1 0x40 MLOAD DUP1 SWAP2 SUB SWAP1 REVERT JUMPDEST PUSH2 0x2E9B DUP2 PUSH2 0x2EBD JUMP JUMPDEST POP JUMP JUMPDEST DUP1 PUSH1 0x6 PUSH0 ADD PUSH1 0x14 PUSH2 0x100 EXP DUP2 SLOAD DUP2 PUSH1 0xFF MUL NOT AND SWAP1 DUP4 ISZERO ISZERO MUL OR SWAP1 SSTORE POP POP JUMP JUMPDEST DUP1 PUSH1 0x7 PUSH0 ADD PUSH1 0x14 PUSH2 0x100 EXP DUP2 SLOAD DUP2 PUSH1 0xFF MUL NOT AND SWAP1 DUP4 ISZERO ISZERO MUL OR SWAP1 SSTORE POP POP JUMP JUMPDEST DUP1 PUSH1 0x9 PUSH0 ADD PUSH0 PUSH2 0x100 EXP DUP2 SLOAD DUP2 PUSH20 0xFFFFFFFFFFFFFFFFFFFFFFFFFFFFFFFFFFFFFFFF MUL NOT AND SWAP1 DUP4 PUSH20 0xFFFFFFFFFFFFFFFFFFFFFFFFFFFFFFFFFFFFFFFF AND MUL OR SWAP1 SSTORE POP PUSH1 0x9 PUSH0 ADD PUSH1 0x15 DUP2 DUP2 SWAP1 SLOAD SWAP1 PUSH2 0x100 EXP SWAP1 DIV PUSH4 0xFFFFFFFF AND DUP1 SWAP3 SWAP2 SWAP1 PUSH2 0x2F42 SWAP1 PUSH2 0x3D91 JUMP JUMPDEST SWAP2 SWAP1 PUSH2 0x100 EXP DUP2 SLOAD DUP2 PUSH4 0xFFFFFFFF MUL NOT AND SWAP1 DUP4 PUSH4 0xFFFFFFFF AND MUL OR SWAP1 SSTORE POP POP PUSH1 0x9 PUSH0 ADD PUSH1 0x15 SWAP1 SLOAD SWAP1 PUSH2 0x100 EXP SWAP1 DIV PUSH4 0xFFFFFFFF AND PUSH4 0xFFFFFFFF AND PUSH1 0x9 PUSH0 ADD PUSH0 SWAP1 SLOAD SWAP1 PUSH2 0x100 EXP SWAP1 DIV PUSH20 0xFFFFFFFFFFFFFFFFFFFFFFFFFFFFFFFFFFFFFFFF AND PUSH20 0xFFFFFFFFFFFFFFFFFFFFFFFFFFFFFFFFFFFFFFFF AND PUSH32 0xB88EF4C2B55163ED88BCF28DADFEE0092169B7A9A712CEB09FF75E6D2D4BA63B PUSH1 0x40 MLOAD PUSH1 0x40 MLOAD DUP1 SWAP2 SUB SWAP1 LOG3 POP JUMP JUMPDEST PUSH0 DUP1 DUP3 PUSH1 0x20 ADD MLOAD SWAP1 POP PUSH0 DUP2 SWAP1 POP PUSH0 DUP2 PUSH20 0xFFFFFFFFFFFFFFFFFFFFFFFFFFFFFFFFFFFFFFFF AND PUSH4 0xCFB62DEE PUSH1 0x40 MLOAD DUP2 PUSH4 0xFFFFFFFF AND PUSH1 0xE0 SHL DUP2 MSTORE PUSH1 0x4 ADD PUSH1 0x20 PUSH1 0x40 MLOAD DUP1 DUP4 SUB DUP2 PUSH0 DUP8 GAS CALL ISZERO DUP1 ISZERO PUSH2 0x303D JUMPI RETURNDATASIZE PUSH0 DUP1 RETURNDATACOPY RETURNDATASIZE PUSH0 REVERT JUMPDEST POP POP POP POP PUSH1 0x40 MLOAD RETURNDATASIZE PUSH1 0x1F NOT PUSH1 0x1F DUP3 ADD AND DUP3 ADD DUP1 PUSH1 0x40 MSTORE POP DUP2 ADD SWAP1 PUSH2 0x3061 SWAP2 SWAP1 PUSH2 0x46E2 JUMP JUMPDEST SWAP1 POP DUP1 ISZERO PUSH2 0x3075 JUMPI PUSH1 0x4 SWAP4 POP POP POP POP PUSH2 0x307D JUMP JUMPDEST PUSH1 0x3 SWAP4 POP POP POP POP JUMPDEST SWAP2 SWAP1 POP JUMP JUMPDEST PUSH1 0x60 PUSH2 0x30B7 PUSH0 PUSH32 0x0 PUSH2 0x32E9 SWAP1 SWAP2 SWAP1 PUSH4 0xFFFFFFFF AND JUMP JUMPDEST SWAP1 POP SWAP1 JUMP JUMPDEST PUSH1 0x60 PUSH2 0x30F2 PUSH1 0x1 PUSH32 0x0 PUSH2 0x32E9 SWAP1 SWAP2 SWAP1 PUSH4 0xFFFFFFFF AND JUMP JUMPDEST SWAP1 POP SWAP1 JUMP JUMPDEST PUSH0 DUP1 PUSH1 0xA PUSH0 CALLER PUSH20 0xFFFFFFFFFFFFFFFFFFFFFFFFFFFFFFFFFFFFFFFF AND PUSH20 0xFFFFFFFFFFFFFFFFFFFFFFFFFFFFFFFFFFFFFFFF AND DUP2 MSTORE PUSH1 0x20 ADD SWAP1 DUP2 MSTORE PUSH1 0x20 ADD PUSH0 KECCAK256 PUSH0 SWAP1 SLOAD SWAP1 PUSH2 0x100 EXP SWAP1 DIV PUSH20 0xFFFFFFFFFFFFFFFFFFFFFFFFFFFFFFFFFFFFFFFF AND SWAP1 POP PUSH0 DUP2 PUSH20 0xFFFFFFFFFFFFFFFFFFFFFFFFFFFFFFFFFFFFFFFF AND PUSH4 0xC34FE703 PUSH1 0x40 MLOAD DUP2 PUSH4 0xFFFFFFFF AND PUSH1 0xE0 SHL DUP2 MSTORE PUSH1 0x4 ADD PUSH2 0x3190 SWAP1 PUSH2 0x4733 JUMP JUMPDEST PUSH2 0x9620 PUSH1 0x40 MLOAD DUP1 DUP4 SUB DUP2 DUP7 GAS STATICCALL ISZERO DUP1 ISZERO PUSH2 0x31AC JUMPI RETURNDATASIZE PUSH0 DUP1 RETURNDATACOPY RETURNDATASIZE PUSH0 REVERT JUMPDEST POP POP POP POP PUSH1 0x40 MLOAD RETURNDATASIZE PUSH1 0x1F NOT PUSH1 0x1F DUP3 ADD AND DUP3 ADD DUP1 PUSH1 0x40 MSTORE POP DUP2 ADD SWAP1 PUSH2 0x31D0 SWAP2 SWAP1 PUSH2 0x47FD JUMP JUMPDEST SWAP1 POP PUSH0 TIMESTAMP SWAP1 POP PUSH0 PUSH3 0x4F1A00 DUP3 PUSH2 0x31E6 SWAP2 SWAP1 PUSH2 0x4829 JUMP JUMPDEST SWAP1 POP PUSH0 DUP1 PUSH1 0x1 SWAP1 POP JUMPDEST PUSH2 0x4B0 DUP2 PUSH2 0xFFFF AND GT PUSH2 0x327C JUMPI PUSH0 DUP6 DUP3 PUSH2 0xFFFF AND PUSH2 0x4B1 DUP2 LT PUSH2 0x3215 JUMPI PUSH2 0x3214 PUSH2 0x485C JUMP JUMPDEST JUMPDEST PUSH1 0x20 MUL ADD MLOAD PUSH6 0xFFFFFFFFFFFF AND SUB ISZERO PUSH2 0x327C JUMPI DUP5 DUP2 PUSH2 0xFFFF AND PUSH2 0x4B1 DUP2 LT PUSH2 0x3240 JUMPI PUSH2 0x323F PUSH2 0x485C JUMP JUMPDEST JUMPDEST PUSH1 0x20 MUL ADD MLOAD PUSH6 0xFFFFFFFFFFFF AND DUP4 PUSH6 0xFFFFFFFFFFFF AND LT ISZERO PUSH2 0x3269 JUMPI DUP2 PUSH2 0x3266 SWAP1 PUSH2 0x4889 JUMP JUMPDEST SWAP2 POP JUMPDEST DUP1 DUP1 PUSH2 0x3274 SWAP1 PUSH2 0x4889 JUMP JUMPDEST SWAP2 POP POP PUSH2 0x31EF JUMP JUMPDEST PUSH1 0x2 DUP2 PUSH2 0x3289 SWAP2 SWAP1 PUSH2 0x48DF JUMP JUMPDEST PUSH2 0xFFFF AND DUP9 PUSH2 0xFFFF AND GT ISZERO PUSH2 0x32A7 JUMPI PUSH1 0x1 SWAP7 POP POP POP POP POP POP POP PUSH2 0x32E4 JUMP JUMPDEST PUSH1 0x46 PUSH1 0x64 DUP4 DUP11 PUSH2 0x32B7 SWAP2 SWAP1 PUSH2 0x48DF JUMP JUMPDEST PUSH2 0x32C1 SWAP2 SWAP1 PUSH2 0x490F JUMP JUMPDEST PUSH2 0xFFFF AND GT ISZERO PUSH2 0x32DA JUMPI PUSH1 0x1 SWAP7 POP POP POP POP POP POP POP PUSH2 0x32E4 JUMP JUMPDEST PUSH0 SWAP7 POP POP POP POP POP POP POP JUMPDEST SWAP2 SWAP1 POP JUMP JUMPDEST PUSH1 0x60 PUSH1 0xFF PUSH0 SHL DUP4 EQ PUSH2 0x3305 JUMPI PUSH2 0x32FE DUP4 PUSH2 0x3396 JUMP JUMPDEST SWAP1 POP PUSH2 0x3390 JUMP JUMPDEST DUP2 DUP1 SLOAD PUSH2 0x3311 SWAP1 PUSH2 0x3D34 JUMP JUMPDEST DUP1 PUSH1 0x1F ADD PUSH1 0x20 DUP1 SWAP2 DIV MUL PUSH1 0x20 ADD PUSH1 0x40 MLOAD SWAP1 DUP2 ADD PUSH1 0x40 MSTORE DUP1 SWAP3 SWAP2 SWAP1 DUP2 DUP2 MSTORE PUSH1 0x20 ADD DUP3 DUP1 SLOAD PUSH2 0x333D SWAP1 PUSH2 0x3D34 JUMP JUMPDEST DUP1 ISZERO PUSH2 0x3388 JUMPI DUP1 PUSH1 0x1F LT PUSH2 0x335F JUMPI PUSH2 0x100 DUP1 DUP4 SLOAD DIV MUL DUP4 MSTORE SWAP2 PUSH1 0x20 ADD SWAP2 PUSH2 0x3388 JUMP JUMPDEST DUP3 ADD SWAP2 SWAP1 PUSH0 MSTORE PUSH1 0x20 PUSH0 KECCAK256 SWAP1 JUMPDEST DUP2 SLOAD DUP2 MSTORE SWAP1 PUSH1 0x1 ADD SWAP1 PUSH1 0x20 ADD DUP1 DUP4 GT PUSH2 0x336B JUMPI DUP3 SWAP1 SUB PUSH1 0x1F AND DUP3 ADD SWAP2 JUMPDEST POP POP POP POP POP SWAP1 POP JUMPDEST SWAP3 SWAP2 POP POP JUMP JUMPDEST PUSH1 0x60 PUSH0 PUSH2 0x33A2 DUP4 PUSH2 0x3408 JUMP JUMPDEST SWAP1 POP PUSH0 PUSH1 0x20 PUSH8 0xFFFFFFFFFFFFFFFF DUP2 GT ISZERO PUSH2 0x33C0 JUMPI PUSH2 0x33BF PUSH2 0x35F9 JUMP JUMPDEST JUMPDEST PUSH1 0x40 MLOAD SWAP1 DUP1 DUP3 MSTORE DUP1 PUSH1 0x1F ADD PUSH1 0x1F NOT AND PUSH1 0x20 ADD DUP3 ADD PUSH1 0x40 MSTORE DUP1 ISZERO PUSH2 0x33F2 JUMPI DUP2 PUSH1 0x20 ADD PUSH1 0x1 DUP3 MUL DUP1 CALLDATASIZE DUP4 CALLDATACOPY DUP1 DUP3 ADD SWAP2 POP POP SWAP1 POP JUMPDEST POP SWAP1 POP DUP2 DUP2 MSTORE DUP4 PUSH1 0x20 DUP3 ADD MSTORE DUP1 SWAP3 POP POP POP SWAP2 SWAP1 POP JUMP JUMPDEST PUSH0 DUP1 PUSH1 0xFF DUP4 PUSH0 SHR AND SWAP1 POP PUSH1 0x1F DUP2 GT ISZERO PUSH2 0x344D JUMPI PUSH1 0x40 MLOAD PUSH32 0xB3512B0C00000000000000000000000000000000000000000000000000000000 DUP2 MSTORE PUSH1 0x4 ADD PUSH1 0x40 MLOAD DUP1 SWAP2 SUB SWAP1 REVERT JUMPDEST DUP1 SWAP2 POP POP SWAP2 SWAP1 POP JUMP JUMPDEST PUSH0 PUSH1 0x40 MLOAD SWAP1 POP SWAP1 JUMP JUMPDEST PUSH0 DUP1 REVERT JUMPDEST PUSH0 DUP1 REVERT JUMPDEST PUSH0 PUSH20 0xFFFFFFFFFFFFFFFFFFFFFFFFFFFFFFFFFFFFFFFF DUP3 AND SWAP1 POP SWAP2 SWAP1 POP JUMP JUMPDEST PUSH0 PUSH2 0x3490 DUP3 PUSH2 0x3467 JUMP JUMPDEST SWAP1 POP SWAP2 SWAP1 POP JUMP JUMPDEST PUSH2 0x34A0 DUP2 PUSH2 0x3486 JUMP JUMPDEST DUP2 EQ PUSH2 0x34AA JUMPI PUSH0 DUP1 REVERT JUMPDEST POP JUMP JUMPDEST PUSH0 DUP2 CALLDATALOAD SWAP1 POP PUSH2 0x34BB DUP2 PUSH2 0x3497 JUMP JUMPDEST SWAP3 SWAP2 POP POP JUMP JUMPDEST PUSH0 PUSH1 0x20 DUP3 DUP5 SUB SLT ISZERO PUSH2 0x34D6 JUMPI PUSH2 0x34D5 PUSH2 0x345F JUMP JUMPDEST JUMPDEST PUSH0 PUSH2 0x34E3 DUP5 DUP3 DUP6 ADD PUSH2 0x34AD JUMP JUMPDEST SWAP2 POP POP SWAP3 SWAP2 POP POP JUMP JUMPDEST PUSH0 DUP2 MLOAD SWAP1 POP SWAP2 SWAP1 POP JUMP JUMPDEST PUSH0 DUP3 DUP3 MSTORE PUSH1 0x20 DUP3 ADD SWAP1 POP SWAP3 SWAP2 POP POP JUMP JUMPDEST PUSH0 JUMPDEST DUP4 DUP2 LT ISZERO PUSH2 0x3523 JUMPI DUP1 DUP3 ADD MLOAD DUP2 DUP5 ADD MSTORE PUSH1 0x20 DUP2 ADD SWAP1 POP PUSH2 0x3508 JUMP JUMPDEST PUSH0 DUP5 DUP5 ADD MSTORE POP POP POP POP JUMP JUMPDEST PUSH0 PUSH1 0x1F NOT PUSH1 0x1F DUP4 ADD AND SWAP1 POP SWAP2 SWAP1 POP JUMP JUMPDEST PUSH0 PUSH2 0x3548 DUP3 PUSH2 0x34EC JUMP JUMPDEST PUSH2 0x3552 DUP2 DUP6 PUSH2 0x34F6 JUMP JUMPDEST SWAP4 POP PUSH2 0x3562 DUP2 DUP6 PUSH1 0x20 DUP7 ADD PUSH2 0x3506 JUMP JUMPDEST PUSH2 0x356B DUP2 PUSH2 0x352E JUMP JUMPDEST DUP5 ADD SWAP2 POP POP SWAP3 SWAP2 POP POP JUMP JUMPDEST PUSH0 PUSH1 0x20 DUP3 ADD SWAP1 POP DUP2 DUP2 SUB PUSH0 DUP4 ADD MSTORE PUSH2 0x358E DUP2 DUP5 PUSH2 0x353E JUMP JUMPDEST SWAP1 POP SWAP3 SWAP2 POP POP JUMP JUMPDEST PUSH2 0x359F DUP2 PUSH2 0x3486 JUMP JUMPDEST DUP3 MSTORE POP POP JUMP JUMPDEST PUSH0 PUSH1 0x20 DUP3 ADD SWAP1 POP PUSH2 0x35B8 PUSH0 DUP4 ADD DUP5 PUSH2 0x3596 JUMP JUMPDEST SWAP3 SWAP2 POP POP JUMP JUMPDEST PUSH0 DUP2 SWAP1 POP SWAP2 SWAP1 POP JUMP JUMPDEST PUSH2 0x35D0 DUP2 PUSH2 0x35BE JUMP JUMPDEST DUP2 EQ PUSH2 0x35DA JUMPI PUSH0 DUP1 REVERT JUMPDEST POP JUMP JUMPDEST PUSH0 DUP2 CALLDATALOAD SWAP1 POP PUSH2 0x35EB DUP2 PUSH2 0x35C7 JUMP JUMPDEST SWAP3 SWAP2 POP POP JUMP JUMPDEST PUSH0 DUP1 REVERT JUMPDEST PUSH0 DUP1 REVERT JUMPDEST PUSH32 0x4E487B7100000000000000000000000000000000000000000000000000000000 PUSH0 MSTORE PUSH1 0x41 PUSH1 0x4 MSTORE PUSH1 0x24 PUSH0 REVERT JUMPDEST PUSH2 0x362F DUP3 PUSH2 0x352E JUMP JUMPDEST DUP2 ADD DUP2 DUP2 LT PUSH8 0xFFFFFFFFFFFFFFFF DUP3 GT OR ISZERO PUSH2 0x364E JUMPI PUSH2 0x364D PUSH2 0x35F9 JUMP JUMPDEST JUMPDEST DUP1 PUSH1 0x40 MSTORE POP POP POP JUMP JUMPDEST PUSH0 PUSH2 0x3660 PUSH2 0x3456 JUMP JUMPDEST SWAP1 POP PUSH2 0x366C DUP3 DUP3 PUSH2 0x3626 JUMP JUMPDEST SWAP2 SWAP1 POP JUMP JUMPDEST PUSH0 PUSH8 0xFFFFFFFFFFFFFFFF DUP3 GT ISZERO PUSH2 0x368B JUMPI PUSH2 0x368A PUSH2 0x35F9 JUMP JUMPDEST JUMPDEST PUSH2 0x3694 DUP3 PUSH2 0x352E JUMP JUMPDEST SWAP1 POP PUSH1 0x20 DUP2 ADD SWAP1 POP SWAP2 SWAP1 POP JUMP JUMPDEST DUP3 DUP2 DUP4 CALLDATACOPY PUSH0 DUP4 DUP4 ADD MSTORE POP POP POP JUMP JUMPDEST PUSH0 PUSH2 0x36C1 PUSH2 0x36BC DUP5 PUSH2 0x3671 JUMP JUMPDEST PUSH2 0x3657 JUMP JUMPDEST SWAP1 POP DUP3 DUP2 MSTORE PUSH1 0x20 DUP2 ADD DUP5 DUP5 DUP5 ADD GT ISZERO PUSH2 0x36DD JUMPI PUSH2 0x36DC PUSH2 0x35F5 JUMP JUMPDEST JUMPDEST PUSH2 0x36E8 DUP5 DUP3 DUP6 PUSH2 0x36A1 JUMP JUMPDEST POP SWAP4 SWAP3 POP POP POP JUMP JUMPDEST PUSH0 DUP3 PUSH1 0x1F DUP4 ADD SLT PUSH2 0x3704 JUMPI PUSH2 0x3703 PUSH2 0x35F1 JUMP JUMPDEST JUMPDEST DUP2 CALLDATALOAD PUSH2 0x3714 DUP5 DUP3 PUSH1 0x20 DUP7 ADD PUSH2 0x36AF JUMP JUMPDEST SWAP2 POP POP SWAP3 SWAP2 POP POP JUMP JUMPDEST PUSH0 DUP2 SWAP1 POP SWAP2 SWAP1 POP JUMP JUMPDEST PUSH2 0x372F DUP2 PUSH2 0x371D JUMP JUMPDEST DUP2 EQ PUSH2 0x3739 JUMPI PUSH0 DUP1 REVERT JUMPDEST POP JUMP JUMPDEST PUSH0 DUP2 CALLDATALOAD SWAP1 POP PUSH2 0x374A DUP2 PUSH2 0x3726 JUMP JUMPDEST SWAP3 SWAP2 POP POP JUMP JUMPDEST PUSH0 DUP1 PUSH0 DUP1 PUSH1 0x80 DUP6 DUP8 SUB SLT ISZERO PUSH2 0x3768 JUMPI PUSH2 0x3767 PUSH2 0x345F JUMP JUMPDEST JUMPDEST PUSH0 PUSH2 0x3775 DUP8 DUP3 DUP9 ADD PUSH2 0x34AD JUMP JUMPDEST SWAP5 POP POP PUSH1 0x20 PUSH2 0x3786 DUP8 DUP3 DUP9 ADD PUSH2 0x35DD JUMP JUMPDEST SWAP4 POP POP PUSH1 0x40 DUP6 ADD CALLDATALOAD PUSH8 0xFFFFFFFFFFFFFFFF DUP2 GT ISZERO PUSH2 0x37A7 JUMPI PUSH2 0x37A6 PUSH2 0x3463 JUMP JUMPDEST JUMPDEST PUSH2 0x37B3 DUP8 DUP3 DUP9 ADD PUSH2 0x36F0 JUMP JUMPDEST SWAP3 POP POP PUSH1 0x60 PUSH2 0x37C4 DUP8 DUP3 DUP9 ADD PUSH2 0x373C JUMP JUMPDEST SWAP2 POP POP SWAP3 SWAP6 SWAP2 SWAP5 POP SWAP3 POP JUMP JUMPDEST PUSH2 0x37D9 DUP2 PUSH2 0x35BE JUMP JUMPDEST DUP3 MSTORE POP POP JUMP JUMPDEST PUSH0 PUSH1 0x20 DUP3 ADD SWAP1 POP PUSH2 0x37F2 PUSH0 DUP4 ADD DUP5 PUSH2 0x37D0 JUMP JUMPDEST SWAP3 SWAP2 POP POP JUMP JUMPDEST PUSH0 DUP2 ISZERO ISZERO SWAP1 POP SWAP2 SWAP1 POP JUMP JUMPDEST PUSH2 0x380C DUP2 PUSH2 0x37F8 JUMP JUMPDEST DUP3 MSTORE POP POP JUMP JUMPDEST PUSH0 PUSH1 0x20 DUP3 ADD SWAP1 POP PUSH2 0x3825 PUSH0 DUP4 ADD DUP5 PUSH2 0x3803 JUMP JUMPDEST SWAP3 SWAP2 POP POP JUMP JUMPDEST PUSH0 DUP1 PUSH1 0x40 DUP4 DUP6 SUB SLT ISZERO PUSH2 0x3841 JUMPI PUSH2 0x3840 PUSH2 0x345F JUMP JUMPDEST JUMPDEST PUSH0 PUSH2 0x384E DUP6 DUP3 DUP7 ADD PUSH2 0x34AD JUMP JUMPDEST SWAP3 POP POP PUSH1 0x20 PUSH2 0x385F DUP6 DUP3 DUP7 ADD PUSH2 0x34AD JUMP JUMPDEST SWAP2 POP POP SWAP3 POP SWAP3 SWAP1 POP JUMP JUMPDEST PUSH0 PUSH1 0x20 DUP3 DUP5 SUB SLT ISZERO PUSH2 0x387E JUMPI PUSH2 0x387D PUSH2 0x345F JUMP JUMPDEST JUMPDEST PUSH0 PUSH2 0x388B DUP5 DUP3 DUP6 ADD PUSH2 0x35DD JUMP JUMPDEST SWAP2 POP POP SWAP3 SWAP2 POP POP JUMP JUMPDEST PUSH32 0x4E487B7100000000000000000000000000000000000000000000000000000000 PUSH0 MSTORE PUSH1 0x21 PUSH1 0x4 MSTORE PUSH1 0x24 PUSH0 REVERT JUMPDEST PUSH1 0x6 DUP2 LT PUSH2 0x38D2 JUMPI PUSH2 0x38D1 PUSH2 0x3894 JUMP JUMPDEST JUMPDEST POP JUMP JUMPDEST PUSH0 DUP2 SWAP1 POP PUSH2 0x38E2 DUP3 PUSH2 0x38C1 JUMP JUMPDEST SWAP2 SWAP1 POP JUMP JUMPDEST PUSH0 PUSH2 0x38F1 DUP3 PUSH2 0x38D5 JUMP JUMPDEST SWAP1 POP SWAP2 SWAP1 POP JUMP JUMPDEST PUSH2 0x3901 DUP2 PUSH2 0x38E7 JUMP JUMPDEST DUP3 MSTORE POP POP JUMP JUMPDEST PUSH0 PUSH1 0x20 DUP3 ADD SWAP1 POP PUSH2 0x391A PUSH0 DUP4 ADD DUP5 PUSH2 0x38F8 JUMP JUMPDEST SWAP3 SWAP2 POP POP JUMP JUMPDEST PUSH0 PUSH4 0xFFFFFFFF DUP3 AND SWAP1 POP SWAP2 SWAP1 POP JUMP JUMPDEST PUSH2 0x3938 DUP2 PUSH2 0x3920 JUMP JUMPDEST DUP2 EQ PUSH2 0x3942 JUMPI PUSH0 DUP1 REVERT JUMPDEST POP JUMP JUMPDEST PUSH0 DUP2 CALLDATALOAD SWAP1 POP PUSH2 0x3953 DUP2 PUSH2 0x392F JUMP JUMPDEST SWAP3 SWAP2 POP POP JUMP JUMPDEST PUSH0 DUP1 PUSH1 0x40 DUP4 DUP6 SUB SLT ISZERO PUSH2 0x396F JUMPI PUSH2 0x396E PUSH2 0x345F JUMP JUMPDEST JUMPDEST PUSH0 PUSH2 0x397C DUP6 DUP3 DUP7 ADD PUSH2 0x3945 JUMP JUMPDEST SWAP3 POP POP PUSH1 0x20 PUSH2 0x398D DUP6 DUP3 DUP7 ADD PUSH2 0x373C JUMP JUMPDEST SWAP2 POP POP SWAP3 POP SWAP3 SWAP1 POP JUMP JUMPDEST PUSH0 PUSH32 0xFF00000000000000000000000000000000000000000000000000000000000000 DUP3 AND SWAP1 POP SWAP2 SWAP1 POP JUMP JUMPDEST PUSH2 0x39CB DUP2 PUSH2 0x3997 JUMP JUMPDEST DUP3 MSTORE POP POP JUMP JUMPDEST PUSH2 0x39DA DUP2 PUSH2 0x371D JUMP JUMPDEST DUP3 MSTORE POP POP JUMP JUMPDEST PUSH0 DUP2 MLOAD SWAP1 POP SWAP2 SWAP1 POP JUMP JUMPDEST PUSH0 DUP3 DUP3 MSTORE PUSH1 0x20 DUP3 ADD SWAP1 POP SWAP3 SWAP2 POP POP JUMP JUMPDEST PUSH0 DUP2 SWAP1 POP PUSH1 0x20 DUP3 ADD SWAP1 POP SWAP2 SWAP1 POP JUMP JUMPDEST PUSH2 0x3A12 DUP2 PUSH2 0x35BE JUMP JUMPDEST DUP3 MSTORE POP POP JUMP JUMPDEST PUSH0 PUSH2 0x3A23 DUP4 DUP4 PUSH2 0x3A09 JUMP JUMPDEST PUSH1 0x20 DUP4 ADD SWAP1 POP SWAP3 SWAP2 POP POP JUMP JUMPDEST PUSH0 PUSH1 0x20 DUP3 ADD SWAP1 POP SWAP2 SWAP1 POP JUMP JUMPDEST PUSH0 PUSH2 0x3A45 DUP3 PUSH2 0x39E0 JUMP JUMPDEST PUSH2 0x3A4F DUP2 DUP6 PUSH2 0x39EA JUMP JUMPDEST SWAP4 POP PUSH2 0x3A5A DUP4 PUSH2 0x39FA JUMP JUMPDEST DUP1 PUSH0 JUMPDEST DUP4 DUP2 LT ISZERO PUSH2 0x3A8A JUMPI DUP2 MLOAD PUSH2 0x3A71 DUP9 DUP3 PUSH2 0x3A18 JUMP JUMPDEST SWAP8 POP PUSH2 0x3A7C DUP4 PUSH2 0x3A2F JUMP JUMPDEST SWAP3 POP POP PUSH1 0x1 DUP2 ADD SWAP1 POP PUSH2 0x3A5D JUMP JUMPDEST POP DUP6 SWAP4 POP POP POP POP SWAP3 SWAP2 POP POP JUMP JUMPDEST PUSH0 PUSH1 0xE0 DUP3 ADD SWAP1 POP PUSH2 0x3AAA PUSH0 DUP4 ADD DUP11 PUSH2 0x39C2 JUMP JUMPDEST DUP2 DUP2 SUB PUSH1 0x20 DUP4 ADD MSTORE PUSH2 0x3ABC DUP2 DUP10 PUSH2 0x353E JUMP JUMPDEST SWAP1 POP DUP2 DUP2 SUB PUSH1 0x40 DUP4 ADD MSTORE PUSH2 0x3AD0 DUP2 DUP9 PUSH2 0x353E JUMP JUMPDEST SWAP1 POP PUSH2 0x3ADF PUSH1 0x60 DUP4 ADD DUP8 PUSH2 0x37D0 JUMP JUMPDEST PUSH2 0x3AEC PUSH1 0x80 DUP4 ADD DUP7 PUSH2 0x3596 JUMP JUMPDEST PUSH2 0x3AF9 PUSH1 0xA0 DUP4 ADD DUP6 PUSH2 0x39D1 JUMP JUMPDEST DUP2 DUP2 SUB PUSH1 0xC0 DUP4 ADD MSTORE PUSH2 0x3B0B DUP2 DUP5 PUSH2 0x3A3B JUMP JUMPDEST SWAP1 POP SWAP9 SWAP8 POP POP POP POP POP POP POP POP JUMP JUMPDEST PUSH2 0x3B22 DUP2 PUSH2 0x37F8 JUMP JUMPDEST DUP2 EQ PUSH2 0x3B2C JUMPI PUSH0 DUP1 REVERT JUMPDEST POP JUMP JUMPDEST PUSH0 DUP2 CALLDATALOAD SWAP1 POP PUSH2 0x3B3D DUP2 PUSH2 0x3B19 JUMP JUMPDEST SWAP3 SWAP2 POP POP JUMP JUMPDEST PUSH0 PUSH1 0x20 DUP3 DUP5 SUB SLT ISZERO PUSH2 0x3B58 JUMPI PUSH2 0x3B57 PUSH2 0x345F JUMP JUMPDEST JUMPDEST PUSH0 PUSH2 0x3B65 DUP5 DUP3 DUP6 ADD PUSH2 0x3B2F JUMP JUMPDEST SWAP2 POP POP SWAP3 SWAP2 POP POP JUMP JUMPDEST PUSH2 0x3B77 DUP2 PUSH2 0x3920 JUMP JUMPDEST DUP3 MSTORE POP POP JUMP JUMPDEST PUSH0 PUSH1 0x20 DUP3 ADD SWAP1 POP PUSH2 0x3B90 PUSH0 DUP4 ADD DUP5 PUSH2 0x3B6E JUMP JUMPDEST SWAP3 SWAP2 POP POP JUMP JUMPDEST PUSH0 DUP1 PUSH0 DUP1 PUSH1 0x80 DUP6 DUP8 SUB SLT ISZERO PUSH2 0x3BAE JUMPI PUSH2 0x3BAD PUSH2 0x345F JUMP JUMPDEST JUMPDEST PUSH0 PUSH2 0x3BBB DUP8 DUP3 DUP9 ADD PUSH2 0x35DD JUMP JUMPDEST SWAP5 POP POP PUSH1 0x20 PUSH2 0x3BCC DUP8 DUP3 DUP9 ADD PUSH2 0x34AD JUMP JUMPDEST SWAP4 POP POP PUSH1 0x40 PUSH2 0x3BDD DUP8 DUP3 DUP9 ADD PUSH2 0x34AD JUMP JUMPDEST SWAP3 POP POP PUSH1 0x60 PUSH2 0x3BEE DUP8 DUP3 DUP9 ADD PUSH2 0x34AD JUMP JUMPDEST SWAP2 POP POP SWAP3 SWAP6 SWAP2 SWAP5 POP SWAP3 POP JUMP JUMPDEST PUSH0 PUSH32 0xFFFFFFFF00000000000000000000000000000000000000000000000000000000 DUP3 AND SWAP1 POP SWAP2 SWAP1 POP JUMP JUMPDEST PUSH2 0x3C2E DUP2 PUSH2 0x3BFA JUMP JUMPDEST DUP2 EQ PUSH2 0x3C38 JUMPI PUSH0 DUP1 REVERT JUMPDEST POP JUMP JUMPDEST PUSH0 DUP2 CALLDATALOAD SWAP1 POP PUSH2 0x3C49 DUP2 PUSH2 0x3C25 JUMP JUMPDEST SWAP3 SWAP2 POP POP JUMP JUMPDEST PUSH0 DUP1 PUSH0 PUSH1 0x60 DUP5 DUP7 SUB SLT ISZERO PUSH2 0x3C66 JUMPI PUSH2 0x3C65 PUSH2 0x345F JUMP JUMPDEST JUMPDEST PUSH0 PUSH2 0x3C73 DUP7 DUP3 DUP8 ADD PUSH2 0x34AD JUMP JUMPDEST SWAP4 POP POP PUSH1 0x20 PUSH2 0x3C84 DUP7 DUP3 DUP8 ADD PUSH2 0x34AD JUMP JUMPDEST SWAP3 POP POP PUSH1 0x40 PUSH2 0x3C95 DUP7 DUP3 DUP8 ADD PUSH2 0x3C3B JUMP JUMPDEST SWAP2 POP POP SWAP3 POP SWAP3 POP SWAP3 JUMP JUMPDEST PUSH32 0x416363657373206973206E6F742076616C696400000000000000000000000000 PUSH0 DUP3 ADD MSTORE POP JUMP JUMPDEST PUSH0 PUSH2 0x3CD3 PUSH1 0x13 DUP4 PUSH2 0x34F6 JUMP JUMPDEST SWAP2 POP PUSH2 0x3CDE DUP3 PUSH2 0x3C9F JUMP JUMPDEST PUSH1 0x20 DUP3 ADD SWAP1 POP SWAP2 SWAP1 POP JUMP JUMPDEST PUSH0 PUSH1 0x20 DUP3 ADD SWAP1 POP DUP2 DUP2 SUB PUSH0 DUP4 ADD MSTORE PUSH2 0x3D00 DUP2 PUSH2 0x3CC7 JUMP JUMPDEST SWAP1 POP SWAP2 SWAP1 POP JUMP JUMPDEST PUSH32 0x4E487B7100000000000000000000000000000000000000000000000000000000 PUSH0 MSTORE PUSH1 0x22 PUSH1 0x4 MSTORE PUSH1 0x24 PUSH0 REVERT JUMPDEST PUSH0 PUSH1 0x2 DUP3 DIV SWAP1 POP PUSH1 0x1 DUP3 AND DUP1 PUSH2 0x3D4B JUMPI PUSH1 0x7F DUP3 AND SWAP2 POP JUMPDEST PUSH1 0x20 DUP3 LT DUP2 SUB PUSH2 0x3D5E JUMPI PUSH2 0x3D5D PUSH2 0x3D07 JUMP JUMPDEST JUMPDEST POP SWAP2 SWAP1 POP JUMP JUMPDEST PUSH32 0x4E487B7100000000000000000000000000000000000000000000000000000000 PUSH0 MSTORE PUSH1 0x11 PUSH1 0x4 MSTORE PUSH1 0x24 PUSH0 REVERT JUMPDEST PUSH0 PUSH2 0x3D9B DUP3 PUSH2 0x3920 JUMP JUMPDEST SWAP2 POP PUSH4 0xFFFFFFFF DUP3 SUB PUSH2 0x3DB1 JUMPI PUSH2 0x3DB0 PUSH2 0x3D64 JUMP JUMPDEST JUMPDEST PUSH1 0x1 DUP3 ADD SWAP1 POP SWAP2 SWAP1 POP JUMP JUMPDEST PUSH32 0x546865207265717565737420697320696E76616C696400000000000000000000 PUSH0 DUP3 ADD MSTORE POP JUMP JUMPDEST PUSH0 PUSH2 0x3DF0 PUSH1 0x16 DUP4 PUSH2 0x34F6 JUMP JUMPDEST SWAP2 POP PUSH2 0x3DFB DUP3 PUSH2 0x3DBC JUMP JUMPDEST PUSH1 0x20 DUP3 ADD SWAP1 POP SWAP2 SWAP1 POP JUMP JUMPDEST PUSH0 PUSH1 0x20 DUP3 ADD SWAP1 POP DUP2 DUP2 SUB PUSH0 DUP4 ADD MSTORE PUSH2 0x3E1D DUP2 PUSH2 0x3DE4 JUMP JUMPDEST SWAP1 POP SWAP2 SWAP1 POP JUMP JUMPDEST PUSH0 PUSH6 0xFFFFFFFFFFFF DUP3 AND SWAP1 POP SWAP2 SWAP1 POP JUMP JUMPDEST PUSH0 PUSH2 0x3E3F DUP3 PUSH2 0x3E24 JUMP JUMPDEST SWAP2 POP PUSH2 0x3E4A DUP4 PUSH2 0x3E24 JUMP JUMPDEST SWAP3 POP DUP3 DUP3 SUB SWAP1 POP PUSH6 0xFFFFFFFFFFFF DUP2 GT ISZERO PUSH2 0x3E68 JUMPI PUSH2 0x3E67 PUSH2 0x3D64 JUMP JUMPDEST JUMPDEST SWAP3 SWAP2 POP POP JUMP JUMPDEST PUSH2 0x3E77 DUP2 PUSH2 0x3E24 JUMP JUMPDEST DUP3 MSTORE POP POP JUMP JUMPDEST PUSH0 PUSH1 0x20 DUP3 ADD SWAP1 POP PUSH2 0x3E90 PUSH0 DUP4 ADD DUP5 PUSH2 0x3E6E JUMP JUMPDEST SWAP3 SWAP2 POP POP JUMP JUMPDEST PUSH0 DUP2 MLOAD SWAP1 POP SWAP2 SWAP1 POP JUMP JUMPDEST PUSH0 DUP3 DUP3 MSTORE PUSH1 0x20 DUP3 ADD SWAP1 POP SWAP3 SWAP2 POP POP JUMP JUMPDEST PUSH0 PUSH2 0x3EBA DUP3 PUSH2 0x3E96 JUMP JUMPDEST PUSH2 0x3EC4 DUP2 DUP6 PUSH2 0x3EA0 JUMP JUMPDEST SWAP4 POP PUSH2 0x3ED4 DUP2 DUP6 PUSH1 0x20 DUP7 ADD PUSH2 0x3506 JUMP JUMPDEST PUSH2 0x3EDD DUP2 PUSH2 0x352E JUMP JUMPDEST DUP5 ADD SWAP2 POP POP SWAP3 SWAP2 POP POP JUMP JUMPDEST PUSH0 PUSH1 0x80 DUP3 ADD SWAP1 POP PUSH2 0x3EFB PUSH0 DUP4 ADD DUP8 PUSH2 0x3596 JUMP JUMPDEST PUSH2 0x3F08 PUSH1 0x20 DUP4 ADD DUP7 PUSH2 0x37D0 JUMP JUMPDEST DUP2 DUP2 SUB PUSH1 0x40 DUP4 ADD MSTORE PUSH2 0x3F1A DUP2 DUP6 PUSH2 0x3EB0 JUMP JUMPDEST SWAP1 POP PUSH2 0x3F29 PUSH1 0x60 DUP4 ADD DUP5 PUSH2 0x39D1 JUMP JUMPDEST SWAP6 SWAP5 POP POP POP POP POP JUMP JUMPDEST PUSH0 DUP1 REVERT JUMPDEST PUSH0 DUP2 MLOAD SWAP1 POP PUSH2 0x3F44 DUP2 PUSH2 0x3497 JUMP JUMPDEST SWAP3 SWAP2 POP POP JUMP JUMPDEST PUSH0 PUSH2 0xFFFF DUP3 AND SWAP1 POP SWAP2 SWAP1 POP JUMP JUMPDEST PUSH2 0x3F60 DUP2 PUSH2 0x3F4A JUMP JUMPDEST DUP2 EQ PUSH2 0x3F6A JUMPI PUSH0 DUP1 REVERT JUMPDEST POP JUMP JUMPDEST PUSH0 DUP2 MLOAD SWAP1 POP PUSH2 0x3F7B DUP2 PUSH2 0x3F57 JUMP JUMPDEST SWAP3 SWAP2 POP POP JUMP JUMPDEST PUSH0 DUP2 MLOAD SWAP1 POP PUSH2 0x3F8F DUP2 PUSH2 0x392F JUMP JUMPDEST SWAP3 SWAP2 POP POP JUMP JUMPDEST PUSH2 0x3F9E DUP2 PUSH2 0x3E24 JUMP JUMPDEST DUP2 EQ PUSH2 0x3FA8 JUMPI PUSH0 DUP1 REVERT JUMPDEST POP JUMP JUMPDEST PUSH0 DUP2 MLOAD SWAP1 POP PUSH2 0x3FB9 DUP2 PUSH2 0x3F95 JUMP JUMPDEST SWAP3 SWAP2 POP POP JUMP JUMPDEST PUSH0 DUP2 MLOAD SWAP1 POP PUSH2 0x3FCD DUP2 PUSH2 0x3B19 JUMP JUMPDEST SWAP3 SWAP2 POP POP JUMP JUMPDEST PUSH0 PUSH2 0x140 DUP3 DUP5 SUB SLT ISZERO PUSH2 0x3FE9 JUMPI PUSH2 0x3FE8 PUSH2 0x3F32 JUMP JUMPDEST JUMPDEST PUSH2 0x3FF4 PUSH2 0x140 PUSH2 0x3657 JUMP JUMPDEST SWAP1 POP PUSH0 PUSH2 0x4003 DUP5 DUP3 DUP6 ADD PUSH2 0x3F36 JUMP JUMPDEST PUSH0 DUP4 ADD MSTORE POP PUSH1 0x20 PUSH2 0x4016 DUP5 DUP3 DUP6 ADD PUSH2 0x3F36 JUMP JUMPDEST PUSH1 0x20 DUP4 ADD MSTORE POP PUSH1 0x40 PUSH2 0x402A DUP5 DUP3 DUP6 ADD PUSH2 0x3F6D JUMP JUMPDEST PUSH1 0x40 DUP4 ADD MSTORE POP PUSH1 0x60 PUSH2 0x403E DUP5 DUP3 DUP6 ADD PUSH2 0x3F81 JUMP JUMPDEST PUSH1 0x60 DUP4 ADD MSTORE POP PUSH1 0x80 PUSH2 0x4052 DUP5 DUP3 DUP6 ADD PUSH2 0x3FAB JUMP JUMPDEST PUSH1 0x80 DUP4 ADD MSTORE POP PUSH1 0xA0 PUSH2 0x4066 DUP5 DUP3 DUP6 ADD PUSH2 0x3FAB JUMP JUMPDEST PUSH1 0xA0 DUP4 ADD MSTORE POP PUSH1 0xC0 PUSH2 0x407A DUP5 DUP3 DUP6 ADD PUSH2 0x3FBF JUMP JUMPDEST PUSH1 0xC0 DUP4 ADD MSTORE POP PUSH1 0xE0 PUSH2 0x408E DUP5 DUP3 DUP6 ADD PUSH2 0x3FBF JUMP JUMPDEST PUSH1 0xE0 DUP4 ADD MSTORE POP PUSH2 0x100 PUSH2 0x40A3 DUP5 DUP3 DUP6 ADD PUSH2 0x3FBF JUMP JUMPDEST PUSH2 0x100 DUP4 ADD MSTORE POP PUSH2 0x120 PUSH2 0x40B9 DUP5 DUP3 DUP6 ADD PUSH2 0x3FBF JUMP JUMPDEST PUSH2 0x120 DUP4 ADD MSTORE POP SWAP3 SWAP2 POP POP JUMP JUMPDEST PUSH0 PUSH2 0x140 DUP3 DUP5 SUB SLT ISZERO PUSH2 0x40DC JUMPI PUSH2 0x40DB PUSH2 0x345F JUMP JUMPDEST JUMPDEST PUSH0 PUSH2 0x40E9 DUP5 DUP3 DUP6 ADD PUSH2 0x3FD3 JUMP JUMPDEST SWAP2 POP POP SWAP3 SWAP2 POP POP JUMP JUMPDEST PUSH0 DUP2 MLOAD SWAP1 POP PUSH2 0x4100 DUP2 PUSH2 0x35C7 JUMP JUMPDEST SWAP3 SWAP2 POP POP JUMP JUMPDEST PUSH0 PUSH1 0x20 DUP3 DUP5 SUB SLT ISZERO PUSH2 0x411B JUMPI PUSH2 0x411A PUSH2 0x345F JUMP JUMPDEST JUMPDEST PUSH0 PUSH2 0x4128 DUP5 DUP3 DUP6 ADD PUSH2 0x40F2 JUMP JUMPDEST SWAP2 POP POP SWAP3 SWAP2 POP POP JUMP JUMPDEST PUSH0 PUSH1 0x40 DUP3 ADD SWAP1 POP PUSH2 0x4144 PUSH0 DUP4 ADD DUP6 PUSH2 0x37D0 JUMP JUMPDEST PUSH2 0x4151 PUSH1 0x20 DUP4 ADD DUP5 PUSH2 0x37D0 JUMP JUMPDEST SWAP4 SWAP3 POP POP POP JUMP JUMPDEST PUSH0 DUP2 SWAP1 POP SWAP2 SWAP1 POP JUMP JUMPDEST PUSH2 0x4172 PUSH2 0x416D DUP3 PUSH2 0x371D JUMP JUMPDEST PUSH2 0x4158 JUMP JUMPDEST DUP3 MSTORE POP POP JUMP JUMPDEST PUSH0 PUSH2 0x4183 DUP3 DUP5 PUSH2 0x4161 JUMP JUMPDEST PUSH1 0x20 DUP3 ADD SWAP2 POP DUP2 SWAP1 POP SWAP3 SWAP2 POP POP JUMP JUMPDEST PUSH0 DUP2 SWAP1 POP SWAP3 SWAP2 POP POP JUMP JUMPDEST PUSH32 0x5F766F74654475726174696F6E00000000000000000000000000000000000000 PUSH0 DUP3 ADD MSTORE POP JUMP JUMPDEST PUSH0 PUSH2 0x41D0 PUSH1 0xD DUP4 PUSH2 0x4192 JUMP JUMPDEST SWAP2 POP PUSH2 0x41DB DUP3 PUSH2 0x419C JUMP JUMPDEST PUSH1 0xD DUP3 ADD SWAP1 POP SWAP2 SWAP1 POP JUMP JUMPDEST PUSH0 PUSH2 0x41F0 DUP3 PUSH2 0x41C4 JUMP JUMPDEST SWAP2 POP DUP2 SWAP1 POP SWAP2 SWAP1 POP JUMP JUMPDEST PUSH32 0x5F6574615365636F6E6473000000000000000000000000000000000000000000 PUSH0 DUP3 ADD MSTORE POP JUMP JUMPDEST PUSH0 PUSH2 0x422E PUSH1 0xB DUP4 PUSH2 0x4192 JUMP JUMPDEST SWAP2 POP PUSH2 0x4239 DUP3 PUSH2 0x41FA JUMP JUMPDEST PUSH1 0xB DUP3 ADD SWAP1 POP SWAP2 SWAP1 POP JUMP JUMPDEST PUSH0 PUSH2 0x424E DUP3 PUSH2 0x4222 JUMP JUMPDEST SWAP2 POP DUP2 SWAP1 POP SWAP2 SWAP1 POP JUMP JUMPDEST PUSH32 0x5F766F746564656C617900000000000000000000000000000000000000000000 PUSH0 DUP3 ADD MSTORE POP JUMP JUMPDEST PUSH0 PUSH2 0x428C PUSH1 0xA DUP4 PUSH2 0x4192 JUMP JUMPDEST SWAP2 POP PUSH2 0x4297 DUP3 PUSH2 0x4258 JUMP JUMPDEST PUSH1 0xA DUP3 ADD SWAP1 POP SWAP2 SWAP1 POP JUMP JUMPDEST PUSH0 PUSH2 0x42AC DUP3 PUSH2 0x4280 JUMP JUMPDEST SWAP2 POP DUP2 SWAP1 POP SWAP2 SWAP1 POP JUMP JUMPDEST PUSH0 PUSH2 0x42C0 DUP3 PUSH2 0x35BE JUMP JUMPDEST SWAP2 POP PUSH2 0x42CB DUP4 PUSH2 0x35BE JUMP JUMPDEST SWAP3 POP DUP3 DUP3 ADD SWAP1 POP DUP1 DUP3 GT ISZERO PUSH2 0x42E3 JUMPI PUSH2 0x42E2 PUSH2 0x3D64 JUMP JUMPDEST JUMPDEST SWAP3 SWAP2 POP POP JUMP JUMPDEST PUSH0 DUP2 SWAP1 POP SWAP2 SWAP1 POP JUMP JUMPDEST PUSH0 DUP2 SWAP1 POP SWAP2 SWAP1 POP JUMP JUMPDEST PUSH0 PUSH2 0x4315 PUSH2 0x4310 PUSH2 0x430B DUP5 PUSH2 0x42E9 JUMP JUMPDEST PUSH2 0x42F2 JUMP JUMPDEST PUSH2 0x35BE JUMP JUMPDEST SWAP1 POP SWAP2 SWAP1 POP JUMP JUMPDEST PUSH2 0x4325 DUP2 PUSH2 0x42FB JUMP JUMPDEST DUP3 MSTORE POP POP JUMP JUMPDEST PUSH0 PUSH1 0x40 DUP3 ADD SWAP1 POP PUSH2 0x433E PUSH0 DUP4 ADD DUP6 PUSH2 0x431C JUMP JUMPDEST PUSH2 0x434B PUSH1 0x20 DUP4 ADD DUP5 PUSH2 0x37D0 JUMP JUMPDEST SWAP4 SWAP3 POP POP POP JUMP JUMPDEST PUSH0 PUSH1 0x40 DUP3 ADD SWAP1 POP PUSH2 0x4365 PUSH0 DUP4 ADD DUP6 PUSH2 0x3596 JUMP JUMPDEST PUSH2 0x4372 PUSH1 0x20 DUP4 ADD DUP5 PUSH2 0x37D0 JUMP JUMPDEST SWAP4 SWAP3 POP POP POP JUMP JUMPDEST PUSH32 0x696E76616C696420616363657373000000000000000000000000000000000000 PUSH0 DUP3 ADD MSTORE POP JUMP JUMPDEST PUSH0 PUSH2 0x43AD PUSH1 0xE DUP4 PUSH2 0x34F6 JUMP JUMPDEST SWAP2 POP PUSH2 0x43B8 DUP3 PUSH2 0x4379 JUMP JUMPDEST PUSH1 0x20 DUP3 ADD SWAP1 POP SWAP2 SWAP1 POP JUMP JUMPDEST PUSH0 PUSH1 0x20 DUP3 ADD SWAP1 POP DUP2 DUP2 SUB PUSH0 DUP4 ADD MSTORE PUSH2 0x43DA DUP2 PUSH2 0x43A1 JUMP JUMPDEST SWAP1 POP SWAP2 SWAP1 POP JUMP JUMPDEST PUSH0 PUSH8 0xFFFFFFFFFFFFFFFF DUP3 GT ISZERO PUSH2 0x43FB JUMPI PUSH2 0x43FA PUSH2 0x35F9 JUMP JUMPDEST JUMPDEST PUSH2 0x4404 DUP3 PUSH2 0x352E JUMP JUMPDEST SWAP1 POP PUSH1 0x20 DUP2 ADD SWAP1 POP SWAP2 SWAP1 POP JUMP JUMPDEST PUSH0 PUSH2 0x4423 PUSH2 0x441E DUP5 PUSH2 0x43E1 JUMP JUMPDEST PUSH2 0x3657 JUMP JUMPDEST SWAP1 POP DUP3 DUP2 MSTORE PUSH1 0x20 DUP2 ADD DUP5 DUP5 DUP5 ADD GT ISZERO PUSH2 0x443F JUMPI PUSH2 0x443E PUSH2 0x35F5 JUMP JUMPDEST JUMPDEST PUSH2 0x444A DUP5 DUP3 DUP6 PUSH2 0x3506 JUMP JUMPDEST POP SWAP4 SWAP3 POP POP POP JUMP JUMPDEST PUSH0 DUP3 PUSH1 0x1F DUP4 ADD SLT PUSH2 0x4466 JUMPI PUSH2 0x4465 PUSH2 0x35F1 JUMP JUMPDEST JUMPDEST DUP2 MLOAD PUSH2 0x4476 DUP5 DUP3 PUSH1 0x20 DUP7 ADD PUSH2 0x4411 JUMP JUMPDEST SWAP2 POP POP SWAP3 SWAP2 POP POP JUMP JUMPDEST PUSH0 DUP2 MLOAD SWAP1 POP PUSH2 0x448D DUP2 PUSH2 0x3726 JUMP JUMPDEST SWAP3 SWAP2 POP POP JUMP JUMPDEST PUSH0 DUP1 PUSH0 DUP1 PUSH1 0x80 DUP6 DUP8 SUB SLT ISZERO PUSH2 0x44AB JUMPI PUSH2 0x44AA PUSH2 0x345F JUMP JUMPDEST JUMPDEST PUSH0 DUP6 ADD MLOAD PUSH8 0xFFFFFFFFFFFFFFFF DUP2 GT ISZERO PUSH2 0x44C8 JUMPI PUSH2 0x44C7 PUSH2 0x3463 JUMP JUMPDEST JUMPDEST PUSH2 0x44D4 DUP8 DUP3 DUP9 ADD PUSH2 0x4452 JUMP JUMPDEST SWAP5 POP POP PUSH1 0x20 DUP6 ADD MLOAD PUSH8 0xFFFFFFFFFFFFFFFF DUP2 GT ISZERO PUSH2 0x44F5 JUMPI PUSH2 0x44F4 PUSH2 0x3463 JUMP JUMPDEST JUMPDEST PUSH2 0x4501 DUP8 DUP3 DUP9 ADD PUSH2 0x4452 JUMP JUMPDEST SWAP4 POP POP PUSH1 0x40 PUSH2 0x4512 DUP8 DUP3 DUP9 ADD PUSH2 0x447F JUMP JUMPDEST SWAP3 POP POP PUSH1 0x60 PUSH2 0x4523 DUP8 DUP3 DUP9 ADD PUSH2 0x3F36 JUMP JUMPDEST SWAP2 POP POP SWAP3 SWAP6 SWAP2 SWAP5 POP SWAP3 POP JUMP JUMPDEST PUSH0 DUP1 PUSH0 PUSH1 0x60 DUP5 DUP7 SUB SLT ISZERO PUSH2 0x4546 JUMPI PUSH2 0x4545 PUSH2 0x345F JUMP JUMPDEST JUMPDEST PUSH0 PUSH2 0x4553 DUP7 DUP3 DUP8 ADD PUSH2 0x3F36 JUMP JUMPDEST SWAP4 POP POP PUSH1 0x20 PUSH2 0x4564 DUP7 DUP3 DUP8 ADD PUSH2 0x3F36 JUMP JUMPDEST SWAP3 POP POP PUSH1 0x40 PUSH2 0x4575 DUP7 DUP3 DUP8 ADD PUSH2 0x40F2 JUMP JUMPDEST SWAP2 POP POP SWAP3 POP SWAP3 POP SWAP3 JUMP JUMPDEST PUSH0 PUSH1 0x60 DUP3 ADD SWAP1 POP PUSH2 0x4592 PUSH0 DUP4 ADD DUP7 PUSH2 0x3596 JUMP JUMPDEST PUSH2 0x459F PUSH1 0x20 DUP4 ADD DUP6 PUSH2 0x3596 JUMP JUMPDEST PUSH2 0x45AC PUSH1 0x40 DUP4 ADD DUP5 PUSH2 0x37D0 JUMP JUMPDEST SWAP5 SWAP4 POP POP POP POP JUMP JUMPDEST PUSH0 DUP1 PUSH0 DUP1 PUSH1 0x80 DUP6 DUP8 SUB SLT ISZERO PUSH2 0x45CC JUMPI PUSH2 0x45CB PUSH2 0x345F JUMP JUMPDEST JUMPDEST PUSH0 PUSH2 0x45D9 DUP8 DUP3 DUP9 ADD PUSH2 0x3F6D JUMP JUMPDEST SWAP5 POP POP PUSH1 0x20 PUSH2 0x45EA DUP8 DUP3 DUP9 ADD PUSH2 0x3F81 JUMP JUMPDEST SWAP4 POP POP PUSH1 0x40 PUSH2 0x45FB DUP8 DUP3 DUP9 ADD PUSH2 0x3FAB JUMP JUMPDEST SWAP3 POP POP PUSH1 0x60 PUSH2 0x460C DUP8 DUP3 DUP9 ADD PUSH2 0x3FAB JUMP JUMPDEST SWAP2 POP POP SWAP3 SWAP6 SWAP2 SWAP5 POP SWAP3 POP JUMP JUMPDEST PUSH2 0x4621 DUP2 PUSH2 0x3F4A JUMP JUMPDEST DUP3 MSTORE POP POP JUMP JUMPDEST PUSH0 PUSH1 0x20 DUP3 ADD SWAP1 POP PUSH2 0x463A PUSH0 DUP4 ADD DUP5 PUSH2 0x4618 JUMP JUMPDEST SWAP3 SWAP2 POP POP JUMP JUMPDEST PUSH0 PUSH1 0x60 DUP3 ADD SWAP1 POP PUSH2 0x4653 PUSH0 DUP4 ADD DUP7 PUSH2 0x3B6E JUMP JUMPDEST PUSH2 0x4660 PUSH1 0x20 DUP4 ADD DUP6 PUSH2 0x3E6E JUMP JUMPDEST PUSH2 0x466D PUSH1 0x40 DUP4 ADD DUP5 PUSH2 0x3E6E JUMP JUMPDEST SWAP5 SWAP4 POP POP POP POP JUMP JUMPDEST PUSH0 PUSH1 0xE0 DUP3 ADD SWAP1 POP PUSH2 0x4688 PUSH0 DUP4 ADD DUP11 PUSH2 0x37D0 JUMP JUMPDEST PUSH2 0x4695 PUSH1 0x20 DUP4 ADD DUP10 PUSH2 0x4618 JUMP JUMPDEST PUSH2 0x46A2 PUSH1 0x40 DUP4 ADD DUP9 PUSH2 0x3B6E JUMP JUMPDEST PUSH2 0x46AF PUSH1 0x60 DUP4 ADD DUP8 PUSH2 0x3E6E JUMP JUMPDEST PUSH2 0x46BC PUSH1 0x80 DUP4 ADD DUP7 PUSH2 0x3E6E JUMP JUMPDEST PUSH2 0x46C9 PUSH1 0xA0 DUP4 ADD DUP6 PUSH2 0x3596 JUMP JUMPDEST PUSH2 0x46D6 PUSH1 0xC0 DUP4 ADD DUP5 PUSH2 0x3596 JUMP JUMPDEST SWAP9 SWAP8 POP POP POP POP POP POP POP POP JUMP JUMPDEST PUSH0 PUSH1 0x20 DUP3 DUP5 SUB SLT ISZERO PUSH2 0x46F7 JUMPI PUSH2 0x46F6 PUSH2 0x345F JUMP JUMPDEST JUMPDEST PUSH0 PUSH2 0x4704 DUP5 DUP3 DUP6 ADD PUSH2 0x3FBF JUMP JUMPDEST SWAP2 POP POP SWAP3 SWAP2 POP POP JUMP JUMPDEST PUSH32 0x666F72416E790000000000000000000000000000000000000000000000000000 DUP2 MSTORE POP JUMP JUMPDEST PUSH0 PUSH1 0x20 DUP3 ADD SWAP1 POP PUSH2 0x4745 PUSH0 DUP4 ADD PUSH2 0x470D JUMP JUMPDEST SWAP2 SWAP1 POP JUMP JUMPDEST PUSH0 PUSH8 0xFFFFFFFFFFFFFFFF DUP3 GT ISZERO PUSH2 0x4764 JUMPI PUSH2 0x4763 PUSH2 0x35F9 JUMP JUMPDEST JUMPDEST PUSH1 0x20 DUP3 MUL SWAP1 POP SWAP2 SWAP1 POP JUMP JUMPDEST PUSH0 DUP1 REVERT JUMPDEST PUSH0 PUSH2 0x4785 PUSH2 0x4780 DUP5 PUSH2 0x474A JUMP JUMPDEST PUSH2 0x3657 JUMP JUMPDEST SWAP1 POP DUP1 PUSH1 0x20 DUP5 MUL DUP4 ADD DUP6 DUP2 GT ISZERO PUSH2 0x479F JUMPI PUSH2 0x479E PUSH2 0x476F JUMP JUMPDEST JUMPDEST DUP4 JUMPDEST DUP2 DUP2 LT ISZERO PUSH2 0x47C8 JUMPI DUP1 PUSH2 0x47B4 DUP9 DUP3 PUSH2 0x3FAB JUMP JUMPDEST DUP5 MSTORE PUSH1 0x20 DUP5 ADD SWAP4 POP POP PUSH1 0x20 DUP2 ADD SWAP1 POP PUSH2 0x47A1 JUMP JUMPDEST POP POP POP SWAP4 SWAP3 POP POP POP JUMP JUMPDEST PUSH0 DUP3 PUSH1 0x1F DUP4 ADD SLT PUSH2 0x47E6 JUMPI PUSH2 0x47E5 PUSH2 0x35F1 JUMP JUMPDEST JUMPDEST PUSH2 0x4B1 PUSH2 0x47F4 DUP5 DUP3 DUP6 PUSH2 0x4773 JUMP JUMPDEST SWAP2 POP POP SWAP3 SWAP2 POP POP JUMP JUMPDEST PUSH0 PUSH2 0x9620 DUP3 DUP5 SUB SLT ISZERO PUSH2 0x4813 JUMPI PUSH2 0x4812 PUSH2 0x345F JUMP JUMPDEST JUMPDEST PUSH0 PUSH2 0x4820 DUP5 DUP3 DUP6 ADD PUSH2 0x47D2 JUMP JUMPDEST SWAP2 POP POP SWAP3 SWAP2 POP POP JUMP JUMPDEST PUSH0 PUSH2 0x4833 DUP3 PUSH2 0x35BE JUMP JUMPDEST SWAP2 POP PUSH2 0x483E DUP4 PUSH2 0x35BE JUMP JUMPDEST SWAP3 POP DUP3 DUP3 SUB SWAP1 POP DUP2 DUP2 GT ISZERO PUSH2 0x4856 JUMPI PUSH2 0x4855 PUSH2 0x3D64 JUMP JUMPDEST JUMPDEST SWAP3 SWAP2 POP POP JUMP JUMPDEST PUSH32 0x4E487B7100000000000000000000000000000000000000000000000000000000 PUSH0 MSTORE PUSH1 0x32 PUSH1 0x4 MSTORE PUSH1 0x24 PUSH0 REVERT JUMPDEST PUSH0 PUSH2 0x4893 DUP3 PUSH2 0x3F4A JUMP JUMPDEST SWAP2 POP PUSH2 0xFFFF DUP3 SUB PUSH2 0x48A7 JUMPI PUSH2 0x48A6 PUSH2 0x3D64 JUMP JUMPDEST JUMPDEST PUSH1 0x1 DUP3 ADD SWAP1 POP SWAP2 SWAP1 POP JUMP JUMPDEST PUSH32 0x4E487B7100000000000000000000000000000000000000000000000000000000 PUSH0 MSTORE PUSH1 0x12 PUSH1 0x4 MSTORE PUSH1 0x24 PUSH0 REVERT JUMPDEST PUSH0 PUSH2 0x48E9 DUP3 PUSH2 0x3F4A JUMP JUMPDEST SWAP2 POP PUSH2 0x48F4 DUP4 PUSH2 0x3F4A JUMP JUMPDEST SWAP3 POP DUP3 PUSH2 0x4904 JUMPI PUSH2 0x4903 PUSH2 0x48B2 JUMP JUMPDEST JUMPDEST DUP3 DUP3 DIV SWAP1 POP SWAP3 SWAP2 POP POP JUMP JUMPDEST PUSH0 PUSH2 0x4919 DUP3 PUSH2 0x3F4A JUMP JUMPDEST SWAP2 POP PUSH2 0x4924 DUP4 PUSH2 0x3F4A JUMP JUMPDEST SWAP3 POP DUP3 DUP3 MUL PUSH2 0x4932 DUP2 PUSH2 0x3F4A JUMP JUMPDEST SWAP2 POP DUP1 DUP3 EQ PUSH2 0x4944 JUMPI PUSH2 0x4943 PUSH2 0x3D64 JUMP JUMPDEST JUMPDEST POP SWAP3 SWAP2 POP POP JUMP INVALID LOG2 PUSH5 0x6970667358 0x22 SLT KECCAK256 PUSH31 0x287466B56DC4FC246594A14BF57CF6770AB0EAE66A9C7CB036A783F82C60ED PUSH5 0x736F6C6343 STOP ADDMOD EQ STOP CALLER "
		},
		"gasEstimates": {
			"creation": {
				"codeDepositCost": "3763400",
				"executionCost": "infinite",
				"totalCost": "infinite"
			},
			"external": {
				"AccessControl(address,address,bytes4)": "infinite",
				"CLOCK_MODE()": "infinite",
				"Clock()": "442",
				"cancel(address,uint256,bytes,bytes32)": "infinite",
				"cancelPendingRepublicGAddress(address)": "infinite",
				"eip712Domain()": "infinite",
				"execute(address,uint256,bytes,bytes32)": "infinite",
				"getAuthorityAddress()": "445",
				"getGovernance()": "2588",
				"getPresidentAdd()": "2653",
				"getPresidentBan()": "2597",
				"getPrimeMinisterAdd()": "2609",
				"getPrimeMinisterBan()": "2617",
				"getRepublicAddress()": "infinite",
				"getRepublicGAddress()": "2566",
				"getgovernanceVersion()": "2574",
				"governoraccess(address)": "751",
				"hashProposal(address,uint256,bytes,bytes32)": "infinite",
				"name()": "infinite",
				"proposal(uint256,address,address,address)": "infinite",
				"setConnectors(address,address)": "infinite",
				"setPendigPresident(address)": "infinite",
				"setPendingGovernanceContractAddress(address)": "infinite",
				"setPendingPrimeMinister(address)": "30404",
				"setPendingRepublicGAddress(address)": "infinite",
				"setPresidentBaned(bool)": "infinite",
				"setPrimeMinisterBaned(bool)": "29351",
				"setvoteTiming(uint32,bytes32)": "infinite",
				"state(uint256)": "infinite",
				"transferGovernanceContractAddress(address)": "infinite",
				"transferPresident()": "107809",
				"transferPrimeMinister()": "110042",
				"transferRepublicGAddress(address)": "infinite",
				"version()": "infinite"
			},
			"internal": {
				"_voteResult(struct storageTCN.ProposalCore memory)": "infinite",
				"isQuorumValid(uint16)": "infinite"
			}
		},
		"methodIdentifiers": {
			"AccessControl(address,address,bytes4)": "e35b31b7",
			"CLOCK_MODE()": "4bf5d7e9",
			"Clock()": "5dad85c2",
			"cancel(address,uint256,bytes,bytes32)": "85488408",
			"cancelPendingRepublicGAddress(address)": "4494acd9",
			"eip712Domain()": "84b0196e",
			"execute(address,uint256,bytes,bytes32)": "88aa4c12",
			"getAuthorityAddress()": "e47a9d46",
			"getGovernance()": "289b3c0d",
			"getPresidentAdd()": "66410997",
			"getPresidentBan()": "6cf106d7",
			"getPrimeMinisterAdd()": "a53da00b",
			"getPrimeMinisterBan()": "e4f3e947",
			"getRepublicAddress()": "c5a1c5c1",
			"getRepublicGAddress()": "37676f79",
			"getgovernanceVersion()": "c387b49c",
			"governoraccess(address)": "3610feb3",
			"hashProposal(address,uint256,bytes,bytes32)": "31d133c2",
			"name()": "06fdde03",
			"proposal(uint256,address,address,address)": "c8021c2e",
			"setConnectors(address,address)": "3a8512b4",
			"setPendigPresident(address)": "054203bd",
			"setPendingGovernanceContractAddress(address)": "ca4cce68",
			"setPendingPrimeMinister(address)": "544fa93e",
			"setPendingRepublicGAddress(address)": "861a179d",
			"setPresidentBaned(bool)": "b5c09c68",
			"setPrimeMinisterBaned(bool)": "f5f9cdd4",
			"setvoteTiming(uint32,bytes32)": "667d639b",
			"state(uint256)": "3e4f49e6",
			"transferGovernanceContractAddress(address)": "ee7126c3",
			"transferPresident()": "0df4c390",
			"transferPrimeMinister()": "18074eee",
			"transferRepublicGAddress(address)": "1f86aa2a",
			"version()": "54fd4d50"
		}
	},
	"abi": [
		{
			"inputs": [
				{
					"internalType": "string",
					"name": "name_",
					"type": "string"
				}
			],
			"stateMutability": "nonpayable",
			"type": "constructor"
		},
		{
			"inputs": [],
			"name": "AccessOnlyForThePendig",
			"type": "error"
		},
		{
			"inputs": [
				{
					"internalType": "address",
					"name": "ballot",
					"type": "address"
				}
			],
			"name": "AddressNotReturnVoteCount",
			"type": "error"
		},
		{
			"inputs": [
				{
					"internalType": "address",
					"name": "governances_",
					"type": "address"
				}
			],
			"name": "GovernanceContractNotMatch",
			"type": "error"
		},
		{
			"inputs": [
				{
					"internalType": "uint256",
					"name": "proposalId",
					"type": "uint256"
				}
			],
			"name": "GovernorNonexistentProposal",
			"type": "error"
		},
		{
			"inputs": [
				{
					"internalType": "address",
					"name": "target_",
					"type": "address"
				},
				{
					"internalType": "address",
					"name": "proposer_",
					"type": "address"
				},
				{
					"internalType": "uint256",
					"name": "value_",
					"type": "uint256"
				}
			],
			"name": "InavlidProposalParams",
			"type": "error"
		},
		{
			"inputs": [
				{
					"internalType": "uint16",
					"name": "quorum",
					"type": "uint16"
				}
			],
			"name": "InvalidQuorum",
			"type": "error"
		},
		{
			"inputs": [],
			"name": "InvalidShortString",
			"type": "error"
		},
		{
			"inputs": [
				{
					"internalType": "uint32",
					"name": "voteDuration_",
					"type": "uint32"
				},
				{
					"internalType": "uint48",
					"name": "voteStart_",
					"type": "uint48"
				},
				{
					"internalType": "uint48",
					"name": "etaSeconds_",
					"type": "uint48"
				}
			],
			"name": "InvalidVotingTImeParams",
			"type": "error"
		},
		{
			"inputs": [
				{
					"internalType": "uint48",
					"name": "reminingTime",
					"type": "uint48"
				}
			],
			"name": "RemainingTimeUntilTheConfirmationDeadline",
			"type": "error"
		},
		{
			"inputs": [
				{
					"internalType": "uint256",
					"name": "proposalId",
					"type": "uint256"
				}
			],
			"name": "StateProposalIsSpecified",
			"type": "error"
		},
		{
			"inputs": [
				{
					"internalType": "address",
					"name": "Applicant",
					"type": "address"
				}
			],
			"name": "StorageContractS_invalidAccess",
			"type": "error"
		},
		{
			"inputs": [
				{
					"internalType": "address",
					"name": "storageContract",
					"type": "address"
				},
				{
					"internalType": "uint256",
					"name": "proposalId",
					"type": "uint256"
				}
			],
			"name": "StorageContractS_invalidState",
			"type": "error"
		},
		{
			"inputs": [
				{
					"internalType": "string",
					"name": "str",
					"type": "string"
				}
			],
			"name": "StringTooLong",
			"type": "error"
		},
		{
			"inputs": [
				{
					"internalType": "address",
					"name": "NewGCAddress",
					"type": "address"
				}
			],
			"name": "TheAddressIsNotValidForGC",
			"type": "error"
		},
		{
			"inputs": [
				{
					"internalType": "address",
					"name": "newRGAddress",
					"type": "address"
				}
			],
			"name": "TheAddressIsNotValidForRAddress",
			"type": "error"
		},
		{
			"inputs": [
				{
					"internalType": "uint256",
					"name": "proposalId_",
					"type": "uint256"
				}
			],
			"name": "ThisProposalExists",
			"type": "error"
		},
		{
			"anonymous": false,
			"inputs": [
				{
					"indexed": true,
					"internalType": "address",
					"name": "storageContract",
					"type": "address"
				},
				{
					"indexed": true,
					"internalType": "uint256",
					"name": "proposalId",
					"type": "uint256"
				}
			],
			"name": "ChangeStateToExecutedAndContinue",
			"type": "event"
		},
		{
			"anonymous": false,
			"inputs": [],
			"name": "EIP712DomainChanged",
			"type": "event"
		},
		{
			"anonymous": false,
			"inputs": [
				{
					"indexed": true,
					"internalType": "uint256",
					"name": "proposalId",
					"type": "uint256"
				}
			],
			"name": "ProposalCanceled",
			"type": "event"
		},
		{
			"anonymous": false,
			"inputs": [
				{
					"indexed": true,
					"internalType": "uint256",
					"name": "proposalId",
					"type": "uint256"
				}
			],
			"name": "SetProposal",
			"type": "event"
		},
		{
			"anonymous": false,
			"inputs": [
				{
					"indexed": true,
					"internalType": "address",
					"name": "GCAddress",
					"type": "address"
				},
				{
					"indexed": true,
					"internalType": "uint32",
					"name": "version",
					"type": "uint32"
				}
			],
			"name": "TheNewGCAddressWasConfirmed",
			"type": "event"
		},
		{
			"anonymous": false,
			"inputs": [
				{
					"indexed": true,
					"internalType": "address",
					"name": "presidentAdd",
					"type": "address"
				},
				{
					"indexed": true,
					"internalType": "uint32",
					"name": "nonce",
					"type": "uint32"
				}
			],
			"name": "TheNewPresidentWasConfirmed",
			"type": "event"
		},
		{
			"anonymous": false,
			"inputs": [
				{
					"indexed": true,
					"internalType": "address",
					"name": "primeMinisterAdd",
					"type": "address"
				},
				{
					"indexed": true,
					"internalType": "uint32",
					"name": "nonce",
					"type": "uint32"
				}
			],
			"name": "TheNewPrimeMinisterWasConfirmed",
			"type": "event"
		},
		{
			"anonymous": false,
			"inputs": [
				{
					"indexed": true,
					"internalType": "address",
					"name": "RepublicGAddress",
					"type": "address"
				},
				{
					"indexed": true,
					"internalType": "uint32",
					"name": "version",
					"type": "uint32"
				}
			],
			"name": "TheNewRepublicGAddressWasConfirmed",
			"type": "event"
		},
		{
			"anonymous": false,
			"inputs": [
				{
					"indexed": true,
					"internalType": "address",
					"name": "newGCAddress",
					"type": "address"
				}
			],
			"name": "TheNextGCAddressWasElected",
			"type": "event"
		},
		{
			"anonymous": false,
			"inputs": [
				{
					"indexed": true,
					"internalType": "address",
					"name": "newPresidentAdd",
					"type": "address"
				}
			],
			"name": "TheNextPresidentWasElected",
			"type": "event"
		},
		{
			"anonymous": false,
			"inputs": [
				{
					"indexed": true,
					"internalType": "address",
					"name": "newPrimeMinister",
					"type": "address"
				}
			],
			"name": "TheNextPrimeMinisterWasElected",
			"type": "event"
		},
		{
			"anonymous": false,
			"inputs": [
				{
					"indexed": true,
					"internalType": "address",
					"name": "PRGAddress",
					"type": "address"
				}
			],
			"name": "TheNextRepublicGAddressWasCancelled",
			"type": "event"
		},
		{
			"anonymous": false,
			"inputs": [
				{
					"indexed": true,
					"internalType": "address",
					"name": "newRepublicGAddress",
					"type": "address"
				}
			],
			"name": "TheNextRepublicGAddressWasElected",
			"type": "event"
		},
		{
			"anonymous": false,
			"inputs": [
				{
					"indexed": true,
					"internalType": "bool",
					"name": "baned",
					"type": "bool"
				},
				{
					"indexed": true,
					"internalType": "bool",
					"name": "done",
					"type": "bool"
				}
			],
			"name": "TheStatusOfBanningAllActivitiesAndDone",
			"type": "event"
		},
		{
			"anonymous": false,
			"inputs": [
				{
					"indexed": true,
					"internalType": "address",
					"name": "ballotAddress",
					"type": "address"
				}
			],
			"name": "ValidBallotcontract",
			"type": "event"
		},
		{
			"anonymous": false,
			"inputs": [
				{
					"indexed": true,
					"internalType": "uint32",
					"name": "time",
					"type": "uint32"
				}
			],
			"name": "changeEtaSeconds",
			"type": "event"
		},
		{
			"anonymous": false,
			"inputs": [
				{
					"indexed": true,
					"internalType": "uint32",
					"name": "time",
					"type": "uint32"
				}
			],
			"name": "changeVoteDelay",
			"type": "event"
		},
		{
			"anonymous": false,
			"inputs": [
				{
					"indexed": true,
					"internalType": "uint32",
					"name": "time",
					"type": "uint32"
				}
			],
			"name": "changeVoteDuration",
			"type": "event"
		},
		{
			"inputs": [
				{
					"internalType": "address",
					"name": "caller",
					"type": "address"
				},
				{
					"internalType": "address",
					"name": "target",
					"type": "address"
				},
				{
					"internalType": "bytes4",
					"name": "Fselector",
					"type": "bytes4"
				}
			],
			"name": "AccessControl",
			"outputs": [
				{
					"internalType": "bool",
					"name": "accessed",
					"type": "bool"
				}
			],
			"stateMutability": "nonpayable",
			"type": "function"
		},
		{
			"inputs": [],
			"name": "CLOCK_MODE",
			"outputs": [
				{
					"internalType": "string",
					"name": "",
					"type": "string"
				}
			],
			"stateMutability": "pure",
			"type": "function"
		},
		{
			"inputs": [],
			"name": "Clock",
			"outputs": [
				{
					"internalType": "uint256",
					"name": "",
					"type": "uint256"
				}
			],
			"stateMutability": "view",
			"type": "function"
		},
		{
			"inputs": [
				{
					"internalType": "address",
					"name": "target",
					"type": "address"
				},
				{
					"internalType": "uint256",
					"name": "value",
					"type": "uint256"
				},
				{
					"internalType": "bytes",
					"name": "callData",
					"type": "bytes"
				},
				{
					"internalType": "bytes32",
					"name": "descriptionHash",
					"type": "bytes32"
				}
			],
			"name": "cancel",
			"outputs": [],
			"stateMutability": "nonpayable",
			"type": "function"
		},
		{
			"inputs": [
				{
					"internalType": "address",
					"name": "PRGAdress",
					"type": "address"
				}
			],
			"name": "cancelPendingRepublicGAddress",
			"outputs": [],
			"stateMutability": "nonpayable",
			"type": "function"
		},
		{
			"inputs": [],
			"name": "eip712Domain",
			"outputs": [
				{
					"internalType": "bytes1",
					"name": "fields",
					"type": "bytes1"
				},
				{
					"internalType": "string",
					"name": "name",
					"type": "string"
				},
				{
					"internalType": "string",
					"name": "version",
					"type": "string"
				},
				{
					"internalType": "uint256",
					"name": "chainId",
					"type": "uint256"
				},
				{
					"internalType": "address",
					"name": "verifyingContract",
					"type": "address"
				},
				{
					"internalType": "bytes32",
					"name": "salt",
					"type": "bytes32"
				},
				{
					"internalType": "uint256[]",
					"name": "extensions",
					"type": "uint256[]"
				}
			],
			"stateMutability": "view",
			"type": "function"
		},
		{
			"inputs": [
				{
					"internalType": "address",
					"name": "target",
					"type": "address"
				},
				{
					"internalType": "uint256",
					"name": "value",
					"type": "uint256"
				},
				{
					"internalType": "bytes",
					"name": "callData",
					"type": "bytes"
				},
				{
					"internalType": "bytes32",
					"name": "descriptionHash",
					"type": "bytes32"
				}
			],
			"name": "execute",
			"outputs": [],
			"stateMutability": "nonpayable",
			"type": "function"
		},
		{
			"inputs": [],
			"name": "getAuthorityAddress",
			"outputs": [
				{
					"internalType": "address",
					"name": "",
					"type": "address"
				}
			],
			"stateMutability": "view",
			"type": "function"
		},
		{
			"inputs": [],
			"name": "getGovernance",
			"outputs": [
				{
					"internalType": "address",
					"name": "",
					"type": "address"
				}
			],
			"stateMutability": "view",
			"type": "function"
		},
		{
			"inputs": [],
			"name": "getPresidentAdd",
			"outputs": [
				{
					"internalType": "address",
					"name": "",
					"type": "address"
				}
			],
			"stateMutability": "view",
			"type": "function"
		},
		{
			"inputs": [],
			"name": "getPresidentBan",
			"outputs": [
				{
					"internalType": "bool",
					"name": "",
					"type": "bool"
				}
			],
			"stateMutability": "view",
			"type": "function"
		},
		{
			"inputs": [],
			"name": "getPrimeMinisterAdd",
			"outputs": [
				{
					"internalType": "address",
					"name": "",
					"type": "address"
				}
			],
			"stateMutability": "view",
			"type": "function"
		},
		{
			"inputs": [],
			"name": "getPrimeMinisterBan",
			"outputs": [
				{
					"internalType": "bool",
					"name": "",
					"type": "bool"
				}
			],
			"stateMutability": "view",
			"type": "function"
		},
		{
			"inputs": [],
			"name": "getRepublicAddress",
			"outputs": [
				{
					"internalType": "address",
					"name": "R",
					"type": "address"
				}
			],
			"stateMutability": "view",
			"type": "function"
		},
		{
			"inputs": [],
			"name": "getRepublicGAddress",
			"outputs": [
				{
					"internalType": "address",
					"name": "RG",
					"type": "address"
				}
			],
			"stateMutability": "view",
			"type": "function"
		},
		{
			"inputs": [],
			"name": "getgovernanceVersion",
			"outputs": [
				{
					"internalType": "uint32",
					"name": "",
					"type": "uint32"
				}
			],
			"stateMutability": "view",
			"type": "function"
		},
		{
			"inputs": [
				{
					"internalType": "address",
					"name": "",
					"type": "address"
				}
			],
			"name": "governoraccess",
			"outputs": [
				{
					"internalType": "bool",
					"name": "",
					"type": "bool"
				}
			],
			"stateMutability": "nonpayable",
			"type": "function"
		},
		{
			"inputs": [
				{
					"internalType": "address",
					"name": "target",
					"type": "address"
				},
				{
					"internalType": "uint256",
					"name": "value",
					"type": "uint256"
				},
				{
					"internalType": "bytes",
					"name": "callData",
					"type": "bytes"
				},
				{
					"internalType": "bytes32",
					"name": "descriptionHash",
					"type": "bytes32"
				}
			],
			"name": "hashProposal",
			"outputs": [
				{
					"internalType": "uint256",
					"name": "",
					"type": "uint256"
				}
			],
			"stateMutability": "pure",
			"type": "function"
		},
		{
			"inputs": [],
			"name": "name",
			"outputs": [
				{
					"internalType": "string",
					"name": "",
					"type": "string"
				}
			],
			"stateMutability": "view",
			"type": "function"
		},
		{
			"inputs": [
				{
					"internalType": "uint256",
					"name": "value",
					"type": "uint256"
				},
				{
					"internalType": "address",
					"name": "target",
					"type": "address"
				},
				{
					"internalType": "address",
					"name": "proposer",
					"type": "address"
				},
				{
					"internalType": "address",
					"name": "ballotAddress",
					"type": "address"
				}
			],
			"name": "proposal",
			"outputs": [
				{
					"internalType": "uint256",
					"name": "proposalId",
					"type": "uint256"
				}
			],
			"stateMutability": "nonpayable",
			"type": "function"
		},
		{
			"inputs": [
				{
					"internalType": "address",
					"name": "applicantAdd_",
					"type": "address"
				},
				{
					"internalType": "address",
					"name": "storageAdd_",
					"type": "address"
				}
			],
			"name": "setConnectors",
			"outputs": [],
			"stateMutability": "nonpayable",
			"type": "function"
		},
		{
			"inputs": [
				{
					"internalType": "address",
					"name": "newPresident",
					"type": "address"
				}
			],
			"name": "setPendigPresident",
			"outputs": [],
			"stateMutability": "nonpayable",
			"type": "function"
		},
		{
			"inputs": [
				{
					"internalType": "address",
					"name": "newGCAddress",
					"type": "address"
				}
			],
			"name": "setPendingGovernanceContractAddress",
			"outputs": [],
			"stateMutability": "nonpayable",
			"type": "function"
		},
		{
			"inputs": [
				{
					"internalType": "address",
					"name": "newPM",
					"type": "address"
				}
			],
			"name": "setPendingPrimeMinister",
			"outputs": [],
			"stateMutability": "nonpayable",
			"type": "function"
		},
		{
			"inputs": [
				{
					"internalType": "address",
					"name": "newRGAddress",
					"type": "address"
				}
			],
			"name": "setPendingRepublicGAddress",
			"outputs": [],
			"stateMutability": "nonpayable",
			"type": "function"
		},
		{
			"inputs": [
				{
					"internalType": "bool",
					"name": "baned",
					"type": "bool"
				}
			],
			"name": "setPresidentBaned",
			"outputs": [],
			"stateMutability": "nonpayable",
			"type": "function"
		},
		{
			"inputs": [
				{
					"internalType": "bool",
					"name": "baned",
					"type": "bool"
				}
			],
			"name": "setPrimeMinisterBaned",
			"outputs": [],
			"stateMutability": "nonpayable",
			"type": "function"
		},
		{
			"inputs": [
				{
					"internalType": "uint32",
					"name": "time",
					"type": "uint32"
				},
				{
					"internalType": "bytes32",
					"name": "varName",
					"type": "bytes32"
				}
			],
			"name": "setvoteTiming",
			"outputs": [],
			"stateMutability": "nonpayable",
			"type": "function"
		},
		{
			"inputs": [
				{
					"internalType": "uint256",
					"name": "proposalId",
					"type": "uint256"
				}
			],
			"name": "state",
			"outputs": [
				{
					"internalType": "enum TokenNamGovernor.ProposalState",
					"name": "",
					"type": "uint8"
				}
			],
			"stateMutability": "nonpayable",
			"type": "function"
		},
		{
			"inputs": [
				{
					"internalType": "address",
					"name": "pendingGCAdd",
					"type": "address"
				}
			],
			"name": "transferGovernanceContractAddress",
			"outputs": [],
			"stateMutability": "nonpayable",
			"type": "function"
		},
		{
			"inputs": [],
			"name": "transferPresident",
			"outputs": [],
			"stateMutability": "nonpayable",
			"type": "function"
		},
		{
			"inputs": [],
			"name": "transferPrimeMinister",
			"outputs": [],
			"stateMutability": "nonpayable",
			"type": "function"
		},
		{
			"inputs": [
				{
					"internalType": "address",
					"name": "RGAddress",
					"type": "address"
				}
			],
			"name": "transferRepublicGAddress",
			"outputs": [],
			"stateMutability": "nonpayable",
			"type": "function"
		},
		{
			"inputs": [],
			"name": "version",
			"outputs": [
				{
					"internalType": "string",
					"name": "",
					"type": "string"
				}
			],
			"stateMutability": "pure",
			"type": "function"
		}
	]
}