{
	"data": {
		"bytecode": {
			"linkReferences": {},
			"object": "6101a06040525f73ffffffffffffffffffffffffffffffffffffffff166101609073ffffffffffffffffffffffffffffffffffffffff1681525062015180600c5f6101000a81548163ffffffff021916908363ffffffff16021790555062015180600c60046101000a81548163ffffffff021916908363ffffffff16021790555062093a80600c60086101000a81548163ffffffff021916908363ffffffff160217905550348015620000b0575f80fd5b506040516200593d3803806200593d8339818101604052810190620000d6919062000546565b80620000e76200026060201b60201c565b620000fc5f836200029d60201b90919060201c565b61012081815250506200011a6001826200029d60201b90919060201c565b6101408181525050818051906020012060e08181525050808051906020012061010081815250504660a0818152505062000159620002f260201b60201c565b608081815250503073ffffffffffffffffffffffffffffffffffffffff1660c08173ffffffffffffffffffffffffffffffffffffffff168152505050506316925e8042620001a89190620005cb565b65ffffffffffff166101808165ffffffffffff16815250503360065f015f6101000a81548173ffffffffffffffffffffffffffffffffffffffff021916908373ffffffffffffffffffffffffffffffffffffffff16021790555060065f01601581819054906101000a900463ffffffff1680929190620002289062000614565b91906101000a81548163ffffffff021916908363ffffffff1602179055505080600b908162000258919062000872565b505062000b2f565b60606040518060400160405280600181526020017f3100000000000000000000000000000000000000000000000000000000000000815250905090565b5f602083511015620002c257620002ba836200034e60201b60201c565b9050620002ec565b82620002d483620003b860201b60201c565b5f019081620002e4919062000872565b5060ff5f1b90505b92915050565b5f7f8b73c3c69bb8fe3d512ecc4cf759cc79239f7b179b0ffacaa9a75d522b39400f60e05161010051463060405160200162000333959493929190620009c4565b60405160208183030381529060405280519060200120905090565b5f80829050601f815111156200039d57826040517f305a27a900000000000000000000000000000000000000000000000000000000815260040162000394919062000a6f565b60405180910390fd5b805181620003ab9062000ac0565b5f1c175f1b915050919050565b5f819050919050565b5f604051905090565b5f80fd5b5f80fd5b5f80fd5b5f80fd5b5f601f19601f8301169050919050565b7f4e487b71000000000000000000000000000000000000000000000000000000005f52604160045260245ffd5b6200042282620003da565b810181811067ffffffffffffffff82111715620004445762000443620003ea565b5b80604052505050565b5f62000458620003c1565b905062000466828262000417565b919050565b5f67ffffffffffffffff821115620004885762000487620003ea565b5b6200049382620003da565b9050602081019050919050565b5f5b83811015620004bf578082015181840152602081019050620004a2565b5f8484015250505050565b5f620004e0620004da846200046b565b6200044d565b905082815260208101848484011115620004ff57620004fe620003d6565b5b6200050c848285620004a0565b509392505050565b5f82601f8301126200052b576200052a620003d2565b5b81516200053d848260208601620004ca565b91505092915050565b5f602082840312156200055e576200055d620003ca565b5b5f82015167ffffffffffffffff8111156200057e576200057d620003ce565b5b6200058c8482850162000514565b91505092915050565b5f819050919050565b7f4e487b71000000000000000000000000000000000000000000000000000000005f52601160045260245ffd5b5f620005d78262000595565b9150620005e48362000595565b9250828201905080821115620005ff57620005fe6200059e565b5b92915050565b5f63ffffffff82169050919050565b5f620006208262000605565b915063ffffffff82036200063957620006386200059e565b5b600182019050919050565b5f81519050919050565b7f4e487b71000000000000000000000000000000000000000000000000000000005f52602260045260245ffd5b5f60028204905060018216806200069357607f821691505b602082108103620006a957620006a86200064e565b5b50919050565b5f819050815f5260205f209050919050565b5f6020601f8301049050919050565b5f82821b905092915050565b5f600883026200070d7fffffffffffffffffffffffffffffffffffffffffffffffffffffffffffffffff82620006d0565b620007198683620006d0565b95508019841693508086168417925050509392505050565b5f819050919050565b5f6200075a620007546200074e8462000595565b62000731565b62000595565b9050919050565b5f819050919050565b62000775836200073a565b6200078d620007848262000761565b848454620006dc565b825550505050565b5f90565b620007a362000795565b620007b08184846200076a565b505050565b5b81811015620007d757620007cb5f8262000799565b600181019050620007b6565b5050565b601f8211156200082657620007f081620006af565b620007fb84620006c1565b810160208510156200080b578190505b620008236200081a85620006c1565b830182620007b5565b50505b505050565b5f82821c905092915050565b5f620008485f19846008026200082b565b1980831691505092915050565b5f62000862838362000837565b9150826002028217905092915050565b6200087d8262000644565b67ffffffffffffffff811115620008995762000898620003ea565b5b620008a582546200067b565b620008b2828285620007db565b5f60209050601f831160018114620008e8575f8415620008d3578287015190505b620008df858262000855565b8655506200094e565b601f198416620008f886620006af565b5f5b828110156200092157848901518255600182019150602085019450602081019050620008fa565b868310156200094157848901516200093d601f89168262000837565b8355505b6001600288020188555050505b505050505050565b5f819050919050565b6200096a8162000956565b82525050565b6200097b8162000595565b82525050565b5f73ffffffffffffffffffffffffffffffffffffffff82169050919050565b5f620009ac8262000981565b9050919050565b620009be81620009a0565b82525050565b5f60a082019050620009d95f8301886200095f565b620009e860208301876200095f565b620009f760408301866200095f565b62000a06606083018562000970565b62000a156080830184620009b3565b9695505050505050565b5f82825260208201905092915050565b5f62000a3b8262000644565b62000a47818562000a1f565b935062000a59818560208601620004a0565b62000a6481620003da565b840191505092915050565b5f6020820190508181035f83015262000a89818462000a2f565b905092915050565b5f81519050919050565b5f819050602082019050919050565b5f62000ab7825162000956565b80915050919050565b5f62000acc8262000a91565b8262000ad88462000a9b565b905062000ae58162000aaa565b9250602082101562000b285762000b237fffffffffffffffffffffffffffffffffffffffffffffffffffffffffffffffff83602003600802620006d0565b831692505b5050919050565b60805160a05160c05160e0516101005161012051610140516101605161018051614d9462000ba95f395f818161062501528181610d28015281816113f901528181611cc30152818161226b0152612a9701525f6123cc01525f61331a01525f6132df01525f50505f50505f50505f50505f5050614d945ff3fe608060405234801561000f575f80fd5b5060043610610204575f3560e01c8063667d639b11610118578063c387b49c116100ab578063e35b31b71161007a578063e35b31b71461057e578063e47a9d46146105ae578063e4f3e947146105cc578063ee7126c3146105ea578063f5f9cdd41461060657610204565b8063c387b49c146104f6578063c5a1c5c114610514578063c8021c2e14610532578063ca4cce681461056257610204565b8063861a179d116100e7578063861a179d1461048457806388aa4c12146104a0578063a53da00b146104bc578063b5c09c68146104da57610204565b8063667d639b1461040a5780636cf106d71461042657806384b0196e14610444578063854884081461046857610204565b806337676f791161019b5780634bf5d7e91161016a5780634bf5d7e914610376578063544fa93e1461039457806354fd4d50146103b05780635dad85c2146103ce57806366410997146103ec57610204565b806337676f79146102f05780633a8512b41461030e5780633e4f49e61461032a5780634494acd91461035a57610204565b80631f86aa2a116101d75780631f86aa2a14610256578063289b3c0d1461027257806331d133c2146102905780633610feb3146102c057610204565b8063054203bd1461020857806306fdde03146102245780630df4c3901461024257806318074eee1461024c575b5f80fd5b610222600480360381019061021d9190613716565b610622565b005b61022c6107ed565b60405161023991906137cb565b60405180910390f35b61024a61087d565b005b610254610a3d565b005b610270600480360381019061026b9190613716565b610d25565b005b61027a611016565b60405161028791906137fa565b60405180910390f35b6102aa60048036038101906102a591906139a5565b611040565b6040516102b79190613a34565b60405180910390f35b6102da60048036038101906102d59190613716565b61107a565b6040516102e79190613a67565b60405180910390f35b6102f8611080565b60405161030591906137fa565b60405180910390f35b61032860048036038101906103239190613a80565b6110aa565b005b610344600480360381019061033f9190613abe565b611129565b6040516103519190613b5c565b60405180910390f35b610374600480360381019061036f9190613716565b6113f6565b005b61037e61163e565b60405161038b91906137cb565b60405180910390f35b6103ae60048036038101906103a99190613716565b61167b565b005b6103b8611787565b6040516103c591906137cb565b60405180910390f35b6103d66117c4565b6040516103e39190613a34565b60405180910390f35b6103f46117cb565b60405161040191906137fa565b60405180910390f35b610424600480360381019061041f9190613bae565b6117f5565b005b61042e6119b2565b60405161043b9190613a67565b60405180910390f35b61044c6119ca565b60405161045f9796959493929190613cec565b60405180910390f35b610482600480360381019061047d91906139a5565b611a6f565b005b61049e60048036038101906104999190613716565b611cc0565b005b6104ba60048036038101906104b591906139a5565b611f70565b005b6104c461223e565b6040516104d191906137fa565b60405180910390f35b6104f460048036038101906104ef9190613d98565b612268565b005b6104fe6123ae565b60405161050b9190613dd2565b60405180910390f35b61051c6123c9565b60405161052991906137fa565b60405180910390f35b61054c60048036038101906105479190613deb565b6123f0565b6040516105599190613a34565b60405180910390f35b61057c60048036038101906105779190613716565b612a94565b005b61059860048036038101906105939190613ea4565b612cac565b6040516105a59190613a67565b60405180910390f35b6105b6612cb4565b6040516105c391906137fa565b60405180910390f35b6105d4612cbb565b6040516105e19190613a67565b60405180910390f35b61060460048036038101906105ff9190613716565b612cd3565b005b610620600480360381019061061b9190613d98565b612f1c565b005b427f000000000000000000000000000000000000000000000000000000000000000065ffffffffffff1610156106cc5761065a6123c9565b73ffffffffffffffffffffffffffffffffffffffff163373ffffffffffffffffffffffffffffffffffffffff16146106c7576040517f08c379a00000000000000000000000000000000000000000000000000000000081526004016106be90613f3e565b60405180910390fd5b610753565b6106d46117cb565b73ffffffffffffffffffffffffffffffffffffffff163373ffffffffffffffffffffffffffffffffffffffff1614801561071357506107116119b2565b155b610752576040517f08c379a000000000000000000000000000000000000000000000000000000000815260040161074990613f3e565b60405180910390fd5b5b8060045f6101000a81548173ffffffffffffffffffffffffffffffffffffffff021916908373ffffffffffffffffffffffffffffffffffffffff16021790555061079d6001612fae565b6107a76001612fcd565b8073ffffffffffffffffffffffffffffffffffffffff167f3553f1f7ef0242113266a8d183b621bb87468c99237f36b1150b6ab3d688b68660405160405180910390a250565b6060600b80546107fc90613f89565b80601f016020809104026020016040519081016040528092919081815260200182805461082890613f89565b80156108735780601f1061084a57610100808354040283529160200191610873565b820191905f5260205f20905b81548152906001019060200180831161085657829003601f168201915b5050505050905090565b3373ffffffffffffffffffffffffffffffffffffffff1660045f9054906101000a900473ffffffffffffffffffffffffffffffffffffffff1673ffffffffffffffffffffffffffffffffffffffff1603610a095760045f6101000a81549073ffffffffffffffffffffffffffffffffffffffff02191690553360065f015f6101000a81548173ffffffffffffffffffffffffffffffffffffffff021916908373ffffffffffffffffffffffffffffffffffffffff16021790555060065f01601581819054906101000a900463ffffffff168092919061095b90613fe6565b91906101000a81548163ffffffff021916908363ffffffff160217905550506109835f612fae565b60065f0160159054906101000a900463ffffffff1663ffffffff1660065f015f9054906101000a900473ffffffffffffffffffffffffffffffffffffffff1673ffffffffffffffffffffffffffffffffffffffff167f05ad9b3688012cd825c1bfb941e4f5afb2558af6af3deaddf01dbb5e85abdaf960405160405180910390a3610a3b565b6040517f6c4360f000000000000000000000000000000000000000000000000000000000815260040160405180910390fd5b565b3373ffffffffffffffffffffffffffffffffffffffff1660055f9054906101000a900473ffffffffffffffffffffffffffffffffffffffff1673ffffffffffffffffffffffffffffffffffffffff1603610cf15760055f6101000a81549073ffffffffffffffffffffffffffffffffffffffff02191690555f73ffffffffffffffffffffffffffffffffffffffff1660085f015f9054906101000a900473ffffffffffffffffffffffffffffffffffffffff1673ffffffffffffffffffffffffffffffffffffffff1614610bc55760085f015f9054906101000a900473ffffffffffffffffffffffffffffffffffffffff1673ffffffffffffffffffffffffffffffffffffffff1663c92a788c600160075f015f9054906101000a900473ffffffffffffffffffffffffffffffffffffffff16336004620151806040518663ffffffff1660e01b8152600401610b979594939291906140c3565b5f604051808303815f87803b158015610bae575f80fd5b505af1158015610bc0573d5f803e3d5ffd5b505050505b3360075f015f6101000a81548173ffffffffffffffffffffffffffffffffffffffff021916908373ffffffffffffffffffffffffffffffffffffffff16021790555060075f01601581819054906101000a900463ffffffff1680929190610c2b90613fe6565b91906101000a81548163ffffffff021916908363ffffffff1602179055505060075f0160149054906101000a900460ff1615610c6b57610c6a5f612fcd565b5b60075f0160159054906101000a900463ffffffff1663ffffffff1660075f015f9054906101000a900473ffffffffffffffffffffffffffffffffffffffff1673ffffffffffffffffffffffffffffffffffffffff167f11e1b985c07e1bf3fec9bfd0bdb8c4a8e870ba2b26aa89fe50a6a19132ca10fd60405160405180910390a3610d23565b6040517f6c4360f000000000000000000000000000000000000000000000000000000000815260040160405180910390fd5b565b427f000000000000000000000000000000000000000000000000000000000000000065ffffffffffff161015610dcf57610d5d6123c9565b73ffffffffffffffffffffffffffffffffffffffff163373ffffffffffffffffffffffffffffffffffffffff1614610dca576040517f08c379a0000000000000000000000000000000000000000000000000000000008152600401610dc190613f3e565b60405180910390fd5b610e56565b610dd76117cb565b73ffffffffffffffffffffffffffffffffffffffff163373ffffffffffffffffffffffffffffffffffffffff16148015610e165750610e146119b2565b155b610e55576040517f08c379a0000000000000000000000000000000000000000000000000000000008152600401610e4c90613f3e565b60405180910390fd5b5b42600560149054906101000a900465ffffffffffff1665ffffffffffff161015610fb7575f600560149054906101000a900465ffffffffffff1665ffffffffffff1603610ed8576040517f08c379a0000000000000000000000000000000000000000000000000000000008152600401610ecf9061416a565b60405180910390fd5b8073ffffffffffffffffffffffffffffffffffffffff1660025f9054906101000a900473ffffffffffffffffffffffffffffffffffffffff1673ffffffffffffffffffffffffffffffffffffffff1603610f7557600560146101000a81549065ffffffffffff021916905560025f6101000a81549073ffffffffffffffffffffffffffffffffffffffff0219169055610f7081613078565b610fb2565b806040517fc6322315000000000000000000000000000000000000000000000000000000008152600401610fa991906137fa565b60405180910390fd5b611013565b42600560149054906101000a900465ffffffffffff16610fd79190614188565b6040517f223a6cbb00000000000000000000000000000000000000000000000000000000815260040161100a91906141d0565b60405180910390fd5b50565b5f60085f015f9054906101000a900473ffffffffffffffffffffffffffffffffffffffff16905090565b5f84848484604051602001611058949392919061423b565b604051602081830303815290604052805190602001205f1c9050949350505050565b5f919050565b5f60095f015f9054906101000a900473ffffffffffffffffffffffffffffffffffffffff16905090565b80600a5f8473ffffffffffffffffffffffffffffffffffffffff1673ffffffffffffffffffffffffffffffffffffffff1681526020019081526020015f205f6101000a81548173ffffffffffffffffffffffffffffffffffffffff021916908373ffffffffffffffffffffffffffffffffffffffff1602179055505050565b5f80600a5f3373ffffffffffffffffffffffffffffffffffffffff1673ffffffffffffffffffffffffffffffffffffffff1681526020019081526020015f205f9054906101000a900473ffffffffffffffffffffffffffffffffffffffff1690505f8173ffffffffffffffffffffffffffffffffffffffff1663013cf08b856040518263ffffffff1660e01b81526004016111c49190613a34565b61014060405180830381865afa1580156111e0573d5f803e3d5ffd5b505050506040513d601f19601f820116820180604052508101906112049190614419565b90508060c001511561121b576005925050506113f1565b8060e0015115611230576002925050506113f1565b80610120015115611246576003925050506113f1565b8061010001511561125c576004925050506113f1565b5f816080015165ffffffffffff1690505f81036112b057846040517f6ad060750000000000000000000000000000000000000000000000000000000081526004016112a79190613a34565b60405180910390fd5b5f4290508181116112c7575f9450505050506113f1565b5f836020015190505f8190505f8173ffffffffffffffffffffffffffffffffffffffff16635f8d96de6040518163ffffffff1660e01b8152600401602060405180830381865afa15801561131d573d5f803e3d5ffd5b505050506040513d601f19601f820116820180604052508101906113419190614459565b905080841161135a5760019750505050505050506113f1565b5f6113648761323a565b90505f81600581111561137a57611379613ae9565b5b90508873ffffffffffffffffffffffffffffffffffffffff16631e9608a8828d6040518363ffffffff1660e01b81526004016113b7929190614484565b5f604051808303815f87803b1580156113ce575f80fd5b505af11580156113e0573d5f803e3d5ffd5b505050508199505050505050505050505b919050565b427f000000000000000000000000000000000000000000000000000000000000000065ffffffffffff1610156114a05761142e6123c9565b73ffffffffffffffffffffffffffffffffffffffff163373ffffffffffffffffffffffffffffffffffffffff161461149b576040517f08c379a000000000000000000000000000000000000000000000000000000000815260040161149290613f3e565b60405180910390fd5b611527565b6114a86117cb565b73ffffffffffffffffffffffffffffffffffffffff163373ffffffffffffffffffffffffffffffffffffffff161480156114e757506114e56119b2565b155b611526576040517f08c379a000000000000000000000000000000000000000000000000000000000815260040161151d90613f3e565b60405180910390fd5b5b8073ffffffffffffffffffffffffffffffffffffffff1660025f9054906101000a900473ffffffffffffffffffffffffffffffffffffffff1673ffffffffffffffffffffffffffffffffffffffff16036115fe57600560146101000a81549065ffffffffffff021916905560025f6101000a81549073ffffffffffffffffffffffffffffffffffffffff02191690558073ffffffffffffffffffffffffffffffffffffffff167f62125dd3d531106ff055aac7090ccec5e1edec1d0db6b0f1355f2ca15475469560405160405180910390a261163b565b806040517fc632231500000000000000000000000000000000000000000000000000000000815260040161163291906137fa565b60405180910390fd5b50565b60606040518060400160405280600a81526020017f54696d65207374616d7000000000000000000000000000000000000000000000815250905090565b6116836117cb565b73ffffffffffffffffffffffffffffffffffffffff163373ffffffffffffffffffffffffffffffffffffffff161480156116c257506116c06119b2565b155b611701576040517f08c379a00000000000000000000000000000000000000000000000000000000081526004016116f890613f3e565b60405180910390fd5b8060055f6101000a81548173ffffffffffffffffffffffffffffffffffffffff021916908373ffffffffffffffffffffffffffffffffffffffff1602179055508073ffffffffffffffffffffffffffffffffffffffff167fff3cad3ee28c342ad5f3d7c8ff8559ee4d21eb48494092b82a1652e443b3420b60405160405180910390a250565b60606040518060400160405280600181526020017f3100000000000000000000000000000000000000000000000000000000000000815250905090565b5f42905090565b5f60065f015f9054906101000a900473ffffffffffffffffffffffffffffffffffffffff16905090565b5f8160405160200161180791906144cb565b6040516020818303038152906040528051906020012090505f8390508160405160200161183390614539565b60405160208183030381529060405280519060200120036118a65780600c5f6101000a81548163ffffffff021916908363ffffffff1602179055508063ffffffff167fceccf714bc39bde68a069ae4149980bd5382cb4e6723fbdb6e7723728e4885ce60405160405180910390a26119ac565b816040516020016118b690614597565b604051602081830303815290604052805190602001200361192a5780600c60046101000a81548163ffffffff021916908363ffffffff1602179055508063ffffffff167fdf149c5d5960b920ba24706165b5dcb67e2ac13ec5c3aa0909fa229bdd328d9760405160405180910390a26119ab565b8160405160200161193a906145f5565b60405160208183030381529060405280519060200120036119aa5780600c60086101000a81548163ffffffff021916908363ffffffff1602179055508063ffffffff167fc6213165f7e768a76a2092906d1174e3b00c99567acc7e4211898fae0ae2c33c60405160405180910390a25b5b5b50505050565b5f60065f0160149054906101000a900460ff16905090565b5f6060805f805f60606119db6132d7565b6119e3613311565b46305f801b5f67ffffffffffffffff811115611a0257611a0161384e565b5b604051908082528060200260200182016040528015611a305781602001602082028036833780820191505090505b507f0f00000000000000000000000000000000000000000000000000000000000000959493929190965096509650965096509650965090919293949596565b5f611a7c85858585611040565b90505f600a5f3373ffffffffffffffffffffffffffffffffffffffff1673ffffffffffffffffffffffffffffffffffffffff1681526020019081526020015f205f9054906101000a900473ffffffffffffffffffffffffffffffffffffffff1690505f73ffffffffffffffffffffffffffffffffffffffff168173ffffffffffffffffffffffffffffffffffffffff1614611c7b575f611b1b83611129565b9050600580811115611b3057611b2f613ae9565b5b816005811115611b4357611b42613ae9565b5b1480611b73575060026005811115611b5e57611b5d613ae9565b5b816005811115611b7157611b70613ae9565b5b145b15611bb557826040517fdf7fe1cd000000000000000000000000000000000000000000000000000000008152600401611bac9190613a34565b60405180910390fd5b5f8290505f8173ffffffffffffffffffffffffffffffffffffffff1663013cf08b866040518263ffffffff1660e01b8152600401611bf39190613a34565b61014060405180830381865afa158015611c0f573d5f803e3d5ffd5b505050506040513d601f19601f82011682018060405250810190611c339190614419565b905060018160e0019015159081151581525050847f789cf55be980739dad1d0699b93b58e806b51c9d96619bfa8fe0a28abaa7b30c60405160405180910390a2505050611cb8565b336040517fda75b54a000000000000000000000000000000000000000000000000000000008152600401611caf91906137fa565b60405180910390fd5b505050505050565b427f000000000000000000000000000000000000000000000000000000000000000065ffffffffffff161015611d6a57611cf86123c9565b73ffffffffffffffffffffffffffffffffffffffff163373ffffffffffffffffffffffffffffffffffffffff1614611d65576040517f08c379a0000000000000000000000000000000000000000000000000000000008152600401611d5c90613f3e565b60405180910390fd5b611df1565b611d726117cb565b73ffffffffffffffffffffffffffffffffffffffff163373ffffffffffffffffffffffffffffffffffffffff16148015611db15750611daf6119b2565b155b611df0576040517f08c379a0000000000000000000000000000000000000000000000000000000008152600401611de790613f3e565b60405180910390fd5b5b5f8173ffffffffffffffffffffffffffffffffffffffff163b1115611f30573373ffffffffffffffffffffffffffffffffffffffff1660065f015f9054906101000a900473ffffffffffffffffffffffffffffffffffffffff1673ffffffffffffffffffffffffffffffffffffffff1603611e7457611e6f81613078565b611f2b565b6213c68042611e839190614609565b600560146101000a81548165ffffffffffff021916908365ffffffffffff1602179055508060025f6101000a81548173ffffffffffffffffffffffffffffffffffffffff021916908373ffffffffffffffffffffffffffffffffffffffff1602179055508073ffffffffffffffffffffffffffffffffffffffff167f30b8fe69c9b4c23cc01223881227c0cc8cba5cc56d59263f51711df1a8f2c66760405160405180910390a25b611f6d565b806040517fc6322315000000000000000000000000000000000000000000000000000000008152600401611f6491906137fa565b60405180910390fd5b50565b3373ffffffffffffffffffffffffffffffffffffffff168473ffffffffffffffffffffffffffffffffffffffff16036121fb575f611fb085858585611040565b90505f611fbc82611129565b905060046005811115611fd257611fd1613ae9565b5b816005811115611fe557611fe4613ae9565b5b03612159575f600a5f3373ffffffffffffffffffffffffffffffffffffffff1673ffffffffffffffffffffffffffffffffffffffff1681526020019081526020015f205f9054906101000a900473ffffffffffffffffffffffffffffffffffffffff1690508073ffffffffffffffffffffffffffffffffffffffff16631e9608a86005856040518363ffffffff1660e01b8152600401612086929190614675565b5f604051808303815f87803b15801561209d575f80fd5b505af11580156120af573d5f803e3d5ffd5b5050505082600a5f3373ffffffffffffffffffffffffffffffffffffffff1673ffffffffffffffffffffffffffffffffffffffff1681526020019081526020015f205f9054906101000a900473ffffffffffffffffffffffffffffffffffffffff1673ffffffffffffffffffffffffffffffffffffffff167f63d1cc08aaae6e4c1e85034d4067073ea84d1113b6281a146a76156a7b3a9a3160405160405180910390a3506121f4565b600a5f3373ffffffffffffffffffffffffffffffffffffffff1673ffffffffffffffffffffffffffffffffffffffff1681526020019081526020015f205f9054906101000a900473ffffffffffffffffffffffffffffffffffffffff16826040517f5f1e5ab60000000000000000000000000000000000000000000000000000000081526004016121eb92919061469c565b60405180910390fd5b5050612238565b336040517fda75b54a00000000000000000000000000000000000000000000000000000000815260040161222f91906137fa565b60405180910390fd5b50505050565b5f60075f015f9054906101000a900473ffffffffffffffffffffffffffffffffffffffff16905090565b427f000000000000000000000000000000000000000000000000000000000000000065ffffffffffff161015612312576122a06123c9565b73ffffffffffffffffffffffffffffffffffffffff163373ffffffffffffffffffffffffffffffffffffffff161461230d576040517f08c379a000000000000000000000000000000000000000000000000000000000815260040161230490613f3e565b60405180910390fd5b612399565b61231a6117cb565b73ffffffffffffffffffffffffffffffffffffffff163373ffffffffffffffffffffffffffffffffffffffff1614801561235957506123576119b2565b155b612398576040517f08c379a000000000000000000000000000000000000000000000000000000000815260040161238f90613f3e565b60405180910390fd5b5b6123a281612fae565b6123ab81612fcd565b50565b5f60085f0160159054906101000a900463ffffffff16905090565b5f7f0000000000000000000000000000000000000000000000000000000000000000905090565b5f3373ffffffffffffffffffffffffffffffffffffffff168473ffffffffffffffffffffffffffffffffffffffff161461245f576040517f08c379a00000000000000000000000000000000000000000000000000000000081526004016124569061470d565b60405180910390fd5b5f600a5f8673ffffffffffffffffffffffffffffffffffffffff1673ffffffffffffffffffffffffffffffffffffffff1681526020019081526020015f205f9054906101000a900473ffffffffffffffffffffffffffffffffffffffff1690505f8390508073ffffffffffffffffffffffffffffffffffffffff1663ec5bf07b6040518163ffffffff1660e01b8152600401602060405180830381865afa15801561250c573d5f803e3d5ffd5b505050506040513d601f19601f820116820180604052508101906125309190614459565b92505f8273ffffffffffffffffffffffffffffffffffffffff1663013cf08b856040518263ffffffff1660e01b815260040161256c9190613a34565b61014060405180830381865afa158015612588573d5f803e3d5ffd5b505050506040513d601f19601f820116820180604052508101906125ac9190614419565b90505f816080015165ffffffffffff16146125fe57836040517f4ace25250000000000000000000000000000000000000000000000000000000081526004016125f59190613a34565b60405180910390fd5b5f8273ffffffffffffffffffffffffffffffffffffffff1663bc33c7d76040518163ffffffff1660e01b81526004015f60405180830381865afa158015612647573d5f803e3d5ffd5b505050506040513d5f823e3d601f19601f8201168201806040525081019061266f91906147dd565b93505050503073ffffffffffffffffffffffffffffffffffffffff168173ffffffffffffffffffffffffffffffffffffffff16146126e457806040517f4e5c69dd0000000000000000000000000000000000000000000000000000000081526004016126db91906137fa565b60405180910390fd5b5f805f8573ffffffffffffffffffffffffffffffffffffffff16634731ca2b6040518163ffffffff1660e01b8152600401606060405180830381865afa158015612730573d5f803e3d5ffd5b505050506040513d601f19601f820116820180604052508101906127549190614879565b9250925092508273ffffffffffffffffffffffffffffffffffffffff168b73ffffffffffffffffffffffffffffffffffffffff161415806127c157508173ffffffffffffffffffffffffffffffffffffffff168a73ffffffffffffffffffffffffffffffffffffffff1614155b806127cc5750808c14155b15612812578282826040517fcb57cbf9000000000000000000000000000000000000000000000000000000008152600401612809939291906148c9565b60405180910390fd5b5f805f808973ffffffffffffffffffffffffffffffffffffffff1663b3a052466040518163ffffffff1660e01b8152600401608060405180830381865afa15801561285f573d5f803e3d5ffd5b505050506040513d601f19601f8201168201806040525081019061288391906148fe565b93509350935093506128948461334c565b6128d557836040517f95ff727f0000000000000000000000000000000000000000000000000000000081526004016128cc9190614971565b60405180910390fd5b600c5f9054906101000a900463ffffffff1663ffffffff168363ffffffff16108061292a5750600c60089054906101000a900463ffffffff1663ffffffff164261291f9190614609565b8265ffffffffffff16105b806129545750600c60049054906101000a900463ffffffff1663ffffffff168165ffffffffffff16105b1561299a578282826040517f5b93d0dc0000000000000000000000000000000000000000000000000000000081526004016129919392919061498a565b60405180910390fd5b5f8d90508073ffffffffffffffffffffffffffffffffffffffff167f0ab14f904fb707b2337015c668e6429ca3170390b1c36260d7739566b9c822a560405160405180910390a28b73ffffffffffffffffffffffffffffffffffffffff16634a9c7caa8e878787878d886040518863ffffffff1660e01b8152600401612a2697969594939291906149bf565b5f604051808303815f87803b158015612a3d575f80fd5b505af1158015612a4f573d5f803e3d5ffd5b505050508c7fabf79943a752fab9ef8890892a82188e44e66a2cd2d8e411ae3ef82475ae49c860405160405180910390a2505050505050505050505050949350505050565b427f000000000000000000000000000000000000000000000000000000000000000065ffffffffffff161015612b3e57612acc6123c9565b73ffffffffffffffffffffffffffffffffffffffff163373ffffffffffffffffffffffffffffffffffffffff1614612b39576040517f08c379a0000000000000000000000000000000000000000000000000000000008152600401612b3090613f3e565b60405180910390fd5b612bc5565b612b466117cb565b73ffffffffffffffffffffffffffffffffffffffff163373ffffffffffffffffffffffffffffffffffffffff16148015612b855750612b836119b2565b155b612bc4576040517f08c379a0000000000000000000000000000000000000000000000000000000008152600401612bbb90613f3e565b60405180910390fd5b5b5f8173ffffffffffffffffffffffffffffffffffffffff163b1115612c6c578060035f6101000a81548173ffffffffffffffffffffffffffffffffffffffff021916908373ffffffffffffffffffffffffffffffffffffffff1602179055508073ffffffffffffffffffffffffffffffffffffffff167fe8d8e3c7c3ebec0c177d0fe22d223f8b5071db39155104808d45027e368ba77a60405160405180910390a2612ca9565b806040517f84dbc6cb000000000000000000000000000000000000000000000000000000008152600401612ca091906137fa565b60405180910390fd5b50565b5f9392505050565b5f30905090565b5f60075f0160149054906101000a900460ff16905090565b612cdb6117cb565b73ffffffffffffffffffffffffffffffffffffffff163373ffffffffffffffffffffffffffffffffffffffff16148015612d1a5750612d186119b2565b155b612d59576040517f08c379a0000000000000000000000000000000000000000000000000000000008152600401612d5090613f3e565b60405180910390fd5b8073ffffffffffffffffffffffffffffffffffffffff1660035f9054906101000a900473ffffffffffffffffffffffffffffffffffffffff1673ffffffffffffffffffffffffffffffffffffffff1603612edc5760035f6101000a81549073ffffffffffffffffffffffffffffffffffffffff02191690558060085f015f6101000a81548173ffffffffffffffffffffffffffffffffffffffff021916908373ffffffffffffffffffffffffffffffffffffffff16021790555060085f01601581819054906101000a900463ffffffff1680929190612e3790613fe6565b91906101000a81548163ffffffff021916908363ffffffff1602179055505060085f0160159054906101000a900463ffffffff1663ffffffff1660085f015f9054906101000a900473ffffffffffffffffffffffffffffffffffffffff1673ffffffffffffffffffffffffffffffffffffffff167f5e86008a8467d1efccfe6cb6bd49ba7278d6af2745a1e6994e443322a423709360405160405180910390a3612f19565b806040517f84dbc6cb000000000000000000000000000000000000000000000000000000008152600401612f1091906137fa565b60405180910390fd5b50565b612f246117cb565b73ffffffffffffffffffffffffffffffffffffffff163373ffffffffffffffffffffffffffffffffffffffff16148015612f635750612f616119b2565b155b612fa2576040517f08c379a0000000000000000000000000000000000000000000000000000000008152600401612f9990613f3e565b60405180910390fd5b612fab81612fcd565b50565b8060065f0160146101000a81548160ff02191690831515021790555050565b8060075f0160146101000a81548160ff02191690831515021790555060085f015f9054906101000a900473ffffffffffffffffffffffffffffffffffffffff1673ffffffffffffffffffffffffffffffffffffffff1663863ad5958260046040518363ffffffff1660e01b8152600401613048929190614a2c565b5f604051808303815f87803b15801561305f575f80fd5b505af1158015613071573d5f803e3d5ffd5b5050505050565b60085f015f9054906101000a900473ffffffffffffffffffffffffffffffffffffffff1673ffffffffffffffffffffffffffffffffffffffff1663c92a788c600160095f015f9054906101000a900473ffffffffffffffffffffffffffffffffffffffff16846002620151806040518663ffffffff1660e01b8152600401613104959493929190614a98565b5f604051808303815f87803b15801561311b575f80fd5b505af115801561312d573d5f803e3d5ffd5b505050508060095f015f6101000a81548173ffffffffffffffffffffffffffffffffffffffff021916908373ffffffffffffffffffffffffffffffffffffffff16021790555060095f01601581819054906101000a900463ffffffff168092919061319790613fe6565b91906101000a81548163ffffffff021916908363ffffffff1602179055505060095f0160159054906101000a900463ffffffff1663ffffffff1660095f015f9054906101000a900473ffffffffffffffffffffffffffffffffffffffff1673ffffffffffffffffffffffffffffffffffffffff167fb88ef4c2b55163ed88bcf28dadfee0092169b7a9a712ceb09ff75e6d2d4ba63b60405160405180910390a350565b5f80826020015190505f8190505f8173ffffffffffffffffffffffffffffffffffffffff1663cfb62dee6040518163ffffffff1660e01b81526004016020604051808303815f875af1158015613292573d5f803e3d5ffd5b505050506040513d601f19601f820116820180604052508101906132b69190614af5565b905080156132ca57600493505050506132d2565b600393505050505b919050565b606061330c5f7f000000000000000000000000000000000000000000000000000000000000000061353e90919063ffffffff16565b905090565b606061334760017f000000000000000000000000000000000000000000000000000000000000000061353e90919063ffffffff16565b905090565b5f80600a5f3373ffffffffffffffffffffffffffffffffffffffff1673ffffffffffffffffffffffffffffffffffffffff1681526020019081526020015f205f9054906101000a900473ffffffffffffffffffffffffffffffffffffffff1690505f8173ffffffffffffffffffffffffffffffffffffffff1663c34fe7036040518163ffffffff1660e01b81526004016133e590614b46565b61962060405180830381865afa158015613401573d5f803e3d5ffd5b505050506040513d601f19601f820116820180604052508101906134259190614c10565b90505f4290505f624f1a008261343b9190614c3c565b90505f80600190505b6104b08161ffff16116134d1575f858261ffff166104b1811061346a57613469614c6f565b5b602002015165ffffffffffff1603156134d157848161ffff166104b1811061349557613494614c6f565b5b602002015165ffffffffffff168365ffffffffffff1610156134be57816134bb90614c9c565b91505b80806134c990614c9c565b915050613444565b6002816134de9190614cf2565b61ffff168861ffff1611156134fc5760019650505050505050613539565b60466064838a61350c9190614cf2565b6135169190614d22565b61ffff16111561352f5760019650505050505050613539565b5f96505050505050505b919050565b606060ff5f1b831461355a57613553836135eb565b90506135e5565b81805461356690613f89565b80601f016020809104026020016040519081016040528092919081815260200182805461359290613f89565b80156135dd5780601f106135b4576101008083540402835291602001916135dd565b820191905f5260205f20905b8154815290600101906020018083116135c057829003601f168201915b505050505090505b92915050565b60605f6135f78361365d565b90505f602067ffffffffffffffff8111156136155761361461384e565b5b6040519080825280601f01601f1916602001820160405280156136475781602001600182028036833780820191505090505b5090508181528360208201528092505050919050565b5f8060ff835f1c169050601f8111156136a2576040517fb3512b0c00000000000000000000000000000000000000000000000000000000815260040160405180910390fd5b80915050919050565b5f604051905090565b5f80fd5b5f80fd5b5f73ffffffffffffffffffffffffffffffffffffffff82169050919050565b5f6136e5826136bc565b9050919050565b6136f5816136db565b81146136ff575f80fd5b50565b5f81359050613710816136ec565b92915050565b5f6020828403121561372b5761372a6136b4565b5b5f61373884828501613702565b91505092915050565b5f81519050919050565b5f82825260208201905092915050565b5f5b8381101561377857808201518184015260208101905061375d565b5f8484015250505050565b5f601f19601f8301169050919050565b5f61379d82613741565b6137a7818561374b565b93506137b781856020860161375b565b6137c081613783565b840191505092915050565b5f6020820190508181035f8301526137e38184613793565b905092915050565b6137f4816136db565b82525050565b5f60208201905061380d5f8301846137eb565b92915050565b5f819050919050565b61382581613813565b811461382f575f80fd5b50565b5f813590506138408161381c565b92915050565b5f80fd5b5f80fd5b7f4e487b71000000000000000000000000000000000000000000000000000000005f52604160045260245ffd5b61388482613783565b810181811067ffffffffffffffff821117156138a3576138a261384e565b5b80604052505050565b5f6138b56136ab565b90506138c1828261387b565b919050565b5f67ffffffffffffffff8211156138e0576138df61384e565b5b6138e982613783565b9050602081019050919050565b828183375f83830152505050565b5f613916613911846138c6565b6138ac565b9050828152602081018484840111156139325761393161384a565b5b61393d8482856138f6565b509392505050565b5f82601f83011261395957613958613846565b5b8135613969848260208601613904565b91505092915050565b5f819050919050565b61398481613972565b811461398e575f80fd5b50565b5f8135905061399f8161397b565b92915050565b5f805f80608085870312156139bd576139bc6136b4565b5b5f6139ca87828801613702565b94505060206139db87828801613832565b935050604085013567ffffffffffffffff8111156139fc576139fb6136b8565b5b613a0887828801613945565b9250506060613a1987828801613991565b91505092959194509250565b613a2e81613813565b82525050565b5f602082019050613a475f830184613a25565b92915050565b5f8115159050919050565b613a6181613a4d565b82525050565b5f602082019050613a7a5f830184613a58565b92915050565b5f8060408385031215613a9657613a956136b4565b5b5f613aa385828601613702565b9250506020613ab485828601613702565b9150509250929050565b5f60208284031215613ad357613ad26136b4565b5b5f613ae084828501613832565b91505092915050565b7f4e487b71000000000000000000000000000000000000000000000000000000005f52602160045260245ffd5b60068110613b2757613b26613ae9565b5b50565b5f819050613b3782613b16565b919050565b5f613b4682613b2a565b9050919050565b613b5681613b3c565b82525050565b5f602082019050613b6f5f830184613b4d565b92915050565b5f63ffffffff82169050919050565b613b8d81613b75565b8114613b97575f80fd5b50565b5f81359050613ba881613b84565b92915050565b5f8060408385031215613bc457613bc36136b4565b5b5f613bd185828601613b9a565b9250506020613be285828601613991565b9150509250929050565b5f7fff0000000000000000000000000000000000000000000000000000000000000082169050919050565b613c2081613bec565b82525050565b613c2f81613972565b82525050565b5f81519050919050565b5f82825260208201905092915050565b5f819050602082019050919050565b613c6781613813565b82525050565b5f613c788383613c5e565b60208301905092915050565b5f602082019050919050565b5f613c9a82613c35565b613ca48185613c3f565b9350613caf83613c4f565b805f5b83811015613cdf578151613cc68882613c6d565b9750613cd183613c84565b925050600181019050613cb2565b5085935050505092915050565b5f60e082019050613cff5f83018a613c17565b8181036020830152613d118189613793565b90508181036040830152613d258188613793565b9050613d346060830187613a25565b613d4160808301866137eb565b613d4e60a0830185613c26565b81810360c0830152613d608184613c90565b905098975050505050505050565b613d7781613a4d565b8114613d81575f80fd5b50565b5f81359050613d9281613d6e565b92915050565b5f60208284031215613dad57613dac6136b4565b5b5f613dba84828501613d84565b91505092915050565b613dcc81613b75565b82525050565b5f602082019050613de55f830184613dc3565b92915050565b5f805f8060808587031215613e0357613e026136b4565b5b5f613e1087828801613832565b9450506020613e2187828801613702565b9350506040613e3287828801613702565b9250506060613e4387828801613702565b91505092959194509250565b5f7fffffffff0000000000000000000000000000000000000000000000000000000082169050919050565b613e8381613e4f565b8114613e8d575f80fd5b50565b5f81359050613e9e81613e7a565b92915050565b5f805f60608486031215613ebb57613eba6136b4565b5b5f613ec886828701613702565b9350506020613ed986828701613702565b9250506040613eea86828701613e90565b9150509250925092565b7f416363657373206973206e6f742076616c6964000000000000000000000000005f82015250565b5f613f2860138361374b565b9150613f3382613ef4565b602082019050919050565b5f6020820190508181035f830152613f5581613f1c565b9050919050565b7f4e487b71000000000000000000000000000000000000000000000000000000005f52602260045260245ffd5b5f6002820490506001821680613fa057607f821691505b602082108103613fb357613fb2613f5c565b5b50919050565b7f4e487b71000000000000000000000000000000000000000000000000000000005f52601160045260245ffd5b5f613ff082613b75565b915063ffffffff820361400657614005613fb9565b5b600182019050919050565b7f416c6c0000000000000000000000000000000000000000000000000000000000815250565b5f819050919050565b5f819050919050565b5f61406361405e61405984614037565b614040565b613b75565b9050919050565b61407381614049565b82525050565b5f819050919050565b5f65ffffffffffff82169050919050565b5f6140ad6140a86140a384614079565b614040565b614082565b9050919050565b6140bd81614093565b82525050565b5f60c0820190506140d65f830188613a58565b6140e360208301876137eb565b6140f060408301866137eb565b6140fc60608301614011565b614109608083018561406a565b61411660a08301846140b4565b9695505050505050565b7f546865207265717565737420697320696e76616c6964000000000000000000005f82015250565b5f61415460168361374b565b915061415f82614120565b602082019050919050565b5f6020820190508181035f83015261418181614148565b9050919050565b5f61419282614082565b915061419d83614082565b9250828203905065ffffffffffff8111156141bb576141ba613fb9565b5b92915050565b6141ca81614082565b82525050565b5f6020820190506141e35f8301846141c1565b92915050565b5f81519050919050565b5f82825260208201905092915050565b5f61420d826141e9565b61421781856141f3565b935061422781856020860161375b565b61423081613783565b840191505092915050565b5f60808201905061424e5f8301876137eb565b61425b6020830186613a25565b818103604083015261426d8185614203565b905061427c6060830184613c26565b95945050505050565b5f80fd5b5f81519050614297816136ec565b92915050565b5f61ffff82169050919050565b6142b38161429d565b81146142bd575f80fd5b50565b5f815190506142ce816142aa565b92915050565b5f815190506142e281613b84565b92915050565b6142f181614082565b81146142fb575f80fd5b50565b5f8151905061430c816142e8565b92915050565b5f8151905061432081613d6e565b92915050565b5f610140828403121561433c5761433b614285565b5b6143476101406138ac565b90505f61435684828501614289565b5f83015250602061436984828501614289565b602083015250604061437d848285016142c0565b6040830152506060614391848285016142d4565b60608301525060806143a5848285016142fe565b60808301525060a06143b9848285016142fe565b60a08301525060c06143cd84828501614312565b60c08301525060e06143e184828501614312565b60e0830152506101006143f684828501614312565b6101008301525061012061440c84828501614312565b6101208301525092915050565b5f610140828403121561442f5761442e6136b4565b5b5f61443c84828501614326565b91505092915050565b5f815190506144538161381c565b92915050565b5f6020828403121561446e5761446d6136b4565b5b5f61447b84828501614445565b91505092915050565b5f6040820190506144975f830185613a25565b6144a46020830184613a25565b9392505050565b5f819050919050565b6144c56144c082613972565b6144ab565b82525050565b5f6144d682846144b4565b60208201915081905092915050565b5f81905092915050565b7f5f766f74654475726174696f6e000000000000000000000000000000000000005f82015250565b5f614523600d836144e5565b915061452e826144ef565b600d82019050919050565b5f61454382614517565b9150819050919050565b7f5f6574615365636f6e64730000000000000000000000000000000000000000005f82015250565b5f614581600b836144e5565b915061458c8261454d565b600b82019050919050565b5f6145a182614575565b9150819050919050565b7f5f766f746564656c6179000000000000000000000000000000000000000000005f82015250565b5f6145df600a836144e5565b91506145ea826145ab565b600a82019050919050565b5f6145ff826145d3565b9150819050919050565b5f61461382613813565b915061461e83613813565b925082820190508082111561463657614635613fb9565b5b92915050565b5f819050919050565b5f61465f61465a6146558461463c565b614040565b613813565b9050919050565b61466f81614645565b82525050565b5f6040820190506146885f830185614666565b6146956020830184613a25565b9392505050565b5f6040820190506146af5f8301856137eb565b6146bc6020830184613a25565b9392505050565b7f696e76616c6964206163636573730000000000000000000000000000000000005f82015250565b5f6146f7600e8361374b565b9150614702826146c3565b602082019050919050565b5f6020820190508181035f830152614724816146eb565b9050919050565b5f67ffffffffffffffff8211156147455761474461384e565b5b61474e82613783565b9050602081019050919050565b5f61476d6147688461472b565b6138ac565b9050828152602081018484840111156147895761478861384a565b5b61479484828561375b565b509392505050565b5f82601f8301126147b0576147af613846565b5b81516147c084826020860161475b565b91505092915050565b5f815190506147d78161397b565b92915050565b5f805f80608085870312156147f5576147f46136b4565b5b5f85015167ffffffffffffffff811115614812576148116136b8565b5b61481e8782880161479c565b945050602085015167ffffffffffffffff81111561483f5761483e6136b8565b5b61484b8782880161479c565b935050604061485c878288016147c9565b925050606061486d87828801614289565b91505092959194509250565b5f805f606084860312156148905761488f6136b4565b5b5f61489d86828701614289565b93505060206148ae86828701614289565b92505060406148bf86828701614445565b9150509250925092565b5f6060820190506148dc5f8301866137eb565b6148e960208301856137eb565b6148f66040830184613a25565b949350505050565b5f805f8060808587031215614916576149156136b4565b5b5f614923878288016142c0565b9450506020614934878288016142d4565b9350506040614945878288016142fe565b9250506060614956878288016142fe565b91505092959194509250565b61496b8161429d565b82525050565b5f6020820190506149845f830184614962565b92915050565b5f60608201905061499d5f830186613dc3565b6149aa60208301856141c1565b6149b760408301846141c1565b949350505050565b5f60e0820190506149d25f83018a613a25565b6149df6020830189614962565b6149ec6040830188613dc3565b6149f960608301876141c1565b614a0660808301866141c1565b614a1360a08301856137eb565b614a2060c08301846137eb565b98975050505050505050565b5f606082019050614a3f5f830185613a58565b614a4c602083018461406a565b614a5860408301614011565b9392505050565b5f819050919050565b5f614a82614a7d614a7884614a5f565b614040565b613b75565b9050919050565b614a9281614a68565b82525050565b5f60c082019050614aab5f830188613a58565b614ab860208301876137eb565b614ac560408301866137eb565b614ad160608301614011565b614ade6080830185614a89565b614aeb60a08301846140b4565b9695505050505050565b5f60208284031215614b0a57614b096136b4565b5b5f614b1784828501614312565b91505092915050565b7f666f72416e790000000000000000000000000000000000000000000000000000815250565b5f602082019050614b585f8301614b20565b919050565b5f67ffffffffffffffff821115614b7757614b7661384e565b5b602082029050919050565b5f80fd5b5f614b98614b9384614b5d565b6138ac565b90508060208402830185811115614bb257614bb1614b82565b5b835b81811015614bdb5780614bc788826142fe565b845260208401935050602081019050614bb4565b5050509392505050565b5f82601f830112614bf957614bf8613846565b5b6104b1614c07848285614b86565b91505092915050565b5f6196208284031215614c2657614c256136b4565b5b5f614c3384828501614be5565b91505092915050565b5f614c4682613813565b9150614c5183613813565b9250828203905081811115614c6957614c68613fb9565b5b92915050565b7f4e487b71000000000000000000000000000000000000000000000000000000005f52603260045260245ffd5b5f614ca68261429d565b915061ffff8203614cba57614cb9613fb9565b5b600182019050919050565b7f4e487b71000000000000000000000000000000000000000000000000000000005f52601260045260245ffd5b5f614cfc8261429d565b9150614d078361429d565b925082614d1757614d16614cc5565b5b828204905092915050565b5f614d2c8261429d565b9150614d378361429d565b9250828202614d458161429d565b9150808214614d5757614d56613fb9565b5b509291505056fea2646970667358221220d7741e5b95a8cf545d25fd9736d6c9fee3e2152458e25d015f003c3c0cbb436564736f6c63430008140033",
			"opcodes": "PUSH2 0x1A0 PUSH1 0x40 MSTORE PUSH0 PUSH20 0xFFFFFFFFFFFFFFFFFFFFFFFFFFFFFFFFFFFFFFFF AND PUSH2 0x160 SWAP1 PUSH20 0xFFFFFFFFFFFFFFFFFFFFFFFFFFFFFFFFFFFFFFFF AND DUP2 MSTORE POP PUSH3 0x15180 PUSH1 0xC PUSH0 PUSH2 0x100 EXP DUP2 SLOAD DUP2 PUSH4 0xFFFFFFFF MUL NOT AND SWAP1 DUP4 PUSH4 0xFFFFFFFF AND MUL OR SWAP1 SSTORE POP PUSH3 0x15180 PUSH1 0xC PUSH1 0x4 PUSH2 0x100 EXP DUP2 SLOAD DUP2 PUSH4 0xFFFFFFFF MUL NOT AND SWAP1 DUP4 PUSH4 0xFFFFFFFF AND MUL OR SWAP1 SSTORE POP PUSH3 0x93A80 PUSH1 0xC PUSH1 0x8 PUSH2 0x100 EXP DUP2 SLOAD DUP2 PUSH4 0xFFFFFFFF MUL NOT AND SWAP1 DUP4 PUSH4 0xFFFFFFFF AND MUL OR SWAP1 SSTORE POP CALLVALUE DUP1 ISZERO PUSH3 0xB0 JUMPI PUSH0 DUP1 REVERT JUMPDEST POP PUSH1 0x40 MLOAD PUSH3 0x593D CODESIZE SUB DUP1 PUSH3 0x593D DUP4 CODECOPY DUP2 DUP2 ADD PUSH1 0x40 MSTORE DUP2 ADD SWAP1 PUSH3 0xD6 SWAP2 SWAP1 PUSH3 0x546 JUMP JUMPDEST DUP1 PUSH3 0xE7 PUSH3 0x260 PUSH1 0x20 SHL PUSH1 0x20 SHR JUMP JUMPDEST PUSH3 0xFC PUSH0 DUP4 PUSH3 0x29D PUSH1 0x20 SHL SWAP1 SWAP2 SWAP1 PUSH1 0x20 SHR JUMP JUMPDEST PUSH2 0x120 DUP2 DUP2 MSTORE POP POP PUSH3 0x11A PUSH1 0x1 DUP3 PUSH3 0x29D PUSH1 0x20 SHL SWAP1 SWAP2 SWAP1 PUSH1 0x20 SHR JUMP JUMPDEST PUSH2 0x140 DUP2 DUP2 MSTORE POP POP DUP2 DUP1 MLOAD SWAP1 PUSH1 0x20 ADD KECCAK256 PUSH1 0xE0 DUP2 DUP2 MSTORE POP POP DUP1 DUP1 MLOAD SWAP1 PUSH1 0x20 ADD KECCAK256 PUSH2 0x100 DUP2 DUP2 MSTORE POP POP CHAINID PUSH1 0xA0 DUP2 DUP2 MSTORE POP POP PUSH3 0x159 PUSH3 0x2F2 PUSH1 0x20 SHL PUSH1 0x20 SHR JUMP JUMPDEST PUSH1 0x80 DUP2 DUP2 MSTORE POP POP ADDRESS PUSH20 0xFFFFFFFFFFFFFFFFFFFFFFFFFFFFFFFFFFFFFFFF AND PUSH1 0xC0 DUP2 PUSH20 0xFFFFFFFFFFFFFFFFFFFFFFFFFFFFFFFFFFFFFFFF AND DUP2 MSTORE POP POP POP POP PUSH4 0x16925E80 TIMESTAMP PUSH3 0x1A8 SWAP2 SWAP1 PUSH3 0x5CB JUMP JUMPDEST PUSH6 0xFFFFFFFFFFFF AND PUSH2 0x180 DUP2 PUSH6 0xFFFFFFFFFFFF AND DUP2 MSTORE POP POP CALLER PUSH1 0x6 PUSH0 ADD PUSH0 PUSH2 0x100 EXP DUP2 SLOAD DUP2 PUSH20 0xFFFFFFFFFFFFFFFFFFFFFFFFFFFFFFFFFFFFFFFF MUL NOT AND SWAP1 DUP4 PUSH20 0xFFFFFFFFFFFFFFFFFFFFFFFFFFFFFFFFFFFFFFFF AND MUL OR SWAP1 SSTORE POP PUSH1 0x6 PUSH0 ADD PUSH1 0x15 DUP2 DUP2 SWAP1 SLOAD SWAP1 PUSH2 0x100 EXP SWAP1 DIV PUSH4 0xFFFFFFFF AND DUP1 SWAP3 SWAP2 SWAP1 PUSH3 0x228 SWAP1 PUSH3 0x614 JUMP JUMPDEST SWAP2 SWAP1 PUSH2 0x100 EXP DUP2 SLOAD DUP2 PUSH4 0xFFFFFFFF MUL NOT AND SWAP1 DUP4 PUSH4 0xFFFFFFFF AND MUL OR SWAP1 SSTORE POP POP DUP1 PUSH1 0xB SWAP1 DUP2 PUSH3 0x258 SWAP2 SWAP1 PUSH3 0x872 JUMP JUMPDEST POP POP PUSH3 0xB2F JUMP JUMPDEST PUSH1 0x60 PUSH1 0x40 MLOAD DUP1 PUSH1 0x40 ADD PUSH1 0x40 MSTORE DUP1 PUSH1 0x1 DUP2 MSTORE PUSH1 0x20 ADD PUSH32 0x3100000000000000000000000000000000000000000000000000000000000000 DUP2 MSTORE POP SWAP1 POP SWAP1 JUMP JUMPDEST PUSH0 PUSH1 0x20 DUP4 MLOAD LT ISZERO PUSH3 0x2C2 JUMPI PUSH3 0x2BA DUP4 PUSH3 0x34E PUSH1 0x20 SHL PUSH1 0x20 SHR JUMP JUMPDEST SWAP1 POP PUSH3 0x2EC JUMP JUMPDEST DUP3 PUSH3 0x2D4 DUP4 PUSH3 0x3B8 PUSH1 0x20 SHL PUSH1 0x20 SHR JUMP JUMPDEST PUSH0 ADD SWAP1 DUP2 PUSH3 0x2E4 SWAP2 SWAP1 PUSH3 0x872 JUMP JUMPDEST POP PUSH1 0xFF PUSH0 SHL SWAP1 POP JUMPDEST SWAP3 SWAP2 POP POP JUMP JUMPDEST PUSH0 PUSH32 0x8B73C3C69BB8FE3D512ECC4CF759CC79239F7B179B0FFACAA9A75D522B39400F PUSH1 0xE0 MLOAD PUSH2 0x100 MLOAD CHAINID ADDRESS PUSH1 0x40 MLOAD PUSH1 0x20 ADD PUSH3 0x333 SWAP6 SWAP5 SWAP4 SWAP3 SWAP2 SWAP1 PUSH3 0x9C4 JUMP JUMPDEST PUSH1 0x40 MLOAD PUSH1 0x20 DUP2 DUP4 SUB SUB DUP2 MSTORE SWAP1 PUSH1 0x40 MSTORE DUP1 MLOAD SWAP1 PUSH1 0x20 ADD KECCAK256 SWAP1 POP SWAP1 JUMP JUMPDEST PUSH0 DUP1 DUP3 SWAP1 POP PUSH1 0x1F DUP2 MLOAD GT ISZERO PUSH3 0x39D JUMPI DUP3 PUSH1 0x40 MLOAD PUSH32 0x305A27A900000000000000000000000000000000000000000000000000000000 DUP2 MSTORE PUSH1 0x4 ADD PUSH3 0x394 SWAP2 SWAP1 PUSH3 0xA6F JUMP JUMPDEST PUSH1 0x40 MLOAD DUP1 SWAP2 SUB SWAP1 REVERT JUMPDEST DUP1 MLOAD DUP2 PUSH3 0x3AB SWAP1 PUSH3 0xAC0 JUMP JUMPDEST PUSH0 SHR OR PUSH0 SHL SWAP2 POP POP SWAP2 SWAP1 POP JUMP JUMPDEST PUSH0 DUP2 SWAP1 POP SWAP2 SWAP1 POP JUMP JUMPDEST PUSH0 PUSH1 0x40 MLOAD SWAP1 POP SWAP1 JUMP JUMPDEST PUSH0 DUP1 REVERT JUMPDEST PUSH0 DUP1 REVERT JUMPDEST PUSH0 DUP1 REVERT JUMPDEST PUSH0 DUP1 REVERT JUMPDEST PUSH0 PUSH1 0x1F NOT PUSH1 0x1F DUP4 ADD AND SWAP1 POP SWAP2 SWAP1 POP JUMP JUMPDEST PUSH32 0x4E487B7100000000000000000000000000000000000000000000000000000000 PUSH0 MSTORE PUSH1 0x41 PUSH1 0x4 MSTORE PUSH1 0x24 PUSH0 REVERT JUMPDEST PUSH3 0x422 DUP3 PUSH3 0x3DA JUMP JUMPDEST DUP2 ADD DUP2 DUP2 LT PUSH8 0xFFFFFFFFFFFFFFFF DUP3 GT OR ISZERO PUSH3 0x444 JUMPI PUSH3 0x443 PUSH3 0x3EA JUMP JUMPDEST JUMPDEST DUP1 PUSH1 0x40 MSTORE POP POP POP JUMP JUMPDEST PUSH0 PUSH3 0x458 PUSH3 0x3C1 JUMP JUMPDEST SWAP1 POP PUSH3 0x466 DUP3 DUP3 PUSH3 0x417 JUMP JUMPDEST SWAP2 SWAP1 POP JUMP JUMPDEST PUSH0 PUSH8 0xFFFFFFFFFFFFFFFF DUP3 GT ISZERO PUSH3 0x488 JUMPI PUSH3 0x487 PUSH3 0x3EA JUMP JUMPDEST JUMPDEST PUSH3 0x493 DUP3 PUSH3 0x3DA JUMP JUMPDEST SWAP1 POP PUSH1 0x20 DUP2 ADD SWAP1 POP SWAP2 SWAP1 POP JUMP JUMPDEST PUSH0 JUMPDEST DUP4 DUP2 LT ISZERO PUSH3 0x4BF JUMPI DUP1 DUP3 ADD MLOAD DUP2 DUP5 ADD MSTORE PUSH1 0x20 DUP2 ADD SWAP1 POP PUSH3 0x4A2 JUMP JUMPDEST PUSH0 DUP5 DUP5 ADD MSTORE POP POP POP POP JUMP JUMPDEST PUSH0 PUSH3 0x4E0 PUSH3 0x4DA DUP5 PUSH3 0x46B JUMP JUMPDEST PUSH3 0x44D JUMP JUMPDEST SWAP1 POP DUP3 DUP2 MSTORE PUSH1 0x20 DUP2 ADD DUP5 DUP5 DUP5 ADD GT ISZERO PUSH3 0x4FF JUMPI PUSH3 0x4FE PUSH3 0x3D6 JUMP JUMPDEST JUMPDEST PUSH3 0x50C DUP5 DUP3 DUP6 PUSH3 0x4A0 JUMP JUMPDEST POP SWAP4 SWAP3 POP POP POP JUMP JUMPDEST PUSH0 DUP3 PUSH1 0x1F DUP4 ADD SLT PUSH3 0x52B JUMPI PUSH3 0x52A PUSH3 0x3D2 JUMP JUMPDEST JUMPDEST DUP2 MLOAD PUSH3 0x53D DUP5 DUP3 PUSH1 0x20 DUP7 ADD PUSH3 0x4CA JUMP JUMPDEST SWAP2 POP POP SWAP3 SWAP2 POP POP JUMP JUMPDEST PUSH0 PUSH1 0x20 DUP3 DUP5 SUB SLT ISZERO PUSH3 0x55E JUMPI PUSH3 0x55D PUSH3 0x3CA JUMP JUMPDEST JUMPDEST PUSH0 DUP3 ADD MLOAD PUSH8 0xFFFFFFFFFFFFFFFF DUP2 GT ISZERO PUSH3 0x57E JUMPI PUSH3 0x57D PUSH3 0x3CE JUMP JUMPDEST JUMPDEST PUSH3 0x58C DUP5 DUP3 DUP6 ADD PUSH3 0x514 JUMP JUMPDEST SWAP2 POP POP SWAP3 SWAP2 POP POP JUMP JUMPDEST PUSH0 DUP2 SWAP1 POP SWAP2 SWAP1 POP JUMP JUMPDEST PUSH32 0x4E487B7100000000000000000000000000000000000000000000000000000000 PUSH0 MSTORE PUSH1 0x11 PUSH1 0x4 MSTORE PUSH1 0x24 PUSH0 REVERT JUMPDEST PUSH0 PUSH3 0x5D7 DUP3 PUSH3 0x595 JUMP JUMPDEST SWAP2 POP PUSH3 0x5E4 DUP4 PUSH3 0x595 JUMP JUMPDEST SWAP3 POP DUP3 DUP3 ADD SWAP1 POP DUP1 DUP3 GT ISZERO PUSH3 0x5FF JUMPI PUSH3 0x5FE PUSH3 0x59E JUMP JUMPDEST JUMPDEST SWAP3 SWAP2 POP POP JUMP JUMPDEST PUSH0 PUSH4 0xFFFFFFFF DUP3 AND SWAP1 POP SWAP2 SWAP1 POP JUMP JUMPDEST PUSH0 PUSH3 0x620 DUP3 PUSH3 0x605 JUMP JUMPDEST SWAP2 POP PUSH4 0xFFFFFFFF DUP3 SUB PUSH3 0x639 JUMPI PUSH3 0x638 PUSH3 0x59E JUMP JUMPDEST JUMPDEST PUSH1 0x1 DUP3 ADD SWAP1 POP SWAP2 SWAP1 POP JUMP JUMPDEST PUSH0 DUP2 MLOAD SWAP1 POP SWAP2 SWAP1 POP JUMP JUMPDEST PUSH32 0x4E487B7100000000000000000000000000000000000000000000000000000000 PUSH0 MSTORE PUSH1 0x22 PUSH1 0x4 MSTORE PUSH1 0x24 PUSH0 REVERT JUMPDEST PUSH0 PUSH1 0x2 DUP3 DIV SWAP1 POP PUSH1 0x1 DUP3 AND DUP1 PUSH3 0x693 JUMPI PUSH1 0x7F DUP3 AND SWAP2 POP JUMPDEST PUSH1 0x20 DUP3 LT DUP2 SUB PUSH3 0x6A9 JUMPI PUSH3 0x6A8 PUSH3 0x64E JUMP JUMPDEST JUMPDEST POP SWAP2 SWAP1 POP JUMP JUMPDEST PUSH0 DUP2 SWAP1 POP DUP2 PUSH0 MSTORE PUSH1 0x20 PUSH0 KECCAK256 SWAP1 POP SWAP2 SWAP1 POP JUMP JUMPDEST PUSH0 PUSH1 0x20 PUSH1 0x1F DUP4 ADD DIV SWAP1 POP SWAP2 SWAP1 POP JUMP JUMPDEST PUSH0 DUP3 DUP3 SHL SWAP1 POP SWAP3 SWAP2 POP POP JUMP JUMPDEST PUSH0 PUSH1 0x8 DUP4 MUL PUSH3 0x70D PUSH32 0xFFFFFFFFFFFFFFFFFFFFFFFFFFFFFFFFFFFFFFFFFFFFFFFFFFFFFFFFFFFFFFFF DUP3 PUSH3 0x6D0 JUMP JUMPDEST PUSH3 0x719 DUP7 DUP4 PUSH3 0x6D0 JUMP JUMPDEST SWAP6 POP DUP1 NOT DUP5 AND SWAP4 POP DUP1 DUP7 AND DUP5 OR SWAP3 POP POP POP SWAP4 SWAP3 POP POP POP JUMP JUMPDEST PUSH0 DUP2 SWAP1 POP SWAP2 SWAP1 POP JUMP JUMPDEST PUSH0 PUSH3 0x75A PUSH3 0x754 PUSH3 0x74E DUP5 PUSH3 0x595 JUMP JUMPDEST PUSH3 0x731 JUMP JUMPDEST PUSH3 0x595 JUMP JUMPDEST SWAP1 POP SWAP2 SWAP1 POP JUMP JUMPDEST PUSH0 DUP2 SWAP1 POP SWAP2 SWAP1 POP JUMP JUMPDEST PUSH3 0x775 DUP4 PUSH3 0x73A JUMP JUMPDEST PUSH3 0x78D PUSH3 0x784 DUP3 PUSH3 0x761 JUMP JUMPDEST DUP5 DUP5 SLOAD PUSH3 0x6DC JUMP JUMPDEST DUP3 SSTORE POP POP POP POP JUMP JUMPDEST PUSH0 SWAP1 JUMP JUMPDEST PUSH3 0x7A3 PUSH3 0x795 JUMP JUMPDEST PUSH3 0x7B0 DUP2 DUP5 DUP5 PUSH3 0x76A JUMP JUMPDEST POP POP POP JUMP JUMPDEST JUMPDEST DUP2 DUP2 LT ISZERO PUSH3 0x7D7 JUMPI PUSH3 0x7CB PUSH0 DUP3 PUSH3 0x799 JUMP JUMPDEST PUSH1 0x1 DUP2 ADD SWAP1 POP PUSH3 0x7B6 JUMP JUMPDEST POP POP JUMP JUMPDEST PUSH1 0x1F DUP3 GT ISZERO PUSH3 0x826 JUMPI PUSH3 0x7F0 DUP2 PUSH3 0x6AF JUMP JUMPDEST PUSH3 0x7FB DUP5 PUSH3 0x6C1 JUMP JUMPDEST DUP2 ADD PUSH1 0x20 DUP6 LT ISZERO PUSH3 0x80B JUMPI DUP2 SWAP1 POP JUMPDEST PUSH3 0x823 PUSH3 0x81A DUP6 PUSH3 0x6C1 JUMP JUMPDEST DUP4 ADD DUP3 PUSH3 0x7B5 JUMP JUMPDEST POP POP JUMPDEST POP POP POP JUMP JUMPDEST PUSH0 DUP3 DUP3 SHR SWAP1 POP SWAP3 SWAP2 POP POP JUMP JUMPDEST PUSH0 PUSH3 0x848 PUSH0 NOT DUP5 PUSH1 0x8 MUL PUSH3 0x82B JUMP JUMPDEST NOT DUP1 DUP4 AND SWAP2 POP POP SWAP3 SWAP2 POP POP JUMP JUMPDEST PUSH0 PUSH3 0x862 DUP4 DUP4 PUSH3 0x837 JUMP JUMPDEST SWAP2 POP DUP3 PUSH1 0x2 MUL DUP3 OR SWAP1 POP SWAP3 SWAP2 POP POP JUMP JUMPDEST PUSH3 0x87D DUP3 PUSH3 0x644 JUMP JUMPDEST PUSH8 0xFFFFFFFFFFFFFFFF DUP2 GT ISZERO PUSH3 0x899 JUMPI PUSH3 0x898 PUSH3 0x3EA JUMP JUMPDEST JUMPDEST PUSH3 0x8A5 DUP3 SLOAD PUSH3 0x67B JUMP JUMPDEST PUSH3 0x8B2 DUP3 DUP3 DUP6 PUSH3 0x7DB JUMP JUMPDEST PUSH0 PUSH1 0x20 SWAP1 POP PUSH1 0x1F DUP4 GT PUSH1 0x1 DUP2 EQ PUSH3 0x8E8 JUMPI PUSH0 DUP5 ISZERO PUSH3 0x8D3 JUMPI DUP3 DUP8 ADD MLOAD SWAP1 POP JUMPDEST PUSH3 0x8DF DUP6 DUP3 PUSH3 0x855 JUMP JUMPDEST DUP7 SSTORE POP PUSH3 0x94E JUMP JUMPDEST PUSH1 0x1F NOT DUP5 AND PUSH3 0x8F8 DUP7 PUSH3 0x6AF JUMP JUMPDEST PUSH0 JUMPDEST DUP3 DUP2 LT ISZERO PUSH3 0x921 JUMPI DUP5 DUP10 ADD MLOAD DUP3 SSTORE PUSH1 0x1 DUP3 ADD SWAP2 POP PUSH1 0x20 DUP6 ADD SWAP5 POP PUSH1 0x20 DUP2 ADD SWAP1 POP PUSH3 0x8FA JUMP JUMPDEST DUP7 DUP4 LT ISZERO PUSH3 0x941 JUMPI DUP5 DUP10 ADD MLOAD PUSH3 0x93D PUSH1 0x1F DUP10 AND DUP3 PUSH3 0x837 JUMP JUMPDEST DUP4 SSTORE POP JUMPDEST PUSH1 0x1 PUSH1 0x2 DUP9 MUL ADD DUP9 SSTORE POP POP POP JUMPDEST POP POP POP POP POP POP JUMP JUMPDEST PUSH0 DUP2 SWAP1 POP SWAP2 SWAP1 POP JUMP JUMPDEST PUSH3 0x96A DUP2 PUSH3 0x956 JUMP JUMPDEST DUP3 MSTORE POP POP JUMP JUMPDEST PUSH3 0x97B DUP2 PUSH3 0x595 JUMP JUMPDEST DUP3 MSTORE POP POP JUMP JUMPDEST PUSH0 PUSH20 0xFFFFFFFFFFFFFFFFFFFFFFFFFFFFFFFFFFFFFFFF DUP3 AND SWAP1 POP SWAP2 SWAP1 POP JUMP JUMPDEST PUSH0 PUSH3 0x9AC DUP3 PUSH3 0x981 JUMP JUMPDEST SWAP1 POP SWAP2 SWAP1 POP JUMP JUMPDEST PUSH3 0x9BE DUP2 PUSH3 0x9A0 JUMP JUMPDEST DUP3 MSTORE POP POP JUMP JUMPDEST PUSH0 PUSH1 0xA0 DUP3 ADD SWAP1 POP PUSH3 0x9D9 PUSH0 DUP4 ADD DUP9 PUSH3 0x95F JUMP JUMPDEST PUSH3 0x9E8 PUSH1 0x20 DUP4 ADD DUP8 PUSH3 0x95F JUMP JUMPDEST PUSH3 0x9F7 PUSH1 0x40 DUP4 ADD DUP7 PUSH3 0x95F JUMP JUMPDEST PUSH3 0xA06 PUSH1 0x60 DUP4 ADD DUP6 PUSH3 0x970 JUMP JUMPDEST PUSH3 0xA15 PUSH1 0x80 DUP4 ADD DUP5 PUSH3 0x9B3 JUMP JUMPDEST SWAP7 SWAP6 POP POP POP POP POP POP JUMP JUMPDEST PUSH0 DUP3 DUP3 MSTORE PUSH1 0x20 DUP3 ADD SWAP1 POP SWAP3 SWAP2 POP POP JUMP JUMPDEST PUSH0 PUSH3 0xA3B DUP3 PUSH3 0x644 JUMP JUMPDEST PUSH3 0xA47 DUP2 DUP6 PUSH3 0xA1F JUMP JUMPDEST SWAP4 POP PUSH3 0xA59 DUP2 DUP6 PUSH1 0x20 DUP7 ADD PUSH3 0x4A0 JUMP JUMPDEST PUSH3 0xA64 DUP2 PUSH3 0x3DA JUMP JUMPDEST DUP5 ADD SWAP2 POP POP SWAP3 SWAP2 POP POP JUMP JUMPDEST PUSH0 PUSH1 0x20 DUP3 ADD SWAP1 POP DUP2 DUP2 SUB PUSH0 DUP4 ADD MSTORE PUSH3 0xA89 DUP2 DUP5 PUSH3 0xA2F JUMP JUMPDEST SWAP1 POP SWAP3 SWAP2 POP POP JUMP JUMPDEST PUSH0 DUP2 MLOAD SWAP1 POP SWAP2 SWAP1 POP JUMP JUMPDEST PUSH0 DUP2 SWAP1 POP PUSH1 0x20 DUP3 ADD SWAP1 POP SWAP2 SWAP1 POP JUMP JUMPDEST PUSH0 PUSH3 0xAB7 DUP3 MLOAD PUSH3 0x956 JUMP JUMPDEST DUP1 SWAP2 POP POP SWAP2 SWAP1 POP JUMP JUMPDEST PUSH0 PUSH3 0xACC DUP3 PUSH3 0xA91 JUMP JUMPDEST DUP3 PUSH3 0xAD8 DUP5 PUSH3 0xA9B JUMP JUMPDEST SWAP1 POP PUSH3 0xAE5 DUP2 PUSH3 0xAAA JUMP JUMPDEST SWAP3 POP PUSH1 0x20 DUP3 LT ISZERO PUSH3 0xB28 JUMPI PUSH3 0xB23 PUSH32 0xFFFFFFFFFFFFFFFFFFFFFFFFFFFFFFFFFFFFFFFFFFFFFFFFFFFFFFFFFFFFFFFF DUP4 PUSH1 0x20 SUB PUSH1 0x8 MUL PUSH3 0x6D0 JUMP JUMPDEST DUP4 AND SWAP3 POP JUMPDEST POP POP SWAP2 SWAP1 POP JUMP JUMPDEST PUSH1 0x80 MLOAD PUSH1 0xA0 MLOAD PUSH1 0xC0 MLOAD PUSH1 0xE0 MLOAD PUSH2 0x100 MLOAD PUSH2 0x120 MLOAD PUSH2 0x140 MLOAD PUSH2 0x160 MLOAD PUSH2 0x180 MLOAD PUSH2 0x4D94 PUSH3 0xBA9 PUSH0 CODECOPY PUSH0 DUP2 DUP2 PUSH2 0x625 ADD MSTORE DUP2 DUP2 PUSH2 0xD28 ADD MSTORE DUP2 DUP2 PUSH2 0x13F9 ADD MSTORE DUP2 DUP2 PUSH2 0x1CC3 ADD MSTORE DUP2 DUP2 PUSH2 0x226B ADD MSTORE PUSH2 0x2A97 ADD MSTORE PUSH0 PUSH2 0x23CC ADD MSTORE PUSH0 PUSH2 0x331A ADD MSTORE PUSH0 PUSH2 0x32DF ADD MSTORE PUSH0 POP POP PUSH0 POP POP PUSH0 POP POP PUSH0 POP POP PUSH0 POP POP PUSH2 0x4D94 PUSH0 RETURN INVALID PUSH1 0x80 PUSH1 0x40 MSTORE CALLVALUE DUP1 ISZERO PUSH2 0xF JUMPI PUSH0 DUP1 REVERT JUMPDEST POP PUSH1 0x4 CALLDATASIZE LT PUSH2 0x204 JUMPI PUSH0 CALLDATALOAD PUSH1 0xE0 SHR DUP1 PUSH4 0x667D639B GT PUSH2 0x118 JUMPI DUP1 PUSH4 0xC387B49C GT PUSH2 0xAB JUMPI DUP1 PUSH4 0xE35B31B7 GT PUSH2 0x7A JUMPI DUP1 PUSH4 0xE35B31B7 EQ PUSH2 0x57E JUMPI DUP1 PUSH4 0xE47A9D46 EQ PUSH2 0x5AE JUMPI DUP1 PUSH4 0xE4F3E947 EQ PUSH2 0x5CC JUMPI DUP1 PUSH4 0xEE7126C3 EQ PUSH2 0x5EA JUMPI DUP1 PUSH4 0xF5F9CDD4 EQ PUSH2 0x606 JUMPI PUSH2 0x204 JUMP JUMPDEST DUP1 PUSH4 0xC387B49C EQ PUSH2 0x4F6 JUMPI DUP1 PUSH4 0xC5A1C5C1 EQ PUSH2 0x514 JUMPI DUP1 PUSH4 0xC8021C2E EQ PUSH2 0x532 JUMPI DUP1 PUSH4 0xCA4CCE68 EQ PUSH2 0x562 JUMPI PUSH2 0x204 JUMP JUMPDEST DUP1 PUSH4 0x861A179D GT PUSH2 0xE7 JUMPI DUP1 PUSH4 0x861A179D EQ PUSH2 0x484 JUMPI DUP1 PUSH4 0x88AA4C12 EQ PUSH2 0x4A0 JUMPI DUP1 PUSH4 0xA53DA00B EQ PUSH2 0x4BC JUMPI DUP1 PUSH4 0xB5C09C68 EQ PUSH2 0x4DA JUMPI PUSH2 0x204 JUMP JUMPDEST DUP1 PUSH4 0x667D639B EQ PUSH2 0x40A JUMPI DUP1 PUSH4 0x6CF106D7 EQ PUSH2 0x426 JUMPI DUP1 PUSH4 0x84B0196E EQ PUSH2 0x444 JUMPI DUP1 PUSH4 0x85488408 EQ PUSH2 0x468 JUMPI PUSH2 0x204 JUMP JUMPDEST DUP1 PUSH4 0x37676F79 GT PUSH2 0x19B JUMPI DUP1 PUSH4 0x4BF5D7E9 GT PUSH2 0x16A JUMPI DUP1 PUSH4 0x4BF5D7E9 EQ PUSH2 0x376 JUMPI DUP1 PUSH4 0x544FA93E EQ PUSH2 0x394 JUMPI DUP1 PUSH4 0x54FD4D50 EQ PUSH2 0x3B0 JUMPI DUP1 PUSH4 0x5DAD85C2 EQ PUSH2 0x3CE JUMPI DUP1 PUSH4 0x66410997 EQ PUSH2 0x3EC JUMPI PUSH2 0x204 JUMP JUMPDEST DUP1 PUSH4 0x37676F79 EQ PUSH2 0x2F0 JUMPI DUP1 PUSH4 0x3A8512B4 EQ PUSH2 0x30E JUMPI DUP1 PUSH4 0x3E4F49E6 EQ PUSH2 0x32A JUMPI DUP1 PUSH4 0x4494ACD9 EQ PUSH2 0x35A JUMPI PUSH2 0x204 JUMP JUMPDEST DUP1 PUSH4 0x1F86AA2A GT PUSH2 0x1D7 JUMPI DUP1 PUSH4 0x1F86AA2A EQ PUSH2 0x256 JUMPI DUP1 PUSH4 0x289B3C0D EQ PUSH2 0x272 JUMPI DUP1 PUSH4 0x31D133C2 EQ PUSH2 0x290 JUMPI DUP1 PUSH4 0x3610FEB3 EQ PUSH2 0x2C0 JUMPI PUSH2 0x204 JUMP JUMPDEST DUP1 PUSH4 0x54203BD EQ PUSH2 0x208 JUMPI DUP1 PUSH4 0x6FDDE03 EQ PUSH2 0x224 JUMPI DUP1 PUSH4 0xDF4C390 EQ PUSH2 0x242 JUMPI DUP1 PUSH4 0x18074EEE EQ PUSH2 0x24C JUMPI JUMPDEST PUSH0 DUP1 REVERT JUMPDEST PUSH2 0x222 PUSH1 0x4 DUP1 CALLDATASIZE SUB DUP2 ADD SWAP1 PUSH2 0x21D SWAP2 SWAP1 PUSH2 0x3716 JUMP JUMPDEST PUSH2 0x622 JUMP JUMPDEST STOP JUMPDEST PUSH2 0x22C PUSH2 0x7ED JUMP JUMPDEST PUSH1 0x40 MLOAD PUSH2 0x239 SWAP2 SWAP1 PUSH2 0x37CB JUMP JUMPDEST PUSH1 0x40 MLOAD DUP1 SWAP2 SUB SWAP1 RETURN JUMPDEST PUSH2 0x24A PUSH2 0x87D JUMP JUMPDEST STOP JUMPDEST PUSH2 0x254 PUSH2 0xA3D JUMP JUMPDEST STOP JUMPDEST PUSH2 0x270 PUSH1 0x4 DUP1 CALLDATASIZE SUB DUP2 ADD SWAP1 PUSH2 0x26B SWAP2 SWAP1 PUSH2 0x3716 JUMP JUMPDEST PUSH2 0xD25 JUMP JUMPDEST STOP JUMPDEST PUSH2 0x27A PUSH2 0x1016 JUMP JUMPDEST PUSH1 0x40 MLOAD PUSH2 0x287 SWAP2 SWAP1 PUSH2 0x37FA JUMP JUMPDEST PUSH1 0x40 MLOAD DUP1 SWAP2 SUB SWAP1 RETURN JUMPDEST PUSH2 0x2AA PUSH1 0x4 DUP1 CALLDATASIZE SUB DUP2 ADD SWAP1 PUSH2 0x2A5 SWAP2 SWAP1 PUSH2 0x39A5 JUMP JUMPDEST PUSH2 0x1040 JUMP JUMPDEST PUSH1 0x40 MLOAD PUSH2 0x2B7 SWAP2 SWAP1 PUSH2 0x3A34 JUMP JUMPDEST PUSH1 0x40 MLOAD DUP1 SWAP2 SUB SWAP1 RETURN JUMPDEST PUSH2 0x2DA PUSH1 0x4 DUP1 CALLDATASIZE SUB DUP2 ADD SWAP1 PUSH2 0x2D5 SWAP2 SWAP1 PUSH2 0x3716 JUMP JUMPDEST PUSH2 0x107A JUMP JUMPDEST PUSH1 0x40 MLOAD PUSH2 0x2E7 SWAP2 SWAP1 PUSH2 0x3A67 JUMP JUMPDEST PUSH1 0x40 MLOAD DUP1 SWAP2 SUB SWAP1 RETURN JUMPDEST PUSH2 0x2F8 PUSH2 0x1080 JUMP JUMPDEST PUSH1 0x40 MLOAD PUSH2 0x305 SWAP2 SWAP1 PUSH2 0x37FA JUMP JUMPDEST PUSH1 0x40 MLOAD DUP1 SWAP2 SUB SWAP1 RETURN JUMPDEST PUSH2 0x328 PUSH1 0x4 DUP1 CALLDATASIZE SUB DUP2 ADD SWAP1 PUSH2 0x323 SWAP2 SWAP1 PUSH2 0x3A80 JUMP JUMPDEST PUSH2 0x10AA JUMP JUMPDEST STOP JUMPDEST PUSH2 0x344 PUSH1 0x4 DUP1 CALLDATASIZE SUB DUP2 ADD SWAP1 PUSH2 0x33F SWAP2 SWAP1 PUSH2 0x3ABE JUMP JUMPDEST PUSH2 0x1129 JUMP JUMPDEST PUSH1 0x40 MLOAD PUSH2 0x351 SWAP2 SWAP1 PUSH2 0x3B5C JUMP JUMPDEST PUSH1 0x40 MLOAD DUP1 SWAP2 SUB SWAP1 RETURN JUMPDEST PUSH2 0x374 PUSH1 0x4 DUP1 CALLDATASIZE SUB DUP2 ADD SWAP1 PUSH2 0x36F SWAP2 SWAP1 PUSH2 0x3716 JUMP JUMPDEST PUSH2 0x13F6 JUMP JUMPDEST STOP JUMPDEST PUSH2 0x37E PUSH2 0x163E JUMP JUMPDEST PUSH1 0x40 MLOAD PUSH2 0x38B SWAP2 SWAP1 PUSH2 0x37CB JUMP JUMPDEST PUSH1 0x40 MLOAD DUP1 SWAP2 SUB SWAP1 RETURN JUMPDEST PUSH2 0x3AE PUSH1 0x4 DUP1 CALLDATASIZE SUB DUP2 ADD SWAP1 PUSH2 0x3A9 SWAP2 SWAP1 PUSH2 0x3716 JUMP JUMPDEST PUSH2 0x167B JUMP JUMPDEST STOP JUMPDEST PUSH2 0x3B8 PUSH2 0x1787 JUMP JUMPDEST PUSH1 0x40 MLOAD PUSH2 0x3C5 SWAP2 SWAP1 PUSH2 0x37CB JUMP JUMPDEST PUSH1 0x40 MLOAD DUP1 SWAP2 SUB SWAP1 RETURN JUMPDEST PUSH2 0x3D6 PUSH2 0x17C4 JUMP JUMPDEST PUSH1 0x40 MLOAD PUSH2 0x3E3 SWAP2 SWAP1 PUSH2 0x3A34 JUMP JUMPDEST PUSH1 0x40 MLOAD DUP1 SWAP2 SUB SWAP1 RETURN JUMPDEST PUSH2 0x3F4 PUSH2 0x17CB JUMP JUMPDEST PUSH1 0x40 MLOAD PUSH2 0x401 SWAP2 SWAP1 PUSH2 0x37FA JUMP JUMPDEST PUSH1 0x40 MLOAD DUP1 SWAP2 SUB SWAP1 RETURN JUMPDEST PUSH2 0x424 PUSH1 0x4 DUP1 CALLDATASIZE SUB DUP2 ADD SWAP1 PUSH2 0x41F SWAP2 SWAP1 PUSH2 0x3BAE JUMP JUMPDEST PUSH2 0x17F5 JUMP JUMPDEST STOP JUMPDEST PUSH2 0x42E PUSH2 0x19B2 JUMP JUMPDEST PUSH1 0x40 MLOAD PUSH2 0x43B SWAP2 SWAP1 PUSH2 0x3A67 JUMP JUMPDEST PUSH1 0x40 MLOAD DUP1 SWAP2 SUB SWAP1 RETURN JUMPDEST PUSH2 0x44C PUSH2 0x19CA JUMP JUMPDEST PUSH1 0x40 MLOAD PUSH2 0x45F SWAP8 SWAP7 SWAP6 SWAP5 SWAP4 SWAP3 SWAP2 SWAP1 PUSH2 0x3CEC JUMP JUMPDEST PUSH1 0x40 MLOAD DUP1 SWAP2 SUB SWAP1 RETURN JUMPDEST PUSH2 0x482 PUSH1 0x4 DUP1 CALLDATASIZE SUB DUP2 ADD SWAP1 PUSH2 0x47D SWAP2 SWAP1 PUSH2 0x39A5 JUMP JUMPDEST PUSH2 0x1A6F JUMP JUMPDEST STOP JUMPDEST PUSH2 0x49E PUSH1 0x4 DUP1 CALLDATASIZE SUB DUP2 ADD SWAP1 PUSH2 0x499 SWAP2 SWAP1 PUSH2 0x3716 JUMP JUMPDEST PUSH2 0x1CC0 JUMP JUMPDEST STOP JUMPDEST PUSH2 0x4BA PUSH1 0x4 DUP1 CALLDATASIZE SUB DUP2 ADD SWAP1 PUSH2 0x4B5 SWAP2 SWAP1 PUSH2 0x39A5 JUMP JUMPDEST PUSH2 0x1F70 JUMP JUMPDEST STOP JUMPDEST PUSH2 0x4C4 PUSH2 0x223E JUMP JUMPDEST PUSH1 0x40 MLOAD PUSH2 0x4D1 SWAP2 SWAP1 PUSH2 0x37FA JUMP JUMPDEST PUSH1 0x40 MLOAD DUP1 SWAP2 SUB SWAP1 RETURN JUMPDEST PUSH2 0x4F4 PUSH1 0x4 DUP1 CALLDATASIZE SUB DUP2 ADD SWAP1 PUSH2 0x4EF SWAP2 SWAP1 PUSH2 0x3D98 JUMP JUMPDEST PUSH2 0x2268 JUMP JUMPDEST STOP JUMPDEST PUSH2 0x4FE PUSH2 0x23AE JUMP JUMPDEST PUSH1 0x40 MLOAD PUSH2 0x50B SWAP2 SWAP1 PUSH2 0x3DD2 JUMP JUMPDEST PUSH1 0x40 MLOAD DUP1 SWAP2 SUB SWAP1 RETURN JUMPDEST PUSH2 0x51C PUSH2 0x23C9 JUMP JUMPDEST PUSH1 0x40 MLOAD PUSH2 0x529 SWAP2 SWAP1 PUSH2 0x37FA JUMP JUMPDEST PUSH1 0x40 MLOAD DUP1 SWAP2 SUB SWAP1 RETURN JUMPDEST PUSH2 0x54C PUSH1 0x4 DUP1 CALLDATASIZE SUB DUP2 ADD SWAP1 PUSH2 0x547 SWAP2 SWAP1 PUSH2 0x3DEB JUMP JUMPDEST PUSH2 0x23F0 JUMP JUMPDEST PUSH1 0x40 MLOAD PUSH2 0x559 SWAP2 SWAP1 PUSH2 0x3A34 JUMP JUMPDEST PUSH1 0x40 MLOAD DUP1 SWAP2 SUB SWAP1 RETURN JUMPDEST PUSH2 0x57C PUSH1 0x4 DUP1 CALLDATASIZE SUB DUP2 ADD SWAP1 PUSH2 0x577 SWAP2 SWAP1 PUSH2 0x3716 JUMP JUMPDEST PUSH2 0x2A94 JUMP JUMPDEST STOP JUMPDEST PUSH2 0x598 PUSH1 0x4 DUP1 CALLDATASIZE SUB DUP2 ADD SWAP1 PUSH2 0x593 SWAP2 SWAP1 PUSH2 0x3EA4 JUMP JUMPDEST PUSH2 0x2CAC JUMP JUMPDEST PUSH1 0x40 MLOAD PUSH2 0x5A5 SWAP2 SWAP1 PUSH2 0x3A67 JUMP JUMPDEST PUSH1 0x40 MLOAD DUP1 SWAP2 SUB SWAP1 RETURN JUMPDEST PUSH2 0x5B6 PUSH2 0x2CB4 JUMP JUMPDEST PUSH1 0x40 MLOAD PUSH2 0x5C3 SWAP2 SWAP1 PUSH2 0x37FA JUMP JUMPDEST PUSH1 0x40 MLOAD DUP1 SWAP2 SUB SWAP1 RETURN JUMPDEST PUSH2 0x5D4 PUSH2 0x2CBB JUMP JUMPDEST PUSH1 0x40 MLOAD PUSH2 0x5E1 SWAP2 SWAP1 PUSH2 0x3A67 JUMP JUMPDEST PUSH1 0x40 MLOAD DUP1 SWAP2 SUB SWAP1 RETURN JUMPDEST PUSH2 0x604 PUSH1 0x4 DUP1 CALLDATASIZE SUB DUP2 ADD SWAP1 PUSH2 0x5FF SWAP2 SWAP1 PUSH2 0x3716 JUMP JUMPDEST PUSH2 0x2CD3 JUMP JUMPDEST STOP JUMPDEST PUSH2 0x620 PUSH1 0x4 DUP1 CALLDATASIZE SUB DUP2 ADD SWAP1 PUSH2 0x61B SWAP2 SWAP1 PUSH2 0x3D98 JUMP JUMPDEST PUSH2 0x2F1C JUMP JUMPDEST STOP JUMPDEST TIMESTAMP PUSH32 0x0 PUSH6 0xFFFFFFFFFFFF AND LT ISZERO PUSH2 0x6CC JUMPI PUSH2 0x65A PUSH2 0x23C9 JUMP JUMPDEST PUSH20 0xFFFFFFFFFFFFFFFFFFFFFFFFFFFFFFFFFFFFFFFF AND CALLER PUSH20 0xFFFFFFFFFFFFFFFFFFFFFFFFFFFFFFFFFFFFFFFF AND EQ PUSH2 0x6C7 JUMPI PUSH1 0x40 MLOAD PUSH32 0x8C379A000000000000000000000000000000000000000000000000000000000 DUP2 MSTORE PUSH1 0x4 ADD PUSH2 0x6BE SWAP1 PUSH2 0x3F3E JUMP JUMPDEST PUSH1 0x40 MLOAD DUP1 SWAP2 SUB SWAP1 REVERT JUMPDEST PUSH2 0x753 JUMP JUMPDEST PUSH2 0x6D4 PUSH2 0x17CB JUMP JUMPDEST PUSH20 0xFFFFFFFFFFFFFFFFFFFFFFFFFFFFFFFFFFFFFFFF AND CALLER PUSH20 0xFFFFFFFFFFFFFFFFFFFFFFFFFFFFFFFFFFFFFFFF AND EQ DUP1 ISZERO PUSH2 0x713 JUMPI POP PUSH2 0x711 PUSH2 0x19B2 JUMP JUMPDEST ISZERO JUMPDEST PUSH2 0x752 JUMPI PUSH1 0x40 MLOAD PUSH32 0x8C379A000000000000000000000000000000000000000000000000000000000 DUP2 MSTORE PUSH1 0x4 ADD PUSH2 0x749 SWAP1 PUSH2 0x3F3E JUMP JUMPDEST PUSH1 0x40 MLOAD DUP1 SWAP2 SUB SWAP1 REVERT JUMPDEST JUMPDEST DUP1 PUSH1 0x4 PUSH0 PUSH2 0x100 EXP DUP2 SLOAD DUP2 PUSH20 0xFFFFFFFFFFFFFFFFFFFFFFFFFFFFFFFFFFFFFFFF MUL NOT AND SWAP1 DUP4 PUSH20 0xFFFFFFFFFFFFFFFFFFFFFFFFFFFFFFFFFFFFFFFF AND MUL OR SWAP1 SSTORE POP PUSH2 0x79D PUSH1 0x1 PUSH2 0x2FAE JUMP JUMPDEST PUSH2 0x7A7 PUSH1 0x1 PUSH2 0x2FCD JUMP JUMPDEST DUP1 PUSH20 0xFFFFFFFFFFFFFFFFFFFFFFFFFFFFFFFFFFFFFFFF AND PUSH32 0x3553F1F7EF0242113266A8D183B621BB87468C99237F36B1150B6AB3D688B686 PUSH1 0x40 MLOAD PUSH1 0x40 MLOAD DUP1 SWAP2 SUB SWAP1 LOG2 POP JUMP JUMPDEST PUSH1 0x60 PUSH1 0xB DUP1 SLOAD PUSH2 0x7FC SWAP1 PUSH2 0x3F89 JUMP JUMPDEST DUP1 PUSH1 0x1F ADD PUSH1 0x20 DUP1 SWAP2 DIV MUL PUSH1 0x20 ADD PUSH1 0x40 MLOAD SWAP1 DUP2 ADD PUSH1 0x40 MSTORE DUP1 SWAP3 SWAP2 SWAP1 DUP2 DUP2 MSTORE PUSH1 0x20 ADD DUP3 DUP1 SLOAD PUSH2 0x828 SWAP1 PUSH2 0x3F89 JUMP JUMPDEST DUP1 ISZERO PUSH2 0x873 JUMPI DUP1 PUSH1 0x1F LT PUSH2 0x84A JUMPI PUSH2 0x100 DUP1 DUP4 SLOAD DIV MUL DUP4 MSTORE SWAP2 PUSH1 0x20 ADD SWAP2 PUSH2 0x873 JUMP JUMPDEST DUP3 ADD SWAP2 SWAP1 PUSH0 MSTORE PUSH1 0x20 PUSH0 KECCAK256 SWAP1 JUMPDEST DUP2 SLOAD DUP2 MSTORE SWAP1 PUSH1 0x1 ADD SWAP1 PUSH1 0x20 ADD DUP1 DUP4 GT PUSH2 0x856 JUMPI DUP3 SWAP1 SUB PUSH1 0x1F AND DUP3 ADD SWAP2 JUMPDEST POP POP POP POP POP SWAP1 POP SWAP1 JUMP JUMPDEST CALLER PUSH20 0xFFFFFFFFFFFFFFFFFFFFFFFFFFFFFFFFFFFFFFFF AND PUSH1 0x4 PUSH0 SWAP1 SLOAD SWAP1 PUSH2 0x100 EXP SWAP1 DIV PUSH20 0xFFFFFFFFFFFFFFFFFFFFFFFFFFFFFFFFFFFFFFFF AND PUSH20 0xFFFFFFFFFFFFFFFFFFFFFFFFFFFFFFFFFFFFFFFF AND SUB PUSH2 0xA09 JUMPI PUSH1 0x4 PUSH0 PUSH2 0x100 EXP DUP2 SLOAD SWAP1 PUSH20 0xFFFFFFFFFFFFFFFFFFFFFFFFFFFFFFFFFFFFFFFF MUL NOT AND SWAP1 SSTORE CALLER PUSH1 0x6 PUSH0 ADD PUSH0 PUSH2 0x100 EXP DUP2 SLOAD DUP2 PUSH20 0xFFFFFFFFFFFFFFFFFFFFFFFFFFFFFFFFFFFFFFFF MUL NOT AND SWAP1 DUP4 PUSH20 0xFFFFFFFFFFFFFFFFFFFFFFFFFFFFFFFFFFFFFFFF AND MUL OR SWAP1 SSTORE POP PUSH1 0x6 PUSH0 ADD PUSH1 0x15 DUP2 DUP2 SWAP1 SLOAD SWAP1 PUSH2 0x100 EXP SWAP1 DIV PUSH4 0xFFFFFFFF AND DUP1 SWAP3 SWAP2 SWAP1 PUSH2 0x95B SWAP1 PUSH2 0x3FE6 JUMP JUMPDEST SWAP2 SWAP1 PUSH2 0x100 EXP DUP2 SLOAD DUP2 PUSH4 0xFFFFFFFF MUL NOT AND SWAP1 DUP4 PUSH4 0xFFFFFFFF AND MUL OR SWAP1 SSTORE POP POP PUSH2 0x983 PUSH0 PUSH2 0x2FAE JUMP JUMPDEST PUSH1 0x6 PUSH0 ADD PUSH1 0x15 SWAP1 SLOAD SWAP1 PUSH2 0x100 EXP SWAP1 DIV PUSH4 0xFFFFFFFF AND PUSH4 0xFFFFFFFF AND PUSH1 0x6 PUSH0 ADD PUSH0 SWAP1 SLOAD SWAP1 PUSH2 0x100 EXP SWAP1 DIV PUSH20 0xFFFFFFFFFFFFFFFFFFFFFFFFFFFFFFFFFFFFFFFF AND PUSH20 0xFFFFFFFFFFFFFFFFFFFFFFFFFFFFFFFFFFFFFFFF AND PUSH32 0x5AD9B3688012CD825C1BFB941E4F5AFB2558AF6AF3DEADDF01DBB5E85ABDAF9 PUSH1 0x40 MLOAD PUSH1 0x40 MLOAD DUP1 SWAP2 SUB SWAP1 LOG3 PUSH2 0xA3B JUMP JUMPDEST PUSH1 0x40 MLOAD PUSH32 0x6C4360F000000000000000000000000000000000000000000000000000000000 DUP2 MSTORE PUSH1 0x4 ADD PUSH1 0x40 MLOAD DUP1 SWAP2 SUB SWAP1 REVERT JUMPDEST JUMP JUMPDEST CALLER PUSH20 0xFFFFFFFFFFFFFFFFFFFFFFFFFFFFFFFFFFFFFFFF AND PUSH1 0x5 PUSH0 SWAP1 SLOAD SWAP1 PUSH2 0x100 EXP SWAP1 DIV PUSH20 0xFFFFFFFFFFFFFFFFFFFFFFFFFFFFFFFFFFFFFFFF AND PUSH20 0xFFFFFFFFFFFFFFFFFFFFFFFFFFFFFFFFFFFFFFFF AND SUB PUSH2 0xCF1 JUMPI PUSH1 0x5 PUSH0 PUSH2 0x100 EXP DUP2 SLOAD SWAP1 PUSH20 0xFFFFFFFFFFFFFFFFFFFFFFFFFFFFFFFFFFFFFFFF MUL NOT AND SWAP1 SSTORE PUSH0 PUSH20 0xFFFFFFFFFFFFFFFFFFFFFFFFFFFFFFFFFFFFFFFF AND PUSH1 0x8 PUSH0 ADD PUSH0 SWAP1 SLOAD SWAP1 PUSH2 0x100 EXP SWAP1 DIV PUSH20 0xFFFFFFFFFFFFFFFFFFFFFFFFFFFFFFFFFFFFFFFF AND PUSH20 0xFFFFFFFFFFFFFFFFFFFFFFFFFFFFFFFFFFFFFFFF AND EQ PUSH2 0xBC5 JUMPI PUSH1 0x8 PUSH0 ADD PUSH0 SWAP1 SLOAD SWAP1 PUSH2 0x100 EXP SWAP1 DIV PUSH20 0xFFFFFFFFFFFFFFFFFFFFFFFFFFFFFFFFFFFFFFFF AND PUSH20 0xFFFFFFFFFFFFFFFFFFFFFFFFFFFFFFFFFFFFFFFF AND PUSH4 0xC92A788C PUSH1 0x1 PUSH1 0x7 PUSH0 ADD PUSH0 SWAP1 SLOAD SWAP1 PUSH2 0x100 EXP SWAP1 DIV PUSH20 0xFFFFFFFFFFFFFFFFFFFFFFFFFFFFFFFFFFFFFFFF AND CALLER PUSH1 0x4 PUSH3 0x15180 PUSH1 0x40 MLOAD DUP7 PUSH4 0xFFFFFFFF AND PUSH1 0xE0 SHL DUP2 MSTORE PUSH1 0x4 ADD PUSH2 0xB97 SWAP6 SWAP5 SWAP4 SWAP3 SWAP2 SWAP1 PUSH2 0x40C3 JUMP JUMPDEST PUSH0 PUSH1 0x40 MLOAD DUP1 DUP4 SUB DUP2 PUSH0 DUP8 DUP1 EXTCODESIZE ISZERO DUP1 ISZERO PUSH2 0xBAE JUMPI PUSH0 DUP1 REVERT JUMPDEST POP GAS CALL ISZERO DUP1 ISZERO PUSH2 0xBC0 JUMPI RETURNDATASIZE PUSH0 DUP1 RETURNDATACOPY RETURNDATASIZE PUSH0 REVERT JUMPDEST POP POP POP POP JUMPDEST CALLER PUSH1 0x7 PUSH0 ADD PUSH0 PUSH2 0x100 EXP DUP2 SLOAD DUP2 PUSH20 0xFFFFFFFFFFFFFFFFFFFFFFFFFFFFFFFFFFFFFFFF MUL NOT AND SWAP1 DUP4 PUSH20 0xFFFFFFFFFFFFFFFFFFFFFFFFFFFFFFFFFFFFFFFF AND MUL OR SWAP1 SSTORE POP PUSH1 0x7 PUSH0 ADD PUSH1 0x15 DUP2 DUP2 SWAP1 SLOAD SWAP1 PUSH2 0x100 EXP SWAP1 DIV PUSH4 0xFFFFFFFF AND DUP1 SWAP3 SWAP2 SWAP1 PUSH2 0xC2B SWAP1 PUSH2 0x3FE6 JUMP JUMPDEST SWAP2 SWAP1 PUSH2 0x100 EXP DUP2 SLOAD DUP2 PUSH4 0xFFFFFFFF MUL NOT AND SWAP1 DUP4 PUSH4 0xFFFFFFFF AND MUL OR SWAP1 SSTORE POP POP PUSH1 0x7 PUSH0 ADD PUSH1 0x14 SWAP1 SLOAD SWAP1 PUSH2 0x100 EXP SWAP1 DIV PUSH1 0xFF AND ISZERO PUSH2 0xC6B JUMPI PUSH2 0xC6A PUSH0 PUSH2 0x2FCD JUMP JUMPDEST JUMPDEST PUSH1 0x7 PUSH0 ADD PUSH1 0x15 SWAP1 SLOAD SWAP1 PUSH2 0x100 EXP SWAP1 DIV PUSH4 0xFFFFFFFF AND PUSH4 0xFFFFFFFF AND PUSH1 0x7 PUSH0 ADD PUSH0 SWAP1 SLOAD SWAP1 PUSH2 0x100 EXP SWAP1 DIV PUSH20 0xFFFFFFFFFFFFFFFFFFFFFFFFFFFFFFFFFFFFFFFF AND PUSH20 0xFFFFFFFFFFFFFFFFFFFFFFFFFFFFFFFFFFFFFFFF AND PUSH32 0x11E1B985C07E1BF3FEC9BFD0BDB8C4A8E870BA2B26AA89FE50A6A19132CA10FD PUSH1 0x40 MLOAD PUSH1 0x40 MLOAD DUP1 SWAP2 SUB SWAP1 LOG3 PUSH2 0xD23 JUMP JUMPDEST PUSH1 0x40 MLOAD PUSH32 0x6C4360F000000000000000000000000000000000000000000000000000000000 DUP2 MSTORE PUSH1 0x4 ADD PUSH1 0x40 MLOAD DUP1 SWAP2 SUB SWAP1 REVERT JUMPDEST JUMP JUMPDEST TIMESTAMP PUSH32 0x0 PUSH6 0xFFFFFFFFFFFF AND LT ISZERO PUSH2 0xDCF JUMPI PUSH2 0xD5D PUSH2 0x23C9 JUMP JUMPDEST PUSH20 0xFFFFFFFFFFFFFFFFFFFFFFFFFFFFFFFFFFFFFFFF AND CALLER PUSH20 0xFFFFFFFFFFFFFFFFFFFFFFFFFFFFFFFFFFFFFFFF AND EQ PUSH2 0xDCA JUMPI PUSH1 0x40 MLOAD PUSH32 0x8C379A000000000000000000000000000000000000000000000000000000000 DUP2 MSTORE PUSH1 0x4 ADD PUSH2 0xDC1 SWAP1 PUSH2 0x3F3E JUMP JUMPDEST PUSH1 0x40 MLOAD DUP1 SWAP2 SUB SWAP1 REVERT JUMPDEST PUSH2 0xE56 JUMP JUMPDEST PUSH2 0xDD7 PUSH2 0x17CB JUMP JUMPDEST PUSH20 0xFFFFFFFFFFFFFFFFFFFFFFFFFFFFFFFFFFFFFFFF AND CALLER PUSH20 0xFFFFFFFFFFFFFFFFFFFFFFFFFFFFFFFFFFFFFFFF AND EQ DUP1 ISZERO PUSH2 0xE16 JUMPI POP PUSH2 0xE14 PUSH2 0x19B2 JUMP JUMPDEST ISZERO JUMPDEST PUSH2 0xE55 JUMPI PUSH1 0x40 MLOAD PUSH32 0x8C379A000000000000000000000000000000000000000000000000000000000 DUP2 MSTORE PUSH1 0x4 ADD PUSH2 0xE4C SWAP1 PUSH2 0x3F3E JUMP JUMPDEST PUSH1 0x40 MLOAD DUP1 SWAP2 SUB SWAP1 REVERT JUMPDEST JUMPDEST TIMESTAMP PUSH1 0x5 PUSH1 0x14 SWAP1 SLOAD SWAP1 PUSH2 0x100 EXP SWAP1 DIV PUSH6 0xFFFFFFFFFFFF AND PUSH6 0xFFFFFFFFFFFF AND LT ISZERO PUSH2 0xFB7 JUMPI PUSH0 PUSH1 0x5 PUSH1 0x14 SWAP1 SLOAD SWAP1 PUSH2 0x100 EXP SWAP1 DIV PUSH6 0xFFFFFFFFFFFF AND PUSH6 0xFFFFFFFFFFFF AND SUB PUSH2 0xED8 JUMPI PUSH1 0x40 MLOAD PUSH32 0x8C379A000000000000000000000000000000000000000000000000000000000 DUP2 MSTORE PUSH1 0x4 ADD PUSH2 0xECF SWAP1 PUSH2 0x416A JUMP JUMPDEST PUSH1 0x40 MLOAD DUP1 SWAP2 SUB SWAP1 REVERT JUMPDEST DUP1 PUSH20 0xFFFFFFFFFFFFFFFFFFFFFFFFFFFFFFFFFFFFFFFF AND PUSH1 0x2 PUSH0 SWAP1 SLOAD SWAP1 PUSH2 0x100 EXP SWAP1 DIV PUSH20 0xFFFFFFFFFFFFFFFFFFFFFFFFFFFFFFFFFFFFFFFF AND PUSH20 0xFFFFFFFFFFFFFFFFFFFFFFFFFFFFFFFFFFFFFFFF AND SUB PUSH2 0xF75 JUMPI PUSH1 0x5 PUSH1 0x14 PUSH2 0x100 EXP DUP2 SLOAD SWAP1 PUSH6 0xFFFFFFFFFFFF MUL NOT AND SWAP1 SSTORE PUSH1 0x2 PUSH0 PUSH2 0x100 EXP DUP2 SLOAD SWAP1 PUSH20 0xFFFFFFFFFFFFFFFFFFFFFFFFFFFFFFFFFFFFFFFF MUL NOT AND SWAP1 SSTORE PUSH2 0xF70 DUP2 PUSH2 0x3078 JUMP JUMPDEST PUSH2 0xFB2 JUMP JUMPDEST DUP1 PUSH1 0x40 MLOAD PUSH32 0xC632231500000000000000000000000000000000000000000000000000000000 DUP2 MSTORE PUSH1 0x4 ADD PUSH2 0xFA9 SWAP2 SWAP1 PUSH2 0x37FA JUMP JUMPDEST PUSH1 0x40 MLOAD DUP1 SWAP2 SUB SWAP1 REVERT JUMPDEST PUSH2 0x1013 JUMP JUMPDEST TIMESTAMP PUSH1 0x5 PUSH1 0x14 SWAP1 SLOAD SWAP1 PUSH2 0x100 EXP SWAP1 DIV PUSH6 0xFFFFFFFFFFFF AND PUSH2 0xFD7 SWAP2 SWAP1 PUSH2 0x4188 JUMP JUMPDEST PUSH1 0x40 MLOAD PUSH32 0x223A6CBB00000000000000000000000000000000000000000000000000000000 DUP2 MSTORE PUSH1 0x4 ADD PUSH2 0x100A SWAP2 SWAP1 PUSH2 0x41D0 JUMP JUMPDEST PUSH1 0x40 MLOAD DUP1 SWAP2 SUB SWAP1 REVERT JUMPDEST POP JUMP JUMPDEST PUSH0 PUSH1 0x8 PUSH0 ADD PUSH0 SWAP1 SLOAD SWAP1 PUSH2 0x100 EXP SWAP1 DIV PUSH20 0xFFFFFFFFFFFFFFFFFFFFFFFFFFFFFFFFFFFFFFFF AND SWAP1 POP SWAP1 JUMP JUMPDEST PUSH0 DUP5 DUP5 DUP5 DUP5 PUSH1 0x40 MLOAD PUSH1 0x20 ADD PUSH2 0x1058 SWAP5 SWAP4 SWAP3 SWAP2 SWAP1 PUSH2 0x423B JUMP JUMPDEST PUSH1 0x40 MLOAD PUSH1 0x20 DUP2 DUP4 SUB SUB DUP2 MSTORE SWAP1 PUSH1 0x40 MSTORE DUP1 MLOAD SWAP1 PUSH1 0x20 ADD KECCAK256 PUSH0 SHR SWAP1 POP SWAP5 SWAP4 POP POP POP POP JUMP JUMPDEST PUSH0 SWAP2 SWAP1 POP JUMP JUMPDEST PUSH0 PUSH1 0x9 PUSH0 ADD PUSH0 SWAP1 SLOAD SWAP1 PUSH2 0x100 EXP SWAP1 DIV PUSH20 0xFFFFFFFFFFFFFFFFFFFFFFFFFFFFFFFFFFFFFFFF AND SWAP1 POP SWAP1 JUMP JUMPDEST DUP1 PUSH1 0xA PUSH0 DUP5 PUSH20 0xFFFFFFFFFFFFFFFFFFFFFFFFFFFFFFFFFFFFFFFF AND PUSH20 0xFFFFFFFFFFFFFFFFFFFFFFFFFFFFFFFFFFFFFFFF AND DUP2 MSTORE PUSH1 0x20 ADD SWAP1 DUP2 MSTORE PUSH1 0x20 ADD PUSH0 KECCAK256 PUSH0 PUSH2 0x100 EXP DUP2 SLOAD DUP2 PUSH20 0xFFFFFFFFFFFFFFFFFFFFFFFFFFFFFFFFFFFFFFFF MUL NOT AND SWAP1 DUP4 PUSH20 0xFFFFFFFFFFFFFFFFFFFFFFFFFFFFFFFFFFFFFFFF AND MUL OR SWAP1 SSTORE POP POP POP JUMP JUMPDEST PUSH0 DUP1 PUSH1 0xA PUSH0 CALLER PUSH20 0xFFFFFFFFFFFFFFFFFFFFFFFFFFFFFFFFFFFFFFFF AND PUSH20 0xFFFFFFFFFFFFFFFFFFFFFFFFFFFFFFFFFFFFFFFF AND DUP2 MSTORE PUSH1 0x20 ADD SWAP1 DUP2 MSTORE PUSH1 0x20 ADD PUSH0 KECCAK256 PUSH0 SWAP1 SLOAD SWAP1 PUSH2 0x100 EXP SWAP1 DIV PUSH20 0xFFFFFFFFFFFFFFFFFFFFFFFFFFFFFFFFFFFFFFFF AND SWAP1 POP PUSH0 DUP2 PUSH20 0xFFFFFFFFFFFFFFFFFFFFFFFFFFFFFFFFFFFFFFFF AND PUSH4 0x13CF08B DUP6 PUSH1 0x40 MLOAD DUP3 PUSH4 0xFFFFFFFF AND PUSH1 0xE0 SHL DUP2 MSTORE PUSH1 0x4 ADD PUSH2 0x11C4 SWAP2 SWAP1 PUSH2 0x3A34 JUMP JUMPDEST PUSH2 0x140 PUSH1 0x40 MLOAD DUP1 DUP4 SUB DUP2 DUP7 GAS STATICCALL ISZERO DUP1 ISZERO PUSH2 0x11E0 JUMPI RETURNDATASIZE PUSH0 DUP1 RETURNDATACOPY RETURNDATASIZE PUSH0 REVERT JUMPDEST POP POP POP POP PUSH1 0x40 MLOAD RETURNDATASIZE PUSH1 0x1F NOT PUSH1 0x1F DUP3 ADD AND DUP3 ADD DUP1 PUSH1 0x40 MSTORE POP DUP2 ADD SWAP1 PUSH2 0x1204 SWAP2 SWAP1 PUSH2 0x4419 JUMP JUMPDEST SWAP1 POP DUP1 PUSH1 0xC0 ADD MLOAD ISZERO PUSH2 0x121B JUMPI PUSH1 0x5 SWAP3 POP POP POP PUSH2 0x13F1 JUMP JUMPDEST DUP1 PUSH1 0xE0 ADD MLOAD ISZERO PUSH2 0x1230 JUMPI PUSH1 0x2 SWAP3 POP POP POP PUSH2 0x13F1 JUMP JUMPDEST DUP1 PUSH2 0x120 ADD MLOAD ISZERO PUSH2 0x1246 JUMPI PUSH1 0x3 SWAP3 POP POP POP PUSH2 0x13F1 JUMP JUMPDEST DUP1 PUSH2 0x100 ADD MLOAD ISZERO PUSH2 0x125C JUMPI PUSH1 0x4 SWAP3 POP POP POP PUSH2 0x13F1 JUMP JUMPDEST PUSH0 DUP2 PUSH1 0x80 ADD MLOAD PUSH6 0xFFFFFFFFFFFF AND SWAP1 POP PUSH0 DUP2 SUB PUSH2 0x12B0 JUMPI DUP5 PUSH1 0x40 MLOAD PUSH32 0x6AD0607500000000000000000000000000000000000000000000000000000000 DUP2 MSTORE PUSH1 0x4 ADD PUSH2 0x12A7 SWAP2 SWAP1 PUSH2 0x3A34 JUMP JUMPDEST PUSH1 0x40 MLOAD DUP1 SWAP2 SUB SWAP1 REVERT JUMPDEST PUSH0 TIMESTAMP SWAP1 POP DUP2 DUP2 GT PUSH2 0x12C7 JUMPI PUSH0 SWAP5 POP POP POP POP POP PUSH2 0x13F1 JUMP JUMPDEST PUSH0 DUP4 PUSH1 0x20 ADD MLOAD SWAP1 POP PUSH0 DUP2 SWAP1 POP PUSH0 DUP2 PUSH20 0xFFFFFFFFFFFFFFFFFFFFFFFFFFFFFFFFFFFFFFFF AND PUSH4 0x5F8D96DE PUSH1 0x40 MLOAD DUP2 PUSH4 0xFFFFFFFF AND PUSH1 0xE0 SHL DUP2 MSTORE PUSH1 0x4 ADD PUSH1 0x20 PUSH1 0x40 MLOAD DUP1 DUP4 SUB DUP2 DUP7 GAS STATICCALL ISZERO DUP1 ISZERO PUSH2 0x131D JUMPI RETURNDATASIZE PUSH0 DUP1 RETURNDATACOPY RETURNDATASIZE PUSH0 REVERT JUMPDEST POP POP POP POP PUSH1 0x40 MLOAD RETURNDATASIZE PUSH1 0x1F NOT PUSH1 0x1F DUP3 ADD AND DUP3 ADD DUP1 PUSH1 0x40 MSTORE POP DUP2 ADD SWAP1 PUSH2 0x1341 SWAP2 SWAP1 PUSH2 0x4459 JUMP JUMPDEST SWAP1 POP DUP1 DUP5 GT PUSH2 0x135A JUMPI PUSH1 0x1 SWAP8 POP POP POP POP POP POP POP POP PUSH2 0x13F1 JUMP JUMPDEST PUSH0 PUSH2 0x1364 DUP8 PUSH2 0x323A JUMP JUMPDEST SWAP1 POP PUSH0 DUP2 PUSH1 0x5 DUP2 GT ISZERO PUSH2 0x137A JUMPI PUSH2 0x1379 PUSH2 0x3AE9 JUMP JUMPDEST JUMPDEST SWAP1 POP DUP9 PUSH20 0xFFFFFFFFFFFFFFFFFFFFFFFFFFFFFFFFFFFFFFFF AND PUSH4 0x1E9608A8 DUP3 DUP14 PUSH1 0x40 MLOAD DUP4 PUSH4 0xFFFFFFFF AND PUSH1 0xE0 SHL DUP2 MSTORE PUSH1 0x4 ADD PUSH2 0x13B7 SWAP3 SWAP2 SWAP1 PUSH2 0x4484 JUMP JUMPDEST PUSH0 PUSH1 0x40 MLOAD DUP1 DUP4 SUB DUP2 PUSH0 DUP8 DUP1 EXTCODESIZE ISZERO DUP1 ISZERO PUSH2 0x13CE JUMPI PUSH0 DUP1 REVERT JUMPDEST POP GAS CALL ISZERO DUP1 ISZERO PUSH2 0x13E0 JUMPI RETURNDATASIZE PUSH0 DUP1 RETURNDATACOPY RETURNDATASIZE PUSH0 REVERT JUMPDEST POP POP POP POP DUP2 SWAP10 POP POP POP POP POP POP POP POP POP POP JUMPDEST SWAP2 SWAP1 POP JUMP JUMPDEST TIMESTAMP PUSH32 0x0 PUSH6 0xFFFFFFFFFFFF AND LT ISZERO PUSH2 0x14A0 JUMPI PUSH2 0x142E PUSH2 0x23C9 JUMP JUMPDEST PUSH20 0xFFFFFFFFFFFFFFFFFFFFFFFFFFFFFFFFFFFFFFFF AND CALLER PUSH20 0xFFFFFFFFFFFFFFFFFFFFFFFFFFFFFFFFFFFFFFFF AND EQ PUSH2 0x149B JUMPI PUSH1 0x40 MLOAD PUSH32 0x8C379A000000000000000000000000000000000000000000000000000000000 DUP2 MSTORE PUSH1 0x4 ADD PUSH2 0x1492 SWAP1 PUSH2 0x3F3E JUMP JUMPDEST PUSH1 0x40 MLOAD DUP1 SWAP2 SUB SWAP1 REVERT JUMPDEST PUSH2 0x1527 JUMP JUMPDEST PUSH2 0x14A8 PUSH2 0x17CB JUMP JUMPDEST PUSH20 0xFFFFFFFFFFFFFFFFFFFFFFFFFFFFFFFFFFFFFFFF AND CALLER PUSH20 0xFFFFFFFFFFFFFFFFFFFFFFFFFFFFFFFFFFFFFFFF AND EQ DUP1 ISZERO PUSH2 0x14E7 JUMPI POP PUSH2 0x14E5 PUSH2 0x19B2 JUMP JUMPDEST ISZERO JUMPDEST PUSH2 0x1526 JUMPI PUSH1 0x40 MLOAD PUSH32 0x8C379A000000000000000000000000000000000000000000000000000000000 DUP2 MSTORE PUSH1 0x4 ADD PUSH2 0x151D SWAP1 PUSH2 0x3F3E JUMP JUMPDEST PUSH1 0x40 MLOAD DUP1 SWAP2 SUB SWAP1 REVERT JUMPDEST JUMPDEST DUP1 PUSH20 0xFFFFFFFFFFFFFFFFFFFFFFFFFFFFFFFFFFFFFFFF AND PUSH1 0x2 PUSH0 SWAP1 SLOAD SWAP1 PUSH2 0x100 EXP SWAP1 DIV PUSH20 0xFFFFFFFFFFFFFFFFFFFFFFFFFFFFFFFFFFFFFFFF AND PUSH20 0xFFFFFFFFFFFFFFFFFFFFFFFFFFFFFFFFFFFFFFFF AND SUB PUSH2 0x15FE JUMPI PUSH1 0x5 PUSH1 0x14 PUSH2 0x100 EXP DUP2 SLOAD SWAP1 PUSH6 0xFFFFFFFFFFFF MUL NOT AND SWAP1 SSTORE PUSH1 0x2 PUSH0 PUSH2 0x100 EXP DUP2 SLOAD SWAP1 PUSH20 0xFFFFFFFFFFFFFFFFFFFFFFFFFFFFFFFFFFFFFFFF MUL NOT AND SWAP1 SSTORE DUP1 PUSH20 0xFFFFFFFFFFFFFFFFFFFFFFFFFFFFFFFFFFFFFFFF AND PUSH32 0x62125DD3D531106FF055AAC7090CCEC5E1EDEC1D0DB6B0F1355F2CA154754695 PUSH1 0x40 MLOAD PUSH1 0x40 MLOAD DUP1 SWAP2 SUB SWAP1 LOG2 PUSH2 0x163B JUMP JUMPDEST DUP1 PUSH1 0x40 MLOAD PUSH32 0xC632231500000000000000000000000000000000000000000000000000000000 DUP2 MSTORE PUSH1 0x4 ADD PUSH2 0x1632 SWAP2 SWAP1 PUSH2 0x37FA JUMP JUMPDEST PUSH1 0x40 MLOAD DUP1 SWAP2 SUB SWAP1 REVERT JUMPDEST POP JUMP JUMPDEST PUSH1 0x60 PUSH1 0x40 MLOAD DUP1 PUSH1 0x40 ADD PUSH1 0x40 MSTORE DUP1 PUSH1 0xA DUP2 MSTORE PUSH1 0x20 ADD PUSH32 0x54696D65207374616D7000000000000000000000000000000000000000000000 DUP2 MSTORE POP SWAP1 POP SWAP1 JUMP JUMPDEST PUSH2 0x1683 PUSH2 0x17CB JUMP JUMPDEST PUSH20 0xFFFFFFFFFFFFFFFFFFFFFFFFFFFFFFFFFFFFFFFF AND CALLER PUSH20 0xFFFFFFFFFFFFFFFFFFFFFFFFFFFFFFFFFFFFFFFF AND EQ DUP1 ISZERO PUSH2 0x16C2 JUMPI POP PUSH2 0x16C0 PUSH2 0x19B2 JUMP JUMPDEST ISZERO JUMPDEST PUSH2 0x1701 JUMPI PUSH1 0x40 MLOAD PUSH32 0x8C379A000000000000000000000000000000000000000000000000000000000 DUP2 MSTORE PUSH1 0x4 ADD PUSH2 0x16F8 SWAP1 PUSH2 0x3F3E JUMP JUMPDEST PUSH1 0x40 MLOAD DUP1 SWAP2 SUB SWAP1 REVERT JUMPDEST DUP1 PUSH1 0x5 PUSH0 PUSH2 0x100 EXP DUP2 SLOAD DUP2 PUSH20 0xFFFFFFFFFFFFFFFFFFFFFFFFFFFFFFFFFFFFFFFF MUL NOT AND SWAP1 DUP4 PUSH20 0xFFFFFFFFFFFFFFFFFFFFFFFFFFFFFFFFFFFFFFFF AND MUL OR SWAP1 SSTORE POP DUP1 PUSH20 0xFFFFFFFFFFFFFFFFFFFFFFFFFFFFFFFFFFFFFFFF AND PUSH32 0xFF3CAD3EE28C342AD5F3D7C8FF8559EE4D21EB48494092B82A1652E443B3420B PUSH1 0x40 MLOAD PUSH1 0x40 MLOAD DUP1 SWAP2 SUB SWAP1 LOG2 POP JUMP JUMPDEST PUSH1 0x60 PUSH1 0x40 MLOAD DUP1 PUSH1 0x40 ADD PUSH1 0x40 MSTORE DUP1 PUSH1 0x1 DUP2 MSTORE PUSH1 0x20 ADD PUSH32 0x3100000000000000000000000000000000000000000000000000000000000000 DUP2 MSTORE POP SWAP1 POP SWAP1 JUMP JUMPDEST PUSH0 TIMESTAMP SWAP1 POP SWAP1 JUMP JUMPDEST PUSH0 PUSH1 0x6 PUSH0 ADD PUSH0 SWAP1 SLOAD SWAP1 PUSH2 0x100 EXP SWAP1 DIV PUSH20 0xFFFFFFFFFFFFFFFFFFFFFFFFFFFFFFFFFFFFFFFF AND SWAP1 POP SWAP1 JUMP JUMPDEST PUSH0 DUP2 PUSH1 0x40 MLOAD PUSH1 0x20 ADD PUSH2 0x1807 SWAP2 SWAP1 PUSH2 0x44CB JUMP JUMPDEST PUSH1 0x40 MLOAD PUSH1 0x20 DUP2 DUP4 SUB SUB DUP2 MSTORE SWAP1 PUSH1 0x40 MSTORE DUP1 MLOAD SWAP1 PUSH1 0x20 ADD KECCAK256 SWAP1 POP PUSH0 DUP4 SWAP1 POP DUP2 PUSH1 0x40 MLOAD PUSH1 0x20 ADD PUSH2 0x1833 SWAP1 PUSH2 0x4539 JUMP JUMPDEST PUSH1 0x40 MLOAD PUSH1 0x20 DUP2 DUP4 SUB SUB DUP2 MSTORE SWAP1 PUSH1 0x40 MSTORE DUP1 MLOAD SWAP1 PUSH1 0x20 ADD KECCAK256 SUB PUSH2 0x18A6 JUMPI DUP1 PUSH1 0xC PUSH0 PUSH2 0x100 EXP DUP2 SLOAD DUP2 PUSH4 0xFFFFFFFF MUL NOT AND SWAP1 DUP4 PUSH4 0xFFFFFFFF AND MUL OR SWAP1 SSTORE POP DUP1 PUSH4 0xFFFFFFFF AND PUSH32 0xCECCF714BC39BDE68A069AE4149980BD5382CB4E6723FBDB6E7723728E4885CE PUSH1 0x40 MLOAD PUSH1 0x40 MLOAD DUP1 SWAP2 SUB SWAP1 LOG2 PUSH2 0x19AC JUMP JUMPDEST DUP2 PUSH1 0x40 MLOAD PUSH1 0x20 ADD PUSH2 0x18B6 SWAP1 PUSH2 0x4597 JUMP JUMPDEST PUSH1 0x40 MLOAD PUSH1 0x20 DUP2 DUP4 SUB SUB DUP2 MSTORE SWAP1 PUSH1 0x40 MSTORE DUP1 MLOAD SWAP1 PUSH1 0x20 ADD KECCAK256 SUB PUSH2 0x192A JUMPI DUP1 PUSH1 0xC PUSH1 0x4 PUSH2 0x100 EXP DUP2 SLOAD DUP2 PUSH4 0xFFFFFFFF MUL NOT AND SWAP1 DUP4 PUSH4 0xFFFFFFFF AND MUL OR SWAP1 SSTORE POP DUP1 PUSH4 0xFFFFFFFF AND PUSH32 0xDF149C5D5960B920BA24706165B5DCB67E2AC13EC5C3AA0909FA229BDD328D97 PUSH1 0x40 MLOAD PUSH1 0x40 MLOAD DUP1 SWAP2 SUB SWAP1 LOG2 PUSH2 0x19AB JUMP JUMPDEST DUP2 PUSH1 0x40 MLOAD PUSH1 0x20 ADD PUSH2 0x193A SWAP1 PUSH2 0x45F5 JUMP JUMPDEST PUSH1 0x40 MLOAD PUSH1 0x20 DUP2 DUP4 SUB SUB DUP2 MSTORE SWAP1 PUSH1 0x40 MSTORE DUP1 MLOAD SWAP1 PUSH1 0x20 ADD KECCAK256 SUB PUSH2 0x19AA JUMPI DUP1 PUSH1 0xC PUSH1 0x8 PUSH2 0x100 EXP DUP2 SLOAD DUP2 PUSH4 0xFFFFFFFF MUL NOT AND SWAP1 DUP4 PUSH4 0xFFFFFFFF AND MUL OR SWAP1 SSTORE POP DUP1 PUSH4 0xFFFFFFFF AND PUSH32 0xC6213165F7E768A76A2092906D1174E3B00C99567ACC7E4211898FAE0AE2C33C PUSH1 0x40 MLOAD PUSH1 0x40 MLOAD DUP1 SWAP2 SUB SWAP1 LOG2 JUMPDEST JUMPDEST JUMPDEST POP POP POP POP JUMP JUMPDEST PUSH0 PUSH1 0x6 PUSH0 ADD PUSH1 0x14 SWAP1 SLOAD SWAP1 PUSH2 0x100 EXP SWAP1 DIV PUSH1 0xFF AND SWAP1 POP SWAP1 JUMP JUMPDEST PUSH0 PUSH1 0x60 DUP1 PUSH0 DUP1 PUSH0 PUSH1 0x60 PUSH2 0x19DB PUSH2 0x32D7 JUMP JUMPDEST PUSH2 0x19E3 PUSH2 0x3311 JUMP JUMPDEST CHAINID ADDRESS PUSH0 DUP1 SHL PUSH0 PUSH8 0xFFFFFFFFFFFFFFFF DUP2 GT ISZERO PUSH2 0x1A02 JUMPI PUSH2 0x1A01 PUSH2 0x384E JUMP JUMPDEST JUMPDEST PUSH1 0x40 MLOAD SWAP1 DUP1 DUP3 MSTORE DUP1 PUSH1 0x20 MUL PUSH1 0x20 ADD DUP3 ADD PUSH1 0x40 MSTORE DUP1 ISZERO PUSH2 0x1A30 JUMPI DUP2 PUSH1 0x20 ADD PUSH1 0x20 DUP3 MUL DUP1 CALLDATASIZE DUP4 CALLDATACOPY DUP1 DUP3 ADD SWAP2 POP POP SWAP1 POP JUMPDEST POP PUSH32 0xF00000000000000000000000000000000000000000000000000000000000000 SWAP6 SWAP5 SWAP4 SWAP3 SWAP2 SWAP1 SWAP7 POP SWAP7 POP SWAP7 POP SWAP7 POP SWAP7 POP SWAP7 POP SWAP7 POP SWAP1 SWAP2 SWAP3 SWAP4 SWAP5 SWAP6 SWAP7 JUMP JUMPDEST PUSH0 PUSH2 0x1A7C DUP6 DUP6 DUP6 DUP6 PUSH2 0x1040 JUMP JUMPDEST SWAP1 POP PUSH0 PUSH1 0xA PUSH0 CALLER PUSH20 0xFFFFFFFFFFFFFFFFFFFFFFFFFFFFFFFFFFFFFFFF AND PUSH20 0xFFFFFFFFFFFFFFFFFFFFFFFFFFFFFFFFFFFFFFFF AND DUP2 MSTORE PUSH1 0x20 ADD SWAP1 DUP2 MSTORE PUSH1 0x20 ADD PUSH0 KECCAK256 PUSH0 SWAP1 SLOAD SWAP1 PUSH2 0x100 EXP SWAP1 DIV PUSH20 0xFFFFFFFFFFFFFFFFFFFFFFFFFFFFFFFFFFFFFFFF AND SWAP1 POP PUSH0 PUSH20 0xFFFFFFFFFFFFFFFFFFFFFFFFFFFFFFFFFFFFFFFF AND DUP2 PUSH20 0xFFFFFFFFFFFFFFFFFFFFFFFFFFFFFFFFFFFFFFFF AND EQ PUSH2 0x1C7B JUMPI PUSH0 PUSH2 0x1B1B DUP4 PUSH2 0x1129 JUMP JUMPDEST SWAP1 POP PUSH1 0x5 DUP1 DUP2 GT ISZERO PUSH2 0x1B30 JUMPI PUSH2 0x1B2F PUSH2 0x3AE9 JUMP JUMPDEST JUMPDEST DUP2 PUSH1 0x5 DUP2 GT ISZERO PUSH2 0x1B43 JUMPI PUSH2 0x1B42 PUSH2 0x3AE9 JUMP JUMPDEST JUMPDEST EQ DUP1 PUSH2 0x1B73 JUMPI POP PUSH1 0x2 PUSH1 0x5 DUP2 GT ISZERO PUSH2 0x1B5E JUMPI PUSH2 0x1B5D PUSH2 0x3AE9 JUMP JUMPDEST JUMPDEST DUP2 PUSH1 0x5 DUP2 GT ISZERO PUSH2 0x1B71 JUMPI PUSH2 0x1B70 PUSH2 0x3AE9 JUMP JUMPDEST JUMPDEST EQ JUMPDEST ISZERO PUSH2 0x1BB5 JUMPI DUP3 PUSH1 0x40 MLOAD PUSH32 0xDF7FE1CD00000000000000000000000000000000000000000000000000000000 DUP2 MSTORE PUSH1 0x4 ADD PUSH2 0x1BAC SWAP2 SWAP1 PUSH2 0x3A34 JUMP JUMPDEST PUSH1 0x40 MLOAD DUP1 SWAP2 SUB SWAP1 REVERT JUMPDEST PUSH0 DUP3 SWAP1 POP PUSH0 DUP2 PUSH20 0xFFFFFFFFFFFFFFFFFFFFFFFFFFFFFFFFFFFFFFFF AND PUSH4 0x13CF08B DUP7 PUSH1 0x40 MLOAD DUP3 PUSH4 0xFFFFFFFF AND PUSH1 0xE0 SHL DUP2 MSTORE PUSH1 0x4 ADD PUSH2 0x1BF3 SWAP2 SWAP1 PUSH2 0x3A34 JUMP JUMPDEST PUSH2 0x140 PUSH1 0x40 MLOAD DUP1 DUP4 SUB DUP2 DUP7 GAS STATICCALL ISZERO DUP1 ISZERO PUSH2 0x1C0F JUMPI RETURNDATASIZE PUSH0 DUP1 RETURNDATACOPY RETURNDATASIZE PUSH0 REVERT JUMPDEST POP POP POP POP PUSH1 0x40 MLOAD RETURNDATASIZE PUSH1 0x1F NOT PUSH1 0x1F DUP3 ADD AND DUP3 ADD DUP1 PUSH1 0x40 MSTORE POP DUP2 ADD SWAP1 PUSH2 0x1C33 SWAP2 SWAP1 PUSH2 0x4419 JUMP JUMPDEST SWAP1 POP PUSH1 0x1 DUP2 PUSH1 0xE0 ADD SWAP1 ISZERO ISZERO SWAP1 DUP2 ISZERO ISZERO DUP2 MSTORE POP POP DUP5 PUSH32 0x789CF55BE980739DAD1D0699B93B58E806B51C9D96619BFA8FE0A28ABAA7B30C PUSH1 0x40 MLOAD PUSH1 0x40 MLOAD DUP1 SWAP2 SUB SWAP1 LOG2 POP POP POP PUSH2 0x1CB8 JUMP JUMPDEST CALLER PUSH1 0x40 MLOAD PUSH32 0xDA75B54A00000000000000000000000000000000000000000000000000000000 DUP2 MSTORE PUSH1 0x4 ADD PUSH2 0x1CAF SWAP2 SWAP1 PUSH2 0x37FA JUMP JUMPDEST PUSH1 0x40 MLOAD DUP1 SWAP2 SUB SWAP1 REVERT JUMPDEST POP POP POP POP POP POP JUMP JUMPDEST TIMESTAMP PUSH32 0x0 PUSH6 0xFFFFFFFFFFFF AND LT ISZERO PUSH2 0x1D6A JUMPI PUSH2 0x1CF8 PUSH2 0x23C9 JUMP JUMPDEST PUSH20 0xFFFFFFFFFFFFFFFFFFFFFFFFFFFFFFFFFFFFFFFF AND CALLER PUSH20 0xFFFFFFFFFFFFFFFFFFFFFFFFFFFFFFFFFFFFFFFF AND EQ PUSH2 0x1D65 JUMPI PUSH1 0x40 MLOAD PUSH32 0x8C379A000000000000000000000000000000000000000000000000000000000 DUP2 MSTORE PUSH1 0x4 ADD PUSH2 0x1D5C SWAP1 PUSH2 0x3F3E JUMP JUMPDEST PUSH1 0x40 MLOAD DUP1 SWAP2 SUB SWAP1 REVERT JUMPDEST PUSH2 0x1DF1 JUMP JUMPDEST PUSH2 0x1D72 PUSH2 0x17CB JUMP JUMPDEST PUSH20 0xFFFFFFFFFFFFFFFFFFFFFFFFFFFFFFFFFFFFFFFF AND CALLER PUSH20 0xFFFFFFFFFFFFFFFFFFFFFFFFFFFFFFFFFFFFFFFF AND EQ DUP1 ISZERO PUSH2 0x1DB1 JUMPI POP PUSH2 0x1DAF PUSH2 0x19B2 JUMP JUMPDEST ISZERO JUMPDEST PUSH2 0x1DF0 JUMPI PUSH1 0x40 MLOAD PUSH32 0x8C379A000000000000000000000000000000000000000000000000000000000 DUP2 MSTORE PUSH1 0x4 ADD PUSH2 0x1DE7 SWAP1 PUSH2 0x3F3E JUMP JUMPDEST PUSH1 0x40 MLOAD DUP1 SWAP2 SUB SWAP1 REVERT JUMPDEST JUMPDEST PUSH0 DUP2 PUSH20 0xFFFFFFFFFFFFFFFFFFFFFFFFFFFFFFFFFFFFFFFF AND EXTCODESIZE GT ISZERO PUSH2 0x1F30 JUMPI CALLER PUSH20 0xFFFFFFFFFFFFFFFFFFFFFFFFFFFFFFFFFFFFFFFF AND PUSH1 0x6 PUSH0 ADD PUSH0 SWAP1 SLOAD SWAP1 PUSH2 0x100 EXP SWAP1 DIV PUSH20 0xFFFFFFFFFFFFFFFFFFFFFFFFFFFFFFFFFFFFFFFF AND PUSH20 0xFFFFFFFFFFFFFFFFFFFFFFFFFFFFFFFFFFFFFFFF AND SUB PUSH2 0x1E74 JUMPI PUSH2 0x1E6F DUP2 PUSH2 0x3078 JUMP JUMPDEST PUSH2 0x1F2B JUMP JUMPDEST PUSH3 0x13C680 TIMESTAMP PUSH2 0x1E83 SWAP2 SWAP1 PUSH2 0x4609 JUMP JUMPDEST PUSH1 0x5 PUSH1 0x14 PUSH2 0x100 EXP DUP2 SLOAD DUP2 PUSH6 0xFFFFFFFFFFFF MUL NOT AND SWAP1 DUP4 PUSH6 0xFFFFFFFFFFFF AND MUL OR SWAP1 SSTORE POP DUP1 PUSH1 0x2 PUSH0 PUSH2 0x100 EXP DUP2 SLOAD DUP2 PUSH20 0xFFFFFFFFFFFFFFFFFFFFFFFFFFFFFFFFFFFFFFFF MUL NOT AND SWAP1 DUP4 PUSH20 0xFFFFFFFFFFFFFFFFFFFFFFFFFFFFFFFFFFFFFFFF AND MUL OR SWAP1 SSTORE POP DUP1 PUSH20 0xFFFFFFFFFFFFFFFFFFFFFFFFFFFFFFFFFFFFFFFF AND PUSH32 0x30B8FE69C9B4C23CC01223881227C0CC8CBA5CC56D59263F51711DF1A8F2C667 PUSH1 0x40 MLOAD PUSH1 0x40 MLOAD DUP1 SWAP2 SUB SWAP1 LOG2 JUMPDEST PUSH2 0x1F6D JUMP JUMPDEST DUP1 PUSH1 0x40 MLOAD PUSH32 0xC632231500000000000000000000000000000000000000000000000000000000 DUP2 MSTORE PUSH1 0x4 ADD PUSH2 0x1F64 SWAP2 SWAP1 PUSH2 0x37FA JUMP JUMPDEST PUSH1 0x40 MLOAD DUP1 SWAP2 SUB SWAP1 REVERT JUMPDEST POP JUMP JUMPDEST CALLER PUSH20 0xFFFFFFFFFFFFFFFFFFFFFFFFFFFFFFFFFFFFFFFF AND DUP5 PUSH20 0xFFFFFFFFFFFFFFFFFFFFFFFFFFFFFFFFFFFFFFFF AND SUB PUSH2 0x21FB JUMPI PUSH0 PUSH2 0x1FB0 DUP6 DUP6 DUP6 DUP6 PUSH2 0x1040 JUMP JUMPDEST SWAP1 POP PUSH0 PUSH2 0x1FBC DUP3 PUSH2 0x1129 JUMP JUMPDEST SWAP1 POP PUSH1 0x4 PUSH1 0x5 DUP2 GT ISZERO PUSH2 0x1FD2 JUMPI PUSH2 0x1FD1 PUSH2 0x3AE9 JUMP JUMPDEST JUMPDEST DUP2 PUSH1 0x5 DUP2 GT ISZERO PUSH2 0x1FE5 JUMPI PUSH2 0x1FE4 PUSH2 0x3AE9 JUMP JUMPDEST JUMPDEST SUB PUSH2 0x2159 JUMPI PUSH0 PUSH1 0xA PUSH0 CALLER PUSH20 0xFFFFFFFFFFFFFFFFFFFFFFFFFFFFFFFFFFFFFFFF AND PUSH20 0xFFFFFFFFFFFFFFFFFFFFFFFFFFFFFFFFFFFFFFFF AND DUP2 MSTORE PUSH1 0x20 ADD SWAP1 DUP2 MSTORE PUSH1 0x20 ADD PUSH0 KECCAK256 PUSH0 SWAP1 SLOAD SWAP1 PUSH2 0x100 EXP SWAP1 DIV PUSH20 0xFFFFFFFFFFFFFFFFFFFFFFFFFFFFFFFFFFFFFFFF AND SWAP1 POP DUP1 PUSH20 0xFFFFFFFFFFFFFFFFFFFFFFFFFFFFFFFFFFFFFFFF AND PUSH4 0x1E9608A8 PUSH1 0x5 DUP6 PUSH1 0x40 MLOAD DUP4 PUSH4 0xFFFFFFFF AND PUSH1 0xE0 SHL DUP2 MSTORE PUSH1 0x4 ADD PUSH2 0x2086 SWAP3 SWAP2 SWAP1 PUSH2 0x4675 JUMP JUMPDEST PUSH0 PUSH1 0x40 MLOAD DUP1 DUP4 SUB DUP2 PUSH0 DUP8 DUP1 EXTCODESIZE ISZERO DUP1 ISZERO PUSH2 0x209D JUMPI PUSH0 DUP1 REVERT JUMPDEST POP GAS CALL ISZERO DUP1 ISZERO PUSH2 0x20AF JUMPI RETURNDATASIZE PUSH0 DUP1 RETURNDATACOPY RETURNDATASIZE PUSH0 REVERT JUMPDEST POP POP POP POP DUP3 PUSH1 0xA PUSH0 CALLER PUSH20 0xFFFFFFFFFFFFFFFFFFFFFFFFFFFFFFFFFFFFFFFF AND PUSH20 0xFFFFFFFFFFFFFFFFFFFFFFFFFFFFFFFFFFFFFFFF AND DUP2 MSTORE PUSH1 0x20 ADD SWAP1 DUP2 MSTORE PUSH1 0x20 ADD PUSH0 KECCAK256 PUSH0 SWAP1 SLOAD SWAP1 PUSH2 0x100 EXP SWAP1 DIV PUSH20 0xFFFFFFFFFFFFFFFFFFFFFFFFFFFFFFFFFFFFFFFF AND PUSH20 0xFFFFFFFFFFFFFFFFFFFFFFFFFFFFFFFFFFFFFFFF AND PUSH32 0x63D1CC08AAAE6E4C1E85034D4067073EA84D1113B6281A146A76156A7B3A9A31 PUSH1 0x40 MLOAD PUSH1 0x40 MLOAD DUP1 SWAP2 SUB SWAP1 LOG3 POP PUSH2 0x21F4 JUMP JUMPDEST PUSH1 0xA PUSH0 CALLER PUSH20 0xFFFFFFFFFFFFFFFFFFFFFFFFFFFFFFFFFFFFFFFF AND PUSH20 0xFFFFFFFFFFFFFFFFFFFFFFFFFFFFFFFFFFFFFFFF AND DUP2 MSTORE PUSH1 0x20 ADD SWAP1 DUP2 MSTORE PUSH1 0x20 ADD PUSH0 KECCAK256 PUSH0 SWAP1 SLOAD SWAP1 PUSH2 0x100 EXP SWAP1 DIV PUSH20 0xFFFFFFFFFFFFFFFFFFFFFFFFFFFFFFFFFFFFFFFF AND DUP3 PUSH1 0x40 MLOAD PUSH32 0x5F1E5AB600000000000000000000000000000000000000000000000000000000 DUP2 MSTORE PUSH1 0x4 ADD PUSH2 0x21EB SWAP3 SWAP2 SWAP1 PUSH2 0x469C JUMP JUMPDEST PUSH1 0x40 MLOAD DUP1 SWAP2 SUB SWAP1 REVERT JUMPDEST POP POP PUSH2 0x2238 JUMP JUMPDEST CALLER PUSH1 0x40 MLOAD PUSH32 0xDA75B54A00000000000000000000000000000000000000000000000000000000 DUP2 MSTORE PUSH1 0x4 ADD PUSH2 0x222F SWAP2 SWAP1 PUSH2 0x37FA JUMP JUMPDEST PUSH1 0x40 MLOAD DUP1 SWAP2 SUB SWAP1 REVERT JUMPDEST POP POP POP POP JUMP JUMPDEST PUSH0 PUSH1 0x7 PUSH0 ADD PUSH0 SWAP1 SLOAD SWAP1 PUSH2 0x100 EXP SWAP1 DIV PUSH20 0xFFFFFFFFFFFFFFFFFFFFFFFFFFFFFFFFFFFFFFFF AND SWAP1 POP SWAP1 JUMP JUMPDEST TIMESTAMP PUSH32 0x0 PUSH6 0xFFFFFFFFFFFF AND LT ISZERO PUSH2 0x2312 JUMPI PUSH2 0x22A0 PUSH2 0x23C9 JUMP JUMPDEST PUSH20 0xFFFFFFFFFFFFFFFFFFFFFFFFFFFFFFFFFFFFFFFF AND CALLER PUSH20 0xFFFFFFFFFFFFFFFFFFFFFFFFFFFFFFFFFFFFFFFF AND EQ PUSH2 0x230D JUMPI PUSH1 0x40 MLOAD PUSH32 0x8C379A000000000000000000000000000000000000000000000000000000000 DUP2 MSTORE PUSH1 0x4 ADD PUSH2 0x2304 SWAP1 PUSH2 0x3F3E JUMP JUMPDEST PUSH1 0x40 MLOAD DUP1 SWAP2 SUB SWAP1 REVERT JUMPDEST PUSH2 0x2399 JUMP JUMPDEST PUSH2 0x231A PUSH2 0x17CB JUMP JUMPDEST PUSH20 0xFFFFFFFFFFFFFFFFFFFFFFFFFFFFFFFFFFFFFFFF AND CALLER PUSH20 0xFFFFFFFFFFFFFFFFFFFFFFFFFFFFFFFFFFFFFFFF AND EQ DUP1 ISZERO PUSH2 0x2359 JUMPI POP PUSH2 0x2357 PUSH2 0x19B2 JUMP JUMPDEST ISZERO JUMPDEST PUSH2 0x2398 JUMPI PUSH1 0x40 MLOAD PUSH32 0x8C379A000000000000000000000000000000000000000000000000000000000 DUP2 MSTORE PUSH1 0x4 ADD PUSH2 0x238F SWAP1 PUSH2 0x3F3E JUMP JUMPDEST PUSH1 0x40 MLOAD DUP1 SWAP2 SUB SWAP1 REVERT JUMPDEST JUMPDEST PUSH2 0x23A2 DUP2 PUSH2 0x2FAE JUMP JUMPDEST PUSH2 0x23AB DUP2 PUSH2 0x2FCD JUMP JUMPDEST POP JUMP JUMPDEST PUSH0 PUSH1 0x8 PUSH0 ADD PUSH1 0x15 SWAP1 SLOAD SWAP1 PUSH2 0x100 EXP SWAP1 DIV PUSH4 0xFFFFFFFF AND SWAP1 POP SWAP1 JUMP JUMPDEST PUSH0 PUSH32 0x0 SWAP1 POP SWAP1 JUMP JUMPDEST PUSH0 CALLER PUSH20 0xFFFFFFFFFFFFFFFFFFFFFFFFFFFFFFFFFFFFFFFF AND DUP5 PUSH20 0xFFFFFFFFFFFFFFFFFFFFFFFFFFFFFFFFFFFFFFFF AND EQ PUSH2 0x245F JUMPI PUSH1 0x40 MLOAD PUSH32 0x8C379A000000000000000000000000000000000000000000000000000000000 DUP2 MSTORE PUSH1 0x4 ADD PUSH2 0x2456 SWAP1 PUSH2 0x470D JUMP JUMPDEST PUSH1 0x40 MLOAD DUP1 SWAP2 SUB SWAP1 REVERT JUMPDEST PUSH0 PUSH1 0xA PUSH0 DUP7 PUSH20 0xFFFFFFFFFFFFFFFFFFFFFFFFFFFFFFFFFFFFFFFF AND PUSH20 0xFFFFFFFFFFFFFFFFFFFFFFFFFFFFFFFFFFFFFFFF AND DUP2 MSTORE PUSH1 0x20 ADD SWAP1 DUP2 MSTORE PUSH1 0x20 ADD PUSH0 KECCAK256 PUSH0 SWAP1 SLOAD SWAP1 PUSH2 0x100 EXP SWAP1 DIV PUSH20 0xFFFFFFFFFFFFFFFFFFFFFFFFFFFFFFFFFFFFFFFF AND SWAP1 POP PUSH0 DUP4 SWAP1 POP DUP1 PUSH20 0xFFFFFFFFFFFFFFFFFFFFFFFFFFFFFFFFFFFFFFFF AND PUSH4 0xEC5BF07B PUSH1 0x40 MLOAD DUP2 PUSH4 0xFFFFFFFF AND PUSH1 0xE0 SHL DUP2 MSTORE PUSH1 0x4 ADD PUSH1 0x20 PUSH1 0x40 MLOAD DUP1 DUP4 SUB DUP2 DUP7 GAS STATICCALL ISZERO DUP1 ISZERO PUSH2 0x250C JUMPI RETURNDATASIZE PUSH0 DUP1 RETURNDATACOPY RETURNDATASIZE PUSH0 REVERT JUMPDEST POP POP POP POP PUSH1 0x40 MLOAD RETURNDATASIZE PUSH1 0x1F NOT PUSH1 0x1F DUP3 ADD AND DUP3 ADD DUP1 PUSH1 0x40 MSTORE POP DUP2 ADD SWAP1 PUSH2 0x2530 SWAP2 SWAP1 PUSH2 0x4459 JUMP JUMPDEST SWAP3 POP PUSH0 DUP3 PUSH20 0xFFFFFFFFFFFFFFFFFFFFFFFFFFFFFFFFFFFFFFFF AND PUSH4 0x13CF08B DUP6 PUSH1 0x40 MLOAD DUP3 PUSH4 0xFFFFFFFF AND PUSH1 0xE0 SHL DUP2 MSTORE PUSH1 0x4 ADD PUSH2 0x256C SWAP2 SWAP1 PUSH2 0x3A34 JUMP JUMPDEST PUSH2 0x140 PUSH1 0x40 MLOAD DUP1 DUP4 SUB DUP2 DUP7 GAS STATICCALL ISZERO DUP1 ISZERO PUSH2 0x2588 JUMPI RETURNDATASIZE PUSH0 DUP1 RETURNDATACOPY RETURNDATASIZE PUSH0 REVERT JUMPDEST POP POP POP POP PUSH1 0x40 MLOAD RETURNDATASIZE PUSH1 0x1F NOT PUSH1 0x1F DUP3 ADD AND DUP3 ADD DUP1 PUSH1 0x40 MSTORE POP DUP2 ADD SWAP1 PUSH2 0x25AC SWAP2 SWAP1 PUSH2 0x4419 JUMP JUMPDEST SWAP1 POP PUSH0 DUP2 PUSH1 0x80 ADD MLOAD PUSH6 0xFFFFFFFFFFFF AND EQ PUSH2 0x25FE JUMPI DUP4 PUSH1 0x40 MLOAD PUSH32 0x4ACE252500000000000000000000000000000000000000000000000000000000 DUP2 MSTORE PUSH1 0x4 ADD PUSH2 0x25F5 SWAP2 SWAP1 PUSH2 0x3A34 JUMP JUMPDEST PUSH1 0x40 MLOAD DUP1 SWAP2 SUB SWAP1 REVERT JUMPDEST PUSH0 DUP3 PUSH20 0xFFFFFFFFFFFFFFFFFFFFFFFFFFFFFFFFFFFFFFFF AND PUSH4 0xBC33C7D7 PUSH1 0x40 MLOAD DUP2 PUSH4 0xFFFFFFFF AND PUSH1 0xE0 SHL DUP2 MSTORE PUSH1 0x4 ADD PUSH0 PUSH1 0x40 MLOAD DUP1 DUP4 SUB DUP2 DUP7 GAS STATICCALL ISZERO DUP1 ISZERO PUSH2 0x2647 JUMPI RETURNDATASIZE PUSH0 DUP1 RETURNDATACOPY RETURNDATASIZE PUSH0 REVERT JUMPDEST POP POP POP POP PUSH1 0x40 MLOAD RETURNDATASIZE PUSH0 DUP3 RETURNDATACOPY RETURNDATASIZE PUSH1 0x1F NOT PUSH1 0x1F DUP3 ADD AND DUP3 ADD DUP1 PUSH1 0x40 MSTORE POP DUP2 ADD SWAP1 PUSH2 0x266F SWAP2 SWAP1 PUSH2 0x47DD JUMP JUMPDEST SWAP4 POP POP POP POP ADDRESS PUSH20 0xFFFFFFFFFFFFFFFFFFFFFFFFFFFFFFFFFFFFFFFF AND DUP2 PUSH20 0xFFFFFFFFFFFFFFFFFFFFFFFFFFFFFFFFFFFFFFFF AND EQ PUSH2 0x26E4 JUMPI DUP1 PUSH1 0x40 MLOAD PUSH32 0x4E5C69DD00000000000000000000000000000000000000000000000000000000 DUP2 MSTORE PUSH1 0x4 ADD PUSH2 0x26DB SWAP2 SWAP1 PUSH2 0x37FA JUMP JUMPDEST PUSH1 0x40 MLOAD DUP1 SWAP2 SUB SWAP1 REVERT JUMPDEST PUSH0 DUP1 PUSH0 DUP6 PUSH20 0xFFFFFFFFFFFFFFFFFFFFFFFFFFFFFFFFFFFFFFFF AND PUSH4 0x4731CA2B PUSH1 0x40 MLOAD DUP2 PUSH4 0xFFFFFFFF AND PUSH1 0xE0 SHL DUP2 MSTORE PUSH1 0x4 ADD PUSH1 0x60 PUSH1 0x40 MLOAD DUP1 DUP4 SUB DUP2 DUP7 GAS STATICCALL ISZERO DUP1 ISZERO PUSH2 0x2730 JUMPI RETURNDATASIZE PUSH0 DUP1 RETURNDATACOPY RETURNDATASIZE PUSH0 REVERT JUMPDEST POP POP POP POP PUSH1 0x40 MLOAD RETURNDATASIZE PUSH1 0x1F NOT PUSH1 0x1F DUP3 ADD AND DUP3 ADD DUP1 PUSH1 0x40 MSTORE POP DUP2 ADD SWAP1 PUSH2 0x2754 SWAP2 SWAP1 PUSH2 0x4879 JUMP JUMPDEST SWAP3 POP SWAP3 POP SWAP3 POP DUP3 PUSH20 0xFFFFFFFFFFFFFFFFFFFFFFFFFFFFFFFFFFFFFFFF AND DUP12 PUSH20 0xFFFFFFFFFFFFFFFFFFFFFFFFFFFFFFFFFFFFFFFF AND EQ ISZERO DUP1 PUSH2 0x27C1 JUMPI POP DUP2 PUSH20 0xFFFFFFFFFFFFFFFFFFFFFFFFFFFFFFFFFFFFFFFF AND DUP11 PUSH20 0xFFFFFFFFFFFFFFFFFFFFFFFFFFFFFFFFFFFFFFFF AND EQ ISZERO JUMPDEST DUP1 PUSH2 0x27CC JUMPI POP DUP1 DUP13 EQ ISZERO JUMPDEST ISZERO PUSH2 0x2812 JUMPI DUP3 DUP3 DUP3 PUSH1 0x40 MLOAD PUSH32 0xCB57CBF900000000000000000000000000000000000000000000000000000000 DUP2 MSTORE PUSH1 0x4 ADD PUSH2 0x2809 SWAP4 SWAP3 SWAP2 SWAP1 PUSH2 0x48C9 JUMP JUMPDEST PUSH1 0x40 MLOAD DUP1 SWAP2 SUB SWAP1 REVERT JUMPDEST PUSH0 DUP1 PUSH0 DUP1 DUP10 PUSH20 0xFFFFFFFFFFFFFFFFFFFFFFFFFFFFFFFFFFFFFFFF AND PUSH4 0xB3A05246 PUSH1 0x40 MLOAD DUP2 PUSH4 0xFFFFFFFF AND PUSH1 0xE0 SHL DUP2 MSTORE PUSH1 0x4 ADD PUSH1 0x80 PUSH1 0x40 MLOAD DUP1 DUP4 SUB DUP2 DUP7 GAS STATICCALL ISZERO DUP1 ISZERO PUSH2 0x285F JUMPI RETURNDATASIZE PUSH0 DUP1 RETURNDATACOPY RETURNDATASIZE PUSH0 REVERT JUMPDEST POP POP POP POP PUSH1 0x40 MLOAD RETURNDATASIZE PUSH1 0x1F NOT PUSH1 0x1F DUP3 ADD AND DUP3 ADD DUP1 PUSH1 0x40 MSTORE POP DUP2 ADD SWAP1 PUSH2 0x2883 SWAP2 SWAP1 PUSH2 0x48FE JUMP JUMPDEST SWAP4 POP SWAP4 POP SWAP4 POP SWAP4 POP PUSH2 0x2894 DUP5 PUSH2 0x334C JUMP JUMPDEST PUSH2 0x28D5 JUMPI DUP4 PUSH1 0x40 MLOAD PUSH32 0x95FF727F00000000000000000000000000000000000000000000000000000000 DUP2 MSTORE PUSH1 0x4 ADD PUSH2 0x28CC SWAP2 SWAP1 PUSH2 0x4971 JUMP JUMPDEST PUSH1 0x40 MLOAD DUP1 SWAP2 SUB SWAP1 REVERT JUMPDEST PUSH1 0xC PUSH0 SWAP1 SLOAD SWAP1 PUSH2 0x100 EXP SWAP1 DIV PUSH4 0xFFFFFFFF AND PUSH4 0xFFFFFFFF AND DUP4 PUSH4 0xFFFFFFFF AND LT DUP1 PUSH2 0x292A JUMPI POP PUSH1 0xC PUSH1 0x8 SWAP1 SLOAD SWAP1 PUSH2 0x100 EXP SWAP1 DIV PUSH4 0xFFFFFFFF AND PUSH4 0xFFFFFFFF AND TIMESTAMP PUSH2 0x291F SWAP2 SWAP1 PUSH2 0x4609 JUMP JUMPDEST DUP3 PUSH6 0xFFFFFFFFFFFF AND LT JUMPDEST DUP1 PUSH2 0x2954 JUMPI POP PUSH1 0xC PUSH1 0x4 SWAP1 SLOAD SWAP1 PUSH2 0x100 EXP SWAP1 DIV PUSH4 0xFFFFFFFF AND PUSH4 0xFFFFFFFF AND DUP2 PUSH6 0xFFFFFFFFFFFF AND LT JUMPDEST ISZERO PUSH2 0x299A JUMPI DUP3 DUP3 DUP3 PUSH1 0x40 MLOAD PUSH32 0x5B93D0DC00000000000000000000000000000000000000000000000000000000 DUP2 MSTORE PUSH1 0x4 ADD PUSH2 0x2991 SWAP4 SWAP3 SWAP2 SWAP1 PUSH2 0x498A JUMP JUMPDEST PUSH1 0x40 MLOAD DUP1 SWAP2 SUB SWAP1 REVERT JUMPDEST PUSH0 DUP14 SWAP1 POP DUP1 PUSH20 0xFFFFFFFFFFFFFFFFFFFFFFFFFFFFFFFFFFFFFFFF AND PUSH32 0xAB14F904FB707B2337015C668E6429CA3170390B1C36260D7739566B9C822A5 PUSH1 0x40 MLOAD PUSH1 0x40 MLOAD DUP1 SWAP2 SUB SWAP1 LOG2 DUP12 PUSH20 0xFFFFFFFFFFFFFFFFFFFFFFFFFFFFFFFFFFFFFFFF AND PUSH4 0x4A9C7CAA DUP15 DUP8 DUP8 DUP8 DUP8 DUP14 DUP9 PUSH1 0x40 MLOAD DUP9 PUSH4 0xFFFFFFFF AND PUSH1 0xE0 SHL DUP2 MSTORE PUSH1 0x4 ADD PUSH2 0x2A26 SWAP8 SWAP7 SWAP6 SWAP5 SWAP4 SWAP3 SWAP2 SWAP1 PUSH2 0x49BF JUMP JUMPDEST PUSH0 PUSH1 0x40 MLOAD DUP1 DUP4 SUB DUP2 PUSH0 DUP8 DUP1 EXTCODESIZE ISZERO DUP1 ISZERO PUSH2 0x2A3D JUMPI PUSH0 DUP1 REVERT JUMPDEST POP GAS CALL ISZERO DUP1 ISZERO PUSH2 0x2A4F JUMPI RETURNDATASIZE PUSH0 DUP1 RETURNDATACOPY RETURNDATASIZE PUSH0 REVERT JUMPDEST POP POP POP POP DUP13 PUSH32 0xABF79943A752FAB9EF8890892A82188E44E66A2CD2D8E411AE3EF82475AE49C8 PUSH1 0x40 MLOAD PUSH1 0x40 MLOAD DUP1 SWAP2 SUB SWAP1 LOG2 POP POP POP POP POP POP POP POP POP POP POP POP SWAP5 SWAP4 POP POP POP POP JUMP JUMPDEST TIMESTAMP PUSH32 0x0 PUSH6 0xFFFFFFFFFFFF AND LT ISZERO PUSH2 0x2B3E JUMPI PUSH2 0x2ACC PUSH2 0x23C9 JUMP JUMPDEST PUSH20 0xFFFFFFFFFFFFFFFFFFFFFFFFFFFFFFFFFFFFFFFF AND CALLER PUSH20 0xFFFFFFFFFFFFFFFFFFFFFFFFFFFFFFFFFFFFFFFF AND EQ PUSH2 0x2B39 JUMPI PUSH1 0x40 MLOAD PUSH32 0x8C379A000000000000000000000000000000000000000000000000000000000 DUP2 MSTORE PUSH1 0x4 ADD PUSH2 0x2B30 SWAP1 PUSH2 0x3F3E JUMP JUMPDEST PUSH1 0x40 MLOAD DUP1 SWAP2 SUB SWAP1 REVERT JUMPDEST PUSH2 0x2BC5 JUMP JUMPDEST PUSH2 0x2B46 PUSH2 0x17CB JUMP JUMPDEST PUSH20 0xFFFFFFFFFFFFFFFFFFFFFFFFFFFFFFFFFFFFFFFF AND CALLER PUSH20 0xFFFFFFFFFFFFFFFFFFFFFFFFFFFFFFFFFFFFFFFF AND EQ DUP1 ISZERO PUSH2 0x2B85 JUMPI POP PUSH2 0x2B83 PUSH2 0x19B2 JUMP JUMPDEST ISZERO JUMPDEST PUSH2 0x2BC4 JUMPI PUSH1 0x40 MLOAD PUSH32 0x8C379A000000000000000000000000000000000000000000000000000000000 DUP2 MSTORE PUSH1 0x4 ADD PUSH2 0x2BBB SWAP1 PUSH2 0x3F3E JUMP JUMPDEST PUSH1 0x40 MLOAD DUP1 SWAP2 SUB SWAP1 REVERT JUMPDEST JUMPDEST PUSH0 DUP2 PUSH20 0xFFFFFFFFFFFFFFFFFFFFFFFFFFFFFFFFFFFFFFFF AND EXTCODESIZE GT ISZERO PUSH2 0x2C6C JUMPI DUP1 PUSH1 0x3 PUSH0 PUSH2 0x100 EXP DUP2 SLOAD DUP2 PUSH20 0xFFFFFFFFFFFFFFFFFFFFFFFFFFFFFFFFFFFFFFFF MUL NOT AND SWAP1 DUP4 PUSH20 0xFFFFFFFFFFFFFFFFFFFFFFFFFFFFFFFFFFFFFFFF AND MUL OR SWAP1 SSTORE POP DUP1 PUSH20 0xFFFFFFFFFFFFFFFFFFFFFFFFFFFFFFFFFFFFFFFF AND PUSH32 0xE8D8E3C7C3EBEC0C177D0FE22D223F8B5071DB39155104808D45027E368BA77A PUSH1 0x40 MLOAD PUSH1 0x40 MLOAD DUP1 SWAP2 SUB SWAP1 LOG2 PUSH2 0x2CA9 JUMP JUMPDEST DUP1 PUSH1 0x40 MLOAD PUSH32 0x84DBC6CB00000000000000000000000000000000000000000000000000000000 DUP2 MSTORE PUSH1 0x4 ADD PUSH2 0x2CA0 SWAP2 SWAP1 PUSH2 0x37FA JUMP JUMPDEST PUSH1 0x40 MLOAD DUP1 SWAP2 SUB SWAP1 REVERT JUMPDEST POP JUMP JUMPDEST PUSH0 SWAP4 SWAP3 POP POP POP JUMP JUMPDEST PUSH0 ADDRESS SWAP1 POP SWAP1 JUMP JUMPDEST PUSH0 PUSH1 0x7 PUSH0 ADD PUSH1 0x14 SWAP1 SLOAD SWAP1 PUSH2 0x100 EXP SWAP1 DIV PUSH1 0xFF AND SWAP1 POP SWAP1 JUMP JUMPDEST PUSH2 0x2CDB PUSH2 0x17CB JUMP JUMPDEST PUSH20 0xFFFFFFFFFFFFFFFFFFFFFFFFFFFFFFFFFFFFFFFF AND CALLER PUSH20 0xFFFFFFFFFFFFFFFFFFFFFFFFFFFFFFFFFFFFFFFF AND EQ DUP1 ISZERO PUSH2 0x2D1A JUMPI POP PUSH2 0x2D18 PUSH2 0x19B2 JUMP JUMPDEST ISZERO JUMPDEST PUSH2 0x2D59 JUMPI PUSH1 0x40 MLOAD PUSH32 0x8C379A000000000000000000000000000000000000000000000000000000000 DUP2 MSTORE PUSH1 0x4 ADD PUSH2 0x2D50 SWAP1 PUSH2 0x3F3E JUMP JUMPDEST PUSH1 0x40 MLOAD DUP1 SWAP2 SUB SWAP1 REVERT JUMPDEST DUP1 PUSH20 0xFFFFFFFFFFFFFFFFFFFFFFFFFFFFFFFFFFFFFFFF AND PUSH1 0x3 PUSH0 SWAP1 SLOAD SWAP1 PUSH2 0x100 EXP SWAP1 DIV PUSH20 0xFFFFFFFFFFFFFFFFFFFFFFFFFFFFFFFFFFFFFFFF AND PUSH20 0xFFFFFFFFFFFFFFFFFFFFFFFFFFFFFFFFFFFFFFFF AND SUB PUSH2 0x2EDC JUMPI PUSH1 0x3 PUSH0 PUSH2 0x100 EXP DUP2 SLOAD SWAP1 PUSH20 0xFFFFFFFFFFFFFFFFFFFFFFFFFFFFFFFFFFFFFFFF MUL NOT AND SWAP1 SSTORE DUP1 PUSH1 0x8 PUSH0 ADD PUSH0 PUSH2 0x100 EXP DUP2 SLOAD DUP2 PUSH20 0xFFFFFFFFFFFFFFFFFFFFFFFFFFFFFFFFFFFFFFFF MUL NOT AND SWAP1 DUP4 PUSH20 0xFFFFFFFFFFFFFFFFFFFFFFFFFFFFFFFFFFFFFFFF AND MUL OR SWAP1 SSTORE POP PUSH1 0x8 PUSH0 ADD PUSH1 0x15 DUP2 DUP2 SWAP1 SLOAD SWAP1 PUSH2 0x100 EXP SWAP1 DIV PUSH4 0xFFFFFFFF AND DUP1 SWAP3 SWAP2 SWAP1 PUSH2 0x2E37 SWAP1 PUSH2 0x3FE6 JUMP JUMPDEST SWAP2 SWAP1 PUSH2 0x100 EXP DUP2 SLOAD DUP2 PUSH4 0xFFFFFFFF MUL NOT AND SWAP1 DUP4 PUSH4 0xFFFFFFFF AND MUL OR SWAP1 SSTORE POP POP PUSH1 0x8 PUSH0 ADD PUSH1 0x15 SWAP1 SLOAD SWAP1 PUSH2 0x100 EXP SWAP1 DIV PUSH4 0xFFFFFFFF AND PUSH4 0xFFFFFFFF AND PUSH1 0x8 PUSH0 ADD PUSH0 SWAP1 SLOAD SWAP1 PUSH2 0x100 EXP SWAP1 DIV PUSH20 0xFFFFFFFFFFFFFFFFFFFFFFFFFFFFFFFFFFFFFFFF AND PUSH20 0xFFFFFFFFFFFFFFFFFFFFFFFFFFFFFFFFFFFFFFFF AND PUSH32 0x5E86008A8467D1EFCCFE6CB6BD49BA7278D6AF2745A1E6994E443322A4237093 PUSH1 0x40 MLOAD PUSH1 0x40 MLOAD DUP1 SWAP2 SUB SWAP1 LOG3 PUSH2 0x2F19 JUMP JUMPDEST DUP1 PUSH1 0x40 MLOAD PUSH32 0x84DBC6CB00000000000000000000000000000000000000000000000000000000 DUP2 MSTORE PUSH1 0x4 ADD PUSH2 0x2F10 SWAP2 SWAP1 PUSH2 0x37FA JUMP JUMPDEST PUSH1 0x40 MLOAD DUP1 SWAP2 SUB SWAP1 REVERT JUMPDEST POP JUMP JUMPDEST PUSH2 0x2F24 PUSH2 0x17CB JUMP JUMPDEST PUSH20 0xFFFFFFFFFFFFFFFFFFFFFFFFFFFFFFFFFFFFFFFF AND CALLER PUSH20 0xFFFFFFFFFFFFFFFFFFFFFFFFFFFFFFFFFFFFFFFF AND EQ DUP1 ISZERO PUSH2 0x2F63 JUMPI POP PUSH2 0x2F61 PUSH2 0x19B2 JUMP JUMPDEST ISZERO JUMPDEST PUSH2 0x2FA2 JUMPI PUSH1 0x40 MLOAD PUSH32 0x8C379A000000000000000000000000000000000000000000000000000000000 DUP2 MSTORE PUSH1 0x4 ADD PUSH2 0x2F99 SWAP1 PUSH2 0x3F3E JUMP JUMPDEST PUSH1 0x40 MLOAD DUP1 SWAP2 SUB SWAP1 REVERT JUMPDEST PUSH2 0x2FAB DUP2 PUSH2 0x2FCD JUMP JUMPDEST POP JUMP JUMPDEST DUP1 PUSH1 0x6 PUSH0 ADD PUSH1 0x14 PUSH2 0x100 EXP DUP2 SLOAD DUP2 PUSH1 0xFF MUL NOT AND SWAP1 DUP4 ISZERO ISZERO MUL OR SWAP1 SSTORE POP POP JUMP JUMPDEST DUP1 PUSH1 0x7 PUSH0 ADD PUSH1 0x14 PUSH2 0x100 EXP DUP2 SLOAD DUP2 PUSH1 0xFF MUL NOT AND SWAP1 DUP4 ISZERO ISZERO MUL OR SWAP1 SSTORE POP PUSH1 0x8 PUSH0 ADD PUSH0 SWAP1 SLOAD SWAP1 PUSH2 0x100 EXP SWAP1 DIV PUSH20 0xFFFFFFFFFFFFFFFFFFFFFFFFFFFFFFFFFFFFFFFF AND PUSH20 0xFFFFFFFFFFFFFFFFFFFFFFFFFFFFFFFFFFFFFFFF AND PUSH4 0x863AD595 DUP3 PUSH1 0x4 PUSH1 0x40 MLOAD DUP4 PUSH4 0xFFFFFFFF AND PUSH1 0xE0 SHL DUP2 MSTORE PUSH1 0x4 ADD PUSH2 0x3048 SWAP3 SWAP2 SWAP1 PUSH2 0x4A2C JUMP JUMPDEST PUSH0 PUSH1 0x40 MLOAD DUP1 DUP4 SUB DUP2 PUSH0 DUP8 DUP1 EXTCODESIZE ISZERO DUP1 ISZERO PUSH2 0x305F JUMPI PUSH0 DUP1 REVERT JUMPDEST POP GAS CALL ISZERO DUP1 ISZERO PUSH2 0x3071 JUMPI RETURNDATASIZE PUSH0 DUP1 RETURNDATACOPY RETURNDATASIZE PUSH0 REVERT JUMPDEST POP POP POP POP POP JUMP JUMPDEST PUSH1 0x8 PUSH0 ADD PUSH0 SWAP1 SLOAD SWAP1 PUSH2 0x100 EXP SWAP1 DIV PUSH20 0xFFFFFFFFFFFFFFFFFFFFFFFFFFFFFFFFFFFFFFFF AND PUSH20 0xFFFFFFFFFFFFFFFFFFFFFFFFFFFFFFFFFFFFFFFF AND PUSH4 0xC92A788C PUSH1 0x1 PUSH1 0x9 PUSH0 ADD PUSH0 SWAP1 SLOAD SWAP1 PUSH2 0x100 EXP SWAP1 DIV PUSH20 0xFFFFFFFFFFFFFFFFFFFFFFFFFFFFFFFFFFFFFFFF AND DUP5 PUSH1 0x2 PUSH3 0x15180 PUSH1 0x40 MLOAD DUP7 PUSH4 0xFFFFFFFF AND PUSH1 0xE0 SHL DUP2 MSTORE PUSH1 0x4 ADD PUSH2 0x3104 SWAP6 SWAP5 SWAP4 SWAP3 SWAP2 SWAP1 PUSH2 0x4A98 JUMP JUMPDEST PUSH0 PUSH1 0x40 MLOAD DUP1 DUP4 SUB DUP2 PUSH0 DUP8 DUP1 EXTCODESIZE ISZERO DUP1 ISZERO PUSH2 0x311B JUMPI PUSH0 DUP1 REVERT JUMPDEST POP GAS CALL ISZERO DUP1 ISZERO PUSH2 0x312D JUMPI RETURNDATASIZE PUSH0 DUP1 RETURNDATACOPY RETURNDATASIZE PUSH0 REVERT JUMPDEST POP POP POP POP DUP1 PUSH1 0x9 PUSH0 ADD PUSH0 PUSH2 0x100 EXP DUP2 SLOAD DUP2 PUSH20 0xFFFFFFFFFFFFFFFFFFFFFFFFFFFFFFFFFFFFFFFF MUL NOT AND SWAP1 DUP4 PUSH20 0xFFFFFFFFFFFFFFFFFFFFFFFFFFFFFFFFFFFFFFFF AND MUL OR SWAP1 SSTORE POP PUSH1 0x9 PUSH0 ADD PUSH1 0x15 DUP2 DUP2 SWAP1 SLOAD SWAP1 PUSH2 0x100 EXP SWAP1 DIV PUSH4 0xFFFFFFFF AND DUP1 SWAP3 SWAP2 SWAP1 PUSH2 0x3197 SWAP1 PUSH2 0x3FE6 JUMP JUMPDEST SWAP2 SWAP1 PUSH2 0x100 EXP DUP2 SLOAD DUP2 PUSH4 0xFFFFFFFF MUL NOT AND SWAP1 DUP4 PUSH4 0xFFFFFFFF AND MUL OR SWAP1 SSTORE POP POP PUSH1 0x9 PUSH0 ADD PUSH1 0x15 SWAP1 SLOAD SWAP1 PUSH2 0x100 EXP SWAP1 DIV PUSH4 0xFFFFFFFF AND PUSH4 0xFFFFFFFF AND PUSH1 0x9 PUSH0 ADD PUSH0 SWAP1 SLOAD SWAP1 PUSH2 0x100 EXP SWAP1 DIV PUSH20 0xFFFFFFFFFFFFFFFFFFFFFFFFFFFFFFFFFFFFFFFF AND PUSH20 0xFFFFFFFFFFFFFFFFFFFFFFFFFFFFFFFFFFFFFFFF AND PUSH32 0xB88EF4C2B55163ED88BCF28DADFEE0092169B7A9A712CEB09FF75E6D2D4BA63B PUSH1 0x40 MLOAD PUSH1 0x40 MLOAD DUP1 SWAP2 SUB SWAP1 LOG3 POP JUMP JUMPDEST PUSH0 DUP1 DUP3 PUSH1 0x20 ADD MLOAD SWAP1 POP PUSH0 DUP2 SWAP1 POP PUSH0 DUP2 PUSH20 0xFFFFFFFFFFFFFFFFFFFFFFFFFFFFFFFFFFFFFFFF AND PUSH4 0xCFB62DEE PUSH1 0x40 MLOAD DUP2 PUSH4 0xFFFFFFFF AND PUSH1 0xE0 SHL DUP2 MSTORE PUSH1 0x4 ADD PUSH1 0x20 PUSH1 0x40 MLOAD DUP1 DUP4 SUB DUP2 PUSH0 DUP8 GAS CALL ISZERO DUP1 ISZERO PUSH2 0x3292 JUMPI RETURNDATASIZE PUSH0 DUP1 RETURNDATACOPY RETURNDATASIZE PUSH0 REVERT JUMPDEST POP POP POP POP PUSH1 0x40 MLOAD RETURNDATASIZE PUSH1 0x1F NOT PUSH1 0x1F DUP3 ADD AND DUP3 ADD DUP1 PUSH1 0x40 MSTORE POP DUP2 ADD SWAP1 PUSH2 0x32B6 SWAP2 SWAP1 PUSH2 0x4AF5 JUMP JUMPDEST SWAP1 POP DUP1 ISZERO PUSH2 0x32CA JUMPI PUSH1 0x4 SWAP4 POP POP POP POP PUSH2 0x32D2 JUMP JUMPDEST PUSH1 0x3 SWAP4 POP POP POP POP JUMPDEST SWAP2 SWAP1 POP JUMP JUMPDEST PUSH1 0x60 PUSH2 0x330C PUSH0 PUSH32 0x0 PUSH2 0x353E SWAP1 SWAP2 SWAP1 PUSH4 0xFFFFFFFF AND JUMP JUMPDEST SWAP1 POP SWAP1 JUMP JUMPDEST PUSH1 0x60 PUSH2 0x3347 PUSH1 0x1 PUSH32 0x0 PUSH2 0x353E SWAP1 SWAP2 SWAP1 PUSH4 0xFFFFFFFF AND JUMP JUMPDEST SWAP1 POP SWAP1 JUMP JUMPDEST PUSH0 DUP1 PUSH1 0xA PUSH0 CALLER PUSH20 0xFFFFFFFFFFFFFFFFFFFFFFFFFFFFFFFFFFFFFFFF AND PUSH20 0xFFFFFFFFFFFFFFFFFFFFFFFFFFFFFFFFFFFFFFFF AND DUP2 MSTORE PUSH1 0x20 ADD SWAP1 DUP2 MSTORE PUSH1 0x20 ADD PUSH0 KECCAK256 PUSH0 SWAP1 SLOAD SWAP1 PUSH2 0x100 EXP SWAP1 DIV PUSH20 0xFFFFFFFFFFFFFFFFFFFFFFFFFFFFFFFFFFFFFFFF AND SWAP1 POP PUSH0 DUP2 PUSH20 0xFFFFFFFFFFFFFFFFFFFFFFFFFFFFFFFFFFFFFFFF AND PUSH4 0xC34FE703 PUSH1 0x40 MLOAD DUP2 PUSH4 0xFFFFFFFF AND PUSH1 0xE0 SHL DUP2 MSTORE PUSH1 0x4 ADD PUSH2 0x33E5 SWAP1 PUSH2 0x4B46 JUMP JUMPDEST PUSH2 0x9620 PUSH1 0x40 MLOAD DUP1 DUP4 SUB DUP2 DUP7 GAS STATICCALL ISZERO DUP1 ISZERO PUSH2 0x3401 JUMPI RETURNDATASIZE PUSH0 DUP1 RETURNDATACOPY RETURNDATASIZE PUSH0 REVERT JUMPDEST POP POP POP POP PUSH1 0x40 MLOAD RETURNDATASIZE PUSH1 0x1F NOT PUSH1 0x1F DUP3 ADD AND DUP3 ADD DUP1 PUSH1 0x40 MSTORE POP DUP2 ADD SWAP1 PUSH2 0x3425 SWAP2 SWAP1 PUSH2 0x4C10 JUMP JUMPDEST SWAP1 POP PUSH0 TIMESTAMP SWAP1 POP PUSH0 PUSH3 0x4F1A00 DUP3 PUSH2 0x343B SWAP2 SWAP1 PUSH2 0x4C3C JUMP JUMPDEST SWAP1 POP PUSH0 DUP1 PUSH1 0x1 SWAP1 POP JUMPDEST PUSH2 0x4B0 DUP2 PUSH2 0xFFFF AND GT PUSH2 0x34D1 JUMPI PUSH0 DUP6 DUP3 PUSH2 0xFFFF AND PUSH2 0x4B1 DUP2 LT PUSH2 0x346A JUMPI PUSH2 0x3469 PUSH2 0x4C6F JUMP JUMPDEST JUMPDEST PUSH1 0x20 MUL ADD MLOAD PUSH6 0xFFFFFFFFFFFF AND SUB ISZERO PUSH2 0x34D1 JUMPI DUP5 DUP2 PUSH2 0xFFFF AND PUSH2 0x4B1 DUP2 LT PUSH2 0x3495 JUMPI PUSH2 0x3494 PUSH2 0x4C6F JUMP JUMPDEST JUMPDEST PUSH1 0x20 MUL ADD MLOAD PUSH6 0xFFFFFFFFFFFF AND DUP4 PUSH6 0xFFFFFFFFFFFF AND LT ISZERO PUSH2 0x34BE JUMPI DUP2 PUSH2 0x34BB SWAP1 PUSH2 0x4C9C JUMP JUMPDEST SWAP2 POP JUMPDEST DUP1 DUP1 PUSH2 0x34C9 SWAP1 PUSH2 0x4C9C JUMP JUMPDEST SWAP2 POP POP PUSH2 0x3444 JUMP JUMPDEST PUSH1 0x2 DUP2 PUSH2 0x34DE SWAP2 SWAP1 PUSH2 0x4CF2 JUMP JUMPDEST PUSH2 0xFFFF AND DUP9 PUSH2 0xFFFF AND GT ISZERO PUSH2 0x34FC JUMPI PUSH1 0x1 SWAP7 POP POP POP POP POP POP POP PUSH2 0x3539 JUMP JUMPDEST PUSH1 0x46 PUSH1 0x64 DUP4 DUP11 PUSH2 0x350C SWAP2 SWAP1 PUSH2 0x4CF2 JUMP JUMPDEST PUSH2 0x3516 SWAP2 SWAP1 PUSH2 0x4D22 JUMP JUMPDEST PUSH2 0xFFFF AND GT ISZERO PUSH2 0x352F JUMPI PUSH1 0x1 SWAP7 POP POP POP POP POP POP POP PUSH2 0x3539 JUMP JUMPDEST PUSH0 SWAP7 POP POP POP POP POP POP POP JUMPDEST SWAP2 SWAP1 POP JUMP JUMPDEST PUSH1 0x60 PUSH1 0xFF PUSH0 SHL DUP4 EQ PUSH2 0x355A JUMPI PUSH2 0x3553 DUP4 PUSH2 0x35EB JUMP JUMPDEST SWAP1 POP PUSH2 0x35E5 JUMP JUMPDEST DUP2 DUP1 SLOAD PUSH2 0x3566 SWAP1 PUSH2 0x3F89 JUMP JUMPDEST DUP1 PUSH1 0x1F ADD PUSH1 0x20 DUP1 SWAP2 DIV MUL PUSH1 0x20 ADD PUSH1 0x40 MLOAD SWAP1 DUP2 ADD PUSH1 0x40 MSTORE DUP1 SWAP3 SWAP2 SWAP1 DUP2 DUP2 MSTORE PUSH1 0x20 ADD DUP3 DUP1 SLOAD PUSH2 0x3592 SWAP1 PUSH2 0x3F89 JUMP JUMPDEST DUP1 ISZERO PUSH2 0x35DD JUMPI DUP1 PUSH1 0x1F LT PUSH2 0x35B4 JUMPI PUSH2 0x100 DUP1 DUP4 SLOAD DIV MUL DUP4 MSTORE SWAP2 PUSH1 0x20 ADD SWAP2 PUSH2 0x35DD JUMP JUMPDEST DUP3 ADD SWAP2 SWAP1 PUSH0 MSTORE PUSH1 0x20 PUSH0 KECCAK256 SWAP1 JUMPDEST DUP2 SLOAD DUP2 MSTORE SWAP1 PUSH1 0x1 ADD SWAP1 PUSH1 0x20 ADD DUP1 DUP4 GT PUSH2 0x35C0 JUMPI DUP3 SWAP1 SUB PUSH1 0x1F AND DUP3 ADD SWAP2 JUMPDEST POP POP POP POP POP SWAP1 POP JUMPDEST SWAP3 SWAP2 POP POP JUMP JUMPDEST PUSH1 0x60 PUSH0 PUSH2 0x35F7 DUP4 PUSH2 0x365D JUMP JUMPDEST SWAP1 POP PUSH0 PUSH1 0x20 PUSH8 0xFFFFFFFFFFFFFFFF DUP2 GT ISZERO PUSH2 0x3615 JUMPI PUSH2 0x3614 PUSH2 0x384E JUMP JUMPDEST JUMPDEST PUSH1 0x40 MLOAD SWAP1 DUP1 DUP3 MSTORE DUP1 PUSH1 0x1F ADD PUSH1 0x1F NOT AND PUSH1 0x20 ADD DUP3 ADD PUSH1 0x40 MSTORE DUP1 ISZERO PUSH2 0x3647 JUMPI DUP2 PUSH1 0x20 ADD PUSH1 0x1 DUP3 MUL DUP1 CALLDATASIZE DUP4 CALLDATACOPY DUP1 DUP3 ADD SWAP2 POP POP SWAP1 POP JUMPDEST POP SWAP1 POP DUP2 DUP2 MSTORE DUP4 PUSH1 0x20 DUP3 ADD MSTORE DUP1 SWAP3 POP POP POP SWAP2 SWAP1 POP JUMP JUMPDEST PUSH0 DUP1 PUSH1 0xFF DUP4 PUSH0 SHR AND SWAP1 POP PUSH1 0x1F DUP2 GT ISZERO PUSH2 0x36A2 JUMPI PUSH1 0x40 MLOAD PUSH32 0xB3512B0C00000000000000000000000000000000000000000000000000000000 DUP2 MSTORE PUSH1 0x4 ADD PUSH1 0x40 MLOAD DUP1 SWAP2 SUB SWAP1 REVERT JUMPDEST DUP1 SWAP2 POP POP SWAP2 SWAP1 POP JUMP JUMPDEST PUSH0 PUSH1 0x40 MLOAD SWAP1 POP SWAP1 JUMP JUMPDEST PUSH0 DUP1 REVERT JUMPDEST PUSH0 DUP1 REVERT JUMPDEST PUSH0 PUSH20 0xFFFFFFFFFFFFFFFFFFFFFFFFFFFFFFFFFFFFFFFF DUP3 AND SWAP1 POP SWAP2 SWAP1 POP JUMP JUMPDEST PUSH0 PUSH2 0x36E5 DUP3 PUSH2 0x36BC JUMP JUMPDEST SWAP1 POP SWAP2 SWAP1 POP JUMP JUMPDEST PUSH2 0x36F5 DUP2 PUSH2 0x36DB JUMP JUMPDEST DUP2 EQ PUSH2 0x36FF JUMPI PUSH0 DUP1 REVERT JUMPDEST POP JUMP JUMPDEST PUSH0 DUP2 CALLDATALOAD SWAP1 POP PUSH2 0x3710 DUP2 PUSH2 0x36EC JUMP JUMPDEST SWAP3 SWAP2 POP POP JUMP JUMPDEST PUSH0 PUSH1 0x20 DUP3 DUP5 SUB SLT ISZERO PUSH2 0x372B JUMPI PUSH2 0x372A PUSH2 0x36B4 JUMP JUMPDEST JUMPDEST PUSH0 PUSH2 0x3738 DUP5 DUP3 DUP6 ADD PUSH2 0x3702 JUMP JUMPDEST SWAP2 POP POP SWAP3 SWAP2 POP POP JUMP JUMPDEST PUSH0 DUP2 MLOAD SWAP1 POP SWAP2 SWAP1 POP JUMP JUMPDEST PUSH0 DUP3 DUP3 MSTORE PUSH1 0x20 DUP3 ADD SWAP1 POP SWAP3 SWAP2 POP POP JUMP JUMPDEST PUSH0 JUMPDEST DUP4 DUP2 LT ISZERO PUSH2 0x3778 JUMPI DUP1 DUP3 ADD MLOAD DUP2 DUP5 ADD MSTORE PUSH1 0x20 DUP2 ADD SWAP1 POP PUSH2 0x375D JUMP JUMPDEST PUSH0 DUP5 DUP5 ADD MSTORE POP POP POP POP JUMP JUMPDEST PUSH0 PUSH1 0x1F NOT PUSH1 0x1F DUP4 ADD AND SWAP1 POP SWAP2 SWAP1 POP JUMP JUMPDEST PUSH0 PUSH2 0x379D DUP3 PUSH2 0x3741 JUMP JUMPDEST PUSH2 0x37A7 DUP2 DUP6 PUSH2 0x374B JUMP JUMPDEST SWAP4 POP PUSH2 0x37B7 DUP2 DUP6 PUSH1 0x20 DUP7 ADD PUSH2 0x375B JUMP JUMPDEST PUSH2 0x37C0 DUP2 PUSH2 0x3783 JUMP JUMPDEST DUP5 ADD SWAP2 POP POP SWAP3 SWAP2 POP POP JUMP JUMPDEST PUSH0 PUSH1 0x20 DUP3 ADD SWAP1 POP DUP2 DUP2 SUB PUSH0 DUP4 ADD MSTORE PUSH2 0x37E3 DUP2 DUP5 PUSH2 0x3793 JUMP JUMPDEST SWAP1 POP SWAP3 SWAP2 POP POP JUMP JUMPDEST PUSH2 0x37F4 DUP2 PUSH2 0x36DB JUMP JUMPDEST DUP3 MSTORE POP POP JUMP JUMPDEST PUSH0 PUSH1 0x20 DUP3 ADD SWAP1 POP PUSH2 0x380D PUSH0 DUP4 ADD DUP5 PUSH2 0x37EB JUMP JUMPDEST SWAP3 SWAP2 POP POP JUMP JUMPDEST PUSH0 DUP2 SWAP1 POP SWAP2 SWAP1 POP JUMP JUMPDEST PUSH2 0x3825 DUP2 PUSH2 0x3813 JUMP JUMPDEST DUP2 EQ PUSH2 0x382F JUMPI PUSH0 DUP1 REVERT JUMPDEST POP JUMP JUMPDEST PUSH0 DUP2 CALLDATALOAD SWAP1 POP PUSH2 0x3840 DUP2 PUSH2 0x381C JUMP JUMPDEST SWAP3 SWAP2 POP POP JUMP JUMPDEST PUSH0 DUP1 REVERT JUMPDEST PUSH0 DUP1 REVERT JUMPDEST PUSH32 0x4E487B7100000000000000000000000000000000000000000000000000000000 PUSH0 MSTORE PUSH1 0x41 PUSH1 0x4 MSTORE PUSH1 0x24 PUSH0 REVERT JUMPDEST PUSH2 0x3884 DUP3 PUSH2 0x3783 JUMP JUMPDEST DUP2 ADD DUP2 DUP2 LT PUSH8 0xFFFFFFFFFFFFFFFF DUP3 GT OR ISZERO PUSH2 0x38A3 JUMPI PUSH2 0x38A2 PUSH2 0x384E JUMP JUMPDEST JUMPDEST DUP1 PUSH1 0x40 MSTORE POP POP POP JUMP JUMPDEST PUSH0 PUSH2 0x38B5 PUSH2 0x36AB JUMP JUMPDEST SWAP1 POP PUSH2 0x38C1 DUP3 DUP3 PUSH2 0x387B JUMP JUMPDEST SWAP2 SWAP1 POP JUMP JUMPDEST PUSH0 PUSH8 0xFFFFFFFFFFFFFFFF DUP3 GT ISZERO PUSH2 0x38E0 JUMPI PUSH2 0x38DF PUSH2 0x384E JUMP JUMPDEST JUMPDEST PUSH2 0x38E9 DUP3 PUSH2 0x3783 JUMP JUMPDEST SWAP1 POP PUSH1 0x20 DUP2 ADD SWAP1 POP SWAP2 SWAP1 POP JUMP JUMPDEST DUP3 DUP2 DUP4 CALLDATACOPY PUSH0 DUP4 DUP4 ADD MSTORE POP POP POP JUMP JUMPDEST PUSH0 PUSH2 0x3916 PUSH2 0x3911 DUP5 PUSH2 0x38C6 JUMP JUMPDEST PUSH2 0x38AC JUMP JUMPDEST SWAP1 POP DUP3 DUP2 MSTORE PUSH1 0x20 DUP2 ADD DUP5 DUP5 DUP5 ADD GT ISZERO PUSH2 0x3932 JUMPI PUSH2 0x3931 PUSH2 0x384A JUMP JUMPDEST JUMPDEST PUSH2 0x393D DUP5 DUP3 DUP6 PUSH2 0x38F6 JUMP JUMPDEST POP SWAP4 SWAP3 POP POP POP JUMP JUMPDEST PUSH0 DUP3 PUSH1 0x1F DUP4 ADD SLT PUSH2 0x3959 JUMPI PUSH2 0x3958 PUSH2 0x3846 JUMP JUMPDEST JUMPDEST DUP2 CALLDATALOAD PUSH2 0x3969 DUP5 DUP3 PUSH1 0x20 DUP7 ADD PUSH2 0x3904 JUMP JUMPDEST SWAP2 POP POP SWAP3 SWAP2 POP POP JUMP JUMPDEST PUSH0 DUP2 SWAP1 POP SWAP2 SWAP1 POP JUMP JUMPDEST PUSH2 0x3984 DUP2 PUSH2 0x3972 JUMP JUMPDEST DUP2 EQ PUSH2 0x398E JUMPI PUSH0 DUP1 REVERT JUMPDEST POP JUMP JUMPDEST PUSH0 DUP2 CALLDATALOAD SWAP1 POP PUSH2 0x399F DUP2 PUSH2 0x397B JUMP JUMPDEST SWAP3 SWAP2 POP POP JUMP JUMPDEST PUSH0 DUP1 PUSH0 DUP1 PUSH1 0x80 DUP6 DUP8 SUB SLT ISZERO PUSH2 0x39BD JUMPI PUSH2 0x39BC PUSH2 0x36B4 JUMP JUMPDEST JUMPDEST PUSH0 PUSH2 0x39CA DUP8 DUP3 DUP9 ADD PUSH2 0x3702 JUMP JUMPDEST SWAP5 POP POP PUSH1 0x20 PUSH2 0x39DB DUP8 DUP3 DUP9 ADD PUSH2 0x3832 JUMP JUMPDEST SWAP4 POP POP PUSH1 0x40 DUP6 ADD CALLDATALOAD PUSH8 0xFFFFFFFFFFFFFFFF DUP2 GT ISZERO PUSH2 0x39FC JUMPI PUSH2 0x39FB PUSH2 0x36B8 JUMP JUMPDEST JUMPDEST PUSH2 0x3A08 DUP8 DUP3 DUP9 ADD PUSH2 0x3945 JUMP JUMPDEST SWAP3 POP POP PUSH1 0x60 PUSH2 0x3A19 DUP8 DUP3 DUP9 ADD PUSH2 0x3991 JUMP JUMPDEST SWAP2 POP POP SWAP3 SWAP6 SWAP2 SWAP5 POP SWAP3 POP JUMP JUMPDEST PUSH2 0x3A2E DUP2 PUSH2 0x3813 JUMP JUMPDEST DUP3 MSTORE POP POP JUMP JUMPDEST PUSH0 PUSH1 0x20 DUP3 ADD SWAP1 POP PUSH2 0x3A47 PUSH0 DUP4 ADD DUP5 PUSH2 0x3A25 JUMP JUMPDEST SWAP3 SWAP2 POP POP JUMP JUMPDEST PUSH0 DUP2 ISZERO ISZERO SWAP1 POP SWAP2 SWAP1 POP JUMP JUMPDEST PUSH2 0x3A61 DUP2 PUSH2 0x3A4D JUMP JUMPDEST DUP3 MSTORE POP POP JUMP JUMPDEST PUSH0 PUSH1 0x20 DUP3 ADD SWAP1 POP PUSH2 0x3A7A PUSH0 DUP4 ADD DUP5 PUSH2 0x3A58 JUMP JUMPDEST SWAP3 SWAP2 POP POP JUMP JUMPDEST PUSH0 DUP1 PUSH1 0x40 DUP4 DUP6 SUB SLT ISZERO PUSH2 0x3A96 JUMPI PUSH2 0x3A95 PUSH2 0x36B4 JUMP JUMPDEST JUMPDEST PUSH0 PUSH2 0x3AA3 DUP6 DUP3 DUP7 ADD PUSH2 0x3702 JUMP JUMPDEST SWAP3 POP POP PUSH1 0x20 PUSH2 0x3AB4 DUP6 DUP3 DUP7 ADD PUSH2 0x3702 JUMP JUMPDEST SWAP2 POP POP SWAP3 POP SWAP3 SWAP1 POP JUMP JUMPDEST PUSH0 PUSH1 0x20 DUP3 DUP5 SUB SLT ISZERO PUSH2 0x3AD3 JUMPI PUSH2 0x3AD2 PUSH2 0x36B4 JUMP JUMPDEST JUMPDEST PUSH0 PUSH2 0x3AE0 DUP5 DUP3 DUP6 ADD PUSH2 0x3832 JUMP JUMPDEST SWAP2 POP POP SWAP3 SWAP2 POP POP JUMP JUMPDEST PUSH32 0x4E487B7100000000000000000000000000000000000000000000000000000000 PUSH0 MSTORE PUSH1 0x21 PUSH1 0x4 MSTORE PUSH1 0x24 PUSH0 REVERT JUMPDEST PUSH1 0x6 DUP2 LT PUSH2 0x3B27 JUMPI PUSH2 0x3B26 PUSH2 0x3AE9 JUMP JUMPDEST JUMPDEST POP JUMP JUMPDEST PUSH0 DUP2 SWAP1 POP PUSH2 0x3B37 DUP3 PUSH2 0x3B16 JUMP JUMPDEST SWAP2 SWAP1 POP JUMP JUMPDEST PUSH0 PUSH2 0x3B46 DUP3 PUSH2 0x3B2A JUMP JUMPDEST SWAP1 POP SWAP2 SWAP1 POP JUMP JUMPDEST PUSH2 0x3B56 DUP2 PUSH2 0x3B3C JUMP JUMPDEST DUP3 MSTORE POP POP JUMP JUMPDEST PUSH0 PUSH1 0x20 DUP3 ADD SWAP1 POP PUSH2 0x3B6F PUSH0 DUP4 ADD DUP5 PUSH2 0x3B4D JUMP JUMPDEST SWAP3 SWAP2 POP POP JUMP JUMPDEST PUSH0 PUSH4 0xFFFFFFFF DUP3 AND SWAP1 POP SWAP2 SWAP1 POP JUMP JUMPDEST PUSH2 0x3B8D DUP2 PUSH2 0x3B75 JUMP JUMPDEST DUP2 EQ PUSH2 0x3B97 JUMPI PUSH0 DUP1 REVERT JUMPDEST POP JUMP JUMPDEST PUSH0 DUP2 CALLDATALOAD SWAP1 POP PUSH2 0x3BA8 DUP2 PUSH2 0x3B84 JUMP JUMPDEST SWAP3 SWAP2 POP POP JUMP JUMPDEST PUSH0 DUP1 PUSH1 0x40 DUP4 DUP6 SUB SLT ISZERO PUSH2 0x3BC4 JUMPI PUSH2 0x3BC3 PUSH2 0x36B4 JUMP JUMPDEST JUMPDEST PUSH0 PUSH2 0x3BD1 DUP6 DUP3 DUP7 ADD PUSH2 0x3B9A JUMP JUMPDEST SWAP3 POP POP PUSH1 0x20 PUSH2 0x3BE2 DUP6 DUP3 DUP7 ADD PUSH2 0x3991 JUMP JUMPDEST SWAP2 POP POP SWAP3 POP SWAP3 SWAP1 POP JUMP JUMPDEST PUSH0 PUSH32 0xFF00000000000000000000000000000000000000000000000000000000000000 DUP3 AND SWAP1 POP SWAP2 SWAP1 POP JUMP JUMPDEST PUSH2 0x3C20 DUP2 PUSH2 0x3BEC JUMP JUMPDEST DUP3 MSTORE POP POP JUMP JUMPDEST PUSH2 0x3C2F DUP2 PUSH2 0x3972 JUMP JUMPDEST DUP3 MSTORE POP POP JUMP JUMPDEST PUSH0 DUP2 MLOAD SWAP1 POP SWAP2 SWAP1 POP JUMP JUMPDEST PUSH0 DUP3 DUP3 MSTORE PUSH1 0x20 DUP3 ADD SWAP1 POP SWAP3 SWAP2 POP POP JUMP JUMPDEST PUSH0 DUP2 SWAP1 POP PUSH1 0x20 DUP3 ADD SWAP1 POP SWAP2 SWAP1 POP JUMP JUMPDEST PUSH2 0x3C67 DUP2 PUSH2 0x3813 JUMP JUMPDEST DUP3 MSTORE POP POP JUMP JUMPDEST PUSH0 PUSH2 0x3C78 DUP4 DUP4 PUSH2 0x3C5E JUMP JUMPDEST PUSH1 0x20 DUP4 ADD SWAP1 POP SWAP3 SWAP2 POP POP JUMP JUMPDEST PUSH0 PUSH1 0x20 DUP3 ADD SWAP1 POP SWAP2 SWAP1 POP JUMP JUMPDEST PUSH0 PUSH2 0x3C9A DUP3 PUSH2 0x3C35 JUMP JUMPDEST PUSH2 0x3CA4 DUP2 DUP6 PUSH2 0x3C3F JUMP JUMPDEST SWAP4 POP PUSH2 0x3CAF DUP4 PUSH2 0x3C4F JUMP JUMPDEST DUP1 PUSH0 JUMPDEST DUP4 DUP2 LT ISZERO PUSH2 0x3CDF JUMPI DUP2 MLOAD PUSH2 0x3CC6 DUP9 DUP3 PUSH2 0x3C6D JUMP JUMPDEST SWAP8 POP PUSH2 0x3CD1 DUP4 PUSH2 0x3C84 JUMP JUMPDEST SWAP3 POP POP PUSH1 0x1 DUP2 ADD SWAP1 POP PUSH2 0x3CB2 JUMP JUMPDEST POP DUP6 SWAP4 POP POP POP POP SWAP3 SWAP2 POP POP JUMP JUMPDEST PUSH0 PUSH1 0xE0 DUP3 ADD SWAP1 POP PUSH2 0x3CFF PUSH0 DUP4 ADD DUP11 PUSH2 0x3C17 JUMP JUMPDEST DUP2 DUP2 SUB PUSH1 0x20 DUP4 ADD MSTORE PUSH2 0x3D11 DUP2 DUP10 PUSH2 0x3793 JUMP JUMPDEST SWAP1 POP DUP2 DUP2 SUB PUSH1 0x40 DUP4 ADD MSTORE PUSH2 0x3D25 DUP2 DUP9 PUSH2 0x3793 JUMP JUMPDEST SWAP1 POP PUSH2 0x3D34 PUSH1 0x60 DUP4 ADD DUP8 PUSH2 0x3A25 JUMP JUMPDEST PUSH2 0x3D41 PUSH1 0x80 DUP4 ADD DUP7 PUSH2 0x37EB JUMP JUMPDEST PUSH2 0x3D4E PUSH1 0xA0 DUP4 ADD DUP6 PUSH2 0x3C26 JUMP JUMPDEST DUP2 DUP2 SUB PUSH1 0xC0 DUP4 ADD MSTORE PUSH2 0x3D60 DUP2 DUP5 PUSH2 0x3C90 JUMP JUMPDEST SWAP1 POP SWAP9 SWAP8 POP POP POP POP POP POP POP POP JUMP JUMPDEST PUSH2 0x3D77 DUP2 PUSH2 0x3A4D JUMP JUMPDEST DUP2 EQ PUSH2 0x3D81 JUMPI PUSH0 DUP1 REVERT JUMPDEST POP JUMP JUMPDEST PUSH0 DUP2 CALLDATALOAD SWAP1 POP PUSH2 0x3D92 DUP2 PUSH2 0x3D6E JUMP JUMPDEST SWAP3 SWAP2 POP POP JUMP JUMPDEST PUSH0 PUSH1 0x20 DUP3 DUP5 SUB SLT ISZERO PUSH2 0x3DAD JUMPI PUSH2 0x3DAC PUSH2 0x36B4 JUMP JUMPDEST JUMPDEST PUSH0 PUSH2 0x3DBA DUP5 DUP3 DUP6 ADD PUSH2 0x3D84 JUMP JUMPDEST SWAP2 POP POP SWAP3 SWAP2 POP POP JUMP JUMPDEST PUSH2 0x3DCC DUP2 PUSH2 0x3B75 JUMP JUMPDEST DUP3 MSTORE POP POP JUMP JUMPDEST PUSH0 PUSH1 0x20 DUP3 ADD SWAP1 POP PUSH2 0x3DE5 PUSH0 DUP4 ADD DUP5 PUSH2 0x3DC3 JUMP JUMPDEST SWAP3 SWAP2 POP POP JUMP JUMPDEST PUSH0 DUP1 PUSH0 DUP1 PUSH1 0x80 DUP6 DUP8 SUB SLT ISZERO PUSH2 0x3E03 JUMPI PUSH2 0x3E02 PUSH2 0x36B4 JUMP JUMPDEST JUMPDEST PUSH0 PUSH2 0x3E10 DUP8 DUP3 DUP9 ADD PUSH2 0x3832 JUMP JUMPDEST SWAP5 POP POP PUSH1 0x20 PUSH2 0x3E21 DUP8 DUP3 DUP9 ADD PUSH2 0x3702 JUMP JUMPDEST SWAP4 POP POP PUSH1 0x40 PUSH2 0x3E32 DUP8 DUP3 DUP9 ADD PUSH2 0x3702 JUMP JUMPDEST SWAP3 POP POP PUSH1 0x60 PUSH2 0x3E43 DUP8 DUP3 DUP9 ADD PUSH2 0x3702 JUMP JUMPDEST SWAP2 POP POP SWAP3 SWAP6 SWAP2 SWAP5 POP SWAP3 POP JUMP JUMPDEST PUSH0 PUSH32 0xFFFFFFFF00000000000000000000000000000000000000000000000000000000 DUP3 AND SWAP1 POP SWAP2 SWAP1 POP JUMP JUMPDEST PUSH2 0x3E83 DUP2 PUSH2 0x3E4F JUMP JUMPDEST DUP2 EQ PUSH2 0x3E8D JUMPI PUSH0 DUP1 REVERT JUMPDEST POP JUMP JUMPDEST PUSH0 DUP2 CALLDATALOAD SWAP1 POP PUSH2 0x3E9E DUP2 PUSH2 0x3E7A JUMP JUMPDEST SWAP3 SWAP2 POP POP JUMP JUMPDEST PUSH0 DUP1 PUSH0 PUSH1 0x60 DUP5 DUP7 SUB SLT ISZERO PUSH2 0x3EBB JUMPI PUSH2 0x3EBA PUSH2 0x36B4 JUMP JUMPDEST JUMPDEST PUSH0 PUSH2 0x3EC8 DUP7 DUP3 DUP8 ADD PUSH2 0x3702 JUMP JUMPDEST SWAP4 POP POP PUSH1 0x20 PUSH2 0x3ED9 DUP7 DUP3 DUP8 ADD PUSH2 0x3702 JUMP JUMPDEST SWAP3 POP POP PUSH1 0x40 PUSH2 0x3EEA DUP7 DUP3 DUP8 ADD PUSH2 0x3E90 JUMP JUMPDEST SWAP2 POP POP SWAP3 POP SWAP3 POP SWAP3 JUMP JUMPDEST PUSH32 0x416363657373206973206E6F742076616C696400000000000000000000000000 PUSH0 DUP3 ADD MSTORE POP JUMP JUMPDEST PUSH0 PUSH2 0x3F28 PUSH1 0x13 DUP4 PUSH2 0x374B JUMP JUMPDEST SWAP2 POP PUSH2 0x3F33 DUP3 PUSH2 0x3EF4 JUMP JUMPDEST PUSH1 0x20 DUP3 ADD SWAP1 POP SWAP2 SWAP1 POP JUMP JUMPDEST PUSH0 PUSH1 0x20 DUP3 ADD SWAP1 POP DUP2 DUP2 SUB PUSH0 DUP4 ADD MSTORE PUSH2 0x3F55 DUP2 PUSH2 0x3F1C JUMP JUMPDEST SWAP1 POP SWAP2 SWAP1 POP JUMP JUMPDEST PUSH32 0x4E487B7100000000000000000000000000000000000000000000000000000000 PUSH0 MSTORE PUSH1 0x22 PUSH1 0x4 MSTORE PUSH1 0x24 PUSH0 REVERT JUMPDEST PUSH0 PUSH1 0x2 DUP3 DIV SWAP1 POP PUSH1 0x1 DUP3 AND DUP1 PUSH2 0x3FA0 JUMPI PUSH1 0x7F DUP3 AND SWAP2 POP JUMPDEST PUSH1 0x20 DUP3 LT DUP2 SUB PUSH2 0x3FB3 JUMPI PUSH2 0x3FB2 PUSH2 0x3F5C JUMP JUMPDEST JUMPDEST POP SWAP2 SWAP1 POP JUMP JUMPDEST PUSH32 0x4E487B7100000000000000000000000000000000000000000000000000000000 PUSH0 MSTORE PUSH1 0x11 PUSH1 0x4 MSTORE PUSH1 0x24 PUSH0 REVERT JUMPDEST PUSH0 PUSH2 0x3FF0 DUP3 PUSH2 0x3B75 JUMP JUMPDEST SWAP2 POP PUSH4 0xFFFFFFFF DUP3 SUB PUSH2 0x4006 JUMPI PUSH2 0x4005 PUSH2 0x3FB9 JUMP JUMPDEST JUMPDEST PUSH1 0x1 DUP3 ADD SWAP1 POP SWAP2 SWAP1 POP JUMP JUMPDEST PUSH32 0x416C6C0000000000000000000000000000000000000000000000000000000000 DUP2 MSTORE POP JUMP JUMPDEST PUSH0 DUP2 SWAP1 POP SWAP2 SWAP1 POP JUMP JUMPDEST PUSH0 DUP2 SWAP1 POP SWAP2 SWAP1 POP JUMP JUMPDEST PUSH0 PUSH2 0x4063 PUSH2 0x405E PUSH2 0x4059 DUP5 PUSH2 0x4037 JUMP JUMPDEST PUSH2 0x4040 JUMP JUMPDEST PUSH2 0x3B75 JUMP JUMPDEST SWAP1 POP SWAP2 SWAP1 POP JUMP JUMPDEST PUSH2 0x4073 DUP2 PUSH2 0x4049 JUMP JUMPDEST DUP3 MSTORE POP POP JUMP JUMPDEST PUSH0 DUP2 SWAP1 POP SWAP2 SWAP1 POP JUMP JUMPDEST PUSH0 PUSH6 0xFFFFFFFFFFFF DUP3 AND SWAP1 POP SWAP2 SWAP1 POP JUMP JUMPDEST PUSH0 PUSH2 0x40AD PUSH2 0x40A8 PUSH2 0x40A3 DUP5 PUSH2 0x4079 JUMP JUMPDEST PUSH2 0x4040 JUMP JUMPDEST PUSH2 0x4082 JUMP JUMPDEST SWAP1 POP SWAP2 SWAP1 POP JUMP JUMPDEST PUSH2 0x40BD DUP2 PUSH2 0x4093 JUMP JUMPDEST DUP3 MSTORE POP POP JUMP JUMPDEST PUSH0 PUSH1 0xC0 DUP3 ADD SWAP1 POP PUSH2 0x40D6 PUSH0 DUP4 ADD DUP9 PUSH2 0x3A58 JUMP JUMPDEST PUSH2 0x40E3 PUSH1 0x20 DUP4 ADD DUP8 PUSH2 0x37EB JUMP JUMPDEST PUSH2 0x40F0 PUSH1 0x40 DUP4 ADD DUP7 PUSH2 0x37EB JUMP JUMPDEST PUSH2 0x40FC PUSH1 0x60 DUP4 ADD PUSH2 0x4011 JUMP JUMPDEST PUSH2 0x4109 PUSH1 0x80 DUP4 ADD DUP6 PUSH2 0x406A JUMP JUMPDEST PUSH2 0x4116 PUSH1 0xA0 DUP4 ADD DUP5 PUSH2 0x40B4 JUMP JUMPDEST SWAP7 SWAP6 POP POP POP POP POP POP JUMP JUMPDEST PUSH32 0x546865207265717565737420697320696E76616C696400000000000000000000 PUSH0 DUP3 ADD MSTORE POP JUMP JUMPDEST PUSH0 PUSH2 0x4154 PUSH1 0x16 DUP4 PUSH2 0x374B JUMP JUMPDEST SWAP2 POP PUSH2 0x415F DUP3 PUSH2 0x4120 JUMP JUMPDEST PUSH1 0x20 DUP3 ADD SWAP1 POP SWAP2 SWAP1 POP JUMP JUMPDEST PUSH0 PUSH1 0x20 DUP3 ADD SWAP1 POP DUP2 DUP2 SUB PUSH0 DUP4 ADD MSTORE PUSH2 0x4181 DUP2 PUSH2 0x4148 JUMP JUMPDEST SWAP1 POP SWAP2 SWAP1 POP JUMP JUMPDEST PUSH0 PUSH2 0x4192 DUP3 PUSH2 0x4082 JUMP JUMPDEST SWAP2 POP PUSH2 0x419D DUP4 PUSH2 0x4082 JUMP JUMPDEST SWAP3 POP DUP3 DUP3 SUB SWAP1 POP PUSH6 0xFFFFFFFFFFFF DUP2 GT ISZERO PUSH2 0x41BB JUMPI PUSH2 0x41BA PUSH2 0x3FB9 JUMP JUMPDEST JUMPDEST SWAP3 SWAP2 POP POP JUMP JUMPDEST PUSH2 0x41CA DUP2 PUSH2 0x4082 JUMP JUMPDEST DUP3 MSTORE POP POP JUMP JUMPDEST PUSH0 PUSH1 0x20 DUP3 ADD SWAP1 POP PUSH2 0x41E3 PUSH0 DUP4 ADD DUP5 PUSH2 0x41C1 JUMP JUMPDEST SWAP3 SWAP2 POP POP JUMP JUMPDEST PUSH0 DUP2 MLOAD SWAP1 POP SWAP2 SWAP1 POP JUMP JUMPDEST PUSH0 DUP3 DUP3 MSTORE PUSH1 0x20 DUP3 ADD SWAP1 POP SWAP3 SWAP2 POP POP JUMP JUMPDEST PUSH0 PUSH2 0x420D DUP3 PUSH2 0x41E9 JUMP JUMPDEST PUSH2 0x4217 DUP2 DUP6 PUSH2 0x41F3 JUMP JUMPDEST SWAP4 POP PUSH2 0x4227 DUP2 DUP6 PUSH1 0x20 DUP7 ADD PUSH2 0x375B JUMP JUMPDEST PUSH2 0x4230 DUP2 PUSH2 0x3783 JUMP JUMPDEST DUP5 ADD SWAP2 POP POP SWAP3 SWAP2 POP POP JUMP JUMPDEST PUSH0 PUSH1 0x80 DUP3 ADD SWAP1 POP PUSH2 0x424E PUSH0 DUP4 ADD DUP8 PUSH2 0x37EB JUMP JUMPDEST PUSH2 0x425B PUSH1 0x20 DUP4 ADD DUP7 PUSH2 0x3A25 JUMP JUMPDEST DUP2 DUP2 SUB PUSH1 0x40 DUP4 ADD MSTORE PUSH2 0x426D DUP2 DUP6 PUSH2 0x4203 JUMP JUMPDEST SWAP1 POP PUSH2 0x427C PUSH1 0x60 DUP4 ADD DUP5 PUSH2 0x3C26 JUMP JUMPDEST SWAP6 SWAP5 POP POP POP POP POP JUMP JUMPDEST PUSH0 DUP1 REVERT JUMPDEST PUSH0 DUP2 MLOAD SWAP1 POP PUSH2 0x4297 DUP2 PUSH2 0x36EC JUMP JUMPDEST SWAP3 SWAP2 POP POP JUMP JUMPDEST PUSH0 PUSH2 0xFFFF DUP3 AND SWAP1 POP SWAP2 SWAP1 POP JUMP JUMPDEST PUSH2 0x42B3 DUP2 PUSH2 0x429D JUMP JUMPDEST DUP2 EQ PUSH2 0x42BD JUMPI PUSH0 DUP1 REVERT JUMPDEST POP JUMP JUMPDEST PUSH0 DUP2 MLOAD SWAP1 POP PUSH2 0x42CE DUP2 PUSH2 0x42AA JUMP JUMPDEST SWAP3 SWAP2 POP POP JUMP JUMPDEST PUSH0 DUP2 MLOAD SWAP1 POP PUSH2 0x42E2 DUP2 PUSH2 0x3B84 JUMP JUMPDEST SWAP3 SWAP2 POP POP JUMP JUMPDEST PUSH2 0x42F1 DUP2 PUSH2 0x4082 JUMP JUMPDEST DUP2 EQ PUSH2 0x42FB JUMPI PUSH0 DUP1 REVERT JUMPDEST POP JUMP JUMPDEST PUSH0 DUP2 MLOAD SWAP1 POP PUSH2 0x430C DUP2 PUSH2 0x42E8 JUMP JUMPDEST SWAP3 SWAP2 POP POP JUMP JUMPDEST PUSH0 DUP2 MLOAD SWAP1 POP PUSH2 0x4320 DUP2 PUSH2 0x3D6E JUMP JUMPDEST SWAP3 SWAP2 POP POP JUMP JUMPDEST PUSH0 PUSH2 0x140 DUP3 DUP5 SUB SLT ISZERO PUSH2 0x433C JUMPI PUSH2 0x433B PUSH2 0x4285 JUMP JUMPDEST JUMPDEST PUSH2 0x4347 PUSH2 0x140 PUSH2 0x38AC JUMP JUMPDEST SWAP1 POP PUSH0 PUSH2 0x4356 DUP5 DUP3 DUP6 ADD PUSH2 0x4289 JUMP JUMPDEST PUSH0 DUP4 ADD MSTORE POP PUSH1 0x20 PUSH2 0x4369 DUP5 DUP3 DUP6 ADD PUSH2 0x4289 JUMP JUMPDEST PUSH1 0x20 DUP4 ADD MSTORE POP PUSH1 0x40 PUSH2 0x437D DUP5 DUP3 DUP6 ADD PUSH2 0x42C0 JUMP JUMPDEST PUSH1 0x40 DUP4 ADD MSTORE POP PUSH1 0x60 PUSH2 0x4391 DUP5 DUP3 DUP6 ADD PUSH2 0x42D4 JUMP JUMPDEST PUSH1 0x60 DUP4 ADD MSTORE POP PUSH1 0x80 PUSH2 0x43A5 DUP5 DUP3 DUP6 ADD PUSH2 0x42FE JUMP JUMPDEST PUSH1 0x80 DUP4 ADD MSTORE POP PUSH1 0xA0 PUSH2 0x43B9 DUP5 DUP3 DUP6 ADD PUSH2 0x42FE JUMP JUMPDEST PUSH1 0xA0 DUP4 ADD MSTORE POP PUSH1 0xC0 PUSH2 0x43CD DUP5 DUP3 DUP6 ADD PUSH2 0x4312 JUMP JUMPDEST PUSH1 0xC0 DUP4 ADD MSTORE POP PUSH1 0xE0 PUSH2 0x43E1 DUP5 DUP3 DUP6 ADD PUSH2 0x4312 JUMP JUMPDEST PUSH1 0xE0 DUP4 ADD MSTORE POP PUSH2 0x100 PUSH2 0x43F6 DUP5 DUP3 DUP6 ADD PUSH2 0x4312 JUMP JUMPDEST PUSH2 0x100 DUP4 ADD MSTORE POP PUSH2 0x120 PUSH2 0x440C DUP5 DUP3 DUP6 ADD PUSH2 0x4312 JUMP JUMPDEST PUSH2 0x120 DUP4 ADD MSTORE POP SWAP3 SWAP2 POP POP JUMP JUMPDEST PUSH0 PUSH2 0x140 DUP3 DUP5 SUB SLT ISZERO PUSH2 0x442F JUMPI PUSH2 0x442E PUSH2 0x36B4 JUMP JUMPDEST JUMPDEST PUSH0 PUSH2 0x443C DUP5 DUP3 DUP6 ADD PUSH2 0x4326 JUMP JUMPDEST SWAP2 POP POP SWAP3 SWAP2 POP POP JUMP JUMPDEST PUSH0 DUP2 MLOAD SWAP1 POP PUSH2 0x4453 DUP2 PUSH2 0x381C JUMP JUMPDEST SWAP3 SWAP2 POP POP JUMP JUMPDEST PUSH0 PUSH1 0x20 DUP3 DUP5 SUB SLT ISZERO PUSH2 0x446E JUMPI PUSH2 0x446D PUSH2 0x36B4 JUMP JUMPDEST JUMPDEST PUSH0 PUSH2 0x447B DUP5 DUP3 DUP6 ADD PUSH2 0x4445 JUMP JUMPDEST SWAP2 POP POP SWAP3 SWAP2 POP POP JUMP JUMPDEST PUSH0 PUSH1 0x40 DUP3 ADD SWAP1 POP PUSH2 0x4497 PUSH0 DUP4 ADD DUP6 PUSH2 0x3A25 JUMP JUMPDEST PUSH2 0x44A4 PUSH1 0x20 DUP4 ADD DUP5 PUSH2 0x3A25 JUMP JUMPDEST SWAP4 SWAP3 POP POP POP JUMP JUMPDEST PUSH0 DUP2 SWAP1 POP SWAP2 SWAP1 POP JUMP JUMPDEST PUSH2 0x44C5 PUSH2 0x44C0 DUP3 PUSH2 0x3972 JUMP JUMPDEST PUSH2 0x44AB JUMP JUMPDEST DUP3 MSTORE POP POP JUMP JUMPDEST PUSH0 PUSH2 0x44D6 DUP3 DUP5 PUSH2 0x44B4 JUMP JUMPDEST PUSH1 0x20 DUP3 ADD SWAP2 POP DUP2 SWAP1 POP SWAP3 SWAP2 POP POP JUMP JUMPDEST PUSH0 DUP2 SWAP1 POP SWAP3 SWAP2 POP POP JUMP JUMPDEST PUSH32 0x5F766F74654475726174696F6E00000000000000000000000000000000000000 PUSH0 DUP3 ADD MSTORE POP JUMP JUMPDEST PUSH0 PUSH2 0x4523 PUSH1 0xD DUP4 PUSH2 0x44E5 JUMP JUMPDEST SWAP2 POP PUSH2 0x452E DUP3 PUSH2 0x44EF JUMP JUMPDEST PUSH1 0xD DUP3 ADD SWAP1 POP SWAP2 SWAP1 POP JUMP JUMPDEST PUSH0 PUSH2 0x4543 DUP3 PUSH2 0x4517 JUMP JUMPDEST SWAP2 POP DUP2 SWAP1 POP SWAP2 SWAP1 POP JUMP JUMPDEST PUSH32 0x5F6574615365636F6E6473000000000000000000000000000000000000000000 PUSH0 DUP3 ADD MSTORE POP JUMP JUMPDEST PUSH0 PUSH2 0x4581 PUSH1 0xB DUP4 PUSH2 0x44E5 JUMP JUMPDEST SWAP2 POP PUSH2 0x458C DUP3 PUSH2 0x454D JUMP JUMPDEST PUSH1 0xB DUP3 ADD SWAP1 POP SWAP2 SWAP1 POP JUMP JUMPDEST PUSH0 PUSH2 0x45A1 DUP3 PUSH2 0x4575 JUMP JUMPDEST SWAP2 POP DUP2 SWAP1 POP SWAP2 SWAP1 POP JUMP JUMPDEST PUSH32 0x5F766F746564656C617900000000000000000000000000000000000000000000 PUSH0 DUP3 ADD MSTORE POP JUMP JUMPDEST PUSH0 PUSH2 0x45DF PUSH1 0xA DUP4 PUSH2 0x44E5 JUMP JUMPDEST SWAP2 POP PUSH2 0x45EA DUP3 PUSH2 0x45AB JUMP JUMPDEST PUSH1 0xA DUP3 ADD SWAP1 POP SWAP2 SWAP1 POP JUMP JUMPDEST PUSH0 PUSH2 0x45FF DUP3 PUSH2 0x45D3 JUMP JUMPDEST SWAP2 POP DUP2 SWAP1 POP SWAP2 SWAP1 POP JUMP JUMPDEST PUSH0 PUSH2 0x4613 DUP3 PUSH2 0x3813 JUMP JUMPDEST SWAP2 POP PUSH2 0x461E DUP4 PUSH2 0x3813 JUMP JUMPDEST SWAP3 POP DUP3 DUP3 ADD SWAP1 POP DUP1 DUP3 GT ISZERO PUSH2 0x4636 JUMPI PUSH2 0x4635 PUSH2 0x3FB9 JUMP JUMPDEST JUMPDEST SWAP3 SWAP2 POP POP JUMP JUMPDEST PUSH0 DUP2 SWAP1 POP SWAP2 SWAP1 POP JUMP JUMPDEST PUSH0 PUSH2 0x465F PUSH2 0x465A PUSH2 0x4655 DUP5 PUSH2 0x463C JUMP JUMPDEST PUSH2 0x4040 JUMP JUMPDEST PUSH2 0x3813 JUMP JUMPDEST SWAP1 POP SWAP2 SWAP1 POP JUMP JUMPDEST PUSH2 0x466F DUP2 PUSH2 0x4645 JUMP JUMPDEST DUP3 MSTORE POP POP JUMP JUMPDEST PUSH0 PUSH1 0x40 DUP3 ADD SWAP1 POP PUSH2 0x4688 PUSH0 DUP4 ADD DUP6 PUSH2 0x4666 JUMP JUMPDEST PUSH2 0x4695 PUSH1 0x20 DUP4 ADD DUP5 PUSH2 0x3A25 JUMP JUMPDEST SWAP4 SWAP3 POP POP POP JUMP JUMPDEST PUSH0 PUSH1 0x40 DUP3 ADD SWAP1 POP PUSH2 0x46AF PUSH0 DUP4 ADD DUP6 PUSH2 0x37EB JUMP JUMPDEST PUSH2 0x46BC PUSH1 0x20 DUP4 ADD DUP5 PUSH2 0x3A25 JUMP JUMPDEST SWAP4 SWAP3 POP POP POP JUMP JUMPDEST PUSH32 0x696E76616C696420616363657373000000000000000000000000000000000000 PUSH0 DUP3 ADD MSTORE POP JUMP JUMPDEST PUSH0 PUSH2 0x46F7 PUSH1 0xE DUP4 PUSH2 0x374B JUMP JUMPDEST SWAP2 POP PUSH2 0x4702 DUP3 PUSH2 0x46C3 JUMP JUMPDEST PUSH1 0x20 DUP3 ADD SWAP1 POP SWAP2 SWAP1 POP JUMP JUMPDEST PUSH0 PUSH1 0x20 DUP3 ADD SWAP1 POP DUP2 DUP2 SUB PUSH0 DUP4 ADD MSTORE PUSH2 0x4724 DUP2 PUSH2 0x46EB JUMP JUMPDEST SWAP1 POP SWAP2 SWAP1 POP JUMP JUMPDEST PUSH0 PUSH8 0xFFFFFFFFFFFFFFFF DUP3 GT ISZERO PUSH2 0x4745 JUMPI PUSH2 0x4744 PUSH2 0x384E JUMP JUMPDEST JUMPDEST PUSH2 0x474E DUP3 PUSH2 0x3783 JUMP JUMPDEST SWAP1 POP PUSH1 0x20 DUP2 ADD SWAP1 POP SWAP2 SWAP1 POP JUMP JUMPDEST PUSH0 PUSH2 0x476D PUSH2 0x4768 DUP5 PUSH2 0x472B JUMP JUMPDEST PUSH2 0x38AC JUMP JUMPDEST SWAP1 POP DUP3 DUP2 MSTORE PUSH1 0x20 DUP2 ADD DUP5 DUP5 DUP5 ADD GT ISZERO PUSH2 0x4789 JUMPI PUSH2 0x4788 PUSH2 0x384A JUMP JUMPDEST JUMPDEST PUSH2 0x4794 DUP5 DUP3 DUP6 PUSH2 0x375B JUMP JUMPDEST POP SWAP4 SWAP3 POP POP POP JUMP JUMPDEST PUSH0 DUP3 PUSH1 0x1F DUP4 ADD SLT PUSH2 0x47B0 JUMPI PUSH2 0x47AF PUSH2 0x3846 JUMP JUMPDEST JUMPDEST DUP2 MLOAD PUSH2 0x47C0 DUP5 DUP3 PUSH1 0x20 DUP7 ADD PUSH2 0x475B JUMP JUMPDEST SWAP2 POP POP SWAP3 SWAP2 POP POP JUMP JUMPDEST PUSH0 DUP2 MLOAD SWAP1 POP PUSH2 0x47D7 DUP2 PUSH2 0x397B JUMP JUMPDEST SWAP3 SWAP2 POP POP JUMP JUMPDEST PUSH0 DUP1 PUSH0 DUP1 PUSH1 0x80 DUP6 DUP8 SUB SLT ISZERO PUSH2 0x47F5 JUMPI PUSH2 0x47F4 PUSH2 0x36B4 JUMP JUMPDEST JUMPDEST PUSH0 DUP6 ADD MLOAD PUSH8 0xFFFFFFFFFFFFFFFF DUP2 GT ISZERO PUSH2 0x4812 JUMPI PUSH2 0x4811 PUSH2 0x36B8 JUMP JUMPDEST JUMPDEST PUSH2 0x481E DUP8 DUP3 DUP9 ADD PUSH2 0x479C JUMP JUMPDEST SWAP5 POP POP PUSH1 0x20 DUP6 ADD MLOAD PUSH8 0xFFFFFFFFFFFFFFFF DUP2 GT ISZERO PUSH2 0x483F JUMPI PUSH2 0x483E PUSH2 0x36B8 JUMP JUMPDEST JUMPDEST PUSH2 0x484B DUP8 DUP3 DUP9 ADD PUSH2 0x479C JUMP JUMPDEST SWAP4 POP POP PUSH1 0x40 PUSH2 0x485C DUP8 DUP3 DUP9 ADD PUSH2 0x47C9 JUMP JUMPDEST SWAP3 POP POP PUSH1 0x60 PUSH2 0x486D DUP8 DUP3 DUP9 ADD PUSH2 0x4289 JUMP JUMPDEST SWAP2 POP POP SWAP3 SWAP6 SWAP2 SWAP5 POP SWAP3 POP JUMP JUMPDEST PUSH0 DUP1 PUSH0 PUSH1 0x60 DUP5 DUP7 SUB SLT ISZERO PUSH2 0x4890 JUMPI PUSH2 0x488F PUSH2 0x36B4 JUMP JUMPDEST JUMPDEST PUSH0 PUSH2 0x489D DUP7 DUP3 DUP8 ADD PUSH2 0x4289 JUMP JUMPDEST SWAP4 POP POP PUSH1 0x20 PUSH2 0x48AE DUP7 DUP3 DUP8 ADD PUSH2 0x4289 JUMP JUMPDEST SWAP3 POP POP PUSH1 0x40 PUSH2 0x48BF DUP7 DUP3 DUP8 ADD PUSH2 0x4445 JUMP JUMPDEST SWAP2 POP POP SWAP3 POP SWAP3 POP SWAP3 JUMP JUMPDEST PUSH0 PUSH1 0x60 DUP3 ADD SWAP1 POP PUSH2 0x48DC PUSH0 DUP4 ADD DUP7 PUSH2 0x37EB JUMP JUMPDEST PUSH2 0x48E9 PUSH1 0x20 DUP4 ADD DUP6 PUSH2 0x37EB JUMP JUMPDEST PUSH2 0x48F6 PUSH1 0x40 DUP4 ADD DUP5 PUSH2 0x3A25 JUMP JUMPDEST SWAP5 SWAP4 POP POP POP POP JUMP JUMPDEST PUSH0 DUP1 PUSH0 DUP1 PUSH1 0x80 DUP6 DUP8 SUB SLT ISZERO PUSH2 0x4916 JUMPI PUSH2 0x4915 PUSH2 0x36B4 JUMP JUMPDEST JUMPDEST PUSH0 PUSH2 0x4923 DUP8 DUP3 DUP9 ADD PUSH2 0x42C0 JUMP JUMPDEST SWAP5 POP POP PUSH1 0x20 PUSH2 0x4934 DUP8 DUP3 DUP9 ADD PUSH2 0x42D4 JUMP JUMPDEST SWAP4 POP POP PUSH1 0x40 PUSH2 0x4945 DUP8 DUP3 DUP9 ADD PUSH2 0x42FE JUMP JUMPDEST SWAP3 POP POP PUSH1 0x60 PUSH2 0x4956 DUP8 DUP3 DUP9 ADD PUSH2 0x42FE JUMP JUMPDEST SWAP2 POP POP SWAP3 SWAP6 SWAP2 SWAP5 POP SWAP3 POP JUMP JUMPDEST PUSH2 0x496B DUP2 PUSH2 0x429D JUMP JUMPDEST DUP3 MSTORE POP POP JUMP JUMPDEST PUSH0 PUSH1 0x20 DUP3 ADD SWAP1 POP PUSH2 0x4984 PUSH0 DUP4 ADD DUP5 PUSH2 0x4962 JUMP JUMPDEST SWAP3 SWAP2 POP POP JUMP JUMPDEST PUSH0 PUSH1 0x60 DUP3 ADD SWAP1 POP PUSH2 0x499D PUSH0 DUP4 ADD DUP7 PUSH2 0x3DC3 JUMP JUMPDEST PUSH2 0x49AA PUSH1 0x20 DUP4 ADD DUP6 PUSH2 0x41C1 JUMP JUMPDEST PUSH2 0x49B7 PUSH1 0x40 DUP4 ADD DUP5 PUSH2 0x41C1 JUMP JUMPDEST SWAP5 SWAP4 POP POP POP POP JUMP JUMPDEST PUSH0 PUSH1 0xE0 DUP3 ADD SWAP1 POP PUSH2 0x49D2 PUSH0 DUP4 ADD DUP11 PUSH2 0x3A25 JUMP JUMPDEST PUSH2 0x49DF PUSH1 0x20 DUP4 ADD DUP10 PUSH2 0x4962 JUMP JUMPDEST PUSH2 0x49EC PUSH1 0x40 DUP4 ADD DUP9 PUSH2 0x3DC3 JUMP JUMPDEST PUSH2 0x49F9 PUSH1 0x60 DUP4 ADD DUP8 PUSH2 0x41C1 JUMP JUMPDEST PUSH2 0x4A06 PUSH1 0x80 DUP4 ADD DUP7 PUSH2 0x41C1 JUMP JUMPDEST PUSH2 0x4A13 PUSH1 0xA0 DUP4 ADD DUP6 PUSH2 0x37EB JUMP JUMPDEST PUSH2 0x4A20 PUSH1 0xC0 DUP4 ADD DUP5 PUSH2 0x37EB JUMP JUMPDEST SWAP9 SWAP8 POP POP POP POP POP POP POP POP JUMP JUMPDEST PUSH0 PUSH1 0x60 DUP3 ADD SWAP1 POP PUSH2 0x4A3F PUSH0 DUP4 ADD DUP6 PUSH2 0x3A58 JUMP JUMPDEST PUSH2 0x4A4C PUSH1 0x20 DUP4 ADD DUP5 PUSH2 0x406A JUMP JUMPDEST PUSH2 0x4A58 PUSH1 0x40 DUP4 ADD PUSH2 0x4011 JUMP JUMPDEST SWAP4 SWAP3 POP POP POP JUMP JUMPDEST PUSH0 DUP2 SWAP1 POP SWAP2 SWAP1 POP JUMP JUMPDEST PUSH0 PUSH2 0x4A82 PUSH2 0x4A7D PUSH2 0x4A78 DUP5 PUSH2 0x4A5F JUMP JUMPDEST PUSH2 0x4040 JUMP JUMPDEST PUSH2 0x3B75 JUMP JUMPDEST SWAP1 POP SWAP2 SWAP1 POP JUMP JUMPDEST PUSH2 0x4A92 DUP2 PUSH2 0x4A68 JUMP JUMPDEST DUP3 MSTORE POP POP JUMP JUMPDEST PUSH0 PUSH1 0xC0 DUP3 ADD SWAP1 POP PUSH2 0x4AAB PUSH0 DUP4 ADD DUP9 PUSH2 0x3A58 JUMP JUMPDEST PUSH2 0x4AB8 PUSH1 0x20 DUP4 ADD DUP8 PUSH2 0x37EB JUMP JUMPDEST PUSH2 0x4AC5 PUSH1 0x40 DUP4 ADD DUP7 PUSH2 0x37EB JUMP JUMPDEST PUSH2 0x4AD1 PUSH1 0x60 DUP4 ADD PUSH2 0x4011 JUMP JUMPDEST PUSH2 0x4ADE PUSH1 0x80 DUP4 ADD DUP6 PUSH2 0x4A89 JUMP JUMPDEST PUSH2 0x4AEB PUSH1 0xA0 DUP4 ADD DUP5 PUSH2 0x40B4 JUMP JUMPDEST SWAP7 SWAP6 POP POP POP POP POP POP JUMP JUMPDEST PUSH0 PUSH1 0x20 DUP3 DUP5 SUB SLT ISZERO PUSH2 0x4B0A JUMPI PUSH2 0x4B09 PUSH2 0x36B4 JUMP JUMPDEST JUMPDEST PUSH0 PUSH2 0x4B17 DUP5 DUP3 DUP6 ADD PUSH2 0x4312 JUMP JUMPDEST SWAP2 POP POP SWAP3 SWAP2 POP POP JUMP JUMPDEST PUSH32 0x666F72416E790000000000000000000000000000000000000000000000000000 DUP2 MSTORE POP JUMP JUMPDEST PUSH0 PUSH1 0x20 DUP3 ADD SWAP1 POP PUSH2 0x4B58 PUSH0 DUP4 ADD PUSH2 0x4B20 JUMP JUMPDEST SWAP2 SWAP1 POP JUMP JUMPDEST PUSH0 PUSH8 0xFFFFFFFFFFFFFFFF DUP3 GT ISZERO PUSH2 0x4B77 JUMPI PUSH2 0x4B76 PUSH2 0x384E JUMP JUMPDEST JUMPDEST PUSH1 0x20 DUP3 MUL SWAP1 POP SWAP2 SWAP1 POP JUMP JUMPDEST PUSH0 DUP1 REVERT JUMPDEST PUSH0 PUSH2 0x4B98 PUSH2 0x4B93 DUP5 PUSH2 0x4B5D JUMP JUMPDEST PUSH2 0x38AC JUMP JUMPDEST SWAP1 POP DUP1 PUSH1 0x20 DUP5 MUL DUP4 ADD DUP6 DUP2 GT ISZERO PUSH2 0x4BB2 JUMPI PUSH2 0x4BB1 PUSH2 0x4B82 JUMP JUMPDEST JUMPDEST DUP4 JUMPDEST DUP2 DUP2 LT ISZERO PUSH2 0x4BDB JUMPI DUP1 PUSH2 0x4BC7 DUP9 DUP3 PUSH2 0x42FE JUMP JUMPDEST DUP5 MSTORE PUSH1 0x20 DUP5 ADD SWAP4 POP POP PUSH1 0x20 DUP2 ADD SWAP1 POP PUSH2 0x4BB4 JUMP JUMPDEST POP POP POP SWAP4 SWAP3 POP POP POP JUMP JUMPDEST PUSH0 DUP3 PUSH1 0x1F DUP4 ADD SLT PUSH2 0x4BF9 JUMPI PUSH2 0x4BF8 PUSH2 0x3846 JUMP JUMPDEST JUMPDEST PUSH2 0x4B1 PUSH2 0x4C07 DUP5 DUP3 DUP6 PUSH2 0x4B86 JUMP JUMPDEST SWAP2 POP POP SWAP3 SWAP2 POP POP JUMP JUMPDEST PUSH0 PUSH2 0x9620 DUP3 DUP5 SUB SLT ISZERO PUSH2 0x4C26 JUMPI PUSH2 0x4C25 PUSH2 0x36B4 JUMP JUMPDEST JUMPDEST PUSH0 PUSH2 0x4C33 DUP5 DUP3 DUP6 ADD PUSH2 0x4BE5 JUMP JUMPDEST SWAP2 POP POP SWAP3 SWAP2 POP POP JUMP JUMPDEST PUSH0 PUSH2 0x4C46 DUP3 PUSH2 0x3813 JUMP JUMPDEST SWAP2 POP PUSH2 0x4C51 DUP4 PUSH2 0x3813 JUMP JUMPDEST SWAP3 POP DUP3 DUP3 SUB SWAP1 POP DUP2 DUP2 GT ISZERO PUSH2 0x4C69 JUMPI PUSH2 0x4C68 PUSH2 0x3FB9 JUMP JUMPDEST JUMPDEST SWAP3 SWAP2 POP POP JUMP JUMPDEST PUSH32 0x4E487B7100000000000000000000000000000000000000000000000000000000 PUSH0 MSTORE PUSH1 0x32 PUSH1 0x4 MSTORE PUSH1 0x24 PUSH0 REVERT JUMPDEST PUSH0 PUSH2 0x4CA6 DUP3 PUSH2 0x429D JUMP JUMPDEST SWAP2 POP PUSH2 0xFFFF DUP3 SUB PUSH2 0x4CBA JUMPI PUSH2 0x4CB9 PUSH2 0x3FB9 JUMP JUMPDEST JUMPDEST PUSH1 0x1 DUP3 ADD SWAP1 POP SWAP2 SWAP1 POP JUMP JUMPDEST PUSH32 0x4E487B7100000000000000000000000000000000000000000000000000000000 PUSH0 MSTORE PUSH1 0x12 PUSH1 0x4 MSTORE PUSH1 0x24 PUSH0 REVERT JUMPDEST PUSH0 PUSH2 0x4CFC DUP3 PUSH2 0x429D JUMP JUMPDEST SWAP2 POP PUSH2 0x4D07 DUP4 PUSH2 0x429D JUMP JUMPDEST SWAP3 POP DUP3 PUSH2 0x4D17 JUMPI PUSH2 0x4D16 PUSH2 0x4CC5 JUMP JUMPDEST JUMPDEST DUP3 DUP3 DIV SWAP1 POP SWAP3 SWAP2 POP POP JUMP JUMPDEST PUSH0 PUSH2 0x4D2C DUP3 PUSH2 0x429D JUMP JUMPDEST SWAP2 POP PUSH2 0x4D37 DUP4 PUSH2 0x429D JUMP JUMPDEST SWAP3 POP DUP3 DUP3 MUL PUSH2 0x4D45 DUP2 PUSH2 0x429D JUMP JUMPDEST SWAP2 POP DUP1 DUP3 EQ PUSH2 0x4D57 JUMPI PUSH2 0x4D56 PUSH2 0x3FB9 JUMP JUMPDEST JUMPDEST POP SWAP3 SWAP2 POP POP JUMP INVALID LOG2 PUSH5 0x6970667358 0x22 SLT KECCAK256 0xD7 PUSH21 0x1E5B95A8CF545D25FD9736D6C9FEE3E2152458E25D ADD PUSH0 STOP EXTCODECOPY EXTCODECOPY 0xC 0xBB NUMBER PUSH6 0x64736F6C6343 STOP ADDMOD EQ STOP CALLER "
		},
		"gasEstimates": {
			"creation": {
				"codeDepositCost": "3972000",
				"executionCost": "infinite",
				"totalCost": "infinite"
			},
			"external": {
				"AccessControl(address,address,bytes4)": "infinite",
				"CLOCK_MODE()": "infinite",
				"Clock()": "442",
				"cancel(address,uint256,bytes,bytes32)": "infinite",
				"cancelPendingRepublicGAddress(address)": "infinite",
				"eip712Domain()": "infinite",
				"execute(address,uint256,bytes,bytes32)": "infinite",
				"getAuthorityAddress()": "445",
				"getGovernance()": "2588",
				"getPresidentAdd()": "2653",
				"getPresidentBan()": "2597",
				"getPrimeMinisterAdd()": "2609",
				"getPrimeMinisterBan()": "2617",
				"getRepublicAddress()": "infinite",
				"getRepublicGAddress()": "2566",
				"getgovernanceVersion()": "2574",
				"governoraccess(address)": "751",
				"hashProposal(address,uint256,bytes,bytes32)": "infinite",
				"name()": "infinite",
				"proposal(uint256,address,address,address)": "infinite",
				"setConnectors(address,address)": "infinite",
				"setPendigPresident(address)": "infinite",
				"setPendingGovernanceContractAddress(address)": "infinite",
				"setPendingPrimeMinister(address)": "30404",
				"setPendingRepublicGAddress(address)": "infinite",
				"setPresidentBaned(bool)": "infinite",
				"setPrimeMinisterBaned(bool)": "infinite",
				"setvoteTiming(uint32,bytes32)": "infinite",
				"state(uint256)": "infinite",
				"transferGovernanceContractAddress(address)": "infinite",
				"transferPresident()": "107809",
				"transferPrimeMinister()": "infinite",
				"transferRepublicGAddress(address)": "infinite",
				"version()": "infinite"
			},
			"internal": {
				"_voteResult(struct storageTCN.ProposalCore memory)": "infinite",
				"isQuorumValid(uint16)": "infinite"
			}
		},
		"methodIdentifiers": {
			"AccessControl(address,address,bytes4)": "e35b31b7",
			"CLOCK_MODE()": "4bf5d7e9",
			"Clock()": "5dad85c2",
			"cancel(address,uint256,bytes,bytes32)": "85488408",
			"cancelPendingRepublicGAddress(address)": "4494acd9",
			"eip712Domain()": "84b0196e",
			"execute(address,uint256,bytes,bytes32)": "88aa4c12",
			"getAuthorityAddress()": "e47a9d46",
			"getGovernance()": "289b3c0d",
			"getPresidentAdd()": "66410997",
			"getPresidentBan()": "6cf106d7",
			"getPrimeMinisterAdd()": "a53da00b",
			"getPrimeMinisterBan()": "e4f3e947",
			"getRepublicAddress()": "c5a1c5c1",
			"getRepublicGAddress()": "37676f79",
			"getgovernanceVersion()": "c387b49c",
			"governoraccess(address)": "3610feb3",
			"hashProposal(address,uint256,bytes,bytes32)": "31d133c2",
			"name()": "06fdde03",
			"proposal(uint256,address,address,address)": "c8021c2e",
			"setConnectors(address,address)": "3a8512b4",
			"setPendigPresident(address)": "054203bd",
			"setPendingGovernanceContractAddress(address)": "ca4cce68",
			"setPendingPrimeMinister(address)": "544fa93e",
			"setPendingRepublicGAddress(address)": "861a179d",
			"setPresidentBaned(bool)": "b5c09c68",
			"setPrimeMinisterBaned(bool)": "f5f9cdd4",
			"setvoteTiming(uint32,bytes32)": "667d639b",
			"state(uint256)": "3e4f49e6",
			"transferGovernanceContractAddress(address)": "ee7126c3",
			"transferPresident()": "0df4c390",
			"transferPrimeMinister()": "18074eee",
			"transferRepublicGAddress(address)": "1f86aa2a",
			"version()": "54fd4d50"
		}
	},
	"abi": [
		{
			"inputs": [
				{
					"internalType": "string",
					"name": "name_",
					"type": "string"
				}
			],
			"stateMutability": "nonpayable",
			"type": "constructor"
		},
		{
			"inputs": [],
			"name": "AccessOnlyForThePendig",
			"type": "error"
		},
		{
			"inputs": [
				{
					"internalType": "address",
					"name": "ballot",
					"type": "address"
				}
			],
			"name": "AddressNotReturnVoteCount",
			"type": "error"
		},
		{
			"inputs": [
				{
					"internalType": "address",
					"name": "governances_",
					"type": "address"
				}
			],
			"name": "GovernanceContractNotMatch",
			"type": "error"
		},
		{
			"inputs": [
				{
					"internalType": "uint256",
					"name": "proposalId",
					"type": "uint256"
				}
			],
			"name": "GovernorNonexistentProposal",
			"type": "error"
		},
		{
			"inputs": [
				{
					"internalType": "address",
					"name": "target_",
					"type": "address"
				},
				{
					"internalType": "address",
					"name": "proposer_",
					"type": "address"
				},
				{
					"internalType": "uint256",
					"name": "value_",
					"type": "uint256"
				}
			],
			"name": "InavlidProposalParams",
			"type": "error"
		},
		{
			"inputs": [
				{
					"internalType": "uint16",
					"name": "quorum",
					"type": "uint16"
				}
			],
			"name": "InvalidQuorum",
			"type": "error"
		},
		{
			"inputs": [],
			"name": "InvalidShortString",
			"type": "error"
		},
		{
			"inputs": [
				{
					"internalType": "uint32",
					"name": "voteDuration_",
					"type": "uint32"
				},
				{
					"internalType": "uint48",
					"name": "voteStart_",
					"type": "uint48"
				},
				{
					"internalType": "uint48",
					"name": "etaSeconds_",
					"type": "uint48"
				}
			],
			"name": "InvalidVotingTImeParams",
			"type": "error"
		},
		{
			"inputs": [
				{
					"internalType": "uint48",
					"name": "reminingTime",
					"type": "uint48"
				}
			],
			"name": "RemainingTimeUntilTheConfirmationDeadline",
			"type": "error"
		},
		{
			"inputs": [
				{
					"internalType": "uint256",
					"name": "proposalId",
					"type": "uint256"
				}
			],
			"name": "StateProposalIsSpecified",
			"type": "error"
		},
		{
			"inputs": [
				{
					"internalType": "address",
					"name": "Applicant",
					"type": "address"
				}
			],
			"name": "StorageContractS_invalidAccess",
			"type": "error"
		},
		{
			"inputs": [
				{
					"internalType": "address",
					"name": "storageContract",
					"type": "address"
				},
				{
					"internalType": "uint256",
					"name": "proposalId",
					"type": "uint256"
				}
			],
			"name": "StorageContractS_invalidState",
			"type": "error"
		},
		{
			"inputs": [
				{
					"internalType": "string",
					"name": "str",
					"type": "string"
				}
			],
			"name": "StringTooLong",
			"type": "error"
		},
		{
			"inputs": [
				{
					"internalType": "address",
					"name": "NewGCAddress",
					"type": "address"
				}
			],
			"name": "TheAddressIsNotValidForGC",
			"type": "error"
		},
		{
			"inputs": [
				{
					"internalType": "address",
					"name": "newRGAddress",
					"type": "address"
				}
			],
			"name": "TheAddressIsNotValidForRAddress",
			"type": "error"
		},
		{
			"inputs": [
				{
					"internalType": "uint256",
					"name": "proposalId_",
					"type": "uint256"
				}
			],
			"name": "ThisProposalExists",
			"type": "error"
		},
		{
			"anonymous": false,
			"inputs": [
				{
					"indexed": true,
					"internalType": "address",
					"name": "storageContract",
					"type": "address"
				},
				{
					"indexed": true,
					"internalType": "uint256",
					"name": "proposalId",
					"type": "uint256"
				}
			],
			"name": "ChangeStateToExecutedAndContinue",
			"type": "event"
		},
		{
			"anonymous": false,
			"inputs": [],
			"name": "EIP712DomainChanged",
			"type": "event"
		},
		{
			"anonymous": false,
			"inputs": [
				{
					"indexed": true,
					"internalType": "uint256",
					"name": "proposalId",
					"type": "uint256"
				}
			],
			"name": "ProposalCanceled",
			"type": "event"
		},
		{
			"anonymous": false,
			"inputs": [
				{
					"indexed": true,
					"internalType": "uint256",
					"name": "proposalId",
					"type": "uint256"
				}
			],
			"name": "SetProposal",
			"type": "event"
		},
		{
			"anonymous": false,
			"inputs": [
				{
					"indexed": true,
					"internalType": "address",
					"name": "GCAddress",
					"type": "address"
				},
				{
					"indexed": true,
					"internalType": "uint32",
					"name": "version",
					"type": "uint32"
				}
			],
			"name": "TheNewGCAddressWasConfirmed",
			"type": "event"
		},
		{
			"anonymous": false,
			"inputs": [
				{
					"indexed": true,
					"internalType": "address",
					"name": "presidentAdd",
					"type": "address"
				},
				{
					"indexed": true,
					"internalType": "uint32",
					"name": "nonce",
					"type": "uint32"
				}
			],
			"name": "TheNewPresidentWasConfirmed",
			"type": "event"
		},
		{
			"anonymous": false,
			"inputs": [
				{
					"indexed": true,
					"internalType": "address",
					"name": "primeMinisterAdd",
					"type": "address"
				},
				{
					"indexed": true,
					"internalType": "uint32",
					"name": "nonce",
					"type": "uint32"
				}
			],
			"name": "TheNewPrimeMinisterWasConfirmed",
			"type": "event"
		},
		{
			"anonymous": false,
			"inputs": [
				{
					"indexed": true,
					"internalType": "address",
					"name": "RepublicGAddress",
					"type": "address"
				},
				{
					"indexed": true,
					"internalType": "uint32",
					"name": "version",
					"type": "uint32"
				}
			],
			"name": "TheNewRepublicGAddressWasConfirmed",
			"type": "event"
		},
		{
			"anonymous": false,
			"inputs": [
				{
					"indexed": true,
					"internalType": "address",
					"name": "newGCAddress",
					"type": "address"
				}
			],
			"name": "TheNextGCAddressWasElected",
			"type": "event"
		},
		{
			"anonymous": false,
			"inputs": [
				{
					"indexed": true,
					"internalType": "address",
					"name": "newPresidentAdd",
					"type": "address"
				}
			],
			"name": "TheNextPresidentWasElected",
			"type": "event"
		},
		{
			"anonymous": false,
			"inputs": [
				{
					"indexed": true,
					"internalType": "address",
					"name": "newPrimeMinister",
					"type": "address"
				}
			],
			"name": "TheNextPrimeMinisterWasElected",
			"type": "event"
		},
		{
			"anonymous": false,
			"inputs": [
				{
					"indexed": true,
					"internalType": "address",
					"name": "PRGAddress",
					"type": "address"
				}
			],
			"name": "TheNextRepublicGAddressWasCancelled",
			"type": "event"
		},
		{
			"anonymous": false,
			"inputs": [
				{
					"indexed": true,
					"internalType": "address",
					"name": "newRepublicGAddress",
					"type": "address"
				}
			],
			"name": "TheNextRepublicGAddressWasElected",
			"type": "event"
		},
		{
			"anonymous": false,
			"inputs": [
				{
					"indexed": true,
					"internalType": "bool",
					"name": "baned",
					"type": "bool"
				},
				{
					"indexed": true,
					"internalType": "bool",
					"name": "done",
					"type": "bool"
				}
			],
			"name": "TheStatusOfBanningAllActivitiesAndDone",
			"type": "event"
		},
		{
			"anonymous": false,
			"inputs": [
				{
					"indexed": true,
					"internalType": "address",
					"name": "ballotAddress",
					"type": "address"
				}
			],
			"name": "ValidBallotcontract",
			"type": "event"
		},
		{
			"anonymous": false,
			"inputs": [
				{
					"indexed": true,
					"internalType": "uint32",
					"name": "time",
					"type": "uint32"
				}
			],
			"name": "changeEtaSeconds",
			"type": "event"
		},
		{
			"anonymous": false,
			"inputs": [
				{
					"indexed": true,
					"internalType": "uint32",
					"name": "time",
					"type": "uint32"
				}
			],
			"name": "changeVoteDelay",
			"type": "event"
		},
		{
			"anonymous": false,
			"inputs": [
				{
					"indexed": true,
					"internalType": "uint32",
					"name": "time",
					"type": "uint32"
				}
			],
			"name": "changeVoteDuration",
			"type": "event"
		},
		{
			"inputs": [
				{
					"internalType": "address",
					"name": "caller",
					"type": "address"
				},
				{
					"internalType": "address",
					"name": "target",
					"type": "address"
				},
				{
					"internalType": "bytes4",
					"name": "Fselector",
					"type": "bytes4"
				}
			],
			"name": "AccessControl",
			"outputs": [
				{
					"internalType": "bool",
					"name": "accessed",
					"type": "bool"
				}
			],
			"stateMutability": "nonpayable",
			"type": "function"
		},
		{
			"inputs": [],
			"name": "CLOCK_MODE",
			"outputs": [
				{
					"internalType": "string",
					"name": "",
					"type": "string"
				}
			],
			"stateMutability": "pure",
			"type": "function"
		},
		{
			"inputs": [],
			"name": "Clock",
			"outputs": [
				{
					"internalType": "uint256",
					"name": "",
					"type": "uint256"
				}
			],
			"stateMutability": "view",
			"type": "function"
		},
		{
			"inputs": [
				{
					"internalType": "address",
					"name": "target",
					"type": "address"
				},
				{
					"internalType": "uint256",
					"name": "value",
					"type": "uint256"
				},
				{
					"internalType": "bytes",
					"name": "callData",
					"type": "bytes"
				},
				{
					"internalType": "bytes32",
					"name": "descriptionHash",
					"type": "bytes32"
				}
			],
			"name": "cancel",
			"outputs": [],
			"stateMutability": "nonpayable",
			"type": "function"
		},
		{
			"inputs": [
				{
					"internalType": "address",
					"name": "PRGAdress",
					"type": "address"
				}
			],
			"name": "cancelPendingRepublicGAddress",
			"outputs": [],
			"stateMutability": "nonpayable",
			"type": "function"
		},
		{
			"inputs": [],
			"name": "eip712Domain",
			"outputs": [
				{
					"internalType": "bytes1",
					"name": "fields",
					"type": "bytes1"
				},
				{
					"internalType": "string",
					"name": "name",
					"type": "string"
				},
				{
					"internalType": "string",
					"name": "version",
					"type": "string"
				},
				{
					"internalType": "uint256",
					"name": "chainId",
					"type": "uint256"
				},
				{
					"internalType": "address",
					"name": "verifyingContract",
					"type": "address"
				},
				{
					"internalType": "bytes32",
					"name": "salt",
					"type": "bytes32"
				},
				{
					"internalType": "uint256[]",
					"name": "extensions",
					"type": "uint256[]"
				}
			],
			"stateMutability": "view",
			"type": "function"
		},
		{
			"inputs": [
				{
					"internalType": "address",
					"name": "target",
					"type": "address"
				},
				{
					"internalType": "uint256",
					"name": "value",
					"type": "uint256"
				},
				{
					"internalType": "bytes",
					"name": "callData",
					"type": "bytes"
				},
				{
					"internalType": "bytes32",
					"name": "descriptionHash",
					"type": "bytes32"
				}
			],
			"name": "execute",
			"outputs": [],
			"stateMutability": "nonpayable",
			"type": "function"
		},
		{
			"inputs": [],
			"name": "getAuthorityAddress",
			"outputs": [
				{
					"internalType": "address",
					"name": "",
					"type": "address"
				}
			],
			"stateMutability": "view",
			"type": "function"
		},
		{
			"inputs": [],
			"name": "getGovernance",
			"outputs": [
				{
					"internalType": "address",
					"name": "",
					"type": "address"
				}
			],
			"stateMutability": "view",
			"type": "function"
		},
		{
			"inputs": [],
			"name": "getPresidentAdd",
			"outputs": [
				{
					"internalType": "address",
					"name": "",
					"type": "address"
				}
			],
			"stateMutability": "view",
			"type": "function"
		},
		{
			"inputs": [],
			"name": "getPresidentBan",
			"outputs": [
				{
					"internalType": "bool",
					"name": "",
					"type": "bool"
				}
			],
			"stateMutability": "view",
			"type": "function"
		},
		{
			"inputs": [],
			"name": "getPrimeMinisterAdd",
			"outputs": [
				{
					"internalType": "address",
					"name": "",
					"type": "address"
				}
			],
			"stateMutability": "view",
			"type": "function"
		},
		{
			"inputs": [],
			"name": "getPrimeMinisterBan",
			"outputs": [
				{
					"internalType": "bool",
					"name": "",
					"type": "bool"
				}
			],
			"stateMutability": "view",
			"type": "function"
		},
		{
			"inputs": [],
			"name": "getRepublicAddress",
			"outputs": [
				{
					"internalType": "address",
					"name": "R",
					"type": "address"
				}
			],
			"stateMutability": "view",
			"type": "function"
		},
		{
			"inputs": [],
			"name": "getRepublicGAddress",
			"outputs": [
				{
					"internalType": "address",
					"name": "RG",
					"type": "address"
				}
			],
			"stateMutability": "view",
			"type": "function"
		},
		{
			"inputs": [],
			"name": "getgovernanceVersion",
			"outputs": [
				{
					"internalType": "uint32",
					"name": "",
					"type": "uint32"
				}
			],
			"stateMutability": "view",
			"type": "function"
		},
		{
			"inputs": [
				{
					"internalType": "address",
					"name": "",
					"type": "address"
				}
			],
			"name": "governoraccess",
			"outputs": [
				{
					"internalType": "bool",
					"name": "",
					"type": "bool"
				}
			],
			"stateMutability": "nonpayable",
			"type": "function"
		},
		{
			"inputs": [
				{
					"internalType": "address",
					"name": "target",
					"type": "address"
				},
				{
					"internalType": "uint256",
					"name": "value",
					"type": "uint256"
				},
				{
					"internalType": "bytes",
					"name": "callData",
					"type": "bytes"
				},
				{
					"internalType": "bytes32",
					"name": "descriptionHash",
					"type": "bytes32"
				}
			],
			"name": "hashProposal",
			"outputs": [
				{
					"internalType": "uint256",
					"name": "",
					"type": "uint256"
				}
			],
			"stateMutability": "pure",
			"type": "function"
		},
		{
			"inputs": [],
			"name": "name",
			"outputs": [
				{
					"internalType": "string",
					"name": "",
					"type": "string"
				}
			],
			"stateMutability": "view",
			"type": "function"
		},
		{
			"inputs": [
				{
					"internalType": "uint256",
					"name": "value",
					"type": "uint256"
				},
				{
					"internalType": "address",
					"name": "target",
					"type": "address"
				},
				{
					"internalType": "address",
					"name": "proposer",
					"type": "address"
				},
				{
					"internalType": "address",
					"name": "ballotAddress",
					"type": "address"
				}
			],
			"name": "proposal",
			"outputs": [
				{
					"internalType": "uint256",
					"name": "proposalId",
					"type": "uint256"
				}
			],
			"stateMutability": "nonpayable",
			"type": "function"
		},
		{
			"inputs": [
				{
					"internalType": "address",
					"name": "applicantAdd_",
					"type": "address"
				},
				{
					"internalType": "address",
					"name": "storageAdd_",
					"type": "address"
				}
			],
			"name": "setConnectors",
			"outputs": [],
			"stateMutability": "nonpayable",
			"type": "function"
		},
		{
			"inputs": [
				{
					"internalType": "address",
					"name": "newPresident",
					"type": "address"
				}
			],
			"name": "setPendigPresident",
			"outputs": [],
			"stateMutability": "nonpayable",
			"type": "function"
		},
		{
			"inputs": [
				{
					"internalType": "address",
					"name": "newGCAddress",
					"type": "address"
				}
			],
			"name": "setPendingGovernanceContractAddress",
			"outputs": [],
			"stateMutability": "nonpayable",
			"type": "function"
		},
		{
			"inputs": [
				{
					"internalType": "address",
					"name": "newPM",
					"type": "address"
				}
			],
			"name": "setPendingPrimeMinister",
			"outputs": [],
			"stateMutability": "nonpayable",
			"type": "function"
		},
		{
			"inputs": [
				{
					"internalType": "address",
					"name": "newRGAddress",
					"type": "address"
				}
			],
			"name": "setPendingRepublicGAddress",
			"outputs": [],
			"stateMutability": "nonpayable",
			"type": "function"
		},
		{
			"inputs": [
				{
					"internalType": "bool",
					"name": "baned",
					"type": "bool"
				}
			],
			"name": "setPresidentBaned",
			"outputs": [],
			"stateMutability": "nonpayable",
			"type": "function"
		},
		{
			"inputs": [
				{
					"internalType": "bool",
					"name": "baned",
					"type": "bool"
				}
			],
			"name": "setPrimeMinisterBaned",
			"outputs": [],
			"stateMutability": "nonpayable",
			"type": "function"
		},
		{
			"inputs": [
				{
					"internalType": "uint32",
					"name": "time",
					"type": "uint32"
				},
				{
					"internalType": "bytes32",
					"name": "varName",
					"type": "bytes32"
				}
			],
			"name": "setvoteTiming",
			"outputs": [],
			"stateMutability": "nonpayable",
			"type": "function"
		},
		{
			"inputs": [
				{
					"internalType": "uint256",
					"name": "proposalId",
					"type": "uint256"
				}
			],
			"name": "state",
			"outputs": [
				{
					"internalType": "enum TokenNamGovernor.ProposalState",
					"name": "",
					"type": "uint8"
				}
			],
			"stateMutability": "nonpayable",
			"type": "function"
		},
		{
			"inputs": [
				{
					"internalType": "address",
					"name": "pendingGCAdd",
					"type": "address"
				}
			],
			"name": "transferGovernanceContractAddress",
			"outputs": [],
			"stateMutability": "nonpayable",
			"type": "function"
		},
		{
			"inputs": [],
			"name": "transferPresident",
			"outputs": [],
			"stateMutability": "nonpayable",
			"type": "function"
		},
		{
			"inputs": [],
			"name": "transferPrimeMinister",
			"outputs": [],
			"stateMutability": "nonpayable",
			"type": "function"
		},
		{
			"inputs": [
				{
					"internalType": "address",
					"name": "RGAddress",
					"type": "address"
				}
			],
			"name": "transferRepublicGAddress",
			"outputs": [],
			"stateMutability": "nonpayable",
			"type": "function"
		},
		{
			"inputs": [],
			"name": "version",
			"outputs": [
				{
					"internalType": "string",
					"name": "",
					"type": "string"
				}
			],
			"stateMutability": "pure",
			"type": "function"
		}
	]
}