{
	"data": {
		"bytecode": {
			"linkReferences": {},
			"object": "6101606040526201518060045f6101000a81548163ffffffff021916908363ffffffff160217905550620151806004806101000a81548163ffffffff021916908363ffffffff16021790555062093a80600460086101000a81548163ffffffff021916908363ffffffff1602179055503480156200007b575f80fd5b506040516200261c3803806200261c8339818101604052810190620000a1919062000460565b80620000b26200017a60201b60201c565b620000c75f83620001b760201b90919060201c565b6101208181525050620000e5600182620001b760201b90919060201c565b6101408181525050818051906020012060e08181525050808051906020012061010081815250504660a08181525050620001246200020c60201b60201c565b608081815250503073ffffffffffffffffffffffffffffffffffffffff1660c08173ffffffffffffffffffffffffffffffffffffffff168152505050508060039081620001729190620006e6565b5050620009a3565b60606040518060400160405280600181526020017f3100000000000000000000000000000000000000000000000000000000000000815250905090565b5f602083511015620001dc57620001d4836200026860201b60201c565b905062000206565b82620001ee83620002d260201b60201c565b5f019081620001fe9190620006e6565b5060ff5f1b90505b92915050565b5f7f8b73c3c69bb8fe3d512ecc4cf759cc79239f7b179b0ffacaa9a75d522b39400f60e0516101005146306040516020016200024d95949392919062000838565b60405160208183030381529060405280519060200120905090565b5f80829050601f81511115620002b757826040517f305a27a9000000000000000000000000000000000000000000000000000000008152600401620002ae9190620008e3565b60405180910390fd5b805181620002c59062000934565b5f1c175f1b915050919050565b5f819050919050565b5f604051905090565b5f80fd5b5f80fd5b5f80fd5b5f80fd5b5f601f19601f8301169050919050565b7f4e487b71000000000000000000000000000000000000000000000000000000005f52604160045260245ffd5b6200033c82620002f4565b810181811067ffffffffffffffff821117156200035e576200035d62000304565b5b80604052505050565b5f62000372620002db565b905062000380828262000331565b919050565b5f67ffffffffffffffff821115620003a257620003a162000304565b5b620003ad82620002f4565b9050602081019050919050565b5f5b83811015620003d9578082015181840152602081019050620003bc565b5f8484015250505050565b5f620003fa620003f48462000385565b62000367565b905082815260208101848484011115620004195762000418620002f0565b5b62000426848285620003ba565b509392505050565b5f82601f830112620004455762000444620002ec565b5b815162000457848260208601620003e4565b91505092915050565b5f60208284031215620004785762000477620002e4565b5b5f82015167ffffffffffffffff811115620004985762000497620002e8565b5b620004a6848285016200042e565b91505092915050565b5f81519050919050565b7f4e487b71000000000000000000000000000000000000000000000000000000005f52602260045260245ffd5b5f6002820490506001821680620004fe57607f821691505b602082108103620005145762000513620004b9565b5b50919050565b5f819050815f5260205f209050919050565b5f6020601f8301049050919050565b5f82821b905092915050565b5f60088302620005787fffffffffffffffffffffffffffffffffffffffffffffffffffffffffffffffff826200053b565b6200058486836200053b565b95508019841693508086168417925050509392505050565b5f819050919050565b5f819050919050565b5f620005ce620005c8620005c2846200059c565b620005a5565b6200059c565b9050919050565b5f819050919050565b620005e983620005ae565b62000601620005f882620005d5565b84845462000547565b825550505050565b5f90565b6200061762000609565b62000624818484620005de565b505050565b5b818110156200064b576200063f5f826200060d565b6001810190506200062a565b5050565b601f8211156200069a5762000664816200051a565b6200066f846200052c565b810160208510156200067f578190505b620006976200068e856200052c565b83018262000629565b50505b505050565b5f82821c905092915050565b5f620006bc5f19846008026200069f565b1980831691505092915050565b5f620006d68383620006ab565b9150826002028217905092915050565b620006f182620004af565b67ffffffffffffffff8111156200070d576200070c62000304565b5b620007198254620004e6565b620007268282856200064f565b5f60209050601f8311600181146200075c575f841562000747578287015190505b620007538582620006c9565b865550620007c2565b601f1984166200076c866200051a565b5f5b8281101562000795578489015182556001820191506020850194506020810190506200076e565b86831015620007b55784890151620007b1601f891682620006ab565b8355505b6001600288020188555050505b505050505050565b5f819050919050565b620007de81620007ca565b82525050565b620007ef816200059c565b82525050565b5f73ffffffffffffffffffffffffffffffffffffffff82169050919050565b5f6200082082620007f5565b9050919050565b620008328162000814565b82525050565b5f60a0820190506200084d5f830188620007d3565b6200085c6020830187620007d3565b6200086b6040830186620007d3565b6200087a6060830185620007e4565b62000889608083018462000827565b9695505050505050565b5f82825260208201905092915050565b5f620008af82620004af565b620008bb818562000893565b9350620008cd818560208601620003ba565b620008d881620002f4565b840191505092915050565b5f6020820190508181035f830152620008fd8184620008a3565b905092915050565b5f81519050919050565b5f819050602082019050919050565b5f6200092b8251620007ca565b80915050919050565b5f620009408262000905565b826200094c846200090f565b905062000959816200091e565b925060208210156200099c57620009977fffffffffffffffffffffffffffffffffffffffffffffffffffffffffffffffff836020036008026200053b565b831692505b5050919050565b60805160a05160c05160e051610100516101205161014051611c36620009e65f395f610da901525f610d6e01525f50505f50505f50505f50505f5050611c365ff3fe608060405234801561000f575f80fd5b50600436106100a7575f3560e01c806354fd4d501161006f57806354fd4d50146101635780635dad85c214610181578063667d639b1461019f57806384b0196e146101bb57806388aa4c12146101df578063c8021c2e146101fb576100a7565b806306fdde03146100ab57806331d133c2146100c95780633a8512b4146100f95780633e4f49e6146101155780634bf5d7e914610145575b5f80fd5b6100b3610217565b6040516100c09190610fd2565b60405180910390f35b6100e360048036038101906100de91906111ef565b6102a7565b6040516100f0919061127e565b60405180910390f35b610113600480360381019061010e9190611297565b6102e1565b005b61012f600480360381019061012a91906112d5565b610360565b60405161013c9190611373565b60405180910390f35b61014d6105cc565b60405161015a9190610fd2565b60405180910390f35b61016b610609565b6040516101789190610fd2565b60405180910390f35b610189610646565b604051610196919061127e565b60405180910390f35b6101b960048036038101906101b491906113c5565b61064d565b005b6101c3610809565b6040516101d69796959493929190611512565b60405180910390f35b6101f960048036038101906101f491906111ef565b6108ae565b005b61021560048036038101906102109190611594565b610b7c565b005b60606003805461022690611625565b80601f016020809104026020016040519081016040528092919081815260200182805461025290611625565b801561029d5780601f106102745761010080835404028352916020019161029d565b820191905f5260205f20905b81548152906001019060200180831161028057829003601f168201915b5050505050905090565b5f848484846040516020016102bf94939291906116a7565b604051602081830303815290604052805190602001205f1c9050949350505050565b8060025f8473ffffffffffffffffffffffffffffffffffffffff1673ffffffffffffffffffffffffffffffffffffffff1681526020019081526020015f205f6101000a81548173ffffffffffffffffffffffffffffffffffffffff021916908373ffffffffffffffffffffffffffffffffffffffff1602179055505050565b5f8060025f3373ffffffffffffffffffffffffffffffffffffffff1673ffffffffffffffffffffffffffffffffffffffff1681526020019081526020015f205f9054906101000a900473ffffffffffffffffffffffffffffffffffffffff1690505f8173ffffffffffffffffffffffffffffffffffffffff1663013cf08b856040518263ffffffff1660e01b81526004016103fb919061127e565b61014060405180830381865afa158015610417573d5f803e3d5ffd5b505050506040513d601f19601f8201168201806040525081019061043b91906118b7565b90508060c0015115610452576005925050506105c7565b8060e0015115610467576002925050506105c7565b5f816080015165ffffffffffff1690505f81036104bb57846040517f6ad060750000000000000000000000000000000000000000000000000000000081526004016104b2919061127e565b60405180910390fd5b5f4290508181116104d2575f9450505050506105c7565b5f836060015163ffffffff16836104e99190611910565b9050808211610500576001955050505050506105c7565b83610100015115610519576004955050505050506105c7565b83610120015115610532576003955050505050506105c7565b5f61053c85610be8565b90505f81600581111561055257610551611300565b5b90508673ffffffffffffffffffffffffffffffffffffffff16631e9608a8828b6040518363ffffffff1660e01b815260040161058f929190611943565b5f604051808303815f87803b1580156105a6575f80fd5b505af11580156105b8573d5f803e3d5ffd5b50505050819750505050505050505b919050565b60606040518060400160405280600a81526020017f54696d65207374616d7000000000000000000000000000000000000000000000815250905090565b60606040518060400160405280600181526020017f3100000000000000000000000000000000000000000000000000000000000000815250905090565b5f42905090565b5f8160405160200161065f919061198a565b6040516020818303038152906040528051906020012090505f8390508160405160200161068b906119f8565b60405160208183030381529060405280519060200120036106fe578060045f6101000a81548163ffffffff021916908363ffffffff1602179055508063ffffffff167fceccf714bc39bde68a069ae4149980bd5382cb4e6723fbdb6e7723728e4885ce60405160405180910390a2610803565b8160405160200161070e90611a56565b604051602081830303815290604052805190602001200361078157806004806101000a81548163ffffffff021916908363ffffffff1602179055508063ffffffff167fdf149c5d5960b920ba24706165b5dcb67e2ac13ec5c3aa0909fa229bdd328d9760405160405180910390a2610802565b8160405160200161079190611ab4565b60405160208183030381529060405280519060200120036108015780600460086101000a81548163ffffffff021916908363ffffffff1602179055508063ffffffff167fc6213165f7e768a76a2092906d1174e3b00c99567acc7e4211898fae0ae2c33c60405160405180910390a25b5b5b50505050565b5f6060805f805f606061081a610d66565b610822610da0565b46305f801b5f67ffffffffffffffff81111561084157610840611098565b5b60405190808252806020026020018201604052801561086f5781602001602082028036833780820191505090505b507f0f00000000000000000000000000000000000000000000000000000000000000959493929190965096509650965096509650965090919293949596565b3373ffffffffffffffffffffffffffffffffffffffff168473ffffffffffffffffffffffffffffffffffffffff1603610b39575f6108ee858585856102a7565b90505f6108fa82610360565b9050600460058111156109105761090f611300565b5b81600581111561092357610922611300565b5b03610a97575f60025f3373ffffffffffffffffffffffffffffffffffffffff1673ffffffffffffffffffffffffffffffffffffffff1681526020019081526020015f205f9054906101000a900473ffffffffffffffffffffffffffffffffffffffff1690508073ffffffffffffffffffffffffffffffffffffffff16631e9608a86005856040518363ffffffff1660e01b81526004016109c4929190611b0a565b5f604051808303815f87803b1580156109db575f80fd5b505af11580156109ed573d5f803e3d5ffd5b505050508260025f3373ffffffffffffffffffffffffffffffffffffffff1673ffffffffffffffffffffffffffffffffffffffff1681526020019081526020015f205f9054906101000a900473ffffffffffffffffffffffffffffffffffffffff1673ffffffffffffffffffffffffffffffffffffffff167f63d1cc08aaae6e4c1e85034d4067073ea84d1113b6281a146a76156a7b3a9a3160405160405180910390a350610b32565b60025f3373ffffffffffffffffffffffffffffffffffffffff1673ffffffffffffffffffffffffffffffffffffffff1681526020019081526020015f205f9054906101000a900473ffffffffffffffffffffffffffffffffffffffff16826040517f5f1e5ab6000000000000000000000000000000000000000000000000000000008152600401610b29929190611b31565b60405180910390fd5b5050610b76565b336040517fda75b54a000000000000000000000000000000000000000000000000000000008152600401610b6d9190611b58565b60405180910390fd5b50505050565b5f8190505f60025f3373ffffffffffffffffffffffffffffffffffffffff1673ffffffffffffffffffffffffffffffffffffffff1681526020019081526020015f205f9054906101000a900473ffffffffffffffffffffffffffffffffffffffff169050505050505050565b5f80826020015190505f808273ffffffffffffffffffffffffffffffffffffffff166040516024016040516020818303038152906040527fd4564d16000000000000000000000000000000000000000000000000000000007bffffffffffffffffffffffffffffffffffffffffffffffffffffffff19166020820180517bffffffffffffffffffffffffffffffffffffffffffffffffffffffff8381831617835250505050604051610c9a9190611bab565b5f604051808303815f865af19150503d805f8114610cd3576040519150601f19603f3d011682016040523d82523d5f602084013e610cd8565b606091505b50915091508115610d24575f81806020019051810190610cf89190611bd5565b9050856040015161ffff16811115610d17576004945050505050610d61565b6003945050505050610d61565b826040517f2e2f8409000000000000000000000000000000000000000000000000000000008152600401610d589190611b58565b60405180910390fd5b919050565b6060610d9b5f7f0000000000000000000000000000000000000000000000000000000000000000610ddb90919063ffffffff16565b905090565b6060610dd660017f0000000000000000000000000000000000000000000000000000000000000000610ddb90919063ffffffff16565b905090565b606060ff5f1b8314610df757610df083610e88565b9050610e82565b818054610e0390611625565b80601f0160208091040260200160405190810160405280929190818152602001828054610e2f90611625565b8015610e7a5780601f10610e5157610100808354040283529160200191610e7a565b820191905f5260205f20905b815481529060010190602001808311610e5d57829003601f168201915b505050505090505b92915050565b60605f610e9483610efa565b90505f602067ffffffffffffffff811115610eb257610eb1611098565b5b6040519080825280601f01601f191660200182016040528015610ee45781602001600182028036833780820191505090505b5090508181528360208201528092505050919050565b5f8060ff835f1c169050601f811115610f3f576040517fb3512b0c00000000000000000000000000000000000000000000000000000000815260040160405180910390fd5b80915050919050565b5f81519050919050565b5f82825260208201905092915050565b5f5b83811015610f7f578082015181840152602081019050610f64565b5f8484015250505050565b5f601f19601f8301169050919050565b5f610fa482610f48565b610fae8185610f52565b9350610fbe818560208601610f62565b610fc781610f8a565b840191505092915050565b5f6020820190508181035f830152610fea8184610f9a565b905092915050565b5f604051905090565b5f80fd5b5f80fd5b5f73ffffffffffffffffffffffffffffffffffffffff82169050919050565b5f61102c82611003565b9050919050565b61103c81611022565b8114611046575f80fd5b50565b5f8135905061105781611033565b92915050565b5f819050919050565b61106f8161105d565b8114611079575f80fd5b50565b5f8135905061108a81611066565b92915050565b5f80fd5b5f80fd5b7f4e487b71000000000000000000000000000000000000000000000000000000005f52604160045260245ffd5b6110ce82610f8a565b810181811067ffffffffffffffff821117156110ed576110ec611098565b5b80604052505050565b5f6110ff610ff2565b905061110b82826110c5565b919050565b5f67ffffffffffffffff82111561112a57611129611098565b5b61113382610f8a565b9050602081019050919050565b828183375f83830152505050565b5f61116061115b84611110565b6110f6565b90508281526020810184848401111561117c5761117b611094565b5b611187848285611140565b509392505050565b5f82601f8301126111a3576111a2611090565b5b81356111b384826020860161114e565b91505092915050565b5f819050919050565b6111ce816111bc565b81146111d8575f80fd5b50565b5f813590506111e9816111c5565b92915050565b5f805f806080858703121561120757611206610ffb565b5b5f61121487828801611049565b94505060206112258782880161107c565b935050604085013567ffffffffffffffff81111561124657611245610fff565b5b6112528782880161118f565b9250506060611263878288016111db565b91505092959194509250565b6112788161105d565b82525050565b5f6020820190506112915f83018461126f565b92915050565b5f80604083850312156112ad576112ac610ffb565b5b5f6112ba85828601611049565b92505060206112cb85828601611049565b9150509250929050565b5f602082840312156112ea576112e9610ffb565b5b5f6112f78482850161107c565b91505092915050565b7f4e487b71000000000000000000000000000000000000000000000000000000005f52602160045260245ffd5b6006811061133e5761133d611300565b5b50565b5f81905061134e8261132d565b919050565b5f61135d82611341565b9050919050565b61136d81611353565b82525050565b5f6020820190506113865f830184611364565b92915050565b5f63ffffffff82169050919050565b6113a48161138c565b81146113ae575f80fd5b50565b5f813590506113bf8161139b565b92915050565b5f80604083850312156113db576113da610ffb565b5b5f6113e8858286016113b1565b92505060206113f9858286016111db565b9150509250929050565b5f7fff0000000000000000000000000000000000000000000000000000000000000082169050919050565b61143781611403565b82525050565b61144681611022565b82525050565b611455816111bc565b82525050565b5f81519050919050565b5f82825260208201905092915050565b5f819050602082019050919050565b61148d8161105d565b82525050565b5f61149e8383611484565b60208301905092915050565b5f602082019050919050565b5f6114c08261145b565b6114ca8185611465565b93506114d583611475565b805f5b838110156115055781516114ec8882611493565b97506114f7836114aa565b9250506001810190506114d8565b5085935050505092915050565b5f60e0820190506115255f83018a61142e565b81810360208301526115378189610f9a565b9050818103604083015261154b8188610f9a565b905061155a606083018761126f565b611567608083018661143d565b61157460a083018561144c565b81810360c083015261158681846114b6565b905098975050505050505050565b5f805f80608085870312156115ac576115ab610ffb565b5b5f6115b98782880161107c565b94505060206115ca87828801611049565b93505060406115db87828801611049565b92505060606115ec87828801611049565b91505092959194509250565b7f4e487b71000000000000000000000000000000000000000000000000000000005f52602260045260245ffd5b5f600282049050600182168061163c57607f821691505b60208210810361164f5761164e6115f8565b5b50919050565b5f81519050919050565b5f82825260208201905092915050565b5f61167982611655565b611683818561165f565b9350611693818560208601610f62565b61169c81610f8a565b840191505092915050565b5f6080820190506116ba5f83018761143d565b6116c7602083018661126f565b81810360408301526116d9818561166f565b90506116e8606083018461144c565b95945050505050565b5f80fd5b5f8151905061170381611033565b92915050565b5f61ffff82169050919050565b61171f81611709565b8114611729575f80fd5b50565b5f8151905061173a81611716565b92915050565b5f8151905061174e8161139b565b92915050565b5f65ffffffffffff82169050919050565b61176e81611754565b8114611778575f80fd5b50565b5f8151905061178981611765565b92915050565b5f8115159050919050565b6117a38161178f565b81146117ad575f80fd5b50565b5f815190506117be8161179a565b92915050565b5f61014082840312156117da576117d96116f1565b5b6117e56101406110f6565b90505f6117f4848285016116f5565b5f830152506020611807848285016116f5565b602083015250604061181b8482850161172c565b604083015250606061182f84828501611740565b60608301525060806118438482850161177b565b60808301525060a06118578482850161177b565b60a08301525060c061186b848285016117b0565b60c08301525060e061187f848285016117b0565b60e083015250610100611894848285016117b0565b610100830152506101206118aa848285016117b0565b6101208301525092915050565b5f61014082840312156118cd576118cc610ffb565b5b5f6118da848285016117c4565b91505092915050565b7f4e487b71000000000000000000000000000000000000000000000000000000005f52601160045260245ffd5b5f61191a8261105d565b91506119258361105d565b925082820190508082111561193d5761193c6118e3565b5b92915050565b5f6040820190506119565f83018561126f565b611963602083018461126f565b9392505050565b5f819050919050565b61198461197f826111bc565b61196a565b82525050565b5f6119958284611973565b60208201915081905092915050565b5f81905092915050565b7f5f766f74654475726174696f6e000000000000000000000000000000000000005f82015250565b5f6119e2600d836119a4565b91506119ed826119ae565b600d82019050919050565b5f611a02826119d6565b9150819050919050565b7f5f6574615365636f6e64730000000000000000000000000000000000000000005f82015250565b5f611a40600b836119a4565b9150611a4b82611a0c565b600b82019050919050565b5f611a6082611a34565b9150819050919050565b7f5f766f746564656c6179000000000000000000000000000000000000000000005f82015250565b5f611a9e600a836119a4565b9150611aa982611a6a565b600a82019050919050565b5f611abe82611a92565b9150819050919050565b5f819050919050565b5f819050919050565b5f611af4611aef611aea84611ac8565b611ad1565b61105d565b9050919050565b611b0481611ada565b82525050565b5f604082019050611b1d5f830185611afb565b611b2a602083018461126f565b9392505050565b5f604082019050611b445f83018561143d565b611b51602083018461126f565b9392505050565b5f602082019050611b6b5f83018461143d565b92915050565b5f81905092915050565b5f611b8582611655565b611b8f8185611b71565b9350611b9f818560208601610f62565b80840191505092915050565b5f611bb68284611b7b565b915081905092915050565b5f81519050611bcf81611066565b92915050565b5f60208284031215611bea57611be9610ffb565b5b5f611bf784828501611bc1565b9150509291505056fea264697066735822122081ccf9a79d9b1755af98d3243a4b8aff8f76e541109acc0e21bd306fa77a405964736f6c63430008140033",
			"opcodes": "PUSH2 0x160 PUSH1 0x40 MSTORE PUSH3 0x15180 PUSH1 0x4 PUSH0 PUSH2 0x100 EXP DUP2 SLOAD DUP2 PUSH4 0xFFFFFFFF MUL NOT AND SWAP1 DUP4 PUSH4 0xFFFFFFFF AND MUL OR SWAP1 SSTORE POP PUSH3 0x15180 PUSH1 0x4 DUP1 PUSH2 0x100 EXP DUP2 SLOAD DUP2 PUSH4 0xFFFFFFFF MUL NOT AND SWAP1 DUP4 PUSH4 0xFFFFFFFF AND MUL OR SWAP1 SSTORE POP PUSH3 0x93A80 PUSH1 0x4 PUSH1 0x8 PUSH2 0x100 EXP DUP2 SLOAD DUP2 PUSH4 0xFFFFFFFF MUL NOT AND SWAP1 DUP4 PUSH4 0xFFFFFFFF AND MUL OR SWAP1 SSTORE POP CALLVALUE DUP1 ISZERO PUSH3 0x7B JUMPI PUSH0 DUP1 REVERT JUMPDEST POP PUSH1 0x40 MLOAD PUSH3 0x261C CODESIZE SUB DUP1 PUSH3 0x261C DUP4 CODECOPY DUP2 DUP2 ADD PUSH1 0x40 MSTORE DUP2 ADD SWAP1 PUSH3 0xA1 SWAP2 SWAP1 PUSH3 0x460 JUMP JUMPDEST DUP1 PUSH3 0xB2 PUSH3 0x17A PUSH1 0x20 SHL PUSH1 0x20 SHR JUMP JUMPDEST PUSH3 0xC7 PUSH0 DUP4 PUSH3 0x1B7 PUSH1 0x20 SHL SWAP1 SWAP2 SWAP1 PUSH1 0x20 SHR JUMP JUMPDEST PUSH2 0x120 DUP2 DUP2 MSTORE POP POP PUSH3 0xE5 PUSH1 0x1 DUP3 PUSH3 0x1B7 PUSH1 0x20 SHL SWAP1 SWAP2 SWAP1 PUSH1 0x20 SHR JUMP JUMPDEST PUSH2 0x140 DUP2 DUP2 MSTORE POP POP DUP2 DUP1 MLOAD SWAP1 PUSH1 0x20 ADD KECCAK256 PUSH1 0xE0 DUP2 DUP2 MSTORE POP POP DUP1 DUP1 MLOAD SWAP1 PUSH1 0x20 ADD KECCAK256 PUSH2 0x100 DUP2 DUP2 MSTORE POP POP CHAINID PUSH1 0xA0 DUP2 DUP2 MSTORE POP POP PUSH3 0x124 PUSH3 0x20C PUSH1 0x20 SHL PUSH1 0x20 SHR JUMP JUMPDEST PUSH1 0x80 DUP2 DUP2 MSTORE POP POP ADDRESS PUSH20 0xFFFFFFFFFFFFFFFFFFFFFFFFFFFFFFFFFFFFFFFF AND PUSH1 0xC0 DUP2 PUSH20 0xFFFFFFFFFFFFFFFFFFFFFFFFFFFFFFFFFFFFFFFF AND DUP2 MSTORE POP POP POP POP DUP1 PUSH1 0x3 SWAP1 DUP2 PUSH3 0x172 SWAP2 SWAP1 PUSH3 0x6E6 JUMP JUMPDEST POP POP PUSH3 0x9A3 JUMP JUMPDEST PUSH1 0x60 PUSH1 0x40 MLOAD DUP1 PUSH1 0x40 ADD PUSH1 0x40 MSTORE DUP1 PUSH1 0x1 DUP2 MSTORE PUSH1 0x20 ADD PUSH32 0x3100000000000000000000000000000000000000000000000000000000000000 DUP2 MSTORE POP SWAP1 POP SWAP1 JUMP JUMPDEST PUSH0 PUSH1 0x20 DUP4 MLOAD LT ISZERO PUSH3 0x1DC JUMPI PUSH3 0x1D4 DUP4 PUSH3 0x268 PUSH1 0x20 SHL PUSH1 0x20 SHR JUMP JUMPDEST SWAP1 POP PUSH3 0x206 JUMP JUMPDEST DUP3 PUSH3 0x1EE DUP4 PUSH3 0x2D2 PUSH1 0x20 SHL PUSH1 0x20 SHR JUMP JUMPDEST PUSH0 ADD SWAP1 DUP2 PUSH3 0x1FE SWAP2 SWAP1 PUSH3 0x6E6 JUMP JUMPDEST POP PUSH1 0xFF PUSH0 SHL SWAP1 POP JUMPDEST SWAP3 SWAP2 POP POP JUMP JUMPDEST PUSH0 PUSH32 0x8B73C3C69BB8FE3D512ECC4CF759CC79239F7B179B0FFACAA9A75D522B39400F PUSH1 0xE0 MLOAD PUSH2 0x100 MLOAD CHAINID ADDRESS PUSH1 0x40 MLOAD PUSH1 0x20 ADD PUSH3 0x24D SWAP6 SWAP5 SWAP4 SWAP3 SWAP2 SWAP1 PUSH3 0x838 JUMP JUMPDEST PUSH1 0x40 MLOAD PUSH1 0x20 DUP2 DUP4 SUB SUB DUP2 MSTORE SWAP1 PUSH1 0x40 MSTORE DUP1 MLOAD SWAP1 PUSH1 0x20 ADD KECCAK256 SWAP1 POP SWAP1 JUMP JUMPDEST PUSH0 DUP1 DUP3 SWAP1 POP PUSH1 0x1F DUP2 MLOAD GT ISZERO PUSH3 0x2B7 JUMPI DUP3 PUSH1 0x40 MLOAD PUSH32 0x305A27A900000000000000000000000000000000000000000000000000000000 DUP2 MSTORE PUSH1 0x4 ADD PUSH3 0x2AE SWAP2 SWAP1 PUSH3 0x8E3 JUMP JUMPDEST PUSH1 0x40 MLOAD DUP1 SWAP2 SUB SWAP1 REVERT JUMPDEST DUP1 MLOAD DUP2 PUSH3 0x2C5 SWAP1 PUSH3 0x934 JUMP JUMPDEST PUSH0 SHR OR PUSH0 SHL SWAP2 POP POP SWAP2 SWAP1 POP JUMP JUMPDEST PUSH0 DUP2 SWAP1 POP SWAP2 SWAP1 POP JUMP JUMPDEST PUSH0 PUSH1 0x40 MLOAD SWAP1 POP SWAP1 JUMP JUMPDEST PUSH0 DUP1 REVERT JUMPDEST PUSH0 DUP1 REVERT JUMPDEST PUSH0 DUP1 REVERT JUMPDEST PUSH0 DUP1 REVERT JUMPDEST PUSH0 PUSH1 0x1F NOT PUSH1 0x1F DUP4 ADD AND SWAP1 POP SWAP2 SWAP1 POP JUMP JUMPDEST PUSH32 0x4E487B7100000000000000000000000000000000000000000000000000000000 PUSH0 MSTORE PUSH1 0x41 PUSH1 0x4 MSTORE PUSH1 0x24 PUSH0 REVERT JUMPDEST PUSH3 0x33C DUP3 PUSH3 0x2F4 JUMP JUMPDEST DUP2 ADD DUP2 DUP2 LT PUSH8 0xFFFFFFFFFFFFFFFF DUP3 GT OR ISZERO PUSH3 0x35E JUMPI PUSH3 0x35D PUSH3 0x304 JUMP JUMPDEST JUMPDEST DUP1 PUSH1 0x40 MSTORE POP POP POP JUMP JUMPDEST PUSH0 PUSH3 0x372 PUSH3 0x2DB JUMP JUMPDEST SWAP1 POP PUSH3 0x380 DUP3 DUP3 PUSH3 0x331 JUMP JUMPDEST SWAP2 SWAP1 POP JUMP JUMPDEST PUSH0 PUSH8 0xFFFFFFFFFFFFFFFF DUP3 GT ISZERO PUSH3 0x3A2 JUMPI PUSH3 0x3A1 PUSH3 0x304 JUMP JUMPDEST JUMPDEST PUSH3 0x3AD DUP3 PUSH3 0x2F4 JUMP JUMPDEST SWAP1 POP PUSH1 0x20 DUP2 ADD SWAP1 POP SWAP2 SWAP1 POP JUMP JUMPDEST PUSH0 JUMPDEST DUP4 DUP2 LT ISZERO PUSH3 0x3D9 JUMPI DUP1 DUP3 ADD MLOAD DUP2 DUP5 ADD MSTORE PUSH1 0x20 DUP2 ADD SWAP1 POP PUSH3 0x3BC JUMP JUMPDEST PUSH0 DUP5 DUP5 ADD MSTORE POP POP POP POP JUMP JUMPDEST PUSH0 PUSH3 0x3FA PUSH3 0x3F4 DUP5 PUSH3 0x385 JUMP JUMPDEST PUSH3 0x367 JUMP JUMPDEST SWAP1 POP DUP3 DUP2 MSTORE PUSH1 0x20 DUP2 ADD DUP5 DUP5 DUP5 ADD GT ISZERO PUSH3 0x419 JUMPI PUSH3 0x418 PUSH3 0x2F0 JUMP JUMPDEST JUMPDEST PUSH3 0x426 DUP5 DUP3 DUP6 PUSH3 0x3BA JUMP JUMPDEST POP SWAP4 SWAP3 POP POP POP JUMP JUMPDEST PUSH0 DUP3 PUSH1 0x1F DUP4 ADD SLT PUSH3 0x445 JUMPI PUSH3 0x444 PUSH3 0x2EC JUMP JUMPDEST JUMPDEST DUP2 MLOAD PUSH3 0x457 DUP5 DUP3 PUSH1 0x20 DUP7 ADD PUSH3 0x3E4 JUMP JUMPDEST SWAP2 POP POP SWAP3 SWAP2 POP POP JUMP JUMPDEST PUSH0 PUSH1 0x20 DUP3 DUP5 SUB SLT ISZERO PUSH3 0x478 JUMPI PUSH3 0x477 PUSH3 0x2E4 JUMP JUMPDEST JUMPDEST PUSH0 DUP3 ADD MLOAD PUSH8 0xFFFFFFFFFFFFFFFF DUP2 GT ISZERO PUSH3 0x498 JUMPI PUSH3 0x497 PUSH3 0x2E8 JUMP JUMPDEST JUMPDEST PUSH3 0x4A6 DUP5 DUP3 DUP6 ADD PUSH3 0x42E JUMP JUMPDEST SWAP2 POP POP SWAP3 SWAP2 POP POP JUMP JUMPDEST PUSH0 DUP2 MLOAD SWAP1 POP SWAP2 SWAP1 POP JUMP JUMPDEST PUSH32 0x4E487B7100000000000000000000000000000000000000000000000000000000 PUSH0 MSTORE PUSH1 0x22 PUSH1 0x4 MSTORE PUSH1 0x24 PUSH0 REVERT JUMPDEST PUSH0 PUSH1 0x2 DUP3 DIV SWAP1 POP PUSH1 0x1 DUP3 AND DUP1 PUSH3 0x4FE JUMPI PUSH1 0x7F DUP3 AND SWAP2 POP JUMPDEST PUSH1 0x20 DUP3 LT DUP2 SUB PUSH3 0x514 JUMPI PUSH3 0x513 PUSH3 0x4B9 JUMP JUMPDEST JUMPDEST POP SWAP2 SWAP1 POP JUMP JUMPDEST PUSH0 DUP2 SWAP1 POP DUP2 PUSH0 MSTORE PUSH1 0x20 PUSH0 KECCAK256 SWAP1 POP SWAP2 SWAP1 POP JUMP JUMPDEST PUSH0 PUSH1 0x20 PUSH1 0x1F DUP4 ADD DIV SWAP1 POP SWAP2 SWAP1 POP JUMP JUMPDEST PUSH0 DUP3 DUP3 SHL SWAP1 POP SWAP3 SWAP2 POP POP JUMP JUMPDEST PUSH0 PUSH1 0x8 DUP4 MUL PUSH3 0x578 PUSH32 0xFFFFFFFFFFFFFFFFFFFFFFFFFFFFFFFFFFFFFFFFFFFFFFFFFFFFFFFFFFFFFFFF DUP3 PUSH3 0x53B JUMP JUMPDEST PUSH3 0x584 DUP7 DUP4 PUSH3 0x53B JUMP JUMPDEST SWAP6 POP DUP1 NOT DUP5 AND SWAP4 POP DUP1 DUP7 AND DUP5 OR SWAP3 POP POP POP SWAP4 SWAP3 POP POP POP JUMP JUMPDEST PUSH0 DUP2 SWAP1 POP SWAP2 SWAP1 POP JUMP JUMPDEST PUSH0 DUP2 SWAP1 POP SWAP2 SWAP1 POP JUMP JUMPDEST PUSH0 PUSH3 0x5CE PUSH3 0x5C8 PUSH3 0x5C2 DUP5 PUSH3 0x59C JUMP JUMPDEST PUSH3 0x5A5 JUMP JUMPDEST PUSH3 0x59C JUMP JUMPDEST SWAP1 POP SWAP2 SWAP1 POP JUMP JUMPDEST PUSH0 DUP2 SWAP1 POP SWAP2 SWAP1 POP JUMP JUMPDEST PUSH3 0x5E9 DUP4 PUSH3 0x5AE JUMP JUMPDEST PUSH3 0x601 PUSH3 0x5F8 DUP3 PUSH3 0x5D5 JUMP JUMPDEST DUP5 DUP5 SLOAD PUSH3 0x547 JUMP JUMPDEST DUP3 SSTORE POP POP POP POP JUMP JUMPDEST PUSH0 SWAP1 JUMP JUMPDEST PUSH3 0x617 PUSH3 0x609 JUMP JUMPDEST PUSH3 0x624 DUP2 DUP5 DUP5 PUSH3 0x5DE JUMP JUMPDEST POP POP POP JUMP JUMPDEST JUMPDEST DUP2 DUP2 LT ISZERO PUSH3 0x64B JUMPI PUSH3 0x63F PUSH0 DUP3 PUSH3 0x60D JUMP JUMPDEST PUSH1 0x1 DUP2 ADD SWAP1 POP PUSH3 0x62A JUMP JUMPDEST POP POP JUMP JUMPDEST PUSH1 0x1F DUP3 GT ISZERO PUSH3 0x69A JUMPI PUSH3 0x664 DUP2 PUSH3 0x51A JUMP JUMPDEST PUSH3 0x66F DUP5 PUSH3 0x52C JUMP JUMPDEST DUP2 ADD PUSH1 0x20 DUP6 LT ISZERO PUSH3 0x67F JUMPI DUP2 SWAP1 POP JUMPDEST PUSH3 0x697 PUSH3 0x68E DUP6 PUSH3 0x52C JUMP JUMPDEST DUP4 ADD DUP3 PUSH3 0x629 JUMP JUMPDEST POP POP JUMPDEST POP POP POP JUMP JUMPDEST PUSH0 DUP3 DUP3 SHR SWAP1 POP SWAP3 SWAP2 POP POP JUMP JUMPDEST PUSH0 PUSH3 0x6BC PUSH0 NOT DUP5 PUSH1 0x8 MUL PUSH3 0x69F JUMP JUMPDEST NOT DUP1 DUP4 AND SWAP2 POP POP SWAP3 SWAP2 POP POP JUMP JUMPDEST PUSH0 PUSH3 0x6D6 DUP4 DUP4 PUSH3 0x6AB JUMP JUMPDEST SWAP2 POP DUP3 PUSH1 0x2 MUL DUP3 OR SWAP1 POP SWAP3 SWAP2 POP POP JUMP JUMPDEST PUSH3 0x6F1 DUP3 PUSH3 0x4AF JUMP JUMPDEST PUSH8 0xFFFFFFFFFFFFFFFF DUP2 GT ISZERO PUSH3 0x70D JUMPI PUSH3 0x70C PUSH3 0x304 JUMP JUMPDEST JUMPDEST PUSH3 0x719 DUP3 SLOAD PUSH3 0x4E6 JUMP JUMPDEST PUSH3 0x726 DUP3 DUP3 DUP6 PUSH3 0x64F JUMP JUMPDEST PUSH0 PUSH1 0x20 SWAP1 POP PUSH1 0x1F DUP4 GT PUSH1 0x1 DUP2 EQ PUSH3 0x75C JUMPI PUSH0 DUP5 ISZERO PUSH3 0x747 JUMPI DUP3 DUP8 ADD MLOAD SWAP1 POP JUMPDEST PUSH3 0x753 DUP6 DUP3 PUSH3 0x6C9 JUMP JUMPDEST DUP7 SSTORE POP PUSH3 0x7C2 JUMP JUMPDEST PUSH1 0x1F NOT DUP5 AND PUSH3 0x76C DUP7 PUSH3 0x51A JUMP JUMPDEST PUSH0 JUMPDEST DUP3 DUP2 LT ISZERO PUSH3 0x795 JUMPI DUP5 DUP10 ADD MLOAD DUP3 SSTORE PUSH1 0x1 DUP3 ADD SWAP2 POP PUSH1 0x20 DUP6 ADD SWAP5 POP PUSH1 0x20 DUP2 ADD SWAP1 POP PUSH3 0x76E JUMP JUMPDEST DUP7 DUP4 LT ISZERO PUSH3 0x7B5 JUMPI DUP5 DUP10 ADD MLOAD PUSH3 0x7B1 PUSH1 0x1F DUP10 AND DUP3 PUSH3 0x6AB JUMP JUMPDEST DUP4 SSTORE POP JUMPDEST PUSH1 0x1 PUSH1 0x2 DUP9 MUL ADD DUP9 SSTORE POP POP POP JUMPDEST POP POP POP POP POP POP JUMP JUMPDEST PUSH0 DUP2 SWAP1 POP SWAP2 SWAP1 POP JUMP JUMPDEST PUSH3 0x7DE DUP2 PUSH3 0x7CA JUMP JUMPDEST DUP3 MSTORE POP POP JUMP JUMPDEST PUSH3 0x7EF DUP2 PUSH3 0x59C JUMP JUMPDEST DUP3 MSTORE POP POP JUMP JUMPDEST PUSH0 PUSH20 0xFFFFFFFFFFFFFFFFFFFFFFFFFFFFFFFFFFFFFFFF DUP3 AND SWAP1 POP SWAP2 SWAP1 POP JUMP JUMPDEST PUSH0 PUSH3 0x820 DUP3 PUSH3 0x7F5 JUMP JUMPDEST SWAP1 POP SWAP2 SWAP1 POP JUMP JUMPDEST PUSH3 0x832 DUP2 PUSH3 0x814 JUMP JUMPDEST DUP3 MSTORE POP POP JUMP JUMPDEST PUSH0 PUSH1 0xA0 DUP3 ADD SWAP1 POP PUSH3 0x84D PUSH0 DUP4 ADD DUP9 PUSH3 0x7D3 JUMP JUMPDEST PUSH3 0x85C PUSH1 0x20 DUP4 ADD DUP8 PUSH3 0x7D3 JUMP JUMPDEST PUSH3 0x86B PUSH1 0x40 DUP4 ADD DUP7 PUSH3 0x7D3 JUMP JUMPDEST PUSH3 0x87A PUSH1 0x60 DUP4 ADD DUP6 PUSH3 0x7E4 JUMP JUMPDEST PUSH3 0x889 PUSH1 0x80 DUP4 ADD DUP5 PUSH3 0x827 JUMP JUMPDEST SWAP7 SWAP6 POP POP POP POP POP POP JUMP JUMPDEST PUSH0 DUP3 DUP3 MSTORE PUSH1 0x20 DUP3 ADD SWAP1 POP SWAP3 SWAP2 POP POP JUMP JUMPDEST PUSH0 PUSH3 0x8AF DUP3 PUSH3 0x4AF JUMP JUMPDEST PUSH3 0x8BB DUP2 DUP6 PUSH3 0x893 JUMP JUMPDEST SWAP4 POP PUSH3 0x8CD DUP2 DUP6 PUSH1 0x20 DUP7 ADD PUSH3 0x3BA JUMP JUMPDEST PUSH3 0x8D8 DUP2 PUSH3 0x2F4 JUMP JUMPDEST DUP5 ADD SWAP2 POP POP SWAP3 SWAP2 POP POP JUMP JUMPDEST PUSH0 PUSH1 0x20 DUP3 ADD SWAP1 POP DUP2 DUP2 SUB PUSH0 DUP4 ADD MSTORE PUSH3 0x8FD DUP2 DUP5 PUSH3 0x8A3 JUMP JUMPDEST SWAP1 POP SWAP3 SWAP2 POP POP JUMP JUMPDEST PUSH0 DUP2 MLOAD SWAP1 POP SWAP2 SWAP1 POP JUMP JUMPDEST PUSH0 DUP2 SWAP1 POP PUSH1 0x20 DUP3 ADD SWAP1 POP SWAP2 SWAP1 POP JUMP JUMPDEST PUSH0 PUSH3 0x92B DUP3 MLOAD PUSH3 0x7CA JUMP JUMPDEST DUP1 SWAP2 POP POP SWAP2 SWAP1 POP JUMP JUMPDEST PUSH0 PUSH3 0x940 DUP3 PUSH3 0x905 JUMP JUMPDEST DUP3 PUSH3 0x94C DUP5 PUSH3 0x90F JUMP JUMPDEST SWAP1 POP PUSH3 0x959 DUP2 PUSH3 0x91E JUMP JUMPDEST SWAP3 POP PUSH1 0x20 DUP3 LT ISZERO PUSH3 0x99C JUMPI PUSH3 0x997 PUSH32 0xFFFFFFFFFFFFFFFFFFFFFFFFFFFFFFFFFFFFFFFFFFFFFFFFFFFFFFFFFFFFFFFF DUP4 PUSH1 0x20 SUB PUSH1 0x8 MUL PUSH3 0x53B JUMP JUMPDEST DUP4 AND SWAP3 POP JUMPDEST POP POP SWAP2 SWAP1 POP JUMP JUMPDEST PUSH1 0x80 MLOAD PUSH1 0xA0 MLOAD PUSH1 0xC0 MLOAD PUSH1 0xE0 MLOAD PUSH2 0x100 MLOAD PUSH2 0x120 MLOAD PUSH2 0x140 MLOAD PUSH2 0x1C36 PUSH3 0x9E6 PUSH0 CODECOPY PUSH0 PUSH2 0xDA9 ADD MSTORE PUSH0 PUSH2 0xD6E ADD MSTORE PUSH0 POP POP PUSH0 POP POP PUSH0 POP POP PUSH0 POP POP PUSH0 POP POP PUSH2 0x1C36 PUSH0 RETURN INVALID PUSH1 0x80 PUSH1 0x40 MSTORE CALLVALUE DUP1 ISZERO PUSH2 0xF JUMPI PUSH0 DUP1 REVERT JUMPDEST POP PUSH1 0x4 CALLDATASIZE LT PUSH2 0xA7 JUMPI PUSH0 CALLDATALOAD PUSH1 0xE0 SHR DUP1 PUSH4 0x54FD4D50 GT PUSH2 0x6F JUMPI DUP1 PUSH4 0x54FD4D50 EQ PUSH2 0x163 JUMPI DUP1 PUSH4 0x5DAD85C2 EQ PUSH2 0x181 JUMPI DUP1 PUSH4 0x667D639B EQ PUSH2 0x19F JUMPI DUP1 PUSH4 0x84B0196E EQ PUSH2 0x1BB JUMPI DUP1 PUSH4 0x88AA4C12 EQ PUSH2 0x1DF JUMPI DUP1 PUSH4 0xC8021C2E EQ PUSH2 0x1FB JUMPI PUSH2 0xA7 JUMP JUMPDEST DUP1 PUSH4 0x6FDDE03 EQ PUSH2 0xAB JUMPI DUP1 PUSH4 0x31D133C2 EQ PUSH2 0xC9 JUMPI DUP1 PUSH4 0x3A8512B4 EQ PUSH2 0xF9 JUMPI DUP1 PUSH4 0x3E4F49E6 EQ PUSH2 0x115 JUMPI DUP1 PUSH4 0x4BF5D7E9 EQ PUSH2 0x145 JUMPI JUMPDEST PUSH0 DUP1 REVERT JUMPDEST PUSH2 0xB3 PUSH2 0x217 JUMP JUMPDEST PUSH1 0x40 MLOAD PUSH2 0xC0 SWAP2 SWAP1 PUSH2 0xFD2 JUMP JUMPDEST PUSH1 0x40 MLOAD DUP1 SWAP2 SUB SWAP1 RETURN JUMPDEST PUSH2 0xE3 PUSH1 0x4 DUP1 CALLDATASIZE SUB DUP2 ADD SWAP1 PUSH2 0xDE SWAP2 SWAP1 PUSH2 0x11EF JUMP JUMPDEST PUSH2 0x2A7 JUMP JUMPDEST PUSH1 0x40 MLOAD PUSH2 0xF0 SWAP2 SWAP1 PUSH2 0x127E JUMP JUMPDEST PUSH1 0x40 MLOAD DUP1 SWAP2 SUB SWAP1 RETURN JUMPDEST PUSH2 0x113 PUSH1 0x4 DUP1 CALLDATASIZE SUB DUP2 ADD SWAP1 PUSH2 0x10E SWAP2 SWAP1 PUSH2 0x1297 JUMP JUMPDEST PUSH2 0x2E1 JUMP JUMPDEST STOP JUMPDEST PUSH2 0x12F PUSH1 0x4 DUP1 CALLDATASIZE SUB DUP2 ADD SWAP1 PUSH2 0x12A SWAP2 SWAP1 PUSH2 0x12D5 JUMP JUMPDEST PUSH2 0x360 JUMP JUMPDEST PUSH1 0x40 MLOAD PUSH2 0x13C SWAP2 SWAP1 PUSH2 0x1373 JUMP JUMPDEST PUSH1 0x40 MLOAD DUP1 SWAP2 SUB SWAP1 RETURN JUMPDEST PUSH2 0x14D PUSH2 0x5CC JUMP JUMPDEST PUSH1 0x40 MLOAD PUSH2 0x15A SWAP2 SWAP1 PUSH2 0xFD2 JUMP JUMPDEST PUSH1 0x40 MLOAD DUP1 SWAP2 SUB SWAP1 RETURN JUMPDEST PUSH2 0x16B PUSH2 0x609 JUMP JUMPDEST PUSH1 0x40 MLOAD PUSH2 0x178 SWAP2 SWAP1 PUSH2 0xFD2 JUMP JUMPDEST PUSH1 0x40 MLOAD DUP1 SWAP2 SUB SWAP1 RETURN JUMPDEST PUSH2 0x189 PUSH2 0x646 JUMP JUMPDEST PUSH1 0x40 MLOAD PUSH2 0x196 SWAP2 SWAP1 PUSH2 0x127E JUMP JUMPDEST PUSH1 0x40 MLOAD DUP1 SWAP2 SUB SWAP1 RETURN JUMPDEST PUSH2 0x1B9 PUSH1 0x4 DUP1 CALLDATASIZE SUB DUP2 ADD SWAP1 PUSH2 0x1B4 SWAP2 SWAP1 PUSH2 0x13C5 JUMP JUMPDEST PUSH2 0x64D JUMP JUMPDEST STOP JUMPDEST PUSH2 0x1C3 PUSH2 0x809 JUMP JUMPDEST PUSH1 0x40 MLOAD PUSH2 0x1D6 SWAP8 SWAP7 SWAP6 SWAP5 SWAP4 SWAP3 SWAP2 SWAP1 PUSH2 0x1512 JUMP JUMPDEST PUSH1 0x40 MLOAD DUP1 SWAP2 SUB SWAP1 RETURN JUMPDEST PUSH2 0x1F9 PUSH1 0x4 DUP1 CALLDATASIZE SUB DUP2 ADD SWAP1 PUSH2 0x1F4 SWAP2 SWAP1 PUSH2 0x11EF JUMP JUMPDEST PUSH2 0x8AE JUMP JUMPDEST STOP JUMPDEST PUSH2 0x215 PUSH1 0x4 DUP1 CALLDATASIZE SUB DUP2 ADD SWAP1 PUSH2 0x210 SWAP2 SWAP1 PUSH2 0x1594 JUMP JUMPDEST PUSH2 0xB7C JUMP JUMPDEST STOP JUMPDEST PUSH1 0x60 PUSH1 0x3 DUP1 SLOAD PUSH2 0x226 SWAP1 PUSH2 0x1625 JUMP JUMPDEST DUP1 PUSH1 0x1F ADD PUSH1 0x20 DUP1 SWAP2 DIV MUL PUSH1 0x20 ADD PUSH1 0x40 MLOAD SWAP1 DUP2 ADD PUSH1 0x40 MSTORE DUP1 SWAP3 SWAP2 SWAP1 DUP2 DUP2 MSTORE PUSH1 0x20 ADD DUP3 DUP1 SLOAD PUSH2 0x252 SWAP1 PUSH2 0x1625 JUMP JUMPDEST DUP1 ISZERO PUSH2 0x29D JUMPI DUP1 PUSH1 0x1F LT PUSH2 0x274 JUMPI PUSH2 0x100 DUP1 DUP4 SLOAD DIV MUL DUP4 MSTORE SWAP2 PUSH1 0x20 ADD SWAP2 PUSH2 0x29D JUMP JUMPDEST DUP3 ADD SWAP2 SWAP1 PUSH0 MSTORE PUSH1 0x20 PUSH0 KECCAK256 SWAP1 JUMPDEST DUP2 SLOAD DUP2 MSTORE SWAP1 PUSH1 0x1 ADD SWAP1 PUSH1 0x20 ADD DUP1 DUP4 GT PUSH2 0x280 JUMPI DUP3 SWAP1 SUB PUSH1 0x1F AND DUP3 ADD SWAP2 JUMPDEST POP POP POP POP POP SWAP1 POP SWAP1 JUMP JUMPDEST PUSH0 DUP5 DUP5 DUP5 DUP5 PUSH1 0x40 MLOAD PUSH1 0x20 ADD PUSH2 0x2BF SWAP5 SWAP4 SWAP3 SWAP2 SWAP1 PUSH2 0x16A7 JUMP JUMPDEST PUSH1 0x40 MLOAD PUSH1 0x20 DUP2 DUP4 SUB SUB DUP2 MSTORE SWAP1 PUSH1 0x40 MSTORE DUP1 MLOAD SWAP1 PUSH1 0x20 ADD KECCAK256 PUSH0 SHR SWAP1 POP SWAP5 SWAP4 POP POP POP POP JUMP JUMPDEST DUP1 PUSH1 0x2 PUSH0 DUP5 PUSH20 0xFFFFFFFFFFFFFFFFFFFFFFFFFFFFFFFFFFFFFFFF AND PUSH20 0xFFFFFFFFFFFFFFFFFFFFFFFFFFFFFFFFFFFFFFFF AND DUP2 MSTORE PUSH1 0x20 ADD SWAP1 DUP2 MSTORE PUSH1 0x20 ADD PUSH0 KECCAK256 PUSH0 PUSH2 0x100 EXP DUP2 SLOAD DUP2 PUSH20 0xFFFFFFFFFFFFFFFFFFFFFFFFFFFFFFFFFFFFFFFF MUL NOT AND SWAP1 DUP4 PUSH20 0xFFFFFFFFFFFFFFFFFFFFFFFFFFFFFFFFFFFFFFFF AND MUL OR SWAP1 SSTORE POP POP POP JUMP JUMPDEST PUSH0 DUP1 PUSH1 0x2 PUSH0 CALLER PUSH20 0xFFFFFFFFFFFFFFFFFFFFFFFFFFFFFFFFFFFFFFFF AND PUSH20 0xFFFFFFFFFFFFFFFFFFFFFFFFFFFFFFFFFFFFFFFF AND DUP2 MSTORE PUSH1 0x20 ADD SWAP1 DUP2 MSTORE PUSH1 0x20 ADD PUSH0 KECCAK256 PUSH0 SWAP1 SLOAD SWAP1 PUSH2 0x100 EXP SWAP1 DIV PUSH20 0xFFFFFFFFFFFFFFFFFFFFFFFFFFFFFFFFFFFFFFFF AND SWAP1 POP PUSH0 DUP2 PUSH20 0xFFFFFFFFFFFFFFFFFFFFFFFFFFFFFFFFFFFFFFFF AND PUSH4 0x13CF08B DUP6 PUSH1 0x40 MLOAD DUP3 PUSH4 0xFFFFFFFF AND PUSH1 0xE0 SHL DUP2 MSTORE PUSH1 0x4 ADD PUSH2 0x3FB SWAP2 SWAP1 PUSH2 0x127E JUMP JUMPDEST PUSH2 0x140 PUSH1 0x40 MLOAD DUP1 DUP4 SUB DUP2 DUP7 GAS STATICCALL ISZERO DUP1 ISZERO PUSH2 0x417 JUMPI RETURNDATASIZE PUSH0 DUP1 RETURNDATACOPY RETURNDATASIZE PUSH0 REVERT JUMPDEST POP POP POP POP PUSH1 0x40 MLOAD RETURNDATASIZE PUSH1 0x1F NOT PUSH1 0x1F DUP3 ADD AND DUP3 ADD DUP1 PUSH1 0x40 MSTORE POP DUP2 ADD SWAP1 PUSH2 0x43B SWAP2 SWAP1 PUSH2 0x18B7 JUMP JUMPDEST SWAP1 POP DUP1 PUSH1 0xC0 ADD MLOAD ISZERO PUSH2 0x452 JUMPI PUSH1 0x5 SWAP3 POP POP POP PUSH2 0x5C7 JUMP JUMPDEST DUP1 PUSH1 0xE0 ADD MLOAD ISZERO PUSH2 0x467 JUMPI PUSH1 0x2 SWAP3 POP POP POP PUSH2 0x5C7 JUMP JUMPDEST PUSH0 DUP2 PUSH1 0x80 ADD MLOAD PUSH6 0xFFFFFFFFFFFF AND SWAP1 POP PUSH0 DUP2 SUB PUSH2 0x4BB JUMPI DUP5 PUSH1 0x40 MLOAD PUSH32 0x6AD0607500000000000000000000000000000000000000000000000000000000 DUP2 MSTORE PUSH1 0x4 ADD PUSH2 0x4B2 SWAP2 SWAP1 PUSH2 0x127E JUMP JUMPDEST PUSH1 0x40 MLOAD DUP1 SWAP2 SUB SWAP1 REVERT JUMPDEST PUSH0 TIMESTAMP SWAP1 POP DUP2 DUP2 GT PUSH2 0x4D2 JUMPI PUSH0 SWAP5 POP POP POP POP POP PUSH2 0x5C7 JUMP JUMPDEST PUSH0 DUP4 PUSH1 0x60 ADD MLOAD PUSH4 0xFFFFFFFF AND DUP4 PUSH2 0x4E9 SWAP2 SWAP1 PUSH2 0x1910 JUMP JUMPDEST SWAP1 POP DUP1 DUP3 GT PUSH2 0x500 JUMPI PUSH1 0x1 SWAP6 POP POP POP POP POP POP PUSH2 0x5C7 JUMP JUMPDEST DUP4 PUSH2 0x100 ADD MLOAD ISZERO PUSH2 0x519 JUMPI PUSH1 0x4 SWAP6 POP POP POP POP POP POP PUSH2 0x5C7 JUMP JUMPDEST DUP4 PUSH2 0x120 ADD MLOAD ISZERO PUSH2 0x532 JUMPI PUSH1 0x3 SWAP6 POP POP POP POP POP POP PUSH2 0x5C7 JUMP JUMPDEST PUSH0 PUSH2 0x53C DUP6 PUSH2 0xBE8 JUMP JUMPDEST SWAP1 POP PUSH0 DUP2 PUSH1 0x5 DUP2 GT ISZERO PUSH2 0x552 JUMPI PUSH2 0x551 PUSH2 0x1300 JUMP JUMPDEST JUMPDEST SWAP1 POP DUP7 PUSH20 0xFFFFFFFFFFFFFFFFFFFFFFFFFFFFFFFFFFFFFFFF AND PUSH4 0x1E9608A8 DUP3 DUP12 PUSH1 0x40 MLOAD DUP4 PUSH4 0xFFFFFFFF AND PUSH1 0xE0 SHL DUP2 MSTORE PUSH1 0x4 ADD PUSH2 0x58F SWAP3 SWAP2 SWAP1 PUSH2 0x1943 JUMP JUMPDEST PUSH0 PUSH1 0x40 MLOAD DUP1 DUP4 SUB DUP2 PUSH0 DUP8 DUP1 EXTCODESIZE ISZERO DUP1 ISZERO PUSH2 0x5A6 JUMPI PUSH0 DUP1 REVERT JUMPDEST POP GAS CALL ISZERO DUP1 ISZERO PUSH2 0x5B8 JUMPI RETURNDATASIZE PUSH0 DUP1 RETURNDATACOPY RETURNDATASIZE PUSH0 REVERT JUMPDEST POP POP POP POP DUP2 SWAP8 POP POP POP POP POP POP POP POP JUMPDEST SWAP2 SWAP1 POP JUMP JUMPDEST PUSH1 0x60 PUSH1 0x40 MLOAD DUP1 PUSH1 0x40 ADD PUSH1 0x40 MSTORE DUP1 PUSH1 0xA DUP2 MSTORE PUSH1 0x20 ADD PUSH32 0x54696D65207374616D7000000000000000000000000000000000000000000000 DUP2 MSTORE POP SWAP1 POP SWAP1 JUMP JUMPDEST PUSH1 0x60 PUSH1 0x40 MLOAD DUP1 PUSH1 0x40 ADD PUSH1 0x40 MSTORE DUP1 PUSH1 0x1 DUP2 MSTORE PUSH1 0x20 ADD PUSH32 0x3100000000000000000000000000000000000000000000000000000000000000 DUP2 MSTORE POP SWAP1 POP SWAP1 JUMP JUMPDEST PUSH0 TIMESTAMP SWAP1 POP SWAP1 JUMP JUMPDEST PUSH0 DUP2 PUSH1 0x40 MLOAD PUSH1 0x20 ADD PUSH2 0x65F SWAP2 SWAP1 PUSH2 0x198A JUMP JUMPDEST PUSH1 0x40 MLOAD PUSH1 0x20 DUP2 DUP4 SUB SUB DUP2 MSTORE SWAP1 PUSH1 0x40 MSTORE DUP1 MLOAD SWAP1 PUSH1 0x20 ADD KECCAK256 SWAP1 POP PUSH0 DUP4 SWAP1 POP DUP2 PUSH1 0x40 MLOAD PUSH1 0x20 ADD PUSH2 0x68B SWAP1 PUSH2 0x19F8 JUMP JUMPDEST PUSH1 0x40 MLOAD PUSH1 0x20 DUP2 DUP4 SUB SUB DUP2 MSTORE SWAP1 PUSH1 0x40 MSTORE DUP1 MLOAD SWAP1 PUSH1 0x20 ADD KECCAK256 SUB PUSH2 0x6FE JUMPI DUP1 PUSH1 0x4 PUSH0 PUSH2 0x100 EXP DUP2 SLOAD DUP2 PUSH4 0xFFFFFFFF MUL NOT AND SWAP1 DUP4 PUSH4 0xFFFFFFFF AND MUL OR SWAP1 SSTORE POP DUP1 PUSH4 0xFFFFFFFF AND PUSH32 0xCECCF714BC39BDE68A069AE4149980BD5382CB4E6723FBDB6E7723728E4885CE PUSH1 0x40 MLOAD PUSH1 0x40 MLOAD DUP1 SWAP2 SUB SWAP1 LOG2 PUSH2 0x803 JUMP JUMPDEST DUP2 PUSH1 0x40 MLOAD PUSH1 0x20 ADD PUSH2 0x70E SWAP1 PUSH2 0x1A56 JUMP JUMPDEST PUSH1 0x40 MLOAD PUSH1 0x20 DUP2 DUP4 SUB SUB DUP2 MSTORE SWAP1 PUSH1 0x40 MSTORE DUP1 MLOAD SWAP1 PUSH1 0x20 ADD KECCAK256 SUB PUSH2 0x781 JUMPI DUP1 PUSH1 0x4 DUP1 PUSH2 0x100 EXP DUP2 SLOAD DUP2 PUSH4 0xFFFFFFFF MUL NOT AND SWAP1 DUP4 PUSH4 0xFFFFFFFF AND MUL OR SWAP1 SSTORE POP DUP1 PUSH4 0xFFFFFFFF AND PUSH32 0xDF149C5D5960B920BA24706165B5DCB67E2AC13EC5C3AA0909FA229BDD328D97 PUSH1 0x40 MLOAD PUSH1 0x40 MLOAD DUP1 SWAP2 SUB SWAP1 LOG2 PUSH2 0x802 JUMP JUMPDEST DUP2 PUSH1 0x40 MLOAD PUSH1 0x20 ADD PUSH2 0x791 SWAP1 PUSH2 0x1AB4 JUMP JUMPDEST PUSH1 0x40 MLOAD PUSH1 0x20 DUP2 DUP4 SUB SUB DUP2 MSTORE SWAP1 PUSH1 0x40 MSTORE DUP1 MLOAD SWAP1 PUSH1 0x20 ADD KECCAK256 SUB PUSH2 0x801 JUMPI DUP1 PUSH1 0x4 PUSH1 0x8 PUSH2 0x100 EXP DUP2 SLOAD DUP2 PUSH4 0xFFFFFFFF MUL NOT AND SWAP1 DUP4 PUSH4 0xFFFFFFFF AND MUL OR SWAP1 SSTORE POP DUP1 PUSH4 0xFFFFFFFF AND PUSH32 0xC6213165F7E768A76A2092906D1174E3B00C99567ACC7E4211898FAE0AE2C33C PUSH1 0x40 MLOAD PUSH1 0x40 MLOAD DUP1 SWAP2 SUB SWAP1 LOG2 JUMPDEST JUMPDEST JUMPDEST POP POP POP POP JUMP JUMPDEST PUSH0 PUSH1 0x60 DUP1 PUSH0 DUP1 PUSH0 PUSH1 0x60 PUSH2 0x81A PUSH2 0xD66 JUMP JUMPDEST PUSH2 0x822 PUSH2 0xDA0 JUMP JUMPDEST CHAINID ADDRESS PUSH0 DUP1 SHL PUSH0 PUSH8 0xFFFFFFFFFFFFFFFF DUP2 GT ISZERO PUSH2 0x841 JUMPI PUSH2 0x840 PUSH2 0x1098 JUMP JUMPDEST JUMPDEST PUSH1 0x40 MLOAD SWAP1 DUP1 DUP3 MSTORE DUP1 PUSH1 0x20 MUL PUSH1 0x20 ADD DUP3 ADD PUSH1 0x40 MSTORE DUP1 ISZERO PUSH2 0x86F JUMPI DUP2 PUSH1 0x20 ADD PUSH1 0x20 DUP3 MUL DUP1 CALLDATASIZE DUP4 CALLDATACOPY DUP1 DUP3 ADD SWAP2 POP POP SWAP1 POP JUMPDEST POP PUSH32 0xF00000000000000000000000000000000000000000000000000000000000000 SWAP6 SWAP5 SWAP4 SWAP3 SWAP2 SWAP1 SWAP7 POP SWAP7 POP SWAP7 POP SWAP7 POP SWAP7 POP SWAP7 POP SWAP7 POP SWAP1 SWAP2 SWAP3 SWAP4 SWAP5 SWAP6 SWAP7 JUMP JUMPDEST CALLER PUSH20 0xFFFFFFFFFFFFFFFFFFFFFFFFFFFFFFFFFFFFFFFF AND DUP5 PUSH20 0xFFFFFFFFFFFFFFFFFFFFFFFFFFFFFFFFFFFFFFFF AND SUB PUSH2 0xB39 JUMPI PUSH0 PUSH2 0x8EE DUP6 DUP6 DUP6 DUP6 PUSH2 0x2A7 JUMP JUMPDEST SWAP1 POP PUSH0 PUSH2 0x8FA DUP3 PUSH2 0x360 JUMP JUMPDEST SWAP1 POP PUSH1 0x4 PUSH1 0x5 DUP2 GT ISZERO PUSH2 0x910 JUMPI PUSH2 0x90F PUSH2 0x1300 JUMP JUMPDEST JUMPDEST DUP2 PUSH1 0x5 DUP2 GT ISZERO PUSH2 0x923 JUMPI PUSH2 0x922 PUSH2 0x1300 JUMP JUMPDEST JUMPDEST SUB PUSH2 0xA97 JUMPI PUSH0 PUSH1 0x2 PUSH0 CALLER PUSH20 0xFFFFFFFFFFFFFFFFFFFFFFFFFFFFFFFFFFFFFFFF AND PUSH20 0xFFFFFFFFFFFFFFFFFFFFFFFFFFFFFFFFFFFFFFFF AND DUP2 MSTORE PUSH1 0x20 ADD SWAP1 DUP2 MSTORE PUSH1 0x20 ADD PUSH0 KECCAK256 PUSH0 SWAP1 SLOAD SWAP1 PUSH2 0x100 EXP SWAP1 DIV PUSH20 0xFFFFFFFFFFFFFFFFFFFFFFFFFFFFFFFFFFFFFFFF AND SWAP1 POP DUP1 PUSH20 0xFFFFFFFFFFFFFFFFFFFFFFFFFFFFFFFFFFFFFFFF AND PUSH4 0x1E9608A8 PUSH1 0x5 DUP6 PUSH1 0x40 MLOAD DUP4 PUSH4 0xFFFFFFFF AND PUSH1 0xE0 SHL DUP2 MSTORE PUSH1 0x4 ADD PUSH2 0x9C4 SWAP3 SWAP2 SWAP1 PUSH2 0x1B0A JUMP JUMPDEST PUSH0 PUSH1 0x40 MLOAD DUP1 DUP4 SUB DUP2 PUSH0 DUP8 DUP1 EXTCODESIZE ISZERO DUP1 ISZERO PUSH2 0x9DB JUMPI PUSH0 DUP1 REVERT JUMPDEST POP GAS CALL ISZERO DUP1 ISZERO PUSH2 0x9ED JUMPI RETURNDATASIZE PUSH0 DUP1 RETURNDATACOPY RETURNDATASIZE PUSH0 REVERT JUMPDEST POP POP POP POP DUP3 PUSH1 0x2 PUSH0 CALLER PUSH20 0xFFFFFFFFFFFFFFFFFFFFFFFFFFFFFFFFFFFFFFFF AND PUSH20 0xFFFFFFFFFFFFFFFFFFFFFFFFFFFFFFFFFFFFFFFF AND DUP2 MSTORE PUSH1 0x20 ADD SWAP1 DUP2 MSTORE PUSH1 0x20 ADD PUSH0 KECCAK256 PUSH0 SWAP1 SLOAD SWAP1 PUSH2 0x100 EXP SWAP1 DIV PUSH20 0xFFFFFFFFFFFFFFFFFFFFFFFFFFFFFFFFFFFFFFFF AND PUSH20 0xFFFFFFFFFFFFFFFFFFFFFFFFFFFFFFFFFFFFFFFF AND PUSH32 0x63D1CC08AAAE6E4C1E85034D4067073EA84D1113B6281A146A76156A7B3A9A31 PUSH1 0x40 MLOAD PUSH1 0x40 MLOAD DUP1 SWAP2 SUB SWAP1 LOG3 POP PUSH2 0xB32 JUMP JUMPDEST PUSH1 0x2 PUSH0 CALLER PUSH20 0xFFFFFFFFFFFFFFFFFFFFFFFFFFFFFFFFFFFFFFFF AND PUSH20 0xFFFFFFFFFFFFFFFFFFFFFFFFFFFFFFFFFFFFFFFF AND DUP2 MSTORE PUSH1 0x20 ADD SWAP1 DUP2 MSTORE PUSH1 0x20 ADD PUSH0 KECCAK256 PUSH0 SWAP1 SLOAD SWAP1 PUSH2 0x100 EXP SWAP1 DIV PUSH20 0xFFFFFFFFFFFFFFFFFFFFFFFFFFFFFFFFFFFFFFFF AND DUP3 PUSH1 0x40 MLOAD PUSH32 0x5F1E5AB600000000000000000000000000000000000000000000000000000000 DUP2 MSTORE PUSH1 0x4 ADD PUSH2 0xB29 SWAP3 SWAP2 SWAP1 PUSH2 0x1B31 JUMP JUMPDEST PUSH1 0x40 MLOAD DUP1 SWAP2 SUB SWAP1 REVERT JUMPDEST POP POP PUSH2 0xB76 JUMP JUMPDEST CALLER PUSH1 0x40 MLOAD PUSH32 0xDA75B54A00000000000000000000000000000000000000000000000000000000 DUP2 MSTORE PUSH1 0x4 ADD PUSH2 0xB6D SWAP2 SWAP1 PUSH2 0x1B58 JUMP JUMPDEST PUSH1 0x40 MLOAD DUP1 SWAP2 SUB SWAP1 REVERT JUMPDEST POP POP POP POP JUMP JUMPDEST PUSH0 DUP2 SWAP1 POP PUSH0 PUSH1 0x2 PUSH0 CALLER PUSH20 0xFFFFFFFFFFFFFFFFFFFFFFFFFFFFFFFFFFFFFFFF AND PUSH20 0xFFFFFFFFFFFFFFFFFFFFFFFFFFFFFFFFFFFFFFFF AND DUP2 MSTORE PUSH1 0x20 ADD SWAP1 DUP2 MSTORE PUSH1 0x20 ADD PUSH0 KECCAK256 PUSH0 SWAP1 SLOAD SWAP1 PUSH2 0x100 EXP SWAP1 DIV PUSH20 0xFFFFFFFFFFFFFFFFFFFFFFFFFFFFFFFFFFFFFFFF AND SWAP1 POP POP POP POP POP POP POP JUMP JUMPDEST PUSH0 DUP1 DUP3 PUSH1 0x20 ADD MLOAD SWAP1 POP PUSH0 DUP1 DUP3 PUSH20 0xFFFFFFFFFFFFFFFFFFFFFFFFFFFFFFFFFFFFFFFF AND PUSH1 0x40 MLOAD PUSH1 0x24 ADD PUSH1 0x40 MLOAD PUSH1 0x20 DUP2 DUP4 SUB SUB DUP2 MSTORE SWAP1 PUSH1 0x40 MSTORE PUSH32 0xD4564D1600000000000000000000000000000000000000000000000000000000 PUSH28 0xFFFFFFFFFFFFFFFFFFFFFFFFFFFFFFFFFFFFFFFFFFFFFFFFFFFFFFFF NOT AND PUSH1 0x20 DUP3 ADD DUP1 MLOAD PUSH28 0xFFFFFFFFFFFFFFFFFFFFFFFFFFFFFFFFFFFFFFFFFFFFFFFFFFFFFFFF DUP4 DUP2 DUP4 AND OR DUP4 MSTORE POP POP POP POP PUSH1 0x40 MLOAD PUSH2 0xC9A SWAP2 SWAP1 PUSH2 0x1BAB JUMP JUMPDEST PUSH0 PUSH1 0x40 MLOAD DUP1 DUP4 SUB DUP2 PUSH0 DUP7 GAS CALL SWAP2 POP POP RETURNDATASIZE DUP1 PUSH0 DUP2 EQ PUSH2 0xCD3 JUMPI PUSH1 0x40 MLOAD SWAP2 POP PUSH1 0x1F NOT PUSH1 0x3F RETURNDATASIZE ADD AND DUP3 ADD PUSH1 0x40 MSTORE RETURNDATASIZE DUP3 MSTORE RETURNDATASIZE PUSH0 PUSH1 0x20 DUP5 ADD RETURNDATACOPY PUSH2 0xCD8 JUMP JUMPDEST PUSH1 0x60 SWAP2 POP JUMPDEST POP SWAP2 POP SWAP2 POP DUP2 ISZERO PUSH2 0xD24 JUMPI PUSH0 DUP2 DUP1 PUSH1 0x20 ADD SWAP1 MLOAD DUP2 ADD SWAP1 PUSH2 0xCF8 SWAP2 SWAP1 PUSH2 0x1BD5 JUMP JUMPDEST SWAP1 POP DUP6 PUSH1 0x40 ADD MLOAD PUSH2 0xFFFF AND DUP2 GT ISZERO PUSH2 0xD17 JUMPI PUSH1 0x4 SWAP5 POP POP POP POP POP PUSH2 0xD61 JUMP JUMPDEST PUSH1 0x3 SWAP5 POP POP POP POP POP PUSH2 0xD61 JUMP JUMPDEST DUP3 PUSH1 0x40 MLOAD PUSH32 0x2E2F840900000000000000000000000000000000000000000000000000000000 DUP2 MSTORE PUSH1 0x4 ADD PUSH2 0xD58 SWAP2 SWAP1 PUSH2 0x1B58 JUMP JUMPDEST PUSH1 0x40 MLOAD DUP1 SWAP2 SUB SWAP1 REVERT JUMPDEST SWAP2 SWAP1 POP JUMP JUMPDEST PUSH1 0x60 PUSH2 0xD9B PUSH0 PUSH32 0x0 PUSH2 0xDDB SWAP1 SWAP2 SWAP1 PUSH4 0xFFFFFFFF AND JUMP JUMPDEST SWAP1 POP SWAP1 JUMP JUMPDEST PUSH1 0x60 PUSH2 0xDD6 PUSH1 0x1 PUSH32 0x0 PUSH2 0xDDB SWAP1 SWAP2 SWAP1 PUSH4 0xFFFFFFFF AND JUMP JUMPDEST SWAP1 POP SWAP1 JUMP JUMPDEST PUSH1 0x60 PUSH1 0xFF PUSH0 SHL DUP4 EQ PUSH2 0xDF7 JUMPI PUSH2 0xDF0 DUP4 PUSH2 0xE88 JUMP JUMPDEST SWAP1 POP PUSH2 0xE82 JUMP JUMPDEST DUP2 DUP1 SLOAD PUSH2 0xE03 SWAP1 PUSH2 0x1625 JUMP JUMPDEST DUP1 PUSH1 0x1F ADD PUSH1 0x20 DUP1 SWAP2 DIV MUL PUSH1 0x20 ADD PUSH1 0x40 MLOAD SWAP1 DUP2 ADD PUSH1 0x40 MSTORE DUP1 SWAP3 SWAP2 SWAP1 DUP2 DUP2 MSTORE PUSH1 0x20 ADD DUP3 DUP1 SLOAD PUSH2 0xE2F SWAP1 PUSH2 0x1625 JUMP JUMPDEST DUP1 ISZERO PUSH2 0xE7A JUMPI DUP1 PUSH1 0x1F LT PUSH2 0xE51 JUMPI PUSH2 0x100 DUP1 DUP4 SLOAD DIV MUL DUP4 MSTORE SWAP2 PUSH1 0x20 ADD SWAP2 PUSH2 0xE7A JUMP JUMPDEST DUP3 ADD SWAP2 SWAP1 PUSH0 MSTORE PUSH1 0x20 PUSH0 KECCAK256 SWAP1 JUMPDEST DUP2 SLOAD DUP2 MSTORE SWAP1 PUSH1 0x1 ADD SWAP1 PUSH1 0x20 ADD DUP1 DUP4 GT PUSH2 0xE5D JUMPI DUP3 SWAP1 SUB PUSH1 0x1F AND DUP3 ADD SWAP2 JUMPDEST POP POP POP POP POP SWAP1 POP JUMPDEST SWAP3 SWAP2 POP POP JUMP JUMPDEST PUSH1 0x60 PUSH0 PUSH2 0xE94 DUP4 PUSH2 0xEFA JUMP JUMPDEST SWAP1 POP PUSH0 PUSH1 0x20 PUSH8 0xFFFFFFFFFFFFFFFF DUP2 GT ISZERO PUSH2 0xEB2 JUMPI PUSH2 0xEB1 PUSH2 0x1098 JUMP JUMPDEST JUMPDEST PUSH1 0x40 MLOAD SWAP1 DUP1 DUP3 MSTORE DUP1 PUSH1 0x1F ADD PUSH1 0x1F NOT AND PUSH1 0x20 ADD DUP3 ADD PUSH1 0x40 MSTORE DUP1 ISZERO PUSH2 0xEE4 JUMPI DUP2 PUSH1 0x20 ADD PUSH1 0x1 DUP3 MUL DUP1 CALLDATASIZE DUP4 CALLDATACOPY DUP1 DUP3 ADD SWAP2 POP POP SWAP1 POP JUMPDEST POP SWAP1 POP DUP2 DUP2 MSTORE DUP4 PUSH1 0x20 DUP3 ADD MSTORE DUP1 SWAP3 POP POP POP SWAP2 SWAP1 POP JUMP JUMPDEST PUSH0 DUP1 PUSH1 0xFF DUP4 PUSH0 SHR AND SWAP1 POP PUSH1 0x1F DUP2 GT ISZERO PUSH2 0xF3F JUMPI PUSH1 0x40 MLOAD PUSH32 0xB3512B0C00000000000000000000000000000000000000000000000000000000 DUP2 MSTORE PUSH1 0x4 ADD PUSH1 0x40 MLOAD DUP1 SWAP2 SUB SWAP1 REVERT JUMPDEST DUP1 SWAP2 POP POP SWAP2 SWAP1 POP JUMP JUMPDEST PUSH0 DUP2 MLOAD SWAP1 POP SWAP2 SWAP1 POP JUMP JUMPDEST PUSH0 DUP3 DUP3 MSTORE PUSH1 0x20 DUP3 ADD SWAP1 POP SWAP3 SWAP2 POP POP JUMP JUMPDEST PUSH0 JUMPDEST DUP4 DUP2 LT ISZERO PUSH2 0xF7F JUMPI DUP1 DUP3 ADD MLOAD DUP2 DUP5 ADD MSTORE PUSH1 0x20 DUP2 ADD SWAP1 POP PUSH2 0xF64 JUMP JUMPDEST PUSH0 DUP5 DUP5 ADD MSTORE POP POP POP POP JUMP JUMPDEST PUSH0 PUSH1 0x1F NOT PUSH1 0x1F DUP4 ADD AND SWAP1 POP SWAP2 SWAP1 POP JUMP JUMPDEST PUSH0 PUSH2 0xFA4 DUP3 PUSH2 0xF48 JUMP JUMPDEST PUSH2 0xFAE DUP2 DUP6 PUSH2 0xF52 JUMP JUMPDEST SWAP4 POP PUSH2 0xFBE DUP2 DUP6 PUSH1 0x20 DUP7 ADD PUSH2 0xF62 JUMP JUMPDEST PUSH2 0xFC7 DUP2 PUSH2 0xF8A JUMP JUMPDEST DUP5 ADD SWAP2 POP POP SWAP3 SWAP2 POP POP JUMP JUMPDEST PUSH0 PUSH1 0x20 DUP3 ADD SWAP1 POP DUP2 DUP2 SUB PUSH0 DUP4 ADD MSTORE PUSH2 0xFEA DUP2 DUP5 PUSH2 0xF9A JUMP JUMPDEST SWAP1 POP SWAP3 SWAP2 POP POP JUMP JUMPDEST PUSH0 PUSH1 0x40 MLOAD SWAP1 POP SWAP1 JUMP JUMPDEST PUSH0 DUP1 REVERT JUMPDEST PUSH0 DUP1 REVERT JUMPDEST PUSH0 PUSH20 0xFFFFFFFFFFFFFFFFFFFFFFFFFFFFFFFFFFFFFFFF DUP3 AND SWAP1 POP SWAP2 SWAP1 POP JUMP JUMPDEST PUSH0 PUSH2 0x102C DUP3 PUSH2 0x1003 JUMP JUMPDEST SWAP1 POP SWAP2 SWAP1 POP JUMP JUMPDEST PUSH2 0x103C DUP2 PUSH2 0x1022 JUMP JUMPDEST DUP2 EQ PUSH2 0x1046 JUMPI PUSH0 DUP1 REVERT JUMPDEST POP JUMP JUMPDEST PUSH0 DUP2 CALLDATALOAD SWAP1 POP PUSH2 0x1057 DUP2 PUSH2 0x1033 JUMP JUMPDEST SWAP3 SWAP2 POP POP JUMP JUMPDEST PUSH0 DUP2 SWAP1 POP SWAP2 SWAP1 POP JUMP JUMPDEST PUSH2 0x106F DUP2 PUSH2 0x105D JUMP JUMPDEST DUP2 EQ PUSH2 0x1079 JUMPI PUSH0 DUP1 REVERT JUMPDEST POP JUMP JUMPDEST PUSH0 DUP2 CALLDATALOAD SWAP1 POP PUSH2 0x108A DUP2 PUSH2 0x1066 JUMP JUMPDEST SWAP3 SWAP2 POP POP JUMP JUMPDEST PUSH0 DUP1 REVERT JUMPDEST PUSH0 DUP1 REVERT JUMPDEST PUSH32 0x4E487B7100000000000000000000000000000000000000000000000000000000 PUSH0 MSTORE PUSH1 0x41 PUSH1 0x4 MSTORE PUSH1 0x24 PUSH0 REVERT JUMPDEST PUSH2 0x10CE DUP3 PUSH2 0xF8A JUMP JUMPDEST DUP2 ADD DUP2 DUP2 LT PUSH8 0xFFFFFFFFFFFFFFFF DUP3 GT OR ISZERO PUSH2 0x10ED JUMPI PUSH2 0x10EC PUSH2 0x1098 JUMP JUMPDEST JUMPDEST DUP1 PUSH1 0x40 MSTORE POP POP POP JUMP JUMPDEST PUSH0 PUSH2 0x10FF PUSH2 0xFF2 JUMP JUMPDEST SWAP1 POP PUSH2 0x110B DUP3 DUP3 PUSH2 0x10C5 JUMP JUMPDEST SWAP2 SWAP1 POP JUMP JUMPDEST PUSH0 PUSH8 0xFFFFFFFFFFFFFFFF DUP3 GT ISZERO PUSH2 0x112A JUMPI PUSH2 0x1129 PUSH2 0x1098 JUMP JUMPDEST JUMPDEST PUSH2 0x1133 DUP3 PUSH2 0xF8A JUMP JUMPDEST SWAP1 POP PUSH1 0x20 DUP2 ADD SWAP1 POP SWAP2 SWAP1 POP JUMP JUMPDEST DUP3 DUP2 DUP4 CALLDATACOPY PUSH0 DUP4 DUP4 ADD MSTORE POP POP POP JUMP JUMPDEST PUSH0 PUSH2 0x1160 PUSH2 0x115B DUP5 PUSH2 0x1110 JUMP JUMPDEST PUSH2 0x10F6 JUMP JUMPDEST SWAP1 POP DUP3 DUP2 MSTORE PUSH1 0x20 DUP2 ADD DUP5 DUP5 DUP5 ADD GT ISZERO PUSH2 0x117C JUMPI PUSH2 0x117B PUSH2 0x1094 JUMP JUMPDEST JUMPDEST PUSH2 0x1187 DUP5 DUP3 DUP6 PUSH2 0x1140 JUMP JUMPDEST POP SWAP4 SWAP3 POP POP POP JUMP JUMPDEST PUSH0 DUP3 PUSH1 0x1F DUP4 ADD SLT PUSH2 0x11A3 JUMPI PUSH2 0x11A2 PUSH2 0x1090 JUMP JUMPDEST JUMPDEST DUP2 CALLDATALOAD PUSH2 0x11B3 DUP5 DUP3 PUSH1 0x20 DUP7 ADD PUSH2 0x114E JUMP JUMPDEST SWAP2 POP POP SWAP3 SWAP2 POP POP JUMP JUMPDEST PUSH0 DUP2 SWAP1 POP SWAP2 SWAP1 POP JUMP JUMPDEST PUSH2 0x11CE DUP2 PUSH2 0x11BC JUMP JUMPDEST DUP2 EQ PUSH2 0x11D8 JUMPI PUSH0 DUP1 REVERT JUMPDEST POP JUMP JUMPDEST PUSH0 DUP2 CALLDATALOAD SWAP1 POP PUSH2 0x11E9 DUP2 PUSH2 0x11C5 JUMP JUMPDEST SWAP3 SWAP2 POP POP JUMP JUMPDEST PUSH0 DUP1 PUSH0 DUP1 PUSH1 0x80 DUP6 DUP8 SUB SLT ISZERO PUSH2 0x1207 JUMPI PUSH2 0x1206 PUSH2 0xFFB JUMP JUMPDEST JUMPDEST PUSH0 PUSH2 0x1214 DUP8 DUP3 DUP9 ADD PUSH2 0x1049 JUMP JUMPDEST SWAP5 POP POP PUSH1 0x20 PUSH2 0x1225 DUP8 DUP3 DUP9 ADD PUSH2 0x107C JUMP JUMPDEST SWAP4 POP POP PUSH1 0x40 DUP6 ADD CALLDATALOAD PUSH8 0xFFFFFFFFFFFFFFFF DUP2 GT ISZERO PUSH2 0x1246 JUMPI PUSH2 0x1245 PUSH2 0xFFF JUMP JUMPDEST JUMPDEST PUSH2 0x1252 DUP8 DUP3 DUP9 ADD PUSH2 0x118F JUMP JUMPDEST SWAP3 POP POP PUSH1 0x60 PUSH2 0x1263 DUP8 DUP3 DUP9 ADD PUSH2 0x11DB JUMP JUMPDEST SWAP2 POP POP SWAP3 SWAP6 SWAP2 SWAP5 POP SWAP3 POP JUMP JUMPDEST PUSH2 0x1278 DUP2 PUSH2 0x105D JUMP JUMPDEST DUP3 MSTORE POP POP JUMP JUMPDEST PUSH0 PUSH1 0x20 DUP3 ADD SWAP1 POP PUSH2 0x1291 PUSH0 DUP4 ADD DUP5 PUSH2 0x126F JUMP JUMPDEST SWAP3 SWAP2 POP POP JUMP JUMPDEST PUSH0 DUP1 PUSH1 0x40 DUP4 DUP6 SUB SLT ISZERO PUSH2 0x12AD JUMPI PUSH2 0x12AC PUSH2 0xFFB JUMP JUMPDEST JUMPDEST PUSH0 PUSH2 0x12BA DUP6 DUP3 DUP7 ADD PUSH2 0x1049 JUMP JUMPDEST SWAP3 POP POP PUSH1 0x20 PUSH2 0x12CB DUP6 DUP3 DUP7 ADD PUSH2 0x1049 JUMP JUMPDEST SWAP2 POP POP SWAP3 POP SWAP3 SWAP1 POP JUMP JUMPDEST PUSH0 PUSH1 0x20 DUP3 DUP5 SUB SLT ISZERO PUSH2 0x12EA JUMPI PUSH2 0x12E9 PUSH2 0xFFB JUMP JUMPDEST JUMPDEST PUSH0 PUSH2 0x12F7 DUP5 DUP3 DUP6 ADD PUSH2 0x107C JUMP JUMPDEST SWAP2 POP POP SWAP3 SWAP2 POP POP JUMP JUMPDEST PUSH32 0x4E487B7100000000000000000000000000000000000000000000000000000000 PUSH0 MSTORE PUSH1 0x21 PUSH1 0x4 MSTORE PUSH1 0x24 PUSH0 REVERT JUMPDEST PUSH1 0x6 DUP2 LT PUSH2 0x133E JUMPI PUSH2 0x133D PUSH2 0x1300 JUMP JUMPDEST JUMPDEST POP JUMP JUMPDEST PUSH0 DUP2 SWAP1 POP PUSH2 0x134E DUP3 PUSH2 0x132D JUMP JUMPDEST SWAP2 SWAP1 POP JUMP JUMPDEST PUSH0 PUSH2 0x135D DUP3 PUSH2 0x1341 JUMP JUMPDEST SWAP1 POP SWAP2 SWAP1 POP JUMP JUMPDEST PUSH2 0x136D DUP2 PUSH2 0x1353 JUMP JUMPDEST DUP3 MSTORE POP POP JUMP JUMPDEST PUSH0 PUSH1 0x20 DUP3 ADD SWAP1 POP PUSH2 0x1386 PUSH0 DUP4 ADD DUP5 PUSH2 0x1364 JUMP JUMPDEST SWAP3 SWAP2 POP POP JUMP JUMPDEST PUSH0 PUSH4 0xFFFFFFFF DUP3 AND SWAP1 POP SWAP2 SWAP1 POP JUMP JUMPDEST PUSH2 0x13A4 DUP2 PUSH2 0x138C JUMP JUMPDEST DUP2 EQ PUSH2 0x13AE JUMPI PUSH0 DUP1 REVERT JUMPDEST POP JUMP JUMPDEST PUSH0 DUP2 CALLDATALOAD SWAP1 POP PUSH2 0x13BF DUP2 PUSH2 0x139B JUMP JUMPDEST SWAP3 SWAP2 POP POP JUMP JUMPDEST PUSH0 DUP1 PUSH1 0x40 DUP4 DUP6 SUB SLT ISZERO PUSH2 0x13DB JUMPI PUSH2 0x13DA PUSH2 0xFFB JUMP JUMPDEST JUMPDEST PUSH0 PUSH2 0x13E8 DUP6 DUP3 DUP7 ADD PUSH2 0x13B1 JUMP JUMPDEST SWAP3 POP POP PUSH1 0x20 PUSH2 0x13F9 DUP6 DUP3 DUP7 ADD PUSH2 0x11DB JUMP JUMPDEST SWAP2 POP POP SWAP3 POP SWAP3 SWAP1 POP JUMP JUMPDEST PUSH0 PUSH32 0xFF00000000000000000000000000000000000000000000000000000000000000 DUP3 AND SWAP1 POP SWAP2 SWAP1 POP JUMP JUMPDEST PUSH2 0x1437 DUP2 PUSH2 0x1403 JUMP JUMPDEST DUP3 MSTORE POP POP JUMP JUMPDEST PUSH2 0x1446 DUP2 PUSH2 0x1022 JUMP JUMPDEST DUP3 MSTORE POP POP JUMP JUMPDEST PUSH2 0x1455 DUP2 PUSH2 0x11BC JUMP JUMPDEST DUP3 MSTORE POP POP JUMP JUMPDEST PUSH0 DUP2 MLOAD SWAP1 POP SWAP2 SWAP1 POP JUMP JUMPDEST PUSH0 DUP3 DUP3 MSTORE PUSH1 0x20 DUP3 ADD SWAP1 POP SWAP3 SWAP2 POP POP JUMP JUMPDEST PUSH0 DUP2 SWAP1 POP PUSH1 0x20 DUP3 ADD SWAP1 POP SWAP2 SWAP1 POP JUMP JUMPDEST PUSH2 0x148D DUP2 PUSH2 0x105D JUMP JUMPDEST DUP3 MSTORE POP POP JUMP JUMPDEST PUSH0 PUSH2 0x149E DUP4 DUP4 PUSH2 0x1484 JUMP JUMPDEST PUSH1 0x20 DUP4 ADD SWAP1 POP SWAP3 SWAP2 POP POP JUMP JUMPDEST PUSH0 PUSH1 0x20 DUP3 ADD SWAP1 POP SWAP2 SWAP1 POP JUMP JUMPDEST PUSH0 PUSH2 0x14C0 DUP3 PUSH2 0x145B JUMP JUMPDEST PUSH2 0x14CA DUP2 DUP6 PUSH2 0x1465 JUMP JUMPDEST SWAP4 POP PUSH2 0x14D5 DUP4 PUSH2 0x1475 JUMP JUMPDEST DUP1 PUSH0 JUMPDEST DUP4 DUP2 LT ISZERO PUSH2 0x1505 JUMPI DUP2 MLOAD PUSH2 0x14EC DUP9 DUP3 PUSH2 0x1493 JUMP JUMPDEST SWAP8 POP PUSH2 0x14F7 DUP4 PUSH2 0x14AA JUMP JUMPDEST SWAP3 POP POP PUSH1 0x1 DUP2 ADD SWAP1 POP PUSH2 0x14D8 JUMP JUMPDEST POP DUP6 SWAP4 POP POP POP POP SWAP3 SWAP2 POP POP JUMP JUMPDEST PUSH0 PUSH1 0xE0 DUP3 ADD SWAP1 POP PUSH2 0x1525 PUSH0 DUP4 ADD DUP11 PUSH2 0x142E JUMP JUMPDEST DUP2 DUP2 SUB PUSH1 0x20 DUP4 ADD MSTORE PUSH2 0x1537 DUP2 DUP10 PUSH2 0xF9A JUMP JUMPDEST SWAP1 POP DUP2 DUP2 SUB PUSH1 0x40 DUP4 ADD MSTORE PUSH2 0x154B DUP2 DUP9 PUSH2 0xF9A JUMP JUMPDEST SWAP1 POP PUSH2 0x155A PUSH1 0x60 DUP4 ADD DUP8 PUSH2 0x126F JUMP JUMPDEST PUSH2 0x1567 PUSH1 0x80 DUP4 ADD DUP7 PUSH2 0x143D JUMP JUMPDEST PUSH2 0x1574 PUSH1 0xA0 DUP4 ADD DUP6 PUSH2 0x144C JUMP JUMPDEST DUP2 DUP2 SUB PUSH1 0xC0 DUP4 ADD MSTORE PUSH2 0x1586 DUP2 DUP5 PUSH2 0x14B6 JUMP JUMPDEST SWAP1 POP SWAP9 SWAP8 POP POP POP POP POP POP POP POP JUMP JUMPDEST PUSH0 DUP1 PUSH0 DUP1 PUSH1 0x80 DUP6 DUP8 SUB SLT ISZERO PUSH2 0x15AC JUMPI PUSH2 0x15AB PUSH2 0xFFB JUMP JUMPDEST JUMPDEST PUSH0 PUSH2 0x15B9 DUP8 DUP3 DUP9 ADD PUSH2 0x107C JUMP JUMPDEST SWAP5 POP POP PUSH1 0x20 PUSH2 0x15CA DUP8 DUP3 DUP9 ADD PUSH2 0x1049 JUMP JUMPDEST SWAP4 POP POP PUSH1 0x40 PUSH2 0x15DB DUP8 DUP3 DUP9 ADD PUSH2 0x1049 JUMP JUMPDEST SWAP3 POP POP PUSH1 0x60 PUSH2 0x15EC DUP8 DUP3 DUP9 ADD PUSH2 0x1049 JUMP JUMPDEST SWAP2 POP POP SWAP3 SWAP6 SWAP2 SWAP5 POP SWAP3 POP JUMP JUMPDEST PUSH32 0x4E487B7100000000000000000000000000000000000000000000000000000000 PUSH0 MSTORE PUSH1 0x22 PUSH1 0x4 MSTORE PUSH1 0x24 PUSH0 REVERT JUMPDEST PUSH0 PUSH1 0x2 DUP3 DIV SWAP1 POP PUSH1 0x1 DUP3 AND DUP1 PUSH2 0x163C JUMPI PUSH1 0x7F DUP3 AND SWAP2 POP JUMPDEST PUSH1 0x20 DUP3 LT DUP2 SUB PUSH2 0x164F JUMPI PUSH2 0x164E PUSH2 0x15F8 JUMP JUMPDEST JUMPDEST POP SWAP2 SWAP1 POP JUMP JUMPDEST PUSH0 DUP2 MLOAD SWAP1 POP SWAP2 SWAP1 POP JUMP JUMPDEST PUSH0 DUP3 DUP3 MSTORE PUSH1 0x20 DUP3 ADD SWAP1 POP SWAP3 SWAP2 POP POP JUMP JUMPDEST PUSH0 PUSH2 0x1679 DUP3 PUSH2 0x1655 JUMP JUMPDEST PUSH2 0x1683 DUP2 DUP6 PUSH2 0x165F JUMP JUMPDEST SWAP4 POP PUSH2 0x1693 DUP2 DUP6 PUSH1 0x20 DUP7 ADD PUSH2 0xF62 JUMP JUMPDEST PUSH2 0x169C DUP2 PUSH2 0xF8A JUMP JUMPDEST DUP5 ADD SWAP2 POP POP SWAP3 SWAP2 POP POP JUMP JUMPDEST PUSH0 PUSH1 0x80 DUP3 ADD SWAP1 POP PUSH2 0x16BA PUSH0 DUP4 ADD DUP8 PUSH2 0x143D JUMP JUMPDEST PUSH2 0x16C7 PUSH1 0x20 DUP4 ADD DUP7 PUSH2 0x126F JUMP JUMPDEST DUP2 DUP2 SUB PUSH1 0x40 DUP4 ADD MSTORE PUSH2 0x16D9 DUP2 DUP6 PUSH2 0x166F JUMP JUMPDEST SWAP1 POP PUSH2 0x16E8 PUSH1 0x60 DUP4 ADD DUP5 PUSH2 0x144C JUMP JUMPDEST SWAP6 SWAP5 POP POP POP POP POP JUMP JUMPDEST PUSH0 DUP1 REVERT JUMPDEST PUSH0 DUP2 MLOAD SWAP1 POP PUSH2 0x1703 DUP2 PUSH2 0x1033 JUMP JUMPDEST SWAP3 SWAP2 POP POP JUMP JUMPDEST PUSH0 PUSH2 0xFFFF DUP3 AND SWAP1 POP SWAP2 SWAP1 POP JUMP JUMPDEST PUSH2 0x171F DUP2 PUSH2 0x1709 JUMP JUMPDEST DUP2 EQ PUSH2 0x1729 JUMPI PUSH0 DUP1 REVERT JUMPDEST POP JUMP JUMPDEST PUSH0 DUP2 MLOAD SWAP1 POP PUSH2 0x173A DUP2 PUSH2 0x1716 JUMP JUMPDEST SWAP3 SWAP2 POP POP JUMP JUMPDEST PUSH0 DUP2 MLOAD SWAP1 POP PUSH2 0x174E DUP2 PUSH2 0x139B JUMP JUMPDEST SWAP3 SWAP2 POP POP JUMP JUMPDEST PUSH0 PUSH6 0xFFFFFFFFFFFF DUP3 AND SWAP1 POP SWAP2 SWAP1 POP JUMP JUMPDEST PUSH2 0x176E DUP2 PUSH2 0x1754 JUMP JUMPDEST DUP2 EQ PUSH2 0x1778 JUMPI PUSH0 DUP1 REVERT JUMPDEST POP JUMP JUMPDEST PUSH0 DUP2 MLOAD SWAP1 POP PUSH2 0x1789 DUP2 PUSH2 0x1765 JUMP JUMPDEST SWAP3 SWAP2 POP POP JUMP JUMPDEST PUSH0 DUP2 ISZERO ISZERO SWAP1 POP SWAP2 SWAP1 POP JUMP JUMPDEST PUSH2 0x17A3 DUP2 PUSH2 0x178F JUMP JUMPDEST DUP2 EQ PUSH2 0x17AD JUMPI PUSH0 DUP1 REVERT JUMPDEST POP JUMP JUMPDEST PUSH0 DUP2 MLOAD SWAP1 POP PUSH2 0x17BE DUP2 PUSH2 0x179A JUMP JUMPDEST SWAP3 SWAP2 POP POP JUMP JUMPDEST PUSH0 PUSH2 0x140 DUP3 DUP5 SUB SLT ISZERO PUSH2 0x17DA JUMPI PUSH2 0x17D9 PUSH2 0x16F1 JUMP JUMPDEST JUMPDEST PUSH2 0x17E5 PUSH2 0x140 PUSH2 0x10F6 JUMP JUMPDEST SWAP1 POP PUSH0 PUSH2 0x17F4 DUP5 DUP3 DUP6 ADD PUSH2 0x16F5 JUMP JUMPDEST PUSH0 DUP4 ADD MSTORE POP PUSH1 0x20 PUSH2 0x1807 DUP5 DUP3 DUP6 ADD PUSH2 0x16F5 JUMP JUMPDEST PUSH1 0x20 DUP4 ADD MSTORE POP PUSH1 0x40 PUSH2 0x181B DUP5 DUP3 DUP6 ADD PUSH2 0x172C JUMP JUMPDEST PUSH1 0x40 DUP4 ADD MSTORE POP PUSH1 0x60 PUSH2 0x182F DUP5 DUP3 DUP6 ADD PUSH2 0x1740 JUMP JUMPDEST PUSH1 0x60 DUP4 ADD MSTORE POP PUSH1 0x80 PUSH2 0x1843 DUP5 DUP3 DUP6 ADD PUSH2 0x177B JUMP JUMPDEST PUSH1 0x80 DUP4 ADD MSTORE POP PUSH1 0xA0 PUSH2 0x1857 DUP5 DUP3 DUP6 ADD PUSH2 0x177B JUMP JUMPDEST PUSH1 0xA0 DUP4 ADD MSTORE POP PUSH1 0xC0 PUSH2 0x186B DUP5 DUP3 DUP6 ADD PUSH2 0x17B0 JUMP JUMPDEST PUSH1 0xC0 DUP4 ADD MSTORE POP PUSH1 0xE0 PUSH2 0x187F DUP5 DUP3 DUP6 ADD PUSH2 0x17B0 JUMP JUMPDEST PUSH1 0xE0 DUP4 ADD MSTORE POP PUSH2 0x100 PUSH2 0x1894 DUP5 DUP3 DUP6 ADD PUSH2 0x17B0 JUMP JUMPDEST PUSH2 0x100 DUP4 ADD MSTORE POP PUSH2 0x120 PUSH2 0x18AA DUP5 DUP3 DUP6 ADD PUSH2 0x17B0 JUMP JUMPDEST PUSH2 0x120 DUP4 ADD MSTORE POP SWAP3 SWAP2 POP POP JUMP JUMPDEST PUSH0 PUSH2 0x140 DUP3 DUP5 SUB SLT ISZERO PUSH2 0x18CD JUMPI PUSH2 0x18CC PUSH2 0xFFB JUMP JUMPDEST JUMPDEST PUSH0 PUSH2 0x18DA DUP5 DUP3 DUP6 ADD PUSH2 0x17C4 JUMP JUMPDEST SWAP2 POP POP SWAP3 SWAP2 POP POP JUMP JUMPDEST PUSH32 0x4E487B7100000000000000000000000000000000000000000000000000000000 PUSH0 MSTORE PUSH1 0x11 PUSH1 0x4 MSTORE PUSH1 0x24 PUSH0 REVERT JUMPDEST PUSH0 PUSH2 0x191A DUP3 PUSH2 0x105D JUMP JUMPDEST SWAP2 POP PUSH2 0x1925 DUP4 PUSH2 0x105D JUMP JUMPDEST SWAP3 POP DUP3 DUP3 ADD SWAP1 POP DUP1 DUP3 GT ISZERO PUSH2 0x193D JUMPI PUSH2 0x193C PUSH2 0x18E3 JUMP JUMPDEST JUMPDEST SWAP3 SWAP2 POP POP JUMP JUMPDEST PUSH0 PUSH1 0x40 DUP3 ADD SWAP1 POP PUSH2 0x1956 PUSH0 DUP4 ADD DUP6 PUSH2 0x126F JUMP JUMPDEST PUSH2 0x1963 PUSH1 0x20 DUP4 ADD DUP5 PUSH2 0x126F JUMP JUMPDEST SWAP4 SWAP3 POP POP POP JUMP JUMPDEST PUSH0 DUP2 SWAP1 POP SWAP2 SWAP1 POP JUMP JUMPDEST PUSH2 0x1984 PUSH2 0x197F DUP3 PUSH2 0x11BC JUMP JUMPDEST PUSH2 0x196A JUMP JUMPDEST DUP3 MSTORE POP POP JUMP JUMPDEST PUSH0 PUSH2 0x1995 DUP3 DUP5 PUSH2 0x1973 JUMP JUMPDEST PUSH1 0x20 DUP3 ADD SWAP2 POP DUP2 SWAP1 POP SWAP3 SWAP2 POP POP JUMP JUMPDEST PUSH0 DUP2 SWAP1 POP SWAP3 SWAP2 POP POP JUMP JUMPDEST PUSH32 0x5F766F74654475726174696F6E00000000000000000000000000000000000000 PUSH0 DUP3 ADD MSTORE POP JUMP JUMPDEST PUSH0 PUSH2 0x19E2 PUSH1 0xD DUP4 PUSH2 0x19A4 JUMP JUMPDEST SWAP2 POP PUSH2 0x19ED DUP3 PUSH2 0x19AE JUMP JUMPDEST PUSH1 0xD DUP3 ADD SWAP1 POP SWAP2 SWAP1 POP JUMP JUMPDEST PUSH0 PUSH2 0x1A02 DUP3 PUSH2 0x19D6 JUMP JUMPDEST SWAP2 POP DUP2 SWAP1 POP SWAP2 SWAP1 POP JUMP JUMPDEST PUSH32 0x5F6574615365636F6E6473000000000000000000000000000000000000000000 PUSH0 DUP3 ADD MSTORE POP JUMP JUMPDEST PUSH0 PUSH2 0x1A40 PUSH1 0xB DUP4 PUSH2 0x19A4 JUMP JUMPDEST SWAP2 POP PUSH2 0x1A4B DUP3 PUSH2 0x1A0C JUMP JUMPDEST PUSH1 0xB DUP3 ADD SWAP1 POP SWAP2 SWAP1 POP JUMP JUMPDEST PUSH0 PUSH2 0x1A60 DUP3 PUSH2 0x1A34 JUMP JUMPDEST SWAP2 POP DUP2 SWAP1 POP SWAP2 SWAP1 POP JUMP JUMPDEST PUSH32 0x5F766F746564656C617900000000000000000000000000000000000000000000 PUSH0 DUP3 ADD MSTORE POP JUMP JUMPDEST PUSH0 PUSH2 0x1A9E PUSH1 0xA DUP4 PUSH2 0x19A4 JUMP JUMPDEST SWAP2 POP PUSH2 0x1AA9 DUP3 PUSH2 0x1A6A JUMP JUMPDEST PUSH1 0xA DUP3 ADD SWAP1 POP SWAP2 SWAP1 POP JUMP JUMPDEST PUSH0 PUSH2 0x1ABE DUP3 PUSH2 0x1A92 JUMP JUMPDEST SWAP2 POP DUP2 SWAP1 POP SWAP2 SWAP1 POP JUMP JUMPDEST PUSH0 DUP2 SWAP1 POP SWAP2 SWAP1 POP JUMP JUMPDEST PUSH0 DUP2 SWAP1 POP SWAP2 SWAP1 POP JUMP JUMPDEST PUSH0 PUSH2 0x1AF4 PUSH2 0x1AEF PUSH2 0x1AEA DUP5 PUSH2 0x1AC8 JUMP JUMPDEST PUSH2 0x1AD1 JUMP JUMPDEST PUSH2 0x105D JUMP JUMPDEST SWAP1 POP SWAP2 SWAP1 POP JUMP JUMPDEST PUSH2 0x1B04 DUP2 PUSH2 0x1ADA JUMP JUMPDEST DUP3 MSTORE POP POP JUMP JUMPDEST PUSH0 PUSH1 0x40 DUP3 ADD SWAP1 POP PUSH2 0x1B1D PUSH0 DUP4 ADD DUP6 PUSH2 0x1AFB JUMP JUMPDEST PUSH2 0x1B2A PUSH1 0x20 DUP4 ADD DUP5 PUSH2 0x126F JUMP JUMPDEST SWAP4 SWAP3 POP POP POP JUMP JUMPDEST PUSH0 PUSH1 0x40 DUP3 ADD SWAP1 POP PUSH2 0x1B44 PUSH0 DUP4 ADD DUP6 PUSH2 0x143D JUMP JUMPDEST PUSH2 0x1B51 PUSH1 0x20 DUP4 ADD DUP5 PUSH2 0x126F JUMP JUMPDEST SWAP4 SWAP3 POP POP POP JUMP JUMPDEST PUSH0 PUSH1 0x20 DUP3 ADD SWAP1 POP PUSH2 0x1B6B PUSH0 DUP4 ADD DUP5 PUSH2 0x143D JUMP JUMPDEST SWAP3 SWAP2 POP POP JUMP JUMPDEST PUSH0 DUP2 SWAP1 POP SWAP3 SWAP2 POP POP JUMP JUMPDEST PUSH0 PUSH2 0x1B85 DUP3 PUSH2 0x1655 JUMP JUMPDEST PUSH2 0x1B8F DUP2 DUP6 PUSH2 0x1B71 JUMP JUMPDEST SWAP4 POP PUSH2 0x1B9F DUP2 DUP6 PUSH1 0x20 DUP7 ADD PUSH2 0xF62 JUMP JUMPDEST DUP1 DUP5 ADD SWAP2 POP POP SWAP3 SWAP2 POP POP JUMP JUMPDEST PUSH0 PUSH2 0x1BB6 DUP3 DUP5 PUSH2 0x1B7B JUMP JUMPDEST SWAP2 POP DUP2 SWAP1 POP SWAP3 SWAP2 POP POP JUMP JUMPDEST PUSH0 DUP2 MLOAD SWAP1 POP PUSH2 0x1BCF DUP2 PUSH2 0x1066 JUMP JUMPDEST SWAP3 SWAP2 POP POP JUMP JUMPDEST PUSH0 PUSH1 0x20 DUP3 DUP5 SUB SLT ISZERO PUSH2 0x1BEA JUMPI PUSH2 0x1BE9 PUSH2 0xFFB JUMP JUMPDEST JUMPDEST PUSH0 PUSH2 0x1BF7 DUP5 DUP3 DUP6 ADD PUSH2 0x1BC1 JUMP JUMPDEST SWAP2 POP POP SWAP3 SWAP2 POP POP JUMP INVALID LOG2 PUSH5 0x6970667358 0x22 SLT KECCAK256 DUP2 0xCC 0xF9 0xA7 SWAP14 SWAP12 OR SSTORE 0xAF SWAP9 0xD3 0x24 GASPRICE 0x4B DUP11 SELFDESTRUCT DUP16 PUSH23 0xE541109ACC0E21BD306FA77A405964736F6C6343000814 STOP CALLER "
		},
		"gasEstimates": {
			"creation": {
				"codeDepositCost": "1444400",
				"executionCost": "infinite",
				"totalCost": "infinite"
			},
			"external": {
				"CLOCK_MODE()": "infinite",
				"Clock()": "353",
				"eip712Domain()": "infinite",
				"execute(address,uint256,bytes,bytes32)": "infinite",
				"hashProposal(address,uint256,bytes,bytes32)": "infinite",
				"name()": "infinite",
				"proposal(uint256,address,address,address)": "infinite",
				"setConnectors(address,address)": "infinite",
				"setvoteTiming(uint32,bytes32)": "infinite",
				"state(uint256)": "infinite",
				"version()": "infinite"
			},
			"internal": {
				"_voteResult(struct storageTCN.ProposalCore memory)": "infinite",
				"isQuorumValid(uint16)": "infinite"
			}
		},
		"methodIdentifiers": {
			"CLOCK_MODE()": "4bf5d7e9",
			"Clock()": "5dad85c2",
			"eip712Domain()": "84b0196e",
			"execute(address,uint256,bytes,bytes32)": "88aa4c12",
			"hashProposal(address,uint256,bytes,bytes32)": "31d133c2",
			"name()": "06fdde03",
			"proposal(uint256,address,address,address)": "c8021c2e",
			"setConnectors(address,address)": "3a8512b4",
			"setvoteTiming(uint32,bytes32)": "667d639b",
			"state(uint256)": "3e4f49e6",
			"version()": "54fd4d50"
		}
	},
	"abi": [
		{
			"inputs": [
				{
					"internalType": "string",
					"name": "name_",
					"type": "string"
				}
			],
			"stateMutability": "nonpayable",
			"type": "constructor"
		},
		{
			"inputs": [
				{
					"internalType": "address",
					"name": "ballot",
					"type": "address"
				}
			],
			"name": "AddressNotReturnVoteCount",
			"type": "error"
		},
		{
			"inputs": [
				{
					"internalType": "uint256",
					"name": "proposalId",
					"type": "uint256"
				}
			],
			"name": "GovernorNonexistentProposal",
			"type": "error"
		},
		{
			"inputs": [],
			"name": "InvalidShortString",
			"type": "error"
		},
		{
			"inputs": [
				{
					"internalType": "address",
					"name": "Applicant",
					"type": "address"
				}
			],
			"name": "StorageContractS_invalidAccess",
			"type": "error"
		},
		{
			"inputs": [
				{
					"internalType": "address",
					"name": "storageContract",
					"type": "address"
				},
				{
					"internalType": "uint256",
					"name": "proposalId",
					"type": "uint256"
				}
			],
			"name": "StorageContractS_invalidState",
			"type": "error"
		},
		{
			"inputs": [
				{
					"internalType": "string",
					"name": "str",
					"type": "string"
				}
			],
			"name": "StringTooLong",
			"type": "error"
		},
		{
			"inputs": [
				{
					"internalType": "bytes",
					"name": "callData",
					"type": "bytes"
				},
				{
					"internalType": "bytes32",
					"name": "descriptionHash",
					"type": "bytes32"
				}
			],
			"name": "invalidProposalParam",
			"type": "error"
		},
		{
			"inputs": [
				{
					"internalType": "uint16",
					"name": "quorum",
					"type": "uint16"
				}
			],
			"name": "invalidQuorum",
			"type": "error"
		},
		{
			"inputs": [
				{
					"internalType": "uint48",
					"name": "voteStart",
					"type": "uint48"
				}
			],
			"name": "invalidVoteStart",
			"type": "error"
		},
		{
			"inputs": [
				{
					"internalType": "uint32",
					"name": "voteDuration",
					"type": "uint32"
				}
			],
			"name": "invalidvoteDuration",
			"type": "error"
		},
		{
			"anonymous": false,
			"inputs": [
				{
					"indexed": true,
					"internalType": "address",
					"name": "storageContract",
					"type": "address"
				},
				{
					"indexed": true,
					"internalType": "uint256",
					"name": "proposalId",
					"type": "uint256"
				}
			],
			"name": "ChangeStateToExecutedAndContinue",
			"type": "event"
		},
		{
			"anonymous": false,
			"inputs": [],
			"name": "EIP712DomainChanged",
			"type": "event"
		},
		{
			"anonymous": false,
			"inputs": [
				{
					"indexed": true,
					"internalType": "uint32",
					"name": "time",
					"type": "uint32"
				}
			],
			"name": "changeEtaSeconds",
			"type": "event"
		},
		{
			"anonymous": false,
			"inputs": [
				{
					"indexed": true,
					"internalType": "uint32",
					"name": "time",
					"type": "uint32"
				}
			],
			"name": "changeVoteDelay",
			"type": "event"
		},
		{
			"anonymous": false,
			"inputs": [
				{
					"indexed": true,
					"internalType": "uint32",
					"name": "time",
					"type": "uint32"
				}
			],
			"name": "changeVoteDuration",
			"type": "event"
		},
		{
			"anonymous": false,
			"inputs": [
				{
					"indexed": true,
					"internalType": "address",
					"name": "ballotContract",
					"type": "address"
				},
				{
					"indexed": false,
					"internalType": "uint32",
					"name": "voteDuration",
					"type": "uint32"
				},
				{
					"indexed": true,
					"internalType": "uint48",
					"name": "voteStart",
					"type": "uint48"
				},
				{
					"indexed": false,
					"internalType": "uint48",
					"name": "_etaSeconds",
					"type": "uint48"
				}
			],
			"name": "setBallotVotingTimes",
			"type": "event"
		},
		{
			"inputs": [],
			"name": "CLOCK_MODE",
			"outputs": [
				{
					"internalType": "string",
					"name": "",
					"type": "string"
				}
			],
			"stateMutability": "pure",
			"type": "function"
		},
		{
			"inputs": [],
			"name": "Clock",
			"outputs": [
				{
					"internalType": "uint256",
					"name": "",
					"type": "uint256"
				}
			],
			"stateMutability": "view",
			"type": "function"
		},
		{
			"inputs": [],
			"name": "eip712Domain",
			"outputs": [
				{
					"internalType": "bytes1",
					"name": "fields",
					"type": "bytes1"
				},
				{
					"internalType": "string",
					"name": "name",
					"type": "string"
				},
				{
					"internalType": "string",
					"name": "version",
					"type": "string"
				},
				{
					"internalType": "uint256",
					"name": "chainId",
					"type": "uint256"
				},
				{
					"internalType": "address",
					"name": "verifyingContract",
					"type": "address"
				},
				{
					"internalType": "bytes32",
					"name": "salt",
					"type": "bytes32"
				},
				{
					"internalType": "uint256[]",
					"name": "extensions",
					"type": "uint256[]"
				}
			],
			"stateMutability": "view",
			"type": "function"
		},
		{
			"inputs": [
				{
					"internalType": "address",
					"name": "target",
					"type": "address"
				},
				{
					"internalType": "uint256",
					"name": "value",
					"type": "uint256"
				},
				{
					"internalType": "bytes",
					"name": "callData",
					"type": "bytes"
				},
				{
					"internalType": "bytes32",
					"name": "descriptionHash",
					"type": "bytes32"
				}
			],
			"name": "execute",
			"outputs": [],
			"stateMutability": "nonpayable",
			"type": "function"
		},
		{
			"inputs": [
				{
					"internalType": "address",
					"name": "target",
					"type": "address"
				},
				{
					"internalType": "uint256",
					"name": "value",
					"type": "uint256"
				},
				{
					"internalType": "bytes",
					"name": "callData",
					"type": "bytes"
				},
				{
					"internalType": "bytes32",
					"name": "descriptionHash",
					"type": "bytes32"
				}
			],
			"name": "hashProposal",
			"outputs": [
				{
					"internalType": "uint256",
					"name": "",
					"type": "uint256"
				}
			],
			"stateMutability": "pure",
			"type": "function"
		},
		{
			"inputs": [],
			"name": "name",
			"outputs": [
				{
					"internalType": "string",
					"name": "",
					"type": "string"
				}
			],
			"stateMutability": "view",
			"type": "function"
		},
		{
			"inputs": [
				{
					"internalType": "uint256",
					"name": "value",
					"type": "uint256"
				},
				{
					"internalType": "address",
					"name": "target",
					"type": "address"
				},
				{
					"internalType": "address",
					"name": "proposer",
					"type": "address"
				},
				{
					"internalType": "address",
					"name": "ballotAddress",
					"type": "address"
				}
			],
			"name": "proposal",
			"outputs": [],
			"stateMutability": "nonpayable",
			"type": "function"
		},
		{
			"inputs": [
				{
					"internalType": "address",
					"name": "applicantAdd_",
					"type": "address"
				},
				{
					"internalType": "address",
					"name": "storageAdd_",
					"type": "address"
				}
			],
			"name": "setConnectors",
			"outputs": [],
			"stateMutability": "nonpayable",
			"type": "function"
		},
		{
			"inputs": [
				{
					"internalType": "uint32",
					"name": "time",
					"type": "uint32"
				},
				{
					"internalType": "bytes32",
					"name": "varName",
					"type": "bytes32"
				}
			],
			"name": "setvoteTiming",
			"outputs": [],
			"stateMutability": "nonpayable",
			"type": "function"
		},
		{
			"inputs": [
				{
					"internalType": "uint256",
					"name": "proposalId",
					"type": "uint256"
				}
			],
			"name": "state",
			"outputs": [
				{
					"internalType": "enum TokenNamGovernor.ProposalState",
					"name": "",
					"type": "uint8"
				}
			],
			"stateMutability": "nonpayable",
			"type": "function"
		},
		{
			"inputs": [],
			"name": "version",
			"outputs": [
				{
					"internalType": "string",
					"name": "",
					"type": "string"
				}
			],
			"stateMutability": "pure",
			"type": "function"
		}
	]
}